{
  "_format": "hh-sol-artifact-1",
  "contractName": "TestPermitFacetHelper",
  "sourceName": "contracts/test/TestPermitFacetHelper.sol",
  "abi": [
    {
      "inputs": [],
      "name": "Expired",
      "type": "error"
    },
    {
      "inputs": [],
      "name": "InvalidAsset",
      "type": "error"
    },
    {
      "inputs": [],
      "name": "InvalidOwner",
      "type": "error"
    },
    {
      "inputs": [],
      "name": "InvalidSignature",
      "type": "error"
    },
    {
      "inputs": [],
      "name": "InvalidSpender",
      "type": "error"
    },
    {
      "inputs": [
        {
          "internalType": "address",
          "name": "controller",
          "type": "address"
        }
      ],
      "name": "addApprovedTermController",
      "outputs": [],
      "stateMutability": "nonpayable",
      "type": "function"
    },
    {
      "inputs": [],
      "name": "clearApprovedTermControllers",
      "outputs": [],
      "stateMutability": "nonpayable",
      "type": "function"
    },
    {
      "inputs": [],
      "name": "clearMulticallInitiator",
      "outputs": [],
      "stateMutability": "nonpayable",
      "type": "function"
    },
    {
      "inputs": [
        {
          "internalType": "address",
          "name": "asset",
          "type": "address"
        },
        {
          "internalType": "uint256",
          "name": "amount",
          "type": "uint256"
        },
        {
          "internalType": "address",
          "name": "spender",
          "type": "address"
        },
        {
          "internalType": "uint256",
          "name": "deadline",
          "type": "uint256"
        },
        {
          "internalType": "uint8",
          "name": "v",
          "type": "uint8"
        },
        {
          "internalType": "bytes32",
          "name": "r",
          "type": "bytes32"
        },
        {
          "internalType": "bytes32",
          "name": "s",
          "type": "bytes32"
        },
        {
          "internalType": "bool",
          "name": "skipRevert",
          "type": "bool"
        }
      ],
      "name": "permit",
      "outputs": [],
      "stateMutability": "nonpayable",
      "type": "function"
    },
    {
      "inputs": [
        {
          "internalType": "address",
          "name": "asset",
          "type": "address"
        },
        {
          "internalType": "uint256",
          "name": "amount",
          "type": "uint256"
        },
        {
          "internalType": "address",
          "name": "owner",
          "type": "address"
        },
        {
          "internalType": "uint256",
          "name": "deadline",
          "type": "uint256"
        },
        {
          "internalType": "uint8",
          "name": "v",
          "type": "uint8"
        },
        {
          "internalType": "bytes32",
          "name": "r",
          "type": "bytes32"
        },
        {
          "internalType": "bytes32",
          "name": "s",
          "type": "bytes32"
        },
        {
          "internalType": "bool",
          "name": "skipRevert",
          "type": "bool"
        }
      ],
      "name": "permitDiamond",
      "outputs": [],
      "stateMutability": "nonpayable",
      "type": "function"
    },
    {
      "inputs": [
        {
          "internalType": "address",
          "name": "asset",
          "type": "address"
        },
        {
          "internalType": "uint256",
          "name": "amount",
          "type": "uint256"
        },
        {
          "internalType": "address",
          "name": "owner",
          "type": "address"
        },
        {
          "internalType": "address",
          "name": "termContractAddress",
          "type": "address"
        },
        {
          "internalType": "uint256",
          "name": "deadline",
          "type": "uint256"
        },
        {
          "internalType": "uint8",
          "name": "v",
          "type": "uint8"
        },
        {
          "internalType": "bytes32",
          "name": "r",
          "type": "bytes32"
        },
        {
          "internalType": "bytes32",
          "name": "s",
          "type": "bytes32"
        },
        {
          "internalType": "bool",
          "name": "skipRevert",
          "type": "bool"
        }
      ],
      "name": "permitTermContract",
      "outputs": [],
      "stateMutability": "nonpayable",
      "type": "function"
    },
    {
      "inputs": [
        {
          "internalType": "address",
          "name": "_initiator",
          "type": "address"
        }
      ],
      "name": "setMulticallInitiator",
      "outputs": [],
      "stateMutability": "nonpayable",
      "type": "function"
    }
  ],
  "bytecode": "0x6080806040523461001657610952908161001c8239f35b600080fdfe6080604052600436101561001257600080fd5b6000803560e01c806306f7664d1461062457806347cedd73146103ab5780637a498e1d146103795780637d5029d114610329578063aecc3d0614610281578063cde1a4d2146101cd5763ecb1338a1461006a57600080fd5b346101ca576100783661068e565b9691610088969395919496610806565b428711156101b8576001600160a01b039283169283156101a65780831615610194576000805160206108dd8339815191525460081c168015610182578115801561017a575b61015c5760ff8716601b811415908161016e575b5061015c578996843b156101585787968793610114926040519b8c998a98899763d505accf60e01b89526004890161078b565b03925af19182610140575b505061013c5761012d6107c7565b9015610137575080f35b610899565b5080f35b61014990610727565b61015457823861011f565b8280fd5b8780fd5b604051638baa579f60e01b8152600490fd5b601c91501415386100e1565b5085156100cd565b6040516349e27cff60e01b8152600490fd5b604051635461585f60e01b8152600490fd5b604051636448d6e960e11b8152600490fd5b604051630407b05b60e31b8152600490fd5b80fd5b50346101ca5760203660031901126101ca576101e7610673565b6000805160206108fd833981519152805490600160401b82101561026d57600182019055610214906106ea565b81546001600160a01b0393841660039290921b82811b94901b191692909217905581527f2a2e13707d6b40952f0aec05e2811137753b06b56d55208636050ec9ee68dd7d60205260408120805460ff1916600117905580f35b634e487b7160e01b84526041600452602484fd5b50346101ca576102903661068e565b96919392959061029e610806565b428411156101b8576001600160a01b039283169283156101a6578616156101825784158015610321575b61015c5760ff8716601b8114159081610315575b5061015c578895833b156103115761011487969287936040519a8b988997889663d505accf60e01b885230906004890161078b565b8680fd5b601c91501415386102dc565b5080156102c8565b50346101ca57806003193601126101ca576000805160206108fd83398151915280549082815581610358578280f35b825260208220908101905b81811061036e578280f35b828155600101610363565b50346101ca57806003193601126101ca576000805160206108dd8339815191528054610100600160a81b031916905580f35b50346101ca576101203660031901126101ca576103c6610673565b6044356001600160a01b0381169190829003610154576064356001600160a01b03811690036101545760ff60a43516908160a435036106205760c435916101043593841515850361061c57610419610806565b4260843511156101b8576001600160a01b038316156101a657156101825782158015610612575b61015c57601b8114159081610606575b5061015c5783846000805160206108fd83398151915254905b8181106104f3575b5050156101945783916001600160a01b0382163b156101545782916104bf9160405194858094819363d505accf60e01b835260e4359060a4356084356024356064356044356004890161078b565b03926001600160a01b03165af190816104e0575b5061013c5761012d6107c7565b6104ec90939193610727565b91386104d3565b6104fc816106ea565b905460405163e7e4b8db60e01b81526001600160a01b0360643581166004830152909260031b9190911c16602082602481845afa9182156105fb5789926105da575b50811561055f575b5061055357600101610469565b50505060013880610471565b6040516319afa63b60e11b81526064356001600160a01b031660048201529150602090829060249082905afa9081156105cf5788916105a0575b5038610546565b6105c2915060203d6020116105c8575b6105ba8183610750565b810190610773565b38610599565b503d6105b0565b6040513d8a823e3d90fd5b6105f491925060203d6020116105c8576105ba8183610750565b903861053e565b6040513d8b823e3d90fd5b601c9150141538610450565b5060e43515610440565b8580fd5b8380fd5b50346101ca5760203660031901126101ca5761063e610673565b6000805160206108dd8339815191528054610100600160a81b03191660089290921b610100600160a81b031691909117905580f35b600435906001600160a01b038216820361068957565b600080fd5b610100906003190112610689576001600160a01b036004358181168103610689579160243591604435908116810361068957906064359060843560ff81168103610689579060a4359060c4359060e43580151581036106895790565b6000805160206108fd83398151915280548210156107115760005260206000200190600090565b634e487b7160e01b600052603260045260246000fd5b6001600160401b03811161073a57604052565b634e487b7160e01b600052604160045260246000fd5b601f909101601f19168101906001600160401b0382119082101761073a57604052565b90816020910312610689575180151581036106895790565b9360ff929897969360c0969260e087019a60018060a01b0380921688521660208701526040860152606085015216608083015260a08201520152565b3d15610801573d906001600160401b03821161073a57604051916107f5601f8201601f191660200184610750565b82523d6000602084013e565b606090565b6000805160206108dd8339815191525460081c6001600160a01b0316801561086457330361083057565b60405162461bcd60e51b815260206004820152600c60248201526b1d5b985d5d1a1bdc9a5e995960a21b6044820152606490fd5b60405162461bcd60e51b815260206004820152600d60248201526c1d5b9a5b9a5d1a585b1a5e9959609a1b6044820152606490fd5b80519081156108a757602001fd5b60405162461bcd60e51b815260206004820152600d60248201526c18d85b1b081c995d995c9d1959609a1b6044820152606490fdfe2a2e13707d6b40952f0aec05e2811137753b06b56d55208636050ec9ee68dd782a2e13707d6b40952f0aec05e2811137753b06b56d55208636050ec9ee68dd7ea26469706673582212205931d08d869b990acdd9962d2478d634173ac46d0d040eaa7ef65f66c6cfe22364736f6c63430008160033",
  "linkReferences": {},
  "deployedLinkReferences": {}
}