{
  "_format": "hh-sol-artifact-1",
  "contractName": "TestMockCollateralManager",
  "sourceName": "contracts/test/TestMockCollateralManager.sol",
  "abi": [
    {
      "inputs": [
        {
          "internalType": "uint256",
          "name": "index",
          "type": "uint256"
        }
      ],
      "name": "collateralTokens",
      "outputs": [
        {
          "internalType": "address",
          "name": "",
          "type": "address"
        }
      ],
      "stateMutability": "view",
      "type": "function"
    },
    {
      "inputs": [
        {
          "internalType": "address",
          "name": "borrower",
          "type": "address"
        },
        {
          "internalType": "address",
          "name": "token",
          "type": "address"
        }
      ],
      "name": "getCollateralBalance",
      "outputs": [
        {
          "internalType": "uint256",
          "name": "",
          "type": "uint256"
        }
      ],
      "stateMutability": "view",
      "type": "function"
    },
    {
      "inputs": [
        {
          "internalType": "address",
          "name": "",
          "type": "address"
        }
      ],
      "name": "maintenanceCollateralRatios",
      "outputs": [
        {
          "internalType": "uint256",
          "name": "",
          "type": "uint256"
        }
      ],
      "stateMutability": "view",
      "type": "function"
    },
    {
      "inputs": [],
      "name": "numOfAcceptedCollateralTokens",
      "outputs": [
        {
          "internalType": "uint8",
          "name": "",
          "type": "uint8"
        }
      ],
      "stateMutability": "view",
      "type": "function"
    },
    {
      "inputs": [
        {
          "internalType": "address",
          "name": "borrower",
          "type": "address"
        },
        {
          "internalType": "address",
          "name": "token",
          "type": "address"
        },
        {
          "internalType": "uint256",
          "name": "amount",
          "type": "uint256"
        }
      ],
      "name": "setCollateralBalance",
      "outputs": [],
      "stateMutability": "nonpayable",
      "type": "function"
    },
    {
      "inputs": [
        {
          "internalType": "address[]",
          "name": "tokens",
          "type": "address[]"
        }
      ],
      "name": "setCollateralTokens",
      "outputs": [],
      "stateMutability": "nonpayable",
      "type": "function"
    },
    {
      "inputs": [
        {
          "internalType": "address",
          "name": "token",
          "type": "address"
        },
        {
          "internalType": "uint256",
          "name": "ratio",
          "type": "uint256"
        }
      ],
      "name": "setMaintenanceRatio",
      "outputs": [],
      "stateMutability": "nonpayable",
      "type": "function"
    }
  ],
  "bytecode": "0x60808060405234610016576103c3908161001c8239f35b600080fdfe604060808152600490600436101561001657600080fd5b600091823560e01c9081630bdd3ae6146102aa578163172c48c714610273578163190e8012146102535781631cdffa4f146101265750806320db25d5146100ef5780636851d293146100bc5763b7d5820b1461007157600080fd5b346100b857806003193601126100b8578060209261008d6102f5565b610095610310565b6001600160a01b0391821683526002865283832091168252845220549051908152f35b5080fd5b50346100b857806003193601126100b8576001600160a01b036100dd6102f5565b16825260016020526024359082205580f35b50346100b85760203660031901126100b85760209181906001600160a01b036101166102f5565b1681526001845220549051908152f35b90503461024f57602090602060031936011261024b57600435916001600160401b038084116102475736602385011215610247578360040135908111610247576024906024850194602436918360051b0101116102435786548780558061021f575b50865b818110610196578780f35b6101a96101a4828489610353565b610379565b885490600160401b82101561020d5790600192916101cc84928381018d55610326565b91858060a01b0392838084549260031b9316831b921b19161790556101f56101a484878c610353565b168a5285526714d1120d7b160000888a20550161018b565b634e487b7160e01b8a5260418752848afd5b87805260208820908101905b8181106102385750610188565b88815560010161022b565b8680fd5b8580fd5b8380fd5b8280fd5b5050346100b857816003193601126100b85760ff60209254169051908152f35b5050346100b85760203660031901126100b857602090610294600435610326565b905491519160018060a01b039160031b1c168152f35b5050346100b85760603660031901126100b8576102c56102f5565b6102cd610310565b6001600160a01b03918216845260026020908152838520929091168452528120604435905580f35b600435906001600160a01b038216820361030b57565b600080fd5b602435906001600160a01b038216820361030b57565b90600091825481101561033f5782805260208320019190565b634e487b7160e01b83526032600452602483fd5b91908110156103635760051b0190565b634e487b7160e01b600052603260045260246000fd5b356001600160a01b038116810361030b579056fea2646970667358221220cb5f5c1bf44f6a5ae84466973e24fdc31d47d02eb288cc12b9dc8480268a2fef64736f6c63430008160033",
  "linkReferences": {},
  "deployedLinkReferences": {}
}