{
  "_format": "hh-sol-artifact-1",
  "contractName": "TermFlashLoanCentralReceiverFacet",
  "sourceName": "contracts/facets/flashloan/TermFlashLoanCentralReceiverFacet.sol",
  "abi": [
    {
      "inputs": [
        {
          "internalType": "address",
          "name": "flashLoanAggregator_",
          "type": "address"
        }
      ],
      "stateMutability": "nonpayable",
      "type": "constructor"
    },
    {
      "inputs": [
        {
          "internalType": "address",
          "name": "target",
          "type": "address"
        }
      ],
      "name": "AddressEmptyCode",
      "type": "error"
    },
    {
      "inputs": [],
      "name": "ArrayLengthMismatch",
      "type": "error"
    },
    {
      "inputs": [],
      "name": "CallbackFacetSelectorMismatch",
      "type": "error"
    },
    {
      "inputs": [],
      "name": "CalldataTooLarge",
      "type": "error"
    },
    {
      "inputs": [],
      "name": "ExcessivePremium",
      "type": "error"
    },
    {
      "inputs": [],
      "name": "FailedCall",
      "type": "error"
    },
    {
      "inputs": [],
      "name": "FlashloanAlreadyActive",
      "type": "error"
    },
    {
      "inputs": [],
      "name": "FlashloanNotActive",
      "type": "error"
    },
    {
      "inputs": [],
      "name": "InvalidAssetAddress",
      "type": "error"
    },
    {
      "inputs": [],
      "name": "InvalidCaller",
      "type": "error"
    },
    {
      "inputs": [],
      "name": "InvalidInitiator",
      "type": "error"
    },
    {
      "inputs": [],
      "name": "SelectorNotFound",
      "type": "error"
    },
    {
      "inputs": [],
      "name": "ZeroAmount",
      "type": "error"
    },
    {
      "inputs": [],
      "name": "MAX_OPERATION_DATA",
      "outputs": [
        {
          "internalType": "uint256",
          "name": "",
          "type": "uint256"
        }
      ],
      "stateMutability": "view",
      "type": "function"
    },
    {
      "inputs": [],
      "name": "MAX_PREMIUM_PERCENTAGE",
      "outputs": [
        {
          "internalType": "uint256",
          "name": "",
          "type": "uint256"
        }
      ],
      "stateMutability": "view",
      "type": "function"
    },
    {
      "inputs": [
        {
          "internalType": "address[]",
          "name": "assets",
          "type": "address[]"
        },
        {
          "internalType": "uint256[]",
          "name": "amounts",
          "type": "uint256[]"
        },
        {
          "internalType": "uint256[]",
          "name": "premiums",
          "type": "uint256[]"
        },
        {
          "internalType": "address",
          "name": "initiator",
          "type": "address"
        },
        {
          "internalType": "bytes",
          "name": "data",
          "type": "bytes"
        }
      ],
      "name": "executeOperation",
      "outputs": [
        {
          "internalType": "bool",
          "name": "success",
          "type": "bool"
        }
      ],
      "stateMutability": "nonpayable",
      "type": "function"
    }
  ],
  "bytecode": "0x60a03461006a57601f61082338819003918201601f19168301916001600160401b0383118484101761006f5780849260209460405283398101031261006a57516001600160a01b038116810361006a5760805260405161079d908161008682396080518161010e0152f35b600080fd5b634e487b7160e01b600052604160045260246000fdfe608080604052600436101561001357600080fd5b60003560e01c9081635d6dcaf71461061d575080635eff1735146106005763920f5c841461004057600080fd5b346104c15760a03660031901126104c1576004356001600160401b0381116104c157610070903690600401610638565b906024356001600160401b0381116104c157610090903690600401610638565b92906044356001600160401b0381116104c1576100b1903690600401610638565b6064359291906001600160a01b03841684036104c1576001600160401b03608435116104c1573660236084350112156104c1576001600160401b0360046084350135116104c157366024608435600401356084350101116104c1577f00000000000000000000000000000000000000000000000000000000000000006001600160a01b031633036105ee57306001600160a01b038516036105dc578685148015906105d2575b6105c05760005b858110610502575061800060843560040135116104f0576084356004810135810103606081126104c1576040136104c15760408051969087018088116001600160401b03909111176104da57604087016040526101bf602460843501610668565b8752608435604401356001600160e01b0319811690036104c15760843560448101356020890152606401356001600160401b0381116104c1576024608435600401356084350101604382608435010112156104c1576102256024826084350101356106c5565b9061023360405192836106a2565b6084358082016024818101358086526004840135909301019101604401116104c15760009160209160249060843581018083013590604401858501376084350101350101526020878101516040516366ffd66360e11b81526001600160e01b03199091166004820152979088602481305afa9788156104ce57600098610485575b506001600160a01b03881680156104735781516001600160a01b03160361046257602063ffffffff60e09a98969594939a1b91015116976040519685889660c0880160a060208a01525260e08701929060005b81811061043057505050926020959492610336610346936103969996601f1996878a84030160408b01526106e0565b91848784030160608801526106e0565b6001600160a01b039092166080840152828203810160a08401526004608435908101358084529060240185840137600060046084350135838101860191909152601f0116010380845201826106a2565b604051906020820193845280519060005b82811061041a576104068560008089886103d36024828b810186838201520360048101845201826106a2565b5190845af43d15610412573d916103e9836106c5565b926103f760405194856106a2565b83523d6000602085013e610704565b50602060405160018152f35b606091610704565b80602080928401015160248287010152016103a7565b9194959697509192602080600192838060a01b0361044d89610668565b16815201950191019189979695949392610307565b60405162dd849b60e61b8152600490fd5b60405163d5cf065560e01b8152600490fd5b9097506020813d6020116104c6575b816104a1602093836106a2565b810103126104c157516001600160a01b03811681036104c15796386102b4565b600080fd5b3d9150610494565b6040513d6000823e3d90fd5b634e487b7160e01b600052604160045260246000fd5b604051639e077ae560e01b8152600490fd5b61050d81878961067c565b356001600160a01b038116908190036104c157156105ae5761053081898661067c565b351561059c5761054181838561067c565b3561054d828a8761067c565b356103e890818102918183041490151715610586576127109004106105745760010161015e565b60405163219fb16b60e11b8152600490fd5b634e487b7160e01b600052601160045260246000fd5b604051631f2a200560e01b8152600490fd5b604051630ccd248560e21b8152600490fd5b60405163512509d360e11b8152600490fd5b5080871415610157565b6040516317fb43e560e31b8152600490fd5b6040516348f5c3ed60e01b8152600490fd5b346104c15760003660031901126104c15760206040516103e88152f35b346104c15760003660031901126104c1578061800060209252f35b9181601f840112156104c1578235916001600160401b0383116104c1576020808501948460051b0101116104c157565b35906001600160a01b03821682036104c157565b919081101561068c5760051b0190565b634e487b7160e01b600052603260045260246000fd5b601f909101601f19168101906001600160401b038211908210176104da57604052565b6001600160401b0381116104da57601f01601f191660200190565b81835290916001600160fb1b0383116104c15760209260051b809284830137010190565b9061072b575080511561071957805190602001fd5b60405163d6bda27560e01b8152600490fd5b8151158061075e575b61073c575090565b604051639996b31560e01b81526001600160a01b039091166004820152602490fd5b50803b1561073456fea26469706673582212202fcd1454a327a43eca412e979c69720945e21e27f160fadfb37c2709ab0b338a64736f6c63430008160033",
  "linkReferences": {},
  "deployedLinkReferences": {}
}