{
  "_format": "hh-sol-artifact-1",
  "contractName": "TestMockMorphoOracle",
  "sourceName": "contracts/test/TestMockMorphoOracle.sol",
  "abi": [
    {
      "inputs": [],
      "name": "price",
      "outputs": [
        {
          "internalType": "uint256",
          "name": "",
          "type": "uint256"
        }
      ],
      "stateMutability": "view",
      "type": "function"
    },
    {
      "inputs": [
        {
          "internalType": "uint256",
          "name": "price_",
          "type": "uint256"
        }
      ],
      "name": "setPrice",
      "outputs": [],
      "stateMutability": "nonpayable",
      "type": "function"
    }
  ],
  "bytecode": "0x60808060405234601457609d908161001a8239f35b600080fdfe6080806040526004361015601257600080fd5b600090813560e01c806391b7f5ed14604c5763a035b1fe14603257600080fd5b3460485781600319360112604857602091548152f35b5080fd5b82346064576020366003190112606457600435815580f35b80fdfea2646970667358221220d064c05c04f9beae03c653df38c53b0f6b0dd7d45c763ffc92d1575df6650f4964736f6c63430008160033",
  "linkReferences": {},
  "deployedLinkReferences": {}
}