{
  "_format": "hh-sol-artifact-1",
  "contractName": "TestAuthenticator",
  "sourceName": "contracts/test/TestAuthenticator.sol",
  "abi": [
    {
      "inputs": [],
      "name": "AuthExpired",
      "type": "error"
    },
    {
      "inputs": [],
      "name": "InvalidSignature",
      "type": "error"
    },
    {
      "inputs": [
        {
          "internalType": "uint256",
          "name": "signatureLength",
          "type": "uint256"
        }
      ],
      "name": "InvalidSignatureLength",
      "type": "error"
    },
    {
      "inputs": [],
      "name": "InvalidTransactionDataLength",
      "type": "error"
    },
    {
      "inputs": [
        {
          "internalType": "uint256",
          "name": "nonce",
          "type": "uint256"
        }
      ],
      "name": "NonceAlreadyUsed",
      "type": "error"
    },
    {
      "anonymous": false,
      "inputs": [
        {
          "indexed": false,
          "internalType": "address",
          "name": "previousAdmin",
          "type": "address"
        },
        {
          "indexed": false,
          "internalType": "address",
          "name": "newAdmin",
          "type": "address"
        }
      ],
      "name": "AdminChanged",
      "type": "event"
    },
    {
      "anonymous": false,
      "inputs": [
        {
          "indexed": true,
          "internalType": "address",
          "name": "beacon",
          "type": "address"
        }
      ],
      "name": "BeaconUpgraded",
      "type": "event"
    },
    {
      "anonymous": false,
      "inputs": [
        {
          "indexed": false,
          "internalType": "uint8",
          "name": "version",
          "type": "uint8"
        }
      ],
      "name": "Initialized",
      "type": "event"
    },
    {
      "anonymous": false,
      "inputs": [
        {
          "indexed": false,
          "internalType": "address",
          "name": "account",
          "type": "address"
        }
      ],
      "name": "Paused",
      "type": "event"
    },
    {
      "anonymous": false,
      "inputs": [
        {
          "indexed": true,
          "internalType": "bytes32",
          "name": "role",
          "type": "bytes32"
        },
        {
          "indexed": true,
          "internalType": "bytes32",
          "name": "previousAdminRole",
          "type": "bytes32"
        },
        {
          "indexed": true,
          "internalType": "bytes32",
          "name": "newAdminRole",
          "type": "bytes32"
        }
      ],
      "name": "RoleAdminChanged",
      "type": "event"
    },
    {
      "anonymous": false,
      "inputs": [
        {
          "indexed": true,
          "internalType": "bytes32",
          "name": "role",
          "type": "bytes32"
        },
        {
          "indexed": true,
          "internalType": "address",
          "name": "account",
          "type": "address"
        },
        {
          "indexed": true,
          "internalType": "address",
          "name": "sender",
          "type": "address"
        }
      ],
      "name": "RoleGranted",
      "type": "event"
    },
    {
      "anonymous": false,
      "inputs": [
        {
          "indexed": true,
          "internalType": "bytes32",
          "name": "role",
          "type": "bytes32"
        },
        {
          "indexed": true,
          "internalType": "address",
          "name": "account",
          "type": "address"
        },
        {
          "indexed": true,
          "internalType": "address",
          "name": "sender",
          "type": "address"
        }
      ],
      "name": "RoleRevoked",
      "type": "event"
    },
    {
      "anonymous": false,
      "inputs": [
        {
          "indexed": false,
          "internalType": "address",
          "name": "account",
          "type": "address"
        }
      ],
      "name": "Unpaused",
      "type": "event"
    },
    {
      "anonymous": false,
      "inputs": [
        {
          "indexed": true,
          "internalType": "address",
          "name": "implementation",
          "type": "address"
        }
      ],
      "name": "Upgraded",
      "type": "event"
    },
    {
      "inputs": [],
      "name": "DEFAULT_ADMIN_ROLE",
      "outputs": [
        {
          "internalType": "bytes32",
          "name": "",
          "type": "bytes32"
        }
      ],
      "stateMutability": "view",
      "type": "function"
    },
    {
      "inputs": [],
      "name": "EIP712_HEADER",
      "outputs": [
        {
          "internalType": "string",
          "name": "",
          "type": "string"
        }
      ],
      "stateMutability": "view",
      "type": "function"
    },
    {
      "inputs": [],
      "name": "ERC1271_MAGIC_VALUE",
      "outputs": [
        {
          "internalType": "bytes4",
          "name": "",
          "type": "bytes4"
        }
      ],
      "stateMutability": "view",
      "type": "function"
    },
    {
      "inputs": [],
      "name": "SIGNATURE_LENGTH",
      "outputs": [
        {
          "internalType": "uint256",
          "name": "",
          "type": "uint256"
        }
      ],
      "stateMutability": "view",
      "type": "function"
    },
    {
      "inputs": [],
      "name": "SIGNATURE_WITH_PADDING_LENGTH",
      "outputs": [
        {
          "internalType": "uint256",
          "name": "",
          "type": "uint256"
        }
      ],
      "stateMutability": "view",
      "type": "function"
    },
    {
      "inputs": [
        {
          "components": [
            {
              "internalType": "address",
              "name": "user",
              "type": "address"
            },
            {
              "internalType": "uint256",
              "name": "nonce",
              "type": "uint256"
            },
            {
              "internalType": "uint256",
              "name": "expirationTimestamp",
              "type": "uint256"
            },
            {
              "internalType": "bytes",
              "name": "signature",
              "type": "bytes"
            },
            {
              "internalType": "bool",
              "name": "isContractWallet",
              "type": "bool"
            }
          ],
          "internalType": "struct TermAuth",
          "name": "termAuth",
          "type": "tuple"
        },
        {
          "internalType": "address",
          "name": "txContract",
          "type": "address"
        },
        {
          "internalType": "bytes",
          "name": "txMsgData",
          "type": "bytes"
        }
      ],
      "name": "authenticate",
      "outputs": [
        {
          "internalType": "bool",
          "name": "",
          "type": "bool"
        }
      ],
      "stateMutability": "nonpayable",
      "type": "function"
    },
    {
      "inputs": [
        {
          "components": [
            {
              "internalType": "address",
              "name": "user",
              "type": "address"
            },
            {
              "internalType": "uint256",
              "name": "nonce",
              "type": "uint256"
            },
            {
              "internalType": "uint256",
              "name": "expirationTimestamp",
              "type": "uint256"
            },
            {
              "internalType": "bytes",
              "name": "signature",
              "type": "bytes"
            },
            {
              "internalType": "bool",
              "name": "isContractWallet",
              "type": "bool"
            }
          ],
          "internalType": "struct TermAuth",
          "name": "termAuth",
          "type": "tuple"
        },
        {
          "internalType": "address",
          "name": "txContract",
          "type": "address"
        },
        {
          "internalType": "bytes",
          "name": "txMsgData",
          "type": "bytes"
        }
      ],
      "name": "ensureAuthenticated",
      "outputs": [],
      "stateMutability": "nonpayable",
      "type": "function"
    },
    {
      "inputs": [
        {
          "internalType": "bytes32",
          "name": "role",
          "type": "bytes32"
        }
      ],
      "name": "getRoleAdmin",
      "outputs": [
        {
          "internalType": "bytes32",
          "name": "",
          "type": "bytes32"
        }
      ],
      "stateMutability": "view",
      "type": "function"
    },
    {
      "inputs": [
        {
          "internalType": "bytes32",
          "name": "role",
          "type": "bytes32"
        },
        {
          "internalType": "address",
          "name": "account",
          "type": "address"
        }
      ],
      "name": "grantRole",
      "outputs": [],
      "stateMutability": "nonpayable",
      "type": "function"
    },
    {
      "inputs": [
        {
          "internalType": "bytes32",
          "name": "role",
          "type": "bytes32"
        },
        {
          "internalType": "address",
          "name": "account",
          "type": "address"
        }
      ],
      "name": "hasRole",
      "outputs": [
        {
          "internalType": "bool",
          "name": "",
          "type": "bool"
        }
      ],
      "stateMutability": "view",
      "type": "function"
    },
    {
      "inputs": [],
      "name": "initialize",
      "outputs": [],
      "stateMutability": "nonpayable",
      "type": "function"
    },
    {
      "inputs": [],
      "name": "paused",
      "outputs": [
        {
          "internalType": "bool",
          "name": "",
          "type": "bool"
        }
      ],
      "stateMutability": "view",
      "type": "function"
    },
    {
      "inputs": [],
      "name": "proxiableUUID",
      "outputs": [
        {
          "internalType": "bytes32",
          "name": "",
          "type": "bytes32"
        }
      ],
      "stateMutability": "view",
      "type": "function"
    },
    {
      "inputs": [
        {
          "internalType": "bytes32",
          "name": "role",
          "type": "bytes32"
        },
        {
          "internalType": "address",
          "name": "account",
          "type": "address"
        }
      ],
      "name": "renounceRole",
      "outputs": [],
      "stateMutability": "nonpayable",
      "type": "function"
    },
    {
      "inputs": [
        {
          "internalType": "bytes32",
          "name": "role",
          "type": "bytes32"
        },
        {
          "internalType": "address",
          "name": "account",
          "type": "address"
        }
      ],
      "name": "revokeRole",
      "outputs": [],
      "stateMutability": "nonpayable",
      "type": "function"
    },
    {
      "inputs": [
        {
          "internalType": "bytes4",
          "name": "interfaceId",
          "type": "bytes4"
        }
      ],
      "name": "supportsInterface",
      "outputs": [
        {
          "internalType": "bool",
          "name": "",
          "type": "bool"
        }
      ],
      "stateMutability": "view",
      "type": "function"
    },
    {
      "inputs": [
        {
          "internalType": "address",
          "name": "upgradeAddress",
          "type": "address"
        }
      ],
      "name": "upgrade",
      "outputs": [],
      "stateMutability": "view",
      "type": "function"
    },
    {
      "inputs": [
        {
          "internalType": "address",
          "name": "newImplementation",
          "type": "address"
        }
      ],
      "name": "upgradeTo",
      "outputs": [],
      "stateMutability": "nonpayable",
      "type": "function"
    },
    {
      "inputs": [
        {
          "internalType": "address",
          "name": "newImplementation",
          "type": "address"
        },
        {
          "internalType": "bytes",
          "name": "data",
          "type": "bytes"
        }
      ],
      "name": "upgradeToAndCall",
      "outputs": [],
      "stateMutability": "payable",
      "type": "function"
    },
    {
      "inputs": [],
      "name": "version",
      "outputs": [
        {
          "internalType": "string",
          "name": "",
          "type": "string"
        }
      ],
      "stateMutability": "view",
      "type": "function"
    }
  ],
  "bytecode": "0x60a06040523060805234801561001457600080fd5b5061001d610022565b6100e1565b600054610100900460ff161561008e5760405162461bcd60e51b815260206004820152602760248201527f496e697469616c697a61626c653a20636f6e747261637420697320696e697469604482015266616c697a696e6760c81b606482015260840160405180910390fd5b60005460ff908116146100df576000805460ff191660ff9081179091556040519081527f7f26b83ff96e1f2b6a682f133852f6798a09c465da95921460cefb38474024989060200160405180910390a15b565b608051611a37610118600039600081816104c001528181610500015281816108f80152818161093801526109b00152611a376000f3fe6080604052600436106100ff5760003560e01c806352d1902d1161009057806352d1902d14610275578063540bc5ea1461028a57806354fd4d501461029f5780635c975abb146102dc5780638129fc1c146102f457806391d1485414610309578063a167d29b14610329578063a217fddf14610349578063d547741f1461035e578063f6ebe06b1461037e57600080fd5b806301ffc9a7146101045780630900f010146101395780632378fcce1461015b578063248a9ca31461017e5780632f2ff15d146101ae57806336568abe146101ce5780633659cfe6146101ee57806342e8eb611461020e5780634f1ef2861461022e57806351e80a4c14610241575b600080fd5b34801561011057600080fd5b5061012461011f3660046113c9565b6103c6565b60405190151581526020015b60405180910390f35b34801561014557600080fd5b50610159610154366004611402565b6103fd565b005b34801561016757600080fd5b50610170606081565b604051908152602001610130565b34801561018a57600080fd5b5061017061019936600461141d565b600090815260c9602052604090206001015490565b3480156101ba57600080fd5b506101596101c9366004611436565b610409565b3480156101da57600080fd5b506101596101e9366004611436565b610433565b3480156101fa57600080fd5b50610159610209366004611402565b6104b6565b34801561021a57600080fd5b50610124610229366004611574565b61057b565b61015961023c366004611659565b6108ee565b34801561024d57600080fd5b5061025c630b135d3f60e11b81565b6040516001600160e01b03199091168152602001610130565b34801561028157600080fd5b506101706109a3565b34801561029657600080fd5b50610170604181565b3480156102ab57600080fd5b5060408051808201909152600b81526a19195d995b1bdc1b595b9d60aa1b60208201525b60405161013091906116f6565b3480156102e857600080fd5b5060fb5460ff16610124565b34801561030057600080fd5b50610159610a51565b34801561031557600080fd5b50610124610324366004611436565b610b83565b34801561033557600080fd5b50610159610344366004611574565b610bae565b34801561035557600080fd5b50610170600081565b34801561036a57600080fd5b50610159610379366004611436565b610bdd565b34801561038a57600080fd5b506102cf6040518060400160405280601c81526020017b0ca2ba3432b932bab69029b4b3b732b21026b2b9b9b0b3b29d05199960211b81525081565b60006001600160e01b03198216637965db0b60e01b14806103f757506301ffc9a760e01b6001600160e01b03198316145b92915050565b61040681610c02565b50565b600082815260c9602052604090206001015461042481610c09565b61042e8383610c13565b505050565b6001600160a01b03811633146104a85760405162461bcd60e51b815260206004820152602f60248201527f416363657373436f6e74726f6c3a2063616e206f6e6c792072656e6f756e636560448201526e103937b632b9903337b91039b2b63360891b60648201526084015b60405180910390fd5b6104b28282610c99565b5050565b6001600160a01b037f00000000000000000000000000000000000000000000000000000000000000001630036104fe5760405162461bcd60e51b815260040161049f90611709565b7f00000000000000000000000000000000000000000000000000000000000000006001600160a01b0316610530610d00565b6001600160a01b0316146105565760405162461bcd60e51b815260040161049f90611755565b61055f81610c02565b6040805160008082526020820190925261040691839190610d1c565b600084604001514211156105a25760405163a4c9136760e01b815260040160405180910390fd5b84516001600160a01b0316600090815261012d6020908152604080832082890151845290915290205460ff16156105f4578460200151604051632472ad4160e21b815260040161049f91815260200190565b84516001600160a01b0316600090815261012d602090815260408083208289015184529091529020805460ff191660011790556060821161064857604051631d2f3d0560e21b815260040160405180910390fd5b60006106556060846117b7565b6001600160401b0381111561066c5761066c611462565b6040519080825280601f01601f191660200182016040528015610696576020820181803683370190505b50905060005b81518110156106fa578484828181106106b7576106b76117ca565b9050013560f81c60f81b8282815181106106d3576106d36117ca565b60200101906001600160f81b031916908160001a9053506106f3816117e0565b905061069c565b506000468683604051602001610712939291906117f9565b6040516020818303038152906040528051906020012090508660800151156107c85786516060880151604051630b135d3f60e11b81526000926001600160a01b031691631626ba7e91610769918691600401611832565b602060405180830381865afa158015610786573d6000803e3d6000fd5b505050506040513d601f19601f820116820180604052508101906107aa919061184b565b6001600160e01b031916630b135d3f60e11b1493506108e692505050565b60008060006107da8a60600151610e87565b92509250925060006040518060400160405280601c81526020017b0ca2ba3432b932bab69029b4b3b732b21026b2b9b9b0b3b29d05199960211b81525085604051602001610829929190611868565b60408051601f198184030181528282528051602091820120600080855291840180845281905260ff88169284019290925260608301869052608083018590529092509060019060a0016020604051602081039080840390855afa158015610894573d6000803e3d6000fd5b5050604051601f1901519150506001600160a01b0381166108c857604051638baa579f60e01b815260040160405180910390fd5b8b516001600160a01b0391821691161496506108e695505050505050565b949350505050565b6001600160a01b037f00000000000000000000000000000000000000000000000000000000000000001630036109365760405162461bcd60e51b815260040161049f90611709565b7f00000000000000000000000000000000000000000000000000000000000000006001600160a01b0316610968610d00565b6001600160a01b03161461098e5760405162461bcd60e51b815260040161049f90611755565b61099782610c02565b6104b282826001610d1c565b6000306001600160a01b037f00000000000000000000000000000000000000000000000000000000000000001614610a3e5760405162461bcd60e51b815260206004820152603860248201527f555550535570677261646561626c653a206d757374206e6f742062652063616c6044820152771b1959081d1a1c9bdd59da0819195b1959d85d1958d85b1b60421b606482015260840161049f565b506000805160206119bb83398151915290565b600054610100900460ff1615808015610a715750600054600160ff909116105b80610a925750610a8030610ecf565b158015610a92575060005460ff166001145b610af55760405162461bcd60e51b815260206004820152602e60248201527f496e697469616c697a61626c653a20636f6e747261637420697320616c72656160448201526d191e481a5b9a5d1a585b1a5e995960921b606482015260840161049f565b6000805460ff191660011790558015610b18576000805461ff0019166101001790555b610b20610ede565b610b28610ede565b610b30610f07565b610b3b600033610f36565b8015610406576000805461ff0019169055604051600181527f7f26b83ff96e1f2b6a682f133852f6798a09c465da95921460cefb38474024989060200160405180910390a150565b600091825260c9602090815260408084206001600160a01b0393909316845291905290205460ff1690565b610bba8484848461057b565b610bd757604051638baa579f60e01b815260040160405180910390fd5b50505050565b600082815260c96020526040902060010154610bf881610c09565b61042e8383610c99565b60006104b2815b6104068133610f40565b610c1d8282610b83565b6104b257600082815260c9602090815260408083206001600160a01b03851684529091529020805460ff19166001179055610c553390565b6001600160a01b0316816001600160a01b0316837f2f8788117e7eff1d82e926ec794901d17c78024a50270940304540a733656f0d60405160405180910390a45050565b610ca38282610b83565b156104b257600082815260c9602090815260408083206001600160a01b0385168085529252808320805460ff1916905551339285917ff6391f5c32d9c69d2a47ea670b442974b53935d1edc7fd64eb21e047a839171b9190a45050565b6000805160206119bb833981519152546001600160a01b031690565b7f4910fdfa16fed3260ed0e7147f7cc6da11a60208b5b9406d12a635614ffd91435460ff1615610d4f5761042e83610f99565b826001600160a01b03166352d1902d6040518163ffffffff1660e01b8152600401602060405180830381865afa925050508015610da9575060408051601f3d908101601f19168201909252610da69181019061188a565b60015b610e0c5760405162461bcd60e51b815260206004820152602e60248201527f45524331393637557067726164653a206e657720696d706c656d656e7461746960448201526d6f6e206973206e6f74205555505360901b606482015260840161049f565b6000805160206119bb8339815191528114610e7b5760405162461bcd60e51b815260206004820152602960248201527f45524331393637557067726164653a20756e737570706f727465642070726f786044820152681a58589b195555525160ba1b606482015260840161049f565b5061042e838383611033565b60008060006041845114610eb357835160405163058676ad60e31b815260040161049f91815260200190565b5050506020810151604082015160609092015160001a92909190565b6001600160a01b03163b151590565b600054610100900460ff16610f055760405162461bcd60e51b815260040161049f906118a3565b565b600054610100900460ff16610f2e5760405162461bcd60e51b815260040161049f906118a3565b610f05611058565b6104b28282610c13565b610f4a8282610b83565b6104b257610f578161108b565b610f6283602061109d565b604051602001610f739291906118ee565b60408051601f198184030181529082905262461bcd60e51b825261049f916004016116f6565b610fa281610ecf565b6110045760405162461bcd60e51b815260206004820152602d60248201527f455243313936373a206e657720696d706c656d656e746174696f6e206973206e60448201526c1bdd08184818dbdb9d1c9858dd609a1b606482015260840161049f565b6000805160206119bb83398151915280546001600160a01b0319166001600160a01b0392909216919091179055565b61103c8361123f565b6000825111806110495750805b1561042e57610bd7838361127f565b600054610100900460ff1661107f5760405162461bcd60e51b815260040161049f906118a3565b60fb805460ff19169055565b60606103f76001600160a01b03831660145b606060006110ac83600261195d565b6110b7906002611974565b6001600160401b038111156110ce576110ce611462565b6040519080825280601f01601f1916602001820160405280156110f8576020820181803683370190505b509050600360fc1b81600081518110611113576111136117ca565b60200101906001600160f81b031916908160001a905350600f60fb1b81600181518110611142576111426117ca565b60200101906001600160f81b031916908160001a905350600061116684600261195d565b611171906001611974565b90505b60018111156111e9576f181899199a1a9b1b9c1cb0b131b232b360811b85600f16601081106111a5576111a56117ca565b1a60f81b8282815181106111bb576111bb6117ca565b60200101906001600160f81b031916908160001a90535060049490941c936111e281611987565b9050611174565b5083156112385760405162461bcd60e51b815260206004820181905260248201527f537472696e67733a20686578206c656e67746820696e73756666696369656e74604482015260640161049f565b9392505050565b61124881610f99565b6040516001600160a01b038216907fbc7cd75a20ee27fd9adebab32041f755214dbc6bffa90cc0225b39da2e5c2d3b90600090a250565b606061123883836040518060600160405280602781526020016119db602791396060600080856001600160a01b0316856040516112bc919061199e565b600060405180830381855af49150503d80600081146112f7576040519150601f19603f3d011682016040523d82523d6000602084013e6112fc565b606091505b509150915061130d86838387611317565b9695505050505050565b6060831561138457825160000361137d5761133185610ecf565b61137d5760405162461bcd60e51b815260206004820152601d60248201527f416464726573733a2063616c6c20746f206e6f6e2d636f6e7472616374000000604482015260640161049f565b50816108e6565b6108e683838151156113995781518083602001fd5b8060405162461bcd60e51b815260040161049f91906116f6565b6001600160e01b03198116811461040657600080fd5b6000602082840312156113db57600080fd5b8135611238816113b3565b80356001600160a01b03811681146113fd57600080fd5b919050565b60006020828403121561141457600080fd5b611238826113e6565b60006020828403121561142f57600080fd5b5035919050565b6000806040838503121561144957600080fd5b82359150611459602084016113e6565b90509250929050565b634e487b7160e01b600052604160045260246000fd5b60405160a081016001600160401b038111828210171561149a5761149a611462565b60405290565b600082601f8301126114b157600080fd5b81356001600160401b03808211156114cb576114cb611462565b604051601f8301601f19908116603f011681019082821181831017156114f3576114f3611462565b8160405283815286602085880101111561150c57600080fd5b836020870160208301376000602085830101528094505050505092915050565b60008083601f84011261153e57600080fd5b5081356001600160401b0381111561155557600080fd5b60208301915083602082850101111561156d57600080fd5b9250929050565b6000806000806060858703121561158a57600080fd5b84356001600160401b03808211156115a157600080fd5b9086019060a082890312156115b557600080fd5b6115bd611478565b6115c6836113e6565b815260208301356020820152604083013560408201526060830135828111156115ee57600080fd5b6115fa8a8286016114a0565b60608301525060808301359250821515831461161557600080fd5b60808101839052955061162a602088016113e6565b9450604087013591508082111561164057600080fd5b5061164d8782880161152c565b95989497509550505050565b6000806040838503121561166c57600080fd5b611675836113e6565b915060208301356001600160401b0381111561169057600080fd5b61169c858286016114a0565b9150509250929050565b60005b838110156116c15781810151838201526020016116a9565b50506000910152565b600081518084526116e28160208601602086016116a6565b601f01601f19169290920160200192915050565b60208152600061123860208301846116ca565b6020808252602c908201527f46756e6374696f6e206d7573742062652063616c6c6564207468726f7567682060408201526b19195b1959d85d1958d85b1b60a21b606082015260800190565b6020808252602c908201527f46756e6374696f6e206d7573742062652063616c6c6564207468726f7567682060408201526b6163746976652070726f787960a01b606082015260800190565b634e487b7160e01b600052601160045260246000fd5b818103818111156103f7576103f76117a1565b634e487b7160e01b600052603260045260246000fd5b6000600182016117f2576117f26117a1565b5060010190565b83815260018060601b03198360601b166020820152600082516118238160348501602087016116a6565b91909101603401949350505050565b8281526040602082015260006108e660408301846116ca565b60006020828403121561185d57600080fd5b8151611238816113b3565b6000835161187a8184602088016116a6565b9190910191825250602001919050565b60006020828403121561189c57600080fd5b5051919050565b6020808252602b908201527f496e697469616c697a61626c653a20636f6e7472616374206973206e6f74206960408201526a6e697469616c697a696e6760a81b606082015260800190565b76020b1b1b2b9b9a1b7b73a3937b61d1030b1b1b7bab73a1604d1b8152600083516119208160178501602088016116a6565b7001034b99036b4b9b9b4b733903937b6329607d1b60179184019182015283516119518160288401602088016116a6565b01602801949350505050565b80820281158282048414176103f7576103f76117a1565b808201808211156103f7576103f76117a1565b600081611996576119966117a1565b506000190190565b600082516119b08184602087016116a6565b919091019291505056fe360894a13ba1a3210667c828492db98dca3e2076cc3735a920a3ca505d382bbc416464726573733a206c6f772d6c6576656c2064656c65676174652063616c6c206661696c6564a264697066735822122056a875f7ca716cba3af02b59d5eb58ab0ecb6add0419092a85a0e0b28e5ed67964736f6c63430008120033",
  "linkReferences": {},
  "deployedLinkReferences": {}
}