{
  "_format": "hh-sol-artifact-1",
  "contractName": "TestTermFlashLoanExecutorFacetHelper",
  "sourceName": "contracts/test/TestTermFlashLoanExecutorFacetHelper.sol",
  "abi": [
    {
      "inputs": [
        {
          "internalType": "address",
          "name": "agg",
          "type": "address"
        }
      ],
      "stateMutability": "nonpayable",
      "type": "constructor"
    },
    {
      "inputs": [
        {
          "internalType": "address",
          "name": "target",
          "type": "address"
        }
      ],
      "name": "AddressEmptyCode",
      "type": "error"
    },
    {
      "inputs": [],
      "name": "EmptyActions",
      "type": "error"
    },
    {
      "inputs": [
        {
          "internalType": "uint256",
          "name": "actionIndex",
          "type": "uint256"
        }
      ],
      "name": "ExpectedInputExceedsMax",
      "type": "error"
    },
    {
      "inputs": [
        {
          "internalType": "uint256",
          "name": "actionIndex",
          "type": "uint256"
        }
      ],
      "name": "ExpectedOutputBelowMin",
      "type": "error"
    },
    {
      "inputs": [],
      "name": "FailedCall",
      "type": "error"
    },
    {
      "inputs": [],
      "name": "FinalOutputTokenMismatch",
      "type": "error"
    },
    {
      "inputs": [],
      "name": "FlashloanAlreadyActive",
      "type": "error"
    },
    {
      "inputs": [],
      "name": "FlashloanNotActive",
      "type": "error"
    },
    {
      "inputs": [],
      "name": "FlashloanRepayIncompatible",
      "type": "error"
    },
    {
      "inputs": [],
      "name": "IncorrectFlashLoanAmount",
      "type": "error"
    },
    {
      "inputs": [
        {
          "internalType": "uint256",
          "name": "actionIndex",
          "type": "uint256"
        }
      ],
      "name": "InputAmountExceeded",
      "type": "error"
    },
    {
      "inputs": [
        {
          "internalType": "uint256",
          "name": "actionIndex",
          "type": "uint256"
        }
      ],
      "name": "InputTokenMatchesOutputToken",
      "type": "error"
    },
    {
      "inputs": [
        {
          "internalType": "uint256",
          "name": "actionIndex",
          "type": "uint256"
        }
      ],
      "name": "InputTokenMismatch",
      "type": "error"
    },
    {
      "inputs": [
        {
          "internalType": "uint256",
          "name": "balance",
          "type": "uint256"
        },
        {
          "internalType": "uint256",
          "name": "needed",
          "type": "uint256"
        }
      ],
      "name": "InsufficientBalance",
      "type": "error"
    },
    {
      "inputs": [],
      "name": "InvalidCaller",
      "type": "error"
    },
    {
      "inputs": [],
      "name": "InvalidFlashLoanReceived",
      "type": "error"
    },
    {
      "inputs": [],
      "name": "InvalidFlashloanAsset",
      "type": "error"
    },
    {
      "inputs": [],
      "name": "InvalidInitiator",
      "type": "error"
    },
    {
      "inputs": [
        {
          "internalType": "uint256",
          "name": "actionIndex",
          "type": "uint256"
        }
      ],
      "name": "InvalidInputToken",
      "type": "error"
    },
    {
      "inputs": [],
      "name": "NoTokensReceived",
      "type": "error"
    },
    {
      "inputs": [
        {
          "internalType": "uint256",
          "name": "actionIndex",
          "type": "uint256"
        }
      ],
      "name": "OutputAmountInsufficient",
      "type": "error"
    },
    {
      "inputs": [
        {
          "internalType": "uint256",
          "name": "actionIndex",
          "type": "uint256"
        }
      ],
      "name": "OutputTokenMismatch",
      "type": "error"
    },
    {
      "inputs": [
        {
          "internalType": "uint8",
          "name": "bits",
          "type": "uint8"
        },
        {
          "internalType": "uint256",
          "name": "value",
          "type": "uint256"
        }
      ],
      "name": "SafeCastOverflowedUintDowncast",
      "type": "error"
    },
    {
      "inputs": [
        {
          "internalType": "address",
          "name": "token",
          "type": "address"
        }
      ],
      "name": "SafeERC20FailedOperation",
      "type": "error"
    },
    {
      "inputs": [],
      "name": "SelectorNotFound",
      "type": "error"
    },
    {
      "inputs": [],
      "name": "UserNotFlashLoanInitiator",
      "type": "error"
    },
    {
      "inputs": [
        {
          "internalType": "uint256",
          "name": "actionIndex",
          "type": "uint256"
        }
      ],
      "name": "ZeroInputToken",
      "type": "error"
    },
    {
      "inputs": [
        {
          "internalType": "uint256",
          "name": "actionIndex",
          "type": "uint256"
        }
      ],
      "name": "ZeroOutputToken",
      "type": "error"
    },
    {
      "inputs": [],
      "name": "clearFlashLoanBorrower",
      "outputs": [],
      "stateMutability": "nonpayable",
      "type": "function"
    },
    {
      "inputs": [
        {
          "internalType": "bytes4",
          "name": "sel",
          "type": "bytes4"
        }
      ],
      "name": "facetAddress",
      "outputs": [
        {
          "internalType": "address",
          "name": "",
          "type": "address"
        }
      ],
      "stateMutability": "view",
      "type": "function"
    },
    {
      "inputs": [
        {
          "components": [
            {
              "internalType": "uint256",
              "name": "flashLoanRoute",
              "type": "uint256"
            },
            {
              "internalType": "bytes",
              "name": "flashLoanInstaData",
              "type": "bytes"
            },
            {
              "internalType": "address",
              "name": "flashLoanToken",
              "type": "address"
            },
            {
              "components": [
                {
                  "internalType": "address",
                  "name": "inputToken",
                  "type": "address"
                },
                {
                  "internalType": "uint256",
                  "name": "maxInputAmount",
                  "type": "uint256"
                },
                {
                  "internalType": "address",
                  "name": "outputToken",
                  "type": "address"
                },
                {
                  "internalType": "uint256",
                  "name": "minOutputAmount",
                  "type": "uint256"
                },
                {
                  "internalType": "uint256",
                  "name": "outputTokenAmountIn",
                  "type": "uint256"
                },
                {
                  "internalType": "bool",
                  "name": "usePermit2ForOutputTokenIn",
                  "type": "bool"
                },
                {
                  "internalType": "bytes4",
                  "name": "method",
                  "type": "bytes4"
                },
                {
                  "internalType": "address",
                  "name": "targetAddress",
                  "type": "address"
                },
                {
                  "internalType": "bytes",
                  "name": "additionalCalldata",
                  "type": "bytes"
                }
              ],
              "internalType": "struct TermFlashLoanExecutorFacet.Action[]",
              "name": "actions",
              "type": "tuple[]"
            },
            {
              "internalType": "bool",
              "name": "backPropagate",
              "type": "bool"
            }
          ],
          "internalType": "struct TermFlashLoanExecutorFacet.FlashExecuteRequest",
          "name": "flashExecuteRequest",
          "type": "tuple"
        }
      ],
      "name": "flashExecute",
      "outputs": [],
      "stateMutability": "nonpayable",
      "type": "function"
    },
    {
      "inputs": [
        {
          "internalType": "address[]",
          "name": "assets",
          "type": "address[]"
        },
        {
          "internalType": "uint256[]",
          "name": "amounts",
          "type": "uint256[]"
        },
        {
          "internalType": "uint256[]",
          "name": "premiums",
          "type": "uint256[]"
        },
        {
          "internalType": "address",
          "name": "initiator",
          "type": "address"
        },
        {
          "internalType": "bytes",
          "name": "data",
          "type": "bytes"
        }
      ],
      "name": "flashExecuteCallback",
      "outputs": [
        {
          "internalType": "bool",
          "name": "success",
          "type": "bool"
        }
      ],
      "stateMutability": "nonpayable",
      "type": "function"
    },
    {
      "inputs": [
        {
          "internalType": "address",
          "name": "",
          "type": "address"
        },
        {
          "internalType": "address",
          "name": "",
          "type": "address"
        },
        {
          "internalType": "uint256",
          "name": "",
          "type": "uint256"
        },
        {
          "internalType": "address",
          "name": "",
          "type": "address"
        },
        {
          "internalType": "uint256",
          "name": "",
          "type": "uint256"
        },
        {
          "internalType": "bytes4",
          "name": "sel",
          "type": "bytes4"
        },
        {
          "internalType": "address",
          "name": "",
          "type": "address"
        },
        {
          "internalType": "bytes",
          "name": "",
          "type": "bytes"
        }
      ],
      "name": "generateActionCalldata",
      "outputs": [
        {
          "components": [
            {
              "internalType": "address",
              "name": "expectedInputToken",
              "type": "address"
            },
            {
              "internalType": "uint256",
              "name": "expectedInputAmount",
              "type": "uint256"
            },
            {
              "internalType": "address",
              "name": "expectedOutputToken",
              "type": "address"
            },
            {
              "internalType": "uint256",
              "name": "expectedOutputAmount",
              "type": "uint256"
            },
            {
              "internalType": "bool",
              "name": "isDeterministic",
              "type": "bool"
            }
          ],
          "internalType": "struct PreviewAction",
          "name": "",
          "type": "tuple"
        },
        {
          "internalType": "bytes",
          "name": "",
          "type": "bytes"
        }
      ],
      "stateMutability": "view",
      "type": "function"
    },
    {
      "inputs": [
        {
          "internalType": "address",
          "name": "tokenIn",
          "type": "address"
        },
        {
          "internalType": "uint256",
          "name": "burnAmt",
          "type": "uint256"
        },
        {
          "internalType": "address",
          "name": "tokenOut",
          "type": "address"
        },
        {
          "internalType": "uint256",
          "name": "mintAmt",
          "type": "uint256"
        }
      ],
      "name": "mockSwap",
      "outputs": [],
      "stateMutability": "nonpayable",
      "type": "function"
    },
    {
      "inputs": [
        {
          "components": [
            {
              "internalType": "address",
              "name": "user",
              "type": "address"
            },
            {
              "internalType": "address",
              "name": "flashLoanToken",
              "type": "address"
            },
            {
              "internalType": "uint256",
              "name": "flashLoanAmount",
              "type": "uint256"
            },
            {
              "components": [
                {
                  "internalType": "address",
                  "name": "inputToken",
                  "type": "address"
                },
                {
                  "internalType": "uint256",
                  "name": "maxInputAmount",
                  "type": "uint256"
                },
                {
                  "internalType": "address",
                  "name": "outputToken",
                  "type": "address"
                },
                {
                  "internalType": "uint256",
                  "name": "minOutputAmount",
                  "type": "uint256"
                },
                {
                  "internalType": "uint256",
                  "name": "outputTokenAmountIn",
                  "type": "uint256"
                },
                {
                  "internalType": "bool",
                  "name": "usePermit2ForOutputTokenIn",
                  "type": "bool"
                },
                {
                  "internalType": "bytes4",
                  "name": "method",
                  "type": "bytes4"
                },
                {
                  "internalType": "address",
                  "name": "targetAddress",
                  "type": "address"
                },
                {
                  "internalType": "bytes",
                  "name": "additionalCalldata",
                  "type": "bytes"
                }
              ],
              "internalType": "struct TermFlashLoanExecutorFacet.Action[]",
              "name": "actions",
              "type": "tuple[]"
            },
            {
              "internalType": "bool",
              "name": "backPropagate",
              "type": "bool"
            }
          ],
          "internalType": "struct TermFlashLoanExecutorFacet.ExecutionPlan",
          "name": "executionPlan",
          "type": "tuple"
        },
        {
          "internalType": "uint256",
          "name": "amountOwing",
          "type": "uint256"
        }
      ],
      "name": "quoteExecutionPlan",
      "outputs": [
        {
          "components": [
            {
              "internalType": "address",
              "name": "user",
              "type": "address"
            },
            {
              "internalType": "address",
              "name": "flashLoanToken",
              "type": "address"
            },
            {
              "internalType": "uint256",
              "name": "flashLoanAmount",
              "type": "uint256"
            },
            {
              "components": [
                {
                  "internalType": "address",
                  "name": "inputToken",
                  "type": "address"
                },
                {
                  "internalType": "uint256",
                  "name": "maxInputAmount",
                  "type": "uint256"
                },
                {
                  "internalType": "address",
                  "name": "outputToken",
                  "type": "address"
                },
                {
                  "internalType": "uint256",
                  "name": "minOutputAmount",
                  "type": "uint256"
                },
                {
                  "internalType": "uint256",
                  "name": "outputTokenAmountIn",
                  "type": "uint256"
                },
                {
                  "internalType": "bool",
                  "name": "usePermit2ForOutputTokenIn",
                  "type": "bool"
                },
                {
                  "internalType": "bytes4",
                  "name": "method",
                  "type": "bytes4"
                },
                {
                  "internalType": "address",
                  "name": "targetAddress",
                  "type": "address"
                },
                {
                  "internalType": "bytes",
                  "name": "additionalCalldata",
                  "type": "bytes"
                }
              ],
              "internalType": "struct TermFlashLoanExecutorFacet.Action[]",
              "name": "actions",
              "type": "tuple[]"
            },
            {
              "internalType": "bool",
              "name": "backPropagate",
              "type": "bool"
            }
          ],
          "internalType": "struct TermFlashLoanExecutorFacet.ExecutionPlan",
          "name": "",
          "type": "tuple"
        }
      ],
      "stateMutability": "view",
      "type": "function"
    },
    {
      "inputs": [
        {
          "internalType": "bytes4",
          "name": "sel",
          "type": "bytes4"
        },
        {
          "internalType": "address",
          "name": "f",
          "type": "address"
        }
      ],
      "name": "setFacetAddress",
      "outputs": [],
      "stateMutability": "nonpayable",
      "type": "function"
    },
    {
      "inputs": [
        {
          "internalType": "address",
          "name": "b",
          "type": "address"
        }
      ],
      "name": "setFlashLoanBorrower",
      "outputs": [],
      "stateMutability": "nonpayable",
      "type": "function"
    },
    {
      "inputs": [
        {
          "internalType": "bytes4",
          "name": "sel",
          "type": "bytes4"
        },
        {
          "components": [
            {
              "internalType": "address",
              "name": "expectedInputToken",
              "type": "address"
            },
            {
              "internalType": "uint256",
              "name": "expectedInputAmount",
              "type": "uint256"
            },
            {
              "internalType": "address",
              "name": "expectedOutputToken",
              "type": "address"
            },
            {
              "internalType": "uint256",
              "name": "expectedOutputAmount",
              "type": "uint256"
            },
            {
              "internalType": "bool",
              "name": "isDeterministic",
              "type": "bool"
            }
          ],
          "internalType": "struct PreviewAction",
          "name": "preview",
          "type": "tuple"
        },
        {
          "internalType": "bytes",
          "name": "data_",
          "type": "bytes"
        }
      ],
      "name": "setMockAction",
      "outputs": [],
      "stateMutability": "nonpayable",
      "type": "function"
    }
  ],
  "bytecode": "0x60a03461007857601f61237538819003918201601f19168301916001600160401b0383118484101761007d5780849260209460405283398101031261007857516001600160a01b0381168103610078576080526040516122e190816100948239608051818181610331015281816103f901526108b80152f35b600080fd5b634e487b7160e01b600052604160045260246000fdfe6080604052600436101561001257600080fd5b60003560e01c806310e7e7d81461160e5780636491fd38146115de5780636c7427ed146115845780636cd27cfb1461153d57806378db4292146114805780638f236bff1461081a5780639ef72eff14610660578063cdffacc61461061d578063d73e2fae146105255763fbe2da691461008a57600080fd5b34610481576020366003190112610481576001600160401b036004358181116104815760a06003198236030112610481576040516100c7816118b0565b816004013581526024820135838111610481576100ea9060043691850101611977565b91602082019283526100fe6044820161189c565b936040830194855260648201359081116104815761012290600436918401016119be565b93610136608460608501938785520161194f565b946080840195865251156105135760008051602061228c83398151915280546001600160a01b038116610501576001600160a01b031916331790556040516366ffd66360e11b8152638f236bff60e01b600482018190529290602081602481305afa90811561043a576000916104c7575b50604051906101b5826118cb565b6001600160a01b031681526020810193845281516101dd906101d690611d7a565b5133611fb8565b50805184519192916001600160a01b039182169116036104ae57825180516000198101908111610498576001600160a01b039160409161021c91611d87565b5101511660018060a01b0385511603610486576102ce610285926102da94602060018060a01b0388511692019a8b51915190511515916040519361025f856118b0565b338552602085015260408401526060830152608082015260405193849160208301611b2b565b0392610299601f1994858101835282611915565b60405196879360018060a01b03905116602085015263ffffffff60e01b90511660408401526060808401526080830190611b06565b03908101845283611915565b5160405194906001600160a01b03166102f2866118cb565b600186526020368188013761030686611d7a565b52519160405192610316846118cb565b600184526020368186013761032a84611d7a565b52519251927f00000000000000000000000000000000000000000000000000000000000000006001600160a01b03163b156104815760405163095627e960e01b815260a06004820152855160a482018190529095869493929160c48601916020019060005b81811061045f575050506003198582030160248601526020808551928381520194019060005b81811061044657505050936103e284936103f4936000976044870152600319868303016064870152611b06565b83810360031901608485015290611b06565b0381837f00000000000000000000000000000000000000000000000000000000000000006001600160a01b03165af1801561043a5761042f57005b61043890611902565b005b6040513d6000823e3d90fd5b82518652889650602095860195909201916001016103b5565b82516001600160a01b031684528997506020938401939092019160010161038f565b600080fd5b6040516338a3b47560e01b8152600490fd5b634e487b7160e01b600052601160045260246000fd5b6040516377ef28b560e01b815260006004820152602490fd5b90506020813d6020116104f9575b816104e260209383611915565b81010312610481576104f390611cfa565b386101a7565b3d91506104d5565b60405163055de1b160e21b8152600490fd5b60405163133b03a960e31b8152600490fd5b346104815760803660031901126104815761053e611870565b6044356001600160a01b0381811691602435908390036104815760643593816105aa575b5050508161056c57005b803b15610481576040516340c10f1960e01b815291600091839182908490829061059a903060048401611dc6565b03925af1801561043a5761042f57005b60446020926000604051958694859363a9059cbb60e01b8552600160048601526024850152165af1801561043a576105e4575b8080610562565b6020813d602011610615575b816105fd60209383611915565b810103126104815761060e90611d0e565b50826105dd565b3d91506105f0565b34610481576020366003190112610481576001600160e01b031961063f611801565b166000526000602052602060018060a01b0360406000205416604051908152f35b34610481576101003660031901126104815761067a611870565b5061068361185a565b5061068c611886565b5060a43563ffffffff60e01b8116809103610481576001600160a01b039060c435828116036104815760e4356001600160401b038111610481576106d4903690600401611977565b506106dd611d9b565b50600052600190602091600183526040600020906002845260406000209060405192610708846118b0565b84815416845260018101549580850196875285600283015416966040860197885260ff600460038501549460608901958652015416936080870194151585526040519560009181549161075a83611c95565b808a5292600181169081156107fa57506001146107c3575b5050509187989161078a876107bf999a950388611915565b604051998a9951168952519088015251166040860152516060850152511515608084015260c060a084015260c0830190611b06565b0390f35b60009081528581209093505b8284106107e757505050850182018161078a87610772565b80548985018701529285019281016107cf565b60ff19168a880152505050151560051b8601830190508161078a87610772565b346104815760a0366003190112610481576004356001600160401b0381116104815761084a903690600401611c51565b906024356001600160401b0381116104815761086a903690600401611c51565b90929091906044356001600160401b0381116104815761088e903690600401611c51565b610896611886565b6084356001600160401b038111610481576108b590369060040161182d565b917f00000000000000000000000000000000000000000000000000000000000000006001600160a01b0316330361146e57306001600160a01b039091160361145c5760608183810103126104815760408183810103126104815760405161091b816118cb565b6109248261189c565b81526020610933818401611818565b9101526001600160401b036040820135116104815761095a91810190604081013501611977565b948551860195602081880312610481576020810151906001600160401b0382116104815760a08282018903126104815760405197610997896118b0565b6109a5602084840101611cfa565b89526109b5604084840101611cfa565b60208a0152818301606081015160408b0152608001516001600160401b0381116104815760208201603f828686010101121561048157602081858501010151906109fe82611938565b92610a0c6040519485611915565b82845260208401906020810160408560051b858a8a0101010111610481576040838888010101915b60408560051b858a8a01010101831061133f5750505050506060890152610a5e910160a001611d0e565b608087015260008051602061228c833981519152548694906001600160a01b031680156111e35787516001600160a01b03160361132d5760018114801590611322575b8015611317575b61130557156112cb57610aba85611c81565b60208701516001600160a01b039081169116036112f357156112cb5760408501518635036112e157156112cb57610af390358535611d60565b9283916080820151151560001461123a5750610b1891610b1291611de1565b91611c81565b92356000905b60608301518051831015611160576001600160a01b0390610b40908490611d87565b515116156111475760018060a01b036040610b5f846060870151611d87565b510151161561112e5760608301516001600160a01b0390610b81908490611d87565b51511660018060a01b036040610b9b856060880151611d87565b51015116146111155760608301516001600160a01b0390610bbd908490611d87565b5151166001600160a01b038616036110fc576020610bdf836060860151611d87565b51015181106110e3575b60018060a01b03835116610c0c610c04846060870151611d87565b518092611fb8565b82518251919892916001600160a01b039182169116036110ca5760208301516020820151116110b157604083810151908201516001600160a01b0391821691160361109857608081015115159081611086575b5061106d57815160408084015190516370a0823160e01b81523060048201526001600160a01b039283169990929091166020836024818d5afa92831561043a57600093611039575b506040516370a0823160e01b815230600482015291602083602481855afa92831561043a57600093611004575b5060249a610cf9600080846020809651910182305af1610cf26121f8565b9030612228565b506040516370a0823160e01b81523060048201529b8c9182905afa998a1561043a5760009a610fcd575b50906020602492604051938480926370a0823160e01b82523060048301525afa91821561043a57600092610f99575b5080821115610f8757610d6491611d6d565b9781811015610f7d57610d7691611d6d565b915b604060018060a01b039101511692876020610d978760608a0151611d87565b5101518411610f64576060610daf87828a0151611d87565b5101518110610f4b576080610dc88760608a0151611d87565b5101519081610e19575b5050908183600195949311610dee575b50505094910190610b1e565b610e04610e1193868060a01b0389511692611d6d565b91858060a01b0316611f7c565b868080610de2565b9094939291985060a0610e308760608a0151611d87565b51015115610eff5786516001600160a01b0390811695908111610ee0576e22d473030f116ddee9f6b43ac78ba33b1561048157604051631b63c28b60e11b815260048101969096523060248701526001600160a01b038116604487015260648601859052600086608481836e22d473030f116ddee9f6b43ac78ba35af191821561043a57600196610ec693610ed1575b50611d60565b979091929389610dd2565b610eda90611902565b8b610ec0565b604490604051906306dfcc6560e41b825260a060048301526024820152fd5b600194610ec691610f46878060a01b038a5116604051906323b872dd60e01b60208301526024820152306044820152606484818301528152610f40816118b0565b8761219c565b611d60565b60405163017f0aad60e71b815260048101879052602490fd5b604051636fde21c560e11b815260048101879052602490fd5b5050600091610d78565b604051639671a89f60e01b8152600490fd5b9091506020813d602011610fc5575b81610fb560209383611915565b810103126104815751908a610d52565b3d9150610fa8565b919099506020823d602011610ffc575b81610fea60209383611915565b81010312610481579051986020610d23565b3d9150610fdd565b9092506020813d602011611031575b8161102060209383611915565b810103126104815751916024610cd4565b3d9150611013565b9092506020813d602011611065575b8161105560209383611915565b810103126104815751918a610ca7565b3d9150611048565b604051632ad66f9b60e11b815260048101859052602490fd5b90506060808401519101511088610c5f565b604051634613205160e01b815260048101869052602490fd5b604051631948244360e21b815260048101869052602490fd5b604051630a0452ab60e21b815260048101869052602490fd5b8060206110f4846060870151611d87565b510152610be9565b6040516377ef28b560e01b815260048101839052602490fd5b6040516384fef31960e01b815260048101839052602490fd5b60405163684e1a7560e11b815260048101839052602490fd5b60405163120db90960e01b815260048101839052602490fd5b602084015185906001600160a01b038089169185918891168314801590611231575b61121f57611191843385611f7c565b8382116111f5575b505060008051602061228c833981519152549150506001600160a01b038116156111e3576001600160a01b03191660008051602061228c8339815191525560405160018152602090f35b604051635dbc17c960e01b8152600490fd5b51611216936001600160a01b03909116916112109190611d6d565b91611f7c565b80808080611199565b604051632062961f60e01b8152600490fd5b50838210611182565b929091506060820151518060001981011161049857610b1892608061126760001984016060840151611d87565b510151808711156112c25761127c9087611d6d565b915b6060611291600019830182850151611d87565b51015183116112a3575b505050611c81565b6060918201516112b7916000190190611d87565b51015285808061129b565b5060009161127e565b634e487b7160e01b600052603260045260246000fd5b6040516305cd7d5760e41b8152600490fd5b604051634d948efd60e01b8152600490fd5b604051630d9b01fd60e41b8152600490fd5b506001831415610aa8565b506001821415610aa1565b6040516337659eb960e11b8152600490fd5b82516001600160401b03811161048157610120888a01860182018403601f1901126104815760405191886113d160e084898e61137a896118e6565b61138c60408484848a01010101611cfa565b895285810182018301606081015160208b01526113ab90608001611cfa565b60408a015260a09501010192830151606087015260c08084015160808801529201611d0e565b60a0850152898b01870183016101000151906001600160e01b0319821682036104815784015261140a61012083888d8d01010101611cfa565b60e0840152888a01860182016101400151906001600160401b038211610481576040936114498b86602096958f968c8998898d01950101010101611d1b565b6101008201528152019301929050610a34565b6040516317fb43e560e31b8152600490fd5b6040516348f5c3ed60e01b8152600490fd5b346104815760031960403682011261048157600435906001600160401b03908183116104815760a0908336030112610481576040516114be816118b0565b6114ca8360040161189c565b81526114d86024840161189c565b60208201526044830135604082015260648301359182116104815761151a60846107bf9461150f61153195600436918401016119be565b60608501520161194f565b6080820152611527611ccf565b5060243590611de1565b60405191829182611b2b565b34610481576020366003190112610481576001600160a01b0361155e611870565b60008051602061228c8339815191528054919092166001600160a01b0319909116179055005b346104815760403660031901126104815761159d611801565b6115a561185a565b6001600160e01b0319909116600090815260208190526040902080546001600160a01b0319166001600160a01b03909216919091179055005b346104815760003660031901126104815760008051602061228c83398151915280546001600160a01b0319169055005b346104815760e036600319011261048157611627611801565b60a0366023190112610481576001600160401b039060c4358281116104815761165490369060040161182d565b909163ffffffff60e01b1660005260019160209083825260406000206024359060018060a01b038083168093036104815781546001600160a01b03199081169093178255604435878301556002820190606435908116908190036104815760049382541617905560843560038201550160a4358015158091036104815760ff801983541691161790556002825260406000209483116117eb576116f78554611c95565b601f81116117a2575b50600091601f841160011461173f5750928293918392600094611734575b50501b916000199060031b1c1916179055600080f35b01359250858061171e565b9183601f1981168760005284600020946000905b88838310611788575050501061176e575b505050811b019055005b0135600019600384901b60f8161c19169055838080611764565b868601358855909601959384019387935090810190611753565b8560005282600020601f850160051c8101918486106117e1575b601f0160051c019085905b8281106117d5575050611700565b600081550185906117c7565b90915081906117bc565b634e487b7160e01b600052604160045260246000fd5b600435906001600160e01b03198216820361048157565b35906001600160e01b03198216820361048157565b9181601f84011215610481578235916001600160401b038311610481576020838186019501011161048157565b602435906001600160a01b038216820361048157565b600435906001600160a01b038216820361048157565b606435906001600160a01b038216820361048157565b35906001600160a01b038216820361048157565b60a081019081106001600160401b038211176117eb57604052565b604081019081106001600160401b038211176117eb57604052565b61012081019081106001600160401b038211176117eb57604052565b6001600160401b0381116117eb57604052565b601f909101601f19168101906001600160401b038211908210176117eb57604052565b6001600160401b0381116117eb5760051b60200190565b3590811515820361048157565b6001600160401b0381116117eb57601f01601f191660200190565b81601f820112156104815780359061198e8261195c565b9261199c6040519485611915565b8284526020838301011161048157816000926020809301838601378301015290565b81601f82011215610481578035916020916119d884611938565b936040926119e96040519687611915565b818652848087019260051b8401019381851161048157858401925b858410611a15575050505050505090565b6001600160401b0384358181116104815786019161012080601f19858803011261048157845190611a45826118e6565b611a508b860161189c565b8252858501358b830152606090611a6882870161189c565b87840152608091828701359084015260a091828701359084015260c091611a9083880161194f565b9084015260e091611aa2838801611818565b9084015261010091611ab583880161189c565b9084015285013593841161048157611ad4878c80979681970101611977565b90820152815201930192611a04565b60005b838110611af65750506000910152565b8181015183820152602001611ae6565b90602091611b1f81518092818552858086019101611ae3565b601f01601f1916010190565b60209182825260c09260c0830160018060a01b03918284511681860152808401519280604094166040870152604085015196606097606088015260608601519760a09560809360a060808b01528a5180975260e09060e08b01948760e08d8b60051b01019d01996000975b8a8910611bb857505050505050505050505050608060a0910151151591015290565b909192939495969798808c9f8f9d829d9e60df19908303018c525190610120908883511681528383015184820152888b840151168b8201528b8301518c82015285830151868201528683015115158782015263ffffffff60e01b888401511688820152888a840151168a82015281610100809401519382015201611c3b91611b06565b9f019b9a99600101980196959493929190611b96565b9181601f84011215610481578235916001600160401b038311610481576020808501948460051b01011161048157565b356001600160a01b03811681036104815790565b90600182811c92168015611cc5575b6020831014611caf57565b634e487b7160e01b600052602260045260246000fd5b91607f1691611ca4565b60405190611cdc826118b0565b60006080838281528260208201528260408201526060808201520152565b51906001600160a01b038216820361048157565b5190811515820361048157565b81601f82011215610481578051611d318161195c565b92611d3f6040519485611915565b8184526020828401011161048157611d5d9160208085019101611ae3565b90565b9190820180921161049857565b9190820391821161049857565b8051156112cb5760200190565b80518210156112cb5760209160051b010190565b60405190611da8826118b0565b60006080838281528260208201528260408201528260608201520152565b6001600160a01b039091168152602081019190915260400190565b90611dea611ccf565b50611df3611d9b565b506040908151611e02816118e6565b6000808252602091816020820152818582015260609282606083015260606101006080938560808201528560a08201528560c08201528560e082015201526060870192835151805b611e5957505050505050505090565b60001901611e68818651611d87565b5196868801805191868a0151808211600014611f7457611e8791611d6d565b81528a516001600160a01b0390611ea1908b908316611fb8565b50928784019283511580611f6a575b611f62575b5050808a51168184511603611f4a57808b8b015116908b8401511603611f325784890190858251930192835111611f1a578392611f0a92849251611f10575b505199885190611f048383611d87565b52611d87565b50611e4a565b8151905238611ef4565b8a51631948244360e21b815260048101859052602490fd5b8951634613205160e01b815260048101849052602490fd5b8a51630a0452ab60e21b815260048101859052602490fd5b523880611eb5565b5080518211611eb0565b505083611e87565b611fb1611fb69392611fa360405194859263a9059cbb60e01b602085015260248401611dc6565b03601f198101845283611915565b61219c565b565b919091611fc3611d9b565b5060c083018051604080516366ffd66360e11b81526001600160e01b03199283166004820152909560209491939192918585602481305afa94851561219157600095612157575b506001600160a01b03928584161561214657926120af876120a18b866120c29a9996600099878b9a5116918684015191898686015116906060860151925116928a60e087015116946101008097015197519b8c9a8b019d8e639ef72eff60e01b90521660248b015260448a01526064890152608488015260a487015260c486015260e4850152610104840152610124830190611b06565b03601f198101835282611915565b5190845afa6120bc6121f8565b91612228565b805181019181830360c081126104815760a013610481578451946120e5866118b0565b6120f0828401611cfa565b8652808301518287015261210660608401611cfa565b908601526080820151606086015261212060a08301611d0e565b608086015260c08201516001600160401b0381116104815781611d5d9401920101611d1b565b885163d5cf065560e01b8152600490fd5b90948682813d831161218a575b61216e8183611915565b81010312612187575061218090611cfa565b933861200a565b80fd5b503d612164565b88513d6000823e3d90fd5b906000602091828151910182855af11561043a576000513d6121ef57506001600160a01b0381163b155b6121cd5750565b604051635274afe760e01b81526001600160a01b039091166004820152602490fd5b600114156121c6565b3d15612223573d906122098261195c565b916122176040519384611915565b82523d6000602084013e565b606090565b9061224f575080511561223d57805190602001fd5b60405163d6bda27560e01b8152600490fd5b81511580612282575b612260575090565b604051639996b31560e01b81526001600160a01b039091166004820152602490fd5b50803b1561225856fec9e4fb8bffaf71b56abf2a5032f2ea641e97267f8c0d9bcf66c86998c650d62aa2646970667358221220c7327c18e1d33a4c2ef39391970ebed471aed5e76783ebc11b5cc225c0a316db64736f6c63430008160033",
  "linkReferences": {},
  "deployedLinkReferences": {}
}