{
  "_format": "hh-sol-artifact-1",
  "contractName": "TermRepoTokenIntentFacet",
  "sourceName": "contracts/facets/TermRepoTokenIntentFacet.sol",
  "abi": [
    {
      "inputs": [],
      "stateMutability": "nonpayable",
      "type": "constructor"
    },
    {
      "inputs": [
        {
          "internalType": "address",
          "name": "target",
          "type": "address"
        }
      ],
      "name": "AddressEmptyCode",
      "type": "error"
    },
    {
      "inputs": [],
      "name": "AfterMaturity",
      "type": "error"
    },
    {
      "inputs": [],
      "name": "AlreadyInitialized",
      "type": "error"
    },
    {
      "inputs": [
        {
          "internalType": "address",
          "name": "signer",
          "type": "address"
        }
      ],
      "name": "AlreadyPreSigned",
      "type": "error"
    },
    {
      "inputs": [],
      "name": "ECDSAInvalidSignature",
      "type": "error"
    },
    {
      "inputs": [
        {
          "internalType": "uint256",
          "name": "length",
          "type": "uint256"
        }
      ],
      "name": "ECDSAInvalidSignatureLength",
      "type": "error"
    },
    {
      "inputs": [
        {
          "internalType": "bytes32",
          "name": "s",
          "type": "bytes32"
        }
      ],
      "name": "ECDSAInvalidSignatureS",
      "type": "error"
    },
    {
      "inputs": [],
      "name": "FailedCall",
      "type": "error"
    },
    {
      "inputs": [],
      "name": "FeeRecipientAlreadyApproved",
      "type": "error"
    },
    {
      "inputs": [],
      "name": "InputOutputTokenCollision",
      "type": "error"
    },
    {
      "inputs": [
        {
          "internalType": "uint256",
          "name": "balance",
          "type": "uint256"
        },
        {
          "internalType": "uint256",
          "name": "needed",
          "type": "uint256"
        }
      ],
      "name": "InsufficientBalance",
      "type": "error"
    },
    {
      "inputs": [],
      "name": "InsufficientFundsRetrieved",
      "type": "error"
    },
    {
      "inputs": [
        {
          "internalType": "uint256",
          "name": "capacityRemaining",
          "type": "uint256"
        }
      ],
      "name": "InsufficientRemainingCapacity",
      "type": "error"
    },
    {
      "inputs": [],
      "name": "InvalidCollateralAmountsInput",
      "type": "error"
    },
    {
      "inputs": [],
      "name": "InvalidDiscountRate",
      "type": "error"
    },
    {
      "inputs": [],
      "name": "InvalidFee",
      "type": "error"
    },
    {
      "inputs": [],
      "name": "InvalidFeeRecipient",
      "type": "error"
    },
    {
      "inputs": [],
      "name": "InvalidFillAmount",
      "type": "error"
    },
    {
      "inputs": [],
      "name": "InvalidMinSalt",
      "type": "error"
    },
    {
      "inputs": [],
      "name": "InvalidOfferRate",
      "type": "error"
    },
    {
      "inputs": [],
      "name": "InvalidOrderStatus",
      "type": "error"
    },
    {
      "inputs": [
        {
          "internalType": "string",
          "name": "message",
          "type": "string"
        }
      ],
      "name": "InvalidParameters",
      "type": "error"
    },
    {
      "inputs": [],
      "name": "InvalidPurchaseTokenAmount",
      "type": "error"
    },
    {
      "inputs": [],
      "name": "InvalidRepoId",
      "type": "error"
    },
    {
      "inputs": [],
      "name": "InvalidRetrieveFundsFunction",
      "type": "error"
    },
    {
      "inputs": [],
      "name": "InvalidRetrieveFundsListLength",
      "type": "error"
    },
    {
      "inputs": [
        {
          "internalType": "address",
          "name": "expected",
          "type": "address"
        },
        {
          "internalType": "address",
          "name": "actual",
          "type": "address"
        }
      ],
      "name": "InvalidSender",
      "type": "error"
    },
    {
      "inputs": [],
      "name": "InvalidSignature",
      "type": "error"
    },
    {
      "inputs": [
        {
          "internalType": "address",
          "name": "expected",
          "type": "address"
        },
        {
          "internalType": "address",
          "name": "actual",
          "type": "address"
        }
      ],
      "name": "InvalidTaker",
      "type": "error"
    },
    {
      "inputs": [],
      "name": "InvalidTermController",
      "type": "error"
    },
    {
      "inputs": [],
      "name": "MakerCannotBeTaker",
      "type": "error"
    },
    {
      "inputs": [],
      "name": "OrderCancelled",
      "type": "error"
    },
    {
      "inputs": [],
      "name": "OrderExpired",
      "type": "error"
    },
    {
      "inputs": [],
      "name": "ReentrancyGuardReentrantCall",
      "type": "error"
    },
    {
      "inputs": [],
      "name": "RetrieveFundsNotSpecified",
      "type": "error"
    },
    {
      "inputs": [
        {
          "internalType": "uint8",
          "name": "bits",
          "type": "uint8"
        },
        {
          "internalType": "uint256",
          "name": "value",
          "type": "uint256"
        }
      ],
      "name": "SafeCastOverflowedUintDowncast",
      "type": "error"
    },
    {
      "inputs": [
        {
          "internalType": "address",
          "name": "token",
          "type": "address"
        }
      ],
      "name": "SafeERC20FailedOperation",
      "type": "error"
    },
    {
      "inputs": [],
      "name": "TermControllerAlreadyApproved",
      "type": "error"
    },
    {
      "inputs": [],
      "name": "UnsupportedHookSelector",
      "type": "error"
    },
    {
      "inputs": [],
      "name": "UnsupportedSelector",
      "type": "error"
    },
    {
      "inputs": [
        {
          "components": [
            {
              "internalType": "address",
              "name": "repoToken",
              "type": "address"
            },
            {
              "internalType": "bool",
              "name": "makerAssetIsPurchaseToken",
              "type": "bool"
            },
            {
              "internalType": "uint256",
              "name": "purchaseTokenAmount",
              "type": "uint256"
            },
            {
              "internalType": "uint256",
              "name": "discountRate",
              "type": "uint256"
            },
            {
              "internalType": "address",
              "name": "maker",
              "type": "address"
            },
            {
              "internalType": "address",
              "name": "taker",
              "type": "address"
            },
            {
              "internalType": "uint256",
              "name": "makerFee",
              "type": "uint256"
            },
            {
              "internalType": "uint256",
              "name": "takerFee",
              "type": "uint256"
            },
            {
              "internalType": "address",
              "name": "feeRecipient",
              "type": "address"
            },
            {
              "internalType": "uint256",
              "name": "expiry",
              "type": "uint256"
            },
            {
              "internalType": "uint256",
              "name": "salt",
              "type": "uint256"
            },
            {
              "components": [
                {
                  "internalType": "bytes4",
                  "name": "method",
                  "type": "bytes4"
                },
                {
                  "internalType": "address",
                  "name": "target",
                  "type": "address"
                },
                {
                  "internalType": "bytes",
                  "name": "additionalCalldata",
                  "type": "bytes"
                }
              ],
              "internalType": "struct ITermIntent.RetrieveFundsStruct",
              "name": "retrieveFunds",
              "type": "tuple"
            }
          ],
          "internalType": "struct ITermIntent.RepoTokenSwapOrder",
          "name": "order",
          "type": "tuple"
        },
        {
          "components": [
            {
              "internalType": "enum ITermIntent.SignatureType",
              "name": "sigType",
              "type": "uint8"
            },
            {
              "internalType": "bytes",
              "name": "sigData",
              "type": "bytes"
            }
          ],
          "internalType": "struct ITermIntent.Signature",
          "name": "signature",
          "type": "tuple"
        }
      ],
      "name": "cancelRepoTokenSwap",
      "outputs": [],
      "stateMutability": "nonpayable",
      "type": "function"
    },
    {
      "inputs": [
        {
          "internalType": "address",
          "name": "user",
          "type": "address"
        },
        {
          "internalType": "address",
          "name": "inputToken",
          "type": "address"
        },
        {
          "internalType": "uint256",
          "name": "maxInputAmount",
          "type": "uint256"
        },
        {
          "internalType": "address",
          "name": "outputToken",
          "type": "address"
        },
        {
          "internalType": "uint256",
          "name": "minOutputAmount",
          "type": "uint256"
        },
        {
          "internalType": "bytes4",
          "name": "selector",
          "type": "bytes4"
        },
        {
          "internalType": "address",
          "name": "targetAddress",
          "type": "address"
        },
        {
          "internalType": "bytes",
          "name": "additionalCalldata",
          "type": "bytes"
        }
      ],
      "name": "generateActionCalldata",
      "outputs": [
        {
          "components": [
            {
              "internalType": "address",
              "name": "expectedInputToken",
              "type": "address"
            },
            {
              "internalType": "uint256",
              "name": "expectedInputAmount",
              "type": "uint256"
            },
            {
              "internalType": "address",
              "name": "expectedOutputToken",
              "type": "address"
            },
            {
              "internalType": "uint256",
              "name": "expectedOutputAmount",
              "type": "uint256"
            },
            {
              "internalType": "bool",
              "name": "isDeterministic",
              "type": "bool"
            }
          ],
          "internalType": "struct PreviewAction",
          "name": "",
          "type": "tuple"
        },
        {
          "internalType": "bytes",
          "name": "",
          "type": "bytes"
        }
      ],
      "stateMutability": "view",
      "type": "function"
    },
    {
      "inputs": [
        {
          "components": [
            {
              "internalType": "address",
              "name": "repoToken",
              "type": "address"
            },
            {
              "internalType": "bool",
              "name": "makerAssetIsPurchaseToken",
              "type": "bool"
            },
            {
              "internalType": "uint256",
              "name": "purchaseTokenAmount",
              "type": "uint256"
            },
            {
              "internalType": "uint256",
              "name": "discountRate",
              "type": "uint256"
            },
            {
              "internalType": "address",
              "name": "maker",
              "type": "address"
            },
            {
              "internalType": "address",
              "name": "taker",
              "type": "address"
            },
            {
              "internalType": "uint256",
              "name": "makerFee",
              "type": "uint256"
            },
            {
              "internalType": "uint256",
              "name": "takerFee",
              "type": "uint256"
            },
            {
              "internalType": "address",
              "name": "feeRecipient",
              "type": "address"
            },
            {
              "internalType": "uint256",
              "name": "expiry",
              "type": "uint256"
            },
            {
              "internalType": "uint256",
              "name": "salt",
              "type": "uint256"
            },
            {
              "components": [
                {
                  "internalType": "bytes4",
                  "name": "method",
                  "type": "bytes4"
                },
                {
                  "internalType": "address",
                  "name": "target",
                  "type": "address"
                },
                {
                  "internalType": "bytes",
                  "name": "additionalCalldata",
                  "type": "bytes"
                }
              ],
              "internalType": "struct ITermIntent.RetrieveFundsStruct",
              "name": "retrieveFunds",
              "type": "tuple"
            }
          ],
          "internalType": "struct ITermIntent.RepoTokenSwapOrder",
          "name": "order",
          "type": "tuple"
        }
      ],
      "name": "getSwapOrderHash",
      "outputs": [
        {
          "internalType": "bytes32",
          "name": "",
          "type": "bytes32"
        }
      ],
      "stateMutability": "view",
      "type": "function"
    },
    {
      "inputs": [
        {
          "internalType": "address",
          "name": "maker",
          "type": "address"
        },
        {
          "internalType": "contract IERC20",
          "name": "makerToken",
          "type": "address"
        },
        {
          "internalType": "contract IERC20",
          "name": "takerToken",
          "type": "address"
        }
      ],
      "name": "getSwapOrderMakerTokenPairMinSaltValue",
      "outputs": [
        {
          "internalType": "uint256",
          "name": "",
          "type": "uint256"
        }
      ],
      "stateMutability": "view",
      "type": "function"
    },
    {
      "inputs": [
        {
          "internalType": "bytes4",
          "name": "",
          "type": "bytes4"
        }
      ],
      "name": "previewMapping",
      "outputs": [
        {
          "internalType": "bytes4",
          "name": "",
          "type": "bytes4"
        }
      ],
      "stateMutability": "view",
      "type": "function"
    },
    {
      "inputs": [
        {
          "components": [
            {
              "internalType": "address",
              "name": "user",
              "type": "address"
            },
            {
              "internalType": "address",
              "name": "inputToken",
              "type": "address"
            },
            {
              "internalType": "uint256",
              "name": "maxInputAmount",
              "type": "uint256"
            },
            {
              "internalType": "address",
              "name": "outputToken",
              "type": "address"
            },
            {
              "internalType": "uint256",
              "name": "minOutputAmount",
              "type": "uint256"
            },
            {
              "internalType": "address",
              "name": "targetAddress",
              "type": "address"
            },
            {
              "internalType": "bytes",
              "name": "additionalCalldata",
              "type": "bytes"
            }
          ],
          "internalType": "struct ActionHookInput",
          "name": "actionHookInput",
          "type": "tuple"
        }
      ],
      "name": "previewSwapRepoToken",
      "outputs": [
        {
          "components": [
            {
              "internalType": "address",
              "name": "expectedInputToken",
              "type": "address"
            },
            {
              "internalType": "uint256",
              "name": "expectedInputAmount",
              "type": "uint256"
            },
            {
              "internalType": "address",
              "name": "expectedOutputToken",
              "type": "address"
            },
            {
              "internalType": "uint256",
              "name": "expectedOutputAmount",
              "type": "uint256"
            },
            {
              "internalType": "bool",
              "name": "isDeterministic",
              "type": "bool"
            }
          ],
          "internalType": "struct PreviewAction",
          "name": "",
          "type": "tuple"
        }
      ],
      "stateMutability": "view",
      "type": "function"
    },
    {
      "inputs": [
        {
          "internalType": "bytes32",
          "name": "orderHash",
          "type": "bytes32"
        }
      ],
      "name": "revokePreSignedSwapOrderHash",
      "outputs": [],
      "stateMutability": "nonpayable",
      "type": "function"
    },
    {
      "inputs": [
        {
          "components": [
            {
              "internalType": "address",
              "name": "repoToken",
              "type": "address"
            },
            {
              "internalType": "bool",
              "name": "makerAssetIsPurchaseToken",
              "type": "bool"
            },
            {
              "internalType": "uint256",
              "name": "purchaseTokenAmount",
              "type": "uint256"
            },
            {
              "internalType": "uint256",
              "name": "discountRate",
              "type": "uint256"
            },
            {
              "internalType": "address",
              "name": "maker",
              "type": "address"
            },
            {
              "internalType": "address",
              "name": "taker",
              "type": "address"
            },
            {
              "internalType": "uint256",
              "name": "makerFee",
              "type": "uint256"
            },
            {
              "internalType": "uint256",
              "name": "takerFee",
              "type": "uint256"
            },
            {
              "internalType": "address",
              "name": "feeRecipient",
              "type": "address"
            },
            {
              "internalType": "uint256",
              "name": "expiry",
              "type": "uint256"
            },
            {
              "internalType": "uint256",
              "name": "salt",
              "type": "uint256"
            },
            {
              "components": [
                {
                  "internalType": "bytes4",
                  "name": "method",
                  "type": "bytes4"
                },
                {
                  "internalType": "address",
                  "name": "target",
                  "type": "address"
                },
                {
                  "internalType": "bytes",
                  "name": "additionalCalldata",
                  "type": "bytes"
                }
              ],
              "internalType": "struct ITermIntent.RetrieveFundsStruct",
              "name": "retrieveFunds",
              "type": "tuple"
            }
          ],
          "internalType": "struct ITermIntent.RepoTokenSwapOrder",
          "name": "order",
          "type": "tuple"
        }
      ],
      "name": "setPreSignedSwapHash",
      "outputs": [],
      "stateMutability": "nonpayable",
      "type": "function"
    },
    {
      "inputs": [
        {
          "internalType": "address",
          "name": "makerToken",
          "type": "address"
        },
        {
          "internalType": "address",
          "name": "takerToken",
          "type": "address"
        },
        {
          "internalType": "uint256",
          "name": "minValidSalt",
          "type": "uint256"
        }
      ],
      "name": "setSwapOrderMakerTokenPairMinSaltValue",
      "outputs": [],
      "stateMutability": "nonpayable",
      "type": "function"
    },
    {
      "inputs": [
        {
          "components": [
            {
              "internalType": "address",
              "name": "repoToken",
              "type": "address"
            },
            {
              "internalType": "bool",
              "name": "makerAssetIsPurchaseToken",
              "type": "bool"
            },
            {
              "internalType": "uint256",
              "name": "purchaseTokenAmount",
              "type": "uint256"
            },
            {
              "internalType": "uint256",
              "name": "discountRate",
              "type": "uint256"
            },
            {
              "internalType": "address",
              "name": "maker",
              "type": "address"
            },
            {
              "internalType": "address",
              "name": "taker",
              "type": "address"
            },
            {
              "internalType": "uint256",
              "name": "makerFee",
              "type": "uint256"
            },
            {
              "internalType": "uint256",
              "name": "takerFee",
              "type": "uint256"
            },
            {
              "internalType": "address",
              "name": "feeRecipient",
              "type": "address"
            },
            {
              "internalType": "uint256",
              "name": "expiry",
              "type": "uint256"
            },
            {
              "internalType": "uint256",
              "name": "salt",
              "type": "uint256"
            },
            {
              "components": [
                {
                  "internalType": "bytes4",
                  "name": "method",
                  "type": "bytes4"
                },
                {
                  "internalType": "address",
                  "name": "target",
                  "type": "address"
                },
                {
                  "internalType": "bytes",
                  "name": "additionalCalldata",
                  "type": "bytes"
                }
              ],
              "internalType": "struct ITermIntent.RetrieveFundsStruct",
              "name": "retrieveFunds",
              "type": "tuple"
            }
          ],
          "internalType": "struct ITermIntent.RepoTokenSwapOrder",
          "name": "order",
          "type": "tuple"
        },
        {
          "internalType": "uint256",
          "name": "fillAmount",
          "type": "uint256"
        },
        {
          "components": [
            {
              "internalType": "enum ITermIntent.SignatureType",
              "name": "sigType",
              "type": "uint8"
            },
            {
              "internalType": "bytes",
              "name": "sigData",
              "type": "bytes"
            }
          ],
          "internalType": "struct ITermIntent.Signature",
          "name": "signature",
          "type": "tuple"
        },
        {
          "internalType": "bool",
          "name": "usePermit2",
          "type": "bool"
        }
      ],
      "name": "swapRepoToken",
      "outputs": [],
      "stateMutability": "nonpayable",
      "type": "function"
    },
    {
      "inputs": [
        {
          "components": [
            {
              "internalType": "address",
              "name": "repoToken",
              "type": "address"
            },
            {
              "internalType": "bool",
              "name": "makerAssetIsPurchaseToken",
              "type": "bool"
            },
            {
              "internalType": "uint256",
              "name": "purchaseTokenAmount",
              "type": "uint256"
            },
            {
              "internalType": "uint256",
              "name": "discountRate",
              "type": "uint256"
            },
            {
              "internalType": "address",
              "name": "maker",
              "type": "address"
            },
            {
              "internalType": "address",
              "name": "taker",
              "type": "address"
            },
            {
              "internalType": "uint256",
              "name": "makerFee",
              "type": "uint256"
            },
            {
              "internalType": "uint256",
              "name": "takerFee",
              "type": "uint256"
            },
            {
              "internalType": "address",
              "name": "feeRecipient",
              "type": "address"
            },
            {
              "internalType": "uint256",
              "name": "expiry",
              "type": "uint256"
            },
            {
              "internalType": "uint256",
              "name": "salt",
              "type": "uint256"
            },
            {
              "components": [
                {
                  "internalType": "bytes4",
                  "name": "method",
                  "type": "bytes4"
                },
                {
                  "internalType": "address",
                  "name": "target",
                  "type": "address"
                },
                {
                  "internalType": "bytes",
                  "name": "additionalCalldata",
                  "type": "bytes"
                }
              ],
              "internalType": "struct ITermIntent.RetrieveFundsStruct",
              "name": "retrieveFunds",
              "type": "tuple"
            }
          ],
          "internalType": "struct ITermIntent.RepoTokenSwapOrder",
          "name": "order",
          "type": "tuple"
        },
        {
          "internalType": "address",
          "name": "taker",
          "type": "address"
        },
        {
          "internalType": "uint256",
          "name": "fillAmount",
          "type": "uint256"
        },
        {
          "components": [
            {
              "internalType": "enum ITermIntent.SignatureType",
              "name": "sigType",
              "type": "uint8"
            },
            {
              "internalType": "bytes",
              "name": "sigData",
              "type": "bytes"
            }
          ],
          "internalType": "struct ITermIntent.Signature",
          "name": "signature",
          "type": "tuple"
        }
      ],
      "name": "swapRepoToken",
      "outputs": [],
      "stateMutability": "nonpayable",
      "type": "function"
    },
    {
      "inputs": [
        {
          "components": [
            {
              "internalType": "address",
              "name": "user",
              "type": "address"
            },
            {
              "internalType": "address",
              "name": "inputToken",
              "type": "address"
            },
            {
              "internalType": "uint256",
              "name": "maxInputAmount",
              "type": "uint256"
            },
            {
              "internalType": "address",
              "name": "outputToken",
              "type": "address"
            },
            {
              "internalType": "uint256",
              "name": "minOutputAmount",
              "type": "uint256"
            },
            {
              "internalType": "address",
              "name": "targetAddress",
              "type": "address"
            },
            {
              "internalType": "bytes",
              "name": "additionalCalldata",
              "type": "bytes"
            }
          ],
          "internalType": "struct ActionHookInput",
          "name": "input",
          "type": "tuple"
        }
      ],
      "name": "swapRepoTokenHook",
      "outputs": [],
      "stateMutability": "nonpayable",
      "type": "function"
    },
    {
      "inputs": [],
      "name": "version",
      "outputs": [
        {
          "internalType": "string",
          "name": "",
          "type": "string"
        }
      ],
      "stateMutability": "view",
      "type": "function"
    }
  ],
  "bytecode": "0x6080806040523461005c576001600081815563b473743960e01b90526020527ff78bc1bf9ff69162f50d7428d185e6f567b67477dec76a77873d31917c2f6c6b805463ffffffff1916632181de071790556145e690816100628239f35b600080fdfe610160604052600436101561001357600080fd5b6000803560e01c80631081e33214612e075780632181de0714612c5757806352cac7fa14612bcd57806354fd4d5014612b8157806359ff817014612b1b57806389899616146129695780639ef72eff14612754578063b4737439146119f9578063bf563bf014610f7f578063c3246edc14610f3b578063d8313e1414610d15578063dda5e05b146100d95763ee3430fe146100ad57600080fd5b346100d65760206100ce6100c9366100c43661303f565b613332565b613aa0565b604051908152f35b80fd5b50346100d65760803660031901126100d6576004356001600160401b038111610d115761010a903690600401613332565b610112613139565b6064356001600160401b038111610d0d57610131903690600401613409565b9130331480610cc2575b15610c84576101486136cf565b60443515610c725760808101516001600160a01b03838116911614610c6057610170816136f2565b61017981613aa0565b608082015190936001600160a01b0391821691906101979086614104565b1603610c4e5782600052600080516020614591833981519152602052604060002060ff604051916101c783613163565b546001600160801b038116835260801c166101e18161353d565b8060208301526101f08161353d565b6101f98161353d565b151580610c2d575b610c1b5781516040516379502c5560e01b81526001600160a01b039091169390608081600481885afa90811561071457600090600092610be7575b5060405163ef4474cd60e01b8152906020826004818a5afa91821561071457600092610bb3575b50602086015115610b8757608086015186516101408801516102959290916001600160a01b03908116918791166139b6565b60a08601516001600160a01b031680151580610b74575b610b5157506102bf6101608701516139ff565b9160ff6102d860018060a01b036101008a0151166134b1565b541615610b3f57604087015186516103119291610301916001600160801b031690604435613f0c565b9260608901519160443591613e4e565b9261032a604088015160018060801b0388511690613eff565b8203610b3357600260208701525b6001600160801b038211610b135785516001600160801b0390811683821601908111610afd576001600160801b03908116875260008a815260008051602061459183398151915260209081526040909120885181546001600160801b03191693169290921782559096015187966103b891906103b38261353d565b613eab565b6000926000602088015115159081600014610af4575060015b94916107aa575b5061044a92916104db88926104938c6040516103f3816131dd565b8781528a8c604051610404816131dd565b82815260208a01511561079f5760e08a0151905b61042c670de0b6b3a76400009283926143cc565b51049b8c9460208c015115156000146107945760c08c0151906143cc565b51049b60208a01511515918260001461078057805b831561077a575060808b01516001600160a01b0316915b6101008c01516001600160a01b031693156107725760009661424f565b8685602086015115158060001461076c5760808701516001600160a01b03165b8115610758578c905b6101008901516001600160a01b03169215610750576000955b8861424f565b6020820151158015969061074957835b87156107415750935b861561073a57855b87156107325750955b61010083015160808401516001600160a01b03918216999116821561072b5783925b15610725578c935b610140610120604060608901519801519d01519d01519d6040516080526105576080516131f8565b6080515260018060a01b0316602060805101526040608051015260018060a01b03166060608051015260018060a01b031660808051015260018060a01b031660a0608051015260c0608051015260e06080510152610100608051015261012060805101526101406080510152610160608051015261018060805101526101a060805101526101c0608051015260018060a01b03600080516020614571833981519152541690813b1561072057604080516377f20ec760e11b8152600481019290925260808051516001600160a01b0390811660248501528151602001518116604485015281519092015182166064840152805160600151821660848401528051810151821660a4840152805160a00151821660c4840152805160c0015160e4840152805160e0015161010484015280516101000151610124840152805161012001516101448401528051610140015161016484015280516101600151909116610184830152805161018001516101a483015280516101a001516101c4830152516101c001516101e482015290600090829061020490829084905af1801561071457610705575b506001815580f35b61070e906131af565b386106fd565b6040513d6000823e3d90fd5b600080fd5b8361052f565b8c92610527565b905095610505565b80956104fc565b9050936104f4565b80936104eb565b6000956104d5565b60808801516001600160a01b0316906104bc565b8b6104b3565b60009661424f565b91610476565b60808b01516001600160a01b03169061045f565b60e08c0151906143cc565b60c08a015190610418565b9196509291908015610aed5786905b15610ae65781905b61016089015160808a015181516040516366ffd66360e11b81526001600160e01b031990911660048201526001600160a01b0390911691602082602481305afa91821561071457600092610aa0575b50600080916108af9461089b63ffffffff60e01b8351169261088d604060018060a01b0360208401511692015160405194859360208501976343b7c86160e11b89526024860152604485015260018060a01b038c16606485015260848401528b60a48401528660c484015260e060e48401526101048301906130fe565b03601f19810183528261322f565b519082855af16108a9613ecf565b91614190565b918251830192602081818601950312610720576020810151906001600160401b038211610720570183603f820112156107205760208101516108f081613252565b946108fe604051968761322f565b818652604082840101116107205761091d9160406020870191016130db565b60808a0151610934906001600160a01b031661355d565b6040516370a0823160e01b8152306004820152916020836024816001600160a01b0385165afa92831561071457600093610a6b575b5060209061098f60008087856024989951910182305af1610988613ecf565b9030614190565b506040516370a0823160e01b815230600482015293849182906001600160a01b03165afa91821561071457600092610a35575b506109cd9192613c4f565b11610a235760008051602061455183398151915280546001600160a01b031916905560208701518796879115610a135761044a9394506104db60015b92505091926103d8565b61044a93506104db600195610a09565b604051630d3f033d60e31b8152600490fd5b91506020823d602011610a63575b81610a506020938361322f565b81010312610720576109cd9151916109c2565b3d9150610a43565b9092506020813d602011610a98575b81610a876020938361322f565b810103126107205751916020610969565b3d9150610a7a565b9291506020833d602011610ade575b81610abc6020938361322f565b810103126107205760008091610ad46108af95613466565b9394509150610810565b3d9150610aaf565b84906107c1565b88906107b9565b600195506103d1565b634e487b7160e01b600052601160045260246000fd5b6040516306dfcc6560e41b81526080600482015260248101839052604490fd5b60016020870152610338565b604051630ed1b8b360e31b8152600490fd5b60405163bc8732c560e01b8152908190610b7090879060048401613523565b0390fd5b506001600160a01b0385168114156102ac565b60808601518651610140880151610bae92909186916001600160a01b0391821691166139b6565b610295565b9091506020813d602011610bdf575b81610bcf6020938361322f565b8101031261072057519038610263565b3d9150610bc2565b9050610c0b915060803d608011610c14575b610c03818361322f565b81019061347a565b5050903861023c565b503d610bf9565b604051632916ae3360e01b8152600490fd5b5060016020820151610c3e8161353d565b610c478161353d565b1415610201565b604051638baa579f60e01b8152600490fd5b60405163c3f49bcd60e01b8152600490fd5b60405163251a5d1160e21b8152600490fd5b60405162461bcd60e51b815260206004820152601660248201527510985d18da0818dbdb9d195e1d081c995c5d5a5c995960521b6044820152606490fd5b507f2a2e13707d6b40952f0aec05e2811137753b06b56d55208636050ec9ee68dd7b546001600160a01b039081168015159182610d01575b505061013b565b84161490503880610cfa565b8380fd5b5080fd5b50346100d65760603660031901126100d657610d2f613123565b610d37613139565b6044803590610d446136cf565b6001600160a01b03938416928315610f01578416928315610ec757838114610e82576000198314610e4a57610d78336134ea565b816000526020526040600020846000526020528260406000205411610e38578594610da2336134ea565b8260005260205260406000208560005260205283604060002055600080516020614571833981519152541690813b15610e345785608492819560405197889687956314b40e0560e11b8752336004880152602487015285015260648401525af18015610e2957610e15575b506001905580f35b610e1e906131af565b6100d6578038610e0d565b6040513d84823e3d90fd5b8580fd5b6040516354636abb60e11b8152600490fd5b60405163dd23c3ad60e01b815260206004820152601060248201526f125b9d985b1a5908135a5b8814d85b1d60821b81840152606490fd5b60405163dd23c3ad60e01b815260206004820152601f60248201527f4d616b657220616e642054616b657220546f6b656e204964656e746963616c0081840152606490fd5b60405163dd23c3ad60e01b8152602060048201526012602482015271139bc815185ad95c88151bdad95b8814d95d60721b81840152606490fd5b60405163dd23c3ad60e01b8152602060048201526012602482015271139bc813585ad95c88151bdad95b8814d95d60721b81840152606490fd5b50346100d65760203660031901126100d6576001600160e01b03196004358181169081900361072057826040916020945260018452205460e01b9060405191168152f35b50346100d65760803660031901126100d6576004356001600160401b038111610d1157610fb0903690600401613332565b6044356001600160401b0381116119f557610fcf903690600401613409565b60643515156064350361072057610fe46136cf565b60243515610c725760808201516001600160a01b03163314610c6057611009826136f2565b61101282613aa0565b608083015190916001600160a01b0391821691906110309084614104565b1603610c4e578060005260008051602061459183398151915260205260406000209160ff6040519361106185613163565b546001600160801b038116855260801c1661107b8161353d565b80602085015261108a8161353d565b6110938161353d565b1515806119d4575b610c1b5780516040516379502c5560e01b8152936001600160a01b039091169190608085600481865afa948515610714576000906000966119ae575b5060405163ef4474cd60e01b8152602081600481885afa9081156107145760009161197c575b50602084015115611950576080840151845161014086015161112f9290916001600160a01b03908116918b91166139b6565b60a08401516001600160a01b031680151580611946575b61192757506111596101608501516139ff565b9060ff61117260018060a01b03610100880151166134b1565b541615610b3f57604085015184516111ab929161119b916001600160801b031690602435613f0c565b9360608701519160243591613e4e565b926111c4604086015160018060801b0383511690613eff565b830361191b57600260208201525b6001600160801b0383116118fb5780516001600160801b039081168482160191908211610afd576001600160801b039182168152600088815260008051602061459183398151915260209081526040909120825181546001600160801b03191694169390931783550151611249916103b38261353d565b600087858460006020830151151590816000146118f2575060005b94956115e4575b509061136a92916112dc956113278b604051611286816131dd565b8481528b604051611296816131dd565b8181526020880151156115d95760e0880151905b6112be670de0b6b3a76400009283926143cc565b51049b8c9360208a015115156000146115ce5760c08a0151906143cc565b5104998760208c990151151591826000146115ba5733905b83156115b35760808301516001600160a01b0316925b61010001516001600160a01b03169315610772576064359661424f565b60208a015115801591906115ad5760808b01516001600160a01b03165b82156115995733915b6101008d01516001600160a01b031693156115905760009661424f565b6020850151158015949061158957835b85156115815750915b841561157a57815b85156115725750915b61010086015160808701516001600160a01b039081169691169490801561156b578a905b1561156557885b60608901519160408a0151986101208b01519a61014001519b6040519e8f916113e7836131f8565b8252600160a01b60019003166020820152604001528c339060600152600160a01b600190031660808d0152600160a01b600190031660a08c015260c08b015260e08a01526101008901526101208801526101408701526101608601526101808501526101a08401526101c0830152600160a01b60019003600080516020614571833981519152541691823b1561072057604080516377f20ec760e11b8152600481019390935281516001600160a01b03908116602485015260208301518116604485015290820151811660648401526060820151811660848401526080820151811660a484015260a0820151811660c484015260c082015160e484015260e0820151610104840152610100820151610124840152610120820151610144840152610140820151610164840152610160820151166101848301526101808101516101a48301526101a08101516101c48301526101c001516101e482015290600090829061020490829084905af180156107145761070557506001815580f35b8a6113bf565b88906113b8565b905091611394565b809161138b565b905091611383565b809361137a565b6064359661424f565b60808c01516001600160a01b03169161134d565b33611344565b339261130a565b60808201516001600160a01b0316906112f4565b60e08a0151906143cc565b60c0880151906112aa565b92505050806000146118eb5788905b156118e45783905b610160870151608088015181516040516366ffd66360e11b81526001600160e01b031990911660048201526001600160a01b0390911691602082602481305afa9182156107145760009261189e575b50600080916116c79461089b63ffffffff60e01b8351169261088d604060018060a01b0360208401511692015160405194859360208501976343b7c86160e11b89526024860152604485015260018060a01b038c16606485015260848401528b60a48401528660c484015260e060e48401526101048301906130fe565b918251830192602081818601950312610720576020810151906001600160401b038211610720570183603f8201121561072057602081015161170881613252565b94611716604051968761322f565b81865260408284010111610720576117359160406020870191016130db565b608088015161174c906001600160a01b031661355d565b6040516370a0823160e01b8152306004820152916020836024816001600160a01b0385165afa92831561071457600093611869575b506020906117a060008087856024989951910182305af1610988613ecf565b506040516370a0823160e01b815230600482015293849182906001600160a01b03165afa91821561071457600092611833575b506117de9192613c4f565b11610a235760008051602061455183398151915280546001600160a01b031916905560208501516112dc929015611823575061136a88868560015b955090919261126b565b905061136a888685600194611819565b91506020823d602011611861575b8161184e6020938361322f565b81010312610720576117de9151916117d3565b3d9150611841565b9092506020813d602011611896575b816118856020938361322f565b810103126107205751916020611781565b3d9150611878565b9291506020833d6020116118dc575b816118ba6020938361322f565b8101031261072057600080916118d26116c795613466565b939450915061164a565b3d91506118ad565b84906115fb565b86906115f3565b60009550611264565b6040516306dfcc6560e41b81526080600482015260248101849052604490fd5b600160208201526111d2565b60405163bc8732c560e01b8152908190610b7090339060048401613523565b5080331415611146565b608084015184516101408601516119779290918a916001600160a01b0391821691166139b6565b61112f565b90506020813d6020116119a6575b816119976020938361322f565b810103126107205751386110fd565b3d915061198a565b90506119ca91955060803d608011610c1457610c03818361322f565b50509490386110d7565b50600160208401516119e58161353d565b6119ee8161353d565b141561109b565b8280fd5b50346100d657611a0836613071565b60e052611a1660e051613452565b7fc9e4fb8bffaf71b56abf2a5032f2ea641e97267f8c0d9bcf66c86998c650d62a546001600160a01b03168015159182612741575b50501561270657611a5a6136cf565b611a6560e051613452565b61010052611a85611a7d60c060e0510160e0516135b6565b8101906135e8565b60a09290925280516040516379502c5560e01b8152906001600160a01b0316608082600481845afa9182156126fb57859086936126d5575b5060405163ef4474cd60e01b815292602084600481865afa9081156126ca578791612694575b611b1b9450602086015115159388610120528460001461268a5750610120525b60c085015191606086015192608060e0510135613dd6565b90611b2581613aa0565b8452600080516020614591833981519152602052611b856040852060ff60405191611b4f83613163565b546001600160801b038116835260801c16611b698161353d565b6020820152604083015190516001600160801b03169084613f0c565b508115610c72576080810151610100516001600160a01b03908116911614610c6057611bb0816136f2565b611bb981613aa0565b608082015190936001600160a01b039182169190611bd79086614104565b1603610c4e5782600052600080516020614591833981519152602052604060002060ff60405191611c0783613163565b546001600160801b038116835260801c16611c218161353d565b806020830152611c308161353d565b611c398161353d565b151580612669575b610c1b5781516040516379502c5560e01b81526001600160a01b039091169390608081600481885afa90811561071457600091600061014052612644575b5060405163ef4474cd60e01b815291602083600481895afa92831561071457600093612610575b506020850151156125e15760808501518551610140808801519051611cd99391926001600160a01b0390811692166139b6565b60a08501516001600160a01b0316801515806125cb575b6125a95750611d036101608601516139ff565b9160ff611d1c60018060a01b03610100890151166134b1565b541615610b3f5760408601518551611d4f9391611d43916001600160801b03169083613f0c565b94606088015192613e4e565b92611d68604086015160018060801b0383511690613eff565b830361259d57600260208201525b6001600160801b0383116118fb5780516001600160801b039081168482160191908211610afd576001600160801b039182168152600088815260008051602061459183398151915260209081526040909120825181546001600160801b03191694169390931783550151611ded916103b38261353d565b600080602086015115159081600014612594575060015b9192612292575b50611f14611e7992611ec688604051611e23816131dd565b87815288604051611e33816131dd565b81815260208c0151156122875760e08c0151905b611e5b670de0b6b3a76400009283926143cc565b51049889938d6020810151151560001461227d5760c00151906143cc565b5104968b6020810151151591826000146122695761010051905b831561225f5760808301516001600160a01b0316925b61010001516001600160a01b031693156107725760a0519661424f565b828560208901511515806000146122565760808a01516001600160a01b03165b81156122425761010051905b6101008c01516001600160a01b03169215612239576000955b6101405161424f565b6020850151158015949061223257835b851561222a5750915b841561222357815b851561221b5750915b61010086015160808701516001600160a01b03908116969116949080156122145761014051905b1561220b57885b60608901519160408a0151986101406101208c01519b01519b60405160c052611f9660c0516131f8565b60c0515260018060a01b036101405116602060c0510152604060c051015260018060a01b036101005116606060c051015260018060a01b0316608060c051015260018060a01b031660a060c051015260c08051015260e060c051015261010060c051015261012060c051015261014060c051015261016060c051015261018060c05101526101a060c05101526101c060c051015260018060a01b03600080516020614571833981519152541690813b1561072057604080516377f20ec760e11b8152600481019290925260c08051516001600160a01b039081166024850152815160200151811660448501528151909201518216606484015280516060015182166084840152805160800151821660a4840152805160a00151821660c4840152805181015160e4840152805160e0015161010484015280516101000151610124840152805161012001516101448401528051610140015161016484015280516101600151909116610184830152805161018001516101a483015280516101a001516101c4830152516101c001516101e482015290600090829061020490829084905af18015610714576121fc575b5060a051156121d3578061215d608060e0510135613f82565b6e22d473030f116ddee9f6b43ac78ba3803b156121cf576121a28392918392604051948580948193631b63c28b60e11b835261012051903061010051600486016136a5565b03925af18015610e29576121bb575b50505b6001815580f35b6121c4906131af565b6100d65780386121b1565b5050fd5b60e05161010051610120516121f792608001359130916001600160a01b0316613f39565b6121b4565b612205906131af565b38612144565b61014051611f6c565b8890611f65565b905091611f3e565b8091611f35565b905091611f2d565b8093611f24565b60a05195611f0b565b60808b01516001600160a01b031690611ef2565b61010051611ee6565b6101005192611ea9565b60808201516001600160a01b031690611e93565b60e00151906143cc565b60c08c015190611e47565b801561258d5761014051905b156125865783905b610160870151608088015181516040516366ffd66360e11b81526001600160e01b031990911660048201526001600160a01b0390911691602082602481305afa91821561071457600092612540575b50600080916123729461089b63ffffffff60e01b8351169261088d604060018060a01b0360208401511692015160405194859360208501976343b7c86160e11b89526024860152604485015260018060a01b038c16606485015260848401528b60a48401528660c484015260e060e48401526101048301906130fe565b918251830192602081818601950312610720576020810151906001600160401b038211610720570183603f820112156107205760208101516123b381613252565b946123c1604051968761322f565b81865260408284010111610720576123e09160406020870191016130db565b60808801516123f7906001600160a01b031661355d565b6040516370a0823160e01b8152306004820152916020836024816001600160a01b0385165afa9283156107145760009361250b575b5060209061244b60008087856024989951910182305af1610988613ecf565b506040516370a0823160e01b815230600482015293849182906001600160a01b03165afa918215610714576000926124d5575b506124899192613c4f565b11610a235760008051602061455183398151915280546001600160a01b03191690556020850151611e799290156124c85750611f1460015b9250611e0b565b9050611f146001916124c1565b91506020823d602011612503575b816124f06020938361322f565b810103126107205761248991519161247e565b3d91506124e3565b9092506020813d602011612538575b816125276020938361322f565b81010312610720575191602061242c565b3d915061251a565b9291506020833d60201161257e575b8161255c6020938361322f565b81010312610720576000809161257461237295613466565b93945091506122f5565b3d915061254f565b84906122a6565b869061229e565b60019250611e04565b60016020820152611d76565b60405163bc8732c560e01b81526101005190918291610b709160048401613523565b50610100516001600160a01b0316811415611cf0565b6080850151855161014080880151905161260b93919290916001600160a01b0391821691166139b6565b611cd9565b9092506020813d60201161263c575b8161262c6020938361322f565b8101031261072057519138611ca6565b3d915061261f565b61265d915060803d608011610c1457610c03818361322f565b50506101405238611c7f565b506001602082015161267a8161353d565b6126838161353d565b1415611c41565b6101205250611b03565b90506020843d6020116126c2575b816126af6020938361322f565b8101031261072057611b1b935190611ae3565b3d91506126a2565b6040513d89823e3d90fd5b90506126f191925060803d608011610c1457610c03818361322f565b5050919038611abd565b6040513d87823e3d90fd5b60405162461bcd60e51b81526020600482015260136024820152722ab730baba3437b934bd32b21031b0b63632b960691b6044820152606490fd5b6001600160a01b03161490503880611a4b565b50346100d6576101003660031901126100d65761276f613123565b612777613139565b6001600160a01b039160643583811692908390036107205760a435946001600160e01b0319808716918288036107205760c435918783168093036107205760e4356001600160401b0381116119f5576127d490369060040161326d565b936127dd61358b565b50825260209560018752604083205460e01b9182161561295757826128729281926128519a8c8060405193612811856131c2565b169a8b8452168b8301526044356040830152606082015260843560808201528660a08201528760c08201526040519a8b918b830193845260248301613635565b0399612865601f199b8c810183528261322f565b5190305afa610988613ecf565b9060a0828051810103126100d6575061293693612953969361294299969361292a936040519a6128a18c613194565b8b6128ad888401613466565b80825282604085015191828b8501526128c860608701613466565b9384604082015260806128e760a0828a0151998a606086015201613698565b910152604051986128f78a6131c2565b895216898801526040870152166060850152608084015260a083015260c082015260405195869384015260248301613635565b0390810183528261322f565b604051938480946130a2565b60c060a084015260c08301906130fe565b0390f35b604051631416e68f60e01b8152600490fd5b50346100d657600319906040368301126100d6576001600160401b0391600435908382116119f5576101808183360301126119f5576024359384116119f5576040908436030112610d11576129bc6136cf565b6129e66129db60846129d46100c93686600401613332565b9301613452565b933690600401613409565b8183526000805160206145918339815191529081602052604084206002602060ff60405193612a1485613163565b5460018060801b038116855260801c16920191612a308161353d565b808352612a3c8161353d565b612a458161353d565b14908115612afd575b50610c1b57612a5d9083614104565b6001600160a01b039190858316908316819003610c4e573303612ae15782845260205260408320805460ff60801b1916600360801b17905560008051602061457183398151915254929350839216803b156121cf5760248392604051948593849263c6a0df7b60e01b845260048401525af18015610e295761070557506001815580f35b60405163708986dd60e11b815280610b70338860048401613523565b6003915051612b0b8161353d565b612b148161353d565b1438612a4e565b50346100d65760603660031901126100d657612b35613123565b612b3d613139565b6001600160a01b036044358181169390849003612b7d579160409391612b65602096946134ea565b91168352845282822090825283522054604051908152f35b8480fd5b50346100d657806003193601126100d657612953604051612ba181613163565b600b81526a19195d995b1bdc1b595b9d60aa1b60208201526040519182916020835260208301906130fe565b50346100d65760203660031901126100d657600435612bea6136cf565b808252600080516020614531833981519152602081905260408320549091906001600160a01b0316338103612c38575082526020526040812080546001600160a01b03191690556001815580f35b60405163708986dd60e11b8152908190610b7090339060048401613523565b50346100d657612c6636613071565b612c6e61358b565b50612c7f611a7d60c08301836135b6565b5080516040516379502c5560e01b81529250608091906001600160a01b039083908590600490829085165afa938415612dfc5786908795612dd8575b50818351169260405197889463ef4474cd60e01b865285600460209788935afa988915612dcb578199612d98575b50508084015115612d725782918183612d1b935116996060612d1260c08401518a8d0135613d59565b92015192613e4e565b945b16951693858514612d605760a095600194849360405197612d3d89613194565b8852870152604086015201356060840152820152612d5e60405180926130a2565bf35b604051635542f09960e01b8152600490fd5b94612d90839283929960c08901519160608a015192898c0135613c5c565b955116612d1d565b9098508481813d8311612dc4575b612db0818361322f565b81010312612dc057519738612ce9565b8880fd5b503d612da6565b50604051903d90823e3d90fd5b9050612df2919450833d8511610c1457610c03818361322f565b5050939038612cbb565b6040513d88823e3d90fd5b50346100d657612e163661303f565b612e1e6136cf565b6001600160a01b039081612e3182613452565b169060405180926379502c5560e01b825281600460809586935afa9081156126fb57859161301e575b50612e6d612e683684613332565b6136f2565b60208201358015158103610e345715612ff457612ea690612e8f848401613452565b90612e9984613452565b90610140850135926139b6565b610160810135605e1982360301811215612b7d57612eca612ecf91369084016132c1565b6139ff565b5060ff612ee7612ee26101008401613452565b6134b1565b541615610b3f57818101612efa81613452565b8433911603612fcd57506100c9612f12913690613332565b90818452600080516020614531833981519152928360205260408520541680612fb55750602090828552600080516020614591833981519152825260ff604086209160405192612f6184613163565b546001600160801b0381168452901c16918291612f7d8361353d565b0152612f888161353d565b612f918161353d565b610c1b5782526020526040812080546001600160a01b031916331790556001815580f35b60249060405190637202ca3760e01b82526004820152fd5b612fd9610b7091613452565b60405163708986dd60e11b8152918291339060048401613523565b61301990613003848401613452565b9061300d84613452565b610140850135926139b6565b612ea6565b6130359150833d8511610c1457610c03818361322f565b5050905038612e5a565b6003199060208183011261072057600435916001600160401b0383116107205782610180920301126107205760040190565b6003199060208183011261072057600435916001600160401b038311610720578260e0920301126107205760040190565b6080809160018060a01b038082511685526020820151602086015260408201511660408501526060810151606085015201511515910152565b60005b8381106130ee5750506000910152565b81810151838201526020016130de565b90602091613117815180928185528580860191016130db565b601f01601f1916010190565b600435906001600160a01b038216820361072057565b602435906001600160a01b038216820361072057565b35906001600160a01b038216820361072057565b604081019081106001600160401b0382111761317e57604052565b634e487b7160e01b600052604160045260246000fd5b60a081019081106001600160401b0382111761317e57604052565b6001600160401b03811161317e57604052565b60e081019081106001600160401b0382111761317e57604052565b602081019081106001600160401b0382111761317e57604052565b6101e081019081106001600160401b0382111761317e57604052565b608081019081106001600160401b0382111761317e57604052565b601f909101601f19168101906001600160401b0382119082101761317e57604052565b6001600160401b03811161317e57601f01601f191660200190565b81601f820112156107205780359061328482613252565b92613292604051948561322f565b8284526020838301011161072057816000926020809301838601378301015290565b3590811515820361072057565b91909160608184031261072057604051906001600160401b0390606083018281118482101761317e576040528294813563ffffffff60e01b8116810361072057845261330f6020830161314f565b602085015260408201359283116107205760409261332d920161326d565b910152565b91909161018090818185031261072057604051916001600160401b03919083018281118482101761317e57604052829461336b8261314f565b8452613379602083016132b4565b6020850152604082013560408501526060820135606085015261339e6080830161314f565b60808501526133af60a0830161314f565b60a085015260c082013560c085015260e082013560e08501526101006133d681840161314f565b908501526101208083013590850152610140808301359085015261016092838301359081116107205761332d92016132c1565b9190604083820312610720576040519061342282613163565b8193803560028110156107205783526020810135916001600160401b0383116107205760209261332d920161326d565b356001600160a01b03811681036107205790565b51906001600160a01b038216820361072057565b91908260809103126107205781519161349560208201613466565b916134ae60606134a760408501613466565b9301613466565b90565b6001600160a01b031660009081527f2a2e13707d6b40952f0aec05e2811137753b06b56d55208636050ec9ee68dd7f6020526040902090565b6001600160a01b031660009081527f2a2e13707d6b40952f0aec05e2811137753b06b56d55208636050ec9ee68dd866020526040902090565b6001600160a01b0391821681529116602082015260400190565b6004111561354757565b634e487b7160e01b600052602160045260246000fd5b60008051602061455183398151915280546001600160a01b0319166001600160a01b03909216919091179055565b6040519061359882613194565b60006080838281528260208201528260408201528260608201520152565b903590601e198136030182121561072057018035906001600160401b0382116107205760200191813603831361072057565b91606083830312610720576135fc836132b4565b926001600160401b03926020820135848111610720578161361e918401613332565b936040830135908111610720576134ae9201613409565b61010060c06134ae936020845260018060a01b0380825116602086015280602083015116604086015260408201516060860152806060830151166080860152608082015160a086015260a0820151168285015201519160e08082015201906130fe565b5190811515820361072057565b6001600160a01b039182168152918116602083015291821660408201529116606082015260800190565b6002600054146136e0576002600055565b604051633ee5aeb560e01b8152600490fd5b8051604080516379502c5560e01b815260049391926001600160a01b0391908216906080818781855afa90811561390157908391600091613993575b5016908451926325c3ed4760e01b845260209384818981875afa9081156139425760009161395d575b5016806000527f2a2e13707d6b40952f0aec05e2811137753b06b56d55208636050ec9ee68dd7d845260ff8660002054161561394d57855163e7e4b8db60e01b81528781018390528481602481855afa9081156139425790859160009161390c575b50159283613897575b50505061388757818591855192838092633d0f31f760e01b82525afa91821561387c5760009261384e575b50504211613840578181015115613832574261012082015110613824576060015115613817575050565b516314bba91760e11b8152fd5b50516362b439dd60e11b8152fd5b505163189207bf60e21b8152fd5b50516304ff30ef60e21b8152fd5b90809250813d8311613875575b613865818361322f565b81010312610720575138806137ed565b503d61385b565b84513d6000823e3d90fd5b50505051633e69d7d560e21b8152fd5b9091925060248751809481936319afa63b60e11b83528b8301525afa908115613901576000916138cc575b50153883816137c2565b90508281813d83116138fa575b6138e3818361322f565b81010312610720576138f490613698565b386138c2565b503d6138d9565b85513d6000823e3d90fd5b82819392503d831161393b575b613923818361322f565b81010312610720576139358591613698565b386137b9565b503d613919565b87513d6000823e3d90fd5b8551638ebd687760e01b81528790fd5b8581813d831161398c575b613972818361322f565b81010312610d1157519082821682036100d6575038613757565b503d613968565b6139ac915060803d608011610c1457610c03818361322f565b509150503861372e565b6139bf906134ea565b60018060a01b038092166000526020526040600020911660005260205260406000205410156139ea57565b6040516001622a81af60e21b03198152600490fd5b516001600160e01b03191680613a155750600090565b604051906366ffd66360e11b82526004820152602081602481305afa90811561071457600091613a66575b506001600160a01b031615613a5457600190565b6040516303e9fdc160e61b8152600490fd5b90506020813d602011613a98575b81613a816020938361322f565b8101031261072057613a9290613466565b38613a40565b3d9150613a74565b60209060018060a01b0390818151169183820151151560408301516060840151836080860151168460a0870151169060c08701519260e088015194876101008a015116966101208a0151986101606101408c01519b0151604063ffffffff60e01b825116928f830151169101518e8151910120604051918f8301937f256d2844f30b75f89e6ec9418f35732e254268f054ce2b9f508642c924b76a8a855260408401526060830152608082015260808152613b5a81613194565b5190209a7fcd57a296f280259286f502de3a6bab28e6b10627b6c0a7ab90bc3c6f6b8af8076040519d8e015260408d015260608c015260808b015260a08a015260c089015260e08801526101008701526101208601526101408501526101608401526101808301526101a0908183015281526101c0810181811060018060401b0382111761317e5780604052815160208301206102027f2a2e13707d6b40952f0aec05e2811137753b06b56d55208636050ec9ee68dd7c54936101e081019461190160f01b86526101e2820152015260428152613c3681613214565b51902090565b81810292918115918404141715610afd57565b91908201809211610afd57565b92919390670de0b6b3a76400009283821015613d47578415613d3c578115928380613d34575b15613c91575050505050905090565b613c9f919395929496613fb5565b908581029081048603610afd57613cdc92613cd79160405190613cc1826131dd565b815260405191613cd0836131dd565b825261404b565b61407f565b9115613cf35750510460018101809111610afd5790565b90613d1e613d2492604051613d07816131dd565b85815260405191613d17836131dd565b82526140da565b9061407f565b510460018101809111610afd5790565b506000613c82565b505050505050600090565b6040516358d620b360e01b8152600490fd5b90670de0b6b3a764000080821015613d47578215613dce57811580613dc6575b15613d8357505090565b613db79291613d1e9160405193613d99856131dd565b845260405190613da8826131dd565b815260405191613d17836131dd565b5160018101809111610afd5790565b506001613d79565b505050600090565b93949194929092670de0b6b3a76400009586851015613d47578515613e42578415938480613e3b575b15613e0f57505050505050905090565b15613e2d5750505050613d1e90613db79360405193613d99856131dd565b90613c9f9195929395613fb5565b5080613dff565b50505050505050600090565b92613e5a919293613fb5565b90670de0b6b3a76400009283810290808204851490151715610afd57613ea692613e929160405190613e8b826131dd565b815261404b565b60405191613e9f836131dd565b825261407f565b510490565b90613eb58161353d565b815460ff60801b191660809190911b60ff60801b16179055565b3d15613efa573d90613ee082613252565b91613eee604051938461322f565b82523d6000602084013e565b606090565b91908203918211610afd57565b91613f1691613eff565b818110613f21575090565b602490604051906338f6247760e11b82526004820152fd5b6040516323b872dd60e01b60208201526001600160a01b039283166024820152929091166044830152606480830193909352918152613f8091613f7b82613194565b6141f3565b565b6001600160a01b0390818111613f96571690565b604490604051906306dfcc6560e41b825260a060048301526024820152fd5b90613fd160409260008451613fc9816131dd565b524290613eff565b670de0b6b3a76400009081810290808204831490151715610afd5761403a9261402291855193614000856131dd565b84526301da9c00865191614013836131dd565b048152855191613cd0836131dd565b9060008451614030816131dd565b5251905190613c4f565b905190614046826131dd565b815290565b670de0b6b3a764000091614071916000604051614067816131dd565b5251905190613c3c565b0460405190614046826131dd565b600060405161408d816131dd565b525190670de0b6b3a764000091828102928184041490151715610afd575180156140c457604051916140be836131dd565b04815290565b634e487b7160e01b600052601260045260246000fd5b906140f79160006040516140ed816131dd565b5251905190613eff565b60405190614046826131dd565b9080516002811015613547576141575760200151906060828051810103126107205760208201519060ff82168203610720578261414e92606060406134ae9601519201519261441f565b909291926144a5565b51600281101561354757600103610c4e57600090815260008051602061453183398151915260205260409020546001600160a01b031690565b906141b757508051156141a557805190602001fd5b60405163d6bda27560e01b8152600490fd5b815115806141ea575b6141c8575090565b604051639996b31560e01b81526001600160a01b039091166004820152602490fd5b50803b156141c0565b906000602091828151910182855af115610714576000513d61424657506001600160a01b0381163b155b6142245750565b604051635274afe760e01b81526001600160a01b039091166004820152602490fd5b6001141561421d565b92939496906000146142915750506001600160a01b03169361427e9190614277908590613eff565b90856143e6565b8161428857505050565b613f80926143e6565b95909194929560001461438d576142ab836142b092613eff565b613f82565b946e22d473030f116ddee9f6b43ac78ba392833b1561072057604051631b63c28b60e11b9283825281806142ed8a60009c8d958a600486016136a5565b038183895af180156143825761436f575b508061430e575b50505050505050565b61431790613f82565b94833b1561436b57869493929161433e8692604051988997889687958652600486016136a5565b03925af18015610e2957614357575b8080808080614305565b61436182916131af565b6100d6578061434d565b8680fd5b61437b909791976131af565b95386142fe565b6040513d8a823e3d90fd5b946143a6836143ae93949660018060a01b031697613eff565b908387613f39565b826143ba575b50505050565b6143c393613f39565b388080806143b4565b906140f79160006040516143df816131dd565b5251613c3c565b60405163a9059cbb60e01b60208201526001600160a01b039092166024830152604480830193909352918152613f8091613f7b82613214565b91906fa2a8918ca85bafe22016d0b997e4df60600160ff1b03841161449957926020929160ff608095604051948552168484015260408301526060820152600092839182805260015afa1561448d5780516001600160a01b0381161561448457918190565b50809160019190565b604051903d90823e3d90fd5b50505060009160039190565b6144ae8161353d565b806144b7575050565b6144c08161353d565b600181036144da5760405163f645eedf60e01b8152600490fd5b6144e38161353d565b600281036145045760405163fce698f760e01b815260048101839052602490fd5b8061451060039261353d565b146145185750565b602490604051906335e2f38360e21b82526004820152fdfe2a2e13707d6b40952f0aec05e2811137753b06b56d55208636050ec9ee68dd842a2e13707d6b40952f0aec05e2811137753b06b56d55208636050ec9ee68dd792a2e13707d6b40952f0aec05e2811137753b06b56d55208636050ec9ee68dd802a2e13707d6b40952f0aec05e2811137753b06b56d55208636050ec9ee68dd83a2646970667358221220568d8a7d8683bd2ba4ad2b6fec9e0b7407a6c7e21bbb672e39bd78ff13eff6ce64736f6c63430008160033",
  "linkReferences": {},
  "deployedLinkReferences": {}
}