{
  "_format": "hh-sol-artifact-1",
  "contractName": "DiamondLoupeFacet",
  "sourceName": "contracts/facets/DiamondLoupeFacet.sol",
  "abi": [
    {
      "inputs": [],
      "name": "diamondPaused",
      "outputs": [
        {
          "internalType": "bool",
          "name": "",
          "type": "bool"
        }
      ],
      "stateMutability": "view",
      "type": "function"
    },
    {
      "inputs": [
        {
          "internalType": "bytes4",
          "name": "_functionSelector",
          "type": "bytes4"
        }
      ],
      "name": "facetAddress",
      "outputs": [
        {
          "internalType": "address",
          "name": "facetAddress_",
          "type": "address"
        }
      ],
      "stateMutability": "view",
      "type": "function"
    },
    {
      "inputs": [],
      "name": "facetAddresses",
      "outputs": [
        {
          "internalType": "address[]",
          "name": "facetAddresses_",
          "type": "address[]"
        }
      ],
      "stateMutability": "view",
      "type": "function"
    },
    {
      "inputs": [
        {
          "internalType": "address",
          "name": "_facet",
          "type": "address"
        }
      ],
      "name": "facetFunctionSelectors",
      "outputs": [
        {
          "internalType": "bytes4[]",
          "name": "facetFunctionSelectors_",
          "type": "bytes4[]"
        }
      ],
      "stateMutability": "view",
      "type": "function"
    },
    {
      "inputs": [],
      "name": "facets",
      "outputs": [
        {
          "components": [
            {
              "internalType": "address",
              "name": "facetAddress",
              "type": "address"
            },
            {
              "internalType": "bytes4[]",
              "name": "functionSelectors",
              "type": "bytes4[]"
            }
          ],
          "internalType": "struct IDiamondLoupe.Facet[]",
          "name": "facets_",
          "type": "tuple[]"
        }
      ],
      "stateMutability": "view",
      "type": "function"
    },
    {
      "inputs": [
        {
          "internalType": "bytes4",
          "name": "_interfaceId",
          "type": "bytes4"
        }
      ],
      "name": "supportsInterface",
      "outputs": [
        {
          "internalType": "bool",
          "name": "",
          "type": "bool"
        }
      ],
      "stateMutability": "view",
      "type": "function"
    }
  ],
  "bytecode": "0x6080806040523461001657610767908161001c8239f35b600080fdfe60806040818152600491600436101561001757600080fd5b600092833560e01c91826301ffc9a714610428575081634f1a07d8146103e257816352ef6b2c146103105781637a0ed6271461015a57508063adfca15e146100d35763cdffacc61461006857600080fd5b346100cf5760203660031901126100cf5760043563ffffffff60e01b81168091036100cb5782527fc8fcad8db84d3cc18b4c41d551ea0ee66dd599cde068d998e57d5e09332c131d6020908152918190205490516001600160a01b039091168152f35b8280fd5b5080fd5b50346100cf57602090816003193601126100cb576004356001600160a01b0381168103610156578361010d61010885936104fe565b610537565b9083519383808695860192818752855180945286019401925b82811061013557505050500390f35b83516001600160e01b03191685528695509381019392810192600101610126565b8380fd5b82843461030d578060031936011261030d578290600080516020610712833981519152908154610189816104bd565b9261019686519485610484565b8184526101a2826104bd565b94602095601f190190845b8281106102bf57505050825b82811061026b5750505083519280840191818552835180935285850182878560051b880101950196825b8584106101f05787870388f35b90919293809596603f198982030185528951826060818785019360018060a01b038151168652015193878382015284518094520192019084905b8082106102475750505098810198969594600101930191906101e3565b82516001600160e01b0319168452899493840193909201916001919091019061022a565b81845285842081015494969593946001919061029c906001600160a01b031680610295848c6104d4565b51526104fe565b6102b2866102aa848c6104d4565b510191610537565b90520195939294956101b9565b885196989795968089016001600160401b038111828210176102fa5789528781526060878201528982018701529697949694959487016101ad565b634e487b7160e01b895260418452602489fd5b80fd5b82843461030d578060031936011261030d57815160008051602061071283398151915280548083529083526020939284830192909183907fea73525db802253ed886ed3ccbe11a7ec2ce1b62d18a629b03b8329b76e3efe690845b8181106103c55750505081610381910382610484565b83519485948186019282875251809352850193925b8281106103a557505050500390f35b83516001600160a01b031685528695509381019392810192600101610396565b82546001600160a01b03168452928801926001928301920161036b565b5050346100cf57816003193601126100cf5760209060ff7fc8fcad8db84d3cc18b4c41d551ea0ee66dd599cde068d998e57d5e09332c131c5460081c1690519015158152f35b849084346100cb5760203660031901126100cb5760043563ffffffff60e01b81168091036101565783527fc8fcad8db84d3cc18b4c41d551ea0ee66dd599cde068d998e57d5e09332c1320602090815292205460ff1615158152f35b601f909101601f19168101906001600160401b038211908210176104a757604052565b634e487b7160e01b600052604160045260246000fd5b6001600160401b0381116104a75760051b60200190565b80518210156104e85760209160051b010190565b634e487b7160e01b600052603260045260246000fd5b6001600160a01b031660009081527fc8fcad8db84d3cc18b4c41d551ea0ee66dd599cde068d998e57d5e09332c131e6020526040902090565b9060409160405180938254928383526020918284019160005282600020946000915b81600784011061069a57506105b49554918482821061067c575b82821061065e575b828210610640575b828210610622575b828210610604575b8282106105e6575b8282106105ca575b50106105b6575b5090500383610484565b565b6001600160e01b03191681520180386105aa565b83811b6001600160e01b031916855290930192600101846105a3565b604084901b6001600160e01b0319168552909301926001018461059b565b606084901b6001600160e01b03191685529093019260010184610593565b608084901b6001600160e01b0319168552909301926001018461058b565b60a084901b6001600160e01b03191685529093019260010184610583565b60c084901b6001600160e01b0319168552909301926001018461057b565b60e084901b6001600160e01b03191685529093019260010184610573565b86546001600160e01b031960e082811b8216875260c083811b83168989015260a084811b8416868a0152608085811b85166060808c019190915286901b8516908a015284861b84169089015283891b831690880152911690850152600190960195889550610100909301926008929092019161055956fec8fcad8db84d3cc18b4c41d551ea0ee66dd599cde068d998e57d5e09332c131fa264697066735822122048793dda1b33b2cf3f7b7b69d55907212ffdb32e9d25c592e5dcb0d1b1ef1ab564736f6c63430008160033",
  "linkReferences": {},
  "deployedLinkReferences": {}
}