{
  "_format": "hh-sol-artifact-1",
  "contractName": "TestTermController",
  "sourceName": "contracts/test/TestTermController.sol",
  "abi": [
    {
      "anonymous": false,
      "inputs": [
        {
          "indexed": false,
          "internalType": "address",
          "name": "previousAdmin",
          "type": "address"
        },
        {
          "indexed": false,
          "internalType": "address",
          "name": "newAdmin",
          "type": "address"
        }
      ],
      "name": "AdminChanged",
      "type": "event"
    },
    {
      "anonymous": false,
      "inputs": [
        {
          "indexed": true,
          "internalType": "address",
          "name": "beacon",
          "type": "address"
        }
      ],
      "name": "BeaconUpgraded",
      "type": "event"
    },
    {
      "anonymous": false,
      "inputs": [
        {
          "indexed": false,
          "internalType": "uint8",
          "name": "version",
          "type": "uint8"
        }
      ],
      "name": "Initialized",
      "type": "event"
    },
    {
      "anonymous": false,
      "inputs": [
        {
          "indexed": false,
          "internalType": "address",
          "name": "oldProtocolReserveAddress",
          "type": "address"
        },
        {
          "indexed": false,
          "internalType": "address",
          "name": "newProtocolReserveAddress",
          "type": "address"
        }
      ],
      "name": "ProtocolReserveAddressUpdated",
      "type": "event"
    },
    {
      "anonymous": false,
      "inputs": [
        {
          "indexed": true,
          "internalType": "bytes32",
          "name": "role",
          "type": "bytes32"
        },
        {
          "indexed": true,
          "internalType": "bytes32",
          "name": "previousAdminRole",
          "type": "bytes32"
        },
        {
          "indexed": true,
          "internalType": "bytes32",
          "name": "newAdminRole",
          "type": "bytes32"
        }
      ],
      "name": "RoleAdminChanged",
      "type": "event"
    },
    {
      "anonymous": false,
      "inputs": [
        {
          "indexed": true,
          "internalType": "bytes32",
          "name": "role",
          "type": "bytes32"
        },
        {
          "indexed": true,
          "internalType": "address",
          "name": "account",
          "type": "address"
        },
        {
          "indexed": true,
          "internalType": "address",
          "name": "sender",
          "type": "address"
        }
      ],
      "name": "RoleGranted",
      "type": "event"
    },
    {
      "anonymous": false,
      "inputs": [
        {
          "indexed": true,
          "internalType": "bytes32",
          "name": "role",
          "type": "bytes32"
        },
        {
          "indexed": true,
          "internalType": "address",
          "name": "account",
          "type": "address"
        },
        {
          "indexed": true,
          "internalType": "address",
          "name": "sender",
          "type": "address"
        }
      ],
      "name": "RoleRevoked",
      "type": "event"
    },
    {
      "anonymous": false,
      "inputs": [
        {
          "indexed": false,
          "internalType": "address",
          "name": "oldTreasuryAddress",
          "type": "address"
        },
        {
          "indexed": false,
          "internalType": "address",
          "name": "newTreasuryAddress",
          "type": "address"
        }
      ],
      "name": "TreasuryAddressUpdated",
      "type": "event"
    },
    {
      "anonymous": false,
      "inputs": [
        {
          "indexed": true,
          "internalType": "address",
          "name": "implementation",
          "type": "address"
        }
      ],
      "name": "Upgraded",
      "type": "event"
    },
    {
      "inputs": [],
      "name": "CONTROLLER_ADMIN_ROLE",
      "outputs": [
        {
          "internalType": "bytes32",
          "name": "",
          "type": "bytes32"
        }
      ],
      "stateMutability": "view",
      "type": "function"
    },
    {
      "inputs": [],
      "name": "DEFAULT_ADMIN_ROLE",
      "outputs": [
        {
          "internalType": "bytes32",
          "name": "",
          "type": "bytes32"
        }
      ],
      "stateMutability": "view",
      "type": "function"
    },
    {
      "inputs": [],
      "name": "DEVOPS_ROLE",
      "outputs": [
        {
          "internalType": "bytes32",
          "name": "",
          "type": "bytes32"
        }
      ],
      "stateMutability": "view",
      "type": "function"
    },
    {
      "inputs": [],
      "name": "getProtocolReserveAddress",
      "outputs": [
        {
          "internalType": "address",
          "name": "",
          "type": "address"
        }
      ],
      "stateMutability": "view",
      "type": "function"
    },
    {
      "inputs": [
        {
          "internalType": "bytes32",
          "name": "role",
          "type": "bytes32"
        }
      ],
      "name": "getRoleAdmin",
      "outputs": [
        {
          "internalType": "bytes32",
          "name": "",
          "type": "bytes32"
        }
      ],
      "stateMutability": "view",
      "type": "function"
    },
    {
      "inputs": [],
      "name": "getTreasuryAddress",
      "outputs": [
        {
          "internalType": "address",
          "name": "",
          "type": "address"
        }
      ],
      "stateMutability": "view",
      "type": "function"
    },
    {
      "inputs": [
        {
          "internalType": "bytes32",
          "name": "role",
          "type": "bytes32"
        },
        {
          "internalType": "address",
          "name": "account",
          "type": "address"
        }
      ],
      "name": "grantRole",
      "outputs": [],
      "stateMutability": "nonpayable",
      "type": "function"
    },
    {
      "inputs": [
        {
          "internalType": "bytes32",
          "name": "role",
          "type": "bytes32"
        },
        {
          "internalType": "address",
          "name": "account",
          "type": "address"
        }
      ],
      "name": "hasRole",
      "outputs": [
        {
          "internalType": "bool",
          "name": "",
          "type": "bool"
        }
      ],
      "stateMutability": "view",
      "type": "function"
    },
    {
      "inputs": [
        {
          "internalType": "address",
          "name": "treasuryWallet_",
          "type": "address"
        },
        {
          "internalType": "address",
          "name": "protocolReserveWallet_",
          "type": "address"
        },
        {
          "internalType": "address",
          "name": "controllerAdminWallet_",
          "type": "address"
        },
        {
          "internalType": "address",
          "name": "devopsWallet_",
          "type": "address"
        }
      ],
      "name": "initialize",
      "outputs": [],
      "stateMutability": "nonpayable",
      "type": "function"
    },
    {
      "inputs": [
        {
          "internalType": "address",
          "name": "contractAddress",
          "type": "address"
        }
      ],
      "name": "isTermDeployed",
      "outputs": [
        {
          "internalType": "bool",
          "name": "",
          "type": "bool"
        }
      ],
      "stateMutability": "view",
      "type": "function"
    },
    {
      "inputs": [
        {
          "internalType": "address",
          "name": "termContract",
          "type": "address"
        }
      ],
      "name": "markTermDeployed",
      "outputs": [],
      "stateMutability": "nonpayable",
      "type": "function"
    },
    {
      "inputs": [],
      "name": "proxiableUUID",
      "outputs": [
        {
          "internalType": "bytes32",
          "name": "",
          "type": "bytes32"
        }
      ],
      "stateMutability": "view",
      "type": "function"
    },
    {
      "inputs": [
        {
          "internalType": "bytes32",
          "name": "role",
          "type": "bytes32"
        },
        {
          "internalType": "address",
          "name": "account",
          "type": "address"
        }
      ],
      "name": "renounceRole",
      "outputs": [],
      "stateMutability": "nonpayable",
      "type": "function"
    },
    {
      "inputs": [
        {
          "internalType": "bytes32",
          "name": "role",
          "type": "bytes32"
        },
        {
          "internalType": "address",
          "name": "account",
          "type": "address"
        }
      ],
      "name": "revokeRole",
      "outputs": [],
      "stateMutability": "nonpayable",
      "type": "function"
    },
    {
      "inputs": [
        {
          "internalType": "bytes4",
          "name": "interfaceId",
          "type": "bytes4"
        }
      ],
      "name": "supportsInterface",
      "outputs": [
        {
          "internalType": "bool",
          "name": "",
          "type": "bool"
        }
      ],
      "stateMutability": "view",
      "type": "function"
    },
    {
      "inputs": [
        {
          "internalType": "address",
          "name": "termContract",
          "type": "address"
        }
      ],
      "name": "unmarkTermDeployed",
      "outputs": [],
      "stateMutability": "nonpayable",
      "type": "function"
    },
    {
      "inputs": [
        {
          "internalType": "address",
          "name": "oldControllerAdminWallet",
          "type": "address"
        },
        {
          "internalType": "address",
          "name": "newControllerAdminWallet",
          "type": "address"
        }
      ],
      "name": "updateControllerAdminWallet",
      "outputs": [],
      "stateMutability": "nonpayable",
      "type": "function"
    },
    {
      "inputs": [
        {
          "internalType": "address",
          "name": "newProtocolReserveWallet",
          "type": "address"
        }
      ],
      "name": "updateProtocolReserveAddress",
      "outputs": [],
      "stateMutability": "nonpayable",
      "type": "function"
    },
    {
      "inputs": [
        {
          "internalType": "address",
          "name": "newTreasuryWallet",
          "type": "address"
        }
      ],
      "name": "updateTreasuryAddress",
      "outputs": [],
      "stateMutability": "nonpayable",
      "type": "function"
    },
    {
      "inputs": [
        {
          "internalType": "address",
          "name": "upgradeAddress",
          "type": "address"
        }
      ],
      "name": "upgrade",
      "outputs": [],
      "stateMutability": "view",
      "type": "function"
    },
    {
      "inputs": [
        {
          "internalType": "address",
          "name": "newImplementation",
          "type": "address"
        }
      ],
      "name": "upgradeTo",
      "outputs": [],
      "stateMutability": "nonpayable",
      "type": "function"
    },
    {
      "inputs": [
        {
          "internalType": "address",
          "name": "newImplementation",
          "type": "address"
        },
        {
          "internalType": "bytes",
          "name": "data",
          "type": "bytes"
        }
      ],
      "name": "upgradeToAndCall",
      "outputs": [],
      "stateMutability": "payable",
      "type": "function"
    },
    {
      "inputs": [],
      "name": "version",
      "outputs": [
        {
          "internalType": "string",
          "name": "",
          "type": "string"
        }
      ],
      "stateMutability": "view",
      "type": "function"
    }
  ],
  "bytecode": "0x60a06040523060805234801561001457600080fd5b5061001d610022565b6100e1565b600054610100900460ff161561008e5760405162461bcd60e51b815260206004820152602760248201527f496e697469616c697a61626c653a20636f6e747261637420697320696e697469604482015266616c697a696e6760c81b606482015260840160405180910390fd5b60005460ff908116146100df576000805460ff191660ff9081179091556040519081527f7f26b83ff96e1f2b6a682f133852f6798a09c465da95921460cefb38474024989060200160405180910390a15b565b608051611b486101186000396000818161062201528181610662015281816106e701528181610727015261079f0152611b486000f3fe6080604052600436106101205760003560e01c806352d1902d116100a657806352d1902d146102c357806354fd4d50146102d85780636ca5d56d14610312578063841e45611461033257806391d14854146103525780639e2a204614610372578063a217fddf14610392578063d547741f146103a7578063e0024604146103c7578063e1b961f4146103e5578063e7e4b8db14610405578063f8c8765e1461042557600080fd5b806301ffc9a714610125578063025f1a5e1461015a5780630900f0101461018c578063201a6625146101ae578063248a9ca3146101de57806329392ac71461020e5780632f2ff15d1461022e57806336568abe1461024e5780633659cfe61461026e5780634bb4193c1461028e5780634f1ef286146102b0575b600080fd5b34801561013157600080fd5b50610145610140366004611675565b610445565b60405190151581526020015b60405180910390f35b34801561016657600080fd5b5060fc546001600160a01b03165b6040516001600160a01b039091168152602001610151565b34801561019857600080fd5b506101ac6101a73660046116bb565b61047c565b005b3480156101ba57600080fd5b506101d0600080516020611a8c83398151915281565b604051908152602001610151565b3480156101ea57600080fd5b506101d06101f93660046116d6565b60009081526065602052604090206001015490565b34801561021a57600080fd5b506101ac6102293660046116bb565b610488565b34801561023a57600080fd5b506101ac6102493660046116ef565b610570565b34801561025a57600080fd5b506101ac6102693660046116ef565b61059a565b34801561027a57600080fd5b506101ac6102893660046116bb565b610618565b34801561029a57600080fd5b506101d0600080516020611af383398151915281565b6101ac6102be366004611731565b6106dd565b3480156102cf57600080fd5b506101d0610792565b3480156102e457600080fd5b50604080518082018252600b81526a19195d995b1bdc1b595b9d60aa1b602082015290516101519190611817565b34801561031e57600080fd5b506101ac61032d36600461184a565b610840565b34801561033e57600080fd5b506101ac61034d3660046116bb565b6109e4565b34801561035e57600080fd5b5061014561036d3660046116ef565b610aac565b34801561037e57600080fd5b506101ac61038d3660046116bb565b610ad7565b34801561039e57600080fd5b506101d0600081565b3480156103b357600080fd5b506101ac6103c23660046116ef565b610b68565b3480156103d357600080fd5b5060fb546001600160a01b0316610174565b3480156103f157600080fd5b506101ac6104003660046116bb565b610b8d565b34801561041157600080fd5b506101456104203660046116bb565b610c16565b34801561043157600080fd5b506101ac610440366004611874565b610c21565b60006001600160e01b03198216637965db0b60e01b148061047657506301ffc9a760e01b6001600160e01b03198316145b92915050565b61048581610ef5565b50565b600080516020611a8c8339815191526104a081610f09565b60fc546001600160a01b03908116908316036105115760405162461bcd60e51b815260206004820152602560248201527f4e6f206368616e676520696e2070726f746f636f6c2072657365727665206164604482015264647265737360d81b60648201526084015b60405180910390fd5b60fc80546001600160a01b038481166001600160a01b0319831681179093556040519116917f2d7faa6887bec3599aecfe7648b4488b13aed14af1639d48ff942da0c10c552d916105639184916118c8565b60405180910390a1505050565b60008281526065602052604090206001015461058b81610f09565b6105958383610f13565b505050565b6001600160a01b038116331461060a5760405162461bcd60e51b815260206004820152602f60248201527f416363657373436f6e74726f6c3a2063616e206f6e6c792072656e6f756e636560448201526e103937b632b9903337b91039b2b63360891b6064820152608401610508565b6106148282610f99565b5050565b6001600160a01b037f00000000000000000000000000000000000000000000000000000000000000001630036106605760405162461bcd60e51b8152600401610508906118e2565b7f00000000000000000000000000000000000000000000000000000000000000006001600160a01b0316610692611000565b6001600160a01b0316146106b85760405162461bcd60e51b81526004016105089061192e565b6106c181610ef5565b604080516000808252602082019092526104859183919061101c565b6001600160a01b037f00000000000000000000000000000000000000000000000000000000000000001630036107255760405162461bcd60e51b8152600401610508906118e2565b7f00000000000000000000000000000000000000000000000000000000000000006001600160a01b0316610757611000565b6001600160a01b03161461077d5760405162461bcd60e51b81526004016105089061192e565b61078682610ef5565b6106148282600161101c565b6000306001600160a01b037f0000000000000000000000000000000000000000000000000000000000000000161461082d5760405162461bcd60e51b815260206004820152603860248201527f555550535570677261646561626c653a206d757374206e6f742062652063616c6044820152771b1959081d1a1c9bdd59da0819195b1959d85d1958d85b1b60421b6064820152608401610508565b50600080516020611aac83398151915290565b600080516020611a8c83398151915261085881610f09565b6001600160a01b0383166108c95760405162461bcd60e51b815260206004820152603260248201527f4f6c6420436f6e74726f6c6c65722041646d696e2057616c6c65742063616e6e6044820152716f74206265207a65726f206164647265737360701b6064820152608401610508565b6001600160a01b03821661093a5760405162461bcd60e51b815260206004820152603260248201527f4e657720436f6e74726f6c6c65722041646d696e2057616c6c65742063616e6e6044820152716f74206265207a65726f206164647265737360701b6064820152608401610508565b610952600080516020611af383398151915284610aac565b6109b45760405162461bcd60e51b815260206004820152602d60248201527f696e636f7272656374206f6c6420636f6e74726f6c6c65722061646d696e207760448201526c616c6c6574206164647265737360981b6064820152608401610508565b6109cc600080516020611af383398151915284610f99565b610595600080516020611af383398151915283610f13565b600080516020611a8c8339815191526109fc81610f09565b60fb546001600160a01b0390811690831603610a5a5760405162461bcd60e51b815260206004820152601d60248201527f4e6f206368616e676520696e20747265617375727920616464726573730000006044820152606401610508565b60fb80546001600160a01b038481166001600160a01b0319831681179093556040519116917f430359a6d97ced2b6f93c77a91e7ce9dfd43252eb91e916adba170485cd8a6a4916105639184916118c8565b60009182526065602090815260408084206001600160a01b0393909316845291905290205460ff1690565b600080516020611af3833981519152610aef81610f09565b610af882611187565b15610b435760405162461bcd60e51b815260206004820152601b60248201527a436f6e747261637420697320616c726561647920696e205465726d60281b6044820152606401610508565b506001600160a01b0316600090815260fd60205260409020805460ff19166001179055565b600082815260656020526040902060010154610b8381610f09565b6105958383610f99565b600080516020611af3833981519152610ba581610f09565b610bae82611187565b610bf45760405162461bcd60e51b8152602060048201526017602482015276436f6e7472616374206973206e6f7420696e205465726d60481b6044820152606401610508565b506001600160a01b0316600090815260fd60205260409020805460ff19169055565b600061047682611187565b600054610100900460ff1615808015610c415750600054600160ff909116105b80610c625750610c50306111a5565b158015610c62575060005460ff166001145b610cc55760405162461bcd60e51b815260206004820152602e60248201527f496e697469616c697a61626c653a20636f6e747261637420697320616c72656160448201526d191e481a5b9a5d1a585b1a5e995960921b6064820152608401610508565b6000805460ff191660011790558015610ce8576000805461ff0019166101001790555b610cf06111b4565b610cf86111b4565b6001600160a01b038316610d4e5760405162461bcd60e51b815260206004820181905260248201527f636f6e74726f6c6c65722061646d696e206973207a65726f20616464726573736044820152606401610508565b6001600160a01b038216610da45760405162461bcd60e51b815260206004820152601d60248201527f6465766f70732077616c6c6574206973207a65726f20616464726573730000006044820152606401610508565b610dbc600080516020611af383398151915284610f13565b610dd4600080516020611a8c83398151915283610f13565b6001600160a01b038516610e255760405162461bcd60e51b81526020600482015260186024820152777472656173757279206973207a65726f206164647265737360401b6044820152606401610508565b60fb80546001600160a01b0319166001600160a01b03878116919091179091558416610e8d5760405162461bcd60e51b815260206004820152601760248201527672657365727665206973207a65726f206164647265737360481b6044820152606401610508565b60fc80546001600160a01b0319166001600160a01b0386161790558015610eee576000805461ff0019169055604051600181527f7f26b83ff96e1f2b6a682f133852f6798a09c465da95921460cefb38474024989060200160405180910390a15b5050505050565b600080516020611a8c833981519152610614815b6104858133611221565b610f1d8282610aac565b6106145760008281526065602090815260408083206001600160a01b03851684529091529020805460ff19166001179055610f553390565b6001600160a01b0316816001600160a01b0316837f2f8788117e7eff1d82e926ec794901d17c78024a50270940304540a733656f0d60405160405180910390a45050565b610fa38282610aac565b156106145760008281526065602090815260408083206001600160a01b0385168085529252808320805460ff1916905551339285917ff6391f5c32d9c69d2a47ea670b442974b53935d1edc7fd64eb21e047a839171b9190a45050565b600080516020611aac833981519152546001600160a01b031690565b7f4910fdfa16fed3260ed0e7147f7cc6da11a60208b5b9406d12a635614ffd91435460ff161561104f576105958361127a565b826001600160a01b03166352d1902d6040518163ffffffff1660e01b8152600401602060405180830381865afa9250505080156110a9575060408051601f3d908101601f191682019092526110a69181019061197a565b60015b61110c5760405162461bcd60e51b815260206004820152602e60248201527f45524331393637557067726164653a206e657720696d706c656d656e7461746960448201526d6f6e206973206e6f74205555505360901b6064820152608401610508565b600080516020611aac833981519152811461117b5760405162461bcd60e51b815260206004820152602960248201527f45524331393637557067726164653a20756e737570706f727465642070726f786044820152681a58589b195555525160ba1b6064820152608401610508565b50610595838383611314565b6001600160a01b0316600090815260fd602052604090205460ff1690565b6001600160a01b03163b151590565b600054610100900460ff1661121f5760405162461bcd60e51b815260206004820152602b60248201527f496e697469616c697a61626c653a20636f6e7472616374206973206e6f74206960448201526a6e697469616c697a696e6760a81b6064820152608401610508565b565b61122b8282610aac565b610614576112388161133f565b611243836020611351565b604051602001611254929190611993565b60408051601f198184030181529082905262461bcd60e51b825261050891600401611817565b611283816111a5565b6112e55760405162461bcd60e51b815260206004820152602d60248201527f455243313936373a206e657720696d706c656d656e746174696f6e206973206e60448201526c1bdd08184818dbdb9d1c9858dd609a1b6064820152608401610508565b600080516020611aac83398151915280546001600160a01b0319166001600160a01b0392909216919091179055565b61131d836114f4565b60008251118061132a5750805b15610595576113398383611534565b50505050565b60606104766001600160a01b03831660145b60606000611360836002611a18565b61136b906002611a2f565b67ffffffffffffffff8111156113835761138361171b565b6040519080825280601f01601f1916602001820160405280156113ad576020820181803683370190505b509050600360fc1b816000815181106113c8576113c8611a42565b60200101906001600160f81b031916908160001a905350600f60fb1b816001815181106113f7576113f7611a42565b60200101906001600160f81b031916908160001a905350600061141b846002611a18565b611426906001611a2f565b90505b600181111561149e576f181899199a1a9b1b9c1cb0b131b232b360811b85600f166010811061145a5761145a611a42565b1a60f81b82828151811061147057611470611a42565b60200101906001600160f81b031916908160001a90535060049490941c9361149781611a58565b9050611429565b5083156114ed5760405162461bcd60e51b815260206004820181905260248201527f537472696e67733a20686578206c656e67746820696e73756666696369656e746044820152606401610508565b9392505050565b6114fd8161127a565b6040516001600160a01b038216907fbc7cd75a20ee27fd9adebab32041f755214dbc6bffa90cc0225b39da2e5c2d3b90600090a250565b60606114ed8383604051806060016040528060278152602001611acc602791396060600080856001600160a01b0316856040516115719190611a6f565b600060405180830381855af49150503d80600081146115ac576040519150601f19603f3d011682016040523d82523d6000602084013e6115b1565b606091505b50915091506115c2868383876115cc565b9695505050505050565b60608315611639578251600003611632576115e6856111a5565b6116325760405162461bcd60e51b815260206004820152601d60248201527f416464726573733a2063616c6c20746f206e6f6e2d636f6e74726163740000006044820152606401610508565b5081611643565b611643838361164b565b949350505050565b81511561165b5781518083602001fd5b8060405162461bcd60e51b81526004016105089190611817565b60006020828403121561168757600080fd5b81356001600160e01b0319811681146114ed57600080fd5b80356001600160a01b03811681146116b657600080fd5b919050565b6000602082840312156116cd57600080fd5b6114ed8261169f565b6000602082840312156116e857600080fd5b5035919050565b6000806040838503121561170257600080fd5b823591506117126020840161169f565b90509250929050565b634e487b7160e01b600052604160045260246000fd5b6000806040838503121561174457600080fd5b61174d8361169f565b9150602083013567ffffffffffffffff8082111561176a57600080fd5b818501915085601f83011261177e57600080fd5b8135818111156117905761179061171b565b604051601f8201601f19908116603f011681019083821181831017156117b8576117b861171b565b816040528281528860208487010111156117d157600080fd5b8260208601602083013760006020848301015280955050505050509250929050565b60005b8381101561180e5781810151838201526020016117f6565b50506000910152565b60208152600082518060208401526118368160408501602087016117f3565b601f01601f19169190910160400192915050565b6000806040838503121561185d57600080fd5b6118668361169f565b91506117126020840161169f565b6000806000806080858703121561188a57600080fd5b6118938561169f565b93506118a16020860161169f565b92506118af6040860161169f565b91506118bd6060860161169f565b905092959194509250565b6001600160a01b0392831681529116602082015260400190565b6020808252602c908201527f46756e6374696f6e206d7573742062652063616c6c6564207468726f7567682060408201526b19195b1959d85d1958d85b1b60a21b606082015260800190565b6020808252602c908201527f46756e6374696f6e206d7573742062652063616c6c6564207468726f7567682060408201526b6163746976652070726f787960a01b606082015260800190565b60006020828403121561198c57600080fd5b5051919050565b76020b1b1b2b9b9a1b7b73a3937b61d1030b1b1b7bab73a1604d1b8152600083516119c58160178501602088016117f3565b7001034b99036b4b9b9b4b733903937b6329607d1b60179184019182015283516119f68160288401602088016117f3565b01602801949350505050565b634e487b7160e01b600052601160045260246000fd5b808202811582820484141761047657610476611a02565b8082018082111561047657610476611a02565b634e487b7160e01b600052603260045260246000fd5b600081611a6757611a67611a02565b506000190190565b60008251611a818184602087016117f3565b919091019291505056fe793a6c9b7e0a9549c74edc2f9ae0dc50903dfaa9a56fb0116b27a8c71de3e2c6360894a13ba1a3210667c828492db98dca3e2076cc3735a920a3ca505d382bbc416464726573733a206c6f772d6c6576656c2064656c65676174652063616c6c206661696c65649027349758afcb3649adbc1f090fcd4eb9187cfbbd22483c7d103367d7b50173a26469706673582212207cd586145c930136ea5e374fba3fcfb51f8df80cf971243a46cfdb5e256b5d0d64736f6c63430008120033",
  "linkReferences": {},
  "deployedLinkReferences": {}
}