{
  "_format": "hh-sol-artifact-1",
  "contractName": "TestTermController",
  "sourceName": "contracts/test/TestTermController.sol",
  "abi": [
    {
      "anonymous": false,
      "inputs": [
        {
          "indexed": false,
          "internalType": "address",
          "name": "previousAdmin",
          "type": "address"
        },
        {
          "indexed": false,
          "internalType": "address",
          "name": "newAdmin",
          "type": "address"
        }
      ],
      "name": "AdminChanged",
      "type": "event"
    },
    {
      "anonymous": false,
      "inputs": [
        {
          "indexed": true,
          "internalType": "address",
          "name": "beacon",
          "type": "address"
        }
      ],
      "name": "BeaconUpgraded",
      "type": "event"
    },
    {
      "anonymous": false,
      "inputs": [
        {
          "indexed": false,
          "internalType": "uint8",
          "name": "version",
          "type": "uint8"
        }
      ],
      "name": "Initialized",
      "type": "event"
    },
    {
      "anonymous": false,
      "inputs": [
        {
          "indexed": false,
          "internalType": "address",
          "name": "oldProtocolReserveAddress",
          "type": "address"
        },
        {
          "indexed": false,
          "internalType": "address",
          "name": "newProtocolReserveAddress",
          "type": "address"
        }
      ],
      "name": "ProtocolReserveAddressUpdated",
      "type": "event"
    },
    {
      "anonymous": false,
      "inputs": [
        {
          "indexed": true,
          "internalType": "bytes32",
          "name": "role",
          "type": "bytes32"
        },
        {
          "indexed": true,
          "internalType": "bytes32",
          "name": "previousAdminRole",
          "type": "bytes32"
        },
        {
          "indexed": true,
          "internalType": "bytes32",
          "name": "newAdminRole",
          "type": "bytes32"
        }
      ],
      "name": "RoleAdminChanged",
      "type": "event"
    },
    {
      "anonymous": false,
      "inputs": [
        {
          "indexed": true,
          "internalType": "bytes32",
          "name": "role",
          "type": "bytes32"
        },
        {
          "indexed": true,
          "internalType": "address",
          "name": "account",
          "type": "address"
        },
        {
          "indexed": true,
          "internalType": "address",
          "name": "sender",
          "type": "address"
        }
      ],
      "name": "RoleGranted",
      "type": "event"
    },
    {
      "anonymous": false,
      "inputs": [
        {
          "indexed": true,
          "internalType": "bytes32",
          "name": "role",
          "type": "bytes32"
        },
        {
          "indexed": true,
          "internalType": "address",
          "name": "account",
          "type": "address"
        },
        {
          "indexed": true,
          "internalType": "address",
          "name": "sender",
          "type": "address"
        }
      ],
      "name": "RoleRevoked",
      "type": "event"
    },
    {
      "anonymous": false,
      "inputs": [
        {
          "indexed": false,
          "internalType": "address",
          "name": "oldTreasuryAddress",
          "type": "address"
        },
        {
          "indexed": false,
          "internalType": "address",
          "name": "newTreasuryAddress",
          "type": "address"
        }
      ],
      "name": "TreasuryAddressUpdated",
      "type": "event"
    },
    {
      "anonymous": false,
      "inputs": [
        {
          "indexed": true,
          "internalType": "address",
          "name": "implementation",
          "type": "address"
        }
      ],
      "name": "Upgraded",
      "type": "event"
    },
    {
      "inputs": [],
      "name": "CONTROLLER_ADMIN_ROLE",
      "outputs": [
        {
          "internalType": "bytes32",
          "name": "",
          "type": "bytes32"
        }
      ],
      "stateMutability": "view",
      "type": "function"
    },
    {
      "inputs": [],
      "name": "DEFAULT_ADMIN_ROLE",
      "outputs": [
        {
          "internalType": "bytes32",
          "name": "",
          "type": "bytes32"
        }
      ],
      "stateMutability": "view",
      "type": "function"
    },
    {
      "inputs": [],
      "name": "DEVOPS_ROLE",
      "outputs": [
        {
          "internalType": "bytes32",
          "name": "",
          "type": "bytes32"
        }
      ],
      "stateMutability": "view",
      "type": "function"
    },
    {
      "inputs": [],
      "name": "getProtocolReserveAddress",
      "outputs": [
        {
          "internalType": "address",
          "name": "",
          "type": "address"
        }
      ],
      "stateMutability": "view",
      "type": "function"
    },
    {
      "inputs": [
        {
          "internalType": "bytes32",
          "name": "role",
          "type": "bytes32"
        }
      ],
      "name": "getRoleAdmin",
      "outputs": [
        {
          "internalType": "bytes32",
          "name": "",
          "type": "bytes32"
        }
      ],
      "stateMutability": "view",
      "type": "function"
    },
    {
      "inputs": [],
      "name": "getTreasuryAddress",
      "outputs": [
        {
          "internalType": "address",
          "name": "",
          "type": "address"
        }
      ],
      "stateMutability": "view",
      "type": "function"
    },
    {
      "inputs": [
        {
          "internalType": "bytes32",
          "name": "role",
          "type": "bytes32"
        },
        {
          "internalType": "address",
          "name": "account",
          "type": "address"
        }
      ],
      "name": "grantRole",
      "outputs": [],
      "stateMutability": "nonpayable",
      "type": "function"
    },
    {
      "inputs": [
        {
          "internalType": "bytes32",
          "name": "role",
          "type": "bytes32"
        },
        {
          "internalType": "address",
          "name": "account",
          "type": "address"
        }
      ],
      "name": "hasRole",
      "outputs": [
        {
          "internalType": "bool",
          "name": "",
          "type": "bool"
        }
      ],
      "stateMutability": "view",
      "type": "function"
    },
    {
      "inputs": [
        {
          "internalType": "address",
          "name": "treasuryWallet_",
          "type": "address"
        },
        {
          "internalType": "address",
          "name": "protocolReserveWallet_",
          "type": "address"
        },
        {
          "internalType": "address",
          "name": "controllerAdminWallet_",
          "type": "address"
        },
        {
          "internalType": "address",
          "name": "devopsWallet_",
          "type": "address"
        }
      ],
      "name": "initialize",
      "outputs": [],
      "stateMutability": "nonpayable",
      "type": "function"
    },
    {
      "inputs": [
        {
          "internalType": "address",
          "name": "contractAddress",
          "type": "address"
        }
      ],
      "name": "isTermDeployed",
      "outputs": [
        {
          "internalType": "bool",
          "name": "",
          "type": "bool"
        }
      ],
      "stateMutability": "view",
      "type": "function"
    },
    {
      "inputs": [
        {
          "internalType": "address",
          "name": "termContract",
          "type": "address"
        }
      ],
      "name": "markTermDeployed",
      "outputs": [],
      "stateMutability": "nonpayable",
      "type": "function"
    },
    {
      "inputs": [],
      "name": "proxiableUUID",
      "outputs": [
        {
          "internalType": "bytes32",
          "name": "",
          "type": "bytes32"
        }
      ],
      "stateMutability": "view",
      "type": "function"
    },
    {
      "inputs": [
        {
          "internalType": "bytes32",
          "name": "role",
          "type": "bytes32"
        },
        {
          "internalType": "address",
          "name": "account",
          "type": "address"
        }
      ],
      "name": "renounceRole",
      "outputs": [],
      "stateMutability": "nonpayable",
      "type": "function"
    },
    {
      "inputs": [
        {
          "internalType": "bytes32",
          "name": "role",
          "type": "bytes32"
        },
        {
          "internalType": "address",
          "name": "account",
          "type": "address"
        }
      ],
      "name": "revokeRole",
      "outputs": [],
      "stateMutability": "nonpayable",
      "type": "function"
    },
    {
      "inputs": [
        {
          "internalType": "bytes4",
          "name": "interfaceId",
          "type": "bytes4"
        }
      ],
      "name": "supportsInterface",
      "outputs": [
        {
          "internalType": "bool",
          "name": "",
          "type": "bool"
        }
      ],
      "stateMutability": "view",
      "type": "function"
    },
    {
      "inputs": [
        {
          "internalType": "address",
          "name": "termContract",
          "type": "address"
        }
      ],
      "name": "unmarkTermDeployed",
      "outputs": [],
      "stateMutability": "nonpayable",
      "type": "function"
    },
    {
      "inputs": [
        {
          "internalType": "address",
          "name": "oldControllerAdminWallet",
          "type": "address"
        },
        {
          "internalType": "address",
          "name": "newControllerAdminWallet",
          "type": "address"
        }
      ],
      "name": "updateControllerAdminWallet",
      "outputs": [],
      "stateMutability": "nonpayable",
      "type": "function"
    },
    {
      "inputs": [
        {
          "internalType": "address",
          "name": "newProtocolReserveWallet",
          "type": "address"
        }
      ],
      "name": "updateProtocolReserveAddress",
      "outputs": [],
      "stateMutability": "nonpayable",
      "type": "function"
    },
    {
      "inputs": [
        {
          "internalType": "address",
          "name": "newTreasuryWallet",
          "type": "address"
        }
      ],
      "name": "updateTreasuryAddress",
      "outputs": [],
      "stateMutability": "nonpayable",
      "type": "function"
    },
    {
      "inputs": [
        {
          "internalType": "address",
          "name": "upgradeAddress",
          "type": "address"
        }
      ],
      "name": "upgrade",
      "outputs": [],
      "stateMutability": "view",
      "type": "function"
    },
    {
      "inputs": [
        {
          "internalType": "address",
          "name": "newImplementation",
          "type": "address"
        }
      ],
      "name": "upgradeTo",
      "outputs": [],
      "stateMutability": "nonpayable",
      "type": "function"
    },
    {
      "inputs": [
        {
          "internalType": "address",
          "name": "newImplementation",
          "type": "address"
        },
        {
          "internalType": "bytes",
          "name": "data",
          "type": "bytes"
        }
      ],
      "name": "upgradeToAndCall",
      "outputs": [],
      "stateMutability": "payable",
      "type": "function"
    },
    {
      "inputs": [],
      "name": "version",
      "outputs": [
        {
          "internalType": "string",
          "name": "",
          "type": "string"
        }
      ],
      "stateMutability": "view",
      "type": "function"
    }
  ],
  "bytecode": "0x60a06040523060805234801561001457600080fd5b5061001d610022565b6100e1565b600054610100900460ff161561008e5760405162461bcd60e51b815260206004820152602760248201527f496e697469616c697a61626c653a20636f6e747261637420697320696e697469604482015266616c697a696e6760c81b606482015260840160405180910390fd5b60005460ff908116146100df576000805460ff191660ff9081179091556040519081527f7f26b83ff96e1f2b6a682f133852f6798a09c465da95921460cefb38474024989060200160405180910390a15b565b608051611a9c6101186000396000818161062201528181610662015281816106e701528181610727015261079f0152611a9c6000f3fe6080604052600436106101205760003560e01c806352d1902d116100a657806352d1902d146102c357806354fd4d50146102d85780636ca5d56d14610312578063841e45611461033257806391d14854146103525780639e2a204614610372578063a217fddf14610392578063d547741f146103a7578063e0024604146103c7578063e1b961f4146103e5578063e7e4b8db14610405578063f8c8765e1461042557600080fd5b806301ffc9a714610125578063025f1a5e1461015a5780630900f0101461018c578063201a6625146101ae578063248a9ca3146101de57806329392ac71461020e5780632f2ff15d1461022e57806336568abe1461024e5780633659cfe61461026e5780634bb4193c1461028e5780634f1ef286146102b0575b600080fd5b34801561013157600080fd5b506101456101403660046115c9565b610445565b60405190151581526020015b60405180910390f35b34801561016657600080fd5b5060fc546001600160a01b03165b6040516001600160a01b039091168152602001610151565b34801561019857600080fd5b506101ac6101a736600461160f565b61047c565b005b3480156101ba57600080fd5b506101d06000805160206119e083398151915281565b604051908152602001610151565b3480156101ea57600080fd5b506101d06101f936600461162a565b60009081526065602052604090206001015490565b34801561021a57600080fd5b506101ac61022936600461160f565b610488565b34801561023a57600080fd5b506101ac610249366004611643565b610570565b34801561025a57600080fd5b506101ac610269366004611643565b61059a565b34801561027a57600080fd5b506101ac61028936600461160f565b610618565b34801561029a57600080fd5b506101d0600080516020611a4783398151915281565b6101ac6102be366004611685565b6106dd565b3480156102cf57600080fd5b506101d0610792565b3480156102e457600080fd5b50604080518082018252600b81526a19195d995b1bdc1b595b9d60aa1b60208201529051610151919061176b565b34801561031e57600080fd5b506101ac61032d36600461179e565b610840565b34801561033e57600080fd5b506101ac61034d36600461160f565b6109e4565b34801561035e57600080fd5b5061014561036d366004611643565b610aac565b34801561037e57600080fd5b506101ac61038d36600461160f565b610ad7565b34801561039e57600080fd5b506101d0600081565b3480156103b357600080fd5b506101ac6103c2366004611643565b610b68565b3480156103d357600080fd5b5060fb546001600160a01b0316610174565b3480156103f157600080fd5b506101ac61040036600461160f565b610b8d565b34801561041157600080fd5b5061014561042036600461160f565b610c16565b34801561043157600080fd5b506101ac6104403660046117c8565b610c21565b60006001600160e01b03198216637965db0b60e01b148061047657506301ffc9a760e01b6001600160e01b03198316145b92915050565b61048581610e49565b50565b6000805160206119e08339815191526104a081610e5d565b60fc546001600160a01b03908116908316036105115760405162461bcd60e51b815260206004820152602560248201527f4e6f206368616e676520696e2070726f746f636f6c2072657365727665206164604482015264647265737360d81b60648201526084015b60405180910390fd5b60fc80546001600160a01b038481166001600160a01b0319831681179093556040519116917f2d7faa6887bec3599aecfe7648b4488b13aed14af1639d48ff942da0c10c552d9161056391849161181c565b60405180910390a1505050565b60008281526065602052604090206001015461058b81610e5d565b6105958383610e67565b505050565b6001600160a01b038116331461060a5760405162461bcd60e51b815260206004820152602f60248201527f416363657373436f6e74726f6c3a2063616e206f6e6c792072656e6f756e636560448201526e103937b632b9903337b91039b2b63360891b6064820152608401610508565b6106148282610eed565b5050565b6001600160a01b037f00000000000000000000000000000000000000000000000000000000000000001630036106605760405162461bcd60e51b815260040161050890611836565b7f00000000000000000000000000000000000000000000000000000000000000006001600160a01b0316610692610f54565b6001600160a01b0316146106b85760405162461bcd60e51b815260040161050890611882565b6106c181610e49565b6040805160008082526020820190925261048591839190610f70565b6001600160a01b037f00000000000000000000000000000000000000000000000000000000000000001630036107255760405162461bcd60e51b815260040161050890611836565b7f00000000000000000000000000000000000000000000000000000000000000006001600160a01b0316610757610f54565b6001600160a01b03161461077d5760405162461bcd60e51b815260040161050890611882565b61078682610e49565b61061482826001610f70565b6000306001600160a01b037f0000000000000000000000000000000000000000000000000000000000000000161461082d5760405162461bcd60e51b815260206004820152603860248201527f555550535570677261646561626c653a206d757374206e6f742062652063616c6044820152771b1959081d1a1c9bdd59da0819195b1959d85d1958d85b1b60421b6064820152608401610508565b50600080516020611a0083398151915290565b6000805160206119e083398151915261085881610e5d565b6001600160a01b0383166108c95760405162461bcd60e51b815260206004820152603260248201527f4f6c6420436f6e74726f6c6c65722041646d696e2057616c6c65742063616e6e6044820152716f74206265207a65726f206164647265737360701b6064820152608401610508565b6001600160a01b03821661093a5760405162461bcd60e51b815260206004820152603260248201527f4e657720436f6e74726f6c6c65722041646d696e2057616c6c65742063616e6e6044820152716f74206265207a65726f206164647265737360701b6064820152608401610508565b610952600080516020611a4783398151915284610aac565b6109b45760405162461bcd60e51b815260206004820152602d60248201527f696e636f7272656374206f6c6420636f6e74726f6c6c65722061646d696e207760448201526c616c6c6574206164647265737360981b6064820152608401610508565b6109cc600080516020611a4783398151915284610eed565b610595600080516020611a4783398151915283610e67565b6000805160206119e08339815191526109fc81610e5d565b60fb546001600160a01b0390811690831603610a5a5760405162461bcd60e51b815260206004820152601d60248201527f4e6f206368616e676520696e20747265617375727920616464726573730000006044820152606401610508565b60fb80546001600160a01b038481166001600160a01b0319831681179093556040519116917f430359a6d97ced2b6f93c77a91e7ce9dfd43252eb91e916adba170485cd8a6a49161056391849161181c565b60009182526065602090815260408084206001600160a01b0393909316845291905290205460ff1690565b600080516020611a47833981519152610aef81610e5d565b610af8826110db565b15610b435760405162461bcd60e51b815260206004820152601b60248201527a436f6e747261637420697320616c726561647920696e205465726d60281b6044820152606401610508565b506001600160a01b0316600090815260fd60205260409020805460ff19166001179055565b600082815260656020526040902060010154610b8381610e5d565b6105958383610eed565b600080516020611a47833981519152610ba581610e5d565b610bae826110db565b610bf45760405162461bcd60e51b8152602060048201526017602482015276436f6e7472616374206973206e6f7420696e205465726d60481b6044820152606401610508565b506001600160a01b0316600090815260fd60205260409020805460ff19169055565b6000610476826110db565b600054610100900460ff1615808015610c415750600054600160ff909116105b80610c625750610c50306110f9565b158015610c62575060005460ff166001145b610cc55760405162461bcd60e51b815260206004820152602e60248201527f496e697469616c697a61626c653a20636f6e747261637420697320616c72656160448201526d191e481a5b9a5d1a585b1a5e995960921b6064820152608401610508565b6000805460ff191660011790558015610ce8576000805461ff0019166101001790555b610cf0611108565b610cf8611108565b610d10600080516020611a4783398151915284610e67565b610d286000805160206119e083398151915283610e67565b6001600160a01b038516610d795760405162461bcd60e51b81526020600482015260186024820152777472656173757279206973207a65726f206164647265737360401b6044820152606401610508565b60fb80546001600160a01b0319166001600160a01b03878116919091179091558416610de15760405162461bcd60e51b815260206004820152601760248201527672657365727665206973207a65726f206164647265737360481b6044820152606401610508565b60fc80546001600160a01b0319166001600160a01b0386161790558015610e42576000805461ff0019169055604051600181527f7f26b83ff96e1f2b6a682f133852f6798a09c465da95921460cefb38474024989060200160405180910390a15b5050505050565b6000805160206119e0833981519152610614815b6104858133611175565b610e718282610aac565b6106145760008281526065602090815260408083206001600160a01b03851684529091529020805460ff19166001179055610ea93390565b6001600160a01b0316816001600160a01b0316837f2f8788117e7eff1d82e926ec794901d17c78024a50270940304540a733656f0d60405160405180910390a45050565b610ef78282610aac565b156106145760008281526065602090815260408083206001600160a01b0385168085529252808320805460ff1916905551339285917ff6391f5c32d9c69d2a47ea670b442974b53935d1edc7fd64eb21e047a839171b9190a45050565b600080516020611a00833981519152546001600160a01b031690565b7f4910fdfa16fed3260ed0e7147f7cc6da11a60208b5b9406d12a635614ffd91435460ff1615610fa357610595836111ce565b826001600160a01b03166352d1902d6040518163ffffffff1660e01b8152600401602060405180830381865afa925050508015610ffd575060408051601f3d908101601f19168201909252610ffa918101906118ce565b60015b6110605760405162461bcd60e51b815260206004820152602e60248201527f45524331393637557067726164653a206e657720696d706c656d656e7461746960448201526d6f6e206973206e6f74205555505360901b6064820152608401610508565b600080516020611a0083398151915281146110cf5760405162461bcd60e51b815260206004820152602960248201527f45524331393637557067726164653a20756e737570706f727465642070726f786044820152681a58589b195555525160ba1b6064820152608401610508565b50610595838383611268565b6001600160a01b0316600090815260fd602052604090205460ff1690565b6001600160a01b03163b151590565b600054610100900460ff166111735760405162461bcd60e51b815260206004820152602b60248201527f496e697469616c697a61626c653a20636f6e7472616374206973206e6f74206960448201526a6e697469616c697a696e6760a81b6064820152608401610508565b565b61117f8282610aac565b6106145761118c81611293565b6111978360206112a5565b6040516020016111a89291906118e7565b60408051601f198184030181529082905262461bcd60e51b82526105089160040161176b565b6111d7816110f9565b6112395760405162461bcd60e51b815260206004820152602d60248201527f455243313936373a206e657720696d706c656d656e746174696f6e206973206e60448201526c1bdd08184818dbdb9d1c9858dd609a1b6064820152608401610508565b600080516020611a0083398151915280546001600160a01b0319166001600160a01b0392909216919091179055565b61127183611448565b60008251118061127e5750805b156105955761128d8383611488565b50505050565b60606104766001600160a01b03831660145b606060006112b483600261196c565b6112bf906002611983565b67ffffffffffffffff8111156112d7576112d761166f565b6040519080825280601f01601f191660200182016040528015611301576020820181803683370190505b509050600360fc1b8160008151811061131c5761131c611996565b60200101906001600160f81b031916908160001a905350600f60fb1b8160018151811061134b5761134b611996565b60200101906001600160f81b031916908160001a905350600061136f84600261196c565b61137a906001611983565b90505b60018111156113f2576f181899199a1a9b1b9c1cb0b131b232b360811b85600f16601081106113ae576113ae611996565b1a60f81b8282815181106113c4576113c4611996565b60200101906001600160f81b031916908160001a90535060049490941c936113eb816119ac565b905061137d565b5083156114415760405162461bcd60e51b815260206004820181905260248201527f537472696e67733a20686578206c656e67746820696e73756666696369656e746044820152606401610508565b9392505050565b611451816111ce565b6040516001600160a01b038216907fbc7cd75a20ee27fd9adebab32041f755214dbc6bffa90cc0225b39da2e5c2d3b90600090a250565b60606114418383604051806060016040528060278152602001611a20602791396060600080856001600160a01b0316856040516114c591906119c3565b600060405180830381855af49150503d8060008114611500576040519150601f19603f3d011682016040523d82523d6000602084013e611505565b606091505b509150915061151686838387611520565b9695505050505050565b6060831561158d5782516000036115865761153a856110f9565b6115865760405162461bcd60e51b815260206004820152601d60248201527f416464726573733a2063616c6c20746f206e6f6e2d636f6e74726163740000006044820152606401610508565b5081611597565b611597838361159f565b949350505050565b8151156115af5781518083602001fd5b8060405162461bcd60e51b8152600401610508919061176b565b6000602082840312156115db57600080fd5b81356001600160e01b03198116811461144157600080fd5b80356001600160a01b038116811461160a57600080fd5b919050565b60006020828403121561162157600080fd5b611441826115f3565b60006020828403121561163c57600080fd5b5035919050565b6000806040838503121561165657600080fd5b82359150611666602084016115f3565b90509250929050565b634e487b7160e01b600052604160045260246000fd5b6000806040838503121561169857600080fd5b6116a1836115f3565b9150602083013567ffffffffffffffff808211156116be57600080fd5b818501915085601f8301126116d257600080fd5b8135818111156116e4576116e461166f565b604051601f8201601f19908116603f0116810190838211818310171561170c5761170c61166f565b8160405282815288602084870101111561172557600080fd5b8260208601602083013760006020848301015280955050505050509250929050565b60005b8381101561176257818101518382015260200161174a565b50506000910152565b602081526000825180602084015261178a816040850160208701611747565b601f01601f19169190910160400192915050565b600080604083850312156117b157600080fd5b6117ba836115f3565b9150611666602084016115f3565b600080600080608085870312156117de57600080fd5b6117e7856115f3565b93506117f5602086016115f3565b9250611803604086016115f3565b9150611811606086016115f3565b905092959194509250565b6001600160a01b0392831681529116602082015260400190565b6020808252602c908201527f46756e6374696f6e206d7573742062652063616c6c6564207468726f7567682060408201526b19195b1959d85d1958d85b1b60a21b606082015260800190565b6020808252602c908201527f46756e6374696f6e206d7573742062652063616c6c6564207468726f7567682060408201526b6163746976652070726f787960a01b606082015260800190565b6000602082840312156118e057600080fd5b5051919050565b76020b1b1b2b9b9a1b7b73a3937b61d1030b1b1b7bab73a1604d1b815260008351611919816017850160208801611747565b7001034b99036b4b9b9b4b733903937b6329607d1b601791840191820152835161194a816028840160208801611747565b01602801949350505050565b634e487b7160e01b600052601160045260246000fd5b808202811582820484141761047657610476611956565b8082018082111561047657610476611956565b634e487b7160e01b600052603260045260246000fd5b6000816119bb576119bb611956565b506000190190565b600082516119d5818460208701611747565b919091019291505056fe793a6c9b7e0a9549c74edc2f9ae0dc50903dfaa9a56fb0116b27a8c71de3e2c6360894a13ba1a3210667c828492db98dca3e2076cc3735a920a3ca505d382bbc416464726573733a206c6f772d6c6576656c2064656c65676174652063616c6c206661696c65649027349758afcb3649adbc1f090fcd4eb9187cfbbd22483c7d103367d7b50173a264697066735822122014f9f754e6dc0c103c10110ac2f7a0622bc76ae95b8b3851690e708f0c8aa54964736f6c63430008120033",
  "linkReferences": {},
  "deployedLinkReferences": {}
}