{
  "_format": "hh-sol-artifact-1",
  "contractName": "TestTermController",
  "sourceName": "contracts/test/TestTermController.sol",
  "abi": [
    {
      "anonymous": false,
      "inputs": [
        {
          "indexed": false,
          "internalType": "address",
          "name": "previousAdmin",
          "type": "address"
        },
        {
          "indexed": false,
          "internalType": "address",
          "name": "newAdmin",
          "type": "address"
        }
      ],
      "name": "AdminChanged",
      "type": "event"
    },
    {
      "anonymous": false,
      "inputs": [
        {
          "indexed": true,
          "internalType": "address",
          "name": "beacon",
          "type": "address"
        }
      ],
      "name": "BeaconUpgraded",
      "type": "event"
    },
    {
      "anonymous": false,
      "inputs": [
        {
          "indexed": false,
          "internalType": "uint8",
          "name": "version",
          "type": "uint8"
        }
      ],
      "name": "Initialized",
      "type": "event"
    },
    {
      "anonymous": false,
      "inputs": [
        {
          "indexed": false,
          "internalType": "address",
          "name": "oldProtocolReserveAddress",
          "type": "address"
        },
        {
          "indexed": false,
          "internalType": "address",
          "name": "newProtocolReserveAddress",
          "type": "address"
        }
      ],
      "name": "ProtocolReserveAddressUpdated",
      "type": "event"
    },
    {
      "anonymous": false,
      "inputs": [
        {
          "indexed": true,
          "internalType": "bytes32",
          "name": "role",
          "type": "bytes32"
        },
        {
          "indexed": true,
          "internalType": "bytes32",
          "name": "previousAdminRole",
          "type": "bytes32"
        },
        {
          "indexed": true,
          "internalType": "bytes32",
          "name": "newAdminRole",
          "type": "bytes32"
        }
      ],
      "name": "RoleAdminChanged",
      "type": "event"
    },
    {
      "anonymous": false,
      "inputs": [
        {
          "indexed": true,
          "internalType": "bytes32",
          "name": "role",
          "type": "bytes32"
        },
        {
          "indexed": true,
          "internalType": "address",
          "name": "account",
          "type": "address"
        },
        {
          "indexed": true,
          "internalType": "address",
          "name": "sender",
          "type": "address"
        }
      ],
      "name": "RoleGranted",
      "type": "event"
    },
    {
      "anonymous": false,
      "inputs": [
        {
          "indexed": true,
          "internalType": "bytes32",
          "name": "role",
          "type": "bytes32"
        },
        {
          "indexed": true,
          "internalType": "address",
          "name": "account",
          "type": "address"
        },
        {
          "indexed": true,
          "internalType": "address",
          "name": "sender",
          "type": "address"
        }
      ],
      "name": "RoleRevoked",
      "type": "event"
    },
    {
      "anonymous": false,
      "inputs": [
        {
          "indexed": false,
          "internalType": "address",
          "name": "oldTreasuryAddress",
          "type": "address"
        },
        {
          "indexed": false,
          "internalType": "address",
          "name": "newTreasuryAddress",
          "type": "address"
        }
      ],
      "name": "TreasuryAddressUpdated",
      "type": "event"
    },
    {
      "anonymous": false,
      "inputs": [
        {
          "indexed": true,
          "internalType": "address",
          "name": "implementation",
          "type": "address"
        }
      ],
      "name": "Upgraded",
      "type": "event"
    },
    {
      "inputs": [],
      "name": "CONTROLLER_ADMIN_ROLE",
      "outputs": [
        {
          "internalType": "bytes32",
          "name": "",
          "type": "bytes32"
        }
      ],
      "stateMutability": "view",
      "type": "function"
    },
    {
      "inputs": [],
      "name": "DEFAULT_ADMIN_ROLE",
      "outputs": [
        {
          "internalType": "bytes32",
          "name": "",
          "type": "bytes32"
        }
      ],
      "stateMutability": "view",
      "type": "function"
    },
    {
      "inputs": [],
      "name": "DEVOPS_ROLE",
      "outputs": [
        {
          "internalType": "bytes32",
          "name": "",
          "type": "bytes32"
        }
      ],
      "stateMutability": "view",
      "type": "function"
    },
    {
      "inputs": [],
      "name": "EVERGREEN_MANAGEMENT_ROLE",
      "outputs": [
        {
          "internalType": "bytes32",
          "name": "",
          "type": "bytes32"
        }
      ],
      "stateMutability": "view",
      "type": "function"
    },
    {
      "inputs": [],
      "name": "getProtocolReserveAddress",
      "outputs": [
        {
          "internalType": "address",
          "name": "",
          "type": "address"
        }
      ],
      "stateMutability": "view",
      "type": "function"
    },
    {
      "inputs": [
        {
          "internalType": "bytes32",
          "name": "role",
          "type": "bytes32"
        }
      ],
      "name": "getRoleAdmin",
      "outputs": [
        {
          "internalType": "bytes32",
          "name": "",
          "type": "bytes32"
        }
      ],
      "stateMutability": "view",
      "type": "function"
    },
    {
      "inputs": [],
      "name": "getTreasuryAddress",
      "outputs": [
        {
          "internalType": "address",
          "name": "",
          "type": "address"
        }
      ],
      "stateMutability": "view",
      "type": "function"
    },
    {
      "inputs": [
        {
          "internalType": "bytes32",
          "name": "role",
          "type": "bytes32"
        },
        {
          "internalType": "address",
          "name": "account",
          "type": "address"
        }
      ],
      "name": "grantRole",
      "outputs": [],
      "stateMutability": "nonpayable",
      "type": "function"
    },
    {
      "inputs": [
        {
          "internalType": "bytes32",
          "name": "role",
          "type": "bytes32"
        },
        {
          "internalType": "address",
          "name": "account",
          "type": "address"
        }
      ],
      "name": "hasRole",
      "outputs": [
        {
          "internalType": "bool",
          "name": "",
          "type": "bool"
        }
      ],
      "stateMutability": "view",
      "type": "function"
    },
    {
      "inputs": [
        {
          "internalType": "address",
          "name": "treasuryWallet_",
          "type": "address"
        },
        {
          "internalType": "address",
          "name": "protocolReserveWallet_",
          "type": "address"
        },
        {
          "internalType": "address",
          "name": "controllerAdminWallet_",
          "type": "address"
        },
        {
          "internalType": "address",
          "name": "devopsWallet_",
          "type": "address"
        },
        {
          "internalType": "address",
          "name": "evergreenManagementWallet_",
          "type": "address"
        }
      ],
      "name": "initialize",
      "outputs": [],
      "stateMutability": "nonpayable",
      "type": "function"
    },
    {
      "inputs": [
        {
          "internalType": "address",
          "name": "contractAddress",
          "type": "address"
        }
      ],
      "name": "isTermDeployed",
      "outputs": [
        {
          "internalType": "bool",
          "name": "",
          "type": "bool"
        }
      ],
      "stateMutability": "view",
      "type": "function"
    },
    {
      "inputs": [
        {
          "internalType": "address",
          "name": "termContract",
          "type": "address"
        }
      ],
      "name": "markTermDeployed",
      "outputs": [],
      "stateMutability": "nonpayable",
      "type": "function"
    },
    {
      "inputs": [],
      "name": "proxiableUUID",
      "outputs": [
        {
          "internalType": "bytes32",
          "name": "",
          "type": "bytes32"
        }
      ],
      "stateMutability": "view",
      "type": "function"
    },
    {
      "inputs": [
        {
          "internalType": "bytes32",
          "name": "role",
          "type": "bytes32"
        },
        {
          "internalType": "address",
          "name": "account",
          "type": "address"
        }
      ],
      "name": "renounceRole",
      "outputs": [],
      "stateMutability": "nonpayable",
      "type": "function"
    },
    {
      "inputs": [
        {
          "internalType": "bytes32",
          "name": "role",
          "type": "bytes32"
        },
        {
          "internalType": "address",
          "name": "account",
          "type": "address"
        }
      ],
      "name": "revokeRole",
      "outputs": [],
      "stateMutability": "nonpayable",
      "type": "function"
    },
    {
      "inputs": [
        {
          "internalType": "bytes4",
          "name": "interfaceId",
          "type": "bytes4"
        }
      ],
      "name": "supportsInterface",
      "outputs": [
        {
          "internalType": "bool",
          "name": "",
          "type": "bool"
        }
      ],
      "stateMutability": "view",
      "type": "function"
    },
    {
      "inputs": [
        {
          "internalType": "address",
          "name": "termContract",
          "type": "address"
        }
      ],
      "name": "unmarkTermDeployed",
      "outputs": [],
      "stateMutability": "nonpayable",
      "type": "function"
    },
    {
      "inputs": [
        {
          "internalType": "address",
          "name": "oldControllerAdminWallet",
          "type": "address"
        },
        {
          "internalType": "address",
          "name": "newControllerAdminWallet",
          "type": "address"
        }
      ],
      "name": "updateControllerAdminWallet",
      "outputs": [],
      "stateMutability": "nonpayable",
      "type": "function"
    },
    {
      "inputs": [
        {
          "internalType": "address",
          "name": "newProtocolReserveWallet",
          "type": "address"
        }
      ],
      "name": "updateProtocolReserveAddress",
      "outputs": [],
      "stateMutability": "nonpayable",
      "type": "function"
    },
    {
      "inputs": [
        {
          "internalType": "address",
          "name": "newTreasuryWallet",
          "type": "address"
        }
      ],
      "name": "updateTreasuryAddress",
      "outputs": [],
      "stateMutability": "nonpayable",
      "type": "function"
    },
    {
      "inputs": [
        {
          "internalType": "address",
          "name": "upgradeAddress",
          "type": "address"
        }
      ],
      "name": "upgrade",
      "outputs": [],
      "stateMutability": "view",
      "type": "function"
    },
    {
      "inputs": [
        {
          "internalType": "address",
          "name": "newImplementation",
          "type": "address"
        }
      ],
      "name": "upgradeTo",
      "outputs": [],
      "stateMutability": "nonpayable",
      "type": "function"
    },
    {
      "inputs": [
        {
          "internalType": "address",
          "name": "newImplementation",
          "type": "address"
        },
        {
          "internalType": "bytes",
          "name": "data",
          "type": "bytes"
        }
      ],
      "name": "upgradeToAndCall",
      "outputs": [],
      "stateMutability": "payable",
      "type": "function"
    },
    {
      "inputs": [],
      "name": "version",
      "outputs": [
        {
          "internalType": "string",
          "name": "",
          "type": "string"
        }
      ],
      "stateMutability": "view",
      "type": "function"
    }
  ],
  "bytecode": "0x60a06040523060805234801561001457600080fd5b5061001d610022565b6100e1565b600054610100900460ff161561008e5760405162461bcd60e51b815260206004820152602760248201527f496e697469616c697a61626c653a20636f6e747261637420697320696e697469604482015266616c697a696e6760c81b606482015260840160405180910390fd5b60005460ff908116146100df576000805460ff191660ff9081179091556040519081527f7f26b83ff96e1f2b6a682f133852f6798a09c465da95921460cefb38474024989060200160405180910390a15b565b608051611b1761011860003960008181610890015281816108d001528181610955015281816109950152610a0d0152611b176000f3fe60806040526004361061012b5760003560e01c80634f1ef286116100a65780634f1ef286146102fd57806352d1902d1461031057806354fd4d50146103255780636ca5d56d1461035f578063841e45611461037f57806391d148541461039f5780639e2a2046146103bf578063a217fddf146103df578063d547741f146103f4578063e002460414610414578063e1b961f414610432578063e7e4b8db1461045257600080fd5b806301ffc9a714610130578063025f1a5e146101655780630900f010146101975780631459457a146101b9578063201a6625146101d9578063248a9ca31461020957806329392ac7146102395780632f2ff15d14610259578063351857311461027957806336568abe1461029b5780633659cfe6146102bb5780634bb4193c146102db575b600080fd5b34801561013c57600080fd5b5061015061014b366004611613565b610472565b60405190151581526020015b60405180910390f35b34801561017157600080fd5b5060fc546001600160a01b03165b6040516001600160a01b03909116815260200161015c565b3480156101a357600080fd5b506101b76101b2366004611659565b6104a9565b005b3480156101c557600080fd5b506101b76101d4366004611674565b6104b5565b3480156101e557600080fd5b506101fb600080516020611a3b83398151915281565b60405190815260200161015c565b34801561021557600080fd5b506101fb6102243660046116d9565b60009081526065602052604090206001015490565b34801561024557600080fd5b506101b7610254366004611659565b6106fb565b34801561026557600080fd5b506101b76102743660046116f2565b6107de565b34801561028557600080fd5b506101fb600080516020611a7b83398151915281565b3480156102a757600080fd5b506101b76102b63660046116f2565b610808565b3480156102c757600080fd5b506101b76102d6366004611659565b610886565b3480156102e757600080fd5b506101fb600080516020611ac283398151915281565b6101b761030b366004611734565b61094b565b34801561031c57600080fd5b506101fb610a00565b34801561033157600080fd5b50604080518082018252600b81526a19195d995b1bdc1b595b9d60aa1b6020820152905161015c919061181a565b34801561036b57600080fd5b506101b761037a36600461184d565b610aae565b34801561038b57600080fd5b506101b761039a366004611659565b610c52565b3480156103ab57600080fd5b506101506103ba3660046116f2565b610d1a565b3480156103cb57600080fd5b506101b76103da366004611659565b610d45565b3480156103eb57600080fd5b506101fb600081565b34801561040057600080fd5b506101b761040f3660046116f2565b610dd6565b34801561042057600080fd5b5060fb546001600160a01b031661017f565b34801561043e57600080fd5b506101b761044d366004611659565b610dfb565b34801561045e57600080fd5b5061015061046d366004611659565b610e84565b60006001600160e01b03198216637965db0b60e01b14806104a357506301ffc9a760e01b6001600160e01b03198316145b92915050565b6104b281610e8f565b50565b600054610100900460ff16158080156104d55750600054600160ff909116105b806104f657506104e430610ea7565b1580156104f6575060005460ff166001145b61055e5760405162461bcd60e51b815260206004820152602e60248201527f496e697469616c697a61626c653a20636f6e747261637420697320616c72656160448201526d191e481a5b9a5d1a585b1a5e995960921b60648201526084015b60405180910390fd5b6000805460ff191660011790558015610581576000805461ff0019166101001790555b610589610eb6565b610591610eb6565b6105a9600080516020611ac283398151915285610f23565b6105c1600080516020611a3b83398151915284610f23565b6105d9600080516020611a7b83398151915283610f23565b6001600160a01b03861661062a5760405162461bcd60e51b81526020600482015260186024820152777472656173757279206973207a65726f206164647265737360401b6044820152606401610555565b60fb80546001600160a01b0319166001600160a01b038881169190911790915585166106925760405162461bcd60e51b815260206004820152601760248201527672657365727665206973207a65726f206164647265737360481b6044820152606401610555565b60fc80546001600160a01b0319166001600160a01b03871617905580156106f3576000805461ff0019169055604051600181527f7f26b83ff96e1f2b6a682f133852f6798a09c465da95921460cefb38474024989060200160405180910390a15b505050505050565b600080516020611a3b83398151915261071381610fa9565b60fc546001600160a01b039081169083160361077f5760405162461bcd60e51b815260206004820152602560248201527f4e6f206368616e676520696e2070726f746f636f6c2072657365727665206164604482015264647265737360d81b6064820152608401610555565b60fc80546001600160a01b038481166001600160a01b0319831681179093556040519116917f2d7faa6887bec3599aecfe7648b4488b13aed14af1639d48ff942da0c10c552d916107d1918491611877565b60405180910390a1505050565b6000828152606560205260409020600101546107f981610fa9565b6108038383610f23565b505050565b6001600160a01b03811633146108785760405162461bcd60e51b815260206004820152602f60248201527f416363657373436f6e74726f6c3a2063616e206f6e6c792072656e6f756e636560448201526e103937b632b9903337b91039b2b63360891b6064820152608401610555565b6108828282610fb3565b5050565b6001600160a01b037f00000000000000000000000000000000000000000000000000000000000000001630036108ce5760405162461bcd60e51b815260040161055590611891565b7f00000000000000000000000000000000000000000000000000000000000000006001600160a01b031661090061101a565b6001600160a01b0316146109265760405162461bcd60e51b8152600401610555906118dd565b61092f81610e8f565b604080516000808252602082019092526104b291839190611036565b6001600160a01b037f00000000000000000000000000000000000000000000000000000000000000001630036109935760405162461bcd60e51b815260040161055590611891565b7f00000000000000000000000000000000000000000000000000000000000000006001600160a01b03166109c561101a565b6001600160a01b0316146109eb5760405162461bcd60e51b8152600401610555906118dd565b6109f482610e8f565b61088282826001611036565b6000306001600160a01b037f00000000000000000000000000000000000000000000000000000000000000001614610a9b5760405162461bcd60e51b815260206004820152603860248201527f555550535570677261646561626c653a206d757374206e6f742062652063616c6044820152771b1959081d1a1c9bdd59da0819195b1959d85d1958d85b1b60421b6064820152608401610555565b50600080516020611a5b83398151915290565b600080516020611a7b833981519152610ac681610fa9565b6001600160a01b038316610b375760405162461bcd60e51b815260206004820152603260248201527f4f6c6420436f6e74726f6c6c65722041646d696e2057616c6c65742063616e6e6044820152716f74206265207a65726f206164647265737360701b6064820152608401610555565b6001600160a01b038216610ba85760405162461bcd60e51b815260206004820152603260248201527f4e657720436f6e74726f6c6c65722041646d696e2057616c6c65742063616e6e6044820152716f74206265207a65726f206164647265737360701b6064820152608401610555565b610bc0600080516020611ac283398151915284610d1a565b610c225760405162461bcd60e51b815260206004820152602d60248201527f696e636f7272656374206f6c6420636f6e74726f6c6c65722061646d696e207760448201526c616c6c6574206164647265737360981b6064820152608401610555565b610c3a600080516020611ac283398151915284610fb3565b610803600080516020611ac283398151915283610f23565b600080516020611a3b833981519152610c6a81610fa9565b60fb546001600160a01b0390811690831603610cc85760405162461bcd60e51b815260206004820152601d60248201527f4e6f206368616e676520696e20747265617375727920616464726573730000006044820152606401610555565b60fb80546001600160a01b038481166001600160a01b0319831681179093556040519116917f430359a6d97ced2b6f93c77a91e7ce9dfd43252eb91e916adba170485cd8a6a4916107d1918491611877565b60009182526065602090815260408084206001600160a01b0393909316845291905290205460ff1690565b600080516020611ac2833981519152610d5d81610fa9565b610d66826111a1565b15610db15760405162461bcd60e51b815260206004820152601b60248201527a436f6e747261637420697320616c726561647920696e205465726d60281b6044820152606401610555565b506001600160a01b0316600090815260fd60205260409020805460ff19166001179055565b600082815260656020526040902060010154610df181610fa9565b6108038383610fb3565b600080516020611ac2833981519152610e1381610fa9565b610e1c826111a1565b610e625760405162461bcd60e51b8152602060048201526017602482015276436f6e7472616374206973206e6f7420696e205465726d60481b6044820152606401610555565b506001600160a01b0316600090815260fd60205260409020805460ff19169055565b60006104a3826111a1565b600080516020611a3b83398151915261088281610fa9565b6001600160a01b03163b151590565b600054610100900460ff16610f215760405162461bcd60e51b815260206004820152602b60248201527f496e697469616c697a61626c653a20636f6e7472616374206973206e6f74206960448201526a6e697469616c697a696e6760a81b6064820152608401610555565b565b610f2d8282610d1a565b6108825760008281526065602090815260408083206001600160a01b03851684529091529020805460ff19166001179055610f653390565b6001600160a01b0316816001600160a01b0316837f2f8788117e7eff1d82e926ec794901d17c78024a50270940304540a733656f0d60405160405180910390a45050565b6104b281336111bf565b610fbd8282610d1a565b156108825760008281526065602090815260408083206001600160a01b0385168085529252808320805460ff1916905551339285917ff6391f5c32d9c69d2a47ea670b442974b53935d1edc7fd64eb21e047a839171b9190a45050565b600080516020611a5b833981519152546001600160a01b031690565b7f4910fdfa16fed3260ed0e7147f7cc6da11a60208b5b9406d12a635614ffd91435460ff16156110695761080383611218565b826001600160a01b03166352d1902d6040518163ffffffff1660e01b8152600401602060405180830381865afa9250505080156110c3575060408051601f3d908101601f191682019092526110c091810190611929565b60015b6111265760405162461bcd60e51b815260206004820152602e60248201527f45524331393637557067726164653a206e657720696d706c656d656e7461746960448201526d6f6e206973206e6f74205555505360901b6064820152608401610555565b600080516020611a5b83398151915281146111955760405162461bcd60e51b815260206004820152602960248201527f45524331393637557067726164653a20756e737570706f727465642070726f786044820152681a58589b195555525160ba1b6064820152608401610555565b506108038383836112b2565b6001600160a01b0316600090815260fd602052604090205460ff1690565b6111c98282610d1a565b610882576111d6816112dd565b6111e18360206112ef565b6040516020016111f2929190611942565b60408051601f198184030181529082905262461bcd60e51b82526105559160040161181a565b61122181610ea7565b6112835760405162461bcd60e51b815260206004820152602d60248201527f455243313936373a206e657720696d706c656d656e746174696f6e206973206e60448201526c1bdd08184818dbdb9d1c9858dd609a1b6064820152608401610555565b600080516020611a5b83398151915280546001600160a01b0319166001600160a01b0392909216919091179055565b6112bb83611492565b6000825111806112c85750805b15610803576112d783836114d2565b50505050565b60606104a36001600160a01b03831660145b606060006112fe8360026119c7565b6113099060026119de565b67ffffffffffffffff8111156113215761132161171e565b6040519080825280601f01601f19166020018201604052801561134b576020820181803683370190505b509050600360fc1b81600081518110611366576113666119f1565b60200101906001600160f81b031916908160001a905350600f60fb1b81600181518110611395576113956119f1565b60200101906001600160f81b031916908160001a90535060006113b98460026119c7565b6113c49060016119de565b90505b600181111561143c576f181899199a1a9b1b9c1cb0b131b232b360811b85600f16601081106113f8576113f86119f1565b1a60f81b82828151811061140e5761140e6119f1565b60200101906001600160f81b031916908160001a90535060049490941c9361143581611a07565b90506113c7565b50831561148b5760405162461bcd60e51b815260206004820181905260248201527f537472696e67733a20686578206c656e67746820696e73756666696369656e746044820152606401610555565b9392505050565b61149b81611218565b6040516001600160a01b038216907fbc7cd75a20ee27fd9adebab32041f755214dbc6bffa90cc0225b39da2e5c2d3b90600090a250565b606061148b8383604051806060016040528060278152602001611a9b602791396060600080856001600160a01b03168560405161150f9190611a1e565b600060405180830381855af49150503d806000811461154a576040519150601f19603f3d011682016040523d82523d6000602084013e61154f565b606091505b50915091506115608683838761156a565b9695505050505050565b606083156115d75782516000036115d05761158485610ea7565b6115d05760405162461bcd60e51b815260206004820152601d60248201527f416464726573733a2063616c6c20746f206e6f6e2d636f6e74726163740000006044820152606401610555565b50816115e1565b6115e183836115e9565b949350505050565b8151156115f95781518083602001fd5b8060405162461bcd60e51b8152600401610555919061181a565b60006020828403121561162557600080fd5b81356001600160e01b03198116811461148b57600080fd5b80356001600160a01b038116811461165457600080fd5b919050565b60006020828403121561166b57600080fd5b61148b8261163d565b600080600080600060a0868803121561168c57600080fd5b6116958661163d565b94506116a36020870161163d565b93506116b16040870161163d565b92506116bf6060870161163d565b91506116cd6080870161163d565b90509295509295909350565b6000602082840312156116eb57600080fd5b5035919050565b6000806040838503121561170557600080fd5b823591506117156020840161163d565b90509250929050565b634e487b7160e01b600052604160045260246000fd5b6000806040838503121561174757600080fd5b6117508361163d565b9150602083013567ffffffffffffffff8082111561176d57600080fd5b818501915085601f83011261178157600080fd5b8135818111156117935761179361171e565b604051601f8201601f19908116603f011681019083821181831017156117bb576117bb61171e565b816040528281528860208487010111156117d457600080fd5b8260208601602083013760006020848301015280955050505050509250929050565b60005b838110156118115781810151838201526020016117f9565b50506000910152565b60208152600082518060208401526118398160408501602087016117f6565b601f01601f19169190910160400192915050565b6000806040838503121561186057600080fd5b6118698361163d565b91506117156020840161163d565b6001600160a01b0392831681529116602082015260400190565b6020808252602c908201527f46756e6374696f6e206d7573742062652063616c6c6564207468726f7567682060408201526b19195b1959d85d1958d85b1b60a21b606082015260800190565b6020808252602c908201527f46756e6374696f6e206d7573742062652063616c6c6564207468726f7567682060408201526b6163746976652070726f787960a01b606082015260800190565b60006020828403121561193b57600080fd5b5051919050565b76020b1b1b2b9b9a1b7b73a3937b61d1030b1b1b7bab73a1604d1b8152600083516119748160178501602088016117f6565b7001034b99036b4b9b9b4b733903937b6329607d1b60179184019182015283516119a58160288401602088016117f6565b01602801949350505050565b634e487b7160e01b600052601160045260246000fd5b80820281158282048414176104a3576104a36119b1565b808201808211156104a3576104a36119b1565b634e487b7160e01b600052603260045260246000fd5b600081611a1657611a166119b1565b506000190190565b60008251611a308184602087016117f6565b919091019291505056fe793a6c9b7e0a9549c74edc2f9ae0dc50903dfaa9a56fb0116b27a8c71de3e2c6360894a13ba1a3210667c828492db98dca3e2076cc3735a920a3ca505d382bbc0bb5a33d705086fce426ce4e2dd59328fcdddf3164b908c4c00fd1a185a702de416464726573733a206c6f772d6c6576656c2064656c65676174652063616c6c206661696c65649027349758afcb3649adbc1f090fcd4eb9187cfbbd22483c7d103367d7b50173a2646970667358221220330706606951e4e6d17d511d9a93bb7cd368010ee0bf2ede1c82f2a3538f2be564736f6c63430008120033",
  "linkReferences": {},
  "deployedLinkReferences": {}
}