{
  "_format": "hh-sol-artifact-1",
  "contractName": "TestTermController",
  "sourceName": "contracts/test/TestTermController.sol",
  "abi": [
    {
      "inputs": [],
      "name": "AccessControlBadConfirmation",
      "type": "error"
    },
    {
      "inputs": [
        {
          "internalType": "address",
          "name": "account",
          "type": "address"
        },
        {
          "internalType": "bytes32",
          "name": "neededRole",
          "type": "bytes32"
        }
      ],
      "name": "AccessControlUnauthorizedAccount",
      "type": "error"
    },
    {
      "inputs": [
        {
          "internalType": "address",
          "name": "target",
          "type": "address"
        }
      ],
      "name": "AddressEmptyCode",
      "type": "error"
    },
    {
      "inputs": [
        {
          "internalType": "address",
          "name": "implementation",
          "type": "address"
        }
      ],
      "name": "ERC1967InvalidImplementation",
      "type": "error"
    },
    {
      "inputs": [],
      "name": "ERC1967NonPayable",
      "type": "error"
    },
    {
      "inputs": [],
      "name": "FailedCall",
      "type": "error"
    },
    {
      "inputs": [],
      "name": "InvalidInitialization",
      "type": "error"
    },
    {
      "inputs": [],
      "name": "NotInitializing",
      "type": "error"
    },
    {
      "inputs": [],
      "name": "UUPSUnauthorizedCallContext",
      "type": "error"
    },
    {
      "inputs": [
        {
          "internalType": "bytes32",
          "name": "slot",
          "type": "bytes32"
        }
      ],
      "name": "UUPSUnsupportedProxiableUUID",
      "type": "error"
    },
    {
      "anonymous": false,
      "inputs": [
        {
          "indexed": false,
          "internalType": "uint64",
          "name": "version",
          "type": "uint64"
        }
      ],
      "name": "Initialized",
      "type": "event"
    },
    {
      "anonymous": false,
      "inputs": [
        {
          "indexed": false,
          "internalType": "address",
          "name": "oldProtocolReserveAddress",
          "type": "address"
        },
        {
          "indexed": false,
          "internalType": "address",
          "name": "newProtocolReserveAddress",
          "type": "address"
        }
      ],
      "name": "ProtocolReserveAddressUpdated",
      "type": "event"
    },
    {
      "anonymous": false,
      "inputs": [
        {
          "indexed": true,
          "internalType": "bytes32",
          "name": "role",
          "type": "bytes32"
        },
        {
          "indexed": true,
          "internalType": "bytes32",
          "name": "previousAdminRole",
          "type": "bytes32"
        },
        {
          "indexed": true,
          "internalType": "bytes32",
          "name": "newAdminRole",
          "type": "bytes32"
        }
      ],
      "name": "RoleAdminChanged",
      "type": "event"
    },
    {
      "anonymous": false,
      "inputs": [
        {
          "indexed": true,
          "internalType": "bytes32",
          "name": "role",
          "type": "bytes32"
        },
        {
          "indexed": true,
          "internalType": "address",
          "name": "account",
          "type": "address"
        },
        {
          "indexed": true,
          "internalType": "address",
          "name": "sender",
          "type": "address"
        }
      ],
      "name": "RoleGranted",
      "type": "event"
    },
    {
      "anonymous": false,
      "inputs": [
        {
          "indexed": true,
          "internalType": "bytes32",
          "name": "role",
          "type": "bytes32"
        },
        {
          "indexed": true,
          "internalType": "address",
          "name": "account",
          "type": "address"
        },
        {
          "indexed": true,
          "internalType": "address",
          "name": "sender",
          "type": "address"
        }
      ],
      "name": "RoleRevoked",
      "type": "event"
    },
    {
      "anonymous": false,
      "inputs": [
        {
          "indexed": false,
          "internalType": "address",
          "name": "oldTreasuryAddress",
          "type": "address"
        },
        {
          "indexed": false,
          "internalType": "address",
          "name": "newTreasuryAddress",
          "type": "address"
        }
      ],
      "name": "TreasuryAddressUpdated",
      "type": "event"
    },
    {
      "anonymous": false,
      "inputs": [
        {
          "indexed": true,
          "internalType": "address",
          "name": "implementation",
          "type": "address"
        }
      ],
      "name": "Upgraded",
      "type": "event"
    },
    {
      "inputs": [],
      "name": "ADMIN_ROLE",
      "outputs": [
        {
          "internalType": "bytes32",
          "name": "",
          "type": "bytes32"
        }
      ],
      "stateMutability": "view",
      "type": "function"
    },
    {
      "inputs": [],
      "name": "AUCTION_ROLE",
      "outputs": [
        {
          "internalType": "bytes32",
          "name": "",
          "type": "bytes32"
        }
      ],
      "stateMutability": "view",
      "type": "function"
    },
    {
      "inputs": [],
      "name": "CONTROLLER_ADMIN_ROLE",
      "outputs": [
        {
          "internalType": "bytes32",
          "name": "",
          "type": "bytes32"
        }
      ],
      "stateMutability": "view",
      "type": "function"
    },
    {
      "inputs": [],
      "name": "DEFAULT_ADMIN_ROLE",
      "outputs": [
        {
          "internalType": "bytes32",
          "name": "",
          "type": "bytes32"
        }
      ],
      "stateMutability": "view",
      "type": "function"
    },
    {
      "inputs": [],
      "name": "DEVOPS_ROLE",
      "outputs": [
        {
          "internalType": "bytes32",
          "name": "",
          "type": "bytes32"
        }
      ],
      "stateMutability": "view",
      "type": "function"
    },
    {
      "inputs": [],
      "name": "FACTORY_DEPLOYER_ROLE",
      "outputs": [
        {
          "internalType": "bytes32",
          "name": "",
          "type": "bytes32"
        }
      ],
      "stateMutability": "view",
      "type": "function"
    },
    {
      "inputs": [],
      "name": "INITIALIZER_ROLE",
      "outputs": [
        {
          "internalType": "bytes32",
          "name": "",
          "type": "bytes32"
        }
      ],
      "stateMutability": "view",
      "type": "function"
    },
    {
      "inputs": [],
      "name": "SPECIALIST_ROLE",
      "outputs": [
        {
          "internalType": "bytes32",
          "name": "",
          "type": "bytes32"
        }
      ],
      "stateMutability": "view",
      "type": "function"
    },
    {
      "inputs": [],
      "name": "UPGRADE_INTERFACE_VERSION",
      "outputs": [
        {
          "internalType": "string",
          "name": "",
          "type": "string"
        }
      ],
      "stateMutability": "view",
      "type": "function"
    },
    {
      "inputs": [],
      "name": "getProtocolReserveAddress",
      "outputs": [
        {
          "internalType": "address",
          "name": "",
          "type": "address"
        }
      ],
      "stateMutability": "view",
      "type": "function"
    },
    {
      "inputs": [
        {
          "internalType": "bytes32",
          "name": "role",
          "type": "bytes32"
        }
      ],
      "name": "getRoleAdmin",
      "outputs": [
        {
          "internalType": "bytes32",
          "name": "",
          "type": "bytes32"
        }
      ],
      "stateMutability": "view",
      "type": "function"
    },
    {
      "inputs": [
        {
          "internalType": "bytes32",
          "name": "termRepoId",
          "type": "bytes32"
        }
      ],
      "name": "getTermAuctionResults",
      "outputs": [
        {
          "components": [
            {
              "internalType": "bytes32",
              "name": "termAuctionId",
              "type": "bytes32"
            },
            {
              "internalType": "uint256",
              "name": "auctionClearingRate",
              "type": "uint256"
            },
            {
              "internalType": "uint256",
              "name": "auctionClearingBlockTimestamp",
              "type": "uint256"
            }
          ],
          "internalType": "struct AuctionMetadata[]",
          "name": "auctionMetadata",
          "type": "tuple[]"
        },
        {
          "internalType": "uint8",
          "name": "numOfAuctions",
          "type": "uint8"
        }
      ],
      "stateMutability": "view",
      "type": "function"
    },
    {
      "inputs": [],
      "name": "getTreasuryAddress",
      "outputs": [
        {
          "internalType": "address",
          "name": "",
          "type": "address"
        }
      ],
      "stateMutability": "view",
      "type": "function"
    },
    {
      "inputs": [
        {
          "internalType": "address",
          "name": "authedUser",
          "type": "address"
        }
      ],
      "name": "grantMintExposureAccess",
      "outputs": [],
      "stateMutability": "nonpayable",
      "type": "function"
    },
    {
      "inputs": [
        {
          "internalType": "bytes32",
          "name": "role",
          "type": "bytes32"
        },
        {
          "internalType": "address",
          "name": "account",
          "type": "address"
        }
      ],
      "name": "grantRole",
      "outputs": [],
      "stateMutability": "nonpayable",
      "type": "function"
    },
    {
      "inputs": [
        {
          "internalType": "bytes32",
          "name": "role",
          "type": "bytes32"
        },
        {
          "internalType": "address",
          "name": "account",
          "type": "address"
        }
      ],
      "name": "hasRole",
      "outputs": [
        {
          "internalType": "bool",
          "name": "",
          "type": "bool"
        }
      ],
      "stateMutability": "view",
      "type": "function"
    },
    {
      "inputs": [
        {
          "internalType": "address",
          "name": "treasuryWallet_",
          "type": "address"
        },
        {
          "internalType": "address",
          "name": "protocolReserveWallet_",
          "type": "address"
        },
        {
          "internalType": "address",
          "name": "controllerAdminWallet_",
          "type": "address"
        },
        {
          "internalType": "address",
          "name": "devopsWallet_",
          "type": "address"
        },
        {
          "internalType": "address",
          "name": "adminWallet_",
          "type": "address"
        }
      ],
      "name": "initialize",
      "outputs": [],
      "stateMutability": "nonpayable",
      "type": "function"
    },
    {
      "inputs": [
        {
          "internalType": "address",
          "name": "contractAddress",
          "type": "address"
        }
      ],
      "name": "isFactoryDeployed",
      "outputs": [
        {
          "internalType": "bool",
          "name": "",
          "type": "bool"
        }
      ],
      "stateMutability": "view",
      "type": "function"
    },
    {
      "inputs": [
        {
          "internalType": "address",
          "name": "contractAddress",
          "type": "address"
        }
      ],
      "name": "isTermApproved",
      "outputs": [
        {
          "internalType": "bool",
          "name": "",
          "type": "bool"
        }
      ],
      "stateMutability": "view",
      "type": "function"
    },
    {
      "inputs": [
        {
          "internalType": "address",
          "name": "contractAddress",
          "type": "address"
        }
      ],
      "name": "isTermDeployed",
      "outputs": [
        {
          "internalType": "bool",
          "name": "",
          "type": "bool"
        }
      ],
      "stateMutability": "view",
      "type": "function"
    },
    {
      "inputs": [
        {
          "internalType": "address",
          "name": "externalContract",
          "type": "address"
        }
      ],
      "name": "markTermApproved",
      "outputs": [],
      "stateMutability": "nonpayable",
      "type": "function"
    },
    {
      "inputs": [
        {
          "internalType": "address",
          "name": "termContract",
          "type": "address"
        }
      ],
      "name": "markTermDeployed",
      "outputs": [],
      "stateMutability": "nonpayable",
      "type": "function"
    },
    {
      "inputs": [
        {
          "internalType": "address",
          "name": "factoryDeployedContract",
          "type": "address"
        }
      ],
      "name": "markTermFactoryDeployed",
      "outputs": [],
      "stateMutability": "nonpayable",
      "type": "function"
    },
    {
      "inputs": [
        {
          "internalType": "address",
          "name": "auction",
          "type": "address"
        }
      ],
      "name": "pairAuction",
      "outputs": [],
      "stateMutability": "nonpayable",
      "type": "function"
    },
    {
      "inputs": [
        {
          "internalType": "address",
          "name": "factoryDeployer",
          "type": "address"
        }
      ],
      "name": "pairFactoryDeployer",
      "outputs": [],
      "stateMutability": "nonpayable",
      "type": "function"
    },
    {
      "inputs": [
        {
          "internalType": "address",
          "name": "initializer",
          "type": "address"
        }
      ],
      "name": "pairInitializer",
      "outputs": [],
      "stateMutability": "nonpayable",
      "type": "function"
    },
    {
      "inputs": [],
      "name": "pauseTermContracts",
      "outputs": [],
      "stateMutability": "nonpayable",
      "type": "function"
    },
    {
      "inputs": [],
      "name": "proxiableUUID",
      "outputs": [
        {
          "internalType": "bytes32",
          "name": "",
          "type": "bytes32"
        }
      ],
      "stateMutability": "view",
      "type": "function"
    },
    {
      "inputs": [
        {
          "internalType": "bytes32",
          "name": "termRepoId",
          "type": "bytes32"
        },
        {
          "internalType": "bytes32",
          "name": "termAuctionId",
          "type": "bytes32"
        },
        {
          "internalType": "uint256",
          "name": "auctionClearingRate",
          "type": "uint256"
        }
      ],
      "name": "recordAuctionResult",
      "outputs": [],
      "stateMutability": "nonpayable",
      "type": "function"
    },
    {
      "inputs": [
        {
          "internalType": "bytes32",
          "name": "auctionId",
          "type": "bytes32"
        }
      ],
      "name": "registerAuctionId",
      "outputs": [],
      "stateMutability": "nonpayable",
      "type": "function"
    },
    {
      "inputs": [
        {
          "internalType": "bytes32",
          "name": "repoId",
          "type": "bytes32"
        }
      ],
      "name": "registerRepoId",
      "outputs": [],
      "stateMutability": "nonpayable",
      "type": "function"
    },
    {
      "inputs": [
        {
          "internalType": "bytes32",
          "name": "",
          "type": "bytes32"
        }
      ],
      "name": "registeredAuctionIds",
      "outputs": [
        {
          "internalType": "bool",
          "name": "",
          "type": "bool"
        }
      ],
      "stateMutability": "view",
      "type": "function"
    },
    {
      "inputs": [
        {
          "internalType": "bytes32",
          "name": "",
          "type": "bytes32"
        }
      ],
      "name": "registeredRepoIds",
      "outputs": [
        {
          "internalType": "bool",
          "name": "",
          "type": "bool"
        }
      ],
      "stateMutability": "view",
      "type": "function"
    },
    {
      "inputs": [
        {
          "internalType": "bytes32",
          "name": "role",
          "type": "bytes32"
        },
        {
          "internalType": "address",
          "name": "callerConfirmation",
          "type": "address"
        }
      ],
      "name": "renounceRole",
      "outputs": [],
      "stateMutability": "nonpayable",
      "type": "function"
    },
    {
      "inputs": [
        {
          "internalType": "address",
          "name": "revokedUser",
          "type": "address"
        }
      ],
      "name": "revokeMintExposureAccess",
      "outputs": [],
      "stateMutability": "nonpayable",
      "type": "function"
    },
    {
      "inputs": [
        {
          "internalType": "bytes32",
          "name": "role",
          "type": "bytes32"
        },
        {
          "internalType": "address",
          "name": "account",
          "type": "address"
        }
      ],
      "name": "revokeRole",
      "outputs": [],
      "stateMutability": "nonpayable",
      "type": "function"
    },
    {
      "inputs": [
        {
          "internalType": "bytes4",
          "name": "interfaceId",
          "type": "bytes4"
        }
      ],
      "name": "supportsInterface",
      "outputs": [
        {
          "internalType": "bool",
          "name": "",
          "type": "bool"
        }
      ],
      "stateMutability": "view",
      "type": "function"
    },
    {
      "inputs": [],
      "name": "termContractsPaused",
      "outputs": [
        {
          "internalType": "bool",
          "name": "",
          "type": "bool"
        }
      ],
      "stateMutability": "view",
      "type": "function"
    },
    {
      "inputs": [
        {
          "internalType": "address",
          "name": "externalContract",
          "type": "address"
        }
      ],
      "name": "unmarkTermApproved",
      "outputs": [],
      "stateMutability": "nonpayable",
      "type": "function"
    },
    {
      "inputs": [
        {
          "internalType": "address",
          "name": "termContract",
          "type": "address"
        }
      ],
      "name": "unmarkTermDeployed",
      "outputs": [],
      "stateMutability": "nonpayable",
      "type": "function"
    },
    {
      "inputs": [
        {
          "internalType": "address",
          "name": "factoryDeployedContract",
          "type": "address"
        }
      ],
      "name": "unmarkTermFactoryDeployed",
      "outputs": [],
      "stateMutability": "nonpayable",
      "type": "function"
    },
    {
      "inputs": [],
      "name": "unpauseTermContracts",
      "outputs": [],
      "stateMutability": "nonpayable",
      "type": "function"
    },
    {
      "inputs": [
        {
          "internalType": "address",
          "name": "oldControllerAdminWallet",
          "type": "address"
        },
        {
          "internalType": "address",
          "name": "newControllerAdminWallet",
          "type": "address"
        }
      ],
      "name": "updateControllerAdminWallet",
      "outputs": [],
      "stateMutability": "nonpayable",
      "type": "function"
    },
    {
      "inputs": [
        {
          "internalType": "address",
          "name": "newProtocolReserveWallet",
          "type": "address"
        }
      ],
      "name": "updateProtocolReserveAddress",
      "outputs": [],
      "stateMutability": "nonpayable",
      "type": "function"
    },
    {
      "inputs": [
        {
          "internalType": "address",
          "name": "newTreasuryWallet",
          "type": "address"
        }
      ],
      "name": "updateTreasuryAddress",
      "outputs": [],
      "stateMutability": "nonpayable",
      "type": "function"
    },
    {
      "inputs": [
        {
          "internalType": "address",
          "name": "upgradeAddress",
          "type": "address"
        }
      ],
      "name": "upgrade",
      "outputs": [],
      "stateMutability": "view",
      "type": "function"
    },
    {
      "inputs": [
        {
          "internalType": "address",
          "name": "newImplementation",
          "type": "address"
        },
        {
          "internalType": "bytes",
          "name": "data",
          "type": "bytes"
        }
      ],
      "name": "upgradeToAndCall",
      "outputs": [],
      "stateMutability": "payable",
      "type": "function"
    },
    {
      "inputs": [
        {
          "internalType": "address",
          "name": "authedUser",
          "type": "address"
        }
      ],
      "name": "verifyMintExposureAccess",
      "outputs": [
        {
          "internalType": "bool",
          "name": "",
          "type": "bool"
        }
      ],
      "stateMutability": "view",
      "type": "function"
    },
    {
      "inputs": [],
      "name": "version",
      "outputs": [
        {
          "internalType": "string",
          "name": "",
          "type": "string"
        }
      ],
      "stateMutability": "view",
      "type": "function"
    }
  ],
  "bytecode": "0x60a080604052346100cc57306080527ff0c57e16840df040f15088dc2f81fe391c3923bec73e23a9662efc9c229c6a009081549060ff8260401c166100bd57506001600160401b036002600160401b031982821601610078575b60405161249790816100d28239608051818181610de10152610f400152f35b6001600160401b031990911681179091556040519081527fc7f505b2f371ae2175ee4913f4499e1f2633a7b5936321eed1cdaeb6115181d290602090a1388080610059565b63f92ee8a960e01b8152600490fd5b600080fdfe60806040908082526004918236101561001757600080fd5b600092833560e01c92836301ffc9a71461195657508263025f1a5e1461192d57826304485707146119035782630900f010146118dd5782631459457a146115cc57826315aa2d741461156b57826315aba255146114bc578263201a662514611493578263248a9ca31461145a57826327df3d3e1461143157826329392ac71461135f578263297c71b0146112c85782632ce81074146112305782632f2ff15d14611207578263335f4c76146111c957826336568abe146111835782633f67c56114611159578263430730a3146111305782634bb4193c146111075782634f1ef28614610ec4578263506328de14610e3357826352d1902d14610dcc57826354fd4d5014610d895782635a37901f14610d5f5782635f44fab214610d315782636ca5d56d14610b8c5782636d9a16d414610b6a57826375b238fc14610b415782637db52ce214610b135782637f2fdf48146109fc578263841e456114610919578263853de564146108bf57826391d148541461086a5782639e2a2046146107ce5782639f2a48de146106cb578263a217fddf146106b0578263a2a61aed1461057c578263a4018f1314610553578263ad3cb1cc14610512578263c4665e80146104eb578263d48a3d49146104c7578263d547741f1461047f578263db9bd42c14610456578263e00246041461042a578263e115ed0a1461038c578263e1b961f4146102f6578263e7e4b8db146102b4578263e81cf1171461027257505063f87fd33a1461024257600080fd5b3461026f57602036600319011261026f5761026b61025e6119a9565b610266611b02565b611f5b565b5080f35b80fd5b909150346102b05760203660031901126102b05760209260ff918391906001600160a01b0361029f6119a9565b168252855220541690519015158152f35b8280fd5b8382346102f25760203660031901126102f25760209160ff9082906001600160a01b036102df6119a9565b1681526002855220541690519015158152f35b5080fd5b909150346102b05760203660031901126102b0576103126119a9565b61031a611b90565b6001600160a01b031680845260026020528284205490919060ff161561034f5750825260026020528120805460ff1916905580f35b606490602084519162461bcd60e51b83528201526017602482015276436f6e7472616374206973206e6f7420696e205465726d60481b6044820152fd5b909150346102b0576020806003193601126104265760069160008051602061232283398151915285526000805160206123a2833981519152808352848620338752835260ff858720541680156103fb575b6103e79150611ac7565b358452528120805460ff1916600117905580f35b506000805160206123428339815191528652825283852033865282526103e760ff85872054166103dd565b8380fd5b8382346102f257816003193601126102f2579054905160089190911c6001600160a01b03168152602090f35b8382346102f257816003193601126102f257602090516000805160206123428339815191528152f35b9150346102b057806003193601126102b05761026b91356104c260016104a36119c4565b938387526000805160206123a283398151915260205286200154611bc8565b61215e565b833461026f578060031936011261026f576104e0611b02565b805460ff1916815580f35b833461026f578060031936011261026f57610504611b02565b805460ff1916600117815580f35b8382346102f257816003193601126102f257805161054f9161053382611a0b565b60058252640352e302e360dc1b60208301525191829182611a64565b0390f35b8382346102f257816003193601126102f257602090516000805160206122a28339815191528152f35b9150346102b05760603660031901126102b0576000805160206122828339815191528084526000805160206123a283398151915260205281842033855260205260ff8285205416156106945750813583526007602052808320908051906105e2826119da565b602435825260443560208301908152429183019182528354600160401b811015610681576001810180865581101561066e57916002918594936001968952600360208a2091020193518455518584015551910155019081549060ff82169060ff821461065b5750600160ff9101169060ff191617905580f35b634e487b7160e01b855260119052602484fd5b634e487b7160e01b875260328652602487fd5b634e487b7160e01b875260418652602487fd5b60449291519163e2517d3f60e01b835233908301526024820152fd5b8382346102f257816003193601126102f25751908152602090f35b909150346102b05760209081600319360112610426576106e96119a9565b6000805160206123428339815191528086526000805160206123a28339815191528452848620338752845260ff8587205416156107b057506001600160a01b0316808552600383528385205490919060ff1661075657508352600390528120805460ff1916600117905580f35b835162461bcd60e51b8152908101839052602e60248201527f436f6e747261637420697320616c7265616479206d61726b6564206465706c6f60448201526d79656420627920666163746f727960901b6064820152608490fd5b845163e2517d3f60e01b815233818501526024810191909152604490fd5b909150346102b05760203660031901126102b0576107ea6119a9565b6107f2611b90565b6001600160a01b031680845260026020528284205490919060ff166108295750825260026020528120805460ff1916600117905580f35b606490602084519162461bcd60e51b8352820152601b60248201527a436f6e747261637420697320616c726561647920696e205465726d60281b6044820152fd5b909150346102b057816003193601126102b0578160209360ff9261088c6119c4565b903582526000805160206123a283398151915286528282206001600160a01b039091168252855220549151911615158152f35b909150346102b0576020806003193601126104265760059160008051602061232283398151915285526000805160206123a2833981519152808352848620338752835260ff858720541680156103fb576103e79150611ac7565b8390346102f25760203660031901126102f2576109346119a9565b9061093d611b58565b82546001600160a01b0392600882901c84169281851684146109b95750610100600160a81b0319909116600891821b610100600160a81b031617808555945193947f430359a6d97ced2b6f93c77a91e7ce9dfd43252eb91e916adba170485cd8a6a4949384936109b3939290921c169083611aad565b0390a180f35b606490602088519162461bcd60e51b8352820152601d60248201527f4e6f206368616e676520696e20747265617375727920616464726573730000006044820152fd5b90833461026f576020908160031936011261026f57833580825260078352838220805495909391906001600160401b038711610b00575084519295610a47600582901b840185611a26565b8084528284018095885283882088915b838310610ac6575050505085526007815260019460ff600186832001541692855195808701918188525180925260608088019693915b838310610aa05788808989898301520390f35b84518051895280870151878a015281015188820152968101969385019391890191610a8d565b6003866001928b9c999c51610ada816119da565b85548152848601548382015260028601548d820152815201920192019190989598610a57565b634e487b7160e01b845260419052602483fd5b909150346102b05760203660031901126102b0578160209360ff923581526006855220541690519015158152f35b8382346102f257816003193601126102f257602090516000805160206123e28339815191528152f35b8382346102f257816003193601126102f25760ff602092541690519015158152f35b8390346102f257826003193601126102f257610ba66119a9565b610bae6119c4565b91610bb7611b58565b6001600160a01b03828116908115610cd357841615610c755760008051602061238283398151915285526000805160206123a283398151915260205285852090855260205260ff858520541615610c1c575090610c1661026b926120da565b50611c99565b608490602086519162461bcd60e51b8352820152602d60248201527f696e636f7272656374206f6c6420636f6e74726f6c6c65722061646d696e207760448201526c616c6c6574206164647265737360981b6064820152fd5b855162461bcd60e51b8152602081840152603260248201527f4e657720436f6e74726f6c6c65722041646d696e2057616c6c65742063616e6e6044820152716f74206265207a65726f206164647265737360701b6064820152608490fd5b865162461bcd60e51b8152602081850152603260248201527f4f6c6420436f6e74726f6c6c65722041646d696e2057616c6c65742063616e6e6044820152716f74206265207a65726f206164647265737360701b6064820152608490fd5b909150346102b05760203660031901126102b0578160209360ff923581526005855220541690519015158152f35b833461026f57602036600319011261026f5761026b610d7c6119a9565b610d84611b02565b611ec3565b8382346102f257816003193601126102f257805161054f91610daa82611a0b565b600b82526a19195d995b1bdc1b595b9d60aa1b60208301525191829182611a64565b90833461026f578060031936011261026f57507f00000000000000000000000000000000000000000000000000000000000000006001600160a01b03163003610e2657602090516000805160206123628339815191528152f35b5163703e46dd60e11b8152fd5b909150346102b05760203660031901126102b057610e4f6119a9565b610e57611b02565b6001600160a01b031680845260208290528284205460ff1615610e865783526020528120805460ff1916905580f35b506020606492519162461bcd60e51b8352820152601860248201527710dbdb9d1c9858dd081a5cc81b9bdd08185c1c1c9bdd995960421b6044820152fd5b9150806003193601126102b057610ed96119a9565b60249390919084356001600160401b0381116102f257366023820112156102f25780850135610f0781611a49565b94610f1485519687611a26565b81865260209182870193368a8383010111611103578186928b8693018737880101526001600160a01b037f000000000000000000000000000000000000000000000000000000000000000081163081149081156110e7575b506110d757610f79611b58565b81169585516352d1902d60e01b815283818a818b5afa8691816110a4575b50610fb3575050505050505191634c9c8ce360e01b8352820152fd5b9088888894938c6000805160206123628339815191529182810361108f5750853b1561107b575080546001600160a01b031916821790558451889392917fbc7cd75a20ee27fd9adebab32041f755214dbc6bffa90cc0225b39da2e5c2d3b8580a282511561105d57505061026b9582915190845af4913d15611053573d61104561103c82611a49565b92519283611a26565b81528581943d92013e6121fe565b50606092506121fe565b95509550505050503461106f57505080f35b63b398979f60e01b8152fd5b8651634c9c8ce360e01b8152808501849052fd5b8751632a87526960e21b815280860191909152fd5b9091508481813d83116110d0575b6110bc8183611a26565b810103126110cc57519038610f97565b8680fd5b503d6110b2565b855163703e46dd60e11b81528890fd5b9050816000805160206123628339815191525416141538610f6c565b8580fd5b8382346102f257816003193601126102f257602090516000805160206123828339815191528152f35b8382346102f257816003193601126102f257602090516000805160206122828339815191528152f35b833461026f57602036600319011261026f5761026b6111766119a9565b61117e611b02565b612056565b8382346102f257806003193601126102f25761119d6119c4565b90336001600160a01b038316036111ba575061026b91923561215e565b5163334bd91960e11b81528390fd5b8382346102f25760203660031901126102f25760209160ff9082906001600160a01b036111f46119a9565b1681526003855220541690519015158152f35b9150346102b057806003193601126102b05761026b913561122b60016104a36119c4565b611fe1565b8382346102f25760203660031901126102f25761026b906112976112526119a9565b9160008051602061232283398151915285526000805160206123a2833981519152908160205280862033875260205260ff818720541691821561129c575b5050611ac7565b611e2b565b60ff92506000805160206123428339815191528752602052808620338752602052852054168580611290565b909150346102b05760203660031901126102b0576112e46119a9565b6112ec611b02565b6001600160a01b031680845260208290528284205460ff1661131d5783526020528120805460ff1916600117905580f35b506020606492519162461bcd60e51b8352820152601c60248201527b10dbdb9d1c9858dd081a5cc8185b1c9958591e48185c1c1c9bdd995960221b6044820152fd5b8390346102f25760203660031901126102f25761137a6119a9565b611382611b58565b6001546001600160a01b0391821692918116918383146113e057506001600160a01b0319168217600155925191927f2d7faa6887bec3599aecfe7648b4488b13aed14af1639d48ff942da0c10c552d929182916109b3919083611aad565b608490602087519162461bcd60e51b8352820152602560248201527f4e6f206368616e676520696e2070726f746f636f6c2072657365727665206164604482015264647265737360d81b6064820152fd5b8382346102f257816003193601126102f257602090516000805160206123228339815191528152f35b909150346102b05760203660031901126102b057816020936001923581526000805160206123a283398151915285522001549051908152f35b8382346102f257816003193601126102f257602090516000805160206122c28339815191528152f35b909150346102b05760203660031901126102b0576114d86119a9565b6114e0611b90565b6001600160a01b031680845260036020528284205490919060ff16156115155750825260036020528120805460ff1916905580f35b608490602084519162461bcd60e51b8352820152602a60248201527f436f6e7472616374206973206e6f74206d61726b6564206465706c6f79656420604482015269627920666163746f727960b01b6064820152fd5b8382346102f25760203660031901126102f25760ff8160209361158c6119a9565b6000805160206122a283398151915282526000805160206123a283398151915286528282206001600160a01b039091168252855220549151911615158152f35b909150346102b05760a03660031901126102b0576115e86119a9565b6115f06119c4565b60448035936001600160a01b038086169492938587036118d957606493843597838916988981036118d557608435918583168084036118d1576000805160206124228339815191528054909c818f1c60ff16159c90916001600160401b0381168015908f826118c9575b5060011490816118bf575b1590816118b6575b506118a5576001600160401b031981166001178f558e908e611889575b50506116946121cf565b61169c6121cf565b15611848571561180757156117c6576116c892916116bc6116c292611c99565b50611d1f565b50611da5565b5082811615611789578954610100600160a81b03191660089190911b610100600160a81b0316178955169283156117505750505060018060a01b03196001541617600155611714578280f35b805460ff60401b1916905551600181527fc7f505b2f371ae2175ee4913f4499e1f2633a7b5936321eed1cdaeb6115181d290602090a138808280f35b7672657365727665206973207a65726f206164647265737360481b90602088519362461bcd60e51b855284015260176024840152820152fd5b505050777472656173757279206973207a65726f206164647265737360401b83602088519362461bcd60e51b855284015260186024840152820152fd5b508a5162461bcd60e51b8152602081880152601c60248201527b61646d696e2077616c6c6574206973207a65726f206164647265737360201b818a01528790fd5b8c5162461bcd60e51b81526020818a0152601d60248201527f6465766f70732077616c6c6574206973207a65726f2061646472657373000000818c01528990fd5b8d5162461bcd60e51b81526020818b0181905260248201527f636f6e74726f6c6c65722061646d696e206973207a65726f2061646472657373818d01528a90fd5b6001600160481b0319166001600160401b011790558d3861168a565b508e5163f92ee8a960e01b81528a90fd5b9050153861166d565b303b159150611665565b91508f61165a565b8d80fd5b8b80fd5b8880fd5b833461026f57602036600319011261026f576118f76119a9565b50611900611b58565b80f35b833461026f57602036600319011261026f5761026b6119206119a9565b611928611b02565b611bfb565b8382346102f257816003193601126102f25760015490516001600160a01b039091168152602090f35b8491346102b05760203660031901126102b0573563ffffffff60e01b81168091036102b05760209250637965db0b60e01b8114908115611998575b5015158152f35b6301ffc9a760e01b14905083611991565b600435906001600160a01b03821682036119bf57565b600080fd5b602435906001600160a01b03821682036119bf57565b606081019081106001600160401b038211176119f557604052565b634e487b7160e01b600052604160045260246000fd5b604081019081106001600160401b038211176119f557604052565b601f909101601f19168101906001600160401b038211908210176119f557604052565b6001600160401b0381116119f557601f01601f191660200190565b6020808252825181830181905290939260005b828110611a9957505060409293506000838284010152601f8019910116010190565b818101860151848201604001528501611a77565b6001600160a01b0391821681529116602082015260400190565b15611ace57565b60405162461bcd60e51b815260206004820152600c60248201526b155b985d5d1a1bdc9a5e995960a21b6044820152606490fd5b33600090815260008051602061230283398151915260205260409020546000805160206123e28339815191529060ff1615611b3a5750565b6044906040519063e2517d3f60e01b82523360048301526024820152fd5b33600090815260008051602061240283398151915260205260409020546000805160206122c28339815191529060ff1615611b3a5750565b33600090815260008051602061244283398151915260205260409020546000805160206123828339815191529060ff1615611b3a5750565b806000526000805160206123a283398151915260205260406000203360005260205260ff6040600020541615611b3a5750565b6001600160a01b031660008181527f44fa5399874b75da801cb431822b6afcadb876f84eb39d7f05bf697e94b4484e6020526040812054909190600080516020612322833981519152906000805160206123a28339815191529060ff16611c93578184526020526040832082845260205260408320600160ff19825416179055600080516020612262833981519152339380a4600190565b50505090565b6001600160a01b031660008181526000805160206124428339815191526020526040812054909190600080516020612382833981519152906000805160206123a28339815191529060ff16611c93578184526020526040832082845260205260408320600160ff19825416179055600080516020612262833981519152339380a4600190565b6001600160a01b0316600081815260008051602061240283398151915260205260408120549091906000805160206122c2833981519152906000805160206123a28339815191529060ff16611c93578184526020526040832082845260205260408320600160ff19825416179055600080516020612262833981519152339380a4600190565b6001600160a01b0316600081815260008051602061230283398151915260205260408120549091906000805160206123e2833981519152906000805160206123a28339815191529060ff16611c93578184526020526040832082845260205260408320600160ff19825416179055600080516020612262833981519152339380a4600190565b6001600160a01b031660008181527f902f286eb5a203d91a54df2a384c4e549fedd8c7edd06cf9d2c638ae3ff8e6476020526040812054909190600080516020612282833981519152906000805160206123a28339815191529060ff16611c93578184526020526040832082845260205260408320600160ff19825416179055600080516020612262833981519152339380a4600190565b6001600160a01b031660008181527f30eb51a536424ca5e748bbe2a03c4a2bf25c26db60283f8e67c8d1223de7ac556020526040812054909190600080516020612342833981519152906000805160206123a28339815191529060ff16611c93578184526020526040832082845260205260408320600160ff19825416179055600080516020612262833981519152339380a4600190565b6001600160a01b031660008181526000805160206122e283398151915260205260408120549091906000805160206122a2833981519152906000805160206123a28339815191529060ff16611c93578184526020526040832082845260205260408320600160ff19825416179055600080516020612262833981519152339380a4600190565b906000918083526000805160206123a283398151915280602052604084209260018060a01b03169283855260205260ff60408520541615600014611c93578184526020526040832082845260205260408320600160ff19825416179055600080516020612262833981519152339380a4600190565b6001600160a01b031660008181526000805160206122e283398151915260205260408120549091906000805160206122a2833981519152906000805160206123a28339815191529060ff1615611c9357818452602052604083208284526020526040832060ff1981541690556000805160206123c2833981519152339380a4600190565b6001600160a01b031660008181526000805160206124428339815191526020526040812054909190600080516020612382833981519152906000805160206123a28339815191529060ff1615611c9357818452602052604083208284526020526040832060ff1981541690556000805160206123c2833981519152339380a4600190565b906000918083526000805160206123a283398151915280602052604084209260018060a01b03169283855260205260ff604085205416600014611c9357818452602052604083208284526020526040832060ff1981541690556000805160206123c2833981519152339380a4600190565b60ff6000805160206124228339815191525460401c16156121ec57565b604051631afcd79f60e31b8152600490fd5b90612225575080511561221357805190602001fd5b60405163d6bda27560e01b8152600490fd5b81511580612258575b612236575090565b604051639996b31560e01b81526001600160a01b039091166004820152602490fd5b50803b1561222e56fe2f8788117e7eff1d82e926ec794901d17c78024a50270940304540a733656f0dc5e2d1653feba496cf5ce3a744b90ea18acf0df3d036aba9b2f85992a1467906cee578699694e0144c2aba4ed7fb4e9131a3e2dbd751e7f11a646cc6a39d67bd793a6c9b7e0a9549c74edc2f9ae0dc50903dfaa9a56fb0116b27a8c71de3e2c6868522670d589d22700e0fd6a68677def66d00d118329570a4ee214482e89a95b16e88c42fd4e48df2dd6a2eabd6bc9aec654ec170056b470819f8892cc6431c30d41a597cac127d8249d31298b50e481ee82c3f4a49ff93c76a22735aa9f3ad04c9af967d21e6282dc31b054f3b8130ec8bf568c07df77a8a68591ccb1b1c30360894a13ba1a3210667c828492db98dca3e2076cc3735a920a3ca505d382bbc9027349758afcb3649adbc1f090fcd4eb9187cfbbd22483c7d103367d7b5017302dd7bc7dec4dceedda775e58dd541e08a116c6c53815c0bd028192f7b626800f6391f5c32d9c69d2a47ea670b442974b53935d1edc7fd64eb21e047a839171ba49807205ce4d355092ef5a8a18f56e8913cf4a201fbe287825b095693c217750cfb002fcf8644f87ebf6cf6e31899c8d8e9f7c329b465b6e36989a958507e8bf0c57e16840df040f15088dc2f81fe391c3923bec73e23a9662efc9c229c6a00617055eab3c2deca137542394cd2a9323004430c6c4280074ddde325664e4aafa2646970667358221220eb21c27cad1be02beb854756c1bab8fff46214d81dac598f94da4bd36bfbcd9864736f6c63430008160033",
  "linkReferences": {},
  "deployedLinkReferences": {}
}