{
  "_format": "hh-sol-artifact-1",
  "contractName": "TestTermController",
  "sourceName": "contracts/test/TestTermController.sol",
  "abi": [
    {
      "anonymous": false,
      "inputs": [
        {
          "indexed": false,
          "internalType": "address",
          "name": "previousAdmin",
          "type": "address"
        },
        {
          "indexed": false,
          "internalType": "address",
          "name": "newAdmin",
          "type": "address"
        }
      ],
      "name": "AdminChanged",
      "type": "event"
    },
    {
      "anonymous": false,
      "inputs": [
        {
          "indexed": true,
          "internalType": "address",
          "name": "beacon",
          "type": "address"
        }
      ],
      "name": "BeaconUpgraded",
      "type": "event"
    },
    {
      "anonymous": false,
      "inputs": [
        {
          "indexed": false,
          "internalType": "uint8",
          "name": "version",
          "type": "uint8"
        }
      ],
      "name": "Initialized",
      "type": "event"
    },
    {
      "anonymous": false,
      "inputs": [
        {
          "indexed": false,
          "internalType": "address",
          "name": "oldProtocolReserveAddress",
          "type": "address"
        },
        {
          "indexed": false,
          "internalType": "address",
          "name": "newProtocolReserveAddress",
          "type": "address"
        }
      ],
      "name": "ProtocolReserveAddressUpdated",
      "type": "event"
    },
    {
      "anonymous": false,
      "inputs": [
        {
          "indexed": true,
          "internalType": "bytes32",
          "name": "role",
          "type": "bytes32"
        },
        {
          "indexed": true,
          "internalType": "bytes32",
          "name": "previousAdminRole",
          "type": "bytes32"
        },
        {
          "indexed": true,
          "internalType": "bytes32",
          "name": "newAdminRole",
          "type": "bytes32"
        }
      ],
      "name": "RoleAdminChanged",
      "type": "event"
    },
    {
      "anonymous": false,
      "inputs": [
        {
          "indexed": true,
          "internalType": "bytes32",
          "name": "role",
          "type": "bytes32"
        },
        {
          "indexed": true,
          "internalType": "address",
          "name": "account",
          "type": "address"
        },
        {
          "indexed": true,
          "internalType": "address",
          "name": "sender",
          "type": "address"
        }
      ],
      "name": "RoleGranted",
      "type": "event"
    },
    {
      "anonymous": false,
      "inputs": [
        {
          "indexed": true,
          "internalType": "bytes32",
          "name": "role",
          "type": "bytes32"
        },
        {
          "indexed": true,
          "internalType": "address",
          "name": "account",
          "type": "address"
        },
        {
          "indexed": true,
          "internalType": "address",
          "name": "sender",
          "type": "address"
        }
      ],
      "name": "RoleRevoked",
      "type": "event"
    },
    {
      "anonymous": false,
      "inputs": [
        {
          "indexed": false,
          "internalType": "address",
          "name": "oldTreasuryAddress",
          "type": "address"
        },
        {
          "indexed": false,
          "internalType": "address",
          "name": "newTreasuryAddress",
          "type": "address"
        }
      ],
      "name": "TreasuryAddressUpdated",
      "type": "event"
    },
    {
      "anonymous": false,
      "inputs": [
        {
          "indexed": true,
          "internalType": "address",
          "name": "implementation",
          "type": "address"
        }
      ],
      "name": "Upgraded",
      "type": "event"
    },
    {
      "inputs": [],
      "name": "ADMIN_ROLE",
      "outputs": [
        {
          "internalType": "bytes32",
          "name": "",
          "type": "bytes32"
        }
      ],
      "stateMutability": "view",
      "type": "function"
    },
    {
      "inputs": [],
      "name": "AUCTION_ROLE",
      "outputs": [
        {
          "internalType": "bytes32",
          "name": "",
          "type": "bytes32"
        }
      ],
      "stateMutability": "view",
      "type": "function"
    },
    {
      "inputs": [],
      "name": "CONTROLLER_ADMIN_ROLE",
      "outputs": [
        {
          "internalType": "bytes32",
          "name": "",
          "type": "bytes32"
        }
      ],
      "stateMutability": "view",
      "type": "function"
    },
    {
      "inputs": [],
      "name": "DEFAULT_ADMIN_ROLE",
      "outputs": [
        {
          "internalType": "bytes32",
          "name": "",
          "type": "bytes32"
        }
      ],
      "stateMutability": "view",
      "type": "function"
    },
    {
      "inputs": [],
      "name": "DEVOPS_ROLE",
      "outputs": [
        {
          "internalType": "bytes32",
          "name": "",
          "type": "bytes32"
        }
      ],
      "stateMutability": "view",
      "type": "function"
    },
    {
      "inputs": [],
      "name": "INITIALIZER_ROLE",
      "outputs": [
        {
          "internalType": "bytes32",
          "name": "",
          "type": "bytes32"
        }
      ],
      "stateMutability": "view",
      "type": "function"
    },
    {
      "inputs": [],
      "name": "SPECIALIST_ROLE",
      "outputs": [
        {
          "internalType": "bytes32",
          "name": "",
          "type": "bytes32"
        }
      ],
      "stateMutability": "view",
      "type": "function"
    },
    {
      "inputs": [],
      "name": "getProtocolReserveAddress",
      "outputs": [
        {
          "internalType": "address",
          "name": "",
          "type": "address"
        }
      ],
      "stateMutability": "view",
      "type": "function"
    },
    {
      "inputs": [
        {
          "internalType": "bytes32",
          "name": "role",
          "type": "bytes32"
        }
      ],
      "name": "getRoleAdmin",
      "outputs": [
        {
          "internalType": "bytes32",
          "name": "",
          "type": "bytes32"
        }
      ],
      "stateMutability": "view",
      "type": "function"
    },
    {
      "inputs": [
        {
          "internalType": "bytes32",
          "name": "termRepoId",
          "type": "bytes32"
        }
      ],
      "name": "getTermAuctionResults",
      "outputs": [
        {
          "components": [
            {
              "internalType": "bytes32",
              "name": "termAuctionId",
              "type": "bytes32"
            },
            {
              "internalType": "uint256",
              "name": "auctionClearingRate",
              "type": "uint256"
            },
            {
              "internalType": "uint256",
              "name": "auctionClearingBlockTimestamp",
              "type": "uint256"
            }
          ],
          "internalType": "struct AuctionMetadata[]",
          "name": "auctionMetadata",
          "type": "tuple[]"
        },
        {
          "internalType": "uint8",
          "name": "numOfAuctions",
          "type": "uint8"
        }
      ],
      "stateMutability": "view",
      "type": "function"
    },
    {
      "inputs": [],
      "name": "getTreasuryAddress",
      "outputs": [
        {
          "internalType": "address",
          "name": "",
          "type": "address"
        }
      ],
      "stateMutability": "view",
      "type": "function"
    },
    {
      "inputs": [
        {
          "internalType": "address",
          "name": "authedUser",
          "type": "address"
        }
      ],
      "name": "grantMintExposureAccess",
      "outputs": [],
      "stateMutability": "nonpayable",
      "type": "function"
    },
    {
      "inputs": [
        {
          "internalType": "bytes32",
          "name": "role",
          "type": "bytes32"
        },
        {
          "internalType": "address",
          "name": "account",
          "type": "address"
        }
      ],
      "name": "grantRole",
      "outputs": [],
      "stateMutability": "nonpayable",
      "type": "function"
    },
    {
      "inputs": [
        {
          "internalType": "bytes32",
          "name": "role",
          "type": "bytes32"
        },
        {
          "internalType": "address",
          "name": "account",
          "type": "address"
        }
      ],
      "name": "hasRole",
      "outputs": [
        {
          "internalType": "bool",
          "name": "",
          "type": "bool"
        }
      ],
      "stateMutability": "view",
      "type": "function"
    },
    {
      "inputs": [
        {
          "internalType": "address",
          "name": "treasuryWallet_",
          "type": "address"
        },
        {
          "internalType": "address",
          "name": "protocolReserveWallet_",
          "type": "address"
        },
        {
          "internalType": "address",
          "name": "controllerAdminWallet_",
          "type": "address"
        },
        {
          "internalType": "address",
          "name": "devopsWallet_",
          "type": "address"
        },
        {
          "internalType": "address",
          "name": "adminWallet_",
          "type": "address"
        }
      ],
      "name": "initialize",
      "outputs": [],
      "stateMutability": "nonpayable",
      "type": "function"
    },
    {
      "inputs": [
        {
          "internalType": "address",
          "name": "contractAddress",
          "type": "address"
        }
      ],
      "name": "isTermDeployed",
      "outputs": [
        {
          "internalType": "bool",
          "name": "",
          "type": "bool"
        }
      ],
      "stateMutability": "view",
      "type": "function"
    },
    {
      "inputs": [
        {
          "internalType": "address",
          "name": "termContract",
          "type": "address"
        }
      ],
      "name": "markTermDeployed",
      "outputs": [],
      "stateMutability": "nonpayable",
      "type": "function"
    },
    {
      "inputs": [
        {
          "internalType": "address",
          "name": "auction",
          "type": "address"
        }
      ],
      "name": "pairAuction",
      "outputs": [],
      "stateMutability": "nonpayable",
      "type": "function"
    },
    {
      "inputs": [
        {
          "internalType": "address",
          "name": "initializer",
          "type": "address"
        }
      ],
      "name": "pairInitializer",
      "outputs": [],
      "stateMutability": "nonpayable",
      "type": "function"
    },
    {
      "inputs": [],
      "name": "proxiableUUID",
      "outputs": [
        {
          "internalType": "bytes32",
          "name": "",
          "type": "bytes32"
        }
      ],
      "stateMutability": "view",
      "type": "function"
    },
    {
      "inputs": [
        {
          "internalType": "bytes32",
          "name": "termRepoId",
          "type": "bytes32"
        },
        {
          "internalType": "bytes32",
          "name": "termAuctionId",
          "type": "bytes32"
        },
        {
          "internalType": "uint256",
          "name": "auctionClearingRate",
          "type": "uint256"
        }
      ],
      "name": "recordAuctionResult",
      "outputs": [],
      "stateMutability": "nonpayable",
      "type": "function"
    },
    {
      "inputs": [
        {
          "internalType": "bytes32",
          "name": "role",
          "type": "bytes32"
        },
        {
          "internalType": "address",
          "name": "account",
          "type": "address"
        }
      ],
      "name": "renounceRole",
      "outputs": [],
      "stateMutability": "nonpayable",
      "type": "function"
    },
    {
      "inputs": [
        {
          "internalType": "address",
          "name": "revokedUser",
          "type": "address"
        }
      ],
      "name": "revokeMintExposureAccess",
      "outputs": [],
      "stateMutability": "nonpayable",
      "type": "function"
    },
    {
      "inputs": [
        {
          "internalType": "bytes32",
          "name": "role",
          "type": "bytes32"
        },
        {
          "internalType": "address",
          "name": "account",
          "type": "address"
        }
      ],
      "name": "revokeRole",
      "outputs": [],
      "stateMutability": "nonpayable",
      "type": "function"
    },
    {
      "inputs": [
        {
          "internalType": "bytes4",
          "name": "interfaceId",
          "type": "bytes4"
        }
      ],
      "name": "supportsInterface",
      "outputs": [
        {
          "internalType": "bool",
          "name": "",
          "type": "bool"
        }
      ],
      "stateMutability": "view",
      "type": "function"
    },
    {
      "inputs": [
        {
          "internalType": "address",
          "name": "termContract",
          "type": "address"
        }
      ],
      "name": "unmarkTermDeployed",
      "outputs": [],
      "stateMutability": "nonpayable",
      "type": "function"
    },
    {
      "inputs": [
        {
          "internalType": "address",
          "name": "oldControllerAdminWallet",
          "type": "address"
        },
        {
          "internalType": "address",
          "name": "newControllerAdminWallet",
          "type": "address"
        }
      ],
      "name": "updateControllerAdminWallet",
      "outputs": [],
      "stateMutability": "nonpayable",
      "type": "function"
    },
    {
      "inputs": [
        {
          "internalType": "address",
          "name": "newProtocolReserveWallet",
          "type": "address"
        }
      ],
      "name": "updateProtocolReserveAddress",
      "outputs": [],
      "stateMutability": "nonpayable",
      "type": "function"
    },
    {
      "inputs": [
        {
          "internalType": "address",
          "name": "newTreasuryWallet",
          "type": "address"
        }
      ],
      "name": "updateTreasuryAddress",
      "outputs": [],
      "stateMutability": "nonpayable",
      "type": "function"
    },
    {
      "inputs": [
        {
          "internalType": "address",
          "name": "upgradeAddress",
          "type": "address"
        }
      ],
      "name": "upgrade",
      "outputs": [],
      "stateMutability": "view",
      "type": "function"
    },
    {
      "inputs": [
        {
          "internalType": "address",
          "name": "newImplementation",
          "type": "address"
        }
      ],
      "name": "upgradeTo",
      "outputs": [],
      "stateMutability": "nonpayable",
      "type": "function"
    },
    {
      "inputs": [
        {
          "internalType": "address",
          "name": "newImplementation",
          "type": "address"
        },
        {
          "internalType": "bytes",
          "name": "data",
          "type": "bytes"
        }
      ],
      "name": "upgradeToAndCall",
      "outputs": [],
      "stateMutability": "payable",
      "type": "function"
    },
    {
      "inputs": [
        {
          "internalType": "address",
          "name": "authedUser",
          "type": "address"
        }
      ],
      "name": "verifyMintExposureAccess",
      "outputs": [
        {
          "internalType": "bool",
          "name": "",
          "type": "bool"
        }
      ],
      "stateMutability": "view",
      "type": "function"
    },
    {
      "inputs": [],
      "name": "version",
      "outputs": [
        {
          "internalType": "string",
          "name": "",
          "type": "string"
        }
      ],
      "stateMutability": "view",
      "type": "function"
    }
  ],
  "bytecode": "0x60a06040523060805234801561001457600080fd5b5061001d610022565b6100e1565b600054610100900460ff161561008e5760405162461bcd60e51b815260206004820152602760248201527f496e697469616c697a61626c653a20636f6e747261637420697320696e697469604482015266616c697a696e6760c81b606482015260840160405180910390fd5b60005460ff908116146100df576000805460ff191660ff9081179091556040519081527f7f26b83ff96e1f2b6a682f133852f6798a09c465da95921460cefb38474024989060200160405180910390a15b565b6080516121276200011960003960008181610bee01528181610c2e01528181610ce301528181610d230152610d9b01526121276000f3fe6080604052600436106101b95760003560e01c80634f1ef286116100ed5780639e2a2046116100905780639e2a20461461053f578063a217fddf1461055f578063a2a61aed14610574578063a4018f1314610594578063d547741f146105b6578063e0024604146105d6578063e1b961f4146105f4578063e7e4b8db14610614578063f87fd33a1461063457600080fd5b80634f1ef2861461042d57806352d1902d1461044057806354fd4d50146104555780636ca5d56d1461048f57806375b238fc146104af5780637f2fdf48146104d1578063841e4561146104ff57806391d148541461051f57600080fd5b806327df3d3e1161016057806327df3d3e1461030757806329392ac7146103295780632ce81074146103495780632f2ff15d1461036957806336568abe146103895780633659cfe6146103a95780633f67c561146103c9578063430730a3146103e95780634bb4193c1461040b57600080fd5b806301ffc9a7146101be578063025f1a5e146101f357806304485707146102255780630900f010146102475780631459457a1461026757806315aa2d7414610287578063201a6625146102a7578063248a9ca3146102d7575b600080fd5b3480156101ca57600080fd5b506101de6101d9366004611b13565b610654565b60405190151581526020015b60405180910390f35b3480156101ff57600080fd5b5060fc546001600160a01b03165b6040516001600160a01b0390911681526020016101ea565b34801561023157600080fd5b50610245610240366004611b59565b61068b565b005b34801561025357600080fd5b50610245610262366004611b59565b6106bf565b34801561027357600080fd5b50610245610282366004611b74565b6106cb565b34801561029357600080fd5b506101de6102a2366004611b59565b610a13565b3480156102b357600080fd5b506102c960008051602061202b83398151915281565b6040519081526020016101ea565b3480156102e357600080fd5b506102c96102f2366004611bd9565b60009081526065602052604090206001015490565b34801561031357600080fd5b506102c960008051602061204b83398151915281565b34801561033557600080fd5b50610245610344366004611b59565b610a2d565b34801561035557600080fd5b50610245610364366004611b59565b610b10565b34801561037557600080fd5b50610245610384366004611bf2565b610b40565b34801561039557600080fd5b506102456103a4366004611bf2565b610b6a565b3480156103b557600080fd5b506102456103c4366004611b59565b610be4565b3480156103d557600080fd5b506102456103e4366004611b59565b610ca9565b3480156103f557600080fd5b506102c9600080516020611feb83398151915281565b34801561041757600080fd5b506102c96000805160206120b283398151915281565b61024561043b366004611c34565b610cd9565b34801561044c57600080fd5b506102c9610d8e565b34801561046157600080fd5b50604080518082018252600b81526a19195d995b1bdc1b595b9d60aa1b602082015290516101ea9190611d1a565b34801561049b57600080fd5b506102456104aa366004611d4d565b610e3c565b3480156104bb57600080fd5b506102c96000805160206120d283398151915281565b3480156104dd57600080fd5b506104f16104ec366004611bd9565b610fe0565b6040516101ea929190611d77565b34801561050b57600080fd5b5061024561051a366004611b59565b61107f565b34801561052b57600080fd5b506101de61053a366004611bf2565b611147565b34801561054b57600080fd5b5061024561055a366004611b59565b611172565b34801561056b57600080fd5b506102c9600081565b34801561058057600080fd5b5061024561058f366004611ddc565b611203565b3480156105a057600080fd5b506102c960008051602061200b83398151915281565b3480156105c257600080fd5b506102456105d1366004611bf2565b6112a6565b3480156105e257600080fd5b5060fb546001600160a01b031661020d565b34801561060057600080fd5b5061024561060f366004611b59565b6112cb565b34801561062057600080fd5b506101de61062f366004611b59565b611354565b34801561064057600080fd5b5061024561064f366004611b59565b61135f565b60006001600160e01b03198216637965db0b60e01b148061068557506301ffc9a760e01b6001600160e01b03198316145b92915050565b6000805160206120d28339815191526106a38161138f565b6106bb60008051602061204b83398151915283611399565b5050565b6106c88161141f565b50565b600054610100900460ff16158080156106eb5750600054600160ff909116105b8061070c57506106fa30611437565b15801561070c575060005460ff166001145b6107745760405162461bcd60e51b815260206004820152602e60248201527f496e697469616c697a61626c653a20636f6e747261637420697320616c72656160448201526d191e481a5b9a5d1a585b1a5e995960921b60648201526084015b60405180910390fd5b6000805460ff191660011790558015610797576000805461ff0019166101001790555b61079f611446565b6107a7611446565b6001600160a01b0384166107fd5760405162461bcd60e51b815260206004820181905260248201527f636f6e74726f6c6c65722061646d696e206973207a65726f2061646472657373604482015260640161076b565b6001600160a01b0383166108535760405162461bcd60e51b815260206004820152601d60248201527f6465766f70732077616c6c6574206973207a65726f2061646472657373000000604482015260640161076b565b6001600160a01b0382166108a95760405162461bcd60e51b815260206004820152601c60248201527f61646d696e2077616c6c6574206973207a65726f206164647265737300000000604482015260640161076b565b6108c16000805160206120b283398151915285611399565b6108d960008051602061202b83398151915284611399565b6108f16000805160206120d283398151915283611399565b6001600160a01b0386166109425760405162461bcd60e51b81526020600482015260186024820152777472656173757279206973207a65726f206164647265737360401b604482015260640161076b565b60fb80546001600160a01b0319166001600160a01b038881169190911790915585166109aa5760405162461bcd60e51b815260206004820152601760248201527672657365727665206973207a65726f206164647265737360481b604482015260640161076b565b60fc80546001600160a01b0319166001600160a01b0387161790558015610a0b576000805461ff0019169055604051600181527f7f26b83ff96e1f2b6a682f133852f6798a09c465da95921460cefb38474024989060200160405180910390a15b505050505050565b600061068560008051602061200b83398151915283611147565b60008051602061202b833981519152610a458161138f565b60fc546001600160a01b0390811690831603610ab15760405162461bcd60e51b815260206004820152602560248201527f4e6f206368616e676520696e2070726f746f636f6c2072657365727665206164604482015264647265737360d81b606482015260840161076b565b60fc80546001600160a01b038481166001600160a01b0319831681179093556040519116917f2d7faa6887bec3599aecfe7648b4488b13aed14af1639d48ff942da0c10c552d91610b03918491611e08565b60405180910390a1505050565b60008051602061204b833981519152610b288161138f565b6106bb600080516020611feb83398151915283611399565b600082815260656020526040902060010154610b5b8161138f565b610b658383611399565b505050565b6001600160a01b0381163314610bda5760405162461bcd60e51b815260206004820152602f60248201527f416363657373436f6e74726f6c3a2063616e206f6e6c792072656e6f756e636560448201526e103937b632b9903337b91039b2b63360891b606482015260840161076b565b6106bb82826114b3565b6001600160a01b037f0000000000000000000000000000000000000000000000000000000000000000163003610c2c5760405162461bcd60e51b815260040161076b90611e22565b7f00000000000000000000000000000000000000000000000000000000000000006001600160a01b0316610c5e61151a565b6001600160a01b031614610c845760405162461bcd60e51b815260040161076b90611e6e565b610c8d8161141f565b604080516000808252602082019092526106c891839190611536565b6000805160206120d2833981519152610cc18161138f565b6106bb60008051602061200b833981519152836114b3565b6001600160a01b037f0000000000000000000000000000000000000000000000000000000000000000163003610d215760405162461bcd60e51b815260040161076b90611e22565b7f00000000000000000000000000000000000000000000000000000000000000006001600160a01b0316610d5361151a565b6001600160a01b031614610d795760405162461bcd60e51b815260040161076b90611e6e565b610d828261141f565b6106bb82826001611536565b6000306001600160a01b037f00000000000000000000000000000000000000000000000000000000000000001614610e295760405162461bcd60e51b815260206004820152603860248201527f555550535570677261646561626c653a206d757374206e6f742062652063616c6044820152771b1959081d1a1c9bdd59da0819195b1959d85d1958d85b1b60421b606482015260840161076b565b5060008051602061206b83398151915290565b60008051602061202b833981519152610e548161138f565b6001600160a01b038316610ec55760405162461bcd60e51b815260206004820152603260248201527f4f6c6420436f6e74726f6c6c65722041646d696e2057616c6c65742063616e6e6044820152716f74206265207a65726f206164647265737360701b606482015260840161076b565b6001600160a01b038216610f365760405162461bcd60e51b815260206004820152603260248201527f4e657720436f6e74726f6c6c65722041646d696e2057616c6c65742063616e6e6044820152716f74206265207a65726f206164647265737360701b606482015260840161076b565b610f4e6000805160206120b283398151915284611147565b610fb05760405162461bcd60e51b815260206004820152602d60248201527f696e636f7272656374206f6c6420636f6e74726f6c6c65722061646d696e207760448201526c616c6c6574206164647265737360981b606482015260840161076b565b610fc86000805160206120b2833981519152846114b3565b610b656000805160206120b283398151915283611399565b600081815260fe60209081526040808320805482518185028101850190935280835260609493849084015b8282101561105b578382906000526020600020906003020160405180606001604052908160008201548152602001600182015481526020016002820154815250508152602001906001019061100b565b50505060009485525060fe602052604090932060010154929360ff90931692915050565b60008051602061202b8339815191526110978161138f565b60fb546001600160a01b03908116908316036110f55760405162461bcd60e51b815260206004820152601d60248201527f4e6f206368616e676520696e2074726561737572792061646472657373000000604482015260640161076b565b60fb80546001600160a01b038481166001600160a01b0319831681179093556040519116917f430359a6d97ced2b6f93c77a91e7ce9dfd43252eb91e916adba170485cd8a6a491610b03918491611e08565b60009182526065602090815260408084206001600160a01b0393909316845291905290205460ff1690565b6000805160206120b283398151915261118a8161138f565b611193826116a1565b156111de5760405162461bcd60e51b815260206004820152601b60248201527a436f6e747261637420697320616c726561647920696e205465726d60281b604482015260640161076b565b506001600160a01b0316600090815260fd60205260409020805460ff19166001179055565b600080516020611feb83398151915261121b8161138f565b600084815260fe602090815260408083208151606081018352878152808401878152429382019384528254600181810185558488529587208351600390920201908155905181860155925160029093019290925591820180549293919260ff169161128583611ed0565b91906101000a81548160ff021916908360ff16021790555050505050505050565b6000828152606560205260409020600101546112c18161138f565b610b6583836114b3565b6000805160206120b28339815191526112e38161138f565b6112ec826116a1565b6113325760405162461bcd60e51b8152602060048201526017602482015276436f6e7472616374206973206e6f7420696e205465726d60481b604482015260640161076b565b506001600160a01b0316600090815260fd60205260409020805460ff19169055565b6000610685826116a1565b6000805160206120d28339815191526113778161138f565b6106bb60008051602061200b83398151915283611399565b6106c881336116bf565b6113a38282611147565b6106bb5760008281526065602090815260408083206001600160a01b03851684529091529020805460ff191660011790556113db3390565b6001600160a01b0316816001600160a01b0316837f2f8788117e7eff1d82e926ec794901d17c78024a50270940304540a733656f0d60405160405180910390a45050565b60008051602061202b8339815191526106bb8161138f565b6001600160a01b03163b151590565b600054610100900460ff166114b15760405162461bcd60e51b815260206004820152602b60248201527f496e697469616c697a61626c653a20636f6e7472616374206973206e6f74206960448201526a6e697469616c697a696e6760a81b606482015260840161076b565b565b6114bd8282611147565b156106bb5760008281526065602090815260408083206001600160a01b0385168085529252808320805460ff1916905551339285917ff6391f5c32d9c69d2a47ea670b442974b53935d1edc7fd64eb21e047a839171b9190a45050565b60008051602061206b833981519152546001600160a01b031690565b7f4910fdfa16fed3260ed0e7147f7cc6da11a60208b5b9406d12a635614ffd91435460ff161561156957610b6583611718565b826001600160a01b03166352d1902d6040518163ffffffff1660e01b8152600401602060405180830381865afa9250505080156115c3575060408051601f3d908101601f191682019092526115c091810190611eef565b60015b6116265760405162461bcd60e51b815260206004820152602e60248201527f45524331393637557067726164653a206e657720696d706c656d656e7461746960448201526d6f6e206973206e6f74205555505360901b606482015260840161076b565b60008051602061206b83398151915281146116955760405162461bcd60e51b815260206004820152602960248201527f45524331393637557067726164653a20756e737570706f727465642070726f786044820152681a58589b195555525160ba1b606482015260840161076b565b50610b658383836117b2565b6001600160a01b0316600090815260fd602052604090205460ff1690565b6116c98282611147565b6106bb576116d6816117dd565b6116e18360206117ef565b6040516020016116f2929190611f08565b60408051601f198184030181529082905262461bcd60e51b825261076b91600401611d1a565b61172181611437565b6117835760405162461bcd60e51b815260206004820152602d60248201527f455243313936373a206e657720696d706c656d656e746174696f6e206973206e60448201526c1bdd08184818dbdb9d1c9858dd609a1b606482015260840161076b565b60008051602061206b83398151915280546001600160a01b0319166001600160a01b0392909216919091179055565b6117bb83611992565b6000825111806117c85750805b15610b65576117d783836119d2565b50505050565b60606106856001600160a01b03831660145b606060006117fe836002611f77565b611809906002611f8e565b67ffffffffffffffff81111561182157611821611c1e565b6040519080825280601f01601f19166020018201604052801561184b576020820181803683370190505b509050600360fc1b8160008151811061186657611866611fa1565b60200101906001600160f81b031916908160001a905350600f60fb1b8160018151811061189557611895611fa1565b60200101906001600160f81b031916908160001a90535060006118b9846002611f77565b6118c4906001611f8e565b90505b600181111561193c576f181899199a1a9b1b9c1cb0b131b232b360811b85600f16601081106118f8576118f8611fa1565b1a60f81b82828151811061190e5761190e611fa1565b60200101906001600160f81b031916908160001a90535060049490941c9361193581611fb7565b90506118c7565b50831561198b5760405162461bcd60e51b815260206004820181905260248201527f537472696e67733a20686578206c656e67746820696e73756666696369656e74604482015260640161076b565b9392505050565b61199b81611718565b6040516001600160a01b038216907fbc7cd75a20ee27fd9adebab32041f755214dbc6bffa90cc0225b39da2e5c2d3b90600090a250565b606061198b838360405180606001604052806027815260200161208b602791396060600080856001600160a01b031685604051611a0f9190611fce565b600060405180830381855af49150503d8060008114611a4a576040519150601f19603f3d011682016040523d82523d6000602084013e611a4f565b606091505b5091509150611a6086838387611a6a565b9695505050505050565b60608315611ad7578251600003611ad057611a8485611437565b611ad05760405162461bcd60e51b815260206004820152601d60248201527f416464726573733a2063616c6c20746f206e6f6e2d636f6e7472616374000000604482015260640161076b565b5081611ae1565b611ae18383611ae9565b949350505050565b815115611af95781518083602001fd5b8060405162461bcd60e51b815260040161076b9190611d1a565b600060208284031215611b2557600080fd5b81356001600160e01b03198116811461198b57600080fd5b80356001600160a01b0381168114611b5457600080fd5b919050565b600060208284031215611b6b57600080fd5b61198b82611b3d565b600080600080600060a08688031215611b8c57600080fd5b611b9586611b3d565b9450611ba360208701611b3d565b9350611bb160408701611b3d565b9250611bbf60608701611b3d565b9150611bcd60808701611b3d565b90509295509295909350565b600060208284031215611beb57600080fd5b5035919050565b60008060408385031215611c0557600080fd5b82359150611c1560208401611b3d565b90509250929050565b634e487b7160e01b600052604160045260246000fd5b60008060408385031215611c4757600080fd5b611c5083611b3d565b9150602083013567ffffffffffffffff80821115611c6d57600080fd5b818501915085601f830112611c8157600080fd5b813581811115611c9357611c93611c1e565b604051601f8201601f19908116603f01168101908382118183101715611cbb57611cbb611c1e565b81604052828152886020848701011115611cd457600080fd5b8260208601602083013760006020848301015280955050505050509250929050565b60005b83811015611d11578181015183820152602001611cf9565b50506000910152565b6020815260008251806020840152611d39816040850160208701611cf6565b601f01601f19169190910160400192915050565b60008060408385031215611d6057600080fd5b611d6983611b3d565b9150611c1560208401611b3d565b6040808252835182820181905260009190606090818501906020808901865b83811015611dc3578151805186528381015184870152870151878601529385019390820190600101611d96565b505082955060ff88168188015250505050509392505050565b600080600060608486031215611df157600080fd5b505081359360208301359350604090920135919050565b6001600160a01b0392831681529116602082015260400190565b6020808252602c908201527f46756e6374696f6e206d7573742062652063616c6c6564207468726f7567682060408201526b19195b1959d85d1958d85b1b60a21b606082015260800190565b6020808252602c908201527f46756e6374696f6e206d7573742062652063616c6c6564207468726f7567682060408201526b6163746976652070726f787960a01b606082015260800190565b634e487b7160e01b600052601160045260246000fd5b600060ff821660ff8103611ee657611ee6611eba565b60010192915050565b600060208284031215611f0157600080fd5b5051919050565b76020b1b1b2b9b9a1b7b73a3937b61d1030b1b1b7bab73a1604d1b815260008351611f3a816017850160208801611cf6565b7001034b99036b4b9b9b4b733903937b6329607d1b6017918401918201528351611f6b816028840160208801611cf6565b01602801949350505050565b808202811582820484141761068557610685611eba565b8082018082111561068557610685611eba565b634e487b7160e01b600052603260045260246000fd5b600081611fc657611fc6611eba565b506000190190565b60008251611fe0818460208701611cf6565b919091019291505056fec5e2d1653feba496cf5ce3a744b90ea18acf0df3d036aba9b2f85992a1467906cee578699694e0144c2aba4ed7fb4e9131a3e2dbd751e7f11a646cc6a39d67bd793a6c9b7e0a9549c74edc2f9ae0dc50903dfaa9a56fb0116b27a8c71de3e2c630d41a597cac127d8249d31298b50e481ee82c3f4a49ff93c76a22735aa9f3ad360894a13ba1a3210667c828492db98dca3e2076cc3735a920a3ca505d382bbc416464726573733a206c6f772d6c6576656c2064656c65676174652063616c6c206661696c65649027349758afcb3649adbc1f090fcd4eb9187cfbbd22483c7d103367d7b50173a49807205ce4d355092ef5a8a18f56e8913cf4a201fbe287825b095693c21775a2646970667358221220b64a5b24fde18b168237f34471693b47a033605f1d15888950deee986fae62f564736f6c63430008120033",
  "linkReferences": {},
  "deployedLinkReferences": {}
}