{
  "_format": "hh-sol-artifact-1",
  "contractName": "TermRepoToken",
  "sourceName": "contracts/TermRepoToken.sol",
  "abi": [
    {
      "inputs": [],
      "stateMutability": "nonpayable",
      "type": "constructor"
    },
    {
      "inputs": [],
      "name": "AccessControlBadConfirmation",
      "type": "error"
    },
    {
      "inputs": [
        {
          "internalType": "address",
          "name": "account",
          "type": "address"
        },
        {
          "internalType": "bytes32",
          "name": "neededRole",
          "type": "bytes32"
        }
      ],
      "name": "AccessControlUnauthorizedAccount",
      "type": "error"
    },
    {
      "inputs": [
        {
          "internalType": "address",
          "name": "target",
          "type": "address"
        }
      ],
      "name": "AddressEmptyCode",
      "type": "error"
    },
    {
      "inputs": [],
      "name": "AlreadyTermContractPaired",
      "type": "error"
    },
    {
      "inputs": [],
      "name": "ECDSAInvalidSignature",
      "type": "error"
    },
    {
      "inputs": [
        {
          "internalType": "uint256",
          "name": "length",
          "type": "uint256"
        }
      ],
      "name": "ECDSAInvalidSignatureLength",
      "type": "error"
    },
    {
      "inputs": [
        {
          "internalType": "bytes32",
          "name": "s",
          "type": "bytes32"
        }
      ],
      "name": "ECDSAInvalidSignatureS",
      "type": "error"
    },
    {
      "inputs": [
        {
          "internalType": "address",
          "name": "implementation",
          "type": "address"
        }
      ],
      "name": "ERC1967InvalidImplementation",
      "type": "error"
    },
    {
      "inputs": [],
      "name": "ERC1967NonPayable",
      "type": "error"
    },
    {
      "inputs": [
        {
          "internalType": "address",
          "name": "spender",
          "type": "address"
        },
        {
          "internalType": "uint256",
          "name": "allowance",
          "type": "uint256"
        },
        {
          "internalType": "uint256",
          "name": "needed",
          "type": "uint256"
        }
      ],
      "name": "ERC20InsufficientAllowance",
      "type": "error"
    },
    {
      "inputs": [
        {
          "internalType": "address",
          "name": "sender",
          "type": "address"
        },
        {
          "internalType": "uint256",
          "name": "balance",
          "type": "uint256"
        },
        {
          "internalType": "uint256",
          "name": "needed",
          "type": "uint256"
        }
      ],
      "name": "ERC20InsufficientBalance",
      "type": "error"
    },
    {
      "inputs": [
        {
          "internalType": "address",
          "name": "approver",
          "type": "address"
        }
      ],
      "name": "ERC20InvalidApprover",
      "type": "error"
    },
    {
      "inputs": [
        {
          "internalType": "address",
          "name": "receiver",
          "type": "address"
        }
      ],
      "name": "ERC20InvalidReceiver",
      "type": "error"
    },
    {
      "inputs": [
        {
          "internalType": "address",
          "name": "sender",
          "type": "address"
        }
      ],
      "name": "ERC20InvalidSender",
      "type": "error"
    },
    {
      "inputs": [
        {
          "internalType": "address",
          "name": "spender",
          "type": "address"
        }
      ],
      "name": "ERC20InvalidSpender",
      "type": "error"
    },
    {
      "inputs": [
        {
          "internalType": "uint256",
          "name": "deadline",
          "type": "uint256"
        }
      ],
      "name": "ERC2612ExpiredSignature",
      "type": "error"
    },
    {
      "inputs": [
        {
          "internalType": "address",
          "name": "signer",
          "type": "address"
        },
        {
          "internalType": "address",
          "name": "owner",
          "type": "address"
        }
      ],
      "name": "ERC2612InvalidSigner",
      "type": "error"
    },
    {
      "inputs": [],
      "name": "FailedCall",
      "type": "error"
    },
    {
      "inputs": [
        {
          "internalType": "address",
          "name": "account",
          "type": "address"
        },
        {
          "internalType": "uint256",
          "name": "currentNonce",
          "type": "uint256"
        }
      ],
      "name": "InvalidAccountNonce",
      "type": "error"
    },
    {
      "inputs": [],
      "name": "InvalidInitialization",
      "type": "error"
    },
    {
      "inputs": [],
      "name": "MintExposureCapExceeded",
      "type": "error"
    },
    {
      "inputs": [],
      "name": "NotInitializing",
      "type": "error"
    },
    {
      "inputs": [],
      "name": "TermContractsPaused",
      "type": "error"
    },
    {
      "inputs": [],
      "name": "TermRepoTokenBurningPaused",
      "type": "error"
    },
    {
      "inputs": [],
      "name": "TermRepoTokenMintingPaused",
      "type": "error"
    },
    {
      "inputs": [],
      "name": "UUPSUnauthorizedCallContext",
      "type": "error"
    },
    {
      "inputs": [
        {
          "internalType": "bytes32",
          "name": "slot",
          "type": "bytes32"
        }
      ],
      "name": "UUPSUnsupportedProxiableUUID",
      "type": "error"
    },
    {
      "anonymous": false,
      "inputs": [
        {
          "indexed": true,
          "internalType": "address",
          "name": "owner",
          "type": "address"
        },
        {
          "indexed": true,
          "internalType": "address",
          "name": "spender",
          "type": "address"
        },
        {
          "indexed": false,
          "internalType": "uint256",
          "name": "value",
          "type": "uint256"
        }
      ],
      "name": "Approval",
      "type": "event"
    },
    {
      "anonymous": false,
      "inputs": [],
      "name": "EIP712DomainChanged",
      "type": "event"
    },
    {
      "anonymous": false,
      "inputs": [
        {
          "indexed": false,
          "internalType": "uint64",
          "name": "version",
          "type": "uint64"
        }
      ],
      "name": "Initialized",
      "type": "event"
    },
    {
      "anonymous": false,
      "inputs": [
        {
          "indexed": true,
          "internalType": "bytes32",
          "name": "role",
          "type": "bytes32"
        },
        {
          "indexed": true,
          "internalType": "bytes32",
          "name": "previousAdminRole",
          "type": "bytes32"
        },
        {
          "indexed": true,
          "internalType": "bytes32",
          "name": "newAdminRole",
          "type": "bytes32"
        }
      ],
      "name": "RoleAdminChanged",
      "type": "event"
    },
    {
      "anonymous": false,
      "inputs": [
        {
          "indexed": true,
          "internalType": "bytes32",
          "name": "role",
          "type": "bytes32"
        },
        {
          "indexed": true,
          "internalType": "address",
          "name": "account",
          "type": "address"
        },
        {
          "indexed": true,
          "internalType": "address",
          "name": "sender",
          "type": "address"
        }
      ],
      "name": "RoleGranted",
      "type": "event"
    },
    {
      "anonymous": false,
      "inputs": [
        {
          "indexed": true,
          "internalType": "bytes32",
          "name": "role",
          "type": "bytes32"
        },
        {
          "indexed": true,
          "internalType": "address",
          "name": "account",
          "type": "address"
        },
        {
          "indexed": true,
          "internalType": "address",
          "name": "sender",
          "type": "address"
        }
      ],
      "name": "RoleRevoked",
      "type": "event"
    },
    {
      "anonymous": false,
      "inputs": [
        {
          "indexed": true,
          "internalType": "address",
          "name": "from",
          "type": "address"
        },
        {
          "indexed": true,
          "internalType": "address",
          "name": "to",
          "type": "address"
        },
        {
          "indexed": false,
          "internalType": "uint256",
          "name": "value",
          "type": "uint256"
        }
      ],
      "name": "Transfer",
      "type": "event"
    },
    {
      "anonymous": false,
      "inputs": [
        {
          "indexed": true,
          "internalType": "address",
          "name": "implementation",
          "type": "address"
        }
      ],
      "name": "Upgraded",
      "type": "event"
    },
    {
      "inputs": [],
      "name": "ADMIN_ROLE",
      "outputs": [
        {
          "internalType": "bytes32",
          "name": "",
          "type": "bytes32"
        }
      ],
      "stateMutability": "view",
      "type": "function"
    },
    {
      "inputs": [],
      "name": "BURNER_ROLE",
      "outputs": [
        {
          "internalType": "bytes32",
          "name": "",
          "type": "bytes32"
        }
      ],
      "stateMutability": "view",
      "type": "function"
    },
    {
      "inputs": [],
      "name": "DEFAULT_ADMIN_ROLE",
      "outputs": [
        {
          "internalType": "bytes32",
          "name": "",
          "type": "bytes32"
        }
      ],
      "stateMutability": "view",
      "type": "function"
    },
    {
      "inputs": [],
      "name": "DEVOPS_ROLE",
      "outputs": [
        {
          "internalType": "bytes32",
          "name": "",
          "type": "bytes32"
        }
      ],
      "stateMutability": "view",
      "type": "function"
    },
    {
      "inputs": [],
      "name": "DOMAIN_SEPARATOR",
      "outputs": [
        {
          "internalType": "bytes32",
          "name": "",
          "type": "bytes32"
        }
      ],
      "stateMutability": "view",
      "type": "function"
    },
    {
      "inputs": [],
      "name": "INITIALIZER_ROLE",
      "outputs": [
        {
          "internalType": "bytes32",
          "name": "",
          "type": "bytes32"
        }
      ],
      "stateMutability": "view",
      "type": "function"
    },
    {
      "inputs": [],
      "name": "MINTER_ROLE",
      "outputs": [
        {
          "internalType": "bytes32",
          "name": "",
          "type": "bytes32"
        }
      ],
      "stateMutability": "view",
      "type": "function"
    },
    {
      "inputs": [],
      "name": "UPGRADE_INTERFACE_VERSION",
      "outputs": [
        {
          "internalType": "string",
          "name": "",
          "type": "string"
        }
      ],
      "stateMutability": "view",
      "type": "function"
    },
    {
      "inputs": [
        {
          "internalType": "address",
          "name": "owner",
          "type": "address"
        },
        {
          "internalType": "address",
          "name": "spender",
          "type": "address"
        }
      ],
      "name": "allowance",
      "outputs": [
        {
          "internalType": "uint256",
          "name": "",
          "type": "uint256"
        }
      ],
      "stateMutability": "view",
      "type": "function"
    },
    {
      "inputs": [
        {
          "internalType": "address",
          "name": "spender",
          "type": "address"
        },
        {
          "internalType": "uint256",
          "name": "value",
          "type": "uint256"
        }
      ],
      "name": "approve",
      "outputs": [
        {
          "internalType": "bool",
          "name": "",
          "type": "bool"
        }
      ],
      "stateMutability": "nonpayable",
      "type": "function"
    },
    {
      "inputs": [
        {
          "internalType": "address",
          "name": "account",
          "type": "address"
        }
      ],
      "name": "balanceOf",
      "outputs": [
        {
          "internalType": "uint256",
          "name": "",
          "type": "uint256"
        }
      ],
      "stateMutability": "view",
      "type": "function"
    },
    {
      "inputs": [
        {
          "internalType": "address",
          "name": "account",
          "type": "address"
        },
        {
          "internalType": "uint256",
          "name": "amount",
          "type": "uint256"
        }
      ],
      "name": "burn",
      "outputs": [],
      "stateMutability": "nonpayable",
      "type": "function"
    },
    {
      "inputs": [
        {
          "internalType": "address",
          "name": "account",
          "type": "address"
        },
        {
          "internalType": "uint256",
          "name": "amount",
          "type": "uint256"
        }
      ],
      "name": "burnAndReturnValue",
      "outputs": [
        {
          "internalType": "uint256",
          "name": "",
          "type": "uint256"
        }
      ],
      "stateMutability": "nonpayable",
      "type": "function"
    },
    {
      "inputs": [],
      "name": "burningPaused",
      "outputs": [
        {
          "internalType": "bool",
          "name": "",
          "type": "bool"
        }
      ],
      "stateMutability": "view",
      "type": "function"
    },
    {
      "inputs": [],
      "name": "config",
      "outputs": [
        {
          "internalType": "uint256",
          "name": "redemptionTimestamp",
          "type": "uint256"
        },
        {
          "internalType": "address",
          "name": "purchaseToken",
          "type": "address"
        },
        {
          "internalType": "address",
          "name": "termRepoServicer",
          "type": "address"
        },
        {
          "internalType": "address",
          "name": "termRepoCollateralManager",
          "type": "address"
        }
      ],
      "stateMutability": "view",
      "type": "function"
    },
    {
      "inputs": [],
      "name": "decimals",
      "outputs": [
        {
          "internalType": "uint8",
          "name": "",
          "type": "uint8"
        }
      ],
      "stateMutability": "view",
      "type": "function"
    },
    {
      "inputs": [
        {
          "internalType": "uint256",
          "name": "supplyMinted",
          "type": "uint256"
        }
      ],
      "name": "decrementMintExposureCap",
      "outputs": [],
      "stateMutability": "nonpayable",
      "type": "function"
    },
    {
      "inputs": [],
      "name": "eip712Domain",
      "outputs": [
        {
          "internalType": "bytes1",
          "name": "fields",
          "type": "bytes1"
        },
        {
          "internalType": "string",
          "name": "name",
          "type": "string"
        },
        {
          "internalType": "string",
          "name": "version",
          "type": "string"
        },
        {
          "internalType": "uint256",
          "name": "chainId",
          "type": "uint256"
        },
        {
          "internalType": "address",
          "name": "verifyingContract",
          "type": "address"
        },
        {
          "internalType": "bytes32",
          "name": "salt",
          "type": "bytes32"
        },
        {
          "internalType": "uint256[]",
          "name": "extensions",
          "type": "uint256[]"
        }
      ],
      "stateMutability": "view",
      "type": "function"
    },
    {
      "inputs": [],
      "name": "getCollateralRequirements",
      "outputs": [
        {
          "internalType": "address[]",
          "name": "collateralTokens",
          "type": "address[]"
        },
        {
          "internalType": "uint256[]",
          "name": "maintenanceRatios",
          "type": "uint256[]"
        }
      ],
      "stateMutability": "view",
      "type": "function"
    },
    {
      "inputs": [
        {
          "internalType": "bytes32",
          "name": "role",
          "type": "bytes32"
        }
      ],
      "name": "getRoleAdmin",
      "outputs": [
        {
          "internalType": "bytes32",
          "name": "",
          "type": "bytes32"
        }
      ],
      "stateMutability": "view",
      "type": "function"
    },
    {
      "inputs": [
        {
          "internalType": "bytes32",
          "name": "role",
          "type": "bytes32"
        },
        {
          "internalType": "address",
          "name": "account",
          "type": "address"
        }
      ],
      "name": "grantRole",
      "outputs": [],
      "stateMutability": "nonpayable",
      "type": "function"
    },
    {
      "inputs": [
        {
          "internalType": "bytes32",
          "name": "role",
          "type": "bytes32"
        },
        {
          "internalType": "address",
          "name": "account",
          "type": "address"
        }
      ],
      "name": "hasRole",
      "outputs": [
        {
          "internalType": "bool",
          "name": "",
          "type": "bool"
        }
      ],
      "stateMutability": "view",
      "type": "function"
    },
    {
      "inputs": [
        {
          "internalType": "string",
          "name": "termRepoId_",
          "type": "string"
        },
        {
          "internalType": "string",
          "name": "name_",
          "type": "string"
        },
        {
          "internalType": "string",
          "name": "symbol_",
          "type": "string"
        },
        {
          "internalType": "uint8",
          "name": "decimalPlaces_",
          "type": "uint8"
        },
        {
          "internalType": "uint256",
          "name": "redemptionValue_",
          "type": "uint256"
        },
        {
          "internalType": "uint256",
          "name": "mintExposureCap_",
          "type": "uint256"
        },
        {
          "internalType": "address",
          "name": "termInitializer_",
          "type": "address"
        },
        {
          "components": [
            {
              "internalType": "uint256",
              "name": "redemptionTimestamp",
              "type": "uint256"
            },
            {
              "internalType": "address",
              "name": "purchaseToken",
              "type": "address"
            },
            {
              "internalType": "address",
              "name": "termRepoServicer",
              "type": "address"
            },
            {
              "internalType": "address",
              "name": "termRepoCollateralManager",
              "type": "address"
            }
          ],
          "internalType": "struct TermRepoTokenConfig",
          "name": "config_",
          "type": "tuple"
        }
      ],
      "name": "initialize",
      "outputs": [],
      "stateMutability": "nonpayable",
      "type": "function"
    },
    {
      "inputs": [],
      "name": "mintExposureCap",
      "outputs": [
        {
          "internalType": "uint256",
          "name": "",
          "type": "uint256"
        }
      ],
      "stateMutability": "view",
      "type": "function"
    },
    {
      "inputs": [
        {
          "internalType": "address",
          "name": "account",
          "type": "address"
        },
        {
          "internalType": "uint256",
          "name": "redemptionAmount",
          "type": "uint256"
        }
      ],
      "name": "mintRedemptionValue",
      "outputs": [
        {
          "internalType": "uint256",
          "name": "",
          "type": "uint256"
        }
      ],
      "stateMutability": "nonpayable",
      "type": "function"
    },
    {
      "inputs": [
        {
          "internalType": "address",
          "name": "account",
          "type": "address"
        },
        {
          "internalType": "uint256",
          "name": "numTokens",
          "type": "uint256"
        }
      ],
      "name": "mintTokens",
      "outputs": [
        {
          "internalType": "uint256",
          "name": "",
          "type": "uint256"
        }
      ],
      "stateMutability": "nonpayable",
      "type": "function"
    },
    {
      "inputs": [],
      "name": "mintingPaused",
      "outputs": [
        {
          "internalType": "bool",
          "name": "",
          "type": "bool"
        }
      ],
      "stateMutability": "view",
      "type": "function"
    },
    {
      "inputs": [],
      "name": "name",
      "outputs": [
        {
          "internalType": "string",
          "name": "",
          "type": "string"
        }
      ],
      "stateMutability": "view",
      "type": "function"
    },
    {
      "inputs": [
        {
          "internalType": "address",
          "name": "owner",
          "type": "address"
        }
      ],
      "name": "nonces",
      "outputs": [
        {
          "internalType": "uint256",
          "name": "",
          "type": "uint256"
        }
      ],
      "stateMutability": "view",
      "type": "function"
    },
    {
      "inputs": [
        {
          "internalType": "address",
          "name": "termRepoServicer_",
          "type": "address"
        },
        {
          "internalType": "contract ITermEventEmitter",
          "name": "emitter_",
          "type": "address"
        },
        {
          "internalType": "address",
          "name": "devopsMultisig_",
          "type": "address"
        },
        {
          "internalType": "address",
          "name": "adminWallet_",
          "type": "address"
        }
      ],
      "name": "pairTermContracts",
      "outputs": [],
      "stateMutability": "nonpayable",
      "type": "function"
    },
    {
      "inputs": [],
      "name": "pauseBurning",
      "outputs": [],
      "stateMutability": "nonpayable",
      "type": "function"
    },
    {
      "inputs": [],
      "name": "pauseMinting",
      "outputs": [],
      "stateMutability": "nonpayable",
      "type": "function"
    },
    {
      "inputs": [
        {
          "internalType": "address",
          "name": "owner",
          "type": "address"
        },
        {
          "internalType": "address",
          "name": "spender",
          "type": "address"
        },
        {
          "internalType": "uint256",
          "name": "value",
          "type": "uint256"
        },
        {
          "internalType": "uint256",
          "name": "deadline",
          "type": "uint256"
        },
        {
          "internalType": "uint8",
          "name": "v",
          "type": "uint8"
        },
        {
          "internalType": "bytes32",
          "name": "r",
          "type": "bytes32"
        },
        {
          "internalType": "bytes32",
          "name": "s",
          "type": "bytes32"
        }
      ],
      "name": "permit",
      "outputs": [],
      "stateMutability": "nonpayable",
      "type": "function"
    },
    {
      "inputs": [],
      "name": "proxiableUUID",
      "outputs": [
        {
          "internalType": "bytes32",
          "name": "",
          "type": "bytes32"
        }
      ],
      "stateMutability": "view",
      "type": "function"
    },
    {
      "inputs": [],
      "name": "redemptionValue",
      "outputs": [
        {
          "internalType": "uint256",
          "name": "",
          "type": "uint256"
        }
      ],
      "stateMutability": "view",
      "type": "function"
    },
    {
      "inputs": [
        {
          "internalType": "bytes32",
          "name": "role",
          "type": "bytes32"
        },
        {
          "internalType": "address",
          "name": "callerConfirmation",
          "type": "address"
        }
      ],
      "name": "renounceRole",
      "outputs": [],
      "stateMutability": "nonpayable",
      "type": "function"
    },
    {
      "inputs": [
        {
          "internalType": "uint256",
          "name": "mintExposureCap_",
          "type": "uint256"
        }
      ],
      "name": "resetMintExposureCap",
      "outputs": [],
      "stateMutability": "nonpayable",
      "type": "function"
    },
    {
      "inputs": [
        {
          "internalType": "bytes32",
          "name": "role",
          "type": "bytes32"
        },
        {
          "internalType": "address",
          "name": "account",
          "type": "address"
        }
      ],
      "name": "revokeRole",
      "outputs": [],
      "stateMutability": "nonpayable",
      "type": "function"
    },
    {
      "inputs": [
        {
          "internalType": "bytes4",
          "name": "interfaceId",
          "type": "bytes4"
        }
      ],
      "name": "supportsInterface",
      "outputs": [
        {
          "internalType": "bool",
          "name": "",
          "type": "bool"
        }
      ],
      "stateMutability": "view",
      "type": "function"
    },
    {
      "inputs": [],
      "name": "symbol",
      "outputs": [
        {
          "internalType": "string",
          "name": "",
          "type": "string"
        }
      ],
      "stateMutability": "view",
      "type": "function"
    },
    {
      "inputs": [],
      "name": "termRepoId",
      "outputs": [
        {
          "internalType": "bytes32",
          "name": "",
          "type": "bytes32"
        }
      ],
      "stateMutability": "view",
      "type": "function"
    },
    {
      "inputs": [],
      "name": "totalRedemptionValue",
      "outputs": [
        {
          "internalType": "uint256",
          "name": "",
          "type": "uint256"
        }
      ],
      "stateMutability": "view",
      "type": "function"
    },
    {
      "inputs": [],
      "name": "totalSupply",
      "outputs": [
        {
          "internalType": "uint256",
          "name": "",
          "type": "uint256"
        }
      ],
      "stateMutability": "view",
      "type": "function"
    },
    {
      "inputs": [
        {
          "internalType": "address",
          "name": "to",
          "type": "address"
        },
        {
          "internalType": "uint256",
          "name": "value",
          "type": "uint256"
        }
      ],
      "name": "transfer",
      "outputs": [
        {
          "internalType": "bool",
          "name": "",
          "type": "bool"
        }
      ],
      "stateMutability": "nonpayable",
      "type": "function"
    },
    {
      "inputs": [
        {
          "internalType": "address",
          "name": "from",
          "type": "address"
        },
        {
          "internalType": "address",
          "name": "to",
          "type": "address"
        },
        {
          "internalType": "uint256",
          "name": "value",
          "type": "uint256"
        }
      ],
      "name": "transferFrom",
      "outputs": [
        {
          "internalType": "bool",
          "name": "",
          "type": "bool"
        }
      ],
      "stateMutability": "nonpayable",
      "type": "function"
    },
    {
      "inputs": [],
      "name": "unpauseBurning",
      "outputs": [],
      "stateMutability": "nonpayable",
      "type": "function"
    },
    {
      "inputs": [],
      "name": "unpauseMinting",
      "outputs": [],
      "stateMutability": "nonpayable",
      "type": "function"
    },
    {
      "inputs": [
        {
          "internalType": "address",
          "name": "newImplementation",
          "type": "address"
        },
        {
          "internalType": "bytes",
          "name": "data",
          "type": "bytes"
        }
      ],
      "name": "upgradeToAndCall",
      "outputs": [],
      "stateMutability": "payable",
      "type": "function"
    },
    {
      "inputs": [],
      "name": "version",
      "outputs": [
        {
          "internalType": "string",
          "name": "",
          "type": "string"
        }
      ],
      "stateMutability": "view",
      "type": "function"
    }
  ],
  "bytecode": "0x60a08060405234620000d157306080527ff0c57e16840df040f15088dc2f81fe391c3923bec73e23a9662efc9c229c6a009081549060ff8260401c16620000c257506001600160401b036002600160401b0319828216016200007c575b6040516137879081620000d78239608051818181611ec50152611f6d0152f35b6001600160401b031990911681179091556040519081527fc7f505b2f371ae2175ee4913f4499e1f2633a7b5936321eed1cdaeb6115181d290602090a13880806200005c565b63f92ee8a960e01b8152600490fd5b600080fdfe608080604052600436101561001357600080fd5b600090813560e01c90816301ffc9a71461261a57508063056824de146125f7578063059cbd9b1461258157806306fdde03146124e2578063095ea7b3146124bb57806318160ddd14612490578063201a66251461246757806323b872dd1461238a578063248a9ca31461235057806327df3d3e14612327578063282c51f3146122fe5780632f2ff15d146122b3578063313ce567146122935780633644e5151461227857806336568abe1461223057806338b616c1146121c75780634f1ef28614611f1d57806352d1902d14611eb257806354fd4d5014611e665780636d5ba705146114a357806370a082311461145d578063723f4e2a1461140c57806375b238fc146113e357806379502c551461139e5780637ecebe0014611356578063833c1d951461133157806384b0196e146110f55780638bef7f5b14610f6557806391d1485414610f0c57806395d89b4114610e365780639dc29fac14610d41578063a217fddf14610d25578063a8f421c214610bd8578063a9059cbb14610ba6578063ac7c54291461095f578063ad3cb1cc14610915578063ae200322146108ad578063b979dee314610850578063cc5b6e4a14610832578063d505accf146106b0578063d539139314610687578063d547741f14610638578063da8fbf2a146105ac578063dd62ed3e14610562578063e1a283d61461053d578063ef4474cd1461051f578063f0dda65c14610405578063f59bb4461461025c5763f9e4f0ed1461023c57600080fd5b346102595780600319360112610259576020600354604051908152f35b80fd5b5034610259576040366003190112610259576102766126b3565b906024356102826129db565b60ff825460181c166103f3576006546040516325c3ed4760e01b8152602094916001600160a01b03919086908290600490829086165afa9081156103e85790869186916103bb575b50600460405180948193631b6685b560e21b8352165afa9081156103b0578491610383575b5061037157816102fe91612f6e565b61030a81600354612904565b600355670de0b6b3a7640000918282029180830484149015171561035d575060405161035391610339826126f2565b8152600154906040519161034c836126f2565b8252612ec8565b5104604051908152f35b634e487b7160e01b81526011600452602490fd5b60405163bbc439e160e01b8152600490fd5b6103a39150853d87116103a9575b61039b8183612728565b8101906128ec565b386102ef565b503d610391565b6040513d86823e3d90fd5b6103db9150823d84116103e1575b6103d38183612728565b8101906128cd565b386102ca565b503d6103c9565b6040513d87823e3d90fd5b60405163c76a6dcb60e01b8152600490fd5b50346102595760403660031901126102595761041f6126b3565b9060243560ff825460101c1661050d576006546040516325c3ed4760e01b8152602094916001600160a01b03919086908290600490829086165afa9081156103e85790869186916104f0575b50600460405180948193631b6685b560e21b8352165afa9081156103b05784916104d3575b5061037157816104a7916104a26129a3565b612f07565b670de0b6b3a7640000918282029180830484149015171561035d575060405161035391610339826126f2565b6104ea9150853d87116103a95761039b8183612728565b38610490565b6105079150823d84116103e1576103d38183612728565b3861046b565b604051636864195160e01b8152600490fd5b50346102595780600319360112610259576020600154604051908152f35b503461025957806003193601126102595760ff6020915460101c166040519015158152f35b50346102595760403660031901126102595761057c6126b3565b61058d6105876126c9565b9161287d565b9060018060a01b03166000526020526020604060002054604051908152f35b50346102595780600319360112610259576105c561296b565b805462ff000019166201000017815560085460025482916001600160a01b031690813b15610634578291602483926040519485938492630e06d05360e21b845260048401525af18015610629576106195750f35b610622906126df565b6102595780f35b6040513d84823e3d90fd5b5050fd5b5034610259576040366003190112610259576106836004356106586126c9565b908084526000805160206136b283398151915260205261067e6001604086200154612a13565b612e45565b5080f35b503461025957806003193601126102595760206040516000805160206136728339815191528152f35b50346102595760e0366003190112610259576106ca6126b3565b906106d36126c9565b6044359060643560843560ff8116810361082d578142116108145760018060a01b038087169182875260008051602061363283398151915260205260408720908154916001830190556040519460208601927f6e71edae12b1b97f4d1f60370fef10105fa2faae0126114a169c64845d6126c98452856040880152848816606088015288608088015260a087015260c086015260c0855260e085019185831060018060401b038411176107fe576107c6956107bd93604052519020610796613065565b906040519161190160f01b83526002830152602282015260c43591604260a4359220613108565b9094919461318e565b8216036107db57506107d89293613007565b80f35b6040516325c0072360e11b81529081906107fa90879060048401612951565b0390fd5b634e487b7160e01b600052604160045260246000fd5b60405163313c898160e11b815260048101839052602490fd5b600080fd5b50346102595780600319360112610259576020600254604051908152f35b50346102595760203660031901126102595760043561086d6129a3565b6003549081811161089b5781039081116108875760035580f35b634e487b7160e01b82526011600452602482fd5b604051632e8a972b60e11b8152600490fd5b50346102595780600319360112610259576108c661296b565b805462ff00001916815560085460025482916001600160a01b031690813b15610634578291602483926040519485938492631d04a79b60e11b845260048401525af18015610629576106195750f35b503461025957806003193601126102595761095b6040516109358161270d565b60058152640352e302e360dc1b6020820152604051918291602083526020830190612673565b0390f35b5034610259578060031936011261025957600754604051630c87400960e11b81526001600160a01b0392918316906020908181600481865afa80156103b0578490610b6a575b60ff915016906109b4826128b6565b936109c26040519586612728565b8285526109ce836128b6565b85830194601f19949185013687376109e5826128b6565b946109f36040519687612728565b8286526109ff836128b6565b013685870137825b828110610a595750505060405194604086019060408752518091526060860194915b818110610a435786860384880152868061095b88886127ca565b8251881686529483019491830191600101610a29565b60405163172c48c760e01b8152600481018290529397936024919086818481875afa908115610b5f578a91610b25575b508a610a958388612927565b91169052858a610aa58388612927565b516040516320db25d560e01b81529116600482015292839081865afa8015610b1a578990610ae6575b60019250610adc8289612927565b5201969296610a07565b50908581813d8311610b13575b610afd8183612728565b81010312610b0f579060019151610ace565b8880fd5b503d610af3565b6040513d8b823e3d90fd5b90508681813d8311610b58575b610b3c8183612728565b81010312610b5457518a81168103610b545738610a89565b8980fd5b503d610b32565b6040513d8c823e3d90fd5b508181813d8311610b9f575b610b808183612728565b81010312610b9b575160ff81168103610b9b5760ff906109a5565b8380fd5b503d610b76565b503461025957604036600319011261025957610bcd610bc36126b3565b6024359033612a64565b602060405160018152f35b503461025957608036600319011261025957610bf26126b3565b6001600160a01b0360243581811690819003610b9b57604435828116810361082d5760643591838316830361082d573360009081526000805160206135f283398151915260205260409020546000805160206135528339815191529060ff1615610d07575085549460ff8660081c16610cf557610c92610ca894610ca2936101008a9961ff00191617895560018060a01b03196008541617600855612bb8565b50610c9c81612c3e565b50612cc4565b50612d4a565b5060085416600254600154823b15610cf057606484928360405195869485936327481ec760e21b8552600485015230602485015260448401525af18015610629576106195750f35b505050fd5b604051634ce377bb60e11b8152600490fd5b6044906040519063e2517d3f60e01b82523360048301526024820152fd5b5034610259578060031936011261025957602090604051908152f35b503461025957604036600319011261025957610d5b6126b3565b602435610d666129db565b60ff835460181c166103f3576006546040516325c3ed4760e01b81526020916001600160a01b03919083908290600490829086165afa8015610e2b5783918791610e0e575b50600460405180948193631b6685b560e21b8352165afa9182156103e8578592610df1575b505061037157610de381610deb93612f6e565b600354612904565b60035580f35b610e079250803d106103a95761039b8183612728565b3880610dd0565b610e259150823d84116103e1576103d38183612728565b38610dab565b6040513d88823e3d90fd5b50346102595780600319360112610259576040516000805160206135328339815191528054826000610e67836127fe565b9283835260209460019186600182169182600014610eea575050600114610eab575b5050610e9792500383612728565b61095b604051928284938452830190612673565b85925060005281600020906000915b858310610ed2575050610e9793508201018580610e89565b80548389018501528794508693909201918101610eba565b9250935050610e9794915060ff191682840152151560051b8201018580610e89565b5034610259576040366003190112610259576040610f286126c9565b9160043581526000805160206136b2833981519152602052209060018060a01b0316600052602052602060ff604060002054166040519015158152f35b503461025957604036600319011261025957610f7f6126b3565b6024359160ff815460101c1661050d576006546040516325c3ed4760e01b8152602094916001600160a01b03919086908290600490829086165afa9081156103b05790869185916110d8575b50600460405180948193631b6685b560e21b8352165afa9081156110cd5783916110b0575b5061037157610ffd6129a3565b670de0b6b3a7640000908181029080820483149015171561109c5760405190611025826126f2565b81526001549060405191611038836126f2565b825283604051611047816126f2565b5251928284029380850484149015171561035d57505180156110865761107e920480604051611075816126f2565b52048092612f07565b604051908152f35b634e487b7160e01b600052601260045260246000fd5b634e487b7160e01b83526011600452602483fd5b6110c79150853d87116103a95761039b8183612728565b38610ff0565b6040513d85823e3d90fd5b6110ef9150823d84116103e1576103d38183612728565b38610fcb565b50346102595780600319360112610259576000805160206135b283398151915254158061131a575b156112dd576040516000916000805160206135128339815191529182549381611145866127fe565b91828252602095600197876001821691826000146112bd57505060011461127c575b5061117492500382612728565b6040519360009060008051602061359283398151915290815491611197836127fe565b808952926001811690811561125a5750600114611221575b60e08761095b88886112028d6111c7818c0382612728565b6111f4604051936111d7856126f2565b858552604051988998600f60f81b8a5289015260e0880190612673565b908682036040880152612673565b9146606086015230608086015260a085015283820360c08501526127ca565b60009081528681209093505b8284106112475750505084018301611202856111c76111af565b805488850188015292860192810161122d565b60ff1916888a0152505050151560051b850184019050611202856111c76111af565b915050600052818480600020876000915b8583106112a4575050611174935082010138611167565b809192945054838588010152019101859087859361128d565b60ff19168582015261117495151560051b85010192503891506111679050565b60405162461bcd60e51b81526020600482015260156024820152741152540dcc4c8e88155b9a5b9a5d1a585b1a5e9959605a1b6044820152606490fd5b50600080516020613732833981519152541561111d565b503461025957806003193601126102595760ff6020915460181c166040519015158152f35b5034610259576020366003190112610259576001600160a01b036113786126b3565b166000526000805160206136328339815191526020526020604060002054604051908152f35b5034610259578060031936011261025957608060045460018060a01b038060055416908060065416906007541691604051938452602084015260408301526060820152f35b503461025957806003193601126102595760206040516000805160206136d28339815191528152f35b50346102595780600319360112610259576000805160206135728339815191525490670de0b6b3a7640000908183029280840483149015171561035d575061035360209260405190610339826126f2565b5034610259576020366003190112610259576020906040906001600160a01b036114856126b3565b1681526000805160206134d283398151915283522054604051908152f35b503461025957610160366003190112610259576004356001600160401b038111611e62576114d590369060040161279d565b906024356001600160401b038111610b9b576114f590369060040161279d565b91906044356001600160401b038111611e5e5761151690369060040161279d565b9190936064359260ff8416840361082d5760c4356001600160a01b038116900361082d5760803660e3190112611e5a5760008051602061371283398151915254956001600160401b03871680159081611e4a575b6001149081611e40575b159081611e37575b50611e25576001600160401b03198716600117600080516020613712833981519152556115c490604088901c60ff1615611dfc575b6115bc368587612766565b923691612766565b906115cd6130d9565b6115d56130d9565b8051906001600160401b038211611de8578190611600600080516020613492833981519152546127fe565b601f8111611d6f575b50602090601f8311600114611ceb578b92611ce0575b50508160011b916000199060031b1c191617600080516020613492833981519152555b8051906001600160401b038211611ccc5761166b600080516020613532833981519152546127fe565b601f8111611c60575b50602090601f8311600114611bd9576116bc949392918a9183611bce575b50508160011b916000199060031b1c191617600080516020613532833981519152555b3691612766565b6116c46130d9565b604051906116d18261270d565b60018252603160f81b60208301526116e76130d9565b8051906001600160401b038211611bba578190611712600080516020613512833981519152546127fe565b601f8111611b42575b50602090601f8311600114611abe578992611ab3575b50508160011b916000199060031b1c191617600080516020613512833981519152555b8051906001600160401b038211611a9f5761177d600080516020613592833981519152546127fe565b601f8111611a33575b50602090601f83116001146119b15760ff9392918891836119a6575b50508160011b916000199060031b1c191617600080516020613592833981519152555b856000805160206135b28339815191525585600080516020613732833981519152556117ef6130d9565b6117f76130d9565b61180260c435612b2c565b50855460ff191691161784556084356001556001600160a01b03611824612838565b1615158061198d575b80611974575b156119365760e43560045560ff926001600160a01b03611851612838565b60058054919092166001600160a01b0319918216179091556001600160a01b03611879612866565b1681600654161760065560018060a01b0361189261284f565b169060075416176007556118bf602060405183819483830196873781018883820152038084520182612728565b51902060025560a435600355825462ffff001916835560401c16156118e15780f35b60ff60401b196000805160206137128339815191525416600080516020613712833981519152557fc7f505b2f371ae2175ee4913f4499e1f2633a7b5936321eed1cdaeb6115181d2602060405160018152a180f35b60405162461bcd60e51b81526020600482015260166024820152757a65726f206164647265737320696e20636f6e66696760501b6044820152606490fd5b506001600160a01b03611985612866565b161515611833565b506001600160a01b0361199e61284f565b16151561182d565b0151905038806117a2565b60008051602061359283398151915288528188209190601f198416895b818110611a1b575091600193918560ff97969410611a02575b505050811b01600080516020613592833981519152556117c5565b015160001960f88460031b161c191690553880806119e7565b929360206001819287860151815501950193016119ce565b60008051602061359283398151915288527f5f9ce34815f8e11431c7bb75a8e6886a91478f7ffc1dbb0a98dc240fddd76b75601f840160051c810160208510611a98575b601f830160051c82018110611a8d575050611786565b898155600101611a77565b5080611a77565b634e487b7160e01b87526041600452602487fd5b015190503880611731565b925060008051602061351283398151915289528089209089935b601f1984168510611b27576001945083601f19811610611b0e575b505050811b0160008051602061351283398151915255611754565b015160001960f88460031b161c19169055388080611af3565b81810151835560209485019460019093019290910190611ad8565b6000805160206135128339815191528a529091507f42ad5d3e1f2e6e70edcf6d991b8a3023d3fca8047a131592f9edb9fd9b89d57d601f840160051c810160208510611bb3575b90849392915b601f830160051c82018110611ba557505061171b565b8b8155859450600101611b8f565b5080611b89565b634e487b7160e01b88526041600452602488fd5b015190503880611692565b906000805160206135328339815191528a52808a20918a5b601f1985168110611c4857509183916001936116bc979695601f19811610611c2f575b505050811b01600080516020613532833981519152556116b5565b015160001960f88460031b161c19169055388080611c14565b91926020600181928685015181550194019201611bf1565b6000805160206135328339815191528a527f46a2803e59a4de4e7a4c574b1243f25977ac4c77d5a1a4a609b5394cebb4a2aa601f840160051c810160208510611cc5575b601f830160051c82018110611cba575050611674565b8b8155600101611ca4565b5080611ca4565b634e487b7160e01b89526041600452602489fd5b01519050388061161f565b92506000805160206134928339815191528b52808b20908b935b601f1984168510611d54576001945083601f19811610611d3b575b505050811b0160008051602061349283398151915255611642565b015160001960f88460031b161c19169055388080611d20565b81810151835560209485019460019093019290910190611d05565b6000805160206134928339815191528c529091507f2ae08a8e29253f69ac5d979a101956ab8f8d9d7ded63fa7a83b16fc47648eab0601f840160051c810160208510611de1575b90849392915b8d601f840160051c83018210611dd457505050611609565b8155859450600101611dbc565b5080611db6565b634e487b7160e01b8a52604160045260248afd5b6001600160481b031988166001600160401b0117600080516020613712833981519152556115b1565b60405163f92ee8a960e01b8152600490fd5b9050153861157c565b303b159150611574565b604089901c60ff1615915061156a565b8780fd5b8580fd5b5080fd5b503461025957806003193601126102595761095b604051611e868161270d565b600b81526a19195d995b1bdc1b595b9d60aa1b6020820152604051918291602083526020830190612673565b50346102595780600319360112610259577f00000000000000000000000000000000000000000000000000000000000000006001600160a01b03163003611f0b5760206040516000805160206136128339815191528152f35b60405163703e46dd60e11b8152600490fd5b50604036600319011261025957611f326126b3565b60249182356001600160401b038111611e625736602382011215611e6257611f639036908581600401359101612766565b6001600160a01b037f000000000000000000000000000000000000000000000000000000000000000081163081149081156121ab575b50611f0b573360009081526000805160206136f283398151915260209081526040909120549091906000805160206134b28339815191529060ff161561218e57508060085416803b1561218a5784604051809263b3c2d50b60e01b82528183816120078c3060048401612951565b03925af180156103e857908591612176575b50508416936040516352d1902d60e01b81528281600481895afa859181612147575b5061205857604051634c9c8ce360e01b8152600481018790528790fd5b859087600080516020613612833981519152918281036121325750833b1561211c575080546001600160a01b0319168217905560405185917fbc7cd75a20ee27fd9adebab32041f755214dbc6bffa90cc0225b39da2e5c2d3b8380a28451156120ff575080848461068396519101845af4903d156120f6573d6120da8161274b565b906120e86040519283612728565b81528581943d92013e6133ee565b606092506133ee565b93505050503461210d575080f35b63b398979f60e01b8152600490fd5b604051634c9c8ce360e01b815260048101849052fd5b60405190632a87526960e21b82526004820152fd5b9091508381813d831161216f575b61215f8183612728565b81010312611e5e5751903861203b565b503d612155565b61217f906126df565b610b9b578338612019565b8480fd5b866044916040519163e2517d3f60e01b8352336004840152820152fd5b9050816000805160206136128339815191525416141538611f99565b50346102595780600319360112610259576121e061296b565b805463ff0000001916815560085460025482916001600160a01b031690813b1561063457829160248392604051948593849263b29aaf7560e01b845260048401525af18015610629576106195750f35b50346102595760403660031901126102595761224a6126c9565b336001600160a01b038216036122665761068390600435612e45565b60405163334bd91960e11b8152600490fd5b5034610259578060031936011261025957602061107e613065565b503461025957806003193601126102595760ff6020915416604051908152f35b5034610259576040366003190112610259576106836004356122d36126c9565b908084526000805160206136b28339815191526020526122f96001604086200154612a13565b612dd0565b503461025957806003193601126102595760206040516000805160206134728339815191528152f35b503461025957806003193601126102595760206040516000805160206135528339815191528152f35b5034610259576020366003190112610259576001604060209260043581526000805160206136b28339815191528452200154604051908152f35b5034610259576060366003190112610259576123a46126b3565b6123ac6126c9565b604435906123b98361287d565b336000526020526040600020549260001984106123db575b610bcd9350612a64565b82841061244a576001600160a01b038116156124315733156124185782610bcd946124058361287d565b33600052602052036040600020556123d1565b604051634a1406b160e11b815260006004820152602490fd5b60405163e602df0560e01b815260006004820152602490fd5b604051637dc7a0d960e11b8152806107fa85873360048501612a46565b503461025957806003193601126102595760206040516000805160206134b28339815191528152f35b5034610259578060031936011261025957602060008051602061357283398151915254604051908152f35b503461025957604036600319011261025957610bcd6124d86126b3565b6024359033613007565b50346102595780600319360112610259576040516000805160206134928339815191528054826000612513836127fe565b9283835260209460019186600182169182600014610eea575050600114612542575050610e9792500383612728565b85925060005281600020906000915b858310612569575050610e9793508201018580610e89565b80548389018501528794508693909201918101612551565b503461025957806003193601126102595761259a61296b565b805463ff0000001916630100000017815560085460025482916001600160a01b0316803b1561063457602483926040519485938492630954cf0360e01b845260048401525af18015610629576125ee575080f35b6107d8906126df565b50346102595760203660031901126102595761261161296b565b60043560035580f35b905034611e62576020366003190112611e625760043563ffffffff60e01b811680910361266f5760209250637965db0b60e01b811490811561265e575b5015158152f35b6301ffc9a760e01b14905038612657565b8280fd5b919082519283825260005b84811061269f575050826000602080949584010152601f8019910116010190565b60208183018101518483018201520161267e565b600435906001600160a01b038216820361082d57565b602435906001600160a01b038216820361082d57565b6001600160401b0381116107fe57604052565b602081019081106001600160401b038211176107fe57604052565b604081019081106001600160401b038211176107fe57604052565b601f909101601f19168101906001600160401b038211908210176107fe57604052565b6001600160401b0381116107fe57601f01601f191660200190565b9291926127728261274b565b916127806040519384612728565b82948184528183011161082d578281602093846000960137010152565b9181601f8401121561082d578235916001600160401b03831161082d576020838186019501011161082d57565b90815180825260208080930193019160005b8281106127ea575050505090565b8351855293810193928101926001016127dc565b90600182811c9216801561282e575b602083101461281857565b634e487b7160e01b600052602260045260246000fd5b91607f169161280d565b610104356001600160a01b038116810361082d5790565b610144356001600160a01b038116810361082d5790565b610124356001600160a01b038116810361082d5790565b6001600160a01b031660009081527f52c63247e1f47db19d5ce0460030c497f067ca4cebf71ba98eeadabe20bace016020526040902090565b6001600160401b0381116107fe5760051b60200190565b9081602091031261082d57516001600160a01b038116810361082d5790565b9081602091031261082d5751801515810361082d5790565b9190820180921161291157565b634e487b7160e01b600052601160045260246000fd5b805182101561293b5760209160051b010190565b634e487b7160e01b600052603260045260246000fd5b6001600160a01b0391821681529116602082015260400190565b3360009081526000805160206134f283398151915260205260409020546000805160206136d28339815191529060ff1615610d075750565b33600090815260008051602061365283398151915260205260409020546000805160206136728339815191529060ff1615610d075750565b3360009081526000805160206135d283398151915260205260409020546000805160206134728339815191529060ff1615610d075750565b806000526000805160206136b283398151915260205260406000203360005260205260ff6040600020541615610d075750565b604091949392606082019560018060a01b0316825260208201520152565b916001600160a01b03808416928315612b135716928315612afa576000908382526000805160206134d283398151915280602052604083205491848310612adb57508284600080516020613692833981519152959360409388602097528652038282205586815220818154019055604051908152a3565b90506107fa8460405193849363391434e360e21b855260048501612a46565b60405163ec442f0560e01b815260006004820152602490fd5b604051634b637e8f60e11b815260006004820152602490fd5b6001600160a01b031660008181526000805160206135f28339815191526020526040812054909190600080516020613552833981519152906000805160206136b28339815191529060ff16612bb2578184526020526040832082845260205260408320600160ff19825416179055600080516020613452833981519152339380a4600190565b50505090565b6001600160a01b031660008181526000805160206134f283398151915260205260408120549091906000805160206136d2833981519152906000805160206136b28339815191529060ff16612bb2578184526020526040832082845260205260408320600160ff19825416179055600080516020613452833981519152339380a4600190565b6001600160a01b031660008181526000805160206136528339815191526020526040812054909190600080516020613672833981519152906000805160206136b28339815191529060ff16612bb2578184526020526040832082845260205260408320600160ff19825416179055600080516020613452833981519152339380a4600190565b6001600160a01b031660008181526000805160206135d28339815191526020526040812054909190600080516020613472833981519152906000805160206136b28339815191529060ff16612bb2578184526020526040832082845260205260408320600160ff19825416179055600080516020613452833981519152339380a4600190565b6001600160a01b031660008181526000805160206136f283398151915260205260408120549091906000805160206134b2833981519152906000805160206136b28339815191529060ff16612bb2578184526020526040832082845260205260408320600160ff19825416179055600080516020613452833981519152339380a4600190565b906000918083526000805160206136b283398151915280602052604084209260018060a01b03169283855260205260ff60408520541615600014612bb2578184526020526040832082845260205260408320600160ff19825416179055600080516020613452833981519152339380a4600190565b906000918083526000805160206136b283398151915280602052604084209260018060a01b03169283855260205260ff604085205416600014612bb257818452602052604083208284526020526040832060ff1981541690557ff6391f5c32d9c69d2a47ea670b442974b53935d1edc7fd64eb21e047a839171b339380a4600190565b6000604051612ed6816126f2565b525190519081810291818304149015171561291157670de0b6b3a764000060405191612f01836126f2565b04815290565b6001600160a01b0316908115612afa576000805160206136928339815191526020600092600080516020613572833981519152612f45828254612904565b90558484526000805160206134d2833981519152825260408420818154019055604051908152a3565b91906001600160a01b038316908115612b1357816000526000805160206134d28339815191528060205260406000205494828610612fe857508160008051602061369283398151915292600095966020938688528452036040862055600080516020613572833981519152818154039055604051908152a3565b85906107fa8460405193849363391434e360e21b855260048501612a46565b916001600160a01b038084169283156124315716928315612418577f8c5be1e5ebec7d5bd14f71427d1e84f3dd0314c0f7b2291e5b200ac8c7c3b9259161304f60209261287d565b85600052825280604060002055604051908152a3565b61306d613213565b613075613313565b6040519060208201927f8b73c3c69bb8fe3d512ecc4cf759cc79239f7b179b0ffacaa9a75d522b39400f8452604083015260608201524660808201523060a082015260a0815260c0810181811060018060401b038211176107fe5760405251902090565b60ff6000805160206137128339815191525460401c16156130f657565b604051631afcd79f60e31b8152600490fd5b91906fa2a8918ca85bafe22016d0b997e4df60600160ff1b03841161318257926020929160ff608095604051948552168484015260408301526060820152600092839182805260015afa156131765780516001600160a01b0381161561316d57918190565b50809160019190565b604051903d90823e3d90fd5b50505060009160039190565b60048110156131fd57806131a0575050565b600181036131ba5760405163f645eedf60e01b8152600490fd5b600281036131db5760405163fce698f760e01b815260048101839052602490fd5b6003146131e55750565b602490604051906335e2f38360e21b82526004820152fd5b634e487b7160e01b600052602160045260246000fd5b6040516000906000805160206135128339815191529181835491613236836127fe565b808352602093848401966001916001811690816000146132f357506001146132b4575b50505061326892500382612728565b51908115613274572090565b50506000805160206135b283398151915254801561328f5790565b507fc5d2460186f7233c927e7db2dcc703c0e500b653ca82273b7bfad8045d85a47090565b600090815285812095935091905b8183106132db5750506132689350820101388080613259565b855487840185015294850194869450918301916132c2565b9250505061326894925060ff19168652151560051b820101388080613259565b6040516000906000805160206135928339815191529181835491613336836127fe565b808352602093848401966001916001811690816000146133ce575060011461338f575b50505061336892500382612728565b51908115613374572090565b505060008051602061373283398151915254801561328f5790565b600090815285812095935091905b8183106133b65750506133689350820101388080613359565b8554878401850152948501948694509183019161339d565b9250505061336894925060ff19168652151560051b820101388080613359565b90613415575080511561340357805190602001fd5b60405163d6bda27560e01b8152600490fd5b81511580613448575b613426575090565b604051639996b31560e01b81526001600160a01b039091166004820152602490fd5b50803b1561341e56fe2f8788117e7eff1d82e926ec794901d17c78024a50270940304540a733656f0d3c11d16cbaffd01df69ce1c404f6340ee057498f5f00246190ea54220576a84852c63247e1f47db19d5ce0460030c497f067ca4cebf71ba98eeadabe20bace03793a6c9b7e0a9549c74edc2f9ae0dc50903dfaa9a56fb0116b27a8c71de3e2c652c63247e1f47db19d5ce0460030c497f067ca4cebf71ba98eeadabe20bace00b16e88c42fd4e48df2dd6a2eabd6bc9aec654ec170056b470819f8892cc6431ca16a46d94261c7517cc8ff89f61c0ce93598e3c849801011dee649a6a557d10252c63247e1f47db19d5ce0460030c497f067ca4cebf71ba98eeadabe20bace0430d41a597cac127d8249d31298b50e481ee82c3f4a49ff93c76a22735aa9f3ad52c63247e1f47db19d5ce0460030c497f067ca4cebf71ba98eeadabe20bace02a16a46d94261c7517cc8ff89f61c0ce93598e3c849801011dee649a6a557d103a16a46d94261c7517cc8ff89f61c0ce93598e3c849801011dee649a6a557d100fcf1b2032b1187d9f2a29150c4a608b3b6f0bdf8dd007801f86a276af50cad9244fa5399874b75da801cb431822b6afcadb876f84eb39d7f05bf697e94b4484e360894a13ba1a3210667c828492db98dca3e2076cc3735a920a3ca505d382bbc5ab42ced628888259c08ac98db1eb0cf702fc1501344311d8b100cd1bfe4bb00549fe2656c81d2947b3b913f0a53b9ea86c71e049f3a1b8aa23c09a8a05cb8d49f2df0fed2c77648de5860a4cc508cd0818c85b8b8a1ab4ceeef8d981c8956a6ddf252ad1be2c89b69c2b068fc378daa952ba7f163c4a11628f55a4df523b3ef02dd7bc7dec4dceedda775e58dd541e08a116c6c53815c0bd028192f7b626800a49807205ce4d355092ef5a8a18f56e8913cf4a201fbe287825b095693c217750cfb002fcf8644f87ebf6cf6e31899c8d8e9f7c329b465b6e36989a958507e8bf0c57e16840df040f15088dc2f81fe391c3923bec73e23a9662efc9c229c6a00a16a46d94261c7517cc8ff89f61c0ce93598e3c849801011dee649a6a557d101a264697066735822122037ce6dc85e74638c78c792b70300210bfbd21a39c6fc4d52d2fe07230615d40a64736f6c63430008160033",
  "linkReferences": {},
  "deployedLinkReferences": {}
}