{
  "_format": "hh-sol-artifact-1",
  "contractName": "TermRepoToken",
  "sourceName": "contracts/TermRepoToken.sol",
  "abi": [
    {
      "inputs": [],
      "stateMutability": "nonpayable",
      "type": "constructor"
    },
    {
      "inputs": [],
      "name": "AlreadyTermContractPaired",
      "type": "error"
    },
    {
      "inputs": [],
      "name": "MintExposureCapExceeded",
      "type": "error"
    },
    {
      "inputs": [],
      "name": "TermRepoTokenBurningPaused",
      "type": "error"
    },
    {
      "inputs": [],
      "name": "TermRepoTokenMintingPaused",
      "type": "error"
    },
    {
      "anonymous": false,
      "inputs": [
        {
          "indexed": false,
          "internalType": "address",
          "name": "previousAdmin",
          "type": "address"
        },
        {
          "indexed": false,
          "internalType": "address",
          "name": "newAdmin",
          "type": "address"
        }
      ],
      "name": "AdminChanged",
      "type": "event"
    },
    {
      "anonymous": false,
      "inputs": [
        {
          "indexed": true,
          "internalType": "address",
          "name": "owner",
          "type": "address"
        },
        {
          "indexed": true,
          "internalType": "address",
          "name": "spender",
          "type": "address"
        },
        {
          "indexed": false,
          "internalType": "uint256",
          "name": "value",
          "type": "uint256"
        }
      ],
      "name": "Approval",
      "type": "event"
    },
    {
      "anonymous": false,
      "inputs": [
        {
          "indexed": true,
          "internalType": "address",
          "name": "beacon",
          "type": "address"
        }
      ],
      "name": "BeaconUpgraded",
      "type": "event"
    },
    {
      "anonymous": false,
      "inputs": [],
      "name": "EIP712DomainChanged",
      "type": "event"
    },
    {
      "anonymous": false,
      "inputs": [
        {
          "indexed": false,
          "internalType": "uint8",
          "name": "version",
          "type": "uint8"
        }
      ],
      "name": "Initialized",
      "type": "event"
    },
    {
      "anonymous": false,
      "inputs": [
        {
          "indexed": true,
          "internalType": "bytes32",
          "name": "role",
          "type": "bytes32"
        },
        {
          "indexed": true,
          "internalType": "bytes32",
          "name": "previousAdminRole",
          "type": "bytes32"
        },
        {
          "indexed": true,
          "internalType": "bytes32",
          "name": "newAdminRole",
          "type": "bytes32"
        }
      ],
      "name": "RoleAdminChanged",
      "type": "event"
    },
    {
      "anonymous": false,
      "inputs": [
        {
          "indexed": true,
          "internalType": "bytes32",
          "name": "role",
          "type": "bytes32"
        },
        {
          "indexed": true,
          "internalType": "address",
          "name": "account",
          "type": "address"
        },
        {
          "indexed": true,
          "internalType": "address",
          "name": "sender",
          "type": "address"
        }
      ],
      "name": "RoleGranted",
      "type": "event"
    },
    {
      "anonymous": false,
      "inputs": [
        {
          "indexed": true,
          "internalType": "bytes32",
          "name": "role",
          "type": "bytes32"
        },
        {
          "indexed": true,
          "internalType": "address",
          "name": "account",
          "type": "address"
        },
        {
          "indexed": true,
          "internalType": "address",
          "name": "sender",
          "type": "address"
        }
      ],
      "name": "RoleRevoked",
      "type": "event"
    },
    {
      "anonymous": false,
      "inputs": [
        {
          "indexed": true,
          "internalType": "address",
          "name": "from",
          "type": "address"
        },
        {
          "indexed": true,
          "internalType": "address",
          "name": "to",
          "type": "address"
        },
        {
          "indexed": false,
          "internalType": "uint256",
          "name": "value",
          "type": "uint256"
        }
      ],
      "name": "Transfer",
      "type": "event"
    },
    {
      "anonymous": false,
      "inputs": [
        {
          "indexed": true,
          "internalType": "address",
          "name": "implementation",
          "type": "address"
        }
      ],
      "name": "Upgraded",
      "type": "event"
    },
    {
      "inputs": [],
      "name": "ADMIN_ROLE",
      "outputs": [
        {
          "internalType": "bytes32",
          "name": "",
          "type": "bytes32"
        }
      ],
      "stateMutability": "view",
      "type": "function"
    },
    {
      "inputs": [],
      "name": "BURNER_ROLE",
      "outputs": [
        {
          "internalType": "bytes32",
          "name": "",
          "type": "bytes32"
        }
      ],
      "stateMutability": "view",
      "type": "function"
    },
    {
      "inputs": [],
      "name": "DEFAULT_ADMIN_ROLE",
      "outputs": [
        {
          "internalType": "bytes32",
          "name": "",
          "type": "bytes32"
        }
      ],
      "stateMutability": "view",
      "type": "function"
    },
    {
      "inputs": [],
      "name": "DEVOPS_ROLE",
      "outputs": [
        {
          "internalType": "bytes32",
          "name": "",
          "type": "bytes32"
        }
      ],
      "stateMutability": "view",
      "type": "function"
    },
    {
      "inputs": [],
      "name": "DOMAIN_SEPARATOR",
      "outputs": [
        {
          "internalType": "bytes32",
          "name": "",
          "type": "bytes32"
        }
      ],
      "stateMutability": "view",
      "type": "function"
    },
    {
      "inputs": [],
      "name": "INITIALIZER_ROLE",
      "outputs": [
        {
          "internalType": "bytes32",
          "name": "",
          "type": "bytes32"
        }
      ],
      "stateMutability": "view",
      "type": "function"
    },
    {
      "inputs": [],
      "name": "MINTER_ROLE",
      "outputs": [
        {
          "internalType": "bytes32",
          "name": "",
          "type": "bytes32"
        }
      ],
      "stateMutability": "view",
      "type": "function"
    },
    {
      "inputs": [
        {
          "internalType": "address",
          "name": "owner",
          "type": "address"
        },
        {
          "internalType": "address",
          "name": "spender",
          "type": "address"
        }
      ],
      "name": "allowance",
      "outputs": [
        {
          "internalType": "uint256",
          "name": "",
          "type": "uint256"
        }
      ],
      "stateMutability": "view",
      "type": "function"
    },
    {
      "inputs": [
        {
          "internalType": "address",
          "name": "spender",
          "type": "address"
        },
        {
          "internalType": "uint256",
          "name": "amount",
          "type": "uint256"
        }
      ],
      "name": "approve",
      "outputs": [
        {
          "internalType": "bool",
          "name": "",
          "type": "bool"
        }
      ],
      "stateMutability": "nonpayable",
      "type": "function"
    },
    {
      "inputs": [
        {
          "internalType": "address",
          "name": "account",
          "type": "address"
        }
      ],
      "name": "balanceOf",
      "outputs": [
        {
          "internalType": "uint256",
          "name": "",
          "type": "uint256"
        }
      ],
      "stateMutability": "view",
      "type": "function"
    },
    {
      "inputs": [
        {
          "internalType": "address",
          "name": "account",
          "type": "address"
        },
        {
          "internalType": "uint256",
          "name": "amount",
          "type": "uint256"
        }
      ],
      "name": "burn",
      "outputs": [],
      "stateMutability": "nonpayable",
      "type": "function"
    },
    {
      "inputs": [
        {
          "internalType": "address",
          "name": "account",
          "type": "address"
        },
        {
          "internalType": "uint256",
          "name": "amount",
          "type": "uint256"
        }
      ],
      "name": "burnAndReturnValue",
      "outputs": [
        {
          "internalType": "uint256",
          "name": "",
          "type": "uint256"
        }
      ],
      "stateMutability": "nonpayable",
      "type": "function"
    },
    {
      "inputs": [],
      "name": "burningPaused",
      "outputs": [
        {
          "internalType": "bool",
          "name": "",
          "type": "bool"
        }
      ],
      "stateMutability": "view",
      "type": "function"
    },
    {
      "inputs": [],
      "name": "config",
      "outputs": [
        {
          "internalType": "uint256",
          "name": "redemptionTimestamp",
          "type": "uint256"
        },
        {
          "internalType": "address",
          "name": "purchaseToken",
          "type": "address"
        },
        {
          "internalType": "address",
          "name": "termRepoServicer",
          "type": "address"
        },
        {
          "internalType": "address",
          "name": "termRepoCollateralManager",
          "type": "address"
        }
      ],
      "stateMutability": "view",
      "type": "function"
    },
    {
      "inputs": [],
      "name": "decimals",
      "outputs": [
        {
          "internalType": "uint8",
          "name": "",
          "type": "uint8"
        }
      ],
      "stateMutability": "view",
      "type": "function"
    },
    {
      "inputs": [
        {
          "internalType": "address",
          "name": "spender",
          "type": "address"
        },
        {
          "internalType": "uint256",
          "name": "subtractedValue",
          "type": "uint256"
        }
      ],
      "name": "decreaseAllowance",
      "outputs": [
        {
          "internalType": "bool",
          "name": "",
          "type": "bool"
        }
      ],
      "stateMutability": "nonpayable",
      "type": "function"
    },
    {
      "inputs": [
        {
          "internalType": "uint256",
          "name": "supplyMinted",
          "type": "uint256"
        }
      ],
      "name": "decrementMintExposureCap",
      "outputs": [],
      "stateMutability": "nonpayable",
      "type": "function"
    },
    {
      "inputs": [],
      "name": "eip712Domain",
      "outputs": [
        {
          "internalType": "bytes1",
          "name": "fields",
          "type": "bytes1"
        },
        {
          "internalType": "string",
          "name": "name",
          "type": "string"
        },
        {
          "internalType": "string",
          "name": "version",
          "type": "string"
        },
        {
          "internalType": "uint256",
          "name": "chainId",
          "type": "uint256"
        },
        {
          "internalType": "address",
          "name": "verifyingContract",
          "type": "address"
        },
        {
          "internalType": "bytes32",
          "name": "salt",
          "type": "bytes32"
        },
        {
          "internalType": "uint256[]",
          "name": "extensions",
          "type": "uint256[]"
        }
      ],
      "stateMutability": "view",
      "type": "function"
    },
    {
      "inputs": [],
      "name": "getCollateralRequirements",
      "outputs": [
        {
          "internalType": "address[]",
          "name": "collateralTokens",
          "type": "address[]"
        },
        {
          "internalType": "uint256[]",
          "name": "maintenanceRatios",
          "type": "uint256[]"
        }
      ],
      "stateMutability": "view",
      "type": "function"
    },
    {
      "inputs": [
        {
          "internalType": "bytes32",
          "name": "role",
          "type": "bytes32"
        }
      ],
      "name": "getRoleAdmin",
      "outputs": [
        {
          "internalType": "bytes32",
          "name": "",
          "type": "bytes32"
        }
      ],
      "stateMutability": "view",
      "type": "function"
    },
    {
      "inputs": [
        {
          "internalType": "bytes32",
          "name": "role",
          "type": "bytes32"
        },
        {
          "internalType": "address",
          "name": "account",
          "type": "address"
        }
      ],
      "name": "grantRole",
      "outputs": [],
      "stateMutability": "nonpayable",
      "type": "function"
    },
    {
      "inputs": [
        {
          "internalType": "bytes32",
          "name": "role",
          "type": "bytes32"
        },
        {
          "internalType": "address",
          "name": "account",
          "type": "address"
        }
      ],
      "name": "hasRole",
      "outputs": [
        {
          "internalType": "bool",
          "name": "",
          "type": "bool"
        }
      ],
      "stateMutability": "view",
      "type": "function"
    },
    {
      "inputs": [
        {
          "internalType": "address",
          "name": "spender",
          "type": "address"
        },
        {
          "internalType": "uint256",
          "name": "addedValue",
          "type": "uint256"
        }
      ],
      "name": "increaseAllowance",
      "outputs": [
        {
          "internalType": "bool",
          "name": "",
          "type": "bool"
        }
      ],
      "stateMutability": "nonpayable",
      "type": "function"
    },
    {
      "inputs": [
        {
          "internalType": "string",
          "name": "termRepoId_",
          "type": "string"
        },
        {
          "internalType": "string",
          "name": "name_",
          "type": "string"
        },
        {
          "internalType": "string",
          "name": "symbol_",
          "type": "string"
        },
        {
          "internalType": "uint8",
          "name": "decimalPlaces_",
          "type": "uint8"
        },
        {
          "internalType": "uint256",
          "name": "redemptionValue_",
          "type": "uint256"
        },
        {
          "internalType": "uint256",
          "name": "mintExposureCap_",
          "type": "uint256"
        },
        {
          "internalType": "address",
          "name": "termInitializer_",
          "type": "address"
        },
        {
          "components": [
            {
              "internalType": "uint256",
              "name": "redemptionTimestamp",
              "type": "uint256"
            },
            {
              "internalType": "address",
              "name": "purchaseToken",
              "type": "address"
            },
            {
              "internalType": "address",
              "name": "termRepoServicer",
              "type": "address"
            },
            {
              "internalType": "address",
              "name": "termRepoCollateralManager",
              "type": "address"
            }
          ],
          "internalType": "struct TermRepoTokenConfig",
          "name": "config_",
          "type": "tuple"
        }
      ],
      "name": "initialize",
      "outputs": [],
      "stateMutability": "nonpayable",
      "type": "function"
    },
    {
      "inputs": [],
      "name": "mintExposureCap",
      "outputs": [
        {
          "internalType": "uint256",
          "name": "",
          "type": "uint256"
        }
      ],
      "stateMutability": "view",
      "type": "function"
    },
    {
      "inputs": [
        {
          "internalType": "address",
          "name": "account",
          "type": "address"
        },
        {
          "internalType": "uint256",
          "name": "redemptionAmount",
          "type": "uint256"
        }
      ],
      "name": "mintRedemptionValue",
      "outputs": [
        {
          "internalType": "uint256",
          "name": "",
          "type": "uint256"
        }
      ],
      "stateMutability": "nonpayable",
      "type": "function"
    },
    {
      "inputs": [
        {
          "internalType": "address",
          "name": "account",
          "type": "address"
        },
        {
          "internalType": "uint256",
          "name": "numTokens",
          "type": "uint256"
        }
      ],
      "name": "mintTokens",
      "outputs": [
        {
          "internalType": "uint256",
          "name": "",
          "type": "uint256"
        }
      ],
      "stateMutability": "nonpayable",
      "type": "function"
    },
    {
      "inputs": [],
      "name": "mintingPaused",
      "outputs": [
        {
          "internalType": "bool",
          "name": "",
          "type": "bool"
        }
      ],
      "stateMutability": "view",
      "type": "function"
    },
    {
      "inputs": [],
      "name": "name",
      "outputs": [
        {
          "internalType": "string",
          "name": "",
          "type": "string"
        }
      ],
      "stateMutability": "view",
      "type": "function"
    },
    {
      "inputs": [
        {
          "internalType": "address",
          "name": "owner",
          "type": "address"
        }
      ],
      "name": "nonces",
      "outputs": [
        {
          "internalType": "uint256",
          "name": "",
          "type": "uint256"
        }
      ],
      "stateMutability": "view",
      "type": "function"
    },
    {
      "inputs": [
        {
          "internalType": "address",
          "name": "termRepoServicer_",
          "type": "address"
        },
        {
          "internalType": "contract ITermEventEmitter",
          "name": "emitter_",
          "type": "address"
        },
        {
          "internalType": "address",
          "name": "devopsMultisig_",
          "type": "address"
        },
        {
          "internalType": "address",
          "name": "adminWallet_",
          "type": "address"
        }
      ],
      "name": "pairTermContracts",
      "outputs": [],
      "stateMutability": "nonpayable",
      "type": "function"
    },
    {
      "inputs": [],
      "name": "pauseBurning",
      "outputs": [],
      "stateMutability": "nonpayable",
      "type": "function"
    },
    {
      "inputs": [],
      "name": "pauseMinting",
      "outputs": [],
      "stateMutability": "nonpayable",
      "type": "function"
    },
    {
      "inputs": [
        {
          "internalType": "address",
          "name": "owner",
          "type": "address"
        },
        {
          "internalType": "address",
          "name": "spender",
          "type": "address"
        },
        {
          "internalType": "uint256",
          "name": "value",
          "type": "uint256"
        },
        {
          "internalType": "uint256",
          "name": "deadline",
          "type": "uint256"
        },
        {
          "internalType": "uint8",
          "name": "v",
          "type": "uint8"
        },
        {
          "internalType": "bytes32",
          "name": "r",
          "type": "bytes32"
        },
        {
          "internalType": "bytes32",
          "name": "s",
          "type": "bytes32"
        }
      ],
      "name": "permit",
      "outputs": [],
      "stateMutability": "nonpayable",
      "type": "function"
    },
    {
      "inputs": [],
      "name": "proxiableUUID",
      "outputs": [
        {
          "internalType": "bytes32",
          "name": "",
          "type": "bytes32"
        }
      ],
      "stateMutability": "view",
      "type": "function"
    },
    {
      "inputs": [],
      "name": "redemptionValue",
      "outputs": [
        {
          "internalType": "uint256",
          "name": "",
          "type": "uint256"
        }
      ],
      "stateMutability": "view",
      "type": "function"
    },
    {
      "inputs": [
        {
          "internalType": "bytes32",
          "name": "role",
          "type": "bytes32"
        },
        {
          "internalType": "address",
          "name": "account",
          "type": "address"
        }
      ],
      "name": "renounceRole",
      "outputs": [],
      "stateMutability": "nonpayable",
      "type": "function"
    },
    {
      "inputs": [
        {
          "internalType": "uint256",
          "name": "mintExposureCap_",
          "type": "uint256"
        }
      ],
      "name": "resetMintExposureCap",
      "outputs": [],
      "stateMutability": "nonpayable",
      "type": "function"
    },
    {
      "inputs": [
        {
          "internalType": "bytes32",
          "name": "role",
          "type": "bytes32"
        },
        {
          "internalType": "address",
          "name": "account",
          "type": "address"
        }
      ],
      "name": "revokeRole",
      "outputs": [],
      "stateMutability": "nonpayable",
      "type": "function"
    },
    {
      "inputs": [
        {
          "internalType": "bytes4",
          "name": "interfaceId",
          "type": "bytes4"
        }
      ],
      "name": "supportsInterface",
      "outputs": [
        {
          "internalType": "bool",
          "name": "",
          "type": "bool"
        }
      ],
      "stateMutability": "view",
      "type": "function"
    },
    {
      "inputs": [],
      "name": "symbol",
      "outputs": [
        {
          "internalType": "string",
          "name": "",
          "type": "string"
        }
      ],
      "stateMutability": "view",
      "type": "function"
    },
    {
      "inputs": [],
      "name": "termRepoId",
      "outputs": [
        {
          "internalType": "bytes32",
          "name": "",
          "type": "bytes32"
        }
      ],
      "stateMutability": "view",
      "type": "function"
    },
    {
      "inputs": [],
      "name": "totalRedemptionValue",
      "outputs": [
        {
          "internalType": "uint256",
          "name": "",
          "type": "uint256"
        }
      ],
      "stateMutability": "view",
      "type": "function"
    },
    {
      "inputs": [],
      "name": "totalSupply",
      "outputs": [
        {
          "internalType": "uint256",
          "name": "",
          "type": "uint256"
        }
      ],
      "stateMutability": "view",
      "type": "function"
    },
    {
      "inputs": [
        {
          "internalType": "address",
          "name": "to",
          "type": "address"
        },
        {
          "internalType": "uint256",
          "name": "amount",
          "type": "uint256"
        }
      ],
      "name": "transfer",
      "outputs": [
        {
          "internalType": "bool",
          "name": "",
          "type": "bool"
        }
      ],
      "stateMutability": "nonpayable",
      "type": "function"
    },
    {
      "inputs": [
        {
          "internalType": "address",
          "name": "from",
          "type": "address"
        },
        {
          "internalType": "address",
          "name": "to",
          "type": "address"
        },
        {
          "internalType": "uint256",
          "name": "amount",
          "type": "uint256"
        }
      ],
      "name": "transferFrom",
      "outputs": [
        {
          "internalType": "bool",
          "name": "",
          "type": "bool"
        }
      ],
      "stateMutability": "nonpayable",
      "type": "function"
    },
    {
      "inputs": [],
      "name": "unpauseBurning",
      "outputs": [],
      "stateMutability": "nonpayable",
      "type": "function"
    },
    {
      "inputs": [],
      "name": "unpauseMinting",
      "outputs": [],
      "stateMutability": "nonpayable",
      "type": "function"
    },
    {
      "inputs": [
        {
          "internalType": "address",
          "name": "newImplementation",
          "type": "address"
        }
      ],
      "name": "upgradeTo",
      "outputs": [],
      "stateMutability": "nonpayable",
      "type": "function"
    },
    {
      "inputs": [
        {
          "internalType": "address",
          "name": "newImplementation",
          "type": "address"
        },
        {
          "internalType": "bytes",
          "name": "data",
          "type": "bytes"
        }
      ],
      "name": "upgradeToAndCall",
      "outputs": [],
      "stateMutability": "payable",
      "type": "function"
    },
    {
      "inputs": [],
      "name": "version",
      "outputs": [
        {
          "internalType": "string",
          "name": "",
          "type": "string"
        }
      ],
      "stateMutability": "view",
      "type": "function"
    }
  ],
  "bytecode": "0x60a0604052306080523480156200001557600080fd5b506200002062000026565b620000e7565b600054610100900460ff1615620000935760405162461bcd60e51b815260206004820152602760248201527f496e697469616c697a61626c653a20636f6e747261637420697320696e697469604482015266616c697a696e6760c81b606482015260840160405180910390fd5b60005460ff90811614620000e5576000805460ff191660ff9081179091556040519081527f7f26b83ff96e1f2b6a682f133852f6798a09c465da95921460cefb38474024989060200160405180910390a15b565b6080516138b46200011f60003960008181610b8301528181610bc301528181610cca01528181610d0a0152610d8201526138b46000f3fe6080604052600436106102745760003560e01c806379502c5511610150578063ae200322116100bc578063ae2003221461078e578063b979dee3146107a3578063cc5b6e4a146107c3578063d505accf146107da578063d5391393146107fa578063d547741f1461081c578063da8fbf2a1461083c578063dd62ed3e14610851578063e1a283d614610871578063ef4474cd14610892578063f0dda65c146108a9578063f59bb446146108c9578063f9e4f0ed146108e957600080fd5b806379502c55146105b35780637ecebe0014610617578063833c1d951461063757806384b0196e146106595780638bef7f5b1461068157806391d14854146106a157806395d89b41146106c15780639dc29fac146106d6578063a217fddf146106f6578063a457c2d71461070b578063a8f421c21461072b578063a9059cbb1461074b578063ac7c54291461076b57600080fd5b8063313ce567116101ef578063313ce5671461041d5780633644e5151461044057806336568abe146104555780633659cfe61461047557806338b616c11461049557806339509351146104aa5780634f1ef286146104ca57806352d1902d146104dd57806354fd4d50146104f25780636d5ba7051461052657806370a0823114610546578063723f4e2a1461057c57806375b238fc1461059157600080fd5b806301ffc9a714610279578063056824de146102ae578063059cbd9b146102d057806306fdde03146102e5578063095ea7b31461030757806318160ddd14610327578063201a66251461034657806323b872dd14610368578063248a9ca31461038857806327df3d3e146103b9578063282c51f3146103db5780632f2ff15d146103fd575b600080fd5b34801561028557600080fd5b50610299610294366004612d77565b610900565b60405190151581526020015b60405180910390f35b3480156102ba57600080fd5b506102ce6102c9366004612da1565b610937565b005b3480156102dc57600080fd5b506102ce610956565b3480156102f157600080fd5b506102fa6109ee565b6040516102a59190612e0a565b34801561031357600080fd5b50610299610322366004612e42565b610a80565b34801561033357600080fd5b506035545b6040519081526020016102a5565b34801561035257600080fd5b5061033860008051602061379883398151915281565b34801561037457600080fd5b50610299610383366004612e6e565b610a98565b34801561039457600080fd5b506103386103a3366004612da1565b6000908152610162602052604090206001015490565b3480156103c557600080fd5b506103386000805160206137b883398151915281565b3480156103e757600080fd5b5061033860008051602061377883398151915281565b34801561040957600080fd5b506102ce610418366004612eaf565b610abc565b34801561042957600080fd5b506101945460405160ff90911681526020016102a5565b34801561044c57600080fd5b50610338610ae7565b34801561046157600080fd5b506102ce610470366004612eaf565b610af6565b34801561048157600080fd5b506102ce610490366004612edf565b610b79565b3480156104a157600080fd5b506102ce610c41565b3480156104b657600080fd5b506102996104c5366004612e42565b610c9e565b6102ce6104d8366004612f12565b610cc0565b3480156104e957600080fd5b50610338610d75565b3480156104fe57600080fd5b5060408051808201909152600b81526a19195d995b1bdc1b595b9d60aa1b60208201526102fa565b34801561053257600080fd5b506102ce610541366004613049565b610e23565b34801561055257600080fd5b50610338610561366004612edf565b6001600160a01b031660009081526033602052604090205490565b34801561058857600080fd5b5061033861112c565b34801561059d57600080fd5b5061033860008051602061385f83398151915281565b3480156105bf57600080fd5b50610198546101995461019a5461019b546105e893926001600160a01b03908116928116911684565b604080519485526001600160a01b039384166020860152918316918401919091521660608201526080016102a5565b34801561062357600080fd5b50610338610632366004612edf565b611179565b34801561064357600080fd5b5061019454610299906301000000900460ff1681565b34801561066557600080fd5b5061066e611197565b6040516102a59796959493929190613164565b34801561068d57600080fd5b5061033861069c366004612e42565b611235565b3480156106ad57600080fd5b506102996106bc366004612eaf565b6112ce565b3480156106cd57600080fd5b506102fa6112fa565b3480156106e257600080fd5b506102ce6106f1366004612e42565b611309565b34801561070257600080fd5b50610338600081565b34801561071757600080fd5b50610299610726366004612e42565b611374565b34801561073757600080fd5b506102ce6107463660046131d4565b6113ef565b34801561075757600080fd5b50610299610766366004612e42565b611539565b34801561077757600080fd5b50610780611547565b6040516102a5929190613230565b34801561079a57600080fd5b506102ce6117bc565b3480156107af57600080fd5b506102ce6107be366004612da1565b611818565b3480156107cf57600080fd5b506103386101965481565b3480156107e657600080fd5b506102ce6107f5366004613286565b611870565b34801561080657600080fd5b5061033860008051602061381f83398151915281565b34801561082857600080fd5b506102ce610837366004612eaf565b6119d4565b34801561084857600080fd5b506102ce6119fa565b34801561085d57600080fd5b5061033861086c3660046132f7565b611a5b565b34801561087d57600080fd5b50610194546102999062010000900460ff1681565b34801561089e57600080fd5b506103386101955481565b3480156108b557600080fd5b506103386108c4366004612e42565b611a86565b3480156108d557600080fd5b506103386108e4366004612e42565b611b06565b3480156108f557600080fd5b506103386101975481565b60006001600160e01b03198216637965db0b60e01b148061093157506301ffc9a760e01b6001600160e01b03198316145b92915050565b60008051602061385f83398151915261094f81611b97565b5061019755565b60008051602061385f83398151915261096e81611b97565b610194805463ff0000001916630100000017905561019c5461019654604051630954cf0360e01b81526001600160a01b0390921691630954cf03916109b99160040190815260200190565b600060405180830381600087803b1580156109d357600080fd5b505af11580156109e7573d6000803e3d6000fd5b5050505050565b6060603680546109fd90613325565b80601f0160208091040260200160405190810160405280929190818152602001828054610a2990613325565b8015610a765780601f10610a4b57610100808354040283529160200191610a76565b820191906000526020600020905b815481529060010190602001808311610a5957829003601f168201915b5050505050905090565b600033610a8e818585611ba1565b5060019392505050565b600033610aa6858285611cc5565b610ab1858585611d3f565b506001949350505050565b60008281526101626020526040902060010154610ad881611b97565b610ae28383611ed8565b505050565b6000610af1611f5f565b905090565b6001600160a01b0381163314610b6b5760405162461bcd60e51b815260206004820152602f60248201527f416363657373436f6e74726f6c3a2063616e206f6e6c792072656e6f756e636560448201526e103937b632b9903337b91039b2b63360891b60648201526084015b60405180910390fd5b610b758282611f69565b5050565b6001600160a01b037f0000000000000000000000000000000000000000000000000000000000000000163003610bc15760405162461bcd60e51b8152600401610b6290613359565b7f00000000000000000000000000000000000000000000000000000000000000006001600160a01b0316610bf3611fd1565b6001600160a01b031614610c195760405162461bcd60e51b8152600401610b62906133a5565b610c2281611fed565b60408051600080825260208201909252610c3e9183919061206f565b50565b60008051602061385f833981519152610c5981611b97565b610194805463ff0000001916905561019c546101965460405163b29aaf7560e01b81526001600160a01b039092169163b29aaf75916109b99160040190815260200190565b600033610a8e818585610cb18383611a5b565b610cbb9190613407565b611ba1565b6001600160a01b037f0000000000000000000000000000000000000000000000000000000000000000163003610d085760405162461bcd60e51b8152600401610b6290613359565b7f00000000000000000000000000000000000000000000000000000000000000006001600160a01b0316610d3a611fd1565b6001600160a01b031614610d605760405162461bcd60e51b8152600401610b62906133a5565b610d6982611fed565b610b758282600161206f565b6000306001600160a01b037f00000000000000000000000000000000000000000000000000000000000000001614610e105760405162461bcd60e51b815260206004820152603860248201527f555550535570677261646561626c653a206d757374206e6f742062652063616c6044820152771b1959081d1a1c9bdd59da0819195b1959d85d1958d85b1b60421b6064820152608401610b62565b506000805160206137d883398151915290565b600054610100900460ff1615808015610e435750600054600160ff909116105b80610e645750610e52306121da565b158015610e64575060005460ff166001145b610ec75760405162461bcd60e51b815260206004820152602e60248201527f496e697469616c697a61626c653a20636f6e747261637420697320616c72656160448201526d191e481a5b9a5d1a585b1a5e995960921b6064820152608401610b62565b6000805460ff191660011790558015610eea576000805461ff0019166101001790555b610f5d8a8a8080601f01602080910402602001604051908101604052809392919081815260200183838082843760009201919091525050604080516020601f8e018190048102820181019092528c815292508c91508b90819084018382808284376000920191909152506121e992505050565b610f9c8a8a8080601f01602080910402602001604051908101604052809392919081815260200183838082843760009201919091525061221a92505050565b610fa4612264565b610fac612264565b610fc46000805160206137b883398151915284611ed8565b610194805460ff191660ff88161790556101958590556000610fec6040840160208501612edf565b6001600160a01b03161415801561101c575060006110106080840160608501612edf565b6001600160a01b031614155b8015611041575060006110356060840160408501612edf565b6001600160a01b031614155b6110865760405162461bcd60e51b81526020600482015260166024820152757a65726f206164647265737320696e20636f6e66696760501b6044820152606401610b62565b81610198611094828261343a565b50506040516110a9908d908d90602001613491565b60408051601f19818403018152919052805160209091012061019655610197849055610194805462ffff0019169055801561111e576000805461ff0019169055604051600181527f7f26b83ff96e1f2b6a682f133852f6798a09c465da95921460cefb38474024989060200160405180910390a15b505050505050505050505050565b6000806109316111746040518060200160405280670de0b6b3a764000061115260355490565b61115c91906134a1565b9052604080516020810190915261019554815261228d565b6122d5565b6001600160a01b038116600090815260996020526040812054610931565b6000606080600080600060606065546000801b1480156111b75750606654155b6111fb5760405162461bcd60e51b81526020600482015260156024820152741152540dcc4c8e88155b9a5b9a5d1a585b1a5e9959605a1b6044820152606401610b62565b6112036122ed565b61120b6122fc565b60408051600080825260208201909252600f60f81b9b939a50919850469750309650945092509050565b6101945460009062010000900460ff161561126357604051636864195160e01b815260040160405180910390fd5b60008051602061381f83398151915261127b81611b97565b60006112ba6111746040518060200160405280670de0b6b3a7640000886112a291906134a1565b9052604080516020810190915261019554815261230b565b90506112c68582612345565b949350505050565b6000918252610162602090815260408084206001600160a01b0393909316845291905290205460ff1690565b6060603780546109fd90613325565b60008051602061377883398151915261132181611b97565b610194546301000000900460ff161561134d5760405163c76a6dcb60e01b815260040160405180910390fd5b61135783836123f4565b81610197600082825461136a9190613407565b9091555050505050565b600033816113828286611a5b565b9050838110156113e25760405162461bcd60e51b815260206004820152602560248201527f45524332303a2064656372656173656420616c6c6f77616e63652062656c6f77604482015264207a65726f60d81b6064820152608401610b62565b610ab18286868403611ba1565b6000805160206137b883398151915261140781611b97565b61019454610100900460ff161561143157604051634ce377bb60e11b815260040160405180910390fd5b610194805461ff00191661010017905561019c80546001600160a01b0386166001600160a01b031990911617905561147760008051602061385f83398151915283611ed8565b61148f60008051602061381f83398151915286611ed8565b6114a760008051602061377883398151915286611ed8565b6114bf60008051602061379883398151915284611ed8565b61019c5461019654610195546040516327481ec760e21b8152600481019290925230602483015260448201526001600160a01b0390911690639d207b1c90606401600060405180830381600087803b15801561151a57600080fd5b505af115801561152e573d6000803e3d6000fd5b505050505050505050565b600033610a8e818585611d3f565b61019b5460408051630c87400960e11b8152905160609283926001600160a01b0390911691600091839163190e8012916004808201926020929091908290030181865afa15801561159c573d6000803e3d6000fd5b505050506040513d601f19601f820116820180604052508101906115c091906134b8565b60ff169050806001600160401b038111156115dd576115dd612efc565b604051908082528060200260200182016040528015611606578160200160208202803683370190505b509350806001600160401b0381111561162157611621612efc565b60405190808252806020026020018201604052801561164a578160200160208202803683370190505b50925060005b818110156117b55760405163172c48c760e01b8152600481018290526001600160a01b0384169063172c48c790602401602060405180830381865afa15801561169d573d6000803e3d6000fd5b505050506040513d601f19601f820116820180604052508101906116c191906134d5565b8582815181106116d3576116d36134f2565b60200260200101906001600160a01b031690816001600160a01b031681525050826001600160a01b03166320db25d5868381518110611714576117146134f2565b60200260200101516040518263ffffffff1660e01b815260040161174791906001600160a01b0391909116815260200190565b602060405180830381865afa158015611764573d6000803e3d6000fd5b505050506040513d601f19601f820116820180604052508101906117889190613508565b84828151811061179a5761179a6134f2565b60209081029190910101526117ae81613521565b9050611650565b5050509091565b60008051602061385f8339815191526117d481611b97565b610194805462ff00001916905561019c5461019654604051631d04a79b60e11b81526001600160a01b0390921691633a094f36916109b99160040190815260200190565b60008051602061381f83398151915261183081611b97565b6101975482111561185457604051632e8a972b60e11b815260040160405180910390fd5b816101976000828254611867919061353a565b90915550505050565b834211156118c05760405162461bcd60e51b815260206004820152601d60248201527f45524332305065726d69743a206578706972656420646561646c696e650000006044820152606401610b62565b60007f6e71edae12b1b97f4d1f60370fef10105fa2faae0126114a169c64845d6126c98888886118ef8c612516565b6040805160208101969096526001600160a01b0394851690860152929091166060840152608083015260a082015260c0810186905260e001604051602081830303815290604052805190602001209050600061194a8261253e565b9050600061195a8287878761256b565b9050896001600160a01b0316816001600160a01b0316146119bd5760405162461bcd60e51b815260206004820152601e60248201527f45524332305065726d69743a20696e76616c6964207369676e617475726500006044820152606401610b62565b6119c88a8a8a611ba1565b50505050505050505050565b600082815261016260205260409020600101546119f081611b97565b610ae28383611f69565b60008051602061385f833981519152611a1281611b97565b610194805462ff000019166201000017905561019c5461019654604051630e06d05360e21b81526001600160a01b039092169163381b414c916109b99160040190815260200190565b6001600160a01b03918216600090815260346020908152604080832093909416825291909152205490565b6101945460009062010000900460ff1615611ab457604051636864195160e01b815260040160405180910390fd5b60008051602061381f833981519152611acc81611b97565b611ad68484612345565b6000611afd6111746040518060200160405280670de0b6b3a76400008861115c91906134a1565b95945050505050565b6000600080516020613778833981519152611b2081611b97565b610194546301000000900460ff1615611b4c5760405163c76a6dcb60e01b815260040160405180910390fd5b611b5684846123f4565b826101976000828254611b699190613407565b925050819055506000611afd6111746040518060200160405280670de0b6b3a76400008861115c91906134a1565b610c3e8133612593565b6001600160a01b038316611c035760405162461bcd60e51b8152602060048201526024808201527f45524332303a20617070726f76652066726f6d20746865207a65726f206164646044820152637265737360e01b6064820152608401610b62565b6001600160a01b038216611c645760405162461bcd60e51b815260206004820152602260248201527f45524332303a20617070726f766520746f20746865207a65726f206164647265604482015261737360f01b6064820152608401610b62565b6001600160a01b0383811660008181526034602090815260408083209487168084529482529182902085905590518481527f8c5be1e5ebec7d5bd14f71427d1e84f3dd0314c0f7b2291e5b200ac8c7c3b925910160405180910390a3505050565b6000611cd18484611a5b565b90506000198114611d395781811015611d2c5760405162461bcd60e51b815260206004820152601d60248201527f45524332303a20696e73756666696369656e7420616c6c6f77616e63650000006044820152606401610b62565b611d398484848403611ba1565b50505050565b6001600160a01b038316611da35760405162461bcd60e51b815260206004820152602560248201527f45524332303a207472616e736665722066726f6d20746865207a65726f206164604482015264647265737360d81b6064820152608401610b62565b6001600160a01b038216611e055760405162461bcd60e51b815260206004820152602360248201527f45524332303a207472616e7366657220746f20746865207a65726f206164647260448201526265737360e81b6064820152608401610b62565b6001600160a01b03831660009081526033602052604090205481811015611e7d5760405162461bcd60e51b815260206004820152602660248201527f45524332303a207472616e7366657220616d6f756e7420657863656564732062604482015265616c616e636560d01b6064820152608401610b62565b6001600160a01b03808516600081815260336020526040808220868603905592861680825290839020805486019055915160008051602061383f83398151915290611ecb9086815260200190565b60405180910390a3611d39565b611ee282826112ce565b610b75576000828152610162602090815260408083206001600160a01b03851684529091529020805460ff19166001179055611f1b3390565b6001600160a01b0316816001600160a01b0316837f2f8788117e7eff1d82e926ec794901d17c78024a50270940304540a733656f0d60405160405180910390a45050565b6000610af16125ec565b611f7382826112ce565b15610b75576000828152610162602090815260408083206001600160a01b0385168085529252808320805460ff1916905551339285917ff6391f5c32d9c69d2a47ea670b442974b53935d1edc7fd64eb21e047a839171b9190a45050565b6000805160206137d8833981519152546001600160a01b031690565b60008051602061379883398151915261200581611b97565b61019c5460405163b3c2d50b60e01b81523060048201526001600160a01b0384811660248301529091169063b3c2d50b90604401600060405180830381600087803b15801561205357600080fd5b505af1158015612067573d6000803e3d6000fd5b505050505050565b7f4910fdfa16fed3260ed0e7147f7cc6da11a60208b5b9406d12a635614ffd91435460ff16156120a257610ae283612660565b826001600160a01b03166352d1902d6040518163ffffffff1660e01b8152600401602060405180830381865afa9250505080156120fc575060408051601f3d908101601f191682019092526120f991810190613508565b60015b61215f5760405162461bcd60e51b815260206004820152602e60248201527f45524331393637557067726164653a206e657720696d706c656d656e7461746960448201526d6f6e206973206e6f74205555505360901b6064820152608401610b62565b6000805160206137d883398151915281146121ce5760405162461bcd60e51b815260206004820152602960248201527f45524331393637557067726164653a20756e737570706f727465642070726f786044820152681a58589b195555525160ba1b6064820152608401610b62565b50610ae28383836126fa565b6001600160a01b03163b151590565b600054610100900460ff166122105760405162461bcd60e51b8152600401610b629061354d565b610b75828261271f565b600054610100900460ff166122415760405162461bcd60e51b8152600401610b629061354d565b610c3e81604051806040016040528060018152602001603160f81b81525061275f565b600054610100900460ff1661228b5760405162461bcd60e51b8152600401610b629061354d565b565b6040805160208101909152600081526040518060200160405280670de0b6b3a76400006122c2866000015186600001516127ae565b6122cc9190613598565b90529392505050565b805160009061093190670de0b6b3a764000090613598565b6060606780546109fd90613325565b6060606880546109fd90613325565b60408051602081019091526000815260405180602001604052806122cc61233e8660000151670de0b6b3a76400006127ae565b85516127c1565b6001600160a01b03821661239b5760405162461bcd60e51b815260206004820152601f60248201527f45524332303a206d696e7420746f20746865207a65726f2061646472657373006044820152606401610b62565b80603560008282546123ad9190613407565b90915550506001600160a01b03821660008181526033602090815260408083208054860190555184815260008051602061383f833981519152910160405180910390a35050565b6001600160a01b0382166124545760405162461bcd60e51b815260206004820152602160248201527f45524332303a206275726e2066726f6d20746865207a65726f206164647265736044820152607360f81b6064820152608401610b62565b6001600160a01b038216600090815260336020526040902054818110156124c85760405162461bcd60e51b815260206004820152602260248201527f45524332303a206275726e20616d6f756e7420657863656564732062616c616e604482015261636560f01b6064820152608401610b62565b6001600160a01b038316600081815260336020908152604080832086860390556035805487900390555185815291929160008051602061383f833981519152910160405180910390a3505050565b6001600160a01b03811660009081526099602052604090208054600181018255905b50919050565b600061093161254b611f5f565b8360405161190160f01b8152600281019290925260228201526042902090565b600080600061257c878787876127cd565b9150915061258981612887565b5095945050505050565b61259d82826112ce565b610b75576125aa816129cc565b6125b58360206129de565b6040516020016125c69291906135ba565b60408051601f198184030181529082905262461bcd60e51b8252610b6291600401612e0a565b60007f8b73c3c69bb8fe3d512ecc4cf759cc79239f7b179b0ffacaa9a75d522b39400f612617612b79565b61261f612bd2565b60408051602081019490945283019190915260608201524660808201523060a082015260c00160405160208183030381529060405280519060200120905090565b612669816121da565b6126cb5760405162461bcd60e51b815260206004820152602d60248201527f455243313936373a206e657720696d706c656d656e746174696f6e206973206e60448201526c1bdd08184818dbdb9d1c9858dd609a1b6064820152608401610b62565b6000805160206137d883398151915280546001600160a01b0319166001600160a01b0392909216919091179055565b61270383612c03565b6000825111806127105750805b15610ae257611d398383612c43565b600054610100900460ff166127465760405162461bcd60e51b8152600401610b629061354d565b6036612752838261366f565b506037610ae2828261366f565b600054610100900460ff166127865760405162461bcd60e51b8152600401610b629061354d565b6067612792838261366f565b50606861279f828261366f565b50506000606581905560665550565b60006127ba82846134a1565b9392505050565b60006127ba8284613598565b6000806fa2a8918ca85bafe22016d0b997e4df60600160ff1b038311156127fa575060009050600361287e565b6040805160008082526020820180845289905260ff881692820192909252606081018690526080810185905260019060a0016020604051602081039080840390855afa15801561284e573d6000803e3d6000fd5b5050604051601f1901519150506001600160a01b0381166128775760006001925092505061287e565b9150600090505b94509492505050565b600081600481111561289b5761289b61372e565b036128a35750565b60018160048111156128b7576128b761372e565b036128ff5760405162461bcd60e51b815260206004820152601860248201527745434453413a20696e76616c6964207369676e617475726560401b6044820152606401610b62565b60028160048111156129135761291361372e565b036129605760405162461bcd60e51b815260206004820152601f60248201527f45434453413a20696e76616c6964207369676e6174757265206c656e677468006044820152606401610b62565b60038160048111156129745761297461372e565b03610c3e5760405162461bcd60e51b815260206004820152602260248201527f45434453413a20696e76616c6964207369676e6174757265202773272076616c604482015261756560f01b6064820152608401610b62565b60606109316001600160a01b03831660145b606060006129ed8360026134a1565b6129f8906002613407565b6001600160401b03811115612a0f57612a0f612efc565b6040519080825280601f01601f191660200182016040528015612a39576020820181803683370190505b509050600360fc1b81600081518110612a5457612a546134f2565b60200101906001600160f81b031916908160001a905350600f60fb1b81600181518110612a8357612a836134f2565b60200101906001600160f81b031916908160001a9053506000612aa78460026134a1565b612ab2906001613407565b90505b6001811115612b2a576f181899199a1a9b1b9c1cb0b131b232b360811b85600f1660108110612ae657612ae66134f2565b1a60f81b828281518110612afc57612afc6134f2565b60200101906001600160f81b031916908160001a90535060049490941c93612b2381613744565b9050612ab5565b5083156127ba5760405162461bcd60e51b815260206004820181905260248201527f537472696e67733a20686578206c656e67746820696e73756666696369656e746044820152606401610b62565b600080612b846122ed565b805190915015612b9b578051602090910120919050565b6065548015612baa5792915050565b7fc5d2460186f7233c927e7db2dcc703c0e500b653ca82273b7bfad8045d85a4709250505090565b600080612bdd6122fc565b805190915015612bf4578051602090910120919050565b6066548015612baa5792915050565b612c0c81612660565b6040516001600160a01b038216907fbc7cd75a20ee27fd9adebab32041f755214dbc6bffa90cc0225b39da2e5c2d3b90600090a250565b60606127ba83836040518060600160405280602781526020016137f8602791396060600080856001600160a01b031685604051612c80919061375b565b600060405180830381855af49150503d8060008114612cbb576040519150601f19603f3d011682016040523d82523d6000602084013e612cc0565b606091505b5091509150612cd186838387612cdb565b9695505050505050565b60608315612d48578251600003612d4157612cf5856121da565b612d415760405162461bcd60e51b815260206004820152601d60248201527f416464726573733a2063616c6c20746f206e6f6e2d636f6e74726163740000006044820152606401610b62565b50816112c6565b6112c68383815115612d5d5781518083602001fd5b8060405162461bcd60e51b8152600401610b629190612e0a565b600060208284031215612d8957600080fd5b81356001600160e01b0319811681146127ba57600080fd5b600060208284031215612db357600080fd5b5035919050565b60005b83811015612dd5578181015183820152602001612dbd565b50506000910152565b60008151808452612df6816020860160208601612dba565b601f01601f19169290920160200192915050565b6020815260006127ba6020830184612dde565b6001600160a01b0381168114610c3e57600080fd5b8035612e3d81612e1d565b919050565b60008060408385031215612e5557600080fd5b8235612e6081612e1d565b946020939093013593505050565b600080600060608486031215612e8357600080fd5b8335612e8e81612e1d565b92506020840135612e9e81612e1d565b929592945050506040919091013590565b60008060408385031215612ec257600080fd5b823591506020830135612ed481612e1d565b809150509250929050565b600060208284031215612ef157600080fd5b81356127ba81612e1d565b634e487b7160e01b600052604160045260246000fd5b60008060408385031215612f2557600080fd5b8235612f3081612e1d565b915060208301356001600160401b0380821115612f4c57600080fd5b818501915085601f830112612f6057600080fd5b813581811115612f7257612f72612efc565b604051601f8201601f19908116603f01168101908382118183101715612f9a57612f9a612efc565b81604052828152886020848701011115612fb357600080fd5b8260208601602083013760006020848301015280955050505050509250929050565b60008083601f840112612fe757600080fd5b5081356001600160401b03811115612ffe57600080fd5b60208301915083602082850101111561301657600080fd5b9250929050565b60ff81168114610c3e57600080fd5b8035612e3d8161301d565b60006080828403121561253857600080fd5b60008060008060008060008060008060006101608c8e03121561306b57600080fd5b6001600160401b03808d35111561308157600080fd5b61308e8e8e358f01612fd5565b909c509a5060208d01358110156130a457600080fd5b6130b48e60208f01358f01612fd5565b909a50985060408d01358110156130ca57600080fd5b506130db8d60408e01358e01612fd5565b90975095506130ec60608d0161302c565b945060808c0135935060a08c0135925061310860c08d01612e32565b91506131178d60e08e01613037565b90509295989b509295989b9093969950565b600081518084526020808501945080840160005b838110156131595781518752958201959082019060010161313d565b509495945050505050565b60ff60f81b8816815260e06020820152600061318360e0830189612dde565b82810360408401526131958189612dde565b606084018890526001600160a01b038716608085015260a0840186905283810360c085015290506131c68185613129565b9a9950505050505050505050565b600080600080608085870312156131ea57600080fd5b84356131f581612e1d565b9350602085013561320581612e1d565b9250604085013561321581612e1d565b9150606085013561322581612e1d565b939692955090935050565b604080825283519082018190526000906020906060840190828701845b828110156132725781516001600160a01b03168452928401929084019060010161324d565b50505083810382850152612cd18186613129565b600080600080600080600060e0888a0312156132a157600080fd5b87356132ac81612e1d565b965060208801356132bc81612e1d565b9550604088013594506060880135935060808801356132da8161301d565b9699959850939692959460a0840135945060c09093013592915050565b6000806040838503121561330a57600080fd5b823561331581612e1d565b91506020830135612ed481612e1d565b600181811c9082168061333957607f821691505b60208210810361253857634e487b7160e01b600052602260045260246000fd5b6020808252602c908201527f46756e6374696f6e206d7573742062652063616c6c6564207468726f7567682060408201526b19195b1959d85d1958d85b1b60a21b606082015260800190565b6020808252602c908201527f46756e6374696f6e206d7573742062652063616c6c6564207468726f7567682060408201526b6163746976652070726f787960a01b606082015260800190565b634e487b7160e01b600052601160045260246000fd5b80820180821115610931576109316133f1565b80546001600160a01b0319166001600160a01b0392909216919091179055565b81358155602082013561344c81612e1d565b613459816001840161341a565b50604082013561346881612e1d565b613475816002840161341a565b50606082013561348481612e1d565b610ae2816003840161341a565b8183823760009101908152919050565b8082028115828204841417610931576109316133f1565b6000602082840312156134ca57600080fd5b81516127ba8161301d565b6000602082840312156134e757600080fd5b81516127ba81612e1d565b634e487b7160e01b600052603260045260246000fd5b60006020828403121561351a57600080fd5b5051919050565b600060018201613533576135336133f1565b5060010190565b81810381811115610931576109316133f1565b6020808252602b908201527f496e697469616c697a61626c653a20636f6e7472616374206973206e6f74206960408201526a6e697469616c697a696e6760a81b606082015260800190565b6000826135b557634e487b7160e01b600052601260045260246000fd5b500490565b76020b1b1b2b9b9a1b7b73a3937b61d1030b1b1b7bab73a1604d1b8152600083516135ec816017850160208801612dba565b7001034b99036b4b9b9b4b733903937b6329607d1b601791840191820152835161361d816028840160208801612dba565b01602801949350505050565b601f821115610ae257600081815260208120601f850160051c810160208610156136505750805b601f850160051c820191505b818110156120675782815560010161365c565b81516001600160401b0381111561368857613688612efc565b61369c816136968454613325565b84613629565b602080601f8311600181146136d157600084156136b95750858301515b600019600386901b1c1916600185901b178555612067565b600085815260208120601f198616915b82811015613700578886015182559484019460019091019084016136e1565b508582101561371e5787850151600019600388901b60f8161c191681555b5050505050600190811b01905550565b634e487b7160e01b600052602160045260246000fd5b600081613753576137536133f1565b506000190190565b6000825161376d818460208701612dba565b919091019291505056fe3c11d16cbaffd01df69ce1c404f6340ee057498f5f00246190ea54220576a848793a6c9b7e0a9549c74edc2f9ae0dc50903dfaa9a56fb0116b27a8c71de3e2c630d41a597cac127d8249d31298b50e481ee82c3f4a49ff93c76a22735aa9f3ad360894a13ba1a3210667c828492db98dca3e2076cc3735a920a3ca505d382bbc416464726573733a206c6f772d6c6576656c2064656c65676174652063616c6c206661696c65649f2df0fed2c77648de5860a4cc508cd0818c85b8b8a1ab4ceeef8d981c8956a6ddf252ad1be2c89b69c2b068fc378daa952ba7f163c4a11628f55a4df523b3efa49807205ce4d355092ef5a8a18f56e8913cf4a201fbe287825b095693c21775a2646970667358221220c76afd7d14bd2d721f594e9d84dd1426213dcd4f792ab66f79579c45117921e464736f6c63430008120033",
  "linkReferences": {},
  "deployedLinkReferences": {}
}