{
  "_format": "hh-sol-artifact-1",
  "contractName": "TermRepoToken",
  "sourceName": "contracts/TermRepoToken.sol",
  "abi": [
    {
      "inputs": [],
      "stateMutability": "nonpayable",
      "type": "constructor"
    },
    {
      "inputs": [],
      "name": "AlreadyTermContractPaired",
      "type": "error"
    },
    {
      "inputs": [],
      "name": "MintExposureCapExceeded",
      "type": "error"
    },
    {
      "inputs": [],
      "name": "TermRepoTokenBurningPaused",
      "type": "error"
    },
    {
      "inputs": [],
      "name": "TermRepoTokenMintingPaused",
      "type": "error"
    },
    {
      "anonymous": false,
      "inputs": [
        {
          "indexed": false,
          "internalType": "address",
          "name": "previousAdmin",
          "type": "address"
        },
        {
          "indexed": false,
          "internalType": "address",
          "name": "newAdmin",
          "type": "address"
        }
      ],
      "name": "AdminChanged",
      "type": "event"
    },
    {
      "anonymous": false,
      "inputs": [
        {
          "indexed": true,
          "internalType": "address",
          "name": "owner",
          "type": "address"
        },
        {
          "indexed": true,
          "internalType": "address",
          "name": "spender",
          "type": "address"
        },
        {
          "indexed": false,
          "internalType": "uint256",
          "name": "value",
          "type": "uint256"
        }
      ],
      "name": "Approval",
      "type": "event"
    },
    {
      "anonymous": false,
      "inputs": [
        {
          "indexed": true,
          "internalType": "address",
          "name": "beacon",
          "type": "address"
        }
      ],
      "name": "BeaconUpgraded",
      "type": "event"
    },
    {
      "anonymous": false,
      "inputs": [
        {
          "indexed": false,
          "internalType": "uint8",
          "name": "version",
          "type": "uint8"
        }
      ],
      "name": "Initialized",
      "type": "event"
    },
    {
      "anonymous": false,
      "inputs": [
        {
          "indexed": true,
          "internalType": "bytes32",
          "name": "role",
          "type": "bytes32"
        },
        {
          "indexed": true,
          "internalType": "bytes32",
          "name": "previousAdminRole",
          "type": "bytes32"
        },
        {
          "indexed": true,
          "internalType": "bytes32",
          "name": "newAdminRole",
          "type": "bytes32"
        }
      ],
      "name": "RoleAdminChanged",
      "type": "event"
    },
    {
      "anonymous": false,
      "inputs": [
        {
          "indexed": true,
          "internalType": "bytes32",
          "name": "role",
          "type": "bytes32"
        },
        {
          "indexed": true,
          "internalType": "address",
          "name": "account",
          "type": "address"
        },
        {
          "indexed": true,
          "internalType": "address",
          "name": "sender",
          "type": "address"
        }
      ],
      "name": "RoleGranted",
      "type": "event"
    },
    {
      "anonymous": false,
      "inputs": [
        {
          "indexed": true,
          "internalType": "bytes32",
          "name": "role",
          "type": "bytes32"
        },
        {
          "indexed": true,
          "internalType": "address",
          "name": "account",
          "type": "address"
        },
        {
          "indexed": true,
          "internalType": "address",
          "name": "sender",
          "type": "address"
        }
      ],
      "name": "RoleRevoked",
      "type": "event"
    },
    {
      "anonymous": false,
      "inputs": [
        {
          "indexed": true,
          "internalType": "address",
          "name": "from",
          "type": "address"
        },
        {
          "indexed": true,
          "internalType": "address",
          "name": "to",
          "type": "address"
        },
        {
          "indexed": false,
          "internalType": "uint256",
          "name": "value",
          "type": "uint256"
        }
      ],
      "name": "Transfer",
      "type": "event"
    },
    {
      "anonymous": false,
      "inputs": [
        {
          "indexed": true,
          "internalType": "address",
          "name": "implementation",
          "type": "address"
        }
      ],
      "name": "Upgraded",
      "type": "event"
    },
    {
      "inputs": [],
      "name": "ADMIN_ROLE",
      "outputs": [
        {
          "internalType": "bytes32",
          "name": "",
          "type": "bytes32"
        }
      ],
      "stateMutability": "view",
      "type": "function"
    },
    {
      "inputs": [],
      "name": "BURNER_ROLE",
      "outputs": [
        {
          "internalType": "bytes32",
          "name": "",
          "type": "bytes32"
        }
      ],
      "stateMutability": "view",
      "type": "function"
    },
    {
      "inputs": [],
      "name": "DEFAULT_ADMIN_ROLE",
      "outputs": [
        {
          "internalType": "bytes32",
          "name": "",
          "type": "bytes32"
        }
      ],
      "stateMutability": "view",
      "type": "function"
    },
    {
      "inputs": [],
      "name": "DEVOPS_ROLE",
      "outputs": [
        {
          "internalType": "bytes32",
          "name": "",
          "type": "bytes32"
        }
      ],
      "stateMutability": "view",
      "type": "function"
    },
    {
      "inputs": [],
      "name": "INITIALIZER_ROLE",
      "outputs": [
        {
          "internalType": "bytes32",
          "name": "",
          "type": "bytes32"
        }
      ],
      "stateMutability": "view",
      "type": "function"
    },
    {
      "inputs": [],
      "name": "MINTER_ROLE",
      "outputs": [
        {
          "internalType": "bytes32",
          "name": "",
          "type": "bytes32"
        }
      ],
      "stateMutability": "view",
      "type": "function"
    },
    {
      "inputs": [
        {
          "internalType": "address",
          "name": "owner",
          "type": "address"
        },
        {
          "internalType": "address",
          "name": "spender",
          "type": "address"
        }
      ],
      "name": "allowance",
      "outputs": [
        {
          "internalType": "uint256",
          "name": "",
          "type": "uint256"
        }
      ],
      "stateMutability": "view",
      "type": "function"
    },
    {
      "inputs": [
        {
          "internalType": "address",
          "name": "spender",
          "type": "address"
        },
        {
          "internalType": "uint256",
          "name": "amount",
          "type": "uint256"
        }
      ],
      "name": "approve",
      "outputs": [
        {
          "internalType": "bool",
          "name": "",
          "type": "bool"
        }
      ],
      "stateMutability": "nonpayable",
      "type": "function"
    },
    {
      "inputs": [
        {
          "internalType": "address",
          "name": "account",
          "type": "address"
        }
      ],
      "name": "balanceOf",
      "outputs": [
        {
          "internalType": "uint256",
          "name": "",
          "type": "uint256"
        }
      ],
      "stateMutability": "view",
      "type": "function"
    },
    {
      "inputs": [
        {
          "internalType": "address",
          "name": "account",
          "type": "address"
        },
        {
          "internalType": "uint256",
          "name": "amount",
          "type": "uint256"
        }
      ],
      "name": "burn",
      "outputs": [],
      "stateMutability": "nonpayable",
      "type": "function"
    },
    {
      "inputs": [
        {
          "internalType": "address",
          "name": "account",
          "type": "address"
        },
        {
          "internalType": "uint256",
          "name": "amount",
          "type": "uint256"
        }
      ],
      "name": "burnAndReturnValue",
      "outputs": [
        {
          "internalType": "uint256",
          "name": "",
          "type": "uint256"
        }
      ],
      "stateMutability": "nonpayable",
      "type": "function"
    },
    {
      "inputs": [],
      "name": "burningPaused",
      "outputs": [
        {
          "internalType": "bool",
          "name": "",
          "type": "bool"
        }
      ],
      "stateMutability": "view",
      "type": "function"
    },
    {
      "inputs": [],
      "name": "config",
      "outputs": [
        {
          "internalType": "uint256",
          "name": "redemptionTimestamp",
          "type": "uint256"
        },
        {
          "internalType": "address",
          "name": "purchaseToken",
          "type": "address"
        }
      ],
      "stateMutability": "view",
      "type": "function"
    },
    {
      "inputs": [],
      "name": "decimals",
      "outputs": [
        {
          "internalType": "uint8",
          "name": "",
          "type": "uint8"
        }
      ],
      "stateMutability": "view",
      "type": "function"
    },
    {
      "inputs": [
        {
          "internalType": "address",
          "name": "spender",
          "type": "address"
        },
        {
          "internalType": "uint256",
          "name": "subtractedValue",
          "type": "uint256"
        }
      ],
      "name": "decreaseAllowance",
      "outputs": [
        {
          "internalType": "bool",
          "name": "",
          "type": "bool"
        }
      ],
      "stateMutability": "nonpayable",
      "type": "function"
    },
    {
      "inputs": [
        {
          "internalType": "uint256",
          "name": "supplyMinted",
          "type": "uint256"
        }
      ],
      "name": "decrementMintExposureCap",
      "outputs": [],
      "stateMutability": "nonpayable",
      "type": "function"
    },
    {
      "inputs": [
        {
          "internalType": "bytes32",
          "name": "role",
          "type": "bytes32"
        }
      ],
      "name": "getRoleAdmin",
      "outputs": [
        {
          "internalType": "bytes32",
          "name": "",
          "type": "bytes32"
        }
      ],
      "stateMutability": "view",
      "type": "function"
    },
    {
      "inputs": [
        {
          "internalType": "bytes32",
          "name": "role",
          "type": "bytes32"
        },
        {
          "internalType": "address",
          "name": "account",
          "type": "address"
        }
      ],
      "name": "grantRole",
      "outputs": [],
      "stateMutability": "nonpayable",
      "type": "function"
    },
    {
      "inputs": [
        {
          "internalType": "bytes32",
          "name": "role",
          "type": "bytes32"
        },
        {
          "internalType": "address",
          "name": "account",
          "type": "address"
        }
      ],
      "name": "hasRole",
      "outputs": [
        {
          "internalType": "bool",
          "name": "",
          "type": "bool"
        }
      ],
      "stateMutability": "view",
      "type": "function"
    },
    {
      "inputs": [
        {
          "internalType": "address",
          "name": "spender",
          "type": "address"
        },
        {
          "internalType": "uint256",
          "name": "addedValue",
          "type": "uint256"
        }
      ],
      "name": "increaseAllowance",
      "outputs": [
        {
          "internalType": "bool",
          "name": "",
          "type": "bool"
        }
      ],
      "stateMutability": "nonpayable",
      "type": "function"
    },
    {
      "inputs": [
        {
          "internalType": "string",
          "name": "termRepoId_",
          "type": "string"
        },
        {
          "internalType": "string",
          "name": "name_",
          "type": "string"
        },
        {
          "internalType": "string",
          "name": "symbol_",
          "type": "string"
        },
        {
          "internalType": "uint8",
          "name": "decimalPlaces_",
          "type": "uint8"
        },
        {
          "internalType": "uint256",
          "name": "redemptionValue_",
          "type": "uint256"
        },
        {
          "internalType": "uint256",
          "name": "mintExposureCap_",
          "type": "uint256"
        },
        {
          "internalType": "address",
          "name": "termInitializer_",
          "type": "address"
        },
        {
          "components": [
            {
              "internalType": "uint256",
              "name": "redemptionTimestamp",
              "type": "uint256"
            },
            {
              "internalType": "address",
              "name": "purchaseToken",
              "type": "address"
            },
            {
              "internalType": "address[]",
              "name": "collateralTokens",
              "type": "address[]"
            },
            {
              "internalType": "uint256[]",
              "name": "maintenanceCollateralRatios",
              "type": "uint256[]"
            }
          ],
          "internalType": "struct TermRepoTokenConfig",
          "name": "config_",
          "type": "tuple"
        }
      ],
      "name": "initialize",
      "outputs": [],
      "stateMutability": "nonpayable",
      "type": "function"
    },
    {
      "inputs": [],
      "name": "mintExposureCap",
      "outputs": [
        {
          "internalType": "uint256",
          "name": "",
          "type": "uint256"
        }
      ],
      "stateMutability": "view",
      "type": "function"
    },
    {
      "inputs": [
        {
          "internalType": "address",
          "name": "account",
          "type": "address"
        },
        {
          "internalType": "uint256",
          "name": "redemptionAmount",
          "type": "uint256"
        }
      ],
      "name": "mintRedemptionValue",
      "outputs": [
        {
          "internalType": "uint256",
          "name": "",
          "type": "uint256"
        }
      ],
      "stateMutability": "nonpayable",
      "type": "function"
    },
    {
      "inputs": [
        {
          "internalType": "address",
          "name": "account",
          "type": "address"
        },
        {
          "internalType": "uint256",
          "name": "numTokens",
          "type": "uint256"
        }
      ],
      "name": "mintTokens",
      "outputs": [
        {
          "internalType": "uint256",
          "name": "",
          "type": "uint256"
        }
      ],
      "stateMutability": "nonpayable",
      "type": "function"
    },
    {
      "inputs": [],
      "name": "mintingPaused",
      "outputs": [
        {
          "internalType": "bool",
          "name": "",
          "type": "bool"
        }
      ],
      "stateMutability": "view",
      "type": "function"
    },
    {
      "inputs": [],
      "name": "name",
      "outputs": [
        {
          "internalType": "string",
          "name": "",
          "type": "string"
        }
      ],
      "stateMutability": "view",
      "type": "function"
    },
    {
      "inputs": [
        {
          "internalType": "address",
          "name": "termRepoServicer_",
          "type": "address"
        },
        {
          "internalType": "contract ITermEventEmitter",
          "name": "emitter_",
          "type": "address"
        },
        {
          "internalType": "address",
          "name": "devopsMultisig_",
          "type": "address"
        },
        {
          "internalType": "address",
          "name": "adminWallet_",
          "type": "address"
        }
      ],
      "name": "pairTermContracts",
      "outputs": [],
      "stateMutability": "nonpayable",
      "type": "function"
    },
    {
      "inputs": [],
      "name": "pauseBurning",
      "outputs": [],
      "stateMutability": "nonpayable",
      "type": "function"
    },
    {
      "inputs": [],
      "name": "pauseMinting",
      "outputs": [],
      "stateMutability": "nonpayable",
      "type": "function"
    },
    {
      "inputs": [],
      "name": "proxiableUUID",
      "outputs": [
        {
          "internalType": "bytes32",
          "name": "",
          "type": "bytes32"
        }
      ],
      "stateMutability": "view",
      "type": "function"
    },
    {
      "inputs": [],
      "name": "redemptionValue",
      "outputs": [
        {
          "internalType": "uint256",
          "name": "",
          "type": "uint256"
        }
      ],
      "stateMutability": "view",
      "type": "function"
    },
    {
      "inputs": [
        {
          "internalType": "bytes32",
          "name": "role",
          "type": "bytes32"
        },
        {
          "internalType": "address",
          "name": "account",
          "type": "address"
        }
      ],
      "name": "renounceRole",
      "outputs": [],
      "stateMutability": "nonpayable",
      "type": "function"
    },
    {
      "inputs": [
        {
          "internalType": "uint256",
          "name": "mintExposureCap_",
          "type": "uint256"
        }
      ],
      "name": "resetMintExposureCap",
      "outputs": [],
      "stateMutability": "nonpayable",
      "type": "function"
    },
    {
      "inputs": [
        {
          "internalType": "bytes32",
          "name": "role",
          "type": "bytes32"
        },
        {
          "internalType": "address",
          "name": "account",
          "type": "address"
        }
      ],
      "name": "revokeRole",
      "outputs": [],
      "stateMutability": "nonpayable",
      "type": "function"
    },
    {
      "inputs": [
        {
          "internalType": "bytes4",
          "name": "interfaceId",
          "type": "bytes4"
        }
      ],
      "name": "supportsInterface",
      "outputs": [
        {
          "internalType": "bool",
          "name": "",
          "type": "bool"
        }
      ],
      "stateMutability": "view",
      "type": "function"
    },
    {
      "inputs": [],
      "name": "symbol",
      "outputs": [
        {
          "internalType": "string",
          "name": "",
          "type": "string"
        }
      ],
      "stateMutability": "view",
      "type": "function"
    },
    {
      "inputs": [],
      "name": "termRepoId",
      "outputs": [
        {
          "internalType": "bytes32",
          "name": "",
          "type": "bytes32"
        }
      ],
      "stateMutability": "view",
      "type": "function"
    },
    {
      "inputs": [],
      "name": "totalRedemptionValue",
      "outputs": [
        {
          "internalType": "uint256",
          "name": "",
          "type": "uint256"
        }
      ],
      "stateMutability": "view",
      "type": "function"
    },
    {
      "inputs": [],
      "name": "totalSupply",
      "outputs": [
        {
          "internalType": "uint256",
          "name": "",
          "type": "uint256"
        }
      ],
      "stateMutability": "view",
      "type": "function"
    },
    {
      "inputs": [
        {
          "internalType": "address",
          "name": "to",
          "type": "address"
        },
        {
          "internalType": "uint256",
          "name": "amount",
          "type": "uint256"
        }
      ],
      "name": "transfer",
      "outputs": [
        {
          "internalType": "bool",
          "name": "",
          "type": "bool"
        }
      ],
      "stateMutability": "nonpayable",
      "type": "function"
    },
    {
      "inputs": [
        {
          "internalType": "address",
          "name": "from",
          "type": "address"
        },
        {
          "internalType": "address",
          "name": "to",
          "type": "address"
        },
        {
          "internalType": "uint256",
          "name": "amount",
          "type": "uint256"
        }
      ],
      "name": "transferFrom",
      "outputs": [
        {
          "internalType": "bool",
          "name": "",
          "type": "bool"
        }
      ],
      "stateMutability": "nonpayable",
      "type": "function"
    },
    {
      "inputs": [],
      "name": "unpauseBurning",
      "outputs": [],
      "stateMutability": "nonpayable",
      "type": "function"
    },
    {
      "inputs": [],
      "name": "unpauseMinting",
      "outputs": [],
      "stateMutability": "nonpayable",
      "type": "function"
    },
    {
      "inputs": [
        {
          "internalType": "address",
          "name": "newImplementation",
          "type": "address"
        }
      ],
      "name": "upgradeTo",
      "outputs": [],
      "stateMutability": "nonpayable",
      "type": "function"
    },
    {
      "inputs": [
        {
          "internalType": "address",
          "name": "newImplementation",
          "type": "address"
        },
        {
          "internalType": "bytes",
          "name": "data",
          "type": "bytes"
        }
      ],
      "name": "upgradeToAndCall",
      "outputs": [],
      "stateMutability": "payable",
      "type": "function"
    },
    {
      "inputs": [],
      "name": "version",
      "outputs": [
        {
          "internalType": "string",
          "name": "",
          "type": "string"
        }
      ],
      "stateMutability": "view",
      "type": "function"
    }
  ],
  "bytecode": "0x60a0604052306080523480156200001557600080fd5b506200002062000026565b620000e7565b600054610100900460ff1615620000935760405162461bcd60e51b815260206004820152602760248201527f496e697469616c697a61626c653a20636f6e747261637420697320696e697469604482015266616c697a696e6760c81b606482015260840160405180910390fd5b60005460ff90811614620000e5576000805460ff191660ff9081179091556040519081527f7f26b83ff96e1f2b6a682f133852f6798a09c465da95921460cefb38474024989060200160405180910390a15b565b608051612d4b6200011f60003960008181610a7a01528181610aba01528181610ddf01528181610e1f0152610e970152612d4b6000f3fe60806040526004361061023d5760003560e01c806375b238fc1161012f578063ae200322116100b1578063ae200322146106b5578063b979dee3146106ca578063cc5b6e4a146106ea578063d539139314610701578063d547741f14610723578063da8fbf2a14610743578063dd62ed3e14610758578063e1a283d614610778578063ef4474cd14610799578063f0dda65c146107b0578063f59bb446146107d0578063f9e4f0ed146107f057600080fd5b806375b238fc1461054457806379502c5514610566578063833c1d95146105a95780638bef7f5b146105cb57806391d14854146105eb57806395d89b411461060b5780639dc29fac14610620578063a217fddf14610640578063a457c2d714610655578063a8f421c214610675578063a9059cbb1461069557600080fd5b80632f2ff15d116101c35780632f2ff15d146103c5578063313ce567146103e557806336568abe146104085780633659cfe61461042857806338b616c114610448578063395093511461045d5780634be1e2a41461047d5780634f1ef2861461049d57806352d1902d146104b057806354fd4d50146104c557806370a08231146104f9578063723f4e2a1461052f57600080fd5b806301ffc9a714610242578063056824de14610277578063059cbd9b1461029957806306fdde03146102ae578063095ea7b3146102d057806318160ddd146102f0578063201a66251461030f57806323b872dd14610331578063248a9ca31461035157806327df3d3e14610381578063282c51f3146103a3575b600080fd5b34801561024e57600080fd5b5061026261025d3660046122af565b610807565b60405190151581526020015b60405180910390f35b34801561028357600080fd5b506102976102923660046122d9565b61083e565b005b3480156102a557600080fd5b5061029761085d565b3480156102ba57600080fd5b506102c36108f5565b60405161026e9190612316565b3480156102dc57600080fd5b506102626102eb36600461236e565b610987565b3480156102fc57600080fd5b506035545b60405190815260200161026e565b34801561031b57600080fd5b50610301600080516020612c2f83398151915281565b34801561033d57600080fd5b5061026261034c36600461239a565b61099f565b34801561035d57600080fd5b5061030161036c3660046122d9565b600090815260fb602052604090206001015490565b34801561038d57600080fd5b50610301600080516020612c4f83398151915281565b3480156103af57600080fd5b50610301600080516020612c0f83398151915281565b3480156103d157600080fd5b506102976103e03660046123db565b6109c3565b3480156103f157600080fd5b5061012d5460405160ff909116815260200161026e565b34801561041457600080fd5b506102976104233660046123db565b6109ed565b34801561043457600080fd5b5061029761044336600461240b565b610a70565b34801561045457600080fd5b50610297610b38565b34801561046957600080fd5b5061026261047836600461236e565b610b95565b34801561048957600080fd5b50610297610498366004612499565b610bb7565b6102976104ab3660046125a3565b610dd5565b3480156104bc57600080fd5b50610301610e8a565b3480156104d157600080fd5b5060408051808201909152600b81526a19195d995b1bdc1b595b9d60aa1b60208201526102c3565b34801561050557600080fd5b5061030161051436600461240b565b6001600160a01b031660009081526033602052604090205490565b34801561053b57600080fd5b50610301610f38565b34801561055057600080fd5b50610301600080516020612cf683398151915281565b34801561057257600080fd5b50610131546101325461058c91906001600160a01b031682565b604080519283526001600160a01b0390911660208301520161026e565b3480156105b557600080fd5b5061012d54610262906301000000900460ff1681565b3480156105d757600080fd5b506103016105e636600461236e565b610f85565b3480156105f757600080fd5b506102626106063660046123db565b61101e565b34801561061757600080fd5b506102c3611049565b34801561062c57600080fd5b5061029761063b36600461236e565b611058565b34801561064c57600080fd5b50610301600081565b34801561066157600080fd5b5061026261067036600461236e565b6110c3565b34801561068157600080fd5b50610297610690366004612666565b61113e565b3480156106a157600080fd5b506102626106b036600461236e565b611288565b3480156106c157600080fd5b50610297611296565b3480156106d657600080fd5b506102976106e53660046122d9565b6112f2565b3480156106f657600080fd5b5061030161012f5481565b34801561070d57600080fd5b50610301600080516020612cb683398151915281565b34801561072f57600080fd5b5061029761073e3660046123db565b61134a565b34801561074f57600080fd5b5061029761136f565b34801561076457600080fd5b506103016107733660046126c2565b6113d0565b34801561078457600080fd5b5061012d546102629062010000900460ff1681565b3480156107a557600080fd5b5061030161012e5481565b3480156107bc57600080fd5b506103016107cb36600461236e565b6113fb565b3480156107dc57600080fd5b506103016107eb36600461236e565b61147b565b3480156107fc57600080fd5b506103016101305481565b60006001600160e01b03198216637965db0b60e01b148061083857506301ffc9a760e01b6001600160e01b03198316145b92915050565b600080516020612cf68339815191526108568161150c565b5061013055565b600080516020612cf68339815191526108758161150c565b61012d805463ff000000191663010000001790556101355461012f54604051630954cf0360e01b81526001600160a01b0390921691630954cf03916108c09160040190815260200190565b600060405180830381600087803b1580156108da57600080fd5b505af11580156108ee573d6000803e3d6000fd5b5050505050565b606060368054610904906126f0565b80601f0160208091040260200160405190810160405280929190818152602001828054610930906126f0565b801561097d5780601f106109525761010080835404028352916020019161097d565b820191906000526020600020905b81548152906001019060200180831161096057829003601f168201915b5050505050905090565b600033610995818585611516565b5060019392505050565b6000336109ad85828561163a565b6109b88585856116b4565b506001949350505050565b600082815260fb60205260409020600101546109de8161150c565b6109e8838361184d565b505050565b6001600160a01b0381163314610a625760405162461bcd60e51b815260206004820152602f60248201527f416363657373436f6e74726f6c3a2063616e206f6e6c792072656e6f756e636560448201526e103937b632b9903337b91039b2b63360891b60648201526084015b60405180910390fd5b610a6c82826118d3565b5050565b6001600160a01b037f0000000000000000000000000000000000000000000000000000000000000000163003610ab85760405162461bcd60e51b8152600401610a5990612724565b7f00000000000000000000000000000000000000000000000000000000000000006001600160a01b0316610aea61193a565b6001600160a01b031614610b105760405162461bcd60e51b8152600401610a5990612770565b610b1981611956565b60408051600080825260208201909252610b35918391906119d8565b50565b600080516020612cf6833981519152610b508161150c565b61012d805463ff000000191690556101355461012f5460405163b29aaf7560e01b81526001600160a01b039092169163b29aaf75916108c09160040190815260200190565b600033610995818585610ba883836113d0565b610bb291906127d2565b611516565b600054610100900460ff1615808015610bd75750600054600160ff909116105b80610bf85750610be630611b43565b158015610bf8575060005460ff166001145b610c5b5760405162461bcd60e51b815260206004820152602e60248201527f496e697469616c697a61626c653a20636f6e747261637420697320616c72656160448201526d191e481a5b9a5d1a585b1a5e995960921b6064820152608401610a59565b6000805460ff191660011790558015610c7e576000805461ff0019166101001790555b610cf18a8a8080601f01602080910402602001604051908101604052809392919081815260200183838082843760009201919091525050604080516020601f8e018190048102820181019092528c815292508c91508b9081908401838280828437600092019190915250611b5292505050565b610cf9611b83565b610d01611b83565b610d19600080516020612c4f8339815191528461184d565b61012d805460ff191660ff881617905561012e85905581610131610d3d82826128e6565b5050604051610d52908d908d906020016129b5565b60408051601f19818403018152919052805160209091012061012f5561013084905561012d805462ffff00191690558015610dc7576000805461ff0019169055604051600181527f7f26b83ff96e1f2b6a682f133852f6798a09c465da95921460cefb38474024989060200160405180910390a15b505050505050505050505050565b6001600160a01b037f0000000000000000000000000000000000000000000000000000000000000000163003610e1d5760405162461bcd60e51b8152600401610a5990612724565b7f00000000000000000000000000000000000000000000000000000000000000006001600160a01b0316610e4f61193a565b6001600160a01b031614610e755760405162461bcd60e51b8152600401610a5990612770565b610e7e82611956565b610a6c828260016119d8565b6000306001600160a01b037f00000000000000000000000000000000000000000000000000000000000000001614610f255760405162461bcd60e51b815260206004820152603860248201527f555550535570677261646561626c653a206d757374206e6f742062652063616c6044820152771b1959081d1a1c9bdd59da0819195b1959d85d1958d85b1b60421b6064820152608401610a59565b50600080516020612c6f83398151915290565b600080610838610f806040518060200160405280670de0b6b3a7640000610f5e60355490565b610f68919061282e565b9052604080516020810190915261012e548152611bac565b611bf4565b61012d5460009062010000900460ff1615610fb357604051636864195160e01b815260040160405180910390fd5b600080516020612cb6833981519152610fcb8161150c565b600061100a610f806040518060200160405280670de0b6b3a764000088610ff2919061282e565b9052604080516020810190915261012e548152611c0c565b90506110168582611c46565b949350505050565b600091825260fb602090815260408084206001600160a01b0393909316845291905290205460ff1690565b606060378054610904906126f0565b600080516020612c0f8339815191526110708161150c565b61012d546301000000900460ff161561109c5760405163c76a6dcb60e01b815260040160405180910390fd5b6110a68383611cf5565b8161013060008282546110b991906127d2565b9091555050505050565b600033816110d182866113d0565b9050838110156111315760405162461bcd60e51b815260206004820152602560248201527f45524332303a2064656372656173656420616c6c6f77616e63652062656c6f77604482015264207a65726f60d81b6064820152608401610a59565b6109b88286868403611516565b600080516020612c4f8339815191526111568161150c565b61012d54610100900460ff161561118057604051634ce377bb60e11b815260040160405180910390fd5b61012d805461ff00191661010017905561013580546001600160a01b0386166001600160a01b03199091161790556111c6600080516020612cf68339815191528361184d565b6111de600080516020612cb68339815191528661184d565b6111f6600080516020612c0f8339815191528661184d565b61120e600080516020612c2f8339815191528461184d565b6101355461012f5461012e546040516327481ec760e21b8152600481019290925230602483015260448201526001600160a01b0390911690639d207b1c90606401600060405180830381600087803b15801561126957600080fd5b505af115801561127d573d6000803e3d6000fd5b505050505050505050565b6000336109958185856116b4565b600080516020612cf68339815191526112ae8161150c565b61012d805462ff0000191690556101355461012f54604051631d04a79b60e11b81526001600160a01b0390921691633a094f36916108c09160040190815260200190565b600080516020612cb683398151915261130a8161150c565b6101305482111561132e57604051632e8a972b60e11b815260040160405180910390fd5b81610130600082825461134191906129c5565b90915550505050565b600082815260fb60205260409020600101546113658161150c565b6109e883836118d3565b600080516020612cf68339815191526113878161150c565b61012d805462ff00001916620100001790556101355461012f54604051630e06d05360e21b81526001600160a01b039092169163381b414c916108c09160040190815260200190565b6001600160a01b03918216600090815260346020908152604080832093909416825291909152205490565b61012d5460009062010000900460ff161561142957604051636864195160e01b815260040160405180910390fd5b600080516020612cb68339815191526114418161150c565b61144b8484611c46565b6000611472610f806040518060200160405280670de0b6b3a764000088610f68919061282e565b95945050505050565b6000600080516020612c0f8339815191526114958161150c565b61012d546301000000900460ff16156114c15760405163c76a6dcb60e01b815260040160405180910390fd5b6114cb8484611cf5565b8261013060008282546114de91906127d2565b925050819055506000611472610f806040518060200160405280670de0b6b3a764000088610f68919061282e565b610b358133611e17565b6001600160a01b0383166115785760405162461bcd60e51b8152602060048201526024808201527f45524332303a20617070726f76652066726f6d20746865207a65726f206164646044820152637265737360e01b6064820152608401610a59565b6001600160a01b0382166115d95760405162461bcd60e51b815260206004820152602260248201527f45524332303a20617070726f766520746f20746865207a65726f206164647265604482015261737360f01b6064820152608401610a59565b6001600160a01b0383811660008181526034602090815260408083209487168084529482529182902085905590518481527f8c5be1e5ebec7d5bd14f71427d1e84f3dd0314c0f7b2291e5b200ac8c7c3b925910160405180910390a3505050565b600061164684846113d0565b905060001981146116ae57818110156116a15760405162461bcd60e51b815260206004820152601d60248201527f45524332303a20696e73756666696369656e7420616c6c6f77616e63650000006044820152606401610a59565b6116ae8484848403611516565b50505050565b6001600160a01b0383166117185760405162461bcd60e51b815260206004820152602560248201527f45524332303a207472616e736665722066726f6d20746865207a65726f206164604482015264647265737360d81b6064820152608401610a59565b6001600160a01b03821661177a5760405162461bcd60e51b815260206004820152602360248201527f45524332303a207472616e7366657220746f20746865207a65726f206164647260448201526265737360e81b6064820152608401610a59565b6001600160a01b038316600090815260336020526040902054818110156117f25760405162461bcd60e51b815260206004820152602660248201527f45524332303a207472616e7366657220616d6f756e7420657863656564732062604482015265616c616e636560d01b6064820152608401610a59565b6001600160a01b038085166000818152603360205260408082208686039055928616808252908390208054860190559151600080516020612cd6833981519152906118409086815260200190565b60405180910390a36116ae565b611857828261101e565b610a6c57600082815260fb602090815260408083206001600160a01b03851684529091529020805460ff1916600117905561188f3390565b6001600160a01b0316816001600160a01b0316837f2f8788117e7eff1d82e926ec794901d17c78024a50270940304540a733656f0d60405160405180910390a45050565b6118dd828261101e565b15610a6c57600082815260fb602090815260408083206001600160a01b0385168085529252808320805460ff1916905551339285917ff6391f5c32d9c69d2a47ea670b442974b53935d1edc7fd64eb21e047a839171b9190a45050565b600080516020612c6f833981519152546001600160a01b031690565b600080516020612c2f83398151915261196e8161150c565b6101355460405163b3c2d50b60e01b81523060048201526001600160a01b0384811660248301529091169063b3c2d50b90604401600060405180830381600087803b1580156119bc57600080fd5b505af11580156119d0573d6000803e3d6000fd5b505050505050565b7f4910fdfa16fed3260ed0e7147f7cc6da11a60208b5b9406d12a635614ffd91435460ff1615611a0b576109e883611e70565b826001600160a01b03166352d1902d6040518163ffffffff1660e01b8152600401602060405180830381865afa925050508015611a65575060408051601f3d908101601f19168201909252611a62918101906129d8565b60015b611ac85760405162461bcd60e51b815260206004820152602e60248201527f45524331393637557067726164653a206e657720696d706c656d656e7461746960448201526d6f6e206973206e6f74205555505360901b6064820152608401610a59565b600080516020612c6f8339815191528114611b375760405162461bcd60e51b815260206004820152602960248201527f45524331393637557067726164653a20756e737570706f727465642070726f786044820152681a58589b195555525160ba1b6064820152608401610a59565b506109e8838383611f0a565b6001600160a01b03163b151590565b600054610100900460ff16611b795760405162461bcd60e51b8152600401610a59906129f1565b610a6c8282611f2f565b600054610100900460ff16611baa5760405162461bcd60e51b8152600401610a59906129f1565b565b6040805160208101909152600081526040518060200160405280670de0b6b3a7640000611be186600001518660000151611f6f565b611beb9190612a3c565b90529392505050565b805160009061083890670de0b6b3a764000090612a3c565b6040805160208101909152600081526040518060200160405280611beb611c3f8660000151670de0b6b3a7640000611f6f565b8551611f82565b6001600160a01b038216611c9c5760405162461bcd60e51b815260206004820152601f60248201527f45524332303a206d696e7420746f20746865207a65726f2061646472657373006044820152606401610a59565b8060356000828254611cae91906127d2565b90915550506001600160a01b038216600081815260336020908152604080832080548601905551848152600080516020612cd6833981519152910160405180910390a35050565b6001600160a01b038216611d555760405162461bcd60e51b815260206004820152602160248201527f45524332303a206275726e2066726f6d20746865207a65726f206164647265736044820152607360f81b6064820152608401610a59565b6001600160a01b03821660009081526033602052604090205481811015611dc95760405162461bcd60e51b815260206004820152602260248201527f45524332303a206275726e20616d6f756e7420657863656564732062616c616e604482015261636560f01b6064820152608401610a59565b6001600160a01b0383166000818152603360209081526040808320868603905560358054879003905551858152919291600080516020612cd6833981519152910160405180910390a3505050565b611e21828261101e565b610a6c57611e2e81611f8e565b611e39836020611fa0565b604051602001611e4a929190612a5e565b60408051601f198184030181529082905262461bcd60e51b8252610a5991600401612316565b611e7981611b43565b611edb5760405162461bcd60e51b815260206004820152602d60248201527f455243313936373a206e657720696d706c656d656e746174696f6e206973206e60448201526c1bdd08184818dbdb9d1c9858dd609a1b6064820152608401610a59565b600080516020612c6f83398151915280546001600160a01b0319166001600160a01b0392909216919091179055565b611f138361213b565b600082511180611f205750805b156109e8576116ae838361217b565b600054610100900460ff16611f565760405162461bcd60e51b8152600401610a59906129f1565b6036611f628382612b06565b5060376109e88282612b06565b6000611f7b828461282e565b9392505050565b6000611f7b8284612a3c565b60606108386001600160a01b03831660145b60606000611faf83600261282e565b611fba9060026127d2565b6001600160401b03811115611fd157611fd161258d565b6040519080825280601f01601f191660200182016040528015611ffb576020820181803683370190505b509050600360fc1b8160008151811061201657612016612bc5565b60200101906001600160f81b031916908160001a905350600f60fb1b8160018151811061204557612045612bc5565b60200101906001600160f81b031916908160001a905350600061206984600261282e565b6120749060016127d2565b90505b60018111156120ec576f181899199a1a9b1b9c1cb0b131b232b360811b85600f16601081106120a8576120a8612bc5565b1a60f81b8282815181106120be576120be612bc5565b60200101906001600160f81b031916908160001a90535060049490941c936120e581612bdb565b9050612077565b508315611f7b5760405162461bcd60e51b815260206004820181905260248201527f537472696e67733a20686578206c656e67746820696e73756666696369656e746044820152606401610a59565b61214481611e70565b6040516001600160a01b038216907fbc7cd75a20ee27fd9adebab32041f755214dbc6bffa90cc0225b39da2e5c2d3b90600090a250565b6060611f7b8383604051806060016040528060278152602001612c8f602791396060600080856001600160a01b0316856040516121b89190612bf2565b600060405180830381855af49150503d80600081146121f3576040519150601f19603f3d011682016040523d82523d6000602084013e6121f8565b606091505b509150915061220986838387612213565b9695505050505050565b606083156122805782516000036122795761222d85611b43565b6122795760405162461bcd60e51b815260206004820152601d60248201527f416464726573733a2063616c6c20746f206e6f6e2d636f6e74726163740000006044820152606401610a59565b5081611016565b61101683838151156122955781518083602001fd5b8060405162461bcd60e51b8152600401610a599190612316565b6000602082840312156122c157600080fd5b81356001600160e01b031981168114611f7b57600080fd5b6000602082840312156122eb57600080fd5b5035919050565b60005b8381101561230d5781810151838201526020016122f5565b50506000910152565b60208152600082518060208401526123358160408501602087016122f2565b601f01601f19169190910160400192915050565b6001600160a01b0381168114610b3557600080fd5b803561236981612349565b919050565b6000806040838503121561238157600080fd5b823561238c81612349565b946020939093013593505050565b6000806000606084860312156123af57600080fd5b83356123ba81612349565b925060208401356123ca81612349565b929592945050506040919091013590565b600080604083850312156123ee57600080fd5b82359150602083013561240081612349565b809150509250929050565b60006020828403121561241d57600080fd5b8135611f7b81612349565b60008083601f84011261243a57600080fd5b5081356001600160401b0381111561245157600080fd5b60208301915083602082850101111561246957600080fd5b9250929050565b803560ff8116811461236957600080fd5b60006080828403121561249357600080fd5b50919050565b60008060008060008060008060008060006101008c8e0312156124bb57600080fd5b6001600160401b03808d3511156124d157600080fd5b6124de8e8e358f01612428565b909c509a5060208d01358110156124f457600080fd5b6125048e60208f01358f01612428565b909a50985060408d013581101561251a57600080fd5b61252a8e60408f01358f01612428565b909850965061253b60608e01612470565b955060808d0135945060a08d0135935061255760c08e0161235e565b92508060e08e0135111561256a57600080fd5b5061257b8d60e08e01358e01612481565b90509295989b509295989b9093969950565b634e487b7160e01b600052604160045260246000fd5b600080604083850312156125b657600080fd5b82356125c181612349565b915060208301356001600160401b03808211156125dd57600080fd5b818501915085601f8301126125f157600080fd5b8135818111156126035761260361258d565b604051601f8201601f19908116603f0116810190838211818310171561262b5761262b61258d565b8160405282815288602084870101111561264457600080fd5b8260208601602083013760006020848301015280955050505050509250929050565b6000806000806080858703121561267c57600080fd5b843561268781612349565b9350602085013561269781612349565b925060408501356126a781612349565b915060608501356126b781612349565b939692955090935050565b600080604083850312156126d557600080fd5b82356126e081612349565b9150602083013561240081612349565b600181811c9082168061270457607f821691505b60208210810361249357634e487b7160e01b600052602260045260246000fd5b6020808252602c908201527f46756e6374696f6e206d7573742062652063616c6c6564207468726f7567682060408201526b19195b1959d85d1958d85b1b60a21b606082015260800190565b6020808252602c908201527f46756e6374696f6e206d7573742062652063616c6c6564207468726f7567682060408201526b6163746976652070726f787960a01b606082015260800190565b634e487b7160e01b600052601160045260246000fd5b80820180821115610838576108386127bc565b6000808335601e198436030181126127fc57600080fd5b8301803591506001600160401b0382111561281657600080fd5b6020019150600581901b360382131561246957600080fd5b8082028115828204841417610838576108386127bc565b5b81811015610a6c5760008155600101612846565b818310156109e8578060005260206000206116ae838201858301612845565b6001600160401b038311156128905761289061258d565b600160401b8311156128a4576128a461258d565b80548382556128b484828461285a565b50818160005260208060002060005b868110156128dd57833582820155928201926001016128c3565b50505050505050565b8135815560018082016020808501356128fe81612349565b82546001600160a01b0319166001600160a01b039190911617909155600283019061292c60408601866127e5565b6001600160401b038111156129435761294361258d565b600160401b8111156129575761295761258d565b835481855561296782828761285a565b506000938452828420935b8181101561299457823561298581612349565b85820155918301918501612972565b5050505050506129a760608301836127e5565b6116ae818360038601612879565b8183823760009101908152919050565b81810381811115610838576108386127bc565b6000602082840312156129ea57600080fd5b5051919050565b6020808252602b908201527f496e697469616c697a61626c653a20636f6e7472616374206973206e6f74206960408201526a6e697469616c697a696e6760a81b606082015260800190565b600082612a5957634e487b7160e01b600052601260045260246000fd5b500490565b76020b1b1b2b9b9a1b7b73a3937b61d1030b1b1b7bab73a1604d1b815260008351612a908160178501602088016122f2565b7001034b99036b4b9b9b4b733903937b6329607d1b6017918401918201528351612ac18160288401602088016122f2565b01602801949350505050565b601f8211156109e857806000526020600020601f840160051c81016020851015612af45750805b6108ee601f850160051c830182612845565b81516001600160401b03811115612b1f57612b1f61258d565b612b3381612b2d84546126f0565b84612acd565b602080601f831160018114612b685760008415612b505750858301515b600019600386901b1c1916600185901b1785556119d0565b600085815260208120601f198616915b82811015612b9757888601518255948401946001909101908401612b78565b5085821015612bb55787850151600019600388901b60f8161c191681555b5050505050600190811b01905550565b634e487b7160e01b600052603260045260246000fd5b600081612bea57612bea6127bc565b506000190190565b60008251612c048184602087016122f2565b919091019291505056fe3c11d16cbaffd01df69ce1c404f6340ee057498f5f00246190ea54220576a848793a6c9b7e0a9549c74edc2f9ae0dc50903dfaa9a56fb0116b27a8c71de3e2c630d41a597cac127d8249d31298b50e481ee82c3f4a49ff93c76a22735aa9f3ad360894a13ba1a3210667c828492db98dca3e2076cc3735a920a3ca505d382bbc416464726573733a206c6f772d6c6576656c2064656c65676174652063616c6c206661696c65649f2df0fed2c77648de5860a4cc508cd0818c85b8b8a1ab4ceeef8d981c8956a6ddf252ad1be2c89b69c2b068fc378daa952ba7f163c4a11628f55a4df523b3efa49807205ce4d355092ef5a8a18f56e8913cf4a201fbe287825b095693c21775a2646970667358221220374566ffa990fac64c960a86a95b24c66b951640b2f0b38306dc8633d7d7f69564736f6c63430008120033",
  "linkReferences": {},
  "deployedLinkReferences": {}
}