{
  "_format": "hh-sol-artifact-1",
  "contractName": "TestTermLoanIntentHookFacetHelper",
  "sourceName": "contracts/test/TestTermLoanIntentHookFacetHelper.sol",
  "abi": [
    {
      "inputs": [
        {
          "internalType": "address",
          "name": "target",
          "type": "address"
        }
      ],
      "name": "AddressEmptyCode",
      "type": "error"
    },
    {
      "inputs": [],
      "name": "AfterMaturity",
      "type": "error"
    },
    {
      "inputs": [],
      "name": "AlreadyInitialized",
      "type": "error"
    },
    {
      "inputs": [
        {
          "internalType": "address",
          "name": "signer",
          "type": "address"
        }
      ],
      "name": "AlreadyPreSigned",
      "type": "error"
    },
    {
      "inputs": [
        {
          "internalType": "uint256",
          "name": "orderIndex",
          "type": "uint256"
        },
        {
          "internalType": "uint256",
          "name": "maxFill",
          "type": "uint256"
        }
      ],
      "name": "BatchOrderInsufficientRemainingCapacity",
      "type": "error"
    },
    {
      "inputs": [],
      "name": "BorrowFeeTooHigh",
      "type": "error"
    },
    {
      "inputs": [],
      "name": "EmptyOrderBatch",
      "type": "error"
    },
    {
      "inputs": [],
      "name": "FailedCall",
      "type": "error"
    },
    {
      "inputs": [],
      "name": "FeeRecipientAlreadyApproved",
      "type": "error"
    },
    {
      "inputs": [],
      "name": "InconsistentRepoServicer",
      "type": "error"
    },
    {
      "inputs": [],
      "name": "InputOutputTokenCollision",
      "type": "error"
    },
    {
      "inputs": [],
      "name": "InsufficientFundsRetrieved",
      "type": "error"
    },
    {
      "inputs": [
        {
          "internalType": "uint256",
          "name": "capacityRemaining",
          "type": "uint256"
        }
      ],
      "name": "InsufficientRemainingCapacity",
      "type": "error"
    },
    {
      "inputs": [],
      "name": "InvalidCollateralAmountsInput",
      "type": "error"
    },
    {
      "inputs": [],
      "name": "InvalidCollateralToken",
      "type": "error"
    },
    {
      "inputs": [],
      "name": "InvalidDiscountRate",
      "type": "error"
    },
    {
      "inputs": [],
      "name": "InvalidFee",
      "type": "error"
    },
    {
      "inputs": [],
      "name": "InvalidFeeRecipient",
      "type": "error"
    },
    {
      "inputs": [],
      "name": "InvalidFillAmount",
      "type": "error"
    },
    {
      "inputs": [],
      "name": "InvalidMinSalt",
      "type": "error"
    },
    {
      "inputs": [],
      "name": "InvalidOfferRate",
      "type": "error"
    },
    {
      "inputs": [],
      "name": "InvalidOrderStatus",
      "type": "error"
    },
    {
      "inputs": [
        {
          "internalType": "string",
          "name": "message",
          "type": "string"
        }
      ],
      "name": "InvalidParameters",
      "type": "error"
    },
    {
      "inputs": [],
      "name": "InvalidPurchaseTokenAmount",
      "type": "error"
    },
    {
      "inputs": [],
      "name": "InvalidRepoId",
      "type": "error"
    },
    {
      "inputs": [],
      "name": "InvalidRetrieveFundsFunction",
      "type": "error"
    },
    {
      "inputs": [],
      "name": "InvalidRetrieveFundsListLength",
      "type": "error"
    },
    {
      "inputs": [
        {
          "internalType": "address",
          "name": "expected",
          "type": "address"
        },
        {
          "internalType": "address",
          "name": "actual",
          "type": "address"
        }
      ],
      "name": "InvalidSender",
      "type": "error"
    },
    {
      "inputs": [],
      "name": "InvalidSignature",
      "type": "error"
    },
    {
      "inputs": [
        {
          "internalType": "address",
          "name": "expected",
          "type": "address"
        },
        {
          "internalType": "address",
          "name": "actual",
          "type": "address"
        }
      ],
      "name": "InvalidTaker",
      "type": "error"
    },
    {
      "inputs": [],
      "name": "InvalidTermController",
      "type": "error"
    },
    {
      "inputs": [],
      "name": "MakerCannotBeTaker",
      "type": "error"
    },
    {
      "inputs": [],
      "name": "OrderBatchLengthMismatch",
      "type": "error"
    },
    {
      "inputs": [],
      "name": "OrderCancelled",
      "type": "error"
    },
    {
      "inputs": [],
      "name": "OrderExpired",
      "type": "error"
    },
    {
      "inputs": [],
      "name": "ReentrancyGuardReentrantCall",
      "type": "error"
    },
    {
      "inputs": [],
      "name": "RetrieveFundsNotSpecified",
      "type": "error"
    },
    {
      "inputs": [
        {
          "internalType": "uint8",
          "name": "bits",
          "type": "uint8"
        },
        {
          "internalType": "uint256",
          "name": "value",
          "type": "uint256"
        }
      ],
      "name": "SafeCastOverflowedUintDowncast",
      "type": "error"
    },
    {
      "inputs": [
        {
          "internalType": "address",
          "name": "token",
          "type": "address"
        }
      ],
      "name": "SafeERC20FailedOperation",
      "type": "error"
    },
    {
      "inputs": [],
      "name": "TermControllerAlreadyApproved",
      "type": "error"
    },
    {
      "inputs": [],
      "name": "UnsupportedHookSelector",
      "type": "error"
    },
    {
      "inputs": [],
      "name": "UnsupportedSelector",
      "type": "error"
    },
    {
      "inputs": [
        {
          "internalType": "address",
          "name": "controller",
          "type": "address"
        }
      ],
      "name": "addApprovedTermController",
      "outputs": [],
      "stateMutability": "nonpayable",
      "type": "function"
    },
    {
      "inputs": [],
      "name": "clearActiveFlashLoanBorrower",
      "outputs": [],
      "stateMutability": "nonpayable",
      "type": "function"
    },
    {
      "inputs": [
        {
          "internalType": "address",
          "name": "user",
          "type": "address"
        },
        {
          "internalType": "address",
          "name": "inputToken",
          "type": "address"
        },
        {
          "internalType": "uint256",
          "name": "maxInputAmount",
          "type": "uint256"
        },
        {
          "internalType": "address",
          "name": "outputToken",
          "type": "address"
        },
        {
          "internalType": "uint256",
          "name": "minOutputAmount",
          "type": "uint256"
        },
        {
          "internalType": "bytes4",
          "name": "selector",
          "type": "bytes4"
        },
        {
          "internalType": "address",
          "name": "targetAddress",
          "type": "address"
        },
        {
          "internalType": "bytes",
          "name": "additionalCalldata",
          "type": "bytes"
        }
      ],
      "name": "generateActionCalldata",
      "outputs": [
        {
          "components": [
            {
              "internalType": "address",
              "name": "expectedInputToken",
              "type": "address"
            },
            {
              "internalType": "uint256",
              "name": "expectedInputAmount",
              "type": "uint256"
            },
            {
              "internalType": "address",
              "name": "expectedOutputToken",
              "type": "address"
            },
            {
              "internalType": "uint256",
              "name": "expectedOutputAmount",
              "type": "uint256"
            },
            {
              "internalType": "bool",
              "name": "isDeterministic",
              "type": "bool"
            }
          ],
          "internalType": "struct PreviewAction",
          "name": "",
          "type": "tuple"
        },
        {
          "internalType": "bytes",
          "name": "",
          "type": "bytes"
        }
      ],
      "stateMutability": "view",
      "type": "function"
    },
    {
      "inputs": [
        {
          "components": [
            {
              "internalType": "address",
              "name": "repoServicer",
              "type": "address"
            },
            {
              "internalType": "uint256",
              "name": "purchaseTokenAmount",
              "type": "uint256"
            },
            {
              "internalType": "uint256[]",
              "name": "collateralAmounts",
              "type": "uint256[]"
            },
            {
              "internalType": "uint256",
              "name": "offerRate",
              "type": "uint256"
            },
            {
              "internalType": "address",
              "name": "maker",
              "type": "address"
            },
            {
              "internalType": "address",
              "name": "taker",
              "type": "address"
            },
            {
              "internalType": "uint256",
              "name": "borrowFee",
              "type": "uint256"
            },
            {
              "internalType": "address",
              "name": "feeRecipient",
              "type": "address"
            },
            {
              "internalType": "uint256",
              "name": "expiry",
              "type": "uint256"
            },
            {
              "internalType": "uint256",
              "name": "salt",
              "type": "uint256"
            },
            {
              "components": [
                {
                  "internalType": "bytes4",
                  "name": "method",
                  "type": "bytes4"
                },
                {
                  "internalType": "address",
                  "name": "target",
                  "type": "address"
                },
                {
                  "internalType": "bytes",
                  "name": "additionalCalldata",
                  "type": "bytes"
                }
              ],
              "internalType": "struct ITermIntent.RetrieveFundsStruct[]",
              "name": "retrieveFundsList",
              "type": "tuple[]"
            }
          ],
          "internalType": "struct ITermIntent.LimitBorrowOrder",
          "name": "order",
          "type": "tuple"
        }
      ],
      "name": "getBorrowOrderHash",
      "outputs": [
        {
          "internalType": "bytes32",
          "name": "",
          "type": "bytes32"
        }
      ],
      "stateMutability": "pure",
      "type": "function"
    },
    {
      "inputs": [
        {
          "components": [
            {
              "internalType": "address",
              "name": "repoServicer",
              "type": "address"
            },
            {
              "internalType": "uint256",
              "name": "purchaseTokenAmount",
              "type": "uint256"
            },
            {
              "internalType": "uint256",
              "name": "offerRate",
              "type": "uint256"
            },
            {
              "internalType": "address",
              "name": "maker",
              "type": "address"
            },
            {
              "internalType": "address",
              "name": "taker",
              "type": "address"
            },
            {
              "internalType": "uint256",
              "name": "borrowFee",
              "type": "uint256"
            },
            {
              "internalType": "address",
              "name": "feeRecipient",
              "type": "address"
            },
            {
              "internalType": "uint256",
              "name": "expiry",
              "type": "uint256"
            },
            {
              "internalType": "uint256",
              "name": "salt",
              "type": "uint256"
            },
            {
              "components": [
                {
                  "internalType": "bytes4",
                  "name": "method",
                  "type": "bytes4"
                },
                {
                  "internalType": "address",
                  "name": "target",
                  "type": "address"
                },
                {
                  "internalType": "bytes",
                  "name": "additionalCalldata",
                  "type": "bytes"
                }
              ],
              "internalType": "struct ITermIntent.RetrieveFundsStruct",
              "name": "retrieveFunds",
              "type": "tuple"
            }
          ],
          "internalType": "struct ITermIntent.LimitLendOrder",
          "name": "order",
          "type": "tuple"
        }
      ],
      "name": "getLendOrderHash",
      "outputs": [
        {
          "internalType": "bytes32",
          "name": "",
          "type": "bytes32"
        }
      ],
      "stateMutability": "pure",
      "type": "function"
    },
    {
      "inputs": [
        {
          "internalType": "uint256",
          "name": "callIndex",
          "type": "uint256"
        }
      ],
      "name": "getRecordedCollateralAmounts",
      "outputs": [
        {
          "internalType": "uint256[]",
          "name": "",
          "type": "uint256[]"
        }
      ],
      "stateMutability": "view",
      "type": "function"
    },
    {
      "inputs": [
        {
          "internalType": "bytes4",
          "name": "",
          "type": "bytes4"
        }
      ],
      "name": "previewMapping",
      "outputs": [
        {
          "internalType": "bytes4",
          "name": "",
          "type": "bytes4"
        }
      ],
      "stateMutability": "view",
      "type": "function"
    },
    {
      "inputs": [
        {
          "components": [
            {
              "internalType": "address",
              "name": "user",
              "type": "address"
            },
            {
              "internalType": "address",
              "name": "inputToken",
              "type": "address"
            },
            {
              "internalType": "uint256",
              "name": "maxInputAmount",
              "type": "uint256"
            },
            {
              "internalType": "address",
              "name": "outputToken",
              "type": "address"
            },
            {
              "internalType": "uint256",
              "name": "minOutputAmount",
              "type": "uint256"
            },
            {
              "internalType": "address",
              "name": "targetAddress",
              "type": "address"
            },
            {
              "internalType": "bytes",
              "name": "additionalCalldata",
              "type": "bytes"
            }
          ],
          "internalType": "struct ActionHookInput",
          "name": "actionHookInput",
          "type": "tuple"
        }
      ],
      "name": "previewSettleLimitLend",
      "outputs": [
        {
          "components": [
            {
              "internalType": "address",
              "name": "expectedInputToken",
              "type": "address"
            },
            {
              "internalType": "uint256",
              "name": "expectedInputAmount",
              "type": "uint256"
            },
            {
              "internalType": "address",
              "name": "expectedOutputToken",
              "type": "address"
            },
            {
              "internalType": "uint256",
              "name": "expectedOutputAmount",
              "type": "uint256"
            },
            {
              "internalType": "bool",
              "name": "isDeterministic",
              "type": "bool"
            }
          ],
          "internalType": "struct PreviewAction",
          "name": "",
          "type": "tuple"
        }
      ],
      "stateMutability": "view",
      "type": "function"
    },
    {
      "inputs": [
        {
          "internalType": "address",
          "name": "borrower",
          "type": "address"
        }
      ],
      "name": "setActiveFlashLoanBorrower",
      "outputs": [],
      "stateMutability": "nonpayable",
      "type": "function"
    },
    {
      "inputs": [
        {
          "components": [
            {
              "internalType": "address",
              "name": "repoServicer",
              "type": "address"
            },
            {
              "internalType": "uint256",
              "name": "purchaseTokenAmount",
              "type": "uint256"
            },
            {
              "internalType": "uint256",
              "name": "offerRate",
              "type": "uint256"
            },
            {
              "internalType": "address",
              "name": "maker",
              "type": "address"
            },
            {
              "internalType": "address",
              "name": "taker",
              "type": "address"
            },
            {
              "internalType": "uint256",
              "name": "borrowFee",
              "type": "uint256"
            },
            {
              "internalType": "address",
              "name": "feeRecipient",
              "type": "address"
            },
            {
              "internalType": "uint256",
              "name": "expiry",
              "type": "uint256"
            },
            {
              "internalType": "uint256",
              "name": "salt",
              "type": "uint256"
            },
            {
              "components": [
                {
                  "internalType": "bytes4",
                  "name": "method",
                  "type": "bytes4"
                },
                {
                  "internalType": "address",
                  "name": "target",
                  "type": "address"
                },
                {
                  "internalType": "bytes",
                  "name": "additionalCalldata",
                  "type": "bytes"
                }
              ],
              "internalType": "struct ITermIntent.RetrieveFundsStruct",
              "name": "retrieveFunds",
              "type": "tuple"
            }
          ],
          "internalType": "struct ITermIntent.LimitLendOrder",
          "name": "",
          "type": "tuple"
        },
        {
          "internalType": "address",
          "name": "",
          "type": "address"
        },
        {
          "internalType": "uint256",
          "name": "",
          "type": "uint256"
        },
        {
          "internalType": "uint256[]",
          "name": "collateralAmounts",
          "type": "uint256[]"
        },
        {
          "components": [
            {
              "internalType": "enum ITermIntent.SignatureType",
              "name": "sigType",
              "type": "uint8"
            },
            {
              "internalType": "bytes",
              "name": "sigData",
              "type": "bytes"
            }
          ],
          "internalType": "struct ITermIntent.Signature",
          "name": "",
          "type": "tuple"
        }
      ],
      "name": "settleLimitLend",
      "outputs": [],
      "stateMutability": "nonpayable",
      "type": "function"
    },
    {
      "inputs": [
        {
          "components": [
            {
              "internalType": "address",
              "name": "user",
              "type": "address"
            },
            {
              "internalType": "address",
              "name": "inputToken",
              "type": "address"
            },
            {
              "internalType": "uint256",
              "name": "maxInputAmount",
              "type": "uint256"
            },
            {
              "internalType": "address",
              "name": "outputToken",
              "type": "address"
            },
            {
              "internalType": "uint256",
              "name": "minOutputAmount",
              "type": "uint256"
            },
            {
              "internalType": "address",
              "name": "targetAddress",
              "type": "address"
            },
            {
              "internalType": "bytes",
              "name": "additionalCalldata",
              "type": "bytes"
            }
          ],
          "internalType": "struct ActionHookInput",
          "name": "input",
          "type": "tuple"
        }
      ],
      "name": "settleLimitLendHook",
      "outputs": [],
      "stateMutability": "nonpayable",
      "type": "function"
    }
  ],
  "bytecode": "0x6080806040523461005c576001600081815563545a81d760e11b90526020527f6c07f78a2946596823370ca7bd3834d7d8d9c8aeebf3af6b15e1a0d383c47827805463ffffffff19166353ad3622179055611f9e90816100628239f35b600080fdfe610140604052600436101561001357600080fd5b60003560e01c8063058b3b7e1461145757806336f01046146112c15780633f2b2aa91461127a57806353ad3622146110ae5780639ef72eff14610e6b578063a8b503ae146103d6578063aee845bc146102da578063c3246edc14610297578063cde1a4d214610269578063df940eb9146100cb5763eb58755f1461009657600080fd5b346100c65760003660031901126100c657600080516020611f4983398151915280546001600160a01b0319169055005b600080fd5b346100c657602060031981813601126100c657600435906001600160401b0382116100c65781600401610160809284360301126100c657604051918483019385855260018060a01b03928361011f82611531565b1660408601526024820135606086015261013c6044830182611d6d565b9092846080880152816101a08801526101c09460018060fb1b0383116100c65790610144918896956101e3959460051b8091888a0137870195860197606483013560a08901528061018f60848501611531565b1660c0890152806101a260a48501611531565b1660e089015260c48301356101008901526101bf60e48401611531565b16610120880152610104820135610140880152610124820135908701520190611d6d565b809194610180808686030190860152526101e091828101928260051b82010192856000925b8a858510610230578a88610225818a03601f198101835282611659565b519020604051908152f35b80919395975061025760019395976101df198682030188526102528b88611c96565b611caa565b98019401940191879593969491610208565b346100c65760203660031901126100c65761028a61028561151b565b611d34565b805460ff19166001179055005b346100c65760203660031901126100c65760043563ffffffff60e01b8082168092036100c6576020916000526001825260406000205460e01b9060405191168152f35b346100c6576003196020368201126100c6576004356001600160401b0381116100c65780600401610140809383360301126100c6576102256103b6916103c8602095604051948593610124898601988a8a5260018060a01b038061033d85611531565b16604089015260248201356060890152604482013560808901528061036460648401611531565b1660a08901528061037760848401611531565b1660c089015260a482013560e089015261039360c48301611531565b1661010088015260e4810135610120880152610104810135858801520190611c96565b90610160840152610180830190611caa565b03601f198101835282611659565b346100c6576103e436611545565b6103ed81611b2c565b600080516020611f49833981519152546001600160a01b03168015159182610e58575b505015610e1d5761042081611b2c565b60c05261042f60208201611b2c565b9061044861044060c08301836117f7565b810190611829565b90949192608052939180518015610e0b5783518114801590610e00575b610dee576001600160a01b0361047a83611798565b515116906040516325c3ed4760e01b8152602081600481865afa90811561062b57600091610dac575b5060ff6104b86001600160a01b038316611d34565b541615610d9a5760405163e7e4b8db60e01b8152600481018490526020816024816001600160a01b0386165afa90811561062b57600091610d60575b50159081610ce4575b50610cd257604051633d0f31f760e01b8152602081600481865afa90811561062b57600091610ca0575b504211610c8e576040516354ae26b160e11b8152602081600481865afa801561062b57600060e052610c53575b50604051633d0f31f760e01b815291602083600481845afa92831561062b57600093610c1f575b50600092600060a05260005b838110610a5457505060009660005b8381106106e157608051156106575760a0516001600160a01b0310610637576e22d473030f116ddee9f6b43ac78ba3803b156100c657604051631b63c28b60e11b815260c0516001600160a01b03908116600483015230602483015260a0518116604483015260e051166064820152906000908290608490829084905af1801561062b5761062057005b6106299061162b565b005b6040513d6000823e3d90fd5b60446040516306dfcc6560e41b815260a0600482015260a0516024820152fd5b60018060a01b0360e0511660206000604051828101906323b872dd60e01b825260018060a01b0360c05116602482015230604482015260a0516064820152606481526106a2816115c4565b519082855af11561062b576000513d6106d85750803b155b6106c057005b60249060405190635274afe760e01b82526004820152fd5b600114156106ba565b60006101005283600019810111610a3e578960001985018203610a04575061070d896040840135611bc0565b610100525b604051630f7a077160e21b815290602082600481875afa91821561062b576000926109d3575b50604051630c87400960e11b8152916020836004816001600160a01b0385165afa92831561062b57600093610995575b5061077560ff8416611766565b9260009160005b60ff831681106108ee575b505050156108dc5760c051600080516020611f2983398151915280546001600160a01b0319166001600160a01b03929092169190911790556107c981886117a5565b51916107d5828d6117a5565b51906107e1838c6117a5565b5191303b156100c65761083c9061081060405196631b78082360e11b885260a0600489015260a4880190611bed565b60c0516001600160a01b03166024880152604487019190915260031986820381016064880152926114d1565b9084820301608485015281519160028310156108c657610873826040602088959460009787965201519181602082015201906116de565b038183305af191821561062b576001926108b7575b50818060a01b0319600080516020611f298339815191525416600080516020611f298339815191525501610596565b6108c09061162b565b8b610888565b634e487b7160e01b600052602160045260246000fd5b604051633a001e0560e11b8152600490fd5b60405163172c48c760e01b8152600481018290526020816024816001600160a01b0387165afa90811561062b5760009161095b575b506001600160a01b038d811691161461093e5760010161077c565b925050506109506101005191846117a5565b5260018c8080610787565b90506020813d60201161098d575b8161097660209383611659565b810103126100c65761098790611b18565b38610923565b3d9150610969565b9092506020813d6020116109cb575b816109b160209383611659565b810103126100c6575160ff811681036100c657918c610768565b3d91506109a4565b6109f691925060203d6020116109fd575b6109ee8183611659565b810190611da2565b908b610738565b503d6109e4565b98610a2a86610a25610a1a85610a38969e6117a5565b5160408701356117b9565b611bcd565b610100526101005190611bb3565b97610712565b634e487b7160e01b600052601160045260246000fd5b929391929091836001600160a01b03610a6d84896117a5565b51511603610c0d57610a7f828b6117a5565b5115610bfb57610a8f82876117a5565b51604051632bba116f60e21b81526020600482018190528180610ab56024820186611bed565b0381305afa90811561062b57600091610bc9575b506000527f2a2e13707d6b40952f0aec05e2811137753b06b56d55208636050ec9ee68dd81602052604060002060405190610b0382611610565b546001600160801b03811682526004608082901c60ff1610156108c657610b449260ff60209260801c168284015201519060018060801b0390511690611bc0565b610b4e838c6117a5565b518110610bab575081610ba2610b9a85610b84848f9a999897600197610b77610b7e928e6117a5565b5190611bb3565b9a6117a5565b5160a0610b91868d6117a5565b51015190611dc1565b60a051611bb3565b60a05201610587565b8260449160405191632609d21160e21b835260048301526024820152fd5b90506020813d602011610bf3575b81610be460209383611659565b810103126100c657518c610ac9565b3d9150610bd7565b60405163251a5d1160e21b8152600490fd5b604051630295ea8f60e21b8152600490fd5b9092506020813d602011610c4b575b81610c3b60209383611659565b810103126100c65751918861057b565b3d9150610c2e565b6020813d602011610c86575b81610c6c60209383611659565b810103126100c657610c7d90611b18565b60e05287610554565b3d9150610c5f565b6040516304ff30ef60e21b8152600490fd5b90506020813d602011610cca575b81610cbb60209383611659565b810103126100c6575188610527565b3d9150610cae565b604051633e69d7d560e21b8152600490fd5b6040516319afa63b60e11b8152600481018590529150602090829060249082906001600160a01b03165afa90811561062b57600091610d26575b5015886104fd565b90506020813d602011610d58575b81610d4160209383611659565b810103126100c657610d5290611ba6565b88610d1e565b3d9150610d34565b90506020813d602011610d92575b81610d7b60209383611659565b810103126100c657610d8c90611ba6565b896104f4565b3d9150610d6e565b604051638ebd687760e01b8152600490fd5b90506020813d602011610de6575b81610dc760209383611659565b810103126100c657516001600160a01b03811681036100c657886104a3565b3d9150610dba565b604051636923d4d160e11b8152600490fd5b508551811415610465565b60405163212ed53760e01b8152600490fd5b60405162461bcd60e51b81526020600482015260136024820152722ab730baba3437b934bd32b21031b0b63632b960691b6044820152606490fd5b6001600160a01b03161490508280610410565b346100c6576101003660031901126100c657610e8561151b565b610e8d611505565b906001600160a01b0390606435828116908190036100c6576001600160e01b031960a435818116939092908484036100c65760c435928684168094036100c65760e4356001600160401b0381116100c657610eec903690600401611697565b95610ef56117cc565b506000526020916001835260406000205460e01b9182161561109c576000610fb4928192610f6c968b8060405193610f2c856115f5565b169d8e845216878301526044356040830152606082015260843560808201528760a08201528960c082015260405196879187830193845260248301611b40565b0395610f80601f1997888101835282611659565b5190305afa3d15611094573d90610f968261167c565b91610fa46040519384611659565b82523d60008584013e5b30611ec5565b60a0818051810103126100c65761107f976110909661107395611067936040519a610fde8c6115c4565b8b610fea888401611b18565b80825282604085015191828b85015261100560608701611b18565b93846040820152608061102460a0828a0151998a606086015201611ba6565b910152604051986110348a6115f5565b895216898801526040870152166060850152608084015260a083015260c082015260405195869384015260248301611b40565b03908101835282611659565b60405193848094611576565b60c060a084015260c08301906116de565b0390f35b606090610fae565b604051631416e68f60e01b8152600490fd5b346100c6576110bc36611545565b6110c46117cc565b506110d561044060c08301836117f7565b50508091505115610e0b576001600160a01b039081906110f490611798565b515116604051916354ae26b160e11b83526020918284600481845afa93841561062b57600094611243575b506004838601918461113084611b2c565b9160405193848092630f7a077160e21b82525afa91821561062b5785918591600094611221575b506040516320db25d560e01b815290821660048201529283916024918391165afa90811561062b576000916111f4575b50156108dc576111978291611b2c565b169216928284146111e25760a093608092604051946111b5866115c4565b8552604083013590850152604084015201356060820152600160808201526111e06040518092611576565bf35b604051635542f09960e01b8152600490fd5b90508381813d831161121a575b61120b8183611659565b810103126100c6575186611187565b503d611201565b602491945061123c90843d86116109fd576109ee8183611659565b9390611157565b9093508281813d8311611273575b61125b8183611659565b810103126100c65761126c90611b18565b928561111f565b503d611251565b346100c65760203660031901126100c6576001600160a01b0361129b61151b565b600080516020611f498339815191528054919092166001600160a01b0319909116179055005b346100c65760031960a0368201126100c6576001600160401b036004358181116100c6578261014091360301126100c6576112fa611505565b506064358181116100c657366023820112156100c65780600401358281116100c65760249160059436848460051b840101116100c657608435908582116100c657604091360301126100c65761134f82611766565b9460005b83811061143b575050505060025492600160401b91828510156113fd576113826001956001810160025561171e565b9390936114265782519485116114115784116113fd575081548383558084106113d2575b50602080910191600052602060002060005b8481106113c157005b8351828201559282019285016113b8565b826000528484602060002092830192015b8281106113f15750506113a6565b600081550185906113e3565b634e487b7160e01b60009081526041600452fd5b50634e487b7160e01b60009081526041600452fd5b50634e487b7160e01b60005260006004526000fd5b8085600192841b85010135611450828a6117a5565b5201611353565b346100c6576020806003193601126100c65761147460043561171e565b5090604051808383829554938481520190600052836000209260005b858282106114bb575050506114a792500383611659565b6110906040519282849384528301906114d1565b8554845260019586019588955093019201611490565b90815180825260208080930193019160005b8281106114f1575050505090565b8351855293810193928101926001016114e3565b602435906001600160a01b03821682036100c657565b600435906001600160a01b03821682036100c657565b35906001600160a01b03821682036100c657565b600319906020818301126100c657600435916001600160401b0383116100c6578260e0920301126100c65760040190565b6080809160018060a01b038082511685526020820151602086015260408201511660408501526060810151606085015201511515910152565b35906001600160e01b0319821682036100c657565b60a081019081106001600160401b038211176115df57604052565b634e487b7160e01b600052604160045260246000fd5b60e081019081106001600160401b038211176115df57604052565b604081019081106001600160401b038211176115df57604052565b6001600160401b0381116115df57604052565b602081019081106001600160401b038211176115df57604052565b601f909101601f19168101906001600160401b038211908210176115df57604052565b6001600160401b0381116115df57601f01601f191660200190565b81601f820112156100c6578035906116ae8261167c565b926116bc6040519485611659565b828452602083830101116100c657816000926020809301838601378301015290565b919082519283825260005b84811061170a575050826000602080949584010152601f8019910116010190565b6020818301810151848301820152016116e9565b60025481101561173957600260005260206000200190600090565b634e487b7160e01b600052603260045260246000fd5b6001600160401b0381116115df5760051b60200190565b906117708261174f565b61177d6040519182611659565b828152809261178e601f199161174f565b0190602036910137565b8051156117395760200190565b80518210156117395760209160051b010190565b81810292918115918404141715610a3e57565b604051906117d9826115c4565b60006080838281528260208201528260408201528260608201520152565b903590601e19813603018212156100c657018035906001600160401b0382116100c6576020019181360383136100c657565b6080818303126100c657803580151581036100c6579260208083013560018060401b03610120526101205181116100c65783019084601f830112156100c6578135916118748361174f565b9060409361188485519384611659565b808352838084019160051b830101918883116100c657848101915b8383106119d6575050505094828501356101205181116100c657850181601f820112156100c6578035906118d28261174f565b916118df86519384611659565b808352848084019160051b830101918483116100c657858101915b8383106119705750505050946060810135906101205182116100c6570181601f820112156100c65780359061193a6119318361174f565b95519586611659565b818552838086019260051b8201019283116100c6578301905b828210611961575050505090565b81358152908301908301611953565b82356101205181116100c65782019088601f1983890301126100c65788519061199882611610565b8883013560028110156100c657825289830135916101205183116100c6576119c7898b80969581960101611697565b838201528152019201916118fa565b82356101205181116100c65761014091601f19918401808d03830184136100c65789519084820182811061012051821117611b03578b52611a188a8201611531565b82528a8101358a830152606090818101358c840152611a3960808201611531565b8284015260a095611a4b878301611531565b608085015260c096878301359085015260e096611a69888401611531565b90850152610100968783013590850152610120968783013590850152810135946101205186116100c6578f9583920180960301126100c6578a519080820182811061012051821117611b03578c52611ac28b86016115af565b8252611acf8c8601611531565b8b830152840135946101205186116100c657611af18f8c809881980101611697565b8c83015282015281520192019161189f565b60246000634e487b7160e01b81526041600452fd5b51906001600160a01b03821682036100c657565b356001600160a01b03811681036100c65790565b61010060c0611ba3936020845260018060a01b0380825116602086015280602083015116604086015260408201516060860152806060830151166080860152608082015160a086015260a0820151168285015201519160e08082015201906116de565b90565b519081151582036100c657565b91908201809211610a3e57565b91908203918211610a3e57565b8115611bd7570490565b634e487b7160e01b600052601260045260246000fd5b906101a06040611ba39361014060018060a01b039081835116865260208301516020870152838301518487015281606084015116606087015281608084015116608087015260a083015160a08701528160c08401511660c087015260e083015160e0870152610100808401519087015280610120809401519387015263ffffffff60e01b83511690860152602082015116610160850152015191606061018082015201906116de565b9035605e19823603018112156100c6570190565b6001600160e01b0319611cbc826115af565b1682526001600160a01b03611cd360208301611531565b1660208301526040810135601e19823603018112156100c65701602081019190356001600160401b0381116100c65780360383136100c6578060809360606040850152816060850152848401376000828201840152601f01601f1916010190565b6001600160a01b031660009081527f2a2e13707d6b40952f0aec05e2811137753b06b56d55208636050ec9ee68dd7d6020526040902090565b9035601e19823603018112156100c6570160208101919035906001600160401b0382116100c6578160051b360383136100c657565b908160209103126100c657516001600160a01b03811681036100c65790565b9192919080611dcf57509150565b611dea604094855192611de18461163e565b83524290611bc0565b845190611df68261163e565b8152845190611e048261163e565b6301da9c00825260008651611e188161163e565b5251670de0b6b3a76400009283820291808304851490151715610a3e57611e45611e6b9285945190611bcd565b90875191611e528361163e565b825260008851611e618161163e565b52519051906117b9565b0481855191611e798361163e565b8083521015611eb45793611ea083611ba3959660008451611e998161163e565b52516117b9565b809151611eac8161163e565b520490611bc0565b84516375e788df60e11b8152600490fd5b90611eec5750805115611eda57805190602001fd5b60405163d6bda27560e01b8152600490fd5b81511580611f1f575b611efd575090565b604051639996b31560e01b81526001600160a01b039091166004820152602490fd5b50803b15611ef556fe2a2e13707d6b40952f0aec05e2811137753b06b56d55208636050ec9ee68dd7bc9e4fb8bffaf71b56abf2a5032f2ea641e97267f8c0d9bcf66c86998c650d62aa2646970667358221220338d4d5526d14ab070c9de673cbca5e64750ec930b5630f5d580e95de5417ab964736f6c63430008160033",
  "linkReferences": {},
  "deployedLinkReferences": {}
}