{
  "_format": "hh-sol-artifact-1",
  "contractName": "TermMorphoInterfaceFacet",
  "sourceName": "contracts/facets/external/TermMorphoInterfaceFacet.sol",
  "abi": [
    {
      "inputs": [
        {
          "internalType": "address",
          "name": "deployedMorphoPool_",
          "type": "address"
        }
      ],
      "stateMutability": "nonpayable",
      "type": "constructor"
    },
    {
      "inputs": [
        {
          "internalType": "address",
          "name": "target",
          "type": "address"
        }
      ],
      "name": "AddressEmptyCode",
      "type": "error"
    },
    {
      "inputs": [],
      "name": "BorrowedAssetsMismatch",
      "type": "error"
    },
    {
      "inputs": [],
      "name": "Expired",
      "type": "error"
    },
    {
      "inputs": [],
      "name": "FailedCall",
      "type": "error"
    },
    {
      "inputs": [],
      "name": "IncorrectTargetAsset",
      "type": "error"
    },
    {
      "inputs": [],
      "name": "InputOutputTokenCollision",
      "type": "error"
    },
    {
      "inputs": [],
      "name": "InvalidAmount",
      "type": "error"
    },
    {
      "inputs": [],
      "name": "InvalidAssetAddress",
      "type": "error"
    },
    {
      "inputs": [],
      "name": "InvalidCollateralAsset",
      "type": "error"
    },
    {
      "inputs": [],
      "name": "InvalidLoanToken",
      "type": "error"
    },
    {
      "inputs": [],
      "name": "InvalidMarketId",
      "type": "error"
    },
    {
      "inputs": [],
      "name": "InvalidMorphoPoolAddress",
      "type": "error"
    },
    {
      "inputs": [],
      "name": "InvalidUserAddress",
      "type": "error"
    },
    {
      "inputs": [],
      "name": "ReentrancyGuardReentrantCall",
      "type": "error"
    },
    {
      "inputs": [],
      "name": "RepaidAssetsMismatch",
      "type": "error"
    },
    {
      "inputs": [
        {
          "internalType": "uint8",
          "name": "bits",
          "type": "uint8"
        },
        {
          "internalType": "uint256",
          "name": "value",
          "type": "uint256"
        }
      ],
      "name": "SafeCastOverflowedUintDowncast",
      "type": "error"
    },
    {
      "inputs": [
        {
          "internalType": "address",
          "name": "token",
          "type": "address"
        }
      ],
      "name": "SafeERC20FailedOperation",
      "type": "error"
    },
    {
      "inputs": [],
      "name": "SelfSupplyNotAllowed",
      "type": "error"
    },
    {
      "inputs": [],
      "name": "SupplyAmountMismatch",
      "type": "error"
    },
    {
      "inputs": [],
      "name": "UnsupportedHookSelector",
      "type": "error"
    },
    {
      "inputs": [],
      "name": "UnsupportedSelector",
      "type": "error"
    },
    {
      "inputs": [
        {
          "internalType": "address",
          "name": "morphoPool",
          "type": "address"
        },
        {
          "internalType": "address",
          "name": "user",
          "type": "address"
        },
        {
          "internalType": "bytes32",
          "name": "marketId",
          "type": "bytes32"
        }
      ],
      "name": "availableBorrow",
      "outputs": [
        {
          "internalType": "uint256",
          "name": "",
          "type": "uint256"
        }
      ],
      "stateMutability": "view",
      "type": "function"
    },
    {
      "inputs": [
        {
          "internalType": "address",
          "name": "morphoPool",
          "type": "address"
        },
        {
          "internalType": "address",
          "name": "user",
          "type": "address"
        },
        {
          "internalType": "bytes32",
          "name": "marketId",
          "type": "bytes32"
        }
      ],
      "name": "availableFunds",
      "outputs": [
        {
          "internalType": "uint256",
          "name": "",
          "type": "uint256"
        }
      ],
      "stateMutability": "view",
      "type": "function"
    },
    {
      "inputs": [
        {
          "internalType": "address",
          "name": "morphoPool",
          "type": "address"
        },
        {
          "internalType": "address",
          "name": "user",
          "type": "address"
        },
        {
          "internalType": "bytes32",
          "name": "marketId",
          "type": "bytes32"
        }
      ],
      "name": "currentBorrow",
      "outputs": [
        {
          "internalType": "uint256",
          "name": "",
          "type": "uint256"
        }
      ],
      "stateMutability": "view",
      "type": "function"
    },
    {
      "inputs": [
        {
          "internalType": "address",
          "name": "user",
          "type": "address"
        },
        {
          "internalType": "address",
          "name": "inputToken",
          "type": "address"
        },
        {
          "internalType": "uint256",
          "name": "maxInputAmount",
          "type": "uint256"
        },
        {
          "internalType": "address",
          "name": "outputToken",
          "type": "address"
        },
        {
          "internalType": "uint256",
          "name": "minOutputAmount",
          "type": "uint256"
        },
        {
          "internalType": "bytes4",
          "name": "selector",
          "type": "bytes4"
        },
        {
          "internalType": "address",
          "name": "targetAddress",
          "type": "address"
        },
        {
          "internalType": "bytes",
          "name": "additionalCalldata",
          "type": "bytes"
        }
      ],
      "name": "generateActionCalldata",
      "outputs": [
        {
          "components": [
            {
              "internalType": "address",
              "name": "expectedInputToken",
              "type": "address"
            },
            {
              "internalType": "uint256",
              "name": "expectedInputAmount",
              "type": "uint256"
            },
            {
              "internalType": "address",
              "name": "expectedOutputToken",
              "type": "address"
            },
            {
              "internalType": "uint256",
              "name": "expectedOutputAmount",
              "type": "uint256"
            },
            {
              "internalType": "bool",
              "name": "isDeterministic",
              "type": "bool"
            }
          ],
          "internalType": "struct PreviewAction",
          "name": "",
          "type": "tuple"
        },
        {
          "internalType": "bytes",
          "name": "",
          "type": "bytes"
        }
      ],
      "stateMutability": "view",
      "type": "function"
    },
    {
      "inputs": [
        {
          "internalType": "bytes4",
          "name": "selector",
          "type": "bytes4"
        },
        {
          "internalType": "address",
          "name": "morphoPool",
          "type": "address"
        },
        {
          "internalType": "address",
          "name": "asset",
          "type": "address"
        },
        {
          "internalType": "address",
          "name": "user",
          "type": "address"
        },
        {
          "internalType": "uint256",
          "name": "amount",
          "type": "uint256"
        },
        {
          "internalType": "bool",
          "name": "payoutUser",
          "type": "bool"
        },
        {
          "internalType": "bytes",
          "name": "data",
          "type": "bytes"
        }
      ],
      "name": "generateCalldata",
      "outputs": [
        {
          "internalType": "bytes",
          "name": "",
          "type": "bytes"
        }
      ],
      "stateMutability": "view",
      "type": "function"
    },
    {
      "inputs": [
        {
          "internalType": "address",
          "name": "morphoPool",
          "type": "address"
        },
        {
          "components": [
            {
              "internalType": "address",
              "name": "loanToken",
              "type": "address"
            },
            {
              "internalType": "address",
              "name": "collateralToken",
              "type": "address"
            },
            {
              "internalType": "address",
              "name": "oracle",
              "type": "address"
            },
            {
              "internalType": "address",
              "name": "irm",
              "type": "address"
            },
            {
              "internalType": "uint256",
              "name": "lltv",
              "type": "uint256"
            }
          ],
          "internalType": "struct MarketParams",
          "name": "marketParams",
          "type": "tuple"
        },
        {
          "internalType": "uint256",
          "name": "assets",
          "type": "uint256"
        }
      ],
      "name": "morphoBorrow",
      "outputs": [],
      "stateMutability": "nonpayable",
      "type": "function"
    },
    {
      "inputs": [
        {
          "internalType": "address",
          "name": "morphoPool",
          "type": "address"
        },
        {
          "components": [
            {
              "internalType": "address",
              "name": "loanToken",
              "type": "address"
            },
            {
              "internalType": "address",
              "name": "collateralToken",
              "type": "address"
            },
            {
              "internalType": "address",
              "name": "oracle",
              "type": "address"
            },
            {
              "internalType": "address",
              "name": "irm",
              "type": "address"
            },
            {
              "internalType": "uint256",
              "name": "lltv",
              "type": "uint256"
            }
          ],
          "internalType": "struct MarketParams",
          "name": "marketParams",
          "type": "tuple"
        },
        {
          "internalType": "uint256",
          "name": "assets",
          "type": "uint256"
        },
        {
          "internalType": "address",
          "name": "user",
          "type": "address"
        },
        {
          "internalType": "bool",
          "name": "payoutUser",
          "type": "bool"
        }
      ],
      "name": "morphoBorrow",
      "outputs": [],
      "stateMutability": "nonpayable",
      "type": "function"
    },
    {
      "inputs": [
        {
          "components": [
            {
              "internalType": "address",
              "name": "user",
              "type": "address"
            },
            {
              "internalType": "address",
              "name": "inputToken",
              "type": "address"
            },
            {
              "internalType": "uint256",
              "name": "maxInputAmount",
              "type": "uint256"
            },
            {
              "internalType": "address",
              "name": "outputToken",
              "type": "address"
            },
            {
              "internalType": "uint256",
              "name": "minOutputAmount",
              "type": "uint256"
            },
            {
              "internalType": "address",
              "name": "targetAddress",
              "type": "address"
            },
            {
              "internalType": "bytes",
              "name": "additionalCalldata",
              "type": "bytes"
            }
          ],
          "internalType": "struct ActionHookInput",
          "name": "input",
          "type": "tuple"
        }
      ],
      "name": "morphoRefinanceInHook",
      "outputs": [],
      "stateMutability": "nonpayable",
      "type": "function"
    },
    {
      "inputs": [
        {
          "components": [
            {
              "internalType": "address",
              "name": "user",
              "type": "address"
            },
            {
              "internalType": "address",
              "name": "inputToken",
              "type": "address"
            },
            {
              "internalType": "uint256",
              "name": "maxInputAmount",
              "type": "uint256"
            },
            {
              "internalType": "address",
              "name": "outputToken",
              "type": "address"
            },
            {
              "internalType": "uint256",
              "name": "minOutputAmount",
              "type": "uint256"
            },
            {
              "internalType": "address",
              "name": "targetAddress",
              "type": "address"
            },
            {
              "internalType": "bytes",
              "name": "additionalCalldata",
              "type": "bytes"
            }
          ],
          "internalType": "struct ActionHookInput",
          "name": "input",
          "type": "tuple"
        }
      ],
      "name": "morphoRefinanceOutHook",
      "outputs": [],
      "stateMutability": "nonpayable",
      "type": "function"
    },
    {
      "inputs": [
        {
          "internalType": "address",
          "name": "morphoPool",
          "type": "address"
        },
        {
          "components": [
            {
              "internalType": "address",
              "name": "loanToken",
              "type": "address"
            },
            {
              "internalType": "address",
              "name": "collateralToken",
              "type": "address"
            },
            {
              "internalType": "address",
              "name": "oracle",
              "type": "address"
            },
            {
              "internalType": "address",
              "name": "irm",
              "type": "address"
            },
            {
              "internalType": "uint256",
              "name": "lltv",
              "type": "uint256"
            }
          ],
          "internalType": "struct MarketParams",
          "name": "marketParams",
          "type": "tuple"
        },
        {
          "internalType": "uint256",
          "name": "assets",
          "type": "uint256"
        },
        {
          "internalType": "address",
          "name": "user",
          "type": "address"
        },
        {
          "internalType": "bool",
          "name": "usePermit2",
          "type": "bool"
        }
      ],
      "name": "morphoRepay",
      "outputs": [],
      "stateMutability": "nonpayable",
      "type": "function"
    },
    {
      "inputs": [
        {
          "internalType": "address",
          "name": "morphoPool",
          "type": "address"
        },
        {
          "components": [
            {
              "internalType": "address",
              "name": "loanToken",
              "type": "address"
            },
            {
              "internalType": "address",
              "name": "collateralToken",
              "type": "address"
            },
            {
              "internalType": "address",
              "name": "oracle",
              "type": "address"
            },
            {
              "internalType": "address",
              "name": "irm",
              "type": "address"
            },
            {
              "internalType": "uint256",
              "name": "lltv",
              "type": "uint256"
            }
          ],
          "internalType": "struct MarketParams",
          "name": "marketParams",
          "type": "tuple"
        },
        {
          "internalType": "uint256",
          "name": "assets",
          "type": "uint256"
        },
        {
          "internalType": "bool",
          "name": "usePermit2",
          "type": "bool"
        }
      ],
      "name": "morphoRepay",
      "outputs": [],
      "stateMutability": "nonpayable",
      "type": "function"
    },
    {
      "inputs": [
        {
          "internalType": "address",
          "name": "morphoPool",
          "type": "address"
        },
        {
          "components": [
            {
              "internalType": "address",
              "name": "authorizer",
              "type": "address"
            },
            {
              "internalType": "address",
              "name": "authorized",
              "type": "address"
            },
            {
              "internalType": "bool",
              "name": "isAuthorized",
              "type": "bool"
            },
            {
              "internalType": "uint256",
              "name": "nonce",
              "type": "uint256"
            },
            {
              "internalType": "uint256",
              "name": "deadline",
              "type": "uint256"
            }
          ],
          "internalType": "struct Authorization",
          "name": "authorization",
          "type": "tuple"
        },
        {
          "components": [
            {
              "internalType": "uint8",
              "name": "v",
              "type": "uint8"
            },
            {
              "internalType": "bytes32",
              "name": "r",
              "type": "bytes32"
            },
            {
              "internalType": "bytes32",
              "name": "s",
              "type": "bytes32"
            }
          ],
          "internalType": "struct Signature",
          "name": "signature",
          "type": "tuple"
        },
        {
          "internalType": "bool",
          "name": "skipRevert",
          "type": "bool"
        }
      ],
      "name": "morphoSetAuthorizationWithSig",
      "outputs": [],
      "stateMutability": "nonpayable",
      "type": "function"
    },
    {
      "inputs": [
        {
          "internalType": "address",
          "name": "morphoPool",
          "type": "address"
        },
        {
          "components": [
            {
              "internalType": "address",
              "name": "loanToken",
              "type": "address"
            },
            {
              "internalType": "address",
              "name": "collateralToken",
              "type": "address"
            },
            {
              "internalType": "address",
              "name": "oracle",
              "type": "address"
            },
            {
              "internalType": "address",
              "name": "irm",
              "type": "address"
            },
            {
              "internalType": "uint256",
              "name": "lltv",
              "type": "uint256"
            }
          ],
          "internalType": "struct MarketParams",
          "name": "marketParams",
          "type": "tuple"
        },
        {
          "internalType": "uint256",
          "name": "assets",
          "type": "uint256"
        },
        {
          "internalType": "address",
          "name": "user",
          "type": "address"
        },
        {
          "internalType": "bool",
          "name": "usePermit2",
          "type": "bool"
        }
      ],
      "name": "morphoSupply",
      "outputs": [],
      "stateMutability": "nonpayable",
      "type": "function"
    },
    {
      "inputs": [
        {
          "internalType": "address",
          "name": "morphoPool",
          "type": "address"
        },
        {
          "components": [
            {
              "internalType": "address",
              "name": "loanToken",
              "type": "address"
            },
            {
              "internalType": "address",
              "name": "collateralToken",
              "type": "address"
            },
            {
              "internalType": "address",
              "name": "oracle",
              "type": "address"
            },
            {
              "internalType": "address",
              "name": "irm",
              "type": "address"
            },
            {
              "internalType": "uint256",
              "name": "lltv",
              "type": "uint256"
            }
          ],
          "internalType": "struct MarketParams",
          "name": "marketParams",
          "type": "tuple"
        },
        {
          "internalType": "uint256",
          "name": "assets",
          "type": "uint256"
        },
        {
          "internalType": "bool",
          "name": "usePermit2",
          "type": "bool"
        }
      ],
      "name": "morphoSupply",
      "outputs": [],
      "stateMutability": "nonpayable",
      "type": "function"
    },
    {
      "inputs": [
        {
          "internalType": "address",
          "name": "morphoPool",
          "type": "address"
        },
        {
          "components": [
            {
              "internalType": "address",
              "name": "loanToken",
              "type": "address"
            },
            {
              "internalType": "address",
              "name": "collateralToken",
              "type": "address"
            },
            {
              "internalType": "address",
              "name": "oracle",
              "type": "address"
            },
            {
              "internalType": "address",
              "name": "irm",
              "type": "address"
            },
            {
              "internalType": "uint256",
              "name": "lltv",
              "type": "uint256"
            }
          ],
          "internalType": "struct MarketParams",
          "name": "marketParams",
          "type": "tuple"
        },
        {
          "internalType": "uint256",
          "name": "assets",
          "type": "uint256"
        },
        {
          "internalType": "address",
          "name": "user",
          "type": "address"
        },
        {
          "internalType": "bool",
          "name": "usePermit2",
          "type": "bool"
        }
      ],
      "name": "morphoSupplyCollateral",
      "outputs": [],
      "stateMutability": "nonpayable",
      "type": "function"
    },
    {
      "inputs": [
        {
          "internalType": "address",
          "name": "morphoPool",
          "type": "address"
        },
        {
          "components": [
            {
              "internalType": "address",
              "name": "loanToken",
              "type": "address"
            },
            {
              "internalType": "address",
              "name": "collateralToken",
              "type": "address"
            },
            {
              "internalType": "address",
              "name": "oracle",
              "type": "address"
            },
            {
              "internalType": "address",
              "name": "irm",
              "type": "address"
            },
            {
              "internalType": "uint256",
              "name": "lltv",
              "type": "uint256"
            }
          ],
          "internalType": "struct MarketParams",
          "name": "marketParams",
          "type": "tuple"
        },
        {
          "internalType": "uint256",
          "name": "assets",
          "type": "uint256"
        },
        {
          "internalType": "bool",
          "name": "usePermit2",
          "type": "bool"
        }
      ],
      "name": "morphoSupplyCollateral",
      "outputs": [],
      "stateMutability": "nonpayable",
      "type": "function"
    },
    {
      "inputs": [
        {
          "internalType": "address",
          "name": "morphoPool",
          "type": "address"
        },
        {
          "components": [
            {
              "internalType": "address",
              "name": "loanToken",
              "type": "address"
            },
            {
              "internalType": "address",
              "name": "collateralToken",
              "type": "address"
            },
            {
              "internalType": "address",
              "name": "oracle",
              "type": "address"
            },
            {
              "internalType": "address",
              "name": "irm",
              "type": "address"
            },
            {
              "internalType": "uint256",
              "name": "lltv",
              "type": "uint256"
            }
          ],
          "internalType": "struct MarketParams",
          "name": "marketParams",
          "type": "tuple"
        },
        {
          "internalType": "uint256",
          "name": "assets",
          "type": "uint256"
        }
      ],
      "name": "morphoWithdrawCollateral",
      "outputs": [],
      "stateMutability": "nonpayable",
      "type": "function"
    },
    {
      "inputs": [
        {
          "internalType": "address",
          "name": "morphoPool",
          "type": "address"
        },
        {
          "components": [
            {
              "internalType": "address",
              "name": "loanToken",
              "type": "address"
            },
            {
              "internalType": "address",
              "name": "collateralToken",
              "type": "address"
            },
            {
              "internalType": "address",
              "name": "oracle",
              "type": "address"
            },
            {
              "internalType": "address",
              "name": "irm",
              "type": "address"
            },
            {
              "internalType": "uint256",
              "name": "lltv",
              "type": "uint256"
            }
          ],
          "internalType": "struct MarketParams",
          "name": "marketParams",
          "type": "tuple"
        },
        {
          "internalType": "uint256",
          "name": "assets",
          "type": "uint256"
        },
        {
          "internalType": "address",
          "name": "user",
          "type": "address"
        },
        {
          "internalType": "bool",
          "name": "payoutUser",
          "type": "bool"
        }
      ],
      "name": "morphoWithdrawCollateral",
      "outputs": [],
      "stateMutability": "nonpayable",
      "type": "function"
    },
    {
      "inputs": [
        {
          "internalType": "bytes4",
          "name": "",
          "type": "bytes4"
        }
      ],
      "name": "previewMapping",
      "outputs": [
        {
          "internalType": "bytes4",
          "name": "",
          "type": "bytes4"
        }
      ],
      "stateMutability": "view",
      "type": "function"
    },
    {
      "inputs": [
        {
          "components": [
            {
              "internalType": "address",
              "name": "user",
              "type": "address"
            },
            {
              "internalType": "address",
              "name": "inputToken",
              "type": "address"
            },
            {
              "internalType": "uint256",
              "name": "maxInputAmount",
              "type": "uint256"
            },
            {
              "internalType": "address",
              "name": "outputToken",
              "type": "address"
            },
            {
              "internalType": "uint256",
              "name": "minOutputAmount",
              "type": "uint256"
            },
            {
              "internalType": "address",
              "name": "targetAddress",
              "type": "address"
            },
            {
              "internalType": "bytes",
              "name": "additionalCalldata",
              "type": "bytes"
            }
          ],
          "internalType": "struct ActionHookInput",
          "name": "actionHookInput",
          "type": "tuple"
        }
      ],
      "name": "previewMorphoRefinanceIn",
      "outputs": [
        {
          "components": [
            {
              "internalType": "address",
              "name": "expectedInputToken",
              "type": "address"
            },
            {
              "internalType": "uint256",
              "name": "expectedInputAmount",
              "type": "uint256"
            },
            {
              "internalType": "address",
              "name": "expectedOutputToken",
              "type": "address"
            },
            {
              "internalType": "uint256",
              "name": "expectedOutputAmount",
              "type": "uint256"
            },
            {
              "internalType": "bool",
              "name": "isDeterministic",
              "type": "bool"
            }
          ],
          "internalType": "struct PreviewAction",
          "name": "",
          "type": "tuple"
        }
      ],
      "stateMutability": "view",
      "type": "function"
    },
    {
      "inputs": [
        {
          "components": [
            {
              "internalType": "address",
              "name": "user",
              "type": "address"
            },
            {
              "internalType": "address",
              "name": "inputToken",
              "type": "address"
            },
            {
              "internalType": "uint256",
              "name": "maxInputAmount",
              "type": "uint256"
            },
            {
              "internalType": "address",
              "name": "outputToken",
              "type": "address"
            },
            {
              "internalType": "uint256",
              "name": "minOutputAmount",
              "type": "uint256"
            },
            {
              "internalType": "address",
              "name": "targetAddress",
              "type": "address"
            },
            {
              "internalType": "bytes",
              "name": "additionalCalldata",
              "type": "bytes"
            }
          ],
          "internalType": "struct ActionHookInput",
          "name": "actionHookInput",
          "type": "tuple"
        }
      ],
      "name": "previewMorphoRefinanceOut",
      "outputs": [
        {
          "components": [
            {
              "internalType": "address",
              "name": "expectedInputToken",
              "type": "address"
            },
            {
              "internalType": "uint256",
              "name": "expectedInputAmount",
              "type": "uint256"
            },
            {
              "internalType": "address",
              "name": "expectedOutputToken",
              "type": "address"
            },
            {
              "internalType": "uint256",
              "name": "expectedOutputAmount",
              "type": "uint256"
            },
            {
              "internalType": "bool",
              "name": "isDeterministic",
              "type": "bool"
            }
          ],
          "internalType": "struct PreviewAction",
          "name": "",
          "type": "tuple"
        }
      ],
      "stateMutability": "view",
      "type": "function"
    }
  ],
  "bytecode": "0x60a0346200016957601f62003e1438819003918201601f19168301916001600160401b038311848410176200016e578084926020946040528339810103126200016957516001600160a01b0381168082036200016957600160005515620001575760805260016020527ff7cd878c4379dd4d3a181ac182f31430a6fc79a95342a31629836b7c7a76de17805463ffffffff199081166353a08e0117909155632a6b5ca560e21b6000527ec420daa81949613c0ff383829552cf17d6d715f21743d66a4932f0a8bba6e68054909116637a5f106d179055604051613c8f9081620001858239608051818181610190015281816103eb015281816106790152818161082101528181610cf001528181610d6301528181610efb01528181610f95015281816110d701528181611294015281816113a5015281816115ba0152818161176401528181611a9301528181611c400152611dde0152f35b60405163190d7e9360e21b8152600490fd5b600080fd5b634e487b7160e01b600052604160045260246000fdfe6080604081815260048036101561001557600080fd5b60009260e08435811c918263147e18a514611ff257508163167840d514611d7e5781631720e5f914611c07578163182919ab14611a505781634d70441a1461184057816353a08e01146117305781635eca7429146115755781636836c7d41461136057816369bd280314611252578163737743f8146110a05781637a5f106d14610f60578163876f90c214610e7857816390e6627114610d415781639368adeb14610cd05781639ef72eff14610a6c578163a9ad7294146107c4578163c3246edc1461078457508063cf25d03914610637578063ebeab5e2146103a8578063edaf47e9146103815763f84247aa1461010c57600080fd5b346102db576101403660031901126102db576101266120a5565b9060a036602319011261037d5760603660c319011261037d5761012435918215928315036102df577f2a2e13707d6b40952f0aec05e2811137753b06b56d55208636050ec9ee68dd78546001600160a01b03919060081c8216801561034a573303610318578116817f0000000000000000000000000000000000000000000000000000000000000000168103610308578015610308576024358281168091036102df57156102f85760a43590428211156102e857803b156102e4578551638069218f60e01b815292806101f76120bb565b16858501526102046120d1565b166024840152606435918215158093036102df57879260448501526084356064850152608484015260c43560ff81168091036102db578291849160a483015260e43560c4830152818361010492833560e48401525af191826102c3575b50506102bd5761026f612c8b565b9161027a5750505080f35b815192831561028a575050602001fd5b906020606492519162461bcd60e51b8352820152600d60248201526c18d85b1b081c995d995c9d1959609a1b6044820152fd5b50505080f35b6102cc90612177565b6102d7578438610261565b8480fd5b8280fd5b600080fd5b8680fd5b8551630407b05b60e31b81528490fd5b8451630702b3d960e41b81528390fd5b845163190d7e9360e21b81528390fd5b845162461bcd60e51b8152602081850152600c60248201526b1d5b985d5d1a1bdc9a5e995960a21b6044820152606490fd5b855162461bcd60e51b8152602081860152600d60248201526c1d5b9a5b9a5d1a585b1a5e9959609a1b6044820152606490fd5b8380fd5b5050346103a45760209061039d61039736612111565b91612984565b9051908152f35b5080fd5b5090346102db576103b836612334565b919390926001600160a01b03808516939192819033861480156105f3575b80156105ba575b6103e6906125a6565b1693817f00000000000000000000000000000000000000000000000000000000000000001685036105aa57861561059a57818451161561058a571561057a5791869391869360009080600080516020613bfa8339815191525416159081159161055f575b508015610556575b156104ef5750156104e35760008861047f875b87516350d8cd4b60e01b8152988997889687958601613460565b03925af19081156104d8576000916104aa575b505b0361049d578280f35b51630c40785760e21b8152fd5b6104ca9150833d85116104d1575b6104c28183612242565b81019061344a565b5038610492565b503d6104b8565b83513d6000823e3d90fd5b60008861047f30610465565b859493929150896105168883999851988997889687956350d8cd4b60e01b87528601613460565b03925af191821561054b579161052d575b50610494565b6105449150833d85116104d1576104c28183612242565b5038610527565b8451903d90823e3d90fd5b50303314610452565b9050600080516020613c3a833981519152541615153861044a565b8651630702b3d960e41b81528890fd5b8751630ccd248560e21b81528990fd5b875163162908e360e11b81528990fd5b875163190d7e9360e21b81528990fd5b5081600080516020613c1a83398151915254168681151591826105e9575b505080156103dd57503330146103dd565b14905086386105d8565b503033148061061d575b80156103d657508582600080516020613bda8339815191525416146103d6565b5081600080516020613bda833981519152541615156105fd565b5090346102db576101003660031901126102db576106536120a5565b9061065d36612265565b9260c4359160e4359182151583036102df576001600160a01b037f000000000000000000000000000000000000000000000000000000000000000081168682160361077557602087019381855116156107655788949392919015610746576106c486613511565b9351166e22d473030f116ddee9f6b43ac78ba3803b156107425761070394868094865197889586948593631b63c28b60e11b855230903390860161261a565b03925af19081156107395750610725575b5050610722925b3392613246565b80f35b61072e90612177565b61037d578338610714565b513d84823e3d90fd5b8580fd5b9050610722969350849150610760925116309033906134ca565b61071b565b835163a9213b9b60e01b81528390fd5b50905163190d7e9360e21b8152fd5b915050346102db5760203660031901126102db576020926001600160e01b031991908390836107b1612466565b168152600186522054901b915191168152f35b505090346102db576107d536612146565b6107de81612592565b9060018060a01b03610810600080516020613c3a8339815191529382855416838115159283610a60575b5050506125a6565b60a0820161081d81612592565b82807f000000000000000000000000000000000000000000000000000000000000000016911603610a50579061085e6020949392610859613223565b612592565b9261086a858401612592565b5061087760608401612592565b5060808301359161088784612592565b9461089560c08601866125e8565b90809891810103126102df578751632c3c915760e01b81529635898801528082169460a088602481895afa978815610a46579089918c99610a0b575b50918888926108e2940135916135c2565b82156109fb5780602087015116156109eb578085161561057a5780600080516020613bfa833981519152541615918215926109de575b505080156109d5575b1561098357813b156102df5760008094610950875198899687958694638720316d60e01b865230938601613499565b03925af1908115610979575061096a575b505b6001815580f35b61097390612177565b38610961565b513d6000823e3d90fd5b919492813b156102df57600080946109af888851998a9788968795638720316d60e01b87528601613499565b03925af190811561097957506109c6575b50610963565b6109cf90612177565b386109c0565b50303314610921565b5416151590503880610918565b8651630ccd248560e21b81528890fd5b865163162908e360e11b81528890fd5b8892995090610a356108e2949260a03d60a011610a3f575b610a2d8183612242565b810190612530565b99925090926108d1565b503d610a23565b89513d8d823e3d90fd5b845163190d7e9360e21b81528690fd5b16149050388381610808565b90508383346103a4576101003660031901126103a457610a8a6120a5565b92610a936120bb565b610a9b6120e7565b6001600160e01b03199660a435968888169291908389036102df576001600160a01b0360c435818116949193908590036102df5760e435976001600160401b038911610ccc573660238a011215610ccc578882013596610afa88612501565b97610b078c51998a612242565b80895260209a3660248383010111610cc857818e9260248e9301838d01378a010152610b31612766565b508b5260018952898b2054901b9b8c1615610cba57509780809a9b610bcc93858b9c8180610ba49e5194610b64866121bb565b169b8c8552168c8401528d6044359084015216606082015260843560808201528660a08201528760c08201528b519a8b918b830193845260248301612921565b0399610bb8601f199b8c8101835282612242565b5190305afa610bc5612c8b565b9030613b0b565b9760a089805181010312610cb757908760609281519a8b91610bed836121a0565b60a0610bfa8b840161251c565b928385528581015194858d820152610c1389830161251c565b8097820152608082015198899101520151908115158203610cb7575093610ca29d9a9793610cb39c9a9793828f94610c989c986080610c8c9b9701528d5198610c5b8a6121bb565b895216898801528b870152166060850152608084015260a083015260c0820152855196879384015260248301612921565b03908101845283612242565b51938480946123da565b60c060a084015260c083019061247d565b0390f35b80fd5b8851631416e68f60e01b8152fd5b8d80fd5b8a80fd5b828585346103a457610ce1366124bd565b93919290916001600160a01b037f0000000000000000000000000000000000000000000000000000000000000000811690831603610d325750610722949550610d2c339336906122d2565b906136b0565b5163190d7e9360e21b81528690fd5b505090346102db57610d52366124bd565b9294919390926001600160a01b03907f0000000000000000000000000000000000000000000000000000000000000000821682881603610e695781610d9687612592565b1615610e5a57879392919015610e345750610db084613511565b91610dba86612592565b6e22d473030f116ddee9f6b43ac78ba3803b1561074257610df694868094865197889586948593631b63c28b60e11b855230903390860161261a565b03925af19081156107395750610e20575b5050610722925b610e1a339336906122d2565b906135c2565b610e2990612177565b61037d578338610e07565b610722969350610e559250849150610e4b86612592565b16309033906134ca565b610e0e565b50505163fcf3a30b60e01b8152fd5b50505163190d7e9360e21b8152fd5b90503461037d573660031901126102db57610e91612466565b90610e9a6120bb565b91610ea36120d1565b610eab6120e7565b9060a4359384151585036102df576001600160401b039760c4359190898311610cb75736602384011215610cb75782820135998a11610cb7573660248b85010111610cb757506001600160a01b037f0000000000000000000000000000000000000000000000000000000000000000811690881603610f52575091610f3f9593916024610cb3999694019460843593612806565b905191829160208352602083019061247d565b875163190d7e9360e21b8152fd5b50509134610cb757610f7136612146565b90610f7a612766565b5060a0820190610f8982612592565b6001600160a01b0392907f0000000000000000000000000000000000000000000000000000000000000000841690841603610a5057602090610fce60c08601866125e8565b90809391810103126102df5783610fe660a092612592565b8751632c3c915760e01b815293358985015283916024918391165afa9182156110955791611076575b508181511694602082019583875116146110685760a086611066876080888880895116955116835195611041876121a0565b86528382013560208701528386015201356060840152600160808401525180926123da565bf35b8451635542f09960e01b8152fd5b61108f915060a03d60a011610a3f57610a2d8183612242565b3861100f565b8551903d90823e3d90fd5b849391503461037d573660031901126102db576110bb6120a5565b6110c436612265565b60c435916001600160a01b0390811691907f000000000000000000000000000000000000000000000000000000000000000081168303610a505783156112425780825116156112325733156112225790849160009080600080516020613bfa83398151915254161590811591611207575b5080156111fe575b156111a357506000926111699183519485809481936350d8cd4b60e01b83528b8a339233928601613460565b03925af19081156104d85760009161118557500361049d578280f35b61119c9150833d85116104d1576104c28183612242565b5085610492565b926111ca9083928594519485809481936350d8cd4b60e01b83528c8b339233928601613460565b03925af191821561054b57916111e05750610494565b6111f79150833d85116104d1576104c28183612242565b5085610527565b5030331461113d565b9050600080516020613c3a8339815191525416151589611135565b8451630702b3d960e41b81528690fd5b8451630ccd248560e21b81528690fd5b845163162908e360e11b81528690fd5b838584346103a45761126336612413565b92969294909391926001600160a01b03808616338114801561131c575b80156112da575b61129191506125a6565b807f000000000000000000000000000000000000000000000000000000000000000016908416036112cd575050610d2c610722959636906122d2565b5163190d7e9360e21b8152fd5b5081600080516020613c1a8339815191525416908115159182611312575b505080611309575b61129190611287565b50333014611300565b1490508a806112f8565b5030331480611346575b801561128057508082600080516020613bda833981519152541614611280565b5081600080516020613bda83398151915254161515611326565b505090346102db5761137136612413565b9095939192916001600160a01b03808816929181903385148015611531575b80156114f8575b6113a0906125a6565b1693817f00000000000000000000000000000000000000000000000000000000000000001685036114e8576113d69036906122d2565b9285156114d85781602085015116156114c857156114b85780600080516020613bfa8339815191525416159081159161149d575b508015611494575b1561146a571561146457855b823b156102df5760009461144786928851998a9788968795638720316d60e01b87528601613499565b03925af1908115610979575061145b575080f35b61072290612177565b3061141e565b50813b156102df5760008094611447888851998a9788968795638720316d60e01b87528601613499565b50303314611412565b9050600080516020613c3a833981519152541615153861140a565b8651630702b3d960e41b81528690fd5b8751630ccd248560e21b81528790fd5b875163162908e360e11b81528790fd5b875163190d7e9360e21b81528790fd5b5081600080516020613c1a8339815191525416858115159182611527575b505080156113975750333014611397565b1490508538611516565b503033148061155b575b801561139057508482600080516020613bda833981519152541614611390565b5081600080516020613bda8339815191525416151561153b565b505090346102db5761158636612413565b929590949193929091906001600160a01b039081871633811480156116ec575b80156116aa575b6115b791506125a6565b817f00000000000000000000000000000000000000000000000000000000000000001682861603610e6957816115ec89612592565b1615610e5a57889392919015611681575061160685613511565b9161161088612592565b926e22d473030f116ddee9f6b43ac78ba3803b15610742578592838a61164b875198899687958694631b63c28b60e11b86523091860161261a565b03925af1908115610739575061166d575b5050610e1a610722945b36906122d2565b61167690612177565b6102d757843861165c565b610e1a93508792506116a59150859061169c61072299612592565b168730916134ca565b611666565b5082600080516020613c1a83398151915254169081151591826116e2575b5050806116d9575b6115b7906115ad565b503330146116d0565b14905038806116c8565b5030331480611716575b80156115a657508083600080516020613bda8339815191525416146115a6565b5082600080516020613bda833981519152541615156116f6565b5050346102db5761174036612146565b90611749612766565b5060a082019061175882612592565b6001600160a01b0392907f00000000000000000000000000000000000000000000000000000000000000008416908416036118315760209061179d60c08601866125e8565b90809391810103126102df57836117b560a092612592565b8751632c3c915760e01b815293358585015283916024918391165afa9586156110955795611810575b508185511690602086019183835116146110685760a086611066876080888880895116955116835195611041876121a0565b61182a91955060a03d60a011610a3f57610a2d8183612242565b93386117de565b50835163190d7e9360e21b8152fd5b50509134610cb75761185136612111565b6001600160a01b039592861691908215611a405786821615611a30578015611a21578551632c3c915760e01b81528481018290529660a088602481875afa9788156119f15786986119fb575b5060208591888a016118b3828251161515612644565b511688519687809263501ad8ff60e11b82525afa9485156119f15786956119bd575b5082916060916118e6871515612689565b611901895194859384936349e2903160e11b8552840161272a565b0381865afa9081156119b357670de0b6b3a764000093611959611943611963958b60209c966080968c91611984575b508c01516000196001881b011694612cbb565b966a0c097ce7bc90715b34b9f160241b92613544565b0491015190613544565b048181111561197c5761039d9250612743565b51908152f35b505090611976565b6119a6915060603d6060116119ac575b61199e8183612242565b8101906126d9565b38611930565b503d611994565b86513d87823e3d90fd5b9094506020813d6020116119e9575b816119d960209383612242565b810103126102df575193826118d5565b3d91506119cc565b87513d88823e3d90fd5b85919850611a1960209160a03d60a011610a3f57610a2d8183612242565b98915061189d565b855162320bd360e51b81528490fd5b8551630702b3d960e41b81528490fd5b855163190d7e9360e21b81528490fd5b828585346103a457611a6136612334565b9396909491939091906001600160a01b038087163381148015611bc3575b8015611b81575b611a9091506125a6565b807f000000000000000000000000000000000000000000000000000000000000000016818a1603610e695760208501918183511615611b715715611b5457611ad786613511565b915116926e22d473030f116ddee9f6b43ac78ba390813b15611b5057908892918389611b18875198899687958694631b63c28b60e11b86523091860161261a565b03925af1908115611b475750611b34575b506107229394613246565b93611b4161072295612177565b93611b29565b513d87823e3d90fd5b8880fd5b61072297989350611b6c9250859151168630916134ca565b613246565b5050505163a9213b9b60e01b8152fd5b5081600080516020613c1a8339815191525416908115159182611bb9575b505080611bb0575b611a9090611a86565b50333014611ba7565b1490508a80611b9f565b5030331480611bed575b8015611a7f57508082600080516020613bda833981519152541614611a7f565b5081600080516020613bda83398151915254161515611bcd565b849391503461037d573660031901126102db57611c226120a5565b60a036602319011261037d5760c435926001600160a01b03918216907f000000000000000000000000000000000000000000000000000000000000000083168203611d7057611c7036612265565b928515611d61578060208501511615611d52573315611d4357908187949392600080516020613bfa83398151915254161590811591611d28575b508015611d1f575b15611cf557813b1561037d5783611ce196865197889586948593638720316d60e01b8552339233928601613499565b03925af1908115610739575061145b575080f35b813b1561037d5783611ce196865197889586948593638720316d60e01b8552339233928601613499565b50303314611cb2565b9050600080516020613c3a8339815191525416151588611caa565b508351630702b3d960e41b8152fd5b508351630ccd248560e21b8152fd5b50835163162908e360e11b8152fd5b835163190d7e9360e21b8152fd5b505090346102db57611d8f36612146565b611d9881612592565b600080516020613c3a83398151915280546001600160a01b03939192611dcd91851680151591869083611fe6575050506125a6565b60a08101611dda81612592565b84807f000000000000000000000000000000000000000000000000000000000000000016911603610a5057611e13602091610859613223565b92611e2060608401612592565b50608083013594611e32838501612592565b50611e3c84612592565b94611e4a60c08601866125e8565b9080959181010312611fe2578751632c3c915760e01b81529335898501528082169460a085602481895afa948515610a46578792918a918d97611fb9575b50611e999392918791013591613246565b85156109fb5780835116156109eb578085161561057a5788889593889593889380600080516020613bfa83398151915254161591821592611fac575b50508015611fa3575b15611f4b57611f028651978896879586946350d8cd4b60e01b865230938601613460565b03925af1908115611f41578591611f23575b505b0361049d57826001815580f35b611f3a9150833d85116104d1576104c28183612242565b5038611f14565b83513d87823e3d90fd5b85516350d8cd4b60e01b815296879586948593611f6d93839291908601613460565b03925af1908115611f41578591611f85575b50611f16565b611f9c9150833d85116104d1576104c28183612242565b5038611f7f565b50303314611ede565b5416151590503880611ed5565b611e999493929750611fd99060a03d60a011610a3f57610a2d8183612242565b96919293611e88565b8980fd5b16149050388581610808565b929150503461037d5761200436612111565b90936001600160a01b039283169290831561209757508416156102f8578015612088578451632c3c915760e01b81529283015260a082602481845afa91821561207e579061039d9392916020969261205d575b50612cbb565b61207791925060a03d60a011610a3f57610a2d8183612242565b9038612057565b84513d87823e3d90fd5b845162320bd360e51b81528390fd5b63190d7e9360e21b81528490fd5b600435906001600160a01b03821682036102df57565b602435906001600160a01b03821682036102df57565b604435906001600160a01b03821682036102df57565b606435906001600160a01b03821682036102df57565b35906001600160a01b03821682036102df57565b60609060031901126102df576001600160a01b039060043582811681036102df579160243590811681036102df579060443590565b600319906020818301126102df57600435916001600160401b0383116102df578260e0920301126102df5760040190565b6001600160401b03811161218a57604052565b634e487b7160e01b600052604160045260246000fd5b60a081019081106001600160401b0382111761218a57604052565b60e081019081106001600160401b0382111761218a57604052565b606081019081106001600160401b0382111761218a57604052565b604081019081106001600160401b0382111761218a57604052565b602081019081106001600160401b0382111761218a57604052565b608081019081106001600160401b0382111761218a57604052565b601f909101601f19168101906001600160401b0382119082101761218a57604052565b60a09060231901126102df576040519061227e826121a0565b816001600160a01b0360243581811681036102df57825260443581811681036102df57602083015260643581811681036102df57604083015260843590811681036102df576060820152608060a435910152565b91908260a09103126102df576040516122ea816121a0565b60808082946122f8816120fd565b8452612306602082016120fd565b6020850152612317604082016120fd565b6040850152612328606082016120fd565b60608501520135910152565b906101206003198301126102df576001600160a01b0360043581811681036102df5760a0909360231901126102df5760405161236f816121a0565b60243582811681036102df57815260443582811681036102df57602082015260643582811681036102df57604082015260843582811681036102df57606082015260a43560808201529160c4359160e43590811681036102df57906101043580151581036102df5790565b6080809160018060a01b038082511685526020820151602086015260408201511660408501526060810151606085015201511515910152565b906101206003198301126102df576001600160a01b0360043581811681036102df5760a0909360231901126102df5760249160c4359160e43590811681036102df57906101043580151581036102df5790565b600435906001600160e01b0319821682036102df57565b919082519283825260005b8481106124a9575050826000602080949584010152601f8019910116010190565b602081830181015184830182015201612488565b906101006003198301126102df576004356001600160a01b03811681036102df5760a0909260231901126102df5760249060c4359060e43580151581036102df5790565b6001600160401b03811161218a57601f01601f191660200190565b51906001600160a01b03821682036102df57565b908160a09103126102df5760806040519161254a836121a0565b6125538161251c565b83526125616020820161251c565b60208401526125726040820161251c565b60408401526125836060820161251c565b60608401520151608082015290565b356001600160a01b03811681036102df5790565b156125ad57565b60405162461bcd60e51b81526020600482015260136024820152722ab730baba3437b934bd32b21031b0b63632b960691b6044820152606490fd5b903590601e19813603018212156102df57018035906001600160401b0382116102df576020019181360383136102df57565b6001600160a01b039182168152918116602083015291821660408201529116606082015260800190565b1561264b57565b60405162461bcd60e51b8152602060048201526016602482015275496e76616c6964206f7261636c65206164647265737360501b6044820152606490fd5b1561269057565b60405162461bcd60e51b815260206004820152600d60248201526c496e76616c696420707269636560981b6044820152606490fd5b51906001600160801b03821682036102df57565b908160609103126102df5760405190606082016001600160401b0381118382101761218a5761272291604091825280518452612717602082016126c5565b6020850152016126c5565b604082015290565b9081526001600160a01b03909116602082015260400190565b9190820391821161275057565b634e487b7160e01b600052601160045260246000fd5b60405190612773826121a0565b60006080838281528260208201528260408201528260608201520152565b6080809160018060a01b0380825116855280602083015116602086015280604083015116604086015260608201511660608501520151910152565b9361010093969592966127f461012087019860018060a01b0380951688526020880190612791565b60c08601521660e08401521515910152565b9591909682602091959495810103126102df5760408051632c3c915760e01b815292356004840152906001600160a01b0360a0846024818c85165afa9384156104d857600094612900575b506001600160e01b03198816631a0db1f560e21b81036128b95750806020850151169116036128a9579161289893916128a6969593519788966020880152602487016127cc565b03601f198101835282612242565b90565b5163065a1c4760e31b8152600490fd5b6375f55af160e11b036128ef57808451169116036128a9579161289893916128a6969593519788966020880152602487016127cc565b8251631e8b844160e01b8152600490fd5b61291a91945060a03d60a011610a3f57610a2d8183612242565b9238612851565b61010060c06128a6936020845260018060a01b0380825116602086015280602083015116604086015260408201516060860152806060830151166080860152608082015160a086015260a0820151168285015201519160e080820152019061247d565b90916001600160a01b03918216918215612c795780841615612c67578115612c56576040928351926349e2903160e11b958685526060926004958481806129ce86888c840161272a565b0381855afa908115612c4b57908891600091612c2e575b50015187519889526001600160801b0390811698858180612a0987898d840161272a565b0381865afa958615612c2357600096612c04575b50506020809501511615612bfa57865192632c3c915760e01b84528684015260a083602481845afa928315612bef579184918793600095612bc8575b509084612a6592612cbb565b94878401612a77828251161515612644565b511687519283809263501ad8ff60e11b82525afa908115612bbd57600091612b88575b50806080670de0b6b3a764000093612ab6612abe941515612689565b015190613544565b04938415612b4c5750506a0c097ce7bc90715b34b9f160241b8181029180159083049091141715612b3757600019830191838311612b225750612b0a9291612b05916135b5565b613557565b80821115612b1b576128a691612743565b5050600090565b601190634e487b7160e01b6000525260246000fd5b601182634e487b7160e01b6000525260246000fd5b5162461bcd60e51b81529283015250601860248201527750726963652a4c545620726f756e647320746f207a65726f60401b6044820152606490fd5b90508281813d8311612bb6575b612b9f8183612242565b810103126102df5751670de0b6b3a7640000612a9a565b503d612b95565b86513d6000823e3d90fd5b612a6592919550612be79060a03d60a011610a3f57610a2d8183612242565b949091612a59565b87513d6000823e3d90fd5b5050505050505090565b612c1b929650803d106119ac5761199e8183612242565b933880612a1d565b89513d6000823e3d90fd5b612c459150863d88116119ac5761199e8183612242565b386129e5565b88513d6000823e3d90fd5b60405162320bd360e51b8152600490fd5b604051630702b3d960e41b8152600490fd5b60405163190d7e9360e21b8152600490fd5b3d15612cb6573d90612c9c82612501565b91612caa6040519384612242565b82523d6000602084013e565b606090565b9160a08220926040805194602095868101918252600283820152828152612ce1816121d6565b51902081516001600160a01b0394851687820190815281840192909252828152612d0a816121d6565b519020926001946001850180951161275057825195938290612d2b886121f1565b600188528888019689368937612d40896138f6565b521694835190637784c68560e01b825281600498602497888301918c8c8501525180925260448301939160005b8d82821061320d575050505050806000920381895afa90811561315c57600091613167575b506001600160801b03939291908490612daa906138f6565b51169760c060a08320878651809a8193632e3071cd60e11b83528d8301525afa96871561315c57600097613095575b5091869185936080840192612df18685511642612743565b9081151580613087575b80613078575b612e93575b505050505091606092015116930151169160018101809111612e7f57620f4240830194858411612e6b57620f423f91612e3e91613544565b920192848411612e585750506128a69291612b05916135b5565b601190634e487b7160e01b600052526000fd5b82601186634e487b7160e01b600052526000fd5b50634e487b7160e01b600090815260118452fd5b9091929394955060608401511692612eba875191638c00bf6b60e01b83528c830190612791565b8786511660a482015282816101648160a0848b019a8d8c511660c48401528d8d82019b818d511660e486015281606084015116610104860152511661012484015201978c8951166101448301525afa928315612bef579088969594939291600093613040575b5050918591612f84612f3a869585612f7998511693613544565b91612f7e671bc16d674ec80000612f518580613544565b0493670de0b6b3a764000098856729a2241af62c0000612f72848d99613544565b04926135b5565b6135b5565b90613544565b049282612f9c612f9386613b6e565b82845116613919565b16905281612fb5612fac85613b6e565b828d5116613919565b168a5251169081612fc9575b808994612e06565b612fd592939450613544565b04612fe38185885116612743565b908483511690620f4240820180921161302c576001830180931161302c57613020612f9361301b60609795612b058a98968996613544565b613b6e565b16905291388080612fc1565b8660118a634e487b7160e01b600052526000fd5b8092959497508193503d8311613071575b61305b8183612242565b810103126102df57518694919280612f84612f20565b503d613051565b50806060850151161515612e01565b508688870151161515612dfb565b60c09791939297813d60c011613154575b816130b360c09383612242565b810103126103a45784519160c08301906001600160401b03821184831017613142575060a087959493926131349288526130ec816126c5565b84526130f98682016126c5565b868501526131088882016126c5565b88850152613118606082016126c5565b6060850152613129608082016126c5565b6080850152016126c5565b60a082015296919092612dd9565b634e487b7160e01b815260418b528890fd5b3d91506130a6565b84513d6000823e3d90fd5b903d8082843e6131778184612242565b8201908983830312610cb75782516001600160401b03938482116102db570182601f820112156103a45780519384116131fb578360051b918751946131be8d850187612242565b85528b80860193830101938411610cb757508a809101915b8383106131eb5750612daa9250612d92915050565b82518152918101918b91016131d6565b634e487b7160e01b825260418a528782fd5b8451875295860195879550909301928201612d6d565b600260005414613234576002600055565b604051633ee5aeb560e01b8152600490fd5b6001600160a01b0380821695949193909260008715612c7957821561343857602091828101948686511615613426578616923084146134145761328d8589898951166139eb565b868651169360409a8b519383856024816370a0823160e01b9a8b82523060048301525afa94851561340a5786956133db575b508c516132cb8161220c565b868152823b156102e457916132ff878f9361331c82968d96519889978896879563238d657960e01b87526004870190612791565b60a485015260c484015261010060e484015261010483019061247d565b03925af180156133d1576133be575b5080878751169460248c518097819382523060048301525afa9283156133b35792613381575b5061335c9250612743565b036133705761336e9394505116613932565b565b84516361b7a36960e11b8152600490fd5b90915082813d83116133ac575b6133988183612242565b810103126102df5761335c91519038613351565b503d61338e565b8a51903d90823e3d90fd5b6133ca90939193612177565b913861332b565b8b513d86823e3d90fd5b9094508381813d8311613403575b6133f38183612242565b81010312610742575193386132bf565b503d6133e9565b8d513d88823e3d90fd5b60405163abb37b8f60e01b8152600490fd5b604051630ccd248560e21b8152600490fd5b60405163162908e360e11b8152600490fd5b91908260409103126102df576020825192015190565b929094936101009261347785610120810198612791565b60a0850152600060c08501526001600160a01b0391821660e085015216910152565b9290949360e0926134af85610100810198612791565b60a08501526001600160a01b0391821660c085015216910152565b6040516323b872dd60e01b60208201526001600160a01b03928316602482015292909116604483015260648083019390935291815261336e9161350c826121a0565b613aa3565b6001600160a01b0390818111613525571690565b604490604051906306dfcc6560e41b825260a060048301526024820152fd5b8181029291811591840414171561275057565b8115613561570490565b634e487b7160e01b600052601260045260246000fd5b9091926128a6949361358c8361012095612791565b60a0830152600060c08301526001600160a01b031660e08201526101008101829052019061247d565b9190820180921161275057565b82156134385781516001600160a01b0394908516156134265784811615612c6757816135f58561362694888751166139eb565b6040958680516136048161220c565b600094858252825196879283926320b76e8160e01b84528b8b60048601613577565b0381868587165af19384156136a6578394613682575b5061364a9293945116613932565b6001820180921161366e57501061365e5750565b51634d988ac160e01b8152600490fd5b634e487b7160e01b81526011600452602490fd5b61364a93945061369e90883d8a116104d1576104c28183612242565b50939261363c565b87513d85823e3d90fd5b909392919260009484156134385780516001600160a01b03929083161561342657308386161461341457156138e2576136e885613511565b82825116906e22d473030f116ddee9f6b43ac78ba390813b15611b505791889161372c9383604051809681958294631b63c28b60e11b84528d30906004860161261a565b03925af180156138d7576138c4575b505b61374b8584848451166139eb565b81815116604096875191826370a0823160e01b9182825230600483015281602460209384935afa93841561388b578394613895575b508980519861378e8a61220c565b848a52815163a99aad8960e01b8152998a9182916137b1918e8b60048601613577565b0381868a8c165af197881561388b57839861386b575b5080868651169260248c518095819382523060048301525afa9283156133b357908993929192613838575b50506137fe9192612743565b03613827575161380f929116613932565b036138175750565b516361b7a36960e11b8152600490fd5b85516361b7a36960e11b8152600490fd5b8193508092503d8311613864575b6138508183612242565b810103126102df575186906137fe386137f2565b503d613846565b6138839198508a3d8c116104d1576104c28183612242565b5096386137c7565b8a513d85823e3d90fd5b9080945081813d83116138bd575b6138ad8183612242565b810103126102df57519238613780565b503d6138a3565b6138d090969196612177565b943861373b565b6040513d89823e3d90fd5b6138f1853086858551166134ca565b61373d565b8051156139035760200190565b634e487b7160e01b600052603260045260246000fd5b6001600160801b03918216908216019190821161275057565b60405190602082019263095ea7b360e01b80855260018060a01b03809216918260248601526020600080978160448901526044885261397088612227565b87519082885af1903d875190836139ca575b50505015613992575b5050505050565b6139c09461350c9260405192602084015260248301526044820152604481526139ba81612227565b82613aa3565b388080808061398b565b919250906139e1575083163b15155b388080613982565b60019150146139d9565b60405163095ea7b360e01b60208083018281526001600160a01b03958616602485018190526044808601989098529684529195929491600090613a2d87612227565b86519082875af1903d6000519083613a82575b50505015613a4f575b50505050565b613a799361350c91604051916020830152602482015260006044820152604481526139ba81612227565b38808080613a49565b91925090613a99575082163b15155b388080613a40565b6001915014613a91565b906000602091828151910182855af115613aff576000513d613af657506001600160a01b0381163b155b613ad45750565b604051635274afe760e01b81526001600160a01b039091166004820152602490fd5b60011415613acd565b6040513d6000823e3d90fd5b90613b325750805115613b2057805190602001fd5b60405163d6bda27560e01b8152600490fd5b81511580613b65575b613b43575090565b604051639996b31560e01b81526001600160a01b039091166004820152602490fd5b50803b15613b3b565b6040516001600160801b039190613b84816121f1565b60148152731b585e081d5a5b9d0c4c8e08195e18d95959195960621b6020820152828211613bb157501690565b60405162461bcd60e51b815260206004820152908190613bd590602483019061247d565b0390fdfe2a2e13707d6b40952f0aec05e2811137753b06b56d55208636050ec9ee68dd7b2a2e13707d6b40952f0aec05e2811137753b06b56d55208636050ec9ee68dd7a2a2e13707d6b40952f0aec05e2811137753b06b56d55208636050ec9ee68dd79c9e4fb8bffaf71b56abf2a5032f2ea641e97267f8c0d9bcf66c86998c650d62aa26469706673582212207bdad8068ee3aa42980cbec7ec00c25e051fe87e864002ffc258d710f2e4053964736f6c63430008160033",
  "linkReferences": {},
  "deployedLinkReferences": {}
}