{
  "_format": "hh-sol-artifact-1",
  "contractName": "TermLoanIntentFacet",
  "sourceName": "contracts/facets/TermLoanIntentFacet.sol",
  "abi": [
    {
      "inputs": [
        {
          "internalType": "address",
          "name": "target",
          "type": "address"
        }
      ],
      "name": "AddressEmptyCode",
      "type": "error"
    },
    {
      "inputs": [],
      "name": "AfterMaturity",
      "type": "error"
    },
    {
      "inputs": [],
      "name": "AlreadyInitialized",
      "type": "error"
    },
    {
      "inputs": [
        {
          "internalType": "address",
          "name": "signer",
          "type": "address"
        }
      ],
      "name": "AlreadyPreSigned",
      "type": "error"
    },
    {
      "inputs": [],
      "name": "ECDSAInvalidSignature",
      "type": "error"
    },
    {
      "inputs": [
        {
          "internalType": "uint256",
          "name": "length",
          "type": "uint256"
        }
      ],
      "name": "ECDSAInvalidSignatureLength",
      "type": "error"
    },
    {
      "inputs": [
        {
          "internalType": "bytes32",
          "name": "s",
          "type": "bytes32"
        }
      ],
      "name": "ECDSAInvalidSignatureS",
      "type": "error"
    },
    {
      "inputs": [],
      "name": "FailedCall",
      "type": "error"
    },
    {
      "inputs": [],
      "name": "FeeRecipientAlreadyApproved",
      "type": "error"
    },
    {
      "inputs": [
        {
          "internalType": "uint256",
          "name": "balance",
          "type": "uint256"
        },
        {
          "internalType": "uint256",
          "name": "needed",
          "type": "uint256"
        }
      ],
      "name": "InsufficientBalance",
      "type": "error"
    },
    {
      "inputs": [],
      "name": "InsufficientFundsRetrieved",
      "type": "error"
    },
    {
      "inputs": [
        {
          "internalType": "uint256",
          "name": "capacityRemaining",
          "type": "uint256"
        }
      ],
      "name": "InsufficientRemainingCapacity",
      "type": "error"
    },
    {
      "inputs": [],
      "name": "InvalidCollateralAmountsInput",
      "type": "error"
    },
    {
      "inputs": [],
      "name": "InvalidDiscountRate",
      "type": "error"
    },
    {
      "inputs": [],
      "name": "InvalidFee",
      "type": "error"
    },
    {
      "inputs": [],
      "name": "InvalidFeeRecipient",
      "type": "error"
    },
    {
      "inputs": [],
      "name": "InvalidFillAmount",
      "type": "error"
    },
    {
      "inputs": [],
      "name": "InvalidMinSalt",
      "type": "error"
    },
    {
      "inputs": [],
      "name": "InvalidOfferRate",
      "type": "error"
    },
    {
      "inputs": [],
      "name": "InvalidOrderStatus",
      "type": "error"
    },
    {
      "inputs": [
        {
          "internalType": "string",
          "name": "message",
          "type": "string"
        }
      ],
      "name": "InvalidParameters",
      "type": "error"
    },
    {
      "inputs": [],
      "name": "InvalidPurchaseTokenAmount",
      "type": "error"
    },
    {
      "inputs": [],
      "name": "InvalidRepoId",
      "type": "error"
    },
    {
      "inputs": [],
      "name": "InvalidRetrieveFundsFunction",
      "type": "error"
    },
    {
      "inputs": [],
      "name": "InvalidRetrieveFundsListLength",
      "type": "error"
    },
    {
      "inputs": [
        {
          "internalType": "address",
          "name": "expected",
          "type": "address"
        },
        {
          "internalType": "address",
          "name": "actual",
          "type": "address"
        }
      ],
      "name": "InvalidSender",
      "type": "error"
    },
    {
      "inputs": [],
      "name": "InvalidSignature",
      "type": "error"
    },
    {
      "inputs": [
        {
          "internalType": "address",
          "name": "expected",
          "type": "address"
        },
        {
          "internalType": "address",
          "name": "actual",
          "type": "address"
        }
      ],
      "name": "InvalidTaker",
      "type": "error"
    },
    {
      "inputs": [],
      "name": "InvalidTermController",
      "type": "error"
    },
    {
      "inputs": [],
      "name": "MakerCannotBeTaker",
      "type": "error"
    },
    {
      "inputs": [],
      "name": "OrderCancelled",
      "type": "error"
    },
    {
      "inputs": [],
      "name": "OrderExpired",
      "type": "error"
    },
    {
      "inputs": [],
      "name": "ReentrancyGuardReentrantCall",
      "type": "error"
    },
    {
      "inputs": [],
      "name": "RetrieveFundsNotSpecified",
      "type": "error"
    },
    {
      "inputs": [
        {
          "internalType": "uint8",
          "name": "bits",
          "type": "uint8"
        },
        {
          "internalType": "uint256",
          "name": "value",
          "type": "uint256"
        }
      ],
      "name": "SafeCastOverflowedUintDowncast",
      "type": "error"
    },
    {
      "inputs": [
        {
          "internalType": "address",
          "name": "token",
          "type": "address"
        }
      ],
      "name": "SafeERC20FailedOperation",
      "type": "error"
    },
    {
      "inputs": [],
      "name": "TermControllerAlreadyApproved",
      "type": "error"
    },
    {
      "inputs": [],
      "name": "UnsupportedSelector",
      "type": "error"
    },
    {
      "inputs": [],
      "name": "DOMAIN_SEPARATOR",
      "outputs": [
        {
          "internalType": "bytes32",
          "name": "",
          "type": "bytes32"
        }
      ],
      "stateMutability": "view",
      "type": "function"
    },
    {
      "inputs": [
        {
          "components": [
            {
              "internalType": "address",
              "name": "repoServicer",
              "type": "address"
            },
            {
              "internalType": "uint256",
              "name": "purchaseTokenAmount",
              "type": "uint256"
            },
            {
              "internalType": "uint256[]",
              "name": "collateralAmounts",
              "type": "uint256[]"
            },
            {
              "internalType": "uint256",
              "name": "offerRate",
              "type": "uint256"
            },
            {
              "internalType": "address",
              "name": "maker",
              "type": "address"
            },
            {
              "internalType": "address",
              "name": "taker",
              "type": "address"
            },
            {
              "internalType": "uint256",
              "name": "borrowFee",
              "type": "uint256"
            },
            {
              "internalType": "address",
              "name": "feeRecipient",
              "type": "address"
            },
            {
              "internalType": "uint256",
              "name": "expiry",
              "type": "uint256"
            },
            {
              "internalType": "uint256",
              "name": "salt",
              "type": "uint256"
            },
            {
              "components": [
                {
                  "internalType": "bytes4",
                  "name": "method",
                  "type": "bytes4"
                },
                {
                  "internalType": "address",
                  "name": "target",
                  "type": "address"
                },
                {
                  "internalType": "bytes",
                  "name": "additionalCalldata",
                  "type": "bytes"
                }
              ],
              "internalType": "struct ITermIntent.RetrieveFundsStruct[]",
              "name": "retrieveFundsList",
              "type": "tuple[]"
            }
          ],
          "internalType": "struct ITermIntent.LimitBorrowOrder",
          "name": "order",
          "type": "tuple"
        },
        {
          "components": [
            {
              "internalType": "enum ITermIntent.SignatureType",
              "name": "sigType",
              "type": "uint8"
            },
            {
              "internalType": "bytes",
              "name": "sigData",
              "type": "bytes"
            }
          ],
          "internalType": "struct ITermIntent.Signature",
          "name": "signature",
          "type": "tuple"
        }
      ],
      "name": "cancelLimitBorrow",
      "outputs": [],
      "stateMutability": "nonpayable",
      "type": "function"
    },
    {
      "inputs": [
        {
          "components": [
            {
              "internalType": "address",
              "name": "repoServicer",
              "type": "address"
            },
            {
              "internalType": "uint256",
              "name": "purchaseTokenAmount",
              "type": "uint256"
            },
            {
              "internalType": "uint256",
              "name": "offerRate",
              "type": "uint256"
            },
            {
              "internalType": "address",
              "name": "maker",
              "type": "address"
            },
            {
              "internalType": "address",
              "name": "taker",
              "type": "address"
            },
            {
              "internalType": "uint256",
              "name": "borrowFee",
              "type": "uint256"
            },
            {
              "internalType": "address",
              "name": "feeRecipient",
              "type": "address"
            },
            {
              "internalType": "uint256",
              "name": "expiry",
              "type": "uint256"
            },
            {
              "internalType": "uint256",
              "name": "salt",
              "type": "uint256"
            },
            {
              "components": [
                {
                  "internalType": "bytes4",
                  "name": "method",
                  "type": "bytes4"
                },
                {
                  "internalType": "address",
                  "name": "target",
                  "type": "address"
                },
                {
                  "internalType": "bytes",
                  "name": "additionalCalldata",
                  "type": "bytes"
                }
              ],
              "internalType": "struct ITermIntent.RetrieveFundsStruct",
              "name": "retrieveFunds",
              "type": "tuple"
            }
          ],
          "internalType": "struct ITermIntent.LimitLendOrder",
          "name": "order",
          "type": "tuple"
        },
        {
          "components": [
            {
              "internalType": "enum ITermIntent.SignatureType",
              "name": "sigType",
              "type": "uint8"
            },
            {
              "internalType": "bytes",
              "name": "sigData",
              "type": "bytes"
            }
          ],
          "internalType": "struct ITermIntent.Signature",
          "name": "signature",
          "type": "tuple"
        }
      ],
      "name": "cancelLimitLend",
      "outputs": [],
      "stateMutability": "nonpayable",
      "type": "function"
    },
    {
      "inputs": [
        {
          "components": [
            {
              "internalType": "address",
              "name": "repoServicer",
              "type": "address"
            },
            {
              "internalType": "uint256",
              "name": "purchaseTokenAmount",
              "type": "uint256"
            },
            {
              "internalType": "uint256[]",
              "name": "collateralAmounts",
              "type": "uint256[]"
            },
            {
              "internalType": "uint256",
              "name": "offerRate",
              "type": "uint256"
            },
            {
              "internalType": "address",
              "name": "maker",
              "type": "address"
            },
            {
              "internalType": "address",
              "name": "taker",
              "type": "address"
            },
            {
              "internalType": "uint256",
              "name": "borrowFee",
              "type": "uint256"
            },
            {
              "internalType": "address",
              "name": "feeRecipient",
              "type": "address"
            },
            {
              "internalType": "uint256",
              "name": "expiry",
              "type": "uint256"
            },
            {
              "internalType": "uint256",
              "name": "salt",
              "type": "uint256"
            },
            {
              "components": [
                {
                  "internalType": "bytes4",
                  "name": "method",
                  "type": "bytes4"
                },
                {
                  "internalType": "address",
                  "name": "target",
                  "type": "address"
                },
                {
                  "internalType": "bytes",
                  "name": "additionalCalldata",
                  "type": "bytes"
                }
              ],
              "internalType": "struct ITermIntent.RetrieveFundsStruct[]",
              "name": "retrieveFundsList",
              "type": "tuple[]"
            }
          ],
          "internalType": "struct ITermIntent.LimitBorrowOrder",
          "name": "order",
          "type": "tuple"
        }
      ],
      "name": "getBorrowOrderHash",
      "outputs": [
        {
          "internalType": "bytes32",
          "name": "",
          "type": "bytes32"
        }
      ],
      "stateMutability": "view",
      "type": "function"
    },
    {
      "inputs": [
        {
          "components": [
            {
              "internalType": "address",
              "name": "repoServicer",
              "type": "address"
            },
            {
              "internalType": "uint256",
              "name": "purchaseTokenAmount",
              "type": "uint256"
            },
            {
              "internalType": "uint256",
              "name": "offerRate",
              "type": "uint256"
            },
            {
              "internalType": "address",
              "name": "maker",
              "type": "address"
            },
            {
              "internalType": "address",
              "name": "taker",
              "type": "address"
            },
            {
              "internalType": "uint256",
              "name": "borrowFee",
              "type": "uint256"
            },
            {
              "internalType": "address",
              "name": "feeRecipient",
              "type": "address"
            },
            {
              "internalType": "uint256",
              "name": "expiry",
              "type": "uint256"
            },
            {
              "internalType": "uint256",
              "name": "salt",
              "type": "uint256"
            },
            {
              "components": [
                {
                  "internalType": "bytes4",
                  "name": "method",
                  "type": "bytes4"
                },
                {
                  "internalType": "address",
                  "name": "target",
                  "type": "address"
                },
                {
                  "internalType": "bytes",
                  "name": "additionalCalldata",
                  "type": "bytes"
                }
              ],
              "internalType": "struct ITermIntent.RetrieveFundsStruct",
              "name": "retrieveFunds",
              "type": "tuple"
            }
          ],
          "internalType": "struct ITermIntent.LimitLendOrder",
          "name": "order",
          "type": "tuple"
        }
      ],
      "name": "getLendOrderHash",
      "outputs": [
        {
          "internalType": "bytes32",
          "name": "",
          "type": "bytes32"
        }
      ],
      "stateMutability": "view",
      "type": "function"
    },
    {
      "inputs": [
        {
          "internalType": "address",
          "name": "maker",
          "type": "address"
        },
        {
          "internalType": "contract IERC20",
          "name": "makerToken",
          "type": "address"
        },
        {
          "internalType": "contract IERC20",
          "name": "takerToken",
          "type": "address"
        }
      ],
      "name": "getLimitOrderMakerTokenPairMinSaltValue",
      "outputs": [
        {
          "internalType": "uint256",
          "name": "",
          "type": "uint256"
        }
      ],
      "stateMutability": "view",
      "type": "function"
    },
    {
      "inputs": [
        {
          "internalType": "contract ITermEventEmitter",
          "name": "emitter_",
          "type": "address"
        }
      ],
      "name": "initializeTermIntentFacet",
      "outputs": [],
      "stateMutability": "nonpayable",
      "type": "function"
    },
    {
      "inputs": [
        {
          "internalType": "bytes32",
          "name": "orderHash",
          "type": "bytes32"
        }
      ],
      "name": "revokePreSignedLimitOrderHash",
      "outputs": [],
      "stateMutability": "nonpayable",
      "type": "function"
    },
    {
      "inputs": [
        {
          "internalType": "address",
          "name": "makerToken",
          "type": "address"
        },
        {
          "internalType": "address",
          "name": "takerToken",
          "type": "address"
        },
        {
          "internalType": "uint256",
          "name": "minValidSalt",
          "type": "uint256"
        }
      ],
      "name": "setLimitOrderMakerTokenPairMinSaltValue",
      "outputs": [],
      "stateMutability": "nonpayable",
      "type": "function"
    },
    {
      "inputs": [
        {
          "components": [
            {
              "internalType": "address",
              "name": "repoServicer",
              "type": "address"
            },
            {
              "internalType": "uint256",
              "name": "purchaseTokenAmount",
              "type": "uint256"
            },
            {
              "internalType": "uint256[]",
              "name": "collateralAmounts",
              "type": "uint256[]"
            },
            {
              "internalType": "uint256",
              "name": "offerRate",
              "type": "uint256"
            },
            {
              "internalType": "address",
              "name": "maker",
              "type": "address"
            },
            {
              "internalType": "address",
              "name": "taker",
              "type": "address"
            },
            {
              "internalType": "uint256",
              "name": "borrowFee",
              "type": "uint256"
            },
            {
              "internalType": "address",
              "name": "feeRecipient",
              "type": "address"
            },
            {
              "internalType": "uint256",
              "name": "expiry",
              "type": "uint256"
            },
            {
              "internalType": "uint256",
              "name": "salt",
              "type": "uint256"
            },
            {
              "components": [
                {
                  "internalType": "bytes4",
                  "name": "method",
                  "type": "bytes4"
                },
                {
                  "internalType": "address",
                  "name": "target",
                  "type": "address"
                },
                {
                  "internalType": "bytes",
                  "name": "additionalCalldata",
                  "type": "bytes"
                }
              ],
              "internalType": "struct ITermIntent.RetrieveFundsStruct[]",
              "name": "retrieveFundsList",
              "type": "tuple[]"
            }
          ],
          "internalType": "struct ITermIntent.LimitBorrowOrder",
          "name": "order",
          "type": "tuple"
        }
      ],
      "name": "setPreSignedBorrowOrderHash",
      "outputs": [],
      "stateMutability": "nonpayable",
      "type": "function"
    },
    {
      "inputs": [
        {
          "components": [
            {
              "internalType": "address",
              "name": "repoServicer",
              "type": "address"
            },
            {
              "internalType": "uint256",
              "name": "purchaseTokenAmount",
              "type": "uint256"
            },
            {
              "internalType": "uint256",
              "name": "offerRate",
              "type": "uint256"
            },
            {
              "internalType": "address",
              "name": "maker",
              "type": "address"
            },
            {
              "internalType": "address",
              "name": "taker",
              "type": "address"
            },
            {
              "internalType": "uint256",
              "name": "borrowFee",
              "type": "uint256"
            },
            {
              "internalType": "address",
              "name": "feeRecipient",
              "type": "address"
            },
            {
              "internalType": "uint256",
              "name": "expiry",
              "type": "uint256"
            },
            {
              "internalType": "uint256",
              "name": "salt",
              "type": "uint256"
            },
            {
              "components": [
                {
                  "internalType": "bytes4",
                  "name": "method",
                  "type": "bytes4"
                },
                {
                  "internalType": "address",
                  "name": "target",
                  "type": "address"
                },
                {
                  "internalType": "bytes",
                  "name": "additionalCalldata",
                  "type": "bytes"
                }
              ],
              "internalType": "struct ITermIntent.RetrieveFundsStruct",
              "name": "retrieveFunds",
              "type": "tuple"
            }
          ],
          "internalType": "struct ITermIntent.LimitLendOrder",
          "name": "order",
          "type": "tuple"
        }
      ],
      "name": "setPreSignedLendOrderHash",
      "outputs": [],
      "stateMutability": "nonpayable",
      "type": "function"
    },
    {
      "inputs": [
        {
          "components": [
            {
              "internalType": "address",
              "name": "repoServicer",
              "type": "address"
            },
            {
              "internalType": "uint256",
              "name": "purchaseTokenAmount",
              "type": "uint256"
            },
            {
              "internalType": "uint256[]",
              "name": "collateralAmounts",
              "type": "uint256[]"
            },
            {
              "internalType": "uint256",
              "name": "offerRate",
              "type": "uint256"
            },
            {
              "internalType": "address",
              "name": "maker",
              "type": "address"
            },
            {
              "internalType": "address",
              "name": "taker",
              "type": "address"
            },
            {
              "internalType": "uint256",
              "name": "borrowFee",
              "type": "uint256"
            },
            {
              "internalType": "address",
              "name": "feeRecipient",
              "type": "address"
            },
            {
              "internalType": "uint256",
              "name": "expiry",
              "type": "uint256"
            },
            {
              "internalType": "uint256",
              "name": "salt",
              "type": "uint256"
            },
            {
              "components": [
                {
                  "internalType": "bytes4",
                  "name": "method",
                  "type": "bytes4"
                },
                {
                  "internalType": "address",
                  "name": "target",
                  "type": "address"
                },
                {
                  "internalType": "bytes",
                  "name": "additionalCalldata",
                  "type": "bytes"
                }
              ],
              "internalType": "struct ITermIntent.RetrieveFundsStruct[]",
              "name": "retrieveFundsList",
              "type": "tuple[]"
            }
          ],
          "internalType": "struct ITermIntent.LimitBorrowOrder",
          "name": "order",
          "type": "tuple"
        },
        {
          "internalType": "address",
          "name": "taker",
          "type": "address"
        },
        {
          "internalType": "uint256",
          "name": "fillAmount",
          "type": "uint256"
        },
        {
          "components": [
            {
              "internalType": "enum ITermIntent.SignatureType",
              "name": "sigType",
              "type": "uint8"
            },
            {
              "internalType": "bytes",
              "name": "sigData",
              "type": "bytes"
            }
          ],
          "internalType": "struct ITermIntent.Signature",
          "name": "signature",
          "type": "tuple"
        }
      ],
      "name": "settleLimitBorrow",
      "outputs": [],
      "stateMutability": "nonpayable",
      "type": "function"
    },
    {
      "inputs": [
        {
          "components": [
            {
              "internalType": "address",
              "name": "repoServicer",
              "type": "address"
            },
            {
              "internalType": "uint256",
              "name": "purchaseTokenAmount",
              "type": "uint256"
            },
            {
              "internalType": "uint256[]",
              "name": "collateralAmounts",
              "type": "uint256[]"
            },
            {
              "internalType": "uint256",
              "name": "offerRate",
              "type": "uint256"
            },
            {
              "internalType": "address",
              "name": "maker",
              "type": "address"
            },
            {
              "internalType": "address",
              "name": "taker",
              "type": "address"
            },
            {
              "internalType": "uint256",
              "name": "borrowFee",
              "type": "uint256"
            },
            {
              "internalType": "address",
              "name": "feeRecipient",
              "type": "address"
            },
            {
              "internalType": "uint256",
              "name": "expiry",
              "type": "uint256"
            },
            {
              "internalType": "uint256",
              "name": "salt",
              "type": "uint256"
            },
            {
              "components": [
                {
                  "internalType": "bytes4",
                  "name": "method",
                  "type": "bytes4"
                },
                {
                  "internalType": "address",
                  "name": "target",
                  "type": "address"
                },
                {
                  "internalType": "bytes",
                  "name": "additionalCalldata",
                  "type": "bytes"
                }
              ],
              "internalType": "struct ITermIntent.RetrieveFundsStruct[]",
              "name": "retrieveFundsList",
              "type": "tuple[]"
            }
          ],
          "internalType": "struct ITermIntent.LimitBorrowOrder",
          "name": "order",
          "type": "tuple"
        },
        {
          "internalType": "uint256",
          "name": "fillAmount",
          "type": "uint256"
        },
        {
          "components": [
            {
              "internalType": "enum ITermIntent.SignatureType",
              "name": "sigType",
              "type": "uint8"
            },
            {
              "internalType": "bytes",
              "name": "sigData",
              "type": "bytes"
            }
          ],
          "internalType": "struct ITermIntent.Signature",
          "name": "signature",
          "type": "tuple"
        },
        {
          "internalType": "bool",
          "name": "usePermit2",
          "type": "bool"
        }
      ],
      "name": "settleLimitBorrow",
      "outputs": [],
      "stateMutability": "nonpayable",
      "type": "function"
    },
    {
      "inputs": [
        {
          "components": [
            {
              "internalType": "address",
              "name": "repoServicer",
              "type": "address"
            },
            {
              "internalType": "uint256",
              "name": "purchaseTokenAmount",
              "type": "uint256"
            },
            {
              "internalType": "uint256",
              "name": "offerRate",
              "type": "uint256"
            },
            {
              "internalType": "address",
              "name": "maker",
              "type": "address"
            },
            {
              "internalType": "address",
              "name": "taker",
              "type": "address"
            },
            {
              "internalType": "uint256",
              "name": "borrowFee",
              "type": "uint256"
            },
            {
              "internalType": "address",
              "name": "feeRecipient",
              "type": "address"
            },
            {
              "internalType": "uint256",
              "name": "expiry",
              "type": "uint256"
            },
            {
              "internalType": "uint256",
              "name": "salt",
              "type": "uint256"
            },
            {
              "components": [
                {
                  "internalType": "bytes4",
                  "name": "method",
                  "type": "bytes4"
                },
                {
                  "internalType": "address",
                  "name": "target",
                  "type": "address"
                },
                {
                  "internalType": "bytes",
                  "name": "additionalCalldata",
                  "type": "bytes"
                }
              ],
              "internalType": "struct ITermIntent.RetrieveFundsStruct",
              "name": "retrieveFunds",
              "type": "tuple"
            }
          ],
          "internalType": "struct ITermIntent.LimitLendOrder",
          "name": "order",
          "type": "tuple"
        },
        {
          "internalType": "address",
          "name": "taker",
          "type": "address"
        },
        {
          "internalType": "uint256",
          "name": "fillAmount",
          "type": "uint256"
        },
        {
          "internalType": "uint256[]",
          "name": "collateralAmounts",
          "type": "uint256[]"
        },
        {
          "components": [
            {
              "internalType": "enum ITermIntent.SignatureType",
              "name": "sigType",
              "type": "uint8"
            },
            {
              "internalType": "bytes",
              "name": "sigData",
              "type": "bytes"
            }
          ],
          "internalType": "struct ITermIntent.Signature",
          "name": "signature",
          "type": "tuple"
        }
      ],
      "name": "settleLimitLend",
      "outputs": [],
      "stateMutability": "nonpayable",
      "type": "function"
    },
    {
      "inputs": [
        {
          "components": [
            {
              "internalType": "address",
              "name": "repoServicer",
              "type": "address"
            },
            {
              "internalType": "uint256",
              "name": "purchaseTokenAmount",
              "type": "uint256"
            },
            {
              "internalType": "uint256",
              "name": "offerRate",
              "type": "uint256"
            },
            {
              "internalType": "address",
              "name": "maker",
              "type": "address"
            },
            {
              "internalType": "address",
              "name": "taker",
              "type": "address"
            },
            {
              "internalType": "uint256",
              "name": "borrowFee",
              "type": "uint256"
            },
            {
              "internalType": "address",
              "name": "feeRecipient",
              "type": "address"
            },
            {
              "internalType": "uint256",
              "name": "expiry",
              "type": "uint256"
            },
            {
              "internalType": "uint256",
              "name": "salt",
              "type": "uint256"
            },
            {
              "components": [
                {
                  "internalType": "bytes4",
                  "name": "method",
                  "type": "bytes4"
                },
                {
                  "internalType": "address",
                  "name": "target",
                  "type": "address"
                },
                {
                  "internalType": "bytes",
                  "name": "additionalCalldata",
                  "type": "bytes"
                }
              ],
              "internalType": "struct ITermIntent.RetrieveFundsStruct",
              "name": "retrieveFunds",
              "type": "tuple"
            }
          ],
          "internalType": "struct ITermIntent.LimitLendOrder",
          "name": "order",
          "type": "tuple"
        },
        {
          "internalType": "uint256",
          "name": "fillAmount",
          "type": "uint256"
        },
        {
          "internalType": "uint256[]",
          "name": "collateralAmounts",
          "type": "uint256[]"
        },
        {
          "components": [
            {
              "internalType": "enum ITermIntent.SignatureType",
              "name": "sigType",
              "type": "uint8"
            },
            {
              "internalType": "bytes",
              "name": "sigData",
              "type": "bytes"
            }
          ],
          "internalType": "struct ITermIntent.Signature",
          "name": "signature",
          "type": "tuple"
        },
        {
          "internalType": "bool",
          "name": "usePermit2",
          "type": "bool"
        }
      ],
      "name": "settleLimitLend",
      "outputs": [],
      "stateMutability": "nonpayable",
      "type": "function"
    },
    {
      "inputs": [],
      "name": "version",
      "outputs": [
        {
          "internalType": "string",
          "name": "",
          "type": "string"
        }
      ],
      "stateMutability": "view",
      "type": "function"
    }
  ],
  "bytecode": "0x6080806040523461001c5760016000556158f09081620000228239f35b600080fdfe6102a0604052600436101561001357600080fd5b600061020052610200513560e01c80630b2458ab14613b0d57806319d394f314612f5957806334e92fcf14612e315780633644e51514612e0457806336f01046146123a45780633df51310146117db57806354fd4d50146117a55780635e39e31c146109275780635e3e3415146108ba578063656e97d314610833578063923542e11461060b5780639a2060981461034d578063ac6afc49146101c0578063aee845bc1461019f578063df940eb9146101765763e821b920146100d557600080fd5b3461016f57602036600319011261016f576004356100f1614289565b80610200515260008051602061583b833981519152908160205260018060a01b0360406102005120541633810361014c5750610200805191909152602091909152516040812080546001600160a01b03191690556001815580f35b60405163708986dd60e11b815290819061016b9033906004840161419e565b0390fd5b6102005180fd5b3461016f5760206101976101923661018d3661406d565b613dab565b614684565b604051908152f35b3461016f5760206101976101bb366101b636613f39565b613f6b565b614428565b3461016f57602036600319011261016f576004356001600160a01b0381169081900361016f577f2a2e13707d6b40952f0aec05e2811137753b06b56d55208636050ec9ee68dd78805460ff811661033c57610219614206565b6020815191012060405160208101917f8b73c3c69bb8fe3d512ecc4cf759cc79239f7b179b0ffacaa9a75d522b39400f83527fb4d012db4765e7c0376450bb3498a79c959563245c5709dafed119917cc3f2b7604083015260608201524660808201523060a082015260a0815260c081019181831060018060401b0384111761032657826040528151902060008051602061585b8339815191525584156102ec57505060ff1916600117905560008051602061589b83398151915280546001600160a01b03191690911790556102005180f35b62461bcd60e51b8252602060c4820152601360e48201527224b73b30b634b222bb32b73a22b6b4ba3a32b960691b61010490910152606490fd5b634e487b7160e01b600052604160045260246000fd5b60405162dc149f60e41b8152600490fd5b3461016f5761035b3661406d565b610363614289565b6001600160a01b038061037583614156565b166103886103833685613dab565b614876565b608083019261039684614156565b604051632e54273760e11b8152602093918482600481865afa9182156105de57600493869161020051946105ec575b506040516354ae26b160e11b815294859182905afa9081156105de576104029361020051926105af575b508661012086989798013593169061434d565b61020051916101408201925b6104188484614254565b60ff8316929150821015610486576104308585614254565b9092101561046c5761046161045c610467936104573691611fe08660051b16810190614189565b613d3a565b614396565b5061422d565b61040e565b634e487b7160e01b61020051526032600452602461020051fd5b8286858961049381614156565b843391160361058857506101926104ab913690613dab565b80610200515260008051602061583b8339815191529283835260406102005120541680610570575080610200515260008051602061581b8339815191528252816040610200512060ff6040519161050183613bbf565b546001600160801b038116835260801c1691829161051e836141b8565b0152610529816141b8565b610532816141b8565b61055e57610200805191909152919052516040812080546001600160a01b031916331790556001815580f35b604051632916ae3360e01b8152600490fd5b60249060405190637202ca3760e01b82526004820152fd5b61059461016b91614156565b60405163708986dd60e11b815291829133906004840161419e565b6105d0919250863d88116105d7575b6105c88183613c3e565b81019061416a565b90886103ef565b503d6105be565b6040513d61020051823e3d90fd5b610604919450823d84116105d7576105c88183613c3e565b92896103c5565b3461016f57606036600319011261016f57610624613b7a565b61062c613b95565b9060449081359061063b614289565b6001600160a01b039081169384156107f95781169081156107bf5781851461077a5760001983146107425761066f3361409f565b85610200515260205260406102005120826102005152602052826040610200512054116107305761069f3361409f565b8561020051526020526040610200512082610200515260205282604061020051205560008051602061589b833981519152541692833b1561016f5760405194632e7895fb60e01b86523360048701526024860152840152606483015281608481610200519361020051905af180156105de57610721575b610200516001815580f35b61072a90613bda565b80610716565b6040516354636abb60e11b8152600490fd5b60405163dd23c3ad60e01b815260206004820152601060248201526f125b9d985b1a5908135a5b8814d85b1d60821b81860152606490fd5b60405163dd23c3ad60e01b815260206004820152601f60248201527f4d616b657220616e642054616b657220546f6b656e204964656e746963616c0081860152606490fd5b60405163dd23c3ad60e01b8152602060048201526012602482015271139bc815185ad95c88151bdad95b8814d95d60721b81860152606490fd5b60405163dd23c3ad60e01b8152602060048201526012602482015271139bc813585ad95c88151bdad95b8814d95d60721b81860152606490fd5b3461016f5760031960403682011261016f57600435906001600160401b039081831161016f5761016081843603011261016f5760243591821161016f57604090823603011261016f5761071691610888614289565b6108b26108a760846108a06101923686600401613dab565b9301614156565b923690600401613ef0565b913391614513565b3461016f5760031960403682011261016f57600435906001600160401b039081831161016f5761014081843603011261016f5760243591821161016f57604090823603011261016f576107169161090f614289565b6108b26108a760646108a06101bb3686600401613f6b565b3461016f57608036600319011261016f576001600160401b0360043581811161016f57610958903690600401613dab565b9060443590811161016f57610971903690600401613ef0565b9060643515156064350361016f57610987614289565b6102005190602435156117935760808101516001600160a01b03163314611781576109b181614876565b6109d46109bd82614684565b60808301519094906001600160a01b0316856149b7565b82610200515260008051602061581b8339815191526020526040610200512060ff60405191610a0283613bbf565b546001600160801b038116835260801c16610a1c816141b8565b6020820152610a2a816149e8565b81516080830151604051632e54273760e11b81526001600160a01b039283169290911690602081600481865afa9081156105de576102005191611762575b506040516354ae26b160e11b815291602083600481875afa9081156105de57610aac936102005192611741575b50610120870151926001600160a01b03169061434d565b60a0830151610ac59033906001600160a01b0316614a2e565b6102005190815b610140850151805160ff83161015610b1157610aef610af59160ff8416906142ac565b51614396565b610b08575b610b039061422d565b610acc565b60019250610afa565b5050848660ff610b2c60018060a01b0360e0890151166140d8565b54161561172f5760208601518551610b7491610b54916001600160801b031690602435614a76565b958287610b6f60208b015160018060801b03855116906142d6565b614aa3565b604051630f7a077160e21b815293602085600481875afa9384156105de57600495610200519561170d575b5060209060405196878092632e25a20760e11b82525afa9485156105de5761020051956116ec575b50610200515b6040880151805160ff83161015610c8e57610bec9060ff8316906142ac565b51610c00575b610bfb9061422d565b610bcd565b60405163172c48c760e01b815260ff82166004820152906020826024816001600160a01b038a165afa9182156105de57610bfb92610c68916102005191610c6f575b50610c5460ff841660408d01516142ac565b51906001600160a01b038a81169116614c30565b9050610bf2565b610c88915060203d6020116105d7576105c88183613c3e565b8b610c42565b5050909486939260018060a01b038551169360408601515196610cb088613c61565b97610cbe604051998a613c3e565b808952610ccd601f1991613c61565b013660208a0137610200515b885160ff8216101561105f57610d0e610d0386610cfd60ff851660408d01516142ac565b51614ce5565b60208a015190614cf8565b610d1b60ff83168b6142ac565b5285156110565763ffffffff60e01b610d3c60ff83166101408b01516142ac565b51511615610f7857604051630f7a077160e21b81526020816004818b5afa9081156105de576024916020916102005191610f5b575b5060405163172c48c760e01b815260ff8516600482015292839182906001600160a01b03165afa9081156105de576102005191610f3c575b50610de3610dbf60ff84166101408c01516142ac565b5182610dce60ff86168e6142ac565b5160808d01516001600160a01b0316926151ae565b60808a0151610dfa906001600160a01b03166141d8565b6040516370a0823160e01b8152306004820152906020826024816001600160a01b0387165afa9182156105de576102005192610f07575b50602492610e416020923061561c565b506040516370a0823160e01b815230600482015293849182906001600160a01b03165afa9182156105de576102005192610ed1575b50610e8f90610e8860ff85168d6142ac565b5190614d18565b11610ebf5760008051602061587b83398151915280546001600160a01b0319169055610eba9061422d565b610cd9565b604051630d3f033d60e31b8152600490fd5b9091506020813d602011610eff575b81610eed60209383613c3e565b8101031261016f575190610e8f610e76565b3d9150610ee0565b9091506020813d602011610f34575b81610f2360209383613c3e565b8101031261016f5751906024610e31565b3d9150610f16565b610f55915060203d6020116105d7576105c88183613c3e565b8b610da9565b610f729150823d84116105d7576105c88183613c3e565b8d610d71565b604051630f7a077160e21b8152906020826004818b5afa9182156105de576024926020916102005191611039575b5060405163172c48c760e01b815260ff8416600482015293849182906001600160a01b03165afa9182156105de57610eba9261101591610200519161101a575b5060808b01516001600160a01b03169061100360ff85168e6142ac565b519130916001600160a01b031661516c565b61422d565b611033915060203d6020116105d7576105c88183613c3e565b8d610fe6565b6110509150823d84116105d7576105c88183613c3e565b8d610fa6565b610eba9061422d565b508389878a60208b97988a61109d60018060a01b0360808c0151169160608c01516040519687958695633606358d60e01b8752339060048801614d25565b038161020051865af19081156105de5761020051916116ba575b50608087015160c088015160e0890151610200516040516001600160a01b039283169594919392909116916110eb82613bed565b8152604051633d0f31f760e01b81526020816004818a5afa80156105de576102005190611686575b61111f915042906142d6565b906040519161112d83613bed565b82526040519161113c83613bed565b6301da9c00835260405161114f81613bed565b610200519052519182670de0b6b3a7640000810204670de0b6b3a7640000148315171561166c576111c08a926111956111e895670de0b6b3a76400008095519102614cf8565b90604051916111a383613bed565b82526040516111b181613bed565b61020051905251905190614ce5565b04604051906111ce82613bed565b81526040516111dc81613bed565b61020051905251614ce5565b93846040516111f681613bed565b526040516354ae26b160e11b8152916020836004818a5afa9283156105de57610200519361164b575b50606435156115e75761124461123f670de0b6b3a764000088048b6142d6565b6155e9565b906e22d473030f116ddee9f6b43ac78ba33b1561016f5783611281926040519384928392631b63c28b60e11b84526102005195336004860161505f565b0381610200516e22d473030f116ddee9f6b43ac78ba35af180156105de576115d1575b50670de0b6b3a76400008504611539575b5050505b60018060a01b036080890151169460608901519360018060a01b0360e08b01511660208b0151906101008c0151926101208d015194604051966354ae26b160e11b8852602088600481865afa9788156105de576102005198611518575b5060008051602061589b8339815191525460405163662db72560e11b81526001600160a01b039091169a90602081600481885afa80156105de576102005160a0526114e4575b50602060049460405195868092632e54273760e11b82525afa9384156105de5761020051946114c3575b508a3b1561016f576113d798604051608052636c13656960e01b60805152610200519d6080519d670de0b6b3a76400006080519d049660018060a01b03169183339260a05190600460805101615529565b03906080519061020051905af180156105de576114ac575b835b604084015180519060ff831691821015610716578161140f916142ac565b51611428575b5061142160409161422d565b90506113f1565b60405163172c48c760e01b81526004810191909152906020826024816001600160a01b0388165afa9081156114a15761147b611421926040948991611482575b506001600160a01b038681169116614b72565b9150611415565b61149b915060203d6020116105d7576105c88183613c3e565b89611468565b6040513d88823e3d90fd5b92506114b9608051613bda565b61020051926113ef565b6114dd91945060203d6020116105d7576105c88183613c3e565b9238611386565b6020813d602011611510575b816114fd60209383613c3e565b8101031261016f575160a052602061135c565b3d91506114f0565b61153291985060203d6020116105d7576105c88183613c3e565b9638611316565b61154c670de0b6b3a764000086046155e9565b906e22d473030f116ddee9f6b43ac78ba33b156115cd579083916115856040519485938493631b63c28b60e11b8552336004860161505f565b0381836e22d473030f116ddee9f6b43ac78ba35af180156115c2576115ab575b806112b5565b6115b58291613bda565b6115bf57806115a5565b80fd5b6040513d84823e3d90fd5b8380fd5b6115dc919350613bda565b61020051918c6112a4565b9092506001600160a01b03909116906116169061160e670de0b6b3a764000087048a6142d6565b90338461516c565b670de0b6b3a7640000840461162d575b50506112b9565b61164491670de0b6b3a7640000850491339061516c565b8980611626565b61166591935060203d6020116105d7576105c88183613c3e565b918d61121f565b634e487b7160e01b61020051526011600452602461020051fd5b506020813d6020116116b2575b816116a060209383613c3e565b8101031261016f5761111f9051611113565b3d9150611693565b90506020813d6020116116e4575b816116d560209383613c3e565b8101031261016f5751886110b7565b3d91506116c8565b61170691955060203d6020116105d7576105c88183613c3e565b9387610bc7565b602091955061172890823d84116105d7576105c88183613c3e565b9490610b9f565b604051630ed1b8b360e31b8152600490fd5b61175b91925060203d6020116105d7576105c88183613c3e565b9089610a95565b61177b915060203d6020116105d7576105c88183613c3e565b87610a68565b60405163c3f49bcd60e01b8152600490fd5b60405163251a5d1160e21b8152600490fd5b3461016f576102005136600319011261016f576117d76117c3614206565b604051918291602083526020830190614048565b0390f35b3461016f5760a036600319011261016f576001600160401b0360043581811161016f5761180c903690600401613f6b565b9060443581811161016f57611825903690600401613c78565b9060643590811161016f5761183e903690600401613ef0565b60843515156084350361016f57611853614289565b82516001600160a01b031690602435156117935760608401516001600160a01b03163314611781578251604051630f7a077160e21b8152602081600481875afa9081156105de576004916020916102005191612387575b50604051630c87400960e11b815292839182906001600160a01b03165afa80156105de57610200519061234d575b60ff9150160361233b576118eb846142e3565b61190e6118f785614428565b60608601519092906001600160a01b0316836149b7565b80610200515260008051602061581b833981519152602052604061020051209360ff6040519561193d87613bbf565b546001600160801b038116875260801c16611957816141b8565b6020860152611965856149e8565b60608101516040516354ae26b160e11b81526001600160a01b0390911690602081600481885afa9081156105de57610200519161231c575b50604051632e54273760e11b815291602083600481895afa9182156105de576119e19361020051936122fb575b50610100850151926001600160a01b03169161434d565b60808101516119fa9033906001600160a01b0316614a2e565b611a08610120820151614396565b9060ff611a2060018060a01b0360c0840151166140d8565b54161561172f5760208101518651611a6391611a48916001600160801b031690602435614a76565b968488610b6f602086015160018060801b03855116906142d6565b604051630f7a077160e21b815295602087600481885afa9485156105de5760049761020051966122d9575b5060209060405198898092632e25a20760e11b82525afa9687156105de5761020051976122b8575b5060843580156122ae575b6121f1575b6102005182516001600160a01b03169392919083611fc8575b608435611e44575b906020818993611b1f60018060a01b036060880151169160408801516040519788958695633606358d60e01b87523360048801614d25565b038161020051895af19182156105de576102005192611e0c575b50606083015160a084015160c0850151600496611b6a9390926001600160a01b03928316929091869116338b615320565b9260018060a01b036060820151169260408201519460018060a01b0360c0840151169060208401519261010060e08601519501519560208b6040519b8c80926354ae26b160e11b82525afa998a156105de5760049a610200516101e052611dea575b5060008051602061589b8339815191525460405163662db72560e11b81529a6001600160a01b0390911699906020908c90818f5afa9a8b156105de57610200519b611db3575b50602060049a9b9c6040519b8c8092632e54273760e11b82525afa998a156105de57610200519a611d92575b508a3b1561016f57611c8e986040516101c052636c13656960e01b6101c05152610200519d6101c0519d6101c0519c60018060a01b0316926101e0519233926101e0519160046101c05101615529565b03906101c0519061020051905af180156105de57611d81575b6084358015611d77575b611cc057610200516001815580f35b610200515b82519060ff811691821015611d6a57611cde82856142ac565b51611cf3575b611cee915061422d565b611cc5565b60405163172c48c760e01b815260048101929092526020826024816001600160a01b0387165afa9182156105de57611cee92611d46916102005191611d4b575b506001600160a01b038781169116614b72565b611ce4565b611d64915060203d6020116105d7576105c88183613c3e565b87611d33565b5050505050808080610716565b5061020051611cb1565b611d8d6101c051613bda565b611ca7565b611dac919a5060203d6020116105d7576105c88183613c3e565b9838611c3e565b999a5060208a3d602011611de2575b81611dcf60209383613c3e565b8101031261016f57985199986020611c12565b3d9150611dc2565b611e029060203d6020116105d7576105c88183613c3e565b6101e0528f611bcc565b9391506020843d602011611e3c575b81611e2860209383613c3e565b8101031261016f5792519092611b6a611b39565b3d9150611e1b565b50959693916040959391955195630f7a077160e21b8752602087600481865afa9687156105de576102005197611fa7575b50610200515b895160ff82161015611f9557611e9460ff82168b6142ac565b51611ea8575b611ea39061422d565b611e7b565b611ebe611eb860ff83168c6142ac565b516155e9565b60405163172c48c760e01b815260ff8316600482015291906020836024816001600160a01b038e165afa9283156105de576102005193611f74575b506e22d473030f116ddee9f6b43ac78ba33b1561016f57611f359260405180948192631b63c28b60e11b8352610200519430336004860161505f565b0381610200516e22d473030f116ddee9f6b43ac78ba35af19182156105de57611ea392611f65575b509050611e9a565b611f6e90613bda565b8b611f5d565b611f8e91935060203d6020116105d7576105c88183613c3e565b918c611ef9565b50949796939550919390926001611ae7565b611fc191975060203d6020116105d7576105c88183613c3e565b9589611e75565b6101208301516040516354ae26b160e11b8152906020826004818a5afa80156105de576120109261020051916121d2575b5060608601516001600160a01b03169185906151ae565b6060840151612027906001600160a01b03166141d8565b6040516354ae26b160e11b8152906020826004818a5afa9182156105de5760249260209161020051916121b5575b506040516370a0823160e01b815230600482015293849182906001600160a01b03165afa9182156105de57610200519261217f575b50612095903061561c565b506040516354ae26b160e11b81526020816004818a5afa9081156105de576024916020916102005191612162575b506040516370a0823160e01b815230600482015292839182906001600160a01b03165afa9081156105de578490610200519261212c575b506121059192614d18565b11610ebf5760008051602061587b83398151915280546001600160a01b0319169055611adf565b9150506020813d60201161215a575b8161214860209383613c3e565b8101031261016f5751836121056120fa565b3d915061213b565b6121799150823d84116105d7576105c88183613c3e565b8d6120c3565b9091506020813d6020116121ad575b8161219b60209383613c3e565b8101031261016f57519061209561208a565b3d915061218e565b6121cc9150823d84116105d7576105c88183613c3e565b8d612055565b6121eb915060203d6020116105d7576105c88183613c3e565b8c611ff9565b949593929190610200515b875160ff8216101561229f5761221560ff8216896142ac565b51612229575b6122249061422d565b6121fc565b60405163172c48c760e01b815260ff82166004820152906020826024816001600160a01b038a165afa9182156105de5761222492612279916102005191612280575b50610c5460ff84168c6142ac565b905061221b565b612299915060203d6020116105d7576105c88183613c3e565b8b61226b565b50819293949695909150611ac6565b5061020051611ac1565b6122d291975060203d6020116105d7576105c88183613c3e565b9587611ab6565b60209196506122f490823d84116105d7576105c88183613c3e565b9590611a8e565b61231591935060203d6020116105d7576105c88183613c3e565b91896119ca565b612335915060203d6020116105d7576105c88183613c3e565b8761199d565b604051637d4673af60e11b8152600490fd5b506020813d60201161237f575b8161236760209383613c3e565b8101031261016f5761237a60ff91614505565b6118d8565b3d915061235a565b61239e9150823d84116105d7576105c88183613c3e565b886118aa565b3461016f5760a036600319011261016f576001600160401b0360043581811161016f576123d5903690600401613f6b565b6123dd613b95565b6101a05260643582811161016f576123f9903690600401613c78565b9160843590811161016f57612412903690600401613ef0565b9030331480612dc2575b61242590614111565b61242d614289565b80516001600160a01b0316604435156117935760608201516101a0516001600160a01b03908116911614611781578351604051630f7a077160e21b8152602081600481865afa9081156105de576004916020916102005191612da5575b50604051630c87400960e11b815292839182906001600160a01b03165afa80156105de576102005190612d6b575b60ff9150160361233b576124cb826142e3565b6124ee6124d783614428565b60608401519094906001600160a01b0316856149b7565b82610200515260008051602061581b833981519152602052604061020051209160ff6040519361251d85613bbf565b546001600160801b038116855260801c16612537816141b8565b6020840152612545836149e8565b60608101516040516354ae26b160e11b81526001600160a01b0390911690602081600481875afa9081156105de576102005191612d4c575b50604051632e54273760e11b815291602083600481885afa9182156105de576125c09361020051936122fb5750610100850151926001600160a01b03169161434d565b6101a05160808201516125dc91906001600160a01b0316614a2e565b6125ea610120820151614396565b9060ff61260260018060a01b0360c0840151166140d8565b54161561172f57602081015184516126459161262a916001600160801b031690604435614a76565b948686610b6f602086015160018060801b03855116906142d6565b604051630f7a077160e21b815293602085600481875afa9384156105de576004956102005195612d2a575b5060209060405196878092632e25a20760e11b82525afa9485156105de576102005195612d09575b50610200515b875160ff82161015612721576126b760ff8216896142ac565b516126cb575b6126c69061422d565b61269e565b60405163172c48c760e01b815260ff82166004820152906020826024816001600160a01b038a165afa9182156105de576126c69261271a9161020051916122805750610c5460ff84168c6142ac565b90506126bd565b50828793959660018060a01b0384511691612ae0575b60608401516040808601519051633606358d60e01b81526101a0516001600160a01b03908116600483015290921660248301526044820185905260c06064830152865160c48301819052610200516102205260e4830199919060208901905b806102205110612ac257505060848301526020828060019b600160a4830152038161020051885af19182156105de576102005192612a8c575b50606086015160a087015160c08801516101a05161280094936001600160a01b0392831693928a9291169089615320565b9460018060a01b036060820151166101605260408101519560018060a01b0360c08301511660208301519161010060e085015194015194604051986354ae26b160e11b8a5260208a6004818c5afa998a156105de57610200519a612a68575b5060008051602061589b833981519152546001600160a01b03166101405260405163662db72560e11b8152999a98999860208a6004818e5afa998a156105de57610200519a612a33575b50602060049a9b6040519b8c8092632e54273760e11b82525afa998a156105de57610200519a612a12575b50610140513b1561016f576129269860405161018052636c13656960e01b6101805152610200519c610180519c610180519c60018060a01b031692826101a05192610160519260046101805101615529565b036101805161020051610140515af180156105de57612a01575b61020051835b61295557610200516001815580f35b81519060ff8116918210156129fb5761296e82846142ac565b51612984575b61297e915061422d565b83612946565b60405163172c48c760e01b815260048101929092526020826024816001600160a01b0388165afa9182156105de5761297e926129d79161020051916129dc575b506001600160a01b038881169116614b72565b612974565b6129f5915060203d6020116105d7576105c88183613c3e565b886129c4565b50610716565b612a0d61018051613bda565b612940565b612a2c919a5060203d6020116105d7576105c88183613c3e565b98386128d4565b995060208a3d602011612a60575b81612a4e60209383613c3e565b8101031261016f5798519860206128a9565b3d9150612a41565b6004999a50612a859060203d6020116105d7576105c88183613c3e565b999861285f565b9091506020813d602011612aba575b81612aa860209383613c3e565b8101031261016f5751906128006127cf565b3d9150612a9b565b909a602080918d518152019b01906001610220510161022052612796565b6101208401516040516354ae26b160e11b815290602082600481875afa80156105de57612b28926102005191612cea575b5060608701516001600160a01b03169186906151ae565b6060850151612b3f906001600160a01b03166141d8565b6040516354ae26b160e11b815290602082600481875afa9182156105de576024926020916102005191612ccd575b506040516370a0823160e01b815230600482015293849182906001600160a01b03165afa9182156105de576102005192612c97575b50612bad903061561c565b506040516354ae26b160e11b8152602081600481875afa9081156105de576024916020916102005191612c7a575b506040516370a0823160e01b815230600482015292839182906001600160a01b03165afa9081156105de5785906102005192612c44575b50612c1d9192614d18565b11610ebf5760008051602061587b83398151915280546001600160a01b0319169055612737565b9150506020813d602011612c72575b81612c6060209383613c3e565b8101031261016f575184612c1d612c12565b3d9150612c53565b612c919150823d84116105d7576105c88183613c3e565b8c612bdb565b9091506020813d602011612cc5575b81612cb360209383613c3e565b8101031261016f575190612bad612ba2565b3d9150612ca6565b612ce49150823d84116105d7576105c88183613c3e565b8c612b6d565b612d03915060203d6020116105d7576105c88183613c3e565b8b612b11565b612d2391955060203d6020116105d7576105c88183613c3e565b9387612698565b6020919550612d4590823d84116105d7576105c88183613c3e565b9490612670565b612d65915060203d6020116105d7576105c88183613c3e565b8761257d565b506020813d602011612d9d575b81612d8560209383613c3e565b8101031261016f57612d9860ff91614505565b6124b8565b3d9150612d78565b612dbc9150823d84116105d7576105c88183613c3e565b8861248a565b506000805160206157fb83398151915254612425906001600160a01b039081168015159182612df5575b5050905061241c565b6101a051161490508580612dec565b3461016f576102005136600319011261016f57602060008051602061585b83398151915254604051908152f35b3461016f57612e3f36613f39565b612e47614289565b6001600160a01b039081612e5a82614156565b1690612e6e612e693683613f6b565b6142e3565b60608101612e7b81614156565b6040516354ae26b160e11b8152602094918582600481865afa9182156105de5760049387916102005194612f3a575b50604051632e54273760e11b815294859182905afa9182156105de57612ee4936102005193612f1b575b508761010087013593169161434d565b612ef961045c36610457610120860186614189565b50612f0381614156565b843391160361058857506101bb6104ab913690613f6b565b612f33919350873d89116105d7576105c88183613c3e565b9188612ed4565b612f52919450823d84116105d7576105c88183613c3e565b9289612eaa565b3461016f57608036600319011261016f576001600160401b0360043581811161016f57612f8a903690600401613dab565b90612f93613b95565b6101205260643590811161016f57612faf903690600401613ef0565b9030331480613acb575b612fc290614111565b612fca614289565b610200519060443515611793576080810151610120516001600160a01b0390811691161461178157612ffb81614876565b6130076109bd82614684565b82610200515260008051602061581b8339815191526020526040610200512060ff6040519161303583613bbf565b546001600160801b038116835260801c1661304f816141b8565b602082015261305d816149e8565b81516080830151604051632e54273760e11b81526001600160a01b039283169290911690602081600481865afa9081156105de576102005191613aac575b506040516354ae26b160e11b815291602083600481875afa9081156105de576130de9361020051926117415750610120870151926001600160a01b03169061434d565b6101205160a08401516130fa91906001600160a01b0316614a2e565b6102005190815b610140850151805160ff8316101561314057610aef6131249160ff8416906142ac565b613137575b6131329061422d565b613101565b60019250613129565b5050848660ff61315b60018060a01b0360e0890151166140d8565b54161561172f576020860151855161318391610b54916001600160801b031690604435614a76565b604051630f7a077160e21b815293602085600481875afa9384156105de576004956102005195613a8a575b5060209060405196878092632e25a20760e11b82525afa9485156105de576102005195613a69575b50610200515b6040880151805160ff83161015613269576131fb9060ff8316906142ac565b5161320f575b61320a9061422d565b6131dc565b60405163172c48c760e01b815260ff82166004820152906020826024816001600160a01b038a165afa9182156105de5761320a92613262916102005191610c6f5750610c5460ff841660408d01516142ac565b9050613201565b5050909486939260018060a01b03855116936040860151519661328b88613c61565b97613299604051998a613c3e565b8089526132a8601f1991613c61565b013660208a0137610200515b885160ff821610156135b5576132d8610d0386610cfd60ff851660408d01516142ac565b6132e560ff83168b6142ac565b5285156135ac5763ffffffff60e01b61330660ff83166101408b01516142ac565b5151161561350557604051630f7a077160e21b81526020816004818b5afa9081156105de5760249160209161020051916134e8575b5060405163172c48c760e01b815260ff8516600482015292839182906001600160a01b03165afa9081156105de5761020051916134c9575b50613389610dbf60ff84166101408c01516142ac565b60808a01516133a0906001600160a01b03166141d8565b6040516370a0823160e01b8152306004820152906020826024816001600160a01b0387165afa9182156105de576102005192613494575b506024926133e76020923061561c565b506040516370a0823160e01b815230600482015293849182906001600160a01b03165afa9182156105de57610200519261345e575b5061342e90610e8860ff85168d6142ac565b11610ebf5760008051602061587b83398151915280546001600160a01b03191690556134599061422d565b6132b4565b9091506020813d60201161348c575b8161347a60209383613c3e565b8101031261016f57519061342e61341c565b3d915061346d565b9091506020813d6020116134c1575b816134b060209383613c3e565b8101031261016f57519060246133d7565b3d91506134a3565b6134e2915060203d6020116105d7576105c88183613c3e565b8b613373565b6134ff9150823d84116105d7576105c88183613c3e565b8d61333b565b604051630f7a077160e21b8152906020826004818b5afa9182156105de57602492602091610200519161358f575b5060405163172c48c760e01b815260ff8416600482015293849182906001600160a01b03165afa9182156105de576134599261101591610200519161101a575060808b01516001600160a01b03169061100360ff85168e6142ac565b6135a69150823d84116105d7576105c88183613c3e565b8d613533565b6134599061422d565b508886898660208b97988a6135f660018060a01b0360808c0151169160608c01516040519788958695633606358d60e01b8752610120519060048801614d25565b038161020051875af19182156105de576102005192613a35575b50608087015160c088015160e08901516040516001600160a01b0393841695939091169161363d82613bed565b8152604051633d0f31f760e01b81526020816004818a5afa80156105de576102005190613a01575b613671915042906142d6565b906040519161367f83613bed565b82526040519161368e83613bed565b6301da9c0083526040516136a181613bed565b610200519052519182670de0b6b3a7640000810204670de0b6b3a7640000148315171561166c576111c086926111956136e795670de0b6b3a76400008095519102614cf8565b93846040516136f581613bed565b526040516354ae26b160e11b81526020816004818a5afa80156105de576137469161020051916139e2575b506001600160a01b03169161373f670de0b6b3a76400008804876142d6565b90836156c2565b670de0b6b3a764000085046139c6575b505060018060a01b0360808901511660e05260608801519160018060a01b0360e08a01511660208a0151906101008b0151926101208c015194604051966354ae26b160e11b88526020886004818d5afa9788156105de5761020051986139a5575b5060008051602061589b833981519152546001600160a01b031660c05260405163662db72560e11b81529960208b600481845afa9a8b156105de57610200519b613968575b50906020600494939260405195868092632e54273760e11b82525afa9384156105de576102005194613947575b5060c0513b1561016f576138849860405161010052636c13656960e01b6101005152610200519c610100519c670de0b6b3a7640000610100519d049660018060a01b03169183610120519260e0519260046101005101615529565b03610100516102005160c0515af180156105de5761392f575b835b604084015180519060ff83169182101561071657816138bd916142ac565b516138d6575b506138cf60409161422d565b905061389f565b60405163172c48c760e01b81526004810191909152906020826024816001600160a01b0388165afa9081156114a1576139286138cf92604094899161148257506001600160a01b038681169116614b72565b91506138c3565b925061393d61010051613bda565b610200519261389d565b61396191945060203d6020116105d7576105c88183613c3e565b9238613829565b939291909a506020843d60201161399d575b8161398760209383613c3e565b8101031261016f579251999192909160206137fc565b3d915061397a565b6139bf91985060203d6020116105d7576105c88183613c3e565b968f6137b7565b6139db91670de0b6b3a76400008604916156c2565b8980613756565b6139fb915060203d6020116105d7576105c88183613c3e565b8d613720565b506020813d602011613a2d575b81613a1b60209383613c3e565b8101031261016f576136719051613665565b3d9150613a0e565b9091506020813d602011613a61575b81613a5160209383613c3e565b8101031261016f57519088613610565b3d9150613a44565b613a8391955060203d6020116105d7576105c88183613c3e565b93876131d6565b6020919550613aa590823d84116105d7576105c88183613c3e565b94906131ae565b613ac5915060203d6020116105d7576105c88183613c3e565b8761309b565b506000805160206157fb83398151915254612fc2906001600160a01b039081168015159182613afe575b50509050612fb9565b61012051161490508480613af5565b3461016f57606036600319011261016f57613b26613b7a565b613b2e613b95565b6001600160a01b03604435818116939084900361016f57613b4e9061409f565b911661020051526020526040610200512090610200515260205260206040610200512054604051908152f35b600435906001600160a01b0382168203613b9057565b600080fd5b602435906001600160a01b0382168203613b9057565b35906001600160a01b0382168203613b9057565b604081019081106001600160401b0382111761032657604052565b6001600160401b03811161032657604052565b602081019081106001600160401b0382111761032657604052565b608081019081106001600160401b0382111761032657604052565b60a081019081106001600160401b0382111761032657604052565b601f909101601f19168101906001600160401b0382119082101761032657604052565b6001600160401b0381116103265760051b60200190565b9080601f83011215613b90576020908235613c9281613c61565b93613ca06040519586613c3e565b81855260208086019260051b820101928311613b9057602001905b828210613cc9575050505090565b81358152908301908301613cbb565b6001600160401b03811161032657601f01601f191660200190565b81601f82011215613b9057803590613d0a82613cd8565b92613d186040519485613c3e565b82845260208383010111613b9057816000926020809301838601378301015290565b919091606081840312613b9057604051906001600160401b03906060830182811184821017610326576040528294813563ffffffff60e01b81168103613b90578452613d8860208301613bab565b60208501526040820135928311613b9057604092613da69201613cf3565b910152565b919091610160908181850312613b90576040516001600160401b0392810183811182821017610326576040528094613de283613bab565b825260209081840135828401526040840135858111613b905781613e07918601613c78565b604084015260608401356060840152613e2260808501613bab565b6080840152613e3360a08501613bab565b60a084015260c084013560c0840152613e4e60e08501613bab565b60e084015261010080850135908401526101208085013590840152610140938481013590868211613b90570181601f82011215613b90578035613e9081613c61565b96613e9e6040519889613c3e565b818852848089019260051b84010193808511613b9057858401925b858410613ecb57505050505050500152565b8335838111613b90578791613ee5848480948a0101613d3a565b815201930192613eb9565b9190604083820312613b905760405190613f0982613bbf565b819380356002811015613b905783526020810135916001600160401b038311613b9057602092613da69201613cf3565b60031990602081830112613b9057600435916001600160401b038311613b90578261014092030112613b905760040190565b919091610140908181850312613b9057604051916001600160401b039190830182811184821017610326576040528294613fa482613bab565b84526020820135602085015260408201356040850152613fc660608301613bab565b6060850152613fd760808301613bab565b608085015260a082013560a0850152613ff260c08301613bab565b60c085015260e082013560e085015261010080830135908501526101209283830135908111613b9057613da69201613d3a565b60005b8381106140385750506000910152565b8181015183820152602001614028565b9060209161406181518092818552858086019101614025565b601f01601f1916010190565b60031990602081830112613b9057600435916001600160401b038311613b90578261016092030112613b905760040190565b6001600160a01b031660009081527f2a2e13707d6b40952f0aec05e2811137753b06b56d55208636050ec9ee68dd856020526040902090565b6001600160a01b031660009081527f2a2e13707d6b40952f0aec05e2811137753b06b56d55208636050ec9ee68dd7f6020526040902090565b1561411857565b60405162461bcd60e51b815260206004820152601660248201527510985d18da0818dbdb9d195e1d081c995c5d5a5c995960521b6044820152606490fd5b356001600160a01b0381168103613b905790565b90816020910312613b9057516001600160a01b0381168103613b905790565b903590605e1981360301821215613b90570190565b6001600160a01b0391821681529116602082015260400190565b600411156141c257565b634e487b7160e01b600052602160045260246000fd5b60008051602061587b83398151915280546001600160a01b0319166001600160a01b03909216919091179055565b6040519061421382613bbf565b600b82526a19195d995b1bdc1b595b9d60aa1b6020830152565b60ff1660ff811461423e5760010190565b634e487b7160e01b600052601160045260246000fd5b903590601e1981360301821215613b9057018035906001600160401b038211613b9057602001918160051b36038313613b9057565b60026000541461429a576002600055565b604051633ee5aeb560e01b8152600490fd5b80518210156142c05760209160051b010190565b634e487b7160e01b600052603260045260246000fd5b9190820391821161423e57565b80516142f7906001600160a01b0316614da9565b60208101511561433b5760e0810151421161432957604001511561431757565b604051637d1dd76960e11b8152600490fd5b6040516362b439dd60e11b8152600490fd5b60405163189207bf60e21b8152600490fd5b6143569061409f565b60018060a01b0380921660005260205260406000209116600052602052604060002054101561438157565b6040516001622a81af60e21b03198152600490fd5b516001600160e01b031916806143ac5750600090565b604051906366ffd66360e11b82526004820152602081602481305afa90811561441c576000916143fd575b506001600160a01b0316156143eb57600190565b6040516303e9fdc160e61b8152600490fd5b614416915060203d6020116105d7576105c88183613c3e565b386143d7565b6040513d6000823e3d90fd5b7f52a3e557725e0745de62ca9c2f873223f092b8f8fdb4bbf8f3120216ecedd7a960409160018060a01b0390818151169160208201519185810151918060608301511692816080840151169160a08401519060c0850151169260e08501519561010093848701519861449f61012080990151614fb3565b9a8d519d8e602081019e8f52015260608d015260808c015260a08b015260c08a015260e08901528701528501526101408401526101609081840152825261018082019180831060018060401b038411176103265761450292604052519020615026565b90565b519060ff82168203613b9057565b9092919260009382855260008051602061581b83398151915290816020526040948587206002602060ff89519361454985613bbf565b5460018060801b038116855260801c16920191614565816141b8565b808352614571816141b8565b61457a816141b8565b14908115614666575b50614655576145929085615089565b6001600160a01b0393908482169085168190036146445784831603614629575050828552602052828420805460ff60801b1916600360801b17905560008051602061589b833981519152541690813b156115cd578391602483928551968793849263c6a0df7b60e01b845260048401525af191821561461f5750506146145750565b61461d90613bda565b565b51903d90823e3d90fd5b61016b865192839263708986dd60e11b84526004840161419e565b8651638baa579f60e01b8152600490fd5b8551632916ae3360e01b8152600490fd5b6003915051614674816141b8565b61467d816141b8565b1438614583565b9060018060a01b03918281511691602082015192604083015160405160208101818193602081519391019260005b81811061485d5750506146ce925003601f198101835282613c3e565b5190209360608401519386608082015116968060a0830151169060c08301519060e08401511690610100840151926101406101208601519501519a8b519961472e6147188c613c61565b9b6147266040519d8e613c3e565b808d52613c61565b601f19013660208d013760005b8d5181101561476d57808c8f8261476061475a600196614766946142ac565b51614fb3565b926142ac565b520161473b565b509295989b50929598999093969960405160208101818193602081519391019260005b8181106148445750506147ac925003601f198101835282613c3e565b519020986040519a7fa92b0c41d8931853dfcf7e881934d0e47cebb5e838164ed0473362e6958b70a560208d015260408c015260608b015260808a015260a089015260c088015260e0870152610100860152610120850152610140840152610160830152610180908183015281526101a081019080821060018060401b03831117610326576145029160405260208151910120615026565b8451835260209485019486945090920191600101614790565b84518352602094850194869450909201916001016146b2565b80516001600160a01b03919082169061488e82614da9565b602091828201511561433b57610100820151421161432957606082015115614317576040938483019360048186515194885192838092630f7a077160e21b82525afa9081156149ac5790829160009161498f575b506004885180958193630c87400960e11b8352165afa9081156149845760009161494e575b5060ff9150160361493d57610140015151908161492357505050565b51510361492d5750565b516310f1387360e21b8152600490fd5b8251637d4673af60e11b8152600490fd5b905081813d831161497d575b6149648183613c3e565b81010312613b905761497760ff91614505565b38614907565b503d61495a565b86513d6000823e3d90fd5b6149a69150823d84116105d7576105c88183613c3e565b386148e2565b87513d6000823e3d90fd5b916149c29192615089565b6001600160a01b039182169116036149d657565b604051638baa579f60e01b8152600490fd5b60200180516149f6816141b8565b6149ff816141b8565b15159081614a0f575b5061055e57565b6001915051614a1d816141b8565b614a26816141b8565b141538614a08565b6001600160a01b038181168015159182614a69575b5050614a4d575050565b61016b60405192839263bc8732c560e01b84526004840161419e565b8416141590503880614a43565b91614a80916142d6565b818110614a8b575090565b602490604051906338f6247760e11b82526004820152fd5b909291908303614b4b57600260208301525b6001600160801b0392838111614b2c578316838351160183811161423e578316825260005260008051602061581b83398151915260205260406000209181511660208354920151614b05816141b8565b614b0e816141b8565b6001600160881b03199092161760809190911b60ff60801b16179055565b604490604051906306dfcc6560e41b8252608060048301526024820152fd5b60016020830152614ab5565b6001600160a01b039091168152602081019190915260400190565b60405190602082019263095ea7b360e01b80855260018060a01b038092169182602486015260206000809781604489015260448852614bb088613c08565b87519082885af1903d87519083614c0f575b50505015614bd2575b5050505050565b614c0594614c00926040519260208401526024830152604482015260448152614bfa81613c08565b82615110565b615110565b3880808080614bcb565b91925090614c26575083163b15155b388080614bc2565b6001915014614c1e565b6040519160206000818501614c6686614c5863095ea7b360e01b998a85528760248401614b57565b03601f198101885287613c3e565b85519082865af16000513d82614cc0575b505015614c85575b50505050565b614cb793614c009160405191602083015260018060a01b031660248201526000604482015260448152614bfa81613c08565b38808080614c7f565b909150614cdd57506001600160a01b0382163b15155b3880614c77565b600114614cd6565b8181029291811591840414171561423e57565b8115614d02570490565b634e487b7160e01b600052601260045260246000fd5b9190820180921161423e57565b949695939260c086019160018060a01b038091168752602093166020870152604086015260c060608601528251809152602060e0860193019160005b828110614d7d57505050509060a0919460808401521515910152565b835185529381019392810192600101614d61565b90816020910312613b9057518015158103613b905790565b604080516325c3ed4760e01b81526004926020916001600160a01b03918216919083818781865afa908115614f5e57600091614f79575b5016806000527f2a2e13707d6b40952f0aec05e2811137753b06b56d55208636050ec9ee68dd7d835260ff84600020541615614f6957835163e7e4b8db60e01b81528581018390528381602481855afa908115614f5e57908491600091614f41575b50159182614ed6575b5050614ec757818491845192838092633d0f31f760e01b82525afa918215614ebc57600092614e8e575b50504211614e81575050565b516304ff30ef60e21b8152fd5b90809250813d8311614eb5575b614ea58183613c3e565b81010312613b9057513880614e75565b503d614e9b565b83513d6000823e3d90fd5b505051633e69d7d560e21b8152fd5b602492508551928380926319afa63b60e11b8252868a8301525afa908115614f3657600091614f09575b50158238614e4b565b614f299150833d8511614f2f575b614f218183613c3e565b810190614d91565b38614f00565b503d614f17565b84513d6000823e3d90fd5b614f589150823d8411614f2f57614f218183613c3e565b38614e42565b85513d6000823e3d90fd5b50505051638ebd687760e01b8152fd5b8481813d8311614fac575b614f8e8183613c3e565b81010312614fa857519082821682036115bf575038614de0565b5080fd5b503d614f84565b63ffffffff60e01b81511690604060018060a01b03602083015116910151602081519101206040519160208301937f256d2844f30b75f89e6ec9418f35732e254268f054ce2b9f508642c924b76a8a85526040840152606083015260808201526080815261502081613c23565b51902090565b60008051602061585b833981519152549060405190602082019261190160f01b8452602283015260428201526042815261502081613c08565b6001600160a01b039182168152918116602083015291821660408201529116606082015260800190565b90805160028110156141c2576150d75760200151606081805181010312613b905761450291816150be60206150ce9401614505565b60606040830151920151926156e9565b9092919261576f565b5160028110156141c2576001036149d657600090815260008051602061583b83398151915260205260409020546001600160a01b031690565b906000602091828151910182855af11561441c576000513d61516357506001600160a01b0381163b155b6151415750565b604051635274afe760e01b81526001600160a01b039091166004820152602490fd5b6001141561513a565b6040516323b872dd60e01b60208201526001600160a01b03928316602482015292909116604483015260648083019390935291815261461d91614c0082613c23565b8051604080516366ffd66360e11b81526001600160e01b03199283166004820152909560209593949293919291908684602481305afa938415615315579287928992615282989796956000966152e8575b508751858901519885015194516343b7c86160e11b9681019690965290961660248501526001600160a01b0396871660448501528616606484015294909316608482015260a4810193909352600060c484015260e060e48401529061527d90839061526f90610104830190614048565b03601f198101845283613c3e565b61561c565b9182518301928281818601950312613b905780830151906001600160401b038211613b90570183603f82011215613b905782810151916152c183613cd8565b946152ce82519687613c3e565b838652818484010111613b90576145029385019101614025565b61527d96509061530a61526f95949392873d89116105d7576105c88183613c3e565b9650909192936151ff565b88513d6000823e3d90fd5b9195909294939560409182519761533689613bed565b88528251633d0f31f760e01b81526001600160a01b03948516989060209081816004818e5afa8015614984576000906154fa575b615376915042906142d6565b85519061538282613bed565b815285519061539082613bed565b6301da9c008252600087516153a481613bed565b5251670de0b6b3a7640000908181029080820483149015171561423e578b826153ff6004976153d96154229589985190614cf8565b908c51916153e683613bed565b825260008d516153f581613bed565b5251905190614ce5565b0489519061540c82613bed565b815260008a5161541b81613bed565b5251614ce5565b80885161542e81613bed565b52049a8651938480926354ae26b160e11b82525afa9485156154f0575091899796949291889694926000946154d1575b5050156154995750169461547c92615475916142d6565b90856156c2565b81615488575b50505090565b615491926156c2565b388181615482565b936154b293926154aa9216976142d6565b90838761516c565b826154bf575b5050505090565b6154c89361516c565b388181806154b8565b6154e8929450803d106105d7576105c88183613c3e565b91388061545e565b513d6000823e3d90fd5b508181813d8311615522575b6155108183613c3e565b81010312613b9057615376905161536a565b503d615506565b9f9e919f9b9a99989796949b959293956102805261026052610240526101e061028051019d610260516102805152602061028051015260018060a01b03809a8180968180961660406102805101521660606102805101521660806102805101521660a06102805101521660c061028051015260e0610280510152610100610280510152610120610280510152610140610280510152166101606102805101526101806102805101526101a0610280510152610240516101c0610280510152565b6001600160a01b03908181116155fd571690565b604490604051906306dfcc6560e41b825260a060048301526024820152fd5b6000806145029360208151910182855af13d1561565b573d9161563e83613cd8565b9261564c6040519485613c3e565b83523d6000602085013e61565f565b6060915b90615686575080511561567457805190602001fd5b60405163d6bda27560e01b8152600490fd5b815115806156b9575b615697575090565b604051639996b31560e01b81526001600160a01b039091166004820152602490fd5b50803b1561568f565b614c0061461d939261526f60405194859263a9059cbb60e01b602085015260248401614b57565b91906fa2a8918ca85bafe22016d0b997e4df60600160ff1b03841161576357926020929160ff608095604051948552168484015260408301526060820152600092839182805260015afa156157575780516001600160a01b0381161561574e57918190565b50809160019190565b604051903d90823e3d90fd5b50505060009160039190565b615778816141b8565b80615781575050565b61578a816141b8565b600181036157a45760405163f645eedf60e01b8152600490fd5b6157ad816141b8565b600281036157ce5760405163fce698f760e01b815260048101839052602490fd5b806157da6003926141b8565b146157e25750565b602490604051906335e2f38360e21b82526004820152fdfe2a2e13707d6b40952f0aec05e2811137753b06b56d55208636050ec9ee68dd7b2a2e13707d6b40952f0aec05e2811137753b06b56d55208636050ec9ee68dd812a2e13707d6b40952f0aec05e2811137753b06b56d55208636050ec9ee68dd822a2e13707d6b40952f0aec05e2811137753b06b56d55208636050ec9ee68dd7c2a2e13707d6b40952f0aec05e2811137753b06b56d55208636050ec9ee68dd792a2e13707d6b40952f0aec05e2811137753b06b56d55208636050ec9ee68dd80a26469706673582212202a6ea5b1f4153a0df358a8f6a9001603779116cc33943704f16498c1e3e3202364736f6c63430008160033",
  "linkReferences": {},
  "deployedLinkReferences": {}
}