{
  "_format": "hh-sol-artifact-1",
  "contractName": "TestMockAavePoolDataProvider",
  "sourceName": "contracts/test/TestMockAavePoolDataProvider.sol",
  "abi": [
    {
      "inputs": [
        {
          "internalType": "address",
          "name": "asset",
          "type": "address"
        }
      ],
      "name": "getReserveTokensAddresses",
      "outputs": [
        {
          "internalType": "address",
          "name": "aTokenAddress",
          "type": "address"
        },
        {
          "internalType": "address",
          "name": "stableDebtTokenAddress",
          "type": "address"
        },
        {
          "internalType": "address",
          "name": "variableDebtTokenAddress",
          "type": "address"
        }
      ],
      "stateMutability": "view",
      "type": "function"
    },
    {
      "inputs": [
        {
          "internalType": "address",
          "name": "asset",
          "type": "address"
        },
        {
          "internalType": "address",
          "name": "aToken",
          "type": "address"
        },
        {
          "internalType": "address",
          "name": "stableDebt",
          "type": "address"
        },
        {
          "internalType": "address",
          "name": "varDebt",
          "type": "address"
        }
      ],
      "name": "setReserveTokensAddresses",
      "outputs": [],
      "stateMutability": "nonpayable",
      "type": "function"
    }
  ],
  "bytecode": "0x60808060405234610016576101db908161001c8239f35b600080fdfe604060808152600436101561001357600080fd5b600090813560e01c80636c6f982c146100a35763d2493b6c1461003557600080fd5b3461009f57602036600319011261009f576060916001600160a01b0391908190819084610060610155565b1681528060205220610070610170565b848254169485825260028160018501541693846020850152015416938491015281519384526020840152820152f35b5080fd5b503461009f57608036600319011261009f576100bd610155565b906001600160a01b036024358181169290839003610151576044359282841680940361014d5760643594838616809603610149576002928480926100ff610170565b948552602085019788528285019889521688528760205287209151169360018060a01b03199485835416178255836001830191511685825416179055019251169082541617905580f35b8680fd5b8580fd5b8480fd5b600435906001600160a01b038216820361016b57565b600080fd5b60405190606082016001600160401b0381118382101761018f57604052565b634e487b7160e01b600052604160045260246000fdfea264697066735822122021e74a7f384db71b5618a80de8ca77aa88d421f28557652316a1b818169f4ec964736f6c63430008160033",
  "linkReferences": {},
  "deployedLinkReferences": {}
}