{
  "_format": "hh-sol-artifact-1",
  "contractName": "TermRepoCollateralManager",
  "sourceName": "contracts/TermRepoCollateralManager.sol",
  "abi": [
    {
      "inputs": [],
      "stateMutability": "nonpayable",
      "type": "constructor"
    },
    {
      "inputs": [],
      "name": "AlreadyTermContractPaired",
      "type": "error"
    },
    {
      "inputs": [],
      "name": "BorrowerNotInShortfall",
      "type": "error"
    },
    {
      "inputs": [],
      "name": "CallerNotBorrower",
      "type": "error"
    },
    {
      "inputs": [
        {
          "internalType": "address",
          "name": "borrower",
          "type": "address"
        },
        {
          "internalType": "address",
          "name": "token",
          "type": "address"
        }
      ],
      "name": "CollateralBelowMaintenanceRatios",
      "type": "error"
    },
    {
      "inputs": [],
      "name": "CollateralDepositClosed",
      "type": "error"
    },
    {
      "inputs": [
        {
          "internalType": "address",
          "name": "token",
          "type": "address"
        }
      ],
      "name": "CollateralTokenNotAllowed",
      "type": "error"
    },
    {
      "inputs": [],
      "name": "CollateralWithdrawalClosed",
      "type": "error"
    },
    {
      "inputs": [],
      "name": "DefaultsClosed",
      "type": "error"
    },
    {
      "inputs": [],
      "name": "ExceedsNetExposureCapOnLiquidation",
      "type": "error"
    },
    {
      "inputs": [
        {
          "internalType": "address",
          "name": "collateralToken",
          "type": "address"
        }
      ],
      "name": "InsufficientCollateralForLiquidationRepayment",
      "type": "error"
    },
    {
      "inputs": [],
      "name": "InsufficientCollateralForRedemption",
      "type": "error"
    },
    {
      "inputs": [
        {
          "internalType": "string",
          "name": "message",
          "type": "string"
        }
      ],
      "name": "InvalidParameters",
      "type": "error"
    },
    {
      "inputs": [],
      "name": "LiquidationsPaused",
      "type": "error"
    },
    {
      "inputs": [],
      "name": "RepaymentAmountLargerThanAllowed",
      "type": "error"
    },
    {
      "inputs": [],
      "name": "SelfLiquidationNotPermitted",
      "type": "error"
    },
    {
      "inputs": [],
      "name": "ShortfallLiquidationsClosed",
      "type": "error"
    },
    {
      "inputs": [],
      "name": "TermRepurchaseWindowOpen",
      "type": "error"
    },
    {
      "inputs": [],
      "name": "TotalRepaymentGreaterThangetBorrowerRepurchaseObligation",
      "type": "error"
    },
    {
      "inputs": [],
      "name": "UnlockAmountGreaterThanCollateralBalance",
      "type": "error"
    },
    {
      "inputs": [],
      "name": "ZeroAddressContractPaired",
      "type": "error"
    },
    {
      "inputs": [],
      "name": "ZeroBorrowerRepurchaseObligation",
      "type": "error"
    },
    {
      "inputs": [],
      "name": "ZeroCollateralBalance",
      "type": "error"
    },
    {
      "inputs": [],
      "name": "ZeroLiquidationNotPermitted",
      "type": "error"
    },
    {
      "anonymous": false,
      "inputs": [
        {
          "indexed": false,
          "internalType": "address",
          "name": "previousAdmin",
          "type": "address"
        },
        {
          "indexed": false,
          "internalType": "address",
          "name": "newAdmin",
          "type": "address"
        }
      ],
      "name": "AdminChanged",
      "type": "event"
    },
    {
      "anonymous": false,
      "inputs": [
        {
          "indexed": true,
          "internalType": "address",
          "name": "beacon",
          "type": "address"
        }
      ],
      "name": "BeaconUpgraded",
      "type": "event"
    },
    {
      "anonymous": false,
      "inputs": [
        {
          "indexed": false,
          "internalType": "uint8",
          "name": "version",
          "type": "uint8"
        }
      ],
      "name": "Initialized",
      "type": "event"
    },
    {
      "anonymous": false,
      "inputs": [
        {
          "indexed": true,
          "internalType": "bytes32",
          "name": "role",
          "type": "bytes32"
        },
        {
          "indexed": true,
          "internalType": "bytes32",
          "name": "previousAdminRole",
          "type": "bytes32"
        },
        {
          "indexed": true,
          "internalType": "bytes32",
          "name": "newAdminRole",
          "type": "bytes32"
        }
      ],
      "name": "RoleAdminChanged",
      "type": "event"
    },
    {
      "anonymous": false,
      "inputs": [
        {
          "indexed": true,
          "internalType": "bytes32",
          "name": "role",
          "type": "bytes32"
        },
        {
          "indexed": true,
          "internalType": "address",
          "name": "account",
          "type": "address"
        },
        {
          "indexed": true,
          "internalType": "address",
          "name": "sender",
          "type": "address"
        }
      ],
      "name": "RoleGranted",
      "type": "event"
    },
    {
      "anonymous": false,
      "inputs": [
        {
          "indexed": true,
          "internalType": "bytes32",
          "name": "role",
          "type": "bytes32"
        },
        {
          "indexed": true,
          "internalType": "address",
          "name": "account",
          "type": "address"
        },
        {
          "indexed": true,
          "internalType": "address",
          "name": "sender",
          "type": "address"
        }
      ],
      "name": "RoleRevoked",
      "type": "event"
    },
    {
      "anonymous": false,
      "inputs": [
        {
          "indexed": true,
          "internalType": "address",
          "name": "implementation",
          "type": "address"
        }
      ],
      "name": "Upgraded",
      "type": "event"
    },
    {
      "inputs": [],
      "name": "ADMIN_ROLE",
      "outputs": [
        {
          "internalType": "bytes32",
          "name": "",
          "type": "bytes32"
        }
      ],
      "stateMutability": "view",
      "type": "function"
    },
    {
      "inputs": [],
      "name": "AUCTION_LOCKER",
      "outputs": [
        {
          "internalType": "bytes32",
          "name": "",
          "type": "bytes32"
        }
      ],
      "stateMutability": "view",
      "type": "function"
    },
    {
      "inputs": [],
      "name": "DEFAULT_ADMIN_ROLE",
      "outputs": [
        {
          "internalType": "bytes32",
          "name": "",
          "type": "bytes32"
        }
      ],
      "stateMutability": "view",
      "type": "function"
    },
    {
      "inputs": [],
      "name": "DEVOPS_ROLE",
      "outputs": [
        {
          "internalType": "bytes32",
          "name": "",
          "type": "bytes32"
        }
      ],
      "stateMutability": "view",
      "type": "function"
    },
    {
      "inputs": [],
      "name": "INITIALIZER_ROLE",
      "outputs": [
        {
          "internalType": "bytes32",
          "name": "",
          "type": "bytes32"
        }
      ],
      "stateMutability": "view",
      "type": "function"
    },
    {
      "inputs": [],
      "name": "ROLLOVER_MANAGER",
      "outputs": [
        {
          "internalType": "bytes32",
          "name": "",
          "type": "bytes32"
        }
      ],
      "stateMutability": "view",
      "type": "function"
    },
    {
      "inputs": [],
      "name": "ROLLOVER_TARGET_AUCTIONEER_ROLE",
      "outputs": [
        {
          "internalType": "bytes32",
          "name": "",
          "type": "bytes32"
        }
      ],
      "stateMutability": "view",
      "type": "function"
    },
    {
      "inputs": [],
      "name": "SERVICER_ROLE",
      "outputs": [
        {
          "internalType": "bytes32",
          "name": "",
          "type": "bytes32"
        }
      ],
      "stateMutability": "view",
      "type": "function"
    },
    {
      "inputs": [
        {
          "internalType": "address",
          "name": "borrower",
          "type": "address"
        },
        {
          "internalType": "address",
          "name": "collateralToken",
          "type": "address"
        },
        {
          "internalType": "uint256",
          "name": "amount",
          "type": "uint256"
        }
      ],
      "name": "acceptRolloverCollateral",
      "outputs": [],
      "stateMutability": "nonpayable",
      "type": "function"
    },
    {
      "inputs": [
        {
          "internalType": "address",
          "name": "rolloverAuction",
          "type": "address"
        }
      ],
      "name": "approveRolloverAuction",
      "outputs": [],
      "stateMutability": "nonpayable",
      "type": "function"
    },
    {
      "inputs": [
        {
          "internalType": "address",
          "name": "bidder",
          "type": "address"
        },
        {
          "internalType": "address",
          "name": "collateralToken",
          "type": "address"
        },
        {
          "internalType": "uint256",
          "name": "amount",
          "type": "uint256"
        }
      ],
      "name": "auctionLockCollateral",
      "outputs": [],
      "stateMutability": "nonpayable",
      "type": "function"
    },
    {
      "inputs": [
        {
          "internalType": "address",
          "name": "bidder",
          "type": "address"
        },
        {
          "internalType": "address",
          "name": "collateralToken",
          "type": "address"
        },
        {
          "internalType": "uint256",
          "name": "amount",
          "type": "uint256"
        }
      ],
      "name": "auctionUnlockCollateral",
      "outputs": [],
      "stateMutability": "nonpayable",
      "type": "function"
    },
    {
      "inputs": [
        {
          "internalType": "address",
          "name": "borrower",
          "type": "address"
        },
        {
          "internalType": "uint256[]",
          "name": "closureAmounts",
          "type": "uint256[]"
        }
      ],
      "name": "batchDefault",
      "outputs": [],
      "stateMutability": "nonpayable",
      "type": "function"
    },
    {
      "inputs": [
        {
          "internalType": "address",
          "name": "borrower",
          "type": "address"
        },
        {
          "internalType": "uint256[]",
          "name": "closureAmounts",
          "type": "uint256[]"
        }
      ],
      "name": "batchLiquidation",
      "outputs": [],
      "stateMutability": "nonpayable",
      "type": "function"
    },
    {
      "inputs": [
        {
          "internalType": "address",
          "name": "borrower",
          "type": "address"
        },
        {
          "internalType": "uint256[]",
          "name": "closureRepoTokenAmounts",
          "type": "uint256[]"
        }
      ],
      "name": "batchLiquidationWithRepoToken",
      "outputs": [],
      "stateMutability": "nonpayable",
      "type": "function"
    },
    {
      "inputs": [
        {
          "internalType": "address",
          "name": "collateralToken",
          "type": "address"
        },
        {
          "internalType": "uint256",
          "name": "amountToLock",
          "type": "uint256"
        }
      ],
      "name": "calculateMintableExposure",
      "outputs": [
        {
          "components": [
            {
              "internalType": "uint256",
              "name": "mantissa",
              "type": "uint256"
            }
          ],
          "internalType": "struct ExponentialNoError.Exp",
          "name": "",
          "type": "tuple"
        }
      ],
      "stateMutability": "view",
      "type": "function"
    },
    {
      "inputs": [
        {
          "internalType": "uint256",
          "name": "",
          "type": "uint256"
        }
      ],
      "name": "collateralTokens",
      "outputs": [
        {
          "internalType": "address",
          "name": "",
          "type": "address"
        }
      ],
      "stateMutability": "view",
      "type": "function"
    },
    {
      "inputs": [],
      "name": "deMinimisMarginThreshold",
      "outputs": [
        {
          "internalType": "uint256",
          "name": "",
          "type": "uint256"
        }
      ],
      "stateMutability": "view",
      "type": "function"
    },
    {
      "inputs": [],
      "name": "encumberedCollateralRemaining",
      "outputs": [
        {
          "internalType": "bool",
          "name": "",
          "type": "bool"
        }
      ],
      "stateMutability": "view",
      "type": "function"
    },
    {
      "inputs": [
        {
          "internalType": "address",
          "name": "collateralToken",
          "type": "address"
        },
        {
          "internalType": "uint256",
          "name": "amount",
          "type": "uint256"
        }
      ],
      "name": "externalLockCollateral",
      "outputs": [],
      "stateMutability": "nonpayable",
      "type": "function"
    },
    {
      "inputs": [
        {
          "internalType": "address",
          "name": "collateralToken",
          "type": "address"
        },
        {
          "internalType": "uint256",
          "name": "amount",
          "type": "uint256"
        }
      ],
      "name": "externalUnlockCollateral",
      "outputs": [],
      "stateMutability": "nonpayable",
      "type": "function"
    },
    {
      "inputs": [
        {
          "internalType": "address",
          "name": "borrower",
          "type": "address"
        },
        {
          "internalType": "address",
          "name": "collateralToken",
          "type": "address"
        }
      ],
      "name": "getCollateralBalance",
      "outputs": [
        {
          "internalType": "uint256",
          "name": "",
          "type": "uint256"
        }
      ],
      "stateMutability": "view",
      "type": "function"
    },
    {
      "inputs": [
        {
          "internalType": "address",
          "name": "borrower",
          "type": "address"
        }
      ],
      "name": "getCollateralBalances",
      "outputs": [
        {
          "internalType": "address[]",
          "name": "",
          "type": "address[]"
        },
        {
          "internalType": "uint256[]",
          "name": "",
          "type": "uint256[]"
        }
      ],
      "stateMutability": "view",
      "type": "function"
    },
    {
      "inputs": [
        {
          "internalType": "address",
          "name": "borrower",
          "type": "address"
        }
      ],
      "name": "getCollateralMarketValue",
      "outputs": [
        {
          "internalType": "uint256",
          "name": "",
          "type": "uint256"
        }
      ],
      "stateMutability": "view",
      "type": "function"
    },
    {
      "inputs": [
        {
          "internalType": "bytes32",
          "name": "role",
          "type": "bytes32"
        }
      ],
      "name": "getRoleAdmin",
      "outputs": [
        {
          "internalType": "bytes32",
          "name": "",
          "type": "bytes32"
        }
      ],
      "stateMutability": "view",
      "type": "function"
    },
    {
      "inputs": [
        {
          "internalType": "bytes32",
          "name": "role",
          "type": "bytes32"
        },
        {
          "internalType": "address",
          "name": "account",
          "type": "address"
        }
      ],
      "name": "grantRole",
      "outputs": [],
      "stateMutability": "nonpayable",
      "type": "function"
    },
    {
      "inputs": [
        {
          "internalType": "bytes32",
          "name": "role",
          "type": "bytes32"
        },
        {
          "internalType": "address",
          "name": "account",
          "type": "address"
        }
      ],
      "name": "hasRole",
      "outputs": [
        {
          "internalType": "bool",
          "name": "",
          "type": "bool"
        }
      ],
      "stateMutability": "view",
      "type": "function"
    },
    {
      "inputs": [
        {
          "internalType": "address",
          "name": "",
          "type": "address"
        }
      ],
      "name": "initialCollateralRatios",
      "outputs": [
        {
          "internalType": "uint256",
          "name": "",
          "type": "uint256"
        }
      ],
      "stateMutability": "view",
      "type": "function"
    },
    {
      "inputs": [
        {
          "internalType": "string",
          "name": "termRepoId_",
          "type": "string"
        },
        {
          "internalType": "uint256",
          "name": "liquidateDamangesDueToProtocol_",
          "type": "uint256"
        },
        {
          "internalType": "uint256",
          "name": "netExposureCapOnLiquidation_",
          "type": "uint256"
        },
        {
          "internalType": "uint256",
          "name": "deMinimisMarginThreshold_",
          "type": "uint256"
        },
        {
          "internalType": "address",
          "name": "purchaseToken_",
          "type": "address"
        },
        {
          "components": [
            {
              "internalType": "address",
              "name": "tokenAddress",
              "type": "address"
            },
            {
              "internalType": "uint256",
              "name": "initialCollateralRatio",
              "type": "uint256"
            },
            {
              "internalType": "uint256",
              "name": "maintenanceRatio",
              "type": "uint256"
            },
            {
              "internalType": "uint256",
              "name": "liquidatedDamage",
              "type": "uint256"
            }
          ],
          "internalType": "struct Collateral[]",
          "name": "collateralTokens_",
          "type": "tuple[]"
        },
        {
          "internalType": "contract ITermEventEmitter",
          "name": "emitter_",
          "type": "address"
        },
        {
          "internalType": "address",
          "name": "termInitializer_",
          "type": "address"
        }
      ],
      "name": "initialize",
      "outputs": [],
      "stateMutability": "nonpayable",
      "type": "function"
    },
    {
      "inputs": [
        {
          "internalType": "address",
          "name": "borrower",
          "type": "address"
        }
      ],
      "name": "isBorrowerInShortfall",
      "outputs": [
        {
          "internalType": "bool",
          "name": "",
          "type": "bool"
        }
      ],
      "stateMutability": "view",
      "type": "function"
    },
    {
      "inputs": [
        {
          "internalType": "address",
          "name": "borrower",
          "type": "address"
        },
        {
          "internalType": "address[]",
          "name": "collateralTokenAddresses",
          "type": "address[]"
        },
        {
          "internalType": "uint256[]",
          "name": "collateralTokenAmounts",
          "type": "uint256[]"
        }
      ],
      "name": "journalBidCollateralToCollateralManager",
      "outputs": [],
      "stateMutability": "nonpayable",
      "type": "function"
    },
    {
      "inputs": [],
      "name": "liquidateDamangesDueToProtocol",
      "outputs": [
        {
          "internalType": "uint256",
          "name": "",
          "type": "uint256"
        }
      ],
      "stateMutability": "view",
      "type": "function"
    },
    {
      "inputs": [
        {
          "internalType": "address",
          "name": "",
          "type": "address"
        }
      ],
      "name": "liquidatedDamages",
      "outputs": [
        {
          "internalType": "uint256",
          "name": "",
          "type": "uint256"
        }
      ],
      "stateMutability": "view",
      "type": "function"
    },
    {
      "inputs": [],
      "name": "liquidationsPaused",
      "outputs": [
        {
          "internalType": "bool",
          "name": "",
          "type": "bool"
        }
      ],
      "stateMutability": "view",
      "type": "function"
    },
    {
      "inputs": [
        {
          "internalType": "address",
          "name": "",
          "type": "address"
        }
      ],
      "name": "maintenanceCollateralRatios",
      "outputs": [
        {
          "internalType": "uint256",
          "name": "",
          "type": "uint256"
        }
      ],
      "stateMutability": "view",
      "type": "function"
    },
    {
      "inputs": [
        {
          "internalType": "address",
          "name": "borrower",
          "type": "address"
        },
        {
          "internalType": "address",
          "name": "collateralToken",
          "type": "address"
        },
        {
          "internalType": "uint256",
          "name": "amount",
          "type": "uint256"
        }
      ],
      "name": "mintOpenExposureLockCollateral",
      "outputs": [],
      "stateMutability": "nonpayable",
      "type": "function"
    },
    {
      "inputs": [],
      "name": "netExposureCapOnLiquidation",
      "outputs": [
        {
          "internalType": "uint256",
          "name": "",
          "type": "uint256"
        }
      ],
      "stateMutability": "view",
      "type": "function"
    },
    {
      "inputs": [],
      "name": "numOfAcceptedCollateralTokens",
      "outputs": [
        {
          "internalType": "uint8",
          "name": "",
          "type": "uint8"
        }
      ],
      "stateMutability": "view",
      "type": "function"
    },
    {
      "inputs": [
        {
          "internalType": "address",
          "name": "termRepoLocker_",
          "type": "address"
        },
        {
          "internalType": "address",
          "name": "termRepoServicer_",
          "type": "address"
        },
        {
          "internalType": "address",
          "name": "termAuctionBidLocker_",
          "type": "address"
        },
        {
          "internalType": "address",
          "name": "termAuction_",
          "type": "address"
        },
        {
          "internalType": "address",
          "name": "termController_",
          "type": "address"
        },
        {
          "internalType": "address",
          "name": "termPriceOracle_",
          "type": "address"
        },
        {
          "internalType": "address",
          "name": "termRepoRolloverManager_",
          "type": "address"
        },
        {
          "internalType": "address",
          "name": "devopsMultisig_",
          "type": "address"
        },
        {
          "internalType": "address",
          "name": "adminWallet_",
          "type": "address"
        }
      ],
      "name": "pairTermContracts",
      "outputs": [],
      "stateMutability": "nonpayable",
      "type": "function"
    },
    {
      "inputs": [],
      "name": "pauseLiquidations",
      "outputs": [],
      "stateMutability": "nonpayable",
      "type": "function"
    },
    {
      "inputs": [],
      "name": "proxiableUUID",
      "outputs": [
        {
          "internalType": "bytes32",
          "name": "",
          "type": "bytes32"
        }
      ],
      "stateMutability": "view",
      "type": "function"
    },
    {
      "inputs": [],
      "name": "purchaseToken",
      "outputs": [
        {
          "internalType": "address",
          "name": "",
          "type": "address"
        }
      ],
      "stateMutability": "view",
      "type": "function"
    },
    {
      "inputs": [
        {
          "internalType": "bytes32",
          "name": "role",
          "type": "bytes32"
        },
        {
          "internalType": "address",
          "name": "account",
          "type": "address"
        }
      ],
      "name": "renounceRole",
      "outputs": [],
      "stateMutability": "nonpayable",
      "type": "function"
    },
    {
      "inputs": [
        {
          "components": [
            {
              "internalType": "contract TermAuction",
              "name": "auction",
              "type": "address"
            },
            {
              "internalType": "contract ITermAuctionBidLocker",
              "name": "termAuctionBidLocker",
              "type": "address"
            },
            {
              "internalType": "contract ITermAuctionOfferLocker",
              "name": "termAuctionOfferLocker",
              "type": "address"
            }
          ],
          "internalType": "struct TermAuctionGroup",
          "name": "termAuctionGroup",
          "type": "tuple"
        }
      ],
      "name": "reopenToNewAuction",
      "outputs": [],
      "stateMutability": "nonpayable",
      "type": "function"
    },
    {
      "inputs": [
        {
          "internalType": "bytes32",
          "name": "role",
          "type": "bytes32"
        },
        {
          "internalType": "address",
          "name": "account",
          "type": "address"
        }
      ],
      "name": "revokeRole",
      "outputs": [],
      "stateMutability": "nonpayable",
      "type": "function"
    },
    {
      "inputs": [
        {
          "internalType": "bytes4",
          "name": "interfaceId",
          "type": "bytes4"
        }
      ],
      "name": "supportsInterface",
      "outputs": [
        {
          "internalType": "bool",
          "name": "",
          "type": "bool"
        }
      ],
      "stateMutability": "view",
      "type": "function"
    },
    {
      "inputs": [],
      "name": "termRepoId",
      "outputs": [
        {
          "internalType": "bytes32",
          "name": "",
          "type": "bytes32"
        }
      ],
      "stateMutability": "view",
      "type": "function"
    },
    {
      "inputs": [],
      "name": "termRepoLocker",
      "outputs": [
        {
          "internalType": "contract ITermRepoLocker",
          "name": "",
          "type": "address"
        }
      ],
      "stateMutability": "view",
      "type": "function"
    },
    {
      "inputs": [
        {
          "internalType": "address",
          "name": "borrower",
          "type": "address"
        },
        {
          "internalType": "uint256",
          "name": "rolloverProportion",
          "type": "uint256"
        },
        {
          "internalType": "address",
          "name": "rolloverTermRepoLocker",
          "type": "address"
        }
      ],
      "name": "transferRolloverCollateral",
      "outputs": [
        {
          "internalType": "address[]",
          "name": "",
          "type": "address[]"
        },
        {
          "internalType": "uint256[]",
          "name": "",
          "type": "uint256[]"
        }
      ],
      "stateMutability": "nonpayable",
      "type": "function"
    },
    {
      "inputs": [
        {
          "internalType": "address",
          "name": "borrower",
          "type": "address"
        }
      ],
      "name": "unlockCollateralOnRepurchase",
      "outputs": [],
      "stateMutability": "nonpayable",
      "type": "function"
    },
    {
      "inputs": [],
      "name": "unpauseLiquidations",
      "outputs": [],
      "stateMutability": "nonpayable",
      "type": "function"
    },
    {
      "inputs": [
        {
          "internalType": "address",
          "name": "newImplementation",
          "type": "address"
        }
      ],
      "name": "upgradeTo",
      "outputs": [],
      "stateMutability": "nonpayable",
      "type": "function"
    },
    {
      "inputs": [
        {
          "internalType": "address",
          "name": "newImplementation",
          "type": "address"
        },
        {
          "internalType": "bytes",
          "name": "data",
          "type": "bytes"
        }
      ],
      "name": "upgradeToAndCall",
      "outputs": [],
      "stateMutability": "payable",
      "type": "function"
    },
    {
      "inputs": [],
      "name": "version",
      "outputs": [
        {
          "internalType": "string",
          "name": "",
          "type": "string"
        }
      ],
      "stateMutability": "view",
      "type": "function"
    }
  ],
  "bytecode": "0x60a0604052306080523480156200001557600080fd5b506200002062000026565b620000e7565b600054610100900460ff1615620000935760405162461bcd60e51b815260206004820152602760248201527f496e697469616c697a61626c653a20636f6e747261637420697320696e697469604482015266616c697a696e6760c81b606482015260840160405180910390fd5b60005460ff90811614620000e5576000805460ff191660ff9081179091556040519081527f7f26b83ff96e1f2b6a682f133852f6798a09c465da95921460cefb38474024989060200160405180910390a15b565b6080516158406200011f6000396000818161126f015281816112af015281816119330152818161197301526119eb01526158406000f3fe6080604052600436106102955760003560e01c8063559e4fad1161015b578063a11d52f5116100c7578063a11d52f51461081f578063a217fddf14610834578063a95c4d6214610849578063b7d5820b1461086a578063c066bc0e146108b1578063c180ead1146108c6578063c526c45c146108e6578063cc5b6e4a14610906578063d547741f1461091c578063de7f872e1461093c578063e0623e141461095c578063e1cdd0581461097c578063fd5d357a14610992578063fe05281a146109b257600080fd5b8063559e4fad14610688578063578db957146106a85780635c4b440e146106c857806367af01d0146106e95780636a509f551461071857806375b238fc1461072d57806378c2b2c61461074f578063790cb4911461076557806382f049ab146107855780638f6d0f11146107a557806391d14854146107bf5780639210632f146107df57806394a7cfe8146107ff57600080fd5b80632b56d95e116102055780632b56d95e146104b25780632f2ff15d146104d257806336568abe146104f25780633659cfe6146105125780633718373f1461053257806337843bc61461055457806337cb26f5146105745780633d0dda781461058a5780634055008a146105b857806343551d0d146105d857806348717eb7146106065780634f1ef2861461062657806352d1902d1461063957806354fd4d501461064e57600080fd5b806301ffc9a71461029a57806302b65fb0146102cf57806309a01608146102ff57806312a900691461032157806316febdd314610343578063172c48c714610363578063190e801214610390578063201a6625146103c257806320db25d5146103e45780632391281c14610412578063248a9ca31461043257806327df3d3e146104625780632a1e8cdb14610484575b600080fd5b3480156102a657600080fd5b506102ba6102b5366004614afb565b6109d4565b60405190151581526020015b60405180910390f35b3480156102db57600080fd5b506102f16000805160206157cb83398151915281565b6040519081526020016102c6565b34801561030b57600080fd5b506102f16000805160206156e483398151915281565b34801561032d57600080fd5b5061034161033c366004614b4a565b610a0b565b005b34801561034f57600080fd5b5061034161035e366004614b67565b610aa7565b34801561036f57600080fd5b5061038361037e366004614c23565b610e82565b6040516102c69190614c3c565b34801561039c57600080fd5b5060fc546103b09062010000900460ff1681565b60405160ff90911681526020016102c6565b3480156103ce57600080fd5b506102f160008051602061570483398151915281565b3480156103f057600080fd5b506102f16103ff366004614b4a565b6101086020526000908152604090205481565b34801561041e57600080fd5b5061034161042d366004614c50565b610ead565b34801561043e57600080fd5b506102f161044d366004614c23565b600090815260c9602052604090206001015490565b34801561046e57600080fd5b506102f160008051602061572483398151915281565b34801561049057600080fd5b506102f161049f366004614b4a565b6101096020526000908152604090205481565b3480156104be57600080fd5b506103416104cd366004614c91565b610f32565b3480156104de57600080fd5b506103416104ed366004614cbd565b6111c2565b3480156104fe57600080fd5b5061034161050d366004614cbd565b6111e7565b34801561051e57600080fd5b5061034161052d366004614b4a565b611265565b34801561053e57600080fd5b506102f16000805160206157ab83398151915281565b34801561056057600080fd5b5061034161056f366004614d31565b61132d565b34801561058057600080fd5b506102f160fd5481565b34801561059657600080fd5b506105aa6105a5366004614d85565b61175a565b6040516102c6929190614e02565b3480156105c457600080fd5b506103416105d3366004614e58565b6117e8565b3480156105e457600080fd5b506102f16105f3366004614b4a565b61010a6020526000908152604090205481565b34801561061257600080fd5b50610341610621366004614c50565b6118dc565b610341610634366004614eb6565b611929565b34801561064557600080fd5b506102f16119de565b34801561065a57600080fd5b50604080518082018252600b81526a19195d995b1bdc1b595b9d60aa1b602082015290516102c69190614f81565b34801561069457600080fd5b506103416106a3366004614d31565b611a8c565b3480156106b457600080fd5b506103416106c3366004614fb4565b611c98565b3480156106d457600080fd5b5061010354610383906001600160a01b031681565b3480156106f557600080fd5b50610709610704366004614c91565b611e8d565b604051905181526020016102c6565b34801561072457600080fd5b50610341611fc8565b34801561073957600080fd5b506102f16000805160206157eb83398151915281565b34801561075b57600080fd5b506102f160fe5481565b34801561077157600080fd5b50610341610780366004614c50565b61204e565b34801561079157600080fd5b506103416107a0366004614d31565b612109565b3480156107b157600080fd5b5060fc546102ba9060ff1681565b3480156107cb57600080fd5b506102ba6107da366004614cbd565b6123e0565b3480156107eb57600080fd5b506103416107fa366004614c50565b61240b565b34801561080b57600080fd5b506102ba61081a366004614b4a565b612434565b34801561082b57600080fd5b506102ba612662565b34801561084057600080fd5b506102f1600081565b34801561085557600080fd5b5061010154610383906001600160a01b031681565b34801561087657600080fd5b506102f1610885366004615036565b6001600160a01b03918216600090815261010b6020908152604080832093909416825291909152205490565b3480156108bd57600080fd5b506103416126d7565b3480156108d257600080fd5b506102f16108e1366004614b4a565b612732565b3480156108f257600080fd5b50610341610901366004614c91565b612754565b34801561091257600080fd5b506102f160fb5481565b34801561092857600080fd5b50610341610937366004614cbd565b6128a8565b34801561094857600080fd5b506105aa610957366004614b4a565b6128cd565b34801561096857600080fd5b506103416109773660046150a8565b612a34565b34801561098857600080fd5b506102f160ff5481565b34801561099e57600080fd5b506103416109ad366004614b4a565b612ed8565b3480156109be57600080fd5b506102f160008051602061576483398151915281565b60006001600160e01b03198216637965db0b60e01b1480610a0557506301ffc9a760e01b6001600160e01b03198316145b92915050565b6000805160206156e4833981519152610a2381612f08565b60005b61010654811015610aa25760006101068281548110610a4757610a47615192565b60009182526020808320909101546001600160a01b03878116845261010b83526040808520919092168085529252909120549091508015610a8f57610a8f8583836001612f12565b505080610a9b906151be565b9050610a26565b505050565b600080516020615724833981519152610abf81612f08565b60fc54610100900460ff1615610ae857604051634ce377bb60e11b815260040160405180910390fd5b60fc805461ff00191661010090811790915561010380546001600160a01b03808e166001600160a01b03199283161790925582548c8316908216179092556101028054888316908416179055610104805491891691909216179055610b5b6000805160206157ab8339815191528961306a565b610b736000805160206157ab8339815191528861306a565b610b8b6000805160206157ab8339815191528a61306a565b610ba36000805160206156e48339815191528a61306a565b610bbb6000805160206157cb8339815191528561306a565b610bd36000805160206157048339815191528461306a565b610beb6000805160206157eb8339815191528361306a565b610106546000906001600160401b03811115610c0957610c09614e70565b604051908082528060200260200182016040528015610c32578160200160208202803683370190505b50610106549091506000906001600160401b03811115610c5457610c54614e70565b604051908082528060200260200182016040528015610c7d578160200160208202803683370190505b50610106549091506000906001600160401b03811115610c9f57610c9f614e70565b604051908082528060200260200182016040528015610cc8578160200160208202803683370190505b50905060005b61010654811015610e025761010860006101068381548110610cf257610cf2615192565b60009182526020808320909101546001600160a01b031683528201929092526040019020548451859083908110610d2b57610d2b615192565b60200260200101818152505061010960006101068381548110610d5057610d50615192565b60009182526020808320909101546001600160a01b031683528201929092526040019020548351849083908110610d8957610d89615192565b60200260200101818152505061010a60006101068381548110610dae57610dae615192565b60009182526020808320909101546001600160a01b031683528201929092526040019020548251839083908110610de757610de7615192565b6020908102919091010152610dfb816151be565b9050610cce565b506101055460fb546040516329b35d4760e21b81526001600160a01b039092169163a6cd751c91610e419130906101069088908a9089906004016151d7565b600060405180830381600087803b158015610e5b57600080fd5b505af1158015610e6f573d6000803e3d6000fd5b5050505050505050505050505050505050565b6101068181548110610e9357600080fd5b6000918252602090912001546001600160a01b0316905081565b6000805160206157ab833981519152610ec581612f08565b6101035460405163049f2a5160e21b81526001600160a01b039091169063127ca94490610efa9087908790879060040161527a565b600060405180830381600087803b158015610f1457600080fd5b505af1158015610f28573d6000803e3d6000fd5b5050505050505050565b81610f3c816130f0565b610f645780604051634428dc3160e01b8152600401610f5b9190614c3c565b60405180910390fd5b336000839003610fa55760405163dd23c3ad60e01b815260206004820152600b60248201526a16995c9bc8185b5bdd5b9d60aa1b6044820152606401610f5b565b6001600160a01b03808216600090815261010b602090815260408083209388168352929052908120549003610fed576040516314605b7760e01b815260040160405180910390fd5b61010060009054906101000a90046001600160a01b03166001600160a01b0316631320834f6040518163ffffffff1660e01b8152600401602060405180830381865afa158015611041573d6000803e3d6000fd5b505050506040513d601f19601f82011682018060405250810190611065919061529e565b42101580156110ea575061010060009054906101000a90046001600160a01b03166001600160a01b0316631b2354376040518163ffffffff1660e01b8152600401602060405180830381865afa1580156110c3573d6000803e3d6000fd5b505050506040513d601f19601f820116820180604052508101906110e7919061529e565b42105b1561110857604051633f5a890f60e01b815260040160405180910390fd5b61010054604051632762697d60e01b81526000916001600160a01b031690632762697d9061113a908590600401614c3c565b602060405180830381865afa158015611157573d6000803e3d6000fd5b505050506040513d601f19601f8201168201806040525081019061117b919061529e565b15611184575060015b61119082868684612f12565b61119982612434565b156111bb578185604051632263ff6560e11b8152600401610f5b9291906152b7565b5050505050565b600082815260c960205260409020600101546111dd81612f08565b610aa2838361306a565b6001600160a01b03811633146112575760405162461bcd60e51b815260206004820152602f60248201527f416363657373436f6e74726f6c3a2063616e206f6e6c792072656e6f756e636560448201526e103937b632b9903337b91039b2b63360891b6064820152608401610f5b565b6112618282613120565b5050565b6001600160a01b037f00000000000000000000000000000000000000000000000000000000000000001630036112ad5760405162461bcd60e51b8152600401610f5b906152d1565b7f00000000000000000000000000000000000000000000000000000000000000006001600160a01b03166112df613187565b6001600160a01b0316146113055760405162461bcd60e51b8152600401610f5b9061531d565b61130e816131a3565b6040805160008082526020820190925261132a918391906131ee565b50565b60fc5460ff161561135157604051637d8d0e2160e01b815260040160405180910390fd5b61010060009054906101000a90046001600160a01b03166001600160a01b0316631320834f6040518163ffffffff1660e01b8152600401602060405180830381865afa1580156113a5573d6000803e3d6000fd5b505050506040513d601f19601f820116820180604052508101906113c9919061529e565b42116113e857604051633daab04760e21b815260040160405180910390fd5b6001600160a01b03831633036114115760405163ae957a1d60e01b815260040160405180910390fd5b6101065481146114345760405163dd23c3ad60e01b8152600401610f5b90615369565b61010054604051632762697d60e01b815260009182916001600160a01b0390911690632762697d9061146a908890600401614c3c565b602060405180830381865afa158015611487573d6000803e3d6000fd5b505050506040513d601f19601f820116820180604052508101906114ab919061529e565b9050806000036114ce5760405163baca79c960e01b815260040160405180910390fd5b60008060005b858110156116ad578686828181106114ee576114ee615192565b905060200201356000031561169d5760001987878381811061151257611512615192565b90506020020135036115375760405163dd23c3ad60e01b8152600401610f5b906153c6565b86868281811061154957611549615192565b905060200201358561155b9190615407565b94508385111561157e57604051634fbeca4960e01b815260040160405180910390fd5b610100546001600160a01b031663ec9477e189338a8a868181106115a4576115a4615192565b905060200201356040518463ffffffff1660e01b81526004016115c99392919061527a565b600060405180830381600087803b1580156115e357600080fd5b505af11580156115f7573d6000803e3d6000fd5b5050505061164587878381811061161057611610615192565b90506020020135610106838154811061162b5761162b615192565b6000918252602090912001546001600160a01b0316613359565b809350819450505061169d8833610106848154811061166657611666615192565b6000918252602090912001546001600160a01b03168a8a8681811061168d5761168d615192565b905060200201358787600161361c565b6116a6816151be565b90506114d4565b50836000036116cf57604051630cabf09b60e01b815260040160405180910390fd5b61010054604051632762697d60e01b81526001600160a01b0390911690632762697d90611700908a90600401614c3c565b602060405180830381865afa15801561171d573d6000803e3d6000fd5b505050506040513d601f19601f82011682018060405250810190611741919061529e565b60000361175157611751876138a1565b50505050505050565b60608060008051602061576483398151915261177581612f08565b610106611783878787613982565b8154604080516020808402820181019092528281529184918301828280156117d457602002820191906000526020600020905b81546001600160a01b031681526001909101906020018083116117b6575b505050505091509250925050935093915050565b60008051602061572483398151915261180081612f08565b6118276000805160206157ab8339815191526118226040850160208601614b4a565b61306a565b6118466000805160206157ab8339815191526118226020850185614b4a565b6101055460fb546001600160a01b039091169063f3782f2190306118706040870160208801614b4a565b6040516001600160e01b031960e086901b16815260048101939093526001600160a01b0391821660248401521660448201526064015b600060405180830381600087803b1580156118c057600080fd5b505af11580156118d4573d6000803e3d6000fd5b505050505050565b6000805160206157ab8339815191526118f481612f08565b6101035460405163109c8cf960e11b81526001600160a01b039091169063213919f290610efa9087908790879060040161527a565b6001600160a01b037f00000000000000000000000000000000000000000000000000000000000000001630036119715760405162461bcd60e51b8152600401610f5b906152d1565b7f00000000000000000000000000000000000000000000000000000000000000006001600160a01b03166119a3613187565b6001600160a01b0316146119c95760405162461bcd60e51b8152600401610f5b9061531d565b6119d2826131a3565b611261828260016131ee565b6000306001600160a01b037f00000000000000000000000000000000000000000000000000000000000000001614611a795760405162461bcd60e51b815260206004820152603860248201527f555550535570677261646561626c653a206d757374206e6f742062652063616c6044820152771b1959081d1a1c9bdd59da0819195b1959d85d1958d85b1b60421b6064820152608401610f5b565b5060008051602061574483398151915290565b60fc5460ff1615611ab057604051637d8d0e2160e01b815260040160405180910390fd5b6000611abe84338585613d45565b90506000808060005b85811015611c4b57868682818110611ae157611ae1615192565b9050602002013560000315611c3b57600019878783818110611b0557611b05615192565b9050602002013503611b2a5760405163dd23c3ad60e01b8152600401610f5b906153c6565b868682818110611b3c57611b3c615192565b9050602002013584611b4e9190615407565b610100549094506001600160a01b031663ec9477e189338a8a86818110611b7757611b77615192565b905060200201356040518463ffffffff1660e01b8152600401611b9c9392919061527a565b600060405180830381600087803b158015611bb657600080fd5b505af1158015611bca573d6000803e3d6000fd5b50505050611be387878381811061161057611610615192565b8093508194505050611c3b88336101068481548110611c0457611c04615192565b6000918252602090912001546001600160a01b03168a8a86818110611c2b57611c2b615192565b905060200201358787600061361c565b611c44816151be565b9050611ac7565b5082600003611c6d57604051630cabf09b60e01b815260040160405180910390fd5b836116cf57611c7b87613f88565b6116cf576040516316a0371d60e11b815260040160405180910390fd5b6000805160206156e4833981519152611cb081612f08565b60005b8481101561175157838382818110611ccd57611ccd615192565b9050602002013561010b6000896001600160a01b03166001600160a01b031681526020019081526020016000206000888885818110611d0e57611d0e615192565b9050602002016020810190611d239190614b4a565b6001600160a01b03166001600160a01b031681526020019081526020016000206000828254611d529190615407565b909155508490508382818110611d6a57611d6a615192565b905060200201356101076000888885818110611d8857611d88615192565b9050602002016020810190611d9d9190614b4a565b6001600160a01b03166001600160a01b031681526020019081526020016000206000828254611dcc9190615407565b90915550506101055460fb546001600160a01b039091169063ee9e68bb9089898986818110611dfd57611dfd615192565b9050602002016020810190611e129190614b4a565b888887818110611e2457611e24615192565b905060200201356040518563ffffffff1660e01b8152600401611e4a949392919061541a565b600060405180830381600087803b158015611e6457600080fd5b505af1158015611e78573d6000803e3d6000fd5b5050505080611e86906151be565b9050611cb3565b60408051602081018252600081526101025491516303d3c9db60e21b81529091611fc191611f42916001600160a01b031690630f4f276c90611ed5908890889060040161543f565b602060405180830381865afa158015611ef2573d6000803e3d6000fd5b505050506040513d601f19601f82011682018060405250810190611f169190615458565b60408051602080820183526001600160a01b03891660009081526101099091529190912054815261420e565b61010254610101546040516303d3c9db60e21b81526001600160a01b0392831692630f4f276c92611f7b9291169060019060040161543f565b602060405180830381865afa158015611f98573d6000803e3d6000fd5b505050506040513d601f19601f82011682018060405250810190611fbc9190615458565b61420e565b9392505050565b6000805160206157eb833981519152611fe081612f08565b60fc805460ff191690556101055460fb546040516302ddfefd60e51b81526001600160a01b0390921691635bbfdfa0916120209160040190815260200190565b600060405180830381600087803b15801561203a57600080fd5b505af11580156111bb573d6000803e3d6000fd5b6000805160206157ab83398151915261206681612f08565b6001600160a01b03808516600090815261010b602090815260408083209387168352929052908120805484929061209e908490615407565b90915550506001600160a01b03831660009081526101076020526040812080548492906120cc908490615407565b90915550506101055460fb5460405163ee9e68bb60e01b81526001600160a01b039092169163ee9e68bb91610efa9188908890889060040161541a565b60fc5460ff161561212d57604051637d8d0e2160e01b815260040160405180910390fd5b600061213b84338585613d45565b90506000808080805b868110156123115787878281811061215e5761215e615192565b90506020020135600003156123015760001988888381811061218257612182615192565b90506020020135036121ea5760405163dd23c3ad60e01b815260206004820152602a60248201527f636c6f737572655265706f546f6b656e416d6f756e74732063616e6e6f7420626044820152690ca40ead2dce840dac2f60b31b6064820152608401610f5b565b8787828181106121fc576121fc615192565b905060200201358561220e9190615407565b610100549095506001600160a01b03166309aa80fc8a338b8b8681811061223757612237615192565b905060200201356040518463ffffffff1660e01b815260040161225c9392919061527a565b6020604051808303816000875af115801561227b573d6000803e3d6000fd5b505050506040513d601f19601f8201168201806040525081019061229f919061529e565b93506122b984610106838154811061162b5761162b615192565b8093508194505050612301893361010684815481106122da576122da615192565b6000918252602090912001546001600160a01b03168b8b86818110611c2b57611c2b615192565b61230a816151be565b9050612144565b508360000361233357604051630cabf09b60e01b815260040160405180910390fd5b8461235e5761234188613f88565b61235e576040516316a0371d60e11b815260040160405180910390fd5b61010054604051632762697d60e01b81526001600160a01b0390911690632762697d9061238f908b90600401614c3c565b602060405180830381865afa1580156123ac573d6000803e3d6000fd5b505050506040513d601f19601f820116820180604052508101906123d0919061529e565b600003610f2857610f28886138a1565b600091825260c9602090815260408084206001600160a01b0393909316845291905290205460ff1690565b6000805160206156e483398151915261242381612f08565b61242e848484614251565b50505050565b610102546101015461010054604051632762697d60e01b815260009384936001600160a01b0391821693630f4f276c93918316921690632762697d9061247e908990600401614c3c565b602060405180830381865afa15801561249b573d6000803e3d6000fd5b505050506040513d601f19601f820116820180604052508101906124bf919061529e565b6040518363ffffffff1660e01b81526004016124dc92919061543f565b602060405180830381865afa1580156124f9573d6000803e3d6000fd5b505050506040513d601f19601f8201168201806040525081019061251d9190615458565b60408051602081019091526000808252919250905b61010654811015612643576000610106828154811061255357612553615192565b6000918252602080832090910154610102546001600160a01b038a8116855261010b84526040808620938216808752939094528385205493516303d3c9db60e21b815292955061262293911691630f4f276c916125b59187919060040161543f565b602060405180830381865afa1580156125d2573d6000803e3d6000fd5b505050506040513d601f19601f820116820180604052508101906125f69190615458565b60408051602080820183526001600160a01b03871660009081526101089091529190912054815261420e565b905061262e8185614389565b935050508061263c906151be565b9050612532565b50815181511015612658575060019392505050565b5060009392505050565b6000805b610106548110156126cf5760006101076000610106848154811061268c5761268c615192565b60009182526020808320909101546001600160a01b0316835282019290925260400190205411156126bf57600191505090565b6126c8816151be565b9050612666565b506000905090565b6000805160206157eb8339815191526126ef81612f08565b60fc805460ff191660011790556101055460fb5460405163c8df617960e01b81526001600160a01b039092169163c8df6179916120209160040190815260200190565b6001600160a01b038116600090815261010b60205260408120610a05906143b5565b8161275e816130f0565b61277d5780604051634428dc3160e01b8152600401610f5b9190614c3c565b6101005460408051631320834f60e01b8152905133926001600160a01b031691631320834f9160048083019260209291908290030181865afa1580156127c7573d6000803e3d6000fd5b505050506040513d601f19601f820116820180604052508101906127eb919061529e565b42111561280b5760405163c5e2992f60e01b815260040160405180910390fd5b61010054604051632762697d60e01b81526001600160a01b0390911690632762697d9061283c908490600401614c3c565b602060405180830381865afa158015612859573d6000803e3d6000fd5b505050506040513d601f19601f8201168201806040525081019061287d919061529e565b60000361289d5760405163baca79c960e01b815260040160405180910390fd5b61242e818585614251565b600082815260c960205260409020600101546128c381612f08565b610aa28383613120565b6060806000610106805490506001600160401b038111156128f0576128f0614e70565b604051908082528060200260200182016040528015612919578160200160208202803683370190505b50610106549091506000906001600160401b0381111561293b5761293b614e70565b604051908082528060200260200182016040528015612964578160200160208202803683370190505b50905060005b61010654811015612a29576000610106828154811061298b5761298b615192565b60009182526020808320909101546001600160a01b038a8116845261010b835260408085209190921680855292529091205485519192509082908690859081106129d7576129d7615192565b60200260200101906001600160a01b031690816001600160a01b03168152505080848481518110612a0a57612a0a615192565b602002602001018181525050505080612a22906151be565b905061296a565b509094909350915050565b600054610100900460ff1615808015612a545750600054600160ff909116105b80612a755750612a63306144e3565b158015612a75575060005460ff166001145b612ad85760405162461bcd60e51b815260206004820152602e60248201527f496e697469616c697a61626c653a20636f6e747261637420697320616c72656160448201526d191e481a5b9a5d1a585b1a5e995960921b6064820152608401610f5b565b6000805460ff191660011790558015612afb576000805461ff0019166101001790555b612b036144f2565b612b0b6144f2565b8a8a604051602001612b1e929190615499565b60408051601f19818403018152919052805160209091012060fb5560fc805460ff1916905560fe89905560ff88905560fd8790556001600160a01b038616612ba65760405162461bcd60e51b815260206004820152601b60248201527a2d32b9379030b2323932b9b990383ab931b430b9b2903a37b5b2b760291b6044820152606401610f5b565b61010180546001600160a01b0319166001600160a01b03881617905560fc805462ff000019166201000060ff871602179055836001600160401b03811115612bf057612bf0614e70565b604051908082528060200260200182016040528015612c19578160200160208202803683370190505b508051612c2f9161010691602090910190614a81565b5060005b84811015612e5057858582818110612c4d57612c4d615192565b612c639260206080909202019081019150614b4a565b6101068281548110612c7757612c77615192565b9060005260206000200160006101000a8154816001600160a01b0302191690836001600160a01b03160217905550858582818110612cb757612cb7615192565b905060800201604001356101086000888885818110612cd857612cd8615192565b612cee9260206080909202019081019150614b4a565b6001600160a01b03168152602081019190915260400160002055858582818110612d1a57612d1a615192565b905060800201602001356101096000888885818110612d3b57612d3b615192565b612d519260206080909202019081019150614b4a565b6001600160a01b03168152602081019190915260400160002055858582818110612d7d57612d7d615192565b90506080020160600135600003612dd25760405162461bcd60e51b81526020600482015260196024820152784c6971756964617465642064616d616765206973207a65726f60381b6044820152606401610f5b565b858582818110612de457612de4615192565b9050608002016060013561010a6000888885818110612e0557612e05615192565b612e1b9260206080909202019081019150614b4a565b6001600160a01b0316815260208101919091526040016000205560fc805461ff0019169055612e49816151be565b9050612c33565b5061010580546001600160a01b0319166001600160a01b038516179055612e856000805160206157248339815191528361306a565b8015612ecb576000805461ff0019169055604051600181527f7f26b83ff96e1f2b6a682f133852f6798a09c465da95921460cefb38474024989060200160405180910390a15b5050505050505050505050565b6000805160206157cb833981519152612ef081612f08565b6112616000805160206157648339815191528361306a565b61132a813361455f565b6001600160a01b03808516600090815261010b6020908152604080832093871683529290522054821115612f595760405163380984fd60e21b815260040160405180910390fd5b6001600160a01b03808516600090815261010b6020908152604080832093871683529290529081208054849290612f919084906154a9565b90915550508015612fcb576001600160a01b0383166000908152610107602052604081208054849290612fc59084906154a9565b90915550505b6101035460405163109c8cf960e11b81526001600160a01b039091169063213919f2906130009087908790879060040161527a565b600060405180830381600087803b15801561301a57600080fd5b505af115801561302e573d6000803e3d6000fd5b50506101055460fb54604051633b8d409b60e01b81526001600160a01b039092169350633b8d409b9250610efa9188908890889060040161541a565b61307482826123e0565b61126157600082815260c9602090815260408083206001600160a01b03851684529091529020805460ff191660011790556130ac3390565b6001600160a01b0316816001600160a01b0316837f2f8788117e7eff1d82e926ec794901d17c78024a50270940304540a733656f0d60405160405180910390a45050565b6001600160a01b038116600090815261010a6020526040812054810361311857506000919050565b506001919050565b61312a82826123e0565b1561126157600082815260c9602090815260408083206001600160a01b0385168085529252808320805460ff1916905551339285917ff6391f5c32d9c69d2a47ea670b442974b53935d1edc7fd64eb21e047a839171b9190a45050565b600080516020615744833981519152546001600160a01b031690565b6000805160206157048339815191526131bb81612f08565b6101055460405163b3c2d50b60e01b81526001600160a01b039091169063b3c2d50b906118a690309086906004016152b7565b7f4910fdfa16fed3260ed0e7147f7cc6da11a60208b5b9406d12a635614ffd91435460ff161561322157610aa2836145b8565b826001600160a01b03166352d1902d6040518163ffffffff1660e01b8152600401602060405180830381865afa92505050801561327b575060408051601f3d908101601f191682019092526132789181019061529e565b60015b6132de5760405162461bcd60e51b815260206004820152602e60248201527f45524331393637557067726164653a206e657720696d706c656d656e7461746960448201526d6f6e206973206e6f74205555505360901b6064820152608401610f5b565b600080516020615744833981519152811461334d5760405162461bcd60e51b815260206004820152602960248201527f45524331393637557067726164653a20756e737570706f727465642070726f786044820152681a58589b195555525160ba1b6064820152608401610f5b565b50610aa2838383614652565b61010254610101546040516303d3c9db60e21b81526000928392859284926001600160a01b0390811692630f4f276c9261339b92909116908a9060040161543f565b602060405180830381865afa1580156133b8573d6000803e3d6000fd5b505050506040513d601f19601f820116820180604052508101906133dc9190615458565b905060006134948261010260009054906101000a90046001600160a01b03166001600160a01b0316630f4f276c89876001600160a01b031663313ce5676040518163ffffffff1660e01b8152600401602060405180830381865afa158015613448573d6000803e3d6000fd5b505050506040513d601f19601f8201168201806040525081019061346c91906154bc565b61347790600a6155c3565b6040518363ffffffff1660e01b8152600401611f7b92919061543f565b6040805160208082018352670de0b6b3a76400008252825180820184526001600160a01b038b16600090815261010a9092529281205483529293506134e39184916134de91614389565b614677565b9050600061350183604051806020016040528060fe54815250614677565b9050846001600160a01b031663313ce5676040518163ffffffff1660e01b8152600401602060405180830381865afa158015613541573d6000803e3d6000fd5b505050506040513d601f19601f8201168201806040525081019061356591906154bc565b6135709060126155d2565b61357b90600a6155c3565b825161358791906155eb565b856001600160a01b031663313ce5676040518163ffffffff1660e01b8152600401602060405180830381865afa1580156135c5573d6000803e3d6000fd5b505050506040513d601f19601f820116820180604052508101906135e991906154bc565b6135f49060126155d2565b6135ff90600a6155c3565b825161360b91906155eb565b9650965050505050505b9250929050565b6001600160a01b03808816600090815261010b602090815260408083209389168352929052205483111561366557846040516398de333560e01b8152600401610f5b9190614c3c565b6001600160a01b03808816600090815261010b602090815260408083209389168352929052908120805485929061369d9084906154a9565b90915550506001600160a01b03851660009081526101076020526040812080548592906136cb9084906154a9565b909155505061010354610104546040805163012f8d2f60e11b815290516001600160a01b039384169363213919f293169163025f1a5e9160048083019260209291908290030181865afa158015613726573d6000803e3d6000fd5b505050506040513d601f19601f8201168201806040525081019061374a919061560d565b87856040518463ffffffff1660e01b815260040161376a9392919061527a565b600060405180830381600087803b15801561378457600080fd5b505af1158015613798573d6000803e3d6000fd5b5050610103546001600160a01b0316915063213919f2905087876137bc86886154a9565b6040518463ffffffff1660e01b81526004016137da9392919061527a565b600060405180830381600087803b1580156137f457600080fd5b505af1158015613808573d6000803e3d6000fd5b50506101055460fb54604051639cc487d760e01b815260048101919091526001600160a01b038b811660248301528a8116604483015260648201899052898116608483015260a4820188905260c4820187905285151560e48301529091169250639cc487d7915061010401600060405180830381600087803b15801561388d57600080fd5b505af1158015612ecb573d6000803e3d6000fd5b60005b61010654811015611261576001600160a01b038216600090815261010b602052604081206101068054919291849081106138e0576138e0615192565b9060005260206000200160009054906101000a90046001600160a01b03166001600160a01b03166001600160a01b03168152602001908152602001600020546101076000610106848154811061393857613938615192565b60009182526020808320909101546001600160a01b031683528201929092526040018120805490919061396c9084906154a9565b9091555061397b9050816151be565b90506138a4565b610106546060906000906001600160401b038111156139a3576139a3614e70565b6040519080825280602002602001820160405280156139cc578160200160208202803683370190505b50905060005b61010654811015613d3c57600061010682815481106139f3576139f3615192565b60009182526020808320909101546001600160a01b038a8116845261010b83526040808520919092168085529252909120549091508015613d2957670de0b6b3a76400008703613b9e576001600160a01b03888116600090815261010b602090815260408083209386168352929052908120805491905584518190869086908110613a8057613a80615192565b602002602001018181525050806101076000856001600160a01b03166001600160a01b031681526020019081526020016000206000828254613ac291906154a9565b90915550506101035460405163109c8cf960e11b81526001600160a01b039091169063213919f290613afc908a908790869060040161527a565b600060405180830381600087803b158015613b1657600080fd5b505af1158015613b2a573d6000803e3d6000fd5b50506101055460fb54604051633b8d409b60e01b81526001600160a01b039092169350633b8d409b9250613b66918d908890879060040161541a565b600060405180830381600087803b158015613b8057600080fd5b505af1158015613b94573d6000803e3d6000fd5b5050505050613d29565b6000613bb860405180602001604052808a815250836146b6565b6001600160a01b03808b16600090815261010b60209081526040808320938816835292905290812080549293508392909190613bf59084906154a9565b9250508190555080858581518110613c0f57613c0f615192565b602002602001018181525050806101076000856001600160a01b03166001600160a01b031681526020019081526020016000206000828254613c5191906154a9565b90915550506101035460405163109c8cf960e11b81526001600160a01b039091169063213919f290613c8b908a908790869060040161527a565b600060405180830381600087803b158015613ca557600080fd5b505af1158015613cb9573d6000803e3d6000fd5b50506101055460fb54604051633b8d409b60e01b81526001600160a01b039092169350633b8d409b9250613cf5918d908890879060040161541a565b600060405180830381600087803b158015613d0f57600080fd5b505af1158015613d23573d6000803e3d6000fd5b50505050505b505080613d35906151be565b90506139d2565b50949350505050565b6101005460408051631320834f60e01b815290516000926001600160a01b031691631320834f9160048083019260209291908290030181865afa158015613d90573d6000803e3d6000fd5b505050506040513d601f19601f82011682018060405250810190613db4919061529e565b421115613dd4576040516321f8431560e01b815260040160405180910390fd5b846001600160a01b0316846001600160a01b031603613e065760405163ae957a1d60e01b815260040160405180910390fd5b610106548214613e295760405163dd23c3ad60e01b8152600401610f5b90615369565b61010054604051632762697d60e01b81526000916001600160a01b031690632762697d90613e5b908990600401614c3c565b602060405180830381865afa158015613e78573d6000803e3d6000fd5b505050506040513d601f19601f82011682018060405250810190613e9c919061529e565b905080600003613ebf5760405163baca79c960e01b815260040160405180910390fd5b613ec886612434565b613ee55760405163e94a979360e01b815260040160405180910390fd5b60fd5461010254610101546040516303d3c9db60e21b8152600093926001600160a01b0390811692630f4f276c92613f259290911690879060040161543f565b602060405180830381865afa158015613f42573d6000803e3d6000fd5b505050506040513d601f19601f82011682018060405250810190613f669190615458565b51613f719190615407565b613f7a88612732565b10925050505b949350505050565b61010054604051632762697d60e01b815260009182916001600160a01b0390911690632762697d90613fbe908690600401614c3c565b602060405180830381865afa158015613fdb573d6000803e3d6000fd5b505050506040513d601f19601f82011682018060405250810190613fff919061529e565b9050806000036140125750600092915050565b604080516020810190915260008082525b61010654811015614134576000610106828154811061404457614044615192565b6000918252602080832090910154610102546001600160a01b038a8116855261010b84526040808620938216808752939094528385205493516303d3c9db60e21b815292955061411393911691630f4f276c916140a69187919060040161543f565b602060405180830381865afa1580156140c3573d6000803e3d6000fd5b505050506040513d601f19601f820116820180604052508101906140e79190615458565b60408051602080820183526001600160a01b03871660009081526101099091529190912054815261420e565b905061411f8185614389565b935050508061412d906151be565b9050614023565b5061010254610101546040516303d3c9db60e21b81526000926001600160a01b0390811692630f4f276c926141719290911690879060040161543f565b602060405180830381865afa15801561418e573d6000803e3d6000fd5b505050506040513d601f19601f820116820180604052508101906141b29190615458565b90506141c082825190511090565b156141d057506001949350505050565b60006141dc83836146ce565b90506142046141eb828461420e565b604051806020016040528060ff54815250519051111590565b9695505050505050565b60408051602081019091526000815260405180602001604052806142486142418660000151670de0b6b3a76400006146fa565b8551614706565b90529392505050565b6001600160a01b03808416600090815261010b6020908152604080832093861683529290529081208054839290614289908490615407565b90915550506001600160a01b03821660009081526101076020526040812080548392906142b7908490615407565b90915550506101035460405163049f2a5160e21b81526001600160a01b039091169063127ca944906142f19086908690869060040161527a565b600060405180830381600087803b15801561430b57600080fd5b505af115801561431f573d6000803e3d6000fd5b50506101055460fb5460405163ee9e68bb60e01b81526001600160a01b03909216935063ee9e68bb925061435b9187908790879060040161541a565b600060405180830381600087803b15801561437557600080fd5b505af1158015611751573d6000803e3d6000fd5b604080516020810190915260008152604051806020016040528061424885600001518560000151614712565b6040805160208101909152600080825290815b610106548110156144db576101025461010680546144c99285926001600160a01b0390911691630f4f276c91908690811061440557614405615192565b9060005260206000200160009054906101000a90046001600160a01b0316886000610106888154811061443a5761443a615192565b60009182526020808320909101546001600160a01b0316835282019290925260409081019091205490516001600160e01b031960e085901b16815261448392919060040161543f565b602060405180830381865afa1580156144a0573d6000803e3d6000fd5b505050506040513d601f19601f820116820180604052508101906144c49190615458565b614389565b91506144d4816151be565b90506143c8565b505192915050565b6001600160a01b03163b151590565b600054610100900460ff1661455d5760405162461bcd60e51b815260206004820152602b60248201527f496e697469616c697a61626c653a20636f6e7472616374206973206e6f74206960448201526a6e697469616c697a696e6760a81b6064820152608401610f5b565b565b61456982826123e0565b611261576145768161471e565b614581836020614730565b60405160200161459292919061562a565b60408051601f198184030181529082905262461bcd60e51b8252610f5b91600401614f81565b6145c1816144e3565b6146235760405162461bcd60e51b815260206004820152602d60248201527f455243313936373a206e657720696d706c656d656e746174696f6e206973206e60448201526c1bdd08184818dbdb9d1c9858dd609a1b6064820152608401610f5b565b60008051602061574483398151915280546001600160a01b0319166001600160a01b0392909216919091179055565b61465b836148cb565b6000825111806146685750805b15610aa25761242e838361490b565b6040805160208101909152600081526040518060200160405280670de0b6b3a76400006146ac866000015186600001516146fa565b61424891906155eb565b6000806146c38484614930565b9050613f8081614958565b604080516020810190915260008152604051806020016040528061424885600001518560000151614970565b6000611fc18284615699565b6000611fc182846155eb565b6000611fc18284615407565b6060610a056001600160a01b03831660145b6060600061473f836002615699565b61474a906002615407565b6001600160401b0381111561476157614761614e70565b6040519080825280601f01601f19166020018201604052801561478b576020820181803683370190505b509050600360fc1b816000815181106147a6576147a6615192565b60200101906001600160f81b031916908160001a905350600f60fb1b816001815181106147d5576147d5615192565b60200101906001600160f81b031916908160001a90535060006147f9846002615699565b614804906001615407565b90505b600181111561487c576f181899199a1a9b1b9c1cb0b131b232b360811b85600f166010811061483857614838615192565b1a60f81b82828151811061484e5761484e615192565b60200101906001600160f81b031916908160001a90535060049490941c93614875816156b0565b9050614807565b508315611fc15760405162461bcd60e51b815260206004820181905260248201527f537472696e67733a20686578206c656e67746820696e73756666696369656e746044820152606401610f5b565b6148d4816145b8565b6040516001600160a01b038216907fbc7cd75a20ee27fd9adebab32041f755214dbc6bffa90cc0225b39da2e5c2d3b90600090a250565b6060611fc183836040518060600160405280602781526020016157846027913961497c565b60408051602081019091526000815260405180602001604052806142488560000151856146fa565b8051600090610a0590670de0b6b3a7640000906155eb565b6000611fc182846154a9565b6060600080856001600160a01b03168560405161499991906156c7565b600060405180830381855af49150503d80600081146149d4576040519150601f19603f3d011682016040523d82523d6000602084013e6149d9565b606091505b50915091506142048683838760608315614a52578251600003614a4b576149ff856144e3565b614a4b5760405162461bcd60e51b815260206004820152601d60248201527f416464726573733a2063616c6c20746f206e6f6e2d636f6e74726163740000006044820152606401610f5b565b5081613f80565b613f808383815115614a675781518083602001fd5b8060405162461bcd60e51b8152600401610f5b9190614f81565b828054828255906000526020600020908101928215614ad6579160200282015b82811115614ad657825182546001600160a01b0319166001600160a01b03909116178255602090920191600190910190614aa1565b50614ae2929150614ae6565b5090565b5b80821115614ae25760008155600101614ae7565b600060208284031215614b0d57600080fd5b81356001600160e01b031981168114611fc157600080fd5b6001600160a01b038116811461132a57600080fd5b8035614b4581614b25565b919050565b600060208284031215614b5c57600080fd5b8135611fc181614b25565b60008060008060008060008060006101208a8c031215614b8657600080fd5b8935614b9181614b25565b985060208a0135614ba181614b25565b975060408a0135614bb181614b25565b965060608a0135614bc181614b25565b955060808a0135614bd181614b25565b945060a08a0135614be181614b25565b935060c08a0135614bf181614b25565b925060e08a0135614c0181614b25565b91506101008a0135614c1281614b25565b809150509295985092959850929598565b600060208284031215614c3557600080fd5b5035919050565b6001600160a01b0391909116815260200190565b600080600060608486031215614c6557600080fd5b8335614c7081614b25565b92506020840135614c8081614b25565b929592945050506040919091013590565b60008060408385031215614ca457600080fd5b8235614caf81614b25565b946020939093013593505050565b60008060408385031215614cd057600080fd5b823591506020830135614ce281614b25565b809150509250929050565b60008083601f840112614cff57600080fd5b5081356001600160401b03811115614d1657600080fd5b6020830191508360208260051b850101111561361557600080fd5b600080600060408486031215614d4657600080fd5b8335614d5181614b25565b925060208401356001600160401b03811115614d6c57600080fd5b614d7886828701614ced565b9497909650939450505050565b600080600060608486031215614d9a57600080fd5b8335614da581614b25565b9250602084013591506040840135614dbc81614b25565b809150509250925092565b600081518084526020808501945080840160005b83811015614df757815187529582019590820190600101614ddb565b509495945050505050565b604080825283519082018190526000906020906060840190828701845b82811015614e445781516001600160a01b031684529284019290840190600101614e1f565b505050838103828501526142048186614dc7565b600060608284031215614e6a57600080fd5b50919050565b634e487b7160e01b600052604160045260246000fd5b604051601f8201601f191681016001600160401b0381118282101715614eae57614eae614e70565b604052919050565b60008060408385031215614ec957600080fd5b8235614ed481614b25565b91506020838101356001600160401b0380821115614ef157600080fd5b818601915086601f830112614f0557600080fd5b813581811115614f1757614f17614e70565b614f29601f8201601f19168501614e86565b91508082528784828501011115614f3f57600080fd5b80848401858401376000848284010152508093505050509250929050565b60005b83811015614f78578181015183820152602001614f60565b50506000910152565b6020815260008251806020840152614fa0816040850160208701614f5d565b601f01601f19169190910160400192915050565b600080600080600060608688031215614fcc57600080fd5b8535614fd781614b25565b945060208601356001600160401b0380821115614ff357600080fd5b614fff89838a01614ced565b9096509450604088013591508082111561501857600080fd5b5061502588828901614ced565b969995985093965092949392505050565b6000806040838503121561504957600080fd5b823561505481614b25565b91506020830135614ce281614b25565b60008083601f84011261507657600080fd5b5081356001600160401b0381111561508d57600080fd5b6020830191508360208260071b850101111561361557600080fd5b6000806000806000806000806000806101008b8d0312156150c857600080fd5b8a356001600160401b03808211156150df57600080fd5b818d0191508d601f8301126150f357600080fd5b81358181111561510257600080fd5b8e602082850101111561511457600080fd5b60208381019d50909b508d0135995060408d0135985060608d0135975061513d60808e01614b3a565b965060a08d013591508082111561515357600080fd5b506151608d828e01615064565b9095509350615173905060c08c01614b3a565b915061518160e08c01614b3a565b90509295989b9194979a5092959850565b634e487b7160e01b600052603260045260246000fd5b634e487b7160e01b600052601160045260246000fd5b6000600182016151d0576151d06151a8565b5060010190565b600060c08201888352602060018060a01b03808a168286015260c0604086015282895480855260e0870191508a60005283600020945060005b8181101561522e578554841683526001958601959285019201615210565b50508581036060870152615242818a614dc7565b935050505082810360808401526152598186614dc7565b905082810360a084015261526d8185614dc7565b9998505050505050505050565b6001600160a01b039384168152919092166020820152604081019190915260600190565b6000602082840312156152b057600080fd5b5051919050565b6001600160a01b0392831681529116602082015260400190565b6020808252602c908201527f46756e6374696f6e206d7573742062652063616c6c6564207468726f7567682060408201526b19195b1959d85d1958d85b1b60a21b606082015260800190565b6020808252602c908201527f46756e6374696f6e206d7573742062652063616c6c6564207468726f7567682060408201526b6163746976652070726f787960a01b606082015260800190565b6020808252603f908201527f436c6f7375726520616d6f756e7473206172726179206e6f742073616d65206c60408201527f656e67746820617320636f6c6c61746572616c20746f6b656e73206c69737400606082015260800190565b60208082526021908201527f636c6f73757265416d6f756e74732063616e6e6f742062652075696e74206d616040820152600f60fb1b606082015260800190565b80820180821115610a0557610a056151a8565b9384526001600160a01b03928316602085015291166040830152606082015260800190565b6001600160a01b03929092168252602082015260400190565b60006020828403121561546a57600080fd5b604051602081018181106001600160401b038211171561548c5761548c614e70565b6040529151825250919050565b8183823760009101908152919050565b81810381811115610a0557610a056151a8565b6000602082840312156154ce57600080fd5b815160ff81168114611fc157600080fd5b600181815b8085111561551a578160001904821115615500576155006151a8565b8085161561550d57918102915b93841c93908002906154e4565b509250929050565b60008261553157506001610a05565b8161553e57506000610a05565b8160018114615554576002811461555e5761557a565b6001915050610a05565b60ff84111561556f5761556f6151a8565b50506001821b610a05565b5060208310610133831016604e8410600b841016171561559d575081810a610a05565b6155a783836154df565b80600019048211156155bb576155bb6151a8565b029392505050565b6000611fc160ff841683615522565b60ff8281168282160390811115610a0557610a056151a8565b60008261560857634e487b7160e01b600052601260045260246000fd5b500490565b60006020828403121561561f57600080fd5b8151611fc181614b25565b76020b1b1b2b9b9a1b7b73a3937b61d1030b1b1b7bab73a1604d1b81526000835161565c816017850160208801614f5d565b7001034b99036b4b9b9b4b733903937b6329607d1b601791840191820152835161568d816028840160208801614f5d565b01602801949350505050565b8082028115828204841417610a0557610a056151a8565b6000816156bf576156bf6151a8565b506000190190565b600082516156d9818460208701614f5d565b919091019291505056fe250b76734a070a69c7b3930477dd35007ad9c9d0952e97903fdafb2db6980537793a6c9b7e0a9549c74edc2f9ae0dc50903dfaa9a56fb0116b27a8c71de3e2c630d41a597cac127d8249d31298b50e481ee82c3f4a49ff93c76a22735aa9f3ad360894a13ba1a3210667c828492db98dca3e2076cc3735a920a3ca505d382bbcf4b6b486426e3c004413defb7013cd482f29189a98e074f1c202b2ac26536bb2416464726573733a206c6f772d6c6576656c2064656c65676174652063616c6c206661696c65646e14a979b95b01beecd617807f3738f4e067938da99755b16afdcf7148d313b76e3cc031d23d7153f72e87cbfd113a0351c60d8ce52b8a31c944d543a384b7c9a49807205ce4d355092ef5a8a18f56e8913cf4a201fbe287825b095693c21775a264697066735822122064b564b7501d6b4ddfac83d160b984ad0cd2b83820a482ffb0c9057d21c9af2b64736f6c63430008120033",
  "linkReferences": {},
  "deployedLinkReferences": {}
}