{
  "_format": "hh-sol-artifact-1",
  "contractName": "TermRepoCollateralManager",
  "sourceName": "contracts/TermRepoCollateralManager.sol",
  "abi": [
    {
      "inputs": [],
      "stateMutability": "nonpayable",
      "type": "constructor"
    },
    {
      "inputs": [],
      "name": "AccessControlBadConfirmation",
      "type": "error"
    },
    {
      "inputs": [
        {
          "internalType": "address",
          "name": "account",
          "type": "address"
        },
        {
          "internalType": "bytes32",
          "name": "neededRole",
          "type": "bytes32"
        }
      ],
      "name": "AccessControlUnauthorizedAccount",
      "type": "error"
    },
    {
      "inputs": [
        {
          "internalType": "address",
          "name": "target",
          "type": "address"
        }
      ],
      "name": "AddressEmptyCode",
      "type": "error"
    },
    {
      "inputs": [],
      "name": "AlreadyTermContractPaired",
      "type": "error"
    },
    {
      "inputs": [],
      "name": "BorrowerNotInShortfall",
      "type": "error"
    },
    {
      "inputs": [],
      "name": "CallerNotBorrower",
      "type": "error"
    },
    {
      "inputs": [
        {
          "internalType": "address",
          "name": "borrower",
          "type": "address"
        },
        {
          "internalType": "address",
          "name": "token",
          "type": "address"
        }
      ],
      "name": "CollateralBelowMaintenanceRatios",
      "type": "error"
    },
    {
      "inputs": [],
      "name": "CollateralDepositClosed",
      "type": "error"
    },
    {
      "inputs": [
        {
          "internalType": "address",
          "name": "token",
          "type": "address"
        }
      ],
      "name": "CollateralTokenNotAllowed",
      "type": "error"
    },
    {
      "inputs": [],
      "name": "CollateralWithdrawalClosed",
      "type": "error"
    },
    {
      "inputs": [],
      "name": "DefaultsClosed",
      "type": "error"
    },
    {
      "inputs": [
        {
          "internalType": "address",
          "name": "implementation",
          "type": "address"
        }
      ],
      "name": "ERC1967InvalidImplementation",
      "type": "error"
    },
    {
      "inputs": [],
      "name": "ERC1967NonPayable",
      "type": "error"
    },
    {
      "inputs": [],
      "name": "ExceedsNetExposureCapOnLiquidation",
      "type": "error"
    },
    {
      "inputs": [],
      "name": "FailedCall",
      "type": "error"
    },
    {
      "inputs": [
        {
          "internalType": "address",
          "name": "collateralToken",
          "type": "address"
        }
      ],
      "name": "InsufficientCollateralForLiquidationRepayment",
      "type": "error"
    },
    {
      "inputs": [],
      "name": "InsufficientCollateralForRedemption",
      "type": "error"
    },
    {
      "inputs": [],
      "name": "InvalidInitialization",
      "type": "error"
    },
    {
      "inputs": [
        {
          "internalType": "string",
          "name": "message",
          "type": "string"
        }
      ],
      "name": "InvalidParameters",
      "type": "error"
    },
    {
      "inputs": [],
      "name": "LiquidationsPaused",
      "type": "error"
    },
    {
      "inputs": [],
      "name": "NotInitializing",
      "type": "error"
    },
    {
      "inputs": [],
      "name": "RepaymentAmountLargerThanAllowed",
      "type": "error"
    },
    {
      "inputs": [],
      "name": "SelfLiquidationNotPermitted",
      "type": "error"
    },
    {
      "inputs": [],
      "name": "ShortfallLiquidationsClosed",
      "type": "error"
    },
    {
      "inputs": [],
      "name": "TermContractsPaused",
      "type": "error"
    },
    {
      "inputs": [],
      "name": "TermRepurchaseWindowOpen",
      "type": "error"
    },
    {
      "inputs": [],
      "name": "TotalRepaymentGreaterThangetBorrowerRepurchaseObligation",
      "type": "error"
    },
    {
      "inputs": [],
      "name": "UUPSUnauthorizedCallContext",
      "type": "error"
    },
    {
      "inputs": [
        {
          "internalType": "bytes32",
          "name": "slot",
          "type": "bytes32"
        }
      ],
      "name": "UUPSUnsupportedProxiableUUID",
      "type": "error"
    },
    {
      "inputs": [],
      "name": "UnlockAmountGreaterThanCollateralBalance",
      "type": "error"
    },
    {
      "inputs": [],
      "name": "ZeroAddressContractPaired",
      "type": "error"
    },
    {
      "inputs": [],
      "name": "ZeroBorrowerRepurchaseObligation",
      "type": "error"
    },
    {
      "inputs": [],
      "name": "ZeroCollateralBalance",
      "type": "error"
    },
    {
      "inputs": [],
      "name": "ZeroLiquidationNotPermitted",
      "type": "error"
    },
    {
      "anonymous": false,
      "inputs": [
        {
          "indexed": false,
          "internalType": "uint64",
          "name": "version",
          "type": "uint64"
        }
      ],
      "name": "Initialized",
      "type": "event"
    },
    {
      "anonymous": false,
      "inputs": [
        {
          "indexed": true,
          "internalType": "bytes32",
          "name": "role",
          "type": "bytes32"
        },
        {
          "indexed": true,
          "internalType": "bytes32",
          "name": "previousAdminRole",
          "type": "bytes32"
        },
        {
          "indexed": true,
          "internalType": "bytes32",
          "name": "newAdminRole",
          "type": "bytes32"
        }
      ],
      "name": "RoleAdminChanged",
      "type": "event"
    },
    {
      "anonymous": false,
      "inputs": [
        {
          "indexed": true,
          "internalType": "bytes32",
          "name": "role",
          "type": "bytes32"
        },
        {
          "indexed": true,
          "internalType": "address",
          "name": "account",
          "type": "address"
        },
        {
          "indexed": true,
          "internalType": "address",
          "name": "sender",
          "type": "address"
        }
      ],
      "name": "RoleGranted",
      "type": "event"
    },
    {
      "anonymous": false,
      "inputs": [
        {
          "indexed": true,
          "internalType": "bytes32",
          "name": "role",
          "type": "bytes32"
        },
        {
          "indexed": true,
          "internalType": "address",
          "name": "account",
          "type": "address"
        },
        {
          "indexed": true,
          "internalType": "address",
          "name": "sender",
          "type": "address"
        }
      ],
      "name": "RoleRevoked",
      "type": "event"
    },
    {
      "anonymous": false,
      "inputs": [
        {
          "indexed": true,
          "internalType": "address",
          "name": "implementation",
          "type": "address"
        }
      ],
      "name": "Upgraded",
      "type": "event"
    },
    {
      "inputs": [],
      "name": "ADMIN_ROLE",
      "outputs": [
        {
          "internalType": "bytes32",
          "name": "",
          "type": "bytes32"
        }
      ],
      "stateMutability": "view",
      "type": "function"
    },
    {
      "inputs": [],
      "name": "AUCTION_LOCKER",
      "outputs": [
        {
          "internalType": "bytes32",
          "name": "",
          "type": "bytes32"
        }
      ],
      "stateMutability": "view",
      "type": "function"
    },
    {
      "inputs": [],
      "name": "DEFAULT_ADMIN_ROLE",
      "outputs": [
        {
          "internalType": "bytes32",
          "name": "",
          "type": "bytes32"
        }
      ],
      "stateMutability": "view",
      "type": "function"
    },
    {
      "inputs": [],
      "name": "DEVOPS_ROLE",
      "outputs": [
        {
          "internalType": "bytes32",
          "name": "",
          "type": "bytes32"
        }
      ],
      "stateMutability": "view",
      "type": "function"
    },
    {
      "inputs": [],
      "name": "DIAMOND_ROLE",
      "outputs": [
        {
          "internalType": "bytes32",
          "name": "",
          "type": "bytes32"
        }
      ],
      "stateMutability": "view",
      "type": "function"
    },
    {
      "inputs": [],
      "name": "INITIALIZER_ROLE",
      "outputs": [
        {
          "internalType": "bytes32",
          "name": "",
          "type": "bytes32"
        }
      ],
      "stateMutability": "view",
      "type": "function"
    },
    {
      "inputs": [],
      "name": "ROLLOVER_MANAGER",
      "outputs": [
        {
          "internalType": "bytes32",
          "name": "",
          "type": "bytes32"
        }
      ],
      "stateMutability": "view",
      "type": "function"
    },
    {
      "inputs": [],
      "name": "ROLLOVER_TARGET_AUCTIONEER_ROLE",
      "outputs": [
        {
          "internalType": "bytes32",
          "name": "",
          "type": "bytes32"
        }
      ],
      "stateMutability": "view",
      "type": "function"
    },
    {
      "inputs": [],
      "name": "SERVICER_ROLE",
      "outputs": [
        {
          "internalType": "bytes32",
          "name": "",
          "type": "bytes32"
        }
      ],
      "stateMutability": "view",
      "type": "function"
    },
    {
      "inputs": [],
      "name": "UPGRADE_INTERFACE_VERSION",
      "outputs": [
        {
          "internalType": "string",
          "name": "",
          "type": "string"
        }
      ],
      "stateMutability": "view",
      "type": "function"
    },
    {
      "inputs": [
        {
          "internalType": "address",
          "name": "borrower",
          "type": "address"
        },
        {
          "internalType": "address",
          "name": "collateralToken",
          "type": "address"
        },
        {
          "internalType": "uint256",
          "name": "amount",
          "type": "uint256"
        }
      ],
      "name": "acceptRolloverCollateral",
      "outputs": [],
      "stateMutability": "nonpayable",
      "type": "function"
    },
    {
      "inputs": [
        {
          "internalType": "address",
          "name": "rolloverAuction",
          "type": "address"
        }
      ],
      "name": "approveRolloverAuction",
      "outputs": [],
      "stateMutability": "nonpayable",
      "type": "function"
    },
    {
      "inputs": [
        {
          "internalType": "address",
          "name": "sender",
          "type": "address"
        },
        {
          "internalType": "address",
          "name": "collateralToken",
          "type": "address"
        },
        {
          "internalType": "uint256",
          "name": "amount",
          "type": "uint256"
        }
      ],
      "name": "auctionLockCollateral",
      "outputs": [],
      "stateMutability": "nonpayable",
      "type": "function"
    },
    {
      "inputs": [
        {
          "internalType": "address",
          "name": "sender",
          "type": "address"
        },
        {
          "internalType": "address",
          "name": "collateralToken",
          "type": "address"
        },
        {
          "internalType": "uint256",
          "name": "amount",
          "type": "uint256"
        }
      ],
      "name": "auctionUnlockCollateral",
      "outputs": [],
      "stateMutability": "nonpayable",
      "type": "function"
    },
    {
      "inputs": [
        {
          "internalType": "address",
          "name": "borrower",
          "type": "address"
        },
        {
          "internalType": "uint256[]",
          "name": "closureAmounts",
          "type": "uint256[]"
        }
      ],
      "name": "batchDefault",
      "outputs": [],
      "stateMutability": "nonpayable",
      "type": "function"
    },
    {
      "inputs": [
        {
          "internalType": "address",
          "name": "borrower",
          "type": "address"
        },
        {
          "internalType": "uint256[]",
          "name": "closureRepoTokenAmounts",
          "type": "uint256[]"
        }
      ],
      "name": "batchDefaultWithRepoToken",
      "outputs": [],
      "stateMutability": "nonpayable",
      "type": "function"
    },
    {
      "inputs": [
        {
          "internalType": "address",
          "name": "borrower",
          "type": "address"
        },
        {
          "internalType": "uint256[]",
          "name": "closureAmounts",
          "type": "uint256[]"
        }
      ],
      "name": "batchLiquidation",
      "outputs": [],
      "stateMutability": "nonpayable",
      "type": "function"
    },
    {
      "inputs": [
        {
          "internalType": "address",
          "name": "borrower",
          "type": "address"
        },
        {
          "internalType": "uint256[]",
          "name": "closureRepoTokenAmounts",
          "type": "uint256[]"
        }
      ],
      "name": "batchLiquidationWithRepoToken",
      "outputs": [],
      "stateMutability": "nonpayable",
      "type": "function"
    },
    {
      "inputs": [
        {
          "internalType": "address",
          "name": "collateralToken",
          "type": "address"
        },
        {
          "internalType": "uint256",
          "name": "amountToLock",
          "type": "uint256"
        }
      ],
      "name": "calculateMintableExposure",
      "outputs": [
        {
          "components": [
            {
              "internalType": "uint256",
              "name": "mantissa",
              "type": "uint256"
            }
          ],
          "internalType": "struct ExponentialNoError.Exp",
          "name": "",
          "type": "tuple"
        }
      ],
      "stateMutability": "view",
      "type": "function"
    },
    {
      "inputs": [
        {
          "internalType": "uint256",
          "name": "",
          "type": "uint256"
        }
      ],
      "name": "collateralTokens",
      "outputs": [
        {
          "internalType": "address",
          "name": "",
          "type": "address"
        }
      ],
      "stateMutability": "view",
      "type": "function"
    },
    {
      "inputs": [],
      "name": "deMinimisMarginThreshold",
      "outputs": [
        {
          "internalType": "uint256",
          "name": "",
          "type": "uint256"
        }
      ],
      "stateMutability": "view",
      "type": "function"
    },
    {
      "inputs": [
        {
          "internalType": "address",
          "name": "borrower",
          "type": "address"
        }
      ],
      "name": "encumberExistingCollateral",
      "outputs": [],
      "stateMutability": "nonpayable",
      "type": "function"
    },
    {
      "inputs": [],
      "name": "encumberedCollateralRemaining",
      "outputs": [
        {
          "internalType": "bool",
          "name": "",
          "type": "bool"
        }
      ],
      "stateMutability": "view",
      "type": "function"
    },
    {
      "inputs": [
        {
          "internalType": "address",
          "name": "borrower",
          "type": "address"
        },
        {
          "internalType": "address",
          "name": "collateralToken",
          "type": "address"
        },
        {
          "internalType": "uint256",
          "name": "amount",
          "type": "uint256"
        }
      ],
      "name": "externalLockCollateral",
      "outputs": [],
      "stateMutability": "nonpayable",
      "type": "function"
    },
    {
      "inputs": [
        {
          "internalType": "address",
          "name": "collateralToken",
          "type": "address"
        },
        {
          "internalType": "uint256",
          "name": "amount",
          "type": "uint256"
        }
      ],
      "name": "externalLockCollateral",
      "outputs": [],
      "stateMutability": "nonpayable",
      "type": "function"
    },
    {
      "inputs": [
        {
          "internalType": "address",
          "name": "collateralToken",
          "type": "address"
        },
        {
          "internalType": "uint256",
          "name": "amount",
          "type": "uint256"
        }
      ],
      "name": "externalUnlockCollateral",
      "outputs": [],
      "stateMutability": "nonpayable",
      "type": "function"
    },
    {
      "inputs": [
        {
          "internalType": "address",
          "name": "borrower",
          "type": "address"
        },
        {
          "internalType": "address",
          "name": "collateralToken",
          "type": "address"
        },
        {
          "internalType": "uint256",
          "name": "amount",
          "type": "uint256"
        }
      ],
      "name": "externalUnlockCollateral",
      "outputs": [],
      "stateMutability": "nonpayable",
      "type": "function"
    },
    {
      "inputs": [
        {
          "internalType": "address",
          "name": "borrower",
          "type": "address"
        },
        {
          "internalType": "address",
          "name": "collateralToken",
          "type": "address"
        }
      ],
      "name": "getCollateralBalance",
      "outputs": [
        {
          "internalType": "uint256",
          "name": "",
          "type": "uint256"
        }
      ],
      "stateMutability": "view",
      "type": "function"
    },
    {
      "inputs": [
        {
          "internalType": "address",
          "name": "borrower",
          "type": "address"
        }
      ],
      "name": "getCollateralBalances",
      "outputs": [
        {
          "internalType": "address[]",
          "name": "",
          "type": "address[]"
        },
        {
          "internalType": "uint256[]",
          "name": "",
          "type": "uint256[]"
        }
      ],
      "stateMutability": "view",
      "type": "function"
    },
    {
      "inputs": [
        {
          "internalType": "address",
          "name": "borrower",
          "type": "address"
        }
      ],
      "name": "getCollateralMarketValue",
      "outputs": [
        {
          "internalType": "uint256",
          "name": "",
          "type": "uint256"
        }
      ],
      "stateMutability": "view",
      "type": "function"
    },
    {
      "inputs": [
        {
          "internalType": "bytes32",
          "name": "role",
          "type": "bytes32"
        }
      ],
      "name": "getRoleAdmin",
      "outputs": [
        {
          "internalType": "bytes32",
          "name": "",
          "type": "bytes32"
        }
      ],
      "stateMutability": "view",
      "type": "function"
    },
    {
      "inputs": [
        {
          "internalType": "bytes32",
          "name": "role",
          "type": "bytes32"
        },
        {
          "internalType": "address",
          "name": "account",
          "type": "address"
        }
      ],
      "name": "grantRole",
      "outputs": [],
      "stateMutability": "nonpayable",
      "type": "function"
    },
    {
      "inputs": [
        {
          "internalType": "bytes32",
          "name": "role",
          "type": "bytes32"
        },
        {
          "internalType": "address",
          "name": "account",
          "type": "address"
        }
      ],
      "name": "hasRole",
      "outputs": [
        {
          "internalType": "bool",
          "name": "",
          "type": "bool"
        }
      ],
      "stateMutability": "view",
      "type": "function"
    },
    {
      "inputs": [
        {
          "internalType": "address",
          "name": "",
          "type": "address"
        }
      ],
      "name": "initialCollateralRatios",
      "outputs": [
        {
          "internalType": "uint256",
          "name": "",
          "type": "uint256"
        }
      ],
      "stateMutability": "view",
      "type": "function"
    },
    {
      "inputs": [
        {
          "internalType": "string",
          "name": "termRepoId_",
          "type": "string"
        },
        {
          "internalType": "uint256",
          "name": "liquidatedDamagesDueToProtocol_",
          "type": "uint256"
        },
        {
          "internalType": "uint256",
          "name": "netExposureCapOnLiquidation_",
          "type": "uint256"
        },
        {
          "internalType": "uint256",
          "name": "deMinimisMarginThreshold_",
          "type": "uint256"
        },
        {
          "internalType": "address",
          "name": "purchaseToken_",
          "type": "address"
        },
        {
          "components": [
            {
              "internalType": "address",
              "name": "tokenAddress",
              "type": "address"
            },
            {
              "internalType": "uint256",
              "name": "initialCollateralRatio",
              "type": "uint256"
            },
            {
              "internalType": "uint256",
              "name": "maintenanceRatio",
              "type": "uint256"
            },
            {
              "internalType": "uint256",
              "name": "liquidatedDamage",
              "type": "uint256"
            }
          ],
          "internalType": "struct Collateral[]",
          "name": "collateralTokens_",
          "type": "tuple[]"
        },
        {
          "internalType": "contract ITermEventEmitter",
          "name": "emitter_",
          "type": "address"
        },
        {
          "internalType": "address",
          "name": "termInitializer_",
          "type": "address"
        }
      ],
      "name": "initialize",
      "outputs": [],
      "stateMutability": "nonpayable",
      "type": "function"
    },
    {
      "inputs": [
        {
          "internalType": "address",
          "name": "borrower",
          "type": "address"
        }
      ],
      "name": "isBorrowerInShortfall",
      "outputs": [
        {
          "internalType": "bool",
          "name": "",
          "type": "bool"
        }
      ],
      "stateMutability": "view",
      "type": "function"
    },
    {
      "inputs": [
        {
          "internalType": "address",
          "name": "borrower",
          "type": "address"
        },
        {
          "internalType": "address[]",
          "name": "collateralTokenAddresses",
          "type": "address[]"
        },
        {
          "internalType": "uint256[]",
          "name": "collateralTokenAmounts",
          "type": "uint256[]"
        }
      ],
      "name": "journalBidCollateralToCollateralManager",
      "outputs": [],
      "stateMutability": "nonpayable",
      "type": "function"
    },
    {
      "inputs": [
        {
          "internalType": "address",
          "name": "",
          "type": "address"
        }
      ],
      "name": "liquidatedDamages",
      "outputs": [
        {
          "internalType": "uint256",
          "name": "",
          "type": "uint256"
        }
      ],
      "stateMutability": "view",
      "type": "function"
    },
    {
      "inputs": [],
      "name": "liquidatedDamagesDueToProtocol",
      "outputs": [
        {
          "internalType": "uint256",
          "name": "",
          "type": "uint256"
        }
      ],
      "stateMutability": "view",
      "type": "function"
    },
    {
      "inputs": [],
      "name": "liquidationsPaused",
      "outputs": [
        {
          "internalType": "bool",
          "name": "",
          "type": "bool"
        }
      ],
      "stateMutability": "view",
      "type": "function"
    },
    {
      "inputs": [
        {
          "internalType": "address",
          "name": "",
          "type": "address"
        }
      ],
      "name": "maintenanceCollateralRatios",
      "outputs": [
        {
          "internalType": "uint256",
          "name": "",
          "type": "uint256"
        }
      ],
      "stateMutability": "view",
      "type": "function"
    },
    {
      "inputs": [
        {
          "internalType": "address",
          "name": "borrower",
          "type": "address"
        },
        {
          "internalType": "address",
          "name": "sender",
          "type": "address"
        },
        {
          "internalType": "address",
          "name": "collateralToken",
          "type": "address"
        },
        {
          "internalType": "uint256",
          "name": "amount",
          "type": "uint256"
        }
      ],
      "name": "mintOpenExposureLockCollateral",
      "outputs": [],
      "stateMutability": "nonpayable",
      "type": "function"
    },
    {
      "inputs": [],
      "name": "netExposureCapOnLiquidation",
      "outputs": [
        {
          "internalType": "uint256",
          "name": "",
          "type": "uint256"
        }
      ],
      "stateMutability": "view",
      "type": "function"
    },
    {
      "inputs": [],
      "name": "numOfAcceptedCollateralTokens",
      "outputs": [
        {
          "internalType": "uint8",
          "name": "",
          "type": "uint8"
        }
      ],
      "stateMutability": "view",
      "type": "function"
    },
    {
      "inputs": [
        {
          "internalType": "address",
          "name": "termRepoLocker_",
          "type": "address"
        },
        {
          "internalType": "address",
          "name": "termRepoServicer_",
          "type": "address"
        },
        {
          "internalType": "address",
          "name": "termAuctionBidLocker_",
          "type": "address"
        },
        {
          "internalType": "address",
          "name": "termAuction_",
          "type": "address"
        },
        {
          "internalType": "address",
          "name": "termController_",
          "type": "address"
        },
        {
          "internalType": "address",
          "name": "termPriceOracle_",
          "type": "address"
        },
        {
          "internalType": "address",
          "name": "termRepoRolloverManager_",
          "type": "address"
        },
        {
          "internalType": "address",
          "name": "termDiamond_",
          "type": "address"
        },
        {
          "internalType": "address",
          "name": "devopsMultisig_",
          "type": "address"
        },
        {
          "internalType": "address",
          "name": "adminWallet_",
          "type": "address"
        }
      ],
      "name": "pairTermContracts",
      "outputs": [],
      "stateMutability": "nonpayable",
      "type": "function"
    },
    {
      "inputs": [],
      "name": "pauseLiquidations",
      "outputs": [],
      "stateMutability": "nonpayable",
      "type": "function"
    },
    {
      "inputs": [],
      "name": "proxiableUUID",
      "outputs": [
        {
          "internalType": "bytes32",
          "name": "",
          "type": "bytes32"
        }
      ],
      "stateMutability": "view",
      "type": "function"
    },
    {
      "inputs": [],
      "name": "purchaseToken",
      "outputs": [
        {
          "internalType": "address",
          "name": "",
          "type": "address"
        }
      ],
      "stateMutability": "view",
      "type": "function"
    },
    {
      "inputs": [
        {
          "internalType": "bytes32",
          "name": "role",
          "type": "bytes32"
        },
        {
          "internalType": "address",
          "name": "callerConfirmation",
          "type": "address"
        }
      ],
      "name": "renounceRole",
      "outputs": [],
      "stateMutability": "nonpayable",
      "type": "function"
    },
    {
      "inputs": [
        {
          "components": [
            {
              "internalType": "contract TermAuction",
              "name": "auction",
              "type": "address"
            },
            {
              "internalType": "contract ITermAuctionBidLocker",
              "name": "termAuctionBidLocker",
              "type": "address"
            },
            {
              "internalType": "contract ITermAuctionOfferLocker",
              "name": "termAuctionOfferLocker",
              "type": "address"
            }
          ],
          "internalType": "struct TermAuctionGroup",
          "name": "termAuctionGroup",
          "type": "tuple"
        }
      ],
      "name": "reopenToNewAuction",
      "outputs": [],
      "stateMutability": "nonpayable",
      "type": "function"
    },
    {
      "inputs": [
        {
          "internalType": "bytes32",
          "name": "role",
          "type": "bytes32"
        },
        {
          "internalType": "address",
          "name": "account",
          "type": "address"
        }
      ],
      "name": "revokeRole",
      "outputs": [],
      "stateMutability": "nonpayable",
      "type": "function"
    },
    {
      "inputs": [
        {
          "internalType": "bytes4",
          "name": "interfaceId",
          "type": "bytes4"
        }
      ],
      "name": "supportsInterface",
      "outputs": [
        {
          "internalType": "bool",
          "name": "",
          "type": "bool"
        }
      ],
      "stateMutability": "view",
      "type": "function"
    },
    {
      "inputs": [],
      "name": "termController",
      "outputs": [
        {
          "internalType": "contract ITermController",
          "name": "",
          "type": "address"
        }
      ],
      "stateMutability": "view",
      "type": "function"
    },
    {
      "inputs": [],
      "name": "termRepoId",
      "outputs": [
        {
          "internalType": "bytes32",
          "name": "",
          "type": "bytes32"
        }
      ],
      "stateMutability": "view",
      "type": "function"
    },
    {
      "inputs": [],
      "name": "termRepoLocker",
      "outputs": [
        {
          "internalType": "contract ITermRepoLocker",
          "name": "",
          "type": "address"
        }
      ],
      "stateMutability": "view",
      "type": "function"
    },
    {
      "inputs": [
        {
          "internalType": "address",
          "name": "borrower",
          "type": "address"
        },
        {
          "internalType": "uint256",
          "name": "rolloverProportion",
          "type": "uint256"
        },
        {
          "internalType": "address",
          "name": "rolloverTermRepoLocker",
          "type": "address"
        }
      ],
      "name": "transferRolloverCollateral",
      "outputs": [
        {
          "internalType": "address[]",
          "name": "",
          "type": "address[]"
        },
        {
          "internalType": "uint256[]",
          "name": "",
          "type": "uint256[]"
        }
      ],
      "stateMutability": "nonpayable",
      "type": "function"
    },
    {
      "inputs": [
        {
          "internalType": "address",
          "name": "borrower",
          "type": "address"
        }
      ],
      "name": "unlockCollateralOnRepurchase",
      "outputs": [],
      "stateMutability": "nonpayable",
      "type": "function"
    },
    {
      "inputs": [],
      "name": "unpauseLiquidations",
      "outputs": [],
      "stateMutability": "nonpayable",
      "type": "function"
    },
    {
      "inputs": [
        {
          "internalType": "address",
          "name": "newImplementation",
          "type": "address"
        },
        {
          "internalType": "bytes",
          "name": "data",
          "type": "bytes"
        }
      ],
      "name": "upgradeToAndCall",
      "outputs": [],
      "stateMutability": "payable",
      "type": "function"
    },
    {
      "inputs": [],
      "name": "version",
      "outputs": [
        {
          "internalType": "string",
          "name": "",
          "type": "string"
        }
      ],
      "stateMutability": "view",
      "type": "function"
    }
  ],
  "bytecode": "0x60a08060405234620000d157306080527ff0c57e16840df040f15088dc2f81fe391c3923bec73e23a9662efc9c229c6a009081549060ff8260401c16620000c257506001600160401b036002600160401b0319828216016200007c575b6040516154739081620000d78239608051818181611b99015261201e0152f35b6001600160401b031990911681179091556040519081527fc7f505b2f371ae2175ee4913f4499e1f2633a7b5936321eed1cdaeb6115181d290602090a13880806200005c565b63f92ee8a960e01b8152600490fd5b600080fdfe608080604052600436101561001357600080fd5b600090813560e01c90816301ffc9a714612ef05750806302b65fb014612ec757806309a0160814612e9e57806312a9006914612dff578063172c48c714612dbb578063190e801214612d97578063201a662514612d6e57806320db25d514612d355780632391281c14612cc8578063248a9ca314612c8e57806325c3ed4714612c6557806327df3d3e14612c3c5780632a1e8cdb14612c035780632b56d95e14612bcd5780632f2ff15d14612b8257806336568abe14612b3a5780633718373f14612b1157806337843bc6146127bd57806337cb26f51461279f5780633d0dda78146124145780633e0efe03146123df5780633eb9d456146123b55780634055008a1461231457806343551d0d146122db57806348717eb7146122895780634f1ef28614611fa357806350d4f03414611bf157806352d1902d14611b8657806354fd4d5014611b42578063559e4fad1461184957806356fdbdeb1461182b578063578db957146116325780635c4b440e1461160957806367af01d0146114d35780636a509f551461146c57806375b238fc14611443578063790cb491146113aa5780637e79f4f11461136b57806382f049ab14610fd45780638f6d0f1114610fb157806391d1485414610f58578063929d5ba514610c8457806394a7cfe814610c60578063a11d52f514610c3b578063a217fddf14610c1f578063a95c4d6214610bf6578063ad3cb1cc14610bb8578063b7d5820b14610b69578063c066bc0e14610ae1578063c180ead114610aa0578063c526c45c14610a47578063cc33cb4514610a1e578063cc5b6e4a14610a01578063d547741f146109b6578063d91ab0d91461095f578063de7f872e146108b7578063e0623e1414610379578063e1cdd0581461035b578063fd5d357a146102e05763fe05281a146102b557600080fd5b346102dd57806003193601126102dd5760206040516000805160206152fe8339815191528152f35b80fd5b50346102dd5760203660031901126102dd576102fa612f45565b33600090815260008051602061527e83398151915260205260409020546000805160206153de8339815191529060ff161561033d575061033990613fda565b5080f35b6044906040519063e2517d3f60e01b82523360048301526024820152fd5b50346102dd57806003193601126102dd576020600454604051908152f35b50346102dd576101003660031901126102dd576001600160401b03600435116102dd573660236004350112156102dd576001600160401b03600480350135116102dd57366024600435600401356004350101116102dd576103d8612f87565b60a435906001600160401b0382116108b357366023830112156108b3576001600160401b036004830135116108b357366024836004013560071b840101116108b35760c4356001600160a01b03811681036108af57610435612f9d565b60008051602061541e83398151915254909390926001600160401b03841615806108a1575b6001600160401b0385166001149081610897575b15908161088e575b5061087c576001600160401b0319841660011760008051602061541e83398151915255604084901c60ff1615610853575b6104af61514b565b6104b761514b565b60405160208101906004356004013560246004350183376104ed6020826004356004013581018b8382015203808452018261317b565b5190208655600154602435600355604435600455606435600255906001600160a01b0316801561081057600680546001600160a01b03191691909117905562ff00ff19166004820135601081901b62ff000016919091176001556105509061337c565b8051906001600160401b0382116107fc57600160401b82116107fc57600b5482600b558083106107c9575b50600b875260200160008051602061537e833981519152875b8381106107ac5750505050845b8160040135811061063b575050600a80546001600160a01b0319166001600160a01b0390921691909117905560ff916105d990613f54565b5060401c16156105e65780f35b60ff60401b1960008051602061541e833981519152541660008051602061541e833981519152557fc7f505b2f371ae2175ee4913f4499e1f2633a7b5936321eed1cdaeb6115181d2602060405160018152a180f35b61065561065082846004013560248601613605565b6132f0565b61065e82612fb3565b81546001600160a01b0393841660039290921b91821b9390911b1916919091179055604061069482600485013560248601613605565b01356001600160a01b036106b361065084600487013560248801613605565b168752600d602052604087205560206106d482846004013560248601613605565b01356001600160a01b036106f361065084600487013560248801613605565b168752600e6020526040872055606061071482846004013560248601613605565b01351561076b57806060610732600193856004013560248701613605565b0135828060a01b0361074f61065084876004013560248901613605565b168852600f6020526040882055815461ff0019168255016105a1565b60405162461bcd60e51b81526020600482015260196024820152784c6971756964617465642064616d616765206973207a65726f60381b6044820152606490fd5b82516001600160a01b031681830155602090920191600101610594565b600b885260008051602061537e833981519152908382015b81830181106107f157505061057b565b8981556001016107e1565b634e487b7160e01b87526041600452602487fd5b60405162461bcd60e51b815260206004820152601b60248201527a2d32b9379030b2323932b9b990383ab931b430b9b2903a37b5b2b760291b6044820152606490fd5b6001600160481b031984166001600160401b011760008051602061541e833981519152556104a7565b60405163f92ee8a960e01b8152600490fd5b90501538610476565b303b15915061046e565b5060ff8460401c161561045a565b8380fd5b8280fd5b50346102dd5760208060031936011261095b576108d2612f45565b600b54906108df8261337c565b926108e98361337c565b946001600160a01b0392831692815b858110610912576040518061090e8a8a836130c0565b0390f35b808261091f600193612fb3565b90549060031b1c16868552601086526040852081600052865260406000205490610949838b6133ae565b52610954828b6133ae565b52016108f8565b5080fd5b50346102dd5761096e36612fe4565b90929161097a846138b5565b156109955792610992929361098d613685565b6138f6565b80f35b604051634428dc3160e01b81526001600160a01b0385166004820152602490fd5b50346102dd5760403660031901126102dd576103396004356109d6612f5b565b9080845260008051602061539e8339815191526020526109fc600160408620015461372d565b6140e7565b50346102dd57806003193601126102dd5760209054604051908152f35b50346102dd57806003193601126102dd57602060405160008051602061533e8339815191528152f35b50346102dd5760403660031901126102dd57610a61612f45565b610a6a816138b5565b15610a7e57610992906024359033336148a8565b604051634428dc3160e01b81526001600160a01b039091166004820152602490fd5b50346102dd5760203660031901126102dd57602090610ad9906040906001600160a01b03610acc612f45565b168152601084522061502e565b604051908152f35b50346102dd57806003193601126102dd57610afa6136f5565b6001805460ff191681179055600a54815482916001600160a01b031690813b15610b6557829160248392604051948593849263c8df617960e01b845260048401525af18015610b5a57610b4a5750f35b610b539061311c565b6102dd5780f35b6040513d84823e3d90fd5b5050fd5b50346102dd5760403660031901126102dd57610b83612f45565b6040610b8d612f5b565b9260018060a01b03809316815260106020522091166000526020526020604060002054604051908152f35b50346102dd57806003193601126102dd5761090e604051610bd881613160565b60058152640352e302e360dc1b6020820152604051918291826131b9565b50346102dd57806003193601126102dd576006546040516001600160a01b039091168152602090f35b50346102dd57806003193601126102dd57602090604051908152f35b50346102dd57806003193601126102dd576020610c566135a5565b6040519015158152f35b50346102dd5760203660031901126102dd576020610c56610c7f612f45565b6133c2565b50346102dd5760031990610140368301126102dd57610ca1612f45565b610ca9612f5b565b610cb1612f71565b6001600160a01b0392606435918483168303610f5357610ccf612f87565b9160a43591868316809303610f535760c435918783168303610f5357610cf3612f9d565b9061010435938985168503610f535761012435968a88168803610f5357610d186136bd565b6001996001549760ff8960081c16610f4157610dba9a610d8c610dae988f97610da898610da297610d9296610db49f6101009061ff001916176001558260018060a01b0319941684600854161760085582891684600554161760055583600754161760075516906009541617600955613c18565b50613c18565b50610d9c81613c18565b50613ca4565b50613d2a565b50613db0565b50613e36565b50613ece565b50600b5491610dc88361337c565b610dd18461337c565b91610ddb8561337c565b9284875b878110610ec057505081600a541694875496863b15610ebc576040516329b35d4760e21b8152600481019890985230602489015260c0604489015260c48801819052600b895260e488019360008051602061537e8339815191529291908a906020905b838310610ea55750505050505085610e94898296610e858b9c97610e75888e9c9a988d9989809c030160648a015261308c565b908487830301608488015261308c565b918483030160a485015261308c565b03925af18015610b5a57610b4a5750f35b855481168852968101969484019491840191610e42565b8880fd5b600f84610ecc83612fb3565b919054600392831b1c168b5285602091600d835260408d2054610eef868b6133ae565b5281610efa86612fb3565b905490831b1c168d52600e835260408d2054610f1686896133ae565b52610f2085612fb3565b9054911b1c168b52526040892054610f3882886133ae565b52018590610ddf565b604051634ce377bb60e11b8152600490fd5b600080fd5b50346102dd5760403660031901126102dd576040610f74612f5b565b91600435815260008051602061539e833981519152602052209060018060a01b0316600052602052602060ff604060002054166040519015158152f35b50346102dd57806003193601126102dd57602060ff600154166040519015158152f35b50346102dd57610fe336613049565b9060019260ff600154166113595760018060a01b03928360095416926040518094631b6685b560e21b825281600460209788935afa90811561134e578891611321575b5061130f5790611037813385614a34565b91879188915b81831061119a57505050156111885715611169575b826005541692604051632762697d60e01b81528381602481858716988960048301525afa90811561115e578791611131575b501561108e578580f35b8593855b61109b57508580f35b600b5485101561112c57858095828952601086528360408a206110bd83612fb3565b929054600393841b1c16600052875260406000205485816110e3575b5050500194611092565b61112492816110f186612fb3565b905490831b1c168d52600c8a5260408d2061110d848254613202565b905561111885612fb3565b9054911b1c1687613760565b3880856110d9565b508580f35b90508381813d8311611157575b611148818361317b565b81010312610f53575138611084565b503d61113e565b6040513d89823e3d90fd5b61117281614c10565b611052576040516316a0371d60e11b8152600490fd5b604051630cabf09b60e01b8152600490fd5b909192886111a98585856132bd565b351561130857506000196111be8585856132bd565b35146112ab576111dd611211916111d68686866132bd565b35906132cd565b93878b8a60055416896111f18589896132bd565b359260405180978195829463026aa03f60e21b8452339060048501613225565b03925af19182156112a0578a928a918d9161126b575b5090806112639261124a61123a86612fb3565b939054600394851b1c16826141c5565b93909261125687612fb3565b9054911b1c16338c61464b565b01919061103d565b935050508782813d8311611299575b611284818361317b565b81010312610f53579051899190899081611227565b503d61127a565b6040513d8d823e3d90fd5b60405163dd23c3ad60e01b815260206004820152602a60248201527f636c6f737572655265706f546f6b656e416d6f756e74732063616e6e6f7420626044820152690ca40ead2dce840dac2f60b31b6064820152608490fd5b0390fd5b9093611263565b60405163bbc439e160e01b8152600490fd5b6113419150853d8711611347575b611339818361317b565b810190613247565b38611026565b503d61132f565b6040513d8a823e3d90fd5b604051637d8d0e2160e01b8152600490fd5b50346102dd5760803660031901126102dd57610992611388612f45565b611390612f5b565b611398612f71565b906113a1613615565b60643592614e74565b50346102dd57806113ba36612fe4565b91906113c461364d565b60018060a01b038083168552601060205260408520818316908160005260205260406000206113f48682546132cd565b90558552600c6020526040852061140c8582546132cd565b9055600a5416845492813b1561143f57858094610e946040519788968795869463ee9e68bb60e01b865260048601613304565b8580fd5b50346102dd57806003193601126102dd5760206040516000805160206153fe8339815191528152f35b50346102dd57806003193601126102dd576114856136f5565b6001805460ff19169055600a54815482916001600160a01b031690813b15610b655782916024839260405194859384926302ddfefd60e51b845260048401525af18015610b5a57610b4a5750f35b50346102dd5760403660031901126102dd576114ed612f45565b816040516114fa81613145565b526007546040516303d3c9db60e21b8082526020936001600160a01b039384169392909190858180611532602435876004840161334a565b0381885afa92831561115e57869385611571926044948b936115ea575b50168952600d85526040892054906040519161156a83613145565b8252614e2d565b936006541691604051958693849283526004830152600160248301525afa9182156115df576115a79394926115b0575b50614e2d565b60405190518152f35b6115d1919250843d86116115d8575b6115c9818361317b565b81019061332c565b90386115a1565b503d6115bf565b6040513d86823e3d90fd5b611602919350873d89116115d8576115c9818361317b565b913861154f565b50346102dd57806003193601126102dd576008546040516001600160a01b039091168152602090f35b50346102dd5760603660031901126102dd5761164c612f45565b6001600160401b038260243582811161095b5761166d903690600401613019565b9390926044359081116108b357611688903690600401613019565b949091611693613615565b60018060a01b0395866005541660405191632762697d60e01b8352828985169283600483015281602460209687935afa90811561134e5788916117fa575b50156117ec575b865b8581106116e5578780f35b888a611743610650848a61173c828f8f8c8a8f8b8f95610650888b604061172094611711848d8d6132bd565b359981526010885220966132bd565b166000525261173560406000209182546132cd565b90556132bd565b35956132bd565b168952600c855261175960408a209182546132cd565b905589600a541689611771610650848a8d54946132bd565b61177c84868c6132bd565b3592803b156117e857888c80946117a96040519788968795869463ee9e68bb60e01b865260048601613304565b03925af19081156117dd5789916117c5575b50506001016116da565b6117ce9061311c565b6117d95787386117bb565b8780fd5b6040513d8b823e3d90fd5b8b80fd5b6117f5846149c1565b6116d8565b809850848092503d8311611824575b611813818361317b565b81010312610f5357899651386116d1565b503d611809565b50346102dd57806003193601126102dd576020600354604051908152f35b50346102dd5761185836613049565b9060019260ff600154166113595760018060a01b03928360095416926040518094631b6685b560e21b825281600460209788935afa90811561134e578891611b25575b5061130f57906118ac813385614a34565b91879188915b8183106119ba5750505015611188571561199b575b826005541692604051632762697d60e01b81528381602481858716988960048301525afa90811561115e57879161196e575b5015611903578580f35b8593855b61191057508580f35b600b5485101561112c57858095828952601086528360408a2061193283612fb3565b929054600393841b1c1660005287526040600020548581611958575b5050500194611907565b61196692816110f186612fb3565b38808561194e565b90508381813d8311611994575b611985818361317b565b81010312610f535751386118f9565b503d61197b565b6119a481614c10565b6118c7576040516316a0371d60e11b8152600490fd5b909192886119c98585856132bd565b3515611b1e57506000196119de8585856132bd565b3514611ace576119f3906111d68585856132bd565b928760055416908a611a068286866132bd565b3592803b1561095b57611a359382918a8360405180988195829463ec9477e160e01b8452339060048501613225565b03925af1928315611ac1578b93611aa4575b5050611a9c8980611a76611a5c8589896132bd565b35611a6686612fb3565b939054600394851b1c16906141c5565b929091611a8286612fb3565b9054911b1c16611a938589896132bd565b3590338c61464b565b0191906118b2565b611ab09192935061311c565b611abd5788908a38611a47565b8980fd5b50604051903d90823e3d90fd5b60405163dd23c3ad60e01b815260206004820152602160248201527f636c6f73757265416d6f756e74732063616e6e6f742062652075696e74206d616044820152600f60fb1b6064820152608490fd5b9093611a9c565b611b3c9150853d871161134757611339818361317b565b3861189b565b50346102dd57806003193601126102dd5761090e604051611b6281613160565b600b81526a19195d995b1bdc1b595b9d60aa1b6020820152604051918291826131b9565b50346102dd57806003193601126102dd577f00000000000000000000000000000000000000000000000000000000000000006001600160a01b03163003611bdf5760206040516000805160206152de8339815191528152f35b60405163703e46dd60e11b8152600490fd5b50346102dd57611c0036613049565b90600160ff6001541661135957600954604051631b6685b560e21b81526020946001600160a01b03939290919086908290600490829088165afa90811561134e578891611f86575b5061130f57600591836005541694604051631320834f60e01b815287816004818a5afa908115611f7b578a91611f4e575b50421115611f3c5784881693843314611f2a5783600b5403611eab5789936040518981602481632762697d60e01b9c8d82528b60048301525afa908115611ea0578c91611e73575b5015611e61579291908a935b808510611d4857505050505015611188576024849260055416936040519485938492835260048301525afa9182156115df578492611d1a575b505015611d11575080f35b61099290614831565b90809250813d8311611d41575b611d31818361317b565b81010312610f5357513880611d06565b503d611d27565b9091929394611d588683866132bd565b3515611e5957600019611d6c8784876132bd565b35146112ab57611d828c916111d68885886132bd565b95611db88b8d8b875416611d9785888b6132bd565b35918660405180968195829463026aa03f60e21b8452339060048501613225565b03925af18015611e4e578d8b92899592611e15575b50918091611e0b93611df1611de187612fb3565b949054600395861b1c16836141c5565b949093611dfd88612fb3565b9054911b1c16903390614419565b0193929190611ccd565b94505050508a82813d8311611e47575b611e2f818361317b565b81010312610f5357905185919089908d611e0b611dcd565b503d611e25565b6040513d85823e3d90fd5b948490611e0b565b60405163baca79c960e01b8152600490fd5b90508981813d8311611e99575b611e8a818361317b565b81010312610f53575138611cc1565b503d611e80565b6040513d8e823e3d90fd5b60405163dd23c3ad60e01b815260048101899052604a60248201527f436c6f73757265207265706f20746f6b656e20616d6f756e747320617272617960448201527f206e6f742073616d65206c656e67746820617320636f6c6c61746572616c20746064820152691bdad95b9cc81b1a5cdd60b21b608482015260a490fd5b60405163ae957a1d60e01b8152600490fd5b604051633daab04760e21b8152600490fd5b90508781813d8311611f74575b611f65818361317b565b81010312610f53575138611c79565b503d611f5b565b6040513d8c823e3d90fd5b611f9d9150863d881161134757611339818361317b565b38611c48565b5060403660031901126102dd57611fb8612f45565b60249182356001600160401b03811161095b573660238201121561095b578060040135611fe48161319e565b93611ff2604051958661317b565b818552602091828601933688838301011161143f57818692898693018737870101526001600160a01b037f0000000000000000000000000000000000000000000000000000000000000000811630811490811561226d575b50611bdf5760008051602061523e8339815191528060005260008051602061539e8339815191528452604060002033600052845260ff6040600020541615612250575080600a5416803b1561143f5785604051809263b3c2d50b60e01b82528183816120ba8930600484016138dc565b03925af180156122455790869161222d575b50508116946040516352d1902d60e01b815283816004818a5afa8691816121fa575b5061210b57604051634c9c8ce360e01b8152600481018890528890fd5b8690886000805160206152de833981519152918281036121e55750843b156121cf575080546001600160a01b031916821790556040518692917fbc7cd75a20ee27fd9adebab32041f755214dbc6bffa90cc0225b39da2e5c2d3b8480a28151156121b157506103399482915190845af4903d156121a8573d61218c8161319e565b9061219a604051928361317b565b81528581943d92013e61517a565b6060925061517a565b945050505050346121c0575080f35b63b398979f60e01b8152600490fd5b604051634c9c8ce360e01b815260048101849052fd5b60405190632a87526960e21b82526004820152fd5b9091508481813d8311612226575b612212818361317b565b81010312612222575190386120ee565b8680fd5b503d612208565b6122369061311c565b6122415784386120cc565b8480fd5b6040513d88823e3d90fd5b876044916040519163e2517d3f60e01b8352336004840152820152fd5b9050816000805160206152de833981519152541614153861204a565b50346102dd578061229936612fe4565b6122a492919261364d565b6008546001600160a01b0316803b1561224157610e94938580946040519687958694859363109c8cf960e11b855260048501613225565b50346102dd5760203660031901126102dd576020906040906001600160a01b03612303612f45565b168152600f83522054604051908152f35b50346102dd5760603660031901126102dd5761232e6136bd565b806001600160a01b03612349816123436132da565b16613c18565b50600435818116809103610b655761236090613c18565b5080600a5416908254906123726132da565b16823b156123b0576064849283604051958694859363f3782f2160e01b8552600485015230602485015260448401525af18015610b5a57610b4a5750f35b505050fd5b50346102dd5760203660031901126102dd576109926123d2612f45565b6123da61364d565b6149c1565b50346102dd576123ee36612fe4565b9092916123fa846138b5565b156109955792610992929361240d613685565b33906148a8565b50346102dd5760603660031901126102dd5761242e612f45565b6024359161243a612f71565b916000805160206152fe833981519152938460005260209460008051602061539e8339815191528652604060002033600052865260ff604060002054161561033d5750600b939161248c600b5461337c565b926001600160a01b0390828216865b885481101561274057836124ae82612fb3565b90549060031b1c16828952601090818c5260408a20816000528c52604060002054806124e0575b50505060010161249b565b670de0b6b3a764000090898203612608575050838a52818c5260408a20816000528c5260406000205491848b528c5260408a20816000528c52896040600020558161252b848b6133ae565b52808a52600c8c5260408a20612542838254613202565b90558560085416803b156126045760405163109c8cf960e11b8152908b90829081838161257489898e60048501613225565b03925af180156112a057908b916125f0575b505085600a54168a54813b156117e85790888c8094936125bc60405197889687958694633b8d409b60e01b865260048601613304565b03925af180156117dd579089916125dc575b50506001905b9038806124d5565b6125e59061311c565b6117d95787386125ce565b6125f99061311c565b611abd578938612586565b8a80fd5b61262f9060405161261881613145565b8b81528d60405161262881613145565b52516135f2565b8060405161263c81613145565b520491848b528c5260408a20816000528c52604060002061265e838254613202565b90558161266b848b6133ae565b52808a52600c8c5260408a20612682838254613202565b90558560085416803b156126045760405163109c8cf960e11b8152908b9082908183816126b489898e60048501613225565b03925af180156112a057908b9161272c575b505085600a54168a54813b156117e85790888c8094936126fc60405197889687958694633b8d409b60e01b865260048601613304565b03925af180156117dd57908991612718575b50506001906125d4565b6127219061311c565b6117d957873861270e565b6127359061311c565b611abd5789386126c6565b868a89866040519283849282600b54928381520192600b865280862095915b8383106127835788866127748188038261317b565b61090e604051928392836130c0565b865481168552600196870196889650948201949092019161275f565b50346102dd57806003193601126102dd576020600254604051908152f35b50346102dd576127cc36613049565b60ff6001541661135957600954604051631b6685b560e21b815290602090829060049082906001600160a01b03165afa908115612b06578591612ae7575b5061130f57600554604051631320834f60e01b81526001600160a01b039091169290602081600481875afa908115612245578691612ab5575b50421115611f3c57336001600160a01b03851614611f2a5781600b5403612a9b57604051632762697d60e01b81526001600160a01b03851660048201528593909190602090839060249082905afa918215612245578692612a67575b508115611e6157919085925b82841061293457505050501561118857600554604051632762697d60e01b81526001600160a01b038381166004830152909160209183916024918391165afa908115611e4e578391612902575b5015611d11575080f35b90506020813d60201161292c575b8161291d6020938361317b565b81010312610f535751386128f8565b3d9150612910565b909192936129438585846132bd565b3515612a5e576000196129578686856132bd565b3514611ace5761296c906111d68686856132bd565b93828511612a4c5760055487906001600160a01b031661298d8387866132bd565b3590803b156108b3576129bc9183918a8360405180968195829463ec9477e160e01b8452339060048501613225565b03925af18015610b5a57612a38575b505080612a2f6129de60019387866132bd565b35612a036129eb84612fb3565b92905492600393878060a01b0391851b1c16906141c5565b91612a0d85612fb3565b9054911b1c60a086901b86900316612a26858a896132bd565b3590338c614419565b019291906128ab565b612a419061311c565b6122225786386129cb565b604051634fbeca4960e01b8152600490fd5b93600190612a2f565b9091506020813d602011612a93575b81612a836020938361317b565b81010312610f535751903861289f565b3d9150612a76565b60405163dd23c3ad60e01b8152806113046004820161325f565b90506020813d602011612adf575b81612ad06020938361317b565b81010312610f53575138612843565b3d9150612ac3565b612b00915060203d60201161134757611339818361317b565b3861280a565b6040513d87823e3d90fd5b50346102dd57806003193601126102dd57602060405160008051602061535e8339815191528152f35b50346102dd5760403660031901126102dd57612b54612f5b565b336001600160a01b03821603612b7057610339906004356140e7565b60405163334bd91960e11b8152600490fd5b50346102dd5760403660031901126102dd57610339600435612ba2612f5b565b9080845260008051602061539e833981519152602052612bc8600160408620015461372d565b614072565b50346102dd5760403660031901126102dd57612be7612f45565b612bf0816138b5565b15610a7e576109929060243590336138f6565b50346102dd5760203660031901126102dd576020906040906001600160a01b03612c2b612f45565b168152600e83522054604051908152f35b50346102dd57806003193601126102dd57602060405160008051602061529e8339815191528152f35b50346102dd57806003193601126102dd576009546040516001600160a01b039091168152602090f35b50346102dd5760203660031901126102dd5760016040602092600435815260008051602061539e8339815191528452200154604051908152f35b50346102dd5780612cd836612fe4565b90612ce493929361364d565b6008546001600160a01b031690813b156108af5783612d1a956040519687958694859363049f2a5160e21b855260048501613225565b03925af18015610b5a57612d2c575080f35b6109929061311c565b50346102dd5760203660031901126102dd576020906040906001600160a01b03612d5d612f45565b168152600d83522054604051908152f35b50346102dd57806003193601126102dd57602060405160008051602061523e8339815191528152f35b50346102dd57806003193601126102dd57602060ff60015460101c16604051908152f35b50346102dd5760203660031901126102dd5760043590600b548210156102dd576020612de683612fb3565b905460405160039290921b1c6001600160a01b03168152f35b50346102dd5760208060031936011261095b5790612e1b612f45565b90612e24613615565b6001600160a01b0392828416825b600b54811015612e9a578086612e49600193612fb3565b90549060031b1c1683865260108552604086208187528552604086205480612e74575b505001612e32565b612e9391600c875260408820612e8b838254613202565b905588613760565b3880612e6c565b8380f35b50346102dd57806003193601126102dd57602060405160008051602061521e8339815191528152f35b50346102dd57806003193601126102dd5760206040516000805160206153de8339815191528152f35b90503461095b57602036600319011261095b5760043563ffffffff60e01b81168091036108b35760209250637965db0b60e01b8114908115612f34575b5015158152f35b6301ffc9a760e01b14905038612f2d565b600435906001600160a01b0382168203610f5357565b602435906001600160a01b0382168203610f5357565b604435906001600160a01b0382168203610f5357565b608435906001600160a01b0382168203610f5357565b60e435906001600160a01b0382168203610f5357565b600b54811015612fce57600b60005260206000200190600090565b634e487b7160e01b600052603260045260246000fd5b6060906003190112610f53576001600160a01b03906004358281168103610f5357916024359081168103610f53579060443590565b9181601f84011215610f53578235916001600160401b038311610f53576020808501948460051b010111610f5357565b906040600319830112610f53576004356001600160a01b0381168103610f535791602435906001600160401b038211610f535761308891600401613019565b9091565b90815180825260208080930193019160005b8281106130ac575050505090565b83518552938101939281019260010161309e565b9092916040820191604081528451809352606081019260208096019060005b8181106130ff575050506130fc939450602081840391015261308c565b90565b82516001600160a01b0316865294870194918701916001016130df565b6001600160401b03811161312f57604052565b634e487b7160e01b600052604160045260246000fd5b602081019081106001600160401b0382111761312f57604052565b604081019081106001600160401b0382111761312f57604052565b601f909101601f19168101906001600160401b0382119082101761312f57604052565b6001600160401b03811161312f57601f01601f191660200190565b6020808252825181830181905290939260005b8281106131ee57505060409293506000838284010152601f8019910116010190565b8181018601518482016040015285016131cc565b9190820391821161320f57565b634e487b7160e01b600052601160045260246000fd5b6001600160a01b03918216815291166020820152604081019190915260600190565b90816020910312610f5357518015158103610f535790565b60809060208152603f60208201527f436c6f7375726520616d6f756e7473206172726179206e6f742073616d65206c60408201527f656e67746820617320636f6c6c61746572616c20746f6b656e73206c6973740060608201520190565b9190811015612fce5760051b0190565b9190820180921161320f57565b6024356001600160a01b0381168103610f535790565b356001600160a01b0381168103610f535790565b9081526001600160a01b03918216602082015291166040820152606081019190915260800190565b90816020910312610f53576040519061334482613145565b51815290565b6001600160a01b039091168152602081019190915260400190565b6001600160401b03811161312f5760051b60200190565b9061338682613365565b613393604051918261317b565b82815280926133a4601f1991613365565b0190602036910137565b8051821015612fce5760209160051b010190565b60018060a01b0380600754169080600654169080600554169360409283518096632762697d60e01b825284600494169081600484015282602460209485935afa97881561356b57600098613576575b5081613432988751809a81926303d3c9db60e21b978884526004840161334a565b03818a5afa97881561356b5760009861354c575b50959493929190845161345881613145565b6000815296600096600b54955b868910613487575050505050505050505190511161348257600090565b600190565b9091929394959697986134d489868989868f6134a290612fb3565b90549060031b1c169485948a60005260108552806000208660005285528060002054905196879485948552840161334a565b0381885afa91821561354157613513926001949261350e92600092613522575b50600052600d89528c60002054908d519161156a83613145565b615011565b99019796959493929190613465565b61353a9192508a3d8c116115d8576115c9818361317b565b90386134f4565b8b513d6000823e3d90fd5b613564919850823d84116115d8576115c9818361317b565b9638613446565b86513d6000823e3d90fd5b97508188813d831161359e575b61358d818361317b565b81010312610f535796519681613411565b503d613583565b600b5460005b8181106135b9575050600090565b6135c281612fb3565b60018060a01b0391549060031b1c16600052600c6020526040600020546135eb576001016135ab565b5050600190565b8181029291811591840414171561320f57565b9190811015612fce5760071b0190565b3360009081526000805160206151fe833981519152602052604090205460008051602061521e8339815191529060ff161561033d5750565b33600090815260008051602061531e833981519152602052604090205460008051602061535e8339815191529060ff161561033d5750565b3360009081526000805160206153be833981519152602052604090205460008051602061533e8339815191529060ff161561033d5750565b3360009081526000805160206152be833981519152602052604090205460008051602061529e8339815191529060ff161561033d5750565b33600090815260008051602061525e83398151915260205260409020546000805160206153fe8339815191529060ff161561033d5750565b8060005260008051602061539e83398151915260205260406000203360005260205260ff604060002054161561033d5750565b91909160009260018060a01b039182811692838652601060205260409384872090828516918289526020528588205487116138a4578260085416803b15610ebc57865163109c8cf960e11b815290899082908183816137c48e8d8d60048501613225565b03925af19081613891575b506137df575b5050505050505050565b87526010602052848720816000526020528685600020613800888254613202565b9055613874575b50600a5416908554823b156122225790868094939261383b875198899687958694633b8d409b60e01b865260048601613304565b03925af190811561386b5750613857575b8080808080806137d5565b613861829161311c565b6102dd578061384c565b513d84823e3d90fd5b8652600c602052838620613889868254613202565b905538613807565b61389d9099919961311c565b97386137cf565b855163380984fd60e21b8152600490fd5b6001600160a01b03166000908152600f6020526040902054156138d757600190565b600090565b6001600160a01b0391821681529116602082015260400190565b91908115613be45760018060a01b0380841660009381855260209260108452604093848720908287169182895281528588205415613bd3578260055416865198631320834f60e01b8a5260049983818c81865afa908115613b35578291613ba6575b5042101580613b4f575b613b3f578091838860248d8c519485938492632762697d60e01b84528301525afa908115613b35578291613b08575b50613aff575b8096808252601084528882208583528452888220548711613aef578560085416803b156108b3579087838c8f948f95838f98976139e78a519788968795869463109c8cf960e11b86528501613225565b03925af19081613adc575b50613a2f575b505050505050505050613a0a846133c2565b613a145750505050565b51632263ff6560e11b815292839261130492919084016138dc565b885260108452818820858252845220613a49868254613202565b9055613abf575b5050600a541690825490823b156108af57859284928389613a868c958a5198899788968795633b8d409b60e01b87528601613304565b03925af18015613ab557613aa1575b808080808681806139f8565b613aab829161311c565b6102dd5780613a95565b83513d84823e3d90fd5b600c91855252838320613ad3838254613202565b90553880613a50565b613ae7919a5061311c565b8198386139f2565b885163380984fd60e21b81528b90fd5b60019150613997565b90508381813d8311613b2e575b613b1f818361317b565b8101031261095b575138613991565b503d613b15565b89513d84823e3d90fd5b8751633f5a890f60e01b81528a90fd5b508751631b23543760e01b815283818c81865afa908115613b35578291613b79575b504210613962565b90508381813d8311613b9f575b613b90818361317b565b8101031261095b575138613b71565b503d613b86565b90508381813d8311613bcc575b613bbd818361317b565b8101031261095b575138613958565b503d613bb3565b85516314605b7760e01b8152600490fd5b60405163dd23c3ad60e01b815260206004820152600b60248201526a16995c9bc8185b5bdd5b9d60aa1b6044820152606490fd5b6001600160a01b0316600081815260008051602061531e833981519152602052604081205490919060008051602061535e8339815191529060008051602061539e8339815191529060ff16613c9e578184526020526040832082845260205260408320600160ff198254161790556000805160206151de833981519152339380a4600190565b50505090565b6001600160a01b031660008181526000805160206151fe833981519152602052604081205490919060008051602061521e8339815191529060008051602061539e8339815191529060ff16613c9e578184526020526040832082845260205260408320600160ff198254161790556000805160206151de833981519152339380a4600190565b6001600160a01b0316600081815260008051602061527e83398151915260205260408120549091906000805160206153de8339815191529060008051602061539e8339815191529060ff16613c9e578184526020526040832082845260205260408320600160ff198254161790556000805160206151de833981519152339380a4600190565b6001600160a01b031660008181526000805160206153be833981519152602052604081205490919060008051602061533e8339815191529060008051602061539e8339815191529060ff16613c9e578184526020526040832082845260205260408320600160ff198254161790556000805160206151de833981519152339380a4600190565b6001600160a01b031660008181527f0cfb002fcf8644f87ebf6cf6e31899c8d8e9f7c329b465b6e36989a958507e8b602052604081205490919060008051602061523e8339815191529060008051602061539e8339815191529060ff16613c9e578184526020526040832082845260205260408320600160ff198254161790556000805160206151de833981519152339380a4600190565b6001600160a01b0316600081815260008051602061525e83398151915260205260408120549091906000805160206153fe8339815191529060008051602061539e8339815191529060ff16613c9e578184526020526040832082845260205260408320600160ff198254161790556000805160206151de833981519152339380a4600190565b6001600160a01b031660008181526000805160206152be833981519152602052604081205490919060008051602061529e8339815191529060008051602061539e8339815191529060ff16613c9e578184526020526040832082845260205260408320600160ff198254161790556000805160206151de833981519152339380a4600190565b6001600160a01b031660008181527fe0fa667d5da66691d383b7f9adac3d76155de839dedfa082769d2d0b3e80621260205260408120549091906000805160206152fe8339815191529060008051602061539e8339815191529060ff16613c9e578184526020526040832082845260205260408320600160ff198254161790556000805160206151de833981519152339380a4600190565b9060009180835260008051602061539e83398151915280602052604084209260018060a01b03169283855260205260ff60408520541615600014613c9e578184526020526040832082845260205260408320600160ff198254161790556000805160206151de833981519152339380a4600190565b9060009180835260008051602061539e83398151915280602052604084209260018060a01b03169283855260205260ff604085205416600014613c9e57818452602052604083208284526020526040832060ff1981541690557ff6391f5c32d9c69d2a47ea670b442974b53935d1edc7fd64eb21e047a839171b339380a4600190565b90816020910312610f53575160ff81168103610f535790565b60ff16604d811161320f57600a0a90565b60ff166012039060ff821161320f57565b81156141af570490565b634e487b7160e01b600052601260045260246000fd5b919060018060a01b0380821681600754169160065416916040928351916303d3c9db60e21b91828452838061420160209b8c946004840161334a565b0381845afa9283156143a4576000936143fa575b50845163313ce56760e01b80825296908981600481895afa9081156143ef579161424f8b94926142649796946000916143d2575b50614183565b9288519687948593849384526004840161334a565b03915afa9182156143c7579061428292916000926143af5750614e2d565b946142e16142c96142c3855161429781613145565b670de0b6b3a7640000815285600052600f85528660002054908751916142bc83613145565b8252615011565b88615117565b96600354908551916142da83613145565b8252615117565b955183518581528281600481875afa9081156143a4579161431761431261431d938695600091614387575b50614194565b614183565b906141a5565b965194600485518095819382525afa92831561437d57506130fc93926143179261431292600092614350575b5050614194565b61436f9250803d10614376575b614367818361317b565b81019061416a565b3880614349565b503d61435d565b513d6000823e3d90fd5b61439e9150863d881161437657614367818361317b565b3861430c565b85513d6000823e3d90fd5b6115d1919250883d8a116115d8576115c9818361317b565b84513d6000823e3d90fd5b6143e99150863d881161437657614367818361317b565b38614249565b87513d6000823e3d90fd5b614412919350883d8a116115d8576115c9818361317b565b9138614215565b9093919260009560018060a01b038093169384885260209560108752604096878a209186811692838c528252888b2054841161463357878b5260108252888b20838c528252888b2061446c858254613202565b9055828b52600c8252888b20614483858254613202565b9055866008541660048389600954168c519283809263012f8d2f60e11b82525afa938415614629578d946145f0575b5050803b156117e8578b8a5180928183816144dd8c8963109c8cf960e11b9b8c855260048501613225565b03925af180156145e6576145d3575b5086600854166144fc8686613202565b92813b156145cf57908b8d8094936145218e5197889687958694855260048501613225565b03925af180156145c557908a916145b1575b505084600a541693895495853b15612604579261010495928b9897959289958b519c8d9a8b99639cc487d760e01b8b5260048b015260248a01521660448801526064870152608486015260a485015260c4840152600160e48401525af190811561386b57506145a0575050565b6145aa829161311c565b6102dd5750565b6145ba9061311c565b610ebc578838614533565b88513d8c823e3d90fd5b8c80fd5b6145df909b919b61311c565b99386144ec565b8a513d8e823e3d90fd5b9080929450813d8311614622575b614608818361317b565b810103126117e8575187811681036117e8579138806144b2565b503d6145fe565b8b513d8f823e3d90fd5b88516398de333560e01b815260048101849052602490fd5b9093919260009560018060a01b038093169384885260209560108752604096878a209186811692838c528252888b2054841161463357878b5260108252888b20838c528252888b2061469e858254613202565b9055828b52600c8252888b206146b5858254613202565b9055866008541660048389600954168c519283809263012f8d2f60e11b82525afa938415614629578d946147f8575b5050803b156117e8578b8a51809281838161470f8c8963109c8cf960e11b9b8c855260048501613225565b03925af180156145e6576147e5575b50866008541661472e8686613202565b92813b156145cf57908b8d8094936147538e5197889687958694855260048501613225565b03925af180156145c557908a916147d1575b505084600a541693895495853b15612604579261010495928b9897959289958b519c8d9a8b99639cc487d760e01b8b5260048b015260248a01521660448801526064870152608486015260a485015260c48401528160e48401525af190811561386b57506145a0575050565b6147da9061311c565b610ebc578838614765565b6147f1909b919b61311c565b993861471e565b9080929450813d831161482a575b614810818361317b565b810103126117e8575187811681036117e8579138806146e4565b503d614806565b60005b600b548110156148a457600190818060a01b0380841660005261489c602060108152600c604091848360002061486988612fb3565b979054600398891b1c16600052825283600020549561488788612fb3565b9054911b1c1660005252600020918254613202565b905501614834565b5050565b60055460408051631320834f60e01b8152909695949392916020916001600160a01b0391821691908381600481865afa9081156149b657600091614989575b50421161497857829060248a5180948193632762697d60e01b8352881660048301525afa91821561496d5760009261493f575b50501561492e5761492c949550614e74565b565b855163baca79c960e01b8152600490fd5b90809250813d8311614966575b614956818361317b565b81010312610f535751388061491a565b503d61494c565b88513d6000823e3d90fd5b885163c5e2992f60e01b8152600490fd5b90508381813d83116149af575b6149a0818361317b565b81010312610f535751386148e7565b503d614996565b8a513d6000823e3d90fd5b60005b600b548110156148a457806149da600192612fb3565b90838060a01b0390549181861660005260209160108352604093846000209260031b1c16600052815281600020549182614a18575b505050016149c4565b600c614a2a92526000209182546132cd565b9055388080614a0f565b60055460408051631320834f60e01b81529095946004946020946001600160a01b0394909390851692919086818981875afa9081156149b657600091614be3575b504211614bd3578484169392919085168414614bc357600b5403614bab5790846024949392895195868092632762697d60e01b8252868b8301525afa93841561496d57600094614b7c575b508315614b6c57614ad0906133c2565b15614b5c57918391614b159360005260108352614aef8860002061502e565b9581600754169160065416908951958694859384936303d3c9db60e21b8552840161334a565b03915afa9182156143a457614b3b93949550600092614b3f575b505051600254906132cd565b1190565b614b559250803d106115d8576115c9818361317b565b3880614b2f565b865163e94a979360e01b81528590fd5b875163baca79c960e01b81528690fd5b9093508481813d8311614ba4575b614b94818361317b565b81010312610f5357519238614ac0565b503d614b8a565b875163dd23c3ad60e01b81528061130481890161325f565b885163ae957a1d60e01b81528790fd5b88516321f8431560e01b81528790fd5b90508681813d8311614c09575b614bfa818361317b565b81010312610f53575138614a75565b503d614bf0565b60055460408051632762697d60e01b81526001600160a01b03938416600480830182905292949093602093919084908490602490829085165afa92831561356b57600093614dfe575b508215614df3578551614c6b81613145565b6000815294600090600b54908360075416945b828410614d395750505050918391614caf936006541687518095819482936303d3c9db60e21b84526004840161334a565b03915afa9182156143c757600092614d1c575b50508151815111614d1457614ceb614cfe9260008551614ce181613145565b5251825190613202565b835190614cf782613145565b8152614e2d565b600454809251614d0d81613145565b5251111590565b505050600190565b614d329250803d106115d8576115c9818361317b565b3880614cc2565b90919297614d8385614d4a8b612fb3565b90549060031b1c168460005260108a528b600020816000528a52898c600020548d51809481926303d3c9db60e21b83528589840161334a565b03818b5afa918215614de8578c614dbf936001959361350e938e600093614dc9575b5050600052600e8d52816000205491519161156a83613145565b9801929190614c7e565b614de0929350803d106115d8576115c9818361317b565b90388e614da5565b8c513d6000823e3d90fd5b505050505050600090565b9092508381813d8311614e26575b614e16818361317b565b81010312610f5357519138614c59565b503d614e0c565b6000604051614e3b81613145565b5251670de0b6b3a76400009081810291818304149015171561320f57614e629151906141a5565b60405190614e6f82613145565b815290565b929160009360018060a01b03808216938487526024602060108152604096878a209085881691828c528352888b20548387600554168b5196878092632762697d60e01b82528660048301525afa80156145e6578c90614fdb575b600c95501580614fd2575b614fb6575b508a5260108252878a20818b528252878a20614efb8a82546132cd565b9055895252848720614f0e8782546132cd565b9055816008541690813b156117d95786614f4292868a80948a519687958694859363049f2a5160e21b855260048501613225565b03925af18015614fac57614f99575b50600a5416908554823b1561222257908680949392614f8587519889968795869463ee9e68bb60e01b865260048601613304565b03925af190811561386b57506145a0575050565b614fa59096919661311c565b9438614f51565b85513d89823e3d90fd5b828c52848452614fca8a8d209182546132cd565b905538614ede565b50801515614ed9565b50909192938481813d831161500a575b614ff5818361317b565b810103126117e85790600c9493929151614ece565b503d614feb565b90614e6291600060405161502481613145565b52519051906132cd565b6040805161503b81613145565b600090818152928192600b549160018060a01b03908160075416905b84871061506957505050505050505190565b9091929394959661507988612fb3565b9190546003866150888c612fb3565b905490831b1c168a5260209384918683526150be8a8d20548a8c5196879586956303d3c9db60e21b87521b1c166004840161334a565b0381885afa92831561510d5791600193916150e1938b936150ee575b5050615011565b9701959493929190615057565b615105929350803d106115d8576115c9818361317b565b9038806150da565b87513d8b823e3d90fd5b670de0b6b3a76400009161513d91600060405161513381613145565b52519051906135f2565b0460405190614e6f82613145565b60ff60008051602061541e8339815191525460401c161561516857565b604051631afcd79f60e31b8152600490fd5b906151a1575080511561518f57805190602001fd5b60405163d6bda27560e01b8152600490fd5b815115806151d4575b6151b2575090565b604051639996b31560e01b81526001600160a01b039091166004820152602490fd5b50803b156151aa56fe2f8788117e7eff1d82e926ec794901d17c78024a50270940304540a733656f0d265ec2c7f23b289e86ed2d877ad4b447b70ac08332783d1ba335eb6541af8c3c250b76734a070a69c7b3930477dd35007ad9c9d0952e97903fdafb2db6980537793a6c9b7e0a9549c74edc2f9ae0dc50903dfaa9a56fb0116b27a8c71de3e2c6b16e88c42fd4e48df2dd6a2eabd6bc9aec654ec170056b470819f8892cc6431cd7a4b94e3999c665472d525c803b137e79362305144db4ed5b3b50836858e97a30d41a597cac127d8249d31298b50e481ee82c3f4a49ff93c76a22735aa9f3ad44fa5399874b75da801cb431822b6afcadb876f84eb39d7f05bf697e94b4484e360894a13ba1a3210667c828492db98dca3e2076cc3735a920a3ca505d382bbcf4b6b486426e3c004413defb7013cd482f29189a98e074f1c202b2ac26536bb28ba309f7c97dad724319b8727ac7a1b9dff7d9f9f8b4ce23cf917c51e66066cbc36a8568220526774f62a808c5b8dd8b7191b32206f87b2bfd114958435899636e14a979b95b01beecd617807f3738f4e067938da99755b16afdcf7148d313b70175b7a638427703f0dbe7bb9bbf987a2551717b34e79f33b5b1008d1fa01db902dd7bc7dec4dceedda775e58dd541e08a116c6c53815c0bd028192f7b62680071dad3b8d800ed6b81a4c9f84973579b8b42e673b9a0771be09894ef8040dd786e3cc031d23d7153f72e87cbfd113a0351c60d8ce52b8a31c944d543a384b7c9a49807205ce4d355092ef5a8a18f56e8913cf4a201fbe287825b095693c21775f0c57e16840df040f15088dc2f81fe391c3923bec73e23a9662efc9c229c6a00a26469706673582212209feb82fd5d676aa02f0552b058b2f37a9ee9d2c35fe23de52ce798766c4b3a7264736f6c63430008160033",
  "linkReferences": {},
  "deployedLinkReferences": {}
}