{
  "_format": "hh-sol-artifact-1",
  "contractName": "TermSettlementWithHooksFacet",
  "sourceName": "contracts/facets/TermSettlementWithHooksFacet.sol",
  "abi": [
    {
      "inputs": [
        {
          "internalType": "address",
          "name": "target",
          "type": "address"
        }
      ],
      "name": "AddressEmptyCode",
      "type": "error"
    },
    {
      "inputs": [],
      "name": "AfterMaturity",
      "type": "error"
    },
    {
      "inputs": [],
      "name": "AlreadyInitialized",
      "type": "error"
    },
    {
      "inputs": [
        {
          "internalType": "address",
          "name": "signer",
          "type": "address"
        }
      ],
      "name": "AlreadyPreSigned",
      "type": "error"
    },
    {
      "inputs": [],
      "name": "FailedCall",
      "type": "error"
    },
    {
      "inputs": [],
      "name": "FeeRecipientAlreadyApproved",
      "type": "error"
    },
    {
      "inputs": [
        {
          "internalType": "uint256",
          "name": "balance",
          "type": "uint256"
        },
        {
          "internalType": "uint256",
          "name": "needed",
          "type": "uint256"
        }
      ],
      "name": "InsufficientBalance",
      "type": "error"
    },
    {
      "inputs": [],
      "name": "InsufficientFundsRetrieved",
      "type": "error"
    },
    {
      "inputs": [
        {
          "internalType": "uint256",
          "name": "capacityRemaining",
          "type": "uint256"
        }
      ],
      "name": "InsufficientRemainingCapacity",
      "type": "error"
    },
    {
      "inputs": [],
      "name": "InvalidCollateralAmountsInput",
      "type": "error"
    },
    {
      "inputs": [],
      "name": "InvalidDiscountRate",
      "type": "error"
    },
    {
      "inputs": [],
      "name": "InvalidFee",
      "type": "error"
    },
    {
      "inputs": [],
      "name": "InvalidFeeRecipient",
      "type": "error"
    },
    {
      "inputs": [],
      "name": "InvalidFillAmount",
      "type": "error"
    },
    {
      "inputs": [],
      "name": "InvalidMinSalt",
      "type": "error"
    },
    {
      "inputs": [],
      "name": "InvalidOfferRate",
      "type": "error"
    },
    {
      "inputs": [],
      "name": "InvalidOrderStatus",
      "type": "error"
    },
    {
      "inputs": [
        {
          "internalType": "string",
          "name": "message",
          "type": "string"
        }
      ],
      "name": "InvalidParameters",
      "type": "error"
    },
    {
      "inputs": [],
      "name": "InvalidPurchaseTokenAmount",
      "type": "error"
    },
    {
      "inputs": [],
      "name": "InvalidRepoId",
      "type": "error"
    },
    {
      "inputs": [],
      "name": "InvalidRetrieveFundsFunction",
      "type": "error"
    },
    {
      "inputs": [],
      "name": "InvalidRetrieveFundsListLength",
      "type": "error"
    },
    {
      "inputs": [
        {
          "internalType": "address",
          "name": "expected",
          "type": "address"
        },
        {
          "internalType": "address",
          "name": "actual",
          "type": "address"
        }
      ],
      "name": "InvalidSender",
      "type": "error"
    },
    {
      "inputs": [],
      "name": "InvalidSignature",
      "type": "error"
    },
    {
      "inputs": [],
      "name": "InvalidSwapOrderToFill",
      "type": "error"
    },
    {
      "inputs": [
        {
          "internalType": "address",
          "name": "expected",
          "type": "address"
        },
        {
          "internalType": "address",
          "name": "actual",
          "type": "address"
        }
      ],
      "name": "InvalidTaker",
      "type": "error"
    },
    {
      "inputs": [],
      "name": "InvalidTermController",
      "type": "error"
    },
    {
      "inputs": [],
      "name": "MakerCannotBeTaker",
      "type": "error"
    },
    {
      "inputs": [],
      "name": "OrderCancelled",
      "type": "error"
    },
    {
      "inputs": [],
      "name": "OrderExpired",
      "type": "error"
    },
    {
      "inputs": [],
      "name": "RetrieveFundsNotSpecified",
      "type": "error"
    },
    {
      "inputs": [],
      "name": "TermControllerAlreadyApproved",
      "type": "error"
    },
    {
      "inputs": [],
      "name": "UnsupportedSelector",
      "type": "error"
    },
    {
      "inputs": [
        {
          "components": [
            {
              "internalType": "address",
              "name": "repoServicer",
              "type": "address"
            },
            {
              "internalType": "uint256",
              "name": "purchaseTokenAmount",
              "type": "uint256"
            },
            {
              "internalType": "uint256[]",
              "name": "collateralAmounts",
              "type": "uint256[]"
            },
            {
              "internalType": "uint256",
              "name": "offerRate",
              "type": "uint256"
            },
            {
              "internalType": "address",
              "name": "maker",
              "type": "address"
            },
            {
              "internalType": "address",
              "name": "taker",
              "type": "address"
            },
            {
              "internalType": "uint256",
              "name": "borrowFee",
              "type": "uint256"
            },
            {
              "internalType": "address",
              "name": "feeRecipient",
              "type": "address"
            },
            {
              "internalType": "uint256",
              "name": "expiry",
              "type": "uint256"
            },
            {
              "internalType": "uint256",
              "name": "salt",
              "type": "uint256"
            },
            {
              "components": [
                {
                  "internalType": "bytes4",
                  "name": "method",
                  "type": "bytes4"
                },
                {
                  "internalType": "address",
                  "name": "target",
                  "type": "address"
                },
                {
                  "internalType": "bytes",
                  "name": "additionalCalldata",
                  "type": "bytes"
                }
              ],
              "internalType": "struct ITermIntent.RetrieveFundsStruct[]",
              "name": "retrieveFundsList",
              "type": "tuple[]"
            }
          ],
          "internalType": "struct ITermIntent.LimitBorrowOrder",
          "name": "order",
          "type": "tuple"
        },
        {
          "internalType": "uint256",
          "name": "fillAmount",
          "type": "uint256"
        },
        {
          "components": [
            {
              "internalType": "enum ITermIntent.SignatureType",
              "name": "sigType",
              "type": "uint8"
            },
            {
              "internalType": "bytes",
              "name": "sigData",
              "type": "bytes"
            }
          ],
          "internalType": "struct ITermIntent.Signature",
          "name": "signature",
          "type": "tuple"
        },
        {
          "components": [
            {
              "internalType": "bytes4",
              "name": "method",
              "type": "bytes4"
            },
            {
              "internalType": "address",
              "name": "target",
              "type": "address"
            },
            {
              "internalType": "bytes",
              "name": "additionalCalldata",
              "type": "bytes"
            }
          ],
          "internalType": "struct ITermIntent.RetrieveFundsStruct",
          "name": "retrieveFunds",
          "type": "tuple"
        }
      ],
      "name": "settleLimitBorrowWithHook",
      "outputs": [],
      "stateMutability": "nonpayable",
      "type": "function"
    },
    {
      "inputs": [
        {
          "components": [
            {
              "internalType": "address",
              "name": "repoServicer",
              "type": "address"
            },
            {
              "internalType": "uint256",
              "name": "purchaseTokenAmount",
              "type": "uint256"
            },
            {
              "internalType": "uint256",
              "name": "offerRate",
              "type": "uint256"
            },
            {
              "internalType": "address",
              "name": "maker",
              "type": "address"
            },
            {
              "internalType": "address",
              "name": "taker",
              "type": "address"
            },
            {
              "internalType": "uint256",
              "name": "borrowFee",
              "type": "uint256"
            },
            {
              "internalType": "address",
              "name": "feeRecipient",
              "type": "address"
            },
            {
              "internalType": "uint256",
              "name": "expiry",
              "type": "uint256"
            },
            {
              "internalType": "uint256",
              "name": "salt",
              "type": "uint256"
            },
            {
              "components": [
                {
                  "internalType": "bytes4",
                  "name": "method",
                  "type": "bytes4"
                },
                {
                  "internalType": "address",
                  "name": "target",
                  "type": "address"
                },
                {
                  "internalType": "bytes",
                  "name": "additionalCalldata",
                  "type": "bytes"
                }
              ],
              "internalType": "struct ITermIntent.RetrieveFundsStruct",
              "name": "retrieveFunds",
              "type": "tuple"
            }
          ],
          "internalType": "struct ITermIntent.LimitLendOrder",
          "name": "order",
          "type": "tuple"
        },
        {
          "internalType": "uint256",
          "name": "fillAmount",
          "type": "uint256"
        },
        {
          "internalType": "uint256[]",
          "name": "collateralAmounts",
          "type": "uint256[]"
        },
        {
          "components": [
            {
              "internalType": "enum ITermIntent.SignatureType",
              "name": "sigType",
              "type": "uint8"
            },
            {
              "internalType": "bytes",
              "name": "sigData",
              "type": "bytes"
            }
          ],
          "internalType": "struct ITermIntent.Signature",
          "name": "signature",
          "type": "tuple"
        },
        {
          "components": [
            {
              "internalType": "bytes4",
              "name": "method",
              "type": "bytes4"
            },
            {
              "internalType": "address",
              "name": "target",
              "type": "address"
            },
            {
              "internalType": "bytes",
              "name": "additionalCalldata",
              "type": "bytes"
            }
          ],
          "internalType": "struct ITermIntent.RetrieveFundsStruct[]",
          "name": "retrieveFundsList",
          "type": "tuple[]"
        }
      ],
      "name": "settleLimitLendWithHook",
      "outputs": [],
      "stateMutability": "nonpayable",
      "type": "function"
    },
    {
      "inputs": [
        {
          "components": [
            {
              "internalType": "address",
              "name": "repoToken",
              "type": "address"
            },
            {
              "internalType": "bool",
              "name": "makerAssetIsPurchaseToken",
              "type": "bool"
            },
            {
              "internalType": "uint256",
              "name": "purchaseTokenAmount",
              "type": "uint256"
            },
            {
              "internalType": "uint256",
              "name": "discountRate",
              "type": "uint256"
            },
            {
              "internalType": "address",
              "name": "maker",
              "type": "address"
            },
            {
              "internalType": "address",
              "name": "taker",
              "type": "address"
            },
            {
              "internalType": "uint256",
              "name": "makerFee",
              "type": "uint256"
            },
            {
              "internalType": "uint256",
              "name": "takerFee",
              "type": "uint256"
            },
            {
              "internalType": "address",
              "name": "feeRecipient",
              "type": "address"
            },
            {
              "internalType": "uint256",
              "name": "expiry",
              "type": "uint256"
            },
            {
              "internalType": "uint256",
              "name": "salt",
              "type": "uint256"
            },
            {
              "components": [
                {
                  "internalType": "bytes4",
                  "name": "method",
                  "type": "bytes4"
                },
                {
                  "internalType": "address",
                  "name": "target",
                  "type": "address"
                },
                {
                  "internalType": "bytes",
                  "name": "additionalCalldata",
                  "type": "bytes"
                }
              ],
              "internalType": "struct ITermIntent.RetrieveFundsStruct",
              "name": "retrieveFunds",
              "type": "tuple"
            }
          ],
          "internalType": "struct ITermIntent.RepoTokenSwapOrder",
          "name": "order",
          "type": "tuple"
        },
        {
          "internalType": "uint256",
          "name": "fillAmount",
          "type": "uint256"
        },
        {
          "components": [
            {
              "internalType": "enum ITermIntent.SignatureType",
              "name": "sigType",
              "type": "uint8"
            },
            {
              "internalType": "bytes",
              "name": "sigData",
              "type": "bytes"
            }
          ],
          "internalType": "struct ITermIntent.Signature",
          "name": "signature",
          "type": "tuple"
        },
        {
          "components": [
            {
              "internalType": "bytes4",
              "name": "method",
              "type": "bytes4"
            },
            {
              "internalType": "address",
              "name": "target",
              "type": "address"
            },
            {
              "internalType": "bytes",
              "name": "additionalCalldata",
              "type": "bytes"
            }
          ],
          "internalType": "struct ITermIntent.RetrieveFundsStruct",
          "name": "retrieveFunds",
          "type": "tuple"
        }
      ],
      "name": "swapRepoTokenWithHook",
      "outputs": [],
      "stateMutability": "nonpayable",
      "type": "function"
    }
  ],
  "bytecode": "0x6080806040523461001657611ae8908161001c8239f35b600080fdfe6080604052600436101561001257600080fd5b6000803560e01c80636eaf6900146109ab578063e2711592146105345763fec28dd21461003e57600080fd5b34610531576003196080368201126103a657600435906001600160401b0380831161052d5761016090818385360301126105295760405191820182811082821117610513576040526100928460040161110c565b825260249060209283810195838101358752604481013583811161050f576100c0906004369184010161120a565b6040830152606481013560608301526100db6084820161110c565b60808301526100ec60a4820161110c565b60a083015260c481013560c083015261010760e4820161110c565b60e08301526101048101356101008301526101248101356101208301526101448101359083821161050f57600461014192369201016112b3565b61014082015282359360443583811161050f5761016290369060040161126a565b9260643590811161050f5761017b903690600401611182565b600080516020611a73833981519152805490986001600160a01b0392916101a490841615611332565b6101ad3361137b565b87156104fd576101bc8261175f565b156104eb5760405163df940eb960e01b8152600481018590528481806101e48b82018a611677565b0381305afa908115610440578c916104be575b508b52600080516020611a93833981519152845260408b20906040519161021d836110bb565b546001600160801b038082168452919060801c60ff1660048110156104ab578684015251915161024f9291169061180c565b878110610494575090829160049382865116604051958680926354ae26b160e11b82525afa938415610489578b9461044b575b506102909084893392611819565b9261029a336113a9565b1690604051926370a0823160e01b9081855230600486015282858981875afa948515610440578c9561040d575b50906102d48392306119ac565b50876040518095819382523060048301525afa9182156104025787918b936103cb575b5050610303919261145b565b116103b9578694303b156103b557859361033e936103579260405197889687966319d394f360e01b8852608060048901526084880190611677565b93339087015260448601528483030160648501526115a2565b038183305af180156103aa57610392575b5050600080516020611a5383398151915280546001600160a01b0319908116909155815416905580f35b61039b906110d6565b6103a6578138610368565b5080fd5b6040513d84823e3d90fd5b8580fd5b604051630d3f033d60e31b8152600490fd5b8193508092503d83116103fb575b6103e381836110e9565b810103126103f6575185610303386102f7565b600080fd5b503d6103d9565b6040513d8c823e3d90fd5b919094508282813d8311610439575b61042681836110e9565b810103126103f6579051936102d46102c7565b503d61041c565b6040513d8e823e3d90fd5b9093508281813d8311610482575b61046381836110e9565b8101031261047e5761047761029091611447565b9390610282565b8a80fd5b503d610459565b6040513d8d823e3d90fd5b8690604051906338f6247760e11b82526004820152fd5b634e487b7160e01b8e526021600452898efd5b90508481813d83116104e4575b6104d581836110e9565b810103126103f65751386101f7565b503d6104cb565b604051631a43578560e21b8152600490fd5b60405163251a5d1160e21b8152600490fd5b8880fd5b634e487b7160e01b600052604160045260246000fd5b8480fd5b8380fd5b80fd5b503461053157600319608036820181136109a757600435916001600160401b039081841161052957610180808286360301126103b557604051908101818110848211176105135760405261058a8560040161110c565b8152602493848601359586151587036109a357602090818401978852604084019060448101358252606481013560608601526105c86084820161110c565b848601526105d860a4820161110c565b60a086015260c481013560c086015260e481013560e08601526105fe610104820161110c565b6101008601526101248101356101208601526101448101356101408601526101648101359087821161047e5760046106399236920101611182565b61016085015286359160443587811161047e5761065a90369060040161126a565b9660643590811161047e57610673903690600401611182565b600080516020611a738339815191528054909a6001600160a01b03929161069c90841615611332565b6106a53361137b565b85156104fd576106b48261175f565b156104eb5751610991576004938c87848a5116604051978880926379502c5560e01b82525afa958615610984578c8a918398610926575b50610712918791604051938492839263771a187f60e11b84528560048501528301906115e0565b0381305afa91821561091a57916108ed575b508d527f2a2e13707d6b40952f0aec05e2811137753b06b56d55208636050ec9ee68dd83845260408d20906040519161075c836110bb565b546001600160801b0380821684529190891c60ff1660048110156108d9578684015251915161078d9291169061180c565b8581106108c257506107a29084863392611819565b926107ac336113a9565b1690604051926370a0823160e01b9081855230600486015282858c81875afa9485156108b7578d95610884575b50906107e68392306119ac565b508a6040518095819382523060048301525afa9182156104895784918c93610852575b5050610815919261145b565b116103b9578795303b1561084e5761033e95879561035793604051988997889763dda5e05b60e01b8952600489015260848801906115e0565b8680fd5b8193508092503d831161087d575b61086a81836110e9565b810103126103f657518261081538610809565b503d610860565b919094508282813d83116108b0575b61089d81836110e9565b810103126103f6579051936107e66107d9565b503d610893565b6040513d8f823e3d90fd5b8a90604051906338f6247760e11b82526004820152fd5b50634e487b7160e01b8f5260216004528c8ffd5b90508481813d8311610913575b61090481836110e9565b810103126103f6575138610724565b503d6108fa565b604051903d90823e3d90fd5b975050508786813d831161097d575b61093f81836110e9565b8101031261053157610712858a888f99606061095f856109739301611447565b9261096c60408201611447565b5001611447565b50989150916106eb565b503d610935565b50604051903d90823e3d90fd5b604051630a8d139960e31b8152600490fd5b8780fd5b8280fd5b50346105315760a0366003190112610531576001600160401b036004358181116109a75761014080600319833603011261052d5760800160808110838211176110a7576040526109fd8160040161110c565b608052602481013560a052604481013560c052610a1c6064820161110c565b60e052610a2b6084820161110c565b6101005260a481013561012052610a4460c4820161110c565b6101405260e481013561016052610104810135610180526101248101359082821161052d576004610a789236920101611182565b6101a0526044358181116109a757610a9490369060040161120a565b9060643581811161052d57610aad90369060040161126a565b9060843590811161052d57610ac69036906004016112b3565b600080516020611a7383398151915254909290610aec906001600160a01b031615611332565b610af53361137b565b602435156104fd576080518151604051630f7a077160e21b81526001600160a01b039092169391602081600481885afa908115610e2357600491602091899161108a575b50604051630c87400960e11b815292839182906001600160a01b03165afa8015610e2357879061104d575b60ff9150160361103b57835182510361102957845b845160ff821690811015610bca57610b91818561141d565b5115159081610bae575b506104eb57610ba9906113f6565b610b79565b610bc39150610bbd908761141d565b5161175f565b1538610b9b565b5050928492604051632bba116f60e21b81526020600482015260208180610bf56024820160806114f0565b0381305afa90811561101e578591610fec575b508452600080516020611a938339815191526020526040842060405190610c2e826110bb565b546001600160801b03811682526004608082901c60ff161015610fd85760801c60ff16602082015260a0519051610c71916001600160801b03919091169061180c565b6024358110610fc05750835b835160ff82161015610ee957610c9660ff82168561141d565b5115610ee057604051630f7a077160e21b8152602081600481865afa908115610ea8576024916020918891610eb3575b5060405163172c48c760e01b815260ff8516600482015292839182906001600160a01b03165afa908115610ea8578691610e6e575b50610d24610d0c60ff84168661141d565b51823391610d1d60ff87168a61141d565b5190611819565b90610d2e336113a9565b6040516370a0823160e01b8152306004820152906020826024816001600160a01b0385165afa918215610e63578892610e2e575b50602090610d72602494306119ac565b506040516370a0823160e01b815230600482015293849182906001600160a01b03165afa918215610e23578792610ded575b50610dbd90610db660ff85168861141d565b519061145b565b116103b957600080516020611a5383398151915280546001600160a01b0319169055610de8906113f6565b610c7d565b9091506020813d602011610e1b575b81610e09602093836110e9565b8101031261084e575190610dbd610da4565b3d9150610dfc565b6040513d89823e3d90fd5b9091506020813d602011610e5b575b81610e4a602093836110e9565b810103126109a35751906020610d62565b3d9150610e3d565b6040513d8a823e3d90fd5b90506020813d602011610ea0575b81610e89602093836110e9565b810103126103b557610e9a90611447565b87610cfb565b3d9150610e7c565b6040513d88823e3d90fd5b610ed39150823d8411610ed9575b610ecb81836110e9565b8101906113d7565b89610cc6565b503d610ec1565b610de8906113f6565b84868186610ef6336113a9565b303b156103a657604051631b78082360e11b815260a060048201529283918291610f5e91610f4c90610f2c60a4860160806114f0565b90336024870152602435604487015260031986830301606487015261156e565b838103600319016084850152906115a2565b038183305af180156103aa57610fb1575b5060018060a01b0319600080516020611a53833981519152818154169055600080516020611a738339815191525416600080516020611a738339815191525580f35b610fba906110d6565b81610f6f565b602490604051906338f6247760e11b82526004820152fd5b634e487b7160e01b86526021600452602486fd5b90506020813d602011611016575b81611007602093836110e9565b81010312610529575186610c08565b3d9150610ffa565b6040513d87823e3d90fd5b6040516310f1387360e21b8152600490fd5b604051637d4673af60e11b8152600490fd5b506020813d602011611082575b81611067602093836110e9565b8101031261084e575160ff8116810361084e5760ff90610b64565b3d915061105a565b6110a19150823d8411610ed957610ecb81836110e9565b38610b39565b634e487b7160e01b84526041600452602484fd5b604081019081106001600160401b0382111761051357604052565b6001600160401b03811161051357604052565b601f909101601f19168101906001600160401b0382119082101761051357604052565b35906001600160a01b03821682036103f657565b6001600160401b03811161051357601f01601f191660200190565b81601f820112156103f65780359061115282611120565b9261116060405194856110e9565b828452602083830101116103f657816000926020809301838601378301015290565b9190916060818403126103f657604051906001600160401b03906060830182811184821017610513576040528294813563ffffffff60e01b811681036103f65784526111d06020830161110c565b602085015260408201359283116103f6576040926111ee920161113b565b910152565b6001600160401b0381116105135760051b60200190565b9080601f830112156103f6576020908235611224816111f3565b9361123260405195866110e9565b81855260208086019260051b8201019283116103f657602001905b82821061125b575050505090565b8135815290830190830161124d565b91906040838203126103f65760405190611283826110bb565b8193803560028110156103f65783526020810135916001600160401b0383116103f6576020926111ee920161113b565b81601f820112156103f6578035916020916112cd846111f3565b936112db60405195866110e9565b808552838086019160051b830101928084116103f657848301915b8483106113065750505050505090565b82356001600160401b0381116103f657869161132784848094890101611182565b8152019201916112f6565b1561133957565b60405162461bcd60e51b815260206004820152601a602482015279105d1bdb5a58d51e08185b1c9958591e481a5b9a5d1a585d195960321b6044820152606490fd5b600080516020611a7383398151915280546001600160a01b0319166001600160a01b03909216919091179055565b600080516020611a5383398151915280546001600160a01b0319166001600160a01b03909216919091179055565b908160209103126103f657516001600160a01b03811681036103f65790565b60ff1660ff81146114075760010190565b634e487b7160e01b600052601160045260246000fd5b80518210156114315760209160051b010190565b634e487b7160e01b600052603260045260246000fd5b51906001600160a01b03821682036103f657565b9190820180921161140757565b60005b83811061147b5750506000910152565b818101518382015260200161146b565b906020916114a481518092818552858086019101611468565b601f01601f1916010190565b80516001600160e01b03191682526020808201516001600160a01b03169083015260409081015160609183018290526114ed92919091019061148b565b90565b6114ed916101409060018060a01b03808451168252602084015160208301526040840151604083015280606085015116606083015280608085015116608083015260a084015160a083015260c08401511660c082015260e083015160e0820152610100808401519082015281610120809401519382015201906114b0565b90815180825260208080930193019160005b82811061158e575050505090565b835185529381019392810192600101611580565b9081519160028310156115ca5760206040916114ed948452015191816020820152019061148b565b634e487b7160e01b600052602160045260246000fd5b6114ed916101809060018060a01b0380845116825260208401511515602083015260408401516040830152606084015160608301528060808501511660808301528060a08501511660a083015260c084015160c083015260e084015160e0830152610100908185015116908201526101208084015190820152610140808401519082015281610160809401519382015201906114b0565b9061016060018060a01b03918284511681526116ab602092838601518484015260408601519080604085015283019061156e565b92606085015160608301528060808601511660808301528060a08601511660a083015260c085015160c083015260e08501511660e08201526101008085015190820152610120808501519082015261014080940151938184039101528251908183528083019281808460051b8301019501936000915b8483106117315750505050505090565b909192939495848061174f600193601f198682030187528a516114b0565b9801930193019194939290611721565b516001600160e01b031916806117755750600090565b604051906366ffd66360e11b82526004820152602081602481305afa908115611800576000916117c6575b506001600160a01b0316156117b457600190565b6040516303e9fdc160e61b8152600490fd5b90506020813d6020116117f8575b816117e1602093836110e9565b810103126103f6576117f290611447565b386117a0565b3d91506117d4565b6040513d6000823e3d90fd5b9190820391821161140757565b8051604080516366ffd66360e11b81526001600160e01b0319928316600482015290956020959394919391928685602481305afa9485156119a157918893918897969593600096611950575b508651888801519786015195516343b7c86160e11b998101999099521660248801526001600160a01b0395861660448801529085166064870152909316608485015260a4840192909252600060c484015260e060e48401526118ea92916118e59083906118d79061010483019061148b565b03601f1981018452836110e9565b6119ac565b91825183019282818186019503126103f65780830151906001600160401b0382116103f6570183603f820112156103f657828101519161192983611120565b94611936825196876110e9565b8386528184840101116103f6576114ed9385019101611468565b97889196508092939495503d831161199a575b61196d81836110e9565b810103126103f657876118e59388936118d79361198c6118ea9a611447565b979295995092955092611865565b503d611963565b88513d6000823e3d90fd5b6000806114ed9360208151910182855af13d156119eb573d916119ce83611120565b926119dc60405194856110e9565b83523d6000602085013e6119ef565b6060915b90611a165750805115611a0457805190602001fd5b60405163d6bda27560e01b8152600490fd5b81511580611a49575b611a27575090565b604051639996b31560e01b81526001600160a01b039091166004820152602490fd5b50803b15611a1f56fe2a2e13707d6b40952f0aec05e2811137753b06b56d55208636050ec9ee68dd7b2a2e13707d6b40952f0aec05e2811137753b06b56d55208636050ec9ee68dd7a2a2e13707d6b40952f0aec05e2811137753b06b56d55208636050ec9ee68dd81a264697066735822122038657931ccf070caea750a01c9b9ef30c4233911a3a952c6bb36320ff2b1066f64736f6c63430008160033",
  "linkReferences": {},
  "deployedLinkReferences": {}
}