{
  "_format": "hh-sol-artifact-1",
  "contractName": "TermAuction",
  "sourceName": "contracts/TermAuction.sol",
  "abi": [
    {
      "inputs": [],
      "stateMutability": "nonpayable",
      "type": "constructor"
    },
    {
      "inputs": [],
      "name": "AccessControlBadConfirmation",
      "type": "error"
    },
    {
      "inputs": [
        {
          "internalType": "address",
          "name": "account",
          "type": "address"
        },
        {
          "internalType": "bytes32",
          "name": "neededRole",
          "type": "bytes32"
        }
      ],
      "name": "AccessControlUnauthorizedAccount",
      "type": "error"
    },
    {
      "inputs": [
        {
          "internalType": "address",
          "name": "target",
          "type": "address"
        }
      ],
      "name": "AddressEmptyCode",
      "type": "error"
    },
    {
      "inputs": [],
      "name": "AlreadyTermContractPaired",
      "type": "error"
    },
    {
      "inputs": [
        {
          "internalType": "bytes32",
          "name": "bidId",
          "type": "bytes32"
        }
      ],
      "name": "AssignedZeroAmount",
      "type": "error"
    },
    {
      "inputs": [],
      "name": "AuctionAlreadyCompleted",
      "type": "error"
    },
    {
      "inputs": [],
      "name": "AuctionCancelledForWithdrawal",
      "type": "error"
    },
    {
      "inputs": [],
      "name": "AuctionNotClosed",
      "type": "error"
    },
    {
      "inputs": [
        {
          "internalType": "uint256",
          "name": "clearingOffset",
          "type": "uint256"
        }
      ],
      "name": "ClearingOffsetNot0Or1",
      "type": "error"
    },
    {
      "inputs": [],
      "name": "CompleteAuctionPaused",
      "type": "error"
    },
    {
      "inputs": [
        {
          "internalType": "address",
          "name": "implementation",
          "type": "address"
        }
      ],
      "name": "ERC1967InvalidImplementation",
      "type": "error"
    },
    {
      "inputs": [],
      "name": "ERC1967NonPayable",
      "type": "error"
    },
    {
      "inputs": [],
      "name": "FailedCall",
      "type": "error"
    },
    {
      "inputs": [],
      "name": "InvalidInitialization",
      "type": "error"
    },
    {
      "inputs": [
        {
          "internalType": "string",
          "name": "message",
          "type": "string"
        }
      ],
      "name": "InvalidParameters",
      "type": "error"
    },
    {
      "inputs": [
        {
          "internalType": "uint256",
          "name": "maxDepth",
          "type": "uint256"
        }
      ],
      "name": "MaxPriceSearchDepthExceeded",
      "type": "error"
    },
    {
      "inputs": [],
      "name": "NoBidsOrOffers",
      "type": "error"
    },
    {
      "inputs": [],
      "name": "NotInitializing",
      "type": "error"
    },
    {
      "inputs": [],
      "name": "ReentrancyGuardReentrantCall",
      "type": "error"
    },
    {
      "inputs": [],
      "name": "TermContractsPaused",
      "type": "error"
    },
    {
      "inputs": [],
      "name": "UUPSUnauthorizedCallContext",
      "type": "error"
    },
    {
      "inputs": [
        {
          "internalType": "bytes32",
          "name": "slot",
          "type": "bytes32"
        }
      ],
      "name": "UUPSUnsupportedProxiableUUID",
      "type": "error"
    },
    {
      "anonymous": false,
      "inputs": [
        {
          "indexed": false,
          "internalType": "uint64",
          "name": "version",
          "type": "uint64"
        }
      ],
      "name": "Initialized",
      "type": "event"
    },
    {
      "anonymous": false,
      "inputs": [
        {
          "indexed": true,
          "internalType": "bytes32",
          "name": "role",
          "type": "bytes32"
        },
        {
          "indexed": true,
          "internalType": "bytes32",
          "name": "previousAdminRole",
          "type": "bytes32"
        },
        {
          "indexed": true,
          "internalType": "bytes32",
          "name": "newAdminRole",
          "type": "bytes32"
        }
      ],
      "name": "RoleAdminChanged",
      "type": "event"
    },
    {
      "anonymous": false,
      "inputs": [
        {
          "indexed": true,
          "internalType": "bytes32",
          "name": "role",
          "type": "bytes32"
        },
        {
          "indexed": true,
          "internalType": "address",
          "name": "account",
          "type": "address"
        },
        {
          "indexed": true,
          "internalType": "address",
          "name": "sender",
          "type": "address"
        }
      ],
      "name": "RoleGranted",
      "type": "event"
    },
    {
      "anonymous": false,
      "inputs": [
        {
          "indexed": true,
          "internalType": "bytes32",
          "name": "role",
          "type": "bytes32"
        },
        {
          "indexed": true,
          "internalType": "address",
          "name": "account",
          "type": "address"
        },
        {
          "indexed": true,
          "internalType": "address",
          "name": "sender",
          "type": "address"
        }
      ],
      "name": "RoleRevoked",
      "type": "event"
    },
    {
      "anonymous": false,
      "inputs": [
        {
          "indexed": true,
          "internalType": "address",
          "name": "implementation",
          "type": "address"
        }
      ],
      "name": "Upgraded",
      "type": "event"
    },
    {
      "inputs": [],
      "name": "ADMIN_ROLE",
      "outputs": [
        {
          "internalType": "bytes32",
          "name": "",
          "type": "bytes32"
        }
      ],
      "stateMutability": "view",
      "type": "function"
    },
    {
      "inputs": [],
      "name": "DEFAULT_ADMIN_ROLE",
      "outputs": [
        {
          "internalType": "bytes32",
          "name": "",
          "type": "bytes32"
        }
      ],
      "stateMutability": "view",
      "type": "function"
    },
    {
      "inputs": [],
      "name": "DEVOPS_ROLE",
      "outputs": [
        {
          "internalType": "bytes32",
          "name": "",
          "type": "bytes32"
        }
      ],
      "stateMutability": "view",
      "type": "function"
    },
    {
      "inputs": [],
      "name": "INITIALIZER_ROLE",
      "outputs": [
        {
          "internalType": "bytes32",
          "name": "",
          "type": "bytes32"
        }
      ],
      "stateMutability": "view",
      "type": "function"
    },
    {
      "inputs": [],
      "name": "THREESIXTY_DAYCOUNT_SECONDS",
      "outputs": [
        {
          "internalType": "uint256",
          "name": "",
          "type": "uint256"
        }
      ],
      "stateMutability": "view",
      "type": "function"
    },
    {
      "inputs": [],
      "name": "UPGRADE_INTERFACE_VERSION",
      "outputs": [
        {
          "internalType": "string",
          "name": "",
          "type": "string"
        }
      ],
      "stateMutability": "view",
      "type": "function"
    },
    {
      "inputs": [],
      "name": "auctionCancelledForWithdrawal",
      "outputs": [
        {
          "internalType": "bool",
          "name": "",
          "type": "bool"
        }
      ],
      "stateMutability": "view",
      "type": "function"
    },
    {
      "inputs": [],
      "name": "auctionCompleted",
      "outputs": [
        {
          "internalType": "bool",
          "name": "",
          "type": "bool"
        }
      ],
      "stateMutability": "view",
      "type": "function"
    },
    {
      "inputs": [],
      "name": "auctionEndTime",
      "outputs": [
        {
          "internalType": "uint256",
          "name": "",
          "type": "uint256"
        }
      ],
      "stateMutability": "view",
      "type": "function"
    },
    {
      "inputs": [
        {
          "components": [
            {
              "internalType": "bytes32[]",
              "name": "revealedBidSubmissions",
              "type": "bytes32[]"
            },
            {
              "internalType": "bytes32[]",
              "name": "expiredRolloverBids",
              "type": "bytes32[]"
            },
            {
              "internalType": "bytes32[]",
              "name": "unrevealedBidSubmissions",
              "type": "bytes32[]"
            },
            {
              "internalType": "bytes32[]",
              "name": "revealedOfferSubmissions",
              "type": "bytes32[]"
            },
            {
              "internalType": "bytes32[]",
              "name": "unrevealedOfferSubmissions",
              "type": "bytes32[]"
            }
          ],
          "internalType": "struct CompleteAuctionInput",
          "name": "completeAuctionInput",
          "type": "tuple"
        }
      ],
      "name": "cancelAuction",
      "outputs": [],
      "stateMutability": "nonpayable",
      "type": "function"
    },
    {
      "inputs": [
        {
          "internalType": "address[]",
          "name": "rolloverBorrowers",
          "type": "address[]"
        },
        {
          "internalType": "address[]",
          "name": "rolloverPairOffTermRepoServicer",
          "type": "address[]"
        }
      ],
      "name": "cancelAuctionForWithdrawal",
      "outputs": [],
      "stateMutability": "nonpayable",
      "type": "function"
    },
    {
      "inputs": [],
      "name": "clearingPrice",
      "outputs": [
        {
          "internalType": "uint256",
          "name": "",
          "type": "uint256"
        }
      ],
      "stateMutability": "view",
      "type": "function"
    },
    {
      "inputs": [],
      "name": "clearingPricePostProcessingOffset",
      "outputs": [
        {
          "internalType": "uint256",
          "name": "",
          "type": "uint256"
        }
      ],
      "stateMutability": "view",
      "type": "function"
    },
    {
      "inputs": [
        {
          "components": [
            {
              "internalType": "bytes32[]",
              "name": "revealedBidSubmissions",
              "type": "bytes32[]"
            },
            {
              "internalType": "bytes32[]",
              "name": "expiredRolloverBids",
              "type": "bytes32[]"
            },
            {
              "internalType": "bytes32[]",
              "name": "unrevealedBidSubmissions",
              "type": "bytes32[]"
            },
            {
              "internalType": "bytes32[]",
              "name": "revealedOfferSubmissions",
              "type": "bytes32[]"
            },
            {
              "internalType": "bytes32[]",
              "name": "unrevealedOfferSubmissions",
              "type": "bytes32[]"
            }
          ],
          "internalType": "struct CompleteAuctionInput",
          "name": "completeAuctionInput",
          "type": "tuple"
        }
      ],
      "name": "completeAuction",
      "outputs": [],
      "stateMutability": "nonpayable",
      "type": "function"
    },
    {
      "inputs": [],
      "name": "completeAuctionPaused",
      "outputs": [
        {
          "internalType": "bool",
          "name": "",
          "type": "bool"
        }
      ],
      "stateMutability": "view",
      "type": "function"
    },
    {
      "inputs": [],
      "name": "controller",
      "outputs": [
        {
          "internalType": "contract ITermController",
          "name": "",
          "type": "address"
        }
      ],
      "stateMutability": "view",
      "type": "function"
    },
    {
      "inputs": [],
      "name": "dayCountFractionMantissa",
      "outputs": [
        {
          "internalType": "uint256",
          "name": "",
          "type": "uint256"
        }
      ],
      "stateMutability": "view",
      "type": "function"
    },
    {
      "inputs": [
        {
          "internalType": "bytes32",
          "name": "role",
          "type": "bytes32"
        }
      ],
      "name": "getRoleAdmin",
      "outputs": [
        {
          "internalType": "bytes32",
          "name": "",
          "type": "bytes32"
        }
      ],
      "stateMutability": "view",
      "type": "function"
    },
    {
      "inputs": [
        {
          "internalType": "bytes32",
          "name": "role",
          "type": "bytes32"
        },
        {
          "internalType": "address",
          "name": "account",
          "type": "address"
        }
      ],
      "name": "grantRole",
      "outputs": [],
      "stateMutability": "nonpayable",
      "type": "function"
    },
    {
      "inputs": [
        {
          "internalType": "bytes32",
          "name": "role",
          "type": "bytes32"
        },
        {
          "internalType": "address",
          "name": "account",
          "type": "address"
        }
      ],
      "name": "hasRole",
      "outputs": [
        {
          "internalType": "bool",
          "name": "",
          "type": "bool"
        }
      ],
      "stateMutability": "view",
      "type": "function"
    },
    {
      "inputs": [
        {
          "internalType": "string",
          "name": "termRepoId_",
          "type": "string"
        },
        {
          "internalType": "string",
          "name": "auctionId_",
          "type": "string"
        },
        {
          "internalType": "uint256",
          "name": "auctionEndTime_",
          "type": "uint256"
        },
        {
          "internalType": "uint256",
          "name": "termStart_",
          "type": "uint256"
        },
        {
          "internalType": "uint256",
          "name": "redemptionTimestamp_",
          "type": "uint256"
        },
        {
          "internalType": "contract IERC20Metadata",
          "name": "purchaseToken_",
          "type": "address"
        },
        {
          "internalType": "address",
          "name": "termAuctionInitializer_",
          "type": "address"
        },
        {
          "internalType": "uint256",
          "name": "clearingPricePostProcessingOffset_",
          "type": "uint256"
        }
      ],
      "name": "initialize",
      "outputs": [],
      "stateMutability": "nonpayable",
      "type": "function"
    },
    {
      "inputs": [
        {
          "internalType": "contract ITermEventEmitter",
          "name": "emitter_",
          "type": "address"
        },
        {
          "internalType": "contract ITermController",
          "name": "controller_",
          "type": "address"
        },
        {
          "internalType": "contract ITermRepoServicer",
          "name": "termRepoServicer_",
          "type": "address"
        },
        {
          "internalType": "contract ITermAuctionBidLocker",
          "name": "termAuctionBidLocker_",
          "type": "address"
        },
        {
          "internalType": "contract ITermAuctionOfferLocker",
          "name": "termAuctionOfferLocker_",
          "type": "address"
        },
        {
          "internalType": "address",
          "name": "devopsMultisigAddress_",
          "type": "address"
        },
        {
          "internalType": "address",
          "name": "adminWallet_",
          "type": "address"
        },
        {
          "internalType": "address",
          "name": "deployerWallet_",
          "type": "address"
        },
        {
          "internalType": "string",
          "name": "version_",
          "type": "string"
        }
      ],
      "name": "pairTermContracts",
      "outputs": [],
      "stateMutability": "nonpayable",
      "type": "function"
    },
    {
      "inputs": [],
      "name": "pauseCompleteAuction",
      "outputs": [],
      "stateMutability": "nonpayable",
      "type": "function"
    },
    {
      "inputs": [],
      "name": "proxiableUUID",
      "outputs": [
        {
          "internalType": "bytes32",
          "name": "",
          "type": "bytes32"
        }
      ],
      "stateMutability": "view",
      "type": "function"
    },
    {
      "inputs": [],
      "name": "purchaseToken",
      "outputs": [
        {
          "internalType": "contract IERC20Metadata",
          "name": "",
          "type": "address"
        }
      ],
      "stateMutability": "view",
      "type": "function"
    },
    {
      "inputs": [
        {
          "internalType": "bytes32",
          "name": "role",
          "type": "bytes32"
        },
        {
          "internalType": "address",
          "name": "callerConfirmation",
          "type": "address"
        }
      ],
      "name": "renounceRole",
      "outputs": [],
      "stateMutability": "nonpayable",
      "type": "function"
    },
    {
      "inputs": [
        {
          "internalType": "bytes32",
          "name": "role",
          "type": "bytes32"
        },
        {
          "internalType": "address",
          "name": "account",
          "type": "address"
        }
      ],
      "name": "revokeRole",
      "outputs": [],
      "stateMutability": "nonpayable",
      "type": "function"
    },
    {
      "inputs": [
        {
          "internalType": "bytes4",
          "name": "interfaceId",
          "type": "bytes4"
        }
      ],
      "name": "supportsInterface",
      "outputs": [
        {
          "internalType": "bool",
          "name": "",
          "type": "bool"
        }
      ],
      "stateMutability": "view",
      "type": "function"
    },
    {
      "inputs": [],
      "name": "termAuctionBidLocker",
      "outputs": [
        {
          "internalType": "contract ITermAuctionBidLocker",
          "name": "",
          "type": "address"
        }
      ],
      "stateMutability": "view",
      "type": "function"
    },
    {
      "inputs": [],
      "name": "termAuctionId",
      "outputs": [
        {
          "internalType": "bytes32",
          "name": "",
          "type": "bytes32"
        }
      ],
      "stateMutability": "view",
      "type": "function"
    },
    {
      "inputs": [],
      "name": "termAuctionOfferLocker",
      "outputs": [
        {
          "internalType": "contract ITermAuctionOfferLocker",
          "name": "",
          "type": "address"
        }
      ],
      "stateMutability": "view",
      "type": "function"
    },
    {
      "inputs": [],
      "name": "termRepoId",
      "outputs": [
        {
          "internalType": "bytes32",
          "name": "",
          "type": "bytes32"
        }
      ],
      "stateMutability": "view",
      "type": "function"
    },
    {
      "inputs": [],
      "name": "termRepoServicer",
      "outputs": [
        {
          "internalType": "contract ITermRepoServicer",
          "name": "",
          "type": "address"
        }
      ],
      "stateMutability": "view",
      "type": "function"
    },
    {
      "inputs": [],
      "name": "unpauseCompleteAuction",
      "outputs": [],
      "stateMutability": "nonpayable",
      "type": "function"
    },
    {
      "inputs": [
        {
          "internalType": "address",
          "name": "newImplementation",
          "type": "address"
        },
        {
          "internalType": "bytes",
          "name": "data",
          "type": "bytes"
        }
      ],
      "name": "upgradeToAndCall",
      "outputs": [],
      "stateMutability": "payable",
      "type": "function"
    },
    {
      "inputs": [],
      "name": "version",
      "outputs": [
        {
          "internalType": "string",
          "name": "",
          "type": "string"
        }
      ],
      "stateMutability": "view",
      "type": "function"
    }
  ],
  "bytecode": "0x60a08060405234620000d157306080527ff0c57e16840df040f15088dc2f81fe391c3923bec73e23a9662efc9c229c6a009081549060ff8260401c16620000c257506001600160401b036002600160401b0319828216016200007c575b604051614ff49081620000d78239608051818181613248015261334f0152f35b6001600160401b031990911681179091556040519081527fc7f505b2f371ae2175ee4913f4499e1f2633a7b5936321eed1cdaeb6115181d290602090a13880806200005c565b63f92ee8a960e01b8152600490fd5b600080fdfe60c080604052600436101561001357600080fd5b600090813560e01c90816301ffc9a7146139a25750806306b282c914613979578063201a662514613950578063248a9ca31461391657806327df3d3e146138ed5780632f2ff15d146138a2578063321532201461365257806332a0f2d714613634578063357a77d21461360b57806336568abe146135c35780634b449cba146135a55780634f1ef286146132c9578063505d799e146132a057806352d1902d1461323557806354fd4d50146131f15780635fb8f3ed146131ce5780636125be5514612f915780636d73314114612f73578063700e3e2a14612f55578063743a8f8814612e4d57806375b238fc14612e2457806376f9a41e146129055780637a6944c5146128e75780638dfea9e7146128c157806391d1485414612868578063a217fddf1461284c578063a95c4d6214612823578063ad3cb1cc146127e1578063c794564e1461276b578063cc5b6e4a1461274e578063d547741f146126ff578063d6725d0c146126e0578063f0436387146126ba578063f691fac114610268578063f77c47911461023f5763fa2a3cca146101ad57600080fd5b3461022c578060031936011261022c576101c5614343565b600c805462ff000019169055600854600154825483926001600160a01b03169190823b1561023a576044849283604051958694859362d9568360e21b8552600485015260248401525af1801561022f5761021c5750f35b61022590613a50565b61022c5780f35b80fd5b6040513d84823e3d90fd5b505050fd5b503461022c578060031936011261022c576009546040516001600160a01b039091168152602090f35b503461022c5761027736613b50565b906002544211156126a857600c5460ff8160101c1661269657600954604051631b6685b560e21b815290602090829060049082906001600160a01b03165afa9081156114a457839161265c575b5061264a5760ff81166126385760ff8160081c166126265760019060ff191617600c55600080516020614f7f8339815191528152600080516020614f3f833981519152602052604081203360005260205260ff6040600020541615612587575b600554819081906001600160a01b031661033e8580613bfb565b61034e6020889493940188613bfb565b96909361037f61036160408b018b613bfb565b906040519a8b988997889663f9202d6360e01b885260048801614014565b03925af192831561254d578192829461255a575b50600654829182916001600160a01b03166103c16103b46060840184613bfb565b9190936080810190613bfb565b9690936103e46040519889968795869463c44cee7360e01b8652600486016141fe565b03925af193841561254d5781928295612523575b5083518015159081612518575b816124e6575b50156121f35761041961478b565b600b54946001861415806121ea575b6121d157604061043785614225565b51015195606061044686614225565b510151865160405198909791906001600160401b036101e08b01908111908b11176121bb576101e08a016040528952600160208a01528760408a015260608901528460808901528460a08901528460c08901528460e08901528461010089015284610120890152846101408901528461016089015284610180890152846101a0890152846101c0890152866000198101116121a757875160009760001901975b8160406104f38b86614232565b510151106121995761051490606061050b8b86614232565b5101519061474f565b97801561052a5761052490614725565b976104e6565b91929394959697905b604061053f8486614232565b510151101561219057600182018211611f3857600161057092015b60408a01528060808a01526060890151906148a1565b60a08801525b60208701518651811080612182575b15612176576105bb8160409260c08b0152828a015160e08b015260608a01516101008b015260808a01516101208b015288614232565b5101516101408801525b60c0870151865181109081612158575b50156106155761060a60606105fc60c08a01516105f181614732565b60c08c015289614232565b51015161010089015161474f565b6101008801526105c5565b61063060e08801516101208901516101408a015191846148b1565b908160e08a0152806101208a015261010089015161064e81836148a1565b92836101608c015260a08b0151841160001461068f5760c08b015160208c015260408b015260608a01526080890152610140880151885260a0880152610576565b505050509392949190945b6020870151835181101561214f576106b460409185614232565b5101515b6101408801525b60408701518551811015612142576106df8160409260e08b015287614232565b510151806101a0890152608088015161012089015261014088015111600014612136575b60e0870151855181109081612118575b501561075357610748606061073a60e08a015161072f81614732565b60e08c015288614232565b510151610120890151613b81565b610120880152610703565b61012087015160608801518110610780576001610180890152608088015260e087015160408801526106bf565b50909192949593955b61018085015115612108576040850151875181036120f15750604085015180600019810111610865579060406107c5600193600019018a614232565b5101515b6101c08701525b6107dd6020870151614725565b6020870152036120905760208401515b80151580612067575b15610823578060001981011161080f57600019016107ed565b634e487b7160e01b86526011600452602486fd5b9560408501519681518814612051575b965b8151806000198101116112925760001901811080612029575b156108795760018101811161086557600101610835565b634e487b7160e01b87526011600452602487fd5b604061050b8161089261089c9596989a97999b8b614232565b5101519285614232565b60011c6101c08701525b60406108b6602088015187614232565b5101516101c087015110611fad576108d16020870151614732565b60208701525b6020860151855181109081611f8e575b50156109295761090d6060610900602089015188614232565b510151606088015161474f565b606087015261091f6020870151614732565b60208701526108d7565b9492949391935b6040840151815181109081611f70575b5015611e9257600494610963604086015160808701516101c088015191856148b1565b604087015260808601525b6109886101c08601519560606080820151910151906148a1565b600a959095556001600080516020614f5f8339815191525560075460405163313ce56760e01b81529660209188919082906001600160a01b03165afa9586156114a4578396611e54575b50909382969596948051805b611607575050829683925b85518410156112cc579560406109ff8588614232565b5101519784916060610a11878a614232565b5101515b8851806000198101116112b857600019018410156112a657600184018411611292578a6040610a47600187018c614232565b51015103610a7157610a65610a6b91606061050b600188018d614232565b93614732565b92610a15565b909299509994959790999392935b806040610a8c898b614232565b51015190600a54809211159081611288575b81611274575b5015610c5757505087945b89610aba888861474f565b11610c0f57610ad2610acc888861474f565b89614232565b51610adb61478b565b610ae86060820151614901565b60045460208301516060840151845193926001600160a01b039081169216823b15610c0b57908e80949392610b33604051978896879586946308f9231360e31b86526004860161487d565b03925af18015610be857908b91610bf7575b505060085460015482516060840151926001600160a01b031691823b15610bf35791610b8c93918e80946040519687958694859363ba0cf0ab60e01b85526004850161432d565b03925af18015610be857908b91610bd0575b5050610bca916060610bc4920151906001600080516020614f5f8339815191525561474f565b95614732565b94610aaf565b610bd990613a50565b610be4578938610b9e565b8980fd5b6040513d8d823e3d90fd5b8d80fd5b610c0090613a50565b610be4578938610b45565b8e80fd5b9992979591949093985080610c34575b50610c2990614732565b9295919690966109e9565b8060001981011161080f57610c2991610c5191600019019061474f565b90610c1f565b6040610c6b898b99979c9b9e949a9e614232565b51015111158061126b575b156111b0579091929587965b8a610c8d8d8a61474f565b11611197578b8b610c9e828b61474f565b03610eab57610cb0610cb6918a61474f565b88614232565b5190610cc2818c613b81565b91610ccb61478b565b610cd483614901565b6004546020830151835192916001600160a01b039081169116813b15610c0b5790868f809493610d1a604051978896879586946308f9231360e31b86526004860161487d565b03925af18015610e8c57908c91610e97575b505060065481516020830151606084015191926001600160a01b0390811692911690610d59908790613b81565b92823b15610c0b5791610d8793918f809460405196879586948593630315fd0560e21b8552600485016142ef565b03925af18015610e8c57908c91610e74575b505060085460015491516001600160a01b0390911691823b15610e7057610ddc928d928387936040519687958694859363ba0cf0ab60e01b85526004850161432d565b03925af18015610be857928d928f999896948e9896938e91610e46575b5050610c8d92610e2b610e24610e3794610e31946001600080516020614f5f8339815191525561474f565b809a613b81565b90613b81565b9a614732565b99939592949697505050610c82565b91945092959750610e5b919496989950613a50565b610be4578a94928d979694928d928c38610df9565b8c80fd5b610e7d90613a50565b610e88578a38610d99565b8a80fd5b6040513d8e823e3d90fd5b610ea090613a50565b610e88578a38610d2c565b610eba610acc6060928b61474f565b510151610ec7828c613b81565b906012918260ff8a16810311611183578a8f94938f938f8f8d918891610f9c98610f478c610f418f610f2c610f0e610acc9e610f088e60ff8e169003614741565b90613b8e565b9160405192610f1c84613a63565b8352610f0860ff8c168e03614741565b9060405191610f3a83613a63565b82526147bb565b9961474f565b14905061116e575050610f9493610f6c610f8e93610f0860ff610f8195168703614741565b9060405191610f7a83613a63565b8252614802565b519160ff8d169003614741565b90613ba1565b935b8b61474f565b51610fa561478b565b610fae83614901565b6004546020830151835192916001600160a01b039081169116813b15610c0b5790868f809493610ff4604051978896879586946308f9231360e31b86526004860161487d565b03925af18015610e8c57908c9161115a575b505060065481516020830151606084015191926001600160a01b0390811692911690611033908790613b81565b92823b15610c0b579161106193918f809460405196879586948593630315fd0560e21b8552600485016142ef565b03925af18015610e8c57908c91611146575b505060085460015491516001600160a01b0390911691823b15610e70576110b6928d928387936040519687958694859363ba0cf0ab60e01b85526004850161432d565b03925af18015610be8578e989795938e938d8d9997948d9461111a575b5050926060611111610e379461110b8e611105610e3197610c8d9a6001600080516020614f5f8339815191525561474f565b9d61474f565b90614232565b51015190613b81565b9296989a9b509396985093506111309150613a50565b610be457889492888e989795938e938d386110d3565b61114f90613a50565b610e88578a38611073565b61116390613a50565b610e88578a38611006565b925092505061117d9250613b81565b93610f96565b634e487b7160e01b8c52601160045260248cfd5b9a92949950509193959480610c345750610c2990614732565b9299919496955092975060018060a01b03600654166111cf8288614232565b5151906001600160a01b0360206111e6858b614232565b5101511660606111f6858b614232565b51015192823b156112675791611227939189809460405196879586948593630315fd0560e21b8552600485016142ef565b03925af1801561125c57908691611244575b5050610c2990614732565b61124d90613a50565b611258578438611239565b8480fd5b6040513d88823e3d90fd5b8880fd5b50888410610c76565b90506112808887613b81565b101538610aa4565b8689109150610a9e565b634e487b7160e01b88526011600452602488fd5b90929950999495979099939293610a7f565b634e487b7160e01b89526011600452602489fd5b9794505050509160018060a01b036008541660015490600a54813b1561160357918560c4928195946040519788968795630ef1216760e41b875260048701524260248701524360448701526064860152608485015260a48401525af1801561022f579082916115ef575b50506009548154600154600a54926001600160a01b031691823b15611258579161137b93918580946040519687958694859363a2a61aed60e01b85526004850161432d565b03925af1801561022f579082916115db575b50505b805b83518110156114b3576101006113a88286614232565b510151156113f1576001906113eb6001600160a01b036101206113cb8489614232565b51015116838060a01b0360206113e1858a614232565b5101511690614662565b01611392565b6005546001600160a01b03166114078286614232565b5151906001600160a01b03602061141e8589614232565b510151169060e061142f8589614232565b5101519160a061143f868a614232565b51015193823b156114af5790868094939261147060405197889687958694630283ce5b60e01b8652600486016142b7565b03925af180156114a45790839161148c575b50506001906113eb565b61149590613a50565b6114a0578138611482565b5080fd5b6040513d85823e3d90fd5b8680fd5b5090815b815181101561155f5760065483906001600160a01b03166114d88385614232565b51516001600160a01b0360206114ee8688614232565b510151169160806114ff8688614232565b51015190803b156112585761152e9385809460405196879586948593630315fd0560e21b8552600485016142ef565b03925af1801561022f57611547575b50506001016114b7565b61155090613a50565b61155b57828461153d565b8280fd5b600480546040516304dabab160e41b815285929091602091839182906001600160a01b03165afa801561022f5782906115a0575b61159d9150614310565b80f35b506020813d6020116115d3575b816115ba60209383613a99565b810103126114a0576115ce61159d91613d25565b611593565b3d91506115ad565b6115e490613a50565b61022c57803861138d565b6115f890613a50565b61022c578038611336565b8580fd5b939491909592969760001985019285841161086557986040611629858a614232565b510151988491606061163b878c614232565b5101515b83158015611e2d575b61168f578360001981011161167b576116759061166f90606061050b60001988018f614232565b93614725565b9261163f565b634e487b7160e01b8a52601160045260248afd5b9094929a509a90979a98959496988060406116aa8a8a614232565b51015190600a54809210159081611e23575b81611e0f575b50156118be5750508a945b8a6116d8878a613b81565b106118ae576116ea610cb0878a613b81565b51906116f461478b565b8c6117026060840151614901565b60e0840151611881576004546020850151606086015160c087015160808801516003549195909490936001600160a01b0391821693929116833b1561187d576117668896928793604051998a9889978896635115f4e560e11b885260048801614836565b03925af1801561022f57611869575b50505b8c60018060a01b0360085416600154845191606086015190803b15611258576117bb93858094604051968795869485936303e852b160e01b85526004850161432d565b03925af1801561022f57611855575b505060606117ec920151906001600080516020614f5f8339815191525561474f565b94808814611803576117fd90614732565b946116cd565b90979495939a96506118189198929950614732565b905b81611837575b61182a9150614725565b80989798969293966109de565b600019820191821161080f5761182a9161185091613b81565b611820565b61185e90613a50565b610e70578c386117ca565b61187290613a50565b610e70578c38611775565b8780fd5b602084015160608501516101008601516118a994506001600160a01b039081169392166149b5565b611778565b95939a965096939198509661181a565b60406118d28a8a9895949c9a999699614232565b510151101580611e06575b15611cfa578b98925b8b6118f18b8b613b81565b10611ce9578b6119018b8b613b81565b03611aaa576119196119138b8b613b81565b87614232565b51908d611926828a613b81565b9261192f61478b565b61193884614901565b60e0820151611a8057600454602083015160c0840151608085015160035491946001600160a01b039384169490931691823b1561187d57879461199586928c94604051998a9889978896635115f4e560e11b885260048801614836565b03925af19081156114a4578391611a6c575b50505b60085460015491516001600160a01b0390911691823b15611a68576119eb928492838893604051968795869485936303e852b160e01b85526004850161432d565b03925af1801561022f57611a54575b5050611a2691611a1b916001600080516020614f5f8339815191525561474f565b93610e2b8589613b81565b985b808914611a3f57611a3890614732565b98926118e6565b919b9750975061181891959498929950614732565b611a5d90613a50565b610bf3578d386119fa565b8380fd5b611a7590613a50565b6114a05781386119a7565b6020820151610100830151611aa5926001600160a01b039182169290918891166149b5565b6119aa565b6060611ab9610cb08c8c613b81565b510151611ac68289613b81565b906012918260ff8916810311611cd457611b2e611b3b9392610f6c611b1f8b610f2c611b1960ff611b01610f8e99610f088387168d03614741565b9360405194611b0f86613a63565b8552168903614741565b8d613b8e565b91610f0860ff8d168703614741565b519160ff89169003614741565b908115611cad578d611b50610acc8d8d613b81565b51611b5961478b565b611b6284614901565b60e0820151611c8357600454602083015160c0840151608085015160035491946001600160a01b039384169490931691823b1561187d578794611bbf86928c94604051998a9889978896635115f4e560e11b885260048801614836565b03925af19081156114a4578391611c6f575b50505b60085460015491516001600160a01b0390911691823b15611a6857611c15928492838893604051968795869485936303e852b160e01b85526004850161432d565b03925af1801561022f57611c5b575b5050611c5591611c45916001600080516020614f5f8339815191525561474f565b936060611111610acc8d8d613b81565b98611a28565b611c6490613a50565b610bf3578d38611c24565b611c7890613a50565b6114a0578138611bd1565b6020820151610100830151611ca8926001600160a01b039182169290918891166149b5565b611bd4565b6024611cbd8861110b8e8e613b81565b51516040519063611b5d9960e11b82526004820152fd5b50634e487b7160e01b8f52601160045260248ffd5b96959992509792995099955061181a565b975099959094939791985060e0611d118285614232565b51015115611d575761182a9190611d52906001600160a01b03610100611d378388614232565b51015116906001600160a01b03906020906113e19088614232565b614725565b6005546001600160a01b031690611d6e8185614232565b5151916001600160a01b036020611d858488614232565b510151166080611da460c0611d9a868a614232565b5101519488614232565b51015193823b15610be457908980949392611dd560405197889687958694630283ce5b60e01b8652600486016142b7565b03925af1801561125c57908691611df2575b505061182a90614725565b611dfb90613a50565b611258578438611de7565b508583106118dd565b9050611e1b8886613b81565b1015386116c2565b85891091506116bc565b508360001981011161167b578b6040611e4a60001987018e614232565b5101511415611648565b9095506020813d602011611e8a575b81611e7060209383613a99565b8101031261155b575160ff8116810361155b5794386109d2565b3d9150611e63565b60408401519485611ea7575b6004955061096e565b85600019810111611f5c5760808501516101c0860151909660001901965b816040611ed28a87614232565b51015110611f5657611eea90606061050b8a87614232565b968015611f0057611efa90614725565b96611ec5565b96905b6040611f0f8986614232565b5101511015611f4e57600187018711611f38576001600497015b60408701526080860152611e9e565b634e487b7160e01b600052601160045260246000fd5b600496611f29565b90611f03565b634e487b7160e01b83526011600452602483fd5b60409150611f7e9083614232565b5101516101c08501511138610940565b60409150611f9c9087614232565b5101516101c08701511015386108e7565b93905b6040611fc0602088015184614232565b5101516101c0870151101561201e57611fef6060611fe2602089015185614232565b5101516060880151613b81565b6060870152602086015180156120125761200890614725565b6020870152611fb0565b50909193949294610930565b909193949294610930565b5060406120368284614232565b51015160406120488189015185614232565b5101511461084e565b9680600019810111610865576000190196610833565b5060406120748286614232565b5101516040612087602088015187614232565b510151146107f6565b91939092946040860151815181146120d7575b506120c960406120b7602089015188614232565b510151604061050b818a015185614232565b60011c6101c08701526108a6565b80600019810111611f5c57600019016040870152386120a3565b9060406121006001938a614232565b5101516107c9565b60019085516101c08701526107d0565b604091506121269087614232565b5101516101a08801511438610713565b90919294959395610789565b5090919294959395610789565b506000196106b8565b604091506121669088614232565b51015161014088015114386105d5565b5093929491909461069a565b506040880151825111610585565b6105709161055a565b909791929394959697610533565b634e487b7160e01b85526011600452602485fd5b634e487b7160e01b600052604160045260246000fd5b6040516362c115eb60e11b815260048101879052602490fd5b50851515610428565b8192919493945b85518110156123085760e061220f8288614232565b5101511561224e576001906122486001600160a01b03610100612232848b614232565b51015116838060a01b0360206113e1858c614232565b016121fa565b6005546001600160a01b03166122648288614232565b5151906001600160a01b03602061227b858b614232565b510151169060c061228c858b614232565b51015191608061229c868c614232565b51015193823b15611267579088809493926122cd60405197889687958694630283ce5b60e01b8652600486016142b7565b03925af180156122fd579085916122e9575b5050600190612248565b6122f290613a50565b611a685783386122df565b6040513d87823e3d90fd5b5090919392845b83518110156123b35760065486906001600160a01b03166123308387614232565b51516001600160a01b036020612346868a614232565b51015116916060612357868a614232565b51015190803b15611258576123869385809460405196879586948593630315fd0560e21b8552600485016142ef565b03925af1801561022f5761239f575b505060010161230f565b6123a890613a50565b611603578538612395565b5092909391815180151592836124db575b83612492575b50505060001461243e5760018060a01b0360085416600154813b1561155b57829160648392604051948593849263504c5d5d60e11b84526004840152600160248401528160448401525af1801561022f5790829161242a575b5050611390565b61243390613a50565b61022c578038612423565b60018060a01b0360085416600154813b1561155b57829160648392604051948593849263504c5d5d60e11b845260048401528160248401528160448401525af1801561022f5790829161242a575050611390565b9192506000198101919082116124c75760406124b281936124bb93614232565b51015192614225565b510151113880806123ca565b634e487b7160e01b84526011600452602484fd5b8251151593506123c4565b600019810191508111611f5c576124ff60409186614232565b510151604061250d85614225565b51015111153861040b565b845115159150610405565b9094506125439192503d8084833e61253b8183613a99565b810190614051565b91909193386103f8565b50604051903d90823e3d90fd5b8293508291945061257c903d8084833e6125748183613a99565b810190613d32565b939093949150610393565b6125946040830183613bfb565b158015915061260f575b156103245760405163dd23c3ad60e01b815260206004820152603d60248201527f416c6c2074656e64657220707269636573206d7573742062652072657665616c60448201527f656420666f722061756374696f6e20746f20626520636f6d706c6574650000006064820152608490fd5b5061261d6080830183613bfb565b9050151561259e565b604051632d93dc5b60e21b8152600490fd5b60405163f02c1d9560e01b8152600490fd5b60405163bbc439e160e01b8152600490fd5b90506020813d60201161268e575b8161267760209383613a99565b8101031261155b5761268890613d25565b386102c4565b3d915061266a565b604051631298d6db60e01b8152600490fd5b60405163b9adeefd60e01b8152600490fd5b503461022c578060031936011261022c57602060ff600c5460101c166040519015158152f35b503461022c578060031936011261022c5760206040516301da9c008152f35b503461022c57604036600319011261022c5761274a60043561271f6139f7565b90808452600080516020614f3f833981519152602052612745600160408620015461437b565b6145df565b5080f35b503461022c578060031936011261022c5760209054604051908152f35b503461022c578060031936011261022c57612784614343565b600c805462ff0000191662010000179055600854600154825483926001600160a01b03169190823b1561023a5760448492836040519586948593635fdd148760e01b8552600485015260248401525af1801561022f5761021c5750f35b503461022c578060031936011261022c5761281f60405161280181613a7e565b60058152640352e302e360dc1b602082015260405191829182613ad7565b0390f35b503461022c578060031936011261022c576007546040516001600160a01b039091168152602090f35b503461022c578060031936011261022c57602090604051908152f35b503461022c57604036600319011261022c5760406128846139f7565b916004358152600080516020614f3f833981519152602052209060018060a01b0316600052602052602060ff604060002054166040519015158152f35b503461022c578060031936011261022c57602060ff600c5460081c166040519015158152f35b503461022c578060031936011261022c576020600354604051908152f35b503461022c5761291436613b50565b6002544211156126a857612926614343565b600591808060018060a01b03600554166129408580613bfb565b6129506020889493940188613bfb565b96909361296361036160408b018b613bfb565b03925af192831561254d5781928294612e02575b506006805483919082906001600160a01b03166129976060860186613bfb565b6129aa6080939293976080810190613bfb565b9690936129cd6040519889968795869463c44cee7360e01b8652600486016141fe565b03925af18015612d355784928591612de2575b50845b8651811015612aef5760e06129f88289614232565b51015115612a3757600190612a316001600160a01b03610100612a1b848c614232565b51015116838060a01b0360206113e1858d614232565b016129e3565b88546001600160a01b0316612a4c8289614232565b5151906001600160a01b036020612a63858c614232565b510151169060c0612a74858c614232565b5101519188612a83868d614232565b51015193823b15610e8857908a80949392612ab460405197889687958694630283ce5b60e01b8652600486016142b7565b03925af18015612ae457908791612ad0575b5050600190612a31565b612ad990613a50565b611603578538612ac6565b6040513d89823e3d90fd5b509084918789845b8651811015612b9b5784546001600160a01b0316612b158289614232565b51516001600160a01b036020612b2b858c614232565b51015116916060612b3c858c614232565b51015190803b15610be457612b6b938a809460405196879586948593630315fd0560e21b8552600485016142ef565b03925af1908115612ae4578791612b87575b5050600101612af7565b612b9090613a50565b61160357858a612b7d565b5084938785805b8551811015612c8b57610100612bb88288614232565b51015115612be157600190612bdb6001600160a01b03610120612232848b614232565b01612ba2565b84546001600160a01b0316612bf68288614232565b51516001600160a01b036020612c0c858b614232565b510151169160e0612c1d858b614232565b5101519060a0612c2d868c614232565b51015193813b156114af57868094612c5b60405197889687958694630283ce5b60e01b8652600486016142b7565b03925af19081156114a4578391612c77575b5050600190612bdb565b612c8090613a50565b6114a0578189612c6d565b5080935085815b8151811015612d405784546001600160a01b0316612cb08284614232565b51516001600160a01b036020612cc68587614232565b510151169186612cd68587614232565b51015190803b156114af57612d059387809460405196879586948593630315fd0560e21b8552600485016142ef565b03925af1908115612d35578491612d21575b5050600101612c92565b612d2a90613a50565b61155b578287612d17565b6040513d86823e3d90fd5b828060018060a01b0360085416600154813b15612dde57829160648392604051948593849263504c5d5d60e11b845260048401528160248401528160448401525af1801561022f57612dca575b5050600480546040516304dabab160e41b81529160209183919082906001600160a01b03165afa801561022f5782906115a05761159d9150614310565b612dd390613a50565b61022c578082612d8d565b5050fd5b9050612df99192503d8086833e61253b8183613a99565b919091386129e0565b909350612e1a9192503d8084833e6125748183613a99565b9190919238612977565b503461022c578060031936011261022c576020604051600080516020614f7f8339815191528152f35b503461022c57604036600319011261022c576001600160401b0360043581811161155b57612e7f903690600401613b20565b91602435908111611a6857612e98903690600401613b20565b6002939193544211156126a857612ead614343565b845b828110612f2257600c805461ff0019166101001790819055600854600154889283926001600160a01b03169190823b1561023a57606484928360ff95604051968795869463504c5d5d60e11b8652600486015283602486015260081c16151560448401525af1801561022f5761021c5750f35b80612f4f612f3b612f36600194868a613bc1565b613be7565b612f49612f3684888a613bc1565b90614662565b01612eaf565b503461022c578060031936011261022c576020600b54604051908152f35b503461022c578060031936011261022c576020600154604051908152f35b503461022c5761010036600319011261022c576001600160401b0360043581811161155b57612fc4903690600401613a23565b9160243581811161125857612fdd903690600401613a23565b60a4356001600160a01b0381169291908390036114af57612ffc613a0d565b94600080516020614f9f83398151915296875460ff8160401c1615968116801590816131c6575b60011490816131bc575b1590816131b3575b506131a1576001600160401b0319811660011789556130b5976130909188613186575b5061306161475c565b61306961475c565b61307161475c565b61307961475c565b6001600080516020614f5f833981519152556144d2565b50604051968791602098818a9283830196873781018c83820152038084520182613a99565b51902087556130dc8560405183819483830196873781018a83820152038084520182613a99565b5190206001556044356002556130f6606435608435613b81565b670de0b6b3a76400009081810291818304149015171561080f576301da9c009004600355600780546001600160a01b031916919091179055600c805463ff00ffff1916905560e435600b55613149578280f35b815460ff60401b1916909155604051600181527fc7f505b2f371ae2175ee4913f4499e1f2633a7b5936321eed1cdaeb6115181d29190a138808280f35b6001600160481b0319166001600160401b01178a5538613058565b60405163f92ee8a960e01b8152600490fd5b90501538613035565b303b15915061302d565b889150613023565b503461022c578060031936011261022c57602060ff600c54166040519015158152f35b503461022c578060031936011261022c5761281f60405161321181613a7e565b600b81526a19195d995b1bdc1b595b9d60aa1b602082015260405191829182613ad7565b503461022c578060031936011261022c577f00000000000000000000000000000000000000000000000000000000000000006001600160a01b0316300361328e576020604051600080516020614f1f8339815191528152f35b60405163703e46dd60e11b8152600490fd5b503461022c578060031936011261022c576006546040516001600160a01b039091168152602090f35b50604036600319011261022c576001600160a01b039060043582811691908281036135a0576024938435916001600160401b038311611a685736602384011215611a685782600401359161331c83613abc565b9061332a6040519283613a99565b83825260209384830195368a838301011161187d578188928b889301893784010152807f000000000000000000000000000000000000000000000000000000000000000016803014908115613584575b5061328e57600080516020614ebf83398151915280600052600080516020614f3f8339815191528552604060002033600052855260ff6040600020541615613567575060085416803b1561160357858760448a83604051958694859363b3c2d50b60e01b85523060048601528401525af1801561125c57908691613553575b50506040516352d1902d60e01b815283816004818a5afa869181613524575b5061343557604051634c9c8ce360e01b8152600481018890528890fd5b869088600080516020614f1f8339815191529182810361350f5750843b156134f9575080546001600160a01b031916821790556040518692917fbc7cd75a20ee27fd9adebab32041f755214dbc6bffa90cc0225b39da2e5c2d3b8480a28151156134db575061274a9482915190845af4903d156134d2573d6134b681613abc565b906134c46040519283613a99565b81528581943d92013e614e3b565b60609250614e3b565b945050505050346134ea575080f35b63b398979f60e01b8152600490fd5b604051634c9c8ce360e01b815260048101849052fd5b60405190632a87526960e21b82526004820152fd5b9091508481813d831161354c575b61353c8183613a99565b810103126114af57519038613418565b503d613532565b61355c90613a50565b6112585784386133f9565b886044916040519163e2517d3f60e01b8352336004840152820152fd5b905081600080516020614f1f833981519152541614153861337a565b600080fd5b503461022c578060031936011261022c576020600254604051908152f35b503461022c57604036600319011261022c576135dd6139f7565b336001600160a01b038216036135f95761274a906004356145df565b60405163334bd91960e11b8152600490fd5b503461022c578060031936011261022c576004546040516001600160a01b039091168152602090f35b503461022c578060031936011261022c576020600a54604051908152f35b503461022c5761012036600319011261022c576004356001600160a01b038181169182900361155b5760243591818316809303611a685760443590828216809203611258576064359280841680940361160357608435928184168094036114af5760a43595828716870361187d576136c8613a0d565b9060e43597848916809903610be457610104356001600160401b038111610e88576136f7903690600401613a23565b9790968b60ff6040600080516020614eff83398151915292838152600080516020614f3f833981519152602052818120338252602052205416156138845750600c5460ff8160181c166138725763ff0000001916630100000017600c558a1561382e578b996137a49661379e9560018060a01b03199384600854161760085583600954161760095582600454161760045581600554161760055560065416176006556143ae565b5061444c565b5060085416908354926001549160025494843b156114af5782879360e4936040519a8b998a988996635c81b46b60e11b8852600488015260248701523060448701526064860152608485015260c060a48501528160c4850152848401378181018301849052601f01601f191681010301925af1801561022f57613825575080f35b61159d90613a50565b60405162461bcd60e51b815260206004820152601c60248201527b16995c9bc81859191c995cdcc819195c1b1bde595c881dd85b1b195d60221b6044820152606490fd5b604051634ce377bb60e11b8152600490fd5b6044906040519063e2517d3f60e01b82523360048301526024820152fd5b503461022c57604036600319011261022c5761274a6004356138c26139f7565b90808452600080516020614f3f8339815191526020526138e8600160408620015461437b565b61456a565b503461022c578060031936011261022c576020604051600080516020614eff8339815191528152f35b503461022c57602036600319011261022c57600160406020926004358152600080516020614f3f8339815191528452200154604051908152f35b503461022c578060031936011261022c576020604051600080516020614ebf8339815191528152f35b503461022c578060031936011261022c576005546040516001600160a01b039091168152602090f35b9050346114a05760203660031901126114a05760043563ffffffff60e01b811680910361155b5760209250637965db0b60e01b81149081156139e6575b5015158152f35b6301ffc9a760e01b149050386139df565b602435906001600160a01b03821682036135a057565b60c435906001600160a01b03821682036135a057565b9181601f840112156135a0578235916001600160401b0383116135a057602083818601950101116135a057565b6001600160401b0381116121bb57604052565b602081019081106001600160401b038211176121bb57604052565b604081019081106001600160401b038211176121bb57604052565b601f909101601f19168101906001600160401b038211908210176121bb57604052565b6001600160401b0381116121bb57601f01601f191660200190565b6020808252825181830181905290939260005b828110613b0c57505060409293506000838284010152601f8019910116010190565b818101860151848201604001528501613aea565b9181601f840112156135a0578235916001600160401b0383116135a0576020808501948460051b0101116135a057565b600319906020818301126135a057600435916001600160401b0383116135a0578260a0920301126135a05760040190565b91908203918211611f3857565b81810292918115918404141715611f3857565b8115613bab570490565b634e487b7160e01b600052601260045260246000fd5b9190811015613bd15760051b0190565b634e487b7160e01b600052603260045260246000fd5b356001600160a01b03811681036135a05790565b903590601e19813603018212156135a057018035906001600160401b0382116135a057602001918160051b360383136135a057565b6001600160401b0381116121bb5760051b60200190565b51906001600160a01b03821682036135a057565b9080601f830112156135a057815190602091613c7681613c30565b93613c846040519586613a99565b81855260208086019260051b8201019283116135a057602001905b828210613cad575050505090565b81518152908301908301613c9f565b9080601f830112156135a057815190602091613cd781613c30565b93613ce56040519586613a99565b81855260208086019260051b8201019283116135a057602001905b828210613d0e575050505090565b838091613d1a84613c47565b815201910190613d00565b519081151582036135a057565b919060409081848203126135a05783516001600160401b0391908281116135a05785019181601f840112156135a0578251602093613d6f82613c30565b91613d7c87519384613a99565b808352858084019160051b830101918583116135a057868101915b838310613f1357505050509583810151908282116135a057019180601f840112156135a057825190613dc882613c30565b95613dd581519788613a99565b828752858088019360051b860101948286116135a057868101935b868510613e0257505050505050505090565b84518681116135a0578201906101609081601f1984880301126135a05784518281018181108a821117613efe5786528a8401518152613e42868501613c47565b8b8201526060928385015187830152608093848601519083015260a093848601519083015260c093848601518b81116135a057898e613e8392890101613c5b565b9083015260e093613e95858701613c47565b908301526101009081860151908b82116135a057868e9796613ebf8c8a613eef96819b0101613cbc565b9086015261012093613ed2858301613d25565b9086015261014093613ee5858301613c47565b9086015201613d25565b90820152815201940193613df0565b60246000634e487b7160e01b81526041600452fd5b82518681116135a0578201906101209081601f19848b0301126135a0578a518281018181108a821117613efe578c528a8401518152613f538c8501613c47565b8b820152606092838501518d830152608093848601519083015260a093848601518b81116135a0578c8e613f8992890101613c5b565b9083015260c093613f9b858701613c47565b9083015260e09081860151908b82116135a057868e9796613fc48f8a613fe196819b0101613cbc565b9086015261010093613fd7858301613d25565b9086015201613c47565b90820152815201920191613d97565b81835290916001600160fb1b0383116135a05760209260051b809284830137010190565b9492909361403261404e979561404094606089526060890191613ff0565b918683036020880152613ff0565b926040818503910152613ff0565b90565b919060409081848203126135a05783516001600160401b03908181116135a057850182601f820112156135a05780519260209161408d85613c30565b9061409a87519283613a99565b8582528382018460a0809802830101918483116135a0578501905b82821061419c575050509682810151908482116135a057019281601f850112156135a0578351946140e586613c30565b966140f281519889613a99565b868852848801938560e0809902880101968188116135a0578601945b8786106141215750505050505050505090565b88868303126135a0578251908982019082821087831117613efe578a928992865288518152614151838a01613c47565b8382015285890151868201526060808a0151908201526080808a01519082015261417c878a01613c47565b8782015260c061418d818b01613d25565b9082015281520195019461410e565b87828603126135a0578851908882019082821089831117613efe57899288928c52845181526141cc838601613c47565b838201528b8501518c8201526060808601519082015260806141ef818701613c47565b908201528152019101906140b5565b92906142179061404e9593604086526040860191613ff0565b926020818503910152613ff0565b805115613bd15760200190565b8051821015613bd15760209160051b010190565b90815180825260208080930193019160005b828110614266575050505090565b83516001600160a01b031685529381019392810192600101614258565b90815180825260208080930193019160005b8281106142a3575050505090565b835185529381019392810192600101614295565b9261404e94926142e192855260018060a01b03166020850152608060408501526080840190614246565b916060818403910152614283565b9081526001600160a01b039091166020820152604081019190915260600190565b1561431757565b634e487b7160e01b600052600160045260246000fd5b6040919493926060820195825260208201520152565b336000908152600080516020614edf8339815191526020526040902054600080516020614f7f8339815191529060ff16156138845750565b80600052600080516020614f3f83398151915260205260406000203360005260205260ff60406000205416156138845750565b6001600160a01b031660008181527f0cfb002fcf8644f87ebf6cf6e31899c8d8e9f7c329b465b6e36989a958507e8b6020526040812054909190600080516020614ebf83398151915290600080516020614f3f8339815191529060ff16614446578184526020526040832082845260205260408320600160ff19825416179055600080516020614e9f833981519152339380a4600190565b50505090565b6001600160a01b03166000818152600080516020614edf8339815191526020526040812054909190600080516020614f7f83398151915290600080516020614f3f8339815191529060ff16614446578184526020526040832082845260205260408320600160ff19825416179055600080516020614e9f833981519152339380a4600190565b6001600160a01b031660008181527f44fa5399874b75da801cb431822b6afcadb876f84eb39d7f05bf697e94b4484e6020526040812054909190600080516020614eff83398151915290600080516020614f3f8339815191529060ff16614446578184526020526040832082845260205260408320600160ff19825416179055600080516020614e9f833981519152339380a4600190565b90600091808352600080516020614f3f83398151915280602052604084209260018060a01b03169283855260205260ff60408520541615600014614446578184526020526040832082845260205260408320600160ff19825416179055600080516020614e9f833981519152339380a4600190565b90600091808352600080516020614f3f83398151915280602052604084209260018060a01b03169283855260205260ff60408520541660001461444657818452602052604083208284526020526040832060ff1981541690557ff6391f5c32d9c69d2a47ea670b442974b53935d1edc7fd64eb21e047a839171b339380a4600190565b604051631146ae6360e11b81526001600160a01b0392916020908290600490829087165afa80156146d95783916000916146e5575b501691823b156135a05760246000928360405195869485936364deb92b60e11b85521660048401525af180156146d9576146ce5750565b6146d790613a50565b565b6040513d6000823e3d90fd5b9091506020813d60201161471d575b8161470160209383613a99565b810103126114a0575190838216820361022c5750829038614697565b3d91506146f4565b8015611f38576000190190565b6000198114611f385760010190565b604d8111611f3857600a0a90565b91908201809211611f3857565b60ff600080516020614f9f8339815191525460401c161561477957565b604051631afcd79f60e31b8152600490fd5b600080516020614f5f83398151915260028154146147a95760029055565b604051633ee5aeb560e01b8152600490fd5b60006040516147c981613a63565b5251670de0b6b3a764000090818102918183041490151715611f38576147f0915190613ba1565b604051906147fd82613a63565b815290565b670de0b6b3a76400009161482891600060405161481e81613a63565b5251905190613b8e565b04604051906147fd82613a63565b96959491936148789360a09561486a93600180891b03168a5260208a0152604089015260c0606089015260c0880190614246565b908682036080880152614283565b930152565b90949392606092608083019660018060a01b03168352602083015260408201520152565b8181106148ac575090565b905090565b9390915b84518310806148ea575b156148e3576148d76148dd9160606111118689614232565b92614732565b916148b5565b9350909150565b508360406148f88588614232565b510151106148bf565b604080519161490f83613a63565b61495b670de0b6b3a76400009384815261494360035485519061493182613a63565b8152600a5490865191610f7a83613a63565b906000855161495181613a63565b525190519061474f565b9082519161496883613a63565b825283810290808204851490151715611f385761499192519061498a82613a63565b8152614802565b510490565b908160209103126135a057516001600160a01b03811681036135a05790565b600480546040608081905251630f7a077160e21b808252602060a08190526001600160a01b0399986000989397948b169694959490918886818a5afa978815614cc9578998614e18575b508a6080515191632762697d60e01b8352169687868301528160248160a051935afa908115614cc957908b92918a91614ddf575b5015614d8f575b169389845416916080515195632e25a20760e11b9384885260a051888881855afa978815614d83578b98614d60575b50600354608051519463193354cf60e31b86528a89870152602486015260449660448601528d60649916606486015260848501528360a4818d60a051945af1928315614c06578a93614d2a575b506080515192631b433b1160e01b84528887850152602484015260a051836044818d855af1928315614c06578a93614cf4575b506080515191825281868160a051935afa908115614cc9578991614cd5575b508a8554166080515193845283868160a051935afa928315614cc9578b8a939289928596614c8d575b50818591606494936080515198899788966307a1bb4f60e31b88528d8801526024870152166044850152165af1958615614c815787918897614c23575b50875b8251811015614c1657614b848189614232565b51614b92575b600101614b71565b8a82168b614ba08386614232565b511690614bad838b614232565b51813b15614c125788888d80948d9460805151978896879563790cb49160e01b875286015260248501528b8401525af18015614c0657908a91614bf2575b5050614b8a565b614bfb90613a50565b611267578838614beb565b608051513d8c823e3d90fd5b8b80fd5b5050505050505050509050565b915095503d8088833e614c368183613a99565b81016080518282031261187d5781516001600160401b0390818111610be45782614c61918501613cbc565b9260a051810151918211610be457614c7a929101613c5b565b9538614b6e565b608051513d89823e3d90fd5b8591965091614cb86064949360a0513d60a05111614cc2575b614cb08183613a99565b810190614996565b9691509192614b31565b503d614ca6565b608051513d8b823e3d90fd5b60a051614cee92503d8111614cc257614cb08183613a99565b38614b08565b90925060a0513d60a05111614d23575b614d0e8183613a99565b8160a05191810103126135a057519138614ae9565b503d614d04565b90925060a0513d60a05111614d59575b614d448183613a99565b8160a05191810103126135a057519138614ab6565b503d614d3a565b614d7c91985060a0513d60a05111614cc257614cb08183613a99565b9638614a69565b608051513d8d823e3d90fd5b908716803b156112675788809160246080515180948193631f5cea2b60e11b83528c8b8401525af18015614cc957908b9291614dcc575b50614a3a565b614dd890999199613a50565b9738614dc6565b9192505060a0513d60a05111614e11575b614dfa8183613a99565b8160a051918101031261126757908a915138614a33565b503d614df0565b614e3491985060a0513d60a05111614cc257614cb08183613a99565b96386149ff565b90614e625750805115614e5057805190602001fd5b60405163d6bda27560e01b8152600490fd5b81511580614e95575b614e73575090565b604051639996b31560e01b81526001600160a01b039091166004820152602490fd5b50803b15614e6b56fe2f8788117e7eff1d82e926ec794901d17c78024a50270940304540a733656f0d793a6c9b7e0a9549c74edc2f9ae0dc50903dfaa9a56fb0116b27a8c71de3e2c6b16e88c42fd4e48df2dd6a2eabd6bc9aec654ec170056b470819f8892cc6431c30d41a597cac127d8249d31298b50e481ee82c3f4a49ff93c76a22735aa9f3ad360894a13ba1a3210667c828492db98dca3e2076cc3735a920a3ca505d382bbc02dd7bc7dec4dceedda775e58dd541e08a116c6c53815c0bd028192f7b6268009b779b17422d0df92223018b32b4d1fa46e071723d6817e2486d003becc55f00a49807205ce4d355092ef5a8a18f56e8913cf4a201fbe287825b095693c21775f0c57e16840df040f15088dc2f81fe391c3923bec73e23a9662efc9c229c6a00a2646970667358221220936b37ee26930d92d4714076bafdb3109e8d244e8e768fb2b29fd9fb42d18c1964736f6c63430008160033",
  "linkReferences": {},
  "deployedLinkReferences": {}
}