{
  "_format": "hh-sol-artifact-1",
  "contractName": "TermAuction",
  "sourceName": "contracts/TermAuction.sol",
  "abi": [
    {
      "inputs": [],
      "stateMutability": "nonpayable",
      "type": "constructor"
    },
    {
      "inputs": [],
      "name": "AlreadyTermContractPaired",
      "type": "error"
    },
    {
      "inputs": [],
      "name": "AuctionAlreadyCompleted",
      "type": "error"
    },
    {
      "inputs": [],
      "name": "AuctionCancelledForWithdrawal",
      "type": "error"
    },
    {
      "inputs": [],
      "name": "AuctionNotClosed",
      "type": "error"
    },
    {
      "inputs": [
        {
          "internalType": "uint256",
          "name": "clearingOffset",
          "type": "uint256"
        }
      ],
      "name": "ClearingOffsetNot0Or1",
      "type": "error"
    },
    {
      "inputs": [],
      "name": "CompleteAuctionPaused",
      "type": "error"
    },
    {
      "inputs": [
        {
          "internalType": "string",
          "name": "message",
          "type": "string"
        }
      ],
      "name": "InvalidParameters",
      "type": "error"
    },
    {
      "inputs": [
        {
          "internalType": "uint256",
          "name": "maxDepth",
          "type": "uint256"
        }
      ],
      "name": "MaxPriceSearchDepthExceeded",
      "type": "error"
    },
    {
      "inputs": [],
      "name": "NoBidsOrOffers",
      "type": "error"
    },
    {
      "anonymous": false,
      "inputs": [
        {
          "indexed": false,
          "internalType": "address",
          "name": "previousAdmin",
          "type": "address"
        },
        {
          "indexed": false,
          "internalType": "address",
          "name": "newAdmin",
          "type": "address"
        }
      ],
      "name": "AdminChanged",
      "type": "event"
    },
    {
      "anonymous": false,
      "inputs": [
        {
          "indexed": true,
          "internalType": "address",
          "name": "beacon",
          "type": "address"
        }
      ],
      "name": "BeaconUpgraded",
      "type": "event"
    },
    {
      "anonymous": false,
      "inputs": [
        {
          "indexed": false,
          "internalType": "uint8",
          "name": "version",
          "type": "uint8"
        }
      ],
      "name": "Initialized",
      "type": "event"
    },
    {
      "anonymous": false,
      "inputs": [
        {
          "indexed": true,
          "internalType": "bytes32",
          "name": "role",
          "type": "bytes32"
        },
        {
          "indexed": true,
          "internalType": "bytes32",
          "name": "previousAdminRole",
          "type": "bytes32"
        },
        {
          "indexed": true,
          "internalType": "bytes32",
          "name": "newAdminRole",
          "type": "bytes32"
        }
      ],
      "name": "RoleAdminChanged",
      "type": "event"
    },
    {
      "anonymous": false,
      "inputs": [
        {
          "indexed": true,
          "internalType": "bytes32",
          "name": "role",
          "type": "bytes32"
        },
        {
          "indexed": true,
          "internalType": "address",
          "name": "account",
          "type": "address"
        },
        {
          "indexed": true,
          "internalType": "address",
          "name": "sender",
          "type": "address"
        }
      ],
      "name": "RoleGranted",
      "type": "event"
    },
    {
      "anonymous": false,
      "inputs": [
        {
          "indexed": true,
          "internalType": "bytes32",
          "name": "role",
          "type": "bytes32"
        },
        {
          "indexed": true,
          "internalType": "address",
          "name": "account",
          "type": "address"
        },
        {
          "indexed": true,
          "internalType": "address",
          "name": "sender",
          "type": "address"
        }
      ],
      "name": "RoleRevoked",
      "type": "event"
    },
    {
      "anonymous": false,
      "inputs": [
        {
          "indexed": true,
          "internalType": "address",
          "name": "implementation",
          "type": "address"
        }
      ],
      "name": "Upgraded",
      "type": "event"
    },
    {
      "inputs": [],
      "name": "ADMIN_ROLE",
      "outputs": [
        {
          "internalType": "bytes32",
          "name": "",
          "type": "bytes32"
        }
      ],
      "stateMutability": "view",
      "type": "function"
    },
    {
      "inputs": [],
      "name": "DEFAULT_ADMIN_ROLE",
      "outputs": [
        {
          "internalType": "bytes32",
          "name": "",
          "type": "bytes32"
        }
      ],
      "stateMutability": "view",
      "type": "function"
    },
    {
      "inputs": [],
      "name": "DEVOPS_ROLE",
      "outputs": [
        {
          "internalType": "bytes32",
          "name": "",
          "type": "bytes32"
        }
      ],
      "stateMutability": "view",
      "type": "function"
    },
    {
      "inputs": [],
      "name": "INITIALIZER_ROLE",
      "outputs": [
        {
          "internalType": "bytes32",
          "name": "",
          "type": "bytes32"
        }
      ],
      "stateMutability": "view",
      "type": "function"
    },
    {
      "inputs": [],
      "name": "THREESIXTY_DAYCOUNT_SECONDS",
      "outputs": [
        {
          "internalType": "uint256",
          "name": "",
          "type": "uint256"
        }
      ],
      "stateMutability": "view",
      "type": "function"
    },
    {
      "inputs": [],
      "name": "auctionCancelledForWithdrawal",
      "outputs": [
        {
          "internalType": "bool",
          "name": "",
          "type": "bool"
        }
      ],
      "stateMutability": "view",
      "type": "function"
    },
    {
      "inputs": [],
      "name": "auctionCompleted",
      "outputs": [
        {
          "internalType": "bool",
          "name": "",
          "type": "bool"
        }
      ],
      "stateMutability": "view",
      "type": "function"
    },
    {
      "inputs": [],
      "name": "auctionEndTime",
      "outputs": [
        {
          "internalType": "uint256",
          "name": "",
          "type": "uint256"
        }
      ],
      "stateMutability": "view",
      "type": "function"
    },
    {
      "inputs": [
        {
          "components": [
            {
              "internalType": "bytes32[]",
              "name": "revealedBidSubmissions",
              "type": "bytes32[]"
            },
            {
              "internalType": "bytes32[]",
              "name": "expiredRolloverBids",
              "type": "bytes32[]"
            },
            {
              "internalType": "bytes32[]",
              "name": "unrevealedBidSubmissions",
              "type": "bytes32[]"
            },
            {
              "internalType": "bytes32[]",
              "name": "revealedOfferSubmissions",
              "type": "bytes32[]"
            },
            {
              "internalType": "bytes32[]",
              "name": "unrevealedOfferSubmissions",
              "type": "bytes32[]"
            }
          ],
          "internalType": "struct CompleteAuctionInput",
          "name": "completeAuctionInput",
          "type": "tuple"
        }
      ],
      "name": "cancelAuction",
      "outputs": [],
      "stateMutability": "nonpayable",
      "type": "function"
    },
    {
      "inputs": [
        {
          "internalType": "address[]",
          "name": "rolloverBorrowers",
          "type": "address[]"
        },
        {
          "internalType": "address[]",
          "name": "rolloverPairOffTermRepoServicer",
          "type": "address[]"
        }
      ],
      "name": "cancelAuctionForWithdrawal",
      "outputs": [],
      "stateMutability": "nonpayable",
      "type": "function"
    },
    {
      "inputs": [],
      "name": "clearingPrice",
      "outputs": [
        {
          "internalType": "uint256",
          "name": "",
          "type": "uint256"
        }
      ],
      "stateMutability": "view",
      "type": "function"
    },
    {
      "inputs": [],
      "name": "clearingPricePostProcessingOffset",
      "outputs": [
        {
          "internalType": "uint256",
          "name": "",
          "type": "uint256"
        }
      ],
      "stateMutability": "view",
      "type": "function"
    },
    {
      "inputs": [
        {
          "components": [
            {
              "internalType": "bytes32[]",
              "name": "revealedBidSubmissions",
              "type": "bytes32[]"
            },
            {
              "internalType": "bytes32[]",
              "name": "expiredRolloverBids",
              "type": "bytes32[]"
            },
            {
              "internalType": "bytes32[]",
              "name": "unrevealedBidSubmissions",
              "type": "bytes32[]"
            },
            {
              "internalType": "bytes32[]",
              "name": "revealedOfferSubmissions",
              "type": "bytes32[]"
            },
            {
              "internalType": "bytes32[]",
              "name": "unrevealedOfferSubmissions",
              "type": "bytes32[]"
            }
          ],
          "internalType": "struct CompleteAuctionInput",
          "name": "completeAuctionInput",
          "type": "tuple"
        }
      ],
      "name": "completeAuction",
      "outputs": [],
      "stateMutability": "nonpayable",
      "type": "function"
    },
    {
      "inputs": [],
      "name": "completeAuctionPaused",
      "outputs": [
        {
          "internalType": "bool",
          "name": "",
          "type": "bool"
        }
      ],
      "stateMutability": "view",
      "type": "function"
    },
    {
      "inputs": [],
      "name": "dayCountFractionMantissa",
      "outputs": [
        {
          "internalType": "uint256",
          "name": "",
          "type": "uint256"
        }
      ],
      "stateMutability": "view",
      "type": "function"
    },
    {
      "inputs": [
        {
          "internalType": "bytes32",
          "name": "role",
          "type": "bytes32"
        }
      ],
      "name": "getRoleAdmin",
      "outputs": [
        {
          "internalType": "bytes32",
          "name": "",
          "type": "bytes32"
        }
      ],
      "stateMutability": "view",
      "type": "function"
    },
    {
      "inputs": [
        {
          "internalType": "bytes32",
          "name": "role",
          "type": "bytes32"
        },
        {
          "internalType": "address",
          "name": "account",
          "type": "address"
        }
      ],
      "name": "grantRole",
      "outputs": [],
      "stateMutability": "nonpayable",
      "type": "function"
    },
    {
      "inputs": [
        {
          "internalType": "bytes32",
          "name": "role",
          "type": "bytes32"
        },
        {
          "internalType": "address",
          "name": "account",
          "type": "address"
        }
      ],
      "name": "hasRole",
      "outputs": [
        {
          "internalType": "bool",
          "name": "",
          "type": "bool"
        }
      ],
      "stateMutability": "view",
      "type": "function"
    },
    {
      "inputs": [
        {
          "internalType": "string",
          "name": "termRepoId_",
          "type": "string"
        },
        {
          "internalType": "string",
          "name": "auctionId_",
          "type": "string"
        },
        {
          "internalType": "uint256",
          "name": "auctionEndTime_",
          "type": "uint256"
        },
        {
          "internalType": "uint256",
          "name": "termStart_",
          "type": "uint256"
        },
        {
          "internalType": "uint256",
          "name": "redemptionTimestamp_",
          "type": "uint256"
        },
        {
          "internalType": "contract IERC20MetadataUpgradeable",
          "name": "purchaseToken_",
          "type": "address"
        },
        {
          "internalType": "address",
          "name": "termAuctionInitializer_",
          "type": "address"
        },
        {
          "internalType": "uint256",
          "name": "clearingPricePostProcessingOffset_",
          "type": "uint256"
        }
      ],
      "name": "initialize",
      "outputs": [],
      "stateMutability": "nonpayable",
      "type": "function"
    },
    {
      "inputs": [
        {
          "internalType": "contract ITermEventEmitter",
          "name": "emitter_",
          "type": "address"
        },
        {
          "internalType": "contract ITermRepoServicer",
          "name": "termRepoServicer_",
          "type": "address"
        },
        {
          "internalType": "contract ITermAuctionBidLocker",
          "name": "termAuctionBidLocker_",
          "type": "address"
        },
        {
          "internalType": "contract ITermAuctionOfferLocker",
          "name": "termAuctionOfferLocker_",
          "type": "address"
        },
        {
          "internalType": "address",
          "name": "devopsMultisigAddress_",
          "type": "address"
        },
        {
          "internalType": "address",
          "name": "adminWallet_",
          "type": "address"
        },
        {
          "internalType": "string",
          "name": "version_",
          "type": "string"
        }
      ],
      "name": "pairTermContracts",
      "outputs": [],
      "stateMutability": "nonpayable",
      "type": "function"
    },
    {
      "inputs": [],
      "name": "pauseCompleteAuction",
      "outputs": [],
      "stateMutability": "nonpayable",
      "type": "function"
    },
    {
      "inputs": [],
      "name": "proxiableUUID",
      "outputs": [
        {
          "internalType": "bytes32",
          "name": "",
          "type": "bytes32"
        }
      ],
      "stateMutability": "view",
      "type": "function"
    },
    {
      "inputs": [],
      "name": "purchaseToken",
      "outputs": [
        {
          "internalType": "contract IERC20MetadataUpgradeable",
          "name": "",
          "type": "address"
        }
      ],
      "stateMutability": "view",
      "type": "function"
    },
    {
      "inputs": [
        {
          "internalType": "bytes32",
          "name": "role",
          "type": "bytes32"
        },
        {
          "internalType": "address",
          "name": "account",
          "type": "address"
        }
      ],
      "name": "renounceRole",
      "outputs": [],
      "stateMutability": "nonpayable",
      "type": "function"
    },
    {
      "inputs": [
        {
          "internalType": "bytes32",
          "name": "role",
          "type": "bytes32"
        },
        {
          "internalType": "address",
          "name": "account",
          "type": "address"
        }
      ],
      "name": "revokeRole",
      "outputs": [],
      "stateMutability": "nonpayable",
      "type": "function"
    },
    {
      "inputs": [
        {
          "internalType": "bytes4",
          "name": "interfaceId",
          "type": "bytes4"
        }
      ],
      "name": "supportsInterface",
      "outputs": [
        {
          "internalType": "bool",
          "name": "",
          "type": "bool"
        }
      ],
      "stateMutability": "view",
      "type": "function"
    },
    {
      "inputs": [],
      "name": "termAuctionBidLocker",
      "outputs": [
        {
          "internalType": "contract ITermAuctionBidLocker",
          "name": "",
          "type": "address"
        }
      ],
      "stateMutability": "view",
      "type": "function"
    },
    {
      "inputs": [],
      "name": "termAuctionId",
      "outputs": [
        {
          "internalType": "bytes32",
          "name": "",
          "type": "bytes32"
        }
      ],
      "stateMutability": "view",
      "type": "function"
    },
    {
      "inputs": [],
      "name": "termAuctionOfferLocker",
      "outputs": [
        {
          "internalType": "contract ITermAuctionOfferLocker",
          "name": "",
          "type": "address"
        }
      ],
      "stateMutability": "view",
      "type": "function"
    },
    {
      "inputs": [],
      "name": "termRepoId",
      "outputs": [
        {
          "internalType": "bytes32",
          "name": "",
          "type": "bytes32"
        }
      ],
      "stateMutability": "view",
      "type": "function"
    },
    {
      "inputs": [],
      "name": "termRepoServicer",
      "outputs": [
        {
          "internalType": "contract ITermRepoServicer",
          "name": "",
          "type": "address"
        }
      ],
      "stateMutability": "view",
      "type": "function"
    },
    {
      "inputs": [],
      "name": "unpauseCompleteAuction",
      "outputs": [],
      "stateMutability": "nonpayable",
      "type": "function"
    },
    {
      "inputs": [
        {
          "internalType": "address",
          "name": "newImplementation",
          "type": "address"
        }
      ],
      "name": "upgradeTo",
      "outputs": [],
      "stateMutability": "nonpayable",
      "type": "function"
    },
    {
      "inputs": [
        {
          "internalType": "address",
          "name": "newImplementation",
          "type": "address"
        },
        {
          "internalType": "bytes",
          "name": "data",
          "type": "bytes"
        }
      ],
      "name": "upgradeToAndCall",
      "outputs": [],
      "stateMutability": "payable",
      "type": "function"
    },
    {
      "inputs": [],
      "name": "version",
      "outputs": [
        {
          "internalType": "string",
          "name": "",
          "type": "string"
        }
      ],
      "stateMutability": "view",
      "type": "function"
    }
  ],
  "bytecode": "0x60a0604052306080523480156200001557600080fd5b506200002062000026565b620000e7565b600054610100900460ff1615620000935760405162461bcd60e51b815260206004820152602760248201527f496e697469616c697a61626c653a20636f6e747261637420697320696e697469604482015266616c697a696e6760c81b606482015260840160405180910390fd5b60005460ff90811614620000e5576000805460ff191660ff9081179091556040519081527f7f26b83ff96e1f2b6a682f133852f6798a09c465da95921460cefb38474024989060200160405180910390a15b565b608051615ac76200011f6000396000818161070201528181610742015281816107ca0152818161080a01526108820152615ac76000f3fe6080604052600436106101c45760003560e01c80636d733141116100f8578063a95c4d6211610090578063a95c4d6214610519578063b29489761461053a578063c794564e1461055a578063cc5b6e4a1461056f578063d547741f14610586578063d6725d0c146105a6578063f0436387146105be578063f691fac1146105df578063fa2a3cca146105ff57600080fd5b80636d7331411461041d578063700e3e2a14610434578063743a8f881461044b57806375b238fc1461046b57806376f9a41e1461048d5780637a6944c5146104ad5780638dfea9e7146104c457806391d14854146104e4578063a217fddf1461050457600080fd5b806336568abe1161016b57806336568abe146103085780633659cfe6146103285780634b449cba146103485780634f1ef2861461035f578063505d799e1461037257806352d1902d1461039357806354fd4d50146103a85780635fb8f3ed146103e25780636125be55146103fd57600080fd5b806301ffc9a7146101c957806306b282c9146101fe578063201a66251461022c578063248a9ca31461025c57806327df3d3e1461028c5780632f2ff15d146102ae57806332a0f2d7146102d0578063357a77d2146102e7575b600080fd5b3480156101d557600080fd5b506101e96101e4366004614818565b610614565b60405190151581526020015b60405180910390f35b34801561020a57600080fd5b506101325461021f906001600160a01b031681565b6040516101f59190614842565b34801561023857600080fd5b5061024e6000805160206159eb83398151915281565b6040519081526020016101f5565b34801561026857600080fd5b5061024e610277366004614856565b600090815260c9602052604090206001015490565b34801561029857600080fd5b5061024e600080516020615a0b83398151915281565b3480156102ba57600080fd5b506102ce6102c9366004614884565b61064b565b005b3480156102dc57600080fd5b5061024e6101365481565b3480156102f357600080fd5b506101315461021f906001600160a01b031681565b34801561031457600080fd5b506102ce610323366004614884565b610675565b34801561033457600080fd5b506102ce6103433660046148b4565b6106f8565b34801561035457600080fd5b5061024e61012f5481565b6102ce61036d3660046149a7565b6107c0565b34801561037e57600080fd5b506101335461021f906001600160a01b031681565b34801561039f57600080fd5b5061024e610875565b3480156103b457600080fd5b50604080518082018252600b81526a19195d995b1bdc1b595b9d60aa1b602082015290516101f59190614a72565b3480156103ee57600080fd5b50610138546101e99060ff1681565b34801561040957600080fd5b506102ce610418366004614ae6565b610923565b34801561042957600080fd5b5061024e61012e5481565b34801561044057600080fd5b5061024e6101375481565b34801561045757600080fd5b506102ce610466366004614be6565b610b2d565b34801561047757600080fd5b5061024e600080516020615a7283398151915281565b34801561049957600080fd5b506102ce6104a8366004614c51565b610c65565b3480156104b957600080fd5b5061024e6101305481565b3480156104d057600080fd5b50610138546101e990610100900460ff1681565b3480156104f057600080fd5b506101e96104ff366004614884565b611361565b34801561051057600080fd5b5061024e600081565b34801561052557600080fd5b506101345461021f906001600160a01b031681565b34801561054657600080fd5b506102ce610555366004614c8b565b61138c565b34801561056657600080fd5b506102ce6114e5565b34801561057b57600080fd5b5061024e61012d5481565b34801561059257600080fd5b506102ce6105a1366004614884565b611586565b3480156105b257600080fd5b5061024e6301da9c0081565b3480156105ca57600080fd5b50610138546101e99062010000900460ff1681565b3480156105eb57600080fd5b506102ce6105fa366004614c51565b6115ab565b34801561060b57600080fd5b506102ce611ffc565b60006001600160e01b03198216637965db0b60e01b148061064557506301ffc9a760e01b6001600160e01b03198316145b92915050565b600082815260c9602052604090206001015461066681612060565b610670838361206a565b505050565b6001600160a01b03811633146106ea5760405162461bcd60e51b815260206004820152602f60248201527f416363657373436f6e74726f6c3a2063616e206f6e6c792072656e6f756e636560448201526e103937b632b9903337b91039b2b63360891b60648201526084015b60405180910390fd5b6106f482826120f0565b5050565b6001600160a01b037f00000000000000000000000000000000000000000000000000000000000000001630036107405760405162461bcd60e51b81526004016106e190614d3d565b7f00000000000000000000000000000000000000000000000000000000000000006001600160a01b0316610772612157565b6001600160a01b0316146107985760405162461bcd60e51b81526004016106e190614d89565b6107a181612173565b604080516000808252602082019092526107bd918391906121f5565b50565b6001600160a01b037f00000000000000000000000000000000000000000000000000000000000000001630036108085760405162461bcd60e51b81526004016106e190614d3d565b7f00000000000000000000000000000000000000000000000000000000000000006001600160a01b031661083a612157565b6001600160a01b0316146108605760405162461bcd60e51b81526004016106e190614d89565b61086982612173565b6106f4828260016121f5565b6000306001600160a01b037f000000000000000000000000000000000000000000000000000000000000000016146109105760405162461bcd60e51b815260206004820152603860248201527f555550535570677261646561626c653a206d757374206e6f742062652063616c6044820152771b1959081d1a1c9bdd59da0819195b1959d85d1958d85b1b60421b60648201526084016106e1565b50600080516020615a2b83398151915290565b600054610100900460ff16158080156109435750600054600160ff909116105b80610964575061095230612360565b158015610964575060005460ff166001145b6109c75760405162461bcd60e51b815260206004820152602e60248201527f496e697469616c697a61626c653a20636f6e747261637420697320616c72656160448201526d191e481a5b9a5d1a585b1a5e995960921b60648201526084016106e1565b6000805460ff1916600117905580156109ea576000805461ff0019166101001790555b6109f261236f565b6109fa61236f565b610a02612398565b610a1a600080516020615a0b8339815191528461206a565b8a8a604051602001610a2d929190614dd5565b60408051601f1981840301815290829052805160209182012061012d55610a58918b918b9101614dd5565b60408051601f19818403018152919052805160209091012061012e5561012f8790556301da9c00670de0b6b3a7640000610a928888614dfb565b610a9c9190614e0e565b610aa69190614e25565b6101305561013480546001600160a01b0319166001600160a01b038616179055610138805463ff00ffff191690556101378290558015610b20576000805461ff0019169055604051600181527f7f26b83ff96e1f2b6a682f133852f6798a09c465da95921460cefb38474024989060200160405180910390a15b5050505050505050505050565b61012f544211610b505760405163b9adeefd60e01b815260040160405180910390fd5b600080516020615a72833981519152610b6881612060565b60005b84811015610bd957610bc9848483818110610b8857610b88614e47565b9050602002016020810190610b9d91906148b4565b878784818110610baf57610baf614e47565b9050602002016020810190610bc491906148b4565b6123c7565b610bd281614e5d565b9050610b6b565b50610138805461ff001916610100908117918290556101355461012e5460405163504c5d5d60e11b81526001600160a01b039092169363a098baba93610c2c936000929190910460ff1690600401614e76565b600060405180830381600087803b158015610c4657600080fd5b505af1158015610c5a573d6000803e3d6000fd5b505050505050505050565b61012f544211610c885760405163b9adeefd60e01b815260040160405180910390fd5b600080516020615a72833981519152610ca081612060565b6101325460009081906001600160a01b031663f9202d63610cc18680614e8e565b610cce6020890189614e8e565b610cdb60408b018b614e8e565b6040518763ffffffff1660e01b8152600401610cfc96959493929190614f09565b6000604051808303816000875af1158015610d1b573d6000803e3d6000fd5b505050506040513d6000823e601f3d908101601f19168201604052610d4391908101906151c9565b61013354919350915060009081906001600160a01b031663c44cee73610d6c6060890189614e8e565b610d7960808b018b614e8e565b6040518563ffffffff1660e01b8152600401610d98949392919061535b565b6000604051808303816000875af1158015610db7573d6000803e3d6000fd5b505050506040513d6000823e601f3d908101601f19168201604052610ddf9190810190615462565b9150915060005b8451811015610f4e57848181518110610e0157610e01614e47565b602002602001015160e0015115610e5c57610e57858281518110610e2757610e27614e47565b60200260200101516101000151868381518110610e4657610e46614e47565b6020026020010151602001516123c7565b610f3e565b6101325485516001600160a01b0390911690630283ce5b90879084908110610e8657610e86614e47565b602002602001015160000151878481518110610ea457610ea4614e47565b602002602001015160200151888581518110610ec257610ec2614e47565b602002602001015160c00151898681518110610ee057610ee0614e47565b6020026020010151608001516040518563ffffffff1660e01b8152600401610f0b94939291906155da565b600060405180830381600087803b158015610f2557600080fd5b505af1158015610f39573d6000803e3d6000fd5b505050505b610f4781614e5d565b9050610de6565b5060005b825181101561102e576101335483516001600160a01b0390911690630c57f41490859084908110610f8557610f85614e47565b602002602001015160000151858481518110610fa357610fa3614e47565b602002602001015160200151868581518110610fc157610fc1614e47565b6020026020010151606001516040518463ffffffff1660e01b8152600401610feb93929190615616565b600060405180830381600087803b15801561100557600080fd5b505af1158015611019573d6000803e3d6000fd5b505050508061102790614e5d565b9050610f52565b5060005b835181101561118a5783818151811061104d5761104d614e47565b60200260200101516101000151156110985761109384828151811061107457611074614e47565b60200260200101516101200151858381518110610e4657610e46614e47565b61117a565b6101325484516001600160a01b0390911690630283ce5b908690849081106110c2576110c2614e47565b6020026020010151600001518684815181106110e0576110e0614e47565b6020026020010151602001518785815181106110fe576110fe614e47565b602002602001015160e0015188868151811061111c5761111c614e47565b602002602001015160a001516040518563ffffffff1660e01b815260040161114794939291906155da565b600060405180830381600087803b15801561116157600080fd5b505af1158015611175573d6000803e3d6000fd5b505050505b61118381614e5d565b9050611032565b5060005b815181101561126a576101335482516001600160a01b0390911690630c57f414908490849081106111c1576111c1614e47565b6020026020010151600001518484815181106111df576111df614e47565b6020026020010151602001518585815181106111fd576111fd614e47565b6020026020010151608001516040518463ffffffff1660e01b815260040161122793929190615616565b600060405180830381600087803b15801561124157600080fd5b505af1158015611255573d6000803e3d6000fd5b505050508061126390614e5d565b905061118e565b6101355461012e5460405163504c5d5d60e11b81526001600160a01b039092169163a098baba916112a2916000908190600401614e76565b600060405180830381600087803b1580156112bc57600080fd5b505af11580156112d0573d6000803e3d6000fd5b5050505061013160009054906101000a90046001600160a01b03166001600160a01b0316634dabab106040518163ffffffff1660e01b8152600401602060405180830381865afa158015611328573d6000803e3d6000fd5b505050506040513d601f19601f8201168201806040525081019061134c9190615635565b61135857611358615650565b50505050505050565b600091825260c9602090815260408084206001600160a01b0393909316845291905290205460ff1690565b600080516020615a0b8339815191526113a481612060565b610138546301000000900460ff16156113d057604051634ce377bb60e11b815260040160405180910390fd5b610138805463ff0000001916630100000017905561013580546001600160a01b03808c166001600160a01b03199283161790925561013180548b841690831617905561013280548a841690831617905561013380549289169290911691909117905561144a6000805160206159eb8339815191528661206a565b611462600080516020615a728339815191528561206a565b6101355461012d5461012e5461012f5460405163383a8ab160e01b81526001600160a01b039094169363383a8ab1936114a893909290913091908a908a90600401615666565b600060405180830381600087803b1580156114c257600080fd5b505af11580156114d6573d6000803e3d6000fd5b50505050505050505050505050565b600080516020615a728339815191526114fd81612060565b610138805462ff00001916620100001790556101355461012e5461012d54604051635fdd148760e01b81526001600160a01b0390931692635fdd148792611551929091600401918252602082015260400190565b600060405180830381600087803b15801561156b57600080fd5b505af115801561157f573d6000803e3d6000fd5b5050505050565b600082815260c960205260409020600101546115a181612060565b61067083836120f0565b61012f5442116115ce5760405163b9adeefd60e01b815260040160405180910390fd5b6101385462010000900460ff16156115f957604051631298d6db60e01b815260040160405180910390fd5b6101385460ff161561161e5760405163f02c1d9560e01b815260040160405180910390fd5b61013854610100900460ff161561164857604051632d93dc5b60e21b815260040160405180910390fd5b610138805460ff1916600117905561166e600080516020615a7283398151915233611361565b6117115760006116816040830183614e8e565b9050118061169d575060006116996080830183614e8e565b9050115b156117115760405163dd23c3ad60e01b815260206004820152603d60248201527f416c6c2074656e64657220707269636573206d7573742062652072657665616c60448201527f656420666f722061756374696f6e20746f20626520636f6d706c65746500000060648201526084016106e1565b6101325460009081906001600160a01b031663f9202d636117328580614e8e565b61173f6020880188614e8e565b61174c60408a018a614e8e565b6040518763ffffffff1660e01b815260040161176d96959493929190614f09565b6000604051808303816000875af115801561178c573d6000803e3d6000fd5b505050506040513d6000823e601f3d908101601f191682016040526117b491908101906151c9565b61013354919350915060009081906001600160a01b031663c44cee736117dd6060880188614e8e565b6117ea60808a018a614e8e565b6040518563ffffffff1660e01b8152600401611809949392919061535b565b6000604051808303816000875af1158015611828573d6000803e3d6000fd5b505050506040513d6000823e601f3d908101601f191682016040526118509190810190615462565b9150915060008451118015611866575060008251115b80156118ba57508160008151811061188057611880614e47565b602002602001015160400151846001865161189b9190614dfb565b815181106118ab576118ab614e47565b60200260200101516040015110155b156119fa5760006118cb8584612497565b915050600061013460009054906101000a90046001600160a01b03166001600160a01b031663313ce5676040518163ffffffff1660e01b8152600401602060405180830381865afa158015611924573d6000803e3d6000fd5b505050506040513d601f19601f8201168201806040525081019061194891906156b9565b60ff169050600061195a8784846124d1565b9050600061196986858561299a565b6101355461012e5461013654604051630ef1216760e41b81526004810192909252426024830152436044830152606482018690526084820184905260a48201529192506001600160a01b03169063ef1216709060c401600060405180830381600087803b1580156119d957600080fd5b505af11580156119ed573d6000803e3d6000fd5b5050505050505050611d5b565b60005b8451811015611b3557848181518110611a1857611a18614e47565b602002602001015160e0015115611a4357611a3e858281518110610e2757610e27614e47565b611b25565b6101325485516001600160a01b0390911690630283ce5b90879084908110611a6d57611a6d614e47565b602002602001015160000151878481518110611a8b57611a8b614e47565b602002602001015160200151888581518110611aa957611aa9614e47565b602002602001015160c00151898681518110611ac757611ac7614e47565b6020026020010151608001516040518563ffffffff1660e01b8152600401611af294939291906155da565b600060405180830381600087803b158015611b0c57600080fd5b505af1158015611b20573d6000803e3d6000fd5b505050505b611b2e81614e5d565b90506119fd565b5060005b8251811015611c15576101335483516001600160a01b0390911690630c57f41490859084908110611b6c57611b6c614e47565b602002602001015160000151858481518110611b8a57611b8a614e47565b602002602001015160200151868581518110611ba857611ba8614e47565b6020026020010151606001516040518463ffffffff1660e01b8152600401611bd293929190615616565b600060405180830381600087803b158015611bec57600080fd5b505af1158015611c00573d6000803e3d6000fd5b5050505080611c0e90614e5d565b9050611b39565b5060008451118015611c28575060008251115b8015611c7b575081600081518110611c4257611c42614e47565b6020026020010151604001518460018651611c5d9190614dfb565b81518110611c6d57611c6d614e47565b602002602001015160400151105b15611cf0576101355461012e5460405163504c5d5d60e11b81526001600160a01b039092169163a098baba91611cb991600190600090600401614e76565b600060405180830381600087803b158015611cd357600080fd5b505af1158015611ce7573d6000803e3d6000fd5b50505050611d5b565b6101355461012e5460405163504c5d5d60e11b81526001600160a01b039092169163a098baba91611d28916000908190600401614e76565b600060405180830381600087803b158015611d4257600080fd5b505af1158015611d56573d6000803e3d6000fd5b505050505b60005b8351811015611e9757838181518110611d7957611d79614e47565b6020026020010151610100015115611da557611da084828151811061107457611074614e47565b611e87565b6101325484516001600160a01b0390911690630283ce5b90869084908110611dcf57611dcf614e47565b602002602001015160000151868481518110611ded57611ded614e47565b602002602001015160200151878581518110611e0b57611e0b614e47565b602002602001015160e00151888681518110611e2957611e29614e47565b602002602001015160a001516040518563ffffffff1660e01b8152600401611e5494939291906155da565b600060405180830381600087803b158015611e6e57600080fd5b505af1158015611e82573d6000803e3d6000fd5b505050505b611e9081614e5d565b9050611d5e565b5060005b8151811015611f77576101335482516001600160a01b0390911690630c57f41490849084908110611ece57611ece614e47565b602002602001015160000151848481518110611eec57611eec614e47565b602002602001015160200151858581518110611f0a57611f0a614e47565b6020026020010151608001516040518463ffffffff1660e01b8152600401611f3493929190615616565b600060405180830381600087803b158015611f4e57600080fd5b505af1158015611f62573d6000803e3d6000fd5b5050505080611f7090614e5d565b9050611e9b565b5061013160009054906101000a90046001600160a01b03166001600160a01b0316634dabab106040518163ffffffff1660e01b8152600401602060405180830381865afa158015611fcc573d6000803e3d6000fd5b505050506040513d601f19601f82011682018060405250810190611ff09190615635565b61157f5761157f615650565b600080516020615a7283398151915261201481612060565b610138805462ff0000191690556101355461012e5461012d5460405162d9568360e21b8152600481019290925260248201526001600160a01b03909116906303655a0c90604401611551565b6107bd8133612d9c565b6120748282611361565b6106f457600082815260c9602090815260408083206001600160a01b03851684529091529020805460ff191660011790556120ac3390565b6001600160a01b0316816001600160a01b0316837f2f8788117e7eff1d82e926ec794901d17c78024a50270940304540a733656f0d60405160405180910390a45050565b6120fa8282611361565b156106f457600082815260c9602090815260408083206001600160a01b0385168085529252808320805460ff1916905551339285917ff6391f5c32d9c69d2a47ea670b442974b53935d1edc7fd64eb21e047a839171b9190a45050565b600080516020615a2b833981519152546001600160a01b031690565b6000805160206159eb83398151915261218b81612060565b6101355460405163b3c2d50b60e01b81523060048201526001600160a01b0384811660248301529091169063b3c2d50b90604401600060405180830381600087803b1580156121d957600080fd5b505af11580156121ed573d6000803e3d6000fd5b505050505050565b7f4910fdfa16fed3260ed0e7147f7cc6da11a60208b5b9406d12a635614ffd91435460ff16156122285761067083612df5565b826001600160a01b03166352d1902d6040518163ffffffff1660e01b8152600401602060405180830381865afa925050508015612282575060408051601f3d908101601f1916820190925261227f918101906156dc565b60015b6122e55760405162461bcd60e51b815260206004820152602e60248201527f45524331393637557067726164653a206e657720696d706c656d656e7461746960448201526d6f6e206973206e6f74205555505360901b60648201526084016106e1565b600080516020615a2b83398151915281146123545760405162461bcd60e51b815260206004820152602960248201527f45524331393637557067726164653a20756e737570706f727465642070726f786044820152681a58589b195555525160ba1b60648201526084016106e1565b50610670838383612e8f565b6001600160a01b03163b151590565b600054610100900460ff166123965760405162461bcd60e51b81526004016106e1906156f5565b565b600054610100900460ff166123bf5760405162461bcd60e51b81526004016106e1906156f5565b612396612eba565b60008290506000816001600160a01b031663228d5cc66040518163ffffffff1660e01b8152600401602060405180830381865afa15801561240c573d6000803e3d6000fd5b505050506040513d601f19601f820116820180604052508101906124309190615740565b6040516364deb92b60e11b81529091506001600160a01b0382169063c9bd72569061245f908690600401614842565b600060405180830381600087803b15801561247957600080fd5b505af115801561248d573d6000803e3d6000fd5b5050505050505050565b6000806124a2612ee8565b6000806124b3868661013754612f41565b610136829055909450925050506124ca600160fb55565b9250929050565b82516000908190819081905b801561298e576124ee600182614dfb565b915060008061251b8a858151811061250857612508614e47565b6020026020010151604001518b866137d5565b91509150610136548a858151811061253557612535614e47565b6020026020010151604001511015801561254e57508886105b8015612563575061255f868a614dfb565b8111155b156125fe57600094505b816125788686614dfb565b106125db576125a88a61258b8787614dfb565b8151811061259b5761259b614e47565b6020026020010151613879565b6125b2908761575d565b95508484036125cb576125c485614e5d565b94506125db565b6125d485614e5d565b945061256d565b84156125f9576125ec600186614dfb565b6125f69084614dfb565b92505b61297b565b610136548a858151811061261457612614614e47565b6020026020010151604001511015801561262d57508886105b1561284257600094505b816126428686614dfb565b106125db57816126528686614dfb565b036126b55761268e8a6126658787614dfb565b8151811061267557612675614e47565b6020026020010151878b6126899190614dfb565b6139c6565b612698908761575d565b95506126a4868a614dfb565b6126ae9082614dfb565b9050612822565b60008a6126c28787614dfb565b815181106126d2576126d2614e47565b6020026020010151606001519050600061275360405180602001604052808c60126126fd9190614dfb565b61270890600a615854565b8b8f6127149190614dfb565b61271e9190614e0e565b90526040805160208101909152806127378e6012614dfb565b61274290600a615854565b61274c9088614e0e565b9052613af3565b905060006127628b6012614dfb565b61276d90600a615854565b6127a58360405180602001604052808f60126127899190614dfb565b61279490600a615854565b61279e9089614e0e565b9052613b36565b516127b09190614e25565b90506127de8d6127c08a8a614dfb565b815181106127d0576127d0614e47565b6020026020010151826139c6565b6127e8908a61575d565b98508c6127f58989614dfb565b8151811061280557612805614e47565b6020026020010151606001518461281c9190614dfb565b93505050505b848403612832576125c485614e5d565b61283b85614e5d565b9450612637565b89848151811061285457612854614e47565b602002602001015160e0015115612899576125f98a858151811061287a5761287a614e47565b602002602001015161010001518b8681518110610e4657610e46614e47565b610132548a516001600160a01b0390911690630283ce5b908c90879081106128c3576128c3614e47565b6020026020010151600001518c87815181106128e1576128e1614e47565b6020026020010151602001518d88815181106128ff576128ff614e47565b602002602001015160c001518e898151811061291d5761291d614e47565b6020026020010151608001516040518563ffffffff1660e01b815260040161294894939291906155da565b600060405180830381600087803b15801561296257600080fd5b505af1158015612976573d6000803e3d6000fd5b505050505b50508061298790615860565b90506124dd565b50919695505050505050565b60008080805b8651811015612d91576000806129d48984815181106129c1576129c1614e47565b6020026020010151604001518a85613b75565b91509150610136548984815181106129ee576129ee614e47565b60200260200101516040015111158015612a0757508785105b8015612a1c5750612a188589614dfb565b8111155b15612aa057600093505b81612a31848661575d565b11612a7d57612a6189612a44858761575d565b81518110612a5457612a54614e47565b6020026020010151613c24565b612a6b908661575d565b9450612a7684614e5d565b9350612a26565b8315612a9b57612a8e600185614dfb565b612a98908461575d565b92505b612d7e565b61013654898481518110612ab657612ab6614e47565b60200260200101516040015111158015612acf57508785105b15612cbb57600093505b81612ae4848661575d565b11612a7d5781612af4848661575d565b03612b5757612b3089612b07858761575d565b81518110612b1757612b17614e47565b6020026020010151868a612b2b9190614dfb565b613cec565b612b3a908661575d565b9450612b468589614dfb565b612b509082614dfb565b9050612ca9565b600089612b64858761575d565b81518110612b7457612b74614e47565b60200260200101516060015190506000612bd760405180602001604052808b6012612b9f9190614dfb565b612baa90600a615854565b612bb48b8f614dfb565b612bbe9190614e0e565b90526040805160208101909152806127378d6012614dfb565b9050600084612be6878961575d565b03612bfa57612bf5888c614dfb565b612c37565b612c058a6012614dfb565b612c1090600a615854565b612c2c8360405180602001604052808e60126127899190614dfb565b51612c379190614e25565b9050612c658c612c47888a61575d565b81518110612c5757612c57614e47565b602002602001015182613cec565b612c6f908961575d565b97508b612c7c878961575d565b81518110612c8c57612c8c614e47565b60200260200101516060015184612ca39190614dfb565b93505050505b83612cb381614e5d565b945050612ad9565b6101335489516001600160a01b0390911690630c57f414908b9086908110612ce557612ce5614e47565b6020026020010151600001518b8681518110612d0357612d03614e47565b6020026020010151602001518c8781518110612d2157612d21614e47565b6020026020010151606001516040518463ffffffff1660e01b8152600401612d4b93929190615616565b600060405180830381600087803b158015612d6557600080fd5b505af1158015612d79573d6000803e3d6000fd5b505050505b505080612d8a90614e5d565b90506129a0565b509095945050505050565b612da68282611361565b6106f457612db381613e27565b612dbe836020613e39565b604051602001612dcf929190615877565b60408051601f198184030181529082905262461bcd60e51b82526106e191600401614a72565b612dfe81612360565b612e605760405162461bcd60e51b815260206004820152602d60248201527f455243313936373a206e657720696d706c656d656e746174696f6e206973206e60448201526c1bdd08184818dbdb9d1c9858dd609a1b60648201526084016106e1565b600080516020615a2b83398151915280546001600160a01b0319166001600160a01b0392909216919091179055565b612e9883613fdb565b600082511180612ea55750805b1561067057612eb4838361401b565b50505050565b600054610100900460ff16612ee15760405162461bcd60e51b81526004016106e1906156f5565b600160fb55565b600260fb5403612f3a5760405162461bcd60e51b815260206004820152601f60248201527f5265656e7472616e637947756172643a207265656e7472616e742063616c6c0060448201526064016106e1565b600260fb55565b60008082600114158015612f5457508215155b15612f75576040516362c115eb60e11b8152600481018490526024016106e1565b6000604051806101e0016040528086600081518110612f9657612f96614e47565b6020026020010151604001518152602001600181526020018751815260200186600081518110612fc857612fc8614e47565b602002602001015160600151815260200160008152602001600081526020016000815260200160008152602001600081526020016000815260200160008152602001600081526020016000151581526020016000815260200160008152509050613047866001836040015161303d9190614dfb565b8351600090614040565b604083015260808201819052606082015161306291906140f0565b60a08201525b84518160200151108015613080575085518160400151105b156131ee57602081015160c08201819052604082015160e083015260608201516101008301526080820151610120830152855186919081106130c4576130c4614e47565b602002602001015160400151816101400181815250505b84518160c001511080156131145750806101400151858260c001518151811061310657613106614e47565b602002602001015160400151145b156131625760c081018051869161312a82614e5d565b90528151811061313c5761313c614e47565b602002602001015160600151816101000181815161315a919061575d565b9052506130db565b61317c868260e00151836101200151846101400151614107565b60e0830152610120820181905261010082015161319991906140f0565b610160820181905260a082015110156131ee5760c0810151602082015260e0810151604082015261010081015160608201526101208101516080820152610140810151815261016081015160a0820152613068565b845181602001511061320257600019613225565b8481602001518151811061321857613218614e47565b6020026020010151604001515b6101408201525b85518160400151101561334057604081015160e082018190528651879190811061325857613258614e47565b6020908102919091010151604001516101a0820181905260808201516101208301526101408201511115613340575b85518160e001511080156132c05750806101a00151868260e00151815181106132b2576132b2614e47565b602002602001015160400151145b1561330e5760e08101805187916132d682614e5d565b9052815181106132e8576132e8614e47565b60200260200101516060015181610120018181516133069190614dfb565b905250613287565b806060015181610120015110613340576001610180820152610120810151608082015260e0810151604082015261322c565b806101800151156133b857855181604001511461337e578581604001518151811061336d5761336d614e47565b6020026020010151604001516133ad565b85600182604001516133909190614dfb565b815181106133a0576133a0614e47565b6020026020010151604001515b6101c08201526133c1565b80516101c08201525b602081018051906133d182615860565b81525050836001036135325760208101515b60008111801561343057508582602001518151811061340457613404614e47565b60200260200101516040015186828151811061342257613422614e47565b602002602001015160400151145b1561344757613440600182614dfb565b90506133e3565b6040820151875181036134625761345f600182614dfb565b90505b600188516134709190614dfb565b811080156134bb57508783604001518151811061348f5761348f614e47565b6020026020010151604001518882815181106134ad576134ad614e47565b602002602001015160400151145b156134d2576134cb60018261575d565b9050613462565b60028882815181106134e6576134e6614e47565b60200260200101516040015188848151811061350457613504614e47565b60200260200101516040015161351a919061575d565b6135249190614e25565b6101c0840152506135b69050565b8551816040015103613555576001816040018181516135519190614dfb565b9052505b60028682604001518151811061356d5761356d614e47565b6020026020010151604001518683602001518151811061358f5761358f614e47565b6020026020010151604001516135a5919061575d565b6135af9190614e25565b6101c08201525b806101c00151858260200151815181106135d2576135d2614e47565b6020026020010151604001511161368957602081018051906135f382614e5d565b9052505b845181602001511080156136315750806101c001518582602001518151811061362257613622614e47565b60200260200101516040015111155b15613684578481602001518151811061364c5761364c614e47565b60200260200101516060015181606001818151613669919061575d565b9052506020810180519061367c82614e5d565b9052506135f7565b61370f565b806101c00151858260200151815181106136a5576136a5614e47565b602002602001015160400151111561370f57848160200151815181106136cd576136cd614e47565b602002602001015160600151816060018181516136ea9190614dfb565b90525060208101511561370f576020810180519061370782615860565b905250613689565b855181604001511080156137485750806101c001518682604001518151811061373a5761373a614e47565b602002602001015160400151105b15613775576137668682604001518360800151846101c00151614107565b604083015260808201526137af565b6040810151156137af576137a486600183604001516137949190614dfb565b8360800151846101c00151614040565b604083015260808201525b806101c001516137c7826080015183606001516140f0565b92509250505b935093915050565b6000808291508382815181106137ed576137ed614e47565b60200260200101516060015190505b81158061383057508484613811600185614dfb565b8151811061382157613821614e47565b60200260200101516040015114155b6137cd5783613840600184614dfb565b8151811061385057613850614e47565b60200260200101516060015181613867919061575d565b905061387282615860565b91506137fc565b6000613883612ee8565b60006138928360600151614188565b90508260e0015161392657610131546020840151606085015160c0860151608087015161013054604051635115f4e560e11b81526001600160a01b039096169563a22be9ca956138ef9590949093899391929091906004016158e6565b600060405180830381600087803b15801561390957600080fd5b505af115801561391d573d6000803e3d6000fd5b5050505061393f565b61393f836020015184606001518386610100015161420a565b6101355461012e54845160608601516040516303e852b160e01b81526001600160a01b03909416936303e852b19361397d9390929091600401615939565b600060405180830381600087803b15801561399757600080fd5b505af11580156139ab573d6000803e3d6000fd5b5050505082606001519150506139c1600160fb55565b919050565b60006139d0612ee8565b60006139db83614188565b90508360e00151613a655761013154602085015160c0860151608087015161013054604051635115f4e560e11b81526001600160a01b039095169463a22be9ca94613a2e9490938a9389936004016158e6565b600060405180830381600087803b158015613a4857600080fd5b505af1158015613a5c573d6000803e3d6000fd5b50505050613a7a565b613a7a8460200151848387610100015161420a565b6101355461012e5485516040516303e852b160e01b81526001600160a01b03909316926303e852b192613ab39290918890600401615939565b600060405180830381600087803b158015613acd57600080fd5b505af1158015613ae1573d6000803e3d6000fd5b5050505082915050610645600160fb55565b6040805160208101909152600081526040518060200160405280613b2d613b268660000151670de0b6b3a764000061468f565b855161469b565b90529392505050565b6040805160208101909152600081526040518060200160405280670de0b6b3a7640000613b6b8660000151866000015161468f565b613b2d9190614e25565b600080829150838281518110613b8d57613b8d614e47565b60200260200101516060015190505b60018451613baa9190614dfb565b8210156137cd578484613bbe84600161575d565b81518110613bce57613bce614e47565b602002602001015160400151036137cd5783613beb83600161575d565b81518110613bfb57613bfb614e47565b60200260200101516060015181613c12919061575d565b9050613c1d82614e5d565b9150613b9c565b6000613c2e612ee8565b6000613c3d8360600151614188565b610131546020850151606086015186516040516308f9231360e31b81529495506001600160a01b03909316936347c9189893613c8093929187919060040161594f565b600060405180830381600087803b158015613c9a57600080fd5b505af1158015613cae573d6000803e3d6000fd5b50506101355461012e548651606088015160405163ba0cf0ab60e01b81526001600160a01b03909416955063ba0cf0ab945061397d93600401615939565b6000613cf6612ee8565b6000613d0183614188565b61013154602086015186516040516308f9231360e31b81529394506001600160a01b03909216926347c9189892613d3f92918891879160040161594f565b600060405180830381600087803b158015613d5957600080fd5b505af1158015613d6d573d6000803e3d6000fd5b5050610133548651602088015160608901516001600160a01b039093169450630c57f41493509091613da0908890614dfb565b6040518463ffffffff1660e01b8152600401613dbe93929190615616565b600060405180830381600087803b158015613dd857600080fd5b505af1158015613dec573d6000803e3d6000fd5b50506101355461012e54875160405163ba0cf0ab60e01b81526001600160a01b03909316945063ba0cf0ab9350613ab3928890600401615939565b60606106456001600160a01b03831660145b60606000613e48836002614e0e565b613e5390600261575d565b6001600160401b03811115613e6a57613e6a6148d1565b6040519080825280601f01601f191660200182016040528015613e94576020820181803683370190505b509050600360fc1b81600081518110613eaf57613eaf614e47565b60200101906001600160f81b031916908160001a905350600f60fb1b81600181518110613ede57613ede614e47565b60200101906001600160f81b031916908160001a9053506000613f02846002614e0e565b613f0d90600161575d565b90505b6001811115613f85576f181899199a1a9b1b9c1cb0b131b232b360811b85600f1660108110613f4157613f41614e47565b1a60f81b828281518110613f5757613f57614e47565b60200101906001600160f81b031916908160001a90535060049490941c93613f7e81615860565b9050613f10565b508315613fd45760405162461bcd60e51b815260206004820181905260248201527f537472696e67733a20686578206c656e67746820696e73756666696369656e7460448201526064016106e1565b9392505050565b613fe481612df5565b6040516001600160a01b038216907fbc7cd75a20ee27fd9adebab32041f755214dbc6bffa90cc0225b39da2e5c2d3b90600090a250565b6060613fd48383604051806060016040528060278152602001615a4b602791396146a7565b60008083855b8488828151811061405957614059614e47565b602002602001015160400151106140ab5787818151811061407c5761407c614e47565b60200260200101516060015182614093919061575d565b915080156140ab576140a481615860565b9050614046565b81858983815181106140bf576140bf614e47565b602002602001015160400151106140d657816140e1565b6140e182600161575d565b93509350505094509492505050565b6000818310614100575080610645565b5081610645565b60008083855b87518110801561413957508488828151811061412b5761412b614e47565b602002602001015160400151105b1561417b5787818151811061415057614150614e47565b602002602001015160600151826141679190614dfb565b91508061417381614e5d565b91505061410d565b9097909650945050505050565b6000806141d66040518060200160405280670de0b6b3a76400008152506141d1604051806020016040528061013054815250604051806020016040528061013654815250613b36565b61471f565b9050613fd46142056040518060200160405280670de0b6b3a7640000876141fd9190614e0e565b905283613b36565b61474b565b6000819050600061013160009054906101000a90046001600160a01b03166001600160a01b031663c99aa678878787866001600160a01b0316635c4b440e6040518163ffffffff1660e01b8152600401602060405180830381865afa158015614277573d6000803e3d6000fd5b505050506040513d601f19601f8201168201806040525081019061429b9190615740565b6101305460405160e087901b6001600160e01b03191681526001600160a01b039586166004820152602481019490945260448401929092529092166064820152608481019190915260a4016020604051808303816000875af1158015614305573d6000803e3d6000fd5b505050506040513d601f19601f8201168201806040525081019061432991906156dc565b604051631b433b1160e01b81526001600160a01b03888116600483015260248201839052919250600091841690631b433b11906044016020604051808303816000875af115801561437e573d6000803e3d6000fd5b505050506040513d601f19601f820116820180604052508101906143a291906156dc565b90506000836001600160a01b0316633de81dc46040518163ffffffff1660e01b8152600401602060405180830381865afa1580156143e4573d6000803e3d6000fd5b505050506040513d601f19601f820116820180604052508101906144089190615740565b9050600080826001600160a01b0316633d0dda788b8661013160009054906101000a90046001600160a01b03166001600160a01b0316635c4b440e6040518163ffffffff1660e01b8152600401602060405180830381865afa158015614472573d6000803e3d6000fd5b505050506040513d601f19601f820116820180604052508101906144969190615740565b60405160e085901b6001600160e01b03191681526001600160a01b039384166004820152602481019290925290911660448201526064016000604051808303816000875af11580156144ec573d6000803e3d6000fd5b505050506040513d6000823e601f3d908101601f191682016040526145149190810190615975565b91509150600061013160009054906101000a90046001600160a01b03166001600160a01b0316633de81dc46040518163ffffffff1660e01b8152600401602060405180830381865afa15801561456e573d6000803e3d6000fd5b505050506040513d601f19601f820116820180604052508101906145929190615740565b905060005b83518110156146815760008382815181106145b4576145b4614e47565b6020026020010151111561467157816001600160a01b031663790cb4918d8684815181106145e4576145e4614e47565b60200260200101518685815181106145fe576145fe614e47565b60209081029190910101516040516001600160e01b031960e086901b1681526001600160a01b0393841660048201529290911660248301526044820152606401600060405180830381600087803b15801561465857600080fd5b505af115801561466c573d6000803e3d6000fd5b505050505b61467a81614e5d565b9050614597565b505050505050505050505050565b6000613fd48284614e0e565b6000613fd48284614e25565b6060600080856001600160a01b0316856040516146c491906159ce565b600060405180830381855af49150503d80600081146146ff576040519150601f19603f3d011682016040523d82523d6000602084013e614704565b606091505b509150915061471586838387614763565b9695505050505050565b6040805160208101909152600081526040518060200160405280613b2d856000015185600001516147e2565b805160009061064590670de0b6b3a764000090614e25565b606083156147d05782516000036147c95761477d85612360565b6147c95760405162461bcd60e51b815260206004820152601d60248201527f416464726573733a2063616c6c20746f206e6f6e2d636f6e747261637400000060448201526064016106e1565b50816147da565b6147da83836147ee565b949350505050565b6000613fd4828461575d565b8151156147fe5781518083602001fd5b8060405162461bcd60e51b81526004016106e19190614a72565b60006020828403121561482a57600080fd5b81356001600160e01b031981168114613fd457600080fd5b6001600160a01b0391909116815260200190565b60006020828403121561486857600080fd5b5035919050565b6001600160a01b03811681146107bd57600080fd5b6000806040838503121561489757600080fd5b8235915060208301356148a98161486f565b809150509250929050565b6000602082840312156148c657600080fd5b8135613fd48161486f565b634e487b7160e01b600052604160045260246000fd5b60405161016081016001600160401b038111828210171561490a5761490a6148d1565b60405290565b60405161012081016001600160401b038111828210171561490a5761490a6148d1565b60405160e081016001600160401b038111828210171561490a5761490a6148d1565b60405160a081016001600160401b038111828210171561490a5761490a6148d1565b604051601f8201601f191681016001600160401b038111828210171561499f5761499f6148d1565b604052919050565b600080604083850312156149ba57600080fd5b82356149c58161486f565b91506020838101356001600160401b03808211156149e257600080fd5b818601915086601f8301126149f657600080fd5b813581811115614a0857614a086148d1565b614a1a601f8201601f19168501614977565b91508082528784828501011115614a3057600080fd5b80848401858401376000848284010152508093505050509250929050565b60005b83811015614a69578181015183820152602001614a51565b50506000910152565b6020815260008251806020840152614a91816040850160208701614a4e565b601f01601f19169190910160400192915050565b60008083601f840112614ab757600080fd5b5081356001600160401b03811115614ace57600080fd5b6020830191508360208285010111156124ca57600080fd5b6000806000806000806000806000806101008b8d031215614b0657600080fd5b8a356001600160401b0380821115614b1d57600080fd5b614b298e838f01614aa5565b909c509a5060208d0135915080821115614b4257600080fd5b50614b4f8d828e01614aa5565b90995097505060408b0135955060608b0135945060808b0135935060a08b0135614b788161486f565b925060c08b0135614b888161486f565b8092505060e08b013590509295989b9194979a5092959850565b60008083601f840112614bb457600080fd5b5081356001600160401b03811115614bcb57600080fd5b6020830191508360208260051b85010111156124ca57600080fd5b60008060008060408587031215614bfc57600080fd5b84356001600160401b0380821115614c1357600080fd5b614c1f88838901614ba2565b90965094506020870135915080821115614c3857600080fd5b50614c4587828801614ba2565b95989497509550505050565b600060208284031215614c6357600080fd5b81356001600160401b03811115614c7957600080fd5b820160a08185031215613fd457600080fd5b60008060008060008060008060e0898b031215614ca757600080fd5b8835614cb28161486f565b97506020890135614cc28161486f565b96506040890135614cd28161486f565b95506060890135614ce28161486f565b94506080890135614cf28161486f565b935060a0890135614d028161486f565b925060c08901356001600160401b03811115614d1d57600080fd5b614d298b828c01614aa5565b999c989b5096995094979396929594505050565b6020808252602c908201527f46756e6374696f6e206d7573742062652063616c6c6564207468726f7567682060408201526b19195b1959d85d1958d85b1b60a21b606082015260800190565b6020808252602c908201527f46756e6374696f6e206d7573742062652063616c6c6564207468726f7567682060408201526b6163746976652070726f787960a01b606082015260800190565b8183823760009101908152919050565b634e487b7160e01b600052601160045260246000fd5b8181038181111561064557610645614de5565b808202811582820484141761064557610645614de5565b600082614e4257634e487b7160e01b600052601260045260246000fd5b500490565b634e487b7160e01b600052603260045260246000fd5b600060018201614e6f57614e6f614de5565b5060010190565b92835290151560208301521515604082015260600190565b6000808335601e19843603018112614ea557600080fd5b8301803591506001600160401b03821115614ebf57600080fd5b6020019150600581901b36038213156124ca57600080fd5b81835260006001600160fb1b03831115614ef057600080fd5b8260051b80836020870137939093016020019392505050565b606081526000614f1d60608301888a614ed7565b8281036020840152614f30818789614ed7565b90508281036040840152614f45818587614ed7565b9998505050505050505050565b60006001600160401b03821115614f6b57614f6b6148d1565b5060051b60200190565b80516139c18161486f565b600082601f830112614f9157600080fd5b81516020614fa6614fa183614f52565b614977565b82815260059290921b84018101918181019086841115614fc557600080fd5b8286015b84811015614fe05780518352918301918301614fc9565b509695505050505050565b600082601f830112614ffc57600080fd5b8151602061500c614fa183614f52565b82815260059290921b8401810191818101908684111561502b57600080fd5b8286015b84811015614fe05780516150428161486f565b835291830191830161502f565b805180151581146139c157600080fd5b600082601f83011261507057600080fd5b81516020615080614fa183614f52565b82815260059290921b8401810191818101908684111561509f57600080fd5b8286015b84811015614fe05780516001600160401b03808211156150c35760008081fd5b90880190610160828b03601f19018113156150de5760008081fd5b6150e66148e7565b87840151815260406150f9818601614f75565b89830152606080860151828401526080915081860151818401525060a0808601518284015260c0915081860151858111156151345760008081fd5b6151428f8c838a0101614f80565b82850152505060e0615155818701614f75565b82840152610100915081860151858111156151705760008081fd5b61517e8f8c838a0101614feb565b828501525050610120935061519484860161504f565b908201526101406151a6858201614f75565b848301526151b583860161504f565b9082015286525050509183019183016150a3565b600080604083850312156151dc57600080fd5b82516001600160401b03808211156151f357600080fd5b818501915085601f83011261520757600080fd5b81516020615217614fa183614f52565b82815260059290921b8401810191818101908984111561523657600080fd5b8286015b8481101561532a5780518681111561525157600080fd5b8701610120818d03601f190181131561526957600080fd5b615271614910565b86830151815261528360408401614f75565b87820152606083015160408201526080830151606082015260a0830151898111156152ad57600080fd5b6152bb8f8983870101614f80565b6080830152506152cd60c08401614f75565b60a082015260e0830151898111156152e55760008081fd5b6152f38f8983870101614feb565b60c08301525061010061530781850161504f565b60e0830152615317838501614f75565b908201528552505091830191830161523a565b509188015191965090935050508082111561534457600080fd5b506153518582860161505f565b9150509250929050565b60408152600061536f604083018688614ed7565b8281036020840152615382818587614ed7565b979650505050505050565b600082601f83011261539e57600080fd5b815160206153ae614fa183614f52565b82815260e092830285018201928282019190878511156153cd57600080fd5b8387015b858110156154555781818a0312156153e95760008081fd5b6153f1614933565b81518152858201516154028161486f565b8187015260408281015190820152606080830151908201526080808301519082015260a0808301516154338161486f565b9082015260c061544483820161504f565b9082015284529284019281016153d1565b5090979650505050505050565b600080604080848603121561547657600080fd5b83516001600160401b038082111561548d57600080fd5b818601915086601f8301126154a157600080fd5b815160206154b1614fa183614f52565b82815260a0928302850182019282820191908b8511156154d057600080fd5b958301955b8487101561553e5780878d0312156154ed5760008081fd5b6154f5614955565b87518152848801516155068161486f565b8186015287890151898201526060808901519082015260808089015161552b8161486f565b90820152835295860195918301916154d5565b509189015191975090945050508083111561555857600080fd5b50506153518582860161538d565b600081518084526020808501945080840160005b8381101561559f5781516001600160a01b03168752958201959082019060010161557a565b509495945050505050565b600081518084526020808501945080840160005b8381101561559f578151875295820195908201906001016155be565b8481526001600160a01b038416602082015260806040820181905260009061560490830185615566565b828103606084015261538281856155aa565b9283526001600160a01b03919091166020830152604082015260600190565b60006020828403121561564757600080fd5b613fd48261504f565b634e487b7160e01b600052600160045260246000fd5b86815285602082015260018060a01b038516604082015283606082015260a060808201528160a0820152818360c0830137600081830160c090810191909152601f909201601f1916010195945050505050565b6000602082840312156156cb57600080fd5b815160ff81168114613fd457600080fd5b6000602082840312156156ee57600080fd5b5051919050565b6020808252602b908201527f496e697469616c697a61626c653a20636f6e7472616374206973206e6f74206960408201526a6e697469616c697a696e6760a81b606082015260800190565b60006020828403121561575257600080fd5b8151613fd48161486f565b8082018082111561064557610645614de5565b600181815b808511156157ab57816000190482111561579157615791614de5565b8085161561579e57918102915b93841c9390800290615775565b509250929050565b6000826157c257506001610645565b816157cf57506000610645565b81600181146157e557600281146157ef5761580b565b6001915050610645565b60ff84111561580057615800614de5565b50506001821b610645565b5060208310610133831016604e8410600b841016171561582e575081810a610645565b6158388383615770565b806000190482111561584c5761584c614de5565b029392505050565b6000613fd483836157b3565b60008161586f5761586f614de5565b506000190190565b76020b1b1b2b9b9a1b7b73a3937b61d1030b1b1b7bab73a1604d1b8152600083516158a9816017850160208801614a4e565b7001034b99036b4b9b9b4b733903937b6329607d1b60179184019182015283516158da816028840160208801614a4e565b01602801949350505050565b60018060a01b038716815285602082015284604082015260c06060820152600061591360c0830186615566565b828103608084015261592581866155aa565b9150508260a0830152979650505050505050565b9283526020830191909152604082015260600190565b6001600160a01b0394909416845260208401929092526040830152606082015260800190565b6000806040838503121561598857600080fd5b82516001600160401b038082111561599f57600080fd5b6159ab86838701614feb565b935060208501519150808211156159c157600080fd5b5061535185828601614f80565b600082516159e0818460208701614a4e565b919091019291505056fe793a6c9b7e0a9549c74edc2f9ae0dc50903dfaa9a56fb0116b27a8c71de3e2c630d41a597cac127d8249d31298b50e481ee82c3f4a49ff93c76a22735aa9f3ad360894a13ba1a3210667c828492db98dca3e2076cc3735a920a3ca505d382bbc416464726573733a206c6f772d6c6576656c2064656c65676174652063616c6c206661696c6564a49807205ce4d355092ef5a8a18f56e8913cf4a201fbe287825b095693c21775a2646970667358221220fce20041ab2a6cdd0a66040efa0f45a2d676c6e45fb3e2a09bee57cf8fa51d7464736f6c63430008120033",
  "linkReferences": {},
  "deployedLinkReferences": {}
}