{
  "_format": "hh-sol-artifact-1",
  "contractName": "TermAuction",
  "sourceName": "contracts/TermAuction.sol",
  "abi": [
    {
      "inputs": [],
      "stateMutability": "nonpayable",
      "type": "constructor"
    },
    {
      "inputs": [],
      "name": "AlreadyTermContractPaired",
      "type": "error"
    },
    {
      "inputs": [],
      "name": "AuctionAlreadyCompleted",
      "type": "error"
    },
    {
      "inputs": [],
      "name": "AuctionCancelledForWithdrawal",
      "type": "error"
    },
    {
      "inputs": [],
      "name": "AuctionNotClosed",
      "type": "error"
    },
    {
      "inputs": [
        {
          "internalType": "uint256",
          "name": "clearingOffset",
          "type": "uint256"
        }
      ],
      "name": "ClearingOffsetNot0Or1",
      "type": "error"
    },
    {
      "inputs": [],
      "name": "CompleteAuctionPaused",
      "type": "error"
    },
    {
      "inputs": [
        {
          "internalType": "string",
          "name": "message",
          "type": "string"
        }
      ],
      "name": "InvalidParameters",
      "type": "error"
    },
    {
      "inputs": [
        {
          "internalType": "uint256",
          "name": "maxDepth",
          "type": "uint256"
        }
      ],
      "name": "MaxPriceSearchDepthExceeded",
      "type": "error"
    },
    {
      "inputs": [],
      "name": "NoBidsOrOffers",
      "type": "error"
    },
    {
      "anonymous": false,
      "inputs": [
        {
          "indexed": false,
          "internalType": "address",
          "name": "previousAdmin",
          "type": "address"
        },
        {
          "indexed": false,
          "internalType": "address",
          "name": "newAdmin",
          "type": "address"
        }
      ],
      "name": "AdminChanged",
      "type": "event"
    },
    {
      "anonymous": false,
      "inputs": [
        {
          "indexed": true,
          "internalType": "address",
          "name": "beacon",
          "type": "address"
        }
      ],
      "name": "BeaconUpgraded",
      "type": "event"
    },
    {
      "anonymous": false,
      "inputs": [
        {
          "indexed": false,
          "internalType": "uint8",
          "name": "version",
          "type": "uint8"
        }
      ],
      "name": "Initialized",
      "type": "event"
    },
    {
      "anonymous": false,
      "inputs": [
        {
          "indexed": true,
          "internalType": "bytes32",
          "name": "role",
          "type": "bytes32"
        },
        {
          "indexed": true,
          "internalType": "bytes32",
          "name": "previousAdminRole",
          "type": "bytes32"
        },
        {
          "indexed": true,
          "internalType": "bytes32",
          "name": "newAdminRole",
          "type": "bytes32"
        }
      ],
      "name": "RoleAdminChanged",
      "type": "event"
    },
    {
      "anonymous": false,
      "inputs": [
        {
          "indexed": true,
          "internalType": "bytes32",
          "name": "role",
          "type": "bytes32"
        },
        {
          "indexed": true,
          "internalType": "address",
          "name": "account",
          "type": "address"
        },
        {
          "indexed": true,
          "internalType": "address",
          "name": "sender",
          "type": "address"
        }
      ],
      "name": "RoleGranted",
      "type": "event"
    },
    {
      "anonymous": false,
      "inputs": [
        {
          "indexed": true,
          "internalType": "bytes32",
          "name": "role",
          "type": "bytes32"
        },
        {
          "indexed": true,
          "internalType": "address",
          "name": "account",
          "type": "address"
        },
        {
          "indexed": true,
          "internalType": "address",
          "name": "sender",
          "type": "address"
        }
      ],
      "name": "RoleRevoked",
      "type": "event"
    },
    {
      "anonymous": false,
      "inputs": [
        {
          "indexed": true,
          "internalType": "address",
          "name": "implementation",
          "type": "address"
        }
      ],
      "name": "Upgraded",
      "type": "event"
    },
    {
      "inputs": [],
      "name": "ADMIN_ROLE",
      "outputs": [
        {
          "internalType": "bytes32",
          "name": "",
          "type": "bytes32"
        }
      ],
      "stateMutability": "view",
      "type": "function"
    },
    {
      "inputs": [],
      "name": "DEFAULT_ADMIN_ROLE",
      "outputs": [
        {
          "internalType": "bytes32",
          "name": "",
          "type": "bytes32"
        }
      ],
      "stateMutability": "view",
      "type": "function"
    },
    {
      "inputs": [],
      "name": "DEVOPS_ROLE",
      "outputs": [
        {
          "internalType": "bytes32",
          "name": "",
          "type": "bytes32"
        }
      ],
      "stateMutability": "view",
      "type": "function"
    },
    {
      "inputs": [],
      "name": "INITIALIZER_ROLE",
      "outputs": [
        {
          "internalType": "bytes32",
          "name": "",
          "type": "bytes32"
        }
      ],
      "stateMutability": "view",
      "type": "function"
    },
    {
      "inputs": [],
      "name": "THREESIXTY_DAYCOUNT_SECONDS",
      "outputs": [
        {
          "internalType": "uint256",
          "name": "",
          "type": "uint256"
        }
      ],
      "stateMutability": "view",
      "type": "function"
    },
    {
      "inputs": [],
      "name": "auctionCancelledForWithdrawal",
      "outputs": [
        {
          "internalType": "bool",
          "name": "",
          "type": "bool"
        }
      ],
      "stateMutability": "view",
      "type": "function"
    },
    {
      "inputs": [],
      "name": "auctionCompleted",
      "outputs": [
        {
          "internalType": "bool",
          "name": "",
          "type": "bool"
        }
      ],
      "stateMutability": "view",
      "type": "function"
    },
    {
      "inputs": [],
      "name": "auctionEndTime",
      "outputs": [
        {
          "internalType": "uint256",
          "name": "",
          "type": "uint256"
        }
      ],
      "stateMutability": "view",
      "type": "function"
    },
    {
      "inputs": [
        {
          "components": [
            {
              "internalType": "bytes32[]",
              "name": "revealedBidSubmissions",
              "type": "bytes32[]"
            },
            {
              "internalType": "bytes32[]",
              "name": "expiredRolloverBids",
              "type": "bytes32[]"
            },
            {
              "internalType": "bytes32[]",
              "name": "unrevealedBidSubmissions",
              "type": "bytes32[]"
            },
            {
              "internalType": "bytes32[]",
              "name": "revealedOfferSubmissions",
              "type": "bytes32[]"
            },
            {
              "internalType": "bytes32[]",
              "name": "unrevealedOfferSubmissions",
              "type": "bytes32[]"
            }
          ],
          "internalType": "struct CompleteAuctionInput",
          "name": "completeAuctionInput",
          "type": "tuple"
        }
      ],
      "name": "cancelAuction",
      "outputs": [],
      "stateMutability": "nonpayable",
      "type": "function"
    },
    {
      "inputs": [
        {
          "internalType": "address[]",
          "name": "rolloverBorrowers",
          "type": "address[]"
        },
        {
          "internalType": "address[]",
          "name": "rolloverPairOffTermRepoServicer",
          "type": "address[]"
        }
      ],
      "name": "cancelAuctionForWithdrawal",
      "outputs": [],
      "stateMutability": "nonpayable",
      "type": "function"
    },
    {
      "inputs": [],
      "name": "clearingPrice",
      "outputs": [
        {
          "internalType": "uint256",
          "name": "",
          "type": "uint256"
        }
      ],
      "stateMutability": "view",
      "type": "function"
    },
    {
      "inputs": [],
      "name": "clearingPricePostProcessingOffset",
      "outputs": [
        {
          "internalType": "uint256",
          "name": "",
          "type": "uint256"
        }
      ],
      "stateMutability": "view",
      "type": "function"
    },
    {
      "inputs": [
        {
          "components": [
            {
              "internalType": "bytes32[]",
              "name": "revealedBidSubmissions",
              "type": "bytes32[]"
            },
            {
              "internalType": "bytes32[]",
              "name": "expiredRolloverBids",
              "type": "bytes32[]"
            },
            {
              "internalType": "bytes32[]",
              "name": "unrevealedBidSubmissions",
              "type": "bytes32[]"
            },
            {
              "internalType": "bytes32[]",
              "name": "revealedOfferSubmissions",
              "type": "bytes32[]"
            },
            {
              "internalType": "bytes32[]",
              "name": "unrevealedOfferSubmissions",
              "type": "bytes32[]"
            }
          ],
          "internalType": "struct CompleteAuctionInput",
          "name": "completeAuctionInput",
          "type": "tuple"
        }
      ],
      "name": "completeAuction",
      "outputs": [],
      "stateMutability": "nonpayable",
      "type": "function"
    },
    {
      "inputs": [],
      "name": "completeAuctionPaused",
      "outputs": [
        {
          "internalType": "bool",
          "name": "",
          "type": "bool"
        }
      ],
      "stateMutability": "view",
      "type": "function"
    },
    {
      "inputs": [],
      "name": "controller",
      "outputs": [
        {
          "internalType": "contract ITermController",
          "name": "",
          "type": "address"
        }
      ],
      "stateMutability": "view",
      "type": "function"
    },
    {
      "inputs": [],
      "name": "dayCountFractionMantissa",
      "outputs": [
        {
          "internalType": "uint256",
          "name": "",
          "type": "uint256"
        }
      ],
      "stateMutability": "view",
      "type": "function"
    },
    {
      "inputs": [
        {
          "internalType": "bytes32",
          "name": "role",
          "type": "bytes32"
        }
      ],
      "name": "getRoleAdmin",
      "outputs": [
        {
          "internalType": "bytes32",
          "name": "",
          "type": "bytes32"
        }
      ],
      "stateMutability": "view",
      "type": "function"
    },
    {
      "inputs": [
        {
          "internalType": "bytes32",
          "name": "role",
          "type": "bytes32"
        },
        {
          "internalType": "address",
          "name": "account",
          "type": "address"
        }
      ],
      "name": "grantRole",
      "outputs": [],
      "stateMutability": "nonpayable",
      "type": "function"
    },
    {
      "inputs": [
        {
          "internalType": "bytes32",
          "name": "role",
          "type": "bytes32"
        },
        {
          "internalType": "address",
          "name": "account",
          "type": "address"
        }
      ],
      "name": "hasRole",
      "outputs": [
        {
          "internalType": "bool",
          "name": "",
          "type": "bool"
        }
      ],
      "stateMutability": "view",
      "type": "function"
    },
    {
      "inputs": [
        {
          "internalType": "string",
          "name": "termRepoId_",
          "type": "string"
        },
        {
          "internalType": "string",
          "name": "auctionId_",
          "type": "string"
        },
        {
          "internalType": "uint256",
          "name": "auctionEndTime_",
          "type": "uint256"
        },
        {
          "internalType": "uint256",
          "name": "termStart_",
          "type": "uint256"
        },
        {
          "internalType": "uint256",
          "name": "redemptionTimestamp_",
          "type": "uint256"
        },
        {
          "internalType": "contract IERC20MetadataUpgradeable",
          "name": "purchaseToken_",
          "type": "address"
        },
        {
          "internalType": "address",
          "name": "termAuctionInitializer_",
          "type": "address"
        },
        {
          "internalType": "uint256",
          "name": "clearingPricePostProcessingOffset_",
          "type": "uint256"
        }
      ],
      "name": "initialize",
      "outputs": [],
      "stateMutability": "nonpayable",
      "type": "function"
    },
    {
      "inputs": [
        {
          "internalType": "contract ITermEventEmitter",
          "name": "emitter_",
          "type": "address"
        },
        {
          "internalType": "contract ITermController",
          "name": "controller_",
          "type": "address"
        },
        {
          "internalType": "contract ITermRepoServicer",
          "name": "termRepoServicer_",
          "type": "address"
        },
        {
          "internalType": "contract ITermAuctionBidLocker",
          "name": "termAuctionBidLocker_",
          "type": "address"
        },
        {
          "internalType": "contract ITermAuctionOfferLocker",
          "name": "termAuctionOfferLocker_",
          "type": "address"
        },
        {
          "internalType": "address",
          "name": "devopsMultisigAddress_",
          "type": "address"
        },
        {
          "internalType": "address",
          "name": "adminWallet_",
          "type": "address"
        },
        {
          "internalType": "string",
          "name": "version_",
          "type": "string"
        }
      ],
      "name": "pairTermContracts",
      "outputs": [],
      "stateMutability": "nonpayable",
      "type": "function"
    },
    {
      "inputs": [],
      "name": "pauseCompleteAuction",
      "outputs": [],
      "stateMutability": "nonpayable",
      "type": "function"
    },
    {
      "inputs": [],
      "name": "proxiableUUID",
      "outputs": [
        {
          "internalType": "bytes32",
          "name": "",
          "type": "bytes32"
        }
      ],
      "stateMutability": "view",
      "type": "function"
    },
    {
      "inputs": [],
      "name": "purchaseToken",
      "outputs": [
        {
          "internalType": "contract IERC20MetadataUpgradeable",
          "name": "",
          "type": "address"
        }
      ],
      "stateMutability": "view",
      "type": "function"
    },
    {
      "inputs": [
        {
          "internalType": "bytes32",
          "name": "role",
          "type": "bytes32"
        },
        {
          "internalType": "address",
          "name": "account",
          "type": "address"
        }
      ],
      "name": "renounceRole",
      "outputs": [],
      "stateMutability": "nonpayable",
      "type": "function"
    },
    {
      "inputs": [
        {
          "internalType": "bytes32",
          "name": "role",
          "type": "bytes32"
        },
        {
          "internalType": "address",
          "name": "account",
          "type": "address"
        }
      ],
      "name": "revokeRole",
      "outputs": [],
      "stateMutability": "nonpayable",
      "type": "function"
    },
    {
      "inputs": [
        {
          "internalType": "bytes4",
          "name": "interfaceId",
          "type": "bytes4"
        }
      ],
      "name": "supportsInterface",
      "outputs": [
        {
          "internalType": "bool",
          "name": "",
          "type": "bool"
        }
      ],
      "stateMutability": "view",
      "type": "function"
    },
    {
      "inputs": [],
      "name": "termAuctionBidLocker",
      "outputs": [
        {
          "internalType": "contract ITermAuctionBidLocker",
          "name": "",
          "type": "address"
        }
      ],
      "stateMutability": "view",
      "type": "function"
    },
    {
      "inputs": [],
      "name": "termAuctionId",
      "outputs": [
        {
          "internalType": "bytes32",
          "name": "",
          "type": "bytes32"
        }
      ],
      "stateMutability": "view",
      "type": "function"
    },
    {
      "inputs": [],
      "name": "termAuctionOfferLocker",
      "outputs": [
        {
          "internalType": "contract ITermAuctionOfferLocker",
          "name": "",
          "type": "address"
        }
      ],
      "stateMutability": "view",
      "type": "function"
    },
    {
      "inputs": [],
      "name": "termRepoId",
      "outputs": [
        {
          "internalType": "bytes32",
          "name": "",
          "type": "bytes32"
        }
      ],
      "stateMutability": "view",
      "type": "function"
    },
    {
      "inputs": [],
      "name": "termRepoServicer",
      "outputs": [
        {
          "internalType": "contract ITermRepoServicer",
          "name": "",
          "type": "address"
        }
      ],
      "stateMutability": "view",
      "type": "function"
    },
    {
      "inputs": [],
      "name": "unpauseCompleteAuction",
      "outputs": [],
      "stateMutability": "nonpayable",
      "type": "function"
    },
    {
      "inputs": [
        {
          "internalType": "address",
          "name": "newImplementation",
          "type": "address"
        }
      ],
      "name": "upgradeTo",
      "outputs": [],
      "stateMutability": "nonpayable",
      "type": "function"
    },
    {
      "inputs": [
        {
          "internalType": "address",
          "name": "newImplementation",
          "type": "address"
        },
        {
          "internalType": "bytes",
          "name": "data",
          "type": "bytes"
        }
      ],
      "name": "upgradeToAndCall",
      "outputs": [],
      "stateMutability": "payable",
      "type": "function"
    },
    {
      "inputs": [],
      "name": "version",
      "outputs": [
        {
          "internalType": "string",
          "name": "",
          "type": "string"
        }
      ],
      "stateMutability": "view",
      "type": "function"
    }
  ],
  "bytecode": "0x60a0604052306080523480156200001557600080fd5b506200002062000026565b620000e7565b600054610100900460ff1615620000935760405162461bcd60e51b815260206004820152602760248201527f496e697469616c697a61626c653a20636f6e747261637420697320696e697469604482015266616c697a696e6760c81b606482015260840160405180910390fd5b60005460ff90811614620000e5576000805460ff191660ff9081179091556040519081527f7f26b83ff96e1f2b6a682f133852f6798a09c465da95921460cefb38474024989060200160405180910390a15b565b608051615b856200011f6000396000818161072e0152818161076e015281816107f60152818161083601526108ae0152615b856000f3fe6080604052600436106101cf5760003560e01c8063700e3e2a116100f8578063c794564e11610090578063c794564e14610545578063cc5b6e4a1461055a578063d547741f14610571578063d6725d0c14610591578063e8c856f1146105a9578063f0436387146105c9578063f691fac1146105ea578063f77c47911461060a578063fa2a3cca1461062b57600080fd5b8063700e3e2a1461043f578063743a8f881461045657806375b238fc1461047657806376f9a41e146104985780637a6944c5146104b85780638dfea9e7146104cf57806391d14854146104ef578063a217fddf1461050f578063a95c4d621461052457600080fd5b80633659cfe61161016b5780633659cfe6146103335780634b449cba146103535780634f1ef2861461036a578063505d799e1461037d57806352d1902d1461039e57806354fd4d50146103b35780635fb8f3ed146103ed5780636125be55146104085780636d7331411461042857600080fd5b806301ffc9a7146101d457806306b282c914610209578063201a662514610237578063248a9ca31461026757806327df3d3e146102975780632f2ff15d146102b957806332a0f2d7146102db578063357a77d2146102f257806336568abe14610313575b600080fd5b3480156101e057600080fd5b506101f46101ef3660046148c0565b610640565b60405190151581526020015b60405180910390f35b34801561021557600080fd5b506101325461022a906001600160a01b031681565b60405161020091906148ea565b34801561024357600080fd5b50610259600080516020615aa983398151915281565b604051908152602001610200565b34801561027357600080fd5b506102596102823660046148fe565b600090815260c9602052604090206001015490565b3480156102a357600080fd5b50610259600080516020615ac983398151915281565b3480156102c557600080fd5b506102d96102d436600461492c565b610677565b005b3480156102e757600080fd5b506102596101375481565b3480156102fe57600080fd5b506101315461022a906001600160a01b031681565b34801561031f57600080fd5b506102d961032e36600461492c565b6106a1565b34801561033f57600080fd5b506102d961034e36600461495c565b610724565b34801561035f57600080fd5b5061025961012f5481565b6102d9610378366004614a4f565b6107ec565b34801561038957600080fd5b506101335461022a906001600160a01b031681565b3480156103aa57600080fd5b506102596108a1565b3480156103bf57600080fd5b50604080518082018252600b81526a19195d995b1bdc1b595b9d60aa1b602082015290516102009190614b1a565b3480156103f957600080fd5b50610139546101f49060ff1681565b34801561041457600080fd5b506102d9610423366004614b8e565b61094f565b34801561043457600080fd5b5061025961012e5481565b34801561044b57600080fd5b506102596101385481565b34801561046257600080fd5b506102d9610471366004614c8e565b610b59565b34801561048257600080fd5b50610259600080516020615b3083398151915281565b3480156104a457600080fd5b506102d96104b3366004614cf9565b610c91565b3480156104c457600080fd5b506102596101305481565b3480156104db57600080fd5b50610139546101f490610100900460ff1681565b3480156104fb57600080fd5b506101f461050a36600461492c565b61138d565b34801561051b57600080fd5b50610259600081565b34801561053057600080fd5b506101345461022a906001600160a01b031681565b34801561055157600080fd5b506102d96113b8565b34801561056657600080fd5b5061025961012d5481565b34801561057d57600080fd5b506102d961058c36600461492c565b611459565b34801561059d57600080fd5b506102596301da9c0081565b3480156105b557600080fd5b506102d96105c4366004614d33565b61147e565b3480156105d557600080fd5b50610139546101f49062010000900460ff1681565b3480156105f657600080fd5b506102d9610605366004614cf9565b6115e6565b34801561061657600080fd5b506101365461022a906001600160a01b031681565b34801561063757600080fd5b506102d96120a4565b60006001600160e01b03198216637965db0b60e01b148061067157506301ffc9a760e01b6001600160e01b03198316145b92915050565b600082815260c9602052604090206001015461069281612108565b61069c8383612112565b505050565b6001600160a01b03811633146107165760405162461bcd60e51b815260206004820152602f60248201527f416363657373436f6e74726f6c3a2063616e206f6e6c792072656e6f756e636560448201526e103937b632b9903337b91039b2b63360891b60648201526084015b60405180910390fd5b6107208282612198565b5050565b6001600160a01b037f000000000000000000000000000000000000000000000000000000000000000016300361076c5760405162461bcd60e51b815260040161070d90614dfb565b7f00000000000000000000000000000000000000000000000000000000000000006001600160a01b031661079e6121ff565b6001600160a01b0316146107c45760405162461bcd60e51b815260040161070d90614e47565b6107cd8161221b565b604080516000808252602082019092526107e99183919061229d565b50565b6001600160a01b037f00000000000000000000000000000000000000000000000000000000000000001630036108345760405162461bcd60e51b815260040161070d90614dfb565b7f00000000000000000000000000000000000000000000000000000000000000006001600160a01b03166108666121ff565b6001600160a01b03161461088c5760405162461bcd60e51b815260040161070d90614e47565b6108958261221b565b6107208282600161229d565b6000306001600160a01b037f0000000000000000000000000000000000000000000000000000000000000000161461093c5760405162461bcd60e51b815260206004820152603860248201527f555550535570677261646561626c653a206d757374206e6f742062652063616c6044820152771b1959081d1a1c9bdd59da0819195b1959d85d1958d85b1b60421b606482015260840161070d565b50600080516020615ae983398151915290565b600054610100900460ff161580801561096f5750600054600160ff909116105b80610990575061097e30612408565b158015610990575060005460ff166001145b6109f35760405162461bcd60e51b815260206004820152602e60248201527f496e697469616c697a61626c653a20636f6e747261637420697320616c72656160448201526d191e481a5b9a5d1a585b1a5e995960921b606482015260840161070d565b6000805460ff191660011790558015610a16576000805461ff0019166101001790555b610a1e612417565b610a26612417565b610a2e612440565b610a46600080516020615ac983398151915284612112565b8a8a604051602001610a59929190614e93565b60408051601f1981840301815290829052805160209182012061012d55610a84918b918b9101614e93565b60408051601f19818403018152919052805160209091012061012e5561012f8790556301da9c00670de0b6b3a7640000610abe8888614eb9565b610ac89190614ecc565b610ad29190614ee3565b6101305561013480546001600160a01b0319166001600160a01b038616179055610139805463ff00ffff191690556101388290558015610b4c576000805461ff0019169055604051600181527f7f26b83ff96e1f2b6a682f133852f6798a09c465da95921460cefb38474024989060200160405180910390a15b5050505050505050505050565b61012f544211610b7c5760405163b9adeefd60e01b815260040160405180910390fd5b600080516020615b30833981519152610b9481612108565b60005b84811015610c0557610bf5848483818110610bb457610bb4614f05565b9050602002016020810190610bc9919061495c565b878784818110610bdb57610bdb614f05565b9050602002016020810190610bf0919061495c565b61246f565b610bfe81614f1b565b9050610b97565b50610139805461ff001916610100908117918290556101355461012e5460405163504c5d5d60e11b81526001600160a01b039092169363a098baba93610c58936000929190910460ff1690600401614f34565b600060405180830381600087803b158015610c7257600080fd5b505af1158015610c86573d6000803e3d6000fd5b505050505050505050565b61012f544211610cb45760405163b9adeefd60e01b815260040160405180910390fd5b600080516020615b30833981519152610ccc81612108565b6101325460009081906001600160a01b031663f9202d63610ced8680614f4c565b610cfa6020890189614f4c565b610d0760408b018b614f4c565b6040518763ffffffff1660e01b8152600401610d2896959493929190614fc7565b6000604051808303816000875af1158015610d47573d6000803e3d6000fd5b505050506040513d6000823e601f3d908101601f19168201604052610d6f9190810190615287565b61013354919350915060009081906001600160a01b031663c44cee73610d986060890189614f4c565b610da560808b018b614f4c565b6040518563ffffffff1660e01b8152600401610dc49493929190615419565b6000604051808303816000875af1158015610de3573d6000803e3d6000fd5b505050506040513d6000823e601f3d908101601f19168201604052610e0b9190810190615520565b9150915060005b8451811015610f7a57848181518110610e2d57610e2d614f05565b602002602001015160e0015115610e8857610e83858281518110610e5357610e53614f05565b60200260200101516101000151868381518110610e7257610e72614f05565b60200260200101516020015161246f565b610f6a565b6101325485516001600160a01b0390911690630283ce5b90879084908110610eb257610eb2614f05565b602002602001015160000151878481518110610ed057610ed0614f05565b602002602001015160200151888581518110610eee57610eee614f05565b602002602001015160c00151898681518110610f0c57610f0c614f05565b6020026020010151608001516040518563ffffffff1660e01b8152600401610f379493929190615698565b600060405180830381600087803b158015610f5157600080fd5b505af1158015610f65573d6000803e3d6000fd5b505050505b610f7381614f1b565b9050610e12565b5060005b825181101561105a576101335483516001600160a01b0390911690630c57f41490859084908110610fb157610fb1614f05565b602002602001015160000151858481518110610fcf57610fcf614f05565b602002602001015160200151868581518110610fed57610fed614f05565b6020026020010151606001516040518463ffffffff1660e01b8152600401611017939291906156d4565b600060405180830381600087803b15801561103157600080fd5b505af1158015611045573d6000803e3d6000fd5b505050508061105390614f1b565b9050610f7e565b5060005b83518110156111b65783818151811061107957611079614f05565b60200260200101516101000151156110c4576110bf8482815181106110a0576110a0614f05565b60200260200101516101200151858381518110610e7257610e72614f05565b6111a6565b6101325484516001600160a01b0390911690630283ce5b908690849081106110ee576110ee614f05565b60200260200101516000015186848151811061110c5761110c614f05565b60200260200101516020015187858151811061112a5761112a614f05565b602002602001015160e0015188868151811061114857611148614f05565b602002602001015160a001516040518563ffffffff1660e01b81526004016111739493929190615698565b600060405180830381600087803b15801561118d57600080fd5b505af11580156111a1573d6000803e3d6000fd5b505050505b6111af81614f1b565b905061105e565b5060005b8151811015611296576101335482516001600160a01b0390911690630c57f414908490849081106111ed576111ed614f05565b60200260200101516000015184848151811061120b5761120b614f05565b60200260200101516020015185858151811061122957611229614f05565b6020026020010151608001516040518463ffffffff1660e01b8152600401611253939291906156d4565b600060405180830381600087803b15801561126d57600080fd5b505af1158015611281573d6000803e3d6000fd5b505050508061128f90614f1b565b90506111ba565b6101355461012e5460405163504c5d5d60e11b81526001600160a01b039092169163a098baba916112ce916000908190600401614f34565b600060405180830381600087803b1580156112e857600080fd5b505af11580156112fc573d6000803e3d6000fd5b5050505061013160009054906101000a90046001600160a01b03166001600160a01b0316634dabab106040518163ffffffff1660e01b8152600401602060405180830381865afa158015611354573d6000803e3d6000fd5b505050506040513d601f19601f8201168201806040525081019061137891906156f3565b6113845761138461570e565b50505050505050565b600091825260c9602090815260408084206001600160a01b0393909316845291905290205460ff1690565b600080516020615b308339815191526113d081612108565b610139805462ff00001916620100001790556101355461012e5461012d54604051635fdd148760e01b81526001600160a01b0390931692635fdd148792611424929091600401918252602082015260400190565b600060405180830381600087803b15801561143e57600080fd5b505af1158015611452573d6000803e3d6000fd5b5050505050565b600082815260c9602052604090206001015461147481612108565b61069c8383612198565b600080516020615ac983398151915261149681612108565b610139546301000000900460ff16156114c257604051634ce377bb60e11b815260040160405180910390fd5b610139805463ff0000001916630100000017905561013580546001600160a01b03808d166001600160a01b03199283161790925561013680548c841690831617905561013180548b841690831617905561013280548a841690831617905561013380549289169290911691909117905561154a600080516020615aa983398151915286612112565b611562600080516020615b3083398151915285612112565b6101355461012d5461012e5461012f5460405163383a8ab160e01b81526001600160a01b039094169363383a8ab1936115a893909290913091908a908a90600401615724565b600060405180830381600087803b1580156115c257600080fd5b505af11580156115d6573d6000803e3d6000fd5b5050505050505050505050505050565b61012f5442116116095760405163b9adeefd60e01b815260040160405180910390fd5b6101395462010000900460ff161561163457604051631298d6db60e01b815260040160405180910390fd5b6101395460ff16156116595760405163f02c1d9560e01b815260040160405180910390fd5b61013954610100900460ff161561168357604051632d93dc5b60e21b815260040160405180910390fd5b610139805460ff191660011790556116a9600080516020615b308339815191523361138d565b61174c5760006116bc6040830183614f4c565b905011806116d8575060006116d46080830183614f4c565b9050115b1561174c5760405163dd23c3ad60e01b815260206004820152603d60248201527f416c6c2074656e64657220707269636573206d7573742062652072657665616c60448201527f656420666f722061756374696f6e20746f20626520636f6d706c657465000000606482015260840161070d565b6101325460009081906001600160a01b031663f9202d6361176d8580614f4c565b61177a6020880188614f4c565b61178760408a018a614f4c565b6040518763ffffffff1660e01b81526004016117a896959493929190614fc7565b6000604051808303816000875af11580156117c7573d6000803e3d6000fd5b505050506040513d6000823e601f3d908101601f191682016040526117ef9190810190615287565b61013354919350915060009081906001600160a01b031663c44cee736118186060880188614f4c565b61182560808a018a614f4c565b6040518563ffffffff1660e01b81526004016118449493929190615419565b6000604051808303816000875af1158015611863573d6000803e3d6000fd5b505050506040513d6000823e601f3d908101601f1916820160405261188b9190810190615520565b91509150600084511180156118a1575060008251115b80156118f55750816000815181106118bb576118bb614f05565b60200260200101516040015184600186516118d69190614eb9565b815181106118e6576118e6614f05565b60200260200101516040015110155b15611aa2576000611906858461253f565b915050600061013460009054906101000a90046001600160a01b03166001600160a01b031663313ce5676040518163ffffffff1660e01b8152600401602060405180830381865afa15801561195f573d6000803e3d6000fd5b505050506040513d601f19601f820116820180604052508101906119839190615777565b60ff1690506000611995878484612579565b905060006119a4868585612a42565b6101355461012e5461013754604051630ef1216760e41b81526004810192909252426024830152436044830152606482018690526084820184905260a48201529192506001600160a01b03169063ef1216709060c401600060405180830381600087803b158015611a1457600080fd5b505af1158015611a28573d6000803e3d6000fd5b50506101365461012d5461012e546101375460405163a2a61aed60e01b81526001600160a01b03909416955063a2a61aed9450611a679360040161579a565b600060405180830381600087803b158015611a8157600080fd5b505af1158015611a95573d6000803e3d6000fd5b5050505050505050611e03565b60005b8451811015611bdd57848181518110611ac057611ac0614f05565b602002602001015160e0015115611aeb57611ae6858281518110610e5357610e53614f05565b611bcd565b6101325485516001600160a01b0390911690630283ce5b90879084908110611b1557611b15614f05565b602002602001015160000151878481518110611b3357611b33614f05565b602002602001015160200151888581518110611b5157611b51614f05565b602002602001015160c00151898681518110611b6f57611b6f614f05565b6020026020010151608001516040518563ffffffff1660e01b8152600401611b9a9493929190615698565b600060405180830381600087803b158015611bb457600080fd5b505af1158015611bc8573d6000803e3d6000fd5b505050505b611bd681614f1b565b9050611aa5565b5060005b8251811015611cbd576101335483516001600160a01b0390911690630c57f41490859084908110611c1457611c14614f05565b602002602001015160000151858481518110611c3257611c32614f05565b602002602001015160200151868581518110611c5057611c50614f05565b6020026020010151606001516040518463ffffffff1660e01b8152600401611c7a939291906156d4565b600060405180830381600087803b158015611c9457600080fd5b505af1158015611ca8573d6000803e3d6000fd5b5050505080611cb690614f1b565b9050611be1565b5060008451118015611cd0575060008251115b8015611d23575081600081518110611cea57611cea614f05565b6020026020010151604001518460018651611d059190614eb9565b81518110611d1557611d15614f05565b602002602001015160400151105b15611d98576101355461012e5460405163504c5d5d60e11b81526001600160a01b039092169163a098baba91611d6191600190600090600401614f34565b600060405180830381600087803b158015611d7b57600080fd5b505af1158015611d8f573d6000803e3d6000fd5b50505050611e03565b6101355461012e5460405163504c5d5d60e11b81526001600160a01b039092169163a098baba91611dd0916000908190600401614f34565b600060405180830381600087803b158015611dea57600080fd5b505af1158015611dfe573d6000803e3d6000fd5b505050505b60005b8351811015611f3f57838181518110611e2157611e21614f05565b6020026020010151610100015115611e4d57611e488482815181106110a0576110a0614f05565b611f2f565b6101325484516001600160a01b0390911690630283ce5b90869084908110611e7757611e77614f05565b602002602001015160000151868481518110611e9557611e95614f05565b602002602001015160200151878581518110611eb357611eb3614f05565b602002602001015160e00151888681518110611ed157611ed1614f05565b602002602001015160a001516040518563ffffffff1660e01b8152600401611efc9493929190615698565b600060405180830381600087803b158015611f1657600080fd5b505af1158015611f2a573d6000803e3d6000fd5b505050505b611f3881614f1b565b9050611e06565b5060005b815181101561201f576101335482516001600160a01b0390911690630c57f41490849084908110611f7657611f76614f05565b602002602001015160000151848481518110611f9457611f94614f05565b602002602001015160200151858581518110611fb257611fb2614f05565b6020026020010151608001516040518463ffffffff1660e01b8152600401611fdc939291906156d4565b600060405180830381600087803b158015611ff657600080fd5b505af115801561200a573d6000803e3d6000fd5b505050508061201890614f1b565b9050611f43565b5061013160009054906101000a90046001600160a01b03166001600160a01b0316634dabab106040518163ffffffff1660e01b8152600401602060405180830381865afa158015612074573d6000803e3d6000fd5b505050506040513d601f19601f8201168201806040525081019061209891906156f3565b6114525761145261570e565b600080516020615b308339815191526120bc81612108565b610139805462ff0000191690556101355461012e5461012d5460405162d9568360e21b8152600481019290925260248201526001600160a01b03909116906303655a0c90604401611424565b6107e98133612e44565b61211c828261138d565b61072057600082815260c9602090815260408083206001600160a01b03851684529091529020805460ff191660011790556121543390565b6001600160a01b0316816001600160a01b0316837f2f8788117e7eff1d82e926ec794901d17c78024a50270940304540a733656f0d60405160405180910390a45050565b6121a2828261138d565b1561072057600082815260c9602090815260408083206001600160a01b0385168085529252808320805460ff1916905551339285917ff6391f5c32d9c69d2a47ea670b442974b53935d1edc7fd64eb21e047a839171b9190a45050565b600080516020615ae9833981519152546001600160a01b031690565b600080516020615aa983398151915261223381612108565b6101355460405163b3c2d50b60e01b81523060048201526001600160a01b0384811660248301529091169063b3c2d50b90604401600060405180830381600087803b15801561228157600080fd5b505af1158015612295573d6000803e3d6000fd5b505050505050565b7f4910fdfa16fed3260ed0e7147f7cc6da11a60208b5b9406d12a635614ffd91435460ff16156122d05761069c83612e9d565b826001600160a01b03166352d1902d6040518163ffffffff1660e01b8152600401602060405180830381865afa92505050801561232a575060408051601f3d908101601f19168201909252612327918101906157b0565b60015b61238d5760405162461bcd60e51b815260206004820152602e60248201527f45524331393637557067726164653a206e657720696d706c656d656e7461746960448201526d6f6e206973206e6f74205555505360901b606482015260840161070d565b600080516020615ae983398151915281146123fc5760405162461bcd60e51b815260206004820152602960248201527f45524331393637557067726164653a20756e737570706f727465642070726f786044820152681a58589b195555525160ba1b606482015260840161070d565b5061069c838383612f37565b6001600160a01b03163b151590565b600054610100900460ff1661243e5760405162461bcd60e51b815260040161070d906157c9565b565b600054610100900460ff166124675760405162461bcd60e51b815260040161070d906157c9565b61243e612f62565b60008290506000816001600160a01b031663228d5cc66040518163ffffffff1660e01b8152600401602060405180830381865afa1580156124b4573d6000803e3d6000fd5b505050506040513d601f19601f820116820180604052508101906124d89190615814565b6040516364deb92b60e11b81529091506001600160a01b0382169063c9bd7256906125079086906004016148ea565b600060405180830381600087803b15801561252157600080fd5b505af1158015612535573d6000803e3d6000fd5b5050505050505050565b60008061254a612f90565b60008061255b868661013854612fe9565b61013782905590945092505050612572600160fb55565b9250929050565b82516000908190819081905b8015612a3657612596600182614eb9565b91506000806125c38a85815181106125b0576125b0614f05565b6020026020010151604001518b8661387d565b91509150610137548a85815181106125dd576125dd614f05565b602002602001015160400151101580156125f657508886105b801561260b5750612607868a614eb9565b8111155b156126a657600094505b816126208686614eb9565b10612683576126508a6126338787614eb9565b8151811061264357612643614f05565b6020026020010151613921565b61265a9087615831565b95508484036126735761266c85614f1b565b9450612683565b61267c85614f1b565b9450612615565b84156126a157612694600186614eb9565b61269e9084614eb9565b92505b612a23565b610137548a85815181106126bc576126bc614f05565b602002602001015160400151101580156126d557508886105b156128ea57600094505b816126ea8686614eb9565b1061268357816126fa8686614eb9565b0361275d576127368a61270d8787614eb9565b8151811061271d5761271d614f05565b6020026020010151878b6127319190614eb9565b613a6e565b6127409087615831565b955061274c868a614eb9565b6127569082614eb9565b90506128ca565b60008a61276a8787614eb9565b8151811061277a5761277a614f05565b602002602001015160600151905060006127fb60405180602001604052808c60126127a59190614eb9565b6127b090600a615928565b8b8f6127bc9190614eb9565b6127c69190614ecc565b90526040805160208101909152806127df8e6012614eb9565b6127ea90600a615928565b6127f49088614ecc565b9052613b9b565b9050600061280a8b6012614eb9565b61281590600a615928565b61284d8360405180602001604052808f60126128319190614eb9565b61283c90600a615928565b6128469089614ecc565b9052613bde565b516128589190614ee3565b90506128868d6128688a8a614eb9565b8151811061287857612878614f05565b602002602001015182613a6e565b612890908a615831565b98508c61289d8989614eb9565b815181106128ad576128ad614f05565b602002602001015160600151846128c49190614eb9565b93505050505b8484036128da5761266c85614f1b565b6128e385614f1b565b94506126df565b8984815181106128fc576128fc614f05565b602002602001015160e0015115612941576126a18a858151811061292257612922614f05565b602002602001015161010001518b8681518110610e7257610e72614f05565b610132548a516001600160a01b0390911690630283ce5b908c908790811061296b5761296b614f05565b6020026020010151600001518c878151811061298957612989614f05565b6020026020010151602001518d88815181106129a7576129a7614f05565b602002602001015160c001518e89815181106129c5576129c5614f05565b6020026020010151608001516040518563ffffffff1660e01b81526004016129f09493929190615698565b600060405180830381600087803b158015612a0a57600080fd5b505af1158015612a1e573d6000803e3d6000fd5b505050505b505080612a2f90615934565b9050612585565b50919695505050505050565b60008080805b8651811015612e3957600080612a7c898481518110612a6957612a69614f05565b6020026020010151604001518a85613c1d565b9150915061013754898481518110612a9657612a96614f05565b60200260200101516040015111158015612aaf57508785105b8015612ac45750612ac08589614eb9565b8111155b15612b4857600093505b81612ad98486615831565b11612b2557612b0989612aec8587615831565b81518110612afc57612afc614f05565b6020026020010151613ccc565b612b139086615831565b9450612b1e84614f1b565b9350612ace565b8315612b4357612b36600185614eb9565b612b409084615831565b92505b612e26565b61013754898481518110612b5e57612b5e614f05565b60200260200101516040015111158015612b7757508785105b15612d6357600093505b81612b8c8486615831565b11612b255781612b9c8486615831565b03612bff57612bd889612baf8587615831565b81518110612bbf57612bbf614f05565b6020026020010151868a612bd39190614eb9565b613d94565b612be29086615831565b9450612bee8589614eb9565b612bf89082614eb9565b9050612d51565b600089612c0c8587615831565b81518110612c1c57612c1c614f05565b60200260200101516060015190506000612c7f60405180602001604052808b6012612c479190614eb9565b612c5290600a615928565b612c5c8b8f614eb9565b612c669190614ecc565b90526040805160208101909152806127df8d6012614eb9565b9050600084612c8e8789615831565b03612ca257612c9d888c614eb9565b612cdf565b612cad8a6012614eb9565b612cb890600a615928565b612cd48360405180602001604052808e60126128319190614eb9565b51612cdf9190614ee3565b9050612d0d8c612cef888a615831565b81518110612cff57612cff614f05565b602002602001015182613d94565b612d179089615831565b97508b612d248789615831565b81518110612d3457612d34614f05565b60200260200101516060015184612d4b9190614eb9565b93505050505b83612d5b81614f1b565b945050612b81565b6101335489516001600160a01b0390911690630c57f414908b9086908110612d8d57612d8d614f05565b6020026020010151600001518b8681518110612dab57612dab614f05565b6020026020010151602001518c8781518110612dc957612dc9614f05565b6020026020010151606001516040518463ffffffff1660e01b8152600401612df3939291906156d4565b600060405180830381600087803b158015612e0d57600080fd5b505af1158015612e21573d6000803e3d6000fd5b505050505b505080612e3290614f1b565b9050612a48565b509095945050505050565b612e4e828261138d565b61072057612e5b81613ecf565b612e66836020613ee1565b604051602001612e7792919061594b565b60408051601f198184030181529082905262461bcd60e51b825261070d91600401614b1a565b612ea681612408565b612f085760405162461bcd60e51b815260206004820152602d60248201527f455243313936373a206e657720696d706c656d656e746174696f6e206973206e60448201526c1bdd08184818dbdb9d1c9858dd609a1b606482015260840161070d565b600080516020615ae983398151915280546001600160a01b0319166001600160a01b0392909216919091179055565b612f4083614083565b600082511180612f4d5750805b1561069c57612f5c83836140c3565b50505050565b600054610100900460ff16612f895760405162461bcd60e51b815260040161070d906157c9565b600160fb55565b600260fb5403612fe25760405162461bcd60e51b815260206004820152601f60248201527f5265656e7472616e637947756172643a207265656e7472616e742063616c6c00604482015260640161070d565b600260fb55565b60008082600114158015612ffc57508215155b1561301d576040516362c115eb60e11b81526004810184905260240161070d565b6000604051806101e001604052808660008151811061303e5761303e614f05565b602002602001015160400151815260200160018152602001875181526020018660008151811061307057613070614f05565b6020026020010151606001518152602001600081526020016000815260200160008152602001600081526020016000815260200160008152602001600081526020016000815260200160001515815260200160008152602001600081525090506130ef86600183604001516130e59190614eb9565b83516000906140e8565b604083015260808201819052606082015161310a9190614198565b60a08201525b84518160200151108015613128575085518160400151105b1561329657602081015160c08201819052604082015160e0830152606082015161010083015260808201516101208301528551869190811061316c5761316c614f05565b602002602001015160400151816101400181815250505b84518160c001511080156131bc5750806101400151858260c00151815181106131ae576131ae614f05565b602002602001015160400151145b1561320a5760c08101805186916131d282614f1b565b9052815181106131e4576131e4614f05565b60200260200101516060015181610100018181516132029190615831565b905250613183565b613224868260e001518361012001518461014001516141af565b60e083015261012082018190526101008201516132419190614198565b610160820181905260a082015110156132965760c0810151602082015260e0810151604082015261010081015160608201526101208101516080820152610140810151815261016081015160a0820152613110565b84518160200151106132aa576000196132cd565b848160200151815181106132c0576132c0614f05565b6020026020010151604001515b6101408201525b8551816040015110156133e857604081015160e082018190528651879190811061330057613300614f05565b6020908102919091010151604001516101a08201819052608082015161012083015261014082015111156133e8575b85518160e001511080156133685750806101a00151868260e001518151811061335a5761335a614f05565b602002602001015160400151145b156133b65760e081018051879161337e82614f1b565b90528151811061339057613390614f05565b60200260200101516060015181610120018181516133ae9190614eb9565b90525061332f565b8060600151816101200151106133e8576001610180820152610120810151608082015260e081015160408201526132d4565b80610180015115613460578551816040015114613426578581604001518151811061341557613415614f05565b602002602001015160400151613455565b85600182604001516134389190614eb9565b8151811061344857613448614f05565b6020026020010151604001515b6101c0820152613469565b80516101c08201525b6020810180519061347982615934565b81525050836001036135da5760208101515b6000811180156134d85750858260200151815181106134ac576134ac614f05565b6020026020010151604001518682815181106134ca576134ca614f05565b602002602001015160400151145b156134ef576134e8600182614eb9565b905061348b565b60408201518751810361350a57613507600182614eb9565b90505b600188516135189190614eb9565b8110801561356357508783604001518151811061353757613537614f05565b60200260200101516040015188828151811061355557613555614f05565b602002602001015160400151145b1561357a57613573600182615831565b905061350a565b600288828151811061358e5761358e614f05565b6020026020010151604001518884815181106135ac576135ac614f05565b6020026020010151604001516135c29190615831565b6135cc9190614ee3565b6101c08401525061365e9050565b85518160400151036135fd576001816040018181516135f99190614eb9565b9052505b60028682604001518151811061361557613615614f05565b6020026020010151604001518683602001518151811061363757613637614f05565b60200260200101516040015161364d9190615831565b6136579190614ee3565b6101c08201525b806101c001518582602001518151811061367a5761367a614f05565b60200260200101516040015111613731576020810180519061369b82614f1b565b9052505b845181602001511080156136d95750806101c00151858260200151815181106136ca576136ca614f05565b60200260200101516040015111155b1561372c57848160200151815181106136f4576136f4614f05565b602002602001015160600151816060018181516137119190615831565b9052506020810180519061372482614f1b565b90525061369f565b6137b7565b806101c001518582602001518151811061374d5761374d614f05565b60200260200101516040015111156137b7578481602001518151811061377557613775614f05565b602002602001015160600151816060018181516137929190614eb9565b9052506020810151156137b757602081018051906137af82615934565b905250613731565b855181604001511080156137f05750806101c00151868260400151815181106137e2576137e2614f05565b602002602001015160400151105b1561381d5761380e8682604001518360800151846101c001516141af565b60408301526080820152613857565b6040810151156138575761384c866001836040015161383c9190614eb9565b8360800151846101c001516140e8565b604083015260808201525b806101c0015161386f82608001518360600151614198565b92509250505b935093915050565b60008082915083828151811061389557613895614f05565b60200260200101516060015190505b8115806138d8575084846138b9600185614eb9565b815181106138c9576138c9614f05565b60200260200101516040015114155b61387557836138e8600184614eb9565b815181106138f8576138f8614f05565b6020026020010151606001518161390f9190615831565b905061391a82615934565b91506138a4565b600061392b612f90565b600061393a8360600151614230565b90508260e001516139ce57610131546020840151606085015160c0860151608087015161013054604051635115f4e560e11b81526001600160a01b039096169563a22be9ca956139979590949093899391929091906004016159ba565b600060405180830381600087803b1580156139b157600080fd5b505af11580156139c5573d6000803e3d6000fd5b505050506139e7565b6139e783602001518460600151838661010001516142b2565b6101355461012e54845160608601516040516303e852b160e01b81526001600160a01b03909416936303e852b193613a25939092909160040161579a565b600060405180830381600087803b158015613a3f57600080fd5b505af1158015613a53573d6000803e3d6000fd5b505050508260600151915050613a69600160fb55565b919050565b6000613a78612f90565b6000613a8383614230565b90508360e00151613b0d5761013154602085015160c0860151608087015161013054604051635115f4e560e11b81526001600160a01b039095169463a22be9ca94613ad69490938a9389936004016159ba565b600060405180830381600087803b158015613af057600080fd5b505af1158015613b04573d6000803e3d6000fd5b50505050613b22565b613b22846020015184838761010001516142b2565b6101355461012e5485516040516303e852b160e01b81526001600160a01b03909316926303e852b192613b5b929091889060040161579a565b600060405180830381600087803b158015613b7557600080fd5b505af1158015613b89573d6000803e3d6000fd5b5050505082915050610671600160fb55565b6040805160208101909152600081526040518060200160405280613bd5613bce8660000151670de0b6b3a7640000614737565b8551614743565b90529392505050565b6040805160208101909152600081526040518060200160405280670de0b6b3a7640000613c1386600001518660000151614737565b613bd59190614ee3565b600080829150838281518110613c3557613c35614f05565b60200260200101516060015190505b60018451613c529190614eb9565b821015613875578484613c66846001615831565b81518110613c7657613c76614f05565b602002602001015160400151036138755783613c93836001615831565b81518110613ca357613ca3614f05565b60200260200101516060015181613cba9190615831565b9050613cc582614f1b565b9150613c44565b6000613cd6612f90565b6000613ce58360600151614230565b610131546020850151606086015186516040516308f9231360e31b81529495506001600160a01b03909316936347c9189893613d28939291879190600401615a0d565b600060405180830381600087803b158015613d4257600080fd5b505af1158015613d56573d6000803e3d6000fd5b50506101355461012e548651606088015160405163ba0cf0ab60e01b81526001600160a01b03909416955063ba0cf0ab9450613a259360040161579a565b6000613d9e612f90565b6000613da983614230565b61013154602086015186516040516308f9231360e31b81529394506001600160a01b03909216926347c9189892613de7929188918791600401615a0d565b600060405180830381600087803b158015613e0157600080fd5b505af1158015613e15573d6000803e3d6000fd5b5050610133548651602088015160608901516001600160a01b039093169450630c57f41493509091613e48908890614eb9565b6040518463ffffffff1660e01b8152600401613e66939291906156d4565b600060405180830381600087803b158015613e8057600080fd5b505af1158015613e94573d6000803e3d6000fd5b50506101355461012e54875160405163ba0cf0ab60e01b81526001600160a01b03909316945063ba0cf0ab9350613b5b92889060040161579a565b60606106716001600160a01b03831660145b60606000613ef0836002614ecc565b613efb906002615831565b6001600160401b03811115613f1257613f12614979565b6040519080825280601f01601f191660200182016040528015613f3c576020820181803683370190505b509050600360fc1b81600081518110613f5757613f57614f05565b60200101906001600160f81b031916908160001a905350600f60fb1b81600181518110613f8657613f86614f05565b60200101906001600160f81b031916908160001a9053506000613faa846002614ecc565b613fb5906001615831565b90505b600181111561402d576f181899199a1a9b1b9c1cb0b131b232b360811b85600f1660108110613fe957613fe9614f05565b1a60f81b828281518110613fff57613fff614f05565b60200101906001600160f81b031916908160001a90535060049490941c9361402681615934565b9050613fb8565b50831561407c5760405162461bcd60e51b815260206004820181905260248201527f537472696e67733a20686578206c656e67746820696e73756666696369656e74604482015260640161070d565b9392505050565b61408c81612e9d565b6040516001600160a01b038216907fbc7cd75a20ee27fd9adebab32041f755214dbc6bffa90cc0225b39da2e5c2d3b90600090a250565b606061407c8383604051806060016040528060278152602001615b096027913961474f565b60008083855b8488828151811061410157614101614f05565b602002602001015160400151106141535787818151811061412457614124614f05565b6020026020010151606001518261413b9190615831565b915080156141535761414c81615934565b90506140ee565b818589838151811061416757614167614f05565b6020026020010151604001511061417e5781614189565b614189826001615831565b93509350505094509492505050565b60008183106141a8575080610671565b5081610671565b60008083855b8751811080156141e15750848882815181106141d3576141d3614f05565b602002602001015160400151105b15614223578781815181106141f8576141f8614f05565b6020026020010151606001518261420f9190614eb9565b91508061421b81614f1b565b9150506141b5565b9097909650945050505050565b60008061427e6040518060200160405280670de0b6b3a7640000815250614279604051806020016040528061013054815250604051806020016040528061013754815250613bde565b6147c7565b905061407c6142ad6040518060200160405280670de0b6b3a7640000876142a59190614ecc565b905283613bde565b6147f3565b6000819050600061013160009054906101000a90046001600160a01b03166001600160a01b031663c99aa678878787866001600160a01b0316635c4b440e6040518163ffffffff1660e01b8152600401602060405180830381865afa15801561431f573d6000803e3d6000fd5b505050506040513d601f19601f820116820180604052508101906143439190615814565b6101305460405160e087901b6001600160e01b03191681526001600160a01b039586166004820152602481019490945260448401929092529092166064820152608481019190915260a4016020604051808303816000875af11580156143ad573d6000803e3d6000fd5b505050506040513d601f19601f820116820180604052508101906143d191906157b0565b604051631b433b1160e01b81526001600160a01b03888116600483015260248201839052919250600091841690631b433b11906044016020604051808303816000875af1158015614426573d6000803e3d6000fd5b505050506040513d601f19601f8201168201806040525081019061444a91906157b0565b90506000836001600160a01b0316633de81dc46040518163ffffffff1660e01b8152600401602060405180830381865afa15801561448c573d6000803e3d6000fd5b505050506040513d601f19601f820116820180604052508101906144b09190615814565b9050600080826001600160a01b0316633d0dda788b8661013160009054906101000a90046001600160a01b03166001600160a01b0316635c4b440e6040518163ffffffff1660e01b8152600401602060405180830381865afa15801561451a573d6000803e3d6000fd5b505050506040513d601f19601f8201168201806040525081019061453e9190615814565b60405160e085901b6001600160e01b03191681526001600160a01b039384166004820152602481019290925290911660448201526064016000604051808303816000875af1158015614594573d6000803e3d6000fd5b505050506040513d6000823e601f3d908101601f191682016040526145bc9190810190615a33565b91509150600061013160009054906101000a90046001600160a01b03166001600160a01b0316633de81dc46040518163ffffffff1660e01b8152600401602060405180830381865afa158015614616573d6000803e3d6000fd5b505050506040513d601f19601f8201168201806040525081019061463a9190615814565b905060005b835181101561472957600083828151811061465c5761465c614f05565b6020026020010151111561471957816001600160a01b031663790cb4918d86848151811061468c5761468c614f05565b60200260200101518685815181106146a6576146a6614f05565b60209081029190910101516040516001600160e01b031960e086901b1681526001600160a01b0393841660048201529290911660248301526044820152606401600060405180830381600087803b15801561470057600080fd5b505af1158015614714573d6000803e3d6000fd5b505050505b61472281614f1b565b905061463f565b505050505050505050505050565b600061407c8284614ecc565b600061407c8284614ee3565b6060600080856001600160a01b03168560405161476c9190615a8c565b600060405180830381855af49150503d80600081146147a7576040519150601f19603f3d011682016040523d82523d6000602084013e6147ac565b606091505b50915091506147bd8683838761480b565b9695505050505050565b6040805160208101909152600081526040518060200160405280613bd58560000151856000015161488a565b805160009061067190670de0b6b3a764000090614ee3565b606083156148785782516000036148715761482585612408565b6148715760405162461bcd60e51b815260206004820152601d60248201527f416464726573733a2063616c6c20746f206e6f6e2d636f6e7472616374000000604482015260640161070d565b5081614882565b6148828383614896565b949350505050565b600061407c8284615831565b8151156148a65781518083602001fd5b8060405162461bcd60e51b815260040161070d9190614b1a565b6000602082840312156148d257600080fd5b81356001600160e01b03198116811461407c57600080fd5b6001600160a01b0391909116815260200190565b60006020828403121561491057600080fd5b5035919050565b6001600160a01b03811681146107e957600080fd5b6000806040838503121561493f57600080fd5b82359150602083013561495181614917565b809150509250929050565b60006020828403121561496e57600080fd5b813561407c81614917565b634e487b7160e01b600052604160045260246000fd5b60405161016081016001600160401b03811182821017156149b2576149b2614979565b60405290565b60405161012081016001600160401b03811182821017156149b2576149b2614979565b60405160e081016001600160401b03811182821017156149b2576149b2614979565b60405160a081016001600160401b03811182821017156149b2576149b2614979565b604051601f8201601f191681016001600160401b0381118282101715614a4757614a47614979565b604052919050565b60008060408385031215614a6257600080fd5b8235614a6d81614917565b91506020838101356001600160401b0380821115614a8a57600080fd5b818601915086601f830112614a9e57600080fd5b813581811115614ab057614ab0614979565b614ac2601f8201601f19168501614a1f565b91508082528784828501011115614ad857600080fd5b80848401858401376000848284010152508093505050509250929050565b60005b83811015614b11578181015183820152602001614af9565b50506000910152565b6020815260008251806020840152614b39816040850160208701614af6565b601f01601f19169190910160400192915050565b60008083601f840112614b5f57600080fd5b5081356001600160401b03811115614b7657600080fd5b60208301915083602082850101111561257257600080fd5b6000806000806000806000806000806101008b8d031215614bae57600080fd5b8a356001600160401b0380821115614bc557600080fd5b614bd18e838f01614b4d565b909c509a5060208d0135915080821115614bea57600080fd5b50614bf78d828e01614b4d565b90995097505060408b0135955060608b0135945060808b0135935060a08b0135614c2081614917565b925060c08b0135614c3081614917565b8092505060e08b013590509295989b9194979a5092959850565b60008083601f840112614c5c57600080fd5b5081356001600160401b03811115614c7357600080fd5b6020830191508360208260051b850101111561257257600080fd5b60008060008060408587031215614ca457600080fd5b84356001600160401b0380821115614cbb57600080fd5b614cc788838901614c4a565b90965094506020870135915080821115614ce057600080fd5b50614ced87828801614c4a565b95989497509550505050565b600060208284031215614d0b57600080fd5b81356001600160401b03811115614d2157600080fd5b820160a0818503121561407c57600080fd5b60008060008060008060008060006101008a8c031215614d5257600080fd5b8935614d5d81614917565b985060208a0135614d6d81614917565b975060408a0135614d7d81614917565b965060608a0135614d8d81614917565b955060808a0135614d9d81614917565b945060a08a0135614dad81614917565b935060c08a0135614dbd81614917565b925060e08a01356001600160401b03811115614dd857600080fd5b614de48c828d01614b4d565b915080935050809150509295985092959850929598565b6020808252602c908201527f46756e6374696f6e206d7573742062652063616c6c6564207468726f7567682060408201526b19195b1959d85d1958d85b1b60a21b606082015260800190565b6020808252602c908201527f46756e6374696f6e206d7573742062652063616c6c6564207468726f7567682060408201526b6163746976652070726f787960a01b606082015260800190565b8183823760009101908152919050565b634e487b7160e01b600052601160045260246000fd5b8181038181111561067157610671614ea3565b808202811582820484141761067157610671614ea3565b600082614f0057634e487b7160e01b600052601260045260246000fd5b500490565b634e487b7160e01b600052603260045260246000fd5b600060018201614f2d57614f2d614ea3565b5060010190565b92835290151560208301521515604082015260600190565b6000808335601e19843603018112614f6357600080fd5b8301803591506001600160401b03821115614f7d57600080fd5b6020019150600581901b360382131561257257600080fd5b81835260006001600160fb1b03831115614fae57600080fd5b8260051b80836020870137939093016020019392505050565b606081526000614fdb60608301888a614f95565b8281036020840152614fee818789614f95565b90508281036040840152615003818587614f95565b9998505050505050505050565b60006001600160401b0382111561502957615029614979565b5060051b60200190565b8051613a6981614917565b600082601f83011261504f57600080fd5b8151602061506461505f83615010565b614a1f565b82815260059290921b8401810191818101908684111561508357600080fd5b8286015b8481101561509e5780518352918301918301615087565b509695505050505050565b600082601f8301126150ba57600080fd5b815160206150ca61505f83615010565b82815260059290921b840181019181810190868411156150e957600080fd5b8286015b8481101561509e57805161510081614917565b83529183019183016150ed565b80518015158114613a6957600080fd5b600082601f83011261512e57600080fd5b8151602061513e61505f83615010565b82815260059290921b8401810191818101908684111561515d57600080fd5b8286015b8481101561509e5780516001600160401b03808211156151815760008081fd5b90880190610160828b03601f190181131561519c5760008081fd5b6151a461498f565b87840151815260406151b7818601615033565b89830152606080860151828401526080915081860151818401525060a0808601518284015260c0915081860151858111156151f25760008081fd5b6152008f8c838a010161503e565b82850152505060e0615213818701615033565b828401526101009150818601518581111561522e5760008081fd5b61523c8f8c838a01016150a9565b828501525050610120935061525284860161510d565b90820152610140615264858201615033565b8483015261527383860161510d565b908201528652505050918301918301615161565b6000806040838503121561529a57600080fd5b82516001600160401b03808211156152b157600080fd5b818501915085601f8301126152c557600080fd5b815160206152d561505f83615010565b82815260059290921b840181019181810190898411156152f457600080fd5b8286015b848110156153e85780518681111561530f57600080fd5b8701610120818d03601f190181131561532757600080fd5b61532f6149b8565b86830151815261534160408401615033565b87820152606083015160408201526080830151606082015260a08301518981111561536b57600080fd5b6153798f898387010161503e565b60808301525061538b60c08401615033565b60a082015260e0830151898111156153a35760008081fd5b6153b18f89838701016150a9565b60c0830152506101006153c581850161510d565b60e08301526153d5838501615033565b90820152855250509183019183016152f8565b509188015191965090935050508082111561540257600080fd5b5061540f8582860161511d565b9150509250929050565b60408152600061542d604083018688614f95565b8281036020840152615440818587614f95565b979650505050505050565b600082601f83011261545c57600080fd5b8151602061546c61505f83615010565b82815260e0928302850182019282820191908785111561548b57600080fd5b8387015b858110156155135781818a0312156154a75760008081fd5b6154af6149db565b81518152858201516154c081614917565b8187015260408281015190820152606080830151908201526080808301519082015260a0808301516154f181614917565b9082015260c061550283820161510d565b90820152845292840192810161548f565b5090979650505050505050565b600080604080848603121561553457600080fd5b83516001600160401b038082111561554b57600080fd5b818601915086601f83011261555f57600080fd5b8151602061556f61505f83615010565b82815260a0928302850182019282820191908b85111561558e57600080fd5b958301955b848710156155fc5780878d0312156155ab5760008081fd5b6155b36149fd565b87518152848801516155c481614917565b818601528789015189820152606080890151908201526080808901516155e981614917565b9082015283529586019591830191615593565b509189015191975090945050508083111561561657600080fd5b505061540f8582860161544b565b600081518084526020808501945080840160005b8381101561565d5781516001600160a01b031687529582019590820190600101615638565b509495945050505050565b600081518084526020808501945080840160005b8381101561565d5781518752958201959082019060010161567c565b8481526001600160a01b03841660208201526080604082018190526000906156c290830185615624565b82810360608401526154408185615668565b9283526001600160a01b03919091166020830152604082015260600190565b60006020828403121561570557600080fd5b61407c8261510d565b634e487b7160e01b600052600160045260246000fd5b86815285602082015260018060a01b038516604082015283606082015260a060808201528160a0820152818360c0830137600081830160c090810191909152601f909201601f1916010195945050505050565b60006020828403121561578957600080fd5b815160ff8116811461407c57600080fd5b9283526020830191909152604082015260600190565b6000602082840312156157c257600080fd5b5051919050565b6020808252602b908201527f496e697469616c697a61626c653a20636f6e7472616374206973206e6f74206960408201526a6e697469616c697a696e6760a81b606082015260800190565b60006020828403121561582657600080fd5b815161407c81614917565b8082018082111561067157610671614ea3565b600181815b8085111561587f57816000190482111561586557615865614ea3565b8085161561587257918102915b93841c9390800290615849565b509250929050565b60008261589657506001610671565b816158a357506000610671565b81600181146158b957600281146158c3576158df565b6001915050610671565b60ff8411156158d4576158d4614ea3565b50506001821b610671565b5060208310610133831016604e8410600b8410161715615902575081810a610671565b61590c8383615844565b806000190482111561592057615920614ea3565b029392505050565b600061407c8383615887565b60008161594357615943614ea3565b506000190190565b76020b1b1b2b9b9a1b7b73a3937b61d1030b1b1b7bab73a1604d1b81526000835161597d816017850160208801614af6565b7001034b99036b4b9b9b4b733903937b6329607d1b60179184019182015283516159ae816028840160208801614af6565b01602801949350505050565b60018060a01b038716815285602082015284604082015260c0606082015260006159e760c0830186615624565b82810360808401526159f98186615668565b9150508260a0830152979650505050505050565b6001600160a01b0394909416845260208401929092526040830152606082015260800190565b60008060408385031215615a4657600080fd5b82516001600160401b0380821115615a5d57600080fd5b615a69868387016150a9565b93506020850151915080821115615a7f57600080fd5b5061540f8582860161503e565b60008251615a9e818460208701614af6565b919091019291505056fe793a6c9b7e0a9549c74edc2f9ae0dc50903dfaa9a56fb0116b27a8c71de3e2c630d41a597cac127d8249d31298b50e481ee82c3f4a49ff93c76a22735aa9f3ad360894a13ba1a3210667c828492db98dca3e2076cc3735a920a3ca505d382bbc416464726573733a206c6f772d6c6576656c2064656c65676174652063616c6c206661696c6564a49807205ce4d355092ef5a8a18f56e8913cf4a201fbe287825b095693c21775a2646970667358221220f15cb9dff83f7677ef15d6b08973d95e3a04b130eabafc9c9bf66ea7d8a8df9364736f6c63430008120033",
  "linkReferences": {},
  "deployedLinkReferences": {}
}