{
  "_format": "hh-sol-artifact-1",
  "contractName": "TestTermRepoTokenIntentHookFacetHelper",
  "sourceName": "contracts/test/TestTermRepoTokenIntentHookFacetHelper.sol",
  "abi": [
    {
      "inputs": [
        {
          "internalType": "address",
          "name": "target",
          "type": "address"
        }
      ],
      "name": "AddressEmptyCode",
      "type": "error"
    },
    {
      "inputs": [],
      "name": "AfterMaturity",
      "type": "error"
    },
    {
      "inputs": [],
      "name": "AlreadyInitialized",
      "type": "error"
    },
    {
      "inputs": [
        {
          "internalType": "address",
          "name": "signer",
          "type": "address"
        }
      ],
      "name": "AlreadyPreSigned",
      "type": "error"
    },
    {
      "inputs": [],
      "name": "ECDSAInvalidSignature",
      "type": "error"
    },
    {
      "inputs": [
        {
          "internalType": "uint256",
          "name": "length",
          "type": "uint256"
        }
      ],
      "name": "ECDSAInvalidSignatureLength",
      "type": "error"
    },
    {
      "inputs": [
        {
          "internalType": "bytes32",
          "name": "s",
          "type": "bytes32"
        }
      ],
      "name": "ECDSAInvalidSignatureS",
      "type": "error"
    },
    {
      "inputs": [],
      "name": "FailedCall",
      "type": "error"
    },
    {
      "inputs": [],
      "name": "FeeRecipientAlreadyApproved",
      "type": "error"
    },
    {
      "inputs": [],
      "name": "InputOutputTokenCollision",
      "type": "error"
    },
    {
      "inputs": [
        {
          "internalType": "uint256",
          "name": "balance",
          "type": "uint256"
        },
        {
          "internalType": "uint256",
          "name": "needed",
          "type": "uint256"
        }
      ],
      "name": "InsufficientBalance",
      "type": "error"
    },
    {
      "inputs": [],
      "name": "InsufficientFundsRetrieved",
      "type": "error"
    },
    {
      "inputs": [
        {
          "internalType": "uint256",
          "name": "capacityRemaining",
          "type": "uint256"
        }
      ],
      "name": "InsufficientRemainingCapacity",
      "type": "error"
    },
    {
      "inputs": [],
      "name": "InvalidCollateralAmountsInput",
      "type": "error"
    },
    {
      "inputs": [],
      "name": "InvalidDiscountRate",
      "type": "error"
    },
    {
      "inputs": [],
      "name": "InvalidFee",
      "type": "error"
    },
    {
      "inputs": [],
      "name": "InvalidFeeRecipient",
      "type": "error"
    },
    {
      "inputs": [],
      "name": "InvalidFillAmount",
      "type": "error"
    },
    {
      "inputs": [],
      "name": "InvalidMinSalt",
      "type": "error"
    },
    {
      "inputs": [],
      "name": "InvalidOfferRate",
      "type": "error"
    },
    {
      "inputs": [],
      "name": "InvalidOrderStatus",
      "type": "error"
    },
    {
      "inputs": [
        {
          "internalType": "string",
          "name": "message",
          "type": "string"
        }
      ],
      "name": "InvalidParameters",
      "type": "error"
    },
    {
      "inputs": [],
      "name": "InvalidPurchaseTokenAmount",
      "type": "error"
    },
    {
      "inputs": [],
      "name": "InvalidRepoId",
      "type": "error"
    },
    {
      "inputs": [],
      "name": "InvalidRetrieveFundsFunction",
      "type": "error"
    },
    {
      "inputs": [],
      "name": "InvalidRetrieveFundsListLength",
      "type": "error"
    },
    {
      "inputs": [
        {
          "internalType": "address",
          "name": "expected",
          "type": "address"
        },
        {
          "internalType": "address",
          "name": "actual",
          "type": "address"
        }
      ],
      "name": "InvalidSender",
      "type": "error"
    },
    {
      "inputs": [],
      "name": "InvalidSignature",
      "type": "error"
    },
    {
      "inputs": [
        {
          "internalType": "address",
          "name": "expected",
          "type": "address"
        },
        {
          "internalType": "address",
          "name": "actual",
          "type": "address"
        }
      ],
      "name": "InvalidTaker",
      "type": "error"
    },
    {
      "inputs": [],
      "name": "InvalidTermController",
      "type": "error"
    },
    {
      "inputs": [],
      "name": "MakerCannotBeTaker",
      "type": "error"
    },
    {
      "inputs": [],
      "name": "OrderCancelled",
      "type": "error"
    },
    {
      "inputs": [],
      "name": "OrderExpired",
      "type": "error"
    },
    {
      "inputs": [],
      "name": "ReentrancyGuardReentrantCall",
      "type": "error"
    },
    {
      "inputs": [],
      "name": "RetrieveFundsNotSpecified",
      "type": "error"
    },
    {
      "inputs": [
        {
          "internalType": "uint8",
          "name": "bits",
          "type": "uint8"
        },
        {
          "internalType": "uint256",
          "name": "value",
          "type": "uint256"
        }
      ],
      "name": "SafeCastOverflowedUintDowncast",
      "type": "error"
    },
    {
      "inputs": [
        {
          "internalType": "address",
          "name": "token",
          "type": "address"
        }
      ],
      "name": "SafeERC20FailedOperation",
      "type": "error"
    },
    {
      "inputs": [],
      "name": "TermControllerAlreadyApproved",
      "type": "error"
    },
    {
      "inputs": [],
      "name": "UnsupportedHookSelector",
      "type": "error"
    },
    {
      "inputs": [],
      "name": "UnsupportedSelector",
      "type": "error"
    },
    {
      "inputs": [
        {
          "internalType": "address",
          "name": "recipient",
          "type": "address"
        }
      ],
      "name": "addApprovedFeeRecipient",
      "outputs": [],
      "stateMutability": "nonpayable",
      "type": "function"
    },
    {
      "inputs": [
        {
          "internalType": "address",
          "name": "controller",
          "type": "address"
        }
      ],
      "name": "addApprovedTermController",
      "outputs": [],
      "stateMutability": "nonpayable",
      "type": "function"
    },
    {
      "inputs": [
        {
          "components": [
            {
              "internalType": "address",
              "name": "repoToken",
              "type": "address"
            },
            {
              "internalType": "bool",
              "name": "makerAssetIsPurchaseToken",
              "type": "bool"
            },
            {
              "internalType": "uint256",
              "name": "purchaseTokenAmount",
              "type": "uint256"
            },
            {
              "internalType": "uint256",
              "name": "discountRate",
              "type": "uint256"
            },
            {
              "internalType": "address",
              "name": "maker",
              "type": "address"
            },
            {
              "internalType": "address",
              "name": "taker",
              "type": "address"
            },
            {
              "internalType": "uint256",
              "name": "makerFee",
              "type": "uint256"
            },
            {
              "internalType": "uint256",
              "name": "takerFee",
              "type": "uint256"
            },
            {
              "internalType": "address",
              "name": "feeRecipient",
              "type": "address"
            },
            {
              "internalType": "uint256",
              "name": "expiry",
              "type": "uint256"
            },
            {
              "internalType": "uint256",
              "name": "salt",
              "type": "uint256"
            },
            {
              "components": [
                {
                  "internalType": "bytes4",
                  "name": "method",
                  "type": "bytes4"
                },
                {
                  "internalType": "address",
                  "name": "target",
                  "type": "address"
                },
                {
                  "internalType": "bytes",
                  "name": "additionalCalldata",
                  "type": "bytes"
                }
              ],
              "internalType": "struct ITermIntent.RetrieveFundsStruct",
              "name": "retrieveFunds",
              "type": "tuple"
            }
          ],
          "internalType": "struct ITermIntent.RepoTokenSwapOrder",
          "name": "order",
          "type": "tuple"
        },
        {
          "components": [
            {
              "internalType": "enum ITermIntent.SignatureType",
              "name": "sigType",
              "type": "uint8"
            },
            {
              "internalType": "bytes",
              "name": "sigData",
              "type": "bytes"
            }
          ],
          "internalType": "struct ITermIntent.Signature",
          "name": "signature",
          "type": "tuple"
        }
      ],
      "name": "cancelRepoTokenSwap",
      "outputs": [],
      "stateMutability": "nonpayable",
      "type": "function"
    },
    {
      "inputs": [],
      "name": "clearActiveFlashLoanBorrower",
      "outputs": [],
      "stateMutability": "nonpayable",
      "type": "function"
    },
    {
      "inputs": [
        {
          "internalType": "address",
          "name": "user",
          "type": "address"
        },
        {
          "internalType": "address",
          "name": "inputToken",
          "type": "address"
        },
        {
          "internalType": "uint256",
          "name": "maxInputAmount",
          "type": "uint256"
        },
        {
          "internalType": "address",
          "name": "outputToken",
          "type": "address"
        },
        {
          "internalType": "uint256",
          "name": "minOutputAmount",
          "type": "uint256"
        },
        {
          "internalType": "bytes4",
          "name": "selector",
          "type": "bytes4"
        },
        {
          "internalType": "address",
          "name": "targetAddress",
          "type": "address"
        },
        {
          "internalType": "bytes",
          "name": "additionalCalldata",
          "type": "bytes"
        }
      ],
      "name": "generateActionCalldata",
      "outputs": [
        {
          "components": [
            {
              "internalType": "address",
              "name": "expectedInputToken",
              "type": "address"
            },
            {
              "internalType": "uint256",
              "name": "expectedInputAmount",
              "type": "uint256"
            },
            {
              "internalType": "address",
              "name": "expectedOutputToken",
              "type": "address"
            },
            {
              "internalType": "uint256",
              "name": "expectedOutputAmount",
              "type": "uint256"
            },
            {
              "internalType": "bool",
              "name": "isDeterministic",
              "type": "bool"
            }
          ],
          "internalType": "struct PreviewAction",
          "name": "",
          "type": "tuple"
        },
        {
          "internalType": "bytes",
          "name": "",
          "type": "bytes"
        }
      ],
      "stateMutability": "view",
      "type": "function"
    },
    {
      "inputs": [
        {
          "components": [
            {
              "internalType": "address",
              "name": "repoToken",
              "type": "address"
            },
            {
              "internalType": "bool",
              "name": "makerAssetIsPurchaseToken",
              "type": "bool"
            },
            {
              "internalType": "uint256",
              "name": "purchaseTokenAmount",
              "type": "uint256"
            },
            {
              "internalType": "uint256",
              "name": "discountRate",
              "type": "uint256"
            },
            {
              "internalType": "address",
              "name": "maker",
              "type": "address"
            },
            {
              "internalType": "address",
              "name": "taker",
              "type": "address"
            },
            {
              "internalType": "uint256",
              "name": "makerFee",
              "type": "uint256"
            },
            {
              "internalType": "uint256",
              "name": "takerFee",
              "type": "uint256"
            },
            {
              "internalType": "address",
              "name": "feeRecipient",
              "type": "address"
            },
            {
              "internalType": "uint256",
              "name": "expiry",
              "type": "uint256"
            },
            {
              "internalType": "uint256",
              "name": "salt",
              "type": "uint256"
            },
            {
              "components": [
                {
                  "internalType": "bytes4",
                  "name": "method",
                  "type": "bytes4"
                },
                {
                  "internalType": "address",
                  "name": "target",
                  "type": "address"
                },
                {
                  "internalType": "bytes",
                  "name": "additionalCalldata",
                  "type": "bytes"
                }
              ],
              "internalType": "struct ITermIntent.RetrieveFundsStruct",
              "name": "retrieveFunds",
              "type": "tuple"
            }
          ],
          "internalType": "struct ITermIntent.RepoTokenSwapOrder",
          "name": "order",
          "type": "tuple"
        }
      ],
      "name": "getSwapOrderHash",
      "outputs": [
        {
          "internalType": "bytes32",
          "name": "",
          "type": "bytes32"
        }
      ],
      "stateMutability": "view",
      "type": "function"
    },
    {
      "inputs": [
        {
          "internalType": "address",
          "name": "maker",
          "type": "address"
        },
        {
          "internalType": "contract IERC20",
          "name": "makerToken",
          "type": "address"
        },
        {
          "internalType": "contract IERC20",
          "name": "takerToken",
          "type": "address"
        }
      ],
      "name": "getSwapOrderMakerTokenPairMinSaltValue",
      "outputs": [
        {
          "internalType": "uint256",
          "name": "",
          "type": "uint256"
        }
      ],
      "stateMutability": "view",
      "type": "function"
    },
    {
      "inputs": [
        {
          "internalType": "bytes4",
          "name": "",
          "type": "bytes4"
        }
      ],
      "name": "previewMapping",
      "outputs": [
        {
          "internalType": "bytes4",
          "name": "",
          "type": "bytes4"
        }
      ],
      "stateMutability": "view",
      "type": "function"
    },
    {
      "inputs": [
        {
          "components": [
            {
              "internalType": "address",
              "name": "user",
              "type": "address"
            },
            {
              "internalType": "address",
              "name": "inputToken",
              "type": "address"
            },
            {
              "internalType": "uint256",
              "name": "maxInputAmount",
              "type": "uint256"
            },
            {
              "internalType": "address",
              "name": "outputToken",
              "type": "address"
            },
            {
              "internalType": "uint256",
              "name": "minOutputAmount",
              "type": "uint256"
            },
            {
              "internalType": "address",
              "name": "targetAddress",
              "type": "address"
            },
            {
              "internalType": "bytes",
              "name": "additionalCalldata",
              "type": "bytes"
            }
          ],
          "internalType": "struct ActionHookInput",
          "name": "actionHookInput",
          "type": "tuple"
        }
      ],
      "name": "previewSwapRepoToken",
      "outputs": [
        {
          "components": [
            {
              "internalType": "address",
              "name": "expectedInputToken",
              "type": "address"
            },
            {
              "internalType": "uint256",
              "name": "expectedInputAmount",
              "type": "uint256"
            },
            {
              "internalType": "address",
              "name": "expectedOutputToken",
              "type": "address"
            },
            {
              "internalType": "uint256",
              "name": "expectedOutputAmount",
              "type": "uint256"
            },
            {
              "internalType": "bool",
              "name": "isDeterministic",
              "type": "bool"
            }
          ],
          "internalType": "struct PreviewAction",
          "name": "",
          "type": "tuple"
        }
      ],
      "stateMutability": "view",
      "type": "function"
    },
    {
      "inputs": [
        {
          "internalType": "bytes32",
          "name": "orderHash",
          "type": "bytes32"
        }
      ],
      "name": "revokePreSignedSwapOrderHash",
      "outputs": [],
      "stateMutability": "nonpayable",
      "type": "function"
    },
    {
      "inputs": [
        {
          "internalType": "address",
          "name": "borrower",
          "type": "address"
        }
      ],
      "name": "setActiveFlashLoanBorrower",
      "outputs": [],
      "stateMutability": "nonpayable",
      "type": "function"
    },
    {
      "inputs": [
        {
          "internalType": "address",
          "name": "emitter",
          "type": "address"
        }
      ],
      "name": "setEmitter",
      "outputs": [],
      "stateMutability": "nonpayable",
      "type": "function"
    },
    {
      "inputs": [
        {
          "components": [
            {
              "internalType": "address",
              "name": "repoToken",
              "type": "address"
            },
            {
              "internalType": "bool",
              "name": "makerAssetIsPurchaseToken",
              "type": "bool"
            },
            {
              "internalType": "uint256",
              "name": "purchaseTokenAmount",
              "type": "uint256"
            },
            {
              "internalType": "uint256",
              "name": "discountRate",
              "type": "uint256"
            },
            {
              "internalType": "address",
              "name": "maker",
              "type": "address"
            },
            {
              "internalType": "address",
              "name": "taker",
              "type": "address"
            },
            {
              "internalType": "uint256",
              "name": "makerFee",
              "type": "uint256"
            },
            {
              "internalType": "uint256",
              "name": "takerFee",
              "type": "uint256"
            },
            {
              "internalType": "address",
              "name": "feeRecipient",
              "type": "address"
            },
            {
              "internalType": "uint256",
              "name": "expiry",
              "type": "uint256"
            },
            {
              "internalType": "uint256",
              "name": "salt",
              "type": "uint256"
            },
            {
              "components": [
                {
                  "internalType": "bytes4",
                  "name": "method",
                  "type": "bytes4"
                },
                {
                  "internalType": "address",
                  "name": "target",
                  "type": "address"
                },
                {
                  "internalType": "bytes",
                  "name": "additionalCalldata",
                  "type": "bytes"
                }
              ],
              "internalType": "struct ITermIntent.RetrieveFundsStruct",
              "name": "retrieveFunds",
              "type": "tuple"
            }
          ],
          "internalType": "struct ITermIntent.RepoTokenSwapOrder",
          "name": "order",
          "type": "tuple"
        }
      ],
      "name": "setPreSignedSwapHash",
      "outputs": [],
      "stateMutability": "nonpayable",
      "type": "function"
    },
    {
      "inputs": [
        {
          "internalType": "bytes32",
          "name": "orderHash",
          "type": "bytes32"
        },
        {
          "internalType": "address",
          "name": "signer",
          "type": "address"
        }
      ],
      "name": "setPreSignedSwapOrder",
      "outputs": [],
      "stateMutability": "nonpayable",
      "type": "function"
    },
    {
      "inputs": [
        {
          "internalType": "address",
          "name": "makerToken",
          "type": "address"
        },
        {
          "internalType": "address",
          "name": "takerToken",
          "type": "address"
        },
        {
          "internalType": "uint256",
          "name": "minValidSalt",
          "type": "uint256"
        }
      ],
      "name": "setSwapOrderMakerTokenPairMinSaltValue",
      "outputs": [],
      "stateMutability": "nonpayable",
      "type": "function"
    },
    {
      "inputs": [
        {
          "components": [
            {
              "internalType": "address",
              "name": "repoToken",
              "type": "address"
            },
            {
              "internalType": "bool",
              "name": "makerAssetIsPurchaseToken",
              "type": "bool"
            },
            {
              "internalType": "uint256",
              "name": "purchaseTokenAmount",
              "type": "uint256"
            },
            {
              "internalType": "uint256",
              "name": "discountRate",
              "type": "uint256"
            },
            {
              "internalType": "address",
              "name": "maker",
              "type": "address"
            },
            {
              "internalType": "address",
              "name": "taker",
              "type": "address"
            },
            {
              "internalType": "uint256",
              "name": "makerFee",
              "type": "uint256"
            },
            {
              "internalType": "uint256",
              "name": "takerFee",
              "type": "uint256"
            },
            {
              "internalType": "address",
              "name": "feeRecipient",
              "type": "address"
            },
            {
              "internalType": "uint256",
              "name": "expiry",
              "type": "uint256"
            },
            {
              "internalType": "uint256",
              "name": "salt",
              "type": "uint256"
            },
            {
              "components": [
                {
                  "internalType": "bytes4",
                  "name": "method",
                  "type": "bytes4"
                },
                {
                  "internalType": "address",
                  "name": "target",
                  "type": "address"
                },
                {
                  "internalType": "bytes",
                  "name": "additionalCalldata",
                  "type": "bytes"
                }
              ],
              "internalType": "struct ITermIntent.RetrieveFundsStruct",
              "name": "retrieveFunds",
              "type": "tuple"
            }
          ],
          "internalType": "struct ITermIntent.RepoTokenSwapOrder",
          "name": "order",
          "type": "tuple"
        },
        {
          "internalType": "uint256",
          "name": "fillAmount",
          "type": "uint256"
        },
        {
          "components": [
            {
              "internalType": "enum ITermIntent.SignatureType",
              "name": "sigType",
              "type": "uint8"
            },
            {
              "internalType": "bytes",
              "name": "sigData",
              "type": "bytes"
            }
          ],
          "internalType": "struct ITermIntent.Signature",
          "name": "signature",
          "type": "tuple"
        },
        {
          "internalType": "bool",
          "name": "usePermit2",
          "type": "bool"
        }
      ],
      "name": "swapRepoToken",
      "outputs": [],
      "stateMutability": "nonpayable",
      "type": "function"
    },
    {
      "inputs": [
        {
          "components": [
            {
              "internalType": "address",
              "name": "repoToken",
              "type": "address"
            },
            {
              "internalType": "bool",
              "name": "makerAssetIsPurchaseToken",
              "type": "bool"
            },
            {
              "internalType": "uint256",
              "name": "purchaseTokenAmount",
              "type": "uint256"
            },
            {
              "internalType": "uint256",
              "name": "discountRate",
              "type": "uint256"
            },
            {
              "internalType": "address",
              "name": "maker",
              "type": "address"
            },
            {
              "internalType": "address",
              "name": "taker",
              "type": "address"
            },
            {
              "internalType": "uint256",
              "name": "makerFee",
              "type": "uint256"
            },
            {
              "internalType": "uint256",
              "name": "takerFee",
              "type": "uint256"
            },
            {
              "internalType": "address",
              "name": "feeRecipient",
              "type": "address"
            },
            {
              "internalType": "uint256",
              "name": "expiry",
              "type": "uint256"
            },
            {
              "internalType": "uint256",
              "name": "salt",
              "type": "uint256"
            },
            {
              "components": [
                {
                  "internalType": "bytes4",
                  "name": "method",
                  "type": "bytes4"
                },
                {
                  "internalType": "address",
                  "name": "target",
                  "type": "address"
                },
                {
                  "internalType": "bytes",
                  "name": "additionalCalldata",
                  "type": "bytes"
                }
              ],
              "internalType": "struct ITermIntent.RetrieveFundsStruct",
              "name": "retrieveFunds",
              "type": "tuple"
            }
          ],
          "internalType": "struct ITermIntent.RepoTokenSwapOrder",
          "name": "order",
          "type": "tuple"
        },
        {
          "internalType": "address",
          "name": "taker",
          "type": "address"
        },
        {
          "internalType": "uint256",
          "name": "fillAmount",
          "type": "uint256"
        },
        {
          "components": [
            {
              "internalType": "enum ITermIntent.SignatureType",
              "name": "sigType",
              "type": "uint8"
            },
            {
              "internalType": "bytes",
              "name": "sigData",
              "type": "bytes"
            }
          ],
          "internalType": "struct ITermIntent.Signature",
          "name": "signature",
          "type": "tuple"
        }
      ],
      "name": "swapRepoToken",
      "outputs": [],
      "stateMutability": "nonpayable",
      "type": "function"
    },
    {
      "inputs": [
        {
          "components": [
            {
              "internalType": "address",
              "name": "user",
              "type": "address"
            },
            {
              "internalType": "address",
              "name": "inputToken",
              "type": "address"
            },
            {
              "internalType": "uint256",
              "name": "maxInputAmount",
              "type": "uint256"
            },
            {
              "internalType": "address",
              "name": "outputToken",
              "type": "address"
            },
            {
              "internalType": "uint256",
              "name": "minOutputAmount",
              "type": "uint256"
            },
            {
              "internalType": "address",
              "name": "targetAddress",
              "type": "address"
            },
            {
              "internalType": "bytes",
              "name": "additionalCalldata",
              "type": "bytes"
            }
          ],
          "internalType": "struct ActionHookInput",
          "name": "input",
          "type": "tuple"
        }
      ],
      "name": "swapRepoTokenHook",
      "outputs": [],
      "stateMutability": "nonpayable",
      "type": "function"
    },
    {
      "inputs": [],
      "name": "version",
      "outputs": [
        {
          "internalType": "string",
          "name": "",
          "type": "string"
        }
      ],
      "stateMutability": "view",
      "type": "function"
    }
  ],
  "bytecode": "0x6080806040523461005c576001600081815563b473743960e01b90526020527ff78bc1bf9ff69162f50d7428d185e6f567b67477dec76a77873d31917c2f6c6b805463ffffffff1916632181de071790556147a890816100628239f35b600080fdfe610160604052600436101561001357600080fd5b6000803560e01c80631081e33214612f975780632181de0714612de75780633f2b2aa914612da357806352cac7fa14612d1957806354fd4d5014612ccd57806359ff817014612c67578063634fc76314612c455780636e54eb8614612bf05780638989961614612a3e5780639ef72eff146128295780639f903ff6146127e5578063b473743914611a9c578063bf563bf014611022578063c3246edc14610fde578063cde1a4d214610fae578063d8313e1414610d88578063dda5e05b1461014c578063eb58755f1461011b5763ee3430fe146100ef57600080fd5b3461011857602061011061010b36610106366131ca565b6134bd565b613c42565b604051908152f35b80fd5b503461011857806003193601126101185760008051602061471383398151915280546001600160a01b031916905580f35b5034610118576080366003190112610118576004356001600160401b038111610d845761017d9036906004016134bd565b61018561327c565b6064356001600160401b038111610d80576101a4903690600401613594565b9130331480610d35575b15610cf7576101bb613893565b60443515610ce55760808101516001600160a01b03838116911614610cd3576101e3816138b6565b6101ec81613c42565b608082015190936001600160a01b03918216919061020a90866142a6565b1603610cc15782600052600080516020614753833981519152602052604060002060ff6040519161023a836132ee565b546001600160801b038116835260801c1661025481613701565b80602083015261026381613701565b61026c81613701565b151580610ca0575b610c8e5781516040516379502c5560e01b81526001600160a01b039091169390608081600481885afa90811561078757600090600092610c5a575b5060405163ef4474cd60e01b8152906020826004818a5afa91821561078757600092610c26575b50602086015115610bfa57608086015186516101408801516103089290916001600160a01b0390811691879116613b58565b60a08601516001600160a01b031680151580610be7575b610bc45750610332610160870151613ba1565b9160ff61034b60018060a01b036101008a01511661363c565b541615610bb257604087015186516103849291610374916001600160801b0316906044356140ae565b9260608901519160443591613ff0565b9261039d604088015160018060801b03885116906140a1565b8203610ba657600260208701525b6001600160801b038211610b865785516001600160801b0390811683821601908111610b70576001600160801b03908116875260008a815260008051602061475383398151915260209081526040909120885181546001600160801b031916931692909217825590960151879661042b919061042682613701565b61404d565b6000926000602088015115159081600014610b67575060015b949161081d575b506104bd929161054e88926105068c60405161046681613368565b8781528a8c60405161047781613368565b82815260208a0151156108125760e08a0151905b61049f670de0b6b3a764000092839261456e565b51049b8c9460208c015115156000146108075760c08c01519061456e565b51049b60208a0151151591826000146107f357805b83156107ed575060808b01516001600160a01b0316915b6101008c01516001600160a01b031693156107e5576000966143f1565b868560208601511515806000146107df5760808701516001600160a01b03165b81156107cb578c905b6101008901516001600160a01b031692156107c3576000955b886143f1565b602082015115801596906107bc57835b87156107b45750935b86156107ad57855b87156107a55750955b61010083015160808401516001600160a01b03918216999116821561079e5783925b15610798578c935b610140610120604060608901519801519d01519d01519d6040516080526105ca608051613383565b6080515260018060a01b0316602060805101526040608051015260018060a01b03166060608051015260018060a01b031660808051015260018060a01b031660a0608051015260c0608051015260e06080510152610100608051015261012060805101526101406080510152610160608051015261018060805101526101a060805101526101c0608051015260018060a01b03600080516020614733833981519152541690813b1561079357604080516377f20ec760e11b8152600481019290925260808051516001600160a01b0390811660248501528151602001518116604485015281519092015182166064840152805160600151821660848401528051810151821660a4840152805160a00151821660c4840152805160c0015160e4840152805160e0015161010484015280516101000151610124840152805161012001516101448401528051610140015161016484015280516101600151909116610184830152805161018001516101a483015280516101a001516101c4830152516101c001516101e482015290600090829061020490829084905af1801561078757610778575b506001815580f35b6107819061333a565b38610770565b6040513d6000823e3d90fd5b600080fd5b836105a2565b8c9261059a565b905095610578565b809561056f565b905093610567565b809361055e565b600095610548565b60808801516001600160a01b03169061052f565b8b610526565b6000966143f1565b916104e9565b60808b01516001600160a01b0316906104d2565b60e08c01519061456e565b60c08a01519061048b565b9196509291908015610b605786905b15610b595781905b61016089015160808a015181516040516366ffd66360e11b81526001600160e01b031990911660048201526001600160a01b0390911691602082602481305afa91821561078757600092610b13575b50600080916109229461090e63ffffffff60e01b83511692610900604060018060a01b0360208401511692015160405194859360208501976343b7c86160e11b89526024860152604485015260018060a01b038c16606485015260848401528b60a48401528660c484015260e060e48401526101048301906132c9565b03601f1981018352826133ba565b519082855af161091c614071565b91614332565b918251830192602081818601950312610793576020810151906001600160401b038211610793570183603f82011215610793576020810151610963816133dd565b9461097160405196876133ba565b81865260408284010111610793576109909160406020870191016132a6565b60808a01516109a7906001600160a01b0316613721565b6040516370a0823160e01b8152306004820152916020836024816001600160a01b0385165afa92831561078757600093610ade575b50602090610a0260008087856024989951910182305af16109fb614071565b9030614332565b506040516370a0823160e01b815230600482015293849182906001600160a01b03165afa91821561078757600092610aa8575b50610a409192613df1565b11610a96576000805160206146f383398151915280546001600160a01b031916905560208701518796879115610a86576104bd93945061054e60015b925050919261044b565b6104bd935061054e600195610a7c565b604051630d3f033d60e31b8152600490fd5b91506020823d602011610ad6575b81610ac3602093836133ba565b8101031261079357610a40915191610a35565b3d9150610ab6565b9092506020813d602011610b0b575b81610afa602093836133ba565b8101031261079357519160206109dc565b3d9150610aed565b9291506020833d602011610b51575b81610b2f602093836133ba565b810103126107935760008091610b47610922956135f1565b9394509150610883565b3d9150610b22565b8490610834565b889061082c565b60019550610444565b634e487b7160e01b600052601160045260246000fd5b6040516306dfcc6560e41b81526080600482015260248101839052604490fd5b600160208701526103ab565b604051630ed1b8b360e31b8152600490fd5b60405163bc8732c560e01b8152908190610be3908790600484016136e7565b0390fd5b506001600160a01b03851681141561031f565b60808601518651610140880151610c2192909186916001600160a01b039182169116613b58565b610308565b9091506020813d602011610c52575b81610c42602093836133ba565b81010312610793575190386102d6565b3d9150610c35565b9050610c7e915060803d608011610c87575b610c7681836133ba565b810190613605565b505090386102af565b503d610c6c565b604051632916ae3360e01b8152600490fd5b5060016020820151610cb181613701565b610cba81613701565b1415610274565b604051638baa579f60e01b8152600490fd5b60405163c3f49bcd60e01b8152600490fd5b60405163251a5d1160e21b8152600490fd5b60405162461bcd60e51b815260206004820152601660248201527510985d18da0818dbdb9d195e1d081c995c5d5a5c995960521b6044820152606490fd5b507f2a2e13707d6b40952f0aec05e2811137753b06b56d55208636050ec9ee68dd7b546001600160a01b039081168015159182610d74575b50506101ae565b84161490503880610d6d565b8380fd5b5080fd5b503461011857606036600319011261011857610da2613266565b610daa61327c565b6044803590610db7613893565b6001600160a01b03938416928315610f74578416928315610f3a57838114610ef5576000198314610ebd57610deb33613675565b816000526020526040600020846000526020528260406000205411610eab578594610e1533613675565b8260005260205260406000208560005260205283604060002055600080516020614733833981519152541690813b15610ea75785608492819560405197889687956314b40e0560e11b8752336004880152602487015285015260648401525af18015610e9c57610e88575b506001905580f35b610e919061333a565b610118578038610e80565b6040513d84823e3d90fd5b8580fd5b6040516354636abb60e11b8152600490fd5b60405163dd23c3ad60e01b815260206004820152601060248201526f125b9d985b1a5908135a5b8814d85b1d60821b81840152606490fd5b60405163dd23c3ad60e01b815260206004820152601f60248201527f4d616b657220616e642054616b657220546f6b656e204964656e746963616c0081840152606490fd5b60405163dd23c3ad60e01b8152602060048201526012602482015271139bc815185ad95c88151bdad95b8814d95d60721b81840152606490fd5b60405163dd23c3ad60e01b8152602060048201526012602482015271139bc813585ad95c88151bdad95b8814d95d60721b81840152606490fd5b503461011857602036600319011261011857610fd0610fcb613266565b6136ae565b805460ff1916600117905580f35b5034610118576020366003190112610118576001600160e01b03196004358181169081900361079357826040916020945260018452205460e01b9060405191168152f35b5034610118576080366003190112610118576004356001600160401b038111610d84576110539036906004016134bd565b6044356001600160401b038111611a9857611072903690600401613594565b60643515156064350361079357611087613893565b60243515610ce55760808201516001600160a01b03163314610cd3576110ac826138b6565b6110b582613c42565b608083015190916001600160a01b0391821691906110d390846142a6565b1603610cc1578060005260008051602061475383398151915260205260406000209160ff60405193611104856132ee565b546001600160801b038116855260801c1661111e81613701565b80602085015261112d81613701565b61113681613701565b151580611a77575b610c8e5780516040516379502c5560e01b8152936001600160a01b039091169190608085600481865afa94851561078757600090600096611a51575b5060405163ef4474cd60e01b8152602081600481885afa90811561078757600091611a1f575b506020840151156119f357608084015184516101408601516111d29290916001600160a01b03908116918b9116613b58565b60a08401516001600160a01b0316801515806119e9575b6119ca57506111fc610160850151613ba1565b9060ff61121560018060a01b036101008801511661363c565b541615610bb2576040850151845161124e929161123e916001600160801b0316906024356140ae565b9360608701519160243591613ff0565b92611267604086015160018060801b03835116906140a1565b83036119be57600260208201525b6001600160801b03831161199e5780516001600160801b039081168482160191908211610b70576001600160801b039182168152600088815260008051602061475383398151915260209081526040909120825181546001600160801b031916941693909317835501516112ec9161042682613701565b60008785846000602083015115159081600014611995575060005b9495611687575b509061140d929161137f956113ca8b60405161132981613368565b8481528b60405161133981613368565b81815260208801511561167c5760e0880151905b611361670de0b6b3a764000092839261456e565b51049b8c9360208a015115156000146116715760c08a01519061456e565b5104998760208c9901511515918260001461165d5733905b83156116565760808301516001600160a01b0316925b61010001516001600160a01b031693156107e557606435966143f1565b60208a015115801591906116505760808b01516001600160a01b03165b821561163c5733915b6101008d01516001600160a01b03169315611633576000966143f1565b6020850151158015949061162c57835b85156116245750915b841561161d57815b85156116155750915b61010086015160808701516001600160a01b039081169691169490801561160e578a905b1561160857885b60608901519160408a0151986101208b01519a61014001519b6040519e8f9161148a83613383565b8252600160a01b60019003166020820152604001528c339060600152600160a01b600190031660808d0152600160a01b600190031660a08c015260c08b015260e08a01526101008901526101208801526101408701526101608601526101808501526101a08401526101c0830152600160a01b60019003600080516020614733833981519152541691823b1561079357604080516377f20ec760e11b8152600481019390935281516001600160a01b03908116602485015260208301518116604485015290820151811660648401526060820151811660848401526080820151811660a484015260a0820151811660c484015260c082015160e484015260e0820151610104840152610100820151610124840152610120820151610144840152610140820151610164840152610160820151166101848301526101808101516101a48301526101a08101516101c48301526101c001516101e482015290600090829061020490829084905af180156107875761077857506001815580f35b8a611462565b889061145b565b905091611437565b809161142e565b905091611426565b809361141d565b606435966143f1565b60808c01516001600160a01b0316916113f0565b336113e7565b33926113ad565b60808201516001600160a01b031690611397565b60e08a01519061456e565b60c08801519061134d565b925050508060001461198e5788905b156119875783905b610160870151608088015181516040516366ffd66360e11b81526001600160e01b031990911660048201526001600160a01b0390911691602082602481305afa91821561078757600092611941575b506000809161176a9461090e63ffffffff60e01b83511692610900604060018060a01b0360208401511692015160405194859360208501976343b7c86160e11b89526024860152604485015260018060a01b038c16606485015260848401528b60a48401528660c484015260e060e48401526101048301906132c9565b918251830192602081818601950312610793576020810151906001600160401b038211610793570183603f820112156107935760208101516117ab816133dd565b946117b960405196876133ba565b81865260408284010111610793576117d89160406020870191016132a6565b60808801516117ef906001600160a01b0316613721565b6040516370a0823160e01b8152306004820152916020836024816001600160a01b0385165afa9283156107875760009361190c575b5060209061184360008087856024989951910182305af16109fb614071565b506040516370a0823160e01b815230600482015293849182906001600160a01b03165afa918215610787576000926118d6575b506118819192613df1565b11610a96576000805160206146f383398151915280546001600160a01b0319169055602085015161137f9290156118c6575061140d88868560015b955090919261130e565b905061140d8886856001946118bc565b91506020823d602011611904575b816118f1602093836133ba565b8101031261079357611881915191611876565b3d91506118e4565b9092506020813d602011611939575b81611928602093836133ba565b810103126107935751916020611824565b3d915061191b565b9291506020833d60201161197f575b8161195d602093836133ba565b81010312610793576000809161197561176a956135f1565b93945091506116ed565b3d9150611950565b849061169e565b8690611696565b60009550611307565b6040516306dfcc6560e41b81526080600482015260248101849052604490fd5b60016020820152611275565b60405163bc8732c560e01b8152908190610be3903390600484016136e7565b50803314156111e9565b60808401518451610140860151611a1a9290918a916001600160a01b039182169116613b58565b6111d2565b90506020813d602011611a49575b81611a3a602093836133ba565b810103126107935751386111a0565b3d9150611a2d565b9050611a6d91955060803d608011610c8757610c7681836133ba565b505094903861117a565b5060016020840151611a8881613701565b611a9181613701565b141561113e565b8280fd5b503461011857611aab366131fc565b60e052611ab960e0516135dd565b600080516020614713833981519152546001600160a01b031680151591826127d2575b50501561279757611aeb613893565b611af660e0516135dd565b61010052611b16611b0e60c060e0510160e05161377a565b8101906137ac565b60a09290925280516040516379502c5560e01b8152906001600160a01b0316608082600481845afa91821561278c5785908693612766575b5060405163ef4474cd60e01b815292602084600481865afa90811561275b578791612725575b611bac9450602086015115159388610120528460001461271b5750610120525b60c085015191606086015192608060e0510135613f78565b90611bb681613c42565b8452600080516020614753833981519152602052611c166040852060ff60405191611be0836132ee565b546001600160801b038116835260801c16611bfa81613701565b6020820152604083015190516001600160801b031690846140ae565b508115610ce5576080810151610100516001600160a01b03908116911614610cd357611c41816138b6565b611c4a81613c42565b608082015190936001600160a01b039182169190611c6890866142a6565b1603610cc15782600052600080516020614753833981519152602052604060002060ff60405191611c98836132ee565b546001600160801b038116835260801c16611cb281613701565b806020830152611cc181613701565b611cca81613701565b1515806126fa575b610c8e5781516040516379502c5560e01b81526001600160a01b039091169390608081600481885afa908115610787576000916000610140526126d5575b5060405163ef4474cd60e01b815291602083600481895afa928315610787576000936126a1575b506020850151156126725760808501518551610140808801519051611d6a9391926001600160a01b039081169216613b58565b60a08501516001600160a01b03168015158061265c575b61263a5750611d94610160860151613ba1565b9160ff611dad60018060a01b036101008901511661363c565b541615610bb25760408601518551611de09391611dd4916001600160801b031690836140ae565b94606088015192613ff0565b92611df9604086015160018060801b03835116906140a1565b830361262e57600260208201525b6001600160801b03831161199e5780516001600160801b039081168482160191908211610b70576001600160801b039182168152600088815260008051602061475383398151915260209081526040909120825181546001600160801b03191694169390931783550151611e7e9161042682613701565b600080602086015115159081600014612625575060015b9192612323575b50611fa5611f0a92611f5788604051611eb481613368565b87815288604051611ec481613368565b81815260208c0151156123185760e08c0151905b611eec670de0b6b3a764000092839261456e565b51049889938d6020810151151560001461230e5760c001519061456e565b5104968b6020810151151591826000146122fa5761010051905b83156122f05760808301516001600160a01b0316925b61010001516001600160a01b031693156107e55760a051966143f1565b828560208901511515806000146122e75760808a01516001600160a01b03165b81156122d35761010051905b6101008c01516001600160a01b031692156122ca576000955b610140516143f1565b602085015115801594906122c357835b85156122bb5750915b84156122b457815b85156122ac5750915b61010086015160808701516001600160a01b03908116969116949080156122a55761014051905b1561229c57885b60608901519160408a0151986101406101208c01519b01519b60405160c05261202760c051613383565b60c0515260018060a01b036101405116602060c0510152604060c051015260018060a01b036101005116606060c051015260018060a01b0316608060c051015260018060a01b031660a060c051015260c08051015260e060c051015261010060c051015261012060c051015261014060c051015261016060c051015261018060c05101526101a060c05101526101c060c051015260018060a01b03600080516020614733833981519152541690813b1561079357604080516377f20ec760e11b8152600481019290925260c08051516001600160a01b039081166024850152815160200151811660448501528151909201518216606484015280516060015182166084840152805160800151821660a4840152805160a00151821660c4840152805181015160e4840152805160e0015161010484015280516101000151610124840152805161012001516101448401528051610140015161016484015280516101600151909116610184830152805161018001516101a483015280516101a001516101c4830152516101c001516101e482015290600090829061020490829084905af180156107875761228d575b5060a0511561226457806121ee608060e0510135614124565b6e22d473030f116ddee9f6b43ac78ba3803b15612260576122338392918392604051948580948193631b63c28b60e11b83526101205190306101005160048601613869565b03925af18015610e9c5761224c575b50505b6001815580f35b6122559061333a565b610118578038612242565b5050fd5b60e051610100516101205161228892608001359130916001600160a01b03166140db565b612245565b6122969061333a565b386121d5565b61014051611ffd565b8890611ff6565b905091611fcf565b8091611fc6565b905091611fbe565b8093611fb5565b60a05195611f9c565b60808b01516001600160a01b031690611f83565b61010051611f77565b6101005192611f3a565b60808201516001600160a01b031690611f24565b60e001519061456e565b60c08c015190611ed8565b801561261e5761014051905b156126175783905b610160870151608088015181516040516366ffd66360e11b81526001600160e01b031990911660048201526001600160a01b0390911691602082602481305afa918215610787576000926125d1575b50600080916124039461090e63ffffffff60e01b83511692610900604060018060a01b0360208401511692015160405194859360208501976343b7c86160e11b89526024860152604485015260018060a01b038c16606485015260848401528b60a48401528660c484015260e060e48401526101048301906132c9565b918251830192602081818601950312610793576020810151906001600160401b038211610793570183603f82011215610793576020810151612444816133dd565b9461245260405196876133ba565b81865260408284010111610793576124719160406020870191016132a6565b6080880151612488906001600160a01b0316613721565b6040516370a0823160e01b8152306004820152916020836024816001600160a01b0385165afa9283156107875760009361259c575b506020906124dc60008087856024989951910182305af16109fb614071565b506040516370a0823160e01b815230600482015293849182906001600160a01b03165afa91821561078757600092612566575b5061251a9192613df1565b11610a96576000805160206146f383398151915280546001600160a01b03191690556020850151611f0a9290156125595750611fa560015b9250611e9c565b9050611fa5600191612552565b91506020823d602011612594575b81612581602093836133ba565b810103126107935761251a91519161250f565b3d9150612574565b9092506020813d6020116125c9575b816125b8602093836133ba565b8101031261079357519160206124bd565b3d91506125ab565b9291506020833d60201161260f575b816125ed602093836133ba565b810103126107935760008091612605612403956135f1565b9394509150612386565b3d91506125e0565b8490612337565b869061232f565b60019250611e95565b60016020820152611e07565b60405163bc8732c560e01b81526101005190918291610be391600484016136e7565b50610100516001600160a01b0316811415611d81565b6080850151855161014080880151905161269c93919290916001600160a01b039182169116613b58565b611d6a565b9092506020813d6020116126cd575b816126bd602093836133ba565b8101031261079357519138611d37565b3d91506126b0565b6126ee915060803d608011610c8757610c7681836133ba565b50506101405238611d10565b506001602082015161270b81613701565b61271481613701565b1415611cd2565b6101205250611b94565b90506020843d602011612753575b81612740602093836133ba565b8101031261079357611bac935190611b74565b3d9150612733565b6040513d89823e3d90fd5b905061278291925060803d608011610c8757610c7681836133ba565b5050919038611b4e565b6040513d87823e3d90fd5b60405162461bcd60e51b81526020600482015260136024820152722ab730baba3437b934bd32b21031b0b63632b960691b6044820152606490fd5b6001600160a01b03161490503880611adc565b5034610118576020366003190112610118576001600160a01b03612807613266565b166000805160206147338339815191529060018060a01b031982541617905580f35b50346101185761010036600319011261011857612844613266565b61284c61327c565b6001600160a01b039160643583811692908390036107935760a435946001600160e01b0319808716918288036107935760c435918783168093036107935760e4356001600160401b038111611a98576128a99036906004016133f8565b936128b261374f565b50825260209560018752604083205460e01b91821615612a2c57826129479281926129269a8c80604051936128e68561334d565b169a8b8452168b8301526044356040830152606082015260843560808201528660a08201528760c08201526040519a8b918b8301938452602483016137f9565b039961293a601f199b8c81018352826133ba565b5190305afa6109fb614071565b9060a0828051810103126101185750612a0b93612a289693612a179996936129ff936040519a6129768c61331f565b8b6129828884016135f1565b80825282604085015191828b85015261299d606087016135f1565b9384604082015260806129bc60a0828a0151998a60608601520161385c565b910152604051986129cc8a61334d565b895216898801526040870152166060850152608084015260a083015260c0820152604051958693840152602483016137f9565b039081018352826133ba565b6040519384809461322d565b60c060a084015260c08301906132c9565b0390f35b604051631416e68f60e01b8152600490fd5b50346101185760031990604036830112610118576001600160401b039160043590838211611a9857610180818336030112611a9857602435938411611a98576040908436030112610d8457612a91613893565b612abb612ab06084612aa961010b36866004016134bd565b93016135dd565b933690600401613594565b8183526000805160206147538339815191529081602052604084206002602060ff60405193612ae9856132ee565b5460018060801b038116855260801c16920191612b0581613701565b808352612b1181613701565b612b1a81613701565b14908115612bd2575b50610c8e57612b3290836142a6565b6001600160a01b039190858316908316819003610cc1573303612bb65782845260205260408320805460ff60801b1916600360801b17905560008051602061473383398151915254929350839216803b156122605760248392604051948593849263c6a0df7b60e01b845260048401525af18015610e9c5761077857506001815580f35b60405163708986dd60e11b815280610be33388600484016136e7565b6003915051612be081613701565b612be981613701565b1438612b23565b503461011857604036600319011261011857612c0a61327c565b60043582526000805160206146d38339815191526020526040822080546001600160a01b0319166001600160a01b0390921691909117905580f35b503461011857602036600319011261011857610fd0612c62613266565b61363c565b503461011857606036600319011261011857612c81613266565b612c8961327c565b6001600160a01b036044358181169390849003612cc9579160409391612cb160209694613675565b91168352845282822090825283522054604051908152f35b8480fd5b5034610118578060031936011261011857612a28604051612ced816132ee565b600b81526a19195d995b1bdc1b595b9d60aa1b60208201526040519182916020835260208301906132c9565b503461011857602036600319011261011857600435612d36613893565b8082526000805160206146d3833981519152602081905260408320549091906001600160a01b0316338103612d84575082526020526040812080546001600160a01b03191690556001815580f35b60405163708986dd60e11b8152908190610be3903390600484016136e7565b5034610118576020366003190112610118576001600160a01b03612dc5613266565b166000805160206147138339815191529060018060a01b031982541617905580f35b503461011857612df6366131fc565b612dfe61374f565b50612e0f611b0e60c083018361377a565b5080516040516379502c5560e01b81529250608091906001600160a01b039083908590600490829085165afa938415612f8c5786908795612f68575b50818351169260405197889463ef4474cd60e01b865285600460209788935afa988915612f5b578199612f28575b50508084015115612f025782918183612eab935116996060612ea260c08401518a8d0135613efb565b92015192613ff0565b945b16951693858514612ef05760a095600194849360405197612ecd8961331f565b8852870152604086015201356060840152820152612eee604051809261322d565bf35b604051635542f09960e01b8152600490fd5b94612f20839283929960c08901519160608a015192898c0135613dfe565b955116612ead565b9098508481813d8311612f54575b612f4081836133ba565b81010312612f5057519738612e79565b8880fd5b503d612f36565b50604051903d90823e3d90fd5b9050612f82919450833d8511610c8757610c7681836133ba565b5050939038612e4b565b6040513d88823e3d90fd5b503461011857612fa6366131ca565b612fae613893565b6001600160a01b039081612fc1826135dd565b169060405180926379502c5560e01b825281600460809586935afa90811561278c5785916131a9575b50612ffd612ff836846134bd565b6138b6565b60208201358015158103610ea7571561317f576130369061301f8484016135dd565b90613029846135dd565b9061014085013592613b58565b610160810135605e1982360301811215612cc95761305a61305f913690840161344c565b613ba1565b5060ff613072612c6261010084016135dd565b541615610bb257818101613085816135dd565b8433911603613158575061010b61309d9136906134bd565b908184526000805160206146d38339815191529283602052604085205416806131405750602090828552600080516020614753833981519152825260ff6040862091604051926130ec846132ee565b546001600160801b0381168452901c1691829161310883613701565b015261311381613701565b61311c81613701565b610c8e5782526020526040812080546001600160a01b031916331790556001815580f35b60249060405190637202ca3760e01b82526004820152fd5b613164610be3916135dd565b60405163708986dd60e11b81529182913390600484016136e7565b6131a49061318e8484016135dd565b90613198846135dd565b61014085013592613b58565b613036565b6131c09150833d8511610c8757610c7681836133ba565b5050905038612fea565b6003199060208183011261079357600435916001600160401b0383116107935782610180920301126107935760040190565b6003199060208183011261079357600435916001600160401b038311610793578260e0920301126107935760040190565b6080809160018060a01b038082511685526020820151602086015260408201511660408501526060810151606085015201511515910152565b600435906001600160a01b038216820361079357565b602435906001600160a01b038216820361079357565b35906001600160a01b038216820361079357565b60005b8381106132b95750506000910152565b81810151838201526020016132a9565b906020916132e2815180928185528580860191016132a6565b601f01601f1916010190565b604081019081106001600160401b0382111761330957604052565b634e487b7160e01b600052604160045260246000fd5b60a081019081106001600160401b0382111761330957604052565b6001600160401b03811161330957604052565b60e081019081106001600160401b0382111761330957604052565b602081019081106001600160401b0382111761330957604052565b6101e081019081106001600160401b0382111761330957604052565b608081019081106001600160401b0382111761330957604052565b601f909101601f19168101906001600160401b0382119082101761330957604052565b6001600160401b03811161330957601f01601f191660200190565b81601f820112156107935780359061340f826133dd565b9261341d60405194856133ba565b8284526020838301011161079357816000926020809301838601378301015290565b3590811515820361079357565b91909160608184031261079357604051906001600160401b03906060830182811184821017613309576040528294813563ffffffff60e01b8116810361079357845261349a60208301613292565b60208501526040820135928311610793576040926134b892016133f8565b910152565b91909161018090818185031261079357604051916001600160401b0391908301828111848210176133095760405282946134f682613292565b84526135046020830161343f565b6020850152604082013560408501526060820135606085015261352960808301613292565b608085015261353a60a08301613292565b60a085015260c082013560c085015260e082013560e0850152610100613561818401613292565b90850152610120808301359085015261014080830135908501526101609283830135908111610793576134b8920161344c565b919060408382031261079357604051906135ad826132ee565b8193803560028110156107935783526020810135916001600160401b038311610793576020926134b892016133f8565b356001600160a01b03811681036107935790565b51906001600160a01b038216820361079357565b919082608091031261079357815191613620602082016135f1565b916136396060613632604085016135f1565b93016135f1565b90565b6001600160a01b031660009081527f2a2e13707d6b40952f0aec05e2811137753b06b56d55208636050ec9ee68dd7f6020526040902090565b6001600160a01b031660009081527f2a2e13707d6b40952f0aec05e2811137753b06b56d55208636050ec9ee68dd866020526040902090565b6001600160a01b031660009081527f2a2e13707d6b40952f0aec05e2811137753b06b56d55208636050ec9ee68dd7d6020526040902090565b6001600160a01b0391821681529116602082015260400190565b6004111561370b57565b634e487b7160e01b600052602160045260246000fd5b6000805160206146f383398151915280546001600160a01b0319166001600160a01b03909216919091179055565b6040519061375c8261331f565b60006080838281528260208201528260408201528260608201520152565b903590601e198136030182121561079357018035906001600160401b0382116107935760200191813603831361079357565b91606083830312610793576137c08361343f565b926001600160401b0392602082013584811161079357816137e29184016134bd565b936040830135908111610793576136399201613594565b61010060c0613639936020845260018060a01b0380825116602086015280602083015116604086015260408201516060860152806060830151166080860152608082015160a086015260a0820151168285015201519160e08082015201906132c9565b5190811515820361079357565b6001600160a01b039182168152918116602083015291821660408201529116606082015260800190565b6002600054146138a4576002600055565b604051633ee5aeb560e01b8152600490fd5b8051604080516379502c5560e01b815260049391926001600160a01b0391908216906080818781855afa908115613aa357908391600091613b35575b5016908451926325c3ed4760e01b845260209384818981875afa908115613ae457600091613aff575b501660ff613928826136ae565b541615613aef57855163e7e4b8db60e01b81528781018390528481602481855afa908115613ae457908591600091613aae575b50159283613a39575b505050613a2957818591855192838092633d0f31f760e01b82525afa918215613a1e576000926139f0575b505042116139e25781810151156139d45742610120820151106139c65760600151156139b9575050565b516314bba91760e11b8152fd5b50516362b439dd60e11b8152fd5b505163189207bf60e21b8152fd5b50516304ff30ef60e21b8152fd5b90809250813d8311613a17575b613a0781836133ba565b810103126107935751388061398f565b503d6139fd565b84513d6000823e3d90fd5b50505051633e69d7d560e21b8152fd5b9091925060248751809481936319afa63b60e11b83528b8301525afa908115613aa357600091613a6e575b5015388381613964565b90508281813d8311613a9c575b613a8581836133ba565b8101031261079357613a969061385c565b38613a64565b503d613a7b565b85513d6000823e3d90fd5b82819392503d8311613add575b613ac581836133ba565b8101031261079357613ad7859161385c565b3861395b565b503d613abb565b87513d6000823e3d90fd5b8551638ebd687760e01b81528790fd5b8581813d8311613b2e575b613b1481836133ba565b81010312610d84575190828216820361011857503861391b565b503d613b0a565b613b4e915060803d608011610c8757610c7681836133ba565b50915050386138f2565b613b6190613675565b60018060a01b03809216600052602052604060002091166000526020526040600020541015613b8c57565b6040516001622a81af60e21b03198152600490fd5b516001600160e01b03191680613bb75750600090565b604051906366ffd66360e11b82526004820152602081602481305afa90811561078757600091613c08575b506001600160a01b031615613bf657600190565b6040516303e9fdc160e61b8152600490fd5b90506020813d602011613c3a575b81613c23602093836133ba565b8101031261079357613c34906135f1565b38613be2565b3d9150613c16565b60209060018060a01b0390818151169183820151151560408301516060840151836080860151168460a0870151169060c08701519260e088015194876101008a015116966101208a0151986101606101408c01519b0151604063ffffffff60e01b825116928f830151169101518e8151910120604051918f8301937f256d2844f30b75f89e6ec9418f35732e254268f054ce2b9f508642c924b76a8a855260408401526060830152608082015260808152613cfc8161331f565b5190209a7fcd57a296f280259286f502de3a6bab28e6b10627b6c0a7ab90bc3c6f6b8af8076040519d8e015260408d015260608c015260808b015260a08a015260c089015260e08801526101008701526101208601526101408501526101608401526101808301526101a0908183015281526101c0810181811060018060401b038211176133095780604052815160208301206102027f2a2e13707d6b40952f0aec05e2811137753b06b56d55208636050ec9ee68dd7c54936101e081019461190160f01b86526101e2820152015260428152613dd88161339f565b51902090565b81810292918115918404141715610b7057565b91908201809211610b7057565b92919390670de0b6b3a76400009283821015613ee9578415613ede578115928380613ed6575b15613e33575050505050905090565b613e41919395929496614157565b908581029081048603610b7057613e7e92613e799160405190613e6382613368565b815260405191613e7283613368565b82526141ed565b614221565b9115613e955750510460018101809111610b705790565b90613ec0613ec692604051613ea981613368565b85815260405191613eb983613368565b825261427c565b90614221565b510460018101809111610b705790565b506000613e24565b505050505050600090565b6040516358d620b360e01b8152600490fd5b90670de0b6b3a764000080821015613ee9578215613f7057811580613f68575b15613f2557505090565b613f599291613ec09160405193613f3b85613368565b845260405190613f4a82613368565b815260405191613eb983613368565b5160018101809111610b705790565b506001613f1b565b505050600090565b93949194929092670de0b6b3a76400009586851015613ee9578515613fe4578415938480613fdd575b15613fb157505050505050905090565b15613fcf5750505050613ec090613f599360405193613f3b85613368565b90613e419195929395614157565b5080613fa1565b50505050505050600090565b92613ffc919293614157565b90670de0b6b3a76400009283810290808204851490151715610b705761404892614034916040519061402d82613368565b81526141ed565b6040519161404183613368565b8252614221565b510490565b9061405781613701565b815460ff60801b191660809190911b60ff60801b16179055565b3d1561409c573d90614082826133dd565b9161409060405193846133ba565b82523d6000602084013e565b606090565b91908203918211610b7057565b916140b8916140a1565b8181106140c3575090565b602490604051906338f6247760e11b82526004820152fd5b6040516323b872dd60e01b60208201526001600160a01b0392831660248201529290911660448301526064808301939093529181526141229161411d8261331f565b614395565b565b6001600160a01b0390818111614138571690565b604490604051906306dfcc6560e41b825260a060048301526024820152fd5b906141736040926000845161416b81613368565b5242906140a1565b670de0b6b3a76400009081810290808204831490151715610b70576141dc926141c4918551936141a285613368565b84526301da9c008651916141b583613368565b048152855191613e7283613368565b90600084516141d281613368565b5251905190613df1565b9051906141e882613368565b815290565b670de0b6b3a76400009161421391600060405161420981613368565b5251905190613dde565b04604051906141e882613368565b600060405161422f81613368565b525190670de0b6b3a764000091828102928184041490151715610b7057518015614266576040519161426083613368565b04815290565b634e487b7160e01b600052601260045260246000fd5b9061429991600060405161428f81613368565b52519051906140a1565b604051906141e882613368565b908051600281101561370b576142f95760200151906060828051810103126107935760208201519060ff8216820361079357826142f09260606040613639960151920151926145c1565b90929192614647565b51600281101561370b57600103610cc15760009081526000805160206146d383398151915260205260409020546001600160a01b031690565b90614359575080511561434757805190602001fd5b60405163d6bda27560e01b8152600490fd5b8151158061438c575b61436a575090565b604051639996b31560e01b81526001600160a01b039091166004820152602490fd5b50803b15614362565b906000602091828151910182855af115610787576000513d6143e857506001600160a01b0381163b155b6143c65750565b604051635274afe760e01b81526001600160a01b039091166004820152602490fd5b600114156143bf565b92939496906000146144335750506001600160a01b03169361442091906144199085906140a1565b9085614588565b8161442a57505050565b61412292614588565b95909194929560001461452f5761444d83614452926140a1565b614124565b946e22d473030f116ddee9f6b43ac78ba392833b1561079357604051631b63c28b60e11b92838252818061448f8a60009c8d958a60048601613869565b038183895af1801561452457614511575b50806144b0575b50505050505050565b6144b990614124565b94833b1561450d5786949392916144e0869260405198899788968795865260048601613869565b03925af18015610e9c576144f9575b80808080806144a7565b614503829161333a565b61011857806144ef565b8680fd5b61451d9097919761333a565b95386144a0565b6040513d8a823e3d90fd5b946145488361455093949660018060a01b0316976140a1565b9083876140db565b8261455c575b50505050565b614565936140db565b38808080614556565b9061429991600060405161458181613368565b5251613dde565b60405163a9059cbb60e01b60208201526001600160a01b0390921660248301526044808301939093529181526141229161411d8261339f565b91906fa2a8918ca85bafe22016d0b997e4df60600160ff1b03841161463b57926020929160ff608095604051948552168484015260408301526060820152600092839182805260015afa1561462f5780516001600160a01b0381161561462657918190565b50809160019190565b604051903d90823e3d90fd5b50505060009160039190565b61465081613701565b80614659575050565b61466281613701565b6001810361467c5760405163f645eedf60e01b8152600490fd5b61468581613701565b600281036146a65760405163fce698f760e01b815260048101839052602490fd5b806146b2600392613701565b146146ba5750565b602490604051906335e2f38360e21b82526004820152fdfe2a2e13707d6b40952f0aec05e2811137753b06b56d55208636050ec9ee68dd842a2e13707d6b40952f0aec05e2811137753b06b56d55208636050ec9ee68dd79c9e4fb8bffaf71b56abf2a5032f2ea641e97267f8c0d9bcf66c86998c650d62a2a2e13707d6b40952f0aec05e2811137753b06b56d55208636050ec9ee68dd802a2e13707d6b40952f0aec05e2811137753b06b56d55208636050ec9ee68dd83a2646970667358221220da31bfd7b127688612f98ef73d32d0e1a279e28b73fc8121d925d56bbb751b3464736f6c63430008160033",
  "linkReferences": {},
  "deployedLinkReferences": {}
}