{
  "_format": "hh-sol-artifact-1",
  "contractName": "TestETHRejecter",
  "sourceName": "contracts/test/TestETHRejecter.sol",
  "abi": [
    {
      "inputs": [
        {
          "internalType": "address",
          "name": "facet",
          "type": "address"
        },
        {
          "internalType": "uint256",
          "name": "amount",
          "type": "uint256"
        },
        {
          "internalType": "address",
          "name": "wrappedTokenAddr",
          "type": "address"
        },
        {
          "internalType": "bool",
          "name": "usePermit2",
          "type": "bool"
        }
      ],
      "name": "callUnwrapETH",
      "outputs": [],
      "stateMutability": "nonpayable",
      "type": "function"
    }
  ],
  "bytecode": "0x60808060405234610016576101c1908161001c8239f35b600080fdfe60806040908082526004918236101561001757600080fd5b600092833560e01c63544079a31461002e57600080fd5b3461010c57608036600319011261010c57836001600160a01b038235818116908190036101875760243560443592831680930361010c576064359687151580980361015f5763095ea7b360e01b8152828682015281602482015260208160448188885af1801561017d57610110575b50813b1561010c578360649287519889958694631332d50960e31b865289860152602485015260448401525af18015610102576100d8578380f35b6001600160401b0383116100ef5750523880808380f35b634e487b7160e01b845260419052602483fd5b82513d86823e3d90fd5b8380fd5b909192935060203d602011610176575b601f8101601f191682016001600160401b0381118382101761016357828a96959493926020928a528101031261015f57518015150361010c573861009d565b8480fd5b634e487b7160e01b8a526041875260248afd5b503d610120565b87513d87823e3d90fd5b8280fdfea2646970667358221220dfb0f39f84726e525ac9b37264213749fa27869bf337618bd4acb74d4a3e39c364736f6c63430008160033",
  "linkReferences": {},
  "deployedLinkReferences": {}
}