{
  "_format": "hh-sol-artifact-1",
  "contractName": "TestTermRepoLocker",
  "sourceName": "contracts/test/TestTermRepoLocker.sol",
  "abi": [
    {
      "inputs": [],
      "name": "AccessControlBadConfirmation",
      "type": "error"
    },
    {
      "inputs": [
        {
          "internalType": "address",
          "name": "account",
          "type": "address"
        },
        {
          "internalType": "bytes32",
          "name": "neededRole",
          "type": "bytes32"
        }
      ],
      "name": "AccessControlUnauthorizedAccount",
      "type": "error"
    },
    {
      "inputs": [
        {
          "internalType": "address",
          "name": "target",
          "type": "address"
        }
      ],
      "name": "AddressEmptyCode",
      "type": "error"
    },
    {
      "inputs": [],
      "name": "AlreadyTermContractPaired",
      "type": "error"
    },
    {
      "inputs": [
        {
          "internalType": "address",
          "name": "implementation",
          "type": "address"
        }
      ],
      "name": "ERC1967InvalidImplementation",
      "type": "error"
    },
    {
      "inputs": [],
      "name": "ERC1967NonPayable",
      "type": "error"
    },
    {
      "inputs": [],
      "name": "ERC20TransferFailed",
      "type": "error"
    },
    {
      "inputs": [],
      "name": "FailedCall",
      "type": "error"
    },
    {
      "inputs": [],
      "name": "InvalidInitialization",
      "type": "error"
    },
    {
      "inputs": [],
      "name": "NotInitializing",
      "type": "error"
    },
    {
      "inputs": [
        {
          "internalType": "address",
          "name": "token",
          "type": "address"
        }
      ],
      "name": "SafeERC20FailedOperation",
      "type": "error"
    },
    {
      "inputs": [],
      "name": "TermContractsPaused",
      "type": "error"
    },
    {
      "inputs": [],
      "name": "TermRepoLockerTransfersPaused",
      "type": "error"
    },
    {
      "inputs": [],
      "name": "UUPSUnauthorizedCallContext",
      "type": "error"
    },
    {
      "inputs": [
        {
          "internalType": "bytes32",
          "name": "slot",
          "type": "bytes32"
        }
      ],
      "name": "UUPSUnsupportedProxiableUUID",
      "type": "error"
    },
    {
      "anonymous": false,
      "inputs": [
        {
          "indexed": false,
          "internalType": "uint64",
          "name": "version",
          "type": "uint64"
        }
      ],
      "name": "Initialized",
      "type": "event"
    },
    {
      "anonymous": false,
      "inputs": [
        {
          "indexed": true,
          "internalType": "bytes32",
          "name": "role",
          "type": "bytes32"
        },
        {
          "indexed": true,
          "internalType": "bytes32",
          "name": "previousAdminRole",
          "type": "bytes32"
        },
        {
          "indexed": true,
          "internalType": "bytes32",
          "name": "newAdminRole",
          "type": "bytes32"
        }
      ],
      "name": "RoleAdminChanged",
      "type": "event"
    },
    {
      "anonymous": false,
      "inputs": [
        {
          "indexed": true,
          "internalType": "bytes32",
          "name": "role",
          "type": "bytes32"
        },
        {
          "indexed": true,
          "internalType": "address",
          "name": "account",
          "type": "address"
        },
        {
          "indexed": true,
          "internalType": "address",
          "name": "sender",
          "type": "address"
        }
      ],
      "name": "RoleGranted",
      "type": "event"
    },
    {
      "anonymous": false,
      "inputs": [
        {
          "indexed": true,
          "internalType": "bytes32",
          "name": "role",
          "type": "bytes32"
        },
        {
          "indexed": true,
          "internalType": "address",
          "name": "account",
          "type": "address"
        },
        {
          "indexed": true,
          "internalType": "address",
          "name": "sender",
          "type": "address"
        }
      ],
      "name": "RoleRevoked",
      "type": "event"
    },
    {
      "anonymous": false,
      "inputs": [
        {
          "indexed": true,
          "internalType": "address",
          "name": "implementation",
          "type": "address"
        }
      ],
      "name": "Upgraded",
      "type": "event"
    },
    {
      "inputs": [],
      "name": "ADMIN_ROLE",
      "outputs": [
        {
          "internalType": "bytes32",
          "name": "",
          "type": "bytes32"
        }
      ],
      "stateMutability": "view",
      "type": "function"
    },
    {
      "inputs": [],
      "name": "DEFAULT_ADMIN_ROLE",
      "outputs": [
        {
          "internalType": "bytes32",
          "name": "",
          "type": "bytes32"
        }
      ],
      "stateMutability": "view",
      "type": "function"
    },
    {
      "inputs": [],
      "name": "DEVOPS_ROLE",
      "outputs": [
        {
          "internalType": "bytes32",
          "name": "",
          "type": "bytes32"
        }
      ],
      "stateMutability": "view",
      "type": "function"
    },
    {
      "inputs": [],
      "name": "INITIALIZER_ROLE",
      "outputs": [
        {
          "internalType": "bytes32",
          "name": "",
          "type": "bytes32"
        }
      ],
      "stateMutability": "view",
      "type": "function"
    },
    {
      "inputs": [],
      "name": "SERVICER_ROLE",
      "outputs": [
        {
          "internalType": "bytes32",
          "name": "",
          "type": "bytes32"
        }
      ],
      "stateMutability": "view",
      "type": "function"
    },
    {
      "inputs": [],
      "name": "UPGRADE_INTERFACE_VERSION",
      "outputs": [
        {
          "internalType": "string",
          "name": "",
          "type": "string"
        }
      ],
      "stateMutability": "view",
      "type": "function"
    },
    {
      "inputs": [
        {
          "internalType": "bytes32",
          "name": "role",
          "type": "bytes32"
        }
      ],
      "name": "getRoleAdmin",
      "outputs": [
        {
          "internalType": "bytes32",
          "name": "",
          "type": "bytes32"
        }
      ],
      "stateMutability": "view",
      "type": "function"
    },
    {
      "inputs": [
        {
          "internalType": "bytes32",
          "name": "role",
          "type": "bytes32"
        },
        {
          "internalType": "address",
          "name": "account",
          "type": "address"
        }
      ],
      "name": "grantRole",
      "outputs": [],
      "stateMutability": "nonpayable",
      "type": "function"
    },
    {
      "inputs": [
        {
          "internalType": "bytes32",
          "name": "role",
          "type": "bytes32"
        },
        {
          "internalType": "address",
          "name": "account",
          "type": "address"
        }
      ],
      "name": "hasRole",
      "outputs": [
        {
          "internalType": "bool",
          "name": "",
          "type": "bool"
        }
      ],
      "stateMutability": "view",
      "type": "function"
    },
    {
      "inputs": [
        {
          "internalType": "string",
          "name": "termRepoId_",
          "type": "string"
        },
        {
          "internalType": "address",
          "name": "termInitializer_",
          "type": "address"
        }
      ],
      "name": "initialize",
      "outputs": [],
      "stateMutability": "nonpayable",
      "type": "function"
    },
    {
      "inputs": [
        {
          "internalType": "address",
          "name": "termRepoCollateralManager_",
          "type": "address"
        },
        {
          "internalType": "address",
          "name": "termRepoServicer_",
          "type": "address"
        },
        {
          "internalType": "contract ITermEventEmitter",
          "name": "emitter_",
          "type": "address"
        },
        {
          "internalType": "address",
          "name": "devopsMultisig_",
          "type": "address"
        },
        {
          "internalType": "address",
          "name": "adminWallet_",
          "type": "address"
        }
      ],
      "name": "pairTermContracts",
      "outputs": [],
      "stateMutability": "nonpayable",
      "type": "function"
    },
    {
      "inputs": [],
      "name": "pauseTransfers",
      "outputs": [],
      "stateMutability": "nonpayable",
      "type": "function"
    },
    {
      "inputs": [],
      "name": "proxiableUUID",
      "outputs": [
        {
          "internalType": "bytes32",
          "name": "",
          "type": "bytes32"
        }
      ],
      "stateMutability": "view",
      "type": "function"
    },
    {
      "inputs": [
        {
          "internalType": "bytes32",
          "name": "role",
          "type": "bytes32"
        },
        {
          "internalType": "address",
          "name": "callerConfirmation",
          "type": "address"
        }
      ],
      "name": "renounceRole",
      "outputs": [],
      "stateMutability": "nonpayable",
      "type": "function"
    },
    {
      "inputs": [
        {
          "internalType": "bytes32",
          "name": "role",
          "type": "bytes32"
        },
        {
          "internalType": "address",
          "name": "account",
          "type": "address"
        }
      ],
      "name": "revokeRole",
      "outputs": [],
      "stateMutability": "nonpayable",
      "type": "function"
    },
    {
      "inputs": [
        {
          "internalType": "bytes4",
          "name": "interfaceId",
          "type": "bytes4"
        }
      ],
      "name": "supportsInterface",
      "outputs": [
        {
          "internalType": "bool",
          "name": "",
          "type": "bool"
        }
      ],
      "stateMutability": "view",
      "type": "function"
    },
    {
      "inputs": [],
      "name": "termRepoId",
      "outputs": [
        {
          "internalType": "bytes32",
          "name": "",
          "type": "bytes32"
        }
      ],
      "stateMutability": "view",
      "type": "function"
    },
    {
      "inputs": [
        {
          "internalType": "address",
          "name": "originWallet",
          "type": "address"
        },
        {
          "internalType": "address",
          "name": "token",
          "type": "address"
        },
        {
          "internalType": "uint256",
          "name": "amount",
          "type": "uint256"
        }
      ],
      "name": "transferTokenFromWallet",
      "outputs": [],
      "stateMutability": "nonpayable",
      "type": "function"
    },
    {
      "inputs": [
        {
          "internalType": "address",
          "name": "destinationWallet",
          "type": "address"
        },
        {
          "internalType": "address",
          "name": "token",
          "type": "address"
        },
        {
          "internalType": "uint256",
          "name": "amount",
          "type": "uint256"
        }
      ],
      "name": "transferTokenToWallet",
      "outputs": [],
      "stateMutability": "nonpayable",
      "type": "function"
    },
    {
      "inputs": [],
      "name": "transfersPaused",
      "outputs": [
        {
          "internalType": "bool",
          "name": "",
          "type": "bool"
        }
      ],
      "stateMutability": "view",
      "type": "function"
    },
    {
      "inputs": [],
      "name": "unpauseTransfers",
      "outputs": [],
      "stateMutability": "nonpayable",
      "type": "function"
    },
    {
      "inputs": [
        {
          "internalType": "address",
          "name": "upgradeAddress",
          "type": "address"
        }
      ],
      "name": "upgrade",
      "outputs": [],
      "stateMutability": "nonpayable",
      "type": "function"
    },
    {
      "inputs": [
        {
          "internalType": "address",
          "name": "newImplementation",
          "type": "address"
        },
        {
          "internalType": "bytes",
          "name": "data",
          "type": "bytes"
        }
      ],
      "name": "upgradeToAndCall",
      "outputs": [],
      "stateMutability": "payable",
      "type": "function"
    },
    {
      "inputs": [],
      "name": "version",
      "outputs": [
        {
          "internalType": "string",
          "name": "",
          "type": "string"
        }
      ],
      "stateMutability": "view",
      "type": "function"
    }
  ],
  "bytecode": "0x60a080604052346100cc57306080527ff0c57e16840df040f15088dc2f81fe391c3923bec73e23a9662efc9c229c6a009081549060ff8260401c166100bd57506001600160401b036002600160401b031982821601610078575b60405161166190816100d2823960805181818161065a01526107280152f35b6001600160401b031990911681179091556040519081527fc7f505b2f371ae2175ee4913f4499e1f2633a7b5936321eed1cdaeb6115181d290602090a1388080610059565b63f92ee8a960e01b8152600490fd5b600080fdfe608060408181526004908136101561001657600080fd5b600092833560e01c90816301ffc9a714610df9575080630900f01014610d7b57806309a0160814610d52578063127ca94414610c40578063201a662514610c17578063213919f214610aaa578063248a9ca314610a7257806327df3d3e14610a495780632f2ff15d14610a2157806336568abe146109da5780634563f30a146109b65783816347af99571461094e575080634f1ef286146106ac57806352d1902d1461064557806354fd4d501461060257806375b238fc146105d95780637910b464146104595780637ab4339d146102d8578381638936a91f1461024e5750806391d14854146101fb578063a217fddf146101e0578063ad3cb1cc1461019f578063cc5b6e4a1461017e5763d547741f1461013057600080fd5b3461017a578060031936011261017a5761017691356101716001610152610e63565b938387526000805160206115ac83398151915260205286200154611076565b61134e565b5080f35b8280fd5b83823461019b578160031936011261019b57602091549051908152f35b5080fd5b83823461019b578160031936011261019b5780516101dc916101c082610ed7565b60058252640352e302e360dc1b60208301525191829182610f30565b0390f35b83823461019b578160031936011261019b5751908152602090f35b50903461017a578160031936011261017a5781602093610219610e63565b923581526000805160206115ac8339815191528552209060018060a01b0316600052825260ff81600020541690519015158152f35b808484346102d457826003193601126102d45761026961103e565b60015460ff19811660015560018060a01b039060101c16918354833b156102d05760248592838551968794859363240d3a8560e11b85528401525af19081156102c757506102b45750f35b6102bd90610eae565b6102c45780f35b80fd5b513d84823e3d90fd5b8480fd5b5050fd5b50903461017a578160031936011261017a576001600160401b0381358181116102d057366023820112156102d057808301359082821161045557366024838301011161045557610326610e63565b9160008051602061160c8339815191529485549060ff82891c16159582168015908161044d575b6001149081610443575b15908161043a575b5061042c57506001600160401b0319811660011786556103cc9392919085610411575b5061038b611439565b610393611439565b6103b86020885183819460248484019701873781018b83820152038084520182610ef2565b519020865560ff1960015416600155611241565b506103d5578280f35b805460ff60401b1916905551600181527fc7f505b2f371ae2175ee4913f4499e1f2633a7b5936321eed1cdaeb6115181d290602090a138808280f35b6001600160481b0319166001600160401b0117865538610382565b875163f92ee8a960e01b8152fd5b9050153861035f565b303b159150610357565b87915061034d565b8580fd5b5091903461019b5760a036600319011261019b57610475610e4d565b9261047e610e63565b604435946001600160a01b03918287168703610455576064359183831683036105d4576084359784891689036105d45760008051602061156c833981519152806000526000805160206115ac833981519152602052866000203360005260205260ff876000205416156105b657506001549060ff8260081c166105a657610100600160b01b031990911660109190911b62010000600160b01b03161761010017600155600280546001600160a01b0319168584161790559596879661056493919261055e92916105589190610552906110a9565b506110a9565b50611135565b506111bb565b5060015460101c16918354833b156102d057604485928385519687948593639c871b3160e01b85528401523060248401525af19081156102c757506102b45750f35b8651634ce377bb60e11b81528890fd5b865163e2517d3f60e01b815233818a01526024810191909152604490fd5b600080fd5b83823461019b578160031936011261019b57602090516000805160206115cc8339815191528152f35b83823461019b578160031936011261019b5780516101dc9161062382610ed7565b600b82526a19195d995b1bdc1b595b9d60aa1b60208301525191829182610f30565b5082346102c457806003193601126102c457507f00000000000000000000000000000000000000000000000000000000000000006001600160a01b0316300361069f576020905160008051602061158c8339815191528152f35b5163703e46dd60e11b8152fd5b5091908260031936011261019b576106c2610e4d565b9260249283356001600160401b03811161019b573660238201121561019b57808401356106ee81610f15565b966106fb85519889610ef2565b8188526020918289019336898383010111610455578186928a86930187378a0101526001600160a01b03977f00000000000000000000000000000000000000000000000000000000000000008916308114908115610932575b5061092257610761610fb0565b8860015460101c16803b156104555785899a60448a838b9d9c9d51958694859363b3c2d50b60e01b855230908501528916809e8401525af1801561091857908691610904575b505085516352d1902d60e01b815283818a818b5afa8691816108d1575b506107e0575050505050505191634c9c8ce360e01b8352820152fd5b9088888894938c60008051602061158c833981519152918281036108bc5750853b156108a8575080546001600160a01b031916821790558451889392917fbc7cd75a20ee27fd9adebab32041f755214dbc6bffa90cc0225b39da2e5c2d3b8580a282511561088a5750506101769582915190845af4913d15610880573d61087261086982610f15565b92519283610ef2565b81528581943d92013e611468565b5060609250611468565b95509550505050503461089c57505080f35b63b398979f60e01b8152fd5b8651634c9c8ce360e01b8152808501849052fd5b8751632a87526960e21b815280860191909152fd5b9091508481813d83116108fd575b6108e98183610ef2565b810103126108f9575190386107c4565b8680fd5b503d6108df565b61090d90610eae565b6102d05784386107a7565b87513d88823e3d90fd5b855163703e46dd60e11b81528790fd5b90508960008051602061158c8339815191525416141538610754565b808484346102d457826003193601126102d45761096961103e565b600160ff19815416178060015560018060a01b039060101c16918354833b156102d0576024859283855196879485936380c48d1360e01b85528401525af19081156102c757506102b45750f35b83823461019b578160031936011261019b5760209060ff6001541690519015158152f35b5082903461019b578060031936011261019b576109f5610e63565b90336001600160a01b03831603610a12575061017691923561134e565b5163334bd91960e11b81528390fd5b503461017a578060031936011261017a576101769135610a446001610152610e63565b6112d9565b83823461019b578160031936011261019b576020905160008051602061156c8339815191528152f35b50903461017a57602036600319011261017a57816020936001923581526000805160206115ac83398151915285522001549051908152f35b5082903461019b57610abb36610e79565b919260ff60015416610c085760025481516325c3ed4760e01b81526020956001600160a01b039592909190879082908b9082908a165afa908115610bd157869188918a91610bdb575b508a865180948193631b6685b560e21b8352165afa908115610bd1578891610ba4575b50610b94578490610b36611006565b835163a9059cbb60e01b97810197909752166024860152604480860191909152845260808401906001600160401b03821185831017610b7f57610b7c95965052166113d1565b80f35b604187634e487b7160e01b6000525260246000fd5b825163bbc439e160e01b81528890fd5b610bc49150873d8911610bca575b610bbc8183610ef2565b810190610f98565b89610b27565b503d610bb2565b84513d8a823e3d90fd5b610bfb9150823d8411610c01575b610bf38183610ef2565b810190610f79565b8b610b04565b503d610be9565b5163b16749ef60e01b81528590fd5b83823461019b578160031936011261019b576020905160008051602061152c8339815191528152f35b5082903461019b57610c5136610e79565b919260ff60015416610c085760025481516325c3ed4760e01b81526020956001600160a01b039592909190879082908b9082908a165afa908115610bd157869188918a91610d35575b508a865180948193631b6685b560e21b8352165afa908115610bd1578891610d18575b50610b94578490610ccc611006565b83516323b872dd60e01b97810197909752166024860152306044860152606480860191909152845260a08401906001600160401b03821185831017610b7f57610b7c95965052166113d1565b610d2f9150873d8911610bca57610bbc8183610ef2565b89610cbd565b610d4c9150823d8411610c0157610bf38183610ef2565b8b610c9a565b83823461019b578160031936011261019b576020905160008051602061150c8339815191528152f35b503461017a57602036600319011261017a5782610d96610e4d565b610d9e610fb0565b6001546001600160a01b039460109190911c851690813b15610df557836044928651978895869463b3c2d50b60e01b865230908601521660248401525af19081156102c75750610dec575080f35b610b7c90610eae565b8380fd5b8490843461017a57602036600319011261017a573563ffffffff60e01b811680910361017a5760209250637965db0b60e01b8114908115610e3c575b5015158152f35b6301ffc9a760e01b14905083610e35565b600435906001600160a01b03821682036105d457565b602435906001600160a01b03821682036105d457565b60609060031901126105d4576001600160a01b039060043582811681036105d4579160243590811681036105d4579060443590565b6001600160401b038111610ec157604052565b634e487b7160e01b600052604160045260246000fd5b604081019081106001600160401b03821117610ec157604052565b601f909101601f19168101906001600160401b03821190821017610ec157604052565b6001600160401b038111610ec157601f01601f191660200190565b6020808252825181830181905290939260005b828110610f6557505060409293506000838284010152601f8019910116010190565b818101860151848201604001528501610f43565b908160209103126105d457516001600160a01b03811681036105d45790565b908160209103126105d4575180151581036105d45790565b3360009081526000805160206115ec833981519152602052604090205460008051602061152c8339815191529060ff1615610fe85750565b6044906040519063e2517d3f60e01b82523360048301526024820152fd5b3360009081526000805160206114ec833981519152602052604090205460008051602061150c8339815191529060ff1615610fe85750565b33600090815260008051602061154c83398151915260205260409020546000805160206115cc8339815191529060ff1615610fe85750565b806000526000805160206115ac83398151915260205260406000203360005260205260ff6040600020541615610fe85750565b6001600160a01b031660008181526000805160206114ec833981519152602052604081205490919060008051602061150c833981519152906000805160206115ac8339815191529060ff1661112f578184526020526040832082845260205260408320600160ff198254161790556000805160206114cc833981519152339380a4600190565b50505090565b6001600160a01b031660008181526000805160206115ec833981519152602052604081205490919060008051602061152c833981519152906000805160206115ac8339815191529060ff1661112f578184526020526040832082845260205260408320600160ff198254161790556000805160206114cc833981519152339380a4600190565b6001600160a01b0316600081815260008051602061154c83398151915260205260408120549091906000805160206115cc833981519152906000805160206115ac8339815191529060ff1661112f578184526020526040832082845260205260408320600160ff198254161790556000805160206114cc833981519152339380a4600190565b6001600160a01b031660008181527f44fa5399874b75da801cb431822b6afcadb876f84eb39d7f05bf697e94b4484e602052604081205490919060008051602061156c833981519152906000805160206115ac8339815191529060ff1661112f578184526020526040832082845260205260408320600160ff198254161790556000805160206114cc833981519152339380a4600190565b906000918083526000805160206115ac83398151915280602052604084209260018060a01b03169283855260205260ff6040852054161560001461112f578184526020526040832082845260205260408320600160ff198254161790556000805160206114cc833981519152339380a4600190565b906000918083526000805160206115ac83398151915280602052604084209260018060a01b03169283855260205260ff60408520541660001461112f57818452602052604083208284526020526040832060ff1981541690557ff6391f5c32d9c69d2a47ea670b442974b53935d1edc7fd64eb21e047a839171b339380a4600190565b906000602091828151910182855af11561142d576000513d61142457506001600160a01b0381163b155b6114025750565b604051635274afe760e01b81526001600160a01b039091166004820152602490fd5b600114156113fb565b6040513d6000823e3d90fd5b60ff60008051602061160c8339815191525460401c161561145657565b604051631afcd79f60e31b8152600490fd5b9061148f575080511561147d57805190602001fd5b60405163d6bda27560e01b8152600490fd5b815115806114c2575b6114a0575090565b604051639996b31560e01b81526001600160a01b039091166004820152602490fd5b50803b1561149856fe2f8788117e7eff1d82e926ec794901d17c78024a50270940304540a733656f0d265ec2c7f23b289e86ed2d877ad4b447b70ac08332783d1ba335eb6541af8c3c250b76734a070a69c7b3930477dd35007ad9c9d0952e97903fdafb2db6980537793a6c9b7e0a9549c74edc2f9ae0dc50903dfaa9a56fb0116b27a8c71de3e2c6b16e88c42fd4e48df2dd6a2eabd6bc9aec654ec170056b470819f8892cc6431c30d41a597cac127d8249d31298b50e481ee82c3f4a49ff93c76a22735aa9f3ad360894a13ba1a3210667c828492db98dca3e2076cc3735a920a3ca505d382bbc02dd7bc7dec4dceedda775e58dd541e08a116c6c53815c0bd028192f7b626800a49807205ce4d355092ef5a8a18f56e8913cf4a201fbe287825b095693c217750cfb002fcf8644f87ebf6cf6e31899c8d8e9f7c329b465b6e36989a958507e8bf0c57e16840df040f15088dc2f81fe391c3923bec73e23a9662efc9c229c6a00a26469706673582212202cc9c77b2743ddde5dd1808e485ac85e1b05a49a62d56e7c34e81750c26e9e6864736f6c63430008160033",
  "linkReferences": {},
  "deployedLinkReferences": {}
}