{
  "_format": "hh-sol-artifact-1",
  "contractName": "TestTermRepoLocker",
  "sourceName": "contracts/test/TestTermRepoLocker.sol",
  "abi": [
    {
      "inputs": [],
      "name": "ERC20TransferFailed",
      "type": "error"
    },
    {
      "inputs": [],
      "name": "TermRepoLockerTransfersPaused",
      "type": "error"
    },
    {
      "anonymous": false,
      "inputs": [
        {
          "indexed": false,
          "internalType": "address",
          "name": "previousAdmin",
          "type": "address"
        },
        {
          "indexed": false,
          "internalType": "address",
          "name": "newAdmin",
          "type": "address"
        }
      ],
      "name": "AdminChanged",
      "type": "event"
    },
    {
      "anonymous": false,
      "inputs": [
        {
          "indexed": true,
          "internalType": "address",
          "name": "beacon",
          "type": "address"
        }
      ],
      "name": "BeaconUpgraded",
      "type": "event"
    },
    {
      "anonymous": false,
      "inputs": [
        {
          "indexed": false,
          "internalType": "uint8",
          "name": "version",
          "type": "uint8"
        }
      ],
      "name": "Initialized",
      "type": "event"
    },
    {
      "anonymous": false,
      "inputs": [
        {
          "indexed": true,
          "internalType": "bytes32",
          "name": "role",
          "type": "bytes32"
        },
        {
          "indexed": true,
          "internalType": "bytes32",
          "name": "previousAdminRole",
          "type": "bytes32"
        },
        {
          "indexed": true,
          "internalType": "bytes32",
          "name": "newAdminRole",
          "type": "bytes32"
        }
      ],
      "name": "RoleAdminChanged",
      "type": "event"
    },
    {
      "anonymous": false,
      "inputs": [
        {
          "indexed": true,
          "internalType": "bytes32",
          "name": "role",
          "type": "bytes32"
        },
        {
          "indexed": true,
          "internalType": "address",
          "name": "account",
          "type": "address"
        },
        {
          "indexed": true,
          "internalType": "address",
          "name": "sender",
          "type": "address"
        }
      ],
      "name": "RoleGranted",
      "type": "event"
    },
    {
      "anonymous": false,
      "inputs": [
        {
          "indexed": true,
          "internalType": "bytes32",
          "name": "role",
          "type": "bytes32"
        },
        {
          "indexed": true,
          "internalType": "address",
          "name": "account",
          "type": "address"
        },
        {
          "indexed": true,
          "internalType": "address",
          "name": "sender",
          "type": "address"
        }
      ],
      "name": "RoleRevoked",
      "type": "event"
    },
    {
      "anonymous": false,
      "inputs": [
        {
          "indexed": true,
          "internalType": "address",
          "name": "implementation",
          "type": "address"
        }
      ],
      "name": "Upgraded",
      "type": "event"
    },
    {
      "inputs": [],
      "name": "DEFAULT_ADMIN_ROLE",
      "outputs": [
        {
          "internalType": "bytes32",
          "name": "",
          "type": "bytes32"
        }
      ],
      "stateMutability": "view",
      "type": "function"
    },
    {
      "inputs": [],
      "name": "DEVOPS_ROLE",
      "outputs": [
        {
          "internalType": "bytes32",
          "name": "",
          "type": "bytes32"
        }
      ],
      "stateMutability": "view",
      "type": "function"
    },
    {
      "inputs": [],
      "name": "INITIALIZER_ROLE",
      "outputs": [
        {
          "internalType": "bytes32",
          "name": "",
          "type": "bytes32"
        }
      ],
      "stateMutability": "view",
      "type": "function"
    },
    {
      "inputs": [],
      "name": "SERVICER_ROLE",
      "outputs": [
        {
          "internalType": "bytes32",
          "name": "",
          "type": "bytes32"
        }
      ],
      "stateMutability": "view",
      "type": "function"
    },
    {
      "inputs": [
        {
          "internalType": "bytes32",
          "name": "role",
          "type": "bytes32"
        }
      ],
      "name": "getRoleAdmin",
      "outputs": [
        {
          "internalType": "bytes32",
          "name": "",
          "type": "bytes32"
        }
      ],
      "stateMutability": "view",
      "type": "function"
    },
    {
      "inputs": [
        {
          "internalType": "bytes32",
          "name": "role",
          "type": "bytes32"
        },
        {
          "internalType": "address",
          "name": "account",
          "type": "address"
        }
      ],
      "name": "grantRole",
      "outputs": [],
      "stateMutability": "nonpayable",
      "type": "function"
    },
    {
      "inputs": [
        {
          "internalType": "bytes32",
          "name": "role",
          "type": "bytes32"
        },
        {
          "internalType": "address",
          "name": "account",
          "type": "address"
        }
      ],
      "name": "hasRole",
      "outputs": [
        {
          "internalType": "bool",
          "name": "",
          "type": "bool"
        }
      ],
      "stateMutability": "view",
      "type": "function"
    },
    {
      "inputs": [
        {
          "internalType": "string",
          "name": "termRepoId_",
          "type": "string"
        },
        {
          "internalType": "address",
          "name": "termInitializer_",
          "type": "address"
        }
      ],
      "name": "initialize",
      "outputs": [],
      "stateMutability": "nonpayable",
      "type": "function"
    },
    {
      "inputs": [
        {
          "internalType": "address",
          "name": "termRepoCollateralManager_",
          "type": "address"
        },
        {
          "internalType": "address",
          "name": "termRepoServicer_",
          "type": "address"
        },
        {
          "internalType": "contract ITermEventEmitter",
          "name": "emitter_",
          "type": "address"
        },
        {
          "internalType": "address",
          "name": "devopsMultisig_",
          "type": "address"
        }
      ],
      "name": "pairTermContracts",
      "outputs": [],
      "stateMutability": "nonpayable",
      "type": "function"
    },
    {
      "inputs": [],
      "name": "pauseTransfers",
      "outputs": [],
      "stateMutability": "nonpayable",
      "type": "function"
    },
    {
      "inputs": [],
      "name": "proxiableUUID",
      "outputs": [
        {
          "internalType": "bytes32",
          "name": "",
          "type": "bytes32"
        }
      ],
      "stateMutability": "view",
      "type": "function"
    },
    {
      "inputs": [
        {
          "internalType": "bytes32",
          "name": "role",
          "type": "bytes32"
        },
        {
          "internalType": "address",
          "name": "account",
          "type": "address"
        }
      ],
      "name": "renounceRole",
      "outputs": [],
      "stateMutability": "nonpayable",
      "type": "function"
    },
    {
      "inputs": [
        {
          "internalType": "bytes32",
          "name": "role",
          "type": "bytes32"
        },
        {
          "internalType": "address",
          "name": "account",
          "type": "address"
        }
      ],
      "name": "revokeRole",
      "outputs": [],
      "stateMutability": "nonpayable",
      "type": "function"
    },
    {
      "inputs": [
        {
          "internalType": "bytes4",
          "name": "interfaceId",
          "type": "bytes4"
        }
      ],
      "name": "supportsInterface",
      "outputs": [
        {
          "internalType": "bool",
          "name": "",
          "type": "bool"
        }
      ],
      "stateMutability": "view",
      "type": "function"
    },
    {
      "inputs": [],
      "name": "termRepoId",
      "outputs": [
        {
          "internalType": "bytes32",
          "name": "",
          "type": "bytes32"
        }
      ],
      "stateMutability": "view",
      "type": "function"
    },
    {
      "inputs": [
        {
          "internalType": "address",
          "name": "originWallet",
          "type": "address"
        },
        {
          "internalType": "address",
          "name": "token",
          "type": "address"
        },
        {
          "internalType": "uint256",
          "name": "amount",
          "type": "uint256"
        }
      ],
      "name": "transferTokenFromWallet",
      "outputs": [],
      "stateMutability": "nonpayable",
      "type": "function"
    },
    {
      "inputs": [
        {
          "internalType": "address",
          "name": "destinationWallet",
          "type": "address"
        },
        {
          "internalType": "address",
          "name": "token",
          "type": "address"
        },
        {
          "internalType": "uint256",
          "name": "amount",
          "type": "uint256"
        }
      ],
      "name": "transferTokenToWallet",
      "outputs": [],
      "stateMutability": "nonpayable",
      "type": "function"
    },
    {
      "inputs": [],
      "name": "transfersPaused",
      "outputs": [
        {
          "internalType": "bool",
          "name": "",
          "type": "bool"
        }
      ],
      "stateMutability": "view",
      "type": "function"
    },
    {
      "inputs": [],
      "name": "unpauseTransfers",
      "outputs": [],
      "stateMutability": "nonpayable",
      "type": "function"
    },
    {
      "inputs": [
        {
          "internalType": "address",
          "name": "upgradeAddress",
          "type": "address"
        }
      ],
      "name": "upgrade",
      "outputs": [],
      "stateMutability": "nonpayable",
      "type": "function"
    },
    {
      "inputs": [
        {
          "internalType": "address",
          "name": "newImplementation",
          "type": "address"
        }
      ],
      "name": "upgradeTo",
      "outputs": [],
      "stateMutability": "nonpayable",
      "type": "function"
    },
    {
      "inputs": [
        {
          "internalType": "address",
          "name": "newImplementation",
          "type": "address"
        },
        {
          "internalType": "bytes",
          "name": "data",
          "type": "bytes"
        }
      ],
      "name": "upgradeToAndCall",
      "outputs": [],
      "stateMutability": "payable",
      "type": "function"
    },
    {
      "inputs": [],
      "name": "version",
      "outputs": [
        {
          "internalType": "string",
          "name": "",
          "type": "string"
        }
      ],
      "stateMutability": "view",
      "type": "function"
    }
  ],
  "bytecode": "0x60a06040523060805234801561001457600080fd5b5061001d610022565b6100e1565b600054610100900460ff161561008e5760405162461bcd60e51b815260206004820152602760248201527f496e697469616c697a61626c653a20636f6e747261637420697320696e697469604482015266616c697a696e6760c81b606482015260840160405180910390fd5b60005460ff908116146100df576000805460ff191660ff9081179091556040519081527f7f26b83ff96e1f2b6a682f133852f6798a09c465da95921460cefb38474024989060200160405180910390a15b565b608051611b43610118600039600081816105b5015281816105f5015281816107030152818161074301526107bb0152611b436000f3fe6080604052600436106101205760003560e01c80634563f30a116100a65780634563f30a146102c057806347af9957146102da5780634f1ef286146102ef57806352d1902d1461030257806354fd4d50146103175780637ab4339d146103515780638936a91f1461037157806391d1485414610386578063a217fddf146103a6578063a8f421c2146103bb578063cc5b6e4a146103db578063d547741f146103f157600080fd5b806301ffc9a7146101255780630900f0101461015a57806309a016081461017c578063127ca944146101ac578063201a6625146101cc578063213919f2146101ee578063248a9ca31461020e57806327df3d3e1461023e5780632f2ff15d1461026057806336568abe146102805780633659cfe6146102a0575b600080fd5b34801561013157600080fd5b50610145610140366004611595565b610411565b60405190151581526020015b60405180910390f35b34801561016657600080fd5b5061017a6101753660046115d4565b610448565b005b34801561018857600080fd5b5061019e600080516020611a6783398151915281565b604051908152602001610151565b3480156101b857600080fd5b5061017a6101c73660046115f1565b610454565b3480156101d857600080fd5b5061019e600080516020611a8783398151915281565b3480156101fa57600080fd5b5061017a6102093660046115f1565b6104ad565b34801561021a57600080fd5b5061019e610229366004611632565b600090815260c9602052604090206001015490565b34801561024a57600080fd5b5061019e600080516020611aa783398151915281565b34801561026c57600080fd5b5061017a61027b36600461164b565b6104fe565b34801561028c57600080fd5b5061017a61029b36600461164b565b610528565b3480156102ac57600080fd5b5061017a6102bb3660046115d4565b6105ab565b3480156102cc57600080fd5b5060fc546101459060ff1681565b3480156102e657600080fd5b5061017a610670565b61017a6102fd366004611691565b6106f9565b34801561030e57600080fd5b5061019e6107ae565b34801561032357600080fd5b50604080518082018252600b81526a19195d995b1bdc1b595b9d60aa1b602082015290516101519190611779565b34801561035d57600080fd5b5061017a61036c3660046117ac565b61085c565b34801561037d57600080fd5b5061017a6109cf565b34801561039257600080fd5b506101456103a136600461164b565b610a29565b3480156103b257600080fd5b5061019e600081565b3480156103c757600080fd5b5061017a6103d636600461182f565b610a54565b3480156103e757600080fd5b5061019e60fb5481565b3480156103fd57600080fd5b5061017a61040c36600461164b565b610b47565b60006001600160e01b03198216637965db0b60e01b148061044257506301ffc9a760e01b6001600160e01b03198316145b92915050565b61045181610b6c565b50565b60fc5460ff16156104785760405163b16749ef60e01b815260040160405180910390fd5b600080516020611a6783398151915261049081610bf3565b826104a66001600160a01b038216863086610bfd565b5050505050565b60fc5460ff16156104d15760405163b16749ef60e01b815260040160405180910390fd5b600080516020611a678339815191526104e981610bf3565b826104a66001600160a01b0382168685610c68565b600082815260c9602052604090206001015461051981610bf3565b6105238383610c98565b505050565b6001600160a01b038116331461059d5760405162461bcd60e51b815260206004820152602f60248201527f416363657373436f6e74726f6c3a2063616e206f6e6c792072656e6f756e636560448201526e103937b632b9903337b91039b2b63360891b60648201526084015b60405180910390fd5b6105a78282610d1e565b5050565b6001600160a01b037f00000000000000000000000000000000000000000000000000000000000000001630036105f35760405162461bcd60e51b81526004016105949061188b565b7f00000000000000000000000000000000000000000000000000000000000000006001600160a01b0316610625610d85565b6001600160a01b03161461064b5760405162461bcd60e51b8152600401610594906118d7565b61065481610b6c565b6040805160008082526020820190925261045191839190610da1565b600080516020611a8783398151915261068881610bf3565b60fc8054600160ff19909116179081905560fb546040516380c48d1360e01b815260048101919091526101009091046001600160a01b0316906380c48d13906024015b600060405180830381600087803b1580156106e557600080fd5b505af11580156104a6573d6000803e3d6000fd5b6001600160a01b037f00000000000000000000000000000000000000000000000000000000000000001630036107415760405162461bcd60e51b81526004016105949061188b565b7f00000000000000000000000000000000000000000000000000000000000000006001600160a01b0316610773610d85565b6001600160a01b0316146107995760405162461bcd60e51b8152600401610594906118d7565b6107a282610b6c565b6105a782826001610da1565b6000306001600160a01b037f000000000000000000000000000000000000000000000000000000000000000016146108495760405162461bcd60e51b815260206004820152603860248201527f555550535570677261646561626c653a206d757374206e6f742062652063616c6044820152771b1959081d1a1c9bdd59da0819195b1959d85d1958d85b1b60421b6064820152608401610594565b50600080516020611ac783398151915290565b600054610100900460ff161580801561087c5750600054600160ff909116105b8061089d575061088b30610f0c565b15801561089d575060005460ff166001145b6109005760405162461bcd60e51b815260206004820152602e60248201527f496e697469616c697a61626c653a20636f6e747261637420697320616c72656160448201526d191e481a5b9a5d1a585b1a5e995960921b6064820152608401610594565b6000805460ff191660011790558015610923576000805461ff0019166101001790555b61092b610f1b565b610933610f1b565b8383604051602001610946929190611923565b60408051601f19818403018152919052805160209091012060fb5560fc805460ff19169055610983600080516020611aa783398151915283610c98565b80156109c9576000805461ff0019169055604051600181527f7f26b83ff96e1f2b6a682f133852f6798a09c465da95921460cefb38474024989060200160405180910390a15b50505050565b600080516020611a878339815191526109e781610bf3565b60fc805460ff19169081905560fb5460405163240d3a8560e11b815260048101919091526101009091046001600160a01b03169063481a750a906024016106cb565b600091825260c9602090815260408084206001600160a01b0393909316845291905290205460ff1690565b600080516020611aa7833981519152610a6c81610bf3565b60fc8054610100600160a81b0319166101006001600160a01b03861602179055610aa4600080516020611a6783398151915286610c98565b610abc600080516020611a6783398151915285610c98565b610ad4600080516020611a8783398151915283610c98565b60fc5460fb54604051639c871b3160e01b815260048101919091523060248201526101009091046001600160a01b031690639c871b3190604401600060405180830381600087803b158015610b2857600080fd5b505af1158015610b3c573d6000803e3d6000fd5b505050505050505050565b600082815260c96020526040902060010154610b6281610bf3565b6105238383610d1e565b600080516020611a87833981519152610b8481610bf3565b60fc5460405163b3c2d50b60e01b81523060048201526001600160a01b0384811660248301526101009092049091169063b3c2d50b90604401600060405180830381600087803b158015610bd757600080fd5b505af1158015610beb573d6000803e3d6000fd5b505050505050565b6104518133610f88565b6040516001600160a01b03808516602483015283166044820152606481018290526109c99085906323b872dd60e01b906084015b60408051601f198184030181529190526020810180516001600160e01b03166001600160e01b031990931692909217909152610fe1565b6040516001600160a01b03831660248201526044810182905261052390849063a9059cbb60e01b90606401610c31565b610ca28282610a29565b6105a757600082815260c9602090815260408083206001600160a01b03851684529091529020805460ff19166001179055610cda3390565b6001600160a01b0316816001600160a01b0316837f2f8788117e7eff1d82e926ec794901d17c78024a50270940304540a733656f0d60405160405180910390a45050565b610d288282610a29565b156105a757600082815260c9602090815260408083206001600160a01b0385168085529252808320805460ff1916905551339285917ff6391f5c32d9c69d2a47ea670b442974b53935d1edc7fd64eb21e047a839171b9190a45050565b600080516020611ac7833981519152546001600160a01b031690565b7f4910fdfa16fed3260ed0e7147f7cc6da11a60208b5b9406d12a635614ffd91435460ff1615610dd457610523836110b6565b826001600160a01b03166352d1902d6040518163ffffffff1660e01b8152600401602060405180830381865afa925050508015610e2e575060408051601f3d908101601f19168201909252610e2b91810190611933565b60015b610e915760405162461bcd60e51b815260206004820152602e60248201527f45524331393637557067726164653a206e657720696d706c656d656e7461746960448201526d6f6e206973206e6f74205555505360901b6064820152608401610594565b600080516020611ac78339815191528114610f005760405162461bcd60e51b815260206004820152602960248201527f45524331393637557067726164653a20756e737570706f727465642070726f786044820152681a58589b195555525160ba1b6064820152608401610594565b50610523838383611150565b6001600160a01b03163b151590565b600054610100900460ff16610f865760405162461bcd60e51b815260206004820152602b60248201527f496e697469616c697a61626c653a20636f6e7472616374206973206e6f74206960448201526a6e697469616c697a696e6760a81b6064820152608401610594565b565b610f928282610a29565b6105a757610f9f81611175565b610faa836020611187565b604051602001610fbb92919061194c565b60408051601f198184030181529082905262461bcd60e51b825261059491600401611779565b6000611036826040518060400160405280602081526020017f5361666545524332303a206c6f772d6c6576656c2063616c6c206661696c6564815250856001600160a01b031661132a9092919063ffffffff16565b905080516000148061105757508080602001905181019061105791906119bb565b6105235760405162461bcd60e51b815260206004820152602a60248201527f5361666545524332303a204552433230206f7065726174696f6e20646964206e6044820152691bdd081cdd58d8d9595960b21b6064820152608401610594565b6110bf81610f0c565b6111215760405162461bcd60e51b815260206004820152602d60248201527f455243313936373a206e657720696d706c656d656e746174696f6e206973206e60448201526c1bdd08184818dbdb9d1c9858dd609a1b6064820152608401610594565b600080516020611ac783398151915280546001600160a01b0319166001600160a01b0392909216919091179055565b61115983611341565b6000825111806111665750805b15610523576109c98383611381565b60606104426001600160a01b03831660145b606060006111968360026119f3565b6111a1906002611a0a565b67ffffffffffffffff8111156111b9576111b961167b565b6040519080825280601f01601f1916602001820160405280156111e3576020820181803683370190505b509050600360fc1b816000815181106111fe576111fe611a1d565b60200101906001600160f81b031916908160001a905350600f60fb1b8160018151811061122d5761122d611a1d565b60200101906001600160f81b031916908160001a90535060006112518460026119f3565b61125c906001611a0a565b90505b60018111156112d4576f181899199a1a9b1b9c1cb0b131b232b360811b85600f166010811061129057611290611a1d565b1a60f81b8282815181106112a6576112a6611a1d565b60200101906001600160f81b031916908160001a90535060049490941c936112cd81611a33565b905061125f565b5083156113235760405162461bcd60e51b815260206004820181905260248201527f537472696e67733a20686578206c656e67746820696e73756666696369656e746044820152606401610594565b9392505050565b606061133984846000856113a6565b949350505050565b61134a816110b6565b6040516001600160a01b038216907fbc7cd75a20ee27fd9adebab32041f755214dbc6bffa90cc0225b39da2e5c2d3b90600090a250565b60606113238383604051806060016040528060278152602001611ae760279139611481565b6060824710156114075760405162461bcd60e51b815260206004820152602660248201527f416464726573733a20696e73756666696369656e742062616c616e636520666f6044820152651c8818d85b1b60d21b6064820152608401610594565b600080866001600160a01b031685876040516114239190611a4a565b60006040518083038185875af1925050503d8060008114611460576040519150601f19603f3d011682016040523d82523d6000602084013e611465565b606091505b5091509150611476878383876114f9565b979650505050505050565b6060600080856001600160a01b03168560405161149e9190611a4a565b600060405180830381855af49150503d80600081146114d9576040519150601f19603f3d011682016040523d82523d6000602084013e6114de565b606091505b50915091506114ef868383876114f9565b9695505050505050565b6060831561156657825160000361155f5761151385610f0c565b61155f5760405162461bcd60e51b815260206004820152601d60248201527f416464726573733a2063616c6c20746f206e6f6e2d636f6e74726163740000006044820152606401610594565b5081611339565b611339838381511561157b5781518083602001fd5b8060405162461bcd60e51b81526004016105949190611779565b6000602082840312156115a757600080fd5b81356001600160e01b03198116811461132357600080fd5b6001600160a01b038116811461045157600080fd5b6000602082840312156115e657600080fd5b8135611323816115bf565b60008060006060848603121561160657600080fd5b8335611611816115bf565b92506020840135611621816115bf565b929592945050506040919091013590565b60006020828403121561164457600080fd5b5035919050565b6000806040838503121561165e57600080fd5b823591506020830135611670816115bf565b809150509250929050565b634e487b7160e01b600052604160045260246000fd5b600080604083850312156116a457600080fd5b82356116af816115bf565b9150602083013567ffffffffffffffff808211156116cc57600080fd5b818501915085601f8301126116e057600080fd5b8135818111156116f2576116f261167b565b604051601f8201601f19908116603f0116810190838211818310171561171a5761171a61167b565b8160405282815288602084870101111561173357600080fd5b8260208601602083013760006020848301015280955050505050509250929050565b60005b83811015611770578181015183820152602001611758565b50506000910152565b6020815260008251806020840152611798816040850160208701611755565b601f01601f19169190910160400192915050565b6000806000604084860312156117c157600080fd5b833567ffffffffffffffff808211156117d957600080fd5b818601915086601f8301126117ed57600080fd5b8135818111156117fc57600080fd5b87602082850101111561180e57600080fd5b60209283019550935050840135611824816115bf565b809150509250925092565b6000806000806080858703121561184557600080fd5b8435611850816115bf565b93506020850135611860816115bf565b92506040850135611870816115bf565b91506060850135611880816115bf565b939692955090935050565b6020808252602c908201527f46756e6374696f6e206d7573742062652063616c6c6564207468726f7567682060408201526b19195b1959d85d1958d85b1b60a21b606082015260800190565b6020808252602c908201527f46756e6374696f6e206d7573742062652063616c6c6564207468726f7567682060408201526b6163746976652070726f787960a01b606082015260800190565b8183823760009101908152919050565b60006020828403121561194557600080fd5b5051919050565b76020b1b1b2b9b9a1b7b73a3937b61d1030b1b1b7bab73a1604d1b81526000835161197e816017850160208801611755565b7001034b99036b4b9b9b4b733903937b6329607d1b60179184019182015283516119af816028840160208801611755565b01602801949350505050565b6000602082840312156119cd57600080fd5b8151801515811461132357600080fd5b634e487b7160e01b600052601160045260246000fd5b8082028115828204841417610442576104426119dd565b80820180821115610442576104426119dd565b634e487b7160e01b600052603260045260246000fd5b600081611a4257611a426119dd565b506000190190565b60008251611a5c818460208701611755565b919091019291505056fe250b76734a070a69c7b3930477dd35007ad9c9d0952e97903fdafb2db6980537793a6c9b7e0a9549c74edc2f9ae0dc50903dfaa9a56fb0116b27a8c71de3e2c630d41a597cac127d8249d31298b50e481ee82c3f4a49ff93c76a22735aa9f3ad360894a13ba1a3210667c828492db98dca3e2076cc3735a920a3ca505d382bbc416464726573733a206c6f772d6c6576656c2064656c65676174652063616c6c206661696c6564a2646970667358221220438a1c27d266dc9795ff7b8af443187ad101be610ada5d086a7c2cd8779d3c6564736f6c63430008120033",
  "linkReferences": {},
  "deployedLinkReferences": {}
}