{
  "_format": "hh-sol-artifact-1",
  "contractName": "TestTermRepoLocker",
  "sourceName": "contracts/test/TestTermRepoLocker.sol",
  "abi": [
    {
      "inputs": [],
      "name": "AlreadyTermContractPaired",
      "type": "error"
    },
    {
      "inputs": [],
      "name": "ERC20TransferFailed",
      "type": "error"
    },
    {
      "inputs": [],
      "name": "TermRepoLockerTransfersPaused",
      "type": "error"
    },
    {
      "anonymous": false,
      "inputs": [
        {
          "indexed": false,
          "internalType": "address",
          "name": "previousAdmin",
          "type": "address"
        },
        {
          "indexed": false,
          "internalType": "address",
          "name": "newAdmin",
          "type": "address"
        }
      ],
      "name": "AdminChanged",
      "type": "event"
    },
    {
      "anonymous": false,
      "inputs": [
        {
          "indexed": true,
          "internalType": "address",
          "name": "beacon",
          "type": "address"
        }
      ],
      "name": "BeaconUpgraded",
      "type": "event"
    },
    {
      "anonymous": false,
      "inputs": [
        {
          "indexed": false,
          "internalType": "uint8",
          "name": "version",
          "type": "uint8"
        }
      ],
      "name": "Initialized",
      "type": "event"
    },
    {
      "anonymous": false,
      "inputs": [
        {
          "indexed": true,
          "internalType": "bytes32",
          "name": "role",
          "type": "bytes32"
        },
        {
          "indexed": true,
          "internalType": "bytes32",
          "name": "previousAdminRole",
          "type": "bytes32"
        },
        {
          "indexed": true,
          "internalType": "bytes32",
          "name": "newAdminRole",
          "type": "bytes32"
        }
      ],
      "name": "RoleAdminChanged",
      "type": "event"
    },
    {
      "anonymous": false,
      "inputs": [
        {
          "indexed": true,
          "internalType": "bytes32",
          "name": "role",
          "type": "bytes32"
        },
        {
          "indexed": true,
          "internalType": "address",
          "name": "account",
          "type": "address"
        },
        {
          "indexed": true,
          "internalType": "address",
          "name": "sender",
          "type": "address"
        }
      ],
      "name": "RoleGranted",
      "type": "event"
    },
    {
      "anonymous": false,
      "inputs": [
        {
          "indexed": true,
          "internalType": "bytes32",
          "name": "role",
          "type": "bytes32"
        },
        {
          "indexed": true,
          "internalType": "address",
          "name": "account",
          "type": "address"
        },
        {
          "indexed": true,
          "internalType": "address",
          "name": "sender",
          "type": "address"
        }
      ],
      "name": "RoleRevoked",
      "type": "event"
    },
    {
      "anonymous": false,
      "inputs": [
        {
          "indexed": true,
          "internalType": "address",
          "name": "implementation",
          "type": "address"
        }
      ],
      "name": "Upgraded",
      "type": "event"
    },
    {
      "inputs": [],
      "name": "ADMIN_ROLE",
      "outputs": [
        {
          "internalType": "bytes32",
          "name": "",
          "type": "bytes32"
        }
      ],
      "stateMutability": "view",
      "type": "function"
    },
    {
      "inputs": [],
      "name": "DEFAULT_ADMIN_ROLE",
      "outputs": [
        {
          "internalType": "bytes32",
          "name": "",
          "type": "bytes32"
        }
      ],
      "stateMutability": "view",
      "type": "function"
    },
    {
      "inputs": [],
      "name": "DEVOPS_ROLE",
      "outputs": [
        {
          "internalType": "bytes32",
          "name": "",
          "type": "bytes32"
        }
      ],
      "stateMutability": "view",
      "type": "function"
    },
    {
      "inputs": [],
      "name": "INITIALIZER_ROLE",
      "outputs": [
        {
          "internalType": "bytes32",
          "name": "",
          "type": "bytes32"
        }
      ],
      "stateMutability": "view",
      "type": "function"
    },
    {
      "inputs": [],
      "name": "SERVICER_ROLE",
      "outputs": [
        {
          "internalType": "bytes32",
          "name": "",
          "type": "bytes32"
        }
      ],
      "stateMutability": "view",
      "type": "function"
    },
    {
      "inputs": [
        {
          "internalType": "bytes32",
          "name": "role",
          "type": "bytes32"
        }
      ],
      "name": "getRoleAdmin",
      "outputs": [
        {
          "internalType": "bytes32",
          "name": "",
          "type": "bytes32"
        }
      ],
      "stateMutability": "view",
      "type": "function"
    },
    {
      "inputs": [
        {
          "internalType": "bytes32",
          "name": "role",
          "type": "bytes32"
        },
        {
          "internalType": "address",
          "name": "account",
          "type": "address"
        }
      ],
      "name": "grantRole",
      "outputs": [],
      "stateMutability": "nonpayable",
      "type": "function"
    },
    {
      "inputs": [
        {
          "internalType": "bytes32",
          "name": "role",
          "type": "bytes32"
        },
        {
          "internalType": "address",
          "name": "account",
          "type": "address"
        }
      ],
      "name": "hasRole",
      "outputs": [
        {
          "internalType": "bool",
          "name": "",
          "type": "bool"
        }
      ],
      "stateMutability": "view",
      "type": "function"
    },
    {
      "inputs": [
        {
          "internalType": "string",
          "name": "termRepoId_",
          "type": "string"
        },
        {
          "internalType": "address",
          "name": "termInitializer_",
          "type": "address"
        }
      ],
      "name": "initialize",
      "outputs": [],
      "stateMutability": "nonpayable",
      "type": "function"
    },
    {
      "inputs": [
        {
          "internalType": "address",
          "name": "termRepoCollateralManager_",
          "type": "address"
        },
        {
          "internalType": "address",
          "name": "termRepoServicer_",
          "type": "address"
        },
        {
          "internalType": "contract ITermEventEmitter",
          "name": "emitter_",
          "type": "address"
        },
        {
          "internalType": "address",
          "name": "devopsMultisig_",
          "type": "address"
        },
        {
          "internalType": "address",
          "name": "adminWallet_",
          "type": "address"
        }
      ],
      "name": "pairTermContracts",
      "outputs": [],
      "stateMutability": "nonpayable",
      "type": "function"
    },
    {
      "inputs": [],
      "name": "pauseTransfers",
      "outputs": [],
      "stateMutability": "nonpayable",
      "type": "function"
    },
    {
      "inputs": [],
      "name": "proxiableUUID",
      "outputs": [
        {
          "internalType": "bytes32",
          "name": "",
          "type": "bytes32"
        }
      ],
      "stateMutability": "view",
      "type": "function"
    },
    {
      "inputs": [
        {
          "internalType": "bytes32",
          "name": "role",
          "type": "bytes32"
        },
        {
          "internalType": "address",
          "name": "account",
          "type": "address"
        }
      ],
      "name": "renounceRole",
      "outputs": [],
      "stateMutability": "nonpayable",
      "type": "function"
    },
    {
      "inputs": [
        {
          "internalType": "bytes32",
          "name": "role",
          "type": "bytes32"
        },
        {
          "internalType": "address",
          "name": "account",
          "type": "address"
        }
      ],
      "name": "revokeRole",
      "outputs": [],
      "stateMutability": "nonpayable",
      "type": "function"
    },
    {
      "inputs": [
        {
          "internalType": "bytes4",
          "name": "interfaceId",
          "type": "bytes4"
        }
      ],
      "name": "supportsInterface",
      "outputs": [
        {
          "internalType": "bool",
          "name": "",
          "type": "bool"
        }
      ],
      "stateMutability": "view",
      "type": "function"
    },
    {
      "inputs": [],
      "name": "termRepoId",
      "outputs": [
        {
          "internalType": "bytes32",
          "name": "",
          "type": "bytes32"
        }
      ],
      "stateMutability": "view",
      "type": "function"
    },
    {
      "inputs": [
        {
          "internalType": "address",
          "name": "originWallet",
          "type": "address"
        },
        {
          "internalType": "address",
          "name": "token",
          "type": "address"
        },
        {
          "internalType": "uint256",
          "name": "amount",
          "type": "uint256"
        }
      ],
      "name": "transferTokenFromWallet",
      "outputs": [],
      "stateMutability": "nonpayable",
      "type": "function"
    },
    {
      "inputs": [
        {
          "internalType": "address",
          "name": "destinationWallet",
          "type": "address"
        },
        {
          "internalType": "address",
          "name": "token",
          "type": "address"
        },
        {
          "internalType": "uint256",
          "name": "amount",
          "type": "uint256"
        }
      ],
      "name": "transferTokenToWallet",
      "outputs": [],
      "stateMutability": "nonpayable",
      "type": "function"
    },
    {
      "inputs": [],
      "name": "transfersPaused",
      "outputs": [
        {
          "internalType": "bool",
          "name": "",
          "type": "bool"
        }
      ],
      "stateMutability": "view",
      "type": "function"
    },
    {
      "inputs": [],
      "name": "unpauseTransfers",
      "outputs": [],
      "stateMutability": "nonpayable",
      "type": "function"
    },
    {
      "inputs": [
        {
          "internalType": "address",
          "name": "upgradeAddress",
          "type": "address"
        }
      ],
      "name": "upgrade",
      "outputs": [],
      "stateMutability": "nonpayable",
      "type": "function"
    },
    {
      "inputs": [
        {
          "internalType": "address",
          "name": "newImplementation",
          "type": "address"
        }
      ],
      "name": "upgradeTo",
      "outputs": [],
      "stateMutability": "nonpayable",
      "type": "function"
    },
    {
      "inputs": [
        {
          "internalType": "address",
          "name": "newImplementation",
          "type": "address"
        },
        {
          "internalType": "bytes",
          "name": "data",
          "type": "bytes"
        }
      ],
      "name": "upgradeToAndCall",
      "outputs": [],
      "stateMutability": "payable",
      "type": "function"
    },
    {
      "inputs": [],
      "name": "version",
      "outputs": [
        {
          "internalType": "string",
          "name": "",
          "type": "string"
        }
      ],
      "stateMutability": "view",
      "type": "function"
    }
  ],
  "bytecode": "0x60a06040523060805234801561001457600080fd5b5061001d610022565b6100e1565b600054610100900460ff161561008e5760405162461bcd60e51b815260206004820152602760248201527f496e697469616c697a61626c653a20636f6e747261637420697320696e697469604482015266616c697a696e6760c81b606482015260840160405180910390fd5b60005460ff908116146100df576000805460ff191660ff9081179091556040519081527f7f26b83ff96e1f2b6a682f133852f6798a09c465da95921460cefb38474024989060200160405180910390a15b565b608051611bf2610118600039600081816105e201528181610622015281816107310152818161077101526107e90152611bf26000f3fe60806040526004361061012b5760003560e01c806347af9957116100a657806347af9957146102e55780634f1ef286146102fa57806352d1902d1461030d57806354fd4d501461032257806375b238fc1461035c5780637910b4641461037e5780637ab4339d1461039e5780638936a91f146103be57806391d14854146103d3578063a217fddf146103f3578063cc5b6e4a14610408578063d547741f1461041e57600080fd5b806301ffc9a7146101305780630900f0101461016557806309a0160814610187578063127ca944146101b7578063201a6625146101d7578063213919f2146101f9578063248a9ca31461021957806327df3d3e146102495780632f2ff15d1461026b57806336568abe1461028b5780633659cfe6146102ab5780634563f30a146102cb575b600080fd5b34801561013c57600080fd5b5061015061014b36600461160f565b61043e565b60405190151581526020015b60405180910390f35b34801561017157600080fd5b5061018561018036600461164e565b610475565b005b34801561019357600080fd5b506101a9600080516020611af683398151915281565b60405190815260200161015c565b3480156101c357600080fd5b506101856101d236600461166b565b610481565b3480156101e357600080fd5b506101a9600080516020611b1683398151915281565b34801561020557600080fd5b5061018561021436600461166b565b6104da565b34801561022557600080fd5b506101a96102343660046116ac565b600090815260c9602052604090206001015490565b34801561025557600080fd5b506101a9600080516020611b3683398151915281565b34801561027757600080fd5b506101856102863660046116c5565b61052b565b34801561029757600080fd5b506101856102a63660046116c5565b610555565b3480156102b757600080fd5b506101856102c636600461164e565b6105d8565b3480156102d757600080fd5b5060fc546101509060ff1681565b3480156102f157600080fd5b5061018561069d565b61018561030836600461170b565b610727565b34801561031957600080fd5b506101a96107dc565b34801561032e57600080fd5b50604080518082018252600b81526a19195d995b1bdc1b595b9d60aa1b6020820152905161015c91906117f3565b34801561036857600080fd5b506101a9600080516020611b9d83398151915281565b34801561038a57600080fd5b50610185610399366004611826565b61088a565b3480156103aa57600080fd5b506101856103b9366004611897565b6109c7565b3480156103ca57600080fd5b50610185610b3a565b3480156103df57600080fd5b506101506103ee3660046116c5565b610b95565b3480156103ff57600080fd5b506101a9600081565b34801561041457600080fd5b506101a960fb5481565b34801561042a57600080fd5b506101856104393660046116c5565b610bc0565b60006001600160e01b03198216637965db0b60e01b148061046f57506301ffc9a760e01b6001600160e01b03198316145b92915050565b61047e81610be5565b50565b60fc5460ff16156104a55760405163b16749ef60e01b815260040160405180910390fd5b600080516020611af68339815191526104bd81610c6d565b826104d36001600160a01b038216863086610c77565b5050505050565b60fc5460ff16156104fe5760405163b16749ef60e01b815260040160405180910390fd5b600080516020611af683398151915261051681610c6d565b826104d36001600160a01b0382168685610ce2565b600082815260c9602052604090206001015461054681610c6d565b6105508383610d12565b505050565b6001600160a01b03811633146105ca5760405162461bcd60e51b815260206004820152602f60248201527f416363657373436f6e74726f6c3a2063616e206f6e6c792072656e6f756e636560448201526e103937b632b9903337b91039b2b63360891b60648201526084015b60405180910390fd5b6105d48282610d98565b5050565b6001600160a01b037f00000000000000000000000000000000000000000000000000000000000000001630036106205760405162461bcd60e51b81526004016105c19061191a565b7f00000000000000000000000000000000000000000000000000000000000000006001600160a01b0316610652610dff565b6001600160a01b0316146106785760405162461bcd60e51b81526004016105c190611966565b61068181610be5565b6040805160008082526020820190925261047e91839190610e1b565b600080516020611b9d8339815191526106b581610c6d565b60fc8054600160ff19909116179081905560fb546040516380c48d1360e01b81526004810191909152620100009091046001600160a01b0316906380c48d13906024015b600060405180830381600087803b15801561071357600080fd5b505af11580156104d3573d6000803e3d6000fd5b6001600160a01b037f000000000000000000000000000000000000000000000000000000000000000016300361076f5760405162461bcd60e51b81526004016105c19061191a565b7f00000000000000000000000000000000000000000000000000000000000000006001600160a01b03166107a1610dff565b6001600160a01b0316146107c75760405162461bcd60e51b81526004016105c190611966565b6107d082610be5565b6105d482826001610e1b565b6000306001600160a01b037f000000000000000000000000000000000000000000000000000000000000000016146108775760405162461bcd60e51b815260206004820152603860248201527f555550535570677261646561626c653a206d757374206e6f742062652063616c6044820152771b1959081d1a1c9bdd59da0819195b1959d85d1958d85b1b60421b60648201526084016105c1565b50600080516020611b5683398151915290565b600080516020611b368339815191526108a281610c6d565b60fc54610100900460ff16156108cb57604051634ce377bb60e11b815260040160405180910390fd5b60fc80546001600160a01b0386166201000002610100600160b01b03199091161761010017905561090a600080516020611af683398151915287610d12565b610922600080516020611af683398151915286610d12565b61093a600080516020611b1683398151915284610d12565b610952600080516020611b9d83398151915283610d12565b60fc5460fb54604051639c871b3160e01b81526004810191909152306024820152620100009091046001600160a01b031690639c871b3190604401600060405180830381600087803b1580156109a757600080fd5b505af11580156109bb573d6000803e3d6000fd5b50505050505050505050565b600054610100900460ff16158080156109e75750600054600160ff909116105b80610a0857506109f630610f86565b158015610a08575060005460ff166001145b610a6b5760405162461bcd60e51b815260206004820152602e60248201527f496e697469616c697a61626c653a20636f6e747261637420697320616c72656160448201526d191e481a5b9a5d1a585b1a5e995960921b60648201526084016105c1565b6000805460ff191660011790558015610a8e576000805461ff0019166101001790555b610a96610f95565b610a9e610f95565b8383604051602001610ab19291906119b2565b60408051601f19818403018152919052805160209091012060fb5560fc805460ff19169055610aee600080516020611b3683398151915283610d12565b8015610b34576000805461ff0019169055604051600181527f7f26b83ff96e1f2b6a682f133852f6798a09c465da95921460cefb38474024989060200160405180910390a15b50505050565b600080516020611b9d833981519152610b5281610c6d565b60fc805460ff19169081905560fb5460405163240d3a8560e11b81526004810191909152620100009091046001600160a01b03169063481a750a906024016106f9565b600091825260c9602090815260408084206001600160a01b0393909316845291905290205460ff1690565b600082815260c96020526040902060010154610bdb81610c6d565b6105508383610d98565b600080516020611b16833981519152610bfd81610c6d565b60fc5460405163b3c2d50b60e01b81523060048201526001600160a01b038481166024830152620100009092049091169063b3c2d50b90604401600060405180830381600087803b158015610c5157600080fd5b505af1158015610c65573d6000803e3d6000fd5b505050505050565b61047e8133611002565b6040516001600160a01b0380851660248301528316604482015260648101829052610b349085906323b872dd60e01b906084015b60408051601f198184030181529190526020810180516001600160e01b03166001600160e01b03199093169290921790915261105b565b6040516001600160a01b03831660248201526044810182905261055090849063a9059cbb60e01b90606401610cab565b610d1c8282610b95565b6105d457600082815260c9602090815260408083206001600160a01b03851684529091529020805460ff19166001179055610d543390565b6001600160a01b0316816001600160a01b0316837f2f8788117e7eff1d82e926ec794901d17c78024a50270940304540a733656f0d60405160405180910390a45050565b610da28282610b95565b156105d457600082815260c9602090815260408083206001600160a01b0385168085529252808320805460ff1916905551339285917ff6391f5c32d9c69d2a47ea670b442974b53935d1edc7fd64eb21e047a839171b9190a45050565b600080516020611b56833981519152546001600160a01b031690565b7f4910fdfa16fed3260ed0e7147f7cc6da11a60208b5b9406d12a635614ffd91435460ff1615610e4e5761055083611130565b826001600160a01b03166352d1902d6040518163ffffffff1660e01b8152600401602060405180830381865afa925050508015610ea8575060408051601f3d908101601f19168201909252610ea5918101906119c2565b60015b610f0b5760405162461bcd60e51b815260206004820152602e60248201527f45524331393637557067726164653a206e657720696d706c656d656e7461746960448201526d6f6e206973206e6f74205555505360901b60648201526084016105c1565b600080516020611b568339815191528114610f7a5760405162461bcd60e51b815260206004820152602960248201527f45524331393637557067726164653a20756e737570706f727465642070726f786044820152681a58589b195555525160ba1b60648201526084016105c1565b506105508383836111ca565b6001600160a01b03163b151590565b600054610100900460ff166110005760405162461bcd60e51b815260206004820152602b60248201527f496e697469616c697a61626c653a20636f6e7472616374206973206e6f74206960448201526a6e697469616c697a696e6760a81b60648201526084016105c1565b565b61100c8282610b95565b6105d457611019816111ef565b611024836020611201565b6040516020016110359291906119db565b60408051601f198184030181529082905262461bcd60e51b82526105c1916004016117f3565b60006110b0826040518060400160405280602081526020017f5361666545524332303a206c6f772d6c6576656c2063616c6c206661696c6564815250856001600160a01b03166113a49092919063ffffffff16565b90508051600014806110d15750808060200190518101906110d19190611a4a565b6105505760405162461bcd60e51b815260206004820152602a60248201527f5361666545524332303a204552433230206f7065726174696f6e20646964206e6044820152691bdd081cdd58d8d9595960b21b60648201526084016105c1565b61113981610f86565b61119b5760405162461bcd60e51b815260206004820152602d60248201527f455243313936373a206e657720696d706c656d656e746174696f6e206973206e60448201526c1bdd08184818dbdb9d1c9858dd609a1b60648201526084016105c1565b600080516020611b5683398151915280546001600160a01b0319166001600160a01b0392909216919091179055565b6111d3836113bb565b6000825111806111e05750805b1561055057610b3483836113fb565b606061046f6001600160a01b03831660145b60606000611210836002611a82565b61121b906002611a99565b67ffffffffffffffff811115611233576112336116f5565b6040519080825280601f01601f19166020018201604052801561125d576020820181803683370190505b509050600360fc1b8160008151811061127857611278611aac565b60200101906001600160f81b031916908160001a905350600f60fb1b816001815181106112a7576112a7611aac565b60200101906001600160f81b031916908160001a90535060006112cb846002611a82565b6112d6906001611a99565b90505b600181111561134e576f181899199a1a9b1b9c1cb0b131b232b360811b85600f166010811061130a5761130a611aac565b1a60f81b82828151811061132057611320611aac565b60200101906001600160f81b031916908160001a90535060049490941c9361134781611ac2565b90506112d9565b50831561139d5760405162461bcd60e51b815260206004820181905260248201527f537472696e67733a20686578206c656e67746820696e73756666696369656e7460448201526064016105c1565b9392505050565b60606113b38484600085611420565b949350505050565b6113c481611130565b6040516001600160a01b038216907fbc7cd75a20ee27fd9adebab32041f755214dbc6bffa90cc0225b39da2e5c2d3b90600090a250565b606061139d8383604051806060016040528060278152602001611b76602791396114fb565b6060824710156114815760405162461bcd60e51b815260206004820152602660248201527f416464726573733a20696e73756666696369656e742062616c616e636520666f6044820152651c8818d85b1b60d21b60648201526084016105c1565b600080866001600160a01b0316858760405161149d9190611ad9565b60006040518083038185875af1925050503d80600081146114da576040519150601f19603f3d011682016040523d82523d6000602084013e6114df565b606091505b50915091506114f087838387611573565b979650505050505050565b6060600080856001600160a01b0316856040516115189190611ad9565b600060405180830381855af49150503d8060008114611553576040519150601f19603f3d011682016040523d82523d6000602084013e611558565b606091505b509150915061156986838387611573565b9695505050505050565b606083156115e05782516000036115d95761158d85610f86565b6115d95760405162461bcd60e51b815260206004820152601d60248201527f416464726573733a2063616c6c20746f206e6f6e2d636f6e747261637400000060448201526064016105c1565b50816113b3565b6113b383838151156115f55781518083602001fd5b8060405162461bcd60e51b81526004016105c191906117f3565b60006020828403121561162157600080fd5b81356001600160e01b03198116811461139d57600080fd5b6001600160a01b038116811461047e57600080fd5b60006020828403121561166057600080fd5b813561139d81611639565b60008060006060848603121561168057600080fd5b833561168b81611639565b9250602084013561169b81611639565b929592945050506040919091013590565b6000602082840312156116be57600080fd5b5035919050565b600080604083850312156116d857600080fd5b8235915060208301356116ea81611639565b809150509250929050565b634e487b7160e01b600052604160045260246000fd5b6000806040838503121561171e57600080fd5b823561172981611639565b9150602083013567ffffffffffffffff8082111561174657600080fd5b818501915085601f83011261175a57600080fd5b81358181111561176c5761176c6116f5565b604051601f8201601f19908116603f01168101908382118183101715611794576117946116f5565b816040528281528860208487010111156117ad57600080fd5b8260208601602083013760006020848301015280955050505050509250929050565b60005b838110156117ea5781810151838201526020016117d2565b50506000910152565b60208152600082518060208401526118128160408501602087016117cf565b601f01601f19169190910160400192915050565b600080600080600060a0868803121561183e57600080fd5b853561184981611639565b9450602086013561185981611639565b9350604086013561186981611639565b9250606086013561187981611639565b9150608086013561188981611639565b809150509295509295909350565b6000806000604084860312156118ac57600080fd5b833567ffffffffffffffff808211156118c457600080fd5b818601915086601f8301126118d857600080fd5b8135818111156118e757600080fd5b8760208285010111156118f957600080fd5b6020928301955093505084013561190f81611639565b809150509250925092565b6020808252602c908201527f46756e6374696f6e206d7573742062652063616c6c6564207468726f7567682060408201526b19195b1959d85d1958d85b1b60a21b606082015260800190565b6020808252602c908201527f46756e6374696f6e206d7573742062652063616c6c6564207468726f7567682060408201526b6163746976652070726f787960a01b606082015260800190565b8183823760009101908152919050565b6000602082840312156119d457600080fd5b5051919050565b76020b1b1b2b9b9a1b7b73a3937b61d1030b1b1b7bab73a1604d1b815260008351611a0d8160178501602088016117cf565b7001034b99036b4b9b9b4b733903937b6329607d1b6017918401918201528351611a3e8160288401602088016117cf565b01602801949350505050565b600060208284031215611a5c57600080fd5b8151801515811461139d57600080fd5b634e487b7160e01b600052601160045260246000fd5b808202811582820484141761046f5761046f611a6c565b8082018082111561046f5761046f611a6c565b634e487b7160e01b600052603260045260246000fd5b600081611ad157611ad1611a6c565b506000190190565b60008251611aeb8184602087016117cf565b919091019291505056fe250b76734a070a69c7b3930477dd35007ad9c9d0952e97903fdafb2db6980537793a6c9b7e0a9549c74edc2f9ae0dc50903dfaa9a56fb0116b27a8c71de3e2c630d41a597cac127d8249d31298b50e481ee82c3f4a49ff93c76a22735aa9f3ad360894a13ba1a3210667c828492db98dca3e2076cc3735a920a3ca505d382bbc416464726573733a206c6f772d6c6576656c2064656c65676174652063616c6c206661696c6564a49807205ce4d355092ef5a8a18f56e8913cf4a201fbe287825b095693c21775a264697066735822122080a84f39196d689558adfdad9ffd126effc5335f2acc7ddd22b2c9b46fcf368664736f6c63430008120033",
  "linkReferences": {},
  "deployedLinkReferences": {}
}