{
  "_format": "hh-sol-artifact-1",
  "contractName": "PermitFacet",
  "sourceName": "contracts/facets/PermitFacet.sol",
  "abi": [
    {
      "inputs": [],
      "name": "Expired",
      "type": "error"
    },
    {
      "inputs": [],
      "name": "InvalidAsset",
      "type": "error"
    },
    {
      "inputs": [],
      "name": "InvalidOwner",
      "type": "error"
    },
    {
      "inputs": [],
      "name": "InvalidSignature",
      "type": "error"
    },
    {
      "inputs": [],
      "name": "InvalidSpender",
      "type": "error"
    },
    {
      "inputs": [
        {
          "internalType": "address",
          "name": "asset",
          "type": "address"
        },
        {
          "internalType": "uint256",
          "name": "amount",
          "type": "uint256"
        },
        {
          "internalType": "address",
          "name": "spender",
          "type": "address"
        },
        {
          "internalType": "uint256",
          "name": "deadline",
          "type": "uint256"
        },
        {
          "internalType": "uint8",
          "name": "v",
          "type": "uint8"
        },
        {
          "internalType": "bytes32",
          "name": "r",
          "type": "bytes32"
        },
        {
          "internalType": "bytes32",
          "name": "s",
          "type": "bytes32"
        },
        {
          "internalType": "bool",
          "name": "skipRevert",
          "type": "bool"
        }
      ],
      "name": "permit",
      "outputs": [],
      "stateMutability": "nonpayable",
      "type": "function"
    },
    {
      "inputs": [
        {
          "internalType": "address",
          "name": "asset",
          "type": "address"
        },
        {
          "internalType": "uint256",
          "name": "amount",
          "type": "uint256"
        },
        {
          "internalType": "address",
          "name": "owner",
          "type": "address"
        },
        {
          "internalType": "uint256",
          "name": "deadline",
          "type": "uint256"
        },
        {
          "internalType": "uint8",
          "name": "v",
          "type": "uint8"
        },
        {
          "internalType": "bytes32",
          "name": "r",
          "type": "bytes32"
        },
        {
          "internalType": "bytes32",
          "name": "s",
          "type": "bytes32"
        },
        {
          "internalType": "bool",
          "name": "skipRevert",
          "type": "bool"
        }
      ],
      "name": "permitDiamond",
      "outputs": [],
      "stateMutability": "nonpayable",
      "type": "function"
    },
    {
      "inputs": [
        {
          "internalType": "address",
          "name": "asset",
          "type": "address"
        },
        {
          "internalType": "uint256",
          "name": "amount",
          "type": "uint256"
        },
        {
          "internalType": "address",
          "name": "owner",
          "type": "address"
        },
        {
          "internalType": "address",
          "name": "termContractAddress",
          "type": "address"
        },
        {
          "internalType": "uint256",
          "name": "deadline",
          "type": "uint256"
        },
        {
          "internalType": "uint8",
          "name": "v",
          "type": "uint8"
        },
        {
          "internalType": "bytes32",
          "name": "r",
          "type": "bytes32"
        },
        {
          "internalType": "bytes32",
          "name": "s",
          "type": "bytes32"
        },
        {
          "internalType": "bool",
          "name": "skipRevert",
          "type": "bool"
        }
      ],
      "name": "permitTermContract",
      "outputs": [],
      "stateMutability": "nonpayable",
      "type": "function"
    }
  ],
  "bytecode": "0x6080806040523461001657610780908161001c8239f35b600080fdfe6080604052600436101561001257600080fd5b6000803560e01c806347cedd7314610249578063aecc3d06146101a15763ecb1338a1461003e57600080fd5b3461019e5761004c366104f4565b969161005c969395919496610634565b4287111561018c576001600160a01b0392831692831561017a57808316156101685760008051602061070b8339815191525460081c168015610156578115801561014e575b6101305760ff8716601b8114159081610142575b50610130578996843b1561012c57879687936100e8926040519b8c998a98899763d505accf60e01b8952600489016105b9565b03925af19182610114575b5050610110576101016105f5565b901561010b575080f35b6106c7565b5080f35b61011d90610555565b6101285782386100f3565b8280fd5b8780fd5b604051638baa579f60e01b8152600490fd5b601c91501415386100b5565b5085156100a1565b6040516349e27cff60e01b8152600490fd5b604051635461585f60e01b8152600490fd5b604051636448d6e960e11b8152600490fd5b604051630407b05b60e31b8152600490fd5b80fd5b503461019e576101b0366104f4565b9691939295906101be610634565b4284111561018c576001600160a01b0392831692831561017a578616156101565784158015610241575b6101305760ff8716601b8114159081610235575b50610130578895833b15610231576100e887969287936040519a8b988997889663d505accf60e01b88523090600489016105b9565b8680fd5b601c91501415386101fc565b5080156101e8565b503461019e5761012036600319011261019e576004356001600160a01b03811681036104f0576044356001600160a01b0381169190829003610128576064356001600160a01b03811690036101285760ff60a43516908160a435036104ec5760c43591610104359384151585036104e8576102c2610634565b42608435111561018c576001600160a01b0383161561017a571561015657821580156104de575b61013057601b81141590816104d2575b5061013057838460008051602061072b83398151915254905b81811061039c575b5050156101685783916001600160a01b0382163b156101285782916103689160405194858094819363d505accf60e01b835260e4359060a435608435602435606435604435600489016105b9565b03926001600160a01b03165af19081610389575b50610110576101016105f5565b61039590939193610555565b913861037c565b60008051602061072b83398151915287527f7de105294af6b2ff9216855114747a67e3571720e19468ad540eeb7e9db5217e81015460405163e7e4b8db60e01b81526001600160a01b0360643581166004830152909116602082602481845afa9182156104c75789926104a6575b50811561042b575b5061041f57600101610312565b5050506001388061031a565b6040516319afa63b60e11b81526064356001600160a01b031660048201529150602090829060249082905afa90811561049b57889161046c575b5038610412565b61048e915060203d602011610494575b610486818361057e565b8101906105a1565b38610465565b503d61047c565b6040513d8a823e3d90fd5b6104c091925060203d60201161049457610486818361057e565b903861040a565b6040513d8b823e3d90fd5b601c91501415386102f9565b5060e435156102e9565b8580fd5b8380fd5b5080fd5b610100906003190112610550576001600160a01b036004358181168103610550579160243591604435908116810361055057906064359060843560ff81168103610550579060a4359060c4359060e43580151581036105505790565b600080fd5b6001600160401b03811161056857604052565b634e487b7160e01b600052604160045260246000fd5b601f909101601f19168101906001600160401b0382119082101761056857604052565b90816020910312610550575180151581036105505790565b9360ff929897969360c0969260e087019a60018060a01b0380921688521660208701526040860152606085015216608083015260a08201520152565b3d1561062f573d906001600160401b0382116105685760405191610623601f8201601f19166020018461057e565b82523d6000602084013e565b606090565b60008051602061070b8339815191525460081c6001600160a01b0316801561069257330361065e57565b60405162461bcd60e51b815260206004820152600c60248201526b1d5b985d5d1a1bdc9a5e995960a21b6044820152606490fd5b60405162461bcd60e51b815260206004820152600d60248201526c1d5b9a5b9a5d1a585b1a5e9959609a1b6044820152606490fd5b80519081156106d557602001fd5b60405162461bcd60e51b815260206004820152600d60248201526c18d85b1b081c995d995c9d1959609a1b6044820152606490fdfe2a2e13707d6b40952f0aec05e2811137753b06b56d55208636050ec9ee68dd782a2e13707d6b40952f0aec05e2811137753b06b56d55208636050ec9ee68dd7ea2646970667358221220144b6d6dbfe8be20961c89e857e88cde444eb87bbc7caa0aedc15227e3af3c5064736f6c63430008160033",
  "linkReferences": {},
  "deployedLinkReferences": {}
}