{
  "_format": "hh-sol-artifact-1",
  "contractName": "TestMaliciousStrategy",
  "sourceName": "contracts/test/TestMaliciousStrategy.sol",
  "abi": [
    {
      "inputs": [
        {
          "internalType": "address",
          "name": "_asset",
          "type": "address"
        },
        {
          "internalType": "address",
          "name": "_victim",
          "type": "address"
        },
        {
          "internalType": "address",
          "name": "_controller",
          "type": "address"
        }
      ],
      "stateMutability": "nonpayable",
      "type": "constructor"
    },
    {
      "inputs": [],
      "name": "asset",
      "outputs": [
        {
          "internalType": "address",
          "name": "",
          "type": "address"
        }
      ],
      "stateMutability": "view",
      "type": "function"
    },
    {
      "inputs": [],
      "name": "controller",
      "outputs": [
        {
          "internalType": "address",
          "name": "",
          "type": "address"
        }
      ],
      "stateMutability": "view",
      "type": "function"
    },
    {
      "inputs": [
        {
          "internalType": "address",
          "name": "repoToken",
          "type": "address"
        },
        {
          "internalType": "uint256",
          "name": "amount",
          "type": "uint256"
        }
      ],
      "name": "sellRepoToken",
      "outputs": [],
      "stateMutability": "nonpayable",
      "type": "function"
    },
    {
      "inputs": [],
      "name": "strategyState",
      "outputs": [
        {
          "components": [
            {
              "internalType": "address",
              "name": "assetVault",
              "type": "address"
            },
            {
              "internalType": "address",
              "name": "eventEmitter",
              "type": "address"
            },
            {
              "internalType": "address",
              "name": "governorAddress",
              "type": "address"
            },
            {
              "internalType": "address",
              "name": "prevTermController",
              "type": "address"
            },
            {
              "internalType": "address",
              "name": "currTermController",
              "type": "address"
            },
            {
              "internalType": "address",
              "name": "discountRateAdapter",
              "type": "address"
            },
            {
              "internalType": "uint256",
              "name": "timeToMaturityThreshold",
              "type": "uint256"
            },
            {
              "internalType": "uint256",
              "name": "requiredReserveRatio",
              "type": "uint256"
            },
            {
              "internalType": "uint256",
              "name": "discountRateMarkup",
              "type": "uint256"
            },
            {
              "internalType": "uint256",
              "name": "repoTokenConcentrationLimit",
              "type": "uint256"
            }
          ],
          "internalType": "struct TestMaliciousStrategy.StrategyState",
          "name": "",
          "type": "tuple"
        }
      ],
      "stateMutability": "view",
      "type": "function"
    },
    {
      "inputs": [],
      "name": "victim",
      "outputs": [
        {
          "internalType": "address",
          "name": "",
          "type": "address"
        }
      ],
      "stateMutability": "view",
      "type": "function"
    }
  ],
  "bytecode": "0x6080346100a057601f61046938819003918201601f19168301916001600160401b038311848410176100a5578084926060946040528339810103126100a057610047816100bb565b906100606040610059602084016100bb565b92016100bb565b60018060a01b0380928160018060a01b03199516856000541617600055168360015416176001551690600254161760025560405161039990816100d08239f35b600080fd5b634e487b7160e01b600052604160045260246000fd5b51906001600160a01b03821682036100a05756fe608080604052600436101561001357600080fd5b60003560e01c9081625446f21461021a5750806311b4e253146100d557806338d52e0f146100ac578063930c2003146100835763f77c47911461005557600080fd5b3461007e57600036600319011261007e576002546040516001600160a01b039091168152602090f35b600080fd5b3461007e57600036600319011261007e576001546040516001600160a01b039091168152602090f35b3461007e57600036600319011261007e576000546040516001600160a01b039091168152602090f35b3461007e57600036600319011261007e5760006101206040516100f78161030e565b8281528260208201528260408201528260608201528260808201528260a08201528260c08201528260e082015282610100820152015261014060018060a01b0360025416604051906101488261030e565b600082526000602083015260006040830152600060608301526080820152600060a0820152600060c0820152600060e082015260006101008201526000610120820152610120604051916000835260018060a01b03602082015116602084015260018060a01b03604082015116604084015260018060a01b03606082015116606084015260018060a01b03608082015116608084015260018060a01b0360a08201511660a084015260c081015160c084015260e081015160e08401526101008101516101008401520151610120820152f35b3461007e57604036600319011261007e576001600160a01b03600435818116929083900361007e576000926323b872dd60e01b825233600483015230602483015260243560448301528160648160209687945af180156102cf576102db575b5081816000541691600154166024604051809481936370a0823160e01b835260048301525afa80156102cf576102ab57005b813d83116102c8575b6102be8183610340565b8101031261007e57005b503d6102b4565b6040513d6000823e3d90fd5b8281813d8311610307575b6102f08183610340565b8101031261007e57518015150361007e5782610279565b503d6102e6565b61014081019081106001600160401b0382111761032a57604052565b634e487b7160e01b600052604160045260246000fd5b601f909101601f19168101906001600160401b0382119082101761032a5760405256fea264697066735822122049cf237462cd691b1425c41a1a254a5604b0baa7e64f76fd9817db9e8bd2811464736f6c63430008160033",
  "linkReferences": {},
  "deployedLinkReferences": {}
}