{
  "_format": "hh-sol-artifact-1",
  "contractName": "TestERC4626InterfaceFacetHelper",
  "sourceName": "contracts/test/TestERC4626InterfaceFacetHelper.sol",
  "abi": [
    {
      "inputs": [
        {
          "internalType": "address",
          "name": "target",
          "type": "address"
        }
      ],
      "name": "AddressEmptyCode",
      "type": "error"
    },
    {
      "inputs": [],
      "name": "AssetsMismatch",
      "type": "error"
    },
    {
      "inputs": [],
      "name": "ECDSAInvalidSignature",
      "type": "error"
    },
    {
      "inputs": [
        {
          "internalType": "uint256",
          "name": "length",
          "type": "uint256"
        }
      ],
      "name": "ECDSAInvalidSignatureLength",
      "type": "error"
    },
    {
      "inputs": [
        {
          "internalType": "bytes32",
          "name": "s",
          "type": "bytes32"
        }
      ],
      "name": "ECDSAInvalidSignatureS",
      "type": "error"
    },
    {
      "inputs": [],
      "name": "ExpiredSignature",
      "type": "error"
    },
    {
      "inputs": [],
      "name": "FailedCall",
      "type": "error"
    },
    {
      "inputs": [],
      "name": "IncorrectTargetAsset",
      "type": "error"
    },
    {
      "inputs": [],
      "name": "InputOutputTokenCollision",
      "type": "error"
    },
    {
      "inputs": [],
      "name": "InvalidSignature",
      "type": "error"
    },
    {
      "inputs": [],
      "name": "InvalidVaultAsset",
      "type": "error"
    },
    {
      "inputs": [],
      "name": "NoAssetsReceived",
      "type": "error"
    },
    {
      "inputs": [],
      "name": "NoSharesReceived",
      "type": "error"
    },
    {
      "inputs": [],
      "name": "ReentrancyGuardReentrantCall",
      "type": "error"
    },
    {
      "inputs": [
        {
          "internalType": "uint8",
          "name": "bits",
          "type": "uint8"
        },
        {
          "internalType": "uint256",
          "name": "value",
          "type": "uint256"
        }
      ],
      "name": "SafeCastOverflowedUintDowncast",
      "type": "error"
    },
    {
      "inputs": [
        {
          "internalType": "address",
          "name": "token",
          "type": "address"
        }
      ],
      "name": "SafeERC20FailedOperation",
      "type": "error"
    },
    {
      "inputs": [],
      "name": "SharesMismatch",
      "type": "error"
    },
    {
      "inputs": [],
      "name": "UnapprovedVault",
      "type": "error"
    },
    {
      "inputs": [],
      "name": "UnsupportedHookSelector",
      "type": "error"
    },
    {
      "inputs": [],
      "name": "UnsupportedSelector",
      "type": "error"
    },
    {
      "inputs": [],
      "name": "VaultAlreadyApproved",
      "type": "error"
    },
    {
      "inputs": [],
      "name": "VaultNotApproved",
      "type": "error"
    },
    {
      "anonymous": false,
      "inputs": [
        {
          "indexed": false,
          "internalType": "address",
          "name": "taker",
          "type": "address"
        },
        {
          "indexed": false,
          "internalType": "uint256",
          "name": "fillAmount",
          "type": "uint256"
        }
      ],
      "name": "SettleLimitBorrowCalled",
      "type": "event"
    },
    {
      "anonymous": false,
      "inputs": [
        {
          "indexed": false,
          "internalType": "address",
          "name": "taker",
          "type": "address"
        },
        {
          "indexed": false,
          "internalType": "uint256",
          "name": "fillAmount",
          "type": "uint256"
        }
      ],
      "name": "SettleLimitLendCalled",
      "type": "event"
    },
    {
      "anonymous": false,
      "inputs": [
        {
          "indexed": false,
          "internalType": "address",
          "name": "taker",
          "type": "address"
        },
        {
          "indexed": false,
          "internalType": "uint256",
          "name": "fillAmount",
          "type": "uint256"
        }
      ],
      "name": "SwapRepoTokenCalled",
      "type": "event"
    },
    {
      "inputs": [],
      "name": "VAULT_APPROVAL_TYPEHASH",
      "outputs": [
        {
          "internalType": "bytes32",
          "name": "",
          "type": "bytes32"
        }
      ],
      "stateMutability": "view",
      "type": "function"
    },
    {
      "inputs": [],
      "name": "WITHDRAW_SELECTOR",
      "outputs": [
        {
          "internalType": "bytes4",
          "name": "",
          "type": "bytes4"
        }
      ],
      "stateMutability": "view",
      "type": "function"
    },
    {
      "inputs": [
        {
          "internalType": "address",
          "name": "controller",
          "type": "address"
        }
      ],
      "name": "addApprovedTermController",
      "outputs": [],
      "stateMutability": "nonpayable",
      "type": "function"
    },
    {
      "inputs": [],
      "name": "clearActiveSettlementMaker",
      "outputs": [],
      "stateMutability": "nonpayable",
      "type": "function"
    },
    {
      "inputs": [
        {
          "internalType": "address",
          "name": "vault",
          "type": "address"
        },
        {
          "internalType": "uint256",
          "name": "assets",
          "type": "uint256"
        },
        {
          "internalType": "bool",
          "name": "usePermit2",
          "type": "bool"
        }
      ],
      "name": "depositToVault",
      "outputs": [
        {
          "internalType": "uint256",
          "name": "",
          "type": "uint256"
        }
      ],
      "stateMutability": "nonpayable",
      "type": "function"
    },
    {
      "inputs": [
        {
          "components": [
            {
              "internalType": "address",
              "name": "user",
              "type": "address"
            },
            {
              "internalType": "address",
              "name": "inputToken",
              "type": "address"
            },
            {
              "internalType": "uint256",
              "name": "maxInputAmount",
              "type": "uint256"
            },
            {
              "internalType": "address",
              "name": "outputToken",
              "type": "address"
            },
            {
              "internalType": "uint256",
              "name": "minOutputAmount",
              "type": "uint256"
            },
            {
              "internalType": "address",
              "name": "targetAddress",
              "type": "address"
            },
            {
              "internalType": "bytes",
              "name": "additionalCalldata",
              "type": "bytes"
            }
          ],
          "internalType": "struct ActionHookInput",
          "name": "input",
          "type": "tuple"
        }
      ],
      "name": "depositToVaultHook",
      "outputs": [
        {
          "internalType": "uint256",
          "name": "",
          "type": "uint256"
        }
      ],
      "stateMutability": "nonpayable",
      "type": "function"
    },
    {
      "inputs": [
        {
          "internalType": "address",
          "name": "user",
          "type": "address"
        },
        {
          "internalType": "address",
          "name": "inputToken",
          "type": "address"
        },
        {
          "internalType": "uint256",
          "name": "maxInputAmount",
          "type": "uint256"
        },
        {
          "internalType": "address",
          "name": "outputToken",
          "type": "address"
        },
        {
          "internalType": "uint256",
          "name": "minOutputAmount",
          "type": "uint256"
        },
        {
          "internalType": "bytes4",
          "name": "selector",
          "type": "bytes4"
        },
        {
          "internalType": "address",
          "name": "targetAddress",
          "type": "address"
        },
        {
          "internalType": "bytes",
          "name": "additionalCalldata",
          "type": "bytes"
        }
      ],
      "name": "generateActionCalldata",
      "outputs": [
        {
          "components": [
            {
              "internalType": "address",
              "name": "expectedInputToken",
              "type": "address"
            },
            {
              "internalType": "uint256",
              "name": "expectedInputAmount",
              "type": "uint256"
            },
            {
              "internalType": "address",
              "name": "expectedOutputToken",
              "type": "address"
            },
            {
              "internalType": "uint256",
              "name": "expectedOutputAmount",
              "type": "uint256"
            },
            {
              "internalType": "bool",
              "name": "isDeterministic",
              "type": "bool"
            }
          ],
          "internalType": "struct PreviewAction",
          "name": "",
          "type": "tuple"
        },
        {
          "internalType": "bytes",
          "name": "",
          "type": "bytes"
        }
      ],
      "stateMutability": "view",
      "type": "function"
    },
    {
      "inputs": [
        {
          "internalType": "bytes4",
          "name": "selector",
          "type": "bytes4"
        },
        {
          "internalType": "address",
          "name": "vault",
          "type": "address"
        },
        {
          "internalType": "address",
          "name": "asset",
          "type": "address"
        },
        {
          "internalType": "address",
          "name": "user",
          "type": "address"
        },
        {
          "internalType": "uint256",
          "name": "amount",
          "type": "uint256"
        },
        {
          "internalType": "bool",
          "name": "payoutUser",
          "type": "bool"
        },
        {
          "internalType": "bytes",
          "name": "data",
          "type": "bytes"
        }
      ],
      "name": "generateCalldata",
      "outputs": [
        {
          "internalType": "bytes",
          "name": "",
          "type": "bytes"
        }
      ],
      "stateMutability": "view",
      "type": "function"
    },
    {
      "inputs": [
        {
          "internalType": "address",
          "name": "token",
          "type": "address"
        }
      ],
      "name": "getAssetBalance",
      "outputs": [
        {
          "internalType": "uint256",
          "name": "",
          "type": "uint256"
        }
      ],
      "stateMutability": "view",
      "type": "function"
    },
    {
      "inputs": [
        {
          "components": [
            {
              "internalType": "address",
              "name": "user",
              "type": "address"
            },
            {
              "internalType": "address",
              "name": "inputToken",
              "type": "address"
            },
            {
              "internalType": "uint256",
              "name": "maxInputAmount",
              "type": "uint256"
            },
            {
              "internalType": "address",
              "name": "outputToken",
              "type": "address"
            },
            {
              "internalType": "uint256",
              "name": "minOutputAmount",
              "type": "uint256"
            },
            {
              "internalType": "address",
              "name": "targetAddress",
              "type": "address"
            },
            {
              "internalType": "bytes",
              "name": "additionalCalldata",
              "type": "bytes"
            }
          ],
          "internalType": "struct ActionHookInput",
          "name": "actionHookInput",
          "type": "tuple"
        }
      ],
      "name": "previewDeposit",
      "outputs": [
        {
          "components": [
            {
              "internalType": "address",
              "name": "expectedInputToken",
              "type": "address"
            },
            {
              "internalType": "uint256",
              "name": "expectedInputAmount",
              "type": "uint256"
            },
            {
              "internalType": "address",
              "name": "expectedOutputToken",
              "type": "address"
            },
            {
              "internalType": "uint256",
              "name": "expectedOutputAmount",
              "type": "uint256"
            },
            {
              "internalType": "bool",
              "name": "isDeterministic",
              "type": "bool"
            }
          ],
          "internalType": "struct PreviewAction",
          "name": "",
          "type": "tuple"
        }
      ],
      "stateMutability": "view",
      "type": "function"
    },
    {
      "inputs": [
        {
          "internalType": "bytes4",
          "name": "",
          "type": "bytes4"
        }
      ],
      "name": "previewMapping",
      "outputs": [
        {
          "internalType": "bytes4",
          "name": "",
          "type": "bytes4"
        }
      ],
      "stateMutability": "view",
      "type": "function"
    },
    {
      "inputs": [
        {
          "components": [
            {
              "internalType": "address",
              "name": "user",
              "type": "address"
            },
            {
              "internalType": "address",
              "name": "inputToken",
              "type": "address"
            },
            {
              "internalType": "uint256",
              "name": "maxInputAmount",
              "type": "uint256"
            },
            {
              "internalType": "address",
              "name": "outputToken",
              "type": "address"
            },
            {
              "internalType": "uint256",
              "name": "minOutputAmount",
              "type": "uint256"
            },
            {
              "internalType": "address",
              "name": "targetAddress",
              "type": "address"
            },
            {
              "internalType": "bytes",
              "name": "additionalCalldata",
              "type": "bytes"
            }
          ],
          "internalType": "struct ActionHookInput",
          "name": "actionHookInput",
          "type": "tuple"
        }
      ],
      "name": "previewRedeem",
      "outputs": [
        {
          "components": [
            {
              "internalType": "address",
              "name": "expectedInputToken",
              "type": "address"
            },
            {
              "internalType": "uint256",
              "name": "expectedInputAmount",
              "type": "uint256"
            },
            {
              "internalType": "address",
              "name": "expectedOutputToken",
              "type": "address"
            },
            {
              "internalType": "uint256",
              "name": "expectedOutputAmount",
              "type": "uint256"
            },
            {
              "internalType": "bool",
              "name": "isDeterministic",
              "type": "bool"
            }
          ],
          "internalType": "struct PreviewAction",
          "name": "",
          "type": "tuple"
        }
      ],
      "stateMutability": "view",
      "type": "function"
    },
    {
      "inputs": [
        {
          "internalType": "address",
          "name": "vault",
          "type": "address"
        },
        {
          "internalType": "uint256",
          "name": "shares",
          "type": "uint256"
        },
        {
          "internalType": "bool",
          "name": "usePermit2",
          "type": "bool"
        }
      ],
      "name": "redeemFromVault",
      "outputs": [
        {
          "internalType": "uint256",
          "name": "",
          "type": "uint256"
        }
      ],
      "stateMutability": "nonpayable",
      "type": "function"
    },
    {
      "inputs": [
        {
          "components": [
            {
              "internalType": "address",
              "name": "user",
              "type": "address"
            },
            {
              "internalType": "address",
              "name": "inputToken",
              "type": "address"
            },
            {
              "internalType": "uint256",
              "name": "maxInputAmount",
              "type": "uint256"
            },
            {
              "internalType": "address",
              "name": "outputToken",
              "type": "address"
            },
            {
              "internalType": "uint256",
              "name": "minOutputAmount",
              "type": "uint256"
            },
            {
              "internalType": "address",
              "name": "targetAddress",
              "type": "address"
            },
            {
              "internalType": "bytes",
              "name": "additionalCalldata",
              "type": "bytes"
            }
          ],
          "internalType": "struct ActionHookInput",
          "name": "input",
          "type": "tuple"
        }
      ],
      "name": "redeemFromVaultHook",
      "outputs": [
        {
          "internalType": "uint256",
          "name": "",
          "type": "uint256"
        }
      ],
      "stateMutability": "nonpayable",
      "type": "function"
    },
    {
      "inputs": [],
      "name": "removeAllTermControllers",
      "outputs": [],
      "stateMutability": "nonpayable",
      "type": "function"
    },
    {
      "inputs": [
        {
          "internalType": "address",
          "name": "vault",
          "type": "address"
        },
        {
          "internalType": "uint256",
          "name": "assets",
          "type": "uint256"
        },
        {
          "internalType": "address",
          "name": "user",
          "type": "address"
        },
        {
          "internalType": "bool",
          "name": "usePermit2",
          "type": "bool"
        },
        {
          "internalType": "bool",
          "name": "payoutToUser",
          "type": "bool"
        }
      ],
      "name": "selfCallWithdrawFromVault",
      "outputs": [
        {
          "internalType": "uint256",
          "name": "",
          "type": "uint256"
        }
      ],
      "stateMutability": "nonpayable",
      "type": "function"
    },
    {
      "inputs": [
        {
          "internalType": "address",
          "name": "maker",
          "type": "address"
        }
      ],
      "name": "setActiveSettlementMaker",
      "outputs": [],
      "stateMutability": "nonpayable",
      "type": "function"
    },
    {
      "inputs": [
        {
          "internalType": "bytes32",
          "name": "separator",
          "type": "bytes32"
        }
      ],
      "name": "setEip712DomainSeparator",
      "outputs": [],
      "stateMutability": "nonpayable",
      "type": "function"
    },
    {
      "inputs": [
        {
          "internalType": "address",
          "name": "user",
          "type": "address"
        },
        {
          "internalType": "address",
          "name": "vault",
          "type": "address"
        },
        {
          "internalType": "bool",
          "name": "approved",
          "type": "bool"
        }
      ],
      "name": "setUserApprovedVault",
      "outputs": [],
      "stateMutability": "nonpayable",
      "type": "function"
    },
    {
      "inputs": [
        {
          "components": [
            {
              "internalType": "address",
              "name": "repoServicer",
              "type": "address"
            },
            {
              "internalType": "uint256",
              "name": "purchaseTokenAmount",
              "type": "uint256"
            },
            {
              "internalType": "uint256[]",
              "name": "collateralAmounts",
              "type": "uint256[]"
            },
            {
              "internalType": "uint256",
              "name": "offerRate",
              "type": "uint256"
            },
            {
              "internalType": "address",
              "name": "maker",
              "type": "address"
            },
            {
              "internalType": "address",
              "name": "taker",
              "type": "address"
            },
            {
              "internalType": "uint256",
              "name": "borrowFee",
              "type": "uint256"
            },
            {
              "internalType": "address",
              "name": "feeRecipient",
              "type": "address"
            },
            {
              "internalType": "uint256",
              "name": "expiry",
              "type": "uint256"
            },
            {
              "internalType": "uint256",
              "name": "salt",
              "type": "uint256"
            },
            {
              "components": [
                {
                  "internalType": "bytes4",
                  "name": "method",
                  "type": "bytes4"
                },
                {
                  "internalType": "address",
                  "name": "target",
                  "type": "address"
                },
                {
                  "internalType": "bytes",
                  "name": "additionalCalldata",
                  "type": "bytes"
                }
              ],
              "internalType": "struct ITermIntent.RetrieveFundsStruct[]",
              "name": "retrieveFundsList",
              "type": "tuple[]"
            }
          ],
          "internalType": "struct ITermIntent.LimitBorrowOrder",
          "name": "",
          "type": "tuple"
        },
        {
          "internalType": "address",
          "name": "taker",
          "type": "address"
        },
        {
          "internalType": "uint256",
          "name": "fillAmount",
          "type": "uint256"
        },
        {
          "components": [
            {
              "internalType": "enum ITermIntent.SignatureType",
              "name": "sigType",
              "type": "uint8"
            },
            {
              "internalType": "bytes",
              "name": "sigData",
              "type": "bytes"
            }
          ],
          "internalType": "struct ITermIntent.Signature",
          "name": "",
          "type": "tuple"
        }
      ],
      "name": "settleLimitBorrow",
      "outputs": [],
      "stateMutability": "nonpayable",
      "type": "function"
    },
    {
      "inputs": [
        {
          "components": [
            {
              "internalType": "address",
              "name": "repoServicer",
              "type": "address"
            },
            {
              "internalType": "uint256",
              "name": "purchaseTokenAmount",
              "type": "uint256"
            },
            {
              "internalType": "uint256",
              "name": "offerRate",
              "type": "uint256"
            },
            {
              "internalType": "address",
              "name": "maker",
              "type": "address"
            },
            {
              "internalType": "address",
              "name": "taker",
              "type": "address"
            },
            {
              "internalType": "uint256",
              "name": "borrowFee",
              "type": "uint256"
            },
            {
              "internalType": "address",
              "name": "feeRecipient",
              "type": "address"
            },
            {
              "internalType": "uint256",
              "name": "expiry",
              "type": "uint256"
            },
            {
              "internalType": "uint256",
              "name": "salt",
              "type": "uint256"
            },
            {
              "components": [
                {
                  "internalType": "bytes4",
                  "name": "method",
                  "type": "bytes4"
                },
                {
                  "internalType": "address",
                  "name": "target",
                  "type": "address"
                },
                {
                  "internalType": "bytes",
                  "name": "additionalCalldata",
                  "type": "bytes"
                }
              ],
              "internalType": "struct ITermIntent.RetrieveFundsStruct",
              "name": "retrieveFunds",
              "type": "tuple"
            }
          ],
          "internalType": "struct ITermIntent.LimitLendOrder",
          "name": "",
          "type": "tuple"
        },
        {
          "internalType": "address",
          "name": "taker",
          "type": "address"
        },
        {
          "internalType": "uint256",
          "name": "fillAmount",
          "type": "uint256"
        },
        {
          "internalType": "uint256[]",
          "name": "",
          "type": "uint256[]"
        },
        {
          "components": [
            {
              "internalType": "enum ITermIntent.SignatureType",
              "name": "sigType",
              "type": "uint8"
            },
            {
              "internalType": "bytes",
              "name": "sigData",
              "type": "bytes"
            }
          ],
          "internalType": "struct ITermIntent.Signature",
          "name": "",
          "type": "tuple"
        }
      ],
      "name": "settleLimitLend",
      "outputs": [],
      "stateMutability": "nonpayable",
      "type": "function"
    },
    {
      "inputs": [
        {
          "components": [
            {
              "internalType": "address",
              "name": "repoToken",
              "type": "address"
            },
            {
              "internalType": "bool",
              "name": "makerAssetIsPurchaseToken",
              "type": "bool"
            },
            {
              "internalType": "uint256",
              "name": "purchaseTokenAmount",
              "type": "uint256"
            },
            {
              "internalType": "uint256",
              "name": "discountRate",
              "type": "uint256"
            },
            {
              "internalType": "address",
              "name": "maker",
              "type": "address"
            },
            {
              "internalType": "address",
              "name": "taker",
              "type": "address"
            },
            {
              "internalType": "uint256",
              "name": "makerFee",
              "type": "uint256"
            },
            {
              "internalType": "uint256",
              "name": "takerFee",
              "type": "uint256"
            },
            {
              "internalType": "address",
              "name": "feeRecipient",
              "type": "address"
            },
            {
              "internalType": "uint256",
              "name": "expiry",
              "type": "uint256"
            },
            {
              "internalType": "uint256",
              "name": "salt",
              "type": "uint256"
            },
            {
              "components": [
                {
                  "internalType": "bytes4",
                  "name": "method",
                  "type": "bytes4"
                },
                {
                  "internalType": "address",
                  "name": "target",
                  "type": "address"
                },
                {
                  "internalType": "bytes",
                  "name": "additionalCalldata",
                  "type": "bytes"
                }
              ],
              "internalType": "struct ITermIntent.RetrieveFundsStruct",
              "name": "retrieveFunds",
              "type": "tuple"
            }
          ],
          "internalType": "struct ITermIntent.RepoTokenSwapOrder",
          "name": "",
          "type": "tuple"
        },
        {
          "internalType": "address",
          "name": "taker",
          "type": "address"
        },
        {
          "internalType": "uint256",
          "name": "fillAmount",
          "type": "uint256"
        },
        {
          "components": [
            {
              "internalType": "enum ITermIntent.SignatureType",
              "name": "sigType",
              "type": "uint8"
            },
            {
              "internalType": "bytes",
              "name": "sigData",
              "type": "bytes"
            }
          ],
          "internalType": "struct ITermIntent.Signature",
          "name": "",
          "type": "tuple"
        }
      ],
      "name": "swapRepoToken",
      "outputs": [],
      "stateMutability": "nonpayable",
      "type": "function"
    },
    {
      "inputs": [
        {
          "internalType": "address",
          "name": "vault",
          "type": "address"
        },
        {
          "internalType": "uint256",
          "name": "deadline",
          "type": "uint256"
        },
        {
          "internalType": "bytes",
          "name": "sigData",
          "type": "bytes"
        }
      ],
      "name": "userApproveVault",
      "outputs": [],
      "stateMutability": "nonpayable",
      "type": "function"
    },
    {
      "inputs": [
        {
          "internalType": "address",
          "name": "vault",
          "type": "address"
        }
      ],
      "name": "userRevokeVault",
      "outputs": [],
      "stateMutability": "nonpayable",
      "type": "function"
    },
    {
      "inputs": [
        {
          "internalType": "address",
          "name": "vault",
          "type": "address"
        },
        {
          "internalType": "uint256",
          "name": "assets",
          "type": "uint256"
        },
        {
          "internalType": "address",
          "name": "user",
          "type": "address"
        },
        {
          "internalType": "bool",
          "name": "usePermit2",
          "type": "bool"
        },
        {
          "internalType": "bool",
          "name": "payoutToUser",
          "type": "bool"
        }
      ],
      "name": "withdrawFromVault",
      "outputs": [
        {
          "internalType": "uint256",
          "name": "",
          "type": "uint256"
        }
      ],
      "stateMutability": "nonpayable",
      "type": "function"
    },
    {
      "inputs": [
        {
          "internalType": "address",
          "name": "vault",
          "type": "address"
        },
        {
          "internalType": "uint256",
          "name": "assets",
          "type": "uint256"
        },
        {
          "internalType": "bool",
          "name": "usePermit2",
          "type": "bool"
        }
      ],
      "name": "withdrawFromVault",
      "outputs": [
        {
          "internalType": "uint256",
          "name": "",
          "type": "uint256"
        }
      ],
      "stateMutability": "nonpayable",
      "type": "function"
    }
  ],
  "bytecode": "0x6080806040523461009157600160008181556020919091527f778b248d7f63fdee5fdbeb3e3ab7d19b4fbdac3eb7619dbf9177ebb62aca339a805463ffffffff19908116639eb23e1517909155633204506760e11b9091527fd8036a4a534d290482bc5588e42c1f55c5a61b97c88f1c290a05d716726c4b53805490911663d33dea3817905561327f90816100978239f35b600080fdfe60806040908082526004918236101561001757600080fd5b60009160e08335811c9182630bda54c314611c57575081630c1c002614611c3557816319d394f314611a7a57816325d0f9271461190a57816336f01046146117be5781635373433f1461172a5781636408a0ce1461159b578163763fc1b414611574578163876f90c2146114da5781638c136f24146112af5781638dae4694146110675781639a68f4a714610ea35781639e3623f014610e725781639eb23e1514610ccf5781639ef72eff14610a95578163a2020a58146109c3578163aa36688d14610973578163c3246edc14610934578163cde1a4d2146108b9578163cfde6768146106be578163d33dea3814610504578163dda5e05b1461038c57508063e0b406c114610364578063e458ef0f14610303578063fbf99164146102905763ff9fbc711461014557600080fd5b3461028c5761015336611fc4565b9461015f929192612390565b84856000805160206131ca83398151915254905b8160ff8216106101dc575b505015806101b5575b6101a7575060209460019261019f9233913391612992565b925551908152f35b835163476706bf60e01b8152fd5b506101bf33612099565b60018060a01b03831660005260205260ff84600020541615610187565b60246101e78261214f565b9054895163e81cf11760e01b81526001600160a01b038981168983015260209491938593859392849260031b9190911c165afa918215610282578a92610248575b505061023c5761023790612128565b610173565b5050506001388061017e565b90809250813d831161027b575b61025f8183611cf9565b81010312610277576102709061218c565b3880610228565b8880fd5b503d610255565b89513d8c823e3d90fd5b5080fd5b5082346102ff5760203660031901126102ff576102ab611d32565b906102b533612099565b9160018060a01b0316918260005260205260ff836000205416156102f157506102dd33612099565b600091825260205220805460ff1916905580f35b825163135c860560e01b8152fd5b8280fd5b503461028c57606036600319011261028c5761031d611d32565b90610326611d1c565b6044359283151580940361035f5761033d90612099565b9060018060a01b03166000526020526000209060ff8019835416911617905580f35b600080fd5b823461038957602036600319011261038957610386610381611d32565b6122d4565b80f35b80fd5b9184915034610500576003196080368201126104e3576001600160401b03938335908582116104e757610180809383360301126104e7578351928301838110878211176104eb5784526103e0828601611d5e565b83526024820135801515810361035f5760208401526044820135848401526064820135606084015261041460848301611d5e565b608084015261042560a48301611d5e565b60a084015260c482013560c084015260e48201359083015261044a6101048201611d5e565b6101008301526101248101356101208301526101448101356101408301526101648101358581116104e75761016091856104879236920101611e62565b910152610492611d1c565b906064359384116104e3576104ce6104dd937fb9802f761262c639de778cc189664aa21f9f9e6bc3d6844354b4fb92661e310895369101611ed3565b5051918291604435908361207e565b0390a180f35b8480fd5b8680fd5b604186634e487b7160e01b6000525260246000fd5b8380fd5b5050913461028c5761051536611f53565b9161051e612302565b506001600160a01b03908161053560a086016120d2565b169385516338d52e0f60e01b91828252602091828188818b5afa90811561066b57889187918791610685575b501614610675576080013594875192630a28a47760e01b8452868285015282846024818b5afa93841561066b57859461063c575b50829089519283918252818a5afa9384156106315780946105e9575b60a0886105e78b8a8a8a8a8a8551976105c989611ca8565b88528701521682850152606084015260016080840152518092611ff7565bf35b909180945082813d831161062a575b6106028183611cf9565b8101031261038957509160a096939161061e6105e79694612199565b939581939598506105b1565b503d6105f8565b8851903d90823e3d90fd5b9093508281813d8311610664575b6106548183611cf9565b8101031261035f57519282610595565b503d61064a565b89513d87823e3d90fd5b8751635542f09960e01b81528690fd5b925050508281813d83116106b7575b61069e8183611cf9565b810103126104e357856106b18992612199565b38610561565b503d610694565b50509034610389576106cf36612030565b919394909660018060a01b038086168033148015610875575b8015610833575b6106f991506120e6565b82836000805160206131ca83398151915254905b8160ff821610610794575b5050159081610771575b50610763575091602096939161074d95933033149182159261075b575b505015610754578192612992565b9051908152f35b3092612992565b91503861073f565b865163476706bf60e01b8152fd5b905061077c86612099565b90871660005260205260ff8760002054161538610722565b61079d8161214f565b9054908c519063e81cf11760e01b8252868d16888301528160248189602096879560031b1c165afa9182156108295788926107f3575b50506107e7576107e290612128565b61070d565b50505060013880610718565b90809250813d8311610822575b61080a8183611cf9565b810103126104e75761081b9061218c565b38806107d3565b503d610800565b8d513d8a823e3d90fd5b508160008051602061320a833981519152541690811515918261086b575b505080610862575b6106f9906106ef565b50333014610859565b1490503880610851565b503033148061089f575b80156106e85750808260008051602061318a8339815191525416146106e8565b508160008051602061318a8339815191525416151561087f565b50505034610389576020366003190112610389576108d5611d32565b6000805160206131ca833981519152805490600160401b821015610921576001820190556109029061214f565b60018060a09493941b038084549260031b9316831b921b191617905580f35b634e487b7160e01b845260418552602484fd5b9050346102ff5760203660031901126102ff576020926001600160e01b03199190839083610960611de9565b168152600186522054901b915191168152f35b83346103895780600319360112610389576000805160206131ca833981519152805490828155816109a2578280f35b825260208220908101905b8181106109b8578280f35b8281556001016109ad565b50503461028c576109d336612030565b939190926109e0826122d4565b85516319fbcced60e31b81526001600160a01b03938416988101989098526024880152166044860152151560648501521515608484015260208360a48185305af1918215610a8a5791610a55575b60008051602061320a83398151915280546001600160a01b03191690555190815260209150f35b90506020823d602011610a82575b81610a7060209383611cf9565b8101031261035f576020915190610a2e565b3d9150610a63565b9051903d90823e3d90fd5b91849150346105005761010036600319011261050057610ab3611d32565b92610abc611d1c565b610ac4611d48565b6001600160e01b03199660a4359688881692919083890361035f576001600160a01b039760c43589811694919085900361035f5760e4356001600160401b0381116104e357610b169036908301611e1b565b95610b1f612302565b5084526020976001895289852054901b9b8c1615610cc1575082899a9b610bdb938b8394818d9e610b959e5194610b5586611cc3565b169b8c8552168c8401528d6044359084015216606082015260843560808201528660a08201528760c08201528b519a8b918b83019384526024830161232d565b0399610ba9601f199b8c8101835282611cf9565b5190305afa3d15610cb9573d90610bbf82611e00565b91610bcc8b519384611cf9565b82523d848984013e5b30613126565b9060a0828051810103126103895750610c9a93610ca4999693889693610c8e93610cb59a519b610c0a8d611ca8565b898d82610c188a8601612199565b8083528386015192838c820152610c3160608801612199565b80958201526080610c4e60a0828a0151998a60608601520161218c565b9101528d5198610c5d8a611cc3565b895216898801528b870152166060850152608084015260a083015260c082015285519687938401526024830161232d565b03908101845283611cf9565b5193848094611ff7565b60c060a084015260c0830190611f84565b0390f35b606090610bd5565b8851631416e68f60e01b8152fd5b5050913461028c57610ce036611f53565b610ce8612302565b506001600160a01b039081610cff60a083016120d2565b16918551906338d52e0f60e01b9283835260209283818881895afa908115610e2b57869184918a91610e35575b50161461067557608001359487519363b3d7f6b960e01b855286828601528385602481895afa948515610e2b578895610dfc575b5083908951928391825281885afa968715610631578097610db2575b60a0886105e78b8a8a8a8a8a855197610d9489611ca8565b16875286015282850152606084015260016080840152518092611ff7565b909196508282813d8311610df5575b610dcb8183611cf9565b8101031261038957509160a0969391610de76105e79694612199565b969193958193959850610d7c565b503d610dc1565b9094508381813d8311610e24575b610e148183611cf9565b8101031261035f57519383610d60565b503d610e0a565b89513d8a823e3d90fd5b925050508381813d8311610e6b575b610e4e8183611cf9565b81010312610e675782610e618792612199565b38610d2c565b8780fd5b503d610e44565b833461038957806003193601126103895760008051602061320a83398151915280546001600160a01b031916905580f35b50503461028c57610eb336611fc4565b909194610ebe612390565b84856000805160206131ca83398151915254905b8160ff821610610fc8575b50501580610fa1575b6101a7576001600160a01b0386169115610f8457610f038361295f565b6e22d473030f116ddee9f6b43ac78ba391823b156104e75791610f429391878094885196879586948593631b63c28b60e11b85523090339086016122aa565b03925af18015610f7757610f63575b5061019f6020946001925b33916123e0565b610f6d8491611c7f565b6102ff5738610f51565b50505051903d90823e3d90fd5b5060209482610f9c60019461019f9430903390612916565b610f5c565b50610fab33612099565b60018060a01b03871660005260205260ff84600020541615610ee6565b610fd18161214f565b9054885163e81cf11760e01b81526001600160a01b038c811688830152602093919284928492602492849260031b1c165afa918215610282578a92611031575b50506110255761102090612128565b610ed2565b50505060013880610edd565b90809250813d8311611060575b6110488183611cf9565b81010312610277576110599061218c565b3880611011565b503d61103e565b50503461028c5761107736611fc4565b61107f612390565b84856000805160206131ca83398151915254905b8160ff821610611209575b505015806111e3575b6111d35783516338d52e0f60e01b81526001600160a01b039060208189818886165afa9081156111c957879161118f575b50169015611172576110e98261295f565b6e22d473030f116ddee9f6b43ac78ba396873b156104e75761112897879283859389519b8c9586948593631b63c28b60e11b85523090339086016122aa565b03925af19586156111685760209661114c575b509161019f916001935b33926126d2565b91600193919561115e61019f94611c7f565b959193509161113b565b84513d87823e3d90fd5b60209550918160019361118a61019f94303384612916565b611145565b90506020813d6020116111c1575b816111aa60209383611cf9565b810103126104e7576111bb90612199565b386110d8565b3d915061119d565b86513d89823e3d90fd5b835163476706bf60e01b81528690fd5b506111ed33612099565b6001600160a01b03841686526020528385205460ff16156110a7565b886112138261214f565b9054895163e81cf11760e01b81526001600160a01b038a811694820194909452602093909284928492602492849260039190911b1c165afa918215610282578a92611279575b505061126d5761126890612128565b611093565b5050506001388061109e565b90809250813d83116112a8575b6112908183611cf9565b81010312610277576112a19061218c565b3880611259565b503d611286565b50503461028c576112bf36611f53565b6112c8816120d2565b60008051602061322a833981519152546001600160a01b03916112fb918316801515918490836114ce575b5050506120e6565b611303612390565b60a08201611310816120d2565b611319846120d2565b90868791856000805160206131ca833981519152549116925b8160ff82161061142c575b505015918261140c575b50506111d3576020958684019261135d846120d2565b9082898261136a876120d2565b168951928380926338d52e0f60e01b82525afa908115611402579082918a916113ca575b50169116036113bc57509161019f916113b16113ab6001956120d2565b916120d2565b8530930135916126d2565b8451631b3b488360e11b8152fd5b8092508b8092503d83116113fb575b6113e38183611cf9565b81010312610277576113f58291612199565b3861138e565b503d6113d9565b88513d8b823e3d90fd5b611417919250612099565b90865260205260ff8486205416153880611347565b8a6114368261214f565b91905491868c519263e81cf11760e01b8452830152816024818c602096879560031b1c165afa9182156114c4578c9261148a575b505061147e5761147990612128565b611332565b5050506001388061133d565b90809250813d83116114bd575b6114a18183611cf9565b810103126114b9576114b29061218c565b388061146a565b8a80fd5b503d611497565b8b513d8e823e3d90fd5b161490503883816112f3565b84915034610500573660031901126102ff576114f4611de9565b906114fd611d1c565b604435906001600160a01b038216820361157057611519611d48565b9260a4359687151588036103895760c435906001600160401b03821161038957509161155261155d969492610cb5999694369101611f26565b5050608435936121ad565b9051918291602083526020830190611f84565b8580fd5b83853461028c57602036600319011261028c57356000805160206131ea8339815191525580f35b50503461028c576115ab36611f53565b926115b5846120d2565b60008051602061322a833981519152546001600160a01b0392916115e89184168015159185908361171e575050506120e6565b6115f0612390565b60a08501916115fe836120d2565b90611608876120d2565b9186908792806000805160206131ca833981519152549216935b8260ff821610611689575b505050159182611669575b505061165b575061019f6020946116506001936120d2565b8430920135906123e0565b825163476706bf60e01b8152fd5b611674919250612099565b90855260205260ff8385205416153880611638565b6116928161214f565b9054908a519063e81cf11760e01b8252878a8301528160248187602096879560031b1c165afa9182156114c4578c926116e8575b50506116da576116d590612128565b611622565b50505050600138808061162d565b90809250813d8311611717575b6116ff8183611cf9565b810103126114b9576117109061218c565b38806116c6565b503d6116f5565b161490503884816112f3565b50503461028c57602092836003193601126102ff57836001600160a01b03611750611d32565b169160248451809481936370a0823160e01b835230908301525afa9283156117b3578093611781575b505051908152f35b909192508382813d83116117ac575b61179a8183611cf9565b81010312610389575051903880611779565b503d611790565b8251903d90823e3d90fd5b91849150346105005760031960a0368201126104e3576001600160401b03938335908582116104e757610140809383360301126104e7578351928301838110878211176118f7578452611812828601611d5e565b83526024820135602084015260448201358484015261183360648301611d5e565b606084015261184460848301611d5e565b608084015260a482013560a084015261185f60c48301611d5e565b60c084015260e4820135908301526101048101356101008301526101248101358581116104e75761012091856118989236920101611e62565b9101526118a3611d1c565b90606435848111611570576118bb9036908501611d89565b506084359384116104e3576104ce6104dd937f012637bb4782a2d1887f362b849b4fc712e085f2df9972a1f8279ee83bc3ccd395369101611ed3565b634e487b7160e01b885260418652602488fd5b505082346102ff5760603660031901126102ff57611926611d32565b60243591906044356001600160401b038111611570576119499036908401611f26565b9190844211611a6a5761195b33612099565b9460018060a01b038093169586895260205260ff8789205416611a5a5781606091885160208101916000805160206131aa8339815191528352898b83015233858301526080820152608081526119b081611ca8565b5190206000805160206131ea8339815191525490895190602082019261190160f01b845260228301526042820152604281526119eb81611cde565b51902094810103126104e75780359060ff82168203610e6757611a2493611a1b9260208984013593013591612e5d565b90939193612ed7565b33911603611a4c5750611a3633612099565b9083526020528120805460ff1916600117905580f35b8251638baa579f60e01b8152fd5b8651636349e7d160e01b81528590fd5b855163df4cc36d60e01b81528490fd5b9184915034610500576003196080368201126104e3576001600160401b0393833591908583116104e757610160809284360301126104e7578351918201828110878211176118f7578452611acf838601611d5e565b8252602492602091602482013560208501526044820135888111611c3157611afc90883691850101611d89565b8685015260648201356060850152611b1660848301611d5e565b6080850152611b2760a48301611d5e565b60a085015260c482013560c0850152611b4260e48301611d5e565b908401526101048101356101008401526101248101356101208401526101448101359087821161027757019236602385011215610e675785840135611b8681611d72565b94611b9387519687611cf9565b8186526024602087019260051b820101923684116114b95760248201925b848410611c07575050505050506101400152611bcb611d1c565b906064359384116104e3576104ce6104dd937f7aabec7ffdfa0d4dc5788d44c93645332126de2873491efb459c313515cf477695369101611ed3565b83358b8111611c2d578691611c228392853691880101611e62565b815201930192611bb1565b8c80fd5b8980fd5b50503461028c578160031936011261028c57516319fbcced60e31b8152602090f35b84903461028c578160031936011261028c57806000805160206131aa83398151915260209252f35b6001600160401b038111611c9257604052565b634e487b7160e01b600052604160045260246000fd5b60a081019081106001600160401b03821117611c9257604052565b60e081019081106001600160401b03821117611c9257604052565b608081019081106001600160401b03821117611c9257604052565b601f909101601f19168101906001600160401b03821190821017611c9257604052565b602435906001600160a01b038216820361035f57565b600435906001600160a01b038216820361035f57565b606435906001600160a01b038216820361035f57565b35906001600160a01b038216820361035f57565b6001600160401b038111611c925760051b60200190565b9080601f8301121561035f576020908235611da381611d72565b93611db16040519586611cf9565b81855260208086019260051b82010192831161035f57602001905b828210611dda575050505090565b81358152908301908301611dcc565b600435906001600160e01b03198216820361035f57565b6001600160401b038111611c9257601f01601f191660200190565b81601f8201121561035f57803590611e3282611e00565b92611e406040519485611cf9565b8284526020838301011161035f57816000926020809301838601378301015290565b91909160608184031261035f57604051906001600160401b03906060830182811184821017611c92576040528294813563ffffffff60e01b8116810361035f578452611eb060208301611d5e565b6020850152604082013592831161035f57604092611ece9201611e1b565b910152565b91909160408184031261035f5760408051916001600160401b0391830182811184821017611c925760405282948135600281101561035f578452602082013592831161035f57602092611ece9201611e1b565b9181601f8401121561035f578235916001600160401b03831161035f576020838186019501011161035f57565b6003199060208183011261035f57600435916001600160401b03831161035f578260e09203011261035f5760040190565b919082519283825260005b848110611fb0575050826000602080949584010152601f8019910116010190565b602081830181015184830182015201611f8f565b606090600319011261035f576004356001600160a01b038116810361035f579060243590604435801515810361035f5790565b6080809160018060a01b038082511685526020820151602086015260408201511660408501526060810151606085015201511515910152565b60a090600319011261035f576001600160a01b03600435818116810361035f579160243591604435908116810361035f5790606435801515810361035f5790608435801515810361035f5790565b6001600160a01b039091168152602081019190915260400190565b6001600160a01b031660009081527fffcd7dce0f1bdcc4ef49162b69a11a63d8c8a97a63c4374f38f9662548316d336020526040902090565b356001600160a01b038116810361035f5790565b156120ed57565b60405162461bcd60e51b81526020600482015260136024820152722ab730baba3437b934bd32b21031b0b63632b960691b6044820152606490fd5b60ff1660ff81146121395760010190565b634e487b7160e01b600052601160045260246000fd5b6000805160206131ca83398151915280548210156121765760005260206000200190600090565b634e487b7160e01b600052603260045260246000fd5b5190811515820361035f57565b51906001600160a01b038216820361035f57565b94939092916001600160e01b031986166319fbcced60e31b03612298576040516338d52e0f60e01b81526001600160a01b039485169190602081600481865afa801561228c578690600090612251575b8192501691160361223f576040519560208701526024860152604485015216606483015260006084830152151560a482015260a4815261223c81611cc3565b90565b60405163065a1c4760e31b8152600490fd5b50506020813d602011612284575b8161226c60209383611cf9565b8101031261035f578561227f8192612199565b6121fd565b3d915061225f565b6040513d6000823e3d90fd5b604051631e8b844160e01b8152600490fd5b6001600160a01b039182168152918116602083015291821660408201529116606082015260800190565b60008051602061320a83398151915280546001600160a01b0319166001600160a01b03909216919091179055565b6040519061230f82611ca8565b60006080838281528260208201528260408201528260608201520152565b61010060c061223c936020845260018060a01b0380825116602086015280602083015116604086015260408201516060860152806060830151166080860152608082015160a086015260a0820151168285015201519160e0808201520190611f84565b6002600054146123a1576002600055565b604051633ee5aeb560e01b8152600490fd5b9081526001600160a01b0391821660208201529116604082015260600190565b9190820391821161213957565b604080516338d52e0f60e01b81529394936004926020916001600160a01b03908183169084818881855afa9081156126c75790839160009161268f575b5016908551926370a0823160e01b908185528b1680898601528685602481875afa9485156125d657600095612660575b50875195828752308a8801528787602481875afa96871561265557998b9c9d819c9a9b60009961261f575b509089916124878c8589613015565b8c51635d043b2960e11b81529e8f9283926124a592309285016123b3565b0381875a90600091f19b8c156126145760009c6125e1575b50906124ca889285612f5c565b60248b8b5196879384928784528301525afa9283156125d6579086916000946125a5575b5060248951809481938252308d8301525afa94851561259a5760009561256a575b50508181111561255a5790612523916123d3565b860361254a5790612533916123d3565b0361253d57505090565b51632bd02d8d60e21b8152fd5b50505051634b23010f60e11b8152fd5b8551636e52f1ed60e11b81528790fd5b9080929550813d8311612593575b6125828183611cf9565b8101031261035f575192388061250f565b503d612578565b87513d6000823e3d90fd5b8281939295503d83116125cf575b6125bd8183611cf9565b8101031261035f5785905192386124ee565b503d6125b3565b88513d6000823e3d90fd5b91909b508782813d831161260d575b6125fa8183611cf9565b8101031261035f5790519a6124ca6124bd565b503d6125f0565b8a513d6000823e3d90fd5b9a509750508789813d831161264e575b6126398183611cf9565b8101031261035f57878b8d9a51989091612478565b503d61262f565b89513d6000823e3d90fd5b9094508681813d8311612688575b6126788183611cf9565b8101031261035f5751933861244d565b503d61266e565b809250868092503d83116126c0575b6126a88183611cf9565b8101031261035f576126ba8391612199565b3861241d565b503d61269e565b86513d6000823e3d90fd5b929160018060a01b038080861693166040938451906370a0823160e01b93848352600497169283888401526020948584602481865afa9384156125d6576000946128e7575b50875194818652308a8701528686602481865afa958615612655576000966128b8575b50612746888c85613015565b88519a636e553f6560e01b8c52888b8d01528160248d0152878c6044816000895af19b8c156126145760009c612885575b5090612784889285612f5c565b60248b8b5196879384928784528301525afa9283156125d657908691600094612854575b5060248951809481938252308d8301525afa94851561259a57600095612824575b50508181111561281457906127dd916123d3565b860361280457906127ed916123d3565b036127f757505090565b51634b23010f60e11b8152fd5b50505051632bd02d8d60e21b8152fd5b8551633b1ef45960e21b81528790fd5b9080929550813d831161284d575b61283c8183611cf9565b8101031261035f57519238806127c9565b503d612832565b8281939295503d831161287e575b61286c8183611cf9565b8101031261035f5785905192386127a8565b503d612862565b91909b508782813d83116128b1575b61289e8183611cf9565b8101031261035f5790519a612784612777565b503d612894565b9095508681813d83116128e0575b6128d08183611cf9565b8101031261035f5751943861273a565b503d6128c6565b9093508581813d831161290f575b6128ff8183611cf9565b8101031261035f57519238612717565b503d6128f5565b6040516323b872dd60e01b60208201526001600160a01b03928316602482015292909116604483015260648083019390935291815261295d9161295882611ca8565b6130ca565b565b6001600160a01b0390818111612973571690565b604490604051906306dfcc6560e41b825260a060048301526024820152fd5b6040516338d52e0f60e01b815293949390916000906020836004816001600160a01b0388165afa928315612e52578293612e16575b506040516370a0823160e01b81526001600160a01b0388811660048301529093906020908590602490829085165afa938415612e0b578394612dd7575b50604051630a28a47760e01b815260048101839052966020886024816001600160a01b038a165afa978815612c89578498612da3575b50306001600160a01b03881603612d08575b506040516370a0823160e01b8152306004820152936020856024816001600160a01b038a165afa948515612c89578495612cd4575b50612a9688876001600160a01b038116613015565b604051632d182be560e21b81529860208a80612ab7308589600485016123b3565b0381886001600160a01b038c165af1998a15612cc957859a612c94575b50602090612aeb886001600160a01b038116612f5c565b6040516370a0823160e01b81526001600160a01b0391821660048201529384916024918391165afa918215612c89578492612c55575b506040516370a0823160e01b81523060048201526020816024816001600160a01b038b165afa948515612c495794612c15575b5080821115612c0357612b66916123d3565b03612bf157612b74916123d3565b808503612bdf57838110612b8a575b5050505090565b612b9a612bc891612bd6956123d3565b60405163a9059cbb60e01b6020820152938491612bba916024840161207e565b03601f198101845283611cf9565b6001600160a01b03166130ca565b38808080612b83565b604051632bd02d8d60e21b8152600490fd5b604051634b23010f60e11b8152600490fd5b604051636e52f1ed60e11b8152600490fd5b9093506020813d602011612c41575b81612c3160209383611cf9565b8101031261035f57519238612b54565b3d9150612c24565b604051903d90823e3d90fd5b9091506020813d602011612c81575b81612c7160209383611cf9565b8101031261035f57519038612b21565b3d9150612c64565b6040513d86823e3d90fd5b9099506020813d602011612cc1575b81612cb060209383611cf9565b8101031261035f5751986020612ad4565b3d9150612ca3565b6040513d87823e3d90fd5b9094506020813d602011612d00575b81612cf060209383611cf9565b8101031261035f57519338612a81565b3d9150612ce3565b15612d8957612d168761295f565b6e22d473030f116ddee9f6b43ac78ba390813b156104e35787612d5f928692838a60405196879586948593631b63c28b60e11b855260018060a01b0316913090600486016122aa565b03925af18015612c8957612d76575b505b38612a4c565b612d8290939193611c7f565b9138612d6e565b612d9e8730886001600160a01b038916612916565b612d70565b9097506020813d602011612dcf575b81612dbf60209383611cf9565b8101031261050057519638612a3a565b3d9150612db2565b9093506020813d602011612e03575b81612df360209383611cf9565b810103126102ff57519238612a04565b3d9150612de6565b6040513d85823e3d90fd5b9092506020813d602011612e4a575b81612e3260209383611cf9565b8101031261028c57612e4390612199565b91386129c7565b3d9150612e25565b6040513d84823e3d90fd5b91906fa2a8918ca85bafe22016d0b997e4df60600160ff1b038411612ecb57926020929160ff608095604051948552168484015260408301526060820152600092839182805260015afa15612c495780516001600160a01b03811615612ec257918190565b50809160019190565b50505060009160039190565b6004811015612f465780612ee9575050565b60018103612f035760405163f645eedf60e01b8152600490fd5b60028103612f245760405163fce698f760e01b815260048101839052602490fd5b600314612f2e5750565b602490604051906335e2f38360e21b82526004820152fd5b634e487b7160e01b600052602160045260246000fd5b60405190602082019263095ea7b360e01b80855260018060a01b038092169182602486015260206000809781604489015260448852612f9a88611cde565b87519082885af1903d87519083612ff4575b50505015612fbc575b5050505050565b612fea94612958926040519260208401526024830152604482015260448152612fe481611cde565b826130ca565b3880808080612fb5565b9192509061300b575083163b15155b388080612fac565b6001915014613003565b604051916020600081850161304b8661303d63095ea7b360e01b998a8552876024840161207e565b03601f198101885287611cf9565b85519082865af16000513d826130a5575b50501561306a575b50505050565b61309c936129589160405191602083015260018060a01b031660248201526000604482015260448152612fe481611cde565b38808080613064565b9091506130c257506001600160a01b0382163b15155b388061305c565b6001146130bb565b906000602091828151910182855af11561228c576000513d61311d57506001600160a01b0381163b155b6130fb5750565b604051635274afe760e01b81526001600160a01b039091166004820152602490fd5b600114156130f4565b9061314d575080511561313b57805190602001fd5b60405163d6bda27560e01b8152600490fd5b81511580613180575b61315e575090565b604051639996b31560e01b81526001600160a01b039091166004820152602490fd5b50803b1561315656fe2a2e13707d6b40952f0aec05e2811137753b06b56d55208636050ec9ee68dd7b296316d96522d3cb9aa9898679a863cee6a92d85d6df12a8bb7c2c3f9750d3e82a2e13707d6b40952f0aec05e2811137753b06b56d55208636050ec9ee68dd7e2a2e13707d6b40952f0aec05e2811137753b06b56d55208636050ec9ee68dd7c2a2e13707d6b40952f0aec05e2811137753b06b56d55208636050ec9ee68dd79c9e4fb8bffaf71b56abf2a5032f2ea641e97267f8c0d9bcf66c86998c650d62aa26469706673582212204778c0daa3b7101b076432488be8be453372361dd317eabbcfe57b6404e3adfb64736f6c63430008160033",
  "linkReferences": {},
  "deployedLinkReferences": {}
}