{
  "_format": "hh-sol-artifact-1",
  "contractName": "TestAtomicTxProtectionHelper",
  "sourceName": "contracts/test/TestAtomicTxProtectionHelper.sol",
  "abi": [
    {
      "inputs": [],
      "name": "clearAtomicTxInitiator",
      "outputs": [],
      "stateMutability": "nonpayable",
      "type": "function"
    },
    {
      "inputs": [
        {
          "internalType": "address",
          "name": "a",
          "type": "address"
        }
      ],
      "name": "setAtomicTxInitiator",
      "outputs": [],
      "stateMutability": "nonpayable",
      "type": "function"
    }
  ],
  "bytecode": "0x6080806040523461001657610107908161001c8239f35b600080fdfe6004361015600c57600080fd5b6000803560e01c806394ca48fe14605c5763b9fe8d4014602b57600080fd5b34605957806003193601126059576000805160206100b283398151915280546001600160a01b031916905580f35b80fd5b503460595760203660031901126059576004356001600160a01b038116810360ad576000805160206100b283398151915280546001600160a01b0319166001600160a01b0390921691909117905580f35b5080fdfe2a2e13707d6b40952f0aec05e2811137753b06b56d55208636050ec9ee68dd7aa2646970667358221220d5045c814a86a146f0acea721431aecca52b051e7b1cbe4fe274c82465d6373464736f6c63430008160033",
  "linkReferences": {},
  "deployedLinkReferences": {}
}