{
  "_format": "hh-sol-artifact-1",
  "contractName": "TestPartialConsumeVault",
  "sourceName": "contracts/test/TestPartialConsumeVault.sol",
  "abi": [
    {
      "inputs": [
        {
          "internalType": "address",
          "name": "spender",
          "type": "address"
        },
        {
          "internalType": "uint256",
          "name": "allowance",
          "type": "uint256"
        },
        {
          "internalType": "uint256",
          "name": "needed",
          "type": "uint256"
        }
      ],
      "name": "ERC20InsufficientAllowance",
      "type": "error"
    },
    {
      "inputs": [
        {
          "internalType": "address",
          "name": "sender",
          "type": "address"
        },
        {
          "internalType": "uint256",
          "name": "balance",
          "type": "uint256"
        },
        {
          "internalType": "uint256",
          "name": "needed",
          "type": "uint256"
        }
      ],
      "name": "ERC20InsufficientBalance",
      "type": "error"
    },
    {
      "inputs": [
        {
          "internalType": "address",
          "name": "approver",
          "type": "address"
        }
      ],
      "name": "ERC20InvalidApprover",
      "type": "error"
    },
    {
      "inputs": [
        {
          "internalType": "address",
          "name": "receiver",
          "type": "address"
        }
      ],
      "name": "ERC20InvalidReceiver",
      "type": "error"
    },
    {
      "inputs": [
        {
          "internalType": "address",
          "name": "sender",
          "type": "address"
        }
      ],
      "name": "ERC20InvalidSender",
      "type": "error"
    },
    {
      "inputs": [
        {
          "internalType": "address",
          "name": "spender",
          "type": "address"
        }
      ],
      "name": "ERC20InvalidSpender",
      "type": "error"
    },
    {
      "inputs": [],
      "name": "InvalidInitialization",
      "type": "error"
    },
    {
      "inputs": [],
      "name": "NotInitializing",
      "type": "error"
    },
    {
      "anonymous": false,
      "inputs": [
        {
          "indexed": true,
          "internalType": "address",
          "name": "owner",
          "type": "address"
        },
        {
          "indexed": true,
          "internalType": "address",
          "name": "spender",
          "type": "address"
        },
        {
          "indexed": false,
          "internalType": "uint256",
          "name": "value",
          "type": "uint256"
        }
      ],
      "name": "Approval",
      "type": "event"
    },
    {
      "anonymous": false,
      "inputs": [
        {
          "indexed": true,
          "internalType": "address",
          "name": "sender",
          "type": "address"
        },
        {
          "indexed": true,
          "internalType": "address",
          "name": "owner",
          "type": "address"
        },
        {
          "indexed": false,
          "internalType": "uint256",
          "name": "assets",
          "type": "uint256"
        },
        {
          "indexed": false,
          "internalType": "uint256",
          "name": "shares",
          "type": "uint256"
        }
      ],
      "name": "Deposit",
      "type": "event"
    },
    {
      "anonymous": false,
      "inputs": [
        {
          "indexed": false,
          "internalType": "uint64",
          "name": "version",
          "type": "uint64"
        }
      ],
      "name": "Initialized",
      "type": "event"
    },
    {
      "anonymous": false,
      "inputs": [
        {
          "indexed": true,
          "internalType": "address",
          "name": "from",
          "type": "address"
        },
        {
          "indexed": true,
          "internalType": "address",
          "name": "to",
          "type": "address"
        },
        {
          "indexed": false,
          "internalType": "uint256",
          "name": "value",
          "type": "uint256"
        }
      ],
      "name": "Transfer",
      "type": "event"
    },
    {
      "anonymous": false,
      "inputs": [
        {
          "indexed": true,
          "internalType": "address",
          "name": "sender",
          "type": "address"
        },
        {
          "indexed": true,
          "internalType": "address",
          "name": "receiver",
          "type": "address"
        },
        {
          "indexed": true,
          "internalType": "address",
          "name": "owner",
          "type": "address"
        },
        {
          "indexed": false,
          "internalType": "uint256",
          "name": "assets",
          "type": "uint256"
        },
        {
          "indexed": false,
          "internalType": "uint256",
          "name": "shares",
          "type": "uint256"
        }
      ],
      "name": "Withdraw",
      "type": "event"
    },
    {
      "inputs": [
        {
          "internalType": "address",
          "name": "owner",
          "type": "address"
        },
        {
          "internalType": "address",
          "name": "spender",
          "type": "address"
        }
      ],
      "name": "allowance",
      "outputs": [
        {
          "internalType": "uint256",
          "name": "",
          "type": "uint256"
        }
      ],
      "stateMutability": "view",
      "type": "function"
    },
    {
      "inputs": [
        {
          "internalType": "address",
          "name": "spender",
          "type": "address"
        },
        {
          "internalType": "uint256",
          "name": "value",
          "type": "uint256"
        }
      ],
      "name": "approve",
      "outputs": [
        {
          "internalType": "bool",
          "name": "",
          "type": "bool"
        }
      ],
      "stateMutability": "nonpayable",
      "type": "function"
    },
    {
      "inputs": [],
      "name": "asset",
      "outputs": [
        {
          "internalType": "address",
          "name": "",
          "type": "address"
        }
      ],
      "stateMutability": "view",
      "type": "function"
    },
    {
      "inputs": [
        {
          "internalType": "address",
          "name": "account",
          "type": "address"
        }
      ],
      "name": "balanceOf",
      "outputs": [
        {
          "internalType": "uint256",
          "name": "",
          "type": "uint256"
        }
      ],
      "stateMutability": "view",
      "type": "function"
    },
    {
      "inputs": [
        {
          "internalType": "uint256",
          "name": "shares",
          "type": "uint256"
        }
      ],
      "name": "convertToAssets",
      "outputs": [
        {
          "internalType": "uint256",
          "name": "",
          "type": "uint256"
        }
      ],
      "stateMutability": "pure",
      "type": "function"
    },
    {
      "inputs": [
        {
          "internalType": "uint256",
          "name": "assets",
          "type": "uint256"
        }
      ],
      "name": "convertToShares",
      "outputs": [
        {
          "internalType": "uint256",
          "name": "",
          "type": "uint256"
        }
      ],
      "stateMutability": "pure",
      "type": "function"
    },
    {
      "inputs": [],
      "name": "decimals",
      "outputs": [
        {
          "internalType": "uint8",
          "name": "",
          "type": "uint8"
        }
      ],
      "stateMutability": "view",
      "type": "function"
    },
    {
      "inputs": [
        {
          "internalType": "uint256",
          "name": "assets",
          "type": "uint256"
        },
        {
          "internalType": "address",
          "name": "receiver",
          "type": "address"
        }
      ],
      "name": "deposit",
      "outputs": [
        {
          "internalType": "uint256",
          "name": "shares",
          "type": "uint256"
        }
      ],
      "stateMutability": "nonpayable",
      "type": "function"
    },
    {
      "inputs": [
        {
          "internalType": "address",
          "name": "asset_",
          "type": "address"
        },
        {
          "internalType": "string",
          "name": "name_",
          "type": "string"
        },
        {
          "internalType": "string",
          "name": "symbol_",
          "type": "string"
        }
      ],
      "name": "initialize",
      "outputs": [],
      "stateMutability": "nonpayable",
      "type": "function"
    },
    {
      "inputs": [
        {
          "internalType": "address",
          "name": "",
          "type": "address"
        }
      ],
      "name": "maxDeposit",
      "outputs": [
        {
          "internalType": "uint256",
          "name": "",
          "type": "uint256"
        }
      ],
      "stateMutability": "pure",
      "type": "function"
    },
    {
      "inputs": [
        {
          "internalType": "address",
          "name": "",
          "type": "address"
        }
      ],
      "name": "maxMint",
      "outputs": [
        {
          "internalType": "uint256",
          "name": "",
          "type": "uint256"
        }
      ],
      "stateMutability": "pure",
      "type": "function"
    },
    {
      "inputs": [
        {
          "internalType": "address",
          "name": "owner",
          "type": "address"
        }
      ],
      "name": "maxRedeem",
      "outputs": [
        {
          "internalType": "uint256",
          "name": "",
          "type": "uint256"
        }
      ],
      "stateMutability": "view",
      "type": "function"
    },
    {
      "inputs": [
        {
          "internalType": "address",
          "name": "owner",
          "type": "address"
        }
      ],
      "name": "maxWithdraw",
      "outputs": [
        {
          "internalType": "uint256",
          "name": "",
          "type": "uint256"
        }
      ],
      "stateMutability": "view",
      "type": "function"
    },
    {
      "inputs": [
        {
          "internalType": "uint256",
          "name": "shares",
          "type": "uint256"
        },
        {
          "internalType": "address",
          "name": "receiver",
          "type": "address"
        }
      ],
      "name": "mint",
      "outputs": [
        {
          "internalType": "uint256",
          "name": "assets",
          "type": "uint256"
        }
      ],
      "stateMutability": "nonpayable",
      "type": "function"
    },
    {
      "inputs": [],
      "name": "name",
      "outputs": [
        {
          "internalType": "string",
          "name": "",
          "type": "string"
        }
      ],
      "stateMutability": "view",
      "type": "function"
    },
    {
      "inputs": [
        {
          "internalType": "uint256",
          "name": "assets",
          "type": "uint256"
        }
      ],
      "name": "previewDeposit",
      "outputs": [
        {
          "internalType": "uint256",
          "name": "",
          "type": "uint256"
        }
      ],
      "stateMutability": "pure",
      "type": "function"
    },
    {
      "inputs": [
        {
          "internalType": "uint256",
          "name": "shares",
          "type": "uint256"
        }
      ],
      "name": "previewMint",
      "outputs": [
        {
          "internalType": "uint256",
          "name": "",
          "type": "uint256"
        }
      ],
      "stateMutability": "pure",
      "type": "function"
    },
    {
      "inputs": [
        {
          "internalType": "uint256",
          "name": "shares",
          "type": "uint256"
        }
      ],
      "name": "previewRedeem",
      "outputs": [
        {
          "internalType": "uint256",
          "name": "",
          "type": "uint256"
        }
      ],
      "stateMutability": "pure",
      "type": "function"
    },
    {
      "inputs": [
        {
          "internalType": "uint256",
          "name": "assets",
          "type": "uint256"
        }
      ],
      "name": "previewWithdraw",
      "outputs": [
        {
          "internalType": "uint256",
          "name": "",
          "type": "uint256"
        }
      ],
      "stateMutability": "pure",
      "type": "function"
    },
    {
      "inputs": [
        {
          "internalType": "uint256",
          "name": "shares",
          "type": "uint256"
        },
        {
          "internalType": "address",
          "name": "receiver",
          "type": "address"
        },
        {
          "internalType": "address",
          "name": "owner",
          "type": "address"
        }
      ],
      "name": "redeem",
      "outputs": [
        {
          "internalType": "uint256",
          "name": "assets",
          "type": "uint256"
        }
      ],
      "stateMutability": "nonpayable",
      "type": "function"
    },
    {
      "inputs": [],
      "name": "symbol",
      "outputs": [
        {
          "internalType": "string",
          "name": "",
          "type": "string"
        }
      ],
      "stateMutability": "view",
      "type": "function"
    },
    {
      "inputs": [],
      "name": "totalAssets",
      "outputs": [
        {
          "internalType": "uint256",
          "name": "",
          "type": "uint256"
        }
      ],
      "stateMutability": "view",
      "type": "function"
    },
    {
      "inputs": [],
      "name": "totalSupply",
      "outputs": [
        {
          "internalType": "uint256",
          "name": "",
          "type": "uint256"
        }
      ],
      "stateMutability": "view",
      "type": "function"
    },
    {
      "inputs": [
        {
          "internalType": "address",
          "name": "to",
          "type": "address"
        },
        {
          "internalType": "uint256",
          "name": "value",
          "type": "uint256"
        }
      ],
      "name": "transfer",
      "outputs": [
        {
          "internalType": "bool",
          "name": "",
          "type": "bool"
        }
      ],
      "stateMutability": "nonpayable",
      "type": "function"
    },
    {
      "inputs": [
        {
          "internalType": "address",
          "name": "from",
          "type": "address"
        },
        {
          "internalType": "address",
          "name": "to",
          "type": "address"
        },
        {
          "internalType": "uint256",
          "name": "value",
          "type": "uint256"
        }
      ],
      "name": "transferFrom",
      "outputs": [
        {
          "internalType": "bool",
          "name": "",
          "type": "bool"
        }
      ],
      "stateMutability": "nonpayable",
      "type": "function"
    },
    {
      "inputs": [
        {
          "internalType": "uint256",
          "name": "assets",
          "type": "uint256"
        },
        {
          "internalType": "address",
          "name": "receiver",
          "type": "address"
        },
        {
          "internalType": "address",
          "name": "owner",
          "type": "address"
        }
      ],
      "name": "withdraw",
      "outputs": [
        {
          "internalType": "uint256",
          "name": "shares",
          "type": "uint256"
        }
      ],
      "stateMutability": "nonpayable",
      "type": "function"
    }
  ],
  "bytecode": "0x6080806040523461001657611216908161001c8239f35b600080fdfe608060408181526004908136101561001657600080fd5b600091823560e01c93846301e1d11414610b1d5750836306fdde0314610a8257836307a2d13a14610145578363095ea7b3146109db5783630a28a4771461014557836318160ddd146109b057836323b872dd14610974578363313ce5671461095957836338d52e0f14610932578363402d267d146101985783634cdad506146101455783636e553f651461085a57836370a082311461080b578363906571471461045557836394bf804d1461039c57836395d89b41146102ce578363a9059cbb1461029e578363b3d7f6b914610145578363b460af941461019d578363ba0876521461019d57508263c63d75b614610198578263c6e6f59214610145578263ce96cb7714610193578263d905777e14610193578263dd62ed3e1461014a57505063ef8b30f71461014557600080fd5b610bff565b3461018f578060031936011261018f5780602092610166610c21565b610177610171610c37565b91610dd1565b6001600160a01b039091168252845220549051908152f35b5080fd5b610d37565b610c4d565b903461029a576101ac36610d02565b919361020760208660018060a01b03936101d0828689169889330361028a57611038565b858a86815416928a519687958694859363a9059cbb60e01b855284016001600160a01b039091168152602081019190915260400190565b03925af180156102805760209750610253575b50835191858352858784015216907ffbde797d201c681b91056529119e0b02407c7bb96a4a2c75c01fc9667232c8db843392a451908152f35b61027290873d8911610279575b61026a8183610c73565b810190610d97565b508661021a565b503d610260565b85513d89823e3d90fd5b610295823383610e28565b611038565b8280fd5b503461018f578060031936011261018f576020906102c76102bd610c21565b6024359033610ef0565b5160018152f35b503461018f578160031936011261018f57805190826000805160206111418339815191529081546102fe81610d5d565b91828652602093600192600181169081600014610378575060011461033d575b610339878761032f828c0383610c73565b5191829182610bb6565b0390f35b9080949750528583205b82841061036557505050826103399461032f9282010194868061031e565b8054868501880152928601928101610347565b60ff19168887015250505050151560051b830101925061032f82610339868061031e565b903461029a578060031936011261029a578135916103b8610c37565b906103ea60208560018060a01b039384895416908988518096819582946323b872dd60e01b8452309033908501610daf565b03925af1801561044b576020965061042e575b506104088483610fb8565b825191848352848684015216906000805160206111c1833981519152833392a351908152f35b61044490863d88116102795761026a8183610c73565b50856103fd565b84513d88823e3d90fd5b3461029a57606036600319011261029a5761046e610c21565b6001600160401b0391906024358381116108075761048f9036908401610cac565b90604435848111610803576104a79036908501610cac565b6000805160206111a18339815191529485549460ff86891c161594828716968715806107fc575b600180991490816107f2575b1590816107e9575b506107d9576001600160401b0319811688178955866107be575b506105056110d1565b61050d6110d1565b80518381116107ab5780600080516020611101833981519152926105318454610d5d565b601f8111610756575b506020908d601f84116001146106f757926106ec575b5050600019600383901b1c191690881b1790555b82519182116106d9575080600080516020611141833981519152926105898454610d5d565b601f8111610687575b50602090601f8311600114610628578a9261061d575b5050600019600383901b1c191690851b1790555b85546001600160a01b0319166001600160a01b03919091161785556105df578380f35b815460ff60401b191690915590519081527fc7f505b2f371ae2175ee4913f4499e1f2633a7b5936321eed1cdaeb6115181d290602090a18180808380f35b0151905089806105a8565b848b52818b208894509190601f1984168c5b81811061066f57508411610656575b505050811b0190556105bc565b015160001960f88460031b161c19169055898080610649565b8284015185558a96909401936020938401930161063a565b909150838a5260208a20601f840160051c810191602085106106cf575b84939291601f8a920160051c01915b8281106106c1575050610592565b8c81558594508991016106b3565b90915081906106a4565b634e487b7160e01b895260419052602488fd5b015190508c80610550565b91908b9450601f198416868452828420935b81811061073e57508411610725575b505050811b019055610564565b015160001960f88460031b161c191690558c8080610718565b8284015185558d969094019360209384019301610709565b909150838d5260208d20601f840160051c810191602085106107a1575b8e85949392601f8e930160051c0192905b8382106107935750505061053a565b81558594508c91018f610784565b9091508190610773565b634e487b7160e01b8b526041835260248bfd5b6001600160481b0319166001600160401b011788558a6104fc565b895163f92ee8a960e01b81528390fd5b9050158c6104e2565b303b1591506104da565b50866104ce565b8680fd5b8580fd5b503461018f57602036600319011261018f5760209061085361082b610c21565b6001600160a01b03166000908152600080516020611121833981519152602052604090205490565b9051908152f35b903461029a578060031936011261029a57813591610876610c37565b90605a8402848104605a148515171561091f5760649004916108bf60208460018060a01b0394858a5416908a89518096819582946323b872dd60e01b8452309033908501610daf565b03925af180156102805760209750610902575b506108dd8582610fb8565b8351928352848684015216906000805160206111c1833981519152833392a351908152f35b61091890873d89116102795761026a8183610c73565b50866108d2565b634e487b7160e01b865260118252602486fd5b503461018f578160031936011261018f57905490516001600160a01b039091168152602090f35b503461018f578160031936011261018f576020905160128152f35b503461018f57606036600319011261018f576020906102c7610994610c21565b61099c610c37565b604435916109ab833383610e28565b610ef0565b503461018f578160031936011261018f57602090600080516020611161833981519152549051908152f35b3461029a578160031936011261029a576109f3610c21565b602435903315610a6b576001600160a01b0316918215610a5457508083602095610a1c33610dd1565b8582528752205582519081527f8c5be1e5ebec7d5bd14f71427d1e84f3dd0314c0f7b2291e5b200ac8c7c3b925843392a35160018152f35b8351634a1406b160e11b8152908101859052602490fd5b835163e602df0560e01b8152808401869052602490fd5b503461018f578160031936011261018f5780519082600080516020611101833981519152908154610ab281610d5d565b918286526020936001926001811690816000146103785750600114610ae257610339878761032f828c0383610c73565b9080949750528583205b828410610b0a57505050826103399461032f9282010194868061031e565b8054868501880152928601928101610aec565b919034610bb25783600319360112610bb25783546370a0823160e01b84523091840191909152602090839060249082906001600160a01b03165afa918215610ba8578392610b70575b6020838351908152f35b9091506020813d602011610ba0575b81610b8c60209383610c73565b8101031261029a5760209250519083610b66565b3d9150610b7f565b81513d85823e3d90fd5b8380fd5b6020808252825181830181905290939260005b828110610beb57505060409293506000838284010152601f8019910116010190565b818101860151848201604001528501610bc9565b34610c1c576020366003190112610c1c5760206040516004358152f35b600080fd5b600435906001600160a01b0382168203610c1c57565b602435906001600160a01b0382168203610c1c57565b34610c1c576020366003190112610c1c57610c66610c21565b5060206040516000198152f35b601f909101601f19168101906001600160401b03821190821017610c9657604052565b634e487b7160e01b600052604160045260246000fd5b81601f82011215610c1c578035906001600160401b038211610c965760405192610ce0601f8401601f191660200185610c73565b82845260208383010111610c1c57816000926020809301838601378301015290565b6060906003190112610c1c57600435906001600160a01b03906024358281168103610c1c57916044359081168103610c1c5790565b34610c1c576020366003190112610c1c576020610d5561082b610c21565b604051908152f35b90600182811c92168015610d8d575b6020831014610d7757565b634e487b7160e01b600052602260045260246000fd5b91607f1691610d6c565b90816020910312610c1c57518015158103610c1c5790565b6001600160a01b03918216815291166020820152604081019190915260600190565b6001600160a01b031660009081527f52c63247e1f47db19d5ce0460030c497f067ca4cebf71ba98eeadabe20bace016020526040902090565b604091949392606082019560018060a01b0316825260208201520152565b9190610e3383610dd1565b9260018060a01b0390818316916000958387526020526040862054936000198510610e62575b50505050505050565b858510610ecd5750811615610eb4578115610e9b5790610e856040949392610dd1565b9085526020520391205538808080808080610e59565b604051634a1406b160e11b815260048101869052602490fd5b60405163e602df0560e01b815260048101869052602490fd5b8490610eec87604051938493637dc7a0d960e11b855260048501610e0a565b0390fd5b916001600160a01b03808416928315610f9f5716928315610f865760009083825260008051602061112183398151915280602052604083205491848310610f6757508284600080516020611181833981519152959360409388602097528652038282205586815220818154019055604051908152a3565b9050610eec8460405193849363391434e360e21b855260048501610e0a565b60405163ec442f0560e01b815260006004820152602490fd5b604051634b637e8f60e11b815260006004820152602490fd5b6001600160a01b0316908115610f8657600080516020611161833981519152805490828201809211611022576000926000805160206111818339815191529260209255848452600080516020611121833981519152825260408420818154019055604051908152a3565b634e487b7160e01b600052601160045260246000fd5b91906001600160a01b038316908115610f9f578160005260008051602061112183398151915280602052604060002054948286106110b257508160008051602061118183398151915292600095966020938688528452036040862055600080516020611161833981519152818154039055604051908152a3565b8590610eec8460405193849363391434e360e21b855260048501610e0a565b60ff6000805160206111a18339815191525460401c16156110ee57565b604051631afcd79f60e31b8152600490fdfe52c63247e1f47db19d5ce0460030c497f067ca4cebf71ba98eeadabe20bace0352c63247e1f47db19d5ce0460030c497f067ca4cebf71ba98eeadabe20bace0052c63247e1f47db19d5ce0460030c497f067ca4cebf71ba98eeadabe20bace0452c63247e1f47db19d5ce0460030c497f067ca4cebf71ba98eeadabe20bace02ddf252ad1be2c89b69c2b068fc378daa952ba7f163c4a11628f55a4df523b3eff0c57e16840df040f15088dc2f81fe391c3923bec73e23a9662efc9c229c6a00dcbc1c05240f31ff3ad067ef1ee35ce4997762752e3a095284754544f4c709d7a264697066735822122056e9292f192f93eacde0873a1da2e2fa25c0b2e33794c1511bf5d12c12c0267b64736f6c63430008160033",
  "linkReferences": {},
  "deployedLinkReferences": {}
}