{
  "_format": "hh-sol-artifact-1",
  "contractName": "ERC4626InterfaceFacet",
  "sourceName": "contracts/facets/ERC4626InterfaceFacet.sol",
  "abi": [
    {
      "inputs": [],
      "stateMutability": "nonpayable",
      "type": "constructor"
    },
    {
      "inputs": [
        {
          "internalType": "address",
          "name": "target",
          "type": "address"
        }
      ],
      "name": "AddressEmptyCode",
      "type": "error"
    },
    {
      "inputs": [],
      "name": "AssetsMismatch",
      "type": "error"
    },
    {
      "inputs": [],
      "name": "ECDSAInvalidSignature",
      "type": "error"
    },
    {
      "inputs": [
        {
          "internalType": "uint256",
          "name": "length",
          "type": "uint256"
        }
      ],
      "name": "ECDSAInvalidSignatureLength",
      "type": "error"
    },
    {
      "inputs": [
        {
          "internalType": "bytes32",
          "name": "s",
          "type": "bytes32"
        }
      ],
      "name": "ECDSAInvalidSignatureS",
      "type": "error"
    },
    {
      "inputs": [],
      "name": "ExpiredSignature",
      "type": "error"
    },
    {
      "inputs": [],
      "name": "FailedCall",
      "type": "error"
    },
    {
      "inputs": [],
      "name": "IncorrectTargetAsset",
      "type": "error"
    },
    {
      "inputs": [],
      "name": "InputOutputTokenCollision",
      "type": "error"
    },
    {
      "inputs": [],
      "name": "InvalidSignature",
      "type": "error"
    },
    {
      "inputs": [],
      "name": "InvalidVaultAsset",
      "type": "error"
    },
    {
      "inputs": [],
      "name": "NoAssetsReceived",
      "type": "error"
    },
    {
      "inputs": [],
      "name": "NoSharesReceived",
      "type": "error"
    },
    {
      "inputs": [],
      "name": "ReentrancyGuardReentrantCall",
      "type": "error"
    },
    {
      "inputs": [
        {
          "internalType": "uint8",
          "name": "bits",
          "type": "uint8"
        },
        {
          "internalType": "uint256",
          "name": "value",
          "type": "uint256"
        }
      ],
      "name": "SafeCastOverflowedUintDowncast",
      "type": "error"
    },
    {
      "inputs": [
        {
          "internalType": "address",
          "name": "token",
          "type": "address"
        }
      ],
      "name": "SafeERC20FailedOperation",
      "type": "error"
    },
    {
      "inputs": [],
      "name": "SharesMismatch",
      "type": "error"
    },
    {
      "inputs": [],
      "name": "UnapprovedVault",
      "type": "error"
    },
    {
      "inputs": [],
      "name": "UnsupportedHookSelector",
      "type": "error"
    },
    {
      "inputs": [],
      "name": "UnsupportedSelector",
      "type": "error"
    },
    {
      "inputs": [],
      "name": "VaultAlreadyApproved",
      "type": "error"
    },
    {
      "inputs": [],
      "name": "VaultNotApproved",
      "type": "error"
    },
    {
      "inputs": [],
      "name": "VAULT_APPROVAL_TYPEHASH",
      "outputs": [
        {
          "internalType": "bytes32",
          "name": "",
          "type": "bytes32"
        }
      ],
      "stateMutability": "view",
      "type": "function"
    },
    {
      "inputs": [],
      "name": "WITHDRAW_SELECTOR",
      "outputs": [
        {
          "internalType": "bytes4",
          "name": "",
          "type": "bytes4"
        }
      ],
      "stateMutability": "view",
      "type": "function"
    },
    {
      "inputs": [
        {
          "internalType": "address",
          "name": "vault",
          "type": "address"
        },
        {
          "internalType": "uint256",
          "name": "assets",
          "type": "uint256"
        },
        {
          "internalType": "bool",
          "name": "usePermit2",
          "type": "bool"
        }
      ],
      "name": "depositToVault",
      "outputs": [
        {
          "internalType": "uint256",
          "name": "",
          "type": "uint256"
        }
      ],
      "stateMutability": "nonpayable",
      "type": "function"
    },
    {
      "inputs": [
        {
          "components": [
            {
              "internalType": "address",
              "name": "user",
              "type": "address"
            },
            {
              "internalType": "address",
              "name": "inputToken",
              "type": "address"
            },
            {
              "internalType": "uint256",
              "name": "maxInputAmount",
              "type": "uint256"
            },
            {
              "internalType": "address",
              "name": "outputToken",
              "type": "address"
            },
            {
              "internalType": "uint256",
              "name": "minOutputAmount",
              "type": "uint256"
            },
            {
              "internalType": "address",
              "name": "targetAddress",
              "type": "address"
            },
            {
              "internalType": "bytes",
              "name": "additionalCalldata",
              "type": "bytes"
            }
          ],
          "internalType": "struct ActionHookInput",
          "name": "input",
          "type": "tuple"
        }
      ],
      "name": "depositToVaultHook",
      "outputs": [
        {
          "internalType": "uint256",
          "name": "",
          "type": "uint256"
        }
      ],
      "stateMutability": "nonpayable",
      "type": "function"
    },
    {
      "inputs": [
        {
          "internalType": "address",
          "name": "user",
          "type": "address"
        },
        {
          "internalType": "address",
          "name": "inputToken",
          "type": "address"
        },
        {
          "internalType": "uint256",
          "name": "maxInputAmount",
          "type": "uint256"
        },
        {
          "internalType": "address",
          "name": "outputToken",
          "type": "address"
        },
        {
          "internalType": "uint256",
          "name": "minOutputAmount",
          "type": "uint256"
        },
        {
          "internalType": "bytes4",
          "name": "selector",
          "type": "bytes4"
        },
        {
          "internalType": "address",
          "name": "targetAddress",
          "type": "address"
        },
        {
          "internalType": "bytes",
          "name": "additionalCalldata",
          "type": "bytes"
        }
      ],
      "name": "generateActionCalldata",
      "outputs": [
        {
          "components": [
            {
              "internalType": "address",
              "name": "expectedInputToken",
              "type": "address"
            },
            {
              "internalType": "uint256",
              "name": "expectedInputAmount",
              "type": "uint256"
            },
            {
              "internalType": "address",
              "name": "expectedOutputToken",
              "type": "address"
            },
            {
              "internalType": "uint256",
              "name": "expectedOutputAmount",
              "type": "uint256"
            },
            {
              "internalType": "bool",
              "name": "isDeterministic",
              "type": "bool"
            }
          ],
          "internalType": "struct PreviewAction",
          "name": "",
          "type": "tuple"
        },
        {
          "internalType": "bytes",
          "name": "",
          "type": "bytes"
        }
      ],
      "stateMutability": "view",
      "type": "function"
    },
    {
      "inputs": [
        {
          "internalType": "bytes4",
          "name": "selector",
          "type": "bytes4"
        },
        {
          "internalType": "address",
          "name": "vault",
          "type": "address"
        },
        {
          "internalType": "address",
          "name": "asset",
          "type": "address"
        },
        {
          "internalType": "address",
          "name": "user",
          "type": "address"
        },
        {
          "internalType": "uint256",
          "name": "amount",
          "type": "uint256"
        },
        {
          "internalType": "bool",
          "name": "payoutUser",
          "type": "bool"
        },
        {
          "internalType": "bytes",
          "name": "data",
          "type": "bytes"
        }
      ],
      "name": "generateCalldata",
      "outputs": [
        {
          "internalType": "bytes",
          "name": "",
          "type": "bytes"
        }
      ],
      "stateMutability": "view",
      "type": "function"
    },
    {
      "inputs": [
        {
          "components": [
            {
              "internalType": "address",
              "name": "user",
              "type": "address"
            },
            {
              "internalType": "address",
              "name": "inputToken",
              "type": "address"
            },
            {
              "internalType": "uint256",
              "name": "maxInputAmount",
              "type": "uint256"
            },
            {
              "internalType": "address",
              "name": "outputToken",
              "type": "address"
            },
            {
              "internalType": "uint256",
              "name": "minOutputAmount",
              "type": "uint256"
            },
            {
              "internalType": "address",
              "name": "targetAddress",
              "type": "address"
            },
            {
              "internalType": "bytes",
              "name": "additionalCalldata",
              "type": "bytes"
            }
          ],
          "internalType": "struct ActionHookInput",
          "name": "actionHookInput",
          "type": "tuple"
        }
      ],
      "name": "previewDeposit",
      "outputs": [
        {
          "components": [
            {
              "internalType": "address",
              "name": "expectedInputToken",
              "type": "address"
            },
            {
              "internalType": "uint256",
              "name": "expectedInputAmount",
              "type": "uint256"
            },
            {
              "internalType": "address",
              "name": "expectedOutputToken",
              "type": "address"
            },
            {
              "internalType": "uint256",
              "name": "expectedOutputAmount",
              "type": "uint256"
            },
            {
              "internalType": "bool",
              "name": "isDeterministic",
              "type": "bool"
            }
          ],
          "internalType": "struct PreviewAction",
          "name": "",
          "type": "tuple"
        }
      ],
      "stateMutability": "view",
      "type": "function"
    },
    {
      "inputs": [
        {
          "internalType": "bytes4",
          "name": "",
          "type": "bytes4"
        }
      ],
      "name": "previewMapping",
      "outputs": [
        {
          "internalType": "bytes4",
          "name": "",
          "type": "bytes4"
        }
      ],
      "stateMutability": "view",
      "type": "function"
    },
    {
      "inputs": [
        {
          "components": [
            {
              "internalType": "address",
              "name": "user",
              "type": "address"
            },
            {
              "internalType": "address",
              "name": "inputToken",
              "type": "address"
            },
            {
              "internalType": "uint256",
              "name": "maxInputAmount",
              "type": "uint256"
            },
            {
              "internalType": "address",
              "name": "outputToken",
              "type": "address"
            },
            {
              "internalType": "uint256",
              "name": "minOutputAmount",
              "type": "uint256"
            },
            {
              "internalType": "address",
              "name": "targetAddress",
              "type": "address"
            },
            {
              "internalType": "bytes",
              "name": "additionalCalldata",
              "type": "bytes"
            }
          ],
          "internalType": "struct ActionHookInput",
          "name": "actionHookInput",
          "type": "tuple"
        }
      ],
      "name": "previewRedeem",
      "outputs": [
        {
          "components": [
            {
              "internalType": "address",
              "name": "expectedInputToken",
              "type": "address"
            },
            {
              "internalType": "uint256",
              "name": "expectedInputAmount",
              "type": "uint256"
            },
            {
              "internalType": "address",
              "name": "expectedOutputToken",
              "type": "address"
            },
            {
              "internalType": "uint256",
              "name": "expectedOutputAmount",
              "type": "uint256"
            },
            {
              "internalType": "bool",
              "name": "isDeterministic",
              "type": "bool"
            }
          ],
          "internalType": "struct PreviewAction",
          "name": "",
          "type": "tuple"
        }
      ],
      "stateMutability": "view",
      "type": "function"
    },
    {
      "inputs": [
        {
          "internalType": "address",
          "name": "vault",
          "type": "address"
        },
        {
          "internalType": "uint256",
          "name": "shares",
          "type": "uint256"
        },
        {
          "internalType": "bool",
          "name": "usePermit2",
          "type": "bool"
        }
      ],
      "name": "redeemFromVault",
      "outputs": [
        {
          "internalType": "uint256",
          "name": "",
          "type": "uint256"
        }
      ],
      "stateMutability": "nonpayable",
      "type": "function"
    },
    {
      "inputs": [
        {
          "components": [
            {
              "internalType": "address",
              "name": "user",
              "type": "address"
            },
            {
              "internalType": "address",
              "name": "inputToken",
              "type": "address"
            },
            {
              "internalType": "uint256",
              "name": "maxInputAmount",
              "type": "uint256"
            },
            {
              "internalType": "address",
              "name": "outputToken",
              "type": "address"
            },
            {
              "internalType": "uint256",
              "name": "minOutputAmount",
              "type": "uint256"
            },
            {
              "internalType": "address",
              "name": "targetAddress",
              "type": "address"
            },
            {
              "internalType": "bytes",
              "name": "additionalCalldata",
              "type": "bytes"
            }
          ],
          "internalType": "struct ActionHookInput",
          "name": "input",
          "type": "tuple"
        }
      ],
      "name": "redeemFromVaultHook",
      "outputs": [
        {
          "internalType": "uint256",
          "name": "",
          "type": "uint256"
        }
      ],
      "stateMutability": "nonpayable",
      "type": "function"
    },
    {
      "inputs": [
        {
          "internalType": "address",
          "name": "vault",
          "type": "address"
        },
        {
          "internalType": "uint256",
          "name": "deadline",
          "type": "uint256"
        },
        {
          "internalType": "bytes",
          "name": "sigData",
          "type": "bytes"
        }
      ],
      "name": "userApproveVault",
      "outputs": [],
      "stateMutability": "nonpayable",
      "type": "function"
    },
    {
      "inputs": [
        {
          "internalType": "address",
          "name": "vault",
          "type": "address"
        }
      ],
      "name": "userRevokeVault",
      "outputs": [],
      "stateMutability": "nonpayable",
      "type": "function"
    },
    {
      "inputs": [
        {
          "internalType": "address",
          "name": "vault",
          "type": "address"
        },
        {
          "internalType": "uint256",
          "name": "assets",
          "type": "uint256"
        },
        {
          "internalType": "address",
          "name": "user",
          "type": "address"
        },
        {
          "internalType": "bool",
          "name": "usePermit2",
          "type": "bool"
        },
        {
          "internalType": "bool",
          "name": "payoutToUser",
          "type": "bool"
        }
      ],
      "name": "withdrawFromVault",
      "outputs": [
        {
          "internalType": "uint256",
          "name": "",
          "type": "uint256"
        }
      ],
      "stateMutability": "nonpayable",
      "type": "function"
    },
    {
      "inputs": [
        {
          "internalType": "address",
          "name": "vault",
          "type": "address"
        },
        {
          "internalType": "uint256",
          "name": "assets",
          "type": "uint256"
        },
        {
          "internalType": "bool",
          "name": "usePermit2",
          "type": "bool"
        }
      ],
      "name": "withdrawFromVault",
      "outputs": [
        {
          "internalType": "uint256",
          "name": "",
          "type": "uint256"
        }
      ],
      "stateMutability": "nonpayable",
      "type": "function"
    }
  ],
  "bytecode": "0x6080806040523461009157600160008181556020919091527f778b248d7f63fdee5fdbeb3e3ab7d19b4fbdac3eb7619dbf9177ebb62aca339a805463ffffffff19908116639eb23e1517909155633204506760e11b9091527fd8036a4a534d290482bc5588e42c1f55c5a61b97c88f1c290a05d716726c4b53805490911663d33dea381790556128ca90816100978239f35b600080fdfe60806040908082526004918236101561001757600080fd5b600091823560e01c9081630bda54c3146114de575080630c1c0026146114bd57806325d0f927146113385780636408a0ce146111aa578063876f90c21461111e5780638c136f2414610ef45780638dae469414610cad5780639a68f4a714610aea5780639eb23e15146109485780639ef72eff146106d0578063c3246edc14610692578063cfde67681461044d578063d33dea3814610288578063fbf99164146102155763ff9fbc71146100ca57600080fd5b34610211576100d836611613565b946100e4929192611a00565b848560008051602061285583398151915254905b8160ff821610610161575b5050158061013a575b61012c57506020946001926101249233913391612002565b925551908152f35b835163476706bf60e01b8152fd5b5061014433611737565b60018060a01b03831660005260205260ff8460002054161561010c565b602461016c826117ed565b9054895163e81cf11760e01b81526001600160a01b038981168983015260209491938593859392849260031b9190911c165afa918215610207578a926101cd575b50506101c1576101bc906117c6565b6100f8565b50505060013880610103565b90809250813d8311610200575b6101e481836116f9565b810103126101fc576101f59061182a565b38806101ad565b8880fd5b503d6101da565b89513d8c823e3d90fd5b5080fd5b50823461028457602036600319011261028457610230611506565b9061023a33611737565b9160018060a01b0316918260005260205260ff83600020541615610276575061026233611737565b600091825260205220805460ff1916905580f35b825163135c860560e01b8152fd5b8280fd5b509134610211576102983661158b565b916102a1611972565b506001600160a01b0390816102b860a08601611770565b169385516338d52e0f60e01b91828252602091828188818b5afa9081156103f657889187918791610410575b501614610400576080013594875192630a28a47760e01b8452868285015282846024818b5afa9384156103f65785946103c2575b50829089519283918252818a5afa9384156103b757809461036c575b60a08861036a8b8a8a8a8a8a85519761034c896116a8565b88528701521682850152606084015260016080840152518092611646565bf35b909180945082813d83116103b0575b61038581836116f9565b810103126103ad57509160a09693916103a161036a9694611837565b93958193959850610334565b80fd5b503d61037b565b8851903d90823e3d90fd5b9093508281813d83116103ef575b6103da81836116f9565b810103126103ea57519282610318565b600080fd5b503d6103d0565b89513d87823e3d90fd5b8751635542f09960e01b81528690fd5b925050508281813d8311610446575b61042981836116f9565b81010312610442578561043c8992611837565b386102e4565b8480fd5b503d61041f565b5090346103ad5760a03660031901126103ad57610468611506565b906024610473611532565b916064359586151587036103ea576084359283151584036103ea576001600160a01b03858116338114801561064e575b80156105fa575b6104b79150929192611784565b60008051602061285583398151915254878316928592835b8360ff82161061055a575b50505050159081610539575b5061052b57509161051593916020969330331491821592610523575b50501561051c5780915b60243590612002565b9051908152f35b309161050c565b915038610502565b855163476706bf60e01b8152fd5b905061054485611737565b9060005260205260ff86600020541615386104e6565b610563816117ed565b9054908d519063e81cf11760e01b8252888a83015281858188602096879560031b1c165afa9182156105f0578a926105ba575b50506105aa576105a5906117c6565b6104cf565b50505050506001388080806104da565b90809250813d83116105e9575b6105d181836116f9565b810103126101fc576105e29061182a565b3880610596565b503d6105c7565b8e513d8c823e3d90fd5b50817f2a2e13707d6b40952f0aec05e2811137753b06b56d55208636050ec9ee68dd795416908115159182610644575b50508061063b575b6104b7906104aa565b50333014610632565b149050388061062a565b5030331480610678575b80156104a3575080826000805160206128158339815191525416146104a3565b508160008051602061281583398151915254161515610658565b5034610211576020366003190112610211576020916001600160e01b0319908290826106bc6115bc565b16815260018552205460e01b915191168152f35b50913461021157610100366003190112610211576106ec611506565b926106f561151c565b916106fe611548565b9260a4359463ffffffff60e01b96878716918288036103ea576001600160a01b039660c4358881169391908490036103ea5760e435966001600160401b038811610944573660238901121561094457878101359561075b8761171c565b966107688b5198896116f9565b80885260209936602483830101116109405781879260248d9301838c013789010152610792611972565b508452600188528884205460e01b9b8c1615610932575082899a9b61084c938b8394818d9e6108069e51946107c6866116c3565b169b8c8552168c8401528d6044359084015216606082015260843560808201528660a08201528760c08201528b519a8b918b83019384526024830161199d565b039961081a601f199b8c81018352826116f9565b5190305afa3d1561092a573d906108308261171c565b9161083d8b5193846116f9565b82523d848984013e5b306127b1565b9060a0828051810103126103ad575061090b936109159996938896936108ff936109269a519b61087b8d6116a8565b898d826108898a8601611837565b8083528386015192838c8201526108a260608801611837565b809582015260806108bf60a0828a0151998a60608601520161182a565b9101528d51986108ce8a6116c3565b895216898801528b870152166060850152608084015260a083015260c082015285519687938401526024830161199d565b039081018452836116f9565b5193848094611646565b60c060a084015260c08301906115d3565b0390f35b606090610846565b8851631416e68f60e01b8152fd5b8680fd5b8380fd5b509134610211576109583661158b565b610960611972565b506001600160a01b03908161097760a08301611770565b16918551906338d52e0f60e01b9283835260209283818881895afa908115610aa357869184918a91610aad575b50161461040057608001359487519363b3d7f6b960e01b855286828601528385602481895afa948515610aa3578895610a74575b5083908951928391825281885afa9687156103b7578097610a2a575b60a08861036a8b8a8a8a8a8a855197610a0c896116a8565b16875286015282850152606084015260016080840152518092611646565b909196508282813d8311610a6d575b610a4381836116f9565b810103126103ad57509160a0969391610a5f61036a9694611837565b9691939581939598506109f4565b503d610a39565b9094508381813d8311610a9c575b610a8c81836116f9565b810103126103ea575193836109d8565b503d610a82565b89513d8a823e3d90fd5b925050508381813d8311610ae3575b610ac681836116f9565b81010312610adf5782610ad98792611837565b386109a4565b8780fd5b503d610abc565b503461021157610af936611613565b909194610b04611a00565b848560008051602061285583398151915254905b8160ff821610610c0e575b50501580610be7575b61012c576001600160a01b0386169115610bca57610b4983611fcf565b6e22d473030f116ddee9f6b43ac78ba391823b156109405791610b889391878094885196879586948593631b63c28b60e11b8552309033908601611948565b03925af18015610bbd57610ba9575b506101246020946001925b3391611a50565b610bb3849161167f565b6102845738610b97565b50505051903d90823e3d90fd5b5060209482610be26001946101249430903390611f86565b610ba2565b50610bf133611737565b60018060a01b03871660005260205260ff84600020541615610b2c565b610c17816117ed565b9054885163e81cf11760e01b81526001600160a01b038c811688830152602093919284928492602492849260031b1c165afa918215610207578a92610c77575b5050610c6b57610c66906117c6565b610b18565b50505060013880610b23565b90809250813d8311610ca6575b610c8e81836116f9565b810103126101fc57610c9f9061182a565b3880610c57565b503d610c84565b503461021157610cbc36611613565b610cc4611a00565b848560008051602061285583398151915254905b8160ff821610610e4e575b50501580610e28575b610e185783516338d52e0f60e01b81526001600160a01b039060208189818886165afa908115610e0e578791610dd4575b50169015610db757610d2e82611fcf565b6e22d473030f116ddee9f6b43ac78ba396873b1561094057610d6d97879283859389519b8c9586948593631b63c28b60e11b8552309033908601611948565b03925af1958615610dad57602096610d91575b5091610124916001935b3392611d42565b916001939195610da36101249461167f565b9591935091610d80565b84513d87823e3d90fd5b602095509181600193610dcf61012494303384611f86565b610d8a565b90506020813d602011610e06575b81610def602093836116f9565b8101031261094057610e0090611837565b38610d1d565b3d9150610de2565b86513d89823e3d90fd5b835163476706bf60e01b81528690fd5b50610e3233611737565b6001600160a01b03841686526020528385205460ff1615610cec565b88610e58826117ed565b9054895163e81cf11760e01b81526001600160a01b038a811694820194909452602093909284928492602492849260039190911b1c165afa918215610207578a92610ebe575b5050610eb257610ead906117c6565b610cd8565b50505060013880610ce3565b90809250813d8311610eed575b610ed581836116f9565b810103126101fc57610ee69061182a565b3880610e9e565b503d610ecb565b503461021157610f033661158b565b610f0c81611770565b600080516020612875833981519152546001600160a01b0391610f3f91831680151591849083611112575b505050611784565b610f47611a00565b60a08201610f5481611770565b610f5d84611770565b9086879185600080516020612855833981519152549116925b8160ff821610611070575b5050159182611050575b5050610e185760209586840192610fa184611770565b90828982610fae87611770565b168951928380926338d52e0f60e01b82525afa908115611046579082918a9161100e575b501691160361100057509161012491610ff5610fef600195611770565b91611770565b853093013591611d42565b8451631b3b488360e11b8152fd5b8092508b8092503d831161103f575b61102781836116f9565b810103126101fc576110398291611837565b38610fd2565b503d61101d565b88513d8b823e3d90fd5b61105b919250611737565b90865260205260ff8486205416153880610f8b565b8a61107a826117ed565b91905491868c519263e81cf11760e01b8452830152816024818c602096879560031b1c165afa918215611108578c926110ce575b50506110c2576110bd906117c6565b610f76565b50505060013880610f81565b90809250813d8311611101575b6110e581836116f9565b810103126110fd576110f69061182a565b38806110ae565b8a80fd5b503d6110db565b8b513d8e823e3d90fd5b16149050388381610f37565b5082346102845760e0366003190112610284576111396115bc565b9061114261151c565b61114a611532565b90611153611548565b9260a4359687151588036103ad5760c435906001600160401b0382116103ad57509161118c61119796949261092699969436910161155e565b50506084359361184b565b90519182916020835260208301906115d3565b5034610211576111b93661158b565b926111c384611770565b600080516020612875833981519152546001600160a01b0392916111f69184168015159185908361132c57505050611784565b6111fe611a00565b60a085019161120c83611770565b9061121687611770565b918690879280600080516020612855833981519152549216935b8260ff821610611297575b505050159182611277575b5050611269575061012460209461125e600193611770565b843092013590611a50565b825163476706bf60e01b8152fd5b611282919250611737565b90855260205260ff8385205416153880611246565b6112a0816117ed565b9054908a519063e81cf11760e01b8252878a8301528160248187602096879560031b1c165afa918215611108578c926112f6575b50506112e8576112e3906117c6565b611230565b50505050600138808061123b565b90809250813d8311611325575b61130d81836116f9565b810103126110fd5761131e9061182a565b38806112d4565b503d611303565b16149050388481610f37565b50823461028457606036600319011261028457611353611506565b60243591906044356001600160401b0381116114b957611376903690840161155e565b91908442116114a95761138833611737565b9460018060a01b038093169586895260205260ff87892054166114995781606091885160208101916000805160206128358339815191528352898b83015233858301526080820152608081526113dd816116a8565b5190207f2a2e13707d6b40952f0aec05e2811137753b06b56d55208636050ec9ee68dd7c5490895190602082019261190160f01b8452602283015260428201526042815261142a816116de565b51902094810103126109405780359060ff82168203610adf576114639361145a92602089840135930135916124cd565b90939193612547565b3391160361148b575061147533611737565b9083526020528120805460ff1916600117905580f35b8251638baa579f60e01b8152fd5b8651636349e7d160e01b81528590fd5b855163df4cc36d60e01b81528490fd5b8580fd5b5034610211578160031936011261021157516319fbcced60e31b8152602090f35b8390346102115781600319360112610211578060008051602061283583398151915260209252f35b600435906001600160a01b03821682036103ea57565b602435906001600160a01b03821682036103ea57565b604435906001600160a01b03821682036103ea57565b606435906001600160a01b03821682036103ea57565b9181601f840112156103ea578235916001600160401b0383116103ea57602083818601950101116103ea57565b600319906020818301126103ea57600435916001600160401b0383116103ea578260e0920301126103ea5760040190565b600435906001600160e01b0319821682036103ea57565b919082519283825260005b8481106115ff575050826000602080949584010152601f8019910116010190565b6020818301810151848301820152016115de565b60609060031901126103ea576004356001600160a01b03811681036103ea57906024359060443580151581036103ea5790565b6080809160018060a01b038082511685526020820151602086015260408201511660408501526060810151606085015201511515910152565b6001600160401b03811161169257604052565b634e487b7160e01b600052604160045260246000fd5b60a081019081106001600160401b0382111761169257604052565b60e081019081106001600160401b0382111761169257604052565b608081019081106001600160401b0382111761169257604052565b601f909101601f19168101906001600160401b0382119082101761169257604052565b6001600160401b03811161169257601f01601f191660200190565b6001600160a01b031660009081527fffcd7dce0f1bdcc4ef49162b69a11a63d8c8a97a63c4374f38f9662548316d336020526040902090565b356001600160a01b03811681036103ea5790565b1561178b57565b60405162461bcd60e51b81526020600482015260136024820152722ab730baba3437b934bd32b21031b0b63632b960691b6044820152606490fd5b60ff1660ff81146117d75760010190565b634e487b7160e01b600052601160045260246000fd5b60008051602061285583398151915280548210156118145760005260206000200190600090565b634e487b7160e01b600052603260045260246000fd5b519081151582036103ea57565b51906001600160a01b03821682036103ea57565b94939092916001600160e01b031986166319fbcced60e31b03611936576040516338d52e0f60e01b81526001600160a01b039485169190602081600481865afa801561192a5786906000906118ef575b819250169116036118dd576040519560208701526024860152604485015216606483015260006084830152151560a482015260a481526118da816116c3565b90565b60405163065a1c4760e31b8152600490fd5b50506020813d602011611922575b8161190a602093836116f9565b810103126103ea578561191d8192611837565b61189b565b3d91506118fd565b6040513d6000823e3d90fd5b604051631e8b844160e01b8152600490fd5b6001600160a01b039182168152918116602083015291821660408201529116606082015260800190565b6040519061197f826116a8565b60006080838281528260208201528260408201528260608201520152565b61010060c06118da936020845260018060a01b0380825116602086015280602083015116604086015260408201516060860152806060830151166080860152608082015160a086015260a0820151168285015201519160e08082015201906115d3565b600260005414611a11576002600055565b604051633ee5aeb560e01b8152600490fd5b9081526001600160a01b0391821660208201529116604082015260600190565b919082039182116117d757565b604080516338d52e0f60e01b81529394936004926020916001600160a01b03908183169084818881855afa908115611d3757908391600091611cff575b5016908551926370a0823160e01b908185528b1680898601528685602481875afa948515611c4657600095611cd0575b50875195828752308a8801528787602481875afa968715611cc557998b9c9d819c9a9b600099611c8f575b50908991611af78c85896126a0565b8c51635d043b2960e11b81529e8f928392611b159230928501611a23565b0381875a90600091f19b8c15611c845760009c611c51575b5090611b3a8892856125e7565b60248b8b5196879384928784528301525afa928315611c4657908691600094611c15575b5060248951809481938252308d8301525afa948515611c0a57600095611bda575b505081811115611bca5790611b9391611a43565b8603611bba5790611ba391611a43565b03611bad57505090565b51632bd02d8d60e21b8152fd5b50505051634b23010f60e11b8152fd5b8551636e52f1ed60e11b81528790fd5b9080929550813d8311611c03575b611bf281836116f9565b810103126103ea5751923880611b7f565b503d611be8565b87513d6000823e3d90fd5b8281939295503d8311611c3f575b611c2d81836116f9565b810103126103ea578590519238611b5e565b503d611c23565b88513d6000823e3d90fd5b91909b508782813d8311611c7d575b611c6a81836116f9565b810103126103ea5790519a611b3a611b2d565b503d611c60565b8a513d6000823e3d90fd5b9a509750508789813d8311611cbe575b611ca981836116f9565b810103126103ea57878b8d9a51989091611ae8565b503d611c9f565b89513d6000823e3d90fd5b9094508681813d8311611cf8575b611ce881836116f9565b810103126103ea57519338611abd565b503d611cde565b809250868092503d8311611d30575b611d1881836116f9565b810103126103ea57611d2a8391611837565b38611a8d565b503d611d0e565b86513d6000823e3d90fd5b929160018060a01b038080861693166040938451906370a0823160e01b93848352600497169283888401526020948584602481865afa938415611c4657600094611f57575b50875194818652308a8701528686602481865afa958615611cc557600096611f28575b50611db6888c856126a0565b88519a636e553f6560e01b8c52888b8d01528160248d0152878c6044816000895af19b8c15611c845760009c611ef5575b5090611df48892856125e7565b60248b8b5196879384928784528301525afa928315611c4657908691600094611ec4575b5060248951809481938252308d8301525afa948515611c0a57600095611e94575b505081811115611e845790611e4d91611a43565b8603611e745790611e5d91611a43565b03611e6757505090565b51634b23010f60e11b8152fd5b50505051632bd02d8d60e21b8152fd5b8551633b1ef45960e21b81528790fd5b9080929550813d8311611ebd575b611eac81836116f9565b810103126103ea5751923880611e39565b503d611ea2565b8281939295503d8311611eee575b611edc81836116f9565b810103126103ea578590519238611e18565b503d611ed2565b91909b508782813d8311611f21575b611f0e81836116f9565b810103126103ea5790519a611df4611de7565b503d611f04565b9095508681813d8311611f50575b611f4081836116f9565b810103126103ea57519438611daa565b503d611f36565b9093508581813d8311611f7f575b611f6f81836116f9565b810103126103ea57519238611d87565b503d611f65565b6040516323b872dd60e01b60208201526001600160a01b039283166024820152929091166044830152606480830193909352918152611fcd91611fc8826116a8565b612755565b565b6001600160a01b0390818111611fe3571690565b604490604051906306dfcc6560e41b825260a060048301526024820152fd5b6040516338d52e0f60e01b815293949390916000906020836004816001600160a01b0388165afa9283156124c2578293612486575b506040516370a0823160e01b81526001600160a01b0388811660048301529093906020908590602490829085165afa93841561247b578394612447575b50604051630a28a47760e01b815260048101839052966020886024816001600160a01b038a165afa9788156122f9578498612413575b50306001600160a01b03881603612378575b506040516370a0823160e01b8152306004820152936020856024816001600160a01b038a165afa9485156122f9578495612344575b5061210688876001600160a01b0381166126a0565b604051632d182be560e21b81529860208a8061212730858960048501611a23565b0381886001600160a01b038c165af1998a1561233957859a612304575b5060209061215b886001600160a01b0381166125e7565b6040516370a0823160e01b81526001600160a01b0391821660048201529384916024918391165afa9182156122f95784926122c5575b506040516370a0823160e01b81523060048201526020816024816001600160a01b038b165afa9485156122b95794612285575b5080821115612273576121d691611a43565b03612261576121e491611a43565b80850361224f578381106121fa575b5050505090565b61220a6122389161224695611a43565b60405163a9059cbb60e01b602082015293849161222a91602484016125cc565b03601f1981018452836116f9565b6001600160a01b0316612755565b388080806121f3565b604051632bd02d8d60e21b8152600490fd5b604051634b23010f60e11b8152600490fd5b604051636e52f1ed60e11b8152600490fd5b9093506020813d6020116122b1575b816122a1602093836116f9565b810103126103ea575192386121c4565b3d9150612294565b604051903d90823e3d90fd5b9091506020813d6020116122f1575b816122e1602093836116f9565b810103126103ea57519038612191565b3d91506122d4565b6040513d86823e3d90fd5b9099506020813d602011612331575b81612320602093836116f9565b810103126103ea5751986020612144565b3d9150612313565b6040513d87823e3d90fd5b9094506020813d602011612370575b81612360602093836116f9565b810103126103ea575193386120f1565b3d9150612353565b156123f95761238687611fcf565b6e22d473030f116ddee9f6b43ac78ba390813b1561044257876123cf928692838a60405196879586948593631b63c28b60e11b855260018060a01b031691309060048601611948565b03925af180156122f9576123e6575b505b386120bc565b6123f29093919361167f565b91386123de565b61240e8730886001600160a01b038916611f86565b6123e0565b9097506020813d60201161243f575b8161242f602093836116f9565b81010312610944575196386120aa565b3d9150612422565b9093506020813d602011612473575b81612463602093836116f9565b8101031261028457519238612074565b3d9150612456565b6040513d85823e3d90fd5b9092506020813d6020116124ba575b816124a2602093836116f9565b81010312610211576124b390611837565b9138612037565b3d9150612495565b6040513d84823e3d90fd5b91906fa2a8918ca85bafe22016d0b997e4df60600160ff1b03841161253b57926020929160ff608095604051948552168484015260408301526060820152600092839182805260015afa156122b95780516001600160a01b0381161561253257918190565b50809160019190565b50505060009160039190565b60048110156125b65780612559575050565b600181036125735760405163f645eedf60e01b8152600490fd5b600281036125945760405163fce698f760e01b815260048101839052602490fd5b60031461259e5750565b602490604051906335e2f38360e21b82526004820152fd5b634e487b7160e01b600052602160045260246000fd5b6001600160a01b039091168152602081019190915260400190565b60405190602082019263095ea7b360e01b80855260018060a01b038092169182602486015260206000809781604489015260448852612625886116de565b87519082885af1903d8751908361267f575b50505015612647575b5050505050565b61267594611fc892604051926020840152602483015260448201526044815261266f816116de565b82612755565b3880808080612640565b91925090612696575083163b15155b388080612637565b600191501461268e565b60405191602060008185016126d6866126c863095ea7b360e01b998a855287602484016125cc565b03601f1981018852876116f9565b85519082865af16000513d82612730575b5050156126f5575b50505050565b61272793611fc89160405191602083015260018060a01b03166024820152600060448201526044815261266f816116de565b388080806126ef565b90915061274d57506001600160a01b0382163b15155b38806126e7565b600114612746565b906000602091828151910182855af11561192a576000513d6127a857506001600160a01b0381163b155b6127865750565b604051635274afe760e01b81526001600160a01b039091166004820152602490fd5b6001141561277f565b906127d857508051156127c657805190602001fd5b60405163d6bda27560e01b8152600490fd5b8151158061280b575b6127e9575090565b604051639996b31560e01b81526001600160a01b039091166004820152602490fd5b50803b156127e156fe2a2e13707d6b40952f0aec05e2811137753b06b56d55208636050ec9ee68dd7b296316d96522d3cb9aa9898679a863cee6a92d85d6df12a8bb7c2c3f9750d3e82a2e13707d6b40952f0aec05e2811137753b06b56d55208636050ec9ee68dd7ec9e4fb8bffaf71b56abf2a5032f2ea641e97267f8c0d9bcf66c86998c650d62aa2646970667358221220502bd193a80004ace5f26a9af5539f2b1686f10a94822643954ff647d4957c2264736f6c63430008160033",
  "linkReferences": {},
  "deployedLinkReferences": {}
}