{
  "_format": "hh-sol-artifact-1",
  "contractName": "TestTermLoanIntentFacetHelper",
  "sourceName": "contracts/test/TestTermLoanIntentFacetHelper.sol",
  "abi": [
    {
      "inputs": [],
      "name": "clearMulticallInitiator",
      "outputs": [],
      "stateMutability": "nonpayable",
      "type": "function"
    },
    {
      "inputs": [
        {
          "internalType": "address",
          "name": "_initiator",
          "type": "address"
        }
      ],
      "name": "setMulticallInitiator",
      "outputs": [],
      "stateMutability": "nonpayable",
      "type": "function"
    }
  ],
  "bytecode": "0x608080604052346100165761010e908161001c8239f35b600080fdfe6004361015600c57600080fd5b6000803560e01c806306f7664d14605d57637a498e1d14602b57600080fd5b34605a5780600319360112605a576000805160206100b98339815191528054610100600160a81b031916905580f35b80fd5b5034605a576020366003190112605a576004356001600160a01b038116810360b4576000805160206100b98339815191528054610100600160a81b03191660089290921b610100600160a81b031691909117905580f35b5080fdfe2a2e13707d6b40952f0aec05e2811137753b06b56d55208636050ec9ee68dd78a2646970667358221220664c87a915d28ca8fc2fbdfef1e4bdce7949d59999027a0fd2e43f0ec4c366a064736f6c63430008160033",
  "linkReferences": {},
  "deployedLinkReferences": {}
}