{
  "_format": "hh-sol-artifact-1",
  "contractName": "TestTermRepoCollateralManager",
  "sourceName": "contracts/test/TestTermRepoCollateralManager.sol",
  "abi": [
    {
      "inputs": [],
      "name": "AlreadyTermContractPaired",
      "type": "error"
    },
    {
      "inputs": [],
      "name": "BorrowerNotInShortfall",
      "type": "error"
    },
    {
      "inputs": [],
      "name": "CallerNotBorrower",
      "type": "error"
    },
    {
      "inputs": [
        {
          "internalType": "address",
          "name": "borrower",
          "type": "address"
        },
        {
          "internalType": "address",
          "name": "token",
          "type": "address"
        }
      ],
      "name": "CollateralBelowMaintenanceRatios",
      "type": "error"
    },
    {
      "inputs": [],
      "name": "CollateralDepositClosed",
      "type": "error"
    },
    {
      "inputs": [
        {
          "internalType": "address",
          "name": "token",
          "type": "address"
        }
      ],
      "name": "CollateralTokenNotAllowed",
      "type": "error"
    },
    {
      "inputs": [],
      "name": "CollateralWithdrawalClosed",
      "type": "error"
    },
    {
      "inputs": [],
      "name": "DefaultsClosed",
      "type": "error"
    },
    {
      "inputs": [],
      "name": "ExceedsNetExposureCapOnLiquidation",
      "type": "error"
    },
    {
      "inputs": [
        {
          "internalType": "address",
          "name": "collateralToken",
          "type": "address"
        }
      ],
      "name": "InsufficientCollateralForLiquidationRepayment",
      "type": "error"
    },
    {
      "inputs": [],
      "name": "InsufficientCollateralForRedemption",
      "type": "error"
    },
    {
      "inputs": [
        {
          "internalType": "string",
          "name": "message",
          "type": "string"
        }
      ],
      "name": "InvalidParameters",
      "type": "error"
    },
    {
      "inputs": [],
      "name": "LiquidationsPaused",
      "type": "error"
    },
    {
      "inputs": [],
      "name": "RepaymentAmountLargerThanAllowed",
      "type": "error"
    },
    {
      "inputs": [],
      "name": "SelfLiquidationNotPermitted",
      "type": "error"
    },
    {
      "inputs": [],
      "name": "ShortfallLiquidationsClosed",
      "type": "error"
    },
    {
      "inputs": [],
      "name": "TermRepurchaseWindowOpen",
      "type": "error"
    },
    {
      "inputs": [],
      "name": "TotalRepaymentGreaterThangetBorrowerRepurchaseObligation",
      "type": "error"
    },
    {
      "inputs": [],
      "name": "UnlockAmountGreaterThanCollateralBalance",
      "type": "error"
    },
    {
      "inputs": [],
      "name": "ZeroAddressContractPaired",
      "type": "error"
    },
    {
      "inputs": [],
      "name": "ZeroBorrowerRepurchaseObligation",
      "type": "error"
    },
    {
      "inputs": [],
      "name": "ZeroCollateralBalance",
      "type": "error"
    },
    {
      "inputs": [],
      "name": "ZeroLiquidationNotPermitted",
      "type": "error"
    },
    {
      "anonymous": false,
      "inputs": [
        {
          "indexed": false,
          "internalType": "address",
          "name": "previousAdmin",
          "type": "address"
        },
        {
          "indexed": false,
          "internalType": "address",
          "name": "newAdmin",
          "type": "address"
        }
      ],
      "name": "AdminChanged",
      "type": "event"
    },
    {
      "anonymous": false,
      "inputs": [
        {
          "indexed": true,
          "internalType": "address",
          "name": "beacon",
          "type": "address"
        }
      ],
      "name": "BeaconUpgraded",
      "type": "event"
    },
    {
      "anonymous": false,
      "inputs": [
        {
          "indexed": false,
          "internalType": "uint8",
          "name": "version",
          "type": "uint8"
        }
      ],
      "name": "Initialized",
      "type": "event"
    },
    {
      "anonymous": false,
      "inputs": [
        {
          "indexed": true,
          "internalType": "bytes32",
          "name": "role",
          "type": "bytes32"
        },
        {
          "indexed": true,
          "internalType": "bytes32",
          "name": "previousAdminRole",
          "type": "bytes32"
        },
        {
          "indexed": true,
          "internalType": "bytes32",
          "name": "newAdminRole",
          "type": "bytes32"
        }
      ],
      "name": "RoleAdminChanged",
      "type": "event"
    },
    {
      "anonymous": false,
      "inputs": [
        {
          "indexed": true,
          "internalType": "bytes32",
          "name": "role",
          "type": "bytes32"
        },
        {
          "indexed": true,
          "internalType": "address",
          "name": "account",
          "type": "address"
        },
        {
          "indexed": true,
          "internalType": "address",
          "name": "sender",
          "type": "address"
        }
      ],
      "name": "RoleGranted",
      "type": "event"
    },
    {
      "anonymous": false,
      "inputs": [
        {
          "indexed": true,
          "internalType": "bytes32",
          "name": "role",
          "type": "bytes32"
        },
        {
          "indexed": true,
          "internalType": "address",
          "name": "account",
          "type": "address"
        },
        {
          "indexed": true,
          "internalType": "address",
          "name": "sender",
          "type": "address"
        }
      ],
      "name": "RoleRevoked",
      "type": "event"
    },
    {
      "anonymous": false,
      "inputs": [
        {
          "indexed": true,
          "internalType": "address",
          "name": "implementation",
          "type": "address"
        }
      ],
      "name": "Upgraded",
      "type": "event"
    },
    {
      "inputs": [],
      "name": "AUCTION_LOCKER",
      "outputs": [
        {
          "internalType": "bytes32",
          "name": "",
          "type": "bytes32"
        }
      ],
      "stateMutability": "view",
      "type": "function"
    },
    {
      "inputs": [],
      "name": "DEFAULT_ADMIN_ROLE",
      "outputs": [
        {
          "internalType": "bytes32",
          "name": "",
          "type": "bytes32"
        }
      ],
      "stateMutability": "view",
      "type": "function"
    },
    {
      "inputs": [],
      "name": "DEVOPS_ROLE",
      "outputs": [
        {
          "internalType": "bytes32",
          "name": "",
          "type": "bytes32"
        }
      ],
      "stateMutability": "view",
      "type": "function"
    },
    {
      "inputs": [],
      "name": "INITIALIZER_ROLE",
      "outputs": [
        {
          "internalType": "bytes32",
          "name": "",
          "type": "bytes32"
        }
      ],
      "stateMutability": "view",
      "type": "function"
    },
    {
      "inputs": [],
      "name": "ROLLOVER_MANAGER",
      "outputs": [
        {
          "internalType": "bytes32",
          "name": "",
          "type": "bytes32"
        }
      ],
      "stateMutability": "view",
      "type": "function"
    },
    {
      "inputs": [],
      "name": "ROLLOVER_TARGET_AUCTIONEER_ROLE",
      "outputs": [
        {
          "internalType": "bytes32",
          "name": "",
          "type": "bytes32"
        }
      ],
      "stateMutability": "view",
      "type": "function"
    },
    {
      "inputs": [],
      "name": "SERVICER_ROLE",
      "outputs": [
        {
          "internalType": "bytes32",
          "name": "",
          "type": "bytes32"
        }
      ],
      "stateMutability": "view",
      "type": "function"
    },
    {
      "inputs": [
        {
          "internalType": "address",
          "name": "borrower",
          "type": "address"
        },
        {
          "internalType": "address",
          "name": "collateralToken",
          "type": "address"
        },
        {
          "internalType": "uint256",
          "name": "amount",
          "type": "uint256"
        }
      ],
      "name": "acceptRolloverCollateral",
      "outputs": [],
      "stateMutability": "nonpayable",
      "type": "function"
    },
    {
      "inputs": [
        {
          "internalType": "address",
          "name": "rolloverAuction",
          "type": "address"
        }
      ],
      "name": "approveRolloverAuction",
      "outputs": [],
      "stateMutability": "nonpayable",
      "type": "function"
    },
    {
      "inputs": [
        {
          "internalType": "address",
          "name": "bidder",
          "type": "address"
        },
        {
          "internalType": "address",
          "name": "collateralToken",
          "type": "address"
        },
        {
          "internalType": "uint256",
          "name": "amount",
          "type": "uint256"
        }
      ],
      "name": "auctionLockCollateral",
      "outputs": [],
      "stateMutability": "nonpayable",
      "type": "function"
    },
    {
      "inputs": [
        {
          "internalType": "address",
          "name": "bidder",
          "type": "address"
        },
        {
          "internalType": "address",
          "name": "collateralToken",
          "type": "address"
        },
        {
          "internalType": "uint256",
          "name": "amount",
          "type": "uint256"
        }
      ],
      "name": "auctionUnlockCollateral",
      "outputs": [],
      "stateMutability": "nonpayable",
      "type": "function"
    },
    {
      "inputs": [
        {
          "internalType": "address",
          "name": "borrower",
          "type": "address"
        },
        {
          "internalType": "uint256[]",
          "name": "closureAmounts",
          "type": "uint256[]"
        }
      ],
      "name": "batchDefault",
      "outputs": [],
      "stateMutability": "nonpayable",
      "type": "function"
    },
    {
      "inputs": [
        {
          "internalType": "address",
          "name": "borrower",
          "type": "address"
        },
        {
          "internalType": "uint256[]",
          "name": "closureAmounts",
          "type": "uint256[]"
        }
      ],
      "name": "batchLiquidation",
      "outputs": [],
      "stateMutability": "nonpayable",
      "type": "function"
    },
    {
      "inputs": [
        {
          "internalType": "address",
          "name": "borrower",
          "type": "address"
        },
        {
          "internalType": "uint256[]",
          "name": "closureRepoTokenAmounts",
          "type": "uint256[]"
        }
      ],
      "name": "batchLiquidationWithRepoToken",
      "outputs": [],
      "stateMutability": "nonpayable",
      "type": "function"
    },
    {
      "inputs": [
        {
          "internalType": "address",
          "name": "collateralToken",
          "type": "address"
        },
        {
          "internalType": "uint256",
          "name": "amountToLock",
          "type": "uint256"
        }
      ],
      "name": "calculateMintableExposure",
      "outputs": [
        {
          "components": [
            {
              "internalType": "uint256",
              "name": "mantissa",
              "type": "uint256"
            }
          ],
          "internalType": "struct ExponentialNoError.Exp",
          "name": "",
          "type": "tuple"
        }
      ],
      "stateMutability": "view",
      "type": "function"
    },
    {
      "inputs": [
        {
          "internalType": "uint256",
          "name": "",
          "type": "uint256"
        }
      ],
      "name": "collateralTokens",
      "outputs": [
        {
          "internalType": "address",
          "name": "",
          "type": "address"
        }
      ],
      "stateMutability": "view",
      "type": "function"
    },
    {
      "inputs": [],
      "name": "deMinimisMarginThreshold",
      "outputs": [
        {
          "internalType": "uint256",
          "name": "",
          "type": "uint256"
        }
      ],
      "stateMutability": "view",
      "type": "function"
    },
    {
      "inputs": [],
      "name": "encumberedCollateralRemaining",
      "outputs": [
        {
          "internalType": "bool",
          "name": "",
          "type": "bool"
        }
      ],
      "stateMutability": "view",
      "type": "function"
    },
    {
      "inputs": [
        {
          "internalType": "address",
          "name": "collateralToken",
          "type": "address"
        },
        {
          "internalType": "uint256",
          "name": "amount",
          "type": "uint256"
        }
      ],
      "name": "externalLockCollateral",
      "outputs": [],
      "stateMutability": "nonpayable",
      "type": "function"
    },
    {
      "inputs": [
        {
          "internalType": "address",
          "name": "collateralToken",
          "type": "address"
        },
        {
          "internalType": "uint256",
          "name": "amount",
          "type": "uint256"
        }
      ],
      "name": "externalUnlockCollateral",
      "outputs": [],
      "stateMutability": "nonpayable",
      "type": "function"
    },
    {
      "inputs": [
        {
          "internalType": "address",
          "name": "borrower",
          "type": "address"
        },
        {
          "internalType": "address",
          "name": "collateralToken",
          "type": "address"
        }
      ],
      "name": "getCollateralBalance",
      "outputs": [
        {
          "internalType": "uint256",
          "name": "",
          "type": "uint256"
        }
      ],
      "stateMutability": "view",
      "type": "function"
    },
    {
      "inputs": [
        {
          "internalType": "address",
          "name": "borrower",
          "type": "address"
        }
      ],
      "name": "getCollateralBalances",
      "outputs": [
        {
          "internalType": "address[]",
          "name": "",
          "type": "address[]"
        },
        {
          "internalType": "uint256[]",
          "name": "",
          "type": "uint256[]"
        }
      ],
      "stateMutability": "view",
      "type": "function"
    },
    {
      "inputs": [
        {
          "internalType": "address",
          "name": "borrower",
          "type": "address"
        }
      ],
      "name": "getCollateralMarketValue",
      "outputs": [
        {
          "internalType": "uint256",
          "name": "",
          "type": "uint256"
        }
      ],
      "stateMutability": "view",
      "type": "function"
    },
    {
      "inputs": [
        {
          "internalType": "address",
          "name": "collateralToken",
          "type": "address"
        }
      ],
      "name": "getEncumberedCollateralBalances",
      "outputs": [
        {
          "internalType": "uint256",
          "name": "",
          "type": "uint256"
        }
      ],
      "stateMutability": "view",
      "type": "function"
    },
    {
      "inputs": [
        {
          "internalType": "bytes32",
          "name": "role",
          "type": "bytes32"
        }
      ],
      "name": "getRoleAdmin",
      "outputs": [
        {
          "internalType": "bytes32",
          "name": "",
          "type": "bytes32"
        }
      ],
      "stateMutability": "view",
      "type": "function"
    },
    {
      "inputs": [
        {
          "internalType": "bytes32",
          "name": "role",
          "type": "bytes32"
        },
        {
          "internalType": "address",
          "name": "account",
          "type": "address"
        }
      ],
      "name": "grantRole",
      "outputs": [],
      "stateMutability": "nonpayable",
      "type": "function"
    },
    {
      "inputs": [
        {
          "internalType": "bytes32",
          "name": "role",
          "type": "bytes32"
        },
        {
          "internalType": "address",
          "name": "account",
          "type": "address"
        }
      ],
      "name": "hasRole",
      "outputs": [
        {
          "internalType": "bool",
          "name": "",
          "type": "bool"
        }
      ],
      "stateMutability": "view",
      "type": "function"
    },
    {
      "inputs": [
        {
          "internalType": "address",
          "name": "",
          "type": "address"
        }
      ],
      "name": "initialCollateralRatios",
      "outputs": [
        {
          "internalType": "uint256",
          "name": "",
          "type": "uint256"
        }
      ],
      "stateMutability": "view",
      "type": "function"
    },
    {
      "inputs": [
        {
          "internalType": "string",
          "name": "termRepoId_",
          "type": "string"
        },
        {
          "internalType": "uint256",
          "name": "liquidateDamangesDueToProtocol_",
          "type": "uint256"
        },
        {
          "internalType": "uint256",
          "name": "netExposureCapOnLiquidation_",
          "type": "uint256"
        },
        {
          "internalType": "uint256",
          "name": "deMinimisMarginThreshold_",
          "type": "uint256"
        },
        {
          "internalType": "address",
          "name": "purchaseToken_",
          "type": "address"
        },
        {
          "components": [
            {
              "internalType": "address",
              "name": "tokenAddress",
              "type": "address"
            },
            {
              "internalType": "uint256",
              "name": "initialCollateralRatio",
              "type": "uint256"
            },
            {
              "internalType": "uint256",
              "name": "maintenanceRatio",
              "type": "uint256"
            },
            {
              "internalType": "uint256",
              "name": "liquidatedDamage",
              "type": "uint256"
            }
          ],
          "internalType": "struct Collateral[]",
          "name": "collateralTokens_",
          "type": "tuple[]"
        },
        {
          "internalType": "contract ITermEventEmitter",
          "name": "emitter_",
          "type": "address"
        },
        {
          "internalType": "address",
          "name": "termInitializer_",
          "type": "address"
        }
      ],
      "name": "initialize",
      "outputs": [],
      "stateMutability": "nonpayable",
      "type": "function"
    },
    {
      "inputs": [
        {
          "internalType": "address",
          "name": "borrower",
          "type": "address"
        }
      ],
      "name": "isBorrowerInShortfall",
      "outputs": [
        {
          "internalType": "bool",
          "name": "",
          "type": "bool"
        }
      ],
      "stateMutability": "view",
      "type": "function"
    },
    {
      "inputs": [
        {
          "internalType": "address",
          "name": "borrower",
          "type": "address"
        },
        {
          "internalType": "address[]",
          "name": "collateralTokenAddresses",
          "type": "address[]"
        },
        {
          "internalType": "uint256[]",
          "name": "collateralTokenAmounts",
          "type": "uint256[]"
        }
      ],
      "name": "journalBidCollateralToCollateralManager",
      "outputs": [],
      "stateMutability": "nonpayable",
      "type": "function"
    },
    {
      "inputs": [],
      "name": "liquidateDamangesDueToProtocol",
      "outputs": [
        {
          "internalType": "uint256",
          "name": "",
          "type": "uint256"
        }
      ],
      "stateMutability": "view",
      "type": "function"
    },
    {
      "inputs": [
        {
          "internalType": "address",
          "name": "",
          "type": "address"
        }
      ],
      "name": "liquidatedDamages",
      "outputs": [
        {
          "internalType": "uint256",
          "name": "",
          "type": "uint256"
        }
      ],
      "stateMutability": "view",
      "type": "function"
    },
    {
      "inputs": [],
      "name": "liquidationsPaused",
      "outputs": [
        {
          "internalType": "bool",
          "name": "",
          "type": "bool"
        }
      ],
      "stateMutability": "view",
      "type": "function"
    },
    {
      "inputs": [
        {
          "internalType": "address",
          "name": "",
          "type": "address"
        }
      ],
      "name": "maintenanceCollateralRatios",
      "outputs": [
        {
          "internalType": "uint256",
          "name": "",
          "type": "uint256"
        }
      ],
      "stateMutability": "view",
      "type": "function"
    },
    {
      "inputs": [
        {
          "internalType": "address",
          "name": "borrower",
          "type": "address"
        },
        {
          "internalType": "address",
          "name": "collateralToken",
          "type": "address"
        },
        {
          "internalType": "uint256",
          "name": "amount",
          "type": "uint256"
        }
      ],
      "name": "mintOpenExposureLockCollateral",
      "outputs": [],
      "stateMutability": "nonpayable",
      "type": "function"
    },
    {
      "inputs": [],
      "name": "netExposureCapOnLiquidation",
      "outputs": [
        {
          "internalType": "uint256",
          "name": "",
          "type": "uint256"
        }
      ],
      "stateMutability": "view",
      "type": "function"
    },
    {
      "inputs": [],
      "name": "numOfAcceptedCollateralTokens",
      "outputs": [
        {
          "internalType": "uint8",
          "name": "",
          "type": "uint8"
        }
      ],
      "stateMutability": "view",
      "type": "function"
    },
    {
      "inputs": [
        {
          "internalType": "address",
          "name": "termRepoLocker_",
          "type": "address"
        },
        {
          "internalType": "address",
          "name": "termRepoServicer_",
          "type": "address"
        },
        {
          "internalType": "address",
          "name": "termAuctionBidLocker_",
          "type": "address"
        },
        {
          "internalType": "address",
          "name": "termAuction_",
          "type": "address"
        },
        {
          "internalType": "address",
          "name": "termController_",
          "type": "address"
        },
        {
          "internalType": "address",
          "name": "termPriceOracle_",
          "type": "address"
        },
        {
          "internalType": "address",
          "name": "termRepoRolloverManager_",
          "type": "address"
        },
        {
          "internalType": "address",
          "name": "devopsMultisig_",
          "type": "address"
        }
      ],
      "name": "pairTermContracts",
      "outputs": [],
      "stateMutability": "nonpayable",
      "type": "function"
    },
    {
      "inputs": [],
      "name": "pauseLiquidations",
      "outputs": [],
      "stateMutability": "nonpayable",
      "type": "function"
    },
    {
      "inputs": [],
      "name": "proxiableUUID",
      "outputs": [
        {
          "internalType": "bytes32",
          "name": "",
          "type": "bytes32"
        }
      ],
      "stateMutability": "view",
      "type": "function"
    },
    {
      "inputs": [],
      "name": "purchaseToken",
      "outputs": [
        {
          "internalType": "address",
          "name": "",
          "type": "address"
        }
      ],
      "stateMutability": "view",
      "type": "function"
    },
    {
      "inputs": [
        {
          "internalType": "bytes32",
          "name": "role",
          "type": "bytes32"
        },
        {
          "internalType": "address",
          "name": "account",
          "type": "address"
        }
      ],
      "name": "renounceRole",
      "outputs": [],
      "stateMutability": "nonpayable",
      "type": "function"
    },
    {
      "inputs": [
        {
          "components": [
            {
              "internalType": "contract TermAuction",
              "name": "auction",
              "type": "address"
            },
            {
              "internalType": "contract ITermAuctionBidLocker",
              "name": "termAuctionBidLocker",
              "type": "address"
            },
            {
              "internalType": "contract ITermAuctionOfferLocker",
              "name": "termAuctionOfferLocker",
              "type": "address"
            }
          ],
          "internalType": "struct TermAuctionGroup",
          "name": "termAuctionGroup",
          "type": "tuple"
        }
      ],
      "name": "reopenToNewAuction",
      "outputs": [],
      "stateMutability": "nonpayable",
      "type": "function"
    },
    {
      "inputs": [
        {
          "internalType": "bytes32",
          "name": "role",
          "type": "bytes32"
        },
        {
          "internalType": "address",
          "name": "account",
          "type": "address"
        }
      ],
      "name": "revokeRole",
      "outputs": [],
      "stateMutability": "nonpayable",
      "type": "function"
    },
    {
      "inputs": [
        {
          "internalType": "address",
          "name": "collateralToken",
          "type": "address"
        },
        {
          "internalType": "uint256",
          "name": "amount",
          "type": "uint256"
        }
      ],
      "name": "setEncumberedCollateralBalances",
      "outputs": [
        {
          "internalType": "uint256",
          "name": "",
          "type": "uint256"
        }
      ],
      "stateMutability": "nonpayable",
      "type": "function"
    },
    {
      "inputs": [
        {
          "internalType": "bytes4",
          "name": "interfaceId",
          "type": "bytes4"
        }
      ],
      "name": "supportsInterface",
      "outputs": [
        {
          "internalType": "bool",
          "name": "",
          "type": "bool"
        }
      ],
      "stateMutability": "view",
      "type": "function"
    },
    {
      "inputs": [],
      "name": "termRepoId",
      "outputs": [
        {
          "internalType": "bytes32",
          "name": "",
          "type": "bytes32"
        }
      ],
      "stateMutability": "view",
      "type": "function"
    },
    {
      "inputs": [],
      "name": "termRepoLocker",
      "outputs": [
        {
          "internalType": "contract ITermRepoLocker",
          "name": "",
          "type": "address"
        }
      ],
      "stateMutability": "view",
      "type": "function"
    },
    {
      "inputs": [
        {
          "internalType": "address",
          "name": "borrower",
          "type": "address"
        },
        {
          "internalType": "uint256",
          "name": "rolloverProportion",
          "type": "uint256"
        },
        {
          "internalType": "address",
          "name": "rolloverTermRepoLocker",
          "type": "address"
        }
      ],
      "name": "transferRolloverCollateral",
      "outputs": [
        {
          "internalType": "address[]",
          "name": "",
          "type": "address[]"
        },
        {
          "internalType": "uint256[]",
          "name": "",
          "type": "uint256[]"
        }
      ],
      "stateMutability": "nonpayable",
      "type": "function"
    },
    {
      "inputs": [
        {
          "internalType": "address",
          "name": "borrower",
          "type": "address"
        }
      ],
      "name": "unlockCollateralOnRepurchase",
      "outputs": [],
      "stateMutability": "nonpayable",
      "type": "function"
    },
    {
      "inputs": [],
      "name": "unpauseLiquidations",
      "outputs": [],
      "stateMutability": "nonpayable",
      "type": "function"
    },
    {
      "inputs": [
        {
          "internalType": "address",
          "name": "upgradeAddress",
          "type": "address"
        }
      ],
      "name": "upgrade",
      "outputs": [],
      "stateMutability": "nonpayable",
      "type": "function"
    },
    {
      "inputs": [
        {
          "internalType": "address",
          "name": "newImplementation",
          "type": "address"
        }
      ],
      "name": "upgradeTo",
      "outputs": [],
      "stateMutability": "nonpayable",
      "type": "function"
    },
    {
      "inputs": [
        {
          "internalType": "address",
          "name": "newImplementation",
          "type": "address"
        },
        {
          "internalType": "bytes",
          "name": "data",
          "type": "bytes"
        }
      ],
      "name": "upgradeToAndCall",
      "outputs": [],
      "stateMutability": "payable",
      "type": "function"
    },
    {
      "inputs": [],
      "name": "version",
      "outputs": [
        {
          "internalType": "string",
          "name": "",
          "type": "string"
        }
      ],
      "stateMutability": "view",
      "type": "function"
    }
  ],
  "bytecode": "0x60a0604052306080523480156200001557600080fd5b506200002062000026565b620000e7565b600054610100900460ff1615620000935760405162461bcd60e51b815260206004820152602760248201527f496e697469616c697a61626c653a20636f6e747261637420697320696e697469604482015266616c697a696e6760c81b606482015260840160405180910390fd5b60005460ff90811614620000e5576000805460ff191660ff9081179091556040519081527f7f26b83ff96e1f2b6a682f133852f6798a09c465da95921460cefb38474024989060200160405180910390a15b565b6080516158846200011f60003960008181610f2701528181610f67015281816115e80152818161162801526116a001526158846000f3fe6080604052600436106102ab5760003560e01c8063559e4fad11610166578063a11d52f5116100c7578063a11d52f5146108a6578063a217fddf146108bb578063a95c4d62146108d0578063b7d5820b146108f1578063c066bc0e14610938578063c180ead11461094d578063c526c45c1461096d578063cc5b6e4a1461098d578063d547741f146109a3578063de7f872e146109c3578063e0623e14146109e3578063e1cdd05814610a03578063fd5d357a14610a19578063fe05281a14610a3957600080fd5b8063559e4fad146106d5578063578db957146106f55780635c4b440e1461071557806367af01d0146107365780636a509f55146107655780636cfeeca11461077a57806378c2b2c6146107b6578063790cb491146107cc57806382f049ab146107ec57806387bee0171461080c5780638f6d0f111461082c57806391d14854146108465780639210632f1461086657806394a7cfe81461088657600080fd5b80632b56d95e116102105780632b56d95e146104ff5780632f2ff15d1461051f57806336568abe1461053f5780633659cfe61461055f5780633718373f1461057f57806337843bc6146105a157806337cb26f5146105c15780633d0dda78146105d75780634055008a1461060557806343551d0d1461062557806348717eb7146106535780634f1ef2861461067357806352d1902d1461068657806354fd4d501461069b57600080fd5b806301ffc9a7146102b057806302b65fb0146102e557806308c5e176146103155780630900f0101461034c57806309a016081461036e57806312a9006914610390578063172c48c7146103b0578063190e8012146103dd578063201a66251461040f57806320db25d5146104315780632391281c1461045f578063248a9ca31461047f57806327df3d3e146104af5780632a1e8cdb146104d1575b600080fd5b3480156102bc57600080fd5b506102d06102cb366004614b72565b610a5b565b60405190151581526020015b60405180910390f35b3480156102f157600080fd5b5061030760008051602061582f83398151915281565b6040519081526020016102dc565b34801561032157600080fd5b50610307610330366004614bc1565b6001600160a01b03166000908152610107602052604090205490565b34801561035857600080fd5b5061036c610367366004614bc1565b610a92565b005b34801561037a57600080fd5b5061030760008051602061574883398151915281565b34801561039c57600080fd5b5061036c6103ab366004614bc1565b610a9e565b3480156103bc57600080fd5b506103d06103cb366004614bde565b610b3a565b6040516102dc9190614bf7565b3480156103e957600080fd5b5060fc546103fd9062010000900460ff1681565b60405160ff90911681526020016102dc565b34801561041b57600080fd5b5061030760008051602061576883398151915281565b34801561043d57600080fd5b5061030761044c366004614bc1565b6101086020526000908152604090205481565b34801561046b57600080fd5b5061036c61047a366004614c0b565b610b65565b34801561048b57600080fd5b5061030761049a366004614bde565b600090815260c9602052604090206001015490565b3480156104bb57600080fd5b5061030760008051602061578883398151915281565b3480156104dd57600080fd5b506103076104ec366004614bc1565b6101096020526000908152604090205481565b34801561050b57600080fd5b5061036c61051a366004614c4c565b610bea565b34801561052b57600080fd5b5061036c61053a366004614c78565b610e7a565b34801561054b57600080fd5b5061036c61055a366004614c78565b610e9f565b34801561056b57600080fd5b5061036c61057a366004614bc1565b610f1d565b34801561058b57600080fd5b5061030760008051602061580f83398151915281565b3480156105ad57600080fd5b5061036c6105bc366004614cec565b610fe2565b3480156105cd57600080fd5b5061030760fd5481565b3480156105e357600080fd5b506105f76105f2366004614d40565b61140f565b6040516102dc929190614dbd565b34801561061157600080fd5b5061036c610620366004614e13565b61149d565b34801561063157600080fd5b50610307610640366004614bc1565b61010a6020526000908152604090205481565b34801561065f57600080fd5b5061036c61066e366004614c0b565b611591565b61036c610681366004614e71565b6115de565b34801561069257600080fd5b50610307611693565b3480156106a757600080fd5b50604080518082018252600b81526a19195d995b1bdc1b595b9d60aa1b602082015290516102dc9190614f3c565b3480156106e157600080fd5b5061036c6106f0366004614cec565b611741565b34801561070157600080fd5b5061036c610710366004614f6f565b61194d565b34801561072157600080fd5b50610103546103d0906001600160a01b031681565b34801561074257600080fd5b50610756610751366004614c4c565b611b42565b604051905181526020016102dc565b34801561077157600080fd5b5061036c611c7d565b34801561078657600080fd5b50610307610795366004614c4c565b6001600160a01b039091166000908152610107602052604081209190915590565b3480156107c257600080fd5b5061030760fe5481565b3480156107d857600080fd5b5061036c6107e7366004614c0b565b611d03565b3480156107f857600080fd5b5061036c610807366004614cec565b611dbe565b34801561081857600080fd5b5061036c610827366004614ff1565b612095565b34801561083857600080fd5b5060fc546102d09060ff1681565b34801561085257600080fd5b506102d0610861366004614c78565b612457565b34801561087257600080fd5b5061036c610881366004614c0b565b612482565b34801561089257600080fd5b506102d06108a1366004614bc1565b6124ab565b3480156108b257600080fd5b506102d06126d9565b3480156108c757600080fd5b50610307600081565b3480156108dc57600080fd5b50610101546103d0906001600160a01b031681565b3480156108fd57600080fd5b5061030761090c36600461509a565b6001600160a01b03918216600090815261010b6020908152604080832093909416825291909152205490565b34801561094457600080fd5b5061036c61274e565b34801561095957600080fd5b50610307610968366004614bc1565b6127a9565b34801561097957600080fd5b5061036c610988366004614c4c565b6127cb565b34801561099957600080fd5b5061030760fb5481565b3480156109af57600080fd5b5061036c6109be366004614c78565b61291f565b3480156109cf57600080fd5b506105f76109de366004614bc1565b612944565b3480156109ef57600080fd5b5061036c6109fe36600461510c565b612aab565b348015610a0f57600080fd5b5061030760ff5481565b348015610a2557600080fd5b5061036c610a34366004614bc1565b612f4f565b348015610a4557600080fd5b506103076000805160206157c883398151915281565b60006001600160e01b03198216637965db0b60e01b1480610a8c57506301ffc9a760e01b6001600160e01b03198316145b92915050565b610a9b81612f7f565b50565b600080516020615748833981519152610ab681612fca565b60005b61010654811015610b355760006101068281548110610ada57610ada6151f6565b60009182526020808320909101546001600160a01b03878116845261010b83526040808520919092168085529252909120549091508015610b2257610b228583836001612fd4565b505080610b2e90615222565b9050610ab9565b505050565b6101068181548110610b4b57600080fd5b6000918252602090912001546001600160a01b0316905081565b60008051602061580f833981519152610b7d81612fca565b6101035460405163049f2a5160e21b81526001600160a01b039091169063127ca94490610bb29087908790879060040161523b565b600060405180830381600087803b158015610bcc57600080fd5b505af1158015610be0573d6000803e3d6000fd5b5050505050505050565b81610bf48161312c565b610c1c5780604051634428dc3160e01b8152600401610c139190614bf7565b60405180910390fd5b336000839003610c5d5760405163dd23c3ad60e01b815260206004820152600b60248201526a16995c9bc8185b5bdd5b9d60aa1b6044820152606401610c13565b6001600160a01b03808216600090815261010b602090815260408083209388168352929052908120549003610ca5576040516314605b7760e01b815260040160405180910390fd5b61010060009054906101000a90046001600160a01b03166001600160a01b0316631320834f6040518163ffffffff1660e01b8152600401602060405180830381865afa158015610cf9573d6000803e3d6000fd5b505050506040513d601f19601f82011682018060405250810190610d1d919061525f565b4210158015610da2575061010060009054906101000a90046001600160a01b03166001600160a01b0316631b2354376040518163ffffffff1660e01b8152600401602060405180830381865afa158015610d7b573d6000803e3d6000fd5b505050506040513d601f19601f82011682018060405250810190610d9f919061525f565b42105b15610dc057604051633f5a890f60e01b815260040160405180910390fd5b61010054604051632762697d60e01b81526000916001600160a01b031690632762697d90610df2908590600401614bf7565b602060405180830381865afa158015610e0f573d6000803e3d6000fd5b505050506040513d601f19601f82011682018060405250810190610e33919061525f565b15610e3c575060015b610e4882868684612fd4565b610e51826124ab565b15610e73578185604051632263ff6560e11b8152600401610c13929190615278565b5050505050565b600082815260c96020526040902060010154610e9581612fca565b610b35838361315c565b6001600160a01b0381163314610f0f5760405162461bcd60e51b815260206004820152602f60248201527f416363657373436f6e74726f6c3a2063616e206f6e6c792072656e6f756e636560448201526e103937b632b9903337b91039b2b63360891b6064820152608401610c13565b610f1982826131e2565b5050565b6001600160a01b037f0000000000000000000000000000000000000000000000000000000000000000163003610f655760405162461bcd60e51b8152600401610c1390615292565b7f00000000000000000000000000000000000000000000000000000000000000006001600160a01b0316610f97613249565b6001600160a01b031614610fbd5760405162461bcd60e51b8152600401610c13906152de565b610fc681612f7f565b60408051600080825260208201909252610a9b91839190613265565b60fc5460ff161561100657604051637d8d0e2160e01b815260040160405180910390fd5b61010060009054906101000a90046001600160a01b03166001600160a01b0316631320834f6040518163ffffffff1660e01b8152600401602060405180830381865afa15801561105a573d6000803e3d6000fd5b505050506040513d601f19601f8201168201806040525081019061107e919061525f565b421161109d57604051633daab04760e21b815260040160405180910390fd5b6001600160a01b03831633036110c65760405163ae957a1d60e01b815260040160405180910390fd5b6101065481146110e95760405163dd23c3ad60e01b8152600401610c139061532a565b61010054604051632762697d60e01b815260009182916001600160a01b0390911690632762697d9061111f908890600401614bf7565b602060405180830381865afa15801561113c573d6000803e3d6000fd5b505050506040513d601f19601f82011682018060405250810190611160919061525f565b9050806000036111835760405163baca79c960e01b815260040160405180910390fd5b60008060005b85811015611362578686828181106111a3576111a36151f6565b9050602002013560000315611352576000198787838181106111c7576111c76151f6565b90506020020135036111ec5760405163dd23c3ad60e01b8152600401610c1390615387565b8686828181106111fe576111fe6151f6565b905060200201358561121091906153c8565b94508385111561123357604051634fbeca4960e01b815260040160405180910390fd5b610100546001600160a01b031663ec9477e189338a8a86818110611259576112596151f6565b905060200201356040518463ffffffff1660e01b815260040161127e9392919061523b565b600060405180830381600087803b15801561129857600080fd5b505af11580156112ac573d6000803e3d6000fd5b505050506112fa8787838181106112c5576112c56151f6565b9050602002013561010683815481106112e0576112e06151f6565b6000918252602090912001546001600160a01b03166133d0565b80935081945050506113528833610106848154811061131b5761131b6151f6565b6000918252602090912001546001600160a01b03168a8a86818110611342576113426151f6565b9050602002013587876001613693565b61135b81615222565b9050611189565b508360000361138457604051630cabf09b60e01b815260040160405180910390fd5b61010054604051632762697d60e01b81526001600160a01b0390911690632762697d906113b5908a90600401614bf7565b602060405180830381865afa1580156113d2573d6000803e3d6000fd5b505050506040513d601f19601f820116820180604052508101906113f6919061525f565b6000036114065761140687613918565b50505050505050565b6060806000805160206157c883398151915261142a81612fca565b6101066114388787876139f9565b81546040805160208084028201810190925282815291849183018282801561148957602002820191906000526020600020905b81546001600160a01b0316815260019091019060200180831161146b575b505050505091509250925050935093915050565b6000805160206157888339815191526114b581612fca565b6114dc60008051602061580f8339815191526114d76040850160208601614bc1565b61315c565b6114fb60008051602061580f8339815191526114d76020850185614bc1565b6101055460fb546001600160a01b039091169063f3782f2190306115256040870160208801614bc1565b6040516001600160e01b031960e086901b16815260048101939093526001600160a01b0391821660248401521660448201526064015b600060405180830381600087803b15801561157557600080fd5b505af1158015611589573d6000803e3d6000fd5b505050505050565b60008051602061580f8339815191526115a981612fca565b6101035460405163109c8cf960e11b81526001600160a01b039091169063213919f290610bb29087908790879060040161523b565b6001600160a01b037f00000000000000000000000000000000000000000000000000000000000000001630036116265760405162461bcd60e51b8152600401610c1390615292565b7f00000000000000000000000000000000000000000000000000000000000000006001600160a01b0316611658613249565b6001600160a01b03161461167e5760405162461bcd60e51b8152600401610c13906152de565b61168782612f7f565b610f1982826001613265565b6000306001600160a01b037f0000000000000000000000000000000000000000000000000000000000000000161461172e5760405162461bcd60e51b815260206004820152603860248201527f555550535570677261646561626c653a206d757374206e6f742062652063616c6044820152771b1959081d1a1c9bdd59da0819195b1959d85d1958d85b1b60421b6064820152608401610c13565b506000805160206157a883398151915290565b60fc5460ff161561176557604051637d8d0e2160e01b815260040160405180910390fd5b600061177384338585613dbc565b90506000808060005b8581101561190057868682818110611796576117966151f6565b90506020020135600003156118f0576000198787838181106117ba576117ba6151f6565b90506020020135036117df5760405163dd23c3ad60e01b8152600401610c1390615387565b8686828181106117f1576117f16151f6565b905060200201358461180391906153c8565b610100549094506001600160a01b031663ec9477e189338a8a8681811061182c5761182c6151f6565b905060200201356040518463ffffffff1660e01b81526004016118519392919061523b565b600060405180830381600087803b15801561186b57600080fd5b505af115801561187f573d6000803e3d6000fd5b505050506118988787838181106112c5576112c56151f6565b80935081945050506118f0883361010684815481106118b9576118b96151f6565b6000918252602090912001546001600160a01b03168a8a868181106118e0576118e06151f6565b9050602002013587876000613693565b6118f981615222565b905061177c565b508260000361192257604051630cabf09b60e01b815260040160405180910390fd5b836113845761193087613fff565b611384576040516316a0371d60e11b815260040160405180910390fd5b60008051602061574883398151915261196581612fca565b60005b8481101561140657838382818110611982576119826151f6565b9050602002013561010b6000896001600160a01b03166001600160a01b0316815260200190815260200160002060008888858181106119c3576119c36151f6565b90506020020160208101906119d89190614bc1565b6001600160a01b03166001600160a01b031681526020019081526020016000206000828254611a0791906153c8565b909155508490508382818110611a1f57611a1f6151f6565b905060200201356101076000888885818110611a3d57611a3d6151f6565b9050602002016020810190611a529190614bc1565b6001600160a01b03166001600160a01b031681526020019081526020016000206000828254611a8191906153c8565b90915550506101055460fb546001600160a01b039091169063ee9e68bb9089898986818110611ab257611ab26151f6565b9050602002016020810190611ac79190614bc1565b888887818110611ad957611ad96151f6565b905060200201356040518563ffffffff1660e01b8152600401611aff94939291906153db565b600060405180830381600087803b158015611b1957600080fd5b505af1158015611b2d573d6000803e3d6000fd5b5050505080611b3b90615222565b9050611968565b60408051602081018252600081526101025491516303d3c9db60e21b81529091611c7691611bf7916001600160a01b031690630f4f276c90611b8a9088908890600401615400565b602060405180830381865afa158015611ba7573d6000803e3d6000fd5b505050506040513d601f19601f82011682018060405250810190611bcb9190615419565b60408051602080820183526001600160a01b038916600090815261010990915291909120548152614285565b61010254610101546040516303d3c9db60e21b81526001600160a01b0392831692630f4f276c92611c3092911690600190600401615400565b602060405180830381865afa158015611c4d573d6000803e3d6000fd5b505050506040513d601f19601f82011682018060405250810190611c719190615419565b614285565b9392505050565b600080516020615768833981519152611c9581612fca565b60fc805460ff191690556101055460fb546040516302ddfefd60e51b81526001600160a01b0390921691635bbfdfa091611cd59160040190815260200190565b600060405180830381600087803b158015611cef57600080fd5b505af1158015610e73573d6000803e3d6000fd5b60008051602061580f833981519152611d1b81612fca565b6001600160a01b03808516600090815261010b6020908152604080832093871683529290529081208054849290611d539084906153c8565b90915550506001600160a01b0383166000908152610107602052604081208054849290611d819084906153c8565b90915550506101055460fb5460405163ee9e68bb60e01b81526001600160a01b039092169163ee9e68bb91610bb2918890889088906004016153db565b60fc5460ff1615611de257604051637d8d0e2160e01b815260040160405180910390fd5b6000611df084338585613dbc565b90506000808080805b86811015611fc657878782818110611e1357611e136151f6565b9050602002013560000315611fb657600019888883818110611e3757611e376151f6565b9050602002013503611e9f5760405163dd23c3ad60e01b815260206004820152602a60248201527f636c6f737572655265706f546f6b656e416d6f756e74732063616e6e6f7420626044820152690ca40ead2dce840dac2f60b31b6064820152608401610c13565b878782818110611eb157611eb16151f6565b9050602002013585611ec391906153c8565b610100549095506001600160a01b03166309aa80fc8a338b8b86818110611eec57611eec6151f6565b905060200201356040518463ffffffff1660e01b8152600401611f119392919061523b565b6020604051808303816000875af1158015611f30573d6000803e3d6000fd5b505050506040513d601f19601f82011682018060405250810190611f54919061525f565b9350611f6e8461010683815481106112e0576112e06151f6565b8093508194505050611fb689336101068481548110611f8f57611f8f6151f6565b6000918252602090912001546001600160a01b03168b8b868181106118e0576118e06151f6565b611fbf81615222565b9050611df9565b5083600003611fe857604051630cabf09b60e01b815260040160405180910390fd5b8461201357611ff688613fff565b612013576040516316a0371d60e11b815260040160405180910390fd5b61010054604051632762697d60e01b81526001600160a01b0390911690632762697d90612044908b90600401614bf7565b602060405180830381865afa158015612061573d6000803e3d6000fd5b505050506040513d601f19601f82011682018060405250810190612085919061525f565b600003610be057610be088613918565b6000805160206157888339815191526120ad81612fca565b60fc54610100900460ff16156120d657604051634ce377bb60e11b815260040160405180910390fd5b60fc805461ff00191661010090811790915561010380546001600160a01b03808d166001600160a01b03199283161790925582548b831690821617909255610102805487831690841617905561010480549188169190921617905561214960008051602061580f8339815191528861315c565b61216160008051602061580f8339815191528761315c565b61217960008051602061580f8339815191528961315c565b6121916000805160206157488339815191528961315c565b6121a960008051602061582f8339815191528461315c565b6121c16000805160206157688339815191528361315c565b610106546000906001600160401b038111156121df576121df614e2b565b604051908082528060200260200182016040528015612208578160200160208202803683370190505b50610106549091506000906001600160401b0381111561222a5761222a614e2b565b604051908082528060200260200182016040528015612253578160200160208202803683370190505b50610106549091506000906001600160401b0381111561227557612275614e2b565b60405190808252806020026020018201604052801561229e578160200160208202803683370190505b50905060005b610106548110156123d857610108600061010683815481106122c8576122c86151f6565b60009182526020808320909101546001600160a01b031683528201929092526040019020548451859083908110612301576123016151f6565b60200260200101818152505061010960006101068381548110612326576123266151f6565b60009182526020808320909101546001600160a01b03168352820192909252604001902054835184908390811061235f5761235f6151f6565b60200260200101818152505061010a60006101068381548110612384576123846151f6565b60009182526020808320909101546001600160a01b0316835282019290925260400190205482518390839081106123bd576123bd6151f6565b60209081029190910101526123d181615222565b90506122a4565b506101055460fb546040516329b35d4760e21b81526001600160a01b039092169163a6cd751c916124179130906101069088908a90899060040161545a565b600060405180830381600087803b15801561243157600080fd5b505af1158015612445573d6000803e3d6000fd5b50505050505050505050505050505050565b600091825260c9602090815260408084206001600160a01b0393909316845291905290205460ff1690565b60008051602061574883398151915261249a81612fca565b6124a58484846142c8565b50505050565b610102546101015461010054604051632762697d60e01b815260009384936001600160a01b0391821693630f4f276c93918316921690632762697d906124f5908990600401614bf7565b602060405180830381865afa158015612512573d6000803e3d6000fd5b505050506040513d601f19601f82011682018060405250810190612536919061525f565b6040518363ffffffff1660e01b8152600401612553929190615400565b602060405180830381865afa158015612570573d6000803e3d6000fd5b505050506040513d601f19601f820116820180604052508101906125949190615419565b60408051602081019091526000808252919250905b610106548110156126ba57600061010682815481106125ca576125ca6151f6565b6000918252602080832090910154610102546001600160a01b038a8116855261010b84526040808620938216808752939094528385205493516303d3c9db60e21b815292955061269993911691630f4f276c9161262c91879190600401615400565b602060405180830381865afa158015612649573d6000803e3d6000fd5b505050506040513d601f19601f8201168201806040525081019061266d9190615419565b60408051602080820183526001600160a01b038716600090815261010890915291909120548152614285565b90506126a58185614400565b93505050806126b390615222565b90506125a9565b508151815110156126cf575060019392505050565b5060009392505050565b6000805b6101065481101561274657600061010760006101068481548110612703576127036151f6565b60009182526020808320909101546001600160a01b03168352820192909252604001902054111561273657600191505090565b61273f81615222565b90506126dd565b506000905090565b60008051602061576883398151915261276681612fca565b60fc805460ff191660011790556101055460fb5460405163c8df617960e01b81526001600160a01b039092169163c8df617991611cd59160040190815260200190565b6001600160a01b038116600090815261010b60205260408120610a8c9061442c565b816127d58161312c565b6127f45780604051634428dc3160e01b8152600401610c139190614bf7565b6101005460408051631320834f60e01b8152905133926001600160a01b031691631320834f9160048083019260209291908290030181865afa15801561283e573d6000803e3d6000fd5b505050506040513d601f19601f82011682018060405250810190612862919061525f565b4211156128825760405163c5e2992f60e01b815260040160405180910390fd5b61010054604051632762697d60e01b81526001600160a01b0390911690632762697d906128b3908490600401614bf7565b602060405180830381865afa1580156128d0573d6000803e3d6000fd5b505050506040513d601f19601f820116820180604052508101906128f4919061525f565b6000036129145760405163baca79c960e01b815260040160405180910390fd5b6124a58185856142c8565b600082815260c9602052604090206001015461293a81612fca565b610b3583836131e2565b6060806000610106805490506001600160401b0381111561296757612967614e2b565b604051908082528060200260200182016040528015612990578160200160208202803683370190505b50610106549091506000906001600160401b038111156129b2576129b2614e2b565b6040519080825280602002602001820160405280156129db578160200160208202803683370190505b50905060005b61010654811015612aa05760006101068281548110612a0257612a026151f6565b60009182526020808320909101546001600160a01b038a8116845261010b83526040808520919092168085529252909120548551919250908290869085908110612a4e57612a4e6151f6565b60200260200101906001600160a01b031690816001600160a01b03168152505080848481518110612a8157612a816151f6565b602002602001018181525050505080612a9990615222565b90506129e1565b509094909350915050565b600054610100900460ff1615808015612acb5750600054600160ff909116105b80612aec5750612ada3061455a565b158015612aec575060005460ff166001145b612b4f5760405162461bcd60e51b815260206004820152602e60248201527f496e697469616c697a61626c653a20636f6e747261637420697320616c72656160448201526d191e481a5b9a5d1a585b1a5e995960921b6064820152608401610c13565b6000805460ff191660011790558015612b72576000805461ff0019166101001790555b612b7a614569565b612b82614569565b8a8a604051602001612b959291906154fd565b60408051601f19818403018152919052805160209091012060fb5560fc805460ff1916905560fe89905560ff88905560fd8790556001600160a01b038616612c1d5760405162461bcd60e51b815260206004820152601b60248201527a2d32b9379030b2323932b9b990383ab931b430b9b2903a37b5b2b760291b6044820152606401610c13565b61010180546001600160a01b0319166001600160a01b03881617905560fc805462ff000019166201000060ff871602179055836001600160401b03811115612c6757612c67614e2b565b604051908082528060200260200182016040528015612c90578160200160208202803683370190505b508051612ca69161010691602090910190614af8565b5060005b84811015612ec757858582818110612cc457612cc46151f6565b612cda9260206080909202019081019150614bc1565b6101068281548110612cee57612cee6151f6565b9060005260206000200160006101000a8154816001600160a01b0302191690836001600160a01b03160217905550858582818110612d2e57612d2e6151f6565b905060800201604001356101086000888885818110612d4f57612d4f6151f6565b612d659260206080909202019081019150614bc1565b6001600160a01b03168152602081019190915260400160002055858582818110612d9157612d916151f6565b905060800201602001356101096000888885818110612db257612db26151f6565b612dc89260206080909202019081019150614bc1565b6001600160a01b03168152602081019190915260400160002055858582818110612df457612df46151f6565b90506080020160600135600003612e495760405162461bcd60e51b81526020600482015260196024820152784c6971756964617465642064616d616765206973207a65726f60381b6044820152606401610c13565b858582818110612e5b57612e5b6151f6565b9050608002016060013561010a6000888885818110612e7c57612e7c6151f6565b612e929260206080909202019081019150614bc1565b6001600160a01b0316815260208101919091526040016000205560fc805461ff0019169055612ec081615222565b9050612caa565b5061010580546001600160a01b0319166001600160a01b038516179055612efc6000805160206157888339815191528361315c565b8015612f42576000805461ff0019169055604051600181527f7f26b83ff96e1f2b6a682f133852f6798a09c465da95921460cefb38474024989060200160405180910390a15b5050505050505050505050565b60008051602061582f833981519152612f6781612fca565b610f196000805160206157c88339815191528361315c565b600080516020615768833981519152612f9781612fca565b6101055460405163b3c2d50b60e01b81526001600160a01b039091169063b3c2d50b9061155b9030908690600401615278565b610a9b81336145d6565b6001600160a01b03808516600090815261010b602090815260408083209387168352929052205482111561301b5760405163380984fd60e21b815260040160405180910390fd5b6001600160a01b03808516600090815261010b602090815260408083209387168352929052908120805484929061305390849061550d565b9091555050801561308d576001600160a01b038316600090815261010760205260408120805484929061308790849061550d565b90915550505b6101035460405163109c8cf960e11b81526001600160a01b039091169063213919f2906130c29087908790879060040161523b565b600060405180830381600087803b1580156130dc57600080fd5b505af11580156130f0573d6000803e3d6000fd5b50506101055460fb54604051633b8d409b60e01b81526001600160a01b039092169350633b8d409b9250610bb2918890889088906004016153db565b6001600160a01b038116600090815261010a6020526040812054810361315457506000919050565b506001919050565b6131668282612457565b610f1957600082815260c9602090815260408083206001600160a01b03851684529091529020805460ff1916600117905561319e3390565b6001600160a01b0316816001600160a01b0316837f2f8788117e7eff1d82e926ec794901d17c78024a50270940304540a733656f0d60405160405180910390a45050565b6131ec8282612457565b15610f1957600082815260c9602090815260408083206001600160a01b0385168085529252808320805460ff1916905551339285917ff6391f5c32d9c69d2a47ea670b442974b53935d1edc7fd64eb21e047a839171b9190a45050565b6000805160206157a8833981519152546001600160a01b031690565b7f4910fdfa16fed3260ed0e7147f7cc6da11a60208b5b9406d12a635614ffd91435460ff161561329857610b358361462f565b826001600160a01b03166352d1902d6040518163ffffffff1660e01b8152600401602060405180830381865afa9250505080156132f2575060408051601f3d908101601f191682019092526132ef9181019061525f565b60015b6133555760405162461bcd60e51b815260206004820152602e60248201527f45524331393637557067726164653a206e657720696d706c656d656e7461746960448201526d6f6e206973206e6f74205555505360901b6064820152608401610c13565b6000805160206157a883398151915281146133c45760405162461bcd60e51b815260206004820152602960248201527f45524331393637557067726164653a20756e737570706f727465642070726f786044820152681a58589b195555525160ba1b6064820152608401610c13565b50610b358383836146c9565b61010254610101546040516303d3c9db60e21b81526000928392859284926001600160a01b0390811692630f4f276c9261341292909116908a90600401615400565b602060405180830381865afa15801561342f573d6000803e3d6000fd5b505050506040513d601f19601f820116820180604052508101906134539190615419565b9050600061350b8261010260009054906101000a90046001600160a01b03166001600160a01b0316630f4f276c89876001600160a01b031663313ce5676040518163ffffffff1660e01b8152600401602060405180830381865afa1580156134bf573d6000803e3d6000fd5b505050506040513d601f19601f820116820180604052508101906134e39190615520565b6134ee90600a615627565b6040518363ffffffff1660e01b8152600401611c30929190615400565b6040805160208082018352670de0b6b3a76400008252825180820184526001600160a01b038b16600090815261010a90925292812054835292935061355a91849161355591614400565b6146ee565b9050600061357883604051806020016040528060fe548152506146ee565b9050846001600160a01b031663313ce5676040518163ffffffff1660e01b8152600401602060405180830381865afa1580156135b8573d6000803e3d6000fd5b505050506040513d601f19601f820116820180604052508101906135dc9190615520565b6135e7906012615636565b6135f290600a615627565b82516135fe919061564f565b856001600160a01b031663313ce5676040518163ffffffff1660e01b8152600401602060405180830381865afa15801561363c573d6000803e3d6000fd5b505050506040513d601f19601f820116820180604052508101906136609190615520565b61366b906012615636565b61367690600a615627565b8251613682919061564f565b9650965050505050505b9250929050565b6001600160a01b03808816600090815261010b60209081526040808320938916835292905220548311156136dc57846040516398de333560e01b8152600401610c139190614bf7565b6001600160a01b03808816600090815261010b602090815260408083209389168352929052908120805485929061371490849061550d565b90915550506001600160a01b038516600090815261010760205260408120805485929061374290849061550d565b909155505061010354610104546040805163012f8d2f60e11b815290516001600160a01b039384169363213919f293169163025f1a5e9160048083019260209291908290030181865afa15801561379d573d6000803e3d6000fd5b505050506040513d601f19601f820116820180604052508101906137c19190615671565b87856040518463ffffffff1660e01b81526004016137e19392919061523b565b600060405180830381600087803b1580156137fb57600080fd5b505af115801561380f573d6000803e3d6000fd5b5050610103546001600160a01b0316915063213919f290508787613833868861550d565b6040518463ffffffff1660e01b81526004016138519392919061523b565b600060405180830381600087803b15801561386b57600080fd5b505af115801561387f573d6000803e3d6000fd5b50506101055460fb54604051639cc487d760e01b815260048101919091526001600160a01b038b811660248301528a8116604483015260648201899052898116608483015260a4820188905260c4820187905285151560e48301529091169250639cc487d7915061010401600060405180830381600087803b15801561390457600080fd5b505af1158015612f42573d6000803e3d6000fd5b60005b61010654811015610f19576001600160a01b038216600090815261010b60205260408120610106805491929184908110613957576139576151f6565b9060005260206000200160009054906101000a90046001600160a01b03166001600160a01b03166001600160a01b0316815260200190815260200160002054610107600061010684815481106139af576139af6151f6565b60009182526020808320909101546001600160a01b03168352820192909252604001812080549091906139e390849061550d565b909155506139f2905081615222565b905061391b565b610106546060906000906001600160401b03811115613a1a57613a1a614e2b565b604051908082528060200260200182016040528015613a43578160200160208202803683370190505b50905060005b61010654811015613db35760006101068281548110613a6a57613a6a6151f6565b60009182526020808320909101546001600160a01b038a8116845261010b83526040808520919092168085529252909120549091508015613da057670de0b6b3a76400008703613c15576001600160a01b03888116600090815261010b602090815260408083209386168352929052908120805491905584518190869086908110613af757613af76151f6565b602002602001018181525050806101076000856001600160a01b03166001600160a01b031681526020019081526020016000206000828254613b39919061550d565b90915550506101035460405163109c8cf960e11b81526001600160a01b039091169063213919f290613b73908a908790869060040161523b565b600060405180830381600087803b158015613b8d57600080fd5b505af1158015613ba1573d6000803e3d6000fd5b50506101055460fb54604051633b8d409b60e01b81526001600160a01b039092169350633b8d409b9250613bdd918d90889087906004016153db565b600060405180830381600087803b158015613bf757600080fd5b505af1158015613c0b573d6000803e3d6000fd5b5050505050613da0565b6000613c2f60405180602001604052808a8152508361472d565b6001600160a01b03808b16600090815261010b60209081526040808320938816835292905290812080549293508392909190613c6c90849061550d565b9250508190555080858581518110613c8657613c866151f6565b602002602001018181525050806101076000856001600160a01b03166001600160a01b031681526020019081526020016000206000828254613cc8919061550d565b90915550506101035460405163109c8cf960e11b81526001600160a01b039091169063213919f290613d02908a908790869060040161523b565b600060405180830381600087803b158015613d1c57600080fd5b505af1158015613d30573d6000803e3d6000fd5b50506101055460fb54604051633b8d409b60e01b81526001600160a01b039092169350633b8d409b9250613d6c918d90889087906004016153db565b600060405180830381600087803b158015613d8657600080fd5b505af1158015613d9a573d6000803e3d6000fd5b50505050505b505080613dac90615222565b9050613a49565b50949350505050565b6101005460408051631320834f60e01b815290516000926001600160a01b031691631320834f9160048083019260209291908290030181865afa158015613e07573d6000803e3d6000fd5b505050506040513d601f19601f82011682018060405250810190613e2b919061525f565b421115613e4b576040516321f8431560e01b815260040160405180910390fd5b846001600160a01b0316846001600160a01b031603613e7d5760405163ae957a1d60e01b815260040160405180910390fd5b610106548214613ea05760405163dd23c3ad60e01b8152600401610c139061532a565b61010054604051632762697d60e01b81526000916001600160a01b031690632762697d90613ed2908990600401614bf7565b602060405180830381865afa158015613eef573d6000803e3d6000fd5b505050506040513d601f19601f82011682018060405250810190613f13919061525f565b905080600003613f365760405163baca79c960e01b815260040160405180910390fd5b613f3f866124ab565b613f5c5760405163e94a979360e01b815260040160405180910390fd5b60fd5461010254610101546040516303d3c9db60e21b8152600093926001600160a01b0390811692630f4f276c92613f9c92909116908790600401615400565b602060405180830381865afa158015613fb9573d6000803e3d6000fd5b505050506040513d601f19601f82011682018060405250810190613fdd9190615419565b51613fe891906153c8565b613ff1886127a9565b10925050505b949350505050565b61010054604051632762697d60e01b815260009182916001600160a01b0390911690632762697d90614035908690600401614bf7565b602060405180830381865afa158015614052573d6000803e3d6000fd5b505050506040513d601f19601f82011682018060405250810190614076919061525f565b9050806000036140895750600092915050565b604080516020810190915260008082525b610106548110156141ab57600061010682815481106140bb576140bb6151f6565b6000918252602080832090910154610102546001600160a01b038a8116855261010b84526040808620938216808752939094528385205493516303d3c9db60e21b815292955061418a93911691630f4f276c9161411d91879190600401615400565b602060405180830381865afa15801561413a573d6000803e3d6000fd5b505050506040513d601f19601f8201168201806040525081019061415e9190615419565b60408051602080820183526001600160a01b038716600090815261010990915291909120548152614285565b90506141968185614400565b93505050806141a490615222565b905061409a565b5061010254610101546040516303d3c9db60e21b81526000926001600160a01b0390811692630f4f276c926141e892909116908790600401615400565b602060405180830381865afa158015614205573d6000803e3d6000fd5b505050506040513d601f19601f820116820180604052508101906142299190615419565b905061423782825190511090565b1561424757506001949350505050565b60006142538383614745565b905061427b6142628284614285565b604051806020016040528060ff54815250519051111590565b9695505050505050565b60408051602081019091526000815260405180602001604052806142bf6142b88660000151670de0b6b3a7640000614771565b855161477d565b90529392505050565b6001600160a01b03808416600090815261010b60209081526040808320938616835292905290812080548392906143009084906153c8565b90915550506001600160a01b038216600090815261010760205260408120805483929061432e9084906153c8565b90915550506101035460405163049f2a5160e21b81526001600160a01b039091169063127ca944906143689086908690869060040161523b565b600060405180830381600087803b15801561438257600080fd5b505af1158015614396573d6000803e3d6000fd5b50506101055460fb5460405163ee9e68bb60e01b81526001600160a01b03909216935063ee9e68bb92506143d2918790879087906004016153db565b600060405180830381600087803b1580156143ec57600080fd5b505af1158015611406573d6000803e3d6000fd5b60408051602081019091526000815260405180602001604052806142bf85600001518560000151614789565b6040805160208101909152600080825290815b61010654811015614552576101025461010680546145409285926001600160a01b0390911691630f4f276c91908690811061447c5761447c6151f6565b9060005260206000200160009054906101000a90046001600160a01b031688600061010688815481106144b1576144b16151f6565b60009182526020808320909101546001600160a01b0316835282019290925260409081019091205490516001600160e01b031960e085901b1681526144fa929190600401615400565b602060405180830381865afa158015614517573d6000803e3d6000fd5b505050506040513d601f19601f8201168201806040525081019061453b9190615419565b614400565b915061454b81615222565b905061443f565b505192915050565b6001600160a01b03163b151590565b600054610100900460ff166145d45760405162461bcd60e51b815260206004820152602b60248201527f496e697469616c697a61626c653a20636f6e7472616374206973206e6f74206960448201526a6e697469616c697a696e6760a81b6064820152608401610c13565b565b6145e08282612457565b610f19576145ed81614795565b6145f88360206147a7565b60405160200161460992919061568e565b60408051601f198184030181529082905262461bcd60e51b8252610c1391600401614f3c565b6146388161455a565b61469a5760405162461bcd60e51b815260206004820152602d60248201527f455243313936373a206e657720696d706c656d656e746174696f6e206973206e60448201526c1bdd08184818dbdb9d1c9858dd609a1b6064820152608401610c13565b6000805160206157a883398151915280546001600160a01b0319166001600160a01b0392909216919091179055565b6146d283614942565b6000825111806146df5750805b15610b35576124a58383614982565b6040805160208101909152600081526040518060200160405280670de0b6b3a764000061472386600001518660000151614771565b6142bf919061564f565b60008061473a84846149a7565b9050613ff7816149cf565b60408051602081019091526000815260405180602001604052806142bf856000015185600001516149e7565b6000611c7682846156fd565b6000611c76828461564f565b6000611c7682846153c8565b6060610a8c6001600160a01b03831660145b606060006147b68360026156fd565b6147c19060026153c8565b6001600160401b038111156147d8576147d8614e2b565b6040519080825280601f01601f191660200182016040528015614802576020820181803683370190505b509050600360fc1b8160008151811061481d5761481d6151f6565b60200101906001600160f81b031916908160001a905350600f60fb1b8160018151811061484c5761484c6151f6565b60200101906001600160f81b031916908160001a90535060006148708460026156fd565b61487b9060016153c8565b90505b60018111156148f3576f181899199a1a9b1b9c1cb0b131b232b360811b85600f16601081106148af576148af6151f6565b1a60f81b8282815181106148c5576148c56151f6565b60200101906001600160f81b031916908160001a90535060049490941c936148ec81615714565b905061487e565b508315611c765760405162461bcd60e51b815260206004820181905260248201527f537472696e67733a20686578206c656e67746820696e73756666696369656e746044820152606401610c13565b61494b8161462f565b6040516001600160a01b038216907fbc7cd75a20ee27fd9adebab32041f755214dbc6bffa90cc0225b39da2e5c2d3b90600090a250565b6060611c7683836040518060600160405280602781526020016157e8602791396149f3565b60408051602081019091526000815260405180602001604052806142bf856000015185614771565b8051600090610a8c90670de0b6b3a76400009061564f565b6000611c76828461550d565b6060600080856001600160a01b031685604051614a10919061572b565b600060405180830381855af49150503d8060008114614a4b576040519150601f19603f3d011682016040523d82523d6000602084013e614a50565b606091505b509150915061427b8683838760608315614ac9578251600003614ac257614a768561455a565b614ac25760405162461bcd60e51b815260206004820152601d60248201527f416464726573733a2063616c6c20746f206e6f6e2d636f6e74726163740000006044820152606401610c13565b5081613ff7565b613ff78383815115614ade5781518083602001fd5b8060405162461bcd60e51b8152600401610c139190614f3c565b828054828255906000526020600020908101928215614b4d579160200282015b82811115614b4d57825182546001600160a01b0319166001600160a01b03909116178255602090920191600190910190614b18565b50614b59929150614b5d565b5090565b5b80821115614b595760008155600101614b5e565b600060208284031215614b8457600080fd5b81356001600160e01b031981168114611c7657600080fd5b6001600160a01b0381168114610a9b57600080fd5b8035614bbc81614b9c565b919050565b600060208284031215614bd357600080fd5b8135611c7681614b9c565b600060208284031215614bf057600080fd5b5035919050565b6001600160a01b0391909116815260200190565b600080600060608486031215614c2057600080fd5b8335614c2b81614b9c565b92506020840135614c3b81614b9c565b929592945050506040919091013590565b60008060408385031215614c5f57600080fd5b8235614c6a81614b9c565b946020939093013593505050565b60008060408385031215614c8b57600080fd5b823591506020830135614c9d81614b9c565b809150509250929050565b60008083601f840112614cba57600080fd5b5081356001600160401b03811115614cd157600080fd5b6020830191508360208260051b850101111561368c57600080fd5b600080600060408486031215614d0157600080fd5b8335614d0c81614b9c565b925060208401356001600160401b03811115614d2757600080fd5b614d3386828701614ca8565b9497909650939450505050565b600080600060608486031215614d5557600080fd5b8335614d6081614b9c565b9250602084013591506040840135614d7781614b9c565b809150509250925092565b600081518084526020808501945080840160005b83811015614db257815187529582019590820190600101614d96565b509495945050505050565b604080825283519082018190526000906020906060840190828701845b82811015614dff5781516001600160a01b031684529284019290840190600101614dda565b5050508381038285015261427b8186614d82565b600060608284031215614e2557600080fd5b50919050565b634e487b7160e01b600052604160045260246000fd5b604051601f8201601f191681016001600160401b0381118282101715614e6957614e69614e2b565b604052919050565b60008060408385031215614e8457600080fd5b8235614e8f81614b9c565b91506020838101356001600160401b0380821115614eac57600080fd5b818601915086601f830112614ec057600080fd5b813581811115614ed257614ed2614e2b565b614ee4601f8201601f19168501614e41565b91508082528784828501011115614efa57600080fd5b80848401858401376000848284010152508093505050509250929050565b60005b83811015614f33578181015183820152602001614f1b565b50506000910152565b6020815260008251806020840152614f5b816040850160208701614f18565b601f01601f19169190910160400192915050565b600080600080600060608688031215614f8757600080fd5b8535614f9281614b9c565b945060208601356001600160401b0380821115614fae57600080fd5b614fba89838a01614ca8565b90965094506040880135915080821115614fd357600080fd5b50614fe088828901614ca8565b969995985093965092949392505050565b600080600080600080600080610100898b03121561500e57600080fd5b883561501981614b9c565b9750602089013561502981614b9c565b9650604089013561503981614b9c565b9550606089013561504981614b9c565b9450608089013561505981614b9c565b935060a089013561506981614b9c565b925060c089013561507981614b9c565b915060e089013561508981614b9c565b809150509295985092959890939650565b600080604083850312156150ad57600080fd5b82356150b881614b9c565b91506020830135614c9d81614b9c565b60008083601f8401126150da57600080fd5b5081356001600160401b038111156150f157600080fd5b6020830191508360208260071b850101111561368c57600080fd5b6000806000806000806000806000806101008b8d03121561512c57600080fd5b8a356001600160401b038082111561514357600080fd5b818d0191508d601f83011261515757600080fd5b81358181111561516657600080fd5b8e602082850101111561517857600080fd5b60208381019d50909b508d0135995060408d0135985060608d013597506151a160808e01614bb1565b965060a08d01359150808211156151b757600080fd5b506151c48d828e016150c8565b90955093506151d7905060c08c01614bb1565b91506151e560e08c01614bb1565b90509295989b9194979a5092959850565b634e487b7160e01b600052603260045260246000fd5b634e487b7160e01b600052601160045260246000fd5b6000600182016152345761523461520c565b5060010190565b6001600160a01b039384168152919092166020820152604081019190915260600190565b60006020828403121561527157600080fd5b5051919050565b6001600160a01b0392831681529116602082015260400190565b6020808252602c908201527f46756e6374696f6e206d7573742062652063616c6c6564207468726f7567682060408201526b19195b1959d85d1958d85b1b60a21b606082015260800190565b6020808252602c908201527f46756e6374696f6e206d7573742062652063616c6c6564207468726f7567682060408201526b6163746976652070726f787960a01b606082015260800190565b6020808252603f908201527f436c6f7375726520616d6f756e7473206172726179206e6f742073616d65206c60408201527f656e67746820617320636f6c6c61746572616c20746f6b656e73206c69737400606082015260800190565b60208082526021908201527f636c6f73757265416d6f756e74732063616e6e6f742062652075696e74206d616040820152600f60fb1b606082015260800190565b80820180821115610a8c57610a8c61520c565b9384526001600160a01b03928316602085015291166040830152606082015260800190565b6001600160a01b03929092168252602082015260400190565b60006020828403121561542b57600080fd5b604051602081018181106001600160401b038211171561544d5761544d614e2b565b6040529151825250919050565b600060c08201888352602060018060a01b03808a168286015260c0604086015282895480855260e0870191508a60005283600020945060005b818110156154b1578554841683526001958601959285019201615493565b505085810360608701526154c5818a614d82565b935050505082810360808401526154dc8186614d82565b905082810360a08401526154f08185614d82565b9998505050505050505050565b8183823760009101908152919050565b81810381811115610a8c57610a8c61520c565b60006020828403121561553257600080fd5b815160ff81168114611c7657600080fd5b600181815b8085111561557e5781600019048211156155645761556461520c565b8085161561557157918102915b93841c9390800290615548565b509250929050565b60008261559557506001610a8c565b816155a257506000610a8c565b81600181146155b857600281146155c2576155de565b6001915050610a8c565b60ff8411156155d3576155d361520c565b50506001821b610a8c565b5060208310610133831016604e8410600b8410161715615601575081810a610a8c565b61560b8383615543565b806000190482111561561f5761561f61520c565b029392505050565b6000611c7660ff841683615586565b60ff8281168282160390811115610a8c57610a8c61520c565b60008261566c57634e487b7160e01b600052601260045260246000fd5b500490565b60006020828403121561568357600080fd5b8151611c7681614b9c565b76020b1b1b2b9b9a1b7b73a3937b61d1030b1b1b7bab73a1604d1b8152600083516156c0816017850160208801614f18565b7001034b99036b4b9b9b4b733903937b6329607d1b60179184019182015283516156f1816028840160208801614f18565b01602801949350505050565b8082028115828204841417610a8c57610a8c61520c565b6000816157235761572361520c565b506000190190565b6000825161573d818460208701614f18565b919091019291505056fe250b76734a070a69c7b3930477dd35007ad9c9d0952e97903fdafb2db6980537793a6c9b7e0a9549c74edc2f9ae0dc50903dfaa9a56fb0116b27a8c71de3e2c630d41a597cac127d8249d31298b50e481ee82c3f4a49ff93c76a22735aa9f3ad360894a13ba1a3210667c828492db98dca3e2076cc3735a920a3ca505d382bbcf4b6b486426e3c004413defb7013cd482f29189a98e074f1c202b2ac26536bb2416464726573733a206c6f772d6c6576656c2064656c65676174652063616c6c206661696c65646e14a979b95b01beecd617807f3738f4e067938da99755b16afdcf7148d313b76e3cc031d23d7153f72e87cbfd113a0351c60d8ce52b8a31c944d543a384b7c9a26469706673582212204c8363b66ff59e2fa4b0f664e539b2e5f79db8974ad9ab783cdb75643df9ffa964736f6c63430008120033",
  "linkReferences": {},
  "deployedLinkReferences": {}
}