{
  "_format": "hh-sol-artifact-1",
  "contractName": "TestTermRepoCollateralManager",
  "sourceName": "contracts/test/TestTermRepoCollateralManager.sol",
  "abi": [
    {
      "inputs": [],
      "name": "AccessControlBadConfirmation",
      "type": "error"
    },
    {
      "inputs": [
        {
          "internalType": "address",
          "name": "account",
          "type": "address"
        },
        {
          "internalType": "bytes32",
          "name": "neededRole",
          "type": "bytes32"
        }
      ],
      "name": "AccessControlUnauthorizedAccount",
      "type": "error"
    },
    {
      "inputs": [
        {
          "internalType": "address",
          "name": "target",
          "type": "address"
        }
      ],
      "name": "AddressEmptyCode",
      "type": "error"
    },
    {
      "inputs": [],
      "name": "AlreadyTermContractPaired",
      "type": "error"
    },
    {
      "inputs": [],
      "name": "BorrowerNotInShortfall",
      "type": "error"
    },
    {
      "inputs": [],
      "name": "CallerNotBorrower",
      "type": "error"
    },
    {
      "inputs": [
        {
          "internalType": "address",
          "name": "borrower",
          "type": "address"
        },
        {
          "internalType": "address",
          "name": "token",
          "type": "address"
        }
      ],
      "name": "CollateralBelowMaintenanceRatios",
      "type": "error"
    },
    {
      "inputs": [],
      "name": "CollateralDepositClosed",
      "type": "error"
    },
    {
      "inputs": [
        {
          "internalType": "address",
          "name": "token",
          "type": "address"
        }
      ],
      "name": "CollateralTokenNotAllowed",
      "type": "error"
    },
    {
      "inputs": [],
      "name": "CollateralWithdrawalClosed",
      "type": "error"
    },
    {
      "inputs": [],
      "name": "DefaultsClosed",
      "type": "error"
    },
    {
      "inputs": [
        {
          "internalType": "address",
          "name": "implementation",
          "type": "address"
        }
      ],
      "name": "ERC1967InvalidImplementation",
      "type": "error"
    },
    {
      "inputs": [],
      "name": "ERC1967NonPayable",
      "type": "error"
    },
    {
      "inputs": [],
      "name": "ExceedsNetExposureCapOnLiquidation",
      "type": "error"
    },
    {
      "inputs": [],
      "name": "FailedCall",
      "type": "error"
    },
    {
      "inputs": [
        {
          "internalType": "address",
          "name": "collateralToken",
          "type": "address"
        }
      ],
      "name": "InsufficientCollateralForLiquidationRepayment",
      "type": "error"
    },
    {
      "inputs": [],
      "name": "InsufficientCollateralForRedemption",
      "type": "error"
    },
    {
      "inputs": [],
      "name": "InvalidInitialization",
      "type": "error"
    },
    {
      "inputs": [
        {
          "internalType": "string",
          "name": "message",
          "type": "string"
        }
      ],
      "name": "InvalidParameters",
      "type": "error"
    },
    {
      "inputs": [],
      "name": "LiquidationsPaused",
      "type": "error"
    },
    {
      "inputs": [],
      "name": "NotInitializing",
      "type": "error"
    },
    {
      "inputs": [],
      "name": "RepaymentAmountLargerThanAllowed",
      "type": "error"
    },
    {
      "inputs": [],
      "name": "SelfLiquidationNotPermitted",
      "type": "error"
    },
    {
      "inputs": [],
      "name": "ShortfallLiquidationsClosed",
      "type": "error"
    },
    {
      "inputs": [],
      "name": "TermContractsPaused",
      "type": "error"
    },
    {
      "inputs": [],
      "name": "TermRepurchaseWindowOpen",
      "type": "error"
    },
    {
      "inputs": [],
      "name": "TotalRepaymentGreaterThangetBorrowerRepurchaseObligation",
      "type": "error"
    },
    {
      "inputs": [],
      "name": "UUPSUnauthorizedCallContext",
      "type": "error"
    },
    {
      "inputs": [
        {
          "internalType": "bytes32",
          "name": "slot",
          "type": "bytes32"
        }
      ],
      "name": "UUPSUnsupportedProxiableUUID",
      "type": "error"
    },
    {
      "inputs": [],
      "name": "UnlockAmountGreaterThanCollateralBalance",
      "type": "error"
    },
    {
      "inputs": [],
      "name": "ZeroAddressContractPaired",
      "type": "error"
    },
    {
      "inputs": [],
      "name": "ZeroBorrowerRepurchaseObligation",
      "type": "error"
    },
    {
      "inputs": [],
      "name": "ZeroCollateralBalance",
      "type": "error"
    },
    {
      "inputs": [],
      "name": "ZeroLiquidationNotPermitted",
      "type": "error"
    },
    {
      "anonymous": false,
      "inputs": [
        {
          "indexed": false,
          "internalType": "uint64",
          "name": "version",
          "type": "uint64"
        }
      ],
      "name": "Initialized",
      "type": "event"
    },
    {
      "anonymous": false,
      "inputs": [
        {
          "indexed": true,
          "internalType": "bytes32",
          "name": "role",
          "type": "bytes32"
        },
        {
          "indexed": true,
          "internalType": "bytes32",
          "name": "previousAdminRole",
          "type": "bytes32"
        },
        {
          "indexed": true,
          "internalType": "bytes32",
          "name": "newAdminRole",
          "type": "bytes32"
        }
      ],
      "name": "RoleAdminChanged",
      "type": "event"
    },
    {
      "anonymous": false,
      "inputs": [
        {
          "indexed": true,
          "internalType": "bytes32",
          "name": "role",
          "type": "bytes32"
        },
        {
          "indexed": true,
          "internalType": "address",
          "name": "account",
          "type": "address"
        },
        {
          "indexed": true,
          "internalType": "address",
          "name": "sender",
          "type": "address"
        }
      ],
      "name": "RoleGranted",
      "type": "event"
    },
    {
      "anonymous": false,
      "inputs": [
        {
          "indexed": true,
          "internalType": "bytes32",
          "name": "role",
          "type": "bytes32"
        },
        {
          "indexed": true,
          "internalType": "address",
          "name": "account",
          "type": "address"
        },
        {
          "indexed": true,
          "internalType": "address",
          "name": "sender",
          "type": "address"
        }
      ],
      "name": "RoleRevoked",
      "type": "event"
    },
    {
      "anonymous": false,
      "inputs": [
        {
          "indexed": true,
          "internalType": "address",
          "name": "implementation",
          "type": "address"
        }
      ],
      "name": "Upgraded",
      "type": "event"
    },
    {
      "inputs": [],
      "name": "ADMIN_ROLE",
      "outputs": [
        {
          "internalType": "bytes32",
          "name": "",
          "type": "bytes32"
        }
      ],
      "stateMutability": "view",
      "type": "function"
    },
    {
      "inputs": [],
      "name": "AUCTION_LOCKER",
      "outputs": [
        {
          "internalType": "bytes32",
          "name": "",
          "type": "bytes32"
        }
      ],
      "stateMutability": "view",
      "type": "function"
    },
    {
      "inputs": [],
      "name": "DEFAULT_ADMIN_ROLE",
      "outputs": [
        {
          "internalType": "bytes32",
          "name": "",
          "type": "bytes32"
        }
      ],
      "stateMutability": "view",
      "type": "function"
    },
    {
      "inputs": [],
      "name": "DEVOPS_ROLE",
      "outputs": [
        {
          "internalType": "bytes32",
          "name": "",
          "type": "bytes32"
        }
      ],
      "stateMutability": "view",
      "type": "function"
    },
    {
      "inputs": [],
      "name": "DIAMOND_ROLE",
      "outputs": [
        {
          "internalType": "bytes32",
          "name": "",
          "type": "bytes32"
        }
      ],
      "stateMutability": "view",
      "type": "function"
    },
    {
      "inputs": [],
      "name": "INITIALIZER_ROLE",
      "outputs": [
        {
          "internalType": "bytes32",
          "name": "",
          "type": "bytes32"
        }
      ],
      "stateMutability": "view",
      "type": "function"
    },
    {
      "inputs": [],
      "name": "ROLLOVER_MANAGER",
      "outputs": [
        {
          "internalType": "bytes32",
          "name": "",
          "type": "bytes32"
        }
      ],
      "stateMutability": "view",
      "type": "function"
    },
    {
      "inputs": [],
      "name": "ROLLOVER_TARGET_AUCTIONEER_ROLE",
      "outputs": [
        {
          "internalType": "bytes32",
          "name": "",
          "type": "bytes32"
        }
      ],
      "stateMutability": "view",
      "type": "function"
    },
    {
      "inputs": [],
      "name": "SERVICER_ROLE",
      "outputs": [
        {
          "internalType": "bytes32",
          "name": "",
          "type": "bytes32"
        }
      ],
      "stateMutability": "view",
      "type": "function"
    },
    {
      "inputs": [],
      "name": "UPGRADE_INTERFACE_VERSION",
      "outputs": [
        {
          "internalType": "string",
          "name": "",
          "type": "string"
        }
      ],
      "stateMutability": "view",
      "type": "function"
    },
    {
      "inputs": [
        {
          "internalType": "address",
          "name": "borrower",
          "type": "address"
        },
        {
          "internalType": "address",
          "name": "collateralToken",
          "type": "address"
        },
        {
          "internalType": "uint256",
          "name": "amount",
          "type": "uint256"
        }
      ],
      "name": "acceptRolloverCollateral",
      "outputs": [],
      "stateMutability": "nonpayable",
      "type": "function"
    },
    {
      "inputs": [
        {
          "internalType": "address",
          "name": "rolloverAuction",
          "type": "address"
        }
      ],
      "name": "approveRolloverAuction",
      "outputs": [],
      "stateMutability": "nonpayable",
      "type": "function"
    },
    {
      "inputs": [
        {
          "internalType": "address",
          "name": "sender",
          "type": "address"
        },
        {
          "internalType": "address",
          "name": "collateralToken",
          "type": "address"
        },
        {
          "internalType": "uint256",
          "name": "amount",
          "type": "uint256"
        }
      ],
      "name": "auctionLockCollateral",
      "outputs": [],
      "stateMutability": "nonpayable",
      "type": "function"
    },
    {
      "inputs": [
        {
          "internalType": "address",
          "name": "sender",
          "type": "address"
        },
        {
          "internalType": "address",
          "name": "collateralToken",
          "type": "address"
        },
        {
          "internalType": "uint256",
          "name": "amount",
          "type": "uint256"
        }
      ],
      "name": "auctionUnlockCollateral",
      "outputs": [],
      "stateMutability": "nonpayable",
      "type": "function"
    },
    {
      "inputs": [
        {
          "internalType": "address",
          "name": "borrower",
          "type": "address"
        },
        {
          "internalType": "uint256[]",
          "name": "closureAmounts",
          "type": "uint256[]"
        }
      ],
      "name": "batchDefault",
      "outputs": [],
      "stateMutability": "nonpayable",
      "type": "function"
    },
    {
      "inputs": [
        {
          "internalType": "address",
          "name": "borrower",
          "type": "address"
        },
        {
          "internalType": "uint256[]",
          "name": "closureRepoTokenAmounts",
          "type": "uint256[]"
        }
      ],
      "name": "batchDefaultWithRepoToken",
      "outputs": [],
      "stateMutability": "nonpayable",
      "type": "function"
    },
    {
      "inputs": [
        {
          "internalType": "address",
          "name": "borrower",
          "type": "address"
        },
        {
          "internalType": "uint256[]",
          "name": "closureAmounts",
          "type": "uint256[]"
        }
      ],
      "name": "batchLiquidation",
      "outputs": [],
      "stateMutability": "nonpayable",
      "type": "function"
    },
    {
      "inputs": [
        {
          "internalType": "address",
          "name": "borrower",
          "type": "address"
        },
        {
          "internalType": "uint256[]",
          "name": "closureRepoTokenAmounts",
          "type": "uint256[]"
        }
      ],
      "name": "batchLiquidationWithRepoToken",
      "outputs": [],
      "stateMutability": "nonpayable",
      "type": "function"
    },
    {
      "inputs": [
        {
          "internalType": "address",
          "name": "collateralToken",
          "type": "address"
        },
        {
          "internalType": "uint256",
          "name": "amountToLock",
          "type": "uint256"
        }
      ],
      "name": "calculateMintableExposure",
      "outputs": [
        {
          "components": [
            {
              "internalType": "uint256",
              "name": "mantissa",
              "type": "uint256"
            }
          ],
          "internalType": "struct ExponentialNoError.Exp",
          "name": "",
          "type": "tuple"
        }
      ],
      "stateMutability": "view",
      "type": "function"
    },
    {
      "inputs": [
        {
          "internalType": "uint256",
          "name": "",
          "type": "uint256"
        }
      ],
      "name": "collateralTokens",
      "outputs": [
        {
          "internalType": "address",
          "name": "",
          "type": "address"
        }
      ],
      "stateMutability": "view",
      "type": "function"
    },
    {
      "inputs": [],
      "name": "deMinimisMarginThreshold",
      "outputs": [
        {
          "internalType": "uint256",
          "name": "",
          "type": "uint256"
        }
      ],
      "stateMutability": "view",
      "type": "function"
    },
    {
      "inputs": [
        {
          "internalType": "address",
          "name": "borrower",
          "type": "address"
        }
      ],
      "name": "encumberExistingCollateral",
      "outputs": [],
      "stateMutability": "nonpayable",
      "type": "function"
    },
    {
      "inputs": [],
      "name": "encumberedCollateralRemaining",
      "outputs": [
        {
          "internalType": "bool",
          "name": "",
          "type": "bool"
        }
      ],
      "stateMutability": "view",
      "type": "function"
    },
    {
      "inputs": [
        {
          "internalType": "address",
          "name": "borrower",
          "type": "address"
        },
        {
          "internalType": "address",
          "name": "collateralToken",
          "type": "address"
        },
        {
          "internalType": "uint256",
          "name": "amount",
          "type": "uint256"
        }
      ],
      "name": "externalLockCollateral",
      "outputs": [],
      "stateMutability": "nonpayable",
      "type": "function"
    },
    {
      "inputs": [
        {
          "internalType": "address",
          "name": "collateralToken",
          "type": "address"
        },
        {
          "internalType": "uint256",
          "name": "amount",
          "type": "uint256"
        }
      ],
      "name": "externalLockCollateral",
      "outputs": [],
      "stateMutability": "nonpayable",
      "type": "function"
    },
    {
      "inputs": [
        {
          "internalType": "address",
          "name": "collateralToken",
          "type": "address"
        },
        {
          "internalType": "uint256",
          "name": "amount",
          "type": "uint256"
        }
      ],
      "name": "externalUnlockCollateral",
      "outputs": [],
      "stateMutability": "nonpayable",
      "type": "function"
    },
    {
      "inputs": [
        {
          "internalType": "address",
          "name": "borrower",
          "type": "address"
        },
        {
          "internalType": "address",
          "name": "collateralToken",
          "type": "address"
        },
        {
          "internalType": "uint256",
          "name": "amount",
          "type": "uint256"
        }
      ],
      "name": "externalUnlockCollateral",
      "outputs": [],
      "stateMutability": "nonpayable",
      "type": "function"
    },
    {
      "inputs": [
        {
          "internalType": "address",
          "name": "borrower",
          "type": "address"
        },
        {
          "internalType": "address",
          "name": "collateralToken",
          "type": "address"
        }
      ],
      "name": "getCollateralBalance",
      "outputs": [
        {
          "internalType": "uint256",
          "name": "",
          "type": "uint256"
        }
      ],
      "stateMutability": "view",
      "type": "function"
    },
    {
      "inputs": [
        {
          "internalType": "address",
          "name": "borrower",
          "type": "address"
        }
      ],
      "name": "getCollateralBalances",
      "outputs": [
        {
          "internalType": "address[]",
          "name": "",
          "type": "address[]"
        },
        {
          "internalType": "uint256[]",
          "name": "",
          "type": "uint256[]"
        }
      ],
      "stateMutability": "view",
      "type": "function"
    },
    {
      "inputs": [
        {
          "internalType": "address",
          "name": "borrower",
          "type": "address"
        }
      ],
      "name": "getCollateralMarketValue",
      "outputs": [
        {
          "internalType": "uint256",
          "name": "",
          "type": "uint256"
        }
      ],
      "stateMutability": "view",
      "type": "function"
    },
    {
      "inputs": [
        {
          "internalType": "address",
          "name": "collateralToken",
          "type": "address"
        }
      ],
      "name": "getEncumberedCollateralBalances",
      "outputs": [
        {
          "internalType": "uint256",
          "name": "",
          "type": "uint256"
        }
      ],
      "stateMutability": "view",
      "type": "function"
    },
    {
      "inputs": [
        {
          "internalType": "bytes32",
          "name": "role",
          "type": "bytes32"
        }
      ],
      "name": "getRoleAdmin",
      "outputs": [
        {
          "internalType": "bytes32",
          "name": "",
          "type": "bytes32"
        }
      ],
      "stateMutability": "view",
      "type": "function"
    },
    {
      "inputs": [
        {
          "internalType": "bytes32",
          "name": "role",
          "type": "bytes32"
        },
        {
          "internalType": "address",
          "name": "account",
          "type": "address"
        }
      ],
      "name": "grantRole",
      "outputs": [],
      "stateMutability": "nonpayable",
      "type": "function"
    },
    {
      "inputs": [
        {
          "internalType": "bytes32",
          "name": "role",
          "type": "bytes32"
        },
        {
          "internalType": "address",
          "name": "account",
          "type": "address"
        }
      ],
      "name": "hasRole",
      "outputs": [
        {
          "internalType": "bool",
          "name": "",
          "type": "bool"
        }
      ],
      "stateMutability": "view",
      "type": "function"
    },
    {
      "inputs": [
        {
          "internalType": "address",
          "name": "",
          "type": "address"
        }
      ],
      "name": "initialCollateralRatios",
      "outputs": [
        {
          "internalType": "uint256",
          "name": "",
          "type": "uint256"
        }
      ],
      "stateMutability": "view",
      "type": "function"
    },
    {
      "inputs": [
        {
          "internalType": "string",
          "name": "termRepoId_",
          "type": "string"
        },
        {
          "internalType": "uint256",
          "name": "liquidatedDamagesDueToProtocol_",
          "type": "uint256"
        },
        {
          "internalType": "uint256",
          "name": "netExposureCapOnLiquidation_",
          "type": "uint256"
        },
        {
          "internalType": "uint256",
          "name": "deMinimisMarginThreshold_",
          "type": "uint256"
        },
        {
          "internalType": "address",
          "name": "purchaseToken_",
          "type": "address"
        },
        {
          "components": [
            {
              "internalType": "address",
              "name": "tokenAddress",
              "type": "address"
            },
            {
              "internalType": "uint256",
              "name": "initialCollateralRatio",
              "type": "uint256"
            },
            {
              "internalType": "uint256",
              "name": "maintenanceRatio",
              "type": "uint256"
            },
            {
              "internalType": "uint256",
              "name": "liquidatedDamage",
              "type": "uint256"
            }
          ],
          "internalType": "struct Collateral[]",
          "name": "collateralTokens_",
          "type": "tuple[]"
        },
        {
          "internalType": "contract ITermEventEmitter",
          "name": "emitter_",
          "type": "address"
        },
        {
          "internalType": "address",
          "name": "termInitializer_",
          "type": "address"
        }
      ],
      "name": "initialize",
      "outputs": [],
      "stateMutability": "nonpayable",
      "type": "function"
    },
    {
      "inputs": [
        {
          "internalType": "address",
          "name": "borrower",
          "type": "address"
        }
      ],
      "name": "isBorrowerInShortfall",
      "outputs": [
        {
          "internalType": "bool",
          "name": "",
          "type": "bool"
        }
      ],
      "stateMutability": "view",
      "type": "function"
    },
    {
      "inputs": [
        {
          "internalType": "address",
          "name": "borrower",
          "type": "address"
        },
        {
          "internalType": "address[]",
          "name": "collateralTokenAddresses",
          "type": "address[]"
        },
        {
          "internalType": "uint256[]",
          "name": "collateralTokenAmounts",
          "type": "uint256[]"
        }
      ],
      "name": "journalBidCollateralToCollateralManager",
      "outputs": [],
      "stateMutability": "nonpayable",
      "type": "function"
    },
    {
      "inputs": [
        {
          "internalType": "address",
          "name": "",
          "type": "address"
        }
      ],
      "name": "liquidatedDamages",
      "outputs": [
        {
          "internalType": "uint256",
          "name": "",
          "type": "uint256"
        }
      ],
      "stateMutability": "view",
      "type": "function"
    },
    {
      "inputs": [],
      "name": "liquidatedDamagesDueToProtocol",
      "outputs": [
        {
          "internalType": "uint256",
          "name": "",
          "type": "uint256"
        }
      ],
      "stateMutability": "view",
      "type": "function"
    },
    {
      "inputs": [],
      "name": "liquidationsPaused",
      "outputs": [
        {
          "internalType": "bool",
          "name": "",
          "type": "bool"
        }
      ],
      "stateMutability": "view",
      "type": "function"
    },
    {
      "inputs": [
        {
          "internalType": "address",
          "name": "",
          "type": "address"
        }
      ],
      "name": "maintenanceCollateralRatios",
      "outputs": [
        {
          "internalType": "uint256",
          "name": "",
          "type": "uint256"
        }
      ],
      "stateMutability": "view",
      "type": "function"
    },
    {
      "inputs": [
        {
          "internalType": "address",
          "name": "borrower",
          "type": "address"
        },
        {
          "internalType": "address",
          "name": "sender",
          "type": "address"
        },
        {
          "internalType": "address",
          "name": "collateralToken",
          "type": "address"
        },
        {
          "internalType": "uint256",
          "name": "amount",
          "type": "uint256"
        }
      ],
      "name": "mintOpenExposureLockCollateral",
      "outputs": [],
      "stateMutability": "nonpayable",
      "type": "function"
    },
    {
      "inputs": [],
      "name": "netExposureCapOnLiquidation",
      "outputs": [
        {
          "internalType": "uint256",
          "name": "",
          "type": "uint256"
        }
      ],
      "stateMutability": "view",
      "type": "function"
    },
    {
      "inputs": [],
      "name": "numOfAcceptedCollateralTokens",
      "outputs": [
        {
          "internalType": "uint8",
          "name": "",
          "type": "uint8"
        }
      ],
      "stateMutability": "view",
      "type": "function"
    },
    {
      "inputs": [
        {
          "internalType": "address",
          "name": "termRepoLocker_",
          "type": "address"
        },
        {
          "internalType": "address",
          "name": "termRepoServicer_",
          "type": "address"
        },
        {
          "internalType": "address",
          "name": "termAuctionBidLocker_",
          "type": "address"
        },
        {
          "internalType": "address",
          "name": "termAuction_",
          "type": "address"
        },
        {
          "internalType": "address",
          "name": "termController_",
          "type": "address"
        },
        {
          "internalType": "address",
          "name": "termPriceOracle_",
          "type": "address"
        },
        {
          "internalType": "address",
          "name": "termRepoRolloverManager_",
          "type": "address"
        },
        {
          "internalType": "address",
          "name": "termDiamond_",
          "type": "address"
        },
        {
          "internalType": "address",
          "name": "devopsMultisig_",
          "type": "address"
        },
        {
          "internalType": "address",
          "name": "adminWallet_",
          "type": "address"
        }
      ],
      "name": "pairTermContracts",
      "outputs": [],
      "stateMutability": "nonpayable",
      "type": "function"
    },
    {
      "inputs": [],
      "name": "pauseLiquidations",
      "outputs": [],
      "stateMutability": "nonpayable",
      "type": "function"
    },
    {
      "inputs": [],
      "name": "proxiableUUID",
      "outputs": [
        {
          "internalType": "bytes32",
          "name": "",
          "type": "bytes32"
        }
      ],
      "stateMutability": "view",
      "type": "function"
    },
    {
      "inputs": [],
      "name": "purchaseToken",
      "outputs": [
        {
          "internalType": "address",
          "name": "",
          "type": "address"
        }
      ],
      "stateMutability": "view",
      "type": "function"
    },
    {
      "inputs": [
        {
          "internalType": "bytes32",
          "name": "role",
          "type": "bytes32"
        },
        {
          "internalType": "address",
          "name": "callerConfirmation",
          "type": "address"
        }
      ],
      "name": "renounceRole",
      "outputs": [],
      "stateMutability": "nonpayable",
      "type": "function"
    },
    {
      "inputs": [
        {
          "components": [
            {
              "internalType": "contract TermAuction",
              "name": "auction",
              "type": "address"
            },
            {
              "internalType": "contract ITermAuctionBidLocker",
              "name": "termAuctionBidLocker",
              "type": "address"
            },
            {
              "internalType": "contract ITermAuctionOfferLocker",
              "name": "termAuctionOfferLocker",
              "type": "address"
            }
          ],
          "internalType": "struct TermAuctionGroup",
          "name": "termAuctionGroup",
          "type": "tuple"
        }
      ],
      "name": "reopenToNewAuction",
      "outputs": [],
      "stateMutability": "nonpayable",
      "type": "function"
    },
    {
      "inputs": [
        {
          "internalType": "bytes32",
          "name": "role",
          "type": "bytes32"
        },
        {
          "internalType": "address",
          "name": "account",
          "type": "address"
        }
      ],
      "name": "revokeRole",
      "outputs": [],
      "stateMutability": "nonpayable",
      "type": "function"
    },
    {
      "inputs": [
        {
          "internalType": "address",
          "name": "collateralToken",
          "type": "address"
        },
        {
          "internalType": "uint256",
          "name": "amount",
          "type": "uint256"
        }
      ],
      "name": "setEncumberedCollateralBalances",
      "outputs": [
        {
          "internalType": "uint256",
          "name": "",
          "type": "uint256"
        }
      ],
      "stateMutability": "nonpayable",
      "type": "function"
    },
    {
      "inputs": [
        {
          "internalType": "bytes4",
          "name": "interfaceId",
          "type": "bytes4"
        }
      ],
      "name": "supportsInterface",
      "outputs": [
        {
          "internalType": "bool",
          "name": "",
          "type": "bool"
        }
      ],
      "stateMutability": "view",
      "type": "function"
    },
    {
      "inputs": [],
      "name": "termController",
      "outputs": [
        {
          "internalType": "contract ITermController",
          "name": "",
          "type": "address"
        }
      ],
      "stateMutability": "view",
      "type": "function"
    },
    {
      "inputs": [],
      "name": "termRepoId",
      "outputs": [
        {
          "internalType": "bytes32",
          "name": "",
          "type": "bytes32"
        }
      ],
      "stateMutability": "view",
      "type": "function"
    },
    {
      "inputs": [],
      "name": "termRepoLocker",
      "outputs": [
        {
          "internalType": "contract ITermRepoLocker",
          "name": "",
          "type": "address"
        }
      ],
      "stateMutability": "view",
      "type": "function"
    },
    {
      "inputs": [
        {
          "internalType": "address",
          "name": "borrower",
          "type": "address"
        },
        {
          "internalType": "address",
          "name": "collateralToken",
          "type": "address"
        },
        {
          "internalType": "uint256",
          "name": "amount",
          "type": "uint256"
        },
        {
          "internalType": "bool",
          "name": "decrementEncumberedCollateral",
          "type": "bool"
        }
      ],
      "name": "testUnlockCollateral",
      "outputs": [],
      "stateMutability": "nonpayable",
      "type": "function"
    },
    {
      "inputs": [
        {
          "internalType": "address",
          "name": "borrower",
          "type": "address"
        },
        {
          "internalType": "uint256",
          "name": "rolloverProportion",
          "type": "uint256"
        },
        {
          "internalType": "address",
          "name": "rolloverTermRepoLocker",
          "type": "address"
        }
      ],
      "name": "transferRolloverCollateral",
      "outputs": [
        {
          "internalType": "address[]",
          "name": "",
          "type": "address[]"
        },
        {
          "internalType": "uint256[]",
          "name": "",
          "type": "uint256[]"
        }
      ],
      "stateMutability": "nonpayable",
      "type": "function"
    },
    {
      "inputs": [
        {
          "internalType": "address",
          "name": "borrower",
          "type": "address"
        }
      ],
      "name": "unlockCollateralOnRepurchase",
      "outputs": [],
      "stateMutability": "nonpayable",
      "type": "function"
    },
    {
      "inputs": [],
      "name": "unpauseLiquidations",
      "outputs": [],
      "stateMutability": "nonpayable",
      "type": "function"
    },
    {
      "inputs": [
        {
          "internalType": "address",
          "name": "upgradeAddress",
          "type": "address"
        }
      ],
      "name": "upgrade",
      "outputs": [],
      "stateMutability": "nonpayable",
      "type": "function"
    },
    {
      "inputs": [
        {
          "internalType": "address",
          "name": "newImplementation",
          "type": "address"
        },
        {
          "internalType": "bytes",
          "name": "data",
          "type": "bytes"
        }
      ],
      "name": "upgradeToAndCall",
      "outputs": [],
      "stateMutability": "payable",
      "type": "function"
    },
    {
      "inputs": [],
      "name": "version",
      "outputs": [
        {
          "internalType": "string",
          "name": "",
          "type": "string"
        }
      ],
      "stateMutability": "view",
      "type": "function"
    }
  ],
  "bytecode": "0x60a08060405234620000d157306080527ff0c57e16840df040f15088dc2f81fe391c3923bec73e23a9662efc9c229c6a009081549060ff8260401c16620000c257506001600160401b036002600160401b0319828216016200007c575b6040516155d09081620000d78239608051818181611c3e01526120c30152f35b6001600160401b031990911681179091556040519081527fc7f505b2f371ae2175ee4913f4499e1f2633a7b5936321eed1cdaeb6115181d290602090a13880806200005c565b63f92ee8a960e01b8152600490fd5b600080fdfe608080604052600436101561001357600080fd5b600090813560e01c90816301ffc9a714612fda5750806302b65fb014612fb157806308c5e17614612f785780630900f01014612f0357806309a0160814612eda57806312a9006914612e36578063172c48c714612df2578063190e801214612dce578063201a662514612da557806320db25d514612d6c5780632391281c14612d1a578063248a9ca314612ce057806325c3ed4714612cb757806327df3d3e14612c8e5780632a1e8cdb14612c555780632b56d95e14612c1f5780632f2ff15d14612bd457806336568abe14612b8c5780633718373f14612b6357806337843bc61461280f57806337cb26f5146127f15780633d0dda78146124665780633e0efe03146124315780633eb9d456146124075780634055008a1461236657806343551d0d1461232d57806348717eb7146122db5780634f1ef2861461204857806350d4f03414611c9657806352d1902d14611c2b57806354fd4d5014611be7578063559e4fad146118ee57806356fdbdeb146118d0578063578db957146116d757806358464e341461169a5780635c4b440e1461167157806367af01d01461153b5780636a509f55146114d45780636cfeeca11461149857806375b238fc1461146f578063790cb491146113d65780637e79f4f11461139757806382f049ab146110005780638f6d0f1114610fdd57806391d1485414610f84578063929d5ba514610cb057806394a7cfe814610c8c578063a11d52f514610c67578063a217fddf14610c4b578063a95c4d6214610c22578063ad3cb1cc14610be4578063b7d5820b14610b95578063c066bc0e14610b0d578063c180ead114610acc578063c526c45c14610a73578063cc33cb4514610a4a578063cc5b6e4a14610a2d578063d547741f146109e2578063d91ab0d91461098b578063de7f872e146108e3578063e0623e14146103a5578063e1cdd05814610387578063fd5d357a1461030c5763fe05281a146102e157600080fd5b34610309578060031936011261030957602060405160008051602061543b8339815191528152f35b80fd5b50346103095760203660031901126103095761032661302f565b3360009081526000805160206153bb833981519152602052604090205460008051602061551b8339815191529060ff1615610369575061036590614117565b5080f35b6044906040519063e2517d3f60e01b82523360048301526024820152fd5b50346103095780600319360112610309576020600454604051908152f35b503461030957610100366003190112610309576001600160401b036004351161030957366023600435011215610309576001600160401b0360048035013511610309573660246004356004013560043501011161030957610404613071565b60a435906001600160401b0382116108df57366023830112156108df576001600160401b036004830135116108df57366024836004013560071b840101116108df5760c4356001600160a01b03811681036108db57610461613087565b60008051602061557b83398151915254909390926001600160401b03841615806108cd575b6001600160401b03851660011490816108c3575b1590816108ba575b506108a8576001600160401b0319841660011760008051602061557b83398151915255604084901c60ff161561087f575b6104db615288565b6104e3615288565b60405160208101906004356004013560246004350183376105196020826004356004013581018b83820152038084520182613265565b5190208655600154602435600355604435600455606435600255906001600160a01b0316801561083c57600680546001600160a01b03191691909117905562ff00ff19166004820135601081901b62ff0000169190911760015561057c90613466565b8051906001600160401b03821161082857600160401b821161082857600b5482600b558083106107f5575b50600b87526020016000805160206154bb833981519152875b8381106107d85750505050845b81600401358110610667575050600a80546001600160a01b0319166001600160a01b0390921691909117905560ff9161060590614091565b5060401c16156106125780f35b60ff60401b1960008051602061557b833981519152541660008051602061557b833981519152557fc7f505b2f371ae2175ee4913f4499e1f2633a7b5936321eed1cdaeb6115181d2602060405160018152a180f35b61068161067c828460040135602486016136ef565b6133da565b61068a8261309d565b81546001600160a01b0393841660039290921b91821b9390911b191691909117905560406106c0826004850135602486016136ef565b01356001600160a01b036106df61067c846004870135602488016136ef565b168752600d60205260408720556020610700828460040135602486016136ef565b01356001600160a01b0361071f61067c846004870135602488016136ef565b168752600e60205260408720556060610740828460040135602486016136ef565b0135156107975780606061075e6001938560040135602487016136ef565b0135828060a01b0361077b61067c848760040135602489016136ef565b168852600f6020526040882055815461ff0019168255016105cd565b60405162461bcd60e51b81526020600482015260196024820152784c6971756964617465642064616d616765206973207a65726f60381b6044820152606490fd5b82516001600160a01b0316818301556020909201916001016105c0565b600b88526000805160206154bb833981519152908382015b818301811061081d5750506105a7565b89815560010161080d565b634e487b7160e01b87526041600452602487fd5b60405162461bcd60e51b815260206004820152601b60248201527a2d32b9379030b2323932b9b990383ab931b430b9b2903a37b5b2b760291b6044820152606490fd5b6001600160481b031984166001600160401b011760008051602061557b833981519152556104d3565b60405163f92ee8a960e01b8152600490fd5b905015386104a2565b303b15915061049a565b5060ff8460401c1615610486565b8380fd5b8280fd5b503461030957602080600319360112610987576108fe61302f565b600b549061090b82613466565b9261091583613466565b946001600160a01b0392831692815b85811061093e576040518061093a8a8a836131aa565b0390f35b808261094b60019361309d565b90549060031b1c16868552601086526040852081600052865260406000205490610975838b613498565b52610980828b613498565b5201610924565b5080fd5b50346103095761099a366130ce565b9092916109a684613b3b565b156109c157926109be92936109b96137c1565b613b62565b80f35b604051634428dc3160e01b81526001600160a01b0385166004820152602490fd5b503461030957604036600319011261030957610365600435610a02613045565b908084526000805160206154db833981519152602052610a286001604086200154613869565b614224565b503461030957806003193601126103095760209054604051908152f35b5034610309578060031936011261030957602060405160008051602061547b8339815191528152f35b503461030957604036600319011261030957610a8d61302f565b610a9681613b3b565b15610aaa576109be906024359033336149e5565b604051634428dc3160e01b81526001600160a01b039091166004820152602490fd5b503461030957602036600319011261030957602090610b05906040906001600160a01b03610af861302f565b168152601084522061516b565b604051908152f35b5034610309578060031936011261030957610b26613831565b6001805460ff191681179055600a54815482916001600160a01b031690813b15610b9157829160248392604051948593849263c8df617960e01b845260048401525af18015610b8657610b765750f35b610b7f90613206565b6103095780f35b6040513d84823e3d90fd5b5050fd5b503461030957604036600319011261030957610baf61302f565b6040610bb9613045565b9260018060a01b03809316815260106020522091166000526020526020604060002054604051908152f35b503461030957806003193601126103095761093a604051610c048161324a565b60058152640352e302e360dc1b6020820152604051918291826132a3565b50346103095780600319360112610309576006546040516001600160a01b039091168152602090f35b5034610309578060031936011261030957602090604051908152f35b50346103095780600319360112610309576020610c8261368f565b6040519015158152f35b5034610309576020366003190112610309576020610c82610cab61302f565b6134ac565b503461030957600319906101403683011261030957610ccd61302f565b610cd5613045565b610cdd61305b565b6001600160a01b0392606435918483168303610f7f57610cfb613071565b9160a43591868316809303610f7f5760c435918783168303610f7f57610d1f613087565b9061010435938985168503610f7f5761012435968a88168803610f7f57610d446137f9565b6001996001549760ff8960081c16610f6d57610de69a610db8610dda988f97610dd498610dce97610dbe96610de09f6101009061ff001916176001558260018060a01b0319941684600854161760085582891684600554161760055583600754161760075516906009541617600955613d67565b50613d67565b50610dc881613d67565b50613df3565b50613e79565b50613eff565b50613f85565b5061400b565b50600b5491610df483613466565b610dfd84613466565b91610e0785613466565b9284875b878110610eec57505081600a541694875496863b15610ee8576040516329b35d4760e21b8152600481019890985230602489015260c0604489015260c48801819052600b895260e48801936000805160206154bb8339815191529291908a906020905b838310610ed15750505050505085610ec0898296610eb18b9c97610ea1888e9c9a988d9989809c030160648a0152613176565b9084878303016084880152613176565b918483030160a4850152613176565b03925af18015610b8657610b765750f35b855481168852968101969484019491840191610e6e565b8880fd5b600f84610ef88361309d565b919054600392831b1c168b5285602091600d835260408d2054610f1b868b613498565b5281610f268661309d565b905490831b1c168d52600e835260408d2054610f428689613498565b52610f4c8561309d565b9054911b1c168b52526040892054610f648288613498565b52018590610e0b565b604051634ce377bb60e11b8152600490fd5b600080fd5b5034610309576040366003190112610309576040610fa0613045565b9160043581526000805160206154db833981519152602052209060018060a01b0316600052602052602060ff604060002054166040519015158152f35b5034610309578060031936011261030957602060ff600154166040519015158152f35b50346103095761100f36613133565b9060019260ff600154166113855760018060a01b03928360095416926040518094631b6685b560e21b825281600460209788935afa90811561137a57889161134d575b5061133b5790611063813385614b71565b91879188915b8183106111c657505050156111b45715611195575b826005541692604051632762697d60e01b81528381602481858716988960048301525afa90811561118a57879161115d575b50156110ba578580f35b8593855b6110c757508580f35b600b5485101561115857858095828952601086528360408a206110e98361309d565b929054600393841b1c166000528752604060002054858161110f575b50505001946110be565b611150928161111d8661309d565b905490831b1c168d52600c8a5260408d206111398482546132ec565b90556111448561309d565b9054911b1c168761389c565b388085611105565b508580f35b90508381813d8311611183575b6111748183613265565b81010312610f7f5751386110b0565b503d61116a565b6040513d89823e3d90fd5b61119e81614d4d565b61107e576040516316a0371d60e11b8152600490fd5b604051630cabf09b60e01b8152600490fd5b909192886111d58585856133a7565b351561133457506000196111ea8585856133a7565b35146112d75761120961123d916112028686866133a7565b35906133b7565b93878b8a600554168961121d8589896133a7565b359260405180978195829463026aa03f60e21b845233906004850161330f565b03925af19182156112cc578a928a918d91611297575b50908061128f926112766112668661309d565b939054600394851b1c1682614302565b9390926112828761309d565b9054911b1c16338c614788565b019190611069565b935050508782813d83116112c5575b6112b08183613265565b81010312610f7f579051899190899081611253565b503d6112a6565b6040513d8d823e3d90fd5b60405163dd23c3ad60e01b815260206004820152602a60248201527f636c6f737572655265706f546f6b656e416d6f756e74732063616e6e6f7420626044820152690ca40ead2dce840dac2f60b31b6064820152608490fd5b0390fd5b909361128f565b60405163bbc439e160e01b8152600490fd5b61136d9150853d8711611373575b6113658183613265565b810190613331565b38611052565b503d61135b565b6040513d8a823e3d90fd5b604051637d8d0e2160e01b8152600490fd5b5034610309576080366003190112610309576109be6113b461302f565b6113bc613045565b6113c461305b565b906113cd613751565b60643592614fb1565b503461030957806113e6366130ce565b91906113f0613789565b60018060a01b038083168552601060205260408520818316908160005260205260406000206114208682546133b7565b90558552600c602052604085206114388582546133b7565b9055600a5416845492813b1561146b57858094610ec06040519788968795869463ee9e68bb60e01b8652600486016133ee565b8580fd5b5034610309578060031936011261030957602060405160008051602061553b8339815191528152f35b5034610309576040366003190112610309576020906001600160a01b036114bd61302f565b168152600c82526024356040822055604051908152f35b50346103095780600319360112610309576114ed613831565b6001805460ff19169055600a54815482916001600160a01b031690813b15610b915782916024839260405194859384926302ddfefd60e51b845260048401525af18015610b8657610b765750f35b50346103095760403660031901126103095761155561302f565b816040516115628161322f565b526007546040516303d3c9db60e21b8082526020936001600160a01b03938416939290919085818061159a6024358760048401613434565b0381885afa92831561118a578693856115d9926044948b93611652575b50168952600d8552604089205490604051916115d28361322f565b8252614f6a565b936006541691604051958693849283526004830152600160248301525afa9182156116475761160f939492611618575b50614f6a565b60405190518152f35b611639919250843d8611611640575b6116318183613265565b810190613416565b9038611609565b503d611627565b6040513d86823e3d90fd5b61166a919350873d8911611640576116318183613265565b91386115b7565b50346103095780600319360112610309576008546040516001600160a01b039091168152602090f35b5034610309576080366003190112610309576116b461302f565b6116bc613045565b906064359081151582036108db576109be92604435916139f1565b5034610309576060366003190112610309576116f161302f565b6001600160401b038260243582811161098757611712903690600401613103565b9390926044359081116108df5761172d903690600401613103565b949091611738613751565b60018060a01b0395866005541660405191632762697d60e01b8352828985169283600483015281602460209687935afa90811561137a57889161189f575b5015611891575b865b85811061178a578780f35b888a6117e861067c848a6117e1828f8f8c8a8f8b8f9561067c888b60406117c5946117b6848d8d6133a7565b359981526010885220966133a7565b16600052526117da60406000209182546133b7565b90556133a7565b35956133a7565b168952600c85526117fe60408a209182546133b7565b905589600a54168961181661067c848a8d54946133a7565b61182184868c6133a7565b3592803b1561188d57888c809461184e6040519788968795869463ee9e68bb60e01b8652600486016133ee565b03925af190811561188257899161186a575b505060010161177f565b61187390613206565b61187e578738611860565b8780fd5b6040513d8b823e3d90fd5b8b80fd5b61189a84614afe565b61177d565b809850848092503d83116118c9575b6118b88183613265565b81010312610f7f5789965138611776565b503d6118ae565b50346103095780600319360112610309576020600354604051908152f35b5034610309576118fd36613133565b9060019260ff600154166113855760018060a01b03928360095416926040518094631b6685b560e21b825281600460209788935afa90811561137a578891611bca575b5061133b5790611951813385614b71565b91879188915b818310611a5f57505050156111b45715611a40575b826005541692604051632762697d60e01b81528381602481858716988960048301525afa90811561118a578791611a13575b50156119a8578580f35b8593855b6119b557508580f35b600b5485101561115857858095828952601086528360408a206119d78361309d565b929054600393841b1c16600052875260406000205485816119fd575b50505001946119ac565b611a0b928161111d8661309d565b3880856119f3565b90508381813d8311611a39575b611a2a8183613265565b81010312610f7f57513861199e565b503d611a20565b611a4981614d4d565b61196c576040516316a0371d60e11b8152600490fd5b90919288611a6e8585856133a7565b3515611bc35750600019611a838585856133a7565b3514611b7357611a98906112028585856133a7565b928760055416908a611aab8286866133a7565b3592803b1561098757611ada9382918a8360405180988195829463ec9477e160e01b845233906004850161330f565b03925af1928315611b66578b93611b49575b5050611b418980611b1b611b018589896133a7565b35611b0b8661309d565b939054600394851b1c1690614302565b929091611b278661309d565b9054911b1c16611b388589896133a7565b3590338c614788565b019190611957565b611b5591929350613206565b611b625788908a38611aec565b8980fd5b50604051903d90823e3d90fd5b60405163dd23c3ad60e01b815260206004820152602160248201527f636c6f73757265416d6f756e74732063616e6e6f742062652075696e74206d616044820152600f60fb1b6064820152608490fd5b9093611b41565b611be19150853d8711611373576113658183613265565b38611940565b503461030957806003193601126103095761093a604051611c078161324a565b600b81526a19195d995b1bdc1b595b9d60aa1b6020820152604051918291826132a3565b50346103095780600319360112610309577f00000000000000000000000000000000000000000000000000000000000000006001600160a01b03163003611c8457602060405160008051602061541b8339815191528152f35b60405163703e46dd60e11b8152600490fd5b503461030957611ca536613133565b90600160ff6001541661138557600954604051631b6685b560e21b81526020946001600160a01b03939290919086908290600490829088165afa90811561137a57889161202b575b5061133b57600591836005541694604051631320834f60e01b815287816004818a5afa908115612020578a91611ff3575b50421115611fe15784881693843314611fcf5783600b5403611f505789936040518981602481632762697d60e01b9c8d82528b60048301525afa908115611f45578c91611f18575b5015611f06579291908a935b808510611ded575050505050156111b4576024849260055416936040519485938492835260048301525afa918215611647578492611dbf575b505015611db6575080f35b6109be9061496e565b90809250813d8311611de6575b611dd68183613265565b81010312610f7f57513880611dab565b503d611dcc565b9091929394611dfd8683866133a7565b3515611efe57600019611e118784876133a7565b35146112d757611e278c916112028885886133a7565b95611e5d8b8d8b875416611e3c85888b6133a7565b35918660405180968195829463026aa03f60e21b845233906004850161330f565b03925af18015611ef3578d8b92899592611eba575b50918091611eb093611e96611e868761309d565b949054600395861b1c1683614302565b949093611ea28861309d565b9054911b1c16903390614556565b0193929190611d72565b94505050508a82813d8311611eec575b611ed48183613265565b81010312610f7f57905185919089908d611eb0611e72565b503d611eca565b6040513d85823e3d90fd5b948490611eb0565b60405163baca79c960e01b8152600490fd5b90508981813d8311611f3e575b611f2f8183613265565b81010312610f7f575138611d66565b503d611f25565b6040513d8e823e3d90fd5b60405163dd23c3ad60e01b815260048101899052604a60248201527f436c6f73757265207265706f20746f6b656e20616d6f756e747320617272617960448201527f206e6f742073616d65206c656e67746820617320636f6c6c61746572616c20746064820152691bdad95b9cc81b1a5cdd60b21b608482015260a490fd5b60405163ae957a1d60e01b8152600490fd5b604051633daab04760e21b8152600490fd5b90508781813d8311612019575b61200a8183613265565b81010312610f7f575138611d1e565b503d612000565b6040513d8c823e3d90fd5b6120429150863d8811611373576113658183613265565b38611ced565b5060403660031901126103095761205d61302f565b60249182356001600160401b038111610987573660238201121561098757806004013561208981613288565b936120976040519586613265565b818552602091828601933688838301011161146b57818692898693018737870101526001600160a01b037f000000000000000000000000000000000000000000000000000000000000000081163081149081156122bf575b50611c84576120fc613719565b80600a5416803b1561146b5785604051809263b3c2d50b60e01b82528183816121298930600484016136ff565b03925af180156122b45790869161229c575b50508116946040516352d1902d60e01b815283816004818a5afa869181612269575b5061217a57604051634c9c8ce360e01b8152600481018890528890fd5b86908860008051602061541b833981519152918281036122545750843b1561223e575080546001600160a01b031916821790556040518692917fbc7cd75a20ee27fd9adebab32041f755214dbc6bffa90cc0225b39da2e5c2d3b8480a281511561222057506103659482915190845af4903d15612217573d6121fb81613288565b906122096040519283613265565b81528581943d92013e6152b7565b606092506152b7565b9450505050503461222f575080f35b63b398979f60e01b8152600490fd5b604051634c9c8ce360e01b815260048101849052fd5b60405190632a87526960e21b82526004820152fd5b9091508481813d8311612295575b6122818183613265565b810103126122915751903861215d565b8680fd5b503d612277565b6122a590613206565b6122b057843861213b565b8480fd5b6040513d88823e3d90fd5b90508160008051602061541b83398151915254161415386120ef565b503461030957806122eb366130ce565b6122f6929192613789565b6008546001600160a01b0316803b156122b057610ec0938580946040519687958694859363109c8cf960e11b85526004850161330f565b5034610309576020366003190112610309576020906040906001600160a01b0361235561302f565b168152600f83522054604051908152f35b5034610309576060366003190112610309576123806137f9565b806001600160a01b0361239b816123956133c4565b16613d67565b50600435818116809103610b91576123b290613d67565b5080600a5416908254906123c46133c4565b16823b15612402576064849283604051958694859363f3782f2160e01b8552600485015230602485015260448401525af18015610b8657610b765750f35b505050fd5b5034610309576020366003190112610309576109be61242461302f565b61242c613789565b614afe565b503461030957612440366130ce565b90929161244c84613b3b565b156109c157926109be929361245f6137c1565b33906149e5565b50346103095760603660031901126103095761248061302f565b6024359161248c61305b565b9160008051602061543b83398151915293846000526020946000805160206154db8339815191528652604060002033600052865260ff60406000205416156103695750600b93916124de600b54613466565b926001600160a01b0390828216865b885481101561279257836125008261309d565b90549060031b1c16828952601090818c5260408a20816000528c5260406000205480612532575b5050506001016124ed565b670de0b6b3a76400009089820361265a575050838a52818c5260408a20816000528c5260406000205491848b528c5260408a20816000528c52896040600020558161257d848b613498565b52808a52600c8c5260408a206125948382546132ec565b90558560085416803b156126565760405163109c8cf960e11b8152908b9082908183816125c689898e6004850161330f565b03925af180156112cc57908b91612642575b505085600a54168a54813b1561188d5790888c80949361260e60405197889687958694633b8d409b60e01b8652600486016133ee565b03925af180156118825790899161262e575b50506001905b903880612527565b61263790613206565b61187e578738612620565b61264b90613206565b611b625789386125d8565b8a80fd5b6126819060405161266a8161322f565b8b81528d60405161267a8161322f565b52516136dc565b8060405161268e8161322f565b520491848b528c5260408a20816000528c5260406000206126b08382546132ec565b9055816126bd848b613498565b52808a52600c8c5260408a206126d48382546132ec565b90558560085416803b156126565760405163109c8cf960e11b8152908b90829081838161270689898e6004850161330f565b03925af180156112cc57908b9161277e575b505085600a54168a54813b1561188d5790888c80949361274e60405197889687958694633b8d409b60e01b8652600486016133ee565b03925af180156118825790899161276a575b5050600190612626565b61277390613206565b61187e578738612760565b61278790613206565b611b62578938612718565b868a89866040519283849282600b54928381520192600b865280862095915b8383106127d55788866127c681880382613265565b61093a604051928392836131aa565b86548116855260019687019688965094820194909201916127b1565b50346103095780600319360112610309576020600254604051908152f35b50346103095761281e36613133565b60ff6001541661138557600954604051631b6685b560e21b815290602090829060049082906001600160a01b03165afa908115612b58578591612b39575b5061133b57600554604051631320834f60e01b81526001600160a01b039091169290602081600481875afa9081156122b4578691612b07575b50421115611fe157336001600160a01b03851614611fcf5781600b5403612aed57604051632762697d60e01b81526001600160a01b03851660048201528593909190602090839060249082905afa9182156122b4578692612ab9575b508115611f0657919085925b8284106129865750505050156111b457600554604051632762697d60e01b81526001600160a01b038381166004830152909160209183916024918391165afa908115611ef3578391612954575b5015611db6575080f35b90506020813d60201161297e575b8161296f60209383613265565b81010312610f7f57513861294a565b3d9150612962565b909192936129958585846133a7565b3515612ab0576000196129a98686856133a7565b3514611b73576129be906112028686856133a7565b93828511612a9e5760055487906001600160a01b03166129df8387866133a7565b3590803b156108df57612a0e9183918a8360405180968195829463ec9477e160e01b845233906004850161330f565b03925af18015610b8657612a8a575b505080612a81612a3060019387866133a7565b35612a55612a3d8461309d565b92905492600393878060a01b0391851b1c1690614302565b91612a5f8561309d565b9054911b1c60a086901b86900316612a78858a896133a7565b3590338c614556565b019291906128fd565b612a9390613206565b612291578638612a1d565b604051634fbeca4960e01b8152600490fd5b93600190612a81565b9091506020813d602011612ae5575b81612ad560209383613265565b81010312610f7f575190386128f1565b3d9150612ac8565b60405163dd23c3ad60e01b81528061133060048201613349565b90506020813d602011612b31575b81612b2260209383613265565b81010312610f7f575138612895565b3d9150612b15565b612b52915060203d602011611373576113658183613265565b3861285c565b6040513d87823e3d90fd5b5034610309578060031936011261030957602060405160008051602061549b8339815191528152f35b503461030957604036600319011261030957612ba6613045565b336001600160a01b03821603612bc25761036590600435614224565b60405163334bd91960e11b8152600490fd5b503461030957604036600319011261030957610365600435612bf4613045565b908084526000805160206154db833981519152602052612c1a6001604086200154613869565b6141af565b503461030957604036600319011261030957612c3961302f565b612c4281613b3b565b15610aaa576109be906024359033613b62565b5034610309576020366003190112610309576020906040906001600160a01b03612c7d61302f565b168152600e83522054604051908152f35b503461030957806003193601126103095760206040516000805160206153db8339815191528152f35b50346103095780600319360112610309576009546040516001600160a01b039091168152602090f35b5034610309576020366003190112610309576001604060209260043581526000805160206154db8339815191528452200154604051908152f35b50346103095780612d2a366130ce565b612d35929192613789565b6008546001600160a01b0316803b156122b057610ec0938580946040519687958694859363049f2a5160e21b85526004850161330f565b5034610309576020366003190112610309576020906040906001600160a01b03612d9461302f565b168152600d83522054604051908152f35b5034610309578060031936011261030957602060405160008051602061537b8339815191528152f35b5034610309578060031936011261030957602060ff60015460101c16604051908152f35b50346103095760203660031901126103095760043590600b54821015610309576020612e1d8361309d565b905460405160039290921b1c6001600160a01b03168152f35b5034610309576020806003193601126109875790612e5261302f565b90612e5b613751565b6001600160a01b0392828416825b600b54811015612ed6578086612e8060019361309d565b90549060031b1c16838652601085526040862081600052855260406000205480612ead575b505001612e69565b81612ecf928852600c875260408820612ec78382546132ec565b90558861389c565b3880612ea5565b8380f35b5034610309578060031936011261030957602060405160008051602061535b8339815191528152f35b50346103095760203660031901126103095780612f1e61302f565b612f26613719565b600a546001600160a01b031690813b15610b91578291612f5d9160405194858094819363b3c2d50b60e01b835230600484016136ff565b03925af18015610b8657612f6f575080f35b6109be90613206565b5034610309576020366003190112610309576020906040906001600160a01b03612fa061302f565b168152600c83522054604051908152f35b5034610309578060031936011261030957602060405160008051602061551b8339815191528152f35b9050346109875760203660031901126109875760043563ffffffff60e01b81168091036108df5760209250637965db0b60e01b811490811561301e575b5015158152f35b6301ffc9a760e01b14905038613017565b600435906001600160a01b0382168203610f7f57565b602435906001600160a01b0382168203610f7f57565b604435906001600160a01b0382168203610f7f57565b608435906001600160a01b0382168203610f7f57565b60e435906001600160a01b0382168203610f7f57565b600b548110156130b857600b60005260206000200190600090565b634e487b7160e01b600052603260045260246000fd5b6060906003190112610f7f576001600160a01b03906004358281168103610f7f57916024359081168103610f7f579060443590565b9181601f84011215610f7f578235916001600160401b038311610f7f576020808501948460051b010111610f7f57565b906040600319830112610f7f576004356001600160a01b0381168103610f7f5791602435906001600160401b038211610f7f5761317291600401613103565b9091565b90815180825260208080930193019160005b828110613196575050505090565b835185529381019392810192600101613188565b9092916040820191604081528451809352606081019260208096019060005b8181106131e9575050506131e69394506020818403910152613176565b90565b82516001600160a01b0316865294870194918701916001016131c9565b6001600160401b03811161321957604052565b634e487b7160e01b600052604160045260246000fd5b602081019081106001600160401b0382111761321957604052565b604081019081106001600160401b0382111761321957604052565b601f909101601f19168101906001600160401b0382119082101761321957604052565b6001600160401b03811161321957601f01601f191660200190565b6020808252825181830181905290939260005b8281106132d857505060409293506000838284010152601f8019910116010190565b8181018601518482016040015285016132b6565b919082039182116132f957565b634e487b7160e01b600052601160045260246000fd5b6001600160a01b03918216815291166020820152604081019190915260600190565b90816020910312610f7f57518015158103610f7f5790565b60809060208152603f60208201527f436c6f7375726520616d6f756e7473206172726179206e6f742073616d65206c60408201527f656e67746820617320636f6c6c61746572616c20746f6b656e73206c6973740060608201520190565b91908110156130b85760051b0190565b919082018092116132f957565b6024356001600160a01b0381168103610f7f5790565b356001600160a01b0381168103610f7f5790565b9081526001600160a01b03918216602082015291166040820152606081019190915260800190565b90816020910312610f7f576040519061342e8261322f565b51815290565b6001600160a01b039091168152602081019190915260400190565b6001600160401b0381116132195760051b60200190565b906134708261344f565b61347d6040519182613265565b828152809261348e601f199161344f565b0190602036910137565b80518210156130b85760209160051b010190565b60018060a01b0380600754169080600654169080600554169360409283518096632762697d60e01b825284600494169081600484015282602460209485935afa97881561365557600098613660575b508161351c988751809a81926303d3c9db60e21b9788845260048401613434565b03818a5afa97881561365557600098613636575b5095949392919084516135428161322f565b6000815296600096600b54955b868910613571575050505050505050505190511161356c57600090565b600190565b9091929394959697986135be89868989868f61358c9061309d565b90549060031b1c169485948a600052601085528060002086600052855280600020549051968794859485528401613434565b0381885afa91821561362b576135fd92600194926135f89260009261360c575b50600052600d89528c60002054908d51916115d28361322f565b61514e565b9901979695949392919061354f565b6136249192508a3d8c11611640576116318183613265565b90386135de565b8b513d6000823e3d90fd5b61364e919850823d8411611640576116318183613265565b9638613530565b86513d6000823e3d90fd5b97508188813d8311613688575b6136778183613265565b81010312610f7f57965196816134fb565b503d61366d565b600b5460005b8181106136a3575050600090565b6136ac8161309d565b60018060a01b0391549060031b1c16600052600c6020526040600020546136d557600101613695565b5050600190565b818102929181159184041417156132f957565b91908110156130b85760071b0190565b6001600160a01b0391821681529116602082015260400190565b33600090815260008051602061555b833981519152602052604090205460008051602061537b8339815191529060ff16156103695750565b33600090815260008051602061533b833981519152602052604090205460008051602061535b8339815191529060ff16156103695750565b33600090815260008051602061545b833981519152602052604090205460008051602061549b8339815191529060ff16156103695750565b3360009081526000805160206154fb833981519152602052604090205460008051602061547b8339815191529060ff16156103695750565b3360009081526000805160206153fb83398151915260205260409020546000805160206153db8339815191529060ff16156103695750565b33600090815260008051602061539b833981519152602052604090205460008051602061553b8339815191529060ff16156103695750565b806000526000805160206154db83398151915260205260406000203360005260205260ff60406000205416156103695750565b91909160009260018060a01b039182811692838652601060205260409384872090828516918289526020528588205487116139e0578260085416803b15610ee857865163109c8cf960e11b815290899082908183816139008e8d8d6004850161330f565b03925af190816139cd575b5061391b575b5050505050505050565b8752601060205284872081600052602052868560002061393c8882546132ec565b90556139b0575b50600a5416908554823b1561229157908680949392613977875198899687958694633b8d409b60e01b8652600486016133ee565b03925af19081156139a75750613993575b808080808080613911565b61399d8291613206565b6103095780613988565b513d84823e3d90fd5b8652600c6020528386206139c58682546132ec565b905538613943565b6139d990999199613206565b973861390b565b855163380984fd60e21b8152600490fd5b929060009360018060a01b0380821680875260106020526040948588209183861692838a52602052868920548811613b2a578360085416803b15611b6257875163109c8cf960e11b8152908a908290818381613a528f8e8e6004850161330f565b03925af19081613b17575b50613a6e575b505050505050505050565b885260106020528588208260005260205285600020613a8e8882546132ec565b9055613afa575b50600a5416908554823b1561229157908680949392613ac9875198899687958694633b8d409b60e01b8652600486016133ee565b03925af19081156139a75750613ae6575b80808080808080613a63565b613af08291613206565b6103095780613ada565b8652600c602052838620613b0f8682546132ec565b905538613a95565b613b23909a919a613206565b9838613a5d565b865163380984fd60e21b8152600490fd5b6001600160a01b03166000908152600f602052604090205415613b5d57600190565b600090565b90918015613d335760018060a01b039081831660009181835260209260108452604094858220818916835285528582205415613d2257600554168551631320834f60e01b81528581600481855afa908115613ceb578391613cf5575b5042101580613c93575b613c82578482946024885180948193632762697d60e01b835260048301525afa918215613c77578092613c40575b5050613c099350613c37575b85856139f1565b613c12826134ac565b613c1b57505050565b51632263ff6560e11b81529182916113309190600484016136ff565b60019150613c02565b915091929382813d8311613c70575b613c598183613265565b81010312610309575090613c099291513880613bf6565b503d613c4f565b8651903d90823e3d90fd5b8551633f5a890f60e01b8152600490fd5b508551631b23543760e01b81528581600481855afa908115613ceb578391613cbe575b504210613bc8565b90508581813d8311613ce4575b613cd58183613265565b810103126108df575138613cb6565b503d613ccb565b87513d85823e3d90fd5b90508581813d8311613d1b575b613d0c8183613265565b810103126108df575138613bbe565b503d613d02565b85516314605b7760e01b8152600490fd5b60405163dd23c3ad60e01b815260206004820152600b60248201526a16995c9bc8185b5bdd5b9d60aa1b6044820152606490fd5b6001600160a01b0316600081815260008051602061545b833981519152602052604081205490919060008051602061549b833981519152906000805160206154db8339815191529060ff16613ded578184526020526040832082845260205260408320600160ff1982541617905560008051602061531b833981519152339380a4600190565b50505090565b6001600160a01b0316600081815260008051602061533b833981519152602052604081205490919060008051602061535b833981519152906000805160206154db8339815191529060ff16613ded578184526020526040832082845260205260408320600160ff1982541617905560008051602061531b833981519152339380a4600190565b6001600160a01b031660008181526000805160206153bb833981519152602052604081205490919060008051602061551b833981519152906000805160206154db8339815191529060ff16613ded578184526020526040832082845260205260408320600160ff1982541617905560008051602061531b833981519152339380a4600190565b6001600160a01b031660008181526000805160206154fb833981519152602052604081205490919060008051602061547b833981519152906000805160206154db8339815191529060ff16613ded578184526020526040832082845260205260408320600160ff1982541617905560008051602061531b833981519152339380a4600190565b6001600160a01b0316600081815260008051602061555b833981519152602052604081205490919060008051602061537b833981519152906000805160206154db8339815191529060ff16613ded578184526020526040832082845260205260408320600160ff1982541617905560008051602061531b833981519152339380a4600190565b6001600160a01b0316600081815260008051602061539b833981519152602052604081205490919060008051602061553b833981519152906000805160206154db8339815191529060ff16613ded578184526020526040832082845260205260408320600160ff1982541617905560008051602061531b833981519152339380a4600190565b6001600160a01b031660008181526000805160206153fb83398151915260205260408120549091906000805160206153db833981519152906000805160206154db8339815191529060ff16613ded578184526020526040832082845260205260408320600160ff1982541617905560008051602061531b833981519152339380a4600190565b6001600160a01b031660008181527fe0fa667d5da66691d383b7f9adac3d76155de839dedfa082769d2d0b3e806212602052604081205490919060008051602061543b833981519152906000805160206154db8339815191529060ff16613ded578184526020526040832082845260205260408320600160ff1982541617905560008051602061531b833981519152339380a4600190565b906000918083526000805160206154db83398151915280602052604084209260018060a01b03169283855260205260ff60408520541615600014613ded578184526020526040832082845260205260408320600160ff1982541617905560008051602061531b833981519152339380a4600190565b906000918083526000805160206154db83398151915280602052604084209260018060a01b03169283855260205260ff604085205416600014613ded57818452602052604083208284526020526040832060ff1981541690557ff6391f5c32d9c69d2a47ea670b442974b53935d1edc7fd64eb21e047a839171b339380a4600190565b90816020910312610f7f575160ff81168103610f7f5790565b60ff16604d81116132f957600a0a90565b60ff166012039060ff82116132f957565b81156142ec570490565b634e487b7160e01b600052601260045260246000fd5b919060018060a01b0380821681600754169160065416916040928351916303d3c9db60e21b91828452838061433e60209b8c9460048401613434565b0381845afa9283156144e157600093614537575b50845163313ce56760e01b80825296908981600481895afa90811561452c579161438c8b94926143a197969460009161450f575b506142c0565b92885196879485938493845260048401613434565b03915afa91821561450457906143bf92916000926144ec5750614f6a565b9461441e61440661440085516143d48161322f565b670de0b6b3a7640000815285600052600f85528660002054908751916143f98361322f565b825261514e565b88615254565b96600354908551916144178361322f565b8252615254565b955183518581528281600481875afa9081156144e1579161445461444f61445a9386956000916144c4575b506142d1565b6142c0565b906142e2565b965194600485518095819382525afa9283156144ba57506131e693926144549261444f9260009261448d575b50506142d1565b6144ac9250803d106144b3575b6144a48183613265565b8101906142a7565b3880614486565b503d61449a565b513d6000823e3d90fd5b6144db9150863d88116144b3576144a48183613265565b38614449565b85513d6000823e3d90fd5b611639919250883d8a11611640576116318183613265565b84513d6000823e3d90fd5b6145269150863d88116144b3576144a48183613265565b38614386565b87513d6000823e3d90fd5b61454f919350883d8a11611640576116318183613265565b9138614352565b9093919260009560018060a01b038093169384885260209560108752604096878a209186811692838c528252888b2054841161477057878b5260108252888b20838c528252888b206145a98582546132ec565b9055828b52600c8252888b206145c08582546132ec565b9055866008541660048389600954168c519283809263012f8d2f60e11b82525afa938415614766578d9461472d575b5050803b1561188d578b8a51809281838161461a8c8963109c8cf960e11b9b8c85526004850161330f565b03925af1801561472357614710575b50866008541661463986866132ec565b92813b1561470c57908b8d80949361465e8e519788968795869485526004850161330f565b03925af1801561470257908a916146ee575b505084600a541693895495853b15612656579261010495928b9897959289958b519c8d9a8b99639cc487d760e01b8b5260048b015260248a01521660448801526064870152608486015260a485015260c4840152600160e48401525af19081156139a757506146dd575050565b6146e78291613206565b6103095750565b6146f790613206565b610ee8578838614670565b88513d8c823e3d90fd5b8c80fd5b61471c909b919b613206565b9938614629565b8a513d8e823e3d90fd5b9080929450813d831161475f575b6147458183613265565b8101031261188d5751878116810361188d579138806145ef565b503d61473b565b8b513d8f823e3d90fd5b88516398de333560e01b815260048101849052602490fd5b9093919260009560018060a01b038093169384885260209560108752604096878a209186811692838c528252888b2054841161477057878b5260108252888b20838c528252888b206147db8582546132ec565b9055828b52600c8252888b206147f28582546132ec565b9055866008541660048389600954168c519283809263012f8d2f60e11b82525afa938415614766578d94614935575b5050803b1561188d578b8a51809281838161484c8c8963109c8cf960e11b9b8c85526004850161330f565b03925af1801561472357614922575b50866008541661486b86866132ec565b92813b1561470c57908b8d8094936148908e519788968795869485526004850161330f565b03925af1801561470257908a9161490e575b505084600a541693895495853b15612656579261010495928b9897959289958b519c8d9a8b99639cc487d760e01b8b5260048b015260248a01521660448801526064870152608486015260a485015260c48401528160e48401525af19081156139a757506146dd575050565b61491790613206565b610ee85788386148a2565b61492e909b919b613206565b993861485b565b9080929450813d8311614967575b61494d8183613265565b8101031261188d5751878116810361188d57913880614821565b503d614943565b60005b600b548110156149e157600190818060a01b038084166000526149d9602060108152600c60409184836000206149a68861309d565b979054600398891b1c1660005282528360002054956149c48861309d565b9054911b1c16600052526000209182546132ec565b905501614971565b5050565b60055460408051631320834f60e01b8152909695949392916020916001600160a01b0391821691908381600481865afa908115614af357600091614ac6575b504211614ab557829060248a5180948193632762697d60e01b8352881660048301525afa918215614aaa57600092614a7c575b505015614a6b57614a69949550614fb1565b565b855163baca79c960e01b8152600490fd5b90809250813d8311614aa3575b614a938183613265565b81010312610f7f57513880614a57565b503d614a89565b88513d6000823e3d90fd5b885163c5e2992f60e01b8152600490fd5b90508381813d8311614aec575b614add8183613265565b81010312610f7f575138614a24565b503d614ad3565b8a513d6000823e3d90fd5b60005b600b548110156149e15780614b1760019261309d565b90838060a01b0390549181861660005260209160108352604093846000209260031b1c16600052815281600020549182614b55575b50505001614b01565b600c614b6792526000209182546133b7565b9055388080614b4c565b60055460408051631320834f60e01b81529095946004946020946001600160a01b0394909390851692919086818981875afa908115614af357600091614d20575b504211614d10578484169392919085168414614d0057600b5403614ce85790846024949392895195868092632762697d60e01b8252868b8301525afa938415614aaa57600094614cb9575b508315614ca957614c0d906134ac565b15614c9957918391614c529360005260108352614c2c8860002061516b565b9581600754169160065416908951958694859384936303d3c9db60e21b85528401613434565b03915afa9182156144e157614c7893949550600092614c7c575b505051600254906133b7565b1190565b614c929250803d10611640576116318183613265565b3880614c6c565b865163e94a979360e01b81528590fd5b875163baca79c960e01b81528690fd5b9093508481813d8311614ce1575b614cd18183613265565b81010312610f7f57519238614bfd565b503d614cc7565b875163dd23c3ad60e01b815280611330818901613349565b885163ae957a1d60e01b81528790fd5b88516321f8431560e01b81528790fd5b90508681813d8311614d46575b614d378183613265565b81010312610f7f575138614bb2565b503d614d2d565b60055460408051632762697d60e01b81526001600160a01b03938416600480830182905292949093602093919084908490602490829085165afa92831561365557600093614f3b575b508215614f30578551614da88161322f565b6000815294600090600b54908360075416945b828410614e765750505050918391614dec936006541687518095819482936303d3c9db60e21b845260048401613434565b03915afa91821561450457600092614e59575b50508151815111614e5157614e28614e3b9260008551614e1e8161322f565b52518251906132ec565b835190614e348261322f565b8152614f6a565b600454809251614e4a8161322f565b5251111590565b505050600190565b614e6f9250803d10611640576116318183613265565b3880614dff565b90919297614ec085614e878b61309d565b90549060031b1c168460005260108a528b600020816000528a52898c600020548d51809481926303d3c9db60e21b835285898401613434565b03818b5afa918215614f25578c614efc93600195936135f8938e600093614f06575b5050600052600e8d5281600020549151916115d28361322f565b9801929190614dbb565b614f1d929350803d10611640576116318183613265565b90388e614ee2565b8c513d6000823e3d90fd5b505050505050600090565b9092508381813d8311614f63575b614f538183613265565b81010312610f7f57519138614d96565b503d614f49565b6000604051614f788161322f565b5251670de0b6b3a7640000908181029181830414901517156132f957614f9f9151906142e2565b60405190614fac8261322f565b815290565b929160009360018060a01b03808216938487526024602060108152604096878a209085881691828c528352888b20548387600554168b5196878092632762697d60e01b82528660048301525afa8015614723578c90615118575b600c9550158061510f575b6150f3575b508a5260108252878a20818b528252878a206150388a82546133b7565b905589525284872061504b8782546133b7565b9055816008541690813b1561187e578661507f92868a80948a519687958694859363049f2a5160e21b85526004850161330f565b03925af180156150e9576150d6575b50600a5416908554823b15612291579086809493926150c287519889968795869463ee9e68bb60e01b8652600486016133ee565b03925af19081156139a757506146dd575050565b6150e290969196613206565b943861508e565b85513d89823e3d90fd5b828c528484526151078a8d209182546133b7565b90553861501b565b50801515615016565b50909192938481813d8311615147575b6151328183613265565b8101031261188d5790600c949392915161500b565b503d615128565b90614f9f9160006040516151618161322f565b52519051906133b7565b604080516151788161322f565b600090818152928192600b549160018060a01b03908160075416905b8487106151a657505050505050505190565b909192939495966151b68861309d565b9190546003866151c58c61309d565b905490831b1c168a5260209384918683526151fb8a8d20548a8c5196879586956303d3c9db60e21b87521b1c1660048401613434565b0381885afa92831561524a57916001939161521e938b9361522b575b505061514e565b9701959493929190615194565b615242929350803d10611640576116318183613265565b903880615217565b87513d8b823e3d90fd5b670de0b6b3a76400009161527a9160006040516152708161322f565b52519051906136dc565b0460405190614fac8261322f565b60ff60008051602061557b8339815191525460401c16156152a557565b604051631afcd79f60e31b8152600490fd5b906152de57508051156152cc57805190602001fd5b60405163d6bda27560e01b8152600490fd5b81511580615311575b6152ef575090565b604051639996b31560e01b81526001600160a01b039091166004820152602490fd5b50803b156152e756fe2f8788117e7eff1d82e926ec794901d17c78024a50270940304540a733656f0d265ec2c7f23b289e86ed2d877ad4b447b70ac08332783d1ba335eb6541af8c3c250b76734a070a69c7b3930477dd35007ad9c9d0952e97903fdafb2db6980537793a6c9b7e0a9549c74edc2f9ae0dc50903dfaa9a56fb0116b27a8c71de3e2c6b16e88c42fd4e48df2dd6a2eabd6bc9aec654ec170056b470819f8892cc6431cd7a4b94e3999c665472d525c803b137e79362305144db4ed5b3b50836858e97a30d41a597cac127d8249d31298b50e481ee82c3f4a49ff93c76a22735aa9f3ad44fa5399874b75da801cb431822b6afcadb876f84eb39d7f05bf697e94b4484e360894a13ba1a3210667c828492db98dca3e2076cc3735a920a3ca505d382bbcf4b6b486426e3c004413defb7013cd482f29189a98e074f1c202b2ac26536bb28ba309f7c97dad724319b8727ac7a1b9dff7d9f9f8b4ce23cf917c51e66066cbc36a8568220526774f62a808c5b8dd8b7191b32206f87b2bfd114958435899636e14a979b95b01beecd617807f3738f4e067938da99755b16afdcf7148d313b70175b7a638427703f0dbe7bb9bbf987a2551717b34e79f33b5b1008d1fa01db902dd7bc7dec4dceedda775e58dd541e08a116c6c53815c0bd028192f7b62680071dad3b8d800ed6b81a4c9f84973579b8b42e673b9a0771be09894ef8040dd786e3cc031d23d7153f72e87cbfd113a0351c60d8ce52b8a31c944d543a384b7c9a49807205ce4d355092ef5a8a18f56e8913cf4a201fbe287825b095693c217750cfb002fcf8644f87ebf6cf6e31899c8d8e9f7c329b465b6e36989a958507e8bf0c57e16840df040f15088dc2f81fe391c3923bec73e23a9662efc9c229c6a00a26469706673582212202f8713251369740c080e6bb68bd333b904a99175cb6d4349f519c481d3e10a4c64736f6c63430008160033",
  "linkReferences": {},
  "deployedLinkReferences": {}
}