{
  "_format": "hh-sol-artifact-1",
  "contractName": "TestTermRepoCollateralManager",
  "sourceName": "contracts/test/TestTermRepoCollateralManager.sol",
  "abi": [
    {
      "inputs": [],
      "name": "AlreadyTermContractPaired",
      "type": "error"
    },
    {
      "inputs": [],
      "name": "BorrowerNotInShortfall",
      "type": "error"
    },
    {
      "inputs": [],
      "name": "CallerNotBorrower",
      "type": "error"
    },
    {
      "inputs": [
        {
          "internalType": "address",
          "name": "borrower",
          "type": "address"
        },
        {
          "internalType": "address",
          "name": "token",
          "type": "address"
        }
      ],
      "name": "CollateralBelowMaintenanceRatios",
      "type": "error"
    },
    {
      "inputs": [],
      "name": "CollateralDepositClosed",
      "type": "error"
    },
    {
      "inputs": [
        {
          "internalType": "address",
          "name": "token",
          "type": "address"
        }
      ],
      "name": "CollateralTokenNotAllowed",
      "type": "error"
    },
    {
      "inputs": [],
      "name": "CollateralWithdrawalClosed",
      "type": "error"
    },
    {
      "inputs": [],
      "name": "DefaultsClosed",
      "type": "error"
    },
    {
      "inputs": [],
      "name": "ExceedsNetExposureCapOnLiquidation",
      "type": "error"
    },
    {
      "inputs": [
        {
          "internalType": "address",
          "name": "collateralToken",
          "type": "address"
        }
      ],
      "name": "InsufficientCollateralForLiquidationRepayment",
      "type": "error"
    },
    {
      "inputs": [],
      "name": "InsufficientCollateralForRedemption",
      "type": "error"
    },
    {
      "inputs": [
        {
          "internalType": "string",
          "name": "message",
          "type": "string"
        }
      ],
      "name": "InvalidParameters",
      "type": "error"
    },
    {
      "inputs": [],
      "name": "LiquidationsPaused",
      "type": "error"
    },
    {
      "inputs": [],
      "name": "RepaymentAmountLargerThanAllowed",
      "type": "error"
    },
    {
      "inputs": [],
      "name": "SelfLiquidationNotPermitted",
      "type": "error"
    },
    {
      "inputs": [],
      "name": "ShortfallLiquidationsClosed",
      "type": "error"
    },
    {
      "inputs": [],
      "name": "TermRepurchaseWindowOpen",
      "type": "error"
    },
    {
      "inputs": [],
      "name": "TotalRepaymentGreaterThangetBorrowerRepurchaseObligation",
      "type": "error"
    },
    {
      "inputs": [],
      "name": "UnlockAmountGreaterThanCollateralBalance",
      "type": "error"
    },
    {
      "inputs": [],
      "name": "ZeroAddressContractPaired",
      "type": "error"
    },
    {
      "inputs": [],
      "name": "ZeroBorrowerRepurchaseObligation",
      "type": "error"
    },
    {
      "inputs": [],
      "name": "ZeroCollateralBalance",
      "type": "error"
    },
    {
      "inputs": [],
      "name": "ZeroLiquidationNotPermitted",
      "type": "error"
    },
    {
      "anonymous": false,
      "inputs": [
        {
          "indexed": false,
          "internalType": "address",
          "name": "previousAdmin",
          "type": "address"
        },
        {
          "indexed": false,
          "internalType": "address",
          "name": "newAdmin",
          "type": "address"
        }
      ],
      "name": "AdminChanged",
      "type": "event"
    },
    {
      "anonymous": false,
      "inputs": [
        {
          "indexed": true,
          "internalType": "address",
          "name": "beacon",
          "type": "address"
        }
      ],
      "name": "BeaconUpgraded",
      "type": "event"
    },
    {
      "anonymous": false,
      "inputs": [
        {
          "indexed": false,
          "internalType": "uint8",
          "name": "version",
          "type": "uint8"
        }
      ],
      "name": "Initialized",
      "type": "event"
    },
    {
      "anonymous": false,
      "inputs": [
        {
          "indexed": true,
          "internalType": "bytes32",
          "name": "role",
          "type": "bytes32"
        },
        {
          "indexed": true,
          "internalType": "bytes32",
          "name": "previousAdminRole",
          "type": "bytes32"
        },
        {
          "indexed": true,
          "internalType": "bytes32",
          "name": "newAdminRole",
          "type": "bytes32"
        }
      ],
      "name": "RoleAdminChanged",
      "type": "event"
    },
    {
      "anonymous": false,
      "inputs": [
        {
          "indexed": true,
          "internalType": "bytes32",
          "name": "role",
          "type": "bytes32"
        },
        {
          "indexed": true,
          "internalType": "address",
          "name": "account",
          "type": "address"
        },
        {
          "indexed": true,
          "internalType": "address",
          "name": "sender",
          "type": "address"
        }
      ],
      "name": "RoleGranted",
      "type": "event"
    },
    {
      "anonymous": false,
      "inputs": [
        {
          "indexed": true,
          "internalType": "bytes32",
          "name": "role",
          "type": "bytes32"
        },
        {
          "indexed": true,
          "internalType": "address",
          "name": "account",
          "type": "address"
        },
        {
          "indexed": true,
          "internalType": "address",
          "name": "sender",
          "type": "address"
        }
      ],
      "name": "RoleRevoked",
      "type": "event"
    },
    {
      "anonymous": false,
      "inputs": [
        {
          "indexed": true,
          "internalType": "address",
          "name": "implementation",
          "type": "address"
        }
      ],
      "name": "Upgraded",
      "type": "event"
    },
    {
      "inputs": [],
      "name": "ADMIN_ROLE",
      "outputs": [
        {
          "internalType": "bytes32",
          "name": "",
          "type": "bytes32"
        }
      ],
      "stateMutability": "view",
      "type": "function"
    },
    {
      "inputs": [],
      "name": "AUCTION_LOCKER",
      "outputs": [
        {
          "internalType": "bytes32",
          "name": "",
          "type": "bytes32"
        }
      ],
      "stateMutability": "view",
      "type": "function"
    },
    {
      "inputs": [],
      "name": "DEFAULT_ADMIN_ROLE",
      "outputs": [
        {
          "internalType": "bytes32",
          "name": "",
          "type": "bytes32"
        }
      ],
      "stateMutability": "view",
      "type": "function"
    },
    {
      "inputs": [],
      "name": "DEVOPS_ROLE",
      "outputs": [
        {
          "internalType": "bytes32",
          "name": "",
          "type": "bytes32"
        }
      ],
      "stateMutability": "view",
      "type": "function"
    },
    {
      "inputs": [],
      "name": "INITIALIZER_ROLE",
      "outputs": [
        {
          "internalType": "bytes32",
          "name": "",
          "type": "bytes32"
        }
      ],
      "stateMutability": "view",
      "type": "function"
    },
    {
      "inputs": [],
      "name": "ROLLOVER_MANAGER",
      "outputs": [
        {
          "internalType": "bytes32",
          "name": "",
          "type": "bytes32"
        }
      ],
      "stateMutability": "view",
      "type": "function"
    },
    {
      "inputs": [],
      "name": "ROLLOVER_TARGET_AUCTIONEER_ROLE",
      "outputs": [
        {
          "internalType": "bytes32",
          "name": "",
          "type": "bytes32"
        }
      ],
      "stateMutability": "view",
      "type": "function"
    },
    {
      "inputs": [],
      "name": "SERVICER_ROLE",
      "outputs": [
        {
          "internalType": "bytes32",
          "name": "",
          "type": "bytes32"
        }
      ],
      "stateMutability": "view",
      "type": "function"
    },
    {
      "inputs": [
        {
          "internalType": "address",
          "name": "borrower",
          "type": "address"
        },
        {
          "internalType": "address",
          "name": "collateralToken",
          "type": "address"
        },
        {
          "internalType": "uint256",
          "name": "amount",
          "type": "uint256"
        }
      ],
      "name": "acceptRolloverCollateral",
      "outputs": [],
      "stateMutability": "nonpayable",
      "type": "function"
    },
    {
      "inputs": [
        {
          "internalType": "address",
          "name": "rolloverAuction",
          "type": "address"
        }
      ],
      "name": "approveRolloverAuction",
      "outputs": [],
      "stateMutability": "nonpayable",
      "type": "function"
    },
    {
      "inputs": [
        {
          "internalType": "address",
          "name": "bidder",
          "type": "address"
        },
        {
          "internalType": "address",
          "name": "collateralToken",
          "type": "address"
        },
        {
          "internalType": "uint256",
          "name": "amount",
          "type": "uint256"
        }
      ],
      "name": "auctionLockCollateral",
      "outputs": [],
      "stateMutability": "nonpayable",
      "type": "function"
    },
    {
      "inputs": [
        {
          "internalType": "address",
          "name": "bidder",
          "type": "address"
        },
        {
          "internalType": "address",
          "name": "collateralToken",
          "type": "address"
        },
        {
          "internalType": "uint256",
          "name": "amount",
          "type": "uint256"
        }
      ],
      "name": "auctionUnlockCollateral",
      "outputs": [],
      "stateMutability": "nonpayable",
      "type": "function"
    },
    {
      "inputs": [
        {
          "internalType": "address",
          "name": "borrower",
          "type": "address"
        },
        {
          "internalType": "uint256[]",
          "name": "closureAmounts",
          "type": "uint256[]"
        }
      ],
      "name": "batchDefault",
      "outputs": [],
      "stateMutability": "nonpayable",
      "type": "function"
    },
    {
      "inputs": [
        {
          "internalType": "address",
          "name": "borrower",
          "type": "address"
        },
        {
          "internalType": "uint256[]",
          "name": "closureAmounts",
          "type": "uint256[]"
        }
      ],
      "name": "batchLiquidation",
      "outputs": [],
      "stateMutability": "nonpayable",
      "type": "function"
    },
    {
      "inputs": [
        {
          "internalType": "address",
          "name": "borrower",
          "type": "address"
        },
        {
          "internalType": "uint256[]",
          "name": "closureRepoTokenAmounts",
          "type": "uint256[]"
        }
      ],
      "name": "batchLiquidationWithRepoToken",
      "outputs": [],
      "stateMutability": "nonpayable",
      "type": "function"
    },
    {
      "inputs": [
        {
          "internalType": "address",
          "name": "collateralToken",
          "type": "address"
        },
        {
          "internalType": "uint256",
          "name": "amountToLock",
          "type": "uint256"
        }
      ],
      "name": "calculateMintableExposure",
      "outputs": [
        {
          "components": [
            {
              "internalType": "uint256",
              "name": "mantissa",
              "type": "uint256"
            }
          ],
          "internalType": "struct ExponentialNoError.Exp",
          "name": "",
          "type": "tuple"
        }
      ],
      "stateMutability": "view",
      "type": "function"
    },
    {
      "inputs": [
        {
          "internalType": "uint256",
          "name": "",
          "type": "uint256"
        }
      ],
      "name": "collateralTokens",
      "outputs": [
        {
          "internalType": "address",
          "name": "",
          "type": "address"
        }
      ],
      "stateMutability": "view",
      "type": "function"
    },
    {
      "inputs": [],
      "name": "deMinimisMarginThreshold",
      "outputs": [
        {
          "internalType": "uint256",
          "name": "",
          "type": "uint256"
        }
      ],
      "stateMutability": "view",
      "type": "function"
    },
    {
      "inputs": [],
      "name": "encumberedCollateralRemaining",
      "outputs": [
        {
          "internalType": "bool",
          "name": "",
          "type": "bool"
        }
      ],
      "stateMutability": "view",
      "type": "function"
    },
    {
      "inputs": [
        {
          "internalType": "address",
          "name": "collateralToken",
          "type": "address"
        },
        {
          "internalType": "uint256",
          "name": "amount",
          "type": "uint256"
        }
      ],
      "name": "externalLockCollateral",
      "outputs": [],
      "stateMutability": "nonpayable",
      "type": "function"
    },
    {
      "inputs": [
        {
          "internalType": "address",
          "name": "collateralToken",
          "type": "address"
        },
        {
          "internalType": "uint256",
          "name": "amount",
          "type": "uint256"
        }
      ],
      "name": "externalUnlockCollateral",
      "outputs": [],
      "stateMutability": "nonpayable",
      "type": "function"
    },
    {
      "inputs": [
        {
          "internalType": "address",
          "name": "borrower",
          "type": "address"
        },
        {
          "internalType": "address",
          "name": "collateralToken",
          "type": "address"
        }
      ],
      "name": "getCollateralBalance",
      "outputs": [
        {
          "internalType": "uint256",
          "name": "",
          "type": "uint256"
        }
      ],
      "stateMutability": "view",
      "type": "function"
    },
    {
      "inputs": [
        {
          "internalType": "address",
          "name": "borrower",
          "type": "address"
        }
      ],
      "name": "getCollateralBalances",
      "outputs": [
        {
          "internalType": "address[]",
          "name": "",
          "type": "address[]"
        },
        {
          "internalType": "uint256[]",
          "name": "",
          "type": "uint256[]"
        }
      ],
      "stateMutability": "view",
      "type": "function"
    },
    {
      "inputs": [
        {
          "internalType": "address",
          "name": "borrower",
          "type": "address"
        }
      ],
      "name": "getCollateralMarketValue",
      "outputs": [
        {
          "internalType": "uint256",
          "name": "",
          "type": "uint256"
        }
      ],
      "stateMutability": "view",
      "type": "function"
    },
    {
      "inputs": [
        {
          "internalType": "address",
          "name": "collateralToken",
          "type": "address"
        }
      ],
      "name": "getEncumberedCollateralBalances",
      "outputs": [
        {
          "internalType": "uint256",
          "name": "",
          "type": "uint256"
        }
      ],
      "stateMutability": "view",
      "type": "function"
    },
    {
      "inputs": [
        {
          "internalType": "bytes32",
          "name": "role",
          "type": "bytes32"
        }
      ],
      "name": "getRoleAdmin",
      "outputs": [
        {
          "internalType": "bytes32",
          "name": "",
          "type": "bytes32"
        }
      ],
      "stateMutability": "view",
      "type": "function"
    },
    {
      "inputs": [
        {
          "internalType": "bytes32",
          "name": "role",
          "type": "bytes32"
        },
        {
          "internalType": "address",
          "name": "account",
          "type": "address"
        }
      ],
      "name": "grantRole",
      "outputs": [],
      "stateMutability": "nonpayable",
      "type": "function"
    },
    {
      "inputs": [
        {
          "internalType": "bytes32",
          "name": "role",
          "type": "bytes32"
        },
        {
          "internalType": "address",
          "name": "account",
          "type": "address"
        }
      ],
      "name": "hasRole",
      "outputs": [
        {
          "internalType": "bool",
          "name": "",
          "type": "bool"
        }
      ],
      "stateMutability": "view",
      "type": "function"
    },
    {
      "inputs": [
        {
          "internalType": "address",
          "name": "",
          "type": "address"
        }
      ],
      "name": "initialCollateralRatios",
      "outputs": [
        {
          "internalType": "uint256",
          "name": "",
          "type": "uint256"
        }
      ],
      "stateMutability": "view",
      "type": "function"
    },
    {
      "inputs": [
        {
          "internalType": "string",
          "name": "termRepoId_",
          "type": "string"
        },
        {
          "internalType": "uint256",
          "name": "liquidateDamangesDueToProtocol_",
          "type": "uint256"
        },
        {
          "internalType": "uint256",
          "name": "netExposureCapOnLiquidation_",
          "type": "uint256"
        },
        {
          "internalType": "uint256",
          "name": "deMinimisMarginThreshold_",
          "type": "uint256"
        },
        {
          "internalType": "address",
          "name": "purchaseToken_",
          "type": "address"
        },
        {
          "components": [
            {
              "internalType": "address",
              "name": "tokenAddress",
              "type": "address"
            },
            {
              "internalType": "uint256",
              "name": "initialCollateralRatio",
              "type": "uint256"
            },
            {
              "internalType": "uint256",
              "name": "maintenanceRatio",
              "type": "uint256"
            },
            {
              "internalType": "uint256",
              "name": "liquidatedDamage",
              "type": "uint256"
            }
          ],
          "internalType": "struct Collateral[]",
          "name": "collateralTokens_",
          "type": "tuple[]"
        },
        {
          "internalType": "contract ITermEventEmitter",
          "name": "emitter_",
          "type": "address"
        },
        {
          "internalType": "address",
          "name": "termInitializer_",
          "type": "address"
        }
      ],
      "name": "initialize",
      "outputs": [],
      "stateMutability": "nonpayable",
      "type": "function"
    },
    {
      "inputs": [
        {
          "internalType": "address",
          "name": "borrower",
          "type": "address"
        }
      ],
      "name": "isBorrowerInShortfall",
      "outputs": [
        {
          "internalType": "bool",
          "name": "",
          "type": "bool"
        }
      ],
      "stateMutability": "view",
      "type": "function"
    },
    {
      "inputs": [
        {
          "internalType": "address",
          "name": "borrower",
          "type": "address"
        },
        {
          "internalType": "address[]",
          "name": "collateralTokenAddresses",
          "type": "address[]"
        },
        {
          "internalType": "uint256[]",
          "name": "collateralTokenAmounts",
          "type": "uint256[]"
        }
      ],
      "name": "journalBidCollateralToCollateralManager",
      "outputs": [],
      "stateMutability": "nonpayable",
      "type": "function"
    },
    {
      "inputs": [],
      "name": "liquidateDamangesDueToProtocol",
      "outputs": [
        {
          "internalType": "uint256",
          "name": "",
          "type": "uint256"
        }
      ],
      "stateMutability": "view",
      "type": "function"
    },
    {
      "inputs": [
        {
          "internalType": "address",
          "name": "",
          "type": "address"
        }
      ],
      "name": "liquidatedDamages",
      "outputs": [
        {
          "internalType": "uint256",
          "name": "",
          "type": "uint256"
        }
      ],
      "stateMutability": "view",
      "type": "function"
    },
    {
      "inputs": [],
      "name": "liquidationsPaused",
      "outputs": [
        {
          "internalType": "bool",
          "name": "",
          "type": "bool"
        }
      ],
      "stateMutability": "view",
      "type": "function"
    },
    {
      "inputs": [
        {
          "internalType": "address",
          "name": "",
          "type": "address"
        }
      ],
      "name": "maintenanceCollateralRatios",
      "outputs": [
        {
          "internalType": "uint256",
          "name": "",
          "type": "uint256"
        }
      ],
      "stateMutability": "view",
      "type": "function"
    },
    {
      "inputs": [
        {
          "internalType": "address",
          "name": "borrower",
          "type": "address"
        },
        {
          "internalType": "address",
          "name": "collateralToken",
          "type": "address"
        },
        {
          "internalType": "uint256",
          "name": "amount",
          "type": "uint256"
        }
      ],
      "name": "mintOpenExposureLockCollateral",
      "outputs": [],
      "stateMutability": "nonpayable",
      "type": "function"
    },
    {
      "inputs": [],
      "name": "netExposureCapOnLiquidation",
      "outputs": [
        {
          "internalType": "uint256",
          "name": "",
          "type": "uint256"
        }
      ],
      "stateMutability": "view",
      "type": "function"
    },
    {
      "inputs": [],
      "name": "numOfAcceptedCollateralTokens",
      "outputs": [
        {
          "internalType": "uint8",
          "name": "",
          "type": "uint8"
        }
      ],
      "stateMutability": "view",
      "type": "function"
    },
    {
      "inputs": [
        {
          "internalType": "address",
          "name": "termRepoLocker_",
          "type": "address"
        },
        {
          "internalType": "address",
          "name": "termRepoServicer_",
          "type": "address"
        },
        {
          "internalType": "address",
          "name": "termAuctionBidLocker_",
          "type": "address"
        },
        {
          "internalType": "address",
          "name": "termAuction_",
          "type": "address"
        },
        {
          "internalType": "address",
          "name": "termController_",
          "type": "address"
        },
        {
          "internalType": "address",
          "name": "termPriceOracle_",
          "type": "address"
        },
        {
          "internalType": "address",
          "name": "termRepoRolloverManager_",
          "type": "address"
        },
        {
          "internalType": "address",
          "name": "devopsMultisig_",
          "type": "address"
        },
        {
          "internalType": "address",
          "name": "adminWallet_",
          "type": "address"
        }
      ],
      "name": "pairTermContracts",
      "outputs": [],
      "stateMutability": "nonpayable",
      "type": "function"
    },
    {
      "inputs": [],
      "name": "pauseLiquidations",
      "outputs": [],
      "stateMutability": "nonpayable",
      "type": "function"
    },
    {
      "inputs": [],
      "name": "proxiableUUID",
      "outputs": [
        {
          "internalType": "bytes32",
          "name": "",
          "type": "bytes32"
        }
      ],
      "stateMutability": "view",
      "type": "function"
    },
    {
      "inputs": [],
      "name": "purchaseToken",
      "outputs": [
        {
          "internalType": "address",
          "name": "",
          "type": "address"
        }
      ],
      "stateMutability": "view",
      "type": "function"
    },
    {
      "inputs": [
        {
          "internalType": "bytes32",
          "name": "role",
          "type": "bytes32"
        },
        {
          "internalType": "address",
          "name": "account",
          "type": "address"
        }
      ],
      "name": "renounceRole",
      "outputs": [],
      "stateMutability": "nonpayable",
      "type": "function"
    },
    {
      "inputs": [
        {
          "components": [
            {
              "internalType": "contract TermAuction",
              "name": "auction",
              "type": "address"
            },
            {
              "internalType": "contract ITermAuctionBidLocker",
              "name": "termAuctionBidLocker",
              "type": "address"
            },
            {
              "internalType": "contract ITermAuctionOfferLocker",
              "name": "termAuctionOfferLocker",
              "type": "address"
            }
          ],
          "internalType": "struct TermAuctionGroup",
          "name": "termAuctionGroup",
          "type": "tuple"
        }
      ],
      "name": "reopenToNewAuction",
      "outputs": [],
      "stateMutability": "nonpayable",
      "type": "function"
    },
    {
      "inputs": [
        {
          "internalType": "bytes32",
          "name": "role",
          "type": "bytes32"
        },
        {
          "internalType": "address",
          "name": "account",
          "type": "address"
        }
      ],
      "name": "revokeRole",
      "outputs": [],
      "stateMutability": "nonpayable",
      "type": "function"
    },
    {
      "inputs": [
        {
          "internalType": "address",
          "name": "collateralToken",
          "type": "address"
        },
        {
          "internalType": "uint256",
          "name": "amount",
          "type": "uint256"
        }
      ],
      "name": "setEncumberedCollateralBalances",
      "outputs": [
        {
          "internalType": "uint256",
          "name": "",
          "type": "uint256"
        }
      ],
      "stateMutability": "nonpayable",
      "type": "function"
    },
    {
      "inputs": [
        {
          "internalType": "bytes4",
          "name": "interfaceId",
          "type": "bytes4"
        }
      ],
      "name": "supportsInterface",
      "outputs": [
        {
          "internalType": "bool",
          "name": "",
          "type": "bool"
        }
      ],
      "stateMutability": "view",
      "type": "function"
    },
    {
      "inputs": [],
      "name": "termRepoId",
      "outputs": [
        {
          "internalType": "bytes32",
          "name": "",
          "type": "bytes32"
        }
      ],
      "stateMutability": "view",
      "type": "function"
    },
    {
      "inputs": [],
      "name": "termRepoLocker",
      "outputs": [
        {
          "internalType": "contract ITermRepoLocker",
          "name": "",
          "type": "address"
        }
      ],
      "stateMutability": "view",
      "type": "function"
    },
    {
      "inputs": [
        {
          "internalType": "address",
          "name": "borrower",
          "type": "address"
        },
        {
          "internalType": "uint256",
          "name": "rolloverProportion",
          "type": "uint256"
        },
        {
          "internalType": "address",
          "name": "rolloverTermRepoLocker",
          "type": "address"
        }
      ],
      "name": "transferRolloverCollateral",
      "outputs": [
        {
          "internalType": "address[]",
          "name": "",
          "type": "address[]"
        },
        {
          "internalType": "uint256[]",
          "name": "",
          "type": "uint256[]"
        }
      ],
      "stateMutability": "nonpayable",
      "type": "function"
    },
    {
      "inputs": [
        {
          "internalType": "address",
          "name": "borrower",
          "type": "address"
        }
      ],
      "name": "unlockCollateralOnRepurchase",
      "outputs": [],
      "stateMutability": "nonpayable",
      "type": "function"
    },
    {
      "inputs": [],
      "name": "unpauseLiquidations",
      "outputs": [],
      "stateMutability": "nonpayable",
      "type": "function"
    },
    {
      "inputs": [
        {
          "internalType": "address",
          "name": "upgradeAddress",
          "type": "address"
        }
      ],
      "name": "upgrade",
      "outputs": [],
      "stateMutability": "nonpayable",
      "type": "function"
    },
    {
      "inputs": [
        {
          "internalType": "address",
          "name": "newImplementation",
          "type": "address"
        }
      ],
      "name": "upgradeTo",
      "outputs": [],
      "stateMutability": "nonpayable",
      "type": "function"
    },
    {
      "inputs": [
        {
          "internalType": "address",
          "name": "newImplementation",
          "type": "address"
        },
        {
          "internalType": "bytes",
          "name": "data",
          "type": "bytes"
        }
      ],
      "name": "upgradeToAndCall",
      "outputs": [],
      "stateMutability": "payable",
      "type": "function"
    },
    {
      "inputs": [],
      "name": "version",
      "outputs": [
        {
          "internalType": "string",
          "name": "",
          "type": "string"
        }
      ],
      "stateMutability": "view",
      "type": "function"
    }
  ],
  "bytecode": "0x60a0604052306080523480156200001557600080fd5b506200002062000026565b620000e7565b600054610100900460ff1615620000935760405162461bcd60e51b815260206004820152602760248201527f496e697469616c697a61626c653a20636f6e747261637420697320696e697469604482015266616c697a696e6760c81b606482015260840160405180910390fd5b60005460ff90811614620000e5576000805460ff191660ff9081179091556040519081527f7f26b83ff96e1f2b6a682f133852f6798a09c465da95921460cefb38474024989060200160405180910390a15b565b6080516158fd6200011f6000396000818161132f0152818161136f015281816119f001528181611a300152611aa801526158fd6000f3fe6080604052600436106102b65760003560e01c806354fd4d501161017157806394a7cfe8116100d257806394a7cfe8146108b3578063a11d52f5146108d3578063a217fddf146108e8578063a95c4d62146108fd578063b7d5820b1461091e578063c066bc0e14610965578063c180ead11461097a578063c526c45c1461099a578063cc5b6e4a146109ba578063d547741f146109d0578063de7f872e146109f0578063e0623e1414610a10578063e1cdd05814610a30578063fd5d357a14610a46578063fe05281a14610a6657600080fd5b806354fd4d50146106c6578063559e4fad14610700578063578db957146107205780635c4b440e1461074057806367af01d0146107615780636a509f55146107905780636cfeeca1146107a557806375b238fc146107e157806378c2b2c614610803578063790cb4911461081957806382f049ab146108395780638f6d0f111461085957806391d14854146108735780639210632f1461089357600080fd5b80632a1e8cdb1161021b5780632a1e8cdb146104fc5780632b56d95e1461052a5780632f2ff15d1461054a57806336568abe1461056a5780633659cfe61461058a5780633718373f146105aa57806337843bc6146105cc57806337cb26f5146105ec5780633d0dda78146106025780634055008a1461063057806343551d0d1461065057806348717eb71461067e5780634f1ef2861461069e57806352d1902d146106b157600080fd5b806301ffc9a7146102bb57806302b65fb0146102f057806308c5e176146103205780630900f0101461035757806309a016081461037957806312a900691461039b57806316febdd3146103bb578063172c48c7146103db578063190e801214610408578063201a66251461043a57806320db25d51461045c5780632391281c1461048a578063248a9ca3146104aa57806327df3d3e146104da575b600080fd5b3480156102c757600080fd5b506102db6102d6366004614bb8565b610a88565b60405190151581526020015b60405180910390f35b3480156102fc57600080fd5b5061031260008051602061588883398151915281565b6040519081526020016102e7565b34801561032c57600080fd5b5061031261033b366004614c07565b6001600160a01b03166000908152610107602052604090205490565b34801561036357600080fd5b50610377610372366004614c07565b610abf565b005b34801561038557600080fd5b506103126000805160206157a183398151915281565b3480156103a757600080fd5b506103776103b6366004614c07565b610acb565b3480156103c757600080fd5b506103776103d6366004614c24565b610b67565b3480156103e757600080fd5b506103fb6103f6366004614ce0565b610f42565b6040516102e79190614cf9565b34801561041457600080fd5b5060fc546104289062010000900460ff1681565b60405160ff90911681526020016102e7565b34801561044657600080fd5b506103126000805160206157c183398151915281565b34801561046857600080fd5b50610312610477366004614c07565b6101086020526000908152604090205481565b34801561049657600080fd5b506103776104a5366004614d0d565b610f6d565b3480156104b657600080fd5b506103126104c5366004614ce0565b600090815260c9602052604090206001015490565b3480156104e657600080fd5b506103126000805160206157e183398151915281565b34801561050857600080fd5b50610312610517366004614c07565b6101096020526000908152604090205481565b34801561053657600080fd5b50610377610545366004614d4e565b610ff2565b34801561055657600080fd5b50610377610565366004614d7a565b611282565b34801561057657600080fd5b50610377610585366004614d7a565b6112a7565b34801561059657600080fd5b506103776105a5366004614c07565b611325565b3480156105b657600080fd5b5061031260008051602061586883398151915281565b3480156105d857600080fd5b506103776105e7366004614dee565b6113ea565b3480156105f857600080fd5b5061031260fd5481565b34801561060e57600080fd5b5061062261061d366004614e42565b611817565b6040516102e7929190614ebf565b34801561063c57600080fd5b5061037761064b366004614f15565b6118a5565b34801561065c57600080fd5b5061031261066b366004614c07565b61010a6020526000908152604090205481565b34801561068a57600080fd5b50610377610699366004614d0d565b611999565b6103776106ac366004614f73565b6119e6565b3480156106bd57600080fd5b50610312611a9b565b3480156106d257600080fd5b50604080518082018252600b81526a19195d995b1bdc1b595b9d60aa1b602082015290516102e7919061503e565b34801561070c57600080fd5b5061037761071b366004614dee565b611b49565b34801561072c57600080fd5b5061037761073b366004615071565b611d55565b34801561074c57600080fd5b50610103546103fb906001600160a01b031681565b34801561076d57600080fd5b5061078161077c366004614d4e565b611f4a565b604051905181526020016102e7565b34801561079c57600080fd5b50610377612085565b3480156107b157600080fd5b506103126107c0366004614d4e565b6001600160a01b039091166000908152610107602052604081209190915590565b3480156107ed57600080fd5b506103126000805160206158a883398151915281565b34801561080f57600080fd5b5061031260fe5481565b34801561082557600080fd5b50610377610834366004614d0d565b61210b565b34801561084557600080fd5b50610377610854366004614dee565b6121c6565b34801561086557600080fd5b5060fc546102db9060ff1681565b34801561087f57600080fd5b506102db61088e366004614d7a565b61249d565b34801561089f57600080fd5b506103776108ae366004614d0d565b6124c8565b3480156108bf57600080fd5b506102db6108ce366004614c07565b6124f1565b3480156108df57600080fd5b506102db61271f565b3480156108f457600080fd5b50610312600081565b34801561090957600080fd5b50610101546103fb906001600160a01b031681565b34801561092a57600080fd5b506103126109393660046150f3565b6001600160a01b03918216600090815261010b6020908152604080832093909416825291909152205490565b34801561097157600080fd5b50610377612794565b34801561098657600080fd5b50610312610995366004614c07565b6127ef565b3480156109a657600080fd5b506103776109b5366004614d4e565b612811565b3480156109c657600080fd5b5061031260fb5481565b3480156109dc57600080fd5b506103776109eb366004614d7a565b612965565b3480156109fc57600080fd5b50610622610a0b366004614c07565b61298a565b348015610a1c57600080fd5b50610377610a2b366004615165565b612af1565b348015610a3c57600080fd5b5061031260ff5481565b348015610a5257600080fd5b50610377610a61366004614c07565b612f95565b348015610a7257600080fd5b5061031260008051602061582183398151915281565b60006001600160e01b03198216637965db0b60e01b1480610ab957506301ffc9a760e01b6001600160e01b03198316145b92915050565b610ac881612fc5565b50565b6000805160206157a1833981519152610ae381613010565b60005b61010654811015610b625760006101068281548110610b0757610b0761524f565b60009182526020808320909101546001600160a01b03878116845261010b83526040808520919092168085529252909120549091508015610b4f57610b4f858383600161301a565b505080610b5b9061527b565b9050610ae6565b505050565b6000805160206157e1833981519152610b7f81613010565b60fc54610100900460ff1615610ba857604051634ce377bb60e11b815260040160405180910390fd5b60fc805461ff00191661010090811790915561010380546001600160a01b03808e166001600160a01b03199283161790925582548c8316908216179092556101028054888316908416179055610104805491891691909216179055610c1b60008051602061586883398151915289613172565b610c3360008051602061586883398151915288613172565b610c4b6000805160206158688339815191528a613172565b610c636000805160206157a18339815191528a613172565b610c7b60008051602061588883398151915285613172565b610c936000805160206157c183398151915284613172565b610cab6000805160206158a883398151915283613172565b610106546000906001600160401b03811115610cc957610cc9614f2d565b604051908082528060200260200182016040528015610cf2578160200160208202803683370190505b50610106549091506000906001600160401b03811115610d1457610d14614f2d565b604051908082528060200260200182016040528015610d3d578160200160208202803683370190505b50610106549091506000906001600160401b03811115610d5f57610d5f614f2d565b604051908082528060200260200182016040528015610d88578160200160208202803683370190505b50905060005b61010654811015610ec25761010860006101068381548110610db257610db261524f565b60009182526020808320909101546001600160a01b031683528201929092526040019020548451859083908110610deb57610deb61524f565b60200260200101818152505061010960006101068381548110610e1057610e1061524f565b60009182526020808320909101546001600160a01b031683528201929092526040019020548351849083908110610e4957610e4961524f565b60200260200101818152505061010a60006101068381548110610e6e57610e6e61524f565b60009182526020808320909101546001600160a01b031683528201929092526040019020548251839083908110610ea757610ea761524f565b6020908102919091010152610ebb8161527b565b9050610d8e565b506101055460fb546040516329b35d4760e21b81526001600160a01b039092169163a6cd751c91610f019130906101069088908a908990600401615294565b600060405180830381600087803b158015610f1b57600080fd5b505af1158015610f2f573d6000803e3d6000fd5b5050505050505050505050505050505050565b6101068181548110610f5357600080fd5b6000918252602090912001546001600160a01b0316905081565b600080516020615868833981519152610f8581613010565b6101035460405163049f2a5160e21b81526001600160a01b039091169063127ca94490610fba90879087908790600401615337565b600060405180830381600087803b158015610fd457600080fd5b505af1158015610fe8573d6000803e3d6000fd5b5050505050505050565b81610ffc816131f8565b6110245780604051634428dc3160e01b815260040161101b9190614cf9565b60405180910390fd5b3360008390036110655760405163dd23c3ad60e01b815260206004820152600b60248201526a16995c9bc8185b5bdd5b9d60aa1b604482015260640161101b565b6001600160a01b03808216600090815261010b6020908152604080832093881683529290529081205490036110ad576040516314605b7760e01b815260040160405180910390fd5b61010060009054906101000a90046001600160a01b03166001600160a01b0316631320834f6040518163ffffffff1660e01b8152600401602060405180830381865afa158015611101573d6000803e3d6000fd5b505050506040513d601f19601f82011682018060405250810190611125919061535b565b42101580156111aa575061010060009054906101000a90046001600160a01b03166001600160a01b0316631b2354376040518163ffffffff1660e01b8152600401602060405180830381865afa158015611183573d6000803e3d6000fd5b505050506040513d601f19601f820116820180604052508101906111a7919061535b565b42105b156111c857604051633f5a890f60e01b815260040160405180910390fd5b61010054604051632762697d60e01b81526000916001600160a01b031690632762697d906111fa908590600401614cf9565b602060405180830381865afa158015611217573d6000803e3d6000fd5b505050506040513d601f19601f8201168201806040525081019061123b919061535b565b15611244575060015b6112508286868461301a565b611259826124f1565b1561127b578185604051632263ff6560e11b815260040161101b929190615374565b5050505050565b600082815260c9602052604090206001015461129d81613010565b610b628383613172565b6001600160a01b03811633146113175760405162461bcd60e51b815260206004820152602f60248201527f416363657373436f6e74726f6c3a2063616e206f6e6c792072656e6f756e636560448201526e103937b632b9903337b91039b2b63360891b606482015260840161101b565b6113218282613228565b5050565b6001600160a01b037f000000000000000000000000000000000000000000000000000000000000000016300361136d5760405162461bcd60e51b815260040161101b9061538e565b7f00000000000000000000000000000000000000000000000000000000000000006001600160a01b031661139f61328f565b6001600160a01b0316146113c55760405162461bcd60e51b815260040161101b906153da565b6113ce81612fc5565b60408051600080825260208201909252610ac8918391906132ab565b60fc5460ff161561140e57604051637d8d0e2160e01b815260040160405180910390fd5b61010060009054906101000a90046001600160a01b03166001600160a01b0316631320834f6040518163ffffffff1660e01b8152600401602060405180830381865afa158015611462573d6000803e3d6000fd5b505050506040513d601f19601f82011682018060405250810190611486919061535b565b42116114a557604051633daab04760e21b815260040160405180910390fd5b6001600160a01b03831633036114ce5760405163ae957a1d60e01b815260040160405180910390fd5b6101065481146114f15760405163dd23c3ad60e01b815260040161101b90615426565b61010054604051632762697d60e01b815260009182916001600160a01b0390911690632762697d90611527908890600401614cf9565b602060405180830381865afa158015611544573d6000803e3d6000fd5b505050506040513d601f19601f82011682018060405250810190611568919061535b565b90508060000361158b5760405163baca79c960e01b815260040160405180910390fd5b60008060005b8581101561176a578686828181106115ab576115ab61524f565b905060200201356000031561175a576000198787838181106115cf576115cf61524f565b90506020020135036115f45760405163dd23c3ad60e01b815260040161101b90615483565b8686828181106116065761160661524f565b905060200201358561161891906154c4565b94508385111561163b57604051634fbeca4960e01b815260040160405180910390fd5b610100546001600160a01b031663ec9477e189338a8a868181106116615761166161524f565b905060200201356040518463ffffffff1660e01b815260040161168693929190615337565b600060405180830381600087803b1580156116a057600080fd5b505af11580156116b4573d6000803e3d6000fd5b505050506117028787838181106116cd576116cd61524f565b9050602002013561010683815481106116e8576116e861524f565b6000918252602090912001546001600160a01b0316613416565b809350819450505061175a883361010684815481106117235761172361524f565b6000918252602090912001546001600160a01b03168a8a8681811061174a5761174a61524f565b90506020020135878760016136d9565b6117638161527b565b9050611591565b508360000361178c57604051630cabf09b60e01b815260040160405180910390fd5b61010054604051632762697d60e01b81526001600160a01b0390911690632762697d906117bd908a90600401614cf9565b602060405180830381865afa1580156117da573d6000803e3d6000fd5b505050506040513d601f19601f820116820180604052508101906117fe919061535b565b60000361180e5761180e8761395e565b50505050505050565b60608060008051602061582183398151915261183281613010565b610106611840878787613a3f565b81546040805160208084028201810190925282815291849183018282801561189157602002820191906000526020600020905b81546001600160a01b03168152600190910190602001808311611873575b505050505091509250925050935093915050565b6000805160206157e18339815191526118bd81613010565b6118e46000805160206158688339815191526118df6040850160208601614c07565b613172565b6119036000805160206158688339815191526118df6020850185614c07565b6101055460fb546001600160a01b039091169063f3782f21903061192d6040870160208801614c07565b6040516001600160e01b031960e086901b16815260048101939093526001600160a01b0391821660248401521660448201526064015b600060405180830381600087803b15801561197d57600080fd5b505af1158015611991573d6000803e3d6000fd5b505050505050565b6000805160206158688339815191526119b181613010565b6101035460405163109c8cf960e11b81526001600160a01b039091169063213919f290610fba90879087908790600401615337565b6001600160a01b037f0000000000000000000000000000000000000000000000000000000000000000163003611a2e5760405162461bcd60e51b815260040161101b9061538e565b7f00000000000000000000000000000000000000000000000000000000000000006001600160a01b0316611a6061328f565b6001600160a01b031614611a865760405162461bcd60e51b815260040161101b906153da565b611a8f82612fc5565b611321828260016132ab565b6000306001600160a01b037f00000000000000000000000000000000000000000000000000000000000000001614611b365760405162461bcd60e51b815260206004820152603860248201527f555550535570677261646561626c653a206d757374206e6f742062652063616c6044820152771b1959081d1a1c9bdd59da0819195b1959d85d1958d85b1b60421b606482015260840161101b565b5060008051602061580183398151915290565b60fc5460ff1615611b6d57604051637d8d0e2160e01b815260040160405180910390fd5b6000611b7b84338585613e02565b90506000808060005b85811015611d0857868682818110611b9e57611b9e61524f565b9050602002013560000315611cf857600019878783818110611bc257611bc261524f565b9050602002013503611be75760405163dd23c3ad60e01b815260040161101b90615483565b868682818110611bf957611bf961524f565b9050602002013584611c0b91906154c4565b610100549094506001600160a01b031663ec9477e189338a8a86818110611c3457611c3461524f565b905060200201356040518463ffffffff1660e01b8152600401611c5993929190615337565b600060405180830381600087803b158015611c7357600080fd5b505af1158015611c87573d6000803e3d6000fd5b50505050611ca08787838181106116cd576116cd61524f565b8093508194505050611cf888336101068481548110611cc157611cc161524f565b6000918252602090912001546001600160a01b03168a8a86818110611ce857611ce861524f565b90506020020135878760006136d9565b611d018161527b565b9050611b84565b5082600003611d2a57604051630cabf09b60e01b815260040160405180910390fd5b8361178c57611d3887614045565b61178c576040516316a0371d60e11b815260040160405180910390fd5b6000805160206157a1833981519152611d6d81613010565b60005b8481101561180e57838382818110611d8a57611d8a61524f565b9050602002013561010b6000896001600160a01b03166001600160a01b031681526020019081526020016000206000888885818110611dcb57611dcb61524f565b9050602002016020810190611de09190614c07565b6001600160a01b03166001600160a01b031681526020019081526020016000206000828254611e0f91906154c4565b909155508490508382818110611e2757611e2761524f565b905060200201356101076000888885818110611e4557611e4561524f565b9050602002016020810190611e5a9190614c07565b6001600160a01b03166001600160a01b031681526020019081526020016000206000828254611e8991906154c4565b90915550506101055460fb546001600160a01b039091169063ee9e68bb9089898986818110611eba57611eba61524f565b9050602002016020810190611ecf9190614c07565b888887818110611ee157611ee161524f565b905060200201356040518563ffffffff1660e01b8152600401611f0794939291906154d7565b600060405180830381600087803b158015611f2157600080fd5b505af1158015611f35573d6000803e3d6000fd5b5050505080611f439061527b565b9050611d70565b60408051602081018252600081526101025491516303d3c9db60e21b8152909161207e91611fff916001600160a01b031690630f4f276c90611f9290889088906004016154fc565b602060405180830381865afa158015611faf573d6000803e3d6000fd5b505050506040513d601f19601f82011682018060405250810190611fd39190615515565b60408051602080820183526001600160a01b0389166000908152610109909152919091205481526142cb565b61010254610101546040516303d3c9db60e21b81526001600160a01b0392831692630f4f276c92612038929116906001906004016154fc565b602060405180830381865afa158015612055573d6000803e3d6000fd5b505050506040513d601f19601f820116820180604052508101906120799190615515565b6142cb565b9392505050565b6000805160206158a883398151915261209d81613010565b60fc805460ff191690556101055460fb546040516302ddfefd60e51b81526001600160a01b0390921691635bbfdfa0916120dd9160040190815260200190565b600060405180830381600087803b1580156120f757600080fd5b505af115801561127b573d6000803e3d6000fd5b60008051602061586883398151915261212381613010565b6001600160a01b03808516600090815261010b602090815260408083209387168352929052908120805484929061215b9084906154c4565b90915550506001600160a01b03831660009081526101076020526040812080548492906121899084906154c4565b90915550506101055460fb5460405163ee9e68bb60e01b81526001600160a01b039092169163ee9e68bb91610fba918890889088906004016154d7565b60fc5460ff16156121ea57604051637d8d0e2160e01b815260040160405180910390fd5b60006121f884338585613e02565b90506000808080805b868110156123ce5787878281811061221b5761221b61524f565b90506020020135600003156123be5760001988888381811061223f5761223f61524f565b90506020020135036122a75760405163dd23c3ad60e01b815260206004820152602a60248201527f636c6f737572655265706f546f6b656e416d6f756e74732063616e6e6f7420626044820152690ca40ead2dce840dac2f60b31b606482015260840161101b565b8787828181106122b9576122b961524f565b90506020020135856122cb91906154c4565b610100549095506001600160a01b03166309aa80fc8a338b8b868181106122f4576122f461524f565b905060200201356040518463ffffffff1660e01b815260040161231993929190615337565b6020604051808303816000875af1158015612338573d6000803e3d6000fd5b505050506040513d601f19601f8201168201806040525081019061235c919061535b565b93506123768461010683815481106116e8576116e861524f565b80935081945050506123be893361010684815481106123975761239761524f565b6000918252602090912001546001600160a01b03168b8b86818110611ce857611ce861524f565b6123c78161527b565b9050612201565b50836000036123f057604051630cabf09b60e01b815260040160405180910390fd5b8461241b576123fe88614045565b61241b576040516316a0371d60e11b815260040160405180910390fd5b61010054604051632762697d60e01b81526001600160a01b0390911690632762697d9061244c908b90600401614cf9565b602060405180830381865afa158015612469573d6000803e3d6000fd5b505050506040513d601f19601f8201168201806040525081019061248d919061535b565b600003610fe857610fe88861395e565b600091825260c9602090815260408084206001600160a01b0393909316845291905290205460ff1690565b6000805160206157a18339815191526124e081613010565b6124eb84848461430e565b50505050565b610102546101015461010054604051632762697d60e01b815260009384936001600160a01b0391821693630f4f276c93918316921690632762697d9061253b908990600401614cf9565b602060405180830381865afa158015612558573d6000803e3d6000fd5b505050506040513d601f19601f8201168201806040525081019061257c919061535b565b6040518363ffffffff1660e01b81526004016125999291906154fc565b602060405180830381865afa1580156125b6573d6000803e3d6000fd5b505050506040513d601f19601f820116820180604052508101906125da9190615515565b60408051602081019091526000808252919250905b6101065481101561270057600061010682815481106126105761261061524f565b6000918252602080832090910154610102546001600160a01b038a8116855261010b84526040808620938216808752939094528385205493516303d3c9db60e21b81529295506126df93911691630f4f276c91612672918791906004016154fc565b602060405180830381865afa15801561268f573d6000803e3d6000fd5b505050506040513d601f19601f820116820180604052508101906126b39190615515565b60408051602080820183526001600160a01b0387166000908152610108909152919091205481526142cb565b90506126eb8185614446565b93505050806126f99061527b565b90506125ef565b50815181511015612715575060019392505050565b5060009392505050565b6000805b6101065481101561278c576000610107600061010684815481106127495761274961524f565b60009182526020808320909101546001600160a01b03168352820192909252604001902054111561277c57600191505090565b6127858161527b565b9050612723565b506000905090565b6000805160206158a88339815191526127ac81613010565b60fc805460ff191660011790556101055460fb5460405163c8df617960e01b81526001600160a01b039092169163c8df6179916120dd9160040190815260200190565b6001600160a01b038116600090815261010b60205260408120610ab990614472565b8161281b816131f8565b61283a5780604051634428dc3160e01b815260040161101b9190614cf9565b6101005460408051631320834f60e01b8152905133926001600160a01b031691631320834f9160048083019260209291908290030181865afa158015612884573d6000803e3d6000fd5b505050506040513d601f19601f820116820180604052508101906128a8919061535b565b4211156128c85760405163c5e2992f60e01b815260040160405180910390fd5b61010054604051632762697d60e01b81526001600160a01b0390911690632762697d906128f9908490600401614cf9565b602060405180830381865afa158015612916573d6000803e3d6000fd5b505050506040513d601f19601f8201168201806040525081019061293a919061535b565b60000361295a5760405163baca79c960e01b815260040160405180910390fd5b6124eb81858561430e565b600082815260c9602052604090206001015461298081613010565b610b628383613228565b6060806000610106805490506001600160401b038111156129ad576129ad614f2d565b6040519080825280602002602001820160405280156129d6578160200160208202803683370190505b50610106549091506000906001600160401b038111156129f8576129f8614f2d565b604051908082528060200260200182016040528015612a21578160200160208202803683370190505b50905060005b61010654811015612ae65760006101068281548110612a4857612a4861524f565b60009182526020808320909101546001600160a01b038a8116845261010b83526040808520919092168085529252909120548551919250908290869085908110612a9457612a9461524f565b60200260200101906001600160a01b031690816001600160a01b03168152505080848481518110612ac757612ac761524f565b602002602001018181525050505080612adf9061527b565b9050612a27565b509094909350915050565b600054610100900460ff1615808015612b115750600054600160ff909116105b80612b325750612b20306145a0565b158015612b32575060005460ff166001145b612b955760405162461bcd60e51b815260206004820152602e60248201527f496e697469616c697a61626c653a20636f6e747261637420697320616c72656160448201526d191e481a5b9a5d1a585b1a5e995960921b606482015260840161101b565b6000805460ff191660011790558015612bb8576000805461ff0019166101001790555b612bc06145af565b612bc86145af565b8a8a604051602001612bdb929190615556565b60408051601f19818403018152919052805160209091012060fb5560fc805460ff1916905560fe89905560ff88905560fd8790556001600160a01b038616612c635760405162461bcd60e51b815260206004820152601b60248201527a2d32b9379030b2323932b9b990383ab931b430b9b2903a37b5b2b760291b604482015260640161101b565b61010180546001600160a01b0319166001600160a01b03881617905560fc805462ff000019166201000060ff871602179055836001600160401b03811115612cad57612cad614f2d565b604051908082528060200260200182016040528015612cd6578160200160208202803683370190505b508051612cec9161010691602090910190614b3e565b5060005b84811015612f0d57858582818110612d0a57612d0a61524f565b612d209260206080909202019081019150614c07565b6101068281548110612d3457612d3461524f565b9060005260206000200160006101000a8154816001600160a01b0302191690836001600160a01b03160217905550858582818110612d7457612d7461524f565b905060800201604001356101086000888885818110612d9557612d9561524f565b612dab9260206080909202019081019150614c07565b6001600160a01b03168152602081019190915260400160002055858582818110612dd757612dd761524f565b905060800201602001356101096000888885818110612df857612df861524f565b612e0e9260206080909202019081019150614c07565b6001600160a01b03168152602081019190915260400160002055858582818110612e3a57612e3a61524f565b90506080020160600135600003612e8f5760405162461bcd60e51b81526020600482015260196024820152784c6971756964617465642064616d616765206973207a65726f60381b604482015260640161101b565b858582818110612ea157612ea161524f565b9050608002016060013561010a6000888885818110612ec257612ec261524f565b612ed89260206080909202019081019150614c07565b6001600160a01b0316815260208101919091526040016000205560fc805461ff0019169055612f068161527b565b9050612cf0565b5061010580546001600160a01b0319166001600160a01b038516179055612f426000805160206157e183398151915283613172565b8015612f88576000805461ff0019169055604051600181527f7f26b83ff96e1f2b6a682f133852f6798a09c465da95921460cefb38474024989060200160405180910390a15b5050505050505050505050565b600080516020615888833981519152612fad81613010565b61132160008051602061582183398151915283613172565b6000805160206157c1833981519152612fdd81613010565b6101055460405163b3c2d50b60e01b81526001600160a01b039091169063b3c2d50b906119639030908690600401615374565b610ac8813361461c565b6001600160a01b03808516600090815261010b60209081526040808320938716835292905220548211156130615760405163380984fd60e21b815260040160405180910390fd5b6001600160a01b03808516600090815261010b6020908152604080832093871683529290529081208054849290613099908490615566565b909155505080156130d3576001600160a01b03831660009081526101076020526040812080548492906130cd908490615566565b90915550505b6101035460405163109c8cf960e11b81526001600160a01b039091169063213919f29061310890879087908790600401615337565b600060405180830381600087803b15801561312257600080fd5b505af1158015613136573d6000803e3d6000fd5b50506101055460fb54604051633b8d409b60e01b81526001600160a01b039092169350633b8d409b9250610fba918890889088906004016154d7565b61317c828261249d565b61132157600082815260c9602090815260408083206001600160a01b03851684529091529020805460ff191660011790556131b43390565b6001600160a01b0316816001600160a01b0316837f2f8788117e7eff1d82e926ec794901d17c78024a50270940304540a733656f0d60405160405180910390a45050565b6001600160a01b038116600090815261010a6020526040812054810361322057506000919050565b506001919050565b613232828261249d565b1561132157600082815260c9602090815260408083206001600160a01b0385168085529252808320805460ff1916905551339285917ff6391f5c32d9c69d2a47ea670b442974b53935d1edc7fd64eb21e047a839171b9190a45050565b600080516020615801833981519152546001600160a01b031690565b7f4910fdfa16fed3260ed0e7147f7cc6da11a60208b5b9406d12a635614ffd91435460ff16156132de57610b6283614675565b826001600160a01b03166352d1902d6040518163ffffffff1660e01b8152600401602060405180830381865afa925050508015613338575060408051601f3d908101601f191682019092526133359181019061535b565b60015b61339b5760405162461bcd60e51b815260206004820152602e60248201527f45524331393637557067726164653a206e657720696d706c656d656e7461746960448201526d6f6e206973206e6f74205555505360901b606482015260840161101b565b600080516020615801833981519152811461340a5760405162461bcd60e51b815260206004820152602960248201527f45524331393637557067726164653a20756e737570706f727465642070726f786044820152681a58589b195555525160ba1b606482015260840161101b565b50610b6283838361470f565b61010254610101546040516303d3c9db60e21b81526000928392859284926001600160a01b0390811692630f4f276c9261345892909116908a906004016154fc565b602060405180830381865afa158015613475573d6000803e3d6000fd5b505050506040513d601f19601f820116820180604052508101906134999190615515565b905060006135518261010260009054906101000a90046001600160a01b03166001600160a01b0316630f4f276c89876001600160a01b031663313ce5676040518163ffffffff1660e01b8152600401602060405180830381865afa158015613505573d6000803e3d6000fd5b505050506040513d601f19601f820116820180604052508101906135299190615579565b61353490600a615680565b6040518363ffffffff1660e01b81526004016120389291906154fc565b6040805160208082018352670de0b6b3a76400008252825180820184526001600160a01b038b16600090815261010a9092529281205483529293506135a091849161359b91614446565b614734565b905060006135be83604051806020016040528060fe54815250614734565b9050846001600160a01b031663313ce5676040518163ffffffff1660e01b8152600401602060405180830381865afa1580156135fe573d6000803e3d6000fd5b505050506040513d601f19601f820116820180604052508101906136229190615579565b61362d90601261568f565b61363890600a615680565b825161364491906156a8565b856001600160a01b031663313ce5676040518163ffffffff1660e01b8152600401602060405180830381865afa158015613682573d6000803e3d6000fd5b505050506040513d601f19601f820116820180604052508101906136a69190615579565b6136b190601261568f565b6136bc90600a615680565b82516136c891906156a8565b9650965050505050505b9250929050565b6001600160a01b03808816600090815261010b602090815260408083209389168352929052205483111561372257846040516398de333560e01b815260040161101b9190614cf9565b6001600160a01b03808816600090815261010b602090815260408083209389168352929052908120805485929061375a908490615566565b90915550506001600160a01b0385166000908152610107602052604081208054859290613788908490615566565b909155505061010354610104546040805163012f8d2f60e11b815290516001600160a01b039384169363213919f293169163025f1a5e9160048083019260209291908290030181865afa1580156137e3573d6000803e3d6000fd5b505050506040513d601f19601f8201168201806040525081019061380791906156ca565b87856040518463ffffffff1660e01b815260040161382793929190615337565b600060405180830381600087803b15801561384157600080fd5b505af1158015613855573d6000803e3d6000fd5b5050610103546001600160a01b0316915063213919f2905087876138798688615566565b6040518463ffffffff1660e01b815260040161389793929190615337565b600060405180830381600087803b1580156138b157600080fd5b505af11580156138c5573d6000803e3d6000fd5b50506101055460fb54604051639cc487d760e01b815260048101919091526001600160a01b038b811660248301528a8116604483015260648201899052898116608483015260a4820188905260c4820187905285151560e48301529091169250639cc487d7915061010401600060405180830381600087803b15801561394a57600080fd5b505af1158015612f88573d6000803e3d6000fd5b60005b61010654811015611321576001600160a01b038216600090815261010b6020526040812061010680549192918490811061399d5761399d61524f565b9060005260206000200160009054906101000a90046001600160a01b03166001600160a01b03166001600160a01b0316815260200190815260200160002054610107600061010684815481106139f5576139f561524f565b60009182526020808320909101546001600160a01b0316835282019290925260400181208054909190613a29908490615566565b90915550613a3890508161527b565b9050613961565b610106546060906000906001600160401b03811115613a6057613a60614f2d565b604051908082528060200260200182016040528015613a89578160200160208202803683370190505b50905060005b61010654811015613df95760006101068281548110613ab057613ab061524f565b60009182526020808320909101546001600160a01b038a8116845261010b83526040808520919092168085529252909120549091508015613de657670de0b6b3a76400008703613c5b576001600160a01b03888116600090815261010b602090815260408083209386168352929052908120805491905584518190869086908110613b3d57613b3d61524f565b602002602001018181525050806101076000856001600160a01b03166001600160a01b031681526020019081526020016000206000828254613b7f9190615566565b90915550506101035460405163109c8cf960e11b81526001600160a01b039091169063213919f290613bb9908a9087908690600401615337565b600060405180830381600087803b158015613bd357600080fd5b505af1158015613be7573d6000803e3d6000fd5b50506101055460fb54604051633b8d409b60e01b81526001600160a01b039092169350633b8d409b9250613c23918d90889087906004016154d7565b600060405180830381600087803b158015613c3d57600080fd5b505af1158015613c51573d6000803e3d6000fd5b5050505050613de6565b6000613c7560405180602001604052808a81525083614773565b6001600160a01b03808b16600090815261010b60209081526040808320938816835292905290812080549293508392909190613cb2908490615566565b9250508190555080858581518110613ccc57613ccc61524f565b602002602001018181525050806101076000856001600160a01b03166001600160a01b031681526020019081526020016000206000828254613d0e9190615566565b90915550506101035460405163109c8cf960e11b81526001600160a01b039091169063213919f290613d48908a9087908690600401615337565b600060405180830381600087803b158015613d6257600080fd5b505af1158015613d76573d6000803e3d6000fd5b50506101055460fb54604051633b8d409b60e01b81526001600160a01b039092169350633b8d409b9250613db2918d90889087906004016154d7565b600060405180830381600087803b158015613dcc57600080fd5b505af1158015613de0573d6000803e3d6000fd5b50505050505b505080613df29061527b565b9050613a8f565b50949350505050565b6101005460408051631320834f60e01b815290516000926001600160a01b031691631320834f9160048083019260209291908290030181865afa158015613e4d573d6000803e3d6000fd5b505050506040513d601f19601f82011682018060405250810190613e71919061535b565b421115613e91576040516321f8431560e01b815260040160405180910390fd5b846001600160a01b0316846001600160a01b031603613ec35760405163ae957a1d60e01b815260040160405180910390fd5b610106548214613ee65760405163dd23c3ad60e01b815260040161101b90615426565b61010054604051632762697d60e01b81526000916001600160a01b031690632762697d90613f18908990600401614cf9565b602060405180830381865afa158015613f35573d6000803e3d6000fd5b505050506040513d601f19601f82011682018060405250810190613f59919061535b565b905080600003613f7c5760405163baca79c960e01b815260040160405180910390fd5b613f85866124f1565b613fa25760405163e94a979360e01b815260040160405180910390fd5b60fd5461010254610101546040516303d3c9db60e21b8152600093926001600160a01b0390811692630f4f276c92613fe2929091169087906004016154fc565b602060405180830381865afa158015613fff573d6000803e3d6000fd5b505050506040513d601f19601f820116820180604052508101906140239190615515565b5161402e91906154c4565b614037886127ef565b10925050505b949350505050565b61010054604051632762697d60e01b815260009182916001600160a01b0390911690632762697d9061407b908690600401614cf9565b602060405180830381865afa158015614098573d6000803e3d6000fd5b505050506040513d601f19601f820116820180604052508101906140bc919061535b565b9050806000036140cf5750600092915050565b604080516020810190915260008082525b610106548110156141f157600061010682815481106141015761410161524f565b6000918252602080832090910154610102546001600160a01b038a8116855261010b84526040808620938216808752939094528385205493516303d3c9db60e21b81529295506141d093911691630f4f276c91614163918791906004016154fc565b602060405180830381865afa158015614180573d6000803e3d6000fd5b505050506040513d601f19601f820116820180604052508101906141a49190615515565b60408051602080820183526001600160a01b0387166000908152610109909152919091205481526142cb565b90506141dc8185614446565b93505050806141ea9061527b565b90506140e0565b5061010254610101546040516303d3c9db60e21b81526000926001600160a01b0390811692630f4f276c9261422e929091169087906004016154fc565b602060405180830381865afa15801561424b573d6000803e3d6000fd5b505050506040513d601f19601f8201168201806040525081019061426f9190615515565b905061427d82825190511090565b1561428d57506001949350505050565b6000614299838361478b565b90506142c16142a882846142cb565b604051806020016040528060ff54815250519051111590565b9695505050505050565b60408051602081019091526000815260405180602001604052806143056142fe8660000151670de0b6b3a76400006147b7565b85516147c3565b90529392505050565b6001600160a01b03808416600090815261010b60209081526040808320938616835292905290812080548392906143469084906154c4565b90915550506001600160a01b03821660009081526101076020526040812080548392906143749084906154c4565b90915550506101035460405163049f2a5160e21b81526001600160a01b039091169063127ca944906143ae90869086908690600401615337565b600060405180830381600087803b1580156143c857600080fd5b505af11580156143dc573d6000803e3d6000fd5b50506101055460fb5460405163ee9e68bb60e01b81526001600160a01b03909216935063ee9e68bb9250614418918790879087906004016154d7565b600060405180830381600087803b15801561443257600080fd5b505af115801561180e573d6000803e3d6000fd5b6040805160208101909152600081526040518060200160405280614305856000015185600001516147cf565b6040805160208101909152600080825290815b61010654811015614598576101025461010680546145869285926001600160a01b0390911691630f4f276c9190869081106144c2576144c261524f565b9060005260206000200160009054906101000a90046001600160a01b031688600061010688815481106144f7576144f761524f565b60009182526020808320909101546001600160a01b0316835282019290925260409081019091205490516001600160e01b031960e085901b1681526145409291906004016154fc565b602060405180830381865afa15801561455d573d6000803e3d6000fd5b505050506040513d601f19601f820116820180604052508101906145819190615515565b614446565b91506145918161527b565b9050614485565b505192915050565b6001600160a01b03163b151590565b600054610100900460ff1661461a5760405162461bcd60e51b815260206004820152602b60248201527f496e697469616c697a61626c653a20636f6e7472616374206973206e6f74206960448201526a6e697469616c697a696e6760a81b606482015260840161101b565b565b614626828261249d565b61132157614633816147db565b61463e8360206147ed565b60405160200161464f9291906156e7565b60408051601f198184030181529082905262461bcd60e51b825261101b9160040161503e565b61467e816145a0565b6146e05760405162461bcd60e51b815260206004820152602d60248201527f455243313936373a206e657720696d706c656d656e746174696f6e206973206e60448201526c1bdd08184818dbdb9d1c9858dd609a1b606482015260840161101b565b60008051602061580183398151915280546001600160a01b0319166001600160a01b0392909216919091179055565b61471883614988565b6000825111806147255750805b15610b62576124eb83836149c8565b6040805160208101909152600081526040518060200160405280670de0b6b3a7640000614769866000015186600001516147b7565b61430591906156a8565b60008061478084846149ed565b905061403d81614a15565b604080516020810190915260008152604051806020016040528061430585600001518560000151614a2d565b600061207e8284615756565b600061207e82846156a8565b600061207e82846154c4565b6060610ab96001600160a01b03831660145b606060006147fc836002615756565b6148079060026154c4565b6001600160401b0381111561481e5761481e614f2d565b6040519080825280601f01601f191660200182016040528015614848576020820181803683370190505b509050600360fc1b816000815181106148635761486361524f565b60200101906001600160f81b031916908160001a905350600f60fb1b816001815181106148925761489261524f565b60200101906001600160f81b031916908160001a90535060006148b6846002615756565b6148c19060016154c4565b90505b6001811115614939576f181899199a1a9b1b9c1cb0b131b232b360811b85600f16601081106148f5576148f561524f565b1a60f81b82828151811061490b5761490b61524f565b60200101906001600160f81b031916908160001a90535060049490941c936149328161576d565b90506148c4565b50831561207e5760405162461bcd60e51b815260206004820181905260248201527f537472696e67733a20686578206c656e67746820696e73756666696369656e74604482015260640161101b565b61499181614675565b6040516001600160a01b038216907fbc7cd75a20ee27fd9adebab32041f755214dbc6bffa90cc0225b39da2e5c2d3b90600090a250565b606061207e838360405180606001604052806027815260200161584160279139614a39565b60408051602081019091526000815260405180602001604052806143058560000151856147b7565b8051600090610ab990670de0b6b3a7640000906156a8565b600061207e8284615566565b6060600080856001600160a01b031685604051614a569190615784565b600060405180830381855af49150503d8060008114614a91576040519150601f19603f3d011682016040523d82523d6000602084013e614a96565b606091505b50915091506142c18683838760608315614b0f578251600003614b0857614abc856145a0565b614b085760405162461bcd60e51b815260206004820152601d60248201527f416464726573733a2063616c6c20746f206e6f6e2d636f6e7472616374000000604482015260640161101b565b508161403d565b61403d8383815115614b245781518083602001fd5b8060405162461bcd60e51b815260040161101b919061503e565b828054828255906000526020600020908101928215614b93579160200282015b82811115614b9357825182546001600160a01b0319166001600160a01b03909116178255602090920191600190910190614b5e565b50614b9f929150614ba3565b5090565b5b80821115614b9f5760008155600101614ba4565b600060208284031215614bca57600080fd5b81356001600160e01b03198116811461207e57600080fd5b6001600160a01b0381168114610ac857600080fd5b8035614c0281614be2565b919050565b600060208284031215614c1957600080fd5b813561207e81614be2565b60008060008060008060008060006101208a8c031215614c4357600080fd5b8935614c4e81614be2565b985060208a0135614c5e81614be2565b975060408a0135614c6e81614be2565b965060608a0135614c7e81614be2565b955060808a0135614c8e81614be2565b945060a08a0135614c9e81614be2565b935060c08a0135614cae81614be2565b925060e08a0135614cbe81614be2565b91506101008a0135614ccf81614be2565b809150509295985092959850929598565b600060208284031215614cf257600080fd5b5035919050565b6001600160a01b0391909116815260200190565b600080600060608486031215614d2257600080fd5b8335614d2d81614be2565b92506020840135614d3d81614be2565b929592945050506040919091013590565b60008060408385031215614d6157600080fd5b8235614d6c81614be2565b946020939093013593505050565b60008060408385031215614d8d57600080fd5b823591506020830135614d9f81614be2565b809150509250929050565b60008083601f840112614dbc57600080fd5b5081356001600160401b03811115614dd357600080fd5b6020830191508360208260051b85010111156136d257600080fd5b600080600060408486031215614e0357600080fd5b8335614e0e81614be2565b925060208401356001600160401b03811115614e2957600080fd5b614e3586828701614daa565b9497909650939450505050565b600080600060608486031215614e5757600080fd5b8335614e6281614be2565b9250602084013591506040840135614e7981614be2565b809150509250925092565b600081518084526020808501945080840160005b83811015614eb457815187529582019590820190600101614e98565b509495945050505050565b604080825283519082018190526000906020906060840190828701845b82811015614f015781516001600160a01b031684529284019290840190600101614edc565b505050838103828501526142c18186614e84565b600060608284031215614f2757600080fd5b50919050565b634e487b7160e01b600052604160045260246000fd5b604051601f8201601f191681016001600160401b0381118282101715614f6b57614f6b614f2d565b604052919050565b60008060408385031215614f8657600080fd5b8235614f9181614be2565b91506020838101356001600160401b0380821115614fae57600080fd5b818601915086601f830112614fc257600080fd5b813581811115614fd457614fd4614f2d565b614fe6601f8201601f19168501614f43565b91508082528784828501011115614ffc57600080fd5b80848401858401376000848284010152508093505050509250929050565b60005b8381101561503557818101518382015260200161501d565b50506000910152565b602081526000825180602084015261505d81604085016020870161501a565b601f01601f19169190910160400192915050565b60008060008060006060868803121561508957600080fd5b853561509481614be2565b945060208601356001600160401b03808211156150b057600080fd5b6150bc89838a01614daa565b909650945060408801359150808211156150d557600080fd5b506150e288828901614daa565b969995985093965092949392505050565b6000806040838503121561510657600080fd5b823561511181614be2565b91506020830135614d9f81614be2565b60008083601f84011261513357600080fd5b5081356001600160401b0381111561514a57600080fd5b6020830191508360208260071b85010111156136d257600080fd5b6000806000806000806000806000806101008b8d03121561518557600080fd5b8a356001600160401b038082111561519c57600080fd5b818d0191508d601f8301126151b057600080fd5b8135818111156151bf57600080fd5b8e60208285010111156151d157600080fd5b60208381019d50909b508d0135995060408d0135985060608d013597506151fa60808e01614bf7565b965060a08d013591508082111561521057600080fd5b5061521d8d828e01615121565b9095509350615230905060c08c01614bf7565b915061523e60e08c01614bf7565b90509295989b9194979a5092959850565b634e487b7160e01b600052603260045260246000fd5b634e487b7160e01b600052601160045260246000fd5b60006001820161528d5761528d615265565b5060010190565b600060c08201888352602060018060a01b03808a168286015260c0604086015282895480855260e0870191508a60005283600020945060005b818110156152eb5785548416835260019586019592850192016152cd565b505085810360608701526152ff818a614e84565b935050505082810360808401526153168186614e84565b905082810360a084015261532a8185614e84565b9998505050505050505050565b6001600160a01b039384168152919092166020820152604081019190915260600190565b60006020828403121561536d57600080fd5b5051919050565b6001600160a01b0392831681529116602082015260400190565b6020808252602c908201527f46756e6374696f6e206d7573742062652063616c6c6564207468726f7567682060408201526b19195b1959d85d1958d85b1b60a21b606082015260800190565b6020808252602c908201527f46756e6374696f6e206d7573742062652063616c6c6564207468726f7567682060408201526b6163746976652070726f787960a01b606082015260800190565b6020808252603f908201527f436c6f7375726520616d6f756e7473206172726179206e6f742073616d65206c60408201527f656e67746820617320636f6c6c61746572616c20746f6b656e73206c69737400606082015260800190565b60208082526021908201527f636c6f73757265416d6f756e74732063616e6e6f742062652075696e74206d616040820152600f60fb1b606082015260800190565b80820180821115610ab957610ab9615265565b9384526001600160a01b03928316602085015291166040830152606082015260800190565b6001600160a01b03929092168252602082015260400190565b60006020828403121561552757600080fd5b604051602081018181106001600160401b038211171561554957615549614f2d565b6040529151825250919050565b8183823760009101908152919050565b81810381811115610ab957610ab9615265565b60006020828403121561558b57600080fd5b815160ff8116811461207e57600080fd5b600181815b808511156155d75781600019048211156155bd576155bd615265565b808516156155ca57918102915b93841c93908002906155a1565b509250929050565b6000826155ee57506001610ab9565b816155fb57506000610ab9565b8160018114615611576002811461561b57615637565b6001915050610ab9565b60ff84111561562c5761562c615265565b50506001821b610ab9565b5060208310610133831016604e8410600b841016171561565a575081810a610ab9565b615664838361559c565b806000190482111561567857615678615265565b029392505050565b600061207e60ff8416836155df565b60ff8281168282160390811115610ab957610ab9615265565b6000826156c557634e487b7160e01b600052601260045260246000fd5b500490565b6000602082840312156156dc57600080fd5b815161207e81614be2565b76020b1b1b2b9b9a1b7b73a3937b61d1030b1b1b7bab73a1604d1b81526000835161571981601785016020880161501a565b7001034b99036b4b9b9b4b733903937b6329607d1b601791840191820152835161574a81602884016020880161501a565b01602801949350505050565b8082028115828204841417610ab957610ab9615265565b60008161577c5761577c615265565b506000190190565b6000825161579681846020870161501a565b919091019291505056fe250b76734a070a69c7b3930477dd35007ad9c9d0952e97903fdafb2db6980537793a6c9b7e0a9549c74edc2f9ae0dc50903dfaa9a56fb0116b27a8c71de3e2c630d41a597cac127d8249d31298b50e481ee82c3f4a49ff93c76a22735aa9f3ad360894a13ba1a3210667c828492db98dca3e2076cc3735a920a3ca505d382bbcf4b6b486426e3c004413defb7013cd482f29189a98e074f1c202b2ac26536bb2416464726573733a206c6f772d6c6576656c2064656c65676174652063616c6c206661696c65646e14a979b95b01beecd617807f3738f4e067938da99755b16afdcf7148d313b76e3cc031d23d7153f72e87cbfd113a0351c60d8ce52b8a31c944d543a384b7c9a49807205ce4d355092ef5a8a18f56e8913cf4a201fbe287825b095693c21775a26469706673582212207159413bd0f1cc31936c39bfeb048a2b48601db9843ce5d0c5d7867ee5b06d8e64736f6c63430008120033",
  "linkReferences": {},
  "deployedLinkReferences": {}
}