{
  "_format": "hh-sol-artifact-1",
  "contractName": "TermControllerFacet",
  "sourceName": "contracts/facets/TermControllerFacet.sol",
  "abi": [
    {
      "inputs": [],
      "name": "AccessControlBadConfirmation",
      "type": "error"
    },
    {
      "inputs": [
        {
          "internalType": "address",
          "name": "account",
          "type": "address"
        },
        {
          "internalType": "bytes32",
          "name": "neededRole",
          "type": "bytes32"
        }
      ],
      "name": "AccessControlUnauthorizedAccount",
      "type": "error"
    },
    {
      "inputs": [],
      "name": "FeeRecipientAlreadyApproved",
      "type": "error"
    },
    {
      "inputs": [],
      "name": "InvalidFacetAddress",
      "type": "error"
    },
    {
      "inputs": [],
      "name": "InvalidFeeRecipient",
      "type": "error"
    },
    {
      "inputs": [],
      "name": "InvalidTermController",
      "type": "error"
    },
    {
      "inputs": [],
      "name": "TermControllerAlreadyApproved",
      "type": "error"
    },
    {
      "anonymous": false,
      "inputs": [
        {
          "indexed": true,
          "internalType": "bytes32",
          "name": "role",
          "type": "bytes32"
        },
        {
          "indexed": true,
          "internalType": "bytes32",
          "name": "previousAdminRole",
          "type": "bytes32"
        },
        {
          "indexed": true,
          "internalType": "bytes32",
          "name": "newAdminRole",
          "type": "bytes32"
        }
      ],
      "name": "RoleAdminChanged",
      "type": "event"
    },
    {
      "anonymous": false,
      "inputs": [
        {
          "indexed": true,
          "internalType": "bytes32",
          "name": "role",
          "type": "bytes32"
        },
        {
          "indexed": true,
          "internalType": "address",
          "name": "account",
          "type": "address"
        },
        {
          "indexed": true,
          "internalType": "address",
          "name": "sender",
          "type": "address"
        }
      ],
      "name": "RoleGranted",
      "type": "event"
    },
    {
      "anonymous": false,
      "inputs": [
        {
          "indexed": true,
          "internalType": "bytes32",
          "name": "role",
          "type": "bytes32"
        },
        {
          "indexed": true,
          "internalType": "address",
          "name": "account",
          "type": "address"
        },
        {
          "indexed": true,
          "internalType": "address",
          "name": "sender",
          "type": "address"
        }
      ],
      "name": "RoleRevoked",
      "type": "event"
    },
    {
      "inputs": [],
      "name": "DEFAULT_ADMIN_ROLE",
      "outputs": [
        {
          "internalType": "bytes32",
          "name": "",
          "type": "bytes32"
        }
      ],
      "stateMutability": "view",
      "type": "function"
    },
    {
      "inputs": [
        {
          "internalType": "address",
          "name": "feeRecipient",
          "type": "address"
        }
      ],
      "name": "approveFeeRecipient",
      "outputs": [],
      "stateMutability": "nonpayable",
      "type": "function"
    },
    {
      "inputs": [
        {
          "internalType": "address",
          "name": "termController",
          "type": "address"
        }
      ],
      "name": "approveTermController",
      "outputs": [],
      "stateMutability": "nonpayable",
      "type": "function"
    },
    {
      "inputs": [
        {
          "internalType": "bytes32",
          "name": "role",
          "type": "bytes32"
        }
      ],
      "name": "getRoleAdmin",
      "outputs": [
        {
          "internalType": "bytes32",
          "name": "",
          "type": "bytes32"
        }
      ],
      "stateMutability": "view",
      "type": "function"
    },
    {
      "inputs": [
        {
          "internalType": "bytes32",
          "name": "role",
          "type": "bytes32"
        },
        {
          "internalType": "address",
          "name": "account",
          "type": "address"
        }
      ],
      "name": "grantRole",
      "outputs": [],
      "stateMutability": "nonpayable",
      "type": "function"
    },
    {
      "inputs": [
        {
          "internalType": "bytes32",
          "name": "role",
          "type": "bytes32"
        },
        {
          "internalType": "address",
          "name": "account",
          "type": "address"
        }
      ],
      "name": "hasRole",
      "outputs": [
        {
          "internalType": "bool",
          "name": "",
          "type": "bool"
        }
      ],
      "stateMutability": "view",
      "type": "function"
    },
    {
      "inputs": [
        {
          "internalType": "bytes32",
          "name": "role",
          "type": "bytes32"
        },
        {
          "internalType": "address",
          "name": "callerConfirmation",
          "type": "address"
        }
      ],
      "name": "renounceRole",
      "outputs": [],
      "stateMutability": "nonpayable",
      "type": "function"
    },
    {
      "inputs": [
        {
          "internalType": "address",
          "name": "feeRecipient",
          "type": "address"
        }
      ],
      "name": "revokeFeeRecipient",
      "outputs": [],
      "stateMutability": "nonpayable",
      "type": "function"
    },
    {
      "inputs": [
        {
          "internalType": "bytes32",
          "name": "role",
          "type": "bytes32"
        },
        {
          "internalType": "address",
          "name": "account",
          "type": "address"
        }
      ],
      "name": "revokeRole",
      "outputs": [],
      "stateMutability": "nonpayable",
      "type": "function"
    },
    {
      "inputs": [
        {
          "internalType": "address",
          "name": "termController",
          "type": "address"
        }
      ],
      "name": "revokeTermController",
      "outputs": [],
      "stateMutability": "nonpayable",
      "type": "function"
    },
    {
      "inputs": [
        {
          "internalType": "bytes4",
          "name": "interfaceId",
          "type": "bytes4"
        }
      ],
      "name": "supportsInterface",
      "outputs": [
        {
          "internalType": "bool",
          "name": "",
          "type": "bool"
        }
      ],
      "stateMutability": "view",
      "type": "function"
    },
    {
      "inputs": [
        {
          "internalType": "address",
          "name": "loanIntentFacetAddress",
          "type": "address"
        }
      ],
      "name": "updateEIP712DomainSeparator",
      "outputs": [],
      "stateMutability": "nonpayable",
      "type": "function"
    }
  ],
  "bytecode": "0x6080806040523461001657610af8908161001c8239f35b600080fdfe6080604081815260048036101561001557600080fd5b600092833560e01c90816301ffc9a7146107a257508063248a9ca3146107795780632a0e7815146106525780632f2ff15d1461062957806332257f121461030357806336568abe146102bc57806391d1485414610277578063a217fddf1461025c578063bcb7b3e314610198578063d34f068f14610141578063d547741f146101035763fe5a7fc6146100a757600080fd5b346100ff5760203660031901126100ff576100c06107f6565b916100c961090f565b60ff6100d484610860565b54166100f257836100e484610860565b805460ff1916600117905580f35b51637b3712c160e01b8152fd5b8280fd5b5090346100ff57806003193601126100ff5761013d91356101386001610127610811565b938387528660205286200154610989565b610a2d565b5080f35b50346100ff5760203660031901126100ff5761015b6107f6565b9161016461090f565b60ff61016f84610860565b54161561018b578361018084610860565b805460ff1916905580f35b51630ed1b8b360e31b8152fd5b50919034610258576020366003190112610258576101b46107f6565b906101bd61090f565b60ff6101c883610827565b541661024957506101d881610827565b805460ff19166001179055600080516020610aa3833981519152805490600160401b82101561023657816102159160016102339594019055610899565b90919060018060a01b038084549260031b9316831b921b1916179055565b80f35b634e487b7160e01b845260418552602484fd5b51631b18945360e11b81528390fd5b5080fd5b50503461025857816003193601126102585751908152602090f35b50346100ff57816003193601126100ff578160209360ff92610297610811565b903582528186528282206001600160a01b039091168252855220549151911615158152f35b509190346102585780600319360112610258576102d7610811565b90336001600160a01b038316036102f4575061013d919235610a2d565b5163334bd91960e11b81528390fd5b50346100ff57602090816003193601126106255761031f6107f6565b7fa49807205ce4d355092ef5a8a18f56e8913cf4a201fbe287825b095693c21775808652858452848620338752845260ff858720541615610607575083516356fe50af60e11b81526001600160a01b03909116828201819052908581602481305afa9081156105fd578691610546575b5051156105375784829185519283809263054fd4d560e41b82525afa90811561052d578591610477575b50828151910120928051928301937f8b73c3c69bb8fe3d512ecc4cf759cc79239f7b179b0ffacaa9a75d522b39400f85527fb4d012db4765e7c0376450bb3498a79c959563245c5709dafed119917cc3f2b78285015260608401524660808401523060a084015260a0835260c083019183831060018060401b038411176104645750525190207f2a2e13707d6b40952f0aec05e2811137753b06b56d55208636050ec9ee68dd7c5580f35b634e487b7160e01b865260419052602485fd5b90503d8086833e61048881836108d6565b81019083818303126105295780516001600160401b0391828211610525570182601f8201121561050e578051918211610512578551926104d1601f8401601f19168701856108d6565b82845285838301011161050e5786918591835b8281106104f757505083010152386103b9565b8181018401518682018501528994508793016104e4565b8680fd5b634e487b7160e01b875260418452602487fd5b8780fd5b8580fd5b84513d87823e3d90fd5b508251630f76310f60e01b8152fd5b90503d8087833e61055781836108d6565b8101848282031261050e5781516001600160401b03928382116105e6570181601f820112156105255780519283116105ea578260051b9087519361059d888401866108d6565b845286808501928201019283116105e6578601905b8282106105c2575050503861038f565b81516001600160e01b0319811681036105e25781529086019086016105b2565b8980fd5b8880fd5b634e487b7160e01b885260418552602488fd5b85513d88823e3d90fd5b845163e2517d3f60e01b815233818501526024810191909152604490fd5b8380fd5b5090346100ff57806003193601126100ff5761013d913561064d6001610127610811565b6109af565b5090346100ff5760203660031901126100ff5761066d6107f6565b9061067661090f565b60ff61068183610827565b54161561076a575061069281610827565b805460ff19169055600080516020610aa383398151915280546001600160a01b0392831690855b8181106106c4578680f35b84836106cf83610899565b929054600393841b1c16146106e757506001016106b9565b9593949360001993509183810190811161075757906102158561070c61071994610899565b9054908a1b1c1691610899565b83549081156107445750019261072e84610899565b81939154921b1b19169055553880808080808680f35b634e487b7160e01b875260319052602486fd5b634e487b7160e01b885260118352602488fd5b51638ebd687760e01b81529050fd5b50346100ff5760203660031901126100ff57816020936001923581528085522001549051908152f35b925050346100ff5760203660031901126100ff573563ffffffff60e01b81168091036100ff5760209250637965db0b60e01b81149081156107e5575b5015158152f35b6301ffc9a760e01b149050386107de565b600435906001600160a01b038216820361080c57565b600080fd5b602435906001600160a01b038216820361080c57565b6001600160a01b031660009081527f2a2e13707d6b40952f0aec05e2811137753b06b56d55208636050ec9ee68dd7d6020526040902090565b6001600160a01b031660009081527f2a2e13707d6b40952f0aec05e2811137753b06b56d55208636050ec9ee68dd7f6020526040902090565b600080516020610aa383398151915280548210156108c05760005260206000200190600090565b634e487b7160e01b600052603260045260246000fd5b601f909101601f19168101906001600160401b038211908210176108f957604052565b634e487b7160e01b600052604160045260246000fd5b3360009081527fc4fa85ddc8456762f8b72103c3e0ab9fc9da9d046b037e6a078b6d2d90f1297860205260409020547f793a6c9b7e0a9549c74edc2f9ae0dc50903dfaa9a56fb0116b27a8c71de3e2c69060ff161561096b5750565b6044906040519063e2517d3f60e01b82523360048301526024820152fd5b80600052600060205260406000203360005260205260ff604060002054161561096b5750565b9060009180835282602052604083209160018060a01b03169182845260205260ff60408420541615600014610a2857808352826020526040832082845260205260408320600160ff198254161790557f2f8788117e7eff1d82e926ec794901d17c78024a50270940304540a733656f0d339380a4600190565b505090565b9060009180835282602052604083209160018060a01b03169182845260205260ff604084205416600014610a285780835282602052604083208284526020526040832060ff1981541690557ff6391f5c32d9c69d2a47ea670b442974b53935d1edc7fd64eb21e047a839171b339380a460019056fe2a2e13707d6b40952f0aec05e2811137753b06b56d55208636050ec9ee68dd7ea2646970667358221220f58f8e1b05e3d31afc1eec7c16bd94bbd8ac835076b6576612db8585edfb297a64736f6c63430008160033",
  "linkReferences": {},
  "deployedLinkReferences": {}
}