{
  "_format": "hh-sol-artifact-1",
  "contractName": "TestToken",
  "sourceName": "contracts/test/TestToken.sol",
  "abi": [
    {
      "anonymous": false,
      "inputs": [
        {
          "indexed": true,
          "internalType": "address",
          "name": "owner",
          "type": "address"
        },
        {
          "indexed": true,
          "internalType": "address",
          "name": "spender",
          "type": "address"
        },
        {
          "indexed": false,
          "internalType": "uint256",
          "name": "value",
          "type": "uint256"
        }
      ],
      "name": "Approval",
      "type": "event"
    },
    {
      "anonymous": false,
      "inputs": [
        {
          "indexed": false,
          "internalType": "uint8",
          "name": "version",
          "type": "uint8"
        }
      ],
      "name": "Initialized",
      "type": "event"
    },
    {
      "anonymous": false,
      "inputs": [
        {
          "indexed": true,
          "internalType": "address",
          "name": "from",
          "type": "address"
        },
        {
          "indexed": true,
          "internalType": "address",
          "name": "to",
          "type": "address"
        },
        {
          "indexed": false,
          "internalType": "uint256",
          "name": "value",
          "type": "uint256"
        }
      ],
      "name": "Transfer",
      "type": "event"
    },
    {
      "inputs": [
        {
          "internalType": "address",
          "name": "owner",
          "type": "address"
        },
        {
          "internalType": "address",
          "name": "spender",
          "type": "address"
        }
      ],
      "name": "allowance",
      "outputs": [
        {
          "internalType": "uint256",
          "name": "",
          "type": "uint256"
        }
      ],
      "stateMutability": "view",
      "type": "function"
    },
    {
      "inputs": [
        {
          "internalType": "address",
          "name": "spender",
          "type": "address"
        },
        {
          "internalType": "uint256",
          "name": "amount",
          "type": "uint256"
        }
      ],
      "name": "approve",
      "outputs": [
        {
          "internalType": "bool",
          "name": "",
          "type": "bool"
        }
      ],
      "stateMutability": "nonpayable",
      "type": "function"
    },
    {
      "inputs": [
        {
          "internalType": "address",
          "name": "account",
          "type": "address"
        }
      ],
      "name": "balanceOf",
      "outputs": [
        {
          "internalType": "uint256",
          "name": "",
          "type": "uint256"
        }
      ],
      "stateMutability": "view",
      "type": "function"
    },
    {
      "inputs": [
        {
          "internalType": "address",
          "name": "from",
          "type": "address"
        },
        {
          "internalType": "uint256",
          "name": "amount",
          "type": "uint256"
        }
      ],
      "name": "burn",
      "outputs": [],
      "stateMutability": "nonpayable",
      "type": "function"
    },
    {
      "inputs": [],
      "name": "decimals",
      "outputs": [
        {
          "internalType": "uint8",
          "name": "",
          "type": "uint8"
        }
      ],
      "stateMutability": "view",
      "type": "function"
    },
    {
      "inputs": [
        {
          "internalType": "address",
          "name": "spender",
          "type": "address"
        },
        {
          "internalType": "uint256",
          "name": "subtractedValue",
          "type": "uint256"
        }
      ],
      "name": "decreaseAllowance",
      "outputs": [
        {
          "internalType": "bool",
          "name": "",
          "type": "bool"
        }
      ],
      "stateMutability": "nonpayable",
      "type": "function"
    },
    {
      "inputs": [
        {
          "internalType": "address",
          "name": "spender",
          "type": "address"
        },
        {
          "internalType": "uint256",
          "name": "addedValue",
          "type": "uint256"
        }
      ],
      "name": "increaseAllowance",
      "outputs": [
        {
          "internalType": "bool",
          "name": "",
          "type": "bool"
        }
      ],
      "stateMutability": "nonpayable",
      "type": "function"
    },
    {
      "inputs": [
        {
          "internalType": "string",
          "name": "_name",
          "type": "string"
        },
        {
          "internalType": "string",
          "name": "_symbol",
          "type": "string"
        },
        {
          "internalType": "uint8",
          "name": "_decimals",
          "type": "uint8"
        },
        {
          "internalType": "address[]",
          "name": "_holder",
          "type": "address[]"
        },
        {
          "internalType": "uint256[]",
          "name": "amount_",
          "type": "uint256[]"
        }
      ],
      "name": "initialize",
      "outputs": [],
      "stateMutability": "nonpayable",
      "type": "function"
    },
    {
      "inputs": [
        {
          "internalType": "address",
          "name": "to",
          "type": "address"
        },
        {
          "internalType": "uint256",
          "name": "amount",
          "type": "uint256"
        }
      ],
      "name": "mint",
      "outputs": [],
      "stateMutability": "nonpayable",
      "type": "function"
    },
    {
      "inputs": [],
      "name": "name",
      "outputs": [
        {
          "internalType": "string",
          "name": "",
          "type": "string"
        }
      ],
      "stateMutability": "view",
      "type": "function"
    },
    {
      "inputs": [],
      "name": "symbol",
      "outputs": [
        {
          "internalType": "string",
          "name": "",
          "type": "string"
        }
      ],
      "stateMutability": "view",
      "type": "function"
    },
    {
      "inputs": [],
      "name": "totalSupply",
      "outputs": [
        {
          "internalType": "uint256",
          "name": "",
          "type": "uint256"
        }
      ],
      "stateMutability": "view",
      "type": "function"
    },
    {
      "inputs": [
        {
          "internalType": "address",
          "name": "to",
          "type": "address"
        },
        {
          "internalType": "uint256",
          "name": "amount",
          "type": "uint256"
        }
      ],
      "name": "transfer",
      "outputs": [
        {
          "internalType": "bool",
          "name": "",
          "type": "bool"
        }
      ],
      "stateMutability": "nonpayable",
      "type": "function"
    },
    {
      "inputs": [
        {
          "internalType": "address",
          "name": "from",
          "type": "address"
        },
        {
          "internalType": "address",
          "name": "to",
          "type": "address"
        },
        {
          "internalType": "uint256",
          "name": "amount",
          "type": "uint256"
        }
      ],
      "name": "transferFrom",
      "outputs": [
        {
          "internalType": "bool",
          "name": "",
          "type": "bool"
        }
      ],
      "stateMutability": "nonpayable",
      "type": "function"
    }
  ],
  "bytecode": "0x608060405234801561001057600080fd5b50611090806100206000396000f3fe608060405234801561001057600080fd5b50600436106100ba5760003560e01c806306fdde03146100bf578063095ea7b3146100dd57806318160ddd1461010057806323b872dd14610112578063313ce56714610125578063395093511461013a57806340c10f191461014d57806370a082311461016257806395d89b411461018b5780639dc29fac14610193578063a457c2d7146101a6578063a9059cbb146101b9578063da35ef4c146101cc578063dd62ed3e146101df575b600080fd5b6100c76101f2565b6040516100d49190610ac1565b60405180910390f35b6100f06100eb366004610b2b565b610284565b60405190151581526020016100d4565b6035545b6040519081526020016100d4565b6100f0610120366004610b55565b61029e565b60655460405160ff90911681526020016100d4565b6100f0610148366004610b2b565b6102c2565b61016061015b366004610b2b565b6102e4565b005b610104610170366004610b91565b6001600160a01b031660009081526033602052604090205490565b6100c76102f2565b6101606101a1366004610b2b565b610301565b6100f06101b4366004610b2b565b61030b565b6100f06101c7366004610b2b565b61038b565b6101606101da366004610d58565b610399565b6101046101ed366004610e1f565b610524565b60606036805461020190610e52565b80601f016020809104026020016040519081016040528092919081815260200182805461022d90610e52565b801561027a5780601f1061024f5761010080835404028352916020019161027a565b820191906000526020600020905b81548152906001019060200180831161025d57829003601f168201915b5050505050905090565b60003361029281858561054f565b60019150505b92915050565b6000336102ac858285610674565b6102b78585856106ee565b506001949350505050565b6000336102928185856102d58383610524565b6102df9190610ea2565b61054f565b6102ee8282610887565b5050565b60606037805461020190610e52565b6102ee8282610936565b600033816103198286610524565b90508381101561037e5760405162461bcd60e51b815260206004820152602560248201527f45524332303a2064656372656173656420616c6c6f77616e63652062656c6f77604482015264207a65726f60d81b60648201526084015b60405180910390fd5b6102b7828686840361054f565b6000336102928185856106ee565b600054610100900460ff16158080156103b95750600054600160ff909116105b806103d35750303b1580156103d3575060005460ff166001145b6104365760405162461bcd60e51b815260206004820152602e60248201527f496e697469616c697a61626c653a20636f6e747261637420697320616c72656160448201526d191e481a5b9a5d1a585b1a5e995960921b6064820152608401610375565b6000805460ff191660011790558015610459576000805461ff0019166101001790555b6104638686610a55565b6065805460ff191660ff861617905560005b83518160ff1610156104d5576104c3848260ff168151811061049957610499610eb5565b6020026020010151848360ff16815181106104b6576104b6610eb5565b6020026020010151610887565b806104cd81610ecb565b915050610475565b50801561051c576000805461ff0019169055604051600181527f7f26b83ff96e1f2b6a682f133852f6798a09c465da95921460cefb38474024989060200160405180910390a15b505050505050565b6001600160a01b03918216600090815260346020908152604080832093909416825291909152205490565b6001600160a01b0383166105b15760405162461bcd60e51b8152602060048201526024808201527f45524332303a20617070726f76652066726f6d20746865207a65726f206164646044820152637265737360e01b6064820152608401610375565b6001600160a01b0382166106125760405162461bcd60e51b815260206004820152602260248201527f45524332303a20617070726f766520746f20746865207a65726f206164647265604482015261737360f01b6064820152608401610375565b6001600160a01b0383811660008181526034602090815260408083209487168084529482529182902085905590518481527f8c5be1e5ebec7d5bd14f71427d1e84f3dd0314c0f7b2291e5b200ac8c7c3b92591015b60405180910390a3505050565b60006106808484610524565b905060001981146106e857818110156106db5760405162461bcd60e51b815260206004820152601d60248201527f45524332303a20696e73756666696369656e7420616c6c6f77616e63650000006044820152606401610375565b6106e8848484840361054f565b50505050565b6001600160a01b0383166107525760405162461bcd60e51b815260206004820152602560248201527f45524332303a207472616e736665722066726f6d20746865207a65726f206164604482015264647265737360d81b6064820152608401610375565b6001600160a01b0382166107b45760405162461bcd60e51b815260206004820152602360248201527f45524332303a207472616e7366657220746f20746865207a65726f206164647260448201526265737360e81b6064820152608401610375565b6001600160a01b0383166000908152603360205260409020548181101561082c5760405162461bcd60e51b815260206004820152602660248201527f45524332303a207472616e7366657220616d6f756e7420657863656564732062604482015265616c616e636560d01b6064820152608401610375565b6001600160a01b03808516600081815260336020526040808220868603905592861680825290839020805486019055915160008051602061103b8339815191529061087a9086815260200190565b60405180910390a36106e8565b6001600160a01b0382166108dd5760405162461bcd60e51b815260206004820152601f60248201527f45524332303a206d696e7420746f20746865207a65726f2061646472657373006044820152606401610375565b80603560008282546108ef9190610ea2565b90915550506001600160a01b03821660008181526033602090815260408083208054860190555184815260008051602061103b833981519152910160405180910390a35050565b6001600160a01b0382166109965760405162461bcd60e51b815260206004820152602160248201527f45524332303a206275726e2066726f6d20746865207a65726f206164647265736044820152607360f81b6064820152608401610375565b6001600160a01b03821660009081526033602052604090205481811015610a0a5760405162461bcd60e51b815260206004820152602260248201527f45524332303a206275726e20616d6f756e7420657863656564732062616c616e604482015261636560f01b6064820152608401610375565b6001600160a01b038316600081815260336020908152604080832086860390556035805487900390555185815291929160008051602061103b8339815191529101610667565b505050565b600054610100900460ff16610a7c5760405162461bcd60e51b815260040161037590610eea565b6102ee8282600054610100900460ff16610aa85760405162461bcd60e51b815260040161037590610eea565b6036610ab48382610f7b565b506037610a508282610f7b565b600060208083528351808285015260005b81811015610aee57858101830151858201604001528201610ad2565b506000604082860101526040601f19601f8301168501019250505092915050565b80356001600160a01b0381168114610b2657600080fd5b919050565b60008060408385031215610b3e57600080fd5b610b4783610b0f565b946020939093013593505050565b600080600060608486031215610b6a57600080fd5b610b7384610b0f565b9250610b8160208501610b0f565b9150604084013590509250925092565b600060208284031215610ba357600080fd5b610bac82610b0f565b9392505050565b634e487b7160e01b600052604160045260246000fd5b604051601f8201601f191681016001600160401b0381118282101715610bf157610bf1610bb3565b604052919050565b600082601f830112610c0a57600080fd5b81356001600160401b03811115610c2357610c23610bb3565b610c36601f8201601f1916602001610bc9565b818152846020838601011115610c4b57600080fd5b816020850160208301376000918101602001919091529392505050565b60006001600160401b03821115610c8157610c81610bb3565b5060051b60200190565b600082601f830112610c9c57600080fd5b81356020610cb1610cac83610c68565b610bc9565b82815260059290921b84018101918181019086841115610cd057600080fd5b8286015b84811015610cf257610ce581610b0f565b8352918301918301610cd4565b509695505050505050565b600082601f830112610d0e57600080fd5b81356020610d1e610cac83610c68565b82815260059290921b84018101918181019086841115610d3d57600080fd5b8286015b84811015610cf25780358352918301918301610d41565b600080600080600060a08688031215610d7057600080fd5b85356001600160401b0380821115610d8757600080fd5b610d9389838a01610bf9565b96506020880135915080821115610da957600080fd5b610db589838a01610bf9565b95506040880135915060ff82168214610dcd57600080fd5b90935060608701359080821115610de357600080fd5b610def89838a01610c8b565b93506080880135915080821115610e0557600080fd5b50610e1288828901610cfd565b9150509295509295909350565b60008060408385031215610e3257600080fd5b610e3b83610b0f565b9150610e4960208401610b0f565b90509250929050565b600181811c90821680610e6657607f821691505b602082108103610e8657634e487b7160e01b600052602260045260246000fd5b50919050565b634e487b7160e01b600052601160045260246000fd5b8082018082111561029857610298610e8c565b634e487b7160e01b600052603260045260246000fd5b600060ff821660ff8103610ee157610ee1610e8c565b60010192915050565b6020808252602b908201527f496e697469616c697a61626c653a20636f6e7472616374206973206e6f74206960408201526a6e697469616c697a696e6760a81b606082015260800190565b601f821115610a5057600081815260208120601f850160051c81016020861015610f5c5750805b601f850160051c820191505b8181101561051c57828155600101610f68565b81516001600160401b03811115610f9457610f94610bb3565b610fa881610fa28454610e52565b84610f35565b602080601f831160018114610fdd5760008415610fc55750858301515b600019600386901b1c1916600185901b17855561051c565b600085815260208120601f198616915b8281101561100c57888601518255948401946001909101908401610fed565b508582101561102a5787850151600019600388901b60f8161c191681555b5050505050600190811b0190555056feddf252ad1be2c89b69c2b068fc378daa952ba7f163c4a11628f55a4df523b3efa26469706673582212201768c1812c3877581ecc86c029d52c744c00560347ef64a047e2884170cb3f9464736f6c63430008120033",
  "linkReferences": {},
  "deployedLinkReferences": {}
}