{
  "_format": "hh-sol-artifact-1",
  "contractName": "TestToken",
  "sourceName": "contracts/test/TestToken.sol",
  "abi": [
    {
      "inputs": [
        {
          "internalType": "address",
          "name": "spender",
          "type": "address"
        },
        {
          "internalType": "uint256",
          "name": "allowance",
          "type": "uint256"
        },
        {
          "internalType": "uint256",
          "name": "needed",
          "type": "uint256"
        }
      ],
      "name": "ERC20InsufficientAllowance",
      "type": "error"
    },
    {
      "inputs": [
        {
          "internalType": "address",
          "name": "sender",
          "type": "address"
        },
        {
          "internalType": "uint256",
          "name": "balance",
          "type": "uint256"
        },
        {
          "internalType": "uint256",
          "name": "needed",
          "type": "uint256"
        }
      ],
      "name": "ERC20InsufficientBalance",
      "type": "error"
    },
    {
      "inputs": [
        {
          "internalType": "address",
          "name": "approver",
          "type": "address"
        }
      ],
      "name": "ERC20InvalidApprover",
      "type": "error"
    },
    {
      "inputs": [
        {
          "internalType": "address",
          "name": "receiver",
          "type": "address"
        }
      ],
      "name": "ERC20InvalidReceiver",
      "type": "error"
    },
    {
      "inputs": [
        {
          "internalType": "address",
          "name": "sender",
          "type": "address"
        }
      ],
      "name": "ERC20InvalidSender",
      "type": "error"
    },
    {
      "inputs": [
        {
          "internalType": "address",
          "name": "spender",
          "type": "address"
        }
      ],
      "name": "ERC20InvalidSpender",
      "type": "error"
    },
    {
      "inputs": [],
      "name": "InvalidInitialization",
      "type": "error"
    },
    {
      "inputs": [],
      "name": "NotInitializing",
      "type": "error"
    },
    {
      "anonymous": false,
      "inputs": [
        {
          "indexed": true,
          "internalType": "address",
          "name": "owner",
          "type": "address"
        },
        {
          "indexed": true,
          "internalType": "address",
          "name": "spender",
          "type": "address"
        },
        {
          "indexed": false,
          "internalType": "uint256",
          "name": "value",
          "type": "uint256"
        }
      ],
      "name": "Approval",
      "type": "event"
    },
    {
      "anonymous": false,
      "inputs": [
        {
          "indexed": false,
          "internalType": "uint64",
          "name": "version",
          "type": "uint64"
        }
      ],
      "name": "Initialized",
      "type": "event"
    },
    {
      "anonymous": false,
      "inputs": [
        {
          "indexed": true,
          "internalType": "address",
          "name": "from",
          "type": "address"
        },
        {
          "indexed": true,
          "internalType": "address",
          "name": "to",
          "type": "address"
        },
        {
          "indexed": false,
          "internalType": "uint256",
          "name": "value",
          "type": "uint256"
        }
      ],
      "name": "Transfer",
      "type": "event"
    },
    {
      "inputs": [
        {
          "internalType": "address",
          "name": "owner",
          "type": "address"
        },
        {
          "internalType": "address",
          "name": "spender",
          "type": "address"
        }
      ],
      "name": "allowance",
      "outputs": [
        {
          "internalType": "uint256",
          "name": "",
          "type": "uint256"
        }
      ],
      "stateMutability": "view",
      "type": "function"
    },
    {
      "inputs": [
        {
          "internalType": "address",
          "name": "spender",
          "type": "address"
        },
        {
          "internalType": "uint256",
          "name": "value",
          "type": "uint256"
        }
      ],
      "name": "approve",
      "outputs": [
        {
          "internalType": "bool",
          "name": "",
          "type": "bool"
        }
      ],
      "stateMutability": "nonpayable",
      "type": "function"
    },
    {
      "inputs": [
        {
          "internalType": "address",
          "name": "account",
          "type": "address"
        }
      ],
      "name": "balanceOf",
      "outputs": [
        {
          "internalType": "uint256",
          "name": "",
          "type": "uint256"
        }
      ],
      "stateMutability": "view",
      "type": "function"
    },
    {
      "inputs": [
        {
          "internalType": "address",
          "name": "from",
          "type": "address"
        },
        {
          "internalType": "uint256",
          "name": "amount",
          "type": "uint256"
        }
      ],
      "name": "burn",
      "outputs": [],
      "stateMutability": "nonpayable",
      "type": "function"
    },
    {
      "inputs": [],
      "name": "decimals",
      "outputs": [
        {
          "internalType": "uint8",
          "name": "",
          "type": "uint8"
        }
      ],
      "stateMutability": "view",
      "type": "function"
    },
    {
      "inputs": [
        {
          "internalType": "string",
          "name": "_name",
          "type": "string"
        },
        {
          "internalType": "string",
          "name": "_symbol",
          "type": "string"
        },
        {
          "internalType": "uint8",
          "name": "_decimals",
          "type": "uint8"
        },
        {
          "internalType": "address[]",
          "name": "_holder",
          "type": "address[]"
        },
        {
          "internalType": "uint256[]",
          "name": "amount_",
          "type": "uint256[]"
        }
      ],
      "name": "initialize",
      "outputs": [],
      "stateMutability": "nonpayable",
      "type": "function"
    },
    {
      "inputs": [
        {
          "internalType": "address",
          "name": "to",
          "type": "address"
        },
        {
          "internalType": "uint256",
          "name": "amount",
          "type": "uint256"
        }
      ],
      "name": "mint",
      "outputs": [],
      "stateMutability": "nonpayable",
      "type": "function"
    },
    {
      "inputs": [],
      "name": "name",
      "outputs": [
        {
          "internalType": "string",
          "name": "",
          "type": "string"
        }
      ],
      "stateMutability": "view",
      "type": "function"
    },
    {
      "inputs": [
        {
          "internalType": "address",
          "name": "account",
          "type": "address"
        },
        {
          "internalType": "bool",
          "name": "shouldFail",
          "type": "bool"
        }
      ],
      "name": "setTransferFailure",
      "outputs": [],
      "stateMutability": "nonpayable",
      "type": "function"
    },
    {
      "inputs": [],
      "name": "symbol",
      "outputs": [
        {
          "internalType": "string",
          "name": "",
          "type": "string"
        }
      ],
      "stateMutability": "view",
      "type": "function"
    },
    {
      "inputs": [],
      "name": "totalSupply",
      "outputs": [
        {
          "internalType": "uint256",
          "name": "",
          "type": "uint256"
        }
      ],
      "stateMutability": "view",
      "type": "function"
    },
    {
      "inputs": [
        {
          "internalType": "address",
          "name": "to",
          "type": "address"
        },
        {
          "internalType": "uint256",
          "name": "value",
          "type": "uint256"
        }
      ],
      "name": "transfer",
      "outputs": [
        {
          "internalType": "bool",
          "name": "",
          "type": "bool"
        }
      ],
      "stateMutability": "nonpayable",
      "type": "function"
    },
    {
      "inputs": [
        {
          "internalType": "address",
          "name": "",
          "type": "address"
        }
      ],
      "name": "transferFailureList",
      "outputs": [
        {
          "internalType": "bool",
          "name": "",
          "type": "bool"
        }
      ],
      "stateMutability": "view",
      "type": "function"
    },
    {
      "inputs": [
        {
          "internalType": "address",
          "name": "from",
          "type": "address"
        },
        {
          "internalType": "address",
          "name": "to",
          "type": "address"
        },
        {
          "internalType": "uint256",
          "name": "value",
          "type": "uint256"
        }
      ],
      "name": "transferFrom",
      "outputs": [
        {
          "internalType": "bool",
          "name": "",
          "type": "bool"
        }
      ],
      "stateMutability": "nonpayable",
      "type": "function"
    }
  ],
  "bytecode": "0x608080604052346100165761109c908161001c8239f35b600080fdfe608080604052600436101561001357600080fd5b60003560e01c90816306fdde0314610be457508063095ea7b314610b6357806318160ddd14610b3857806323b872dd14610a5c578063313ce56714610a3b57806340c10f1914610a1457806370a08231146109cd57806395d89b41146108fd5780639dc29fac1461082f578063a9059cbb14610799578063b38fa5561461074b578063c4aaaaae1461070c578063da35ef4c146101075763dd62ed3e146100b957600080fd5b34610102576040366003190112610102576100d2610cc7565b6100e36100dd610cdd565b91610cf3565b9060018060a01b03166000526020526020604060002054604051908152f35b600080fd5b346101025760a0366003190112610102576004356001600160401b03811161010257610137903690600401610d4f565b6024356001600160401b03811161010257610156903690600401610d4f565b906044359160ff8316830361010257606435916001600160401b038311610102573660238401121561010257826004013561019081610da5565b9361019e6040519586610d2c565b8185526024602086019260051b8201019036821161010257602401915b8183106106ec5750506084359290506001600160401b0383116101025736602384011215610102578260040135926101f284610da5565b936102006040519586610d2c565b8085526024602086019160051b8301019136831161010257602401905b8282106106dc575050600080516020611047833981519152549290506001600160401b038316801590816106cc575b60011490816106c2575b1590816106b9575b506106a7576001600160401b0319831660011760008051602061104783398151915255604083901c60ff161561067e575b610297610f57565b61029f610f57565b8051906001600160401b0382116105635781906102ca600080516020610fa783398151915254610dbc565b601f8111610616575b50602090601f831160011461058457600092610579575b50508160011b916000199060031b1c191617600080516020610fa7833981519152555b8051906001600160401b03821161056357610336600080516020610fe783398151915254610dbc565b601f81116104f5575b50602090601f831160011461046657918060ff9792889460009261045b575b50508160011b916000199060031b1c191617600080516020610fe78339815191525590509390935b1660ff19600054161760005560005b825160ff8216908110156103f95760ff91906103d0906103c96001600160a01b036103c08389610df6565b51169186610df6565b5190610eed565b169260ff84146103e35792600101610395565b634e487b7160e01b600052601160045260246000fd5b60ff8560401c161561040757005b60ff60401b196000805160206110478339815191525416600080516020611047833981519152557fc7f505b2f371ae2175ee4913f4499e1f2633a7b5936321eed1cdaeb6115181d2602060405160018152a1005b01519050888061035e565b90600080516020610fe783398151915260005260206000209160005b601f19851681106104dd57509260ff9792600192899583601f198116106104c4575b505050811b01600080516020610fe7833981519152559050939093610386565b015160001960f88460031b161c191690558880806104a4565b91926020600181928685015181550194019201610482565b600080516020610fe78339815191526000527f46a2803e59a4de4e7a4c574b1243f25977ac4c77d5a1a4a609b5394cebb4a2aa601f840160051c81016020851061055c575b601f830160051c8201811061055057505061033f565b6000815560010161053a565b508061053a565b634e487b7160e01b600052604160045260246000fd5b0151905087806102ea565b600080516020610fa783398151915260009081529350600080516020610f8783398151915291905b601f19841685106105fb576001945083601f198116106105e2575b505050811b01600080516020610fa78339815191525561030d565b015160001960f88460031b161c191690558780806105c7565b818101518355602094850194600190930192909101906105ac565b600080516020610fa7833981519152600052909150600080516020610f87833981519152601f840160051c810160208510610677575b90849392915b601f830160051c820181106106685750506102d3565b60008155859450600101610652565b508061064c565b6001600160481b031983166001600160401b01176000805160206110478339815191525561028f565b60405163f92ee8a960e01b8152600490fd5b9050158761025e565b303b159150610256565b604085901c60ff1615915061024c565b813581526020918201910161021d565b82356001600160a01b0381168103610102578152602092830192016101bb565b34610102576020366003190112610102576001600160a01b0361072d610cc7565b166000526001602052602060ff604060002054166040519015158152f35b3461010257604036600319011261010257610764610cc7565b602435908115158092036101025760018060a01b0316600052600160205260406000209060ff80198354169116179055600080f35b34610102576040366003190112610102576107b2610cc7565b6001600160a01b03811660009081526001602052604090205460ff166107eb576107e0906024359033610e3e565b602060405160018152f35b60405162461bcd60e51b815260206004820152601c60248201527b5472616e7366657220626c6f636b656420666f722074657374696e6760201b6044820152606490fd5b3461010257604036600319011261010257610848610cc7565b6001600160a01b03811660243581156108e45781600052600080516020610fc783398151915280602052604060002054938285106108c1575081600080516020611027833981519152926000956020938688528452036040862055600080516020611007833981519152818154039055604051908152a3005b84906108e08460405193849363391434e360e21b855260048501610e20565b0390fd5b604051634b637e8f60e11b815260006004820152602490fd5b3461010257600036600319011261010257604051600090600080516020610fe7833981519152805461092e81610dbc565b908184526020926001916001811690816000146109ab575060011461096e575b61096a8561095e81890382610d2c565b60405191829182610c7e565b0390f35b6000908152838120939550925b828410610998575050508161096a9361095e92820101938561094e565b805485850187015292850192810161097b565b60ff191686860152505050151560051b820101915061095e8161096a8561094e565b34610102576020366003190112610102576001600160a01b036109ee610cc7565b16600052600080516020610fc78339815191526020526020604060002054604051908152f35b3461010257604036600319011261010257610a39610a30610cc7565b60243590610eed565b005b3461010257600036600319011261010257602060ff60005416604051908152f35b3461010257606036600319011261010257610a75610cc7565b610a7d610cdd565b60443590610a8a83610cf3565b33600052602052604060002054926000198410610aac575b6107e09350610e3e565b828410610b1b576001600160a01b03811615610b02573315610ae957826107e094610ad683610cf3565b3360005260205203604060002055610aa2565b604051634a1406b160e11b815260006004820152602490fd5b60405163e602df0560e01b815260006004820152602490fd5b604051637dc7a0d960e11b8152806108e085873360048501610e20565b3461010257600036600319011261010257602060008051602061100783398151915254604051908152f35b3461010257604036600319011261010257610b7c610cc7565b602435903315610b02576001600160a01b0316908115610ae957610b9f33610cf3565b82600052602052806040600020556040519081527f8c5be1e5ebec7d5bd14f71427d1e84f3dd0314c0f7b2291e5b200ac8c7c3b92560203392a3602060405160018152f35b3461010257600036600319011261010257600090600080516020610fa78339815191528054610c1281610dbc565b908184526020926001916001811690816000146109ab5750600114610c415761096a8561095e81890382610d2c565b6000908152838120939550925b828410610c6b575050508161096a9361095e92820101938561094e565b8054858501870152928501928101610c4e565b6020808252825181830181905290939260005b828110610cb357505060409293506000838284010152601f8019910116010190565b818101860151848201604001528501610c91565b600435906001600160a01b038216820361010257565b602435906001600160a01b038216820361010257565b6001600160a01b031660009081527f52c63247e1f47db19d5ce0460030c497f067ca4cebf71ba98eeadabe20bace016020526040902090565b601f909101601f19168101906001600160401b0382119082101761056357604052565b81601f82011215610102578035906001600160401b0382116105635760405192610d83601f8401601f191660200185610d2c565b8284526020838301011161010257816000926020809301838601378301015290565b6001600160401b0381116105635760051b60200190565b90600182811c92168015610dec575b6020831014610dd657565b634e487b7160e01b600052602260045260246000fd5b91607f1691610dcb565b8051821015610e0a5760209160051b010190565b634e487b7160e01b600052603260045260246000fd5b604091949392606082019560018060a01b0316825260208201520152565b916001600160a01b038084169283156108e45716928315610ed457600090838252600080516020610fc783398151915280602052604083205491848310610eb557508284600080516020611027833981519152959360409388602097528652038282205586815220818154019055604051908152a3565b90506108e08460405193849363391434e360e21b855260048501610e20565b60405163ec442f0560e01b815260006004820152602490fd5b6001600160a01b0316908115610ed4576000805160206110078339815191528054908282018092116103e3576000926000805160206110278339815191529260209255848452600080516020610fc7833981519152825260408420818154019055604051908152a3565b60ff6000805160206110478339815191525460401c1615610f7457565b604051631afcd79f60e31b8152600490fdfe2ae08a8e29253f69ac5d979a101956ab8f8d9d7ded63fa7a83b16fc47648eab052c63247e1f47db19d5ce0460030c497f067ca4cebf71ba98eeadabe20bace0352c63247e1f47db19d5ce0460030c497f067ca4cebf71ba98eeadabe20bace0052c63247e1f47db19d5ce0460030c497f067ca4cebf71ba98eeadabe20bace0452c63247e1f47db19d5ce0460030c497f067ca4cebf71ba98eeadabe20bace02ddf252ad1be2c89b69c2b068fc378daa952ba7f163c4a11628f55a4df523b3eff0c57e16840df040f15088dc2f81fe391c3923bec73e23a9662efc9c229c6a00a2646970667358221220f689d704e61103f83ebf9e14c3597a6372e671b4865792a62beb75b12b7805cb64736f6c63430008160033",
  "linkReferences": {},
  "deployedLinkReferences": {}
}