{
  "_format": "hh-sol-artifact-1",
  "contractName": "TestTermAaveInterfaceFacetHelper",
  "sourceName": "contracts/test/TestTermAaveInterfaceFacetHelper.sol",
  "abi": [
    {
      "inputs": [
        {
          "internalType": "address",
          "name": "target",
          "type": "address"
        }
      ],
      "name": "AddressEmptyCode",
      "type": "error"
    },
    {
      "inputs": [],
      "name": "Expired",
      "type": "error"
    },
    {
      "inputs": [],
      "name": "FailedCall",
      "type": "error"
    },
    {
      "inputs": [],
      "name": "InputOutputTokenCollision",
      "type": "error"
    },
    {
      "inputs": [],
      "name": "InsufficientCreditDelegationAllowance",
      "type": "error"
    },
    {
      "inputs": [],
      "name": "InvalidATokenAddress",
      "type": "error"
    },
    {
      "inputs": [],
      "name": "InvalidAavePoolAddress",
      "type": "error"
    },
    {
      "inputs": [],
      "name": "InvalidAmount",
      "type": "error"
    },
    {
      "inputs": [],
      "name": "InvalidAssetAddress",
      "type": "error"
    },
    {
      "inputs": [],
      "name": "InvalidDelegatorAddress",
      "type": "error"
    },
    {
      "inputs": [],
      "name": "InvalidRateMode",
      "type": "error"
    },
    {
      "inputs": [],
      "name": "InvalidUserAddress",
      "type": "error"
    },
    {
      "inputs": [],
      "name": "InvalidVariableDebtTokenAddress",
      "type": "error"
    },
    {
      "inputs": [],
      "name": "ReentrancyGuardReentrantCall",
      "type": "error"
    },
    {
      "inputs": [],
      "name": "RepaidAssetsMismatch",
      "type": "error"
    },
    {
      "inputs": [
        {
          "internalType": "uint8",
          "name": "bits",
          "type": "uint8"
        },
        {
          "internalType": "uint256",
          "name": "value",
          "type": "uint256"
        }
      ],
      "name": "SafeCastOverflowedUintDowncast",
      "type": "error"
    },
    {
      "inputs": [
        {
          "internalType": "address",
          "name": "token",
          "type": "address"
        }
      ],
      "name": "SafeERC20FailedOperation",
      "type": "error"
    },
    {
      "inputs": [],
      "name": "SupplyAmountMismatch",
      "type": "error"
    },
    {
      "inputs": [],
      "name": "SupplyAssetMismatch",
      "type": "error"
    },
    {
      "inputs": [],
      "name": "UnsupportedHookSelector",
      "type": "error"
    },
    {
      "inputs": [],
      "name": "UnsupportedSelector",
      "type": "error"
    },
    {
      "inputs": [],
      "name": "WithdrawalAmountMismatch",
      "type": "error"
    },
    {
      "anonymous": false,
      "inputs": [
        {
          "indexed": false,
          "internalType": "address",
          "name": "taker",
          "type": "address"
        },
        {
          "indexed": false,
          "internalType": "uint256",
          "name": "fillAmount",
          "type": "uint256"
        }
      ],
      "name": "SettleLimitBorrowCalled",
      "type": "event"
    },
    {
      "anonymous": false,
      "inputs": [
        {
          "indexed": false,
          "internalType": "address",
          "name": "taker",
          "type": "address"
        },
        {
          "indexed": false,
          "internalType": "uint256",
          "name": "fillAmount",
          "type": "uint256"
        }
      ],
      "name": "SettleLimitLendCalled",
      "type": "event"
    },
    {
      "anonymous": false,
      "inputs": [
        {
          "indexed": false,
          "internalType": "address",
          "name": "taker",
          "type": "address"
        },
        {
          "indexed": false,
          "internalType": "uint256",
          "name": "fillAmount",
          "type": "uint256"
        }
      ],
      "name": "SwapRepoTokenCalled",
      "type": "event"
    },
    {
      "inputs": [
        {
          "internalType": "address",
          "name": "aavePool",
          "type": "address"
        },
        {
          "internalType": "address",
          "name": "asset",
          "type": "address"
        },
        {
          "internalType": "uint256",
          "name": "amount",
          "type": "uint256"
        },
        {
          "internalType": "uint256",
          "name": "deadline",
          "type": "uint256"
        },
        {
          "internalType": "uint8",
          "name": "v",
          "type": "uint8"
        },
        {
          "internalType": "bytes32",
          "name": "r",
          "type": "bytes32"
        },
        {
          "internalType": "bytes32",
          "name": "s",
          "type": "bytes32"
        }
      ],
      "name": "aaveApproveDelegationWithSig",
      "outputs": [],
      "stateMutability": "nonpayable",
      "type": "function"
    },
    {
      "inputs": [
        {
          "internalType": "address",
          "name": "aavePool",
          "type": "address"
        },
        {
          "internalType": "address",
          "name": "asset",
          "type": "address"
        },
        {
          "internalType": "uint256",
          "name": "amount",
          "type": "uint256"
        }
      ],
      "name": "aaveBorrow",
      "outputs": [],
      "stateMutability": "nonpayable",
      "type": "function"
    },
    {
      "inputs": [
        {
          "internalType": "address",
          "name": "aavePool",
          "type": "address"
        },
        {
          "internalType": "address",
          "name": "asset",
          "type": "address"
        },
        {
          "internalType": "uint256",
          "name": "amount",
          "type": "uint256"
        },
        {
          "internalType": "address",
          "name": "onBehalfOf",
          "type": "address"
        },
        {
          "internalType": "bool",
          "name": "payoutToUser",
          "type": "bool"
        }
      ],
      "name": "aaveBorrow",
      "outputs": [],
      "stateMutability": "nonpayable",
      "type": "function"
    },
    {
      "inputs": [
        {
          "components": [
            {
              "internalType": "address",
              "name": "user",
              "type": "address"
            },
            {
              "internalType": "address",
              "name": "inputToken",
              "type": "address"
            },
            {
              "internalType": "uint256",
              "name": "maxInputAmount",
              "type": "uint256"
            },
            {
              "internalType": "address",
              "name": "outputToken",
              "type": "address"
            },
            {
              "internalType": "uint256",
              "name": "minOutputAmount",
              "type": "uint256"
            },
            {
              "internalType": "address",
              "name": "targetAddress",
              "type": "address"
            },
            {
              "internalType": "bytes",
              "name": "additionalCalldata",
              "type": "bytes"
            }
          ],
          "internalType": "struct ActionHookInput",
          "name": "input",
          "type": "tuple"
        }
      ],
      "name": "aaveRefinanceInHook",
      "outputs": [],
      "stateMutability": "nonpayable",
      "type": "function"
    },
    {
      "inputs": [
        {
          "components": [
            {
              "internalType": "address",
              "name": "user",
              "type": "address"
            },
            {
              "internalType": "address",
              "name": "inputToken",
              "type": "address"
            },
            {
              "internalType": "uint256",
              "name": "maxInputAmount",
              "type": "uint256"
            },
            {
              "internalType": "address",
              "name": "outputToken",
              "type": "address"
            },
            {
              "internalType": "uint256",
              "name": "minOutputAmount",
              "type": "uint256"
            },
            {
              "internalType": "address",
              "name": "targetAddress",
              "type": "address"
            },
            {
              "internalType": "bytes",
              "name": "additionalCalldata",
              "type": "bytes"
            }
          ],
          "internalType": "struct ActionHookInput",
          "name": "input",
          "type": "tuple"
        }
      ],
      "name": "aaveRefinanceOutHook",
      "outputs": [],
      "stateMutability": "nonpayable",
      "type": "function"
    },
    {
      "inputs": [
        {
          "internalType": "address",
          "name": "aavePool",
          "type": "address"
        },
        {
          "internalType": "address",
          "name": "asset",
          "type": "address"
        },
        {
          "internalType": "uint256",
          "name": "amount",
          "type": "uint256"
        },
        {
          "internalType": "address",
          "name": "onBehalfOf",
          "type": "address"
        },
        {
          "internalType": "bool",
          "name": "usePermit2",
          "type": "bool"
        }
      ],
      "name": "aaveRepay",
      "outputs": [],
      "stateMutability": "nonpayable",
      "type": "function"
    },
    {
      "inputs": [
        {
          "internalType": "address",
          "name": "aavePool",
          "type": "address"
        },
        {
          "internalType": "address",
          "name": "asset",
          "type": "address"
        },
        {
          "internalType": "uint256",
          "name": "amount",
          "type": "uint256"
        },
        {
          "internalType": "bool",
          "name": "usePermit2",
          "type": "bool"
        }
      ],
      "name": "aaveRepay",
      "outputs": [],
      "stateMutability": "nonpayable",
      "type": "function"
    },
    {
      "inputs": [
        {
          "internalType": "address",
          "name": "aavePool",
          "type": "address"
        },
        {
          "internalType": "address",
          "name": "asset",
          "type": "address"
        },
        {
          "internalType": "uint256",
          "name": "amount",
          "type": "uint256"
        },
        {
          "internalType": "address",
          "name": "onBehalfOf",
          "type": "address"
        },
        {
          "internalType": "bool",
          "name": "usePermit2",
          "type": "bool"
        }
      ],
      "name": "aaveSupply",
      "outputs": [],
      "stateMutability": "nonpayable",
      "type": "function"
    },
    {
      "inputs": [
        {
          "internalType": "address",
          "name": "aavePool",
          "type": "address"
        },
        {
          "internalType": "address",
          "name": "asset",
          "type": "address"
        },
        {
          "internalType": "uint256",
          "name": "amount",
          "type": "uint256"
        },
        {
          "internalType": "bool",
          "name": "usePermit2",
          "type": "bool"
        }
      ],
      "name": "aaveSupply",
      "outputs": [],
      "stateMutability": "nonpayable",
      "type": "function"
    },
    {
      "inputs": [
        {
          "internalType": "address",
          "name": "aavePool",
          "type": "address"
        },
        {
          "internalType": "address",
          "name": "asset",
          "type": "address"
        },
        {
          "internalType": "uint256",
          "name": "amount",
          "type": "uint256"
        }
      ],
      "name": "aaveWithdrawOnBehalfOf",
      "outputs": [],
      "stateMutability": "nonpayable",
      "type": "function"
    },
    {
      "inputs": [
        {
          "internalType": "address",
          "name": "aavePool",
          "type": "address"
        },
        {
          "internalType": "address",
          "name": "asset",
          "type": "address"
        },
        {
          "internalType": "uint256",
          "name": "amount",
          "type": "uint256"
        },
        {
          "internalType": "address",
          "name": "user",
          "type": "address"
        },
        {
          "internalType": "bool",
          "name": "payoutToUser",
          "type": "bool"
        }
      ],
      "name": "aaveWithdrawOnBehalfOf",
      "outputs": [],
      "stateMutability": "nonpayable",
      "type": "function"
    },
    {
      "inputs": [
        {
          "internalType": "address",
          "name": "controller",
          "type": "address"
        }
      ],
      "name": "addApprovedTermController",
      "outputs": [],
      "stateMutability": "nonpayable",
      "type": "function"
    },
    {
      "inputs": [
        {
          "internalType": "address",
          "name": "aavePool",
          "type": "address"
        },
        {
          "internalType": "address",
          "name": "asset",
          "type": "address"
        },
        {
          "internalType": "address",
          "name": "user",
          "type": "address"
        }
      ],
      "name": "availableBorrow",
      "outputs": [
        {
          "internalType": "uint256",
          "name": "availableAmount",
          "type": "uint256"
        }
      ],
      "stateMutability": "view",
      "type": "function"
    },
    {
      "inputs": [
        {
          "internalType": "address",
          "name": "aavePool",
          "type": "address"
        },
        {
          "internalType": "address",
          "name": "asset",
          "type": "address"
        },
        {
          "internalType": "address",
          "name": "user",
          "type": "address"
        }
      ],
      "name": "availableFunds",
      "outputs": [
        {
          "internalType": "uint256",
          "name": "",
          "type": "uint256"
        }
      ],
      "stateMutability": "view",
      "type": "function"
    },
    {
      "inputs": [],
      "name": "clearActiveFlashLoanBorrower",
      "outputs": [],
      "stateMutability": "nonpayable",
      "type": "function"
    },
    {
      "inputs": [],
      "name": "clearActiveSettlementMaker",
      "outputs": [],
      "stateMutability": "nonpayable",
      "type": "function"
    },
    {
      "inputs": [],
      "name": "clearAtomicTxInitiator",
      "outputs": [],
      "stateMutability": "nonpayable",
      "type": "function"
    },
    {
      "inputs": [],
      "name": "clearMulticallInitiator",
      "outputs": [],
      "stateMutability": "nonpayable",
      "type": "function"
    },
    {
      "inputs": [
        {
          "internalType": "address",
          "name": "user",
          "type": "address"
        },
        {
          "internalType": "address",
          "name": "inputToken",
          "type": "address"
        },
        {
          "internalType": "uint256",
          "name": "maxInputAmount",
          "type": "uint256"
        },
        {
          "internalType": "address",
          "name": "outputToken",
          "type": "address"
        },
        {
          "internalType": "uint256",
          "name": "minOutputAmount",
          "type": "uint256"
        },
        {
          "internalType": "bytes4",
          "name": "selector",
          "type": "bytes4"
        },
        {
          "internalType": "address",
          "name": "targetAddress",
          "type": "address"
        },
        {
          "internalType": "bytes",
          "name": "additionalCalldata",
          "type": "bytes"
        }
      ],
      "name": "generateActionCalldata",
      "outputs": [
        {
          "components": [
            {
              "internalType": "address",
              "name": "expectedInputToken",
              "type": "address"
            },
            {
              "internalType": "uint256",
              "name": "expectedInputAmount",
              "type": "uint256"
            },
            {
              "internalType": "address",
              "name": "expectedOutputToken",
              "type": "address"
            },
            {
              "internalType": "uint256",
              "name": "expectedOutputAmount",
              "type": "uint256"
            },
            {
              "internalType": "bool",
              "name": "isDeterministic",
              "type": "bool"
            }
          ],
          "internalType": "struct PreviewAction",
          "name": "",
          "type": "tuple"
        },
        {
          "internalType": "bytes",
          "name": "",
          "type": "bytes"
        }
      ],
      "stateMutability": "view",
      "type": "function"
    },
    {
      "inputs": [
        {
          "internalType": "bytes4",
          "name": "selector",
          "type": "bytes4"
        },
        {
          "internalType": "address",
          "name": "aavePool",
          "type": "address"
        },
        {
          "internalType": "address",
          "name": "asset",
          "type": "address"
        },
        {
          "internalType": "address",
          "name": "user",
          "type": "address"
        },
        {
          "internalType": "uint256",
          "name": "amount",
          "type": "uint256"
        },
        {
          "internalType": "bool",
          "name": "payoutUser",
          "type": "bool"
        },
        {
          "internalType": "bytes",
          "name": "data",
          "type": "bytes"
        }
      ],
      "name": "generateCalldata",
      "outputs": [
        {
          "internalType": "bytes",
          "name": "",
          "type": "bytes"
        }
      ],
      "stateMutability": "view",
      "type": "function"
    },
    {
      "inputs": [
        {
          "internalType": "address",
          "name": "token",
          "type": "address"
        }
      ],
      "name": "getAssetBalance",
      "outputs": [
        {
          "internalType": "uint256",
          "name": "",
          "type": "uint256"
        }
      ],
      "stateMutability": "view",
      "type": "function"
    },
    {
      "inputs": [
        {
          "components": [
            {
              "internalType": "address",
              "name": "user",
              "type": "address"
            },
            {
              "internalType": "address",
              "name": "inputToken",
              "type": "address"
            },
            {
              "internalType": "uint256",
              "name": "maxInputAmount",
              "type": "uint256"
            },
            {
              "internalType": "address",
              "name": "outputToken",
              "type": "address"
            },
            {
              "internalType": "uint256",
              "name": "minOutputAmount",
              "type": "uint256"
            },
            {
              "internalType": "address",
              "name": "targetAddress",
              "type": "address"
            },
            {
              "internalType": "bytes",
              "name": "additionalCalldata",
              "type": "bytes"
            }
          ],
          "internalType": "struct ActionHookInput",
          "name": "actionHookInput",
          "type": "tuple"
        }
      ],
      "name": "previewAaveRefinanceIn",
      "outputs": [
        {
          "components": [
            {
              "internalType": "address",
              "name": "expectedInputToken",
              "type": "address"
            },
            {
              "internalType": "uint256",
              "name": "expectedInputAmount",
              "type": "uint256"
            },
            {
              "internalType": "address",
              "name": "expectedOutputToken",
              "type": "address"
            },
            {
              "internalType": "uint256",
              "name": "expectedOutputAmount",
              "type": "uint256"
            },
            {
              "internalType": "bool",
              "name": "isDeterministic",
              "type": "bool"
            }
          ],
          "internalType": "struct PreviewAction",
          "name": "",
          "type": "tuple"
        }
      ],
      "stateMutability": "view",
      "type": "function"
    },
    {
      "inputs": [
        {
          "components": [
            {
              "internalType": "address",
              "name": "user",
              "type": "address"
            },
            {
              "internalType": "address",
              "name": "inputToken",
              "type": "address"
            },
            {
              "internalType": "uint256",
              "name": "maxInputAmount",
              "type": "uint256"
            },
            {
              "internalType": "address",
              "name": "outputToken",
              "type": "address"
            },
            {
              "internalType": "uint256",
              "name": "minOutputAmount",
              "type": "uint256"
            },
            {
              "internalType": "address",
              "name": "targetAddress",
              "type": "address"
            },
            {
              "internalType": "bytes",
              "name": "additionalCalldata",
              "type": "bytes"
            }
          ],
          "internalType": "struct ActionHookInput",
          "name": "actionHookInput",
          "type": "tuple"
        }
      ],
      "name": "previewAaveRefinanceOut",
      "outputs": [
        {
          "components": [
            {
              "internalType": "address",
              "name": "expectedInputToken",
              "type": "address"
            },
            {
              "internalType": "uint256",
              "name": "expectedInputAmount",
              "type": "uint256"
            },
            {
              "internalType": "address",
              "name": "expectedOutputToken",
              "type": "address"
            },
            {
              "internalType": "uint256",
              "name": "expectedOutputAmount",
              "type": "uint256"
            },
            {
              "internalType": "bool",
              "name": "isDeterministic",
              "type": "bool"
            }
          ],
          "internalType": "struct PreviewAction",
          "name": "",
          "type": "tuple"
        }
      ],
      "stateMutability": "view",
      "type": "function"
    },
    {
      "inputs": [
        {
          "internalType": "bytes4",
          "name": "",
          "type": "bytes4"
        }
      ],
      "name": "previewMapping",
      "outputs": [
        {
          "internalType": "bytes4",
          "name": "",
          "type": "bytes4"
        }
      ],
      "stateMutability": "view",
      "type": "function"
    },
    {
      "inputs": [
        {
          "internalType": "address",
          "name": "aavePool",
          "type": "address"
        },
        {
          "internalType": "address",
          "name": "asset",
          "type": "address"
        },
        {
          "internalType": "uint256",
          "name": "amount",
          "type": "uint256"
        },
        {
          "internalType": "address",
          "name": "user",
          "type": "address"
        },
        {
          "internalType": "bool",
          "name": "payoutToUser",
          "type": "bool"
        }
      ],
      "name": "selfCallBorrow",
      "outputs": [],
      "stateMutability": "nonpayable",
      "type": "function"
    },
    {
      "inputs": [
        {
          "internalType": "address",
          "name": "aavePool",
          "type": "address"
        },
        {
          "internalType": "address",
          "name": "asset",
          "type": "address"
        },
        {
          "internalType": "uint256",
          "name": "amount",
          "type": "uint256"
        },
        {
          "internalType": "address",
          "name": "user",
          "type": "address"
        },
        {
          "internalType": "bool",
          "name": "usePermit2",
          "type": "bool"
        }
      ],
      "name": "selfCallSupply",
      "outputs": [],
      "stateMutability": "nonpayable",
      "type": "function"
    },
    {
      "inputs": [
        {
          "internalType": "address",
          "name": "aavePool",
          "type": "address"
        },
        {
          "internalType": "address",
          "name": "asset",
          "type": "address"
        },
        {
          "internalType": "uint256",
          "name": "amount",
          "type": "uint256"
        },
        {
          "internalType": "address",
          "name": "user",
          "type": "address"
        },
        {
          "internalType": "bool",
          "name": "payoutToUser",
          "type": "bool"
        }
      ],
      "name": "selfCallWithdraw",
      "outputs": [],
      "stateMutability": "nonpayable",
      "type": "function"
    },
    {
      "inputs": [
        {
          "internalType": "address",
          "name": "borrower",
          "type": "address"
        }
      ],
      "name": "setActiveFlashLoanBorrower",
      "outputs": [],
      "stateMutability": "nonpayable",
      "type": "function"
    },
    {
      "inputs": [
        {
          "internalType": "address",
          "name": "maker",
          "type": "address"
        }
      ],
      "name": "setActiveSettlementMaker",
      "outputs": [],
      "stateMutability": "nonpayable",
      "type": "function"
    },
    {
      "inputs": [
        {
          "internalType": "address",
          "name": "initiator_",
          "type": "address"
        }
      ],
      "name": "setAtomicTxInitiator",
      "outputs": [],
      "stateMutability": "nonpayable",
      "type": "function"
    },
    {
      "inputs": [
        {
          "internalType": "address",
          "name": "initiator_",
          "type": "address"
        }
      ],
      "name": "setMulticallInitiator",
      "outputs": [],
      "stateMutability": "nonpayable",
      "type": "function"
    },
    {
      "inputs": [
        {
          "components": [
            {
              "internalType": "address",
              "name": "repoServicer",
              "type": "address"
            },
            {
              "internalType": "uint256",
              "name": "purchaseTokenAmount",
              "type": "uint256"
            },
            {
              "internalType": "uint256[]",
              "name": "collateralAmounts",
              "type": "uint256[]"
            },
            {
              "internalType": "uint256",
              "name": "offerRate",
              "type": "uint256"
            },
            {
              "internalType": "address",
              "name": "maker",
              "type": "address"
            },
            {
              "internalType": "address",
              "name": "taker",
              "type": "address"
            },
            {
              "internalType": "uint256",
              "name": "borrowFee",
              "type": "uint256"
            },
            {
              "internalType": "address",
              "name": "feeRecipient",
              "type": "address"
            },
            {
              "internalType": "uint256",
              "name": "expiry",
              "type": "uint256"
            },
            {
              "internalType": "uint256",
              "name": "salt",
              "type": "uint256"
            },
            {
              "components": [
                {
                  "internalType": "bytes4",
                  "name": "method",
                  "type": "bytes4"
                },
                {
                  "internalType": "address",
                  "name": "target",
                  "type": "address"
                },
                {
                  "internalType": "bytes",
                  "name": "additionalCalldata",
                  "type": "bytes"
                }
              ],
              "internalType": "struct ITermIntent.RetrieveFundsStruct[]",
              "name": "retrieveFundsList",
              "type": "tuple[]"
            }
          ],
          "internalType": "struct ITermIntent.LimitBorrowOrder",
          "name": "",
          "type": "tuple"
        },
        {
          "internalType": "address",
          "name": "taker",
          "type": "address"
        },
        {
          "internalType": "uint256",
          "name": "fillAmount",
          "type": "uint256"
        },
        {
          "components": [
            {
              "internalType": "enum ITermIntent.SignatureType",
              "name": "sigType",
              "type": "uint8"
            },
            {
              "internalType": "bytes",
              "name": "sigData",
              "type": "bytes"
            }
          ],
          "internalType": "struct ITermIntent.Signature",
          "name": "",
          "type": "tuple"
        }
      ],
      "name": "settleLimitBorrow",
      "outputs": [],
      "stateMutability": "nonpayable",
      "type": "function"
    },
    {
      "inputs": [
        {
          "components": [
            {
              "internalType": "address",
              "name": "repoServicer",
              "type": "address"
            },
            {
              "internalType": "uint256",
              "name": "purchaseTokenAmount",
              "type": "uint256"
            },
            {
              "internalType": "uint256",
              "name": "offerRate",
              "type": "uint256"
            },
            {
              "internalType": "address",
              "name": "maker",
              "type": "address"
            },
            {
              "internalType": "address",
              "name": "taker",
              "type": "address"
            },
            {
              "internalType": "uint256",
              "name": "borrowFee",
              "type": "uint256"
            },
            {
              "internalType": "address",
              "name": "feeRecipient",
              "type": "address"
            },
            {
              "internalType": "uint256",
              "name": "expiry",
              "type": "uint256"
            },
            {
              "internalType": "uint256",
              "name": "salt",
              "type": "uint256"
            },
            {
              "components": [
                {
                  "internalType": "bytes4",
                  "name": "method",
                  "type": "bytes4"
                },
                {
                  "internalType": "address",
                  "name": "target",
                  "type": "address"
                },
                {
                  "internalType": "bytes",
                  "name": "additionalCalldata",
                  "type": "bytes"
                }
              ],
              "internalType": "struct ITermIntent.RetrieveFundsStruct",
              "name": "retrieveFunds",
              "type": "tuple"
            }
          ],
          "internalType": "struct ITermIntent.LimitLendOrder",
          "name": "",
          "type": "tuple"
        },
        {
          "internalType": "address",
          "name": "taker",
          "type": "address"
        },
        {
          "internalType": "uint256",
          "name": "fillAmount",
          "type": "uint256"
        },
        {
          "internalType": "uint256[]",
          "name": "",
          "type": "uint256[]"
        },
        {
          "components": [
            {
              "internalType": "enum ITermIntent.SignatureType",
              "name": "sigType",
              "type": "uint8"
            },
            {
              "internalType": "bytes",
              "name": "sigData",
              "type": "bytes"
            }
          ],
          "internalType": "struct ITermIntent.Signature",
          "name": "",
          "type": "tuple"
        }
      ],
      "name": "settleLimitLend",
      "outputs": [],
      "stateMutability": "nonpayable",
      "type": "function"
    },
    {
      "inputs": [
        {
          "components": [
            {
              "internalType": "address",
              "name": "repoToken",
              "type": "address"
            },
            {
              "internalType": "bool",
              "name": "makerAssetIsPurchaseToken",
              "type": "bool"
            },
            {
              "internalType": "uint256",
              "name": "purchaseTokenAmount",
              "type": "uint256"
            },
            {
              "internalType": "uint256",
              "name": "discountRate",
              "type": "uint256"
            },
            {
              "internalType": "address",
              "name": "maker",
              "type": "address"
            },
            {
              "internalType": "address",
              "name": "taker",
              "type": "address"
            },
            {
              "internalType": "uint256",
              "name": "makerFee",
              "type": "uint256"
            },
            {
              "internalType": "uint256",
              "name": "takerFee",
              "type": "uint256"
            },
            {
              "internalType": "address",
              "name": "feeRecipient",
              "type": "address"
            },
            {
              "internalType": "uint256",
              "name": "expiry",
              "type": "uint256"
            },
            {
              "internalType": "uint256",
              "name": "salt",
              "type": "uint256"
            },
            {
              "components": [
                {
                  "internalType": "bytes4",
                  "name": "method",
                  "type": "bytes4"
                },
                {
                  "internalType": "address",
                  "name": "target",
                  "type": "address"
                },
                {
                  "internalType": "bytes",
                  "name": "additionalCalldata",
                  "type": "bytes"
                }
              ],
              "internalType": "struct ITermIntent.RetrieveFundsStruct",
              "name": "retrieveFunds",
              "type": "tuple"
            }
          ],
          "internalType": "struct ITermIntent.RepoTokenSwapOrder",
          "name": "",
          "type": "tuple"
        },
        {
          "internalType": "address",
          "name": "taker",
          "type": "address"
        },
        {
          "internalType": "uint256",
          "name": "fillAmount",
          "type": "uint256"
        },
        {
          "components": [
            {
              "internalType": "enum ITermIntent.SignatureType",
              "name": "sigType",
              "type": "uint8"
            },
            {
              "internalType": "bytes",
              "name": "sigData",
              "type": "bytes"
            }
          ],
          "internalType": "struct ITermIntent.Signature",
          "name": "",
          "type": "tuple"
        }
      ],
      "name": "swapRepoToken",
      "outputs": [],
      "stateMutability": "nonpayable",
      "type": "function"
    },
    {
      "inputs": [
        {
          "internalType": "address",
          "name": "pool",
          "type": "address"
        },
        {
          "internalType": "address",
          "name": "asset",
          "type": "address"
        },
        {
          "internalType": "uint256",
          "name": "rateMode",
          "type": "uint256"
        },
        {
          "internalType": "address",
          "name": "delegator",
          "type": "address"
        }
      ],
      "name": "testCheckBorrowAllowance",
      "outputs": [
        {
          "internalType": "uint256",
          "name": "",
          "type": "uint256"
        }
      ],
      "stateMutability": "view",
      "type": "function"
    }
  ],
  "bytecode": "0x6080806040523461009157600160008181556020919091527f2c8d3027efd210626d8b5d9e8591c6682c2f52faf04b6cf0372410e8c9ca73e2805463ffffffff1990811663876f38ff17909155639e3e57dd60e01b9091527fc9f0e1658b692392098422b6e337ab59810f1cabee0c081fce45a5b9f18d4e248054909116635799e79d17905561465190816100978239f35b600080fdfe608060408181526004908136101561001657600080fd5b60009260e08435811c91826306f7664d1461325c57826319d394f31461309857508163255ab7fc14612dc75781632fddc7e114612d2257816336f0104614612be55781633f2b2aa914612ba157816345189bda1461279157816351c7cfbf1461256b5781635373433f146124db5781635799e79d1461218e578482635959557f1461242d5750816363dec09b146121c55781637a498e1d14612193578163876f38ff1461218e578163876f7c5c146120a4578163876f90c21461200257816394ca48fe14611fe05781639e3623f014611faf5781639e3e57dd14611b6a5781639ef72eff14611930578163b9fe8d40146118ff578163c22b8bf0146116fd578163c3246edc146116bd578163c8aba68014611484578163cc5e8d8d146111c3578163cde1a4d214611149578163cedf952c14610cd357848263cf05c31d14610c3f57508163cf56840f14610ab0578163db1fb2d8146107fc578163dda5e05b1461068757508063e0b406c114610665578063eb58755f14610631578063f63227ef1461037b5763fa26d93e146101ab57600080fd5b34610377576101b93661377c565b6000805160206145bc83398151915254929593949193928790815b8160ff8216106102ca575b5050156102bc576001600160a01b0386169081156102ad57879392919015610291575061020b84613d4a565b6e22d473030f116ddee9f6b43ac78ba392833b1561028d5761024a938592838a93865197889586948593631b63c28b60e11b855230903390860161391a565b03925af1908115610284575061026c575b5050610269925b3392613d7d565b80f35b61027590613317565b61028057833861025b565b8380fd5b513d84823e3d90fd5b8480fd5b6102699693506102a8925084915030903390613d01565b610262565b505051630ccd248560e21b8152fd5b505163576b540960e01b8152fd5b6102d38161388e565b9054865163e81cf11760e01b81526001600160a01b038b81168a830152602093919284928492602492849260031b1c165afa91821561036d578c92610333575b50506103275761032290613867565b6101d4565b505050600138806101df565b90809250813d8311610366575b61034a81836133c8565b810103126103625761035b906138cb565b3880610313565b8a80fd5b503d610340565b87513d8e823e3d90fd5b8280fd5b50346103775761038a36613623565b906103948261396f565b60018060a01b036103c56000805160206145fc8339815191529282845416838115159283610625575b5050506138d8565b6103cd61400f565b60a084016103da8161396f565b6000805160206145bc8339815191525488918416825b8260ff821610610582575b505050156105725761040c9061396f565b946104196060860161396f565b8461044460808801359761042f6020820161396f565b6104388261396f565b9889920135908b614032565b600092848316988915610563578815610554578588169384156105445761046d898b9284613abb565b10610535578516803b1561028d5760a48592838c938651978895869463a415bcad60e01b86528501528d60248501526002604485015282606485015260848401525af19081156102845750610526575b50908060008051602061457c833981519152541615928361051a575b50508161050f575b8115610507575b506104f6575b836001815580f35b6104ff926142f9565b3880806104ee565b9050386104e8565b3330141591506104e1565b541615915038806104d9565b61052f90613317565b386104bd565b509051630360130760e41b8152fd5b8351630702b3d960e41b81528390fd5b50905163162908e360e11b8152fd5b509051630ccd248560e21b8152fd5b835163576b540960e01b81528690fd5b61058b8161388e565b90549089519063e81cf11760e01b8252848d830152816024818b602096879560031b1c165afa91821561061b578d926105e1575b50506105d3576105ce90613867565b6103f0565b5050505060013880806103fb565b90809250813d8311610614575b6105f881836133c8565b8101031261061057610609906138cb565b38806105bf565b8b80fd5b503d6105ee565b8a513d8f823e3d90fd5b161490503883816103bd565b83346106625780600319360112610662576000805160206145fc83398151915280546001600160a01b031916905580f35b80fd5b8334610662576020366003190112610662576102696106826132ab565b6137d9565b92919050346102805760031960803682011261028d576001600160401b03938335908582116107de57610180809383360301126107de578351928301838110878211176107e75784526106db828601613303565b8352602482013580151581036107e25760208401526044820135848401526064820135606084015261070f60848301613303565b608084015261072060a48301613303565b60a084015260c482013560c084015260e4820135908301526107456101048201613303565b6101008301526101248101356101208301526101448101356101408301526101648101358581116107de57610160918561078292369201016134db565b91015261078d6132c1565b9060643593841161028d576107c96107d8937fb9802f761262c639de778cc189664aa21f9f9e6bc3d6844354b4fb92661e31089536910161354c565b505191829160443590836137be565b0390a180f35b8680fd5b600080fd5b604186634e487b7160e01b6000525260246000fd5b505090346103775761080d3661359f565b9295919490936001600160a01b0393928486169290913384148015610a6c575b8015610a33575b61083d906138d8565b898a6000805160206145bc83398151915254905b8160ff82161061098e575b50501561097f5785891698891561096f57881561095f57841561054457610885888a9284613abb565b1061053557851690813b156107e25760a48991600080948651978895869463a415bcad60e01b86528501528c60248501526002604485015282606485015260848401525af19081156109555750610946575b508160008051602061457c833981519152541615918261092c575b5081610921575b8115610919575b50610909578380f35b610912926142f9565b3880808380f35b905038610900565b3330141591506108f9565b6000805160206145fc8339815191525416159150386108f2565b61094f90613317565b386108d7565b513d6000823e3d90fd5b835163162908e360e11b81528390fd5b8351630ccd248560e21b81528390fd5b50905163576b540960e01b8152fd5b8c602461099a8361388e565b9054908c8a519384809263e81cf11760e01b8252808c168d830152602095869560031b1c165afa928315610a2857926109ee575b50506109e2576109dd90613867565b610851565b5050506001388061085c565b90809250813d8311610a21575b610a0581836133c8565b81010312610a1d57610a16906138cb565b38806109ce565b8d80fd5b503d6109fb565b8951903d90823e3d90fd5b50856000805160206145dc8339815191525416848115159182610a62575b505080156108345750333014610834565b1490508438610a51565b5030331480610a96575b801561082d5750838660008051602061455c83398151915254161461082d565b508560008051602061455c83398151915254161515610a76565b50503461037757610ac03661377c565b6000805160206145bc83398151915254929593949193928790815b8160ff821610610ba0575b5050156102bc576001600160a01b0386169081156102ad57879392919015610b845750610b1284613d4a565b6e22d473030f116ddee9f6b43ac78ba392833b1561028d57610b51938592838a93865197889586948593631b63c28b60e11b855230903390860161391a565b03925af19081156102845750610b70575b5050610269925b3392614032565b610b7990613317565b610280578338610b62565b610269969350610b9b925084915030903390613d01565b610b69565b610ba98161388e565b9054865163e81cf11760e01b81526001600160a01b038b81168a830152602093919284928492602492849260031b1c165afa91821561036d578c92610c09575b5050610bfd57610bf890613867565b610adb565b50505060013880610ae6565b90809250813d8311610c38575b610c2081836133c8565b8101031261036257610c31906138cb565b3880610be9565b503d610c16565b80858534610ccf57610c503661359f565b610c5e8295949793926137d9565b303b15610ccb578794610c839287519889968796630191574d60e71b88528701613835565b038183305af19081156102845750610cb7575b506000805160206145dc83398151915280546001600160a01b031916905580f35b610cc090613317565b610662578082610c96565b8780fd5b5050fd5b50503461037757610ce33661359f565b9295919490936001600160a01b03939290918486163381148015611105575b80156110cc575b610d12906138d8565b898a6000805160206145bc83398151915254905b8160ff821610611029575b5050156102bc578589169889156102ad57881561101a57811561100b5790610d5a879286613e7a565b50903003610ff8575b16928151906370a0823160e01b808352308584015260209182846024818a5afa908115610f8357600091610fc8575b60249450838d875196878092878252308c8301525afa948515610f17578a8d99989796959493928f92600097610f8e575b508860008794936064938b519e8f968795631a4ca37b60e21b87528601526024850152306044850152165af1978815610f8357600098610f54575b50845191808352308784015283836024818b5afa928315610f17578e918591600095610f22575b5060248851809481938252308c8301525afa938415610f1757908d939291600095610ee0575b505090610e5791613cf4565b9603610ed1578991610e6891613cf4565b03610ec457505084868310610ea9575b5050508160008051602061457c833981519152541615918261092c5750816109215781156109195750610909578380f35b610eb6610ebc9388613cf4565b916142f9565b388084610e78565b516390ad522f60e01b8152fd5b5050516390ad522f60e01b8152fd5b80929550819394503d8311610f10575b610efa81836133c8565b810103126107e25751918b9190610e5738610e4b565b503d610ef0565b86513d6000823e3d90fd5b9250935081813d8311610f4d575b610f3a81836133c8565b810103126107e257838e91519338610e25565b503d610f30565b9097508281813d8311610f7c575b610f6c81836133c8565b810103126107e257519638610dfe565b503d610f62565b85513d6000823e3d90fd5b9a50955050508288813d8311610fc1575b610fa981836133c8565b810103126107e25796518b9790938d908b9088610dc3565b503d610f9f565b90508284813d8311610ff1575b610fdf81836133c8565b810103126107e2576024935190610d92565b503d610fd5565b61100689308a858516613d01565b610d63565b505051630702b3d960e41b8152fd5b50505163162908e360e11b8152fd5b8c866110348361388e565b9054908c60248c828c51968794859363e81cf11760e01b85521690830152602095869560031b1c165afa9283156110c1579261108b575b505061107f5761107a90613867565b610d26565b50505060013880610d31565b90809250813d83116110ba575b6110a281836133c8565b81010312610a1d576110b3906138cb565b388061106b565b503d611098565b8851903d90823e3d90fd5b50856000805160206145dc83398151915254168181151591826110fb575b50508015610d095750333014610d09565b14905081386110ea565b503033148061112f575b8015610d025750808660008051602061455c833981519152541614610d02565b508560008051602061455c8339815191525416151561110f565b838534610662576020366003190112610662576111646132ab565b6000805160206145bc833981519152805490600160401b8210156111b0576001820190556111919061388e565b60018060a09493941b038084549260031b9316831b921b191617905580f35b634e487b7160e01b845260418552602484fd5b50508234610662576060366003190112610662576111df6132ab565b906111e86132c1565b906111f16132ed565b8451630150a5d760e21b81526020966001600160a01b03958616949092909188818581895afa90811561144d57879392918a918791611457575b50858a5180968193631f94a27560e31b8352165afa92831561144d57908791869461140d575b508851632fe4a15f60e21b81529116848201529460c090869060249082905afa948515611403578891879186976113c6575b506024908951988993849263b3596f0760e01b845216958688840152165afa94851561138b579087918496611395575b50865163313ce56760e01b815291908290849082905afa90811561138b578391611354575b50841590816113485760ff16604d811161133557600a0a938481029481860414901517156113225761130f57505004905b51908152f35b634e487b7160e01b825260129052602490fd5b634e487b7160e01b835260118252602483fd5b634e487b7160e01b845260118352602484fd5b50505091505090611309565b90508681813d8311611384575b61136b81836133c8565b81010312610377575160ff8116810361037757876112d8565b503d611361565b86513d85823e3d90fd5b8281939297503d83116113bf575b6113ad81836133c8565b810103126107e25751938690826112b3565b503d6113a3565b925095505060c0813d60c0116113fb575b816113e460c093836133c8565b8101031261028057856024888a9301519690611283565b3d91506113d7565b87513d86823e3d90fd5b8a809295508193503d8311611446575b61142781836133c8565b8101031261028d5786602461143d60c093613a74565b94919250611251565b503d61141d565b88513d87823e3d90fd5b6114779150823d841161147d575b61146f81836133c8565b810190613a88565b8b61122b565b503d611465565b505034610377576114943661359f565b9395909491939091906001600160a01b038087163381148015611679575b8015611637575b6114c391506138d8565b88896000805160206145bc83398151915254905b8160ff82161061159e575b50501561158f5784169081156102ad57889392919015611574575061150685613d4a565b916e22d473030f116ddee9f6b43ac78ba392833b1561028d5785938592838a611544875198899687958694631b63c28b60e11b86523091860161391a565b03925af19081156102845750611560575b505061026993614032565b61156990613317565b61028d578438611555565b61026997935061158a9250859150863091613d01565b614032565b50505163576b540960e01b8152fd5b8b8b6115a98361388e565b905490878a519363e81cf11760e01b8552168b840152826024818a602095869560031b1c165afa928315610a2857926115fd575b50506115f1576115ec90613867565b6114d7565b505050600138806114e2565b90809250813d8311611630575b61161481836133c8565b8101031261162c57611625906138cb565b38806115dd565b8c80fd5b503d61160a565b50816000805160206145dc833981519152541690811515918261166f575b505080611666575b6114c3906114b9565b5033301461165d565b1490503880611655565b50303314806116a3575b80156114b25750808260008051602061455c8339815191525416146114b2565b508160008051602061455c83398151915254161515611683565b82859134610377576020366003190112610377576020926001600160e01b031991908390836116ea613462565b168152600186522054901b915191168152f35b505090346103775761170e366135ee565b92909385866000805160206145bc83398151915254905b8160ff82161061184f575b505015611842576001600160a01b038581169590939086156102ad57851561101a57331561100b576117658691339084613abb565b1061183457831691823b156107e2578560a4600092838551968794859363a415bcad60e01b8552840152896024840152600260448401528160648401523360848401525af19081156109555750611825575b508060008051602061457c833981519152541615908161180b575b5080611801575b80156117f9575b6117e8578280f35b6117f39133906142f9565b38808280f35b5060016117e0565b50303314156117d9565b90506000805160206145fc833981519152541615386117d2565b61182e90613317565b386117b7565b5051630360130760e41b8152fd5b5163576b540960e01b8152fd5b602461185a8261388e565b9054865163e81cf11760e01b81526001600160a01b038a81168a83015260209491938593859392849260031b9190911c165afa9182156118f5578b926118bb575b50506118af576118aa90613867565b611725565b50505060013880611730565b90809250813d83116118ee575b6118d281836133c8565b810103126118ea576118e3906138cb565b388061189b565b8980fd5b503d6118c8565b86513d8d823e3d90fd5b843461066257806003193601126106625760008051602061457c83398151915280546001600160a01b031916905580f35b9291905034610280576101003660031901126102805761194e6132ab565b926119576132c1565b61195f6132d7565b6001600160e01b03199660a435968888169291908389036107e2576001600160a01b039760c4358981169491908590036107e25760e4356001600160401b03811161028d576119b19036908301613494565b956119ba613944565b5084526020976001895289852054901b9b8c1615611b5c575082899a9b611a76938b8394818d9e611a309e51946119f086613340565b169b8c8552168c8401528d6044359084015216606082015260843560808201528660a08201528760c08201528b519a8b918b830193845260248301613a11565b0399611a44601f199b8c81018352826133c8565b5190305afa3d15611b54573d90611a5a82613479565b91611a678b5193846133c8565b82523d848984013e5b306144f8565b9060a0828051810103126106625750611b3593611b3f999693889693611b2993611b509a519b611aa58d61335b565b898d82611ab38a8601613a74565b8083528386015192838c820152611acc60608801613a74565b80958201526080611ae960a0828a0151998a6060860152016138cb565b9101528d5198611af88a613340565b895216898801528b870152166060850152608084015260a083015260c0820152855196879384015260248301613a11565b039081018452836133c8565b5193848094613654565b60c060a084015260c083019061373c565b0390f35b606090611a70565b8851631416e68f60e01b8152fd5b5050903461037757611b7b36613623565b91611b858361396f565b60018060a01b03611bb56000805160206145fc8339815191529282845416838115159283610625575050506138d8565b611bbd61400f565b60a08501611bca8161396f565b6000805160206145bc8339815191525488918416825b8260ff821610611f1a575b50505015611f0a57611bfc9061396f565b9360209084611c0c83890161396f565b96611c38611c1c60608b0161396f565b99608081013599611c2c8261396f565b998a9201359084613d7d565b8489169889156102ad57881561101a57858816908115611efa5790611c5e879284613e7a565b50903003611ee7575b16938251916370a0823160e01b90818452308685015282846024818a5afa908115610f8357600091611eb7575b60249450838d875196878092878252308c8301525afa948515610f1757898d99989796959493928f92600097611e7d575b508860008794936064938b519e8f968795631a4ca37b60e21b87528601526024850152306044850152165af1978815610f8357600098611e4e575b50845191808352308784015283836024818b5afa928315610f17578e918591600095611e1c575b5060248851809481938252308c8301525afa938415610f1757908d939291600095611de5575b505090611d5991613cf4565b9603610ed1578991611d6a91613cf4565b03610ec457505084868310611dd0575b5050508060008051602061457c8339815191525416159182611dc4575b505080611dba575b8015611db2575b6104f657836001815580f35b506000611da6565b5030331415611d9f565b54161590503880611d97565b610eb6611ddd9388613cf4565b388084611d7a565b80929550819394503d8311611e15575b611dff81836133c8565b810103126107e25751918b9190611d5938611d4d565b503d611df5565b9250935081813d8311611e47575b611e3481836133c8565b810103126107e257838e91519338611d27565b503d611e2a565b9097508281813d8311611e76575b611e6681836133c8565b810103126107e257519638611d00565b503d611e5c565b9a50955050508288813d8311611eb0575b611e9881836133c8565b810103126107e25796518b9790938d908a9088611cc5565b503d611e8e565b90508284813d8311611ee0575b611ece81836133c8565b810103126107e2576024935190611c94565b503d611ec4565b611ef58a308b858516613d01565b611c67565b50505051630702b3d960e41b8152fd5b5050505163576b540960e01b8152fd5b611f238161388e565b90549089519063e81cf11760e01b8252848c830152816024818b602096879560031b1c165afa91821561061b578d92611f79575b5050611f6b57611f6690613867565b611be0565b505050506001388080611beb565b90809250813d8311611fa8575b611f9081836133c8565b8101031261061057611fa1906138cb565b3880611f57565b503d611f86565b84346106625780600319360112610662576000805160206145dc83398151915280546001600160a01b031916905580f35b843461066257602036600319011261066257610269611ffd6132ab565b613807565b849150346120a0573660031901126106625761201c613462565b906120256132c1565b61202d6132ed565b906120366132d7565b9260a4359687151588036107e25760c435906001600160401b0390818311610280573660238401121561028057820135908111610377573691016024011161066257509161208d9391611b50969360843593613983565b905191829160208352602083019061373c565b5080fd5b838584346120a05760603660031901126120a0576120c06132ab565b6120c86132c1565b6120d06132ed565b6001600160a01b03929091908084161561217e578382161561216e5791836120fd60249360209695613e7a565b50865198899586946370a0823160e01b86521690840152165afa918215612163579161212e575b6020925051908152f35b90506020823d60201161215b575b81612149602093836133c8565b810103126107e2576020915190612124565b3d915061213c565b9051903d90823e3d90fd5b8451630ccd248560e21b81528790fd5b845163576b540960e01b81528790fd5b61368d565b843461066257806003193601126106625760008051602061459c8339815191528054610100600160a81b031916905580f35b8492915034610377573660031901126120a0576121e06132ab565b906121e96132c1565b9360443592606435916084359060ff808316809303610ccb576000805160206145bc833981519152546001600160a01b0391899186841690835b818482161061238a575b505050501561237b578060008051602061459c8339815191525460081c1693841561234857843303612316574286111561230657818a16156122f65787156122e657889961227a91613e7a565b90501693843b15610ccb57879460e49386928851998a97889663016a5aab60e31b885287015230602487015260448601526064850152608484015260a43560a484015260c43560c48401525af190811561028457506122d65750f35b6122df90613317565b6106625780f35b865163162908e360e11b81528390fd5b8651630ccd248560e21b81528390fd5b8651630407b05b60e31b81528390fd5b865162461bcd60e51b8152602081850152600c60248201526b1d5b985d5d1a1bdc9a5e995960a21b6044820152606490fd5b865162461bcd60e51b8152602081850152600d60248201526c1d5b9a5b9a5d1a585b1a5e9959609a1b6044820152606490fd5b50845163576b540960e01b8152fd5b6123938161388e565b9054908c519063e81cf11760e01b8252858a830152816024818b602096879560031b1c165afa918215612421578f926123eb575b50506123db576123d690613867565b612223565b505050505060018a80808061222d565b90809250813d831161241a575b61240281836133c8565b81010312610a1d57612413906138cb565b8f806123c7565b503d6123f8565b8f8e51903d90823e3d90fd5b80858534610ccf5761243e3661359f565b61244c8295949793926137d9565b61245585613807565b303b15610ccb57879461247a92875198899687966333b7e54b60e21b88528701613835565b038183305af190811561028457506124c7575b5060008051602061457c83398151915280546001600160a01b03199081169091556000805160206145dc8339815191528054909116905580f35b6124d090613317565b61066257808261248d565b838584346120a0576020928360031936011261037757836001600160a01b036125026132ab565b169160248451809481936370a0823160e01b835230908301525afa9283156125605792612531575b5051908152f35b9091508281813d8311612559575b61254981836133c8565b810103126107e25751908361252a565b503d61253f565b8251903d90823e3d90fd5b5050346103775761257b3661359f565b9395909491939091906001600160a01b03808716338114801561274d575b801561270b575b6125aa91506138d8565b88896000805160206145bc83398151915254905b8160ff821610612676575b50501561158f5784169081156102ad5788939291901561265b57506125ed85613d4a565b916e22d473030f116ddee9f6b43ac78ba392833b1561028d5785938592838a61262b875198899687958694631b63c28b60e11b86523091860161391a565b03925af19081156102845750612647575b505061026993613d7d565b61265090613317565b61028d57843861263c565b6102699793506126719250859150863091613d01565b613d7d565b8b8b6126818361388e565b905490878a519363e81cf11760e01b8552168b840152826024818a602095869560031b1c165afa928315610a2857926126d5575b50506126c9576126c490613867565b6125be565b505050600138806125c9565b90809250813d8311612704575b6126ec81836133c8565b8101031261162c576126fd906138cb565b38806126b5565b503d6126e2565b50816000805160206145dc8339815191525416908115159182612743575b50508061273a575b6125aa906125a0565b50333014612731565b1490503880612729565b5030331480612777575b80156125995750808260008051602061455c833981519152541614612599565b508160008051602061455c83398151915254161515612757565b828585346120a0576127a2366135ee565b9194909284856000805160206145bc83398151915254905b8160ff821610612af4575b505015612ae6576001600160a01b03848116949092908515612ad8578415612aca573315612abc576127f79088613e7a565b509183303314159384612aa9575b169180516370a0823160e01b80825230848301526020908183602481895afa8015612a9e57600090612a70575b84518281523087820152935082846024818e5afa938415610f83579a89819d9e8c9d60009d9b9c9d97612a36575b508860008794936064938b519e8f968795631a4ca37b60e21b87528601526024850152306044850152165af1978815610f8357600098612a07575b50845191808352308784015283836024818b5afa928315610f17578d9185916000956129d5575b5060248851809481938252308c8301525afa938415610f1757908c93929160009561299e575b5050906128f491613cf4565b9603610ed157889161290591613cf4565b03610ec4575050848210612982575b50508160008051602061457c8339815191525416159182612968575b5081612960575b508015612958575b612947578280f35b6129529133906142f9565b81808280f35b50600161293f565b905084612937565b6000805160206145fc833981519152541615915085612930565b61298f6129979286613cf4565b9033906142f9565b8580612914565b80929550819394503d83116129ce575b6129b881836133c8565b810103126107e25751918a91906128f48f6128e8565b503d6129ae565b9250935081813d8311612a00575b6129ed81836133c8565b810103126107e257838d915193386128c2565b503d6129e3565b9097508281813d8311612a2f575b612a1f81836133c8565b810103126107e25751968d61289b565b503d612a15565b9a50955050508288813d8311612a69575b612a5181836133c8565b810103126107e25796518a9790938c908b9088612860565b503d612a47565b508183813d8311612a97575b612a8681836133c8565b810103126107e25760249251612832565b503d612a7c565b84513d6000823e3d90fd5b612ab7873033858516613d01565b612805565b5051630702b3d960e41b8152fd5b505163162908e360e11b8152fd5b5051630ccd248560e21b8152fd5b905163576b540960e01b8152fd5b612afd8161388e565b9054865163e81cf11760e01b81526001600160a01b038c811688830152602093919284928492602492849260031b1c165afa918215612b97578a92612b5d575b5050612b5157612b4c90613867565b6127ba565b505050600187806127c5565b90809250813d8311612b90575b612b7481836133c8565b81010312612b8c57612b85906138cb565b8a80612b3d565b8880fd5b503d612b6a565b87513d8c823e3d90fd5b8434610662576020366003190112610662576001600160a01b03612bc36132ab565b166000805160206145fc8339815191529060018060a01b031982541617905580f35b92919050346102805760031960a03682011261028d576001600160401b03938335908582116107de57610140809383360301126107de578351928301838110878211176107e7578452612c39828601613303565b835260248201356020840152604482013584840152612c5a60648301613303565b6060840152612c6b60848301613303565b608084015260a482013560a0840152612c8660c48301613303565b60c084015260e4820135908301526101048101356101008301526101248101358581116107de576101209185612cbf92369201016134db565b910152612cca6132c1565b90606435848111612d1e57612ce29036908501613402565b5060843593841161028d576107c96107d8937f012637bb4782a2d1887f362b849b4fc712e085f2df9972a1f8279ee83bc3ccd39536910161354c565b8580fd5b5050346103775782612d333661359f565b90612d40819894986137d9565b612d4981613807565b303b15612d1e57612d6c9287519889968796631b63f65b60e31b88528701613835565b038183305af19081156102845750612db8575060008051602061457c83398151915280546001600160a01b03199081169091556000805160206145dc8339815191528054909116905580f35b612dc190613317565b3861248d565b90503461028057608036600319011261028057612de26132ab565b612dea6132c1565b9360443592612df76132d7565b6001600160a01b039687169081156130885760018614958615908161307c575b5061306c57871693841561305c5787908751926335ea6a7560e01b845285840152826024816101e0948594165afa9283156130525790889392918a93612ef5575b5050509060449291602095600014612ee957610120015116955b85519687948593631af5db4960e21b8552840152306024840152165afa918215612edf578392612ea7575b6020838351908152f35b9091506020813d602011612ed7575b81612ec3602093836133c8565b810103126103775760209250519038612e9d565b3d9150612eb6565b81513d85823e3d90fd5b61014001511695612e72565b92509392509485843d861161304b575b612f0f81836133c8565b810103938412612b8c576020875194612f2786613376565b12612b8c578651612f3781613392565b865181528452612f4960208701613aa7565b6020850152612f59878701613aa7565b87850152612f6960608701613aa7565b6060850152612f7a60808701613aa7565b6080850152612f8b60a08701613aa7565b60a085015260c086015164ffffffffff811681036118ea5760c0850152818601519361ffff851685036118ea576020966044958a94830152610100612fd1818301613a74565b90830152610120612fe3818301613a74565b90830152610140612ff5818301613a74565b90830152610160613007818301613a74565b90830152610180613019818301613aa7565b908301526101a061302b818301613aa7565b9083015261303d6101c0809201613aa7565b908201529192938196612e58565b503d612f05565b87513d8b823e3d90fd5b86516317a58d5d60e11b81528490fd5b8651633222748560e01b81528490fd5b60029150141538612e17565b8651630ccd248560e21b81528490fd5b939291503461028d5760031993608036860112612d1e576001600160401b039484359290868411610ccb5761016080918536030112610ccb578201828110878211176132495784526130eb838601613303565b82526024926020916024820135602085015260448201358881116118ea5761311890883691850101613402565b868501526064820135606085015261313260848301613303565b608085015261314360a48301613303565b60a085015260c482013560c085015261315e60e48301613303565b9084015261010481013561010084015261012481013561012084015261014481013590878211612b8c57019236602385011215610ccb57858401356131a2816133eb565b946131af875196876133c8565b8186526024602087019260051b820101923684116103625760248201925b8484106132235750505050505061014001526131e76132c1565b9060643593841161028d576107c96107d8937f7aabec7ffdfa0d4dc5788d44c93645332126de2873491efb459c313515cf47769536910161354c565b83358b811161162c57869161323e83928536918801016134db565b8152019301926131cd565b634e487b7160e01b885260418652602488fd5b8534610662576020366003190112610662576132766132ab565b60008051602061459c8339815191528054610100600160a81b03191660089290921b610100600160a81b031691909117905580f35b600435906001600160a01b03821682036107e257565b602435906001600160a01b03821682036107e257565b606435906001600160a01b03821682036107e257565b604435906001600160a01b03821682036107e257565b35906001600160a01b03821682036107e257565b6001600160401b03811161332a57604052565b634e487b7160e01b600052604160045260246000fd5b60e081019081106001600160401b0382111761332a57604052565b60a081019081106001600160401b0382111761332a57604052565b6101e081019081106001600160401b0382111761332a57604052565b602081019081106001600160401b0382111761332a57604052565b608081019081106001600160401b0382111761332a57604052565b601f909101601f19168101906001600160401b0382119082101761332a57604052565b6001600160401b03811161332a5760051b60200190565b9080601f830112156107e257602090823561341c816133eb565b9361342a60405195866133c8565b81855260208086019260051b8201019283116107e257602001905b828210613453575050505090565b81358152908301908301613445565b600435906001600160e01b0319821682036107e257565b6001600160401b03811161332a57601f01601f191660200190565b81601f820112156107e2578035906134ab82613479565b926134b960405194856133c8565b828452602083830101116107e257816000926020809301838601378301015290565b9190916060818403126107e257604051906001600160401b0390606083018281118482101761332a576040528294813563ffffffff60e01b811681036107e257845261352960208301613303565b602085015260408201359283116107e2576040926135479201613494565b910152565b9190916040818403126107e25760408051916001600160401b039183018281118482101761332a576040528294813560028110156107e257845260208201359283116107e2576020926135479201613494565b60a09060031901126107e2576001600160a01b039060043582811681036107e2579160243581811681036107e257916044359160643590811681036107e2579060843580151581036107e25790565b60609060031901126107e2576001600160a01b039060043582811681036107e2579160243590811681036107e2579060443590565b600319906020818301126107e257600435916001600160401b0383116107e2578260e0920301126107e25760040190565b6080809160018060a01b038082511685526020820151602086015260408201511660408501526060810151606085015201511515910152565b346107e25761369b36613623565b6136a3613944565b5060208101906136b28261396f565b6001600160a01b03926060830192909184806136cd8661396f565b1691161461372a5760a0936136ec6136e660809461396f565b9461396f565b81604051956136fa8761335b565b1685526040830135602086015216604084015201356060820152600160808201526137286040518092613654565bf35b604051635542f09960e01b8152600490fd5b919082519283825260005b848110613768575050826000602080949584010152601f8019910116010190565b602081830181015184830182015201613747565b60809060031901126107e2576001600160a01b039060043582811681036107e2579160243590811681036107e257906044359060643580151581036107e25790565b6001600160a01b039091168152602081019190915260400190565b6000805160206145dc83398151915280546001600160a01b0319166001600160a01b03909216919091179055565b60008051602061457c83398151915280546001600160a01b0319166001600160a01b03909216919091179055565b6001600160a01b0391821681529181166020830152604082019290925291166060820152901515608082015260a00190565b60ff1660ff81146138785760010190565b634e487b7160e01b600052601160045260246000fd5b6000805160206145bc83398151915280548210156138b55760005260206000200190600090565b634e487b7160e01b600052603260045260246000fd5b519081151582036107e257565b156138df57565b60405162461bcd60e51b81526020600482015260136024820152722ab730baba3437b934bd32b21031b0b63632b960691b6044820152606490fd5b6001600160a01b039182168152918116602083015291821660408201529116606082015260800190565b604051906139518261335b565b60006080838281528260208201528260408201528260608201520152565b356001600160a01b03811681036107e25790565b9094909290916001600160e01b031984166333b7e54b60e21b81036139d25750906139cf946139c19392604051978896602088015260248701613835565b03601f1981018352826133c8565b90565b90929190631b63f65b60e31b036139ff576139cf946139c193604051978896602088015260248701613835565b604051631e8b844160e01b8152600490fd5b61010060c06139cf936020845260018060a01b0380825116602086015280602083015116604086015260408201516060860152806060830151166080860152608082015160a086015260a0820151168285015201519160e080820152019061373c565b51906001600160a01b03821682036107e257565b908160209103126107e257516001600160a01b03811681036107e25790565b51906001600160801b03821682036107e257565b916001600160a01b0391821691908215613ce2578116918215613cd057816040948551926335ea6a7560e01b84526004840152826024816101e0948594165afa918215610f8357600092613b78575b505090610140602092015116916044845180948193631af5db4960e21b835260048301523060248301525afa9182156109555750600091613b49575090565b90506020813d602011613b70575b81613b64602093836133c8565b810103126107e2575190565b3d9150613b57565b909181833d8511613cc9575b613b8e81836133c8565b810103928312610662576020865193613ba685613376565b12610662578551613bb681613392565b825181528352613bc860208301613aa7565b6020840152613bd8868301613aa7565b86840152613be860608301613aa7565b6060840152613bf960808301613aa7565b6080840152613c0a60a08301613aa7565b60a084015260c082015164ffffffffff811681036120a05760c084015260e08201519061ffff82168203610662575060e08301526020929161014091610100613c54818301613a74565b90830152610120613c66818301613a74565b9083015282613c76818301613a74565b90830152610160613c88818301613a74565b90830152610180613c9a818301613aa7565b908301526101a0613cac818301613aa7565b90830152613cbe6101c0809201613aa7565b908201529192613b0a565b503d613b84565b6040516317a58d5d60e11b8152600490fd5b604051630ccd248560e21b8152600490fd5b9190820391821161387857565b6040516323b872dd60e01b60208201526001600160a01b039283166024820152929091166044830152606480830193909352918152613d4891613d438261335b565b61432e565b565b6001600160a01b0390818111613d5e571690565b604490604051906306dfcc6560e41b825260a060048301526024820152fd5b91926001600160a01b0391821692908315613ce2578415613e685782168015613e56576000926084602092613db3888689614443565b604051958693849263573ade8160e01b84528960048501528a602485015260026044850152606484015286165af1918215613e4a57600092613e14575b50613dfb919261438a565b03613e0257565b604051634d988ac160e01b8152600490fd5b91506020823d602011613e42575b81613e2f602093836133c8565b810103126107e257613dfb915191613df0565b3d9150613e22565b6040513d6000823e3d90fd5b604051630702b3d960e41b8152600490fd5b60405163162908e360e11b8152600490fd5b60408051630150a5d760e21b8152602094936001600160a01b039390919086908290600490829088165afa908115613fe7578492918791600091613ff2575b50600485518097819363e860accb60e01b8352165afa938415613fe757600094613fa9575b5081602460609282865197889485936334924edb60e21b8552166004840152165afa948515613f9e576000938496613f48575b505080831615613f3757841615613f2757509190565b5163227b6aa960e01b8152600490fd5b815163028c06e760e61b8152600490fd5b919550926060823d606011613f96575b81613f65606093836133c8565b8101031261066257508181613f87613f7f613f8e94613a74565b958201613a74565b5001613a74565b933880613f11565b3d9150613f58565b82513d6000823e3d90fd5b9093508581813d8311613fe0575b613fc181836133c8565b810103126107e257816024613fd7606093613a74565b95925050613ede565b503d613fb7565b83513d6000823e3d90fd5b6140099150823d841161147d5761146f81836133c8565b38613eb9565b600260005414614020576002600055565b604051633ee5aeb560e01b8152600490fd5b6001600160a01b03808316946000949392908615613ce2578415613e68578216928315613e565761406f839161406987858b614443565b83613e7a565b5016946040958651906370a0823160e01b98898352600499878b85015260209760249689868981885afa9586156142ef5787966142c0575b508b51838152308e820152988a8a8a81885afa998a1561428757889a614291575b508116803b15610ccb5787858f8f908f8d95859160849451978896879563617ba03760e01b87528601528401528860448401528160648401525af1801561428757908b939291614272575b5061411e908561438a565b878d8d5196879384928784528301525afa928315614268578689928d928896614233575b508c519485938492835230908301525afa9687156142295784976141f5575b50509061416d91613cf4565b600181018082116141e35786119283156141b9575b5050506141a9579061419391613cf4565b0361419c575050565b516365dc80b760e01b8152fd5b505050516361b7a36960e11b8152fd5b60018701935090918387116141d357505011388080614182565b634e487b7160e01b815260118952fd5b5050634e487b7160e01b815260118752fd5b908093929750813d8311614222575b61420e81836133c8565b810103126107e25790519461416d38614161565b503d614204565b89513d86823e3d90fd5b93925094505081813d8311614261575b61424d81836133c8565b810103126107e2578a868992519438614142565b503d614243565b8a513d87823e3d90fd5b9761428061411e9299613317565b9790614113565b8d513d8a823e3d90fd5b9099508a81813d83116142b9575b6142a981836133c8565b81010312610ccb575198386140c8565b503d61429f565b9095508981813d83116142e8575b6142d881836133c8565b810103126107de575194386140a7565b503d6142ce565b8c513d89823e3d90fd5b613d43613d48939261432060405194859263a9059cbb60e01b6020850152602484016137be565b03601f1981018452836133c8565b906000602091828151910182855af115613e4a576000513d61438157506001600160a01b0381163b155b61435f5750565b604051635274afe760e01b81526001600160a01b039091166004820152602490fd5b60011415614358565b60405190602082019263095ea7b360e01b80855260018060a01b0380921691826024860152602060008097816044890152604488526143c8886133ad565b87519082885af1903d87519083614422575b505050156143ea575b5050505050565b61441894613d43926040519260208401526024830152604482015260448152614412816133ad565b8261432e565b38808080806143e3565b91925090614439575083163b15155b3880806143da565b6001915014614431565b60405191602060008185016144798661446b63095ea7b360e01b998a855287602484016137be565b03601f1981018852876133c8565b85519082865af16000513d826144d3575b505015614498575b50505050565b6144ca93613d439160405191602083015260018060a01b031660248201526000604482015260448152614412816133ad565b38808080614492565b9091506144f057506001600160a01b0382163b15155b388061448a565b6001146144e9565b9061451f575080511561450d57805190602001fd5b60405163d6bda27560e01b8152600490fd5b81511580614552575b614530575090565b604051639996b31560e01b81526001600160a01b039091166004820152602490fd5b50803b1561452856fe2a2e13707d6b40952f0aec05e2811137753b06b56d55208636050ec9ee68dd7b2a2e13707d6b40952f0aec05e2811137753b06b56d55208636050ec9ee68dd7a2a2e13707d6b40952f0aec05e2811137753b06b56d55208636050ec9ee68dd782a2e13707d6b40952f0aec05e2811137753b06b56d55208636050ec9ee68dd7e2a2e13707d6b40952f0aec05e2811137753b06b56d55208636050ec9ee68dd79c9e4fb8bffaf71b56abf2a5032f2ea641e97267f8c0d9bcf66c86998c650d62aa26469706673582212208747dd5486a48174c3938e49e66a96457f309c4ce8feba8dff97c8f613c4e43c64736f6c63430008160033",
  "linkReferences": {},
  "deployedLinkReferences": {}
}