{
  "_format": "hh-sol-artifact-1",
  "contractName": "TestTermRouterFacetHelper",
  "sourceName": "contracts/test/TestTermRouterFacetHelper.sol",
  "abi": [
    {
      "inputs": [
        {
          "internalType": "address",
          "name": "target",
          "type": "address"
        }
      ],
      "name": "AddressEmptyCode",
      "type": "error"
    },
    {
      "inputs": [],
      "name": "AfterMaturity",
      "type": "error"
    },
    {
      "inputs": [],
      "name": "CollateralTransferFailed",
      "type": "error"
    },
    {
      "inputs": [],
      "name": "FailedCall",
      "type": "error"
    },
    {
      "inputs": [],
      "name": "InputOutputTokenCollision",
      "type": "error"
    },
    {
      "inputs": [
        {
          "internalType": "uint256",
          "name": "requested",
          "type": "uint256"
        },
        {
          "internalType": "uint256",
          "name": "available",
          "type": "uint256"
        }
      ],
      "name": "InsufficientCollateralAmount",
      "type": "error"
    },
    {
      "inputs": [],
      "name": "InvalidCollateralToken",
      "type": "error"
    },
    {
      "inputs": [],
      "name": "InvalidRepoId",
      "type": "error"
    },
    {
      "inputs": [],
      "name": "InvalidTermController",
      "type": "error"
    },
    {
      "inputs": [],
      "name": "PurchaseTokenMismatch",
      "type": "error"
    },
    {
      "inputs": [],
      "name": "ReentrancyGuardReentrantCall",
      "type": "error"
    },
    {
      "inputs": [
        {
          "internalType": "uint8",
          "name": "bits",
          "type": "uint8"
        },
        {
          "internalType": "uint256",
          "name": "value",
          "type": "uint256"
        }
      ],
      "name": "SafeCastOverflowedUintDowncast",
      "type": "error"
    },
    {
      "inputs": [
        {
          "internalType": "address",
          "name": "token",
          "type": "address"
        }
      ],
      "name": "SafeERC20FailedOperation",
      "type": "error"
    },
    {
      "inputs": [],
      "name": "UnsupportedHookSelector",
      "type": "error"
    },
    {
      "inputs": [
        {
          "internalType": "address",
          "name": "controller",
          "type": "address"
        }
      ],
      "name": "addApprovedTermController",
      "outputs": [],
      "stateMutability": "nonpayable",
      "type": "function"
    },
    {
      "inputs": [
        {
          "internalType": "address",
          "name": "termRepoServicer",
          "type": "address"
        },
        {
          "internalType": "uint256",
          "name": "amountToBurn",
          "type": "uint256"
        }
      ],
      "name": "burnCollapseExposure",
      "outputs": [],
      "stateMutability": "nonpayable",
      "type": "function"
    },
    {
      "inputs": [
        {
          "internalType": "address",
          "name": "termRepoRolloverManager",
          "type": "address"
        }
      ],
      "name": "cancelRollover",
      "outputs": [],
      "stateMutability": "nonpayable",
      "type": "function"
    },
    {
      "inputs": [],
      "name": "clearActiveFlashLoanBorrower",
      "outputs": [],
      "stateMutability": "nonpayable",
      "type": "function"
    },
    {
      "inputs": [
        {
          "internalType": "address",
          "name": "termRepoRolloverManager",
          "type": "address"
        },
        {
          "components": [
            {
              "internalType": "address",
              "name": "rolloverAuctionBidLocker",
              "type": "address"
            },
            {
              "internalType": "uint256",
              "name": "rolloverAmount",
              "type": "uint256"
            },
            {
              "internalType": "bytes32",
              "name": "rolloverBidPriceHash",
              "type": "bytes32"
            }
          ],
          "internalType": "struct TermRepoRolloverElectionSubmission",
          "name": "termRepoRolloverElectionSubmission",
          "type": "tuple"
        }
      ],
      "name": "electRollover",
      "outputs": [],
      "stateMutability": "nonpayable",
      "type": "function"
    },
    {
      "inputs": [
        {
          "internalType": "address",
          "name": "termRepoCollateralManager",
          "type": "address"
        },
        {
          "internalType": "address",
          "name": "collateralToken",
          "type": "address"
        },
        {
          "internalType": "uint256",
          "name": "amount",
          "type": "uint256"
        },
        {
          "internalType": "bool",
          "name": "usePermit2",
          "type": "bool"
        }
      ],
      "name": "externalLockCollateral",
      "outputs": [],
      "stateMutability": "nonpayable",
      "type": "function"
    },
    {
      "inputs": [
        {
          "internalType": "address",
          "name": "termRepoCollateralManager",
          "type": "address"
        },
        {
          "internalType": "address",
          "name": "collateralToken",
          "type": "address"
        },
        {
          "internalType": "uint256",
          "name": "amount",
          "type": "uint256"
        }
      ],
      "name": "externalUnlockCollateral",
      "outputs": [],
      "stateMutability": "nonpayable",
      "type": "function"
    },
    {
      "inputs": [
        {
          "internalType": "address",
          "name": "user",
          "type": "address"
        },
        {
          "internalType": "address",
          "name": "inputToken",
          "type": "address"
        },
        {
          "internalType": "uint256",
          "name": "maxInputAmount",
          "type": "uint256"
        },
        {
          "internalType": "address",
          "name": "outputToken",
          "type": "address"
        },
        {
          "internalType": "uint256",
          "name": "minOutputAmount",
          "type": "uint256"
        },
        {
          "internalType": "bytes4",
          "name": "selector",
          "type": "bytes4"
        },
        {
          "internalType": "address",
          "name": "targetAddress",
          "type": "address"
        },
        {
          "internalType": "bytes",
          "name": "additionalCalldata",
          "type": "bytes"
        }
      ],
      "name": "generateActionCalldata",
      "outputs": [
        {
          "components": [
            {
              "internalType": "address",
              "name": "expectedInputToken",
              "type": "address"
            },
            {
              "internalType": "uint256",
              "name": "expectedInputAmount",
              "type": "uint256"
            },
            {
              "internalType": "address",
              "name": "expectedOutputToken",
              "type": "address"
            },
            {
              "internalType": "uint256",
              "name": "expectedOutputAmount",
              "type": "uint256"
            },
            {
              "internalType": "bool",
              "name": "isDeterministic",
              "type": "bool"
            }
          ],
          "internalType": "struct PreviewAction",
          "name": "",
          "type": "tuple"
        },
        {
          "internalType": "bytes",
          "name": "",
          "type": "bytes"
        }
      ],
      "stateMutability": "view",
      "type": "function"
    },
    {
      "inputs": [
        {
          "internalType": "address",
          "name": "termAuctionBidLocker",
          "type": "address"
        },
        {
          "components": [
            {
              "internalType": "bytes32",
              "name": "id",
              "type": "bytes32"
            },
            {
              "internalType": "address",
              "name": "bidder",
              "type": "address"
            },
            {
              "internalType": "bytes32",
              "name": "bidPriceHash",
              "type": "bytes32"
            },
            {
              "internalType": "uint256",
              "name": "amount",
              "type": "uint256"
            },
            {
              "internalType": "uint256[]",
              "name": "collateralAmounts",
              "type": "uint256[]"
            },
            {
              "internalType": "address",
              "name": "purchaseToken",
              "type": "address"
            },
            {
              "internalType": "address[]",
              "name": "collateralTokens",
              "type": "address[]"
            }
          ],
          "internalType": "struct TermAuctionBidSubmission[]",
          "name": "bidSubmissions",
          "type": "tuple[]"
        },
        {
          "internalType": "bool",
          "name": "usePermit2",
          "type": "bool"
        }
      ],
      "name": "lockBids",
      "outputs": [],
      "stateMutability": "nonpayable",
      "type": "function"
    },
    {
      "inputs": [
        {
          "internalType": "address",
          "name": "termAuctionBidLocker",
          "type": "address"
        },
        {
          "components": [
            {
              "internalType": "bytes32",
              "name": "id",
              "type": "bytes32"
            },
            {
              "internalType": "address",
              "name": "bidder",
              "type": "address"
            },
            {
              "internalType": "bytes32",
              "name": "bidPriceHash",
              "type": "bytes32"
            },
            {
              "internalType": "uint256",
              "name": "amount",
              "type": "uint256"
            },
            {
              "internalType": "uint256[]",
              "name": "collateralAmounts",
              "type": "uint256[]"
            },
            {
              "internalType": "address",
              "name": "purchaseToken",
              "type": "address"
            },
            {
              "internalType": "address[]",
              "name": "collateralTokens",
              "type": "address[]"
            }
          ],
          "internalType": "struct TermAuctionBidSubmission[]",
          "name": "bidSubmissions",
          "type": "tuple[]"
        },
        {
          "internalType": "address",
          "name": "referralAddress",
          "type": "address"
        },
        {
          "internalType": "bool",
          "name": "usePermit2",
          "type": "bool"
        }
      ],
      "name": "lockBidsWithReferral",
      "outputs": [],
      "stateMutability": "nonpayable",
      "type": "function"
    },
    {
      "inputs": [
        {
          "internalType": "address",
          "name": "termAuctionOfferLocker",
          "type": "address"
        },
        {
          "components": [
            {
              "internalType": "bytes32",
              "name": "id",
              "type": "bytes32"
            },
            {
              "internalType": "address",
              "name": "offeror",
              "type": "address"
            },
            {
              "internalType": "bytes32",
              "name": "offerPriceHash",
              "type": "bytes32"
            },
            {
              "internalType": "uint256",
              "name": "amount",
              "type": "uint256"
            },
            {
              "internalType": "address",
              "name": "purchaseToken",
              "type": "address"
            }
          ],
          "internalType": "struct TermAuctionOfferSubmission[]",
          "name": "offerSubmissions",
          "type": "tuple[]"
        },
        {
          "internalType": "bool",
          "name": "usePermit2",
          "type": "bool"
        }
      ],
      "name": "lockOffers",
      "outputs": [],
      "stateMutability": "nonpayable",
      "type": "function"
    },
    {
      "inputs": [
        {
          "internalType": "address",
          "name": "termAuctionOfferLocker",
          "type": "address"
        },
        {
          "components": [
            {
              "internalType": "bytes32",
              "name": "id",
              "type": "bytes32"
            },
            {
              "internalType": "address",
              "name": "offeror",
              "type": "address"
            },
            {
              "internalType": "bytes32",
              "name": "offerPriceHash",
              "type": "bytes32"
            },
            {
              "internalType": "uint256",
              "name": "amount",
              "type": "uint256"
            },
            {
              "internalType": "address",
              "name": "purchaseToken",
              "type": "address"
            }
          ],
          "internalType": "struct TermAuctionOfferSubmission[]",
          "name": "offerSubmissions",
          "type": "tuple[]"
        },
        {
          "internalType": "address",
          "name": "referralAddress",
          "type": "address"
        },
        {
          "internalType": "bool",
          "name": "usePermit2",
          "type": "bool"
        }
      ],
      "name": "lockOffersWithReferral",
      "outputs": [],
      "stateMutability": "nonpayable",
      "type": "function"
    },
    {
      "inputs": [
        {
          "internalType": "address",
          "name": "termRepoServicer",
          "type": "address"
        },
        {
          "internalType": "uint256",
          "name": "repoTokenAmount",
          "type": "uint256"
        },
        {
          "internalType": "uint256[]",
          "name": "collateralAmounts",
          "type": "uint256[]"
        },
        {
          "internalType": "bool",
          "name": "usePermit2",
          "type": "bool"
        }
      ],
      "name": "mintOpenExposure",
      "outputs": [],
      "stateMutability": "nonpayable",
      "type": "function"
    },
    {
      "inputs": [
        {
          "internalType": "bytes4",
          "name": "",
          "type": "bytes4"
        }
      ],
      "name": "previewMapping",
      "outputs": [
        {
          "internalType": "bytes4",
          "name": "",
          "type": "bytes4"
        }
      ],
      "stateMutability": "view",
      "type": "function"
    },
    {
      "inputs": [
        {
          "components": [
            {
              "internalType": "address",
              "name": "user",
              "type": "address"
            },
            {
              "internalType": "address",
              "name": "inputToken",
              "type": "address"
            },
            {
              "internalType": "uint256",
              "name": "maxInputAmount",
              "type": "uint256"
            },
            {
              "internalType": "address",
              "name": "outputToken",
              "type": "address"
            },
            {
              "internalType": "uint256",
              "name": "minOutputAmount",
              "type": "uint256"
            },
            {
              "internalType": "address",
              "name": "targetAddress",
              "type": "address"
            },
            {
              "internalType": "bytes",
              "name": "additionalCalldata",
              "type": "bytes"
            }
          ],
          "internalType": "struct ActionHookInput",
          "name": "actionHookInput",
          "type": "tuple"
        }
      ],
      "name": "previewSubmitRepurchasePayment",
      "outputs": [
        {
          "components": [
            {
              "internalType": "address",
              "name": "expectedInputToken",
              "type": "address"
            },
            {
              "internalType": "uint256",
              "name": "expectedInputAmount",
              "type": "uint256"
            },
            {
              "internalType": "address",
              "name": "expectedOutputToken",
              "type": "address"
            },
            {
              "internalType": "uint256",
              "name": "expectedOutputAmount",
              "type": "uint256"
            },
            {
              "internalType": "bool",
              "name": "isDeterministic",
              "type": "bool"
            }
          ],
          "internalType": "struct PreviewAction",
          "name": "",
          "type": "tuple"
        }
      ],
      "stateMutability": "view",
      "type": "function"
    },
    {
      "inputs": [
        {
          "internalType": "address",
          "name": "termRepoServicer",
          "type": "address"
        },
        {
          "internalType": "address",
          "name": "redeemer",
          "type": "address"
        },
        {
          "internalType": "uint256",
          "name": "amountToRedeem",
          "type": "uint256"
        }
      ],
      "name": "redeemTermRepoTokens",
      "outputs": [],
      "stateMutability": "nonpayable",
      "type": "function"
    },
    {
      "inputs": [
        {
          "internalType": "address",
          "name": "borrower",
          "type": "address"
        }
      ],
      "name": "setActiveFlashLoanBorrower",
      "outputs": [],
      "stateMutability": "nonpayable",
      "type": "function"
    },
    {
      "inputs": [
        {
          "internalType": "address",
          "name": "termRepoServicer",
          "type": "address"
        },
        {
          "internalType": "uint256",
          "name": "amount",
          "type": "uint256"
        },
        {
          "internalType": "bool",
          "name": "usePermit2",
          "type": "bool"
        }
      ],
      "name": "submitRepurchasePayment",
      "outputs": [],
      "stateMutability": "nonpayable",
      "type": "function"
    },
    {
      "inputs": [
        {
          "components": [
            {
              "internalType": "address",
              "name": "user",
              "type": "address"
            },
            {
              "internalType": "address",
              "name": "inputToken",
              "type": "address"
            },
            {
              "internalType": "uint256",
              "name": "maxInputAmount",
              "type": "uint256"
            },
            {
              "internalType": "address",
              "name": "outputToken",
              "type": "address"
            },
            {
              "internalType": "uint256",
              "name": "minOutputAmount",
              "type": "uint256"
            },
            {
              "internalType": "address",
              "name": "targetAddress",
              "type": "address"
            },
            {
              "internalType": "bytes",
              "name": "additionalCalldata",
              "type": "bytes"
            }
          ],
          "internalType": "struct ActionHookInput",
          "name": "input",
          "type": "tuple"
        }
      ],
      "name": "submitRepurchasePaymentHook",
      "outputs": [],
      "stateMutability": "nonpayable",
      "type": "function"
    },
    {
      "inputs": [
        {
          "internalType": "address",
          "name": "termAuctionBidLocker",
          "type": "address"
        },
        {
          "internalType": "bytes32[]",
          "name": "bidIds",
          "type": "bytes32[]"
        }
      ],
      "name": "unlockBids",
      "outputs": [],
      "stateMutability": "nonpayable",
      "type": "function"
    },
    {
      "inputs": [
        {
          "internalType": "address",
          "name": "termAuctionOfferLocker",
          "type": "address"
        },
        {
          "internalType": "bytes32[]",
          "name": "offerIds",
          "type": "bytes32[]"
        }
      ],
      "name": "unlockOffers",
      "outputs": [],
      "stateMutability": "nonpayable",
      "type": "function"
    }
  ],
  "bytecode": "0x6080806040523461005c57600160008181556308882e7f60e11b90526020527ffe48346733098a759bd4e214e346cbadcfc0f66966f7bdbc89c189f86a315205805463ffffffff191663bd18c3e71790556141e290816100628239f35b600080fdfe608080604052600436101561001357600080fd5b600090813560e01c90816311105cfe14612dc95750806319e5500314612c2057806321f09a2014612bb457806323ef922814612b5d5780632acd7a0b14612b0757806331788a4114612ab057806338771c3e14612a515780633c1e8f88146128c75780633cefb1c11461234e5780633f2b2aa91461230a5780633f5a245214611b9057806367004d8214611aed5780639ef72eff14611871578063adde19b71461131f578063bd18c3e7146110e1578063c3246edc1461109d578063cde1a4d21461106d578063ce99c05614610a97578063d91ab0d914610a05578063eb58755f146109d45763ed29feff1461010857600080fd5b346109d15760803660031901126109d157610121613266565b6024356001600160401b0381116109cd576101409036906004016132da565b92610149613292565b6101516132cb565b9261015a613b85565b61016c6001600160a01b038616613f05565b604051631abd3be960e11b81526020816004816001600160a01b038a165afa9081156109605760049160209186916109b0575b50604051632e25a20760e11b815292839182906001600160a01b03165afa908115610960578491610981575b506101d4613674565b50861561097b576101f26101e888846136c9565b60c0810190613706565b90505b6101fe81613752565b951561076a579095849391905b8860ff861610156104a55761022460ff86168a866136e4565b60405163ba98b5ef60e01b8152903560048201529286846024816001600160a01b0386165afa93841561049a578794610476575b506080840151151598875b6102746101e860ff8a168e8a6136e4565b905060ff8216101561045f578a15610441578b888860a0890161029b60ff86168251613938565b511580610425575b610411576102cf6102c56102bb60ff861687866136e4565b6080810190613706565b60ff88169161362b565b356102de60ff87168351613938565b51101561041e5761031e9061031761030a6103006102bb60ff881689886136e4565b60ff8a169161362b565b359160ff88169051613938565b5190613651565b925b8315610411576103476101e8610356936103519360ff61033f89613ed2565b9716916136e4565b60ff87169161362b565b61351a565b906e22d473030f116ddee9f6b43ac78ba33b1561040d57604051631b63c28b60e11b8152918c91839182916103919190303360048601613596565b0381836e22d473030f116ddee9f6b43ac78ba35af1801561040257908b916103ea575b5050906103d26103e5926103cc8d60ff851690613938565b5161394c565b6103df60ff83168d613938565b52613784565b610263565b6103f390613382565b6103fe5789386103b4565b8980fd5b6040513d8d823e3d90fd5b8b80fd5b505050506103e590613784565b508b61031e565b5061043a6102c56102bb60ff861687866136e4565b35156102a3565b8b88886104586103476102bb60ff851686856136e4565b3592610320565b5093509461046e919850613784565b93919661020b565b6104939194503d8089833e61048b8183613433565b8101906137a2565b9238610258565b6040513d89823e3d90fd5b909350969194969593955b826106dd575b90869060405192839163cb63a04560e01b835285606484013360048601526060602486015252608483019060848760051b850101918a9060005b8981106105da575050506001600160a01b039081166044850152908390039183918591165af180156105cf576105ad575b5080610530575b846001815580f35b845b60ff81168381101561059b57908161054d610559938a613938565b5161055e575b50613784565b610532565b610595906105846103516105756101e8888c6136c9565b6001600160a01b03949161362b565b6001600160a01b0388169116613d27565b38610553565b50505050505090508038808080610528565b6105c8903d8088833e6105c08183613433565b810190613959565b5038610521565b6040513d88823e3d90fd5b9294965092909450608319878203018352843560de198c3603018112156106d8578b0180358252906001600160a01b03610616602084016132a8565b1660208201526040820135604082015260608201356060820152602061065361064260808501856139d2565b60e0608086015260e08501916135c0565b60a06001600160a01b036106688683016132a8565b169084015261067c60c094858101906139d2565b9390948183039101528281520191906000905b8082106106b257505050602080600192960193019101918b9593918795936104f0565b909192602080600192838060a01b036106ca886132a8565b16815201940192019061068f565b600080fd5b9591949290825b8260ff8216101561075f578061070060ff61070a93168b613938565b5161070f57613784565b6106e4565b61075a61035161073a6107256101e88c8b6136c9565b6001600160a01b03939160ff8716919061362b565b1661074860ff84168d613938565b51906001600160a01b038a1690613de5565b613784565b5090929491956104b6565b849197939692945081925b8460ff8516101561096b5761078e60ff851686886136e4565b60405163ba98b5ef60e01b8152903560048201529783896024816001600160a01b0386165afa988915610960578499610944575b506080890151151599845b6107de6101e860ff89168a8c6136e4565b905060ff8216101561092a576108c59088888d8f838e9160001461090357505060a0018c61081060ff86168351613938565b511590816108e4575b506108dc578c6108336102c56102bb60ff861687856136e4565b3561084260ff87168451613938565b5110156108d3576108646102c56102bb610317938760ff6108719816916136e4565b359160ff86169051613938565b898c82156108ca576108926101e884926103d29660ff6108b89616916136e4565b309133916001600160a01b03916108b2916103519160ff8c16919061362b565b16613e9a565b6103cc60ff84168e613938565b6107cd565b50505050613784565b50505087610871565b505050613784565b6108fb91506102bb610347918660ff8716916136e4565b35158d610819565b61091a9250906102bb9160ff6109249516916136e4565b60ff85169161362b565b35610871565b509399509361093a919850613784565b9296979197610775565b6109599199503d8086833e61048b8183613433565b97386107c2565b6040513d86823e3d90fd5b90939250969394969590956104b0565b836101f5565b6109a3915060203d6020116109a9575b61099b8183613433565b810190613542565b386101cb565b503d610991565b6109c79150823d84116109a95761099b8183613433565b3861019f565b8280fd5b80fd5b50346109d157806003193601126109d15760008051602061418d83398151915280546001600160a01b031916905580f35b50346109d15780610a153661334d565b91610a1e613b85565b6001600160a01b031691610a3183613ba8565b823b15610a9257610a5c9284928360405180968195829463d91ab0d960e01b84523360048501613609565b03925af18015610a8757610a73575b506001905580f35b610a7c90613382565b6109d1578038610a6b565b6040513d84823e3d90fd5b505050fd5b50346109d15760603660031901126109d157610ab1613266565b906024356001600160401b03811161106957610ad19036906004016134ea565b9091610adb6132bc565b91610ae4613b85565b610af66001600160a01b038616613f05565b604051631abd3be960e11b8152946020866004816001600160a01b0385165afa958615611041576004949596602091859161104c575b50604051632e25a20760e11b815295869182906001600160a01b03165afa938415611041578394611020575b50610b61613a95565b508293821580156000146110185761100457610b7f6080880161351a565b955b15610ea757835b8360ff82161015610d3157610ba160ff8216858a613acd565b6040516372e3a5b160e01b81529035600482015260e0816024816001600160a01b0388165afa9081156105cf578691610d02575b5060808101511580610ce9575b610c2c576060610bf660ff8416878c613acd565b0135608082015110600014610ce257610c269060806060610c1b60ff8616898e613acd565b013591015190613651565b80610c3b575b50610c3690613784565b610b88565b9095610c4682613ed2565b610c5f6080610c5960ff8b16898e613acd565b0161351a565b906e22d473030f116ddee9f6b43ac78ba390813b15610cde57918891610c9e9383604051809681958294631b63c28b60e11b8452303360048601613596565b03925af1801561049a57908791610cc6575b5050610c3691610cbf9161394c565b9590610c2c565b610ccf90613382565b610cda578538610cb0565b8580fd5b8880fd5b5084610c26565b506060610cfa60ff8416878c613acd565b013515610be2565b610d24915060e03d60e011610d2a575b610d1c8183613433565b810190613add565b38610bd5565b503d610d12565b50949392955b831515938480610e95575b610e78575b509186916040519384926348ce1bbb60e01b84528060648501336004870152606060248701525260848401919060005b818110610e0e575050600060448501525082900390829084906001600160a01b03165af18015610e0357610de9575b5080610dd7575b610dba575b826001815580f35b610dd0916001600160a01b039081169116613d27565b3880610db2565b506001600160a01b0381161515610dad565b610dfc903d8087833e6105c08183613433565b5038610da6565b6040513d87823e3d90fd5b8235845293955090935091906001906001600160a01b03610e31602087016132a8565b16602082015260408501356040820152606085013560608201526080828060a01b03610e5e8288016132a8565b169082015260a08091019401910190899492869492610d77565b610e8f906001600160a01b03888116908816613de5565b38610d47565b506001600160a01b0386161515610d42565b839691939492945b8560ff82161015610ff957610ec860ff82168785613acd565b6040516372e3a5b160e01b81529035600482015260e0816024816001600160a01b038a165afa908115610fee578991610fcf575b50608080910180511580610fb6575b610fab576060610f1f60ff85168a88613acd565b0135815110600014610fa357610f49906060610f3f60ff86168b89613acd565b0135905190613651565b905b8782610f63575b505050610f5e90613784565b610eaf565b95610f958385610f8b610f9a9695610c59610f5e999c60ff60018060a01b039516908d613acd565b1630903390613e9a565b61394c565b93903887610f52565b508890610f4b565b5050610f5e90613784565b506060610fc760ff85168a88613acd565b013515610f0b565b610fe8915060e03d60e011610d2a57610d1c8183613433565b38610efc565b6040513d8b823e3d90fd5b509493919290610d37565b634e487b7160e01b84526032600452602484fd5b508395610b81565b61103a91945060203d6020116109a95761099b8183613433565b9238610b58565b6040513d85823e3d90fd5b6110639150823d84116109a95761099b8183613433565b38610b2c565b5080fd5b50346109d15760203660031901126109d15761108f61108a613266565b613b4c565b805460ff1916600117905580f35b50346109d15760203660031901126109d1576001600160e01b0319600435818116908190036106d857826040916020945260018452205460e01b9060405191168152f35b50346109d1576110f036613235565b906110f9613a07565b5061110660a0830161351a565b906111108361351a565b6040516354ae26b160e11b8152909390926020926001600160a01b03918216908486600481855afa9586156112db5781966112e8575b50604051632762697d60e01b815296831660048801528487602481855afa9687156112db5781976112ac575b5060046060850192866111848561351a565b9160405193848092630f7a077160e21b82525afa9182156110415787918691859461128a575b506040516320db25d560e01b815290821660048201529283916024918391165afa91821561127e5791611251575b501561123f576111e8829161351a565b1693169280841461122d5760a09460809360405195611206876133e1565b86528501526040840152013560608201526001608082015261122b6040518092613471565bf35b604051635542f09960e01b8152600490fd5b604051633a001e0560e11b8152600490fd5b90508481813d8311611277575b6112688183613433565b810103126106d85751386111d8565b503d61125e565b604051903d90823e3d90fd5b60249194506112a590843d86116109a95761099b8183613433565b93906111aa565b9096508481813d83116112d4575b6112c48183613433565b810103126106d857519538611172565b503d6112ba565b50604051903d90823e3d90fd5b9095508481813d8311611318575b6113008183613433565b81010312610cda576113119061352e565b9438611146565b503d6112f6565b50346109d15760803660031901126109d157611339613266565b6024356001600160401b0381116109cd576113589036906004016134ea565b919092611363613292565b9261136c6132cb565b92611375613b85565b6113876001600160a01b038216613f05565b604051631abd3be960e11b81526020816004816001600160a01b0386165afa908115610960576004916020918691611854575b50604051632e25a20760e11b815292839182906001600160a01b03165afa908115610960578491611835575b506113ef613a95565b5083948315801560001461182d576118195761140d6080890161351a565b905b156116db57845b8460ff821610156115b25761142f60ff8216868b613acd565b6040516372e3a5b160e01b81529035600482015260e0816024816001600160a01b0389165afa90811561049a57906080918891611593575b50018051158061157a575b6114ac576060908161148860ff8516898e613acd565b0135815110600014611572576114a691610f3f60ff8516898e613acd565b806114bb575b506114b690613784565b611416565b9096876114db6080610c598d8a60ff6114d389613ed2565b961691613acd565b906e22d473030f116ddee9f6b43ac78ba33b15610cde57604051631b63c28b60e11b8152918991839182916115169190303360048601613596565b0381836e22d473030f116ddee9f6b43ac78ba35af180156115675790889161154f575b50506114b6916115489161394c565b96906114ac565b61155890613382565b611563578638611539565b8680fd5b6040513d8a823e3d90fd5b5050856114a6565b50606061158b60ff8416888d613acd565b013515611472565b6115ac915060e03d60e011610d2a57610d1c8183613433565b38611467565b5094939690955b8415159485806116c9575b6116ac575b5092909187926040519485936348ce1bbb60e01b855260648501903360048701528060609260606024890152526084860193916000905b828210611643575050506001600160a01b03918216604486015250908390039183918591165af18015610e0357610de9575080610dd757610dba57826001815580f35b92600192959194969850809750358152818060a01b03611665602089016132a8565b166020820152604087013560408201528287013583820152818060a01b0361168f608089016132a8565b16608082015260a080910196019201928795938c97959392611600565b6116c3906001600160a01b03898116908916613de5565b386115c9565b506001600160a01b03871615156115c4565b8492979593945b8560ff8216101561180a576116fb60ff82168789613acd565b6040516372e3a5b160e01b81529035600482015260e0816024816001600160a01b038e165afa908115610e035785916117eb575b50608081015115806117d2575b6117c8576060908161175260ff85168a8c613acd565b01356080820151106000146117c057608061177592610c1b60ff86168b8d613acd565b87878261178e575b50505061178990613784565b6116e2565b96610f958385610f8b6080610c596117b798976117899a9e60ff60018060a01b03961691613acd565b9490878761177d565b505083611775565b5061178990613784565b5060606117e360ff8416898b613acd565b01351561173c565b611804915060e03d60e011610d2a57610d1c8183613433565b3861172f565b509490959691969392936115b9565b634e487b7160e01b85526032600452602485fd5b50849061140f565b61184e915060203d6020116109a95761099b8183613433565b386113e6565b61186b9150823d84116109a95761099b8183613433565b386113ba565b50346109d1576101003660031901126109d15761188c613266565b61189461327c565b6001600160a01b039160643583811692908390036106d85760a435946001600160e01b0319808716918288036106d85760c435918783168093036106d85760e435956001600160401b0387116109cd57366023880112156109cd578660040135946118fe86613456565b9561190c6040519788613433565b8087526020983660248383010111610cda5781869260248c9301838b013788010152611936613a07565b50835260018752604083205460e01b91821615611adb57826119ee9281926119a79a8c8060405193611967856133c6565b169a8b8452168b8301526044356040830152606082015260843560808201528660a08201528760c08201526040519a8b918b830193845260248301613a32565b03996119bb601f199b8c8101835282613433565b5190305afa3d15611ad3573d906119d182613456565b916119df6040519384613433565b82523d848984013e5b30614129565b9060a0828051810103126109d15750611ab293611acf9693611abe999693611aa6936040519a611a1d8c6133e1565b8b611a2988840161352e565b80825282604085015191828b850152611a446060870161352e565b938460408201526080611a6360a0828a0151998a606086015201613795565b91015260405198611a738a6133c6565b895216898801526040870152166060850152608084015260a083015260c082015260405195869384015260248301613a32565b03908101835282613433565b60405193848094613471565b60c060a084015260c08301906134aa565b0390f35b6060906119e8565b604051631416e68f60e01b8152600490fd5b50346109d15760803660031901126109d15780611b08613266565b6060366023190112611b8d57611b1c613b85565b6001600160a01b0390811690611b3182613ba8565b813b15611b895760405163338026c160e11b8152336004820152918391839160849183918591611b5f61327c565b166024840152604435604484015260643560648401525af18015610a8757610a7357506001905580f35b5050fd5b50fd5b50346109d15760603660031901126109d157611baa613266565b6024356001600160401b0381116109cd57611bc99036906004016132da565b92611bd26132bc565b91611bdb613b85565b611bed6001600160a01b038516613f05565b604051631abd3be960e11b81526020816004816001600160a01b0389165afa908115611041576004929160209185916122ed575b50604051632e25a20760e11b815293849182906001600160a01b03165afa9182156110415783926122cc575b50611c56613674565b5085156122c557611c6a6101e887836136c9565b9050915b611c7783613752565b941561211d57919483925b8760ff85161015611ee657611c9b60ff851689856136e4565b60405163ba98b5ef60e01b8152903560048201529185836024816001600160a01b0385165afa9283156105cf578693611eca575b506080830151151597865b611ceb6101e860ff89168d896136e4565b905060ff82161015611eb2578915611e8e578660a086018c611d1160ff85168351613938565b51159081611e65575b50611e5a578c611d346103476102bb60ff8616848d6136e4565b35611d4360ff86168451613938565b511015611e5157611d656103476102bb6103179360ff611d729716908d6136e4565b359160ff85169051613938565b878c8215611e45576103516103476101e8611d9b9360ff611d9288613ed2565b9616908d6136e4565b906e22d473030f116ddee9f6b43ac78ba33b15611e4157604051631b63c28b60e11b8152918b9183918291611dd69190303360048601613596565b0381836e22d473030f116ddee9f6b43ac78ba35af18015611e3657908a91611e22575b505090611e10611e1d926103cc60ff84168d613938565b6103df60ff83168c613938565b611cda565b611e2b90613382565b610cde578838611df9565b6040513d8c823e3d90fd5b8a80fd5b505050611e1d90613784565b50505087611d72565b5050611e1d90613784565b611e8691506102bb611e7c9160ff8616908c6136e4565b60ff86169161362b565b35158d611d1a565b611eac611ea26102bb60ff8a168e8a6136e4565b60ff84169161362b565b35611d72565b5094909750611ec2919250613784565b929590611c82565b611edf9193503d8088833e61048b8183613433565b9138611ccf565b93959250959093955b816120a3575b85604051809263cb63a04560e01b8252846064830133600485015260606024850152526084820160848660051b84010190899060005b888110611fa4575050600060448501525082900390829084906001600160a01b03165af180156105cf57611f8a575b5080611f6857846001815580f35b845b60ff81168381101561059b57908161054d611f85938a613938565b611f6a565b611f9d903d8088833e6105c08183613433565b5038611f5a565b9291945092945060831986820301835260de198a360301843512156106d85783358a0180358252906001600160a01b03611fe0602084016132a8565b1660208201526040820135604082015260608201356060820152602061201f608060e061200f828701876139d2565b91909286015260e08501916135c0565b60a06001600160a01b036120348683016132a8565b169084015261204860c094858101906139d2565b9390948183039101528281520191906000905b80821061207d57505050602080600192950193019101918593918b9593611f2b565b909192602080600192838060a01b03612095886132a8565b16815201940192019061205b565b959194805b60ff81168781101561211357908682856120c56120d29589613938565b516120d757505050613784565b6120a8565b816120f16103516105756101e86120f99561210b986136c9565b169188613938565b51906001600160a01b03891690613de5565b8638856108dc565b5050949195611ef5565b91959092909181905b8360ff841610156122b95761213f60ff841685876136e4565b60405163ba98b5ef60e01b8152903560048201529682886024816001600160a01b0385165afa97881561104157839861229d575b506080880151151598835b61218f6101e860ff8816898b6136e4565b905060ff821610156122845761223c908b1561226957878760a08d018b6121ba60ff86168351613938565b5115908161224a575b506108dc578b6121dd6102c56102bb60ff861687856136e4565b356121ec60ff87168451613938565b511015612241576108646102c56102bb610317938760ff61220e9816916136e4565b888b82156108ca576108926101e88492611e109660ff61222f9616916136e4565b6103cc60ff84168d613938565b61217e565b5050508661220e565b61226191506102bb610347918660ff8716916136e4565b35158c6121c3565b8761227e61091a6102bb60ff8b16848e6136e4565b3561220e565b509390975061229591929850613784565b919690612126565b6122b29198503d8085833e61048b8183613433565b9638612173565b93949692915094611eef565b8291611c6e565b6122e691925060203d6020116109a95761099b8183613433565b9038611c4d565b6123049150823d84116109a95761099b8183613433565b38611c21565b50346109d15760203660031901126109d1576001600160a01b0361232c613266565b1660008051602061418d8339815191529060018060a01b031982541617905580f35b50346109d15760803660031901126109d157612368613266565b60248035916044356001600160401b0381116128c35761238c9036906004016132da565b6123979491946132cb565b906123a0613b85565b6001600160a01b03938416916123b583613ba8565b60405190632e25a20760e11b82526020978883600481885afa928315611e36578a936128a4575b50604051630f7a077160e21b8152918983600481895afa928315610402578b93612885575b50908a91825b868110612751575050853b156110695781878a61244a604051948593849363c002bbdd60e01b8552336004860152840152606060448401528960648401916135c0565b0381838a5af18015610a875761273d575b505b8381106126be5750505050604051631b23543760e01b81528581600481855afa801561049a57879061268f575b61249691504290613651565b91604051926124a4846133ab565b8352604051926124b3846133ab565b6301da9c008452876040516124c7816133ab565b525190670de0b6b3a7640000938483029280840486149015171561267c5751801561266757604051926124f9846133ab565b04825260405163fa19d0ed60e01b8152918783600481875afa89811561127e5789948192612631575b50838761255a612593969560049a9561257e9560405191612542836133ab565b8252604051612550816133ab565b5251905190614116565b0460405190612568826133ab565b81528c604051612577816133ab565b5251614116565b8060405161258b816133ab565b520490613651565b9160405193848092632e54273760e11b82525afa9182156105cf5786926125f7575b506125f0946125dc6125ea9260405196879363a9059cbb60e01b9085015233908401613561565b03601f198101855284613433565b166140ae565b6001815580f35b9091508481813d831161262a575b61260f8183613433565b81010312610cda57518281168103610cda57906125f06125b5565b503d612605565b9392948092508491503d8311612660575b61264c8183613433565b810103126106d85790518792908983612522565b503d612642565b86634e487b7160e01b60005260126004526000fd5b634e487b7160e01b895260116004528689fd5b508581813d83116126b7575b6126a58183613433565b810103126106d857612496905161248a565b503d61269b565b60405163172c48c760e01b8152600481018290529089828a81868c165afa918215610402578b92612702575b506126fc600192898087169116613d27565b0161245d565b91508982813d8311612736575b6127198183613433565b81010312611e41576126fc61272f60019361352e565b92506126ea565b503d61270f565b61274690613382565b610cde57883861245b565b909192506040519063172c48c760e01b82528060048301528b828c818d89165afa91821561287a578d9261283f575b5061278c81888661362b565b35918a841561282357508d6127a084613ed2565b6e22d473030f116ddee9f6b43ac78ba3803b156109cd578383916127dd9383604051809681958294631b63c28b60e11b8452303360048601613596565b03925af18015610a875761280b575b5050600192612801915b8c808a169116613de5565b01908b9291612407565b61281490613382565b61281f578d386127ec565b8d80fd5b926128019161283a82600196309033908516613e9a565b6127f6565b9091508b81813d8311612873575b6128578183613433565b8101031261286f576128689061352e565b9038612780565b8c80fd5b503d61284d565b6040513d8f823e3d90fd5b61289d9193508a3d8c116109a95761099b8183613433565b9138612401565b6128bc919350893d8b116109a95761099b8183613433565b91386123dc565b8480fd5b50346109d15760803660031901126109d1576128e1613266565b6128e961327c565b9082604435916128f76132cb565b93612900613b85565b6001600160a01b039182169161291583613ba8565b604051632e25a20760e11b815295602087600481875afa968715610e03578597612a30575b5015612a1d5761294985613ed2565b6e22d473030f116ddee9f6b43ac78ba3803b15610cda578386916129869383604051809681958294631b63c28b60e11b8452303360048601613596565b03925af1908115610e03578591612a09575b50505b8082169516936129ac818688613de5565b823b15612a05576129d792849283604051809681958294633e0efe0360e01b84523360048501613609565b03925af18015610a87576129f1575b50506125f091613d27565b6129fa90613382565b6109cd5782386129e6565b8380fd5b612a1290613382565b612a05578338612998565b612a2b853033848616613e9a565b61299b565b612a4a91975060203d6020116109a95761099b8183613433565b953861293a565b50346109d15760403660031901126109d15780612a6c613266565b612a74613b85565b6001600160a01b0316612a8681613ba8565b803b15611b8d57816040518092631c3b8e1f60e11b8252818381610a5c6024353360048401613561565b50346109d15780612ac03661330a565b91612ac9613b85565b6001600160a01b031691612adc83613f05565b823b15610a9257610a5c928492836040518096819582946331788a4160e01b845233600485016135e4565b50346109d15780612b173661334d565b91612b20613b85565b6001600160a01b031691612b3383613ba8565b823b15610a9257610a5c92849283604051809681958294637e237e8960e01b845260048401613561565b50346109d15780612b6d3661330a565b91612b76613b85565b6001600160a01b031691612b8983613f05565b823b15610a9257610a5c9284928360405180968195829463047df24560e31b845233600485016135e4565b50346109d15760203660031901126109d15780612bcf613266565b612bd7613b85565b6001600160a01b0316612be981613ba8565b803b15611b8d5781809160246040518094819363010f84d160e51b83523360048401525af18015610a8757610a7357506001905580f35b50346109d15760603660031901126109d157612c3a613266565b6024359082612c476132bc565b92612c50613b85565b6001600160a01b0392831692612c6584613ba8565b604051632e25a20760e11b815260208082600481895afa918215610e03578592612daa575b506040516354ae26b160e11b815281816004818a5afa9081156105cf5784928792612d72575b5050169515612d6157612cc283613ed2565b6e22d473030f116ddee9f6b43ac78ba3803b15610cda57878691612cff9383604051809681958294631b63c28b60e11b8452303360048601613596565b03925af1908115610e03578591612d4d575b50505b1692612d21828587613de5565b803b156109cd576040516210220f60eb1b815291839183918290849082906129d7903360048401613561565b612d5690613382565b612a05578338612d11565b612d6d83303389613e9a565b612d14565b8193508092503d8311612da3575b612d8a8183613433565b810103126128c357612d9c839161352e565b3880612cb0565b503d612d80565b81612dc29293503d84116109a95761099b8183613433565b9038612c8a565b90503461106957612dd936613235565b90612de38261351a565b60008051602061418d833981519152546001600160a01b03929190831680151591849083613229575b505050156131f15750612e1d613b85565b612e268261351a565b602091612e3483850161351a565b90604085013594612e476060820161351a565b946080820135938860c0840135601e198536030181121561106957840180356001600160401b0381116109cd57848201918136038313612a0557859181010312611069573593841515850361106957612ea360a087920161351a565b1691612eae83613ba8565b604051630f7a077160e21b80825291908581600481885afa90811561096057612efc899288928d97916131d4575b508d60405194858094819363b7d5820b60e01b9b8c84526004840161357c565b0392165afa90811561287a578d916131a7575b5080891161318957506040516354ae26b160e11b81528c95949392918582600481885afa91821561049a5789979261314f575b508616958691160361313d57604051632e25a20760e11b81528c908581600481885afa908115610a8757899291613120575b50169a612f82818d88613de5565b8c843b156109d1576040516210220f60eb1b81529182908190612fa9908e60048401613561565b038183885af1801561287a57613109575b5090838c9260046040518096819382525afa8015610a875789888c93612ff8968896946130ea575b506040519687958694859384526004840161357c565b0392165afa918215611e36578a926130bc575b50506130aa57879661301c91613d27565b15613095575061302b90613ed2565b916e22d473030f116ddee9f6b43ac78ba3803b156128c3576130699385809460405196879586948593631b63c28b60e11b8552309060048601613596565b03925af18015610a8757613081575b50506001815580f35b61308a90613382565b6109d1578038613078565b6130a59450909230929116613e9a565b6125f0565b6040516310584a1d60e21b8152600490fd5b90809250813d83116130e3575b6130d38183613433565b810103126106d85751388061300b565b503d6130c9565b613102919450863d88116109a95761099b8183613433565b9238612fe2565b9b613117859d939293613382565b9b919091612fba565b6131379150863d88116109a95761099b8183613433565b38612f74565b604051632559713560e21b8152600490fd5b965090508486813d8111613182575b6131688183613433565b8101031261286f578761317b819761352e565b9190612f42565b503d61315e565b88604491604051916307d2092d60e21b835260048301526024820152fd5b90508581813d83116131cd575b6131be8183613433565b8101031261286f575138612f0f565b503d6131b4565b6131eb9150833d85116109a95761099b8183613433565b38612edc565b62461bcd60e51b81526020600482015260136024820152722ab730baba3437b934bd32b21031b0b63632b960691b6044820152606490fd5b16149050388381612e0c565b600319906020818301126106d857600435916001600160401b0383116106d8578260e0920301126106d85760040190565b600435906001600160a01b03821682036106d857565b602435906001600160a01b03821682036106d857565b604435906001600160a01b03821682036106d857565b35906001600160a01b03821682036106d857565b6044359081151582036106d857565b6064359081151582036106d857565b9181601f840112156106d8578235916001600160401b0383116106d8576020808501948460051b0101116106d857565b9060406003198301126106d8576004356001600160a01b03811681036106d85791602435906001600160401b0382116106d857613349916004016132da565b9091565b60609060031901126106d8576001600160a01b039060043582811681036106d8579160243590811681036106d8579060443590565b6001600160401b03811161339557604052565b634e487b7160e01b600052604160045260246000fd5b602081019081106001600160401b0382111761339557604052565b60e081019081106001600160401b0382111761339557604052565b60a081019081106001600160401b0382111761339557604052565b61016081019081106001600160401b0382111761339557604052565b608081019081106001600160401b0382111761339557604052565b601f909101601f19168101906001600160401b0382119082101761339557604052565b6001600160401b03811161339557601f01601f191660200190565b6080809160018060a01b038082511685526020820151602086015260408201511660408501526060810151606085015201511515910152565b919082519283825260005b8481106134d6575050826000602080949584010152601f8019910116010190565b6020818301810151848301820152016134b5565b9181601f840112156106d8578235916001600160401b0383116106d85760208085019460a085020101116106d857565b356001600160a01b03811681036106d85790565b51906001600160a01b03821682036106d857565b908160209103126106d857516001600160a01b03811681036106d85790565b6001600160a01b039091168152602081019190915260400190565b6001600160a01b0391821681529116602082015260400190565b6001600160a01b039182168152918116602083015291821660408201529116606082015260800190565b81835290916001600160fb1b0383116106d85760209260051b809284830137010190565b6001600160a01b039091168152604060208201819052613606939101916135c0565b90565b6001600160a01b03918216815291166020820152604081019190915260600190565b919081101561363b5760051b0190565b634e487b7160e01b600052603260045260246000fd5b9190820391821161365e57565b634e487b7160e01b600052601160045260246000fd5b60405190613681826133fc565b81610140600091828152826020820152826040820152826060820152826080820152606060a08201528260c0820152606060e082015282610100820152826101208201520152565b901561363b5780359060de19813603018212156106d8570190565b919081101561363b5760051b8101359060de19813603018212156106d8570190565b903590601e19813603018212156106d857018035906001600160401b0382116106d857602001918160051b360383136106d857565b6001600160401b0381116133955760051b60200190565b9061375c8261373b565b6137696040519182613433565b828152809261377a601f199161373b565b0190602036910137565b60ff1660ff811461365e5760010190565b519081151582036106d857565b9060209081838203126106d85782516001600160401b03938482116106d8570191610160838303126106d857604051936137db856133fc565b835185526137ea82850161352e565b8286015260408401516040860152606084015160608601526080840151608086015260a08401518181116106d857840183601f820112156106d8578051906138318261373b565b9161383f6040519384613433565b808352848084019160051b830101918683116106d85785809101915b838310613928575050505060a086015261387760c0850161352e565b60c086015260e08401519081116106d85783019180601f840112156106d85782516138a18161373b565b936138af6040519586613433565b818552838086019260051b8201019283116106d8578301905b828210613911575050505060e08301526101006138e6818301613795565b908301526101206138f881830161352e565b9083015261390a610140809201613795565b9082015290565b83809161391d8461352e565b8152019101906138c8565b825181529181019186910161385b565b805182101561363b5760209160051b010190565b9190820180921161365e57565b60209081818403126106d8578051906001600160401b0382116106d857019180601f840112156106d857825161398e8161373b565b9361399c6040519586613433565b818552838086019260051b8201019283116106d8578301905b8282106139c3575050505090565b815181529083019083016139b5565b9035601e19823603018112156106d8570160208101919035906001600160401b0382116106d8578160051b360383136106d857565b60405190613a14826133e1565b60006080838281528260208201528260408201528260608201520152565b61010060c0613606936020845260018060a01b0380825116602086015280602083015116604086015260408201516060860152806060830151166080860152608082015160a086015260a0820151168285015201519160e08082015201906134aa565b60405190613aa2826133c6565b8160c06000918281528260208201528260408201528260608201528260808201528260a08201520152565b919081101561363b5760a0020190565b908160e09103126106d857613b4460c060405192613afa846133c6565b80518452613b0a6020820161352e565b6020850152604081015160408501526060810151606085015260808101516080850152613b3960a0820161352e565b60a085015201613795565b60c082015290565b6001600160a01b031660009081527f2a2e13707d6b40952f0aec05e2811137753b06b56d55208636050ec9ee68dd7d6020526040902090565b600260005414613b96576002600055565b604051633ee5aeb560e01b8152600490fd5b604080516325c3ed4760e01b815290916020916001600160a01b0391821691908381600481865afa908115613cee57600091613d0a575b501660ff613bec82613b4c565b541615613cf957835163e7e4b8db60e01b8152600481018390528381602481855afa908115613cee57600091613cb9575b50159182613c41575b50509050613c315750565b51633e69d7d560e21b8152600490fd5b8391925060248551809481936319afa63b60e11b835260048301525afa918215613cae57600092613c78575b505015803880613c26565b90809250813d8311613ca7575b613c8f8183613433565b810103126106d857613ca090613795565b3880613c6d565b503d613c85565b83513d6000823e3d90fd5b90508381813d8311613ce7575b613cd08183613433565b810103126106d857613ce190613795565b38613c1d565b503d613cc6565b85513d6000823e3d90fd5b8351638ebd687760e01b8152600490fd5b613d219150843d86116109a95761099b8183613433565b38613bdf565b60405190602082019263095ea7b360e01b80855260018060a01b038092169182602486015260206000809781604489015260448852613d6588613418565b87519082885af1903d87519083613dc4575b50505015613d87575b5050505050565b613dba94613db5926040519260208401526024830152604482015260448152613daf81613418565b826140ae565b6140ae565b3880808080613d80565b91925090613ddb575083163b15155b388080613d77565b6001915014613dd3565b6040519160206000818501613e1b86613e0d63095ea7b360e01b998a85528760248401613561565b03601f198101885287613433565b85519082865af16000513d82613e75575b505015613e3a575b50505050565b613e6c93613db59160405191602083015260018060a01b031660248201526000604482015260448152613daf81613418565b38808080613e34565b909150613e9257506001600160a01b0382163b15155b3880613e2c565b600114613e8b565b90613db590613ec2613ed0956040519586936323b872dd60e01b602086015260248501613609565b03601f198101845283613433565b565b6001600160a01b0390818111613ee6571690565b604490604051906306dfcc6560e41b825260a060048301526024820152fd5b60408051637d33274f60e01b81526004926020916001600160a01b03918216919083818781865afa908115613cee5782918591600091614091575b508787518094819363f77c479160e01b8352165afa908115613cee57600091614074575b501660ff613f7182613b4c565b54161561406457835163e7e4b8db60e01b81528581018390528381602481855afa908115613cee5760009161402f575b50159182613fc3575b50509050613fb6575050565b51633e69d7d560e21b8152fd5b8391925060248551809481936319afa63b60e11b8352898301525afa918215613cae57600092613ff9575b505015803880613faa565b90809250813d8311614028575b6140108183613433565b810103126106d85761402190613795565b3880613fee565b503d614006565b90508381813d831161405d575b6140468183613433565b810103126106d85761405790613795565b38613fa1565b503d61403c565b50505051638ebd687760e01b8152fd5b61408b9150843d86116109a95761099b8183613433565b38613f64565b6140a89150823d84116109a95761099b8183613433565b38613f40565b906000602091828151910182855af11561410a576000513d61410157506001600160a01b0381163b155b6140df5750565b604051635274afe760e01b81526001600160a01b039091166004820152602490fd5b600114156140d8565b6040513d6000823e3d90fd5b8181029291811591840414171561365e57565b90614150575080511561413e57805190602001fd5b60405163d6bda27560e01b8152600490fd5b81511580614183575b614161575090565b604051639996b31560e01b81526001600160a01b039091166004820152602490fd5b50803b1561415956fec9e4fb8bffaf71b56abf2a5032f2ea641e97267f8c0d9bcf66c86998c650d62aa2646970667358221220894ec8dd5df076a91d278d921f953263c96b256d2e968df0423a9cdff9debf6e64736f6c63430008160033",
  "linkReferences": {},
  "deployedLinkReferences": {}
}