{
  "_format": "hh-sol-artifact-1",
  "contractName": "TestPermit2FacetHelper",
  "sourceName": "contracts/test/TestPermit2FacetHelper.sol",
  "abi": [
    {
      "inputs": [],
      "name": "Expired",
      "type": "error"
    },
    {
      "inputs": [],
      "name": "InvalidOwner",
      "type": "error"
    },
    {
      "inputs": [],
      "name": "InvalidSpender",
      "type": "error"
    },
    {
      "inputs": [
        {
          "internalType": "uint8",
          "name": "bits",
          "type": "uint8"
        },
        {
          "internalType": "uint256",
          "name": "value",
          "type": "uint256"
        }
      ],
      "name": "SafeCastOverflowedUintDowncast",
      "type": "error"
    },
    {
      "inputs": [],
      "name": "ZeroAmount",
      "type": "error"
    },
    {
      "inputs": [
        {
          "internalType": "address",
          "name": "controller",
          "type": "address"
        }
      ],
      "name": "addApprovedTermController",
      "outputs": [],
      "stateMutability": "nonpayable",
      "type": "function"
    },
    {
      "inputs": [
        {
          "components": [
            {
              "components": [
                {
                  "internalType": "address",
                  "name": "token",
                  "type": "address"
                },
                {
                  "internalType": "uint160",
                  "name": "amount",
                  "type": "uint160"
                },
                {
                  "internalType": "uint48",
                  "name": "expiration",
                  "type": "uint48"
                },
                {
                  "internalType": "uint48",
                  "name": "nonce",
                  "type": "uint48"
                }
              ],
              "internalType": "struct IAllowanceTransfer.PermitDetails",
              "name": "details",
              "type": "tuple"
            },
            {
              "internalType": "address",
              "name": "spender",
              "type": "address"
            },
            {
              "internalType": "uint256",
              "name": "sigDeadline",
              "type": "uint256"
            }
          ],
          "internalType": "struct IAllowanceTransfer.PermitSingle",
          "name": "permitSingle",
          "type": "tuple"
        },
        {
          "internalType": "bytes",
          "name": "signature",
          "type": "bytes"
        },
        {
          "internalType": "bool",
          "name": "skipRevert",
          "type": "bool"
        }
      ],
      "name": "approve2",
      "outputs": [],
      "stateMutability": "nonpayable",
      "type": "function"
    },
    {
      "inputs": [
        {
          "components": [
            {
              "components": [
                {
                  "internalType": "address",
                  "name": "token",
                  "type": "address"
                },
                {
                  "internalType": "uint160",
                  "name": "amount",
                  "type": "uint160"
                },
                {
                  "internalType": "uint48",
                  "name": "expiration",
                  "type": "uint48"
                },
                {
                  "internalType": "uint48",
                  "name": "nonce",
                  "type": "uint48"
                }
              ],
              "internalType": "struct IAllowanceTransfer.PermitDetails",
              "name": "details",
              "type": "tuple"
            },
            {
              "internalType": "address",
              "name": "spender",
              "type": "address"
            },
            {
              "internalType": "uint256",
              "name": "sigDeadline",
              "type": "uint256"
            }
          ],
          "internalType": "struct IAllowanceTransfer.PermitSingle",
          "name": "permitSingle",
          "type": "tuple"
        },
        {
          "internalType": "address",
          "name": "owner",
          "type": "address"
        },
        {
          "internalType": "bytes",
          "name": "signature",
          "type": "bytes"
        },
        {
          "internalType": "bool",
          "name": "skipRevert",
          "type": "bool"
        }
      ],
      "name": "approve2Diamond",
      "outputs": [],
      "stateMutability": "nonpayable",
      "type": "function"
    },
    {
      "inputs": [
        {
          "components": [
            {
              "components": [
                {
                  "internalType": "address",
                  "name": "token",
                  "type": "address"
                },
                {
                  "internalType": "uint160",
                  "name": "amount",
                  "type": "uint160"
                },
                {
                  "internalType": "uint48",
                  "name": "expiration",
                  "type": "uint48"
                },
                {
                  "internalType": "uint48",
                  "name": "nonce",
                  "type": "uint48"
                }
              ],
              "internalType": "struct IAllowanceTransfer.PermitDetails",
              "name": "details",
              "type": "tuple"
            },
            {
              "internalType": "address",
              "name": "spender",
              "type": "address"
            },
            {
              "internalType": "uint256",
              "name": "sigDeadline",
              "type": "uint256"
            }
          ],
          "internalType": "struct IAllowanceTransfer.PermitSingle",
          "name": "permitSingle",
          "type": "tuple"
        },
        {
          "internalType": "address",
          "name": "owner",
          "type": "address"
        },
        {
          "internalType": "bytes",
          "name": "signature",
          "type": "bytes"
        },
        {
          "internalType": "bool",
          "name": "skipRevert",
          "type": "bool"
        }
      ],
      "name": "approve2TermContract",
      "outputs": [],
      "stateMutability": "nonpayable",
      "type": "function"
    },
    {
      "inputs": [],
      "name": "clearApprovedTermControllers",
      "outputs": [],
      "stateMutability": "nonpayable",
      "type": "function"
    },
    {
      "inputs": [],
      "name": "clearMulticallInitiator",
      "outputs": [],
      "stateMutability": "nonpayable",
      "type": "function"
    },
    {
      "inputs": [
        {
          "internalType": "address",
          "name": "_initiator",
          "type": "address"
        }
      ],
      "name": "setMulticallInitiator",
      "outputs": [],
      "stateMutability": "nonpayable",
      "type": "function"
    },
    {
      "inputs": [
        {
          "internalType": "address",
          "name": "asset",
          "type": "address"
        },
        {
          "internalType": "uint256",
          "name": "amount",
          "type": "uint256"
        }
      ],
      "name": "transferFrom2",
      "outputs": [],
      "stateMutability": "nonpayable",
      "type": "function"
    }
  ],
  "bytecode": "0x6080806040523461001657610b27908161001c8239f35b600080fdfe6040608081526004908136101561001557600080fd5b600090813560e01c806306f7664d1461071657806354c53ef01461062557806368972f341461058f5780637a498e1d1461055d5780637d5029d11461050a578063af50420214610379578063c3e5b6d31461012d5763cde1a4d21461007957600080fd5b3461012957602036600319011261012957610092610765565b600080516020610ad2833981519152805490600160401b821015610116576001820190556100bf90610986565b81546001600160a01b0393841660039290921b82811b94901b191692909217905582527f2a2e13707d6b40952f0aec05e2811137753b06b56d55208636050ec9ee68dd7d6020528120805460ff1916600117905580f35b634e487b7160e01b855260418652602485fd5b5080fd5b50823461021a5761013d366107bc565b9593929061014c9592956109db565b610157858501610864565b65ffffffffffff4291161115610369576001600160a01b038281161561035957600080516020610ad2833981519152548991825b828110610232575b50505015610222579087949392916e22d473030f116ddee9f6b43ac78ba392833b1561021e576101da879692879351998a97889687956302b67b5760e41b8752860161089e565b03925af19182610206575b5050610202576101f3610947565b90156101fd575080f35b610a6e565b5080f35b61020f90610818565b61021a5782846101e5565b8280fd5b8680fd5b8451635461585f60e01b81528390fd5b8161023c82610986565b90549060031b1c168c60808a019161025383610877565b8c5163e7e4b8db60e01b81529086168b8201529260209160249183868481855afa95861561034e578f90928e9594928a94889961032f575b5088156102b5575b50505050505050506102a75760010161018b565b505050506001898080610193565b85969798506102c390610877565b915196879485936319afa63b60e11b855216908301525afa92831561032457926102f7575b50508c888f85818e8180610293565b6103169250803d1061031d575b61030e8183610841565b8101906109c3565b8d806102e8565b503d610304565b8c51903d90823e3d90fd5b610347919950863d881161031d5761030e8183610841565b973861028b565b508e513d86823e3d90fd5b85516349e27cff60e01b81528490fd5b8451630407b05b60e31b81528390fd5b50823461021a5761010036600319018181126105025760c0136105065760c4356001600160401b038111610502576103b4903690840161078f565b60e435948515958615036104e9576103ca6109db565b6044359165ffffffffffff8084168094036104e957428411156104f25760018060a01b039384600080516020610ab28339815191525460081c16976e22d473030f116ddee9f6b43ac78ba394853b156104ee5751986302b67b5760e41b8a52818a0152358581168091036104e95760248901526024358581168091036104e957604489015260648801526064359081168091036104e95760848701526084359283168093036104e95787809594878095938397829560a484015260a43560c484015260e4830152806101048301528061012493848401376000828201840152601f01601f191681010301925af191826104d5575b5050610202576104cc610947565b906101fd575080f35b6104de90610818565b61021a5782846104be565b600080fd5b8b80fd5b8251630407b05b60e31b81528790fd5b8480fd5b8380fd5b823461055a578060031936011261055a57600080516020610ad283398151915280549082815581610539578280f35b825260208220908101905b81811061054f578280f35b828155600101610544565b80fd5b823461055a578060031936011261055a57600080516020610ab28339815191528054610100600160a81b031916905580f35b50823461021a5761059f366107bc565b959392906105ae9592956109db565b6105b9858501610864565b65ffffffffffff4291161115610369576105d560808501610877565b306001600160a01b0390911603610222579087949392916e22d473030f116ddee9f6b43ac78ba392833b1561021e576101da879692879351998a97889687956302b67b5760e41b8752860161089e565b50913461012957826003193601126101295761063f610765565b926024359161064c6109db565b600080516020610ab28339815191525460081c6001600160a01b03908116918415610708578185116106eb5790859291876e22d473030f116ddee9f6b43ac78ba3803b156106e75783869260849589519a8b988997631b63c28b60e11b89528801523060248801521660448601521660648401525af19081156106de57506106d2575080f35b6106db90610818565b80f35b513d84823e3d90fd5b8580fd5b6044908560a08651926306dfcc6560e41b84528301526024820152fd5b8351631f2a200560e01b8152fd5b823461055a57602036600319011261055a57610730610765565b600080516020610ab28339815191528054610100600160a81b03191660089290921b610100600160a81b031691909117905580f35b600435906001600160a01b03821682036104e957565b35906001600160a01b03821682036104e957565b9181601f840112156104e9578235916001600160401b0383116104e957602083818601950101116104e957565b600319810161012081126104e95760c0136104e95760049160c4356001600160a01b03811681036104e9579160e435906001600160401b0382116104e9576108069160040161078f565b90916101043580151581036104e95790565b6001600160401b03811161082b57604052565b634e487b7160e01b600052604160045260246000fd5b601f909101601f19168101906001600160401b0382119082101761082b57604052565b3565ffffffffffff811681036104e95790565b356001600160a01b03811681036104e95790565b359065ffffffffffff821682036104e957565b6001600160a01b03918216815292939161010090826108bc8261077b565b1660208601526020810135908382168092036104e957849360a09260408801526108e86040830161088b565b65ffffffffffff80911660608901526109036060840161088b565b1660808801526109156080830161077b565b1682870152013560c08501528060e08501528301528061012093848401376000828201840152601f01601f1916010190565b3d15610981573d906001600160401b03821161082b5760405191610975601f8201601f191660200184610841565b82523d6000602084013e565b606090565b600080516020610ad283398151915280548210156109ad5760005260206000200190600090565b634e487b7160e01b600052603260045260246000fd5b908160209103126104e9575180151581036104e95790565b600080516020610ab28339815191525460081c6001600160a01b03168015610a39573303610a0557565b60405162461bcd60e51b815260206004820152600c60248201526b1d5b985d5d1a1bdc9a5e995960a21b6044820152606490fd5b60405162461bcd60e51b815260206004820152600d60248201526c1d5b9a5b9a5d1a585b1a5e9959609a1b6044820152606490fd5b8051908115610a7c57602001fd5b60405162461bcd60e51b815260206004820152600d60248201526c18d85b1b081c995d995c9d1959609a1b6044820152606490fdfe2a2e13707d6b40952f0aec05e2811137753b06b56d55208636050ec9ee68dd782a2e13707d6b40952f0aec05e2811137753b06b56d55208636050ec9ee68dd7ea2646970667358221220d99fec8e6b5f3be20b51e5e2cd292381b98a6bbe9713eb0c96a9bfe1916fbd6f64736f6c63430008160033",
  "linkReferences": {},
  "deployedLinkReferences": {}
}