{
  "_format": "hh-sol-artifact-1",
  "contractName": "TestTermRepoRolloverManager",
  "sourceName": "contracts/test/TestTermRepoRolloverManager.sol",
  "abi": [
    {
      "inputs": [],
      "name": "AlreadyTermContractPaired",
      "type": "error"
    },
    {
      "inputs": [],
      "name": "AuctionEndsAfterRepayment",
      "type": "error"
    },
    {
      "inputs": [],
      "name": "AuctionEndsBeforeMaturity",
      "type": "error"
    },
    {
      "inputs": [],
      "name": "BorrowerRepurchaseObligationInsufficient",
      "type": "error"
    },
    {
      "inputs": [
        {
          "internalType": "address",
          "name": "invalidCollateralToken",
          "type": "address"
        }
      ],
      "name": "CollateralTokenNotSupported",
      "type": "error"
    },
    {
      "inputs": [
        {
          "internalType": "address",
          "name": "currentPurchaseToken",
          "type": "address"
        },
        {
          "internalType": "address",
          "name": "rolloverPurchaseToken",
          "type": "address"
        }
      ],
      "name": "DifferentPurchaseToken",
      "type": "error"
    },
    {
      "inputs": [
        {
          "internalType": "string",
          "name": "reason",
          "type": "string"
        }
      ],
      "name": "InvalidParameters",
      "type": "error"
    },
    {
      "inputs": [],
      "name": "MaturityReached",
      "type": "error"
    },
    {
      "inputs": [],
      "name": "NoRolloverToCancel",
      "type": "error"
    },
    {
      "inputs": [
        {
          "internalType": "address",
          "name": "invalidAddress",
          "type": "address"
        }
      ],
      "name": "NotTermContract",
      "type": "error"
    },
    {
      "inputs": [],
      "name": "RepurchaseWindowOver",
      "type": "error"
    },
    {
      "inputs": [
        {
          "internalType": "address",
          "name": "invalidAddress",
          "type": "address"
        }
      ],
      "name": "RolloverAddressNotApproved",
      "type": "error"
    },
    {
      "inputs": [],
      "name": "RolloverLockedToAuction",
      "type": "error"
    },
    {
      "inputs": [],
      "name": "RolloverProcessedToTerm",
      "type": "error"
    },
    {
      "inputs": [],
      "name": "ZeroBorrowerRepurchaseObligation",
      "type": "error"
    },
    {
      "anonymous": false,
      "inputs": [
        {
          "indexed": false,
          "internalType": "address",
          "name": "previousAdmin",
          "type": "address"
        },
        {
          "indexed": false,
          "internalType": "address",
          "name": "newAdmin",
          "type": "address"
        }
      ],
      "name": "AdminChanged",
      "type": "event"
    },
    {
      "anonymous": false,
      "inputs": [
        {
          "indexed": true,
          "internalType": "address",
          "name": "beacon",
          "type": "address"
        }
      ],
      "name": "BeaconUpgraded",
      "type": "event"
    },
    {
      "anonymous": false,
      "inputs": [
        {
          "indexed": false,
          "internalType": "uint8",
          "name": "version",
          "type": "uint8"
        }
      ],
      "name": "Initialized",
      "type": "event"
    },
    {
      "anonymous": false,
      "inputs": [
        {
          "indexed": true,
          "internalType": "bytes32",
          "name": "role",
          "type": "bytes32"
        },
        {
          "indexed": true,
          "internalType": "bytes32",
          "name": "previousAdminRole",
          "type": "bytes32"
        },
        {
          "indexed": true,
          "internalType": "bytes32",
          "name": "newAdminRole",
          "type": "bytes32"
        }
      ],
      "name": "RoleAdminChanged",
      "type": "event"
    },
    {
      "anonymous": false,
      "inputs": [
        {
          "indexed": true,
          "internalType": "bytes32",
          "name": "role",
          "type": "bytes32"
        },
        {
          "indexed": true,
          "internalType": "address",
          "name": "account",
          "type": "address"
        },
        {
          "indexed": true,
          "internalType": "address",
          "name": "sender",
          "type": "address"
        }
      ],
      "name": "RoleGranted",
      "type": "event"
    },
    {
      "anonymous": false,
      "inputs": [
        {
          "indexed": true,
          "internalType": "bytes32",
          "name": "role",
          "type": "bytes32"
        },
        {
          "indexed": true,
          "internalType": "address",
          "name": "account",
          "type": "address"
        },
        {
          "indexed": true,
          "internalType": "address",
          "name": "sender",
          "type": "address"
        }
      ],
      "name": "RoleRevoked",
      "type": "event"
    },
    {
      "anonymous": false,
      "inputs": [
        {
          "indexed": true,
          "internalType": "address",
          "name": "implementation",
          "type": "address"
        }
      ],
      "name": "Upgraded",
      "type": "event"
    },
    {
      "inputs": [],
      "name": "ADMIN_ROLE",
      "outputs": [
        {
          "internalType": "bytes32",
          "name": "",
          "type": "bytes32"
        }
      ],
      "stateMutability": "view",
      "type": "function"
    },
    {
      "inputs": [],
      "name": "DEFAULT_ADMIN_ROLE",
      "outputs": [
        {
          "internalType": "bytes32",
          "name": "",
          "type": "bytes32"
        }
      ],
      "stateMutability": "view",
      "type": "function"
    },
    {
      "inputs": [],
      "name": "DEVOPS_ROLE",
      "outputs": [
        {
          "internalType": "bytes32",
          "name": "",
          "type": "bytes32"
        }
      ],
      "stateMutability": "view",
      "type": "function"
    },
    {
      "inputs": [],
      "name": "INITIALIZER_ROLE",
      "outputs": [
        {
          "internalType": "bytes32",
          "name": "",
          "type": "bytes32"
        }
      ],
      "stateMutability": "view",
      "type": "function"
    },
    {
      "inputs": [],
      "name": "ROLLOVER_BID_FULFILLER_ROLE",
      "outputs": [
        {
          "internalType": "bytes32",
          "name": "",
          "type": "bytes32"
        }
      ],
      "stateMutability": "view",
      "type": "function"
    },
    {
      "inputs": [
        {
          "internalType": "contract ITermAuctionBidLocker",
          "name": "auctionBidLocker",
          "type": "address"
        },
        {
          "internalType": "address",
          "name": "termAuction",
          "type": "address"
        }
      ],
      "name": "approveRolloverAuction",
      "outputs": [],
      "stateMutability": "nonpayable",
      "type": "function"
    },
    {
      "inputs": [],
      "name": "cancelRollover",
      "outputs": [],
      "stateMutability": "nonpayable",
      "type": "function"
    },
    {
      "inputs": [
        {
          "components": [
            {
              "internalType": "address",
              "name": "rolloverAuction",
              "type": "address"
            },
            {
              "internalType": "uint256",
              "name": "rolloverAmount",
              "type": "uint256"
            },
            {
              "internalType": "bytes32",
              "name": "rolloverBidPriceHash",
              "type": "bytes32"
            }
          ],
          "internalType": "struct TermRepoRolloverElectionSubmission",
          "name": "termRepoRolloverElectionSubmission",
          "type": "tuple"
        }
      ],
      "name": "electRollover",
      "outputs": [],
      "stateMutability": "nonpayable",
      "type": "function"
    },
    {
      "inputs": [
        {
          "internalType": "address",
          "name": "borrower",
          "type": "address"
        }
      ],
      "name": "fulfillRollover",
      "outputs": [],
      "stateMutability": "nonpayable",
      "type": "function"
    },
    {
      "inputs": [
        {
          "internalType": "bytes32",
          "name": "role",
          "type": "bytes32"
        }
      ],
      "name": "getRoleAdmin",
      "outputs": [
        {
          "internalType": "bytes32",
          "name": "",
          "type": "bytes32"
        }
      ],
      "stateMutability": "view",
      "type": "function"
    },
    {
      "inputs": [
        {
          "internalType": "address",
          "name": "borrower",
          "type": "address"
        }
      ],
      "name": "getRolloverInstructions",
      "outputs": [
        {
          "components": [
            {
              "internalType": "address",
              "name": "rolloverAuction",
              "type": "address"
            },
            {
              "internalType": "uint256",
              "name": "rolloverAmount",
              "type": "uint256"
            },
            {
              "internalType": "bytes32",
              "name": "rolloverBidPriceHash",
              "type": "bytes32"
            },
            {
              "internalType": "bool",
              "name": "processed",
              "type": "bool"
            }
          ],
          "internalType": "struct TermRepoRolloverElection",
          "name": "",
          "type": "tuple"
        }
      ],
      "stateMutability": "view",
      "type": "function"
    },
    {
      "inputs": [
        {
          "internalType": "bytes32",
          "name": "role",
          "type": "bytes32"
        },
        {
          "internalType": "address",
          "name": "account",
          "type": "address"
        }
      ],
      "name": "grantRole",
      "outputs": [],
      "stateMutability": "nonpayable",
      "type": "function"
    },
    {
      "inputs": [
        {
          "internalType": "bytes32",
          "name": "role",
          "type": "bytes32"
        },
        {
          "internalType": "address",
          "name": "account",
          "type": "address"
        }
      ],
      "name": "hasRole",
      "outputs": [
        {
          "internalType": "bool",
          "name": "",
          "type": "bool"
        }
      ],
      "stateMutability": "view",
      "type": "function"
    },
    {
      "inputs": [
        {
          "internalType": "string",
          "name": "termRepoId_",
          "type": "string"
        },
        {
          "internalType": "contract ITermRepoServicer",
          "name": "termRepoServicer_",
          "type": "address"
        },
        {
          "internalType": "contract ITermRepoCollateralManager",
          "name": "termRepoCollateralManager_",
          "type": "address"
        },
        {
          "internalType": "contract ITermController",
          "name": "termController_",
          "type": "address"
        },
        {
          "internalType": "address",
          "name": "termInitializer_",
          "type": "address"
        }
      ],
      "name": "initialize",
      "outputs": [],
      "stateMutability": "nonpayable",
      "type": "function"
    },
    {
      "inputs": [
        {
          "internalType": "address",
          "name": "termRepoServicer_",
          "type": "address"
        },
        {
          "internalType": "contract ITermEventEmitter",
          "name": "emitter_",
          "type": "address"
        },
        {
          "internalType": "address",
          "name": "devopsMultisig_",
          "type": "address"
        },
        {
          "internalType": "address",
          "name": "adminWallet_",
          "type": "address"
        }
      ],
      "name": "pairTermContracts",
      "outputs": [],
      "stateMutability": "nonpayable",
      "type": "function"
    },
    {
      "inputs": [],
      "name": "proxiableUUID",
      "outputs": [
        {
          "internalType": "bytes32",
          "name": "",
          "type": "bytes32"
        }
      ],
      "stateMutability": "view",
      "type": "function"
    },
    {
      "inputs": [
        {
          "internalType": "bytes32",
          "name": "role",
          "type": "bytes32"
        },
        {
          "internalType": "address",
          "name": "account",
          "type": "address"
        }
      ],
      "name": "renounceRole",
      "outputs": [],
      "stateMutability": "nonpayable",
      "type": "function"
    },
    {
      "inputs": [
        {
          "internalType": "bytes32",
          "name": "role",
          "type": "bytes32"
        },
        {
          "internalType": "address",
          "name": "account",
          "type": "address"
        }
      ],
      "name": "revokeRole",
      "outputs": [],
      "stateMutability": "nonpayable",
      "type": "function"
    },
    {
      "inputs": [
        {
          "internalType": "contract ITermAuctionBidLocker",
          "name": "auctionBidLocker",
          "type": "address"
        }
      ],
      "name": "revokeRolloverApproval",
      "outputs": [],
      "stateMutability": "nonpayable",
      "type": "function"
    },
    {
      "inputs": [
        {
          "internalType": "bytes4",
          "name": "interfaceId",
          "type": "bytes4"
        }
      ],
      "name": "supportsInterface",
      "outputs": [
        {
          "internalType": "bool",
          "name": "",
          "type": "bool"
        }
      ],
      "stateMutability": "view",
      "type": "function"
    },
    {
      "inputs": [],
      "name": "termRepoId",
      "outputs": [
        {
          "internalType": "bytes32",
          "name": "",
          "type": "bytes32"
        }
      ],
      "stateMutability": "view",
      "type": "function"
    },
    {
      "inputs": [
        {
          "internalType": "address",
          "name": "termRepoServicer_",
          "type": "address"
        },
        {
          "internalType": "contract ITermEventEmitter",
          "name": "emitter_",
          "type": "address"
        }
      ],
      "name": "testRepairTermContracts",
      "outputs": [],
      "stateMutability": "nonpayable",
      "type": "function"
    },
    {
      "inputs": [
        {
          "internalType": "address",
          "name": "upgradeAddress",
          "type": "address"
        }
      ],
      "name": "upgrade",
      "outputs": [],
      "stateMutability": "nonpayable",
      "type": "function"
    },
    {
      "inputs": [
        {
          "internalType": "address",
          "name": "newImplementation",
          "type": "address"
        }
      ],
      "name": "upgradeTo",
      "outputs": [],
      "stateMutability": "nonpayable",
      "type": "function"
    },
    {
      "inputs": [
        {
          "internalType": "address",
          "name": "newImplementation",
          "type": "address"
        },
        {
          "internalType": "bytes",
          "name": "data",
          "type": "bytes"
        }
      ],
      "name": "upgradeToAndCall",
      "outputs": [],
      "stateMutability": "payable",
      "type": "function"
    },
    {
      "inputs": [],
      "name": "version",
      "outputs": [
        {
          "internalType": "string",
          "name": "",
          "type": "string"
        }
      ],
      "stateMutability": "view",
      "type": "function"
    }
  ],
  "bytecode": "0x60a0604052306080523480156200001557600080fd5b506200002062000026565b620000e7565b600054610100900460ff1615620000935760405162461bcd60e51b815260206004820152602760248201527f496e697469616c697a61626c653a20636f6e747261637420697320696e697469604482015266616c697a696e6760c81b606482015260840160405180910390fd5b60005460ff90811614620000e5576000805460ff191660ff9081179091556040519081527f7f26b83ff96e1f2b6a682f133852f6798a09c465da95921460cefb38474024989060200160405180910390a15b565b6080516132c06200011f600039600081816109050152818161094501528181610b9e01528181610bde0152610c5601526132c06000f3fe6080604052600436106101415760003560e01c806352d1902d116100b157806352d1902d146103b457806354fd4d50146103c957806363a4027a1461040357806375b238fc1461042557806391d148541461044757806394aba07014610467578063a217fddf14610487578063a8f421c21461049c578063c9bd7256146104bc578063cc5b6e4a146104dc578063d547741f146104f2578063dc371e1b14610512578063e0e846971461053257600080fd5b806301ffc9a7146101465780630900f0101461017b5780630b885ac31461019d578063201a6625146101bd578063248a9ca3146101ed57806326147fce1461021d57806327df3d3e1461023d5780632f2ff15d1461025f57806334e6c7711461027f57806336568abe1461034c5780633659cfe61461036c5780634ab964d01461038c5780634f1ef286146103a1575b600080fd5b34801561015257600080fd5b50610166610161366004612929565b610552565b60405190151581526020015b60405180910390f35b34801561018757600080fd5b5061019b610196366004612978565b610589565b005b3480156101a957600080fd5b5061019b6101b8366004612995565b610595565b3480156101c957600080fd5b506101df6000805160206131c483398151915281565b604051908152602001610172565b3480156101f957600080fd5b506101df610208366004612a48565b600090815260c9602052604090206001015490565b34801561022957600080fd5b5061019b610238366004612978565b61074e565b34801561024957600080fd5b506101df6000805160206131e483398151915281565b34801561026b57600080fd5b5061019b61027a366004612a61565b610853565b34801561028b57600080fd5b5061030e61029a366004612978565b60408051608080820183526000808352602080840182905283850182905260609384018290526001600160a01b039586168252610101815290849020845192830185528054909516825260018501549082015260028401549281019290925260039092015460ff1615159181019190915290565b604051610172919081516001600160a01b03168152602080830151908201526040808301519082015260609182015115159181019190915260800190565b34801561035857600080fd5b5061019b610367366004612a61565b61087d565b34801561037857600080fd5b5061019b610387366004612978565b6108fb565b34801561039857600080fd5b5061019b6109c0565b61019b6103af366004612ae4565b610b94565b3480156103c057600080fd5b506101df610c49565b3480156103d557600080fd5b50604080518082018252600b81526a19195d995b1bdc1b595b9d60aa1b602082015290516101729190612baf565b34801561040f57600080fd5b506101df60008051602061320483398151915281565b34801561043157600080fd5b506101df60008051602061326b83398151915281565b34801561045357600080fd5b50610166610462366004612a61565b610cf7565b34801561047357600080fd5b5061019b610482366004612be2565b610d22565b34801561049357600080fd5b506101df600081565b3480156104a857600080fd5b5061019b6104b7366004612bfa565b611128565b3480156104c857600080fd5b5061019b6104d7366004612978565b611244565b3480156104e857600080fd5b506101df60fb5481565b3480156104fe57600080fd5b5061019b61050d366004612a61565b6112af565b34801561051e57600080fd5b5061019b61052d366004612c56565b6112d4565b34801561053e57600080fd5b5061019b61054d366004612c56565b611be1565b60006001600160e01b03198216637965db0b60e01b148061058357506301ffc9a760e01b6001600160e01b03198316145b92915050565b61059281611c8d565b50565b600054610100900460ff16158080156105b55750600054600160ff909116105b806105d657506105c430611cd7565b1580156105d6575060005460ff166001145b61063e5760405162461bcd60e51b815260206004820152602e60248201527f496e697469616c697a61626c653a20636f6e747261637420697320616c72656160448201526d191e481a5b9a5d1a585b1a5e995960921b60648201526084015b60405180910390fd5b6000805460ff191660011790558015610661576000805461ff0019166101001790555b610669611ce6565b610671611ce6565b8686604051602001610684929190612c84565b60408051601f19818403018152919052805160209091012060fb5560fc80546001600160a01b038087166001600160a01b03199283161790925560fd805488841690831617905560fe805492861692909116919091179055610102805460ff191690556106ff6000805160206131e483398151915283611d53565b8015610745576000805461ff0019169055604051600181527f7f26b83ff96e1f2b6a682f133852f6798a09c465da95921460cefb38474024989060200160405180910390a15b50505050505050565b60008051602061326b83398151915261076681611dd9565b6001600160a01b0380831660008181526101006020908152604091829020805460ff1916905560ff5460fb548351636d73314160e01b815293519190951694634b7025f79490939092636d733141926004808401938290030181865afa1580156107d4573d6000803e3d6000fd5b505050506040513d601f19601f820116820180604052508101906107f89190612c94565b6040516001600160e01b031960e085901b168152600481019290925260248201526044015b600060405180830381600087803b15801561083757600080fd5b505af115801561084b573d6000803e3d6000fd5b505050505050565b600082815260c9602052604090206001015461086e81611dd9565b6108788383611d53565b505050565b6001600160a01b03811633146108ed5760405162461bcd60e51b815260206004820152602f60248201527f416363657373436f6e74726f6c3a2063616e206f6e6c792072656e6f756e636560448201526e103937b632b9903337b91039b2b63360891b6064820152608401610635565b6108f78282611de3565b5050565b6001600160a01b037f00000000000000000000000000000000000000000000000000000000000000001630036109435760405162461bcd60e51b815260040161063590612cad565b7f00000000000000000000000000000000000000000000000000000000000000006001600160a01b0316610975611e4a565b6001600160a01b03161461099b5760405162461bcd60e51b815260040161063590612cf9565b6109a481611c8d565b6040805160008082526020820190925261059291839190611e66565b60fd54604051632762697d60e01b815233916001600160a01b031690632762697d906109f0908490600401612d45565b602060405180830381865afa158015610a0d573d6000803e3d6000fd5b505050506040513d601f19601f82011682018060405250810190610a319190612c94565b600003610a515760405163baca79c960e01b815260040160405180910390fd5b6001600160a01b038116600090815261010160205260408120600101549003610a8d5760405163cfa1b8cf60e01b815260040160405180910390fd5b6001600160a01b0381166000908152610101602052604090206003015460ff1615610acb576040516369d7ecb560e11b815260040160405180910390fd5b6001600160a01b03811660009081526101016020526040812060010155610af181611fd1565b6001600160a01b038082166000908152610101602052604080822080546001600160a01b03191681556001810183905560028101929092556003909101805460ff1916905560ff5460fb54915163f6b650b160e01b815292169163f6b650b191610b5f918590600401612d59565b600060405180830381600087803b158015610b7957600080fd5b505af1158015610b8d573d6000803e3d6000fd5b5050505050565b6001600160a01b037f0000000000000000000000000000000000000000000000000000000000000000163003610bdc5760405162461bcd60e51b815260040161063590612cad565b7f00000000000000000000000000000000000000000000000000000000000000006001600160a01b0316610c0e611e4a565b6001600160a01b031614610c345760405162461bcd60e51b815260040161063590612cf9565b610c3d82611c8d565b6108f782826001611e66565b6000306001600160a01b037f00000000000000000000000000000000000000000000000000000000000000001614610ce45760405162461bcd60e51b815260206004820152603860248201527f555550535570677261646561626c653a206d757374206e6f742062652063616c6044820152771b1959081d1a1c9bdd59da0819195b1959d85d1958d85b1b60421b6064820152608401610635565b5060008051602061322483398151915290565b600091825260c9602090815260408084206001600160a01b0393909316845291905290205460ff1690565b60fd60009054906101000a90046001600160a01b03166001600160a01b0316633d0f31f76040518163ffffffff1660e01b8152600401602060405180830381865afa158015610d75573d6000803e3d6000fd5b505050506040513d601f19601f82011682018060405250810190610d999190612c94565b4210610db857604051630bfaaefb60e31b815260040160405180910390fd5b60fd54604051632762697d60e01b815233916000916001600160a01b0390911690632762697d90610ded908590600401612d45565b602060405180830381865afa158015610e0a573d6000803e3d6000fd5b505050506040513d601f19601f82011682018060405250810190610e2e9190612c94565b905080600003610e515760405163baca79c960e01b815260040160405180910390fd5b6101006000610e636020860186612978565b6001600160a01b0316815260208101919091526040016000205460ff16610eab57610e916020840184612978565b60405163f4024d0d60e01b81526004016106359190612d45565b6001600160a01b0382166000908152610101602052604090206003015460ff1615610ee9576040516369d7ecb560e11b815260040160405180910390fd5b8260200135600003610f3c5760405163dd23c3ad60e01b815260206004820152601b60248201527a0526f6c6c6f76657220616d6f756e742063616e6e6f74206265203602c1b6044820152606401610635565b8260200135811015610f61576040516306f6aad160e11b815260040160405180910390fd5b604080516080810190915280610f7a6020860186612978565b6001600160a01b0390811682526020868101803582850152604080890135818601526000606095860181905288851681526101018452818120875181546001600160a01b0319169616959095178555928601516001850155850151600284015593909201516003909101805460ff191691151591909117905590610ffe9085612978565b905060ff60009054906101000a90046001600160a01b03166001600160a01b031663b0b50c2360fb54836001600160a01b031663cc5b6e4a6040518163ffffffff1660e01b8152600401602060405180830381865afa158015611065573d6000803e3d6000fd5b505050506040513d601f19601f820116820180604052508101906110899190612c94565b8661109760208a018a612978565b604080516001600160e01b031960e088901b168152600481019590955260248501939093526001600160a01b0391821660448501521660648301526020880135608483015287013560a482015260c401600060405180830381600087803b15801561110157600080fd5b505af1158015611115573d6000803e3d6000fd5b5050505061112283611fd1565b50505050565b6000805160206131e483398151915261114081611dd9565b6101025460ff161561116557604051634ce377bb60e11b815260040160405180910390fd5b610102805460ff1916600117905560ff80546001600160a01b0386166001600160a01b03199091161790556111a860008051602061320483398151915286611d53565b6111c06000805160206131c483398151915284611d53565b6111d860008051602061326b83398151915283611d53565b60ff5460fb5460405163e69a5f4760e01b81526001600160a01b039092169163e69a5f479161120b913090600401612d59565b600060405180830381600087803b15801561122557600080fd5b505af1158015611239573d6000803e3d6000fd5b505050505050505050565b60008051602061320483398151915261125c81611dd9565b6001600160a01b038083166000908152610101602052604090819020600301805460ff1916600117905560ff5460fb549151633f2194cf60e01b8152921691633f2194cf9161081d918690600401612d59565b600082815260c960205260409020600101546112ca81611dd9565b6108788383611de3565b60008051602061326b8339815191526112ec81611dd9565b60fd60009054906101000a90046001600160a01b03166001600160a01b0316633d0f31f76040518163ffffffff1660e01b8152600401602060405180830381865afa15801561133f573d6000803e3d6000fd5b505050506040513d601f19601f820116820180604052508101906113639190612c94565b421061138257604051630bfaaefb60e31b815260040160405180910390fd5b60fe5460405163e7e4b8db60e01b81526001600160a01b039091169063e7e4b8db906113b2908690600401612d45565b602060405180830381865afa1580156113cf573d6000803e3d6000fd5b505050506040513d601f19601f820116820180604052508101906113f39190612d70565b6114125782604051632d1cae5560e21b81526004016106359190612d45565b60fe5460405163e7e4b8db60e01b81526001600160a01b039091169063e7e4b8db90611442908590600401612d45565b602060405180830381865afa15801561145f573d6000803e3d6000fd5b505050506040513d601f19601f820116820180604052508101906114839190612d70565b6114a25781604051632d1cae5560e21b81526004016106359190612d45565b60fd60009054906101000a90046001600160a01b03166001600160a01b0316631320834f6040518163ffffffff1660e01b8152600401602060405180830381865afa1580156114f5573d6000803e3d6000fd5b505050506040513d601f19601f820116820180604052508101906115199190612c94565b836001600160a01b0316634b449cba6040518163ffffffff1660e01b8152600401602060405180830381865afa158015611557573d6000803e3d6000fd5b505050506040513d601f19601f8201168201806040525081019061157b9190612c94565b111561159a57604051632570863b60e01b815260040160405180910390fd5b60fd60009054906101000a90046001600160a01b03166001600160a01b0316633d0f31f76040518163ffffffff1660e01b8152600401602060405180830381865afa1580156115ed573d6000803e3d6000fd5b505050506040513d601f19601f820116820180604052508101906116119190612c94565b836001600160a01b0316634b449cba6040518163ffffffff1660e01b8152600401602060405180830381865afa15801561164f573d6000803e3d6000fd5b505050506040513d601f19601f820116820180604052508101906116739190612c94565b10156116925760405163920a080760e01b815260040160405180910390fd5b826001600160a01b031663a95c4d626040518163ffffffff1660e01b8152600401602060405180830381865afa1580156116d0573d6000803e3d6000fd5b505050506040513d601f19601f820116820180604052508101906116f49190612d92565b6001600160a01b031660fd60009054906101000a90046001600160a01b03166001600160a01b031663a95c4d626040518163ffffffff1660e01b8152600401602060405180830381865afa158015611750573d6000803e3d6000fd5b505050506040513d601f19601f820116820180604052508101906117749190612d92565b6001600160a01b0316146118765760fd60009054906101000a90046001600160a01b03166001600160a01b031663a95c4d626040518163ffffffff1660e01b8152600401602060405180830381865afa1580156117d5573d6000803e3d6000fd5b505050506040513d601f19601f820116820180604052508101906117f99190612d92565b836001600160a01b031663a95c4d626040518163ffffffff1660e01b8152600401602060405180830381865afa158015611837573d6000803e3d6000fd5b505050506040513d601f19601f8201168201806040525081019061185b9190612d92565b604051634b64dec160e11b8152600401610635929190612daf565b60fc5460408051630c87400960e11b815290516000926001600160a01b03169163190e80129160048083019260209291908290030181865afa1580156118c0573d6000803e3d6000fd5b505050506040513d601f19601f820116820180604052508101906118e49190612dc9565b60ff16905060005b81811015611a025760fc5460405163172c48c760e01b8152600481018390526000916001600160a01b03169063172c48c790602401602060405180830381865afa15801561193e573d6000803e3d6000fd5b505050506040513d601f19601f820116820180604052508101906119629190612d92565b60405163cffbc29760e01b81529091506001600160a01b0387169063cffbc29790611991908490600401612d45565b602060405180830381865afa1580156119ae573d6000803e3d6000fd5b505050506040513d601f19601f820116820180604052508101906119d29190612d70565b6119f1578060405163fa842beb60e01b81526004016106359190612d45565b506119fb81612e02565b90506118ec565b506001600160a01b038085166000908152610100602052604090819020805460ff1916600117905560fd549051637eae9abd60e11b815291169063fd5d357a90611a50908690600401612d45565b600060405180830381600087803b158015611a6a57600080fd5b505af1158015611a7e573d6000803e3d6000fd5b505060fc54604051637eae9abd60e11b81526001600160a01b03909116925063fd5d357a9150611ab2908690600401612d45565b600060405180830381600087803b158015611acc57600080fd5b505af1158015611ae0573d6000803e3d6000fd5b50505050611afc60008051602061320483398151915284611d53565b60ff60009054906101000a90046001600160a01b03166001600160a01b031663a34bfcd160fb54866001600160a01b0316636d7331416040518163ffffffff1660e01b8152600401602060405180830381865afa158015611b61573d6000803e3d6000fd5b505050506040513d601f19601f82011682018060405250810190611b859190612c94565b6040516001600160e01b031960e085901b16815260048101929092526024820152604401600060405180830381600087803b158015611bc357600080fd5b505af1158015611bd7573d6000803e3d6000fd5b5050505050505050565b6000805160206131e4833981519152611bf981611dd9565b60ff80546001600160a01b0319166001600160a01b038416179055611c2c60008051602061320483398151915284611d53565b60ff5460fb5460405163e69a5f4760e01b81526001600160a01b039092169163e69a5f4791611c5f913090600401612d59565b600060405180830381600087803b158015611c7957600080fd5b505af1158015610745573d6000803e3d6000fd5b6000805160206131c4833981519152611ca581611dd9565b60ff5460405163b3c2d50b60e01b81526001600160a01b039091169063b3c2d50b9061081d9030908690600401612daf565b6001600160a01b03163b151590565b600054610100900460ff16611d515760405162461bcd60e51b815260206004820152602b60248201527f496e697469616c697a61626c653a20636f6e7472616374206973206e6f74206960448201526a6e697469616c697a696e6760a81b6064820152608401610635565b565b611d5d8282610cf7565b6108f757600082815260c9602090815260408083206001600160a01b03851684529091529020805460ff19166001179055611d953390565b6001600160a01b0316816001600160a01b0316837f2f8788117e7eff1d82e926ec794901d17c78024a50270940304540a733656f0d60405160405180910390a45050565b6105928133612425565b611ded8282610cf7565b156108f757600082815260c9602090815260408083206001600160a01b0385168085529252808320805460ff1916905551339285917ff6391f5c32d9c69d2a47ea670b442974b53935d1edc7fd64eb21e047a839171b9190a45050565b600080516020613224833981519152546001600160a01b031690565b7f4910fdfa16fed3260ed0e7147f7cc6da11a60208b5b9406d12a635614ffd91435460ff1615611e99576108788361247e565b826001600160a01b03166352d1902d6040518163ffffffff1660e01b8152600401602060405180830381865afa925050508015611ef3575060408051601f3d908101601f19168201909252611ef091810190612c94565b60015b611f565760405162461bcd60e51b815260206004820152602e60248201527f45524331393637557067726164653a206e657720696d706c656d656e7461746960448201526d6f6e206973206e6f74205555505360901b6064820152608401610635565b6000805160206132248339815191528114611fc55760405162461bcd60e51b815260206004820152602960248201527f45524331393637557067726164653a20756e737570706f727465642070726f786044820152681a58589b195555525160ba1b6064820152608401610635565b50610878838383612518565b6001600160a01b038082166000908152610101602090815260408083208151608081018352815490951680865260018201548685015260028201548684015260039091015460ff16151560608601528151631abd3be960e11b81529151909392849263357a77d292600480830193928290030181865afa158015612059573d6000803e3d6000fd5b505050506040513d601f19601f8201168201806040525081019061207d9190612d92565b905060006121686040518060200160405280856001600160a01b0316637a6944c56040518163ffffffff1660e01b8152600401602060405180830381865afa1580156120cd573d6000803e3d6000fd5b505050506040513d601f19601f820116820180604052508101906120f19190612c94565b8152506040518060200160405280856001600160a01b031663fa19d0ed6040518163ffffffff1660e01b8152600401602060405180830381865afa15801561213d573d6000803e3d6000fd5b505050506040513d601f19601f820116820180604052508101906121619190612c94565b905261253d565b516020850151909150600090156121d5576121ce6121c96040518060200160405280670de0b6b3a764000089602001516121a29190612e1b565b90526040805160208101909152806121c287670de0b6b3a7640000612e32565b9052612585565b6125bf565b90506121d9565b5060005b60fc54604051636f3fc39760e11b81526000916001600160a01b03169063de7f872e9061220a908a90600401612d45565b600060405180830381865afa158015612227573d6000803e3d6000fd5b505050506040513d6000823e601f3d908101601f1916820160405261224f9190810190612ed3565b509050600081516001600160401b0381111561226d5761226d612a9e565b604051908082528060200260200182016040528015612296578160200160208202803683370190505b506040805161016081019091526001600160601b031930606090811b82166101808401528b901b16610194820152909150600090806101a881016040516020818303038152906040528051906020012081526020018a6001600160a01b03168152602001896040015181526020016000815260200185815260200183815260200160fd60009054906101000a90046001600160a01b03166001600160a01b031663a95c4d626040518163ffffffff1660e01b8152600401602060405180830381865afa15801561236a573d6000803e3d6000fd5b505050506040513d601f19601f8201168201806040525081019061238e9190612d92565b6001600160a01b03908116825260208201869052600160408084019190915260fd54821660608401526000608090930192909252905163730f807360e11b815291925088169063e61f00e6906123e890849060040161300b565b600060405180830381600087803b15801561240257600080fd5b505af1158015612416573d6000803e3d6000fd5b50505050505050505050505050565b61242f8282610cf7565b6108f75761243c816125d7565b6124478360206125e9565b6040516020016124589291906130d6565b60408051601f198184030181529082905262461bcd60e51b825261063591600401612baf565b61248781611cd7565b6124e95760405162461bcd60e51b815260206004820152602d60248201527f455243313936373a206e657720696d706c656d656e746174696f6e206973206e60448201526c1bdd08184818dbdb9d1c9858dd609a1b6064820152608401610635565b60008051602061322483398151915280546001600160a01b0319166001600160a01b0392909216919091179055565b6125218361278b565b60008251118061252e5750805b156108785761112283836127cb565b6040805160208101909152600081526040518060200160405280670de0b6b3a7640000612572866000015186600001516127f0565b61257c9190613145565b90529392505050565b604080516020810190915260008152604051806020016040528061257c6125b88660000151670de0b6b3a76400006127f0565b85516127fc565b805160009061058390670de0b6b3a764000090613145565b60606105836001600160a01b03831660145b606060006125f8836002612e1b565b612603906002613167565b6001600160401b0381111561261a5761261a612a9e565b6040519080825280601f01601f191660200182016040528015612644576020820181803683370190505b509050600360fc1b8160008151811061265f5761265f61317a565b60200101906001600160f81b031916908160001a905350600f60fb1b8160018151811061268e5761268e61317a565b60200101906001600160f81b031916908160001a90535060006126b2846002612e1b565b6126bd906001613167565b90505b6001811115612735576f181899199a1a9b1b9c1cb0b131b232b360811b85600f16601081106126f1576126f161317a565b1a60f81b8282815181106127075761270761317a565b60200101906001600160f81b031916908160001a90535060049490941c9361272e81613190565b90506126c0565b5083156127845760405162461bcd60e51b815260206004820181905260248201527f537472696e67733a20686578206c656e67746820696e73756666696369656e746044820152606401610635565b9392505050565b6127948161247e565b6040516001600160a01b038216907fbc7cd75a20ee27fd9adebab32041f755214dbc6bffa90cc0225b39da2e5c2d3b90600090a250565b6060612784838360405180606001604052806027815260200161324460279139612808565b60006127848284612e1b565b60006127848284613145565b6060600080856001600160a01b03168560405161282591906131a7565b600060405180830381855af49150503d8060008114612860576040519150601f19603f3d011682016040523d82523d6000602084013e612865565b606091505b509150915061287686838387612880565b9695505050505050565b606083156128ed5782516000036128e65761289a85611cd7565b6128e65760405162461bcd60e51b815260206004820152601d60248201527f416464726573733a2063616c6c20746f206e6f6e2d636f6e74726163740000006044820152606401610635565b50816128f7565b6128f783836128ff565b949350505050565b81511561290f5781518083602001fd5b8060405162461bcd60e51b81526004016106359190612baf565b60006020828403121561293b57600080fd5b81356001600160e01b03198116811461278457600080fd5b6001600160a01b038116811461059257600080fd5b803561297381612953565b919050565b60006020828403121561298a57600080fd5b813561278481612953565b60008060008060008060a087890312156129ae57600080fd5b86356001600160401b03808211156129c557600080fd5b818901915089601f8301126129d957600080fd5b8135818111156129e857600080fd5b8a60208285010111156129fa57600080fd5b60209283019850965050870135612a1081612953565b93506040870135612a2081612953565b9250612a2e60608801612968565b9150612a3c60808801612968565b90509295509295509295565b600060208284031215612a5a57600080fd5b5035919050565b60008060408385031215612a7457600080fd5b823591506020830135612a8681612953565b809150509250929050565b6001600160a01b03169052565b634e487b7160e01b600052604160045260246000fd5b604051601f8201601f191681016001600160401b0381118282101715612adc57612adc612a9e565b604052919050565b60008060408385031215612af757600080fd5b8235612b0281612953565b91506020838101356001600160401b0380821115612b1f57600080fd5b818601915086601f830112612b3357600080fd5b813581811115612b4557612b45612a9e565b612b57601f8201601f19168501612ab4565b91508082528784828501011115612b6d57600080fd5b80848401858401376000848284010152508093505050509250929050565b60005b83811015612ba6578181015183820152602001612b8e565b50506000910152565b6020815260008251806020840152612bce816040850160208701612b8b565b601f01601f19169190910160400192915050565b600060608284031215612bf457600080fd5b50919050565b60008060008060808587031215612c1057600080fd5b8435612c1b81612953565b93506020850135612c2b81612953565b92506040850135612c3b81612953565b91506060850135612c4b81612953565b939692955090935050565b60008060408385031215612c6957600080fd5b8235612c7481612953565b91506020830135612a8681612953565b8183823760009101908152919050565b600060208284031215612ca657600080fd5b5051919050565b6020808252602c908201527f46756e6374696f6e206d7573742062652063616c6c6564207468726f7567682060408201526b19195b1959d85d1958d85b1b60a21b606082015260800190565b6020808252602c908201527f46756e6374696f6e206d7573742062652063616c6c6564207468726f7567682060408201526b6163746976652070726f787960a01b606082015260800190565b6001600160a01b0391909116815260200190565b9182526001600160a01b0316602082015260400190565b600060208284031215612d8257600080fd5b8151801515811461278457600080fd5b600060208284031215612da457600080fd5b815161278481612953565b6001600160a01b0392831681529116602082015260400190565b600060208284031215612ddb57600080fd5b815160ff8116811461278457600080fd5b634e487b7160e01b600052601160045260246000fd5b600060018201612e1457612e14612dec565b5060010190565b808202811582820484141761058357610583612dec565b8181038181111561058357610583612dec565b60006001600160401b03821115612e5e57612e5e612a9e565b5060051b60200190565b600082601f830112612e7957600080fd5b81516020612e8e612e8983612e45565b612ab4565b82815260059290921b84018101918181019086841115612ead57600080fd5b8286015b84811015612ec85780518352918301918301612eb1565b509695505050505050565b60008060408385031215612ee657600080fd5b82516001600160401b0380821115612efd57600080fd5b818501915085601f830112612f1157600080fd5b81516020612f21612e8983612e45565b82815260059290921b84018101918181019089841115612f4057600080fd5b948201945b83861015612f67578551612f5881612953565b82529482019490820190612f45565b91880151919650909350505080821115612f8057600080fd5b50612f8d85828601612e68565b9150509250929050565b600081518084526020808501945080840160005b83811015612fc757815187529582019590820190600101612fab565b509495945050505050565b600081518084526020808501945080840160005b83811015612fc75781516001600160a01b031687529582019590820190600101612fe6565b60208152815160208201526000602083015161302a6040840182612a91565b506040830151606083015260608301516080830152608083015160a083015260a08301516101608060c0850152613065610180850183612f97565b915060c085015161307960e0860182612a91565b5060e0850151610100601f1986850301818701526130978483612fd2565b9350808701519150506101206130b08187018315159052565b86015190506101406130c486820183612a91565b90950151151593019290925250919050565b76020b1b1b2b9b9a1b7b73a3937b61d1030b1b1b7bab73a1604d1b815260008351613108816017850160208801612b8b565b7001034b99036b4b9b9b4b733903937b6329607d1b6017918401918201528351613139816028840160208801612b8b565b01602801949350505050565b60008261316257634e487b7160e01b600052601260045260246000fd5b500490565b8082018082111561058357610583612dec565b634e487b7160e01b600052603260045260246000fd5b60008161319f5761319f612dec565b506000190190565b600082516131b9818460208701612b8b565b919091019291505056fe793a6c9b7e0a9549c74edc2f9ae0dc50903dfaa9a56fb0116b27a8c71de3e2c630d41a597cac127d8249d31298b50e481ee82c3f4a49ff93c76a22735aa9f3ad960771d60d61bb60ec2f92e1fcc4b84a2e0e340697e8b2b1256a2a12f5f59c69360894a13ba1a3210667c828492db98dca3e2076cc3735a920a3ca505d382bbc416464726573733a206c6f772d6c6576656c2064656c65676174652063616c6c206661696c6564a49807205ce4d355092ef5a8a18f56e8913cf4a201fbe287825b095693c21775a26469706673582212206c2fa75091c72f3fffce129247bc14498f4eded363ba91c04b511c6336e9d06164736f6c63430008120033",
  "linkReferences": {},
  "deployedLinkReferences": {}
}