{
  "_format": "hh-sol-artifact-1",
  "contractName": "TestTermRepoRolloverManager",
  "sourceName": "contracts/test/TestTermRepoRolloverManager.sol",
  "abi": [
    {
      "inputs": [],
      "name": "AccessControlBadConfirmation",
      "type": "error"
    },
    {
      "inputs": [
        {
          "internalType": "address",
          "name": "account",
          "type": "address"
        },
        {
          "internalType": "bytes32",
          "name": "neededRole",
          "type": "bytes32"
        }
      ],
      "name": "AccessControlUnauthorizedAccount",
      "type": "error"
    },
    {
      "inputs": [
        {
          "internalType": "address",
          "name": "target",
          "type": "address"
        }
      ],
      "name": "AddressEmptyCode",
      "type": "error"
    },
    {
      "inputs": [],
      "name": "AlreadyTermContractPaired",
      "type": "error"
    },
    {
      "inputs": [],
      "name": "AuctionEndsAfterRepayment",
      "type": "error"
    },
    {
      "inputs": [],
      "name": "AuctionEndsBeforeMaturity",
      "type": "error"
    },
    {
      "inputs": [],
      "name": "BorrowerRepurchaseObligationInsufficient",
      "type": "error"
    },
    {
      "inputs": [
        {
          "internalType": "address",
          "name": "invalidCollateralToken",
          "type": "address"
        }
      ],
      "name": "CollateralTokenNotSupported",
      "type": "error"
    },
    {
      "inputs": [
        {
          "internalType": "address",
          "name": "currentPurchaseToken",
          "type": "address"
        },
        {
          "internalType": "address",
          "name": "rolloverPurchaseToken",
          "type": "address"
        }
      ],
      "name": "DifferentPurchaseToken",
      "type": "error"
    },
    {
      "inputs": [
        {
          "internalType": "address",
          "name": "implementation",
          "type": "address"
        }
      ],
      "name": "ERC1967InvalidImplementation",
      "type": "error"
    },
    {
      "inputs": [],
      "name": "ERC1967NonPayable",
      "type": "error"
    },
    {
      "inputs": [],
      "name": "EndOfRepurchaseWindowReached",
      "type": "error"
    },
    {
      "inputs": [],
      "name": "FailedCall",
      "type": "error"
    },
    {
      "inputs": [],
      "name": "InvalidInitialization",
      "type": "error"
    },
    {
      "inputs": [
        {
          "internalType": "string",
          "name": "reason",
          "type": "string"
        }
      ],
      "name": "InvalidParameters",
      "type": "error"
    },
    {
      "inputs": [],
      "name": "NoRolloverToCancel",
      "type": "error"
    },
    {
      "inputs": [],
      "name": "NotInitializing",
      "type": "error"
    },
    {
      "inputs": [
        {
          "internalType": "address",
          "name": "invalidAddress",
          "type": "address"
        }
      ],
      "name": "NotTermContract",
      "type": "error"
    },
    {
      "inputs": [],
      "name": "RepurchaseWindowOver",
      "type": "error"
    },
    {
      "inputs": [
        {
          "internalType": "address",
          "name": "invalidAddress",
          "type": "address"
        }
      ],
      "name": "RolloverAddressNotApproved",
      "type": "error"
    },
    {
      "inputs": [],
      "name": "RolloverLockedToAuction",
      "type": "error"
    },
    {
      "inputs": [],
      "name": "RolloverProcessedToTerm",
      "type": "error"
    },
    {
      "inputs": [],
      "name": "UUPSUnauthorizedCallContext",
      "type": "error"
    },
    {
      "inputs": [
        {
          "internalType": "bytes32",
          "name": "slot",
          "type": "bytes32"
        }
      ],
      "name": "UUPSUnsupportedProxiableUUID",
      "type": "error"
    },
    {
      "inputs": [],
      "name": "ZeroBorrowerRepurchaseObligation",
      "type": "error"
    },
    {
      "anonymous": false,
      "inputs": [
        {
          "indexed": false,
          "internalType": "uint64",
          "name": "version",
          "type": "uint64"
        }
      ],
      "name": "Initialized",
      "type": "event"
    },
    {
      "anonymous": false,
      "inputs": [
        {
          "indexed": true,
          "internalType": "bytes32",
          "name": "role",
          "type": "bytes32"
        },
        {
          "indexed": true,
          "internalType": "bytes32",
          "name": "previousAdminRole",
          "type": "bytes32"
        },
        {
          "indexed": true,
          "internalType": "bytes32",
          "name": "newAdminRole",
          "type": "bytes32"
        }
      ],
      "name": "RoleAdminChanged",
      "type": "event"
    },
    {
      "anonymous": false,
      "inputs": [
        {
          "indexed": true,
          "internalType": "bytes32",
          "name": "role",
          "type": "bytes32"
        },
        {
          "indexed": true,
          "internalType": "address",
          "name": "account",
          "type": "address"
        },
        {
          "indexed": true,
          "internalType": "address",
          "name": "sender",
          "type": "address"
        }
      ],
      "name": "RoleGranted",
      "type": "event"
    },
    {
      "anonymous": false,
      "inputs": [
        {
          "indexed": true,
          "internalType": "bytes32",
          "name": "role",
          "type": "bytes32"
        },
        {
          "indexed": true,
          "internalType": "address",
          "name": "account",
          "type": "address"
        },
        {
          "indexed": true,
          "internalType": "address",
          "name": "sender",
          "type": "address"
        }
      ],
      "name": "RoleRevoked",
      "type": "event"
    },
    {
      "anonymous": false,
      "inputs": [
        {
          "indexed": true,
          "internalType": "address",
          "name": "implementation",
          "type": "address"
        }
      ],
      "name": "Upgraded",
      "type": "event"
    },
    {
      "inputs": [],
      "name": "ADMIN_ROLE",
      "outputs": [
        {
          "internalType": "bytes32",
          "name": "",
          "type": "bytes32"
        }
      ],
      "stateMutability": "view",
      "type": "function"
    },
    {
      "inputs": [],
      "name": "DEFAULT_ADMIN_ROLE",
      "outputs": [
        {
          "internalType": "bytes32",
          "name": "",
          "type": "bytes32"
        }
      ],
      "stateMutability": "view",
      "type": "function"
    },
    {
      "inputs": [],
      "name": "DEVOPS_ROLE",
      "outputs": [
        {
          "internalType": "bytes32",
          "name": "",
          "type": "bytes32"
        }
      ],
      "stateMutability": "view",
      "type": "function"
    },
    {
      "inputs": [],
      "name": "DIAMOND_ROLE",
      "outputs": [
        {
          "internalType": "bytes32",
          "name": "",
          "type": "bytes32"
        }
      ],
      "stateMutability": "view",
      "type": "function"
    },
    {
      "inputs": [],
      "name": "INITIALIZER_ROLE",
      "outputs": [
        {
          "internalType": "bytes32",
          "name": "",
          "type": "bytes32"
        }
      ],
      "stateMutability": "view",
      "type": "function"
    },
    {
      "inputs": [],
      "name": "ROLLOVER_BID_FULFILLER_ROLE",
      "outputs": [
        {
          "internalType": "bytes32",
          "name": "",
          "type": "bytes32"
        }
      ],
      "stateMutability": "view",
      "type": "function"
    },
    {
      "inputs": [],
      "name": "UPGRADE_INTERFACE_VERSION",
      "outputs": [
        {
          "internalType": "string",
          "name": "",
          "type": "string"
        }
      ],
      "stateMutability": "view",
      "type": "function"
    },
    {
      "inputs": [
        {
          "internalType": "contract ITermAuctionBidLocker",
          "name": "auctionBidLocker",
          "type": "address"
        }
      ],
      "name": "approveRolloverAuction",
      "outputs": [],
      "stateMutability": "nonpayable",
      "type": "function"
    },
    {
      "inputs": [
        {
          "internalType": "address",
          "name": "borrower",
          "type": "address"
        }
      ],
      "name": "cancelRollover",
      "outputs": [],
      "stateMutability": "nonpayable",
      "type": "function"
    },
    {
      "inputs": [],
      "name": "cancelRollover",
      "outputs": [],
      "stateMutability": "nonpayable",
      "type": "function"
    },
    {
      "inputs": [
        {
          "internalType": "address",
          "name": "borrower",
          "type": "address"
        },
        {
          "components": [
            {
              "internalType": "address",
              "name": "rolloverAuctionBidLocker",
              "type": "address"
            },
            {
              "internalType": "uint256",
              "name": "rolloverAmount",
              "type": "uint256"
            },
            {
              "internalType": "bytes32",
              "name": "rolloverBidPriceHash",
              "type": "bytes32"
            }
          ],
          "internalType": "struct TermRepoRolloverElectionSubmission",
          "name": "termRepoRolloverElectionSubmission",
          "type": "tuple"
        }
      ],
      "name": "electRollover",
      "outputs": [],
      "stateMutability": "nonpayable",
      "type": "function"
    },
    {
      "inputs": [
        {
          "components": [
            {
              "internalType": "address",
              "name": "rolloverAuctionBidLocker",
              "type": "address"
            },
            {
              "internalType": "uint256",
              "name": "rolloverAmount",
              "type": "uint256"
            },
            {
              "internalType": "bytes32",
              "name": "rolloverBidPriceHash",
              "type": "bytes32"
            }
          ],
          "internalType": "struct TermRepoRolloverElectionSubmission",
          "name": "termRepoRolloverElectionSubmission",
          "type": "tuple"
        }
      ],
      "name": "electRollover",
      "outputs": [],
      "stateMutability": "nonpayable",
      "type": "function"
    },
    {
      "inputs": [
        {
          "internalType": "address",
          "name": "borrower",
          "type": "address"
        }
      ],
      "name": "fulfillRollover",
      "outputs": [],
      "stateMutability": "nonpayable",
      "type": "function"
    },
    {
      "inputs": [
        {
          "internalType": "bytes32",
          "name": "role",
          "type": "bytes32"
        }
      ],
      "name": "getRoleAdmin",
      "outputs": [
        {
          "internalType": "bytes32",
          "name": "",
          "type": "bytes32"
        }
      ],
      "stateMutability": "view",
      "type": "function"
    },
    {
      "inputs": [
        {
          "internalType": "address",
          "name": "borrower",
          "type": "address"
        }
      ],
      "name": "getRolloverInstructions",
      "outputs": [
        {
          "components": [
            {
              "internalType": "address",
              "name": "rolloverAuctionBidLocker",
              "type": "address"
            },
            {
              "internalType": "uint256",
              "name": "rolloverAmount",
              "type": "uint256"
            },
            {
              "internalType": "bytes32",
              "name": "rolloverBidPriceHash",
              "type": "bytes32"
            },
            {
              "internalType": "bool",
              "name": "processed",
              "type": "bool"
            }
          ],
          "internalType": "struct TermRepoRolloverElection",
          "name": "",
          "type": "tuple"
        }
      ],
      "stateMutability": "view",
      "type": "function"
    },
    {
      "inputs": [
        {
          "internalType": "bytes32",
          "name": "role",
          "type": "bytes32"
        },
        {
          "internalType": "address",
          "name": "account",
          "type": "address"
        }
      ],
      "name": "grantRole",
      "outputs": [],
      "stateMutability": "nonpayable",
      "type": "function"
    },
    {
      "inputs": [
        {
          "internalType": "bytes32",
          "name": "role",
          "type": "bytes32"
        },
        {
          "internalType": "address",
          "name": "account",
          "type": "address"
        }
      ],
      "name": "hasRole",
      "outputs": [
        {
          "internalType": "bool",
          "name": "",
          "type": "bool"
        }
      ],
      "stateMutability": "view",
      "type": "function"
    },
    {
      "inputs": [
        {
          "internalType": "string",
          "name": "termRepoId_",
          "type": "string"
        },
        {
          "internalType": "contract ITermRepoServicer",
          "name": "termRepoServicer_",
          "type": "address"
        },
        {
          "internalType": "contract ITermRepoCollateralManager",
          "name": "termRepoCollateralManager_",
          "type": "address"
        },
        {
          "internalType": "contract ITermController",
          "name": "termController_",
          "type": "address"
        },
        {
          "internalType": "address",
          "name": "termInitializer_",
          "type": "address"
        }
      ],
      "name": "initialize",
      "outputs": [],
      "stateMutability": "nonpayable",
      "type": "function"
    },
    {
      "inputs": [
        {
          "internalType": "address",
          "name": "termRepoServicer_",
          "type": "address"
        },
        {
          "internalType": "address",
          "name": "termDiamond_",
          "type": "address"
        },
        {
          "internalType": "contract ITermEventEmitter",
          "name": "emitter_",
          "type": "address"
        },
        {
          "internalType": "address",
          "name": "devopsMultisig_",
          "type": "address"
        },
        {
          "internalType": "address",
          "name": "adminWallet_",
          "type": "address"
        }
      ],
      "name": "pairTermContracts",
      "outputs": [],
      "stateMutability": "nonpayable",
      "type": "function"
    },
    {
      "inputs": [],
      "name": "proxiableUUID",
      "outputs": [
        {
          "internalType": "bytes32",
          "name": "",
          "type": "bytes32"
        }
      ],
      "stateMutability": "view",
      "type": "function"
    },
    {
      "inputs": [
        {
          "internalType": "bytes32",
          "name": "role",
          "type": "bytes32"
        },
        {
          "internalType": "address",
          "name": "callerConfirmation",
          "type": "address"
        }
      ],
      "name": "renounceRole",
      "outputs": [],
      "stateMutability": "nonpayable",
      "type": "function"
    },
    {
      "inputs": [
        {
          "internalType": "bytes32",
          "name": "role",
          "type": "bytes32"
        },
        {
          "internalType": "address",
          "name": "account",
          "type": "address"
        }
      ],
      "name": "revokeRole",
      "outputs": [],
      "stateMutability": "nonpayable",
      "type": "function"
    },
    {
      "inputs": [
        {
          "internalType": "contract ITermAuctionBidLocker",
          "name": "auctionBidLocker",
          "type": "address"
        }
      ],
      "name": "revokeRolloverApproval",
      "outputs": [],
      "stateMutability": "nonpayable",
      "type": "function"
    },
    {
      "inputs": [
        {
          "internalType": "bytes4",
          "name": "interfaceId",
          "type": "bytes4"
        }
      ],
      "name": "supportsInterface",
      "outputs": [
        {
          "internalType": "bool",
          "name": "",
          "type": "bool"
        }
      ],
      "stateMutability": "view",
      "type": "function"
    },
    {
      "inputs": [],
      "name": "termController",
      "outputs": [
        {
          "internalType": "contract ITermController",
          "name": "",
          "type": "address"
        }
      ],
      "stateMutability": "view",
      "type": "function"
    },
    {
      "inputs": [],
      "name": "termRepoId",
      "outputs": [
        {
          "internalType": "bytes32",
          "name": "",
          "type": "bytes32"
        }
      ],
      "stateMutability": "view",
      "type": "function"
    },
    {
      "inputs": [
        {
          "internalType": "address",
          "name": "termRepoServicer_",
          "type": "address"
        },
        {
          "internalType": "contract ITermEventEmitter",
          "name": "emitter_",
          "type": "address"
        }
      ],
      "name": "testRepairTermContracts",
      "outputs": [],
      "stateMutability": "nonpayable",
      "type": "function"
    },
    {
      "inputs": [
        {
          "internalType": "address",
          "name": "upgradeAddress",
          "type": "address"
        }
      ],
      "name": "upgrade",
      "outputs": [],
      "stateMutability": "nonpayable",
      "type": "function"
    },
    {
      "inputs": [
        {
          "internalType": "address",
          "name": "newImplementation",
          "type": "address"
        },
        {
          "internalType": "bytes",
          "name": "data",
          "type": "bytes"
        }
      ],
      "name": "upgradeToAndCall",
      "outputs": [],
      "stateMutability": "payable",
      "type": "function"
    },
    {
      "inputs": [],
      "name": "version",
      "outputs": [
        {
          "internalType": "string",
          "name": "",
          "type": "string"
        }
      ],
      "stateMutability": "view",
      "type": "function"
    }
  ],
  "bytecode": "0x60a080604052346100cd57306080527ff0c57e16840df040f15088dc2f81fe391c3923bec73e23a9662efc9c229c6a009081549060ff8260401c166100be57506001600160401b036002600160401b031982821601610079575b604051612dab9081620000d3823960805181818161141501526114e30152f35b6001600160401b031990911681179091556040519081527fc7f505b2f371ae2175ee4913f4499e1f2633a7b5936321eed1cdaeb6115181d290602090a1388080610059565b63f92ee8a960e01b8152600490fd5b600080fdfe608060409080825260048036101561001657600080fd5b600091823560e01c90816301ffc9a714611c3b575080630900f01014611bc85780630b885ac3146119ed578063201a6625146119c457806321f09a201461199a578063248a9ca31461196157806325c3ed471461193857806326147fce1461185a57806327df3d3e146118315780632f2ff15d1461180857806334e6c7711461176257806336568abe1461171c5780634ab964d0146117025780634f1ef2861461146757806352d1902d146113ff57806354fd4d50146113bc57806363a4027a1461139357806367004d821461102a57806375b238fc146110015780637910b46414610f4457806391d1485414610ef057806394aba07014610b90578063a217fddf14610b75578063ad3cb1cc14610b34578063c9bd725614610a65578063cc33cb4514610a3c578063cc5b6e4a14610a1f578063d547741f146109d3578063e0e846971461093d5763fd5d357a1461016e57600080fd5b3461071e5760209283600319360112610939576001600160a01b0393823585811690819003610935576002548351631320834f60e01b808252959188169084818481855afa908115610490578891610908575b504210156108f9576101d16121ea565b600354855163e7e4b8db60e01b8152838101859052602497918a169086818a81855afa9081156104d857899188918c916108dc575b5015928361088b575b5050506108755785516325a24e5d60e11b808252919086818681895afa9081156104d8578a91610848575b50875191825286828681875afa9182156104d8578a92610819575b50101561080957855190815284818481875afa9081156104905788916107dc575b508551633d0f31f760e01b81529085828581865afa9182156104b25789926107ad575b501061079e5784516354ae26b160e11b808252919085818581855afa9081156104b2578991610769575b50865183815286818681895afa80156104d8578b908b90610733575b8192501691160361064657505060019680600154168551630c87400960e11b815285818581855afa80156104b257899061060e575b60ff91501690885b82811061051c5750505082875260058452848720805460ff191660011790558451637d33274f60e01b8152969750879684818481875afa9081156104905790829189916104e2575b50168160025416803b156104d457865189818a8183637eae9abd60e11b96878352888b8401525af180156104d857908a916104c0575b5050826001541690813b156104bc5789918983928a5194859384928352878a8401525af180156104b25790899161049a575b50506103d790611ebd565b50815416908084885494875192838092636d73314160e01b82525afa948515610490578895610458575b5050813b15610454578660449281958751988996879563a34bfcd160e01b87528601528401525af190811561044b57506104385750f35b61044190611cd1565b6104485780f35b80fd5b513d84823e3d90fd5b8680fd5b819850809295503d8311610489575b6104718183611d4b565b8101031261048457869551923880610401565b600080fd5b503d610467565b86513d8a823e3d90fd5b6104a390611cd1565b6104ae5787386103cc565b8780fd5b87513d8b823e3d90fd5b8980fd5b6104c990611cd1565b6104d457883861039a565b8880fd5b88513d8c823e3d90fd5b809250868092503d8311610515575b6104fb8183611d4b565b810103126104ae575181811681036104ae57819038610364565b503d6104f1565b875163172c48c760e01b815285810182905287818b81865afa908115610604579085918c916105c8575b5016885163cffbc29760e01b8152818782015288818c818b5afa9081156105be578c91610591575b501561057c57508a0161031c565b858a918a519163fa842beb60e01b8352820152fd5b6105b19150893d8b116105b7575b6105a98183611d4b565b810190611deb565b3861056e565b503d61059f565b8a513d8e823e3d90fd5b809250898092503d83116105fd575b6105e18183611d4b565b810103126105f9576105f38591611e03565b38610546565b8a80fd5b503d6105d7565b89513d8d823e3d90fd5b508581813d831161063f575b6106248183611d4b565b810103126104d4575160ff811681036104d45760ff90610314565b503d61061a565b829792965084908651988980928582525afa9687156107295782976106ed575b5083908686518095819382525afa9283156106e15781936106a3575b50509151634b64dec160e11b815293849361069f93508401611e17565b0390fd5b9091809350813d83116106da575b6106bb8183611d4b565b810103126104485750906106d161069f92611e03565b90918580610682565b503d6106b1565b508351903d90823e3d90fd5b9096508381813d8311610722575b6107058183611d4b565b8101031261071e576107178491611e03565b9690610666565b5080fd5b503d6106fb565b85513d84823e3d90fd5b50508681813d8311610762575b61074a8183611d4b565b810103126104bc578a61075d8192611e03565b6102df565b503d610740565b90508581813d8311610797575b6107808183611d4b565b810103126104d45761079190611e03565b386102c3565b503d610776565b50835163920a080760e01b8152fd5b9091508581813d83116107d5575b6107c58183611d4b565b8101031261048457519038610299565b503d6107bb565b90508481813d8311610802575b6107f38183611d4b565b81010312610484575138610276565b503d6107e9565b8551632570863b60e01b81528390fd5b9091508681813d8311610841575b6108318183611d4b565b8101031261048457519038610255565b503d610827565b90508681813d831161086e575b61085f8183611d4b565b8101031261048457513861023a565b503d610855565b8551632d1cae5560e21b81528084018590528790fd5b89516319afa63b60e11b815287810189905293509091839182905afa9081156104b25789916108bf575b501587863861020f565b6108d69150863d88116105b7576105a98183611d4b565b386108b5565b6108f39150823d84116105b7576105a98183611d4b565b38610206565b5083516330fe947f60e11b8152fd5b90508481813d831161092e575b61091f8183611d4b565b810103126104845751386101c1565b503d610915565b8480fd5b8280fd5b508192346109cf57806003193601126109cf57610958611c8f565b61098b610963611cbb565b9161096c612222565b84546001600160a01b0319166001600160a01b03938416178555611ebd565b5082541691835490833b15610935576109bc93859283855180978195829463e69a5f4760e01b845230918401611dd2565b03925af190811561044b57506104385750f35b5050fd5b508234610939578060031936011261093957610a1b9135610a1660016109f7611cbb565b93838752600080516020612cd68339815191526020528620015461225a565b6123f6565b5080f35b82843461071e578160031936011261071e57602091549051908152f35b82843461071e578160031936011261071e5760209051600080516020612cb68339815191528152f35b50913461071e57602036600319011261071e57610a80611c8f565b90600080516020612c5683398151915280600052600080516020612cd6833981519152602052816000203360005260205260ff82600020541615610b165750829360018060a01b0380841685526006602052600383862001600160ff1982541617905581541692845493803b15610b12576109bc94868094865197889586948593633f2194cf60e01b85528401611dd2565b8580fd5b905163e2517d3f60e01b815233818601526024810191909152604490fd5b82843461071e578160031936011261071e578051610b7191610b5582611d30565b60058252640352e302e360dc1b60208301525191829182611d89565b0390f35b82843461071e578160031936011261071e5751908152602090f35b508234610939576060366003190112610939576002548151631320834f60e01b81526020936001600160a01b039290919083169085818481855afa908115610ee6578791610eb9575b50421015610eaa5784602491855192838092632762697d60e01b825233878301525afa908115610e9f57600091610e72575b508015610e6357813591838316809314158061048457836000526005875260ff86600020541615610e4c57336000526006875260ff600387600020015416610e3d57602435928315610dfb578311610dec57336000526006875285600020858154168015159081610ddd575b50610dc7575b506104845760443593610cee8651610c9481611cfa565b85815260038982018681528983018981526060840191600083523360005260068d52868c60002095511660018060a01b031986541617855551600185015551600284015551151591019060ff801983541691151516179055565b8154169260005493865163662db72560e11b815288818581865afa988915610dbc57600099610d8c575b5050803b156104845760009560c494879389519a8b98899763b0b50c2360e01b895288015260248701523360448701526064860152608485015260a48401525af1908115610d825750610d73575b50610d70336124bf565b80f35b610d7c90611cd1565b81610d66565b513d6000823e3d90fd5b9080929950813d8311610db5575b610da48183611d4b565b810103126104845751968980610d18565b503d610d9a565b88513d6000823e3d90fd5b60016000910155610dd7336124bf565b88610c7d565b9250508460009214158a610c77565b5084516306f6aad160e11b8152fd5b865163dd23c3ad60e01b8152808401899052601b60248201527a0526f6c6c6f76657220616d6f756e742063616e6e6f74206265203602c1b6044820152606490fd5b5084516369d7ecb560e11b8152fd5b855163f4024d0d60e01b8152808301859052602490fd5b50825163baca79c960e01b8152fd5b90508481813d8311610e98575b610e898183611d4b565b81010312610484575186610c0b565b503d610e7f565b84513d6000823e3d90fd5b5082516330fe947f60e11b8152fd5b90508581813d8311610edf575b610ed08183611d4b565b81010312610484575187610bd9565b503d610ec6565b85513d89823e3d90fd5b5082903461093957816003193601126109395781602093610f0f611cbb565b92358152600080516020612cd68339815191528552209060018060a01b0316600052825260ff81600020541690519015158152f35b503461071e5760a036600319011261071e57610f5e611c8f565b92610f67611cbb565b936001600160a01b039060443582811691908290036104845760643590838216820361048457610f95611ca5565b92610f9e612222565b60075460ff8116610ff15760ff191660011760075586546001600160a01b0319161786559596879661098b939192610feb9291610fe59190610fdf90611ebd565b50611f55565b50611fdb565b50612061565b8651634ce377bb60e11b81528890fd5b82843461071e578160031936011261071e5760209051600080516020612d168339815191528152f35b503461071e57608036600319011261071e57611044611c8f565b906060366023190112610939576002548451631320834f60e01b8152602092916001600160a01b03919082169084818581855afa90811561138957879161135c575b5042101561134c576110966121b2565b865192632762697d60e01b84528484602481868a169586868301525afa938415610dbc5760009461131d575b50831561130f5760243591838316809314158061048457836000526005875260ff8a6000205416156112f857816000526006875260ff60038b6000200154166112e8576044359586156112a657861161129657816000526006875289600020858154168015159081611287575b50611271575b5061048457606435936111a78a5161114c81611cfa565b8581526003898d8184018b815286828601928c845260066060880195600087528b6000525260002095511660018060a01b031986541617855551600185015551600284015551151591019060ff801983541691151516179055565b825416600054948a5163662db72560e11b815288818681895afa98891561126657600099611236575b5050813b156104845760009660c49588948d519a8b998a9863b0b50c2360e01b8a52890152602488015260448701526064860152608485015260a48401525af18015610e9f57610d70939450611227575b506124bf565b61123090611cd1565b38611221565b9080929950813d831161125f575b61124e8183611d4b565b8101031261048457519638806111d0565b503d611244565b8c513d6000823e3d90fd5b60016000910155611281886124bf565b38611135565b9250508460009214153861112f565b89516306f6aad160e11b81528390fd5b8a5163dd23c3ad60e01b8152808501899052601b60248201527a0526f6c6c6f76657220616d6f756e742063616e6e6f74206265203602c1b6044820152606490fd5b89516369d7ecb560e11b81528390fd5b895163f4024d0d60e01b8152808401859052602490fd5b875163baca79c960e01b8152fd5b9093508481813d8311611345575b6113358183611d4b565b81010312610484575192386110c2565b503d61132b565b86516330fe947f60e11b81528390fd5b90508481813d8311611382575b6113738183611d4b565b81010312610484575138611086565b503d611369565b88513d89823e3d90fd5b82843461071e578160031936011261071e5760209051600080516020612c568339815191528152f35b82843461071e578160031936011261071e578051610b71916113dd82611d30565b600b82526a19195d995b1bdc1b595b9d60aa1b60208301525191829182611d89565b50919034610448578060031936011261044857507f00000000000000000000000000000000000000000000000000000000000000006001600160a01b0316300361145a5760209051600080516020612c968339815191528152f35b5163703e46dd60e11b8152fd5b5082806003193601126109395761147c611c8f565b60249390919084356001600160401b03811161071e573660238201121561071e57808501356114aa81611d6e565b946114b785519687611d4b565b81865260209182870193368a8383010111610b12578186928b8693018737880101526001600160a01b037f000000000000000000000000000000000000000000000000000000000000000081163081149081156116e6575b506116d65761151c61215c565b80885416803b15610b1257858361154a928b838b5180968195829463b3c2d50b60e01b845230908401611e17565b03925af180156116cc579086916116b8575b505081169585516352d1902d60e01b815283818a818b5afa869181611689575b50611598575050505050505191634c9c8ce360e01b8352820152fd5b9088888894938c600080516020612c96833981519152918281036116745750853b15611660575080546001600160a01b031916821790558451889392917fbc7cd75a20ee27fd9adebab32041f755214dbc6bffa90cc0225b39da2e5c2d3b8580a2825115611642575050610a1b9582915190845af4913d15611638573d61162a61162182611d6e565b92519283611d4b565b81528581943d92013e612b72565b5060609250612b72565b95509550505050503461165457505080f35b63b398979f60e01b8152fd5b8651634c9c8ce360e01b8152808501849052fd5b8751632a87526960e21b815280860191909152fd5b9091508481813d83116116b1575b6116a18183611d4b565b810103126104845751908b61157c565b503d611697565b6116c190611cd1565b61093557848a61155c565b87513d88823e3d90fd5b855163703e46dd60e11b81528890fd5b905081600080516020612c96833981519152541614158a61150f565b8234610448578060031936011261044857610d703361228d565b50913461071e578060031936011261071e57611736611cbb565b90336001600160a01b038316036117535750610a1b9192356123f6565b5163334bd91960e11b81528390fd5b82843461071e57602036600319011261071e5760809181611781611c8f565b91806060835161179081611cfa565b8281528260208201528285820152015260018060a01b038093168152600660205220918051916117bf83611cfa565b83541692838352600181015460208401908152606060ff600360028501549486880195865201541694019315158452825194855251602085015251908301525115156060820152f35b508234610939578060031936011261093957610a1b913561182c60016109f7611cbb565b6120e7565b82843461071e578160031936011261071e5760209051600080516020612c368339815191528152f35b508192346109cf57602091826003193601126119335780356001600160a01b0381811691829003610b125761188d6121ea565b8186526005855283862060ff1981541690558254168285875493865192838092636d73314160e01b82525afa958615610ee6578796611900575b5050803b15610b125785928360449286519788958694634b7025f760e01b865285015260248401525af190811561044b57506104385750f35b819750809296503d831161192c575b6119198183611d4b565b81010312610484578594519338806118c7565b503d61190f565b505050fd5b82843461071e578160031936011261071e5760035490516001600160a01b039091168152602090f35b508290346109395760203660031901126109395781602093600192358152600080516020612cd683398151915285522001549051908152f35b823461044857602036600319011261044857610d706119b7611c8f565b6119bf6121b2565b61228d565b82843461071e578160031936011261071e5760209051600080516020612bf68339815191528152f35b508290346109395760a0366003190112610939576001600160401b0381358181116109355736602382011215610935578083013590828211610b12573660248383010111610b12576001600160a01b0390602435828116908190036104ae57604435918383168093036104d4576064359384168094036104d457611a6f611ca5565b94600080516020612d568339815191529788549060ff828c1c161598821680159081611bc0575b6001149081611bb6575b159081611bad575b50611b9f57506001600160401b031981166001178955611b3f9695949392918b91611b08916020918b611b84575b50611adf612479565b611ae7612479565b8c519381859260248585019801883782019083820152038084520182611d4b565b519020895560018060a01b031991826001541617600155816002541617600255600354161760035560ff1960075416600755611e31565b50611b48578280f35b805460ff60401b1916905551600181527fc7f505b2f371ae2175ee4913f4499e1f2633a7b5936321eed1cdaeb6115181d290602090a181808280f35b6001600160481b0319166001600160401b01178c558e611ad6565b8a5163f92ee8a960e01b8152fd5b9050158d611aa8565b303b159150611aa0565b8a9150611a96565b5082346109395760203660031901126109395782611be4611c8f565b611bec61215c565b83546001600160a01b0316803b1561093957611c1e9483855180978195829463b3c2d50b60e01b845230908401611e17565b03925af190811561044b5750611c32575080f35b610d7090611cd1565b91905034610939576020366003190112610939573563ffffffff60e01b81168091036109395760209250637965db0b60e01b8114908115611c7e575b5015158152f35b6301ffc9a760e01b14905083611c77565b600435906001600160a01b038216820361048457565b608435906001600160a01b038216820361048457565b602435906001600160a01b038216820361048457565b6001600160401b038111611ce457604052565b634e487b7160e01b600052604160045260246000fd5b608081019081106001600160401b03821117611ce457604052565b602081019081106001600160401b03821117611ce457604052565b604081019081106001600160401b03821117611ce457604052565b601f909101601f19168101906001600160401b03821190821017611ce457604052565b6001600160401b038111611ce457601f01601f191660200190565b6020808252825181830181905290939260005b828110611dbe57505060409293506000838284010152601f8019910116010190565b818101860151848201604001528501611d9c565b9081526001600160a01b03909116602082015260400190565b90816020910312610484575180151581036104845790565b51906001600160a01b038216820361048457565b6001600160a01b0391821681529116602082015260400190565b6001600160a01b03166000818152600080516020612c768339815191526020526040812054909190600080516020612c3683398151915290600080516020612cd68339815191529060ff16611eb7578184526020526040832082845260205260408320600160ff19825416179055600080516020612bd6833981519152339380a4600190565b50505090565b6001600160a01b031660008181527ff2dcef79d74eb22e4e48f3bc39a1333ea9249ba0e73de68b940ebf4ec36f54056020526040812054909190600080516020612c5683398151915290600080516020612cd68339815191529060ff16611eb7578184526020526040832082845260205260408320600160ff19825416179055600080516020612bd6833981519152339380a4600190565b6001600160a01b03166000818152600080516020612d368339815191526020526040812054909190600080516020612bf683398151915290600080516020612cd68339815191529060ff16611eb7578184526020526040832082845260205260408320600160ff19825416179055600080516020612bd6833981519152339380a4600190565b6001600160a01b03166000818152600080516020612c168339815191526020526040812054909190600080516020612d1683398151915290600080516020612cd68339815191529060ff16611eb7578184526020526040832082845260205260408320600160ff19825416179055600080516020612bd6833981519152339380a4600190565b6001600160a01b03166000818152600080516020612cf68339815191526020526040812054909190600080516020612cb683398151915290600080516020612cd68339815191529060ff16611eb7578184526020526040832082845260205260408320600160ff19825416179055600080516020612bd6833981519152339380a4600190565b90600091808352600080516020612cd683398151915280602052604084209260018060a01b03169283855260205260ff60408520541615600014611eb7578184526020526040832082845260205260408320600160ff19825416179055600080516020612bd6833981519152339380a4600190565b336000908152600080516020612d368339815191526020526040902054600080516020612bf68339815191529060ff16156121945750565b6044906040519063e2517d3f60e01b82523360048301526024820152fd5b336000908152600080516020612cf68339815191526020526040902054600080516020612cb68339815191529060ff16156121945750565b336000908152600080516020612c168339815191526020526040902054600080516020612d168339815191529060ff16156121945750565b336000908152600080516020612c768339815191526020526040902054600080516020612c368339815191529060ff16156121945750565b80600052600080516020612cd683398151915260205260406000203360005260205260ff60406000205416156121945750565b60025460408051632762697d60e01b81526001600160a01b0384811660048084018290529394919260209283908290602490829088165afa9081156123eb576000916123be575b50156123ae57806000526006825260018560002001541561239e57806000526006825260ff60038660002001541661238e579081600692600052828252600060018782200155612323876124bf565b600052526000600384822082815582600182015582600282015501558154169260005493803b1561048457612370946000809486519788958694859363f6b650b160e01b85528401611dd2565b03925af1908115610d8257506123835750565b61238c90611cd1565b565b84516369d7ecb560e11b81528490fd5b845163cfa1b8cf60e01b81528490fd5b845163baca79c960e01b81528490fd5b90508281813d83116123e4575b6123d58183611d4b565b810103126104845751386122d4565b503d6123cb565b86513d6000823e3d90fd5b90600091808352600080516020612cd683398151915280602052604084209260018060a01b03169283855260205260ff604085205416600014611eb757818452602052604083208284526020526040832060ff1981541690557ff6391f5c32d9c69d2a47ea670b442974b53935d1edc7fd64eb21e047a839171b339380a4600190565b60ff600080516020612d568339815191525460401c161561249657565b604051631afcd79f60e31b8152600490fd5b6001600160401b038111611ce45760051b60200190565b60018060a01b03811660005260066020526040600020604051916124e283611cfa565b60018060a01b038254169182845260ff6003600183015492602087019384526002810154604088015201541615156060850152604051631abd3be960e11b8152602081600481875afa9081156128df57600091612b30575b50604051637a6944c560e01b815290602082600481885afa9182156128df57600092612afb575b509060206004926040519261257584611d15565b835260405163fa19d0ed60e01b815293849182906001600160a01b03165afa9182156128df57600092612ac7575b50604051916125b183611d15565b825260006040516125c181611d15565b5251905190818102918183041490151715612aa457670de0b6b3a764000080910491826040516125f081611d15565b525191821580612aba5782840293840483141715612aa4576040519261261584611d15565b8352810391818311612aa4576040519261262e84611d15565b8352600060405161263e81611d15565b52519181830292808404831490151715612aa457518015612a8e57602492048060405161266a81611d15565b52045b600154604051636f3fc39760e11b81526001600160a01b038581166004830152909360009285928391165afa9182156128df57600092612968575b5081516126b4816124a8565b906126c26040519283611d4b565b8082526126d1601f19916124a8565b0136602083013760405130606090811b602083019081526001600160601b031987831b166034840152602883529193919084018085116001600160401b0390911117611ce457606084016040818152855190922098909101516002546354ae26b160e11b83526001600160a01b03169690916020906004818a5afa9485156128df57600095612926575b50604051986001600160401b036101608b01908111908b1117611ce4576101608a01604052895260018060a01b03166020890152604088015260006060880152608087015260a086015260018060a01b031660c085015260e084015260016101008401526101208301526000610140830152803b15610484576040805163730f807360e11b815260206004820181905284516024830152808501516001600160a01b0316604483015291840151606482015260608401516084820152608084015160a482015260a084015161016060c483015280516101848301819052919485936101a48501939192019060005b81811061290d5750505060c08101516001600160a01b031660e484015260e08101518383036023190161010485015280518084526020938401939091019060005b8181106128eb5750505061010081015115156101248401526101208101516001600160a01b0316610144840152610140015115156101648301526000929082900390829084905af180156128df576123835750565b6040513d6000823e3d90fd5b82516001600160a01b031685528795506020948501949092019160010161288a565b8251855287955060209485019490920191600101612849565b9094506020813d602011612960575b8161294560209360608401611d4b565b810103126104845760606129599101611e03565b933861275b565b3d9150612935565b9091503d90816000823e61297c8282611d4b565b6040818381010312610484578051916001600160401b03831161048457808201601f84840101121561048457828201516129b5816124a8565b936129c36040519586611d4b565b818552602085019083850160208460051b8388010101116104845790602082860101915b60208460051b82880101018310612a73575050505060208201516001600160401b038111610484578201818301601f8201121561048457805191602080612a2d856124a8565b612a3a6040519182611d4b565b858152019360051b8301019301831161048457602001905b828210612a635750505090386126a8565b8151815260209182019101612a52565b6020808093612a8186611e03565b81520193019291506129e7565b634e487b7160e01b600052601260045260246000fd5b634e487b7160e01b600052601160045260246000fd5b505050506024600061266d565b9091506020813d602011612af3575b81612ae360209383611d4b565b81010312610484575190386125a3565b3d9150612ad6565b91506020823d602011612b28575b81612b1660209383611d4b565b81010312610484579051906020612561565b3d9150612b09565b90506020813d602011612b6a575b81612b4b60209383611d4b565b8101031261048457516001600160a01b0381168103610484573861253a565b3d9150612b3e565b90612b995750805115612b8757805190602001fd5b60405163d6bda27560e01b8152600490fd5b81511580612bcc575b612baa575090565b604051639996b31560e01b81526001600160a01b039091166004820152602490fd5b50803b15612ba256fe2f8788117e7eff1d82e926ec794901d17c78024a50270940304540a733656f0d793a6c9b7e0a9549c74edc2f9ae0dc50903dfaa9a56fb0116b27a8c71de3e2c6b16e88c42fd4e48df2dd6a2eabd6bc9aec654ec170056b470819f8892cc6431c30d41a597cac127d8249d31298b50e481ee82c3f4a49ff93c76a22735aa9f3ad960771d60d61bb60ec2f92e1fcc4b84a2e0e340697e8b2b1256a2a12f5f59c6944fa5399874b75da801cb431822b6afcadb876f84eb39d7f05bf697e94b4484e360894a13ba1a3210667c828492db98dca3e2076cc3735a920a3ca505d382bbcc36a8568220526774f62a808c5b8dd8b7191b32206f87b2bfd1149584358996302dd7bc7dec4dceedda775e58dd541e08a116c6c53815c0bd028192f7b62680071dad3b8d800ed6b81a4c9f84973579b8b42e673b9a0771be09894ef8040dd78a49807205ce4d355092ef5a8a18f56e8913cf4a201fbe287825b095693c217750cfb002fcf8644f87ebf6cf6e31899c8d8e9f7c329b465b6e36989a958507e8bf0c57e16840df040f15088dc2f81fe391c3923bec73e23a9662efc9c229c6a00a26469706673582212201398b5082fac9ffd2971aef8773e6bbc2c61d36924e6689e3d45bd468dc7e5e564736f6c63430008160033",
  "linkReferences": {},
  "deployedLinkReferences": {}
}