{
  "_format": "hh-sol-artifact-1",
  "contractName": "TestTermRepoRolloverManager",
  "sourceName": "contracts/test/TestTermRepoRolloverManager.sol",
  "abi": [
    {
      "inputs": [],
      "name": "AlreadyTermContractPaired",
      "type": "error"
    },
    {
      "inputs": [],
      "name": "AuctionEndsAfterRepayment",
      "type": "error"
    },
    {
      "inputs": [],
      "name": "AuctionEndsBeforeMaturity",
      "type": "error"
    },
    {
      "inputs": [],
      "name": "BorrowerRepurchaseObligationInsufficient",
      "type": "error"
    },
    {
      "inputs": [
        {
          "internalType": "address",
          "name": "invalidCollateralToken",
          "type": "address"
        }
      ],
      "name": "CollateralTokenNotSupported",
      "type": "error"
    },
    {
      "inputs": [
        {
          "internalType": "address",
          "name": "currentPurchaseToken",
          "type": "address"
        },
        {
          "internalType": "address",
          "name": "rolloverPurchaseToken",
          "type": "address"
        }
      ],
      "name": "DifferentPurchaseToken",
      "type": "error"
    },
    {
      "inputs": [
        {
          "internalType": "string",
          "name": "reason",
          "type": "string"
        }
      ],
      "name": "InvalidParameters",
      "type": "error"
    },
    {
      "inputs": [],
      "name": "MaturityReached",
      "type": "error"
    },
    {
      "inputs": [],
      "name": "NoRolloverToCancel",
      "type": "error"
    },
    {
      "inputs": [
        {
          "internalType": "address",
          "name": "invalidAddress",
          "type": "address"
        }
      ],
      "name": "NotTermContract",
      "type": "error"
    },
    {
      "inputs": [],
      "name": "RepurchaseWindowOver",
      "type": "error"
    },
    {
      "inputs": [
        {
          "internalType": "address",
          "name": "invalidAddress",
          "type": "address"
        }
      ],
      "name": "RolloverAddressNotApproved",
      "type": "error"
    },
    {
      "inputs": [],
      "name": "RolloverLockedToAuction",
      "type": "error"
    },
    {
      "inputs": [],
      "name": "RolloverProcessedToTerm",
      "type": "error"
    },
    {
      "inputs": [],
      "name": "ZeroBorrowerRepurchaseObligation",
      "type": "error"
    },
    {
      "anonymous": false,
      "inputs": [
        {
          "indexed": false,
          "internalType": "address",
          "name": "previousAdmin",
          "type": "address"
        },
        {
          "indexed": false,
          "internalType": "address",
          "name": "newAdmin",
          "type": "address"
        }
      ],
      "name": "AdminChanged",
      "type": "event"
    },
    {
      "anonymous": false,
      "inputs": [
        {
          "indexed": true,
          "internalType": "address",
          "name": "beacon",
          "type": "address"
        }
      ],
      "name": "BeaconUpgraded",
      "type": "event"
    },
    {
      "anonymous": false,
      "inputs": [
        {
          "indexed": false,
          "internalType": "uint8",
          "name": "version",
          "type": "uint8"
        }
      ],
      "name": "Initialized",
      "type": "event"
    },
    {
      "anonymous": false,
      "inputs": [
        {
          "indexed": true,
          "internalType": "bytes32",
          "name": "role",
          "type": "bytes32"
        },
        {
          "indexed": true,
          "internalType": "bytes32",
          "name": "previousAdminRole",
          "type": "bytes32"
        },
        {
          "indexed": true,
          "internalType": "bytes32",
          "name": "newAdminRole",
          "type": "bytes32"
        }
      ],
      "name": "RoleAdminChanged",
      "type": "event"
    },
    {
      "anonymous": false,
      "inputs": [
        {
          "indexed": true,
          "internalType": "bytes32",
          "name": "role",
          "type": "bytes32"
        },
        {
          "indexed": true,
          "internalType": "address",
          "name": "account",
          "type": "address"
        },
        {
          "indexed": true,
          "internalType": "address",
          "name": "sender",
          "type": "address"
        }
      ],
      "name": "RoleGranted",
      "type": "event"
    },
    {
      "anonymous": false,
      "inputs": [
        {
          "indexed": true,
          "internalType": "bytes32",
          "name": "role",
          "type": "bytes32"
        },
        {
          "indexed": true,
          "internalType": "address",
          "name": "account",
          "type": "address"
        },
        {
          "indexed": true,
          "internalType": "address",
          "name": "sender",
          "type": "address"
        }
      ],
      "name": "RoleRevoked",
      "type": "event"
    },
    {
      "anonymous": false,
      "inputs": [
        {
          "indexed": true,
          "internalType": "address",
          "name": "implementation",
          "type": "address"
        }
      ],
      "name": "Upgraded",
      "type": "event"
    },
    {
      "inputs": [],
      "name": "ADMIN_ROLE",
      "outputs": [
        {
          "internalType": "bytes32",
          "name": "",
          "type": "bytes32"
        }
      ],
      "stateMutability": "view",
      "type": "function"
    },
    {
      "inputs": [],
      "name": "DEFAULT_ADMIN_ROLE",
      "outputs": [
        {
          "internalType": "bytes32",
          "name": "",
          "type": "bytes32"
        }
      ],
      "stateMutability": "view",
      "type": "function"
    },
    {
      "inputs": [],
      "name": "DEVOPS_ROLE",
      "outputs": [
        {
          "internalType": "bytes32",
          "name": "",
          "type": "bytes32"
        }
      ],
      "stateMutability": "view",
      "type": "function"
    },
    {
      "inputs": [],
      "name": "INITIALIZER_ROLE",
      "outputs": [
        {
          "internalType": "bytes32",
          "name": "",
          "type": "bytes32"
        }
      ],
      "stateMutability": "view",
      "type": "function"
    },
    {
      "inputs": [],
      "name": "ROLLOVER_BID_FULFILLER_ROLE",
      "outputs": [
        {
          "internalType": "bytes32",
          "name": "",
          "type": "bytes32"
        }
      ],
      "stateMutability": "view",
      "type": "function"
    },
    {
      "inputs": [
        {
          "internalType": "contract ITermAuctionBidLocker",
          "name": "auctionBidLocker",
          "type": "address"
        }
      ],
      "name": "approveRolloverAuction",
      "outputs": [],
      "stateMutability": "nonpayable",
      "type": "function"
    },
    {
      "inputs": [],
      "name": "cancelRollover",
      "outputs": [],
      "stateMutability": "nonpayable",
      "type": "function"
    },
    {
      "inputs": [
        {
          "components": [
            {
              "internalType": "address",
              "name": "rolloverAuctionBidLocker",
              "type": "address"
            },
            {
              "internalType": "uint256",
              "name": "rolloverAmount",
              "type": "uint256"
            },
            {
              "internalType": "bytes32",
              "name": "rolloverBidPriceHash",
              "type": "bytes32"
            }
          ],
          "internalType": "struct TermRepoRolloverElectionSubmission",
          "name": "termRepoRolloverElectionSubmission",
          "type": "tuple"
        }
      ],
      "name": "electRollover",
      "outputs": [],
      "stateMutability": "nonpayable",
      "type": "function"
    },
    {
      "inputs": [
        {
          "internalType": "address",
          "name": "borrower",
          "type": "address"
        }
      ],
      "name": "fulfillRollover",
      "outputs": [],
      "stateMutability": "nonpayable",
      "type": "function"
    },
    {
      "inputs": [
        {
          "internalType": "bytes32",
          "name": "role",
          "type": "bytes32"
        }
      ],
      "name": "getRoleAdmin",
      "outputs": [
        {
          "internalType": "bytes32",
          "name": "",
          "type": "bytes32"
        }
      ],
      "stateMutability": "view",
      "type": "function"
    },
    {
      "inputs": [
        {
          "internalType": "address",
          "name": "borrower",
          "type": "address"
        }
      ],
      "name": "getRolloverInstructions",
      "outputs": [
        {
          "components": [
            {
              "internalType": "address",
              "name": "rolloverAuctionBidLocker",
              "type": "address"
            },
            {
              "internalType": "uint256",
              "name": "rolloverAmount",
              "type": "uint256"
            },
            {
              "internalType": "bytes32",
              "name": "rolloverBidPriceHash",
              "type": "bytes32"
            },
            {
              "internalType": "bool",
              "name": "processed",
              "type": "bool"
            }
          ],
          "internalType": "struct TermRepoRolloverElection",
          "name": "",
          "type": "tuple"
        }
      ],
      "stateMutability": "view",
      "type": "function"
    },
    {
      "inputs": [
        {
          "internalType": "bytes32",
          "name": "role",
          "type": "bytes32"
        },
        {
          "internalType": "address",
          "name": "account",
          "type": "address"
        }
      ],
      "name": "grantRole",
      "outputs": [],
      "stateMutability": "nonpayable",
      "type": "function"
    },
    {
      "inputs": [
        {
          "internalType": "bytes32",
          "name": "role",
          "type": "bytes32"
        },
        {
          "internalType": "address",
          "name": "account",
          "type": "address"
        }
      ],
      "name": "hasRole",
      "outputs": [
        {
          "internalType": "bool",
          "name": "",
          "type": "bool"
        }
      ],
      "stateMutability": "view",
      "type": "function"
    },
    {
      "inputs": [
        {
          "internalType": "string",
          "name": "termRepoId_",
          "type": "string"
        },
        {
          "internalType": "contract ITermRepoServicer",
          "name": "termRepoServicer_",
          "type": "address"
        },
        {
          "internalType": "contract ITermRepoCollateralManager",
          "name": "termRepoCollateralManager_",
          "type": "address"
        },
        {
          "internalType": "contract ITermController",
          "name": "termController_",
          "type": "address"
        },
        {
          "internalType": "address",
          "name": "termInitializer_",
          "type": "address"
        }
      ],
      "name": "initialize",
      "outputs": [],
      "stateMutability": "nonpayable",
      "type": "function"
    },
    {
      "inputs": [
        {
          "internalType": "address",
          "name": "termRepoServicer_",
          "type": "address"
        },
        {
          "internalType": "contract ITermEventEmitter",
          "name": "emitter_",
          "type": "address"
        },
        {
          "internalType": "address",
          "name": "devopsMultisig_",
          "type": "address"
        },
        {
          "internalType": "address",
          "name": "adminWallet_",
          "type": "address"
        }
      ],
      "name": "pairTermContracts",
      "outputs": [],
      "stateMutability": "nonpayable",
      "type": "function"
    },
    {
      "inputs": [],
      "name": "proxiableUUID",
      "outputs": [
        {
          "internalType": "bytes32",
          "name": "",
          "type": "bytes32"
        }
      ],
      "stateMutability": "view",
      "type": "function"
    },
    {
      "inputs": [
        {
          "internalType": "bytes32",
          "name": "role",
          "type": "bytes32"
        },
        {
          "internalType": "address",
          "name": "account",
          "type": "address"
        }
      ],
      "name": "renounceRole",
      "outputs": [],
      "stateMutability": "nonpayable",
      "type": "function"
    },
    {
      "inputs": [
        {
          "internalType": "bytes32",
          "name": "role",
          "type": "bytes32"
        },
        {
          "internalType": "address",
          "name": "account",
          "type": "address"
        }
      ],
      "name": "revokeRole",
      "outputs": [],
      "stateMutability": "nonpayable",
      "type": "function"
    },
    {
      "inputs": [
        {
          "internalType": "contract ITermAuctionBidLocker",
          "name": "auctionBidLocker",
          "type": "address"
        }
      ],
      "name": "revokeRolloverApproval",
      "outputs": [],
      "stateMutability": "nonpayable",
      "type": "function"
    },
    {
      "inputs": [
        {
          "internalType": "bytes4",
          "name": "interfaceId",
          "type": "bytes4"
        }
      ],
      "name": "supportsInterface",
      "outputs": [
        {
          "internalType": "bool",
          "name": "",
          "type": "bool"
        }
      ],
      "stateMutability": "view",
      "type": "function"
    },
    {
      "inputs": [],
      "name": "termRepoId",
      "outputs": [
        {
          "internalType": "bytes32",
          "name": "",
          "type": "bytes32"
        }
      ],
      "stateMutability": "view",
      "type": "function"
    },
    {
      "inputs": [
        {
          "internalType": "address",
          "name": "termRepoServicer_",
          "type": "address"
        },
        {
          "internalType": "contract ITermEventEmitter",
          "name": "emitter_",
          "type": "address"
        }
      ],
      "name": "testRepairTermContracts",
      "outputs": [],
      "stateMutability": "nonpayable",
      "type": "function"
    },
    {
      "inputs": [
        {
          "internalType": "address",
          "name": "upgradeAddress",
          "type": "address"
        }
      ],
      "name": "upgrade",
      "outputs": [],
      "stateMutability": "nonpayable",
      "type": "function"
    },
    {
      "inputs": [
        {
          "internalType": "address",
          "name": "newImplementation",
          "type": "address"
        }
      ],
      "name": "upgradeTo",
      "outputs": [],
      "stateMutability": "nonpayable",
      "type": "function"
    },
    {
      "inputs": [
        {
          "internalType": "address",
          "name": "newImplementation",
          "type": "address"
        },
        {
          "internalType": "bytes",
          "name": "data",
          "type": "bytes"
        }
      ],
      "name": "upgradeToAndCall",
      "outputs": [],
      "stateMutability": "payable",
      "type": "function"
    },
    {
      "inputs": [],
      "name": "version",
      "outputs": [
        {
          "internalType": "string",
          "name": "",
          "type": "string"
        }
      ],
      "stateMutability": "view",
      "type": "function"
    }
  ],
  "bytecode": "0x60a0604052306080523480156200001557600080fd5b506200002062000026565b620000e7565b600054610100900460ff1615620000935760405162461bcd60e51b815260206004820152602760248201527f496e697469616c697a61626c653a20636f6e747261637420697320696e697469604482015266616c697a696e6760c81b606482015260840160405180910390fd5b60005460ff90811614620000e5576000805460ff191660ff9081179091556040519081527f7f26b83ff96e1f2b6a682f133852f6798a09c465da95921460cefb38474024989060200160405180910390a15b565b6080516133176200011f600039600081816109050152818161094501528181610b9e01528181610bde0152610c5601526133176000f3fe6080604052600436106101415760003560e01c806352d1902d116100b157806352d1902d146103b457806354fd4d50146103c957806363a4027a1461040357806375b238fc1461042557806391d148541461044757806394aba07014610467578063a217fddf14610487578063a8f421c21461049c578063c9bd7256146104bc578063cc5b6e4a146104dc578063d547741f146104f2578063e0e8469714610512578063fd5d357a1461053257600080fd5b806301ffc9a7146101465780630900f0101461017b5780630b885ac31461019d578063201a6625146101bd578063248a9ca3146101ed57806326147fce1461021d57806327df3d3e1461023d5780632f2ff15d1461025f57806334e6c7711461027f57806336568abe1461034c5780633659cfe61461036c5780634ab964d01461038c5780634f1ef286146103a1575b600080fd5b34801561015257600080fd5b50610166610161366004612980565b610552565b60405190151581526020015b60405180910390f35b34801561018757600080fd5b5061019b6101963660046129cf565b610589565b005b3480156101a957600080fd5b5061019b6101b83660046129ec565b610595565b3480156101c957600080fd5b506101df60008051602061321b83398151915281565b604051908152602001610172565b3480156101f957600080fd5b506101df610208366004612a9f565b600090815260c9602052604090206001015490565b34801561022957600080fd5b5061019b6102383660046129cf565b61074e565b34801561024957600080fd5b506101df60008051602061323b83398151915281565b34801561026b57600080fd5b5061019b61027a366004612ab8565b610853565b34801561028b57600080fd5b5061030e61029a3660046129cf565b60408051608080820183526000808352602080840182905283850182905260609384018290526001600160a01b039586168252610101815290849020845192830185528054909516825260018501549082015260028401549281019290925260039092015460ff1615159181019190915290565b604051610172919081516001600160a01b03168152602080830151908201526040808301519082015260609182015115159181019190915260800190565b34801561035857600080fd5b5061019b610367366004612ab8565b61087d565b34801561037857600080fd5b5061019b6103873660046129cf565b6108fb565b34801561039857600080fd5b5061019b6109c0565b61019b6103af366004612b3b565b610b94565b3480156103c057600080fd5b506101df610c49565b3480156103d557600080fd5b50604080518082018252600b81526a19195d995b1bdc1b595b9d60aa1b602082015290516101729190612c06565b34801561040f57600080fd5b506101df60008051602061325b83398151915281565b34801561043157600080fd5b506101df6000805160206132c283398151915281565b34801561045357600080fd5b50610166610462366004612ab8565b610cf7565b34801561047357600080fd5b5061019b610482366004612c39565b610d22565b34801561049357600080fd5b506101df600081565b3480156104a857600080fd5b5061019b6104b7366004612c51565b6111a7565b3480156104c857600080fd5b5061019b6104d73660046129cf565b6112c3565b3480156104e857600080fd5b506101df60fb5481565b3480156104fe57600080fd5b5061019b61050d366004612ab8565b61132e565b34801561051e57600080fd5b5061019b61052d366004612cad565b611353565b34801561053e57600080fd5b5061019b61054d3660046129cf565b6113ff565b60006001600160e01b03198216637965db0b60e01b148061058357506301ffc9a760e01b6001600160e01b03198316145b92915050565b61059281611ce4565b50565b600054610100900460ff16158080156105b55750600054600160ff909116105b806105d657506105c430611d2e565b1580156105d6575060005460ff166001145b61063e5760405162461bcd60e51b815260206004820152602e60248201527f496e697469616c697a61626c653a20636f6e747261637420697320616c72656160448201526d191e481a5b9a5d1a585b1a5e995960921b60648201526084015b60405180910390fd5b6000805460ff191660011790558015610661576000805461ff0019166101001790555b610669611d3d565b610671611d3d565b8686604051602001610684929190612cdb565b60408051601f19818403018152919052805160209091012060fb5560fc80546001600160a01b038087166001600160a01b03199283161790925560fd805488841690831617905560fe805492861692909116919091179055610102805460ff191690556106ff60008051602061323b83398151915283611daa565b8015610745576000805461ff0019169055604051600181527f7f26b83ff96e1f2b6a682f133852f6798a09c465da95921460cefb38474024989060200160405180910390a15b50505050505050565b6000805160206132c283398151915261076681611e30565b6001600160a01b0380831660008181526101006020908152604091829020805460ff1916905560ff5460fb548351636d73314160e01b815293519190951694634b7025f79490939092636d733141926004808401938290030181865afa1580156107d4573d6000803e3d6000fd5b505050506040513d601f19601f820116820180604052508101906107f89190612ceb565b6040516001600160e01b031960e085901b168152600481019290925260248201526044015b600060405180830381600087803b15801561083757600080fd5b505af115801561084b573d6000803e3d6000fd5b505050505050565b600082815260c9602052604090206001015461086e81611e30565b6108788383611daa565b505050565b6001600160a01b03811633146108ed5760405162461bcd60e51b815260206004820152602f60248201527f416363657373436f6e74726f6c3a2063616e206f6e6c792072656e6f756e636560448201526e103937b632b9903337b91039b2b63360891b6064820152608401610635565b6108f78282611e3a565b5050565b6001600160a01b037f00000000000000000000000000000000000000000000000000000000000000001630036109435760405162461bcd60e51b815260040161063590612d04565b7f00000000000000000000000000000000000000000000000000000000000000006001600160a01b0316610975611ea1565b6001600160a01b03161461099b5760405162461bcd60e51b815260040161063590612d50565b6109a481611ce4565b6040805160008082526020820190925261059291839190611ebd565b60fd54604051632762697d60e01b815233916001600160a01b031690632762697d906109f0908490600401612d9c565b602060405180830381865afa158015610a0d573d6000803e3d6000fd5b505050506040513d601f19601f82011682018060405250810190610a319190612ceb565b600003610a515760405163baca79c960e01b815260040160405180910390fd5b6001600160a01b038116600090815261010160205260408120600101549003610a8d5760405163cfa1b8cf60e01b815260040160405180910390fd5b6001600160a01b0381166000908152610101602052604090206003015460ff1615610acb576040516369d7ecb560e11b815260040160405180910390fd5b6001600160a01b03811660009081526101016020526040812060010155610af181612028565b6001600160a01b038082166000908152610101602052604080822080546001600160a01b03191681556001810183905560028101929092556003909101805460ff1916905560ff5460fb54915163f6b650b160e01b815292169163f6b650b191610b5f918590600401612db0565b600060405180830381600087803b158015610b7957600080fd5b505af1158015610b8d573d6000803e3d6000fd5b5050505050565b6001600160a01b037f0000000000000000000000000000000000000000000000000000000000000000163003610bdc5760405162461bcd60e51b815260040161063590612d04565b7f00000000000000000000000000000000000000000000000000000000000000006001600160a01b0316610c0e611ea1565b6001600160a01b031614610c345760405162461bcd60e51b815260040161063590612d50565b610c3d82611ce4565b6108f782826001611ebd565b6000306001600160a01b037f00000000000000000000000000000000000000000000000000000000000000001614610ce45760405162461bcd60e51b815260206004820152603860248201527f555550535570677261646561626c653a206d757374206e6f742062652063616c6044820152771b1959081d1a1c9bdd59da0819195b1959d85d1958d85b1b60421b6064820152608401610635565b5060008051602061327b83398151915290565b600091825260c9602090815260408084206001600160a01b0393909316845291905290205460ff1690565b60fd60009054906101000a90046001600160a01b03166001600160a01b0316633d0f31f76040518163ffffffff1660e01b8152600401602060405180830381865afa158015610d75573d6000803e3d6000fd5b505050506040513d601f19601f82011682018060405250810190610d999190612ceb565b4210610db857604051630bfaaefb60e31b815260040160405180910390fd5b60fd54604051632762697d60e01b815233916000916001600160a01b0390911690632762697d90610ded908590600401612d9c565b602060405180830381865afa158015610e0a573d6000803e3d6000fd5b505050506040513d601f19601f82011682018060405250810190610e2e9190612ceb565b905080600003610e515760405163baca79c960e01b815260040160405180910390fd5b6101006000610e6360208601866129cf565b6001600160a01b0316815260208101919091526040016000205460ff16610eab57610e9160208401846129cf565b60405163f4024d0d60e01b81526004016106359190612d9c565b6001600160a01b0382166000908152610101602052604090206003015460ff1615610ee9576040516369d7ecb560e11b815260040160405180910390fd5b8260200135600003610f3c5760405163dd23c3ad60e01b815260206004820152601b60248201527a0526f6c6c6f76657220616d6f756e742063616e6e6f74206265203602c1b6044820152606401610635565b8260200135811015610f61576040516306f6aad160e11b815260040160405180910390fd5b6001600160a01b03828116600090815261010160205260409020541615801590610fb55750610f9360208401846129cf565b6001600160a01b03838116600090815261010160205260409020548116911614155b15610fe0576001600160a01b03821660009081526101016020526040812060010155610fe082612028565b604080516080810190915280610ff960208601866129cf565b6001600160a01b0390811682526020868101803582850152604080890135818601526000606095860181905288851681526101018452818120875181546001600160a01b0319169616959095178555928601516001850155850151600284015593909201516003909101805460ff19169115159190911790559061107d90856129cf565b905060ff60009054906101000a90046001600160a01b03166001600160a01b031663b0b50c2360fb54836001600160a01b031663cc5b6e4a6040518163ffffffff1660e01b8152600401602060405180830381865afa1580156110e4573d6000803e3d6000fd5b505050506040513d601f19601f820116820180604052508101906111089190612ceb565b8661111660208a018a6129cf565b604080516001600160e01b031960e088901b168152600481019590955260248501939093526001600160a01b0391821660448501521660648301526020880135608483015287013560a482015260c401600060405180830381600087803b15801561118057600080fd5b505af1158015611194573d6000803e3d6000fd5b505050506111a183612028565b50505050565b60008051602061323b8339815191526111bf81611e30565b6101025460ff16156111e457604051634ce377bb60e11b815260040160405180910390fd5b610102805460ff1916600117905560ff80546001600160a01b0386166001600160a01b031990911617905561122760008051602061325b83398151915286611daa565b61123f60008051602061321b83398151915284611daa565b6112576000805160206132c283398151915283611daa565b60ff5460fb5460405163e69a5f4760e01b81526001600160a01b039092169163e69a5f479161128a913090600401612db0565b600060405180830381600087803b1580156112a457600080fd5b505af11580156112b8573d6000803e3d6000fd5b505050505050505050565b60008051602061325b8339815191526112db81611e30565b6001600160a01b038083166000908152610101602052604090819020600301805460ff1916600117905560ff5460fb549151633f2194cf60e01b8152921691633f2194cf9161081d918690600401612db0565b600082815260c9602052604090206001015461134981611e30565b6108788383611e3a565b60008051602061323b83398151915261136b81611e30565b60ff80546001600160a01b0319166001600160a01b03841617905561139e60008051602061325b83398151915284611daa565b60ff5460fb5460405163e69a5f4760e01b81526001600160a01b039092169163e69a5f47916113d1913090600401612db0565b600060405180830381600087803b1580156113eb57600080fd5b505af1158015610745573d6000803e3d6000fd5b6000805160206132c283398151915261141781611e30565b60fd60009054906101000a90046001600160a01b03166001600160a01b0316633d0f31f76040518163ffffffff1660e01b8152600401602060405180830381865afa15801561146a573d6000803e3d6000fd5b505050506040513d601f19601f8201168201806040525081019061148e9190612ceb565b42106114ad57604051630bfaaefb60e31b815260040160405180910390fd5b60fe5460405163e7e4b8db60e01b81526001600160a01b039091169063e7e4b8db906114dd908590600401612d9c565b602060405180830381865afa1580156114fa573d6000803e3d6000fd5b505050506040513d601f19601f8201168201806040525081019061151e9190612dc7565b61153d5781604051632d1cae5560e21b81526004016106359190612d9c565b60fd60009054906101000a90046001600160a01b03166001600160a01b0316631320834f6040518163ffffffff1660e01b8152600401602060405180830381865afa158015611590573d6000803e3d6000fd5b505050506040513d601f19601f820116820180604052508101906115b49190612ceb565b826001600160a01b0316634b449cba6040518163ffffffff1660e01b8152600401602060405180830381865afa1580156115f2573d6000803e3d6000fd5b505050506040513d601f19601f820116820180604052508101906116169190612ceb565b111561163557604051632570863b60e01b815260040160405180910390fd5b60fd60009054906101000a90046001600160a01b03166001600160a01b0316633d0f31f76040518163ffffffff1660e01b8152600401602060405180830381865afa158015611688573d6000803e3d6000fd5b505050506040513d601f19601f820116820180604052508101906116ac9190612ceb565b826001600160a01b0316634b449cba6040518163ffffffff1660e01b8152600401602060405180830381865afa1580156116ea573d6000803e3d6000fd5b505050506040513d601f19601f8201168201806040525081019061170e9190612ceb565b101561172d5760405163920a080760e01b815260040160405180910390fd5b816001600160a01b031663a95c4d626040518163ffffffff1660e01b8152600401602060405180830381865afa15801561176b573d6000803e3d6000fd5b505050506040513d601f19601f8201168201806040525081019061178f9190612de9565b6001600160a01b031660fd60009054906101000a90046001600160a01b03166001600160a01b031663a95c4d626040518163ffffffff1660e01b8152600401602060405180830381865afa1580156117eb573d6000803e3d6000fd5b505050506040513d601f19601f8201168201806040525081019061180f9190612de9565b6001600160a01b0316146119115760fd60009054906101000a90046001600160a01b03166001600160a01b031663a95c4d626040518163ffffffff1660e01b8152600401602060405180830381865afa158015611870573d6000803e3d6000fd5b505050506040513d601f19601f820116820180604052508101906118949190612de9565b826001600160a01b031663a95c4d626040518163ffffffff1660e01b8152600401602060405180830381865afa1580156118d2573d6000803e3d6000fd5b505050506040513d601f19601f820116820180604052508101906118f69190612de9565b604051634b64dec160e11b8152600401610635929190612e06565b60fc5460408051630c87400960e11b815290516000926001600160a01b03169163190e80129160048083019260209291908290030181865afa15801561195b573d6000803e3d6000fd5b505050506040513d601f19601f8201168201806040525081019061197f9190612e20565b60ff16905060005b81811015611a9d5760fc5460405163172c48c760e01b8152600481018390526000916001600160a01b03169063172c48c790602401602060405180830381865afa1580156119d9573d6000803e3d6000fd5b505050506040513d601f19601f820116820180604052508101906119fd9190612de9565b60405163cffbc29760e01b81529091506001600160a01b0386169063cffbc29790611a2c908490600401612d9c565b602060405180830381865afa158015611a49573d6000803e3d6000fd5b505050506040513d601f19601f82011682018060405250810190611a6d9190612dc7565b611a8c578060405163fa842beb60e01b81526004016106359190612d9c565b50611a9681612e59565b9050611987565b506001600160a01b038316600081815261010060209081526040808320805460ff191660011790558051637d33274f60e01b81529051929392637d33274f926004808401939192918290030181865afa158015611afe573d6000803e3d6000fd5b505050506040513d601f19601f82011682018060405250810190611b229190612de9565b60fd54604051637eae9abd60e11b81529192506001600160a01b03169063fd5d357a90611b53908490600401612d9c565b600060405180830381600087803b158015611b6d57600080fd5b505af1158015611b81573d6000803e3d6000fd5b505060fc54604051637eae9abd60e11b81526001600160a01b03909116925063fd5d357a9150611bb5908490600401612d9c565b600060405180830381600087803b158015611bcf57600080fd5b505af1158015611be3573d6000803e3d6000fd5b50505050611bff60008051602061325b83398151915282611daa565b60ff60009054906101000a90046001600160a01b03166001600160a01b031663a34bfcd160fb54866001600160a01b0316636d7331416040518163ffffffff1660e01b8152600401602060405180830381865afa158015611c64573d6000803e3d6000fd5b505050506040513d601f19601f82011682018060405250810190611c889190612ceb565b6040516001600160e01b031960e085901b16815260048101929092526024820152604401600060405180830381600087803b158015611cc657600080fd5b505af1158015611cda573d6000803e3d6000fd5b5050505050505050565b60008051602061321b833981519152611cfc81611e30565b60ff5460405163b3c2d50b60e01b81526001600160a01b039091169063b3c2d50b9061081d9030908690600401612e06565b6001600160a01b03163b151590565b600054610100900460ff16611da85760405162461bcd60e51b815260206004820152602b60248201527f496e697469616c697a61626c653a20636f6e7472616374206973206e6f74206960448201526a6e697469616c697a696e6760a81b6064820152608401610635565b565b611db48282610cf7565b6108f757600082815260c9602090815260408083206001600160a01b03851684529091529020805460ff19166001179055611dec3390565b6001600160a01b0316816001600160a01b0316837f2f8788117e7eff1d82e926ec794901d17c78024a50270940304540a733656f0d60405160405180910390a45050565b610592813361247c565b611e448282610cf7565b156108f757600082815260c9602090815260408083206001600160a01b0385168085529252808320805460ff1916905551339285917ff6391f5c32d9c69d2a47ea670b442974b53935d1edc7fd64eb21e047a839171b9190a45050565b60008051602061327b833981519152546001600160a01b031690565b7f4910fdfa16fed3260ed0e7147f7cc6da11a60208b5b9406d12a635614ffd91435460ff1615611ef057610878836124d5565b826001600160a01b03166352d1902d6040518163ffffffff1660e01b8152600401602060405180830381865afa925050508015611f4a575060408051601f3d908101601f19168201909252611f4791810190612ceb565b60015b611fad5760405162461bcd60e51b815260206004820152602e60248201527f45524331393637557067726164653a206e657720696d706c656d656e7461746960448201526d6f6e206973206e6f74205555505360901b6064820152608401610635565b60008051602061327b833981519152811461201c5760405162461bcd60e51b815260206004820152602960248201527f45524331393637557067726164653a20756e737570706f727465642070726f786044820152681a58589b195555525160ba1b6064820152608401610635565b5061087883838361256f565b6001600160a01b038082166000908152610101602090815260408083208151608081018352815490951680865260018201548685015260028201548684015260039091015460ff16151560608601528151631abd3be960e11b81529151909392849263357a77d292600480830193928290030181865afa1580156120b0573d6000803e3d6000fd5b505050506040513d601f19601f820116820180604052508101906120d49190612de9565b905060006121bf6040518060200160405280856001600160a01b0316637a6944c56040518163ffffffff1660e01b8152600401602060405180830381865afa158015612124573d6000803e3d6000fd5b505050506040513d601f19601f820116820180604052508101906121489190612ceb565b8152506040518060200160405280856001600160a01b031663fa19d0ed6040518163ffffffff1660e01b8152600401602060405180830381865afa158015612194573d6000803e3d6000fd5b505050506040513d601f19601f820116820180604052508101906121b89190612ceb565b9052612594565b5160208501519091506000901561222c576122256122206040518060200160405280670de0b6b3a764000089602001516121f99190612e72565b905260408051602081019091528061221987670de0b6b3a7640000612e89565b90526125dc565b612616565b9050612230565b5060005b60fc54604051636f3fc39760e11b81526000916001600160a01b03169063de7f872e90612261908a90600401612d9c565b600060405180830381865afa15801561227e573d6000803e3d6000fd5b505050506040513d6000823e601f3d908101601f191682016040526122a69190810190612f2a565b509050600081516001600160401b038111156122c4576122c4612af5565b6040519080825280602002602001820160405280156122ed578160200160208202803683370190505b506040805161016081019091526001600160601b031930606090811b82166101808401528b901b16610194820152909150600090806101a881016040516020818303038152906040528051906020012081526020018a6001600160a01b03168152602001896040015181526020016000815260200185815260200183815260200160fd60009054906101000a90046001600160a01b03166001600160a01b031663a95c4d626040518163ffffffff1660e01b8152600401602060405180830381865afa1580156123c1573d6000803e3d6000fd5b505050506040513d601f19601f820116820180604052508101906123e59190612de9565b6001600160a01b03908116825260208201869052600160408084019190915260fd54821660608401526000608090930192909252905163730f807360e11b815291925088169063e61f00e69061243f908490600401613062565b600060405180830381600087803b15801561245957600080fd5b505af115801561246d573d6000803e3d6000fd5b50505050505050505050505050565b6124868282610cf7565b6108f7576124938161262e565b61249e836020612640565b6040516020016124af92919061312d565b60408051601f198184030181529082905262461bcd60e51b825261063591600401612c06565b6124de81611d2e565b6125405760405162461bcd60e51b815260206004820152602d60248201527f455243313936373a206e657720696d706c656d656e746174696f6e206973206e60448201526c1bdd08184818dbdb9d1c9858dd609a1b6064820152608401610635565b60008051602061327b83398151915280546001600160a01b0319166001600160a01b0392909216919091179055565b612578836127e2565b6000825111806125855750805b15610878576111a18383612822565b6040805160208101909152600081526040518060200160405280670de0b6b3a76400006125c986600001518660000151612847565b6125d3919061319c565b90529392505050565b60408051602081019091526000815260405180602001604052806125d361260f8660000151670de0b6b3a7640000612847565b8551612853565b805160009061058390670de0b6b3a76400009061319c565b60606105836001600160a01b03831660145b6060600061264f836002612e72565b61265a9060026131be565b6001600160401b0381111561267157612671612af5565b6040519080825280601f01601f19166020018201604052801561269b576020820181803683370190505b509050600360fc1b816000815181106126b6576126b66131d1565b60200101906001600160f81b031916908160001a905350600f60fb1b816001815181106126e5576126e56131d1565b60200101906001600160f81b031916908160001a9053506000612709846002612e72565b6127149060016131be565b90505b600181111561278c576f181899199a1a9b1b9c1cb0b131b232b360811b85600f1660108110612748576127486131d1565b1a60f81b82828151811061275e5761275e6131d1565b60200101906001600160f81b031916908160001a90535060049490941c93612785816131e7565b9050612717565b5083156127db5760405162461bcd60e51b815260206004820181905260248201527f537472696e67733a20686578206c656e67746820696e73756666696369656e746044820152606401610635565b9392505050565b6127eb816124d5565b6040516001600160a01b038216907fbc7cd75a20ee27fd9adebab32041f755214dbc6bffa90cc0225b39da2e5c2d3b90600090a250565b60606127db838360405180606001604052806027815260200161329b6027913961285f565b60006127db8284612e72565b60006127db828461319c565b6060600080856001600160a01b03168560405161287c91906131fe565b600060405180830381855af49150503d80600081146128b7576040519150601f19603f3d011682016040523d82523d6000602084013e6128bc565b606091505b50915091506128cd868383876128d7565b9695505050505050565b6060831561294457825160000361293d576128f185611d2e565b61293d5760405162461bcd60e51b815260206004820152601d60248201527f416464726573733a2063616c6c20746f206e6f6e2d636f6e74726163740000006044820152606401610635565b508161294e565b61294e8383612956565b949350505050565b8151156129665781518083602001fd5b8060405162461bcd60e51b81526004016106359190612c06565b60006020828403121561299257600080fd5b81356001600160e01b0319811681146127db57600080fd5b6001600160a01b038116811461059257600080fd5b80356129ca816129aa565b919050565b6000602082840312156129e157600080fd5b81356127db816129aa565b60008060008060008060a08789031215612a0557600080fd5b86356001600160401b0380821115612a1c57600080fd5b818901915089601f830112612a3057600080fd5b813581811115612a3f57600080fd5b8a6020828501011115612a5157600080fd5b60209283019850965050870135612a67816129aa565b93506040870135612a77816129aa565b9250612a85606088016129bf565b9150612a93608088016129bf565b90509295509295509295565b600060208284031215612ab157600080fd5b5035919050565b60008060408385031215612acb57600080fd5b823591506020830135612add816129aa565b809150509250929050565b6001600160a01b03169052565b634e487b7160e01b600052604160045260246000fd5b604051601f8201601f191681016001600160401b0381118282101715612b3357612b33612af5565b604052919050565b60008060408385031215612b4e57600080fd5b8235612b59816129aa565b91506020838101356001600160401b0380821115612b7657600080fd5b818601915086601f830112612b8a57600080fd5b813581811115612b9c57612b9c612af5565b612bae601f8201601f19168501612b0b565b91508082528784828501011115612bc457600080fd5b80848401858401376000848284010152508093505050509250929050565b60005b83811015612bfd578181015183820152602001612be5565b50506000910152565b6020815260008251806020840152612c25816040850160208701612be2565b601f01601f19169190910160400192915050565b600060608284031215612c4b57600080fd5b50919050565b60008060008060808587031215612c6757600080fd5b8435612c72816129aa565b93506020850135612c82816129aa565b92506040850135612c92816129aa565b91506060850135612ca2816129aa565b939692955090935050565b60008060408385031215612cc057600080fd5b8235612ccb816129aa565b91506020830135612add816129aa565b8183823760009101908152919050565b600060208284031215612cfd57600080fd5b5051919050565b6020808252602c908201527f46756e6374696f6e206d7573742062652063616c6c6564207468726f7567682060408201526b19195b1959d85d1958d85b1b60a21b606082015260800190565b6020808252602c908201527f46756e6374696f6e206d7573742062652063616c6c6564207468726f7567682060408201526b6163746976652070726f787960a01b606082015260800190565b6001600160a01b0391909116815260200190565b9182526001600160a01b0316602082015260400190565b600060208284031215612dd957600080fd5b815180151581146127db57600080fd5b600060208284031215612dfb57600080fd5b81516127db816129aa565b6001600160a01b0392831681529116602082015260400190565b600060208284031215612e3257600080fd5b815160ff811681146127db57600080fd5b634e487b7160e01b600052601160045260246000fd5b600060018201612e6b57612e6b612e43565b5060010190565b808202811582820484141761058357610583612e43565b8181038181111561058357610583612e43565b60006001600160401b03821115612eb557612eb5612af5565b5060051b60200190565b600082601f830112612ed057600080fd5b81516020612ee5612ee083612e9c565b612b0b565b82815260059290921b84018101918181019086841115612f0457600080fd5b8286015b84811015612f1f5780518352918301918301612f08565b509695505050505050565b60008060408385031215612f3d57600080fd5b82516001600160401b0380821115612f5457600080fd5b818501915085601f830112612f6857600080fd5b81516020612f78612ee083612e9c565b82815260059290921b84018101918181019089841115612f9757600080fd5b948201945b83861015612fbe578551612faf816129aa565b82529482019490820190612f9c565b91880151919650909350505080821115612fd757600080fd5b50612fe485828601612ebf565b9150509250929050565b600081518084526020808501945080840160005b8381101561301e57815187529582019590820190600101613002565b509495945050505050565b600081518084526020808501945080840160005b8381101561301e5781516001600160a01b03168752958201959082019060010161303d565b6020815281516020820152600060208301516130816040840182612ae8565b506040830151606083015260608301516080830152608083015160a083015260a08301516101608060c08501526130bc610180850183612fee565b915060c08501516130d060e0860182612ae8565b5060e0850151610100601f1986850301818701526130ee8483613029565b9350808701519150506101206131078187018315159052565b860151905061014061311b86820183612ae8565b90950151151593019290925250919050565b76020b1b1b2b9b9a1b7b73a3937b61d1030b1b1b7bab73a1604d1b81526000835161315f816017850160208801612be2565b7001034b99036b4b9b9b4b733903937b6329607d1b6017918401918201528351613190816028840160208801612be2565b01602801949350505050565b6000826131b957634e487b7160e01b600052601260045260246000fd5b500490565b8082018082111561058357610583612e43565b634e487b7160e01b600052603260045260246000fd5b6000816131f6576131f6612e43565b506000190190565b60008251613210818460208701612be2565b919091019291505056fe793a6c9b7e0a9549c74edc2f9ae0dc50903dfaa9a56fb0116b27a8c71de3e2c630d41a597cac127d8249d31298b50e481ee82c3f4a49ff93c76a22735aa9f3ad960771d60d61bb60ec2f92e1fcc4b84a2e0e340697e8b2b1256a2a12f5f59c69360894a13ba1a3210667c828492db98dca3e2076cc3735a920a3ca505d382bbc416464726573733a206c6f772d6c6576656c2064656c65676174652063616c6c206661696c6564a49807205ce4d355092ef5a8a18f56e8913cf4a201fbe287825b095693c21775a2646970667358221220020c19c318c7eef5fd11cb947bf24b393d5da43be9daf75fa56721dffc477de464736f6c63430008120033",
  "linkReferences": {},
  "deployedLinkReferences": {}
}