{
  "_format": "hh-sol-artifact-1",
  "contractName": "TestTermStrategyFacetHelper",
  "sourceName": "contracts/test/TestTermStrategyFacetHelper.sol",
  "abi": [
    {
      "inputs": [
        {
          "internalType": "address",
          "name": "target",
          "type": "address"
        }
      ],
      "name": "AddressEmptyCode",
      "type": "error"
    },
    {
      "inputs": [],
      "name": "AfterMaturity",
      "type": "error"
    },
    {
      "inputs": [],
      "name": "FailedCall",
      "type": "error"
    },
    {
      "inputs": [],
      "name": "InputOutputTokenCollision",
      "type": "error"
    },
    {
      "inputs": [],
      "name": "InvalidCollateralToken",
      "type": "error"
    },
    {
      "inputs": [],
      "name": "InvalidRepoId",
      "type": "error"
    },
    {
      "inputs": [],
      "name": "InvalidStrategy",
      "type": "error"
    },
    {
      "inputs": [],
      "name": "InvalidTermController",
      "type": "error"
    },
    {
      "inputs": [],
      "name": "NoProceedsReceived",
      "type": "error"
    },
    {
      "inputs": [],
      "name": "NotEnoughProceedsReceived",
      "type": "error"
    },
    {
      "inputs": [],
      "name": "PurchaseTokenMismatch",
      "type": "error"
    },
    {
      "inputs": [],
      "name": "ReentrancyGuardReentrantCall",
      "type": "error"
    },
    {
      "inputs": [],
      "name": "RepoRedemptionHaircutNotSupported",
      "type": "error"
    },
    {
      "inputs": [],
      "name": "RepoTokensNotFullyConsumed",
      "type": "error"
    },
    {
      "inputs": [
        {
          "internalType": "uint8",
          "name": "bits",
          "type": "uint8"
        },
        {
          "internalType": "uint256",
          "name": "value",
          "type": "uint256"
        }
      ],
      "name": "SafeCastOverflowedUintDowncast",
      "type": "error"
    },
    {
      "inputs": [
        {
          "internalType": "address",
          "name": "token",
          "type": "address"
        }
      ],
      "name": "SafeERC20FailedOperation",
      "type": "error"
    },
    {
      "inputs": [],
      "name": "UnsupportedHookSelector",
      "type": "error"
    },
    {
      "inputs": [
        {
          "internalType": "address",
          "name": "controller",
          "type": "address"
        }
      ],
      "name": "addApprovedTermController",
      "outputs": [],
      "stateMutability": "nonpayable",
      "type": "function"
    },
    {
      "inputs": [],
      "name": "clearActiveFlashLoanBorrower",
      "outputs": [],
      "stateMutability": "nonpayable",
      "type": "function"
    },
    {
      "inputs": [
        {
          "internalType": "address",
          "name": "user",
          "type": "address"
        },
        {
          "internalType": "address",
          "name": "inputToken",
          "type": "address"
        },
        {
          "internalType": "uint256",
          "name": "maxInputAmount",
          "type": "uint256"
        },
        {
          "internalType": "address",
          "name": "outputToken",
          "type": "address"
        },
        {
          "internalType": "uint256",
          "name": "minOutputAmount",
          "type": "uint256"
        },
        {
          "internalType": "bytes4",
          "name": "selector",
          "type": "bytes4"
        },
        {
          "internalType": "address",
          "name": "targetAddress",
          "type": "address"
        },
        {
          "internalType": "bytes",
          "name": "additionalCalldata",
          "type": "bytes"
        }
      ],
      "name": "generateActionCalldata",
      "outputs": [
        {
          "components": [
            {
              "internalType": "address",
              "name": "expectedInputToken",
              "type": "address"
            },
            {
              "internalType": "uint256",
              "name": "expectedInputAmount",
              "type": "uint256"
            },
            {
              "internalType": "address",
              "name": "expectedOutputToken",
              "type": "address"
            },
            {
              "internalType": "uint256",
              "name": "expectedOutputAmount",
              "type": "uint256"
            },
            {
              "internalType": "bool",
              "name": "isDeterministic",
              "type": "bool"
            }
          ],
          "internalType": "struct PreviewAction",
          "name": "",
          "type": "tuple"
        },
        {
          "internalType": "bytes",
          "name": "",
          "type": "bytes"
        }
      ],
      "stateMutability": "view",
      "type": "function"
    },
    {
      "inputs": [
        {
          "internalType": "contract IStrategy",
          "name": "strategy",
          "type": "address"
        },
        {
          "internalType": "address",
          "name": "termRepoServicer",
          "type": "address"
        },
        {
          "internalType": "uint256",
          "name": "borrowAmount",
          "type": "uint256"
        },
        {
          "internalType": "uint256[]",
          "name": "collateralAmounts",
          "type": "uint256[]"
        },
        {
          "internalType": "bool",
          "name": "usePermit2",
          "type": "bool"
        }
      ],
      "name": "mintAndSellRepoToken",
      "outputs": [
        {
          "internalType": "uint256",
          "name": "proceeds",
          "type": "uint256"
        }
      ],
      "stateMutability": "nonpayable",
      "type": "function"
    },
    {
      "inputs": [
        {
          "components": [
            {
              "internalType": "address",
              "name": "user",
              "type": "address"
            },
            {
              "internalType": "address",
              "name": "inputToken",
              "type": "address"
            },
            {
              "internalType": "uint256",
              "name": "maxInputAmount",
              "type": "uint256"
            },
            {
              "internalType": "address",
              "name": "outputToken",
              "type": "address"
            },
            {
              "internalType": "uint256",
              "name": "minOutputAmount",
              "type": "uint256"
            },
            {
              "internalType": "address",
              "name": "targetAddress",
              "type": "address"
            },
            {
              "internalType": "bytes",
              "name": "additionalCalldata",
              "type": "bytes"
            }
          ],
          "internalType": "struct ActionHookInput",
          "name": "input",
          "type": "tuple"
        }
      ],
      "name": "mintAndSellRepoTokenHook",
      "outputs": [
        {
          "internalType": "uint256",
          "name": "proceeds",
          "type": "uint256"
        }
      ],
      "stateMutability": "nonpayable",
      "type": "function"
    },
    {
      "inputs": [
        {
          "internalType": "contract IStrategy",
          "name": "strategy",
          "type": "address"
        },
        {
          "internalType": "address",
          "name": "termRepoServicer",
          "type": "address"
        },
        {
          "internalType": "address",
          "name": "borrower",
          "type": "address"
        },
        {
          "internalType": "uint256",
          "name": "borrowAmount",
          "type": "uint256"
        },
        {
          "internalType": "uint256[]",
          "name": "collateralAmounts",
          "type": "uint256[]"
        },
        {
          "internalType": "bool",
          "name": "payoutToUser",
          "type": "bool"
        }
      ],
      "name": "mintAndSellRepoTokenInternalExposed",
      "outputs": [
        {
          "internalType": "uint256",
          "name": "",
          "type": "uint256"
        }
      ],
      "stateMutability": "nonpayable",
      "type": "function"
    },
    {
      "inputs": [
        {
          "internalType": "bytes4",
          "name": "",
          "type": "bytes4"
        }
      ],
      "name": "previewMapping",
      "outputs": [
        {
          "internalType": "bytes4",
          "name": "",
          "type": "bytes4"
        }
      ],
      "stateMutability": "view",
      "type": "function"
    },
    {
      "inputs": [
        {
          "components": [
            {
              "internalType": "address",
              "name": "user",
              "type": "address"
            },
            {
              "internalType": "address",
              "name": "inputToken",
              "type": "address"
            },
            {
              "internalType": "uint256",
              "name": "maxInputAmount",
              "type": "uint256"
            },
            {
              "internalType": "address",
              "name": "outputToken",
              "type": "address"
            },
            {
              "internalType": "uint256",
              "name": "minOutputAmount",
              "type": "uint256"
            },
            {
              "internalType": "address",
              "name": "targetAddress",
              "type": "address"
            },
            {
              "internalType": "bytes",
              "name": "additionalCalldata",
              "type": "bytes"
            }
          ],
          "internalType": "struct ActionHookInput",
          "name": "actionHookInput",
          "type": "tuple"
        }
      ],
      "name": "previewMintAndSellRepoToken",
      "outputs": [
        {
          "components": [
            {
              "internalType": "address",
              "name": "expectedInputToken",
              "type": "address"
            },
            {
              "internalType": "uint256",
              "name": "expectedInputAmount",
              "type": "uint256"
            },
            {
              "internalType": "address",
              "name": "expectedOutputToken",
              "type": "address"
            },
            {
              "internalType": "uint256",
              "name": "expectedOutputAmount",
              "type": "uint256"
            },
            {
              "internalType": "bool",
              "name": "isDeterministic",
              "type": "bool"
            }
          ],
          "internalType": "struct PreviewAction",
          "name": "",
          "type": "tuple"
        }
      ],
      "stateMutability": "view",
      "type": "function"
    },
    {
      "inputs": [
        {
          "internalType": "contract IStrategy",
          "name": "strategy",
          "type": "address"
        },
        {
          "internalType": "address",
          "name": "repoToken",
          "type": "address"
        },
        {
          "internalType": "uint256",
          "name": "repoTokenAmount",
          "type": "uint256"
        }
      ],
      "name": "sellRepoToken",
      "outputs": [
        {
          "internalType": "uint256",
          "name": "proceeds",
          "type": "uint256"
        }
      ],
      "stateMutability": "nonpayable",
      "type": "function"
    },
    {
      "inputs": [
        {
          "internalType": "address",
          "name": "borrower",
          "type": "address"
        }
      ],
      "name": "setActiveFlashLoanBorrower",
      "outputs": [],
      "stateMutability": "nonpayable",
      "type": "function"
    }
  ],
  "bytecode": "0x6080806040523461005c57600160008181556357ccc18f60e01b90526020527f0c4132dc41c447780dca5d330c73b60047a692891a63cd27e664d52cece66176805463ffffffff191663c818a64817905561451990816100628239f35b600080fdfe608080604052600436101561001357600080fd5b600090813560e01c9081633f2b2aa914613b7457816357ccc18f14612a8957508063723bac7a14611bce5780639ef72eff14611952578063c3246edc1461190e578063c39223741461160d578063c818a6481461143c578063ccd90f15146100f2578063cde1a4d2146100c25763eb58755f1461008f57600080fd5b346100bf57806003193601126100bf576000805160206144c483398151915280546001600160a01b031916905580f35b80fd5b50346100bf5760203660031901126100bf576100e46100df613bb8565b61400a565b805460ff1916600117905580f35b50346100bf5760a03660031901126100bf5761010c613bb8565b610114613bce565b906001600160401b03606435811061143857366023606435011215611438576064356004013511611434573660246064356004013560051b60643501011161143457608435151560843503610d79576000805160206144a4833981519152546001600160a01b0381166113f2576001600160a01b03191633176000805160206144a4833981519152556101a5614043565b604051630f7a077160e21b8152906020826004816001600160a01b0387165afa9182156113e75784926113c6575b50835b6064356004013560ff821610156103a35760405163172c48c760e01b815260ff821660048201526020816024816001600160a01b0388165afa90811561039857869161035a575b5060843515610328576001600160a01b03606435600584901b611fe0160160240135116102fa5785906e22d473030f116ddee9f6b43ac78ba33b156102f65760405190631b63c28b60e11b825233600483015230602483015260018060a01b036024611fe08660051b1660643501013516604483015260018060a01b031660648201528181608481836e22d473030f116ddee9f6b43ac78ba35af180156102eb576102d3575b50506102ce90613ff9565b6101d6565b6102dc90613c61565b6102e75784386102c3565b8480fd5b6040513d84823e3d90fd5b5080fd5b6044826024611fe0604051926306dfcc6560e41b845260a0600485015260051b166064350101356024820152fd5b6102ce919061035590606435600584901b611fe016016024013590309033906001600160a01b0316614164565b613ff9565b90506020813d602011610390575b8161037560209383613caa565b8101031261038c5761038690613e2b565b3861021d565b8580fd5b3d9150610368565b6040513d88823e3d90fd5b8482856103bc3660643560040135602460643501613ce4565b6040516311b4e25360e01b8152600094909390610140856004816001600160a01b0386165afa948515610398578695611393575b506103fb85836140b0565b6040516325c3ed4760e01b81526020816004816001600160a01b0389165afa908115610e3a578791611359575b5060ff61043d6001600160a01b03831661400a565b5416156113475760405163e7e4b8db60e01b81526001600160a01b0386811660048301526020908290602490829086165afa908115610f8f57889161130d575b50159081611290575b5061127e57604051633d0f31f760e01b81526020816004816001600160a01b0389165afa908115610e3a57879161124c575b50421161123a576040516354ae26b160e11b81526020816004816001600160a01b0389165afa908115610e3a578791611200575b506040516338d52e0f60e01b81526020816004816001600160a01b0388165afa908115610f8f5788916111c6575b506001600160a01b039081169116036111b457604051632e25a20760e11b8152936020856004816001600160a01b0385165afa948515610e3a578795611170575b50604051630f7a077160e21b8152926020846004816001600160a01b0386165afa938415610f8f57889461113f575b50604051632e54273760e11b8152916020836004816001600160a01b0385165afa928315610b045789936110fb575b5060a0880151604051631bf49af760e11b81526001600160a01b038581166004830152909160209183916024918391165afa9081156110f0578a916110ba575b506110a857885b865160ff821610156106ce5760405163172c48c760e01b815260ff82166004820152906020826024816001600160a01b038b165afa80156106c3578b90610684575b610662925061065460ff83168a614066565b5180610667575b5050613ff9565b610600565b61067d916001600160a01b038c81169116614266565b8b8061065b565b506020823d6020116106bb575b8161069e60209383613caa565b810103126106b7576106b261066292613e2b565b610642565b8a80fd5b3d9150610691565b6040513d8d823e3d90fd5b5060a0880151604051633580ec1360e11b81526001600160a01b038581166004830152989997988b98919260209184916024918391165afa918215610f8f578892611072575b506101000151604051631b23543760e01b81529091906020816004816001600160a01b0388165afa908115610b0457899161103e575b50906107be6107a961078b6107636107d6954290613fb7565b6040519061077082613c74565b81526040519061077f82613c74565b6301da9c008252614350565b946040519361079985613c74565b670de0b6b3a76400008552614090565b604051906107b682613c74565b8152846143ab565b90896040516107cc81613c74565b5251905190614090565b90604051916107e483613c74565b825260405163ef4474cd60e01b8152916020836004816001600160a01b038a165afa928315610b0457899361100a575b50604435670de0b6b3a76400006044350204670de0b6b3a764000014604435151715610ff657670de0b6b3a76400006108a06108878261087e6108698660405161085d81613c74565b846044350281526143ab565b6040519061087682613c74565b898252614350565b5104958661409d565b926040519361089585613c74565b845260443593614350565b510410610fe2575b60405163fa19d0ed60e01b81526020816004816001600160a01b0388165afa908115610b04578991610fae575b506108ee91604051916108e783613c74565b82526143ab565b81670de0b6b3a7640000810204670de0b6b3a76400001482151715610f9a57670de0b6b3a76400009161095561096a92846040519361092c85613c74565b02835260405161093b81613c74565b8581528b60405161094b81613c74565b5251905190613fb7565b906040519161096383613c74565b8252614350565b516040516370a0823160e01b815230600482015292919004906020836024816001600160a01b0389165afa928315610f8f578893610f5b575b506001600160a01b0381163b15610f575760405163c002bbdd60e01b815233600482015260248101929092526060604483015288516064830181905288918391608483019060208d0190855b818110610f3b5750505082900390829084906001600160a01b03165af18015610e3a57610f28575b506040516370a0823160e01b8152306004820152906020826024816001600160a01b0388165afa918215610e3a578792610ef2575b50610a579082613fb7565b90865b885160ff82161015610b0f5760405163172c48c760e01b815260ff821660048201526020816024816001600160a01b038c165afa908115610b04578991610abd575b50610ab89190610355906001600160a01b038d811691166141ad565b610a5a565b90506020813d602011610afc575b81610ad860209383613caa565b81010312610af85790610355610af0610ab893613e2b565b919250610a9c565b8880fd5b3d9150610acb565b6040513d8b823e3d90fd5b506040516338d52e0f60e01b81529387939291906020866004816001600160a01b0388165afa958615610dda578596610eb6575b506040516370a0823160e01b8152306004820152936020856024816001600160a01b038b165afa948515610398578695610e82575b5060405163095ea7b360e01b815260208180610ba1886001600160a01b03871660048401613f9c565b03818a6001600160a01b0388165af18015610e3a57610e45575b506001600160a01b0381163b1561038c57604051622a237960e11b8152868180610bf2886001600160a01b03881660048401613f9c565b0381836001600160a01b0387165af18015610e3a57908791610e26575b505060405163095ea7b360e01b81526001600160a01b0391821660048201526024810187905290602090829060449082908a9087165af1801561039857610de5575b506040516370a0823160e01b81523060048201529190602090839060249082906001600160a01b03165afa908115610dda578591610da4575b610c949250613fb7565b03610d92576040516370a0823160e01b81523060048201526020816024816001600160a01b0388165afa928315610d865792610d4d575b5080821115610d3b57610cdd91613fb7565b906044358210610d2957602092600191610d0390849033906001600160a01b031661431b565b556000805160206144a483398151915280546001600160a01b0319169055604051908152f35b6040516308e874bf60e11b8152600490fd5b6040516388394b5d60e01b8152600490fd5b9091506020813d602011610d7e575b81610d6960209383613caa565b81010312610d7957519084610ccb565b600080fd5b3d9150610d5c565b604051903d90823e3d90fd5b60405163ba0e33a560e01b8152600490fd5b90506020823d602011610dd2575b81610dbf60209383613caa565b81010312610d7957610c94915190610c8a565b3d9150610db2565b6040513d87823e3d90fd5b6020813d602011610e1e575b81610dfe60209383613caa565b8101031261038c5760249291610e15602092613ed0565b50919250610c51565b3d9150610df1565b610e2f90613c61565b61038c578589610c0f565b6040513d89823e3d90fd5b6020813d602011610e7a575b81610e5e60209383613caa565b81010312610e7657610e6f90613ed0565b5088610bbb565b8680fd5b3d9150610e51565b9094506020813d602011610eae575b81610e9e60209383613caa565b81010312610d7957519388610b78565b3d9150610e91565b9095506020813d602011610eea575b81610ed260209383613caa565b810103126102e757610ee390613e2b565b9487610b43565b3d9150610ec5565b9091506020813d602011610f20575b81610f0e60209383613caa565b81010312610d79575190610a57610a4c565b3d9150610f01565b610f3490969196613c61565b9488610a17565b825184528d9650879550602093840193909201916001016109ef565b8780fd5b9092506020813d602011610f87575b81610f7760209383613caa565b81010312610f575751918a6109a3565b3d9150610f6a565b6040513d8a823e3d90fd5b634e487b7160e01b88526011600452602488fd5b90506020813d602011610fda575b81610fc960209383613caa565b81010312610af857516108ee6108d5565b3d9150610fbc565b90600181018111610f9a57600101906108a8565b634e487b7160e01b89526011600452602489fd5b9092506020813d602011611036575b8161102660209383613caa565b81010312610af85751918b610814565b3d9150611019565b90506020813d60201161106a575b8161105960209383613caa565b81010312610af857516107be61074a565b3d915061104c565b9091506020813d6020116110a0575b8161108e60209383613caa565b81010312610f57575190610100610714565b3d9150611081565b6040516312a9487f60e21b8152600490fd5b90506020813d6020116110e8575b816110d560209383613caa565b810103126110e457518a6105f9565b8980fd5b3d91506110c8565b6040513d8c823e3d90fd5b9092506020813d602011611137575b8161111760209383613caa565b81010312610af857516001600160a01b0381168103610af85791896105b9565b3d915061110a565b61116291945060203d602011611169575b61115a8183613caa565b810190613fda565b928861058a565b503d611150565b9094506020813d6020116111ac575b8161118c60209383613caa565b81010312610e7657516001600160a01b0381168103610e7657938761055b565b3d915061117f565b604051632559713560e21b8152600490fd5b90506020813d6020116111f8575b816111e160209383613caa565b81010312610f57576111f290613e2b565b8861051a565b3d91506111d4565b90506020813d602011611232575b8161121b60209383613caa565b81010312610e765761122c90613e2b565b876104ec565b3d915061120e565b6040516304ff30ef60e21b8152600490fd5b90506020813d602011611276575b8161126760209383613caa565b81010312610e765751876104b8565b3d915061125a565b604051633e69d7d560e21b8152600490fd5b6040516319afa63b60e11b81526001600160a01b03878116600483015290925060209183916024918391165afa908115610e3a5787916112d3575b501587610486565b90506020813d602011611305575b816112ee60209383613caa565b81010312610e76576112ff90613ed0565b876112cb565b3d91506112e1565b90506020813d60201161133f575b8161132860209383613caa565b81010312610f575761133990613ed0565b8861047d565b3d915061131b565b604051638ebd687760e01b8152600490fd5b90506020813d60201161138b575b8161137460209383613caa565b81010312610e765761138590613e2b565b87610428565b3d9150611367565b6113b89195506101403d610140116113bf575b6113b08183613caa565b810190613edd565b93866103f0565b503d6113a6565b6113e091925060203d6020116111695761115a8183613caa565b90386101d3565b6040513d86823e3d90fd5b60405162461bcd60e51b815260206004820152601a602482015279105d1bdb5a58d51e08185b1c9958591e481a5b9a5d1a585d195960321b6044820152606490fd5b8280fd5b8380fd5b50346100bf5761144b36613be4565b90611454613e3f565b5061148761146460a08401613dc6565b9161147260c0850185613dda565b6001600160a01b039384928392810190613e0c565b16604051946354ae26b160e11b8652856004816020958694165afa9485156116025783956115cb575b506040516338d52e0f60e01b80825295908381600481865afa8015610dda5786908690611595575b819250169116036111b457816114ef818801613dc6565b9560046040518094819382525afa928315610d86578093611551575b60a086608089888888826040519661152288613c46565b168652604084013590860152166040840152013560608201526001608082015261154f6040518092613d4d565bf35b909180935082813d831161158e575b61156a8183613caa565b810103126100bf57509160a09491611583608094613e2b565b92958192945061150b565b503d611560565b50508381813d83116115c4575b6115ac8183613caa565b810103126102e757856115bf8192613e2b565b6114d8565b503d6115a2565b9094508181813d83116115fb575b6115e38183613caa565b81010312611434576115f490613e2b565b93386114b0565b503d6115d9565b6040513d85823e3d90fd5b50346100bf5760603660031901126100bf57611627613bb8565b61162f613bce565b916044359161163c614043565b6040516311b4e25360e01b81526001600160a01b039282841692909161014091908281600481885afa9283156113e7579061168193929185936118ef575b50506140b0565b6040516338d52e0f60e01b8152602095908681600481875afa9081156116025790859184916118b7575b501694604051916370a0823160e01b9586845230600485015288846024818b5afa938415610dda578594611888575b5081166116e983303384614164565b604051918783523060048401528983602481855afa928315610398578693611859575b50611718848884614266565b863b1561038c57858461173f926040519384928392622a237960e11b845260048401613f9c565b0381838b5af1801561039857908a929161183f575b50611764602494959697826141ad565b604051938480928a82523060048301525afa908115610dda57859161180e575b61178e9250613fb7565b03610d92576040519283523060048401528483602481875afa9283156102eb5782936117df575b5080831115610d3b576117cd6117d691600194613fb7565b8094339061431b565b55604051908152f35b9092508481813d8311611807575b6117f78183613caa565b81010312610d79575191386117b5565b503d6117ed565b90508782813d8311611838575b6118258183613caa565b81010312610d795761178e915190611784565b503d61181b565b602494959661185061176492613c61565b96959450611754565b9092508981813d8311611881575b6118718183613caa565b8101031261038c5751913861170c565b503d611867565b9093508881813d83116118b0575b6118a08183613caa565b810103126102e7575192386116da565b503d611896565b809250888092503d83116118e8575b6118d08183613caa565b81010312611434576118e28591613e2b565b386116ab565b503d6118c6565b611906929350803d106113bf576113b08183613caa565b90388061167a565b50346100bf5760203660031901126100bf576001600160e01b03196004358181169081900361143457826040916020945260018452205460e01b9060405191168152f35b50346100bf576101003660031901126100bf5761196d613bb8565b611975613bce565b6001600160a01b039160643583811692908390036102e75760a435946001600160e01b0319808716918288036100bf5760c435918783168093036102f65760e435956001600160401b0387116114345736602388011215611434578660040135946119df86613d32565b956119ed6040519788613caa565b808752602098366024838301011161038c5781869260248c9301838b013788010152611a17613e3f565b50835260018752604083205460e01b91821615611bbc5782611acf928192611a889a8c8060405193611a4885613c15565b169a8b8452168b8301526044356040830152606082015260843560808201528660a08201528760c08201526040519a8b918b830193845260248301613e6a565b0399611a9c601f199b8c8101835282613caa565b5190305afa3d15611bb4573d90611ab282613d32565b91611ac06040519384613caa565b82523d848984013e5b306143e4565b9060a0828051810103126100bf5750611b9393611bb09693611b9f999693611b87936040519a611afe8c613c46565b8b611b0a888401613e2b565b80825282604085015191828b850152611b2560608701613e2b565b938460408201526080611b4460a0828a0151998a606086015201613ed0565b91015260405198611b548a613c15565b895216898801526040870152166060850152608084015260a083015260c082015260405195869384015260248301613e6a565b03908101835282613caa565b60405193848094613d4d565b60c060a084015260c0830190613d86565b0390f35b606090611ac9565b604051631416e68f60e01b8152600490fd5b50346100bf5760c03660031901126100bf57611be8613bb8565b611bf0613bce565b6044356001600160a01b0381169003611434576084356001600160401b038111611438573660238201121561143857611c33903690602481600401359101613ce4565b60a435151560a4350361143857611c48614043565b6040516311b4e25360e01b81526101409390859085816004816001600160a01b0387165afa958615610e3a578796612a6a575b5050611c8785836140b0565b6040516325c3ed4760e01b81526020816004816001600160a01b0389165afa908115610e3a578791612a30575b506001600160a01b031660ff611cc98261400a565b5416156113475760405163e7e4b8db60e01b81526001600160a01b0386166004820152602081602481855afa908115610f8f5788916129f6575b5015908161297c575b5061127e57604051633d0f31f760e01b81526020816004816001600160a01b0389165afa908115610e3a57879161294a575b50421161123a576040516354ae26b160e11b81526020816004816001600160a01b0389165afa908115610e3a578791612910575b506040516338d52e0f60e01b81526020816004816001600160a01b0388165afa908115610f8f5788916128d6575b506001600160a01b039081169116036111b457604051632e25a20760e11b8152936020856004816001600160a01b0385165afa948515610e3a578795612892575b50604051630f7a077160e21b8152926020846004816001600160a01b0386165afa938415610f8f578894612871575b50604051632e54273760e11b8152916020836004816001600160a01b0385165afa928315610b0457899361282d575b5060a0880151604051631bf49af760e11b81526001600160a01b038581166004830152909160209183916024918391165afa9081156110f0578a916127fb575b506110a857885b865160ff82161015611f445760405163172c48c760e01b815260ff82166004820152906020826024816001600160a01b038b165afa80156106c3578b90611f09575b611ee79250611eda60ff83168a614066565b5180611eec575050613ff9565b611e86565b611f02916001600160a01b038c81169116614266565b388061065b565b506020823d602011611f3c575b81611f2360209383613caa565b810103126106b757611f37611ee792613e2b565b611ec8565b3d9150611f16565b5060a0880151604051633580ec1360e11b81526001600160a01b0385811660048301529899979895978b969192909160209184916024918391165afa9182156103985786926127c5575b506101000151604051631b23543760e01b81529091906020816004816001600160a01b0388165afa908115610e3a578791612791575b5090611fdd6107a961078b610763611feb954290613fb7565b90876040516107cc81613c74565b9060405191611ff983613c74565b825260405163ef4474cd60e01b8152916020836004816001600160a01b038a165afa928315610e3a57879361275d575b50606435670de0b6b3a76400006064350204670de0b6b3a76400001460643515171561274957670de0b6b3a764000061209761207e8261087e6108698660405161207281613c74565b846064350281526143ab565b926040519361208c85613c74565b845260643593614350565b510410612735575b60405163fa19d0ed60e01b81526020816004816001600160a01b0388165afa908115610e3a578791612701575b506120de91604051916108e783613c74565b81670de0b6b3a7640000810204670de0b6b3a764000014821517156126ed57670de0b6b3a76400009161095561213b92846040519361211c85613c74565b02835260405161212b81613c74565b8581528960405161094b81613c74565b516040516370a0823160e01b815230600482015292919004906020836024816001600160a01b0389165afa9283156103985786936126b9575b506001600160a01b0381163b1561038c5760405163c002bbdd60e01b8152604480356001600160a01b03166004830152602482019390935260609281019290925288516064830181905286918391608483019060208d0190855b81811061269d5750505082900390829084906001600160a01b03165af18015610dda5761268a575b506040516370a0823160e01b8152306004820152906020826024816001600160a01b0388165afa918215610e3a578792612654575b506122369082613fb7565b90865b885160ff821610156122df5760405163172c48c760e01b815260ff821660048201526020816024816001600160a01b038c165afa908115610b0457899161229c575b506122979190610355906001600160a01b038d811691166141ad565b612239565b90506020813d6020116122d7575b816122b760209383613caa565b81010312610af857906103556122cf61229793613e2b565b91925061227b565b3d91506122aa565b506040516338d52e0f60e01b81529387939291906020866004816001600160a01b0388165afa958615610dda578596612618575b506040516370a0823160e01b8152306004820152936020856024816001600160a01b038b165afa9485156103985786956125e4575b5060405163095ea7b360e01b815260208180612371886001600160a01b03871660048401613f9c565b03818a6001600160a01b0388165af18015610e3a576125ab575b506001600160a01b0381163b1561038c57604051622a237960e11b81528681806123c2886001600160a01b03881660048401613f9c565b0381836001600160a01b0387165af18015610e3a57908791612597575b505060405163095ea7b360e01b81526001600160a01b0391821660048201526024810187905290602090829060449082908a9087165af1801561039857612556575b506040516370a0823160e01b81523060048201529190602090839060249082906001600160a01b03165afa908115610dda578591612520575b6124649250613fb7565b03610d92576040516370a0823160e01b81523060048201526020816024816001600160a01b0388165afa928315610d8657926124ec575b5080821115610d3b576124ad91613fb7565b906064358210610d29576020926001918360a4356124d1575b505055604051908152f35b6124e59160443590858060a01b031661431b565b84836124c6565b9091506020813d602011612518575b8161250860209383613caa565b810103126114385751908461249b565b3d91506124fb565b90506020823d60201161254e575b8161253b60209383613caa565b81010312610e765761246491519061245a565b3d915061252e565b6020813d60201161258f575b8161256f60209383613caa565b8101031261038c5760249291612586602092613ed0565b50919250612421565b3d9150612562565b6125a090613c61565b61038c5785896123df565b6020813d6020116125dc575b816125c460209383613caa565b81010312610e76576125d590613ed0565b508861238b565b3d91506125b7565b9094506020813d602011612610575b8161260060209383613caa565b81010312610f5757519388612348565b3d91506125f3565b9095506020813d60201161264c575b8161263460209383613caa565b810103126102e75761264590613e2b565b9487612313565b3d9150612627565b9091506020813d602011612682575b8161267060209383613caa565b810103126102e757519061223661222b565b3d9150612663565b612695919650613c61565b8294886121f6565b825184528b9650879550602093840193909201916001016121ce565b9092506020813d6020116126e5575b816126d560209383613caa565b8101031261038c5751918a612174565b3d91506126c8565b634e487b7160e01b86526011600452602486fd5b90506020813d60201161272d575b8161271c60209383613caa565b81010312610e7657516120de6120cc565b3d915061270f565b906001810181116126ed576001019061209f565b634e487b7160e01b87526011600452602487fd5b9092506020813d602011612789575b8161277960209383613caa565b81010312610e765751918b612029565b3d915061276c565b90506020813d6020116127bd575b816127ac60209383613caa565b81010312610e765751611fdd611fc4565b3d915061279f565b9091506020813d6020116127f3575b816127e160209383613caa565b8101031261038c575190610100611f8e565b3d91506127d4565b90506020813d602011612825575b8161281660209383613caa565b810103126110e4575138611e7f565b3d9150612809565b9092506020813d602011612869575b8161284960209383613caa565b81010312610af857516001600160a01b0381168103610af8579138611e3f565b3d915061283c565b61288b91945060203d6020116111695761115a8183613caa565b9238611e10565b9094506020813d6020116128ce575b816128ae60209383613caa565b81010312610e7657516001600160a01b0381168103610e76579338611de1565b3d91506128a1565b90506020813d602011612908575b816128f160209383613caa565b81010312610f575761290290613e2b565b38611da0565b3d91506128e4565b90506020813d602011612942575b8161292b60209383613caa565b81010312610e765761293c90613e2b565b38611d72565b3d915061291e565b90506020813d602011612974575b8161296560209383613caa565b81010312610e76575138611d3e565b3d9150612958565b6040516319afa63b60e11b81526001600160a01b03871660048201529150602090829060249082905afa908115610e3a5787916129bc575b501538611d0c565b90506020813d6020116129ee575b816129d760209383613caa565b81010312610e76576129e890613ed0565b386129b4565b3d91506129ca565b90506020813d602011612a28575b81612a1160209383613caa565b81010312610f5757612a2290613ed0565b38611d03565b3d9150612a04565b90506020813d602011612a62575b81612a4b60209383613caa565b81010312610e7657612a5c90613e2b565b38611cb4565b3d9150612a3e565b612a81929650803d106113bf576113b08183613caa565b933880611c7b565b9050346102f657612a9936613be4565b90612aa382613dc6565b6000805160206144c4833981519152546001600160a01b03168015159182613b61575b505015613b295750612ad6614043565b612adf81613dc6565b90612aec60208201613dc6565b612af860608301613dc6565b612b0460a08401613dc6565b92612b28612b1560c0830183613dda565b6001600160a01b03929190810190613e0c565b604051630f7a077160e21b8152911692906020816004816001600160a01b038a165afa908115610f8f578891613b0a575b50604051630c87400960e11b81526020816004816001600160a01b0386165afa908115610b04578991613ace575b50612b9460ff8216613ccd565b95612ba26040519788613caa565b60ff8216808852612bb290613ccd565b601f190136602089013789928a5b60ff84168110613a25575b5050505015613a13576040516354ae26b160e11b8152906020826004816001600160a01b038a165afa918215610f8f5788926139d7575b506001600160a01b039081169116036111b4576040516311b4e25360e01b81529486919061014087600481875afa968715610f8f5788976139b4575b50612c4987856140b0565b6040516325c3ed4760e01b81526020816004816001600160a01b038b165afa908115610b0457899161397a575b5060ff612c8b6001600160a01b03831661400a565b5416156113475760405163e7e4b8db60e01b81526001600160a01b0388811660048301526020908290602490829086165afa9081156110f0578a91613940575b501590816138c3575b5061127e57604051633d0f31f760e01b81526020816004816001600160a01b038b165afa908115610b04578991613891575b50421161123a576040516354ae26b160e11b81526020816004816001600160a01b038b165afa908115610b04578991613857575b506040516338d52e0f60e01b8152602081600481895afa9081156110f0578a9161381d575b506001600160a01b039081169116036111b457604051632e25a20760e11b8152956020876004816001600160a01b0385165afa968715610b045789976137d9575b50604051630f7a077160e21b8152946020866004816001600160a01b0386165afa9586156110f0578a966137b8575b50604051632e54273760e11b8152916020836004816001600160a01b0385165afa9283156106c3578b93613774575b5060a08a0151604051631bf49af760e11b81526001600160a01b038581166004830152909160209183916024918391165afa908115613769578c91613733575b506110a8578a5b885160ff82161015612f0b5760405163172c48c760e01b815260ff82166004820152906020826024816001600160a01b038d165afa8015612f00578d90612ec1575b612ea69250612e9960ff83168c614066565b5180612eab575050613ff9565b612e45565b611f02916001600160a01b03808f169116614266565b506020823d602011612ef8575b81612edb60209383613caa565b81010312612ef457612eef612ea692613e2b565b612e87565b8c80fd5b3d9150612ece565b6040513d8f823e3d90fd5b5060248b94959698999a602060018060a01b0360a08301511660405193848092633580ec1360e11b825260018060a01b038a1660048301525afa9182156103985786926136fd575b506101000151604051631b23543760e01b81529091906020816004816001600160a01b0388165afa908115610e3a5787916136c9575b5090611fdd6107a961078b610763612fa2954290613fb7565b9060405191612fb083613c74565b825260405163ef4474cd60e01b8152916020836004816001600160a01b038a165afa928315610e3a578793613695575b506080890135670de0b6b3a7640000808202829004149015171561274957670de0b6b3a764000061304b6130308261087e610869868f8460806040519261302684613c74565b01350281526143ab565b926040519361303e85613c74565b845260808c013593614350565b510410613681575b60405163fa19d0ed60e01b81526020816004816001600160a01b0388165afa908115610e3a57879161364d575b5061309291604051916108e783613c74565b81670de0b6b3a7640000810204670de0b6b3a764000014821517156126ed57670de0b6b3a7640000916109556130d092846040519361211c85613c74565b516040516370a0823160e01b815230600482015292919004906020836024816001600160a01b0389165afa928315610398578693613619575b506001600160a01b0381163b1561038c5760405163c002bbdd60e01b81526001600160a01b03881660048201526024810192909252606060448301528a516064830181905286918391608483019060208f0190855b8181106135fd5750505082900390829084906001600160a01b03165af18015610dda576135ea575b506040516370a0823160e01b8152306004820152906020826024816001600160a01b0388165afa918215610b045789926135b4575b506131c69082613fb7565b90885b8a5160ff821610156132745760405163172c48c760e01b815260ff821660048201526020816024816001600160a01b038e165afa9081156106c3578d908c9261322e575b506132299291610355916001600160a01b0390811691166141ad565b6131c9565b9150506020813d60201161326c575b8161324a60209383613caa565b810103126106b757906103558d61326361322994613e2b565b9293509061320d565b3d915061323d565b506040516338d52e0f60e01b815289985093602085600481875afa948515610b04578995613578575b506040516370a0823160e01b8152306004820152936020856024816001600160a01b038a165afa9485156110f0578a95613544575b5060405163095ea7b360e01b81526020818c81806132f48a8860048401613f9c565b03916001600160a01b0388165af180156106c35761350b575b50803b156110e457604051622a237960e11b81528a9081818061333d896001600160a01b03891660048401613f9c565b038183875af180156102eb576134f7575b505060405163095ea7b360e01b81526004810191909152602481018a90526020816044818d6001600160a01b0387165af180156110f0576134b8575b506040516370a0823160e01b815230600482015290602090829060249082906001600160a01b03165afa908115610b04578991613484575b506133cc91613fb7565b03610d92576040516370a0823160e01b81523060048201526020816024816001600160a01b0387165afa908115610e3a578791613452575b5081811115610d3b5760809161341991613fb7565b9401358410610d29578360019360209661343a575b50505055604051908152f35b61344a92858060a01b031661431b565b84838161342e565b90506020813d60201161347c575b8161346d60209383613caa565b81010312611438575187613404565b3d9150613460565b90506020813d6020116134b0575b8161349f60209383613caa565b8101031261038c57516133cc6133c2565b3d9150613492565b6020813d6020116134ef575b816134d160209383613caa565b810103126110e4576024916134e7602092613ed0565b50915061338a565b3d91506134c4565b61350090613c61565b6110e457898b61334e565b6020813d60201161353c575b8161352460209383613caa565b810103126106b75761353590613ed0565b508a61330d565b3d9150613517565b9094506020813d602011613570575b8161356060209383613caa565b81010312610e765751938a6132d2565b3d9150613553565b9094506020813d6020116135ac575b8161359460209383613caa565b81010312610af8576135a590613e2b565b938961329d565b3d9150613587565b9091506020813d6020116135e2575b816135d060209383613caa565b810103126102e75751906131c66131bb565b3d91506135c3565b6135f5919850613c61565b82968a613186565b825184528b96508795506020938401939092019160010161315e565b9092506020813d602011613645575b8161363560209383613caa565b8101031261038c5751918c613109565b3d9150613628565b90506020813d602011613679575b8161366860209383613caa565b81010312610e765751613092613080565b3d915061365b565b906001810181116126ed5760010190613053565b9092506020813d6020116136c1575b816136b160209383613caa565b81010312610e765751918d612fe0565b3d91506136a4565b90506020813d6020116136f5575b816136e460209383613caa565b81010312610e765751611fdd612f89565b3d91506136d7565b9091506020813d60201161372b575b8161371960209383613caa565b8101031261038c575190610100612f53565b3d915061370c565b90506020813d602011613761575b8161374e60209383613caa565b8101031261375d575138612e3e565b8b80fd5b3d9150613741565b6040513d8e823e3d90fd5b9092506020813d6020116137b0575b8161379060209383613caa565b810103126106b757516001600160a01b03811681036106b7579138612dfe565b3d9150613783565b6137d291965060203d6020116111695761115a8183613caa565b9438612dcf565b9096506020813d602011613815575b816137f560209383613caa565b81010312610af857516001600160a01b0381168103610af8579538612da0565b3d91506137e8565b90506020813d60201161384f575b8161383860209383613caa565b810103126110e45761384990613e2b565b38612d5f565b3d915061382b565b90506020813d602011613889575b8161387260209383613caa565b81010312610af85761388390613e2b565b38612d3a565b3d9150613865565b90506020813d6020116138bb575b816138ac60209383613caa565b81010312610af8575138612d06565b3d915061389f565b6040516319afa63b60e11b81526001600160a01b03898116600483015290925060209183916024918391165afa908115610b04578991613906575b501538612cd4565b90506020813d602011613938575b8161392160209383613caa565b81010312610af85761393290613ed0565b386138fe565b3d9150613914565b90506020813d602011613972575b8161395b60209383613caa565b810103126110e45761396c90613ed0565b38612ccb565b3d915061394e565b90506020813d6020116139ac575b8161399560209383613caa565b81010312610af8576139a690613e2b565b38612c76565b3d9150613988565b6139d09197506101403d610140116113bf576113b08183613caa565b9538612c3e565b9091506020813d602011613a0b575b816139f360209383613caa565b81010312610f5757613a0490613e2b565b9038612c02565b3d91506139e6565b604051633a001e0560e11b8152600490fd5b60405163172c48c760e01b8152600481018290526020816024816001600160a01b0387165afa908115612f00578d91613a94575b506001600160a01b03848116911614613a7457600101612bc0565b9350505050613a8860408401359186614066565b52600138808080612bcb565b90506020813d602011613ac6575b81613aaf60209383613caa565b81010312612ef457613ac090613e2b565b38613a59565b3d9150613aa2565b90506020813d602011613b02575b81613ae960209383613caa565b81010312610af8575160ff81168103610af85738612b87565b3d9150613adc565b613b23915060203d6020116111695761115a8183613caa565b38612b59565b62461bcd60e51b81526020600482015260136024820152722ab730baba3437b934bd32b21031b0b63632b960691b6044820152606490fd5b6001600160a01b03161490503880612ac6565b82346100bf5760203660031901126100bf576001600160a01b03613b96613bb8565b166000805160206144c48339815191529060018060a01b031982541617905580f35b600435906001600160a01b0382168203610d7957565b602435906001600160a01b0382168203610d7957565b60031990602081830112610d7957600435916001600160401b038311610d79578260e092030112610d795760040190565b60e081019081106001600160401b03821117613c3057604052565b634e487b7160e01b600052604160045260246000fd5b60a081019081106001600160401b03821117613c3057604052565b6001600160401b038111613c3057604052565b602081019081106001600160401b03821117613c3057604052565b608081019081106001600160401b03821117613c3057604052565b601f909101601f19168101906001600160401b03821190821017613c3057604052565b6001600160401b038111613c305760051b60200190565b9291613cef82613ccd565b91613cfd6040519384613caa565b829481845260208094019160051b8101928311610d7957905b828210613d235750505050565b81358152908301908301613d16565b6001600160401b038111613c3057601f01601f191660200190565b6080809160018060a01b038082511685526020820151602086015260408201511660408501526060810151606085015201511515910152565b919082519283825260005b848110613db2575050826000602080949584010152601f8019910116010190565b602081830181015184830182015201613d91565b356001600160a01b0381168103610d795790565b903590601e1981360301821215610d7957018035906001600160401b038211610d7957602001918136038313610d7957565b90816020910312610d7957356001600160a01b0381168103610d795790565b51906001600160a01b0382168203610d7957565b60405190613e4c82613c46565b60006080838281528260208201528260408201528260608201520152565b61010060c0613ecd936020845260018060a01b0380825116602086015280602083015116604086015260408201516060860152806060830151166080860152608082015160a086015260a0820151168285015201519160e0808201520190613d86565b90565b51908115158203610d7957565b80916101409283910312610d79576040519182016001600160401b03811183821017613c3057604052613f0f81613e2b565b8252613f1d60208201613e2b565b6020830152613f2e60408201613e2b565b6040830152613f3f60608201613e2b565b6060830152613f5060808201613e2b565b608083015260a08101516001600160a01b0381168103610d795760a083015260c081015160c083015260e081015160e08301526101008082015190830152610120809101519082015290565b6001600160a01b039091168152602081019190915260400190565b91908203918211613fc457565b634e487b7160e01b600052601160045260246000fd5b90816020910312610d7957516001600160a01b0381168103610d795790565b60ff1660ff8114613fc45760010190565b6001600160a01b031660009081527f2a2e13707d6b40952f0aec05e2811137753b06b56d55208636050ec9ee68dd7d6020526040902090565b600260005414614054576002600055565b604051633ee5aeb560e01b8152600490fd5b805182101561407a5760209160051b010190565b634e487b7160e01b600052603260045260246000fd5b91908201809211613fc457565b81810292918115918404141715613fc457565b608091909101516001600160a01b03908116919060ff6140cf8461400a565b541615611347576024602092604051948593849263e7e4b8db60e01b84521660048301525afa9081156141585760009161411e575b501561410c57565b604051632711b74d60e11b8152600490fd5b90506020813d602011614150575b8161413960209383613caa565b81010312610d795761414a90613ed0565b38614104565b3d915061412c565b6040513d6000823e3d90fd5b6040516323b872dd60e01b60208201526001600160a01b0392831660248201529290911660448301526064808301939093529181526141ab916141a682613c46565b614447565b565b60405190602082019263095ea7b360e01b80855260018060a01b0380921691826024860152602060008097816044890152604488526141eb88613c8f565b87519082885af1903d87519083614245575b5050501561420d575b5050505050565b61423b946141a692604051926020840152602483015260448201526044815261423581613c8f565b82614447565b3880808080614206565b9192509061425c575083163b15155b3880806141fd565b6001915014614254565b604051916020600081850161429c8661428e63095ea7b360e01b998a85528760248401613f9c565b03601f198101885287613caa565b85519082865af16000513d826142f6575b5050156142bb575b50505050565b6142ed936141a69160405191602083015260018060a01b03166024820152600060448201526044815261423581613c8f565b388080806142b5565b90915061431357506001600160a01b0382163b15155b38806142ad565b60011461430c565b6141a66141ab939261434260405194859263a9059cbb60e01b602085015260248401613f9c565b03601f198101845283613caa565b600060405161435e81613c74565b525190670de0b6b3a764000091828102928184041490151715613fc457518015614395576040519161438f83613c74565b04815290565b634e487b7160e01b600052601260045260246000fd5b670de0b6b3a7640000916143d19160006040516143c781613c74565b525190519061409d565b04604051906143df82613c74565b815290565b9061440b57508051156143f957805190602001fd5b60405163d6bda27560e01b8152600490fd5b8151158061443e575b61441c575090565b604051639996b31560e01b81526001600160a01b039091166004820152602490fd5b50803b15614414565b906000602091828151910182855af115614158576000513d61449a57506001600160a01b0381163b155b6144785750565b604051635274afe760e01b81526001600160a01b039091166004820152602490fd5b6001141561447156fe2a2e13707d6b40952f0aec05e2811137753b06b56d55208636050ec9ee68dd7ac9e4fb8bffaf71b56abf2a5032f2ea641e97267f8c0d9bcf66c86998c650d62aa264697066735822122039a9635c12b0269ed860657b0c50e592a72adcd51fbd7715cd3bc763d201b44a64736f6c63430008160033",
  "linkReferences": {},
  "deployedLinkReferences": {}
}