{
  "_format": "hh-sol-artifact-1",
  "contractName": "TestMockRepoServicerFull",
  "sourceName": "contracts/test/TestMockRepoServicerFull.sol",
  "abi": [
    {
      "inputs": [
        {
          "internalType": "address",
          "name": "",
          "type": "address"
        }
      ],
      "name": "getBorrowerRepurchaseObligation",
      "outputs": [
        {
          "internalType": "uint256",
          "name": "",
          "type": "uint256"
        }
      ],
      "stateMutability": "view",
      "type": "function"
    },
    {
      "inputs": [],
      "name": "maturityTimestamp",
      "outputs": [
        {
          "internalType": "uint256",
          "name": "",
          "type": "uint256"
        }
      ],
      "stateMutability": "view",
      "type": "function"
    },
    {
      "inputs": [
        {
          "internalType": "address",
          "name": "",
          "type": "address"
        },
        {
          "internalType": "uint256",
          "name": "amount",
          "type": "uint256"
        },
        {
          "internalType": "uint256[]",
          "name": "",
          "type": "uint256[]"
        }
      ],
      "name": "mintOpenExposure",
      "outputs": [],
      "stateMutability": "nonpayable",
      "type": "function"
    },
    {
      "inputs": [],
      "name": "purchaseToken",
      "outputs": [
        {
          "internalType": "address",
          "name": "",
          "type": "address"
        }
      ],
      "stateMutability": "view",
      "type": "function"
    },
    {
      "inputs": [],
      "name": "redemptionTimestamp",
      "outputs": [
        {
          "internalType": "uint256",
          "name": "",
          "type": "uint256"
        }
      ],
      "stateMutability": "view",
      "type": "function"
    },
    {
      "inputs": [],
      "name": "servicingFee",
      "outputs": [
        {
          "internalType": "uint256",
          "name": "",
          "type": "uint256"
        }
      ],
      "stateMutability": "view",
      "type": "function"
    },
    {
      "inputs": [
        {
          "internalType": "address",
          "name": "m",
          "type": "address"
        }
      ],
      "name": "setCollateralManager",
      "outputs": [],
      "stateMutability": "nonpayable",
      "type": "function"
    },
    {
      "inputs": [
        {
          "internalType": "uint256",
          "name": "ts",
          "type": "uint256"
        }
      ],
      "name": "setMaturityTimestamp",
      "outputs": [],
      "stateMutability": "nonpayable",
      "type": "function"
    },
    {
      "inputs": [
        {
          "internalType": "address",
          "name": "t",
          "type": "address"
        }
      ],
      "name": "setPurchaseToken",
      "outputs": [],
      "stateMutability": "nonpayable",
      "type": "function"
    },
    {
      "inputs": [
        {
          "internalType": "uint256",
          "name": "ts",
          "type": "uint256"
        }
      ],
      "name": "setRedemptionTimestamp",
      "outputs": [],
      "stateMutability": "nonpayable",
      "type": "function"
    },
    {
      "inputs": [
        {
          "internalType": "uint256",
          "name": "amount",
          "type": "uint256"
        }
      ],
      "name": "setRepurchaseObligation",
      "outputs": [],
      "stateMutability": "nonpayable",
      "type": "function"
    },
    {
      "inputs": [
        {
          "internalType": "uint256",
          "name": "fee",
          "type": "uint256"
        }
      ],
      "name": "setServicingFee",
      "outputs": [],
      "stateMutability": "nonpayable",
      "type": "function"
    },
    {
      "inputs": [
        {
          "internalType": "address",
          "name": "c",
          "type": "address"
        }
      ],
      "name": "setTermController",
      "outputs": [],
      "stateMutability": "nonpayable",
      "type": "function"
    },
    {
      "inputs": [
        {
          "internalType": "address",
          "name": "l",
          "type": "address"
        }
      ],
      "name": "setTermRepoLocker",
      "outputs": [],
      "stateMutability": "nonpayable",
      "type": "function"
    },
    {
      "inputs": [
        {
          "internalType": "address",
          "name": "t",
          "type": "address"
        }
      ],
      "name": "setTermRepoToken",
      "outputs": [],
      "stateMutability": "nonpayable",
      "type": "function"
    },
    {
      "inputs": [
        {
          "internalType": "address",
          "name": "borrower",
          "type": "address"
        },
        {
          "internalType": "uint256",
          "name": "",
          "type": "uint256"
        }
      ],
      "name": "submitRepurchasePayment",
      "outputs": [],
      "stateMutability": "nonpayable",
      "type": "function"
    },
    {
      "inputs": [],
      "name": "termController",
      "outputs": [
        {
          "internalType": "contract ITermController",
          "name": "",
          "type": "address"
        }
      ],
      "stateMutability": "view",
      "type": "function"
    },
    {
      "inputs": [],
      "name": "termRepoCollateralManager",
      "outputs": [
        {
          "internalType": "contract ITermRepoCollateralManager",
          "name": "",
          "type": "address"
        }
      ],
      "stateMutability": "view",
      "type": "function"
    },
    {
      "inputs": [],
      "name": "termRepoLocker",
      "outputs": [
        {
          "internalType": "contract ITermRepoLocker",
          "name": "",
          "type": "address"
        }
      ],
      "stateMutability": "view",
      "type": "function"
    },
    {
      "inputs": [],
      "name": "termRepoToken",
      "outputs": [
        {
          "internalType": "contract ITermRepoToken",
          "name": "",
          "type": "address"
        }
      ],
      "stateMutability": "view",
      "type": "function"
    }
  ],
  "bytecode": "0x6080806040523461001657610728908161001c8239f35b600080fdfe608060408181526004918236101561001657600080fd5b600092833560e01c9182631b2354371461066f5750816325c3ed47146106465781632762697d1461061d5781632a67f92f146105e75781633d0f31f7146105c85781633de81dc41461059f5781634325994a146105855781635c4b440e1461055c5781635ca84e6e146105345781638110780014610332578163842a05d4146102fc5781638456bd2e146102c6578163a60d06e2146102ac578163a95c4d6214610284578163aff518f31461024b57838263c002bbdd1461018f57508163d137042314610158578163da946c521461013e578163f1e10a6e14610124575063fa19d0ed1461010357600080fd5b346101205781600319360112610120576020906007549051908152f35b5080fd5b839034610120576020366003190112610120573560085580f35b839034610120576020366003190112610120573560055580f35b839034610120576020366003190112610120576001600160a01b0361017b61068b565b82546001600160a01b031916911617905580f35b92915034610243576060366003190112610243576101ab61068b565b506001600160401b036044358181116102475736602382011215610247578083013591821161024757602490369260051b0101116102435780546001600160a01b0316803b1561023e5760448492845195869384926340c10f1960e01b8452339084015260243560248401525af19081156102355750610229575080f35b610232906106a6565b80f35b513d84823e3d90fd5b505050fd5b5050fd5b8480fd5b8334610281576020366003190112610281576001600160a01b0361026d61068b565b1660018060a01b0319600154161760015580f35b80fd5b505034610120578160031936011261012057905490516001600160a01b039091168152602090f35b839034610120576020366003190112610120573560065580f35b8334610281576020366003190112610281576001600160a01b036102e861068b565b82546001600160a01b031916911617815580f35b8334610281576020366003190112610281576001600160a01b0361031e61068b565b1660018060a01b0319600254161760025580f35b9190503461053057806003193601126105305761034d61068b565b6002548251630c87400960e11b815291946001600160a01b0394909260209286169083818481855afa9081156105265785916104ef575b509296861692845b60ff8082169083168110156104eb5787519063172c48c760e01b8252858201526024908a818381885afa9081156104e15788916104a7575b508989519163b7d5820b60e01b835288888401521680838301526044918c8184818a5afa90811561049d578a9161046c575b5061040a575b50505060010160ff1661038c565b853b156104685789516305ee9d7360e11b8152878101899052928301528101879052868160648183885af1801561045e579160019160ff9361044f575b8193506103fc565b610458906106a6565b38610447565b88513d89823e3d90fd5b8880fd5b90508c81813d8311610496575b61048381836106cf565b810103126104925751386103f6565b8980fd5b503d610479565b8b513d8c823e3d90fd5b90508a81813d83116104da575b6104be81836106cf565b810103126104d6575189811681036104d657386103c4565b8780fd5b503d6104b4565b89513d8a823e3d90fd5b8680f35b90508381813d831161051f575b61050681836106cf565b81010312610247575160ff811681036102475738610384565b503d6104fc565b86513d87823e3d90fd5b8280fd5b9050346105305782600319360112610530575490516001600160a01b03909116815260209150f35b50503461012057816003193601126101205760035490516001600160a01b039091168152602090f35b839034610120576020366003190112610120573560075580f35b50503461012057816003193601126101205760025490516001600160a01b039091168152602090f35b5050346101205781600319360112610120576020906005549051908152f35b8334610281576020366003190112610281576001600160a01b0361060961068b565b1660018060a01b0319600354161760035580f35b5050346101205760203660031901126101205760209061063b61068b565b506008549051908152f35b50503461012057816003193601126101205760015490516001600160a01b039091168152602090f35b8490346101205781600319360112610120576020906006548152f35b600435906001600160a01b03821682036106a157565b600080fd5b6001600160401b0381116106b957604052565b634e487b7160e01b600052604160045260246000fd5b601f909101601f19168101906001600160401b038211908210176106b95760405256fea26469706673582212201ff49859fb98f2bbda1dd9ee3fd44f892409b3084f1d38e46953a04d073e8db464736f6c63430008160033",
  "linkReferences": {},
  "deployedLinkReferences": {}
}