{
  "_format": "hh-sol-artifact-1",
  "contractName": "TestMockVault",
  "sourceName": "contracts/test/TestMockVault.sol",
  "abi": [
    {
      "inputs": [
        {
          "internalType": "address",
          "name": "spender",
          "type": "address"
        },
        {
          "internalType": "uint256",
          "name": "allowance",
          "type": "uint256"
        },
        {
          "internalType": "uint256",
          "name": "needed",
          "type": "uint256"
        }
      ],
      "name": "ERC20InsufficientAllowance",
      "type": "error"
    },
    {
      "inputs": [
        {
          "internalType": "address",
          "name": "sender",
          "type": "address"
        },
        {
          "internalType": "uint256",
          "name": "balance",
          "type": "uint256"
        },
        {
          "internalType": "uint256",
          "name": "needed",
          "type": "uint256"
        }
      ],
      "name": "ERC20InsufficientBalance",
      "type": "error"
    },
    {
      "inputs": [
        {
          "internalType": "address",
          "name": "approver",
          "type": "address"
        }
      ],
      "name": "ERC20InvalidApprover",
      "type": "error"
    },
    {
      "inputs": [
        {
          "internalType": "address",
          "name": "receiver",
          "type": "address"
        }
      ],
      "name": "ERC20InvalidReceiver",
      "type": "error"
    },
    {
      "inputs": [
        {
          "internalType": "address",
          "name": "sender",
          "type": "address"
        }
      ],
      "name": "ERC20InvalidSender",
      "type": "error"
    },
    {
      "inputs": [
        {
          "internalType": "address",
          "name": "spender",
          "type": "address"
        }
      ],
      "name": "ERC20InvalidSpender",
      "type": "error"
    },
    {
      "inputs": [],
      "name": "InvalidInitialization",
      "type": "error"
    },
    {
      "inputs": [],
      "name": "NotInitializing",
      "type": "error"
    },
    {
      "anonymous": false,
      "inputs": [
        {
          "indexed": true,
          "internalType": "address",
          "name": "owner",
          "type": "address"
        },
        {
          "indexed": true,
          "internalType": "address",
          "name": "spender",
          "type": "address"
        },
        {
          "indexed": false,
          "internalType": "uint256",
          "name": "value",
          "type": "uint256"
        }
      ],
      "name": "Approval",
      "type": "event"
    },
    {
      "anonymous": false,
      "inputs": [
        {
          "indexed": true,
          "internalType": "address",
          "name": "sender",
          "type": "address"
        },
        {
          "indexed": true,
          "internalType": "address",
          "name": "owner",
          "type": "address"
        },
        {
          "indexed": false,
          "internalType": "uint256",
          "name": "assets",
          "type": "uint256"
        },
        {
          "indexed": false,
          "internalType": "uint256",
          "name": "shares",
          "type": "uint256"
        }
      ],
      "name": "Deposit",
      "type": "event"
    },
    {
      "anonymous": false,
      "inputs": [
        {
          "indexed": false,
          "internalType": "uint64",
          "name": "version",
          "type": "uint64"
        }
      ],
      "name": "Initialized",
      "type": "event"
    },
    {
      "anonymous": false,
      "inputs": [
        {
          "indexed": true,
          "internalType": "address",
          "name": "from",
          "type": "address"
        },
        {
          "indexed": true,
          "internalType": "address",
          "name": "to",
          "type": "address"
        },
        {
          "indexed": false,
          "internalType": "uint256",
          "name": "value",
          "type": "uint256"
        }
      ],
      "name": "Transfer",
      "type": "event"
    },
    {
      "anonymous": false,
      "inputs": [
        {
          "indexed": true,
          "internalType": "address",
          "name": "sender",
          "type": "address"
        },
        {
          "indexed": true,
          "internalType": "address",
          "name": "receiver",
          "type": "address"
        },
        {
          "indexed": true,
          "internalType": "address",
          "name": "owner",
          "type": "address"
        },
        {
          "indexed": false,
          "internalType": "uint256",
          "name": "assets",
          "type": "uint256"
        },
        {
          "indexed": false,
          "internalType": "uint256",
          "name": "shares",
          "type": "uint256"
        }
      ],
      "name": "Withdraw",
      "type": "event"
    },
    {
      "inputs": [
        {
          "internalType": "address",
          "name": "owner",
          "type": "address"
        },
        {
          "internalType": "address",
          "name": "spender",
          "type": "address"
        }
      ],
      "name": "allowance",
      "outputs": [
        {
          "internalType": "uint256",
          "name": "",
          "type": "uint256"
        }
      ],
      "stateMutability": "view",
      "type": "function"
    },
    {
      "inputs": [
        {
          "internalType": "address",
          "name": "spender",
          "type": "address"
        },
        {
          "internalType": "uint256",
          "name": "value",
          "type": "uint256"
        }
      ],
      "name": "approve",
      "outputs": [
        {
          "internalType": "bool",
          "name": "",
          "type": "bool"
        }
      ],
      "stateMutability": "nonpayable",
      "type": "function"
    },
    {
      "inputs": [],
      "name": "asset",
      "outputs": [
        {
          "internalType": "address",
          "name": "",
          "type": "address"
        }
      ],
      "stateMutability": "view",
      "type": "function"
    },
    {
      "inputs": [
        {
          "internalType": "address",
          "name": "account",
          "type": "address"
        }
      ],
      "name": "balanceOf",
      "outputs": [
        {
          "internalType": "uint256",
          "name": "",
          "type": "uint256"
        }
      ],
      "stateMutability": "view",
      "type": "function"
    },
    {
      "inputs": [
        {
          "internalType": "uint256",
          "name": "shares",
          "type": "uint256"
        }
      ],
      "name": "convertToAssets",
      "outputs": [
        {
          "internalType": "uint256",
          "name": "",
          "type": "uint256"
        }
      ],
      "stateMutability": "view",
      "type": "function"
    },
    {
      "inputs": [
        {
          "internalType": "uint256",
          "name": "assets",
          "type": "uint256"
        }
      ],
      "name": "convertToShares",
      "outputs": [
        {
          "internalType": "uint256",
          "name": "",
          "type": "uint256"
        }
      ],
      "stateMutability": "view",
      "type": "function"
    },
    {
      "inputs": [],
      "name": "decimals",
      "outputs": [
        {
          "internalType": "uint8",
          "name": "",
          "type": "uint8"
        }
      ],
      "stateMutability": "view",
      "type": "function"
    },
    {
      "inputs": [
        {
          "internalType": "uint256",
          "name": "assets",
          "type": "uint256"
        },
        {
          "internalType": "address",
          "name": "receiver",
          "type": "address"
        }
      ],
      "name": "deposit",
      "outputs": [
        {
          "internalType": "uint256",
          "name": "shares",
          "type": "uint256"
        }
      ],
      "stateMutability": "nonpayable",
      "type": "function"
    },
    {
      "inputs": [],
      "name": "exchangeRate",
      "outputs": [
        {
          "internalType": "uint256",
          "name": "",
          "type": "uint256"
        }
      ],
      "stateMutability": "view",
      "type": "function"
    },
    {
      "inputs": [
        {
          "internalType": "address",
          "name": "asset_",
          "type": "address"
        },
        {
          "internalType": "string",
          "name": "name_",
          "type": "string"
        },
        {
          "internalType": "string",
          "name": "symbol_",
          "type": "string"
        }
      ],
      "name": "initialize",
      "outputs": [],
      "stateMutability": "nonpayable",
      "type": "function"
    },
    {
      "inputs": [
        {
          "internalType": "address",
          "name": "",
          "type": "address"
        }
      ],
      "name": "maxDeposit",
      "outputs": [
        {
          "internalType": "uint256",
          "name": "",
          "type": "uint256"
        }
      ],
      "stateMutability": "pure",
      "type": "function"
    },
    {
      "inputs": [
        {
          "internalType": "address",
          "name": "",
          "type": "address"
        }
      ],
      "name": "maxMint",
      "outputs": [
        {
          "internalType": "uint256",
          "name": "",
          "type": "uint256"
        }
      ],
      "stateMutability": "pure",
      "type": "function"
    },
    {
      "inputs": [
        {
          "internalType": "address",
          "name": "owner",
          "type": "address"
        }
      ],
      "name": "maxRedeem",
      "outputs": [
        {
          "internalType": "uint256",
          "name": "",
          "type": "uint256"
        }
      ],
      "stateMutability": "view",
      "type": "function"
    },
    {
      "inputs": [
        {
          "internalType": "address",
          "name": "owner",
          "type": "address"
        }
      ],
      "name": "maxWithdraw",
      "outputs": [
        {
          "internalType": "uint256",
          "name": "",
          "type": "uint256"
        }
      ],
      "stateMutability": "view",
      "type": "function"
    },
    {
      "inputs": [
        {
          "internalType": "uint256",
          "name": "shares",
          "type": "uint256"
        },
        {
          "internalType": "address",
          "name": "receiver",
          "type": "address"
        }
      ],
      "name": "mint",
      "outputs": [
        {
          "internalType": "uint256",
          "name": "assets",
          "type": "uint256"
        }
      ],
      "stateMutability": "nonpayable",
      "type": "function"
    },
    {
      "inputs": [],
      "name": "name",
      "outputs": [
        {
          "internalType": "string",
          "name": "",
          "type": "string"
        }
      ],
      "stateMutability": "view",
      "type": "function"
    },
    {
      "inputs": [
        {
          "internalType": "uint256",
          "name": "assets",
          "type": "uint256"
        }
      ],
      "name": "previewDeposit",
      "outputs": [
        {
          "internalType": "uint256",
          "name": "",
          "type": "uint256"
        }
      ],
      "stateMutability": "view",
      "type": "function"
    },
    {
      "inputs": [
        {
          "internalType": "uint256",
          "name": "shares",
          "type": "uint256"
        }
      ],
      "name": "previewMint",
      "outputs": [
        {
          "internalType": "uint256",
          "name": "",
          "type": "uint256"
        }
      ],
      "stateMutability": "view",
      "type": "function"
    },
    {
      "inputs": [
        {
          "internalType": "uint256",
          "name": "shares",
          "type": "uint256"
        }
      ],
      "name": "previewRedeem",
      "outputs": [
        {
          "internalType": "uint256",
          "name": "",
          "type": "uint256"
        }
      ],
      "stateMutability": "view",
      "type": "function"
    },
    {
      "inputs": [
        {
          "internalType": "uint256",
          "name": "assets",
          "type": "uint256"
        }
      ],
      "name": "previewWithdraw",
      "outputs": [
        {
          "internalType": "uint256",
          "name": "",
          "type": "uint256"
        }
      ],
      "stateMutability": "view",
      "type": "function"
    },
    {
      "inputs": [
        {
          "internalType": "uint256",
          "name": "shares",
          "type": "uint256"
        },
        {
          "internalType": "address",
          "name": "receiver",
          "type": "address"
        },
        {
          "internalType": "address",
          "name": "owner",
          "type": "address"
        }
      ],
      "name": "redeem",
      "outputs": [
        {
          "internalType": "uint256",
          "name": "assets",
          "type": "uint256"
        }
      ],
      "stateMutability": "nonpayable",
      "type": "function"
    },
    {
      "inputs": [
        {
          "internalType": "uint256",
          "name": "_rate",
          "type": "uint256"
        }
      ],
      "name": "setExchangeRate",
      "outputs": [],
      "stateMutability": "nonpayable",
      "type": "function"
    },
    {
      "inputs": [],
      "name": "symbol",
      "outputs": [
        {
          "internalType": "string",
          "name": "",
          "type": "string"
        }
      ],
      "stateMutability": "view",
      "type": "function"
    },
    {
      "inputs": [],
      "name": "totalAssets",
      "outputs": [
        {
          "internalType": "uint256",
          "name": "",
          "type": "uint256"
        }
      ],
      "stateMutability": "view",
      "type": "function"
    },
    {
      "inputs": [],
      "name": "totalSupply",
      "outputs": [
        {
          "internalType": "uint256",
          "name": "",
          "type": "uint256"
        }
      ],
      "stateMutability": "view",
      "type": "function"
    },
    {
      "inputs": [
        {
          "internalType": "address",
          "name": "to",
          "type": "address"
        },
        {
          "internalType": "uint256",
          "name": "value",
          "type": "uint256"
        }
      ],
      "name": "transfer",
      "outputs": [
        {
          "internalType": "bool",
          "name": "",
          "type": "bool"
        }
      ],
      "stateMutability": "nonpayable",
      "type": "function"
    },
    {
      "inputs": [
        {
          "internalType": "address",
          "name": "from",
          "type": "address"
        },
        {
          "internalType": "address",
          "name": "to",
          "type": "address"
        },
        {
          "internalType": "uint256",
          "name": "value",
          "type": "uint256"
        }
      ],
      "name": "transferFrom",
      "outputs": [
        {
          "internalType": "bool",
          "name": "",
          "type": "bool"
        }
      ],
      "stateMutability": "nonpayable",
      "type": "function"
    },
    {
      "inputs": [
        {
          "internalType": "uint256",
          "name": "assets",
          "type": "uint256"
        },
        {
          "internalType": "address",
          "name": "receiver",
          "type": "address"
        },
        {
          "internalType": "address",
          "name": "owner",
          "type": "address"
        }
      ],
      "name": "withdraw",
      "outputs": [
        {
          "internalType": "uint256",
          "name": "shares",
          "type": "uint256"
        }
      ],
      "stateMutability": "nonpayable",
      "type": "function"
    }
  ],
  "bytecode": "0x6080806040523461001657611407908161001c8239f35b600080fdfe608060408181526004908136101561001657600080fd5b600091823560e01c93846301e1d11414610c955750836306fdde0314610bfa57836307a2d13a14610bdb578363095ea7b314610b345783630a28a4771461015b57836318160ddd14610b0957836323b872dd14610acd578363313ce56714610ab257836338d52e0f14610a8b5783633ba0b9a914610a6d578363402d267d146102885783634cdad506146104325783636e553f65146109b057836370a08231146101c357836390657147146105f657836394bf804d1461053557836395d89b4114610467578363a9059cbb14610437578363b3d7f6b914610432578363b460af9414610388578363ba0876521461028d578363c63d75b614610288578363c6e6f59214610258578363ce96cb7714610212578363d905777e146101c3578363db068e0e146101a957508263dd62ed3e1461016057505063ef8b30f71461015b57600080fd5b610da8565b346101a557806003193601126101a5578060209261017c610d77565b61018d610187610d92565b91610fb8565b6001600160a01b039091168252845220549051908152f35b5080fd5b9050346101a55760203660031901126101a5573560015580f35b50346101a55760203660031901126101a55760209061020b6101e3610d77565b6001600160a01b031660009081526000805160206112f2833981519152602052604090205490565b9051908152f35b50346101a55760203660031901126101a55760209161020b9082906001600160a01b0361023d610d77565b1681526000805160206112f283398151915285522054610f47565b91346102855760203660031901126102855750606461027d6020936001549035610f1e565b049051908152f35b80fd5b610dd4565b90346103845761029c36610eaf565b82949291610304602060018060a01b039384811696873303610374575b6102cd6102c588610f47565b9a8b93611209565b848b87815416928b519687958694859363a9059cbb60e01b855284016001600160a01b039091168152602081019190915260400190565b03925af1801561036a576020985061033d575b50845192868452878401521690600080516020611352833981519152843392a451908152f35b61035c90883d8a11610363575b6103548183610e20565b810190610f7e565b5087610317565b503d61034a565b86513d8a823e3d90fd5b61037f87338461100f565b6102b9565b8280fd5b90346103845761039736610eaf565b91909360646103a860015484610f1e565b04946103cc60208460018060a01b03946102cd8a878a16998a330361042257611209565b03925af1801561036a5760209850610405575b50845192835285878401521690600080516020611352833981519152843392a451908152f35b61041b90883d8a11610363576103548183610e20565b50876103df565b61042d82338361100f565b611209565b610dfa565b50346101a557806003193601126101a557602090610460610456610d77565b60243590336110d7565b5160018152f35b50346101a557816003193601126101a5578051908260008051602061131283398151915290815461049781610ee4565b9182865260209360019260018116908160001461051157506001146104d6575b6104d287876104c8828c0383610e20565b5191829182610d2e565b0390f35b9080949750528583205b8284106104fe57505050826104d2946104c8928201019486806104b7565b80548685018801529286019281016104e0565b60ff19168887015250505050151560051b83010192506104c8826104d286806104b7565b90346103845780600319360112610384578135610550610d92565b9261055a82610f47565b9361058c60208660018060a01b0394858a5416908a89518096819582946323b872dd60e01b8452309033908501610f96565b03925af180156105ec57602097506105cf575b506105aa838261119f565b8351928584528684015216906000805160206113b2833981519152833392a351908152f35b6105e590873d8911610363576103548183610e20565b508661059f565b85513d89823e3d90fd5b346103845760603660031901126103845761060f610d77565b6001600160401b0391906024358381116109ac576106309036908401610e59565b906044358481116109a8576106489036908501610e59565b6000805160206113928339815191529485549460ff86891c161594828716968715806109a1575b60018099149081610997575b15908161098e575b5061097e576001600160401b031981168817895586610963575b506106a66112a2565b6106ae6112a2565b805183811161095057806000805160206112d2833981519152926106d28454610ee4565b601f81116108fb575b506020908d601f841160011461089c5792610891575b5050600019600383901b1c191690881b1790555b825191821161087e5750806000805160206113128339815191529261072a8454610ee4565b601f811161082c575b50602090601f83116001146107cd578a926107c2575b5050600019600383901b1c191690851b1790555b85546001600160a01b0319166001600160a01b039190911617855560648255610784578380f35b815460ff60401b191690915590519081527fc7f505b2f371ae2175ee4913f4499e1f2633a7b5936321eed1cdaeb6115181d290602090a18180808380f35b015190508980610749565b848b52818b208894509190601f1984168c5b818110610814575084116107fb575b505050811b01905561075d565b015160001960f88460031b161c191690558980806107ee565b8284015185558a9690940193602093840193016107df565b909150838a5260208a20601f840160051c81019160208510610874575b84939291601f8a920160051c01915b828110610866575050610733565b8c8155859450899101610858565b9091508190610849565b634e487b7160e01b895260419052602488fd5b015190508c806106f1565b91908b9450601f198416868452828420935b8181106108e3575084116108ca575b505050811b019055610705565b015160001960f88460031b161c191690558c80806108bd565b8284015185558d9690940193602093840193016108ae565b909150838d5260208d20601f840160051c81019160208510610946575b8e85949392601f8e930160051c0192905b838210610938575050506106db565b81558594508c91018f610929565b9091508190610918565b634e487b7160e01b8b526041835260248bfd5b6001600160481b0319166001600160401b011788558a61069d565b895163f92ee8a960e01b81528390fd5b9050158c610683565b303b15915061067b565b508661066f565b8680fd5b8580fd5b903461038457806003193601126103845781356109cb610d92565b9260646109da60015484610f1e565b0493610a0d60208460018060a01b0394858a5416908a89518096819582946323b872dd60e01b8452309033908501610f96565b03925af180156105ec5760209750610a50575b50610a2b858261119f565b8351928352848684015216906000805160206113b2833981519152833392a351908152f35b610a6690873d8911610363576103548183610e20565b5086610a20565b50346101a557816003193601126101a5576020906001549051908152f35b50346101a557816003193601126101a557905490516001600160a01b039091168152602090f35b50346101a557816003193601126101a5576020905160128152f35b50346101a55760603660031901126101a557602090610460610aed610d77565b610af5610d92565b60443591610b0483338361100f565b6110d7565b50346101a557816003193601126101a557602090600080516020611332833981519152549051908152f35b34610384578160031936011261038457610b4c610d77565b602435903315610bc4576001600160a01b0316918215610bad57508083602095610b7533610fb8565b8582528752205582519081527f8c5be1e5ebec7d5bd14f71427d1e84f3dd0314c0f7b2291e5b200ac8c7c3b925843392a35160018152f35b8351634a1406b160e11b8152908101859052602490fd5b835163e602df0560e01b8152808401869052602490fd5b9134610285576020366003190112610285575061020b60209235610f47565b50346101a557816003193601126101a557805190826000805160206112d2833981519152908154610c2a81610ee4565b918286526020936001926001811690816000146105115750600114610c5a576104d287876104c8828c0383610e20565b9080949750528583205b828410610c8257505050826104d2946104c8928201019486806104b7565b8054868501880152928601928101610c64565b919034610d2a5783600319360112610d2a5783546370a0823160e01b84523091840191909152602090839060249082906001600160a01b03165afa918215610d20578392610ce8575b6020838351908152f35b9091506020813d602011610d18575b81610d0460209383610e20565b810103126103845760209250519083610cde565b3d9150610cf7565b81513d85823e3d90fd5b8380fd5b6020808252825181830181905290939260005b828110610d6357505060409293506000838284010152601f8019910116010190565b818101860151848201604001528501610d41565b600435906001600160a01b0382168203610d8d57565b600080fd5b602435906001600160a01b0382168203610d8d57565b34610d8d576020366003190112610d8d5760206064610dcb600154600435610f1e565b04604051908152f35b34610d8d576020366003190112610d8d57610ded610d77565b5060206040516000198152f35b34610d8d576020366003190112610d8d576020610e18600435610f47565b604051908152f35b601f909101601f19168101906001600160401b03821190821017610e4357604052565b634e487b7160e01b600052604160045260246000fd5b81601f82011215610d8d578035906001600160401b038211610e435760405192610e8d601f8401601f191660200185610e20565b82845260208383010111610d8d57816000926020809301838601378301015290565b6060906003190112610d8d57600435906001600160a01b03906024358281168103610d8d57916044359081168103610d8d5790565b90600182811c92168015610f14575b6020831014610efe57565b634e487b7160e01b600052602260045260246000fd5b91607f1691610ef3565b81810292918115918404141715610f3157565b634e487b7160e01b600052601160045260246000fd5b606481029080820460641490151715610f3157600154908115610f68570490565b634e487b7160e01b600052601260045260246000fd5b90816020910312610d8d57518015158103610d8d5790565b6001600160a01b03918216815291166020820152604081019190915260600190565b6001600160a01b031660009081527f52c63247e1f47db19d5ce0460030c497f067ca4cebf71ba98eeadabe20bace016020526040902090565b604091949392606082019560018060a01b0316825260208201520152565b919061101a83610fb8565b9260018060a01b0390818316916000958387526020526040862054936000198510611049575b50505050505050565b8585106110b4575081161561109b578115611082579061106c6040949392610fb8565b9085526020520391205538808080808080611040565b604051634a1406b160e11b815260048101869052602490fd5b60405163e602df0560e01b815260048101869052602490fd5b84906110d387604051938493637dc7a0d960e11b855260048501610ff1565b0390fd5b916001600160a01b03808416928315611186571692831561116d576000908382526000805160206112f28339815191528060205260408320549184831061114e57508284600080516020611372833981519152959360409388602097528652038282205586815220818154019055604051908152a3565b90506110d38460405193849363391434e360e21b855260048501610ff1565b60405163ec442f0560e01b815260006004820152602490fd5b604051634b637e8f60e11b815260006004820152602490fd5b6001600160a01b031690811561116d57600080516020611332833981519152805490828201809211610f315760009260008051602061137283398151915292602092558484526000805160206112f2833981519152825260408420818154019055604051908152a3565b91906001600160a01b03831690811561118657816000526000805160206112f2833981519152806020526040600020549482861061128357508160008051602061137283398151915292600095966020938688528452036040862055600080516020611332833981519152818154039055604051908152a3565b85906110d38460405193849363391434e360e21b855260048501610ff1565b60ff6000805160206113928339815191525460401c16156112bf57565b604051631afcd79f60e31b8152600490fdfe52c63247e1f47db19d5ce0460030c497f067ca4cebf71ba98eeadabe20bace0352c63247e1f47db19d5ce0460030c497f067ca4cebf71ba98eeadabe20bace0052c63247e1f47db19d5ce0460030c497f067ca4cebf71ba98eeadabe20bace0452c63247e1f47db19d5ce0460030c497f067ca4cebf71ba98eeadabe20bace02fbde797d201c681b91056529119e0b02407c7bb96a4a2c75c01fc9667232c8dbddf252ad1be2c89b69c2b068fc378daa952ba7f163c4a11628f55a4df523b3eff0c57e16840df040f15088dc2f81fe391c3923bec73e23a9662efc9c229c6a00dcbc1c05240f31ff3ad067ef1ee35ce4997762752e3a095284754544f4c709d7a26469706673582212207feac067fcb599a4adfc6f8f1e59ce782fc59c676cd513c91781ff071bd95d8864736f6c63430008160033",
  "linkReferences": {},
  "deployedLinkReferences": {}
}