{
  "_format": "hh-sol-artifact-1",
  "contractName": "TestMockPermitToken",
  "sourceName": "contracts/test/TestMockPermitToken.sol",
  "abi": [
    {
      "inputs": [
        {
          "internalType": "address",
          "name": "spender",
          "type": "address"
        },
        {
          "internalType": "uint256",
          "name": "allowance",
          "type": "uint256"
        },
        {
          "internalType": "uint256",
          "name": "needed",
          "type": "uint256"
        }
      ],
      "name": "ERC20InsufficientAllowance",
      "type": "error"
    },
    {
      "inputs": [
        {
          "internalType": "address",
          "name": "sender",
          "type": "address"
        },
        {
          "internalType": "uint256",
          "name": "balance",
          "type": "uint256"
        },
        {
          "internalType": "uint256",
          "name": "needed",
          "type": "uint256"
        }
      ],
      "name": "ERC20InsufficientBalance",
      "type": "error"
    },
    {
      "inputs": [
        {
          "internalType": "address",
          "name": "approver",
          "type": "address"
        }
      ],
      "name": "ERC20InvalidApprover",
      "type": "error"
    },
    {
      "inputs": [
        {
          "internalType": "address",
          "name": "receiver",
          "type": "address"
        }
      ],
      "name": "ERC20InvalidReceiver",
      "type": "error"
    },
    {
      "inputs": [
        {
          "internalType": "address",
          "name": "sender",
          "type": "address"
        }
      ],
      "name": "ERC20InvalidSender",
      "type": "error"
    },
    {
      "inputs": [
        {
          "internalType": "address",
          "name": "spender",
          "type": "address"
        }
      ],
      "name": "ERC20InvalidSpender",
      "type": "error"
    },
    {
      "inputs": [],
      "name": "InvalidInitialization",
      "type": "error"
    },
    {
      "inputs": [],
      "name": "NotInitializing",
      "type": "error"
    },
    {
      "anonymous": false,
      "inputs": [
        {
          "indexed": true,
          "internalType": "address",
          "name": "owner",
          "type": "address"
        },
        {
          "indexed": true,
          "internalType": "address",
          "name": "spender",
          "type": "address"
        },
        {
          "indexed": false,
          "internalType": "uint256",
          "name": "value",
          "type": "uint256"
        }
      ],
      "name": "Approval",
      "type": "event"
    },
    {
      "anonymous": false,
      "inputs": [
        {
          "indexed": false,
          "internalType": "uint64",
          "name": "version",
          "type": "uint64"
        }
      ],
      "name": "Initialized",
      "type": "event"
    },
    {
      "anonymous": false,
      "inputs": [
        {
          "indexed": true,
          "internalType": "address",
          "name": "from",
          "type": "address"
        },
        {
          "indexed": true,
          "internalType": "address",
          "name": "to",
          "type": "address"
        },
        {
          "indexed": false,
          "internalType": "uint256",
          "name": "value",
          "type": "uint256"
        }
      ],
      "name": "Transfer",
      "type": "event"
    },
    {
      "inputs": [
        {
          "internalType": "address",
          "name": "owner",
          "type": "address"
        },
        {
          "internalType": "address",
          "name": "spender",
          "type": "address"
        }
      ],
      "name": "allowance",
      "outputs": [
        {
          "internalType": "uint256",
          "name": "",
          "type": "uint256"
        }
      ],
      "stateMutability": "view",
      "type": "function"
    },
    {
      "inputs": [
        {
          "internalType": "address",
          "name": "spender",
          "type": "address"
        },
        {
          "internalType": "uint256",
          "name": "value",
          "type": "uint256"
        }
      ],
      "name": "approve",
      "outputs": [
        {
          "internalType": "bool",
          "name": "",
          "type": "bool"
        }
      ],
      "stateMutability": "nonpayable",
      "type": "function"
    },
    {
      "inputs": [
        {
          "internalType": "address",
          "name": "account",
          "type": "address"
        }
      ],
      "name": "balanceOf",
      "outputs": [
        {
          "internalType": "uint256",
          "name": "",
          "type": "uint256"
        }
      ],
      "stateMutability": "view",
      "type": "function"
    },
    {
      "inputs": [
        {
          "internalType": "address",
          "name": "from",
          "type": "address"
        },
        {
          "internalType": "uint256",
          "name": "amount",
          "type": "uint256"
        }
      ],
      "name": "burn",
      "outputs": [],
      "stateMutability": "nonpayable",
      "type": "function"
    },
    {
      "inputs": [],
      "name": "decimals",
      "outputs": [
        {
          "internalType": "uint8",
          "name": "",
          "type": "uint8"
        }
      ],
      "stateMutability": "view",
      "type": "function"
    },
    {
      "inputs": [
        {
          "internalType": "string",
          "name": "_name",
          "type": "string"
        },
        {
          "internalType": "string",
          "name": "_symbol",
          "type": "string"
        },
        {
          "internalType": "uint8",
          "name": "_decimals",
          "type": "uint8"
        },
        {
          "internalType": "address[]",
          "name": "_holder",
          "type": "address[]"
        },
        {
          "internalType": "uint256[]",
          "name": "amount_",
          "type": "uint256[]"
        }
      ],
      "name": "initialize",
      "outputs": [],
      "stateMutability": "nonpayable",
      "type": "function"
    },
    {
      "inputs": [],
      "name": "lastPermitAmount",
      "outputs": [
        {
          "internalType": "uint256",
          "name": "",
          "type": "uint256"
        }
      ],
      "stateMutability": "view",
      "type": "function"
    },
    {
      "inputs": [],
      "name": "lastPermitDeadline",
      "outputs": [
        {
          "internalType": "uint256",
          "name": "",
          "type": "uint256"
        }
      ],
      "stateMutability": "view",
      "type": "function"
    },
    {
      "inputs": [],
      "name": "lastPermitOwner",
      "outputs": [
        {
          "internalType": "address",
          "name": "",
          "type": "address"
        }
      ],
      "stateMutability": "view",
      "type": "function"
    },
    {
      "inputs": [],
      "name": "lastPermitR",
      "outputs": [
        {
          "internalType": "bytes32",
          "name": "",
          "type": "bytes32"
        }
      ],
      "stateMutability": "view",
      "type": "function"
    },
    {
      "inputs": [],
      "name": "lastPermitS",
      "outputs": [
        {
          "internalType": "bytes32",
          "name": "",
          "type": "bytes32"
        }
      ],
      "stateMutability": "view",
      "type": "function"
    },
    {
      "inputs": [],
      "name": "lastPermitSpender",
      "outputs": [
        {
          "internalType": "address",
          "name": "",
          "type": "address"
        }
      ],
      "stateMutability": "view",
      "type": "function"
    },
    {
      "inputs": [],
      "name": "lastPermitV",
      "outputs": [
        {
          "internalType": "uint8",
          "name": "",
          "type": "uint8"
        }
      ],
      "stateMutability": "view",
      "type": "function"
    },
    {
      "inputs": [
        {
          "internalType": "address",
          "name": "to",
          "type": "address"
        },
        {
          "internalType": "uint256",
          "name": "amount",
          "type": "uint256"
        }
      ],
      "name": "mint",
      "outputs": [],
      "stateMutability": "nonpayable",
      "type": "function"
    },
    {
      "inputs": [],
      "name": "name",
      "outputs": [
        {
          "internalType": "string",
          "name": "",
          "type": "string"
        }
      ],
      "stateMutability": "view",
      "type": "function"
    },
    {
      "inputs": [
        {
          "internalType": "address",
          "name": "owner",
          "type": "address"
        },
        {
          "internalType": "address",
          "name": "spender",
          "type": "address"
        },
        {
          "internalType": "uint256",
          "name": "value",
          "type": "uint256"
        },
        {
          "internalType": "uint256",
          "name": "deadline",
          "type": "uint256"
        },
        {
          "internalType": "uint8",
          "name": "v",
          "type": "uint8"
        },
        {
          "internalType": "bytes32",
          "name": "r",
          "type": "bytes32"
        },
        {
          "internalType": "bytes32",
          "name": "s",
          "type": "bytes32"
        }
      ],
      "name": "permit",
      "outputs": [],
      "stateMutability": "nonpayable",
      "type": "function"
    },
    {
      "inputs": [
        {
          "internalType": "bool",
          "name": "_shouldRevert",
          "type": "bool"
        }
      ],
      "name": "setShouldRevertOnPermit",
      "outputs": [],
      "stateMutability": "nonpayable",
      "type": "function"
    },
    {
      "inputs": [],
      "name": "shouldRevertOnPermit",
      "outputs": [
        {
          "internalType": "bool",
          "name": "",
          "type": "bool"
        }
      ],
      "stateMutability": "view",
      "type": "function"
    },
    {
      "inputs": [],
      "name": "symbol",
      "outputs": [
        {
          "internalType": "string",
          "name": "",
          "type": "string"
        }
      ],
      "stateMutability": "view",
      "type": "function"
    },
    {
      "inputs": [],
      "name": "totalSupply",
      "outputs": [
        {
          "internalType": "uint256",
          "name": "",
          "type": "uint256"
        }
      ],
      "stateMutability": "view",
      "type": "function"
    },
    {
      "inputs": [
        {
          "internalType": "address",
          "name": "to",
          "type": "address"
        },
        {
          "internalType": "uint256",
          "name": "value",
          "type": "uint256"
        }
      ],
      "name": "transfer",
      "outputs": [
        {
          "internalType": "bool",
          "name": "",
          "type": "bool"
        }
      ],
      "stateMutability": "nonpayable",
      "type": "function"
    },
    {
      "inputs": [
        {
          "internalType": "address",
          "name": "from",
          "type": "address"
        },
        {
          "internalType": "address",
          "name": "to",
          "type": "address"
        },
        {
          "internalType": "uint256",
          "name": "value",
          "type": "uint256"
        }
      ],
      "name": "transferFrom",
      "outputs": [
        {
          "internalType": "bool",
          "name": "",
          "type": "bool"
        }
      ],
      "stateMutability": "nonpayable",
      "type": "function"
    }
  ],
  "bytecode": "0x6080806040523461001657611233908161001c8239f35b600080fdfe608080604052600436101561001357600080fd5b60003560e01c90816306fdde0314610d7b57508063095ea7b314610cfa5780630c69f93a14610cc257806311fbcaca14610ca457806318160ddd14610c7957806323b872dd14610b9d5780632678f7ef14610b7c578063313ce56714610b5b57806340c10f1914610b345780634355cf9f14610b1657806370a0823114610acf578063831db14114610aa657806395d89b41146109d65780639816b363146109b05780639dc29fac146108e2578063a9059cbb146108b1578063bac98f8f14610893578063d3966f3d14610875578063d505accf14610791578063da35ef4c1461018c578063dd62ed3e146101435763ebf7d49e1461011157600080fd5b3461013e57600036600319011261013e5760005460405160109190911c6001600160a01b03168152602090f35b600080fd5b3461013e57604036600319011261013e5761015c610e5e565b61016d610167610e74565b91610f54565b9060018060a01b03166000526020526020604060002054604051908152f35b3461013e5760a036600319011261013e576004356001600160401b03811161013e576101bc903690600401610ead565b6024356001600160401b03811161013e576101db903690600401610ead565b906044359160ff8316830361013e57606435916001600160401b03831161013e573660238401121561013e57826004013561021581610f03565b936102236040519586610e8a565b8185526024602086019260051b8201019036821161013e57602401915b8183106107715750506084359290506001600160401b03831161013e573660238401121561013e5782600401359261027784610f03565b936102856040519586610e8a565b8085526024602086019160051b8301019136831161013e57602401905b8282106107615750506000805160206111de833981519152549290506001600160401b03831680159081610751575b6001149081610747575b15908161073e575b5061072c576001600160401b031983166001176000805160206111de83398151915255604083901c60ff1615610703575b61031c6110ee565b6103246110ee565b8051906001600160401b0382116105e857819061034f60008051602061113e83398151915254610f1a565b601f811161069b575b50602090601f8311600114610609576000926105fe575b50508160011b916000199060031b1c19161760008051602061113e833981519152555b8051906001600160401b0382116105e8576103bb60008051602061117e83398151915254610f1a565b601f811161057a575b50602090601f83116001146104eb57918060ff979288946000926104e0575b50508160011b916000199060031b1c19161760008051602061117e8339815191525590509390935b1660ff19600054161760005560005b825160ff82169081101561047e5760ff91906104559061044e6001600160a01b036104458389610f8d565b51169186610f8d565b5190611084565b169260ff8414610468579260010161041a565b634e487b7160e01b600052601160045260246000fd5b60ff8560401c161561048c57005b60ff60401b196000805160206111de83398151915254166000805160206111de833981519152557fc7f505b2f371ae2175ee4913f4499e1f2633a7b5936321eed1cdaeb6115181d2602060405160018152a1005b0151905088806103e3565b9060008051602061117e83398151915260005260206000209160005b601f198516811061056257509260ff9792600192899583601f19811610610549575b505050811b0160008051602061117e83398151915255905093909361040b565b015160001960f88460031b161c19169055888080610529565b91926020600181928685015181550194019201610507565b60008051602061117e8339815191526000527f46a2803e59a4de4e7a4c574b1243f25977ac4c77d5a1a4a609b5394cebb4a2aa601f840160051c8101602085106105e1575b601f830160051c820181106105d55750506103c4565b600081556001016105bf565b50806105bf565b634e487b7160e01b600052604160045260246000fd5b01519050878061036f565b60008051602061113e8339815191526000908152935060008051602061111e83398151915291905b601f1984168510610680576001945083601f19811610610667575b505050811b0160008051602061113e83398151915255610392565b015160001960f88460031b161c1916905587808061064c565b81810151835560209485019460019093019290910190610631565b60008051602061113e83398151915260005290915060008051602061111e833981519152601f840160051c8101602085106106fc575b90849392915b601f830160051c820181106106ed575050610358565b600081558594506001016106d7565b50806106d1565b6001600160481b031983166001600160401b01176000805160206111de83398151915255610314565b60405163f92ee8a960e01b8152600490fd5b905015876102e3565b303b1591506102db565b604085901c60ff161591506102d1565b81358152602091820191016102a2565b82356001600160a01b038116810361013e57815260209283019201610240565b3461013e5760e036600319011261013e576107aa610e5e565b6107b2610e74565b6084359160ff831680930361013e576000549060ff8260081c1661083b5762010000600160b01b031990911660109190911b62010000600160b01b031617600055600180546001600160a01b0319166001600160a01b03929092169190911790556044356002556064356003556004805460ff191691909117905560a43560055560c435600655005b60405162461bcd60e51b8152602060048201526012602482015271135bd8dac81c195c9b5a5d0819985a5b195960721b6044820152606490fd5b3461013e57600036600319011261013e576020600354604051908152f35b3461013e57600036600319011261013e576020600554604051908152f35b3461013e57604036600319011261013e576108d76108cd610e5e565b6024359033610fd5565b602060405160018152f35b3461013e57604036600319011261013e576108fb610e5e565b6001600160a01b0381166024358115610997578160005260008051602061115e83398151915280602052604060002054938285106109745750816000805160206111be83398151915292600095602093868852845203604086205560008051602061119e833981519152818154039055604051908152a3005b84906109938460405193849363391434e360e21b855260048501610fb7565b0390fd5b604051634b637e8f60e11b815260006004820152602490fd5b3461013e57600036600319011261013e57602060ff60005460081c166040519015158152f35b3461013e57600036600319011261013e5760405160009060008051602061117e8339815191528054610a0781610f1a565b90818452602092600191600181169081600014610a845750600114610a47575b610a4385610a3781890382610e8a565b60405191829182610e15565b0390f35b6000908152838120939550925b828410610a715750505081610a4393610a37928201019385610a27565b8054858501870152928501928101610a54565b60ff191686860152505050151560051b8201019150610a3781610a4385610a27565b3461013e57600036600319011261013e576001546040516001600160a01b039091168152602090f35b3461013e57602036600319011261013e576001600160a01b03610af0610e5e565b1660005260008051602061115e8339815191526020526020604060002054604051908152f35b3461013e57600036600319011261013e576020600254604051908152f35b3461013e57604036600319011261013e57610b59610b50610e5e565b60243590611084565b005b3461013e57600036600319011261013e57602060ff60005416604051908152f35b3461013e57600036600319011261013e57602060ff60045416604051908152f35b3461013e57606036600319011261013e57610bb6610e5e565b610bbe610e74565b60443590610bcb83610f54565b33600052602052604060002054926000198410610bed575b6108d79350610fd5565b828410610c5c576001600160a01b03811615610c43573315610c2a57826108d794610c1783610f54565b3360005260205203604060002055610be3565b604051634a1406b160e11b815260006004820152602490fd5b60405163e602df0560e01b815260006004820152602490fd5b604051637dc7a0d960e11b81528061099385873360048501610fb7565b3461013e57600036600319011261013e57602060008051602061119e83398151915254604051908152f35b3461013e57600036600319011261013e576020600654604051908152f35b3461013e57602036600319011261013e5760043580151580910361013e5761ff006000549160081b169061ff00191617600055600080f35b3461013e57604036600319011261013e57610d13610e5e565b602435903315610c43576001600160a01b0316908115610c2a57610d3633610f54565b82600052602052806040600020556040519081527f8c5be1e5ebec7d5bd14f71427d1e84f3dd0314c0f7b2291e5b200ac8c7c3b92560203392a3602060405160018152f35b3461013e57600036600319011261013e5760009060008051602061113e8339815191528054610da981610f1a565b90818452602092600191600181169081600014610a845750600114610dd857610a4385610a3781890382610e8a565b6000908152838120939550925b828410610e025750505081610a4393610a37928201019385610a27565b8054858501870152928501928101610de5565b6020808252825181830181905290939260005b828110610e4a57505060409293506000838284010152601f8019910116010190565b818101860151848201604001528501610e28565b600435906001600160a01b038216820361013e57565b602435906001600160a01b038216820361013e57565b601f909101601f19168101906001600160401b038211908210176105e857604052565b81601f8201121561013e578035906001600160401b0382116105e85760405192610ee1601f8401601f191660200185610e8a565b8284526020838301011161013e57816000926020809301838601378301015290565b6001600160401b0381116105e85760051b60200190565b90600182811c92168015610f4a575b6020831014610f3457565b634e487b7160e01b600052602260045260246000fd5b91607f1691610f29565b6001600160a01b031660009081527f52c63247e1f47db19d5ce0460030c497f067ca4cebf71ba98eeadabe20bace016020526040902090565b8051821015610fa15760209160051b010190565b634e487b7160e01b600052603260045260246000fd5b604091949392606082019560018060a01b0316825260208201520152565b916001600160a01b03808416928315610997571692831561106b5760009083825260008051602061115e8339815191528060205260408320549184831061104c575082846000805160206111be833981519152959360409388602097528652038282205586815220818154019055604051908152a3565b90506109938460405193849363391434e360e21b855260048501610fb7565b60405163ec442f0560e01b815260006004820152602490fd5b6001600160a01b031690811561106b5760008051602061119e833981519152805490828201809211610468576000926000805160206111be833981519152926020925584845260008051602061115e833981519152825260408420818154019055604051908152a3565b60ff6000805160206111de8339815191525460401c161561110b57565b604051631afcd79f60e31b8152600490fdfe2ae08a8e29253f69ac5d979a101956ab8f8d9d7ded63fa7a83b16fc47648eab052c63247e1f47db19d5ce0460030c497f067ca4cebf71ba98eeadabe20bace0352c63247e1f47db19d5ce0460030c497f067ca4cebf71ba98eeadabe20bace0052c63247e1f47db19d5ce0460030c497f067ca4cebf71ba98eeadabe20bace0452c63247e1f47db19d5ce0460030c497f067ca4cebf71ba98eeadabe20bace02ddf252ad1be2c89b69c2b068fc378daa952ba7f163c4a11628f55a4df523b3eff0c57e16840df040f15088dc2f81fe391c3923bec73e23a9662efc9c229c6a00a264697066735822122046949623ddfd467d045c0093e660ce4812074ebf21b7b82948608971c12a92b664736f6c63430008160033",
  "linkReferences": {},
  "deployedLinkReferences": {}
}