{
  "_format": "hh-sol-artifact-1",
  "contractName": "TermEventEmitter",
  "sourceName": "contracts/TermEventEmitter.sol",
  "abi": [
    {
      "inputs": [],
      "stateMutability": "nonpayable",
      "type": "constructor"
    },
    {
      "inputs": [],
      "name": "AccessControlBadConfirmation",
      "type": "error"
    },
    {
      "inputs": [
        {
          "internalType": "address",
          "name": "account",
          "type": "address"
        },
        {
          "internalType": "bytes32",
          "name": "neededRole",
          "type": "bytes32"
        }
      ],
      "name": "AccessControlUnauthorizedAccount",
      "type": "error"
    },
    {
      "inputs": [
        {
          "internalType": "address",
          "name": "target",
          "type": "address"
        }
      ],
      "name": "AddressEmptyCode",
      "type": "error"
    },
    {
      "inputs": [
        {
          "internalType": "address",
          "name": "implementation",
          "type": "address"
        }
      ],
      "name": "ERC1967InvalidImplementation",
      "type": "error"
    },
    {
      "inputs": [],
      "name": "ERC1967NonPayable",
      "type": "error"
    },
    {
      "inputs": [],
      "name": "FailedCall",
      "type": "error"
    },
    {
      "inputs": [],
      "name": "InvalidInitialization",
      "type": "error"
    },
    {
      "inputs": [],
      "name": "NotInitializing",
      "type": "error"
    },
    {
      "inputs": [],
      "name": "UUPSUnauthorizedCallContext",
      "type": "error"
    },
    {
      "inputs": [
        {
          "internalType": "bytes32",
          "name": "slot",
          "type": "bytes32"
        }
      ],
      "name": "UUPSUnsupportedProxiableUUID",
      "type": "error"
    },
    {
      "anonymous": false,
      "inputs": [
        {
          "indexed": false,
          "internalType": "bytes32",
          "name": "termAuctionId",
          "type": "bytes32"
        },
        {
          "indexed": false,
          "internalType": "bool",
          "name": "nonViableAuction",
          "type": "bool"
        },
        {
          "indexed": false,
          "internalType": "bool",
          "name": "auctionCancelledforWithdrawal",
          "type": "bool"
        }
      ],
      "name": "AuctionCancelled",
      "type": "event"
    },
    {
      "anonymous": false,
      "inputs": [
        {
          "indexed": false,
          "internalType": "bytes32",
          "name": "termAuctionId",
          "type": "bytes32"
        },
        {
          "indexed": false,
          "internalType": "uint256",
          "name": "timestamp",
          "type": "uint256"
        },
        {
          "indexed": false,
          "internalType": "uint256",
          "name": "block",
          "type": "uint256"
        },
        {
          "indexed": false,
          "internalType": "uint256",
          "name": "totalAssignedBids",
          "type": "uint256"
        },
        {
          "indexed": false,
          "internalType": "uint256",
          "name": "totalAssignedOffers",
          "type": "uint256"
        },
        {
          "indexed": false,
          "internalType": "uint256",
          "name": "clearingPrice",
          "type": "uint256"
        }
      ],
      "name": "AuctionCompleted",
      "type": "event"
    },
    {
      "anonymous": false,
      "inputs": [
        {
          "indexed": false,
          "internalType": "bytes32",
          "name": "termAuctionId",
          "type": "bytes32"
        },
        {
          "indexed": false,
          "internalType": "bytes32",
          "name": "id",
          "type": "bytes32"
        },
        {
          "indexed": false,
          "internalType": "uint256",
          "name": "amount",
          "type": "uint256"
        }
      ],
      "name": "BidAssigned",
      "type": "event"
    },
    {
      "anonymous": false,
      "inputs": [
        {
          "indexed": false,
          "internalType": "bytes32",
          "name": "termRepoId",
          "type": "bytes32"
        },
        {
          "indexed": false,
          "internalType": "address",
          "name": "bidder",
          "type": "address"
        },
        {
          "indexed": false,
          "internalType": "uint256",
          "name": "purchasePrice",
          "type": "uint256"
        },
        {
          "indexed": false,
          "internalType": "uint256",
          "name": "repurchasePrice",
          "type": "uint256"
        },
        {
          "indexed": false,
          "internalType": "uint256",
          "name": "servicingFees",
          "type": "uint256"
        }
      ],
      "name": "BidFulfilled",
      "type": "event"
    },
    {
      "anonymous": false,
      "inputs": [
        {
          "indexed": false,
          "internalType": "bytes32",
          "name": "termAuctionId",
          "type": "bytes32"
        },
        {
          "indexed": false,
          "internalType": "bytes32",
          "name": "id",
          "type": "bytes32"
        }
      ],
      "name": "BidInShortfall",
      "type": "event"
    },
    {
      "anonymous": false,
      "inputs": [
        {
          "indexed": false,
          "internalType": "bytes32",
          "name": "termAuctionId",
          "type": "bytes32"
        },
        {
          "indexed": false,
          "internalType": "bytes32",
          "name": "id",
          "type": "bytes32"
        },
        {
          "indexed": false,
          "internalType": "address",
          "name": "bidder",
          "type": "address"
        },
        {
          "indexed": false,
          "internalType": "bytes32",
          "name": "bidPrice",
          "type": "bytes32"
        },
        {
          "indexed": false,
          "internalType": "uint256",
          "name": "amount",
          "type": "uint256"
        },
        {
          "indexed": false,
          "internalType": "address",
          "name": "token",
          "type": "address"
        },
        {
          "indexed": false,
          "internalType": "address[]",
          "name": "collateralTokens",
          "type": "address[]"
        },
        {
          "indexed": false,
          "internalType": "uint256[]",
          "name": "collateralAmounts",
          "type": "uint256[]"
        },
        {
          "indexed": false,
          "internalType": "bool",
          "name": "isRollover",
          "type": "bool"
        },
        {
          "indexed": false,
          "internalType": "address",
          "name": "rolloverPairOffTermRepoServicer",
          "type": "address"
        },
        {
          "indexed": false,
          "internalType": "address",
          "name": "referralAddress",
          "type": "address"
        }
      ],
      "name": "BidLocked",
      "type": "event"
    },
    {
      "anonymous": false,
      "inputs": [
        {
          "indexed": false,
          "internalType": "bytes32",
          "name": "termAuctionId",
          "type": "bytes32"
        },
        {
          "indexed": false,
          "internalType": "bytes32",
          "name": "termRepoId",
          "type": "bytes32"
        }
      ],
      "name": "BidLockingPaused",
      "type": "event"
    },
    {
      "anonymous": false,
      "inputs": [
        {
          "indexed": false,
          "internalType": "bytes32",
          "name": "termAuctionId",
          "type": "bytes32"
        },
        {
          "indexed": false,
          "internalType": "bytes32",
          "name": "termRepoId",
          "type": "bytes32"
        }
      ],
      "name": "BidLockingUnpaused",
      "type": "event"
    },
    {
      "anonymous": false,
      "inputs": [
        {
          "indexed": false,
          "internalType": "bytes32",
          "name": "termAuctionId",
          "type": "bytes32"
        },
        {
          "indexed": false,
          "internalType": "bytes32",
          "name": "id",
          "type": "bytes32"
        },
        {
          "indexed": false,
          "internalType": "uint256",
          "name": "bidPrice",
          "type": "uint256"
        }
      ],
      "name": "BidRevealed",
      "type": "event"
    },
    {
      "anonymous": false,
      "inputs": [
        {
          "indexed": false,
          "internalType": "bytes32",
          "name": "termAuctionId",
          "type": "bytes32"
        },
        {
          "indexed": false,
          "internalType": "bytes32",
          "name": "id",
          "type": "bytes32"
        }
      ],
      "name": "BidUnlocked",
      "type": "event"
    },
    {
      "anonymous": false,
      "inputs": [
        {
          "indexed": false,
          "internalType": "bytes32",
          "name": "termAuctionId",
          "type": "bytes32"
        },
        {
          "indexed": false,
          "internalType": "bytes32",
          "name": "termRepoId",
          "type": "bytes32"
        }
      ],
      "name": "BidUnlockingPaused",
      "type": "event"
    },
    {
      "anonymous": false,
      "inputs": [
        {
          "indexed": false,
          "internalType": "bytes32",
          "name": "termAuctionId",
          "type": "bytes32"
        },
        {
          "indexed": false,
          "internalType": "bytes32",
          "name": "termRepoId",
          "type": "bytes32"
        }
      ],
      "name": "BidUnlockingUnpaused",
      "type": "event"
    },
    {
      "anonymous": false,
      "inputs": [
        {
          "indexed": false,
          "internalType": "bytes32",
          "name": "termRepoId",
          "type": "bytes32"
        },
        {
          "indexed": false,
          "internalType": "address",
          "name": "borrower",
          "type": "address"
        },
        {
          "indexed": false,
          "internalType": "uint256",
          "name": "amountToClose",
          "type": "uint256"
        }
      ],
      "name": "BurnCollapseExposure",
      "type": "event"
    },
    {
      "anonymous": false,
      "inputs": [
        {
          "indexed": false,
          "internalType": "bytes32",
          "name": "termRepoId",
          "type": "bytes32"
        },
        {
          "indexed": false,
          "internalType": "address",
          "name": "borrower",
          "type": "address"
        },
        {
          "indexed": false,
          "internalType": "address",
          "name": "collateralToken",
          "type": "address"
        },
        {
          "indexed": false,
          "internalType": "uint256",
          "name": "amount",
          "type": "uint256"
        }
      ],
      "name": "CollateralLocked",
      "type": "event"
    },
    {
      "anonymous": false,
      "inputs": [
        {
          "indexed": false,
          "internalType": "bytes32",
          "name": "termRepoId",
          "type": "bytes32"
        },
        {
          "indexed": false,
          "internalType": "address",
          "name": "borrower",
          "type": "address"
        },
        {
          "indexed": false,
          "internalType": "address",
          "name": "collateralToken",
          "type": "address"
        },
        {
          "indexed": false,
          "internalType": "uint256",
          "name": "amount",
          "type": "uint256"
        }
      ],
      "name": "CollateralUnlocked",
      "type": "event"
    },
    {
      "anonymous": false,
      "inputs": [
        {
          "indexed": false,
          "internalType": "bytes32",
          "name": "termAuctionId",
          "type": "bytes32"
        },
        {
          "indexed": false,
          "internalType": "bytes32",
          "name": "termRepoId",
          "type": "bytes32"
        }
      ],
      "name": "CompleteAuctionPaused",
      "type": "event"
    },
    {
      "anonymous": false,
      "inputs": [
        {
          "indexed": false,
          "internalType": "bytes32",
          "name": "termAuctionId",
          "type": "bytes32"
        },
        {
          "indexed": false,
          "internalType": "bytes32",
          "name": "termRepoId",
          "type": "bytes32"
        }
      ],
      "name": "CompleteAuctionUnpaused",
      "type": "event"
    },
    {
      "anonymous": false,
      "inputs": [
        {
          "indexed": false,
          "internalType": "bytes32",
          "name": "termAuctionId",
          "type": "bytes32"
        }
      ],
      "name": "DelistTermAuction",
      "type": "event"
    },
    {
      "anonymous": false,
      "inputs": [
        {
          "indexed": false,
          "internalType": "bytes32",
          "name": "termRepoId",
          "type": "bytes32"
        }
      ],
      "name": "DelistTermRepo",
      "type": "event"
    },
    {
      "anonymous": false,
      "inputs": [
        {
          "indexed": false,
          "internalType": "bytes32",
          "name": "termRepoId",
          "type": "bytes32"
        },
        {
          "indexed": false,
          "internalType": "address",
          "name": "borrower",
          "type": "address"
        },
        {
          "indexed": false,
          "internalType": "uint256",
          "name": "amountRolled",
          "type": "uint256"
        }
      ],
      "name": "ExposureClosedOnRolloverExisting",
      "type": "event"
    },
    {
      "anonymous": false,
      "inputs": [
        {
          "indexed": false,
          "internalType": "bytes32",
          "name": "termRepoId",
          "type": "bytes32"
        },
        {
          "indexed": false,
          "internalType": "address",
          "name": "borrower",
          "type": "address"
        },
        {
          "indexed": false,
          "internalType": "uint256",
          "name": "purchasePrice",
          "type": "uint256"
        },
        {
          "indexed": false,
          "internalType": "uint256",
          "name": "repurchasePrice",
          "type": "uint256"
        },
        {
          "indexed": false,
          "internalType": "uint256",
          "name": "servicingFees",
          "type": "uint256"
        }
      ],
      "name": "ExposureOpenedOnRolloverNew",
      "type": "event"
    },
    {
      "anonymous": false,
      "inputs": [
        {
          "indexed": false,
          "internalType": "uint64",
          "name": "version",
          "type": "uint64"
        }
      ],
      "name": "Initialized",
      "type": "event"
    },
    {
      "anonymous": false,
      "inputs": [
        {
          "indexed": false,
          "internalType": "bytes32",
          "name": "orderHash",
          "type": "bytes32"
        }
      ],
      "name": "IntentCancelled",
      "type": "event"
    },
    {
      "anonymous": false,
      "inputs": [
        {
          "indexed": false,
          "internalType": "bytes32",
          "name": "orderHash",
          "type": "bytes32"
        },
        {
          "indexed": false,
          "internalType": "bytes32",
          "name": "termRepoId",
          "type": "bytes32"
        },
        {
          "indexed": false,
          "internalType": "address",
          "name": "purchaseToken",
          "type": "address"
        },
        {
          "indexed": false,
          "internalType": "address",
          "name": "maker",
          "type": "address"
        },
        {
          "indexed": false,
          "internalType": "address",
          "name": "taker",
          "type": "address"
        },
        {
          "indexed": false,
          "internalType": "address",
          "name": "makerToken",
          "type": "address"
        },
        {
          "indexed": false,
          "internalType": "address",
          "name": "takerToken",
          "type": "address"
        },
        {
          "indexed": false,
          "internalType": "uint256",
          "name": "offerRate",
          "type": "uint256"
        },
        {
          "indexed": false,
          "internalType": "uint256",
          "name": "makerTokenAmountFilled",
          "type": "uint256"
        },
        {
          "indexed": false,
          "internalType": "uint256",
          "name": "takerTokenAmountFilled",
          "type": "uint256"
        },
        {
          "indexed": false,
          "internalType": "uint256",
          "name": "proratedBorrowFee",
          "type": "uint256"
        },
        {
          "indexed": false,
          "internalType": "address",
          "name": "feeRecipient",
          "type": "address"
        },
        {
          "indexed": false,
          "internalType": "uint256",
          "name": "originalOrderAmount",
          "type": "uint256"
        },
        {
          "indexed": false,
          "internalType": "uint256",
          "name": "expiry",
          "type": "uint256"
        },
        {
          "indexed": false,
          "internalType": "uint256",
          "name": "salt",
          "type": "uint256"
        }
      ],
      "name": "IntentFilled",
      "type": "event"
    },
    {
      "anonymous": false,
      "inputs": [
        {
          "indexed": false,
          "internalType": "address",
          "name": "maker",
          "type": "address"
        },
        {
          "indexed": false,
          "internalType": "address",
          "name": "makerToken",
          "type": "address"
        },
        {
          "indexed": false,
          "internalType": "address",
          "name": "takerToken",
          "type": "address"
        },
        {
          "indexed": false,
          "internalType": "uint256",
          "name": "minSaltValue",
          "type": "uint256"
        }
      ],
      "name": "LimitOrderTokenPairMinSalt",
      "type": "event"
    },
    {
      "anonymous": false,
      "inputs": [
        {
          "indexed": false,
          "internalType": "bytes32",
          "name": "termRepoId",
          "type": "bytes32"
        },
        {
          "indexed": false,
          "internalType": "address",
          "name": "borrower",
          "type": "address"
        },
        {
          "indexed": false,
          "internalType": "address",
          "name": "liquidator",
          "type": "address"
        },
        {
          "indexed": false,
          "internalType": "uint256",
          "name": "closureAmount",
          "type": "uint256"
        },
        {
          "indexed": false,
          "internalType": "address",
          "name": "collateralToken",
          "type": "address"
        },
        {
          "indexed": false,
          "internalType": "uint256",
          "name": "amountLiquidated",
          "type": "uint256"
        },
        {
          "indexed": false,
          "internalType": "uint256",
          "name": "protocolSeizureAmount",
          "type": "uint256"
        },
        {
          "indexed": false,
          "internalType": "bool",
          "name": "defaultLiquidation",
          "type": "bool"
        }
      ],
      "name": "Liquidation",
      "type": "event"
    },
    {
      "anonymous": false,
      "inputs": [
        {
          "indexed": false,
          "internalType": "bytes32",
          "name": "termRepoId",
          "type": "bytes32"
        }
      ],
      "name": "LiquidationsPaused",
      "type": "event"
    },
    {
      "anonymous": false,
      "inputs": [
        {
          "indexed": false,
          "internalType": "bytes32",
          "name": "termRepoId",
          "type": "bytes32"
        }
      ],
      "name": "LiquidationsUnpaused",
      "type": "event"
    },
    {
      "anonymous": false,
      "inputs": [
        {
          "indexed": false,
          "internalType": "bytes32",
          "name": "termRepoId",
          "type": "bytes32"
        },
        {
          "indexed": false,
          "internalType": "address",
          "name": "authedUser",
          "type": "address"
        }
      ],
      "name": "MintExposureAccessGranted",
      "type": "event"
    },
    {
      "anonymous": false,
      "inputs": [
        {
          "indexed": false,
          "internalType": "bytes32",
          "name": "termAuctionId",
          "type": "bytes32"
        },
        {
          "indexed": false,
          "internalType": "bytes32",
          "name": "id",
          "type": "bytes32"
        },
        {
          "indexed": false,
          "internalType": "uint256",
          "name": "amount",
          "type": "uint256"
        }
      ],
      "name": "OfferAssigned",
      "type": "event"
    },
    {
      "anonymous": false,
      "inputs": [
        {
          "indexed": false,
          "internalType": "bytes32",
          "name": "offerId",
          "type": "bytes32"
        },
        {
          "indexed": false,
          "internalType": "address",
          "name": "offeror",
          "type": "address"
        },
        {
          "indexed": false,
          "internalType": "uint256",
          "name": "purchasePrice",
          "type": "uint256"
        },
        {
          "indexed": false,
          "internalType": "uint256",
          "name": "repurchasePrice",
          "type": "uint256"
        },
        {
          "indexed": false,
          "internalType": "uint256",
          "name": "repoTokensMinted",
          "type": "uint256"
        }
      ],
      "name": "OfferFulfilled",
      "type": "event"
    },
    {
      "anonymous": false,
      "inputs": [
        {
          "indexed": false,
          "internalType": "bytes32",
          "name": "termAuctionId",
          "type": "bytes32"
        },
        {
          "indexed": false,
          "internalType": "bytes32",
          "name": "id",
          "type": "bytes32"
        },
        {
          "indexed": false,
          "internalType": "address",
          "name": "offeror",
          "type": "address"
        },
        {
          "indexed": false,
          "internalType": "bytes32",
          "name": "offerPrice",
          "type": "bytes32"
        },
        {
          "indexed": false,
          "internalType": "uint256",
          "name": "amount",
          "type": "uint256"
        },
        {
          "indexed": false,
          "internalType": "address",
          "name": "token",
          "type": "address"
        },
        {
          "indexed": false,
          "internalType": "address",
          "name": "referralAddress",
          "type": "address"
        }
      ],
      "name": "OfferLocked",
      "type": "event"
    },
    {
      "anonymous": false,
      "inputs": [
        {
          "indexed": false,
          "internalType": "bytes32",
          "name": "termRepoId",
          "type": "bytes32"
        },
        {
          "indexed": false,
          "internalType": "address",
          "name": "offeror",
          "type": "address"
        },
        {
          "indexed": false,
          "internalType": "uint256",
          "name": "amount",
          "type": "uint256"
        }
      ],
      "name": "OfferLockedByServicer",
      "type": "event"
    },
    {
      "anonymous": false,
      "inputs": [
        {
          "indexed": false,
          "internalType": "bytes32",
          "name": "termAuctionId",
          "type": "bytes32"
        },
        {
          "indexed": false,
          "internalType": "bytes32",
          "name": "termRepoId",
          "type": "bytes32"
        }
      ],
      "name": "OfferLockingPaused",
      "type": "event"
    },
    {
      "anonymous": false,
      "inputs": [
        {
          "indexed": false,
          "internalType": "bytes32",
          "name": "termAuctionId",
          "type": "bytes32"
        },
        {
          "indexed": false,
          "internalType": "bytes32",
          "name": "termRepoId",
          "type": "bytes32"
        }
      ],
      "name": "OfferLockingUnpaused",
      "type": "event"
    },
    {
      "anonymous": false,
      "inputs": [
        {
          "indexed": false,
          "internalType": "bytes32",
          "name": "termAuctionId",
          "type": "bytes32"
        },
        {
          "indexed": false,
          "internalType": "bytes32",
          "name": "id",
          "type": "bytes32"
        },
        {
          "indexed": false,
          "internalType": "uint256",
          "name": "offerPrice",
          "type": "uint256"
        }
      ],
      "name": "OfferRevealed",
      "type": "event"
    },
    {
      "anonymous": false,
      "inputs": [
        {
          "indexed": false,
          "internalType": "bytes32",
          "name": "termAuctionId",
          "type": "bytes32"
        },
        {
          "indexed": false,
          "internalType": "bytes32",
          "name": "id",
          "type": "bytes32"
        }
      ],
      "name": "OfferUnlocked",
      "type": "event"
    },
    {
      "anonymous": false,
      "inputs": [
        {
          "indexed": false,
          "internalType": "bytes32",
          "name": "termRepoId",
          "type": "bytes32"
        },
        {
          "indexed": false,
          "internalType": "address",
          "name": "offeror",
          "type": "address"
        },
        {
          "indexed": false,
          "internalType": "uint256",
          "name": "amount",
          "type": "uint256"
        }
      ],
      "name": "OfferUnlockedByServicer",
      "type": "event"
    },
    {
      "anonymous": false,
      "inputs": [
        {
          "indexed": false,
          "internalType": "bytes32",
          "name": "termAuctionId",
          "type": "bytes32"
        },
        {
          "indexed": false,
          "internalType": "bytes32",
          "name": "termRepoId",
          "type": "bytes32"
        }
      ],
      "name": "OfferUnlockingPaused",
      "type": "event"
    },
    {
      "anonymous": false,
      "inputs": [
        {
          "indexed": false,
          "internalType": "bytes32",
          "name": "termAuctionId",
          "type": "bytes32"
        },
        {
          "indexed": false,
          "internalType": "bytes32",
          "name": "termRepoId",
          "type": "bytes32"
        }
      ],
      "name": "OfferUnlockingUnpaused",
      "type": "event"
    },
    {
      "anonymous": false,
      "inputs": [
        {
          "indexed": false,
          "internalType": "bytes32",
          "name": "termRepoId",
          "type": "bytes32"
        },
        {
          "indexed": false,
          "internalType": "address",
          "name": "termRepoCollateralManager",
          "type": "address"
        },
        {
          "indexed": false,
          "internalType": "address",
          "name": "termAuctionBidLocker",
          "type": "address"
        }
      ],
      "name": "PairReopeningBidLocker",
      "type": "event"
    },
    {
      "anonymous": false,
      "inputs": [
        {
          "indexed": false,
          "internalType": "bytes32",
          "name": "termRepoId",
          "type": "bytes32"
        },
        {
          "indexed": false,
          "internalType": "address",
          "name": "termRepoServicer",
          "type": "address"
        },
        {
          "indexed": false,
          "internalType": "address",
          "name": "termAuctionOfferLocker",
          "type": "address"
        },
        {
          "indexed": false,
          "internalType": "address",
          "name": "termAuction",
          "type": "address"
        }
      ],
      "name": "ReopeningOfferLockerPaired",
      "type": "event"
    },
    {
      "anonymous": false,
      "inputs": [
        {
          "indexed": false,
          "internalType": "bytes32",
          "name": "orderHash",
          "type": "bytes32"
        },
        {
          "components": [
            {
              "internalType": "address",
              "name": "repoToken",
              "type": "address"
            },
            {
              "internalType": "address",
              "name": "purchaseToken",
              "type": "address"
            },
            {
              "internalType": "address",
              "name": "maker",
              "type": "address"
            },
            {
              "internalType": "address",
              "name": "taker",
              "type": "address"
            },
            {
              "internalType": "address",
              "name": "makerToken",
              "type": "address"
            },
            {
              "internalType": "address",
              "name": "takerToken",
              "type": "address"
            },
            {
              "internalType": "uint256",
              "name": "discountRate",
              "type": "uint256"
            },
            {
              "internalType": "uint256",
              "name": "makerTokenAmountFilled",
              "type": "uint256"
            },
            {
              "internalType": "uint256",
              "name": "takerTokenAmountFilled",
              "type": "uint256"
            },
            {
              "internalType": "uint256",
              "name": "makerFee",
              "type": "uint256"
            },
            {
              "internalType": "uint256",
              "name": "takerFee",
              "type": "uint256"
            },
            {
              "internalType": "address",
              "name": "feeRecipient",
              "type": "address"
            },
            {
              "internalType": "uint256",
              "name": "originalOrderAmount",
              "type": "uint256"
            },
            {
              "internalType": "uint256",
              "name": "expiry",
              "type": "uint256"
            },
            {
              "internalType": "uint256",
              "name": "salt",
              "type": "uint256"
            }
          ],
          "indexed": false,
          "internalType": "struct ITermIntentEvents.RepoTokenSwapData",
          "name": "swapData",
          "type": "tuple"
        }
      ],
      "name": "RepoTokenSwapFilled",
      "type": "event"
    },
    {
      "anonymous": false,
      "inputs": [
        {
          "indexed": false,
          "internalType": "bytes32",
          "name": "termRepoId",
          "type": "bytes32"
        },
        {
          "indexed": false,
          "internalType": "address",
          "name": "borrower",
          "type": "address"
        },
        {
          "indexed": false,
          "internalType": "uint256",
          "name": "repurchaseAmount",
          "type": "uint256"
        }
      ],
      "name": "RepurchasePaymentSubmitted",
      "type": "event"
    },
    {
      "anonymous": false,
      "inputs": [
        {
          "indexed": true,
          "internalType": "bytes32",
          "name": "role",
          "type": "bytes32"
        },
        {
          "indexed": true,
          "internalType": "bytes32",
          "name": "previousAdminRole",
          "type": "bytes32"
        },
        {
          "indexed": true,
          "internalType": "bytes32",
          "name": "newAdminRole",
          "type": "bytes32"
        }
      ],
      "name": "RoleAdminChanged",
      "type": "event"
    },
    {
      "anonymous": false,
      "inputs": [
        {
          "indexed": true,
          "internalType": "bytes32",
          "name": "role",
          "type": "bytes32"
        },
        {
          "indexed": true,
          "internalType": "address",
          "name": "account",
          "type": "address"
        },
        {
          "indexed": true,
          "internalType": "address",
          "name": "sender",
          "type": "address"
        }
      ],
      "name": "RoleGranted",
      "type": "event"
    },
    {
      "anonymous": false,
      "inputs": [
        {
          "indexed": true,
          "internalType": "bytes32",
          "name": "role",
          "type": "bytes32"
        },
        {
          "indexed": true,
          "internalType": "address",
          "name": "account",
          "type": "address"
        },
        {
          "indexed": true,
          "internalType": "address",
          "name": "sender",
          "type": "address"
        }
      ],
      "name": "RoleRevoked",
      "type": "event"
    },
    {
      "anonymous": false,
      "inputs": [
        {
          "indexed": false,
          "internalType": "bytes32",
          "name": "termRepoId",
          "type": "bytes32"
        },
        {
          "indexed": false,
          "internalType": "address",
          "name": "borrower",
          "type": "address"
        }
      ],
      "name": "RolloverCancellation",
      "type": "event"
    },
    {
      "anonymous": false,
      "inputs": [
        {
          "indexed": false,
          "internalType": "bytes32",
          "name": "termRepoId",
          "type": "bytes32"
        },
        {
          "indexed": false,
          "internalType": "bytes32",
          "name": "rolloverTermRepoId",
          "type": "bytes32"
        },
        {
          "indexed": false,
          "internalType": "address",
          "name": "borrower",
          "type": "address"
        },
        {
          "indexed": false,
          "internalType": "address",
          "name": "rolloverAuction",
          "type": "address"
        },
        {
          "indexed": false,
          "internalType": "uint256",
          "name": "rolloverAmount",
          "type": "uint256"
        },
        {
          "indexed": false,
          "internalType": "bytes32",
          "name": "hashedBidPrice",
          "type": "bytes32"
        }
      ],
      "name": "RolloverElection",
      "type": "event"
    },
    {
      "anonymous": false,
      "inputs": [
        {
          "indexed": false,
          "internalType": "bytes32",
          "name": "termRepoId",
          "type": "bytes32"
        },
        {
          "indexed": false,
          "internalType": "address",
          "name": "borrower",
          "type": "address"
        }
      ],
      "name": "RolloverProcessed",
      "type": "event"
    },
    {
      "anonymous": false,
      "inputs": [
        {
          "indexed": false,
          "internalType": "bytes32",
          "name": "termRepoId",
          "type": "bytes32"
        },
        {
          "indexed": false,
          "internalType": "bytes32",
          "name": "rolloverTermAuctionId",
          "type": "bytes32"
        }
      ],
      "name": "RolloverTermApprovalRevoked",
      "type": "event"
    },
    {
      "anonymous": false,
      "inputs": [
        {
          "indexed": false,
          "internalType": "bytes32",
          "name": "termRepoId",
          "type": "bytes32"
        },
        {
          "indexed": false,
          "internalType": "bytes32",
          "name": "rolloverTermAuctionId",
          "type": "bytes32"
        }
      ],
      "name": "RolloverTermApproved",
      "type": "event"
    },
    {
      "anonymous": false,
      "inputs": [
        {
          "indexed": false,
          "internalType": "address",
          "name": "maker",
          "type": "address"
        },
        {
          "indexed": false,
          "internalType": "address",
          "name": "makerToken",
          "type": "address"
        },
        {
          "indexed": false,
          "internalType": "address",
          "name": "takerToken",
          "type": "address"
        },
        {
          "indexed": false,
          "internalType": "uint256",
          "name": "minSaltValue",
          "type": "uint256"
        }
      ],
      "name": "SwapOrderTokenPairMinSalt",
      "type": "event"
    },
    {
      "anonymous": false,
      "inputs": [
        {
          "indexed": false,
          "internalType": "bytes32",
          "name": "termRepoId",
          "type": "bytes32"
        },
        {
          "indexed": false,
          "internalType": "bytes32",
          "name": "termAuctionId",
          "type": "bytes32"
        },
        {
          "indexed": false,
          "internalType": "address",
          "name": "termAuctionBidLocker",
          "type": "address"
        },
        {
          "indexed": false,
          "internalType": "uint256",
          "name": "auctionStartTime",
          "type": "uint256"
        },
        {
          "indexed": false,
          "internalType": "uint256",
          "name": "revealTime",
          "type": "uint256"
        },
        {
          "indexed": false,
          "internalType": "uint256",
          "name": "maxBidPrice",
          "type": "uint256"
        },
        {
          "indexed": false,
          "internalType": "uint256",
          "name": "minimumTenderAmount",
          "type": "uint256"
        },
        {
          "indexed": false,
          "internalType": "uint256",
          "name": "dayCountFractionMantissa",
          "type": "uint256"
        }
      ],
      "name": "TermAuctionBidLockerInitialized",
      "type": "event"
    },
    {
      "anonymous": false,
      "inputs": [
        {
          "indexed": false,
          "internalType": "bytes32",
          "name": "termRepoId",
          "type": "bytes32"
        },
        {
          "indexed": false,
          "internalType": "bytes32",
          "name": "termAuctionId",
          "type": "bytes32"
        },
        {
          "indexed": false,
          "internalType": "address",
          "name": "termAuction",
          "type": "address"
        },
        {
          "indexed": false,
          "internalType": "uint256",
          "name": "auctionEndTime",
          "type": "uint256"
        },
        {
          "indexed": false,
          "internalType": "address",
          "name": "deployerWallet",
          "type": "address"
        },
        {
          "indexed": false,
          "internalType": "string",
          "name": "version",
          "type": "string"
        }
      ],
      "name": "TermAuctionInitialized",
      "type": "event"
    },
    {
      "anonymous": false,
      "inputs": [
        {
          "indexed": false,
          "internalType": "bytes32",
          "name": "termRepoId",
          "type": "bytes32"
        },
        {
          "indexed": false,
          "internalType": "bytes32",
          "name": "termAuctionId",
          "type": "bytes32"
        },
        {
          "indexed": false,
          "internalType": "address",
          "name": "termAuctionOfferLocker",
          "type": "address"
        },
        {
          "indexed": false,
          "internalType": "uint256",
          "name": "auctionStartTime",
          "type": "uint256"
        },
        {
          "indexed": false,
          "internalType": "uint256",
          "name": "revealTime",
          "type": "uint256"
        },
        {
          "indexed": false,
          "internalType": "uint256",
          "name": "maxOfferPrice",
          "type": "uint256"
        },
        {
          "indexed": false,
          "internalType": "uint256",
          "name": "minimumTenderAmount",
          "type": "uint256"
        }
      ],
      "name": "TermAuctionOfferLockerInitialized",
      "type": "event"
    },
    {
      "anonymous": false,
      "inputs": [
        {
          "indexed": false,
          "internalType": "address",
          "name": "proxy",
          "type": "address"
        },
        {
          "indexed": false,
          "internalType": "address",
          "name": "implementation",
          "type": "address"
        }
      ],
      "name": "TermContractUpgraded",
      "type": "event"
    },
    {
      "anonymous": false,
      "inputs": [
        {
          "indexed": false,
          "internalType": "bytes32",
          "name": "termRepoId",
          "type": "bytes32"
        },
        {
          "indexed": false,
          "internalType": "address",
          "name": "termRepoCollateralManager",
          "type": "address"
        },
        {
          "indexed": false,
          "internalType": "address[]",
          "name": "collateralTokens",
          "type": "address[]"
        },
        {
          "indexed": false,
          "internalType": "uint256[]",
          "name": "initialCollateralRatios",
          "type": "uint256[]"
        },
        {
          "indexed": false,
          "internalType": "uint256[]",
          "name": "maintenanceCollateralRatios",
          "type": "uint256[]"
        },
        {
          "indexed": false,
          "internalType": "uint256[]",
          "name": "liquidatedDamagesSchedule",
          "type": "uint256[]"
        }
      ],
      "name": "TermRepoCollateralManagerInitialized",
      "type": "event"
    },
    {
      "anonymous": false,
      "inputs": [
        {
          "indexed": false,
          "internalType": "bytes32",
          "name": "termRepoId",
          "type": "bytes32"
        },
        {
          "indexed": false,
          "internalType": "address",
          "name": "termRepoLocker",
          "type": "address"
        }
      ],
      "name": "TermRepoLockerInitialized",
      "type": "event"
    },
    {
      "anonymous": false,
      "inputs": [
        {
          "indexed": false,
          "internalType": "bytes32",
          "name": "termRepoId",
          "type": "bytes32"
        }
      ],
      "name": "TermRepoLockerTransfersPaused",
      "type": "event"
    },
    {
      "anonymous": false,
      "inputs": [
        {
          "indexed": false,
          "internalType": "bytes32",
          "name": "termRepoId",
          "type": "bytes32"
        }
      ],
      "name": "TermRepoLockerTransfersUnpaused",
      "type": "event"
    },
    {
      "anonymous": false,
      "inputs": [
        {
          "indexed": false,
          "internalType": "bytes32",
          "name": "termRepoId",
          "type": "bytes32"
        },
        {
          "indexed": false,
          "internalType": "address",
          "name": "rolloverManager",
          "type": "address"
        }
      ],
      "name": "TermRepoRolloverManagerInitialized",
      "type": "event"
    },
    {
      "anonymous": false,
      "inputs": [
        {
          "indexed": false,
          "internalType": "bytes32",
          "name": "termRepoId",
          "type": "bytes32"
        },
        {
          "indexed": false,
          "internalType": "address",
          "name": "termRepoServicer",
          "type": "address"
        },
        {
          "indexed": false,
          "internalType": "address",
          "name": "purchaseToken",
          "type": "address"
        },
        {
          "indexed": false,
          "internalType": "uint256",
          "name": "maturityTimestamp",
          "type": "uint256"
        },
        {
          "indexed": false,
          "internalType": "uint256",
          "name": "endOfRepurchaseWindow",
          "type": "uint256"
        },
        {
          "indexed": false,
          "internalType": "uint256",
          "name": "redemptionTimestamp",
          "type": "uint256"
        },
        {
          "indexed": false,
          "internalType": "uint256",
          "name": "servicingFee",
          "type": "uint256"
        },
        {
          "indexed": false,
          "internalType": "address",
          "name": "deployerWallet",
          "type": "address"
        },
        {
          "indexed": false,
          "internalType": "string",
          "name": "version",
          "type": "string"
        }
      ],
      "name": "TermRepoServicerInitialized",
      "type": "event"
    },
    {
      "anonymous": false,
      "inputs": [
        {
          "indexed": false,
          "internalType": "bytes32",
          "name": "termRepoId",
          "type": "bytes32"
        }
      ],
      "name": "TermRepoTokenBurningPaused",
      "type": "event"
    },
    {
      "anonymous": false,
      "inputs": [
        {
          "indexed": false,
          "internalType": "bytes32",
          "name": "termRepoId",
          "type": "bytes32"
        }
      ],
      "name": "TermRepoTokenBurningUnpaused",
      "type": "event"
    },
    {
      "anonymous": false,
      "inputs": [
        {
          "indexed": false,
          "internalType": "bytes32",
          "name": "termRepoId",
          "type": "bytes32"
        },
        {
          "indexed": false,
          "internalType": "address",
          "name": "termRepoToken",
          "type": "address"
        },
        {
          "indexed": false,
          "internalType": "uint256",
          "name": "redemptionRatio",
          "type": "uint256"
        }
      ],
      "name": "TermRepoTokenInitialized",
      "type": "event"
    },
    {
      "anonymous": false,
      "inputs": [
        {
          "indexed": false,
          "internalType": "bytes32",
          "name": "termRepoId",
          "type": "bytes32"
        },
        {
          "indexed": false,
          "internalType": "address",
          "name": "minter",
          "type": "address"
        },
        {
          "indexed": false,
          "internalType": "uint256",
          "name": "netTokensReceived",
          "type": "uint256"
        },
        {
          "indexed": false,
          "internalType": "uint256",
          "name": "servicingFeeTokens",
          "type": "uint256"
        },
        {
          "indexed": false,
          "internalType": "uint256",
          "name": "repurchasePrice",
          "type": "uint256"
        }
      ],
      "name": "TermRepoTokenMint",
      "type": "event"
    },
    {
      "anonymous": false,
      "inputs": [
        {
          "indexed": false,
          "internalType": "bytes32",
          "name": "termRepoId",
          "type": "bytes32"
        }
      ],
      "name": "TermRepoTokenMintingPaused",
      "type": "event"
    },
    {
      "anonymous": false,
      "inputs": [
        {
          "indexed": false,
          "internalType": "bytes32",
          "name": "termRepoId",
          "type": "bytes32"
        }
      ],
      "name": "TermRepoTokenMintingUnpaused",
      "type": "event"
    },
    {
      "anonymous": false,
      "inputs": [
        {
          "indexed": false,
          "internalType": "bytes32",
          "name": "termRepoId",
          "type": "bytes32"
        },
        {
          "indexed": false,
          "internalType": "address",
          "name": "redeemer",
          "type": "address"
        },
        {
          "indexed": false,
          "internalType": "uint256",
          "name": "redemptionAmount",
          "type": "uint256"
        },
        {
          "indexed": false,
          "internalType": "uint256",
          "name": "redemptionHaircut",
          "type": "uint256"
        }
      ],
      "name": "TermRepoTokensRedeemed",
      "type": "event"
    },
    {
      "anonymous": false,
      "inputs": [
        {
          "indexed": true,
          "internalType": "address",
          "name": "implementation",
          "type": "address"
        }
      ],
      "name": "Upgraded",
      "type": "event"
    },
    {
      "inputs": [],
      "name": "ADMIN_ROLE",
      "outputs": [
        {
          "internalType": "bytes32",
          "name": "",
          "type": "bytes32"
        }
      ],
      "stateMutability": "view",
      "type": "function"
    },
    {
      "inputs": [],
      "name": "DEFAULT_ADMIN_ROLE",
      "outputs": [
        {
          "internalType": "bytes32",
          "name": "",
          "type": "bytes32"
        }
      ],
      "stateMutability": "view",
      "type": "function"
    },
    {
      "inputs": [],
      "name": "DEVOPS_ROLE",
      "outputs": [
        {
          "internalType": "bytes32",
          "name": "",
          "type": "bytes32"
        }
      ],
      "stateMutability": "view",
      "type": "function"
    },
    {
      "inputs": [],
      "name": "INITIALIZER_ROLE",
      "outputs": [
        {
          "internalType": "bytes32",
          "name": "",
          "type": "bytes32"
        }
      ],
      "stateMutability": "view",
      "type": "function"
    },
    {
      "inputs": [],
      "name": "TERM_CONTRACT",
      "outputs": [
        {
          "internalType": "bytes32",
          "name": "",
          "type": "bytes32"
        }
      ],
      "stateMutability": "view",
      "type": "function"
    },
    {
      "inputs": [],
      "name": "TERM_DELISTER",
      "outputs": [
        {
          "internalType": "bytes32",
          "name": "",
          "type": "bytes32"
        }
      ],
      "stateMutability": "view",
      "type": "function"
    },
    {
      "inputs": [],
      "name": "UPGRADE_INTERFACE_VERSION",
      "outputs": [
        {
          "internalType": "string",
          "name": "",
          "type": "string"
        }
      ],
      "stateMutability": "view",
      "type": "function"
    },
    {
      "inputs": [
        {
          "internalType": "bytes32",
          "name": "termAuctionId",
          "type": "bytes32"
        },
        {
          "internalType": "bool",
          "name": "nonViableAuction",
          "type": "bool"
        },
        {
          "internalType": "bool",
          "name": "auctionCancelledforWithdrawal",
          "type": "bool"
        }
      ],
      "name": "emitAuctionCancelled",
      "outputs": [],
      "stateMutability": "nonpayable",
      "type": "function"
    },
    {
      "inputs": [
        {
          "internalType": "bytes32",
          "name": "termAuctionId",
          "type": "bytes32"
        },
        {
          "internalType": "uint256",
          "name": "timestamp",
          "type": "uint256"
        },
        {
          "internalType": "uint256",
          "name": "blockNumber",
          "type": "uint256"
        },
        {
          "internalType": "uint256",
          "name": "totalAssignedBids",
          "type": "uint256"
        },
        {
          "internalType": "uint256",
          "name": "totalAssignedOffers",
          "type": "uint256"
        },
        {
          "internalType": "uint256",
          "name": "clearingPrice",
          "type": "uint256"
        }
      ],
      "name": "emitAuctionCompleted",
      "outputs": [],
      "stateMutability": "nonpayable",
      "type": "function"
    },
    {
      "inputs": [
        {
          "internalType": "bytes32",
          "name": "termAuctionId",
          "type": "bytes32"
        },
        {
          "internalType": "bytes32",
          "name": "id",
          "type": "bytes32"
        },
        {
          "internalType": "uint256",
          "name": "amount",
          "type": "uint256"
        }
      ],
      "name": "emitBidAssigned",
      "outputs": [],
      "stateMutability": "nonpayable",
      "type": "function"
    },
    {
      "inputs": [
        {
          "internalType": "bytes32",
          "name": "termRepoId",
          "type": "bytes32"
        },
        {
          "internalType": "address",
          "name": "bidder",
          "type": "address"
        },
        {
          "internalType": "uint256",
          "name": "purchasePrice",
          "type": "uint256"
        },
        {
          "internalType": "uint256",
          "name": "repurchasePrice",
          "type": "uint256"
        },
        {
          "internalType": "uint256",
          "name": "servicingFees",
          "type": "uint256"
        }
      ],
      "name": "emitBidFulfilled",
      "outputs": [],
      "stateMutability": "nonpayable",
      "type": "function"
    },
    {
      "inputs": [
        {
          "internalType": "bytes32",
          "name": "termAuctionId",
          "type": "bytes32"
        },
        {
          "internalType": "bytes32",
          "name": "id",
          "type": "bytes32"
        }
      ],
      "name": "emitBidInShortfall",
      "outputs": [],
      "stateMutability": "nonpayable",
      "type": "function"
    },
    {
      "inputs": [
        {
          "internalType": "bytes32",
          "name": "termAuctionId",
          "type": "bytes32"
        },
        {
          "components": [
            {
              "internalType": "bytes32",
              "name": "id",
              "type": "bytes32"
            },
            {
              "internalType": "address",
              "name": "bidder",
              "type": "address"
            },
            {
              "internalType": "bytes32",
              "name": "bidPriceHash",
              "type": "bytes32"
            },
            {
              "internalType": "uint256",
              "name": "bidPriceRevealed",
              "type": "uint256"
            },
            {
              "internalType": "uint256",
              "name": "amount",
              "type": "uint256"
            },
            {
              "internalType": "uint256[]",
              "name": "collateralAmounts",
              "type": "uint256[]"
            },
            {
              "internalType": "address",
              "name": "purchaseToken",
              "type": "address"
            },
            {
              "internalType": "address[]",
              "name": "collateralTokens",
              "type": "address[]"
            },
            {
              "internalType": "bool",
              "name": "isRollover",
              "type": "bool"
            },
            {
              "internalType": "address",
              "name": "rolloverPairOffTermRepoServicer",
              "type": "address"
            },
            {
              "internalType": "bool",
              "name": "isRevealed",
              "type": "bool"
            }
          ],
          "internalType": "struct TermAuctionBid",
          "name": "bid",
          "type": "tuple"
        },
        {
          "internalType": "address",
          "name": "referralAddress",
          "type": "address"
        }
      ],
      "name": "emitBidLocked",
      "outputs": [],
      "stateMutability": "nonpayable",
      "type": "function"
    },
    {
      "inputs": [
        {
          "internalType": "bytes32",
          "name": "termAuctionId",
          "type": "bytes32"
        },
        {
          "internalType": "bytes32",
          "name": "termRepoId",
          "type": "bytes32"
        }
      ],
      "name": "emitBidLockingPaused",
      "outputs": [],
      "stateMutability": "nonpayable",
      "type": "function"
    },
    {
      "inputs": [
        {
          "internalType": "bytes32",
          "name": "termAuctionId",
          "type": "bytes32"
        },
        {
          "internalType": "bytes32",
          "name": "termRepoId",
          "type": "bytes32"
        }
      ],
      "name": "emitBidLockingUnpaused",
      "outputs": [],
      "stateMutability": "nonpayable",
      "type": "function"
    },
    {
      "inputs": [
        {
          "internalType": "bytes32",
          "name": "termAuctionId",
          "type": "bytes32"
        },
        {
          "internalType": "bytes32",
          "name": "id",
          "type": "bytes32"
        },
        {
          "internalType": "uint256",
          "name": "bidPrice",
          "type": "uint256"
        }
      ],
      "name": "emitBidRevealed",
      "outputs": [],
      "stateMutability": "nonpayable",
      "type": "function"
    },
    {
      "inputs": [
        {
          "internalType": "bytes32",
          "name": "termAuctionId",
          "type": "bytes32"
        },
        {
          "internalType": "bytes32",
          "name": "id",
          "type": "bytes32"
        }
      ],
      "name": "emitBidUnlocked",
      "outputs": [],
      "stateMutability": "nonpayable",
      "type": "function"
    },
    {
      "inputs": [
        {
          "internalType": "bytes32",
          "name": "termAuctionId",
          "type": "bytes32"
        },
        {
          "internalType": "bytes32",
          "name": "termRepoId",
          "type": "bytes32"
        }
      ],
      "name": "emitBidUnlockingPaused",
      "outputs": [],
      "stateMutability": "nonpayable",
      "type": "function"
    },
    {
      "inputs": [
        {
          "internalType": "bytes32",
          "name": "termAuctionId",
          "type": "bytes32"
        },
        {
          "internalType": "bytes32",
          "name": "termRepoId",
          "type": "bytes32"
        }
      ],
      "name": "emitBidUnlockingUnpaused",
      "outputs": [],
      "stateMutability": "nonpayable",
      "type": "function"
    },
    {
      "inputs": [
        {
          "internalType": "bytes32",
          "name": "termRepoId",
          "type": "bytes32"
        },
        {
          "internalType": "address",
          "name": "borrower",
          "type": "address"
        },
        {
          "internalType": "uint256",
          "name": "closeAmount",
          "type": "uint256"
        }
      ],
      "name": "emitBurnCollapseExposure",
      "outputs": [],
      "stateMutability": "nonpayable",
      "type": "function"
    },
    {
      "inputs": [
        {
          "internalType": "bytes32",
          "name": "termRepoId",
          "type": "bytes32"
        },
        {
          "internalType": "address",
          "name": "borrower",
          "type": "address"
        },
        {
          "internalType": "address",
          "name": "collateralToken",
          "type": "address"
        },
        {
          "internalType": "uint256",
          "name": "amount",
          "type": "uint256"
        }
      ],
      "name": "emitCollateralLocked",
      "outputs": [],
      "stateMutability": "nonpayable",
      "type": "function"
    },
    {
      "inputs": [
        {
          "internalType": "bytes32",
          "name": "termRepoId",
          "type": "bytes32"
        },
        {
          "internalType": "address",
          "name": "borrower",
          "type": "address"
        },
        {
          "internalType": "address",
          "name": "collateralToken",
          "type": "address"
        },
        {
          "internalType": "uint256",
          "name": "amount",
          "type": "uint256"
        }
      ],
      "name": "emitCollateralUnlocked",
      "outputs": [],
      "stateMutability": "nonpayable",
      "type": "function"
    },
    {
      "inputs": [
        {
          "internalType": "bytes32",
          "name": "termAuctionId",
          "type": "bytes32"
        },
        {
          "internalType": "bytes32",
          "name": "termRepoId",
          "type": "bytes32"
        }
      ],
      "name": "emitCompleteAuctionPaused",
      "outputs": [],
      "stateMutability": "nonpayable",
      "type": "function"
    },
    {
      "inputs": [
        {
          "internalType": "bytes32",
          "name": "termAuctionId",
          "type": "bytes32"
        },
        {
          "internalType": "bytes32",
          "name": "termRepoId",
          "type": "bytes32"
        }
      ],
      "name": "emitCompleteAuctionUnpaused",
      "outputs": [],
      "stateMutability": "nonpayable",
      "type": "function"
    },
    {
      "inputs": [
        {
          "internalType": "bytes32",
          "name": "termAuctionId",
          "type": "bytes32"
        }
      ],
      "name": "emitDelistTermAuction",
      "outputs": [],
      "stateMutability": "nonpayable",
      "type": "function"
    },
    {
      "inputs": [
        {
          "internalType": "bytes32",
          "name": "termRepoId",
          "type": "bytes32"
        }
      ],
      "name": "emitDelistTermRepo",
      "outputs": [],
      "stateMutability": "nonpayable",
      "type": "function"
    },
    {
      "inputs": [
        {
          "internalType": "bytes32",
          "name": "termRepoId",
          "type": "bytes32"
        },
        {
          "internalType": "address",
          "name": "borrower",
          "type": "address"
        },
        {
          "internalType": "uint256",
          "name": "amountRolled",
          "type": "uint256"
        }
      ],
      "name": "emitExposureClosedOnRolloverExisting",
      "outputs": [],
      "stateMutability": "nonpayable",
      "type": "function"
    },
    {
      "inputs": [
        {
          "internalType": "bytes32",
          "name": "termRepoId",
          "type": "bytes32"
        },
        {
          "internalType": "address",
          "name": "borrower",
          "type": "address"
        },
        {
          "internalType": "uint256",
          "name": "purchasePrice",
          "type": "uint256"
        },
        {
          "internalType": "uint256",
          "name": "repurchasePrice",
          "type": "uint256"
        },
        {
          "internalType": "uint256",
          "name": "servicingFees",
          "type": "uint256"
        }
      ],
      "name": "emitExposureOpenedOnRolloverNew",
      "outputs": [],
      "stateMutability": "nonpayable",
      "type": "function"
    },
    {
      "inputs": [
        {
          "internalType": "bytes32",
          "name": "orderHash",
          "type": "bytes32"
        }
      ],
      "name": "emitIntentCancelled",
      "outputs": [],
      "stateMutability": "nonpayable",
      "type": "function"
    },
    {
      "inputs": [
        {
          "internalType": "bytes32",
          "name": "orderHash",
          "type": "bytes32"
        },
        {
          "internalType": "bytes32",
          "name": "termRepoId",
          "type": "bytes32"
        },
        {
          "internalType": "address",
          "name": "purchaseToken",
          "type": "address"
        },
        {
          "internalType": "address",
          "name": "maker",
          "type": "address"
        },
        {
          "internalType": "address",
          "name": "taker",
          "type": "address"
        },
        {
          "internalType": "address",
          "name": "makerToken",
          "type": "address"
        },
        {
          "internalType": "address",
          "name": "takerToken",
          "type": "address"
        },
        {
          "internalType": "uint256",
          "name": "offerRate",
          "type": "uint256"
        },
        {
          "internalType": "uint256",
          "name": "makerTokenAmountFilled",
          "type": "uint256"
        },
        {
          "internalType": "uint256",
          "name": "takerTokenAmountFilled",
          "type": "uint256"
        },
        {
          "internalType": "uint256",
          "name": "proratedBorrowFee",
          "type": "uint256"
        },
        {
          "internalType": "address",
          "name": "feeRecipient",
          "type": "address"
        },
        {
          "internalType": "uint256",
          "name": "originalOrderAmount",
          "type": "uint256"
        },
        {
          "internalType": "uint256",
          "name": "expiry",
          "type": "uint256"
        },
        {
          "internalType": "uint256",
          "name": "salt",
          "type": "uint256"
        }
      ],
      "name": "emitIntentFilled",
      "outputs": [],
      "stateMutability": "nonpayable",
      "type": "function"
    },
    {
      "inputs": [
        {
          "internalType": "address",
          "name": "maker",
          "type": "address"
        },
        {
          "internalType": "address",
          "name": "makerToken",
          "type": "address"
        },
        {
          "internalType": "address",
          "name": "takerToken",
          "type": "address"
        },
        {
          "internalType": "uint256",
          "name": "minSaltValue",
          "type": "uint256"
        }
      ],
      "name": "emitLimitOrderTokenPairMinSaltValue",
      "outputs": [],
      "stateMutability": "nonpayable",
      "type": "function"
    },
    {
      "inputs": [
        {
          "internalType": "bytes32",
          "name": "termRepoId",
          "type": "bytes32"
        },
        {
          "internalType": "address",
          "name": "borrower",
          "type": "address"
        },
        {
          "internalType": "address",
          "name": "liquidator",
          "type": "address"
        },
        {
          "internalType": "uint256",
          "name": "closureAmount",
          "type": "uint256"
        },
        {
          "internalType": "address",
          "name": "collateralToken",
          "type": "address"
        },
        {
          "internalType": "uint256",
          "name": "amountLiquidated",
          "type": "uint256"
        },
        {
          "internalType": "uint256",
          "name": "protocolSeizureAmount",
          "type": "uint256"
        },
        {
          "internalType": "bool",
          "name": "defaultLiquidation",
          "type": "bool"
        }
      ],
      "name": "emitLiquidation",
      "outputs": [],
      "stateMutability": "nonpayable",
      "type": "function"
    },
    {
      "inputs": [
        {
          "internalType": "bytes32",
          "name": "termRepoId",
          "type": "bytes32"
        }
      ],
      "name": "emitLiquidationPaused",
      "outputs": [],
      "stateMutability": "nonpayable",
      "type": "function"
    },
    {
      "inputs": [
        {
          "internalType": "bytes32",
          "name": "termRepoId",
          "type": "bytes32"
        }
      ],
      "name": "emitLiquidationUnpaused",
      "outputs": [],
      "stateMutability": "nonpayable",
      "type": "function"
    },
    {
      "inputs": [
        {
          "internalType": "bytes32",
          "name": "termRepoId",
          "type": "bytes32"
        },
        {
          "internalType": "address",
          "name": "minter",
          "type": "address"
        },
        {
          "internalType": "uint256",
          "name": "netTokensReceived",
          "type": "uint256"
        },
        {
          "internalType": "uint256",
          "name": "servicingFeeTokens",
          "type": "uint256"
        },
        {
          "internalType": "uint256",
          "name": "repurchasePrice",
          "type": "uint256"
        }
      ],
      "name": "emitMintExposure",
      "outputs": [],
      "stateMutability": "nonpayable",
      "type": "function"
    },
    {
      "inputs": [
        {
          "internalType": "bytes32",
          "name": "termRepoId",
          "type": "bytes32"
        },
        {
          "internalType": "address",
          "name": "authedUser",
          "type": "address"
        }
      ],
      "name": "emitMintExposureAccessGranted",
      "outputs": [],
      "stateMutability": "nonpayable",
      "type": "function"
    },
    {
      "inputs": [
        {
          "internalType": "bytes32",
          "name": "termAuctionId",
          "type": "bytes32"
        },
        {
          "internalType": "bytes32",
          "name": "id",
          "type": "bytes32"
        },
        {
          "internalType": "uint256",
          "name": "amount",
          "type": "uint256"
        }
      ],
      "name": "emitOfferAssigned",
      "outputs": [],
      "stateMutability": "nonpayable",
      "type": "function"
    },
    {
      "inputs": [
        {
          "internalType": "bytes32",
          "name": "offerId",
          "type": "bytes32"
        },
        {
          "internalType": "address",
          "name": "offeror",
          "type": "address"
        },
        {
          "internalType": "uint256",
          "name": "purchasePrice",
          "type": "uint256"
        },
        {
          "internalType": "uint256",
          "name": "repurchasePrice",
          "type": "uint256"
        },
        {
          "internalType": "uint256",
          "name": "repoTokensMinted",
          "type": "uint256"
        }
      ],
      "name": "emitOfferFulfilled",
      "outputs": [],
      "stateMutability": "nonpayable",
      "type": "function"
    },
    {
      "inputs": [
        {
          "internalType": "bytes32",
          "name": "termAuctionId",
          "type": "bytes32"
        },
        {
          "internalType": "bytes32",
          "name": "id",
          "type": "bytes32"
        },
        {
          "internalType": "address",
          "name": "offeror",
          "type": "address"
        },
        {
          "internalType": "bytes32",
          "name": "offerPrice",
          "type": "bytes32"
        },
        {
          "internalType": "uint256",
          "name": "amount",
          "type": "uint256"
        },
        {
          "internalType": "address",
          "name": "purchaseToken",
          "type": "address"
        },
        {
          "internalType": "address",
          "name": "referralAddress",
          "type": "address"
        }
      ],
      "name": "emitOfferLocked",
      "outputs": [],
      "stateMutability": "nonpayable",
      "type": "function"
    },
    {
      "inputs": [
        {
          "internalType": "bytes32",
          "name": "termRepoId",
          "type": "bytes32"
        },
        {
          "internalType": "address",
          "name": "offeror",
          "type": "address"
        },
        {
          "internalType": "uint256",
          "name": "amount",
          "type": "uint256"
        }
      ],
      "name": "emitOfferLockedByServicer",
      "outputs": [],
      "stateMutability": "nonpayable",
      "type": "function"
    },
    {
      "inputs": [
        {
          "internalType": "bytes32",
          "name": "termAuctionId",
          "type": "bytes32"
        },
        {
          "internalType": "bytes32",
          "name": "termRepoId",
          "type": "bytes32"
        }
      ],
      "name": "emitOfferLockingPaused",
      "outputs": [],
      "stateMutability": "nonpayable",
      "type": "function"
    },
    {
      "inputs": [
        {
          "internalType": "bytes32",
          "name": "termAuctionId",
          "type": "bytes32"
        },
        {
          "internalType": "bytes32",
          "name": "termRepoId",
          "type": "bytes32"
        }
      ],
      "name": "emitOfferLockingUnpaused",
      "outputs": [],
      "stateMutability": "nonpayable",
      "type": "function"
    },
    {
      "inputs": [
        {
          "internalType": "bytes32",
          "name": "termAuctionId",
          "type": "bytes32"
        },
        {
          "internalType": "bytes32",
          "name": "id",
          "type": "bytes32"
        },
        {
          "internalType": "uint256",
          "name": "offerPrice",
          "type": "uint256"
        }
      ],
      "name": "emitOfferRevealed",
      "outputs": [],
      "stateMutability": "nonpayable",
      "type": "function"
    },
    {
      "inputs": [
        {
          "internalType": "bytes32",
          "name": "termAuctionId",
          "type": "bytes32"
        },
        {
          "internalType": "bytes32",
          "name": "id",
          "type": "bytes32"
        }
      ],
      "name": "emitOfferUnlocked",
      "outputs": [],
      "stateMutability": "nonpayable",
      "type": "function"
    },
    {
      "inputs": [
        {
          "internalType": "bytes32",
          "name": "termRepoId",
          "type": "bytes32"
        },
        {
          "internalType": "address",
          "name": "offeror",
          "type": "address"
        },
        {
          "internalType": "uint256",
          "name": "amount",
          "type": "uint256"
        }
      ],
      "name": "emitOfferUnlockedByServicer",
      "outputs": [],
      "stateMutability": "nonpayable",
      "type": "function"
    },
    {
      "inputs": [
        {
          "internalType": "bytes32",
          "name": "termAuctionId",
          "type": "bytes32"
        },
        {
          "internalType": "bytes32",
          "name": "termRepoId",
          "type": "bytes32"
        }
      ],
      "name": "emitOfferUnlockingPaused",
      "outputs": [],
      "stateMutability": "nonpayable",
      "type": "function"
    },
    {
      "inputs": [
        {
          "internalType": "bytes32",
          "name": "termAuctionId",
          "type": "bytes32"
        },
        {
          "internalType": "bytes32",
          "name": "termRepoId",
          "type": "bytes32"
        }
      ],
      "name": "emitOfferUnlockingUnpaused",
      "outputs": [],
      "stateMutability": "nonpayable",
      "type": "function"
    },
    {
      "inputs": [
        {
          "internalType": "bytes32",
          "name": "termRepoId",
          "type": "bytes32"
        },
        {
          "internalType": "address",
          "name": "termRepoCollateralManager",
          "type": "address"
        },
        {
          "internalType": "address",
          "name": "termAuctionBidLocker",
          "type": "address"
        }
      ],
      "name": "emitPairReopeningBidLocker",
      "outputs": [],
      "stateMutability": "nonpayable",
      "type": "function"
    },
    {
      "inputs": [
        {
          "internalType": "bytes32",
          "name": "termRepoId",
          "type": "bytes32"
        },
        {
          "internalType": "address",
          "name": "termRepoServicer",
          "type": "address"
        },
        {
          "internalType": "address",
          "name": "termAuctionOfferLocker",
          "type": "address"
        },
        {
          "internalType": "address",
          "name": "termAuction",
          "type": "address"
        }
      ],
      "name": "emitReopeningOfferLockerPaired",
      "outputs": [],
      "stateMutability": "nonpayable",
      "type": "function"
    },
    {
      "inputs": [
        {
          "internalType": "bytes32",
          "name": "orderHash",
          "type": "bytes32"
        },
        {
          "components": [
            {
              "internalType": "address",
              "name": "repoToken",
              "type": "address"
            },
            {
              "internalType": "address",
              "name": "purchaseToken",
              "type": "address"
            },
            {
              "internalType": "address",
              "name": "maker",
              "type": "address"
            },
            {
              "internalType": "address",
              "name": "taker",
              "type": "address"
            },
            {
              "internalType": "address",
              "name": "makerToken",
              "type": "address"
            },
            {
              "internalType": "address",
              "name": "takerToken",
              "type": "address"
            },
            {
              "internalType": "uint256",
              "name": "discountRate",
              "type": "uint256"
            },
            {
              "internalType": "uint256",
              "name": "makerTokenAmountFilled",
              "type": "uint256"
            },
            {
              "internalType": "uint256",
              "name": "takerTokenAmountFilled",
              "type": "uint256"
            },
            {
              "internalType": "uint256",
              "name": "makerFee",
              "type": "uint256"
            },
            {
              "internalType": "uint256",
              "name": "takerFee",
              "type": "uint256"
            },
            {
              "internalType": "address",
              "name": "feeRecipient",
              "type": "address"
            },
            {
              "internalType": "uint256",
              "name": "originalOrderAmount",
              "type": "uint256"
            },
            {
              "internalType": "uint256",
              "name": "expiry",
              "type": "uint256"
            },
            {
              "internalType": "uint256",
              "name": "salt",
              "type": "uint256"
            }
          ],
          "internalType": "struct ITermIntentEvents.RepoTokenSwapData",
          "name": "swapData",
          "type": "tuple"
        }
      ],
      "name": "emitRepoTokenSwapFilled",
      "outputs": [],
      "stateMutability": "nonpayable",
      "type": "function"
    },
    {
      "inputs": [
        {
          "internalType": "bytes32",
          "name": "termRepoId",
          "type": "bytes32"
        },
        {
          "internalType": "address",
          "name": "borrower",
          "type": "address"
        },
        {
          "internalType": "uint256",
          "name": "amount",
          "type": "uint256"
        }
      ],
      "name": "emitRepurchasePaymentSubmitted",
      "outputs": [],
      "stateMutability": "nonpayable",
      "type": "function"
    },
    {
      "inputs": [
        {
          "internalType": "bytes32",
          "name": "termRepoId",
          "type": "bytes32"
        },
        {
          "internalType": "address",
          "name": "borrower",
          "type": "address"
        }
      ],
      "name": "emitRolloverCancellation",
      "outputs": [],
      "stateMutability": "nonpayable",
      "type": "function"
    },
    {
      "inputs": [
        {
          "internalType": "bytes32",
          "name": "termRepoId",
          "type": "bytes32"
        },
        {
          "internalType": "bytes32",
          "name": "rolloverTermRepoId",
          "type": "bytes32"
        },
        {
          "internalType": "address",
          "name": "borrower",
          "type": "address"
        },
        {
          "internalType": "address",
          "name": "rolloverAuction",
          "type": "address"
        },
        {
          "internalType": "uint256",
          "name": "rolloverAmount",
          "type": "uint256"
        },
        {
          "internalType": "bytes32",
          "name": "hashedBidPrice",
          "type": "bytes32"
        }
      ],
      "name": "emitRolloverElection",
      "outputs": [],
      "stateMutability": "nonpayable",
      "type": "function"
    },
    {
      "inputs": [
        {
          "internalType": "bytes32",
          "name": "termRepoId",
          "type": "bytes32"
        },
        {
          "internalType": "address",
          "name": "borrower",
          "type": "address"
        }
      ],
      "name": "emitRolloverProcessed",
      "outputs": [],
      "stateMutability": "nonpayable",
      "type": "function"
    },
    {
      "inputs": [
        {
          "internalType": "bytes32",
          "name": "termRepoId",
          "type": "bytes32"
        },
        {
          "internalType": "bytes32",
          "name": "rolloverTermAuctionId",
          "type": "bytes32"
        }
      ],
      "name": "emitRolloverTermApprovalRevoked",
      "outputs": [],
      "stateMutability": "nonpayable",
      "type": "function"
    },
    {
      "inputs": [
        {
          "internalType": "bytes32",
          "name": "termRepoId",
          "type": "bytes32"
        },
        {
          "internalType": "bytes32",
          "name": "rolloverTermAuctionId",
          "type": "bytes32"
        }
      ],
      "name": "emitRolloverTermApproved",
      "outputs": [],
      "stateMutability": "nonpayable",
      "type": "function"
    },
    {
      "inputs": [
        {
          "internalType": "address",
          "name": "maker",
          "type": "address"
        },
        {
          "internalType": "address",
          "name": "makerToken",
          "type": "address"
        },
        {
          "internalType": "address",
          "name": "takerToken",
          "type": "address"
        },
        {
          "internalType": "uint256",
          "name": "minSaltValue",
          "type": "uint256"
        }
      ],
      "name": "emitSwapOrderTokenPairMinSaltValue",
      "outputs": [],
      "stateMutability": "nonpayable",
      "type": "function"
    },
    {
      "inputs": [
        {
          "internalType": "bytes32",
          "name": "termRepoId",
          "type": "bytes32"
        },
        {
          "internalType": "bytes32",
          "name": "termAuctionId",
          "type": "bytes32"
        },
        {
          "internalType": "address",
          "name": "termAuctionBidLocker",
          "type": "address"
        },
        {
          "internalType": "uint256",
          "name": "auctionStartTime",
          "type": "uint256"
        },
        {
          "internalType": "uint256",
          "name": "revealTime",
          "type": "uint256"
        },
        {
          "internalType": "uint256",
          "name": "maxBidPrice",
          "type": "uint256"
        },
        {
          "internalType": "uint256",
          "name": "minimumTenderAmount",
          "type": "uint256"
        },
        {
          "internalType": "uint256",
          "name": "dayCountFractionMantissa",
          "type": "uint256"
        }
      ],
      "name": "emitTermAuctionBidLockerInitialized",
      "outputs": [],
      "stateMutability": "nonpayable",
      "type": "function"
    },
    {
      "inputs": [
        {
          "internalType": "bytes32",
          "name": "termRepoId",
          "type": "bytes32"
        },
        {
          "internalType": "bytes32",
          "name": "termAuctionId",
          "type": "bytes32"
        },
        {
          "internalType": "address",
          "name": "termAuction",
          "type": "address"
        },
        {
          "internalType": "uint256",
          "name": "auctionEndTime",
          "type": "uint256"
        },
        {
          "internalType": "address",
          "name": "deployerWallet",
          "type": "address"
        },
        {
          "internalType": "string",
          "name": "version",
          "type": "string"
        }
      ],
      "name": "emitTermAuctionInitialized",
      "outputs": [],
      "stateMutability": "nonpayable",
      "type": "function"
    },
    {
      "inputs": [
        {
          "internalType": "bytes32",
          "name": "termRepoId",
          "type": "bytes32"
        },
        {
          "internalType": "bytes32",
          "name": "termAuctionId",
          "type": "bytes32"
        },
        {
          "internalType": "address",
          "name": "termAuctionOfferLocker",
          "type": "address"
        },
        {
          "internalType": "uint256",
          "name": "auctionStartTime",
          "type": "uint256"
        },
        {
          "internalType": "uint256",
          "name": "revealTime",
          "type": "uint256"
        },
        {
          "internalType": "uint256",
          "name": "maxOfferPrice",
          "type": "uint256"
        },
        {
          "internalType": "uint256",
          "name": "minimumTenderAmount",
          "type": "uint256"
        }
      ],
      "name": "emitTermAuctionOfferLockerInitialized",
      "outputs": [],
      "stateMutability": "nonpayable",
      "type": "function"
    },
    {
      "inputs": [
        {
          "internalType": "address",
          "name": "proxy",
          "type": "address"
        },
        {
          "internalType": "address",
          "name": "implementation",
          "type": "address"
        }
      ],
      "name": "emitTermContractUpgraded",
      "outputs": [],
      "stateMutability": "nonpayable",
      "type": "function"
    },
    {
      "inputs": [
        {
          "internalType": "bytes32",
          "name": "termRepoId",
          "type": "bytes32"
        },
        {
          "internalType": "address",
          "name": "termRepoCollateralManager",
          "type": "address"
        },
        {
          "internalType": "address[]",
          "name": "collateralTokens",
          "type": "address[]"
        },
        {
          "internalType": "uint256[]",
          "name": "initialCollateralRatios",
          "type": "uint256[]"
        },
        {
          "internalType": "uint256[]",
          "name": "maintenanceCollateralRatios",
          "type": "uint256[]"
        },
        {
          "internalType": "uint256[]",
          "name": "liquidatedDamagesSchedule",
          "type": "uint256[]"
        }
      ],
      "name": "emitTermRepoCollateralManagerInitialized",
      "outputs": [],
      "stateMutability": "nonpayable",
      "type": "function"
    },
    {
      "inputs": [
        {
          "internalType": "bytes32",
          "name": "termRepoId",
          "type": "bytes32"
        },
        {
          "internalType": "address",
          "name": "termRepoLocker",
          "type": "address"
        }
      ],
      "name": "emitTermRepoLockerInitialized",
      "outputs": [],
      "stateMutability": "nonpayable",
      "type": "function"
    },
    {
      "inputs": [
        {
          "internalType": "bytes32",
          "name": "termRepoId",
          "type": "bytes32"
        }
      ],
      "name": "emitTermRepoLockerTransfersPaused",
      "outputs": [],
      "stateMutability": "nonpayable",
      "type": "function"
    },
    {
      "inputs": [
        {
          "internalType": "bytes32",
          "name": "termRepoId",
          "type": "bytes32"
        }
      ],
      "name": "emitTermRepoLockerTransfersUnpaused",
      "outputs": [],
      "stateMutability": "nonpayable",
      "type": "function"
    },
    {
      "inputs": [
        {
          "internalType": "bytes32",
          "name": "termRepoId",
          "type": "bytes32"
        },
        {
          "internalType": "address",
          "name": "rolloverManager",
          "type": "address"
        }
      ],
      "name": "emitTermRepoRolloverManagerInitialized",
      "outputs": [],
      "stateMutability": "nonpayable",
      "type": "function"
    },
    {
      "inputs": [
        {
          "internalType": "bytes32",
          "name": "termRepoId",
          "type": "bytes32"
        },
        {
          "internalType": "address",
          "name": "termRepoServicer",
          "type": "address"
        },
        {
          "internalType": "address",
          "name": "purchaseToken",
          "type": "address"
        },
        {
          "internalType": "uint256",
          "name": "maturityTimestamp",
          "type": "uint256"
        },
        {
          "internalType": "uint256",
          "name": "endOfRepurchaseWindow",
          "type": "uint256"
        },
        {
          "internalType": "uint256",
          "name": "redemptionTimestamp",
          "type": "uint256"
        },
        {
          "internalType": "uint256",
          "name": "servicingFee",
          "type": "uint256"
        },
        {
          "internalType": "address",
          "name": "deployerWallet",
          "type": "address"
        },
        {
          "internalType": "string",
          "name": "version",
          "type": "string"
        }
      ],
      "name": "emitTermRepoServicerInitialized",
      "outputs": [],
      "stateMutability": "nonpayable",
      "type": "function"
    },
    {
      "inputs": [
        {
          "internalType": "bytes32",
          "name": "termRepoId",
          "type": "bytes32"
        }
      ],
      "name": "emitTermRepoTokenBurningPaused",
      "outputs": [],
      "stateMutability": "nonpayable",
      "type": "function"
    },
    {
      "inputs": [
        {
          "internalType": "bytes32",
          "name": "termRepoId",
          "type": "bytes32"
        }
      ],
      "name": "emitTermRepoTokenBurningUnpaused",
      "outputs": [],
      "stateMutability": "nonpayable",
      "type": "function"
    },
    {
      "inputs": [
        {
          "internalType": "bytes32",
          "name": "termRepoId",
          "type": "bytes32"
        },
        {
          "internalType": "address",
          "name": "termRepoToken",
          "type": "address"
        },
        {
          "internalType": "uint256",
          "name": "redemptionRatio",
          "type": "uint256"
        }
      ],
      "name": "emitTermRepoTokenInitialized",
      "outputs": [],
      "stateMutability": "nonpayable",
      "type": "function"
    },
    {
      "inputs": [
        {
          "internalType": "bytes32",
          "name": "termRepoId",
          "type": "bytes32"
        }
      ],
      "name": "emitTermRepoTokenMintingPaused",
      "outputs": [],
      "stateMutability": "nonpayable",
      "type": "function"
    },
    {
      "inputs": [
        {
          "internalType": "bytes32",
          "name": "termRepoId",
          "type": "bytes32"
        }
      ],
      "name": "emitTermRepoTokenMintingUnpaused",
      "outputs": [],
      "stateMutability": "nonpayable",
      "type": "function"
    },
    {
      "inputs": [
        {
          "internalType": "bytes32",
          "name": "termRepoId",
          "type": "bytes32"
        },
        {
          "internalType": "address",
          "name": "redeemer",
          "type": "address"
        },
        {
          "internalType": "uint256",
          "name": "redemptionAmount",
          "type": "uint256"
        },
        {
          "internalType": "uint256",
          "name": "redemptionHaircut",
          "type": "uint256"
        }
      ],
      "name": "emitTermRepoTokensRedeemed",
      "outputs": [],
      "stateMutability": "nonpayable",
      "type": "function"
    },
    {
      "inputs": [
        {
          "internalType": "bytes32",
          "name": "role",
          "type": "bytes32"
        }
      ],
      "name": "getRoleAdmin",
      "outputs": [
        {
          "internalType": "bytes32",
          "name": "",
          "type": "bytes32"
        }
      ],
      "stateMutability": "view",
      "type": "function"
    },
    {
      "inputs": [
        {
          "internalType": "bytes32",
          "name": "role",
          "type": "bytes32"
        },
        {
          "internalType": "address",
          "name": "account",
          "type": "address"
        }
      ],
      "name": "grantRole",
      "outputs": [],
      "stateMutability": "nonpayable",
      "type": "function"
    },
    {
      "inputs": [
        {
          "internalType": "bytes32",
          "name": "role",
          "type": "bytes32"
        },
        {
          "internalType": "address",
          "name": "account",
          "type": "address"
        }
      ],
      "name": "hasRole",
      "outputs": [
        {
          "internalType": "bool",
          "name": "",
          "type": "bool"
        }
      ],
      "stateMutability": "view",
      "type": "function"
    },
    {
      "inputs": [
        {
          "internalType": "address",
          "name": "devopsWallet_",
          "type": "address"
        },
        {
          "internalType": "address",
          "name": "termDelister_",
          "type": "address"
        },
        {
          "internalType": "address",
          "name": "termInitializer_",
          "type": "address"
        },
        {
          "internalType": "address",
          "name": "adminWallet_",
          "type": "address"
        },
        {
          "internalType": "address",
          "name": "termDiamond_",
          "type": "address"
        }
      ],
      "name": "initialize",
      "outputs": [],
      "stateMutability": "nonpayable",
      "type": "function"
    },
    {
      "inputs": [
        {
          "internalType": "address",
          "name": "termContract",
          "type": "address"
        }
      ],
      "name": "pairTermContract",
      "outputs": [],
      "stateMutability": "nonpayable",
      "type": "function"
    },
    {
      "inputs": [
        {
          "internalType": "address",
          "name": "termFactory",
          "type": "address"
        }
      ],
      "name": "pairTermFactory",
      "outputs": [],
      "stateMutability": "nonpayable",
      "type": "function"
    },
    {
      "inputs": [],
      "name": "proxiableUUID",
      "outputs": [
        {
          "internalType": "bytes32",
          "name": "",
          "type": "bytes32"
        }
      ],
      "stateMutability": "view",
      "type": "function"
    },
    {
      "inputs": [
        {
          "internalType": "bytes32",
          "name": "role",
          "type": "bytes32"
        },
        {
          "internalType": "address",
          "name": "callerConfirmation",
          "type": "address"
        }
      ],
      "name": "renounceRole",
      "outputs": [],
      "stateMutability": "nonpayable",
      "type": "function"
    },
    {
      "inputs": [
        {
          "internalType": "bytes32",
          "name": "role",
          "type": "bytes32"
        },
        {
          "internalType": "address",
          "name": "account",
          "type": "address"
        }
      ],
      "name": "revokeRole",
      "outputs": [],
      "stateMutability": "nonpayable",
      "type": "function"
    },
    {
      "inputs": [
        {
          "internalType": "bytes4",
          "name": "interfaceId",
          "type": "bytes4"
        }
      ],
      "name": "supportsInterface",
      "outputs": [
        {
          "internalType": "bool",
          "name": "",
          "type": "bool"
        }
      ],
      "stateMutability": "view",
      "type": "function"
    },
    {
      "inputs": [
        {
          "internalType": "address",
          "name": "newImplementation",
          "type": "address"
        },
        {
          "internalType": "bytes",
          "name": "data",
          "type": "bytes"
        }
      ],
      "name": "upgradeToAndCall",
      "outputs": [],
      "stateMutability": "payable",
      "type": "function"
    },
    {
      "inputs": [],
      "name": "version",
      "outputs": [
        {
          "internalType": "string",
          "name": "",
          "type": "string"
        }
      ],
      "stateMutability": "view",
      "type": "function"
    }
  ],
  "bytecode": "0x60a080604052346100cd57306080527ff0c57e16840df040f15088dc2f81fe391c3923bec73e23a9662efc9c229c6a009081549060ff8260401c166100be57506001600160401b036002600160401b031982821601610079575b604051612e479081620000d382396080518181816116cd015261179f0152f35b6001600160401b031990911681179091556040519081527fc7f505b2f371ae2175ee4913f4499e1f2633a7b5936321eed1cdaeb6115181d290602090a1388080610059565b63f92ee8a960e01b8152600490fd5b600080fdfe6040608081526004908136101561001557600080fd5b60009160e0908335821c9182630190d5cf146123c557826301ffc9a71461236e57826303655a0c1461233b57826303e852b11461230557826307fec0e3146122d25782630954cf03146122915782630a1d99121461214d5782631459457a14611fe3578263156d919814611f0e578263158b36f614611ed8578263201a662514611eae578263248a9ca314611e7557826327df3d3e14611e4b57826329681c0a14611e15578263299cf96214611d935782632b6cea3114611d055782632ba20e1614611ccf5782632e7895fb14611c5e5782632f2ff15d14611c345782632f5d386f14611c0157826336568abe14611bba578263380d921914611b84578263381b414c14611b435782633a094f3614611b025782633b8d409b14611acc5782633f2194cf14611a8c5782634203247e14611a56578263481a750a14611a155782634960a11c146119e25782634b7025f7146119af5782634f1ef2861461172257826352d1902d146116b757826354fd4d50146116735782635ba1a507146116405782635bbfdfa0146115ff5782635bcf235d146115cc5782635be4918a146115965782635ed17df6146115605782635fdd14871461152d5782636c13656914611427578263703d84ab146113f457826375b238fc146113ca57826380c48d131461138957826381100ddc146113565782638435ab74146113235782638866d130146112a0578263895752dd1461125f57826390b8e0aa1461122c57826391d14854146111d7578263935dcfc7146111a45782639c871b31146111645782639cc487d7146110b65782639d207b1c14611080578263a098baba14611012578263a217fddf14610ff6578263a34bfcd114610fc3578263a6cd751c14610e9e578263ad3cb1cc14610e5c578263b0b50c2314610dd2578263b29aaf7514610d91578263b3c2d50b14610d29578263b423ac9d14610ce0578263b90368d614610c2f578263ba0cf0ab14610bd2578263bb452ef814610ba8578263bba53d0514610b72578263bc16629214610b31578263c6a0df7b14610af0578263c8a2cfc014610a58578263c8df617914610a0e578263cd7b1e8c146109d8578263d3a9316014610970578263d4f417a214610900578263d547741f146108b7578263e69a5f4714610877578263ee40738814610816578263ee9e68bb146107a7578263ef12167014610735578263efe41d8e1461060f57508163efe6b381146105e6578163f34b603714610566578163f3782f21146104f6578163f6b650b1146104b6578163f89c081e1461044a575063ff8b11c9146103cd57600080fd5b34610446576104407f21d26d59bcce3d9a4ab2914b73dbef7755fbff3d793d77ed1e7fba2e86bccbbe9161040036612521565b9295939461040f92919261278c565b51958695869192608093969594919660a0840197845260018060a01b03166020840152604083015260608201520152565b0390a180f35b5080fd5b919050346104b257806003193601126104b2577f6ec6fb7b867fd9cb9916625cfeb8e66768a8b50a824d3b601a0ddfc04836abb29161044061048a61242c565b9261049361278c565b5192839235839081526001600160a01b03909116602082015260400190565b8280fd5b919050346104b257806003193601126104b2577f451f6adec965618047f05ef3b89e7abd6475813f5639d1688a4c495c495ed9ad9161044061048a61242c565b919050346104b25760603660031901126104b2577fdecc7e057c5d85fc83c3b999807c8fa056685e1735fc067b08fa8c0919b1920f9160609161053761242c565b61053f6123fb565b61054761278c565b8251933584526001600160a01b0391821660208501521690820152a180f35b9050346104b25760203660031901126104b257610581612416565b91600080516020612db283398151915290818552600080516020612d9283398151915260205280852033865260205260ff8186205416156105ca57846105c6856128eb565b5080f35b60449350519163e2517d3f60e01b835233908301526024820152fd5b50503461044657816003193601126104465760209051600080516020612d728339815191528152f35b915034610731576102009182600319360112610729576101e0908160231936011261072d5761063c61278c565b8451923583526001600160a01b03948561065461242c565b166020850152856106636123fb565b169084015284610671612442565b16606084015284610680612458565b1660808401528461068f61246e565b1660a08401528461069e612484565b1660c084015260e435908301526101043561010083015261012435610120830152610144356101408301526101643561016083015261018435938416809403610729577f378b658e41acf7dd1988be87ac8e81bc180400057008685d6b99b7282a6ad70e936101808301526101a4356101a08301526101c4356101c08301526101e43590820152a180f35b8480fd5b8580fd5b8380fd5b848285346104b25760c03660031901126104b2577ff8c0469ff6dafa46c8af119c7b4c548eee7e79d8227654225619faf3b27aedac9160c09161077661278c565b8051913582526024356020830152604435908201526064356060820152608435608082015260a43560a0820152a180f35b50505034610446576104407f9da0324d151318fcc6c77acdcf1d7c2eb0940d0d9396aa9b8e39659bbeb6a9e3916107dd36612594565b919492936107e961278c565b51948594859081526001600160a01b03918216602082015291166040820152606081019190915260800190565b509050346104b25760203660031901126104b257610832612416565b91600080516020612d3283398151915290818552600080516020612d9283398151915260205280852033865260205260ff8186205416156105ca57846105c685612aa1565b848285346104b257806003193601126104b2577f24c79e47c308328c2edbd271bc595b5b6701b07c9c379de2bfb37e6fcd38ec4f9161044061048a61242c565b848285346104b257806003193601126104b2576105c691356108fb60016108dc61242c565b93838752600080516020612d928339815191526020528620015461281a565b612b9c565b848285346104b25760803660031901126104b2577f252cbbf61f2b29d1bc56ced4c99f9bcf90d810413b98accdfad72919f29352959160809161094161242c565b61094961278c565b8151923583526001600160a01b03166020830152604435908201526064356060820152a180f35b50505034610446576104407f1bd5a752d6a363fa20d52aede3a7129e4420130ef48e76649b7273eb395c8d29916109a63661249a565b909391926109b261278c565b51938493849081526001600160a01b039091166020820152604081019190915260600190565b50505034610446576104407f5ce65f15ed0be04bce1b60eb829732ce05c7ea17b518aab91557947a785305739161040036612521565b848285346104b25760203660031901126104b2577f88013a9d1ee74e877ed421a1ed46fca7675405cac3f7fccb5f7ef46d584ca98191602091610a4f61278c565b5190358152a180f35b9150346107315781600319360112610731577f7ee1b10d692c6b73b6e299d557c9cb99871deec54d5a70280dfcde7bfd32ee3392610a946123fb565b610a9c61246e565b90610aa5612484565b91610aae61278c565b83519435855260243560208601526001600160a01b03918216938501939093526064356060850152608435608085015291821660a08401521660c0820152a180f35b848285346104b25760203660031901126104b2577fc08eb64db16a39d2848960af04e3f16fb404d9d436a9f0e9d7d0d4854715c9dc91602091610a4f61278c565b848285346104b25760203660031901126104b2577f1fe837719388bf91face89c0a8097c85fa082c7dc7fd763dd8cb6b574d2250d291602091610a4f6127e2565b50505034610446576104407f6ef7767f01e84b1180248c767524f6dfcc371911fa17fe326fc7f1f45adf91d7916109a63661249a565b5050503461044657816003193601126104465760209051600080516020612cf28339815191528152f35b50505034610446576104407f80e5486d5e04b2703fbae1576de3bd1c3a8f77e6a53d7704be8d2210a6a4e81991610c08366124da565b90939192610c1461278c565b51938493846040919493926060820195825260208201520152565b848285346104b25760c03660031901126104b257610c4b6123fb565b91610c54612458565b60a435906001600160401b03821161072d577f4153e9e25f590c258dfc66cf5f9996c58ce5eb3b4b8915847be2a74bef38cc7f94610c9861044093369086016124f4565b919092610ca361278c565b8651968796358752602435602088015260018060a01b0380931690870152606435606087015216608085015260c060a085015260c084019161276b565b50505034610446577f58617285cbcb0f5960c448dee13f229bf44cadba510e9349eadf49e78c18c39c90610d13366124c4565b610d1b61278c565b82519182526020820152a180f35b505050346104465780600319360112610446577f334dca0f6cb5389b53efbc3f727055ae657a90e47cc8a46d3ecf089f89f9ebc990610d66612416565b610d6e61242c565b90610d7761278c565b82516001600160a01b03918216815291166020820152a180f35b848285346104b25760203660031901126104b2577f8a6af0ae5a1f9334c9c6123d9a37c773bdd95e2ab697e72683ea7ef479b21a1a91602091610a4f61278c565b848285346104b25760c03660031901126104b2577f78a6e161147110b6357c57aea6938b64a6a1dcd83962b23d9d4d9190770a05009160c091610e136123fb565b90610e1c612442565b90610e2561278c565b80519335845260243560208501526001600160a01b0392831690840152166060820152608435608082015260a43560a0820152a180f35b505050346104465781600319360112610446578051610e9a91610e7e826125cd565b60058252640352e302e360dc1b6020830152519182918261263c565b0390f35b509050346104b25760c03660031901126104b257610eba61242c565b916001600160401b0360443581811161072d57610eda9036908501612685565b9190606435828111610fbf57610ef39036908701612685565b608435848111610fbb57610f0a9036908901612685565b93909460a435908111610fb757610f249036908a01612685565b969097610f2f61278c565b80519a8b9a358b52600160a01b600190031660208b0152890160c0905260c0890190610f5a926126fe565b908782036060890152610f6c92612747565b908582036080870152610f7e92612747565b9083820360a0850152610f9092612747565b037ffb09eb2d7a3a6d2704aa859f50b573cfcb6363d9cc9791d20b0d22c8d52008ba91a180f35b8a80fd5b8980fd5b8780fd5b50505034610446577fd111098c0fa8745cbcae57a08c03062a31f81591ed19f70aed2e701938a331a990610d13366124c4565b5050503461044657816003193601126104465751908152602090f35b509050346104b25760603660031901126104b2576024359081151580920361073157604435801515809103610729577f54ff901f77ead22848ed8d5dae609e337cb267a5b774d34a3f7daf18059674509360609361106e61278c565b8151933584526020840152820152a180f35b50505034610446576104407fcfd5fa13e90365bcc17eb90ef47600b4a6ed04057d87c034599a321fc5f0b1e2916109a63661249a565b92915034610731576101009182600319360112610729576110d561242c565b936110de6123fb565b6110e6612458565b60e43593841515809503611160577f530fe3fc76341ab8477a985534c803f688f0590f9c91115a2fea617bd40aa0c39761111e61278c565b8151963587526001600160a01b03908116602088015292831690860152606435606086015216608084015260a43560a084015260c43560c0840152820152a180f35b8880fd5b848285346104b257806003193601126104b2577fe177334a742058973ac6246b6b9e750df4aa9b547f0a2f447a0ececbf056daed9161044061048a61242c565b50505034610446577faec44ae25a1c32d3f76be6d66556a2635bd60bd7aea309a9b13b4d61be2212c490610d13366124c4565b509050346104b257816003193601126104b2578160209360ff926111f961242c565b90358252600080516020612d9283398151915286528282206001600160a01b039091168252855220549151911615158152f35b50505034610446577f72537d0556d5c431a7afa30288434308cbe9d709fdef10fb9712c48687f3d17190610d13366124c4565b848285346104b25760203660031901126104b2577f5eb87a0197fe36cc187c06ce9cf9cebe521d3a9da4915b8bfae50a6cd37c2e8091602091610a4f6127e2565b9150346107315781600319360112610731577f7af3beb7a58ba96a83c822c247144dfdddca4af697243bbc2f9245d733eb82cb926112dc6123fb565b6112e461278c565b81519235835260243560208401526001600160a01b0316908201526064356060820152608435608082015260a43560a082015260c43560c0820152a180f35b50505034610446577ff5c431abbfeb6cd8af5d67ad8864ba52b285633aaebfb34cd7422c528a83c7ae90610d13366124c4565b50505034610446577f1d904d6f9ecc7452486ebb6d1f63189675e54680bba46562d0da74b43f8df25590610d13366124c4565b848285346104b25760203660031901126104b2577f218ce7e5b70471b08b6d774245b7a4a9c288c83ff6ab02c8509342f7dc06176991602091610a4f61278c565b5050503461044657816003193601126104465760209051600080516020612db28339815191528152f35b50505034610446577fe2bc8291b28ccad777530d8ac7440bc8f29735ce807af17b821da0b94f26711a90610d13366124c4565b92915034610731576101e09182600319360112610729576114466123fb565b9361144f612442565b611457612458565b9061146061246e565b90611469612484565b91610164359560018060a01b0394858816809803611529578580948193827f05730d196c6710dd9b8bf649fc2a188ab3ee183a4ff432d7ee7a3879180671f19e6114b161278c565b82519d358e5260243560208f015216908c01521660608a01521660808801521660a08601521660c084015260e43590830152610104356101008301526101243561012083015261014435610140830152610160820152610184356101808201526101a4356101a08201526101c4356101c0820152a180f35b8b80fd5b50505034610446577f715523b92a5abc36945ae38ab2cca4d265a7ce1aa7c9a0fd9747f42bdf255ace90610d13366124c4565b50505034610446576104407fb3ebd87d3fef97d92fc82e0b1996ba45402216ffa8ea85137ec66a4609c4b26391610c08366124da565b50505034610446576104407fbe428a2d4f6cb996fe8767325ef30410284d3a3a09a000865e83e4eece645dd3916109a63661249a565b50505034610446577fa53133b07bde3a47cff8a1004bc1acc5b3884f6a1e45c4ccdeb8b92a854184ce90610d13366124c4565b848285346104b25760203660031901126104b2577fb749ced905d6fe87d115e2c48c3efbcb13d77fc3654441d4a81de4f8ceee275b91602091610a4f61278c565b50505034610446577f573a70eeec6e07fd422e155c2b92f7012a06ee46176b108c31c6826b44d571cd90610d13366124c4565b505050346104465781600319360112610446578051610e9a91611695826125cd565b600b82526a19195d995b1bdc1b595b9d60aa1b6020830152519182918261263c565b5082843461171f578060031936011261171f57507f00000000000000000000000000000000000000000000000000000000000000006001600160a01b031630036117125760209051600080516020612d528339815191528152f35b5163703e46dd60e11b8152fd5b80fd5b848285806003193601126104b257611738612416565b60249390919084356001600160401b0381116104465736602382011215610446578085013561176681612621565b94611773855196876125fe565b81865260209182870193368a838301011161072d578186928b8693018737880101526001600160a01b037f00000000000000000000000000000000000000000000000000000000000000008116308114908115611993575b5061198357600080516020612cd2833981519152808652600080516020612d928339815191528452868620338752845260ff878720541615611966575081169585516352d1902d60e01b815283818a818b5afa869181611933575b50611842575050505050505191634c9c8ce360e01b8352820152fd5b9088888894938c600080516020612d528339815191529182810361191e5750853b1561190a575080546001600160a01b031916821790558451889392917fbc7cd75a20ee27fd9adebab32041f755214dbc6bffa90cc0225b39da2e5c2d3b8580a28251156118ec5750506105c69582915190845af4913d156118e2573d6118d46118cb82612621565b925192836125fe565b81528581943d92013e612c4e565b5060609250612c4e565b9550955050505050346118fe57505080f35b63b398979f60e01b8152fd5b8651634c9c8ce360e01b8152808501849052fd5b8751632a87526960e21b815280860191909152fd5b9091508481813d831161195f575b61194b81836125fe565b8101031261195b5751908b611826565b8680fd5b503d611941565b865163e2517d3f60e01b815233818b0152808b0191909152604490fd5b855163703e46dd60e11b81528890fd5b905081600080516020612d52833981519152541614158a6117cb565b50505034610446577f79e34f33671ed8d059f04598f89966a956fdc152fc587848dc23e16787cfb6c590610d13366124c4565b50505034610446577fd7fecb56a08ad38ae5050da0d957b9fad736a03eb2fc16f605f832eaed23bc3590610d13366124c4565b848285346104b25760203660031901126104b2577f5b5fca86b3aee96d14a273715d01b8759e3bc66349f5162e8c8b290a1c9e560691602091610a4f61278c565b50505034610446576104407f669ba1268a0b43cb1577502790d554a58aea74a069eb86abc2d7a2ea5a0253019161040036612521565b848285346104b257806003193601126104b2577f9133b24d5dd7d39c3dbf216edd3325fdad90de393009cb40695019a1169867b29161044061048a61242c565b50505034610446576104407f15197825651b2af3101ed0faa9b517b01be26768ea57de5d2a33178674353b33916107dd36612594565b848285346104b25760203660031901126104b2577f4fa944cad6a7c488a0451c093ab988043012d5d8f1a7319652b5e726a946682e91602091610a4f61278c565b848285346104b25760203660031901126104b2577f923868d7d67f7de679976c289ba367c773803b9d055907f61804f053c316b54e91602091610a4f61278c565b50505034610446576104407fdbb9c48771d5b1b07fe22034bfce432480b5498d451749ec45c7bff00b912a90916109a63661249a565b50838334610446578060031936011261044657611bd561242c565b90336001600160a01b03831603611bf257506105c6919235612b9c565b5163334bd91960e11b81528390fd5b50505034610446577f38162ca5c14060f2fd4515bbfa2bc37f177e9bf99f3f27e01300242defb85e1990610d13366124c4565b848285346104b257806003193601126104b2576105c69135611c5960016108dc61242c565b612b27565b50505034610446576104407f99dfb0b033c2cf229265af7ddc4c29738df2206a3fd200c6890057ecc07f8f5591611c9436612553565b91949293611ca061278c565b516001600160a01b03948516815294841660208601529092166040840152606083019190915281906080820190565b50505034610446576104407f21cb9269778ea9b9ccd375a1cdcd3e7c3ade6cbffb4747e282098145a030812f91610c08366124da565b915034610731576101009182600319360112610729577f8ddb74faeea51390b27e370bb28d4bebe2f4cda8c2f37a9845c7075a6f0d069d93611d456123fb565b611d4d61278c565b81519335845260243560208501526001600160a01b0316908301526064356060830152608435608083015260a43560a083015260c43560c083015260e43590820152a180f35b848285346104b25760803660031901126104b2577ff0b4613c883862708448c163df972e9b692d08d3601fc3f3c560cbbdbf8909cd91608091611dd461242c565b611ddc6123fb565b91611de5612442565b91611dee61278c565b8151943585526001600160a01b03908116602086015292831690840152166060820152a180f35b50505034610446576104407f495ce0883e917b224c89400c895e2feb8ecb9f1bebb0b60c2c22539b3a9ee26591611c9436612553565b5050503461044657816003193601126104465760209051600080516020612d328339815191528152f35b509050346104b25760203660031901126104b25781602093600192358152600080516020612d9283398151915285522001549051908152f35b5050503461044657816003193601126104465760209051600080516020612cd28339815191528152f35b50505034610446576104407ffb2632db0db153ba9642ae80923335783475d580e6b190459c74d027a67c26839161040036612521565b91503461073157610120918260031936011261072957611f2c61242c565b92611f356123fb565b906001600160a01b039060e435828116908190036111605761010435946001600160401b038611610fbb577f94a5353838653deeb5669dd9459eadcac781c1298522a8812c8f0a01210a444498611f926104409736908a016124f4565b959096611f9d61278c565b8183519b8c9b358c521660208b015216908801526064356060880152608435608088015260a43560a088015260c43560c08801528601528061010086015284019161276b565b509050346104b25760a03660031901126104b257611fff612416565b9061200861242c565b6120106123fb565b90612019612442565b90612022612458565b92600080516020612dd283398151915295865460ff818a1c16159660018060401b03821680159081612145575b600114908161213b575b159081612132575b5061212457506001600160401b0319811660011788556120c495946120be9490936120b89391926120b2926120ac918b612109575b5061209f612c1f565b6120a7612c1f565b61284d565b506128eb565b50612983565b50612a09565b50612aa1565b506120cd578280f35b805460ff60401b1916905551600181527fc7f505b2f371ae2175ee4913f4499e1f2633a7b5936321eed1cdaeb6115181d290602090a138808280f35b6001600160481b0319166001600160401b01178c5538612096565b895163f92ee8a960e01b8152fd5b90501538612061565b303b159150612059565b89915061204f565b9092915034610731576003199060603683011261072957602435906001600160401b03821161072d57818501936101608094843603011261195b576121906123fb565b9161219961278c565b6121a5602485016126b5565b946121b260c486016126b5565b916121c060e48701896126c9565b906121ce60a489018b6126c9565b9290946101048a01359a8b1515809c0361228d576121ef6101248c016126b5565b9789519e8f9e8f913582523590602001528d600160a01b600190039c8d9b8c80951690830152604481013560608301526084013590608001521660a08d01528060c08d01528b0190612240926126fe565b91898303908a015261225192612747565b946101008701521661012085015216610140830152037f883435c56acd8a7f195790129e33085f436925ef33028c425097430c41c9a76391a180f35b8e80fd5b848285346104b25760203660031901126104b2577f42bdbb8a5a892e5e9ce48f4e8d72e84ac4e66d9d9c398a2b42b441eeba8f6c5391602091610a4f61278c565b50505034610446577fb9380957f9b8c08e51071c89308a6037c2c026d44d132fd21ffc6d33ccf937ad90610d13366124c4565b50505034610446576104407f550c99f14e2d6b02b095f180d3d23f4c2af030ba6ba708ca4f0902e774a11ce691610c08366124da565b50505034610446577f4cb372669f2973ed367a6eabc152fa74bb70238701ea34d2b4aeda8e3069f5bf90610d13366124c4565b509050346104b25760203660031901126104b257359063ffffffff60e01b82168092036104b25760209250637965db0b60e01b82149182156123b4575b50519015158152f35b6301ffc9a760e01b149150386123ab565b50505034610446576104407f18356b4e84c1a7757d8a4d3eb4b02291287fc5dea2643c2dbd10a83b6640138d916109a63661249a565b604435906001600160a01b038216820361241157565b600080fd5b600435906001600160a01b038216820361241157565b602435906001600160a01b038216820361241157565b606435906001600160a01b038216820361241157565b608435906001600160a01b038216820361241157565b60a435906001600160a01b038216820361241157565b60c435906001600160a01b038216820361241157565b606090600319011261241157600435906024356001600160a01b0381168103612411579060443590565b6040906003190112612411576004359060243590565b606090600319011261241157600435906024359060443590565b9181601f84011215612411578235916001600160401b038311612411576020838186019501011161241157565b60a090600319011261241157600435906024356001600160a01b03811681036124115790604435906064359060843590565b6080906003190112612411576001600160a01b0360043581811681036124115791602435828116810361241157916044359081168103612411579060643590565b608090600319011261241157600435906001600160a01b0390602435828116810361241157916044359081168103612411579060643590565b604081019081106001600160401b038211176125e857604052565b634e487b7160e01b600052604160045260246000fd5b601f909101601f19168101906001600160401b038211908210176125e857604052565b6001600160401b0381116125e857601f01601f191660200190565b6020808252825181830181905290939260005b82811061267157505060409293506000838284010152601f8019910116010190565b81810186015184820160400152850161264f565b9181601f84011215612411578235916001600160401b038311612411576020808501948460051b01011161241157565b356001600160a01b03811681036124115790565b903590601e198136030182121561241157018035906001600160401b03821161241157602001918160051b3603831361241157565b9190808252602080920192916000805b83821061271d57505050505090565b9091929394853560018060a01b0381168091036104b257815283019483019392916001019061270e565b81835290916001600160fb1b0383116124115760209260051b809284830137010190565b908060209392818452848401376000828201840152601f01601f1916010190565b336000908152600080516020612df28339815191526020526040902054600080516020612d728339815191529060ff16156127c45750565b6044906040519063e2517d3f60e01b82523360048301526024820152fd5b336000908152600080516020612d128339815191526020526040902054600080516020612cf28339815191529060ff16156127c45750565b80600052600080516020612d9283398151915260205260406000203360005260205260ff60406000205416156127c45750565b6001600160a01b031660008181527f0cfb002fcf8644f87ebf6cf6e31899c8d8e9f7c329b465b6e36989a958507e8b6020526040812054909190600080516020612cd283398151915290600080516020612d928339815191529060ff166128e5578184526020526040832082845260205260408320600160ff19825416179055600080516020612cb2833981519152339380a4600190565b50505090565b6001600160a01b031660008181527f44fa5399874b75da801cb431822b6afcadb876f84eb39d7f05bf697e94b4484e6020526040812054909190600080516020612d3283398151915290600080516020612d928339815191529060ff166128e5578184526020526040832082845260205260408320600160ff19825416179055600080516020612cb2833981519152339380a4600190565b6001600160a01b03166000818152600080516020612d128339815191526020526040812054909190600080516020612cf283398151915290600080516020612d928339815191529060ff166128e5578184526020526040832082845260205260408320600160ff19825416179055600080516020612cb2833981519152339380a4600190565b6001600160a01b031660008181527fb16e88c42fd4e48df2dd6a2eabd6bc9aec654ec170056b470819f8892cc6431c6020526040812054909190600080516020612db283398151915290600080516020612d928339815191529060ff166128e5578184526020526040832082845260205260408320600160ff19825416179055600080516020612cb2833981519152339380a4600190565b6001600160a01b03166000818152600080516020612df28339815191526020526040812054909190600080516020612d7283398151915290600080516020612d928339815191529060ff166128e5578184526020526040832082845260205260408320600160ff19825416179055600080516020612cb2833981519152339380a4600190565b90600091808352600080516020612d9283398151915280602052604084209260018060a01b03169283855260205260ff604085205416156000146128e5578184526020526040832082845260205260408320600160ff19825416179055600080516020612cb2833981519152339380a4600190565b90600091808352600080516020612d9283398151915280602052604084209260018060a01b03169283855260205260ff6040852054166000146128e557818452602052604083208284526020526040832060ff1981541690557ff6391f5c32d9c69d2a47ea670b442974b53935d1edc7fd64eb21e047a839171b339380a4600190565b60ff600080516020612dd28339815191525460401c1615612c3c57565b604051631afcd79f60e31b8152600490fd5b90612c755750805115612c6357805190602001fd5b60405163d6bda27560e01b8152600490fd5b81511580612ca8575b612c86575090565b604051639996b31560e01b81526001600160a01b039091166004820152602490fd5b50803b15612c7e56fe2f8788117e7eff1d82e926ec794901d17c78024a50270940304540a733656f0d793a6c9b7e0a9549c74edc2f9ae0dc50903dfaa9a56fb0116b27a8c71de3e2c6992b7de0144989096133dd485c7c23b149cc4ea0152d8a6481d467e12f7fc71f0cf72709f02e20175ff6632e5025823b4d1d88e5b61f6d31d82d827e4f1aa27d30d41a597cac127d8249d31298b50e481ee82c3f4a49ff93c76a22735aa9f3ad360894a13ba1a3210667c828492db98dca3e2076cc3735a920a3ca505d382bbcd826f92d418c5d20475612da193d2053b8323c543561622a20bce855d857e32102dd7bc7dec4dceedda775e58dd541e08a116c6c53815c0bd028192f7b626800a49807205ce4d355092ef5a8a18f56e8913cf4a201fbe287825b095693c21775f0c57e16840df040f15088dc2f81fe391c3923bec73e23a9662efc9c229c6a0018ab5dfb58dc24d67b567317a86536fb6ebc33614b42245714026297f9c01243a2646970667358221220788d16000a1d8c45a773386fa14f4e83ade2c8588f7c9dde2729931dddc15d2464736f6c63430008160033",
  "linkReferences": {},
  "deployedLinkReferences": {}
}