{
  "_format": "hh-sol-artifact-1",
  "contractName": "TermRepoRolloverManager",
  "sourceName": "contracts/TermRepoRolloverManager.sol",
  "abi": [
    {
      "inputs": [],
      "stateMutability": "nonpayable",
      "type": "constructor"
    },
    {
      "inputs": [],
      "name": "AlreadyTermContractPaired",
      "type": "error"
    },
    {
      "inputs": [],
      "name": "AuctionEndsAfterRepayment",
      "type": "error"
    },
    {
      "inputs": [],
      "name": "AuctionEndsBeforeMaturity",
      "type": "error"
    },
    {
      "inputs": [],
      "name": "BorrowerRepurchaseObligationInsufficient",
      "type": "error"
    },
    {
      "inputs": [
        {
          "internalType": "address",
          "name": "invalidCollateralToken",
          "type": "address"
        }
      ],
      "name": "CollateralTokenNotSupported",
      "type": "error"
    },
    {
      "inputs": [
        {
          "internalType": "address",
          "name": "currentPurchaseToken",
          "type": "address"
        },
        {
          "internalType": "address",
          "name": "rolloverPurchaseToken",
          "type": "address"
        }
      ],
      "name": "DifferentPurchaseToken",
      "type": "error"
    },
    {
      "inputs": [
        {
          "internalType": "string",
          "name": "reason",
          "type": "string"
        }
      ],
      "name": "InvalidParameters",
      "type": "error"
    },
    {
      "inputs": [],
      "name": "MaturityReached",
      "type": "error"
    },
    {
      "inputs": [],
      "name": "NoRolloverToCancel",
      "type": "error"
    },
    {
      "inputs": [
        {
          "internalType": "address",
          "name": "invalidAddress",
          "type": "address"
        }
      ],
      "name": "NotTermContract",
      "type": "error"
    },
    {
      "inputs": [],
      "name": "RepurchaseWindowOver",
      "type": "error"
    },
    {
      "inputs": [
        {
          "internalType": "address",
          "name": "invalidAddress",
          "type": "address"
        }
      ],
      "name": "RolloverAddressNotApproved",
      "type": "error"
    },
    {
      "inputs": [],
      "name": "RolloverLockedToAuction",
      "type": "error"
    },
    {
      "inputs": [],
      "name": "RolloverProcessedToTerm",
      "type": "error"
    },
    {
      "inputs": [],
      "name": "ZeroBorrowerRepurchaseObligation",
      "type": "error"
    },
    {
      "anonymous": false,
      "inputs": [
        {
          "indexed": false,
          "internalType": "address",
          "name": "previousAdmin",
          "type": "address"
        },
        {
          "indexed": false,
          "internalType": "address",
          "name": "newAdmin",
          "type": "address"
        }
      ],
      "name": "AdminChanged",
      "type": "event"
    },
    {
      "anonymous": false,
      "inputs": [
        {
          "indexed": true,
          "internalType": "address",
          "name": "beacon",
          "type": "address"
        }
      ],
      "name": "BeaconUpgraded",
      "type": "event"
    },
    {
      "anonymous": false,
      "inputs": [
        {
          "indexed": false,
          "internalType": "uint8",
          "name": "version",
          "type": "uint8"
        }
      ],
      "name": "Initialized",
      "type": "event"
    },
    {
      "anonymous": false,
      "inputs": [
        {
          "indexed": true,
          "internalType": "bytes32",
          "name": "role",
          "type": "bytes32"
        },
        {
          "indexed": true,
          "internalType": "bytes32",
          "name": "previousAdminRole",
          "type": "bytes32"
        },
        {
          "indexed": true,
          "internalType": "bytes32",
          "name": "newAdminRole",
          "type": "bytes32"
        }
      ],
      "name": "RoleAdminChanged",
      "type": "event"
    },
    {
      "anonymous": false,
      "inputs": [
        {
          "indexed": true,
          "internalType": "bytes32",
          "name": "role",
          "type": "bytes32"
        },
        {
          "indexed": true,
          "internalType": "address",
          "name": "account",
          "type": "address"
        },
        {
          "indexed": true,
          "internalType": "address",
          "name": "sender",
          "type": "address"
        }
      ],
      "name": "RoleGranted",
      "type": "event"
    },
    {
      "anonymous": false,
      "inputs": [
        {
          "indexed": true,
          "internalType": "bytes32",
          "name": "role",
          "type": "bytes32"
        },
        {
          "indexed": true,
          "internalType": "address",
          "name": "account",
          "type": "address"
        },
        {
          "indexed": true,
          "internalType": "address",
          "name": "sender",
          "type": "address"
        }
      ],
      "name": "RoleRevoked",
      "type": "event"
    },
    {
      "anonymous": false,
      "inputs": [
        {
          "indexed": true,
          "internalType": "address",
          "name": "implementation",
          "type": "address"
        }
      ],
      "name": "Upgraded",
      "type": "event"
    },
    {
      "inputs": [],
      "name": "ADMIN_ROLE",
      "outputs": [
        {
          "internalType": "bytes32",
          "name": "",
          "type": "bytes32"
        }
      ],
      "stateMutability": "view",
      "type": "function"
    },
    {
      "inputs": [],
      "name": "DEFAULT_ADMIN_ROLE",
      "outputs": [
        {
          "internalType": "bytes32",
          "name": "",
          "type": "bytes32"
        }
      ],
      "stateMutability": "view",
      "type": "function"
    },
    {
      "inputs": [],
      "name": "DEVOPS_ROLE",
      "outputs": [
        {
          "internalType": "bytes32",
          "name": "",
          "type": "bytes32"
        }
      ],
      "stateMutability": "view",
      "type": "function"
    },
    {
      "inputs": [],
      "name": "INITIALIZER_ROLE",
      "outputs": [
        {
          "internalType": "bytes32",
          "name": "",
          "type": "bytes32"
        }
      ],
      "stateMutability": "view",
      "type": "function"
    },
    {
      "inputs": [],
      "name": "ROLLOVER_BID_FULFILLER_ROLE",
      "outputs": [
        {
          "internalType": "bytes32",
          "name": "",
          "type": "bytes32"
        }
      ],
      "stateMutability": "view",
      "type": "function"
    },
    {
      "inputs": [
        {
          "internalType": "contract ITermAuctionBidLocker",
          "name": "auctionBidLocker",
          "type": "address"
        }
      ],
      "name": "approveRolloverAuction",
      "outputs": [],
      "stateMutability": "nonpayable",
      "type": "function"
    },
    {
      "inputs": [],
      "name": "cancelRollover",
      "outputs": [],
      "stateMutability": "nonpayable",
      "type": "function"
    },
    {
      "inputs": [
        {
          "components": [
            {
              "internalType": "address",
              "name": "rolloverAuctionBidLocker",
              "type": "address"
            },
            {
              "internalType": "uint256",
              "name": "rolloverAmount",
              "type": "uint256"
            },
            {
              "internalType": "bytes32",
              "name": "rolloverBidPriceHash",
              "type": "bytes32"
            }
          ],
          "internalType": "struct TermRepoRolloverElectionSubmission",
          "name": "termRepoRolloverElectionSubmission",
          "type": "tuple"
        }
      ],
      "name": "electRollover",
      "outputs": [],
      "stateMutability": "nonpayable",
      "type": "function"
    },
    {
      "inputs": [
        {
          "internalType": "address",
          "name": "borrower",
          "type": "address"
        }
      ],
      "name": "fulfillRollover",
      "outputs": [],
      "stateMutability": "nonpayable",
      "type": "function"
    },
    {
      "inputs": [
        {
          "internalType": "bytes32",
          "name": "role",
          "type": "bytes32"
        }
      ],
      "name": "getRoleAdmin",
      "outputs": [
        {
          "internalType": "bytes32",
          "name": "",
          "type": "bytes32"
        }
      ],
      "stateMutability": "view",
      "type": "function"
    },
    {
      "inputs": [
        {
          "internalType": "address",
          "name": "borrower",
          "type": "address"
        }
      ],
      "name": "getRolloverInstructions",
      "outputs": [
        {
          "components": [
            {
              "internalType": "address",
              "name": "rolloverAuctionBidLocker",
              "type": "address"
            },
            {
              "internalType": "uint256",
              "name": "rolloverAmount",
              "type": "uint256"
            },
            {
              "internalType": "bytes32",
              "name": "rolloverBidPriceHash",
              "type": "bytes32"
            },
            {
              "internalType": "bool",
              "name": "processed",
              "type": "bool"
            }
          ],
          "internalType": "struct TermRepoRolloverElection",
          "name": "",
          "type": "tuple"
        }
      ],
      "stateMutability": "view",
      "type": "function"
    },
    {
      "inputs": [
        {
          "internalType": "bytes32",
          "name": "role",
          "type": "bytes32"
        },
        {
          "internalType": "address",
          "name": "account",
          "type": "address"
        }
      ],
      "name": "grantRole",
      "outputs": [],
      "stateMutability": "nonpayable",
      "type": "function"
    },
    {
      "inputs": [
        {
          "internalType": "bytes32",
          "name": "role",
          "type": "bytes32"
        },
        {
          "internalType": "address",
          "name": "account",
          "type": "address"
        }
      ],
      "name": "hasRole",
      "outputs": [
        {
          "internalType": "bool",
          "name": "",
          "type": "bool"
        }
      ],
      "stateMutability": "view",
      "type": "function"
    },
    {
      "inputs": [
        {
          "internalType": "string",
          "name": "termRepoId_",
          "type": "string"
        },
        {
          "internalType": "contract ITermRepoServicer",
          "name": "termRepoServicer_",
          "type": "address"
        },
        {
          "internalType": "contract ITermRepoCollateralManager",
          "name": "termRepoCollateralManager_",
          "type": "address"
        },
        {
          "internalType": "contract ITermController",
          "name": "termController_",
          "type": "address"
        },
        {
          "internalType": "address",
          "name": "termInitializer_",
          "type": "address"
        }
      ],
      "name": "initialize",
      "outputs": [],
      "stateMutability": "nonpayable",
      "type": "function"
    },
    {
      "inputs": [
        {
          "internalType": "address",
          "name": "termRepoServicer_",
          "type": "address"
        },
        {
          "internalType": "contract ITermEventEmitter",
          "name": "emitter_",
          "type": "address"
        },
        {
          "internalType": "address",
          "name": "devopsMultisig_",
          "type": "address"
        },
        {
          "internalType": "address",
          "name": "adminWallet_",
          "type": "address"
        }
      ],
      "name": "pairTermContracts",
      "outputs": [],
      "stateMutability": "nonpayable",
      "type": "function"
    },
    {
      "inputs": [],
      "name": "proxiableUUID",
      "outputs": [
        {
          "internalType": "bytes32",
          "name": "",
          "type": "bytes32"
        }
      ],
      "stateMutability": "view",
      "type": "function"
    },
    {
      "inputs": [
        {
          "internalType": "bytes32",
          "name": "role",
          "type": "bytes32"
        },
        {
          "internalType": "address",
          "name": "account",
          "type": "address"
        }
      ],
      "name": "renounceRole",
      "outputs": [],
      "stateMutability": "nonpayable",
      "type": "function"
    },
    {
      "inputs": [
        {
          "internalType": "bytes32",
          "name": "role",
          "type": "bytes32"
        },
        {
          "internalType": "address",
          "name": "account",
          "type": "address"
        }
      ],
      "name": "revokeRole",
      "outputs": [],
      "stateMutability": "nonpayable",
      "type": "function"
    },
    {
      "inputs": [
        {
          "internalType": "contract ITermAuctionBidLocker",
          "name": "auctionBidLocker",
          "type": "address"
        }
      ],
      "name": "revokeRolloverApproval",
      "outputs": [],
      "stateMutability": "nonpayable",
      "type": "function"
    },
    {
      "inputs": [
        {
          "internalType": "bytes4",
          "name": "interfaceId",
          "type": "bytes4"
        }
      ],
      "name": "supportsInterface",
      "outputs": [
        {
          "internalType": "bool",
          "name": "",
          "type": "bool"
        }
      ],
      "stateMutability": "view",
      "type": "function"
    },
    {
      "inputs": [],
      "name": "termRepoId",
      "outputs": [
        {
          "internalType": "bytes32",
          "name": "",
          "type": "bytes32"
        }
      ],
      "stateMutability": "view",
      "type": "function"
    },
    {
      "inputs": [
        {
          "internalType": "address",
          "name": "newImplementation",
          "type": "address"
        }
      ],
      "name": "upgradeTo",
      "outputs": [],
      "stateMutability": "nonpayable",
      "type": "function"
    },
    {
      "inputs": [
        {
          "internalType": "address",
          "name": "newImplementation",
          "type": "address"
        },
        {
          "internalType": "bytes",
          "name": "data",
          "type": "bytes"
        }
      ],
      "name": "upgradeToAndCall",
      "outputs": [],
      "stateMutability": "payable",
      "type": "function"
    },
    {
      "inputs": [],
      "name": "version",
      "outputs": [
        {
          "internalType": "string",
          "name": "",
          "type": "string"
        }
      ],
      "stateMutability": "view",
      "type": "function"
    }
  ],
  "bytecode": "0x60a0604052306080523480156200001557600080fd5b506200002062000026565b620000e7565b600054610100900460ff1615620000935760405162461bcd60e51b815260206004820152602760248201527f496e697469616c697a61626c653a20636f6e747261637420697320696e697469604482015266616c697a696e6760c81b606482015260840160405180910390fd5b60005460ff90811614620000e5576000805460ff191660ff9081179091556040519081527f7f26b83ff96e1f2b6a682f133852f6798a09c465da95921460cefb38474024989060200160405180910390a15b565b6080516131de6200011f600039600081816108a3015281816108e301528181610b3f01528181610b7f0152610bf701526131de6000f3fe60806040526004361061012b5760003560e01c806352d1902d116100a657806352d1902d1461037e57806354fd4d501461039357806363a4027a146103cd57806375b238fc146103ef57806391d148541461041157806394aba07014610431578063a217fddf14610451578063a8f421c214610466578063c9bd725614610486578063cc5b6e4a146104a6578063d547741f146104bc578063fd5d357a146104dc57600080fd5b806301ffc9a7146101305780630b885ac314610165578063201a662514610187578063248a9ca3146101b757806326147fce146101e757806327df3d3e146102075780632f2ff15d1461022957806334e6c7711461024957806336568abe146103165780633659cfe6146103365780634ab964d0146103565780634f1ef2861461036b575b600080fd5b34801561013c57600080fd5b5061015061014b366004612875565b6104fc565b60405190151581526020015b60405180910390f35b34801561017157600080fd5b506101856101803660046128c4565b610533565b005b34801561019357600080fd5b506101a96000805160206130e283398151915281565b60405190815260200161015c565b3480156101c357600080fd5b506101a96101d2366004612977565b600090815260c9602052604090206001015490565b3480156101f357600080fd5b50610185610202366004612990565b6106ec565b34801561021357600080fd5b506101a960008051602061310283398151915281565b34801561023557600080fd5b506101856102443660046129ad565b6107f1565b34801561025557600080fd5b506102d8610264366004612990565b60408051608080820183526000808352602080840182905283850182905260609384018290526001600160a01b039586168252610101815290849020845192830185528054909516825260018501549082015260028401549281019290925260039092015460ff1615159181019190915290565b60405161015c919081516001600160a01b03168152602080830151908201526040808301519082015260609182015115159181019190915260800190565b34801561032257600080fd5b506101856103313660046129ad565b61081b565b34801561034257600080fd5b50610185610351366004612990565b610899565b34801561036257600080fd5b50610185610961565b610185610379366004612a30565b610b35565b34801561038a57600080fd5b506101a9610bea565b34801561039f57600080fd5b50604080518082018252600b81526a19195d995b1bdc1b595b9d60aa1b6020820152905161015c9190612afb565b3480156103d957600080fd5b506101a960008051602061312283398151915281565b3480156103fb57600080fd5b506101a960008051602061318983398151915281565b34801561041d57600080fd5b5061015061042c3660046129ad565b610c98565b34801561043d57600080fd5b5061018561044c366004612b2e565b610cc3565b34801561045d57600080fd5b506101a9600081565b34801561047257600080fd5b50610185610481366004612b46565b611148565b34801561049257600080fd5b506101856104a1366004612990565b611264565b3480156104b257600080fd5b506101a960fb5481565b3480156104c857600080fd5b506101856104d73660046129ad565b6112cf565b3480156104e857600080fd5b506101856104f7366004612990565b6112f4565b60006001600160e01b03198216637965db0b60e01b148061052d57506301ffc9a760e01b6001600160e01b03198316145b92915050565b600054610100900460ff16158080156105535750600054600160ff909116105b80610574575061056230611bd9565b158015610574575060005460ff166001145b6105dc5760405162461bcd60e51b815260206004820152602e60248201527f496e697469616c697a61626c653a20636f6e747261637420697320616c72656160448201526d191e481a5b9a5d1a585b1a5e995960921b60648201526084015b60405180910390fd5b6000805460ff1916600117905580156105ff576000805461ff0019166101001790555b610607611be8565b61060f611be8565b8686604051602001610622929190612ba2565b60408051601f19818403018152919052805160209091012060fb5560fc80546001600160a01b038087166001600160a01b03199283161790925560fd805488841690831617905560fe805492861692909116919091179055610102805460ff1916905561069d60008051602061310283398151915283611c55565b80156106e3576000805461ff0019169055604051600181527f7f26b83ff96e1f2b6a682f133852f6798a09c465da95921460cefb38474024989060200160405180910390a15b50505050505050565b60008051602061318983398151915261070481611cdb565b6001600160a01b0380831660008181526101006020908152604091829020805460ff1916905560ff5460fb548351636d73314160e01b815293519190951694634b7025f79490939092636d733141926004808401938290030181865afa158015610772573d6000803e3d6000fd5b505050506040513d601f19601f820116820180604052508101906107969190612bb2565b6040516001600160e01b031960e085901b168152600481019290925260248201526044015b600060405180830381600087803b1580156107d557600080fd5b505af11580156107e9573d6000803e3d6000fd5b505050505050565b600082815260c9602052604090206001015461080c81611cdb565b6108168383611c55565b505050565b6001600160a01b038116331461088b5760405162461bcd60e51b815260206004820152602f60248201527f416363657373436f6e74726f6c3a2063616e206f6e6c792072656e6f756e636560448201526e103937b632b9903337b91039b2b63360891b60648201526084016105d3565b6108958282611ce5565b5050565b6001600160a01b037f00000000000000000000000000000000000000000000000000000000000000001630036108e15760405162461bcd60e51b81526004016105d390612bcb565b7f00000000000000000000000000000000000000000000000000000000000000006001600160a01b0316610913611d4c565b6001600160a01b0316146109395760405162461bcd60e51b81526004016105d390612c17565b61094281611d68565b6040805160008082526020820190925261095e91839190611db2565b50565b60fd54604051632762697d60e01b815233916001600160a01b031690632762697d90610991908490600401612c63565b602060405180830381865afa1580156109ae573d6000803e3d6000fd5b505050506040513d601f19601f820116820180604052508101906109d29190612bb2565b6000036109f25760405163baca79c960e01b815260040160405180910390fd5b6001600160a01b038116600090815261010160205260408120600101549003610a2e5760405163cfa1b8cf60e01b815260040160405180910390fd5b6001600160a01b0381166000908152610101602052604090206003015460ff1615610a6c576040516369d7ecb560e11b815260040160405180910390fd5b6001600160a01b03811660009081526101016020526040812060010155610a9281611f1d565b6001600160a01b038082166000908152610101602052604080822080546001600160a01b03191681556001810183905560028101929092556003909101805460ff1916905560ff5460fb54915163f6b650b160e01b815292169163f6b650b191610b00918590600401612c77565b600060405180830381600087803b158015610b1a57600080fd5b505af1158015610b2e573d6000803e3d6000fd5b5050505050565b6001600160a01b037f0000000000000000000000000000000000000000000000000000000000000000163003610b7d5760405162461bcd60e51b81526004016105d390612bcb565b7f00000000000000000000000000000000000000000000000000000000000000006001600160a01b0316610baf611d4c565b6001600160a01b031614610bd55760405162461bcd60e51b81526004016105d390612c17565b610bde82611d68565b61089582826001611db2565b6000306001600160a01b037f00000000000000000000000000000000000000000000000000000000000000001614610c855760405162461bcd60e51b815260206004820152603860248201527f555550535570677261646561626c653a206d757374206e6f742062652063616c6044820152771b1959081d1a1c9bdd59da0819195b1959d85d1958d85b1b60421b60648201526084016105d3565b5060008051602061314283398151915290565b600091825260c9602090815260408084206001600160a01b0393909316845291905290205460ff1690565b60fd60009054906101000a90046001600160a01b03166001600160a01b0316633d0f31f76040518163ffffffff1660e01b8152600401602060405180830381865afa158015610d16573d6000803e3d6000fd5b505050506040513d601f19601f82011682018060405250810190610d3a9190612bb2565b4210610d5957604051630bfaaefb60e31b815260040160405180910390fd5b60fd54604051632762697d60e01b815233916000916001600160a01b0390911690632762697d90610d8e908590600401612c63565b602060405180830381865afa158015610dab573d6000803e3d6000fd5b505050506040513d601f19601f82011682018060405250810190610dcf9190612bb2565b905080600003610df25760405163baca79c960e01b815260040160405180910390fd5b6101006000610e046020860186612990565b6001600160a01b0316815260208101919091526040016000205460ff16610e4c57610e326020840184612990565b60405163f4024d0d60e01b81526004016105d39190612c63565b6001600160a01b0382166000908152610101602052604090206003015460ff1615610e8a576040516369d7ecb560e11b815260040160405180910390fd5b8260200135600003610edd5760405163dd23c3ad60e01b815260206004820152601b60248201527a0526f6c6c6f76657220616d6f756e742063616e6e6f74206265203602c1b60448201526064016105d3565b8260200135811015610f02576040516306f6aad160e11b815260040160405180910390fd5b6001600160a01b03828116600090815261010160205260409020541615801590610f565750610f346020840184612990565b6001600160a01b03838116600090815261010160205260409020548116911614155b15610f81576001600160a01b03821660009081526101016020526040812060010155610f8182611f1d565b604080516080810190915280610f9a6020860186612990565b6001600160a01b0390811682526020868101803582850152604080890135818601526000606095860181905288851681526101018452818120875181546001600160a01b0319169616959095178555928601516001850155850151600284015593909201516003909101805460ff19169115159190911790559061101e9085612990565b905060ff60009054906101000a90046001600160a01b03166001600160a01b031663b0b50c2360fb54836001600160a01b031663cc5b6e4a6040518163ffffffff1660e01b8152600401602060405180830381865afa158015611085573d6000803e3d6000fd5b505050506040513d601f19601f820116820180604052508101906110a99190612bb2565b866110b760208a018a612990565b604080516001600160e01b031960e088901b168152600481019590955260248501939093526001600160a01b0391821660448501521660648301526020880135608483015287013560a482015260c401600060405180830381600087803b15801561112157600080fd5b505af1158015611135573d6000803e3d6000fd5b5050505061114283611f1d565b50505050565b60008051602061310283398151915261116081611cdb565b6101025460ff161561118557604051634ce377bb60e11b815260040160405180910390fd5b610102805460ff1916600117905560ff80546001600160a01b0386166001600160a01b03199091161790556111c860008051602061312283398151915286611c55565b6111e06000805160206130e283398151915284611c55565b6111f860008051602061318983398151915283611c55565b60ff5460fb5460405163e69a5f4760e01b81526001600160a01b039092169163e69a5f479161122b913090600401612c77565b600060405180830381600087803b15801561124557600080fd5b505af1158015611259573d6000803e3d6000fd5b505050505050505050565b60008051602061312283398151915261127c81611cdb565b6001600160a01b038083166000908152610101602052604090819020600301805460ff1916600117905560ff5460fb549151633f2194cf60e01b8152921691633f2194cf916107bb918690600401612c77565b600082815260c960205260409020600101546112ea81611cdb565b6108168383611ce5565b60008051602061318983398151915261130c81611cdb565b60fd60009054906101000a90046001600160a01b03166001600160a01b0316633d0f31f76040518163ffffffff1660e01b8152600401602060405180830381865afa15801561135f573d6000803e3d6000fd5b505050506040513d601f19601f820116820180604052508101906113839190612bb2565b42106113a257604051630bfaaefb60e31b815260040160405180910390fd5b60fe5460405163e7e4b8db60e01b81526001600160a01b039091169063e7e4b8db906113d2908590600401612c63565b602060405180830381865afa1580156113ef573d6000803e3d6000fd5b505050506040513d601f19601f820116820180604052508101906114139190612c8e565b6114325781604051632d1cae5560e21b81526004016105d39190612c63565b60fd60009054906101000a90046001600160a01b03166001600160a01b0316631320834f6040518163ffffffff1660e01b8152600401602060405180830381865afa158015611485573d6000803e3d6000fd5b505050506040513d601f19601f820116820180604052508101906114a99190612bb2565b826001600160a01b0316634b449cba6040518163ffffffff1660e01b8152600401602060405180830381865afa1580156114e7573d6000803e3d6000fd5b505050506040513d601f19601f8201168201806040525081019061150b9190612bb2565b111561152a57604051632570863b60e01b815260040160405180910390fd5b60fd60009054906101000a90046001600160a01b03166001600160a01b0316633d0f31f76040518163ffffffff1660e01b8152600401602060405180830381865afa15801561157d573d6000803e3d6000fd5b505050506040513d601f19601f820116820180604052508101906115a19190612bb2565b826001600160a01b0316634b449cba6040518163ffffffff1660e01b8152600401602060405180830381865afa1580156115df573d6000803e3d6000fd5b505050506040513d601f19601f820116820180604052508101906116039190612bb2565b10156116225760405163920a080760e01b815260040160405180910390fd5b816001600160a01b031663a95c4d626040518163ffffffff1660e01b8152600401602060405180830381865afa158015611660573d6000803e3d6000fd5b505050506040513d601f19601f820116820180604052508101906116849190612cb0565b6001600160a01b031660fd60009054906101000a90046001600160a01b03166001600160a01b031663a95c4d626040518163ffffffff1660e01b8152600401602060405180830381865afa1580156116e0573d6000803e3d6000fd5b505050506040513d601f19601f820116820180604052508101906117049190612cb0565b6001600160a01b0316146118065760fd60009054906101000a90046001600160a01b03166001600160a01b031663a95c4d626040518163ffffffff1660e01b8152600401602060405180830381865afa158015611765573d6000803e3d6000fd5b505050506040513d601f19601f820116820180604052508101906117899190612cb0565b826001600160a01b031663a95c4d626040518163ffffffff1660e01b8152600401602060405180830381865afa1580156117c7573d6000803e3d6000fd5b505050506040513d601f19601f820116820180604052508101906117eb9190612cb0565b604051634b64dec160e11b81526004016105d3929190612ccd565b60fc5460408051630c87400960e11b815290516000926001600160a01b03169163190e80129160048083019260209291908290030181865afa158015611850573d6000803e3d6000fd5b505050506040513d601f19601f820116820180604052508101906118749190612ce7565b60ff16905060005b818110156119925760fc5460405163172c48c760e01b8152600481018390526000916001600160a01b03169063172c48c790602401602060405180830381865afa1580156118ce573d6000803e3d6000fd5b505050506040513d601f19601f820116820180604052508101906118f29190612cb0565b60405163cffbc29760e01b81529091506001600160a01b0386169063cffbc29790611921908490600401612c63565b602060405180830381865afa15801561193e573d6000803e3d6000fd5b505050506040513d601f19601f820116820180604052508101906119629190612c8e565b611981578060405163fa842beb60e01b81526004016105d39190612c63565b5061198b81612d20565b905061187c565b506001600160a01b038316600081815261010060209081526040808320805460ff191660011790558051637d33274f60e01b81529051929392637d33274f926004808401939192918290030181865afa1580156119f3573d6000803e3d6000fd5b505050506040513d601f19601f82011682018060405250810190611a179190612cb0565b60fd54604051637eae9abd60e11b81529192506001600160a01b03169063fd5d357a90611a48908490600401612c63565b600060405180830381600087803b158015611a6257600080fd5b505af1158015611a76573d6000803e3d6000fd5b505060fc54604051637eae9abd60e11b81526001600160a01b03909116925063fd5d357a9150611aaa908490600401612c63565b600060405180830381600087803b158015611ac457600080fd5b505af1158015611ad8573d6000803e3d6000fd5b50505050611af460008051602061312283398151915282611c55565b60ff60009054906101000a90046001600160a01b03166001600160a01b031663a34bfcd160fb54866001600160a01b0316636d7331416040518163ffffffff1660e01b8152600401602060405180830381865afa158015611b59573d6000803e3d6000fd5b505050506040513d601f19601f82011682018060405250810190611b7d9190612bb2565b6040516001600160e01b031960e085901b16815260048101929092526024820152604401600060405180830381600087803b158015611bbb57600080fd5b505af1158015611bcf573d6000803e3d6000fd5b5050505050505050565b6001600160a01b03163b151590565b600054610100900460ff16611c535760405162461bcd60e51b815260206004820152602b60248201527f496e697469616c697a61626c653a20636f6e7472616374206973206e6f74206960448201526a6e697469616c697a696e6760a81b60648201526084016105d3565b565b611c5f8282610c98565b61089557600082815260c9602090815260408083206001600160a01b03851684529091529020805460ff19166001179055611c973390565b6001600160a01b0316816001600160a01b0316837f2f8788117e7eff1d82e926ec794901d17c78024a50270940304540a733656f0d60405160405180910390a45050565b61095e8133612371565b611cef8282610c98565b1561089557600082815260c9602090815260408083206001600160a01b0385168085529252808320805460ff1916905551339285917ff6391f5c32d9c69d2a47ea670b442974b53935d1edc7fd64eb21e047a839171b9190a45050565b600080516020613142833981519152546001600160a01b031690565b6000805160206130e2833981519152611d8081611cdb565b60ff5460405163b3c2d50b60e01b81526001600160a01b039091169063b3c2d50b906107bb9030908690600401612ccd565b7f4910fdfa16fed3260ed0e7147f7cc6da11a60208b5b9406d12a635614ffd91435460ff1615611de557610816836123ca565b826001600160a01b03166352d1902d6040518163ffffffff1660e01b8152600401602060405180830381865afa925050508015611e3f575060408051601f3d908101601f19168201909252611e3c91810190612bb2565b60015b611ea25760405162461bcd60e51b815260206004820152602e60248201527f45524331393637557067726164653a206e657720696d706c656d656e7461746960448201526d6f6e206973206e6f74205555505360901b60648201526084016105d3565b6000805160206131428339815191528114611f115760405162461bcd60e51b815260206004820152602960248201527f45524331393637557067726164653a20756e737570706f727465642070726f786044820152681a58589b195555525160ba1b60648201526084016105d3565b50610816838383612464565b6001600160a01b038082166000908152610101602090815260408083208151608081018352815490951680865260018201548685015260028201548684015260039091015460ff16151560608601528151631abd3be960e11b81529151909392849263357a77d292600480830193928290030181865afa158015611fa5573d6000803e3d6000fd5b505050506040513d601f19601f82011682018060405250810190611fc99190612cb0565b905060006120b46040518060200160405280856001600160a01b0316637a6944c56040518163ffffffff1660e01b8152600401602060405180830381865afa158015612019573d6000803e3d6000fd5b505050506040513d601f19601f8201168201806040525081019061203d9190612bb2565b8152506040518060200160405280856001600160a01b031663fa19d0ed6040518163ffffffff1660e01b8152600401602060405180830381865afa158015612089573d6000803e3d6000fd5b505050506040513d601f19601f820116820180604052508101906120ad9190612bb2565b9052612489565b516020850151909150600090156121215761211a6121156040518060200160405280670de0b6b3a764000089602001516120ee9190612d39565b905260408051602081019091528061210e87670de0b6b3a7640000612d50565b90526124d1565b61250b565b9050612125565b5060005b60fc54604051636f3fc39760e11b81526000916001600160a01b03169063de7f872e90612156908a90600401612c63565b600060405180830381865afa158015612173573d6000803e3d6000fd5b505050506040513d6000823e601f3d908101601f1916820160405261219b9190810190612df1565b509050600081516001600160401b038111156121b9576121b96129ea565b6040519080825280602002602001820160405280156121e2578160200160208202803683370190505b506040805161016081019091526001600160601b031930606090811b82166101808401528b901b16610194820152909150600090806101a881016040516020818303038152906040528051906020012081526020018a6001600160a01b03168152602001896040015181526020016000815260200185815260200183815260200160fd60009054906101000a90046001600160a01b03166001600160a01b031663a95c4d626040518163ffffffff1660e01b8152600401602060405180830381865afa1580156122b6573d6000803e3d6000fd5b505050506040513d601f19601f820116820180604052508101906122da9190612cb0565b6001600160a01b03908116825260208201869052600160408084019190915260fd54821660608401526000608090930192909252905163730f807360e11b815291925088169063e61f00e690612334908490600401612f29565b600060405180830381600087803b15801561234e57600080fd5b505af1158015612362573d6000803e3d6000fd5b50505050505050505050505050565b61237b8282610c98565b6108955761238881612523565b612393836020612535565b6040516020016123a4929190612ff4565b60408051601f198184030181529082905262461bcd60e51b82526105d391600401612afb565b6123d381611bd9565b6124355760405162461bcd60e51b815260206004820152602d60248201527f455243313936373a206e657720696d706c656d656e746174696f6e206973206e60448201526c1bdd08184818dbdb9d1c9858dd609a1b60648201526084016105d3565b60008051602061314283398151915280546001600160a01b0319166001600160a01b0392909216919091179055565b61246d836126d7565b60008251118061247a5750805b15610816576111428383612717565b6040805160208101909152600081526040518060200160405280670de0b6b3a76400006124be8660000151866000015161273c565b6124c89190613063565b90529392505050565b60408051602081019091526000815260405180602001604052806124c86125048660000151670de0b6b3a764000061273c565b8551612748565b805160009061052d90670de0b6b3a764000090613063565b606061052d6001600160a01b03831660145b60606000612544836002612d39565b61254f906002613085565b6001600160401b03811115612566576125666129ea565b6040519080825280601f01601f191660200182016040528015612590576020820181803683370190505b509050600360fc1b816000815181106125ab576125ab613098565b60200101906001600160f81b031916908160001a905350600f60fb1b816001815181106125da576125da613098565b60200101906001600160f81b031916908160001a90535060006125fe846002612d39565b612609906001613085565b90505b6001811115612681576f181899199a1a9b1b9c1cb0b131b232b360811b85600f166010811061263d5761263d613098565b1a60f81b82828151811061265357612653613098565b60200101906001600160f81b031916908160001a90535060049490941c9361267a816130ae565b905061260c565b5083156126d05760405162461bcd60e51b815260206004820181905260248201527f537472696e67733a20686578206c656e67746820696e73756666696369656e7460448201526064016105d3565b9392505050565b6126e0816123ca565b6040516001600160a01b038216907fbc7cd75a20ee27fd9adebab32041f755214dbc6bffa90cc0225b39da2e5c2d3b90600090a250565b60606126d0838360405180606001604052806027815260200161316260279139612754565b60006126d08284612d39565b60006126d08284613063565b6060600080856001600160a01b03168560405161277191906130c5565b600060405180830381855af49150503d80600081146127ac576040519150601f19603f3d011682016040523d82523d6000602084013e6127b1565b606091505b50915091506127c2868383876127cc565b9695505050505050565b60608315612839578251600003612832576127e685611bd9565b6128325760405162461bcd60e51b815260206004820152601d60248201527f416464726573733a2063616c6c20746f206e6f6e2d636f6e747261637400000060448201526064016105d3565b5081612843565b612843838361284b565b949350505050565b81511561285b5781518083602001fd5b8060405162461bcd60e51b81526004016105d39190612afb565b60006020828403121561288757600080fd5b81356001600160e01b0319811681146126d057600080fd5b6001600160a01b038116811461095e57600080fd5b80356128bf8161289f565b919050565b60008060008060008060a087890312156128dd57600080fd5b86356001600160401b03808211156128f457600080fd5b818901915089601f83011261290857600080fd5b81358181111561291757600080fd5b8a602082850101111561292957600080fd5b6020928301985096505087013561293f8161289f565b9350604087013561294f8161289f565b925061295d606088016128b4565b915061296b608088016128b4565b90509295509295509295565b60006020828403121561298957600080fd5b5035919050565b6000602082840312156129a257600080fd5b81356126d08161289f565b600080604083850312156129c057600080fd5b8235915060208301356129d28161289f565b809150509250929050565b6001600160a01b03169052565b634e487b7160e01b600052604160045260246000fd5b604051601f8201601f191681016001600160401b0381118282101715612a2857612a286129ea565b604052919050565b60008060408385031215612a4357600080fd5b8235612a4e8161289f565b91506020838101356001600160401b0380821115612a6b57600080fd5b818601915086601f830112612a7f57600080fd5b813581811115612a9157612a916129ea565b612aa3601f8201601f19168501612a00565b91508082528784828501011115612ab957600080fd5b80848401858401376000848284010152508093505050509250929050565b60005b83811015612af2578181015183820152602001612ada565b50506000910152565b6020815260008251806020840152612b1a816040850160208701612ad7565b601f01601f19169190910160400192915050565b600060608284031215612b4057600080fd5b50919050565b60008060008060808587031215612b5c57600080fd5b8435612b678161289f565b93506020850135612b778161289f565b92506040850135612b878161289f565b91506060850135612b978161289f565b939692955090935050565b8183823760009101908152919050565b600060208284031215612bc457600080fd5b5051919050565b6020808252602c908201527f46756e6374696f6e206d7573742062652063616c6c6564207468726f7567682060408201526b19195b1959d85d1958d85b1b60a21b606082015260800190565b6020808252602c908201527f46756e6374696f6e206d7573742062652063616c6c6564207468726f7567682060408201526b6163746976652070726f787960a01b606082015260800190565b6001600160a01b0391909116815260200190565b9182526001600160a01b0316602082015260400190565b600060208284031215612ca057600080fd5b815180151581146126d057600080fd5b600060208284031215612cc257600080fd5b81516126d08161289f565b6001600160a01b0392831681529116602082015260400190565b600060208284031215612cf957600080fd5b815160ff811681146126d057600080fd5b634e487b7160e01b600052601160045260246000fd5b600060018201612d3257612d32612d0a565b5060010190565b808202811582820484141761052d5761052d612d0a565b8181038181111561052d5761052d612d0a565b60006001600160401b03821115612d7c57612d7c6129ea565b5060051b60200190565b600082601f830112612d9757600080fd5b81516020612dac612da783612d63565b612a00565b82815260059290921b84018101918181019086841115612dcb57600080fd5b8286015b84811015612de65780518352918301918301612dcf565b509695505050505050565b60008060408385031215612e0457600080fd5b82516001600160401b0380821115612e1b57600080fd5b818501915085601f830112612e2f57600080fd5b81516020612e3f612da783612d63565b82815260059290921b84018101918181019089841115612e5e57600080fd5b948201945b83861015612e85578551612e768161289f565b82529482019490820190612e63565b91880151919650909350505080821115612e9e57600080fd5b50612eab85828601612d86565b9150509250929050565b600081518084526020808501945080840160005b83811015612ee557815187529582019590820190600101612ec9565b509495945050505050565b600081518084526020808501945080840160005b83811015612ee55781516001600160a01b031687529582019590820190600101612f04565b602081528151602082015260006020830151612f4860408401826129dd565b506040830151606083015260608301516080830152608083015160a083015260a08301516101608060c0850152612f83610180850183612eb5565b915060c0850151612f9760e08601826129dd565b5060e0850151610100601f198685030181870152612fb58483612ef0565b935080870151915050610120612fce8187018315159052565b8601519050610140612fe2868201836129dd565b90950151151593019290925250919050565b76020b1b1b2b9b9a1b7b73a3937b61d1030b1b1b7bab73a1604d1b815260008351613026816017850160208801612ad7565b7001034b99036b4b9b9b4b733903937b6329607d1b6017918401918201528351613057816028840160208801612ad7565b01602801949350505050565b60008261308057634e487b7160e01b600052601260045260246000fd5b500490565b8082018082111561052d5761052d612d0a565b634e487b7160e01b600052603260045260246000fd5b6000816130bd576130bd612d0a565b506000190190565b600082516130d7818460208701612ad7565b919091019291505056fe793a6c9b7e0a9549c74edc2f9ae0dc50903dfaa9a56fb0116b27a8c71de3e2c630d41a597cac127d8249d31298b50e481ee82c3f4a49ff93c76a22735aa9f3ad960771d60d61bb60ec2f92e1fcc4b84a2e0e340697e8b2b1256a2a12f5f59c69360894a13ba1a3210667c828492db98dca3e2076cc3735a920a3ca505d382bbc416464726573733a206c6f772d6c6576656c2064656c65676174652063616c6c206661696c6564a49807205ce4d355092ef5a8a18f56e8913cf4a201fbe287825b095693c21775a2646970667358221220de914832fb786fab8b70840658c5d7e385448292a3314f5496ffb20abfbaa4bc64736f6c63430008120033",
  "linkReferences": {},
  "deployedLinkReferences": {}
}