{
  "_format": "hh-sol-artifact-1",
  "contractName": "TermRepoRolloverManager",
  "sourceName": "contracts/TermRepoRolloverManager.sol",
  "abi": [
    {
      "inputs": [],
      "stateMutability": "nonpayable",
      "type": "constructor"
    },
    {
      "inputs": [],
      "name": "AccessControlBadConfirmation",
      "type": "error"
    },
    {
      "inputs": [
        {
          "internalType": "address",
          "name": "account",
          "type": "address"
        },
        {
          "internalType": "bytes32",
          "name": "neededRole",
          "type": "bytes32"
        }
      ],
      "name": "AccessControlUnauthorizedAccount",
      "type": "error"
    },
    {
      "inputs": [
        {
          "internalType": "address",
          "name": "target",
          "type": "address"
        }
      ],
      "name": "AddressEmptyCode",
      "type": "error"
    },
    {
      "inputs": [],
      "name": "AlreadyTermContractPaired",
      "type": "error"
    },
    {
      "inputs": [],
      "name": "AuctionEndsAfterRepayment",
      "type": "error"
    },
    {
      "inputs": [],
      "name": "AuctionEndsBeforeMaturity",
      "type": "error"
    },
    {
      "inputs": [],
      "name": "BorrowerRepurchaseObligationInsufficient",
      "type": "error"
    },
    {
      "inputs": [
        {
          "internalType": "address",
          "name": "invalidCollateralToken",
          "type": "address"
        }
      ],
      "name": "CollateralTokenNotSupported",
      "type": "error"
    },
    {
      "inputs": [
        {
          "internalType": "address",
          "name": "currentPurchaseToken",
          "type": "address"
        },
        {
          "internalType": "address",
          "name": "rolloverPurchaseToken",
          "type": "address"
        }
      ],
      "name": "DifferentPurchaseToken",
      "type": "error"
    },
    {
      "inputs": [
        {
          "internalType": "address",
          "name": "implementation",
          "type": "address"
        }
      ],
      "name": "ERC1967InvalidImplementation",
      "type": "error"
    },
    {
      "inputs": [],
      "name": "ERC1967NonPayable",
      "type": "error"
    },
    {
      "inputs": [],
      "name": "EndOfRepurchaseWindowReached",
      "type": "error"
    },
    {
      "inputs": [],
      "name": "FailedCall",
      "type": "error"
    },
    {
      "inputs": [],
      "name": "InvalidInitialization",
      "type": "error"
    },
    {
      "inputs": [
        {
          "internalType": "string",
          "name": "reason",
          "type": "string"
        }
      ],
      "name": "InvalidParameters",
      "type": "error"
    },
    {
      "inputs": [],
      "name": "NoRolloverToCancel",
      "type": "error"
    },
    {
      "inputs": [],
      "name": "NotInitializing",
      "type": "error"
    },
    {
      "inputs": [
        {
          "internalType": "address",
          "name": "invalidAddress",
          "type": "address"
        }
      ],
      "name": "NotTermContract",
      "type": "error"
    },
    {
      "inputs": [],
      "name": "RepurchaseWindowOver",
      "type": "error"
    },
    {
      "inputs": [
        {
          "internalType": "address",
          "name": "invalidAddress",
          "type": "address"
        }
      ],
      "name": "RolloverAddressNotApproved",
      "type": "error"
    },
    {
      "inputs": [],
      "name": "RolloverLockedToAuction",
      "type": "error"
    },
    {
      "inputs": [],
      "name": "RolloverProcessedToTerm",
      "type": "error"
    },
    {
      "inputs": [],
      "name": "UUPSUnauthorizedCallContext",
      "type": "error"
    },
    {
      "inputs": [
        {
          "internalType": "bytes32",
          "name": "slot",
          "type": "bytes32"
        }
      ],
      "name": "UUPSUnsupportedProxiableUUID",
      "type": "error"
    },
    {
      "inputs": [],
      "name": "ZeroBorrowerRepurchaseObligation",
      "type": "error"
    },
    {
      "anonymous": false,
      "inputs": [
        {
          "indexed": false,
          "internalType": "uint64",
          "name": "version",
          "type": "uint64"
        }
      ],
      "name": "Initialized",
      "type": "event"
    },
    {
      "anonymous": false,
      "inputs": [
        {
          "indexed": true,
          "internalType": "bytes32",
          "name": "role",
          "type": "bytes32"
        },
        {
          "indexed": true,
          "internalType": "bytes32",
          "name": "previousAdminRole",
          "type": "bytes32"
        },
        {
          "indexed": true,
          "internalType": "bytes32",
          "name": "newAdminRole",
          "type": "bytes32"
        }
      ],
      "name": "RoleAdminChanged",
      "type": "event"
    },
    {
      "anonymous": false,
      "inputs": [
        {
          "indexed": true,
          "internalType": "bytes32",
          "name": "role",
          "type": "bytes32"
        },
        {
          "indexed": true,
          "internalType": "address",
          "name": "account",
          "type": "address"
        },
        {
          "indexed": true,
          "internalType": "address",
          "name": "sender",
          "type": "address"
        }
      ],
      "name": "RoleGranted",
      "type": "event"
    },
    {
      "anonymous": false,
      "inputs": [
        {
          "indexed": true,
          "internalType": "bytes32",
          "name": "role",
          "type": "bytes32"
        },
        {
          "indexed": true,
          "internalType": "address",
          "name": "account",
          "type": "address"
        },
        {
          "indexed": true,
          "internalType": "address",
          "name": "sender",
          "type": "address"
        }
      ],
      "name": "RoleRevoked",
      "type": "event"
    },
    {
      "anonymous": false,
      "inputs": [
        {
          "indexed": true,
          "internalType": "address",
          "name": "implementation",
          "type": "address"
        }
      ],
      "name": "Upgraded",
      "type": "event"
    },
    {
      "inputs": [],
      "name": "ADMIN_ROLE",
      "outputs": [
        {
          "internalType": "bytes32",
          "name": "",
          "type": "bytes32"
        }
      ],
      "stateMutability": "view",
      "type": "function"
    },
    {
      "inputs": [],
      "name": "DEFAULT_ADMIN_ROLE",
      "outputs": [
        {
          "internalType": "bytes32",
          "name": "",
          "type": "bytes32"
        }
      ],
      "stateMutability": "view",
      "type": "function"
    },
    {
      "inputs": [],
      "name": "DEVOPS_ROLE",
      "outputs": [
        {
          "internalType": "bytes32",
          "name": "",
          "type": "bytes32"
        }
      ],
      "stateMutability": "view",
      "type": "function"
    },
    {
      "inputs": [],
      "name": "DIAMOND_ROLE",
      "outputs": [
        {
          "internalType": "bytes32",
          "name": "",
          "type": "bytes32"
        }
      ],
      "stateMutability": "view",
      "type": "function"
    },
    {
      "inputs": [],
      "name": "INITIALIZER_ROLE",
      "outputs": [
        {
          "internalType": "bytes32",
          "name": "",
          "type": "bytes32"
        }
      ],
      "stateMutability": "view",
      "type": "function"
    },
    {
      "inputs": [],
      "name": "ROLLOVER_BID_FULFILLER_ROLE",
      "outputs": [
        {
          "internalType": "bytes32",
          "name": "",
          "type": "bytes32"
        }
      ],
      "stateMutability": "view",
      "type": "function"
    },
    {
      "inputs": [],
      "name": "UPGRADE_INTERFACE_VERSION",
      "outputs": [
        {
          "internalType": "string",
          "name": "",
          "type": "string"
        }
      ],
      "stateMutability": "view",
      "type": "function"
    },
    {
      "inputs": [
        {
          "internalType": "contract ITermAuctionBidLocker",
          "name": "auctionBidLocker",
          "type": "address"
        }
      ],
      "name": "approveRolloverAuction",
      "outputs": [],
      "stateMutability": "nonpayable",
      "type": "function"
    },
    {
      "inputs": [
        {
          "internalType": "address",
          "name": "borrower",
          "type": "address"
        }
      ],
      "name": "cancelRollover",
      "outputs": [],
      "stateMutability": "nonpayable",
      "type": "function"
    },
    {
      "inputs": [],
      "name": "cancelRollover",
      "outputs": [],
      "stateMutability": "nonpayable",
      "type": "function"
    },
    {
      "inputs": [
        {
          "internalType": "address",
          "name": "borrower",
          "type": "address"
        },
        {
          "components": [
            {
              "internalType": "address",
              "name": "rolloverAuctionBidLocker",
              "type": "address"
            },
            {
              "internalType": "uint256",
              "name": "rolloverAmount",
              "type": "uint256"
            },
            {
              "internalType": "bytes32",
              "name": "rolloverBidPriceHash",
              "type": "bytes32"
            }
          ],
          "internalType": "struct TermRepoRolloverElectionSubmission",
          "name": "termRepoRolloverElectionSubmission",
          "type": "tuple"
        }
      ],
      "name": "electRollover",
      "outputs": [],
      "stateMutability": "nonpayable",
      "type": "function"
    },
    {
      "inputs": [
        {
          "components": [
            {
              "internalType": "address",
              "name": "rolloverAuctionBidLocker",
              "type": "address"
            },
            {
              "internalType": "uint256",
              "name": "rolloverAmount",
              "type": "uint256"
            },
            {
              "internalType": "bytes32",
              "name": "rolloverBidPriceHash",
              "type": "bytes32"
            }
          ],
          "internalType": "struct TermRepoRolloverElectionSubmission",
          "name": "termRepoRolloverElectionSubmission",
          "type": "tuple"
        }
      ],
      "name": "electRollover",
      "outputs": [],
      "stateMutability": "nonpayable",
      "type": "function"
    },
    {
      "inputs": [
        {
          "internalType": "address",
          "name": "borrower",
          "type": "address"
        }
      ],
      "name": "fulfillRollover",
      "outputs": [],
      "stateMutability": "nonpayable",
      "type": "function"
    },
    {
      "inputs": [
        {
          "internalType": "bytes32",
          "name": "role",
          "type": "bytes32"
        }
      ],
      "name": "getRoleAdmin",
      "outputs": [
        {
          "internalType": "bytes32",
          "name": "",
          "type": "bytes32"
        }
      ],
      "stateMutability": "view",
      "type": "function"
    },
    {
      "inputs": [
        {
          "internalType": "address",
          "name": "borrower",
          "type": "address"
        }
      ],
      "name": "getRolloverInstructions",
      "outputs": [
        {
          "components": [
            {
              "internalType": "address",
              "name": "rolloverAuctionBidLocker",
              "type": "address"
            },
            {
              "internalType": "uint256",
              "name": "rolloverAmount",
              "type": "uint256"
            },
            {
              "internalType": "bytes32",
              "name": "rolloverBidPriceHash",
              "type": "bytes32"
            },
            {
              "internalType": "bool",
              "name": "processed",
              "type": "bool"
            }
          ],
          "internalType": "struct TermRepoRolloverElection",
          "name": "",
          "type": "tuple"
        }
      ],
      "stateMutability": "view",
      "type": "function"
    },
    {
      "inputs": [
        {
          "internalType": "bytes32",
          "name": "role",
          "type": "bytes32"
        },
        {
          "internalType": "address",
          "name": "account",
          "type": "address"
        }
      ],
      "name": "grantRole",
      "outputs": [],
      "stateMutability": "nonpayable",
      "type": "function"
    },
    {
      "inputs": [
        {
          "internalType": "bytes32",
          "name": "role",
          "type": "bytes32"
        },
        {
          "internalType": "address",
          "name": "account",
          "type": "address"
        }
      ],
      "name": "hasRole",
      "outputs": [
        {
          "internalType": "bool",
          "name": "",
          "type": "bool"
        }
      ],
      "stateMutability": "view",
      "type": "function"
    },
    {
      "inputs": [
        {
          "internalType": "string",
          "name": "termRepoId_",
          "type": "string"
        },
        {
          "internalType": "contract ITermRepoServicer",
          "name": "termRepoServicer_",
          "type": "address"
        },
        {
          "internalType": "contract ITermRepoCollateralManager",
          "name": "termRepoCollateralManager_",
          "type": "address"
        },
        {
          "internalType": "contract ITermController",
          "name": "termController_",
          "type": "address"
        },
        {
          "internalType": "address",
          "name": "termInitializer_",
          "type": "address"
        }
      ],
      "name": "initialize",
      "outputs": [],
      "stateMutability": "nonpayable",
      "type": "function"
    },
    {
      "inputs": [
        {
          "internalType": "address",
          "name": "termRepoServicer_",
          "type": "address"
        },
        {
          "internalType": "address",
          "name": "termDiamond_",
          "type": "address"
        },
        {
          "internalType": "contract ITermEventEmitter",
          "name": "emitter_",
          "type": "address"
        },
        {
          "internalType": "address",
          "name": "devopsMultisig_",
          "type": "address"
        },
        {
          "internalType": "address",
          "name": "adminWallet_",
          "type": "address"
        }
      ],
      "name": "pairTermContracts",
      "outputs": [],
      "stateMutability": "nonpayable",
      "type": "function"
    },
    {
      "inputs": [],
      "name": "proxiableUUID",
      "outputs": [
        {
          "internalType": "bytes32",
          "name": "",
          "type": "bytes32"
        }
      ],
      "stateMutability": "view",
      "type": "function"
    },
    {
      "inputs": [
        {
          "internalType": "bytes32",
          "name": "role",
          "type": "bytes32"
        },
        {
          "internalType": "address",
          "name": "callerConfirmation",
          "type": "address"
        }
      ],
      "name": "renounceRole",
      "outputs": [],
      "stateMutability": "nonpayable",
      "type": "function"
    },
    {
      "inputs": [
        {
          "internalType": "bytes32",
          "name": "role",
          "type": "bytes32"
        },
        {
          "internalType": "address",
          "name": "account",
          "type": "address"
        }
      ],
      "name": "revokeRole",
      "outputs": [],
      "stateMutability": "nonpayable",
      "type": "function"
    },
    {
      "inputs": [
        {
          "internalType": "contract ITermAuctionBidLocker",
          "name": "auctionBidLocker",
          "type": "address"
        }
      ],
      "name": "revokeRolloverApproval",
      "outputs": [],
      "stateMutability": "nonpayable",
      "type": "function"
    },
    {
      "inputs": [
        {
          "internalType": "bytes4",
          "name": "interfaceId",
          "type": "bytes4"
        }
      ],
      "name": "supportsInterface",
      "outputs": [
        {
          "internalType": "bool",
          "name": "",
          "type": "bool"
        }
      ],
      "stateMutability": "view",
      "type": "function"
    },
    {
      "inputs": [],
      "name": "termController",
      "outputs": [
        {
          "internalType": "contract ITermController",
          "name": "",
          "type": "address"
        }
      ],
      "stateMutability": "view",
      "type": "function"
    },
    {
      "inputs": [],
      "name": "termRepoId",
      "outputs": [
        {
          "internalType": "bytes32",
          "name": "",
          "type": "bytes32"
        }
      ],
      "stateMutability": "view",
      "type": "function"
    },
    {
      "inputs": [
        {
          "internalType": "address",
          "name": "newImplementation",
          "type": "address"
        },
        {
          "internalType": "bytes",
          "name": "data",
          "type": "bytes"
        }
      ],
      "name": "upgradeToAndCall",
      "outputs": [],
      "stateMutability": "payable",
      "type": "function"
    },
    {
      "inputs": [],
      "name": "version",
      "outputs": [
        {
          "internalType": "string",
          "name": "",
          "type": "string"
        }
      ],
      "stateMutability": "view",
      "type": "function"
    }
  ],
  "bytecode": "0x60a080604052346100cd57306080527ff0c57e16840df040f15088dc2f81fe391c3923bec73e23a9662efc9c229c6a009081549060ff8260401c166100be57506001600160401b036002600160401b031982821601610079575b604051612cf99081620000d3823960805181818161140101526114cf0152f35b6001600160401b031990911681179091556040519081527fc7f505b2f371ae2175ee4913f4499e1f2633a7b5936321eed1cdaeb6115181d290602090a1388080610059565b63f92ee8a960e01b8152600490fd5b600080fdfe608060409080825260048036101561001657600080fd5b600091823560e01c90816301ffc9a714611c15575080630b885ac314611a3a578063201a662514611a1157806321f09a20146119e7578063248a9ca3146119ae57806325c3ed471461198557806326147fce1461189757806327df3d3e1461186e5780632f2ff15d1461184557806334e6c7711461179f57806336568abe146117595780634ab964d01461173f5780634f1ef2861461145357806352d1902d146113eb57806354fd4d50146113a857806363a4027a1461137f57806367004d821461101657806375b238fc14610fed5780637910b46414610eab57806391d1485414610e5757806394aba07014610af7578063a217fddf14610adc578063ad3cb1cc14610a9b578063c9bd7256146109b9578063cc33cb4514610990578063cc5b6e4a14610973578063d547741f146109275763fd5d357a1461015857600080fd5b346107085760209283600319360112610923576001600160a01b039382358581169081900361091f576002548351631320834f60e01b808252959188169084818481855afa90811561047a5788916108f2575b504210156108e3576101bb6121b0565b600354855163e7e4b8db60e01b8152838101859052602497918a169086818a81855afa9081156104c257899188918c916108c6575b50159283610875575b50505061085f5785516325a24e5d60e11b808252919086818681895afa9081156104c2578a91610832575b50875191825286828681875afa9182156104c2578a92610803575b5010156107f357855190815284818481875afa90811561047a5788916107c6575b508551633d0f31f760e01b81529085828581865afa91821561049c578992610797575b50106107885784516354ae26b160e11b808252919085818581855afa90811561049c578991610753575b50865183815286818681895afa80156104c2578b908b9061071d575b8192501691160361063057505060019680600154168551630c87400960e11b815285818581855afa801561049c5789906105f8575b60ff91501690885b8281106105065750505082875260058452848720805460ff191660011790558451637d33274f60e01b8152969750879684818481875afa90811561047a5790829189916104cc575b50168160025416803b156104be57865189818a8183637eae9abd60e11b96878352888b8401525af180156104c257908a916104aa575b5050826001541690813b156104a65789918983928a5194859384928352878a8401525af1801561049c57908991610484575b50506103c190611ea9565b50815416908084885494875192838092636d73314160e01b82525afa94851561047a578895610442575b5050813b1561043e578660449281958751988996879563a34bfcd160e01b87528601528401525af190811561043557506104225750f35b61042b90611cab565b6104325780f35b80fd5b513d84823e3d90fd5b8680fd5b819850809295503d8311610473575b61045b8183611d25565b8101031261046e578695519238806103eb565b600080fd5b503d610451565b86513d8a823e3d90fd5b61048d90611cab565b6104985787386103b6565b8780fd5b87513d8b823e3d90fd5b8980fd5b6104b390611cab565b6104be578838610384565b8880fd5b88513d8c823e3d90fd5b809250868092503d83116104ff575b6104e58183611d25565b81010312610498575181811681036104985781903861034e565b503d6104db565b875163172c48c760e01b815285810182905287818b81865afa9081156105ee579085918c916105b2575b5016885163cffbc29760e01b8152818782015288818c818b5afa9081156105a8578c9161057b575b501561056657508a01610306565b858a918a519163fa842beb60e01b8352820152fd5b61059b9150893d8b116105a1575b6105938183611d25565b810190611dc5565b38610558565b503d610589565b8a513d8e823e3d90fd5b809250898092503d83116105e7575b6105cb8183611d25565b810103126105e3576105dd8591611ddd565b38610530565b8a80fd5b503d6105c1565b89513d8d823e3d90fd5b508581813d8311610629575b61060e8183611d25565b810103126104be575160ff811681036104be5760ff906102fe565b503d610604565b829792965084908651988980928582525afa9687156107135782976106d7575b5083908686518095819382525afa9283156106cb57819361068d575b50509151634b64dec160e11b815293849361068993508401611df1565b0390fd5b9091809350813d83116106c4575b6106a58183611d25565b810103126104325750906106bb61068992611ddd565b9091858061066c565b503d61069b565b508351903d90823e3d90fd5b9096508381813d831161070c575b6106ef8183611d25565b81010312610708576107018491611ddd565b9690610650565b5080fd5b503d6106e5565b85513d84823e3d90fd5b50508681813d831161074c575b6107348183611d25565b810103126104a6578a6107478192611ddd565b6102c9565b503d61072a565b90508581813d8311610781575b61076a8183611d25565b810103126104be5761077b90611ddd565b386102ad565b503d610760565b50835163920a080760e01b8152fd5b9091508581813d83116107bf575b6107af8183611d25565b8101031261046e57519038610283565b503d6107a5565b90508481813d83116107ec575b6107dd8183611d25565b8101031261046e575138610260565b503d6107d3565b8551632570863b60e01b81528390fd5b9091508681813d831161082b575b61081b8183611d25565b8101031261046e5751903861023f565b503d610811565b90508681813d8311610858575b6108498183611d25565b8101031261046e575138610224565b503d61083f565b8551632d1cae5560e21b81528084018590528790fd5b89516319afa63b60e11b815287810189905293509091839182905afa90811561049c5789916108a9575b50158786386101f9565b6108c09150863d88116105a1576105938183611d25565b3861089f565b6108dd9150823d84116105a1576105938183611d25565b386101f0565b5083516330fe947f60e11b8152fd5b90508481813d8311610918575b6109098183611d25565b8101031261046e5751386101ab565b503d6108ff565b8480fd5b8280fd5b50823461092357806003193601126109235761096f913561096a600161094b611c95565b93838752600080516020612c44833981519152602052862001546121e8565b612384565b5080f35b828434610708578160031936011261070857602091549051908152f35b82843461070857816003193601126107085760209051600080516020612c248339815191528152f35b509134610708576020366003190112610708576109d4611c7f565b90600080516020612be483398151915280600052600080516020612c44833981519152602052816000203360005260205260ff82600020541615610a7d5750829360018060a01b0380841685526006602052600383862001600160ff1982541617905581541692845493803b15610a7957610a6694868094865197889586948593633f2194cf60e01b85528401611dac565b03925af190811561043557506104225750f35b8580fd5b905163e2517d3f60e01b815233818601526024810191909152604490fd5b8284346107085781600319360112610708578051610ad891610abc82611d0a565b60058252640352e302e360dc1b60208301525191829182611d63565b0390f35b82843461070857816003193601126107085751908152602090f35b508234610923576060366003190112610923576002548151631320834f60e01b81526020936001600160a01b039290919083169085818481855afa908115610e4d578791610e20575b50421015610e115784602491855192838092632762697d60e01b825233878301525afa908115610e0657600091610dd9575b508015610dca57813591838316809314158061046e57836000526005875260ff86600020541615610db357336000526006875260ff600387600020015416610da457602435928315610d62578311610d5357336000526006875285600020858154168015159081610d44575b50610d2e575b5061046e5760443593610c558651610bfb81611cd4565b85815260038982018681528983018981526060840191600083523360005260068d52868c60002095511660018060a01b031986541617855551600185015551600284015551151591019060ff801983541691151516179055565b8154169260005493865163662db72560e11b815288818581865afa988915610d2357600099610cf3575b5050803b1561046e5760009560c494879389519a8b98899763b0b50c2360e01b895288015260248701523360448701526064860152608485015260a48401525af1908115610ce95750610cda575b50610cd73361244d565b80f35b610ce390611cab565b81610ccd565b513d6000823e3d90fd5b9080929950813d8311610d1c575b610d0b8183611d25565b8101031261046e5751968980610c7f565b503d610d01565b88513d6000823e3d90fd5b60016000910155610d3e3361244d565b88610be4565b9250508460009214158a610bde565b5084516306f6aad160e11b8152fd5b865163dd23c3ad60e01b8152808401899052601b60248201527a0526f6c6c6f76657220616d6f756e742063616e6e6f74206265203602c1b6044820152606490fd5b5084516369d7ecb560e11b8152fd5b855163f4024d0d60e01b8152808301859052602490fd5b50825163baca79c960e01b8152fd5b90508481813d8311610dff575b610df08183611d25565b8101031261046e575186610b72565b503d610de6565b84513d6000823e3d90fd5b5082516330fe947f60e11b8152fd5b90508581813d8311610e46575b610e378183611d25565b8101031261046e575187610b40565b503d610e2d565b85513d89823e3d90fd5b5082903461092357816003193601126109235781602093610e76611c95565b92358152600080516020612c448339815191528552209060018060a01b0316600052825260ff81600020541690519015158152f35b50346107085760a036600319011261070857610ec5611c7f565b92610ece611c95565b936001600160a01b03906044358281169190829003610a795760643590838216820361046e57610efc611c69565b92600080516020612bc483398151915280600052600080516020612c44833981519152602052866000203360005260205260ff87600020541615610fcf575060075460ff8116610fbf5760ff191660011760075586546001600160a01b03191617865595968796610f8e939192610f889291610f829190610f7c90611ea9565b50611f41565b50611fd9565b5061205f565b5082541691835490833b1561091f57610a6693859283855180978195829463e69a5f4760e01b845230918401611dac565b8651634ce377bb60e11b81528890fd5b865163e2517d3f60e01b815233818a01526024810191909152604490fd5b82843461070857816003193601126107085760209051600080516020612c848339815191528152f35b503461070857608036600319011261070857611030611c7f565b906060366023190112610923576002548451631320834f60e01b8152602092916001600160a01b03919082169084818581855afa908115611375578791611348575b504210156113385761108261215a565b865192632762697d60e01b84528484602481868a169586868301525afa938415610d2357600094611309575b5083156112fb5760243591838316809314158061046e57836000526005875260ff8a6000205416156112e457816000526006875260ff60038b6000200154166112d45760443595861561129257861161128257816000526006875289600020858154168015159081611273575b5061125d575b5061046e57606435936111938a5161113881611cd4565b8581526003898d8184018b815286828601928c845260066060880195600087528b6000525260002095511660018060a01b031986541617855551600185015551600284015551151591019060ff801983541691151516179055565b825416600054948a5163662db72560e11b815288818681895afa98891561125257600099611222575b5050813b1561046e5760009660c49588948d519a8b998a9863b0b50c2360e01b8a52890152602488015260448701526064860152608485015260a48401525af18015610e0657610cd7939450611213575b5061244d565b61121c90611cab565b3861120d565b9080929950813d831161124b575b61123a8183611d25565b8101031261046e57519638806111bc565b503d611230565b8c513d6000823e3d90fd5b6001600091015561126d8861244d565b38611121565b9250508460009214153861111b565b89516306f6aad160e11b81528390fd5b8a5163dd23c3ad60e01b8152808501899052601b60248201527a0526f6c6c6f76657220616d6f756e742063616e6e6f74206265203602c1b6044820152606490fd5b89516369d7ecb560e11b81528390fd5b895163f4024d0d60e01b8152808401859052602490fd5b875163baca79c960e01b8152fd5b9093508481813d8311611331575b6113218183611d25565b8101031261046e575192386110ae565b503d611317565b86516330fe947f60e11b81528390fd5b90508481813d831161136e575b61135f8183611d25565b8101031261046e575138611072565b503d611355565b88513d89823e3d90fd5b82843461070857816003193601126107085760209051600080516020612be48339815191528152f35b8284346107085781600319360112610708578051610ad8916113c982611d0a565b600b82526a19195d995b1bdc1b595b9d60aa1b60208301525191829182611d63565b50919034610432578060031936011261043257507f00000000000000000000000000000000000000000000000000000000000000006001600160a01b031630036114465760209051600080516020612c048339815191528152f35b5163703e46dd60e11b8152fd5b50828060031936011261092357611468611c7f565b60249390919084356001600160401b0381116107085736602382011215610708578085013561149681611d48565b946114a385519687611d25565b81865260209182870193368a8383010111610a79578186928b8693018737880101526001600160a01b037f00000000000000000000000000000000000000000000000000000000000000008116308114908115611723575b5061171357600080516020612b8483398151915280600052600080516020612c4483398151915284528660002033600052845260ff876000205416156116f6575080885416803b15610a7957858361156a928b838b5180968195829463b3c2d50b60e01b845230908401611df1565b03925af180156116ec579086916116d8575b505081169585516352d1902d60e01b815283818a818b5afa8691816116a9575b506115b8575050505050505191634c9c8ce360e01b8352820152fd5b9088888894938c600080516020612c04833981519152918281036116945750853b15611680575080546001600160a01b031916821790558451889392917fbc7cd75a20ee27fd9adebab32041f755214dbc6bffa90cc0225b39da2e5c2d3b8580a282511561166257505061096f9582915190845af4913d15611658573d61164a61164182611d48565b92519283611d25565b81528581943d92013e612b00565b5060609250612b00565b95509550505050503461167457505080f35b63b398979f60e01b8152fd5b8651634c9c8ce360e01b8152808501849052fd5b8751632a87526960e21b815280860191909152fd5b9091508481813d83116116d1575b6116c18183611d25565b8101031261046e5751908b61159c565b503d6116b7565b6116e190611cab565b61091f57848a61157c565b87513d88823e3d90fd5b865163e2517d3f60e01b815233818b0152808b0191909152604490fd5b855163703e46dd60e11b81528890fd5b905081600080516020612c04833981519152541614158a6114fb565b8234610432578060031936011261043257610cd73361221b565b509134610708578060031936011261070857611773611c95565b90336001600160a01b03831603611790575061096f919235612384565b5163334bd91960e11b81528390fd5b82843461070857602036600319011261070857608091816117be611c7f565b9180606083516117cd81611cd4565b8281528260208201528285820152015260018060a01b038093168152600660205220918051916117fc83611cd4565b83541692838352600181015460208401908152606060ff600360028501549486880195865201541694019315158452825194855251602085015251908301525115156060820152f35b50823461092357806003193601126109235761096f9135611869600161094b611c95565b6120e5565b82843461070857816003193601126107085760209051600080516020612bc48339815191528152f35b5082346109235782602092836003193601126107085780356001600160a01b038181169291839003611947576118cb6121b0565b8284526005865284842060ff198154169055815416908086855494875192838092636d73314160e01b82525afa96871561197b57859761194b575b5050813b15611947578360449286519788958694634b7025f760e01b865285015260248401525af1908115610435575061193e575080f35b610cd790611cab565b8380fd5b9080929750813d8311611974575b6119638183611d25565b810103126119475751948780611906565b503d611959565b86513d87823e3d90fd5b82843461070857816003193601126107085760035490516001600160a01b039091168152602090f35b508290346109235760203660031901126109235781602093600192358152600080516020612c4483398151915285522001549051908152f35b823461043257602036600319011261043257610cd7611a04611c7f565b611a0c61215a565b61221b565b82843461070857816003193601126107085760209051600080516020612b848339815191528152f35b508290346109235760a0366003190112610923576001600160401b03813581811161091f573660238201121561091f578083013590828211610a79573660248383010111610a79576001600160a01b03906024358281169081900361049857604435918383168093036104be576064359384168094036104be57611abc611c69565b94600080516020612ca48339815191529788549060ff828c1c161598821680159081611c0d575b6001149081611c03575b159081611bfa575b50611bec57506001600160401b031981166001178955611b8c9695949392918b91611b55916020918b611bd1575b50611b2c612407565b611b34612407565b8c519381859260248585019801883782019083820152038084520182611d25565b519020895560018060a01b031991826001541617600155816002541617600255600354161760035560ff1960075416600755611e0b565b50611b95578280f35b805460ff60401b1916905551600181527fc7f505b2f371ae2175ee4913f4499e1f2633a7b5936321eed1cdaeb6115181d290602090a181808280f35b6001600160481b0319166001600160401b01178c558e611b23565b8a5163f92ee8a960e01b8152fd5b9050158d611af5565b303b159150611aed565b8a9150611ae3565b91905034610923576020366003190112610923573563ffffffff60e01b81168091036109235760209250637965db0b60e01b8114908115611c58575b5015158152f35b6301ffc9a760e01b14905083611c51565b608435906001600160a01b038216820361046e57565b600435906001600160a01b038216820361046e57565b602435906001600160a01b038216820361046e57565b6001600160401b038111611cbe57604052565b634e487b7160e01b600052604160045260246000fd5b608081019081106001600160401b03821117611cbe57604052565b602081019081106001600160401b03821117611cbe57604052565b604081019081106001600160401b03821117611cbe57604052565b601f909101601f19168101906001600160401b03821190821017611cbe57604052565b6001600160401b038111611cbe57601f01601f191660200190565b6020808252825181830181905290939260005b828110611d9857505060409293506000838284010152601f8019910116010190565b818101860151848201604001528501611d76565b9081526001600160a01b03909116602082015260400190565b9081602091031261046e5751801515810361046e5790565b51906001600160a01b038216820361046e57565b6001600160a01b0391821681529116602082015260400190565b6001600160a01b031660008181527f44fa5399874b75da801cb431822b6afcadb876f84eb39d7f05bf697e94b4484e6020526040812054909190600080516020612bc483398151915290600080516020612c448339815191529060ff16611ea3578184526020526040832082845260205260408320600160ff19825416179055600080516020612b64833981519152339380a4600190565b50505090565b6001600160a01b031660008181527ff2dcef79d74eb22e4e48f3bc39a1333ea9249ba0e73de68b940ebf4ec36f54056020526040812054909190600080516020612be483398151915290600080516020612c448339815191529060ff16611ea3578184526020526040832082845260205260408320600160ff19825416179055600080516020612b64833981519152339380a4600190565b6001600160a01b031660008181527f0cfb002fcf8644f87ebf6cf6e31899c8d8e9f7c329b465b6e36989a958507e8b6020526040812054909190600080516020612b8483398151915290600080516020612c448339815191529060ff16611ea3578184526020526040832082845260205260408320600160ff19825416179055600080516020612b64833981519152339380a4600190565b6001600160a01b03166000818152600080516020612ba48339815191526020526040812054909190600080516020612c8483398151915290600080516020612c448339815191529060ff16611ea3578184526020526040832082845260205260408320600160ff19825416179055600080516020612b64833981519152339380a4600190565b6001600160a01b03166000818152600080516020612c648339815191526020526040812054909190600080516020612c2483398151915290600080516020612c448339815191529060ff16611ea3578184526020526040832082845260205260408320600160ff19825416179055600080516020612b64833981519152339380a4600190565b90600091808352600080516020612c4483398151915280602052604084209260018060a01b03169283855260205260ff60408520541615600014611ea3578184526020526040832082845260205260408320600160ff19825416179055600080516020612b64833981519152339380a4600190565b336000908152600080516020612c648339815191526020526040902054600080516020612c248339815191529060ff16156121925750565b6044906040519063e2517d3f60e01b82523360048301526024820152fd5b336000908152600080516020612ba48339815191526020526040902054600080516020612c848339815191529060ff16156121925750565b80600052600080516020612c4483398151915260205260406000203360005260205260ff60406000205416156121925750565b60025460408051632762697d60e01b81526001600160a01b0384811660048084018290529394919260209283908290602490829088165afa9081156123795760009161234c575b501561233c57806000526006825260018560002001541561232c57806000526006825260ff60038660002001541661231c5790816006926000528282526000600187822001556122b18761244d565b600052526000600384822082815582600182015582600282015501558154169260005493803b1561046e576122fe946000809486519788958694859363f6b650b160e01b85528401611dac565b03925af1908115610ce957506123115750565b61231a90611cab565b565b84516369d7ecb560e11b81528490fd5b845163cfa1b8cf60e01b81528490fd5b845163baca79c960e01b81528490fd5b90508281813d8311612372575b6123638183611d25565b8101031261046e575138612262565b503d612359565b86513d6000823e3d90fd5b90600091808352600080516020612c4483398151915280602052604084209260018060a01b03169283855260205260ff604085205416600014611ea357818452602052604083208284526020526040832060ff1981541690557ff6391f5c32d9c69d2a47ea670b442974b53935d1edc7fd64eb21e047a839171b339380a4600190565b60ff600080516020612ca48339815191525460401c161561242457565b604051631afcd79f60e31b8152600490fd5b6001600160401b038111611cbe5760051b60200190565b60018060a01b038116600052600660205260406000206040519161247083611cd4565b60018060a01b038254169182845260ff6003600183015492602087019384526002810154604088015201541615156060850152604051631abd3be960e11b8152602081600481875afa90811561286d57600091612abe575b50604051637a6944c560e01b815290602082600481885afa91821561286d57600092612a89575b509060206004926040519261250384611cef565b835260405163fa19d0ed60e01b815293849182906001600160a01b03165afa91821561286d57600092612a55575b506040519161253f83611cef565b8252600060405161254f81611cef565b5251905190818102918183041490151715612a3257670de0b6b3a7640000809104918260405161257e81611cef565b525191821580612a485782840293840483141715612a3257604051926125a384611cef565b8352810391818311612a3257604051926125bc84611cef565b835260006040516125cc81611cef565b52519181830292808404831490151715612a3257518015612a1c5760249204806040516125f881611cef565b52045b600154604051636f3fc39760e11b81526001600160a01b038581166004830152909360009285928391165afa91821561286d576000926128f6575b50815161264281612436565b906126506040519283611d25565b80825261265f601f1991612436565b0136602083013760405130606090811b602083019081526001600160601b031987831b166034840152602883529193919084018085116001600160401b0390911117611cbe57606084016040818152855190922098909101516002546354ae26b160e11b83526001600160a01b03169690916020906004818a5afa94851561286d576000956128b4575b50604051986001600160401b036101608b01908111908b1117611cbe576101608a01604052895260018060a01b03166020890152604088015260006060880152608087015260a086015260018060a01b031660c085015260e084015260016101008401526101208301526000610140830152803b1561046e576040805163730f807360e11b815260206004820181905284516024830152808501516001600160a01b0316604483015291840151606482015260608401516084820152608084015160a482015260a084015161016060c483015280516101848301819052919485936101a48501939192019060005b81811061289b5750505060c08101516001600160a01b031660e484015260e08101518383036023190161010485015280518084526020938401939091019060005b8181106128795750505061010081015115156101248401526101208101516001600160a01b0316610144840152610140015115156101648301526000929082900390829084905af1801561286d576123115750565b6040513d6000823e3d90fd5b82516001600160a01b0316855287955060209485019490920191600101612818565b82518552879550602094850194909201916001016127d7565b9094506020813d6020116128ee575b816128d360209360608401611d25565b8101031261046e5760606128e79101611ddd565b93386126e9565b3d91506128c3565b9091503d90816000823e61290a8282611d25565b604081838101031261046e578051916001600160401b03831161046e57808201601f84840101121561046e578282015161294381612436565b936129516040519586611d25565b818552602085019083850160208460051b83880101011161046e5790602082860101915b60208460051b82880101018310612a01575050505060208201516001600160401b03811161046e578201818301601f8201121561046e578051916020806129bb85612436565b6129c86040519182611d25565b858152019360051b8301019301831161046e57602001905b8282106129f1575050509038612636565b81518152602091820191016129e0565b6020808093612a0f86611ddd565b8152019301929150612975565b634e487b7160e01b600052601260045260246000fd5b634e487b7160e01b600052601160045260246000fd5b50505050602460006125fb565b9091506020813d602011612a81575b81612a7160209383611d25565b8101031261046e57519038612531565b3d9150612a64565b91506020823d602011612ab6575b81612aa460209383611d25565b8101031261046e5790519060206124ef565b3d9150612a97565b90506020813d602011612af8575b81612ad960209383611d25565b8101031261046e57516001600160a01b038116810361046e57386124c8565b3d9150612acc565b90612b275750805115612b1557805190602001fd5b60405163d6bda27560e01b8152600490fd5b81511580612b5a575b612b38575090565b604051639996b31560e01b81526001600160a01b039091166004820152602490fd5b50803b15612b3056fe2f8788117e7eff1d82e926ec794901d17c78024a50270940304540a733656f0d793a6c9b7e0a9549c74edc2f9ae0dc50903dfaa9a56fb0116b27a8c71de3e2c6b16e88c42fd4e48df2dd6a2eabd6bc9aec654ec170056b470819f8892cc6431c30d41a597cac127d8249d31298b50e481ee82c3f4a49ff93c76a22735aa9f3ad960771d60d61bb60ec2f92e1fcc4b84a2e0e340697e8b2b1256a2a12f5f59c69360894a13ba1a3210667c828492db98dca3e2076cc3735a920a3ca505d382bbcc36a8568220526774f62a808c5b8dd8b7191b32206f87b2bfd1149584358996302dd7bc7dec4dceedda775e58dd541e08a116c6c53815c0bd028192f7b62680071dad3b8d800ed6b81a4c9f84973579b8b42e673b9a0771be09894ef8040dd78a49807205ce4d355092ef5a8a18f56e8913cf4a201fbe287825b095693c21775f0c57e16840df040f15088dc2f81fe391c3923bec73e23a9662efc9c229c6a00a26469706673582212203e731b59dad2b18fd2d0cfc595dc8603675e495d71e7a440b6baf2594d88385b64736f6c63430008160033",
  "linkReferences": {},
  "deployedLinkReferences": {}
}