{
  "_format": "hh-sol-artifact-1",
  "contractName": "TermRepoRolloverManager",
  "sourceName": "contracts/TermRepoRolloverManager.sol",
  "abi": [
    {
      "inputs": [],
      "stateMutability": "nonpayable",
      "type": "constructor"
    },
    {
      "inputs": [],
      "name": "AlreadyTermContractPaired",
      "type": "error"
    },
    {
      "inputs": [],
      "name": "AuctionEndsAfterRepayment",
      "type": "error"
    },
    {
      "inputs": [],
      "name": "AuctionEndsBeforeMaturity",
      "type": "error"
    },
    {
      "inputs": [],
      "name": "BorrowerRepurchaseObligationInsufficient",
      "type": "error"
    },
    {
      "inputs": [
        {
          "internalType": "address",
          "name": "invalidCollateralToken",
          "type": "address"
        }
      ],
      "name": "CollateralTokenNotSupported",
      "type": "error"
    },
    {
      "inputs": [
        {
          "internalType": "address",
          "name": "currentPurchaseToken",
          "type": "address"
        },
        {
          "internalType": "address",
          "name": "rolloverPurchaseToken",
          "type": "address"
        }
      ],
      "name": "DifferentPurchaseToken",
      "type": "error"
    },
    {
      "inputs": [
        {
          "internalType": "string",
          "name": "reason",
          "type": "string"
        }
      ],
      "name": "InvalidParameters",
      "type": "error"
    },
    {
      "inputs": [],
      "name": "MaturityReached",
      "type": "error"
    },
    {
      "inputs": [],
      "name": "NoRolloverToCancel",
      "type": "error"
    },
    {
      "inputs": [
        {
          "internalType": "address",
          "name": "invalidAddress",
          "type": "address"
        }
      ],
      "name": "NotTermContract",
      "type": "error"
    },
    {
      "inputs": [],
      "name": "RepurchaseWindowOver",
      "type": "error"
    },
    {
      "inputs": [
        {
          "internalType": "address",
          "name": "invalidAddress",
          "type": "address"
        }
      ],
      "name": "RolloverAddressNotApproved",
      "type": "error"
    },
    {
      "inputs": [],
      "name": "RolloverLockedToAuction",
      "type": "error"
    },
    {
      "inputs": [],
      "name": "RolloverProcessedToTerm",
      "type": "error"
    },
    {
      "inputs": [],
      "name": "ZeroBorrowerRepurchaseObligation",
      "type": "error"
    },
    {
      "anonymous": false,
      "inputs": [
        {
          "indexed": false,
          "internalType": "address",
          "name": "previousAdmin",
          "type": "address"
        },
        {
          "indexed": false,
          "internalType": "address",
          "name": "newAdmin",
          "type": "address"
        }
      ],
      "name": "AdminChanged",
      "type": "event"
    },
    {
      "anonymous": false,
      "inputs": [
        {
          "indexed": true,
          "internalType": "address",
          "name": "beacon",
          "type": "address"
        }
      ],
      "name": "BeaconUpgraded",
      "type": "event"
    },
    {
      "anonymous": false,
      "inputs": [
        {
          "indexed": false,
          "internalType": "uint8",
          "name": "version",
          "type": "uint8"
        }
      ],
      "name": "Initialized",
      "type": "event"
    },
    {
      "anonymous": false,
      "inputs": [
        {
          "indexed": true,
          "internalType": "bytes32",
          "name": "role",
          "type": "bytes32"
        },
        {
          "indexed": true,
          "internalType": "bytes32",
          "name": "previousAdminRole",
          "type": "bytes32"
        },
        {
          "indexed": true,
          "internalType": "bytes32",
          "name": "newAdminRole",
          "type": "bytes32"
        }
      ],
      "name": "RoleAdminChanged",
      "type": "event"
    },
    {
      "anonymous": false,
      "inputs": [
        {
          "indexed": true,
          "internalType": "bytes32",
          "name": "role",
          "type": "bytes32"
        },
        {
          "indexed": true,
          "internalType": "address",
          "name": "account",
          "type": "address"
        },
        {
          "indexed": true,
          "internalType": "address",
          "name": "sender",
          "type": "address"
        }
      ],
      "name": "RoleGranted",
      "type": "event"
    },
    {
      "anonymous": false,
      "inputs": [
        {
          "indexed": true,
          "internalType": "bytes32",
          "name": "role",
          "type": "bytes32"
        },
        {
          "indexed": true,
          "internalType": "address",
          "name": "account",
          "type": "address"
        },
        {
          "indexed": true,
          "internalType": "address",
          "name": "sender",
          "type": "address"
        }
      ],
      "name": "RoleRevoked",
      "type": "event"
    },
    {
      "anonymous": false,
      "inputs": [
        {
          "indexed": true,
          "internalType": "address",
          "name": "implementation",
          "type": "address"
        }
      ],
      "name": "Upgraded",
      "type": "event"
    },
    {
      "inputs": [],
      "name": "ADMIN_ROLE",
      "outputs": [
        {
          "internalType": "bytes32",
          "name": "",
          "type": "bytes32"
        }
      ],
      "stateMutability": "view",
      "type": "function"
    },
    {
      "inputs": [],
      "name": "DEFAULT_ADMIN_ROLE",
      "outputs": [
        {
          "internalType": "bytes32",
          "name": "",
          "type": "bytes32"
        }
      ],
      "stateMutability": "view",
      "type": "function"
    },
    {
      "inputs": [],
      "name": "DEVOPS_ROLE",
      "outputs": [
        {
          "internalType": "bytes32",
          "name": "",
          "type": "bytes32"
        }
      ],
      "stateMutability": "view",
      "type": "function"
    },
    {
      "inputs": [],
      "name": "INITIALIZER_ROLE",
      "outputs": [
        {
          "internalType": "bytes32",
          "name": "",
          "type": "bytes32"
        }
      ],
      "stateMutability": "view",
      "type": "function"
    },
    {
      "inputs": [],
      "name": "ROLLOVER_BID_FULFILLER_ROLE",
      "outputs": [
        {
          "internalType": "bytes32",
          "name": "",
          "type": "bytes32"
        }
      ],
      "stateMutability": "view",
      "type": "function"
    },
    {
      "inputs": [
        {
          "internalType": "contract ITermAuctionBidLocker",
          "name": "auctionBidLocker",
          "type": "address"
        },
        {
          "internalType": "address",
          "name": "termAuction",
          "type": "address"
        }
      ],
      "name": "approveRolloverAuction",
      "outputs": [],
      "stateMutability": "nonpayable",
      "type": "function"
    },
    {
      "inputs": [],
      "name": "cancelRollover",
      "outputs": [],
      "stateMutability": "nonpayable",
      "type": "function"
    },
    {
      "inputs": [
        {
          "components": [
            {
              "internalType": "address",
              "name": "rolloverAuction",
              "type": "address"
            },
            {
              "internalType": "uint256",
              "name": "rolloverAmount",
              "type": "uint256"
            },
            {
              "internalType": "bytes32",
              "name": "rolloverBidPriceHash",
              "type": "bytes32"
            }
          ],
          "internalType": "struct TermRepoRolloverElectionSubmission",
          "name": "termRepoRolloverElectionSubmission",
          "type": "tuple"
        }
      ],
      "name": "electRollover",
      "outputs": [],
      "stateMutability": "nonpayable",
      "type": "function"
    },
    {
      "inputs": [
        {
          "internalType": "address",
          "name": "borrower",
          "type": "address"
        }
      ],
      "name": "fulfillRollover",
      "outputs": [],
      "stateMutability": "nonpayable",
      "type": "function"
    },
    {
      "inputs": [
        {
          "internalType": "bytes32",
          "name": "role",
          "type": "bytes32"
        }
      ],
      "name": "getRoleAdmin",
      "outputs": [
        {
          "internalType": "bytes32",
          "name": "",
          "type": "bytes32"
        }
      ],
      "stateMutability": "view",
      "type": "function"
    },
    {
      "inputs": [
        {
          "internalType": "address",
          "name": "borrower",
          "type": "address"
        }
      ],
      "name": "getRolloverInstructions",
      "outputs": [
        {
          "components": [
            {
              "internalType": "address",
              "name": "rolloverAuction",
              "type": "address"
            },
            {
              "internalType": "uint256",
              "name": "rolloverAmount",
              "type": "uint256"
            },
            {
              "internalType": "bytes32",
              "name": "rolloverBidPriceHash",
              "type": "bytes32"
            },
            {
              "internalType": "bool",
              "name": "processed",
              "type": "bool"
            }
          ],
          "internalType": "struct TermRepoRolloverElection",
          "name": "",
          "type": "tuple"
        }
      ],
      "stateMutability": "view",
      "type": "function"
    },
    {
      "inputs": [
        {
          "internalType": "bytes32",
          "name": "role",
          "type": "bytes32"
        },
        {
          "internalType": "address",
          "name": "account",
          "type": "address"
        }
      ],
      "name": "grantRole",
      "outputs": [],
      "stateMutability": "nonpayable",
      "type": "function"
    },
    {
      "inputs": [
        {
          "internalType": "bytes32",
          "name": "role",
          "type": "bytes32"
        },
        {
          "internalType": "address",
          "name": "account",
          "type": "address"
        }
      ],
      "name": "hasRole",
      "outputs": [
        {
          "internalType": "bool",
          "name": "",
          "type": "bool"
        }
      ],
      "stateMutability": "view",
      "type": "function"
    },
    {
      "inputs": [
        {
          "internalType": "string",
          "name": "termRepoId_",
          "type": "string"
        },
        {
          "internalType": "contract ITermRepoServicer",
          "name": "termRepoServicer_",
          "type": "address"
        },
        {
          "internalType": "contract ITermRepoCollateralManager",
          "name": "termRepoCollateralManager_",
          "type": "address"
        },
        {
          "internalType": "contract ITermController",
          "name": "termController_",
          "type": "address"
        },
        {
          "internalType": "address",
          "name": "termInitializer_",
          "type": "address"
        }
      ],
      "name": "initialize",
      "outputs": [],
      "stateMutability": "nonpayable",
      "type": "function"
    },
    {
      "inputs": [
        {
          "internalType": "address",
          "name": "termRepoServicer_",
          "type": "address"
        },
        {
          "internalType": "contract ITermEventEmitter",
          "name": "emitter_",
          "type": "address"
        },
        {
          "internalType": "address",
          "name": "devopsMultisig_",
          "type": "address"
        },
        {
          "internalType": "address",
          "name": "adminWallet_",
          "type": "address"
        }
      ],
      "name": "pairTermContracts",
      "outputs": [],
      "stateMutability": "nonpayable",
      "type": "function"
    },
    {
      "inputs": [],
      "name": "proxiableUUID",
      "outputs": [
        {
          "internalType": "bytes32",
          "name": "",
          "type": "bytes32"
        }
      ],
      "stateMutability": "view",
      "type": "function"
    },
    {
      "inputs": [
        {
          "internalType": "bytes32",
          "name": "role",
          "type": "bytes32"
        },
        {
          "internalType": "address",
          "name": "account",
          "type": "address"
        }
      ],
      "name": "renounceRole",
      "outputs": [],
      "stateMutability": "nonpayable",
      "type": "function"
    },
    {
      "inputs": [
        {
          "internalType": "bytes32",
          "name": "role",
          "type": "bytes32"
        },
        {
          "internalType": "address",
          "name": "account",
          "type": "address"
        }
      ],
      "name": "revokeRole",
      "outputs": [],
      "stateMutability": "nonpayable",
      "type": "function"
    },
    {
      "inputs": [
        {
          "internalType": "contract ITermAuctionBidLocker",
          "name": "auctionBidLocker",
          "type": "address"
        }
      ],
      "name": "revokeRolloverApproval",
      "outputs": [],
      "stateMutability": "nonpayable",
      "type": "function"
    },
    {
      "inputs": [
        {
          "internalType": "bytes4",
          "name": "interfaceId",
          "type": "bytes4"
        }
      ],
      "name": "supportsInterface",
      "outputs": [
        {
          "internalType": "bool",
          "name": "",
          "type": "bool"
        }
      ],
      "stateMutability": "view",
      "type": "function"
    },
    {
      "inputs": [],
      "name": "termRepoId",
      "outputs": [
        {
          "internalType": "bytes32",
          "name": "",
          "type": "bytes32"
        }
      ],
      "stateMutability": "view",
      "type": "function"
    },
    {
      "inputs": [
        {
          "internalType": "address",
          "name": "newImplementation",
          "type": "address"
        }
      ],
      "name": "upgradeTo",
      "outputs": [],
      "stateMutability": "nonpayable",
      "type": "function"
    },
    {
      "inputs": [
        {
          "internalType": "address",
          "name": "newImplementation",
          "type": "address"
        },
        {
          "internalType": "bytes",
          "name": "data",
          "type": "bytes"
        }
      ],
      "name": "upgradeToAndCall",
      "outputs": [],
      "stateMutability": "payable",
      "type": "function"
    },
    {
      "inputs": [],
      "name": "version",
      "outputs": [
        {
          "internalType": "string",
          "name": "",
          "type": "string"
        }
      ],
      "stateMutability": "view",
      "type": "function"
    }
  ],
  "bytecode": "0x60a0604052306080523480156200001557600080fd5b506200002062000026565b620000e7565b600054610100900460ff1615620000935760405162461bcd60e51b815260206004820152602760248201527f496e697469616c697a61626c653a20636f6e747261637420697320696e697469604482015266616c697a696e6760c81b606482015260840160405180910390fd5b60005460ff90811614620000e5576000805460ff191660ff9081179091556040519081527f7f26b83ff96e1f2b6a682f133852f6798a09c465da95921460cefb38474024989060200160405180910390a15b565b6080516131b56200011f600039600081816108a3015281816108e301528181610b3f01528181610b7f0152610bf701526131b56000f3fe60806040526004361061012b5760003560e01c806352d1902d116100a657806352d1902d1461037e57806354fd4d501461039357806363a4027a146103cd57806375b238fc146103ef57806391d148541461041157806394aba07014610431578063a217fddf14610451578063a8f421c214610466578063c9bd725614610486578063cc5b6e4a146104a6578063d547741f146104bc578063dc371e1b146104dc57600080fd5b806301ffc9a7146101305780630b885ac314610165578063201a662514610187578063248a9ca3146101b757806326147fce146101e757806327df3d3e146102075780632f2ff15d1461022957806334e6c7711461024957806336568abe146103165780633659cfe6146103365780634ab964d0146103565780634f1ef2861461036b575b600080fd5b34801561013c57600080fd5b5061015061014b36600461281e565b6104fc565b60405190151581526020015b60405180910390f35b34801561017157600080fd5b5061018561018036600461286d565b610533565b005b34801561019357600080fd5b506101a96000805160206130b983398151915281565b60405190815260200161015c565b3480156101c357600080fd5b506101a96101d2366004612920565b600090815260c9602052604090206001015490565b3480156101f357600080fd5b50610185610202366004612939565b6106ec565b34801561021357600080fd5b506101a96000805160206130d983398151915281565b34801561023557600080fd5b50610185610244366004612956565b6107f1565b34801561025557600080fd5b506102d8610264366004612939565b60408051608080820183526000808352602080840182905283850182905260609384018290526001600160a01b039586168252610101815290849020845192830185528054909516825260018501549082015260028401549281019290925260039092015460ff1615159181019190915290565b60405161015c919081516001600160a01b03168152602080830151908201526040808301519082015260609182015115159181019190915260800190565b34801561032257600080fd5b50610185610331366004612956565b61081b565b34801561034257600080fd5b50610185610351366004612939565b610899565b34801561036257600080fd5b50610185610961565b6101856103793660046129d9565b610b35565b34801561038a57600080fd5b506101a9610bea565b34801561039f57600080fd5b50604080518082018252600b81526a19195d995b1bdc1b595b9d60aa1b6020820152905161015c9190612aa4565b3480156103d957600080fd5b506101a96000805160206130f983398151915281565b3480156103fb57600080fd5b506101a960008051602061316083398151915281565b34801561041d57600080fd5b5061015061042c366004612956565b610c98565b34801561043d57600080fd5b5061018561044c366004612ad7565b610cc3565b34801561045d57600080fd5b506101a9600081565b34801561047257600080fd5b50610185610481366004612aef565b6110c9565b34801561049257600080fd5b506101856104a1366004612939565b6111e5565b3480156104b257600080fd5b506101a960fb5481565b3480156104c857600080fd5b506101856104d7366004612956565b611250565b3480156104e857600080fd5b506101856104f7366004612b4b565b611275565b60006001600160e01b03198216637965db0b60e01b148061052d57506301ffc9a760e01b6001600160e01b03198316145b92915050565b600054610100900460ff16158080156105535750600054600160ff909116105b80610574575061056230611b82565b158015610574575060005460ff166001145b6105dc5760405162461bcd60e51b815260206004820152602e60248201527f496e697469616c697a61626c653a20636f6e747261637420697320616c72656160448201526d191e481a5b9a5d1a585b1a5e995960921b60648201526084015b60405180910390fd5b6000805460ff1916600117905580156105ff576000805461ff0019166101001790555b610607611b91565b61060f611b91565b8686604051602001610622929190612b79565b60408051601f19818403018152919052805160209091012060fb5560fc80546001600160a01b038087166001600160a01b03199283161790925560fd805488841690831617905560fe805492861692909116919091179055610102805460ff1916905561069d6000805160206130d983398151915283611bfe565b80156106e3576000805461ff0019169055604051600181527f7f26b83ff96e1f2b6a682f133852f6798a09c465da95921460cefb38474024989060200160405180910390a15b50505050505050565b60008051602061316083398151915261070481611c84565b6001600160a01b0380831660008181526101006020908152604091829020805460ff1916905560ff5460fb548351636d73314160e01b815293519190951694634b7025f79490939092636d733141926004808401938290030181865afa158015610772573d6000803e3d6000fd5b505050506040513d601f19601f820116820180604052508101906107969190612b89565b6040516001600160e01b031960e085901b168152600481019290925260248201526044015b600060405180830381600087803b1580156107d557600080fd5b505af11580156107e9573d6000803e3d6000fd5b505050505050565b600082815260c9602052604090206001015461080c81611c84565b6108168383611bfe565b505050565b6001600160a01b038116331461088b5760405162461bcd60e51b815260206004820152602f60248201527f416363657373436f6e74726f6c3a2063616e206f6e6c792072656e6f756e636560448201526e103937b632b9903337b91039b2b63360891b60648201526084016105d3565b6108958282611c8e565b5050565b6001600160a01b037f00000000000000000000000000000000000000000000000000000000000000001630036108e15760405162461bcd60e51b81526004016105d390612ba2565b7f00000000000000000000000000000000000000000000000000000000000000006001600160a01b0316610913611cf5565b6001600160a01b0316146109395760405162461bcd60e51b81526004016105d390612bee565b61094281611d11565b6040805160008082526020820190925261095e91839190611d5b565b50565b60fd54604051632762697d60e01b815233916001600160a01b031690632762697d90610991908490600401612c3a565b602060405180830381865afa1580156109ae573d6000803e3d6000fd5b505050506040513d601f19601f820116820180604052508101906109d29190612b89565b6000036109f25760405163baca79c960e01b815260040160405180910390fd5b6001600160a01b038116600090815261010160205260408120600101549003610a2e5760405163cfa1b8cf60e01b815260040160405180910390fd5b6001600160a01b0381166000908152610101602052604090206003015460ff1615610a6c576040516369d7ecb560e11b815260040160405180910390fd5b6001600160a01b03811660009081526101016020526040812060010155610a9281611ec6565b6001600160a01b038082166000908152610101602052604080822080546001600160a01b03191681556001810183905560028101929092556003909101805460ff1916905560ff5460fb54915163f6b650b160e01b815292169163f6b650b191610b00918590600401612c4e565b600060405180830381600087803b158015610b1a57600080fd5b505af1158015610b2e573d6000803e3d6000fd5b5050505050565b6001600160a01b037f0000000000000000000000000000000000000000000000000000000000000000163003610b7d5760405162461bcd60e51b81526004016105d390612ba2565b7f00000000000000000000000000000000000000000000000000000000000000006001600160a01b0316610baf611cf5565b6001600160a01b031614610bd55760405162461bcd60e51b81526004016105d390612bee565b610bde82611d11565b61089582826001611d5b565b6000306001600160a01b037f00000000000000000000000000000000000000000000000000000000000000001614610c855760405162461bcd60e51b815260206004820152603860248201527f555550535570677261646561626c653a206d757374206e6f742062652063616c6044820152771b1959081d1a1c9bdd59da0819195b1959d85d1958d85b1b60421b60648201526084016105d3565b5060008051602061311983398151915290565b600091825260c9602090815260408084206001600160a01b0393909316845291905290205460ff1690565b60fd60009054906101000a90046001600160a01b03166001600160a01b0316633d0f31f76040518163ffffffff1660e01b8152600401602060405180830381865afa158015610d16573d6000803e3d6000fd5b505050506040513d601f19601f82011682018060405250810190610d3a9190612b89565b4210610d5957604051630bfaaefb60e31b815260040160405180910390fd5b60fd54604051632762697d60e01b815233916000916001600160a01b0390911690632762697d90610d8e908590600401612c3a565b602060405180830381865afa158015610dab573d6000803e3d6000fd5b505050506040513d601f19601f82011682018060405250810190610dcf9190612b89565b905080600003610df25760405163baca79c960e01b815260040160405180910390fd5b6101006000610e046020860186612939565b6001600160a01b0316815260208101919091526040016000205460ff16610e4c57610e326020840184612939565b60405163f4024d0d60e01b81526004016105d39190612c3a565b6001600160a01b0382166000908152610101602052604090206003015460ff1615610e8a576040516369d7ecb560e11b815260040160405180910390fd5b8260200135600003610edd5760405163dd23c3ad60e01b815260206004820152601b60248201527a0526f6c6c6f76657220616d6f756e742063616e6e6f74206265203602c1b60448201526064016105d3565b8260200135811015610f02576040516306f6aad160e11b815260040160405180910390fd5b604080516080810190915280610f1b6020860186612939565b6001600160a01b0390811682526020868101803582850152604080890135818601526000606095860181905288851681526101018452818120875181546001600160a01b0319169616959095178555928601516001850155850151600284015593909201516003909101805460ff191691151591909117905590610f9f9085612939565b905060ff60009054906101000a90046001600160a01b03166001600160a01b031663b0b50c2360fb54836001600160a01b031663cc5b6e4a6040518163ffffffff1660e01b8152600401602060405180830381865afa158015611006573d6000803e3d6000fd5b505050506040513d601f19601f8201168201806040525081019061102a9190612b89565b8661103860208a018a612939565b604080516001600160e01b031960e088901b168152600481019590955260248501939093526001600160a01b0391821660448501521660648301526020880135608483015287013560a482015260c401600060405180830381600087803b1580156110a257600080fd5b505af11580156110b6573d6000803e3d6000fd5b505050506110c383611ec6565b50505050565b6000805160206130d98339815191526110e181611c84565b6101025460ff161561110657604051634ce377bb60e11b815260040160405180910390fd5b610102805460ff1916600117905560ff80546001600160a01b0386166001600160a01b03199091161790556111496000805160206130f983398151915286611bfe565b6111616000805160206130b983398151915284611bfe565b61117960008051602061316083398151915283611bfe565b60ff5460fb5460405163e69a5f4760e01b81526001600160a01b039092169163e69a5f47916111ac913090600401612c4e565b600060405180830381600087803b1580156111c657600080fd5b505af11580156111da573d6000803e3d6000fd5b505050505050505050565b6000805160206130f98339815191526111fd81611c84565b6001600160a01b038083166000908152610101602052604090819020600301805460ff1916600117905560ff5460fb549151633f2194cf60e01b8152921691633f2194cf916107bb918690600401612c4e565b600082815260c9602052604090206001015461126b81611c84565b6108168383611c8e565b60008051602061316083398151915261128d81611c84565b60fd60009054906101000a90046001600160a01b03166001600160a01b0316633d0f31f76040518163ffffffff1660e01b8152600401602060405180830381865afa1580156112e0573d6000803e3d6000fd5b505050506040513d601f19601f820116820180604052508101906113049190612b89565b421061132357604051630bfaaefb60e31b815260040160405180910390fd5b60fe5460405163e7e4b8db60e01b81526001600160a01b039091169063e7e4b8db90611353908690600401612c3a565b602060405180830381865afa158015611370573d6000803e3d6000fd5b505050506040513d601f19601f820116820180604052508101906113949190612c65565b6113b35782604051632d1cae5560e21b81526004016105d39190612c3a565b60fe5460405163e7e4b8db60e01b81526001600160a01b039091169063e7e4b8db906113e3908590600401612c3a565b602060405180830381865afa158015611400573d6000803e3d6000fd5b505050506040513d601f19601f820116820180604052508101906114249190612c65565b6114435781604051632d1cae5560e21b81526004016105d39190612c3a565b60fd60009054906101000a90046001600160a01b03166001600160a01b0316631320834f6040518163ffffffff1660e01b8152600401602060405180830381865afa158015611496573d6000803e3d6000fd5b505050506040513d601f19601f820116820180604052508101906114ba9190612b89565b836001600160a01b0316634b449cba6040518163ffffffff1660e01b8152600401602060405180830381865afa1580156114f8573d6000803e3d6000fd5b505050506040513d601f19601f8201168201806040525081019061151c9190612b89565b111561153b57604051632570863b60e01b815260040160405180910390fd5b60fd60009054906101000a90046001600160a01b03166001600160a01b0316633d0f31f76040518163ffffffff1660e01b8152600401602060405180830381865afa15801561158e573d6000803e3d6000fd5b505050506040513d601f19601f820116820180604052508101906115b29190612b89565b836001600160a01b0316634b449cba6040518163ffffffff1660e01b8152600401602060405180830381865afa1580156115f0573d6000803e3d6000fd5b505050506040513d601f19601f820116820180604052508101906116149190612b89565b10156116335760405163920a080760e01b815260040160405180910390fd5b826001600160a01b031663a95c4d626040518163ffffffff1660e01b8152600401602060405180830381865afa158015611671573d6000803e3d6000fd5b505050506040513d601f19601f820116820180604052508101906116959190612c87565b6001600160a01b031660fd60009054906101000a90046001600160a01b03166001600160a01b031663a95c4d626040518163ffffffff1660e01b8152600401602060405180830381865afa1580156116f1573d6000803e3d6000fd5b505050506040513d601f19601f820116820180604052508101906117159190612c87565b6001600160a01b0316146118175760fd60009054906101000a90046001600160a01b03166001600160a01b031663a95c4d626040518163ffffffff1660e01b8152600401602060405180830381865afa158015611776573d6000803e3d6000fd5b505050506040513d601f19601f8201168201806040525081019061179a9190612c87565b836001600160a01b031663a95c4d626040518163ffffffff1660e01b8152600401602060405180830381865afa1580156117d8573d6000803e3d6000fd5b505050506040513d601f19601f820116820180604052508101906117fc9190612c87565b604051634b64dec160e11b81526004016105d3929190612ca4565b60fc5460408051630c87400960e11b815290516000926001600160a01b03169163190e80129160048083019260209291908290030181865afa158015611861573d6000803e3d6000fd5b505050506040513d601f19601f820116820180604052508101906118859190612cbe565b60ff16905060005b818110156119a35760fc5460405163172c48c760e01b8152600481018390526000916001600160a01b03169063172c48c790602401602060405180830381865afa1580156118df573d6000803e3d6000fd5b505050506040513d601f19601f820116820180604052508101906119039190612c87565b60405163cffbc29760e01b81529091506001600160a01b0387169063cffbc29790611932908490600401612c3a565b602060405180830381865afa15801561194f573d6000803e3d6000fd5b505050506040513d601f19601f820116820180604052508101906119739190612c65565b611992578060405163fa842beb60e01b81526004016105d39190612c3a565b5061199c81612cf7565b905061188d565b506001600160a01b038085166000908152610100602052604090819020805460ff1916600117905560fd549051637eae9abd60e11b815291169063fd5d357a906119f1908690600401612c3a565b600060405180830381600087803b158015611a0b57600080fd5b505af1158015611a1f573d6000803e3d6000fd5b505060fc54604051637eae9abd60e11b81526001600160a01b03909116925063fd5d357a9150611a53908690600401612c3a565b600060405180830381600087803b158015611a6d57600080fd5b505af1158015611a81573d6000803e3d6000fd5b50505050611a9d6000805160206130f983398151915284611bfe565b60ff60009054906101000a90046001600160a01b03166001600160a01b031663a34bfcd160fb54866001600160a01b0316636d7331416040518163ffffffff1660e01b8152600401602060405180830381865afa158015611b02573d6000803e3d6000fd5b505050506040513d601f19601f82011682018060405250810190611b269190612b89565b6040516001600160e01b031960e085901b16815260048101929092526024820152604401600060405180830381600087803b158015611b6457600080fd5b505af1158015611b78573d6000803e3d6000fd5b5050505050505050565b6001600160a01b03163b151590565b600054610100900460ff16611bfc5760405162461bcd60e51b815260206004820152602b60248201527f496e697469616c697a61626c653a20636f6e7472616374206973206e6f74206960448201526a6e697469616c697a696e6760a81b60648201526084016105d3565b565b611c088282610c98565b61089557600082815260c9602090815260408083206001600160a01b03851684529091529020805460ff19166001179055611c403390565b6001600160a01b0316816001600160a01b0316837f2f8788117e7eff1d82e926ec794901d17c78024a50270940304540a733656f0d60405160405180910390a45050565b61095e813361231a565b611c988282610c98565b1561089557600082815260c9602090815260408083206001600160a01b0385168085529252808320805460ff1916905551339285917ff6391f5c32d9c69d2a47ea670b442974b53935d1edc7fd64eb21e047a839171b9190a45050565b600080516020613119833981519152546001600160a01b031690565b6000805160206130b9833981519152611d2981611c84565b60ff5460405163b3c2d50b60e01b81526001600160a01b039091169063b3c2d50b906107bb9030908690600401612ca4565b7f4910fdfa16fed3260ed0e7147f7cc6da11a60208b5b9406d12a635614ffd91435460ff1615611d8e5761081683612373565b826001600160a01b03166352d1902d6040518163ffffffff1660e01b8152600401602060405180830381865afa925050508015611de8575060408051601f3d908101601f19168201909252611de591810190612b89565b60015b611e4b5760405162461bcd60e51b815260206004820152602e60248201527f45524331393637557067726164653a206e657720696d706c656d656e7461746960448201526d6f6e206973206e6f74205555505360901b60648201526084016105d3565b6000805160206131198339815191528114611eba5760405162461bcd60e51b815260206004820152602960248201527f45524331393637557067726164653a20756e737570706f727465642070726f786044820152681a58589b195555525160ba1b60648201526084016105d3565b5061081683838361240d565b6001600160a01b038082166000908152610101602090815260408083208151608081018352815490951680865260018201548685015260028201548684015260039091015460ff16151560608601528151631abd3be960e11b81529151909392849263357a77d292600480830193928290030181865afa158015611f4e573d6000803e3d6000fd5b505050506040513d601f19601f82011682018060405250810190611f729190612c87565b9050600061205d6040518060200160405280856001600160a01b0316637a6944c56040518163ffffffff1660e01b8152600401602060405180830381865afa158015611fc2573d6000803e3d6000fd5b505050506040513d601f19601f82011682018060405250810190611fe69190612b89565b8152506040518060200160405280856001600160a01b031663fa19d0ed6040518163ffffffff1660e01b8152600401602060405180830381865afa158015612032573d6000803e3d6000fd5b505050506040513d601f19601f820116820180604052508101906120569190612b89565b9052612432565b516020850151909150600090156120ca576120c36120be6040518060200160405280670de0b6b3a764000089602001516120979190612d10565b90526040805160208101909152806120b787670de0b6b3a7640000612d27565b905261247a565b6124b4565b90506120ce565b5060005b60fc54604051636f3fc39760e11b81526000916001600160a01b03169063de7f872e906120ff908a90600401612c3a565b600060405180830381865afa15801561211c573d6000803e3d6000fd5b505050506040513d6000823e601f3d908101601f191682016040526121449190810190612dc8565b509050600081516001600160401b0381111561216257612162612993565b60405190808252806020026020018201604052801561218b578160200160208202803683370190505b506040805161016081019091526001600160601b031930606090811b82166101808401528b901b16610194820152909150600090806101a881016040516020818303038152906040528051906020012081526020018a6001600160a01b03168152602001896040015181526020016000815260200185815260200183815260200160fd60009054906101000a90046001600160a01b03166001600160a01b031663a95c4d626040518163ffffffff1660e01b8152600401602060405180830381865afa15801561225f573d6000803e3d6000fd5b505050506040513d601f19601f820116820180604052508101906122839190612c87565b6001600160a01b03908116825260208201869052600160408084019190915260fd54821660608401526000608090930192909252905163730f807360e11b815291925088169063e61f00e6906122dd908490600401612f00565b600060405180830381600087803b1580156122f757600080fd5b505af115801561230b573d6000803e3d6000fd5b50505050505050505050505050565b6123248282610c98565b61089557612331816124cc565b61233c8360206124de565b60405160200161234d929190612fcb565b60408051601f198184030181529082905262461bcd60e51b82526105d391600401612aa4565b61237c81611b82565b6123de5760405162461bcd60e51b815260206004820152602d60248201527f455243313936373a206e657720696d706c656d656e746174696f6e206973206e60448201526c1bdd08184818dbdb9d1c9858dd609a1b60648201526084016105d3565b60008051602061311983398151915280546001600160a01b0319166001600160a01b0392909216919091179055565b61241683612680565b6000825111806124235750805b15610816576110c383836126c0565b6040805160208101909152600081526040518060200160405280670de0b6b3a7640000612467866000015186600001516126e5565b612471919061303a565b90529392505050565b60408051602081019091526000815260405180602001604052806124716124ad8660000151670de0b6b3a76400006126e5565b85516126f1565b805160009061052d90670de0b6b3a76400009061303a565b606061052d6001600160a01b03831660145b606060006124ed836002612d10565b6124f890600261305c565b6001600160401b0381111561250f5761250f612993565b6040519080825280601f01601f191660200182016040528015612539576020820181803683370190505b509050600360fc1b816000815181106125545761255461306f565b60200101906001600160f81b031916908160001a905350600f60fb1b816001815181106125835761258361306f565b60200101906001600160f81b031916908160001a90535060006125a7846002612d10565b6125b290600161305c565b90505b600181111561262a576f181899199a1a9b1b9c1cb0b131b232b360811b85600f16601081106125e6576125e661306f565b1a60f81b8282815181106125fc576125fc61306f565b60200101906001600160f81b031916908160001a90535060049490941c9361262381613085565b90506125b5565b5083156126795760405162461bcd60e51b815260206004820181905260248201527f537472696e67733a20686578206c656e67746820696e73756666696369656e7460448201526064016105d3565b9392505050565b61268981612373565b6040516001600160a01b038216907fbc7cd75a20ee27fd9adebab32041f755214dbc6bffa90cc0225b39da2e5c2d3b90600090a250565b60606126798383604051806060016040528060278152602001613139602791396126fd565b60006126798284612d10565b6000612679828461303a565b6060600080856001600160a01b03168560405161271a919061309c565b600060405180830381855af49150503d8060008114612755576040519150601f19603f3d011682016040523d82523d6000602084013e61275a565b606091505b509150915061276b86838387612775565b9695505050505050565b606083156127e25782516000036127db5761278f85611b82565b6127db5760405162461bcd60e51b815260206004820152601d60248201527f416464726573733a2063616c6c20746f206e6f6e2d636f6e747261637400000060448201526064016105d3565b50816127ec565b6127ec83836127f4565b949350505050565b8151156128045781518083602001fd5b8060405162461bcd60e51b81526004016105d39190612aa4565b60006020828403121561283057600080fd5b81356001600160e01b03198116811461267957600080fd5b6001600160a01b038116811461095e57600080fd5b803561286881612848565b919050565b60008060008060008060a0878903121561288657600080fd5b86356001600160401b038082111561289d57600080fd5b818901915089601f8301126128b157600080fd5b8135818111156128c057600080fd5b8a60208285010111156128d257600080fd5b602092830198509650508701356128e881612848565b935060408701356128f881612848565b92506129066060880161285d565b91506129146080880161285d565b90509295509295509295565b60006020828403121561293257600080fd5b5035919050565b60006020828403121561294b57600080fd5b813561267981612848565b6000806040838503121561296957600080fd5b82359150602083013561297b81612848565b809150509250929050565b6001600160a01b03169052565b634e487b7160e01b600052604160045260246000fd5b604051601f8201601f191681016001600160401b03811182821017156129d1576129d1612993565b604052919050565b600080604083850312156129ec57600080fd5b82356129f781612848565b91506020838101356001600160401b0380821115612a1457600080fd5b818601915086601f830112612a2857600080fd5b813581811115612a3a57612a3a612993565b612a4c601f8201601f191685016129a9565b91508082528784828501011115612a6257600080fd5b80848401858401376000848284010152508093505050509250929050565b60005b83811015612a9b578181015183820152602001612a83565b50506000910152565b6020815260008251806020840152612ac3816040850160208701612a80565b601f01601f19169190910160400192915050565b600060608284031215612ae957600080fd5b50919050565b60008060008060808587031215612b0557600080fd5b8435612b1081612848565b93506020850135612b2081612848565b92506040850135612b3081612848565b91506060850135612b4081612848565b939692955090935050565b60008060408385031215612b5e57600080fd5b8235612b6981612848565b9150602083013561297b81612848565b8183823760009101908152919050565b600060208284031215612b9b57600080fd5b5051919050565b6020808252602c908201527f46756e6374696f6e206d7573742062652063616c6c6564207468726f7567682060408201526b19195b1959d85d1958d85b1b60a21b606082015260800190565b6020808252602c908201527f46756e6374696f6e206d7573742062652063616c6c6564207468726f7567682060408201526b6163746976652070726f787960a01b606082015260800190565b6001600160a01b0391909116815260200190565b9182526001600160a01b0316602082015260400190565b600060208284031215612c7757600080fd5b8151801515811461267957600080fd5b600060208284031215612c9957600080fd5b815161267981612848565b6001600160a01b0392831681529116602082015260400190565b600060208284031215612cd057600080fd5b815160ff8116811461267957600080fd5b634e487b7160e01b600052601160045260246000fd5b600060018201612d0957612d09612ce1565b5060010190565b808202811582820484141761052d5761052d612ce1565b8181038181111561052d5761052d612ce1565b60006001600160401b03821115612d5357612d53612993565b5060051b60200190565b600082601f830112612d6e57600080fd5b81516020612d83612d7e83612d3a565b6129a9565b82815260059290921b84018101918181019086841115612da257600080fd5b8286015b84811015612dbd5780518352918301918301612da6565b509695505050505050565b60008060408385031215612ddb57600080fd5b82516001600160401b0380821115612df257600080fd5b818501915085601f830112612e0657600080fd5b81516020612e16612d7e83612d3a565b82815260059290921b84018101918181019089841115612e3557600080fd5b948201945b83861015612e5c578551612e4d81612848565b82529482019490820190612e3a565b91880151919650909350505080821115612e7557600080fd5b50612e8285828601612d5d565b9150509250929050565b600081518084526020808501945080840160005b83811015612ebc57815187529582019590820190600101612ea0565b509495945050505050565b600081518084526020808501945080840160005b83811015612ebc5781516001600160a01b031687529582019590820190600101612edb565b602081528151602082015260006020830151612f1f6040840182612986565b506040830151606083015260608301516080830152608083015160a083015260a08301516101608060c0850152612f5a610180850183612e8c565b915060c0850151612f6e60e0860182612986565b5060e0850151610100601f198685030181870152612f8c8483612ec7565b935080870151915050610120612fa58187018315159052565b8601519050610140612fb986820183612986565b90950151151593019290925250919050565b76020b1b1b2b9b9a1b7b73a3937b61d1030b1b1b7bab73a1604d1b815260008351612ffd816017850160208801612a80565b7001034b99036b4b9b9b4b733903937b6329607d1b601791840191820152835161302e816028840160208801612a80565b01602801949350505050565b60008261305757634e487b7160e01b600052601260045260246000fd5b500490565b8082018082111561052d5761052d612ce1565b634e487b7160e01b600052603260045260246000fd5b60008161309457613094612ce1565b506000190190565b600082516130ae818460208701612a80565b919091019291505056fe793a6c9b7e0a9549c74edc2f9ae0dc50903dfaa9a56fb0116b27a8c71de3e2c630d41a597cac127d8249d31298b50e481ee82c3f4a49ff93c76a22735aa9f3ad960771d60d61bb60ec2f92e1fcc4b84a2e0e340697e8b2b1256a2a12f5f59c69360894a13ba1a3210667c828492db98dca3e2076cc3735a920a3ca505d382bbc416464726573733a206c6f772d6c6576656c2064656c65676174652063616c6c206661696c6564a49807205ce4d355092ef5a8a18f56e8913cf4a201fbe287825b095693c21775a26469706673582212207463e1ecb69ff15eacb4cff4c80f0de4948889f65bb0637b4b2119eb57e64cb164736f6c63430008120033",
  "linkReferences": {},
  "deployedLinkReferences": {}
}