{
  "_format": "hh-sol-artifact-1",
  "contractName": "TermAuctionOfferLocker",
  "sourceName": "contracts/TermAuctionOfferLocker.sol",
  "abi": [
    {
      "inputs": [],
      "stateMutability": "nonpayable",
      "type": "constructor"
    },
    {
      "inputs": [],
      "name": "AlreadyTermContractPaired",
      "type": "error"
    },
    {
      "inputs": [],
      "name": "AuctionNotClosed",
      "type": "error"
    },
    {
      "inputs": [],
      "name": "AuctionNotOpen",
      "type": "error"
    },
    {
      "inputs": [],
      "name": "AuctionNotRevealing",
      "type": "error"
    },
    {
      "inputs": [
        {
          "internalType": "uint256",
          "name": "reveal",
          "type": "uint256"
        },
        {
          "internalType": "uint256",
          "name": "end",
          "type": "uint256"
        }
      ],
      "name": "AuctionRevealsAfterEnd",
      "type": "error"
    },
    {
      "inputs": [
        {
          "internalType": "uint256",
          "name": "start",
          "type": "uint256"
        },
        {
          "internalType": "uint256",
          "name": "reveal",
          "type": "uint256"
        }
      ],
      "name": "AuctionStartsAfterReveal",
      "type": "error"
    },
    {
      "inputs": [
        {
          "internalType": "address",
          "name": "token",
          "type": "address"
        }
      ],
      "name": "CollateralTokenNotApproved",
      "type": "error"
    },
    {
      "inputs": [
        {
          "internalType": "bytes32",
          "name": "offerId",
          "type": "bytes32"
        }
      ],
      "name": "GeneratingExistingOffer",
      "type": "error"
    },
    {
      "inputs": [],
      "name": "InvalidSelfReferral",
      "type": "error"
    },
    {
      "inputs": [],
      "name": "LockingPaused",
      "type": "error"
    },
    {
      "inputs": [],
      "name": "MaxOfferCountReached",
      "type": "error"
    },
    {
      "inputs": [],
      "name": "NoOfferToUnlock",
      "type": "error"
    },
    {
      "inputs": [
        {
          "internalType": "bytes32",
          "name": "id",
          "type": "bytes32"
        }
      ],
      "name": "NonExistentOffer",
      "type": "error"
    },
    {
      "inputs": [],
      "name": "OfferAlreadyRevealed",
      "type": "error"
    },
    {
      "inputs": [
        {
          "internalType": "uint256",
          "name": "amount",
          "type": "uint256"
        }
      ],
      "name": "OfferAmountTooLow",
      "type": "error"
    },
    {
      "inputs": [
        {
          "internalType": "uint256",
          "name": "offerCount",
          "type": "uint256"
        }
      ],
      "name": "OfferCountIncorrect",
      "type": "error"
    },
    {
      "inputs": [],
      "name": "OfferNotOwned",
      "type": "error"
    },
    {
      "inputs": [
        {
          "internalType": "bytes32",
          "name": "id",
          "type": "bytes32"
        }
      ],
      "name": "OfferNotRevealed",
      "type": "error"
    },
    {
      "inputs": [],
      "name": "OfferPriceModified",
      "type": "error"
    },
    {
      "inputs": [
        {
          "internalType": "bytes32",
          "name": "id",
          "type": "bytes32"
        }
      ],
      "name": "OfferRevealed",
      "type": "error"
    },
    {
      "inputs": [
        {
          "internalType": "address",
          "name": "token",
          "type": "address"
        }
      ],
      "name": "PurchaseTokenNotApproved",
      "type": "error"
    },
    {
      "inputs": [],
      "name": "RevealedOffersNotSorted",
      "type": "error"
    },
    {
      "inputs": [
        {
          "internalType": "bytes32",
          "name": "id",
          "type": "bytes32"
        },
        {
          "internalType": "uint256",
          "name": "maxPrice",
          "type": "uint256"
        }
      ],
      "name": "TenderPriceTooHigh",
      "type": "error"
    },
    {
      "inputs": [],
      "name": "UnlockingPaused",
      "type": "error"
    },
    {
      "anonymous": false,
      "inputs": [
        {
          "indexed": false,
          "internalType": "address",
          "name": "previousAdmin",
          "type": "address"
        },
        {
          "indexed": false,
          "internalType": "address",
          "name": "newAdmin",
          "type": "address"
        }
      ],
      "name": "AdminChanged",
      "type": "event"
    },
    {
      "anonymous": false,
      "inputs": [
        {
          "indexed": true,
          "internalType": "address",
          "name": "beacon",
          "type": "address"
        }
      ],
      "name": "BeaconUpgraded",
      "type": "event"
    },
    {
      "anonymous": false,
      "inputs": [
        {
          "indexed": false,
          "internalType": "uint8",
          "name": "version",
          "type": "uint8"
        }
      ],
      "name": "Initialized",
      "type": "event"
    },
    {
      "anonymous": false,
      "inputs": [
        {
          "indexed": true,
          "internalType": "bytes32",
          "name": "role",
          "type": "bytes32"
        },
        {
          "indexed": true,
          "internalType": "bytes32",
          "name": "previousAdminRole",
          "type": "bytes32"
        },
        {
          "indexed": true,
          "internalType": "bytes32",
          "name": "newAdminRole",
          "type": "bytes32"
        }
      ],
      "name": "RoleAdminChanged",
      "type": "event"
    },
    {
      "anonymous": false,
      "inputs": [
        {
          "indexed": true,
          "internalType": "bytes32",
          "name": "role",
          "type": "bytes32"
        },
        {
          "indexed": true,
          "internalType": "address",
          "name": "account",
          "type": "address"
        },
        {
          "indexed": true,
          "internalType": "address",
          "name": "sender",
          "type": "address"
        }
      ],
      "name": "RoleGranted",
      "type": "event"
    },
    {
      "anonymous": false,
      "inputs": [
        {
          "indexed": true,
          "internalType": "bytes32",
          "name": "role",
          "type": "bytes32"
        },
        {
          "indexed": true,
          "internalType": "address",
          "name": "account",
          "type": "address"
        },
        {
          "indexed": true,
          "internalType": "address",
          "name": "sender",
          "type": "address"
        }
      ],
      "name": "RoleRevoked",
      "type": "event"
    },
    {
      "anonymous": false,
      "inputs": [
        {
          "indexed": true,
          "internalType": "address",
          "name": "implementation",
          "type": "address"
        }
      ],
      "name": "Upgraded",
      "type": "event"
    },
    {
      "inputs": [],
      "name": "ADMIN_ROLE",
      "outputs": [
        {
          "internalType": "bytes32",
          "name": "",
          "type": "bytes32"
        }
      ],
      "stateMutability": "view",
      "type": "function"
    },
    {
      "inputs": [],
      "name": "AUCTIONEER_ROLE",
      "outputs": [
        {
          "internalType": "bytes32",
          "name": "",
          "type": "bytes32"
        }
      ],
      "stateMutability": "view",
      "type": "function"
    },
    {
      "inputs": [],
      "name": "DEFAULT_ADMIN_ROLE",
      "outputs": [
        {
          "internalType": "bytes32",
          "name": "",
          "type": "bytes32"
        }
      ],
      "stateMutability": "view",
      "type": "function"
    },
    {
      "inputs": [],
      "name": "DEVOPS_ROLE",
      "outputs": [
        {
          "internalType": "bytes32",
          "name": "",
          "type": "bytes32"
        }
      ],
      "stateMutability": "view",
      "type": "function"
    },
    {
      "inputs": [],
      "name": "INITIALIZER_ROLE",
      "outputs": [
        {
          "internalType": "bytes32",
          "name": "",
          "type": "bytes32"
        }
      ],
      "stateMutability": "view",
      "type": "function"
    },
    {
      "inputs": [],
      "name": "MAX_OFFER_COUNT",
      "outputs": [
        {
          "internalType": "uint256",
          "name": "",
          "type": "uint256"
        }
      ],
      "stateMutability": "view",
      "type": "function"
    },
    {
      "inputs": [],
      "name": "MAX_OFFER_PRICE",
      "outputs": [
        {
          "internalType": "uint256",
          "name": "",
          "type": "uint256"
        }
      ],
      "stateMutability": "view",
      "type": "function"
    },
    {
      "inputs": [],
      "name": "auctionEndTime",
      "outputs": [
        {
          "internalType": "uint256",
          "name": "",
          "type": "uint256"
        }
      ],
      "stateMutability": "view",
      "type": "function"
    },
    {
      "inputs": [],
      "name": "auctionStartTime",
      "outputs": [
        {
          "internalType": "uint256",
          "name": "",
          "type": "uint256"
        }
      ],
      "stateMutability": "view",
      "type": "function"
    },
    {
      "inputs": [
        {
          "internalType": "contract IERC20Upgradeable",
          "name": "",
          "type": "address"
        }
      ],
      "name": "collateralTokens",
      "outputs": [
        {
          "internalType": "bool",
          "name": "",
          "type": "bool"
        }
      ],
      "stateMutability": "view",
      "type": "function"
    },
    {
      "inputs": [
        {
          "internalType": "bytes32[]",
          "name": "revealedOffers",
          "type": "bytes32[]"
        },
        {
          "internalType": "bytes32[]",
          "name": "unrevealedOffers",
          "type": "bytes32[]"
        }
      ],
      "name": "getAllOffers",
      "outputs": [
        {
          "components": [
            {
              "internalType": "bytes32",
              "name": "id",
              "type": "bytes32"
            },
            {
              "internalType": "address",
              "name": "offeror",
              "type": "address"
            },
            {
              "internalType": "uint256",
              "name": "offerPriceRevealed",
              "type": "uint256"
            },
            {
              "internalType": "uint256",
              "name": "amount",
              "type": "uint256"
            },
            {
              "internalType": "address",
              "name": "purchaseToken",
              "type": "address"
            }
          ],
          "internalType": "struct TermAuctionRevealedOffer[]",
          "name": "",
          "type": "tuple[]"
        },
        {
          "components": [
            {
              "internalType": "bytes32",
              "name": "id",
              "type": "bytes32"
            },
            {
              "internalType": "address",
              "name": "offeror",
              "type": "address"
            },
            {
              "internalType": "bytes32",
              "name": "offerPriceHash",
              "type": "bytes32"
            },
            {
              "internalType": "uint256",
              "name": "offerPriceRevealed",
              "type": "uint256"
            },
            {
              "internalType": "uint256",
              "name": "amount",
              "type": "uint256"
            },
            {
              "internalType": "address",
              "name": "purchaseToken",
              "type": "address"
            },
            {
              "internalType": "bool",
              "name": "isRevealed",
              "type": "bool"
            }
          ],
          "internalType": "struct TermAuctionOffer[]",
          "name": "",
          "type": "tuple[]"
        }
      ],
      "stateMutability": "nonpayable",
      "type": "function"
    },
    {
      "inputs": [
        {
          "internalType": "bytes32",
          "name": "role",
          "type": "bytes32"
        }
      ],
      "name": "getRoleAdmin",
      "outputs": [
        {
          "internalType": "bytes32",
          "name": "",
          "type": "bytes32"
        }
      ],
      "stateMutability": "view",
      "type": "function"
    },
    {
      "inputs": [
        {
          "internalType": "bytes32",
          "name": "role",
          "type": "bytes32"
        },
        {
          "internalType": "address",
          "name": "account",
          "type": "address"
        }
      ],
      "name": "grantRole",
      "outputs": [],
      "stateMutability": "nonpayable",
      "type": "function"
    },
    {
      "inputs": [
        {
          "internalType": "bytes32",
          "name": "role",
          "type": "bytes32"
        },
        {
          "internalType": "address",
          "name": "account",
          "type": "address"
        }
      ],
      "name": "hasRole",
      "outputs": [
        {
          "internalType": "bool",
          "name": "",
          "type": "bool"
        }
      ],
      "stateMutability": "view",
      "type": "function"
    },
    {
      "inputs": [
        {
          "internalType": "string",
          "name": "termRepoId_",
          "type": "string"
        },
        {
          "internalType": "string",
          "name": "auctionId_",
          "type": "string"
        },
        {
          "internalType": "uint256",
          "name": "auctionStartTime_",
          "type": "uint256"
        },
        {
          "internalType": "uint256",
          "name": "revealTime_",
          "type": "uint256"
        },
        {
          "internalType": "uint256",
          "name": "auctionEndTime_",
          "type": "uint256"
        },
        {
          "internalType": "uint256",
          "name": "minimumTenderAmount_",
          "type": "uint256"
        },
        {
          "internalType": "contract IERC20Upgradeable",
          "name": "purchaseToken_",
          "type": "address"
        },
        {
          "internalType": "contract IERC20Upgradeable[]",
          "name": "collateralTokens_",
          "type": "address[]"
        },
        {
          "internalType": "address",
          "name": "termInitializer_",
          "type": "address"
        }
      ],
      "name": "initialize",
      "outputs": [],
      "stateMutability": "nonpayable",
      "type": "function"
    },
    {
      "inputs": [
        {
          "components": [
            {
              "internalType": "bytes32",
              "name": "id",
              "type": "bytes32"
            },
            {
              "internalType": "address",
              "name": "offeror",
              "type": "address"
            },
            {
              "internalType": "bytes32",
              "name": "offerPriceHash",
              "type": "bytes32"
            },
            {
              "internalType": "uint256",
              "name": "amount",
              "type": "uint256"
            },
            {
              "internalType": "address",
              "name": "purchaseToken",
              "type": "address"
            }
          ],
          "internalType": "struct TermAuctionOfferSubmission[]",
          "name": "offerSubmissions",
          "type": "tuple[]"
        }
      ],
      "name": "lockOffers",
      "outputs": [
        {
          "internalType": "bytes32[]",
          "name": "",
          "type": "bytes32[]"
        }
      ],
      "stateMutability": "nonpayable",
      "type": "function"
    },
    {
      "inputs": [
        {
          "components": [
            {
              "internalType": "bytes32",
              "name": "id",
              "type": "bytes32"
            },
            {
              "internalType": "address",
              "name": "offeror",
              "type": "address"
            },
            {
              "internalType": "bytes32",
              "name": "offerPriceHash",
              "type": "bytes32"
            },
            {
              "internalType": "uint256",
              "name": "amount",
              "type": "uint256"
            },
            {
              "internalType": "address",
              "name": "purchaseToken",
              "type": "address"
            }
          ],
          "internalType": "struct TermAuctionOfferSubmission[]",
          "name": "offerSubmissions",
          "type": "tuple[]"
        },
        {
          "internalType": "address",
          "name": "referralAddress",
          "type": "address"
        }
      ],
      "name": "lockOffersWithReferral",
      "outputs": [
        {
          "internalType": "bytes32[]",
          "name": "",
          "type": "bytes32[]"
        }
      ],
      "stateMutability": "nonpayable",
      "type": "function"
    },
    {
      "inputs": [
        {
          "internalType": "bytes32",
          "name": "id",
          "type": "bytes32"
        }
      ],
      "name": "lockedOffer",
      "outputs": [
        {
          "components": [
            {
              "internalType": "bytes32",
              "name": "id",
              "type": "bytes32"
            },
            {
              "internalType": "address",
              "name": "offeror",
              "type": "address"
            },
            {
              "internalType": "bytes32",
              "name": "offerPriceHash",
              "type": "bytes32"
            },
            {
              "internalType": "uint256",
              "name": "offerPriceRevealed",
              "type": "uint256"
            },
            {
              "internalType": "uint256",
              "name": "amount",
              "type": "uint256"
            },
            {
              "internalType": "address",
              "name": "purchaseToken",
              "type": "address"
            },
            {
              "internalType": "bool",
              "name": "isRevealed",
              "type": "bool"
            }
          ],
          "internalType": "struct TermAuctionOffer",
          "name": "",
          "type": "tuple"
        }
      ],
      "stateMutability": "view",
      "type": "function"
    },
    {
      "inputs": [],
      "name": "lockingPaused",
      "outputs": [
        {
          "internalType": "bool",
          "name": "",
          "type": "bool"
        }
      ],
      "stateMutability": "view",
      "type": "function"
    },
    {
      "inputs": [],
      "name": "minimumTenderAmount",
      "outputs": [
        {
          "internalType": "uint256",
          "name": "",
          "type": "uint256"
        }
      ],
      "stateMutability": "view",
      "type": "function"
    },
    {
      "inputs": [],
      "name": "offerCount",
      "outputs": [
        {
          "internalType": "uint256",
          "name": "",
          "type": "uint256"
        }
      ],
      "stateMutability": "view",
      "type": "function"
    },
    {
      "inputs": [
        {
          "internalType": "address",
          "name": "termAuction_",
          "type": "address"
        },
        {
          "internalType": "contract ITermEventEmitter",
          "name": "emitter_",
          "type": "address"
        },
        {
          "internalType": "contract ITermRepoServicer",
          "name": "termRepoServicer_",
          "type": "address"
        },
        {
          "internalType": "address",
          "name": "devopsMultisig_",
          "type": "address"
        },
        {
          "internalType": "address",
          "name": "adminWallet_",
          "type": "address"
        }
      ],
      "name": "pairTermContracts",
      "outputs": [],
      "stateMutability": "nonpayable",
      "type": "function"
    },
    {
      "inputs": [],
      "name": "pauseLocking",
      "outputs": [],
      "stateMutability": "nonpayable",
      "type": "function"
    },
    {
      "inputs": [],
      "name": "pauseUnlocking",
      "outputs": [],
      "stateMutability": "nonpayable",
      "type": "function"
    },
    {
      "inputs": [],
      "name": "proxiableUUID",
      "outputs": [
        {
          "internalType": "bytes32",
          "name": "",
          "type": "bytes32"
        }
      ],
      "stateMutability": "view",
      "type": "function"
    },
    {
      "inputs": [],
      "name": "purchaseToken",
      "outputs": [
        {
          "internalType": "contract IERC20Upgradeable",
          "name": "",
          "type": "address"
        }
      ],
      "stateMutability": "view",
      "type": "function"
    },
    {
      "inputs": [
        {
          "internalType": "bytes32",
          "name": "role",
          "type": "bytes32"
        },
        {
          "internalType": "address",
          "name": "account",
          "type": "address"
        }
      ],
      "name": "renounceRole",
      "outputs": [],
      "stateMutability": "nonpayable",
      "type": "function"
    },
    {
      "inputs": [
        {
          "internalType": "bytes32[]",
          "name": "ids",
          "type": "bytes32[]"
        },
        {
          "internalType": "uint256[]",
          "name": "prices",
          "type": "uint256[]"
        },
        {
          "internalType": "uint256[]",
          "name": "nonces",
          "type": "uint256[]"
        }
      ],
      "name": "revealOffers",
      "outputs": [],
      "stateMutability": "nonpayable",
      "type": "function"
    },
    {
      "inputs": [],
      "name": "revealTime",
      "outputs": [
        {
          "internalType": "uint256",
          "name": "",
          "type": "uint256"
        }
      ],
      "stateMutability": "view",
      "type": "function"
    },
    {
      "inputs": [
        {
          "internalType": "bytes32",
          "name": "role",
          "type": "bytes32"
        },
        {
          "internalType": "address",
          "name": "account",
          "type": "address"
        }
      ],
      "name": "revokeRole",
      "outputs": [],
      "stateMutability": "nonpayable",
      "type": "function"
    },
    {
      "inputs": [
        {
          "internalType": "bytes4",
          "name": "interfaceId",
          "type": "bytes4"
        }
      ],
      "name": "supportsInterface",
      "outputs": [
        {
          "internalType": "bool",
          "name": "",
          "type": "bool"
        }
      ],
      "stateMutability": "view",
      "type": "function"
    },
    {
      "inputs": [],
      "name": "termAuctionId",
      "outputs": [
        {
          "internalType": "bytes32",
          "name": "",
          "type": "bytes32"
        }
      ],
      "stateMutability": "view",
      "type": "function"
    },
    {
      "inputs": [],
      "name": "termRepoId",
      "outputs": [
        {
          "internalType": "bytes32",
          "name": "",
          "type": "bytes32"
        }
      ],
      "stateMutability": "view",
      "type": "function"
    },
    {
      "inputs": [],
      "name": "termRepoServicer",
      "outputs": [
        {
          "internalType": "contract ITermRepoServicer",
          "name": "",
          "type": "address"
        }
      ],
      "stateMutability": "view",
      "type": "function"
    },
    {
      "inputs": [
        {
          "internalType": "bytes32",
          "name": "id",
          "type": "bytes32"
        },
        {
          "internalType": "address",
          "name": "offeror",
          "type": "address"
        },
        {
          "internalType": "uint256",
          "name": "amount",
          "type": "uint256"
        }
      ],
      "name": "unlockOfferPartial",
      "outputs": [],
      "stateMutability": "nonpayable",
      "type": "function"
    },
    {
      "inputs": [
        {
          "internalType": "bytes32[]",
          "name": "ids",
          "type": "bytes32[]"
        }
      ],
      "name": "unlockOffers",
      "outputs": [],
      "stateMutability": "nonpayable",
      "type": "function"
    },
    {
      "inputs": [],
      "name": "unlockingPaused",
      "outputs": [
        {
          "internalType": "bool",
          "name": "",
          "type": "bool"
        }
      ],
      "stateMutability": "view",
      "type": "function"
    },
    {
      "inputs": [],
      "name": "unpauseLocking",
      "outputs": [],
      "stateMutability": "nonpayable",
      "type": "function"
    },
    {
      "inputs": [],
      "name": "unpauseUnlocking",
      "outputs": [],
      "stateMutability": "nonpayable",
      "type": "function"
    },
    {
      "inputs": [
        {
          "internalType": "address",
          "name": "newImplementation",
          "type": "address"
        }
      ],
      "name": "upgradeTo",
      "outputs": [],
      "stateMutability": "nonpayable",
      "type": "function"
    },
    {
      "inputs": [
        {
          "internalType": "address",
          "name": "newImplementation",
          "type": "address"
        },
        {
          "internalType": "bytes",
          "name": "data",
          "type": "bytes"
        }
      ],
      "name": "upgradeToAndCall",
      "outputs": [],
      "stateMutability": "payable",
      "type": "function"
    },
    {
      "inputs": [],
      "name": "version",
      "outputs": [
        {
          "internalType": "string",
          "name": "",
          "type": "string"
        }
      ],
      "stateMutability": "view",
      "type": "function"
    }
  ],
  "bytecode": "0x60a0604052306080523480156200001557600080fd5b506200002062000026565b620000e7565b600054610100900460ff1615620000935760405162461bcd60e51b815260206004820152602760248201527f496e697469616c697a61626c653a20636f6e747261637420697320696e697469604482015266616c697a696e6760c81b606482015260840160405180910390fd5b60005460ff90811614620000e5576000805460ff191660ff9081179091556040519081527f7f26b83ff96e1f2b6a682f133852f6798a09c465da95921460cefb38474024989060200160405180910390a15b565b6080516139ac6200011f600039600081816109dc01528181610a1c01528181610b6d01528181610bad0152610c2501526139ac6000f3fe6080604052600436106102115760003560e01c80635ff8d52611610119578063a217fddf116100a6578063a217fddf146105f1578063a95c4d6214610606578063ab63cf0e14610627578063ba829d7114610654578063c44cee731461066b578063cc5b6e4a14610699578063cfe9232b146106b0578063cffbc297146106d2578063d547741f14610703578063db875b6914610723578063eb54f9ec1461074357600080fd5b80635ff8d526146104b65780636d733141146104d65780637043f034146104ed578063720e52c51461050d57806372e3a5b11461052d57806375b238fc1461055a5780637910b4641461057c5780637e3f71d51461059c5780638a5cd91e146105bc57806391d14854146105d157600080fd5b8063357a77d2116101a2578063357a77d21461036757806336568abe146103955780633659cfe6146103b55780633e2cf6d6146103d55780633e836b3d146103f25780633efbfd8c1461040757806341da5432146104285780634b449cba1461043d5780634f1ef2861461045457806352d1902d1461046757806354fd4d501461047c57600080fd5b806301ffc9a7146102165780630c2754ca1461024b5780630c57f4141461026e5780631115c24d146102905780631f642705146102a7578063201a6625146102bc578063248a9ca3146102de57806325a2471a1461030e57806327df3d3e146103255780632f2ff15d14610347575b600080fd5b34801561022257600080fd5b50610236610231366004612cab565b61075a565b60405190151581526020015b60405180910390f35b34801561025757600080fd5b50610260609681565b604051908152602001610242565b34801561027a57600080fd5b5061028e610289366004612cf5565b610791565b005b34801561029c57600080fd5b506102606101395481565b3480156102b357600080fd5b5061028e610884565b3480156102c857600080fd5b506102606000805160206138b083398151915281565b3480156102ea57600080fd5b506102606102f9366004612d2d565b600090815260c9602052604090206001015490565b34801561031a57600080fd5b506102606101325481565b34801561033157600080fd5b506102606000805160206138d083398151915281565b34801561035357600080fd5b5061028e610362366004612d46565b610925565b34801561037357600080fd5b5061013554610388906001600160a01b031681565b6040516102429190612d76565b3480156103a157600080fd5b5061028e6103b0366004612d46565b61094f565b3480156103c157600080fd5b5061028e6103d0366004612d8a565b6109d2565b3480156103e157600080fd5b5061026068056bc75e2d6310000081565b3480156103fe57600080fd5b5061028e610a9a565b34801561041357600080fd5b5061013a546102369062010000900460ff1681565b34801561043457600080fd5b5061028e610afe565b34801561044957600080fd5b506102606101315481565b61028e610462366004612ded565b610b63565b34801561047357600080fd5b50610260610c18565b34801561048857600080fd5b50604080518082018252600b81526a19195d995b1bdc1b595b9d60aa1b602082015290516102429190612eb8565b3480156104c257600080fd5b5061028e6104d1366004612f36565b610cc6565b3480156104e257600080fd5b5061026061012e5481565b3480156104f957600080fd5b5061028e6105083660046130a7565b610d61565b34801561051957600080fd5b5061028e610528366004613184565b611084565b34801561053957600080fd5b5061054d610548366004612d2d565b611290565b6040516102429190613219565b34801561056657600080fd5b5061026060008051602061393783398151915281565b34801561058857600080fd5b5061028e610597366004613227565b61130f565b3480156105a857600080fd5b5061013a5461023690610100900460ff1681565b3480156105c857600080fd5b5061028e61148b565b3480156105dd57600080fd5b506102366105ec366004612d46565b6114f5565b3480156105fd57600080fd5b50610260600081565b34801561061257600080fd5b5061013354610388906001600160a01b031681565b34801561063357600080fd5b50610647610642366004613298565b611520565b604051610242919061331d565b34801561066057600080fd5b506102606101305481565b34801561067757600080fd5b5061068b610686366004613361565b611707565b604051610242929190613411565b3480156106a557600080fd5b5061026061012d5481565b3480156106bc57600080fd5b5061026060008051602061395783398151915281565b3480156106de57600080fd5b506102366106ed366004612d8a565b6101346020526000908152604090205460ff1681565b34801561070f57600080fd5b5061028e61071e366004612d46565b611ae1565b34801561072f57600080fd5b5061064761073e36600461351f565b611b06565b34801561074f57600080fd5b5061026061012f5481565b60006001600160e01b03198216637965db0b60e01b148061078b57506301ffc9a760e01b6001600160e01b03198316145b92915050565b6000805160206139578339815191526107a981611cb7565b610135546040516318ddb12f60e11b81526001600160a01b03909116906331bb625e906107dc90869086906004016135b8565b600060405180830381600087803b1580156107f657600080fd5b505af115801561080a573d6000803e3d6000fd5b50506101365461012e54604051635ba1a50760e01b81526001600160a01b039092169350635ba1a507925061084c918890600401918252602082015260400190565b600060405180830381600087803b15801561086657600080fd5b505af115801561087a573d6000803e3d6000fd5b5050505050505050565b60008051602061393783398151915261089c81611cb7565b61013a805462ff00001916620100001790556101365461012e5461012d5460405163703d84ab60e01b81526001600160a01b039093169263703d84ab926108f0929091600401918252602082015260400190565b600060405180830381600087803b15801561090a57600080fd5b505af115801561091e573d6000803e3d6000fd5b5050505050565b600082815260c9602052604090206001015461094081611cb7565b61094a8383611cc1565b505050565b6001600160a01b03811633146109c45760405162461bcd60e51b815260206004820152602f60248201527f416363657373436f6e74726f6c3a2063616e206f6e6c792072656e6f756e636560448201526e103937b632b9903337b91039b2b63360891b60648201526084015b60405180910390fd5b6109ce8282611d47565b5050565b6001600160a01b037f0000000000000000000000000000000000000000000000000000000000000000163003610a1a5760405162461bcd60e51b81526004016109bb906135d1565b7f00000000000000000000000000000000000000000000000000000000000000006001600160a01b0316610a4c611dae565b6001600160a01b031614610a725760405162461bcd60e51b81526004016109bb9061361d565b610a7b81611dca565b60408051600080825260208201909252610a9791839190611e4c565b50565b600080516020613937833981519152610ab281611cb7565b61013a805461ff00191690556101365461012e5461012d54604051632f5d386f60e01b8152600481019290925260248201526001600160a01b0390911690632f5d386f906044016108f0565b600080516020613937833981519152610b1681611cb7565b61013a805462ff0000191690556101365461012e5461012d5460405163485c705560e11b8152600481019290925260248201526001600160a01b03909116906390b8e0aa906044016108f0565b6001600160a01b037f0000000000000000000000000000000000000000000000000000000000000000163003610bab5760405162461bcd60e51b81526004016109bb906135d1565b7f00000000000000000000000000000000000000000000000000000000000000006001600160a01b0316610bdd611dae565b6001600160a01b031614610c035760405162461bcd60e51b81526004016109bb9061361d565b610c0c82611dca565b6109ce82826001611e4c565b6000306001600160a01b037f00000000000000000000000000000000000000000000000000000000000000001614610cb35760405162461bcd60e51b815260206004820152603860248201527f555550535570677261646561626c653a206d757374206e6f742062652063616c6044820152771b1959081d1a1c9bdd59da0819195b1959d85d1958d85b1b60421b60648201526084016109bb565b506000805160206138f083398151915290565b61013054421015610cea576040516302a3f58760e51b815260040160405180910390fd5b60005b85811015610d5857610d48878783818110610d0a57610d0a613669565b90506020020135868684818110610d2357610d23613669565b90506020020135858585818110610d3c57610d3c613669565b90506020020135611fb7565b610d5181613695565b9050610ced565b50505050505050565b600054610100900460ff1615808015610d815750600054600160ff909116105b80610da25750610d90306120e7565b158015610da2575060005460ff166001145b610e055760405162461bcd60e51b815260206004820152602e60248201527f496e697469616c697a61626c653a20636f6e747261637420697320616c72656160448201526d191e481a5b9a5d1a585b1a5e995960921b60648201526084016109bb565b6000805460ff191660011790558015610e28576000805461ff0019166101001790555b610e306120f6565b610e386120f6565b610e4061211f565b610e586000805160206138d083398151915283611cc1565b86881115610e83576040516372067af960e11b815260048101899052602481018890526044016109bb565b8b8b604051602001610e969291906136ae565b60408051601f1981840301815290829052805160209182012061012d55610ec1918c918c91016136ae565b60408051808303601f19018152919052805160209091012061012e5561012f88905561013087905561013186905561013285905561013380546001600160a01b0319166001600160a01b03861617905582516000906001600160401b03811115610f2d57610f2d612da7565b604051908082528060200260200182016040528015610f56578160200160208202803683370190505b50905060005b84518160ff16101561101d5760016101346000878460ff1681518110610f8457610f84613669565b60200260200101516001600160a01b03166001600160a01b0316815260200190815260200160002060006101000a81548160ff021916908315150217905550848160ff1681518110610fd857610fd8613669565b6020026020010151828260ff1681518110610ff557610ff5613669565b6001600160a01b0390921660209283029190910190910152611016816136be565b9050610f5c565b505060006101395561013a805460ff191690558015611076576000805461ff0019169055604051600181527f7f26b83ff96e1f2b6a682f133852f6798a09c465da95921460cefb38474024989060200160405180910390a15b505050505050505050505050565b61013a5462010000900460ff16156110af57604051631370a4e760e31b815260040160405180910390fd5b6110b761214e565b61012f544210156110db5760405163f046007760e01b815260040160405180910390fd5b6101305442118015611162575061013760009054906101000a90046001600160a01b03166001600160a01b0316638dfea9e76040518163ffffffff1660e01b8152600401602060405180830381865afa15801561113c573d6000803e3d6000fd5b505050506040513d601f19601f8201168201806040525081019061116091906136dd565b155b156111805760405163f046007760e01b815260040160405180910390fd5b60005b818110156112855761013860008484848181106111a2576111a2613669565b905060200201358152602001908152602001600020600401546000036111f7578282828181106111d4576111d4613669565b9050602002013560405163401c968f60e11b81526004016109bb91815260200190565b610138600084848481811061120e5761120e613669565b60209081029290920135835250810191909152604001600020600101546001600160a01b031633146112535760405163738b91eb60e11b815260040160405180910390fd5b61127583838381811061126857611268613669565b90506020020135336121a7565b61127e81613695565b9050611183565b506109ce600160fb55565b611298612c41565b5060009081526101386020908152604091829020825160e0810184528154815260018201546001600160a01b039081169382019390935260028201549381019390935260038101546060840152600481015460808401526005015490811660a0830152600160a01b900460ff16151560c082015290565b6000805160206138d083398151915261132781611cb7565b61013a5460ff161561134c57604051634ce377bb60e11b815260040160405180910390fd5b61013a805460ff1916600117905561013780546001600160a01b0388166001600160a01b0319909116179055611390600080516020613957833981519152876122bd565b6113a86000805160206138b083398151915284611cc1565b6113c060008051602061393783398151915283611cc1565b61013680546001600160a01b038781166001600160a01b0319928316811790935561013580549188169190921617905561012d5461012e5461012f5461013054610132546040516308866d1360e41b8152600481019590955260248501939093523060448501526064840191909152608483015268056bc75e2d6310000060a483015260c4820152638866d1309060e401600060405180830381600087803b15801561146b57600080fd5b505af115801561147f573d6000803e3d6000fd5b50505050505050505050565b6000805160206139378339815191526114a381611cb7565b61013a805461ff0019166101001790556101365461012e5461012d5460405163935dcfc760e01b81526001600160a01b039093169263935dcfc7926108f0929091600401918252602082015260400190565b600091825260c9602090815260408084206001600160a01b0393909316845291905290205460ff1690565b606061013054421180611535575061012f5442105b156115535760405163f046007760e01b815260040160405180910390fd5b61013a54610100900460ff161561157d5760405163059e557960e41b815260040160405180910390fd5b61158561214e565b6001600160a01b03821633036115ae576040516333d8ca2d60e11b815260040160405180910390fd5b6000836001600160401b038111156115c8576115c8612da7565b6040519080825280602002602001820160405280156115f1578160200160208202803683370190505b50905060005b848110156116f357600061163287878481811061161657611616613669565b905060a0020180360381019061162c91906136ff565b336122c7565b9050806000015483838151811061164b5761164b613669565b60209081029190910101526101365461012e5482546001840154600285015460048087015460058801546040516303228b3f60e61b81526001600160a01b039889169863c8a2cfc0986116af989097909690821695909493909116918f910161371b565b600060405180830381600087803b1580156116c957600080fd5b505af11580156116dd573d6000803e3d6000fd5b5050505050806116ec90613695565b90506115f7565b509050611700600160fb55565b9392505050565b60608060008051602061395783398151915261172281611cb7565b610139546117308588613756565b146117555761013954604051633186b0c560e11b81526004016109bb91815260200190565b6000866001600160401b0381111561176f5761176f612da7565b6040519080825280602002602001820160405280156117a857816020015b611795612c7d565b81526020019060019003908161178d5790505b5090506000856001600160401b038111156117c5576117c5612da7565b6040519080825280602002602001820160405280156117fe57816020015b6117eb612c41565b8152602001906001900390816117e35790505b50905060008060005b8a81101561196e57600061013860008e8e8581811061182857611828613669565b9050602002013581526020019081526020016000209050806004015460000361185d578c8c838181106111d4576111d4613669565b6005810154600160a01b900460ff1661188f5780546040516342b00fd560e01b815260048101919091526024016109bb565b80600301548311156118b4576040516305e5dfdd60e11b815260040160405180910390fd5b60038101546040805160e0810182528354815260018401546001600160a01b0390811660208301526002850154928201929092526060810183905260048401546080820152600584015491821660a0820152600160a01b90910460ff16151560c08201529093506119259084612685565b86858151811061193757611937613669565b6020026020010181905250838061194d90613695565b94505061195d81600001546126de565b5061196781613695565b9050611807565b506000805b89811015611abd57600061013860008d8d8581811061199457611994613669565b905060200201358152602001908152602001600020905080600401546000036119c9578b8b838181106111d4576111d4613669565b6005810154600160a01b900460ff1615611a12578b8b838181106119ef576119ef613669565b9050602002013560405163b72a25ad60e01b81526004016109bb91815260200190565b6040805160e0810182528254815260018301546001600160a01b0390811660208301526002840154928201929092526003830154606082015260048301546080820152600583015491821660a0820152600160a01b90910460ff16151560c08201528651879085908110611a8857611a88613669565b602002602001018190525082611a9d90613695565b9250611aac81600001546126de565b50611ab681613695565b9050611973565b506101395415611acf57611acf613769565b50929a91995090975050505050505050565b600082815260c96020526040902060010154611afc81611cb7565b61094a8383611d47565b606061013054421180611b1b575061012f5442105b15611b395760405163f046007760e01b815260040160405180910390fd5b61013a54610100900460ff1615611b635760405163059e557960e41b815260040160405180910390fd5b611b6b61214e565b600082516001600160401b03811115611b8657611b86612da7565b604051908082528060200260200182016040528015611baf578160200160208202803683370190505b50905060005b8351811015611ca5576000611be3858381518110611bd557611bd5613669565b6020026020010151336122c7565b90508060000154838381518110611bfc57611bfc613669565b60209081029190910101526101365461012e5482546001840154600285015460048087015460058801546040516303228b3f60e61b81526001600160a01b039889169863c8a2cfc098611c61989097909690821695909493909116916000910161371b565b600060405180830381600087803b158015611c7b57600080fd5b505af1158015611c8f573d6000803e3d6000fd5b505050505080611c9e90613695565b9050611bb5565b509050611cb2600160fb55565b919050565b610a978133612747565b611ccb82826114f5565b6109ce57600082815260c9602090815260408083206001600160a01b03851684529091529020805460ff19166001179055611d033390565b6001600160a01b0316816001600160a01b0316837f2f8788117e7eff1d82e926ec794901d17c78024a50270940304540a733656f0d60405160405180910390a45050565b611d5182826114f5565b156109ce57600082815260c9602090815260408083206001600160a01b0385168085529252808320805460ff1916905551339285917ff6391f5c32d9c69d2a47ea670b442974b53935d1edc7fd64eb21e047a839171b9190a45050565b6000805160206138f0833981519152546001600160a01b031690565b6000805160206138b0833981519152611de281611cb7565b6101365460405163b3c2d50b60e01b81523060048201526001600160a01b0384811660248301529091169063b3c2d50b90604401600060405180830381600087803b158015611e3057600080fd5b505af1158015611e44573d6000803e3d6000fd5b505050505050565b7f4910fdfa16fed3260ed0e7147f7cc6da11a60208b5b9406d12a635614ffd91435460ff1615611e7f5761094a836127a0565b826001600160a01b03166352d1902d6040518163ffffffff1660e01b8152600401602060405180830381865afa925050508015611ed9575060408051601f3d908101601f19168201909252611ed69181019061377f565b60015b611f3c5760405162461bcd60e51b815260206004820152602e60248201527f45524331393637557067726164653a206e657720696d706c656d656e7461746960448201526d6f6e206973206e6f74205555505360901b60648201526084016109bb565b6000805160206138f08339815191528114611fab5760405162461bcd60e51b815260206004820152602960248201527f45524331393637557067726164653a20756e737570706f727465642070726f786044820152681a58589b195555525160ba1b60648201526084016109bb565b5061094a83838361283a565b60008381526101386020908152604091829020600201548251918201859052918101839052606001604051602081830303815290604052805190602001201461201357604051630ce8dc1d60e11b815260040160405180910390fd5b68056bc75e2d6310000082111561204f57604051632dc71e8d60e01b81526004810184905268056bc75e2d6310000060248201526044016109bb565b600083815261013860205260409081902060038101849055600501805460ff60a01b1916600160a01b1790556101365461012e549151632f68befb60e11b8152600481019290925260248201859052604482018490526001600160a01b031690635ed17df6906064015b600060405180830381600087803b1580156120d357600080fd5b505af1158015610d58573d6000803e3d6000fd5b6001600160a01b03163b151590565b600054610100900460ff1661211d5760405162461bcd60e51b81526004016109bb90613798565b565b600054610100900460ff166121465760405162461bcd60e51b81526004016109bb90613798565b61211d612865565b600260fb54036121a05760405162461bcd60e51b815260206004820152601f60248201527f5265656e7472616e637947756172643a207265656e7472616e742063616c6c0060448201526064016109bb565b600260fb55565b600082815261013860205260408120600481018054838355600180840180546001600160a01b0319169055600284018590556003840185905591849055600590920180546001600160a81b031916905561013980549293919290919061220e9084906137e3565b90915550506101365461012e54604051635ba1a50760e01b81526001600160a01b0390921691635ba1a50791612251918790600401918252602082015260400190565b600060405180830381600087803b15801561226b57600080fd5b505af115801561227f573d6000803e3d6000fd5b5050610135546040516318ddb12f60e11b81526001600160a01b0390911692506331bb625e91506120b990859085906004016135b8565b600160fb55565b6109ce8282611cc1565b6000826020015182816001600160a01b0316816001600160a01b0316146123015760405163738b91eb60e11b815260040160405180910390fd5b60966101395410612325576040516336ac50e160e21b815260040160405180910390fd5b845160009081526101386020526040812060040154158015919061239257602080880151885160009081526101389092526040909120600101546001600160a01b0390811691161461238a5760405163738b91eb60e11b815260040160405180910390fd5b5085516123a1565b865161239e908761288c565b90505b6080870151610133546001600160a01b039081169116146123db57866080015160405163e34b641f60e01b81526004016109bb9190612d76565b610132548760600151101561240b57866060015160405163012a8d3160e11b81526004016109bb91815260200190565b600061013860008381526020019081526020016000206004015490506040518060e0016040528083815260200189602001516001600160a01b0316815260200189604001518152602001600081526020018960600151815260200189608001516001600160a01b031681526020016000151581525061013860008481526020019081526020016000206000820151816000015560208201518160010160006101000a8154816001600160a01b0302191690836001600160a01b0316021790555060408201518160020155606082015181600301556080820151816004015560a08201518160050160006101000a8154816001600160a01b0302191690836001600160a01b0316021790555060c08201518160050160146101000a81548160ff0219169083151502179055509050508261255857600161013960008282546125529190613756565b90915550505b87606001518110156125e45761013554602089015160608a01516001600160a01b0390921691630877275991906125909085906137e3565b6040518363ffffffff1660e01b81526004016125ad9291906135b8565b600060405180830381600087803b1580156125c757600080fd5b505af11580156125db573d6000803e3d6000fd5b5050505061266b565b876060015181111561266b5761013554602089015160608a01516001600160a01b03909216916331bb625e919061261b90856137e3565b6040518363ffffffff1660e01b81526004016126389291906135b8565b600060405180830381600087803b15801561265257600080fd5b505af1158015612666573d6000803e3d6000fd5b505050505b506000908152610138602052604090209695505050505050565b61268d612c7d565b6040518060a001604052808460000151815260200184602001516001600160a01b03168152602001838152602001846080015181526020018460a001516001600160a01b0316815250905092915050565b600081815261013860205260408120818155600180820180546001600160a01b0319169055600282018390556003820183905560048201839055600590910180546001600160a81b031916905561013980549192909161273f9084906137e3565b909155505050565b61275182826114f5565b6109ce5761275e81612913565b612769836020612925565b60405160200161277a9291906137f6565b60408051601f198184030181529082905262461bcd60e51b82526109bb91600401612eb8565b6127a9816120e7565b61280b5760405162461bcd60e51b815260206004820152602d60248201527f455243313936373a206e657720696d706c656d656e746174696f6e206973206e60448201526c1bdd08184818dbdb9d1c9858dd609a1b60648201526084016109bb565b6000805160206138f083398151915280546001600160a01b0319166001600160a01b0392909216919091179055565b61284383612ac0565b6000825111806128505750805b1561094a5761285f8383612b00565b50505050565b600054610100900460ff166122b65760405162461bcd60e51b81526004016109bb90613798565b6000808383306040516020016128c693929190928352606091821b6001600160601b03199081166020850152911b16603482015260480190565b60408051601f198184030181529181528151602092830120600081815261013890935291206004015490915015611700576040516327fce3dd60e11b8152600481018290526024016109bb565b606061078b6001600160a01b03831660145b60606000612934836002613865565b61293f906002613756565b6001600160401b0381111561295657612956612da7565b6040519080825280601f01601f191660200182016040528015612980576020820181803683370190505b509050600360fc1b8160008151811061299b5761299b613669565b60200101906001600160f81b031916908160001a905350600f60fb1b816001815181106129ca576129ca613669565b60200101906001600160f81b031916908160001a90535060006129ee846002613865565b6129f9906001613756565b90505b6001811115612a71576f181899199a1a9b1b9c1cb0b131b232b360811b85600f1660108110612a2d57612a2d613669565b1a60f81b828281518110612a4357612a43613669565b60200101906001600160f81b031916908160001a90535060049490941c93612a6a8161387c565b90506129fc565b5083156117005760405162461bcd60e51b815260206004820181905260248201527f537472696e67733a20686578206c656e67746820696e73756666696369656e7460448201526064016109bb565b612ac9816127a0565b6040516001600160a01b038216907fbc7cd75a20ee27fd9adebab32041f755214dbc6bffa90cc0225b39da2e5c2d3b90600090a250565b60606117008383604051806060016040528060278152602001613910602791396060600080856001600160a01b031685604051612b3d9190613893565b600060405180830381855af49150503d8060008114612b78576040519150601f19603f3d011682016040523d82523d6000602084013e612b7d565b606091505b5091509150612b8e86838387612b98565b9695505050505050565b60608315612c05578251600003612bfe57612bb2856120e7565b612bfe5760405162461bcd60e51b815260206004820152601d60248201527f416464726573733a2063616c6c20746f206e6f6e2d636f6e747261637400000060448201526064016109bb565b5081612c0f565b612c0f8383612c17565b949350505050565b815115612c275781518083602001fd5b8060405162461bcd60e51b81526004016109bb9190612eb8565b6040805160e081018252600080825260208201819052918101829052606081018290526080810182905260a0810182905260c081019190915290565b6040805160a08101825260008082526020820181905291810182905260608101829052608081019190915290565b600060208284031215612cbd57600080fd5b81356001600160e01b03198116811461170057600080fd5b6001600160a01b0381168114610a9757600080fd5b8035611cb281612cd5565b600080600060608486031215612d0a57600080fd5b833592506020840135612d1c81612cd5565b929592945050506040919091013590565b600060208284031215612d3f57600080fd5b5035919050565b60008060408385031215612d5957600080fd5b823591506020830135612d6b81612cd5565b809150509250929050565b6001600160a01b0391909116815260200190565b600060208284031215612d9c57600080fd5b813561170081612cd5565b634e487b7160e01b600052604160045260246000fd5b604051601f8201601f191681016001600160401b0381118282101715612de557612de5612da7565b604052919050565b60008060408385031215612e0057600080fd5b8235612e0b81612cd5565b91506020838101356001600160401b0380821115612e2857600080fd5b818601915086601f830112612e3c57600080fd5b813581811115612e4e57612e4e612da7565b612e60601f8201601f19168501612dbd565b91508082528784828501011115612e7657600080fd5b80848401858401376000848284010152508093505050509250929050565b60005b83811015612eaf578181015183820152602001612e97565b50506000910152565b6020815260008251806020840152612ed7816040850160208701612e94565b601f01601f19169190910160400192915050565b60008083601f840112612efd57600080fd5b5081356001600160401b03811115612f1457600080fd5b6020830191508360208260051b8501011115612f2f57600080fd5b9250929050565b60008060008060008060608789031215612f4f57600080fd5b86356001600160401b0380821115612f6657600080fd5b612f728a838b01612eeb565b90985096506020890135915080821115612f8b57600080fd5b612f978a838b01612eeb565b90965094506040890135915080821115612fb057600080fd5b50612fbd89828a01612eeb565b979a9699509497509295939492505050565b60008083601f840112612fe157600080fd5b5081356001600160401b03811115612ff857600080fd5b602083019150836020828501011115612f2f57600080fd5b60006001600160401b0382111561302957613029612da7565b5060051b60200190565b600082601f83011261304457600080fd5b8135602061305961305483613010565b612dbd565b82815260059290921b8401810191818101908684111561307857600080fd5b8286015b8481101561309c57803561308f81612cd5565b835291830191830161307c565b509695505050505050565b60008060008060008060008060008060006101208c8e0312156130c957600080fd5b6001600160401b03808d3511156130df57600080fd5b6130ec8e8e358f01612fcf565b909c509a5060208d013581101561310257600080fd5b6131128e60208f01358f01612fcf565b909a50985060408d0135975060608d0135965060808d0135955060a08d0135945061313f60c08e01612cea565b93508060e08e0135111561315257600080fd5b506131638d60e08e01358e01613033565b91506131726101008d01612cea565b90509295989b509295989b9093969950565b6000806020838503121561319757600080fd5b82356001600160401b038111156131ad57600080fd5b6131b985828601612eeb565b90969095509350505050565b80518252602081015160018060a01b0380821660208501526040830151604085015260608301516060850152608083015160808501528060a08401511660a0850152505060c0810151151560c08301525050565b60e0810161078b82846131c5565b600080600080600060a0868803121561323f57600080fd5b853561324a81612cd5565b9450602086013561325a81612cd5565b9350604086013561326a81612cd5565b9250606086013561327a81612cd5565b9150608086013561328a81612cd5565b809150509295509295909350565b6000806000604084860312156132ad57600080fd5b83356001600160401b03808211156132c457600080fd5b818601915086601f8301126132d857600080fd5b8135818111156132e757600080fd5b87602060a0830285010111156132fc57600080fd5b6020928301955093505084013561331281612cd5565b809150509250925092565b6020808252825182820181905260009190848201906040850190845b8181101561335557835183529284019291840191600101613339565b50909695505050505050565b6000806000806040858703121561337757600080fd5b84356001600160401b038082111561338e57600080fd5b61339a88838901612eeb565b909650945060208701359150808211156133b357600080fd5b506133c087828801612eeb565b95989497509550505050565b600081518084526020808501945080840160005b83811015613406576133f38783516131c5565b60e09690960195908201906001016133e0565b509495945050505050565b6040808252835182820181905260009190606090818501906020808901865b8381101561347e57815180518652838101516001600160a01b039081168588015288820151898801528782015188880152608091820151169086015260a09094019390820190600101613430565b5050868303908701525061349281876133cc565b979650505050505050565b600060a082840312156134af57600080fd5b60405160a081018181106001600160401b03821117156134d1576134d1612da7565b6040528235815290508060208301356134e981612cd5565b806020830152506040830135604082015260608301356060820152608083013561351281612cd5565b6080919091015292915050565b6000602080838503121561353257600080fd5b82356001600160401b0381111561354857600080fd5b8301601f8101851361355957600080fd5b803561356761305482613010565b81815260a0918202830184019184820191908884111561358657600080fd5b938501935b838510156135ac5761359d898661349d565b8352938401939185019161358b565b50979650505050505050565b6001600160a01b03929092168252602082015260400190565b6020808252602c908201527f46756e6374696f6e206d7573742062652063616c6c6564207468726f7567682060408201526b19195b1959d85d1958d85b1b60a21b606082015260800190565b6020808252602c908201527f46756e6374696f6e206d7573742062652063616c6c6564207468726f7567682060408201526b6163746976652070726f787960a01b606082015260800190565b634e487b7160e01b600052603260045260246000fd5b634e487b7160e01b600052601160045260246000fd5b6000600182016136a7576136a761367f565b5060010190565b8183823760009101908152919050565b600060ff821660ff81036136d4576136d461367f565b60010192915050565b6000602082840312156136ef57600080fd5b8151801515811461170057600080fd5b600060a0828403121561371157600080fd5b611700838361349d565b96875260208701959095526001600160a01b03938416604087015260608601929092526080850152811660a08401521660c082015260e00190565b8082018082111561078b5761078b61367f565b634e487b7160e01b600052600160045260246000fd5b60006020828403121561379157600080fd5b5051919050565b6020808252602b908201527f496e697469616c697a61626c653a20636f6e7472616374206973206e6f74206960408201526a6e697469616c697a696e6760a81b606082015260800190565b8181038181111561078b5761078b61367f565b76020b1b1b2b9b9a1b7b73a3937b61d1030b1b1b7bab73a1604d1b815260008351613828816017850160208801612e94565b7001034b99036b4b9b9b4b733903937b6329607d1b6017918401918201528351613859816028840160208801612e94565b01602801949350505050565b808202811582820484141761078b5761078b61367f565b60008161388b5761388b61367f565b506000190190565b600082516138a5818460208701612e94565b919091019291505056fe793a6c9b7e0a9549c74edc2f9ae0dc50903dfaa9a56fb0116b27a8c71de3e2c630d41a597cac127d8249d31298b50e481ee82c3f4a49ff93c76a22735aa9f3ad360894a13ba1a3210667c828492db98dca3e2076cc3735a920a3ca505d382bbc416464726573733a206c6f772d6c6576656c2064656c65676174652063616c6c206661696c6564a49807205ce4d355092ef5a8a18f56e8913cf4a201fbe287825b095693c21775c1df76f4e50bdb95676f782d4b88b23904c5346d8bc7c986ae26f7e10e601891a2646970667358221220269cd4ebc29f7295f8f2f84569ce800d91ab5cb1b969ae2847b779de009fd52364736f6c63430008120033",
  "linkReferences": {},
  "deployedLinkReferences": {}
}