{
  "_format": "hh-sol-artifact-1",
  "contractName": "TermAuctionOfferLocker",
  "sourceName": "contracts/TermAuctionOfferLocker.sol",
  "abi": [
    {
      "inputs": [],
      "stateMutability": "nonpayable",
      "type": "constructor"
    },
    {
      "inputs": [],
      "name": "AlreadyTermContractPaired",
      "type": "error"
    },
    {
      "inputs": [],
      "name": "AuctionNotClosed",
      "type": "error"
    },
    {
      "inputs": [],
      "name": "AuctionNotOpen",
      "type": "error"
    },
    {
      "inputs": [],
      "name": "AuctionNotRevealing",
      "type": "error"
    },
    {
      "inputs": [
        {
          "internalType": "uint256",
          "name": "reveal",
          "type": "uint256"
        },
        {
          "internalType": "uint256",
          "name": "end",
          "type": "uint256"
        }
      ],
      "name": "AuctionRevealsAfterEnd",
      "type": "error"
    },
    {
      "inputs": [
        {
          "internalType": "uint256",
          "name": "start",
          "type": "uint256"
        },
        {
          "internalType": "uint256",
          "name": "reveal",
          "type": "uint256"
        }
      ],
      "name": "AuctionStartsAfterReveal",
      "type": "error"
    },
    {
      "inputs": [
        {
          "internalType": "address",
          "name": "token",
          "type": "address"
        }
      ],
      "name": "CollateralTokenNotApproved",
      "type": "error"
    },
    {
      "inputs": [
        {
          "internalType": "bytes32",
          "name": "offerId",
          "type": "bytes32"
        }
      ],
      "name": "GeneratingExistingOffer",
      "type": "error"
    },
    {
      "inputs": [],
      "name": "InvalidSelfReferral",
      "type": "error"
    },
    {
      "inputs": [],
      "name": "LockingPaused",
      "type": "error"
    },
    {
      "inputs": [],
      "name": "MaxOfferCountReached",
      "type": "error"
    },
    {
      "inputs": [],
      "name": "NoOfferToUnlock",
      "type": "error"
    },
    {
      "inputs": [
        {
          "internalType": "bytes32",
          "name": "id",
          "type": "bytes32"
        }
      ],
      "name": "NonExistentOffer",
      "type": "error"
    },
    {
      "inputs": [],
      "name": "OfferAlreadyRevealed",
      "type": "error"
    },
    {
      "inputs": [
        {
          "internalType": "uint256",
          "name": "amount",
          "type": "uint256"
        }
      ],
      "name": "OfferAmountTooLow",
      "type": "error"
    },
    {
      "inputs": [
        {
          "internalType": "uint256",
          "name": "offerCount",
          "type": "uint256"
        }
      ],
      "name": "OfferCountIncorrect",
      "type": "error"
    },
    {
      "inputs": [],
      "name": "OfferNotOwned",
      "type": "error"
    },
    {
      "inputs": [
        {
          "internalType": "bytes32",
          "name": "id",
          "type": "bytes32"
        }
      ],
      "name": "OfferNotRevealed",
      "type": "error"
    },
    {
      "inputs": [],
      "name": "OfferPriceModified",
      "type": "error"
    },
    {
      "inputs": [
        {
          "internalType": "bytes32",
          "name": "id",
          "type": "bytes32"
        }
      ],
      "name": "OfferRevealed",
      "type": "error"
    },
    {
      "inputs": [
        {
          "internalType": "address",
          "name": "token",
          "type": "address"
        }
      ],
      "name": "PurchaseTokenNotApproved",
      "type": "error"
    },
    {
      "inputs": [],
      "name": "RevealedOffersNotSorted",
      "type": "error"
    },
    {
      "inputs": [
        {
          "internalType": "bytes32",
          "name": "id",
          "type": "bytes32"
        },
        {
          "internalType": "uint256",
          "name": "maxPrice",
          "type": "uint256"
        }
      ],
      "name": "TenderPriceTooHigh",
      "type": "error"
    },
    {
      "inputs": [],
      "name": "UnlockingPaused",
      "type": "error"
    },
    {
      "anonymous": false,
      "inputs": [
        {
          "indexed": false,
          "internalType": "address",
          "name": "previousAdmin",
          "type": "address"
        },
        {
          "indexed": false,
          "internalType": "address",
          "name": "newAdmin",
          "type": "address"
        }
      ],
      "name": "AdminChanged",
      "type": "event"
    },
    {
      "anonymous": false,
      "inputs": [
        {
          "indexed": true,
          "internalType": "address",
          "name": "beacon",
          "type": "address"
        }
      ],
      "name": "BeaconUpgraded",
      "type": "event"
    },
    {
      "anonymous": false,
      "inputs": [
        {
          "indexed": false,
          "internalType": "uint8",
          "name": "version",
          "type": "uint8"
        }
      ],
      "name": "Initialized",
      "type": "event"
    },
    {
      "anonymous": false,
      "inputs": [
        {
          "indexed": true,
          "internalType": "bytes32",
          "name": "role",
          "type": "bytes32"
        },
        {
          "indexed": true,
          "internalType": "bytes32",
          "name": "previousAdminRole",
          "type": "bytes32"
        },
        {
          "indexed": true,
          "internalType": "bytes32",
          "name": "newAdminRole",
          "type": "bytes32"
        }
      ],
      "name": "RoleAdminChanged",
      "type": "event"
    },
    {
      "anonymous": false,
      "inputs": [
        {
          "indexed": true,
          "internalType": "bytes32",
          "name": "role",
          "type": "bytes32"
        },
        {
          "indexed": true,
          "internalType": "address",
          "name": "account",
          "type": "address"
        },
        {
          "indexed": true,
          "internalType": "address",
          "name": "sender",
          "type": "address"
        }
      ],
      "name": "RoleGranted",
      "type": "event"
    },
    {
      "anonymous": false,
      "inputs": [
        {
          "indexed": true,
          "internalType": "bytes32",
          "name": "role",
          "type": "bytes32"
        },
        {
          "indexed": true,
          "internalType": "address",
          "name": "account",
          "type": "address"
        },
        {
          "indexed": true,
          "internalType": "address",
          "name": "sender",
          "type": "address"
        }
      ],
      "name": "RoleRevoked",
      "type": "event"
    },
    {
      "anonymous": false,
      "inputs": [
        {
          "indexed": true,
          "internalType": "address",
          "name": "implementation",
          "type": "address"
        }
      ],
      "name": "Upgraded",
      "type": "event"
    },
    {
      "inputs": [],
      "name": "AUCTIONEER_ROLE",
      "outputs": [
        {
          "internalType": "bytes32",
          "name": "",
          "type": "bytes32"
        }
      ],
      "stateMutability": "view",
      "type": "function"
    },
    {
      "inputs": [],
      "name": "DEFAULT_ADMIN_ROLE",
      "outputs": [
        {
          "internalType": "bytes32",
          "name": "",
          "type": "bytes32"
        }
      ],
      "stateMutability": "view",
      "type": "function"
    },
    {
      "inputs": [],
      "name": "DEVOPS_ROLE",
      "outputs": [
        {
          "internalType": "bytes32",
          "name": "",
          "type": "bytes32"
        }
      ],
      "stateMutability": "view",
      "type": "function"
    },
    {
      "inputs": [],
      "name": "INITIALIZER_ROLE",
      "outputs": [
        {
          "internalType": "bytes32",
          "name": "",
          "type": "bytes32"
        }
      ],
      "stateMutability": "view",
      "type": "function"
    },
    {
      "inputs": [],
      "name": "MAX_OFFER_COUNT",
      "outputs": [
        {
          "internalType": "uint256",
          "name": "",
          "type": "uint256"
        }
      ],
      "stateMutability": "view",
      "type": "function"
    },
    {
      "inputs": [],
      "name": "MAX_OFFER_PRICE",
      "outputs": [
        {
          "internalType": "uint256",
          "name": "",
          "type": "uint256"
        }
      ],
      "stateMutability": "view",
      "type": "function"
    },
    {
      "inputs": [],
      "name": "auctionEndTime",
      "outputs": [
        {
          "internalType": "uint256",
          "name": "",
          "type": "uint256"
        }
      ],
      "stateMutability": "view",
      "type": "function"
    },
    {
      "inputs": [],
      "name": "auctionStartTime",
      "outputs": [
        {
          "internalType": "uint256",
          "name": "",
          "type": "uint256"
        }
      ],
      "stateMutability": "view",
      "type": "function"
    },
    {
      "inputs": [
        {
          "internalType": "contract IERC20Upgradeable",
          "name": "",
          "type": "address"
        }
      ],
      "name": "collateralTokens",
      "outputs": [
        {
          "internalType": "bool",
          "name": "",
          "type": "bool"
        }
      ],
      "stateMutability": "view",
      "type": "function"
    },
    {
      "inputs": [
        {
          "internalType": "bytes32[]",
          "name": "revealedOffers",
          "type": "bytes32[]"
        },
        {
          "internalType": "bytes32[]",
          "name": "unrevealedOffers",
          "type": "bytes32[]"
        }
      ],
      "name": "getAllOffers",
      "outputs": [
        {
          "components": [
            {
              "internalType": "bytes32",
              "name": "id",
              "type": "bytes32"
            },
            {
              "internalType": "address",
              "name": "offeror",
              "type": "address"
            },
            {
              "internalType": "uint256",
              "name": "offerPriceRevealed",
              "type": "uint256"
            },
            {
              "internalType": "uint256",
              "name": "amount",
              "type": "uint256"
            },
            {
              "internalType": "address",
              "name": "purchaseToken",
              "type": "address"
            }
          ],
          "internalType": "struct TermAuctionRevealedOffer[]",
          "name": "",
          "type": "tuple[]"
        },
        {
          "components": [
            {
              "internalType": "bytes32",
              "name": "id",
              "type": "bytes32"
            },
            {
              "internalType": "address",
              "name": "offeror",
              "type": "address"
            },
            {
              "internalType": "bytes32",
              "name": "offerPriceHash",
              "type": "bytes32"
            },
            {
              "internalType": "uint256",
              "name": "offerPriceRevealed",
              "type": "uint256"
            },
            {
              "internalType": "uint256",
              "name": "amount",
              "type": "uint256"
            },
            {
              "internalType": "address",
              "name": "purchaseToken",
              "type": "address"
            },
            {
              "internalType": "bool",
              "name": "isRevealed",
              "type": "bool"
            }
          ],
          "internalType": "struct TermAuctionOffer[]",
          "name": "",
          "type": "tuple[]"
        }
      ],
      "stateMutability": "nonpayable",
      "type": "function"
    },
    {
      "inputs": [
        {
          "internalType": "bytes32",
          "name": "role",
          "type": "bytes32"
        }
      ],
      "name": "getRoleAdmin",
      "outputs": [
        {
          "internalType": "bytes32",
          "name": "",
          "type": "bytes32"
        }
      ],
      "stateMutability": "view",
      "type": "function"
    },
    {
      "inputs": [
        {
          "internalType": "bytes32",
          "name": "role",
          "type": "bytes32"
        },
        {
          "internalType": "address",
          "name": "account",
          "type": "address"
        }
      ],
      "name": "grantRole",
      "outputs": [],
      "stateMutability": "nonpayable",
      "type": "function"
    },
    {
      "inputs": [
        {
          "internalType": "bytes32",
          "name": "role",
          "type": "bytes32"
        },
        {
          "internalType": "address",
          "name": "account",
          "type": "address"
        }
      ],
      "name": "hasRole",
      "outputs": [
        {
          "internalType": "bool",
          "name": "",
          "type": "bool"
        }
      ],
      "stateMutability": "view",
      "type": "function"
    },
    {
      "inputs": [
        {
          "internalType": "string",
          "name": "termRepoId_",
          "type": "string"
        },
        {
          "internalType": "string",
          "name": "auctionId_",
          "type": "string"
        },
        {
          "internalType": "uint256",
          "name": "auctionStartTime_",
          "type": "uint256"
        },
        {
          "internalType": "uint256",
          "name": "revealTime_",
          "type": "uint256"
        },
        {
          "internalType": "uint256",
          "name": "auctionEndTime_",
          "type": "uint256"
        },
        {
          "internalType": "uint256",
          "name": "minimumTenderAmount_",
          "type": "uint256"
        },
        {
          "internalType": "contract IERC20Upgradeable",
          "name": "purchaseToken_",
          "type": "address"
        },
        {
          "internalType": "contract IERC20Upgradeable[]",
          "name": "collateralTokens_",
          "type": "address[]"
        },
        {
          "internalType": "address",
          "name": "termInitializer_",
          "type": "address"
        }
      ],
      "name": "initialize",
      "outputs": [],
      "stateMutability": "nonpayable",
      "type": "function"
    },
    {
      "inputs": [
        {
          "components": [
            {
              "internalType": "bytes32",
              "name": "id",
              "type": "bytes32"
            },
            {
              "internalType": "address",
              "name": "offeror",
              "type": "address"
            },
            {
              "internalType": "bytes32",
              "name": "offerPriceHash",
              "type": "bytes32"
            },
            {
              "internalType": "uint256",
              "name": "amount",
              "type": "uint256"
            },
            {
              "internalType": "address",
              "name": "purchaseToken",
              "type": "address"
            }
          ],
          "internalType": "struct TermAuctionOfferSubmission[]",
          "name": "offerSubmissions",
          "type": "tuple[]"
        }
      ],
      "name": "lockOffers",
      "outputs": [
        {
          "internalType": "bytes32[]",
          "name": "",
          "type": "bytes32[]"
        }
      ],
      "stateMutability": "nonpayable",
      "type": "function"
    },
    {
      "inputs": [
        {
          "components": [
            {
              "internalType": "bytes32",
              "name": "id",
              "type": "bytes32"
            },
            {
              "internalType": "address",
              "name": "offeror",
              "type": "address"
            },
            {
              "internalType": "bytes32",
              "name": "offerPriceHash",
              "type": "bytes32"
            },
            {
              "internalType": "uint256",
              "name": "amount",
              "type": "uint256"
            },
            {
              "internalType": "address",
              "name": "purchaseToken",
              "type": "address"
            }
          ],
          "internalType": "struct TermAuctionOfferSubmission[]",
          "name": "offerSubmissions",
          "type": "tuple[]"
        },
        {
          "internalType": "address",
          "name": "referralAddress",
          "type": "address"
        }
      ],
      "name": "lockOffersWithReferral",
      "outputs": [
        {
          "internalType": "bytes32[]",
          "name": "",
          "type": "bytes32[]"
        }
      ],
      "stateMutability": "nonpayable",
      "type": "function"
    },
    {
      "inputs": [
        {
          "internalType": "bytes32",
          "name": "id",
          "type": "bytes32"
        }
      ],
      "name": "lockedOffer",
      "outputs": [
        {
          "components": [
            {
              "internalType": "bytes32",
              "name": "id",
              "type": "bytes32"
            },
            {
              "internalType": "address",
              "name": "offeror",
              "type": "address"
            },
            {
              "internalType": "bytes32",
              "name": "offerPriceHash",
              "type": "bytes32"
            },
            {
              "internalType": "uint256",
              "name": "offerPriceRevealed",
              "type": "uint256"
            },
            {
              "internalType": "uint256",
              "name": "amount",
              "type": "uint256"
            },
            {
              "internalType": "address",
              "name": "purchaseToken",
              "type": "address"
            },
            {
              "internalType": "bool",
              "name": "isRevealed",
              "type": "bool"
            }
          ],
          "internalType": "struct TermAuctionOffer",
          "name": "",
          "type": "tuple"
        }
      ],
      "stateMutability": "view",
      "type": "function"
    },
    {
      "inputs": [],
      "name": "lockingPaused",
      "outputs": [
        {
          "internalType": "bool",
          "name": "",
          "type": "bool"
        }
      ],
      "stateMutability": "view",
      "type": "function"
    },
    {
      "inputs": [],
      "name": "minimumTenderAmount",
      "outputs": [
        {
          "internalType": "uint256",
          "name": "",
          "type": "uint256"
        }
      ],
      "stateMutability": "view",
      "type": "function"
    },
    {
      "inputs": [],
      "name": "offerCount",
      "outputs": [
        {
          "internalType": "uint256",
          "name": "",
          "type": "uint256"
        }
      ],
      "stateMutability": "view",
      "type": "function"
    },
    {
      "inputs": [
        {
          "internalType": "address",
          "name": "termAuction_",
          "type": "address"
        },
        {
          "internalType": "contract ITermEventEmitter",
          "name": "emitter_",
          "type": "address"
        },
        {
          "internalType": "contract ITermRepoServicer",
          "name": "termRepoServicer_",
          "type": "address"
        },
        {
          "internalType": "address",
          "name": "devopsMultisig_",
          "type": "address"
        }
      ],
      "name": "pairTermContracts",
      "outputs": [],
      "stateMutability": "nonpayable",
      "type": "function"
    },
    {
      "inputs": [],
      "name": "pauseLocking",
      "outputs": [],
      "stateMutability": "nonpayable",
      "type": "function"
    },
    {
      "inputs": [],
      "name": "pauseUnlocking",
      "outputs": [],
      "stateMutability": "nonpayable",
      "type": "function"
    },
    {
      "inputs": [],
      "name": "proxiableUUID",
      "outputs": [
        {
          "internalType": "bytes32",
          "name": "",
          "type": "bytes32"
        }
      ],
      "stateMutability": "view",
      "type": "function"
    },
    {
      "inputs": [],
      "name": "purchaseToken",
      "outputs": [
        {
          "internalType": "contract IERC20Upgradeable",
          "name": "",
          "type": "address"
        }
      ],
      "stateMutability": "view",
      "type": "function"
    },
    {
      "inputs": [
        {
          "internalType": "bytes32",
          "name": "role",
          "type": "bytes32"
        },
        {
          "internalType": "address",
          "name": "account",
          "type": "address"
        }
      ],
      "name": "renounceRole",
      "outputs": [],
      "stateMutability": "nonpayable",
      "type": "function"
    },
    {
      "inputs": [
        {
          "internalType": "bytes32[]",
          "name": "ids",
          "type": "bytes32[]"
        },
        {
          "internalType": "uint256[]",
          "name": "prices",
          "type": "uint256[]"
        },
        {
          "internalType": "uint256[]",
          "name": "nonces",
          "type": "uint256[]"
        }
      ],
      "name": "revealOffers",
      "outputs": [],
      "stateMutability": "nonpayable",
      "type": "function"
    },
    {
      "inputs": [],
      "name": "revealTime",
      "outputs": [
        {
          "internalType": "uint256",
          "name": "",
          "type": "uint256"
        }
      ],
      "stateMutability": "view",
      "type": "function"
    },
    {
      "inputs": [
        {
          "internalType": "bytes32",
          "name": "role",
          "type": "bytes32"
        },
        {
          "internalType": "address",
          "name": "account",
          "type": "address"
        }
      ],
      "name": "revokeRole",
      "outputs": [],
      "stateMutability": "nonpayable",
      "type": "function"
    },
    {
      "inputs": [
        {
          "internalType": "bytes4",
          "name": "interfaceId",
          "type": "bytes4"
        }
      ],
      "name": "supportsInterface",
      "outputs": [
        {
          "internalType": "bool",
          "name": "",
          "type": "bool"
        }
      ],
      "stateMutability": "view",
      "type": "function"
    },
    {
      "inputs": [],
      "name": "termAuctionId",
      "outputs": [
        {
          "internalType": "bytes32",
          "name": "",
          "type": "bytes32"
        }
      ],
      "stateMutability": "view",
      "type": "function"
    },
    {
      "inputs": [],
      "name": "termRepoId",
      "outputs": [
        {
          "internalType": "bytes32",
          "name": "",
          "type": "bytes32"
        }
      ],
      "stateMutability": "view",
      "type": "function"
    },
    {
      "inputs": [],
      "name": "termRepoServicer",
      "outputs": [
        {
          "internalType": "contract ITermRepoServicer",
          "name": "",
          "type": "address"
        }
      ],
      "stateMutability": "view",
      "type": "function"
    },
    {
      "inputs": [
        {
          "internalType": "bytes32",
          "name": "id",
          "type": "bytes32"
        },
        {
          "internalType": "address",
          "name": "offeror",
          "type": "address"
        },
        {
          "internalType": "uint256",
          "name": "amount",
          "type": "uint256"
        }
      ],
      "name": "unlockOfferPartial",
      "outputs": [],
      "stateMutability": "nonpayable",
      "type": "function"
    },
    {
      "inputs": [
        {
          "internalType": "bytes32[]",
          "name": "ids",
          "type": "bytes32[]"
        }
      ],
      "name": "unlockOffers",
      "outputs": [],
      "stateMutability": "nonpayable",
      "type": "function"
    },
    {
      "inputs": [],
      "name": "unlockingPaused",
      "outputs": [
        {
          "internalType": "bool",
          "name": "",
          "type": "bool"
        }
      ],
      "stateMutability": "view",
      "type": "function"
    },
    {
      "inputs": [],
      "name": "unpauseLocking",
      "outputs": [],
      "stateMutability": "nonpayable",
      "type": "function"
    },
    {
      "inputs": [],
      "name": "unpauseUnlocking",
      "outputs": [],
      "stateMutability": "nonpayable",
      "type": "function"
    },
    {
      "inputs": [
        {
          "internalType": "address",
          "name": "newImplementation",
          "type": "address"
        }
      ],
      "name": "upgradeTo",
      "outputs": [],
      "stateMutability": "nonpayable",
      "type": "function"
    },
    {
      "inputs": [
        {
          "internalType": "address",
          "name": "newImplementation",
          "type": "address"
        },
        {
          "internalType": "bytes",
          "name": "data",
          "type": "bytes"
        }
      ],
      "name": "upgradeToAndCall",
      "outputs": [],
      "stateMutability": "payable",
      "type": "function"
    },
    {
      "inputs": [],
      "name": "version",
      "outputs": [
        {
          "internalType": "string",
          "name": "",
          "type": "string"
        }
      ],
      "stateMutability": "view",
      "type": "function"
    }
  ],
  "bytecode": "0x60a0604052306080523480156200001557600080fd5b506200002062000026565b620000e7565b600054610100900460ff1615620000935760405162461bcd60e51b815260206004820152602760248201527f496e697469616c697a61626c653a20636f6e747261637420697320696e697469604482015266616c697a696e6760c81b606482015260840160405180910390fd5b60005460ff90811614620000e5576000805460ff191660ff9081179091556040519081527f7f26b83ff96e1f2b6a682f133852f6798a09c465da95921460cefb38474024989060200160405180910390a15b565b6080516139316200011f600039600081816109af015281816109ef01528181610b4001528181610b800152610bf801526139316000f3fe6080604052600436106102065760003560e01c806354fd4d5011610119578063a8f421c2116100a6578063a8f421c2146105b9578063a95c4d62146105d9578063ab63cf0e146105fa578063ba829d7114610627578063c44cee731461063e578063cc5b6e4a1461066c578063cfe9232b14610683578063cffbc297146106a5578063d547741f146106d6578063db875b69146106f6578063eb54f9ec1461071657600080fd5b806354fd4d50146104715780635ff8d526146104ab5780636d733141146104cb5780637043f034146104e2578063720e52c51461050257806372e3a5b1146105225780637e3f71d51461054f5780638a5cd91e1461056f57806391d1485414610584578063a217fddf146105a457600080fd5b8063357a77d211610197578063357a77d21461035c57806336568abe1461038a5780633659cfe6146103aa5780633e2cf6d6146103ca5780633e836b3d146103e75780633efbfd8c146103fc57806341da54321461041d5780634b449cba146104325780634f1ef2861461044957806352d1902d1461045c57600080fd5b806301ffc9a71461020b5780630c2754ca146102405780630c57f414146102635780631115c24d146102855780631f6427051461029c578063201a6625146102b1578063248a9ca3146102d357806325a2471a1461030357806327df3d3e1461031a5780632f2ff15d1461033c575b600080fd5b34801561021757600080fd5b5061022b610226366004612c65565b61072d565b60405190151581526020015b60405180910390f35b34801561024c57600080fd5b50610255609681565b604051908152602001610237565b34801561026f57600080fd5b5061028361027e366004612caf565b610764565b005b34801561029157600080fd5b506102556101395481565b3480156102a857600080fd5b50610283610857565b3480156102bd57600080fd5b5061025560008051602061385583398151915281565b3480156102df57600080fd5b506102556102ee366004612ce7565b600090815260c9602052604090206001015490565b34801561030f57600080fd5b506102556101325481565b34801561032657600080fd5b5061025560008051602061387583398151915281565b34801561034857600080fd5b50610283610357366004612d00565b6108f8565b34801561036857600080fd5b506101355461037d906001600160a01b031681565b6040516102379190612d30565b34801561039657600080fd5b506102836103a5366004612d00565b610922565b3480156103b657600080fd5b506102836103c5366004612d44565b6109a5565b3480156103d657600080fd5b5061025568056bc75e2d6310000081565b3480156103f357600080fd5b50610283610a6d565b34801561040857600080fd5b5061013a5461022b9062010000900460ff1681565b34801561042957600080fd5b50610283610ad1565b34801561043e57600080fd5b506102556101315481565b610283610457366004612da7565b610b36565b34801561046857600080fd5b50610255610beb565b34801561047d57600080fd5b50604080518082018252600b81526a19195d995b1bdc1b595b9d60aa1b602082015290516102379190612e72565b3480156104b757600080fd5b506102836104c6366004612ef0565b610c99565b3480156104d757600080fd5b5061025561012e5481565b3480156104ee57600080fd5b506102836104fd366004613061565b610d34565b34801561050e57600080fd5b5061028361051d36600461313e565b611057565b34801561052e57600080fd5b5061054261053d366004612ce7565b611263565b60405161023791906131d3565b34801561055b57600080fd5b5061013a5461022b90610100900460ff1681565b34801561057b57600080fd5b506102836112e2565b34801561059057600080fd5b5061022b61059f366004612d00565b61134c565b3480156105b057600080fd5b50610255600081565b3480156105c557600080fd5b506102836105d43660046131e1565b611377565b3480156105e557600080fd5b506101335461037d906001600160a01b031681565b34801561060657600080fd5b5061061a61061536600461323d565b6114da565b60405161023791906132c2565b34801561063357600080fd5b506102556101305481565b34801561064a57600080fd5b5061065e610659366004613306565b6116c1565b6040516102379291906133b6565b34801561067857600080fd5b5061025561012d5481565b34801561068f57600080fd5b506102556000805160206138dc83398151915281565b3480156106b157600080fd5b5061022b6106c0366004612d44565b6101346020526000908152604090205460ff1681565b3480156106e257600080fd5b506102836106f1366004612d00565b611a9b565b34801561070257600080fd5b5061061a6107113660046134c4565b611ac0565b34801561072257600080fd5b5061025561012f5481565b60006001600160e01b03198216637965db0b60e01b148061075e57506301ffc9a760e01b6001600160e01b03198316145b92915050565b6000805160206138dc83398151915261077c81611c71565b610135546040516318ddb12f60e11b81526001600160a01b03909116906331bb625e906107af908690869060040161355d565b600060405180830381600087803b1580156107c957600080fd5b505af11580156107dd573d6000803e3d6000fd5b50506101365461012e54604051635ba1a50760e01b81526001600160a01b039092169350635ba1a507925061081f918890600401918252602082015260400190565b600060405180830381600087803b15801561083957600080fd5b505af115801561084d573d6000803e3d6000fd5b5050505050505050565b60008051602061385583398151915261086f81611c71565b61013a805462ff00001916620100001790556101365461012e5461012d5460405163703d84ab60e01b81526001600160a01b039093169263703d84ab926108c3929091600401918252602082015260400190565b600060405180830381600087803b1580156108dd57600080fd5b505af11580156108f1573d6000803e3d6000fd5b5050505050565b600082815260c9602052604090206001015461091381611c71565b61091d8383611c7b565b505050565b6001600160a01b03811633146109975760405162461bcd60e51b815260206004820152602f60248201527f416363657373436f6e74726f6c3a2063616e206f6e6c792072656e6f756e636560448201526e103937b632b9903337b91039b2b63360891b60648201526084015b60405180910390fd5b6109a18282611d01565b5050565b6001600160a01b037f00000000000000000000000000000000000000000000000000000000000000001630036109ed5760405162461bcd60e51b815260040161098e90613576565b7f00000000000000000000000000000000000000000000000000000000000000006001600160a01b0316610a1f611d68565b6001600160a01b031614610a455760405162461bcd60e51b815260040161098e906135c2565b610a4e81611d84565b60408051600080825260208201909252610a6a91839190611e06565b50565b600080516020613855833981519152610a8581611c71565b61013a805461ff00191690556101365461012e5461012d54604051632f5d386f60e01b8152600481019290925260248201526001600160a01b0390911690632f5d386f906044016108c3565b600080516020613855833981519152610ae981611c71565b61013a805462ff0000191690556101365461012e5461012d5460405163485c705560e11b8152600481019290925260248201526001600160a01b03909116906390b8e0aa906044016108c3565b6001600160a01b037f0000000000000000000000000000000000000000000000000000000000000000163003610b7e5760405162461bcd60e51b815260040161098e90613576565b7f00000000000000000000000000000000000000000000000000000000000000006001600160a01b0316610bb0611d68565b6001600160a01b031614610bd65760405162461bcd60e51b815260040161098e906135c2565b610bdf82611d84565b6109a182826001611e06565b6000306001600160a01b037f00000000000000000000000000000000000000000000000000000000000000001614610c865760405162461bcd60e51b815260206004820152603860248201527f555550535570677261646561626c653a206d757374206e6f742062652063616c6044820152771b1959081d1a1c9bdd59da0819195b1959d85d1958d85b1b60421b606482015260840161098e565b5060008051602061389583398151915290565b61013054421015610cbd576040516302a3f58760e51b815260040160405180910390fd5b60005b85811015610d2b57610d1b878783818110610cdd57610cdd61360e565b90506020020135868684818110610cf657610cf661360e565b90506020020135858585818110610d0f57610d0f61360e565b90506020020135611f71565b610d248161363a565b9050610cc0565b50505050505050565b600054610100900460ff1615808015610d545750600054600160ff909116105b80610d755750610d63306120a1565b158015610d75575060005460ff166001145b610dd85760405162461bcd60e51b815260206004820152602e60248201527f496e697469616c697a61626c653a20636f6e747261637420697320616c72656160448201526d191e481a5b9a5d1a585b1a5e995960921b606482015260840161098e565b6000805460ff191660011790558015610dfb576000805461ff0019166101001790555b610e036120b0565b610e0b6120b0565b610e136120d9565b610e2b60008051602061387583398151915283611c7b565b86881115610e56576040516372067af960e11b8152600481018990526024810188905260440161098e565b8b8b604051602001610e69929190613653565b60408051601f1981840301815290829052805160209182012061012d55610e94918c918c9101613653565b60408051808303601f19018152919052805160209091012061012e5561012f88905561013087905561013186905561013285905561013380546001600160a01b0319166001600160a01b03861617905582516000906001600160401b03811115610f0057610f00612d61565b604051908082528060200260200182016040528015610f29578160200160208202803683370190505b50905060005b84518160ff161015610ff05760016101346000878460ff1681518110610f5757610f5761360e565b60200260200101516001600160a01b03166001600160a01b0316815260200190815260200160002060006101000a81548160ff021916908315150217905550848160ff1681518110610fab57610fab61360e565b6020026020010151828260ff1681518110610fc857610fc861360e565b6001600160a01b0390921660209283029190910190910152610fe981613663565b9050610f2f565b505060006101395561013a805460ff191690558015611049576000805461ff0019169055604051600181527f7f26b83ff96e1f2b6a682f133852f6798a09c465da95921460cefb38474024989060200160405180910390a15b505050505050505050505050565b61013a5462010000900460ff161561108257604051631370a4e760e31b815260040160405180910390fd5b61108a612108565b61012f544210156110ae5760405163f046007760e01b815260040160405180910390fd5b6101305442118015611135575061013760009054906101000a90046001600160a01b03166001600160a01b0316638dfea9e76040518163ffffffff1660e01b8152600401602060405180830381865afa15801561110f573d6000803e3d6000fd5b505050506040513d601f19601f820116820180604052508101906111339190613682565b155b156111535760405163f046007760e01b815260040160405180910390fd5b60005b818110156112585761013860008484848181106111755761117561360e565b905060200201358152602001908152602001600020600401546000036111ca578282828181106111a7576111a761360e565b9050602002013560405163401c968f60e11b815260040161098e91815260200190565b61013860008484848181106111e1576111e161360e565b60209081029290920135835250810191909152604001600020600101546001600160a01b031633146112265760405163738b91eb60e11b815260040160405180910390fd5b61124883838381811061123b5761123b61360e565b9050602002013533612161565b6112518161363a565b9050611156565b506109a1600160fb55565b61126b612bfb565b5060009081526101386020908152604091829020825160e0810184528154815260018201546001600160a01b039081169382019390935260028201549381019390935260038101546060840152600481015460808401526005015490811660a0830152600160a01b900460ff16151560c082015290565b6000805160206138558339815191526112fa81611c71565b61013a805461ff0019166101001790556101365461012e5461012d5460405163935dcfc760e01b81526001600160a01b039093169263935dcfc7926108c3929091600401918252602082015260400190565b600091825260c9602090815260408084206001600160a01b0393909316845291905290205460ff1690565b60008051602061387583398151915261138f81611c71565b61013a5460ff16156113b457604051634ce377bb60e11b815260040160405180910390fd5b61013a805460ff1916600117905561013780546001600160a01b0387166001600160a01b03199091161790556113f86000805160206138dc83398151915286612277565b61141060008051602061385583398151915283611c7b565b61013680546001600160a01b038681166001600160a01b0319928316811790935561013580549187169190921617905561012d5461012e5461012f5461013054610132546040516308866d1360e41b8152600481019590955260248501939093523060448501526064840191909152608483015268056bc75e2d6310000060a483015260c4820152638866d1309060e401600060405180830381600087803b1580156114bb57600080fd5b505af11580156114cf573d6000803e3d6000fd5b505050505050505050565b6060610130544211806114ef575061012f5442105b1561150d5760405163f046007760e01b815260040160405180910390fd5b61013a54610100900460ff16156115375760405163059e557960e41b815260040160405180910390fd5b61153f612108565b6001600160a01b0382163303611568576040516333d8ca2d60e11b815260040160405180910390fd5b6000836001600160401b0381111561158257611582612d61565b6040519080825280602002602001820160405280156115ab578160200160208202803683370190505b50905060005b848110156116ad5760006115ec8787848181106115d0576115d061360e565b905060a002018036038101906115e691906136a4565b33612281565b905080600001548383815181106116055761160561360e565b60209081029190910101526101365461012e5482546001840154600285015460048087015460058801546040516303228b3f60e61b81526001600160a01b039889169863c8a2cfc098611669989097909690821695909493909116918f91016136c0565b600060405180830381600087803b15801561168357600080fd5b505af1158015611697573d6000803e3d6000fd5b5050505050806116a69061363a565b90506115b1565b5090506116ba600160fb55565b9392505050565b6060806000805160206138dc8339815191526116dc81611c71565b610139546116ea85886136fb565b1461170f5761013954604051633186b0c560e11b815260040161098e91815260200190565b6000866001600160401b0381111561172957611729612d61565b60405190808252806020026020018201604052801561176257816020015b61174f612c37565b8152602001906001900390816117475790505b5090506000856001600160401b0381111561177f5761177f612d61565b6040519080825280602002602001820160405280156117b857816020015b6117a5612bfb565b81526020019060019003908161179d5790505b50905060008060005b8a81101561192857600061013860008e8e858181106117e2576117e261360e565b90506020020135815260200190815260200160002090508060040154600003611817578c8c838181106111a7576111a761360e565b6005810154600160a01b900460ff166118495780546040516342b00fd560e01b8152600481019190915260240161098e565b806003015483111561186e576040516305e5dfdd60e11b815260040160405180910390fd5b60038101546040805160e0810182528354815260018401546001600160a01b0390811660208301526002850154928201929092526060810183905260048401546080820152600584015491821660a0820152600160a01b90910460ff16151560c08201529093506118df908461263f565b8685815181106118f1576118f161360e565b602002602001018190525083806119079061363a565b9450506119178160000154612698565b506119218161363a565b90506117c1565b506000805b89811015611a7757600061013860008d8d8581811061194e5761194e61360e565b90506020020135815260200190815260200160002090508060040154600003611983578b8b838181106111a7576111a761360e565b6005810154600160a01b900460ff16156119cc578b8b838181106119a9576119a961360e565b9050602002013560405163b72a25ad60e01b815260040161098e91815260200190565b6040805160e0810182528254815260018301546001600160a01b0390811660208301526002840154928201929092526003830154606082015260048301546080820152600583015491821660a0820152600160a01b90910460ff16151560c08201528651879085908110611a4257611a4261360e565b602002602001018190525082611a579061363a565b9250611a668160000154612698565b50611a708161363a565b905061192d565b506101395415611a8957611a8961370e565b50929a91995090975050505050505050565b600082815260c96020526040902060010154611ab681611c71565b61091d8383611d01565b606061013054421180611ad5575061012f5442105b15611af35760405163f046007760e01b815260040160405180910390fd5b61013a54610100900460ff1615611b1d5760405163059e557960e41b815260040160405180910390fd5b611b25612108565b600082516001600160401b03811115611b4057611b40612d61565b604051908082528060200260200182016040528015611b69578160200160208202803683370190505b50905060005b8351811015611c5f576000611b9d858381518110611b8f57611b8f61360e565b602002602001015133612281565b90508060000154838381518110611bb657611bb661360e565b60209081029190910101526101365461012e5482546001840154600285015460048087015460058801546040516303228b3f60e61b81526001600160a01b039889169863c8a2cfc098611c1b98909790969082169590949390911691600091016136c0565b600060405180830381600087803b158015611c3557600080fd5b505af1158015611c49573d6000803e3d6000fd5b505050505080611c589061363a565b9050611b6f565b509050611c6c600160fb55565b919050565b610a6a8133612701565b611c85828261134c565b6109a157600082815260c9602090815260408083206001600160a01b03851684529091529020805460ff19166001179055611cbd3390565b6001600160a01b0316816001600160a01b0316837f2f8788117e7eff1d82e926ec794901d17c78024a50270940304540a733656f0d60405160405180910390a45050565b611d0b828261134c565b156109a157600082815260c9602090815260408083206001600160a01b0385168085529252808320805460ff1916905551339285917ff6391f5c32d9c69d2a47ea670b442974b53935d1edc7fd64eb21e047a839171b9190a45050565b600080516020613895833981519152546001600160a01b031690565b600080516020613855833981519152611d9c81611c71565b6101365460405163b3c2d50b60e01b81523060048201526001600160a01b0384811660248301529091169063b3c2d50b90604401600060405180830381600087803b158015611dea57600080fd5b505af1158015611dfe573d6000803e3d6000fd5b505050505050565b7f4910fdfa16fed3260ed0e7147f7cc6da11a60208b5b9406d12a635614ffd91435460ff1615611e395761091d8361275a565b826001600160a01b03166352d1902d6040518163ffffffff1660e01b8152600401602060405180830381865afa925050508015611e93575060408051601f3d908101601f19168201909252611e9091810190613724565b60015b611ef65760405162461bcd60e51b815260206004820152602e60248201527f45524331393637557067726164653a206e657720696d706c656d656e7461746960448201526d6f6e206973206e6f74205555505360901b606482015260840161098e565b6000805160206138958339815191528114611f655760405162461bcd60e51b815260206004820152602960248201527f45524331393637557067726164653a20756e737570706f727465642070726f786044820152681a58589b195555525160ba1b606482015260840161098e565b5061091d8383836127f4565b600083815261013860209081526040918290206002015482519182018590529181018390526060016040516020818303038152906040528051906020012014611fcd57604051630ce8dc1d60e11b815260040160405180910390fd5b68056bc75e2d6310000082111561200957604051632dc71e8d60e01b81526004810184905268056bc75e2d63100000602482015260440161098e565b600083815261013860205260409081902060038101849055600501805460ff60a01b1916600160a01b1790556101365461012e549151632f68befb60e11b8152600481019290925260248201859052604482018490526001600160a01b031690635ed17df6906064015b600060405180830381600087803b15801561208d57600080fd5b505af1158015610d2b573d6000803e3d6000fd5b6001600160a01b03163b151590565b600054610100900460ff166120d75760405162461bcd60e51b815260040161098e9061373d565b565b600054610100900460ff166121005760405162461bcd60e51b815260040161098e9061373d565b6120d761281f565b600260fb540361215a5760405162461bcd60e51b815260206004820152601f60248201527f5265656e7472616e637947756172643a207265656e7472616e742063616c6c00604482015260640161098e565b600260fb55565b600082815261013860205260408120600481018054838355600180840180546001600160a01b0319169055600284018590556003840185905591849055600590920180546001600160a81b03191690556101398054929391929091906121c8908490613788565b90915550506101365461012e54604051635ba1a50760e01b81526001600160a01b0390921691635ba1a5079161220b918790600401918252602082015260400190565b600060405180830381600087803b15801561222557600080fd5b505af1158015612239573d6000803e3d6000fd5b5050610135546040516318ddb12f60e11b81526001600160a01b0390911692506331bb625e9150612073908590859060040161355d565b600160fb55565b6109a18282611c7b565b6000826020015182816001600160a01b0316816001600160a01b0316146122bb5760405163738b91eb60e11b815260040160405180910390fd5b609661013954106122df576040516336ac50e160e21b815260040160405180910390fd5b845160009081526101386020526040812060040154158015919061234c57602080880151885160009081526101389092526040909120600101546001600160a01b039081169116146123445760405163738b91eb60e11b815260040160405180910390fd5b50855161235b565b86516123589087612846565b90505b6080870151610133546001600160a01b0390811691161461239557866080015160405163e34b641f60e01b815260040161098e9190612d30565b61013254876060015110156123c557866060015160405163012a8d3160e11b815260040161098e91815260200190565b600061013860008381526020019081526020016000206004015490506040518060e0016040528083815260200189602001516001600160a01b0316815260200189604001518152602001600081526020018960600151815260200189608001516001600160a01b031681526020016000151581525061013860008481526020019081526020016000206000820151816000015560208201518160010160006101000a8154816001600160a01b0302191690836001600160a01b0316021790555060408201518160020155606082015181600301556080820151816004015560a08201518160050160006101000a8154816001600160a01b0302191690836001600160a01b0316021790555060c08201518160050160146101000a81548160ff02191690831515021790555090505082612512576001610139600082825461250c91906136fb565b90915550505b876060015181101561259e5761013554602089015160608a01516001600160a01b03909216916308772759919061254a908590613788565b6040518363ffffffff1660e01b815260040161256792919061355d565b600060405180830381600087803b15801561258157600080fd5b505af1158015612595573d6000803e3d6000fd5b50505050612625565b87606001518111156126255761013554602089015160608a01516001600160a01b03909216916331bb625e91906125d59085613788565b6040518363ffffffff1660e01b81526004016125f292919061355d565b600060405180830381600087803b15801561260c57600080fd5b505af1158015612620573d6000803e3d6000fd5b505050505b506000908152610138602052604090209695505050505050565b612647612c37565b6040518060a001604052808460000151815260200184602001516001600160a01b03168152602001838152602001846080015181526020018460a001516001600160a01b0316815250905092915050565b600081815261013860205260408120818155600180820180546001600160a01b0319169055600282018390556003820183905560048201839055600590910180546001600160a81b03191690556101398054919290916126f9908490613788565b909155505050565b61270b828261134c565b6109a157612718816128cd565b6127238360206128df565b60405160200161273492919061379b565b60408051601f198184030181529082905262461bcd60e51b825261098e91600401612e72565b612763816120a1565b6127c55760405162461bcd60e51b815260206004820152602d60248201527f455243313936373a206e657720696d706c656d656e746174696f6e206973206e60448201526c1bdd08184818dbdb9d1c9858dd609a1b606482015260840161098e565b60008051602061389583398151915280546001600160a01b0319166001600160a01b0392909216919091179055565b6127fd83612a7a565b60008251118061280a5750805b1561091d576128198383612aba565b50505050565b600054610100900460ff166122705760405162461bcd60e51b815260040161098e9061373d565b60008083833060405160200161288093929190928352606091821b6001600160601b03199081166020850152911b16603482015260480190565b60408051601f1981840301815291815281516020928301206000818152610138909352912060040154909150156116ba576040516327fce3dd60e11b81526004810182905260240161098e565b606061075e6001600160a01b03831660145b606060006128ee83600261380a565b6128f99060026136fb565b6001600160401b0381111561291057612910612d61565b6040519080825280601f01601f19166020018201604052801561293a576020820181803683370190505b509050600360fc1b816000815181106129555761295561360e565b60200101906001600160f81b031916908160001a905350600f60fb1b816001815181106129845761298461360e565b60200101906001600160f81b031916908160001a90535060006129a884600261380a565b6129b39060016136fb565b90505b6001811115612a2b576f181899199a1a9b1b9c1cb0b131b232b360811b85600f16601081106129e7576129e761360e565b1a60f81b8282815181106129fd576129fd61360e565b60200101906001600160f81b031916908160001a90535060049490941c93612a2481613821565b90506129b6565b5083156116ba5760405162461bcd60e51b815260206004820181905260248201527f537472696e67733a20686578206c656e67746820696e73756666696369656e74604482015260640161098e565b612a838161275a565b6040516001600160a01b038216907fbc7cd75a20ee27fd9adebab32041f755214dbc6bffa90cc0225b39da2e5c2d3b90600090a250565b60606116ba83836040518060600160405280602781526020016138b5602791396060600080856001600160a01b031685604051612af79190613838565b600060405180830381855af49150503d8060008114612b32576040519150601f19603f3d011682016040523d82523d6000602084013e612b37565b606091505b5091509150612b4886838387612b52565b9695505050505050565b60608315612bbf578251600003612bb857612b6c856120a1565b612bb85760405162461bcd60e51b815260206004820152601d60248201527f416464726573733a2063616c6c20746f206e6f6e2d636f6e7472616374000000604482015260640161098e565b5081612bc9565b612bc98383612bd1565b949350505050565b815115612be15781518083602001fd5b8060405162461bcd60e51b815260040161098e9190612e72565b6040805160e081018252600080825260208201819052918101829052606081018290526080810182905260a0810182905260c081019190915290565b6040805160a08101825260008082526020820181905291810182905260608101829052608081019190915290565b600060208284031215612c7757600080fd5b81356001600160e01b0319811681146116ba57600080fd5b6001600160a01b0381168114610a6a57600080fd5b8035611c6c81612c8f565b600080600060608486031215612cc457600080fd5b833592506020840135612cd681612c8f565b929592945050506040919091013590565b600060208284031215612cf957600080fd5b5035919050565b60008060408385031215612d1357600080fd5b823591506020830135612d2581612c8f565b809150509250929050565b6001600160a01b0391909116815260200190565b600060208284031215612d5657600080fd5b81356116ba81612c8f565b634e487b7160e01b600052604160045260246000fd5b604051601f8201601f191681016001600160401b0381118282101715612d9f57612d9f612d61565b604052919050565b60008060408385031215612dba57600080fd5b8235612dc581612c8f565b91506020838101356001600160401b0380821115612de257600080fd5b818601915086601f830112612df657600080fd5b813581811115612e0857612e08612d61565b612e1a601f8201601f19168501612d77565b91508082528784828501011115612e3057600080fd5b80848401858401376000848284010152508093505050509250929050565b60005b83811015612e69578181015183820152602001612e51565b50506000910152565b6020815260008251806020840152612e91816040850160208701612e4e565b601f01601f19169190910160400192915050565b60008083601f840112612eb757600080fd5b5081356001600160401b03811115612ece57600080fd5b6020830191508360208260051b8501011115612ee957600080fd5b9250929050565b60008060008060008060608789031215612f0957600080fd5b86356001600160401b0380821115612f2057600080fd5b612f2c8a838b01612ea5565b90985096506020890135915080821115612f4557600080fd5b612f518a838b01612ea5565b90965094506040890135915080821115612f6a57600080fd5b50612f7789828a01612ea5565b979a9699509497509295939492505050565b60008083601f840112612f9b57600080fd5b5081356001600160401b03811115612fb257600080fd5b602083019150836020828501011115612ee957600080fd5b60006001600160401b03821115612fe357612fe3612d61565b5060051b60200190565b600082601f830112612ffe57600080fd5b8135602061301361300e83612fca565b612d77565b82815260059290921b8401810191818101908684111561303257600080fd5b8286015b8481101561305657803561304981612c8f565b8352918301918301613036565b509695505050505050565b60008060008060008060008060008060006101208c8e03121561308357600080fd5b6001600160401b03808d35111561309957600080fd5b6130a68e8e358f01612f89565b909c509a5060208d01358110156130bc57600080fd5b6130cc8e60208f01358f01612f89565b909a50985060408d0135975060608d0135965060808d0135955060a08d013594506130f960c08e01612ca4565b93508060e08e0135111561310c57600080fd5b5061311d8d60e08e01358e01612fed565b915061312c6101008d01612ca4565b90509295989b509295989b9093969950565b6000806020838503121561315157600080fd5b82356001600160401b0381111561316757600080fd5b61317385828601612ea5565b90969095509350505050565b80518252602081015160018060a01b0380821660208501526040830151604085015260608301516060850152608083015160808501528060a08401511660a0850152505060c0810151151560c08301525050565b60e0810161075e828461317f565b600080600080608085870312156131f757600080fd5b843561320281612c8f565b9350602085013561321281612c8f565b9250604085013561322281612c8f565b9150606085013561323281612c8f565b939692955090935050565b60008060006040848603121561325257600080fd5b83356001600160401b038082111561326957600080fd5b818601915086601f83011261327d57600080fd5b81358181111561328c57600080fd5b87602060a0830285010111156132a157600080fd5b602092830195509350508401356132b781612c8f565b809150509250925092565b6020808252825182820181905260009190848201906040850190845b818110156132fa578351835292840192918401916001016132de565b50909695505050505050565b6000806000806040858703121561331c57600080fd5b84356001600160401b038082111561333357600080fd5b61333f88838901612ea5565b9096509450602087013591508082111561335857600080fd5b5061336587828801612ea5565b95989497509550505050565b600081518084526020808501945080840160005b838110156133ab5761339887835161317f565b60e0969096019590820190600101613385565b509495945050505050565b6040808252835182820181905260009190606090818501906020808901865b8381101561342357815180518652838101516001600160a01b039081168588015288820151898801528782015188880152608091820151169086015260a090940193908201906001016133d5565b505086830390870152506134378187613371565b979650505050505050565b600060a0828403121561345457600080fd5b60405160a081018181106001600160401b038211171561347657613476612d61565b60405282358152905080602083013561348e81612c8f565b80602083015250604083013560408201526060830135606082015260808301356134b781612c8f565b6080919091015292915050565b600060208083850312156134d757600080fd5b82356001600160401b038111156134ed57600080fd5b8301601f810185136134fe57600080fd5b803561350c61300e82612fca565b81815260a0918202830184019184820191908884111561352b57600080fd5b938501935b83851015613551576135428986613442565b83529384019391850191613530565b50979650505050505050565b6001600160a01b03929092168252602082015260400190565b6020808252602c908201527f46756e6374696f6e206d7573742062652063616c6c6564207468726f7567682060408201526b19195b1959d85d1958d85b1b60a21b606082015260800190565b6020808252602c908201527f46756e6374696f6e206d7573742062652063616c6c6564207468726f7567682060408201526b6163746976652070726f787960a01b606082015260800190565b634e487b7160e01b600052603260045260246000fd5b634e487b7160e01b600052601160045260246000fd5b60006001820161364c5761364c613624565b5060010190565b8183823760009101908152919050565b600060ff821660ff810361367957613679613624565b60010192915050565b60006020828403121561369457600080fd5b815180151581146116ba57600080fd5b600060a082840312156136b657600080fd5b6116ba8383613442565b96875260208701959095526001600160a01b03938416604087015260608601929092526080850152811660a08401521660c082015260e00190565b8082018082111561075e5761075e613624565b634e487b7160e01b600052600160045260246000fd5b60006020828403121561373657600080fd5b5051919050565b6020808252602b908201527f496e697469616c697a61626c653a20636f6e7472616374206973206e6f74206960408201526a6e697469616c697a696e6760a81b606082015260800190565b8181038181111561075e5761075e613624565b76020b1b1b2b9b9a1b7b73a3937b61d1030b1b1b7bab73a1604d1b8152600083516137cd816017850160208801612e4e565b7001034b99036b4b9b9b4b733903937b6329607d1b60179184019182015283516137fe816028840160208801612e4e565b01602801949350505050565b808202811582820484141761075e5761075e613624565b60008161383057613830613624565b506000190190565b6000825161384a818460208701612e4e565b919091019291505056fe793a6c9b7e0a9549c74edc2f9ae0dc50903dfaa9a56fb0116b27a8c71de3e2c630d41a597cac127d8249d31298b50e481ee82c3f4a49ff93c76a22735aa9f3ad360894a13ba1a3210667c828492db98dca3e2076cc3735a920a3ca505d382bbc416464726573733a206c6f772d6c6576656c2064656c65676174652063616c6c206661696c6564c1df76f4e50bdb95676f782d4b88b23904c5346d8bc7c986ae26f7e10e601891a26469706673582212207a8b46852f1b74a1bc1691cb3ad0032d4f890cd1e3c41d4050fb58c0fa0f00e064736f6c63430008120033",
  "linkReferences": {},
  "deployedLinkReferences": {}
}