{
  "_format": "hh-sol-artifact-1",
  "contractName": "TermAuctionOfferLocker",
  "sourceName": "contracts/TermAuctionOfferLocker.sol",
  "abi": [
    {
      "inputs": [],
      "stateMutability": "nonpayable",
      "type": "constructor"
    },
    {
      "inputs": [],
      "name": "AccessControlBadConfirmation",
      "type": "error"
    },
    {
      "inputs": [
        {
          "internalType": "address",
          "name": "account",
          "type": "address"
        },
        {
          "internalType": "bytes32",
          "name": "neededRole",
          "type": "bytes32"
        }
      ],
      "name": "AccessControlUnauthorizedAccount",
      "type": "error"
    },
    {
      "inputs": [
        {
          "internalType": "address",
          "name": "target",
          "type": "address"
        }
      ],
      "name": "AddressEmptyCode",
      "type": "error"
    },
    {
      "inputs": [],
      "name": "AlreadyTermContractPaired",
      "type": "error"
    },
    {
      "inputs": [],
      "name": "AuctionNotClosed",
      "type": "error"
    },
    {
      "inputs": [],
      "name": "AuctionNotOpen",
      "type": "error"
    },
    {
      "inputs": [],
      "name": "AuctionNotRevealing",
      "type": "error"
    },
    {
      "inputs": [
        {
          "internalType": "uint256",
          "name": "reveal",
          "type": "uint256"
        },
        {
          "internalType": "uint256",
          "name": "end",
          "type": "uint256"
        }
      ],
      "name": "AuctionRevealsAfterEnd",
      "type": "error"
    },
    {
      "inputs": [
        {
          "internalType": "uint256",
          "name": "start",
          "type": "uint256"
        },
        {
          "internalType": "uint256",
          "name": "reveal",
          "type": "uint256"
        }
      ],
      "name": "AuctionStartsAfterReveal",
      "type": "error"
    },
    {
      "inputs": [
        {
          "internalType": "address",
          "name": "token",
          "type": "address"
        }
      ],
      "name": "CollateralTokenNotApproved",
      "type": "error"
    },
    {
      "inputs": [
        {
          "internalType": "address",
          "name": "implementation",
          "type": "address"
        }
      ],
      "name": "ERC1967InvalidImplementation",
      "type": "error"
    },
    {
      "inputs": [],
      "name": "ERC1967NonPayable",
      "type": "error"
    },
    {
      "inputs": [],
      "name": "FailedCall",
      "type": "error"
    },
    {
      "inputs": [
        {
          "internalType": "bytes32",
          "name": "offerId",
          "type": "bytes32"
        }
      ],
      "name": "GeneratingExistingOffer",
      "type": "error"
    },
    {
      "inputs": [],
      "name": "InvalidInitialization",
      "type": "error"
    },
    {
      "inputs": [],
      "name": "InvalidSelfReferral",
      "type": "error"
    },
    {
      "inputs": [],
      "name": "LockingPaused",
      "type": "error"
    },
    {
      "inputs": [],
      "name": "MaxOfferCountReached",
      "type": "error"
    },
    {
      "inputs": [],
      "name": "NoOfferToUnlock",
      "type": "error"
    },
    {
      "inputs": [
        {
          "internalType": "bytes32",
          "name": "id",
          "type": "bytes32"
        }
      ],
      "name": "NonExistentOffer",
      "type": "error"
    },
    {
      "inputs": [],
      "name": "NotInitializing",
      "type": "error"
    },
    {
      "inputs": [],
      "name": "OfferAlreadyRevealed",
      "type": "error"
    },
    {
      "inputs": [
        {
          "internalType": "uint256",
          "name": "amount",
          "type": "uint256"
        }
      ],
      "name": "OfferAmountTooLow",
      "type": "error"
    },
    {
      "inputs": [
        {
          "internalType": "uint256",
          "name": "offerCount",
          "type": "uint256"
        }
      ],
      "name": "OfferCountIncorrect",
      "type": "error"
    },
    {
      "inputs": [],
      "name": "OfferNotOwned",
      "type": "error"
    },
    {
      "inputs": [
        {
          "internalType": "bytes32",
          "name": "id",
          "type": "bytes32"
        }
      ],
      "name": "OfferNotRevealed",
      "type": "error"
    },
    {
      "inputs": [],
      "name": "OfferPriceModified",
      "type": "error"
    },
    {
      "inputs": [
        {
          "internalType": "bytes32",
          "name": "id",
          "type": "bytes32"
        }
      ],
      "name": "OfferRevealed",
      "type": "error"
    },
    {
      "inputs": [
        {
          "internalType": "address",
          "name": "token",
          "type": "address"
        }
      ],
      "name": "PurchaseTokenNotApproved",
      "type": "error"
    },
    {
      "inputs": [],
      "name": "ReentrancyGuardReentrantCall",
      "type": "error"
    },
    {
      "inputs": [],
      "name": "RevealedOffersNotSorted",
      "type": "error"
    },
    {
      "inputs": [
        {
          "internalType": "bytes32",
          "name": "id",
          "type": "bytes32"
        },
        {
          "internalType": "uint256",
          "name": "maxPrice",
          "type": "uint256"
        }
      ],
      "name": "TenderPriceTooHigh",
      "type": "error"
    },
    {
      "inputs": [],
      "name": "TermContractsPaused",
      "type": "error"
    },
    {
      "inputs": [],
      "name": "UUPSUnauthorizedCallContext",
      "type": "error"
    },
    {
      "inputs": [
        {
          "internalType": "bytes32",
          "name": "slot",
          "type": "bytes32"
        }
      ],
      "name": "UUPSUnsupportedProxiableUUID",
      "type": "error"
    },
    {
      "inputs": [],
      "name": "UnlockingPaused",
      "type": "error"
    },
    {
      "anonymous": false,
      "inputs": [
        {
          "indexed": false,
          "internalType": "uint64",
          "name": "version",
          "type": "uint64"
        }
      ],
      "name": "Initialized",
      "type": "event"
    },
    {
      "anonymous": false,
      "inputs": [
        {
          "indexed": true,
          "internalType": "bytes32",
          "name": "role",
          "type": "bytes32"
        },
        {
          "indexed": true,
          "internalType": "bytes32",
          "name": "previousAdminRole",
          "type": "bytes32"
        },
        {
          "indexed": true,
          "internalType": "bytes32",
          "name": "newAdminRole",
          "type": "bytes32"
        }
      ],
      "name": "RoleAdminChanged",
      "type": "event"
    },
    {
      "anonymous": false,
      "inputs": [
        {
          "indexed": true,
          "internalType": "bytes32",
          "name": "role",
          "type": "bytes32"
        },
        {
          "indexed": true,
          "internalType": "address",
          "name": "account",
          "type": "address"
        },
        {
          "indexed": true,
          "internalType": "address",
          "name": "sender",
          "type": "address"
        }
      ],
      "name": "RoleGranted",
      "type": "event"
    },
    {
      "anonymous": false,
      "inputs": [
        {
          "indexed": true,
          "internalType": "bytes32",
          "name": "role",
          "type": "bytes32"
        },
        {
          "indexed": true,
          "internalType": "address",
          "name": "account",
          "type": "address"
        },
        {
          "indexed": true,
          "internalType": "address",
          "name": "sender",
          "type": "address"
        }
      ],
      "name": "RoleRevoked",
      "type": "event"
    },
    {
      "anonymous": false,
      "inputs": [
        {
          "indexed": true,
          "internalType": "address",
          "name": "implementation",
          "type": "address"
        }
      ],
      "name": "Upgraded",
      "type": "event"
    },
    {
      "inputs": [],
      "name": "ADMIN_ROLE",
      "outputs": [
        {
          "internalType": "bytes32",
          "name": "",
          "type": "bytes32"
        }
      ],
      "stateMutability": "view",
      "type": "function"
    },
    {
      "inputs": [],
      "name": "AUCTIONEER_ROLE",
      "outputs": [
        {
          "internalType": "bytes32",
          "name": "",
          "type": "bytes32"
        }
      ],
      "stateMutability": "view",
      "type": "function"
    },
    {
      "inputs": [],
      "name": "DEFAULT_ADMIN_ROLE",
      "outputs": [
        {
          "internalType": "bytes32",
          "name": "",
          "type": "bytes32"
        }
      ],
      "stateMutability": "view",
      "type": "function"
    },
    {
      "inputs": [],
      "name": "DEVOPS_ROLE",
      "outputs": [
        {
          "internalType": "bytes32",
          "name": "",
          "type": "bytes32"
        }
      ],
      "stateMutability": "view",
      "type": "function"
    },
    {
      "inputs": [],
      "name": "DIAMOND_ROLE",
      "outputs": [
        {
          "internalType": "bytes32",
          "name": "",
          "type": "bytes32"
        }
      ],
      "stateMutability": "view",
      "type": "function"
    },
    {
      "inputs": [],
      "name": "INITIALIZER_ROLE",
      "outputs": [
        {
          "internalType": "bytes32",
          "name": "",
          "type": "bytes32"
        }
      ],
      "stateMutability": "view",
      "type": "function"
    },
    {
      "inputs": [],
      "name": "MAX_OFFER_COUNT",
      "outputs": [
        {
          "internalType": "uint256",
          "name": "",
          "type": "uint256"
        }
      ],
      "stateMutability": "view",
      "type": "function"
    },
    {
      "inputs": [],
      "name": "MAX_OFFER_PRICE",
      "outputs": [
        {
          "internalType": "uint256",
          "name": "",
          "type": "uint256"
        }
      ],
      "stateMutability": "view",
      "type": "function"
    },
    {
      "inputs": [],
      "name": "UPGRADE_INTERFACE_VERSION",
      "outputs": [
        {
          "internalType": "string",
          "name": "",
          "type": "string"
        }
      ],
      "stateMutability": "view",
      "type": "function"
    },
    {
      "inputs": [],
      "name": "auctionEndTime",
      "outputs": [
        {
          "internalType": "uint256",
          "name": "",
          "type": "uint256"
        }
      ],
      "stateMutability": "view",
      "type": "function"
    },
    {
      "inputs": [],
      "name": "auctionStartTime",
      "outputs": [
        {
          "internalType": "uint256",
          "name": "",
          "type": "uint256"
        }
      ],
      "stateMutability": "view",
      "type": "function"
    },
    {
      "inputs": [
        {
          "internalType": "contract IERC20",
          "name": "",
          "type": "address"
        }
      ],
      "name": "collateralTokens",
      "outputs": [
        {
          "internalType": "bool",
          "name": "",
          "type": "bool"
        }
      ],
      "stateMutability": "view",
      "type": "function"
    },
    {
      "inputs": [
        {
          "internalType": "bytes32[]",
          "name": "revealedOffers",
          "type": "bytes32[]"
        },
        {
          "internalType": "bytes32[]",
          "name": "unrevealedOffers",
          "type": "bytes32[]"
        }
      ],
      "name": "getAllOffers",
      "outputs": [
        {
          "components": [
            {
              "internalType": "bytes32",
              "name": "id",
              "type": "bytes32"
            },
            {
              "internalType": "address",
              "name": "offeror",
              "type": "address"
            },
            {
              "internalType": "uint256",
              "name": "offerPriceRevealed",
              "type": "uint256"
            },
            {
              "internalType": "uint256",
              "name": "amount",
              "type": "uint256"
            },
            {
              "internalType": "address",
              "name": "purchaseToken",
              "type": "address"
            }
          ],
          "internalType": "struct TermAuctionRevealedOffer[]",
          "name": "",
          "type": "tuple[]"
        },
        {
          "components": [
            {
              "internalType": "bytes32",
              "name": "id",
              "type": "bytes32"
            },
            {
              "internalType": "address",
              "name": "offeror",
              "type": "address"
            },
            {
              "internalType": "bytes32",
              "name": "offerPriceHash",
              "type": "bytes32"
            },
            {
              "internalType": "uint256",
              "name": "offerPriceRevealed",
              "type": "uint256"
            },
            {
              "internalType": "uint256",
              "name": "amount",
              "type": "uint256"
            },
            {
              "internalType": "address",
              "name": "purchaseToken",
              "type": "address"
            },
            {
              "internalType": "bool",
              "name": "isRevealed",
              "type": "bool"
            }
          ],
          "internalType": "struct TermAuctionOffer[]",
          "name": "",
          "type": "tuple[]"
        }
      ],
      "stateMutability": "nonpayable",
      "type": "function"
    },
    {
      "inputs": [
        {
          "internalType": "bytes32",
          "name": "role",
          "type": "bytes32"
        }
      ],
      "name": "getRoleAdmin",
      "outputs": [
        {
          "internalType": "bytes32",
          "name": "",
          "type": "bytes32"
        }
      ],
      "stateMutability": "view",
      "type": "function"
    },
    {
      "inputs": [
        {
          "internalType": "bytes32",
          "name": "role",
          "type": "bytes32"
        },
        {
          "internalType": "address",
          "name": "account",
          "type": "address"
        }
      ],
      "name": "grantRole",
      "outputs": [],
      "stateMutability": "nonpayable",
      "type": "function"
    },
    {
      "inputs": [
        {
          "internalType": "bytes32",
          "name": "role",
          "type": "bytes32"
        },
        {
          "internalType": "address",
          "name": "account",
          "type": "address"
        }
      ],
      "name": "hasRole",
      "outputs": [
        {
          "internalType": "bool",
          "name": "",
          "type": "bool"
        }
      ],
      "stateMutability": "view",
      "type": "function"
    },
    {
      "inputs": [
        {
          "internalType": "string",
          "name": "termRepoId_",
          "type": "string"
        },
        {
          "internalType": "string",
          "name": "auctionId_",
          "type": "string"
        },
        {
          "internalType": "uint256",
          "name": "auctionStartTime_",
          "type": "uint256"
        },
        {
          "internalType": "uint256",
          "name": "revealTime_",
          "type": "uint256"
        },
        {
          "internalType": "uint256",
          "name": "auctionEndTime_",
          "type": "uint256"
        },
        {
          "internalType": "uint256",
          "name": "minimumTenderAmount_",
          "type": "uint256"
        },
        {
          "internalType": "contract IERC20",
          "name": "purchaseToken_",
          "type": "address"
        },
        {
          "internalType": "contract IERC20[]",
          "name": "collateralTokens_",
          "type": "address[]"
        },
        {
          "internalType": "address",
          "name": "termInitializer_",
          "type": "address"
        }
      ],
      "name": "initialize",
      "outputs": [],
      "stateMutability": "nonpayable",
      "type": "function"
    },
    {
      "inputs": [
        {
          "components": [
            {
              "internalType": "bytes32",
              "name": "id",
              "type": "bytes32"
            },
            {
              "internalType": "address",
              "name": "offeror",
              "type": "address"
            },
            {
              "internalType": "bytes32",
              "name": "offerPriceHash",
              "type": "bytes32"
            },
            {
              "internalType": "uint256",
              "name": "amount",
              "type": "uint256"
            },
            {
              "internalType": "address",
              "name": "purchaseToken",
              "type": "address"
            }
          ],
          "internalType": "struct TermAuctionOfferSubmission[]",
          "name": "offerSubmissions",
          "type": "tuple[]"
        }
      ],
      "name": "lockOffers",
      "outputs": [
        {
          "internalType": "bytes32[]",
          "name": "",
          "type": "bytes32[]"
        }
      ],
      "stateMutability": "nonpayable",
      "type": "function"
    },
    {
      "inputs": [
        {
          "internalType": "address",
          "name": "offeror",
          "type": "address"
        },
        {
          "components": [
            {
              "internalType": "bytes32",
              "name": "id",
              "type": "bytes32"
            },
            {
              "internalType": "address",
              "name": "offeror",
              "type": "address"
            },
            {
              "internalType": "bytes32",
              "name": "offerPriceHash",
              "type": "bytes32"
            },
            {
              "internalType": "uint256",
              "name": "amount",
              "type": "uint256"
            },
            {
              "internalType": "address",
              "name": "purchaseToken",
              "type": "address"
            }
          ],
          "internalType": "struct TermAuctionOfferSubmission[]",
          "name": "offerSubmissions",
          "type": "tuple[]"
        },
        {
          "internalType": "address",
          "name": "referralAddress",
          "type": "address"
        }
      ],
      "name": "lockOffersWithReferral",
      "outputs": [
        {
          "internalType": "bytes32[]",
          "name": "",
          "type": "bytes32[]"
        }
      ],
      "stateMutability": "nonpayable",
      "type": "function"
    },
    {
      "inputs": [
        {
          "components": [
            {
              "internalType": "bytes32",
              "name": "id",
              "type": "bytes32"
            },
            {
              "internalType": "address",
              "name": "offeror",
              "type": "address"
            },
            {
              "internalType": "bytes32",
              "name": "offerPriceHash",
              "type": "bytes32"
            },
            {
              "internalType": "uint256",
              "name": "amount",
              "type": "uint256"
            },
            {
              "internalType": "address",
              "name": "purchaseToken",
              "type": "address"
            }
          ],
          "internalType": "struct TermAuctionOfferSubmission[]",
          "name": "offerSubmissions",
          "type": "tuple[]"
        },
        {
          "internalType": "address",
          "name": "referralAddress",
          "type": "address"
        }
      ],
      "name": "lockOffersWithReferral",
      "outputs": [
        {
          "internalType": "bytes32[]",
          "name": "",
          "type": "bytes32[]"
        }
      ],
      "stateMutability": "nonpayable",
      "type": "function"
    },
    {
      "inputs": [
        {
          "internalType": "bytes32",
          "name": "id",
          "type": "bytes32"
        }
      ],
      "name": "lockedOffer",
      "outputs": [
        {
          "components": [
            {
              "internalType": "bytes32",
              "name": "id",
              "type": "bytes32"
            },
            {
              "internalType": "address",
              "name": "offeror",
              "type": "address"
            },
            {
              "internalType": "bytes32",
              "name": "offerPriceHash",
              "type": "bytes32"
            },
            {
              "internalType": "uint256",
              "name": "offerPriceRevealed",
              "type": "uint256"
            },
            {
              "internalType": "uint256",
              "name": "amount",
              "type": "uint256"
            },
            {
              "internalType": "address",
              "name": "purchaseToken",
              "type": "address"
            },
            {
              "internalType": "bool",
              "name": "isRevealed",
              "type": "bool"
            }
          ],
          "internalType": "struct TermAuctionOffer",
          "name": "",
          "type": "tuple"
        }
      ],
      "stateMutability": "view",
      "type": "function"
    },
    {
      "inputs": [],
      "name": "lockingPaused",
      "outputs": [
        {
          "internalType": "bool",
          "name": "",
          "type": "bool"
        }
      ],
      "stateMutability": "view",
      "type": "function"
    },
    {
      "inputs": [],
      "name": "minimumTenderAmount",
      "outputs": [
        {
          "internalType": "uint256",
          "name": "",
          "type": "uint256"
        }
      ],
      "stateMutability": "view",
      "type": "function"
    },
    {
      "inputs": [],
      "name": "offerCount",
      "outputs": [
        {
          "internalType": "uint256",
          "name": "",
          "type": "uint256"
        }
      ],
      "stateMutability": "view",
      "type": "function"
    },
    {
      "inputs": [
        {
          "internalType": "address",
          "name": "termAuction_",
          "type": "address"
        },
        {
          "internalType": "contract ITermEventEmitter",
          "name": "emitter_",
          "type": "address"
        },
        {
          "internalType": "contract ITermRepoServicer",
          "name": "termRepoServicer_",
          "type": "address"
        },
        {
          "internalType": "address",
          "name": "devopsMultisig_",
          "type": "address"
        },
        {
          "internalType": "address",
          "name": "adminWallet_",
          "type": "address"
        },
        {
          "internalType": "address",
          "name": "termDiamond_",
          "type": "address"
        }
      ],
      "name": "pairTermContracts",
      "outputs": [],
      "stateMutability": "nonpayable",
      "type": "function"
    },
    {
      "inputs": [],
      "name": "pauseLocking",
      "outputs": [],
      "stateMutability": "nonpayable",
      "type": "function"
    },
    {
      "inputs": [],
      "name": "pauseUnlocking",
      "outputs": [],
      "stateMutability": "nonpayable",
      "type": "function"
    },
    {
      "inputs": [],
      "name": "proxiableUUID",
      "outputs": [
        {
          "internalType": "bytes32",
          "name": "",
          "type": "bytes32"
        }
      ],
      "stateMutability": "view",
      "type": "function"
    },
    {
      "inputs": [],
      "name": "purchaseToken",
      "outputs": [
        {
          "internalType": "contract IERC20",
          "name": "",
          "type": "address"
        }
      ],
      "stateMutability": "view",
      "type": "function"
    },
    {
      "inputs": [
        {
          "internalType": "bytes32",
          "name": "role",
          "type": "bytes32"
        },
        {
          "internalType": "address",
          "name": "callerConfirmation",
          "type": "address"
        }
      ],
      "name": "renounceRole",
      "outputs": [],
      "stateMutability": "nonpayable",
      "type": "function"
    },
    {
      "inputs": [
        {
          "internalType": "bytes32[]",
          "name": "ids",
          "type": "bytes32[]"
        },
        {
          "internalType": "uint256[]",
          "name": "prices",
          "type": "uint256[]"
        },
        {
          "internalType": "uint256[]",
          "name": "nonces",
          "type": "uint256[]"
        }
      ],
      "name": "revealOffers",
      "outputs": [],
      "stateMutability": "nonpayable",
      "type": "function"
    },
    {
      "inputs": [],
      "name": "revealTime",
      "outputs": [
        {
          "internalType": "uint256",
          "name": "",
          "type": "uint256"
        }
      ],
      "stateMutability": "view",
      "type": "function"
    },
    {
      "inputs": [
        {
          "internalType": "bytes32",
          "name": "role",
          "type": "bytes32"
        },
        {
          "internalType": "address",
          "name": "account",
          "type": "address"
        }
      ],
      "name": "revokeRole",
      "outputs": [],
      "stateMutability": "nonpayable",
      "type": "function"
    },
    {
      "inputs": [
        {
          "internalType": "bytes4",
          "name": "interfaceId",
          "type": "bytes4"
        }
      ],
      "name": "supportsInterface",
      "outputs": [
        {
          "internalType": "bool",
          "name": "",
          "type": "bool"
        }
      ],
      "stateMutability": "view",
      "type": "function"
    },
    {
      "inputs": [],
      "name": "termAuction",
      "outputs": [
        {
          "internalType": "contract ITermAuction",
          "name": "",
          "type": "address"
        }
      ],
      "stateMutability": "view",
      "type": "function"
    },
    {
      "inputs": [],
      "name": "termAuctionId",
      "outputs": [
        {
          "internalType": "bytes32",
          "name": "",
          "type": "bytes32"
        }
      ],
      "stateMutability": "view",
      "type": "function"
    },
    {
      "inputs": [],
      "name": "termRepoId",
      "outputs": [
        {
          "internalType": "bytes32",
          "name": "",
          "type": "bytes32"
        }
      ],
      "stateMutability": "view",
      "type": "function"
    },
    {
      "inputs": [],
      "name": "termRepoServicer",
      "outputs": [
        {
          "internalType": "contract ITermRepoServicer",
          "name": "",
          "type": "address"
        }
      ],
      "stateMutability": "view",
      "type": "function"
    },
    {
      "inputs": [
        {
          "internalType": "bytes32",
          "name": "id",
          "type": "bytes32"
        },
        {
          "internalType": "address",
          "name": "offeror",
          "type": "address"
        },
        {
          "internalType": "uint256",
          "name": "amount",
          "type": "uint256"
        }
      ],
      "name": "unlockOfferPartial",
      "outputs": [],
      "stateMutability": "nonpayable",
      "type": "function"
    },
    {
      "inputs": [
        {
          "internalType": "address",
          "name": "offeror",
          "type": "address"
        },
        {
          "internalType": "bytes32[]",
          "name": "ids",
          "type": "bytes32[]"
        }
      ],
      "name": "unlockOffers",
      "outputs": [],
      "stateMutability": "nonpayable",
      "type": "function"
    },
    {
      "inputs": [
        {
          "internalType": "bytes32[]",
          "name": "ids",
          "type": "bytes32[]"
        }
      ],
      "name": "unlockOffers",
      "outputs": [],
      "stateMutability": "nonpayable",
      "type": "function"
    },
    {
      "inputs": [],
      "name": "unlockingPaused",
      "outputs": [
        {
          "internalType": "bool",
          "name": "",
          "type": "bool"
        }
      ],
      "stateMutability": "view",
      "type": "function"
    },
    {
      "inputs": [],
      "name": "unpauseLocking",
      "outputs": [],
      "stateMutability": "nonpayable",
      "type": "function"
    },
    {
      "inputs": [],
      "name": "unpauseUnlocking",
      "outputs": [],
      "stateMutability": "nonpayable",
      "type": "function"
    },
    {
      "inputs": [
        {
          "internalType": "address",
          "name": "newImplementation",
          "type": "address"
        },
        {
          "internalType": "bytes",
          "name": "data",
          "type": "bytes"
        }
      ],
      "name": "upgradeToAndCall",
      "outputs": [],
      "stateMutability": "payable",
      "type": "function"
    },
    {
      "inputs": [],
      "name": "version",
      "outputs": [
        {
          "internalType": "string",
          "name": "",
          "type": "string"
        }
      ],
      "stateMutability": "view",
      "type": "function"
    }
  ],
  "bytecode": "0x60a08060405234620000d157306080527ff0c57e16840df040f15088dc2f81fe391c3923bec73e23a9662efc9c229c6a009081549060ff8260401c16620000c257506001600160401b036002600160401b0319828216016200007c575b6040516139849081620000d78239608051818181611e290152611efe0152f35b6001600160401b031990911681179091556040519081527fc7f505b2f371ae2175ee4913f4499e1f2633a7b5936321eed1cdaeb6115181d290602090a13880806200005c565b63f92ee8a960e01b8152600490fd5b600080fdfe608080604052600436101561001357600080fd5b600090813560e01c90816301ffc9a714612bf6575080630c2754ca14612bda5780630c57f41414612b125780631115c24d14612af45780631f64270514612a7e578063201a662514612a5557806323ef922814612862578063248a9ca31461282857806325a2471a1461280a57806327df3d3e146127e15780632f2ff15d14612796578063357a77d21461276d57806336568abe146127255780633e2cf6d6146127015780633e836b3d146126915780633efbfd8c1461266b57806341da5432146125fa57806348ce1bbb146121755780634b449cba146121575780634f1ef28614611e8157806352d1902d14611e1657806354fd4d5014611dd25780635ff8d52614611bd95780636d73314114611bbb5780637043f034146117db578063720e52c5146115e857806372e3a5b1146115a657806375b238fc1461157d5780637d33274f146115545780637e3f71d51461152e5780638a5cd91e146114b557806391d148541461145c578063a217fddf14611440578063a95c4d6214611417578063ab63cf0e14610f86578063ad3cb1cc14610f48578063ba829d7114610f2a578063c44cee7314610b4a578063cc33cb4514610b21578063cc5b6e4a14610b04578063cfe9232b14610adb578063cffbc29714610a9c578063d547741f14610a4d578063d77883fb14610891578063db875b691461023b5763eb54f9ec1461021b57600080fd5b346102385780600319360112610238576020600254604051908152f35b80fd5b5034610238576020366003190112610238576004356001600160401b03811161088d573660238201121561088d5780600401359061027882612e5a565b916102866040519384612da6565b808352602460a06020850192028301019136831161063757602401905b8282106108735750505060035442118015610868575b6108565760ff600d5460081c16610844576008546040516325c3ed4760e01b815290602090829060049082906001600160a01b03165afa90811561080c576004916020918591610817575b50604051631b6685b560e21b815292839182906001600160a01b03165afa90811561080c5783916107dd575b506107cb5761033d6131cf565b6103478151612f8b565b825b82518110156107a75761035c8184612fcd565b5160208101516001600160a01b03163303610723576096600c5410156107955780518552600b60205260408520600401541590816107355780518652600b60209081526040872060010154908201516001600160a01b03918216911603610723578051915b60065460808301516001600160a01b03908116911681900361070b5750606082015160055481106106f35750908691838352600b6020526004604084200154906104de60018060a01b036020850151166040850151606086015160018060a01b03608088015116916040519361043685612d3a565b8a855260208086019182526040808701938452606087018c81526080880195865260a080890197885260c089018e81528f8f52600b909452918d209751885592516001880180546001600160a01b0319166001600160a01b03928316179055935160028801559151600387015592516004860155925160059094018054925160ff60a01b90151590941b939093166001600160a81b0319909216931692909217919091179055565b6106c1575b60608201518082101561063b575060085460208301516060909301516001600160a01b03918216939091169161051891613223565b823b15610610576064849283604051958694859363e8caab0960e01b8552336004860152602485015260448401525af1801561061457610623575b50505b8452600b602052836040812080548061056f8587612fcd565b526009546001805490840154600285015460048601546005909601546001600160a01b0392831696908316959490939216803b1561061f57879560e4948793604051998a9889976303228b3f60e61b89526004890152602488015260448701526064860152608485015260a4840152600060c48401525af18015610614576105fc575b5050600101610349565b61060590612d27565b6106105783386105f2565b8380fd5b6040513d84823e3d90fd5b8780fd5b61062c90612d27565b610637578438610553565b8480fd5b80821161064c575b50505050610556565b6008546020909301516001600160a01b0393841693169161066d9190613223565b823b1561061057610697928492836040518096819582946318ddb12f60e11b845260048401612f13565b03925af18015610614576106ad575b8080610643565b6106b690612d27565b6106375784386106a6565b909150600c546001810181116106df57600101600c558691906104e3565b634e487b7160e01b88526011600452602488fd5b6024906040519063012a8d3160e11b82526004820152fd5b6024906040519063e34b641f60e01b82526004820152fd5b60405163738b91eb60e11b8152600490fd5b805160405160208101918252606033811b604083015230901b60548201526048815261076081612d70565b519020808752600b602052600460408820015461077d57916103c1565b602490604051906327fce3dd60e11b82526004820152fd5b6040516336ac50e160e21b8152600490fd5b60016000805160206138cf83398151915255604051806107c78482612ceb565b0390f35b60405163bbc439e160e01b8152600490fd5b6107ff915060203d602011610805575b6107f78183612da6565b810190612f4d565b38610330565b503d6107ed565b6040513d85823e3d90fd5b6108379150823d841161083d575b61082f8183612da6565b810190612f2e565b38610304565b503d610825565b60405163059e557960e41b8152600490fd5b60405163f046007760e01b8152600490fd5b5060025442106102b9565b602060a0916108823685612ebf565b8152019101906102a3565b5080fd5b50346102385760c0366003190112610238576108ab612c61565b6001600160a01b03906024358281169190829003610610576044359280841680940361063757606435938185168503610a4857608435948286168603610a485760a4358381168103610a485733600090815260008051602061382f833981519152602052604090205460008051602061380f8339815191529060ff1615610a2a5750600d5460ff8116610a1857889761097361097f9461096d8b9960016109799660ff191617600d5560018060a01b03199981168a600a541617600a556133b1565b50613437565b506134cf565b50613555565b5060095491848184161760095560085416176008551617815490600154600254926003549060055491843b15610a1457869460e493869260405198899788966308866d13891b8852600488015260248701523060448701526064860152608485015268056bc75e2d6310000060a485015260c48401525af1801561061457610a045750f35b610a0d90612d27565b6102385780f35b8680fd5b604051634ce377bb60e11b8152600490fd5b6044906040519063e2517d3f60e01b82523360048301526024820152fd5b600080fd5b503461023857604036600319011261023857610a98600435610a6d612c4b565b9080845260008051602061388f833981519152602052610a93600160408620015461319c565b613650565b5080f35b50346102385760203660031901126102385760209060ff906040906001600160a01b03610ac7612c61565b168152600784522054166040519015158152f35b5034610238578060031936011261023857602060405160008051602061390f8339815191528152f35b503461023857806003193601126102385760209054604051908152f35b5034610238578060031936011261023857602060405160008051602061386f8339815191528152f35b5034610238576040366003190112610238576001600160401b03600435818111610f2657610b7c903690600401612c8b565b9160243590811161061057610b95903690600401612c8b565b610b9d6130f4565b808401808511610f1057600c54809103610ef85750610bbb84612e5a565b92610bc96040519485612da6565b848452610bd585612e5a565b601f1995908601875b818110610ee1575050610bf083612e5a565b95610bfe6040519788612da6565b838752610c0a84612e5a565b01875b818110610eca57508792905082805b838510610dcd57505050505084855b828110610d1b5750505050600c54610d0757906040519283926040840160408552815180915260609060206060870193019184905b828210610cb357505050508381036020850152602080845192838152019301915b818110610c8f575050500390f35b91935091602060e082610ca56001948851612e71565b019401910191849392610c81565b8351805186526020818101516001600160a01b0390811682890152604080840151908901528284015188850152608092830151169187019190915289985060a0909501949093019260019190910190610c60565b634e487b7160e01b83526001600452602483fd5b610d26818486612f65565b358752600b6020526040872091600483015415610daa5760ff600584015460a01c16610d875790610d81610d7a600193610d5f8661305a565b610d69828c612fcd565b52610d74818b612fcd565b506130e5565b93546136d3565b01610c2b565b6024610d94838688612f65565b60405163b72a25ad60e01b815290356004820152fd5b6024610db7838688612f65565b60405163401c968f60e11b815290356004820152fd5b610dd8858585612f65565b358a52600b60205260408a2094600486015415610ebd5760ff600587015460a01c1615610ea4576003860154809211600014610e20576040516305e5dfdd60e11b8152600490fd5b610e9c610e958484610e8a8d9760019798610e3a8d61305a565b93610e436130ba565b508451948a8060a01b0390816020820151169260809260a084840151930151169360405198610e718a612d55565b8952602089015260408801526060870152850152612fcd565b52610d74818d612fcd565b96546136d3565b019390610c1c565b60248654604051906342b00fd560e01b82526004820152fd5b610db76024918686612f65565b602090610ed5613022565b82828b01015201610c0d565b602090610eec6130ba565b82828a01015201610bde565b60249060405190633186b0c560e11b82526004820152fd5b634e487b7160e01b600052601160045260246000fd5b8280fd5b50346102385780600319360112610238576020600354604051908152f35b50346102385780600319360112610238576107c7604051610f6881612d8b565b60058152640352e302e360dc1b602082015260405191829182612de4565b5034610238576040366003190112610238576004356001600160401b03811161088d57610fb7903690600401612cbb565b610fbf612c4b565b6003544211801561140c575b6108565760ff600d5460081c16610844576008546040516325c3ed4760e01b815290602090829060049082906001600160a01b03165afa9081156113e45760049160209187916113ef575b50604051631b6685b560e21b815292839182906001600160a01b03165afa9081156113e45785916113c5575b506107cb5761104f6131cf565b336001600160a01b038216146113b35761106882612f8b565b92845b8381106110925760016000805160206138cf83398151915255604051806107c78782612ceb565b6110a6366110a1838786612fbd565b612ebf565b60208101516001600160a01b03163303610723576096600c5410156107955780518752600b602052604087206004015415908161136b5780518852600b60209081526040892060010154908201516001600160a01b03918216911603610723578051915b60065460808301516001600160a01b03908116911681900361070b5750606082015160055481106106f35750908891838352600b60205260046040842001549061117f60018060a01b036020850151166040850151606086015160018060a01b03608088015116916040519361043685612d3a565b611339575b6060820151808210156112b3575060085460208301516060909301516001600160a01b0391821693909116916111b991613223565b823b15610610576064849283604051958694859363e8caab0960e01b8552336004860152602485015260448401525af180156106145761129f575b50505b8652600b6020528560408120805480611210858a612fcd565b5260095460018054908401546002850154600486015460059096015490956001600160a01b03918216959282169490911692833b1561061f5761126e8b899788946040519a8b998a9889976303228b3f60e61b895260048901612fe1565b03925af1801561061457611287575b505060010161106b565b61129090612d27565b61129b57853861127d565b8580fd5b6112a890612d27565b610a145786386111f4565b8082116112c4575b505050506111f7565b6008546020909301516001600160a01b039384169316916112e59190613223565b823b156106105761130f928492836040518096819582946318ddb12f60e11b845260048401612f13565b03925af1801561061457611325575b80806112bb565b61132e90612d27565b610a1457863861131e565b909150600c5460018101811161135757600101600c55889190611184565b634e487b7160e01b8a52601160045260248afd5b805160405160208101918252606033811b604083015230901b60548201526048815261139681612d70565b519020808952600b602052600460408a20015461077d579161110a565b6040516333d8ca2d60e11b8152600490fd5b6113de915060203d602011610805576107f78183612da6565b38611042565b6040513d87823e3d90fd5b6114069150823d841161083d5761082f8183612da6565b38611016565b506002544210610fcb565b50346102385780600319360112610238576006546040516001600160a01b039091168152602090f35b5034610238578060031936011261023857602090604051908152f35b5034610238576040366003190112610238576040611478612c4b565b91600435815260008051602061388f833981519152602052209060018060a01b0316600052602052602060ff604060002054166040519015158152f35b50346102385780600319360112610238576114ce61312c565b600d805461ff001916610100179055600954600154825483926001600160a01b03169190823b15611529576044849283604051958694859363935dcfc760e01b8552600485015260248401525af1801561061457610a045750f35b505050fd5b5034610238578060031936011261023857602060ff600d5460081c166040519015158152f35b5034610238578060031936011261023857600a546040516001600160a01b039091168152602090f35b503461023857806003193601126102385760206040516000805160206138ef8339815191528152f35b5034610238576020366003190112610238576115d9604060e0926115c8613022565b506004358152600b6020522061305a565b6115e66040518092612e71565bf35b50346102385760208060031936011261088d576004356001600160401b038111610f265761161a903690600401612c8b565b60ff600d9392935460101c166117c9576008546040516325c3ed4760e01b81526001600160a01b039184908290600490829086165afa908115611784578291859188916117ac575b50600460405180948193631b6685b560e21b8352165afa90811561178457869161178f575b506107cb576116946131cf565b600254421061085657600354421180611736575b61085657845b8281106116cb578560016000805160206138cf8339815191525580f35b6116d6818487612f65565b358652600b808552600460408820015415611729576116f6828588612f65565b3587528452816001604088200154163303610723576001906117233361171d83878a612f65565b35613230565b016116ae565b6024610db7838689612f65565b5060048382600a541660405192838092638dfea9e760e01b82525afa908115611784578691611767575b50156116a8565b61177e9150843d8611610805576107f78183612da6565b38611760565b6040513d88823e3d90fd5b6117a69150843d8611610805576107f78183612da6565b38611687565b6117c39150823d841161083d5761082f8183612da6565b38611662565b604051631370a4e760e31b8152600490fd5b503461023857610120366003190112610238576004356001600160401b03811161088d5761180d903690600401612e2d565b906024356001600160401b0381116106105761182d903690600401612e2d565b919060c435906001600160a01b0382168203610a485760e435936001600160401b038511610a145736602386011215610a145784600401359461186f86612e5a565b9561187d6040519788612da6565b8087526024602088019160051b83010191368311611bb757602401905b828210611b9f57505050610104356001600160a01b0381169003610a485760008051602061392f83398151915254936001600160401b0385161580611b91575b6001600160401b0386166001149081611b87575b159081611b7e575b50611b6c576001600160401b0319851660011760008051602061392f83398151915255604085901c60ff1615611b43575b61192f6136fc565b6119376136fc565b61193f6136fc565b6119476136fc565b60016000805160206138cf8339815191525561196561010435613325565b5060643560443511611b225787959496611998602060405183819483830196873781018a83820152038084520182612da6565b51902085556119c0602060405183819483830196873781018883820152038084520182612da6565b51902060015560443560025560643560035560843560045560a435600555600680546001600160a01b0319166001600160a01b03929092169190911790558051611a0981612e5a565b90611a176040519283612da6565b808252611a26601f1991612e5a565b01366020830137825b825160ff821690811015611ab05760ff91906001600160a01b03611a538287612fcd565b5116865260076020526040862080548419166001179055611a886001600160a01b03611a7f8388612fcd565b51169185612fcd565b52169360ff8514611a9c5793600101611a2f565b634e487b7160e01b84526011600452602484fd5b8460ff8782600c558119600d5416600d5560401c1615611acd5780f35b60ff60401b1960008051602061392f833981519152541660008051602061392f833981519152557fc7f505b2f371ae2175ee4913f4499e1f2633a7b5936321eed1cdaeb6115181d2602060405160018152a180f35b6040516372067af960e11b8152604480356004830152606435602483015290fd5b6001600160481b031985166001600160401b011760008051602061392f83398151915255611927565b60405163f92ee8a960e01b8152600490fd5b905015386118f6565b303b1591506118ee565b5060ff8560401c16156118da565b60208091611bac84612c77565b81520191019061189a565b8980fd5b50346102385780600319360112610238576020600154604051908152f35b5034610238576060366003190112610238576004356001600160401b03811161088d57611c0a903690600401612c8b565b906024356001600160401b03811161061057611c2a903690600401612c8b565b916044356001600160401b03811161129b57611c4a903690600401612c8b565b6003949194544210611dc057865b868110611c63578780f35b611c6e818886612f65565b35611c7a828588612f65565b3590611c8783858a612f65565b604080516020810185905291358282015281526001600160401b036060820190811190821117611daa576060810160405260208151910120818b52600b602052600260408c20015403611d985768056bc75e2d63100000808311611d7a5750808a52600b60205260408a2060038101839055600501805460ff60a01b1916600160a01b1790556009546001548b939290916001600160a01b0316803b15610637578492836064926040519687958694632f68befb60e11b86526004860152602485015260448401525af1801561061457611d66575b5050600101611c58565b611d6f90612d27565b61061f578738611d5c565b6044925060405191632dc71e8d60e01b835260048301526024820152fd5b604051630ce8dc1d60e11b8152600490fd5b634e487b7160e01b600052604160045260246000fd5b6040516302a3f58760e51b8152600490fd5b50346102385780600319360112610238576107c7604051611df281612d8b565b600b81526a19195d995b1bdc1b595b9d60aa1b602082015260405191829182612de4565b50346102385780600319360112610238577f00000000000000000000000000000000000000000000000000000000000000006001600160a01b03163003611e6f57602060405160008051602061384f8339815191528152f35b60405163703e46dd60e11b8152600490fd5b50604036600319011261023857611e96612c61565b9060249081356001600160401b03811161088d573660238201121561088d578060040135611ec381612dc9565b94611ed16040519687612da6565b818652602091828701933687838301011161129b57818692888693018737880101526001600160a01b03957f0000000000000000000000000000000000000000000000000000000000000000871630811490811561213b575b50611e6f576000805160206137cf8339815191528060005260008051602061388f8339815191528452604060002033600052845260ff604060002054161561211e5750866009541696873b1561129b5785879860448293604051948593849263b3c2d50b60e01b84523060048501528916809d8401525af180156117845790869161210a575b50506040516352d1902d60e01b815283816004818a5afa8691816120db575b50611fec57604051634c9c8ce360e01b8152600481018890528890fd5b86908860008051602061384f833981519152918281036120c65750843b156120b0575080546001600160a01b031916821790556040518692917fbc7cd75a20ee27fd9adebab32041f755214dbc6bffa90cc0225b39da2e5c2d3b8480a28151156120925750610a989482915190845af4903d15612089573d61206d81612dc9565b9061207b6040519283612da6565b81528581943d92013e61372b565b6060925061372b565b945050505050346120a1575080f35b63b398979f60e01b8152600490fd5b604051634c9c8ce360e01b815260048101849052fd5b60405190632a87526960e21b82526004820152fd5b9091508481813d8311612103575b6120f38183612da6565b81010312610a1457519038611fcf565b503d6120e9565b61211390612d27565b610637578438611fb0565b866044916040519163e2517d3f60e01b8352336004840152820152fd5b90508760008051602061384f8339815191525416141538611f2a565b50346102385780600319360112610238576020600454604051908152f35b50346102385760603660031901126102385761218f612c61565b6024356001600160401b038111610f26576121ae903690600401612cbb565b90916044356001600160a01b03811690819003610a4857600354421180156125ef575b6108565760ff600d5460081c16610844576008546040516325c3ed4760e01b815290602090829060049082906001600160a01b03165afa9081156117845760049160209188916125d2575b50604051631b6685b560e21b815292839182906001600160a01b03165afa9081156117845786916125b3575b506107cb576122556131cf565b61225d613164565b6001600160a01b038216146113b35761227582612f8b565b92845b83811061229f5760016000805160206138cf83398151915255604051806107c78782612ceb565b6122ae366110a1838786612fbd565b60208101516001600160a01b0390811690851603610723576096600c5410156107955780518752600b60205260408720600401541590816125625780518852600b60209081526040892060010154908201516001600160a01b03918216911603610723578051915b60065460808301516001600160a01b03908116911681900361070b5750606082015160055481106106f35750908891838352600b60205260046040842001549061238b60018060a01b036020850151166040850151606086015160018060a01b03608088015116916040519361043685612d3a565b612544575b6060820151808210156124be575060085460208301516060909301516001600160a01b0391821693909116916123c591613223565b823b15610610576064849283604051958694859363e8caab0960e01b8552336004860152602485015260448401525af18015610614576124aa575b50505b8652600b602052856040812080548061241c858a612fcd565b526009546001805490840154600285015460048601546005909601546001600160a01b0390811695919481169392169190833b1561061f5761247d8896928793604051998a98899788966303228b3f60e61b88526044359560048901612fe1565b03925af1801561061457612496575b5050600101612278565b61249f90612d27565b61129b57853861248c565b6124b390612d27565b610a14578638612400565b8082116124cf575b50505050612403565b6008546020909301516001600160a01b039384169316916124f09190613223565b823b156106105761251a928492836040518096819582946318ddb12f60e11b845260048401612f13565b03925af1801561061457612530575b80806124c6565b61253990612d27565b610a14578638612529565b909150600c5460018101811161135757600101600c55889190612390565b80516040516020810191825260018060601b03198760601b1660408201523060601b60548201526048815261259681612d70565b519020808952600b602052600460408a20015461077d5791612316565b6125cc915060203d602011610805576107f78183612da6565b38612248565b6125e99150823d841161083d5761082f8183612da6565b3861221c565b5060025442106121d1565b503461023857806003193601126102385761261361312c565b600d805462ff000019169055600954600154825483926001600160a01b03169190823b15611529576044849283604051958694859363485c705560e11b8552600485015260248401525af1801561061457610a045750f35b5034610238578060031936011261023857602060ff600d5460101c166040519015158152f35b50346102385780600319360112610238576126aa61312c565b600d805461ff0019169055600954600154825483926001600160a01b03169190823b156115295760448492836040519586948593632f5d386f60e01b8552600485015260248401525af1801561061457610a045750f35b5034610238578060031936011261023857602060405168056bc75e2d631000008152f35b50346102385760403660031901126102385761273f612c4b565b336001600160a01b0382160361275b57610a9890600435613650565b60405163334bd91960e11b8152600490fd5b50346102385780600319360112610238576008546040516001600160a01b039091168152602090f35b503461023857604036600319011261023857610a986004356127b6612c4b565b9080845260008051602061388f8339815191526020526127dc600160408620015461319c565b6135db565b5034610238578060031936011261023857602060405160008051602061380f8339815191528152f35b50346102385780600319360112610238576020600554604051908152f35b50346102385760203660031901126102385760016040602092600435815260008051602061388f8339815191528452200154604051908152f35b50346102385760403660031901126102385761287c612c61565b602480356001600160401b0381116106105761289c903690600401612c8b565b926128a5613164565b60ff600d5460101c166117c9576008546040516325c3ed4760e01b81526020916001600160a01b03919083908290600490829086165afa908115612a1057829184918a91612a38575b50600460405180948193631b6685b560e21b8352165afa908115612a10578891612a1b575b506107cb576129206131cf565b6002544210610856576003544211806129c2575b6108565790938282169190875b87811061295e578860016000805160206138cf8339815191525580f35b612969818988612f65565b358952600b808852600460408b200154156129b657612989828a89612f65565b358a52875282600160408b20015416840361072357806129b08661171d6001948c8b612f65565b01612941565b50610db7908887612f65565b5060048282600a541660405192838092638dfea9e760e01b82525afa908115612a105788916129f3575b5015612934565b612a0a9150833d8511610805576107f78183612da6565b386129ec565b6040513d8a823e3d90fd5b612a329150833d8511610805576107f78183612da6565b38612913565b612a4f9150823d841161083d5761082f8183612da6565b386128ee565b503461023857806003193601126102385760206040516000805160206137cf8339815191528152f35b5034610238578060031936011261023857612a9761312c565b600d805462ff0000191662010000179055600954600154825483926001600160a01b03169190823b15611529576044849283604051958694859363703d84ab60e01b8552600485015260248401525af1801561061457610a045750f35b50346102385780600319360112610238576020600c54604051908152f35b503461023857606036600319011261023857612b2c612c4b565b90612b356130f4565b6008546001600160a01b039290831690813b15610f2657612b73839283926040519485809481936318ddb12f60e11b83526044359060048401612f13565b03925af1801561061457612bcb575b50809160095416600154813b15612bc7578291604483926040519485938492635ba1a50760e01b8452600484015260043560248401525af1801561061457610a045750f35b5050fd5b612bd490612d27565b38612b82565b5034610238578060031936011261023857602060405160968152f35b90503461088d57602036600319011261088d5760043563ffffffff60e01b8116809103610f265760209250637965db0b60e01b8114908115612c3a575b5015158152f35b6301ffc9a760e01b14905038612c33565b602435906001600160a01b0382168203610a4857565b600435906001600160a01b0382168203610a4857565b35906001600160a01b0382168203610a4857565b9181601f84011215610a48578235916001600160401b038311610a48576020808501948460051b010111610a4857565b9181601f84011215610a48578235916001600160401b038311610a485760208085019460a08502010111610a4857565b602090602060408183019282815285518094520193019160005b828110612d13575050505090565b835185529381019392810192600101612d05565b6001600160401b038111611daa57604052565b60e081019081106001600160401b03821117611daa57604052565b60a081019081106001600160401b03821117611daa57604052565b608081019081106001600160401b03821117611daa57604052565b604081019081106001600160401b03821117611daa57604052565b601f909101601f19168101906001600160401b03821190821017611daa57604052565b6001600160401b038111611daa57601f01601f191660200190565b6020808252825181830181905290939260005b828110612e1957505060409293506000838284010152601f8019910116010190565b818101860151848201604001528501612df7565b9181601f84011215610a48578235916001600160401b038311610a485760208381860195010111610a4857565b6001600160401b038111611daa5760051b60200190565b60c0809180518452602081015160018060a01b03809116602086015260408201516040860152606082015160608601526080820151608086015260a08201511660a085015201511515910152565b91908260a0910312610a4857604051612ed781612d55565b6080612f0e81839580358552612eef60208201612c77565b6020860152604081013560408601526060810135606086015201612c77565b910152565b6001600160a01b039091168152602081019190915260400190565b90816020910312610a4857516001600160a01b0381168103610a485790565b90816020910312610a4857518015158103610a485790565b9190811015612f755760051b0190565b634e487b7160e01b600052603260045260246000fd5b90612f9582612e5a565b612fa26040519182612da6565b8281528092612fb3601f1991612e5a565b0190602036910137565b9190811015612f755760a0020190565b8051821015612f755760209160051b010190565b90815260208101919091526001600160a01b0391821660408201526060810192909252608082019290925291811660a083015290911660c082015260e00190565b6040519061302f82612d3a565b8160c06000918281528260208201528260408201528260608201528260808201528260a08201520152565b9060405161306781612d3a565b60c060ff829480548452600560018060a01b0391826001820154166020870152600281015460408701526003810154606087015260048101546080870152015490811660a085015260a01c161515910152565b604051906130c782612d55565b60006080838281528260208201528260408201528260608201520152565b6000198114610f105760010190565b3360009081526000805160206137af833981519152602052604090205460008051602061390f8339815191529060ff1615610a2a5750565b3360009081526000805160206137ef83398151915260205260409020546000805160206138ef8339815191529060ff1615610a2a5750565b3360009081526000805160206138af833981519152602052604090205460008051602061386f8339815191529060ff1615610a2a5750565b8060005260008051602061388f83398151915260205260406000203360005260205260ff6040600020541615610a2a5750565b6000805160206138cf83398151915260028154146131ed5760029055565b604051633ee5aeb560e01b8152600490fd5b60056000918281558260018201558260028201558260038201558260048201550155565b91908203918211610f1057565b600091818352600b602052604083209161324e6004840154936131ff565b600c54600019810190811161331157600c556009546001546001600160a01b03929183169190823b15610a14579060448792836040519586948593635ba1a50760e01b8552600485015260248401525af180156113e4576132fe575b506008541690813b15610610579183916132db93836040518096819582946318ddb12f60e11b845260048401612f13565b03925af18015610614576132ed575050565b6132f78291612d27565b6102385750565b61330a90949194612d27565b92386132aa565b634e487b7160e01b85526011600452602485fd5b6001600160a01b0316600081815260008051602061382f833981519152602052604081205490919060008051602061380f8339815191529060008051602061388f8339815191529060ff166133ab578184526020526040832082845260205260408320600160ff1982541617905560008051602061378f833981519152339380a4600190565b50505090565b6001600160a01b031660008181526000805160206137af833981519152602052604081205490919060008051602061390f8339815191529060008051602061388f8339815191529060ff166133ab578184526020526040832082845260205260408320600160ff1982541617905560008051602061378f833981519152339380a4600190565b6001600160a01b031660008181527f0cfb002fcf8644f87ebf6cf6e31899c8d8e9f7c329b465b6e36989a958507e8b60205260408120549091906000805160206137cf8339815191529060008051602061388f8339815191529060ff166133ab578184526020526040832082845260205260408320600160ff1982541617905560008051602061378f833981519152339380a4600190565b6001600160a01b031660008181526000805160206137ef83398151915260205260408120549091906000805160206138ef8339815191529060008051602061388f8339815191529060ff166133ab578184526020526040832082845260205260408320600160ff1982541617905560008051602061378f833981519152339380a4600190565b6001600160a01b031660008181526000805160206138af833981519152602052604081205490919060008051602061386f8339815191529060008051602061388f8339815191529060ff166133ab578184526020526040832082845260205260408320600160ff1982541617905560008051602061378f833981519152339380a4600190565b9060009180835260008051602061388f83398151915280602052604084209260018060a01b03169283855260205260ff604085205416156000146133ab578184526020526040832082845260205260408320600160ff1982541617905560008051602061378f833981519152339380a4600190565b9060009180835260008051602061388f83398151915280602052604084209260018060a01b03169283855260205260ff6040852054166000146133ab57818452602052604083208284526020526040832060ff1981541690557ff6391f5c32d9c69d2a47ea670b442974b53935d1edc7fd64eb21e047a839171b339380a4600190565b600052600b6020526136e860406000206131ff565b600c546000198101908111610f1057600c55565b60ff60008051602061392f8339815191525460401c161561371957565b604051631afcd79f60e31b8152600490fd5b90613752575080511561374057805190602001fd5b60405163d6bda27560e01b8152600490fd5b81511580613785575b613763575090565b604051639996b31560e01b81526001600160a01b039091166004820152602490fd5b50803b1561375b56fe2f8788117e7eff1d82e926ec794901d17c78024a50270940304540a733656f0db3c9a2228313d87a290b541e6906f28f17cf1bddb0fe5c16a1d3c55a85417e5b793a6c9b7e0a9549c74edc2f9ae0dc50903dfaa9a56fb0116b27a8c71de3e2c6b16e88c42fd4e48df2dd6a2eabd6bc9aec654ec170056b470819f8892cc6431c30d41a597cac127d8249d31298b50e481ee82c3f4a49ff93c76a22735aa9f3ad44fa5399874b75da801cb431822b6afcadb876f84eb39d7f05bf697e94b4484e360894a13ba1a3210667c828492db98dca3e2076cc3735a920a3ca505d382bbcc36a8568220526774f62a808c5b8dd8b7191b32206f87b2bfd1149584358996302dd7bc7dec4dceedda775e58dd541e08a116c6c53815c0bd028192f7b62680071dad3b8d800ed6b81a4c9f84973579b8b42e673b9a0771be09894ef8040dd789b779b17422d0df92223018b32b4d1fa46e071723d6817e2486d003becc55f00a49807205ce4d355092ef5a8a18f56e8913cf4a201fbe287825b095693c21775c1df76f4e50bdb95676f782d4b88b23904c5346d8bc7c986ae26f7e10e601891f0c57e16840df040f15088dc2f81fe391c3923bec73e23a9662efc9c229c6a00a2646970667358221220cb1e1cd4142369578dc322ab9bd53b0492aff89bd0e4ca5f9ed279630201a3de64736f6c63430008160033",
  "linkReferences": {},
  "deployedLinkReferences": {}
}