{
  "_format": "hh-sol-artifact-1",
  "contractName": "TermPriceConsumerV3WithSequencer",
  "sourceName": "contracts/TermPriceConsumerV3WithSequencer.sol",
  "abi": [
    {
      "inputs": [],
      "stateMutability": "nonpayable",
      "type": "constructor"
    },
    {
      "inputs": [],
      "name": "GracePeriodNotOver",
      "type": "error"
    },
    {
      "inputs": [],
      "name": "InvalidPrice",
      "type": "error"
    },
    {
      "inputs": [
        {
          "internalType": "address",
          "name": "tokenAddress",
          "type": "address"
        }
      ],
      "name": "NoPriceFeed",
      "type": "error"
    },
    {
      "inputs": [],
      "name": "PricesStale",
      "type": "error"
    },
    {
      "inputs": [],
      "name": "SequencerDownError",
      "type": "error"
    },
    {
      "inputs": [],
      "name": "ZeroPrice",
      "type": "error"
    },
    {
      "anonymous": false,
      "inputs": [
        {
          "indexed": false,
          "internalType": "address",
          "name": "previousAdmin",
          "type": "address"
        },
        {
          "indexed": false,
          "internalType": "address",
          "name": "newAdmin",
          "type": "address"
        }
      ],
      "name": "AdminChanged",
      "type": "event"
    },
    {
      "anonymous": false,
      "inputs": [
        {
          "indexed": true,
          "internalType": "address",
          "name": "beacon",
          "type": "address"
        }
      ],
      "name": "BeaconUpgraded",
      "type": "event"
    },
    {
      "anonymous": false,
      "inputs": [
        {
          "indexed": false,
          "internalType": "uint8",
          "name": "version",
          "type": "uint8"
        }
      ],
      "name": "Initialized",
      "type": "event"
    },
    {
      "anonymous": false,
      "inputs": [
        {
          "indexed": true,
          "internalType": "bytes32",
          "name": "role",
          "type": "bytes32"
        },
        {
          "indexed": true,
          "internalType": "bytes32",
          "name": "previousAdminRole",
          "type": "bytes32"
        },
        {
          "indexed": true,
          "internalType": "bytes32",
          "name": "newAdminRole",
          "type": "bytes32"
        }
      ],
      "name": "RoleAdminChanged",
      "type": "event"
    },
    {
      "anonymous": false,
      "inputs": [
        {
          "indexed": true,
          "internalType": "bytes32",
          "name": "role",
          "type": "bytes32"
        },
        {
          "indexed": true,
          "internalType": "address",
          "name": "account",
          "type": "address"
        },
        {
          "indexed": true,
          "internalType": "address",
          "name": "sender",
          "type": "address"
        }
      ],
      "name": "RoleGranted",
      "type": "event"
    },
    {
      "anonymous": false,
      "inputs": [
        {
          "indexed": true,
          "internalType": "bytes32",
          "name": "role",
          "type": "bytes32"
        },
        {
          "indexed": true,
          "internalType": "address",
          "name": "account",
          "type": "address"
        },
        {
          "indexed": true,
          "internalType": "address",
          "name": "sender",
          "type": "address"
        }
      ],
      "name": "RoleRevoked",
      "type": "event"
    },
    {
      "anonymous": false,
      "inputs": [
        {
          "indexed": false,
          "internalType": "address",
          "name": "token",
          "type": "address"
        },
        {
          "indexed": false,
          "internalType": "address",
          "name": "tokenPriceAggregator",
          "type": "address"
        }
      ],
      "name": "SubscribeFallbackPriceFeed",
      "type": "event"
    },
    {
      "anonymous": false,
      "inputs": [
        {
          "indexed": false,
          "internalType": "address",
          "name": "token",
          "type": "address"
        },
        {
          "indexed": false,
          "internalType": "address",
          "name": "tokenPriceAggregator",
          "type": "address"
        }
      ],
      "name": "SubscribePriceFeed",
      "type": "event"
    },
    {
      "anonymous": false,
      "inputs": [
        {
          "indexed": false,
          "internalType": "address",
          "name": "token",
          "type": "address"
        }
      ],
      "name": "UnsubscribeFallbackPriceFeed",
      "type": "event"
    },
    {
      "anonymous": false,
      "inputs": [
        {
          "indexed": false,
          "internalType": "address",
          "name": "token",
          "type": "address"
        }
      ],
      "name": "UnsubscribePriceFeed",
      "type": "event"
    },
    {
      "anonymous": false,
      "inputs": [
        {
          "indexed": true,
          "internalType": "address",
          "name": "implementation",
          "type": "address"
        }
      ],
      "name": "Upgraded",
      "type": "event"
    },
    {
      "inputs": [],
      "name": "DEFAULT_ADMIN_ROLE",
      "outputs": [
        {
          "internalType": "bytes32",
          "name": "",
          "type": "bytes32"
        }
      ],
      "stateMutability": "view",
      "type": "function"
    },
    {
      "inputs": [],
      "name": "DEVOPS_ROLE",
      "outputs": [
        {
          "internalType": "bytes32",
          "name": "",
          "type": "bytes32"
        }
      ],
      "stateMutability": "view",
      "type": "function"
    },
    {
      "inputs": [
        {
          "internalType": "address",
          "name": "token",
          "type": "address"
        },
        {
          "internalType": "address",
          "name": "tokenPriceAggregator",
          "type": "address"
        },
        {
          "internalType": "uint256",
          "name": "refreshRateThreshold",
          "type": "uint256"
        }
      ],
      "name": "addNewTokenFallbackPriceFeed",
      "outputs": [],
      "stateMutability": "nonpayable",
      "type": "function"
    },
    {
      "inputs": [
        {
          "internalType": "address",
          "name": "token",
          "type": "address"
        },
        {
          "internalType": "address",
          "name": "tokenPriceAggregator",
          "type": "address"
        },
        {
          "internalType": "uint256",
          "name": "refreshRateThreshold",
          "type": "uint256"
        }
      ],
      "name": "addNewTokenPriceFeed",
      "outputs": [],
      "stateMutability": "nonpayable",
      "type": "function"
    },
    {
      "inputs": [
        {
          "internalType": "address",
          "name": "token",
          "type": "address"
        },
        {
          "internalType": "address",
          "name": "tokenPriceAggregator",
          "type": "address"
        },
        {
          "internalType": "uint256",
          "name": "tokenPriceAggregatorRefreshRateThreshold",
          "type": "uint256"
        },
        {
          "internalType": "address",
          "name": "fallbackPriceAggregator",
          "type": "address"
        },
        {
          "internalType": "uint256",
          "name": "fallbackPriceAggregatorRefreshRateThreshold",
          "type": "uint256"
        }
      ],
      "name": "addNewTokenPriceFeedAndFallbackPriceFeed",
      "outputs": [],
      "stateMutability": "nonpayable",
      "type": "function"
    },
    {
      "inputs": [
        {
          "internalType": "bytes32",
          "name": "role",
          "type": "bytes32"
        }
      ],
      "name": "getRoleAdmin",
      "outputs": [
        {
          "internalType": "bytes32",
          "name": "",
          "type": "bytes32"
        }
      ],
      "stateMutability": "view",
      "type": "function"
    },
    {
      "inputs": [
        {
          "internalType": "bytes32",
          "name": "role",
          "type": "bytes32"
        },
        {
          "internalType": "address",
          "name": "account",
          "type": "address"
        }
      ],
      "name": "grantRole",
      "outputs": [],
      "stateMutability": "nonpayable",
      "type": "function"
    },
    {
      "inputs": [
        {
          "internalType": "bytes32",
          "name": "role",
          "type": "bytes32"
        },
        {
          "internalType": "address",
          "name": "account",
          "type": "address"
        }
      ],
      "name": "hasRole",
      "outputs": [
        {
          "internalType": "bool",
          "name": "",
          "type": "bool"
        }
      ],
      "stateMutability": "view",
      "type": "function"
    },
    {
      "inputs": [
        {
          "internalType": "address",
          "name": "devopsWallet_",
          "type": "address"
        },
        {
          "internalType": "address",
          "name": "sequencerUptimeFeed_",
          "type": "address"
        }
      ],
      "name": "initialize",
      "outputs": [],
      "stateMutability": "nonpayable",
      "type": "function"
    },
    {
      "inputs": [],
      "name": "proxiableUUID",
      "outputs": [
        {
          "internalType": "bytes32",
          "name": "",
          "type": "bytes32"
        }
      ],
      "stateMutability": "view",
      "type": "function"
    },
    {
      "inputs": [
        {
          "internalType": "address",
          "name": "token",
          "type": "address"
        }
      ],
      "name": "removeFallbackTokenPriceFeed",
      "outputs": [],
      "stateMutability": "nonpayable",
      "type": "function"
    },
    {
      "inputs": [
        {
          "internalType": "address",
          "name": "token",
          "type": "address"
        }
      ],
      "name": "removeTokenPriceFeed",
      "outputs": [],
      "stateMutability": "nonpayable",
      "type": "function"
    },
    {
      "inputs": [
        {
          "internalType": "bytes32",
          "name": "role",
          "type": "bytes32"
        },
        {
          "internalType": "address",
          "name": "account",
          "type": "address"
        }
      ],
      "name": "renounceRole",
      "outputs": [],
      "stateMutability": "nonpayable",
      "type": "function"
    },
    {
      "inputs": [
        {
          "internalType": "bytes32",
          "name": "role",
          "type": "bytes32"
        },
        {
          "internalType": "address",
          "name": "account",
          "type": "address"
        }
      ],
      "name": "revokeRole",
      "outputs": [],
      "stateMutability": "nonpayable",
      "type": "function"
    },
    {
      "inputs": [
        {
          "internalType": "bytes4",
          "name": "interfaceId",
          "type": "bytes4"
        }
      ],
      "name": "supportsInterface",
      "outputs": [
        {
          "internalType": "bool",
          "name": "",
          "type": "bool"
        }
      ],
      "stateMutability": "view",
      "type": "function"
    },
    {
      "inputs": [
        {
          "internalType": "address",
          "name": "newImplementation",
          "type": "address"
        }
      ],
      "name": "upgradeTo",
      "outputs": [],
      "stateMutability": "nonpayable",
      "type": "function"
    },
    {
      "inputs": [
        {
          "internalType": "address",
          "name": "newImplementation",
          "type": "address"
        },
        {
          "internalType": "bytes",
          "name": "data",
          "type": "bytes"
        }
      ],
      "name": "upgradeToAndCall",
      "outputs": [],
      "stateMutability": "payable",
      "type": "function"
    },
    {
      "inputs": [
        {
          "internalType": "address",
          "name": "token",
          "type": "address"
        },
        {
          "internalType": "uint256",
          "name": "amount",
          "type": "uint256"
        }
      ],
      "name": "usdValueOfTokens",
      "outputs": [
        {
          "components": [
            {
              "internalType": "uint256",
              "name": "mantissa",
              "type": "uint256"
            }
          ],
          "internalType": "struct ExponentialNoError.Exp",
          "name": "",
          "type": "tuple"
        }
      ],
      "stateMutability": "view",
      "type": "function"
    },
    {
      "inputs": [],
      "name": "version",
      "outputs": [
        {
          "internalType": "string",
          "name": "",
          "type": "string"
        }
      ],
      "stateMutability": "view",
      "type": "function"
    }
  ],
  "bytecode": "0x60a06040523060805234801561001457600080fd5b5061001d610022565b6100e1565b600054610100900460ff161561008e5760405162461bcd60e51b815260206004820152602760248201527f496e697469616c697a61626c653a20636f6e747261637420697320696e697469604482015266616c697a696e6760c81b606482015260840160405180910390fd5b60005460ff908116146100df576000805460ff191660ff9081179091556040519081527f7f26b83ff96e1f2b6a682f133852f6798a09c465da95921460cefb38474024989060200160405180910390a15b565b60805161213662000119600039600081816106a9015281816106e9015281816108fb0152818161093b01526109b301526121366000f3fe6080604052600436106100f45760003560e01c80634f1ef286116100905780634f1ef2861461025f57806352d1902d1461027257806354fd4d501461028757806391d14854146102c1578063929ac838146102e1578063a217fddf14610301578063aa7a2cdc14610316578063ce2ff6aa14610336578063d547741f14610356578063ea6466fa1461037657600080fd5b806301ffc9a7146100f95780630f4f276c1461012e578063201a66251461015d578063248a9ca31461018d5780632f2ff15d146101bd57806336568abe146101df5780633659cfe6146101ff57806338ff63bb1461021f578063485cc9551461023f575b600080fd5b34801561010557600080fd5b50610119610114366004611a53565b610396565b60405190151581526020015b60405180910390f35b34801561013a57600080fd5b5061014e610149366004611a99565b6103cd565b60405190518152602001610125565b34801561016957600080fd5b5061017f60008051602061209a83398151915281565b604051908152602001610125565b34801561019957600080fd5b5061017f6101a8366004611ac3565b600090815260c9602052604090206001015490565b3480156101c957600080fd5b506101dd6101d8366004611adc565b6105f7565b005b3480156101eb57600080fd5b506101dd6101fa366004611adc565b610621565b34801561020b57600080fd5b506101dd61021a366004611b08565b61069f565b34801561022b57600080fd5b506101dd61023a366004611b23565b610767565b34801561024b57600080fd5b506101dd61025a366004611b78565b61079d565b6101dd61026d366004611bb8565b6108f1565b34801561027e57600080fd5b5061017f6109a6565b34801561029357600080fd5b50604080518082018252600b81526a19195d995b1bdc1b595b9d60aa1b602082015290516101259190611c9e565b3480156102cd57600080fd5b506101196102dc366004611adc565b610a54565b3480156102ed57600080fd5b506101dd6102fc366004611cd1565b610a7f565b34801561030d57600080fd5b5061017f600081565b34801561032257600080fd5b506101dd610331366004611cd1565b610aa8565b34801561034257600080fd5b506101dd610351366004611b08565b610acb565b34801561036257600080fd5b506101dd610371366004611adc565b610b4b565b34801561038257600080fd5b506101dd610391366004611b08565b610b70565b60006001600160e01b03198216637965db0b60e01b14806103c757506301ffc9a760e01b6001600160e01b03198316145b92915050565b60408051602081019091526000815260008060fd60009054906101000a90046001600160a01b03166001600160a01b031663feaf968c6040518163ffffffff1660e01b815260040160a060405180830381865afa158015610432573d6000803e3d6000fd5b505050506040513d601f19601f820116820180604052508101906104569190611d27565b505092509250508160010361047e5760405163d3a3d5d360e01b815260040160405180910390fd5b600061048a8242611d8d565b9050610e1081116104ae5760405163d15f73b560e01b815260040160405180910390fd5b6001600160a01b03868116600090815260fb6020526040902054166104f15785604051632a4f499d60e21b81526004016104e89190611da0565b60405180910390fd5b6000806104fd88610be4565b8092508193505050600082905060008990506000816001600160a01b031663313ce5676040518163ffffffff1660e01b8152600401602060405180830381865afa15801561054f573d6000803e3d6000fd5b505050506040513d601f19601f820116820180604052508101906105739190611db4565b90506105e8604051806020016040528083600a6105909190611ebb565b6105a2670de0b6b3a76400008f611eca565b6105ac9190611ee1565b90526040805160208101909152806105c588600a611ebb565b6105d7670de0b6b3a764000089611eca565b6105e19190611ee1565b9052610fa1565b9b9a5050505050505050505050565b600082815260c9602052604090206001015461061281610fe9565b61061c8383610ff3565b505050565b6001600160a01b03811633146106915760405162461bcd60e51b815260206004820152602f60248201527f416363657373436f6e74726f6c3a2063616e206f6e6c792072656e6f756e636560448201526e103937b632b9903337b91039b2b63360891b60648201526084016104e8565b61069b8282611079565b5050565b6001600160a01b037f00000000000000000000000000000000000000000000000000000000000000001630036106e75760405162461bcd60e51b81526004016104e890611f03565b7f00000000000000000000000000000000000000000000000000000000000000006001600160a01b03166107196110e0565b6001600160a01b03161461073f5760405162461bcd60e51b81526004016104e890611f4f565b610748816110fc565b6040805160008082526020820190925261076491839190611114565b50565b60008051602061209a83398151915261077f81610fe9565b61078a86868661127f565b610795868484611406565b505050505050565b600054610100900460ff16158080156107bd5750600054600160ff909116105b806107de57506107cc3061157d565b1580156107de575060005460ff166001145b6108415760405162461bcd60e51b815260206004820152602e60248201527f496e697469616c697a61626c653a20636f6e747261637420697320616c72656160448201526d191e481a5b9a5d1a585b1a5e995960921b60648201526084016104e8565b6000805460ff191660011790558015610864576000805461ff0019166101001790555b61086c61158c565b61087461158c565b60fd80546001600160a01b0319166001600160a01b0384161790556108a760008051602061209a83398151915284610ff3565b801561061c576000805461ff0019169055604051600181527f7f26b83ff96e1f2b6a682f133852f6798a09c465da95921460cefb38474024989060200160405180910390a1505050565b6001600160a01b037f00000000000000000000000000000000000000000000000000000000000000001630036109395760405162461bcd60e51b81526004016104e890611f03565b7f00000000000000000000000000000000000000000000000000000000000000006001600160a01b031661096b6110e0565b6001600160a01b0316146109915760405162461bcd60e51b81526004016104e890611f4f565b61099a826110fc565b61069b82826001611114565b6000306001600160a01b037f00000000000000000000000000000000000000000000000000000000000000001614610a415760405162461bcd60e51b815260206004820152603860248201527f555550535570677261646561626c653a206d757374206e6f742062652063616c6044820152771b1959081d1a1c9bdd59da0819195b1959d85d1958d85b1b60421b60648201526084016104e8565b506000805160206120ba83398151915290565b600091825260c9602090815260408084206001600160a01b0393909316845291905290205460ff1690565b60008051602061209a833981519152610a9781610fe9565b610aa284848461127f565b50505050565b60008051602061209a833981519152610ac081610fe9565b610aa2848484611406565b60008051602061209a833981519152610ae381610fe9565b6001600160a01b038216600090815260fb602052604080822080546001600160a01b031916815560010191909155517ffbc2f2231449137043afaa28222f673d780c0e7449d25d2c98ea791db929204c90610b3f908490611da0565b60405180910390a15050565b600082815260c96020526040902060010154610b6681610fe9565b61061c8383611079565b60008051602061209a833981519152610b8881610fe9565b6001600160a01b038216600090815260fc602052604080822080546001600160a01b031916815560010191909155517f1093a5da06a58f0fb15c9391f2457f36d022ac2f482a803bde212626f674400290610b3f908490611da0565b6001600160a01b03808216600090815260fb6020526040808220548151633fabe5a360e21b8152915192938493849384939092169163feaf968c9160048083019260a09291908290030181865afa158015610c43573d6000803e3d6000fd5b505050506040513d601f19601f82011682018060405250810190610c679190611d27565b506001600160a01b03808a16600090815260fc6020526040902054939650909450919091169150819050610da95760008313610cb55760405162bfc92160e01b815260040160405180910390fd5b6001600160a01b038616600090815260fb60205260409020600101541580610d0157506001600160a01b038616600090815260fb6020526040902060010154610cfe8342611d8d565b11155b15610d90576001600160a01b03808716600090815260fb602090815260409182902054825163313ce56760e01b815292518794919091169263313ce5679260048083019391928290030181865afa158015610d60573d6000803e3d6000fd5b505050506040513d601f19601f82011682018060405250810190610d849190611db4565b94509450505050915091565b604051633ef9f21b60e01b815260040160405180910390fd5b6001600160a01b03811615610f9957600083138015610dec57506001600160a01b038616600090815260fb6020526040902060010154610de98342611d8d565b11155b15610e4b576001600160a01b03808716600090815260fb602090815260409182902054825163313ce56760e01b815292518794919091169263313ce5679260048083019391928290030181865afa158015610d60573d6000803e3d6000fd5b600080826001600160a01b031663feaf968c6040518163ffffffff1660e01b815260040160a060405180830381865afa158015610e8c573d6000803e3d6000fd5b505050506040513d601f19601f82011682018060405250810190610eb09190611d27565b5093505092505060008213610ed75760405162bfc92160e01b815260040160405180910390fd5b6001600160a01b038816600090815260fc60205260409020600101541580610f2357506001600160a01b038816600090815260fc6020526040902060010154610f208242611d8d565b11155b15610d905781836001600160a01b031663313ce5676040518163ffffffff1660e01b8152600401602060405180830381865afa158015610f67573d6000803e3d6000fd5b505050506040513d601f19601f82011682018060405250810190610f8b9190611db4565b965096505050505050915091565b505050915091565b6040805160208101909152600081526040518060200160405280670de0b6b3a7640000610fd6866000015186600001516115f9565b610fe09190611ee1565b90529392505050565b610764813361160c565b610ffd8282610a54565b61069b57600082815260c9602090815260408083206001600160a01b03851684529091529020805460ff191660011790556110353390565b6001600160a01b0316816001600160a01b0316837f2f8788117e7eff1d82e926ec794901d17c78024a50270940304540a733656f0d60405160405180910390a45050565b6110838282610a54565b1561069b57600082815260c9602090815260408083206001600160a01b0385168085529252808320805460ff1916905551339285917ff6391f5c32d9c69d2a47ea670b442974b53935d1edc7fd64eb21e047a839171b9190a45050565b6000805160206120ba833981519152546001600160a01b031690565b60008051602061209a83398151915261069b81610fe9565b7f4910fdfa16fed3260ed0e7147f7cc6da11a60208b5b9406d12a635614ffd91435460ff16156111475761061c83611665565b826001600160a01b03166352d1902d6040518163ffffffff1660e01b8152600401602060405180830381865afa9250505080156111a1575060408051601f3d908101601f1916820190925261119e91810190611f9b565b60015b6112045760405162461bcd60e51b815260206004820152602e60248201527f45524331393637557067726164653a206e657720696d706c656d656e7461746960448201526d6f6e206973206e6f74205555505360901b60648201526084016104e8565b6000805160206120ba83398151915281146112735760405162461bcd60e51b815260206004820152602960248201527f45524331393637557067726164653a20756e737570706f727465642070726f786044820152681a58589b195555525160ba1b60648201526084016104e8565b5061061c8383836116ff565b6001600160a01b0382166112e75760405162461bcd60e51b815260206004820152602960248201527f5072696d61727920507269636520666565642063616e6e6f74206265207a65726044820152686f206164647265737360b81b60648201526084016104e8565b6000829050600080826001600160a01b031663feaf968c6040518163ffffffff1660e01b815260040160a060405180830381865afa15801561132d573d6000803e3d6000fd5b505050506040513d601f19601f820116820180604052508101906113519190611d27565b50935050925050600082136113785760405162bfc92160e01b815260040160405180910390fd5b6040805180820182526001600160a01b03878116825260208083018881528a8316600090815260fb90925290849020835181546001600160a01b03191693169290921782555160019091015590517f950d6b0fc92ec932fc49a6ea1af2dded2fac58d5464090ceece194b1f1e624f3906113f59089908990611fb4565b60405180910390a150505050505050565b6001600160a01b03821661146f5760405162461bcd60e51b815260206004820152602a60248201527f46616c6c6261636b20507269636520666565642063616e6e6f74206265207a65604482015269726f206164647265737360b01b60648201526084016104e8565b6000829050600080826001600160a01b031663feaf968c6040518163ffffffff1660e01b815260040160a060405180830381865afa1580156114b5573d6000803e3d6000fd5b505050506040513d601f19601f820116820180604052508101906114d99190611d27565b50935050925050600082136115005760405162bfc92160e01b815260040160405180910390fd5b6040805180820182526001600160a01b03878116825260208083018881528a8316600090815260fc90925290849020835181546001600160a01b03191693169290921782555160019091015590517f88f32712a5f54716ba83ac5415ed99ffccbcf735a00db9ff1607cc259f8bca08906113f59089908990611fb4565b6001600160a01b03163b151590565b600054610100900460ff166115f75760405162461bcd60e51b815260206004820152602b60248201527f496e697469616c697a61626c653a20636f6e7472616374206973206e6f74206960448201526a6e697469616c697a696e6760a81b60648201526084016104e8565b565b60006116058284611eca565b9392505050565b6116168282610a54565b61069b5761162381611724565b61162e836020611736565b60405160200161163f929190611fce565b60408051601f198184030181529082905262461bcd60e51b82526104e891600401611c9e565b61166e8161157d565b6116d05760405162461bcd60e51b815260206004820152602d60248201527f455243313936373a206e657720696d706c656d656e746174696f6e206973206e60448201526c1bdd08184818dbdb9d1c9858dd609a1b60648201526084016104e8565b6000805160206120ba83398151915280546001600160a01b0319166001600160a01b0392909216919091179055565b611708836118d2565b6000825111806117155750805b1561061c57610aa28383611912565b60606103c76001600160a01b03831660145b60606000611745836002611eca565b61175090600261203d565b67ffffffffffffffff81111561176857611768611ba2565b6040519080825280601f01601f191660200182016040528015611792576020820181803683370190505b509050600360fc1b816000815181106117ad576117ad612050565b60200101906001600160f81b031916908160001a905350600f60fb1b816001815181106117dc576117dc612050565b60200101906001600160f81b031916908160001a9053506000611800846002611eca565b61180b90600161203d565b90505b6001811115611883576f181899199a1a9b1b9c1cb0b131b232b360811b85600f166010811061183f5761183f612050565b1a60f81b82828151811061185557611855612050565b60200101906001600160f81b031916908160001a90535060049490941c9361187c81612066565b905061180e565b5083156116055760405162461bcd60e51b815260206004820181905260248201527f537472696e67733a20686578206c656e67746820696e73756666696369656e7460448201526064016104e8565b6118db81611665565b6040516001600160a01b038216907fbc7cd75a20ee27fd9adebab32041f755214dbc6bffa90cc0225b39da2e5c2d3b90600090a250565b606061160583836040518060600160405280602781526020016120da602791396060600080856001600160a01b03168560405161194f919061207d565b600060405180830381855af49150503d806000811461198a576040519150601f19603f3d011682016040523d82523d6000602084013e61198f565b606091505b50915091506119a0868383876119aa565b9695505050505050565b60608315611a17578251600003611a10576119c48561157d565b611a105760405162461bcd60e51b815260206004820152601d60248201527f416464726573733a2063616c6c20746f206e6f6e2d636f6e747261637400000060448201526064016104e8565b5081611a21565b611a218383611a29565b949350505050565b815115611a395781518083602001fd5b8060405162461bcd60e51b81526004016104e89190611c9e565b600060208284031215611a6557600080fd5b81356001600160e01b03198116811461160557600080fd5b80356001600160a01b0381168114611a9457600080fd5b919050565b60008060408385031215611aac57600080fd5b611ab583611a7d565b946020939093013593505050565b600060208284031215611ad557600080fd5b5035919050565b60008060408385031215611aef57600080fd5b82359150611aff60208401611a7d565b90509250929050565b600060208284031215611b1a57600080fd5b61160582611a7d565b600080600080600060a08688031215611b3b57600080fd5b611b4486611a7d565b9450611b5260208701611a7d565b935060408601359250611b6760608701611a7d565b949793965091946080013592915050565b60008060408385031215611b8b57600080fd5b611b9483611a7d565b9150611aff60208401611a7d565b634e487b7160e01b600052604160045260246000fd5b60008060408385031215611bcb57600080fd5b611bd483611a7d565b9150602083013567ffffffffffffffff80821115611bf157600080fd5b818501915085601f830112611c0557600080fd5b813581811115611c1757611c17611ba2565b604051601f8201601f19908116603f01168101908382118183101715611c3f57611c3f611ba2565b81604052828152886020848701011115611c5857600080fd5b8260208601602083013760006020848301015280955050505050509250929050565b60005b83811015611c95578181015183820152602001611c7d565b50506000910152565b6020815260008251806020840152611cbd816040850160208701611c7a565b601f01601f19169190910160400192915050565b600080600060608486031215611ce657600080fd5b611cef84611a7d565b9250611cfd60208501611a7d565b9150604084013590509250925092565b805169ffffffffffffffffffff81168114611a9457600080fd5b600080600080600060a08688031215611d3f57600080fd5b611d4886611d0d565b9450602086015193506040860151925060608601519150611d6b60808701611d0d565b90509295509295909350565b634e487b7160e01b600052601160045260246000fd5b818103818111156103c7576103c7611d77565b6001600160a01b0391909116815260200190565b600060208284031215611dc657600080fd5b815160ff8116811461160557600080fd5b600181815b80851115611e12578160001904821115611df857611df8611d77565b80851615611e0557918102915b93841c9390800290611ddc565b509250929050565b600082611e29575060016103c7565b81611e36575060006103c7565b8160018114611e4c5760028114611e5657611e72565b60019150506103c7565b60ff841115611e6757611e67611d77565b50506001821b6103c7565b5060208310610133831016604e8410600b8410161715611e95575081810a6103c7565b611e9f8383611dd7565b8060001904821115611eb357611eb3611d77565b029392505050565b600061160560ff841683611e1a565b80820281158282048414176103c7576103c7611d77565b600082611efe57634e487b7160e01b600052601260045260246000fd5b500490565b6020808252602c908201527f46756e6374696f6e206d7573742062652063616c6c6564207468726f7567682060408201526b19195b1959d85d1958d85b1b60a21b606082015260800190565b6020808252602c908201527f46756e6374696f6e206d7573742062652063616c6c6564207468726f7567682060408201526b6163746976652070726f787960a01b606082015260800190565b600060208284031215611fad57600080fd5b5051919050565b6001600160a01b0392831681529116602082015260400190565b76020b1b1b2b9b9a1b7b73a3937b61d1030b1b1b7bab73a1604d1b815260008351612000816017850160208801611c7a565b7001034b99036b4b9b9b4b733903937b6329607d1b6017918401918201528351612031816028840160208801611c7a565b01602801949350505050565b808201808211156103c7576103c7611d77565b634e487b7160e01b600052603260045260246000fd5b60008161207557612075611d77565b506000190190565b6000825161208f818460208701611c7a565b919091019291505056fe793a6c9b7e0a9549c74edc2f9ae0dc50903dfaa9a56fb0116b27a8c71de3e2c6360894a13ba1a3210667c828492db98dca3e2076cc3735a920a3ca505d382bbc416464726573733a206c6f772d6c6576656c2064656c65676174652063616c6c206661696c6564a26469706673582212204b73fcc2c259de2acc88a74c86de6c581ccb2d6a03a73ef13b929684f254246c64736f6c63430008120033",
  "linkReferences": {},
  "deployedLinkReferences": {}
}