{
  "_format": "hh-sol-artifact-1",
  "contractName": "TermPriceConsumerV3WithSequencer",
  "sourceName": "contracts/TermPriceConsumerV3WithSequencer.sol",
  "abi": [
    {
      "inputs": [],
      "stateMutability": "nonpayable",
      "type": "constructor"
    },
    {
      "inputs": [],
      "name": "AccessControlBadConfirmation",
      "type": "error"
    },
    {
      "inputs": [
        {
          "internalType": "address",
          "name": "account",
          "type": "address"
        },
        {
          "internalType": "bytes32",
          "name": "neededRole",
          "type": "bytes32"
        }
      ],
      "name": "AccessControlUnauthorizedAccount",
      "type": "error"
    },
    {
      "inputs": [
        {
          "internalType": "address",
          "name": "target",
          "type": "address"
        }
      ],
      "name": "AddressEmptyCode",
      "type": "error"
    },
    {
      "inputs": [
        {
          "internalType": "address",
          "name": "implementation",
          "type": "address"
        }
      ],
      "name": "ERC1967InvalidImplementation",
      "type": "error"
    },
    {
      "inputs": [],
      "name": "ERC1967NonPayable",
      "type": "error"
    },
    {
      "inputs": [],
      "name": "FailedCall",
      "type": "error"
    },
    {
      "inputs": [],
      "name": "GracePeriodNotOver",
      "type": "error"
    },
    {
      "inputs": [],
      "name": "InvalidInitialization",
      "type": "error"
    },
    {
      "inputs": [],
      "name": "InvalidPrice",
      "type": "error"
    },
    {
      "inputs": [],
      "name": "InvalidUpdateTimestamp",
      "type": "error"
    },
    {
      "inputs": [
        {
          "internalType": "address",
          "name": "tokenAddress",
          "type": "address"
        }
      ],
      "name": "NoPriceFeed",
      "type": "error"
    },
    {
      "inputs": [],
      "name": "NotInitializing",
      "type": "error"
    },
    {
      "inputs": [],
      "name": "PricesStale",
      "type": "error"
    },
    {
      "inputs": [],
      "name": "SequencerDownError",
      "type": "error"
    },
    {
      "inputs": [],
      "name": "UUPSUnauthorizedCallContext",
      "type": "error"
    },
    {
      "inputs": [
        {
          "internalType": "bytes32",
          "name": "slot",
          "type": "bytes32"
        }
      ],
      "name": "UUPSUnsupportedProxiableUUID",
      "type": "error"
    },
    {
      "inputs": [],
      "name": "ZeroPrice",
      "type": "error"
    },
    {
      "anonymous": false,
      "inputs": [
        {
          "indexed": false,
          "internalType": "uint64",
          "name": "version",
          "type": "uint64"
        }
      ],
      "name": "Initialized",
      "type": "event"
    },
    {
      "anonymous": false,
      "inputs": [
        {
          "indexed": true,
          "internalType": "bytes32",
          "name": "role",
          "type": "bytes32"
        },
        {
          "indexed": true,
          "internalType": "bytes32",
          "name": "previousAdminRole",
          "type": "bytes32"
        },
        {
          "indexed": true,
          "internalType": "bytes32",
          "name": "newAdminRole",
          "type": "bytes32"
        }
      ],
      "name": "RoleAdminChanged",
      "type": "event"
    },
    {
      "anonymous": false,
      "inputs": [
        {
          "indexed": true,
          "internalType": "bytes32",
          "name": "role",
          "type": "bytes32"
        },
        {
          "indexed": true,
          "internalType": "address",
          "name": "account",
          "type": "address"
        },
        {
          "indexed": true,
          "internalType": "address",
          "name": "sender",
          "type": "address"
        }
      ],
      "name": "RoleGranted",
      "type": "event"
    },
    {
      "anonymous": false,
      "inputs": [
        {
          "indexed": true,
          "internalType": "bytes32",
          "name": "role",
          "type": "bytes32"
        },
        {
          "indexed": true,
          "internalType": "address",
          "name": "account",
          "type": "address"
        },
        {
          "indexed": true,
          "internalType": "address",
          "name": "sender",
          "type": "address"
        }
      ],
      "name": "RoleRevoked",
      "type": "event"
    },
    {
      "anonymous": false,
      "inputs": [
        {
          "indexed": false,
          "internalType": "address",
          "name": "token",
          "type": "address"
        },
        {
          "indexed": false,
          "internalType": "address",
          "name": "tokenPriceAggregator",
          "type": "address"
        }
      ],
      "name": "SubscribeFallbackPriceFeed",
      "type": "event"
    },
    {
      "anonymous": false,
      "inputs": [
        {
          "indexed": false,
          "internalType": "address",
          "name": "token",
          "type": "address"
        },
        {
          "indexed": false,
          "internalType": "address",
          "name": "tokenPriceAggregator",
          "type": "address"
        }
      ],
      "name": "SubscribePriceFeed",
      "type": "event"
    },
    {
      "anonymous": false,
      "inputs": [
        {
          "indexed": false,
          "internalType": "address",
          "name": "token",
          "type": "address"
        }
      ],
      "name": "UnsubscribeFallbackPriceFeed",
      "type": "event"
    },
    {
      "anonymous": false,
      "inputs": [
        {
          "indexed": false,
          "internalType": "address",
          "name": "token",
          "type": "address"
        }
      ],
      "name": "UnsubscribePriceFeed",
      "type": "event"
    },
    {
      "anonymous": false,
      "inputs": [
        {
          "indexed": true,
          "internalType": "address",
          "name": "implementation",
          "type": "address"
        }
      ],
      "name": "Upgraded",
      "type": "event"
    },
    {
      "inputs": [],
      "name": "DEFAULT_ADMIN_ROLE",
      "outputs": [
        {
          "internalType": "bytes32",
          "name": "",
          "type": "bytes32"
        }
      ],
      "stateMutability": "view",
      "type": "function"
    },
    {
      "inputs": [],
      "name": "DEVOPS_ROLE",
      "outputs": [
        {
          "internalType": "bytes32",
          "name": "",
          "type": "bytes32"
        }
      ],
      "stateMutability": "view",
      "type": "function"
    },
    {
      "inputs": [],
      "name": "UPGRADE_INTERFACE_VERSION",
      "outputs": [
        {
          "internalType": "string",
          "name": "",
          "type": "string"
        }
      ],
      "stateMutability": "view",
      "type": "function"
    },
    {
      "inputs": [
        {
          "internalType": "address",
          "name": "token",
          "type": "address"
        },
        {
          "internalType": "address",
          "name": "tokenPriceAggregator",
          "type": "address"
        },
        {
          "internalType": "uint256",
          "name": "refreshRateThreshold",
          "type": "uint256"
        }
      ],
      "name": "addNewTokenFallbackPriceFeed",
      "outputs": [],
      "stateMutability": "nonpayable",
      "type": "function"
    },
    {
      "inputs": [
        {
          "internalType": "address",
          "name": "token",
          "type": "address"
        },
        {
          "internalType": "address",
          "name": "tokenPriceAggregator",
          "type": "address"
        },
        {
          "internalType": "uint256",
          "name": "refreshRateThreshold",
          "type": "uint256"
        }
      ],
      "name": "addNewTokenPriceFeed",
      "outputs": [],
      "stateMutability": "nonpayable",
      "type": "function"
    },
    {
      "inputs": [
        {
          "internalType": "address",
          "name": "token",
          "type": "address"
        },
        {
          "internalType": "address",
          "name": "tokenPriceAggregator",
          "type": "address"
        },
        {
          "internalType": "uint256",
          "name": "tokenPriceAggregatorRefreshRateThreshold",
          "type": "uint256"
        },
        {
          "internalType": "address",
          "name": "fallbackPriceAggregator",
          "type": "address"
        },
        {
          "internalType": "uint256",
          "name": "fallbackPriceAggregatorRefreshRateThreshold",
          "type": "uint256"
        }
      ],
      "name": "addNewTokenPriceFeedAndFallbackPriceFeed",
      "outputs": [],
      "stateMutability": "nonpayable",
      "type": "function"
    },
    {
      "inputs": [
        {
          "internalType": "bytes32",
          "name": "role",
          "type": "bytes32"
        }
      ],
      "name": "getRoleAdmin",
      "outputs": [
        {
          "internalType": "bytes32",
          "name": "",
          "type": "bytes32"
        }
      ],
      "stateMutability": "view",
      "type": "function"
    },
    {
      "inputs": [
        {
          "internalType": "bytes32",
          "name": "role",
          "type": "bytes32"
        },
        {
          "internalType": "address",
          "name": "account",
          "type": "address"
        }
      ],
      "name": "grantRole",
      "outputs": [],
      "stateMutability": "nonpayable",
      "type": "function"
    },
    {
      "inputs": [
        {
          "internalType": "bytes32",
          "name": "role",
          "type": "bytes32"
        },
        {
          "internalType": "address",
          "name": "account",
          "type": "address"
        }
      ],
      "name": "hasRole",
      "outputs": [
        {
          "internalType": "bool",
          "name": "",
          "type": "bool"
        }
      ],
      "stateMutability": "view",
      "type": "function"
    },
    {
      "inputs": [
        {
          "internalType": "address",
          "name": "devopsWallet_",
          "type": "address"
        },
        {
          "internalType": "address",
          "name": "sequencerUptimeFeed_",
          "type": "address"
        }
      ],
      "name": "initialize",
      "outputs": [],
      "stateMutability": "nonpayable",
      "type": "function"
    },
    {
      "inputs": [],
      "name": "proxiableUUID",
      "outputs": [
        {
          "internalType": "bytes32",
          "name": "",
          "type": "bytes32"
        }
      ],
      "stateMutability": "view",
      "type": "function"
    },
    {
      "inputs": [
        {
          "internalType": "address",
          "name": "token",
          "type": "address"
        }
      ],
      "name": "removeFallbackTokenPriceFeed",
      "outputs": [],
      "stateMutability": "nonpayable",
      "type": "function"
    },
    {
      "inputs": [
        {
          "internalType": "address",
          "name": "token",
          "type": "address"
        }
      ],
      "name": "removeTokenPriceFeed",
      "outputs": [],
      "stateMutability": "nonpayable",
      "type": "function"
    },
    {
      "inputs": [
        {
          "internalType": "bytes32",
          "name": "role",
          "type": "bytes32"
        },
        {
          "internalType": "address",
          "name": "callerConfirmation",
          "type": "address"
        }
      ],
      "name": "renounceRole",
      "outputs": [],
      "stateMutability": "nonpayable",
      "type": "function"
    },
    {
      "inputs": [
        {
          "internalType": "bytes32",
          "name": "role",
          "type": "bytes32"
        },
        {
          "internalType": "address",
          "name": "account",
          "type": "address"
        }
      ],
      "name": "revokeRole",
      "outputs": [],
      "stateMutability": "nonpayable",
      "type": "function"
    },
    {
      "inputs": [
        {
          "internalType": "bytes4",
          "name": "interfaceId",
          "type": "bytes4"
        }
      ],
      "name": "supportsInterface",
      "outputs": [
        {
          "internalType": "bool",
          "name": "",
          "type": "bool"
        }
      ],
      "stateMutability": "view",
      "type": "function"
    },
    {
      "inputs": [
        {
          "internalType": "address",
          "name": "newImplementation",
          "type": "address"
        },
        {
          "internalType": "bytes",
          "name": "data",
          "type": "bytes"
        }
      ],
      "name": "upgradeToAndCall",
      "outputs": [],
      "stateMutability": "payable",
      "type": "function"
    },
    {
      "inputs": [
        {
          "internalType": "address",
          "name": "token",
          "type": "address"
        },
        {
          "internalType": "uint256",
          "name": "amount",
          "type": "uint256"
        }
      ],
      "name": "usdValueOfTokens",
      "outputs": [
        {
          "components": [
            {
              "internalType": "uint256",
              "name": "mantissa",
              "type": "uint256"
            }
          ],
          "internalType": "struct ExponentialNoError.Exp",
          "name": "",
          "type": "tuple"
        }
      ],
      "stateMutability": "view",
      "type": "function"
    },
    {
      "inputs": [],
      "name": "version",
      "outputs": [
        {
          "internalType": "string",
          "name": "",
          "type": "string"
        }
      ],
      "stateMutability": "view",
      "type": "function"
    }
  ],
  "bytecode": "0x60a080604052346100cc57306080527ff0c57e16840df040f15088dc2f81fe391c3923bec73e23a9662efc9c229c6a009081549060ff8260401c166100bd57506001600160401b036002600160401b031982821601610078575b60405161160e90816100d2823960805181818161036d015261043c0152f35b6001600160401b031990911681179091556040519081527fc7f505b2f371ae2175ee4913f4499e1f2633a7b5936321eed1cdaeb6115181d290602090a1388080610059565b63f92ee8a960e01b8152600490fd5b600080fdfe608060408181526004918236101561001657600080fd5b600092833560e01c91826301ffc9a714610ac8575081630f4f276c14610873578163201a66251461084a578163248a9ca3146108125781632f2ff15d146107e857816336568abe146107a257816338ff63bb14610746578163485cc955146106035781634f1ef286146103bf57816352d1902d1461035857816354fd4d501461031557816391d14854146102c1578163929ac838146102a1578163a217fddf14610286578163aa7a2cdc14610260578163ad3cb1cc1461021f578163ce2ff6aa146101b4578163d547741f14610163575063ea6466fa146100f657600080fd5b3461015f57602036600319011261015f5760207f1093a5da06a58f0fb15c9391f2457f36d022ac2f482a803bde212626f674400291610133610b1b565b61013b610fe9565b6001600160a01b03168085526001808452828620868155018590559051908152a180f35b5080fd5b919050346101b057806003193601126101b0576101ac91356101a76001610188610b36565b938387526000805160206115798339815191526020528620015461103f565b611173565b5080f35b8280fd5b50503461015f57602036600319011261015f5760207ffbc2f2231449137043afaa28222f673d780c0e7449d25d2c98ea791db929204c916101f3610b1b565b6101fb610fe9565b6001600160a01b03168085528483528185208581556001018590559051908152a180f35b50503461015f578160031936011261015f57805161025c9161024082610b7d565b60058252640352e302e360dc1b60208301525191829182610bd6565b0390f35b83346102835761028061027236610c1f565b9161027b610fe9565b61135b565b80f35b80fd5b50503461015f578160031936011261015f5751908152602090f35b8334610283576102806102b336610c1f565b916102bc610fe9565b611210565b9050346101b057816003193601126101b0578160209360ff926102e2610b36565b9035825260008051602061157983398151915286528282206001600160a01b039091168252855220549151911615158152f35b50503461015f578160031936011261015f57805161025c9161033682610b7d565b600b82526a19195d995b1bdc1b595b9d60aa1b60208301525191829182610bd6565b828434610283578060031936011261028357507f00000000000000000000000000000000000000000000000000000000000000006001600160a01b031630036103b257602090516000805160206115598339815191528152f35b5163703e46dd60e11b8152fd5b918091506003193601126101b0576103d5610b1b565b60249390919084356001600160401b03811161015f573660238201121561015f578085013561040381610bbb565b9461041085519687610b98565b81865260209182870193368a83830101116105ff578186928b8693018737880101526001600160a01b037f000000000000000000000000000000000000000000000000000000000000000081163081149081156105e3575b506105d357610475610fe9565b81169585516352d1902d60e01b815283818a818b5afa8691816105a0575b506104af575050505050505191634c9c8ce360e01b8352820152fd5b9088888894938c6000805160206115598339815191529182810361058b5750853b15610577575080546001600160a01b031916821790558451889392917fbc7cd75a20ee27fd9adebab32041f755214dbc6bffa90cc0225b39da2e5c2d3b8580a28251156105595750506101ac9582915190845af4913d1561054f573d61054161053882610bbb565b92519283610b98565b81528581943d92013e6114b5565b50606092506114b5565b95509550505050503461056b57505080f35b63b398979f60e01b8152fd5b8651634c9c8ce360e01b8152808501849052fd5b8751632a87526960e21b815280860191909152fd5b9091508481813d83116105cc575b6105b88183610b98565b810103126105c857519038610493565b8680fd5b503d6105ae565b855163703e46dd60e11b81528890fd5b9050816000805160206115598339815191525416141538610468565b8580fd5b9050346101b057816003193601126101b05761061d610b1b565b90610626610b36565b916000805160206115b983398151915292835460ff81871c16159360018060401b0382168015908161073e575b6001149081610734575b15908161072b575b5061071d57506001600160401b0319811660011785556106bd92919084610702575b50610690611486565b610698611486565b600280546001600160a01b0319166001600160a01b0392909216919091179055611072565b506106c6578280f35b805460ff60401b1916905551600181527fc7f505b2f371ae2175ee4913f4499e1f2633a7b5936321eed1cdaeb6115181d290602090a138808280f35b6001600160481b0319166001600160401b0117855538610687565b865163f92ee8a960e01b8152fd5b90501538610665565b303b15915061065d565b869150610653565b83346102835760a036600319011261028357610760610b1b565b610768610b36565b906064356001600160a01b038116810361079e576107956102809361078b610fe9565b6044359084611210565b6084359161135b565b8380fd5b83833461015f578060031936011261015f576107bc610b36565b90336001600160a01b038316036107d957506101ac919235611173565b5163334bd91960e11b81528390fd5b919050346101b057806003193601126101b0576101ac913561080d6001610188610b36565b6110fe565b9050346101b05760203660031901126101b0578160209360019235815260008051602061157983398151915285522001549051908152f35b50503461015f578160031936011261015f57602090516000805160206115398339815191528152f35b82843461028357816003193601126102835761088d610b1b565b60243582845161089c81610b4c565b526002548451633fabe5a360e21b81526001600160a01b03939160a09082908990829088165afa908115610abe5785908692610a86575b50600114610a76576108e8610e109142610c9d565b1115610a66578281169283855284602052858520541615610a4f5791859391610912602094610d0a565b94909287519687809263313ce56760e01b82525afa948515610a45578395610a14575b50670de0b6b3a76400009485820291808304871490151715610a01579061095e61096492610cd9565b90610cea565b9285519361097185610b4c565b8452848202918083048614901517156109ee579061095e61099192610cd9565b9184519261099e84610b4c565b83528185516109ac81610b4c565b52519151918281029281840414901517156109db57506020935004908181516109d481610b4c565b5251908152f35b634e487b7160e01b815260118552602490fd5b634e487b7160e01b835260118752602483fd5b634e487b7160e01b845260118852602484fd5b610a3791955060203d602011610a3e575b610a2f8183610b98565b810190610cc0565b9387610935565b503d610a25565b86513d85823e3d90fd5b8451632a4f499d60e21b8152808701849052602490fd5b845163d15f73b560e01b81528690fd5b855163d3a3d5d360e01b81528790fd5b60019250610aac915060a03d60a011610ab7575b610aa48183610b98565b810190610c68565b5050929150906108d3565b503d610a9a565b86513d87823e3d90fd5b8491346101b05760203660031901126101b0573563ffffffff60e01b81168091036101b05760209250637965db0b60e01b8114908115610b0a575b5015158152f35b6301ffc9a760e01b14905083610b03565b600435906001600160a01b0382168203610b3157565b600080fd5b602435906001600160a01b0382168203610b3157565b602081019081106001600160401b03821117610b6757604052565b634e487b7160e01b600052604160045260246000fd5b604081019081106001600160401b03821117610b6757604052565b601f909101601f19168101906001600160401b03821190821017610b6757604052565b6001600160401b038111610b6757601f01601f191660200190565b6020808252825181830181905290939260005b828110610c0b57505060409293506000838284010152601f8019910116010190565b818101860151848201604001528501610be9565b6060906003190112610b31576001600160a01b03906004358281168103610b3157916024359081168103610b31579060443590565b51906001600160501b0382168203610b3157565b908160a0910312610b3157610c7c81610c54565b91602082015191604081015191610c9a608060608401519301610c54565b90565b91908203918211610caa57565b634e487b7160e01b600052601160045260246000fd5b90816020910312610b31575160ff81168103610b315790565b60ff16604d8111610caa57600a0a90565b8115610cf4570490565b634e487b7160e01b600052601260045260246000fd5b6000916000918260018060a01b0380921680825260208281526040928484822054169484519586948592633fabe5a360e21b9283855260a097889160049b8c915afa938415610fdf5785908695610fba575b50828652600191828852808a8820541695861580610f105715610d8757505050505050505050505050565b9187999b9e50809496989a9d509690929496139081610ef1575b50610eb7575050885192835286838b81875afa928315610ead5785978694610e83575b5050848713610ddc57885162bfc92160e01b81528a90fd5b81859a9798999a52808652808a8620015415928315610e61575b505050600014610e5157829087519485809263313ce56760e01b82525afa958615610e47575094610e28575b50509190565b610e3f929450803d10610a3e57610a2f8183610b98565b913880610e22565b51903d90823e3d90fd5b8651633ef9f21b60e01b81528490fd5b610e6e9192935042610c9d565b91845280855288842001541015388080610df6565b610e9f9398508091929450903d10610ab757610aa48183610b98565b509792505095913880610dc4565b89513d87823e3d90fd5b93509798999650508492508352828252878320541687519485809263313ce56760e01b82525afa958615610e47575094610e285750509190565b610efc915042610c9d565b848852878952838c89200154101538610da1565b50955096989b50989b50915092809550871315600014610f3957885162bfc92160e01b81528a90fd5b84869a9798999a52808a8620015415918215610f99575b505015610f8957825281835286822054875163313ce56760e01b815294849286928391165afa958615610e47575094610e285750509190565b8751633ef9f21b60e01b81528590fd5b610fa591925042610c9d565b90828552848652898520015410153880610f50565b9050610fd4919450873d8911610ab757610aa48183610b98565b509592505038610d5c565b88513d87823e3d90fd5b33600090815260008051602061159983398151915260205260409020546000805160206115398339815191529060ff16156110215750565b6044906040519063e2517d3f60e01b82523360048301526024820152fd5b8060005260008051602061157983398151915260205260406000203360005260205260ff60406000205416156110215750565b6001600160a01b031660008181526000805160206115998339815191526020526040812054909190600080516020611539833981519152906000805160206115798339815191529060ff166110f8578184526020526040832082845260205260408320600160ff19825416179055600080516020611519833981519152339380a4600190565b50505090565b9060009180835260008051602061157983398151915280602052604084209260018060a01b03169283855260205260ff604085205416156000146110f8578184526020526040832082845260205260408320600160ff19825416179055600080516020611519833981519152339380a4600190565b9060009180835260008051602061157983398151915280602052604084209260018060a01b03169283855260205260ff6040852054166000146110f857818452602052604083208284526020526040832060ff1981541690557ff6391f5c32d9c69d2a47ea670b442974b53935d1edc7fd64eb21e047a839171b339380a4600190565b6001600160a01b0391821681529116602082015260400190565b6001600160a01b039392828516908115611304576040958651633fabe5a360e21b815260a081600481875afa80156112f95760009182916112d5575b5013156112c55791600187926112c0947f950d6b0fc92ec932fc49a6ea1af2dded2fac58d5464090ceece194b1f1e624f39899519361128a85610b7d565b845260208401918252808716600052600060205284600020935116828060a01b03198454161783555191015551928392836111f6565b0390a1565b865162bfc92160e01b8152600490fd5b6112ee915060a03d60a011610ab757610aa48183610b98565b50505090503861124c565b88513d6000823e3d90fd5b60405162461bcd60e51b815260206004820152602960248201527f5072696d61727920507269636520666565642063616e6e6f74206265207a65726044820152686f206164647265737360b81b6064820152608490fd5b6001600160a01b03939282851690811561142e576040958651633fabe5a360e21b815260a081600481875afa80156112f957600091829161140a575b5013156112c55791600187926112c0947f88f32712a5f54716ba83ac5415ed99ffccbcf735a00db9ff1607cc259f8bca08989951936113d585610b7d565b8452602084019182528087166000528260205284600020935116828060a01b03198454161783555191015551928392836111f6565b611423915060a03d60a011610ab757610aa48183610b98565b505050905038611397565b60405162461bcd60e51b815260206004820152602a60248201527f46616c6c6261636b20507269636520666565642063616e6e6f74206265207a65604482015269726f206164647265737360b01b6064820152608490fd5b60ff6000805160206115b98339815191525460401c16156114a357565b604051631afcd79f60e31b8152600490fd5b906114dc57508051156114ca57805190602001fd5b60405163d6bda27560e01b8152600490fd5b8151158061150f575b6114ed575090565b604051639996b31560e01b81526001600160a01b039091166004820152602490fd5b50803b156114e556fe2f8788117e7eff1d82e926ec794901d17c78024a50270940304540a733656f0d793a6c9b7e0a9549c74edc2f9ae0dc50903dfaa9a56fb0116b27a8c71de3e2c6360894a13ba1a3210667c828492db98dca3e2076cc3735a920a3ca505d382bbc02dd7bc7dec4dceedda775e58dd541e08a116c6c53815c0bd028192f7b6268000cfb002fcf8644f87ebf6cf6e31899c8d8e9f7c329b465b6e36989a958507e8bf0c57e16840df040f15088dc2f81fe391c3923bec73e23a9662efc9c229c6a00a264697066735822122080833dad9d90b77382ae4739fbdf1e9bcc82eb1fc08b47ba7a959a2ac9e1278b64736f6c63430008160033",
  "linkReferences": {},
  "deployedLinkReferences": {}
}