{
  "_format": "hh-sol-artifact-1",
  "contractName": "SwapRouterFacet",
  "sourceName": "contracts/facets/SwapRouterFacet.sol",
  "abi": [
    {
      "inputs": [
        {
          "internalType": "address",
          "name": "pendleRouter_",
          "type": "address"
        },
        {
          "internalType": "address",
          "name": "pendleSwap_",
          "type": "address"
        }
      ],
      "stateMutability": "nonpayable",
      "type": "constructor"
    },
    {
      "inputs": [
        {
          "internalType": "address",
          "name": "target",
          "type": "address"
        }
      ],
      "name": "AddressEmptyCode",
      "type": "error"
    },
    {
      "inputs": [],
      "name": "BothTokensCannotBePendlePT",
      "type": "error"
    },
    {
      "inputs": [],
      "name": "FailedCall",
      "type": "error"
    },
    {
      "inputs": [],
      "name": "InputAmountMismatch",
      "type": "error"
    },
    {
      "inputs": [],
      "name": "InputOutputTokenCollision",
      "type": "error"
    },
    {
      "inputs": [],
      "name": "InvalidPendleRouterAddress",
      "type": "error"
    },
    {
      "inputs": [],
      "name": "InvalidPendleSwapAddress",
      "type": "error"
    },
    {
      "inputs": [],
      "name": "ReentrancyGuardReentrantCall",
      "type": "error"
    },
    {
      "inputs": [
        {
          "internalType": "uint8",
          "name": "bits",
          "type": "uint8"
        },
        {
          "internalType": "uint256",
          "name": "value",
          "type": "uint256"
        }
      ],
      "name": "SafeCastOverflowedUintDowncast",
      "type": "error"
    },
    {
      "inputs": [
        {
          "internalType": "address",
          "name": "token",
          "type": "address"
        }
      ],
      "name": "SafeERC20FailedOperation",
      "type": "error"
    },
    {
      "inputs": [],
      "name": "UnsupportedHookSelector",
      "type": "error"
    },
    {
      "inputs": [
        {
          "internalType": "address",
          "name": "user",
          "type": "address"
        },
        {
          "internalType": "address",
          "name": "inputToken",
          "type": "address"
        },
        {
          "internalType": "uint256",
          "name": "maxInputAmount",
          "type": "uint256"
        },
        {
          "internalType": "address",
          "name": "outputToken",
          "type": "address"
        },
        {
          "internalType": "uint256",
          "name": "minOutputAmount",
          "type": "uint256"
        },
        {
          "internalType": "bytes4",
          "name": "selector",
          "type": "bytes4"
        },
        {
          "internalType": "address",
          "name": "targetAddress",
          "type": "address"
        },
        {
          "internalType": "bytes",
          "name": "additionalCalldata",
          "type": "bytes"
        }
      ],
      "name": "generateActionCalldata",
      "outputs": [
        {
          "components": [
            {
              "internalType": "address",
              "name": "expectedInputToken",
              "type": "address"
            },
            {
              "internalType": "uint256",
              "name": "expectedInputAmount",
              "type": "uint256"
            },
            {
              "internalType": "address",
              "name": "expectedOutputToken",
              "type": "address"
            },
            {
              "internalType": "uint256",
              "name": "expectedOutputAmount",
              "type": "uint256"
            },
            {
              "internalType": "bool",
              "name": "isDeterministic",
              "type": "bool"
            }
          ],
          "internalType": "struct PreviewAction",
          "name": "",
          "type": "tuple"
        },
        {
          "internalType": "bytes",
          "name": "",
          "type": "bytes"
        }
      ],
      "stateMutability": "view",
      "type": "function"
    },
    {
      "inputs": [
        {
          "internalType": "bytes4",
          "name": "",
          "type": "bytes4"
        }
      ],
      "name": "previewMapping",
      "outputs": [
        {
          "internalType": "bytes4",
          "name": "",
          "type": "bytes4"
        }
      ],
      "stateMutability": "view",
      "type": "function"
    },
    {
      "inputs": [
        {
          "components": [
            {
              "internalType": "address",
              "name": "user",
              "type": "address"
            },
            {
              "internalType": "address",
              "name": "inputToken",
              "type": "address"
            },
            {
              "internalType": "uint256",
              "name": "maxInputAmount",
              "type": "uint256"
            },
            {
              "internalType": "address",
              "name": "outputToken",
              "type": "address"
            },
            {
              "internalType": "uint256",
              "name": "minOutputAmount",
              "type": "uint256"
            },
            {
              "internalType": "address",
              "name": "targetAddress",
              "type": "address"
            },
            {
              "internalType": "bytes",
              "name": "additionalCalldata",
              "type": "bytes"
            }
          ],
          "internalType": "struct ActionHookInput",
          "name": "actionHookInput",
          "type": "tuple"
        }
      ],
      "name": "previewSwap",
      "outputs": [
        {
          "components": [
            {
              "internalType": "address",
              "name": "expectedInputToken",
              "type": "address"
            },
            {
              "internalType": "uint256",
              "name": "expectedInputAmount",
              "type": "uint256"
            },
            {
              "internalType": "address",
              "name": "expectedOutputToken",
              "type": "address"
            },
            {
              "internalType": "uint256",
              "name": "expectedOutputAmount",
              "type": "uint256"
            },
            {
              "internalType": "bool",
              "name": "isDeterministic",
              "type": "bool"
            }
          ],
          "internalType": "struct PreviewAction",
          "name": "",
          "type": "tuple"
        }
      ],
      "stateMutability": "view",
      "type": "function"
    },
    {
      "inputs": [
        {
          "internalType": "address",
          "name": "tokenIn",
          "type": "address"
        },
        {
          "internalType": "uint256",
          "name": "amountIn",
          "type": "uint256"
        },
        {
          "internalType": "bool",
          "name": "usePermit2",
          "type": "bool"
        },
        {
          "components": [
            {
              "internalType": "bytes",
              "name": "swapData",
              "type": "bytes"
            },
            {
              "internalType": "bool",
              "name": "isTokenInPendlePT",
              "type": "bool"
            },
            {
              "internalType": "bool",
              "name": "isTokenOutPendlePT",
              "type": "bool"
            }
          ],
          "internalType": "struct SwapRouterFacet.SwapRouterData",
          "name": "data",
          "type": "tuple"
        }
      ],
      "name": "swap",
      "outputs": [],
      "stateMutability": "nonpayable",
      "type": "function"
    },
    {
      "inputs": [
        {
          "components": [
            {
              "internalType": "address",
              "name": "user",
              "type": "address"
            },
            {
              "internalType": "address",
              "name": "inputToken",
              "type": "address"
            },
            {
              "internalType": "uint256",
              "name": "maxInputAmount",
              "type": "uint256"
            },
            {
              "internalType": "address",
              "name": "outputToken",
              "type": "address"
            },
            {
              "internalType": "uint256",
              "name": "minOutputAmount",
              "type": "uint256"
            },
            {
              "internalType": "address",
              "name": "targetAddress",
              "type": "address"
            },
            {
              "internalType": "bytes",
              "name": "additionalCalldata",
              "type": "bytes"
            }
          ],
          "internalType": "struct ActionHookInput",
          "name": "input",
          "type": "tuple"
        }
      ],
      "name": "swapHook",
      "outputs": [],
      "stateMutability": "nonpayable",
      "type": "function"
    }
  ],
  "bytecode": "0x60c034620000f157620018c690601f38839003908101601f19168201906001600160401b03821183831017620000f65780839160409586948552833981010312620000f1576200005d602062000055836200010c565b92016200010c565b6001600055906001600160a01b0380821615620000e057821615620000cf5760805260a052633ace28e360e11b60009081526001602052819020805463ffffffff191663d180267b179055516117a49081620001228239608051818181610f7a0152611282015260a051816114190152f35b8251635583c48560e01b8152600490fd5b8351632960053960e11b8152600490fd5b600080fd5b634e487b7160e01b600052604160045260246000fd5b51906001600160a01b0382168203620000f15756fe608060408181526004918236101561001657600080fd5b600090813560e01c9081630cafab03146104d257508063759c51c61461038d5780639ef72eff1461014e578063c3246edc146101045763d180267b1461005b57600080fd5b34610101576100693661065d565b61007161089f565b506020810161007f8161088b565b60608301956001600160a01b03929183806100998a61088b565b169116146100f35760a0876100f18888608089896100bf6100b98b61088b565b9761088b565b818651986100cc8a6106d2565b16885285830135602089015216848701520135606085015260808401525180926107a8565bf35b8551635542f09960e01b8152fd5b80fd5b50913461014a57602036600319011261014a576001600160e01b0319903581811690819003610145578383916020955260018552205460e01b915191168152f35b600080fd5b8280fd5b50913461014a5761010036600319011261014a5761016a61063a565b916001600160a01b03916024358381169081900361014557606435948486168096036101455760a4359563ffffffff60e01b97888816928389036101455760c435928884168094036101455760e4356001600160401b038111610389576101d49036908901610761565b946101dd61089f565b508352602096600188528884205460e01b9b8c161561037b575082899a9b6102959382938b9c61024f9c5192610212846106b7565b16998a83528b8301526044358d830152606082015260843560808201528660a08201528760c08201528b519a8b918b8301938452602483016108ca565b0399610263601f199b8c8101835282610723565b5190305afa3d15610373573d9061027982610746565b916102868b519384610723565b82523d848984013e5b3061170b565b9060a08280518101031261010157506103549361035e9996938896936103489361036f9a519b6102c48d6106d2565b898d826102d28a8601610930565b8083528386015192838c8201526102eb60608801610930565b8095820152608061030860a0828a0151998a606086015201610944565b9101528d51986103178a6106b7565b895216898801528b870152166060850152608084015260a083015260c08201528551968793840152602483016108ca565b03908101845283610723565b51938480946107a8565b60c060a084015260c0830190610804565b0390f35b60609061028f565b8851631416e68f60e01b8152fd5b8380fd5b50913461014a5761039d3661065d565b9060028454146104c457600284556103b48261088b565b7fc9e4fb8bffaf71b56abf2a5032f2ea641e97267f8c0d9bcf66c86998c650d62a546001600160a01b0390811680151592909190836104b8575b5050501561047f57506104036020820161088b565b60c0820135601e198336030181121561047b578201803593906001600160401b03908186116104735760208101958036038713610477578101956020828803126104775735918211610473576020610463928161046c9801920101610829565b92013590610f5d565b6001815580f35b8680fd5b8780fd5b8480fd5b606490602084519162461bcd60e51b835282015260136024820152722ab730baba3437b934bd32b21031b0b63632b960691b6044820152fd5b161490503880806103ee565b8251633ee5aeb560e01b8152fd5b849391503461014a5760031993608036860112610389576104f161063a565b9260243592604435801515810361047357606435976001600160401b03891161047757606090893603011261047357156105eb57506001600160a01b038084116105ce576e22d473030f116ddee9f6b43ac78ba390813b15610473578251631b63c28b60e11b8152338582015230602482015285821660448201529086166064820152919086908390608490829084905af19081156105c557506105ac575b506105a3906105a994955b369101610829565b91610f5d565b80f35b906105a9946105bd6105a39361068e565b945090610590565b513d87823e3d90fd5b509160a060449351926306dfcc6560e41b84528301526024820152fd5b6105a3929150956106356105a996976323b872dd60e01b602082015233602482015230604482015285606482015260648152610626816106d2565b6001600160a01b038716611515565b61059b565b600435906001600160a01b038216820361014557565b3590811515820361014557565b6003199060208183011261014557600435916001600160401b038311610145578260e0920301126101455760040190565b6001600160401b0381116106a157604052565b634e487b7160e01b600052604160045260246000fd5b60e081019081106001600160401b038211176106a157604052565b60a081019081106001600160401b038211176106a157604052565b606081019081106001600160401b038211176106a157604052565b608081019081106001600160401b038211176106a157604052565b601f909101601f19168101906001600160401b038211908210176106a157604052565b6001600160401b0381116106a157601f01601f191660200190565b81601f820112156101455780359061077882610746565b926107866040519485610723565b8284526020838301011161014557816000926020809301838601378301015290565b6080809160018060a01b038082511685526020820151602086015260408201511660408501526060810151606085015201511515910152565b60005b8381106107f45750506000910152565b81810151838201526020016107e4565b9060209161081d815180928185528580860191016107e1565b601f01601f1916010190565b9190916060818403126101455760405190610843826106ed565b90928391908135906001600160401b038211610145578261086d6040949261088694869401610761565b855261087b60208201610650565b602086015201610650565b910152565b356001600160a01b03811681036101455790565b604051906108ac826106d2565b60006080838281528260208201528260408201528260608201520152565b61010060c061092d936020845260018060a01b0380825116602086015280602083015116604086015260408201516060860152806060830151166080860152608082015160a086015260a0820151168285015201519160e0808201520190610804565b90565b51906001600160a01b038216820361014557565b5190811515820361014557565b81601f8201121561014557805161096781610746565b926109756040519485610723565b818452602082840101116101455761092d91602080850191016107e1565b91909160808184031261014557604051906001600160401b0360808301818111848210176106a15760405282948251600b8110156101455784526109d960208401610930565b6020850152604083015191821161014557826109fe6060949261088694869401610951565b604086015201610944565b908151600b811015610a5057815260018060a01b036020830151166020820152606080610a456040850151608060408601526080850190610804565b930151151591015290565b634e487b7160e01b600052602160045260246000fd5b91908260a091031261014557604051610a7e816106d2565b6080808294805184526020810151602085015260408101516040850152606081015160608501520151910152565b919060a0838203126101455760405190610ac5826106d2565b8193610ad081610930565b835260208101516020840152610ae860408201610930565b6040840152610af960608201610930565b60608401526080810151916001600160401b038311610145576080926108869201610993565b9080601f83011215610145578151916020916001600160401b038085116106a1578460051b906040805196610b5687850189610723565b875285808801938601019484861161014557868101935b868510610b7f57505050505050505090565b845184811161014557820190606090601f198281858b03011261014557855190610ba8826106ed565b8b850151888111610145578501906101808091838d030112610145578751918183018381108b821117610cc05789528d81015183528d89820151908401528581015189840152608091828201516004811015610145578785015260a092610c10848401610930565b9085015260c092610c22848401610930565b9085015260e092610c34848401610930565b9085015261010092610c47848401610930565b908501526101209283830151908501526101409283830151908501526101609283830151908501528101518a8111610145578e8d91610c87930101610951565b90820152815285840151928784116101455784610cab8b8e80989781980101610951565b85840152015186820152815201940193610b6d565b60246000634e487b7160e01b81526041600452fd5b919060a0838203126101455760405190610cee826106d2565b8193610cf981610930565b83526020818101519084015260408101516001600160401b0392908381116101455781610d27918401610b1f565b604085015260608201518381116101455781610d44918401610b1f565b60608501526080820151928311610145576080926108869201610951565b90816060910312610145578051916040602083015192015190565b9060a0608061092d93600180841b038082511685526020820151602086015280604083015116604086015260608201511660608501520151918160808201520190610a09565b9080825180825260208092019180808360051b860101950193600080915b848310610df2575050505050505090565b90919293949596601f198282030187528751906060825190808352815181840152878201519060809182850152604092838101519160a092838701528101519260c093600480821015610eef5750610eca85889588958f9a95610eda9560019d9a8d9c9801528101519260e0928d8060a01b03809516848b015282015190846101009216828b015282015192846101209416848b0152820151936101409416848a01528101519161016092838a01528101519261018093848a01528101516101a08901520151906101c08701526101e0860190610804565b8686015185820388870152610804565b93015191015299019701959493019190610de1565b634e487b7160e01b8b526021905260248afd5b61092d9160018060a01b038251168152602082015160208201526080610f4c610f3a604085015160a0604086015260a0850190610dc3565b60608501518482036060860152610dc3565b920151906080818403910152610804565b916020928382018051151580611508575b6114f657511561126e577f0000000000000000000000000000000000000000000000000000000000000000926001600160a01b039182169290610fb2818686611656565b60409182516370c264df60e11b81528781600481895afa90811561126357600091611236575b5042106110fd5751805181019160a08284031261014557610ffa888301610930565b91611006858201610930565b9360608201519060808301519260a08101519160018060401b03831161014557611036928d809201920101610aac565b9281036110ec5760c09493611085889485946000948a519b8c998a988997630783503d60e51b89521660048801521660248601526044850152606484015260a0608484015260a4830190610d7d565b039289165af19081156110e257506110a5575b506110a39250611598565b565b60c03d60c0116110db575b6110ba8183610723565b810160c082820312610145576110a3946110d49201610a66565b5038611098565b503d6110b0565b513d6000823e3d90fd5b8551633dbc91ed60e11b8152600490fd5b96959091965191825183019160a08482850194031261014557611121818501610930565b9261112d8a8601610930565b9460608101519160808201519360018060401b039485811161014557828261115792860101610aac565b9460a08401519081116101455761116f930101610cd5565b92810361122557606094936111ce87946111bc86956000958f519b8c9a8b998a98631652a23360e21b8a52166004890152166024870152604486015260a0606486015260a4850190610d7d565b83810360031901608485015290610f02565b039288165af1801561121a576110a39495506111eb575b50611598565b61120c9060603d606011611213575b6112048183610723565b810190610d62565b50506111e5565b503d6111fa565b85513d6000823e3d90fd5b8951633dbc91ed60e11b8152600490fd5b90508781813d831161125c575b61124d8183610723565b81010312610145575138610fd8565b503d611243565b84513d6000823e3d90fd5b60408281015194959094909390156113f8577f0000000000000000000000000000000000000000000000000000000000000000926001600160a01b0392831692906112ba838686611656565b51805181019281898501946101409384910312610145576112dc8a8201610930565b926112e88a8301610930565b9560608301519b6112fc8260808601610a66565b61012085015190926001600160401b039182811161014557818461132292890101610aac565b95858101519283116101455761133a92018301610cd5565b9481850151036113e7578b9c8780999a9b9c9d519a8b998a9963640fc23d60e11b8b521660048a015216602488015260448701528151606487015281015160848601528b81015160a4860152606081015160c48601526080015160e485015261010484015261014483016113ad91610d7d565b828103600319016101248401526113c391610f02565b0391851691815a606094600091f1801561121a576110a39495506111eb5750611598565b8b51633dbc91ed60e11b8152600490fd5b845163a9059cbb60e01b8188015293959094936001600160a01b03928316937f00000000000000000000000000000000000000000000000000000000000000009392916114659061145f816114518b896024840161157d565b03601f198101835282610723565b86611515565b518051810191808284031261014557818101516001600160401b03811161014557816114949401920101610993565b9116803b15610145576114d39460008094865197889586948593630af6e08f60e21b855260048501526024840152606060448401526064830190610a09565b03925af19081156110e257506114e7575b50565b6114f09061068e565b386114e4565b604051633a8d640760e21b8152600490fd5b5060408301511515610f6e565b906000602091828151910182855af115611571576000513d61156857506001600160a01b0381163b155b6115465750565b604051635274afe760e01b81526001600160a01b039091166004820152602490fd5b6001141561153f565b6040513d6000823e3d90fd5b6001600160a01b039091168152602081019190915260400190565b60405190602082019263095ea7b360e01b80855260018060a01b0380921691826024860152602060008097816044890152604488526115d688610708565b87519082885af1903d87519083611635575b505050156115f8575b5050505050565b61162b9461162692604051926020840152602483015260448201526044815261162081610708565b82611515565b611515565b38808080806115f1565b9192509061164c575083163b15155b3880806115e8565b6001915014611644565b604051916020600081850161168c8661167e63095ea7b360e01b998a8552876024840161157d565b03601f198101885287610723565b85519082865af16000513d826116e6575b5050156116ab575b50505050565b6116dd936116269160405191602083015260018060a01b03166024820152600060448201526044815261162081610708565b388080806116a5565b90915061170357506001600160a01b0382163b15155b388061169d565b6001146116fc565b90611732575080511561172057805190602001fd5b60405163d6bda27560e01b8152600490fd5b81511580611765575b611743575090565b604051639996b31560e01b81526001600160a01b039091166004820152602490fd5b50803b1561173b56fea264697066735822122026a16e807f6c3fdceba2d5fecff39a2944cb25b8e95b81f8deb9f844110fecdd64736f6c63430008160033",
  "linkReferences": {},
  "deployedLinkReferences": {}
}