{
  "_format": "hh-sol-artifact-1",
  "contractName": "TermRouterFacet",
  "sourceName": "contracts/facets/TermRouterFacet.sol",
  "abi": [
    {
      "inputs": [],
      "stateMutability": "nonpayable",
      "type": "constructor"
    },
    {
      "inputs": [
        {
          "internalType": "address",
          "name": "target",
          "type": "address"
        }
      ],
      "name": "AddressEmptyCode",
      "type": "error"
    },
    {
      "inputs": [],
      "name": "AfterMaturity",
      "type": "error"
    },
    {
      "inputs": [],
      "name": "CollateralTransferFailed",
      "type": "error"
    },
    {
      "inputs": [],
      "name": "FailedCall",
      "type": "error"
    },
    {
      "inputs": [],
      "name": "InputOutputTokenCollision",
      "type": "error"
    },
    {
      "inputs": [
        {
          "internalType": "uint256",
          "name": "requested",
          "type": "uint256"
        },
        {
          "internalType": "uint256",
          "name": "available",
          "type": "uint256"
        }
      ],
      "name": "InsufficientCollateralAmount",
      "type": "error"
    },
    {
      "inputs": [],
      "name": "InvalidCollateralToken",
      "type": "error"
    },
    {
      "inputs": [],
      "name": "InvalidRepoId",
      "type": "error"
    },
    {
      "inputs": [],
      "name": "InvalidTermController",
      "type": "error"
    },
    {
      "inputs": [],
      "name": "PurchaseTokenMismatch",
      "type": "error"
    },
    {
      "inputs": [],
      "name": "ReentrancyGuardReentrantCall",
      "type": "error"
    },
    {
      "inputs": [
        {
          "internalType": "uint8",
          "name": "bits",
          "type": "uint8"
        },
        {
          "internalType": "uint256",
          "name": "value",
          "type": "uint256"
        }
      ],
      "name": "SafeCastOverflowedUintDowncast",
      "type": "error"
    },
    {
      "inputs": [
        {
          "internalType": "address",
          "name": "token",
          "type": "address"
        }
      ],
      "name": "SafeERC20FailedOperation",
      "type": "error"
    },
    {
      "inputs": [],
      "name": "UnsupportedHookSelector",
      "type": "error"
    },
    {
      "inputs": [
        {
          "internalType": "address",
          "name": "termRepoServicer",
          "type": "address"
        },
        {
          "internalType": "uint256",
          "name": "amountToBurn",
          "type": "uint256"
        }
      ],
      "name": "burnCollapseExposure",
      "outputs": [],
      "stateMutability": "nonpayable",
      "type": "function"
    },
    {
      "inputs": [
        {
          "internalType": "address",
          "name": "termRepoRolloverManager",
          "type": "address"
        }
      ],
      "name": "cancelRollover",
      "outputs": [],
      "stateMutability": "nonpayable",
      "type": "function"
    },
    {
      "inputs": [
        {
          "internalType": "address",
          "name": "termRepoRolloverManager",
          "type": "address"
        },
        {
          "components": [
            {
              "internalType": "address",
              "name": "rolloverAuctionBidLocker",
              "type": "address"
            },
            {
              "internalType": "uint256",
              "name": "rolloverAmount",
              "type": "uint256"
            },
            {
              "internalType": "bytes32",
              "name": "rolloverBidPriceHash",
              "type": "bytes32"
            }
          ],
          "internalType": "struct TermRepoRolloverElectionSubmission",
          "name": "termRepoRolloverElectionSubmission",
          "type": "tuple"
        }
      ],
      "name": "electRollover",
      "outputs": [],
      "stateMutability": "nonpayable",
      "type": "function"
    },
    {
      "inputs": [
        {
          "internalType": "address",
          "name": "termRepoCollateralManager",
          "type": "address"
        },
        {
          "internalType": "address",
          "name": "collateralToken",
          "type": "address"
        },
        {
          "internalType": "uint256",
          "name": "amount",
          "type": "uint256"
        },
        {
          "internalType": "bool",
          "name": "usePermit2",
          "type": "bool"
        }
      ],
      "name": "externalLockCollateral",
      "outputs": [],
      "stateMutability": "nonpayable",
      "type": "function"
    },
    {
      "inputs": [
        {
          "internalType": "address",
          "name": "termRepoCollateralManager",
          "type": "address"
        },
        {
          "internalType": "address",
          "name": "collateralToken",
          "type": "address"
        },
        {
          "internalType": "uint256",
          "name": "amount",
          "type": "uint256"
        }
      ],
      "name": "externalUnlockCollateral",
      "outputs": [],
      "stateMutability": "nonpayable",
      "type": "function"
    },
    {
      "inputs": [
        {
          "internalType": "address",
          "name": "user",
          "type": "address"
        },
        {
          "internalType": "address",
          "name": "inputToken",
          "type": "address"
        },
        {
          "internalType": "uint256",
          "name": "maxInputAmount",
          "type": "uint256"
        },
        {
          "internalType": "address",
          "name": "outputToken",
          "type": "address"
        },
        {
          "internalType": "uint256",
          "name": "minOutputAmount",
          "type": "uint256"
        },
        {
          "internalType": "bytes4",
          "name": "selector",
          "type": "bytes4"
        },
        {
          "internalType": "address",
          "name": "targetAddress",
          "type": "address"
        },
        {
          "internalType": "bytes",
          "name": "additionalCalldata",
          "type": "bytes"
        }
      ],
      "name": "generateActionCalldata",
      "outputs": [
        {
          "components": [
            {
              "internalType": "address",
              "name": "expectedInputToken",
              "type": "address"
            },
            {
              "internalType": "uint256",
              "name": "expectedInputAmount",
              "type": "uint256"
            },
            {
              "internalType": "address",
              "name": "expectedOutputToken",
              "type": "address"
            },
            {
              "internalType": "uint256",
              "name": "expectedOutputAmount",
              "type": "uint256"
            },
            {
              "internalType": "bool",
              "name": "isDeterministic",
              "type": "bool"
            }
          ],
          "internalType": "struct PreviewAction",
          "name": "",
          "type": "tuple"
        },
        {
          "internalType": "bytes",
          "name": "",
          "type": "bytes"
        }
      ],
      "stateMutability": "view",
      "type": "function"
    },
    {
      "inputs": [
        {
          "internalType": "address",
          "name": "termAuctionBidLocker",
          "type": "address"
        },
        {
          "components": [
            {
              "internalType": "bytes32",
              "name": "id",
              "type": "bytes32"
            },
            {
              "internalType": "address",
              "name": "bidder",
              "type": "address"
            },
            {
              "internalType": "bytes32",
              "name": "bidPriceHash",
              "type": "bytes32"
            },
            {
              "internalType": "uint256",
              "name": "amount",
              "type": "uint256"
            },
            {
              "internalType": "uint256[]",
              "name": "collateralAmounts",
              "type": "uint256[]"
            },
            {
              "internalType": "address",
              "name": "purchaseToken",
              "type": "address"
            },
            {
              "internalType": "address[]",
              "name": "collateralTokens",
              "type": "address[]"
            }
          ],
          "internalType": "struct TermAuctionBidSubmission[]",
          "name": "bidSubmissions",
          "type": "tuple[]"
        },
        {
          "internalType": "bool",
          "name": "usePermit2",
          "type": "bool"
        }
      ],
      "name": "lockBids",
      "outputs": [],
      "stateMutability": "nonpayable",
      "type": "function"
    },
    {
      "inputs": [
        {
          "internalType": "address",
          "name": "termAuctionBidLocker",
          "type": "address"
        },
        {
          "components": [
            {
              "internalType": "bytes32",
              "name": "id",
              "type": "bytes32"
            },
            {
              "internalType": "address",
              "name": "bidder",
              "type": "address"
            },
            {
              "internalType": "bytes32",
              "name": "bidPriceHash",
              "type": "bytes32"
            },
            {
              "internalType": "uint256",
              "name": "amount",
              "type": "uint256"
            },
            {
              "internalType": "uint256[]",
              "name": "collateralAmounts",
              "type": "uint256[]"
            },
            {
              "internalType": "address",
              "name": "purchaseToken",
              "type": "address"
            },
            {
              "internalType": "address[]",
              "name": "collateralTokens",
              "type": "address[]"
            }
          ],
          "internalType": "struct TermAuctionBidSubmission[]",
          "name": "bidSubmissions",
          "type": "tuple[]"
        },
        {
          "internalType": "address",
          "name": "referralAddress",
          "type": "address"
        },
        {
          "internalType": "bool",
          "name": "usePermit2",
          "type": "bool"
        }
      ],
      "name": "lockBidsWithReferral",
      "outputs": [],
      "stateMutability": "nonpayable",
      "type": "function"
    },
    {
      "inputs": [
        {
          "internalType": "address",
          "name": "termAuctionOfferLocker",
          "type": "address"
        },
        {
          "components": [
            {
              "internalType": "bytes32",
              "name": "id",
              "type": "bytes32"
            },
            {
              "internalType": "address",
              "name": "offeror",
              "type": "address"
            },
            {
              "internalType": "bytes32",
              "name": "offerPriceHash",
              "type": "bytes32"
            },
            {
              "internalType": "uint256",
              "name": "amount",
              "type": "uint256"
            },
            {
              "internalType": "address",
              "name": "purchaseToken",
              "type": "address"
            }
          ],
          "internalType": "struct TermAuctionOfferSubmission[]",
          "name": "offerSubmissions",
          "type": "tuple[]"
        },
        {
          "internalType": "bool",
          "name": "usePermit2",
          "type": "bool"
        }
      ],
      "name": "lockOffers",
      "outputs": [],
      "stateMutability": "nonpayable",
      "type": "function"
    },
    {
      "inputs": [
        {
          "internalType": "address",
          "name": "termAuctionOfferLocker",
          "type": "address"
        },
        {
          "components": [
            {
              "internalType": "bytes32",
              "name": "id",
              "type": "bytes32"
            },
            {
              "internalType": "address",
              "name": "offeror",
              "type": "address"
            },
            {
              "internalType": "bytes32",
              "name": "offerPriceHash",
              "type": "bytes32"
            },
            {
              "internalType": "uint256",
              "name": "amount",
              "type": "uint256"
            },
            {
              "internalType": "address",
              "name": "purchaseToken",
              "type": "address"
            }
          ],
          "internalType": "struct TermAuctionOfferSubmission[]",
          "name": "offerSubmissions",
          "type": "tuple[]"
        },
        {
          "internalType": "address",
          "name": "referralAddress",
          "type": "address"
        },
        {
          "internalType": "bool",
          "name": "usePermit2",
          "type": "bool"
        }
      ],
      "name": "lockOffersWithReferral",
      "outputs": [],
      "stateMutability": "nonpayable",
      "type": "function"
    },
    {
      "inputs": [
        {
          "internalType": "address",
          "name": "termRepoServicer",
          "type": "address"
        },
        {
          "internalType": "uint256",
          "name": "repoTokenAmount",
          "type": "uint256"
        },
        {
          "internalType": "uint256[]",
          "name": "collateralAmounts",
          "type": "uint256[]"
        },
        {
          "internalType": "bool",
          "name": "usePermit2",
          "type": "bool"
        }
      ],
      "name": "mintOpenExposure",
      "outputs": [],
      "stateMutability": "nonpayable",
      "type": "function"
    },
    {
      "inputs": [
        {
          "internalType": "bytes4",
          "name": "",
          "type": "bytes4"
        }
      ],
      "name": "previewMapping",
      "outputs": [
        {
          "internalType": "bytes4",
          "name": "",
          "type": "bytes4"
        }
      ],
      "stateMutability": "view",
      "type": "function"
    },
    {
      "inputs": [
        {
          "components": [
            {
              "internalType": "address",
              "name": "user",
              "type": "address"
            },
            {
              "internalType": "address",
              "name": "inputToken",
              "type": "address"
            },
            {
              "internalType": "uint256",
              "name": "maxInputAmount",
              "type": "uint256"
            },
            {
              "internalType": "address",
              "name": "outputToken",
              "type": "address"
            },
            {
              "internalType": "uint256",
              "name": "minOutputAmount",
              "type": "uint256"
            },
            {
              "internalType": "address",
              "name": "targetAddress",
              "type": "address"
            },
            {
              "internalType": "bytes",
              "name": "additionalCalldata",
              "type": "bytes"
            }
          ],
          "internalType": "struct ActionHookInput",
          "name": "actionHookInput",
          "type": "tuple"
        }
      ],
      "name": "previewSubmitRepurchasePayment",
      "outputs": [
        {
          "components": [
            {
              "internalType": "address",
              "name": "expectedInputToken",
              "type": "address"
            },
            {
              "internalType": "uint256",
              "name": "expectedInputAmount",
              "type": "uint256"
            },
            {
              "internalType": "address",
              "name": "expectedOutputToken",
              "type": "address"
            },
            {
              "internalType": "uint256",
              "name": "expectedOutputAmount",
              "type": "uint256"
            },
            {
              "internalType": "bool",
              "name": "isDeterministic",
              "type": "bool"
            }
          ],
          "internalType": "struct PreviewAction",
          "name": "",
          "type": "tuple"
        }
      ],
      "stateMutability": "view",
      "type": "function"
    },
    {
      "inputs": [
        {
          "internalType": "address",
          "name": "termRepoServicer",
          "type": "address"
        },
        {
          "internalType": "address",
          "name": "redeemer",
          "type": "address"
        },
        {
          "internalType": "uint256",
          "name": "amountToRedeem",
          "type": "uint256"
        }
      ],
      "name": "redeemTermRepoTokens",
      "outputs": [],
      "stateMutability": "nonpayable",
      "type": "function"
    },
    {
      "inputs": [
        {
          "internalType": "address",
          "name": "termRepoServicer",
          "type": "address"
        },
        {
          "internalType": "uint256",
          "name": "amount",
          "type": "uint256"
        },
        {
          "internalType": "bool",
          "name": "usePermit2",
          "type": "bool"
        }
      ],
      "name": "submitRepurchasePayment",
      "outputs": [],
      "stateMutability": "nonpayable",
      "type": "function"
    },
    {
      "inputs": [
        {
          "components": [
            {
              "internalType": "address",
              "name": "user",
              "type": "address"
            },
            {
              "internalType": "address",
              "name": "inputToken",
              "type": "address"
            },
            {
              "internalType": "uint256",
              "name": "maxInputAmount",
              "type": "uint256"
            },
            {
              "internalType": "address",
              "name": "outputToken",
              "type": "address"
            },
            {
              "internalType": "uint256",
              "name": "minOutputAmount",
              "type": "uint256"
            },
            {
              "internalType": "address",
              "name": "targetAddress",
              "type": "address"
            },
            {
              "internalType": "bytes",
              "name": "additionalCalldata",
              "type": "bytes"
            }
          ],
          "internalType": "struct ActionHookInput",
          "name": "input",
          "type": "tuple"
        }
      ],
      "name": "submitRepurchasePaymentHook",
      "outputs": [],
      "stateMutability": "nonpayable",
      "type": "function"
    },
    {
      "inputs": [
        {
          "internalType": "address",
          "name": "termAuctionBidLocker",
          "type": "address"
        },
        {
          "internalType": "bytes32[]",
          "name": "bidIds",
          "type": "bytes32[]"
        }
      ],
      "name": "unlockBids",
      "outputs": [],
      "stateMutability": "nonpayable",
      "type": "function"
    },
    {
      "inputs": [
        {
          "internalType": "address",
          "name": "termAuctionOfferLocker",
          "type": "address"
        },
        {
          "internalType": "bytes32[]",
          "name": "offerIds",
          "type": "bytes32[]"
        }
      ],
      "name": "unlockOffers",
      "outputs": [],
      "stateMutability": "nonpayable",
      "type": "function"
    }
  ],
  "bytecode": "0x6080806040523461005c57600160008181556308882e7f60e11b90526020527ffe48346733098a759bd4e214e346cbadcfc0f66966f7bdbc89c189f86a315205805463ffffffff191663bd18c3e717905561410e90816100628239f35b600080fdfe608080604052600436101561001357600080fd5b600090813560e01c90816311105cfe14612d035750806319e5500314612b5a57806321f09a2014612aee57806323ef922814612a975780632acd7a0b14612a4157806331788a41146129ea57806338771c3e1461298b5780633c1e8f88146128015780633cefb1c1146122885780633f5a245214611b0e57806367004d8214611a6b5780639ef72eff146117ef578063adde19b71461129d578063bd18c3e71461105f578063c3246edc1461101b578063ce99c05614610a45578063d91ab0d9146109b35763ed29feff146100e757600080fd5b346109b05760803660031901126109b0576101006131b2565b6024356001600160401b0381116109ac5761011f903690600401613226565b926101286131de565b610130613217565b92610139613a98565b61014b6001600160a01b038616613e51565b604051631abd3be960e11b81526020816004816001600160a01b038a165afa90811561093f57600491602091869161098f575b50604051632e25a20760e11b815292839182906001600160a01b03165afa90811561093f578491610960575b506101b36135c0565b50861561095a576101d16101c78884613615565b60c0810190613652565b90505b6101dd8161369e565b9515610749579095849391905b8860ff861610156104845761020360ff86168a86613630565b60405163ba98b5ef60e01b8152903560048201529286846024816001600160a01b0386165afa938415610479578794610455575b506080840151151598875b6102536101c760ff8a168e8a613630565b905060ff8216101561043e578a15610420578b888860a0890161027a60ff86168251613884565b511580610404575b6103f0576102ae6102a461029a60ff86168786613630565b6080810190613652565b60ff881691613577565b356102bd60ff87168351613884565b5110156103fd576102fd906102f66102e96102df61029a60ff88168988613630565b60ff8a1691613577565b359160ff88169051613884565b519061359d565b925b83156103f0576103266101c7610335936103309360ff61031e89613e1e565b971691613630565b60ff871691613577565b613466565b906e22d473030f116ddee9f6b43ac78ba33b156103ec57604051631b63c28b60e11b8152918c918391829161037091903033600486016134e2565b0381836e22d473030f116ddee9f6b43ac78ba35af180156103e157908b916103c9575b5050906103b16103c4926103ab8d60ff851690613884565b51613898565b6103be60ff83168d613884565b526136d0565b610242565b6103d2906132ce565b6103dd578938610393565b8980fd5b6040513d8d823e3d90fd5b8b80fd5b505050506103c4906136d0565b508b6102fd565b506104196102a461029a60ff86168786613630565b3515610282565b8b888861043761032661029a60ff85168685613630565b35926102ff565b5093509461044d9198506136d0565b9391966101ea565b6104729194503d8089833e61046a818361337f565b8101906136ee565b9238610237565b6040513d89823e3d90fd5b909350969194969593955b826106bc575b90869060405192839163cb63a04560e01b835285606484013360048601526060602486015252608483019060848760051b850101918a9060005b8981106105b9575050506001600160a01b039081166044850152908390039183918591165af180156105ae5761058c575b508061050f575b846001815580f35b845b60ff81168381101561057a57908161052c610538938a613884565b5161053d575b506136d0565b610511565b610574906105636103306105546101c7888c613615565b6001600160a01b039491613577565b6001600160a01b0388169116613c73565b38610532565b50505050505090508038808080610507565b6105a7903d8088833e61059f818361337f565b8101906138a5565b5038610500565b6040513d88823e3d90fd5b9294965092909450608319878203018352843560de198c3603018112156106b7578b0180358252906001600160a01b036105f5602084016131f4565b16602082015260408201356040820152606082013560608201526020610632610621608085018561391e565b60e0608086015260e085019161350c565b60a06001600160a01b036106478683016131f4565b169084015261065b60c0948581019061391e565b9390948183039101528281520191906000905b80821061069157505050602080600192960193019101918b9593918795936104cf565b909192602080600192838060a01b036106a9886131f4565b16815201940192019061066e565b600080fd5b9591949290825b8260ff8216101561073e57806106df60ff6106e993168b613884565b516106ee576136d0565b6106c3565b6107396103306107196107046101c78c8b613615565b6001600160a01b03939160ff87169190613577565b1661072760ff84168d613884565b51906001600160a01b038a1690613d31565b6136d0565b509092949195610495565b849197939692945081925b8460ff8516101561094a5761076d60ff85168688613630565b60405163ba98b5ef60e01b8152903560048201529783896024816001600160a01b0386165afa98891561093f578499610923575b506080890151151599845b6107bd6101c760ff89168a8c613630565b905060ff82161015610909576108a49088888d8f838e916000146108e257505060a0018c6107ef60ff86168351613884565b511590816108c3575b506108bb578c6108126102a461029a60ff86168785613630565b3561082160ff87168451613884565b5110156108b2576108436102a461029a6102f6938760ff610850981691613630565b359160ff86169051613884565b898c82156108a9576108716101c784926103b19660ff610897961691613630565b309133916001600160a01b0391610891916103309160ff8c169190613577565b16613de6565b6103ab60ff84168e613884565b6107ac565b505050506136d0565b50505087610850565b5050506136d0565b6108da915061029a610326918660ff871691613630565b35158d6107f8565b6108f992509061029a9160ff610903951691613630565b60ff851691613577565b35610850565b50939950936109199198506136d0565b9296979197610754565b6109389199503d8086833e61046a818361337f565b97386107a1565b6040513d86823e3d90fd5b909392509693949695909561048f565b836101d4565b610982915060203d602011610988575b61097a818361337f565b81019061348e565b386101aa565b503d610970565b6109a69150823d84116109885761097a818361337f565b3861017e565b8280fd5b80fd5b50346109b057806109c336613299565b916109cc613a98565b6001600160a01b0316916109df83613af4565b823b15610a4057610a0a9284928360405180968195829463d91ab0d960e01b84523360048501613555565b03925af18015610a3557610a21575b506001905580f35b610a2a906132ce565b6109b0578038610a19565b6040513d84823e3d90fd5b505050fd5b50346109b05760603660031901126109b057610a5f6131b2565b906024356001600160401b03811161101757610a7f903690600401613436565b9091610a89613208565b91610a92613a98565b610aa46001600160a01b038616613e51565b604051631abd3be960e11b8152946020866004816001600160a01b0385165afa958615610fef5760049495966020918591610ffa575b50604051632e25a20760e11b815295869182906001600160a01b03165afa938415610fef578394610fce575b50610b0f6139e1565b50829382158015600014610fc657610fb257610b2d60808801613466565b955b15610e5557835b8360ff82161015610cdf57610b4f60ff8216858a613a19565b6040516372e3a5b160e01b81529035600482015260e0816024816001600160a01b0388165afa9081156105ae578691610cb0575b5060808101511580610c97575b610bda576060610ba460ff8416878c613a19565b0135608082015110600014610c9057610bd49060806060610bc960ff8616898e613a19565b01359101519061359d565b80610be9575b50610be4906136d0565b610b36565b9095610bf482613e1e565b610c0d6080610c0760ff8b16898e613a19565b01613466565b906e22d473030f116ddee9f6b43ac78ba390813b15610c8c57918891610c4c9383604051809681958294631b63c28b60e11b84523033600486016134e2565b03925af1801561047957908791610c74575b5050610be491610c6d91613898565b9590610bda565b610c7d906132ce565b610c88578538610c5e565b8580fd5b8880fd5b5084610bd4565b506060610ca860ff8416878c613a19565b013515610b90565b610cd2915060e03d60e011610cd8575b610cca818361337f565b810190613a29565b38610b83565b503d610cc0565b50949392955b831515938480610e43575b610e26575b509186916040519384926348ce1bbb60e01b84528060648501336004870152606060248701525260848401919060005b818110610dbc575050600060448501525082900390829084906001600160a01b03165af18015610db157610d97575b5080610d85575b610d68575b826001815580f35b610d7e916001600160a01b039081169116613c73565b3880610d60565b506001600160a01b0381161515610d5b565b610daa903d8087833e61059f818361337f565b5038610d54565b6040513d87823e3d90fd5b8235845293955090935091906001906001600160a01b03610ddf602087016131f4565b16602082015260408501356040820152606085013560608201526080828060a01b03610e0c8288016131f4565b169082015260a08091019401910190899492869492610d25565b610e3d906001600160a01b03888116908816613d31565b38610cf5565b506001600160a01b0386161515610cf0565b839691939492945b8560ff82161015610fa757610e7660ff82168785613a19565b6040516372e3a5b160e01b81529035600482015260e0816024816001600160a01b038a165afa908115610f9c578991610f7d575b50608080910180511580610f64575b610f59576060610ecd60ff85168a88613a19565b0135815110600014610f5157610ef7906060610eed60ff86168b89613a19565b013590519061359d565b905b8782610f11575b505050610f0c906136d0565b610e5d565b95610f438385610f39610f489695610c07610f0c999c60ff60018060a01b039516908d613a19565b1630903390613de6565b613898565b93903887610f00565b508890610ef9565b5050610f0c906136d0565b506060610f7560ff85168a88613a19565b013515610eb9565b610f96915060e03d60e011610cd857610cca818361337f565b38610eaa565b6040513d8b823e3d90fd5b509493919290610ce5565b634e487b7160e01b84526032600452602484fd5b508395610b2f565b610fe891945060203d6020116109885761097a818361337f565b9238610b06565b6040513d85823e3d90fd5b6110119150823d84116109885761097a818361337f565b38610ada565b5080fd5b50346109b05760203660031901126109b0576001600160e01b0319600435818116908190036106b757826040916020945260018452205460e01b9060405191168152f35b50346109b05761106e36613181565b90611077613953565b5061108460a08301613466565b9061108e83613466565b6040516354ae26b160e11b8152909390926020926001600160a01b03918216908486600481855afa958615611259578196611266575b50604051632762697d60e01b815296831660048801528487602481855afa96871561125957819761122a575b50600460608501928661110285613466565b9160405193848092630f7a077160e21b82525afa918215610fef57879186918594611208575b506040516320db25d560e01b815290821660048201529283916024918391165afa9182156111fc57916111cf575b50156111bd576111668291613466565b169316928084146111ab5760a094608093604051956111848761332d565b8652850152604084015201356060820152600160808201526111a960405180926133bd565bf35b604051635542f09960e01b8152600490fd5b604051633a001e0560e11b8152600490fd5b90508481813d83116111f5575b6111e6818361337f565b810103126106b7575138611156565b503d6111dc565b604051903d90823e3d90fd5b602491945061122390843d86116109885761097a818361337f565b9390611128565b9096508481813d8311611252575b611242818361337f565b810103126106b7575195386110f0565b503d611238565b50604051903d90823e3d90fd5b9095508481813d8311611296575b61127e818361337f565b81010312610c885761128f9061347a565b94386110c4565b503d611274565b50346109b05760803660031901126109b0576112b76131b2565b6024356001600160401b0381116109ac576112d6903690600401613436565b9190926112e16131de565b926112ea613217565b926112f3613a98565b6113056001600160a01b038216613e51565b604051631abd3be960e11b81526020816004816001600160a01b0386165afa90811561093f5760049160209186916117d2575b50604051632e25a20760e11b815292839182906001600160a01b03165afa90811561093f5784916117b3575b5061136d6139e1565b508394831580156000146117ab576117975761138b60808901613466565b905b1561165957845b8460ff82161015611530576113ad60ff8216868b613a19565b6040516372e3a5b160e01b81529035600482015260e0816024816001600160a01b0389165afa90811561047957906080918891611511575b5001805115806114f8575b61142a576060908161140660ff8516898e613a19565b01358151106000146114f05761142491610eed60ff8516898e613a19565b80611439575b50611434906136d0565b611394565b9096876114596080610c078d8a60ff61145189613e1e565b961691613a19565b906e22d473030f116ddee9f6b43ac78ba33b15610c8c57604051631b63c28b60e11b81529189918391829161149491903033600486016134e2565b0381836e22d473030f116ddee9f6b43ac78ba35af180156114e5579088916114cd575b5050611434916114c691613898565b969061142a565b6114d6906132ce565b6114e15786386114b7565b8680fd5b6040513d8a823e3d90fd5b505085611424565b50606061150960ff8416888d613a19565b0135156113f0565b61152a915060e03d60e011610cd857610cca818361337f565b386113e5565b5094939690955b841515948580611647575b61162a575b5092909187926040519485936348ce1bbb60e01b855260648501903360048701528060609260606024890152526084860193916000905b8282106115c1575050506001600160a01b03918216604486015250908390039183918591165af18015610db157610d97575080610d8557610d6857826001815580f35b92600192959194969850809750358152818060a01b036115e3602089016131f4565b166020820152604087013560408201528287013583820152818060a01b0361160d608089016131f4565b16608082015260a080910196019201928795938c9795939261157e565b611641906001600160a01b03898116908916613d31565b38611547565b506001600160a01b0387161515611542565b8492979593945b8560ff821610156117885761167960ff82168789613a19565b6040516372e3a5b160e01b81529035600482015260e0816024816001600160a01b038e165afa908115610db1578591611769575b5060808101511580611750575b61174657606090816116d060ff85168a8c613a19565b013560808201511060001461173e5760806116f392610bc960ff86168b8d613a19565b87878261170c575b505050611707906136d0565b611660565b96610f438385610f396080610c0761173598976117079a9e60ff60018060a01b03961691613a19565b949087876116fb565b5050836116f3565b50611707906136d0565b50606061176160ff8416898b613a19565b0135156116ba565b611782915060e03d60e011610cd857610cca818361337f565b386116ad565b50949095969196939293611537565b634e487b7160e01b85526032600452602485fd5b50849061138d565b6117cc915060203d6020116109885761097a818361337f565b38611364565b6117e99150823d84116109885761097a818361337f565b38611338565b50346109b0576101003660031901126109b05761180a6131b2565b6118126131c8565b6001600160a01b039160643583811692908390036106b75760a435946001600160e01b0319808716918288036106b75760c435918783168093036106b75760e435956001600160401b0387116109ac57366023880112156109ac5786600401359461187c866133a2565b9561188a604051978861337f565b8087526020983660248383010111610c885781869260248c9301838b0137880101526118b4613953565b50835260018752604083205460e01b91821615611a59578261196c9281926119259a8c80604051936118e585613312565b169a8b8452168b8301526044356040830152606082015260843560808201528660a08201528760c08201526040519a8b918b83019384526024830161397e565b0399611939601f199b8c810183528261337f565b5190305afa3d15611a51573d9061194f826133a2565b9161195d604051938461337f565b82523d848984013e5b30614075565b9060a0828051810103126109b05750611a3093611a4d9693611a3c999693611a24936040519a61199b8c61332d565b8b6119a788840161347a565b80825282604085015191828b8501526119c26060870161347a565b9384604082015260806119e160a0828a0151998a6060860152016136e1565b910152604051986119f18a613312565b895216898801526040870152166060850152608084015260a083015260c08201526040519586938401526024830161397e565b0390810183528261337f565b604051938480946133bd565b60c060a084015260c08301906133f6565b0390f35b606090611966565b604051631416e68f60e01b8152600490fd5b50346109b05760803660031901126109b05780611a866131b2565b6060366023190112611b0b57611a9a613a98565b6001600160a01b0390811690611aaf82613af4565b813b15611b075760405163338026c160e11b8152336004820152918391839160849183918591611add6131c8565b166024840152604435604484015260643560648401525af18015610a3557610a2157506001905580f35b5050fd5b50fd5b50346109b05760603660031901126109b057611b286131b2565b6024356001600160401b0381116109ac57611b47903690600401613226565b92611b50613208565b91611b59613a98565b611b6b6001600160a01b038516613e51565b604051631abd3be960e11b81526020816004816001600160a01b0389165afa908115610fef5760049291602091859161226b575b50604051632e25a20760e11b815293849182906001600160a01b03165afa918215610fef57839261224a575b50611bd46135c0565b50851561224357611be86101c78783613615565b9050915b611bf58361369e565b941561209b57919483925b8760ff85161015611e6457611c1960ff85168985613630565b60405163ba98b5ef60e01b8152903560048201529185836024816001600160a01b0385165afa9283156105ae578693611e48575b506080830151151597865b611c696101c760ff89168d89613630565b905060ff82161015611e30578915611e0c578660a086018c611c8f60ff85168351613884565b51159081611de3575b50611dd8578c611cb261032661029a60ff8616848d613630565b35611cc160ff86168451613884565b511015611dcf57611ce361032661029a6102f69360ff611cf09716908d613630565b359160ff85169051613884565b878c8215611dc3576103306103266101c7611d199360ff611d1088613e1e565b9616908d613630565b906e22d473030f116ddee9f6b43ac78ba33b15611dbf57604051631b63c28b60e11b8152918b9183918291611d5491903033600486016134e2565b0381836e22d473030f116ddee9f6b43ac78ba35af18015611db457908a91611da0575b505090611d8e611d9b926103ab60ff84168d613884565b6103be60ff83168c613884565b611c58565b611da9906132ce565b610c8c578838611d77565b6040513d8c823e3d90fd5b8a80fd5b505050611d9b906136d0565b50505087611cf0565b5050611d9b906136d0565b611e04915061029a611dfa9160ff8616908c613630565b60ff861691613577565b35158d611c98565b611e2a611e2061029a60ff8a168e8a613630565b60ff841691613577565b35611cf0565b5094909750611e409192506136d0565b929590611c00565b611e5d9193503d8088833e61046a818361337f565b9138611c4d565b93959250959093955b81612021575b85604051809263cb63a04560e01b8252846064830133600485015260606024850152526084820160848660051b84010190899060005b888110611f22575050600060448501525082900390829084906001600160a01b03165af180156105ae57611f08575b5080611ee657846001815580f35b845b60ff81168381101561057a57908161052c611f03938a613884565b611ee8565b611f1b903d8088833e61059f818361337f565b5038611ed8565b9291945092945060831986820301835260de198a360301843512156106b75783358a0180358252906001600160a01b03611f5e602084016131f4565b16602082015260408201356040820152606082013560608201526020611f9d608060e0611f8d8287018761391e565b91909286015260e085019161350c565b60a06001600160a01b03611fb28683016131f4565b1690840152611fc660c0948581019061391e565b9390948183039101528281520191906000905b808210611ffb57505050602080600192950193019101918593918b9593611ea9565b909192602080600192838060a01b03612013886131f4565b168152019401920190611fd9565b959194805b60ff81168781101561209157908682856120436120509589613884565b51612055575050506136d0565b612026565b8161206f6103306105546101c76120779561208998613615565b169188613884565b51906001600160a01b03891690613d31565b8638856108bb565b5050949195611e73565b91959092909181905b8360ff84161015612237576120bd60ff84168587613630565b60405163ba98b5ef60e01b8152903560048201529682886024816001600160a01b0385165afa978815610fef57839861221b575b506080880151151598835b61210d6101c760ff8816898b613630565b905060ff82161015612202576121ba908b156121e757878760a08d018b61213860ff86168351613884565b511590816121c8575b506108bb578b61215b6102a461029a60ff86168785613630565b3561216a60ff87168451613884565b5110156121bf576108436102a461029a6102f6938760ff61218c981691613630565b888b82156108a9576108716101c78492611d8e9660ff6121ad961691613630565b6103ab60ff84168d613884565b6120fc565b5050508661218c565b6121df915061029a610326918660ff871691613630565b35158c612141565b876121fc6108f961029a60ff8b16848e613630565b3561218c565b5093909750612213919298506136d0565b9196906120a4565b6122309198503d8085833e61046a818361337f565b96386120f1565b93949692915094611e6d565b8291611bec565b61226491925060203d6020116109885761097a818361337f565b9038611bcb565b6122829150823d84116109885761097a818361337f565b38611b9f565b50346109b05760803660031901126109b0576122a26131b2565b60248035916044356001600160401b0381116127fd576122c6903690600401613226565b6122d1949194613217565b906122da613a98565b6001600160a01b03938416916122ef83613af4565b60405190632e25a20760e11b82526020978883600481885afa928315611db4578a936127de575b50604051630f7a077160e21b8152918983600481895afa9283156103e1578b936127bf575b50908a91825b86811061268b575050853b156110175781878a612384604051948593849363c002bbdd60e01b85523360048601528401526060604484015289606484019161350c565b0381838a5af18015610a3557612677575b505b8381106125f85750505050604051631b23543760e01b81528581600481855afa80156104795787906125c9575b6123d09150429061359d565b91604051926123de846132f7565b8352604051926123ed846132f7565b6301da9c00845287604051612401816132f7565b525190670de0b6b3a764000093848302928084048614901517156125b6575180156125a15760405192612433846132f7565b04825260405163fa19d0ed60e01b8152918783600481875afa8981156111fc578994819261256b575b5083876124946124cd969560049a956124b8956040519161247c836132f7565b825260405161248a816132f7565b5251905190614062565b04604051906124a2826132f7565b81528c6040516124b1816132f7565b5251614062565b806040516124c5816132f7565b52049061359d565b9160405193848092632e54273760e11b82525afa9182156105ae578692612531575b5061252a946125166125249260405196879363a9059cbb60e01b90850152339084016134ad565b03601f19810185528461337f565b16613ffa565b6001815580f35b9091508481813d8311612564575b612549818361337f565b81010312610c8857518281168103610c88579061252a6124ef565b503d61253f565b9392948092508491503d831161259a575b612586818361337f565b810103126106b7579051879290898361245c565b503d61257c565b86634e487b7160e01b60005260126004526000fd5b634e487b7160e01b895260116004528689fd5b508581813d83116125f1575b6125df818361337f565b810103126106b7576123d090516123c4565b503d6125d5565b60405163172c48c760e01b8152600481018290529089828a81868c165afa9182156103e1578b9261263c575b50612636600192898087169116613c73565b01612397565b91508982813d8311612670575b612653818361337f565b81010312611dbf5761263661266960019361347a565b9250612624565b503d612649565b612680906132ce565b610c8c578838612395565b909192506040519063172c48c760e01b82528060048301528b828c818d89165afa9182156127b4578d92612779575b506126c6818886613577565b35918a841561275d57508d6126da84613e1e565b6e22d473030f116ddee9f6b43ac78ba3803b156109ac578383916127179383604051809681958294631b63c28b60e11b84523033600486016134e2565b03925af18015610a3557612745575b505060019261273b915b8c808a169116613d31565b01908b9291612341565b61274e906132ce565b612759578d38612726565b8d80fd5b9261273b9161277482600196309033908516613de6565b612730565b9091508b81813d83116127ad575b612791818361337f565b810103126127a9576127a29061347a565b90386126ba565b8c80fd5b503d612787565b6040513d8f823e3d90fd5b6127d79193508a3d8c116109885761097a818361337f565b913861233b565b6127f6919350893d8b116109885761097a818361337f565b9138612316565b8480fd5b50346109b05760803660031901126109b05761281b6131b2565b6128236131c8565b908260443591612831613217565b9361283a613a98565b6001600160a01b039182169161284f83613af4565b604051632e25a20760e11b815295602087600481875afa968715610db157859761296a575b50156129575761288385613e1e565b6e22d473030f116ddee9f6b43ac78ba3803b15610c88578386916128c09383604051809681958294631b63c28b60e11b84523033600486016134e2565b03925af1908115610db1578591612943575b50505b8082169516936128e6818688613d31565b823b1561293f5761291192849283604051809681958294633e0efe0360e01b84523360048501613555565b03925af18015610a355761292b575b505061252a91613c73565b612934906132ce565b6109ac578238612920565b8380fd5b61294c906132ce565b61293f5783386128d2565b612965853033848616613de6565b6128d5565b61298491975060203d6020116109885761097a818361337f565b9538612874565b50346109b05760403660031901126109b057806129a66131b2565b6129ae613a98565b6001600160a01b03166129c081613af4565b803b15611b0b57816040518092631c3b8e1f60e11b8252818381610a0a60243533600484016134ad565b50346109b057806129fa36613256565b91612a03613a98565b6001600160a01b031691612a1683613e51565b823b15610a4057610a0a928492836040518096819582946331788a4160e01b84523360048501613530565b50346109b05780612a5136613299565b91612a5a613a98565b6001600160a01b031691612a6d83613af4565b823b15610a4057610a0a92849283604051809681958294637e237e8960e01b8452600484016134ad565b50346109b05780612aa736613256565b91612ab0613a98565b6001600160a01b031691612ac383613e51565b823b15610a4057610a0a9284928360405180968195829463047df24560e31b84523360048501613530565b50346109b05760203660031901126109b05780612b096131b2565b612b11613a98565b6001600160a01b0316612b2381613af4565b803b15611b0b5781809160246040518094819363010f84d160e51b83523360048401525af18015610a3557610a2157506001905580f35b50346109b05760603660031901126109b057612b746131b2565b6024359082612b81613208565b92612b8a613a98565b6001600160a01b0392831692612b9f84613af4565b604051632e25a20760e11b815260208082600481895afa918215610db1578592612ce4575b506040516354ae26b160e11b815281816004818a5afa9081156105ae5784928792612cac575b5050169515612c9b57612bfc83613e1e565b6e22d473030f116ddee9f6b43ac78ba3803b15610c8857878691612c399383604051809681958294631b63c28b60e11b84523033600486016134e2565b03925af1908115610db1578591612c87575b50505b1692612c5b828587613d31565b803b156109ac576040516210220f60eb1b815291839183918290849082906129119033600484016134ad565b612c90906132ce565b61293f578338612c4b565b612ca783303389613de6565b612c4e565b8193508092503d8311612cdd575b612cc4818361337f565b810103126127fd57612cd6839161347a565b3880612bea565b503d612cba565b81612cfc9293503d84116109885761097a818361337f565b9038612bc4565b90503461101757612d1336613181565b90612d1d82613466565b7fc9e4fb8bffaf71b56abf2a5032f2ea641e97267f8c0d9bcf66c86998c650d62a546001600160a01b03929190831680151591849083613175575b5050501561313d5750612d69613a98565b612d7282613466565b602091612d80838501613466565b90604085013594612d9360608201613466565b946080820135938860c0840135601e198536030181121561101757840180356001600160401b0381116109ac5784820191813603831361293f57859181010312611017573593841515850361101757612def60a0879201613466565b1691612dfa83613af4565b604051630f7a077160e21b80825291908581600481885afa90811561093f57612e48899288928d9791613120575b508d60405194858094819363b7d5820b60e01b9b8c8452600484016134c8565b0392165afa9081156127b4578d916130f3575b508089116130d557506040516354ae26b160e11b81528c95949392918582600481885afa9182156104795789979261309b575b508616958691160361308957604051632e25a20760e11b81528c908581600481885afa908115610a355789929161306c575b50169a612ece818d88613d31565b8c843b156109b0576040516210220f60eb1b81529182908190612ef5908e600484016134ad565b038183885af180156127b457613055575b5090838c9260046040518096819382525afa8015610a355789888c93612f4496889694613036575b50604051968795869485938452600484016134c8565b0392165afa918215611db4578a92613008575b5050612ff6578796612f6891613c73565b15612fe15750612f7790613e1e565b916e22d473030f116ddee9f6b43ac78ba3803b156127fd57612fb59385809460405196879586948593631b63c28b60e11b85523090600486016134e2565b03925af18015610a3557612fcd575b50506001815580f35b612fd6906132ce565b6109b0578038612fc4565b612ff19450909230929116613de6565b61252a565b6040516310584a1d60e21b8152600490fd5b90809250813d831161302f575b61301f818361337f565b810103126106b757513880612f57565b503d613015565b61304e919450863d88116109885761097a818361337f565b9238612f2e565b9b613063859d9392936132ce565b9b919091612f06565b6130839150863d88116109885761097a818361337f565b38612ec0565b604051632559713560e21b8152600490fd5b965090508486813d81116130ce575b6130b4818361337f565b810103126127a957876130c7819761347a565b9190612e8e565b503d6130aa565b88604491604051916307d2092d60e21b835260048301526024820152fd5b90508581813d8311613119575b61310a818361337f565b810103126127a9575138612e5b565b503d613100565b6131379150833d85116109885761097a818361337f565b38612e28565b62461bcd60e51b81526020600482015260136024820152722ab730baba3437b934bd32b21031b0b63632b960691b6044820152606490fd5b16149050388381612d58565b600319906020818301126106b757600435916001600160401b0383116106b7578260e0920301126106b75760040190565b600435906001600160a01b03821682036106b757565b602435906001600160a01b03821682036106b757565b604435906001600160a01b03821682036106b757565b35906001600160a01b03821682036106b757565b6044359081151582036106b757565b6064359081151582036106b757565b9181601f840112156106b7578235916001600160401b0383116106b7576020808501948460051b0101116106b757565b9060406003198301126106b7576004356001600160a01b03811681036106b75791602435906001600160401b0382116106b75761329591600401613226565b9091565b60609060031901126106b7576001600160a01b039060043582811681036106b7579160243590811681036106b7579060443590565b6001600160401b0381116132e157604052565b634e487b7160e01b600052604160045260246000fd5b602081019081106001600160401b038211176132e157604052565b60e081019081106001600160401b038211176132e157604052565b60a081019081106001600160401b038211176132e157604052565b61016081019081106001600160401b038211176132e157604052565b608081019081106001600160401b038211176132e157604052565b601f909101601f19168101906001600160401b038211908210176132e157604052565b6001600160401b0381116132e157601f01601f191660200190565b6080809160018060a01b038082511685526020820151602086015260408201511660408501526060810151606085015201511515910152565b919082519283825260005b848110613422575050826000602080949584010152601f8019910116010190565b602081830181015184830182015201613401565b9181601f840112156106b7578235916001600160401b0383116106b75760208085019460a085020101116106b757565b356001600160a01b03811681036106b75790565b51906001600160a01b03821682036106b757565b908160209103126106b757516001600160a01b03811681036106b75790565b6001600160a01b039091168152602081019190915260400190565b6001600160a01b0391821681529116602082015260400190565b6001600160a01b039182168152918116602083015291821660408201529116606082015260800190565b81835290916001600160fb1b0383116106b75760209260051b809284830137010190565b6001600160a01b0390911681526040602082018190526135529391019161350c565b90565b6001600160a01b03918216815291166020820152604081019190915260600190565b91908110156135875760051b0190565b634e487b7160e01b600052603260045260246000fd5b919082039182116135aa57565b634e487b7160e01b600052601160045260246000fd5b604051906135cd82613348565b81610140600091828152826020820152826040820152826060820152826080820152606060a08201528260c0820152606060e082015282610100820152826101208201520152565b90156135875780359060de19813603018212156106b7570190565b91908110156135875760051b8101359060de19813603018212156106b7570190565b903590601e19813603018212156106b757018035906001600160401b0382116106b757602001918160051b360383136106b757565b6001600160401b0381116132e15760051b60200190565b906136a882613687565b6136b5604051918261337f565b82815280926136c6601f1991613687565b0190602036910137565b60ff1660ff81146135aa5760010190565b519081151582036106b757565b9060209081838203126106b75782516001600160401b03938482116106b7570191610160838303126106b7576040519361372785613348565b8351855261373682850161347a565b8286015260408401516040860152606084015160608601526080840151608086015260a08401518181116106b757840183601f820112156106b75780519061377d82613687565b9161378b604051938461337f565b808352848084019160051b830101918683116106b75785809101915b838310613874575050505060a08601526137c360c0850161347a565b60c086015260e08401519081116106b75783019180601f840112156106b75782516137ed81613687565b936137fb604051958661337f565b818552838086019260051b8201019283116106b7578301905b82821061385d575050505060e08301526101006138328183016136e1565b9083015261012061384481830161347a565b908301526138566101408092016136e1565b9082015290565b8380916138698461347a565b815201910190613814565b82518152918101918691016137a7565b80518210156135875760209160051b010190565b919082018092116135aa57565b60209081818403126106b7578051906001600160401b0382116106b757019180601f840112156106b75782516138da81613687565b936138e8604051958661337f565b818552838086019260051b8201019283116106b7578301905b82821061390f575050505090565b81518152908301908301613901565b9035601e19823603018112156106b7570160208101919035906001600160401b0382116106b7578160051b360383136106b757565b604051906139608261332d565b60006080838281528260208201528260408201528260608201520152565b61010060c0613552936020845260018060a01b0380825116602086015280602083015116604086015260408201516060860152806060830151166080860152608082015160a086015260a0820151168285015201519160e08082015201906133f6565b604051906139ee82613312565b8160c06000918281528260208201528260408201528260608201528260808201528260a08201520152565b91908110156135875760a0020190565b908160e09103126106b757613a9060c060405192613a4684613312565b80518452613a566020820161347a565b6020850152604081015160408501526060810151606085015260808101516080850152613a8560a0820161347a565b60a0850152016136e1565b60c082015290565b600260005414613aa9576002600055565b604051633ee5aeb560e01b8152600490fd5b6001600160a01b031660009081527f2a2e13707d6b40952f0aec05e2811137753b06b56d55208636050ec9ee68dd7d6020526040902090565b604080516325c3ed4760e01b815290916020916001600160a01b0391821691908381600481865afa908115613c3a57600091613c56575b501660ff613b3882613abb565b541615613c4557835163e7e4b8db60e01b8152600481018390528381602481855afa908115613c3a57600091613c05575b50159182613b8d575b50509050613b7d5750565b51633e69d7d560e21b8152600490fd5b8391925060248551809481936319afa63b60e11b835260048301525afa918215613bfa57600092613bc4575b505015803880613b72565b90809250813d8311613bf3575b613bdb818361337f565b810103126106b757613bec906136e1565b3880613bb9565b503d613bd1565b83513d6000823e3d90fd5b90508381813d8311613c33575b613c1c818361337f565b810103126106b757613c2d906136e1565b38613b69565b503d613c12565b85513d6000823e3d90fd5b8351638ebd687760e01b8152600490fd5b613c6d9150843d86116109885761097a818361337f565b38613b2b565b60405190602082019263095ea7b360e01b80855260018060a01b038092169182602486015260206000809781604489015260448852613cb188613364565b87519082885af1903d87519083613d10575b50505015613cd3575b5050505050565b613d0694613d01926040519260208401526024830152604482015260448152613cfb81613364565b82613ffa565b613ffa565b3880808080613ccc565b91925090613d27575083163b15155b388080613cc3565b6001915014613d1f565b6040519160206000818501613d6786613d5963095ea7b360e01b998a855287602484016134ad565b03601f19810188528761337f565b85519082865af16000513d82613dc1575b505015613d86575b50505050565b613db893613d019160405191602083015260018060a01b031660248201526000604482015260448152613cfb81613364565b38808080613d80565b909150613dde57506001600160a01b0382163b15155b3880613d78565b600114613dd7565b90613d0190613e0e613e1c956040519586936323b872dd60e01b602086015260248501613555565b03601f19810184528361337f565b565b6001600160a01b0390818111613e32571690565b604490604051906306dfcc6560e41b825260a060048301526024820152fd5b60408051637d33274f60e01b81526004926020916001600160a01b03918216919083818781865afa908115613c3a5782918591600091613fdd575b508787518094819363f77c479160e01b8352165afa908115613c3a57600091613fc0575b501660ff613ebd82613abb565b541615613fb057835163e7e4b8db60e01b81528581018390528381602481855afa908115613c3a57600091613f7b575b50159182613f0f575b50509050613f02575050565b51633e69d7d560e21b8152fd5b8391925060248551809481936319afa63b60e11b8352898301525afa918215613bfa57600092613f45575b505015803880613ef6565b90809250813d8311613f74575b613f5c818361337f565b810103126106b757613f6d906136e1565b3880613f3a565b503d613f52565b90508381813d8311613fa9575b613f92818361337f565b810103126106b757613fa3906136e1565b38613eed565b503d613f88565b50505051638ebd687760e01b8152fd5b613fd79150843d86116109885761097a818361337f565b38613eb0565b613ff49150823d84116109885761097a818361337f565b38613e8c565b906000602091828151910182855af115614056576000513d61404d57506001600160a01b0381163b155b61402b5750565b604051635274afe760e01b81526001600160a01b039091166004820152602490fd5b60011415614024565b6040513d6000823e3d90fd5b818102929181159184041417156135aa57565b9061409c575080511561408a57805190602001fd5b60405163d6bda27560e01b8152600490fd5b815115806140cf575b6140ad575090565b604051639996b31560e01b81526001600160a01b039091166004820152602490fd5b50803b156140a556fea2646970667358221220fdf8b1d89790542b7e8a0328456ec4b459effc79fa8a37c03accd9df615a3f1d64736f6c63430008160033",
  "linkReferences": {},
  "deployedLinkReferences": {}
}