{
  "_format": "hh-sol-artifact-1",
  "contractName": "TestMockMorphoPool",
  "sourceName": "contracts/test/TestMockMorphoPool.sol",
  "abi": [
    {
      "inputs": [
        {
          "components": [
            {
              "internalType": "address",
              "name": "loanToken",
              "type": "address"
            },
            {
              "internalType": "address",
              "name": "collateralToken",
              "type": "address"
            },
            {
              "internalType": "address",
              "name": "oracle",
              "type": "address"
            },
            {
              "internalType": "address",
              "name": "irm",
              "type": "address"
            },
            {
              "internalType": "uint256",
              "name": "lltv",
              "type": "uint256"
            }
          ],
          "internalType": "struct MarketParams",
          "name": "marketParams",
          "type": "tuple"
        },
        {
          "internalType": "uint256",
          "name": "assets",
          "type": "uint256"
        },
        {
          "internalType": "uint256",
          "name": "",
          "type": "uint256"
        },
        {
          "internalType": "address",
          "name": "",
          "type": "address"
        },
        {
          "internalType": "address",
          "name": "receiver",
          "type": "address"
        }
      ],
      "name": "borrow",
      "outputs": [
        {
          "internalType": "uint256",
          "name": "assetsBorrowed",
          "type": "uint256"
        },
        {
          "internalType": "uint256",
          "name": "sharesBorrowed",
          "type": "uint256"
        }
      ],
      "stateMutability": "nonpayable",
      "type": "function"
    },
    {
      "inputs": [],
      "name": "borrowReturnAmount",
      "outputs": [
        {
          "internalType": "uint256",
          "name": "",
          "type": "uint256"
        }
      ],
      "stateMutability": "view",
      "type": "function"
    },
    {
      "inputs": [
        {
          "internalType": "bytes32[]",
          "name": "slots",
          "type": "bytes32[]"
        }
      ],
      "name": "extSloads",
      "outputs": [
        {
          "internalType": "bytes32[]",
          "name": "",
          "type": "bytes32[]"
        }
      ],
      "stateMutability": "view",
      "type": "function"
    },
    {
      "inputs": [
        {
          "internalType": "Id",
          "name": "id",
          "type": "bytes32"
        }
      ],
      "name": "idToMarketParams",
      "outputs": [
        {
          "components": [
            {
              "internalType": "address",
              "name": "loanToken",
              "type": "address"
            },
            {
              "internalType": "address",
              "name": "collateralToken",
              "type": "address"
            },
            {
              "internalType": "address",
              "name": "oracle",
              "type": "address"
            },
            {
              "internalType": "address",
              "name": "irm",
              "type": "address"
            },
            {
              "internalType": "uint256",
              "name": "lltv",
              "type": "uint256"
            }
          ],
          "internalType": "struct MarketParams",
          "name": "",
          "type": "tuple"
        }
      ],
      "stateMutability": "view",
      "type": "function"
    },
    {
      "inputs": [
        {
          "internalType": "Id",
          "name": "id",
          "type": "bytes32"
        }
      ],
      "name": "market",
      "outputs": [
        {
          "components": [
            {
              "internalType": "uint128",
              "name": "totalSupplyAssets",
              "type": "uint128"
            },
            {
              "internalType": "uint128",
              "name": "totalSupplyShares",
              "type": "uint128"
            },
            {
              "internalType": "uint128",
              "name": "totalBorrowAssets",
              "type": "uint128"
            },
            {
              "internalType": "uint128",
              "name": "totalBorrowShares",
              "type": "uint128"
            },
            {
              "internalType": "uint128",
              "name": "lastUpdate",
              "type": "uint128"
            },
            {
              "internalType": "uint128",
              "name": "fee",
              "type": "uint128"
            }
          ],
          "internalType": "struct Market",
          "name": "",
          "type": "tuple"
        }
      ],
      "stateMutability": "view",
      "type": "function"
    },
    {
      "inputs": [],
      "name": "overrideBorrowReturn",
      "outputs": [
        {
          "internalType": "bool",
          "name": "",
          "type": "bool"
        }
      ],
      "stateMutability": "view",
      "type": "function"
    },
    {
      "inputs": [],
      "name": "overrideRepayReturn",
      "outputs": [
        {
          "internalType": "bool",
          "name": "",
          "type": "bool"
        }
      ],
      "stateMutability": "view",
      "type": "function"
    },
    {
      "inputs": [],
      "name": "overrideSupplyPull",
      "outputs": [
        {
          "internalType": "bool",
          "name": "",
          "type": "bool"
        }
      ],
      "stateMutability": "view",
      "type": "function"
    },
    {
      "inputs": [],
      "name": "overrideSupplyReturn",
      "outputs": [
        {
          "internalType": "bool",
          "name": "",
          "type": "bool"
        }
      ],
      "stateMutability": "view",
      "type": "function"
    },
    {
      "inputs": [
        {
          "internalType": "Id",
          "name": "id",
          "type": "bytes32"
        },
        {
          "internalType": "address",
          "name": "user",
          "type": "address"
        }
      ],
      "name": "position",
      "outputs": [
        {
          "components": [
            {
              "internalType": "uint256",
              "name": "supplyShares",
              "type": "uint256"
            },
            {
              "internalType": "uint128",
              "name": "borrowShares",
              "type": "uint128"
            },
            {
              "internalType": "uint128",
              "name": "collateral",
              "type": "uint128"
            }
          ],
          "internalType": "struct Position",
          "name": "",
          "type": "tuple"
        }
      ],
      "stateMutability": "view",
      "type": "function"
    },
    {
      "inputs": [
        {
          "components": [
            {
              "internalType": "address",
              "name": "loanToken",
              "type": "address"
            },
            {
              "internalType": "address",
              "name": "collateralToken",
              "type": "address"
            },
            {
              "internalType": "address",
              "name": "oracle",
              "type": "address"
            },
            {
              "internalType": "address",
              "name": "irm",
              "type": "address"
            },
            {
              "internalType": "uint256",
              "name": "lltv",
              "type": "uint256"
            }
          ],
          "internalType": "struct MarketParams",
          "name": "marketParams",
          "type": "tuple"
        },
        {
          "internalType": "uint256",
          "name": "assets",
          "type": "uint256"
        },
        {
          "internalType": "uint256",
          "name": "",
          "type": "uint256"
        },
        {
          "internalType": "address",
          "name": "",
          "type": "address"
        },
        {
          "internalType": "bytes",
          "name": "",
          "type": "bytes"
        }
      ],
      "name": "repay",
      "outputs": [
        {
          "internalType": "uint256",
          "name": "assetsRepaid",
          "type": "uint256"
        },
        {
          "internalType": "uint256",
          "name": "sharesRepaid",
          "type": "uint256"
        }
      ],
      "stateMutability": "nonpayable",
      "type": "function"
    },
    {
      "inputs": [],
      "name": "repayReturnAmount",
      "outputs": [
        {
          "internalType": "uint256",
          "name": "",
          "type": "uint256"
        }
      ],
      "stateMutability": "view",
      "type": "function"
    },
    {
      "inputs": [],
      "name": "resetBorrowReturnAmount",
      "outputs": [],
      "stateMutability": "nonpayable",
      "type": "function"
    },
    {
      "inputs": [],
      "name": "resetRepayReturnAmount",
      "outputs": [],
      "stateMutability": "nonpayable",
      "type": "function"
    },
    {
      "inputs": [],
      "name": "resetSupplyPullOverride",
      "outputs": [],
      "stateMutability": "nonpayable",
      "type": "function"
    },
    {
      "inputs": [],
      "name": "resetSupplyReturnAmount",
      "outputs": [],
      "stateMutability": "nonpayable",
      "type": "function"
    },
    {
      "inputs": [
        {
          "components": [
            {
              "internalType": "address",
              "name": "authorizer",
              "type": "address"
            },
            {
              "internalType": "address",
              "name": "authorized",
              "type": "address"
            },
            {
              "internalType": "bool",
              "name": "isAuthorized",
              "type": "bool"
            },
            {
              "internalType": "uint256",
              "name": "nonce",
              "type": "uint256"
            },
            {
              "internalType": "uint256",
              "name": "deadline",
              "type": "uint256"
            }
          ],
          "internalType": "struct Authorization",
          "name": "",
          "type": "tuple"
        },
        {
          "components": [
            {
              "internalType": "uint8",
              "name": "v",
              "type": "uint8"
            },
            {
              "internalType": "bytes32",
              "name": "r",
              "type": "bytes32"
            },
            {
              "internalType": "bytes32",
              "name": "s",
              "type": "bytes32"
            }
          ],
          "internalType": "struct Signature",
          "name": "",
          "type": "tuple"
        }
      ],
      "name": "setAuthorizationWithSig",
      "outputs": [],
      "stateMutability": "nonpayable",
      "type": "function"
    },
    {
      "inputs": [
        {
          "internalType": "uint256",
          "name": "amount",
          "type": "uint256"
        }
      ],
      "name": "setBorrowReturnAmount",
      "outputs": [],
      "stateMutability": "nonpayable",
      "type": "function"
    },
    {
      "inputs": [
        {
          "internalType": "bytes32",
          "name": "marketId",
          "type": "bytes32"
        },
        {
          "components": [
            {
              "internalType": "uint128",
              "name": "totalSupplyAssets",
              "type": "uint128"
            },
            {
              "internalType": "uint128",
              "name": "totalSupplyShares",
              "type": "uint128"
            },
            {
              "internalType": "uint128",
              "name": "totalBorrowAssets",
              "type": "uint128"
            },
            {
              "internalType": "uint128",
              "name": "totalBorrowShares",
              "type": "uint128"
            },
            {
              "internalType": "uint128",
              "name": "lastUpdate",
              "type": "uint128"
            },
            {
              "internalType": "uint128",
              "name": "fee",
              "type": "uint128"
            }
          ],
          "internalType": "struct Market",
          "name": "mkt",
          "type": "tuple"
        }
      ],
      "name": "setMarket",
      "outputs": [],
      "stateMutability": "nonpayable",
      "type": "function"
    },
    {
      "inputs": [
        {
          "internalType": "bytes32",
          "name": "marketId",
          "type": "bytes32"
        },
        {
          "components": [
            {
              "internalType": "address",
              "name": "loanToken",
              "type": "address"
            },
            {
              "internalType": "address",
              "name": "collateralToken",
              "type": "address"
            },
            {
              "internalType": "address",
              "name": "oracle",
              "type": "address"
            },
            {
              "internalType": "address",
              "name": "irm",
              "type": "address"
            },
            {
              "internalType": "uint256",
              "name": "lltv",
              "type": "uint256"
            }
          ],
          "internalType": "struct MarketParams",
          "name": "mp",
          "type": "tuple"
        }
      ],
      "name": "setMarketParams",
      "outputs": [],
      "stateMutability": "nonpayable",
      "type": "function"
    },
    {
      "inputs": [
        {
          "internalType": "bytes32",
          "name": "marketId",
          "type": "bytes32"
        },
        {
          "internalType": "address",
          "name": "user",
          "type": "address"
        },
        {
          "components": [
            {
              "internalType": "uint256",
              "name": "supplyShares",
              "type": "uint256"
            },
            {
              "internalType": "uint128",
              "name": "borrowShares",
              "type": "uint128"
            },
            {
              "internalType": "uint128",
              "name": "collateral",
              "type": "uint128"
            }
          ],
          "internalType": "struct Position",
          "name": "pos",
          "type": "tuple"
        }
      ],
      "name": "setPosition",
      "outputs": [],
      "stateMutability": "nonpayable",
      "type": "function"
    },
    {
      "inputs": [
        {
          "internalType": "uint256",
          "name": "amount",
          "type": "uint256"
        }
      ],
      "name": "setRepayReturnAmount",
      "outputs": [],
      "stateMutability": "nonpayable",
      "type": "function"
    },
    {
      "inputs": [
        {
          "internalType": "bool",
          "name": "value",
          "type": "bool"
        }
      ],
      "name": "setShouldRevertAuth",
      "outputs": [],
      "stateMutability": "nonpayable",
      "type": "function"
    },
    {
      "inputs": [
        {
          "internalType": "uint256",
          "name": "amount",
          "type": "uint256"
        }
      ],
      "name": "setSupplyPullOverride",
      "outputs": [],
      "stateMutability": "nonpayable",
      "type": "function"
    },
    {
      "inputs": [
        {
          "internalType": "uint256",
          "name": "amount",
          "type": "uint256"
        }
      ],
      "name": "setSupplyReturnAmount",
      "outputs": [],
      "stateMutability": "nonpayable",
      "type": "function"
    },
    {
      "inputs": [],
      "name": "shouldRevertAuth",
      "outputs": [
        {
          "internalType": "bool",
          "name": "",
          "type": "bool"
        }
      ],
      "stateMutability": "view",
      "type": "function"
    },
    {
      "inputs": [
        {
          "components": [
            {
              "internalType": "address",
              "name": "loanToken",
              "type": "address"
            },
            {
              "internalType": "address",
              "name": "collateralToken",
              "type": "address"
            },
            {
              "internalType": "address",
              "name": "oracle",
              "type": "address"
            },
            {
              "internalType": "address",
              "name": "irm",
              "type": "address"
            },
            {
              "internalType": "uint256",
              "name": "lltv",
              "type": "uint256"
            }
          ],
          "internalType": "struct MarketParams",
          "name": "marketParams",
          "type": "tuple"
        },
        {
          "internalType": "uint256",
          "name": "assets",
          "type": "uint256"
        },
        {
          "internalType": "uint256",
          "name": "",
          "type": "uint256"
        },
        {
          "internalType": "address",
          "name": "",
          "type": "address"
        },
        {
          "internalType": "bytes",
          "name": "",
          "type": "bytes"
        }
      ],
      "name": "supply",
      "outputs": [
        {
          "internalType": "uint256",
          "name": "assetsSupplied",
          "type": "uint256"
        },
        {
          "internalType": "uint256",
          "name": "sharesSupplied",
          "type": "uint256"
        }
      ],
      "stateMutability": "nonpayable",
      "type": "function"
    },
    {
      "inputs": [
        {
          "components": [
            {
              "internalType": "address",
              "name": "loanToken",
              "type": "address"
            },
            {
              "internalType": "address",
              "name": "collateralToken",
              "type": "address"
            },
            {
              "internalType": "address",
              "name": "oracle",
              "type": "address"
            },
            {
              "internalType": "address",
              "name": "irm",
              "type": "address"
            },
            {
              "internalType": "uint256",
              "name": "lltv",
              "type": "uint256"
            }
          ],
          "internalType": "struct MarketParams",
          "name": "marketParams",
          "type": "tuple"
        },
        {
          "internalType": "uint256",
          "name": "assets",
          "type": "uint256"
        },
        {
          "internalType": "address",
          "name": "onBehalfOf",
          "type": "address"
        },
        {
          "internalType": "bytes",
          "name": "",
          "type": "bytes"
        }
      ],
      "name": "supplyCollateral",
      "outputs": [],
      "stateMutability": "nonpayable",
      "type": "function"
    },
    {
      "inputs": [],
      "name": "supplyPullAmount",
      "outputs": [
        {
          "internalType": "uint256",
          "name": "",
          "type": "uint256"
        }
      ],
      "stateMutability": "view",
      "type": "function"
    },
    {
      "inputs": [],
      "name": "supplyReturnAmount",
      "outputs": [
        {
          "internalType": "uint256",
          "name": "",
          "type": "uint256"
        }
      ],
      "stateMutability": "view",
      "type": "function"
    },
    {
      "inputs": [
        {
          "components": [
            {
              "internalType": "address",
              "name": "loanToken",
              "type": "address"
            },
            {
              "internalType": "address",
              "name": "collateralToken",
              "type": "address"
            },
            {
              "internalType": "address",
              "name": "oracle",
              "type": "address"
            },
            {
              "internalType": "address",
              "name": "irm",
              "type": "address"
            },
            {
              "internalType": "uint256",
              "name": "lltv",
              "type": "uint256"
            }
          ],
          "internalType": "struct MarketParams",
          "name": "marketParams",
          "type": "tuple"
        },
        {
          "internalType": "uint256",
          "name": "assets",
          "type": "uint256"
        },
        {
          "internalType": "address",
          "name": "",
          "type": "address"
        },
        {
          "internalType": "address",
          "name": "receiver",
          "type": "address"
        }
      ],
      "name": "withdrawCollateral",
      "outputs": [],
      "stateMutability": "nonpayable",
      "type": "function"
    }
  ],
  "bytecode": "0x60808060405234610016576111e1908161001c8239f35b600080fdfe608060408181526004918236101561001657600080fd5b600092833560e01c918263068a558214610d9b5750816309641f1514610d775781630ad3978c14610d4957816320b76e8114610cb95781632138211414610c9b578163238d657914610b4857816325e1637414610b2157816328fe6af014610afd5781632c3c915714610a6357816335b3015314610a3c5781633aa430a714610a15578163441254ea146109f75781634f45dd38146109d05781634fac32bb146109ad57816350d8cd4b146108d75781635c60e39a14610808578163714c9da3146107ea57816371fdc373146107c65781637784c685146106a75781638069218f1461063a57816384d692d1146106165781638720316d1461057c5781638afb91cb146104745781638bbb4c471461045357816393c52062146103bc5781639b9eee091461039d5781639cc5bfec1461037e578163a914764714610296578163a99aad89146101b957508063b13682951461019b5763ee872f281461017a57600080fd5b34610197578160031936011261019757602090600d549051908152f35b5080fd5b50346101975781600319360112610197576020906009549051908152f35b83915034610197576101ca36611004565b505050919060ff600a541660001461029057600b545b8061020e575b50505060ff600854166000146102085750600954905b82519182526020820152f35b906101fc565b905185516323b872dd60e01b81529260209284926001600160a01b03169183918891839161024191309033908501611144565b03925af1801561028657610257575b80806101e6565b6102789060203d60201161027f575b6102708183610ef2565b81019061112c565b5083610250565b503d610266565b84513d85823e3d90fd5b826101e0565b90503461037a5760c036600319011261037a5760a036602319011261037a578151916102c183610ebc565b6001600160a01b036024358181168103610376578452604435818116810361037657602085019081526064359180831683036103725783860192835260843592818416840361036e576060870193845281608088019560a435875287358a52600560205289209751169260018060a01b0319938489541617885582600189019151168482541617905581600288019151168382541617905560038601925116908254161790555191015580f35b8780fd5b8680fd5b8580fd5b8280fd5b5050346101975781600319360112610197576020906007549051908152f35b505034610197578160031936011261019757602090600b549051908152f35b90503461037a578160031936011261037a5760609282916103db610e44565b90828480516103e981610e8b565b828152826020820152015235825260026020528282209060018060a01b031682526020522090805161041a81610e8b565b6001835493848352015460018060801b0382846020839501918385168352019260801c8352845195865251166020850152511690820152f35b833461047157806003193601126104715760ff19600c5416600c5580f35b80fd5b9190503461037a5760e036600319011261037a5760c036602319011261037a578051906104a082610ed7565b6001600160801b03906024358281168103610376578352604435828116810361037657602084019081526104d2610f15565b918085019283526104e1610f2b565b906060860191825260a43595858716870361057857608081019687528860c4359587871687036101975787809561054b82806002986105759f976105629860a08b019e8f523581526003602052209751169960018060801b03199a8b895416178855511686611109565b816001860193511688845416178355511690611109565b0194511690845416178355511690611109565b80f35b8880fd5b9190503461037a5761010036600319011261037a5760206105dd926105a036610f41565b6105a8610e5f565b506105b1610e75565b908360018060a01b03910151169086855180978195829463a9059cbb60e01b845260a435918401611166565b03925af190811561060d57506105f1575080f35b6106099060203d60201161027f576102708183610ef2565b5080f35b513d84823e3d90fd5b50503461019757816003193601126101975760209060ff600c541690519015158152f35b9190503461037a57366003190161010081126106a35760a01361037a5760603660a319011261037a5760ff825416610670578280f35b906020606492519162461bcd60e51b8352820152600d60248201526c185d5d1a081c995d995c9d1959609a1b6044820152fd5b8380fd5b838334610197576020908160031936011261037a578335936001600160401b0385116106a357366023860112156106a357840135936106e5856110f2565b946106f283519687610ef2565b80865260248487019160051b83010191368311610376576024859101915b8383106107b6575050505083519161073f61072a846110f2565b9361073784519586610ef2565b8085526110f2565b8382019190601f1901368337845b8651811015610776578061076360019289611181565b515461076f8288611181565b520161074d565b509190848483519485948186019282875251809352850193925b82811061079f57505050500390f35b835185528695509381019392810192600101610790565b8235815291810191859101610710565b50503461019757816003193601126101975760209060ff6008541690519015158152f35b833461047157806003193601126104715760ff196008541660085580f35b90503461037a57602036600319011261037a578160c09381519261082b84610ed7565b81845281602085015281838501528160608501528160a06080958287820152015235815260036020522082519161086183610ed7565b81549160018060801b0393848092818616978884526020840196861c87528260018301549281600284880192828716845260608901968b1c875201549960a08a890198838d168a52019a8a1c8b5284519c8d52511660208c015251169089015251166060870152511690840152511660a0820152f35b9050823461047157610120366003190112610471576108f536610f41565b6108fd610e75565b506001600160a01b03906101043582811681036106a35760065460ff16156109a2576007549485915b858361093c575b83899182519182526020820152f35b6109609560209551169289519687958694859363a9059cbb60e01b85528401611166565b03925af1801561099857610979575b808381808561092d565b6109919060203d60201161027f576102708183610ef2565b508361096f565b84513d84823e3d90fd5b60a435948591610926565b8284346104715780600319360112610471575060ff602092541690519015158152f35b83903461019757602036600319011261019757600160ff19600c541617600c5535600d5580f35b833461047157806003193601126104715760ff19600a5416600a5580f35b83903461019757602036600319011261019757600160ff1960065416176006553560075580f35b83903461019757602036600319011261019757600160ff1960085416176008553560095580f35b9190503461037a57602036600319011261037a578083610af99460808351610a8a81610ebc565b828152826020820152828582015282606082015201528335815260056020522091815192610ab784610ebc565b80546001600160a01b039081168552600182015481166020860152600282015481168486015260038201541660608501520154608083015251918291826110b0565b0390f35b50503461019757816003193601126101975760209060ff6006541690519015158152f35b83903461019757602036600319011261019757600160ff19600a541617600a5535600b5580f35b8383346101975761010036600319011261019757610b6536610f41565b9060a43590610b72610e5f565b9260e4356001600160401b03811161037657610b919036908801610fae565b50600a5460ff1615610c9557600b545b80610c20575b506001908251610bcd81610bbf6020820194856110b0565b03601f198101835282610ef2565b51902091818060801b039485938752600260205281872090838060a01b031687526020528520019116815460801c01918211610c0d579061057591611109565b634e487b7160e01b835260118452602483fd5b6020610c519160018060a01b038285015116898987518096819582946323b872dd60e01b8452309033908501611144565b03925af18015610c8b579060019291610c6c575b5090610ba7565b610c849060203d60201161027f576102708183610ef2565b5087610c65565b83513d88823e3d90fd5b82610ba1565b833461047157806003193601126104715760ff196006541660065580f35b8391503461019757610cfe6020610ccf36611004565b50505093849160018060a01b03905116908688518096819582946323b872dd60e01b8452309033908501611144565b03925af1801561028657610d2a575b50600c5460ff16156102085750600d549082519182526020820152f35b610d429060203d60201161027f576102708183610ef2565b5083610d0d565b83903461019757602036600319011261019757803580151580910361037a5760ff8019835416911617905580f35b50503461019757816003193601126101975760209060ff600a541690519015158152f35b849184346106a35760a03660031901126106a357610db7610e44565b906060366043190112610e405783600191610dd461057596610e8b565b6044358252610de1610f15565b9360208301948552610df1610f2b565b838301908152953588526002602090815282892060a086901b8690039092168952528620905181559151910180546001600160801b0319166001600160801b0392831617815591511690611109565b8480fd5b602435906001600160a01b0382168203610e5a57565b600080fd5b60c435906001600160a01b0382168203610e5a57565b60e435906001600160a01b0382168203610e5a57565b606081019081106001600160401b03821117610ea657604052565b634e487b7160e01b600052604160045260246000fd5b60a081019081106001600160401b03821117610ea657604052565b60c081019081106001600160401b03821117610ea657604052565b601f909101601f19168101906001600160401b03821190821017610ea657604052565b606435906001600160801b0382168203610e5a57565b608435906001600160801b0382168203610e5a57565b60a0906003190112610e5a5760405190610f5a82610ebc565b816001600160a01b036004358181168103610e5a5782526024358181168103610e5a5760208301526044358181168103610e5a5760408301526064359081168103610e5a5760608201526080608435910152565b81601f82011215610e5a578035906001600160401b038211610ea65760405192610fe2601f8401601f191660200185610ef2565b82845260208383010111610e5a57816000926020809301838601378301015290565b9060031982016101208112610e5a5760a013610e5a5760405161102681610ebc565b6001600160a01b03906004358281168103610e5a5781526024358281168103610e5a5760208201526044358281168103610e5a5760408201526064358281168103610e5a57606082015260843560808201529260a4359260c4359260e4359081168103610e5a579161010435906001600160401b038211610e5a576110ad91600401610fae565b90565b91909160808060a083019460018060a01b0380825116855280602083015116602086015280604083015116604086015260608201511660608501520151910152565b6001600160401b038111610ea65760051b60200190565b80546001600160801b031660809290921b6001600160801b031916919091179055565b90816020910312610e5a57518015158103610e5a5790565b6001600160a01b03918216815291166020820152604081019190915260600190565b6001600160a01b039091168152602081019190915260400190565b80518210156111955760209160051b010190565b634e487b7160e01b600052603260045260246000fdfea2646970667358221220d2f55608fd2fd313e1452a75fe84e33ca39841f1e856b2dd55495023226b978c64736f6c63430008160033",
  "linkReferences": {},
  "deployedLinkReferences": {}
}