{
  "_format": "hh-sol-artifact-1",
  "contractName": "TestWETHWrappingFacetHelper",
  "sourceName": "contracts/test/TestWETHWrappingFacetHelper.sol",
  "abi": [
    {
      "inputs": [
        {
          "internalType": "uint8",
          "name": "bits",
          "type": "uint8"
        },
        {
          "internalType": "uint256",
          "name": "value",
          "type": "uint256"
        }
      ],
      "name": "SafeCastOverflowedUintDowncast",
      "type": "error"
    },
    {
      "inputs": [
        {
          "internalType": "address",
          "name": "token",
          "type": "address"
        }
      ],
      "name": "SafeERC20FailedOperation",
      "type": "error"
    },
    {
      "inputs": [
        {
          "internalType": "uint256",
          "name": "amount",
          "type": "uint256"
        },
        {
          "internalType": "address",
          "name": "wrappedTokenAddr",
          "type": "address"
        },
        {
          "internalType": "bool",
          "name": "usePermit2",
          "type": "bool"
        }
      ],
      "name": "unwrapETH",
      "outputs": [],
      "stateMutability": "nonpayable",
      "type": "function"
    },
    {
      "inputs": [
        {
          "internalType": "address",
          "name": "wrappedTokenAddr",
          "type": "address"
        }
      ],
      "name": "wrapETH",
      "outputs": [],
      "stateMutability": "payable",
      "type": "function"
    },
    {
      "stateMutability": "payable",
      "type": "receive"
    }
  ],
  "bytecode": "0x6080806040523461001657610415908161001c8239f35b600080fdfe6080604081815260049081361015610022575b505050361561002057600080fd5b005b600092833560e01c908163406ee863146102835750639996a8480361001257346101e75760603660031901126101e757602490823582356001600160a01b038181169182900361027e57604435801515810361027a571561022a5780831161020d57908692916e22d473030f116ddee9f6b43ac78ba390813b156102095784916084839288519485938492631b63c28b60e11b84528d3390850152308d850152891660448401528760648401525af180156101ff579084916101eb575b50505b803b156101e75782809186865180948193632e1a7d4d60e01b8352878c8401525af180156101dd579083916101c5575b50808092335af13d156101c0576001600160401b033d8181116101ae57835191601f8201601f19908116603f011683019081118382101761019a57845281528560203d92013e5b15610162578380f35b606492916020601392519362461bcd60e51b855284015282015272115512081d1c985b9cd9995c8819985a5b1959606a1b6044820152fd5b85604188634e487b7160e01b600052526000fd5b634e487b7160e01b8752604186528487fd5b610159565b6101ce9061034e565b6101d9578138610112565b5080fd5b84513d85823e3d90fd5b8280fd5b6101f49061034e565b6101e75782386100df565b85513d86823e3d90fd5b8480fd5b83516306dfcc6560e41b815260a081880152808601849052604490fd5b5082516323b872dd60e01b602082015233858201523060448201526064808201849052815260a081016001600160401b0381118282101761019a578793929161027591865282610377565b6100e2565b8780fd5b600080fd5b8492915060203660031901126101e75783356001600160a01b038116919082900361034a57813b1561034a57630d0e30db60e41b81528381868134865af1801561033d5761032a575b50815163a9059cbb60e01b60208201523360248201523460448083019190915281529160808301906001600160401b038211848310176103155761031294955052610377565b80f35b604186634e487b7160e01b6000525260246000fd5b6103369093919361034e565b91846102cc565b50505051903d90823e3d90fd5b8380fd5b6001600160401b03811161036157604052565b634e487b7160e01b600052604160045260246000fd5b906000602091828151910182855af1156103d3576000513d6103ca57506001600160a01b0381163b155b6103a85750565b604051635274afe760e01b81526001600160a01b039091166004820152602490fd5b600114156103a1565b6040513d6000823e3d90fdfea2646970667358221220ab31a38b85eaeff972aec9d7da3931514618be3cf9f560664e3f9c4a45b9795264736f6c63430008160033",
  "linkReferences": {},
  "deployedLinkReferences": {}
}