{
  "_format": "hh-sol-artifact-1",
  "contractName": "TestMockFlashLoanAggregator",
  "sourceName": "contracts/test/TestMockFlashLoanAggregator.sol",
  "abi": [
    {
      "inputs": [
        {
          "internalType": "address",
          "name": "token",
          "type": "address"
        },
        {
          "internalType": "uint256",
          "name": "required",
          "type": "uint256"
        },
        {
          "internalType": "uint256",
          "name": "actual",
          "type": "uint256"
        }
      ],
      "name": "FlashLoanNotRepaid",
      "type": "error"
    },
    {
      "inputs": [
        {
          "internalType": "address",
          "name": "target",
          "type": "address"
        },
        {
          "internalType": "address[]",
          "name": "tokens",
          "type": "address[]"
        },
        {
          "internalType": "uint256[]",
          "name": "amounts",
          "type": "uint256[]"
        },
        {
          "internalType": "uint256[]",
          "name": "premiums",
          "type": "uint256[]"
        },
        {
          "internalType": "address",
          "name": "initiator",
          "type": "address"
        },
        {
          "internalType": "bytes",
          "name": "data",
          "type": "bytes"
        }
      ],
      "name": "directCall",
      "outputs": [],
      "stateMutability": "nonpayable",
      "type": "function"
    },
    {
      "inputs": [
        {
          "internalType": "address[]",
          "name": "tokens",
          "type": "address[]"
        },
        {
          "internalType": "uint256[]",
          "name": "amounts",
          "type": "uint256[]"
        },
        {
          "internalType": "uint256",
          "name": "",
          "type": "uint256"
        },
        {
          "internalType": "bytes",
          "name": "data",
          "type": "bytes"
        },
        {
          "internalType": "bytes",
          "name": "",
          "type": "bytes"
        }
      ],
      "name": "flashLoan",
      "outputs": [],
      "stateMutability": "nonpayable",
      "type": "function"
    }
  ],
  "bytecode": "0x60808060405234610016576108d9908161001c8239f35b600080fdfe608060405260048036101561001357600080fd5b6000803560e01c918263095627e91461003c575050634827d34c1461003757600080fd5b61028a565b3461012f5760a036600319011261012f5780356001600160401b0380821161012b573660238301121561012b578183013561007681610171565b926100846040519485610149565b8184526020916024602086019160051b8301019136831161012757602401905b828210610110575050505060243581811161010c576100c690369085016101cd565b606435828111610108576100dd903690860161022d565b93909260843590811161010457610101956100fa9136910161022d565b50506104f4565b80f35b8680fd5b8580fd5b8480fd5b83809161011c846101b9565b8152019101906100a4565b8780fd5b8380fd5b5080fd5b634e487b7160e01b600052604160045260246000fd5b601f909101601f19168101906001600160401b0382119082101761016c57604052565b610133565b6001600160401b03811161016c5760051b60200190565b600435906001600160a01b038216820361019e57565b600080fd5b608435906001600160a01b038216820361019e57565b35906001600160a01b038216820361019e57565b9080601f8301121561019e5760209082356101e781610171565b936101f56040519586610149565b81855260208086019260051b82010192831161019e57602001905b82821061021e575050505090565b81358152908301908301610210565b9181601f8401121561019e578235916001600160401b03831161019e576020838186019501011161019e57565b9181601f8401121561019e578235916001600160401b03831161019e576020808501948460051b01011161019e57565b3461019e5760c036600319011261019e576102a3610188565b6001600160401b039060243582811161019e576102c490369060040161025a565b60449291923584811161019e576102df90369060040161025a565b9060643586811161019e576102f890369060040161025a565b9290916103036101a3565b9460a43598891161019e5761031f61032799369060040161022d565b9890976107c4565b005b9061033382610171565b6103406040519182610149565b8281528092610351601f1991610171565b0190602036910137565b805182101561036f5760209160051b010190565b634e487b7160e01b600052603260045260246000fd5b9081602091031261019e575190565b6001600160a01b03909116815260200190565b6040513d6000823e3d90fd5b9081602091031261019e5751801515810361019e5790565b90815180825260208080930193019160005b8281106103eb575050505090565b8351855293810193928101926001016103dd565b908060209392818452848401376000828201840152601f01601f1916010190565b919695939492909660a083019760a08452805180995260c084019860208092019160005b8281106104985750505050906104698861047793856104959a9b0360208701526103cb565b9083820360408501526103cb565b6001600160a01b0390941660608201528084036080909101526103ff565b90565b83516001600160a01b03168c529a81019a92810192600101610444565b3d156104ef573d906001600160401b03821161016c57604051916104e3601f8201601f191660200184610149565b82523d6000602084013e565b606090565b91936105008351610329565b61050a8451610329565b9560005b855181101561065c5761054361053761053761052a848a61035b565b516001600160a01b031690565b6001600160a01b031690565b9060408051926370a0823160e01b84526020918285600493818061056930888301610394565b03915afa918215610626576105a46105376105378f888f61052a928a99836105dd9e60009261062b575b5061059e919261035b565b5261035b565b9060006105b1878d61035b565b51935163a9059cbb60e01b81523392810192835260208301949094529296879384929091839160400190565b03925af1928315610626576001936105f8575b50500161050e565b8161061792903d1061061f575b61060f8183610149565b8101906103b3565b5038806105f0565b503d610605565b6103a7565b61059e925061064f908d803d10610655575b6106478183610149565b810190610385565b91610593565b503d61063d565b5091946000919382916106a06040956106926040519384928b60209b6020860198638f236bff60e01b8a52339260248801610420565b03601f198101835282610149565b519082335af16106ae6104b5565b9015610798575060005b8351811015610790576106d461053761053761052a848861035b565b82516370a0823160e01b8152848160049381806106f330888301610394565b03915afa90811561062657600091610773575b50610711838961035b565b5181106107225750506001016106b8565b879361073f8461073961052a61076f96978b61035b565b9661035b565b519051635c36dcdd60e11b81526001600160a01b0390951693850193845260208401526040830152829160600190565b0390fd5b61078a9150853d8711610655576106478183610149565b38610706565b505050509050565b602081519101fd5b81835290916001600160fb1b03831161019e5760209260051b809284830137010190565b9894919793969590604051976020808a019a638f236bff60e01b8c52808b60a0602460c483019201525260e48b01939160005b82811061087c57505050509588956108679561085961084760009e9c978f9e9c96978f9c6106929961083791602319978d60448a828603019101526107a0565b91858b84030160648c01526107a0565b6001600160a01b039095166084880152565b8584030160a48601526103ff565b51925af16108736104b5565b90156107985750565b909192948280600192838060a01b036108948a6101b9565b168152019601939291016107f756fea26469706673582212205eaa29c6b6e2de156a1d19085213a79e5cb0e10309799c8d4db04fb34932484364736f6c63430008160033",
  "linkReferences": {},
  "deployedLinkReferences": {}
}