{
  "_format": "hh-sol-artifact-1",
  "contractName": "TestingTermAuction",
  "sourceName": "contracts/test/TestingTermAuction.sol",
  "abi": [
    {
      "inputs": [],
      "name": "AlreadyTermContractPaired",
      "type": "error"
    },
    {
      "inputs": [],
      "name": "AuctionAlreadyCompleted",
      "type": "error"
    },
    {
      "inputs": [],
      "name": "AuctionCancelledForWithdrawal",
      "type": "error"
    },
    {
      "inputs": [],
      "name": "AuctionNotClosed",
      "type": "error"
    },
    {
      "inputs": [
        {
          "internalType": "uint256",
          "name": "clearingOffset",
          "type": "uint256"
        }
      ],
      "name": "ClearingOffsetNot0Or1",
      "type": "error"
    },
    {
      "inputs": [],
      "name": "CompleteAuctionPaused",
      "type": "error"
    },
    {
      "inputs": [
        {
          "internalType": "string",
          "name": "message",
          "type": "string"
        }
      ],
      "name": "InvalidParameters",
      "type": "error"
    },
    {
      "inputs": [
        {
          "internalType": "uint256",
          "name": "maxDepth",
          "type": "uint256"
        }
      ],
      "name": "MaxPriceSearchDepthExceeded",
      "type": "error"
    },
    {
      "inputs": [],
      "name": "NoBidsOrOffers",
      "type": "error"
    },
    {
      "anonymous": false,
      "inputs": [
        {
          "indexed": false,
          "internalType": "address",
          "name": "previousAdmin",
          "type": "address"
        },
        {
          "indexed": false,
          "internalType": "address",
          "name": "newAdmin",
          "type": "address"
        }
      ],
      "name": "AdminChanged",
      "type": "event"
    },
    {
      "anonymous": false,
      "inputs": [
        {
          "indexed": true,
          "internalType": "address",
          "name": "beacon",
          "type": "address"
        }
      ],
      "name": "BeaconUpgraded",
      "type": "event"
    },
    {
      "anonymous": false,
      "inputs": [
        {
          "indexed": false,
          "internalType": "uint8",
          "name": "version",
          "type": "uint8"
        }
      ],
      "name": "Initialized",
      "type": "event"
    },
    {
      "anonymous": false,
      "inputs": [
        {
          "indexed": true,
          "internalType": "bytes32",
          "name": "role",
          "type": "bytes32"
        },
        {
          "indexed": true,
          "internalType": "bytes32",
          "name": "previousAdminRole",
          "type": "bytes32"
        },
        {
          "indexed": true,
          "internalType": "bytes32",
          "name": "newAdminRole",
          "type": "bytes32"
        }
      ],
      "name": "RoleAdminChanged",
      "type": "event"
    },
    {
      "anonymous": false,
      "inputs": [
        {
          "indexed": true,
          "internalType": "bytes32",
          "name": "role",
          "type": "bytes32"
        },
        {
          "indexed": true,
          "internalType": "address",
          "name": "account",
          "type": "address"
        },
        {
          "indexed": true,
          "internalType": "address",
          "name": "sender",
          "type": "address"
        }
      ],
      "name": "RoleGranted",
      "type": "event"
    },
    {
      "anonymous": false,
      "inputs": [
        {
          "indexed": true,
          "internalType": "bytes32",
          "name": "role",
          "type": "bytes32"
        },
        {
          "indexed": true,
          "internalType": "address",
          "name": "account",
          "type": "address"
        },
        {
          "indexed": true,
          "internalType": "address",
          "name": "sender",
          "type": "address"
        }
      ],
      "name": "RoleRevoked",
      "type": "event"
    },
    {
      "anonymous": false,
      "inputs": [
        {
          "indexed": true,
          "internalType": "address",
          "name": "implementation",
          "type": "address"
        }
      ],
      "name": "Upgraded",
      "type": "event"
    },
    {
      "inputs": [],
      "name": "ADMIN_ROLE",
      "outputs": [
        {
          "internalType": "bytes32",
          "name": "",
          "type": "bytes32"
        }
      ],
      "stateMutability": "view",
      "type": "function"
    },
    {
      "inputs": [],
      "name": "DEFAULT_ADMIN_ROLE",
      "outputs": [
        {
          "internalType": "bytes32",
          "name": "",
          "type": "bytes32"
        }
      ],
      "stateMutability": "view",
      "type": "function"
    },
    {
      "inputs": [],
      "name": "DEVOPS_ROLE",
      "outputs": [
        {
          "internalType": "bytes32",
          "name": "",
          "type": "bytes32"
        }
      ],
      "stateMutability": "view",
      "type": "function"
    },
    {
      "inputs": [],
      "name": "INITIALIZER_ROLE",
      "outputs": [
        {
          "internalType": "bytes32",
          "name": "",
          "type": "bytes32"
        }
      ],
      "stateMutability": "view",
      "type": "function"
    },
    {
      "inputs": [],
      "name": "THREESIXTY_DAYCOUNT_SECONDS",
      "outputs": [
        {
          "internalType": "uint256",
          "name": "",
          "type": "uint256"
        }
      ],
      "stateMutability": "view",
      "type": "function"
    },
    {
      "inputs": [],
      "name": "auctionCancelledForWithdrawal",
      "outputs": [
        {
          "internalType": "bool",
          "name": "",
          "type": "bool"
        }
      ],
      "stateMutability": "view",
      "type": "function"
    },
    {
      "inputs": [],
      "name": "auctionCompleted",
      "outputs": [
        {
          "internalType": "bool",
          "name": "",
          "type": "bool"
        }
      ],
      "stateMutability": "view",
      "type": "function"
    },
    {
      "inputs": [],
      "name": "auctionEndTime",
      "outputs": [
        {
          "internalType": "uint256",
          "name": "",
          "type": "uint256"
        }
      ],
      "stateMutability": "view",
      "type": "function"
    },
    {
      "inputs": [
        {
          "components": [
            {
              "internalType": "bytes32",
              "name": "id",
              "type": "bytes32"
            },
            {
              "internalType": "address",
              "name": "bidder",
              "type": "address"
            },
            {
              "internalType": "uint256",
              "name": "bidPriceRevealed",
              "type": "uint256"
            },
            {
              "internalType": "uint256",
              "name": "amount",
              "type": "uint256"
            },
            {
              "internalType": "uint256[]",
              "name": "collateralAmounts",
              "type": "uint256[]"
            },
            {
              "internalType": "address",
              "name": "purchaseToken",
              "type": "address"
            },
            {
              "internalType": "address[]",
              "name": "collateralTokens",
              "type": "address[]"
            },
            {
              "internalType": "bool",
              "name": "isRollover",
              "type": "bool"
            },
            {
              "internalType": "address",
              "name": "rolloverPairOffTermRepoServicer",
              "type": "address"
            }
          ],
          "internalType": "struct TermAuctionRevealedBid[]",
          "name": "sortedBids",
          "type": "tuple[]"
        },
        {
          "components": [
            {
              "internalType": "bytes32",
              "name": "id",
              "type": "bytes32"
            },
            {
              "internalType": "address",
              "name": "offeror",
              "type": "address"
            },
            {
              "internalType": "uint256",
              "name": "offerPriceRevealed",
              "type": "uint256"
            },
            {
              "internalType": "uint256",
              "name": "amount",
              "type": "uint256"
            },
            {
              "internalType": "address",
              "name": "purchaseToken",
              "type": "address"
            }
          ],
          "internalType": "struct TermAuctionRevealedOffer[]",
          "name": "sortedOffers",
          "type": "tuple[]"
        },
        {
          "internalType": "uint256",
          "name": "clearingOffset",
          "type": "uint256"
        }
      ],
      "name": "calculateClearingPrice",
      "outputs": [
        {
          "internalType": "uint256",
          "name": "",
          "type": "uint256"
        },
        {
          "internalType": "uint256",
          "name": "",
          "type": "uint256"
        }
      ],
      "stateMutability": "pure",
      "type": "function"
    },
    {
      "inputs": [
        {
          "internalType": "uint256",
          "name": "purchasePrice",
          "type": "uint256"
        }
      ],
      "name": "calculateRepurchasePrice",
      "outputs": [
        {
          "internalType": "uint256",
          "name": "",
          "type": "uint256"
        }
      ],
      "stateMutability": "view",
      "type": "function"
    },
    {
      "inputs": [
        {
          "components": [
            {
              "internalType": "bytes32[]",
              "name": "revealedBidSubmissions",
              "type": "bytes32[]"
            },
            {
              "internalType": "bytes32[]",
              "name": "expiredRolloverBids",
              "type": "bytes32[]"
            },
            {
              "internalType": "bytes32[]",
              "name": "unrevealedBidSubmissions",
              "type": "bytes32[]"
            },
            {
              "internalType": "bytes32[]",
              "name": "revealedOfferSubmissions",
              "type": "bytes32[]"
            },
            {
              "internalType": "bytes32[]",
              "name": "unrevealedOfferSubmissions",
              "type": "bytes32[]"
            }
          ],
          "internalType": "struct CompleteAuctionInput",
          "name": "completeAuctionInput",
          "type": "tuple"
        }
      ],
      "name": "cancelAuction",
      "outputs": [],
      "stateMutability": "nonpayable",
      "type": "function"
    },
    {
      "inputs": [
        {
          "internalType": "address[]",
          "name": "rolloverBorrowers",
          "type": "address[]"
        },
        {
          "internalType": "address[]",
          "name": "rolloverPairOffTermRepoServicer",
          "type": "address[]"
        }
      ],
      "name": "cancelAuctionForWithdrawal",
      "outputs": [],
      "stateMutability": "nonpayable",
      "type": "function"
    },
    {
      "inputs": [],
      "name": "clearingPrice",
      "outputs": [
        {
          "internalType": "uint256",
          "name": "",
          "type": "uint256"
        }
      ],
      "stateMutability": "view",
      "type": "function"
    },
    {
      "inputs": [],
      "name": "clearingPricePostProcessingOffset",
      "outputs": [
        {
          "internalType": "uint256",
          "name": "",
          "type": "uint256"
        }
      ],
      "stateMutability": "view",
      "type": "function"
    },
    {
      "inputs": [
        {
          "components": [
            {
              "internalType": "bytes32[]",
              "name": "revealedBidSubmissions",
              "type": "bytes32[]"
            },
            {
              "internalType": "bytes32[]",
              "name": "expiredRolloverBids",
              "type": "bytes32[]"
            },
            {
              "internalType": "bytes32[]",
              "name": "unrevealedBidSubmissions",
              "type": "bytes32[]"
            },
            {
              "internalType": "bytes32[]",
              "name": "revealedOfferSubmissions",
              "type": "bytes32[]"
            },
            {
              "internalType": "bytes32[]",
              "name": "unrevealedOfferSubmissions",
              "type": "bytes32[]"
            }
          ],
          "internalType": "struct CompleteAuctionInput",
          "name": "completeAuctionInput",
          "type": "tuple"
        }
      ],
      "name": "completeAuction",
      "outputs": [],
      "stateMutability": "nonpayable",
      "type": "function"
    },
    {
      "inputs": [],
      "name": "completeAuctionPaused",
      "outputs": [
        {
          "internalType": "bool",
          "name": "",
          "type": "bool"
        }
      ],
      "stateMutability": "view",
      "type": "function"
    },
    {
      "inputs": [],
      "name": "controller",
      "outputs": [
        {
          "internalType": "contract ITermController",
          "name": "",
          "type": "address"
        }
      ],
      "stateMutability": "view",
      "type": "function"
    },
    {
      "inputs": [],
      "name": "dayCountFractionMantissa",
      "outputs": [
        {
          "internalType": "uint256",
          "name": "",
          "type": "uint256"
        }
      ],
      "stateMutability": "view",
      "type": "function"
    },
    {
      "inputs": [
        {
          "internalType": "bytes32",
          "name": "role",
          "type": "bytes32"
        }
      ],
      "name": "getRoleAdmin",
      "outputs": [
        {
          "internalType": "bytes32",
          "name": "",
          "type": "bytes32"
        }
      ],
      "stateMutability": "view",
      "type": "function"
    },
    {
      "inputs": [
        {
          "internalType": "bytes32",
          "name": "role",
          "type": "bytes32"
        },
        {
          "internalType": "address",
          "name": "account",
          "type": "address"
        }
      ],
      "name": "grantRole",
      "outputs": [],
      "stateMutability": "nonpayable",
      "type": "function"
    },
    {
      "inputs": [
        {
          "internalType": "bytes32",
          "name": "role",
          "type": "bytes32"
        },
        {
          "internalType": "address",
          "name": "account",
          "type": "address"
        }
      ],
      "name": "hasRole",
      "outputs": [
        {
          "internalType": "bool",
          "name": "",
          "type": "bool"
        }
      ],
      "stateMutability": "view",
      "type": "function"
    },
    {
      "inputs": [
        {
          "internalType": "string",
          "name": "termRepoId_",
          "type": "string"
        },
        {
          "internalType": "string",
          "name": "auctionId_",
          "type": "string"
        },
        {
          "internalType": "uint256",
          "name": "auctionEndTime_",
          "type": "uint256"
        },
        {
          "internalType": "uint256",
          "name": "termStart_",
          "type": "uint256"
        },
        {
          "internalType": "uint256",
          "name": "redemptionTimestamp_",
          "type": "uint256"
        },
        {
          "internalType": "contract IERC20MetadataUpgradeable",
          "name": "purchaseToken_",
          "type": "address"
        },
        {
          "internalType": "address",
          "name": "termAuctionInitializer_",
          "type": "address"
        },
        {
          "internalType": "uint256",
          "name": "clearingPricePostProcessingOffset_",
          "type": "uint256"
        }
      ],
      "name": "initialize",
      "outputs": [],
      "stateMutability": "nonpayable",
      "type": "function"
    },
    {
      "inputs": [
        {
          "internalType": "contract ITermEventEmitter",
          "name": "emitter_",
          "type": "address"
        },
        {
          "internalType": "contract ITermController",
          "name": "controller_",
          "type": "address"
        },
        {
          "internalType": "contract ITermRepoServicer",
          "name": "termRepoServicer_",
          "type": "address"
        },
        {
          "internalType": "contract ITermAuctionBidLocker",
          "name": "termAuctionBidLocker_",
          "type": "address"
        },
        {
          "internalType": "contract ITermAuctionOfferLocker",
          "name": "termAuctionOfferLocker_",
          "type": "address"
        },
        {
          "internalType": "address",
          "name": "devopsMultisigAddress_",
          "type": "address"
        },
        {
          "internalType": "address",
          "name": "adminWallet_",
          "type": "address"
        },
        {
          "internalType": "string",
          "name": "version_",
          "type": "string"
        }
      ],
      "name": "pairTermContracts",
      "outputs": [],
      "stateMutability": "nonpayable",
      "type": "function"
    },
    {
      "inputs": [],
      "name": "pauseCompleteAuction",
      "outputs": [],
      "stateMutability": "nonpayable",
      "type": "function"
    },
    {
      "inputs": [],
      "name": "proxiableUUID",
      "outputs": [
        {
          "internalType": "bytes32",
          "name": "",
          "type": "bytes32"
        }
      ],
      "stateMutability": "view",
      "type": "function"
    },
    {
      "inputs": [],
      "name": "purchaseToken",
      "outputs": [
        {
          "internalType": "contract IERC20MetadataUpgradeable",
          "name": "",
          "type": "address"
        }
      ],
      "stateMutability": "view",
      "type": "function"
    },
    {
      "inputs": [
        {
          "internalType": "bytes32",
          "name": "role",
          "type": "bytes32"
        },
        {
          "internalType": "address",
          "name": "account",
          "type": "address"
        }
      ],
      "name": "renounceRole",
      "outputs": [],
      "stateMutability": "nonpayable",
      "type": "function"
    },
    {
      "inputs": [
        {
          "internalType": "bytes32",
          "name": "role",
          "type": "bytes32"
        },
        {
          "internalType": "address",
          "name": "account",
          "type": "address"
        }
      ],
      "name": "revokeRole",
      "outputs": [],
      "stateMutability": "nonpayable",
      "type": "function"
    },
    {
      "inputs": [
        {
          "internalType": "uint256",
          "name": "auctionEndTime_",
          "type": "uint256"
        }
      ],
      "name": "setEndTime",
      "outputs": [],
      "stateMutability": "nonpayable",
      "type": "function"
    },
    {
      "inputs": [
        {
          "internalType": "bytes4",
          "name": "interfaceId",
          "type": "bytes4"
        }
      ],
      "name": "supportsInterface",
      "outputs": [
        {
          "internalType": "bool",
          "name": "",
          "type": "bool"
        }
      ],
      "stateMutability": "view",
      "type": "function"
    },
    {
      "inputs": [],
      "name": "termAuctionBidLocker",
      "outputs": [
        {
          "internalType": "contract ITermAuctionBidLocker",
          "name": "",
          "type": "address"
        }
      ],
      "stateMutability": "view",
      "type": "function"
    },
    {
      "inputs": [],
      "name": "termAuctionId",
      "outputs": [
        {
          "internalType": "bytes32",
          "name": "",
          "type": "bytes32"
        }
      ],
      "stateMutability": "view",
      "type": "function"
    },
    {
      "inputs": [],
      "name": "termAuctionOfferLocker",
      "outputs": [
        {
          "internalType": "contract ITermAuctionOfferLocker",
          "name": "",
          "type": "address"
        }
      ],
      "stateMutability": "view",
      "type": "function"
    },
    {
      "inputs": [],
      "name": "termRepoId",
      "outputs": [
        {
          "internalType": "bytes32",
          "name": "",
          "type": "bytes32"
        }
      ],
      "stateMutability": "view",
      "type": "function"
    },
    {
      "inputs": [],
      "name": "termRepoServicer",
      "outputs": [
        {
          "internalType": "contract ITermRepoServicer",
          "name": "",
          "type": "address"
        }
      ],
      "stateMutability": "view",
      "type": "function"
    },
    {
      "inputs": [],
      "name": "unpauseCompleteAuction",
      "outputs": [],
      "stateMutability": "nonpayable",
      "type": "function"
    },
    {
      "inputs": [
        {
          "internalType": "address",
          "name": "upgradeAddress",
          "type": "address"
        }
      ],
      "name": "upgrade",
      "outputs": [],
      "stateMutability": "nonpayable",
      "type": "function"
    },
    {
      "inputs": [
        {
          "internalType": "address",
          "name": "newImplementation",
          "type": "address"
        }
      ],
      "name": "upgradeTo",
      "outputs": [],
      "stateMutability": "nonpayable",
      "type": "function"
    },
    {
      "inputs": [
        {
          "internalType": "address",
          "name": "newImplementation",
          "type": "address"
        },
        {
          "internalType": "bytes",
          "name": "data",
          "type": "bytes"
        }
      ],
      "name": "upgradeToAndCall",
      "outputs": [],
      "stateMutability": "payable",
      "type": "function"
    },
    {
      "inputs": [],
      "name": "version",
      "outputs": [
        {
          "internalType": "string",
          "name": "",
          "type": "string"
        }
      ],
      "stateMutability": "view",
      "type": "function"
    }
  ],
  "bytecode": "0x60a0604052306080523480156200001557600080fd5b506200002062000026565b620000e7565b600054610100900460ff1615620000935760405162461bcd60e51b815260206004820152602760248201527f496e697469616c697a61626c653a20636f6e747261637420697320696e697469604482015266616c697a696e6760c81b606482015260840160405180910390fd5b60005460ff90811614620000e5576000805460ff191660ff9081179091556040519081527f7f26b83ff96e1f2b6a682f133852f6798a09c465da95921460cefb38474024989060200160405180910390a15b565b608051615f9b6200011f600039600081816107fc0152818161083c015281816108c10152818161090101526109790152615f9b6000f3fe6080604052600436106101fb5760003560e01c80636d7331411161010e578063c794564e1161009b578063c794564e146105e6578063cc5b6e4a146105fb578063ccb98ffc14610612578063d547741f14610633578063d6725d0c14610653578063e8c856f11461066b578063f04363871461068b578063f691fac1146106ac578063f77c4791146106cc578063fa2a3cca146106ed57600080fd5b80636d733141146104c9578063700e3e2a146104e0578063743a8f88146104f757806375b238fc1461051757806376f9a41e146105395780637a6944c5146105595780638dfea9e71461057057806391d1485414610590578063a217fddf146105b0578063a95c4d62146105c557600080fd5b80633659cfe61161018c5780633659cfe61461037f5780634b449cba1461039f5780634f1ef286146103b6578063505d799e146103c957806352d1902d146103ea57806353f579d3146103ff57806354fd4d50146104345780635fb8f3ed1461046e5780636125be5514610489578063622ddc39146104a957600080fd5b806301ffc9a71461020057806306b282c9146102355780630900f01014610263578063201a662514610285578063248a9ca3146102b557806327df3d3e146102e55780632f2ff15d1461030757806332a0f2d714610327578063357a77d21461033e57806336568abe1461035f575b600080fd5b34801561020c57600080fd5b5061022061021b3660046149b0565b610702565b60405190151581526020015b60405180910390f35b34801561024157600080fd5b5061013254610256906001600160a01b031681565b60405161022c91906149da565b34801561026f57600080fd5b5061028361027e366004614a0e565b610739565b005b34801561029157600080fd5b506102a7600080516020615ebf83398151915281565b60405190815260200161022c565b3480156102c157600080fd5b506102a76102d0366004614a2b565b600090815260c9602052604090206001015490565b3480156102f157600080fd5b506102a7600080516020615edf83398151915281565b34801561031357600080fd5b50610283610322366004614a44565b610745565b34801561033357600080fd5b506102a76101375481565b34801561034a57600080fd5b5061013154610256906001600160a01b031681565b34801561036b57600080fd5b5061028361037a366004614a44565b61076f565b34801561038b57600080fd5b5061028361039a366004614a0e565b6107f2565b3480156103ab57600080fd5b506102a761012f5481565b6102836103c4366004614b4a565b6108b7565b3480156103d557600080fd5b5061013354610256906001600160a01b031681565b3480156103f657600080fd5b506102a761096c565b34801561040b57600080fd5b5061041f61041a366004614db6565b610a1a565b6040805192835260208301919091520161022c565b34801561044057600080fd5b50604080518082018252600b81526a19195d995b1bdc1b595b9d60aa1b6020820152905161022c9190614f71565b34801561047a57600080fd5b50610139546102209060ff1681565b34801561049557600080fd5b506102836104a4366004614fe5565b610a35565b3480156104b557600080fd5b506102a76104c4366004614a2b565b610c3f565b3480156104d557600080fd5b506102a761012e5481565b3480156104ec57600080fd5b506102a76101385481565b34801561050357600080fd5b506102836105123660046150e5565b610c4a565b34801561052357600080fd5b506102a7600080516020615f4683398151915281565b34801561054557600080fd5b50610283610554366004615150565b610d82565b34801561056557600080fd5b506102a76101305481565b34801561057c57600080fd5b506101395461022090610100900460ff1681565b34801561059c57600080fd5b506102206105ab366004614a44565b61147e565b3480156105bc57600080fd5b506102a7600081565b3480156105d157600080fd5b5061013454610256906001600160a01b031681565b3480156105f257600080fd5b506102836114a9565b34801561060757600080fd5b506102a761012d5481565b34801561061e57600080fd5b5061028361062d366004614a2b565b61012f55565b34801561063f57600080fd5b5061028361064e366004614a44565b61154a565b34801561065f57600080fd5b506102a76301da9c0081565b34801561067757600080fd5b5061028361068636600461518a565b61156f565b34801561069757600080fd5b50610139546102209062010000900460ff1681565b3480156106b857600080fd5b506102836106c7366004615150565b6116d7565b3480156106d857600080fd5b5061013654610256906001600160a01b031681565b3480156106f957600080fd5b50610283612195565b60006001600160e01b03198216637965db0b60e01b148061073357506301ffc9a760e01b6001600160e01b03198316145b92915050565b610742816121f9565b50565b600082815260c960205260409020600101546107608161227b565b61076a8383612285565b505050565b6001600160a01b03811633146107e45760405162461bcd60e51b815260206004820152602f60248201527f416363657373436f6e74726f6c3a2063616e206f6e6c792072656e6f756e636560448201526e103937b632b9903337b91039b2b63360891b60648201526084015b60405180910390fd5b6107ee828261230b565b5050565b6001600160a01b037f000000000000000000000000000000000000000000000000000000000000000016300361083a5760405162461bcd60e51b81526004016107db90615252565b7f00000000000000000000000000000000000000000000000000000000000000006001600160a01b031661086c612372565b6001600160a01b0316146108925760405162461bcd60e51b81526004016107db9061529e565b61089b816121f9565b604080516000808252602082019092526107429183919061238e565b6001600160a01b037f00000000000000000000000000000000000000000000000000000000000000001630036108ff5760405162461bcd60e51b81526004016107db90615252565b7f00000000000000000000000000000000000000000000000000000000000000006001600160a01b0316610931612372565b6001600160a01b0316146109575760405162461bcd60e51b81526004016107db9061529e565b610960826121f9565b6107ee8282600161238e565b6000306001600160a01b037f00000000000000000000000000000000000000000000000000000000000000001614610a075760405162461bcd60e51b815260206004820152603860248201527f555550535570677261646561626c653a206d757374206e6f742062652063616c6044820152771b1959081d1a1c9bdd59da0819195b1959d85d1958d85b1b60421b60648201526084016107db565b50600080516020615eff83398151915290565b600080610a288585856124f9565b915091505b935093915050565b600054610100900460ff1615808015610a555750600054600160ff909116105b80610a765750610a6430612d8c565b158015610a76575060005460ff166001145b610ad95760405162461bcd60e51b815260206004820152602e60248201527f496e697469616c697a61626c653a20636f6e747261637420697320616c72656160448201526d191e481a5b9a5d1a585b1a5e995960921b60648201526084016107db565b6000805460ff191660011790558015610afc576000805461ff0019166101001790555b610b04612d9b565b610b0c612d9b565b610b14612dc4565b610b2c600080516020615edf83398151915284612285565b8a8a604051602001610b3f9291906152ea565b60408051601f1981840301815290829052805160209182012061012d55610b6a918b918b91016152ea565b60408051601f19818403018152919052805160209091012061012e5561012f8790556301da9c00670de0b6b3a7640000610ba48888615310565b610bae9190615323565b610bb8919061533a565b6101305561013480546001600160a01b0319166001600160a01b038616179055610139805463ff00ffff191690556101388290558015610c32576000805461ff0019169055604051600181527f7f26b83ff96e1f2b6a682f133852f6798a09c465da95921460cefb38474024989060200160405180910390a15b5050505050505050505050565b600061073382612df3565b61012f544211610c6d5760405163b9adeefd60e01b815260040160405180910390fd5b600080516020615f46833981519152610c858161227b565b60005b84811015610cf657610ce6848483818110610ca557610ca561535c565b9050602002016020810190610cba9190614a0e565b878784818110610ccc57610ccc61535c565b9050602002016020810190610ce19190614a0e565b612e7c565b610cef81615372565b9050610c88565b50610139805461ff001916610100908117918290556101355461012e5460405163504c5d5d60e11b81526001600160a01b039092169363a098baba93610d49936000929190910460ff169060040161538b565b600060405180830381600087803b158015610d6357600080fd5b505af1158015610d77573d6000803e3d6000fd5b505050505050505050565b61012f544211610da55760405163b9adeefd60e01b815260040160405180910390fd5b600080516020615f46833981519152610dbd8161227b565b6101325460009081906001600160a01b031663f9202d63610dde86806153a3565b610deb60208901896153a3565b610df860408b018b6153a3565b6040518763ffffffff1660e01b8152600401610e199695949392919061541e565b6000604051808303816000875af1158015610e38573d6000803e3d6000fd5b505050506040513d6000823e601f3d908101601f19168201604052610e6091908101906156a6565b61013354919350915060009081906001600160a01b031663c44cee73610e8960608901896153a3565b610e9660808b018b6153a3565b6040518563ffffffff1660e01b8152600401610eb59493929190615838565b6000604051808303816000875af1158015610ed4573d6000803e3d6000fd5b505050506040513d6000823e601f3d908101601f19168201604052610efc9190810190615934565b9150915060005b845181101561106b57848181518110610f1e57610f1e61535c565b602002602001015160e0015115610f7957610f74858281518110610f4457610f4461535c565b60200260200101516101000151868381518110610f6357610f6361535c565b602002602001015160200151612e7c565b61105b565b6101325485516001600160a01b0390911690630283ce5b90879084908110610fa357610fa361535c565b602002602001015160000151878481518110610fc157610fc161535c565b602002602001015160200151888581518110610fdf57610fdf61535c565b602002602001015160c00151898681518110610ffd57610ffd61535c565b6020026020010151608001516040518563ffffffff1660e01b81526004016110289493929190615aac565b600060405180830381600087803b15801561104257600080fd5b505af1158015611056573d6000803e3d6000fd5b505050505b61106481615372565b9050610f03565b5060005b825181101561114b576101335483516001600160a01b0390911690630c57f414908590849081106110a2576110a261535c565b6020026020010151600001518584815181106110c0576110c061535c565b6020026020010151602001518685815181106110de576110de61535c565b6020026020010151606001516040518463ffffffff1660e01b815260040161110893929190615ae8565b600060405180830381600087803b15801561112257600080fd5b505af1158015611136573d6000803e3d6000fd5b505050508061114490615372565b905061106f565b5060005b83518110156112a75783818151811061116a5761116a61535c565b60200260200101516101000151156111b5576111b08482815181106111915761119161535c565b60200260200101516101200151858381518110610f6357610f6361535c565b611297565b6101325484516001600160a01b0390911690630283ce5b908690849081106111df576111df61535c565b6020026020010151600001518684815181106111fd576111fd61535c565b60200260200101516020015187858151811061121b5761121b61535c565b602002602001015160e001518886815181106112395761123961535c565b602002602001015160a001516040518563ffffffff1660e01b81526004016112649493929190615aac565b600060405180830381600087803b15801561127e57600080fd5b505af1158015611292573d6000803e3d6000fd5b505050505b6112a081615372565b905061114f565b5060005b8151811015611387576101335482516001600160a01b0390911690630c57f414908490849081106112de576112de61535c565b6020026020010151600001518484815181106112fc576112fc61535c565b60200260200101516020015185858151811061131a5761131a61535c565b6020026020010151608001516040518463ffffffff1660e01b815260040161134493929190615ae8565b600060405180830381600087803b15801561135e57600080fd5b505af1158015611372573d6000803e3d6000fd5b505050508061138090615372565b90506112ab565b6101355461012e5460405163504c5d5d60e11b81526001600160a01b039092169163a098baba916113bf91600090819060040161538b565b600060405180830381600087803b1580156113d957600080fd5b505af11580156113ed573d6000803e3d6000fd5b5050505061013160009054906101000a90046001600160a01b03166001600160a01b0316634dabab106040518163ffffffff1660e01b8152600401602060405180830381865afa158015611445573d6000803e3d6000fd5b505050506040513d601f19601f820116820180604052508101906114699190615b07565b61147557611475615b24565b50505050505050565b600091825260c9602090815260408084206001600160a01b0393909316845291905290205460ff1690565b600080516020615f468339815191526114c18161227b565b610139805462ff00001916620100001790556101355461012e5461012d54604051635fdd148760e01b81526001600160a01b0390931692635fdd148792611515929091600401918252602082015260400190565b600060405180830381600087803b15801561152f57600080fd5b505af1158015611543573d6000803e3d6000fd5b5050505050565b600082815260c960205260409020600101546115658161227b565b61076a838361230b565b600080516020615edf8339815191526115878161227b565b610139546301000000900460ff16156115b357604051634ce377bb60e11b815260040160405180910390fd5b610139805463ff0000001916630100000017905561013580546001600160a01b03808d166001600160a01b03199283161790925561013680548c841690831617905561013180548b841690831617905561013280548a841690831617905561013380549289169290911691909117905561163b600080516020615ebf83398151915286612285565b611653600080516020615f4683398151915285612285565b6101355461012d5461012e5461012f5460405163383a8ab160e01b81526001600160a01b039094169363383a8ab19361169993909290913091908a908a90600401615b3a565b600060405180830381600087803b1580156116b357600080fd5b505af11580156116c7573d6000803e3d6000fd5b5050505050505050505050505050565b61012f5442116116fa5760405163b9adeefd60e01b815260040160405180910390fd5b6101395462010000900460ff161561172557604051631298d6db60e01b815260040160405180910390fd5b6101395460ff161561174a5760405163f02c1d9560e01b815260040160405180910390fd5b61013954610100900460ff161561177457604051632d93dc5b60e21b815260040160405180910390fd5b610139805460ff1916600117905561179a600080516020615f468339815191523361147e565b61183d5760006117ad60408301836153a3565b905011806117c9575060006117c560808301836153a3565b9050115b1561183d5760405163dd23c3ad60e01b815260206004820152603d60248201527f416c6c2074656e64657220707269636573206d7573742062652072657665616c60448201527f656420666f722061756374696f6e20746f20626520636f6d706c65746500000060648201526084016107db565b6101325460009081906001600160a01b031663f9202d6361185e85806153a3565b61186b60208801886153a3565b61187860408a018a6153a3565b6040518763ffffffff1660e01b81526004016118999695949392919061541e565b6000604051808303816000875af11580156118b8573d6000803e3d6000fd5b505050506040513d6000823e601f3d908101601f191682016040526118e091908101906156a6565b61013354919350915060009081906001600160a01b031663c44cee7361190960608801886153a3565b61191660808a018a6153a3565b6040518563ffffffff1660e01b81526004016119359493929190615838565b6000604051808303816000875af1158015611954573d6000803e3d6000fd5b505050506040513d6000823e601f3d908101601f1916820160405261197c9190810190615934565b9150915060008451118015611992575060008251115b80156119e65750816000815181106119ac576119ac61535c565b60200260200101516040015184600186516119c79190615310565b815181106119d7576119d761535c565b60200260200101516040015110155b15611b935760006119f78584612f4c565b915050600061013460009054906101000a90046001600160a01b03166001600160a01b031663313ce5676040518163ffffffff1660e01b8152600401602060405180830381865afa158015611a50573d6000803e3d6000fd5b505050506040513d601f19601f82011682018060405250810190611a749190615b8d565b60ff1690506000611a86878484612f86565b90506000611a9586858561344f565b6101355461012e5461013754604051630ef1216760e41b81526004810192909252426024830152436044830152606482018690526084820184905260a48201529192506001600160a01b03169063ef1216709060c401600060405180830381600087803b158015611b0557600080fd5b505af1158015611b19573d6000803e3d6000fd5b50506101365461012d5461012e546101375460405163a2a61aed60e01b81526001600160a01b03909416955063a2a61aed9450611b5893600401615bb0565b600060405180830381600087803b158015611b7257600080fd5b505af1158015611b86573d6000803e3d6000fd5b5050505050505050611ef4565b60005b8451811015611cce57848181518110611bb157611bb161535c565b602002602001015160e0015115611bdc57611bd7858281518110610f4457610f4461535c565b611cbe565b6101325485516001600160a01b0390911690630283ce5b90879084908110611c0657611c0661535c565b602002602001015160000151878481518110611c2457611c2461535c565b602002602001015160200151888581518110611c4257611c4261535c565b602002602001015160c00151898681518110611c6057611c6061535c565b6020026020010151608001516040518563ffffffff1660e01b8152600401611c8b9493929190615aac565b600060405180830381600087803b158015611ca557600080fd5b505af1158015611cb9573d6000803e3d6000fd5b505050505b611cc781615372565b9050611b96565b5060005b8251811015611dae576101335483516001600160a01b0390911690630c57f41490859084908110611d0557611d0561535c565b602002602001015160000151858481518110611d2357611d2361535c565b602002602001015160200151868581518110611d4157611d4161535c565b6020026020010151606001516040518463ffffffff1660e01b8152600401611d6b93929190615ae8565b600060405180830381600087803b158015611d8557600080fd5b505af1158015611d99573d6000803e3d6000fd5b5050505080611da790615372565b9050611cd2565b5060008451118015611dc1575060008251115b8015611e14575081600081518110611ddb57611ddb61535c565b6020026020010151604001518460018651611df69190615310565b81518110611e0657611e0661535c565b602002602001015160400151105b15611e89576101355461012e5460405163504c5d5d60e11b81526001600160a01b039092169163a098baba91611e529160019060009060040161538b565b600060405180830381600087803b158015611e6c57600080fd5b505af1158015611e80573d6000803e3d6000fd5b50505050611ef4565b6101355461012e5460405163504c5d5d60e11b81526001600160a01b039092169163a098baba91611ec191600090819060040161538b565b600060405180830381600087803b158015611edb57600080fd5b505af1158015611eef573d6000803e3d6000fd5b505050505b60005b835181101561203057838181518110611f1257611f1261535c565b6020026020010151610100015115611f3e57611f398482815181106111915761119161535c565b612020565b6101325484516001600160a01b0390911690630283ce5b90869084908110611f6857611f6861535c565b602002602001015160000151868481518110611f8657611f8661535c565b602002602001015160200151878581518110611fa457611fa461535c565b602002602001015160e00151888681518110611fc257611fc261535c565b602002602001015160a001516040518563ffffffff1660e01b8152600401611fed9493929190615aac565b600060405180830381600087803b15801561200757600080fd5b505af115801561201b573d6000803e3d6000fd5b505050505b61202981615372565b9050611ef7565b5060005b8151811015612110576101335482516001600160a01b0390911690630c57f414908490849081106120675761206761535c565b6020026020010151600001518484815181106120855761208561535c565b6020026020010151602001518585815181106120a3576120a361535c565b6020026020010151608001516040518463ffffffff1660e01b81526004016120cd93929190615ae8565b600060405180830381600087803b1580156120e757600080fd5b505af11580156120fb573d6000803e3d6000fd5b505050508061210990615372565b9050612034565b5061013160009054906101000a90046001600160a01b03166001600160a01b0316634dabab106040518163ffffffff1660e01b8152600401602060405180830381865afa158015612165573d6000803e3d6000fd5b505050506040513d601f19601f820116820180604052508101906121899190615b07565b61154357611543615b24565b600080516020615f468339815191526121ad8161227b565b610139805462ff0000191690556101355461012e5461012d5460405162d9568360e21b8152600481019290925260248201526001600160a01b03909116906303655a0c90604401611515565b600080516020615ebf8339815191526122118161227b565b6101355460405163b3c2d50b60e01b81523060048201526001600160a01b0384811660248301529091169063b3c2d50b90604401600060405180830381600087803b15801561225f57600080fd5b505af1158015612273573d6000803e3d6000fd5b505050505050565b6107428133613851565b61228f828261147e565b6107ee57600082815260c9602090815260408083206001600160a01b03851684529091529020805460ff191660011790556122c73390565b6001600160a01b0316816001600160a01b0316837f2f8788117e7eff1d82e926ec794901d17c78024a50270940304540a733656f0d60405160405180910390a45050565b612315828261147e565b156107ee57600082815260c9602090815260408083206001600160a01b0385168085529252808320805460ff1916905551339285917ff6391f5c32d9c69d2a47ea670b442974b53935d1edc7fd64eb21e047a839171b9190a45050565b600080516020615eff833981519152546001600160a01b031690565b7f4910fdfa16fed3260ed0e7147f7cc6da11a60208b5b9406d12a635614ffd91435460ff16156123c15761076a836138aa565b826001600160a01b03166352d1902d6040518163ffffffff1660e01b8152600401602060405180830381865afa92505050801561241b575060408051601f3d908101601f1916820190925261241891810190615bc6565b60015b61247e5760405162461bcd60e51b815260206004820152602e60248201527f45524331393637557067726164653a206e657720696d706c656d656e7461746960448201526d6f6e206973206e6f74205555505360901b60648201526084016107db565b600080516020615eff83398151915281146124ed5760405162461bcd60e51b815260206004820152602960248201527f45524331393637557067726164653a20756e737570706f727465642070726f786044820152681a58589b195555525160ba1b60648201526084016107db565b5061076a838383613944565b6000808260011415801561250c57508215155b1561252d576040516362c115eb60e11b8152600481018490526024016107db565b6000604051806101e001604052808660008151811061254e5761254e61535c565b60200260200101516040015181526020016001815260200187518152602001866000815181106125805761258061535c565b6020026020010151606001518152602001600081526020016000815260200160008152602001600081526020016000815260200160008152602001600081526020016000815260200160001515815260200160008152602001600081525090506125ff86600183604001516125f59190615310565b835160009061396f565b604083015260808201819052606082015161261a9190613a1f565b60a08201525b84518160200151108015612638575085518160400151105b156127a657602081015160c08201819052604082015160e0830152606082015161010083015260808201516101208301528551869190811061267c5761267c61535c565b602002602001015160400151816101400181815250505b84518160c001511080156126cc5750806101400151858260c00151815181106126be576126be61535c565b602002602001015160400151145b1561271a5760c08101805186916126e282615372565b9052815181106126f4576126f461535c565b60200260200101516060015181610100018181516127129190615bdf565b905250612693565b612734868260e00151836101200151846101400151613a36565b60e083015261012082018190526101008201516127519190613a1f565b610160820181905260a082015110156127a65760c0810151602082015260e0810151604082015261010081015160608201526101208101516080820152610140810151815261016081015160a0820152612620565b84518160200151106127ba576000196127dd565b848160200151815181106127d0576127d061535c565b6020026020010151604001515b6101408201525b8551816040015110156128f857604081015160e08201819052865187919081106128105761281061535c565b6020908102919091010151604001516101a08201819052608082015161012083015261014082015111156128f8575b85518160e001511080156128785750806101a00151868260e001518151811061286a5761286a61535c565b602002602001015160400151145b156128c65760e081018051879161288e82615372565b9052815181106128a0576128a061535c565b60200260200101516060015181610120018181516128be9190615310565b90525061283f565b8060600151816101200151106128f8576001610180820152610120810151608082015260e081015160408201526127e4565b8061018001511561297057855181604001511461293657858160400151815181106129255761292561535c565b602002602001015160400151612965565b85600182604001516129489190615310565b815181106129585761295861535c565b6020026020010151604001515b6101c0820152612979565b80516101c08201525b6020810180519061298982615bf2565b8152505083600103612aea5760208101515b6000811180156129e85750858260200151815181106129bc576129bc61535c565b6020026020010151604001518682815181106129da576129da61535c565b602002602001015160400151145b156129ff576129f8600182615310565b905061299b565b604082015187518103612a1a57612a17600182615310565b90505b60018851612a289190615310565b81108015612a73575087836040015181518110612a4757612a4761535c565b602002602001015160400151888281518110612a6557612a6561535c565b602002602001015160400151145b15612a8a57612a83600182615bdf565b9050612a1a565b6002888281518110612a9e57612a9e61535c565b602002602001015160400151888481518110612abc57612abc61535c565b602002602001015160400151612ad29190615bdf565b612adc919061533a565b6101c084015250612b6e9050565b8551816040015103612b0d57600181604001818151612b099190615310565b9052505b600286826040015181518110612b2557612b2561535c565b60200260200101516040015186836020015181518110612b4757612b4761535c565b602002602001015160400151612b5d9190615bdf565b612b67919061533a565b6101c08201525b806101c0015185826020015181518110612b8a57612b8a61535c565b60200260200101516040015111612c415760208101805190612bab82615372565b9052505b84518160200151108015612be95750806101c0015185826020015181518110612bda57612bda61535c565b60200260200101516040015111155b15612c3c5784816020015181518110612c0457612c0461535c565b60200260200101516060015181606001818151612c219190615bdf565b90525060208101805190612c3482615372565b905250612baf565b612cc7565b806101c0015185826020015181518110612c5d57612c5d61535c565b6020026020010151604001511115612cc75784816020015181518110612c8557612c8561535c565b60200260200101516060015181606001818151612ca29190615310565b905250602081015115612cc75760208101805190612cbf82615bf2565b905250612c41565b85518160400151108015612d005750806101c0015186826040015181518110612cf257612cf261535c565b602002602001015160400151105b15612d2d57612d1e8682604001518360800151846101c00151613a36565b60408301526080820152612d67565b604081015115612d6757612d5c8660018360400151612d4c9190615310565b8360800151846101c0015161396f565b604083015260808201525b806101c00151612d7f82608001518360600151613a1f565b9250925050935093915050565b6001600160a01b03163b151590565b600054610100900460ff16612dc25760405162461bcd60e51b81526004016107db90615c09565b565b600054610100900460ff16612deb5760405162461bcd60e51b81526004016107db90615c09565b612dc2613ab7565b600080612e416040518060200160405280670de0b6b3a7640000815250612e3c604051806020016040528061013054815250604051806020016040528061013754815250613ae5565b613b2d565b9050612e75612e706040518060200160405280670de0b6b3a764000087612e689190615323565b905283613ae5565b613b59565b9392505050565b60008290506000816001600160a01b031663228d5cc66040518163ffffffff1660e01b8152600401602060405180830381865afa158015612ec1573d6000803e3d6000fd5b505050506040513d601f19601f82011682018060405250810190612ee59190615c54565b6040516364deb92b60e11b81529091506001600160a01b0382169063c9bd725690612f149086906004016149da565b600060405180830381600087803b158015612f2e57600080fd5b505af1158015612f42573d6000803e3d6000fd5b5050505050505050565b600080612f57613b71565b600080612f688686610138546124f9565b61013782905590945092505050612f7f600160fb55565b9250929050565b82516000908190819081905b801561344357612fa3600182615310565b9150600080612fd08a8581518110612fbd57612fbd61535c565b6020026020010151604001518b86613bca565b91509150610137548a8581518110612fea57612fea61535c565b6020026020010151604001511015801561300357508886105b80156130185750613014868a615310565b8111155b156130b357600094505b8161302d8686615310565b106130905761305d8a6130408787615310565b815181106130505761305061535c565b6020026020010151613c6e565b6130679087615bdf565b95508484036130805761307985615372565b9450613090565b61308985615372565b9450613022565b84156130ae576130a1600186615310565b6130ab9084615310565b92505b613430565b610137548a85815181106130c9576130c961535c565b602002602001015160400151101580156130e257508886105b156132f757600094505b816130f78686615310565b1061309057816131078686615310565b0361316a576131438a61311a8787615310565b8151811061312a5761312a61535c565b6020026020010151878b61313e9190615310565b613dbb565b61314d9087615bdf565b9550613159868a615310565b6131639082615310565b90506132d7565b60008a6131778787615310565b815181106131875761318761535c565b6020026020010151606001519050600061320860405180602001604052808c60126131b29190615310565b6131bd90600a615d55565b8b8f6131c99190615310565b6131d39190615323565b90526040805160208101909152806131ec8e6012615310565b6131f790600a615d55565b6132019088615323565b9052613ee8565b905060006132178b6012615310565b61322290600a615d55565b61325a8360405180602001604052808f601261323e9190615310565b61324990600a615d55565b6132539089615323565b9052613ae5565b51613265919061533a565b90506132938d6132758a8a615310565b815181106132855761328561535c565b602002602001015182613dbb565b61329d908a615bdf565b98508c6132aa8989615310565b815181106132ba576132ba61535c565b602002602001015160600151846132d19190615310565b93505050505b8484036132e75761307985615372565b6132f085615372565b94506130ec565b8984815181106133095761330961535c565b602002602001015160e001511561334e576130ae8a858151811061332f5761332f61535c565b602002602001015161010001518b8681518110610f6357610f6361535c565b610132548a516001600160a01b0390911690630283ce5b908c90879081106133785761337861535c565b6020026020010151600001518c87815181106133965761339661535c565b6020026020010151602001518d88815181106133b4576133b461535c565b602002602001015160c001518e89815181106133d2576133d261535c565b6020026020010151608001516040518563ffffffff1660e01b81526004016133fd9493929190615aac565b600060405180830381600087803b15801561341757600080fd5b505af115801561342b573d6000803e3d6000fd5b505050505b50508061343c90615bf2565b9050612f92565b50919695505050505050565b60008080805b8651811015613846576000806134898984815181106134765761347661535c565b6020026020010151604001518a85613f22565b91509150610137548984815181106134a3576134a361535c565b602002602001015160400151111580156134bc57508785105b80156134d157506134cd8589615310565b8111155b1561355557600093505b816134e68486615bdf565b1161353257613516896134f98587615bdf565b815181106135095761350961535c565b6020026020010151613fd1565b6135209086615bdf565b945061352b84615372565b93506134db565b831561355057613543600185615310565b61354d9084615bdf565b92505b613833565b6101375489848151811061356b5761356b61535c565b6020026020010151604001511115801561358457508785105b1561377057600093505b816135998486615bdf565b1161353257816135a98486615bdf565b0361360c576135e5896135bc8587615bdf565b815181106135cc576135cc61535c565b6020026020010151868a6135e09190615310565b614099565b6135ef9086615bdf565b94506135fb8589615310565b6136059082615310565b905061375e565b6000896136198587615bdf565b815181106136295761362961535c565b6020026020010151606001519050600061368c60405180602001604052808b60126136549190615310565b61365f90600a615d55565b6136698b8f615310565b6136739190615323565b90526040805160208101909152806131ec8d6012615310565b905060008461369b8789615bdf565b036136af576136aa888c615310565b6136ec565b6136ba8a6012615310565b6136c590600a615d55565b6136e18360405180602001604052808e601261323e9190615310565b516136ec919061533a565b905061371a8c6136fc888a615bdf565b8151811061370c5761370c61535c565b602002602001015182614099565b6137249089615bdf565b97508b6137318789615bdf565b815181106137415761374161535c565b602002602001015160600151846137589190615310565b93505050505b8361376881615372565b94505061358e565b6101335489516001600160a01b0390911690630c57f414908b908690811061379a5761379a61535c565b6020026020010151600001518b86815181106137b8576137b861535c565b6020026020010151602001518c87815181106137d6576137d661535c565b6020026020010151606001516040518463ffffffff1660e01b815260040161380093929190615ae8565b600060405180830381600087803b15801561381a57600080fd5b505af115801561382e573d6000803e3d6000fd5b505050505b50508061383f90615372565b9050613455565b509095945050505050565b61385b828261147e565b6107ee57613868816141d4565b6138738360206141e6565b604051602001613884929190615d61565b60408051601f198184030181529082905262461bcd60e51b82526107db91600401614f71565b6138b381612d8c565b6139155760405162461bcd60e51b815260206004820152602d60248201527f455243313936373a206e657720696d706c656d656e746174696f6e206973206e60448201526c1bdd08184818dbdb9d1c9858dd609a1b60648201526084016107db565b600080516020615eff83398151915280546001600160a01b0319166001600160a01b0392909216919091179055565b61394d83614381565b60008251118061395a5750805b1561076a5761396983836143c1565b50505050565b60008083855b848882815181106139885761398861535c565b602002602001015160400151106139da578781815181106139ab576139ab61535c565b602002602001015160600151826139c29190615bdf565b915080156139da576139d381615bf2565b9050613975565b81858983815181106139ee576139ee61535c565b60200260200101516040015110613a055781613a10565b613a10826001615bdf565b93509350505094509492505050565b6000818310613a2f575080610733565b5081610733565b60008083855b875181108015613a68575084888281518110613a5a57613a5a61535c565b602002602001015160400151105b15613aaa57878181518110613a7f57613a7f61535c565b60200260200101516060015182613a969190615310565b915080613aa281615372565b915050613a3c565b9097909650945050505050565b600054610100900460ff16613ade5760405162461bcd60e51b81526004016107db90615c09565b600160fb55565b6040805160208101909152600081526040518060200160405280670de0b6b3a7640000613b1a866000015186600001516143e6565b613b24919061533a565b90529392505050565b6040805160208101909152600081526040518060200160405280613b24856000015185600001516143f2565b805160009061073390670de0b6b3a76400009061533a565b600260fb5403613bc35760405162461bcd60e51b815260206004820152601f60248201527f5265656e7472616e637947756172643a207265656e7472616e742063616c6c0060448201526064016107db565b600260fb55565b600080829150838281518110613be257613be261535c565b60200260200101516060015190505b811580613c2557508484613c06600185615310565b81518110613c1657613c1661535c565b60200260200101516040015114155b610a2d5783613c35600184615310565b81518110613c4557613c4561535c565b60200260200101516060015181613c5c9190615bdf565b9050613c6782615bf2565b9150613bf1565b6000613c78613b71565b6000613c878360600151612df3565b90508260e00151613d1b57610131546020840151606085015160c0860151608087015161013054604051635115f4e560e11b81526001600160a01b039096169563a22be9ca95613ce4959094909389939192909190600401615dd0565b600060405180830381600087803b158015613cfe57600080fd5b505af1158015613d12573d6000803e3d6000fd5b50505050613d34565b613d3483602001518460600151838661010001516143fe565b6101355461012e54845160608601516040516303e852b160e01b81526001600160a01b03909416936303e852b193613d729390929091600401615bb0565b600060405180830381600087803b158015613d8c57600080fd5b505af1158015613da0573d6000803e3d6000fd5b505050508260600151915050613db6600160fb55565b919050565b6000613dc5613b71565b6000613dd083612df3565b90508360e00151613e5a5761013154602085015160c0860151608087015161013054604051635115f4e560e11b81526001600160a01b039095169463a22be9ca94613e239490938a938993600401615dd0565b600060405180830381600087803b158015613e3d57600080fd5b505af1158015613e51573d6000803e3d6000fd5b50505050613e6f565b613e6f846020015184838761010001516143fe565b6101355461012e5485516040516303e852b160e01b81526001600160a01b03909316926303e852b192613ea89290918890600401615bb0565b600060405180830381600087803b158015613ec257600080fd5b505af1158015613ed6573d6000803e3d6000fd5b5050505082915050610733600160fb55565b6040805160208101909152600081526040518060200160405280613b24613f1b8660000151670de0b6b3a76400006143e6565b8551614883565b600080829150838281518110613f3a57613f3a61535c565b60200260200101516060015190505b60018451613f579190615310565b821015610a2d578484613f6b846001615bdf565b81518110613f7b57613f7b61535c565b60200260200101516040015103610a2d5783613f98836001615bdf565b81518110613fa857613fa861535c565b60200260200101516060015181613fbf9190615bdf565b9050613fca82615372565b9150613f49565b6000613fdb613b71565b6000613fea8360600151612df3565b610131546020850151606086015186516040516308f9231360e31b81529495506001600160a01b03909316936347c918989361402d939291879190600401615e23565b600060405180830381600087803b15801561404757600080fd5b505af115801561405b573d6000803e3d6000fd5b50506101355461012e548651606088015160405163ba0cf0ab60e01b81526001600160a01b03909416955063ba0cf0ab9450613d7293600401615bb0565b60006140a3613b71565b60006140ae83612df3565b61013154602086015186516040516308f9231360e31b81529394506001600160a01b03909216926347c91898926140ec929188918791600401615e23565b600060405180830381600087803b15801561410657600080fd5b505af115801561411a573d6000803e3d6000fd5b5050610133548651602088015160608901516001600160a01b039093169450630c57f4149350909161414d908890615310565b6040518463ffffffff1660e01b815260040161416b93929190615ae8565b600060405180830381600087803b15801561418557600080fd5b505af1158015614199573d6000803e3d6000fd5b50506101355461012e54875160405163ba0cf0ab60e01b81526001600160a01b03909316945063ba0cf0ab9350613ea8928890600401615bb0565b60606107336001600160a01b03831660145b606060006141f5836002615323565b614200906002615bdf565b6001600160401b0381111561421757614217614a74565b6040519080825280601f01601f191660200182016040528015614241576020820181803683370190505b509050600360fc1b8160008151811061425c5761425c61535c565b60200101906001600160f81b031916908160001a905350600f60fb1b8160018151811061428b5761428b61535c565b60200101906001600160f81b031916908160001a90535060006142af846002615323565b6142ba906001615bdf565b90505b6001811115614332576f181899199a1a9b1b9c1cb0b131b232b360811b85600f16601081106142ee576142ee61535c565b1a60f81b8282815181106143045761430461535c565b60200101906001600160f81b031916908160001a90535060049490941c9361432b81615bf2565b90506142bd565b508315612e755760405162461bcd60e51b815260206004820181905260248201527f537472696e67733a20686578206c656e67746820696e73756666696369656e7460448201526064016107db565b61438a816138aa565b6040516001600160a01b038216907fbc7cd75a20ee27fd9adebab32041f755214dbc6bffa90cc0225b39da2e5c2d3b90600090a250565b6060612e758383604051806060016040528060278152602001615f1f6027913961488f565b6000612e758284615323565b6000612e758284615bdf565b6000819050600061013160009054906101000a90046001600160a01b03166001600160a01b031663c99aa678878787866001600160a01b0316635c4b440e6040518163ffffffff1660e01b8152600401602060405180830381865afa15801561446b573d6000803e3d6000fd5b505050506040513d601f19601f8201168201806040525081019061448f9190615c54565b6101305460405160e087901b6001600160e01b03191681526001600160a01b039586166004820152602481019490945260448401929092529092166064820152608481019190915260a4016020604051808303816000875af11580156144f9573d6000803e3d6000fd5b505050506040513d601f19601f8201168201806040525081019061451d9190615bc6565b604051631b433b1160e01b81526001600160a01b03888116600483015260248201839052919250600091841690631b433b11906044016020604051808303816000875af1158015614572573d6000803e3d6000fd5b505050506040513d601f19601f820116820180604052508101906145969190615bc6565b90506000836001600160a01b0316633de81dc46040518163ffffffff1660e01b8152600401602060405180830381865afa1580156145d8573d6000803e3d6000fd5b505050506040513d601f19601f820116820180604052508101906145fc9190615c54565b9050600080826001600160a01b0316633d0dda788b8661013160009054906101000a90046001600160a01b03166001600160a01b0316635c4b440e6040518163ffffffff1660e01b8152600401602060405180830381865afa158015614666573d6000803e3d6000fd5b505050506040513d601f19601f8201168201806040525081019061468a9190615c54565b60405160e085901b6001600160e01b03191681526001600160a01b039384166004820152602481019290925290911660448201526064016000604051808303816000875af11580156146e0573d6000803e3d6000fd5b505050506040513d6000823e601f3d908101601f191682016040526147089190810190615e49565b91509150600061013160009054906101000a90046001600160a01b03166001600160a01b0316633de81dc46040518163ffffffff1660e01b8152600401602060405180830381865afa158015614762573d6000803e3d6000fd5b505050506040513d601f19601f820116820180604052508101906147869190615c54565b905060005b83518110156148755760008382815181106147a8576147a861535c565b6020026020010151111561486557816001600160a01b031663790cb4918d8684815181106147d8576147d861535c565b60200260200101518685815181106147f2576147f261535c565b60209081029190910101516040516001600160e01b031960e086901b1681526001600160a01b0393841660048201529290911660248301526044820152606401600060405180830381600087803b15801561484c57600080fd5b505af1158015614860573d6000803e3d6000fd5b505050505b61486e81615372565b905061478b565b505050505050505050505050565b6000612e75828461533a565b6060600080856001600160a01b0316856040516148ac9190615ea2565b600060405180830381855af49150503d80600081146148e7576040519150601f19603f3d011682016040523d82523d6000602084013e6148ec565b606091505b50915091506148fd86838387614907565b9695505050505050565b6060831561497457825160000361496d5761492185612d8c565b61496d5760405162461bcd60e51b815260206004820152601d60248201527f416464726573733a2063616c6c20746f206e6f6e2d636f6e747261637400000060448201526064016107db565b508161497e565b61497e8383614986565b949350505050565b8151156149965781518083602001fd5b8060405162461bcd60e51b81526004016107db9190614f71565b6000602082840312156149c257600080fd5b81356001600160e01b031981168114612e7557600080fd5b6001600160a01b0391909116815260200190565b6001600160a01b038116811461074257600080fd5b8035613db6816149ee565b600060208284031215614a2057600080fd5b8135612e75816149ee565b600060208284031215614a3d57600080fd5b5035919050565b60008060408385031215614a5757600080fd5b823591506020830135614a69816149ee565b809150509250929050565b634e487b7160e01b600052604160045260246000fd5b60405160a081016001600160401b0381118282101715614aac57614aac614a74565b60405290565b60405161012081016001600160401b0381118282101715614aac57614aac614a74565b60405161016081016001600160401b0381118282101715614aac57614aac614a74565b60405160e081016001600160401b0381118282101715614aac57614aac614a74565b604051601f8201601f191681016001600160401b0381118282101715614b4257614b42614a74565b604052919050565b60008060408385031215614b5d57600080fd5b8235614b68816149ee565b91506020838101356001600160401b0380821115614b8557600080fd5b818601915086601f830112614b9957600080fd5b813581811115614bab57614bab614a74565b614bbd601f8201601f19168501614b1a565b91508082528784828501011115614bd357600080fd5b80848401858401376000848284010152508093505050509250929050565b60006001600160401b03821115614c0a57614c0a614a74565b5060051b60200190565b600082601f830112614c2557600080fd5b81356020614c3a614c3583614bf1565b614b1a565b82815260059290921b84018101918181019086841115614c5957600080fd5b8286015b84811015614c745780358352918301918301614c5d565b509695505050505050565b600082601f830112614c9057600080fd5b81356020614ca0614c3583614bf1565b82815260059290921b84018101918181019086841115614cbf57600080fd5b8286015b84811015614c74578035614cd6816149ee565b8352918301918301614cc3565b801515811461074257600080fd5b8035613db681614ce3565b600082601f830112614d0d57600080fd5b81356020614d1d614c3583614bf1565b82815260a09283028501820192828201919087851115614d3c57600080fd5b8387015b85811015614da95781818a031215614d585760008081fd5b614d60614a8a565b8135815285820135614d71816149ee565b818701526040828101359082015260608083013590820152608080830135614d98816149ee565b908201528452928401928101614d40565b5090979650505050505050565b600080600060608486031215614dcb57600080fd5b83356001600160401b0380821115614de257600080fd5b818601915086601f830112614df657600080fd5b81356020614e06614c3583614bf1565b82815260059290921b8401810191818101908a841115614e2557600080fd5b8286015b84811015614f1857803586811115614e4057600080fd5b8701610120818e03601f19011215614e5757600080fd5b614e5f614ab2565b858201358152614e7160408301614a03565b86820152606082013560408201526080820135606082015260a082013588811115614e9b57600080fd5b614ea98f8883860101614c14565b608083015250614ebb60c08301614a03565b60a082015260e082013588811115614ed257600080fd5b614ee08f8883860101614c7f565b60c083015250610100614ef4818401614cf1565b60e0830152614f066101208401614a03565b90820152845250918301918301614e29565b5097505087013592505080821115614f2f57600080fd5b50614f3c86828701614cfc565b925050604084013590509250925092565b60005b83811015614f68578181015183820152602001614f50565b50506000910152565b6020815260008251806020840152614f90816040850160208701614f4d565b601f01601f19169190910160400192915050565b60008083601f840112614fb657600080fd5b5081356001600160401b03811115614fcd57600080fd5b602083019150836020828501011115612f7f57600080fd5b6000806000806000806000806000806101008b8d03121561500557600080fd5b8a356001600160401b038082111561501c57600080fd5b6150288e838f01614fa4565b909c509a5060208d013591508082111561504157600080fd5b5061504e8d828e01614fa4565b90995097505060408b0135955060608b0135945060808b0135935060a08b0135615077816149ee565b925060c08b0135615087816149ee565b8092505060e08b013590509295989b9194979a5092959850565b60008083601f8401126150b357600080fd5b5081356001600160401b038111156150ca57600080fd5b6020830191508360208260051b8501011115612f7f57600080fd5b600080600080604085870312156150fb57600080fd5b84356001600160401b038082111561511257600080fd5b61511e888389016150a1565b9096509450602087013591508082111561513757600080fd5b50615144878288016150a1565b95989497509550505050565b60006020828403121561516257600080fd5b81356001600160401b0381111561517857600080fd5b820160a08185031215612e7557600080fd5b60008060008060008060008060006101008a8c0312156151a957600080fd5b89356151b4816149ee565b985060208a01356151c4816149ee565b975060408a01356151d4816149ee565b965060608a01356151e4816149ee565b955060808a01356151f4816149ee565b945060a08a0135615204816149ee565b935060c08a0135615214816149ee565b925060e08a01356001600160401b0381111561522f57600080fd5b61523b8c828d01614fa4565b915080935050809150509295985092959850929598565b6020808252602c908201527f46756e6374696f6e206d7573742062652063616c6c6564207468726f7567682060408201526b19195b1959d85d1958d85b1b60a21b606082015260800190565b6020808252602c908201527f46756e6374696f6e206d7573742062652063616c6c6564207468726f7567682060408201526b6163746976652070726f787960a01b606082015260800190565b8183823760009101908152919050565b634e487b7160e01b600052601160045260246000fd5b81810381811115610733576107336152fa565b8082028115828204841417610733576107336152fa565b60008261535757634e487b7160e01b600052601260045260246000fd5b500490565b634e487b7160e01b600052603260045260246000fd5b600060018201615384576153846152fa565b5060010190565b92835290151560208301521515604082015260600190565b6000808335601e198436030181126153ba57600080fd5b8301803591506001600160401b038211156153d457600080fd5b6020019150600581901b3603821315612f7f57600080fd5b81835260006001600160fb1b0383111561540557600080fd5b8260051b80836020870137939093016020019392505050565b60608152600061543260608301888a6153ec565b82810360208401526154458187896153ec565b9050828103604084015261545a8185876153ec565b9998505050505050505050565b8051613db6816149ee565b600082601f83011261548357600080fd5b81516020615493614c3583614bf1565b82815260059290921b840181019181810190868411156154b257600080fd5b8286015b84811015614c7457805183529183019183016154b6565b600082601f8301126154de57600080fd5b815160206154ee614c3583614bf1565b82815260059290921b8401810191818101908684111561550d57600080fd5b8286015b84811015614c74578051615524816149ee565b8352918301918301615511565b8051613db681614ce3565b600082601f83011261554d57600080fd5b8151602061555d614c3583614bf1565b82815260059290921b8401810191818101908684111561557c57600080fd5b8286015b84811015614c745780516001600160401b03808211156155a05760008081fd5b90880190610160828b03601f19018113156155bb5760008081fd5b6155c3614ad5565b87840151815260406155d6818601615467565b89830152606080860151828401526080915081860151818401525060a0808601518284015260c0915081860151858111156156115760008081fd5b61561f8f8c838a0101615472565b82850152505060e0615632818701615467565b828401526101009150818601518581111561564d5760008081fd5b61565b8f8c838a01016154cd565b8285015250506101209350615671848601615531565b90820152610140615683858201615467565b84830152615692838601615531565b908201528652505050918301918301615580565b600080604083850312156156b957600080fd5b82516001600160401b03808211156156d057600080fd5b818501915085601f8301126156e457600080fd5b815160206156f4614c3583614bf1565b82815260059290921b8401810191818101908984111561571357600080fd5b8286015b848110156158075780518681111561572e57600080fd5b8701610120818d03601f190181131561574657600080fd5b61574e614ab2565b86830151815261576060408401615467565b87820152606083015160408201526080830151606082015260a08301518981111561578a57600080fd5b6157988f8983870101615472565b6080830152506157aa60c08401615467565b60a082015260e0830151898111156157c25760008081fd5b6157d08f89838701016154cd565b60c0830152506101006157e4818501615531565b60e08301526157f4838501615467565b9082015285525050918301918301615717565b509188015191965090935050508082111561582157600080fd5b5061582e8582860161553c565b9150509250929050565b60408152600061584c6040830186886153ec565b828103602084015261585f8185876153ec565b979650505050505050565b600082601f83011261587b57600080fd5b8151602061588b614c3583614bf1565b82815260e092830285018201928282019190878511156158aa57600080fd5b8387015b85811015614da95781818a0312156158c65760008081fd5b6158ce614af8565b81518152858201516158df816149ee565b8187015260408281015190820152606080830151908201526080808301519082015260a080830151615910816149ee565b9082015260c08281015161592381614ce3565b9082015284529284019281016158ae565b600080604080848603121561594857600080fd5b83516001600160401b038082111561595f57600080fd5b818601915086601f83011261597357600080fd5b81516020615983614c3583614bf1565b82815260a0928302850182019282820191908b8511156159a257600080fd5b958301955b84871015615a105780878d0312156159bf5760008081fd5b6159c7614a8a565b87518152848801516159d8816149ee565b818601528789015189820152606080890151908201526080808901516159fd816149ee565b90820152835295860195918301916159a7565b5091890151919750909450505080831115615a2a57600080fd5b505061582e8582860161586a565b600081518084526020808501945080840160005b83811015615a715781516001600160a01b031687529582019590820190600101615a4c565b509495945050505050565b600081518084526020808501945080840160005b83811015615a7157815187529582019590820190600101615a90565b8481526001600160a01b0384166020820152608060408201819052600090615ad690830185615a38565b828103606084015261585f8185615a7c565b9283526001600160a01b03919091166020830152604082015260600190565b600060208284031215615b1957600080fd5b8151612e7581614ce3565b634e487b7160e01b600052600160045260246000fd5b86815285602082015260018060a01b038516604082015283606082015260a060808201528160a0820152818360c0830137600081830160c090810191909152601f909201601f1916010195945050505050565b600060208284031215615b9f57600080fd5b815160ff81168114612e7557600080fd5b9283526020830191909152604082015260600190565b600060208284031215615bd857600080fd5b5051919050565b80820180821115610733576107336152fa565b600081615c0157615c016152fa565b506000190190565b6020808252602b908201527f496e697469616c697a61626c653a20636f6e7472616374206973206e6f74206960408201526a6e697469616c697a696e6760a81b606082015260800190565b600060208284031215615c6657600080fd5b8151612e75816149ee565b600181815b80851115615cac578160001904821115615c9257615c926152fa565b80851615615c9f57918102915b93841c9390800290615c76565b509250929050565b600082615cc357506001610733565b81615cd057506000610733565b8160018114615ce65760028114615cf057615d0c565b6001915050610733565b60ff841115615d0157615d016152fa565b50506001821b610733565b5060208310610133831016604e8410600b8410161715615d2f575081810a610733565b615d398383615c71565b8060001904821115615d4d57615d4d6152fa565b029392505050565b6000612e758383615cb4565b76020b1b1b2b9b9a1b7b73a3937b61d1030b1b1b7bab73a1604d1b815260008351615d93816017850160208801614f4d565b7001034b99036b4b9b9b4b733903937b6329607d1b6017918401918201528351615dc4816028840160208801614f4d565b01602801949350505050565b60018060a01b038716815285602082015284604082015260c060608201526000615dfd60c0830186615a38565b8281036080840152615e0f8186615a7c565b9150508260a0830152979650505050505050565b6001600160a01b0394909416845260208401929092526040830152606082015260800190565b60008060408385031215615e5c57600080fd5b82516001600160401b0380821115615e7357600080fd5b615e7f868387016154cd565b93506020850151915080821115615e9557600080fd5b5061582e85828601615472565b60008251615eb4818460208701614f4d565b919091019291505056fe793a6c9b7e0a9549c74edc2f9ae0dc50903dfaa9a56fb0116b27a8c71de3e2c630d41a597cac127d8249d31298b50e481ee82c3f4a49ff93c76a22735aa9f3ad360894a13ba1a3210667c828492db98dca3e2076cc3735a920a3ca505d382bbc416464726573733a206c6f772d6c6576656c2064656c65676174652063616c6c206661696c6564a49807205ce4d355092ef5a8a18f56e8913cf4a201fbe287825b095693c21775a2646970667358221220fb1268a1911d39b29451d0c233f2d673295a23c510b4db271631e8a605fa565564736f6c63430008120033",
  "linkReferences": {},
  "deployedLinkReferences": {}
}