{
  "_format": "hh-sol-artifact-1",
  "contractName": "TestingTermAuction",
  "sourceName": "contracts/test/TestingTermAuction.sol",
  "abi": [
    {
      "inputs": [],
      "name": "AccessControlBadConfirmation",
      "type": "error"
    },
    {
      "inputs": [
        {
          "internalType": "address",
          "name": "account",
          "type": "address"
        },
        {
          "internalType": "bytes32",
          "name": "neededRole",
          "type": "bytes32"
        }
      ],
      "name": "AccessControlUnauthorizedAccount",
      "type": "error"
    },
    {
      "inputs": [
        {
          "internalType": "address",
          "name": "target",
          "type": "address"
        }
      ],
      "name": "AddressEmptyCode",
      "type": "error"
    },
    {
      "inputs": [],
      "name": "AlreadyTermContractPaired",
      "type": "error"
    },
    {
      "inputs": [
        {
          "internalType": "bytes32",
          "name": "bidId",
          "type": "bytes32"
        }
      ],
      "name": "AssignedZeroAmount",
      "type": "error"
    },
    {
      "inputs": [],
      "name": "AuctionAlreadyCompleted",
      "type": "error"
    },
    {
      "inputs": [],
      "name": "AuctionCancelledForWithdrawal",
      "type": "error"
    },
    {
      "inputs": [],
      "name": "AuctionNotClosed",
      "type": "error"
    },
    {
      "inputs": [
        {
          "internalType": "uint256",
          "name": "clearingOffset",
          "type": "uint256"
        }
      ],
      "name": "ClearingOffsetNot0Or1",
      "type": "error"
    },
    {
      "inputs": [],
      "name": "CompleteAuctionPaused",
      "type": "error"
    },
    {
      "inputs": [
        {
          "internalType": "address",
          "name": "implementation",
          "type": "address"
        }
      ],
      "name": "ERC1967InvalidImplementation",
      "type": "error"
    },
    {
      "inputs": [],
      "name": "ERC1967NonPayable",
      "type": "error"
    },
    {
      "inputs": [],
      "name": "FailedCall",
      "type": "error"
    },
    {
      "inputs": [],
      "name": "InvalidInitialization",
      "type": "error"
    },
    {
      "inputs": [
        {
          "internalType": "string",
          "name": "message",
          "type": "string"
        }
      ],
      "name": "InvalidParameters",
      "type": "error"
    },
    {
      "inputs": [
        {
          "internalType": "uint256",
          "name": "maxDepth",
          "type": "uint256"
        }
      ],
      "name": "MaxPriceSearchDepthExceeded",
      "type": "error"
    },
    {
      "inputs": [],
      "name": "NoBidsOrOffers",
      "type": "error"
    },
    {
      "inputs": [],
      "name": "NotInitializing",
      "type": "error"
    },
    {
      "inputs": [],
      "name": "ReentrancyGuardReentrantCall",
      "type": "error"
    },
    {
      "inputs": [],
      "name": "TermContractsPaused",
      "type": "error"
    },
    {
      "inputs": [],
      "name": "UUPSUnauthorizedCallContext",
      "type": "error"
    },
    {
      "inputs": [
        {
          "internalType": "bytes32",
          "name": "slot",
          "type": "bytes32"
        }
      ],
      "name": "UUPSUnsupportedProxiableUUID",
      "type": "error"
    },
    {
      "anonymous": false,
      "inputs": [
        {
          "indexed": false,
          "internalType": "uint64",
          "name": "version",
          "type": "uint64"
        }
      ],
      "name": "Initialized",
      "type": "event"
    },
    {
      "anonymous": false,
      "inputs": [
        {
          "indexed": true,
          "internalType": "bytes32",
          "name": "role",
          "type": "bytes32"
        },
        {
          "indexed": true,
          "internalType": "bytes32",
          "name": "previousAdminRole",
          "type": "bytes32"
        },
        {
          "indexed": true,
          "internalType": "bytes32",
          "name": "newAdminRole",
          "type": "bytes32"
        }
      ],
      "name": "RoleAdminChanged",
      "type": "event"
    },
    {
      "anonymous": false,
      "inputs": [
        {
          "indexed": true,
          "internalType": "bytes32",
          "name": "role",
          "type": "bytes32"
        },
        {
          "indexed": true,
          "internalType": "address",
          "name": "account",
          "type": "address"
        },
        {
          "indexed": true,
          "internalType": "address",
          "name": "sender",
          "type": "address"
        }
      ],
      "name": "RoleGranted",
      "type": "event"
    },
    {
      "anonymous": false,
      "inputs": [
        {
          "indexed": true,
          "internalType": "bytes32",
          "name": "role",
          "type": "bytes32"
        },
        {
          "indexed": true,
          "internalType": "address",
          "name": "account",
          "type": "address"
        },
        {
          "indexed": true,
          "internalType": "address",
          "name": "sender",
          "type": "address"
        }
      ],
      "name": "RoleRevoked",
      "type": "event"
    },
    {
      "anonymous": false,
      "inputs": [
        {
          "indexed": true,
          "internalType": "address",
          "name": "implementation",
          "type": "address"
        }
      ],
      "name": "Upgraded",
      "type": "event"
    },
    {
      "inputs": [],
      "name": "ADMIN_ROLE",
      "outputs": [
        {
          "internalType": "bytes32",
          "name": "",
          "type": "bytes32"
        }
      ],
      "stateMutability": "view",
      "type": "function"
    },
    {
      "inputs": [],
      "name": "DEFAULT_ADMIN_ROLE",
      "outputs": [
        {
          "internalType": "bytes32",
          "name": "",
          "type": "bytes32"
        }
      ],
      "stateMutability": "view",
      "type": "function"
    },
    {
      "inputs": [],
      "name": "DEVOPS_ROLE",
      "outputs": [
        {
          "internalType": "bytes32",
          "name": "",
          "type": "bytes32"
        }
      ],
      "stateMutability": "view",
      "type": "function"
    },
    {
      "inputs": [],
      "name": "INITIALIZER_ROLE",
      "outputs": [
        {
          "internalType": "bytes32",
          "name": "",
          "type": "bytes32"
        }
      ],
      "stateMutability": "view",
      "type": "function"
    },
    {
      "inputs": [],
      "name": "THREESIXTY_DAYCOUNT_SECONDS",
      "outputs": [
        {
          "internalType": "uint256",
          "name": "",
          "type": "uint256"
        }
      ],
      "stateMutability": "view",
      "type": "function"
    },
    {
      "inputs": [],
      "name": "UPGRADE_INTERFACE_VERSION",
      "outputs": [
        {
          "internalType": "string",
          "name": "",
          "type": "string"
        }
      ],
      "stateMutability": "view",
      "type": "function"
    },
    {
      "inputs": [],
      "name": "auctionCancelledForWithdrawal",
      "outputs": [
        {
          "internalType": "bool",
          "name": "",
          "type": "bool"
        }
      ],
      "stateMutability": "view",
      "type": "function"
    },
    {
      "inputs": [],
      "name": "auctionCompleted",
      "outputs": [
        {
          "internalType": "bool",
          "name": "",
          "type": "bool"
        }
      ],
      "stateMutability": "view",
      "type": "function"
    },
    {
      "inputs": [],
      "name": "auctionEndTime",
      "outputs": [
        {
          "internalType": "uint256",
          "name": "",
          "type": "uint256"
        }
      ],
      "stateMutability": "view",
      "type": "function"
    },
    {
      "inputs": [
        {
          "components": [
            {
              "internalType": "bytes32",
              "name": "id",
              "type": "bytes32"
            },
            {
              "internalType": "address",
              "name": "bidder",
              "type": "address"
            },
            {
              "internalType": "uint256",
              "name": "bidPriceRevealed",
              "type": "uint256"
            },
            {
              "internalType": "uint256",
              "name": "amount",
              "type": "uint256"
            },
            {
              "internalType": "uint256[]",
              "name": "collateralAmounts",
              "type": "uint256[]"
            },
            {
              "internalType": "address",
              "name": "purchaseToken",
              "type": "address"
            },
            {
              "internalType": "address[]",
              "name": "collateralTokens",
              "type": "address[]"
            },
            {
              "internalType": "bool",
              "name": "isRollover",
              "type": "bool"
            },
            {
              "internalType": "address",
              "name": "rolloverPairOffTermRepoServicer",
              "type": "address"
            }
          ],
          "internalType": "struct TermAuctionRevealedBid[]",
          "name": "sortedBids",
          "type": "tuple[]"
        },
        {
          "components": [
            {
              "internalType": "bytes32",
              "name": "id",
              "type": "bytes32"
            },
            {
              "internalType": "address",
              "name": "offeror",
              "type": "address"
            },
            {
              "internalType": "uint256",
              "name": "offerPriceRevealed",
              "type": "uint256"
            },
            {
              "internalType": "uint256",
              "name": "amount",
              "type": "uint256"
            },
            {
              "internalType": "address",
              "name": "purchaseToken",
              "type": "address"
            }
          ],
          "internalType": "struct TermAuctionRevealedOffer[]",
          "name": "sortedOffers",
          "type": "tuple[]"
        },
        {
          "internalType": "uint256",
          "name": "clearingOffset",
          "type": "uint256"
        }
      ],
      "name": "calculateClearingPrice",
      "outputs": [
        {
          "internalType": "uint256",
          "name": "",
          "type": "uint256"
        },
        {
          "internalType": "uint256",
          "name": "",
          "type": "uint256"
        }
      ],
      "stateMutability": "pure",
      "type": "function"
    },
    {
      "inputs": [
        {
          "internalType": "uint256",
          "name": "purchasePrice",
          "type": "uint256"
        }
      ],
      "name": "calculateRepurchasePrice",
      "outputs": [
        {
          "internalType": "uint256",
          "name": "",
          "type": "uint256"
        }
      ],
      "stateMutability": "view",
      "type": "function"
    },
    {
      "inputs": [
        {
          "components": [
            {
              "internalType": "bytes32[]",
              "name": "revealedBidSubmissions",
              "type": "bytes32[]"
            },
            {
              "internalType": "bytes32[]",
              "name": "expiredRolloverBids",
              "type": "bytes32[]"
            },
            {
              "internalType": "bytes32[]",
              "name": "unrevealedBidSubmissions",
              "type": "bytes32[]"
            },
            {
              "internalType": "bytes32[]",
              "name": "revealedOfferSubmissions",
              "type": "bytes32[]"
            },
            {
              "internalType": "bytes32[]",
              "name": "unrevealedOfferSubmissions",
              "type": "bytes32[]"
            }
          ],
          "internalType": "struct CompleteAuctionInput",
          "name": "completeAuctionInput",
          "type": "tuple"
        }
      ],
      "name": "cancelAuction",
      "outputs": [],
      "stateMutability": "nonpayable",
      "type": "function"
    },
    {
      "inputs": [
        {
          "internalType": "address[]",
          "name": "rolloverBorrowers",
          "type": "address[]"
        },
        {
          "internalType": "address[]",
          "name": "rolloverPairOffTermRepoServicer",
          "type": "address[]"
        }
      ],
      "name": "cancelAuctionForWithdrawal",
      "outputs": [],
      "stateMutability": "nonpayable",
      "type": "function"
    },
    {
      "inputs": [],
      "name": "clearingPrice",
      "outputs": [
        {
          "internalType": "uint256",
          "name": "",
          "type": "uint256"
        }
      ],
      "stateMutability": "view",
      "type": "function"
    },
    {
      "inputs": [],
      "name": "clearingPricePostProcessingOffset",
      "outputs": [
        {
          "internalType": "uint256",
          "name": "",
          "type": "uint256"
        }
      ],
      "stateMutability": "view",
      "type": "function"
    },
    {
      "inputs": [
        {
          "components": [
            {
              "internalType": "bytes32[]",
              "name": "revealedBidSubmissions",
              "type": "bytes32[]"
            },
            {
              "internalType": "bytes32[]",
              "name": "expiredRolloverBids",
              "type": "bytes32[]"
            },
            {
              "internalType": "bytes32[]",
              "name": "unrevealedBidSubmissions",
              "type": "bytes32[]"
            },
            {
              "internalType": "bytes32[]",
              "name": "revealedOfferSubmissions",
              "type": "bytes32[]"
            },
            {
              "internalType": "bytes32[]",
              "name": "unrevealedOfferSubmissions",
              "type": "bytes32[]"
            }
          ],
          "internalType": "struct CompleteAuctionInput",
          "name": "completeAuctionInput",
          "type": "tuple"
        }
      ],
      "name": "completeAuction",
      "outputs": [],
      "stateMutability": "nonpayable",
      "type": "function"
    },
    {
      "inputs": [],
      "name": "completeAuctionPaused",
      "outputs": [
        {
          "internalType": "bool",
          "name": "",
          "type": "bool"
        }
      ],
      "stateMutability": "view",
      "type": "function"
    },
    {
      "inputs": [],
      "name": "controller",
      "outputs": [
        {
          "internalType": "contract ITermController",
          "name": "",
          "type": "address"
        }
      ],
      "stateMutability": "view",
      "type": "function"
    },
    {
      "inputs": [],
      "name": "dayCountFractionMantissa",
      "outputs": [
        {
          "internalType": "uint256",
          "name": "",
          "type": "uint256"
        }
      ],
      "stateMutability": "view",
      "type": "function"
    },
    {
      "inputs": [
        {
          "internalType": "bytes32",
          "name": "role",
          "type": "bytes32"
        }
      ],
      "name": "getRoleAdmin",
      "outputs": [
        {
          "internalType": "bytes32",
          "name": "",
          "type": "bytes32"
        }
      ],
      "stateMutability": "view",
      "type": "function"
    },
    {
      "inputs": [
        {
          "internalType": "bytes32",
          "name": "role",
          "type": "bytes32"
        },
        {
          "internalType": "address",
          "name": "account",
          "type": "address"
        }
      ],
      "name": "grantRole",
      "outputs": [],
      "stateMutability": "nonpayable",
      "type": "function"
    },
    {
      "inputs": [
        {
          "internalType": "bytes32",
          "name": "role",
          "type": "bytes32"
        },
        {
          "internalType": "address",
          "name": "account",
          "type": "address"
        }
      ],
      "name": "hasRole",
      "outputs": [
        {
          "internalType": "bool",
          "name": "",
          "type": "bool"
        }
      ],
      "stateMutability": "view",
      "type": "function"
    },
    {
      "inputs": [
        {
          "internalType": "string",
          "name": "termRepoId_",
          "type": "string"
        },
        {
          "internalType": "string",
          "name": "auctionId_",
          "type": "string"
        },
        {
          "internalType": "uint256",
          "name": "auctionEndTime_",
          "type": "uint256"
        },
        {
          "internalType": "uint256",
          "name": "termStart_",
          "type": "uint256"
        },
        {
          "internalType": "uint256",
          "name": "redemptionTimestamp_",
          "type": "uint256"
        },
        {
          "internalType": "contract IERC20Metadata",
          "name": "purchaseToken_",
          "type": "address"
        },
        {
          "internalType": "address",
          "name": "termAuctionInitializer_",
          "type": "address"
        },
        {
          "internalType": "uint256",
          "name": "clearingPricePostProcessingOffset_",
          "type": "uint256"
        }
      ],
      "name": "initialize",
      "outputs": [],
      "stateMutability": "nonpayable",
      "type": "function"
    },
    {
      "inputs": [
        {
          "internalType": "contract ITermEventEmitter",
          "name": "emitter_",
          "type": "address"
        },
        {
          "internalType": "contract ITermController",
          "name": "controller_",
          "type": "address"
        },
        {
          "internalType": "contract ITermRepoServicer",
          "name": "termRepoServicer_",
          "type": "address"
        },
        {
          "internalType": "contract ITermAuctionBidLocker",
          "name": "termAuctionBidLocker_",
          "type": "address"
        },
        {
          "internalType": "contract ITermAuctionOfferLocker",
          "name": "termAuctionOfferLocker_",
          "type": "address"
        },
        {
          "internalType": "address",
          "name": "devopsMultisigAddress_",
          "type": "address"
        },
        {
          "internalType": "address",
          "name": "adminWallet_",
          "type": "address"
        },
        {
          "internalType": "address",
          "name": "deployerWallet_",
          "type": "address"
        },
        {
          "internalType": "string",
          "name": "version_",
          "type": "string"
        }
      ],
      "name": "pairTermContracts",
      "outputs": [],
      "stateMutability": "nonpayable",
      "type": "function"
    },
    {
      "inputs": [],
      "name": "pauseCompleteAuction",
      "outputs": [],
      "stateMutability": "nonpayable",
      "type": "function"
    },
    {
      "inputs": [],
      "name": "proxiableUUID",
      "outputs": [
        {
          "internalType": "bytes32",
          "name": "",
          "type": "bytes32"
        }
      ],
      "stateMutability": "view",
      "type": "function"
    },
    {
      "inputs": [],
      "name": "purchaseToken",
      "outputs": [
        {
          "internalType": "contract IERC20Metadata",
          "name": "",
          "type": "address"
        }
      ],
      "stateMutability": "view",
      "type": "function"
    },
    {
      "inputs": [
        {
          "internalType": "bytes32",
          "name": "role",
          "type": "bytes32"
        },
        {
          "internalType": "address",
          "name": "callerConfirmation",
          "type": "address"
        }
      ],
      "name": "renounceRole",
      "outputs": [],
      "stateMutability": "nonpayable",
      "type": "function"
    },
    {
      "inputs": [
        {
          "internalType": "bytes32",
          "name": "role",
          "type": "bytes32"
        },
        {
          "internalType": "address",
          "name": "account",
          "type": "address"
        }
      ],
      "name": "revokeRole",
      "outputs": [],
      "stateMutability": "nonpayable",
      "type": "function"
    },
    {
      "inputs": [
        {
          "internalType": "uint256",
          "name": "auctionEndTime_",
          "type": "uint256"
        }
      ],
      "name": "setEndTime",
      "outputs": [],
      "stateMutability": "nonpayable",
      "type": "function"
    },
    {
      "inputs": [
        {
          "internalType": "bytes4",
          "name": "interfaceId",
          "type": "bytes4"
        }
      ],
      "name": "supportsInterface",
      "outputs": [
        {
          "internalType": "bool",
          "name": "",
          "type": "bool"
        }
      ],
      "stateMutability": "view",
      "type": "function"
    },
    {
      "inputs": [],
      "name": "termAuctionBidLocker",
      "outputs": [
        {
          "internalType": "contract ITermAuctionBidLocker",
          "name": "",
          "type": "address"
        }
      ],
      "stateMutability": "view",
      "type": "function"
    },
    {
      "inputs": [],
      "name": "termAuctionId",
      "outputs": [
        {
          "internalType": "bytes32",
          "name": "",
          "type": "bytes32"
        }
      ],
      "stateMutability": "view",
      "type": "function"
    },
    {
      "inputs": [],
      "name": "termAuctionOfferLocker",
      "outputs": [
        {
          "internalType": "contract ITermAuctionOfferLocker",
          "name": "",
          "type": "address"
        }
      ],
      "stateMutability": "view",
      "type": "function"
    },
    {
      "inputs": [],
      "name": "termRepoId",
      "outputs": [
        {
          "internalType": "bytes32",
          "name": "",
          "type": "bytes32"
        }
      ],
      "stateMutability": "view",
      "type": "function"
    },
    {
      "inputs": [],
      "name": "termRepoServicer",
      "outputs": [
        {
          "internalType": "contract ITermRepoServicer",
          "name": "",
          "type": "address"
        }
      ],
      "stateMutability": "view",
      "type": "function"
    },
    {
      "inputs": [],
      "name": "unpauseCompleteAuction",
      "outputs": [],
      "stateMutability": "nonpayable",
      "type": "function"
    },
    {
      "inputs": [
        {
          "internalType": "address",
          "name": "upgradeAddress",
          "type": "address"
        }
      ],
      "name": "upgrade",
      "outputs": [],
      "stateMutability": "nonpayable",
      "type": "function"
    },
    {
      "inputs": [
        {
          "internalType": "address",
          "name": "newImplementation",
          "type": "address"
        },
        {
          "internalType": "bytes",
          "name": "data",
          "type": "bytes"
        }
      ],
      "name": "upgradeToAndCall",
      "outputs": [],
      "stateMutability": "payable",
      "type": "function"
    },
    {
      "inputs": [],
      "name": "version",
      "outputs": [
        {
          "internalType": "string",
          "name": "",
          "type": "string"
        }
      ],
      "stateMutability": "view",
      "type": "function"
    }
  ],
  "bytecode": "0x60a08060405234620000d157306080527ff0c57e16840df040f15088dc2f81fe391c3923bec73e23a9662efc9c229c6a009081549060ff8260401c16620000c257506001600160401b036002600160401b0319828216016200007c575b6040516154449081620000d78239608051818181612d7a0152612e780152f35b6001600160401b031990911681179091556040519081527fc7f505b2f371ae2175ee4913f4499e1f2633a7b5936321eed1cdaeb6115181d290602090a13880806200005c565b63f92ee8a960e01b8152600490fd5b600080fdfe60c080604052600436101561001357600080fd5b600090813560e01c90816301ffc9a7146134e95750806306b282c9146134c05780630900f0101461344a578063201a662514613421578063248a9ca3146133e757806327df3d3e146133be5780632f2ff15d14613373578063321532201461312b57806332a0f2d71461310d578063357a77d2146130e457806336568abe1461309c5780634b449cba1461307e5780634f1ef28614612dfb578063505d799e14612dd257806352d1902d14612d6757806353f579d314612a0057806354fd4d50146129bc5780635fb8f3ed146129995780636125be551461275c578063622ddc39146127355780636d73314114612717578063700e3e2a146126f9578063743a8f88146125f157806375b238fc146125c857806376f9a41e146120da5780637a6944c5146120bc5780638dfea9e71461209657806391d148541461203d578063a217fddf14612021578063a95c4d6214611ff8578063ad3cb1cc14611fb6578063c794564e14611f40578063cc5b6e4a14611f23578063ccb98ffc14611f08578063d547741f14611eb9578063d6725d0c14611e9a578063f043638714611e74578063f691fac114610294578063f77c47911461026b5763fa2a3cca146101d957600080fd5b346102585780600319360112610258576101f1613f3e565b600c805462ff000019169055600854600154825483926001600160a01b03169190823b15610266576044849283604051958694859362d9568360e21b8552600485015260248401525af1801561025b576102485750f35b610251906135c1565b6102585780f35b80fd5b6040513d84823e3d90fd5b505050fd5b50346102585780600319360112610258576009546040516001600160a01b039091168152602090f35b5034610258576102a336613725565b600254421115611e6257600c549060ff8260101c16611e5057600954604051631b6685b560e21b815290602090829060049082906001600160a01b03165afa908115611e45578491611e0b575b50611df95760ff8216611de75760ff8260081c16611dd5576001839260ff191617600c556000805160206153af833981519152825260008051602061536f833981519152602052604082203360005260205260ff6040600020541615611d2e575b60055482906001600160a01b031661036983806137e6565b61037960208694939401866137e6565b9790936103aa61038c60408901896137e6565b906040519b8c988997889663f9202d6360e01b885260048801613be1565b03925af190811561025b5782938392611d01575b50600654839182916001600160a01b03166103ec6103df60608401846137e6565b91909360808101906137e6565b95909361040f6040519788968795869463c44cee7360e01b865260048601613dc1565b03925af1928315611cf55780918194611ccf575b5084518015159081611cc4575b81611c7a575b501561198b5760049394610448614cc9565b610455600b548483614262565b9490600a55600160008051602061538f83398151915255602060018060a01b03600754166040519788809263313ce56760e01b82525afa958615610f8957839661194d575b50909382969596948051805b6110ec575050829683925b8551841015610db1579560406104c78588613df5565b51015197849160606104d9878a613df5565b5101515b885180600019810111610d9d5760001901841015610d8b57600184018411610d77578a604061050f600187018c613df5565b510151036105425761053661053c91606061052d600188018d613df5565b51015190614248565b93614239565b926104dd565b909299509994959790999392935b80604061055d898b613df5565b51015190600a54809211159081610d6d575b81610d59575b501561073c57505087945b8961058b8888614248565b116106e0576105a361059d8888614248565b89613df5565b516105ac614cc9565b6105b96060820151614a9b565b60045460208301516060840151845193926001600160a01b039081169216823b156106dc57908e80949392610604604051978896879586946308f9231360e31b865260048601614d82565b03925af180156106b957908b916106c8575b505060085460015482516060840151926001600160a01b031691823b156106c4579161065d93918e80946040519687958694859363ba0cf0ab60e01b855260048501613ef0565b03925af180156106b957908b916106a1575b505061069b91606061069592015190600160008051602061538f83398151915255614248565b95614239565b94610580565b6106aa906135c1565b6106b557893861066f565b8980fd5b6040513d8d823e3d90fd5b8d80fd5b6106d1906135c1565b6106b5578938610616565b8e80fd5b9992979591949093985080610705575b506106fa90614239565b9295919690966104b1565b80600019810111610728576106fa91610722916000190190614248565b906106f0565b634e487b7160e01b86526011600452602486fd5b6040610750898b99979c9b9e949a9e613df5565b510151111580610d50575b15610c95579091929587965b8a6107728d8a614248565b11610c7c578b8b610783828b614248565b036109905761079561079b918a614248565b88613df5565b51906107a7818c613756565b916107b0614cc9565b6107b983614a9b565b6004546020830151835192916001600160a01b039081169116813b156106dc5790868f8094936107ff604051978896879586946308f9231360e31b865260048601614d82565b03925af1801561097157908c9161097c575b505060065481516020830151606084015191926001600160a01b039081169291169061083e908790613756565b92823b156106dc579161086c93918f809460405196879586948593630315fd0560e21b855260048501613eb2565b03925af1801561097157908c91610959575b505060085460015491516001600160a01b0390911691823b15610955576108c1928d928387936040519687958694859363ba0cf0ab60e01b855260048501613ef0565b03925af180156106b957928d928f999896948e9896938e9161092b575b50506107729261091061090961091c9461091694600160008051602061538f83398151915255614248565b809a613756565b90613756565b9a614239565b99939592949697505050610767565b919450929597506109409194969899506135c1565b6106b5578a94928d979694928d928c386108de565b8c80fd5b610962906135c1565b61096d578a3861087e565b8a80fd5b6040513d8e823e3d90fd5b610985906135c1565b61096d578a38610811565b61099f61059d6060928b614248565b5101516109ac828c613756565b906012918260ff8a16810311610c68578a8f94938f938f8f8d918891610a8198610a2c8c610a268f610a116109f361059d9e6109ed8e60ff8e169003614bf3565b90613779565b9160405192610a0184613621565b83526109ed60ff8c168e03614bf3565b9060405191610a1f83613621565b8252614cf9565b99614248565b149050610c53575050610a7993610a51610a73936109ed60ff610a6695168703614bf3565b9060405191610a5f83613621565b8252614c90565b519160ff8d169003614bf3565b9061378c565b935b8b614248565b51610a8a614cc9565b610a9383614a9b565b6004546020830151835192916001600160a01b039081169116813b156106dc5790868f809493610ad9604051978896879586946308f9231360e31b865260048601614d82565b03925af1801561097157908c91610c3f575b505060065481516020830151606084015191926001600160a01b0390811692911690610b18908790613756565b92823b156106dc5791610b4693918f809460405196879586948593630315fd0560e21b855260048501613eb2565b03925af1801561097157908c91610c2b575b505060085460015491516001600160a01b0390911691823b1561095557610b9b928d928387936040519687958694859363ba0cf0ab60e01b855260048501613ef0565b03925af180156106b9578e989795938e938d8d9997948d94610bff575b5050926060610bf661091c94610bf08e610bea610916976107729a600160008051602061538f83398151915255614248565b9d614248565b90613df5565b51015190613756565b9296989a9b50939698509350610c1591506135c1565b6106b557889492888e989795938e938d38610bb8565b610c34906135c1565b61096d578a38610b58565b610c48906135c1565b61096d578a38610aeb565b9250925050610c629250613756565b93610a7b565b634e487b7160e01b8c52601160045260248cfd5b9a9294995050919395948061070557506106fa90614239565b9299919496955092975060018060a01b0360065416610cb48288613df5565b5151906001600160a01b036020610ccb858b613df5565b510151166060610cdb858b613df5565b51015192823b15610d4c5791610d0c939189809460405196879586948593630315fd0560e21b855260048501613eb2565b03925af18015610d4157908691610d29575b50506106fa90614239565b610d32906135c1565b610d3d578438610d1e565b8480fd5b6040513d88823e3d90fd5b8880fd5b5088841061075b565b9050610d658887613756565b101538610575565b868910915061056f565b634e487b7160e01b88526011600452602488fd5b90929950999495979099939293610550565b634e487b7160e01b89526011600452602489fd5b9794505050509160018060a01b036008541660015490600a54813b156110e857918560c4928195946040519788968795630ef1216760e41b875260048701524260248701524360448701526064860152608485015260a48401525af1801561025b579082916110d4575b50506009548154600154600a54926001600160a01b031691823b15610d3d5791610e6093918580946040519687958694859363a2a61aed60e01b855260048501613ef0565b03925af1801561025b579082916110c0575b50505b805b8351811015610f9857610100610e8d8286613df5565b51015115610ed657600190610ed06001600160a01b03610120610eb08489613df5565b51015116838060a01b036020610ec6858a613df5565b5101511690614b30565b01610e77565b6005546001600160a01b0316610eec8286613df5565b5151906001600160a01b036020610f038589613df5565b510151169060e0610f148589613df5565b5101519160a0610f24868a613df5565b51015193823b15610f9457908680949392610f5560405197889687958694630283ce5b60e01b865260048601613e7a565b03925af18015610f8957908391610f71575b5050600190610ed0565b610f7a906135c1565b610f85578138610f67565b5080fd5b6040513d85823e3d90fd5b8680fd5b5090815b81518110156110445760065483906001600160a01b0316610fbd8385613df5565b51516001600160a01b036020610fd38688613df5565b51015116916080610fe48688613df5565b51015190803b15610d3d576110139385809460405196879586948593630315fd0560e21b855260048501613eb2565b03925af1801561025b5761102c575b5050600101610f9c565b611035906135c1565b611040578284611022565b8280fd5b600480546040516304dabab160e41b815285929091602091839182906001600160a01b03165afa801561025b578290611085575b6110829150613ed3565b80f35b506020813d6020116110b8575b8161109f60209383613657565b81010312610f85576110b3611082916138f9565b611078565b3d9150611092565b6110c9906135c1565b610258578038610e72565b6110dd906135c1565b610258578038610e1b565b8580fd5b93949190959296976000198501928584116119395798604061110e858a613df5565b5101519884916060611120878c613df5565b5101515b83158015611912575b61117457836000198101116111605761115a9061115490606061052d60001988018f613df5565b93614255565b92611124565b634e487b7160e01b8a52601160045260248afd5b9094929a509a90979a989594969880604061118f8a8a613df5565b51015190600a54809210159081611908575b816118f4575b50156113a35750508a945b8a6111bd878a613756565b10611393576111cf610795878a613756565b51906111d9614cc9565b8c6111e76060840151614a9b565b60e0840151611366576004546020850151606086015160c087015160808801516003549195909490936001600160a01b0391821693929116833b156113625761124b8896928793604051998a9889978896635115f4e560e11b885260048801614d3b565b03925af1801561025b5761134e575b50505b8c60018060a01b0360085416600154845191606086015190803b15610d3d576112a093858094604051968795869485936303e852b160e01b855260048501613ef0565b03925af1801561025b5761133a575b505060606112d192015190600160008051602061538f83398151915255614248565b948088146112e8576112e290614239565b946111b2565b90979495939a96506112fd9198929950614239565b905b8161131c575b61130f9150614255565b80989798969293966104a6565b60001982019182116107285761130f9161133591613756565b611305565b611343906135c1565b610955578c386112af565b611357906135c1565b610955578c3861125a565b8780fd5b6020840151606085015161010086015161138e94506001600160a01b03908116939216614dc5565b61125d565b95939a96509693919850966112ff565b60406113b78a8a9895949c9a999699613df5565b5101511015806118eb575b156117df578b98925b8b6113d68b8b613756565b106117ce578b6113e68b8b613756565b0361158f576113fe6113f88b8b613756565b87613df5565b51908d61140b828a613756565b92611414614cc9565b61141d84614a9b565b60e082015161156557600454602083015160c0840151608085015160035491946001600160a01b039384169490931691823b1561136257879461147a86928c94604051998a9889978896635115f4e560e11b885260048801614d3b565b03925af1908115610f89578391611551575b50505b60085460015491516001600160a01b0390911691823b1561154d576114d0928492838893604051968795869485936303e852b160e01b855260048501613ef0565b03925af1801561025b57611539575b505061150b9161150091600160008051602061538f83398151915255614248565b936109108589613756565b985b8089146115245761151d90614239565b98926113cb565b919b975097506112fd91959498929950614239565b611542906135c1565b6106c4578d386114df565b8380fd5b61155a906135c1565b610f8557813861148c565b602082015161010083015161158a926001600160a01b03918216929091889116614dc5565b61148f565b606061159e6107958c8c613756565b5101516115ab8289613756565b906012918260ff89168103116117b9576116136116209392610a516116048b610a116115fe60ff6115e6610a73996109ed8387168d03614bf3565b93604051946115f486613621565b8552168903614bf3565b8d613779565b916109ed60ff8d168703614bf3565b519160ff89169003614bf3565b908115611792578d61163561059d8d8d613756565b5161163e614cc9565b61164784614a9b565b60e082015161176857600454602083015160c0840151608085015160035491946001600160a01b039384169490931691823b156113625787946116a486928c94604051998a9889978896635115f4e560e11b885260048801614d3b565b03925af1908115610f89578391611754575b50505b60085460015491516001600160a01b0390911691823b1561154d576116fa928492838893604051968795869485936303e852b160e01b855260048501613ef0565b03925af1801561025b57611740575b505061173a9161172a91600160008051602061538f83398151915255614248565b936060610bf661059d8d8d613756565b9861150d565b611749906135c1565b6106c4578d38611709565b61175d906135c1565b610f855781386116b6565b602082015161010083015161178d926001600160a01b03918216929091889116614dc5565b6116b9565b60246117a288610bf08e8e613756565b51516040519063611b5d9960e11b82526004820152fd5b50634e487b7160e01b8f52601160045260248ffd5b9695999250979299509995506112ff565b975099959094939791985060e06117f68285613df5565b5101511561183c5761130f9190611837906001600160a01b0361010061181c8388613df5565b51015116906001600160a01b0390602090610ec69088613df5565b614255565b6005546001600160a01b0316906118538185613df5565b5151916001600160a01b03602061186a8488613df5565b51015116608061188960c061187f868a613df5565b5101519488613df5565b51015193823b156106b5579089809493926118ba60405197889687958694630283ce5b60e01b865260048601613e7a565b03925af18015610d41579086916118d7575b505061130f90614255565b6118e0906135c1565b610d3d5784386118cc565b508583106113c2565b90506119008886613756565b1015386111a7565b85891091506111a1565b5083600019810111611160578b604061192f60001987018e613df5565b510151141561112d565b634e487b7160e01b87526011600452602487fd5b9095506020813d602011611983575b8161196960209383613657565b81010312611040575160ff8116810361104057943861049a565b3d915061195c565b91825b8551811015611a9c5760e06119a38288613df5565b510151156119e2576001906119dc6001600160a01b036101006119c6848b613df5565b51015116838060a01b036020610ec6858c613df5565b0161198e565b6005546001600160a01b03166119f88288613df5565b5151906001600160a01b036020611a0f858b613df5565b510151169060c0611a20858b613df5565b510151916080611a30868c613df5565b51015193823b15610d4c57908880949392611a6160405197889687958694630283ce5b60e01b865260048601613e7a565b03925af18015611a9157908591611a7d575b50506001906119dc565b611a86906135c1565b61154d578338611a73565b6040513d87823e3d90fd5b5090919392845b8351811015611b475760065486906001600160a01b0316611ac48387613df5565b51516001600160a01b036020611ada868a613df5565b51015116916060611aeb868a613df5565b51015190803b15610d3d57611b1a9385809460405196879586948593630315fd0560e21b855260048501613eb2565b03925af1801561025b57611b33575b5050600101611aa3565b611b3c906135c1565b6110e8578538611b29565b509290939181518015159283611c6f575b83611c26575b505050600014611bd25760018060a01b0360085416600154813b1561104057829160648392604051948593849263504c5d5d60e11b84526004840152600160248401528160448401525af1801561025b57908291611bbe575b5050610e75565b611bc7906135c1565b610258578038611bb7565b60018060a01b0360085416600154813b1561104057829160648392604051948593849263504c5d5d60e11b845260048401528160248401528160448401525af1801561025b57908291611bbe575050610e75565b919250600019810191908211611c5b576040611c468193611c4f93613df5565b51015192613de8565b51015111388080611b5e565b634e487b7160e01b84526011600452602484fd5b825115159350611b58565b809150600019810111611cb057611c976040916000190187613df5565b5101516040611ca584613de8565b510151111538610436565b634e487b7160e01b82526011600452602482fd5b835115159150610430565b909350611cee91503d8085833e611ce68183613657565b810190613c1e565b9238610423565b604051903d90823e3d90fd5b83945083919250611d23903d8084833e611d1b8183613657565b810190613906565b9490949291506103be565b9050611d3d60408201826137e6565b1580159150611dbe575b611d52578190610351565b60405163dd23c3ad60e01b815260206004820152603d60248201527f416c6c2074656e64657220707269636573206d7573742062652072657665616c60448201527f656420666f722061756374696f6e20746f20626520636f6d706c6574650000006064820152608490fd5b50611dcc60808201826137e6565b90501515611d47565b604051632d93dc5b60e21b8152600490fd5b60405163f02c1d9560e01b8152600490fd5b60405163bbc439e160e01b8152600490fd5b90506020813d602011611e3d575b81611e2660209383613657565b8101031261154d57611e37906138f9565b386102f0565b3d9150611e19565b6040513d86823e3d90fd5b604051631298d6db60e01b8152600490fd5b60405163b9adeefd60e01b8152600490fd5b5034610258578060031936011261025857602060ff600c5460101c166040519015158152f35b503461025857806003193601126102585760206040516301da9c008152f35b503461025857604036600319011261025857611f04600435611ed9613554565b9080845260008051602061536f833981519152602052611eff6001604086200154613f76565b6141b6565b5080f35b50346102585760203660031901126102585760043560025580f35b503461025857806003193601126102585760209054604051908152f35b5034610258578060031936011261025857611f59613f3e565b600c805462ff0000191662010000179055600854600154825483926001600160a01b03169190823b156102665760448492836040519586948593635fdd148760e01b8552600485015260248401525af1801561025b576102485750f35b5034610258578060031936011261025857611ff4604051611fd68161363c565b60058152640352e302e360dc1b6020820152604051918291826136ac565b0390f35b50346102585780600319360112610258576007546040516001600160a01b039091168152602090f35b5034610258578060031936011261025857602090604051908152f35b5034610258576040366003190112610258576040612059613554565b91600435815260008051602061536f833981519152602052209060018060a01b0316600052602052602060ff604060002054166040519015158152f35b5034610258578060031936011261025857602060ff600c5460081c166040519015158152f35b50346102585780600319360112610258576020600354604051908152f35b5034610258576120e936613725565b600254421115611e62576120fb613f3e565b600554829081906001600160a01b031661211584806137e6565b61212560208794939401876137e6565b97909361213861038c60408a018a6137e6565b03925af19182156125bb5781938293612596575b50600654829182916001600160a01b031661216d6103df60608401846137e6565b9590936121906040519788968795869463c44cee7360e01b865260048601613dc1565b03925af190811561025b5782908392612579575b50825b85518110156122945760e06121bc8288613df5565b510151156121e5576001906121df6001600160a01b036101006119c6848b613df5565b016121a7565b6005546001600160a01b03166121fb8288613df5565b5151906001600160a01b036020612212858b613df5565b510151169060c0612223858b613df5565b510151916080612233868c613df5565b51015193823b15610d4c5790888094939261226460405197889687958694630283ce5b60e01b865260048601613e7a565b03925af18015611a9157908591612280575b50506001906121df565b612289906135c1565b61154d578338612276565b5083835b825181101561233c5760065485906001600160a01b03166122b98386613df5565b51516001600160a01b0360206122cf8689613df5565b510151169160606122e08689613df5565b51015190803b15610d3d5761230f9385809460405196879586948593630315fd0560e21b855260048501613eb2565b03925af1801561025b57612328575b5050600101612298565b612331906135c1565b610d3d57848661231e565b508284805b835181101561242f576101006123578286613df5565b510151156123805760019061237a6001600160a01b03610120610eb08489613df5565b01612341565b6005546001600160a01b03166123968286613df5565b5151906001600160a01b0360206123ad8589613df5565b510151169060e06123be8589613df5565b5101519160a06123ce868a613df5565b51015193823b15610f94579086809493926123ff60405197889687958694630283ce5b60e01b865260048601613e7a565b03925af18015610f895790839161241b575b505060019061237a565b612424906135c1565b610f85578185612411565b5090815b81518110156124d75760065483906001600160a01b03166124548385613df5565b51516001600160a01b03602061246a8688613df5565b5101511691608061247b8688613df5565b51015190803b15610d3d576124aa9385809460405196879586948593630315fd0560e21b855260048501613eb2565b03925af1801561025b576124c3575b5050600101612433565b6124cc906135c1565b6110405782846124b9565b828060018060a01b0360085416600154813b1561257557829160648392604051948593849263504c5d5d60e11b845260048401528160248401528160448401525af1801561025b57612561575b5050600480546040516304dabab160e41b81529160209183919082906001600160a01b03165afa801561025b578290611085576110829150613ed3565b61256a906135c1565b610258578082612524565b5050fd5b905061258f91503d8084833e611ce68183613657565b90386121a4565b829450829193506125b0903d8084833e611d1b8183613657565b94909493915061214c565b50604051903d90823e3d90fd5b503461025857806003193601126102585760206040516000805160206153af8339815191528152f35b5034610258576040366003190112610258576001600160401b03600435818111611040576126239036906004016136f5565b9160243590811161154d5761263c9036906004016136f5565b600293919354421115611e6257612651613f3e565b845b8281106126c657600c805461ff0019166101001790819055600854600154889283926001600160a01b03169190823b1561026657606484928360ff95604051968795869463504c5d5d60e11b8652600486015283602486015260081c16151560448401525af1801561025b576102485750f35b806126f36126df6126da600194868a6137ac565b6137d2565b6126ed6126da84888a6137ac565b90614b30565b01612653565b50346102585780600319360112610258576020600b54604051908152f35b50346102585780600319360112610258576020600154604051908152f35b5034610258576020366003190112610258576020612754600435614a9b565b604051908152f35b503461025857610100366003190112610258576001600160401b036004358181116110405761278f903690600401613594565b91602435818111610d3d576127a8903690600401613594565b60a4356001600160a01b038116929190839003610f94576127c761356a565b946000805160206153ef83398151915296875460ff8160401c161596811680159081612991575b6001149081612987575b15908161297e575b5061296c576001600160401b0319811660011789556128809761285b9188612951575b5061282c614c61565b612834614c61565b61283c614c61565b612844614c61565b600160008051602061538f833981519152556140bb565b50604051968791602098818a9283830196873781018c83820152038084520182613657565b51902087556128a78560405183819483830196873781018a83820152038084520182613657565b5190206001556044356002556128c1606435608435613756565b670de0b6b3a764000090818102918183041490151715610728576301da9c009004600355600780546001600160a01b031916919091179055600c805463ff00ffff1916905560e435600b55612914578280f35b815460ff60401b1916909155604051600181527fc7f505b2f371ae2175ee4913f4499e1f2633a7b5936321eed1cdaeb6115181d29190a138808280f35b6001600160481b0319166001600160401b01178a5538612823565b60405163f92ee8a960e01b8152600490fd5b90501538612800565b303b1591506127f8565b8891506127ee565b5034610258578060031936011261025857602060ff600c54166040519015158152f35b5034610258578060031936011261025857611ff46040516129dc8161363c565b600b81526a19195d995b1bdc1b595b9d60aa1b6020820152604051918291826136ac565b5034610258576060366003190112610258576001600160401b036004351161025857366023600435011215610258576004356004013590612a4082613695565b91612a4e6040519384613657565b80835260208301903660248260051b60043501011161104057602460043501915b60248260051b60043501018310612b5a57505060243590506001600160401b038111610f855736602382011215610f8557806004013590612aaf82613695565b92612abd6040519485613657565b8284526020840190602460a080950284010192368411610f8557602401915b838310612afe576040612af2604435888a614262565b82519182526020820152f35b8483360312610f855760208591604051612b1781613606565b85358152612b26838701613580565b8382015260408601356040820152606086013560608201526080612b4b818801613580565b90820152815201920191612adc565b82356001600160401b038111610d3d57610120600435820136036023190112610d3d5760405190612b8a826135ea565b600435810160248101358352612ba290604401613580565b60208301526004358101606481013560408401526084810135606084015260a401356001600160401b038111610f945736604382846004350101011215610f9457612bf66024828460043501010135613695565b90612c046040519283613657565b60043583018101602481013580845260208401913660059290921b0160440111610d4c5760448285600435010101905b60043585018301602481013560051b016044018210612d57575050506080830152612c6560c4826004350101613580565b60a0830152600435810160e401356001600160401b038111610f945736604382846004350101011215610f94576024818360043501010135612ca681613695565b91612cb46040519384613657565b81835260208301903660448460051b838860043501010101116106b55760448186600435010101915b60448460051b8388600435010101018310612d3f575050505060c0830152610104816004350101358015158103610f945760e08301526024926020928392612d2c906004350161012401613580565b6101008201528152019301929050612a6f565b60208091612d4c85613580565b815201920191612cdd565b8135815260209182019101612c34565b50346102585780600319360112610258577f00000000000000000000000000000000000000000000000000000000000000006001600160a01b03163003612dc057602060405160008051602061534f8339815191528152f35b60405163703e46dd60e11b8152600490fd5b50346102585780600319360112610258576006546040516001600160a01b039091168152602090f35b50604036600319011261025857612e1061353e565b9060249081356001600160401b038111610f855736602382011215610f85578060040135612e3d8161367a565b94612e4b6040519687613657565b81865260209182870193368783830101116110e857818692888693018737880101526001600160a01b03957f00000000000000000000000000000000000000000000000000000000000000008716308114908115613062575b50612dc057612eb1613f06565b866008541696873b156110e85785879860448293604051948593849263b3c2d50b60e01b84523060048501528916809d8401525af18015610d415790869161304e575b50506040516352d1902d60e01b815283816004818a5afa86918161301f575b50612f3057604051634c9c8ce360e01b8152600481018890528890fd5b86908860008051602061534f8339815191529182810361300a5750843b15612ff4575080546001600160a01b031916821790556040518692917fbc7cd75a20ee27fd9adebab32041f755214dbc6bffa90cc0225b39da2e5c2d3b8480a2815115612fd65750611f049482915190845af4903d15612fcd573d612fb18161367a565b90612fbf6040519283613657565b81528581943d92013e61524b565b6060925061524b565b94505050505034612fe5575080f35b63b398979f60e01b8152600490fd5b604051634c9c8ce360e01b815260048101849052fd5b60405190632a87526960e21b82526004820152fd5b9091508481813d8311613047575b6130378183613657565b81010312610f9457519038612f13565b503d61302d565b613057906135c1565b610d3d578438612ef4565b90508760008051602061534f8339815191525416141538612ea4565b50346102585780600319360112610258576020600254604051908152f35b5034610258576040366003190112610258576130b6613554565b336001600160a01b038216036130d257611f04906004356141b6565b60405163334bd91960e11b8152600490fd5b50346102585780600319360112610258576004546040516001600160a01b039091168152602090f35b50346102585780600319360112610258576020600a54604051908152f35b503461025857610120366003190112610258576001600160a01b0360043581811690819003611040576024359082821680920361154d5760443590838216809203610d3d57606435938085168095036110e85760843592818416809403610f945760a43594828616860361336e576131a161356a565b9060e4359684881680980361336e57610104356001600160401b03811161096d576131d0903690600401613594565b33600090815260008051602061532f8339815191526020526040902054909891979060008051602061530f8339815191529060ff16156133505750600c5460ff8160181c1661333e5763ff0000001916630100000017600c5589156132fa578b9a613279966132739560018060a01b0319938460085416176008558360095416176009558260045416176004558160055416176005556006541617600655613fa9565b50614035565b50600854168454926001549060025493833b1561136257879582879360e4936040519a8b998a988996635c81b46b60e11b8852600488015260248701523060448701526064860152608485015260c060a48501528160c4850152848401378181018301849052601f01601f191681010301925af1801561025b576102485750f35b60405162461bcd60e51b815260206004820152601c60248201527b16995c9bc81859191c995cdcc819195c1b1bde595c881dd85b1b195d60221b6044820152606490fd5b604051634ce377bb60e11b8152600490fd5b6044906040519063e2517d3f60e01b82523360048301526024820152fd5b600080fd5b503461025857604036600319011261025857611f04600435613393613554565b9080845260008051602061536f8339815191526020526133b96001604086200154613f76565b614141565b5034610258578060031936011261025857602060405160008051602061530f8339815191528152f35b50346102585760203660031901126102585760016040602092600435815260008051602061536f8339815191528452200154604051908152f35b503461025857806003193601126102585760206040516000805160206152cf8339815191528152f35b50346102585760203660031901126102585761346461353e565b61346c613f06565b6008546001600160a01b0390811691839190833b156110405760449083604051958694859363b3c2d50b60e01b85523060048601521660248401525af1801561025b576134b7575080f35b611082906135c1565b50346102585780600319360112610258576005546040516001600160a01b039091168152602090f35b905034610f85576020366003190112610f855760043563ffffffff60e01b81168091036110405760209250637965db0b60e01b811490811561352d575b5015158152f35b6301ffc9a760e01b14905038613526565b600435906001600160a01b038216820361336e57565b602435906001600160a01b038216820361336e57565b60c435906001600160a01b038216820361336e57565b35906001600160a01b038216820361336e57565b9181601f8401121561336e578235916001600160401b03831161336e576020838186019501011161336e57565b6001600160401b0381116135d457604052565b634e487b7160e01b600052604160045260246000fd5b61012081019081106001600160401b038211176135d457604052565b60a081019081106001600160401b038211176135d457604052565b602081019081106001600160401b038211176135d457604052565b604081019081106001600160401b038211176135d457604052565b601f909101601f19168101906001600160401b038211908210176135d457604052565b6001600160401b0381116135d457601f01601f191660200190565b6001600160401b0381116135d45760051b60200190565b6020808252825181830181905290939260005b8281106136e157505060409293506000838284010152601f8019910116010190565b8181018601518482016040015285016136bf565b9181601f8401121561336e578235916001600160401b03831161336e576020808501948460051b01011161336e57565b6003199060208183011261336e57600435916001600160401b03831161336e578260a09203011261336e5760040190565b9190820391821161376357565b634e487b7160e01b600052601160045260246000fd5b8181029291811591840414171561376357565b8115613796570490565b634e487b7160e01b600052601260045260246000fd5b91908110156137bc5760051b0190565b634e487b7160e01b600052603260045260246000fd5b356001600160a01b038116810361336e5790565b903590601e198136030182121561336e57018035906001600160401b03821161336e57602001918160051b3603831361336e57565b51906001600160a01b038216820361336e57565b9080601f8301121561336e5781519060209161384a81613695565b936138586040519586613657565b81855260208086019260051b82010192831161336e57602001905b828210613881575050505090565b81518152908301908301613873565b9080601f8301121561336e578151906020916138ab81613695565b936138b96040519586613657565b81855260208086019260051b82010192831161336e57602001905b8282106138e2575050505090565b8380916138ee8461381b565b8152019101906138d4565b5190811515820361336e57565b9190604090818482031261336e5783516001600160401b03919082811161336e5785019181601f8401121561336e57825160209361394382613695565b9161395087519384613657565b808352858084019160051b8301019185831161336e57868101915b838310613ae7575050505095838101519082821161336e57019180601f8401121561336e5782519061399c82613695565b956139a981519788613657565b828752858088019360051b8601019482861161336e57868101935b8685106139d657505050505050505090565b845186811161336e578201906101609081601f19848803011261336e5784518281018181108a821117613ad25786528a8401518152613a1686850161381b565b8b8201526060928385015187830152608093848601519083015260a093848601519083015260c093848601518b811161336e57898e613a579289010161382f565b9083015260e093613a6985870161381b565b908301526101009081860151908b821161336e57868e9796613a938c8a613ac396819b0101613890565b9086015261012093613aa68583016138f9565b9086015261014093613ab985830161381b565b90860152016138f9565b908201528152019401936139c4565b60246000634e487b7160e01b81526041600452fd5b825186811161336e578201906101209081601f19848b03011261336e578a51613b0f816135ea565b8a8401518152613b208c850161381b565b8b820152606092838501518d830152608093848601519083015260a093848601518b811161336e578c8e613b569289010161382f565b9083015260c093613b6885870161381b565b9083015260e09081860151908b821161336e57868e9796613b918f8a613bae96819b0101613890565b9086015261010093613ba48583016138f9565b908601520161381b565b9082015281520192019161396b565b81835290916001600160fb1b03831161336e5760209260051b809284830137010190565b94929093613bff613c1b9795613c0d94606089526060890191613bbd565b918683036020880152613bbd565b926040818503910152613bbd565b90565b9190604090818482031261336e5783516001600160401b039081811161336e57850182601f8201121561336e57805192602091613c5a85613695565b90613c6787519283613657565b8582528382018460a08098028301019184831161336e578501905b828210613d695750505096828101519084821161336e57019281601f8501121561336e57835194613cb286613695565b96613cbf81519889613657565b868852848801938560e08099028801019681881161336e578601945b878610613cee5750505050505050505090565b888683031261336e578251908982019082821087831117613ad2578a928992865288518152613d1e838a0161381b565b8382015285890151868201526060808a0151908201526080808a015190820152613d49878a0161381b565b8782015260c0613d5a818b016138f9565b90820152815201950194613cdb565b878286031261336e578588918a51613d8081613606565b84518152613d8f83860161381b565b838201528b8501518c820152606080860151908201526080613db281870161381b565b90820152815201910190613c82565b9290613dda90613c1b9593604086526040860191613bbd565b926020818503910152613bbd565b8051156137bc5760200190565b80518210156137bc5760209160051b010190565b90815180825260208080930193019160005b828110613e29575050505090565b83516001600160a01b031685529381019392810192600101613e1b565b90815180825260208080930193019160005b828110613e66575050505090565b835185529381019392810192600101613e58565b92613c1b9492613ea492855260018060a01b03166020850152608060408501526080840190613e09565b916060818403910152613e46565b9081526001600160a01b039091166020820152604081019190915260600190565b15613eda57565b634e487b7160e01b600052600160045260246000fd5b6040919493926060820195825260208201520152565b3360009081526000805160206153cf83398151915260205260409020546000805160206152cf8339815191529060ff16156133505750565b3360009081526000805160206152ef83398151915260205260409020546000805160206153af8339815191529060ff16156133505750565b8060005260008051602061536f83398151915260205260406000203360005260205260ff60406000205416156133505750565b6001600160a01b031660008181526000805160206153cf83398151915260205260408120549091906000805160206152cf8339815191529060008051602061536f8339815191529060ff1661402f578184526020526040832082845260205260408320600160ff198254161790556000805160206152af833981519152339380a4600190565b50505090565b6001600160a01b031660008181526000805160206152ef83398151915260205260408120549091906000805160206153af8339815191529060008051602061536f8339815191529060ff1661402f578184526020526040832082845260205260408320600160ff198254161790556000805160206152af833981519152339380a4600190565b6001600160a01b0316600081815260008051602061532f833981519152602052604081205490919060008051602061530f8339815191529060008051602061536f8339815191529060ff1661402f578184526020526040832082845260205260408320600160ff198254161790556000805160206152af833981519152339380a4600190565b9060009180835260008051602061536f83398151915280602052604084209260018060a01b03169283855260205260ff6040852054161560001461402f578184526020526040832082845260205260408320600160ff198254161790556000805160206152af833981519152339380a4600190565b9060009180835260008051602061536f83398151915280602052604084209260018060a01b03169283855260205260ff60408520541660001461402f57818452602052604083208284526020526040832060ff1981541690557ff6391f5c32d9c69d2a47ea670b442974b53935d1edc7fd64eb21e047a839171b339380a4600190565b60001981146137635760010190565b9190820180921161376357565b8015613763576000190190565b91600181141580614a92575b614a7a57604061427d83613de8565b51015193606061428c84613de8565b510151845160405196909591906101e088016001600160401b038111898210176135d457604052875260016020880152856040880152606087015260006080870152600060a0870152600060c0870152600060e08701526000610100870152600061012087015260006101408701526000610160870152600061018087015260006101a087015260006101c08701528460001981011161376357855160009560001901955b81604061433e8986613df5565b51015110614a6e5761435690606061052d8986613df5565b95801561436c5761436690614255565b95614331565b9192939495905b604061437f8486613df5565b5101511015614a65576001820182116137635760016143b092015b6040880152806080880152606087015190614c01565b60a08601525b60208501518451811080614a57575b15614a4e576143fb8160409260c08901528288015160e08901526060880151610100890152608088015161012089015286613df5565b5101516101408601525b60c0850151845181109081614a30575b50156144555761444a606061443c60c088015161443181614239565b60c08a015287613df5565b510151610100870151614248565b610100860152614405565b61447060e08601516101208701516101408801519184614c11565b908160e08801528061012088015261010087015161448e8183614c01565b92836101608a015260a089015184116000146144cf5760c089015160208a0152604089015260608801526080870152610140860151865260a08601526143b6565b505050509192905b60208501518251811015614a27576144f160409184613df5565b5101515b6101408601525b60408501518351811015614a1d5761451c8160409260e089015285613df5565b510151806101a0870152608086015161012087015261014086015111600014614a14575b60e08501518351811090816149f6575b501561459057614585606061457760e088015161456c81614239565b60e08a015286613df5565b510151610120870151613756565b610120860152614540565b610120850151606086015181106145bd576001610180870152608086015260e085015160408601526144fc565b50909193925b610180840151156149e6576040840151855181036149cf575060408401516000198101919082116137635760406145fc60019388613df5565b5101515b6101c08601525b6146146020860151614255565b6020860152036149735760208301515b8015158061494a575b156146555760001981019081111561462457634e487b7160e01b600052601160045260246000fd5b9360408401519481518614614937575b945b815160001981019081116137635781108061490f575b156146a457600181018091111561466757634e487b7160e01b600052601160045260246000fd5b604061052d816146bb6146c5959697989989613df5565b5101519285613df5565b60011c6101c08501525b60406146df602086015185613df5565b5101516101c08501511061489c576146fa6020850151614239565b60208501525b602084015183518110908161487d575b5015614752576147366060614729602087015186613df5565b5101516060860151614248565b60608501526147486020850151614239565b6020850152614700565b9091505b604083015181518110908161485f575b50156147ac576147879060408401516080850151906101c086015192614c11565b604084015260808301525b613c1b6101c0830151926060608082015191015190614c01565b90604083015191826147c1575b509050614792565b60001983019283116137635760808401516101c0850151905b8160406147e78786613df5565b51015110614850576147ff90606061052d8786613df5565b9380156148155761480f90614255565b936147da565b9161482583604092969596613df5565b510151101561484b5760018101809111613763575b6040840152608083015280386147b9565b61483a565b92939161482583604092613df5565b6040915061486d9083613df5565b5101516101c08401511138614766565b6040915061488b9085613df5565b5101516101c0850151101538614710565b915b60406148ae602086015183613df5565b5101516101c08501511015614908576148dd60606148d0602087015184613df5565b5101516060860151613756565b606085015260208401518015614900576148f690614255565b602085015261489e565b505090614756565b5090614756565b50604061491c8284613df5565b510151604061492e8188015185613df5565b5101511461467d565b9460001981019081116137635794614665565b5060406149578285613df5565b510151604061496a602087015186613df5565b5101511461462d565b9091926040840151815181146149b8575b506149aa6040614998602087015186613df5565b510151604061052d8188015185613df5565b60011c6101c08501526146cf565b600019810190811161376357604085015238614984565b9060406149de60019388613df5565b510151614600565b60019084516101c0860152614607565b60409150614a049085613df5565b5101516101a08601511438614550565b909193926145c3565b50909193926145c3565b506000196144f5565b60409150614a3e9086613df5565b5101516101408601511438614415565b509192906144d7565b5060408601518251116143c5565b6143b09161439a565b90959192939495614373565b602490604051906362c115eb60e11b82526004820152fd5b5080151561426e565b6040805191614aa983613621565b614af5670de0b6b3a764000093848152614add600354855190614acb82613621565b8152600a5490865191610a5f83613621565b9060008551614aeb81613621565b5251905190614248565b90825191614b0283613621565b82528381029080820485149015171561376357614b2b925190614b2482613621565b8152614c90565b510490565b604051631146ae6360e11b81526001600160a01b0392916020908290600490829087165afa8015614ba7578391600091614bb3575b501691823b1561336e5760246000928360405195869485936364deb92b60e11b85521660048401525af18015614ba757614b9c5750565b614ba5906135c1565b565b6040513d6000823e3d90fd5b9091506020813d602011614beb575b81614bcf60209383613657565b81010312610f8557519083821682036102585750829038614b65565b3d9150614bc2565b604d811161376357600a0a90565b818110614c0c575090565b905090565b9390915b8451831080614c4a575b15614c4357614c37614c3d916060610bf68689613df5565b92614239565b91614c15565b9350909150565b50836040614c588588613df5565b51015110614c1f565b60ff6000805160206153ef8339815191525460401c1615614c7e57565b604051631afcd79f60e31b8152600490fd5b670de0b6b3a764000091614cb6916000604051614cac81613621565b5251905190613779565b0460405190614cc482613621565b815290565b60008051602061538f8339815191526002815414614ce75760029055565b604051633ee5aeb560e01b8152600490fd5b6000604051614d0781613621565b5251670de0b6b3a76400009081810291818304149015171561376357614d2e91519061378c565b60405190614cc482613621565b9695949193614d7d9360a095614d6f93600180891b03168a5260208a0152604089015260c0606089015260c0880190613e09565b908682036080880152613e46565b930152565b90949392606092608083019660018060a01b03168352602083015260408201520152565b9081602091031261336e57516001600160a01b038116810361336e5790565b600480546040608081905251630f7a077160e21b808252602060a08190526001600160a01b0399986000989397948b169694959490918886818a5afa9788156150d9578998615228575b508a6080515191632762697d60e01b8352169687868301528160248160a051935afa9081156150d957908b92918a916151ef575b501561519f575b169389845416916080515195632e25a20760e11b9384885260a051888881855afa978815615193578b98615170575b50600354608051519463193354cf60e31b86528a89870152602486015260449660448601528d60649916606486015260848501528360a4818d60a051945af1928315615016578a9361513a575b506080515192631b433b1160e01b84528887850152602484015260a051836044818d855af1928315615016578a93615104575b506080515191825281868160a051935afa9081156150d95789916150e5575b508a8554166080515193845283868160a051935afa9283156150d9578b8a93928992859661509d575b50818591606494936080515198899788966307a1bb4f60e31b88528d8801526024870152166044850152165af19586156150915787918897615033575b50875b825181101561502657614f948189613df5565b51614fa2575b600101614f81565b8a82168b614fb08386613df5565b511690614fbd838b613df5565b51813b156150225788888d80948d9460805151978896879563790cb49160e01b875286015260248501528b8401525af1801561501657908a91615002575b5050614f9a565b61500b906135c1565b610d4c578838614ffb565b608051513d8c823e3d90fd5b8b80fd5b5050505050505050509050565b915095503d8088833e6150468183613657565b8101608051828203126113625781516001600160401b03908181116106b55782615071918501613890565b9260a0518101519182116106b55761508a92910161382f565b9538614f7e565b608051513d89823e3d90fd5b85919650916150c86064949360a0513d60a051116150d2575b6150c08183613657565b810190614da6565b9691509192614f41565b503d6150b6565b608051513d8b823e3d90fd5b60a0516150fe92503d81116150d2576150c08183613657565b38614f18565b90925060a0513d60a05111615133575b61511e8183613657565b8160a051918101031261336e57519138614ef9565b503d615114565b90925060a0513d60a05111615169575b6151548183613657565b8160a051918101031261336e57519138614ec6565b503d61514a565b61518c91985060a0513d60a051116150d2576150c08183613657565b9638614e79565b608051513d8d823e3d90fd5b908716803b15610d4c5788809160246080515180948193631f5cea2b60e11b83528c8b8401525af180156150d957908b92916151dc575b50614e4a565b6151e8909991996135c1565b97386151d6565b9192505060a0513d60a05111615221575b61520a8183613657565b8160a0519181010312610d4c57908a915138614e43565b503d615200565b61524491985060a0513d60a051116150d2576150c08183613657565b9638614e0f565b90615272575080511561526057805190602001fd5b60405163d6bda27560e01b8152600490fd5b815115806152a5575b615283575090565b604051639996b31560e01b81526001600160a01b039091166004820152602490fd5b50803b1561527b56fe2f8788117e7eff1d82e926ec794901d17c78024a50270940304540a733656f0d793a6c9b7e0a9549c74edc2f9ae0dc50903dfaa9a56fb0116b27a8c71de3e2c6b16e88c42fd4e48df2dd6a2eabd6bc9aec654ec170056b470819f8892cc6431c30d41a597cac127d8249d31298b50e481ee82c3f4a49ff93c76a22735aa9f3ad44fa5399874b75da801cb431822b6afcadb876f84eb39d7f05bf697e94b4484e360894a13ba1a3210667c828492db98dca3e2076cc3735a920a3ca505d382bbc02dd7bc7dec4dceedda775e58dd541e08a116c6c53815c0bd028192f7b6268009b779b17422d0df92223018b32b4d1fa46e071723d6817e2486d003becc55f00a49807205ce4d355092ef5a8a18f56e8913cf4a201fbe287825b095693c217750cfb002fcf8644f87ebf6cf6e31899c8d8e9f7c329b465b6e36989a958507e8bf0c57e16840df040f15088dc2f81fe391c3923bec73e23a9662efc9c229c6a00a26469706673582212202e5993158eb072374b56e5eb7169e140260544ac4d1f451592c2416601c2dd5e64736f6c63430008160033",
  "linkReferences": {},
  "deployedLinkReferences": {}
}