{
  "_format": "hh-sol-artifact-1",
  "contractName": "TestingTermAuction",
  "sourceName": "contracts/test/TestingTermAuction.sol",
  "abi": [
    {
      "inputs": [],
      "name": "AlreadyTermContractPaired",
      "type": "error"
    },
    {
      "inputs": [],
      "name": "AuctionAlreadyCompleted",
      "type": "error"
    },
    {
      "inputs": [],
      "name": "AuctionCancelledForWithdrawal",
      "type": "error"
    },
    {
      "inputs": [],
      "name": "AuctionNotClosed",
      "type": "error"
    },
    {
      "inputs": [
        {
          "internalType": "uint256",
          "name": "clearingOffset",
          "type": "uint256"
        }
      ],
      "name": "ClearingOffsetNot0Or1",
      "type": "error"
    },
    {
      "inputs": [],
      "name": "CompleteAuctionPaused",
      "type": "error"
    },
    {
      "inputs": [
        {
          "internalType": "string",
          "name": "message",
          "type": "string"
        }
      ],
      "name": "InvalidParameters",
      "type": "error"
    },
    {
      "inputs": [
        {
          "internalType": "uint256",
          "name": "maxDepth",
          "type": "uint256"
        }
      ],
      "name": "MaxPriceSearchDepthExceeded",
      "type": "error"
    },
    {
      "inputs": [],
      "name": "NoBidsOrOffers",
      "type": "error"
    },
    {
      "anonymous": false,
      "inputs": [
        {
          "indexed": false,
          "internalType": "address",
          "name": "previousAdmin",
          "type": "address"
        },
        {
          "indexed": false,
          "internalType": "address",
          "name": "newAdmin",
          "type": "address"
        }
      ],
      "name": "AdminChanged",
      "type": "event"
    },
    {
      "anonymous": false,
      "inputs": [
        {
          "indexed": true,
          "internalType": "address",
          "name": "beacon",
          "type": "address"
        }
      ],
      "name": "BeaconUpgraded",
      "type": "event"
    },
    {
      "anonymous": false,
      "inputs": [
        {
          "indexed": false,
          "internalType": "uint8",
          "name": "version",
          "type": "uint8"
        }
      ],
      "name": "Initialized",
      "type": "event"
    },
    {
      "anonymous": false,
      "inputs": [
        {
          "indexed": true,
          "internalType": "bytes32",
          "name": "role",
          "type": "bytes32"
        },
        {
          "indexed": true,
          "internalType": "bytes32",
          "name": "previousAdminRole",
          "type": "bytes32"
        },
        {
          "indexed": true,
          "internalType": "bytes32",
          "name": "newAdminRole",
          "type": "bytes32"
        }
      ],
      "name": "RoleAdminChanged",
      "type": "event"
    },
    {
      "anonymous": false,
      "inputs": [
        {
          "indexed": true,
          "internalType": "bytes32",
          "name": "role",
          "type": "bytes32"
        },
        {
          "indexed": true,
          "internalType": "address",
          "name": "account",
          "type": "address"
        },
        {
          "indexed": true,
          "internalType": "address",
          "name": "sender",
          "type": "address"
        }
      ],
      "name": "RoleGranted",
      "type": "event"
    },
    {
      "anonymous": false,
      "inputs": [
        {
          "indexed": true,
          "internalType": "bytes32",
          "name": "role",
          "type": "bytes32"
        },
        {
          "indexed": true,
          "internalType": "address",
          "name": "account",
          "type": "address"
        },
        {
          "indexed": true,
          "internalType": "address",
          "name": "sender",
          "type": "address"
        }
      ],
      "name": "RoleRevoked",
      "type": "event"
    },
    {
      "anonymous": false,
      "inputs": [
        {
          "indexed": true,
          "internalType": "address",
          "name": "implementation",
          "type": "address"
        }
      ],
      "name": "Upgraded",
      "type": "event"
    },
    {
      "inputs": [],
      "name": "ADMIN_ROLE",
      "outputs": [
        {
          "internalType": "bytes32",
          "name": "",
          "type": "bytes32"
        }
      ],
      "stateMutability": "view",
      "type": "function"
    },
    {
      "inputs": [],
      "name": "DEFAULT_ADMIN_ROLE",
      "outputs": [
        {
          "internalType": "bytes32",
          "name": "",
          "type": "bytes32"
        }
      ],
      "stateMutability": "view",
      "type": "function"
    },
    {
      "inputs": [],
      "name": "DEVOPS_ROLE",
      "outputs": [
        {
          "internalType": "bytes32",
          "name": "",
          "type": "bytes32"
        }
      ],
      "stateMutability": "view",
      "type": "function"
    },
    {
      "inputs": [],
      "name": "INITIALIZER_ROLE",
      "outputs": [
        {
          "internalType": "bytes32",
          "name": "",
          "type": "bytes32"
        }
      ],
      "stateMutability": "view",
      "type": "function"
    },
    {
      "inputs": [],
      "name": "THREESIXTY_DAYCOUNT_SECONDS",
      "outputs": [
        {
          "internalType": "uint256",
          "name": "",
          "type": "uint256"
        }
      ],
      "stateMutability": "view",
      "type": "function"
    },
    {
      "inputs": [],
      "name": "auctionCancelledForWithdrawal",
      "outputs": [
        {
          "internalType": "bool",
          "name": "",
          "type": "bool"
        }
      ],
      "stateMutability": "view",
      "type": "function"
    },
    {
      "inputs": [],
      "name": "auctionCompleted",
      "outputs": [
        {
          "internalType": "bool",
          "name": "",
          "type": "bool"
        }
      ],
      "stateMutability": "view",
      "type": "function"
    },
    {
      "inputs": [],
      "name": "auctionEndTime",
      "outputs": [
        {
          "internalType": "uint256",
          "name": "",
          "type": "uint256"
        }
      ],
      "stateMutability": "view",
      "type": "function"
    },
    {
      "inputs": [
        {
          "components": [
            {
              "internalType": "bytes32",
              "name": "id",
              "type": "bytes32"
            },
            {
              "internalType": "address",
              "name": "bidder",
              "type": "address"
            },
            {
              "internalType": "uint256",
              "name": "bidPriceRevealed",
              "type": "uint256"
            },
            {
              "internalType": "uint256",
              "name": "amount",
              "type": "uint256"
            },
            {
              "internalType": "uint256[]",
              "name": "collateralAmounts",
              "type": "uint256[]"
            },
            {
              "internalType": "address",
              "name": "purchaseToken",
              "type": "address"
            },
            {
              "internalType": "address[]",
              "name": "collateralTokens",
              "type": "address[]"
            },
            {
              "internalType": "bool",
              "name": "isRollover",
              "type": "bool"
            },
            {
              "internalType": "address",
              "name": "rolloverPairOffTermRepoServicer",
              "type": "address"
            }
          ],
          "internalType": "struct TermAuctionRevealedBid[]",
          "name": "sortedBids",
          "type": "tuple[]"
        },
        {
          "components": [
            {
              "internalType": "bytes32",
              "name": "id",
              "type": "bytes32"
            },
            {
              "internalType": "address",
              "name": "offeror",
              "type": "address"
            },
            {
              "internalType": "uint256",
              "name": "offerPriceRevealed",
              "type": "uint256"
            },
            {
              "internalType": "uint256",
              "name": "amount",
              "type": "uint256"
            },
            {
              "internalType": "address",
              "name": "purchaseToken",
              "type": "address"
            }
          ],
          "internalType": "struct TermAuctionRevealedOffer[]",
          "name": "sortedOffers",
          "type": "tuple[]"
        },
        {
          "internalType": "uint256",
          "name": "clearingOffset",
          "type": "uint256"
        }
      ],
      "name": "calculateClearingPrice",
      "outputs": [
        {
          "internalType": "uint256",
          "name": "",
          "type": "uint256"
        },
        {
          "internalType": "uint256",
          "name": "",
          "type": "uint256"
        }
      ],
      "stateMutability": "pure",
      "type": "function"
    },
    {
      "inputs": [
        {
          "internalType": "uint256",
          "name": "purchasePrice",
          "type": "uint256"
        }
      ],
      "name": "calculateRepurchasePrice",
      "outputs": [
        {
          "internalType": "uint256",
          "name": "",
          "type": "uint256"
        }
      ],
      "stateMutability": "view",
      "type": "function"
    },
    {
      "inputs": [
        {
          "components": [
            {
              "internalType": "bytes32[]",
              "name": "revealedBidSubmissions",
              "type": "bytes32[]"
            },
            {
              "internalType": "bytes32[]",
              "name": "expiredRolloverBids",
              "type": "bytes32[]"
            },
            {
              "internalType": "bytes32[]",
              "name": "unrevealedBidSubmissions",
              "type": "bytes32[]"
            },
            {
              "internalType": "bytes32[]",
              "name": "revealedOfferSubmissions",
              "type": "bytes32[]"
            },
            {
              "internalType": "bytes32[]",
              "name": "unrevealedOfferSubmissions",
              "type": "bytes32[]"
            }
          ],
          "internalType": "struct CompleteAuctionInput",
          "name": "completeAuctionInput",
          "type": "tuple"
        }
      ],
      "name": "cancelAuction",
      "outputs": [],
      "stateMutability": "nonpayable",
      "type": "function"
    },
    {
      "inputs": [
        {
          "internalType": "address[]",
          "name": "rolloverBorrowers",
          "type": "address[]"
        },
        {
          "internalType": "address[]",
          "name": "rolloverPairOffTermRepoServicer",
          "type": "address[]"
        }
      ],
      "name": "cancelAuctionForWithdrawal",
      "outputs": [],
      "stateMutability": "nonpayable",
      "type": "function"
    },
    {
      "inputs": [],
      "name": "clearingPrice",
      "outputs": [
        {
          "internalType": "uint256",
          "name": "",
          "type": "uint256"
        }
      ],
      "stateMutability": "view",
      "type": "function"
    },
    {
      "inputs": [],
      "name": "clearingPricePostProcessingOffset",
      "outputs": [
        {
          "internalType": "uint256",
          "name": "",
          "type": "uint256"
        }
      ],
      "stateMutability": "view",
      "type": "function"
    },
    {
      "inputs": [
        {
          "components": [
            {
              "internalType": "bytes32[]",
              "name": "revealedBidSubmissions",
              "type": "bytes32[]"
            },
            {
              "internalType": "bytes32[]",
              "name": "expiredRolloverBids",
              "type": "bytes32[]"
            },
            {
              "internalType": "bytes32[]",
              "name": "unrevealedBidSubmissions",
              "type": "bytes32[]"
            },
            {
              "internalType": "bytes32[]",
              "name": "revealedOfferSubmissions",
              "type": "bytes32[]"
            },
            {
              "internalType": "bytes32[]",
              "name": "unrevealedOfferSubmissions",
              "type": "bytes32[]"
            }
          ],
          "internalType": "struct CompleteAuctionInput",
          "name": "completeAuctionInput",
          "type": "tuple"
        }
      ],
      "name": "completeAuction",
      "outputs": [],
      "stateMutability": "nonpayable",
      "type": "function"
    },
    {
      "inputs": [],
      "name": "completeAuctionPaused",
      "outputs": [
        {
          "internalType": "bool",
          "name": "",
          "type": "bool"
        }
      ],
      "stateMutability": "view",
      "type": "function"
    },
    {
      "inputs": [],
      "name": "dayCountFractionMantissa",
      "outputs": [
        {
          "internalType": "uint256",
          "name": "",
          "type": "uint256"
        }
      ],
      "stateMutability": "view",
      "type": "function"
    },
    {
      "inputs": [
        {
          "internalType": "bytes32",
          "name": "role",
          "type": "bytes32"
        }
      ],
      "name": "getRoleAdmin",
      "outputs": [
        {
          "internalType": "bytes32",
          "name": "",
          "type": "bytes32"
        }
      ],
      "stateMutability": "view",
      "type": "function"
    },
    {
      "inputs": [
        {
          "internalType": "bytes32",
          "name": "role",
          "type": "bytes32"
        },
        {
          "internalType": "address",
          "name": "account",
          "type": "address"
        }
      ],
      "name": "grantRole",
      "outputs": [],
      "stateMutability": "nonpayable",
      "type": "function"
    },
    {
      "inputs": [
        {
          "internalType": "bytes32",
          "name": "role",
          "type": "bytes32"
        },
        {
          "internalType": "address",
          "name": "account",
          "type": "address"
        }
      ],
      "name": "hasRole",
      "outputs": [
        {
          "internalType": "bool",
          "name": "",
          "type": "bool"
        }
      ],
      "stateMutability": "view",
      "type": "function"
    },
    {
      "inputs": [
        {
          "internalType": "string",
          "name": "termRepoId_",
          "type": "string"
        },
        {
          "internalType": "string",
          "name": "auctionId_",
          "type": "string"
        },
        {
          "internalType": "uint256",
          "name": "auctionEndTime_",
          "type": "uint256"
        },
        {
          "internalType": "uint256",
          "name": "termStart_",
          "type": "uint256"
        },
        {
          "internalType": "uint256",
          "name": "redemptionTimestamp_",
          "type": "uint256"
        },
        {
          "internalType": "contract IERC20MetadataUpgradeable",
          "name": "purchaseToken_",
          "type": "address"
        },
        {
          "internalType": "address",
          "name": "termAuctionInitializer_",
          "type": "address"
        },
        {
          "internalType": "uint256",
          "name": "clearingPricePostProcessingOffset_",
          "type": "uint256"
        }
      ],
      "name": "initialize",
      "outputs": [],
      "stateMutability": "nonpayable",
      "type": "function"
    },
    {
      "inputs": [
        {
          "internalType": "contract ITermEventEmitter",
          "name": "emitter_",
          "type": "address"
        },
        {
          "internalType": "contract ITermRepoServicer",
          "name": "termRepoServicer_",
          "type": "address"
        },
        {
          "internalType": "contract ITermAuctionBidLocker",
          "name": "termAuctionBidLocker_",
          "type": "address"
        },
        {
          "internalType": "contract ITermAuctionOfferLocker",
          "name": "termAuctionOfferLocker_",
          "type": "address"
        },
        {
          "internalType": "address",
          "name": "devopsMultisigAddress_",
          "type": "address"
        },
        {
          "internalType": "address",
          "name": "adminWallet_",
          "type": "address"
        },
        {
          "internalType": "string",
          "name": "version_",
          "type": "string"
        }
      ],
      "name": "pairTermContracts",
      "outputs": [],
      "stateMutability": "nonpayable",
      "type": "function"
    },
    {
      "inputs": [],
      "name": "pauseCompleteAuction",
      "outputs": [],
      "stateMutability": "nonpayable",
      "type": "function"
    },
    {
      "inputs": [],
      "name": "proxiableUUID",
      "outputs": [
        {
          "internalType": "bytes32",
          "name": "",
          "type": "bytes32"
        }
      ],
      "stateMutability": "view",
      "type": "function"
    },
    {
      "inputs": [],
      "name": "purchaseToken",
      "outputs": [
        {
          "internalType": "contract IERC20MetadataUpgradeable",
          "name": "",
          "type": "address"
        }
      ],
      "stateMutability": "view",
      "type": "function"
    },
    {
      "inputs": [
        {
          "internalType": "bytes32",
          "name": "role",
          "type": "bytes32"
        },
        {
          "internalType": "address",
          "name": "account",
          "type": "address"
        }
      ],
      "name": "renounceRole",
      "outputs": [],
      "stateMutability": "nonpayable",
      "type": "function"
    },
    {
      "inputs": [
        {
          "internalType": "bytes32",
          "name": "role",
          "type": "bytes32"
        },
        {
          "internalType": "address",
          "name": "account",
          "type": "address"
        }
      ],
      "name": "revokeRole",
      "outputs": [],
      "stateMutability": "nonpayable",
      "type": "function"
    },
    {
      "inputs": [
        {
          "internalType": "uint256",
          "name": "auctionEndTime_",
          "type": "uint256"
        }
      ],
      "name": "setEndTime",
      "outputs": [],
      "stateMutability": "nonpayable",
      "type": "function"
    },
    {
      "inputs": [
        {
          "internalType": "bytes4",
          "name": "interfaceId",
          "type": "bytes4"
        }
      ],
      "name": "supportsInterface",
      "outputs": [
        {
          "internalType": "bool",
          "name": "",
          "type": "bool"
        }
      ],
      "stateMutability": "view",
      "type": "function"
    },
    {
      "inputs": [],
      "name": "termAuctionBidLocker",
      "outputs": [
        {
          "internalType": "contract ITermAuctionBidLocker",
          "name": "",
          "type": "address"
        }
      ],
      "stateMutability": "view",
      "type": "function"
    },
    {
      "inputs": [],
      "name": "termAuctionId",
      "outputs": [
        {
          "internalType": "bytes32",
          "name": "",
          "type": "bytes32"
        }
      ],
      "stateMutability": "view",
      "type": "function"
    },
    {
      "inputs": [],
      "name": "termAuctionOfferLocker",
      "outputs": [
        {
          "internalType": "contract ITermAuctionOfferLocker",
          "name": "",
          "type": "address"
        }
      ],
      "stateMutability": "view",
      "type": "function"
    },
    {
      "inputs": [],
      "name": "termRepoId",
      "outputs": [
        {
          "internalType": "bytes32",
          "name": "",
          "type": "bytes32"
        }
      ],
      "stateMutability": "view",
      "type": "function"
    },
    {
      "inputs": [],
      "name": "termRepoServicer",
      "outputs": [
        {
          "internalType": "contract ITermRepoServicer",
          "name": "",
          "type": "address"
        }
      ],
      "stateMutability": "view",
      "type": "function"
    },
    {
      "inputs": [],
      "name": "unpauseCompleteAuction",
      "outputs": [],
      "stateMutability": "nonpayable",
      "type": "function"
    },
    {
      "inputs": [
        {
          "internalType": "address",
          "name": "upgradeAddress",
          "type": "address"
        }
      ],
      "name": "upgrade",
      "outputs": [],
      "stateMutability": "nonpayable",
      "type": "function"
    },
    {
      "inputs": [
        {
          "internalType": "address",
          "name": "newImplementation",
          "type": "address"
        }
      ],
      "name": "upgradeTo",
      "outputs": [],
      "stateMutability": "nonpayable",
      "type": "function"
    },
    {
      "inputs": [
        {
          "internalType": "address",
          "name": "newImplementation",
          "type": "address"
        },
        {
          "internalType": "bytes",
          "name": "data",
          "type": "bytes"
        }
      ],
      "name": "upgradeToAndCall",
      "outputs": [],
      "stateMutability": "payable",
      "type": "function"
    },
    {
      "inputs": [],
      "name": "version",
      "outputs": [
        {
          "internalType": "string",
          "name": "",
          "type": "string"
        }
      ],
      "stateMutability": "view",
      "type": "function"
    }
  ],
  "bytecode": "0x60a0604052306080523480156200001557600080fd5b506200002062000026565b620000e7565b600054610100900460ff1615620000935760405162461bcd60e51b815260206004820152602760248201527f496e697469616c697a61626c653a20636f6e747261637420697320696e697469604482015266616c697a696e6760c81b606482015260840160405180910390fd5b60005460ff90811614620000e5576000805460ff191660ff9081179091556040519081527f7f26b83ff96e1f2b6a682f133852f6798a09c465da95921460cefb38474024989060200160405180910390a15b565b608051615edd6200011f600039600081816107d00152818161081001528181610895015281816108d5015261094d0152615edd6000f3fe6080604052600436106101f05760003560e01c8063622ddc391161010e578063a95c4d621161009b578063a95c4d62146105ba578063b2948976146105db578063c794564e146105fb578063cc5b6e4a14610610578063ccb98ffc14610627578063d547741f14610648578063d6725d0c14610668578063f043638714610680578063f691fac1146106a1578063fa2a3cca146106c157600080fd5b8063622ddc391461049e5780636d733141146104be578063700e3e2a146104d5578063743a8f88146104ec57806375b238fc1461050c57806376f9a41e1461052e5780637a6944c51461054e5780638dfea9e71461056557806391d1485414610585578063a217fddf146105a557600080fd5b806336568abe1161018c57806336568abe146103545780633659cfe6146103745780634b449cba146103945780634f1ef286146103ab578063505d799e146103be57806352d1902d146103df57806353f579d3146103f457806354fd4d50146104295780635fb8f3ed146104635780636125be551461047e57600080fd5b806301ffc9a7146101f557806306b282c91461022a5780630900f01014610258578063201a66251461027a578063248a9ca3146102aa57806327df3d3e146102da5780632f2ff15d146102fc57806332a0f2d71461031c578063357a77d214610333575b600080fd5b34801561020157600080fd5b50610215610210366004614908565b6106d6565b60405190151581526020015b60405180910390f35b34801561023657600080fd5b506101325461024b906001600160a01b031681565b6040516102219190614932565b34801561026457600080fd5b50610278610273366004614966565b61070d565b005b34801561028657600080fd5b5061029c600080516020615e0183398151915281565b604051908152602001610221565b3480156102b657600080fd5b5061029c6102c5366004614983565b600090815260c9602052604090206001015490565b3480156102e657600080fd5b5061029c600080516020615e2183398151915281565b34801561030857600080fd5b5061027861031736600461499c565b610719565b34801561032857600080fd5b5061029c6101365481565b34801561033f57600080fd5b506101315461024b906001600160a01b031681565b34801561036057600080fd5b5061027861036f36600461499c565b610743565b34801561038057600080fd5b5061027861038f366004614966565b6107c6565b3480156103a057600080fd5b5061029c61012f5481565b6102786103b9366004614aa2565b61088b565b3480156103ca57600080fd5b506101335461024b906001600160a01b031681565b3480156103eb57600080fd5b5061029c610940565b34801561040057600080fd5b5061041461040f366004614d0e565b6109ee565b60408051928352602083019190915201610221565b34801561043557600080fd5b50604080518082018252600b81526a19195d995b1bdc1b595b9d60aa1b602082015290516102219190614ec9565b34801561046f57600080fd5b50610138546102159060ff1681565b34801561048a57600080fd5b50610278610499366004614f3d565b610a09565b3480156104aa57600080fd5b5061029c6104b9366004614983565b610c13565b3480156104ca57600080fd5b5061029c61012e5481565b3480156104e157600080fd5b5061029c6101375481565b3480156104f857600080fd5b5061027861050736600461503d565b610c1e565b34801561051857600080fd5b5061029c600080516020615e8883398151915281565b34801561053a57600080fd5b506102786105493660046150a8565b610d56565b34801561055a57600080fd5b5061029c6101305481565b34801561057157600080fd5b506101385461021590610100900460ff1681565b34801561059157600080fd5b506102156105a036600461499c565b611452565b3480156105b157600080fd5b5061029c600081565b3480156105c657600080fd5b506101345461024b906001600160a01b031681565b3480156105e757600080fd5b506102786105f63660046150e2565b61147d565b34801561060757600080fd5b506102786115d6565b34801561061c57600080fd5b5061029c61012d5481565b34801561063357600080fd5b50610278610642366004614983565b61012f55565b34801561065457600080fd5b5061027861066336600461499c565b611677565b34801561067457600080fd5b5061029c6301da9c0081565b34801561068c57600080fd5b50610138546102159062010000900460ff1681565b3480156106ad57600080fd5b506102786106bc3660046150a8565b61169c565b3480156106cd57600080fd5b506102786120ed565b60006001600160e01b03198216637965db0b60e01b148061070757506301ffc9a760e01b6001600160e01b03198316145b92915050565b61071681612151565b50565b600082815260c96020526040902060010154610734816121d3565b61073e83836121dd565b505050565b6001600160a01b03811633146107b85760405162461bcd60e51b815260206004820152602f60248201527f416363657373436f6e74726f6c3a2063616e206f6e6c792072656e6f756e636560448201526e103937b632b9903337b91039b2b63360891b60648201526084015b60405180910390fd5b6107c28282612263565b5050565b6001600160a01b037f000000000000000000000000000000000000000000000000000000000000000016300361080e5760405162461bcd60e51b81526004016107af90615194565b7f00000000000000000000000000000000000000000000000000000000000000006001600160a01b03166108406122ca565b6001600160a01b0316146108665760405162461bcd60e51b81526004016107af906151e0565b61086f81612151565b60408051600080825260208201909252610716918391906122e6565b6001600160a01b037f00000000000000000000000000000000000000000000000000000000000000001630036108d35760405162461bcd60e51b81526004016107af90615194565b7f00000000000000000000000000000000000000000000000000000000000000006001600160a01b03166109056122ca565b6001600160a01b03161461092b5760405162461bcd60e51b81526004016107af906151e0565b61093482612151565b6107c2828260016122e6565b6000306001600160a01b037f000000000000000000000000000000000000000000000000000000000000000016146109db5760405162461bcd60e51b815260206004820152603860248201527f555550535570677261646561626c653a206d757374206e6f742062652063616c6044820152771b1959081d1a1c9bdd59da0819195b1959d85d1958d85b1b60421b60648201526084016107af565b50600080516020615e4183398151915290565b6000806109fc858585612451565b915091505b935093915050565b600054610100900460ff1615808015610a295750600054600160ff909116105b80610a4a5750610a3830612ce4565b158015610a4a575060005460ff166001145b610aad5760405162461bcd60e51b815260206004820152602e60248201527f496e697469616c697a61626c653a20636f6e747261637420697320616c72656160448201526d191e481a5b9a5d1a585b1a5e995960921b60648201526084016107af565b6000805460ff191660011790558015610ad0576000805461ff0019166101001790555b610ad8612cf3565b610ae0612cf3565b610ae8612d1c565b610b00600080516020615e21833981519152846121dd565b8a8a604051602001610b1392919061522c565b60408051601f1981840301815290829052805160209182012061012d55610b3e918b918b910161522c565b60408051601f19818403018152919052805160209091012061012e5561012f8790556301da9c00670de0b6b3a7640000610b788888615252565b610b829190615265565b610b8c919061527c565b6101305561013480546001600160a01b0319166001600160a01b038616179055610138805463ff00ffff191690556101378290558015610c06576000805461ff0019169055604051600181527f7f26b83ff96e1f2b6a682f133852f6798a09c465da95921460cefb38474024989060200160405180910390a15b5050505050505050505050565b600061070782612d4b565b61012f544211610c415760405163b9adeefd60e01b815260040160405180910390fd5b600080516020615e88833981519152610c59816121d3565b60005b84811015610cca57610cba848483818110610c7957610c7961529e565b9050602002016020810190610c8e9190614966565b878784818110610ca057610ca061529e565b9050602002016020810190610cb59190614966565b612dd4565b610cc3816152b4565b9050610c5c565b50610138805461ff001916610100908117918290556101355461012e5460405163504c5d5d60e11b81526001600160a01b039092169363a098baba93610d1d936000929190910460ff16906004016152cd565b600060405180830381600087803b158015610d3757600080fd5b505af1158015610d4b573d6000803e3d6000fd5b505050505050505050565b61012f544211610d795760405163b9adeefd60e01b815260040160405180910390fd5b600080516020615e88833981519152610d91816121d3565b6101325460009081906001600160a01b031663f9202d63610db286806152e5565b610dbf60208901896152e5565b610dcc60408b018b6152e5565b6040518763ffffffff1660e01b8152600401610ded96959493929190615360565b6000604051808303816000875af1158015610e0c573d6000803e3d6000fd5b505050506040513d6000823e601f3d908101601f19168201604052610e3491908101906155e8565b61013354919350915060009081906001600160a01b031663c44cee73610e5d60608901896152e5565b610e6a60808b018b6152e5565b6040518563ffffffff1660e01b8152600401610e89949392919061577a565b6000604051808303816000875af1158015610ea8573d6000803e3d6000fd5b505050506040513d6000823e601f3d908101601f19168201604052610ed09190810190615876565b9150915060005b845181101561103f57848181518110610ef257610ef261529e565b602002602001015160e0015115610f4d57610f48858281518110610f1857610f1861529e565b60200260200101516101000151868381518110610f3757610f3761529e565b602002602001015160200151612dd4565b61102f565b6101325485516001600160a01b0390911690630283ce5b90879084908110610f7757610f7761529e565b602002602001015160000151878481518110610f9557610f9561529e565b602002602001015160200151888581518110610fb357610fb361529e565b602002602001015160c00151898681518110610fd157610fd161529e565b6020026020010151608001516040518563ffffffff1660e01b8152600401610ffc94939291906159ee565b600060405180830381600087803b15801561101657600080fd5b505af115801561102a573d6000803e3d6000fd5b505050505b611038816152b4565b9050610ed7565b5060005b825181101561111f576101335483516001600160a01b0390911690630c57f414908590849081106110765761107661529e565b6020026020010151600001518584815181106110945761109461529e565b6020026020010151602001518685815181106110b2576110b261529e565b6020026020010151606001516040518463ffffffff1660e01b81526004016110dc93929190615a2a565b600060405180830381600087803b1580156110f657600080fd5b505af115801561110a573d6000803e3d6000fd5b5050505080611118906152b4565b9050611043565b5060005b835181101561127b5783818151811061113e5761113e61529e565b6020026020010151610100015115611189576111848482815181106111655761116561529e565b60200260200101516101200151858381518110610f3757610f3761529e565b61126b565b6101325484516001600160a01b0390911690630283ce5b908690849081106111b3576111b361529e565b6020026020010151600001518684815181106111d1576111d161529e565b6020026020010151602001518785815181106111ef576111ef61529e565b602002602001015160e0015188868151811061120d5761120d61529e565b602002602001015160a001516040518563ffffffff1660e01b815260040161123894939291906159ee565b600060405180830381600087803b15801561125257600080fd5b505af1158015611266573d6000803e3d6000fd5b505050505b611274816152b4565b9050611123565b5060005b815181101561135b576101335482516001600160a01b0390911690630c57f414908490849081106112b2576112b261529e565b6020026020010151600001518484815181106112d0576112d061529e565b6020026020010151602001518585815181106112ee576112ee61529e565b6020026020010151608001516040518463ffffffff1660e01b815260040161131893929190615a2a565b600060405180830381600087803b15801561133257600080fd5b505af1158015611346573d6000803e3d6000fd5b5050505080611354906152b4565b905061127f565b6101355461012e5460405163504c5d5d60e11b81526001600160a01b039092169163a098baba916113939160009081906004016152cd565b600060405180830381600087803b1580156113ad57600080fd5b505af11580156113c1573d6000803e3d6000fd5b5050505061013160009054906101000a90046001600160a01b03166001600160a01b0316634dabab106040518163ffffffff1660e01b8152600401602060405180830381865afa158015611419573d6000803e3d6000fd5b505050506040513d601f19601f8201168201806040525081019061143d9190615a49565b61144957611449615a66565b50505050505050565b600091825260c9602090815260408084206001600160a01b0393909316845291905290205460ff1690565b600080516020615e21833981519152611495816121d3565b610138546301000000900460ff16156114c157604051634ce377bb60e11b815260040160405180910390fd5b610138805463ff0000001916630100000017905561013580546001600160a01b03808c166001600160a01b03199283161790925561013180548b841690831617905561013280548a841690831617905561013380549289169290911691909117905561153b600080516020615e01833981519152866121dd565b611553600080516020615e88833981519152856121dd565b6101355461012d5461012e5461012f5460405163383a8ab160e01b81526001600160a01b039094169363383a8ab19361159993909290913091908a908a90600401615a7c565b600060405180830381600087803b1580156115b357600080fd5b505af11580156115c7573d6000803e3d6000fd5b50505050505050505050505050565b600080516020615e888339815191526115ee816121d3565b610138805462ff00001916620100001790556101355461012e5461012d54604051635fdd148760e01b81526001600160a01b0390931692635fdd148792611642929091600401918252602082015260400190565b600060405180830381600087803b15801561165c57600080fd5b505af1158015611670573d6000803e3d6000fd5b5050505050565b600082815260c96020526040902060010154611692816121d3565b61073e8383612263565b61012f5442116116bf5760405163b9adeefd60e01b815260040160405180910390fd5b6101385462010000900460ff16156116ea57604051631298d6db60e01b815260040160405180910390fd5b6101385460ff161561170f5760405163f02c1d9560e01b815260040160405180910390fd5b61013854610100900460ff161561173957604051632d93dc5b60e21b815260040160405180910390fd5b610138805460ff1916600117905561175f600080516020615e8883398151915233611452565b61180257600061177260408301836152e5565b9050118061178e5750600061178a60808301836152e5565b9050115b156118025760405163dd23c3ad60e01b815260206004820152603d60248201527f416c6c2074656e64657220707269636573206d7573742062652072657665616c60448201527f656420666f722061756374696f6e20746f20626520636f6d706c65746500000060648201526084016107af565b6101325460009081906001600160a01b031663f9202d6361182385806152e5565b61183060208801886152e5565b61183d60408a018a6152e5565b6040518763ffffffff1660e01b815260040161185e96959493929190615360565b6000604051808303816000875af115801561187d573d6000803e3d6000fd5b505050506040513d6000823e601f3d908101601f191682016040526118a591908101906155e8565b61013354919350915060009081906001600160a01b031663c44cee736118ce60608801886152e5565b6118db60808a018a6152e5565b6040518563ffffffff1660e01b81526004016118fa949392919061577a565b6000604051808303816000875af1158015611919573d6000803e3d6000fd5b505050506040513d6000823e601f3d908101601f191682016040526119419190810190615876565b9150915060008451118015611957575060008251115b80156119ab5750816000815181106119715761197161529e565b602002602001015160400151846001865161198c9190615252565b8151811061199c5761199c61529e565b60200260200101516040015110155b15611aeb5760006119bc8584612ea4565b915050600061013460009054906101000a90046001600160a01b03166001600160a01b031663313ce5676040518163ffffffff1660e01b8152600401602060405180830381865afa158015611a15573d6000803e3d6000fd5b505050506040513d601f19601f82011682018060405250810190611a399190615acf565b60ff1690506000611a4b878484612ede565b90506000611a5a8685856133a7565b6101355461012e5461013654604051630ef1216760e41b81526004810192909252426024830152436044830152606482018690526084820184905260a48201529192506001600160a01b03169063ef1216709060c401600060405180830381600087803b158015611aca57600080fd5b505af1158015611ade573d6000803e3d6000fd5b5050505050505050611e4c565b60005b8451811015611c2657848181518110611b0957611b0961529e565b602002602001015160e0015115611b3457611b2f858281518110610f1857610f1861529e565b611c16565b6101325485516001600160a01b0390911690630283ce5b90879084908110611b5e57611b5e61529e565b602002602001015160000151878481518110611b7c57611b7c61529e565b602002602001015160200151888581518110611b9a57611b9a61529e565b602002602001015160c00151898681518110611bb857611bb861529e565b6020026020010151608001516040518563ffffffff1660e01b8152600401611be394939291906159ee565b600060405180830381600087803b158015611bfd57600080fd5b505af1158015611c11573d6000803e3d6000fd5b505050505b611c1f816152b4565b9050611aee565b5060005b8251811015611d06576101335483516001600160a01b0390911690630c57f41490859084908110611c5d57611c5d61529e565b602002602001015160000151858481518110611c7b57611c7b61529e565b602002602001015160200151868581518110611c9957611c9961529e565b6020026020010151606001516040518463ffffffff1660e01b8152600401611cc393929190615a2a565b600060405180830381600087803b158015611cdd57600080fd5b505af1158015611cf1573d6000803e3d6000fd5b5050505080611cff906152b4565b9050611c2a565b5060008451118015611d19575060008251115b8015611d6c575081600081518110611d3357611d3361529e565b6020026020010151604001518460018651611d4e9190615252565b81518110611d5e57611d5e61529e565b602002602001015160400151105b15611de1576101355461012e5460405163504c5d5d60e11b81526001600160a01b039092169163a098baba91611daa916001906000906004016152cd565b600060405180830381600087803b158015611dc457600080fd5b505af1158015611dd8573d6000803e3d6000fd5b50505050611e4c565b6101355461012e5460405163504c5d5d60e11b81526001600160a01b039092169163a098baba91611e199160009081906004016152cd565b600060405180830381600087803b158015611e3357600080fd5b505af1158015611e47573d6000803e3d6000fd5b505050505b60005b8351811015611f8857838181518110611e6a57611e6a61529e565b6020026020010151610100015115611e9657611e918482815181106111655761116561529e565b611f78565b6101325484516001600160a01b0390911690630283ce5b90869084908110611ec057611ec061529e565b602002602001015160000151868481518110611ede57611ede61529e565b602002602001015160200151878581518110611efc57611efc61529e565b602002602001015160e00151888681518110611f1a57611f1a61529e565b602002602001015160a001516040518563ffffffff1660e01b8152600401611f4594939291906159ee565b600060405180830381600087803b158015611f5f57600080fd5b505af1158015611f73573d6000803e3d6000fd5b505050505b611f81816152b4565b9050611e4f565b5060005b8151811015612068576101335482516001600160a01b0390911690630c57f41490849084908110611fbf57611fbf61529e565b602002602001015160000151848481518110611fdd57611fdd61529e565b602002602001015160200151858581518110611ffb57611ffb61529e565b6020026020010151608001516040518463ffffffff1660e01b815260040161202593929190615a2a565b600060405180830381600087803b15801561203f57600080fd5b505af1158015612053573d6000803e3d6000fd5b5050505080612061906152b4565b9050611f8c565b5061013160009054906101000a90046001600160a01b03166001600160a01b0316634dabab106040518163ffffffff1660e01b8152600401602060405180830381865afa1580156120bd573d6000803e3d6000fd5b505050506040513d601f19601f820116820180604052508101906120e19190615a49565b61167057611670615a66565b600080516020615e88833981519152612105816121d3565b610138805462ff0000191690556101355461012e5461012d5460405162d9568360e21b8152600481019290925260248201526001600160a01b03909116906303655a0c90604401611642565b600080516020615e01833981519152612169816121d3565b6101355460405163b3c2d50b60e01b81523060048201526001600160a01b0384811660248301529091169063b3c2d50b90604401600060405180830381600087803b1580156121b757600080fd5b505af11580156121cb573d6000803e3d6000fd5b505050505050565b61071681336137a9565b6121e78282611452565b6107c257600082815260c9602090815260408083206001600160a01b03851684529091529020805460ff1916600117905561221f3390565b6001600160a01b0316816001600160a01b0316837f2f8788117e7eff1d82e926ec794901d17c78024a50270940304540a733656f0d60405160405180910390a45050565b61226d8282611452565b156107c257600082815260c9602090815260408083206001600160a01b0385168085529252808320805460ff1916905551339285917ff6391f5c32d9c69d2a47ea670b442974b53935d1edc7fd64eb21e047a839171b9190a45050565b600080516020615e41833981519152546001600160a01b031690565b7f4910fdfa16fed3260ed0e7147f7cc6da11a60208b5b9406d12a635614ffd91435460ff16156123195761073e83613802565b826001600160a01b03166352d1902d6040518163ffffffff1660e01b8152600401602060405180830381865afa925050508015612373575060408051601f3d908101601f1916820190925261237091810190615af2565b60015b6123d65760405162461bcd60e51b815260206004820152602e60248201527f45524331393637557067726164653a206e657720696d706c656d656e7461746960448201526d6f6e206973206e6f74205555505360901b60648201526084016107af565b600080516020615e4183398151915281146124455760405162461bcd60e51b815260206004820152602960248201527f45524331393637557067726164653a20756e737570706f727465642070726f786044820152681a58589b195555525160ba1b60648201526084016107af565b5061073e83838361389c565b6000808260011415801561246457508215155b15612485576040516362c115eb60e11b8152600481018490526024016107af565b6000604051806101e00160405280866000815181106124a6576124a661529e565b60200260200101516040015181526020016001815260200187518152602001866000815181106124d8576124d861529e565b602002602001015160600151815260200160008152602001600081526020016000815260200160008152602001600081526020016000815260200160008152602001600081526020016000151581526020016000815260200160008152509050612557866001836040015161254d9190615252565b83516000906138c7565b60408301526080820181905260608201516125729190613977565b60a08201525b84518160200151108015612590575085518160400151105b156126fe57602081015160c08201819052604082015160e083015260608201516101008301526080820151610120830152855186919081106125d4576125d461529e565b602002602001015160400151816101400181815250505b84518160c001511080156126245750806101400151858260c00151815181106126165761261661529e565b602002602001015160400151145b156126725760c081018051869161263a826152b4565b90528151811061264c5761264c61529e565b602002602001015160600151816101000181815161266a9190615b0b565b9052506125eb565b61268c868260e0015183610120015184610140015161398e565b60e083015261012082018190526101008201516126a99190613977565b610160820181905260a082015110156126fe5760c0810151602082015260e0810151604082015261010081015160608201526101208101516080820152610140810151815261016081015160a0820152612578565b845181602001511061271257600019612735565b848160200151815181106127285761272861529e565b6020026020010151604001515b6101408201525b85518160400151101561285057604081015160e08201819052865187919081106127685761276861529e565b6020908102919091010151604001516101a0820181905260808201516101208301526101408201511115612850575b85518160e001511080156127d05750806101a00151868260e00151815181106127c2576127c261529e565b602002602001015160400151145b1561281e5760e08101805187916127e6826152b4565b9052815181106127f8576127f861529e565b60200260200101516060015181610120018181516128169190615252565b905250612797565b806060015181610120015110612850576001610180820152610120810151608082015260e0810151604082015261273c565b806101800151156128c857855181604001511461288e578581604001518151811061287d5761287d61529e565b6020026020010151604001516128bd565b85600182604001516128a09190615252565b815181106128b0576128b061529e565b6020026020010151604001515b6101c08201526128d1565b80516101c08201525b602081018051906128e182615b1e565b8152505083600103612a425760208101515b6000811180156129405750858260200151815181106129145761291461529e565b6020026020010151604001518682815181106129325761293261529e565b602002602001015160400151145b1561295757612950600182615252565b90506128f3565b6040820151875181036129725761296f600182615252565b90505b600188516129809190615252565b811080156129cb57508783604001518151811061299f5761299f61529e565b6020026020010151604001518882815181106129bd576129bd61529e565b602002602001015160400151145b156129e2576129db600182615b0b565b9050612972565b60028882815181106129f6576129f661529e565b602002602001015160400151888481518110612a1457612a1461529e565b602002602001015160400151612a2a9190615b0b565b612a34919061527c565b6101c084015250612ac69050565b8551816040015103612a6557600181604001818151612a619190615252565b9052505b600286826040015181518110612a7d57612a7d61529e565b60200260200101516040015186836020015181518110612a9f57612a9f61529e565b602002602001015160400151612ab59190615b0b565b612abf919061527c565b6101c08201525b806101c0015185826020015181518110612ae257612ae261529e565b60200260200101516040015111612b995760208101805190612b03826152b4565b9052505b84518160200151108015612b415750806101c0015185826020015181518110612b3257612b3261529e565b60200260200101516040015111155b15612b945784816020015181518110612b5c57612b5c61529e565b60200260200101516060015181606001818151612b799190615b0b565b90525060208101805190612b8c826152b4565b905250612b07565b612c1f565b806101c0015185826020015181518110612bb557612bb561529e565b6020026020010151604001511115612c1f5784816020015181518110612bdd57612bdd61529e565b60200260200101516060015181606001818151612bfa9190615252565b905250602081015115612c1f5760208101805190612c1782615b1e565b905250612b99565b85518160400151108015612c585750806101c0015186826040015181518110612c4a57612c4a61529e565b602002602001015160400151105b15612c8557612c768682604001518360800151846101c0015161398e565b60408301526080820152612cbf565b604081015115612cbf57612cb48660018360400151612ca49190615252565b8360800151846101c001516138c7565b604083015260808201525b806101c00151612cd782608001518360600151613977565b9250925050935093915050565b6001600160a01b03163b151590565b600054610100900460ff16612d1a5760405162461bcd60e51b81526004016107af90615b35565b565b600054610100900460ff16612d435760405162461bcd60e51b81526004016107af90615b35565b612d1a613a0f565b600080612d996040518060200160405280670de0b6b3a7640000815250612d94604051806020016040528061013054815250604051806020016040528061013654815250613a3d565b613a85565b9050612dcd612dc86040518060200160405280670de0b6b3a764000087612dc09190615265565b905283613a3d565b613ab1565b9392505050565b60008290506000816001600160a01b031663228d5cc66040518163ffffffff1660e01b8152600401602060405180830381865afa158015612e19573d6000803e3d6000fd5b505050506040513d601f19601f82011682018060405250810190612e3d9190615b80565b6040516364deb92b60e11b81529091506001600160a01b0382169063c9bd725690612e6c908690600401614932565b600060405180830381600087803b158015612e8657600080fd5b505af1158015612e9a573d6000803e3d6000fd5b5050505050505050565b600080612eaf613ac9565b600080612ec0868661013754612451565b61013682905590945092505050612ed7600160fb55565b9250929050565b82516000908190819081905b801561339b57612efb600182615252565b9150600080612f288a8581518110612f1557612f1561529e565b6020026020010151604001518b86613b22565b91509150610136548a8581518110612f4257612f4261529e565b60200260200101516040015110158015612f5b57508886105b8015612f705750612f6c868a615252565b8111155b1561300b57600094505b81612f858686615252565b10612fe857612fb58a612f988787615252565b81518110612fa857612fa861529e565b6020026020010151613bc6565b612fbf9087615b0b565b9550848403612fd857612fd1856152b4565b9450612fe8565b612fe1856152b4565b9450612f7a565b841561300657612ff9600186615252565b6130039084615252565b92505b613388565b610136548a85815181106130215761302161529e565b6020026020010151604001511015801561303a57508886105b1561324f57600094505b8161304f8686615252565b10612fe8578161305f8686615252565b036130c25761309b8a6130728787615252565b815181106130825761308261529e565b6020026020010151878b6130969190615252565b613d13565b6130a59087615b0b565b95506130b1868a615252565b6130bb9082615252565b905061322f565b60008a6130cf8787615252565b815181106130df576130df61529e565b6020026020010151606001519050600061316060405180602001604052808c601261310a9190615252565b61311590600a615c81565b8b8f6131219190615252565b61312b9190615265565b90526040805160208101909152806131448e6012615252565b61314f90600a615c81565b6131599088615265565b9052613e40565b9050600061316f8b6012615252565b61317a90600a615c81565b6131b28360405180602001604052808f60126131969190615252565b6131a190600a615c81565b6131ab9089615265565b9052613a3d565b516131bd919061527c565b90506131eb8d6131cd8a8a615252565b815181106131dd576131dd61529e565b602002602001015182613d13565b6131f5908a615b0b565b98508c6132028989615252565b815181106132125761321261529e565b602002602001015160600151846132299190615252565b93505050505b84840361323f57612fd1856152b4565b613248856152b4565b9450613044565b8984815181106132615761326161529e565b602002602001015160e00151156132a6576130068a85815181106132875761328761529e565b602002602001015161010001518b8681518110610f3757610f3761529e565b610132548a516001600160a01b0390911690630283ce5b908c90879081106132d0576132d061529e565b6020026020010151600001518c87815181106132ee576132ee61529e565b6020026020010151602001518d888151811061330c5761330c61529e565b602002602001015160c001518e898151811061332a5761332a61529e565b6020026020010151608001516040518563ffffffff1660e01b815260040161335594939291906159ee565b600060405180830381600087803b15801561336f57600080fd5b505af1158015613383573d6000803e3d6000fd5b505050505b50508061339490615b1e565b9050612eea565b50919695505050505050565b60008080805b865181101561379e576000806133e18984815181106133ce576133ce61529e565b6020026020010151604001518a85613e7a565b91509150610136548984815181106133fb576133fb61529e565b6020026020010151604001511115801561341457508785105b801561342957506134258589615252565b8111155b156134ad57600093505b8161343e8486615b0b565b1161348a5761346e896134518587615b0b565b815181106134615761346161529e565b6020026020010151613f29565b6134789086615b0b565b9450613483846152b4565b9350613433565b83156134a85761349b600185615252565b6134a59084615b0b565b92505b61378b565b610136548984815181106134c3576134c361529e565b602002602001015160400151111580156134dc57508785105b156136c857600093505b816134f18486615b0b565b1161348a57816135018486615b0b565b036135645761353d896135148587615b0b565b815181106135245761352461529e565b6020026020010151868a6135389190615252565b613ff1565b6135479086615b0b565b94506135538589615252565b61355d9082615252565b90506136b6565b6000896135718587615b0b565b815181106135815761358161529e565b602002602001015160600151905060006135e460405180602001604052808b60126135ac9190615252565b6135b790600a615c81565b6135c18b8f615252565b6135cb9190615265565b90526040805160208101909152806131448d6012615252565b90506000846135f38789615b0b565b0361360757613602888c615252565b613644565b6136128a6012615252565b61361d90600a615c81565b6136398360405180602001604052808e60126131969190615252565b51613644919061527c565b90506136728c613654888a615b0b565b815181106136645761366461529e565b602002602001015182613ff1565b61367c9089615b0b565b97508b6136898789615b0b565b815181106136995761369961529e565b602002602001015160600151846136b09190615252565b93505050505b836136c0816152b4565b9450506134e6565b6101335489516001600160a01b0390911690630c57f414908b90869081106136f2576136f261529e565b6020026020010151600001518b86815181106137105761371061529e565b6020026020010151602001518c878151811061372e5761372e61529e565b6020026020010151606001516040518463ffffffff1660e01b815260040161375893929190615a2a565b600060405180830381600087803b15801561377257600080fd5b505af1158015613786573d6000803e3d6000fd5b505050505b505080613797906152b4565b90506133ad565b509095945050505050565b6137b38282611452565b6107c2576137c08161412c565b6137cb83602061413e565b6040516020016137dc929190615c8d565b60408051601f198184030181529082905262461bcd60e51b82526107af91600401614ec9565b61380b81612ce4565b61386d5760405162461bcd60e51b815260206004820152602d60248201527f455243313936373a206e657720696d706c656d656e746174696f6e206973206e60448201526c1bdd08184818dbdb9d1c9858dd609a1b60648201526084016107af565b600080516020615e4183398151915280546001600160a01b0319166001600160a01b0392909216919091179055565b6138a5836142d9565b6000825111806138b25750805b1561073e576138c18383614319565b50505050565b60008083855b848882815181106138e0576138e061529e565b60200260200101516040015110613932578781815181106139035761390361529e565b6020026020010151606001518261391a9190615b0b565b915080156139325761392b81615b1e565b90506138cd565b81858983815181106139465761394661529e565b6020026020010151604001511061395d5781613968565b613968826001615b0b565b93509350505094509492505050565b6000818310613987575080610707565b5081610707565b60008083855b8751811080156139c05750848882815181106139b2576139b261529e565b602002602001015160400151105b15613a02578781815181106139d7576139d761529e565b602002602001015160600151826139ee9190615252565b9150806139fa816152b4565b915050613994565b9097909650945050505050565b600054610100900460ff16613a365760405162461bcd60e51b81526004016107af90615b35565b600160fb55565b6040805160208101909152600081526040518060200160405280670de0b6b3a7640000613a728660000151866000015161433e565b613a7c919061527c565b90529392505050565b6040805160208101909152600081526040518060200160405280613a7c8560000151856000015161434a565b805160009061070790670de0b6b3a76400009061527c565b600260fb5403613b1b5760405162461bcd60e51b815260206004820152601f60248201527f5265656e7472616e637947756172643a207265656e7472616e742063616c6c0060448201526064016107af565b600260fb55565b600080829150838281518110613b3a57613b3a61529e565b60200260200101516060015190505b811580613b7d57508484613b5e600185615252565b81518110613b6e57613b6e61529e565b60200260200101516040015114155b610a015783613b8d600184615252565b81518110613b9d57613b9d61529e565b60200260200101516060015181613bb49190615b0b565b9050613bbf82615b1e565b9150613b49565b6000613bd0613ac9565b6000613bdf8360600151612d4b565b90508260e00151613c7357610131546020840151606085015160c0860151608087015161013054604051635115f4e560e11b81526001600160a01b039096169563a22be9ca95613c3c959094909389939192909190600401615cfc565b600060405180830381600087803b158015613c5657600080fd5b505af1158015613c6a573d6000803e3d6000fd5b50505050613c8c565b613c8c8360200151846060015183866101000151614356565b6101355461012e54845160608601516040516303e852b160e01b81526001600160a01b03909416936303e852b193613cca9390929091600401615d4f565b600060405180830381600087803b158015613ce457600080fd5b505af1158015613cf8573d6000803e3d6000fd5b505050508260600151915050613d0e600160fb55565b919050565b6000613d1d613ac9565b6000613d2883612d4b565b90508360e00151613db25761013154602085015160c0860151608087015161013054604051635115f4e560e11b81526001600160a01b039095169463a22be9ca94613d7b9490938a938993600401615cfc565b600060405180830381600087803b158015613d9557600080fd5b505af1158015613da9573d6000803e3d6000fd5b50505050613dc7565b613dc784602001518483876101000151614356565b6101355461012e5485516040516303e852b160e01b81526001600160a01b03909316926303e852b192613e009290918890600401615d4f565b600060405180830381600087803b158015613e1a57600080fd5b505af1158015613e2e573d6000803e3d6000fd5b5050505082915050610707600160fb55565b6040805160208101909152600081526040518060200160405280613a7c613e738660000151670de0b6b3a764000061433e565b85516147db565b600080829150838281518110613e9257613e9261529e565b60200260200101516060015190505b60018451613eaf9190615252565b821015610a01578484613ec3846001615b0b565b81518110613ed357613ed361529e565b60200260200101516040015103610a015783613ef0836001615b0b565b81518110613f0057613f0061529e565b60200260200101516060015181613f179190615b0b565b9050613f22826152b4565b9150613ea1565b6000613f33613ac9565b6000613f428360600151612d4b565b610131546020850151606086015186516040516308f9231360e31b81529495506001600160a01b03909316936347c9189893613f85939291879190600401615d65565b600060405180830381600087803b158015613f9f57600080fd5b505af1158015613fb3573d6000803e3d6000fd5b50506101355461012e548651606088015160405163ba0cf0ab60e01b81526001600160a01b03909416955063ba0cf0ab9450613cca93600401615d4f565b6000613ffb613ac9565b600061400683612d4b565b61013154602086015186516040516308f9231360e31b81529394506001600160a01b03909216926347c9189892614044929188918791600401615d65565b600060405180830381600087803b15801561405e57600080fd5b505af1158015614072573d6000803e3d6000fd5b5050610133548651602088015160608901516001600160a01b039093169450630c57f414935090916140a5908890615252565b6040518463ffffffff1660e01b81526004016140c393929190615a2a565b600060405180830381600087803b1580156140dd57600080fd5b505af11580156140f1573d6000803e3d6000fd5b50506101355461012e54875160405163ba0cf0ab60e01b81526001600160a01b03909316945063ba0cf0ab9350613e00928890600401615d4f565b60606107076001600160a01b03831660145b6060600061414d836002615265565b614158906002615b0b565b6001600160401b0381111561416f5761416f6149cc565b6040519080825280601f01601f191660200182016040528015614199576020820181803683370190505b509050600360fc1b816000815181106141b4576141b461529e565b60200101906001600160f81b031916908160001a905350600f60fb1b816001815181106141e3576141e361529e565b60200101906001600160f81b031916908160001a9053506000614207846002615265565b614212906001615b0b565b90505b600181111561428a576f181899199a1a9b1b9c1cb0b131b232b360811b85600f16601081106142465761424661529e565b1a60f81b82828151811061425c5761425c61529e565b60200101906001600160f81b031916908160001a90535060049490941c9361428381615b1e565b9050614215565b508315612dcd5760405162461bcd60e51b815260206004820181905260248201527f537472696e67733a20686578206c656e67746820696e73756666696369656e7460448201526064016107af565b6142e281613802565b6040516001600160a01b038216907fbc7cd75a20ee27fd9adebab32041f755214dbc6bffa90cc0225b39da2e5c2d3b90600090a250565b6060612dcd8383604051806060016040528060278152602001615e61602791396147e7565b6000612dcd8284615265565b6000612dcd8284615b0b565b6000819050600061013160009054906101000a90046001600160a01b03166001600160a01b031663c99aa678878787866001600160a01b0316635c4b440e6040518163ffffffff1660e01b8152600401602060405180830381865afa1580156143c3573d6000803e3d6000fd5b505050506040513d601f19601f820116820180604052508101906143e79190615b80565b6101305460405160e087901b6001600160e01b03191681526001600160a01b039586166004820152602481019490945260448401929092529092166064820152608481019190915260a4016020604051808303816000875af1158015614451573d6000803e3d6000fd5b505050506040513d601f19601f820116820180604052508101906144759190615af2565b604051631b433b1160e01b81526001600160a01b03888116600483015260248201839052919250600091841690631b433b11906044016020604051808303816000875af11580156144ca573d6000803e3d6000fd5b505050506040513d601f19601f820116820180604052508101906144ee9190615af2565b90506000836001600160a01b0316633de81dc46040518163ffffffff1660e01b8152600401602060405180830381865afa158015614530573d6000803e3d6000fd5b505050506040513d601f19601f820116820180604052508101906145549190615b80565b9050600080826001600160a01b0316633d0dda788b8661013160009054906101000a90046001600160a01b03166001600160a01b0316635c4b440e6040518163ffffffff1660e01b8152600401602060405180830381865afa1580156145be573d6000803e3d6000fd5b505050506040513d601f19601f820116820180604052508101906145e29190615b80565b60405160e085901b6001600160e01b03191681526001600160a01b039384166004820152602481019290925290911660448201526064016000604051808303816000875af1158015614638573d6000803e3d6000fd5b505050506040513d6000823e601f3d908101601f191682016040526146609190810190615d8b565b91509150600061013160009054906101000a90046001600160a01b03166001600160a01b0316633de81dc46040518163ffffffff1660e01b8152600401602060405180830381865afa1580156146ba573d6000803e3d6000fd5b505050506040513d601f19601f820116820180604052508101906146de9190615b80565b905060005b83518110156147cd5760008382815181106147005761470061529e565b602002602001015111156147bd57816001600160a01b031663790cb4918d8684815181106147305761473061529e565b602002602001015186858151811061474a5761474a61529e565b60209081029190910101516040516001600160e01b031960e086901b1681526001600160a01b0393841660048201529290911660248301526044820152606401600060405180830381600087803b1580156147a457600080fd5b505af11580156147b8573d6000803e3d6000fd5b505050505b6147c6816152b4565b90506146e3565b505050505050505050505050565b6000612dcd828461527c565b6060600080856001600160a01b0316856040516148049190615de4565b600060405180830381855af49150503d806000811461483f576040519150601f19603f3d011682016040523d82523d6000602084013e614844565b606091505b50915091506148558683838761485f565b9695505050505050565b606083156148cc5782516000036148c55761487985612ce4565b6148c55760405162461bcd60e51b815260206004820152601d60248201527f416464726573733a2063616c6c20746f206e6f6e2d636f6e747261637400000060448201526064016107af565b50816148d6565b6148d683836148de565b949350505050565b8151156148ee5781518083602001fd5b8060405162461bcd60e51b81526004016107af9190614ec9565b60006020828403121561491a57600080fd5b81356001600160e01b031981168114612dcd57600080fd5b6001600160a01b0391909116815260200190565b6001600160a01b038116811461071657600080fd5b8035613d0e81614946565b60006020828403121561497857600080fd5b8135612dcd81614946565b60006020828403121561499557600080fd5b5035919050565b600080604083850312156149af57600080fd5b8235915060208301356149c181614946565b809150509250929050565b634e487b7160e01b600052604160045260246000fd5b60405160a081016001600160401b0381118282101715614a0457614a046149cc565b60405290565b60405161012081016001600160401b0381118282101715614a0457614a046149cc565b60405161016081016001600160401b0381118282101715614a0457614a046149cc565b60405160e081016001600160401b0381118282101715614a0457614a046149cc565b604051601f8201601f191681016001600160401b0381118282101715614a9a57614a9a6149cc565b604052919050565b60008060408385031215614ab557600080fd5b8235614ac081614946565b91506020838101356001600160401b0380821115614add57600080fd5b818601915086601f830112614af157600080fd5b813581811115614b0357614b036149cc565b614b15601f8201601f19168501614a72565b91508082528784828501011115614b2b57600080fd5b80848401858401376000848284010152508093505050509250929050565b60006001600160401b03821115614b6257614b626149cc565b5060051b60200190565b600082601f830112614b7d57600080fd5b81356020614b92614b8d83614b49565b614a72565b82815260059290921b84018101918181019086841115614bb157600080fd5b8286015b84811015614bcc5780358352918301918301614bb5565b509695505050505050565b600082601f830112614be857600080fd5b81356020614bf8614b8d83614b49565b82815260059290921b84018101918181019086841115614c1757600080fd5b8286015b84811015614bcc578035614c2e81614946565b8352918301918301614c1b565b801515811461071657600080fd5b8035613d0e81614c3b565b600082601f830112614c6557600080fd5b81356020614c75614b8d83614b49565b82815260a09283028501820192828201919087851115614c9457600080fd5b8387015b85811015614d015781818a031215614cb05760008081fd5b614cb86149e2565b8135815285820135614cc981614946565b818701526040828101359082015260608083013590820152608080830135614cf081614946565b908201528452928401928101614c98565b5090979650505050505050565b600080600060608486031215614d2357600080fd5b83356001600160401b0380821115614d3a57600080fd5b818601915086601f830112614d4e57600080fd5b81356020614d5e614b8d83614b49565b82815260059290921b8401810191818101908a841115614d7d57600080fd5b8286015b84811015614e7057803586811115614d9857600080fd5b8701610120818e03601f19011215614daf57600080fd5b614db7614a0a565b858201358152614dc96040830161495b565b86820152606082013560408201526080820135606082015260a082013588811115614df357600080fd5b614e018f8883860101614b6c565b608083015250614e1360c0830161495b565b60a082015260e082013588811115614e2a57600080fd5b614e388f8883860101614bd7565b60c083015250610100614e4c818401614c49565b60e0830152614e5e610120840161495b565b90820152845250918301918301614d81565b5097505087013592505080821115614e8757600080fd5b50614e9486828701614c54565b925050604084013590509250925092565b60005b83811015614ec0578181015183820152602001614ea8565b50506000910152565b6020815260008251806020840152614ee8816040850160208701614ea5565b601f01601f19169190910160400192915050565b60008083601f840112614f0e57600080fd5b5081356001600160401b03811115614f2557600080fd5b602083019150836020828501011115612ed757600080fd5b6000806000806000806000806000806101008b8d031215614f5d57600080fd5b8a356001600160401b0380821115614f7457600080fd5b614f808e838f01614efc565b909c509a5060208d0135915080821115614f9957600080fd5b50614fa68d828e01614efc565b90995097505060408b0135955060608b0135945060808b0135935060a08b0135614fcf81614946565b925060c08b0135614fdf81614946565b8092505060e08b013590509295989b9194979a5092959850565b60008083601f84011261500b57600080fd5b5081356001600160401b0381111561502257600080fd5b6020830191508360208260051b8501011115612ed757600080fd5b6000806000806040858703121561505357600080fd5b84356001600160401b038082111561506a57600080fd5b61507688838901614ff9565b9096509450602087013591508082111561508f57600080fd5b5061509c87828801614ff9565b95989497509550505050565b6000602082840312156150ba57600080fd5b81356001600160401b038111156150d057600080fd5b820160a08185031215612dcd57600080fd5b60008060008060008060008060e0898b0312156150fe57600080fd5b883561510981614946565b9750602089013561511981614946565b9650604089013561512981614946565b9550606089013561513981614946565b9450608089013561514981614946565b935060a089013561515981614946565b925060c08901356001600160401b0381111561517457600080fd5b6151808b828c01614efc565b999c989b5096995094979396929594505050565b6020808252602c908201527f46756e6374696f6e206d7573742062652063616c6c6564207468726f7567682060408201526b19195b1959d85d1958d85b1b60a21b606082015260800190565b6020808252602c908201527f46756e6374696f6e206d7573742062652063616c6c6564207468726f7567682060408201526b6163746976652070726f787960a01b606082015260800190565b8183823760009101908152919050565b634e487b7160e01b600052601160045260246000fd5b818103818111156107075761070761523c565b80820281158282048414176107075761070761523c565b60008261529957634e487b7160e01b600052601260045260246000fd5b500490565b634e487b7160e01b600052603260045260246000fd5b6000600182016152c6576152c661523c565b5060010190565b92835290151560208301521515604082015260600190565b6000808335601e198436030181126152fc57600080fd5b8301803591506001600160401b0382111561531657600080fd5b6020019150600581901b3603821315612ed757600080fd5b81835260006001600160fb1b0383111561534757600080fd5b8260051b80836020870137939093016020019392505050565b60608152600061537460608301888a61532e565b828103602084015261538781878961532e565b9050828103604084015261539c81858761532e565b9998505050505050505050565b8051613d0e81614946565b600082601f8301126153c557600080fd5b815160206153d5614b8d83614b49565b82815260059290921b840181019181810190868411156153f457600080fd5b8286015b84811015614bcc57805183529183019183016153f8565b600082601f83011261542057600080fd5b81516020615430614b8d83614b49565b82815260059290921b8401810191818101908684111561544f57600080fd5b8286015b84811015614bcc57805161546681614946565b8352918301918301615453565b8051613d0e81614c3b565b600082601f83011261548f57600080fd5b8151602061549f614b8d83614b49565b82815260059290921b840181019181810190868411156154be57600080fd5b8286015b84811015614bcc5780516001600160401b03808211156154e25760008081fd5b90880190610160828b03601f19018113156154fd5760008081fd5b615505614a2d565b87840151815260406155188186016153a9565b89830152606080860151828401526080915081860151818401525060a0808601518284015260c0915081860151858111156155535760008081fd5b6155618f8c838a01016153b4565b82850152505060e06155748187016153a9565b828401526101009150818601518581111561558f5760008081fd5b61559d8f8c838a010161540f565b82850152505061012093506155b3848601615473565b908201526101406155c58582016153a9565b848301526155d4838601615473565b9082015286525050509183019183016154c2565b600080604083850312156155fb57600080fd5b82516001600160401b038082111561561257600080fd5b818501915085601f83011261562657600080fd5b81516020615636614b8d83614b49565b82815260059290921b8401810191818101908984111561565557600080fd5b8286015b848110156157495780518681111561567057600080fd5b8701610120818d03601f190181131561568857600080fd5b615690614a0a565b8683015181526156a2604084016153a9565b87820152606083015160408201526080830151606082015260a0830151898111156156cc57600080fd5b6156da8f89838701016153b4565b6080830152506156ec60c084016153a9565b60a082015260e0830151898111156157045760008081fd5b6157128f898387010161540f565b60c083015250610100615726818501615473565b60e08301526157368385016153a9565b9082015285525050918301918301615659565b509188015191965090935050508082111561576357600080fd5b506157708582860161547e565b9150509250929050565b60408152600061578e60408301868861532e565b82810360208401526157a181858761532e565b979650505050505050565b600082601f8301126157bd57600080fd5b815160206157cd614b8d83614b49565b82815260e092830285018201928282019190878511156157ec57600080fd5b8387015b85811015614d015781818a0312156158085760008081fd5b615810614a50565b815181528582015161582181614946565b8187015260408281015190820152606080830151908201526080808301519082015260a08083015161585281614946565b9082015260c08281015161586581614c3b565b9082015284529284019281016157f0565b600080604080848603121561588a57600080fd5b83516001600160401b03808211156158a157600080fd5b818601915086601f8301126158b557600080fd5b815160206158c5614b8d83614b49565b82815260a0928302850182019282820191908b8511156158e457600080fd5b958301955b848710156159525780878d0312156159015760008081fd5b6159096149e2565b875181528488015161591a81614946565b8186015287890151898201526060808901519082015260808089015161593f81614946565b90820152835295860195918301916158e9565b509189015191975090945050508083111561596c57600080fd5b5050615770858286016157ac565b600081518084526020808501945080840160005b838110156159b35781516001600160a01b03168752958201959082019060010161598e565b509495945050505050565b600081518084526020808501945080840160005b838110156159b3578151875295820195908201906001016159d2565b8481526001600160a01b0384166020820152608060408201819052600090615a189083018561597a565b82810360608401526157a181856159be565b9283526001600160a01b03919091166020830152604082015260600190565b600060208284031215615a5b57600080fd5b8151612dcd81614c3b565b634e487b7160e01b600052600160045260246000fd5b86815285602082015260018060a01b038516604082015283606082015260a060808201528160a0820152818360c0830137600081830160c090810191909152601f909201601f1916010195945050505050565b600060208284031215615ae157600080fd5b815160ff81168114612dcd57600080fd5b600060208284031215615b0457600080fd5b5051919050565b808201808211156107075761070761523c565b600081615b2d57615b2d61523c565b506000190190565b6020808252602b908201527f496e697469616c697a61626c653a20636f6e7472616374206973206e6f74206960408201526a6e697469616c697a696e6760a81b606082015260800190565b600060208284031215615b9257600080fd5b8151612dcd81614946565b600181815b80851115615bd8578160001904821115615bbe57615bbe61523c565b80851615615bcb57918102915b93841c9390800290615ba2565b509250929050565b600082615bef57506001610707565b81615bfc57506000610707565b8160018114615c125760028114615c1c57615c38565b6001915050610707565b60ff841115615c2d57615c2d61523c565b50506001821b610707565b5060208310610133831016604e8410600b8410161715615c5b575081810a610707565b615c658383615b9d565b8060001904821115615c7957615c7961523c565b029392505050565b6000612dcd8383615be0565b76020b1b1b2b9b9a1b7b73a3937b61d1030b1b1b7bab73a1604d1b815260008351615cbf816017850160208801614ea5565b7001034b99036b4b9b9b4b733903937b6329607d1b6017918401918201528351615cf0816028840160208801614ea5565b01602801949350505050565b60018060a01b038716815285602082015284604082015260c060608201526000615d2960c083018661597a565b8281036080840152615d3b81866159be565b9150508260a0830152979650505050505050565b9283526020830191909152604082015260600190565b6001600160a01b0394909416845260208401929092526040830152606082015260800190565b60008060408385031215615d9e57600080fd5b82516001600160401b0380821115615db557600080fd5b615dc18683870161540f565b93506020850151915080821115615dd757600080fd5b50615770858286016153b4565b60008251615df6818460208701614ea5565b919091019291505056fe793a6c9b7e0a9549c74edc2f9ae0dc50903dfaa9a56fb0116b27a8c71de3e2c630d41a597cac127d8249d31298b50e481ee82c3f4a49ff93c76a22735aa9f3ad360894a13ba1a3210667c828492db98dca3e2076cc3735a920a3ca505d382bbc416464726573733a206c6f772d6c6576656c2064656c65676174652063616c6c206661696c6564a49807205ce4d355092ef5a8a18f56e8913cf4a201fbe287825b095693c21775a26469706673582212203de188d05bb42de112f6dd81dc1360678a813b302b553242ec681386cac00f3864736f6c63430008120033",
  "linkReferences": {},
  "deployedLinkReferences": {}
}