{
  "_format": "hh-sol-artifact-1",
  "contractName": "TestTermRepoServicer",
  "sourceName": "contracts/test/TestTermRepoServicer.sol",
  "abi": [
    {
      "inputs": [],
      "name": "AfterMaturity",
      "type": "error"
    },
    {
      "inputs": [],
      "name": "AfterRepurchaseWindow",
      "type": "error"
    },
    {
      "inputs": [],
      "name": "AlreadyTermContractPaired",
      "type": "error"
    },
    {
      "inputs": [],
      "name": "CallerNotBorrower",
      "type": "error"
    },
    {
      "inputs": [],
      "name": "EncumberedCollateralRemaining",
      "type": "error"
    },
    {
      "inputs": [],
      "name": "InsufficientCollateral",
      "type": "error"
    },
    {
      "inputs": [],
      "name": "InsufficientTermRepoTokenBalance",
      "type": "error"
    },
    {
      "inputs": [],
      "name": "InsufficientgetBorrowerRepurchaseObligation",
      "type": "error"
    },
    {
      "inputs": [
        {
          "internalType": "string",
          "name": "message",
          "type": "string"
        }
      ],
      "name": "InvalidParameters",
      "type": "error"
    },
    {
      "inputs": [],
      "name": "LockedBalanceInsufficient",
      "type": "error"
    },
    {
      "inputs": [],
      "name": "NoMintOpenExposureAccess",
      "type": "error"
    },
    {
      "inputs": [],
      "name": "NotMaturedYet",
      "type": "error"
    },
    {
      "inputs": [],
      "name": "RedemptionPeriodNotOpen",
      "type": "error"
    },
    {
      "inputs": [],
      "name": "RepurchaseAmountTooHigh",
      "type": "error"
    },
    {
      "inputs": [],
      "name": "ZeroBorrowerRepurchaseObligation",
      "type": "error"
    },
    {
      "inputs": [],
      "name": "ZeroMaxRepurchase",
      "type": "error"
    },
    {
      "inputs": [],
      "name": "ZeroTermRepoTokenBalance",
      "type": "error"
    },
    {
      "anonymous": false,
      "inputs": [
        {
          "indexed": false,
          "internalType": "address",
          "name": "previousAdmin",
          "type": "address"
        },
        {
          "indexed": false,
          "internalType": "address",
          "name": "newAdmin",
          "type": "address"
        }
      ],
      "name": "AdminChanged",
      "type": "event"
    },
    {
      "anonymous": false,
      "inputs": [
        {
          "indexed": true,
          "internalType": "address",
          "name": "beacon",
          "type": "address"
        }
      ],
      "name": "BeaconUpgraded",
      "type": "event"
    },
    {
      "anonymous": false,
      "inputs": [
        {
          "indexed": false,
          "internalType": "uint8",
          "name": "version",
          "type": "uint8"
        }
      ],
      "name": "Initialized",
      "type": "event"
    },
    {
      "anonymous": false,
      "inputs": [
        {
          "indexed": true,
          "internalType": "bytes32",
          "name": "role",
          "type": "bytes32"
        },
        {
          "indexed": true,
          "internalType": "bytes32",
          "name": "previousAdminRole",
          "type": "bytes32"
        },
        {
          "indexed": true,
          "internalType": "bytes32",
          "name": "newAdminRole",
          "type": "bytes32"
        }
      ],
      "name": "RoleAdminChanged",
      "type": "event"
    },
    {
      "anonymous": false,
      "inputs": [
        {
          "indexed": true,
          "internalType": "bytes32",
          "name": "role",
          "type": "bytes32"
        },
        {
          "indexed": true,
          "internalType": "address",
          "name": "account",
          "type": "address"
        },
        {
          "indexed": true,
          "internalType": "address",
          "name": "sender",
          "type": "address"
        }
      ],
      "name": "RoleGranted",
      "type": "event"
    },
    {
      "anonymous": false,
      "inputs": [
        {
          "indexed": true,
          "internalType": "bytes32",
          "name": "role",
          "type": "bytes32"
        },
        {
          "indexed": true,
          "internalType": "address",
          "name": "account",
          "type": "address"
        },
        {
          "indexed": true,
          "internalType": "address",
          "name": "sender",
          "type": "address"
        }
      ],
      "name": "RoleRevoked",
      "type": "event"
    },
    {
      "anonymous": false,
      "inputs": [
        {
          "indexed": true,
          "internalType": "address",
          "name": "implementation",
          "type": "address"
        }
      ],
      "name": "Upgraded",
      "type": "event"
    },
    {
      "inputs": [],
      "name": "ADMIN_ROLE",
      "outputs": [
        {
          "internalType": "bytes32",
          "name": "",
          "type": "bytes32"
        }
      ],
      "stateMutability": "view",
      "type": "function"
    },
    {
      "inputs": [],
      "name": "AUCTIONEER",
      "outputs": [
        {
          "internalType": "bytes32",
          "name": "",
          "type": "bytes32"
        }
      ],
      "stateMutability": "view",
      "type": "function"
    },
    {
      "inputs": [],
      "name": "AUCTION_LOCKER",
      "outputs": [
        {
          "internalType": "bytes32",
          "name": "",
          "type": "bytes32"
        }
      ],
      "stateMutability": "view",
      "type": "function"
    },
    {
      "inputs": [],
      "name": "COLLATERAL_MANAGER",
      "outputs": [
        {
          "internalType": "bytes32",
          "name": "",
          "type": "bytes32"
        }
      ],
      "stateMutability": "view",
      "type": "function"
    },
    {
      "inputs": [],
      "name": "DEFAULT_ADMIN_ROLE",
      "outputs": [
        {
          "internalType": "bytes32",
          "name": "",
          "type": "bytes32"
        }
      ],
      "stateMutability": "view",
      "type": "function"
    },
    {
      "inputs": [],
      "name": "DEVOPS_ROLE",
      "outputs": [
        {
          "internalType": "bytes32",
          "name": "",
          "type": "bytes32"
        }
      ],
      "stateMutability": "view",
      "type": "function"
    },
    {
      "inputs": [],
      "name": "INITIALIZER_ROLE",
      "outputs": [
        {
          "internalType": "bytes32",
          "name": "",
          "type": "bytes32"
        }
      ],
      "stateMutability": "view",
      "type": "function"
    },
    {
      "inputs": [],
      "name": "ROLLOVER_MANAGER",
      "outputs": [
        {
          "internalType": "bytes32",
          "name": "",
          "type": "bytes32"
        }
      ],
      "stateMutability": "view",
      "type": "function"
    },
    {
      "inputs": [],
      "name": "ROLLOVER_TARGET_AUCTIONEER_ROLE",
      "outputs": [
        {
          "internalType": "bytes32",
          "name": "",
          "type": "bytes32"
        }
      ],
      "stateMutability": "view",
      "type": "function"
    },
    {
      "inputs": [],
      "name": "SPECIALIST_ROLE",
      "outputs": [
        {
          "internalType": "bytes32",
          "name": "",
          "type": "bytes32"
        }
      ],
      "stateMutability": "view",
      "type": "function"
    },
    {
      "inputs": [],
      "name": "YEAR_SECONDS",
      "outputs": [
        {
          "internalType": "uint256",
          "name": "",
          "type": "uint256"
        }
      ],
      "stateMutability": "view",
      "type": "function"
    },
    {
      "inputs": [
        {
          "internalType": "address",
          "name": "termAuction",
          "type": "address"
        }
      ],
      "name": "approveRolloverAuction",
      "outputs": [],
      "stateMutability": "nonpayable",
      "type": "function"
    },
    {
      "inputs": [
        {
          "internalType": "uint256",
          "name": "amountToBurn",
          "type": "uint256"
        }
      ],
      "name": "burnCollapseExposure",
      "outputs": [],
      "stateMutability": "nonpayable",
      "type": "function"
    },
    {
      "inputs": [
        {
          "internalType": "address",
          "name": "borrower",
          "type": "address"
        },
        {
          "internalType": "uint256",
          "name": "rolloverSettlementAmount",
          "type": "uint256"
        }
      ],
      "name": "closeExposureOnRolloverExisting",
      "outputs": [
        {
          "internalType": "uint256",
          "name": "",
          "type": "uint256"
        }
      ],
      "stateMutability": "nonpayable",
      "type": "function"
    },
    {
      "inputs": [],
      "name": "endOfRepurchaseWindow",
      "outputs": [
        {
          "internalType": "uint256",
          "name": "",
          "type": "uint256"
        }
      ],
      "stateMutability": "view",
      "type": "function"
    },
    {
      "inputs": [
        {
          "internalType": "address",
          "name": "bidder",
          "type": "address"
        },
        {
          "internalType": "uint256",
          "name": "purchasePrice",
          "type": "uint256"
        },
        {
          "internalType": "uint256",
          "name": "repurchasePrice",
          "type": "uint256"
        },
        {
          "internalType": "address[]",
          "name": "collateralTokens",
          "type": "address[]"
        },
        {
          "internalType": "uint256[]",
          "name": "collateralAmounts",
          "type": "uint256[]"
        },
        {
          "internalType": "uint256",
          "name": "dayCountFractionMantissa",
          "type": "uint256"
        }
      ],
      "name": "fulfillBid",
      "outputs": [],
      "stateMutability": "nonpayable",
      "type": "function"
    },
    {
      "inputs": [
        {
          "internalType": "address",
          "name": "offeror",
          "type": "address"
        },
        {
          "internalType": "uint256",
          "name": "purchasePrice",
          "type": "uint256"
        },
        {
          "internalType": "uint256",
          "name": "repurchasePrice",
          "type": "uint256"
        },
        {
          "internalType": "bytes32",
          "name": "offerId",
          "type": "bytes32"
        }
      ],
      "name": "fulfillOffer",
      "outputs": [],
      "stateMutability": "nonpayable",
      "type": "function"
    },
    {
      "inputs": [
        {
          "internalType": "address",
          "name": "borrower",
          "type": "address"
        }
      ],
      "name": "getBorrowerRepurchaseObligation",
      "outputs": [
        {
          "internalType": "uint256",
          "name": "",
          "type": "uint256"
        }
      ],
      "stateMutability": "view",
      "type": "function"
    },
    {
      "inputs": [
        {
          "internalType": "bytes32",
          "name": "role",
          "type": "bytes32"
        }
      ],
      "name": "getRoleAdmin",
      "outputs": [
        {
          "internalType": "bytes32",
          "name": "",
          "type": "bytes32"
        }
      ],
      "stateMutability": "view",
      "type": "function"
    },
    {
      "inputs": [
        {
          "internalType": "bytes32",
          "name": "role",
          "type": "bytes32"
        },
        {
          "internalType": "address",
          "name": "account",
          "type": "address"
        }
      ],
      "name": "grantRole",
      "outputs": [],
      "stateMutability": "nonpayable",
      "type": "function"
    },
    {
      "inputs": [
        {
          "internalType": "bytes32",
          "name": "role",
          "type": "bytes32"
        },
        {
          "internalType": "address",
          "name": "account",
          "type": "address"
        }
      ],
      "name": "hasRole",
      "outputs": [
        {
          "internalType": "bool",
          "name": "",
          "type": "bool"
        }
      ],
      "stateMutability": "view",
      "type": "function"
    },
    {
      "inputs": [
        {
          "internalType": "string",
          "name": "termRepoId_",
          "type": "string"
        },
        {
          "internalType": "uint256",
          "name": "maturityTimestamp_",
          "type": "uint256"
        },
        {
          "internalType": "uint256",
          "name": "repurchaseWindow_",
          "type": "uint256"
        },
        {
          "internalType": "uint256",
          "name": "redemptionBuffer_",
          "type": "uint256"
        },
        {
          "internalType": "uint256",
          "name": "servicingFee_",
          "type": "uint256"
        },
        {
          "internalType": "address",
          "name": "purchaseToken_",
          "type": "address"
        },
        {
          "internalType": "contract ITermController",
          "name": "termController_",
          "type": "address"
        },
        {
          "internalType": "contract ITermEventEmitter",
          "name": "emitter_",
          "type": "address"
        },
        {
          "internalType": "address",
          "name": "termInitializer_",
          "type": "address"
        }
      ],
      "name": "initialize",
      "outputs": [],
      "stateMutability": "nonpayable",
      "type": "function"
    },
    {
      "inputs": [],
      "name": "isTermRepoBalanced",
      "outputs": [
        {
          "internalType": "bool",
          "name": "",
          "type": "bool"
        }
      ],
      "stateMutability": "view",
      "type": "function"
    },
    {
      "inputs": [
        {
          "internalType": "address",
          "name": "borrower",
          "type": "address"
        },
        {
          "internalType": "address",
          "name": "liquidator",
          "type": "address"
        },
        {
          "internalType": "uint256",
          "name": "amountToCover",
          "type": "uint256"
        }
      ],
      "name": "liquidatorCoverExposure",
      "outputs": [],
      "stateMutability": "nonpayable",
      "type": "function"
    },
    {
      "inputs": [
        {
          "internalType": "address",
          "name": "borrower",
          "type": "address"
        },
        {
          "internalType": "address",
          "name": "liquidator",
          "type": "address"
        },
        {
          "internalType": "uint256",
          "name": "amountOfRepoToken",
          "type": "uint256"
        }
      ],
      "name": "liquidatorCoverExposureWithRepoToken",
      "outputs": [
        {
          "internalType": "uint256",
          "name": "",
          "type": "uint256"
        }
      ],
      "stateMutability": "nonpayable",
      "type": "function"
    },
    {
      "inputs": [
        {
          "internalType": "address",
          "name": "offeror",
          "type": "address"
        },
        {
          "internalType": "uint256",
          "name": "amount",
          "type": "uint256"
        }
      ],
      "name": "lockOfferAmount",
      "outputs": [],
      "stateMutability": "nonpayable",
      "type": "function"
    },
    {
      "inputs": [],
      "name": "maturityTimestamp",
      "outputs": [
        {
          "internalType": "uint256",
          "name": "",
          "type": "uint256"
        }
      ],
      "stateMutability": "view",
      "type": "function"
    },
    {
      "inputs": [
        {
          "internalType": "uint256",
          "name": "amount",
          "type": "uint256"
        },
        {
          "internalType": "uint256[]",
          "name": "collateralAmounts",
          "type": "uint256[]"
        }
      ],
      "name": "mintOpenExposure",
      "outputs": [],
      "stateMutability": "nonpayable",
      "type": "function"
    },
    {
      "inputs": [
        {
          "internalType": "address",
          "name": "borrower",
          "type": "address"
        },
        {
          "internalType": "uint256",
          "name": "purchasePrice",
          "type": "uint256"
        },
        {
          "internalType": "uint256",
          "name": "repurchasePrice",
          "type": "uint256"
        },
        {
          "internalType": "address",
          "name": "previousTermRepoLocker",
          "type": "address"
        },
        {
          "internalType": "uint256",
          "name": "dayCountFractionMantissa",
          "type": "uint256"
        }
      ],
      "name": "openExposureOnRolloverNew",
      "outputs": [
        {
          "internalType": "uint256",
          "name": "",
          "type": "uint256"
        }
      ],
      "stateMutability": "nonpayable",
      "type": "function"
    },
    {
      "inputs": [
        {
          "internalType": "address",
          "name": "termRepoLocker_",
          "type": "address"
        },
        {
          "internalType": "address",
          "name": "termRepoCollateralManager_",
          "type": "address"
        },
        {
          "internalType": "address",
          "name": "termRepoToken_",
          "type": "address"
        },
        {
          "internalType": "address",
          "name": "termAuctionOfferLocker_",
          "type": "address"
        },
        {
          "internalType": "address",
          "name": "termAuction_",
          "type": "address"
        },
        {
          "internalType": "address",
          "name": "rolloverManager_",
          "type": "address"
        },
        {
          "internalType": "address",
          "name": "devopsMultisig_",
          "type": "address"
        },
        {
          "internalType": "address",
          "name": "adminWallet_",
          "type": "address"
        },
        {
          "internalType": "string",
          "name": "version_",
          "type": "string"
        }
      ],
      "name": "pairTermContracts",
      "outputs": [],
      "stateMutability": "nonpayable",
      "type": "function"
    },
    {
      "inputs": [],
      "name": "proxiableUUID",
      "outputs": [
        {
          "internalType": "bytes32",
          "name": "",
          "type": "bytes32"
        }
      ],
      "stateMutability": "view",
      "type": "function"
    },
    {
      "inputs": [],
      "name": "purchaseToken",
      "outputs": [
        {
          "internalType": "address",
          "name": "",
          "type": "address"
        }
      ],
      "stateMutability": "view",
      "type": "function"
    },
    {
      "inputs": [
        {
          "internalType": "address",
          "name": "redeemer",
          "type": "address"
        },
        {
          "internalType": "uint256",
          "name": "amountToRedeem",
          "type": "uint256"
        }
      ],
      "name": "redeemTermRepoTokens",
      "outputs": [],
      "stateMutability": "nonpayable",
      "type": "function"
    },
    {
      "inputs": [],
      "name": "redemptionTimestamp",
      "outputs": [
        {
          "internalType": "uint256",
          "name": "",
          "type": "uint256"
        }
      ],
      "stateMutability": "view",
      "type": "function"
    },
    {
      "inputs": [
        {
          "internalType": "bytes32",
          "name": "role",
          "type": "bytes32"
        },
        {
          "internalType": "address",
          "name": "account",
          "type": "address"
        }
      ],
      "name": "renounceRole",
      "outputs": [],
      "stateMutability": "nonpayable",
      "type": "function"
    },
    {
      "inputs": [
        {
          "components": [
            {
              "internalType": "contract TermAuction",
              "name": "auction",
              "type": "address"
            },
            {
              "internalType": "contract ITermAuctionBidLocker",
              "name": "termAuctionBidLocker",
              "type": "address"
            },
            {
              "internalType": "contract ITermAuctionOfferLocker",
              "name": "termAuctionOfferLocker",
              "type": "address"
            }
          ],
          "internalType": "struct TermAuctionGroup",
          "name": "termAuctionGroup",
          "type": "tuple"
        }
      ],
      "name": "reopenToNewAuction",
      "outputs": [],
      "stateMutability": "nonpayable",
      "type": "function"
    },
    {
      "inputs": [
        {
          "internalType": "bytes32",
          "name": "role",
          "type": "bytes32"
        },
        {
          "internalType": "address",
          "name": "account",
          "type": "address"
        }
      ],
      "name": "revokeRole",
      "outputs": [],
      "stateMutability": "nonpayable",
      "type": "function"
    },
    {
      "inputs": [],
      "name": "servicingFee",
      "outputs": [
        {
          "internalType": "uint256",
          "name": "",
          "type": "uint256"
        }
      ],
      "stateMutability": "view",
      "type": "function"
    },
    {
      "inputs": [
        {
          "internalType": "uint256",
          "name": "amount",
          "type": "uint256"
        }
      ],
      "name": "setPurchaseCurrencyHeld",
      "outputs": [],
      "stateMutability": "nonpayable",
      "type": "function"
    },
    {
      "inputs": [],
      "name": "shortfallHaircutMantissa",
      "outputs": [
        {
          "internalType": "uint256",
          "name": "",
          "type": "uint256"
        }
      ],
      "stateMutability": "view",
      "type": "function"
    },
    {
      "inputs": [
        {
          "internalType": "uint256",
          "name": "amount",
          "type": "uint256"
        }
      ],
      "name": "submitRepurchasePayment",
      "outputs": [],
      "stateMutability": "nonpayable",
      "type": "function"
    },
    {
      "inputs": [
        {
          "internalType": "bytes4",
          "name": "interfaceId",
          "type": "bytes4"
        }
      ],
      "name": "supportsInterface",
      "outputs": [
        {
          "internalType": "bool",
          "name": "",
          "type": "bool"
        }
      ],
      "stateMutability": "view",
      "type": "function"
    },
    {
      "inputs": [],
      "name": "termRepoCollateralManager",
      "outputs": [
        {
          "internalType": "contract ITermRepoCollateralManager",
          "name": "",
          "type": "address"
        }
      ],
      "stateMutability": "view",
      "type": "function"
    },
    {
      "inputs": [],
      "name": "termRepoId",
      "outputs": [
        {
          "internalType": "bytes32",
          "name": "",
          "type": "bytes32"
        }
      ],
      "stateMutability": "view",
      "type": "function"
    },
    {
      "inputs": [],
      "name": "termRepoLocker",
      "outputs": [
        {
          "internalType": "contract ITermRepoLocker",
          "name": "",
          "type": "address"
        }
      ],
      "stateMutability": "view",
      "type": "function"
    },
    {
      "inputs": [],
      "name": "termRepoRolloverManager",
      "outputs": [
        {
          "internalType": "contract ITermRepoRolloverManager",
          "name": "",
          "type": "address"
        }
      ],
      "stateMutability": "view",
      "type": "function"
    },
    {
      "inputs": [],
      "name": "termRepoToken",
      "outputs": [
        {
          "internalType": "contract ITermRepoToken",
          "name": "",
          "type": "address"
        }
      ],
      "stateMutability": "view",
      "type": "function"
    },
    {
      "inputs": [],
      "name": "totalOutstandingRepurchaseExposure",
      "outputs": [
        {
          "internalType": "uint256",
          "name": "",
          "type": "uint256"
        }
      ],
      "stateMutability": "view",
      "type": "function"
    },
    {
      "inputs": [],
      "name": "totalRepurchaseCollected",
      "outputs": [
        {
          "internalType": "uint256",
          "name": "",
          "type": "uint256"
        }
      ],
      "stateMutability": "view",
      "type": "function"
    },
    {
      "inputs": [
        {
          "internalType": "address",
          "name": "offeror",
          "type": "address"
        },
        {
          "internalType": "uint256",
          "name": "amount",
          "type": "uint256"
        }
      ],
      "name": "unlockOfferAmount",
      "outputs": [],
      "stateMutability": "nonpayable",
      "type": "function"
    },
    {
      "inputs": [
        {
          "internalType": "address",
          "name": "upgradeAddress",
          "type": "address"
        }
      ],
      "name": "upgrade",
      "outputs": [],
      "stateMutability": "nonpayable",
      "type": "function"
    },
    {
      "inputs": [
        {
          "internalType": "address",
          "name": "newImplementation",
          "type": "address"
        }
      ],
      "name": "upgradeTo",
      "outputs": [],
      "stateMutability": "nonpayable",
      "type": "function"
    },
    {
      "inputs": [
        {
          "internalType": "address",
          "name": "newImplementation",
          "type": "address"
        },
        {
          "internalType": "bytes",
          "name": "data",
          "type": "bytes"
        }
      ],
      "name": "upgradeToAndCall",
      "outputs": [],
      "stateMutability": "payable",
      "type": "function"
    },
    {
      "inputs": [],
      "name": "version",
      "outputs": [
        {
          "internalType": "string",
          "name": "",
          "type": "string"
        }
      ],
      "stateMutability": "view",
      "type": "function"
    }
  ],
  "bytecode": "0x60a0604052306080523480156200001557600080fd5b506200002062000026565b620000e7565b600054610100900460ff1615620000935760405162461bcd60e51b815260206004820152602760248201527f496e697469616c697a61626c653a20636f6e747261637420697320696e697469604482015266616c697a696e6760c81b606482015260840160405180910390fd5b60005460ff90811614620000e5576000805460ff191660ff9081179091556040519081527f7f26b83ff96e1f2b6a682f133852f6798a09c465da95921460cefb38474024989060200160405180910390a15b565b608051614dad6200011f60003960008181611a4701528181611a870152818161217c015281816121bc01526122340152614dad6000f3fe6080604052600436106102955760003560e01c80634dabab101161015b578063a22be9ca116100c7578063a22be9ca146107d3578063a4018f13146107f3578063a95c4d6214610827578063b330db2814610848578063c023892614610860578063c99aa67814610876578063cc5b6e4a14610896578063d381be17146108ac578063d4912c10146108cc578063d547741f146108ec578063ec9477e11461090c578063fa19d0ed1461092c578063fd5d357a14610943578063fe05281a1461096357600080fd5b80634dabab10146106395780634f1ef2861461064e57806352d1902d1461066157806354fd4d50146106765780635879fae9146106b05780635c4b440e146106d05780635ca84e6e146106f157806375b238fc14610712578063796a4455146107465780637e237e891461076857806391d14854146107885780639d5d2108146107a8578063a217fddf146107be57600080fd5b806327df3d3e1161020557806327df3d3e146104875780632f2ff15d146104a957806331bb625e146104c957806332153220146104e957806333d6723e1461050957806336568abe146105295780633659cfe6146105495780633718373f146105695780633d0f31f71461058b5780633dcaa6c6146105a15780633de81dc4146105b85780634055008a146105d957806340d3da8b146105f957806347c918981461061957600080fd5b806301ffc9a71461029a57806302b65fb0146102cf57806308772759146102ff5780630900f0101461032157806309aa80fc146103415780631320834f146103615780631b235437146103775780631b433b111461038e578063201a6625146103ae578063228d5cc6146103d057806323e507f7146103fe578063248a9ca3146104205780632762697d14610450575b600080fd5b3480156102a657600080fd5b506102ba6102b536600461405f565b610985565b60405190151581526020015b60405180910390f35b3480156102db57600080fd5b506102f1600080516020614d5883398151915281565b6040519081526020016102c6565b34801561030b57600080fd5b5061031f61031a36600461409e565b6109bc565b005b34801561032d57600080fd5b5061031f61033c3660046140ca565b610aae565b34801561034d57600080fd5b506102f161035c3660046140e7565b610aba565b34801561036d57600080fd5b506102f160ff5481565b34801561038357600080fd5b506102f16101005481565b34801561039a57600080fd5b506102f16103a936600461409e565b610bed565b3480156103ba57600080fd5b506102f1600080516020614c5183398151915281565b3480156103dc57600080fd5b50610105546103f1906001600160a01b031681565b6040516102c69190614128565b34801561040a57600080fd5b506102f1600080516020614cf183398151915281565b34801561042c57600080fd5b506102f161043b36600461413c565b600090815260c9602052604090206001015490565b34801561045c57600080fd5b506102f161046b3660046140ca565b6001600160a01b0316600090815261010a602052604090205490565b34801561049357600080fd5b506102f1600080516020614c9183398151915281565b3480156104b557600080fd5b5061031f6104c4366004614155565b610f1e565b3480156104d557600080fd5b5061031f6104e436600461409e565b610f48565b3480156104f557600080fd5b5061031f6105043660046141cd565b611003565b34801561051557600080fd5b5061031f6105243660046142ed565b6111d2565b34801561053557600080fd5b5061031f610544366004614155565b6119bf565b34801561055557600080fd5b5061031f6105643660046140ca565b611a3d565b34801561057557600080fd5b506102f1600080516020614d3883398151915281565b34801561059757600080fd5b506102f160fe5481565b3480156105ad57600080fd5b506102f16101025481565b3480156105c457600080fd5b50610104546103f1906001600160a01b031681565b3480156105e557600080fd5b5061031f6105f4366004614338565b611b02565b34801561060557600080fd5b5061031f61061436600461413c565b611c0b565b34801561062557600080fd5b5061031f610634366004614350565b61209a565b34801561064557600080fd5b506102ba612163565b61031f61065c3660046143d1565b612172565b34801561066d57600080fd5b506102f1612227565b34801561068257600080fd5b50604080518082018252600b81526a19195d995b1bdc1b595b9d60aa1b602082015290516102c6919061449c565b3480156106bc57600080fd5b5061031f6106cb36600461413c565b6122d5565b3480156106dc57600080fd5b50610106546103f1906001600160a01b031681565b3480156106fd57600080fd5b50610107546103f1906001600160a01b031681565b34801561071e57600080fd5b506102f17fa49807205ce4d355092ef5a8a18f56e8913cf4a201fbe287825b095693c2177581565b34801561075257600080fd5b506102f1600080516020614c7183398151915281565b34801561077457600080fd5b5061031f61078336600461409e565b6124c2565b34801561079457600080fd5b506102ba6107a3366004614155565b6126ac565b3480156107b457600080fd5b506102f160fc5481565b3480156107ca57600080fd5b506102f1600081565b3480156107df57600080fd5b5061031f6107ee3660046144cf565b6126d7565b3480156107ff57600080fd5b506102f17fcee578699694e0144c2aba4ed7fb4e9131a3e2dbd751e7f11a646cc6a39d67bd81565b34801561083357600080fd5b50610103546103f1906001600160a01b031681565b34801561085457600080fd5b506102f16301da9c0081565b34801561086c57600080fd5b506102f160fd5481565b34801561088257600080fd5b506102f161089136600461456b565b6129cc565b3480156108a257600080fd5b506102f160fb5481565b3480156108b857600080fd5b5061031f6108c736600461413c565b60fd55565b3480156108d857600080fd5b5061031f6108e73660046145bd565b612c5e565b3480156108f857600080fd5b5061031f610907366004614155565b612ea8565b34801561091857600080fd5b5061031f6109273660046140e7565b612ecd565b34801561093857600080fd5b506102f16101015481565b34801561094f57600080fd5b5061031f61095e3660046140ca565b612ef6565b34801561096f57600080fd5b506102f1600080516020614cd183398151915281565b60006001600160e01b03198216637965db0b60e01b14806109b657506301ffc9a760e01b6001600160e01b03198316145b92915050565b600080516020614d388339815191526109d481612f26565b610106546101035460405163049f2a5160e21b81526001600160a01b039283169263127ca94492610a0f928892909116908790600401614673565b600060405180830381600087803b158015610a2957600080fd5b505af1158015610a3d573d6000803e3d6000fd5b50506101095460fb5460405163bba53d0560e01b81526001600160a01b03909216935063bba53d059250610a779187908790600401614697565b600060405180830381600087803b158015610a9157600080fd5b505af1158015610aa5573d6000803e3d6000fd5b50505050505050565b610ab781612f30565b50565b6000600080516020614c71833981519152610ad481612f26565b61010754604051637acdda2360e11b81526000916001600160a01b03169063f59bb44690610b0890889088906004016146b6565b6020604051808303816000875af1158015610b27573d6000803e3d6000fd5b505050506040513d601f19601f82011682018060405250810190610b4b91906146cf565b6001600160a01b038716600090815261010a6020526040902054909150811115610b88576040516305e5c1fd60e51b815260040160405180910390fd5b6001600160a01b038616600090815261010a602052604081208054839290610bb19084906146fe565b925050819055508060fc6000828254610bca91906146fe565b90915550610bd89050612f81565b610be457610be4614711565b95945050505050565b6000600080516020614cd1833981519152610c0781612f26565b60fe54421015610c2a5760405163794150ab60e11b815260040160405180910390fd5b60ff544210610c4c576040516366694fe960e11b815260040160405180910390fd5b6001600160a01b038416600090815261010a60205260408120548410610c7b5750670de0b6b3a7640000610cb4565b6001600160a01b038516600090815261010a6020526040902054610ca7670de0b6b3a764000086614727565b610cb1919061473e565b90505b6001600160a01b038516600090815261010a6020526040902054841115610dd5576001600160a01b038516600090815261010a602052604081205460fc805491929091610d029084906146fe565b90915550506001600160a01b038516600090815261010a602052604081205460fd805491929091610d34908490614760565b90915550506101095460fb546001600160a01b03878116600090815261010a60205260409081902054905163380d921960e01b8152919093169263380d921992610d849290918a91600401614697565b600060405180830381600087803b158015610d9e57600080fd5b505af1158015610db2573d6000803e3d6000fd5b5050506001600160a01b038616600090815261010a602052604081205550610e9e565b6001600160a01b038516600090815261010a602052604081208054869290610dfe9084906146fe565b925050819055508360fc6000828254610e1791906146fe565b925050819055508360fd6000828254610e309190614760565b90915550506101095460fb5460405163380d921960e01b81526001600160a01b039092169163380d921991610e6b9189908990600401614697565b600060405180830381600087803b158015610e8557600080fd5b505af1158015610e99573d6000803e3d6000fd5b505050505b610ea6612f81565b610eb257610eb2614711565b610105546040516364deb92b60e11b81526001600160a01b039091169063c9bd725690610ee3908890600401614128565b600060405180830381600087803b158015610efd57600080fd5b505af1158015610f11573d6000803e3d6000fd5b5092979650505050505050565b600082815260c96020526040902060010154610f3981612f26565b610f4383836130cb565b505050565b600080516020614d38833981519152610f6081612f26565b610106546101035460405163109c8cf960e11b81526001600160a01b039283169263213919f292610f9b928892909116908790600401614673565b600060405180830381600087803b158015610fb557600080fd5b505af1158015610fc9573d6000803e3d6000fd5b50506101095460fb5460405163069d498b60e51b81526001600160a01b03909216935063d3a931609250610a779187908790600401614697565b600080516020614c9183398151915261101b81612f26565b61010b5460ff161561104057604051634ce377bb60e11b815260040160405180910390fd5b61010b805460ff1916600117905561010680546001600160a01b03808e166001600160a01b03199283161790925561010480548d841690831617905561010580548984169083161790556101078054928c16929091169190911790556110b4600080516020614d38833981519152896130cb565b6110cc600080516020614cf1833981519152886130cb565b6110f67fa49807205ce4d355092ef5a8a18f56e8913cf4a201fbe287825b095693c21775856130cb565b61110e600080516020614c51833981519152866130cb565b611126600080516020614c718339815191528b6130cb565b61113e600080516020614d58833981519152876130cb565b6101095460fb546101035460fe5460ff54610100546101015460405163046b6ef360e01b81526001600160a01b039788169763046b6ef39761119397909630969190921694919390928d908d90600401614773565b600060405180830381600087803b1580156111ad57600080fd5b505af11580156111c1573d6000803e3d6000fd5b505050505050505050505050505050565b6101085460405163056a8b5d60e21b815233916001600160a01b0316906315aa2d7490611203908490600401614128565b602060405180830381865afa158015611220573d6000803e3d6000fd5b505050506040513d601f19601f8201168201806040525081019061124491906147fc565b61126157604051631cbdffd960e11b815260040160405180910390fd5b60fe54421115611284576040516304ff30ef60e21b815260040160405180910390fd5b61010460009054906101000a90046001600160a01b03166001600160a01b031663190e80126040518163ffffffff1660e01b8152600401602060405180830381865afa1580156112d8573d6000803e3d6000fd5b505050506040513d601f19601f820116820180604052508101906112fc9190614817565b60ff1682146113845760405163dd23c3ad60e01b815260206004820152604260248201527f436f6c6c61746572616c20416d6f756e7473206172726179206e6f742073616d60448201527f65206c656e67746820617320636f6c6c61746572616c20746f6b656e73206c696064820152611cdd60f21b608482015260a4015b60405180910390fd5b6000805b83811015611616576101045460405163172c48c760e01b8152600481018390526001600160a01b0390911690639210632f908590839063172c48c790602401602060405180830381865afa1580156113e4573d6000803e3d6000fd5b505050506040513d601f19601f82011682018060405250810190611408919061483a565b88888681811061141a5761141a614857565b905060200201356040518463ffffffff1660e01b815260040161143f93929190614673565b600060405180830381600087803b15801561145957600080fd5b505af115801561146d573d6000803e3d6000fd5b50506101045460405163172c48c760e01b815260048101859052600093506115f692506115f1916001600160a01b0316906367af01d090829063172c48c790602401602060405180830381865afa1580156114cc573d6000803e3d6000fd5b505050506040513d601f19601f820116820180604052508101906114f0919061483a565b8a8a8881811061150257611502614857565b905060200201356040518363ffffffff1660e01b81526004016115269291906146b6565b602060405180830381865afa158015611543573d6000803e3d6000fd5b505050506040513d601f19601f82011682018060405250810190611567919061486d565b604051806020016040528061010760009054906101000a90046001600160a01b03166001600160a01b031663ef4474cd6040518163ffffffff1660e01b8152600401602060405180830381865afa1580156115c6573d6000803e3d6000fd5b505050506040513d601f19601f820116820180604052508101906115ea91906146cf565b9052613151565b613194565b90506116028184614760565b9250508061160f906148ae565b9050611388565b508085111561163857604051633a23d82560e01b815260040160405180910390fd5b600061166f60405180602001604052804260fe5461165691906146fe565b905260408051602081019091526301da9c008152613151565b9050600061168e604051806020016040528061010154815250836131ac565b9050600061169c82896131eb565b905060006116aa828a6146fe565b610107546101085460408051633800918160e21b815290519394506000936001600160a01b039384169363f0dda65c93169163e00246049160048083019260209291908290030181865afa158015611706573d6000803e3d6000fd5b505050506040513d601f19601f8201168201806040525081019061172a919061483a565b856040518363ffffffff1660e01b81526004016117489291906146b6565b6020604051808303816000875af1158015611767573d6000803e3d6000fd5b505050506040513d601f19601f8201168201806040525081019061178b91906146cf565b61010754604051633c37699760e21b81529192506000916001600160a01b039091169063f0dda65c906117c4908b9087906004016146b6565b6020604051808303816000875af11580156117e3573d6000803e3d6000fd5b505050506040513d601f19601f8201168201806040525081019061180791906146cf565b6101075460405163b979dee360e01b8152600481018e90529192506001600160a01b03169063b979dee390602401600060405180830381600087803b15801561184f57600080fd5b505af1158015611863573d6000803e3d6000fd5b50505050600081836118759190614760565b6001600160a01b038a16600090815261010a60205260408120805492935083929091906118a3908490614760565b925050819055508060fc60008282546118bc9190614760565b909155506118ca9050612f81565b6118d6576118d6614711565b6101095460fb5460405160016274ee3760e01b031981526001600160a01b039092169163ff8b11c991611913918d90879087908a906004016148c7565b600060405180830381600087803b15801561192d57600080fd5b505af1158015611941573d6000803e3d6000fd5b50506101095460fb54604051632101923f60e11b81526001600160a01b039092169350634203247e925061197f918d9089908b9088906004016148c7565b600060405180830381600087803b15801561199957600080fd5b505af11580156119ad573d6000803e3d6000fd5b50505050505050505050505050505050565b6001600160a01b0381163314611a2f5760405162461bcd60e51b815260206004820152602f60248201527f416363657373436f6e74726f6c3a2063616e206f6e6c792072656e6f756e636560448201526e103937b632b9903337b91039b2b63360891b606482015260840161137b565b611a39828261320b565b5050565b6001600160a01b037f0000000000000000000000000000000000000000000000000000000000000000163003611a855760405162461bcd60e51b815260040161137b906148f3565b7f00000000000000000000000000000000000000000000000000000000000000006001600160a01b0316611ab7613272565b6001600160a01b031614611add5760405162461bcd60e51b815260040161137b9061493f565b611ae681612f30565b60408051600080825260208201909252610ab79183919061328e565b600080516020614c91833981519152611b1a81612f26565b611b41600080516020614d38833981519152611b3c60608501604086016140ca565b6130cb565b611b60600080516020614cf1833981519152611b3c60208501856140ca565b6101095460fb546001600160a01b039091169063299cf9629030611b8a60608701604088016140ca565b611b9760208801886140ca565b6040516001600160e01b031960e087901b16815260048101949094526001600160a01b03928316602485015290821660448401521660648201526084015b600060405180830381600087803b158015611bef57600080fd5b505af1158015611c03573d6000803e3d6000fd5b505050505050565b60ff544210611c2d576040516366694fe960e11b815260040160405180910390fd5b33600081815261010a60205260408120549003611c5d5760405163baca79c960e01b815260040160405180910390fd5b610103546040805163313ce56760e01b815290516001600160a01b0390921691600091839163313ce567916004808201926020929091908290030181865afa158015611cad573d6000803e3d6000fd5b505050506040513d601f19601f82011682018060405250810190611cd19190614817565b60ff1690506000611ce1846133f9565b905080600003611d04576040516346696d1960e11b815260040160405180910390fd5b6000611d118360126146fe565b611d1c90600a614a6f565b611dae6040518060200160405280866012611d3791906146fe565b611d4290600a614a6f565b611d4c9087614727565b815250604051806020016040528061010760009054906101000a90046001600160a01b03166001600160a01b031663ef4474cd6040518163ffffffff1660e01b8152600401602060405180830381865afa1580156115c6573d6000803e3d6000fd5b51611db9919061473e565b905080861015611f095761010754604051637acdda2360e11b81526000916001600160a01b03169063f59bb44690611df79089908b906004016146b6565b6020604051808303816000875af1158015611e16573d6000803e3d6000fd5b505050506040513d601f19601f82011682018060405250810190611e3a91906146cf565b6001600160a01b038716600090815261010a6020526040812080549293508392909190611e689084906146fe565b925050819055508060fc6000828254611e8191906146fe565b90915550611e8f9050612f81565b611e9b57611e9b614711565b6101095460fb54604051630190d5cf60e01b81526001600160a01b0390921691630190d5cf91611ed1918a908690600401614697565b600060405180830381600087803b158015611eeb57600080fd5b505af1158015611eff573d6000803e3d6000fd5b5050505050611c03565b8160fc6000828254611f1b91906146fe565b90915550506001600160a01b038516600090815261010a602052604081208054849290611f499084906146fe565b909155505061010754604051632770a7eb60e21b81526001600160a01b0390911690639dc29fac90611f8190889085906004016146b6565b600060405180830381600087803b158015611f9b57600080fd5b505af1158015611faf573d6000803e3d6000fd5b50505050611fbb612f81565b611fc757611fc7614711565b6101095460fb54604051630190d5cf60e01b81526001600160a01b0390921691630190d5cf91611ffd9189908790600401614697565b600060405180830381600087803b15801561201757600080fd5b505af115801561202b573d6000803e3d6000fd5b5050610104546040516312a9006960e01b81526001600160a01b0390911692506312a900699150612060908890600401614128565b600060405180830381600087803b15801561207a57600080fd5b505af115801561208e573d6000803e3d6000fd5b50505050505050505050565b600080516020614cf18339815191526120b281612f26565b61010754604051638bef7f5b60e01b81526000916001600160a01b031690638bef7f5b906120e690899088906004016146b6565b6020604051808303816000875af1158015612105573d6000803e3d6000fd5b505050506040513d601f19601f8201168201806040525081019061212991906146cf565b61010954604051630ac59b7b60e11b81529192506001600160a01b03169063158b36f6906120609086908a908a908a9088906004016148c7565b600061216d612f81565b905090565b6001600160a01b037f00000000000000000000000000000000000000000000000000000000000000001630036121ba5760405162461bcd60e51b815260040161137b906148f3565b7f00000000000000000000000000000000000000000000000000000000000000006001600160a01b03166121ec613272565b6001600160a01b0316146122125760405162461bcd60e51b815260040161137b9061493f565b61221b82612f30565b611a398282600161328e565b6000306001600160a01b037f000000000000000000000000000000000000000000000000000000000000000016146122c25760405162461bcd60e51b815260206004820152603860248201527f555550535570677261646561626c653a206d757374206e6f742062652063616c6044820152771b1959081d1a1c9bdd59da0819195b1959d85d1958d85b1b60421b606482015260840161137b565b50600080516020614cb183398151915290565b3360008290036123165760405163dd23c3ad60e01b815260206004820152600b60248201526a1e995c9bc8185b5bdd5b9d60aa1b604482015260640161137b565b60ff544210612338576040516366694fe960e11b815260040160405180910390fd5b6001600160a01b038116600090815261010a602052604081205490036123715760405163baca79c960e01b815260040160405180910390fd5b60001982036123cf5760405163dd23c3ad60e01b8152602060048201526024808201527f7265707572636861736520616d6f756e742063616e6e6f742062652075696e74604482015263040dac2f60e31b606482015260840161137b565b60006123da826133f9565b9050808311156123fd576040516305e5c1fd60e51b815260040160405180910390fd5b6124088283856134c1565b6001600160a01b038216600090815261010a6020526040812054900361248c57610104546040516312a9006960e01b81526001600160a01b03909116906312a9006990612459908590600401614128565b600060405180830381600087803b15801561247357600080fd5b505af1158015612487573d6000803e3d6000fd5b505050505b6101095460fb54604051632df248c560e11b81526001600160a01b0390921691635be4918a91610a779186908890600401614697565b6101005442116124e557604051634724bbc760e11b815260040160405180910390fd5b610107546040516370a0823160e01b81526001600160a01b03909116906370a0823190612516908590600401614128565b602060405180830381865afa158015612533573d6000803e3d6000fd5b505050506040513d601f19601f8201168201806040525081019061255791906146cf565b6000036125775760405163644d752960e01b815260040160405180910390fd5b60fd5461258690612710614760565b61010760009054906101000a90046001600160a01b03166001600160a01b031663723f4e2a6040518163ffffffff1660e01b8152600401602060405180830381865afa1580156125da573d6000803e3d6000fd5b505050506040513d601f19601f820116820180604052508101906125fe91906146cf565b1161260d57611a3982826135dc565b61010460009054906101000a90046001600160a01b03166001600160a01b031663a11d52f56040518163ffffffff1660e01b8152600401602060405180830381865afa158015612661573d6000803e3d6000fd5b505050506040513d601f19601f8201168201806040525081019061268591906147fc565b61269357611a39828261383d565b604051633eaef6d560e21b815260040160405180910390fd5b600091825260c9602090815260408084206001600160a01b0393909316845291905290205460ff1690565b600080516020614cf18339815191526126ef81612f26565b60fe544210612711576040516304ff30ef60e21b815260040160405180910390fd5b6001600160a01b038916600090815261010a60205260408120805489929061273a908490614760565b925050819055508660fc60008282546127539190614760565b90915550506101045460405163578db95760e01b81526001600160a01b039091169063578db95790612791908c908a908a908a908a90600401614a7b565b600060405180830381600087803b1580156127ab57600080fd5b505af11580156127bf573d6000803e3d6000fd5b5050505060006127f76127f16040518060200160405280868152506040518060200160405280610101548152506131ac565b8a6131eb565b610106546101085460408051633800918160e21b815290519394506001600160a01b039283169363213919f2939092169163e0024604916004808201926020929091908290030181865afa158015612853573d6000803e3d6000fd5b505050506040513d601f19601f82011682018060405250810190612877919061483a565b610103546040516001600160e01b031960e085901b1681526128a892916001600160a01b0316908690600401614673565b600060405180830381600087803b1580156128c257600080fd5b505af11580156128d6573d6000803e3d6000fd5b505061010654610103546001600160a01b03918216935063213919f292508d9116612901858e6146fe565b6040518463ffffffff1660e01b815260040161291f93929190614673565b600060405180830381600087803b15801561293957600080fd5b505af115801561294d573d6000803e3d6000fd5b50506101095460fb5460405160016274ee3760e01b031981526001600160a01b03909216935063ff8b11c9925061298e918e908e908e9088906004016148c7565b600060405180830381600087803b1580156129a857600080fd5b505af11580156129bc573d6000803e3d6000fd5b5050505050505050505050505050565b6000600080516020614cf18339815191526129e681612f26565b60fe544210612a08576040516304ff30ef60e21b815260040160405180910390fd5b6001600160a01b038716600090815261010a602052604081208054879290612a31908490614760565b925050819055508460fc6000828254612a4a9190614760565b925050819055506000612a85612a7f6040518060200160405280878152506040518060200160405280610101548152506131ac565b886131eb565b610106546101085460408051633800918160e21b815290519394506001600160a01b039283169363213919f2939092169163e0024604916004808201926020929091908290030181865afa158015612ae1573d6000803e3d6000fd5b505050506040513d601f19601f82011682018060405250810190612b05919061483a565b610103546040516001600160e01b031960e085901b168152612b3692916001600160a01b0316908690600401614673565b600060405180830381600087803b158015612b5057600080fd5b505af1158015612b64573d6000803e3d6000fd5b5050505060008188612b7691906146fe565b610106546101035460405163109c8cf960e11b81529293506001600160a01b039182169263213919f292612bb3928b929116908690600401614673565b600060405180830381600087803b158015612bcd57600080fd5b505af1158015612be1573d6000803e3d6000fd5b50506101095460fb5460405163335ec7a360e21b81526001600160a01b03909216935063cd7b1e8c9250612c1f918d9086908d9089906004016148c7565b600060405180830381600087803b158015612c3957600080fd5b505af1158015612c4d573d6000803e3d6000fd5b50929b9a5050505050505050505050565b600054610100900460ff1615808015612c7e5750600054600160ff909116105b80612c9f5750612c8d30613b63565b158015612c9f575060005460ff166001145b612d025760405162461bcd60e51b815260206004820152602e60248201527f496e697469616c697a61626c653a20636f6e747261637420697320616c72656160448201526d191e481a5b9a5d1a585b1a5e995960921b606482015260840161137b565b6000805460ff191660011790558015612d25576000805461ff0019166101001790555b612d2d613b72565b612d35613b72565b8a8a604051602001612d48929190614b08565b60408051601f19818403018152919052805160209091012060fb55600060fc81905560fd5560fe899055612d7c888a614760565b60ff5586612d8a898b614760565b612d949190614760565b610100556101018690556001600160a01b038516612df25760405162461bcd60e51b815260206004820152601b60248201527a2d32b9379030b2323932b9b990383ab931b430b9b2903a37b5b2b760291b604482015260640161137b565b61010380546001600160a01b038088166001600160a01b031992831617909255610108805487841690831617905561010980549286169290911691909117905561010b805460ff19169055612e55600080516020614c91833981519152836130cb565b8015612e9b576000805461ff0019169055604051600181527f7f26b83ff96e1f2b6a682f133852f6798a09c465da95921460cefb38474024989060200160405180910390a15b5050505050505050505050565b600082815260c96020526040902060010154612ec381612f26565b610f43838361320b565b600080516020614c71833981519152612ee581612f26565b612ef08484846134c1565b50505050565b600080516020614d58833981519152612f0e81612f26565b611a39600080516020614cd1833981519152836130cb565b610ab78133613bdf565b600080516020614c51833981519152612f4881612f26565b6101095460405163b3c2d50b60e01b81523060048201526001600160a01b0384811660248301529091169063b3c2d50b90604401611bd5565b60006101025460000361302b57610107546040805163391fa71560e11b81529051612710926001600160a01b03169163723f4e2a9160048083019260209291908290030181865afa158015612fda573d6000803e3d6000fd5b505050506040513d601f19601f82011682018060405250810190612ffe91906146cf565b613008919061473e565b61271060fd5460fc5461301b9190614760565b613025919061473e565b14905090565b604080516020808201835261010254825261010754835163391fa71560e11b81529351612710946130b194936001600160a01b039093169263723f4e2a926004808401938290030181865afa158015613088573d6000803e3d6000fd5b505050506040513d601f19601f820116820180604052508101906130ac91906146cf565b6131eb565b6130bb919061473e565b61271060fd54613025919061473e565b6130d582826126ac565b611a3957600082815260c9602090815260408083206001600160a01b03851684529091529020805460ff1916600117905561310d3390565b6001600160a01b0316816001600160a01b0316837f2f8788117e7eff1d82e926ec794901d17c78024a50270940304540a733656f0d60405160405180910390a45050565b604080516020810190915260008152604051806020016040528061318b6131848660000151670de0b6b3a7640000613c38565b8551613c4b565b90529392505050565b80516000906109b690670de0b6b3a76400009061473e565b6040805160208101909152600081526040518060200160405280670de0b6b3a76400006131e186600001518660000151613c38565b61318b919061473e565b6000806131f88484613c57565b905061320381613194565b949350505050565b61321582826126ac565b15611a3957600082815260c9602090815260408083206001600160a01b0385168085529252808320805460ff1916905551339285917ff6391f5c32d9c69d2a47ea670b442974b53935d1edc7fd64eb21e047a839171b9190a45050565b600080516020614cb1833981519152546001600160a01b031690565b7f4910fdfa16fed3260ed0e7147f7cc6da11a60208b5b9406d12a635614ffd91435460ff16156132c157610f4383613c7f565b826001600160a01b03166352d1902d6040518163ffffffff1660e01b8152600401602060405180830381865afa92505050801561331b575060408051601f3d908101601f19168201909252613318918101906146cf565b60015b61337e5760405162461bcd60e51b815260206004820152602e60248201527f45524331393637557067726164653a206e657720696d706c656d656e7461746960448201526d6f6e206973206e6f74205555505360901b606482015260840161137b565b600080516020614cb183398151915281146133ed5760405162461bcd60e51b815260206004820152602960248201527f45524331393637557067726164653a20756e737570706f727465642070726f786044820152681a58589b195555525160ba1b606482015260840161137b565b50610f43838383613d19565b610105546040516334e6c77160e01b8152600091829182916001600160a01b0316906334e6c7719061342f908790600401614128565b608060405180830381865afa15801561344c573d6000803e3d6000fd5b505050506040513d601f19601f820116820180604052508101906134709190614b18565b9050806020015160001480613486575080606001515b15613494576000915061349c565b806020015191505b6001600160a01b038416600090815261010a60205260409020546132039083906146fe565b6001600160a01b038316600090815261010a60205260409020548111156134fb576040516305e5c1fd60e51b815260040160405180910390fd5b6001600160a01b038316600090815261010a6020526040812080548392906135249084906146fe565b925050819055508060fc600082825461353d91906146fe565b925050819055508060fd60008282546135569190614760565b9091555050610106546101035460405163049f2a5160e21b81526001600160a01b039283169263127ca94492613596928792909116908690600401614673565b600060405180830381600087803b1580156135b057600080fd5b505af11580156135c4573d6000803e3d6000fd5b505050506135d0612f81565b610f4357610f43614711565b61010754604051637acdda2360e11b81526000916001600160a01b03169063f59bb4469061361090869086906004016146b6565b6020604051808303816000875af115801561362f573d6000803e3d6000fd5b505050506040513d601f19601f8201168201806040525081019061365391906146cf565b905060fd548111613752578060fd600082825461367091906146fe565b9091555050610106546101035460405163109c8cf960e11b81526001600160a01b039283169263213919f2926136b0928892909116908690600401614673565b600060405180830381600087803b1580156136ca57600080fd5b505af11580156136de573d6000803e3d6000fd5b50506101095460fb54604051636a7a0bd160e11b81526001600160a01b03909216935063d4f417a2925061371b9187908690600090600401614b8a565b600060405180830381600087803b15801561373557600080fd5b505af1158015613749573d6000803e3d6000fd5b50505050613835565b60fd80546000909155610106546101035460405163109c8cf960e11b81526001600160a01b039283169263213919f292613796928992909116908690600401614673565b600060405180830381600087803b1580156137b057600080fd5b505af11580156137c4573d6000803e3d6000fd5b50506101095460fb54604051636a7a0bd160e11b81526001600160a01b03909216935063d4f417a292506138019188908690600090600401614b8a565b600060405180830381600087803b15801561381b57600080fd5b505af115801561382f573d6000803e3d6000fd5b50505050505b6135d0612f81565b610102546000036138a35761389d6040518060200160405280670de0b6b3a764000060fd5461386c9190614727565b8152506040518060200160405280670de0b6b3a764000060fc5460fd546138939190614760565b6115ea9190614727565b51610102555b61010754604051637acdda2360e11b81526000916001600160a01b03169063f59bb446906138d790869086906004016146b6565b6020604051808303816000875af11580156138f6573d6000803e3d6000fd5b505050506040513d601f19601f8201168201806040525081019061391a91906146cf565b90506000613939604051806020016040528061010254815250836131eb565b905060fd548111613a52578060fd600082825461395691906146fe565b9091555050610106546101035460405163109c8cf960e11b81526001600160a01b039283169263213919f292613996928992909116908690600401614673565b600060405180830381600087803b1580156139b057600080fd5b505af11580156139c4573d6000803e3d6000fd5b50506101095460fb54610102546001600160a01b03909216935063d4f417a2925090879085906139fc90670de0b6b3a76400006146fe565b6040518563ffffffff1660e01b8152600401613a1b9493929190614b8a565b600060405180830381600087803b158015613a3557600080fd5b505af1158015613a49573d6000803e3d6000fd5b50505050613b4f565b60fd80546000909155610106546101035460405163109c8cf960e11b81526001600160a01b039283169263213919f292613a96928a92909116908690600401614673565b600060405180830381600087803b158015613ab057600080fd5b505af1158015613ac4573d6000803e3d6000fd5b50506101095460fb54610102546001600160a01b03909216935063d4f417a292509088908590613afc90670de0b6b3a76400006146fe565b6040518563ffffffff1660e01b8152600401613b1b9493929190614b8a565b600060405180830381600087803b158015613b3557600080fd5b505af1158015613b49573d6000803e3d6000fd5b50505050505b613b57612f81565b612ef057612ef0614711565b6001600160a01b03163b151590565b600054610100900460ff16613bdd5760405162461bcd60e51b815260206004820152602b60248201527f496e697469616c697a61626c653a20636f6e7472616374206973206e6f74206960448201526a6e697469616c697a696e6760a81b606482015260840161137b565b565b613be982826126ac565b611a3957613bf681613d3e565b613c01836020613d50565b604051602001613c12929190614bae565b60408051601f198184030181529082905262461bcd60e51b825261137b9160040161449c565b6000613c448284614727565b9392505050565b6000613c44828461473e565b604080516020810190915260008152604051806020016040528061318b856000015185613c38565b613c8881613b63565b613cea5760405162461bcd60e51b815260206004820152602d60248201527f455243313936373a206e657720696d706c656d656e746174696f6e206973206e60448201526c1bdd08184818dbdb9d1c9858dd609a1b606482015260840161137b565b600080516020614cb183398151915280546001600160a01b0319166001600160a01b0392909216919091179055565b613d2283613eeb565b600082511180613d2f5750805b15610f4357612ef08383613f2b565b60606109b66001600160a01b03831660145b60606000613d5f836002614727565b613d6a906002614760565b6001600160401b03811115613d8157613d8161438b565b6040519080825280601f01601f191660200182016040528015613dab576020820181803683370190505b509050600360fc1b81600081518110613dc657613dc6614857565b60200101906001600160f81b031916908160001a905350600f60fb1b81600181518110613df557613df5614857565b60200101906001600160f81b031916908160001a9053506000613e19846002614727565b613e24906001614760565b90505b6001811115613e9c576f181899199a1a9b1b9c1cb0b131b232b360811b85600f1660108110613e5857613e58614857565b1a60f81b828281518110613e6e57613e6e614857565b60200101906001600160f81b031916908160001a90535060049490941c93613e9581614c1d565b9050613e27565b508315613c445760405162461bcd60e51b815260206004820181905260248201527f537472696e67733a20686578206c656e67746820696e73756666696369656e74604482015260640161137b565b613ef481613c7f565b6040516001600160a01b038216907fbc7cd75a20ee27fd9adebab32041f755214dbc6bffa90cc0225b39da2e5c2d3b90600090a250565b6060613c448383604051806060016040528060278152602001614d11602791396060600080856001600160a01b031685604051613f689190614c34565b600060405180830381855af49150503d8060008114613fa3576040519150601f19603f3d011682016040523d82523d6000602084013e613fa8565b606091505b5091509150613fb986838387613fc3565b9695505050505050565b6060831561403057825160000361402957613fdd85613b63565b6140295760405162461bcd60e51b815260206004820152601d60248201527f416464726573733a2063616c6c20746f206e6f6e2d636f6e7472616374000000604482015260640161137b565b5081613203565b61320383838151156140455781518083602001fd5b8060405162461bcd60e51b815260040161137b919061449c565b60006020828403121561407157600080fd5b81356001600160e01b031981168114613c4457600080fd5b6001600160a01b0381168114610ab757600080fd5b600080604083850312156140b157600080fd5b82356140bc81614089565b946020939093013593505050565b6000602082840312156140dc57600080fd5b8135613c4481614089565b6000806000606084860312156140fc57600080fd5b833561410781614089565b9250602084013561411781614089565b929592945050506040919091013590565b6001600160a01b0391909116815260200190565b60006020828403121561414e57600080fd5b5035919050565b6000806040838503121561416857600080fd5b82359150602083013561417a81614089565b809150509250929050565b60008083601f84011261419757600080fd5b5081356001600160401b038111156141ae57600080fd5b6020830191508360208285010111156141c657600080fd5b9250929050565b6000806000806000806000806000806101208b8d0312156141ed57600080fd5b8a356141f881614089565b995060208b013561420881614089565b985060408b013561421881614089565b975060608b013561422881614089565b965060808b013561423881614089565b955060a08b013561424881614089565b945060c08b013561425881614089565b935060e08b013561426881614089565b92506101008b01356001600160401b0381111561428457600080fd5b6142908d828e01614185565b915080935050809150509295989b9194979a5092959850565b60008083601f8401126142bb57600080fd5b5081356001600160401b038111156142d257600080fd5b6020830191508360208260051b85010111156141c657600080fd5b60008060006040848603121561430257600080fd5b8335925060208401356001600160401b0381111561431f57600080fd5b61432b868287016142a9565b9497909650939450505050565b60006060828403121561434a57600080fd5b50919050565b6000806000806080858703121561436657600080fd5b843561437181614089565b966020860135965060408601359560600135945092505050565b634e487b7160e01b600052604160045260246000fd5b604051601f8201601f191681016001600160401b03811182821017156143c9576143c961438b565b604052919050565b600080604083850312156143e457600080fd5b82356143ef81614089565b91506020838101356001600160401b038082111561440c57600080fd5b818601915086601f83011261442057600080fd5b8135818111156144325761443261438b565b614444601f8201601f191685016143a1565b9150808252878482850101111561445a57600080fd5b80848401858401376000848284010152508093505050509250929050565b60005b8381101561449357818101518382015260200161447b565b50506000910152565b60208152600082518060208401526144bb816040850160208701614478565b601f01601f19169190910160400192915050565b60008060008060008060008060c0898b0312156144eb57600080fd5b88356144f681614089565b9750602089013596506040890135955060608901356001600160401b038082111561452057600080fd5b61452c8c838d016142a9565b909750955060808b013591508082111561454557600080fd5b506145528b828c016142a9565b999c989b50969995989497949560a00135949350505050565b600080600080600060a0868803121561458357600080fd5b853561458e81614089565b9450602086013593506040860135925060608601356145ac81614089565b949793965091946080013592915050565b6000806000806000806000806000806101208b8d0312156145dd57600080fd5b8a356001600160401b038111156145f357600080fd5b6145ff8d828e01614185565b909b5099505060208b0135975060408b0135965060608b0135955060808b0135945060a08b013561462f81614089565b935060c08b013561463f81614089565b925060e08b013561464f81614089565b91506101008b013561466081614089565b809150509295989b9194979a5092959850565b6001600160a01b039384168152919092166020820152604081019190915260600190565b9283526001600160a01b03919091166020830152604082015260600190565b6001600160a01b03929092168252602082015260400190565b6000602082840312156146e157600080fd5b5051919050565b634e487b7160e01b600052601160045260246000fd5b818103818111156109b6576109b66146e8565b634e487b7160e01b600052600160045260246000fd5b80820281158282048414176109b6576109b66146e8565b60008261475b57634e487b7160e01b600052601260045260246000fd5b500490565b808201808211156109b6576109b66146e8565b8981526001600160a01b03898116602083015288166040820152606081018790526080810186905260a0810185905260c0810184905261010060e08201819052810182905260006101208385828501376000838501820152601f909301601f19169091019091019998505050505050505050565b805180151581146147f757600080fd5b919050565b60006020828403121561480e57600080fd5b613c44826147e7565b60006020828403121561482957600080fd5b815160ff81168114613c4457600080fd5b60006020828403121561484c57600080fd5b8151613c4481614089565b634e487b7160e01b600052603260045260246000fd5b60006020828403121561487f57600080fd5b604051602081018181106001600160401b03821117156148a1576148a161438b565b6040529151825250919050565b6000600182016148c0576148c06146e8565b5060010190565b9485526001600160a01b0393909316602085015260408401919091526060830152608082015260a00190565b6020808252602c908201527f46756e6374696f6e206d7573742062652063616c6c6564207468726f7567682060408201526b19195b1959d85d1958d85b1b60a21b606082015260800190565b6020808252602c908201527f46756e6374696f6e206d7573742062652063616c6c6564207468726f7567682060408201526b6163746976652070726f787960a01b606082015260800190565b600181815b808511156149c65781600019048211156149ac576149ac6146e8565b808516156149b957918102915b93841c9390800290614990565b509250929050565b6000826149dd575060016109b6565b816149ea575060006109b6565b8160018114614a005760028114614a0a57614a26565b60019150506109b6565b60ff841115614a1b57614a1b6146e8565b50506001821b6109b6565b5060208310610133831016604e8410600b8410161715614a49575081810a6109b6565b614a53838361498b565b8060001904821115614a6757614a676146e8565b029392505050565b6000613c4483836149ce565b6001600160a01b03868116825260606020808401829052908301869052600091879160808501845b89811015614aca578435614ab681614089565b841682529382019390820190600101614aa3565b5085810360408701528681526001600160fb1b03871115614aea57600080fd5b8660051b935083888383013790920190910198975050505050505050565b8183823760009101908152919050565b600060808284031215614b2a57600080fd5b604051608081018181106001600160401b0382111715614b4c57614b4c61438b565b6040528251614b5a81614089565b808252506020830151602082015260408301516040820152614b7e606084016147e7565b60608201529392505050565b9384526001600160a01b039290921660208401526040830152606082015260800190565b76020b1b1b2b9b9a1b7b73a3937b61d1030b1b1b7bab73a1604d1b815260008351614be0816017850160208801614478565b7001034b99036b4b9b9b4b733903937b6329607d1b6017918401918201528351614c11816028840160208801614478565b01602801949350505050565b600081614c2c57614c2c6146e8565b506000190190565b60008251614c46818460208701614478565b919091019291505056fe793a6c9b7e0a9549c74edc2f9ae0dc50903dfaa9a56fb0116b27a8c71de3e2c6413cc8bb35fe129dacd3dfaae80d6d4c5d313f64cee9dd6712e7ca52e38573a930d41a597cac127d8249d31298b50e481ee82c3f4a49ff93c76a22735aa9f3ad360894a13ba1a3210667c828492db98dca3e2076cc3735a920a3ca505d382bbcf4b6b486426e3c004413defb7013cd482f29189a98e074f1c202b2ac26536bb21d693f62a755e2b3c6494da41af454605b9006057cb3c79b6adda1378f2a50a7416464726573733a206c6f772d6c6576656c2064656c65676174652063616c6c206661696c65646e14a979b95b01beecd617807f3738f4e067938da99755b16afdcf7148d313b76e3cc031d23d7153f72e87cbfd113a0351c60d8ce52b8a31c944d543a384b7c9a26469706673582212206f695b3c7e814c3872291b8860e0f9b56614b3a9b9ce56e38f155e82c2897b5264736f6c63430008120033",
  "linkReferences": {},
  "deployedLinkReferences": {}
}