{
  "_format": "hh-sol-artifact-1",
  "contractName": "TestTermRepoServicer",
  "sourceName": "contracts/test/TestTermRepoServicer.sol",
  "abi": [
    {
      "inputs": [],
      "name": "AccessControlBadConfirmation",
      "type": "error"
    },
    {
      "inputs": [
        {
          "internalType": "address",
          "name": "account",
          "type": "address"
        },
        {
          "internalType": "bytes32",
          "name": "neededRole",
          "type": "bytes32"
        }
      ],
      "name": "AccessControlUnauthorizedAccount",
      "type": "error"
    },
    {
      "inputs": [
        {
          "internalType": "address",
          "name": "target",
          "type": "address"
        }
      ],
      "name": "AddressEmptyCode",
      "type": "error"
    },
    {
      "inputs": [],
      "name": "AfterMaturity",
      "type": "error"
    },
    {
      "inputs": [],
      "name": "AfterRepurchaseWindow",
      "type": "error"
    },
    {
      "inputs": [],
      "name": "AlreadyTermContractPaired",
      "type": "error"
    },
    {
      "inputs": [],
      "name": "CallerNotBorrower",
      "type": "error"
    },
    {
      "inputs": [
        {
          "internalType": "address",
          "name": "implementation",
          "type": "address"
        }
      ],
      "name": "ERC1967InvalidImplementation",
      "type": "error"
    },
    {
      "inputs": [],
      "name": "ERC1967NonPayable",
      "type": "error"
    },
    {
      "inputs": [],
      "name": "EncumberedCollateralRemaining",
      "type": "error"
    },
    {
      "inputs": [],
      "name": "FailedCall",
      "type": "error"
    },
    {
      "inputs": [],
      "name": "InsufficientCollateral",
      "type": "error"
    },
    {
      "inputs": [],
      "name": "InsufficientTermRepoTokenBalance",
      "type": "error"
    },
    {
      "inputs": [],
      "name": "InsufficientgetBorrowerRepurchaseObligation",
      "type": "error"
    },
    {
      "inputs": [],
      "name": "InvalidInitialization",
      "type": "error"
    },
    {
      "inputs": [
        {
          "internalType": "string",
          "name": "message",
          "type": "string"
        }
      ],
      "name": "InvalidParameters",
      "type": "error"
    },
    {
      "inputs": [],
      "name": "LockedBalanceInsufficient",
      "type": "error"
    },
    {
      "inputs": [],
      "name": "NoMintOpenExposureAccess",
      "type": "error"
    },
    {
      "inputs": [],
      "name": "NotInitializing",
      "type": "error"
    },
    {
      "inputs": [],
      "name": "NotMaturedYet",
      "type": "error"
    },
    {
      "inputs": [],
      "name": "RedemptionPeriodNotOpen",
      "type": "error"
    },
    {
      "inputs": [],
      "name": "RepurchaseAmountTooHigh",
      "type": "error"
    },
    {
      "inputs": [],
      "name": "UUPSUnauthorizedCallContext",
      "type": "error"
    },
    {
      "inputs": [
        {
          "internalType": "bytes32",
          "name": "slot",
          "type": "bytes32"
        }
      ],
      "name": "UUPSUnsupportedProxiableUUID",
      "type": "error"
    },
    {
      "inputs": [],
      "name": "ZeroBorrowerRepurchaseObligation",
      "type": "error"
    },
    {
      "inputs": [],
      "name": "ZeroMaxRepurchase",
      "type": "error"
    },
    {
      "inputs": [],
      "name": "ZeroTermRepoTokenBalance",
      "type": "error"
    },
    {
      "anonymous": false,
      "inputs": [
        {
          "indexed": false,
          "internalType": "uint64",
          "name": "version",
          "type": "uint64"
        }
      ],
      "name": "Initialized",
      "type": "event"
    },
    {
      "anonymous": false,
      "inputs": [
        {
          "indexed": true,
          "internalType": "bytes32",
          "name": "role",
          "type": "bytes32"
        },
        {
          "indexed": true,
          "internalType": "bytes32",
          "name": "previousAdminRole",
          "type": "bytes32"
        },
        {
          "indexed": true,
          "internalType": "bytes32",
          "name": "newAdminRole",
          "type": "bytes32"
        }
      ],
      "name": "RoleAdminChanged",
      "type": "event"
    },
    {
      "anonymous": false,
      "inputs": [
        {
          "indexed": true,
          "internalType": "bytes32",
          "name": "role",
          "type": "bytes32"
        },
        {
          "indexed": true,
          "internalType": "address",
          "name": "account",
          "type": "address"
        },
        {
          "indexed": true,
          "internalType": "address",
          "name": "sender",
          "type": "address"
        }
      ],
      "name": "RoleGranted",
      "type": "event"
    },
    {
      "anonymous": false,
      "inputs": [
        {
          "indexed": true,
          "internalType": "bytes32",
          "name": "role",
          "type": "bytes32"
        },
        {
          "indexed": true,
          "internalType": "address",
          "name": "account",
          "type": "address"
        },
        {
          "indexed": true,
          "internalType": "address",
          "name": "sender",
          "type": "address"
        }
      ],
      "name": "RoleRevoked",
      "type": "event"
    },
    {
      "anonymous": false,
      "inputs": [
        {
          "indexed": true,
          "internalType": "address",
          "name": "implementation",
          "type": "address"
        }
      ],
      "name": "Upgraded",
      "type": "event"
    },
    {
      "inputs": [],
      "name": "AUCTIONEER",
      "outputs": [
        {
          "internalType": "bytes32",
          "name": "",
          "type": "bytes32"
        }
      ],
      "stateMutability": "view",
      "type": "function"
    },
    {
      "inputs": [],
      "name": "AUCTION_LOCKER",
      "outputs": [
        {
          "internalType": "bytes32",
          "name": "",
          "type": "bytes32"
        }
      ],
      "stateMutability": "view",
      "type": "function"
    },
    {
      "inputs": [],
      "name": "COLLATERAL_MANAGER",
      "outputs": [
        {
          "internalType": "bytes32",
          "name": "",
          "type": "bytes32"
        }
      ],
      "stateMutability": "view",
      "type": "function"
    },
    {
      "inputs": [],
      "name": "DEFAULT_ADMIN_ROLE",
      "outputs": [
        {
          "internalType": "bytes32",
          "name": "",
          "type": "bytes32"
        }
      ],
      "stateMutability": "view",
      "type": "function"
    },
    {
      "inputs": [],
      "name": "DEVOPS_ROLE",
      "outputs": [
        {
          "internalType": "bytes32",
          "name": "",
          "type": "bytes32"
        }
      ],
      "stateMutability": "view",
      "type": "function"
    },
    {
      "inputs": [],
      "name": "DIAMOND_ROLE",
      "outputs": [
        {
          "internalType": "bytes32",
          "name": "",
          "type": "bytes32"
        }
      ],
      "stateMutability": "view",
      "type": "function"
    },
    {
      "inputs": [],
      "name": "INITIALIZER_ROLE",
      "outputs": [
        {
          "internalType": "bytes32",
          "name": "",
          "type": "bytes32"
        }
      ],
      "stateMutability": "view",
      "type": "function"
    },
    {
      "inputs": [],
      "name": "ROLLOVER_MANAGER",
      "outputs": [
        {
          "internalType": "bytes32",
          "name": "",
          "type": "bytes32"
        }
      ],
      "stateMutability": "view",
      "type": "function"
    },
    {
      "inputs": [],
      "name": "ROLLOVER_TARGET_AUCTIONEER_ROLE",
      "outputs": [
        {
          "internalType": "bytes32",
          "name": "",
          "type": "bytes32"
        }
      ],
      "stateMutability": "view",
      "type": "function"
    },
    {
      "inputs": [],
      "name": "UPGRADE_INTERFACE_VERSION",
      "outputs": [
        {
          "internalType": "string",
          "name": "",
          "type": "string"
        }
      ],
      "stateMutability": "view",
      "type": "function"
    },
    {
      "inputs": [],
      "name": "YEAR_SECONDS",
      "outputs": [
        {
          "internalType": "uint256",
          "name": "",
          "type": "uint256"
        }
      ],
      "stateMutability": "view",
      "type": "function"
    },
    {
      "inputs": [
        {
          "internalType": "address",
          "name": "termAuction",
          "type": "address"
        }
      ],
      "name": "approveRolloverAuction",
      "outputs": [],
      "stateMutability": "nonpayable",
      "type": "function"
    },
    {
      "inputs": [
        {
          "internalType": "address",
          "name": "borrower",
          "type": "address"
        },
        {
          "internalType": "uint256",
          "name": "amountToBurn",
          "type": "uint256"
        }
      ],
      "name": "burnCollapseExposure",
      "outputs": [],
      "stateMutability": "nonpayable",
      "type": "function"
    },
    {
      "inputs": [
        {
          "internalType": "uint256",
          "name": "amountToBurn",
          "type": "uint256"
        }
      ],
      "name": "burnCollapseExposure",
      "outputs": [],
      "stateMutability": "nonpayable",
      "type": "function"
    },
    {
      "inputs": [
        {
          "internalType": "address",
          "name": "borrower",
          "type": "address"
        },
        {
          "internalType": "uint256",
          "name": "rolloverSettlementAmount",
          "type": "uint256"
        }
      ],
      "name": "closeExposureOnRolloverExisting",
      "outputs": [
        {
          "internalType": "uint256",
          "name": "",
          "type": "uint256"
        }
      ],
      "stateMutability": "nonpayable",
      "type": "function"
    },
    {
      "inputs": [],
      "name": "endOfRepurchaseWindow",
      "outputs": [
        {
          "internalType": "uint256",
          "name": "",
          "type": "uint256"
        }
      ],
      "stateMutability": "view",
      "type": "function"
    },
    {
      "inputs": [
        {
          "internalType": "address",
          "name": "bidder",
          "type": "address"
        },
        {
          "internalType": "uint256",
          "name": "purchasePrice",
          "type": "uint256"
        },
        {
          "internalType": "uint256",
          "name": "repurchasePrice",
          "type": "uint256"
        },
        {
          "internalType": "address[]",
          "name": "collateralTokens",
          "type": "address[]"
        },
        {
          "internalType": "uint256[]",
          "name": "collateralAmounts",
          "type": "uint256[]"
        },
        {
          "internalType": "uint256",
          "name": "dayCountFractionMantissa",
          "type": "uint256"
        }
      ],
      "name": "fulfillBid",
      "outputs": [],
      "stateMutability": "nonpayable",
      "type": "function"
    },
    {
      "inputs": [
        {
          "internalType": "address",
          "name": "offeror",
          "type": "address"
        },
        {
          "internalType": "uint256",
          "name": "purchasePrice",
          "type": "uint256"
        },
        {
          "internalType": "uint256",
          "name": "repurchasePrice",
          "type": "uint256"
        },
        {
          "internalType": "bytes32",
          "name": "offerId",
          "type": "bytes32"
        }
      ],
      "name": "fulfillOffer",
      "outputs": [],
      "stateMutability": "nonpayable",
      "type": "function"
    },
    {
      "inputs": [
        {
          "internalType": "address",
          "name": "borrower",
          "type": "address"
        }
      ],
      "name": "getBorrowerRepurchaseObligation",
      "outputs": [
        {
          "internalType": "uint256",
          "name": "",
          "type": "uint256"
        }
      ],
      "stateMutability": "view",
      "type": "function"
    },
    {
      "inputs": [
        {
          "internalType": "bytes32",
          "name": "role",
          "type": "bytes32"
        }
      ],
      "name": "getRoleAdmin",
      "outputs": [
        {
          "internalType": "bytes32",
          "name": "",
          "type": "bytes32"
        }
      ],
      "stateMutability": "view",
      "type": "function"
    },
    {
      "inputs": [
        {
          "internalType": "bytes32",
          "name": "role",
          "type": "bytes32"
        },
        {
          "internalType": "address",
          "name": "account",
          "type": "address"
        }
      ],
      "name": "grantRole",
      "outputs": [],
      "stateMutability": "nonpayable",
      "type": "function"
    },
    {
      "inputs": [
        {
          "internalType": "bytes32",
          "name": "role",
          "type": "bytes32"
        },
        {
          "internalType": "address",
          "name": "account",
          "type": "address"
        }
      ],
      "name": "hasRole",
      "outputs": [
        {
          "internalType": "bool",
          "name": "",
          "type": "bool"
        }
      ],
      "stateMutability": "view",
      "type": "function"
    },
    {
      "inputs": [
        {
          "internalType": "string",
          "name": "termRepoId_",
          "type": "string"
        },
        {
          "internalType": "uint256",
          "name": "maturityTimestamp_",
          "type": "uint256"
        },
        {
          "internalType": "uint256",
          "name": "repurchaseWindow_",
          "type": "uint256"
        },
        {
          "internalType": "uint256",
          "name": "redemptionBuffer_",
          "type": "uint256"
        },
        {
          "internalType": "uint256",
          "name": "servicingFee_",
          "type": "uint256"
        },
        {
          "internalType": "address",
          "name": "purchaseToken_",
          "type": "address"
        },
        {
          "internalType": "contract ITermController",
          "name": "termController_",
          "type": "address"
        },
        {
          "internalType": "contract ITermEventEmitter",
          "name": "emitter_",
          "type": "address"
        },
        {
          "internalType": "address",
          "name": "termInitializer_",
          "type": "address"
        }
      ],
      "name": "initialize",
      "outputs": [],
      "stateMutability": "nonpayable",
      "type": "function"
    },
    {
      "inputs": [],
      "name": "isTermRepoBalanced",
      "outputs": [
        {
          "internalType": "bool",
          "name": "",
          "type": "bool"
        }
      ],
      "stateMutability": "view",
      "type": "function"
    },
    {
      "inputs": [
        {
          "internalType": "address",
          "name": "borrower",
          "type": "address"
        },
        {
          "internalType": "address",
          "name": "liquidator",
          "type": "address"
        },
        {
          "internalType": "uint256",
          "name": "amountToCover",
          "type": "uint256"
        }
      ],
      "name": "liquidatorCoverExposure",
      "outputs": [],
      "stateMutability": "nonpayable",
      "type": "function"
    },
    {
      "inputs": [
        {
          "internalType": "address",
          "name": "borrower",
          "type": "address"
        },
        {
          "internalType": "address",
          "name": "liquidator",
          "type": "address"
        },
        {
          "internalType": "uint256",
          "name": "amountOfRepoToken",
          "type": "uint256"
        }
      ],
      "name": "liquidatorCoverExposureWithRepoToken",
      "outputs": [
        {
          "internalType": "uint256",
          "name": "",
          "type": "uint256"
        }
      ],
      "stateMutability": "nonpayable",
      "type": "function"
    },
    {
      "inputs": [
        {
          "internalType": "address",
          "name": "sender",
          "type": "address"
        },
        {
          "internalType": "address",
          "name": "offeror",
          "type": "address"
        },
        {
          "internalType": "uint256",
          "name": "amount",
          "type": "uint256"
        }
      ],
      "name": "lockOfferAmount",
      "outputs": [],
      "stateMutability": "nonpayable",
      "type": "function"
    },
    {
      "inputs": [],
      "name": "maturityTimestamp",
      "outputs": [
        {
          "internalType": "uint256",
          "name": "",
          "type": "uint256"
        }
      ],
      "stateMutability": "view",
      "type": "function"
    },
    {
      "inputs": [
        {
          "internalType": "uint256",
          "name": "amount",
          "type": "uint256"
        },
        {
          "internalType": "uint256[]",
          "name": "collateralAmounts",
          "type": "uint256[]"
        }
      ],
      "name": "mintOpenExposure",
      "outputs": [],
      "stateMutability": "nonpayable",
      "type": "function"
    },
    {
      "inputs": [
        {
          "internalType": "address",
          "name": "borrower",
          "type": "address"
        },
        {
          "internalType": "uint256",
          "name": "amount",
          "type": "uint256"
        },
        {
          "internalType": "uint256[]",
          "name": "collateralAmounts",
          "type": "uint256[]"
        }
      ],
      "name": "mintOpenExposure",
      "outputs": [],
      "stateMutability": "nonpayable",
      "type": "function"
    },
    {
      "inputs": [
        {
          "internalType": "address",
          "name": "borrower",
          "type": "address"
        },
        {
          "internalType": "address",
          "name": "lender",
          "type": "address"
        },
        {
          "internalType": "uint256",
          "name": "purchaseTokenAmount",
          "type": "uint256"
        },
        {
          "internalType": "uint256[]",
          "name": "collateralAmounts",
          "type": "uint256[]"
        },
        {
          "internalType": "uint256",
          "name": "offerRate",
          "type": "uint256"
        },
        {
          "internalType": "bool",
          "name": "isRoutedCollateral",
          "type": "bool"
        }
      ],
      "name": "mintOpenExposureFromIntent",
      "outputs": [
        {
          "internalType": "uint256",
          "name": "",
          "type": "uint256"
        }
      ],
      "stateMutability": "nonpayable",
      "type": "function"
    },
    {
      "inputs": [
        {
          "internalType": "address",
          "name": "borrower",
          "type": "address"
        },
        {
          "internalType": "uint256",
          "name": "purchasePrice",
          "type": "uint256"
        },
        {
          "internalType": "uint256",
          "name": "repurchasePrice",
          "type": "uint256"
        },
        {
          "internalType": "address",
          "name": "previousTermRepoLocker",
          "type": "address"
        },
        {
          "internalType": "uint256",
          "name": "dayCountFractionMantissa",
          "type": "uint256"
        }
      ],
      "name": "openExposureOnRolloverNew",
      "outputs": [
        {
          "internalType": "uint256",
          "name": "",
          "type": "uint256"
        }
      ],
      "stateMutability": "nonpayable",
      "type": "function"
    },
    {
      "inputs": [
        {
          "internalType": "address",
          "name": "termRepoLocker_",
          "type": "address"
        },
        {
          "internalType": "address",
          "name": "termRepoCollateralManager_",
          "type": "address"
        },
        {
          "internalType": "address",
          "name": "termRepoToken_",
          "type": "address"
        },
        {
          "internalType": "address",
          "name": "termDiamond_",
          "type": "address"
        },
        {
          "internalType": "address",
          "name": "termAuctionOfferLocker_",
          "type": "address"
        },
        {
          "internalType": "address",
          "name": "termAuction_",
          "type": "address"
        },
        {
          "internalType": "address",
          "name": "rolloverManager_",
          "type": "address"
        },
        {
          "internalType": "address",
          "name": "devopsMultisig_",
          "type": "address"
        },
        {
          "internalType": "address",
          "name": "deployerWallet_",
          "type": "address"
        },
        {
          "internalType": "string",
          "name": "version_",
          "type": "string"
        }
      ],
      "name": "pairTermContracts",
      "outputs": [],
      "stateMutability": "nonpayable",
      "type": "function"
    },
    {
      "inputs": [],
      "name": "proxiableUUID",
      "outputs": [
        {
          "internalType": "bytes32",
          "name": "",
          "type": "bytes32"
        }
      ],
      "stateMutability": "view",
      "type": "function"
    },
    {
      "inputs": [],
      "name": "purchaseToken",
      "outputs": [
        {
          "internalType": "address",
          "name": "",
          "type": "address"
        }
      ],
      "stateMutability": "view",
      "type": "function"
    },
    {
      "inputs": [
        {
          "internalType": "address",
          "name": "redeemer",
          "type": "address"
        },
        {
          "internalType": "uint256",
          "name": "amountToRedeem",
          "type": "uint256"
        }
      ],
      "name": "redeemTermRepoTokens",
      "outputs": [],
      "stateMutability": "nonpayable",
      "type": "function"
    },
    {
      "inputs": [],
      "name": "redemptionTimestamp",
      "outputs": [
        {
          "internalType": "uint256",
          "name": "",
          "type": "uint256"
        }
      ],
      "stateMutability": "view",
      "type": "function"
    },
    {
      "inputs": [
        {
          "internalType": "bytes32",
          "name": "role",
          "type": "bytes32"
        },
        {
          "internalType": "address",
          "name": "callerConfirmation",
          "type": "address"
        }
      ],
      "name": "renounceRole",
      "outputs": [],
      "stateMutability": "nonpayable",
      "type": "function"
    },
    {
      "inputs": [
        {
          "components": [
            {
              "internalType": "contract TermAuction",
              "name": "auction",
              "type": "address"
            },
            {
              "internalType": "contract ITermAuctionBidLocker",
              "name": "termAuctionBidLocker",
              "type": "address"
            },
            {
              "internalType": "contract ITermAuctionOfferLocker",
              "name": "termAuctionOfferLocker",
              "type": "address"
            }
          ],
          "internalType": "struct TermAuctionGroup",
          "name": "termAuctionGroup",
          "type": "tuple"
        }
      ],
      "name": "reopenToNewAuction",
      "outputs": [],
      "stateMutability": "nonpayable",
      "type": "function"
    },
    {
      "inputs": [
        {
          "internalType": "bytes32",
          "name": "role",
          "type": "bytes32"
        },
        {
          "internalType": "address",
          "name": "account",
          "type": "address"
        }
      ],
      "name": "revokeRole",
      "outputs": [],
      "stateMutability": "nonpayable",
      "type": "function"
    },
    {
      "inputs": [],
      "name": "servicingFee",
      "outputs": [
        {
          "internalType": "uint256",
          "name": "",
          "type": "uint256"
        }
      ],
      "stateMutability": "view",
      "type": "function"
    },
    {
      "inputs": [
        {
          "internalType": "uint256",
          "name": "amount",
          "type": "uint256"
        }
      ],
      "name": "setPurchaseCurrencyHeld",
      "outputs": [],
      "stateMutability": "nonpayable",
      "type": "function"
    },
    {
      "inputs": [
        {
          "internalType": "uint256",
          "name": "mantissa",
          "type": "uint256"
        }
      ],
      "name": "setShortfallHaircutMantissa",
      "outputs": [],
      "stateMutability": "nonpayable",
      "type": "function"
    },
    {
      "inputs": [
        {
          "internalType": "uint256",
          "name": "amount",
          "type": "uint256"
        }
      ],
      "name": "setTotalOutstandingRepurchaseExposure",
      "outputs": [],
      "stateMutability": "nonpayable",
      "type": "function"
    },
    {
      "inputs": [
        {
          "internalType": "uint256",
          "name": "value",
          "type": "uint256"
        }
      ],
      "name": "setTotalRedemptionValue",
      "outputs": [],
      "stateMutability": "nonpayable",
      "type": "function"
    },
    {
      "inputs": [
        {
          "internalType": "uint256",
          "name": "amount",
          "type": "uint256"
        }
      ],
      "name": "setTotalRepurchaseCollected",
      "outputs": [],
      "stateMutability": "nonpayable",
      "type": "function"
    },
    {
      "inputs": [],
      "name": "shortfallHaircutMantissa",
      "outputs": [
        {
          "internalType": "uint256",
          "name": "",
          "type": "uint256"
        }
      ],
      "stateMutability": "view",
      "type": "function"
    },
    {
      "inputs": [
        {
          "internalType": "uint256",
          "name": "amount",
          "type": "uint256"
        }
      ],
      "name": "submitRepurchasePayment",
      "outputs": [],
      "stateMutability": "nonpayable",
      "type": "function"
    },
    {
      "inputs": [
        {
          "internalType": "address",
          "name": "borrower",
          "type": "address"
        },
        {
          "internalType": "uint256",
          "name": "amount",
          "type": "uint256"
        }
      ],
      "name": "submitRepurchasePayment",
      "outputs": [],
      "stateMutability": "nonpayable",
      "type": "function"
    },
    {
      "inputs": [
        {
          "internalType": "bytes4",
          "name": "interfaceId",
          "type": "bytes4"
        }
      ],
      "name": "supportsInterface",
      "outputs": [
        {
          "internalType": "bool",
          "name": "",
          "type": "bool"
        }
      ],
      "stateMutability": "view",
      "type": "function"
    },
    {
      "inputs": [],
      "name": "termController",
      "outputs": [
        {
          "internalType": "contract ITermController",
          "name": "",
          "type": "address"
        }
      ],
      "stateMutability": "view",
      "type": "function"
    },
    {
      "inputs": [],
      "name": "termRepoBalancedThreshold",
      "outputs": [
        {
          "internalType": "uint256",
          "name": "",
          "type": "uint256"
        }
      ],
      "stateMutability": "view",
      "type": "function"
    },
    {
      "inputs": [],
      "name": "termRepoCollateralManager",
      "outputs": [
        {
          "internalType": "contract ITermRepoCollateralManager",
          "name": "",
          "type": "address"
        }
      ],
      "stateMutability": "view",
      "type": "function"
    },
    {
      "inputs": [],
      "name": "termRepoId",
      "outputs": [
        {
          "internalType": "bytes32",
          "name": "",
          "type": "bytes32"
        }
      ],
      "stateMutability": "view",
      "type": "function"
    },
    {
      "inputs": [],
      "name": "termRepoLocker",
      "outputs": [
        {
          "internalType": "contract ITermRepoLocker",
          "name": "",
          "type": "address"
        }
      ],
      "stateMutability": "view",
      "type": "function"
    },
    {
      "inputs": [],
      "name": "termRepoRolloverManager",
      "outputs": [
        {
          "internalType": "contract ITermRepoRolloverManager",
          "name": "",
          "type": "address"
        }
      ],
      "stateMutability": "view",
      "type": "function"
    },
    {
      "inputs": [],
      "name": "termRepoToken",
      "outputs": [
        {
          "internalType": "contract ITermRepoToken",
          "name": "",
          "type": "address"
        }
      ],
      "stateMutability": "view",
      "type": "function"
    },
    {
      "inputs": [],
      "name": "testIsTermRepoBalanced",
      "outputs": [
        {
          "internalType": "bool",
          "name": "",
          "type": "bool"
        }
      ],
      "stateMutability": "view",
      "type": "function"
    },
    {
      "inputs": [],
      "name": "totalOutstandingRepurchaseExposure",
      "outputs": [
        {
          "internalType": "uint256",
          "name": "",
          "type": "uint256"
        }
      ],
      "stateMutability": "view",
      "type": "function"
    },
    {
      "inputs": [],
      "name": "totalRepurchaseCollected",
      "outputs": [
        {
          "internalType": "uint256",
          "name": "",
          "type": "uint256"
        }
      ],
      "stateMutability": "view",
      "type": "function"
    },
    {
      "inputs": [
        {
          "internalType": "address",
          "name": "offeror",
          "type": "address"
        },
        {
          "internalType": "uint256",
          "name": "amount",
          "type": "uint256"
        }
      ],
      "name": "unlockOfferAmount",
      "outputs": [],
      "stateMutability": "nonpayable",
      "type": "function"
    },
    {
      "inputs": [
        {
          "internalType": "address",
          "name": "upgradeAddress",
          "type": "address"
        }
      ],
      "name": "upgrade",
      "outputs": [],
      "stateMutability": "nonpayable",
      "type": "function"
    },
    {
      "inputs": [
        {
          "internalType": "address",
          "name": "newImplementation",
          "type": "address"
        },
        {
          "internalType": "bytes",
          "name": "data",
          "type": "bytes"
        }
      ],
      "name": "upgradeToAndCall",
      "outputs": [],
      "stateMutability": "payable",
      "type": "function"
    },
    {
      "inputs": [],
      "name": "version",
      "outputs": [
        {
          "internalType": "string",
          "name": "",
          "type": "string"
        }
      ],
      "stateMutability": "view",
      "type": "function"
    }
  ],
  "bytecode": "0x60a08060405234620000d157306080527ff0c57e16840df040f15088dc2f81fe391c3923bec73e23a9662efc9c229c6a009081549060ff8260401c16620000c257506001600160401b036002600160401b0319828216016200007c575b6040516149709081620000d782396080518181816119db0152611ab00152f35b6001600160401b031990911681179091556040519081527fc7f505b2f371ae2175ee4913f4499e1f2633a7b5936321eed1cdaeb6115181d290602090a13880806200005c565b63f92ee8a960e01b8152600490fd5b600080fdfe6080604052600436101561001257600080fd5b6000803560e01c80621fd9fc14612b9857806301ffc9a714612b4157806302b65fb014612b185780630900f01014612aa257806309aa80fc146129b65780631320834f146129985780631b2354371461297a5780631b433b11146126dd578063201a6625146126b4578063228d5cc61461268b57806323e507f714612662578063248a9ca31461262857806325c3ed47146125ff5780632762697d146125c657806327df3d3e1461259d5780632f2ff15d1461255257806331bb625e1461249057806333d6723e146123ba5780633606358d14611fbd57806336568abe14611f755780633718373f14611f4c57806338771c3e14611f1e5780633d07d4f714610a905780633d0f31f714611f005780633dcaa6c614611ee25780633de81dc414611eb95780634055008a14611e0f57806340d3da8b14611df157806341dcaf1114611dd65780634576fdf114611db857806347c9189814611cdf5780634dabab1014611cba5780634f1ef28614611a3357806352d1902d146119c857806354fd4d50146119845780635879fae9146119665780635c4b440e1461193d5780635ca84e6e14611914578063796a4455146118eb5780637e237e8914611235578063811078001461120757806391d14854146111ae57806393889123146111935780639d5d210814611175578063a217fddf14611159578063a22be9ca14610e58578063a95c4d6214610e2f578063ad3cb1cc14610ded578063b330db2814610dce578063c002bbdd14610d7d578063c023892614610d5f578063c99aa67814610af6578063cc33cb4514610acd578063cc5b6e4a14610ab0578063d21a9ea214610a95578063d381be1714610a90578063d4912c101461078e578063d547741f14610743578063e6702b4e146104c0578063e8caab09146103c3578063ec9477e1146103a0578063fa19d0ed14610382578063fd5d357a146103075763fe05281a146102dc57600080fd5b3461030457806003193601126103045760206040516000805160206147fb8339815191528152f35b80fd5b503461030457602036600319011261030457610321612bb3565b33600090815260008051602061477b83398151915260205260409020546000805160206148db8339815191529060ff161561036457506103609061366d565b5080f35b6044906040519063e2517d3f60e01b82523360048301526024820152fd5b50346103045780600319360112610304576020600654604051908152f35b5034610304576103c06103b236612c22565b916103bb613041565b61440a565b80f35b503461030457806103d336612c22565b90916103dd613079565b600c546009546001600160a01b03929183169190831690823b156104bc576104219287928387936040519687958694859363049f2a5160e21b855260048501612e6f565b03925af19081156104b1578591610498575b5050600f541690835491803b1561049457610468938580946040519687958694859363bba53d0560e01b855260048501612e4e565b03925af18015610489576104795750f35b61048290612ca0565b6103045780f35b6040513d84823e3d90fd5b8480fd5b6104a190612ca0565b6104ac578338610433565b505050fd5b6040513d87823e3d90fd5b8680fd5b503461030457610140366003190112610304576104db612bb3565b6104e3612bc9565b60443591906001600160a01b038316830361073e57610500612bdf565b906084356001600160a01b038116900361073e5761051c612bf5565b60c4356001600160a01b038116900361073e5760e4356001600160a01b038116900361073e5761054a612c0b565b92610124356001600160401b03811161073a5761056b903690600401612d86565b9590936105766130e9565b60115460ff81166107285760ff19166001176011556001600160a01b038616156106e457600c80546001600160a01b03199081166001600160a01b0394851617909155600a80548216838516179055600b8054821660c4358516179055600d805490911692909816919091179096558695610629926106179190610605906105ff6084356132bd565b50613349565b5061061160e435613455565b506134db565b5061062360c435613561565b506135e7565b5060018060a01b03600f541684549360018060a01b03600954169060035493600454966005549260065497863b156106e0578a9889956040519b8c9a8b998a976302adb23360e31b8952600489015230602489015260448801526064870152608486015260a485015260c484015260018060a01b031660e4830152610120610104830152806101248301528061014493848401378181018301849052601f01601f191681010301925af18015610489576104795750f35b8a80fd5b60405162461bcd60e51b815260206004820152601c60248201527b16995c9bc81859191c995cdcc819195c1b1bde595c881dd85b1b195d60221b6044820152606490fd5b604051634ce377bb60e11b8152600490fd5b8780fd5b600080fd5b503461030457604036600319011261030457610360600435610763612bc9565b9080845260008051602061489b8339815191526020526107896001604086200154613159565b613de3565b503461030457610120366003190112610304576001600160401b03600435818111610a8c576107c1903690600401612d86565b90916024356044356107d1612bf5565b6001600160a01b0360c4358181169290839003610a885760e43593828516809503610a84576107fe612c0b565b9560008051602061491b833981519152998a549960ff8b60401c1615998b1680159081610a7c575b6001149081610a72575b159081610a69575b50610a57576001600160401b03198b166001178c558c9a8a610a3c575b5061085e614628565b610866614628565b604051908160209c828e9384840196873782019083820152038083520161088d9082612cff565b5190208b558a6001558a600255806003556108a88282612e41565b600455606435916108b891612e41565b906108c291612e41565b600555608435600655169081156109f957600980546001600160a01b0319908116841790915560405163313ce56760e01b815290928790829060049082905afa80156109ee57603f918a916109c1575b5060021c16600281106000146109b9575060ff60025b16604d81116109a5579061095f94939291600a0a60085581600e541617600e55600f541617600f5560ff19601154166011556133cf565b50610968578280f35b815460ff60401b1916909155604051600181527fc7f505b2f371ae2175ee4913f4499e1f2633a7b5936321eed1cdaeb6115181d29190a138808280f35b634e487b7160e01b89526011600452602489fd5b60ff90610928565b6109e19150883d8a116109e7575b6109d98183612cff565b810190612e9e565b38610912565b503d6109cf565b6040513d8b823e3d90fd5b60405162461bcd60e51b815260048101879052601b60248201527a2d32b9379030b2323932b9b990383ab931b430b9b2903a37b5b2b760291b6044820152606490fd5b6001600160481b0319166001600160401b01178c5538610855565b60405163f92ee8a960e01b8152600490fd5b90501538610838565b303b159150610830565b8b9150610826565b8980fd5b8880fd5b8280fd5b612c87565b50346103045760203660031901126103045760043560015580f35b503461030457806003193601126103045760209054604051908152f35b5034610304578060031936011261030457602060405160008051602061483b8339815191528152f35b50346103045760a036600319011261030457610b10612bb3565b9060243590604435610b20612bdf565b92610b29613121565b600354421015610d4d5760018060a01b039485811684526020956010875260408520610b56858254612e41565b9055610b6484600154612e41565b6001556004670de0b6b3a7640000610ba785610ba2604051610b8581612cc9565b60843581526006549060405191610b9b83612cc9565b8252613ae1565b61460e565b51049382600c54168984600e541660405194858092633800918160e21b82525afa928315610d0b578893610d16575b508360095416813b15610a885786610c09928a928360405180968195829463109c8cf960e11b9b8c855260048501612e6f565b03925af18015610d0b5786918991610cf4575b5050610c2791612dce565b9682600c541690836009541692823b15610a885791899391898094610c5a60405197889687958694855260048501612e6f565b03925af18015610ce957908691610cd5575b5050600f541691845490833b15610cd1579185809492610ca489956040519889978896879563335ec7a360e21b875260048701612f4c565b03925af1801561048957610cbd575b5050604051908152f35b610cc78291612ca0565b6103045780610cb3565b8580fd5b610cde90612ca0565b610494578438610c6c565b6040513d88823e3d90fd5b610cff919250612ca0565b6104bc57848738610c1c565b6040513d8a823e3d90fd5b9092508981813d8311610d46575b610d2e8183612cff565b8101031261073a57610d3f90612f78565b9138610bd6565b503d610d24565b6040516304ff30ef60e21b8152600490fd5b50346103045780600319360112610304576020600254604051908152f35b503461030457606036600319011261030457610d97612bb3565b604435906001600160401b038211610a8c57610dba6103c0923690600401612c57565b91610dc36130b1565b602435903390613768565b503461030457806003193601126103045760206040516301da9c008152f35b5034610304578060031936011261030457610e2b604051610e0d81612ce4565b60058152640352e302e360dc1b602082015260405191829182612d3d565b0390f35b50346103045780600319360112610304576009546040516001600160a01b039091168152602090f35b5034610304576003199060c03683011261030457610e74612bb3565b604435906001600160401b039060243590606435838111610cd157610e9d903690600401612c57565b936084359081116104bc57610eb6903690600401612c57565b949091610ec1613121565b600354421015610d4d57600a546001600160a01b039390841691823b15610a84576040519263578db95760e01b84526064840194808789169687600488015260606024880152526084850192908c5b818110611135575050508a9b84830301604485015288825260209860018060fb1b038111611131578b8a8682968196829560051b809285830137010301925af1908115610d0b57889161111d575b50526010845260408620610f73868254612e41565b9055610f8185600154612e41565b600155670de0b6b3a7640000610fb684610ba2604051610fa081612cc9565b60a43581526006549060405191610b9b83612cc9565b51049381600c541660048284600e541660405192838092633800918160e21b82525afa9283156109ee5789936110e5575b5050826009541690803b15610a885786899161101c938360405180968195829463109c8cf960e11b9a8b855260048501612e6f565b03925af1908115610d0b5788916110d1575b505081600c5416908260095416916110468787612dce565b90803b15610a845761106b938a80946040519687958694859384528b60048501612e6f565b03925af19081156110c65787916110b2575b5050600f541690855493823b156104bc57869461046886926040519889978896879563ff8b11c960e01b875260048701612f4c565b6110bb90612ca0565b610cd157853861107d565b6040513d89823e3d90fd5b6110da90612ca0565b6104bc57863861102e565b9080929350813d8311611116575b6110fd8183612cff565b8101031261073a5761110e90612f78565b903880610fe7565b503d6110f3565b61112690612ca0565b6104bc578638610f5e565b8b80fd5b90919384359089821680920361073e57908152602090810194019190600101610f10565b5034610304578060031936011261030457602090604051908152f35b50346103045780600319360112610304576020600154604051908152f35b50346103045760203660031901126103045760043560125580f35b50346103045760403660031901126103045760406111ca612bc9565b91600435815260008051602061489b833981519152602052209060018060a01b0316600052602052602060ff604060002054166040519015158152f35b5034610304576040366003190112610304576103c0611224612bb3565b61122c6130b1565b60243590614249565b50346103045760403660031901126103045761124f612bb3565b9060248035926005544211156118d957600d546040516370a0823160e01b81526001600160a01b03838116600483018190529460209490939192909183169085818681855afa908115610d0b5788916118ac575b501561189a5760405163391fa71560e11b8152908582600481845afa918215610d0b57889261186b575b5060029182549061271082019081831161185857116115055750508685611312829a86600d541690604051948580948193637acdda2360e11b83528a60048401612db3565b03925af1958615610d0b5788966114d2575b505080548781871161140c57505061133d858254612dce565b905581600c541690826009541690823b1561073a576113789288928388936040519687958694859363109c8cf960e11b855260048501612e6f565b03925af1908115610ce95786916113f8575b5050600f54168454813b15610cd1578560849281956040519788968795636a7a0bd160e11b8752600487015285015260448401528160648401525af18015610489576113e4575b50505b6103c06113df61318c565b612df1565b6113ed90612ca0565b6103045780386113d1565b61140190612ca0565b61049457843861138a565b919095505581600c541690826009541690823b1561073a5761144a9288928388936040519687958694859363109c8cf960e11b855260048501612e6f565b03925af1908115610ce95786916114be575b5050600f54168454813b15610cd1578560849281956040519788968795636a7a0bd160e11b8752600487015285015260448401528160648401525af18015610489576114aa575b50506113d4565b6114b390612ca0565b6103045780386114a3565b6114c790612ca0565b61049457843861145c565b819850809296503d83116114fe575b6114eb8183612cff565b8101031261073e57869551933880611324565b503d6114e1565b919498909295965060048785600a54166040519283809263a11d52f560e01b82525afa9081156109ee578991611823575b50611811578792879160075415611779575b61156b929350604051948580948193637acdda2360e11b83528b60048401612db3565b03925af1948515610ce9578695611749575b50506007546040519061158f82612cc9565b81526115a5670de0b6b3a764000095869261460e565b510491805486818511156000146116915750506115c3838254612dce565b905580600c54168160095416813b156104bc57836115fb9288928360405180968195829463109c8cf960e11b84528c60048501612e6f565b03925af18015610ce95790869161167d575b5050600f5416845492600754850394851161166a57859650813b15610cd15785809461164f60405197889687958694636a7a0bd160e11b8652600486016143e6565b03925af18015610489576113e45750506103c06113df61318c565b634e487b7160e01b865260116004528686fd5b61168690612ca0565b61049457843861160d565b919093505580600c54168160095416813b156104bc57836116cc9288928360405180968195829463109c8cf960e11b84528c60048501612e6f565b03925af18015610ce957908691611735575b5050600f5416845492600754850394851161166a57859650813b15610cd15785809461172060405197889687958694636a7a0bd160e11b8652600486016143e6565b03925af18015610489576114aa5750506113d4565b61173e90612ca0565b6104945784386116de565b9080929550813d8311611772575b6117618183612cff565b8101031261073e575192388061157d565b503d611757565b9150670de0b6b3a764000091828402938085048414811517156117fe576117b290604051956117a787612cc9565b865260015490612e41565b8381029381850414901517156117eb576117df61156b938a95604051916117d883612cc9565b8252613a9a565b51600755839250611548565b634e487b7160e01b855260116004528a85fd5b634e487b7160e01b865260116004528b86fd5b604051633eaef6d560e21b8152600490fd5b90508781813d8311611851575b61183a8183612cff565b81010312610a885761184b90612e91565b38611536565b503d611830565b634e487b7160e01b8b526011600452878bfd5b9091508581813d8311611893575b6118838183612cff565b8101031261073e575190386112cd565b503d611879565b60405163644d752960e01b8152600490fd5b90508581813d83116118d2575b6118c38183612cff565b8101031261073e5751386112a3565b503d6118b9565b604051634724bbc760e11b8152600490fd5b5034610304578060031936011261030457602060405160008051602061475b8339815191528152f35b5034610304578060031936011261030457600d546040516001600160a01b039091168152602090f35b5034610304578060031936011261030457600c546040516001600160a01b039091168152602090f35b5034610304576020366003190112610304576103c060043533614249565b5034610304578060031936011261030457610e2b6040516119a481612ce4565b600b81526a19195d995b1bdc1b595b9d60aa1b602082015260405191829182612d3d565b50346103045780600319360112610304577f00000000000000000000000000000000000000000000000000000000000000006001600160a01b03163003611a215760206040516000805160206147db8339815191528152f35b60405163703e46dd60e11b8152600490fd5b50604036600319011261030457611a48612bb3565b9060249081356001600160401b038111611cb65736602382011215611cb6578060040135611a7581612d22565b94611a836040519687612cff565b8186526020918287019336878383010111610cd157818692888693018737880101526001600160a01b03957f00000000000000000000000000000000000000000000000000000000000000008716308114908115611c9a575b50611a2157611ae9613009565b86600f541696873b15610cd15785879860448293604051948593849263b3c2d50b60e01b84523060048501528916809d8401525af18015610ce957908691611c86575b50506040516352d1902d60e01b815283816004818a5afa869181611c57575b50611b6857604051634c9c8ce360e01b8152600481018890528890fd5b8690886000805160206147db83398151915291828103611c425750843b15611c2c575080546001600160a01b031916821790556040518692917fbc7cd75a20ee27fd9adebab32041f755214dbc6bffa90cc0225b39da2e5c2d3b8480a2815115611c0e57506103609482915190845af4903d15611c05573d611be981612d22565b90611bf76040519283612cff565b81528581943d92013e614657565b60609250614657565b94505050505034611c1d575080f35b63b398979f60e01b8152600490fd5b604051634c9c8ce360e01b815260048101849052fd5b60405190632a87526960e21b82526004820152fd5b9091508481813d8311611c7f575b611c6f8183612cff565b810103126104bc57519038611b4b565b503d611c65565b611c8f90612ca0565b610494578438611b2c565b9050876000805160206147db8339815191525416141538611adc565b5080fd5b50346103045780600319360112610304576020611cd561318c565b6040519015158152f35b50346103045760803660031901126103045780611cfa612bb3565b60443590611d06613121565b600d54604051638bef7f5b60e01b8152906001600160a01b039060209083908316818881611d388a8a60048401612db3565b03925af19182156104b1578592611d81575b50600f5416803b15610494576104689385809460405196879586948593630ac59b7b60e11b85526024359060643560048701612f4c565b945090506020843d602011611db0575b81611d9e60209383612cff565b8101031261073e578493519038611d4a565b3d9150611d91565b50346103045780600319360112610304576020600854604051908152f35b50346103045760203660031901126103045760043560075580f35b5034610304576020366003190112610304576103c060043533613e74565b503461030457606036600319011261030457611e296130e9565b806001600160a01b03611e4481611e3e612f20565b166132bd565b50611e5781611e51612f36565b16613349565b5080600f54169082549080611e6a612f20565b1690611e74612f36565b1692803b156104945784928360849260405196879586946314ce7cb160e11b86526004860152306024860152604485015260648401525af18015610489576104795750f35b5034610304578060031936011261030457600a546040516001600160a01b039091168152602090f35b50346103045780600319360112610304576020600754604051908152f35b50346103045780600319360112610304576020600354604051908152f35b5034610304576040366003190112610304576103c0611f3b612bb3565b611f436130b1565b60243590613e74565b5034610304578060031936011261030457602060405160008051602061487b8339815191528152f35b503461030457604036600319011261030457611f8f612bc9565b336001600160a01b03821603611fab5761036090600435613de3565b60405163334bd91960e11b8152600490fd5b50346103045760c036600319011261030457611fd7612bb3565b611fdf612bc9565b60443591906064356001600160401b03811161049457612003903690600401612c57565b9360a435151560a43503610cd1576120196130b1565b600354804211610d4d57600a54604051630c87400960e11b815290602090829060049082906001600160a01b03165afa8015610d0b5760ff91899161239b575b5016860361237d5761206f612097914290612dce565b6040519061207c82612cc9565b81526040519061208b82612cc9565b6301da9c008252613a9a565b906120e66040516120a781612cc9565b6120ce670de0b6b3a764000094858352604051906120c482612cc9565b6084358252613ae1565b90896040516120dc81612cc9565b5251905190612e41565b90604051916120f483612cc9565b82528281029080820484149015171561236957600491612122916040519061211b82612cc9565b8152613ae1565b600d5460405163ef4474cd60e01b81529260209184919082906001600160a01b03165afa908115610d0b578891612333575b6121669250604051916117d883612cc9565b51049360a435156123235761217c913385613b3b565b8311612311576121b491602084869360018060a01b03600d54169085604051809881958294633c37699760e21b845260048401612db3565b03925af19283156104895782936122da575b50600d546001600160a01b0316803b15610a8c5782809160246040518094819363b979dee360e01b83528a60048401525af19081156122b75783916122c6575b50506001600160a01b0316808252601060205260408220805461222a908590612e41565b905561223883600154612e41565b6001556122466113df61318c565b60018060a01b03600f54168254813b156122c2578360a4926040519687958694632101923f60e11b86526004860152602485015288604485015282606485015260848401525af180156122b7576122a3575b602082604051908152f35b6122ad8391612ca0565b611cb65781612298565b6040513d85823e3d90fd5b8380fd5b6122cf90612ca0565b611cb6578138612206565b915091506020813d602011612309575b816122f760209383612cff565b8101031261073e5783905191386121c6565b3d91506122ea565b604051633a23d82560e01b8152600490fd5b61232e918480613b3b565b61217c565b90506020823d602011612361575b8161234e60209383612cff565b8101031261073e57612166915190612154565b3d9150612341565b634e487b7160e01b88526011600452602488fd5b60405163dd23c3ad60e01b81528061239760048201612eb7565b0390fd5b6123b4915060203d6020116109e7576109d98183612cff565b38612059565b5034610304576040366003190112610304576024356001600160401b038111611cb6576123eb903690600401612c57565b600e5460405163056a8b5d60e21b815233600482015290602090829060249082906001600160a01b03165afa90811561248557849161244b575b5015612439576103c0916004353333613768565b604051631cbdffd960e11b8152600490fd5b90506020813d60201161247d575b8161246660209383612cff565b810103126122c25761247790612e91565b38612425565b3d9150612459565b6040513d86823e3d90fd5b503461030457604036600319011261030457806124ab612bb3565b6024356124b6613079565b600c546009546001600160a01b0391908216908216803b15610cd1578386916124f7938360405180968195829463109c8cf960e11b84528c60048501612e6f565b03925af19081156104b157859161253e575b5050600f541690835491803b1561049457610468938580946040519687958694859363069d498b60e51b855260048501612e4e565b61254790612ca0565b6104ac578338612509565b503461030457604036600319011261030457610360600435612572612bc9565b9080845260008051602061489b8339815191526020526125986001604086200154613159565b6136f3565b5034610304578060031936011261030457602060405160008051602061479b8339815191528152f35b5034610304576020366003190112610304576020906040906001600160a01b036125ee612bb3565b168152601083522054604051908152f35b5034610304578060031936011261030457600e546040516001600160a01b039091168152602090f35b50346103045760203660031901126103045760016040602092600435815260008051602061489b8339815191528452200154604051908152f35b5034610304578060031936011261030457602060405160008051602061485b8339815191528152f35b5034610304578060031936011261030457600b546040516001600160a01b039091168152602090f35b5034610304578060031936011261030457602060405160008051602061473b8339815191528152f35b5034610304576040366003190112610304576126f7612bb3565b3360009081526000805160206146db833981519152602090815260409091205490926024359290916000805160206147fb8339815191529060ff16156103645750600354421061296857600454421015612956576001600160a01b038181168084526010808752604085205491939091861061290f57670de0b6b3a7640000955b8486528288526040862080548083111561287f575050508385528187526127a56040862054600154612dce565b6001558385528187526127be6040862054600254612e41565b60025582600f5416855491858752838952604087205492823b1561073a579161280293918880946040519687958694859363380d921960e01b855260048501612e4e565b03925af180156104b15790859161286b575b5083905285528260408120555b61282c6113df61318c565b600b541690813b15610a8c5782916024839260405194859384926364deb92b60e11b845260048401525af1801561048957610cbd575050604051908152f35b61287490612ca0565b6122c2578338612814565b8294509161288d9192612dce565b905561289b82600154612dce565b6001556128aa82600254612e41565b60025582600f5416908554823b156104bc57916128e293918780946040519687958694859363380d921960e01b855260048501612e4e565b03925af18015612485579084916128fb575b5050612821565b61290490612ca0565b610a8c5782386128f4565b670de0b6b3a764000080870290878204148715171561294257848652828852604086205461293c91612e21565b95612778565b634e487b7160e01b86526011600452602486fd5b6040516366694fe960e11b8152600490fd5b60405163794150ab60e11b8152600490fd5b50346103045780600319360112610304576020600554604051908152f35b50346103045780600319360112610304576020600454604051908152f35b5034610304576129c536612c22565b9290916129d0613041565b60018060a01b039081600d5416936040518095637acdda2360e11b8252818681612a0160209b8c9760048401612db3565b03925af19384156122b7578394612a73575b5016908181526010845260408120548311612a615760409181526010845220612a3d828254612dce565b9055612a4b81600154612dce565b600155612a596113df61318c565b604051908152f35b6040516305e5c1fd60e51b8152600490fd5b9093508481813d8311612a9b575b612a8b8183612cff565b8101031261073e57519238612a13565b503d612a81565b503461030457602036600319011261030457612abc612bb3565b612ac4613009565b600f546001600160a01b0390811691839190833b15610a8c5760449083604051958694859363b3c2d50b60e01b85523060048601521660248401525af1801561048957612b0f575080f35b6103c090612ca0565b503461030457806003193601126103045760206040516000805160206148db8339815191528152f35b50346103045760203660031901126103045760043563ffffffff60e01b8116809103611cb657602090637965db0b60e01b8114908115612b87575b506040519015158152f35b6301ffc9a760e01b14905082612b7c565b50346103045780600319360112610304576020611cd5612f8c565b600435906001600160a01b038216820361073e57565b602435906001600160a01b038216820361073e57565b606435906001600160a01b038216820361073e57565b60a435906001600160a01b038216820361073e57565b61010435906001600160a01b038216820361073e57565b606090600319011261073e576001600160a01b0390600435828116810361073e5791602435908116810361073e579060443590565b9181601f8401121561073e578235916001600160401b03831161073e576020808501948460051b01011161073e57565b3461073e57602036600319011261073e57600435600255005b6001600160401b038111612cb357604052565b634e487b7160e01b600052604160045260246000fd5b602081019081106001600160401b03821117612cb357604052565b604081019081106001600160401b03821117612cb357604052565b601f909101601f19168101906001600160401b03821190821017612cb357604052565b6001600160401b038111612cb357601f01601f191660200190565b6020808252825181830181905290939260005b828110612d7257505060409293506000838284010152601f8019910116010190565b818101860151848201604001528501612d50565b9181601f8401121561073e578235916001600160401b03831161073e576020838186019501011161073e57565b6001600160a01b039091168152602081019190915260400190565b91908203918211612ddb57565b634e487b7160e01b600052601160045260246000fd5b15612df857565b634e487b7160e01b600052600160045260246000fd5b81810292918115918404141715612ddb57565b8115612e2b570490565b634e487b7160e01b600052601260045260246000fd5b91908201809211612ddb57565b9081526001600160a01b039091166020820152604081019190915260600190565b6001600160a01b03918216815291166020820152604081019190915260600190565b5190811515820361073e57565b9081602091031261073e575160ff8116810361073e5790565b60a09060208152604260208201527f436f6c6c61746572616c20416d6f756e7473206172726179206e6f742073616d60408201527f65206c656e67746820617320636f6c6c61746572616c20746f6b656e73206c696060820152611cdd60f21b60808201520190565b6044356001600160a01b038116810361073e5790565b6004356001600160a01b038116810361073e5790565b9192608093969594919660a0840197845260018060a01b03166020840152604083015260608201520152565b51906001600160a01b038216820361073e57565b60075480612fca5750612fa460015460025490612e41565b60125490818110612fc15790612fb991612dce565b600854101590565b612fb991612dce565b612fef670de0b6b3a76400009160405190612fe482612cc9565b81526012549061460e565b510460025481811015600014612fc15790612fb991612dce565b3360009081526000805160206148fb833981519152602052604090205460008051602061473b8339815191529060ff16156103645750565b3360009081526000805160206146fb833981519152602052604090205460008051602061475b8339815191529060ff16156103645750565b33600090815260008051602061481b833981519152602052604090205460008051602061487b8339815191529060ff16156103645750565b3360009081526000805160206148bb833981519152602052604090205460008051602061483b8339815191529060ff16156103645750565b3360009081526000805160206147bb833981519152602052604090205460008051602061479b8339815191529060ff16156103645750565b33600090815260008051602061471b833981519152602052604090205460008051602061485b8339815191529060ff16156103645750565b8060005260008051602061489b83398151915260205260406000203360005260205260ff60406000205416156103645750565b6007548061322b575060046131a660015460025490612e41565b600d5460405163391fa71560e11b81529260209184919082906001600160a01b03165afa91821561321f576000926131eb575b50818110612fc15790612fb991612dce565b90916020823d602011613217575b8161320660209383612cff565b8101031261030457505190386131d9565b3d91506131f9565b6040513d6000823e3d90fd5b6040519061323882612cc9565b8152600d5460405163391fa71560e11b815290602090829060049082906001600160a01b03165afa90811561321f57600091613283575b50612fef90670de0b6b3a76400009261460e565b90506020813d6020116132b5575b8161329e60209383612cff565b8101031261073e5751670de0b6b3a764000061326f565b3d9150613291565b6001600160a01b0316600081815260008051602061481b833981519152602052604081205490919060008051602061487b8339815191529060008051602061489b8339815191529060ff16613343578184526020526040832082845260205260408320600160ff198254161790556000805160206146bb833981519152339380a4600190565b50505090565b6001600160a01b0316600081815260008051602061471b833981519152602052604081205490919060008051602061485b8339815191529060008051602061489b8339815191529060ff16613343578184526020526040832082845260205260408320600160ff198254161790556000805160206146bb833981519152339380a4600190565b6001600160a01b031660008181526000805160206147bb833981519152602052604081205490919060008051602061479b8339815191529060008051602061489b8339815191529060ff16613343578184526020526040832082845260205260408320600160ff198254161790556000805160206146bb833981519152339380a4600190565b6001600160a01b031660008181526000805160206148fb833981519152602052604081205490919060008051602061473b8339815191529060008051602061489b8339815191529060ff16613343578184526020526040832082845260205260408320600160ff198254161790556000805160206146bb833981519152339380a4600190565b6001600160a01b031660008181526000805160206146fb833981519152602052604081205490919060008051602061475b8339815191529060008051602061489b8339815191529060ff16613343578184526020526040832082845260205260408320600160ff198254161790556000805160206146bb833981519152339380a4600190565b6001600160a01b0316600081815260008051602061477b83398151915260205260408120549091906000805160206148db8339815191529060008051602061489b8339815191529060ff16613343578184526020526040832082845260205260408320600160ff198254161790556000805160206146bb833981519152339380a4600190565b6001600160a01b031660008181526000805160206148bb833981519152602052604081205490919060008051602061483b8339815191529060008051602061489b8339815191529060ff16613343578184526020526040832082845260205260408320600160ff198254161790556000805160206146bb833981519152339380a4600190565b6001600160a01b031660008181526000805160206146db83398151915260205260408120549091906000805160206147fb8339815191529060008051602061489b8339815191529060ff16613343578184526020526040832082845260205260408320600160ff198254161790556000805160206146bb833981519152339380a4600190565b9060009180835260008051602061489b83398151915280602052604084209260018060a01b03169283855260205260ff60408520541615600014613343578184526020526040832082845260205260408320600160ff198254161790556000805160206146bb833981519152339380a4600190565b90929192600354946000954211610d4d57600a5460408051630c87400960e11b815290956020946001600160a01b039460049490939087908290879082908a165afa9081156139b2579060ff918c91613a7d575b50168303613a6557906137d0929187613b3b565b8611613a5757670de0b6b3a764000061381e87610ba261380f6137f542600554612dce565b8a519061380182612cc9565b81528a519061208b82612cc9565b6006548a519061211b82612cc9565b5104918161382c8489612dce565b9782600d5416908684600e54168a5194858092633800918160e21b82525afa9283156139b2578b93613a20575b50868b8a51938480928161387b8c633c37699760e21b9a8b84528d8401612db3565b03925af19182156139b2578a8c899281956139eb575b506138af9587600d5416918d518098819582948352338d8401612db3565b03925af19283156139b2578b936139bc575b5083600d541690813b15611131578b91602483928c51948593849263b979dee360e01b84528b8401525af180156139b257613998575b5060109161390491612e41565b948287168a5252858820613919858254612e41565b905561392784600154612e41565b6001556139356113df61318c565b600f541692875492843b15610a88579161396a899695949392879389519a8b9889978896632101923f60e11b88528701612f4c565b03925af190811561398f575061397e575050565b6139888291612ca0565b6103045750565b513d84823e3d90fd5b91613904919a6139a9601094612ca0565b9a9150916138f7565b89513d8d823e3d90fd5b9092508681813d83116139e4575b6139d48183612cff565b810103126106e0575191386138c1565b503d6139ca565b939450505081813d8311613a19575b613a048183612cff565b810103126106e0575190868a8c6138af613891565b503d6139fa565b9092508681813d8311613a50575b613a388183612cff565b810103126106e057613a4990612f78565b9138613859565b503d613a2e565b8451633a23d82560e01b8152fd5b875163dd23c3ad60e01b815280612397818701612eb7565b613a949150883d8a116109e7576109d98183612cff565b386137bc565b6000604051613aa881612cc9565b5251670de0b6b3a764000090818102918183041490151715612ddb57613acf915190612e21565b60405190613adc82612cc9565b815290565b670de0b6b3a764000091613b07916000604051613afd81612cc9565b5251905190612e0e565b0460405190613adc82612cc9565b9190811015613b255760051b0190565b634e487b7160e01b600052603260045260246000fd5b909193926000946000935b828510613b54575050505050565b909192939560018060a01b03600a541660405163172c48c760e01b8152886004820152602081602481855afa90811561321f57600091613da9575b50613b9b898787613b15565b35823b1561073e57604051637e79f4f160e01b81526001600160a01b03808a166004830152868116602483015290921660448301526064820152906000908290608490829084905af1801561321f57613d9a575b50600a5460405163172c48c760e01b8152600481018990526001600160a01b0390911690602081602481855afa90811561321f57600091613d58575b50602090613c5c92613c3e8b8989613b15565b359160405180958194829363067af01d60e41b845260048401612db3565b03915afa801561321f57600090613d17575b600d5460405163ef4474cd60e01b81529250602090839060049082906001600160a01b03165afa91821561321f57600092613cd9575b5091670de0b6b3a7640000613cc6613cce93600195604051916117d883612cc9565b510490612e41565b960193929190613b46565b9150916020823d602011613d0f575b81613cf560209383612cff565b8101031261073e5790519091670de0b6b3a7640000613ca4565b3d9150613ce8565b506020813d602011613d50575b81613d3160209383612cff565b8101031261073e57604051600491613d4882612cc9565b518152613c6e565b3d9150613d24565b90506020813d602011613d92575b81613d7360209383612cff565b8101031261073e57613c5c91613d8a602092612f78565b915091613c2b565b3d9150613d66565b613da390612ca0565b38613bef565b90506020813d602011613ddb575b81613dc460209383612cff565b8101031261073e57613dd590612f78565b38613b8f565b3d9150613db7565b9060009180835260008051602061489b83398151915280602052604084209260018060a01b03169283855260205260ff60408520541660001461334357818452602052604083208284526020526040832060ff1981541690557ff6391f5c32d9c69d2a47ea670b442974b53935d1edc7fd64eb21e047a839171b339380a4600190565b604d8111612ddb57600a0a90565b919091600492835491600092421015614238578460018060a01b038083168086526020906010825260409586882054156142285782846009541688519b8c809263313ce56760e01b82525afa998a1561421e57889a6141ff575b50613ed8866144d8565b998a156141ef5760ff166012039960128b116141dc5785613f01613efb8d613e66565b83612e0e565b895190613f0d82612cc9565b81528587600d54168b519384809263ef4474cd60e01b82525afa9182156141d2578b926141a1575b509b613f57613f50613f5d938d9e9f8d51916117d883612cc9565b5191613e66565b90612e21565b8083101561403f575050613f8d839185600d54169089519a8b80948193637acdda2360e11b83528c8c8401612db3565b03925af1968715614035578897614003575b5090601091885252838620613fb5868254612dce565b9055613fc385600154612dce565b600155613fd16113df61318c565b600f541690855490823b156104bc5790868094939261396a875198899687958694630190d5cf60e01b86528501612e4e565b918091975082813d831161402e575b61401c8183612cff565b8101031261073e579051956010613f9f565b503d614012565b86513d8a823e3d90fd5b9150929394975061405583600197939754612dce565b6001558589526010845286892061406d848254612dce565b905584600d5416803b15610a845761409e918a9184838c8c5196879586948593632770a7eb60e21b85528401612db3565b03925af1801561419757614184575b506140b96113df61318c565b83600f54168854813b15610a845790899291838a6140ea8b5197889687958694630190d5cf60e01b86528501612e4e565b03925af1801561417a57908791614166575b50908360109252528285205415614115575b5050505050565b600a541692833b1561049457906024859283855196879485936312a9006960e01b85528401525af190811561398f5750614152575b80808061410e565b61415c8291612ca0565b610304578061414a565b61416f90612ca0565b610cd15785386140fc565b85513d89823e3d90fd5b61419090989198612ca0565b96386140ad565b87513d8b823e3d90fd5b9091508581813d83116141cb575b6141b98183612cff565b810103126106e0575190613f57613f35565b503d6141af565b8a513d8d823e3d90fd5b634e487b7160e01b895260118652602489fd5b87516346696d1960e11b81528690fd5b614217919a50833d85116109e7576109d98183612cff565b9838613ece565b87513d8a823e3d90fd5b865163baca79c960e01b81528590fd5b6040516366694fe960e11b81528590fd5b9060009181156143b25760049081544210156143a2576001600160a01b03818116808652601060205260408087205490949291901561439257600019861461434257614294846144d8565b8611614332576142a586338661440a565b808752601060205284872054156142ea575b50600f541690855490823b156104bc5790868094939261396a875198899687958694632df248c560e11b86528501612e4e565b81600a541690813b1561073a57879160248392885194859384926312a9006960e01b8452898401525af1801561417a57156142b75761432b90969196612ca0565b94386142b7565b84516305e5c1fd60e51b81528390fd5b845163dd23c3ad60e01b81526020818501526024808201527f7265707572636861736520616d6f756e742063616e6e6f742062652075696e74604482015263040dac2f60e31b6064820152608490fd5b845163baca79c960e01b81528390fd5b506040516366694fe960e11b8152fd5b60405163dd23c3ad60e01b815260206004820152600b60248201526a1e995c9bc8185b5bdd5b9d60aa1b6044820152606490fd5b909493926060926080830196835260018060a01b0316602083015260408201520152565b6001600160a01b0390811660008181526010602052604081205490949391908411612a61578452601060205260408420614445848254612dce565b905561445383600154612dce565b60015561446283600254612e41565b60025581600c5416916009541690823b1561049457918493918461449e96946040519788958694859363049f2a5160e21b855260048501612e6f565b03925af19081156144cc57506144bd575b506144bb6113df61318c565b565b6144c690612ca0565b386144af565b604051903d90823e3d90fd5b60009060018060a01b0380600b541692608060409360248551809581936334e6c77160e01b835216978860048301525afa91821561460257819261456f575b50506020810151908115908115614561575b501561455b57506000915b600052601060205260002054908082106145545761455191612dce565b90565b5050600090565b91614534565b606091500151151538614529565b9091506080813d6080116145fa575b8161458b60809383612cff565b81010312611cb65782519160808301906001600160401b038211848310176145e657506145da9160609185526145c081612f78565b845260208101516020850152848101518585015201612e91565b60608201523880614517565b634e487b7160e01b81526041600452602490fd5b3d915061457e565b508251903d90823e3d90fd5b90613acf91600060405161462181612cc9565b5251612e0e565b60ff60008051602061491b8339815191525460401c161561464557565b604051631afcd79f60e31b8152600490fd5b9061467e575080511561466c57805190602001fd5b60405163d6bda27560e01b8152600490fd5b815115806146b1575b61468f575090565b604051639996b31560e01b81526001600160a01b039091166004820152602490fd5b50803b1561468756fe2f8788117e7eff1d82e926ec794901d17c78024a50270940304540a733656f0de0fa667d5da66691d383b7f9adac3d76155de839dedfa082769d2d0b3e8062125916e83be0b08eb94c22fafcbdcc8b65853bb5980337f0cb6b02ef0337d79d0b1ee4daa69416528fc5e0ebd2dd59c552d64fe042e5e30bdb403814fc39cf744e793a6c9b7e0a9549c74edc2f9ae0dc50903dfaa9a56fb0116b27a8c71de3e2c6413cc8bb35fe129dacd3dfaae80d6d4c5d313f64cee9dd6712e7ca52e38573a9d7a4b94e3999c665472d525c803b137e79362305144db4ed5b3b50836858e97a30d41a597cac127d8249d31298b50e481ee82c3f4a49ff93c76a22735aa9f3ad44fa5399874b75da801cb431822b6afcadb876f84eb39d7f05bf697e94b4484e360894a13ba1a3210667c828492db98dca3e2076cc3735a920a3ca505d382bbcf4b6b486426e3c004413defb7013cd482f29189a98e074f1c202b2ac26536bb28ba309f7c97dad724319b8727ac7a1b9dff7d9f9f8b4ce23cf917c51e66066cbc36a8568220526774f62a808c5b8dd8b7191b32206f87b2bfd114958435899631d693f62a755e2b3c6494da41af454605b9006057cb3c79b6adda1378f2a50a76e14a979b95b01beecd617807f3738f4e067938da99755b16afdcf7148d313b702dd7bc7dec4dceedda775e58dd541e08a116c6c53815c0bd028192f7b62680071dad3b8d800ed6b81a4c9f84973579b8b42e673b9a0771be09894ef8040dd786e3cc031d23d7153f72e87cbfd113a0351c60d8ce52b8a31c944d543a384b7c90cfb002fcf8644f87ebf6cf6e31899c8d8e9f7c329b465b6e36989a958507e8bf0c57e16840df040f15088dc2f81fe391c3923bec73e23a9662efc9c229c6a00a26469706673582212209981c73f97eb9370794619bc040801122ac0bec66299dde84d069d82d714266f64736f6c63430008160033",
  "linkReferences": {},
  "deployedLinkReferences": {}
}