{
  "_format": "hh-sol-artifact-1",
  "contractName": "TestTermRepoServicer",
  "sourceName": "contracts/test/TestTermRepoServicer.sol",
  "abi": [
    {
      "inputs": [],
      "name": "AfterMaturity",
      "type": "error"
    },
    {
      "inputs": [],
      "name": "AfterRepurchaseWindow",
      "type": "error"
    },
    {
      "inputs": [],
      "name": "AlreadyTermContractPaired",
      "type": "error"
    },
    {
      "inputs": [],
      "name": "CallerNotBorrower",
      "type": "error"
    },
    {
      "inputs": [],
      "name": "EncumberedCollateralRemaining",
      "type": "error"
    },
    {
      "inputs": [],
      "name": "InsufficientCollateral",
      "type": "error"
    },
    {
      "inputs": [],
      "name": "InsufficientTermRepoTokenBalance",
      "type": "error"
    },
    {
      "inputs": [],
      "name": "InsufficientgetBorrowerRepurchaseObligation",
      "type": "error"
    },
    {
      "inputs": [
        {
          "internalType": "string",
          "name": "message",
          "type": "string"
        }
      ],
      "name": "InvalidParameters",
      "type": "error"
    },
    {
      "inputs": [],
      "name": "LockedBalanceInsufficient",
      "type": "error"
    },
    {
      "inputs": [],
      "name": "NoMintOpenExposureAccess",
      "type": "error"
    },
    {
      "inputs": [],
      "name": "NotMaturedYet",
      "type": "error"
    },
    {
      "inputs": [],
      "name": "RedemptionPeriodNotOpen",
      "type": "error"
    },
    {
      "inputs": [],
      "name": "RepurchaseAmountTooHigh",
      "type": "error"
    },
    {
      "inputs": [],
      "name": "ZeroBorrowerRepurchaseObligation",
      "type": "error"
    },
    {
      "inputs": [],
      "name": "ZeroTermRepoTokenBalance",
      "type": "error"
    },
    {
      "anonymous": false,
      "inputs": [
        {
          "indexed": false,
          "internalType": "address",
          "name": "previousAdmin",
          "type": "address"
        },
        {
          "indexed": false,
          "internalType": "address",
          "name": "newAdmin",
          "type": "address"
        }
      ],
      "name": "AdminChanged",
      "type": "event"
    },
    {
      "anonymous": false,
      "inputs": [
        {
          "indexed": true,
          "internalType": "address",
          "name": "beacon",
          "type": "address"
        }
      ],
      "name": "BeaconUpgraded",
      "type": "event"
    },
    {
      "anonymous": false,
      "inputs": [
        {
          "indexed": false,
          "internalType": "uint8",
          "name": "version",
          "type": "uint8"
        }
      ],
      "name": "Initialized",
      "type": "event"
    },
    {
      "anonymous": false,
      "inputs": [
        {
          "indexed": true,
          "internalType": "bytes32",
          "name": "role",
          "type": "bytes32"
        },
        {
          "indexed": true,
          "internalType": "bytes32",
          "name": "previousAdminRole",
          "type": "bytes32"
        },
        {
          "indexed": true,
          "internalType": "bytes32",
          "name": "newAdminRole",
          "type": "bytes32"
        }
      ],
      "name": "RoleAdminChanged",
      "type": "event"
    },
    {
      "anonymous": false,
      "inputs": [
        {
          "indexed": true,
          "internalType": "bytes32",
          "name": "role",
          "type": "bytes32"
        },
        {
          "indexed": true,
          "internalType": "address",
          "name": "account",
          "type": "address"
        },
        {
          "indexed": true,
          "internalType": "address",
          "name": "sender",
          "type": "address"
        }
      ],
      "name": "RoleGranted",
      "type": "event"
    },
    {
      "anonymous": false,
      "inputs": [
        {
          "indexed": true,
          "internalType": "bytes32",
          "name": "role",
          "type": "bytes32"
        },
        {
          "indexed": true,
          "internalType": "address",
          "name": "account",
          "type": "address"
        },
        {
          "indexed": true,
          "internalType": "address",
          "name": "sender",
          "type": "address"
        }
      ],
      "name": "RoleRevoked",
      "type": "event"
    },
    {
      "anonymous": false,
      "inputs": [
        {
          "indexed": true,
          "internalType": "address",
          "name": "implementation",
          "type": "address"
        }
      ],
      "name": "Upgraded",
      "type": "event"
    },
    {
      "inputs": [],
      "name": "ADMIN_ROLE",
      "outputs": [
        {
          "internalType": "bytes32",
          "name": "",
          "type": "bytes32"
        }
      ],
      "stateMutability": "view",
      "type": "function"
    },
    {
      "inputs": [],
      "name": "AUCTIONEER",
      "outputs": [
        {
          "internalType": "bytes32",
          "name": "",
          "type": "bytes32"
        }
      ],
      "stateMutability": "view",
      "type": "function"
    },
    {
      "inputs": [],
      "name": "AUCTION_LOCKER",
      "outputs": [
        {
          "internalType": "bytes32",
          "name": "",
          "type": "bytes32"
        }
      ],
      "stateMutability": "view",
      "type": "function"
    },
    {
      "inputs": [],
      "name": "COLLATERAL_MANAGER",
      "outputs": [
        {
          "internalType": "bytes32",
          "name": "",
          "type": "bytes32"
        }
      ],
      "stateMutability": "view",
      "type": "function"
    },
    {
      "inputs": [],
      "name": "DEFAULT_ADMIN_ROLE",
      "outputs": [
        {
          "internalType": "bytes32",
          "name": "",
          "type": "bytes32"
        }
      ],
      "stateMutability": "view",
      "type": "function"
    },
    {
      "inputs": [],
      "name": "DEVOPS_ROLE",
      "outputs": [
        {
          "internalType": "bytes32",
          "name": "",
          "type": "bytes32"
        }
      ],
      "stateMutability": "view",
      "type": "function"
    },
    {
      "inputs": [],
      "name": "INITIALIZER_ROLE",
      "outputs": [
        {
          "internalType": "bytes32",
          "name": "",
          "type": "bytes32"
        }
      ],
      "stateMutability": "view",
      "type": "function"
    },
    {
      "inputs": [],
      "name": "MINTER_ROLE",
      "outputs": [
        {
          "internalType": "bytes32",
          "name": "",
          "type": "bytes32"
        }
      ],
      "stateMutability": "view",
      "type": "function"
    },
    {
      "inputs": [],
      "name": "ROLLOVER_MANAGER",
      "outputs": [
        {
          "internalType": "bytes32",
          "name": "",
          "type": "bytes32"
        }
      ],
      "stateMutability": "view",
      "type": "function"
    },
    {
      "inputs": [],
      "name": "ROLLOVER_TARGET_AUCTIONEER_ROLE",
      "outputs": [
        {
          "internalType": "bytes32",
          "name": "",
          "type": "bytes32"
        }
      ],
      "stateMutability": "view",
      "type": "function"
    },
    {
      "inputs": [],
      "name": "YEAR_SECONDS",
      "outputs": [
        {
          "internalType": "uint256",
          "name": "",
          "type": "uint256"
        }
      ],
      "stateMutability": "view",
      "type": "function"
    },
    {
      "inputs": [
        {
          "internalType": "address",
          "name": "termAuction",
          "type": "address"
        }
      ],
      "name": "approveRolloverAuction",
      "outputs": [],
      "stateMutability": "nonpayable",
      "type": "function"
    },
    {
      "inputs": [
        {
          "internalType": "uint256",
          "name": "amountToBurn",
          "type": "uint256"
        }
      ],
      "name": "burnCollapseExposure",
      "outputs": [],
      "stateMutability": "nonpayable",
      "type": "function"
    },
    {
      "inputs": [
        {
          "internalType": "address",
          "name": "borrower",
          "type": "address"
        },
        {
          "internalType": "uint256",
          "name": "rolloverSettlementAmount",
          "type": "uint256"
        }
      ],
      "name": "closeExposureOnRolloverExisting",
      "outputs": [
        {
          "internalType": "uint256",
          "name": "",
          "type": "uint256"
        }
      ],
      "stateMutability": "nonpayable",
      "type": "function"
    },
    {
      "inputs": [],
      "name": "endOfRepurchaseWindow",
      "outputs": [
        {
          "internalType": "uint256",
          "name": "",
          "type": "uint256"
        }
      ],
      "stateMutability": "view",
      "type": "function"
    },
    {
      "inputs": [
        {
          "internalType": "address",
          "name": "bidder",
          "type": "address"
        },
        {
          "internalType": "uint256",
          "name": "purchasePrice",
          "type": "uint256"
        },
        {
          "internalType": "uint256",
          "name": "repurchasePrice",
          "type": "uint256"
        },
        {
          "internalType": "address[]",
          "name": "collateralTokens",
          "type": "address[]"
        },
        {
          "internalType": "uint256[]",
          "name": "collateralAmounts",
          "type": "uint256[]"
        },
        {
          "internalType": "uint256",
          "name": "dayCountFractionMantissa",
          "type": "uint256"
        }
      ],
      "name": "fulfillBid",
      "outputs": [],
      "stateMutability": "nonpayable",
      "type": "function"
    },
    {
      "inputs": [
        {
          "internalType": "address",
          "name": "offeror",
          "type": "address"
        },
        {
          "internalType": "uint256",
          "name": "purchasePrice",
          "type": "uint256"
        },
        {
          "internalType": "uint256",
          "name": "repurchasePrice",
          "type": "uint256"
        },
        {
          "internalType": "bytes32",
          "name": "offerId",
          "type": "bytes32"
        }
      ],
      "name": "fulfillOffer",
      "outputs": [],
      "stateMutability": "nonpayable",
      "type": "function"
    },
    {
      "inputs": [
        {
          "internalType": "address",
          "name": "borrower",
          "type": "address"
        }
      ],
      "name": "getBorrowerRepurchaseObligation",
      "outputs": [
        {
          "internalType": "uint256",
          "name": "",
          "type": "uint256"
        }
      ],
      "stateMutability": "view",
      "type": "function"
    },
    {
      "inputs": [
        {
          "internalType": "bytes32",
          "name": "role",
          "type": "bytes32"
        }
      ],
      "name": "getRoleAdmin",
      "outputs": [
        {
          "internalType": "bytes32",
          "name": "",
          "type": "bytes32"
        }
      ],
      "stateMutability": "view",
      "type": "function"
    },
    {
      "inputs": [
        {
          "internalType": "address",
          "name": "authedUser",
          "type": "address"
        }
      ],
      "name": "grantMintExposureAccess",
      "outputs": [],
      "stateMutability": "nonpayable",
      "type": "function"
    },
    {
      "inputs": [
        {
          "internalType": "bytes32",
          "name": "role",
          "type": "bytes32"
        },
        {
          "internalType": "address",
          "name": "account",
          "type": "address"
        }
      ],
      "name": "grantRole",
      "outputs": [],
      "stateMutability": "nonpayable",
      "type": "function"
    },
    {
      "inputs": [
        {
          "internalType": "bytes32",
          "name": "role",
          "type": "bytes32"
        },
        {
          "internalType": "address",
          "name": "account",
          "type": "address"
        }
      ],
      "name": "hasRole",
      "outputs": [
        {
          "internalType": "bool",
          "name": "",
          "type": "bool"
        }
      ],
      "stateMutability": "view",
      "type": "function"
    },
    {
      "inputs": [
        {
          "internalType": "string",
          "name": "termRepoId_",
          "type": "string"
        },
        {
          "internalType": "uint256",
          "name": "maturityTimestamp_",
          "type": "uint256"
        },
        {
          "internalType": "uint256",
          "name": "repurchaseWindow_",
          "type": "uint256"
        },
        {
          "internalType": "uint256",
          "name": "redemptionBuffer_",
          "type": "uint256"
        },
        {
          "internalType": "uint256",
          "name": "servicingFee_",
          "type": "uint256"
        },
        {
          "internalType": "address",
          "name": "purchaseToken_",
          "type": "address"
        },
        {
          "internalType": "contract ITermController",
          "name": "termController_",
          "type": "address"
        },
        {
          "internalType": "contract ITermEventEmitter",
          "name": "emitter_",
          "type": "address"
        },
        {
          "internalType": "address",
          "name": "termInitializer_",
          "type": "address"
        }
      ],
      "name": "initialize",
      "outputs": [],
      "stateMutability": "nonpayable",
      "type": "function"
    },
    {
      "inputs": [],
      "name": "isTermRepoBalanced",
      "outputs": [
        {
          "internalType": "bool",
          "name": "",
          "type": "bool"
        }
      ],
      "stateMutability": "view",
      "type": "function"
    },
    {
      "inputs": [
        {
          "internalType": "address",
          "name": "borrower",
          "type": "address"
        },
        {
          "internalType": "address",
          "name": "liquidator",
          "type": "address"
        },
        {
          "internalType": "uint256",
          "name": "amountToCover",
          "type": "uint256"
        }
      ],
      "name": "liquidatorCoverExposure",
      "outputs": [],
      "stateMutability": "nonpayable",
      "type": "function"
    },
    {
      "inputs": [
        {
          "internalType": "address",
          "name": "borrower",
          "type": "address"
        },
        {
          "internalType": "address",
          "name": "liquidator",
          "type": "address"
        },
        {
          "internalType": "uint256",
          "name": "amountOfRepoToken",
          "type": "uint256"
        }
      ],
      "name": "liquidatorCoverExposureWithRepoToken",
      "outputs": [
        {
          "internalType": "uint256",
          "name": "",
          "type": "uint256"
        }
      ],
      "stateMutability": "nonpayable",
      "type": "function"
    },
    {
      "inputs": [
        {
          "internalType": "address",
          "name": "offeror",
          "type": "address"
        },
        {
          "internalType": "uint256",
          "name": "amount",
          "type": "uint256"
        }
      ],
      "name": "lockOfferAmount",
      "outputs": [],
      "stateMutability": "nonpayable",
      "type": "function"
    },
    {
      "inputs": [],
      "name": "maturityTimestamp",
      "outputs": [
        {
          "internalType": "uint256",
          "name": "",
          "type": "uint256"
        }
      ],
      "stateMutability": "view",
      "type": "function"
    },
    {
      "inputs": [
        {
          "internalType": "uint256",
          "name": "amount",
          "type": "uint256"
        },
        {
          "internalType": "uint256[]",
          "name": "collateralAmounts",
          "type": "uint256[]"
        }
      ],
      "name": "mintOpenExposure",
      "outputs": [],
      "stateMutability": "nonpayable",
      "type": "function"
    },
    {
      "inputs": [
        {
          "internalType": "address",
          "name": "borrower",
          "type": "address"
        },
        {
          "internalType": "uint256",
          "name": "purchasePrice",
          "type": "uint256"
        },
        {
          "internalType": "uint256",
          "name": "repurchasePrice",
          "type": "uint256"
        },
        {
          "internalType": "address",
          "name": "previousTermRepoLocker",
          "type": "address"
        },
        {
          "internalType": "uint256",
          "name": "dayCountFractionMantissa",
          "type": "uint256"
        }
      ],
      "name": "openExposureOnRolloverNew",
      "outputs": [
        {
          "internalType": "uint256",
          "name": "",
          "type": "uint256"
        }
      ],
      "stateMutability": "nonpayable",
      "type": "function"
    },
    {
      "inputs": [
        {
          "internalType": "address",
          "name": "termRepoLocker_",
          "type": "address"
        },
        {
          "internalType": "address",
          "name": "termRepoCollateralManager_",
          "type": "address"
        },
        {
          "internalType": "address",
          "name": "termRepoToken_",
          "type": "address"
        },
        {
          "internalType": "address",
          "name": "termAuctionOfferLocker_",
          "type": "address"
        },
        {
          "internalType": "address",
          "name": "termAuction_",
          "type": "address"
        },
        {
          "internalType": "address",
          "name": "rolloverManager_",
          "type": "address"
        },
        {
          "internalType": "address",
          "name": "devopsMultisig_",
          "type": "address"
        },
        {
          "internalType": "address",
          "name": "adminWallet_",
          "type": "address"
        },
        {
          "internalType": "string",
          "name": "version_",
          "type": "string"
        }
      ],
      "name": "pairTermContracts",
      "outputs": [],
      "stateMutability": "nonpayable",
      "type": "function"
    },
    {
      "inputs": [],
      "name": "proxiableUUID",
      "outputs": [
        {
          "internalType": "bytes32",
          "name": "",
          "type": "bytes32"
        }
      ],
      "stateMutability": "view",
      "type": "function"
    },
    {
      "inputs": [],
      "name": "purchaseToken",
      "outputs": [
        {
          "internalType": "address",
          "name": "",
          "type": "address"
        }
      ],
      "stateMutability": "view",
      "type": "function"
    },
    {
      "inputs": [
        {
          "internalType": "address",
          "name": "redeemer",
          "type": "address"
        },
        {
          "internalType": "uint256",
          "name": "amountToRedeem",
          "type": "uint256"
        }
      ],
      "name": "redeemTermRepoTokens",
      "outputs": [],
      "stateMutability": "nonpayable",
      "type": "function"
    },
    {
      "inputs": [],
      "name": "redemptionTimestamp",
      "outputs": [
        {
          "internalType": "uint256",
          "name": "",
          "type": "uint256"
        }
      ],
      "stateMutability": "view",
      "type": "function"
    },
    {
      "inputs": [
        {
          "internalType": "bytes32",
          "name": "role",
          "type": "bytes32"
        },
        {
          "internalType": "address",
          "name": "account",
          "type": "address"
        }
      ],
      "name": "renounceRole",
      "outputs": [],
      "stateMutability": "nonpayable",
      "type": "function"
    },
    {
      "inputs": [
        {
          "components": [
            {
              "internalType": "contract TermAuction",
              "name": "auction",
              "type": "address"
            },
            {
              "internalType": "contract ITermAuctionBidLocker",
              "name": "termAuctionBidLocker",
              "type": "address"
            },
            {
              "internalType": "contract ITermAuctionOfferLocker",
              "name": "termAuctionOfferLocker",
              "type": "address"
            }
          ],
          "internalType": "struct TermAuctionGroup",
          "name": "termAuctionGroup",
          "type": "tuple"
        }
      ],
      "name": "reopenToNewAuction",
      "outputs": [],
      "stateMutability": "nonpayable",
      "type": "function"
    },
    {
      "inputs": [
        {
          "internalType": "bytes32",
          "name": "role",
          "type": "bytes32"
        },
        {
          "internalType": "address",
          "name": "account",
          "type": "address"
        }
      ],
      "name": "revokeRole",
      "outputs": [],
      "stateMutability": "nonpayable",
      "type": "function"
    },
    {
      "inputs": [],
      "name": "servicingFee",
      "outputs": [
        {
          "internalType": "uint256",
          "name": "",
          "type": "uint256"
        }
      ],
      "stateMutability": "view",
      "type": "function"
    },
    {
      "inputs": [
        {
          "internalType": "uint256",
          "name": "amount",
          "type": "uint256"
        }
      ],
      "name": "setPurchaseCurrencyHeld",
      "outputs": [],
      "stateMutability": "nonpayable",
      "type": "function"
    },
    {
      "inputs": [],
      "name": "shortfallHaircutMantissa",
      "outputs": [
        {
          "internalType": "uint256",
          "name": "",
          "type": "uint256"
        }
      ],
      "stateMutability": "view",
      "type": "function"
    },
    {
      "inputs": [
        {
          "internalType": "uint256",
          "name": "amount",
          "type": "uint256"
        }
      ],
      "name": "submitRepurchasePayment",
      "outputs": [],
      "stateMutability": "nonpayable",
      "type": "function"
    },
    {
      "inputs": [
        {
          "internalType": "bytes4",
          "name": "interfaceId",
          "type": "bytes4"
        }
      ],
      "name": "supportsInterface",
      "outputs": [
        {
          "internalType": "bool",
          "name": "",
          "type": "bool"
        }
      ],
      "stateMutability": "view",
      "type": "function"
    },
    {
      "inputs": [],
      "name": "termRepoCollateralManager",
      "outputs": [
        {
          "internalType": "contract ITermRepoCollateralManager",
          "name": "",
          "type": "address"
        }
      ],
      "stateMutability": "view",
      "type": "function"
    },
    {
      "inputs": [],
      "name": "termRepoId",
      "outputs": [
        {
          "internalType": "bytes32",
          "name": "",
          "type": "bytes32"
        }
      ],
      "stateMutability": "view",
      "type": "function"
    },
    {
      "inputs": [],
      "name": "termRepoLocker",
      "outputs": [
        {
          "internalType": "contract ITermRepoLocker",
          "name": "",
          "type": "address"
        }
      ],
      "stateMutability": "view",
      "type": "function"
    },
    {
      "inputs": [],
      "name": "termRepoRolloverManager",
      "outputs": [
        {
          "internalType": "contract ITermRepoRolloverManager",
          "name": "",
          "type": "address"
        }
      ],
      "stateMutability": "view",
      "type": "function"
    },
    {
      "inputs": [],
      "name": "termRepoToken",
      "outputs": [
        {
          "internalType": "contract ITermRepoToken",
          "name": "",
          "type": "address"
        }
      ],
      "stateMutability": "view",
      "type": "function"
    },
    {
      "inputs": [],
      "name": "totalOutstandingRepurchaseExposure",
      "outputs": [
        {
          "internalType": "uint256",
          "name": "",
          "type": "uint256"
        }
      ],
      "stateMutability": "view",
      "type": "function"
    },
    {
      "inputs": [],
      "name": "totalRepurchaseCollected",
      "outputs": [
        {
          "internalType": "uint256",
          "name": "",
          "type": "uint256"
        }
      ],
      "stateMutability": "view",
      "type": "function"
    },
    {
      "inputs": [
        {
          "internalType": "address",
          "name": "offeror",
          "type": "address"
        },
        {
          "internalType": "uint256",
          "name": "amount",
          "type": "uint256"
        }
      ],
      "name": "unlockOfferAmount",
      "outputs": [],
      "stateMutability": "nonpayable",
      "type": "function"
    },
    {
      "inputs": [
        {
          "internalType": "address",
          "name": "upgradeAddress",
          "type": "address"
        }
      ],
      "name": "upgrade",
      "outputs": [],
      "stateMutability": "nonpayable",
      "type": "function"
    },
    {
      "inputs": [
        {
          "internalType": "address",
          "name": "newImplementation",
          "type": "address"
        }
      ],
      "name": "upgradeTo",
      "outputs": [],
      "stateMutability": "nonpayable",
      "type": "function"
    },
    {
      "inputs": [
        {
          "internalType": "address",
          "name": "newImplementation",
          "type": "address"
        },
        {
          "internalType": "bytes",
          "name": "data",
          "type": "bytes"
        }
      ],
      "name": "upgradeToAndCall",
      "outputs": [],
      "stateMutability": "payable",
      "type": "function"
    },
    {
      "inputs": [],
      "name": "version",
      "outputs": [
        {
          "internalType": "string",
          "name": "",
          "type": "string"
        }
      ],
      "stateMutability": "view",
      "type": "function"
    }
  ],
  "bytecode": "0x60a0604052306080523480156200001557600080fd5b506200002062000026565b620000e7565b600054610100900460ff1615620000935760405162461bcd60e51b815260206004820152602760248201527f496e697469616c697a61626c653a20636f6e747261637420697320696e697469604482015266616c697a696e6760c81b606482015260840160405180910390fd5b60005460ff90811614620000e5576000805460ff191660ff9081179091556040519081527f7f26b83ff96e1f2b6a682f133852f6798a09c465da95921460cefb38474024989060200160405180910390a15b565b608051614d976200011f600039600081816119e301528181611a23015281816120f70152818161213701526121af0152614d976000f3fe6080604052600436106102a05760003560e01c80634dabab1011610166578063a95c4d62116100c7578063a95c4d62146107ec578063b330db281461080d578063c023892614610825578063c99aa6781461083b578063cc5b6e4a1461085b578063d381be1714610871578063d4912c1014610891578063d5391393146108b1578063d547741f146108d3578063ec9477e1146108f3578063f87fd33a14610913578063fa19d0ed14610933578063fd5d357a1461094a578063fe05281a1461096a57600080fd5b80634dabab10146106445780634f1ef2861461065957806352d1902d1461066c57806354fd4d50146106815780635879fae9146106bb5780635c4b440e146106db5780635ca84e6e146106fc57806375b238fc1461071d578063796a44551461073f5780637e237e891461076157806391d14854146107815780639d5d2108146107a1578063a217fddf146107b7578063a22be9ca146107cc57600080fd5b806327df3d3e1161021057806327df3d3e146104925780632f2ff15d146104b457806331bb625e146104d457806332153220146104f457806333d6723e1461051457806336568abe146105345780633659cfe6146105545780633718373f146105745780633d0f31f7146105965780633dcaa6c6146105ac5780633de81dc4146105c35780634055008a146105e457806340d3da8b1461060457806347c918981461062457600080fd5b806301ffc9a7146102a557806302b65fb0146102da578063087727591461030a5780630900f0101461032c57806309aa80fc1461034c5780631320834f1461036c5780631b235437146103825780631b433b1114610399578063201a6625146103b9578063228d5cc6146103db57806323e507f714610409578063248a9ca31461042b5780632762697d1461045b575b600080fd5b3480156102b157600080fd5b506102c56102c0366004614009565b61098c565b60405190151581526020015b60405180910390f35b3480156102e657600080fd5b506102fc600080516020614d2283398151915281565b6040519081526020016102d1565b34801561031657600080fd5b5061032a610325366004614048565b6109c3565b005b34801561033857600080fd5b5061032a610347366004614074565b610ab5565b34801561035857600080fd5b506102fc610367366004614091565b610ac1565b34801561037857600080fd5b506102fc60ff5481565b34801561038e57600080fd5b506102fc6101005481565b3480156103a557600080fd5b506102fc6103b4366004614048565b610bf4565b3480156103c557600080fd5b506102fc600080516020614bfb83398151915281565b3480156103e757600080fd5b50610105546103fc906001600160a01b031681565b6040516102d191906140d2565b34801561041557600080fd5b506102fc600080516020614c9b83398151915281565b34801561043757600080fd5b506102fc6104463660046140e6565b600090815260c9602052604090206001015490565b34801561046757600080fd5b506102fc610476366004614074565b6001600160a01b0316600090815261010a602052604090205490565b34801561049e57600080fd5b506102fc600080516020614c3b83398151915281565b3480156104c057600080fd5b5061032a6104cf3660046140ff565b610f25565b3480156104e057600080fd5b5061032a6104ef366004614048565b610f4f565b34801561050057600080fd5b5061032a61050f366004614177565b61100a565b34801561052057600080fd5b5061032a61052f366004614297565b6111c7565b34801561054057600080fd5b5061032a61054f3660046140ff565b61195b565b34801561056057600080fd5b5061032a61056f366004614074565b6119d9565b34801561058057600080fd5b506102fc600080516020614d0283398151915281565b3480156105a257600080fd5b506102fc60fe5481565b3480156105b857600080fd5b506102fc6101025481565b3480156105cf57600080fd5b50610104546103fc906001600160a01b031681565b3480156105f057600080fd5b5061032a6105ff3660046142e2565b611a9e565b34801561061057600080fd5b5061032a61061f3660046140e6565b611ba7565b34801561063057600080fd5b5061032a61063f3660046142fa565b612015565b34801561065057600080fd5b506102c56120de565b61032a61066736600461437b565b6120ed565b34801561067857600080fd5b506102fc6121a2565b34801561068d57600080fd5b50604080518082018252600b81526a19195d995b1bdc1b595b9d60aa1b602082015290516102d19190614446565b3480156106c757600080fd5b5061032a6106d63660046140e6565b612250565b3480156106e757600080fd5b50610106546103fc906001600160a01b031681565b34801561070857600080fd5b50610107546103fc906001600160a01b031681565b34801561072957600080fd5b506102fc600080516020614d4283398151915281565b34801561074b57600080fd5b506102fc600080516020614c1b83398151915281565b34801561076d57600080fd5b5061032a61077c366004614048565b6123fe565b34801561078d57600080fd5b506102c561079c3660046140ff565b6125e8565b3480156107ad57600080fd5b506102fc60fc5481565b3480156107c357600080fd5b506102fc600081565b3480156107d857600080fd5b5061032a6107e7366004614479565b612613565b3480156107f857600080fd5b50610103546103fc906001600160a01b031681565b34801561081957600080fd5b506102fc6301da9c0081565b34801561083157600080fd5b506102fc60fd5481565b34801561084757600080fd5b506102fc610856366004614515565b612908565b34801561086757600080fd5b506102fc60fb5481565b34801561087d57600080fd5b5061032a61088c3660046140e6565b60fd55565b34801561089d57600080fd5b5061032a6108ac366004614567565b612b9a565b3480156108bd57600080fd5b506102fc600080516020614ce283398151915281565b3480156108df57600080fd5b5061032a6108ee3660046140ff565b612de4565b3480156108ff57600080fd5b5061032a61090e366004614091565b612e09565b34801561091f57600080fd5b5061032a61092e366004614074565b612e32565b34801561093f57600080fd5b506102fc6101015481565b34801561095657600080fd5b5061032a610965366004614074565b612ea0565b34801561097657600080fd5b506102fc600080516020614c7b83398151915281565b60006001600160e01b03198216637965db0b60e01b14806109bd57506301ffc9a760e01b6001600160e01b03198316145b92915050565b600080516020614d028339815191526109db81612ed0565b610106546101035460405163049f2a5160e21b81526001600160a01b039283169263127ca94492610a1692889290911690879060040161461d565b600060405180830381600087803b158015610a3057600080fd5b505af1158015610a44573d6000803e3d6000fd5b50506101095460fb5460405163bba53d0560e01b81526001600160a01b03909216935063bba53d059250610a7e9187908790600401614641565b600060405180830381600087803b158015610a9857600080fd5b505af1158015610aac573d6000803e3d6000fd5b50505050505050565b610abe81612eda565b50565b6000600080516020614c1b833981519152610adb81612ed0565b61010754604051637acdda2360e11b81526000916001600160a01b03169063f59bb44690610b0f9088908890600401614660565b6020604051808303816000875af1158015610b2e573d6000803e3d6000fd5b505050506040513d601f19601f82011682018060405250810190610b529190614679565b6001600160a01b038716600090815261010a6020526040902054909150811115610b8f576040516305e5c1fd60e51b815260040160405180910390fd5b6001600160a01b038616600090815261010a602052604081208054839290610bb89084906146a8565b925050819055508060fc6000828254610bd191906146a8565b90915550610bdf9050612f2b565b610beb57610beb6146bb565b95945050505050565b6000600080516020614c7b833981519152610c0e81612ed0565b60fe54421015610c315760405163794150ab60e11b815260040160405180910390fd5b60ff544210610c53576040516366694fe960e11b815260040160405180910390fd5b6001600160a01b038416600090815261010a60205260408120548410610c825750670de0b6b3a7640000610cbb565b6001600160a01b038516600090815261010a6020526040902054610cae670de0b6b3a7640000866146d1565b610cb891906146e8565b90505b6001600160a01b038516600090815261010a6020526040902054841115610ddc576001600160a01b038516600090815261010a602052604081205460fc805491929091610d099084906146a8565b90915550506001600160a01b038516600090815261010a602052604081205460fd805491929091610d3b90849061470a565b90915550506101095460fb546001600160a01b03878116600090815261010a60205260409081902054905163380d921960e01b8152919093169263380d921992610d8b9290918a91600401614641565b600060405180830381600087803b158015610da557600080fd5b505af1158015610db9573d6000803e3d6000fd5b5050506001600160a01b038616600090815261010a602052604081205550610ea5565b6001600160a01b038516600090815261010a602052604081208054869290610e059084906146a8565b925050819055508360fc6000828254610e1e91906146a8565b925050819055508360fd6000828254610e37919061470a565b90915550506101095460fb5460405163380d921960e01b81526001600160a01b039092169163380d921991610e729189908990600401614641565b600060405180830381600087803b158015610e8c57600080fd5b505af1158015610ea0573d6000803e3d6000fd5b505050505b610ead612f2b565b610eb957610eb96146bb565b610105546040516364deb92b60e11b81526001600160a01b039091169063c9bd725690610eea9088906004016140d2565b600060405180830381600087803b158015610f0457600080fd5b505af1158015610f18573d6000803e3d6000fd5b5092979650505050505050565b600082815260c96020526040902060010154610f4081612ed0565b610f4a8383613075565b505050565b600080516020614d02833981519152610f6781612ed0565b610106546101035460405163109c8cf960e11b81526001600160a01b039283169263213919f292610fa292889290911690879060040161461d565b600060405180830381600087803b158015610fbc57600080fd5b505af1158015610fd0573d6000803e3d6000fd5b50506101095460fb5460405163069d498b60e51b81526001600160a01b03909216935063d3a931609250610a7e9187908790600401614641565b600080516020614c3b83398151915261102281612ed0565b61010b5460ff161561104757604051634ce377bb60e11b815260040160405180910390fd5b61010b805460ff1916600117905561010680546001600160a01b03808e166001600160a01b03199283161790925561010480548d841690831617905561010580548984169083161790556101078054928c16929091169190911790556110bb600080516020614d0283398151915289613075565b6110d3600080516020614c9b83398151915288613075565b6110eb600080516020614d4283398151915285613075565b611103600080516020614bfb83398151915286613075565b61111b600080516020614c1b8339815191528b613075565b611133600080516020614d2283398151915287613075565b6101095460fb546101035460fe5460ff54610100546101015460405163046b6ef360e01b81526001600160a01b039788169763046b6ef39761118897909630969190921694919390928d908d9060040161471d565b600060405180830381600087803b1580156111a257600080fd5b505af11580156111b6573d6000803e3d6000fd5b505050505050505050505050505050565b336111e0600080516020614ce2833981519152826125e8565b6111fd57604051631cbdffd960e11b815260040160405180910390fd5b60fe54421115611220576040516304ff30ef60e21b815260040160405180910390fd5b61010460009054906101000a90046001600160a01b03166001600160a01b031663190e80126040518163ffffffff1660e01b8152600401602060405180830381865afa158015611274573d6000803e3d6000fd5b505050506040513d601f19601f820116820180604052508101906112989190614791565b60ff1682146113205760405163dd23c3ad60e01b815260206004820152604260248201527f436f6c6c61746572616c20416d6f756e7473206172726179206e6f742073616d60448201527f65206c656e67746820617320636f6c6c61746572616c20746f6b656e73206c696064820152611cdd60f21b608482015260a4015b60405180910390fd5b6000805b838110156115b2576101045460405163172c48c760e01b8152600481018390526001600160a01b0390911690639210632f908590839063172c48c790602401602060405180830381865afa158015611380573d6000803e3d6000fd5b505050506040513d601f19601f820116820180604052508101906113a491906147b4565b8888868181106113b6576113b66147d1565b905060200201356040518463ffffffff1660e01b81526004016113db9392919061461d565b600060405180830381600087803b1580156113f557600080fd5b505af1158015611409573d6000803e3d6000fd5b50506101045460405163172c48c760e01b81526004810185905260009350611592925061158d916001600160a01b0316906367af01d090829063172c48c790602401602060405180830381865afa158015611468573d6000803e3d6000fd5b505050506040513d601f19601f8201168201806040525081019061148c91906147b4565b8a8a8881811061149e5761149e6147d1565b905060200201356040518363ffffffff1660e01b81526004016114c2929190614660565b602060405180830381865afa1580156114df573d6000803e3d6000fd5b505050506040513d601f19601f8201168201806040525081019061150391906147e7565b604051806020016040528061010760009054906101000a90046001600160a01b03166001600160a01b031663ef4474cd6040518163ffffffff1660e01b8152600401602060405180830381865afa158015611562573d6000803e3d6000fd5b505050506040513d601f19601f820116820180604052508101906115869190614679565b90526130fb565b61313e565b905061159e818461470a565b925050806115ab90614828565b9050611324565b50808511156115d457604051633a23d82560e01b815260040160405180910390fd5b600061160b60405180602001604052804260fe546115f291906146a8565b905260408051602081019091526301da9c0081526130fb565b9050600061162a60405180602001604052806101015481525083613156565b905060006116388289613195565b90506000611646828a6146a8565b610107546101085460408051633800918160e21b815290519394506000936001600160a01b039384169363f0dda65c93169163e00246049160048083019260209291908290030181865afa1580156116a2573d6000803e3d6000fd5b505050506040513d601f19601f820116820180604052508101906116c691906147b4565b856040518363ffffffff1660e01b81526004016116e4929190614660565b6020604051808303816000875af1158015611703573d6000803e3d6000fd5b505050506040513d601f19601f820116820180604052508101906117279190614679565b61010754604051633c37699760e21b81529192506000916001600160a01b039091169063f0dda65c90611760908b908790600401614660565b6020604051808303816000875af115801561177f573d6000803e3d6000fd5b505050506040513d601f19601f820116820180604052508101906117a39190614679565b6101075460405163b979dee360e01b8152600481018e90529192506001600160a01b03169063b979dee390602401600060405180830381600087803b1580156117eb57600080fd5b505af11580156117ff573d6000803e3d6000fd5b5050505060008183611811919061470a565b6001600160a01b038a16600090815261010a602052604081208054929350839290919061183f90849061470a565b925050819055508060fc6000828254611858919061470a565b909155506118669050612f2b565b611872576118726146bb565b6101095460fb5460405160016274ee3760e01b031981526001600160a01b039092169163ff8b11c9916118af918d90879087908a90600401614841565b600060405180830381600087803b1580156118c957600080fd5b505af11580156118dd573d6000803e3d6000fd5b50506101095460fb54604051632101923f60e11b81526001600160a01b039092169350634203247e925061191b918d9089908b908890600401614841565b600060405180830381600087803b15801561193557600080fd5b505af1158015611949573d6000803e3d6000fd5b50505050505050505050505050505050565b6001600160a01b03811633146119cb5760405162461bcd60e51b815260206004820152602f60248201527f416363657373436f6e74726f6c3a2063616e206f6e6c792072656e6f756e636560448201526e103937b632b9903337b91039b2b63360891b6064820152608401611317565b6119d582826131b5565b5050565b6001600160a01b037f0000000000000000000000000000000000000000000000000000000000000000163003611a215760405162461bcd60e51b81526004016113179061486d565b7f00000000000000000000000000000000000000000000000000000000000000006001600160a01b0316611a5361321c565b6001600160a01b031614611a795760405162461bcd60e51b8152600401611317906148b9565b611a8281612eda565b60408051600080825260208201909252610abe91839190613238565b600080516020614c3b833981519152611ab681612ed0565b611add600080516020614d02833981519152611ad86060850160408601614074565b613075565b611afc600080516020614c9b833981519152611ad86020850185614074565b6101095460fb546001600160a01b039091169063299cf9629030611b266060870160408801614074565b611b336020880188614074565b6040516001600160e01b031960e087901b16815260048101949094526001600160a01b03928316602485015290821660448401521660648201526084015b600060405180830381600087803b158015611b8b57600080fd5b505af1158015611b9f573d6000803e3d6000fd5b505050505050565b60ff544210611bc9576040516366694fe960e11b815260040160405180910390fd5b33600081815261010a60205260408120549003611bf95760405163baca79c960e01b815260040160405180910390fd5b610103546040805163313ce56760e01b815290516001600160a01b0390921691600091839163313ce567916004808201926020929091908290030181865afa158015611c49573d6000803e3d6000fd5b505050506040513d601f19601f82011682018060405250810190611c6d9190614791565b60ff1690506000611c7d846133a3565b90506000611c8c8360126146a8565b611c9790600a6149e9565b611d296040518060200160405280866012611cb291906146a8565b611cbd90600a6149e9565b611cc790876146d1565b815250604051806020016040528061010760009054906101000a90046001600160a01b03166001600160a01b031663ef4474cd6040518163ffffffff1660e01b8152600401602060405180830381865afa158015611562573d6000803e3d6000fd5b51611d3491906146e8565b905080861015611e845761010754604051637acdda2360e11b81526000916001600160a01b03169063f59bb44690611d729089908b90600401614660565b6020604051808303816000875af1158015611d91573d6000803e3d6000fd5b505050506040513d601f19601f82011682018060405250810190611db59190614679565b6001600160a01b038716600090815261010a6020526040812080549293508392909190611de39084906146a8565b925050819055508060fc6000828254611dfc91906146a8565b90915550611e0a9050612f2b565b611e1657611e166146bb565b6101095460fb54604051630190d5cf60e01b81526001600160a01b0390921691630190d5cf91611e4c918a908690600401614641565b600060405180830381600087803b158015611e6657600080fd5b505af1158015611e7a573d6000803e3d6000fd5b5050505050611b9f565b8160fc6000828254611e9691906146a8565b90915550506001600160a01b038516600090815261010a602052604081208054849290611ec49084906146a8565b909155505061010754604051632770a7eb60e21b81526001600160a01b0390911690639dc29fac90611efc9088908590600401614660565b600060405180830381600087803b158015611f1657600080fd5b505af1158015611f2a573d6000803e3d6000fd5b50505050611f36612f2b565b611f4257611f426146bb565b6101095460fb54604051630190d5cf60e01b81526001600160a01b0390921691630190d5cf91611f789189908790600401614641565b600060405180830381600087803b158015611f9257600080fd5b505af1158015611fa6573d6000803e3d6000fd5b5050610104546040516312a9006960e01b81526001600160a01b0390911692506312a900699150611fdb9088906004016140d2565b600060405180830381600087803b158015611ff557600080fd5b505af1158015612009573d6000803e3d6000fd5b50505050505050505050565b600080516020614c9b83398151915261202d81612ed0565b61010754604051638bef7f5b60e01b81526000916001600160a01b031690638bef7f5b906120619089908890600401614660565b6020604051808303816000875af1158015612080573d6000803e3d6000fd5b505050506040513d601f19601f820116820180604052508101906120a49190614679565b61010954604051630ac59b7b60e11b81529192506001600160a01b03169063158b36f690611fdb9086908a908a908a908890600401614841565b60006120e8612f2b565b905090565b6001600160a01b037f00000000000000000000000000000000000000000000000000000000000000001630036121355760405162461bcd60e51b81526004016113179061486d565b7f00000000000000000000000000000000000000000000000000000000000000006001600160a01b031661216761321c565b6001600160a01b03161461218d5760405162461bcd60e51b8152600401611317906148b9565b61219682612eda565b6119d582826001613238565b6000306001600160a01b037f0000000000000000000000000000000000000000000000000000000000000000161461223d5760405162461bcd60e51b815260206004820152603860248201527f555550535570677261646561626c653a206d757374206e6f742062652063616c6044820152771b1959081d1a1c9bdd59da0819195b1959d85d1958d85b1b60421b6064820152608401611317565b50600080516020614c5b83398151915290565b60ff5433904210612274576040516366694fe960e11b815260040160405180910390fd5b6001600160a01b038116600090815261010a602052604081205490036122ad5760405163baca79c960e01b815260040160405180910390fd5b600019820361230b5760405163dd23c3ad60e01b8152602060048201526024808201527f7265707572636861736520616d6f756e742063616e6e6f742062652075696e74604482015263040dac2f60e31b6064820152608401611317565b6000612316826133a3565b905080831115612339576040516305e5c1fd60e51b815260040160405180910390fd5b61234482838561346b565b6001600160a01b038216600090815261010a602052604081205490036123c857610104546040516312a9006960e01b81526001600160a01b03909116906312a90069906123959085906004016140d2565b600060405180830381600087803b1580156123af57600080fd5b505af11580156123c3573d6000803e3d6000fd5b505050505b6101095460fb54604051632df248c560e11b81526001600160a01b0390921691635be4918a91610a7e9186908890600401614641565b61010054421161242157604051634724bbc760e11b815260040160405180910390fd5b610107546040516370a0823160e01b81526001600160a01b03909116906370a08231906124529085906004016140d2565b602060405180830381865afa15801561246f573d6000803e3d6000fd5b505050506040513d601f19601f820116820180604052508101906124939190614679565b6000036124b35760405163644d752960e01b815260040160405180910390fd5b60fd546124c29061271061470a565b61010760009054906101000a90046001600160a01b03166001600160a01b031663723f4e2a6040518163ffffffff1660e01b8152600401602060405180830381865afa158015612516573d6000803e3d6000fd5b505050506040513d601f19601f8201168201806040525081019061253a9190614679565b11612549576119d58282613586565b61010460009054906101000a90046001600160a01b03166001600160a01b031663a11d52f56040518163ffffffff1660e01b8152600401602060405180830381865afa15801561259d573d6000803e3d6000fd5b505050506040513d601f19601f820116820180604052508101906125c19190614a0a565b6125cf576119d582826137e7565b604051633eaef6d560e21b815260040160405180910390fd5b600091825260c9602090815260408084206001600160a01b0393909316845291905290205460ff1690565b600080516020614c9b83398151915261262b81612ed0565b60fe54421061264d576040516304ff30ef60e21b815260040160405180910390fd5b6001600160a01b038916600090815261010a60205260408120805489929061267690849061470a565b925050819055508660fc600082825461268f919061470a565b90915550506101045460405163578db95760e01b81526001600160a01b039091169063578db957906126cd908c908a908a908a908a90600401614a25565b600060405180830381600087803b1580156126e757600080fd5b505af11580156126fb573d6000803e3d6000fd5b50505050600061273361272d604051806020016040528086815250604051806020016040528061010154815250613156565b8a613195565b610106546101085460408051633800918160e21b815290519394506001600160a01b039283169363213919f2939092169163e0024604916004808201926020929091908290030181865afa15801561278f573d6000803e3d6000fd5b505050506040513d601f19601f820116820180604052508101906127b391906147b4565b610103546040516001600160e01b031960e085901b1681526127e492916001600160a01b031690869060040161461d565b600060405180830381600087803b1580156127fe57600080fd5b505af1158015612812573d6000803e3d6000fd5b505061010654610103546001600160a01b03918216935063213919f292508d911661283d858e6146a8565b6040518463ffffffff1660e01b815260040161285b9392919061461d565b600060405180830381600087803b15801561287557600080fd5b505af1158015612889573d6000803e3d6000fd5b50506101095460fb5460405160016274ee3760e01b031981526001600160a01b03909216935063ff8b11c992506128ca918e908e908e908890600401614841565b600060405180830381600087803b1580156128e457600080fd5b505af11580156128f8573d6000803e3d6000fd5b5050505050505050505050505050565b6000600080516020614c9b83398151915261292281612ed0565b60fe544210612944576040516304ff30ef60e21b815260040160405180910390fd5b6001600160a01b038716600090815261010a60205260408120805487929061296d90849061470a565b925050819055508460fc6000828254612986919061470a565b9250508190555060006129c16129bb604051806020016040528087815250604051806020016040528061010154815250613156565b88613195565b610106546101085460408051633800918160e21b815290519394506001600160a01b039283169363213919f2939092169163e0024604916004808201926020929091908290030181865afa158015612a1d573d6000803e3d6000fd5b505050506040513d601f19601f82011682018060405250810190612a4191906147b4565b610103546040516001600160e01b031960e085901b168152612a7292916001600160a01b031690869060040161461d565b600060405180830381600087803b158015612a8c57600080fd5b505af1158015612aa0573d6000803e3d6000fd5b5050505060008188612ab291906146a8565b610106546101035460405163109c8cf960e11b81529293506001600160a01b039182169263213919f292612aef928b92911690869060040161461d565b600060405180830381600087803b158015612b0957600080fd5b505af1158015612b1d573d6000803e3d6000fd5b50506101095460fb5460405163335ec7a360e21b81526001600160a01b03909216935063cd7b1e8c9250612b5b918d9086908d908990600401614841565b600060405180830381600087803b158015612b7557600080fd5b505af1158015612b89573d6000803e3d6000fd5b50929b9a5050505050505050505050565b600054610100900460ff1615808015612bba5750600054600160ff909116105b80612bdb5750612bc930613b0d565b158015612bdb575060005460ff166001145b612c3e5760405162461bcd60e51b815260206004820152602e60248201527f496e697469616c697a61626c653a20636f6e747261637420697320616c72656160448201526d191e481a5b9a5d1a585b1a5e995960921b6064820152608401611317565b6000805460ff191660011790558015612c61576000805461ff0019166101001790555b612c69613b1c565b612c71613b1c565b8a8a604051602001612c84929190614ab2565b60408051601f19818403018152919052805160209091012060fb55600060fc81905560fd5560fe899055612cb8888a61470a565b60ff5586612cc6898b61470a565b612cd0919061470a565b610100556101018690556001600160a01b038516612d2e5760405162461bcd60e51b815260206004820152601b60248201527a2d32b9379030b2323932b9b990383ab931b430b9b2903a37b5b2b760291b6044820152606401611317565b61010380546001600160a01b038088166001600160a01b031992831617909255610108805487841690831617905561010980549286169290911691909117905561010b805460ff19169055612d91600080516020614c3b83398151915283613075565b8015612dd7576000805461ff0019169055604051600181527f7f26b83ff96e1f2b6a682f133852f6798a09c465da95921460cefb38474024989060200160405180910390a15b5050505050505050505050565b600082815260c96020526040902060010154612dff81612ed0565b610f4a83836131b5565b600080516020614c1b833981519152612e2181612ed0565b612e2c84848461346b565b50505050565b600080516020614d42833981519152612e4a81612ed0565b612e62600080516020614ce283398151915283613075565b6101095460fb54604051637c4e040f60e11b815260048101919091526001600160a01b0384811660248301529091169063f89c081e90604401611b71565b600080516020614d22833981519152612eb881612ed0565b6119d5600080516020614c7b83398151915283613075565b610abe8133613b89565b600080516020614bfb833981519152612ef281612ed0565b6101095460405163b3c2d50b60e01b81523060048201526001600160a01b0384811660248301529091169063b3c2d50b90604401611b71565b600061010254600003612fd557610107546040805163391fa71560e11b81529051612710926001600160a01b03169163723f4e2a9160048083019260209291908290030181865afa158015612f84573d6000803e3d6000fd5b505050506040513d601f19601f82011682018060405250810190612fa89190614679565b612fb291906146e8565b61271060fd5460fc54612fc5919061470a565b612fcf91906146e8565b14905090565b604080516020808201835261010254825261010754835163391fa71560e11b815293516127109461305b94936001600160a01b039093169263723f4e2a926004808401938290030181865afa158015613032573d6000803e3d6000fd5b505050506040513d601f19601f820116820180604052508101906130569190614679565b613195565b61306591906146e8565b61271060fd54612fcf91906146e8565b61307f82826125e8565b6119d557600082815260c9602090815260408083206001600160a01b03851684529091529020805460ff191660011790556130b73390565b6001600160a01b0316816001600160a01b0316837f2f8788117e7eff1d82e926ec794901d17c78024a50270940304540a733656f0d60405160405180910390a45050565b604080516020810190915260008152604051806020016040528061313561312e8660000151670de0b6b3a7640000613be2565b8551613bf5565b90529392505050565b80516000906109bd90670de0b6b3a7640000906146e8565b6040805160208101909152600081526040518060200160405280670de0b6b3a764000061318b86600001518660000151613be2565b61313591906146e8565b6000806131a28484613c01565b90506131ad8161313e565b949350505050565b6131bf82826125e8565b156119d557600082815260c9602090815260408083206001600160a01b0385168085529252808320805460ff1916905551339285917ff6391f5c32d9c69d2a47ea670b442974b53935d1edc7fd64eb21e047a839171b9190a45050565b600080516020614c5b833981519152546001600160a01b031690565b7f4910fdfa16fed3260ed0e7147f7cc6da11a60208b5b9406d12a635614ffd91435460ff161561326b57610f4a83613c29565b826001600160a01b03166352d1902d6040518163ffffffff1660e01b8152600401602060405180830381865afa9250505080156132c5575060408051601f3d908101601f191682019092526132c291810190614679565b60015b6133285760405162461bcd60e51b815260206004820152602e60248201527f45524331393637557067726164653a206e657720696d706c656d656e7461746960448201526d6f6e206973206e6f74205555505360901b6064820152608401611317565b600080516020614c5b83398151915281146133975760405162461bcd60e51b815260206004820152602960248201527f45524331393637557067726164653a20756e737570706f727465642070726f786044820152681a58589b195555525160ba1b6064820152608401611317565b50610f4a838383613cc3565b610105546040516334e6c77160e01b8152600091829182916001600160a01b0316906334e6c771906133d99087906004016140d2565b608060405180830381865afa1580156133f6573d6000803e3d6000fd5b505050506040513d601f19601f8201168201806040525081019061341a9190614ac2565b9050806020015160001480613430575080606001515b1561343e5760009150613446565b806020015191505b6001600160a01b038416600090815261010a60205260409020546131ad9083906146a8565b6001600160a01b038316600090815261010a60205260409020548111156134a5576040516305e5c1fd60e51b815260040160405180910390fd5b6001600160a01b038316600090815261010a6020526040812080548392906134ce9084906146a8565b925050819055508060fc60008282546134e791906146a8565b925050819055508060fd6000828254613500919061470a565b9091555050610106546101035460405163049f2a5160e21b81526001600160a01b039283169263127ca9449261354092879290911690869060040161461d565b600060405180830381600087803b15801561355a57600080fd5b505af115801561356e573d6000803e3d6000fd5b5050505061357a612f2b565b610f4a57610f4a6146bb565b61010754604051637acdda2360e11b81526000916001600160a01b03169063f59bb446906135ba9086908690600401614660565b6020604051808303816000875af11580156135d9573d6000803e3d6000fd5b505050506040513d601f19601f820116820180604052508101906135fd9190614679565b905060fd5481116136fc578060fd600082825461361a91906146a8565b9091555050610106546101035460405163109c8cf960e11b81526001600160a01b039283169263213919f29261365a92889290911690869060040161461d565b600060405180830381600087803b15801561367457600080fd5b505af1158015613688573d6000803e3d6000fd5b50506101095460fb54604051636a7a0bd160e11b81526001600160a01b03909216935063d4f417a292506136c59187908690600090600401614b34565b600060405180830381600087803b1580156136df57600080fd5b505af11580156136f3573d6000803e3d6000fd5b505050506137df565b60fd80546000909155610106546101035460405163109c8cf960e11b81526001600160a01b039283169263213919f29261374092899290911690869060040161461d565b600060405180830381600087803b15801561375a57600080fd5b505af115801561376e573d6000803e3d6000fd5b50506101095460fb54604051636a7a0bd160e11b81526001600160a01b03909216935063d4f417a292506137ab9188908690600090600401614b34565b600060405180830381600087803b1580156137c557600080fd5b505af11580156137d9573d6000803e3d6000fd5b50505050505b61357a612f2b565b6101025460000361384d576138476040518060200160405280670de0b6b3a764000060fd5461381691906146d1565b8152506040518060200160405280670de0b6b3a764000060fc5460fd5461383d919061470a565b61158691906146d1565b51610102555b61010754604051637acdda2360e11b81526000916001600160a01b03169063f59bb446906138819086908690600401614660565b6020604051808303816000875af11580156138a0573d6000803e3d6000fd5b505050506040513d601f19601f820116820180604052508101906138c49190614679565b905060006138e360405180602001604052806101025481525083613195565b905060fd5481116139fc578060fd600082825461390091906146a8565b9091555050610106546101035460405163109c8cf960e11b81526001600160a01b039283169263213919f29261394092899290911690869060040161461d565b600060405180830381600087803b15801561395a57600080fd5b505af115801561396e573d6000803e3d6000fd5b50506101095460fb54610102546001600160a01b03909216935063d4f417a2925090879085906139a690670de0b6b3a76400006146a8565b6040518563ffffffff1660e01b81526004016139c59493929190614b34565b600060405180830381600087803b1580156139df57600080fd5b505af11580156139f3573d6000803e3d6000fd5b50505050613af9565b60fd80546000909155610106546101035460405163109c8cf960e11b81526001600160a01b039283169263213919f292613a40928a9290911690869060040161461d565b600060405180830381600087803b158015613a5a57600080fd5b505af1158015613a6e573d6000803e3d6000fd5b50506101095460fb54610102546001600160a01b03909216935063d4f417a292509088908590613aa690670de0b6b3a76400006146a8565b6040518563ffffffff1660e01b8152600401613ac59493929190614b34565b600060405180830381600087803b158015613adf57600080fd5b505af1158015613af3573d6000803e3d6000fd5b50505050505b613b01612f2b565b612e2c57612e2c6146bb565b6001600160a01b03163b151590565b600054610100900460ff16613b875760405162461bcd60e51b815260206004820152602b60248201527f496e697469616c697a61626c653a20636f6e7472616374206973206e6f74206960448201526a6e697469616c697a696e6760a81b6064820152608401611317565b565b613b9382826125e8565b6119d557613ba081613ce8565b613bab836020613cfa565b604051602001613bbc929190614b58565b60408051601f198184030181529082905262461bcd60e51b825261131791600401614446565b6000613bee82846146d1565b9392505050565b6000613bee82846146e8565b6040805160208101909152600081526040518060200160405280613135856000015185613be2565b613c3281613b0d565b613c945760405162461bcd60e51b815260206004820152602d60248201527f455243313936373a206e657720696d706c656d656e746174696f6e206973206e60448201526c1bdd08184818dbdb9d1c9858dd609a1b6064820152608401611317565b600080516020614c5b83398151915280546001600160a01b0319166001600160a01b0392909216919091179055565b613ccc83613e95565b600082511180613cd95750805b15610f4a57612e2c8383613ed5565b60606109bd6001600160a01b03831660145b60606000613d098360026146d1565b613d1490600261470a565b6001600160401b03811115613d2b57613d2b614335565b6040519080825280601f01601f191660200182016040528015613d55576020820181803683370190505b509050600360fc1b81600081518110613d7057613d706147d1565b60200101906001600160f81b031916908160001a905350600f60fb1b81600181518110613d9f57613d9f6147d1565b60200101906001600160f81b031916908160001a9053506000613dc38460026146d1565b613dce90600161470a565b90505b6001811115613e46576f181899199a1a9b1b9c1cb0b131b232b360811b85600f1660108110613e0257613e026147d1565b1a60f81b828281518110613e1857613e186147d1565b60200101906001600160f81b031916908160001a90535060049490941c93613e3f81614bc7565b9050613dd1565b508315613bee5760405162461bcd60e51b815260206004820181905260248201527f537472696e67733a20686578206c656e67746820696e73756666696369656e746044820152606401611317565b613e9e81613c29565b6040516001600160a01b038216907fbc7cd75a20ee27fd9adebab32041f755214dbc6bffa90cc0225b39da2e5c2d3b90600090a250565b6060613bee8383604051806060016040528060278152602001614cbb602791396060600080856001600160a01b031685604051613f129190614bde565b600060405180830381855af49150503d8060008114613f4d576040519150601f19603f3d011682016040523d82523d6000602084013e613f52565b606091505b5091509150613f6386838387613f6d565b9695505050505050565b60608315613fda578251600003613fd357613f8785613b0d565b613fd35760405162461bcd60e51b815260206004820152601d60248201527f416464726573733a2063616c6c20746f206e6f6e2d636f6e74726163740000006044820152606401611317565b50816131ad565b6131ad8383815115613fef5781518083602001fd5b8060405162461bcd60e51b81526004016113179190614446565b60006020828403121561401b57600080fd5b81356001600160e01b031981168114613bee57600080fd5b6001600160a01b0381168114610abe57600080fd5b6000806040838503121561405b57600080fd5b823561406681614033565b946020939093013593505050565b60006020828403121561408657600080fd5b8135613bee81614033565b6000806000606084860312156140a657600080fd5b83356140b181614033565b925060208401356140c181614033565b929592945050506040919091013590565b6001600160a01b0391909116815260200190565b6000602082840312156140f857600080fd5b5035919050565b6000806040838503121561411257600080fd5b82359150602083013561412481614033565b809150509250929050565b60008083601f84011261414157600080fd5b5081356001600160401b0381111561415857600080fd5b60208301915083602082850101111561417057600080fd5b9250929050565b6000806000806000806000806000806101208b8d03121561419757600080fd5b8a356141a281614033565b995060208b01356141b281614033565b985060408b01356141c281614033565b975060608b01356141d281614033565b965060808b01356141e281614033565b955060a08b01356141f281614033565b945060c08b013561420281614033565b935060e08b013561421281614033565b92506101008b01356001600160401b0381111561422e57600080fd5b61423a8d828e0161412f565b915080935050809150509295989b9194979a5092959850565b60008083601f84011261426557600080fd5b5081356001600160401b0381111561427c57600080fd5b6020830191508360208260051b850101111561417057600080fd5b6000806000604084860312156142ac57600080fd5b8335925060208401356001600160401b038111156142c957600080fd5b6142d586828701614253565b9497909650939450505050565b6000606082840312156142f457600080fd5b50919050565b6000806000806080858703121561431057600080fd5b843561431b81614033565b966020860135965060408601359560600135945092505050565b634e487b7160e01b600052604160045260246000fd5b604051601f8201601f191681016001600160401b038111828210171561437357614373614335565b604052919050565b6000806040838503121561438e57600080fd5b823561439981614033565b91506020838101356001600160401b03808211156143b657600080fd5b818601915086601f8301126143ca57600080fd5b8135818111156143dc576143dc614335565b6143ee601f8201601f1916850161434b565b9150808252878482850101111561440457600080fd5b80848401858401376000848284010152508093505050509250929050565b60005b8381101561443d578181015183820152602001614425565b50506000910152565b6020815260008251806020840152614465816040850160208701614422565b601f01601f19169190910160400192915050565b60008060008060008060008060c0898b03121561449557600080fd5b88356144a081614033565b9750602089013596506040890135955060608901356001600160401b03808211156144ca57600080fd5b6144d68c838d01614253565b909750955060808b01359150808211156144ef57600080fd5b506144fc8b828c01614253565b999c989b50969995989497949560a00135949350505050565b600080600080600060a0868803121561452d57600080fd5b853561453881614033565b94506020860135935060408601359250606086013561455681614033565b949793965091946080013592915050565b6000806000806000806000806000806101208b8d03121561458757600080fd5b8a356001600160401b0381111561459d57600080fd5b6145a98d828e0161412f565b909b5099505060208b0135975060408b0135965060608b0135955060808b0135945060a08b01356145d981614033565b935060c08b01356145e981614033565b925060e08b01356145f981614033565b91506101008b013561460a81614033565b809150509295989b9194979a5092959850565b6001600160a01b039384168152919092166020820152604081019190915260600190565b9283526001600160a01b03919091166020830152604082015260600190565b6001600160a01b03929092168252602082015260400190565b60006020828403121561468b57600080fd5b5051919050565b634e487b7160e01b600052601160045260246000fd5b818103818111156109bd576109bd614692565b634e487b7160e01b600052600160045260246000fd5b80820281158282048414176109bd576109bd614692565b60008261470557634e487b7160e01b600052601260045260246000fd5b500490565b808201808211156109bd576109bd614692565b8981526001600160a01b03898116602083015288166040820152606081018790526080810186905260a0810185905260c0810184905261010060e08201819052810182905260006101208385828501376000838501820152601f909301601f19169091019091019998505050505050505050565b6000602082840312156147a357600080fd5b815160ff81168114613bee57600080fd5b6000602082840312156147c657600080fd5b8151613bee81614033565b634e487b7160e01b600052603260045260246000fd5b6000602082840312156147f957600080fd5b604051602081018181106001600160401b038211171561481b5761481b614335565b6040529151825250919050565b60006001820161483a5761483a614692565b5060010190565b9485526001600160a01b0393909316602085015260408401919091526060830152608082015260a00190565b6020808252602c908201527f46756e6374696f6e206d7573742062652063616c6c6564207468726f7567682060408201526b19195b1959d85d1958d85b1b60a21b606082015260800190565b6020808252602c908201527f46756e6374696f6e206d7573742062652063616c6c6564207468726f7567682060408201526b6163746976652070726f787960a01b606082015260800190565b600181815b8085111561494057816000190482111561492657614926614692565b8085161561493357918102915b93841c939080029061490a565b509250929050565b600082614957575060016109bd565b81614964575060006109bd565b816001811461497a5760028114614984576149a0565b60019150506109bd565b60ff84111561499557614995614692565b50506001821b6109bd565b5060208310610133831016604e8410600b84101617156149c3575081810a6109bd565b6149cd8383614905565b80600019048211156149e1576149e1614692565b029392505050565b6000613bee8383614948565b80518015158114614a0557600080fd5b919050565b600060208284031215614a1c57600080fd5b613bee826149f5565b6001600160a01b03868116825260606020808401829052908301869052600091879160808501845b89811015614a74578435614a6081614033565b841682529382019390820190600101614a4d565b5085810360408701528681526001600160fb1b03871115614a9457600080fd5b8660051b935083888383013790920190910198975050505050505050565b8183823760009101908152919050565b600060808284031215614ad457600080fd5b604051608081018181106001600160401b0382111715614af657614af6614335565b6040528251614b0481614033565b808252506020830151602082015260408301516040820152614b28606084016149f5565b60608201529392505050565b9384526001600160a01b039290921660208401526040830152606082015260800190565b76020b1b1b2b9b9a1b7b73a3937b61d1030b1b1b7bab73a1604d1b815260008351614b8a816017850160208801614422565b7001034b99036b4b9b9b4b733903937b6329607d1b6017918401918201528351614bbb816028840160208801614422565b01602801949350505050565b600081614bd657614bd6614692565b506000190190565b60008251614bf0818460208701614422565b919091019291505056fe793a6c9b7e0a9549c74edc2f9ae0dc50903dfaa9a56fb0116b27a8c71de3e2c6413cc8bb35fe129dacd3dfaae80d6d4c5d313f64cee9dd6712e7ca52e38573a930d41a597cac127d8249d31298b50e481ee82c3f4a49ff93c76a22735aa9f3ad360894a13ba1a3210667c828492db98dca3e2076cc3735a920a3ca505d382bbcf4b6b486426e3c004413defb7013cd482f29189a98e074f1c202b2ac26536bb21d693f62a755e2b3c6494da41af454605b9006057cb3c79b6adda1378f2a50a7416464726573733a206c6f772d6c6576656c2064656c65676174652063616c6c206661696c65649f2df0fed2c77648de5860a4cc508cd0818c85b8b8a1ab4ceeef8d981c8956a66e14a979b95b01beecd617807f3738f4e067938da99755b16afdcf7148d313b76e3cc031d23d7153f72e87cbfd113a0351c60d8ce52b8a31c944d543a384b7c9a49807205ce4d355092ef5a8a18f56e8913cf4a201fbe287825b095693c21775a26469706673582212207365a92d7e7908903eb1441941abb7446c58e0457c525a8225282f9a85ac0c4064736f6c63430008120033",
  "linkReferences": {},
  "deployedLinkReferences": {}
}