{
  "_format": "hh-sol-artifact-1",
  "contractName": "TestingTermAuctionBidLocker",
  "sourceName": "contracts/test/TestingTermAuctionBidLocker.sol",
  "abi": [
    {
      "inputs": [],
      "name": "AlreadyTermContractPaired",
      "type": "error"
    },
    {
      "inputs": [],
      "name": "AuctionNotClosed",
      "type": "error"
    },
    {
      "inputs": [],
      "name": "AuctionNotOpen",
      "type": "error"
    },
    {
      "inputs": [],
      "name": "AuctionNotRevealing",
      "type": "error"
    },
    {
      "inputs": [
        {
          "internalType": "uint256",
          "name": "reveal",
          "type": "uint256"
        },
        {
          "internalType": "uint256",
          "name": "end",
          "type": "uint256"
        }
      ],
      "name": "AuctionRevealsAfterEnd",
      "type": "error"
    },
    {
      "inputs": [
        {
          "internalType": "uint256",
          "name": "start",
          "type": "uint256"
        },
        {
          "internalType": "uint256",
          "name": "reveal",
          "type": "uint256"
        }
      ],
      "name": "AuctionStartsAfterReveal",
      "type": "error"
    },
    {
      "inputs": [],
      "name": "BidAlreadyRevealed",
      "type": "error"
    },
    {
      "inputs": [
        {
          "internalType": "uint256",
          "name": "amount",
          "type": "uint256"
        }
      ],
      "name": "BidAmountTooLow",
      "type": "error"
    },
    {
      "inputs": [
        {
          "internalType": "uint256",
          "name": "bidCount",
          "type": "uint256"
        }
      ],
      "name": "BidCountIncorrect",
      "type": "error"
    },
    {
      "inputs": [],
      "name": "BidNotOwned",
      "type": "error"
    },
    {
      "inputs": [
        {
          "internalType": "bytes32",
          "name": "bidId",
          "type": "bytes32"
        }
      ],
      "name": "BidNotRevealed",
      "type": "error"
    },
    {
      "inputs": [
        {
          "internalType": "bytes32",
          "name": "id",
          "type": "bytes32"
        }
      ],
      "name": "BidPriceModified",
      "type": "error"
    },
    {
      "inputs": [
        {
          "internalType": "bytes32",
          "name": "bidId",
          "type": "bytes32"
        }
      ],
      "name": "BidRevealed",
      "type": "error"
    },
    {
      "inputs": [],
      "name": "CollateralAmountTooLow",
      "type": "error"
    },
    {
      "inputs": [
        {
          "internalType": "address",
          "name": "token",
          "type": "address"
        }
      ],
      "name": "CollateralTokenNotApproved",
      "type": "error"
    },
    {
      "inputs": [
        {
          "internalType": "bytes32",
          "name": "bidId",
          "type": "bytes32"
        }
      ],
      "name": "GeneratingExistingBid",
      "type": "error"
    },
    {
      "inputs": [],
      "name": "InvalidPurchaseToken",
      "type": "error"
    },
    {
      "inputs": [],
      "name": "InvalidSelfReferral",
      "type": "error"
    },
    {
      "inputs": [],
      "name": "InvalidTermRepoServicer",
      "type": "error"
    },
    {
      "inputs": [],
      "name": "LockingPaused",
      "type": "error"
    },
    {
      "inputs": [],
      "name": "MaxBidCountReached",
      "type": "error"
    },
    {
      "inputs": [],
      "name": "NoCollateralToUnlock",
      "type": "error"
    },
    {
      "inputs": [
        {
          "internalType": "bytes32",
          "name": "bidId",
          "type": "bytes32"
        }
      ],
      "name": "NonExistentBid",
      "type": "error"
    },
    {
      "inputs": [
        {
          "internalType": "bytes32",
          "name": "bidId",
          "type": "bytes32"
        }
      ],
      "name": "NonExpiredRolloverBid",
      "type": "error"
    },
    {
      "inputs": [
        {
          "internalType": "bytes32",
          "name": "id",
          "type": "bytes32"
        }
      ],
      "name": "NonRolloverBid",
      "type": "error"
    },
    {
      "inputs": [
        {
          "internalType": "address",
          "name": "token",
          "type": "address"
        }
      ],
      "name": "PurchaseTokenNotApproved",
      "type": "error"
    },
    {
      "inputs": [],
      "name": "RevealedBidsNotSorted",
      "type": "error"
    },
    {
      "inputs": [],
      "name": "RolloverBid",
      "type": "error"
    },
    {
      "inputs": [
        {
          "internalType": "bytes32",
          "name": "bidId",
          "type": "bytes32"
        }
      ],
      "name": "RolloverBidExpired",
      "type": "error"
    },
    {
      "inputs": [],
      "name": "RolloverBidInShortfall",
      "type": "error"
    },
    {
      "inputs": [
        {
          "internalType": "bytes32",
          "name": "id",
          "type": "bytes32"
        },
        {
          "internalType": "uint256",
          "name": "maxPrice",
          "type": "uint256"
        }
      ],
      "name": "TenderPriceTooHigh",
      "type": "error"
    },
    {
      "inputs": [],
      "name": "UnlockingPaused",
      "type": "error"
    },
    {
      "anonymous": false,
      "inputs": [
        {
          "indexed": false,
          "internalType": "address",
          "name": "previousAdmin",
          "type": "address"
        },
        {
          "indexed": false,
          "internalType": "address",
          "name": "newAdmin",
          "type": "address"
        }
      ],
      "name": "AdminChanged",
      "type": "event"
    },
    {
      "anonymous": false,
      "inputs": [
        {
          "indexed": true,
          "internalType": "address",
          "name": "beacon",
          "type": "address"
        }
      ],
      "name": "BeaconUpgraded",
      "type": "event"
    },
    {
      "anonymous": false,
      "inputs": [
        {
          "indexed": false,
          "internalType": "uint8",
          "name": "version",
          "type": "uint8"
        }
      ],
      "name": "Initialized",
      "type": "event"
    },
    {
      "anonymous": false,
      "inputs": [
        {
          "indexed": true,
          "internalType": "bytes32",
          "name": "role",
          "type": "bytes32"
        },
        {
          "indexed": true,
          "internalType": "bytes32",
          "name": "previousAdminRole",
          "type": "bytes32"
        },
        {
          "indexed": true,
          "internalType": "bytes32",
          "name": "newAdminRole",
          "type": "bytes32"
        }
      ],
      "name": "RoleAdminChanged",
      "type": "event"
    },
    {
      "anonymous": false,
      "inputs": [
        {
          "indexed": true,
          "internalType": "bytes32",
          "name": "role",
          "type": "bytes32"
        },
        {
          "indexed": true,
          "internalType": "address",
          "name": "account",
          "type": "address"
        },
        {
          "indexed": true,
          "internalType": "address",
          "name": "sender",
          "type": "address"
        }
      ],
      "name": "RoleGranted",
      "type": "event"
    },
    {
      "anonymous": false,
      "inputs": [
        {
          "indexed": true,
          "internalType": "bytes32",
          "name": "role",
          "type": "bytes32"
        },
        {
          "indexed": true,
          "internalType": "address",
          "name": "account",
          "type": "address"
        },
        {
          "indexed": true,
          "internalType": "address",
          "name": "sender",
          "type": "address"
        }
      ],
      "name": "RoleRevoked",
      "type": "event"
    },
    {
      "anonymous": false,
      "inputs": [
        {
          "indexed": true,
          "internalType": "address",
          "name": "implementation",
          "type": "address"
        }
      ],
      "name": "Upgraded",
      "type": "event"
    },
    {
      "inputs": [],
      "name": "ADMIN_ROLE",
      "outputs": [
        {
          "internalType": "bytes32",
          "name": "",
          "type": "bytes32"
        }
      ],
      "stateMutability": "view",
      "type": "function"
    },
    {
      "inputs": [],
      "name": "AUCTIONEER_ROLE",
      "outputs": [
        {
          "internalType": "bytes32",
          "name": "",
          "type": "bytes32"
        }
      ],
      "stateMutability": "view",
      "type": "function"
    },
    {
      "inputs": [],
      "name": "DEFAULT_ADMIN_ROLE",
      "outputs": [
        {
          "internalType": "bytes32",
          "name": "",
          "type": "bytes32"
        }
      ],
      "stateMutability": "view",
      "type": "function"
    },
    {
      "inputs": [],
      "name": "DEVOPS_ROLE",
      "outputs": [
        {
          "internalType": "bytes32",
          "name": "",
          "type": "bytes32"
        }
      ],
      "stateMutability": "view",
      "type": "function"
    },
    {
      "inputs": [],
      "name": "INITIALIZER_ROLE",
      "outputs": [
        {
          "internalType": "bytes32",
          "name": "",
          "type": "bytes32"
        }
      ],
      "stateMutability": "view",
      "type": "function"
    },
    {
      "inputs": [],
      "name": "MAX_BID_COUNT",
      "outputs": [
        {
          "internalType": "uint256",
          "name": "",
          "type": "uint256"
        }
      ],
      "stateMutability": "view",
      "type": "function"
    },
    {
      "inputs": [],
      "name": "MAX_BID_PRICE",
      "outputs": [
        {
          "internalType": "uint256",
          "name": "",
          "type": "uint256"
        }
      ],
      "stateMutability": "view",
      "type": "function"
    },
    {
      "inputs": [],
      "name": "ROLLOVER_MANAGER",
      "outputs": [
        {
          "internalType": "bytes32",
          "name": "",
          "type": "bytes32"
        }
      ],
      "stateMutability": "view",
      "type": "function"
    },
    {
      "inputs": [],
      "name": "THREESIXTY_DAYCOUNT_SECONDS",
      "outputs": [
        {
          "internalType": "uint256",
          "name": "",
          "type": "uint256"
        }
      ],
      "stateMutability": "view",
      "type": "function"
    },
    {
      "inputs": [
        {
          "components": [
            {
              "internalType": "bytes32",
              "name": "id",
              "type": "bytes32"
            },
            {
              "internalType": "address",
              "name": "bidder",
              "type": "address"
            },
            {
              "internalType": "uint256",
              "name": "bidPriceRevealed",
              "type": "uint256"
            },
            {
              "internalType": "uint256",
              "name": "amount",
              "type": "uint256"
            },
            {
              "internalType": "uint256[]",
              "name": "collateralAmounts",
              "type": "uint256[]"
            },
            {
              "internalType": "address",
              "name": "purchaseToken",
              "type": "address"
            },
            {
              "internalType": "address[]",
              "name": "collateralTokens",
              "type": "address[]"
            },
            {
              "internalType": "bool",
              "name": "isRollover",
              "type": "bool"
            },
            {
              "internalType": "address",
              "name": "rolloverPairOffTermRepoServicer",
              "type": "address"
            }
          ],
          "internalType": "struct TermAuctionRevealedBid",
          "name": "bid",
          "type": "tuple"
        },
        {
          "internalType": "uint256",
          "name": "nonce",
          "type": "uint256"
        }
      ],
      "name": "addBid",
      "outputs": [],
      "stateMutability": "nonpayable",
      "type": "function"
    },
    {
      "inputs": [
        {
          "internalType": "uint256",
          "name": "",
          "type": "uint256"
        }
      ],
      "name": "auctionBids",
      "outputs": [
        {
          "internalType": "bytes32",
          "name": "id",
          "type": "bytes32"
        },
        {
          "internalType": "address",
          "name": "bidder",
          "type": "address"
        },
        {
          "internalType": "uint256",
          "name": "bidPriceRevealed",
          "type": "uint256"
        },
        {
          "internalType": "uint256",
          "name": "amount",
          "type": "uint256"
        },
        {
          "internalType": "address",
          "name": "purchaseToken",
          "type": "address"
        },
        {
          "internalType": "bool",
          "name": "isRollover",
          "type": "bool"
        },
        {
          "internalType": "address",
          "name": "rolloverPairOffTermRepoServicer",
          "type": "address"
        }
      ],
      "stateMutability": "view",
      "type": "function"
    },
    {
      "inputs": [],
      "name": "auctionEndTime",
      "outputs": [
        {
          "internalType": "uint256",
          "name": "",
          "type": "uint256"
        }
      ],
      "stateMutability": "view",
      "type": "function"
    },
    {
      "inputs": [],
      "name": "auctionStartTime",
      "outputs": [
        {
          "internalType": "uint256",
          "name": "",
          "type": "uint256"
        }
      ],
      "stateMutability": "view",
      "type": "function"
    },
    {
      "inputs": [
        {
          "internalType": "bytes32",
          "name": "id",
          "type": "bytes32"
        },
        {
          "internalType": "address",
          "name": "bidder",
          "type": "address"
        },
        {
          "internalType": "address[]",
          "name": "bidCollateralTokens",
          "type": "address[]"
        },
        {
          "internalType": "uint256[]",
          "name": "amounts",
          "type": "uint256[]"
        }
      ],
      "name": "auctionUnlockBid",
      "outputs": [],
      "stateMutability": "nonpayable",
      "type": "function"
    },
    {
      "inputs": [],
      "name": "bidCount",
      "outputs": [
        {
          "internalType": "uint256",
          "name": "",
          "type": "uint256"
        }
      ],
      "stateMutability": "view",
      "type": "function"
    },
    {
      "inputs": [
        {
          "internalType": "uint256",
          "name": "",
          "type": "uint256"
        }
      ],
      "name": "bidsToUnlock",
      "outputs": [
        {
          "internalType": "bytes32",
          "name": "id",
          "type": "bytes32"
        },
        {
          "internalType": "address",
          "name": "bidder",
          "type": "address"
        },
        {
          "internalType": "bytes32",
          "name": "bidPriceHash",
          "type": "bytes32"
        },
        {
          "internalType": "uint256",
          "name": "bidPriceRevealed",
          "type": "uint256"
        },
        {
          "internalType": "uint256",
          "name": "amount",
          "type": "uint256"
        },
        {
          "internalType": "address",
          "name": "purchaseToken",
          "type": "address"
        },
        {
          "internalType": "bool",
          "name": "isRollover",
          "type": "bool"
        },
        {
          "internalType": "address",
          "name": "rolloverPairOffTermRepoServicer",
          "type": "address"
        },
        {
          "internalType": "bool",
          "name": "isRevealed",
          "type": "bool"
        }
      ],
      "stateMutability": "view",
      "type": "function"
    },
    {
      "inputs": [
        {
          "internalType": "contract IERC20Upgradeable",
          "name": "",
          "type": "address"
        }
      ],
      "name": "collateralTokens",
      "outputs": [
        {
          "internalType": "bool",
          "name": "",
          "type": "bool"
        }
      ],
      "stateMutability": "view",
      "type": "function"
    },
    {
      "inputs": [],
      "name": "dayCountFractionMantissa",
      "outputs": [
        {
          "internalType": "uint256",
          "name": "",
          "type": "uint256"
        }
      ],
      "stateMutability": "view",
      "type": "function"
    },
    {
      "inputs": [
        {
          "internalType": "bytes32[]",
          "name": "revealedBids",
          "type": "bytes32[]"
        },
        {
          "internalType": "bytes32[]",
          "name": "expiredRolloverBids",
          "type": "bytes32[]"
        },
        {
          "internalType": "bytes32[]",
          "name": "unrevealedBids",
          "type": "bytes32[]"
        }
      ],
      "name": "getAllBids",
      "outputs": [
        {
          "components": [
            {
              "internalType": "bytes32",
              "name": "id",
              "type": "bytes32"
            },
            {
              "internalType": "address",
              "name": "bidder",
              "type": "address"
            },
            {
              "internalType": "uint256",
              "name": "bidPriceRevealed",
              "type": "uint256"
            },
            {
              "internalType": "uint256",
              "name": "amount",
              "type": "uint256"
            },
            {
              "internalType": "uint256[]",
              "name": "collateralAmounts",
              "type": "uint256[]"
            },
            {
              "internalType": "address",
              "name": "purchaseToken",
              "type": "address"
            },
            {
              "internalType": "address[]",
              "name": "collateralTokens",
              "type": "address[]"
            },
            {
              "internalType": "bool",
              "name": "isRollover",
              "type": "bool"
            },
            {
              "internalType": "address",
              "name": "rolloverPairOffTermRepoServicer",
              "type": "address"
            }
          ],
          "internalType": "struct TermAuctionRevealedBid[]",
          "name": "",
          "type": "tuple[]"
        },
        {
          "components": [
            {
              "internalType": "bytes32",
              "name": "id",
              "type": "bytes32"
            },
            {
              "internalType": "address",
              "name": "bidder",
              "type": "address"
            },
            {
              "internalType": "bytes32",
              "name": "bidPriceHash",
              "type": "bytes32"
            },
            {
              "internalType": "uint256",
              "name": "bidPriceRevealed",
              "type": "uint256"
            },
            {
              "internalType": "uint256",
              "name": "amount",
              "type": "uint256"
            },
            {
              "internalType": "uint256[]",
              "name": "collateralAmounts",
              "type": "uint256[]"
            },
            {
              "internalType": "address",
              "name": "purchaseToken",
              "type": "address"
            },
            {
              "internalType": "address[]",
              "name": "collateralTokens",
              "type": "address[]"
            },
            {
              "internalType": "bool",
              "name": "isRollover",
              "type": "bool"
            },
            {
              "internalType": "address",
              "name": "rolloverPairOffTermRepoServicer",
              "type": "address"
            },
            {
              "internalType": "bool",
              "name": "isRevealed",
              "type": "bool"
            }
          ],
          "internalType": "struct TermAuctionBid[]",
          "name": "",
          "type": "tuple[]"
        }
      ],
      "stateMutability": "nonpayable",
      "type": "function"
    },
    {
      "inputs": [],
      "name": "getBidCount",
      "outputs": [
        {
          "internalType": "uint256",
          "name": "",
          "type": "uint256"
        }
      ],
      "stateMutability": "view",
      "type": "function"
    },
    {
      "inputs": [
        {
          "internalType": "bytes32",
          "name": "role",
          "type": "bytes32"
        }
      ],
      "name": "getRoleAdmin",
      "outputs": [
        {
          "internalType": "bytes32",
          "name": "",
          "type": "bytes32"
        }
      ],
      "stateMutability": "view",
      "type": "function"
    },
    {
      "inputs": [
        {
          "internalType": "bytes32",
          "name": "role",
          "type": "bytes32"
        },
        {
          "internalType": "address",
          "name": "account",
          "type": "address"
        }
      ],
      "name": "grantRole",
      "outputs": [],
      "stateMutability": "nonpayable",
      "type": "function"
    },
    {
      "inputs": [
        {
          "internalType": "bytes32",
          "name": "role",
          "type": "bytes32"
        },
        {
          "internalType": "address",
          "name": "account",
          "type": "address"
        }
      ],
      "name": "hasRole",
      "outputs": [
        {
          "internalType": "bool",
          "name": "",
          "type": "bool"
        }
      ],
      "stateMutability": "view",
      "type": "function"
    },
    {
      "inputs": [
        {
          "internalType": "string",
          "name": "termRepoId_",
          "type": "string"
        },
        {
          "internalType": "string",
          "name": "auctionId_",
          "type": "string"
        },
        {
          "internalType": "uint256",
          "name": "auctionStartTime_",
          "type": "uint256"
        },
        {
          "internalType": "uint256",
          "name": "revealTime_",
          "type": "uint256"
        },
        {
          "internalType": "uint256",
          "name": "auctionEndTime_",
          "type": "uint256"
        },
        {
          "internalType": "uint256",
          "name": "redemptionTimestamp_",
          "type": "uint256"
        },
        {
          "internalType": "uint256",
          "name": "minimumTenderAmount_",
          "type": "uint256"
        },
        {
          "internalType": "address",
          "name": "purchaseToken_",
          "type": "address"
        },
        {
          "internalType": "contract IERC20Upgradeable[]",
          "name": "collateralTokens_",
          "type": "address[]"
        },
        {
          "internalType": "address",
          "name": "termInitializer_",
          "type": "address"
        }
      ],
      "name": "initialize",
      "outputs": [],
      "stateMutability": "nonpayable",
      "type": "function"
    },
    {
      "inputs": [
        {
          "components": [
            {
              "internalType": "bytes32",
              "name": "id",
              "type": "bytes32"
            },
            {
              "internalType": "address",
              "name": "bidder",
              "type": "address"
            },
            {
              "internalType": "bytes32",
              "name": "bidPriceHash",
              "type": "bytes32"
            },
            {
              "internalType": "uint256",
              "name": "amount",
              "type": "uint256"
            },
            {
              "internalType": "uint256[]",
              "name": "collateralAmounts",
              "type": "uint256[]"
            },
            {
              "internalType": "address",
              "name": "purchaseToken",
              "type": "address"
            },
            {
              "internalType": "address[]",
              "name": "collateralTokens",
              "type": "address[]"
            }
          ],
          "internalType": "struct TermAuctionBidSubmission[]",
          "name": "bidSubmissions",
          "type": "tuple[]"
        }
      ],
      "name": "lockBids",
      "outputs": [
        {
          "internalType": "bytes32[]",
          "name": "",
          "type": "bytes32[]"
        }
      ],
      "stateMutability": "nonpayable",
      "type": "function"
    },
    {
      "inputs": [
        {
          "components": [
            {
              "internalType": "bytes32",
              "name": "id",
              "type": "bytes32"
            },
            {
              "internalType": "address",
              "name": "bidder",
              "type": "address"
            },
            {
              "internalType": "bytes32",
              "name": "bidPriceHash",
              "type": "bytes32"
            },
            {
              "internalType": "uint256",
              "name": "amount",
              "type": "uint256"
            },
            {
              "internalType": "uint256[]",
              "name": "collateralAmounts",
              "type": "uint256[]"
            },
            {
              "internalType": "address",
              "name": "purchaseToken",
              "type": "address"
            },
            {
              "internalType": "address[]",
              "name": "collateralTokens",
              "type": "address[]"
            }
          ],
          "internalType": "struct TermAuctionBidSubmission[]",
          "name": "bidSubmissions",
          "type": "tuple[]"
        },
        {
          "internalType": "address",
          "name": "referralAddress",
          "type": "address"
        }
      ],
      "name": "lockBidsWithReferral",
      "outputs": [
        {
          "internalType": "bytes32[]",
          "name": "",
          "type": "bytes32[]"
        }
      ],
      "stateMutability": "nonpayable",
      "type": "function"
    },
    {
      "inputs": [
        {
          "components": [
            {
              "internalType": "bytes32",
              "name": "id",
              "type": "bytes32"
            },
            {
              "internalType": "address",
              "name": "bidder",
              "type": "address"
            },
            {
              "internalType": "bytes32",
              "name": "bidPriceHash",
              "type": "bytes32"
            },
            {
              "internalType": "uint256",
              "name": "bidPriceRevealed",
              "type": "uint256"
            },
            {
              "internalType": "uint256",
              "name": "amount",
              "type": "uint256"
            },
            {
              "internalType": "uint256[]",
              "name": "collateralAmounts",
              "type": "uint256[]"
            },
            {
              "internalType": "address",
              "name": "purchaseToken",
              "type": "address"
            },
            {
              "internalType": "address[]",
              "name": "collateralTokens",
              "type": "address[]"
            },
            {
              "internalType": "bool",
              "name": "isRollover",
              "type": "bool"
            },
            {
              "internalType": "address",
              "name": "rolloverPairOffTermRepoServicer",
              "type": "address"
            },
            {
              "internalType": "bool",
              "name": "isRevealed",
              "type": "bool"
            }
          ],
          "internalType": "struct TermAuctionBid",
          "name": "bid",
          "type": "tuple"
        }
      ],
      "name": "lockRolloverBid",
      "outputs": [],
      "stateMutability": "nonpayable",
      "type": "function"
    },
    {
      "inputs": [
        {
          "internalType": "bytes32",
          "name": "id",
          "type": "bytes32"
        }
      ],
      "name": "lockedBid",
      "outputs": [
        {
          "components": [
            {
              "internalType": "bytes32",
              "name": "id",
              "type": "bytes32"
            },
            {
              "internalType": "address",
              "name": "bidder",
              "type": "address"
            },
            {
              "internalType": "bytes32",
              "name": "bidPriceHash",
              "type": "bytes32"
            },
            {
              "internalType": "uint256",
              "name": "bidPriceRevealed",
              "type": "uint256"
            },
            {
              "internalType": "uint256",
              "name": "amount",
              "type": "uint256"
            },
            {
              "internalType": "uint256[]",
              "name": "collateralAmounts",
              "type": "uint256[]"
            },
            {
              "internalType": "address",
              "name": "purchaseToken",
              "type": "address"
            },
            {
              "internalType": "address[]",
              "name": "collateralTokens",
              "type": "address[]"
            },
            {
              "internalType": "bool",
              "name": "isRollover",
              "type": "bool"
            },
            {
              "internalType": "address",
              "name": "rolloverPairOffTermRepoServicer",
              "type": "address"
            },
            {
              "internalType": "bool",
              "name": "isRevealed",
              "type": "bool"
            }
          ],
          "internalType": "struct TermAuctionBid",
          "name": "",
          "type": "tuple"
        }
      ],
      "stateMutability": "view",
      "type": "function"
    },
    {
      "inputs": [],
      "name": "lockingPaused",
      "outputs": [
        {
          "internalType": "bool",
          "name": "",
          "type": "bool"
        }
      ],
      "stateMutability": "view",
      "type": "function"
    },
    {
      "inputs": [],
      "name": "minimumTenderAmount",
      "outputs": [
        {
          "internalType": "uint256",
          "name": "",
          "type": "uint256"
        }
      ],
      "stateMutability": "view",
      "type": "function"
    },
    {
      "inputs": [
        {
          "components": [
            {
              "internalType": "bytes32",
              "name": "id",
              "type": "bytes32"
            },
            {
              "internalType": "address",
              "name": "bidder",
              "type": "address"
            },
            {
              "internalType": "uint256",
              "name": "bidPriceRevealed",
              "type": "uint256"
            },
            {
              "internalType": "uint256",
              "name": "amount",
              "type": "uint256"
            },
            {
              "internalType": "uint256[]",
              "name": "collateralAmounts",
              "type": "uint256[]"
            },
            {
              "internalType": "address",
              "name": "purchaseToken",
              "type": "address"
            },
            {
              "internalType": "address[]",
              "name": "collateralTokens",
              "type": "address[]"
            },
            {
              "internalType": "bool",
              "name": "isRollover",
              "type": "bool"
            },
            {
              "internalType": "address",
              "name": "rolloverPairOffTermRepoServicer",
              "type": "address"
            }
          ],
          "internalType": "struct TermAuctionRevealedBid",
          "name": "revealed",
          "type": "tuple"
        },
        {
          "internalType": "uint256",
          "name": "nonce",
          "type": "uint256"
        }
      ],
      "name": "obfuscateBid",
      "outputs": [
        {
          "components": [
            {
              "internalType": "bytes32",
              "name": "id",
              "type": "bytes32"
            },
            {
              "internalType": "address",
              "name": "bidder",
              "type": "address"
            },
            {
              "internalType": "bytes32",
              "name": "bidPriceHash",
              "type": "bytes32"
            },
            {
              "internalType": "uint256",
              "name": "bidPriceRevealed",
              "type": "uint256"
            },
            {
              "internalType": "uint256",
              "name": "amount",
              "type": "uint256"
            },
            {
              "internalType": "uint256[]",
              "name": "collateralAmounts",
              "type": "uint256[]"
            },
            {
              "internalType": "address",
              "name": "purchaseToken",
              "type": "address"
            },
            {
              "internalType": "address[]",
              "name": "collateralTokens",
              "type": "address[]"
            },
            {
              "internalType": "bool",
              "name": "isRollover",
              "type": "bool"
            },
            {
              "internalType": "address",
              "name": "rolloverPairOffTermRepoServicer",
              "type": "address"
            },
            {
              "internalType": "bool",
              "name": "isRevealed",
              "type": "bool"
            }
          ],
          "internalType": "struct TermAuctionBid",
          "name": "hidden",
          "type": "tuple"
        }
      ],
      "stateMutability": "pure",
      "type": "function"
    },
    {
      "inputs": [
        {
          "internalType": "address",
          "name": "rolloverManager",
          "type": "address"
        }
      ],
      "name": "pairRolloverManager",
      "outputs": [],
      "stateMutability": "nonpayable",
      "type": "function"
    },
    {
      "inputs": [
        {
          "internalType": "address",
          "name": "termAuction_",
          "type": "address"
        },
        {
          "internalType": "contract ITermRepoServicer",
          "name": "termRepoServicer_",
          "type": "address"
        },
        {
          "internalType": "contract ITermEventEmitter",
          "name": "emitter_",
          "type": "address"
        },
        {
          "internalType": "contract ITermRepoCollateralManager",
          "name": "termRepoCollateralManager_",
          "type": "address"
        },
        {
          "internalType": "contract ITermPriceOracle",
          "name": "termPriceOracle_",
          "type": "address"
        },
        {
          "internalType": "address",
          "name": "devopsMultisig_",
          "type": "address"
        },
        {
          "internalType": "address",
          "name": "adminWallet_",
          "type": "address"
        }
      ],
      "name": "pairTermContracts",
      "outputs": [],
      "stateMutability": "nonpayable",
      "type": "function"
    },
    {
      "inputs": [],
      "name": "pauseLocking",
      "outputs": [],
      "stateMutability": "nonpayable",
      "type": "function"
    },
    {
      "inputs": [],
      "name": "pauseUnlocking",
      "outputs": [],
      "stateMutability": "nonpayable",
      "type": "function"
    },
    {
      "inputs": [],
      "name": "proxiableUUID",
      "outputs": [
        {
          "internalType": "bytes32",
          "name": "",
          "type": "bytes32"
        }
      ],
      "stateMutability": "view",
      "type": "function"
    },
    {
      "inputs": [],
      "name": "purchaseToken",
      "outputs": [
        {
          "internalType": "address",
          "name": "",
          "type": "address"
        }
      ],
      "stateMutability": "view",
      "type": "function"
    },
    {
      "inputs": [
        {
          "internalType": "bytes32",
          "name": "role",
          "type": "bytes32"
        },
        {
          "internalType": "address",
          "name": "account",
          "type": "address"
        }
      ],
      "name": "renounceRole",
      "outputs": [],
      "stateMutability": "nonpayable",
      "type": "function"
    },
    {
      "inputs": [
        {
          "internalType": "bytes32[]",
          "name": "ids",
          "type": "bytes32[]"
        },
        {
          "internalType": "uint256[]",
          "name": "prices",
          "type": "uint256[]"
        },
        {
          "internalType": "uint256[]",
          "name": "nonces",
          "type": "uint256[]"
        }
      ],
      "name": "revealBids",
      "outputs": [],
      "stateMutability": "nonpayable",
      "type": "function"
    },
    {
      "inputs": [],
      "name": "revealTime",
      "outputs": [
        {
          "internalType": "uint256",
          "name": "",
          "type": "uint256"
        }
      ],
      "stateMutability": "view",
      "type": "function"
    },
    {
      "inputs": [
        {
          "internalType": "bytes32",
          "name": "role",
          "type": "bytes32"
        },
        {
          "internalType": "address",
          "name": "account",
          "type": "address"
        }
      ],
      "name": "revokeRole",
      "outputs": [],
      "stateMutability": "nonpayable",
      "type": "function"
    },
    {
      "inputs": [
        {
          "internalType": "uint256",
          "name": "bidCount_",
          "type": "uint256"
        }
      ],
      "name": "setBidCount",
      "outputs": [],
      "stateMutability": "nonpayable",
      "type": "function"
    },
    {
      "inputs": [
        {
          "internalType": "uint256",
          "name": "auctionEndTime_",
          "type": "uint256"
        }
      ],
      "name": "setEndTime",
      "outputs": [],
      "stateMutability": "nonpayable",
      "type": "function"
    },
    {
      "inputs": [
        {
          "internalType": "uint256",
          "name": "revealTime_",
          "type": "uint256"
        }
      ],
      "name": "setRevealTime",
      "outputs": [],
      "stateMutability": "nonpayable",
      "type": "function"
    },
    {
      "inputs": [
        {
          "internalType": "uint256",
          "name": "auctionStartTime_",
          "type": "uint256"
        }
      ],
      "name": "setStartTime",
      "outputs": [],
      "stateMutability": "nonpayable",
      "type": "function"
    },
    {
      "inputs": [
        {
          "internalType": "bytes4",
          "name": "interfaceId",
          "type": "bytes4"
        }
      ],
      "name": "supportsInterface",
      "outputs": [
        {
          "internalType": "bool",
          "name": "",
          "type": "bool"
        }
      ],
      "stateMutability": "view",
      "type": "function"
    },
    {
      "inputs": [],
      "name": "termAuction",
      "outputs": [
        {
          "internalType": "contract ITermAuction",
          "name": "",
          "type": "address"
        }
      ],
      "stateMutability": "view",
      "type": "function"
    },
    {
      "inputs": [],
      "name": "termAuctionId",
      "outputs": [
        {
          "internalType": "bytes32",
          "name": "",
          "type": "bytes32"
        }
      ],
      "stateMutability": "view",
      "type": "function"
    },
    {
      "inputs": [],
      "name": "termRepoCollateralManager",
      "outputs": [
        {
          "internalType": "contract ITermRepoCollateralManager",
          "name": "",
          "type": "address"
        }
      ],
      "stateMutability": "view",
      "type": "function"
    },
    {
      "inputs": [],
      "name": "termRepoId",
      "outputs": [
        {
          "internalType": "bytes32",
          "name": "",
          "type": "bytes32"
        }
      ],
      "stateMutability": "view",
      "type": "function"
    },
    {
      "inputs": [],
      "name": "termRepoServicer",
      "outputs": [
        {
          "internalType": "contract ITermRepoServicer",
          "name": "",
          "type": "address"
        }
      ],
      "stateMutability": "view",
      "type": "function"
    },
    {
      "inputs": [
        {
          "internalType": "bytes32[]",
          "name": "revealedBids",
          "type": "bytes32[]"
        },
        {
          "internalType": "bytes32[]",
          "name": "expiredRolloverBids",
          "type": "bytes32[]"
        },
        {
          "internalType": "bytes32[]",
          "name": "unrevealedBids",
          "type": "bytes32[]"
        }
      ],
      "name": "testGetAllBids",
      "outputs": [],
      "stateMutability": "nonpayable",
      "type": "function"
    },
    {
      "inputs": [
        {
          "internalType": "bytes32[]",
          "name": "ids",
          "type": "bytes32[]"
        }
      ],
      "name": "unlockBids",
      "outputs": [],
      "stateMutability": "nonpayable",
      "type": "function"
    },
    {
      "inputs": [],
      "name": "unlockingPaused",
      "outputs": [
        {
          "internalType": "bool",
          "name": "",
          "type": "bool"
        }
      ],
      "stateMutability": "view",
      "type": "function"
    },
    {
      "inputs": [],
      "name": "unpauseLocking",
      "outputs": [],
      "stateMutability": "nonpayable",
      "type": "function"
    },
    {
      "inputs": [],
      "name": "unpauseUnlocking",
      "outputs": [],
      "stateMutability": "nonpayable",
      "type": "function"
    },
    {
      "inputs": [
        {
          "internalType": "address",
          "name": "upgradeAddress",
          "type": "address"
        }
      ],
      "name": "upgrade",
      "outputs": [],
      "stateMutability": "nonpayable",
      "type": "function"
    },
    {
      "inputs": [
        {
          "internalType": "address",
          "name": "newImplementation",
          "type": "address"
        }
      ],
      "name": "upgradeTo",
      "outputs": [],
      "stateMutability": "nonpayable",
      "type": "function"
    },
    {
      "inputs": [
        {
          "internalType": "address",
          "name": "newImplementation",
          "type": "address"
        },
        {
          "internalType": "bytes",
          "name": "data",
          "type": "bytes"
        }
      ],
      "name": "upgradeToAndCall",
      "outputs": [],
      "stateMutability": "payable",
      "type": "function"
    },
    {
      "inputs": [],
      "name": "version",
      "outputs": [
        {
          "internalType": "string",
          "name": "",
          "type": "string"
        }
      ],
      "stateMutability": "view",
      "type": "function"
    }
  ],
  "bytecode": "0x60a0604052306080523480156200001557600080fd5b506200002062000026565b620000e7565b600054610100900460ff1615620000935760405162461bcd60e51b815260206004820152602760248201527f496e697469616c697a61626c653a20636f6e747261637420697320696e697469604482015266616c697a696e6760c81b606482015260840160405180910390fd5b60005460ff90811614620000e5576000805460ff191660ff9081179091556040519081527f7f26b83ff96e1f2b6a682f133852f6798a09c465da95921460cefb38474024989060200160405180910390a15b565b6080516169a96200011f6000396000818161136a015281816113aa0152818161183c0152818161187c01526118f401526169a96000f3fe6080604052600436106102d75760003560e01c8063755bff3c1161017c578063c1e28507116100d2578063c1e2850714610864578063c84d966514610885578063cc5b6e4a146108e6578063ccb98ffc146108fd578063cdae1ee01461091e578063cf64d0f51461093e578063cfe9232b1461095e578063cffbc29714610980578063d11b7509146109b1578063d35dc11c14610a25578063d547741f14610a45578063d6725d0c14610a65578063e61f00e614610a7d578063eb54f9ec14610a9d578063f9202d6314610ab457600080fd5b8063755bff3c146106a657806375b238fc146106c75780637a6944c5146106e95780637d33274f146107005780637dae3fb7146107215780637e3f71d514610741578063811b86cd146107615780638a5cd91e1461078157806391d1485414610796578063a217fddf146107b6578063a95c4d62146107cb578063ae91fa33146107ec578063b40a562714610809578063ba829d7114610820578063ba98b5ef1461083757600080fd5b80633659cfe6116102315780633659cfe6146104e757806338665e9f146105075780633de81dc4146105345780633e0a322d146105555780633e836b3d146105765780633efbfd8c1461058b578063408f2e10146105ac57806341da5432146105c1578063475d266a146105d65780634b449cba146105f65780634f1ef2861461060d57806352d1902d1461062057806354fd4d50146106355780635c1645671461066f5780636d7331411461068f57600080fd5b806301ffc9a7146102dc5780630283ce5b1461031157806302b65fb0146103335780630900f010146103635780630ac8e314146103835780631f642705146103a3578063201a6625146103b8578063248a9ca3146103da57806325a2471a1461040a57806327df3d3e1461042157806328f6a48a146104435780632f2ff15d14610459578063323c618314610479578063357a77d21461049957806336568abe146104c7575b600080fd5b3480156102e857600080fd5b506102fc6102f73660046154ab565b610ae2565b60405190151581526020015b60405180910390f35b34801561031d57600080fd5b5061033161032c366004615545565b610b19565b005b34801561033f57600080fd5b5061035560008051602061691483398151915281565b604051908152602001610308565b34801561036f57600080fd5b5061033161037e3660046155d0565b610c9e565b34801561038f57600080fd5b5061033161039e3660046155ed565b610caa565b3480156103af57600080fd5b50610331610f5e565b3480156103c457600080fd5b5061035560008051602061688d83398151915281565b3480156103e657600080fd5b506103556103f5366004615667565b600090815260c9602052604090206001015490565b34801561041657600080fd5b506103556101325481565b34801561042d57600080fd5b506103556000805160206168ad83398151915281565b34801561044f57600080fd5b5061013c54610355565b34801561046557600080fd5b50610331610474366004615680565b610fff565b34801561048557600080fd5b5061033161049436600461583c565b611029565b3480156104a557600080fd5b50610137546104ba906001600160a01b031681565b604051610308919061592f565b3480156104d357600080fd5b506103316104e2366004615680565b6112e2565b3480156104f357600080fd5b506103316105023660046155d0565b611360565b34801561051357600080fd5b50610527610522366004615943565b611425565b6040516103089190615999565b34801561054057600080fd5b50610136546104ba906001600160a01b031681565b34801561056157600080fd5b50610331610570366004615667565b61012f55565b34801561058257600080fd5b506103316115ef565b34801561059757600080fd5b5061013d546102fc9062010000900460ff1681565b3480156105b857600080fd5b50610355609681565b3480156105cd57600080fd5b50610331611653565b3480156105e257600080fd5b506105276105f13660046159dd565b6116b8565b34801561060257600080fd5b506103556101315481565b61033161061b366004615a1e565b611832565b34801561062c57600080fd5b506103556118e7565b34801561064157600080fd5b50604080518082018252600b81526a19195d995b1bdc1b595b9d60aa1b602082015290516103089190615ae9565b34801561067b57600080fd5b5061033161068a3660046155ed565b611995565b34801561069b57600080fd5b5061035561012e5481565b3480156106b257600080fd5b506103316106c1366004615667565b61013c55565b3480156106d357600080fd5b5061035560008051602061693483398151915281565b3480156106f557600080fd5b506103556101335481565b34801561070c57600080fd5b5061013a546104ba906001600160a01b031681565b34801561072d57600080fd5b5061033161073c3660046159dd565b611a30565b34801561074d57600080fd5b5061013d546102fc90610100900460ff1681565b34801561076d57600080fd5b5061033161077c3660046155d0565b611bd2565b34801561078d57600080fd5b50610331611c02565b3480156107a257600080fd5b506102fc6107b1366004615680565b611c6c565b3480156107c257600080fd5b50610355600081565b3480156107d757600080fd5b50610134546104ba906001600160a01b031681565b3480156107f857600080fd5b5061035568056bc75e2d6310000081565b34801561081557600080fd5b5061035561013c5481565b34801561082c57600080fd5b506103556101305481565b34801561084357600080fd5b50610857610852366004615667565b611c97565b6040516103089190615c5f565b34801561087057600080fd5b5061033161087f366004615667565b61013055565b34801561089157600080fd5b506108a56108a0366004615667565b611df4565b604080519788526001600160a01b039687166020890152870194909452606086019290925283166080850152151560a08401521660c082015260e001610308565b3480156108f257600080fd5b5061035561012d5481565b34801561090957600080fd5b50610331610918366004615667565b61013155565b34801561092a57600080fd5b50610331610939366004615c72565b611e56565b34801561094a57600080fd5b50610331610959366004615d08565b612027565b34801561096a57600080fd5b5061035560008051602061695483398151915281565b34801561098c57600080fd5b506102fc61099b3660046155d0565b6101356020526000908152604090205460ff1681565b3480156109bd57600080fd5b506109d16109cc366004615667565b612170565b60408051998a526001600160a01b0398891660208b015289019690965260608801949094526080870192909252841660a0860152151560c085015290911660e0830152151561010082015261012001610308565b348015610a3157600080fd5b50610857610a40366004615efc565b6121e2565b348015610a5157600080fd5b50610331610a60366004615680565b61236e565b348015610a7157600080fd5b506103556301da9c0081565b348015610a8957600080fd5b50610331610a98366004615f40565b612393565b348015610aa957600080fd5b5061035561012f5481565b348015610ac057600080fd5b50610ad4610acf3660046155ed565b612566565b604051610308929190615fd0565b60006001600160e01b03198216637965db0b60e01b1480610b1357506301ffc9a760e01b6001600160e01b03198316145b92915050565b600080516020616954833981519152610b318161259f565b600087815261013b602052604090206008015460ff1615610b655760405163041753a560e31b815260040160405180910390fd5b6101395461012e546040516307fec0e360e01b81526001600160a01b03909216916307fec0e391610ba3918b90600401918252602082015260400190565b600060405180830381600087803b158015610bbd57600080fd5b505af1158015610bd1573d6000803e3d6000fd5b5050505060005b84811015610c9457610136546001600160a01b03166348717eb788888885818110610c0557610c056160db565b9050602002016020810190610c1a91906155d0565b878786818110610c2c57610c2c6160db565b905060200201356040518463ffffffff1660e01b8152600401610c51939291906160f1565b600060405180830381600087803b158015610c6b57600080fd5b505af1158015610c7f573d6000803e3d6000fd5b5050505080610c8d9061612b565b9050610bd8565b5050505050505050565b610ca7816125a9565b50565b600080610cbb88888888888861262c565b9150915060005b8251811015610df45761013e838281518110610ce057610ce06160db565b60209081029190910181015182546001808201855560009485529383902082516008909202019081558183015193810180546001600160a01b0319166001600160a01b0390951694909417909355604081015160028401556060810151600384015560808101518051919392610d5e92600485019290910190615332565b5060a08201516005820180546001600160a01b0319166001600160a01b0390921691909117905560c08201518051610da091600684019160209091019061537d565b5060e082015160079091018054610100938401516001600160a01b0316909302610100600160a81b0319921515929092166001600160a81b031990931692909217179055610ded8161612b565b9050610cc2565b5060005b8151811015610f535761013f828281518110610e1657610e166160db565b60209081029190910181015182546001808201855560009485529383902082516009909202019081558183015193810180546001600160a01b0319166001600160a01b039095169490941790935560408101516002840155606081015160038401556080810151600484015560a08101518051919392610e9e92600585019290910190615332565b5060c08201516006820180546001600160a01b0319166001600160a01b0390921691909117905560e08201518051610ee091600784019160209091019061537d565b50610100828101516008929092018054610120850151610140909501516001600160a81b0319909116931515610100600160a81b031916939093176001600160a01b039094169091029290921760ff60a81b1916600160a81b91151591909102179055610f4c8161612b565b9050610df8565b505050505050505050565b600080516020616934833981519152610f768161259f565b61013d805462ff00001916620100001790556101395461012e5461012d54604051631258284760e21b81526001600160a01b0390931692634960a11c92610fca929091600401918252602082015260400190565b600060405180830381600087803b158015610fe457600080fd5b505af1158015610ff8573d6000803e3d6000fd5b5050505050565b600082815260c9602052604090206001015461101a8161259f565b6110248383612b2b565b505050565b600054610100900460ff16158080156110495750600054600160ff909116105b8061106a575061105830612bb1565b15801561106a575060005460ff166001145b6110d25760405162461bcd60e51b815260206004820152602e60248201527f496e697469616c697a61626c653a20636f6e747261637420697320616c72656160448201526d191e481a5b9a5d1a585b1a5e995960921b60648201526084015b60405180910390fd5b6000805460ff1916600117905580156110f5576000805461ff0019166101001790555b6110fd612bc0565b611105612bc0565b61110d612be9565b6111256000805160206168ad83398151915283612b2b565b8c8c604051602001611138929190616144565b60408051601f1981840301815290829052805160209182012061012d55611163918d918d9101616144565b60408051601f19818403018152919052805160209091012061012e55878911156111aa576040516372067af960e11b8152600481018a9052602481018990526044016110c9565b61012f8990556101308890556101318790556101328590556301da9c00670de0b6b3a76400006111da8989616154565b6111e49190616167565b6111ee919061617e565b6101335561013480546001600160a01b0319166001600160a01b03861617905560005b83518160ff16101561127b5760016101356000868460ff1681518110611239576112396160db565b6020908102919091018101516001600160a01b03168252810191909152604001600020805460ff1916911515919091179055611274816161a0565b9050611211565b50600061013c5561013d805460ff1916905580156112d3576000805461ff0019169055604051600181527f7f26b83ff96e1f2b6a682f133852f6798a09c465da95921460cefb38474024989060200160405180910390a15b50505050505050505050505050565b6001600160a01b03811633146113525760405162461bcd60e51b815260206004820152602f60248201527f416363657373436f6e74726f6c3a2063616e206f6e6c792072656e6f756e636560448201526e103937b632b9903337b91039b2b63360891b60648201526084016110c9565b61135c8282612c18565b5050565b6001600160a01b037f00000000000000000000000000000000000000000000000000000000000000001630036113a85760405162461bcd60e51b81526004016110c9906161bf565b7f00000000000000000000000000000000000000000000000000000000000000006001600160a01b03166113da612c7f565b6001600160a01b0316146114005760405162461bcd60e51b81526004016110c99061620b565b611409816125a9565b60408051600080825260208201909252610ca791839190612c9b565b60606101305442118061143a575061012f5442105b156114585760405163f046007760e01b815260040160405180910390fd5b61013d54610100900460ff16156114825760405163059e557960e41b815260040160405180910390fd5b61148a612e06565b6001600160a01b03821633036114b3576040516333d8ca2d60e11b815260040160405180910390fd5b6000836001600160401b038111156114cd576114cd6156f1565b6040519080825280602002602001820160405280156114f6578160200160208202803683370190505b50905060005b848110156115db57600061153c87878481811061151b5761151b6160db565b905060200281019061152d9190616257565b61153690616277565b33612e5f565b90508060000154838381518110611555576115556160db565b60209081029190910101526101395461012e5460405163050ecc8960e11b81526001600160a01b0390921691630a1d9912916115979185908a90600401616396565b600060405180830381600087803b1580156115b157600080fd5b505af11580156115c5573d6000803e3d6000fd5b5050505050806115d49061612b565b90506114fc565b5090506115e8600160fb55565b9392505050565b6000805160206169348339815191526116078161259f565b61013d805461ff00191690556101395461012e5461012d5460405163b423ac9d60e01b8152600481019290925260248201526001600160a01b039091169063b423ac9d90604401610fca565b60008051602061693483398151915261166b8161259f565b61013d805462ff0000191690556101395461012e5461012d54604051632044037760e21b8152600481019290925260248201526001600160a01b03909116906381100ddc90604401610fca565b6060610130544211806116cd575061012f5442105b156116eb5760405163f046007760e01b815260040160405180910390fd5b61013d54610100900460ff16156117155760405163059e557960e41b815260040160405180910390fd5b61171d612e06565b6000826001600160401b03811115611737576117376156f1565b604051908082528060200260200182016040528015611760578160200160208202803683370190505b50905060005b8381101561182557600061178586868481811061151b5761151b6160db565b9050806000015483838151811061179e5761179e6160db565b60209081029190910101526101395461012e5460405163050ecc8960e11b81526001600160a01b0390921691630a1d9912916117e1918590600090600401616396565b600060405180830381600087803b1580156117fb57600080fd5b505af115801561180f573d6000803e3d6000fd5b50505050508061181e9061612b565b9050611766565b509050610b13600160fb55565b6001600160a01b037f000000000000000000000000000000000000000000000000000000000000000016300361187a5760405162461bcd60e51b81526004016110c9906161bf565b7f00000000000000000000000000000000000000000000000000000000000000006001600160a01b03166118ac612c7f565b6001600160a01b0316146118d25760405162461bcd60e51b81526004016110c99061620b565b6118db826125a9565b61135c82826001612c9b565b6000306001600160a01b037f000000000000000000000000000000000000000000000000000000000000000016146119825760405162461bcd60e51b815260206004820152603860248201527f555550535570677261646561626c653a206d757374206e6f742062652063616c6044820152771b1959081d1a1c9bdd59da0819195b1959d85d1958d85b1b60421b60648201526084016110c9565b506000805160206168cd83398151915290565b610130544210156119b9576040516302a3f58760e51b815260040160405180910390fd5b60005b85811015611a2757611a178787838181106119d9576119d96160db565b905060200201358686848181106119f2576119f26160db565b90506020020135858585818110611a0b57611a0b6160db565b905060200201356134da565b611a208161612b565b90506119bc565b50505050505050565b61013d5462010000900460ff1615611a5b57604051631370a4e760e31b815260040160405180910390fd5b611a63612e06565b61012f54421015611a875760405163f046007760e01b815260040160405180910390fd5b6101305442118015611b0e575061013a60009054906101000a90046001600160a01b03166001600160a01b0316638dfea9e76040518163ffffffff1660e01b8152600401602060405180830381865afa158015611ae8573d6000803e3d6000fd5b505050506040513d601f19601f82011682018060405250810190611b0c9190616494565b155b15611b2c5760405163f046007760e01b815260040160405180910390fd5b60005b81811015611bc757611bb7838383818110611b4c57611b4c6160db565b905060200201353361013b6000878787818110611b6b57611b6b6160db565b90506020020135815260200190815260200160002060070161013b6000888888818110611b9a57611b9a6160db565b90506020020135815260200190815260200160002060050161360c565b611bc08161612b565b9050611b2f565b5061135c600160fb55565b600080516020616934833981519152611bea8161259f565b61135c60008051602061691483398151915283612b2b565b600080516020616934833981519152611c1a8161259f565b61013d805461ff0019166101001790556101395461012e5461012d5460405163210d6add60e21b81526001600160a01b0390931692638435ab7492610fca929091600401918252602082015260400190565b600091825260c9602090815260408084206001600160a01b0393909316845291905290205460ff1690565b611c9f6153d2565b600082815261013b60209081526040918290208251610160810184528154815260018201546001600160a01b03168184015260028201548185015260038201546060820152600482015460808201526005820180548551818602810186019096528086529194929360a08601939290830182828015611d3d57602002820191906000526020600020905b815481526020019060010190808311611d29575b505050918352505060068201546001600160a01b03166020808301919091526007830180546040805182850281018501825282815294019392830182828015611daf57602002820191906000526020600020905b81546001600160a01b03168152600190910190602001808311611d91575b50505091835250506008919091015460ff808216151560208401526001600160a01b036101008304166040840152600160a81b90910416151560609091015292915050565b61013e8181548110611e0557600080fd5b60009182526020909120600890910201805460018201546002830154600384015460058501546007909501549395506001600160a01b0392831694919390929182169160ff82169161010090041687565b6000805160206168ad833981519152611e6e8161259f565b61013d5460ff1615611e9357604051634ce377bb60e11b815260040160405180910390fd5b61013d805460ff191660011790556001600160a01b038716611ec85760405163a258508760e01b815260040160405180910390fd5b61013780546001600160a01b03808a166001600160a01b03199283161790925561013a8054928b1692909116919091179055611f1260008051602061695483398151915289612b2b565b611f2a60008051602061688d83398151915284612b2b565b611f4260008051602061693483398151915283612b2b565b61013980546001600160a01b038881166001600160a01b03199283168117909355610136805489831690841617905561013880549188169190921617905561012d5461012e5461012f54610130546101325461013354604051632b6cea3160e01b8152600481019690965260248601949094523060448601526064850192909252608484015268056bc75e2d6310000060a484015260c483015260e4820152632b6cea319061010401600060405180830381600087803b15801561200557600080fd5b505af1158015612019573d6000803e3d6000fd5b505050505050505050505050565b612039612033836164b1565b826121e2565b8235600090815261013b602090815260409182902083518155838201516001820180546001600160a01b0319166001600160a01b03909216919091179055918301516002830155606083015160038301556080830151600483015560a083015180516120ab9260058501920190615332565b5060c08201516006820180546001600160a01b0319166001600160a01b0390921691909117905560e082015180516120ed91600784019160209091019061537d565b50610100828101516008929092018054610120850151610140909501516001600160a81b0319909116931515610100600160a81b031916939093176001600160a01b039094169091029290921760ff60a81b1916600160a81b9115159190910217905561013c8054600191906000906121679084906164bd565b90915550505050565b61013f818154811061218157600080fd5b600091825260209091206009909102018054600182015460028301546003840154600485015460068601546008909601549496506001600160a01b039384169592949193909281169160ff8082169261010083041691600160a81b90041689565b6121ea6153d2565b8260e00151156122b2576040805161016081018252845181526020808601516001600160a01b0316818301528583015183519182015280830185905290918201906060016040516020818303038152906040528051906020012081526020018460400151815260200184606001518152602001846080015181526020018460a001516001600160a01b031681526020018460c0015181526020018460e00151151581526020018461010001516001600160a01b03168152602001600115158152509050610b13565b6040805161016081018252845181526020808601516001600160a01b0316818301528583015183519182015280830185905290918201906060016040516020818303038152906040528051906020012081526020016000815260200184606001518152602001846080015181526020018460a001516001600160a01b031681526020018460c0015181526020018460e00151151581526020018461010001516001600160a01b0316815260200160001515815250905092915050565b600082815260c960205260409020600101546123898161259f565b6110248383612c18565b61013d54610100900460ff16156123bd5760405163059e557960e41b815260040160405180910390fd5b6000805160206169148339815191526123d58161259f565b6123dd612e06565b610130544211156124015760405163f046007760e01b815260040160405180910390fd5b816080013560000361254b578135600090815261013b60205260408120600401549003612444576040516311ebb27f60e11b8152823560048201526024016110c9565b8135600090815261013b602052604081208181556001810180546001600160a01b03191690556002810182905560038101829055600481018290559061248d600583018261542d565b6006820180546001600160a01b03191690556124ad60078301600061542d565b5060080180546001600160b01b031916905561013c8054600191906000906124d6908490616154565b90915550506101395461012e546040516307fec0e360e01b81526004810191909152833560248201526001600160a01b03909116906307fec0e390604401600060405180830381600087803b15801561252e57600080fd5b505af1158015612542573d6000803e3d6000fd5b5050505061255c565b61255c612557836164d0565b613889565b61135c600160fb55565b6060806000805160206169548339815191526125818161259f565b61258f89898989898961262c565b9250925050965096945050505050565b610ca78133613ac5565b60008051602061688d8339815191526125c18161259f565b6101395460405163b3c2d50b60e01b81523060048201526001600160a01b0384811660248301529091169063b3c2d50b906044015b600060405180830381600087803b15801561261057600080fd5b505af1158015612624573d6000803e3d6000fd5b505050505050565b61013c54606090819083612640878a6164bd565b61264a91906164bd565b1461266f5761013c54604051633c123a1960e01b81526004016110c991815260200190565b60005b858110156127f357600061013b6000898985818110612693576126936160db565b905060200201358152602001908152602001600020905080600401546000036126eb578787838181106126c8576126c86160db565b905060200201356040516311ebb27f60e11b81526004016110c991815260200190565b600881015460ff1661272c57878783818110612709576127096160db565b9050602002013560405163103dad4560e11b81526004016110c991815260200190565b60008160080160019054906101000a90046001600160a01b03169050806001600160a01b0316631320834f6040518163ffffffff1660e01b8152600401602060405180830381865afa158015612786573d6000803e3d6000fd5b505050506040513d601f19601f820116820180604052508101906127aa91906165b3565b4211156127c15781546127bc90613b1e565b6127e0565b8154604051631a034f1360e11b815260048101919091526024016110c9565b5050806127ec9061612b565b9050612672565b6060600080806128048d8d8a613bb6565b92965090945092509050600061281b8e8e8661421d565b90506000836001600160401b03811115612837576128376156f1565b60405190808252806020026020018201604052801561287057816020015b61285d6153d2565b8152602001906001900390816128555790505b50905060008097505b8a881015612aa557600061013b60008e8e8c81811061289a5761289a6160db565b905060200201358152602001908152602001600020905080600401546000036128cf578c8c8a8181106126c8576126c86160db565b6008810154600160a81b900460ff1615612918578c8c8a8181106128f5576128f56160db565b9050602002013560405163b53dcb6360e01b81526004016110c991815260200190565b60408051610160810182528254815260018301546001600160a01b031660208083019190915260028401548284015260038401546060830152600484015460808301526005840180548451818402810184019095528085529293859360a08601939192918301828280156129ab57602002820191906000526020600020905b815481526020019060010190808311612997575b505050918352505060068201546001600160a01b03166020808301919091526007830180546040805182850281018501825282815294019392830182828015612a1d57602002820191906000526020600020905b81546001600160a01b031681526001909101906020018083116129ff575b50505091835250506008919091015460ff808216151560208401526001600160a01b036101008304166040840152600160a81b9091041615156060909101528351849084908110612a7057612a706160db565b602002602001018190525081612a859061612b565b9150612a948160000154613b1e565b50612a9e8861612b565b9750612879565b600097505b83881015612b0557868881518110612ac457612ac46160db565b6020026020010151828281518110612ade57612ade6160db565b602002602001018190525080612af39061612b565b9050612afe8861612b565b9750612aaa565b61013c5415612b1657612b166165cc565b50909e909d509b505050505050505050505050565b612b358282611c6c565b61135c57600082815260c9602090815260408083206001600160a01b03851684529091529020805460ff19166001179055612b6d3390565b6001600160a01b0316816001600160a01b0316837f2f8788117e7eff1d82e926ec794901d17c78024a50270940304540a733656f0d60405160405180910390a45050565b6001600160a01b03163b151590565b600054610100900460ff16612be75760405162461bcd60e51b81526004016110c9906165e2565b565b600054610100900460ff16612c105760405162461bcd60e51b81526004016110c9906165e2565b612be7614463565b612c228282611c6c565b1561135c57600082815260c9602090815260408083206001600160a01b0385168085529252808320805460ff1916905551339285917ff6391f5c32d9c69d2a47ea670b442974b53935d1edc7fd64eb21e047a839171b9190a45050565b6000805160206168cd833981519152546001600160a01b031690565b7f4910fdfa16fed3260ed0e7147f7cc6da11a60208b5b9406d12a635614ffd91435460ff1615612cce576110248361448a565b826001600160a01b03166352d1902d6040518163ffffffff1660e01b8152600401602060405180830381865afa925050508015612d28575060408051601f3d908101601f19168201909252612d25918101906165b3565b60015b612d8b5760405162461bcd60e51b815260206004820152602e60248201527f45524331393637557067726164653a206e657720696d706c656d656e7461746960448201526d6f6e206973206e6f74205555505360901b60648201526084016110c9565b6000805160206168cd8339815191528114612dfa5760405162461bcd60e51b815260206004820152602960248201527f45524331393637557067726164653a20756e737570706f727465642070726f786044820152681a58589b195555525160ba1b60648201526084016110c9565b50611024838383614524565b600260fb5403612e585760405162461bcd60e51b815260206004820152601f60248201527f5265656e7472616e637947756172643a207265656e7472616e742063616c6c0060448201526064016110c9565b600260fb55565b6000826020015182816001600160a01b0316816001600160a01b031614612e99576040516305732abb60e51b815260040160405180910390fd5b609661013c5410612ebd576040516346f317d760e01b815260040160405180910390fd5b8451600090815261013b60205260408120600401541580159190612f2a576020808801518851600090815261013b9092526040909120600101546001600160a01b03908116911614612f22576040516305732abb60e51b815260040160405180910390fd5b508551612f39565b8651612f36908761454f565b90505b60a0870151610134546001600160a01b03908116911614612f73578660a0015160405163e34b641f60e01b81526004016110c9919061592f565b60005b8760c00151518110156130115761013560008960c001518381518110612f9e57612f9e6160db565b6020908102919091018101516001600160a01b031682528101919091526040016000205460ff16613001578760c001518181518110612fdf57612fdf6160db565b602002602001015160405163052baa4960e31b81526004016110c9919061592f565b61300a8161612b565b9050612f76565b50610132548760600151101561304257866060015160405163235c188560e01b81526004016110c991815260200190565b61305987606001518860c0015189608001516145d6565b15613077576040516354f8f85560e11b815260040160405180910390fd5b6000805b8860c00151518110156132e857831561322d57600083815261013b602052604090206005018054829081106130b2576130b26160db565b90600052602060002001549150886080015181815181106130d5576130d56160db565b602002602001015182101561319e576101365460208a015160c08b015180516001600160a01b0390931692632391281c92919085908110613118576131186160db565b6020026020010151858d608001518681518110613137576131376160db565b60200260200101516131499190616154565b6040518463ffffffff1660e01b8152600401613167939291906160f1565b600060405180830381600087803b15801561318157600080fd5b505af1158015613195573d6000803e3d6000fd5b505050506132d8565b886080015181815181106131b4576131b46160db565b6020026020010151821115613228576101365460208a015160c08b015180516001600160a01b03909316926348717eb7929190859081106131f7576131f76160db565b60200260200101518c608001518581518110613215576132156160db565b6020026020010151866131499190616154565b6132d8565b6101365460208a015160c08b015180516001600160a01b0390931692632391281c92919085908110613261576132616160db565b60200260200101518c60800151858151811061327f5761327f6160db565b60200260200101516040518463ffffffff1660e01b81526004016132a5939291906160f1565b600060405180830381600087803b1580156132bf57600080fd5b505af11580156132d3573d6000803e3d6000fd5b505050505b6132e18161612b565b905061307b565b5060405180610160016040528083815260200189602001516001600160a01b03168152602001896040015181526020016000815260200189606001518152602001896080015181526020018960a001516001600160a01b031681526020018960c00151815260200160001515815260200160006001600160a01b031681526020016000151581525061013b60008481526020019081526020016000206000820151816000015560208201518160010160006101000a8154816001600160a01b0302191690836001600160a01b0316021790555060408201518160020155606082015181600301556080820151816004015560a08201518160050190805190602001906133f5929190615332565b5060c08201516006820180546001600160a01b0319166001600160a01b0390921691909117905560e0820151805161343791600784019160209091019061537d565b50610100828101516008929092018054610120850151610140909501516001600160a81b0319909116931515610100600160a81b031916939093176001600160a01b039094169091029290921760ff60a81b1916600160a81b91151591909102179055826134b957600161013c60008282546134b391906164bd565b90915550505b50600090815261013b602052604090209695505050505050565b600160fb55565b600083815261013b6020908152604091829020600201548251918201859052918101839052606001604051602081830303815290604052805190602001201461353957604051637afe112160e11b8152600481018490526024016110c9565b68056bc75e2d6310000082111561357557604051632dc71e8d60e01b81526004810184905268056bc75e2d6310000060248201526044016110c9565b600083815261013b60205260409081902060038101849055600801805460ff60a81b1916600160a81b1790556101395461012e5491516315d1070b60e11b8152600481019290925260248201859052604482018490526001600160a01b031690632ba20e1690606401600060405180830381600087803b1580156135f857600080fd5b505af1158015611a27573d6000803e3d6000fd5b600084815261013b60205260408120600401549003613641576040516311ebb27f60e11b8152600481018590526024016110c9565b600084815261013b60205260409020600101546001600160a01b0384811691161461367f576040516305732abb60e51b815260040160405180910390fd5b600084815261013b602052604090206008015460ff16156136b35760405163041753a560e31b815260040160405180910390fd5b60005b8254811015613787576101365483546001600160a01b03909116906348717eb79086908690859081106136eb576136eb6160db565b9060005260206000200160009054906101000a90046001600160a01b031685858154811061371b5761371b6160db565b90600052602060002001546040518463ffffffff1660e01b8152600401613744939291906160f1565b600060405180830381600087803b15801561375e57600080fd5b505af1158015613772573d6000803e3d6000fd5b50505050806137809061612b565b90506136b6565b50600084815261013b602052604081208181556001810180546001600160a01b0319169055600281018290556003810182905560048101829055906137cf600583018261542d565b6006820180546001600160a01b03191690556137ef60078301600061542d565b5060080180546001600160b01b031916905561013c805460019190600090613818908490616154565b90915550506101395461012e546040516307fec0e360e01b81526001600160a01b03909216916307fec0e39161385b918890600401918252602082015260400190565b600060405180830381600087803b15801561387557600080fd5b505af1158015610c94573d6000803e3d6000fd5b609661013c54106138ad576040516346f317d760e01b815260040160405180910390fd5b8061010001516138d657805160405163103dad4560e11b815260048101919091526024016110c9565b610132548160800151101561390657806080015160405163235c188560e01b81526004016110c991815260200190565b8051600090815261013b602052604090206004015460c082015161013454911515916001600160a01b039081169116146139535760405163ed82d81b60e01b815260040160405180910390fd5b8151600090815261013b602090815260409182902084518155818501516001820180546001600160a01b0319166001600160a01b03909216919091179055918401516002830155606084015160038301556080840151600483015560a084015180518593926139c9926005850192910190615332565b5060c08201516006820180546001600160a01b0319166001600160a01b0390921691909117905560e08201518051613a0b91600784019160209091019061537d565b50610100828101516008929092018054610120850151610140909501516001600160a81b0319909116931515610100600160a81b031916939093176001600160a01b039094169091029290921760ff60a81b1916600160a81b9115159190910217905580613a8d57600161013c6000828254613a8791906164bd565b90915550505b6101395461012e5460405163050ecc8960e11b81526001600160a01b0390921691630a1d9912916125f691869060009060040161662d565b613acf8282611c6c565b61135c57613adc8161482d565b613ae783602061483f565b604051602001613af892919061665e565b60408051601f198184030181529082905262461bcd60e51b82526110c991600401615ae9565b600081815261013b602052604081208181556001810180546001600160a01b031916905560028101829055600381018290556004810182905590613b65600583018261542d565b6006820180546001600160a01b0319169055613b8560078301600061542d565b5060080180546001600160b01b031916905561013c805460019190600090613bae908490616154565b909155505050565b606060008080858582826001600160401b03811115613bd757613bd76156f1565b604051908082528060200260200182016040528015613c1057816020015b613bfd6153d2565b815260200190600190039081613bf55790505b50905060008060005b8b81101561420857600061013b60008f8f85818110613c3a57613c3a6160db565b90506020020135815260200190815260200160002090508060040154600003613c6f578d8d838181106126c8576126c86160db565b8060030154831115613c94576040516370dcb33760e11b815260040160405180910390fd5b80600301549250600881015460ff1615613efc5760008160080160019054906101000a90046001600160a01b03169050806001600160a01b0316631320834f6040518163ffffffff1660e01b8152600401602060405180830381865afa158015613d02573d6000803e3d6000fd5b505050506040513d601f19601f82011682018060405250810190613d2691906165b3565b421115613d4c57815460405163bcbe400960e01b815260048101919091526024016110c9565b613d5682826149da565b613ef657613d638761612b565b60408051610160810182528454815260018501546001600160a01b03166020808301919091526002860154828401526003860154606083015260048601546080830152600586018054845181840281018401909552808552949b509193869360a08601939092909190830182828015613dfb57602002820191906000526020600020905b815481526020019060010190808311613de7575b505050918352505060068201546001600160a01b03166020808301919091526007830180546040805182850281018501825282815294019392830182828015613e6d57602002820191906000526020600020905b81546001600160a01b03168152600190910190602001808311613e4f575b50505091835250506008919091015460ff808216151560208401526001600160a01b036101008304166040840152600160a81b9091041615156060909101528651879087908110613ec057613ec06160db565b602002602001018190525084613ed59061612b565b9450613ee0886166cd565b9750613eef8260000154613b1e565b50506141f8565b50613f2e565b6008810154600160a81b900460ff16613f2e5780546040516362d45c6f60e11b815260048101919091526024016110c9565b613ff08160040154826003015483600701805480602002602001604051908101604052809291908181526020018280548015613f9357602002820191906000526020600020905b81546001600160a01b03168152600190910190602001808311613f75575b505050505084600501805480602002602001604051908101604052809291908181526020018280548015613fe657602002820191906000526020600020905b815481526020019060010190808311613fd2575b5050505050614d8c565b156141f6576101395461012e548254604051635bcf235d60e01b8152600481019290925260248201526001600160a01b0390911690635bcf235d90604401600060405180830381600087803b15801561404857600080fd5b505af115801561405c573d6000803e3d6000fd5b505050508561406a9061612b565b60408051610160810182528354815260018401546001600160a01b03166020808301919091526002850154828401526003850154606083015260048501546080830152600585018054845181840281018401909552808552949a509193859360a0860193909290919083018282801561410257602002820191906000526020600020905b8154815260200190600101908083116140ee575b505050918352505060068201546001600160a01b0316602080830191909152600783018054604080518285028101850182528281529401939283018282801561417457602002820191906000526020600020905b81546001600160a01b03168152600190910190602001808311614156575b50505091835250506008919091015460ff808216151560208401526001600160a01b036101008304166040840152600160a81b90910416151560609091015285518690869081106141c7576141c76160db565b6020026020010181905250836141dc9061612b565b93506141e7876166cd565b96506141f68160000154613b1e565b505b6142018161612b565b9050613c19565b50919b939a5091985090965090945050505050565b60606000826001600160401b03811115614239576142396156f1565b60405190808252806020026020018201604052801561427257816020015b61425f61544b565b8152602001906001900390816142575790505b5090506000805b8581101561445857600061013b600089898581811061429a5761429a6160db565b905060200201358152602001908152602001600020905080600401546000036142c35750614448565b60408051610160810182528254815260018301546001600160a01b0316602080830191909152600284015482840152600384015460608301526004840154608083015260058401805484518184028101840190955280855261440e94869360a086019391929083018282801561435857602002820191906000526020600020905b815481526020019060010190808311614344575b505050918352505060068201546001600160a01b031660208083019190915260078301805460408051828502810185018252828152940193928301828280156143ca57602002820191906000526020600020905b81546001600160a01b031681526001909101906020018083116143ac575b50505091835250506008919091015460ff808216151560208401526001600160a01b036101008304166040840152600160a81b909104161515606090910152614ffd565b848481518110614420576144206160db565b602002602001018190525082806144369061612b565b9350506144468160000154613b1e565b505b6144518161612b565b9050614279565b509095945050505050565b600054610100900460ff166134d35760405162461bcd60e51b81526004016110c9906165e2565b61449381612bb1565b6144f55760405162461bcd60e51b815260206004820152602d60248201527f455243313936373a206e657720696d706c656d656e746174696f6e206973206e60448201526c1bdd08184818dbdb9d1c9858dd609a1b60648201526084016110c9565b6000805160206168cd83398151915280546001600160a01b0319166001600160a01b0392909216919091179055565b61452d8361508f565b60008251118061453a5750805b156110245761454983836150cf565b50505050565b60008083833060405160200161458993929190928352606091821b6001600160601b03199081166020850152911b16603482015260480190565b60408051601f198184030181529181528151602092830120600081815261013b909352912060040154909150156115e8576040516310f5216760e21b8152600481018290526024016110c9565b61013854610134546040516303d3c9db60e21b815260009283926001600160a01b0391821692630f4f276c9261461292169089906004016166e4565b602060405180830381865afa15801561462f573d6000803e3d6000fd5b505050506040513d601f19601f8201168201806040525081019061465391906166fd565b60408051602081019091526000808252919250905b855181101561480b576000868281518110614685576146856160db565b602090810291909101015161013654604051632a1e8cdb60e01b81529192506000916001600160a01b0390911690632a1e8cdb906146c790859060040161592f565b602060405180830381865afa1580156146e4573d6000803e3d6000fd5b505050506040513d601f19601f8201168201806040525081019061470891906165b3565b905086838151811061471c5761471c6160db565b60200260200101516000036147325750506147fb565b60006147e961013860009054906101000a90046001600160a01b03166001600160a01b0316630f4f276c858b888151811061476f5761476f6160db565b60200260200101516040518363ffffffff1660e01b81526004016147949291906166e4565b602060405180830381865afa1580156147b1573d6000803e3d6000fd5b505050506040513d601f19601f820116820180604052508101906147d591906166fd565b6040518060200160405280858152506150f4565b90506147f58186615137565b94505050505b6148048161612b565b9050614668565b50815181511015614821576001925050506115e8565b50600095945050505050565b6060610b136001600160a01b03831660145b6060600061484e836002616167565b6148599060026164bd565b6001600160401b03811115614870576148706156f1565b6040519080825280601f01601f19166020018201604052801561489a576020820181803683370190505b509050600360fc1b816000815181106148b5576148b56160db565b60200101906001600160f81b031916908160001a905350600f60fb1b816001815181106148e4576148e46160db565b60200101906001600160f81b031916908160001a9053506000614908846002616167565b6149139060016164bd565b90505b600181111561498b576f181899199a1a9b1b9c1cb0b131b232b360811b85600f1660108110614947576149476160db565b1a60f81b82828151811061495d5761495d6160db565b60200101906001600160f81b031916908160001a90535060049490941c93614984816166cd565b9050614916565b5083156115e85760405162461bcd60e51b815260206004820181905260248201527f537472696e67733a20686578206c656e67746820696e73756666696369656e7460448201526064016110c9565b6001820154604051632762697d60e01b815260009182916001600160a01b0385811692632762697d92614a13929091169060040161592f565b602060405180830381865afa158015614a30573d6000803e3d6000fd5b505050506040513d601f19601f82011682018060405250810190614a5491906165b3565b905080600003614a68576000915050610b13565b604080516020808201835261013354825282518082018085526101375463fa19d0ed60e01b9091529351600094614af9949383926001600160a01b039092169163fa19d0ed91602480860192908187030181865afa158015614ace573d6000803e3d6000fd5b505050506040513d601f19601f82011682018060405250810190614af291906165b3565b9052615163565b6000015190506000614b52614b4d6040518060200160405280670de0b6b3a764000087614b269190616167565b9052604080516020810190915280614b4687670de0b6b3a7640000616154565b90526150f4565b6151a2565b90508560040154811015614b6857600486018190555b600081670de0b6b3a76400008860040154614b839190616167565b614b8d919061617e565b90506000866001600160a01b0316633de81dc46040518163ffffffff1660e01b8152600401602060405180830381865afa158015614bcf573d6000803e3d6000fd5b505050506040513d601f19601f82011682018060405250810190614bf3919061673e565b6001890154604051636f3fc39760e11b815291925060009182916001600160a01b038086169263de7f872e92614c2d92169060040161592f565b600060405180830381865afa158015614c4a573d6000803e3d6000fd5b505050506040513d6000823e601f3d908101601f19168201604052614c7291908101906167b6565b90925090506000805b8351811015614d1057614cb5604051806020016040528088815250848381518110614ca857614ca86160db565b60200260200101516151ba565b91508b6005018181548110614ccc57614ccc6160db565b90600052602060002001548214614d0057818c6005018281548110614cf357614cf36160db565b6000918252602090912001555b614d098161612b565b9050614c7b565b506101395461012e5460405163050ecc8960e11b81526001600160a01b0390921691630a1d991291614d49918f90600090600401616396565b600060405180830381600087803b158015614d6357600080fd5b505af1158015614d77573d6000803e3d6000fd5b5060019e9d5050505050505050505050505050565b60008084600003614d9e575084614e1b565b6000614de86040518060200160405280670de0b6b3a7640000815250614de360405180602001604052806101335481525060405180602001604052808b815250615163565b615137565b9050614e17614b4d6040518060200160405280670de0b6b3a76400008b614e0f9190616167565b905283615163565b9150505b61013854610134546040516303d3c9db60e21b81526000926001600160a01b0390811692630f4f276c92614e57929091169086906004016166e4565b602060405180830381865afa158015614e74573d6000803e3d6000fd5b505050506040513d601f19601f82011682018060405250810190614e9891906166fd565b60408051602081019091526000808252919250905b8651811015614fd6576000878281518110614eca57614eca6160db565b6020908102919091010151610136546040516320db25d560e01b81529192506000916001600160a01b03909116906320db25d590614f0c90859060040161592f565b602060405180830381865afa158015614f29573d6000803e3d6000fd5b505050506040513d601f19601f82011682018060405250810190614f4d91906165b3565b9050878381518110614f6157614f616160db565b6020026020010151600003614f77575050614fc6565b6000614fb461013860009054906101000a90046001600160a01b03166001600160a01b0316630f4f276c858c888151811061476f5761476f6160db565b9050614fc08186615137565b94505050505b614fcf8161612b565b9050614ead565b50815181511015614fed5760019350505050614ff5565b600093505050505b949350505050565b61500561544b565b6040518061012001604052808360000151815260200183602001516001600160a01b0316815260200183606001518152602001836080015181526020018360a0015181526020018360c001516001600160a01b031681526020018360e001518152602001836101000151151581526020018361012001516001600160a01b03168152509050919050565b6150988161448a565b6040516001600160a01b038216907fbc7cd75a20ee27fd9adebab32041f755214dbc6bffa90cc0225b39da2e5c2d3b90600090a250565b60606115e883836040518060600160405280602781526020016168ed602791396151d2565b604080516020810190915260008152604051806020016040528061512e6151278660000151670de0b6b3a764000061524a565b8551615256565b90529392505050565b604080516020810190915260008152604051806020016040528061512e85600001518560000151615262565b6040805160208101909152600081526040518060200160405280670de0b6b3a76400006151988660000151866000015161524a565b61512e919061617e565b8051600090610b1390670de0b6b3a76400009061617e565b6000806151c7848461526e565b9050614ff5816151a2565b6060600080856001600160a01b0316856040516151ef919061687a565b600060405180830381855af49150503d806000811461522a576040519150601f19603f3d011682016040523d82523d6000602084013e61522f565b606091505b509150915061524086838387615296565b9695505050505050565b60006115e88284616167565b60006115e8828461617e565b60006115e882846164bd565b604080516020810190915260008152604051806020016040528061512e85600001518561524a565b606083156153035782516000036152fc576152b085612bb1565b6152fc5760405162461bcd60e51b815260206004820152601d60248201527f416464726573733a2063616c6c20746f206e6f6e2d636f6e747261637400000060448201526064016110c9565b5081614ff5565b614ff583838151156153185781518083602001fd5b8060405162461bcd60e51b81526004016110c99190615ae9565b82805482825590600052602060002090810192821561536d579160200282015b8281111561536d578251825591602001919060010190615352565b50615379929150615496565b5090565b82805482825590600052602060002090810192821561536d579160200282015b8281111561536d57825182546001600160a01b0319166001600160a01b0390911617825560209092019160019091019061539d565b604080516101608101825260008082526020820181905291810182905260608082018390526080820183905260a0820181905260c0820183905260e08201526101008101829052610120810182905261014081019190915290565b5080546000825590600052602060002090810190610ca79190615496565b604080516101208101825260008082526020820181905291810182905260608082018390526080820181905260a0820183905260c082015260e0810182905261010081019190915290565b5b808211156153795760008155600101615497565b6000602082840312156154bd57600080fd5b81356001600160e01b0319811681146115e857600080fd5b6001600160a01b0381168114610ca757600080fd5b80356154f5816154d5565b919050565b60008083601f84011261550c57600080fd5b5081356001600160401b0381111561552357600080fd5b6020830191508360208260051b850101111561553e57600080fd5b9250929050565b6000806000806000806080878903121561555e57600080fd5b863595506020870135615570816154d5565b945060408701356001600160401b038082111561558c57600080fd5b6155988a838b016154fa565b909650945060608901359150808211156155b157600080fd5b506155be89828a016154fa565b979a9699509497509295939492505050565b6000602082840312156155e257600080fd5b81356115e8816154d5565b6000806000806000806060878903121561560657600080fd5b86356001600160401b038082111561561d57600080fd5b6156298a838b016154fa565b9098509650602089013591508082111561564257600080fd5b61564e8a838b016154fa565b909650945060408901359150808211156155b157600080fd5b60006020828403121561567957600080fd5b5035919050565b6000806040838503121561569357600080fd5b8235915060208301356156a5816154d5565b809150509250929050565b60008083601f8401126156c257600080fd5b5081356001600160401b038111156156d957600080fd5b60208301915083602082850101111561553e57600080fd5b634e487b7160e01b600052604160045260246000fd5b60405161012081016001600160401b038111828210171561572a5761572a6156f1565b60405290565b60405160e081016001600160401b038111828210171561572a5761572a6156f1565b60405161016081016001600160401b038111828210171561572a5761572a6156f1565b604051601f8201601f191681016001600160401b038111828210171561579d5761579d6156f1565b604052919050565b60006001600160401b038211156157be576157be6156f1565b5060051b60200190565b600082601f8301126157d957600080fd5b813560206157ee6157e9836157a5565b615775565b82815260059290921b8401810191818101908684111561580d57600080fd5b8286015b84811015615831578035615824816154d5565b8352918301918301615811565b509695505050505050565b6000806000806000806000806000806000806101408d8f03121561585f57600080fd5b6001600160401b038d35111561587457600080fd5b6158818e8e358f016156b0565b909c509a506001600160401b0360208e0135111561589e57600080fd5b6158ae8e60208f01358f016156b0565b909a50985060408d0135975060608d0135965060808d0135955060a08d0135945060c08d013593506158e260e08e016154ea565b92506001600160401b036101008e013511156158fd57600080fd5b61590e8e6101008f01358f016157c8565b915061591d6101208e016154ea565b90509295989b509295989b509295989b565b6001600160a01b0391909116815260200190565b60008060006040848603121561595857600080fd5b83356001600160401b0381111561596e57600080fd5b61597a868287016154fa565b909450925050602084013561598e816154d5565b809150509250925092565b6020808252825182820181905260009190848201906040850190845b818110156159d1578351835292840192918401916001016159b5565b50909695505050505050565b600080602083850312156159f057600080fd5b82356001600160401b03811115615a0657600080fd5b615a12858286016154fa565b90969095509350505050565b60008060408385031215615a3157600080fd5b8235615a3c816154d5565b91506020838101356001600160401b0380821115615a5957600080fd5b818601915086601f830112615a6d57600080fd5b813581811115615a7f57615a7f6156f1565b615a91601f8201601f19168501615775565b91508082528784828501011115615aa757600080fd5b80848401858401376000848284010152508093505050509250929050565b60005b83811015615ae0578181015183820152602001615ac8565b50506000910152565b6020815260008251806020840152615b08816040850160208701615ac5565b601f01601f19169190910160400192915050565b6001600160a01b03169052565b600081518084526020808501945080840160005b83811015615b5957815187529582019590820190600101615b3d565b509495945050505050565b600081518084526020808501945080840160005b83811015615b595781516001600160a01b031687529582019590820190600101615b78565b6000610160825184526020830151615bb86020860182615b1c565b5060408301516040850152606083015160608501526080830151608085015260a08301518160a0860152615bee82860182615b29565b91505060c0830151615c0360c0860182615b1c565b5060e083015184820360e0860152615c1b8282615b64565b91505061010080840151615c328287018215159052565b505061012080840151615c4782870182615b1c565b50506101409283015115159390920192909252919050565b6020815260006115e86020830184615b9d565b600080600080600080600060e0888a031215615c8d57600080fd5b8735615c98816154d5565b96506020880135615ca8816154d5565b95506040880135615cb8816154d5565b94506060880135615cc8816154d5565b93506080880135615cd8816154d5565b925060a0880135615ce8816154d5565b915060c0880135615cf8816154d5565b8091505092959891949750929550565b60008060408385031215615d1b57600080fd5b82356001600160401b03811115615d3157600080fd5b83016101208186031215615d4457600080fd5b946020939093013593505050565b600082601f830112615d6357600080fd5b81356020615d736157e9836157a5565b82815260059290921b84018101918181019086841115615d9257600080fd5b8286015b848110156158315780358352918301918301615d96565b600082601f830112615dbe57600080fd5b81356020615dce6157e9836157a5565b82815260059290921b84018101918181019086841115615ded57600080fd5b8286015b84811015615831578035615e04816154d5565b8352918301918301615df1565b8015158114610ca757600080fd5b80356154f581615e11565b60006101208284031215615e3d57600080fd5b615e45615707565b905081358152615e57602083016154ea565b6020820152604082013560408201526060820135606082015260808201356001600160401b0380821115615e8a57600080fd5b615e9685838601615d52565b6080840152615ea760a085016154ea565b60a084015260c0840135915080821115615ec057600080fd5b50615ecd84828501615dad565b60c083015250615edf60e08301615e1f565b60e0820152610100615ef28184016154ea565b9082015292915050565b60008060408385031215615f0f57600080fd5b82356001600160401b03811115615f2557600080fd5b615f3185828601615e2a565b95602094909401359450505050565b600060208284031215615f5257600080fd5b81356001600160401b03811115615f6857600080fd5b820161016081850312156115e857600080fd5b600081518084526020808501808196508360051b8101915082860160005b85811015615fc3578284038952615fb1848351615b9d565b98850198935090840190600101615f99565b5091979650505050505050565b60006040808301818452808651808352606092508286019150828160051b8701016020808a0160005b848110156160bb57605f198a85030186528151610120815186528482015161602386880182615b1c565b50898201518a8701528882015189870152608080830151828289015261604b83890182615b29565b9250505060a08083015161606182890182615b1c565b505060c0808301518783038289015261607a8382615b64565b9250505060e0808301516160918289018215159052565b505061010091820151916160a787820184615b1c565b509684019694505090820190600101615ff9565b5050878203908801526160ce8189615f7b565b9998505050505050505050565b634e487b7160e01b600052603260045260246000fd5b6001600160a01b039384168152919092166020820152604081019190915260600190565b634e487b7160e01b600052601160045260246000fd5b60006001820161613d5761613d616115565b5060010190565b8183823760009101908152919050565b81810381811115610b1357610b13616115565b8082028115828204841417610b1357610b13616115565b60008261619b57634e487b7160e01b600052601260045260246000fd5b500490565b600060ff821660ff81036161b6576161b6616115565b60010192915050565b6020808252602c908201527f46756e6374696f6e206d7573742062652063616c6c6564207468726f7567682060408201526b19195b1959d85d1958d85b1b60a21b606082015260800190565b6020808252602c908201527f46756e6374696f6e206d7573742062652063616c6c6564207468726f7567682060408201526b6163746976652070726f787960a01b606082015260800190565b6000823560de1983360301811261626d57600080fd5b9190910192915050565b600060e0823603121561628957600080fd5b616291615730565b823581526162a1602084016154ea565b6020820152604083013560408201526060830135606082015260808301356001600160401b03808211156162d457600080fd5b6162e036838701615d52565b60808401526162f160a086016154ea565b60a084015260c085013591508082111561630a57600080fd5b5061631736828601615dad565b60c08301525092915050565b6000815480845260208085019450836000528060002060005b83811015615b595781548752958201956001918201910161633c565b6000815480845260208085019450836000528060002060005b83811015615b595781546001600160a01b031687529582019560019182019101616371565b838152606060208201528254606082015260006163bd60018501546001600160a01b031690565b6163ca6080840182615b1c565b50600284015460a0830152600384015460c0830152600484015460e0830152610160806101008401526164046101c0840160058701616323565b60068601546001600160a01b0316616420610120860182615b1c565b50838103605f190161014085015261643b8160078801616358565b9050600886015461645283860160ff831615159052565b61646d6101808601600883901c6001600160a01b0316615b1c565b6164826101a0860160ff8360a81c1615159052565b509150614ff590506040830184615b1c565b6000602082840312156164a657600080fd5b81516115e881615e11565b6000610b133683615e2a565b80820180821115610b1357610b13616115565b600061016082360312156164e357600080fd5b6164eb615752565b823581526164fb602084016154ea565b602082015260408301356040820152606083013560608201526080830135608082015260a08301356001600160401b038082111561653857600080fd5b61654436838701615d52565b60a084015261655560c086016154ea565b60c084015260e085013591508082111561656e57600080fd5b5061657b36828601615dad565b60e08301525061010061658f818501615e1f565b908201526101206165a18482016154ea565b90820152610140615ef2848201615e1f565b6000602082840312156165c557600080fd5b5051919050565b634e487b7160e01b600052600160045260246000fd5b6020808252602b908201527f496e697469616c697a61626c653a20636f6e7472616374206973206e6f74206960408201526a6e697469616c697a696e6760a81b606082015260800190565b8381526060602082015260006166466060830185615b9d565b905060018060a01b0383166040830152949350505050565b76020b1b1b2b9b9a1b7b73a3937b61d1030b1b1b7bab73a1604d1b815260008351616690816017850160208801615ac5565b7001034b99036b4b9b9b4b733903937b6329607d1b60179184019182015283516166c1816028840160208801615ac5565b01602801949350505050565b6000816166dc576166dc616115565b506000190190565b6001600160a01b03929092168252602082015260400190565b60006020828403121561670f57600080fd5b604051602081018181106001600160401b0382111715616731576167316156f1565b6040529151825250919050565b60006020828403121561675057600080fd5b81516115e8816154d5565b600082601f83011261676c57600080fd5b8151602061677c6157e9836157a5565b82815260059290921b8401810191818101908684111561679b57600080fd5b8286015b84811015615831578051835291830191830161679f565b600080604083850312156167c957600080fd5b82516001600160401b03808211156167e057600080fd5b818501915085601f8301126167f457600080fd5b815160206168046157e9836157a5565b82815260059290921b8401810191818101908984111561682357600080fd5b948201945b8386101561684a57855161683b816154d5565b82529482019490820190616828565b9188015191965090935050508082111561686357600080fd5b506168708582860161675b565b9150509250929050565b6000825161626d818460208701615ac556fe793a6c9b7e0a9549c74edc2f9ae0dc50903dfaa9a56fb0116b27a8c71de3e2c630d41a597cac127d8249d31298b50e481ee82c3f4a49ff93c76a22735aa9f3ad360894a13ba1a3210667c828492db98dca3e2076cc3735a920a3ca505d382bbc416464726573733a206c6f772d6c6576656c2064656c65676174652063616c6c206661696c65646e3cc031d23d7153f72e87cbfd113a0351c60d8ce52b8a31c944d543a384b7c9a49807205ce4d355092ef5a8a18f56e8913cf4a201fbe287825b095693c21775c1df76f4e50bdb95676f782d4b88b23904c5346d8bc7c986ae26f7e10e601891a264697066735822122037e98b69ac4a598eb409b821a619033aeefba69865296def3626c295f9fb2fe164736f6c63430008120033",
  "linkReferences": {},
  "deployedLinkReferences": {}
}