{
  "_format": "hh-sol-artifact-1",
  "contractName": "TestingTermAuctionBidLocker",
  "sourceName": "contracts/test/TestingTermAuctionBidLocker.sol",
  "abi": [
    {
      "inputs": [],
      "name": "AlreadyTermContractPaired",
      "type": "error"
    },
    {
      "inputs": [],
      "name": "AuctionNotClosed",
      "type": "error"
    },
    {
      "inputs": [],
      "name": "AuctionNotOpen",
      "type": "error"
    },
    {
      "inputs": [],
      "name": "AuctionNotRevealing",
      "type": "error"
    },
    {
      "inputs": [
        {
          "internalType": "uint256",
          "name": "reveal",
          "type": "uint256"
        },
        {
          "internalType": "uint256",
          "name": "end",
          "type": "uint256"
        }
      ],
      "name": "AuctionRevealsAfterEnd",
      "type": "error"
    },
    {
      "inputs": [
        {
          "internalType": "uint256",
          "name": "start",
          "type": "uint256"
        },
        {
          "internalType": "uint256",
          "name": "reveal",
          "type": "uint256"
        }
      ],
      "name": "AuctionStartsAfterReveal",
      "type": "error"
    },
    {
      "inputs": [],
      "name": "BidAlreadyRevealed",
      "type": "error"
    },
    {
      "inputs": [
        {
          "internalType": "uint256",
          "name": "amount",
          "type": "uint256"
        }
      ],
      "name": "BidAmountTooLow",
      "type": "error"
    },
    {
      "inputs": [
        {
          "internalType": "uint256",
          "name": "bidCount",
          "type": "uint256"
        }
      ],
      "name": "BidCountIncorrect",
      "type": "error"
    },
    {
      "inputs": [],
      "name": "BidNotOwned",
      "type": "error"
    },
    {
      "inputs": [
        {
          "internalType": "bytes32",
          "name": "bidId",
          "type": "bytes32"
        }
      ],
      "name": "BidNotRevealed",
      "type": "error"
    },
    {
      "inputs": [
        {
          "internalType": "bytes32",
          "name": "id",
          "type": "bytes32"
        }
      ],
      "name": "BidPriceModified",
      "type": "error"
    },
    {
      "inputs": [
        {
          "internalType": "bytes32",
          "name": "bidId",
          "type": "bytes32"
        }
      ],
      "name": "BidRevealed",
      "type": "error"
    },
    {
      "inputs": [],
      "name": "CollateralAmountTooLow",
      "type": "error"
    },
    {
      "inputs": [
        {
          "internalType": "address",
          "name": "token",
          "type": "address"
        }
      ],
      "name": "CollateralTokenNotApproved",
      "type": "error"
    },
    {
      "inputs": [
        {
          "internalType": "bytes32",
          "name": "bidId",
          "type": "bytes32"
        }
      ],
      "name": "GeneratingExistingBid",
      "type": "error"
    },
    {
      "inputs": [],
      "name": "InvalidPurchaseToken",
      "type": "error"
    },
    {
      "inputs": [],
      "name": "InvalidSelfReferral",
      "type": "error"
    },
    {
      "inputs": [],
      "name": "InvalidTermRepoServicer",
      "type": "error"
    },
    {
      "inputs": [],
      "name": "LockingPaused",
      "type": "error"
    },
    {
      "inputs": [],
      "name": "MaxBidCountReached",
      "type": "error"
    },
    {
      "inputs": [],
      "name": "NoCollateralToUnlock",
      "type": "error"
    },
    {
      "inputs": [
        {
          "internalType": "bytes32",
          "name": "bidId",
          "type": "bytes32"
        }
      ],
      "name": "NonExistentBid",
      "type": "error"
    },
    {
      "inputs": [
        {
          "internalType": "bytes32",
          "name": "bidId",
          "type": "bytes32"
        }
      ],
      "name": "NonExpiredRolloverBid",
      "type": "error"
    },
    {
      "inputs": [
        {
          "internalType": "bytes32",
          "name": "id",
          "type": "bytes32"
        }
      ],
      "name": "NonRolloverBid",
      "type": "error"
    },
    {
      "inputs": [
        {
          "internalType": "address",
          "name": "token",
          "type": "address"
        }
      ],
      "name": "PurchaseTokenNotApproved",
      "type": "error"
    },
    {
      "inputs": [],
      "name": "RevealedBidsNotSorted",
      "type": "error"
    },
    {
      "inputs": [],
      "name": "RolloverBid",
      "type": "error"
    },
    {
      "inputs": [
        {
          "internalType": "bytes32",
          "name": "bidId",
          "type": "bytes32"
        }
      ],
      "name": "RolloverBidExpired",
      "type": "error"
    },
    {
      "inputs": [],
      "name": "RolloverBidInShortfall",
      "type": "error"
    },
    {
      "inputs": [
        {
          "internalType": "bytes32",
          "name": "id",
          "type": "bytes32"
        },
        {
          "internalType": "uint256",
          "name": "maxPrice",
          "type": "uint256"
        }
      ],
      "name": "TenderPriceTooHigh",
      "type": "error"
    },
    {
      "inputs": [],
      "name": "UnlockingPaused",
      "type": "error"
    },
    {
      "anonymous": false,
      "inputs": [
        {
          "indexed": false,
          "internalType": "address",
          "name": "previousAdmin",
          "type": "address"
        },
        {
          "indexed": false,
          "internalType": "address",
          "name": "newAdmin",
          "type": "address"
        }
      ],
      "name": "AdminChanged",
      "type": "event"
    },
    {
      "anonymous": false,
      "inputs": [
        {
          "indexed": true,
          "internalType": "address",
          "name": "beacon",
          "type": "address"
        }
      ],
      "name": "BeaconUpgraded",
      "type": "event"
    },
    {
      "anonymous": false,
      "inputs": [
        {
          "indexed": false,
          "internalType": "uint8",
          "name": "version",
          "type": "uint8"
        }
      ],
      "name": "Initialized",
      "type": "event"
    },
    {
      "anonymous": false,
      "inputs": [
        {
          "indexed": true,
          "internalType": "bytes32",
          "name": "role",
          "type": "bytes32"
        },
        {
          "indexed": true,
          "internalType": "bytes32",
          "name": "previousAdminRole",
          "type": "bytes32"
        },
        {
          "indexed": true,
          "internalType": "bytes32",
          "name": "newAdminRole",
          "type": "bytes32"
        }
      ],
      "name": "RoleAdminChanged",
      "type": "event"
    },
    {
      "anonymous": false,
      "inputs": [
        {
          "indexed": true,
          "internalType": "bytes32",
          "name": "role",
          "type": "bytes32"
        },
        {
          "indexed": true,
          "internalType": "address",
          "name": "account",
          "type": "address"
        },
        {
          "indexed": true,
          "internalType": "address",
          "name": "sender",
          "type": "address"
        }
      ],
      "name": "RoleGranted",
      "type": "event"
    },
    {
      "anonymous": false,
      "inputs": [
        {
          "indexed": true,
          "internalType": "bytes32",
          "name": "role",
          "type": "bytes32"
        },
        {
          "indexed": true,
          "internalType": "address",
          "name": "account",
          "type": "address"
        },
        {
          "indexed": true,
          "internalType": "address",
          "name": "sender",
          "type": "address"
        }
      ],
      "name": "RoleRevoked",
      "type": "event"
    },
    {
      "anonymous": false,
      "inputs": [
        {
          "indexed": true,
          "internalType": "address",
          "name": "implementation",
          "type": "address"
        }
      ],
      "name": "Upgraded",
      "type": "event"
    },
    {
      "inputs": [],
      "name": "ADMIN_ROLE",
      "outputs": [
        {
          "internalType": "bytes32",
          "name": "",
          "type": "bytes32"
        }
      ],
      "stateMutability": "view",
      "type": "function"
    },
    {
      "inputs": [],
      "name": "AUCTIONEER_ROLE",
      "outputs": [
        {
          "internalType": "bytes32",
          "name": "",
          "type": "bytes32"
        }
      ],
      "stateMutability": "view",
      "type": "function"
    },
    {
      "inputs": [],
      "name": "DEFAULT_ADMIN_ROLE",
      "outputs": [
        {
          "internalType": "bytes32",
          "name": "",
          "type": "bytes32"
        }
      ],
      "stateMutability": "view",
      "type": "function"
    },
    {
      "inputs": [],
      "name": "DEVOPS_ROLE",
      "outputs": [
        {
          "internalType": "bytes32",
          "name": "",
          "type": "bytes32"
        }
      ],
      "stateMutability": "view",
      "type": "function"
    },
    {
      "inputs": [],
      "name": "INITIALIZER_ROLE",
      "outputs": [
        {
          "internalType": "bytes32",
          "name": "",
          "type": "bytes32"
        }
      ],
      "stateMutability": "view",
      "type": "function"
    },
    {
      "inputs": [],
      "name": "MAX_BID_COUNT",
      "outputs": [
        {
          "internalType": "uint256",
          "name": "",
          "type": "uint256"
        }
      ],
      "stateMutability": "view",
      "type": "function"
    },
    {
      "inputs": [],
      "name": "MAX_BID_PRICE",
      "outputs": [
        {
          "internalType": "uint256",
          "name": "",
          "type": "uint256"
        }
      ],
      "stateMutability": "view",
      "type": "function"
    },
    {
      "inputs": [],
      "name": "ROLLOVER_MANAGER",
      "outputs": [
        {
          "internalType": "bytes32",
          "name": "",
          "type": "bytes32"
        }
      ],
      "stateMutability": "view",
      "type": "function"
    },
    {
      "inputs": [],
      "name": "THREESIXTY_DAYCOUNT_SECONDS",
      "outputs": [
        {
          "internalType": "uint256",
          "name": "",
          "type": "uint256"
        }
      ],
      "stateMutability": "view",
      "type": "function"
    },
    {
      "inputs": [
        {
          "components": [
            {
              "internalType": "bytes32",
              "name": "id",
              "type": "bytes32"
            },
            {
              "internalType": "address",
              "name": "bidder",
              "type": "address"
            },
            {
              "internalType": "uint256",
              "name": "bidPriceRevealed",
              "type": "uint256"
            },
            {
              "internalType": "uint256",
              "name": "amount",
              "type": "uint256"
            },
            {
              "internalType": "uint256[]",
              "name": "collateralAmounts",
              "type": "uint256[]"
            },
            {
              "internalType": "address",
              "name": "purchaseToken",
              "type": "address"
            },
            {
              "internalType": "address[]",
              "name": "collateralTokens",
              "type": "address[]"
            },
            {
              "internalType": "bool",
              "name": "isRollover",
              "type": "bool"
            },
            {
              "internalType": "address",
              "name": "rolloverPairOffTermRepoServicer",
              "type": "address"
            }
          ],
          "internalType": "struct TermAuctionRevealedBid",
          "name": "bid",
          "type": "tuple"
        },
        {
          "internalType": "uint256",
          "name": "nonce",
          "type": "uint256"
        }
      ],
      "name": "addBid",
      "outputs": [],
      "stateMutability": "nonpayable",
      "type": "function"
    },
    {
      "inputs": [
        {
          "internalType": "uint256",
          "name": "",
          "type": "uint256"
        }
      ],
      "name": "auctionBids",
      "outputs": [
        {
          "internalType": "bytes32",
          "name": "id",
          "type": "bytes32"
        },
        {
          "internalType": "address",
          "name": "bidder",
          "type": "address"
        },
        {
          "internalType": "uint256",
          "name": "bidPriceRevealed",
          "type": "uint256"
        },
        {
          "internalType": "uint256",
          "name": "amount",
          "type": "uint256"
        },
        {
          "internalType": "address",
          "name": "purchaseToken",
          "type": "address"
        },
        {
          "internalType": "bool",
          "name": "isRollover",
          "type": "bool"
        },
        {
          "internalType": "address",
          "name": "rolloverPairOffTermRepoServicer",
          "type": "address"
        }
      ],
      "stateMutability": "view",
      "type": "function"
    },
    {
      "inputs": [],
      "name": "auctionEndTime",
      "outputs": [
        {
          "internalType": "uint256",
          "name": "",
          "type": "uint256"
        }
      ],
      "stateMutability": "view",
      "type": "function"
    },
    {
      "inputs": [],
      "name": "auctionStartTime",
      "outputs": [
        {
          "internalType": "uint256",
          "name": "",
          "type": "uint256"
        }
      ],
      "stateMutability": "view",
      "type": "function"
    },
    {
      "inputs": [
        {
          "internalType": "bytes32",
          "name": "id",
          "type": "bytes32"
        },
        {
          "internalType": "address",
          "name": "bidder",
          "type": "address"
        },
        {
          "internalType": "address[]",
          "name": "bidCollateralTokens",
          "type": "address[]"
        },
        {
          "internalType": "uint256[]",
          "name": "amounts",
          "type": "uint256[]"
        }
      ],
      "name": "auctionUnlockBid",
      "outputs": [],
      "stateMutability": "nonpayable",
      "type": "function"
    },
    {
      "inputs": [],
      "name": "bidCount",
      "outputs": [
        {
          "internalType": "uint256",
          "name": "",
          "type": "uint256"
        }
      ],
      "stateMutability": "view",
      "type": "function"
    },
    {
      "inputs": [
        {
          "internalType": "uint256",
          "name": "",
          "type": "uint256"
        }
      ],
      "name": "bidsToUnlock",
      "outputs": [
        {
          "internalType": "bytes32",
          "name": "id",
          "type": "bytes32"
        },
        {
          "internalType": "address",
          "name": "bidder",
          "type": "address"
        },
        {
          "internalType": "bytes32",
          "name": "bidPriceHash",
          "type": "bytes32"
        },
        {
          "internalType": "uint256",
          "name": "bidPriceRevealed",
          "type": "uint256"
        },
        {
          "internalType": "uint256",
          "name": "amount",
          "type": "uint256"
        },
        {
          "internalType": "address",
          "name": "purchaseToken",
          "type": "address"
        },
        {
          "internalType": "bool",
          "name": "isRollover",
          "type": "bool"
        },
        {
          "internalType": "address",
          "name": "rolloverPairOffTermRepoServicer",
          "type": "address"
        },
        {
          "internalType": "bool",
          "name": "isRevealed",
          "type": "bool"
        }
      ],
      "stateMutability": "view",
      "type": "function"
    },
    {
      "inputs": [
        {
          "internalType": "contract IERC20Upgradeable",
          "name": "",
          "type": "address"
        }
      ],
      "name": "collateralTokens",
      "outputs": [
        {
          "internalType": "bool",
          "name": "",
          "type": "bool"
        }
      ],
      "stateMutability": "view",
      "type": "function"
    },
    {
      "inputs": [],
      "name": "dayCountFractionMantissa",
      "outputs": [
        {
          "internalType": "uint256",
          "name": "",
          "type": "uint256"
        }
      ],
      "stateMutability": "view",
      "type": "function"
    },
    {
      "inputs": [
        {
          "internalType": "bytes32[]",
          "name": "revealedBids",
          "type": "bytes32[]"
        },
        {
          "internalType": "bytes32[]",
          "name": "expiredRolloverBids",
          "type": "bytes32[]"
        },
        {
          "internalType": "bytes32[]",
          "name": "unrevealedBids",
          "type": "bytes32[]"
        }
      ],
      "name": "getAllBids",
      "outputs": [
        {
          "components": [
            {
              "internalType": "bytes32",
              "name": "id",
              "type": "bytes32"
            },
            {
              "internalType": "address",
              "name": "bidder",
              "type": "address"
            },
            {
              "internalType": "uint256",
              "name": "bidPriceRevealed",
              "type": "uint256"
            },
            {
              "internalType": "uint256",
              "name": "amount",
              "type": "uint256"
            },
            {
              "internalType": "uint256[]",
              "name": "collateralAmounts",
              "type": "uint256[]"
            },
            {
              "internalType": "address",
              "name": "purchaseToken",
              "type": "address"
            },
            {
              "internalType": "address[]",
              "name": "collateralTokens",
              "type": "address[]"
            },
            {
              "internalType": "bool",
              "name": "isRollover",
              "type": "bool"
            },
            {
              "internalType": "address",
              "name": "rolloverPairOffTermRepoServicer",
              "type": "address"
            }
          ],
          "internalType": "struct TermAuctionRevealedBid[]",
          "name": "",
          "type": "tuple[]"
        },
        {
          "components": [
            {
              "internalType": "bytes32",
              "name": "id",
              "type": "bytes32"
            },
            {
              "internalType": "address",
              "name": "bidder",
              "type": "address"
            },
            {
              "internalType": "bytes32",
              "name": "bidPriceHash",
              "type": "bytes32"
            },
            {
              "internalType": "uint256",
              "name": "bidPriceRevealed",
              "type": "uint256"
            },
            {
              "internalType": "uint256",
              "name": "amount",
              "type": "uint256"
            },
            {
              "internalType": "uint256[]",
              "name": "collateralAmounts",
              "type": "uint256[]"
            },
            {
              "internalType": "address",
              "name": "purchaseToken",
              "type": "address"
            },
            {
              "internalType": "address[]",
              "name": "collateralTokens",
              "type": "address[]"
            },
            {
              "internalType": "bool",
              "name": "isRollover",
              "type": "bool"
            },
            {
              "internalType": "address",
              "name": "rolloverPairOffTermRepoServicer",
              "type": "address"
            },
            {
              "internalType": "bool",
              "name": "isRevealed",
              "type": "bool"
            }
          ],
          "internalType": "struct TermAuctionBid[]",
          "name": "",
          "type": "tuple[]"
        }
      ],
      "stateMutability": "nonpayable",
      "type": "function"
    },
    {
      "inputs": [],
      "name": "getBidCount",
      "outputs": [
        {
          "internalType": "uint256",
          "name": "",
          "type": "uint256"
        }
      ],
      "stateMutability": "view",
      "type": "function"
    },
    {
      "inputs": [
        {
          "internalType": "bytes32",
          "name": "role",
          "type": "bytes32"
        }
      ],
      "name": "getRoleAdmin",
      "outputs": [
        {
          "internalType": "bytes32",
          "name": "",
          "type": "bytes32"
        }
      ],
      "stateMutability": "view",
      "type": "function"
    },
    {
      "inputs": [
        {
          "internalType": "bytes32",
          "name": "role",
          "type": "bytes32"
        },
        {
          "internalType": "address",
          "name": "account",
          "type": "address"
        }
      ],
      "name": "grantRole",
      "outputs": [],
      "stateMutability": "nonpayable",
      "type": "function"
    },
    {
      "inputs": [
        {
          "internalType": "bytes32",
          "name": "role",
          "type": "bytes32"
        },
        {
          "internalType": "address",
          "name": "account",
          "type": "address"
        }
      ],
      "name": "hasRole",
      "outputs": [
        {
          "internalType": "bool",
          "name": "",
          "type": "bool"
        }
      ],
      "stateMutability": "view",
      "type": "function"
    },
    {
      "inputs": [
        {
          "internalType": "string",
          "name": "termRepoId_",
          "type": "string"
        },
        {
          "internalType": "string",
          "name": "auctionId_",
          "type": "string"
        },
        {
          "internalType": "uint256",
          "name": "auctionStartTime_",
          "type": "uint256"
        },
        {
          "internalType": "uint256",
          "name": "revealTime_",
          "type": "uint256"
        },
        {
          "internalType": "uint256",
          "name": "auctionEndTime_",
          "type": "uint256"
        },
        {
          "internalType": "uint256",
          "name": "redemptionTimestamp_",
          "type": "uint256"
        },
        {
          "internalType": "uint256",
          "name": "minimumTenderAmount_",
          "type": "uint256"
        },
        {
          "internalType": "address",
          "name": "purchaseToken_",
          "type": "address"
        },
        {
          "internalType": "contract IERC20Upgradeable[]",
          "name": "collateralTokens_",
          "type": "address[]"
        },
        {
          "internalType": "address",
          "name": "termInitializer_",
          "type": "address"
        }
      ],
      "name": "initialize",
      "outputs": [],
      "stateMutability": "nonpayable",
      "type": "function"
    },
    {
      "inputs": [
        {
          "components": [
            {
              "internalType": "bytes32",
              "name": "id",
              "type": "bytes32"
            },
            {
              "internalType": "address",
              "name": "bidder",
              "type": "address"
            },
            {
              "internalType": "bytes32",
              "name": "bidPriceHash",
              "type": "bytes32"
            },
            {
              "internalType": "uint256",
              "name": "amount",
              "type": "uint256"
            },
            {
              "internalType": "uint256[]",
              "name": "collateralAmounts",
              "type": "uint256[]"
            },
            {
              "internalType": "address",
              "name": "purchaseToken",
              "type": "address"
            },
            {
              "internalType": "address[]",
              "name": "collateralTokens",
              "type": "address[]"
            }
          ],
          "internalType": "struct TermAuctionBidSubmission[]",
          "name": "bidSubmissions",
          "type": "tuple[]"
        }
      ],
      "name": "lockBids",
      "outputs": [
        {
          "internalType": "bytes32[]",
          "name": "",
          "type": "bytes32[]"
        }
      ],
      "stateMutability": "nonpayable",
      "type": "function"
    },
    {
      "inputs": [
        {
          "components": [
            {
              "internalType": "bytes32",
              "name": "id",
              "type": "bytes32"
            },
            {
              "internalType": "address",
              "name": "bidder",
              "type": "address"
            },
            {
              "internalType": "bytes32",
              "name": "bidPriceHash",
              "type": "bytes32"
            },
            {
              "internalType": "uint256",
              "name": "amount",
              "type": "uint256"
            },
            {
              "internalType": "uint256[]",
              "name": "collateralAmounts",
              "type": "uint256[]"
            },
            {
              "internalType": "address",
              "name": "purchaseToken",
              "type": "address"
            },
            {
              "internalType": "address[]",
              "name": "collateralTokens",
              "type": "address[]"
            }
          ],
          "internalType": "struct TermAuctionBidSubmission[]",
          "name": "bidSubmissions",
          "type": "tuple[]"
        },
        {
          "internalType": "address",
          "name": "referralAddress",
          "type": "address"
        }
      ],
      "name": "lockBidsWithReferral",
      "outputs": [
        {
          "internalType": "bytes32[]",
          "name": "",
          "type": "bytes32[]"
        }
      ],
      "stateMutability": "nonpayable",
      "type": "function"
    },
    {
      "inputs": [
        {
          "components": [
            {
              "internalType": "bytes32",
              "name": "id",
              "type": "bytes32"
            },
            {
              "internalType": "address",
              "name": "bidder",
              "type": "address"
            },
            {
              "internalType": "bytes32",
              "name": "bidPriceHash",
              "type": "bytes32"
            },
            {
              "internalType": "uint256",
              "name": "bidPriceRevealed",
              "type": "uint256"
            },
            {
              "internalType": "uint256",
              "name": "amount",
              "type": "uint256"
            },
            {
              "internalType": "uint256[]",
              "name": "collateralAmounts",
              "type": "uint256[]"
            },
            {
              "internalType": "address",
              "name": "purchaseToken",
              "type": "address"
            },
            {
              "internalType": "address[]",
              "name": "collateralTokens",
              "type": "address[]"
            },
            {
              "internalType": "bool",
              "name": "isRollover",
              "type": "bool"
            },
            {
              "internalType": "address",
              "name": "rolloverPairOffTermRepoServicer",
              "type": "address"
            },
            {
              "internalType": "bool",
              "name": "isRevealed",
              "type": "bool"
            }
          ],
          "internalType": "struct TermAuctionBid",
          "name": "bid",
          "type": "tuple"
        }
      ],
      "name": "lockRolloverBid",
      "outputs": [],
      "stateMutability": "nonpayable",
      "type": "function"
    },
    {
      "inputs": [
        {
          "internalType": "bytes32",
          "name": "id",
          "type": "bytes32"
        }
      ],
      "name": "lockedBid",
      "outputs": [
        {
          "components": [
            {
              "internalType": "bytes32",
              "name": "id",
              "type": "bytes32"
            },
            {
              "internalType": "address",
              "name": "bidder",
              "type": "address"
            },
            {
              "internalType": "bytes32",
              "name": "bidPriceHash",
              "type": "bytes32"
            },
            {
              "internalType": "uint256",
              "name": "bidPriceRevealed",
              "type": "uint256"
            },
            {
              "internalType": "uint256",
              "name": "amount",
              "type": "uint256"
            },
            {
              "internalType": "uint256[]",
              "name": "collateralAmounts",
              "type": "uint256[]"
            },
            {
              "internalType": "address",
              "name": "purchaseToken",
              "type": "address"
            },
            {
              "internalType": "address[]",
              "name": "collateralTokens",
              "type": "address[]"
            },
            {
              "internalType": "bool",
              "name": "isRollover",
              "type": "bool"
            },
            {
              "internalType": "address",
              "name": "rolloverPairOffTermRepoServicer",
              "type": "address"
            },
            {
              "internalType": "bool",
              "name": "isRevealed",
              "type": "bool"
            }
          ],
          "internalType": "struct TermAuctionBid",
          "name": "",
          "type": "tuple"
        }
      ],
      "stateMutability": "view",
      "type": "function"
    },
    {
      "inputs": [],
      "name": "lockingPaused",
      "outputs": [
        {
          "internalType": "bool",
          "name": "",
          "type": "bool"
        }
      ],
      "stateMutability": "view",
      "type": "function"
    },
    {
      "inputs": [],
      "name": "minimumTenderAmount",
      "outputs": [
        {
          "internalType": "uint256",
          "name": "",
          "type": "uint256"
        }
      ],
      "stateMutability": "view",
      "type": "function"
    },
    {
      "inputs": [
        {
          "components": [
            {
              "internalType": "bytes32",
              "name": "id",
              "type": "bytes32"
            },
            {
              "internalType": "address",
              "name": "bidder",
              "type": "address"
            },
            {
              "internalType": "uint256",
              "name": "bidPriceRevealed",
              "type": "uint256"
            },
            {
              "internalType": "uint256",
              "name": "amount",
              "type": "uint256"
            },
            {
              "internalType": "uint256[]",
              "name": "collateralAmounts",
              "type": "uint256[]"
            },
            {
              "internalType": "address",
              "name": "purchaseToken",
              "type": "address"
            },
            {
              "internalType": "address[]",
              "name": "collateralTokens",
              "type": "address[]"
            },
            {
              "internalType": "bool",
              "name": "isRollover",
              "type": "bool"
            },
            {
              "internalType": "address",
              "name": "rolloverPairOffTermRepoServicer",
              "type": "address"
            }
          ],
          "internalType": "struct TermAuctionRevealedBid",
          "name": "revealed",
          "type": "tuple"
        },
        {
          "internalType": "uint256",
          "name": "nonce",
          "type": "uint256"
        }
      ],
      "name": "obfuscateBid",
      "outputs": [
        {
          "components": [
            {
              "internalType": "bytes32",
              "name": "id",
              "type": "bytes32"
            },
            {
              "internalType": "address",
              "name": "bidder",
              "type": "address"
            },
            {
              "internalType": "bytes32",
              "name": "bidPriceHash",
              "type": "bytes32"
            },
            {
              "internalType": "uint256",
              "name": "bidPriceRevealed",
              "type": "uint256"
            },
            {
              "internalType": "uint256",
              "name": "amount",
              "type": "uint256"
            },
            {
              "internalType": "uint256[]",
              "name": "collateralAmounts",
              "type": "uint256[]"
            },
            {
              "internalType": "address",
              "name": "purchaseToken",
              "type": "address"
            },
            {
              "internalType": "address[]",
              "name": "collateralTokens",
              "type": "address[]"
            },
            {
              "internalType": "bool",
              "name": "isRollover",
              "type": "bool"
            },
            {
              "internalType": "address",
              "name": "rolloverPairOffTermRepoServicer",
              "type": "address"
            },
            {
              "internalType": "bool",
              "name": "isRevealed",
              "type": "bool"
            }
          ],
          "internalType": "struct TermAuctionBid",
          "name": "hidden",
          "type": "tuple"
        }
      ],
      "stateMutability": "pure",
      "type": "function"
    },
    {
      "inputs": [
        {
          "internalType": "address",
          "name": "rolloverManager",
          "type": "address"
        }
      ],
      "name": "pairRolloverManager",
      "outputs": [],
      "stateMutability": "nonpayable",
      "type": "function"
    },
    {
      "inputs": [
        {
          "internalType": "address",
          "name": "termAuction_",
          "type": "address"
        },
        {
          "internalType": "contract ITermRepoServicer",
          "name": "termRepoServicer_",
          "type": "address"
        },
        {
          "internalType": "contract ITermEventEmitter",
          "name": "emitter_",
          "type": "address"
        },
        {
          "internalType": "contract ITermRepoCollateralManager",
          "name": "termRepoCollateralManager_",
          "type": "address"
        },
        {
          "internalType": "contract ITermPriceOracle",
          "name": "termPriceOracle_",
          "type": "address"
        },
        {
          "internalType": "address",
          "name": "devopsMultisig_",
          "type": "address"
        },
        {
          "internalType": "address",
          "name": "adminWallet_",
          "type": "address"
        }
      ],
      "name": "pairTermContracts",
      "outputs": [],
      "stateMutability": "nonpayable",
      "type": "function"
    },
    {
      "inputs": [],
      "name": "pauseLocking",
      "outputs": [],
      "stateMutability": "nonpayable",
      "type": "function"
    },
    {
      "inputs": [],
      "name": "pauseUnlocking",
      "outputs": [],
      "stateMutability": "nonpayable",
      "type": "function"
    },
    {
      "inputs": [],
      "name": "proxiableUUID",
      "outputs": [
        {
          "internalType": "bytes32",
          "name": "",
          "type": "bytes32"
        }
      ],
      "stateMutability": "view",
      "type": "function"
    },
    {
      "inputs": [],
      "name": "purchaseToken",
      "outputs": [
        {
          "internalType": "address",
          "name": "",
          "type": "address"
        }
      ],
      "stateMutability": "view",
      "type": "function"
    },
    {
      "inputs": [
        {
          "internalType": "bytes32",
          "name": "role",
          "type": "bytes32"
        },
        {
          "internalType": "address",
          "name": "account",
          "type": "address"
        }
      ],
      "name": "renounceRole",
      "outputs": [],
      "stateMutability": "nonpayable",
      "type": "function"
    },
    {
      "inputs": [
        {
          "internalType": "bytes32[]",
          "name": "ids",
          "type": "bytes32[]"
        },
        {
          "internalType": "uint256[]",
          "name": "prices",
          "type": "uint256[]"
        },
        {
          "internalType": "uint256[]",
          "name": "nonces",
          "type": "uint256[]"
        }
      ],
      "name": "revealBids",
      "outputs": [],
      "stateMutability": "nonpayable",
      "type": "function"
    },
    {
      "inputs": [],
      "name": "revealTime",
      "outputs": [
        {
          "internalType": "uint256",
          "name": "",
          "type": "uint256"
        }
      ],
      "stateMutability": "view",
      "type": "function"
    },
    {
      "inputs": [
        {
          "internalType": "bytes32",
          "name": "role",
          "type": "bytes32"
        },
        {
          "internalType": "address",
          "name": "account",
          "type": "address"
        }
      ],
      "name": "revokeRole",
      "outputs": [],
      "stateMutability": "nonpayable",
      "type": "function"
    },
    {
      "inputs": [
        {
          "internalType": "uint256",
          "name": "bidCount_",
          "type": "uint256"
        }
      ],
      "name": "setBidCount",
      "outputs": [],
      "stateMutability": "nonpayable",
      "type": "function"
    },
    {
      "inputs": [
        {
          "internalType": "uint256",
          "name": "auctionEndTime_",
          "type": "uint256"
        }
      ],
      "name": "setEndTime",
      "outputs": [],
      "stateMutability": "nonpayable",
      "type": "function"
    },
    {
      "inputs": [
        {
          "internalType": "uint256",
          "name": "revealTime_",
          "type": "uint256"
        }
      ],
      "name": "setRevealTime",
      "outputs": [],
      "stateMutability": "nonpayable",
      "type": "function"
    },
    {
      "inputs": [
        {
          "internalType": "uint256",
          "name": "auctionStartTime_",
          "type": "uint256"
        }
      ],
      "name": "setStartTime",
      "outputs": [],
      "stateMutability": "nonpayable",
      "type": "function"
    },
    {
      "inputs": [
        {
          "internalType": "bytes4",
          "name": "interfaceId",
          "type": "bytes4"
        }
      ],
      "name": "supportsInterface",
      "outputs": [
        {
          "internalType": "bool",
          "name": "",
          "type": "bool"
        }
      ],
      "stateMutability": "view",
      "type": "function"
    },
    {
      "inputs": [],
      "name": "termAuctionId",
      "outputs": [
        {
          "internalType": "bytes32",
          "name": "",
          "type": "bytes32"
        }
      ],
      "stateMutability": "view",
      "type": "function"
    },
    {
      "inputs": [],
      "name": "termRepoCollateralManager",
      "outputs": [
        {
          "internalType": "contract ITermRepoCollateralManager",
          "name": "",
          "type": "address"
        }
      ],
      "stateMutability": "view",
      "type": "function"
    },
    {
      "inputs": [],
      "name": "termRepoId",
      "outputs": [
        {
          "internalType": "bytes32",
          "name": "",
          "type": "bytes32"
        }
      ],
      "stateMutability": "view",
      "type": "function"
    },
    {
      "inputs": [],
      "name": "termRepoServicer",
      "outputs": [
        {
          "internalType": "contract ITermRepoServicer",
          "name": "",
          "type": "address"
        }
      ],
      "stateMutability": "view",
      "type": "function"
    },
    {
      "inputs": [
        {
          "internalType": "bytes32[]",
          "name": "revealedBids",
          "type": "bytes32[]"
        },
        {
          "internalType": "bytes32[]",
          "name": "expiredRolloverBids",
          "type": "bytes32[]"
        },
        {
          "internalType": "bytes32[]",
          "name": "unrevealedBids",
          "type": "bytes32[]"
        }
      ],
      "name": "testGetAllBids",
      "outputs": [],
      "stateMutability": "nonpayable",
      "type": "function"
    },
    {
      "inputs": [
        {
          "internalType": "bytes32[]",
          "name": "ids",
          "type": "bytes32[]"
        }
      ],
      "name": "unlockBids",
      "outputs": [],
      "stateMutability": "nonpayable",
      "type": "function"
    },
    {
      "inputs": [],
      "name": "unlockingPaused",
      "outputs": [
        {
          "internalType": "bool",
          "name": "",
          "type": "bool"
        }
      ],
      "stateMutability": "view",
      "type": "function"
    },
    {
      "inputs": [],
      "name": "unpauseLocking",
      "outputs": [],
      "stateMutability": "nonpayable",
      "type": "function"
    },
    {
      "inputs": [],
      "name": "unpauseUnlocking",
      "outputs": [],
      "stateMutability": "nonpayable",
      "type": "function"
    },
    {
      "inputs": [
        {
          "internalType": "address",
          "name": "upgradeAddress",
          "type": "address"
        }
      ],
      "name": "upgrade",
      "outputs": [],
      "stateMutability": "nonpayable",
      "type": "function"
    },
    {
      "inputs": [
        {
          "internalType": "address",
          "name": "newImplementation",
          "type": "address"
        }
      ],
      "name": "upgradeTo",
      "outputs": [],
      "stateMutability": "nonpayable",
      "type": "function"
    },
    {
      "inputs": [
        {
          "internalType": "address",
          "name": "newImplementation",
          "type": "address"
        },
        {
          "internalType": "bytes",
          "name": "data",
          "type": "bytes"
        }
      ],
      "name": "upgradeToAndCall",
      "outputs": [],
      "stateMutability": "payable",
      "type": "function"
    },
    {
      "inputs": [],
      "name": "version",
      "outputs": [
        {
          "internalType": "string",
          "name": "",
          "type": "string"
        }
      ],
      "stateMutability": "view",
      "type": "function"
    }
  ],
  "bytecode": "0x60a0604052306080523480156200001557600080fd5b506200002062000026565b620000e7565b600054610100900460ff1615620000935760405162461bcd60e51b815260206004820152602760248201527f496e697469616c697a61626c653a20636f6e747261637420697320696e697469604482015266616c697a696e6760c81b606482015260840160405180910390fd5b60005460ff90811614620000e5576000805460ff191660ff9081179091556040519081527f7f26b83ff96e1f2b6a682f133852f6798a09c465da95921460cefb38474024989060200160405180910390a15b565b60805161697d6200011f6000396000818161133e0152818161137e015281816118100152818161185001526118c8015261697d6000f3fe6080604052600436106102cc5760003560e01c80636d7331411161017c578063c1e28507116100d2578063c1e2850714610838578063c84d966514610859578063cc5b6e4a146108ba578063ccb98ffc146108d1578063cdae1ee0146108f2578063cf64d0f514610912578063cfe9232b14610932578063cffbc29714610954578063d11b750914610985578063d35dc11c146109f9578063d547741f14610a19578063d6725d0c14610a39578063e61f00e614610a51578063eb54f9ec14610a71578063f9202d6314610a8857600080fd5b80636d73314114610684578063755bff3c1461069b57806375b238fc146106bc5780637a6944c5146106de5780637dae3fb7146106f55780637e3f71d514610715578063811b86cd146107355780638a5cd91e1461075557806391d148541461076a578063a217fddf1461078a578063a95c4d621461079f578063ae91fa33146107c0578063b40a5627146107dd578063ba829d71146107f4578063ba98b5ef1461080b57600080fd5b806336568abe1161023157806336568abe146104bc5780633659cfe6146104dc57806338665e9f146104fc5780633de81dc4146105295780633e0a322d1461054a5780633e836b3d1461056b5780633efbfd8c14610580578063408f2e10146105a157806341da5432146105b6578063475d266a146105cb5780634b449cba146105eb5780634f1ef2861461060257806352d1902d1461061557806354fd4d501461062a5780635c1645671461066457600080fd5b806301ffc9a7146102d15780630283ce5b1461030657806302b65fb0146103285780630900f010146103585780630ac8e314146103785780631f64270514610398578063201a6625146103ad578063248a9ca3146103cf57806325a2471a146103ff57806327df3d3e1461041657806328f6a48a146104385780632f2ff15d1461044e578063323c61831461046e578063357a77d21461048e575b600080fd5b3480156102dd57600080fd5b506102f16102ec36600461547f565b610ab6565b60405190151581526020015b60405180910390f35b34801561031257600080fd5b50610326610321366004615519565b610aed565b005b34801561033457600080fd5b5061034a6000805160206168e883398151915281565b6040519081526020016102fd565b34801561036457600080fd5b506103266103733660046155a4565b610c72565b34801561038457600080fd5b506103266103933660046155c1565b610c7e565b3480156103a457600080fd5b50610326610f32565b3480156103b957600080fd5b5061034a60008051602061686183398151915281565b3480156103db57600080fd5b5061034a6103ea36600461563b565b600090815260c9602052604090206001015490565b34801561040b57600080fd5b5061034a6101325481565b34801561042257600080fd5b5061034a60008051602061688183398151915281565b34801561044457600080fd5b5061013c5461034a565b34801561045a57600080fd5b50610326610469366004615654565b610fd3565b34801561047a57600080fd5b50610326610489366004615810565b610ffd565b34801561049a57600080fd5b50610137546104af906001600160a01b031681565b6040516102fd9190615903565b3480156104c857600080fd5b506103266104d7366004615654565b6112b6565b3480156104e857600080fd5b506103266104f73660046155a4565b611334565b34801561050857600080fd5b5061051c610517366004615917565b6113f9565b6040516102fd919061596d565b34801561053557600080fd5b50610136546104af906001600160a01b031681565b34801561055657600080fd5b5061032661056536600461563b565b61012f55565b34801561057757600080fd5b506103266115c3565b34801561058c57600080fd5b5061013d546102f19062010000900460ff1681565b3480156105ad57600080fd5b5061034a609681565b3480156105c257600080fd5b50610326611627565b3480156105d757600080fd5b5061051c6105e63660046159b1565b61168c565b3480156105f757600080fd5b5061034a6101315481565b6103266106103660046159f2565b611806565b34801561062157600080fd5b5061034a6118bb565b34801561063657600080fd5b50604080518082018252600b81526a19195d995b1bdc1b595b9d60aa1b602082015290516102fd9190615abd565b34801561067057600080fd5b5061032661067f3660046155c1565b611969565b34801561069057600080fd5b5061034a61012e5481565b3480156106a757600080fd5b506103266106b636600461563b565b61013c55565b3480156106c857600080fd5b5061034a60008051602061690883398151915281565b3480156106ea57600080fd5b5061034a6101335481565b34801561070157600080fd5b506103266107103660046159b1565b611a04565b34801561072157600080fd5b5061013d546102f190610100900460ff1681565b34801561074157600080fd5b506103266107503660046155a4565b611ba6565b34801561076157600080fd5b50610326611bd6565b34801561077657600080fd5b506102f1610785366004615654565b611c40565b34801561079657600080fd5b5061034a600081565b3480156107ab57600080fd5b50610134546104af906001600160a01b031681565b3480156107cc57600080fd5b5061034a68056bc75e2d6310000081565b3480156107e957600080fd5b5061034a61013c5481565b34801561080057600080fd5b5061034a6101305481565b34801561081757600080fd5b5061082b61082636600461563b565b611c6b565b6040516102fd9190615c33565b34801561084457600080fd5b5061032661085336600461563b565b61013055565b34801561086557600080fd5b5061087961087436600461563b565b611dc8565b604080519788526001600160a01b039687166020890152870194909452606086019290925283166080850152151560a08401521660c082015260e0016102fd565b3480156108c657600080fd5b5061034a61012d5481565b3480156108dd57600080fd5b506103266108ec36600461563b565b61013155565b3480156108fe57600080fd5b5061032661090d366004615c46565b611e2a565b34801561091e57600080fd5b5061032661092d366004615cdc565b611ffb565b34801561093e57600080fd5b5061034a60008051602061692883398151915281565b34801561096057600080fd5b506102f161096f3660046155a4565b6101356020526000908152604090205460ff1681565b34801561099157600080fd5b506109a56109a036600461563b565b612144565b60408051998a526001600160a01b0398891660208b015289019690965260608801949094526080870192909252841660a0860152151560c085015290911660e08301521515610100820152610120016102fd565b348015610a0557600080fd5b5061082b610a14366004615ed0565b6121b6565b348015610a2557600080fd5b50610326610a34366004615654565b612342565b348015610a4557600080fd5b5061034a6301da9c0081565b348015610a5d57600080fd5b50610326610a6c366004615f14565b612367565b348015610a7d57600080fd5b5061034a61012f5481565b348015610a9457600080fd5b50610aa8610aa33660046155c1565b61253a565b6040516102fd929190615fa4565b60006001600160e01b03198216637965db0b60e01b1480610ae757506301ffc9a760e01b6001600160e01b03198316145b92915050565b600080516020616928833981519152610b0581612573565b600087815261013b602052604090206008015460ff1615610b395760405163041753a560e31b815260040160405180910390fd5b6101395461012e546040516307fec0e360e01b81526001600160a01b03909216916307fec0e391610b77918b90600401918252602082015260400190565b600060405180830381600087803b158015610b9157600080fd5b505af1158015610ba5573d6000803e3d6000fd5b5050505060005b84811015610c6857610136546001600160a01b03166348717eb788888885818110610bd957610bd96160af565b9050602002016020810190610bee91906155a4565b878786818110610c0057610c006160af565b905060200201356040518463ffffffff1660e01b8152600401610c25939291906160c5565b600060405180830381600087803b158015610c3f57600080fd5b505af1158015610c53573d6000803e3d6000fd5b5050505080610c61906160ff565b9050610bac565b5050505050505050565b610c7b8161257d565b50565b600080610c8f888888888888612600565b9150915060005b8251811015610dc85761013e838281518110610cb457610cb46160af565b60209081029190910181015182546001808201855560009485529383902082516008909202019081558183015193810180546001600160a01b0319166001600160a01b0390951694909417909355604081015160028401556060810151600384015560808101518051919392610d3292600485019290910190615306565b5060a08201516005820180546001600160a01b0319166001600160a01b0390921691909117905560c08201518051610d74916006840191602090910190615351565b5060e082015160079091018054610100938401516001600160a01b0316909302610100600160a81b0319921515929092166001600160a81b031990931692909217179055610dc1816160ff565b9050610c96565b5060005b8151811015610f275761013f828281518110610dea57610dea6160af565b60209081029190910181015182546001808201855560009485529383902082516009909202019081558183015193810180546001600160a01b0319166001600160a01b039095169490941790935560408101516002840155606081015160038401556080810151600484015560a08101518051919392610e7292600585019290910190615306565b5060c08201516006820180546001600160a01b0319166001600160a01b0390921691909117905560e08201518051610eb4916007840191602090910190615351565b50610100828101516008929092018054610120850151610140909501516001600160a81b0319909116931515610100600160a81b031916939093176001600160a01b039094169091029290921760ff60a81b1916600160a81b91151591909102179055610f20816160ff565b9050610dcc565b505050505050505050565b600080516020616908833981519152610f4a81612573565b61013d805462ff00001916620100001790556101395461012e5461012d54604051631258284760e21b81526001600160a01b0390931692634960a11c92610f9e929091600401918252602082015260400190565b600060405180830381600087803b158015610fb857600080fd5b505af1158015610fcc573d6000803e3d6000fd5b5050505050565b600082815260c96020526040902060010154610fee81612573565b610ff88383612aff565b505050565b600054610100900460ff161580801561101d5750600054600160ff909116105b8061103e575061102c30612b85565b15801561103e575060005460ff166001145b6110a65760405162461bcd60e51b815260206004820152602e60248201527f496e697469616c697a61626c653a20636f6e747261637420697320616c72656160448201526d191e481a5b9a5d1a585b1a5e995960921b60648201526084015b60405180910390fd5b6000805460ff1916600117905580156110c9576000805461ff0019166101001790555b6110d1612b94565b6110d9612b94565b6110e1612bbd565b6110f960008051602061688183398151915283612aff565b8c8c60405160200161110c929190616118565b60408051601f1981840301815290829052805160209182012061012d55611137918d918d9101616118565b60408051601f19818403018152919052805160209091012061012e558789111561117e576040516372067af960e11b8152600481018a90526024810189905260440161109d565b61012f8990556101308890556101318790556101328590556301da9c00670de0b6b3a76400006111ae8989616128565b6111b8919061613b565b6111c29190616152565b6101335561013480546001600160a01b0319166001600160a01b03861617905560005b83518160ff16101561124f5760016101356000868460ff168151811061120d5761120d6160af565b6020908102919091018101516001600160a01b03168252810191909152604001600020805460ff191691151591909117905561124881616174565b90506111e5565b50600061013c5561013d805460ff1916905580156112a7576000805461ff0019169055604051600181527f7f26b83ff96e1f2b6a682f133852f6798a09c465da95921460cefb38474024989060200160405180910390a15b50505050505050505050505050565b6001600160a01b03811633146113265760405162461bcd60e51b815260206004820152602f60248201527f416363657373436f6e74726f6c3a2063616e206f6e6c792072656e6f756e636560448201526e103937b632b9903337b91039b2b63360891b606482015260840161109d565b6113308282612bec565b5050565b6001600160a01b037f000000000000000000000000000000000000000000000000000000000000000016300361137c5760405162461bcd60e51b815260040161109d90616193565b7f00000000000000000000000000000000000000000000000000000000000000006001600160a01b03166113ae612c53565b6001600160a01b0316146113d45760405162461bcd60e51b815260040161109d906161df565b6113dd8161257d565b60408051600080825260208201909252610c7b91839190612c6f565b60606101305442118061140e575061012f5442105b1561142c5760405163f046007760e01b815260040160405180910390fd5b61013d54610100900460ff16156114565760405163059e557960e41b815260040160405180910390fd5b61145e612dda565b6001600160a01b0382163303611487576040516333d8ca2d60e11b815260040160405180910390fd5b6000836001600160401b038111156114a1576114a16156c5565b6040519080825280602002602001820160405280156114ca578160200160208202803683370190505b50905060005b848110156115af5760006115108787848181106114ef576114ef6160af565b9050602002810190611501919061622b565b61150a9061624b565b33612e33565b90508060000154838381518110611529576115296160af565b60209081029190910101526101395461012e5460405163050ecc8960e11b81526001600160a01b0390921691630a1d99129161156b9185908a9060040161636a565b600060405180830381600087803b15801561158557600080fd5b505af1158015611599573d6000803e3d6000fd5b5050505050806115a8906160ff565b90506114d0565b5090506115bc600160fb55565b9392505050565b6000805160206169088339815191526115db81612573565b61013d805461ff00191690556101395461012e5461012d5460405163b423ac9d60e01b8152600481019290925260248201526001600160a01b039091169063b423ac9d90604401610f9e565b60008051602061690883398151915261163f81612573565b61013d805462ff0000191690556101395461012e5461012d54604051632044037760e21b8152600481019290925260248201526001600160a01b03909116906381100ddc90604401610f9e565b6060610130544211806116a1575061012f5442105b156116bf5760405163f046007760e01b815260040160405180910390fd5b61013d54610100900460ff16156116e95760405163059e557960e41b815260040160405180910390fd5b6116f1612dda565b6000826001600160401b0381111561170b5761170b6156c5565b604051908082528060200260200182016040528015611734578160200160208202803683370190505b50905060005b838110156117f95760006117598686848181106114ef576114ef6160af565b90508060000154838381518110611772576117726160af565b60209081029190910101526101395461012e5460405163050ecc8960e11b81526001600160a01b0390921691630a1d9912916117b591859060009060040161636a565b600060405180830381600087803b1580156117cf57600080fd5b505af11580156117e3573d6000803e3d6000fd5b5050505050806117f2906160ff565b905061173a565b509050610ae7600160fb55565b6001600160a01b037f000000000000000000000000000000000000000000000000000000000000000016300361184e5760405162461bcd60e51b815260040161109d90616193565b7f00000000000000000000000000000000000000000000000000000000000000006001600160a01b0316611880612c53565b6001600160a01b0316146118a65760405162461bcd60e51b815260040161109d906161df565b6118af8261257d565b61133082826001612c6f565b6000306001600160a01b037f000000000000000000000000000000000000000000000000000000000000000016146119565760405162461bcd60e51b815260206004820152603860248201527f555550535570677261646561626c653a206d757374206e6f742062652063616c6044820152771b1959081d1a1c9bdd59da0819195b1959d85d1958d85b1b60421b606482015260840161109d565b506000805160206168a183398151915290565b6101305442101561198d576040516302a3f58760e51b815260040160405180910390fd5b60005b858110156119fb576119eb8787838181106119ad576119ad6160af565b905060200201358686848181106119c6576119c66160af565b905060200201358585858181106119df576119df6160af565b905060200201356134ae565b6119f4816160ff565b9050611990565b50505050505050565b61013d5462010000900460ff1615611a2f57604051631370a4e760e31b815260040160405180910390fd5b611a37612dda565b61012f54421015611a5b5760405163f046007760e01b815260040160405180910390fd5b6101305442118015611ae2575061013a60009054906101000a90046001600160a01b03166001600160a01b0316638dfea9e76040518163ffffffff1660e01b8152600401602060405180830381865afa158015611abc573d6000803e3d6000fd5b505050506040513d601f19601f82011682018060405250810190611ae09190616468565b155b15611b005760405163f046007760e01b815260040160405180910390fd5b60005b81811015611b9b57611b8b838383818110611b2057611b206160af565b905060200201353361013b6000878787818110611b3f57611b3f6160af565b90506020020135815260200190815260200160002060070161013b6000888888818110611b6e57611b6e6160af565b9050602002013581526020019081526020016000206005016135e0565b611b94816160ff565b9050611b03565b50611330600160fb55565b600080516020616908833981519152611bbe81612573565b6113306000805160206168e883398151915283612aff565b600080516020616908833981519152611bee81612573565b61013d805461ff0019166101001790556101395461012e5461012d5460405163210d6add60e21b81526001600160a01b0390931692638435ab7492610f9e929091600401918252602082015260400190565b600091825260c9602090815260408084206001600160a01b0393909316845291905290205460ff1690565b611c736153a6565b600082815261013b60209081526040918290208251610160810184528154815260018201546001600160a01b03168184015260028201548185015260038201546060820152600482015460808201526005820180548551818602810186019096528086529194929360a08601939290830182828015611d1157602002820191906000526020600020905b815481526020019060010190808311611cfd575b505050918352505060068201546001600160a01b03166020808301919091526007830180546040805182850281018501825282815294019392830182828015611d8357602002820191906000526020600020905b81546001600160a01b03168152600190910190602001808311611d65575b50505091835250506008919091015460ff808216151560208401526001600160a01b036101008304166040840152600160a81b90910416151560609091015292915050565b61013e8181548110611dd957600080fd5b60009182526020909120600890910201805460018201546002830154600384015460058501546007909501549395506001600160a01b0392831694919390929182169160ff82169161010090041687565b600080516020616881833981519152611e4281612573565b61013d5460ff1615611e6757604051634ce377bb60e11b815260040160405180910390fd5b61013d805460ff191660011790556001600160a01b038716611e9c5760405163a258508760e01b815260040160405180910390fd5b61013780546001600160a01b03808a166001600160a01b03199283161790925561013a8054928b1692909116919091179055611ee660008051602061692883398151915289612aff565b611efe60008051602061686183398151915284612aff565b611f1660008051602061690883398151915283612aff565b61013980546001600160a01b038881166001600160a01b03199283168117909355610136805489831690841617905561013880549188169190921617905561012d5461012e5461012f54610130546101325461013354604051632b6cea3160e01b8152600481019690965260248601949094523060448601526064850192909252608484015268056bc75e2d6310000060a484015260c483015260e4820152632b6cea319061010401600060405180830381600087803b158015611fd957600080fd5b505af1158015611fed573d6000803e3d6000fd5b505050505050505050505050565b61200d61200783616485565b826121b6565b8235600090815261013b602090815260409182902083518155838201516001820180546001600160a01b0319166001600160a01b03909216919091179055918301516002830155606083015160038301556080830151600483015560a0830151805161207f9260058501920190615306565b5060c08201516006820180546001600160a01b0319166001600160a01b0390921691909117905560e082015180516120c1916007840191602090910190615351565b50610100828101516008929092018054610120850151610140909501516001600160a81b0319909116931515610100600160a81b031916939093176001600160a01b039094169091029290921760ff60a81b1916600160a81b9115159190910217905561013c80546001919060009061213b908490616491565b90915550505050565b61013f818154811061215557600080fd5b600091825260209091206009909102018054600182015460028301546003840154600485015460068601546008909601549496506001600160a01b039384169592949193909281169160ff8082169261010083041691600160a81b90041689565b6121be6153a6565b8260e0015115612286576040805161016081018252845181526020808601516001600160a01b0316818301528583015183519182015280830185905290918201906060016040516020818303038152906040528051906020012081526020018460400151815260200184606001518152602001846080015181526020018460a001516001600160a01b031681526020018460c0015181526020018460e00151151581526020018461010001516001600160a01b03168152602001600115158152509050610ae7565b6040805161016081018252845181526020808601516001600160a01b0316818301528583015183519182015280830185905290918201906060016040516020818303038152906040528051906020012081526020016000815260200184606001518152602001846080015181526020018460a001516001600160a01b031681526020018460c0015181526020018460e00151151581526020018461010001516001600160a01b0316815260200160001515815250905092915050565b600082815260c9602052604090206001015461235d81612573565b610ff88383612bec565b61013d54610100900460ff16156123915760405163059e557960e41b815260040160405180910390fd5b6000805160206168e88339815191526123a981612573565b6123b1612dda565b610130544211156123d55760405163f046007760e01b815260040160405180910390fd5b816080013560000361251f578135600090815261013b60205260408120600401549003612418576040516311ebb27f60e11b81528235600482015260240161109d565b8135600090815261013b602052604081208181556001810180546001600160a01b0319169055600281018290556003810182905560048101829055906124616005830182615401565b6006820180546001600160a01b0319169055612481600783016000615401565b5060080180546001600160b01b031916905561013c8054600191906000906124aa908490616128565b90915550506101395461012e546040516307fec0e360e01b81526004810191909152833560248201526001600160a01b03909116906307fec0e390604401600060405180830381600087803b15801561250257600080fd5b505af1158015612516573d6000803e3d6000fd5b50505050612530565b61253061252b836164a4565b61385d565b611330600160fb55565b60608060008051602061692883398151915261255581612573565b612563898989898989612600565b9250925050965096945050505050565b610c7b8133613a99565b60008051602061686183398151915261259581612573565b6101395460405163b3c2d50b60e01b81523060048201526001600160a01b0384811660248301529091169063b3c2d50b906044015b600060405180830381600087803b1580156125e457600080fd5b505af11580156125f8573d6000803e3d6000fd5b505050505050565b61013c54606090819083612614878a616491565b61261e9190616491565b146126435761013c54604051633c123a1960e01b815260040161109d91815260200190565b60005b858110156127c757600061013b6000898985818110612667576126676160af565b905060200201358152602001908152602001600020905080600401546000036126bf5787878381811061269c5761269c6160af565b905060200201356040516311ebb27f60e11b815260040161109d91815260200190565b600881015460ff16612700578787838181106126dd576126dd6160af565b9050602002013560405163103dad4560e11b815260040161109d91815260200190565b60008160080160019054906101000a90046001600160a01b03169050806001600160a01b0316631320834f6040518163ffffffff1660e01b8152600401602060405180830381865afa15801561275a573d6000803e3d6000fd5b505050506040513d601f19601f8201168201806040525081019061277e9190616587565b42111561279557815461279090613af2565b6127b4565b8154604051631a034f1360e11b8152600481019190915260240161109d565b5050806127c0906160ff565b9050612646565b6060600080806127d88d8d8a613b8a565b9296509094509250905060006127ef8e8e866141f1565b90506000836001600160401b0381111561280b5761280b6156c5565b60405190808252806020026020018201604052801561284457816020015b6128316153a6565b8152602001906001900390816128295790505b50905060008097505b8a881015612a7957600061013b60008e8e8c81811061286e5761286e6160af565b905060200201358152602001908152602001600020905080600401546000036128a3578c8c8a81811061269c5761269c6160af565b6008810154600160a81b900460ff16156128ec578c8c8a8181106128c9576128c96160af565b9050602002013560405163b53dcb6360e01b815260040161109d91815260200190565b60408051610160810182528254815260018301546001600160a01b031660208083019190915260028401548284015260038401546060830152600484015460808301526005840180548451818402810184019095528085529293859360a086019391929183018282801561297f57602002820191906000526020600020905b81548152602001906001019080831161296b575b505050918352505060068201546001600160a01b031660208083019190915260078301805460408051828502810185018252828152940193928301828280156129f157602002820191906000526020600020905b81546001600160a01b031681526001909101906020018083116129d3575b50505091835250506008919091015460ff808216151560208401526001600160a01b036101008304166040840152600160a81b9091041615156060909101528351849084908110612a4457612a446160af565b602002602001018190525081612a59906160ff565b9150612a688160000154613af2565b50612a72886160ff565b975061284d565b600097505b83881015612ad957868881518110612a9857612a986160af565b6020026020010151828281518110612ab257612ab26160af565b602002602001018190525080612ac7906160ff565b9050612ad2886160ff565b9750612a7e565b61013c5415612aea57612aea6165a0565b50909e909d509b505050505050505050505050565b612b098282611c40565b61133057600082815260c9602090815260408083206001600160a01b03851684529091529020805460ff19166001179055612b413390565b6001600160a01b0316816001600160a01b0316837f2f8788117e7eff1d82e926ec794901d17c78024a50270940304540a733656f0d60405160405180910390a45050565b6001600160a01b03163b151590565b600054610100900460ff16612bbb5760405162461bcd60e51b815260040161109d906165b6565b565b600054610100900460ff16612be45760405162461bcd60e51b815260040161109d906165b6565b612bbb614437565b612bf68282611c40565b1561133057600082815260c9602090815260408083206001600160a01b0385168085529252808320805460ff1916905551339285917ff6391f5c32d9c69d2a47ea670b442974b53935d1edc7fd64eb21e047a839171b9190a45050565b6000805160206168a1833981519152546001600160a01b031690565b7f4910fdfa16fed3260ed0e7147f7cc6da11a60208b5b9406d12a635614ffd91435460ff1615612ca257610ff88361445e565b826001600160a01b03166352d1902d6040518163ffffffff1660e01b8152600401602060405180830381865afa925050508015612cfc575060408051601f3d908101601f19168201909252612cf991810190616587565b60015b612d5f5760405162461bcd60e51b815260206004820152602e60248201527f45524331393637557067726164653a206e657720696d706c656d656e7461746960448201526d6f6e206973206e6f74205555505360901b606482015260840161109d565b6000805160206168a18339815191528114612dce5760405162461bcd60e51b815260206004820152602960248201527f45524331393637557067726164653a20756e737570706f727465642070726f786044820152681a58589b195555525160ba1b606482015260840161109d565b50610ff88383836144f8565b600260fb5403612e2c5760405162461bcd60e51b815260206004820152601f60248201527f5265656e7472616e637947756172643a207265656e7472616e742063616c6c00604482015260640161109d565b600260fb55565b6000826020015182816001600160a01b0316816001600160a01b031614612e6d576040516305732abb60e51b815260040160405180910390fd5b609661013c5410612e91576040516346f317d760e01b815260040160405180910390fd5b8451600090815261013b60205260408120600401541580159190612efe576020808801518851600090815261013b9092526040909120600101546001600160a01b03908116911614612ef6576040516305732abb60e51b815260040160405180910390fd5b508551612f0d565b8651612f0a9087614523565b90505b60a0870151610134546001600160a01b03908116911614612f47578660a0015160405163e34b641f60e01b815260040161109d9190615903565b60005b8760c0015151811015612fe55761013560008960c001518381518110612f7257612f726160af565b6020908102919091018101516001600160a01b031682528101919091526040016000205460ff16612fd5578760c001518181518110612fb357612fb36160af565b602002602001015160405163052baa4960e31b815260040161109d9190615903565b612fde816160ff565b9050612f4a565b50610132548760600151101561301657866060015160405163235c188560e01b815260040161109d91815260200190565b61302d87606001518860c0015189608001516145aa565b1561304b576040516354f8f85560e11b815260040160405180910390fd5b6000805b8860c00151518110156132bc57831561320157600083815261013b60205260409020600501805482908110613086576130866160af565b90600052602060002001549150886080015181815181106130a9576130a96160af565b6020026020010151821015613172576101365460208a015160c08b015180516001600160a01b0390931692632391281c929190859081106130ec576130ec6160af565b6020026020010151858d60800151868151811061310b5761310b6160af565b602002602001015161311d9190616128565b6040518463ffffffff1660e01b815260040161313b939291906160c5565b600060405180830381600087803b15801561315557600080fd5b505af1158015613169573d6000803e3d6000fd5b505050506132ac565b88608001518181518110613188576131886160af565b60200260200101518211156131fc576101365460208a015160c08b015180516001600160a01b03909316926348717eb7929190859081106131cb576131cb6160af565b60200260200101518c6080015185815181106131e9576131e96160af565b60200260200101518661311d9190616128565b6132ac565b6101365460208a015160c08b015180516001600160a01b0390931692632391281c92919085908110613235576132356160af565b60200260200101518c608001518581518110613253576132536160af565b60200260200101516040518463ffffffff1660e01b8152600401613279939291906160c5565b600060405180830381600087803b15801561329357600080fd5b505af11580156132a7573d6000803e3d6000fd5b505050505b6132b5816160ff565b905061304f565b5060405180610160016040528083815260200189602001516001600160a01b03168152602001896040015181526020016000815260200189606001518152602001896080015181526020018960a001516001600160a01b031681526020018960c00151815260200160001515815260200160006001600160a01b031681526020016000151581525061013b60008481526020019081526020016000206000820151816000015560208201518160010160006101000a8154816001600160a01b0302191690836001600160a01b0316021790555060408201518160020155606082015181600301556080820151816004015560a08201518160050190805190602001906133c9929190615306565b5060c08201516006820180546001600160a01b0319166001600160a01b0390921691909117905560e0820151805161340b916007840191602090910190615351565b50610100828101516008929092018054610120850151610140909501516001600160a81b0319909116931515610100600160a81b031916939093176001600160a01b039094169091029290921760ff60a81b1916600160a81b911515919091021790558261348d57600161013c60008282546134879190616491565b90915550505b50600090815261013b602052604090209695505050505050565b600160fb55565b600083815261013b6020908152604091829020600201548251918201859052918101839052606001604051602081830303815290604052805190602001201461350d57604051637afe112160e11b81526004810184905260240161109d565b68056bc75e2d6310000082111561354957604051632dc71e8d60e01b81526004810184905268056bc75e2d63100000602482015260440161109d565b600083815261013b60205260409081902060038101849055600801805460ff60a81b1916600160a81b1790556101395461012e5491516315d1070b60e11b8152600481019290925260248201859052604482018490526001600160a01b031690632ba20e1690606401600060405180830381600087803b1580156135cc57600080fd5b505af11580156119fb573d6000803e3d6000fd5b600084815261013b60205260408120600401549003613615576040516311ebb27f60e11b81526004810185905260240161109d565b600084815261013b60205260409020600101546001600160a01b03848116911614613653576040516305732abb60e51b815260040160405180910390fd5b600084815261013b602052604090206008015460ff16156136875760405163041753a560e31b815260040160405180910390fd5b60005b825481101561375b576101365483546001600160a01b03909116906348717eb79086908690859081106136bf576136bf6160af565b9060005260206000200160009054906101000a90046001600160a01b03168585815481106136ef576136ef6160af565b90600052602060002001546040518463ffffffff1660e01b8152600401613718939291906160c5565b600060405180830381600087803b15801561373257600080fd5b505af1158015613746573d6000803e3d6000fd5b5050505080613754906160ff565b905061368a565b50600084815261013b602052604081208181556001810180546001600160a01b0319169055600281018290556003810182905560048101829055906137a36005830182615401565b6006820180546001600160a01b03191690556137c3600783016000615401565b5060080180546001600160b01b031916905561013c8054600191906000906137ec908490616128565b90915550506101395461012e546040516307fec0e360e01b81526001600160a01b03909216916307fec0e39161382f918890600401918252602082015260400190565b600060405180830381600087803b15801561384957600080fd5b505af1158015610c68573d6000803e3d6000fd5b609661013c5410613881576040516346f317d760e01b815260040160405180910390fd5b8061010001516138aa57805160405163103dad4560e11b8152600481019190915260240161109d565b61013254816080015110156138da57806080015160405163235c188560e01b815260040161109d91815260200190565b8051600090815261013b602052604090206004015460c082015161013454911515916001600160a01b039081169116146139275760405163ed82d81b60e01b815260040160405180910390fd5b8151600090815261013b602090815260409182902084518155818501516001820180546001600160a01b0319166001600160a01b03909216919091179055918401516002830155606084015160038301556080840151600483015560a0840151805185939261399d926005850192910190615306565b5060c08201516006820180546001600160a01b0319166001600160a01b0390921691909117905560e082015180516139df916007840191602090910190615351565b50610100828101516008929092018054610120850151610140909501516001600160a81b0319909116931515610100600160a81b031916939093176001600160a01b039094169091029290921760ff60a81b1916600160a81b9115159190910217905580613a6157600161013c6000828254613a5b9190616491565b90915550505b6101395461012e5460405163050ecc8960e11b81526001600160a01b0390921691630a1d9912916125ca918690600090600401616601565b613aa38282611c40565b61133057613ab081614801565b613abb836020614813565b604051602001613acc929190616632565b60408051601f198184030181529082905262461bcd60e51b825261109d91600401615abd565b600081815261013b602052604081208181556001810180546001600160a01b031916905560028101829055600381018290556004810182905590613b396005830182615401565b6006820180546001600160a01b0319169055613b59600783016000615401565b5060080180546001600160b01b031916905561013c805460019190600090613b82908490616128565b909155505050565b606060008080858582826001600160401b03811115613bab57613bab6156c5565b604051908082528060200260200182016040528015613be457816020015b613bd16153a6565b815260200190600190039081613bc95790505b50905060008060005b8b8110156141dc57600061013b60008f8f85818110613c0e57613c0e6160af565b90506020020135815260200190815260200160002090508060040154600003613c43578d8d8381811061269c5761269c6160af565b8060030154831115613c68576040516370dcb33760e11b815260040160405180910390fd5b80600301549250600881015460ff1615613ed05760008160080160019054906101000a90046001600160a01b03169050806001600160a01b0316631320834f6040518163ffffffff1660e01b8152600401602060405180830381865afa158015613cd6573d6000803e3d6000fd5b505050506040513d601f19601f82011682018060405250810190613cfa9190616587565b421115613d2057815460405163bcbe400960e01b8152600481019190915260240161109d565b613d2a82826149ae565b613eca57613d37876160ff565b60408051610160810182528454815260018501546001600160a01b03166020808301919091526002860154828401526003860154606083015260048601546080830152600586018054845181840281018401909552808552949b509193869360a08601939092909190830182828015613dcf57602002820191906000526020600020905b815481526020019060010190808311613dbb575b505050918352505060068201546001600160a01b03166020808301919091526007830180546040805182850281018501825282815294019392830182828015613e4157602002820191906000526020600020905b81546001600160a01b03168152600190910190602001808311613e23575b50505091835250506008919091015460ff808216151560208401526001600160a01b036101008304166040840152600160a81b9091041615156060909101528651879087908110613e9457613e946160af565b602002602001018190525084613ea9906160ff565b9450613eb4886166a1565b9750613ec38260000154613af2565b50506141cc565b50613f02565b6008810154600160a81b900460ff16613f025780546040516362d45c6f60e11b8152600481019190915260240161109d565b613fc48160040154826003015483600701805480602002602001604051908101604052809291908181526020018280548015613f6757602002820191906000526020600020905b81546001600160a01b03168152600190910190602001808311613f49575b505050505084600501805480602002602001604051908101604052809291908181526020018280548015613fba57602002820191906000526020600020905b815481526020019060010190808311613fa6575b5050505050614d60565b156141ca576101395461012e548254604051635bcf235d60e01b8152600481019290925260248201526001600160a01b0390911690635bcf235d90604401600060405180830381600087803b15801561401c57600080fd5b505af1158015614030573d6000803e3d6000fd5b505050508561403e906160ff565b60408051610160810182528354815260018401546001600160a01b03166020808301919091526002850154828401526003850154606083015260048501546080830152600585018054845181840281018401909552808552949a509193859360a086019390929091908301828280156140d657602002820191906000526020600020905b8154815260200190600101908083116140c2575b505050918352505060068201546001600160a01b0316602080830191909152600783018054604080518285028101850182528281529401939283018282801561414857602002820191906000526020600020905b81546001600160a01b0316815260019091019060200180831161412a575b50505091835250506008919091015460ff808216151560208401526001600160a01b036101008304166040840152600160a81b909104161515606090910152855186908690811061419b5761419b6160af565b6020026020010181905250836141b0906160ff565b93506141bb876166a1565b96506141ca8160000154613af2565b505b6141d5816160ff565b9050613bed565b50919b939a5091985090965090945050505050565b60606000826001600160401b0381111561420d5761420d6156c5565b60405190808252806020026020018201604052801561424657816020015b61423361541f565b81526020019060019003908161422b5790505b5090506000805b8581101561442c57600061013b600089898581811061426e5761426e6160af565b90506020020135815260200190815260200160002090508060040154600003614297575061441c565b60408051610160810182528254815260018301546001600160a01b031660208083019190915260028401548284015260038401546060830152600484015460808301526005840180548451818402810184019095528085526143e294869360a086019391929083018282801561432c57602002820191906000526020600020905b815481526020019060010190808311614318575b505050918352505060068201546001600160a01b0316602080830191909152600783018054604080518285028101850182528281529401939283018282801561439e57602002820191906000526020600020905b81546001600160a01b03168152600190910190602001808311614380575b50505091835250506008919091015460ff808216151560208401526001600160a01b036101008304166040840152600160a81b909104161515606090910152614fd1565b8484815181106143f4576143f46160af565b6020026020010181905250828061440a906160ff565b93505061441a8160000154613af2565b505b614425816160ff565b905061424d565b509095945050505050565b600054610100900460ff166134a75760405162461bcd60e51b815260040161109d906165b6565b61446781612b85565b6144c95760405162461bcd60e51b815260206004820152602d60248201527f455243313936373a206e657720696d706c656d656e746174696f6e206973206e60448201526c1bdd08184818dbdb9d1c9858dd609a1b606482015260840161109d565b6000805160206168a183398151915280546001600160a01b0319166001600160a01b0392909216919091179055565b61450183615063565b60008251118061450e5750805b15610ff85761451d83836150a3565b50505050565b60008083833060405160200161455d93929190928352606091821b6001600160601b03199081166020850152911b16603482015260480190565b60408051601f198184030181529181528151602092830120600081815261013b909352912060040154909150156115bc576040516310f5216760e21b81526004810182905260240161109d565b61013854610134546040516303d3c9db60e21b815260009283926001600160a01b0391821692630f4f276c926145e692169089906004016166b8565b602060405180830381865afa158015614603573d6000803e3d6000fd5b505050506040513d601f19601f8201168201806040525081019061462791906166d1565b60408051602081019091526000808252919250905b85518110156147df576000868281518110614659576146596160af565b602090810291909101015161013654604051632a1e8cdb60e01b81529192506000916001600160a01b0390911690632a1e8cdb9061469b908590600401615903565b602060405180830381865afa1580156146b8573d6000803e3d6000fd5b505050506040513d601f19601f820116820180604052508101906146dc9190616587565b90508683815181106146f0576146f06160af565b60200260200101516000036147065750506147cf565b60006147bd61013860009054906101000a90046001600160a01b03166001600160a01b0316630f4f276c858b8881518110614743576147436160af565b60200260200101516040518363ffffffff1660e01b81526004016147689291906166b8565b602060405180830381865afa158015614785573d6000803e3d6000fd5b505050506040513d601f19601f820116820180604052508101906147a991906166d1565b6040518060200160405280858152506150c8565b90506147c9818661510b565b94505050505b6147d8816160ff565b905061463c565b508151815110156147f5576001925050506115bc565b50600095945050505050565b6060610ae76001600160a01b03831660145b6060600061482283600261613b565b61482d906002616491565b6001600160401b03811115614844576148446156c5565b6040519080825280601f01601f19166020018201604052801561486e576020820181803683370190505b509050600360fc1b81600081518110614889576148896160af565b60200101906001600160f81b031916908160001a905350600f60fb1b816001815181106148b8576148b86160af565b60200101906001600160f81b031916908160001a90535060006148dc84600261613b565b6148e7906001616491565b90505b600181111561495f576f181899199a1a9b1b9c1cb0b131b232b360811b85600f166010811061491b5761491b6160af565b1a60f81b828281518110614931576149316160af565b60200101906001600160f81b031916908160001a90535060049490941c93614958816166a1565b90506148ea565b5083156115bc5760405162461bcd60e51b815260206004820181905260248201527f537472696e67733a20686578206c656e67746820696e73756666696369656e74604482015260640161109d565b6001820154604051632762697d60e01b815260009182916001600160a01b0385811692632762697d926149e79290911690600401615903565b602060405180830381865afa158015614a04573d6000803e3d6000fd5b505050506040513d601f19601f82011682018060405250810190614a289190616587565b905080600003614a3c576000915050610ae7565b604080516020808201835261013354825282518082018085526101375463fa19d0ed60e01b9091529351600094614acd949383926001600160a01b039092169163fa19d0ed91602480860192908187030181865afa158015614aa2573d6000803e3d6000fd5b505050506040513d601f19601f82011682018060405250810190614ac69190616587565b9052615137565b6000015190506000614b26614b216040518060200160405280670de0b6b3a764000087614afa919061613b565b9052604080516020810190915280614b1a87670de0b6b3a7640000616128565b90526150c8565b615176565b90508560040154811015614b3c57600486018190555b600081670de0b6b3a76400008860040154614b57919061613b565b614b619190616152565b90506000866001600160a01b0316633de81dc46040518163ffffffff1660e01b8152600401602060405180830381865afa158015614ba3573d6000803e3d6000fd5b505050506040513d601f19601f82011682018060405250810190614bc79190616712565b6001890154604051636f3fc39760e11b815291925060009182916001600160a01b038086169263de7f872e92614c01921690600401615903565b600060405180830381865afa158015614c1e573d6000803e3d6000fd5b505050506040513d6000823e601f3d908101601f19168201604052614c46919081019061678a565b90925090506000805b8351811015614ce457614c89604051806020016040528088815250848381518110614c7c57614c7c6160af565b602002602001015161518e565b91508b6005018181548110614ca057614ca06160af565b90600052602060002001548214614cd457818c6005018281548110614cc757614cc76160af565b6000918252602090912001555b614cdd816160ff565b9050614c4f565b506101395461012e5460405163050ecc8960e11b81526001600160a01b0390921691630a1d991291614d1d918f9060009060040161636a565b600060405180830381600087803b158015614d3757600080fd5b505af1158015614d4b573d6000803e3d6000fd5b5060019e9d5050505050505050505050505050565b60008084600003614d72575084614def565b6000614dbc6040518060200160405280670de0b6b3a7640000815250614db760405180602001604052806101335481525060405180602001604052808b815250615137565b61510b565b9050614deb614b216040518060200160405280670de0b6b3a76400008b614de3919061613b565b905283615137565b9150505b61013854610134546040516303d3c9db60e21b81526000926001600160a01b0390811692630f4f276c92614e2b929091169086906004016166b8565b602060405180830381865afa158015614e48573d6000803e3d6000fd5b505050506040513d601f19601f82011682018060405250810190614e6c91906166d1565b60408051602081019091526000808252919250905b8651811015614faa576000878281518110614e9e57614e9e6160af565b6020908102919091010151610136546040516320db25d560e01b81529192506000916001600160a01b03909116906320db25d590614ee0908590600401615903565b602060405180830381865afa158015614efd573d6000803e3d6000fd5b505050506040513d601f19601f82011682018060405250810190614f219190616587565b9050878381518110614f3557614f356160af565b6020026020010151600003614f4b575050614f9a565b6000614f8861013860009054906101000a90046001600160a01b03166001600160a01b0316630f4f276c858c8881518110614743576147436160af565b9050614f94818661510b565b94505050505b614fa3816160ff565b9050614e81565b50815181511015614fc15760019350505050614fc9565b600093505050505b949350505050565b614fd961541f565b6040518061012001604052808360000151815260200183602001516001600160a01b0316815260200183606001518152602001836080015181526020018360a0015181526020018360c001516001600160a01b031681526020018360e001518152602001836101000151151581526020018361012001516001600160a01b03168152509050919050565b61506c8161445e565b6040516001600160a01b038216907fbc7cd75a20ee27fd9adebab32041f755214dbc6bffa90cc0225b39da2e5c2d3b90600090a250565b60606115bc83836040518060600160405280602781526020016168c1602791396151a6565b60408051602081019091526000815260405180602001604052806151026150fb8660000151670de0b6b3a764000061521e565b855161522a565b90529392505050565b604080516020810190915260008152604051806020016040528061510285600001518560000151615236565b6040805160208101909152600081526040518060200160405280670de0b6b3a764000061516c8660000151866000015161521e565b6151029190616152565b8051600090610ae790670de0b6b3a764000090616152565b60008061519b8484615242565b9050614fc981615176565b6060600080856001600160a01b0316856040516151c3919061684e565b600060405180830381855af49150503d80600081146151fe576040519150601f19603f3d011682016040523d82523d6000602084013e615203565b606091505b50915091506152148683838761526a565b9695505050505050565b60006115bc828461613b565b60006115bc8284616152565b60006115bc8284616491565b604080516020810190915260008152604051806020016040528061510285600001518561521e565b606083156152d75782516000036152d05761528485612b85565b6152d05760405162461bcd60e51b815260206004820152601d60248201527f416464726573733a2063616c6c20746f206e6f6e2d636f6e7472616374000000604482015260640161109d565b5081614fc9565b614fc983838151156152ec5781518083602001fd5b8060405162461bcd60e51b815260040161109d9190615abd565b828054828255906000526020600020908101928215615341579160200282015b82811115615341578251825591602001919060010190615326565b5061534d92915061546a565b5090565b828054828255906000526020600020908101928215615341579160200282015b8281111561534157825182546001600160a01b0319166001600160a01b03909116178255602090920191600190910190615371565b604080516101608101825260008082526020820181905291810182905260608082018390526080820183905260a0820181905260c0820183905260e08201526101008101829052610120810182905261014081019190915290565b5080546000825590600052602060002090810190610c7b919061546a565b604080516101208101825260008082526020820181905291810182905260608082018390526080820181905260a0820183905260c082015260e0810182905261010081019190915290565b5b8082111561534d576000815560010161546b565b60006020828403121561549157600080fd5b81356001600160e01b0319811681146115bc57600080fd5b6001600160a01b0381168114610c7b57600080fd5b80356154c9816154a9565b919050565b60008083601f8401126154e057600080fd5b5081356001600160401b038111156154f757600080fd5b6020830191508360208260051b850101111561551257600080fd5b9250929050565b6000806000806000806080878903121561553257600080fd5b863595506020870135615544816154a9565b945060408701356001600160401b038082111561556057600080fd5b61556c8a838b016154ce565b9096509450606089013591508082111561558557600080fd5b5061559289828a016154ce565b979a9699509497509295939492505050565b6000602082840312156155b657600080fd5b81356115bc816154a9565b600080600080600080606087890312156155da57600080fd5b86356001600160401b03808211156155f157600080fd5b6155fd8a838b016154ce565b9098509650602089013591508082111561561657600080fd5b6156228a838b016154ce565b9096509450604089013591508082111561558557600080fd5b60006020828403121561564d57600080fd5b5035919050565b6000806040838503121561566757600080fd5b823591506020830135615679816154a9565b809150509250929050565b60008083601f84011261569657600080fd5b5081356001600160401b038111156156ad57600080fd5b60208301915083602082850101111561551257600080fd5b634e487b7160e01b600052604160045260246000fd5b60405161012081016001600160401b03811182821017156156fe576156fe6156c5565b60405290565b60405160e081016001600160401b03811182821017156156fe576156fe6156c5565b60405161016081016001600160401b03811182821017156156fe576156fe6156c5565b604051601f8201601f191681016001600160401b0381118282101715615771576157716156c5565b604052919050565b60006001600160401b03821115615792576157926156c5565b5060051b60200190565b600082601f8301126157ad57600080fd5b813560206157c26157bd83615779565b615749565b82815260059290921b840181019181810190868411156157e157600080fd5b8286015b848110156158055780356157f8816154a9565b83529183019183016157e5565b509695505050505050565b6000806000806000806000806000806000806101408d8f03121561583357600080fd5b6001600160401b038d35111561584857600080fd5b6158558e8e358f01615684565b909c509a506001600160401b0360208e0135111561587257600080fd5b6158828e60208f01358f01615684565b909a50985060408d0135975060608d0135965060808d0135955060a08d0135945060c08d013593506158b660e08e016154be565b92506001600160401b036101008e013511156158d157600080fd5b6158e28e6101008f01358f0161579c565b91506158f16101208e016154be565b90509295989b509295989b509295989b565b6001600160a01b0391909116815260200190565b60008060006040848603121561592c57600080fd5b83356001600160401b0381111561594257600080fd5b61594e868287016154ce565b9094509250506020840135615962816154a9565b809150509250925092565b6020808252825182820181905260009190848201906040850190845b818110156159a557835183529284019291840191600101615989565b50909695505050505050565b600080602083850312156159c457600080fd5b82356001600160401b038111156159da57600080fd5b6159e6858286016154ce565b90969095509350505050565b60008060408385031215615a0557600080fd5b8235615a10816154a9565b91506020838101356001600160401b0380821115615a2d57600080fd5b818601915086601f830112615a4157600080fd5b813581811115615a5357615a536156c5565b615a65601f8201601f19168501615749565b91508082528784828501011115615a7b57600080fd5b80848401858401376000848284010152508093505050509250929050565b60005b83811015615ab4578181015183820152602001615a9c565b50506000910152565b6020815260008251806020840152615adc816040850160208701615a99565b601f01601f19169190910160400192915050565b6001600160a01b03169052565b600081518084526020808501945080840160005b83811015615b2d57815187529582019590820190600101615b11565b509495945050505050565b600081518084526020808501945080840160005b83811015615b2d5781516001600160a01b031687529582019590820190600101615b4c565b6000610160825184526020830151615b8c6020860182615af0565b5060408301516040850152606083015160608501526080830151608085015260a08301518160a0860152615bc282860182615afd565b91505060c0830151615bd760c0860182615af0565b5060e083015184820360e0860152615bef8282615b38565b91505061010080840151615c068287018215159052565b505061012080840151615c1b82870182615af0565b50506101409283015115159390920192909252919050565b6020815260006115bc6020830184615b71565b600080600080600080600060e0888a031215615c6157600080fd5b8735615c6c816154a9565b96506020880135615c7c816154a9565b95506040880135615c8c816154a9565b94506060880135615c9c816154a9565b93506080880135615cac816154a9565b925060a0880135615cbc816154a9565b915060c0880135615ccc816154a9565b8091505092959891949750929550565b60008060408385031215615cef57600080fd5b82356001600160401b03811115615d0557600080fd5b83016101208186031215615d1857600080fd5b946020939093013593505050565b600082601f830112615d3757600080fd5b81356020615d476157bd83615779565b82815260059290921b84018101918181019086841115615d6657600080fd5b8286015b848110156158055780358352918301918301615d6a565b600082601f830112615d9257600080fd5b81356020615da26157bd83615779565b82815260059290921b84018101918181019086841115615dc157600080fd5b8286015b84811015615805578035615dd8816154a9565b8352918301918301615dc5565b8015158114610c7b57600080fd5b80356154c981615de5565b60006101208284031215615e1157600080fd5b615e196156db565b905081358152615e2b602083016154be565b6020820152604082013560408201526060820135606082015260808201356001600160401b0380821115615e5e57600080fd5b615e6a85838601615d26565b6080840152615e7b60a085016154be565b60a084015260c0840135915080821115615e9457600080fd5b50615ea184828501615d81565b60c083015250615eb360e08301615df3565b60e0820152610100615ec68184016154be565b9082015292915050565b60008060408385031215615ee357600080fd5b82356001600160401b03811115615ef957600080fd5b615f0585828601615dfe565b95602094909401359450505050565b600060208284031215615f2657600080fd5b81356001600160401b03811115615f3c57600080fd5b820161016081850312156115bc57600080fd5b600081518084526020808501808196508360051b8101915082860160005b85811015615f97578284038952615f85848351615b71565b98850198935090840190600101615f6d565b5091979650505050505050565b60006040808301818452808651808352606092508286019150828160051b8701016020808a0160005b8481101561608f57605f198a850301865281516101208151865284820151615ff786880182615af0565b50898201518a8701528882015189870152608080830151828289015261601f83890182615afd565b9250505060a08083015161603582890182615af0565b505060c0808301518783038289015261604e8382615b38565b9250505060e0808301516160658289018215159052565b5050610100918201519161607b87820184615af0565b509684019694505090820190600101615fcd565b5050878203908801526160a28189615f4f565b9998505050505050505050565b634e487b7160e01b600052603260045260246000fd5b6001600160a01b039384168152919092166020820152604081019190915260600190565b634e487b7160e01b600052601160045260246000fd5b600060018201616111576161116160e9565b5060010190565b8183823760009101908152919050565b81810381811115610ae757610ae76160e9565b8082028115828204841417610ae757610ae76160e9565b60008261616f57634e487b7160e01b600052601260045260246000fd5b500490565b600060ff821660ff810361618a5761618a6160e9565b60010192915050565b6020808252602c908201527f46756e6374696f6e206d7573742062652063616c6c6564207468726f7567682060408201526b19195b1959d85d1958d85b1b60a21b606082015260800190565b6020808252602c908201527f46756e6374696f6e206d7573742062652063616c6c6564207468726f7567682060408201526b6163746976652070726f787960a01b606082015260800190565b6000823560de1983360301811261624157600080fd5b9190910192915050565b600060e0823603121561625d57600080fd5b616265615704565b82358152616275602084016154be565b6020820152604083013560408201526060830135606082015260808301356001600160401b03808211156162a857600080fd5b6162b436838701615d26565b60808401526162c560a086016154be565b60a084015260c08501359150808211156162de57600080fd5b506162eb36828601615d81565b60c08301525092915050565b6000815480845260208085019450836000528060002060005b83811015615b2d57815487529582019560019182019101616310565b6000815480845260208085019450836000528060002060005b83811015615b2d5781546001600160a01b031687529582019560019182019101616345565b8381526060602082015282546060820152600061639160018501546001600160a01b031690565b61639e6080840182615af0565b50600284015460a0830152600384015460c0830152600484015460e0830152610160806101008401526163d86101c08401600587016162f7565b60068601546001600160a01b03166163f4610120860182615af0565b50838103605f190161014085015261640f816007880161632c565b9050600886015461642683860160ff831615159052565b6164416101808601600883901c6001600160a01b0316615af0565b6164566101a0860160ff8360a81c1615159052565b509150614fc990506040830184615af0565b60006020828403121561647a57600080fd5b81516115bc81615de5565b6000610ae73683615dfe565b80820180821115610ae757610ae76160e9565b600061016082360312156164b757600080fd5b6164bf615726565b823581526164cf602084016154be565b602082015260408301356040820152606083013560608201526080830135608082015260a08301356001600160401b038082111561650c57600080fd5b61651836838701615d26565b60a084015261652960c086016154be565b60c084015260e085013591508082111561654257600080fd5b5061654f36828601615d81565b60e083015250610100616563818501615df3565b908201526101206165758482016154be565b90820152610140615ec6848201615df3565b60006020828403121561659957600080fd5b5051919050565b634e487b7160e01b600052600160045260246000fd5b6020808252602b908201527f496e697469616c697a61626c653a20636f6e7472616374206973206e6f74206960408201526a6e697469616c697a696e6760a81b606082015260800190565b83815260606020820152600061661a6060830185615b71565b905060018060a01b0383166040830152949350505050565b76020b1b1b2b9b9a1b7b73a3937b61d1030b1b1b7bab73a1604d1b815260008351616664816017850160208801615a99565b7001034b99036b4b9b9b4b733903937b6329607d1b6017918401918201528351616695816028840160208801615a99565b01602801949350505050565b6000816166b0576166b06160e9565b506000190190565b6001600160a01b03929092168252602082015260400190565b6000602082840312156166e357600080fd5b604051602081018181106001600160401b0382111715616705576167056156c5565b6040529151825250919050565b60006020828403121561672457600080fd5b81516115bc816154a9565b600082601f83011261674057600080fd5b815160206167506157bd83615779565b82815260059290921b8401810191818101908684111561676f57600080fd5b8286015b848110156158055780518352918301918301616773565b6000806040838503121561679d57600080fd5b82516001600160401b03808211156167b457600080fd5b818501915085601f8301126167c857600080fd5b815160206167d86157bd83615779565b82815260059290921b840181019181810190898411156167f757600080fd5b948201945b8386101561681e57855161680f816154a9565b825294820194908201906167fc565b9188015191965090935050508082111561683757600080fd5b506168448582860161672f565b9150509250929050565b60008251616241818460208701615a9956fe793a6c9b7e0a9549c74edc2f9ae0dc50903dfaa9a56fb0116b27a8c71de3e2c630d41a597cac127d8249d31298b50e481ee82c3f4a49ff93c76a22735aa9f3ad360894a13ba1a3210667c828492db98dca3e2076cc3735a920a3ca505d382bbc416464726573733a206c6f772d6c6576656c2064656c65676174652063616c6c206661696c65646e3cc031d23d7153f72e87cbfd113a0351c60d8ce52b8a31c944d543a384b7c9a49807205ce4d355092ef5a8a18f56e8913cf4a201fbe287825b095693c21775c1df76f4e50bdb95676f782d4b88b23904c5346d8bc7c986ae26f7e10e601891a264697066735822122049ba392d7fb2434f91da8c18918a758effc25eab6774aaa4f88b950614169ea764736f6c63430008120033",
  "linkReferences": {},
  "deployedLinkReferences": {}
}