{
  "_format": "hh-sol-artifact-1",
  "contractName": "TestingTermAuctionBidLocker",
  "sourceName": "contracts/test/TestingTermAuctionBidLocker.sol",
  "abi": [
    {
      "inputs": [],
      "name": "AccessControlBadConfirmation",
      "type": "error"
    },
    {
      "inputs": [
        {
          "internalType": "address",
          "name": "account",
          "type": "address"
        },
        {
          "internalType": "bytes32",
          "name": "neededRole",
          "type": "bytes32"
        }
      ],
      "name": "AccessControlUnauthorizedAccount",
      "type": "error"
    },
    {
      "inputs": [
        {
          "internalType": "address",
          "name": "target",
          "type": "address"
        }
      ],
      "name": "AddressEmptyCode",
      "type": "error"
    },
    {
      "inputs": [],
      "name": "AlreadyTermContractPaired",
      "type": "error"
    },
    {
      "inputs": [],
      "name": "AuctionNotClosed",
      "type": "error"
    },
    {
      "inputs": [],
      "name": "AuctionNotOpen",
      "type": "error"
    },
    {
      "inputs": [],
      "name": "AuctionNotRevealing",
      "type": "error"
    },
    {
      "inputs": [
        {
          "internalType": "uint256",
          "name": "reveal",
          "type": "uint256"
        },
        {
          "internalType": "uint256",
          "name": "end",
          "type": "uint256"
        }
      ],
      "name": "AuctionRevealsAfterEnd",
      "type": "error"
    },
    {
      "inputs": [
        {
          "internalType": "uint256",
          "name": "start",
          "type": "uint256"
        },
        {
          "internalType": "uint256",
          "name": "reveal",
          "type": "uint256"
        }
      ],
      "name": "AuctionStartsAfterReveal",
      "type": "error"
    },
    {
      "inputs": [],
      "name": "BidAlreadyRevealed",
      "type": "error"
    },
    {
      "inputs": [
        {
          "internalType": "uint256",
          "name": "amount",
          "type": "uint256"
        }
      ],
      "name": "BidAmountTooLow",
      "type": "error"
    },
    {
      "inputs": [
        {
          "internalType": "uint256",
          "name": "bidCount",
          "type": "uint256"
        }
      ],
      "name": "BidCountIncorrect",
      "type": "error"
    },
    {
      "inputs": [],
      "name": "BidNotOwned",
      "type": "error"
    },
    {
      "inputs": [
        {
          "internalType": "bytes32",
          "name": "bidId",
          "type": "bytes32"
        }
      ],
      "name": "BidNotRevealed",
      "type": "error"
    },
    {
      "inputs": [
        {
          "internalType": "bytes32",
          "name": "id",
          "type": "bytes32"
        }
      ],
      "name": "BidPriceModified",
      "type": "error"
    },
    {
      "inputs": [
        {
          "internalType": "bytes32",
          "name": "bidId",
          "type": "bytes32"
        }
      ],
      "name": "BidRevealed",
      "type": "error"
    },
    {
      "inputs": [],
      "name": "CollateralAmountTooLow",
      "type": "error"
    },
    {
      "inputs": [
        {
          "internalType": "address",
          "name": "expected",
          "type": "address"
        },
        {
          "internalType": "address",
          "name": "actual",
          "type": "address"
        }
      ],
      "name": "CollateralTokenMismatch",
      "type": "error"
    },
    {
      "inputs": [
        {
          "internalType": "address",
          "name": "token",
          "type": "address"
        }
      ],
      "name": "CollateralTokenNotApproved",
      "type": "error"
    },
    {
      "inputs": [
        {
          "internalType": "address",
          "name": "implementation",
          "type": "address"
        }
      ],
      "name": "ERC1967InvalidImplementation",
      "type": "error"
    },
    {
      "inputs": [],
      "name": "ERC1967NonPayable",
      "type": "error"
    },
    {
      "inputs": [],
      "name": "FailedCall",
      "type": "error"
    },
    {
      "inputs": [
        {
          "internalType": "bytes32",
          "name": "bidId",
          "type": "bytes32"
        }
      ],
      "name": "GeneratingExistingBid",
      "type": "error"
    },
    {
      "inputs": [],
      "name": "InvalidInitialization",
      "type": "error"
    },
    {
      "inputs": [],
      "name": "InvalidPurchaseToken",
      "type": "error"
    },
    {
      "inputs": [],
      "name": "InvalidSelfReferral",
      "type": "error"
    },
    {
      "inputs": [],
      "name": "InvalidTermRepoServicer",
      "type": "error"
    },
    {
      "inputs": [],
      "name": "LockingPaused",
      "type": "error"
    },
    {
      "inputs": [],
      "name": "MaxBidCountReached",
      "type": "error"
    },
    {
      "inputs": [],
      "name": "NoCollateralToUnlock",
      "type": "error"
    },
    {
      "inputs": [
        {
          "internalType": "bytes32",
          "name": "bidId",
          "type": "bytes32"
        }
      ],
      "name": "NonExistentBid",
      "type": "error"
    },
    {
      "inputs": [
        {
          "internalType": "bytes32",
          "name": "bidId",
          "type": "bytes32"
        }
      ],
      "name": "NonExpiredRolloverBid",
      "type": "error"
    },
    {
      "inputs": [
        {
          "internalType": "bytes32",
          "name": "id",
          "type": "bytes32"
        }
      ],
      "name": "NonRolloverBid",
      "type": "error"
    },
    {
      "inputs": [],
      "name": "NotInitializing",
      "type": "error"
    },
    {
      "inputs": [
        {
          "internalType": "address",
          "name": "token",
          "type": "address"
        }
      ],
      "name": "PurchaseTokenNotApproved",
      "type": "error"
    },
    {
      "inputs": [],
      "name": "ReentrancyGuardReentrantCall",
      "type": "error"
    },
    {
      "inputs": [],
      "name": "RevealedBidsNotSorted",
      "type": "error"
    },
    {
      "inputs": [],
      "name": "RolloverBid",
      "type": "error"
    },
    {
      "inputs": [
        {
          "internalType": "bytes32",
          "name": "bidId",
          "type": "bytes32"
        }
      ],
      "name": "RolloverBidExpired",
      "type": "error"
    },
    {
      "inputs": [],
      "name": "RolloverBidInShortfall",
      "type": "error"
    },
    {
      "inputs": [
        {
          "internalType": "bytes32",
          "name": "id",
          "type": "bytes32"
        },
        {
          "internalType": "uint256",
          "name": "maxPrice",
          "type": "uint256"
        }
      ],
      "name": "TenderPriceTooHigh",
      "type": "error"
    },
    {
      "inputs": [],
      "name": "TermContractsPaused",
      "type": "error"
    },
    {
      "inputs": [],
      "name": "UUPSUnauthorizedCallContext",
      "type": "error"
    },
    {
      "inputs": [
        {
          "internalType": "bytes32",
          "name": "slot",
          "type": "bytes32"
        }
      ],
      "name": "UUPSUnsupportedProxiableUUID",
      "type": "error"
    },
    {
      "inputs": [],
      "name": "UnlockingPaused",
      "type": "error"
    },
    {
      "anonymous": false,
      "inputs": [
        {
          "indexed": false,
          "internalType": "uint64",
          "name": "version",
          "type": "uint64"
        }
      ],
      "name": "Initialized",
      "type": "event"
    },
    {
      "anonymous": false,
      "inputs": [
        {
          "indexed": true,
          "internalType": "bytes32",
          "name": "role",
          "type": "bytes32"
        },
        {
          "indexed": true,
          "internalType": "bytes32",
          "name": "previousAdminRole",
          "type": "bytes32"
        },
        {
          "indexed": true,
          "internalType": "bytes32",
          "name": "newAdminRole",
          "type": "bytes32"
        }
      ],
      "name": "RoleAdminChanged",
      "type": "event"
    },
    {
      "anonymous": false,
      "inputs": [
        {
          "indexed": true,
          "internalType": "bytes32",
          "name": "role",
          "type": "bytes32"
        },
        {
          "indexed": true,
          "internalType": "address",
          "name": "account",
          "type": "address"
        },
        {
          "indexed": true,
          "internalType": "address",
          "name": "sender",
          "type": "address"
        }
      ],
      "name": "RoleGranted",
      "type": "event"
    },
    {
      "anonymous": false,
      "inputs": [
        {
          "indexed": true,
          "internalType": "bytes32",
          "name": "role",
          "type": "bytes32"
        },
        {
          "indexed": true,
          "internalType": "address",
          "name": "account",
          "type": "address"
        },
        {
          "indexed": true,
          "internalType": "address",
          "name": "sender",
          "type": "address"
        }
      ],
      "name": "RoleRevoked",
      "type": "event"
    },
    {
      "anonymous": false,
      "inputs": [
        {
          "indexed": true,
          "internalType": "address",
          "name": "implementation",
          "type": "address"
        }
      ],
      "name": "Upgraded",
      "type": "event"
    },
    {
      "inputs": [],
      "name": "ADMIN_ROLE",
      "outputs": [
        {
          "internalType": "bytes32",
          "name": "",
          "type": "bytes32"
        }
      ],
      "stateMutability": "view",
      "type": "function"
    },
    {
      "inputs": [],
      "name": "AUCTIONEER_ROLE",
      "outputs": [
        {
          "internalType": "bytes32",
          "name": "",
          "type": "bytes32"
        }
      ],
      "stateMutability": "view",
      "type": "function"
    },
    {
      "inputs": [],
      "name": "DEFAULT_ADMIN_ROLE",
      "outputs": [
        {
          "internalType": "bytes32",
          "name": "",
          "type": "bytes32"
        }
      ],
      "stateMutability": "view",
      "type": "function"
    },
    {
      "inputs": [],
      "name": "DEVOPS_ROLE",
      "outputs": [
        {
          "internalType": "bytes32",
          "name": "",
          "type": "bytes32"
        }
      ],
      "stateMutability": "view",
      "type": "function"
    },
    {
      "inputs": [],
      "name": "DIAMOND_ROLE",
      "outputs": [
        {
          "internalType": "bytes32",
          "name": "",
          "type": "bytes32"
        }
      ],
      "stateMutability": "view",
      "type": "function"
    },
    {
      "inputs": [],
      "name": "INITIALIZER_ROLE",
      "outputs": [
        {
          "internalType": "bytes32",
          "name": "",
          "type": "bytes32"
        }
      ],
      "stateMutability": "view",
      "type": "function"
    },
    {
      "inputs": [],
      "name": "MAX_BID_COUNT",
      "outputs": [
        {
          "internalType": "uint256",
          "name": "",
          "type": "uint256"
        }
      ],
      "stateMutability": "view",
      "type": "function"
    },
    {
      "inputs": [],
      "name": "MAX_BID_PRICE",
      "outputs": [
        {
          "internalType": "uint256",
          "name": "",
          "type": "uint256"
        }
      ],
      "stateMutability": "view",
      "type": "function"
    },
    {
      "inputs": [],
      "name": "MINIMUM_ROLLOVER_TENDER_DIVISOR",
      "outputs": [
        {
          "internalType": "uint256",
          "name": "",
          "type": "uint256"
        }
      ],
      "stateMutability": "view",
      "type": "function"
    },
    {
      "inputs": [],
      "name": "ROLLOVER_MANAGER",
      "outputs": [
        {
          "internalType": "bytes32",
          "name": "",
          "type": "bytes32"
        }
      ],
      "stateMutability": "view",
      "type": "function"
    },
    {
      "inputs": [],
      "name": "THREESIXTY_DAYCOUNT_SECONDS",
      "outputs": [
        {
          "internalType": "uint256",
          "name": "",
          "type": "uint256"
        }
      ],
      "stateMutability": "view",
      "type": "function"
    },
    {
      "inputs": [],
      "name": "UPGRADE_INTERFACE_VERSION",
      "outputs": [
        {
          "internalType": "string",
          "name": "",
          "type": "string"
        }
      ],
      "stateMutability": "view",
      "type": "function"
    },
    {
      "inputs": [
        {
          "components": [
            {
              "internalType": "bytes32",
              "name": "id",
              "type": "bytes32"
            },
            {
              "internalType": "address",
              "name": "bidder",
              "type": "address"
            },
            {
              "internalType": "uint256",
              "name": "bidPriceRevealed",
              "type": "uint256"
            },
            {
              "internalType": "uint256",
              "name": "amount",
              "type": "uint256"
            },
            {
              "internalType": "uint256[]",
              "name": "collateralAmounts",
              "type": "uint256[]"
            },
            {
              "internalType": "address",
              "name": "purchaseToken",
              "type": "address"
            },
            {
              "internalType": "address[]",
              "name": "collateralTokens",
              "type": "address[]"
            },
            {
              "internalType": "bool",
              "name": "isRollover",
              "type": "bool"
            },
            {
              "internalType": "address",
              "name": "rolloverPairOffTermRepoServicer",
              "type": "address"
            }
          ],
          "internalType": "struct TermAuctionRevealedBid",
          "name": "bid",
          "type": "tuple"
        },
        {
          "internalType": "uint256",
          "name": "nonce",
          "type": "uint256"
        }
      ],
      "name": "addBid",
      "outputs": [],
      "stateMutability": "nonpayable",
      "type": "function"
    },
    {
      "inputs": [
        {
          "internalType": "uint256",
          "name": "",
          "type": "uint256"
        }
      ],
      "name": "auctionBids",
      "outputs": [
        {
          "internalType": "bytes32",
          "name": "id",
          "type": "bytes32"
        },
        {
          "internalType": "address",
          "name": "bidder",
          "type": "address"
        },
        {
          "internalType": "uint256",
          "name": "bidPriceRevealed",
          "type": "uint256"
        },
        {
          "internalType": "uint256",
          "name": "amount",
          "type": "uint256"
        },
        {
          "internalType": "address",
          "name": "purchaseToken",
          "type": "address"
        },
        {
          "internalType": "bool",
          "name": "isRollover",
          "type": "bool"
        },
        {
          "internalType": "address",
          "name": "rolloverPairOffTermRepoServicer",
          "type": "address"
        }
      ],
      "stateMutability": "view",
      "type": "function"
    },
    {
      "inputs": [],
      "name": "auctionEndTime",
      "outputs": [
        {
          "internalType": "uint256",
          "name": "",
          "type": "uint256"
        }
      ],
      "stateMutability": "view",
      "type": "function"
    },
    {
      "inputs": [],
      "name": "auctionStartTime",
      "outputs": [
        {
          "internalType": "uint256",
          "name": "",
          "type": "uint256"
        }
      ],
      "stateMutability": "view",
      "type": "function"
    },
    {
      "inputs": [
        {
          "internalType": "bytes32",
          "name": "id",
          "type": "bytes32"
        },
        {
          "internalType": "address",
          "name": "bidder",
          "type": "address"
        },
        {
          "internalType": "address[]",
          "name": "bidCollateralTokens",
          "type": "address[]"
        },
        {
          "internalType": "uint256[]",
          "name": "amounts",
          "type": "uint256[]"
        }
      ],
      "name": "auctionUnlockBid",
      "outputs": [],
      "stateMutability": "nonpayable",
      "type": "function"
    },
    {
      "inputs": [],
      "name": "bidCount",
      "outputs": [
        {
          "internalType": "uint256",
          "name": "",
          "type": "uint256"
        }
      ],
      "stateMutability": "view",
      "type": "function"
    },
    {
      "inputs": [
        {
          "internalType": "uint256",
          "name": "",
          "type": "uint256"
        }
      ],
      "name": "bidsToUnlock",
      "outputs": [
        {
          "internalType": "bytes32",
          "name": "id",
          "type": "bytes32"
        },
        {
          "internalType": "address",
          "name": "bidder",
          "type": "address"
        },
        {
          "internalType": "bytes32",
          "name": "bidPriceHash",
          "type": "bytes32"
        },
        {
          "internalType": "uint256",
          "name": "bidPriceRevealed",
          "type": "uint256"
        },
        {
          "internalType": "uint256",
          "name": "amount",
          "type": "uint256"
        },
        {
          "internalType": "address",
          "name": "purchaseToken",
          "type": "address"
        },
        {
          "internalType": "bool",
          "name": "isRollover",
          "type": "bool"
        },
        {
          "internalType": "address",
          "name": "rolloverPairOffTermRepoServicer",
          "type": "address"
        },
        {
          "internalType": "bool",
          "name": "isRevealed",
          "type": "bool"
        }
      ],
      "stateMutability": "view",
      "type": "function"
    },
    {
      "inputs": [
        {
          "internalType": "contract IERC20",
          "name": "",
          "type": "address"
        }
      ],
      "name": "collateralTokens",
      "outputs": [
        {
          "internalType": "bool",
          "name": "",
          "type": "bool"
        }
      ],
      "stateMutability": "view",
      "type": "function"
    },
    {
      "inputs": [],
      "name": "dayCountFractionMantissa",
      "outputs": [
        {
          "internalType": "uint256",
          "name": "",
          "type": "uint256"
        }
      ],
      "stateMutability": "view",
      "type": "function"
    },
    {
      "inputs": [
        {
          "internalType": "bytes32[]",
          "name": "revealedBids",
          "type": "bytes32[]"
        },
        {
          "internalType": "bytes32[]",
          "name": "expiredRolloverBids",
          "type": "bytes32[]"
        },
        {
          "internalType": "bytes32[]",
          "name": "unrevealedBids",
          "type": "bytes32[]"
        }
      ],
      "name": "getAllBids",
      "outputs": [
        {
          "components": [
            {
              "internalType": "bytes32",
              "name": "id",
              "type": "bytes32"
            },
            {
              "internalType": "address",
              "name": "bidder",
              "type": "address"
            },
            {
              "internalType": "uint256",
              "name": "bidPriceRevealed",
              "type": "uint256"
            },
            {
              "internalType": "uint256",
              "name": "amount",
              "type": "uint256"
            },
            {
              "internalType": "uint256[]",
              "name": "collateralAmounts",
              "type": "uint256[]"
            },
            {
              "internalType": "address",
              "name": "purchaseToken",
              "type": "address"
            },
            {
              "internalType": "address[]",
              "name": "collateralTokens",
              "type": "address[]"
            },
            {
              "internalType": "bool",
              "name": "isRollover",
              "type": "bool"
            },
            {
              "internalType": "address",
              "name": "rolloverPairOffTermRepoServicer",
              "type": "address"
            }
          ],
          "internalType": "struct TermAuctionRevealedBid[]",
          "name": "",
          "type": "tuple[]"
        },
        {
          "components": [
            {
              "internalType": "bytes32",
              "name": "id",
              "type": "bytes32"
            },
            {
              "internalType": "address",
              "name": "bidder",
              "type": "address"
            },
            {
              "internalType": "bytes32",
              "name": "bidPriceHash",
              "type": "bytes32"
            },
            {
              "internalType": "uint256",
              "name": "bidPriceRevealed",
              "type": "uint256"
            },
            {
              "internalType": "uint256",
              "name": "amount",
              "type": "uint256"
            },
            {
              "internalType": "uint256[]",
              "name": "collateralAmounts",
              "type": "uint256[]"
            },
            {
              "internalType": "address",
              "name": "purchaseToken",
              "type": "address"
            },
            {
              "internalType": "address[]",
              "name": "collateralTokens",
              "type": "address[]"
            },
            {
              "internalType": "bool",
              "name": "isRollover",
              "type": "bool"
            },
            {
              "internalType": "address",
              "name": "rolloverPairOffTermRepoServicer",
              "type": "address"
            },
            {
              "internalType": "bool",
              "name": "isRevealed",
              "type": "bool"
            }
          ],
          "internalType": "struct TermAuctionBid[]",
          "name": "",
          "type": "tuple[]"
        }
      ],
      "stateMutability": "nonpayable",
      "type": "function"
    },
    {
      "inputs": [],
      "name": "getBidCount",
      "outputs": [
        {
          "internalType": "uint256",
          "name": "",
          "type": "uint256"
        }
      ],
      "stateMutability": "view",
      "type": "function"
    },
    {
      "inputs": [
        {
          "internalType": "bytes32",
          "name": "role",
          "type": "bytes32"
        }
      ],
      "name": "getRoleAdmin",
      "outputs": [
        {
          "internalType": "bytes32",
          "name": "",
          "type": "bytes32"
        }
      ],
      "stateMutability": "view",
      "type": "function"
    },
    {
      "inputs": [
        {
          "internalType": "bytes32",
          "name": "role",
          "type": "bytes32"
        },
        {
          "internalType": "address",
          "name": "account",
          "type": "address"
        }
      ],
      "name": "grantRole",
      "outputs": [],
      "stateMutability": "nonpayable",
      "type": "function"
    },
    {
      "inputs": [
        {
          "internalType": "bytes32",
          "name": "role",
          "type": "bytes32"
        },
        {
          "internalType": "address",
          "name": "account",
          "type": "address"
        }
      ],
      "name": "hasRole",
      "outputs": [
        {
          "internalType": "bool",
          "name": "",
          "type": "bool"
        }
      ],
      "stateMutability": "view",
      "type": "function"
    },
    {
      "inputs": [
        {
          "internalType": "string",
          "name": "termRepoId_",
          "type": "string"
        },
        {
          "internalType": "string",
          "name": "auctionId_",
          "type": "string"
        },
        {
          "internalType": "uint256",
          "name": "auctionStartTime_",
          "type": "uint256"
        },
        {
          "internalType": "uint256",
          "name": "revealTime_",
          "type": "uint256"
        },
        {
          "internalType": "uint256",
          "name": "auctionEndTime_",
          "type": "uint256"
        },
        {
          "internalType": "uint256",
          "name": "redemptionTimestamp_",
          "type": "uint256"
        },
        {
          "internalType": "uint256",
          "name": "minimumTenderAmount_",
          "type": "uint256"
        },
        {
          "internalType": "address",
          "name": "purchaseToken_",
          "type": "address"
        },
        {
          "internalType": "contract IERC20[]",
          "name": "collateralTokens_",
          "type": "address[]"
        },
        {
          "internalType": "address",
          "name": "termInitializer_",
          "type": "address"
        }
      ],
      "name": "initialize",
      "outputs": [],
      "stateMutability": "nonpayable",
      "type": "function"
    },
    {
      "inputs": [
        {
          "components": [
            {
              "internalType": "bytes32",
              "name": "id",
              "type": "bytes32"
            },
            {
              "internalType": "address",
              "name": "bidder",
              "type": "address"
            },
            {
              "internalType": "bytes32",
              "name": "bidPriceHash",
              "type": "bytes32"
            },
            {
              "internalType": "uint256",
              "name": "amount",
              "type": "uint256"
            },
            {
              "internalType": "uint256[]",
              "name": "collateralAmounts",
              "type": "uint256[]"
            },
            {
              "internalType": "address",
              "name": "purchaseToken",
              "type": "address"
            },
            {
              "internalType": "address[]",
              "name": "collateralTokens",
              "type": "address[]"
            }
          ],
          "internalType": "struct TermAuctionBidSubmission[]",
          "name": "bidSubmissions",
          "type": "tuple[]"
        }
      ],
      "name": "lockBids",
      "outputs": [
        {
          "internalType": "bytes32[]",
          "name": "",
          "type": "bytes32[]"
        }
      ],
      "stateMutability": "nonpayable",
      "type": "function"
    },
    {
      "inputs": [
        {
          "components": [
            {
              "internalType": "bytes32",
              "name": "id",
              "type": "bytes32"
            },
            {
              "internalType": "address",
              "name": "bidder",
              "type": "address"
            },
            {
              "internalType": "bytes32",
              "name": "bidPriceHash",
              "type": "bytes32"
            },
            {
              "internalType": "uint256",
              "name": "amount",
              "type": "uint256"
            },
            {
              "internalType": "uint256[]",
              "name": "collateralAmounts",
              "type": "uint256[]"
            },
            {
              "internalType": "address",
              "name": "purchaseToken",
              "type": "address"
            },
            {
              "internalType": "address[]",
              "name": "collateralTokens",
              "type": "address[]"
            }
          ],
          "internalType": "struct TermAuctionBidSubmission[]",
          "name": "bidSubmissions",
          "type": "tuple[]"
        },
        {
          "internalType": "address",
          "name": "referralAddress",
          "type": "address"
        }
      ],
      "name": "lockBidsWithReferral",
      "outputs": [
        {
          "internalType": "bytes32[]",
          "name": "",
          "type": "bytes32[]"
        }
      ],
      "stateMutability": "nonpayable",
      "type": "function"
    },
    {
      "inputs": [
        {
          "internalType": "address",
          "name": "bidder",
          "type": "address"
        },
        {
          "components": [
            {
              "internalType": "bytes32",
              "name": "id",
              "type": "bytes32"
            },
            {
              "internalType": "address",
              "name": "bidder",
              "type": "address"
            },
            {
              "internalType": "bytes32",
              "name": "bidPriceHash",
              "type": "bytes32"
            },
            {
              "internalType": "uint256",
              "name": "amount",
              "type": "uint256"
            },
            {
              "internalType": "uint256[]",
              "name": "collateralAmounts",
              "type": "uint256[]"
            },
            {
              "internalType": "address",
              "name": "purchaseToken",
              "type": "address"
            },
            {
              "internalType": "address[]",
              "name": "collateralTokens",
              "type": "address[]"
            }
          ],
          "internalType": "struct TermAuctionBidSubmission[]",
          "name": "bidSubmissions",
          "type": "tuple[]"
        },
        {
          "internalType": "address",
          "name": "referralAddress",
          "type": "address"
        }
      ],
      "name": "lockBidsWithReferral",
      "outputs": [
        {
          "internalType": "bytes32[]",
          "name": "",
          "type": "bytes32[]"
        }
      ],
      "stateMutability": "nonpayable",
      "type": "function"
    },
    {
      "inputs": [
        {
          "components": [
            {
              "internalType": "bytes32",
              "name": "id",
              "type": "bytes32"
            },
            {
              "internalType": "address",
              "name": "bidder",
              "type": "address"
            },
            {
              "internalType": "bytes32",
              "name": "bidPriceHash",
              "type": "bytes32"
            },
            {
              "internalType": "uint256",
              "name": "bidPriceRevealed",
              "type": "uint256"
            },
            {
              "internalType": "uint256",
              "name": "amount",
              "type": "uint256"
            },
            {
              "internalType": "uint256[]",
              "name": "collateralAmounts",
              "type": "uint256[]"
            },
            {
              "internalType": "address",
              "name": "purchaseToken",
              "type": "address"
            },
            {
              "internalType": "address[]",
              "name": "collateralTokens",
              "type": "address[]"
            },
            {
              "internalType": "bool",
              "name": "isRollover",
              "type": "bool"
            },
            {
              "internalType": "address",
              "name": "rolloverPairOffTermRepoServicer",
              "type": "address"
            },
            {
              "internalType": "bool",
              "name": "isRevealed",
              "type": "bool"
            }
          ],
          "internalType": "struct TermAuctionBid",
          "name": "bid",
          "type": "tuple"
        }
      ],
      "name": "lockRolloverBid",
      "outputs": [],
      "stateMutability": "nonpayable",
      "type": "function"
    },
    {
      "inputs": [
        {
          "internalType": "bytes32",
          "name": "id",
          "type": "bytes32"
        }
      ],
      "name": "lockedBid",
      "outputs": [
        {
          "components": [
            {
              "internalType": "bytes32",
              "name": "id",
              "type": "bytes32"
            },
            {
              "internalType": "address",
              "name": "bidder",
              "type": "address"
            },
            {
              "internalType": "bytes32",
              "name": "bidPriceHash",
              "type": "bytes32"
            },
            {
              "internalType": "uint256",
              "name": "bidPriceRevealed",
              "type": "uint256"
            },
            {
              "internalType": "uint256",
              "name": "amount",
              "type": "uint256"
            },
            {
              "internalType": "uint256[]",
              "name": "collateralAmounts",
              "type": "uint256[]"
            },
            {
              "internalType": "address",
              "name": "purchaseToken",
              "type": "address"
            },
            {
              "internalType": "address[]",
              "name": "collateralTokens",
              "type": "address[]"
            },
            {
              "internalType": "bool",
              "name": "isRollover",
              "type": "bool"
            },
            {
              "internalType": "address",
              "name": "rolloverPairOffTermRepoServicer",
              "type": "address"
            },
            {
              "internalType": "bool",
              "name": "isRevealed",
              "type": "bool"
            }
          ],
          "internalType": "struct TermAuctionBid",
          "name": "",
          "type": "tuple"
        }
      ],
      "stateMutability": "view",
      "type": "function"
    },
    {
      "inputs": [],
      "name": "lockingPaused",
      "outputs": [
        {
          "internalType": "bool",
          "name": "",
          "type": "bool"
        }
      ],
      "stateMutability": "view",
      "type": "function"
    },
    {
      "inputs": [],
      "name": "minimumTenderAmount",
      "outputs": [
        {
          "internalType": "uint256",
          "name": "",
          "type": "uint256"
        }
      ],
      "stateMutability": "view",
      "type": "function"
    },
    {
      "inputs": [
        {
          "components": [
            {
              "internalType": "bytes32",
              "name": "id",
              "type": "bytes32"
            },
            {
              "internalType": "address",
              "name": "bidder",
              "type": "address"
            },
            {
              "internalType": "uint256",
              "name": "bidPriceRevealed",
              "type": "uint256"
            },
            {
              "internalType": "uint256",
              "name": "amount",
              "type": "uint256"
            },
            {
              "internalType": "uint256[]",
              "name": "collateralAmounts",
              "type": "uint256[]"
            },
            {
              "internalType": "address",
              "name": "purchaseToken",
              "type": "address"
            },
            {
              "internalType": "address[]",
              "name": "collateralTokens",
              "type": "address[]"
            },
            {
              "internalType": "bool",
              "name": "isRollover",
              "type": "bool"
            },
            {
              "internalType": "address",
              "name": "rolloverPairOffTermRepoServicer",
              "type": "address"
            }
          ],
          "internalType": "struct TermAuctionRevealedBid",
          "name": "revealed",
          "type": "tuple"
        },
        {
          "internalType": "uint256",
          "name": "nonce",
          "type": "uint256"
        }
      ],
      "name": "obfuscateBid",
      "outputs": [
        {
          "components": [
            {
              "internalType": "bytes32",
              "name": "id",
              "type": "bytes32"
            },
            {
              "internalType": "address",
              "name": "bidder",
              "type": "address"
            },
            {
              "internalType": "bytes32",
              "name": "bidPriceHash",
              "type": "bytes32"
            },
            {
              "internalType": "uint256",
              "name": "bidPriceRevealed",
              "type": "uint256"
            },
            {
              "internalType": "uint256",
              "name": "amount",
              "type": "uint256"
            },
            {
              "internalType": "uint256[]",
              "name": "collateralAmounts",
              "type": "uint256[]"
            },
            {
              "internalType": "address",
              "name": "purchaseToken",
              "type": "address"
            },
            {
              "internalType": "address[]",
              "name": "collateralTokens",
              "type": "address[]"
            },
            {
              "internalType": "bool",
              "name": "isRollover",
              "type": "bool"
            },
            {
              "internalType": "address",
              "name": "rolloverPairOffTermRepoServicer",
              "type": "address"
            },
            {
              "internalType": "bool",
              "name": "isRevealed",
              "type": "bool"
            }
          ],
          "internalType": "struct TermAuctionBid",
          "name": "hidden",
          "type": "tuple"
        }
      ],
      "stateMutability": "pure",
      "type": "function"
    },
    {
      "inputs": [
        {
          "internalType": "address",
          "name": "rolloverManager",
          "type": "address"
        }
      ],
      "name": "pairRolloverManager",
      "outputs": [],
      "stateMutability": "nonpayable",
      "type": "function"
    },
    {
      "inputs": [
        {
          "internalType": "address",
          "name": "termAuction_",
          "type": "address"
        },
        {
          "internalType": "contract ITermRepoServicer",
          "name": "termRepoServicer_",
          "type": "address"
        },
        {
          "internalType": "contract ITermEventEmitter",
          "name": "emitter_",
          "type": "address"
        },
        {
          "internalType": "contract ITermRepoCollateralManager",
          "name": "termRepoCollateralManager_",
          "type": "address"
        },
        {
          "internalType": "contract ITermPriceOracle",
          "name": "termPriceOracle_",
          "type": "address"
        },
        {
          "internalType": "address",
          "name": "devopsMultisig_",
          "type": "address"
        },
        {
          "internalType": "address",
          "name": "adminWallet_",
          "type": "address"
        },
        {
          "internalType": "address",
          "name": "termDiamond_",
          "type": "address"
        }
      ],
      "name": "pairTermContracts",
      "outputs": [],
      "stateMutability": "nonpayable",
      "type": "function"
    },
    {
      "inputs": [],
      "name": "pauseLocking",
      "outputs": [],
      "stateMutability": "nonpayable",
      "type": "function"
    },
    {
      "inputs": [],
      "name": "pauseUnlocking",
      "outputs": [],
      "stateMutability": "nonpayable",
      "type": "function"
    },
    {
      "inputs": [],
      "name": "proxiableUUID",
      "outputs": [
        {
          "internalType": "bytes32",
          "name": "",
          "type": "bytes32"
        }
      ],
      "stateMutability": "view",
      "type": "function"
    },
    {
      "inputs": [],
      "name": "purchaseToken",
      "outputs": [
        {
          "internalType": "address",
          "name": "",
          "type": "address"
        }
      ],
      "stateMutability": "view",
      "type": "function"
    },
    {
      "inputs": [
        {
          "internalType": "bytes32",
          "name": "role",
          "type": "bytes32"
        },
        {
          "internalType": "address",
          "name": "callerConfirmation",
          "type": "address"
        }
      ],
      "name": "renounceRole",
      "outputs": [],
      "stateMutability": "nonpayable",
      "type": "function"
    },
    {
      "inputs": [
        {
          "internalType": "bytes32[]",
          "name": "ids",
          "type": "bytes32[]"
        },
        {
          "internalType": "uint256[]",
          "name": "prices",
          "type": "uint256[]"
        },
        {
          "internalType": "uint256[]",
          "name": "nonces",
          "type": "uint256[]"
        }
      ],
      "name": "revealBids",
      "outputs": [],
      "stateMutability": "nonpayable",
      "type": "function"
    },
    {
      "inputs": [],
      "name": "revealTime",
      "outputs": [
        {
          "internalType": "uint256",
          "name": "",
          "type": "uint256"
        }
      ],
      "stateMutability": "view",
      "type": "function"
    },
    {
      "inputs": [
        {
          "internalType": "bytes32",
          "name": "role",
          "type": "bytes32"
        },
        {
          "internalType": "address",
          "name": "account",
          "type": "address"
        }
      ],
      "name": "revokeRole",
      "outputs": [],
      "stateMutability": "nonpayable",
      "type": "function"
    },
    {
      "inputs": [
        {
          "internalType": "uint256",
          "name": "bidCount_",
          "type": "uint256"
        }
      ],
      "name": "setBidCount",
      "outputs": [],
      "stateMutability": "nonpayable",
      "type": "function"
    },
    {
      "inputs": [
        {
          "internalType": "uint256",
          "name": "auctionEndTime_",
          "type": "uint256"
        }
      ],
      "name": "setEndTime",
      "outputs": [],
      "stateMutability": "nonpayable",
      "type": "function"
    },
    {
      "inputs": [
        {
          "internalType": "uint256",
          "name": "revealTime_",
          "type": "uint256"
        }
      ],
      "name": "setRevealTime",
      "outputs": [],
      "stateMutability": "nonpayable",
      "type": "function"
    },
    {
      "inputs": [
        {
          "internalType": "uint256",
          "name": "auctionStartTime_",
          "type": "uint256"
        }
      ],
      "name": "setStartTime",
      "outputs": [],
      "stateMutability": "nonpayable",
      "type": "function"
    },
    {
      "inputs": [
        {
          "internalType": "bytes4",
          "name": "interfaceId",
          "type": "bytes4"
        }
      ],
      "name": "supportsInterface",
      "outputs": [
        {
          "internalType": "bool",
          "name": "",
          "type": "bool"
        }
      ],
      "stateMutability": "view",
      "type": "function"
    },
    {
      "inputs": [],
      "name": "termAuction",
      "outputs": [
        {
          "internalType": "contract ITermAuction",
          "name": "",
          "type": "address"
        }
      ],
      "stateMutability": "view",
      "type": "function"
    },
    {
      "inputs": [],
      "name": "termAuctionId",
      "outputs": [
        {
          "internalType": "bytes32",
          "name": "",
          "type": "bytes32"
        }
      ],
      "stateMutability": "view",
      "type": "function"
    },
    {
      "inputs": [],
      "name": "termRepoCollateralManager",
      "outputs": [
        {
          "internalType": "contract ITermRepoCollateralManager",
          "name": "",
          "type": "address"
        }
      ],
      "stateMutability": "view",
      "type": "function"
    },
    {
      "inputs": [],
      "name": "termRepoId",
      "outputs": [
        {
          "internalType": "bytes32",
          "name": "",
          "type": "bytes32"
        }
      ],
      "stateMutability": "view",
      "type": "function"
    },
    {
      "inputs": [],
      "name": "termRepoServicer",
      "outputs": [
        {
          "internalType": "contract ITermRepoServicer",
          "name": "",
          "type": "address"
        }
      ],
      "stateMutability": "view",
      "type": "function"
    },
    {
      "inputs": [
        {
          "internalType": "bytes32[]",
          "name": "revealedBids",
          "type": "bytes32[]"
        },
        {
          "internalType": "bytes32[]",
          "name": "expiredRolloverBids",
          "type": "bytes32[]"
        },
        {
          "internalType": "bytes32[]",
          "name": "unrevealedBids",
          "type": "bytes32[]"
        }
      ],
      "name": "testGetAllBids",
      "outputs": [],
      "stateMutability": "nonpayable",
      "type": "function"
    },
    {
      "inputs": [
        {
          "internalType": "address",
          "name": "bidder",
          "type": "address"
        },
        {
          "internalType": "bytes32[]",
          "name": "ids",
          "type": "bytes32[]"
        }
      ],
      "name": "unlockBids",
      "outputs": [],
      "stateMutability": "nonpayable",
      "type": "function"
    },
    {
      "inputs": [
        {
          "internalType": "bytes32[]",
          "name": "ids",
          "type": "bytes32[]"
        }
      ],
      "name": "unlockBids",
      "outputs": [],
      "stateMutability": "nonpayable",
      "type": "function"
    },
    {
      "inputs": [],
      "name": "unlockingPaused",
      "outputs": [
        {
          "internalType": "bool",
          "name": "",
          "type": "bool"
        }
      ],
      "stateMutability": "view",
      "type": "function"
    },
    {
      "inputs": [],
      "name": "unpauseLocking",
      "outputs": [],
      "stateMutability": "nonpayable",
      "type": "function"
    },
    {
      "inputs": [],
      "name": "unpauseUnlocking",
      "outputs": [],
      "stateMutability": "nonpayable",
      "type": "function"
    },
    {
      "inputs": [
        {
          "internalType": "address",
          "name": "upgradeAddress",
          "type": "address"
        }
      ],
      "name": "upgrade",
      "outputs": [],
      "stateMutability": "nonpayable",
      "type": "function"
    },
    {
      "inputs": [
        {
          "internalType": "address",
          "name": "newImplementation",
          "type": "address"
        },
        {
          "internalType": "bytes",
          "name": "data",
          "type": "bytes"
        }
      ],
      "name": "upgradeToAndCall",
      "outputs": [],
      "stateMutability": "payable",
      "type": "function"
    },
    {
      "inputs": [],
      "name": "version",
      "outputs": [
        {
          "internalType": "string",
          "name": "",
          "type": "string"
        }
      ],
      "stateMutability": "view",
      "type": "function"
    }
  ],
  "bytecode": "0x60a08060405234620000d157306080527ff0c57e16840df040f15088dc2f81fe391c3923bec73e23a9662efc9c229c6a009081549060ff8260401c16620000c257506001600160401b036002600160401b0319828216016200007c575b6040516161eb9081620000d78239608051818181611ca80152611d7b0152f35b6001600160401b031990911681179091556040519081527fc7f505b2f371ae2175ee4913f4499e1f2633a7b5936321eed1cdaeb6115181d290602090a13880806200005c565b63f92ee8a960e01b8152600490fd5b600080fdfe608080604052600436101561001357600080fd5b600090813560e01c90816301ffc9a7146138c6575080630283ce5b1461373657806302b65fb01461370d5780630900f0101461369c5780630ac8e3141461344e57806311a15de1146134325780631f642705146133bc578063201a662514613393578063248a9ca31461335957806325a2471a1461333b57806327df3d3e1461331257806328f6a48a146114855780632f2ff15d146132c757806331788a41146130f1578063323c618314612d7d578063357a77d214612d5457806336568abe14612d0c57806338665e9f146127055780633de81dc4146126dc5780633e0a322d146126c15780633e836b3d146126515780633efbfd8c1461262b578063408f2e101461260f57806341da54321461259e578063475d266a14611f9e5780634b449cba14611f805780634f1ef28614611d0057806352d1902d14611c9557806354fd4d5014611c515780635c16456714611ad85780636d73314114611aba578063755bff3c14611a9f57806375b238fc14611a765780637a6944c514611a585780637d33274f14611a2f5780637dae3fb7146118505780637e3f71d51461182a578063811b86cd1461180057806387bee017146116275780638a5cd91e146115a357806391d148541461154a578063a217fddf1461152e578063a95c4d6214611505578063ad3cb1cc146114c7578063ae91fa33146114a3578063b40a562714611485578063ba829d7114611467578063ba98b5ef14611433578063c1e2850714611418578063c84d966514611391578063cb63a04514610bd1578063cc33cb4514610ba8578063cc5b6e4a14610b8b578063ccb98ffc14610b70578063cf64d0f514610ae3578063cfe9232b14610aba578063cffbc29714610a7b578063d11b7509146109dc578063d35dc11c14610984578063d547741f14610935578063d6725d0c14610916578063e61f00e61461045e578063eb54f9ec146104405763f9202d63146102e157600080fd5b3461043d576103066102f2366139a1565b94610301949194939293614751565b6148dd565b604092919251916040830193604084528051809552606094606085019060608160051b8701019660208094019285915b83831061039b5750505050508385038185015282519081865280860181808460051b890101950193965b83881061036d5786860387f35b9091929394838061038a600193601f198682030187528951613c4b565b970193019701969093929193610360565b90919293988580600192605f198c82030186528c519061012091805182526104166103f78583015194888060a01b038096168786015260408401516040860152898401518a860152608090808286015192870152850190613bda565b60a08581850151169085015260c0808401519085830390860152613c0e565b9260e0820151151560e084015261010080920151169101529b019301930191939290610336565b80fd5b503461043d578060031936011261043d576020600254604051908152f35b503461043d57600319906020368301811361091257600435926001600160401b0380851161090e576101608560040192863603011261090e5760ff60105460081c166108fc57600a546040516325c3ed4760e01b81526001600160a01b0396918590829060049082908b165afa9081156108c4578791869188916108cf575b50600460405180948193631b6685b560e21b8352165afa9081156108c4578691610897575b50610885576000805160206160f6833981519152806000526000805160206160b68339815191528552604060002033600052855260ff6040600020541615610867575061054d6152f0565b60035442116108555760848101359081610649575050503590818352600e815260046040842001541561063057600e908284525261058d60408320614703565b600f5460001981019390841161061c578293600f55600c54169060015490823b1561061757604484928360405195869485936307fec0e360e01b8552600485015260248401525af1801561060c576105f8575b50505b60016000805160206161168339815191525580f35b61060190613a33565b61043d5780386105e0565b6040513d84823e3d90fd5b505050fd5b634e487b7160e01b83526011600452602483fd5b6040516311ebb27f60e11b815260048101839052602490fd5b60405194929361065886613a5c565b3585526106676024820161395d565b8386015260448101356040860152606481013560608601526080850191825260a4810135848111610851576106a29060043691840101613d3d565b60a08601526106b360c4820161395d565b9360c0860194855260e4820135908111610851576106d79060043691840101613d9d565b60e08601526107116101446106ef6101048401613e05565b926101008801938452610705610124820161395d565b61012089015201613e05565b6101408601526096600f54101561083f5751156108265751600a60055404811061080e575082518452600e815260046040852001541591858060075416915116036107fc57600e90835185525261076b8260408520613fd8565b6107e2575b8192600c54169060015490823b15610617576107b29284928360405180968195829463050ecc8960e11b84526004840152606060248401526064830190613c4b565b82604483015203925af1801561060c576107ce575b50506105e3565b6107d790613a33565b61043d5780386107c7565b600f54926001840180941161061c57600f93909355610770565b60405163ed82d81b60e01b8152600490fd5b6024906040519063235c188560e01b82526004820152fd5b602484516040519063103dad4560e11b82526004820152fd5b6040516346f317d760e01b8152600490fd5b8680fd5b60405163f046007760e01b8152600490fd5b6044906040519063e2517d3f60e01b82523360048301526024820152fd5b60405163bbc439e160e01b8152600490fd5b6108b79150853d87116108bd575b6108af8183613b00565b81019061415e565b38610502565b503d6108a5565b6040513d88823e3d90fd5b6108ef9150823d84116108f5575b6108e78183613b00565b81019061413f565b386104dd565b503d6108dd565b60405163059e557960e41b8152600490fd5b8380fd5b5080fd5b503461043d578060031936011261043d5760206040516301da9c008152f35b503461043d57604036600319011261043d5761098060043561095561391b565b908084526000805160206160b683398151915260205261097b6001604086200154614831565b61550b565b5080f35b503461043d57604036600319011261043d57600435906001600160401b03821161043d576109d86109c46109bb3660048601613e12565b602435906145a6565b604051918291602083526020830190613c4b565b0390f35b503461043d57602036600319011261043d576004359060125482101561043d57610120610a0883613d1e565b5060ff81549160018060a01b0380600183015416916002810154600382015460048301549160088560068601541694015495604051988952602089015260408801526060870152608086015260a0850152828216151560c08501528160081c1660e084015260a81c161515610100820152f35b503461043d57602036600319011261043d5760209060ff906040906001600160a01b03610aa6613931565b168152600884522054166040519015158152f35b503461043d578060031936011261043d5760206040516000805160206161568339815191528152f35b503461043d5760031960403682011261091257600435906001600160401b038211610b6c576101209082600401923603011261091257610b4490610b32602435610b2d3684613e12565b6145a6565b90358352600e60205260408320613fd8565b600f5460018101809111610b5857600f5580f35b634e487b7160e01b82526011600452602482fd5b8280fd5b503461043d57602036600319011261043d5760043560045580f35b503461043d578060031936011261043d5760209054604051908152f35b503461043d578060031936011261043d5760206040516000805160206160968339815191528152f35b503461043d57606036600319011261043d57610beb613931565b6024356001600160401b038111610b6c57610c0a903690600401613971565b90929091906044356001600160a01b038116900361138c5760035442118015611381575b6108555760ff60105460081c166108fc57600a546040516325c3ed4760e01b815290602090829060049082906001600160a01b03165afa90811561060c576004916020918491611364575b50604051631b6685b560e21b815292839182906001600160a01b03165afa90811561060c578291611345575b5061088557610cb26152f0565b610cba6147f9565b6001600160a01b038281166044359091161461133357610cdb8392936141a3565b9281945b838610610d0657600160008051602061611683398151915255604051806109d88782613b3a565b90919293610d1d610d188787856141d5565b6141f7565b60208101519095906001600160a01b03908116908516036112b8576096600f54101561083f5785518552600e60205260408520600401541592836112ca5786518652600e60209081526040872060010154908801516001600160a01b039182169116036112b8578651945b60075460a08901516001600160a01b0390811691168190036112a05750865b60c08901518051821015610ec5576001600160a01b0390610dc9908390613f01565b51168852600860205260ff60408920541615610e93578515610dee575b600101610da7565b868852600e602052610e0681600760408b2001615320565b905460c08b015160039290921b1c6001600160a01b0390811691610e2b908490613f01565b511614610de65788610e6f610e4e83600760408d8d8152600e6020522001615320565b60018060a01b0391549060031b1c169260c060018060a01b03930151613f01565b51604051630b0a693160e31b8152928392610e8f92169060048401614864565b0390fd5b60c08901516024916001600160a01b0391610eae9190613f01565b5160405163052baa4960e31b815291166004820152fd5b50509190979695979392936060870151600554811061080e5750610ef7606088015160c089015160808a015191615673565b61128e57885b60c08801518051821015611129578a90866110a65750879052600e60205289610f2c8260056040842001615320565b90549060031b1c89610f42846080830151613f01565b51821015610fe257610f8460018060a01b036009541692610f7e86608060018060a01b03610f748360c0890151613f01565b5116950151613f01565b51614176565b823b1561090e57610faf928492836040518096819582946308e44a0760e21b84523360048501613edf565b03925af1801561060c57610fca575b50506001905b01610efd565b610fd390613a33565b610fde578938610fbe565b8980fd5b90610ff1846080840151613f01565b518111611004575b505050600190610fc4565b60018060a01b036009541661104c60018060a01b036020850151169261104587608060018060a01b0361103b8360c08b0151613f01565b5116970151613f01565b5190614176565b90803b156110a25761107893858094604051968795869485936348717eb760e01b855260048501613edf565b03925af1801561060c5761108e575b8990610ff9565b61109790613a33565b610fde578938611087565b8480fd5b6009546001600160a01b03908116916110c0908590613f01565b51166110d08460808d0151613f01565b51823b1561090e576110fc928492836040518096819582946308e44a0760e21b84523360048501613edf565b03925af1801561060c57611115575b5050600190610fc4565b61111e90613a33565b610fde57893861110b565b5050979491956111c490979391949760018060a01b0360208201511690604081015190606081015160808201519060c060018060a01b0360a085015116930151936040519561117787613a5c565b898752602087015260408601528a6060860152608085015260a084015260c083015260e0820152866101008201528661012082015286610140820152838752600e60205260408720613fd8565b611262575b8352600e6020526040832080546111e08388613f01565b5260018060a01b03600c541660015491813b1561125e5791859161121f938360405180968195829463050ecc8960e11b845260443591600485016143d5565b03925af180156112535790849161123f575b505060010194929092610cdf565b61124890613a33565b610b6c578238611231565b6040513d86823e3d90fd5b8580fd5b600f5460018101811161127a57600101600f556111c9565b634e487b7160e01b85526011600452602485fd5b6040516354f8f85560e11b8152600490fd5b6024906040519063e34b641f60e01b82526004820152fd5b6040516305732abb60e51b8152600490fd5b86516040516020810191825260018060601b03198760601b1660408201523060601b6054820152604881526112fe81613aaf565b519020808752600e602052600460408820015461131b5794610d88565b602490604051906310f5216760e21b82526004820152fd5b6040516333d8ca2d60e11b8152600490fd5b61135e915060203d6020116108bd576108af8183613b00565b38610ca5565b61137b9150823d84116108f5576108e78183613b00565b38610c79565b506002544210610c2e565b600080fd5b503461043d57602036600319011261043d576004359060115482101561043d5760e06113bc83613ce9565b5080549060018060a01b03908160018201541690600281015460038201549060078560058501541693015493604051968752602087015260408601526060850152608084015260ff8116151560a084015260081c1660c0820152f35b503461043d57602036600319011261043d5760043560035580f35b503461043d57602036600319011261043d576109c460406109d89261145661448f565b506004358152600e602052206144e4565b503461043d578060031936011261043d576020600354604051908152f35b503461043d578060031936011261043d576020600f54604051908152f35b503461043d578060031936011261043d57602060405168056bc75e2d631000008152f35b503461043d578060031936011261043d576109d86040516114e781613aca565b60058152640352e302e360dc1b602082015260405191829182613b91565b503461043d578060031936011261043d576007546040516001600160a01b039091168152602090f35b503461043d578060031936011261043d57602090604051908152f35b503461043d57604036600319011261043d57604061156661391b565b9160043581526000805160206160b6833981519152602052209060018060a01b0316600052602052602060ff604060002054166040519015158152f35b503461043d578060031936011261043d576115bc6147c1565b6010805461ff001916610100179055600c54600154825483926001600160a01b03169190823b15610617576044849283604051958694859363210d6add60e21b8552600485015260248401525af1801561060c576116175750f35b61162090613a33565b61043d5780f35b503461043d5761010036600319011261043d57611642613931565b6001600160a01b0390602435828116919082900361090e57604435918383168093036110a2576064359084821680920361125e57608435908582168092036108515760a435868116810361138c5760c43596808816880361138c576116a5613947565b33600090815260008051602061605683398151915260205260409020549091906000805160206160368339815191529060ff1615610867575060105460ff81166117ee5760ff191660011760105583156117dc57899861173361173f9461172d8c9a6117399560018060a01b0319998a600a541617600a55811689600d541617600d55615063565b506150e9565b5061516f565b506151f5565b50600c54928582851617600c55816009541617600955600b541617600b55161781549060015460025492600354906005549160065494803b156117d8578795610104948793604051998a988997632b6cea3160e01b8952600489015260248801523060448801526064870152608486015268056bc75e2d6310000060a486015260c485015260e48401525af1801561060c576116175750f35b8780fd5b60405163a258508760e01b8152600490fd5b604051634ce377bb60e11b8152600490fd5b503461043d57602036600319011261043d5761098061181d613931565b6118256147c1565b614fcb565b503461043d578060031936011261043d57602060ff60105460081c166040519015158152f35b503461043d57602080600319360112610912576004356001600160401b038111610b6c57611882903690600401613971565b919060ff60105460101c16611a1d57600a546040516325c3ed4760e01b81526001600160a01b039184908290600490829086165afa9081156108c457829185918891611a00575b50600460405180948193631b6685b560e21b8352165afa9081156108c45786916119e3575b50610885576118fb6152f0565b6002544210610855578260035442119182611988575b505061085557835b838110611936578460016000805160206161168339815191525580f35b806119826119476001938786613ecf565b35611953838887613ecf565b358852600e808752600760408a20019061196e858a89613ecf565b358a528752600560408a2001913390615338565b01611919565b600d54604051638dfea9e760e01b8152935083916004918391165afa9081156119d85785916119bb575b50158238611911565b6119d29150833d85116108bd576108af8183613b00565b386119b2565b6040513d87823e3d90fd5b6119fa9150843d86116108bd576108af8183613b00565b386118ee565b611a179150823d84116108f5576108e78183613b00565b386118c9565b604051631370a4e760e31b8152600490fd5b503461043d578060031936011261043d57600d546040516001600160a01b039091168152602090f35b503461043d578060031936011261043d576020600654604051908152f35b503461043d578060031936011261043d5760206040516000805160206161368339815191528152f35b503461043d57602036600319011261043d57600435600f5580f35b503461043d578060031936011261043d576020600154604051908152f35b503461043d57611ae7366139a1565b91600395919495926003544210611c3f57875b878110611b05578880f35b611b10818986613ecf565b35611b1c828589613ecf565b35908a611b2a84868c613ecf565b356040519060209182810191868352604082015260408152611b4b81613ae5565b51902083835260026040600e9485855220015403611c265768056bc75e2d63100000808511611c085750828d525260408b20878101839055600801805460ff60a81b1916600160a81b179055600c546001548c939290916001600160a01b0316803b156110a25784928360649260405196879586946315d1070b60e11b86526004860152602485015260448401525af1801561060c57611bf0575b5050600101611afa565b611bf990613a33565b611c04578838611be6565b8880fd5b8360449160405191632dc71e8d60e01b835260048301526024820152fd5b604051637afe112160e11b815260048101849052602490fd5b6040516302a3f58760e51b8152600490fd5b503461043d578060031936011261043d576109d8604051611c7181613aca565b600b81526a19195d995b1bdc1b595b9d60aa1b602082015260405191829182613b91565b503461043d578060031936011261043d577f00000000000000000000000000000000000000000000000000000000000000006001600160a01b03163003611cee5760206040516000805160206160768339815191528152f35b60405163703e46dd60e11b8152600490fd5b50604036600319011261043d57611d15613931565b60249182356001600160401b0381116109125736602382011215610912578060040135611d4181613b76565b93611d4f6040519586613b00565b818552602091828601933688838301011161125e57818692898693018737870101526001600160a01b037f00000000000000000000000000000000000000000000000000000000000000008116308114908115611f64575b50611cee57611db4614789565b80600c5416803b1561125e5785604051809263b3c2d50b60e01b8252818381611de1893060048401614864565b03925af180156108c457908691611f50575b50508116946040516352d1902d60e01b815283816004818a5afa869181611f21575b50611e3257604051634c9c8ce360e01b8152600481018890528890fd5b86908860008051602061607683398151915291828103611f0c5750843b15611ef6575080546001600160a01b031916821790556040518692917fbc7cd75a20ee27fd9adebab32041f755214dbc6bffa90cc0225b39da2e5c2d3b8480a2815115611ed857506109809482915190845af4903d15611ecf573d611eb381613b76565b90611ec16040519283613b00565b81528581943d92013e615f52565b60609250615f52565b94505050505034611ee7575080f35b63b398979f60e01b8152600490fd5b604051634c9c8ce360e01b815260048101849052fd5b60405190632a87526960e21b82526004820152fd5b9091508481813d8311611f49575b611f398183613b00565b8101031261085157519038611e15565b503d611f2f565b611f5990613a33565b6110a2578438611df3565b9050816000805160206160768339815191525416141538611da7565b503461043d578060031936011261043d576020600454604051908152f35b503461043d57602036600319011261043d576004356001600160401b03811161091257611fcf903690600401613971565b909160035442118015612593575b6108555760ff60105460081c166108fc57600a546040516325c3ed4760e01b815290602090829060049082906001600160a01b03165afa90811561060c576004916020918491612576575b50604051631b6685b560e21b815292839182906001600160a01b03165afa90811561060c578291612557575b50610885576120616152f0565b61206a826141a3565b9181935b81851061209557600160008051602061611683398151915255604051806109d88682613b3a565b6120a3610d188684846141d5565b60208101519094906001600160a01b031633036112b8576096600f54101561083f5784518452600e602052604084206004015415918261250f5785518552600e60209081526040862060010154908701516001600160a01b039182169116036112b8578551935b60075460a08801516001600160a01b0390811691168190036112a05750855b60c088015180518210156121eb576001600160a01b039061214b908390613f01565b51168752600860205260ff604088205416156121d0578415612170575b600101612129565b858752600e60205261218881600760408a2001615320565b905460c08a015160039290921b1c6001600160a01b03908116916121ad908490613f01565b5116146121685787610e6f610e4e83600760408c8c8152600e6020522001615320565b60c08801516024916001600160a01b0391610eae9190613f01565b5050969594969291926060860151600554811061080e575061221b606087015160c0880151608089015191615673565b61128e57875b60c08701518051821015612424578990856123a15750869052600e602052886122508260056040842001615320565b90549060031b1c88612266846080830151613f01565b518210156122f25761229860018060a01b036009541692610f7e86608060018060a01b03610f748360c0890151613f01565b823b1561090e576122c3928492836040518096819582946308e44a0760e21b84523360048501613edf565b03925af1801561060c576122de575b50506001905b01612221565b6122e790613a33565b611c045788386122d2565b90612301846080840151613f01565b518111612314575b5050506001906122d8565b60018060a01b036009541661234b60018060a01b036020850151169261104587608060018060a01b0361103b8360c08b0151613f01565b90803b156110a25761237793858094604051968795869485936348717eb760e01b855260048501613edf565b03925af1801561060c5761238d575b8890612309565b61239690613a33565b611c04578838612386565b6009546001600160a01b03908116916123bb908590613f01565b51166123cb8460808c0151613f01565b51823b1561090e576123f7928492836040518096819582946308e44a0760e21b84523360048501613edf565b03925af1801561060c57612410575b50506001906122d8565b61241990613a33565b611c04578838612406565b50506020860151604080880151606089015160808a015160a08b015160c0909b01519351969c989b989a959997966124729690956001600160a01b0391821694929392911661117787613a5c565b6124f9575b8352600e60205260408320805461248e8387613f01565b5260018060a01b03600c5416600154813b1561125e579185916124c8938360405180968195829463050ecc8960e11b84526004840161431d565b03925af18015611253579084916124e5575b50506001019361206e565b6124ee90613a33565b610b6c5782386124da565b600f546001810180911161127a57600f55612477565b855160405160208101918252606033811b604083015230901b60548201526048815261253a81613aaf565b519020808652600e602052600460408720015461131b579361210a565b612570915060203d6020116108bd576108af8183613b00565b38612054565b61258d9150823d84116108f5576108e78183613b00565b38612028565b506002544210611fdd565b503461043d578060031936011261043d576125b76147c1565b6010805462ff000019169055600c54600154825483926001600160a01b03169190823b156106175760448492836040519586948593632044037760e21b8552600485015260248401525af1801561060c576116175750f35b503461043d578060031936011261043d57602060405160968152f35b503461043d578060031936011261043d57602060ff60105460101c166040519015158152f35b503461043d578060031936011261043d5761266a6147c1565b6010805461ff0019169055600c54600154825483926001600160a01b03169190823b15610617576044849283604051958694859363b423ac9d60e01b8552600485015260248401525af1801561060c576116175750f35b503461043d57602036600319011261043d5760043560025580f35b503461043d578060031936011261043d576009546040516001600160a01b039091168152602090f35b503461043d57604036600319011261043d576004356001600160401b03811161091257612736903690600401613971565b909161274061391b565b9060035442118015612d01575b6108555760ff60105460081c166108fc57600a546040516325c3ed4760e01b815290602090829060049082906001600160a01b03165afa90811561060c576004916020918491612ce4575b50604051631b6685b560e21b815292839182906001600160a01b03165afa90811561060c578291612cc5575b50610885576127d16152f0565b336001600160a01b03831614611333579092916127ed816141a3565b9282945b82861061281857600160008051602061611683398151915255604051806109d88782613b3a565b612826610d188785856141d5565b60208101519095906001600160a01b031633036112b8576096600f54101561083f5785518552600e6020526040852060040154159283612c7d5786518652600e60209081526040872060010154908801516001600160a01b039182169116036112b8578651945b60075460a08901516001600160a01b0390811691168190036112a05750865b60c08901518051821015612953576001600160a01b03906128ce908390613f01565b51168852600860205260ff60408920541615610e935785156128f3575b6001016128ac565b868852600e60205261290b81600760408b2001615320565b905460c08b015160039290921b1c6001600160a01b0390811691612930908490613f01565b5116146128eb5788610e6f610e4e83600760408d8d8152600e6020522001615320565b505097919695979392936060870151600554811061080e5750612984606088015160c089015160808a015191615673565b61128e57885b60c08801518051821015612b8d578a9086612b0a5750879052600e602052896129b98260056040842001615320565b90549060031b1c896129cf846080830151613f01565b51821015612a5b57612a0160018060a01b036009541692610f7e86608060018060a01b03610f748360c0890151613f01565b823b1561090e57612a2c928492836040518096819582946308e44a0760e21b84523360048501613edf565b03925af1801561060c57612a47575b50506001905b0161298a565b612a5090613a33565b610fde578938612a3b565b90612a6a846080840151613f01565b518111612a7d575b505050600190612a41565b60018060a01b0360095416612ab460018060a01b036020850151169261104587608060018060a01b0361103b8360c08b0151613f01565b90803b156110a257612ae093858094604051968795869485936348717eb760e01b855260048501613edf565b03925af1801561060c57612af6575b8990612a72565b612aff90613a33565b610fde578938612aef565b6009546001600160a01b0390811691612b24908590613f01565b5116612b348460808d0151613f01565b51823b1561090e57612b60928492836040518096819582946308e44a0760e21b84523360048501613edf565b03925af1801561060c57612b79575b5050600190612a41565b612b8290613a33565b610fde578938612b6f565b50509395612bda9098959293919860018060a01b0360208201511690604081015190606081015160808201519060c060018060a01b0360a085015116930151936040519561117787613a5c565b612c67575b8352600e602052604083208054612bf68388613f01565b5260018060a01b03600c541690600154823b1561125e57612c339286928389936040519687958694859363050ecc8960e11b8552600485016143d5565b03925af1801561125357908491612c53575b5050600101949091926127f1565b612c5c90613a33565b610b6c578238612c45565b600f546001810180911161127a57600f55612bdf565b865160405160208101918252606033811b604083015230901b605482015260488152612ca881613aaf565b519020808752600e602052600460408820015461131b579461288d565b612cde915060203d6020116108bd576108af8183613b00565b386127c4565b612cfb9150823d84116108f5576108e78183613b00565b38612798565b50600254421061274d565b503461043d57604036600319011261043d57612d2661391b565b336001600160a01b03821603612d42576109809060043561550b565b60405163334bd91960e11b8152600490fd5b503461043d578060031936011261043d57600a546040516001600160a01b039091168152602090f35b503461043d5761014036600319011261043d576001600160401b03600435818111610b6c57612db0903690600401613a06565b906024358381116110a257612dc9903690600401613a06565b612dd1613947565b9261010435948686116117d857366023870112156117d857856004013595612df887613b23565b96612e066040519889613b00565b8088526024602089019160051b830101913683116130ed57602401905b8282106130d557505050610124356001600160a01b038116900361138c5760008051602061619683398151915254968088161590816130c5575b881660011490816130bb575b1590816130b2575b506130a0576001600160401b0319871660011760008051602061619683398151915255604087901c60ff1615613077575b612eaa61560b565b612eb261560b565b612eba61560b565b612ec261560b565b600160008051602061611683398151915255612ee061012435614f3f565b50612f04602060405183819483830196873781018b83820152038084520182613b00565b5190208655612f2c602060405183819483830196873781018983820152038084520182613b00565b519020600155606435604435116130565760443560025560643560035560843560045560c435600555612f6360843560a435614176565b670de0b6b3a76400009081810291818304149015171561127a576301da9c009004600655600780546001600160a01b0319166001600160a01b0392909216919091179055825b8151811015612fe4576001906001600160a01b03612fc78285613f01565b51168552600860205260408520805460ff19168317905501612fa9565b8360ff8482600f5581196010541660105560401c16156130015780f35b60ff60401b196000805160206161968339815191525416600080516020616196833981519152557fc7f505b2f371ae2175ee4913f4499e1f2633a7b5936321eed1cdaeb6115181d2602060405160018152a180f35b6040516372067af960e11b8152604480356004830152606435602483015290fd5b6001600160481b031987166001600160401b011760008051602061619683398151915255612ea2565b60405163f92ee8a960e01b8152600490fd5b90501538612e71565b303b159150612e69565b604089901c60ff16159150612e5d565b602080916130e28461395d565b815201910190612e23565b8a80fd5b503461043d57604036600319011261043d5761310b613931565b906024356001600160401b0381116109125761312b903690600401613971565b92906131356147f9565b60ff60105460101c16611a1d57600a546040516325c3ed4760e01b8152602092916001600160a01b03919084908290600490829086165afa9081156108c4578291859188916132aa575b50600460405180948193631b6685b560e21b8352165afa9081156108c457869161328d575b50610885576131b16152f0565b600254421061085557826003544211918261323d575b505061085557835b8581106131ec578460016000805160206161168339815191525580f35b806132376131fd6001938986613ecf565b35613209838a87613ecf565b358852600e808752600760408a200190613224858c89613ecf565b358a52875287600560408b200192615338565b016131cf565b600d54604051638dfea9e760e01b8152935083916004918391165afa9081156119d8578591613270575b501582386131c7565b6132879150833d85116108bd576108af8183613b00565b38613267565b6132a49150843d86116108bd576108af8183613b00565b386131a4565b6132c19150823d84116108f5576108e78183613b00565b3861317f565b503461043d57604036600319011261043d576109806004356132e761391b565b908084526000805160206160b683398151915260205261330d6001604086200154614831565b61527b565b503461043d578060031936011261043d5760206040516000805160206160368339815191528152f35b503461043d578060031936011261043d576020600554604051908152f35b503461043d57602036600319011261043d576001604060209260043581526000805160206160b68339815191528452200154604051908152f35b503461043d578060031936011261043d576020604051600080516020615ff68339815191528152f35b503461043d578060031936011261043d576133d56147c1565b6010805462ff0000191662010000179055600c54600154825483926001600160a01b03169190823b156106175760448492836040519586948593631258284760e21b8552600485015260248401525af1801561060c576116175750f35b503461043d578060031936011261043d576020604051600a8152f35b503461043d5761346c613460366139a1565b949390939291926148dd565b90825b8151811015613621576134828183613f01565b516011805490600160401b82101561360d576001820190556134a390613ce9565b6135f957815181556020808301516001830180546001600160a01b03199081166001600160a01b03938416179091556040850151600285015560608501516003850155608085015180519294936001600160401b039390929160048601908583116135e55784906135148484613f6e565b01908c52838c208c5b8381106135d3575050505060058401908560a08801511690825416179055600683019060c086015180519384116135bf57819061355a8585613f6e565b01918a52808a20908a5b8481106135ab575050505050916135a591610100600760019695019261359c60e08201511515859060ff801983541691151516179055565b01511690613fb3565b0161346f565b835187168382015592810192600101613564565b634e487b7160e01b8b52604160045260248bfd5b8251828201559185019160010161351d565b634e487b7160e01b8d52604160045260248dfd5b634e487b7160e01b86526004869052602486fd5b634e487b7160e01b87526041600452602487fd5b5050815b8151811015613698576136388183613f01565b516012805490600160401b8210156136845760018201905561365990613d1e565b613670576001929161366a91613fd8565b01613625565b634e487b7160e01b85526004859052602485fd5b634e487b7160e01b86526041600452602486fd5b8280f35b503461043d57602036600319011261043d57806136b7613931565b6136bf614789565b600c546001600160a01b0316803b156137095760405163b3c2d50b60e01b815291839183918290849082906136f8903060048401614864565b03925af1801561060c576116175750f35b5050fd5b503461043d578060031936011261043d5760206040516000805160206160f68339815191528152f35b503461043d57608036600319011261043d5760043561375361391b565b6001600160401b03906044358281116110a257613774903690600401613971565b9260643590811161125e5761378d903690600401613971565b613795614751565b858752600e60205260ff6008604089200154166138b45760018060a01b039182600c541688600198600154833b15610b6c576044908360405195869485936307fec0e360e01b8552600485015260248401525af180156138a957613896575b50875b868110613802578880f35b83600954169089613814828a89613ecf565b35868116810361091257613829838787613ecf565b35843b15610b6c57613856948392838c604051988995869485936348717eb760e01b855260048501613edf565b03925af1928315613889578a93613870575b5050016137f7565b61387c91929350613a33565b611c045787908938613868565b50604051903d90823e3d90fd5b6138a290989198613a33565b96386137f4565b6040513d8b823e3d90fd5b60405163041753a560e31b8152600490fd5b9050346109125760203660031901126109125760043563ffffffff60e01b8116809103610b6c5760209250637965db0b60e01b811490811561390a575b5015158152f35b6301ffc9a760e01b14905038613903565b602435906001600160a01b038216820361138c57565b600435906001600160a01b038216820361138c57565b60e435906001600160a01b038216820361138c57565b35906001600160a01b038216820361138c57565b9181601f8401121561138c578235916001600160401b03831161138c576020808501948460051b01011161138c57565b90606060031983011261138c576001600160401b0360043581811161138c57836139cd91600401613971565b9390939260243583811161138c57826139e891600401613971565b9390939260443591821161138c57613a0291600401613971565b9091565b9181601f8401121561138c578235916001600160401b03831161138c576020838186019501011161138c57565b6001600160401b038111613a4657604052565b634e487b7160e01b600052604160045260246000fd5b61016081019081106001600160401b03821117613a4657604052565b61012081019081106001600160401b03821117613a4657604052565b602081019081106001600160401b03821117613a4657604052565b608081019081106001600160401b03821117613a4657604052565b604081019081106001600160401b03821117613a4657604052565b606081019081106001600160401b03821117613a4657604052565b601f909101601f19168101906001600160401b03821190821017613a4657604052565b6001600160401b038111613a465760051b60200190565b602090602060408183019282815285518094520193019160005b828110613b62575050505090565b835185529381019392810192600101613b54565b6001600160401b038111613a4657601f01601f191660200190565b6020808252825181830181905290939260005b828110613bc657505060409293506000838284010152601f8019910116010190565b818101860151848201604001528501613ba4565b90815180825260208080930193019160005b828110613bfa575050505090565b835185529381019392810192600101613bec565b90815180825260208080930193019160005b828110613c2e575050505090565b83516001600160a01b031685529381019392810192600101613c20565b906101609180518252613cbf613ca160208301519460018060a01b03809616602086015260408401516040860152606084015160608601526080840151608086015260a0840151908060a0870152850190613bda565b8460c08401511660c085015260e083015184820360e0860152613c0e565b92610100808301511515908401526101209081830151169083015261014080910151151591015290565b601154811015613d0857601160005260206000209060031b0190600090565b634e487b7160e01b600052603260045260246000fd5b601254811015613d085760126000526009602060002091020190600090565b9080601f8301121561138c576020908235613d5781613b23565b93613d656040519586613b00565b81855260208086019260051b82010192831161138c57602001905b828210613d8e575050505090565b81358152908301908301613d80565b9080601f8301121561138c576020908235613db781613b23565b93613dc56040519586613b00565b81855260208086019260051b82010192831161138c57602001905b828210613dee575050505090565b838091613dfa8461395d565b815201910190613de0565b3590811515820361138c57565b9190916101208184031261138c5760405190613e2d82613a78565b819381358352613e3f6020830161395d565b602084015260408281013590840152606080830135908401526001600160401b0390608083013582811161138c5781613e79918501613d3d565b6080850152613e8a60a0840161395d565b60a085015260c083013591821161138c57613ea6918301613d9d565b60c0830152613eb760e08201613e05565b60e0830152613eca61010080920161395d565b910152565b9190811015613d085760051b0190565b6001600160a01b03918216815291166020820152604081019190915260600190565b8051821015613d085760209160051b010190565b81810292918115918404141715613f2857565b634e487b7160e01b600052601160045260246000fd5b81613f47575050565b6000906000526020600020918201915b828110613f6357505050565b818155600101613f57565b600160401b8211613a4657805491808255828110613f8b57505050565b600091600052602060002092830192015b828110613fa857505050565b818155600101613f9c565b8054610100600160a81b03191660089290921b610100600160a81b0316919091179055565b81518155602080830151600180840180546001600160a01b03199081166001600160a01b039485161790915560408601516002860155606086015160038601556080860151600486015560a086015180519396959492936001600160401b0393926005870192909190858211613a465784906140548386613f6e565b01600093845284842087855b84811061412d57505050505060068601908860c08901511690825416179055600785019160e0870151805194851161411957819061409e8686613f6e565b01928252808220915b84811061410657505050505050906140ea60086101409301936140dd6101008401511515869060ff801983541691151516179055565b6101208301511684613fb3565b0151815460ff60a81b191690151560a81b60ff60a81b16179055565b83518916838201559281019285016140a7565b634e487b7160e01b83526041600452602483fd5b87845194019381840155018890614060565b9081602091031261138c57516001600160a01b038116810361138c5790565b9081602091031261138c5751801515810361138c5790565b91908203918211613f2857565b811561418d570490565b634e487b7160e01b600052601260045260246000fd5b906141ad82613b23565b6141ba6040519182613b00565b82815280926141cb601f1991613b23565b0190602036910137565b9190811015613d085760051b8101359060de198136030182121561138c570190565b60e08136031261138c57604051906001600160401b039060e0830182811184821017613a4657604052803583526142306020820161395d565b60208401526040810135604084015260608101356060840152608081013582811161138c576142629036908301613d3d565b608084015261427360a0820161395d565b60a084015260c081013591821161138c5761429091369101613d9d565b60c082015290565b9081548082526020809201926000526020600020916000905b8282106142bf575050505090565b8354855293840193600193840193909101906142b1565b9081548082526020809201926000526020600020916000905b8282106142fd575050505090565b83546001600160a01b0316855293840193600193840193909101906142ef565b92916040906000928552606060208601528054606086015260ff60018060a01b03806001840154166080880152600283015460a0880152600383015460c0880152600483015460e0880152610160908161010089015260086143ac6143896101c08b0160058801614298565b600687015484166101208c01528a8103605f19016101408c0152600787016142d6565b940154918383161515908901528160081c1661018088015260a81c1615156101a0860152930152565b916040919493948352606060208401528054606084015260018060a01b0390816001820154166080850152600281015460a0850152600381015460c0850152600481015460e085015260ff6101608061010087015260086144636144406101c0890160058701614298565b600686015487166101208a0152888103605f19016101408a0152600786016142d6565b93015490828216151590870152838160081c1661018087015260a81c1615156101a08501529416910152565b6040519061449c82613a5c565b81610140600091828152826020820152826040820152826060820152826080820152606060a08201528260c0820152606060e082015282610100820152826101208201520152565b906040516144f181613a5c565b61014060ff829480548452600860018060a01b039182600182015416602087015260028101546040870152600381015460608701526004810154608087015260405161454b816145448160058601614298565b0382613b00565b60a08701528260068201541660c08701526040516145708161454481600786016142d6565b60e087015201549082821615156101008601528160081c1661012085015260a81c161515910152565b91908201809211613f2857565b906145af61448f565b5060e08201805161465d5782519260018060a01b03918260208301511693604090818401519082519060208201928352838201528281526145ef81613ae5565b51902060608401516080850151918660a0870151169360c0870151955115159761010080980151169881519a6146248c613a5c565b8b5260208b015289015260006060890152608088015260a087015260c086015260e0850152830152610120820152600061014082015290565b82519260018060a01b0391826020830151169360409081840190815190835190602082019283528482015283815261469481613ae5565b51902090516060850151906080860151928760a0880151169460c0880151965115159861010080990151169981519b6146cc8d613a5c565b8c5260208c01528a01526060890152608088015260a087015260c086015260e0850152830152610120820152600161014082015290565b600860009182815582600182015582600282015582600382015582600482015561473560058201805490858155613f3e565b82600682015561474d60078201805490858155613f3e565b0155565b336000908152600080516020615fd683398151915260205260409020546000805160206161568339815191529060ff16156108675750565b3360009081526000805160206161768339815191526020526040902054600080516020615ff68339815191529060ff16156108675750565b33600090815260008051602061601683398151915260205260409020546000805160206161368339815191529060ff16156108675750565b3360009081526000805160206160d683398151915260205260409020546000805160206160968339815191529060ff16156108675750565b806000526000805160206160b683398151915260205260406000203360005260205260ff60406000205416156108675750565b6001600160a01b0391821681529116602082015260400190565b9061488882613b23565b6148956040519182613b00565b82815280926148a6601f1991613b23565b019060005b8281106148b757505050565b6020906148c261448f565b828285010152016148ab565b6000198114613f285760010190565b93919594959290926148f8876148f38487614599565b614599565b600f54809103614f27575060005b828110614e215750505081928561491c8461487e565b9160009485865b828110614b9257505061493587613b23565b966149436040519889613b00565b808852614952601f1991613b23565b0160005b818110614b7b57505060009060005b818110614a9b57505050506149799061487e565b95600092835b8281106149ed575050506000915b8383106149b95750505050600f546149a3579190565b634e487b7160e01b600052600160045260246000fd5b6149e56001916149c98585613f01565b516149d4828b613f01565b526149df818a613f01565b506148ce565b92019161498d565b6149f8818484613ecf565b35600052600e60205260406000209460048087015415614a795760ff600888015460a81c16614a57575090614a51614a4a836149df6001958e614a3a8c6144e4565b614a448383613f01565b52613f01565b965461558e565b0161497f565b602490614a65848787613ecf565b356040519163b53dcb6360e01b8352820152fd5b602490614a87848787613ecf565b35604051916311ebb27f60e11b8352820152fd5b614aa6818386613ecf565b35600052600e60205260406000209289600485015415614b7057614b63826149df60019594614b6a94614ad88a6144e4565b614ae06155c4565b50805190898060a01b039081602082015116916060820151608083015160a0840151908360c0860151169260e0860151946101206101008801511515970151169660405198614b2e8a613a78565b8952602089015260408801526060870152608086015260a085015260c084015260e0830152610100820152614a448383613f01565b945461558e565b01614965565b509250600190614b6a565b602090614b866155c4565b82828c01015201614956565b98969492909997959391614ba78a8284613ecf565b356000526020600e815260409a8b60002060049d8e8201805415614dfe5760038301918254809111600014614be657508f8f516370dcb33760e11b8152fd5b9f939597999b9d9f9e929496989a9c9e9660088087015460ff808260a81c1615614de6578116614d22575b50505090614c5791549054835190614c3782614c308160078b016142d6565b0383613b00565b845192614c5284614c4b8160058c01614298565b0385613b00565b615cd0565b614c69575b5050506001905b01614923565b60018060a09d9c9596979899949d1b03600c5416916001548d5493803b1561138c576000928360449286519788958694635bcf235d60e01b865285015260248401525af1908115614d185750614cf4600194614cdf614cd98f9b9a999896614d0196614cfa96614d0957506148ce565b9a6144e4565b614ce9828d613f01565b526149df818c613f01565b9a6155b7565b9a5461558e565b903880614c5c565b614d1290613a33565b386149df565b513d6000823e3d90fd5b8551631320834f60e01b8152911c6001600160a01b03169180828881865afa908115614ddb57600091614daf575b5090504211614d9557614d639086615861565b15614d7057388080614c11565b50505050989790614d90614cfa614cf4600194614cdf614cd98f9b6148ce565b614c63565b50509254905163bcbe400960e01b81529182015260249150fd5b82813d8311614dd4575b614dc38183613b00565b8101031261043d5750518038614d50565b503d614db9565b86513d6000823e3d90fd5b602488888b549051916362d45c6f60e11b8352820152fd5b5060248f8f614e0e86898b613ecf565b359051916311ebb27f60e11b8352820152fd5b614e2c818484613ecf565b356000526020600e815260409081600020916004918284015415614f18576008908185015460ff811615614ef6578351631320834f60e01b81529282918491879183911c6001600160a01b03165afa908115614eeb57600091614ebf575b504211159050614ea957505090614ea36001925461558e565b01614906565b60249254905191631a034f1360e11b8352820152fd5b82813d8311614ee4575b614ed38183613b00565b8101031261043d5750518038614e8a565b503d614ec9565b83513d6000823e3d90fd5b60248585614f058a8d8d613ecf565b3590519163103dad4560e11b8352820152fd5b60248383614e0e888b8b613ecf565b60249060405190633c123a1960e01b82526004820152fd5b6001600160a01b031660008181526000805160206160568339815191526020526040812054909190600080516020616036833981519152906000805160206160b68339815191529060ff16614fc5578184526020526040832082845260205260408320600160ff19825416179055600080516020615fb6833981519152339380a4600190565b50505090565b6001600160a01b031660008181527fd7a4b94e3999c665472d525c803b137e79362305144db4ed5b3b50836858e97a60205260408120549091906000805160206160f6833981519152906000805160206160b68339815191529060ff16614fc5578184526020526040832082845260205260408320600160ff19825416179055600080516020615fb6833981519152339380a4600190565b6001600160a01b03166000818152600080516020615fd68339815191526020526040812054909190600080516020616156833981519152906000805160206160b68339815191529060ff16614fc5578184526020526040832082845260205260408320600160ff19825416179055600080516020615fb6833981519152339380a4600190565b6001600160a01b031660008181526000805160206161768339815191526020526040812054909190600080516020615ff6833981519152906000805160206160b68339815191529060ff16614fc5578184526020526040832082845260205260408320600160ff19825416179055600080516020615fb6833981519152339380a4600190565b6001600160a01b031660008181526000805160206160168339815191526020526040812054909190600080516020616136833981519152906000805160206160b68339815191529060ff16614fc5578184526020526040832082845260205260408320600160ff19825416179055600080516020615fb6833981519152339380a4600190565b6001600160a01b031660008181526000805160206160d68339815191526020526040812054909190600080516020616096833981519152906000805160206160b68339815191529060ff16614fc5578184526020526040832082845260205260408320600160ff19825416179055600080516020615fb6833981519152339380a4600190565b906000918083526000805160206160b683398151915280602052604084209260018060a01b03169283855260205260ff60408520541615600014614fc5578184526020526040832082845260205260408320600160ff19825416179055600080516020615fb6833981519152339380a4600190565b600080516020616116833981519152600281541461530e5760029055565b604051633ee5aeb560e01b8152600490fd5b8054821015613d085760005260206000200190600090565b92600091848352600e602052600491604094838686200154156154f457868552600e6020528585206001908101546001600160a01b03949193908516828616036154e457888752600e60205260ff60088989200154166154d45786845b61542e575b5050505050848352600e6020526153b2848420614703565b600f54600019810190811161541b57600f55600c54169060015491803b1561090e5783929183604492875198899586946307fec0e360e01b865285015260248401525af19182156154115750506154065750565b61540f90613a33565b565b51903d90823e3d90fd5b634e487b7160e01b845260118352602484fd5b83548110156154cf5785600954166154468286615320565b9190549160036154568587615320565b905490821b1c833b156154cb57918c8094928f8d97958f8c61548f93519a8b998a9889976348717eb760e01b89521b1c16918501613edf565b03925af180156154c1579186959493929186926154b2575b500190919293615395565b6154bb90613a33565b386154a7565b8a513d8b823e3d90fd5b8c80fd5b61539a565b875163041753a560e31b81528690fd5b87516305732abb60e51b81528690fd5b85516311ebb27f60e11b8152808501889052602490fd5b906000918083526000805160206160b683398151915280602052604084209260018060a01b03169283855260205260ff604085205416600014614fc557818452602052604083208284526020526040832060ff1981541690557ff6391f5c32d9c69d2a47ea670b442974b53935d1edc7fd64eb21e047a839171b339380a4600190565b600052600e6020526155a36040600020614703565b600f546000198101908111613f2857600f55565b8015613f28576000190190565b604051906155d182613a78565b81610100600091828152826020820152826040820152826060820152606060808201528260a0820152606060c08201528260e08201520152565b60ff6000805160206161968339815191525460401c161561562857565b604051631afcd79f60e31b8152600490fd5b9081602091031261138c576040519061565282613a94565b51815290565b6001600160a01b039091168152602081019190915260400190565b92906156b160018060a01b039485600b5416948660075416956040968751926303d3c9db60e21b948585528480602098899360049660048401615658565b0381865afa93841561585657600094615837575b508897969397516156d581613a94565b60008152936000978b60095416955b82518a1015615818578c6156f88b85613f01565b518d51632a1e8cdb60e01b815291168682018190528a826024818c5afa9182156157cf57908e916000936157e6575b506157328d88613f01565b51156157da578b908b61575b8f615749908b613f01565b519451948593849384528c8401615658565b03818b5afa9081156157cf57615797928f9260019593615792938f6000936157a0575b5050519161578b83613a94565b8252615eba565b615f01565b995b01986156e4565b6157c0929350803d106157c8575b6157b88183613b00565b81019061563a565b90388f61577e565b503d6157ae565b8e513d6000823e3d90fd5b50505098600190615799565b9150918b82813d8311615811575b6157fe8183613b00565b8101031261043d57508d90519138615727565b503d6157f4565b999a509a5050505050505050505190511161583257600090565b600190565b61584f919450863d88116157c8576157b88183613b00565b92386156c5565b89513d6000823e3d90fd5b60018082015460408051632762697d60e01b81526001600160a01b0392831660048083018290529596929594928416906020908184602481865afa938415615bf357600094615ca1575b508315615c9357866006548951906158c282613a94565b81528388600a54168b519384809263fa19d0ed60e01b82525afa908115615c8857600091615c57575b61590392508a51916158fc83613a94565b8252615f1e565b5193670de0b6b3a7640000948582029182048603615c3a5789519161592783613a94565b8252850390858211615c3a578591615945918b519161578b83613a94565b5104878a0180548210615c4f575b5485810290808204871490151715615c3a576159728993928592614183565b948a5193848092630f7a077160e21b82525afa9182156158565790879291600092615bfe575b509060246000928b519485938492636f3fc39760e11b84528d840152165afa918215615bf35785949392600092839291615ae1575b50508989956000905b615a3b575b5050505050505050600c54169260015493803b1561138c57615a15946000809486519788958694859363050ecc8960e11b8552840161431d565b03925af1908115614d185750615a2c575b50600190565b615a3590613a33565b38615a26565b8251811015615adc578088979260058885615a7e8c9751615a5b81613a94565b8b8152615a68878c613f01565b519060008451615a7781613a94565b5251613f15565b809151615a8a81613a94565b52049101615a988382615320565b939054600394851b1c8303615ab6575b50505050018a908a966159d6565b615abf91615320565b81939154911b91821b91600019901b191617905538808083615aa8565b6159db565b919394955091503d8084833e615af78183613b00565b810190898183031261090e5780516001600160401b03919082811161125e57810183601f8201121561125e5790818c9594939251615b40615b3782613b23565b97519788613b00565b808752858088019160051b83010191858311611c04578601905b828210615bdb575050508381015191821161125e570181601f820112156110a257805190615b8782613b23565b95615b948d519788613b00565b828752848088019360051b83010193841161043d57509083899897969594939201905b828210615bc9575050505038806159cd565b81518152899850908301908301615bb7565b81518d81168103610fde578152908601908601615b5a565b88513d6000823e3d90fd5b9092508381813d8311615c33575b615c168183613b00565b81010312610912575190878216820361043d575086916024615998565b503d615c0c565b601189634e487b7160e01b6000525260246000fd5b818155615953565b90508382813d8311615c81575b615c6e8183613b00565b8101031261138c576159039151906158eb565b503d615c64565b8a513d6000823e3d90fd5b505050505050505050600090565b90938282813d8311615cc9575b615cb88183613b00565b8101031261043d57505192386158ab565b503d615cae565b9193919080615e455750925b615d1860018060a01b039485600b5416948660075416956040968751926303d3c9db60e21b948585528480602098899360049660048401615658565b0381865afa93841561585657600094615e26575b50889796939751615d3c81613a94565b60008152936000978b60095416955b82518a1015615818578c615d5f8b85613f01565b518d516320db25d560e01b815291168682018190528a826024818c5afa9182156157cf57908e91600093615df4575b50615d998d88613f01565b5115615de8578b908b615db08f615749908b613f01565b03818b5afa9081156157cf57615ddf928f9260019593615792938f6000936157a0575050519161578b83613a94565b995b0198615d4b565b50505098600190615de1565b9150918b82813d8311615e1f575b615e0c8183613b00565b8101031261043d57508d90519138615d8e565b503d615e02565b615e3e919450863d88116157c8576157b88183613b00565b9238615d2c565b90615e8a604051615e5581613a94565b615e84670de0b6b3a76400009485835260065460405190615e7582613a94565b8152604051916158fc83613a94565b90615f01565b82820291808304841490151715613f2857604051615eb292615eab82613a94565b8152615f1e565b510492615cdc565b6000604051615ec881613a94565b5251670de0b6b3a764000090818102918183041490151715613f2857615eef915190614183565b60405190615efc82613a94565b815290565b90615eef916000604051615f1481613a94565b5251905190614599565b670de0b6b3a764000091615f44916000604051615f3a81613a94565b5251905190613f15565b0460405190615efc82613a94565b90615f795750805115615f6757805190602001fd5b60405163d6bda27560e01b8152600490fd5b81511580615fac575b615f8a575090565b604051639996b31560e01b81526001600160a01b039091166004820152602490fd5b50803b15615f8256fe2f8788117e7eff1d82e926ec794901d17c78024a50270940304540a733656f0db3c9a2228313d87a290b541e6906f28f17cf1bddb0fe5c16a1d3c55a85417e5b793a6c9b7e0a9549c74edc2f9ae0dc50903dfaa9a56fb0116b27a8c71de3e2c6b16e88c42fd4e48df2dd6a2eabd6bc9aec654ec170056b470819f8892cc6431c30d41a597cac127d8249d31298b50e481ee82c3f4a49ff93c76a22735aa9f3ad44fa5399874b75da801cb431822b6afcadb876f84eb39d7f05bf697e94b4484e360894a13ba1a3210667c828492db98dca3e2076cc3735a920a3ca505d382bbcc36a8568220526774f62a808c5b8dd8b7191b32206f87b2bfd1149584358996302dd7bc7dec4dceedda775e58dd541e08a116c6c53815c0bd028192f7b62680071dad3b8d800ed6b81a4c9f84973579b8b42e673b9a0771be09894ef8040dd786e3cc031d23d7153f72e87cbfd113a0351c60d8ce52b8a31c944d543a384b7c99b779b17422d0df92223018b32b4d1fa46e071723d6817e2486d003becc55f00a49807205ce4d355092ef5a8a18f56e8913cf4a201fbe287825b095693c21775c1df76f4e50bdb95676f782d4b88b23904c5346d8bc7c986ae26f7e10e6018910cfb002fcf8644f87ebf6cf6e31899c8d8e9f7c329b465b6e36989a958507e8bf0c57e16840df040f15088dc2f81fe391c3923bec73e23a9662efc9c229c6a00a2646970667358221220bce11c27324c662f5284f21584161de4cdf15bd53c22730cf95bbcb29b39608764736f6c63430008160033",
  "linkReferences": {},
  "deployedLinkReferences": {}
}