{
  "_format": "hh-sol-artifact-1",
  "contractName": "TestTermRepoToken",
  "sourceName": "contracts/test/TestTermRepoToken.sol",
  "abi": [
    {
      "inputs": [],
      "name": "AlreadyTermContractPaired",
      "type": "error"
    },
    {
      "inputs": [],
      "name": "MintExposureCapExceeded",
      "type": "error"
    },
    {
      "inputs": [],
      "name": "TermRepoTokenBurningPaused",
      "type": "error"
    },
    {
      "inputs": [],
      "name": "TermRepoTokenMintingPaused",
      "type": "error"
    },
    {
      "anonymous": false,
      "inputs": [
        {
          "indexed": false,
          "internalType": "address",
          "name": "previousAdmin",
          "type": "address"
        },
        {
          "indexed": false,
          "internalType": "address",
          "name": "newAdmin",
          "type": "address"
        }
      ],
      "name": "AdminChanged",
      "type": "event"
    },
    {
      "anonymous": false,
      "inputs": [
        {
          "indexed": true,
          "internalType": "address",
          "name": "owner",
          "type": "address"
        },
        {
          "indexed": true,
          "internalType": "address",
          "name": "spender",
          "type": "address"
        },
        {
          "indexed": false,
          "internalType": "uint256",
          "name": "value",
          "type": "uint256"
        }
      ],
      "name": "Approval",
      "type": "event"
    },
    {
      "anonymous": false,
      "inputs": [
        {
          "indexed": true,
          "internalType": "address",
          "name": "beacon",
          "type": "address"
        }
      ],
      "name": "BeaconUpgraded",
      "type": "event"
    },
    {
      "anonymous": false,
      "inputs": [],
      "name": "EIP712DomainChanged",
      "type": "event"
    },
    {
      "anonymous": false,
      "inputs": [
        {
          "indexed": false,
          "internalType": "uint8",
          "name": "version",
          "type": "uint8"
        }
      ],
      "name": "Initialized",
      "type": "event"
    },
    {
      "anonymous": false,
      "inputs": [
        {
          "indexed": true,
          "internalType": "bytes32",
          "name": "role",
          "type": "bytes32"
        },
        {
          "indexed": true,
          "internalType": "bytes32",
          "name": "previousAdminRole",
          "type": "bytes32"
        },
        {
          "indexed": true,
          "internalType": "bytes32",
          "name": "newAdminRole",
          "type": "bytes32"
        }
      ],
      "name": "RoleAdminChanged",
      "type": "event"
    },
    {
      "anonymous": false,
      "inputs": [
        {
          "indexed": true,
          "internalType": "bytes32",
          "name": "role",
          "type": "bytes32"
        },
        {
          "indexed": true,
          "internalType": "address",
          "name": "account",
          "type": "address"
        },
        {
          "indexed": true,
          "internalType": "address",
          "name": "sender",
          "type": "address"
        }
      ],
      "name": "RoleGranted",
      "type": "event"
    },
    {
      "anonymous": false,
      "inputs": [
        {
          "indexed": true,
          "internalType": "bytes32",
          "name": "role",
          "type": "bytes32"
        },
        {
          "indexed": true,
          "internalType": "address",
          "name": "account",
          "type": "address"
        },
        {
          "indexed": true,
          "internalType": "address",
          "name": "sender",
          "type": "address"
        }
      ],
      "name": "RoleRevoked",
      "type": "event"
    },
    {
      "anonymous": false,
      "inputs": [
        {
          "indexed": true,
          "internalType": "address",
          "name": "from",
          "type": "address"
        },
        {
          "indexed": true,
          "internalType": "address",
          "name": "to",
          "type": "address"
        },
        {
          "indexed": false,
          "internalType": "uint256",
          "name": "value",
          "type": "uint256"
        }
      ],
      "name": "Transfer",
      "type": "event"
    },
    {
      "anonymous": false,
      "inputs": [
        {
          "indexed": true,
          "internalType": "address",
          "name": "implementation",
          "type": "address"
        }
      ],
      "name": "Upgraded",
      "type": "event"
    },
    {
      "inputs": [],
      "name": "ADMIN_ROLE",
      "outputs": [
        {
          "internalType": "bytes32",
          "name": "",
          "type": "bytes32"
        }
      ],
      "stateMutability": "view",
      "type": "function"
    },
    {
      "inputs": [],
      "name": "BURNER_ROLE",
      "outputs": [
        {
          "internalType": "bytes32",
          "name": "",
          "type": "bytes32"
        }
      ],
      "stateMutability": "view",
      "type": "function"
    },
    {
      "inputs": [],
      "name": "DEFAULT_ADMIN_ROLE",
      "outputs": [
        {
          "internalType": "bytes32",
          "name": "",
          "type": "bytes32"
        }
      ],
      "stateMutability": "view",
      "type": "function"
    },
    {
      "inputs": [],
      "name": "DEVOPS_ROLE",
      "outputs": [
        {
          "internalType": "bytes32",
          "name": "",
          "type": "bytes32"
        }
      ],
      "stateMutability": "view",
      "type": "function"
    },
    {
      "inputs": [],
      "name": "DOMAIN_SEPARATOR",
      "outputs": [
        {
          "internalType": "bytes32",
          "name": "",
          "type": "bytes32"
        }
      ],
      "stateMutability": "view",
      "type": "function"
    },
    {
      "inputs": [],
      "name": "INITIALIZER_ROLE",
      "outputs": [
        {
          "internalType": "bytes32",
          "name": "",
          "type": "bytes32"
        }
      ],
      "stateMutability": "view",
      "type": "function"
    },
    {
      "inputs": [],
      "name": "MINTER_ROLE",
      "outputs": [
        {
          "internalType": "bytes32",
          "name": "",
          "type": "bytes32"
        }
      ],
      "stateMutability": "view",
      "type": "function"
    },
    {
      "inputs": [
        {
          "internalType": "address",
          "name": "owner",
          "type": "address"
        },
        {
          "internalType": "address",
          "name": "spender",
          "type": "address"
        }
      ],
      "name": "allowance",
      "outputs": [
        {
          "internalType": "uint256",
          "name": "",
          "type": "uint256"
        }
      ],
      "stateMutability": "view",
      "type": "function"
    },
    {
      "inputs": [
        {
          "internalType": "address",
          "name": "spender",
          "type": "address"
        },
        {
          "internalType": "uint256",
          "name": "amount",
          "type": "uint256"
        }
      ],
      "name": "approve",
      "outputs": [
        {
          "internalType": "bool",
          "name": "",
          "type": "bool"
        }
      ],
      "stateMutability": "nonpayable",
      "type": "function"
    },
    {
      "inputs": [
        {
          "internalType": "address",
          "name": "account",
          "type": "address"
        }
      ],
      "name": "balanceOf",
      "outputs": [
        {
          "internalType": "uint256",
          "name": "",
          "type": "uint256"
        }
      ],
      "stateMutability": "view",
      "type": "function"
    },
    {
      "inputs": [
        {
          "internalType": "address",
          "name": "account",
          "type": "address"
        },
        {
          "internalType": "uint256",
          "name": "amount",
          "type": "uint256"
        }
      ],
      "name": "burn",
      "outputs": [],
      "stateMutability": "nonpayable",
      "type": "function"
    },
    {
      "inputs": [
        {
          "internalType": "address",
          "name": "account",
          "type": "address"
        },
        {
          "internalType": "uint256",
          "name": "amount",
          "type": "uint256"
        }
      ],
      "name": "burnAndReturnValue",
      "outputs": [
        {
          "internalType": "uint256",
          "name": "",
          "type": "uint256"
        }
      ],
      "stateMutability": "nonpayable",
      "type": "function"
    },
    {
      "inputs": [],
      "name": "burningPaused",
      "outputs": [
        {
          "internalType": "bool",
          "name": "",
          "type": "bool"
        }
      ],
      "stateMutability": "view",
      "type": "function"
    },
    {
      "inputs": [],
      "name": "config",
      "outputs": [
        {
          "internalType": "uint256",
          "name": "redemptionTimestamp",
          "type": "uint256"
        },
        {
          "internalType": "address",
          "name": "purchaseToken",
          "type": "address"
        },
        {
          "internalType": "address",
          "name": "termRepoServicer",
          "type": "address"
        },
        {
          "internalType": "address",
          "name": "termRepoCollateralManager",
          "type": "address"
        }
      ],
      "stateMutability": "view",
      "type": "function"
    },
    {
      "inputs": [],
      "name": "decimals",
      "outputs": [
        {
          "internalType": "uint8",
          "name": "",
          "type": "uint8"
        }
      ],
      "stateMutability": "view",
      "type": "function"
    },
    {
      "inputs": [
        {
          "internalType": "address",
          "name": "spender",
          "type": "address"
        },
        {
          "internalType": "uint256",
          "name": "subtractedValue",
          "type": "uint256"
        }
      ],
      "name": "decreaseAllowance",
      "outputs": [
        {
          "internalType": "bool",
          "name": "",
          "type": "bool"
        }
      ],
      "stateMutability": "nonpayable",
      "type": "function"
    },
    {
      "inputs": [
        {
          "internalType": "uint256",
          "name": "supplyMinted",
          "type": "uint256"
        }
      ],
      "name": "decrementMintExposureCap",
      "outputs": [],
      "stateMutability": "nonpayable",
      "type": "function"
    },
    {
      "inputs": [],
      "name": "eip712Domain",
      "outputs": [
        {
          "internalType": "bytes1",
          "name": "fields",
          "type": "bytes1"
        },
        {
          "internalType": "string",
          "name": "name",
          "type": "string"
        },
        {
          "internalType": "string",
          "name": "version",
          "type": "string"
        },
        {
          "internalType": "uint256",
          "name": "chainId",
          "type": "uint256"
        },
        {
          "internalType": "address",
          "name": "verifyingContract",
          "type": "address"
        },
        {
          "internalType": "bytes32",
          "name": "salt",
          "type": "bytes32"
        },
        {
          "internalType": "uint256[]",
          "name": "extensions",
          "type": "uint256[]"
        }
      ],
      "stateMutability": "view",
      "type": "function"
    },
    {
      "inputs": [],
      "name": "getCollateralRequirements",
      "outputs": [
        {
          "internalType": "address[]",
          "name": "collateralTokens",
          "type": "address[]"
        },
        {
          "internalType": "uint256[]",
          "name": "maintenanceRatios",
          "type": "uint256[]"
        }
      ],
      "stateMutability": "view",
      "type": "function"
    },
    {
      "inputs": [
        {
          "internalType": "bytes32",
          "name": "role",
          "type": "bytes32"
        }
      ],
      "name": "getRoleAdmin",
      "outputs": [
        {
          "internalType": "bytes32",
          "name": "",
          "type": "bytes32"
        }
      ],
      "stateMutability": "view",
      "type": "function"
    },
    {
      "inputs": [
        {
          "internalType": "bytes32",
          "name": "role",
          "type": "bytes32"
        },
        {
          "internalType": "address",
          "name": "account",
          "type": "address"
        }
      ],
      "name": "grantRole",
      "outputs": [],
      "stateMutability": "nonpayable",
      "type": "function"
    },
    {
      "inputs": [
        {
          "internalType": "bytes32",
          "name": "role",
          "type": "bytes32"
        },
        {
          "internalType": "address",
          "name": "account",
          "type": "address"
        }
      ],
      "name": "hasRole",
      "outputs": [
        {
          "internalType": "bool",
          "name": "",
          "type": "bool"
        }
      ],
      "stateMutability": "view",
      "type": "function"
    },
    {
      "inputs": [
        {
          "internalType": "address",
          "name": "spender",
          "type": "address"
        },
        {
          "internalType": "uint256",
          "name": "addedValue",
          "type": "uint256"
        }
      ],
      "name": "increaseAllowance",
      "outputs": [
        {
          "internalType": "bool",
          "name": "",
          "type": "bool"
        }
      ],
      "stateMutability": "nonpayable",
      "type": "function"
    },
    {
      "inputs": [
        {
          "internalType": "string",
          "name": "termRepoId_",
          "type": "string"
        },
        {
          "internalType": "string",
          "name": "name_",
          "type": "string"
        },
        {
          "internalType": "string",
          "name": "symbol_",
          "type": "string"
        },
        {
          "internalType": "uint8",
          "name": "decimalPlaces_",
          "type": "uint8"
        },
        {
          "internalType": "uint256",
          "name": "redemptionValue_",
          "type": "uint256"
        },
        {
          "internalType": "uint256",
          "name": "mintExposureCap_",
          "type": "uint256"
        },
        {
          "internalType": "address",
          "name": "termInitializer_",
          "type": "address"
        },
        {
          "components": [
            {
              "internalType": "uint256",
              "name": "redemptionTimestamp",
              "type": "uint256"
            },
            {
              "internalType": "address",
              "name": "purchaseToken",
              "type": "address"
            },
            {
              "internalType": "address",
              "name": "termRepoServicer",
              "type": "address"
            },
            {
              "internalType": "address",
              "name": "termRepoCollateralManager",
              "type": "address"
            }
          ],
          "internalType": "struct TermRepoTokenConfig",
          "name": "config_",
          "type": "tuple"
        }
      ],
      "name": "initialize",
      "outputs": [],
      "stateMutability": "nonpayable",
      "type": "function"
    },
    {
      "inputs": [],
      "name": "mintExposureCap",
      "outputs": [
        {
          "internalType": "uint256",
          "name": "",
          "type": "uint256"
        }
      ],
      "stateMutability": "view",
      "type": "function"
    },
    {
      "inputs": [
        {
          "internalType": "address",
          "name": "account",
          "type": "address"
        },
        {
          "internalType": "uint256",
          "name": "redemptionAmount",
          "type": "uint256"
        }
      ],
      "name": "mintRedemptionValue",
      "outputs": [
        {
          "internalType": "uint256",
          "name": "",
          "type": "uint256"
        }
      ],
      "stateMutability": "nonpayable",
      "type": "function"
    },
    {
      "inputs": [
        {
          "internalType": "address",
          "name": "account",
          "type": "address"
        },
        {
          "internalType": "uint256",
          "name": "numTokens",
          "type": "uint256"
        }
      ],
      "name": "mintTokens",
      "outputs": [
        {
          "internalType": "uint256",
          "name": "",
          "type": "uint256"
        }
      ],
      "stateMutability": "nonpayable",
      "type": "function"
    },
    {
      "inputs": [],
      "name": "mintingPaused",
      "outputs": [
        {
          "internalType": "bool",
          "name": "",
          "type": "bool"
        }
      ],
      "stateMutability": "view",
      "type": "function"
    },
    {
      "inputs": [],
      "name": "name",
      "outputs": [
        {
          "internalType": "string",
          "name": "",
          "type": "string"
        }
      ],
      "stateMutability": "view",
      "type": "function"
    },
    {
      "inputs": [
        {
          "internalType": "address",
          "name": "owner",
          "type": "address"
        }
      ],
      "name": "nonces",
      "outputs": [
        {
          "internalType": "uint256",
          "name": "",
          "type": "uint256"
        }
      ],
      "stateMutability": "view",
      "type": "function"
    },
    {
      "inputs": [
        {
          "internalType": "address",
          "name": "termRepoServicer_",
          "type": "address"
        },
        {
          "internalType": "contract ITermEventEmitter",
          "name": "emitter_",
          "type": "address"
        },
        {
          "internalType": "address",
          "name": "devopsMultisig_",
          "type": "address"
        },
        {
          "internalType": "address",
          "name": "adminWallet_",
          "type": "address"
        }
      ],
      "name": "pairTermContracts",
      "outputs": [],
      "stateMutability": "nonpayable",
      "type": "function"
    },
    {
      "inputs": [],
      "name": "pauseBurning",
      "outputs": [],
      "stateMutability": "nonpayable",
      "type": "function"
    },
    {
      "inputs": [],
      "name": "pauseMinting",
      "outputs": [],
      "stateMutability": "nonpayable",
      "type": "function"
    },
    {
      "inputs": [
        {
          "internalType": "address",
          "name": "owner",
          "type": "address"
        },
        {
          "internalType": "address",
          "name": "spender",
          "type": "address"
        },
        {
          "internalType": "uint256",
          "name": "value",
          "type": "uint256"
        },
        {
          "internalType": "uint256",
          "name": "deadline",
          "type": "uint256"
        },
        {
          "internalType": "uint8",
          "name": "v",
          "type": "uint8"
        },
        {
          "internalType": "bytes32",
          "name": "r",
          "type": "bytes32"
        },
        {
          "internalType": "bytes32",
          "name": "s",
          "type": "bytes32"
        }
      ],
      "name": "permit",
      "outputs": [],
      "stateMutability": "nonpayable",
      "type": "function"
    },
    {
      "inputs": [],
      "name": "proxiableUUID",
      "outputs": [
        {
          "internalType": "bytes32",
          "name": "",
          "type": "bytes32"
        }
      ],
      "stateMutability": "view",
      "type": "function"
    },
    {
      "inputs": [],
      "name": "redemptionValue",
      "outputs": [
        {
          "internalType": "uint256",
          "name": "",
          "type": "uint256"
        }
      ],
      "stateMutability": "view",
      "type": "function"
    },
    {
      "inputs": [
        {
          "internalType": "bytes32",
          "name": "role",
          "type": "bytes32"
        },
        {
          "internalType": "address",
          "name": "account",
          "type": "address"
        }
      ],
      "name": "renounceRole",
      "outputs": [],
      "stateMutability": "nonpayable",
      "type": "function"
    },
    {
      "inputs": [
        {
          "internalType": "uint256",
          "name": "mintExposureCap_",
          "type": "uint256"
        }
      ],
      "name": "resetMintExposureCap",
      "outputs": [],
      "stateMutability": "nonpayable",
      "type": "function"
    },
    {
      "inputs": [
        {
          "internalType": "bytes32",
          "name": "role",
          "type": "bytes32"
        },
        {
          "internalType": "address",
          "name": "account",
          "type": "address"
        }
      ],
      "name": "revokeRole",
      "outputs": [],
      "stateMutability": "nonpayable",
      "type": "function"
    },
    {
      "inputs": [
        {
          "internalType": "bytes4",
          "name": "interfaceId",
          "type": "bytes4"
        }
      ],
      "name": "supportsInterface",
      "outputs": [
        {
          "internalType": "bool",
          "name": "",
          "type": "bool"
        }
      ],
      "stateMutability": "view",
      "type": "function"
    },
    {
      "inputs": [],
      "name": "symbol",
      "outputs": [
        {
          "internalType": "string",
          "name": "",
          "type": "string"
        }
      ],
      "stateMutability": "view",
      "type": "function"
    },
    {
      "inputs": [],
      "name": "termRepoId",
      "outputs": [
        {
          "internalType": "bytes32",
          "name": "",
          "type": "bytes32"
        }
      ],
      "stateMutability": "view",
      "type": "function"
    },
    {
      "inputs": [],
      "name": "totalRedemptionValue",
      "outputs": [
        {
          "internalType": "uint256",
          "name": "",
          "type": "uint256"
        }
      ],
      "stateMutability": "view",
      "type": "function"
    },
    {
      "inputs": [],
      "name": "totalSupply",
      "outputs": [
        {
          "internalType": "uint256",
          "name": "",
          "type": "uint256"
        }
      ],
      "stateMutability": "view",
      "type": "function"
    },
    {
      "inputs": [
        {
          "internalType": "address",
          "name": "to",
          "type": "address"
        },
        {
          "internalType": "uint256",
          "name": "amount",
          "type": "uint256"
        }
      ],
      "name": "transfer",
      "outputs": [
        {
          "internalType": "bool",
          "name": "",
          "type": "bool"
        }
      ],
      "stateMutability": "nonpayable",
      "type": "function"
    },
    {
      "inputs": [
        {
          "internalType": "address",
          "name": "from",
          "type": "address"
        },
        {
          "internalType": "address",
          "name": "to",
          "type": "address"
        },
        {
          "internalType": "uint256",
          "name": "amount",
          "type": "uint256"
        }
      ],
      "name": "transferFrom",
      "outputs": [
        {
          "internalType": "bool",
          "name": "",
          "type": "bool"
        }
      ],
      "stateMutability": "nonpayable",
      "type": "function"
    },
    {
      "inputs": [],
      "name": "unpauseBurning",
      "outputs": [],
      "stateMutability": "nonpayable",
      "type": "function"
    },
    {
      "inputs": [],
      "name": "unpauseMinting",
      "outputs": [],
      "stateMutability": "nonpayable",
      "type": "function"
    },
    {
      "inputs": [
        {
          "internalType": "address",
          "name": "upgradeAddress",
          "type": "address"
        }
      ],
      "name": "upgrade",
      "outputs": [],
      "stateMutability": "nonpayable",
      "type": "function"
    },
    {
      "inputs": [
        {
          "internalType": "address",
          "name": "newImplementation",
          "type": "address"
        }
      ],
      "name": "upgradeTo",
      "outputs": [],
      "stateMutability": "nonpayable",
      "type": "function"
    },
    {
      "inputs": [
        {
          "internalType": "address",
          "name": "newImplementation",
          "type": "address"
        },
        {
          "internalType": "bytes",
          "name": "data",
          "type": "bytes"
        }
      ],
      "name": "upgradeToAndCall",
      "outputs": [],
      "stateMutability": "payable",
      "type": "function"
    },
    {
      "inputs": [],
      "name": "version",
      "outputs": [
        {
          "internalType": "string",
          "name": "",
          "type": "string"
        }
      ],
      "stateMutability": "view",
      "type": "function"
    }
  ],
  "bytecode": "0x60a0604052306080523480156200001557600080fd5b506200002062000026565b620000e7565b600054610100900460ff1615620000935760405162461bcd60e51b815260206004820152602760248201527f496e697469616c697a61626c653a20636f6e747261637420697320696e697469604482015266616c697a696e6760c81b606482015260840160405180910390fd5b60005460ff90811614620000e5576000805460ff191660ff9081179091556040519081527f7f26b83ff96e1f2b6a682f133852f6798a09c465da95921460cefb38474024989060200160405180910390a15b565b6080516138e86200011f60003960008181610bba01528181610bfa01528181610cfe01528181610d3e0152610db601526138e86000f3fe60806040526004361061027f5760003560e01c806379502c5511610150578063ae200322116100bc578063ae200322146107b9578063b979dee3146107ce578063cc5b6e4a146107ee578063d505accf14610805578063d539139314610825578063d547741f14610847578063da8fbf2a14610867578063dd62ed3e1461087c578063e1a283d61461089c578063ef4474cd146108bd578063f0dda65c146108d4578063f59bb446146108f4578063f9e4f0ed1461091457600080fd5b806379502c55146105de5780637ecebe0014610642578063833c1d951461066257806384b0196e146106845780638bef7f5b146106ac57806391d14854146106cc57806395d89b41146106ec5780639dc29fac14610701578063a217fddf14610721578063a457c2d714610736578063a8f421c214610756578063a9059cbb14610776578063ac7c54291461079657600080fd5b8063313ce567116101ef578063313ce567146104485780633644e5151461046b57806336568abe146104805780633659cfe6146104a057806338b616c1146104c057806339509351146104d55780634f1ef286146104f557806352d1902d1461050857806354fd4d501461051d5780636d5ba7051461055157806370a0823114610571578063723f4e2a146105a757806375b238fc146105bc57600080fd5b806301ffc9a714610284578063056824de146102b9578063059cbd9b146102db57806306fdde03146102f05780630900f01014610312578063095ea7b31461033257806318160ddd14610352578063201a66251461037157806323b872dd14610393578063248a9ca3146103b357806327df3d3e146103e4578063282c51f3146104065780632f2ff15d14610428575b600080fd5b34801561029057600080fd5b506102a461029f366004612dab565b61092b565b60405190151581526020015b60405180910390f35b3480156102c557600080fd5b506102d96102d4366004612dd5565b610962565b005b3480156102e757600080fd5b506102d9610981565b3480156102fc57600080fd5b50610305610a19565b6040516102b09190612e3e565b34801561031e57600080fd5b506102d961032d366004612e76565b610aab565b34801561033e57600080fd5b506102a461034d366004612e93565b610ab7565b34801561035e57600080fd5b506035545b6040519081526020016102b0565b34801561037d57600080fd5b506103636000805160206137cc83398151915281565b34801561039f57600080fd5b506102a46103ae366004612ebf565b610acf565b3480156103bf57600080fd5b506103636103ce366004612dd5565b6000908152610162602052604090206001015490565b3480156103f057600080fd5b506103636000805160206137ec83398151915281565b34801561041257600080fd5b506103636000805160206137ac83398151915281565b34801561043457600080fd5b506102d9610443366004612f00565b610af3565b34801561045457600080fd5b506101945460405160ff90911681526020016102b0565b34801561047757600080fd5b50610363610b1e565b34801561048c57600080fd5b506102d961049b366004612f00565b610b2d565b3480156104ac57600080fd5b506102d96104bb366004612e76565b610bb0565b3480156104cc57600080fd5b506102d9610c75565b3480156104e157600080fd5b506102a46104f0366004612e93565b610cd2565b6102d9610503366004612f46565b610cf4565b34801561051457600080fd5b50610363610da9565b34801561052957600080fd5b5060408051808201909152600b81526a19195d995b1bdc1b595b9d60aa1b6020820152610305565b34801561055d57600080fd5b506102d961056c36600461307d565b610e57565b34801561057d57600080fd5b5061036361058c366004612e76565b6001600160a01b031660009081526033602052604090205490565b3480156105b357600080fd5b50610363611160565b3480156105c857600080fd5b5061036360008051602061389383398151915281565b3480156105ea57600080fd5b50610198546101995461019a5461019b5461061393926001600160a01b03908116928116911684565b604080519485526001600160a01b039384166020860152918316918401919091521660608201526080016102b0565b34801561064e57600080fd5b5061036361065d366004612e76565b6111ad565b34801561066e57600080fd5b50610194546102a4906301000000900460ff1681565b34801561069057600080fd5b506106996111cb565b6040516102b09796959493929190613198565b3480156106b857600080fd5b506103636106c7366004612e93565b611269565b3480156106d857600080fd5b506102a46106e7366004612f00565b611302565b3480156106f857600080fd5b5061030561132e565b34801561070d57600080fd5b506102d961071c366004612e93565b61133d565b34801561072d57600080fd5b50610363600081565b34801561074257600080fd5b506102a4610751366004612e93565b6113a8565b34801561076257600080fd5b506102d9610771366004613208565b611423565b34801561078257600080fd5b506102a4610791366004612e93565b61156d565b3480156107a257600080fd5b506107ab61157b565b6040516102b0929190613264565b3480156107c557600080fd5b506102d96117f0565b3480156107da57600080fd5b506102d96107e9366004612dd5565b61184c565b3480156107fa57600080fd5b506103636101965481565b34801561081157600080fd5b506102d96108203660046132ba565b6118a4565b34801561083157600080fd5b5061036360008051602061385383398151915281565b34801561085357600080fd5b506102d9610862366004612f00565b611a08565b34801561087357600080fd5b506102d9611a2e565b34801561088857600080fd5b5061036361089736600461332b565b611a8f565b3480156108a857600080fd5b50610194546102a49062010000900460ff1681565b3480156108c957600080fd5b506103636101955481565b3480156108e057600080fd5b506103636108ef366004612e93565b611aba565b34801561090057600080fd5b5061036361090f366004612e93565b611b3a565b34801561092057600080fd5b506103636101975481565b60006001600160e01b03198216637965db0b60e01b148061095c57506301ffc9a760e01b6001600160e01b03198316145b92915050565b60008051602061389383398151915261097a81611bcb565b5061019755565b60008051602061389383398151915261099981611bcb565b610194805463ff0000001916630100000017905561019c5461019654604051630954cf0360e01b81526001600160a01b0390921691630954cf03916109e49160040190815260200190565b600060405180830381600087803b1580156109fe57600080fd5b505af1158015610a12573d6000803e3d6000fd5b5050505050565b606060368054610a2890613359565b80601f0160208091040260200160405190810160405280929190818152602001828054610a5490613359565b8015610aa15780601f10610a7657610100808354040283529160200191610aa1565b820191906000526020600020905b815481529060010190602001808311610a8457829003601f168201915b5050505050905090565b610ab481611bd5565b50565b600033610ac5818585611c57565b5060019392505050565b600033610add858285611d7b565b610ae8858585611df5565b506001949350505050565b60008281526101626020526040902060010154610b0f81611bcb565b610b198383611f8e565b505050565b6000610b28612015565b905090565b6001600160a01b0381163314610ba25760405162461bcd60e51b815260206004820152602f60248201527f416363657373436f6e74726f6c3a2063616e206f6e6c792072656e6f756e636560448201526e103937b632b9903337b91039b2b63360891b60648201526084015b60405180910390fd5b610bac828261201f565b5050565b6001600160a01b037f0000000000000000000000000000000000000000000000000000000000000000163003610bf85760405162461bcd60e51b8152600401610b999061338d565b7f00000000000000000000000000000000000000000000000000000000000000006001600160a01b0316610c2a612087565b6001600160a01b031614610c505760405162461bcd60e51b8152600401610b99906133d9565b610c5981611bd5565b60408051600080825260208201909252610ab4918391906120a3565b600080516020613893833981519152610c8d81611bcb565b610194805463ff0000001916905561019c546101965460405163b29aaf7560e01b81526001600160a01b039092169163b29aaf75916109e49160040190815260200190565b600033610ac5818585610ce58383611a8f565b610cef919061343b565b611c57565b6001600160a01b037f0000000000000000000000000000000000000000000000000000000000000000163003610d3c5760405162461bcd60e51b8152600401610b999061338d565b7f00000000000000000000000000000000000000000000000000000000000000006001600160a01b0316610d6e612087565b6001600160a01b031614610d945760405162461bcd60e51b8152600401610b99906133d9565b610d9d82611bd5565b610bac828260016120a3565b6000306001600160a01b037f00000000000000000000000000000000000000000000000000000000000000001614610e445760405162461bcd60e51b815260206004820152603860248201527f555550535570677261646561626c653a206d757374206e6f742062652063616c6044820152771b1959081d1a1c9bdd59da0819195b1959d85d1958d85b1b60421b6064820152608401610b99565b5060008051602061380c83398151915290565b600054610100900460ff1615808015610e775750600054600160ff909116105b80610e985750610e863061220e565b158015610e98575060005460ff166001145b610efb5760405162461bcd60e51b815260206004820152602e60248201527f496e697469616c697a61626c653a20636f6e747261637420697320616c72656160448201526d191e481a5b9a5d1a585b1a5e995960921b6064820152608401610b99565b6000805460ff191660011790558015610f1e576000805461ff0019166101001790555b610f918a8a8080601f01602080910402602001604051908101604052809392919081815260200183838082843760009201919091525050604080516020601f8e018190048102820181019092528c815292508c91508b908190840183828082843760009201919091525061221d92505050565b610fd08a8a8080601f01602080910402602001604051908101604052809392919081815260200183838082843760009201919091525061224e92505050565b610fd8612298565b610fe0612298565b610ff86000805160206137ec83398151915284611f8e565b610194805460ff191660ff881617905561019585905560006110206040840160208501612e76565b6001600160a01b031614158015611050575060006110446080840160608501612e76565b6001600160a01b031614155b8015611075575060006110696060840160408501612e76565b6001600160a01b031614155b6110ba5760405162461bcd60e51b81526020600482015260166024820152757a65726f206164647265737320696e20636f6e66696760501b6044820152606401610b99565b816101986110c8828261346e565b50506040516110dd908d908d906020016134c5565b60408051601f19818403018152919052805160209091012061019655610197849055610194805462ffff00191690558015611152576000805461ff0019169055604051600181527f7f26b83ff96e1f2b6a682f133852f6798a09c465da95921460cefb38474024989060200160405180910390a15b505050505050505050505050565b60008061095c6111a86040518060200160405280670de0b6b3a764000061118660355490565b61119091906134d5565b905260408051602081019091526101955481526122c1565b612309565b6001600160a01b03811660009081526099602052604081205461095c565b6000606080600080600060606065546000801b1480156111eb5750606654155b61122f5760405162461bcd60e51b81526020600482015260156024820152741152540dcc4c8e88155b9a5b9a5d1a585b1a5e9959605a1b6044820152606401610b99565b611237612321565b61123f612330565b60408051600080825260208201909252600f60f81b9b939a50919850469750309650945092509050565b6101945460009062010000900460ff161561129757604051636864195160e01b815260040160405180910390fd5b6000805160206138538339815191526112af81611bcb565b60006112ee6111a86040518060200160405280670de0b6b3a7640000886112d691906134d5565b9052604080516020810190915261019554815261233f565b90506112fa8582612379565b949350505050565b6000918252610162602090815260408084206001600160a01b0393909316845291905290205460ff1690565b606060378054610a2890613359565b6000805160206137ac83398151915261135581611bcb565b610194546301000000900460ff16156113815760405163c76a6dcb60e01b815260040160405180910390fd5b61138b8383612428565b81610197600082825461139e919061343b565b9091555050505050565b600033816113b68286611a8f565b9050838110156114165760405162461bcd60e51b815260206004820152602560248201527f45524332303a2064656372656173656420616c6c6f77616e63652062656c6f77604482015264207a65726f60d81b6064820152608401610b99565b610ae88286868403611c57565b6000805160206137ec83398151915261143b81611bcb565b61019454610100900460ff161561146557604051634ce377bb60e11b815260040160405180910390fd5b610194805461ff00191661010017905561019c80546001600160a01b0386166001600160a01b03199091161790556114ab60008051602061389383398151915283611f8e565b6114c360008051602061385383398151915286611f8e565b6114db6000805160206137ac83398151915286611f8e565b6114f36000805160206137cc83398151915284611f8e565b61019c5461019654610195546040516327481ec760e21b8152600481019290925230602483015260448201526001600160a01b0390911690639d207b1c90606401600060405180830381600087803b15801561154e57600080fd5b505af1158015611562573d6000803e3d6000fd5b505050505050505050565b600033610ac5818585611df5565b61019b5460408051630c87400960e11b8152905160609283926001600160a01b0390911691600091839163190e8012916004808201926020929091908290030181865afa1580156115d0573d6000803e3d6000fd5b505050506040513d601f19601f820116820180604052508101906115f491906134ec565b60ff169050806001600160401b0381111561161157611611612f30565b60405190808252806020026020018201604052801561163a578160200160208202803683370190505b509350806001600160401b0381111561165557611655612f30565b60405190808252806020026020018201604052801561167e578160200160208202803683370190505b50925060005b818110156117e95760405163172c48c760e01b8152600481018290526001600160a01b0384169063172c48c790602401602060405180830381865afa1580156116d1573d6000803e3d6000fd5b505050506040513d601f19601f820116820180604052508101906116f59190613509565b85828151811061170757611707613526565b60200260200101906001600160a01b031690816001600160a01b031681525050826001600160a01b03166320db25d586838151811061174857611748613526565b60200260200101516040518263ffffffff1660e01b815260040161177b91906001600160a01b0391909116815260200190565b602060405180830381865afa158015611798573d6000803e3d6000fd5b505050506040513d601f19601f820116820180604052508101906117bc919061353c565b8482815181106117ce576117ce613526565b60209081029190910101526117e281613555565b9050611684565b5050509091565b60008051602061389383398151915261180881611bcb565b610194805462ff00001916905561019c5461019654604051631d04a79b60e11b81526001600160a01b0390921691633a094f36916109e49160040190815260200190565b60008051602061385383398151915261186481611bcb565b6101975482111561188857604051632e8a972b60e11b815260040160405180910390fd5b81610197600082825461189b919061356e565b90915550505050565b834211156118f45760405162461bcd60e51b815260206004820152601d60248201527f45524332305065726d69743a206578706972656420646561646c696e650000006044820152606401610b99565b60007f6e71edae12b1b97f4d1f60370fef10105fa2faae0126114a169c64845d6126c98888886119238c61254a565b6040805160208101969096526001600160a01b0394851690860152929091166060840152608083015260a082015260c0810186905260e001604051602081830303815290604052805190602001209050600061197e82612572565b9050600061198e8287878761259f565b9050896001600160a01b0316816001600160a01b0316146119f15760405162461bcd60e51b815260206004820152601e60248201527f45524332305065726d69743a20696e76616c6964207369676e617475726500006044820152606401610b99565b6119fc8a8a8a611c57565b50505050505050505050565b60008281526101626020526040902060010154611a2481611bcb565b610b19838361201f565b600080516020613893833981519152611a4681611bcb565b610194805462ff000019166201000017905561019c5461019654604051630e06d05360e21b81526001600160a01b039092169163381b414c916109e49160040190815260200190565b6001600160a01b03918216600090815260346020908152604080832093909416825291909152205490565b6101945460009062010000900460ff1615611ae857604051636864195160e01b815260040160405180910390fd5b600080516020613853833981519152611b0081611bcb565b611b0a8484612379565b6000611b316111a86040518060200160405280670de0b6b3a76400008861119091906134d5565b95945050505050565b60006000805160206137ac833981519152611b5481611bcb565b610194546301000000900460ff1615611b805760405163c76a6dcb60e01b815260040160405180910390fd5b611b8a8484612428565b826101976000828254611b9d919061343b565b925050819055506000611b316111a86040518060200160405280670de0b6b3a76400008861119091906134d5565b610ab481336125c7565b6000805160206137cc833981519152611bed81611bcb565b61019c5460405163b3c2d50b60e01b81523060048201526001600160a01b0384811660248301529091169063b3c2d50b90604401600060405180830381600087803b158015611c3b57600080fd5b505af1158015611c4f573d6000803e3d6000fd5b505050505050565b6001600160a01b038316611cb95760405162461bcd60e51b8152602060048201526024808201527f45524332303a20617070726f76652066726f6d20746865207a65726f206164646044820152637265737360e01b6064820152608401610b99565b6001600160a01b038216611d1a5760405162461bcd60e51b815260206004820152602260248201527f45524332303a20617070726f766520746f20746865207a65726f206164647265604482015261737360f01b6064820152608401610b99565b6001600160a01b0383811660008181526034602090815260408083209487168084529482529182902085905590518481527f8c5be1e5ebec7d5bd14f71427d1e84f3dd0314c0f7b2291e5b200ac8c7c3b925910160405180910390a3505050565b6000611d878484611a8f565b90506000198114611def5781811015611de25760405162461bcd60e51b815260206004820152601d60248201527f45524332303a20696e73756666696369656e7420616c6c6f77616e63650000006044820152606401610b99565b611def8484848403611c57565b50505050565b6001600160a01b038316611e595760405162461bcd60e51b815260206004820152602560248201527f45524332303a207472616e736665722066726f6d20746865207a65726f206164604482015264647265737360d81b6064820152608401610b99565b6001600160a01b038216611ebb5760405162461bcd60e51b815260206004820152602360248201527f45524332303a207472616e7366657220746f20746865207a65726f206164647260448201526265737360e81b6064820152608401610b99565b6001600160a01b03831660009081526033602052604090205481811015611f335760405162461bcd60e51b815260206004820152602660248201527f45524332303a207472616e7366657220616d6f756e7420657863656564732062604482015265616c616e636560d01b6064820152608401610b99565b6001600160a01b03808516600081815260336020526040808220868603905592861680825290839020805486019055915160008051602061387383398151915290611f819086815260200190565b60405180910390a3611def565b611f988282611302565b610bac576000828152610162602090815260408083206001600160a01b03851684529091529020805460ff19166001179055611fd13390565b6001600160a01b0316816001600160a01b0316837f2f8788117e7eff1d82e926ec794901d17c78024a50270940304540a733656f0d60405160405180910390a45050565b6000610b28612620565b6120298282611302565b15610bac576000828152610162602090815260408083206001600160a01b0385168085529252808320805460ff1916905551339285917ff6391f5c32d9c69d2a47ea670b442974b53935d1edc7fd64eb21e047a839171b9190a45050565b60008051602061380c833981519152546001600160a01b031690565b7f4910fdfa16fed3260ed0e7147f7cc6da11a60208b5b9406d12a635614ffd91435460ff16156120d657610b1983612694565b826001600160a01b03166352d1902d6040518163ffffffff1660e01b8152600401602060405180830381865afa925050508015612130575060408051601f3d908101601f1916820190925261212d9181019061353c565b60015b6121935760405162461bcd60e51b815260206004820152602e60248201527f45524331393637557067726164653a206e657720696d706c656d656e7461746960448201526d6f6e206973206e6f74205555505360901b6064820152608401610b99565b60008051602061380c83398151915281146122025760405162461bcd60e51b815260206004820152602960248201527f45524331393637557067726164653a20756e737570706f727465642070726f786044820152681a58589b195555525160ba1b6064820152608401610b99565b50610b1983838361272e565b6001600160a01b03163b151590565b600054610100900460ff166122445760405162461bcd60e51b8152600401610b9990613581565b610bac8282612753565b600054610100900460ff166122755760405162461bcd60e51b8152600401610b9990613581565b610ab481604051806040016040528060018152602001603160f81b815250612793565b600054610100900460ff166122bf5760405162461bcd60e51b8152600401610b9990613581565b565b6040805160208101909152600081526040518060200160405280670de0b6b3a76400006122f6866000015186600001516127e2565b61230091906135cc565b90529392505050565b805160009061095c90670de0b6b3a7640000906135cc565b606060678054610a2890613359565b606060688054610a2890613359565b60408051602081019091526000815260405180602001604052806123006123728660000151670de0b6b3a76400006127e2565b85516127f5565b6001600160a01b0382166123cf5760405162461bcd60e51b815260206004820152601f60248201527f45524332303a206d696e7420746f20746865207a65726f2061646472657373006044820152606401610b99565b80603560008282546123e1919061343b565b90915550506001600160a01b038216600081815260336020908152604080832080548601905551848152600080516020613873833981519152910160405180910390a35050565b6001600160a01b0382166124885760405162461bcd60e51b815260206004820152602160248201527f45524332303a206275726e2066726f6d20746865207a65726f206164647265736044820152607360f81b6064820152608401610b99565b6001600160a01b038216600090815260336020526040902054818110156124fc5760405162461bcd60e51b815260206004820152602260248201527f45524332303a206275726e20616d6f756e7420657863656564732062616c616e604482015261636560f01b6064820152608401610b99565b6001600160a01b0383166000818152603360209081526040808320868603905560358054879003905551858152919291600080516020613873833981519152910160405180910390a3505050565b6001600160a01b03811660009081526099602052604090208054600181018255905b50919050565b600061095c61257f612015565b8360405161190160f01b8152600281019290925260228201526042902090565b60008060006125b087878787612801565b915091506125bd816128bb565b5095945050505050565b6125d18282611302565b610bac576125de81612a00565b6125e9836020612a12565b6040516020016125fa9291906135ee565b60408051601f198184030181529082905262461bcd60e51b8252610b9991600401612e3e565b60007f8b73c3c69bb8fe3d512ecc4cf759cc79239f7b179b0ffacaa9a75d522b39400f61264b612bad565b612653612c06565b60408051602081019490945283019190915260608201524660808201523060a082015260c00160405160208183030381529060405280519060200120905090565b61269d8161220e565b6126ff5760405162461bcd60e51b815260206004820152602d60248201527f455243313936373a206e657720696d706c656d656e746174696f6e206973206e60448201526c1bdd08184818dbdb9d1c9858dd609a1b6064820152608401610b99565b60008051602061380c83398151915280546001600160a01b0319166001600160a01b0392909216919091179055565b61273783612c37565b6000825111806127445750805b15610b1957611def8383612c77565b600054610100900460ff1661277a5760405162461bcd60e51b8152600401610b9990613581565b603661278683826136a3565b506037610b1982826136a3565b600054610100900460ff166127ba5760405162461bcd60e51b8152600401610b9990613581565b60676127c683826136a3565b5060686127d382826136a3565b50506000606581905560665550565b60006127ee82846134d5565b9392505050565b60006127ee82846135cc565b6000806fa2a8918ca85bafe22016d0b997e4df60600160ff1b0383111561282e57506000905060036128b2565b6040805160008082526020820180845289905260ff881692820192909252606081018690526080810185905260019060a0016020604051602081039080840390855afa158015612882573d6000803e3d6000fd5b5050604051601f1901519150506001600160a01b0381166128ab576000600192509250506128b2565b9150600090505b94509492505050565b60008160048111156128cf576128cf613762565b036128d75750565b60018160048111156128eb576128eb613762565b036129335760405162461bcd60e51b815260206004820152601860248201527745434453413a20696e76616c6964207369676e617475726560401b6044820152606401610b99565b600281600481111561294757612947613762565b036129945760405162461bcd60e51b815260206004820152601f60248201527f45434453413a20696e76616c6964207369676e6174757265206c656e677468006044820152606401610b99565b60038160048111156129a8576129a8613762565b03610ab45760405162461bcd60e51b815260206004820152602260248201527f45434453413a20696e76616c6964207369676e6174757265202773272076616c604482015261756560f01b6064820152608401610b99565b606061095c6001600160a01b03831660145b60606000612a218360026134d5565b612a2c90600261343b565b6001600160401b03811115612a4357612a43612f30565b6040519080825280601f01601f191660200182016040528015612a6d576020820181803683370190505b509050600360fc1b81600081518110612a8857612a88613526565b60200101906001600160f81b031916908160001a905350600f60fb1b81600181518110612ab757612ab7613526565b60200101906001600160f81b031916908160001a9053506000612adb8460026134d5565b612ae690600161343b565b90505b6001811115612b5e576f181899199a1a9b1b9c1cb0b131b232b360811b85600f1660108110612b1a57612b1a613526565b1a60f81b828281518110612b3057612b30613526565b60200101906001600160f81b031916908160001a90535060049490941c93612b5781613778565b9050612ae9565b5083156127ee5760405162461bcd60e51b815260206004820181905260248201527f537472696e67733a20686578206c656e67746820696e73756666696369656e746044820152606401610b99565b600080612bb8612321565b805190915015612bcf578051602090910120919050565b6065548015612bde5792915050565b7fc5d2460186f7233c927e7db2dcc703c0e500b653ca82273b7bfad8045d85a4709250505090565b600080612c11612330565b805190915015612c28578051602090910120919050565b6066548015612bde5792915050565b612c4081612694565b6040516001600160a01b038216907fbc7cd75a20ee27fd9adebab32041f755214dbc6bffa90cc0225b39da2e5c2d3b90600090a250565b60606127ee838360405180606001604052806027815260200161382c602791396060600080856001600160a01b031685604051612cb4919061378f565b600060405180830381855af49150503d8060008114612cef576040519150601f19603f3d011682016040523d82523d6000602084013e612cf4565b606091505b5091509150612d0586838387612d0f565b9695505050505050565b60608315612d7c578251600003612d7557612d298561220e565b612d755760405162461bcd60e51b815260206004820152601d60248201527f416464726573733a2063616c6c20746f206e6f6e2d636f6e74726163740000006044820152606401610b99565b50816112fa565b6112fa8383815115612d915781518083602001fd5b8060405162461bcd60e51b8152600401610b999190612e3e565b600060208284031215612dbd57600080fd5b81356001600160e01b0319811681146127ee57600080fd5b600060208284031215612de757600080fd5b5035919050565b60005b83811015612e09578181015183820152602001612df1565b50506000910152565b60008151808452612e2a816020860160208601612dee565b601f01601f19169290920160200192915050565b6020815260006127ee6020830184612e12565b6001600160a01b0381168114610ab457600080fd5b8035612e7181612e51565b919050565b600060208284031215612e8857600080fd5b81356127ee81612e51565b60008060408385031215612ea657600080fd5b8235612eb181612e51565b946020939093013593505050565b600080600060608486031215612ed457600080fd5b8335612edf81612e51565b92506020840135612eef81612e51565b929592945050506040919091013590565b60008060408385031215612f1357600080fd5b823591506020830135612f2581612e51565b809150509250929050565b634e487b7160e01b600052604160045260246000fd5b60008060408385031215612f5957600080fd5b8235612f6481612e51565b915060208301356001600160401b0380821115612f8057600080fd5b818501915085601f830112612f9457600080fd5b813581811115612fa657612fa6612f30565b604051601f8201601f19908116603f01168101908382118183101715612fce57612fce612f30565b81604052828152886020848701011115612fe757600080fd5b8260208601602083013760006020848301015280955050505050509250929050565b60008083601f84011261301b57600080fd5b5081356001600160401b0381111561303257600080fd5b60208301915083602082850101111561304a57600080fd5b9250929050565b60ff81168114610ab457600080fd5b8035612e7181613051565b60006080828403121561256c57600080fd5b60008060008060008060008060008060006101608c8e03121561309f57600080fd5b6001600160401b03808d3511156130b557600080fd5b6130c28e8e358f01613009565b909c509a5060208d01358110156130d857600080fd5b6130e88e60208f01358f01613009565b909a50985060408d01358110156130fe57600080fd5b5061310f8d60408e01358e01613009565b909750955061312060608d01613060565b945060808c0135935060a08c0135925061313c60c08d01612e66565b915061314b8d60e08e0161306b565b90509295989b509295989b9093969950565b600081518084526020808501945080840160005b8381101561318d57815187529582019590820190600101613171565b509495945050505050565b60ff60f81b8816815260e0602082015260006131b760e0830189612e12565b82810360408401526131c98189612e12565b606084018890526001600160a01b038716608085015260a0840186905283810360c085015290506131fa818561315d565b9a9950505050505050505050565b6000806000806080858703121561321e57600080fd5b843561322981612e51565b9350602085013561323981612e51565b9250604085013561324981612e51565b9150606085013561325981612e51565b939692955090935050565b604080825283519082018190526000906020906060840190828701845b828110156132a65781516001600160a01b031684529284019290840190600101613281565b50505083810382850152612d05818661315d565b600080600080600080600060e0888a0312156132d557600080fd5b87356132e081612e51565b965060208801356132f081612e51565b95506040880135945060608801359350608088013561330e81613051565b9699959850939692959460a0840135945060c09093013592915050565b6000806040838503121561333e57600080fd5b823561334981612e51565b91506020830135612f2581612e51565b600181811c9082168061336d57607f821691505b60208210810361256c57634e487b7160e01b600052602260045260246000fd5b6020808252602c908201527f46756e6374696f6e206d7573742062652063616c6c6564207468726f7567682060408201526b19195b1959d85d1958d85b1b60a21b606082015260800190565b6020808252602c908201527f46756e6374696f6e206d7573742062652063616c6c6564207468726f7567682060408201526b6163746976652070726f787960a01b606082015260800190565b634e487b7160e01b600052601160045260246000fd5b8082018082111561095c5761095c613425565b80546001600160a01b0319166001600160a01b0392909216919091179055565b81358155602082013561348081612e51565b61348d816001840161344e565b50604082013561349c81612e51565b6134a9816002840161344e565b5060608201356134b881612e51565b610b19816003840161344e565b8183823760009101908152919050565b808202811582820484141761095c5761095c613425565b6000602082840312156134fe57600080fd5b81516127ee81613051565b60006020828403121561351b57600080fd5b81516127ee81612e51565b634e487b7160e01b600052603260045260246000fd5b60006020828403121561354e57600080fd5b5051919050565b60006001820161356757613567613425565b5060010190565b8181038181111561095c5761095c613425565b6020808252602b908201527f496e697469616c697a61626c653a20636f6e7472616374206973206e6f74206960408201526a6e697469616c697a696e6760a81b606082015260800190565b6000826135e957634e487b7160e01b600052601260045260246000fd5b500490565b76020b1b1b2b9b9a1b7b73a3937b61d1030b1b1b7bab73a1604d1b815260008351613620816017850160208801612dee565b7001034b99036b4b9b9b4b733903937b6329607d1b6017918401918201528351613651816028840160208801612dee565b01602801949350505050565b601f821115610b1957600081815260208120601f850160051c810160208610156136845750805b601f850160051c820191505b81811015611c4f57828155600101613690565b81516001600160401b038111156136bc576136bc612f30565b6136d0816136ca8454613359565b8461365d565b602080601f83116001811461370557600084156136ed5750858301515b600019600386901b1c1916600185901b178555611c4f565b600085815260208120601f198616915b8281101561373457888601518255948401946001909101908401613715565b50858210156137525787850151600019600388901b60f8161c191681555b5050505050600190811b01905550565b634e487b7160e01b600052602160045260246000fd5b60008161378757613787613425565b506000190190565b600082516137a1818460208701612dee565b919091019291505056fe3c11d16cbaffd01df69ce1c404f6340ee057498f5f00246190ea54220576a848793a6c9b7e0a9549c74edc2f9ae0dc50903dfaa9a56fb0116b27a8c71de3e2c630d41a597cac127d8249d31298b50e481ee82c3f4a49ff93c76a22735aa9f3ad360894a13ba1a3210667c828492db98dca3e2076cc3735a920a3ca505d382bbc416464726573733a206c6f772d6c6576656c2064656c65676174652063616c6c206661696c65649f2df0fed2c77648de5860a4cc508cd0818c85b8b8a1ab4ceeef8d981c8956a6ddf252ad1be2c89b69c2b068fc378daa952ba7f163c4a11628f55a4df523b3efa49807205ce4d355092ef5a8a18f56e8913cf4a201fbe287825b095693c21775a26469706673582212208796ad8ca17ae865ddc6edce8e87b9ef15b043ef28479278aace12cf243ead6464736f6c63430008120033",
  "linkReferences": {},
  "deployedLinkReferences": {}
}