{
  "_format": "hh-sol-artifact-1",
  "contractName": "TestTermRepoToken",
  "sourceName": "contracts/test/TestTermRepoToken.sol",
  "abi": [
    {
      "inputs": [],
      "name": "AlreadyTermContractPaired",
      "type": "error"
    },
    {
      "inputs": [],
      "name": "MintExposureCapExceeded",
      "type": "error"
    },
    {
      "inputs": [],
      "name": "TermRepoTokenBurningPaused",
      "type": "error"
    },
    {
      "inputs": [],
      "name": "TermRepoTokenMintingPaused",
      "type": "error"
    },
    {
      "anonymous": false,
      "inputs": [
        {
          "indexed": false,
          "internalType": "address",
          "name": "previousAdmin",
          "type": "address"
        },
        {
          "indexed": false,
          "internalType": "address",
          "name": "newAdmin",
          "type": "address"
        }
      ],
      "name": "AdminChanged",
      "type": "event"
    },
    {
      "anonymous": false,
      "inputs": [
        {
          "indexed": true,
          "internalType": "address",
          "name": "owner",
          "type": "address"
        },
        {
          "indexed": true,
          "internalType": "address",
          "name": "spender",
          "type": "address"
        },
        {
          "indexed": false,
          "internalType": "uint256",
          "name": "value",
          "type": "uint256"
        }
      ],
      "name": "Approval",
      "type": "event"
    },
    {
      "anonymous": false,
      "inputs": [
        {
          "indexed": true,
          "internalType": "address",
          "name": "beacon",
          "type": "address"
        }
      ],
      "name": "BeaconUpgraded",
      "type": "event"
    },
    {
      "anonymous": false,
      "inputs": [
        {
          "indexed": false,
          "internalType": "uint8",
          "name": "version",
          "type": "uint8"
        }
      ],
      "name": "Initialized",
      "type": "event"
    },
    {
      "anonymous": false,
      "inputs": [
        {
          "indexed": true,
          "internalType": "bytes32",
          "name": "role",
          "type": "bytes32"
        },
        {
          "indexed": true,
          "internalType": "bytes32",
          "name": "previousAdminRole",
          "type": "bytes32"
        },
        {
          "indexed": true,
          "internalType": "bytes32",
          "name": "newAdminRole",
          "type": "bytes32"
        }
      ],
      "name": "RoleAdminChanged",
      "type": "event"
    },
    {
      "anonymous": false,
      "inputs": [
        {
          "indexed": true,
          "internalType": "bytes32",
          "name": "role",
          "type": "bytes32"
        },
        {
          "indexed": true,
          "internalType": "address",
          "name": "account",
          "type": "address"
        },
        {
          "indexed": true,
          "internalType": "address",
          "name": "sender",
          "type": "address"
        }
      ],
      "name": "RoleGranted",
      "type": "event"
    },
    {
      "anonymous": false,
      "inputs": [
        {
          "indexed": true,
          "internalType": "bytes32",
          "name": "role",
          "type": "bytes32"
        },
        {
          "indexed": true,
          "internalType": "address",
          "name": "account",
          "type": "address"
        },
        {
          "indexed": true,
          "internalType": "address",
          "name": "sender",
          "type": "address"
        }
      ],
      "name": "RoleRevoked",
      "type": "event"
    },
    {
      "anonymous": false,
      "inputs": [
        {
          "indexed": true,
          "internalType": "address",
          "name": "from",
          "type": "address"
        },
        {
          "indexed": true,
          "internalType": "address",
          "name": "to",
          "type": "address"
        },
        {
          "indexed": false,
          "internalType": "uint256",
          "name": "value",
          "type": "uint256"
        }
      ],
      "name": "Transfer",
      "type": "event"
    },
    {
      "anonymous": false,
      "inputs": [
        {
          "indexed": true,
          "internalType": "address",
          "name": "implementation",
          "type": "address"
        }
      ],
      "name": "Upgraded",
      "type": "event"
    },
    {
      "inputs": [],
      "name": "ADMIN_ROLE",
      "outputs": [
        {
          "internalType": "bytes32",
          "name": "",
          "type": "bytes32"
        }
      ],
      "stateMutability": "view",
      "type": "function"
    },
    {
      "inputs": [],
      "name": "BURNER_ROLE",
      "outputs": [
        {
          "internalType": "bytes32",
          "name": "",
          "type": "bytes32"
        }
      ],
      "stateMutability": "view",
      "type": "function"
    },
    {
      "inputs": [],
      "name": "DEFAULT_ADMIN_ROLE",
      "outputs": [
        {
          "internalType": "bytes32",
          "name": "",
          "type": "bytes32"
        }
      ],
      "stateMutability": "view",
      "type": "function"
    },
    {
      "inputs": [],
      "name": "DEVOPS_ROLE",
      "outputs": [
        {
          "internalType": "bytes32",
          "name": "",
          "type": "bytes32"
        }
      ],
      "stateMutability": "view",
      "type": "function"
    },
    {
      "inputs": [],
      "name": "INITIALIZER_ROLE",
      "outputs": [
        {
          "internalType": "bytes32",
          "name": "",
          "type": "bytes32"
        }
      ],
      "stateMutability": "view",
      "type": "function"
    },
    {
      "inputs": [],
      "name": "MINTER_ROLE",
      "outputs": [
        {
          "internalType": "bytes32",
          "name": "",
          "type": "bytes32"
        }
      ],
      "stateMutability": "view",
      "type": "function"
    },
    {
      "inputs": [
        {
          "internalType": "address",
          "name": "owner",
          "type": "address"
        },
        {
          "internalType": "address",
          "name": "spender",
          "type": "address"
        }
      ],
      "name": "allowance",
      "outputs": [
        {
          "internalType": "uint256",
          "name": "",
          "type": "uint256"
        }
      ],
      "stateMutability": "view",
      "type": "function"
    },
    {
      "inputs": [
        {
          "internalType": "address",
          "name": "spender",
          "type": "address"
        },
        {
          "internalType": "uint256",
          "name": "amount",
          "type": "uint256"
        }
      ],
      "name": "approve",
      "outputs": [
        {
          "internalType": "bool",
          "name": "",
          "type": "bool"
        }
      ],
      "stateMutability": "nonpayable",
      "type": "function"
    },
    {
      "inputs": [
        {
          "internalType": "address",
          "name": "account",
          "type": "address"
        }
      ],
      "name": "balanceOf",
      "outputs": [
        {
          "internalType": "uint256",
          "name": "",
          "type": "uint256"
        }
      ],
      "stateMutability": "view",
      "type": "function"
    },
    {
      "inputs": [
        {
          "internalType": "address",
          "name": "account",
          "type": "address"
        },
        {
          "internalType": "uint256",
          "name": "amount",
          "type": "uint256"
        }
      ],
      "name": "burn",
      "outputs": [],
      "stateMutability": "nonpayable",
      "type": "function"
    },
    {
      "inputs": [
        {
          "internalType": "address",
          "name": "account",
          "type": "address"
        },
        {
          "internalType": "uint256",
          "name": "amount",
          "type": "uint256"
        }
      ],
      "name": "burnAndReturnValue",
      "outputs": [
        {
          "internalType": "uint256",
          "name": "",
          "type": "uint256"
        }
      ],
      "stateMutability": "nonpayable",
      "type": "function"
    },
    {
      "inputs": [],
      "name": "burningPaused",
      "outputs": [
        {
          "internalType": "bool",
          "name": "",
          "type": "bool"
        }
      ],
      "stateMutability": "view",
      "type": "function"
    },
    {
      "inputs": [],
      "name": "config",
      "outputs": [
        {
          "internalType": "uint256",
          "name": "redemptionTimestamp",
          "type": "uint256"
        },
        {
          "internalType": "address",
          "name": "purchaseToken",
          "type": "address"
        }
      ],
      "stateMutability": "view",
      "type": "function"
    },
    {
      "inputs": [],
      "name": "decimals",
      "outputs": [
        {
          "internalType": "uint8",
          "name": "",
          "type": "uint8"
        }
      ],
      "stateMutability": "view",
      "type": "function"
    },
    {
      "inputs": [
        {
          "internalType": "address",
          "name": "spender",
          "type": "address"
        },
        {
          "internalType": "uint256",
          "name": "subtractedValue",
          "type": "uint256"
        }
      ],
      "name": "decreaseAllowance",
      "outputs": [
        {
          "internalType": "bool",
          "name": "",
          "type": "bool"
        }
      ],
      "stateMutability": "nonpayable",
      "type": "function"
    },
    {
      "inputs": [
        {
          "internalType": "uint256",
          "name": "supplyMinted",
          "type": "uint256"
        }
      ],
      "name": "decrementMintExposureCap",
      "outputs": [],
      "stateMutability": "nonpayable",
      "type": "function"
    },
    {
      "inputs": [
        {
          "internalType": "bytes32",
          "name": "role",
          "type": "bytes32"
        }
      ],
      "name": "getRoleAdmin",
      "outputs": [
        {
          "internalType": "bytes32",
          "name": "",
          "type": "bytes32"
        }
      ],
      "stateMutability": "view",
      "type": "function"
    },
    {
      "inputs": [
        {
          "internalType": "bytes32",
          "name": "role",
          "type": "bytes32"
        },
        {
          "internalType": "address",
          "name": "account",
          "type": "address"
        }
      ],
      "name": "grantRole",
      "outputs": [],
      "stateMutability": "nonpayable",
      "type": "function"
    },
    {
      "inputs": [
        {
          "internalType": "bytes32",
          "name": "role",
          "type": "bytes32"
        },
        {
          "internalType": "address",
          "name": "account",
          "type": "address"
        }
      ],
      "name": "hasRole",
      "outputs": [
        {
          "internalType": "bool",
          "name": "",
          "type": "bool"
        }
      ],
      "stateMutability": "view",
      "type": "function"
    },
    {
      "inputs": [
        {
          "internalType": "address",
          "name": "spender",
          "type": "address"
        },
        {
          "internalType": "uint256",
          "name": "addedValue",
          "type": "uint256"
        }
      ],
      "name": "increaseAllowance",
      "outputs": [
        {
          "internalType": "bool",
          "name": "",
          "type": "bool"
        }
      ],
      "stateMutability": "nonpayable",
      "type": "function"
    },
    {
      "inputs": [
        {
          "internalType": "string",
          "name": "termRepoId_",
          "type": "string"
        },
        {
          "internalType": "string",
          "name": "name_",
          "type": "string"
        },
        {
          "internalType": "string",
          "name": "symbol_",
          "type": "string"
        },
        {
          "internalType": "uint8",
          "name": "decimalPlaces_",
          "type": "uint8"
        },
        {
          "internalType": "uint256",
          "name": "redemptionValue_",
          "type": "uint256"
        },
        {
          "internalType": "uint256",
          "name": "mintExposureCap_",
          "type": "uint256"
        },
        {
          "internalType": "address",
          "name": "termInitializer_",
          "type": "address"
        },
        {
          "components": [
            {
              "internalType": "uint256",
              "name": "redemptionTimestamp",
              "type": "uint256"
            },
            {
              "internalType": "address",
              "name": "purchaseToken",
              "type": "address"
            },
            {
              "internalType": "address[]",
              "name": "collateralTokens",
              "type": "address[]"
            },
            {
              "internalType": "uint256[]",
              "name": "maintenanceCollateralRatios",
              "type": "uint256[]"
            }
          ],
          "internalType": "struct TermRepoTokenConfig",
          "name": "config_",
          "type": "tuple"
        }
      ],
      "name": "initialize",
      "outputs": [],
      "stateMutability": "nonpayable",
      "type": "function"
    },
    {
      "inputs": [],
      "name": "mintExposureCap",
      "outputs": [
        {
          "internalType": "uint256",
          "name": "",
          "type": "uint256"
        }
      ],
      "stateMutability": "view",
      "type": "function"
    },
    {
      "inputs": [
        {
          "internalType": "address",
          "name": "account",
          "type": "address"
        },
        {
          "internalType": "uint256",
          "name": "redemptionAmount",
          "type": "uint256"
        }
      ],
      "name": "mintRedemptionValue",
      "outputs": [
        {
          "internalType": "uint256",
          "name": "",
          "type": "uint256"
        }
      ],
      "stateMutability": "nonpayable",
      "type": "function"
    },
    {
      "inputs": [
        {
          "internalType": "address",
          "name": "account",
          "type": "address"
        },
        {
          "internalType": "uint256",
          "name": "numTokens",
          "type": "uint256"
        }
      ],
      "name": "mintTokens",
      "outputs": [
        {
          "internalType": "uint256",
          "name": "",
          "type": "uint256"
        }
      ],
      "stateMutability": "nonpayable",
      "type": "function"
    },
    {
      "inputs": [],
      "name": "mintingPaused",
      "outputs": [
        {
          "internalType": "bool",
          "name": "",
          "type": "bool"
        }
      ],
      "stateMutability": "view",
      "type": "function"
    },
    {
      "inputs": [],
      "name": "name",
      "outputs": [
        {
          "internalType": "string",
          "name": "",
          "type": "string"
        }
      ],
      "stateMutability": "view",
      "type": "function"
    },
    {
      "inputs": [
        {
          "internalType": "address",
          "name": "termRepoServicer_",
          "type": "address"
        },
        {
          "internalType": "contract ITermEventEmitter",
          "name": "emitter_",
          "type": "address"
        },
        {
          "internalType": "address",
          "name": "devopsMultisig_",
          "type": "address"
        },
        {
          "internalType": "address",
          "name": "adminWallet_",
          "type": "address"
        }
      ],
      "name": "pairTermContracts",
      "outputs": [],
      "stateMutability": "nonpayable",
      "type": "function"
    },
    {
      "inputs": [],
      "name": "pauseBurning",
      "outputs": [],
      "stateMutability": "nonpayable",
      "type": "function"
    },
    {
      "inputs": [],
      "name": "pauseMinting",
      "outputs": [],
      "stateMutability": "nonpayable",
      "type": "function"
    },
    {
      "inputs": [],
      "name": "proxiableUUID",
      "outputs": [
        {
          "internalType": "bytes32",
          "name": "",
          "type": "bytes32"
        }
      ],
      "stateMutability": "view",
      "type": "function"
    },
    {
      "inputs": [],
      "name": "redemptionValue",
      "outputs": [
        {
          "internalType": "uint256",
          "name": "",
          "type": "uint256"
        }
      ],
      "stateMutability": "view",
      "type": "function"
    },
    {
      "inputs": [
        {
          "internalType": "bytes32",
          "name": "role",
          "type": "bytes32"
        },
        {
          "internalType": "address",
          "name": "account",
          "type": "address"
        }
      ],
      "name": "renounceRole",
      "outputs": [],
      "stateMutability": "nonpayable",
      "type": "function"
    },
    {
      "inputs": [
        {
          "internalType": "uint256",
          "name": "mintExposureCap_",
          "type": "uint256"
        }
      ],
      "name": "resetMintExposureCap",
      "outputs": [],
      "stateMutability": "nonpayable",
      "type": "function"
    },
    {
      "inputs": [
        {
          "internalType": "bytes32",
          "name": "role",
          "type": "bytes32"
        },
        {
          "internalType": "address",
          "name": "account",
          "type": "address"
        }
      ],
      "name": "revokeRole",
      "outputs": [],
      "stateMutability": "nonpayable",
      "type": "function"
    },
    {
      "inputs": [
        {
          "internalType": "bytes4",
          "name": "interfaceId",
          "type": "bytes4"
        }
      ],
      "name": "supportsInterface",
      "outputs": [
        {
          "internalType": "bool",
          "name": "",
          "type": "bool"
        }
      ],
      "stateMutability": "view",
      "type": "function"
    },
    {
      "inputs": [],
      "name": "symbol",
      "outputs": [
        {
          "internalType": "string",
          "name": "",
          "type": "string"
        }
      ],
      "stateMutability": "view",
      "type": "function"
    },
    {
      "inputs": [],
      "name": "termRepoId",
      "outputs": [
        {
          "internalType": "bytes32",
          "name": "",
          "type": "bytes32"
        }
      ],
      "stateMutability": "view",
      "type": "function"
    },
    {
      "inputs": [],
      "name": "totalRedemptionValue",
      "outputs": [
        {
          "internalType": "uint256",
          "name": "",
          "type": "uint256"
        }
      ],
      "stateMutability": "view",
      "type": "function"
    },
    {
      "inputs": [],
      "name": "totalSupply",
      "outputs": [
        {
          "internalType": "uint256",
          "name": "",
          "type": "uint256"
        }
      ],
      "stateMutability": "view",
      "type": "function"
    },
    {
      "inputs": [
        {
          "internalType": "address",
          "name": "to",
          "type": "address"
        },
        {
          "internalType": "uint256",
          "name": "amount",
          "type": "uint256"
        }
      ],
      "name": "transfer",
      "outputs": [
        {
          "internalType": "bool",
          "name": "",
          "type": "bool"
        }
      ],
      "stateMutability": "nonpayable",
      "type": "function"
    },
    {
      "inputs": [
        {
          "internalType": "address",
          "name": "from",
          "type": "address"
        },
        {
          "internalType": "address",
          "name": "to",
          "type": "address"
        },
        {
          "internalType": "uint256",
          "name": "amount",
          "type": "uint256"
        }
      ],
      "name": "transferFrom",
      "outputs": [
        {
          "internalType": "bool",
          "name": "",
          "type": "bool"
        }
      ],
      "stateMutability": "nonpayable",
      "type": "function"
    },
    {
      "inputs": [],
      "name": "unpauseBurning",
      "outputs": [],
      "stateMutability": "nonpayable",
      "type": "function"
    },
    {
      "inputs": [],
      "name": "unpauseMinting",
      "outputs": [],
      "stateMutability": "nonpayable",
      "type": "function"
    },
    {
      "inputs": [
        {
          "internalType": "address",
          "name": "upgradeAddress",
          "type": "address"
        }
      ],
      "name": "upgrade",
      "outputs": [],
      "stateMutability": "nonpayable",
      "type": "function"
    },
    {
      "inputs": [
        {
          "internalType": "address",
          "name": "newImplementation",
          "type": "address"
        }
      ],
      "name": "upgradeTo",
      "outputs": [],
      "stateMutability": "nonpayable",
      "type": "function"
    },
    {
      "inputs": [
        {
          "internalType": "address",
          "name": "newImplementation",
          "type": "address"
        },
        {
          "internalType": "bytes",
          "name": "data",
          "type": "bytes"
        }
      ],
      "name": "upgradeToAndCall",
      "outputs": [],
      "stateMutability": "payable",
      "type": "function"
    },
    {
      "inputs": [],
      "name": "version",
      "outputs": [
        {
          "internalType": "string",
          "name": "",
          "type": "string"
        }
      ],
      "stateMutability": "view",
      "type": "function"
    }
  ],
  "bytecode": "0x60a0604052306080523480156200001557600080fd5b506200002062000026565b620000e7565b600054610100900460ff1615620000935760405162461bcd60e51b815260206004820152602760248201527f496e697469616c697a61626c653a20636f6e747261637420697320696e697469604482015266616c697a696e6760c81b606482015260840160405180910390fd5b60005460ff90811614620000e5576000805460ff191660ff9081179091556040519081527f7f26b83ff96e1f2b6a682f133852f6798a09c465da95921460cefb38474024989060200160405180910390a15b565b608051612d7f6200011f60003960008181610ab101528181610af101528181610e1301528181610e530152610ecb0152612d7f6000f3fe6080604052600436106102485760003560e01c8063723f4e2a1161013a578063ae200322116100b1578063ae200322146106e0578063b979dee3146106f5578063cc5b6e4a14610715578063d53913931461072c578063d547741f1461074e578063da8fbf2a1461076e578063dd62ed3e14610783578063e1a283d6146107a3578063ef4474cd146107c4578063f0dda65c146107db578063f59bb446146107fb578063f9e4f0ed1461081b57600080fd5b8063723f4e2a1461055a57806375b238fc1461056f57806379502c5514610591578063833c1d95146105d45780638bef7f5b146105f657806391d148541461061657806395d89b41146106365780639dc29fac1461064b578063a217fddf1461066b578063a457c2d714610680578063a8f421c2146106a0578063a9059cbb146106c057600080fd5b8063282c51f3116101ce578063282c51f3146103ce5780632f2ff15d146103f0578063313ce5671461041057806336568abe146104335780633659cfe61461045357806338b616c11461047357806339509351146104885780634be1e2a4146104a85780634f1ef286146104c857806352d1902d146104db57806354fd4d50146104f057806370a082311461052457600080fd5b806301ffc9a71461024d578063056824de14610282578063059cbd9b146102a457806306fdde03146102b95780630900f010146102db578063095ea7b3146102fb57806318160ddd1461031b578063201a66251461033a57806323b872dd1461035c578063248a9ca31461037c57806327df3d3e146103ac575b600080fd5b34801561025957600080fd5b5061026d6102683660046122e3565b610832565b60405190151581526020015b60405180910390f35b34801561028e57600080fd5b506102a261029d36600461230d565b610869565b005b3480156102b057600080fd5b506102a2610888565b3480156102c557600080fd5b506102ce610920565b604051610279919061234a565b3480156102e757600080fd5b506102a26102f63660046123a2565b6109b2565b34801561030757600080fd5b5061026d6103163660046123bf565b6109be565b34801561032757600080fd5b506035545b604051908152602001610279565b34801561034657600080fd5b5061032c600080516020612c6383398151915281565b34801561036857600080fd5b5061026d6103773660046123eb565b6109d6565b34801561038857600080fd5b5061032c61039736600461230d565b600090815260fb602052604090206001015490565b3480156103b857600080fd5b5061032c600080516020612c8383398151915281565b3480156103da57600080fd5b5061032c600080516020612c4383398151915281565b3480156103fc57600080fd5b506102a261040b36600461242c565b6109fa565b34801561041c57600080fd5b5061012d5460405160ff9091168152602001610279565b34801561043f57600080fd5b506102a261044e36600461242c565b610a24565b34801561045f57600080fd5b506102a261046e3660046123a2565b610aa7565b34801561047f57600080fd5b506102a2610b6c565b34801561049457600080fd5b5061026d6104a33660046123bf565b610bc9565b3480156104b457600080fd5b506102a26104c33660046124cd565b610beb565b6102a26104d63660046125d7565b610e09565b3480156104e757600080fd5b5061032c610ebe565b3480156104fc57600080fd5b5060408051808201909152600b81526a19195d995b1bdc1b595b9d60aa1b60208201526102ce565b34801561053057600080fd5b5061032c61053f3660046123a2565b6001600160a01b031660009081526033602052604090205490565b34801561056657600080fd5b5061032c610f6c565b34801561057b57600080fd5b5061032c600080516020612d2a83398151915281565b34801561059d57600080fd5b5061013154610132546105b791906001600160a01b031682565b604080519283526001600160a01b03909116602083015201610279565b3480156105e057600080fd5b5061012d5461026d906301000000900460ff1681565b34801561060257600080fd5b5061032c6106113660046123bf565b610fb9565b34801561062257600080fd5b5061026d61063136600461242c565b611052565b34801561064257600080fd5b506102ce61107d565b34801561065757600080fd5b506102a26106663660046123bf565b61108c565b34801561067757600080fd5b5061032c600081565b34801561068c57600080fd5b5061026d61069b3660046123bf565b6110f7565b3480156106ac57600080fd5b506102a26106bb36600461269a565b611172565b3480156106cc57600080fd5b5061026d6106db3660046123bf565b6112bc565b3480156106ec57600080fd5b506102a26112ca565b34801561070157600080fd5b506102a261071036600461230d565b611326565b34801561072157600080fd5b5061032c61012f5481565b34801561073857600080fd5b5061032c600080516020612cea83398151915281565b34801561075a57600080fd5b506102a261076936600461242c565b61137e565b34801561077a57600080fd5b506102a26113a3565b34801561078f57600080fd5b5061032c61079e3660046126f6565b611404565b3480156107af57600080fd5b5061012d5461026d9062010000900460ff1681565b3480156107d057600080fd5b5061032c61012e5481565b3480156107e757600080fd5b5061032c6107f63660046123bf565b61142f565b34801561080757600080fd5b5061032c6108163660046123bf565b6114af565b34801561082757600080fd5b5061032c6101305481565b60006001600160e01b03198216637965db0b60e01b148061086357506301ffc9a760e01b6001600160e01b03198316145b92915050565b600080516020612d2a83398151915261088181611540565b5061013055565b600080516020612d2a8339815191526108a081611540565b61012d805463ff000000191663010000001790556101355461012f54604051630954cf0360e01b81526001600160a01b0390921691630954cf03916108eb9160040190815260200190565b600060405180830381600087803b15801561090557600080fd5b505af1158015610919573d6000803e3d6000fd5b5050505050565b60606036805461092f90612724565b80601f016020809104026020016040519081016040528092919081815260200182805461095b90612724565b80156109a85780601f1061097d576101008083540402835291602001916109a8565b820191906000526020600020905b81548152906001019060200180831161098b57829003601f168201915b5050505050905090565b6109bb8161154a565b50565b6000336109cc8185856115cc565b5060019392505050565b6000336109e48582856116f0565b6109ef85858561176a565b506001949350505050565b600082815260fb6020526040902060010154610a1581611540565b610a1f8383611903565b505050565b6001600160a01b0381163314610a995760405162461bcd60e51b815260206004820152602f60248201527f416363657373436f6e74726f6c3a2063616e206f6e6c792072656e6f756e636560448201526e103937b632b9903337b91039b2b63360891b60648201526084015b60405180910390fd5b610aa38282611989565b5050565b6001600160a01b037f0000000000000000000000000000000000000000000000000000000000000000163003610aef5760405162461bcd60e51b8152600401610a9090612758565b7f00000000000000000000000000000000000000000000000000000000000000006001600160a01b0316610b216119f0565b6001600160a01b031614610b475760405162461bcd60e51b8152600401610a90906127a4565b610b508161154a565b604080516000808252602082019092526109bb91839190611a0c565b600080516020612d2a833981519152610b8481611540565b61012d805463ff000000191690556101355461012f5460405163b29aaf7560e01b81526001600160a01b039092169163b29aaf75916108eb9160040190815260200190565b6000336109cc818585610bdc8383611404565b610be69190612806565b6115cc565b600054610100900460ff1615808015610c0b5750600054600160ff909116105b80610c2c5750610c1a30611b77565b158015610c2c575060005460ff166001145b610c8f5760405162461bcd60e51b815260206004820152602e60248201527f496e697469616c697a61626c653a20636f6e747261637420697320616c72656160448201526d191e481a5b9a5d1a585b1a5e995960921b6064820152608401610a90565b6000805460ff191660011790558015610cb2576000805461ff0019166101001790555b610d258a8a8080601f01602080910402602001604051908101604052809392919081815260200183838082843760009201919091525050604080516020601f8e018190048102820181019092528c815292508c91508b9081908401838280828437600092019190915250611b8692505050565b610d2d611bb7565b610d35611bb7565b610d4d600080516020612c8383398151915284611903565b61012d805460ff191660ff881617905561012e85905581610131610d71828261291a565b5050604051610d86908d908d906020016129e9565b60408051601f19818403018152919052805160209091012061012f5561013084905561012d805462ffff00191690558015610dfb576000805461ff0019169055604051600181527f7f26b83ff96e1f2b6a682f133852f6798a09c465da95921460cefb38474024989060200160405180910390a15b505050505050505050505050565b6001600160a01b037f0000000000000000000000000000000000000000000000000000000000000000163003610e515760405162461bcd60e51b8152600401610a9090612758565b7f00000000000000000000000000000000000000000000000000000000000000006001600160a01b0316610e836119f0565b6001600160a01b031614610ea95760405162461bcd60e51b8152600401610a90906127a4565b610eb28261154a565b610aa382826001611a0c565b6000306001600160a01b037f00000000000000000000000000000000000000000000000000000000000000001614610f595760405162461bcd60e51b815260206004820152603860248201527f555550535570677261646561626c653a206d757374206e6f742062652063616c6044820152771b1959081d1a1c9bdd59da0819195b1959d85d1958d85b1b60421b6064820152608401610a90565b50600080516020612ca383398151915290565b600080610863610fb46040518060200160405280670de0b6b3a7640000610f9260355490565b610f9c9190612862565b9052604080516020810190915261012e548152611be0565b611c28565b61012d5460009062010000900460ff1615610fe757604051636864195160e01b815260040160405180910390fd5b600080516020612cea833981519152610fff81611540565b600061103e610fb46040518060200160405280670de0b6b3a7640000886110269190612862565b9052604080516020810190915261012e548152611c40565b905061104a8582611c7a565b949350505050565b600091825260fb602090815260408084206001600160a01b0393909316845291905290205460ff1690565b60606037805461092f90612724565b600080516020612c438339815191526110a481611540565b61012d546301000000900460ff16156110d05760405163c76a6dcb60e01b815260040160405180910390fd5b6110da8383611d29565b8161013060008282546110ed9190612806565b9091555050505050565b600033816111058286611404565b9050838110156111655760405162461bcd60e51b815260206004820152602560248201527f45524332303a2064656372656173656420616c6c6f77616e63652062656c6f77604482015264207a65726f60d81b6064820152608401610a90565b6109ef82868684036115cc565b600080516020612c8383398151915261118a81611540565b61012d54610100900460ff16156111b457604051634ce377bb60e11b815260040160405180910390fd5b61012d805461ff00191661010017905561013580546001600160a01b0386166001600160a01b03199091161790556111fa600080516020612d2a83398151915283611903565b611212600080516020612cea83398151915286611903565b61122a600080516020612c4383398151915286611903565b611242600080516020612c6383398151915284611903565b6101355461012f5461012e546040516327481ec760e21b8152600481019290925230602483015260448201526001600160a01b0390911690639d207b1c90606401600060405180830381600087803b15801561129d57600080fd5b505af11580156112b1573d6000803e3d6000fd5b505050505050505050565b6000336109cc81858561176a565b600080516020612d2a8339815191526112e281611540565b61012d805462ff0000191690556101355461012f54604051631d04a79b60e11b81526001600160a01b0390921691633a094f36916108eb9160040190815260200190565b600080516020612cea83398151915261133e81611540565b6101305482111561136257604051632e8a972b60e11b815260040160405180910390fd5b81610130600082825461137591906129f9565b90915550505050565b600082815260fb602052604090206001015461139981611540565b610a1f8383611989565b600080516020612d2a8339815191526113bb81611540565b61012d805462ff00001916620100001790556101355461012f54604051630e06d05360e21b81526001600160a01b039092169163381b414c916108eb9160040190815260200190565b6001600160a01b03918216600090815260346020908152604080832093909416825291909152205490565b61012d5460009062010000900460ff161561145d57604051636864195160e01b815260040160405180910390fd5b600080516020612cea83398151915261147581611540565b61147f8484611c7a565b60006114a6610fb46040518060200160405280670de0b6b3a764000088610f9c9190612862565b95945050505050565b6000600080516020612c438339815191526114c981611540565b61012d546301000000900460ff16156114f55760405163c76a6dcb60e01b815260040160405180910390fd5b6114ff8484611d29565b8261013060008282546115129190612806565b9250508190555060006114a6610fb46040518060200160405280670de0b6b3a764000088610f9c9190612862565b6109bb8133611e4b565b600080516020612c6383398151915261156281611540565b6101355460405163b3c2d50b60e01b81523060048201526001600160a01b0384811660248301529091169063b3c2d50b90604401600060405180830381600087803b1580156115b057600080fd5b505af11580156115c4573d6000803e3d6000fd5b505050505050565b6001600160a01b03831661162e5760405162461bcd60e51b8152602060048201526024808201527f45524332303a20617070726f76652066726f6d20746865207a65726f206164646044820152637265737360e01b6064820152608401610a90565b6001600160a01b03821661168f5760405162461bcd60e51b815260206004820152602260248201527f45524332303a20617070726f766520746f20746865207a65726f206164647265604482015261737360f01b6064820152608401610a90565b6001600160a01b0383811660008181526034602090815260408083209487168084529482529182902085905590518481527f8c5be1e5ebec7d5bd14f71427d1e84f3dd0314c0f7b2291e5b200ac8c7c3b925910160405180910390a3505050565b60006116fc8484611404565b9050600019811461176457818110156117575760405162461bcd60e51b815260206004820152601d60248201527f45524332303a20696e73756666696369656e7420616c6c6f77616e63650000006044820152606401610a90565b61176484848484036115cc565b50505050565b6001600160a01b0383166117ce5760405162461bcd60e51b815260206004820152602560248201527f45524332303a207472616e736665722066726f6d20746865207a65726f206164604482015264647265737360d81b6064820152608401610a90565b6001600160a01b0382166118305760405162461bcd60e51b815260206004820152602360248201527f45524332303a207472616e7366657220746f20746865207a65726f206164647260448201526265737360e81b6064820152608401610a90565b6001600160a01b038316600090815260336020526040902054818110156118a85760405162461bcd60e51b815260206004820152602660248201527f45524332303a207472616e7366657220616d6f756e7420657863656564732062604482015265616c616e636560d01b6064820152608401610a90565b6001600160a01b038085166000818152603360205260408082208686039055928616808252908390208054860190559151600080516020612d0a833981519152906118f69086815260200190565b60405180910390a3611764565b61190d8282611052565b610aa357600082815260fb602090815260408083206001600160a01b03851684529091529020805460ff191660011790556119453390565b6001600160a01b0316816001600160a01b0316837f2f8788117e7eff1d82e926ec794901d17c78024a50270940304540a733656f0d60405160405180910390a45050565b6119938282611052565b15610aa357600082815260fb602090815260408083206001600160a01b0385168085529252808320805460ff1916905551339285917ff6391f5c32d9c69d2a47ea670b442974b53935d1edc7fd64eb21e047a839171b9190a45050565b600080516020612ca3833981519152546001600160a01b031690565b7f4910fdfa16fed3260ed0e7147f7cc6da11a60208b5b9406d12a635614ffd91435460ff1615611a3f57610a1f83611ea4565b826001600160a01b03166352d1902d6040518163ffffffff1660e01b8152600401602060405180830381865afa925050508015611a99575060408051601f3d908101601f19168201909252611a9691810190612a0c565b60015b611afc5760405162461bcd60e51b815260206004820152602e60248201527f45524331393637557067726164653a206e657720696d706c656d656e7461746960448201526d6f6e206973206e6f74205555505360901b6064820152608401610a90565b600080516020612ca38339815191528114611b6b5760405162461bcd60e51b815260206004820152602960248201527f45524331393637557067726164653a20756e737570706f727465642070726f786044820152681a58589b195555525160ba1b6064820152608401610a90565b50610a1f838383611f3e565b6001600160a01b03163b151590565b600054610100900460ff16611bad5760405162461bcd60e51b8152600401610a9090612a25565b610aa38282611f63565b600054610100900460ff16611bde5760405162461bcd60e51b8152600401610a9090612a25565b565b6040805160208101909152600081526040518060200160405280670de0b6b3a7640000611c1586600001518660000151611fa3565b611c1f9190612a70565b90529392505050565b805160009061086390670de0b6b3a764000090612a70565b6040805160208101909152600081526040518060200160405280611c1f611c738660000151670de0b6b3a7640000611fa3565b8551611fb6565b6001600160a01b038216611cd05760405162461bcd60e51b815260206004820152601f60248201527f45524332303a206d696e7420746f20746865207a65726f2061646472657373006044820152606401610a90565b8060356000828254611ce29190612806565b90915550506001600160a01b038216600081815260336020908152604080832080548601905551848152600080516020612d0a833981519152910160405180910390a35050565b6001600160a01b038216611d895760405162461bcd60e51b815260206004820152602160248201527f45524332303a206275726e2066726f6d20746865207a65726f206164647265736044820152607360f81b6064820152608401610a90565b6001600160a01b03821660009081526033602052604090205481811015611dfd5760405162461bcd60e51b815260206004820152602260248201527f45524332303a206275726e20616d6f756e7420657863656564732062616c616e604482015261636560f01b6064820152608401610a90565b6001600160a01b0383166000818152603360209081526040808320868603905560358054879003905551858152919291600080516020612d0a833981519152910160405180910390a3505050565b611e558282611052565b610aa357611e6281611fc2565b611e6d836020611fd4565b604051602001611e7e929190612a92565b60408051601f198184030181529082905262461bcd60e51b8252610a909160040161234a565b611ead81611b77565b611f0f5760405162461bcd60e51b815260206004820152602d60248201527f455243313936373a206e657720696d706c656d656e746174696f6e206973206e60448201526c1bdd08184818dbdb9d1c9858dd609a1b6064820152608401610a90565b600080516020612ca383398151915280546001600160a01b0319166001600160a01b0392909216919091179055565b611f478361216f565b600082511180611f545750805b15610a1f5761176483836121af565b600054610100900460ff16611f8a5760405162461bcd60e51b8152600401610a9090612a25565b6036611f968382612b3a565b506037610a1f8282612b3a565b6000611faf8284612862565b9392505050565b6000611faf8284612a70565b60606108636001600160a01b03831660145b60606000611fe3836002612862565b611fee906002612806565b6001600160401b03811115612005576120056125c1565b6040519080825280601f01601f19166020018201604052801561202f576020820181803683370190505b509050600360fc1b8160008151811061204a5761204a612bf9565b60200101906001600160f81b031916908160001a905350600f60fb1b8160018151811061207957612079612bf9565b60200101906001600160f81b031916908160001a905350600061209d846002612862565b6120a8906001612806565b90505b6001811115612120576f181899199a1a9b1b9c1cb0b131b232b360811b85600f16601081106120dc576120dc612bf9565b1a60f81b8282815181106120f2576120f2612bf9565b60200101906001600160f81b031916908160001a90535060049490941c9361211981612c0f565b90506120ab565b508315611faf5760405162461bcd60e51b815260206004820181905260248201527f537472696e67733a20686578206c656e67746820696e73756666696369656e746044820152606401610a90565b61217881611ea4565b6040516001600160a01b038216907fbc7cd75a20ee27fd9adebab32041f755214dbc6bffa90cc0225b39da2e5c2d3b90600090a250565b6060611faf8383604051806060016040528060278152602001612cc3602791396060600080856001600160a01b0316856040516121ec9190612c26565b600060405180830381855af49150503d8060008114612227576040519150601f19603f3d011682016040523d82523d6000602084013e61222c565b606091505b509150915061223d86838387612247565b9695505050505050565b606083156122b45782516000036122ad5761226185611b77565b6122ad5760405162461bcd60e51b815260206004820152601d60248201527f416464726573733a2063616c6c20746f206e6f6e2d636f6e74726163740000006044820152606401610a90565b508161104a565b61104a83838151156122c95781518083602001fd5b8060405162461bcd60e51b8152600401610a90919061234a565b6000602082840312156122f557600080fd5b81356001600160e01b031981168114611faf57600080fd5b60006020828403121561231f57600080fd5b5035919050565b60005b83811015612341578181015183820152602001612329565b50506000910152565b6020815260008251806020840152612369816040850160208701612326565b601f01601f19169190910160400192915050565b6001600160a01b03811681146109bb57600080fd5b803561239d8161237d565b919050565b6000602082840312156123b457600080fd5b8135611faf8161237d565b600080604083850312156123d257600080fd5b82356123dd8161237d565b946020939093013593505050565b60008060006060848603121561240057600080fd5b833561240b8161237d565b9250602084013561241b8161237d565b929592945050506040919091013590565b6000806040838503121561243f57600080fd5b8235915060208301356124518161237d565b809150509250929050565b60008083601f84011261246e57600080fd5b5081356001600160401b0381111561248557600080fd5b60208301915083602082850101111561249d57600080fd5b9250929050565b803560ff8116811461239d57600080fd5b6000608082840312156124c757600080fd5b50919050565b60008060008060008060008060008060006101008c8e0312156124ef57600080fd5b6001600160401b03808d35111561250557600080fd5b6125128e8e358f0161245c565b909c509a5060208d013581101561252857600080fd5b6125388e60208f01358f0161245c565b909a50985060408d013581101561254e57600080fd5b61255e8e60408f01358f0161245c565b909850965061256f60608e016124a4565b955060808d0135945060a08d0135935061258b60c08e01612392565b92508060e08e0135111561259e57600080fd5b506125af8d60e08e01358e016124b5565b90509295989b509295989b9093969950565b634e487b7160e01b600052604160045260246000fd5b600080604083850312156125ea57600080fd5b82356125f58161237d565b915060208301356001600160401b038082111561261157600080fd5b818501915085601f83011261262557600080fd5b813581811115612637576126376125c1565b604051601f8201601f19908116603f0116810190838211818310171561265f5761265f6125c1565b8160405282815288602084870101111561267857600080fd5b8260208601602083013760006020848301015280955050505050509250929050565b600080600080608085870312156126b057600080fd5b84356126bb8161237d565b935060208501356126cb8161237d565b925060408501356126db8161237d565b915060608501356126eb8161237d565b939692955090935050565b6000806040838503121561270957600080fd5b82356127148161237d565b915060208301356124518161237d565b600181811c9082168061273857607f821691505b6020821081036124c757634e487b7160e01b600052602260045260246000fd5b6020808252602c908201527f46756e6374696f6e206d7573742062652063616c6c6564207468726f7567682060408201526b19195b1959d85d1958d85b1b60a21b606082015260800190565b6020808252602c908201527f46756e6374696f6e206d7573742062652063616c6c6564207468726f7567682060408201526b6163746976652070726f787960a01b606082015260800190565b634e487b7160e01b600052601160045260246000fd5b80820180821115610863576108636127f0565b6000808335601e1984360301811261283057600080fd5b8301803591506001600160401b0382111561284a57600080fd5b6020019150600581901b360382131561249d57600080fd5b8082028115828204841417610863576108636127f0565b5b81811015610aa3576000815560010161287a565b81831015610a1f57806000526020600020611764838201858301612879565b6001600160401b038311156128c4576128c46125c1565b600160401b8311156128d8576128d86125c1565b80548382556128e884828461288e565b50818160005260208060002060005b8681101561291157833582820155928201926001016128f7565b50505050505050565b8135815560018082016020808501356129328161237d565b82546001600160a01b0319166001600160a01b03919091161790915560028301906129606040860186612819565b6001600160401b03811115612977576129776125c1565b600160401b81111561298b5761298b6125c1565b835481855561299b82828761288e565b506000938452828420935b818110156129c85782356129b98161237d565b858201559183019185016129a6565b5050505050506129db6060830183612819565b6117648183600386016128ad565b8183823760009101908152919050565b81810381811115610863576108636127f0565b600060208284031215612a1e57600080fd5b5051919050565b6020808252602b908201527f496e697469616c697a61626c653a20636f6e7472616374206973206e6f74206960408201526a6e697469616c697a696e6760a81b606082015260800190565b600082612a8d57634e487b7160e01b600052601260045260246000fd5b500490565b76020b1b1b2b9b9a1b7b73a3937b61d1030b1b1b7bab73a1604d1b815260008351612ac4816017850160208801612326565b7001034b99036b4b9b9b4b733903937b6329607d1b6017918401918201528351612af5816028840160208801612326565b01602801949350505050565b601f821115610a1f57806000526020600020601f840160051c81016020851015612b285750805b610919601f850160051c830182612879565b81516001600160401b03811115612b5357612b536125c1565b612b6781612b618454612724565b84612b01565b602080601f831160018114612b9c5760008415612b845750858301515b600019600386901b1c1916600185901b1785556115c4565b600085815260208120601f198616915b82811015612bcb57888601518255948401946001909101908401612bac565b5085821015612be95787850151600019600388901b60f8161c191681555b5050505050600190811b01905550565b634e487b7160e01b600052603260045260246000fd5b600081612c1e57612c1e6127f0565b506000190190565b60008251612c38818460208701612326565b919091019291505056fe3c11d16cbaffd01df69ce1c404f6340ee057498f5f00246190ea54220576a848793a6c9b7e0a9549c74edc2f9ae0dc50903dfaa9a56fb0116b27a8c71de3e2c630d41a597cac127d8249d31298b50e481ee82c3f4a49ff93c76a22735aa9f3ad360894a13ba1a3210667c828492db98dca3e2076cc3735a920a3ca505d382bbc416464726573733a206c6f772d6c6576656c2064656c65676174652063616c6c206661696c65649f2df0fed2c77648de5860a4cc508cd0818c85b8b8a1ab4ceeef8d981c8956a6ddf252ad1be2c89b69c2b068fc378daa952ba7f163c4a11628f55a4df523b3efa49807205ce4d355092ef5a8a18f56e8913cf4a201fbe287825b095693c21775a2646970667358221220468fac830930ba9d583582013143e7d0a9e420bb3ef8eb77809177b726c558ac64736f6c63430008120033",
  "linkReferences": {},
  "deployedLinkReferences": {}
}