{
  "_format": "hh-sol-artifact-1",
  "contractName": "TestTermRepoToken",
  "sourceName": "contracts/test/TestTermRepoToken.sol",
  "abi": [
    {
      "inputs": [],
      "name": "AccessControlBadConfirmation",
      "type": "error"
    },
    {
      "inputs": [
        {
          "internalType": "address",
          "name": "account",
          "type": "address"
        },
        {
          "internalType": "bytes32",
          "name": "neededRole",
          "type": "bytes32"
        }
      ],
      "name": "AccessControlUnauthorizedAccount",
      "type": "error"
    },
    {
      "inputs": [
        {
          "internalType": "address",
          "name": "target",
          "type": "address"
        }
      ],
      "name": "AddressEmptyCode",
      "type": "error"
    },
    {
      "inputs": [],
      "name": "AlreadyTermContractPaired",
      "type": "error"
    },
    {
      "inputs": [],
      "name": "ECDSAInvalidSignature",
      "type": "error"
    },
    {
      "inputs": [
        {
          "internalType": "uint256",
          "name": "length",
          "type": "uint256"
        }
      ],
      "name": "ECDSAInvalidSignatureLength",
      "type": "error"
    },
    {
      "inputs": [
        {
          "internalType": "bytes32",
          "name": "s",
          "type": "bytes32"
        }
      ],
      "name": "ECDSAInvalidSignatureS",
      "type": "error"
    },
    {
      "inputs": [
        {
          "internalType": "address",
          "name": "implementation",
          "type": "address"
        }
      ],
      "name": "ERC1967InvalidImplementation",
      "type": "error"
    },
    {
      "inputs": [],
      "name": "ERC1967NonPayable",
      "type": "error"
    },
    {
      "inputs": [
        {
          "internalType": "address",
          "name": "spender",
          "type": "address"
        },
        {
          "internalType": "uint256",
          "name": "allowance",
          "type": "uint256"
        },
        {
          "internalType": "uint256",
          "name": "needed",
          "type": "uint256"
        }
      ],
      "name": "ERC20InsufficientAllowance",
      "type": "error"
    },
    {
      "inputs": [
        {
          "internalType": "address",
          "name": "sender",
          "type": "address"
        },
        {
          "internalType": "uint256",
          "name": "balance",
          "type": "uint256"
        },
        {
          "internalType": "uint256",
          "name": "needed",
          "type": "uint256"
        }
      ],
      "name": "ERC20InsufficientBalance",
      "type": "error"
    },
    {
      "inputs": [
        {
          "internalType": "address",
          "name": "approver",
          "type": "address"
        }
      ],
      "name": "ERC20InvalidApprover",
      "type": "error"
    },
    {
      "inputs": [
        {
          "internalType": "address",
          "name": "receiver",
          "type": "address"
        }
      ],
      "name": "ERC20InvalidReceiver",
      "type": "error"
    },
    {
      "inputs": [
        {
          "internalType": "address",
          "name": "sender",
          "type": "address"
        }
      ],
      "name": "ERC20InvalidSender",
      "type": "error"
    },
    {
      "inputs": [
        {
          "internalType": "address",
          "name": "spender",
          "type": "address"
        }
      ],
      "name": "ERC20InvalidSpender",
      "type": "error"
    },
    {
      "inputs": [
        {
          "internalType": "uint256",
          "name": "deadline",
          "type": "uint256"
        }
      ],
      "name": "ERC2612ExpiredSignature",
      "type": "error"
    },
    {
      "inputs": [
        {
          "internalType": "address",
          "name": "signer",
          "type": "address"
        },
        {
          "internalType": "address",
          "name": "owner",
          "type": "address"
        }
      ],
      "name": "ERC2612InvalidSigner",
      "type": "error"
    },
    {
      "inputs": [],
      "name": "FailedCall",
      "type": "error"
    },
    {
      "inputs": [
        {
          "internalType": "address",
          "name": "account",
          "type": "address"
        },
        {
          "internalType": "uint256",
          "name": "currentNonce",
          "type": "uint256"
        }
      ],
      "name": "InvalidAccountNonce",
      "type": "error"
    },
    {
      "inputs": [],
      "name": "InvalidInitialization",
      "type": "error"
    },
    {
      "inputs": [],
      "name": "MintExposureCapExceeded",
      "type": "error"
    },
    {
      "inputs": [],
      "name": "NotInitializing",
      "type": "error"
    },
    {
      "inputs": [],
      "name": "TermContractsPaused",
      "type": "error"
    },
    {
      "inputs": [],
      "name": "TermRepoTokenBurningPaused",
      "type": "error"
    },
    {
      "inputs": [],
      "name": "TermRepoTokenMintingPaused",
      "type": "error"
    },
    {
      "inputs": [],
      "name": "UUPSUnauthorizedCallContext",
      "type": "error"
    },
    {
      "inputs": [
        {
          "internalType": "bytes32",
          "name": "slot",
          "type": "bytes32"
        }
      ],
      "name": "UUPSUnsupportedProxiableUUID",
      "type": "error"
    },
    {
      "anonymous": false,
      "inputs": [
        {
          "indexed": true,
          "internalType": "address",
          "name": "owner",
          "type": "address"
        },
        {
          "indexed": true,
          "internalType": "address",
          "name": "spender",
          "type": "address"
        },
        {
          "indexed": false,
          "internalType": "uint256",
          "name": "value",
          "type": "uint256"
        }
      ],
      "name": "Approval",
      "type": "event"
    },
    {
      "anonymous": false,
      "inputs": [],
      "name": "EIP712DomainChanged",
      "type": "event"
    },
    {
      "anonymous": false,
      "inputs": [
        {
          "indexed": false,
          "internalType": "uint64",
          "name": "version",
          "type": "uint64"
        }
      ],
      "name": "Initialized",
      "type": "event"
    },
    {
      "anonymous": false,
      "inputs": [
        {
          "indexed": true,
          "internalType": "bytes32",
          "name": "role",
          "type": "bytes32"
        },
        {
          "indexed": true,
          "internalType": "bytes32",
          "name": "previousAdminRole",
          "type": "bytes32"
        },
        {
          "indexed": true,
          "internalType": "bytes32",
          "name": "newAdminRole",
          "type": "bytes32"
        }
      ],
      "name": "RoleAdminChanged",
      "type": "event"
    },
    {
      "anonymous": false,
      "inputs": [
        {
          "indexed": true,
          "internalType": "bytes32",
          "name": "role",
          "type": "bytes32"
        },
        {
          "indexed": true,
          "internalType": "address",
          "name": "account",
          "type": "address"
        },
        {
          "indexed": true,
          "internalType": "address",
          "name": "sender",
          "type": "address"
        }
      ],
      "name": "RoleGranted",
      "type": "event"
    },
    {
      "anonymous": false,
      "inputs": [
        {
          "indexed": true,
          "internalType": "bytes32",
          "name": "role",
          "type": "bytes32"
        },
        {
          "indexed": true,
          "internalType": "address",
          "name": "account",
          "type": "address"
        },
        {
          "indexed": true,
          "internalType": "address",
          "name": "sender",
          "type": "address"
        }
      ],
      "name": "RoleRevoked",
      "type": "event"
    },
    {
      "anonymous": false,
      "inputs": [
        {
          "indexed": true,
          "internalType": "address",
          "name": "from",
          "type": "address"
        },
        {
          "indexed": true,
          "internalType": "address",
          "name": "to",
          "type": "address"
        },
        {
          "indexed": false,
          "internalType": "uint256",
          "name": "value",
          "type": "uint256"
        }
      ],
      "name": "Transfer",
      "type": "event"
    },
    {
      "anonymous": false,
      "inputs": [
        {
          "indexed": true,
          "internalType": "address",
          "name": "implementation",
          "type": "address"
        }
      ],
      "name": "Upgraded",
      "type": "event"
    },
    {
      "inputs": [],
      "name": "ADMIN_ROLE",
      "outputs": [
        {
          "internalType": "bytes32",
          "name": "",
          "type": "bytes32"
        }
      ],
      "stateMutability": "view",
      "type": "function"
    },
    {
      "inputs": [],
      "name": "BURNER_ROLE",
      "outputs": [
        {
          "internalType": "bytes32",
          "name": "",
          "type": "bytes32"
        }
      ],
      "stateMutability": "view",
      "type": "function"
    },
    {
      "inputs": [],
      "name": "DEFAULT_ADMIN_ROLE",
      "outputs": [
        {
          "internalType": "bytes32",
          "name": "",
          "type": "bytes32"
        }
      ],
      "stateMutability": "view",
      "type": "function"
    },
    {
      "inputs": [],
      "name": "DEVOPS_ROLE",
      "outputs": [
        {
          "internalType": "bytes32",
          "name": "",
          "type": "bytes32"
        }
      ],
      "stateMutability": "view",
      "type": "function"
    },
    {
      "inputs": [],
      "name": "DOMAIN_SEPARATOR",
      "outputs": [
        {
          "internalType": "bytes32",
          "name": "",
          "type": "bytes32"
        }
      ],
      "stateMutability": "view",
      "type": "function"
    },
    {
      "inputs": [],
      "name": "INITIALIZER_ROLE",
      "outputs": [
        {
          "internalType": "bytes32",
          "name": "",
          "type": "bytes32"
        }
      ],
      "stateMutability": "view",
      "type": "function"
    },
    {
      "inputs": [],
      "name": "MINTER_ROLE",
      "outputs": [
        {
          "internalType": "bytes32",
          "name": "",
          "type": "bytes32"
        }
      ],
      "stateMutability": "view",
      "type": "function"
    },
    {
      "inputs": [],
      "name": "UPGRADE_INTERFACE_VERSION",
      "outputs": [
        {
          "internalType": "string",
          "name": "",
          "type": "string"
        }
      ],
      "stateMutability": "view",
      "type": "function"
    },
    {
      "inputs": [
        {
          "internalType": "address",
          "name": "owner",
          "type": "address"
        },
        {
          "internalType": "address",
          "name": "spender",
          "type": "address"
        }
      ],
      "name": "allowance",
      "outputs": [
        {
          "internalType": "uint256",
          "name": "",
          "type": "uint256"
        }
      ],
      "stateMutability": "view",
      "type": "function"
    },
    {
      "inputs": [
        {
          "internalType": "address",
          "name": "spender",
          "type": "address"
        },
        {
          "internalType": "uint256",
          "name": "value",
          "type": "uint256"
        }
      ],
      "name": "approve",
      "outputs": [
        {
          "internalType": "bool",
          "name": "",
          "type": "bool"
        }
      ],
      "stateMutability": "nonpayable",
      "type": "function"
    },
    {
      "inputs": [
        {
          "internalType": "address",
          "name": "account",
          "type": "address"
        }
      ],
      "name": "balanceOf",
      "outputs": [
        {
          "internalType": "uint256",
          "name": "",
          "type": "uint256"
        }
      ],
      "stateMutability": "view",
      "type": "function"
    },
    {
      "inputs": [
        {
          "internalType": "address",
          "name": "account",
          "type": "address"
        },
        {
          "internalType": "uint256",
          "name": "amount",
          "type": "uint256"
        }
      ],
      "name": "burn",
      "outputs": [],
      "stateMutability": "nonpayable",
      "type": "function"
    },
    {
      "inputs": [
        {
          "internalType": "address",
          "name": "account",
          "type": "address"
        },
        {
          "internalType": "uint256",
          "name": "amount",
          "type": "uint256"
        }
      ],
      "name": "burnAndReturnValue",
      "outputs": [
        {
          "internalType": "uint256",
          "name": "",
          "type": "uint256"
        }
      ],
      "stateMutability": "nonpayable",
      "type": "function"
    },
    {
      "inputs": [],
      "name": "burningPaused",
      "outputs": [
        {
          "internalType": "bool",
          "name": "",
          "type": "bool"
        }
      ],
      "stateMutability": "view",
      "type": "function"
    },
    {
      "inputs": [],
      "name": "config",
      "outputs": [
        {
          "internalType": "uint256",
          "name": "redemptionTimestamp",
          "type": "uint256"
        },
        {
          "internalType": "address",
          "name": "purchaseToken",
          "type": "address"
        },
        {
          "internalType": "address",
          "name": "termRepoServicer",
          "type": "address"
        },
        {
          "internalType": "address",
          "name": "termRepoCollateralManager",
          "type": "address"
        }
      ],
      "stateMutability": "view",
      "type": "function"
    },
    {
      "inputs": [],
      "name": "decimals",
      "outputs": [
        {
          "internalType": "uint8",
          "name": "",
          "type": "uint8"
        }
      ],
      "stateMutability": "view",
      "type": "function"
    },
    {
      "inputs": [
        {
          "internalType": "uint256",
          "name": "supplyMinted",
          "type": "uint256"
        }
      ],
      "name": "decrementMintExposureCap",
      "outputs": [],
      "stateMutability": "nonpayable",
      "type": "function"
    },
    {
      "inputs": [],
      "name": "eip712Domain",
      "outputs": [
        {
          "internalType": "bytes1",
          "name": "fields",
          "type": "bytes1"
        },
        {
          "internalType": "string",
          "name": "name",
          "type": "string"
        },
        {
          "internalType": "string",
          "name": "version",
          "type": "string"
        },
        {
          "internalType": "uint256",
          "name": "chainId",
          "type": "uint256"
        },
        {
          "internalType": "address",
          "name": "verifyingContract",
          "type": "address"
        },
        {
          "internalType": "bytes32",
          "name": "salt",
          "type": "bytes32"
        },
        {
          "internalType": "uint256[]",
          "name": "extensions",
          "type": "uint256[]"
        }
      ],
      "stateMutability": "view",
      "type": "function"
    },
    {
      "inputs": [],
      "name": "getCollateralRequirements",
      "outputs": [
        {
          "internalType": "address[]",
          "name": "collateralTokens",
          "type": "address[]"
        },
        {
          "internalType": "uint256[]",
          "name": "maintenanceRatios",
          "type": "uint256[]"
        }
      ],
      "stateMutability": "view",
      "type": "function"
    },
    {
      "inputs": [
        {
          "internalType": "bytes32",
          "name": "role",
          "type": "bytes32"
        }
      ],
      "name": "getRoleAdmin",
      "outputs": [
        {
          "internalType": "bytes32",
          "name": "",
          "type": "bytes32"
        }
      ],
      "stateMutability": "view",
      "type": "function"
    },
    {
      "inputs": [
        {
          "internalType": "bytes32",
          "name": "role",
          "type": "bytes32"
        },
        {
          "internalType": "address",
          "name": "account",
          "type": "address"
        }
      ],
      "name": "grantRole",
      "outputs": [],
      "stateMutability": "nonpayable",
      "type": "function"
    },
    {
      "inputs": [
        {
          "internalType": "bytes32",
          "name": "role",
          "type": "bytes32"
        },
        {
          "internalType": "address",
          "name": "account",
          "type": "address"
        }
      ],
      "name": "hasRole",
      "outputs": [
        {
          "internalType": "bool",
          "name": "",
          "type": "bool"
        }
      ],
      "stateMutability": "view",
      "type": "function"
    },
    {
      "inputs": [
        {
          "internalType": "string",
          "name": "termRepoId_",
          "type": "string"
        },
        {
          "internalType": "string",
          "name": "name_",
          "type": "string"
        },
        {
          "internalType": "string",
          "name": "symbol_",
          "type": "string"
        },
        {
          "internalType": "uint8",
          "name": "decimalPlaces_",
          "type": "uint8"
        },
        {
          "internalType": "uint256",
          "name": "redemptionValue_",
          "type": "uint256"
        },
        {
          "internalType": "uint256",
          "name": "mintExposureCap_",
          "type": "uint256"
        },
        {
          "internalType": "address",
          "name": "termInitializer_",
          "type": "address"
        },
        {
          "components": [
            {
              "internalType": "uint256",
              "name": "redemptionTimestamp",
              "type": "uint256"
            },
            {
              "internalType": "address",
              "name": "purchaseToken",
              "type": "address"
            },
            {
              "internalType": "address",
              "name": "termRepoServicer",
              "type": "address"
            },
            {
              "internalType": "address",
              "name": "termRepoCollateralManager",
              "type": "address"
            }
          ],
          "internalType": "struct TermRepoTokenConfig",
          "name": "config_",
          "type": "tuple"
        }
      ],
      "name": "initialize",
      "outputs": [],
      "stateMutability": "nonpayable",
      "type": "function"
    },
    {
      "inputs": [],
      "name": "mintExposureCap",
      "outputs": [
        {
          "internalType": "uint256",
          "name": "",
          "type": "uint256"
        }
      ],
      "stateMutability": "view",
      "type": "function"
    },
    {
      "inputs": [
        {
          "internalType": "address",
          "name": "account",
          "type": "address"
        },
        {
          "internalType": "uint256",
          "name": "redemptionAmount",
          "type": "uint256"
        }
      ],
      "name": "mintRedemptionValue",
      "outputs": [
        {
          "internalType": "uint256",
          "name": "",
          "type": "uint256"
        }
      ],
      "stateMutability": "nonpayable",
      "type": "function"
    },
    {
      "inputs": [
        {
          "internalType": "address",
          "name": "account",
          "type": "address"
        },
        {
          "internalType": "uint256",
          "name": "numTokens",
          "type": "uint256"
        }
      ],
      "name": "mintTokens",
      "outputs": [
        {
          "internalType": "uint256",
          "name": "",
          "type": "uint256"
        }
      ],
      "stateMutability": "nonpayable",
      "type": "function"
    },
    {
      "inputs": [],
      "name": "mintingPaused",
      "outputs": [
        {
          "internalType": "bool",
          "name": "",
          "type": "bool"
        }
      ],
      "stateMutability": "view",
      "type": "function"
    },
    {
      "inputs": [],
      "name": "name",
      "outputs": [
        {
          "internalType": "string",
          "name": "",
          "type": "string"
        }
      ],
      "stateMutability": "view",
      "type": "function"
    },
    {
      "inputs": [
        {
          "internalType": "address",
          "name": "owner",
          "type": "address"
        }
      ],
      "name": "nonces",
      "outputs": [
        {
          "internalType": "uint256",
          "name": "",
          "type": "uint256"
        }
      ],
      "stateMutability": "view",
      "type": "function"
    },
    {
      "inputs": [
        {
          "internalType": "address",
          "name": "termRepoServicer_",
          "type": "address"
        },
        {
          "internalType": "contract ITermEventEmitter",
          "name": "emitter_",
          "type": "address"
        },
        {
          "internalType": "address",
          "name": "devopsMultisig_",
          "type": "address"
        },
        {
          "internalType": "address",
          "name": "adminWallet_",
          "type": "address"
        }
      ],
      "name": "pairTermContracts",
      "outputs": [],
      "stateMutability": "nonpayable",
      "type": "function"
    },
    {
      "inputs": [],
      "name": "pauseBurning",
      "outputs": [],
      "stateMutability": "nonpayable",
      "type": "function"
    },
    {
      "inputs": [],
      "name": "pauseMinting",
      "outputs": [],
      "stateMutability": "nonpayable",
      "type": "function"
    },
    {
      "inputs": [
        {
          "internalType": "address",
          "name": "owner",
          "type": "address"
        },
        {
          "internalType": "address",
          "name": "spender",
          "type": "address"
        },
        {
          "internalType": "uint256",
          "name": "value",
          "type": "uint256"
        },
        {
          "internalType": "uint256",
          "name": "deadline",
          "type": "uint256"
        },
        {
          "internalType": "uint8",
          "name": "v",
          "type": "uint8"
        },
        {
          "internalType": "bytes32",
          "name": "r",
          "type": "bytes32"
        },
        {
          "internalType": "bytes32",
          "name": "s",
          "type": "bytes32"
        }
      ],
      "name": "permit",
      "outputs": [],
      "stateMutability": "nonpayable",
      "type": "function"
    },
    {
      "inputs": [],
      "name": "proxiableUUID",
      "outputs": [
        {
          "internalType": "bytes32",
          "name": "",
          "type": "bytes32"
        }
      ],
      "stateMutability": "view",
      "type": "function"
    },
    {
      "inputs": [],
      "name": "redemptionValue",
      "outputs": [
        {
          "internalType": "uint256",
          "name": "",
          "type": "uint256"
        }
      ],
      "stateMutability": "view",
      "type": "function"
    },
    {
      "inputs": [
        {
          "internalType": "bytes32",
          "name": "role",
          "type": "bytes32"
        },
        {
          "internalType": "address",
          "name": "callerConfirmation",
          "type": "address"
        }
      ],
      "name": "renounceRole",
      "outputs": [],
      "stateMutability": "nonpayable",
      "type": "function"
    },
    {
      "inputs": [
        {
          "internalType": "uint256",
          "name": "mintExposureCap_",
          "type": "uint256"
        }
      ],
      "name": "resetMintExposureCap",
      "outputs": [],
      "stateMutability": "nonpayable",
      "type": "function"
    },
    {
      "inputs": [
        {
          "internalType": "bytes32",
          "name": "role",
          "type": "bytes32"
        },
        {
          "internalType": "address",
          "name": "account",
          "type": "address"
        }
      ],
      "name": "revokeRole",
      "outputs": [],
      "stateMutability": "nonpayable",
      "type": "function"
    },
    {
      "inputs": [
        {
          "internalType": "bytes4",
          "name": "interfaceId",
          "type": "bytes4"
        }
      ],
      "name": "supportsInterface",
      "outputs": [
        {
          "internalType": "bool",
          "name": "",
          "type": "bool"
        }
      ],
      "stateMutability": "view",
      "type": "function"
    },
    {
      "inputs": [],
      "name": "symbol",
      "outputs": [
        {
          "internalType": "string",
          "name": "",
          "type": "string"
        }
      ],
      "stateMutability": "view",
      "type": "function"
    },
    {
      "inputs": [],
      "name": "termRepoId",
      "outputs": [
        {
          "internalType": "bytes32",
          "name": "",
          "type": "bytes32"
        }
      ],
      "stateMutability": "view",
      "type": "function"
    },
    {
      "inputs": [],
      "name": "totalRedemptionValue",
      "outputs": [
        {
          "internalType": "uint256",
          "name": "",
          "type": "uint256"
        }
      ],
      "stateMutability": "view",
      "type": "function"
    },
    {
      "inputs": [],
      "name": "totalSupply",
      "outputs": [
        {
          "internalType": "uint256",
          "name": "",
          "type": "uint256"
        }
      ],
      "stateMutability": "view",
      "type": "function"
    },
    {
      "inputs": [
        {
          "internalType": "address",
          "name": "to",
          "type": "address"
        },
        {
          "internalType": "uint256",
          "name": "value",
          "type": "uint256"
        }
      ],
      "name": "transfer",
      "outputs": [
        {
          "internalType": "bool",
          "name": "",
          "type": "bool"
        }
      ],
      "stateMutability": "nonpayable",
      "type": "function"
    },
    {
      "inputs": [
        {
          "internalType": "address",
          "name": "from",
          "type": "address"
        },
        {
          "internalType": "address",
          "name": "to",
          "type": "address"
        },
        {
          "internalType": "uint256",
          "name": "value",
          "type": "uint256"
        }
      ],
      "name": "transferFrom",
      "outputs": [
        {
          "internalType": "bool",
          "name": "",
          "type": "bool"
        }
      ],
      "stateMutability": "nonpayable",
      "type": "function"
    },
    {
      "inputs": [],
      "name": "unpauseBurning",
      "outputs": [],
      "stateMutability": "nonpayable",
      "type": "function"
    },
    {
      "inputs": [],
      "name": "unpauseMinting",
      "outputs": [],
      "stateMutability": "nonpayable",
      "type": "function"
    },
    {
      "inputs": [
        {
          "internalType": "address",
          "name": "upgradeAddress",
          "type": "address"
        }
      ],
      "name": "upgrade",
      "outputs": [],
      "stateMutability": "nonpayable",
      "type": "function"
    },
    {
      "inputs": [
        {
          "internalType": "address",
          "name": "newImplementation",
          "type": "address"
        },
        {
          "internalType": "bytes",
          "name": "data",
          "type": "bytes"
        }
      ],
      "name": "upgradeToAndCall",
      "outputs": [],
      "stateMutability": "payable",
      "type": "function"
    },
    {
      "inputs": [],
      "name": "version",
      "outputs": [
        {
          "internalType": "string",
          "name": "",
          "type": "string"
        }
      ],
      "stateMutability": "view",
      "type": "function"
    }
  ],
  "bytecode": "0x60a08060405234620000d157306080527ff0c57e16840df040f15088dc2f81fe391c3923bec73e23a9662efc9c229c6a009081549060ff8260401c16620000c257506001600160401b036002600160401b0319828216016200007c575b60405161369b9081620000d78239608051818181611d8b0152611e320152f35b6001600160401b031990911681179091556040519081527fc7f505b2f371ae2175ee4913f4499e1f2633a7b5936321eed1cdaeb6115181d290602090a13880806200005c565b63f92ee8a960e01b8152600490fd5b600080fdfe608080604052600436101561001357600080fd5b600090813560e01c90816301ffc9a71461250757508063056824de146124e4578063059cbd9b1461246e57806306fdde03146123cf5780630900f01014612362578063095ea7b31461233b57806318160ddd14612310578063201a6625146122e757806323b872dd1461220a578063248a9ca3146121d057806327df3d3e146121a7578063282c51f31461217e5780632f2ff15d14612133578063313ce567146121135780633644e515146120f857806336568abe146120b057806338b616c1146120475780634f1ef28614611de357806352d1902d14611d7857806354fd4d5014611d2c5780636d5ba7051461136957806370a0823114611323578063723f4e2a146112d257806375b238fc146112a957806379502c55146112645780637ecebe001461121c578063833c1d95146111f757806384b0196e146111005780638bef7f5b14610f7057806391d1485414610f1757806395d89b4114610e415780639dc29fac14610d4c578063a217fddf14610d30578063a8f421c214610be3578063a9059cbb14610bb1578063ac7c54291461096a578063ad3cb1cc14610920578063ae200322146108b8578063b979dee31461085b578063cc5b6e4a1461083d578063d505accf146106bb578063d539139314610692578063d547741f14610643578063da8fbf2a146105b7578063dd62ed3e1461056d578063e1a283d614610548578063ef4474cd1461052a578063f0dda65c14610410578063f59bb446146102675763f9e4f0ed1461024757600080fd5b346102645780600319360112610264576020600354604051908152f35b80fd5b50346102645760403660031901126102645761028161259c565b9060243561028d612a3f565b60ff825460181c166103fe576006546040516325c3ed4760e01b8152602094916001600160a01b03919086908290600490829086165afa9081156103f35790869186916103c6575b50600460405180948193631b6685b560e21b8352165afa9081156103bb57849161038e575b5061037c578161030991612fd2565b61031581600354612930565b600355670de0b6b3a76400009182820291808304841490151715610368575060405161035e91610344826125db565b81526001549060405191610357836125db565b8252612f2c565b5104604051908152f35b634e487b7160e01b81526011600452602490fd5b60405163bbc439e160e01b8152600490fd5b6103ae9150853d87116103b4575b6103a68183612611565b810190612918565b386102fa565b503d61039c565b6040513d86823e3d90fd5b6103e69150823d84116103ec575b6103de8183612611565b8101906128f9565b386102d5565b503d6103d4565b6040513d87823e3d90fd5b60405163c76a6dcb60e01b8152600490fd5b50346102645760403660031901126102645761042a61259c565b9060243560ff825460101c16610518576006546040516325c3ed4760e01b8152602094916001600160a01b03919086908290600490829086165afa9081156103f35790869186916104fb575b50600460405180948193631b6685b560e21b8352165afa9081156103bb5784916104de575b5061037c57816104b2916104ad612a07565b612f6b565b670de0b6b3a76400009182820291808304841490151715610368575060405161035e91610344826125db565b6104f59150853d87116103b4576103a68183612611565b3861049b565b6105129150823d84116103ec576103de8183612611565b38610476565b604051636864195160e01b8152600490fd5b50346102645780600319360112610264576020600154604051908152f35b503461026457806003193601126102645760ff6020915460101c166040519015158152f35b50346102645760403660031901126102645761058761259c565b6105986105926125b2565b916128a9565b9060018060a01b03166000526020526020604060002054604051908152f35b50346102645780600319360112610264576105d0612997565b805462ff000019166201000017815560085460025482916001600160a01b031690813b1561063f578291602483926040519485938492630e06d05360e21b845260048401525af18015610634576106245750f35b61062d906125c8565b6102645780f35b6040513d84823e3d90fd5b5050fd5b50346102645760403660031901126102645761068e6004356106636125b2565b908084526000805160206135c68339815191526020526106896001604086200154612a77565b612ea9565b5080f35b503461026457806003193601126102645760206040516000805160206135868339815191528152f35b50346102645760e0366003190112610264576106d561259c565b906106de6125b2565b6044359060643560843560ff811681036108385781421161081f5760018060a01b038087169182875260008051602061354683398151915260205260408720908154916001830190556040519460208601927f6e71edae12b1b97f4d1f60370fef10105fa2faae0126114a169c64845d6126c98452856040880152848816606088015288608088015260a087015260c086015260c0855260e085019185831060018060401b03841117610809576107d1956107c8936040525190206107a16130c9565b906040519161190160f01b83526002830152602282015260c43591604260a435922061316c565b909491946131f2565b8216036107e657506107e3929361306b565b80f35b6040516325c0072360e11b81529081906108059087906004840161297d565b0390fd5b634e487b7160e01b600052604160045260246000fd5b60405163313c898160e11b815260048101839052602490fd5b600080fd5b50346102645780600319360112610264576020600254604051908152f35b503461026457602036600319011261026457600435610878612a07565b600354908181116108a65781039081116108925760035580f35b634e487b7160e01b82526011600452602482fd5b604051632e8a972b60e11b8152600490fd5b50346102645780600319360112610264576108d1612997565b805462ff00001916815560085460025482916001600160a01b031690813b1561063f578291602483926040519485938492631d04a79b60e11b845260048401525af18015610634576106245750f35b5034610264578060031936011261026457610966604051610940816125f6565b60058152640352e302e360dc1b602082015260405191829160208352602083019061255c565b0390f35b5034610264578060031936011261026457600754604051630c87400960e11b81526001600160a01b0392918316906020908181600481865afa80156103bb578490610b75575b60ff915016906109bf826128e2565b936109cd6040519586612611565b8285526109d9836128e2565b85830194601f19949185013687376109f0826128e2565b946109fe6040519687612611565b828652610a0a836128e2565b013685870137825b828110610a645750505060405194604086019060408752518091526060860194915b818110610a4e5786860384880152868061096688886126b3565b8251881686529483019491830191600101610a34565b60405163172c48c760e01b8152600481018290529397936024919086818481875afa908115610b6a578a91610b30575b508a610aa08388612953565b91169052858a610ab08388612953565b516040516320db25d560e01b81529116600482015292839081865afa8015610b25578990610af1575b60019250610ae78289612953565b5201969296610a12565b50908581813d8311610b1e575b610b088183612611565b81010312610b1a579060019151610ad9565b8880fd5b503d610afe565b6040513d8b823e3d90fd5b90508681813d8311610b63575b610b478183612611565b81010312610b5f57518a81168103610b5f5738610a94565b8980fd5b503d610b3d565b6040513d8c823e3d90fd5b508181813d8311610baa575b610b8b8183612611565b81010312610ba6575160ff81168103610ba65760ff906109b0565b8380fd5b503d610b81565b503461026457604036600319011261026457610bd8610bce61259c565b6024359033612ac8565b602060405160018152f35b503461026457608036600319011261026457610bfd61259c565b6001600160a01b0360243581811690819003610ba6576044358281168103610838576064359183831683036108385733600090815260008051602061350683398151915260205260409020546000805160206134668339815191529060ff1615610d12575085549460ff8660081c16610d0057610c9d610cb394610cad936101008a9961ff00191617895560018060a01b03196008541617600855612c1c565b50610ca781612ca2565b50612d28565b50612dae565b5060085416600254600154823b15610cfb57606484928360405195869485936327481ec760e21b8552600485015230602485015260448401525af18015610634576106245750f35b505050fd5b604051634ce377bb60e11b8152600490fd5b6044906040519063e2517d3f60e01b82523360048301526024820152fd5b5034610264578060031936011261026457602090604051908152f35b503461026457604036600319011261026457610d6661259c565b602435610d71612a3f565b60ff835460181c166103fe576006546040516325c3ed4760e01b81526020916001600160a01b03919083908290600490829086165afa8015610e365783918791610e19575b50600460405180948193631b6685b560e21b8352165afa9182156103f3578592610dfc575b505061037c57610dee81610df693612fd2565b600354612930565b60035580f35b610e129250803d106103b4576103a68183612611565b3880610ddb565b610e309150823d84116103ec576103de8183612611565b38610db6565b6040513d88823e3d90fd5b50346102645780600319360112610264576040516000805160206134468339815191528054826000610e72836126e7565b9283835260209460019186600182169182600014610ef5575050600114610eb6575b5050610ea292500383612611565b61096660405192828493845283019061255c565b85925060005281600020906000915b858310610edd575050610ea293508201018580610e94565b80548389018501528794508693909201918101610ec5565b9250935050610ea294915060ff191682840152151560051b8201018580610e94565b5034610264576040366003190112610264576040610f336125b2565b9160043581526000805160206135c6833981519152602052209060018060a01b0316600052602052602060ff604060002054166040519015158152f35b503461026457604036600319011261026457610f8a61259c565b6024359160ff815460101c16610518576006546040516325c3ed4760e01b8152602094916001600160a01b03919086908290600490829086165afa9081156103bb5790869185916110e3575b50600460405180948193631b6685b560e21b8352165afa9081156110d85783916110bb575b5061037c57611008612a07565b670de0b6b3a764000090818102908082048314901517156110a75760405190611030826125db565b81526001549060405191611043836125db565b825283604051611052816125db565b52519282840293808504841490151715610368575051801561109157611089920480604051611080816125db565b52048092612f6b565b604051908152f35b634e487b7160e01b600052601260045260246000fd5b634e487b7160e01b83526011600452602483fd5b6110d29150853d87116103b4576103a68183612611565b38610ffb565b6040513d85823e3d90fd5b6110fa9150823d84116103ec576103de8183612611565b38610fd6565b50346102645780600319360112610264576000805160206134c68339815191525415806111e0575b156111a3576111769061096661113c612721565b916111456127d5565b61118460405191611155836125db565b838352604051968796600f60f81b885260e0602089015260e088019061255c565b90868203604088015261255c565b9146606086015230608086015260a085015283820360c08501526126b3565b60405162461bcd60e51b81526020600482015260156024820152741152540dcc4c8e88155b9a5b9a5d1a585b1a5e9959605a1b6044820152606490fd5b506000805160206136468339815191525415611128565b503461026457806003193601126102645760ff6020915460181c166040519015158152f35b5034610264576020366003190112610264576001600160a01b0361123e61259c565b166000526000805160206135468339815191526020526020604060002054604051908152f35b5034610264578060031936011261026457608060045460018060a01b038060055416908060065416906007541691604051938452602084015260408301526060820152f35b503461026457806003193601126102645760206040516000805160206135e68339815191528152f35b50346102645780600319360112610264576000805160206134868339815191525490670de0b6b3a76400009081830292808404831490151715610368575061035e60209260405190610344826125db565b5034610264576020366003190112610264576020906040906001600160a01b0361134b61259c565b1681526000805160206133e683398151915283522054604051908152f35b503461026457610160366003190112610264576004356001600160401b038111611d285761139b903690600401612686565b906024356001600160401b038111610ba6576113bb903690600401612686565b91906044356001600160401b038111611d24576113dc903690600401612686565b9190936064359260ff841684036108385760c4356001600160a01b03811690036108385760803660e3190112611d205760008051602061362683398151915254956001600160401b03871680159081611d10575b6001149081611d06575b159081611cfd575b50611ceb576001600160401b031987166001176000805160206136268339815191525561148a90604088901c60ff1615611cc2575b61148236858761264f565b92369161264f565b9061149361313d565b61149b61313d565b8051906001600160401b038211611cae5781906114c66000805160206133a6833981519152546126e7565b601f8111611c35575b50602090601f8311600114611bb1578b92611ba6575b50508160011b916000199060031b1c1916176000805160206133a6833981519152555b8051906001600160401b038211611b9257611531600080516020613446833981519152546126e7565b601f8111611b26575b50602090601f8311600114611a9f57611582949392918a9183611a94575b50508160011b916000199060031b1c191617600080516020613446833981519152555b369161264f565b61158a61313d565b60405190611597826125f6565b60018252603160f81b60208301526115ad61313d565b8051906001600160401b038211611a805781906115d8600080516020613426833981519152546126e7565b601f8111611a08575b50602090601f8311600114611984578992611979575b50508160011b916000199060031b1c191617600080516020613426833981519152555b8051906001600160401b038211611965576116436000805160206134a6833981519152546126e7565b601f81116118f9575b50602090601f83116001146118775760ff93929188918361186c575b50508160011b916000199060031b1c1916176000805160206134a6833981519152555b856000805160206134c68339815191525585600080516020613646833981519152556116b561313d565b6116bd61313d565b6116c860c435612b90565b50855460ff191691161784556084356001556001600160a01b036116ea612864565b16151580611853575b8061183a575b156117fc5760e43560045560ff926001600160a01b03611717612864565b60058054919092166001600160a01b0319918216179091556001600160a01b0361173f612892565b1681600654161760065560018060a01b0361175861287b565b16906007541617600755611785602060405183819483830196873781018883820152038084520182612611565b51902060025560a435600355825462ffff001916835560401c16156117a75780f35b60ff60401b196000805160206136268339815191525416600080516020613626833981519152557fc7f505b2f371ae2175ee4913f4499e1f2633a7b5936321eed1cdaeb6115181d2602060405160018152a180f35b60405162461bcd60e51b81526020600482015260166024820152757a65726f206164647265737320696e20636f6e66696760501b6044820152606490fd5b506001600160a01b0361184b612892565b1615156116f9565b506001600160a01b0361186461287b565b1615156116f3565b015190503880611668565b6000805160206134a683398151915288528188209190601f198416895b8181106118e1575091600193918560ff979694106118c8575b505050811b016000805160206134a68339815191525561168b565b015160001960f88460031b161c191690553880806118ad565b92936020600181928786015181550195019301611894565b6000805160206134a683398151915288527f5f9ce34815f8e11431c7bb75a8e6886a91478f7ffc1dbb0a98dc240fddd76b75601f840160051c81016020851061195e575b601f830160051c8201811061195357505061164c565b89815560010161193d565b508061193d565b634e487b7160e01b87526041600452602487fd5b0151905038806115f7565b925060008051602061342683398151915289528089209089935b601f19841685106119ed576001945083601f198116106119d4575b505050811b016000805160206134268339815191525561161a565b015160001960f88460031b161c191690553880806119b9565b8181015183556020948501946001909301929091019061199e565b6000805160206134268339815191528a529091507f42ad5d3e1f2e6e70edcf6d991b8a3023d3fca8047a131592f9edb9fd9b89d57d601f840160051c810160208510611a79575b90849392915b601f830160051c82018110611a6b5750506115e1565b8b8155859450600101611a55565b5080611a4f565b634e487b7160e01b88526041600452602488fd5b015190503880611558565b906000805160206134468339815191528a52808a20918a5b601f1985168110611b0e5750918391600193611582979695601f19811610611af5575b505050811b016000805160206134468339815191525561157b565b015160001960f88460031b161c19169055388080611ada565b91926020600181928685015181550194019201611ab7565b6000805160206134468339815191528a527f46a2803e59a4de4e7a4c574b1243f25977ac4c77d5a1a4a609b5394cebb4a2aa601f840160051c810160208510611b8b575b601f830160051c82018110611b8057505061153a565b8b8155600101611b6a565b5080611b6a565b634e487b7160e01b89526041600452602489fd5b0151905038806114e5565b92506000805160206133a68339815191528b52808b20908b935b601f1984168510611c1a576001945083601f19811610611c01575b505050811b016000805160206133a683398151915255611508565b015160001960f88460031b161c19169055388080611be6565b81810151835560209485019460019093019290910190611bcb565b6000805160206133a68339815191528c529091507f2ae08a8e29253f69ac5d979a101956ab8f8d9d7ded63fa7a83b16fc47648eab0601f840160051c810160208510611ca7575b90849392915b8d601f840160051c83018210611c9a575050506114cf565b8155859450600101611c82565b5080611c7c565b634e487b7160e01b8a52604160045260248afd5b6001600160481b031988166001600160401b011760008051602061362683398151915255611477565b60405163f92ee8a960e01b8152600490fd5b90501538611442565b303b15915061143a565b604089901c60ff16159150611430565b8780fd5b8580fd5b5080fd5b5034610264578060031936011261026457610966604051611d4c816125f6565b600b81526a19195d995b1bdc1b595b9d60aa1b602082015260405191829160208352602083019061255c565b50346102645780600319360112610264577f00000000000000000000000000000000000000000000000000000000000000006001600160a01b03163003611dd15760206040516000805160206135268339815191528152f35b60405163703e46dd60e11b8152600490fd5b50604036600319011261026457611df861259c565b6024356001600160401b038111612043573660238201121561204357611e2890369060248160040135910161264f565b6001600160a01b037f00000000000000000000000000000000000000000000000000000000000000008116308114908115612027575b50611dd157611e6b6129cf565b838160085416803b15611d285781604051809263b3c2d50b60e01b8252818381611e998b306004840161297d565b03925af1801561063457612013575b50506040516352d1902d60e01b8152908316926020918281600481885afa869181611fe0575b50611eec57604051634c9c8ce360e01b815260048101869052602490fd5b93859460008051602061352683398151915290818103611fc85750823b15611faf5780546001600160a01b0319168217905560405185917fbc7cd75a20ee27fd9adebab32041f755214dbc6bffa90cc0225b39da2e5c2d3b8380a2845115611f92575080848461068e96519101845af4903d15611f89573d611f6d81612634565b90611f7b6040519283612611565b81528581943d92013e613302565b60609250613302565b935050505034611fa0575080f35b63b398979f60e01b8152600490fd5b604051634c9c8ce360e01b815260048101839052602490fd5b60249060405190632a87526960e21b82526004820152fd5b9091508381813d831161200c575b611ff88183612611565b8101031261200857519038611ece565b8680fd5b503d611fee565b61201c906125c8565b610ba6578338611ea8565b9050816000805160206135268339815191525416141538611e5e565b8280fd5b5034610264578060031936011261026457612060612997565b805463ff0000001916815560085460025482916001600160a01b031690813b1561063f57829160248392604051948593849263b29aaf7560e01b845260048401525af18015610634576106245750f35b5034610264576040366003190112610264576120ca6125b2565b336001600160a01b038216036120e65761068e90600435612ea9565b60405163334bd91960e11b8152600490fd5b503461026457806003193601126102645760206110896130c9565b503461026457806003193601126102645760ff6020915416604051908152f35b50346102645760403660031901126102645761068e6004356121536125b2565b908084526000805160206135c68339815191526020526121796001604086200154612a77565b612e34565b503461026457806003193601126102645760206040516000805160206133868339815191528152f35b503461026457806003193601126102645760206040516000805160206134668339815191528152f35b5034610264576020366003190112610264576001604060209260043581526000805160206135c68339815191528452200154604051908152f35b50346102645760603660031901126102645761222461259c565b61222c6125b2565b60443590612239836128a9565b3360005260205260406000205492600019841061225b575b610bd89350612ac8565b8284106122ca576001600160a01b038116156122b15733156122985782610bd894612285836128a9565b3360005260205203604060002055612251565b604051634a1406b160e11b815260006004820152602490fd5b60405163e602df0560e01b815260006004820152602490fd5b604051637dc7a0d960e11b81528061080585873360048501612aaa565b503461026457806003193601126102645760206040516000805160206133c68339815191528152f35b5034610264578060031936011261026457602060008051602061348683398151915254604051908152f35b503461026457604036600319011261026457610bd861235861259c565b602435903361306b565b5034610264576020366003190112610264578061237d61259c565b6123856129cf565b6008546001600160a01b0316803b1561063f5760405163b3c2d50b60e01b815291839183918290849082906123be90306004840161297d565b03925af18015610634576106245750f35b50346102645780600319360112610264576040516000805160206133a68339815191528054826000612400836126e7565b9283835260209460019186600182169182600014610ef557505060011461242f575050610ea292500383612611565b85925060005281600020906000915b858310612456575050610ea293508201018580610e94565b8054838901850152879450869390920191810161243e565b5034610264578060031936011261026457612487612997565b805463ff0000001916630100000017815560085460025482916001600160a01b0316803b1561063f57602483926040519485938492630954cf0360e01b845260048401525af18015610634576124db575080f35b6107e3906125c8565b5034610264576020366003190112610264576124fe612997565b60043560035580f35b905034611d28576020366003190112611d285760043563ffffffff60e01b81168091036120435760209250637965db0b60e01b811490811561254b575b5015158152f35b6301ffc9a760e01b14905038612544565b919082519283825260005b848110612588575050826000602080949584010152601f8019910116010190565b602081830181015184830182015201612567565b600435906001600160a01b038216820361083857565b602435906001600160a01b038216820361083857565b6001600160401b03811161080957604052565b602081019081106001600160401b0382111761080957604052565b604081019081106001600160401b0382111761080957604052565b601f909101601f19168101906001600160401b0382119082101761080957604052565b6001600160401b03811161080957601f01601f191660200190565b92919261265b82612634565b916126696040519384612611565b829481845281830111610838578281602093846000960137010152565b9181601f84011215610838578235916001600160401b038311610838576020838186019501011161083857565b90815180825260208080930193019160005b8281106126d3575050505090565b8351855293810193928101926001016126c5565b90600182811c92168015612717575b602083101461270157565b634e487b7160e01b600052602260045260246000fd5b91607f16916126f6565b60405190600082600080516020613426833981519152918254612743816126e7565b908184526020946001916001811690816000146127b35750600114612774575b50505061277292500383612611565b565b600090815285812095935091905b81831061279b5750506127729350820101388080612763565b85548884018501529485019487945091830191612782565b9250505061277294925060ff191682840152151560051b820101388080612763565b604051906000826000805160206134a68339815191529182546127f7816126e7565b908184526020946001916001811690816000146127b357506001146128255750505061277292500383612611565b600090815285812095935091905b81831061284c5750506127729350820101388080612763565b85548884018501529485019487945091830191612833565b610104356001600160a01b03811681036108385790565b610144356001600160a01b03811681036108385790565b610124356001600160a01b03811681036108385790565b6001600160a01b031660009081527f52c63247e1f47db19d5ce0460030c497f067ca4cebf71ba98eeadabe20bace016020526040902090565b6001600160401b0381116108095760051b60200190565b9081602091031261083857516001600160a01b03811681036108385790565b90816020910312610838575180151581036108385790565b9190820180921161293d57565b634e487b7160e01b600052601160045260246000fd5b80518210156129675760209160051b010190565b634e487b7160e01b600052603260045260246000fd5b6001600160a01b0391821681529116602082015260400190565b33600090815260008051602061340683398151915260205260409020546000805160206135e68339815191529060ff1615610d125750565b33600090815260008051602061360683398151915260205260409020546000805160206133c68339815191529060ff1615610d125750565b33600090815260008051602061356683398151915260205260409020546000805160206135868339815191529060ff1615610d125750565b3360009081526000805160206134e683398151915260205260409020546000805160206133868339815191529060ff1615610d125750565b806000526000805160206135c683398151915260205260406000203360005260205260ff6040600020541615610d125750565b604091949392606082019560018060a01b0316825260208201520152565b916001600160a01b03808416928315612b775716928315612b5e576000908382526000805160206133e683398151915280602052604083205491848310612b3f575082846000805160206135a6833981519152959360409388602097528652038282205586815220818154019055604051908152a3565b90506108058460405193849363391434e360e21b855260048501612aaa565b60405163ec442f0560e01b815260006004820152602490fd5b604051634b637e8f60e11b815260006004820152602490fd5b6001600160a01b031660008181526000805160206135068339815191526020526040812054909190600080516020613466833981519152906000805160206135c68339815191529060ff16612c16578184526020526040832082845260205260408320600160ff19825416179055600080516020613366833981519152339380a4600190565b50505090565b6001600160a01b0316600081815260008051602061340683398151915260205260408120549091906000805160206135e6833981519152906000805160206135c68339815191529060ff16612c16578184526020526040832082845260205260408320600160ff19825416179055600080516020613366833981519152339380a4600190565b6001600160a01b031660008181526000805160206135668339815191526020526040812054909190600080516020613586833981519152906000805160206135c68339815191529060ff16612c16578184526020526040832082845260205260408320600160ff19825416179055600080516020613366833981519152339380a4600190565b6001600160a01b031660008181526000805160206134e68339815191526020526040812054909190600080516020613386833981519152906000805160206135c68339815191529060ff16612c16578184526020526040832082845260205260408320600160ff19825416179055600080516020613366833981519152339380a4600190565b6001600160a01b0316600081815260008051602061360683398151915260205260408120549091906000805160206133c6833981519152906000805160206135c68339815191529060ff16612c16578184526020526040832082845260205260408320600160ff19825416179055600080516020613366833981519152339380a4600190565b906000918083526000805160206135c683398151915280602052604084209260018060a01b03169283855260205260ff60408520541615600014612c16578184526020526040832082845260205260408320600160ff19825416179055600080516020613366833981519152339380a4600190565b906000918083526000805160206135c683398151915280602052604084209260018060a01b03169283855260205260ff604085205416600014612c1657818452602052604083208284526020526040832060ff1981541690557ff6391f5c32d9c69d2a47ea670b442974b53935d1edc7fd64eb21e047a839171b339380a4600190565b6000604051612f3a816125db565b525190519081810291818304149015171561293d57670de0b6b3a764000060405191612f65836125db565b04815290565b6001600160a01b0316908115612b5e576000805160206135a68339815191526020600092600080516020613486833981519152612fa9828254612930565b90558484526000805160206133e6833981519152825260408420818154019055604051908152a3565b91906001600160a01b038316908115612b7757816000526000805160206133e6833981519152806020526040600020549482861061304c5750816000805160206135a683398151915292600095966020938688528452036040862055600080516020613486833981519152818154039055604051908152a3565b85906108058460405193849363391434e360e21b855260048501612aaa565b916001600160a01b038084169283156122b15716928315612298577f8c5be1e5ebec7d5bd14f71427d1e84f3dd0314c0f7b2291e5b200ac8c7c3b925916130b36020926128a9565b85600052825280604060002055604051908152a3565b6130d1613277565b6130d96132cf565b6040519060208201927f8b73c3c69bb8fe3d512ecc4cf759cc79239f7b179b0ffacaa9a75d522b39400f8452604083015260608201524660808201523060a082015260a0815260c0810181811060018060401b038211176108095760405251902090565b60ff6000805160206136268339815191525460401c161561315a57565b604051631afcd79f60e31b8152600490fd5b91906fa2a8918ca85bafe22016d0b997e4df60600160ff1b0384116131e657926020929160ff608095604051948552168484015260408301526060820152600092839182805260015afa156131da5780516001600160a01b038116156131d157918190565b50809160019190565b604051903d90823e3d90fd5b50505060009160039190565b60048110156132615780613204575050565b6001810361321e5760405163f645eedf60e01b8152600490fd5b6002810361323f5760405163fce698f760e01b815260048101839052602490fd5b6003146132495750565b602490604051906335e2f38360e21b82526004820152fd5b634e487b7160e01b600052602160045260246000fd5b61327f612721565b805190811561328f576020012090565b50506000805160206134c68339815191525480156132aa5790565b507fc5d2460186f7233c927e7db2dcc703c0e500b653ca82273b7bfad8045d85a47090565b6132d76127d5565b80519081156132e7576020012090565b50506000805160206136468339815191525480156132aa5790565b90613329575080511561331757805190602001fd5b60405163d6bda27560e01b8152600490fd5b8151158061335c575b61333a575090565b604051639996b31560e01b81526001600160a01b039091166004820152602490fd5b50803b1561333256fe2f8788117e7eff1d82e926ec794901d17c78024a50270940304540a733656f0d3c11d16cbaffd01df69ce1c404f6340ee057498f5f00246190ea54220576a84852c63247e1f47db19d5ce0460030c497f067ca4cebf71ba98eeadabe20bace03793a6c9b7e0a9549c74edc2f9ae0dc50903dfaa9a56fb0116b27a8c71de3e2c652c63247e1f47db19d5ce0460030c497f067ca4cebf71ba98eeadabe20bace00b16e88c42fd4e48df2dd6a2eabd6bc9aec654ec170056b470819f8892cc6431ca16a46d94261c7517cc8ff89f61c0ce93598e3c849801011dee649a6a557d10252c63247e1f47db19d5ce0460030c497f067ca4cebf71ba98eeadabe20bace0430d41a597cac127d8249d31298b50e481ee82c3f4a49ff93c76a22735aa9f3ad52c63247e1f47db19d5ce0460030c497f067ca4cebf71ba98eeadabe20bace02a16a46d94261c7517cc8ff89f61c0ce93598e3c849801011dee649a6a557d103a16a46d94261c7517cc8ff89f61c0ce93598e3c849801011dee649a6a557d100fcf1b2032b1187d9f2a29150c4a608b3b6f0bdf8dd007801f86a276af50cad9244fa5399874b75da801cb431822b6afcadb876f84eb39d7f05bf697e94b4484e360894a13ba1a3210667c828492db98dca3e2076cc3735a920a3ca505d382bbc5ab42ced628888259c08ac98db1eb0cf702fc1501344311d8b100cd1bfe4bb00549fe2656c81d2947b3b913f0a53b9ea86c71e049f3a1b8aa23c09a8a05cb8d49f2df0fed2c77648de5860a4cc508cd0818c85b8b8a1ab4ceeef8d981c8956a6ddf252ad1be2c89b69c2b068fc378daa952ba7f163c4a11628f55a4df523b3ef02dd7bc7dec4dceedda775e58dd541e08a116c6c53815c0bd028192f7b626800a49807205ce4d355092ef5a8a18f56e8913cf4a201fbe287825b095693c217750cfb002fcf8644f87ebf6cf6e31899c8d8e9f7c329b465b6e36989a958507e8bf0c57e16840df040f15088dc2f81fe391c3923bec73e23a9662efc9c229c6a00a16a46d94261c7517cc8ff89f61c0ce93598e3c849801011dee649a6a557d101a26469706673582212203ff35b0d800fc0ea587b730c864a442c805317cbd8a07e3b1197537c880b908a64736f6c63430008160033",
  "linkReferences": {},
  "deployedLinkReferences": {}
}