{
  "_format": "hh-sol-artifact-1",
  "contractName": "TestSwapRouterFacetHelper",
  "sourceName": "contracts/test/TestSwapRouterFacetHelper.sol",
  "abi": [
    {
      "inputs": [
        {
          "internalType": "address",
          "name": "pendleRouter_",
          "type": "address"
        },
        {
          "internalType": "address",
          "name": "pendleSwap_",
          "type": "address"
        }
      ],
      "stateMutability": "nonpayable",
      "type": "constructor"
    },
    {
      "inputs": [
        {
          "internalType": "address",
          "name": "target",
          "type": "address"
        }
      ],
      "name": "AddressEmptyCode",
      "type": "error"
    },
    {
      "inputs": [],
      "name": "BothTokensCannotBePendlePT",
      "type": "error"
    },
    {
      "inputs": [],
      "name": "FailedCall",
      "type": "error"
    },
    {
      "inputs": [],
      "name": "InputAmountMismatch",
      "type": "error"
    },
    {
      "inputs": [],
      "name": "InputOutputTokenCollision",
      "type": "error"
    },
    {
      "inputs": [],
      "name": "InvalidPendleRouterAddress",
      "type": "error"
    },
    {
      "inputs": [],
      "name": "InvalidPendleSwapAddress",
      "type": "error"
    },
    {
      "inputs": [],
      "name": "ReentrancyGuardReentrantCall",
      "type": "error"
    },
    {
      "inputs": [
        {
          "internalType": "uint8",
          "name": "bits",
          "type": "uint8"
        },
        {
          "internalType": "uint256",
          "name": "value",
          "type": "uint256"
        }
      ],
      "name": "SafeCastOverflowedUintDowncast",
      "type": "error"
    },
    {
      "inputs": [
        {
          "internalType": "address",
          "name": "token",
          "type": "address"
        }
      ],
      "name": "SafeERC20FailedOperation",
      "type": "error"
    },
    {
      "inputs": [],
      "name": "UnsupportedHookSelector",
      "type": "error"
    },
    {
      "inputs": [],
      "name": "clearActiveFlashLoanBorrower",
      "outputs": [],
      "stateMutability": "nonpayable",
      "type": "function"
    },
    {
      "inputs": [
        {
          "internalType": "address",
          "name": "user",
          "type": "address"
        },
        {
          "internalType": "address",
          "name": "inputToken",
          "type": "address"
        },
        {
          "internalType": "uint256",
          "name": "maxInputAmount",
          "type": "uint256"
        },
        {
          "internalType": "address",
          "name": "outputToken",
          "type": "address"
        },
        {
          "internalType": "uint256",
          "name": "minOutputAmount",
          "type": "uint256"
        },
        {
          "internalType": "bytes4",
          "name": "selector",
          "type": "bytes4"
        },
        {
          "internalType": "address",
          "name": "targetAddress",
          "type": "address"
        },
        {
          "internalType": "bytes",
          "name": "additionalCalldata",
          "type": "bytes"
        }
      ],
      "name": "generateActionCalldata",
      "outputs": [
        {
          "components": [
            {
              "internalType": "address",
              "name": "expectedInputToken",
              "type": "address"
            },
            {
              "internalType": "uint256",
              "name": "expectedInputAmount",
              "type": "uint256"
            },
            {
              "internalType": "address",
              "name": "expectedOutputToken",
              "type": "address"
            },
            {
              "internalType": "uint256",
              "name": "expectedOutputAmount",
              "type": "uint256"
            },
            {
              "internalType": "bool",
              "name": "isDeterministic",
              "type": "bool"
            }
          ],
          "internalType": "struct PreviewAction",
          "name": "",
          "type": "tuple"
        },
        {
          "internalType": "bytes",
          "name": "",
          "type": "bytes"
        }
      ],
      "stateMutability": "view",
      "type": "function"
    },
    {
      "inputs": [
        {
          "internalType": "bytes4",
          "name": "",
          "type": "bytes4"
        }
      ],
      "name": "previewMapping",
      "outputs": [
        {
          "internalType": "bytes4",
          "name": "",
          "type": "bytes4"
        }
      ],
      "stateMutability": "view",
      "type": "function"
    },
    {
      "inputs": [
        {
          "components": [
            {
              "internalType": "address",
              "name": "user",
              "type": "address"
            },
            {
              "internalType": "address",
              "name": "inputToken",
              "type": "address"
            },
            {
              "internalType": "uint256",
              "name": "maxInputAmount",
              "type": "uint256"
            },
            {
              "internalType": "address",
              "name": "outputToken",
              "type": "address"
            },
            {
              "internalType": "uint256",
              "name": "minOutputAmount",
              "type": "uint256"
            },
            {
              "internalType": "address",
              "name": "targetAddress",
              "type": "address"
            },
            {
              "internalType": "bytes",
              "name": "additionalCalldata",
              "type": "bytes"
            }
          ],
          "internalType": "struct ActionHookInput",
          "name": "actionHookInput",
          "type": "tuple"
        }
      ],
      "name": "previewSwap",
      "outputs": [
        {
          "components": [
            {
              "internalType": "address",
              "name": "expectedInputToken",
              "type": "address"
            },
            {
              "internalType": "uint256",
              "name": "expectedInputAmount",
              "type": "uint256"
            },
            {
              "internalType": "address",
              "name": "expectedOutputToken",
              "type": "address"
            },
            {
              "internalType": "uint256",
              "name": "expectedOutputAmount",
              "type": "uint256"
            },
            {
              "internalType": "bool",
              "name": "isDeterministic",
              "type": "bool"
            }
          ],
          "internalType": "struct PreviewAction",
          "name": "",
          "type": "tuple"
        }
      ],
      "stateMutability": "view",
      "type": "function"
    },
    {
      "inputs": [
        {
          "internalType": "address",
          "name": "borrower",
          "type": "address"
        }
      ],
      "name": "setActiveFlashLoanBorrower",
      "outputs": [],
      "stateMutability": "nonpayable",
      "type": "function"
    },
    {
      "inputs": [
        {
          "internalType": "address",
          "name": "tokenIn",
          "type": "address"
        },
        {
          "internalType": "uint256",
          "name": "amountIn",
          "type": "uint256"
        },
        {
          "internalType": "bool",
          "name": "usePermit2",
          "type": "bool"
        },
        {
          "components": [
            {
              "internalType": "bytes",
              "name": "swapData",
              "type": "bytes"
            },
            {
              "internalType": "bool",
              "name": "isTokenInPendlePT",
              "type": "bool"
            },
            {
              "internalType": "bool",
              "name": "isTokenOutPendlePT",
              "type": "bool"
            }
          ],
          "internalType": "struct SwapRouterFacet.SwapRouterData",
          "name": "data",
          "type": "tuple"
        }
      ],
      "name": "swap",
      "outputs": [],
      "stateMutability": "nonpayable",
      "type": "function"
    },
    {
      "inputs": [
        {
          "components": [
            {
              "internalType": "address",
              "name": "user",
              "type": "address"
            },
            {
              "internalType": "address",
              "name": "inputToken",
              "type": "address"
            },
            {
              "internalType": "uint256",
              "name": "maxInputAmount",
              "type": "uint256"
            },
            {
              "internalType": "address",
              "name": "outputToken",
              "type": "address"
            },
            {
              "internalType": "uint256",
              "name": "minOutputAmount",
              "type": "uint256"
            },
            {
              "internalType": "address",
              "name": "targetAddress",
              "type": "address"
            },
            {
              "internalType": "bytes",
              "name": "additionalCalldata",
              "type": "bytes"
            }
          ],
          "internalType": "struct ActionHookInput",
          "name": "input",
          "type": "tuple"
        }
      ],
      "name": "swapHook",
      "outputs": [],
      "stateMutability": "nonpayable",
      "type": "function"
    }
  ],
  "bytecode": "0x60c034620000f1576200196090601f38839003908101601f19168201906001600160401b03821183831017620000f65780839160409586948552833981010312620000f1576200005d602062000055836200010c565b92016200010c565b6001600055906001600160a01b0380821615620000e057821615620000cf5760805260a052633ace28e360e11b60009081526001602052819020805463ffffffff191663d180267b1790555161183e9081620001228239608051818181610ff401526112fc015260a051816114930152f35b8251635583c48560e01b8152600490fd5b8351632960053960e11b8152600490fd5b600080fd5b634e487b7160e01b600052604160045260246000fd5b51906001600160a01b0382168203620000f15756fe608060409080825260048036101561001657600080fd5b600092833560e01c9283630cafab031461054d575082633f2b2aa914610509578263759c51c6146103d65782639ef72eff14610197578263c3246edc1461014d578263d180267b146100a657505063eb58755f1461007357600080fd5b346100a357806003193601126100a3576000805160206117e983398151915280546001600160a01b031916905580f35b80fd5b83346100a3576100b5366106d7565b6100bd610919565b50602081016100cb81610905565b60608301956001600160a01b03929183806100e58a610905565b1691161461013f5760a08761013d88886080898961010b6101058b610905565b97610905565b818651986101188a61074c565b1688528583013560208901521684870152013560608501526080840152518092610822565bf35b8551635542f09960e01b8152fd5b915034610193576020366003190112610193576001600160e01b031990358181169081900361018e578383916020955260018552205460e01b915191168152f35b600080fd5b8280fd5b91503461019357610100366003190112610193576101b36106b4565b916001600160a01b03916024358381169081900361018e576064359484861680960361018e5760a4359563ffffffff60e01b978888169283890361018e5760c4359288841680940361018e5760e4356001600160401b0381116103d25761021d90369089016107db565b94610226610919565b508352602096600188528884205460e01b9b8c16156103c4575082899a9b6102de9382938b9c6102989c519261025b84610731565b16998a83528b8301526044358d830152606082015260843560808201528660a08201528760c08201528b519a8b918b830193845260248301610944565b03996102ac601f199b8c810183528261079d565b5190305afa3d156103bc573d906102c2826107c0565b916102cf8b51938461079d565b82523d848984013e5b30611785565b9060a0828051810103126100a3575061039d936103a7999693889693610391936103b89a519b61030d8d61074c565b898d8261031b8a86016109aa565b8083528386015192838c820152610334606088016109aa565b8095820152608061035160a0828a0151998a6060860152016109be565b9101528d51986103608a610731565b895216898801528b870152166060850152608084015260a083015260c0820152855196879384015260248301610944565b0390810184528361079d565b5193848094610822565b60c060a084015260c083019061087e565b0390f35b6060906102d8565b8851631416e68f60e01b8152fd5b8380fd5b915034610193576103e6366106d7565b9060028454146104fb57600284556103fd82610905565b6000805160206117e9833981519152546001600160a01b0390811680151592909190836104ef575b505050156104b6575061043a60208201610905565b60c0820135601e19833603018112156104b2578201803593906001600160401b03908186116104aa57602081019580360387136104ae578101956020828803126104ae57359182116104aa57602061049a92816104a398019201016108a3565b92013590610fd7565b6001815580f35b8680fd5b8780fd5b8480fd5b606490602084519162461bcd60e51b835282015260136024820152722ab730baba3437b934bd32b21031b0b63632b960691b6044820152fd5b16149050388080610425565b8251633ee5aeb560e01b8152fd5b83346100a35760203660031901126100a3576001600160a01b0361052b6106b4565b166000805160206117e98339815191529060018060a01b031982541617905580f35b9084913461019357600319936080368601126103d25761056b6106b4565b926024359260443580151581036104aa57606435976001600160401b0389116104ae5760609089360301126104aa571561066557506001600160a01b03808411610648576e22d473030f116ddee9f6b43ac78ba390813b156104aa578251631b63c28b60e11b8152338582015230602482015285821660448201529086166064820152919086908390608490829084905af190811561063f5750610626575b5061061d9061062394955b3691016108a3565b91610fd7565b80f35b906106239461063761061d93610708565b94509061060a565b513d87823e3d90fd5b509160a060449351926306dfcc6560e41b84528301526024820152fd5b61061d929150956106af61062396976323b872dd60e01b6020820152336024820152306044820152856064820152606481526106a08161074c565b6001600160a01b03871661158f565b610615565b600435906001600160a01b038216820361018e57565b3590811515820361018e57565b6003199060208183011261018e57600435916001600160401b03831161018e578260e09203011261018e5760040190565b6001600160401b03811161071b57604052565b634e487b7160e01b600052604160045260246000fd5b60e081019081106001600160401b0382111761071b57604052565b60a081019081106001600160401b0382111761071b57604052565b606081019081106001600160401b0382111761071b57604052565b608081019081106001600160401b0382111761071b57604052565b601f909101601f19168101906001600160401b0382119082101761071b57604052565b6001600160401b03811161071b57601f01601f191660200190565b81601f8201121561018e578035906107f2826107c0565b92610800604051948561079d565b8284526020838301011161018e57816000926020809301838601378301015290565b6080809160018060a01b038082511685526020820151602086015260408201511660408501526060810151606085015201511515910152565b60005b83811061086e5750506000910152565b818101518382015260200161085e565b906020916108978151809281855285808601910161085b565b601f01601f1916010190565b91909160608184031261018e57604051906108bd82610767565b90928391908135906001600160401b03821161018e57826108e760409492610900948694016107db565b85526108f5602082016106ca565b6020860152016106ca565b910152565b356001600160a01b038116810361018e5790565b604051906109268261074c565b60006080838281528260208201528260408201528260608201520152565b61010060c06109a7936020845260018060a01b0380825116602086015280602083015116604086015260408201516060860152806060830151166080860152608082015160a086015260a0820151168285015201519160e080820152019061087e565b90565b51906001600160a01b038216820361018e57565b5190811515820361018e57565b81601f8201121561018e5780516109e1816107c0565b926109ef604051948561079d565b8184526020828401011161018e576109a7916020808501910161085b565b91909160808184031261018e57604051906001600160401b03608083018181118482101761071b5760405282948251600b81101561018e578452610a53602084016109aa565b6020850152604083015191821161018e5782610a7860609492610900948694016109cb565b6040860152016109be565b908151600b811015610aca57815260018060a01b036020830151166020820152606080610abf604085015160806040860152608085019061087e565b930151151591015290565b634e487b7160e01b600052602160045260246000fd5b91908260a091031261018e57604051610af88161074c565b6080808294805184526020810151602085015260408101516040850152606081015160608501520151910152565b919060a08382031261018e5760405190610b3f8261074c565b8193610b4a816109aa565b835260208101516020840152610b62604082016109aa565b6040840152610b73606082016109aa565b60608401526080810151916001600160401b03831161018e576080926109009201610a0d565b9080601f8301121561018e578151916020916001600160401b0380851161071b578460051b906040805196610bd08785018961079d565b875285808801938601019484861161018e57868101935b868510610bf957505050505050505090565b845184811161018e57820190606090601f198281858b03011261018e57855190610c2282610767565b8b85015188811161018e578501906101808091838d03011261018e578751918183018381108b821117610d3a5789528d81015183528d8982015190840152858101518984015260809182820151600481101561018e578785015260a092610c8a8484016109aa565b9085015260c092610c9c8484016109aa565b9085015260e092610cae8484016109aa565b9085015261010092610cc18484016109aa565b908501526101209283830151908501526101409283830151908501526101609283830151908501528101518a811161018e578e8d91610d019301016109cb565b908201528152858401519287841161018e5784610d258b8e809897819801016109cb565b85840152015186820152815201940193610be7565b60246000634e487b7160e01b81526041600452fd5b919060a08382031261018e5760405190610d688261074c565b8193610d73816109aa565b83526020818101519084015260408101516001600160401b03929083811161018e5781610da1918401610b99565b6040850152606082015183811161018e5781610dbe918401610b99565b6060850152608082015192831161018e5760809261090092016109cb565b9081606091031261018e578051916040602083015192015190565b9060a060806109a793600180841b038082511685526020820151602086015280604083015116604086015260608201511660608501520151918160808201520190610a83565b9080825180825260208092019180808360051b860101950193600080915b848310610e6c575050505050505090565b90919293949596601f198282030187528751906060825190808352815181840152878201519060809182850152604092838101519160a092838701528101519260c093600480821015610f695750610f4485889588958f9a95610f549560019d9a8d9c9801528101519260e0928d8060a01b03809516848b015282015190846101009216828b015282015192846101209416848b0152820151936101409416848a01528101519161016092838a01528101519261018093848a01528101516101a08901520151906101c08701526101e086019061087e565b868601518582038887015261087e565b93015191015299019701959493019190610e5b565b634e487b7160e01b8b526021905260248afd5b6109a79160018060a01b038251168152602082015160208201526080610fc6610fb4604085015160a0604086015260a0850190610e3d565b60608501518482036060860152610e3d565b92015190608081840391015261087e565b916020928382018051151580611582575b6115705751156112e8577f0000000000000000000000000000000000000000000000000000000000000000926001600160a01b03918216929061102c8186866116d0565b60409182516370c264df60e11b81528781600481895afa9081156112dd576000916112b0575b5042106111775751805181019160a08284031261018e576110748883016109aa565b916110808582016109aa565b9360608201519060808301519260a08101519160018060401b03831161018e576110b0928d809201920101610b26565b9281036111665760c094936110ff889485946000948a519b8c998a988997630783503d60e51b89521660048801521660248601526044850152606484015260a0608484015260a4830190610df7565b039289165af190811561115c575061111f575b5061111d9250611612565b565b60c03d60c011611155575b611134818361079d565b810160c08282031261018e5761111d9461114e9201610ae0565b5038611112565b503d61112a565b513d6000823e3d90fd5b8551633dbc91ed60e11b8152600490fd5b96959091965191825183019160a08482850194031261018e5761119b8185016109aa565b926111a78a86016109aa565b9460608101519160808201519360018060401b039485811161018e5782826111d192860101610b26565b9460a084015190811161018e576111e9930101610d4f565b92810361129f5760609493611248879461123686956000958f519b8c9a8b998a98631652a23360e21b8a52166004890152166024870152604486015260a0606486015260a4850190610df7565b83810360031901608485015290610f7c565b039288165af180156112945761111d949550611265575b50611612565b6112869060603d60601161128d575b61127e818361079d565b810190610ddc565b505061125f565b503d611274565b85513d6000823e3d90fd5b8951633dbc91ed60e11b8152600490fd5b90508781813d83116112d6575b6112c7818361079d565b8101031261018e575138611052565b503d6112bd565b84513d6000823e3d90fd5b6040828101519495909490939015611472577f0000000000000000000000000000000000000000000000000000000000000000926001600160a01b0392831692906113348386866116d0565b5180518101928189850194610140938491031261018e576113568a82016109aa565b926113628a83016109aa565b9560608301519b6113768260808601610ae0565b61012085015190926001600160401b039182811161018e57818461139c92890101610b26565b958581015192831161018e576113b492018301610d4f565b948185015103611461578b9c8780999a9b9c9d519a8b998a9963640fc23d60e11b8b521660048a015216602488015260448701528151606487015281015160848601528b81015160a4860152606081015160c48601526080015160e4850152610104840152610144830161142791610df7565b8281036003190161012484015261143d91610f7c565b0391851691815a606094600091f180156112945761111d9495506112655750611612565b8b51633dbc91ed60e11b8152600490fd5b845163a9059cbb60e01b8188015293959094936001600160a01b03928316937f00000000000000000000000000000000000000000000000000000000000000009392916114df906114d9816114cb8b89602484016115f7565b03601f19810183528261079d565b8661158f565b518051810191808284031261018e57818101516001600160401b03811161018e578161150e9401920101610a0d565b9116803b1561018e5761154d9460008094865197889586948593630af6e08f60e21b855260048501526024840152606060448401526064830190610a83565b03925af190811561115c5750611561575b50565b61156a90610708565b3861155e565b604051633a8d640760e21b8152600490fd5b5060408301511515610fe8565b906000602091828151910182855af1156115eb576000513d6115e257506001600160a01b0381163b155b6115c05750565b604051635274afe760e01b81526001600160a01b039091166004820152602490fd5b600114156115b9565b6040513d6000823e3d90fd5b6001600160a01b039091168152602081019190915260400190565b60405190602082019263095ea7b360e01b80855260018060a01b03809216918260248601526020600080978160448901526044885261165088610782565b87519082885af1903d875190836116af575b50505015611672575b5050505050565b6116a5946116a092604051926020840152602483015260448201526044815261169a81610782565b8261158f565b61158f565b388080808061166b565b919250906116c6575083163b15155b388080611662565b60019150146116be565b6040519160206000818501611706866116f863095ea7b360e01b998a855287602484016115f7565b03601f19810188528761079d565b85519082865af16000513d82611760575b505015611725575b50505050565b611757936116a09160405191602083015260018060a01b03166024820152600060448201526044815261169a81610782565b3880808061171f565b90915061177d57506001600160a01b0382163b15155b3880611717565b600114611776565b906117ac575080511561179a57805190602001fd5b60405163d6bda27560e01b8152600490fd5b815115806117df575b6117bd575090565b604051639996b31560e01b81526001600160a01b039091166004820152602490fd5b50803b156117b556fec9e4fb8bffaf71b56abf2a5032f2ea641e97267f8c0d9bcf66c86998c650d62aa26469706673582212202656af77e3f90abf15fddbe0b15f04f3fc7986c34283dcb6a7e70f0e68e582bb64736f6c63430008160033",
  "linkReferences": {},
  "deployedLinkReferences": {}
}