{
  "_format": "hh-sol-artifact-1",
  "contractName": "TestTransferFacetHelper",
  "sourceName": "contracts/test/TestTransferFacetHelper.sol",
  "abi": [
    {
      "inputs": [],
      "name": "AccessControlBadConfirmation",
      "type": "error"
    },
    {
      "inputs": [
        {
          "internalType": "address",
          "name": "account",
          "type": "address"
        },
        {
          "internalType": "bytes32",
          "name": "neededRole",
          "type": "bytes32"
        }
      ],
      "name": "AccessControlUnauthorizedAccount",
      "type": "error"
    },
    {
      "inputs": [
        {
          "internalType": "address",
          "name": "token",
          "type": "address"
        }
      ],
      "name": "SafeERC20FailedOperation",
      "type": "error"
    },
    {
      "inputs": [],
      "name": "SelfTransferNotAllowed",
      "type": "error"
    },
    {
      "inputs": [],
      "name": "ZeroAddress",
      "type": "error"
    },
    {
      "inputs": [],
      "name": "ZeroAmount",
      "type": "error"
    },
    {
      "anonymous": false,
      "inputs": [
        {
          "indexed": true,
          "internalType": "bytes32",
          "name": "role",
          "type": "bytes32"
        },
        {
          "indexed": true,
          "internalType": "bytes32",
          "name": "previousAdminRole",
          "type": "bytes32"
        },
        {
          "indexed": true,
          "internalType": "bytes32",
          "name": "newAdminRole",
          "type": "bytes32"
        }
      ],
      "name": "RoleAdminChanged",
      "type": "event"
    },
    {
      "anonymous": false,
      "inputs": [
        {
          "indexed": true,
          "internalType": "bytes32",
          "name": "role",
          "type": "bytes32"
        },
        {
          "indexed": true,
          "internalType": "address",
          "name": "account",
          "type": "address"
        },
        {
          "indexed": true,
          "internalType": "address",
          "name": "sender",
          "type": "address"
        }
      ],
      "name": "RoleGranted",
      "type": "event"
    },
    {
      "anonymous": false,
      "inputs": [
        {
          "indexed": true,
          "internalType": "bytes32",
          "name": "role",
          "type": "bytes32"
        },
        {
          "indexed": true,
          "internalType": "address",
          "name": "account",
          "type": "address"
        },
        {
          "indexed": true,
          "internalType": "address",
          "name": "sender",
          "type": "address"
        }
      ],
      "name": "RoleRevoked",
      "type": "event"
    },
    {
      "inputs": [],
      "name": "DEFAULT_ADMIN_ROLE",
      "outputs": [
        {
          "internalType": "bytes32",
          "name": "",
          "type": "bytes32"
        }
      ],
      "stateMutability": "view",
      "type": "function"
    },
    {
      "inputs": [],
      "name": "clearMulticallInitiator",
      "outputs": [],
      "stateMutability": "nonpayable",
      "type": "function"
    },
    {
      "inputs": [
        {
          "internalType": "address",
          "name": "asset",
          "type": "address"
        },
        {
          "internalType": "address",
          "name": "recipient",
          "type": "address"
        },
        {
          "internalType": "uint256",
          "name": "amount",
          "type": "uint256"
        }
      ],
      "name": "erc20Transfer",
      "outputs": [],
      "stateMutability": "nonpayable",
      "type": "function"
    },
    {
      "inputs": [
        {
          "internalType": "address",
          "name": "asset",
          "type": "address"
        },
        {
          "internalType": "uint256",
          "name": "amount",
          "type": "uint256"
        }
      ],
      "name": "erc20TransferFrom",
      "outputs": [],
      "stateMutability": "nonpayable",
      "type": "function"
    },
    {
      "inputs": [
        {
          "internalType": "bytes32",
          "name": "role",
          "type": "bytes32"
        }
      ],
      "name": "getRoleAdmin",
      "outputs": [
        {
          "internalType": "bytes32",
          "name": "",
          "type": "bytes32"
        }
      ],
      "stateMutability": "view",
      "type": "function"
    },
    {
      "inputs": [
        {
          "internalType": "address",
          "name": "account",
          "type": "address"
        }
      ],
      "name": "grantAdminRole",
      "outputs": [],
      "stateMutability": "nonpayable",
      "type": "function"
    },
    {
      "inputs": [
        {
          "internalType": "bytes32",
          "name": "role",
          "type": "bytes32"
        },
        {
          "internalType": "address",
          "name": "account",
          "type": "address"
        }
      ],
      "name": "grantRole",
      "outputs": [],
      "stateMutability": "nonpayable",
      "type": "function"
    },
    {
      "inputs": [
        {
          "internalType": "bytes32",
          "name": "role",
          "type": "bytes32"
        },
        {
          "internalType": "address",
          "name": "account",
          "type": "address"
        }
      ],
      "name": "hasRole",
      "outputs": [
        {
          "internalType": "bool",
          "name": "",
          "type": "bool"
        }
      ],
      "stateMutability": "view",
      "type": "function"
    },
    {
      "inputs": [
        {
          "internalType": "bytes32",
          "name": "role",
          "type": "bytes32"
        },
        {
          "internalType": "address",
          "name": "callerConfirmation",
          "type": "address"
        }
      ],
      "name": "renounceRole",
      "outputs": [],
      "stateMutability": "nonpayable",
      "type": "function"
    },
    {
      "inputs": [
        {
          "internalType": "bytes32",
          "name": "role",
          "type": "bytes32"
        },
        {
          "internalType": "address",
          "name": "account",
          "type": "address"
        }
      ],
      "name": "revokeRole",
      "outputs": [],
      "stateMutability": "nonpayable",
      "type": "function"
    },
    {
      "inputs": [
        {
          "internalType": "address",
          "name": "_initiator",
          "type": "address"
        }
      ],
      "name": "setMulticallInitiator",
      "outputs": [],
      "stateMutability": "nonpayable",
      "type": "function"
    },
    {
      "inputs": [
        {
          "internalType": "bytes4",
          "name": "interfaceId",
          "type": "bytes4"
        }
      ],
      "name": "supportsInterface",
      "outputs": [
        {
          "internalType": "bool",
          "name": "",
          "type": "bool"
        }
      ],
      "stateMutability": "view",
      "type": "function"
    }
  ],
  "bytecode": "0x60808060405234610016576107df908161001c8239f35b600080fdfe608060408181526004908136101561001657600080fd5b600092833560e01c90816301ffc9a7146104ae5750806306f7664d1461045f578063248a9ca3146104355780632f2ff15d1461040d57806336568abe146103c65780633790767d146102ce57806370dc41fe146101a45780637a498e1d1461017257806391d148541461012c578063a217fddf1461010d578063c634b78e146100e85763d547741f146100a857600080fd5b346100e457806003193601126100e4576100e091356100db60016100ca61051d565b938387528660205286200154610533565b61066c565b5080f35b8280fd5b833461010a57602036600319011261010a576100e0610105610502565b610577565b80fd5b83823461012857816003193601126101285751908152602090f35b5080fd5b5090346100e457816003193601126100e4578160209360ff9261014d61051d565b903582528186528282206001600160a01b039091168252855220549151911615158152f35b833461010a578060031936011261010a5760008051602061076a8339815191528054610100600160a81b031916905580f35b508290346101285780600319360112610128576101bf610502565b60008051602061076a8339815191525460081c6001600160a01b0390811692909190602435841561029b578433036102695780156102595781516323b872dd60e01b60208201526024810195909552306044860152606480860191909152845260a08401906001600160401b038211858310176102465761024395965052166106e1565b80f35b634e487b7160e01b865260418752602486fd5b8151631f2a200560e01b81528790fd5b815162461bcd60e51b8152602081890152600c60248201526b1d5b985d5d1a1bdc9a5e995960a21b6044820152606490fd5b815162461bcd60e51b8152602081890152600d60248201526c1d5b9a5b9a5d1a585b1a5e9959609a1b6044820152606490fd5b50829034610128576060366003190112610128576102ea610502565b6102f261051d565b906044359260008051602061078a8339815191528086528560205281862033875260205260ff8287205416156103a857506001600160a01b039283169384156103985730851461038857801561025957815163a9059cbb60e01b60208201526024810195909552604480860191909152845260808401906001600160401b038211858310176102465761024395965052166106e1565b81516352a7f8fb60e01b81528790fd5b815163d92e233d60e01b81528790fd5b905163e2517d3f60e01b815233818801526024810191909152604490fd5b508290346101285780600319360112610128576103e161051d565b90336001600160a01b038316036103fe57506100e091923561066c565b5163334bd91960e11b81528390fd5b50346100e457806003193601126100e4576100e0913561043060016100ca61051d565b610605565b5090346100e45760203660031901126100e457816020936001923581528085522001549051908152f35b833461010a57602036600319011261010a57610479610502565b60008051602061076a8339815191528054610100600160a81b03191660089290921b610100600160a81b031691909117905580f35b849084346100e45760203660031901126100e4573563ffffffff60e01b81168091036100e45760209250637965db0b60e01b81149081156104f1575b5015158152f35b6301ffc9a760e01b149050836104ea565b600435906001600160a01b038216820361051857565b600080fd5b602435906001600160a01b038216820361051857565b80600052600060205260406000203360005260205260ff60406000205416156105595750565b6044906040519063e2517d3f60e01b82523360048301526024820152fd5b6001600160a01b031660008181527f7d7ffb7a348e1c6a02869081a26547b49160dd3df72d1d75a570eb9b698292ec602052604081205490919060008051602061078a8339815191529060ff1661060057808352826020526040832082845260205260408320600160ff1982541617905560008051602061074a833981519152339380a4600190565b505090565b9060009180835282602052604083209160018060a01b03169182845260205260ff6040842054161560001461060057808352826020526040832082845260205260408320600160ff1982541617905560008051602061074a833981519152339380a4600190565b9060009180835282602052604083209160018060a01b03169182845260205260ff6040842054166000146106005780835282602052604083208284526020526040832060ff1981541690557ff6391f5c32d9c69d2a47ea670b442974b53935d1edc7fd64eb21e047a839171b339380a4600190565b906000602091828151910182855af11561073d576000513d61073457506001600160a01b0381163b155b6107125750565b604051635274afe760e01b81526001600160a01b039091166004820152602490fd5b6001141561070b565b6040513d6000823e3d90fdfe2f8788117e7eff1d82e926ec794901d17c78024a50270940304540a733656f0d2a2e13707d6b40952f0aec05e2811137753b06b56d55208636050ec9ee68dd78a49807205ce4d355092ef5a8a18f56e8913cf4a201fbe287825b095693c21775a26469706673582212207a9960346abaafcd7cc993b8deca2a119780c4a73b756533d974c67adcdf824464736f6c63430008160033",
  "linkReferences": {},
  "deployedLinkReferences": {}
}