{
  "_format": "hh-sol-artifact-1",
  "contractName": "TestMockRepoTokenFull",
  "sourceName": "contracts/test/TestMockRepoTokenFull.sol",
  "abi": [
    {
      "inputs": [
        {
          "internalType": "string",
          "name": "name",
          "type": "string"
        },
        {
          "internalType": "string",
          "name": "symbol",
          "type": "string"
        },
        {
          "internalType": "uint256",
          "name": "redemptionVal",
          "type": "uint256"
        }
      ],
      "stateMutability": "nonpayable",
      "type": "constructor"
    },
    {
      "inputs": [
        {
          "internalType": "address",
          "name": "spender",
          "type": "address"
        },
        {
          "internalType": "uint256",
          "name": "allowance",
          "type": "uint256"
        },
        {
          "internalType": "uint256",
          "name": "needed",
          "type": "uint256"
        }
      ],
      "name": "ERC20InsufficientAllowance",
      "type": "error"
    },
    {
      "inputs": [
        {
          "internalType": "address",
          "name": "sender",
          "type": "address"
        },
        {
          "internalType": "uint256",
          "name": "balance",
          "type": "uint256"
        },
        {
          "internalType": "uint256",
          "name": "needed",
          "type": "uint256"
        }
      ],
      "name": "ERC20InsufficientBalance",
      "type": "error"
    },
    {
      "inputs": [
        {
          "internalType": "address",
          "name": "approver",
          "type": "address"
        }
      ],
      "name": "ERC20InvalidApprover",
      "type": "error"
    },
    {
      "inputs": [
        {
          "internalType": "address",
          "name": "receiver",
          "type": "address"
        }
      ],
      "name": "ERC20InvalidReceiver",
      "type": "error"
    },
    {
      "inputs": [
        {
          "internalType": "address",
          "name": "sender",
          "type": "address"
        }
      ],
      "name": "ERC20InvalidSender",
      "type": "error"
    },
    {
      "inputs": [
        {
          "internalType": "address",
          "name": "spender",
          "type": "address"
        }
      ],
      "name": "ERC20InvalidSpender",
      "type": "error"
    },
    {
      "anonymous": false,
      "inputs": [
        {
          "indexed": true,
          "internalType": "address",
          "name": "owner",
          "type": "address"
        },
        {
          "indexed": true,
          "internalType": "address",
          "name": "spender",
          "type": "address"
        },
        {
          "indexed": false,
          "internalType": "uint256",
          "name": "value",
          "type": "uint256"
        }
      ],
      "name": "Approval",
      "type": "event"
    },
    {
      "anonymous": false,
      "inputs": [
        {
          "indexed": true,
          "internalType": "address",
          "name": "from",
          "type": "address"
        },
        {
          "indexed": true,
          "internalType": "address",
          "name": "to",
          "type": "address"
        },
        {
          "indexed": false,
          "internalType": "uint256",
          "name": "value",
          "type": "uint256"
        }
      ],
      "name": "Transfer",
      "type": "event"
    },
    {
      "inputs": [
        {
          "internalType": "address",
          "name": "owner",
          "type": "address"
        },
        {
          "internalType": "address",
          "name": "spender",
          "type": "address"
        }
      ],
      "name": "allowance",
      "outputs": [
        {
          "internalType": "uint256",
          "name": "",
          "type": "uint256"
        }
      ],
      "stateMutability": "view",
      "type": "function"
    },
    {
      "inputs": [
        {
          "internalType": "address",
          "name": "spender",
          "type": "address"
        },
        {
          "internalType": "uint256",
          "name": "value",
          "type": "uint256"
        }
      ],
      "name": "approve",
      "outputs": [
        {
          "internalType": "bool",
          "name": "",
          "type": "bool"
        }
      ],
      "stateMutability": "nonpayable",
      "type": "function"
    },
    {
      "inputs": [
        {
          "internalType": "address",
          "name": "account",
          "type": "address"
        }
      ],
      "name": "balanceOf",
      "outputs": [
        {
          "internalType": "uint256",
          "name": "",
          "type": "uint256"
        }
      ],
      "stateMutability": "view",
      "type": "function"
    },
    {
      "inputs": [],
      "name": "config",
      "outputs": [
        {
          "internalType": "uint256",
          "name": "redemptionTimestamp",
          "type": "uint256"
        },
        {
          "internalType": "address",
          "name": "purchaseToken",
          "type": "address"
        },
        {
          "internalType": "address",
          "name": "termRepoServicer",
          "type": "address"
        },
        {
          "internalType": "address",
          "name": "termRepoCollateralManager",
          "type": "address"
        }
      ],
      "stateMutability": "view",
      "type": "function"
    },
    {
      "inputs": [],
      "name": "decimals",
      "outputs": [
        {
          "internalType": "uint8",
          "name": "",
          "type": "uint8"
        }
      ],
      "stateMutability": "view",
      "type": "function"
    },
    {
      "inputs": [
        {
          "internalType": "address",
          "name": "account",
          "type": "address"
        },
        {
          "internalType": "uint256",
          "name": "amount",
          "type": "uint256"
        }
      ],
      "name": "mint",
      "outputs": [],
      "stateMutability": "nonpayable",
      "type": "function"
    },
    {
      "inputs": [],
      "name": "name",
      "outputs": [
        {
          "internalType": "string",
          "name": "",
          "type": "string"
        }
      ],
      "stateMutability": "view",
      "type": "function"
    },
    {
      "inputs": [],
      "name": "redemptionValue",
      "outputs": [
        {
          "internalType": "uint256",
          "name": "",
          "type": "uint256"
        }
      ],
      "stateMutability": "view",
      "type": "function"
    },
    {
      "inputs": [
        {
          "internalType": "uint256",
          "name": "redemptionTimestamp",
          "type": "uint256"
        },
        {
          "internalType": "address",
          "name": "purchaseToken",
          "type": "address"
        },
        {
          "internalType": "address",
          "name": "termRepoServicer",
          "type": "address"
        },
        {
          "internalType": "address",
          "name": "termRepoCollateralManager",
          "type": "address"
        }
      ],
      "name": "setConfig",
      "outputs": [],
      "stateMutability": "nonpayable",
      "type": "function"
    },
    {
      "inputs": [
        {
          "internalType": "uint256",
          "name": "val",
          "type": "uint256"
        }
      ],
      "name": "setRedemptionValue",
      "outputs": [],
      "stateMutability": "nonpayable",
      "type": "function"
    },
    {
      "inputs": [],
      "name": "symbol",
      "outputs": [
        {
          "internalType": "string",
          "name": "",
          "type": "string"
        }
      ],
      "stateMutability": "view",
      "type": "function"
    },
    {
      "inputs": [],
      "name": "totalSupply",
      "outputs": [
        {
          "internalType": "uint256",
          "name": "",
          "type": "uint256"
        }
      ],
      "stateMutability": "view",
      "type": "function"
    },
    {
      "inputs": [
        {
          "internalType": "address",
          "name": "to",
          "type": "address"
        },
        {
          "internalType": "uint256",
          "name": "value",
          "type": "uint256"
        }
      ],
      "name": "transfer",
      "outputs": [
        {
          "internalType": "bool",
          "name": "",
          "type": "bool"
        }
      ],
      "stateMutability": "nonpayable",
      "type": "function"
    },
    {
      "inputs": [
        {
          "internalType": "address",
          "name": "from",
          "type": "address"
        },
        {
          "internalType": "address",
          "name": "to",
          "type": "address"
        },
        {
          "internalType": "uint256",
          "name": "value",
          "type": "uint256"
        }
      ],
      "name": "transferFrom",
      "outputs": [
        {
          "internalType": "bool",
          "name": "",
          "type": "bool"
        }
      ],
      "stateMutability": "nonpayable",
      "type": "function"
    }
  ],
  "bytecode": "0x608060405234620003275762000bf6803803806200001d816200032c565b9283398101606082820312620003275781516001600160401b03908181116200032757826200004e91850162000352565b906020928385015182811162000327576040916200006e91870162000352565b94015193825182811162000227576003918254916001958684811c941680156200031c575b8885101462000306578190601f94858111620002b0575b50889085831160011462000249576000926200023d575b505060001982861b1c191690861b1783555b8051938411620002275760049586548681811c911680156200021c575b828210146200020757838111620001bc575b50809285116001146200014e575093839491849260009562000142575b50501b92600019911b1c19161790555b6005556040516108319081620003c58239f35b0151935038806200011f565b92919084601f1981168860005285600020956000905b89838310620001a1575050501062000186575b50505050811b0190556200012f565b01519060f884600019921b161c191690553880808062000177565b85870151895590970196948501948893509081019062000164565b87600052816000208480880160051c820192848910620001fd575b0160051c019087905b828110620001f057505062000102565b60008155018790620001e0565b92508192620001d7565b602288634e487b7160e01b6000525260246000fd5b90607f1690620000f0565b634e487b7160e01b600052604160045260246000fd5b015190503880620000c1565b90889350601f19831691876000528a6000209260005b8c82821062000299575050841162000280575b505050811b018355620000d3565b015160001983881b60f8161c1916905538808062000272565b8385015186558c979095019493840193016200025f565b90915085600052886000208580850160051c8201928b8610620002fc575b918a91869594930160051c01915b828110620002ec575050620000aa565b600081558594508a9101620002dc565b92508192620002ce565b634e487b7160e01b600052602260045260246000fd5b93607f169362000093565b600080fd5b6040519190601f01601f191682016001600160401b038111838210176200022757604052565b919080601f84011215620003275782516001600160401b038111620002275760209062000388601f8201601f191683016200032c565b92818452828287010111620003275760005b818110620003b057508260009394955001015290565b85810183015184820184015282016200039a56fe608060408181526004918236101561001657600080fd5b600092833560e01c91826306fdde03146105d057508163095ea7b31461052657816318160ddd1461050757816323b872dd1461041a578163313ce567146103fe5781633b18b984146103e457816340c10f191461034a57816370a082311461031357816379502c55146102ce57816395d89b41146101cb578163a9059cbb1461019a578163bf8a0d1d1461012857508063dd62ed3e146100e05763ef4474cd146100bf57600080fd5b346100dc57816003193601126100dc576020906005549051908152f35b5080fd5b50346100dc57806003193601126100dc57806020926100fd6106d5565b6101056106f0565b6001600160a01b0391821683526001865283832091168252845220549051908152f35b8390346100dc5760803660031901126100dc576101436106f0565b6044356001600160a01b03818116918290036101965760643593818516809503610192573560065560018060a01b03199216826007541617600755816008541617600855600954161760095580f35b8580fd5b8480fd5b5050346100dc57806003193601126100dc576020906101c46101ba6106d5565b6024359033610724565b5160018152f35b8383346100dc57816003193601126100dc5780519082845460018160011c90600183169283156102c4575b60209384841081146102b157838852908115610295575060011461025d575b505050829003601f01601f19168201926001600160401b0384118385101761024a575082918261024692528261068c565b0390f35b634e487b7160e01b815260418552602490fd5b919250868652828620918387935b8385106102815750505050830101858080610215565b80548886018301529301928490820161026b565b60ff1916878501525050151560051b8401019050858080610215565b634e487b7160e01b895260228a52602489fd5b91607f16916101f6565b5050346100dc57816003193601126100dc576080906006549060018060a01b038060075416918160085416916009541692815194855260208501528301526060820152f35b5050346100dc5760203660031901126100dc5760209181906001600160a01b0361033b6106d5565b16815280845220549051908152f35b919050346103e057806003193601126103e0576103656106d5565b6001600160a01b031691602435919083156103cb57600254908382018092116103b8575084926000805160206107dc8339815191529260209260025585855284835280852082815401905551908152a380f35b634e487b7160e01b865260119052602485fd5b84602492519163ec442f0560e01b8352820152fd5b8280fd5b8390346100dc5760203660031901126100dc573560055580f35b5050346100dc57816003193601126100dc576020905160128152f35b90508234610504576060366003190112610504576104366106d5565b61043e6106f0565b916044359360018060a01b03831680835260016020528683203384526020528683205491600019831061047a575b6020886101c4898989610724565b8683106104e25781156104cb5733156104b4575082526001602090815286832033845281529186902090859003905582906101c48761046c565b8751634a1406b160e11b8152908101849052602490fd5b875163e602df0560e01b8152908101849052602490fd5b9050610500868851938493637dc7a0d960e11b855233908501610706565b0390fd5b80fd5b5050346100dc57816003193601126100dc576020906002549051908152f35b9050346103e057816003193601126103e0576105406106d5565b6024359033156105b9576001600160a01b03169182156105a257508083602095338152600187528181208582528752205582519081527f8c5be1e5ebec7d5bd14f71427d1e84f3dd0314c0f7b2291e5b200ac8c7c3b925843392a35160018152f35b8351634a1406b160e11b8152908101859052602490fd5b835163e602df0560e01b8152808401869052602490fd5b849084346103e057826003193601126103e0578260035460018160011c9060018316928315610682575b60209384841081146102b157838852908115610295575060011461064957505050829003601f01601f19168201926001600160401b0384118385101761024a575082918261024692528261068c565b91925060038652828620918387935b83851061066e5750505050830101858080610215565b805488860183015293019284908201610658565b91607f16916105fa565b6020808252825181830181905290939260005b8281106106c157505060409293506000838284010152601f8019910116010190565b81810186015184820160400152850161069f565b600435906001600160a01b03821682036106eb57565b600080fd5b602435906001600160a01b03821682036106eb57565b604091949392606082019560018060a01b0316825260208201520152565b916001600160a01b038084169283156107c257169283156107a9576000908382528160205260408220549083821061078c575091604082826000805160206107dc833981519152958760209652828652038282205586815220818154019055604051908152a3565b6105008460405193849363391434e360e21b855260048501610706565b60405163ec442f0560e01b815260006004820152602490fd5b604051634b637e8f60e11b815260006004820152602490fdfeddf252ad1be2c89b69c2b068fc378daa952ba7f163c4a11628f55a4df523b3efa26469706673582212209c149f2c5dc434d2bc94284c170e618866689fc63bb6de672c1e2ce4948dde4d64736f6c63430008160033",
  "linkReferences": {},
  "deployedLinkReferences": {}
}