{
  "_format": "hh-sol-artifact-1",
  "contractName": "TermStrategyFacet",
  "sourceName": "contracts/facets/TermStrategyFacet.sol",
  "abi": [
    {
      "inputs": [],
      "stateMutability": "nonpayable",
      "type": "constructor"
    },
    {
      "inputs": [
        {
          "internalType": "address",
          "name": "target",
          "type": "address"
        }
      ],
      "name": "AddressEmptyCode",
      "type": "error"
    },
    {
      "inputs": [],
      "name": "AfterMaturity",
      "type": "error"
    },
    {
      "inputs": [],
      "name": "FailedCall",
      "type": "error"
    },
    {
      "inputs": [],
      "name": "InputOutputTokenCollision",
      "type": "error"
    },
    {
      "inputs": [],
      "name": "InvalidCollateralToken",
      "type": "error"
    },
    {
      "inputs": [],
      "name": "InvalidRepoId",
      "type": "error"
    },
    {
      "inputs": [],
      "name": "InvalidStrategy",
      "type": "error"
    },
    {
      "inputs": [],
      "name": "InvalidTermController",
      "type": "error"
    },
    {
      "inputs": [],
      "name": "NoProceedsReceived",
      "type": "error"
    },
    {
      "inputs": [],
      "name": "NotEnoughProceedsReceived",
      "type": "error"
    },
    {
      "inputs": [],
      "name": "PurchaseTokenMismatch",
      "type": "error"
    },
    {
      "inputs": [],
      "name": "ReentrancyGuardReentrantCall",
      "type": "error"
    },
    {
      "inputs": [],
      "name": "RepoRedemptionHaircutNotSupported",
      "type": "error"
    },
    {
      "inputs": [],
      "name": "RepoTokensNotFullyConsumed",
      "type": "error"
    },
    {
      "inputs": [
        {
          "internalType": "uint8",
          "name": "bits",
          "type": "uint8"
        },
        {
          "internalType": "uint256",
          "name": "value",
          "type": "uint256"
        }
      ],
      "name": "SafeCastOverflowedUintDowncast",
      "type": "error"
    },
    {
      "inputs": [
        {
          "internalType": "address",
          "name": "token",
          "type": "address"
        }
      ],
      "name": "SafeERC20FailedOperation",
      "type": "error"
    },
    {
      "inputs": [],
      "name": "UnsupportedHookSelector",
      "type": "error"
    },
    {
      "inputs": [
        {
          "internalType": "address",
          "name": "user",
          "type": "address"
        },
        {
          "internalType": "address",
          "name": "inputToken",
          "type": "address"
        },
        {
          "internalType": "uint256",
          "name": "maxInputAmount",
          "type": "uint256"
        },
        {
          "internalType": "address",
          "name": "outputToken",
          "type": "address"
        },
        {
          "internalType": "uint256",
          "name": "minOutputAmount",
          "type": "uint256"
        },
        {
          "internalType": "bytes4",
          "name": "selector",
          "type": "bytes4"
        },
        {
          "internalType": "address",
          "name": "targetAddress",
          "type": "address"
        },
        {
          "internalType": "bytes",
          "name": "additionalCalldata",
          "type": "bytes"
        }
      ],
      "name": "generateActionCalldata",
      "outputs": [
        {
          "components": [
            {
              "internalType": "address",
              "name": "expectedInputToken",
              "type": "address"
            },
            {
              "internalType": "uint256",
              "name": "expectedInputAmount",
              "type": "uint256"
            },
            {
              "internalType": "address",
              "name": "expectedOutputToken",
              "type": "address"
            },
            {
              "internalType": "uint256",
              "name": "expectedOutputAmount",
              "type": "uint256"
            },
            {
              "internalType": "bool",
              "name": "isDeterministic",
              "type": "bool"
            }
          ],
          "internalType": "struct PreviewAction",
          "name": "",
          "type": "tuple"
        },
        {
          "internalType": "bytes",
          "name": "",
          "type": "bytes"
        }
      ],
      "stateMutability": "view",
      "type": "function"
    },
    {
      "inputs": [
        {
          "internalType": "contract IStrategy",
          "name": "strategy",
          "type": "address"
        },
        {
          "internalType": "address",
          "name": "termRepoServicer",
          "type": "address"
        },
        {
          "internalType": "uint256",
          "name": "borrowAmount",
          "type": "uint256"
        },
        {
          "internalType": "uint256[]",
          "name": "collateralAmounts",
          "type": "uint256[]"
        },
        {
          "internalType": "bool",
          "name": "usePermit2",
          "type": "bool"
        }
      ],
      "name": "mintAndSellRepoToken",
      "outputs": [
        {
          "internalType": "uint256",
          "name": "proceeds",
          "type": "uint256"
        }
      ],
      "stateMutability": "nonpayable",
      "type": "function"
    },
    {
      "inputs": [
        {
          "components": [
            {
              "internalType": "address",
              "name": "user",
              "type": "address"
            },
            {
              "internalType": "address",
              "name": "inputToken",
              "type": "address"
            },
            {
              "internalType": "uint256",
              "name": "maxInputAmount",
              "type": "uint256"
            },
            {
              "internalType": "address",
              "name": "outputToken",
              "type": "address"
            },
            {
              "internalType": "uint256",
              "name": "minOutputAmount",
              "type": "uint256"
            },
            {
              "internalType": "address",
              "name": "targetAddress",
              "type": "address"
            },
            {
              "internalType": "bytes",
              "name": "additionalCalldata",
              "type": "bytes"
            }
          ],
          "internalType": "struct ActionHookInput",
          "name": "input",
          "type": "tuple"
        }
      ],
      "name": "mintAndSellRepoTokenHook",
      "outputs": [
        {
          "internalType": "uint256",
          "name": "proceeds",
          "type": "uint256"
        }
      ],
      "stateMutability": "nonpayable",
      "type": "function"
    },
    {
      "inputs": [
        {
          "internalType": "bytes4",
          "name": "",
          "type": "bytes4"
        }
      ],
      "name": "previewMapping",
      "outputs": [
        {
          "internalType": "bytes4",
          "name": "",
          "type": "bytes4"
        }
      ],
      "stateMutability": "view",
      "type": "function"
    },
    {
      "inputs": [
        {
          "components": [
            {
              "internalType": "address",
              "name": "user",
              "type": "address"
            },
            {
              "internalType": "address",
              "name": "inputToken",
              "type": "address"
            },
            {
              "internalType": "uint256",
              "name": "maxInputAmount",
              "type": "uint256"
            },
            {
              "internalType": "address",
              "name": "outputToken",
              "type": "address"
            },
            {
              "internalType": "uint256",
              "name": "minOutputAmount",
              "type": "uint256"
            },
            {
              "internalType": "address",
              "name": "targetAddress",
              "type": "address"
            },
            {
              "internalType": "bytes",
              "name": "additionalCalldata",
              "type": "bytes"
            }
          ],
          "internalType": "struct ActionHookInput",
          "name": "actionHookInput",
          "type": "tuple"
        }
      ],
      "name": "previewMintAndSellRepoToken",
      "outputs": [
        {
          "components": [
            {
              "internalType": "address",
              "name": "expectedInputToken",
              "type": "address"
            },
            {
              "internalType": "uint256",
              "name": "expectedInputAmount",
              "type": "uint256"
            },
            {
              "internalType": "address",
              "name": "expectedOutputToken",
              "type": "address"
            },
            {
              "internalType": "uint256",
              "name": "expectedOutputAmount",
              "type": "uint256"
            },
            {
              "internalType": "bool",
              "name": "isDeterministic",
              "type": "bool"
            }
          ],
          "internalType": "struct PreviewAction",
          "name": "",
          "type": "tuple"
        }
      ],
      "stateMutability": "view",
      "type": "function"
    },
    {
      "inputs": [
        {
          "internalType": "contract IStrategy",
          "name": "strategy",
          "type": "address"
        },
        {
          "internalType": "address",
          "name": "repoToken",
          "type": "address"
        },
        {
          "internalType": "uint256",
          "name": "repoTokenAmount",
          "type": "uint256"
        }
      ],
      "name": "sellRepoToken",
      "outputs": [
        {
          "internalType": "uint256",
          "name": "proceeds",
          "type": "uint256"
        }
      ],
      "stateMutability": "nonpayable",
      "type": "function"
    }
  ],
  "bytecode": "0x6080806040523461005c57600160008181556357ccc18f60e01b90526020527f0c4132dc41c447780dca5d330c73b60047a692891a63cd27e664d52cece66176805463ffffffff191663c818a6481790556135ce90816100628239f35b600080fdfe608080604052600436101561001357600080fd5b600090813560e01c90816357ccc18f14611b91575080639ef72eff14611915578063c3246edc146118d1578063c3922374146115d0578063c818a648146113ff5763ccd90f151461006357600080fd5b346113fc5760a03660031901126113fc5761007c612d0c565b610084612d22565b6001600160401b0360643581106113f8573660236064350112156113f85760643560040135116113f4573660246064356004013560051b6064350101116113f4576084351515608435036113f457600080516020613579833981519152546001600160a01b0381166113b2576001600160a01b0319163317600080516020613579833981519152556101146130df565b604051630f7a077160e21b8152906020826004816001600160a01b0385165afa9182156113a7578492611386575b50835b6064356004013560ff821610156103125760405163172c48c760e01b815260ff821660048201526020816024816001600160a01b0388165afa9081156103075786916102c9575b5060843515610297576001600160a01b03606435600584901b611fe0160160240135116102695785906e22d473030f116ddee9f6b43ac78ba33b156102655760405190631b63c28b60e11b825233600483015230602483015260018060a01b036024611fe08660051b1660643501013516604483015260018060a01b031660648201528181608481836e22d473030f116ddee9f6b43ac78ba35af1801561025a57610242575b505061023d906130b7565b610145565b61024b90612d84565b610256578438610232565b8480fd5b6040513d84823e3d90fd5b5080fd5b6044826024611fe0604051926306dfcc6560e41b845260a0600485015260051b166064350101356024820152fd5b61023d91906102c490606435600584901b611fe016016024013590309033906001600160a01b0316613239565b6130b7565b90506020813d6020116102ff575b816102e460209383612dcd565b810103126102fb576102f590612ee9565b3861018c565b8580fd5b3d91506102d7565b6040513d88823e3d90fd5b508383610324606435600401356130c8565b6103316040519182612dcd565b6064356004013581526020810180602460643501905b60246064356004013560051b606435010182106113765750506040516311b4e25360e01b8152600095909490610140866004816001600160a01b0389165afa958615610ddb578796611343575b5061039f8686613185565b6040516325c3ed4760e01b81526020816004816001600160a01b0386165afa908115611159578891611309575b5060ff6103e16001600160a01b03831661314c565b5416156112f75760405163e7e4b8db60e01b81526001600160a01b0383811660048301526020908290602490829086165afa908115610aa55789916112bd575b50159081611240575b5061122e57604051633d0f31f760e01b81526020816004816001600160a01b0386165afa9081156111595788916111fc575b5042116111ea576040516354ae26b160e11b81526020816004816001600160a01b0386165afa9081156111595788916111b0575b506040516338d52e0f60e01b81526020816004816001600160a01b038b165afa908115610aa5578991611176575b506001600160a01b0390811691160361116457604051632e25a20760e11b8152946020866004816001600160a01b0386165afa958615611159578896611111575b50604051630f7a077160e21b8152936020856004816001600160a01b0387165afa948515610aa55789956110e0575b50604051632e54273760e11b8152926020846004816001600160a01b0385165afa938415610f78578a9461109c575b5060a0890151604051631bf49af760e11b81526001600160a01b038681166004830152909160209183916024918391165afa908115611091578b9161105b575b5061104957895b875160ff821610156106725760405163172c48c760e01b815260ff82166004820152906020826024816001600160a01b038c165afa8015610667578c90610628575b61060692506105f860ff83168b613102565b518061060b575b50506130b7565b6105a4565b610621916001600160a01b038d8116911661333b565b8c806105ff565b506020823d60201161065f575b8161064260209383612dcd565b8101031261065b5761065661060692612ee9565b6105e6565b8b80fd5b3d9150610635565b6040513d8e823e3d90fd5b5060a0890151604051633580ec1360e11b81526001600160a01b038681166004830152999a98998c99919260209184916024918391165afa918215610aa5578992611013575b506101000151604051631b23543760e01b81529091906020816004816001600160a01b0388165afa908115610f78578a91610fdf575b509061076261074d61072f61070761077a954290613075565b6040519061071482612d97565b81526040519061072382612d97565b6301da9c008252613425565b946040519361073d85612d97565b670de0b6b3a7640000855261312c565b6040519061075a82612d97565b815284613480565b908a60405161077081612d97565b525190519061312c565b906040519161078883612d97565b825260405163ef4474cd60e01b8152916020836004816001600160a01b038b165afa928315610f78578a93610fab575b50604435670de0b6b3a76400006044350204670de0b6b3a764000014604435151715610f9757670de0b6b3a764000061084461082b8261082261080d8660405161080181612d97565b84604435028152613480565b6040519061081a82612d97565b898252613425565b51049586613139565b926040519361083985612d97565b845260443593613425565b510410610f83575b60405163fa19d0ed60e01b81526020816004816001600160a01b0388165afa908115610f78578a91610f40575b50610892916040519161088b83612d97565b8252613480565b81670de0b6b3a7640000810204670de0b6b3a76400001482151715610f2c57670de0b6b3a7640000916108f961090e9284604051936108d085612d97565b0283526040516108df81612d97565b8581528c6040516108ef81612d97565b5251905190613075565b906040519161090783612d97565b8252613425565b516040516370a0823160e01b81523060048201529391900491906020846024816001600160a01b038a165afa938415610aa5578994610ef8575b506001600160a01b0382163b15610a995791889160405193849263c002bbdd60e01b845260648401903360048601526024850152606060448501528c51809152608484019190855b818110610edc5750505082900390829084906001600160a01b03165af18015610ddb57610ec9575b506040516370a0823160e01b8152306004820152906020826024816001600160a01b0388165afa918215610ddb578792610e93575b506109f89082613075565b90865b885160ff82161015610ab05760405163172c48c760e01b815260ff821660048201526020816024816001600160a01b038c165afa908115610aa5578991610a5e575b50610a5991906102c4906001600160a01b038d81169116613282565b6109fb565b90506020813d602011610a9d575b81610a7960209383612dcd565b81010312610a9957906102c4610a91610a5993612ee9565b919250610a3d565b8880fd5b3d9150610a6c565b6040513d8b823e3d90fd5b506040516338d52e0f60e01b81529387939291906020866004816001600160a01b0388165afa958615610d7b578596610e57575b506040516370a0823160e01b8152306004820152936020856024816001600160a01b038b165afa948515610307578695610e23575b5060405163095ea7b360e01b815260208180610b42886001600160a01b0387166004840161305a565b03818a6001600160a01b0388165af18015610ddb57610de6575b506001600160a01b0381163b156102fb57604051622a237960e11b8152868180610b93886001600160a01b0388166004840161305a565b0381836001600160a01b0387165af18015610ddb57908791610dc7575b505060405163095ea7b360e01b81526001600160a01b0391821660048201526024810187905290602090829060449082908a9087165af1801561030757610d86575b506040516370a0823160e01b81523060048201529190602090839060249082906001600160a01b03165afa908115610d7b578591610d45575b610c359250613075565b03610d33576040516370a0823160e01b81523060048201526020816024816001600160a01b0388165afa928315610d275792610cee575b5080821115610cdc57610c7e91613075565b906044358210610cca57602092600191610ca490849033906001600160a01b03166133f0565b5560008051602061357983398151915280546001600160a01b0319169055604051908152f35b6040516308e874bf60e11b8152600490fd5b6040516388394b5d60e01b8152600490fd5b9091506020813d602011610d1f575b81610d0a60209383612dcd565b81010312610d1a57519084610c6c565b600080fd5b3d9150610cfd565b604051903d90823e3d90fd5b60405163ba0e33a560e01b8152600490fd5b90506020823d602011610d73575b81610d6060209383612dcd565b81010312610d1a57610c35915190610c2b565b3d9150610d53565b6040513d87823e3d90fd5b6020813d602011610dbf575b81610d9f60209383612dcd565b810103126102fb5760249291610db6602092612f8e565b50919250610bf2565b3d9150610d92565b610dd090612d84565b6102fb578589610bb0565b6040513d89823e3d90fd5b6020813d602011610e1b575b81610dff60209383612dcd565b81010312610e1757610e1090612f8e565b5088610b5c565b8680fd5b3d9150610df2565b9094506020813d602011610e4f575b81610e3f60209383612dcd565b81010312610d1a57519388610b19565b3d9150610e32565b9095506020813d602011610e8b575b81610e7360209383612dcd565b8101031261025657610e8490612ee9565b9487610ae4565b3d9150610e66565b9091506020813d602011610ec1575b81610eaf60209383612dcd565b81010312610d1a5751906109f86109ed565b3d9150610ea2565b610ed590969196612d84565b94886109b8565b825184528d965087955060209384019390920191600101610990565b9093506020813d602011610f24575b81610f1460209383612dcd565b81010312610a995751928b610948565b3d9150610f07565b634e487b7160e01b89526011600452602489fd5b90506020813d602011610f70575b81610f5b60209383612dcd565b81010312610f6c5751610892610879565b8980fd5b3d9150610f4e565b6040513d8c823e3d90fd5b90600181018111610f2c576001019061084c565b634e487b7160e01b8a52601160045260248afd5b9092506020813d602011610fd7575b81610fc760209383612dcd565b81010312610f6c5751918c6107b8565b3d9150610fba565b90506020813d60201161100b575b81610ffa60209383612dcd565b81010312610f6c57516107626106ee565b3d9150610fed565b9091506020813d602011611041575b8161102f60209383612dcd565b81010312610a995751906101006106b8565b3d9150611022565b6040516312a9487f60e21b8152600490fd5b90506020813d602011611089575b8161107660209383612dcd565b8101031261108557518b61059d565b8a80fd5b3d9150611069565b6040513d8d823e3d90fd5b9093506020813d6020116110d8575b816110b860209383612dcd565b81010312610f6c57516001600160a01b0381168103610f6c57928a61055d565b3d91506110ab565b61110391955060203d60201161110a575b6110fb8183612dcd565b810190613098565b938961052e565b503d6110f1565b9095506020813d602011611151575b8161112d60209383612dcd565b8101031261114d57516001600160a01b038116810361114d5794886104ff565b8780fd5b3d9150611120565b6040513d8a823e3d90fd5b604051632559713560e21b8152600490fd5b90506020813d6020116111a8575b8161119160209383612dcd565b81010312610a99576111a290612ee9565b896104be565b3d9150611184565b90506020813d6020116111e2575b816111cb60209383612dcd565b8101031261114d576111dc90612ee9565b88610490565b3d91506111be565b6040516304ff30ef60e21b8152600490fd5b90506020813d602011611226575b8161121760209383612dcd565b8101031261114d57518861045c565b3d915061120a565b604051633e69d7d560e21b8152600490fd5b6040516319afa63b60e11b81526001600160a01b03848116600483015290925060209183916024918391165afa908115611159578891611283575b50158861042a565b90506020813d6020116112b5575b8161129e60209383612dcd565b8101031261114d576112af90612f8e565b8861127b565b3d9150611291565b90506020813d6020116112ef575b816112d860209383612dcd565b81010312610a99576112e990612f8e565b89610421565b3d91506112cb565b604051638ebd687760e01b8152600490fd5b90506020813d60201161133b575b8161132460209383612dcd565b8101031261114d5761133590612ee9565b886103cc565b3d9150611317565b6113689196506101403d6101401161136f575b6113608183612dcd565b810190612f9b565b9487610394565b503d611356565b8135815260209182019101610347565b6113a091925060203d60201161110a576110fb8183612dcd565b9038610142565b6040513d86823e3d90fd5b60405162461bcd60e51b815260206004820152601a602482015279105d1bdb5a58d51e08185b1c9958591e481a5b9a5d1a585d195960321b6044820152606490fd5b8280fd5b8380fd5b80fd5b50346113fc5761140e36612cdb565b90611417612efd565b5061144a61142760a08401612e84565b9161143560c0850185612e98565b6001600160a01b039384928392810190612eca565b16604051946354ae26b160e11b8652856004816020958694165afa9485156115c557839561158e575b506040516338d52e0f60e01b80825295908381600481865afa8015610d7b5786908690611558575b8192501691160361116457816114b2818801612e84565b9560046040518094819382525afa928315610d27578093611514575b60a08660808988888882604051966114e588612d69565b16865260408401359086015216604084015201356060820152600160808201526115126040518092612e0b565bf35b909180935082813d8311611551575b61152d8183612dcd565b810103126113fc57509160a09491611546608094612ee9565b9295819294506114ce565b503d611523565b50508381813d8311611587575b61156f8183612dcd565b8101031261025657856115828192612ee9565b61149b565b503d611565565b9094508181813d83116115be575b6115a68183612dcd565b810103126113f4576115b790612ee9565b9338611473565b503d61159c565b6040513d85823e3d90fd5b50346113fc5760603660031901126113fc576115ea612d0c565b6115f2612d22565b91604435916115ff6130df565b6040516311b4e25360e01b81526001600160a01b039282841692909161014091908281600481885afa9283156113a7579061164493929185936118b2575b5050613185565b6040516338d52e0f60e01b8152602095908681600481875afa9081156115c557908591849161187a575b501694604051916370a0823160e01b9586845230600485015288846024818b5afa938415610d7b57859461184b575b5081166116ac83303384613239565b604051918783523060048401528983602481855afa92831561030757869361181c575b506116db84888461333b565b863b156102fb578584611702926040519384928392622a237960e11b84526004840161305a565b0381838b5af1801561030757908a9291611802575b5061172760249495969782613282565b604051938480928a82523060048301525afa908115610d7b5785916117d1575b6117519250613075565b03610d33576040519283523060048401528483602481875afa92831561025a5782936117a2575b5080831115610cdc5761179061179991600194613075565b809433906133f0565b55604051908152f35b9092508481813d83116117ca575b6117ba8183612dcd565b81010312610d1a57519138611778565b503d6117b0565b90508782813d83116117fb575b6117e88183612dcd565b81010312610d1a57611751915190611747565b503d6117de565b602494959661181361172792612d84565b96959450611717565b9092508981813d8311611844575b6118348183612dcd565b810103126102fb575191386116cf565b503d61182a565b9093508881813d8311611873575b6118638183612dcd565b810103126102565751923861169d565b503d611859565b809250888092503d83116118ab575b6118938183612dcd565b810103126113f4576118a58591612ee9565b3861166e565b503d611889565b6118c9929350803d1061136f576113608183612dcd565b90388061163d565b50346113fc5760203660031901126113fc576001600160e01b0319600435818116908190036113f457826040916020945260018452205460e01b9060405191168152f35b50346113fc576101003660031901126113fc57611930612d0c565b611938612d22565b6001600160a01b039160643583811692908390036102565760a435946001600160e01b0319808716918288036113fc5760c435918783168093036102655760e435956001600160401b0387116113f457366023880112156113f4578660040135946119a286612df0565b956119b06040519788612dcd565b80875260209836602483830101116102fb5781869260248c9301838b0137880101526119da612efd565b50835260018752604083205460e01b91821615611b7f5782611a92928192611a4b9a8c8060405193611a0b85612d38565b169a8b8452168b8301526044356040830152606082015260843560808201528660a08201528760c08201526040519a8b918b830193845260248301612f28565b0399611a5f601f199b8c8101835282612dcd565b5190305afa3d15611b77573d90611a7582612df0565b91611a836040519384612dcd565b82523d848984013e5b306134b9565b9060a0828051810103126113fc5750611b5693611b739693611b62999693611b4a936040519a611ac18c612d69565b8b611acd888401612ee9565b80825282604085015191828b850152611ae860608701612ee9565b938460408201526080611b0760a0828a0151998a606086015201612f8e565b91015260405198611b178a612d38565b895216898801526040870152166060850152608084015260a083015260c082015260405195869384015260248301612f28565b03908101835282612dcd565b60405193848094612e0b565b60c060a084015260c0830190612e44565b0390f35b606090611a8c565b604051631416e68f60e01b8152600490fd5b90503461026557611ba136612cdb565b90611bab82612e84565b7fc9e4fb8bffaf71b56abf2a5032f2ea641e97267f8c0d9bcf66c86998c650d62a546001600160a01b03168015159182612cc8575b505015612c905750611bf06130df565b611bf981612e84565b90611c0660208201612e84565b611c1260608301612e84565b611c1e60a08401612e84565b92611c42611c2f60c0830183612e98565b6001600160a01b03929190810190612eca565b604051630f7a077160e21b8152911692906020816004816001600160a01b038a165afa908115611159578891612c71575b50604051630c87400960e11b81526020816004816001600160a01b0386165afa908115610aa5578991612c35575b50611cae60ff82166130c8565b95611cbc6040519788612dcd565b60ff8216808852611ccc906130c8565b601f190136602089013789928a5b60ff84168110612b8c575b5050505015612b7a576040516354ae26b160e11b8152906020826004816001600160a01b038a165afa918215611159578892612b3e575b506001600160a01b03908116911603611164576040516311b4e25360e01b81529486919061014087600481875afa968715611159578897612b1b575b50611d638785613185565b6040516325c3ed4760e01b81526020816004816001600160a01b038b165afa908115610aa5578991612ae1575b5060ff611da56001600160a01b03831661314c565b5416156112f75760405163e7e4b8db60e01b81526001600160a01b0388811660048301526020908290602490829086165afa908115610f78578a91612aa7575b50159081612a2a575b5061122e57604051633d0f31f760e01b81526020816004816001600160a01b038b165afa908115610aa55789916129f8575b5042116111ea576040516354ae26b160e11b81526020816004816001600160a01b038b165afa908115610aa55789916129be575b506040516338d52e0f60e01b8152602081600481895afa908115610f78578a91612984575b506001600160a01b0390811691160361116457604051632e25a20760e11b8152956020876004816001600160a01b0385165afa968715610aa5578997612940575b50604051630f7a077160e21b8152946020866004816001600160a01b0386165afa958615610f78578a9661291f575b50604051632e54273760e11b8152916020836004816001600160a01b0385165afa928315611091578b936128db575b5060a08a0151604051631bf49af760e11b81526001600160a01b038581166004830152909160209183916024918391165afa908115610667578c916128a9575b50611049578a5b885160ff8216101561202c5760405163172c48c760e01b815260ff82166004820152906020826024816001600160a01b038d165afa8015612021578d90611fe2575b611fc09250611fb360ff83168c613102565b5180611fc55750506130b7565b611f5f565b611fdb916001600160a01b03808f16911661333b565b38806105ff565b506020823d602011612019575b81611ffc60209383612dcd565b8101031261201557612010611fc092612ee9565b611fa1565b8c80fd5b3d9150611fef565b6040513d8f823e3d90fd5b5060248b94959698999a602060018060a01b0360a08301511660405193848092633580ec1360e11b825260018060a01b038a1660048301525afa918215610307578692612873575b506101000151604051631b23543760e01b81529091906020816004816001600160a01b0388165afa908115610ddb57879161283f575b50906120c361074d61072f6107076120d1954290613075565b908760405161077081612d97565b90604051916120df83612d97565b825260405163ef4474cd60e01b8152916020836004816001600160a01b038a165afa928315610ddb57879361280b575b506080890135670de0b6b3a764000080820282900414901517156127f757670de0b6b3a764000061217a61215f8261082261080d868f8460806040519261215584612d97565b0135028152613480565b926040519361216d85612d97565b845260808c013593613425565b5104106127e3575b60405163fa19d0ed60e01b81526020816004816001600160a01b0388165afa908115610ddb5787916127af575b506121c1916040519161088b83612d97565b81670de0b6b3a7640000810204670de0b6b3a7640000148215171561279b57670de0b6b3a7640000916108f961221e9284604051936121ff85612d97565b02835260405161220e81612d97565b858152896040516108ef81612d97565b516040516370a0823160e01b815230600482015292919004906020836024816001600160a01b0389165afa928315610307578693612767575b506001600160a01b0381163b156102fb5760405163c002bbdd60e01b81526001600160a01b03881660048201526024810192909252606060448301528a516064830181905286918391608483019060208f0190855b81811061274b5750505082900390829084906001600160a01b03165af18015610d7b57612738575b506040516370a0823160e01b8152306004820152906020826024816001600160a01b0388165afa918215610aa5578992612702575b506123149082613075565b90885b8a5160ff821610156123c25760405163172c48c760e01b815260ff821660048201526020816024816001600160a01b038e165afa908115611091578d908c9261237c575b5061237792916102c4916001600160a01b039081169116613282565b612317565b9150506020813d6020116123ba575b8161239860209383612dcd565b8101031261108557906102c48d6123b161237794612ee9565b9293509061235b565b3d915061238b565b506040516338d52e0f60e01b815289985093602085600481875afa948515610aa55789956126c6575b506040516370a0823160e01b8152306004820152936020856024816001600160a01b038a165afa948515610f78578a95612692575b5060405163095ea7b360e01b81526020818c81806124428a886004840161305a565b03916001600160a01b0388165af1801561109157612659575b50803b15610f6c57604051622a237960e11b81528a9081818061248b896001600160a01b0389166004840161305a565b038183875af1801561025a57612645575b505060405163095ea7b360e01b81526004810191909152602481018a90526020816044818d6001600160a01b0387165af18015610f7857612606575b506040516370a0823160e01b815230600482015290602090829060249082906001600160a01b03165afa908115610aa55789916125d2575b5061251a91613075565b03610d33576040516370a0823160e01b81523060048201526020816024816001600160a01b0387165afa908115610ddb5787916125a0575b5081811115610cdc5760809161256791613075565b9401358410610cca5783600193602096612588575b50505055604051908152f35b61259892858060a01b03166133f0565b84838161257c565b90506020813d6020116125ca575b816125bb60209383612dcd565b810103126113f8575187612552565b3d91506125ae565b90506020813d6020116125fe575b816125ed60209383612dcd565b810103126102fb575161251a612510565b3d91506125e0565b6020813d60201161263d575b8161261f60209383612dcd565b81010312610f6c57602491612635602092612f8e565b5091506124d8565b3d9150612612565b61264e90612d84565b610f6c57898b61249c565b6020813d60201161268a575b8161267260209383612dcd565b810103126110855761268390612f8e565b508a61245b565b3d9150612665565b9094506020813d6020116126be575b816126ae60209383612dcd565b81010312610e175751938a612420565b3d91506126a1565b9094506020813d6020116126fa575b816126e260209383612dcd565b81010312610a99576126f390612ee9565b93896123eb565b3d91506126d5565b9091506020813d602011612730575b8161271e60209383612dcd565b81010312610256575190612314612309565b3d9150612711565b612743919850612d84565b82968a6122d4565b825184528b9650879550602093840193909201916001016122ac565b9092506020813d602011612793575b8161278360209383612dcd565b810103126102fb5751918c612257565b3d9150612776565b634e487b7160e01b86526011600452602486fd5b90506020813d6020116127db575b816127ca60209383612dcd565b81010312610e1757516121c16121af565b3d91506127bd565b9060018101811161279b5760010190612182565b634e487b7160e01b87526011600452602487fd5b9092506020813d602011612837575b8161282760209383612dcd565b81010312610e175751918d61210f565b3d915061281a565b90506020813d60201161286b575b8161285a60209383612dcd565b81010312610e1757516120c36120aa565b3d915061284d565b9091506020813d6020116128a1575b8161288f60209383612dcd565b810103126102fb575190610100612074565b3d9150612882565b90506020813d6020116128d3575b816128c460209383612dcd565b8101031261065b575138611f58565b3d91506128b7565b9092506020813d602011612917575b816128f760209383612dcd565b8101031261108557516001600160a01b0381168103611085579138611f18565b3d91506128ea565b61293991965060203d60201161110a576110fb8183612dcd565b9438611ee9565b9096506020813d60201161297c575b8161295c60209383612dcd565b81010312610a9957516001600160a01b0381168103610a99579538611eba565b3d915061294f565b90506020813d6020116129b6575b8161299f60209383612dcd565b81010312610f6c576129b090612ee9565b38611e79565b3d9150612992565b90506020813d6020116129f0575b816129d960209383612dcd565b81010312610a99576129ea90612ee9565b38611e54565b3d91506129cc565b90506020813d602011612a22575b81612a1360209383612dcd565b81010312610a99575138611e20565b3d9150612a06565b6040516319afa63b60e11b81526001600160a01b03898116600483015290925060209183916024918391165afa908115610aa5578991612a6d575b501538611dee565b90506020813d602011612a9f575b81612a8860209383612dcd565b81010312610a9957612a9990612f8e565b38612a65565b3d9150612a7b565b90506020813d602011612ad9575b81612ac260209383612dcd565b81010312610f6c57612ad390612f8e565b38611de5565b3d9150612ab5565b90506020813d602011612b13575b81612afc60209383612dcd565b81010312610a9957612b0d90612ee9565b38611d90565b3d9150612aef565b612b379197506101403d6101401161136f576113608183612dcd565b9538611d58565b9091506020813d602011612b72575b81612b5a60209383612dcd565b8101031261114d57612b6b90612ee9565b9038611d1c565b3d9150612b4d565b604051633a001e0560e11b8152600490fd5b60405163172c48c760e01b8152600481018290526020816024816001600160a01b0387165afa908115612021578d91612bfb575b506001600160a01b03848116911614612bdb57600101611cda565b9350505050612bef60408401359186613102565b52600138808080611ce5565b90506020813d602011612c2d575b81612c1660209383612dcd565b8101031261201557612c2790612ee9565b38612bc0565b3d9150612c09565b90506020813d602011612c69575b81612c5060209383612dcd565b81010312610a99575160ff81168103610a995738611ca1565b3d9150612c43565b612c8a915060203d60201161110a576110fb8183612dcd565b38611c73565b62461bcd60e51b81526020600482015260136024820152722ab730baba3437b934bd32b21031b0b63632b960691b6044820152606490fd5b6001600160a01b03161490503880611be0565b60031990602081830112610d1a57600435916001600160401b038311610d1a578260e092030112610d1a5760040190565b600435906001600160a01b0382168203610d1a57565b602435906001600160a01b0382168203610d1a57565b60e081019081106001600160401b03821117612d5357604052565b634e487b7160e01b600052604160045260246000fd5b60a081019081106001600160401b03821117612d5357604052565b6001600160401b038111612d5357604052565b602081019081106001600160401b03821117612d5357604052565b608081019081106001600160401b03821117612d5357604052565b601f909101601f19168101906001600160401b03821190821017612d5357604052565b6001600160401b038111612d5357601f01601f191660200190565b6080809160018060a01b038082511685526020820151602086015260408201511660408501526060810151606085015201511515910152565b919082519283825260005b848110612e70575050826000602080949584010152601f8019910116010190565b602081830181015184830182015201612e4f565b356001600160a01b0381168103610d1a5790565b903590601e1981360301821215610d1a57018035906001600160401b038211610d1a57602001918136038313610d1a57565b90816020910312610d1a57356001600160a01b0381168103610d1a5790565b51906001600160a01b0382168203610d1a57565b60405190612f0a82612d69565b60006080838281528260208201528260408201528260608201520152565b61010060c0612f8b936020845260018060a01b0380825116602086015280602083015116604086015260408201516060860152806060830151166080860152608082015160a086015260a0820151168285015201519160e0808201520190612e44565b90565b51908115158203610d1a57565b80916101409283910312610d1a576040519182016001600160401b03811183821017612d5357604052612fcd81612ee9565b8252612fdb60208201612ee9565b6020830152612fec60408201612ee9565b6040830152612ffd60608201612ee9565b606083015261300e60808201612ee9565b608083015260a08101516001600160a01b0381168103610d1a5760a083015260c081015160c083015260e081015160e08301526101008082015190830152610120809101519082015290565b6001600160a01b039091168152602081019190915260400190565b9190820391821161308257565b634e487b7160e01b600052601160045260246000fd5b90816020910312610d1a57516001600160a01b0381168103610d1a5790565b60ff1660ff81146130825760010190565b6001600160401b038111612d535760051b60200190565b6002600054146130f0576002600055565b604051633ee5aeb560e01b8152600490fd5b80518210156131165760209160051b010190565b634e487b7160e01b600052603260045260246000fd5b9190820180921161308257565b8181029291811591840414171561308257565b6001600160a01b031660009081527f2a2e13707d6b40952f0aec05e2811137753b06b56d55208636050ec9ee68dd7d6020526040902090565b608091909101516001600160a01b03908116919060ff6131a48461314c565b5416156112f7576024602092604051948593849263e7e4b8db60e01b84521660048301525afa90811561322d576000916131f3575b50156131e157565b604051632711b74d60e11b8152600490fd5b90506020813d602011613225575b8161320e60209383612dcd565b81010312610d1a5761321f90612f8e565b386131d9565b3d9150613201565b6040513d6000823e3d90fd5b6040516323b872dd60e01b60208201526001600160a01b0392831660248201529290911660448301526064808301939093529181526132809161327b82612d69565b61351c565b565b60405190602082019263095ea7b360e01b80855260018060a01b0380921691826024860152602060008097816044890152604488526132c088612db2565b87519082885af1903d8751908361331a575b505050156132e2575b5050505050565b6133109461327b92604051926020840152602483015260448201526044815261330a81612db2565b8261351c565b38808080806132db565b91925090613331575083163b15155b3880806132d2565b6001915014613329565b60405191602060008185016133718661336363095ea7b360e01b998a8552876024840161305a565b03601f198101885287612dcd565b85519082865af16000513d826133cb575b505015613390575b50505050565b6133c29361327b9160405191602083015260018060a01b03166024820152600060448201526044815261330a81612db2565b3880808061338a565b9091506133e857506001600160a01b0382163b15155b3880613382565b6001146133e1565b61327b613280939261341760405194859263a9059cbb60e01b60208501526024840161305a565b03601f198101845283612dcd565b600060405161343381612d97565b525190670de0b6b3a7640000918281029281840414901517156130825751801561346a576040519161346483612d97565b04815290565b634e487b7160e01b600052601260045260246000fd5b670de0b6b3a7640000916134a691600060405161349c81612d97565b5251905190613139565b04604051906134b482612d97565b815290565b906134e057508051156134ce57805190602001fd5b60405163d6bda27560e01b8152600490fd5b81511580613513575b6134f1575090565b604051639996b31560e01b81526001600160a01b039091166004820152602490fd5b50803b156134e9565b906000602091828151910182855af11561322d576000513d61356f57506001600160a01b0381163b155b61354d5750565b604051635274afe760e01b81526001600160a01b039091166004820152602490fd5b6001141561354656fe2a2e13707d6b40952f0aec05e2811137753b06b56d55208636050ec9ee68dd7aa2646970667358221220baece79f10de17158b4cf92cb3cb180ff97d089f99005743a7ad915c741d271f64736f6c63430008160033",
  "linkReferences": {},
  "deployedLinkReferences": {}
}