{
  "_format": "hh-sol-artifact-1",
  "contractName": "TestingTermAuctionOfferLocker",
  "sourceName": "contracts/test/TestingTermAuctionOfferLocker.sol",
  "abi": [
    {
      "inputs": [],
      "name": "AccessControlBadConfirmation",
      "type": "error"
    },
    {
      "inputs": [
        {
          "internalType": "address",
          "name": "account",
          "type": "address"
        },
        {
          "internalType": "bytes32",
          "name": "neededRole",
          "type": "bytes32"
        }
      ],
      "name": "AccessControlUnauthorizedAccount",
      "type": "error"
    },
    {
      "inputs": [
        {
          "internalType": "address",
          "name": "target",
          "type": "address"
        }
      ],
      "name": "AddressEmptyCode",
      "type": "error"
    },
    {
      "inputs": [],
      "name": "AlreadyTermContractPaired",
      "type": "error"
    },
    {
      "inputs": [],
      "name": "AuctionNotClosed",
      "type": "error"
    },
    {
      "inputs": [],
      "name": "AuctionNotOpen",
      "type": "error"
    },
    {
      "inputs": [],
      "name": "AuctionNotRevealing",
      "type": "error"
    },
    {
      "inputs": [
        {
          "internalType": "uint256",
          "name": "reveal",
          "type": "uint256"
        },
        {
          "internalType": "uint256",
          "name": "end",
          "type": "uint256"
        }
      ],
      "name": "AuctionRevealsAfterEnd",
      "type": "error"
    },
    {
      "inputs": [
        {
          "internalType": "uint256",
          "name": "start",
          "type": "uint256"
        },
        {
          "internalType": "uint256",
          "name": "reveal",
          "type": "uint256"
        }
      ],
      "name": "AuctionStartsAfterReveal",
      "type": "error"
    },
    {
      "inputs": [
        {
          "internalType": "address",
          "name": "token",
          "type": "address"
        }
      ],
      "name": "CollateralTokenNotApproved",
      "type": "error"
    },
    {
      "inputs": [
        {
          "internalType": "address",
          "name": "implementation",
          "type": "address"
        }
      ],
      "name": "ERC1967InvalidImplementation",
      "type": "error"
    },
    {
      "inputs": [],
      "name": "ERC1967NonPayable",
      "type": "error"
    },
    {
      "inputs": [],
      "name": "FailedCall",
      "type": "error"
    },
    {
      "inputs": [
        {
          "internalType": "bytes32",
          "name": "offerId",
          "type": "bytes32"
        }
      ],
      "name": "GeneratingExistingOffer",
      "type": "error"
    },
    {
      "inputs": [],
      "name": "InvalidInitialization",
      "type": "error"
    },
    {
      "inputs": [],
      "name": "InvalidSelfReferral",
      "type": "error"
    },
    {
      "inputs": [],
      "name": "LockingPaused",
      "type": "error"
    },
    {
      "inputs": [],
      "name": "MaxOfferCountReached",
      "type": "error"
    },
    {
      "inputs": [],
      "name": "NoOfferToUnlock",
      "type": "error"
    },
    {
      "inputs": [
        {
          "internalType": "bytes32",
          "name": "id",
          "type": "bytes32"
        }
      ],
      "name": "NonExistentOffer",
      "type": "error"
    },
    {
      "inputs": [],
      "name": "NotInitializing",
      "type": "error"
    },
    {
      "inputs": [],
      "name": "OfferAlreadyRevealed",
      "type": "error"
    },
    {
      "inputs": [
        {
          "internalType": "uint256",
          "name": "amount",
          "type": "uint256"
        }
      ],
      "name": "OfferAmountTooLow",
      "type": "error"
    },
    {
      "inputs": [
        {
          "internalType": "uint256",
          "name": "offerCount",
          "type": "uint256"
        }
      ],
      "name": "OfferCountIncorrect",
      "type": "error"
    },
    {
      "inputs": [],
      "name": "OfferNotOwned",
      "type": "error"
    },
    {
      "inputs": [
        {
          "internalType": "bytes32",
          "name": "id",
          "type": "bytes32"
        }
      ],
      "name": "OfferNotRevealed",
      "type": "error"
    },
    {
      "inputs": [],
      "name": "OfferPriceModified",
      "type": "error"
    },
    {
      "inputs": [
        {
          "internalType": "bytes32",
          "name": "id",
          "type": "bytes32"
        }
      ],
      "name": "OfferRevealed",
      "type": "error"
    },
    {
      "inputs": [
        {
          "internalType": "address",
          "name": "token",
          "type": "address"
        }
      ],
      "name": "PurchaseTokenNotApproved",
      "type": "error"
    },
    {
      "inputs": [],
      "name": "ReentrancyGuardReentrantCall",
      "type": "error"
    },
    {
      "inputs": [],
      "name": "RevealedOffersNotSorted",
      "type": "error"
    },
    {
      "inputs": [
        {
          "internalType": "bytes32",
          "name": "id",
          "type": "bytes32"
        },
        {
          "internalType": "uint256",
          "name": "maxPrice",
          "type": "uint256"
        }
      ],
      "name": "TenderPriceTooHigh",
      "type": "error"
    },
    {
      "inputs": [],
      "name": "TermContractsPaused",
      "type": "error"
    },
    {
      "inputs": [],
      "name": "UUPSUnauthorizedCallContext",
      "type": "error"
    },
    {
      "inputs": [
        {
          "internalType": "bytes32",
          "name": "slot",
          "type": "bytes32"
        }
      ],
      "name": "UUPSUnsupportedProxiableUUID",
      "type": "error"
    },
    {
      "inputs": [],
      "name": "UnlockingPaused",
      "type": "error"
    },
    {
      "anonymous": false,
      "inputs": [
        {
          "indexed": false,
          "internalType": "uint64",
          "name": "version",
          "type": "uint64"
        }
      ],
      "name": "Initialized",
      "type": "event"
    },
    {
      "anonymous": false,
      "inputs": [
        {
          "indexed": true,
          "internalType": "bytes32",
          "name": "role",
          "type": "bytes32"
        },
        {
          "indexed": true,
          "internalType": "bytes32",
          "name": "previousAdminRole",
          "type": "bytes32"
        },
        {
          "indexed": true,
          "internalType": "bytes32",
          "name": "newAdminRole",
          "type": "bytes32"
        }
      ],
      "name": "RoleAdminChanged",
      "type": "event"
    },
    {
      "anonymous": false,
      "inputs": [
        {
          "indexed": true,
          "internalType": "bytes32",
          "name": "role",
          "type": "bytes32"
        },
        {
          "indexed": true,
          "internalType": "address",
          "name": "account",
          "type": "address"
        },
        {
          "indexed": true,
          "internalType": "address",
          "name": "sender",
          "type": "address"
        }
      ],
      "name": "RoleGranted",
      "type": "event"
    },
    {
      "anonymous": false,
      "inputs": [
        {
          "indexed": true,
          "internalType": "bytes32",
          "name": "role",
          "type": "bytes32"
        },
        {
          "indexed": true,
          "internalType": "address",
          "name": "account",
          "type": "address"
        },
        {
          "indexed": true,
          "internalType": "address",
          "name": "sender",
          "type": "address"
        }
      ],
      "name": "RoleRevoked",
      "type": "event"
    },
    {
      "anonymous": false,
      "inputs": [
        {
          "indexed": true,
          "internalType": "address",
          "name": "implementation",
          "type": "address"
        }
      ],
      "name": "Upgraded",
      "type": "event"
    },
    {
      "inputs": [],
      "name": "ADMIN_ROLE",
      "outputs": [
        {
          "internalType": "bytes32",
          "name": "",
          "type": "bytes32"
        }
      ],
      "stateMutability": "view",
      "type": "function"
    },
    {
      "inputs": [],
      "name": "AUCTIONEER_ROLE",
      "outputs": [
        {
          "internalType": "bytes32",
          "name": "",
          "type": "bytes32"
        }
      ],
      "stateMutability": "view",
      "type": "function"
    },
    {
      "inputs": [],
      "name": "DEFAULT_ADMIN_ROLE",
      "outputs": [
        {
          "internalType": "bytes32",
          "name": "",
          "type": "bytes32"
        }
      ],
      "stateMutability": "view",
      "type": "function"
    },
    {
      "inputs": [],
      "name": "DEVOPS_ROLE",
      "outputs": [
        {
          "internalType": "bytes32",
          "name": "",
          "type": "bytes32"
        }
      ],
      "stateMutability": "view",
      "type": "function"
    },
    {
      "inputs": [],
      "name": "DIAMOND_ROLE",
      "outputs": [
        {
          "internalType": "bytes32",
          "name": "",
          "type": "bytes32"
        }
      ],
      "stateMutability": "view",
      "type": "function"
    },
    {
      "inputs": [],
      "name": "INITIALIZER_ROLE",
      "outputs": [
        {
          "internalType": "bytes32",
          "name": "",
          "type": "bytes32"
        }
      ],
      "stateMutability": "view",
      "type": "function"
    },
    {
      "inputs": [],
      "name": "MAX_OFFER_COUNT",
      "outputs": [
        {
          "internalType": "uint256",
          "name": "",
          "type": "uint256"
        }
      ],
      "stateMutability": "view",
      "type": "function"
    },
    {
      "inputs": [],
      "name": "MAX_OFFER_PRICE",
      "outputs": [
        {
          "internalType": "uint256",
          "name": "",
          "type": "uint256"
        }
      ],
      "stateMutability": "view",
      "type": "function"
    },
    {
      "inputs": [],
      "name": "UPGRADE_INTERFACE_VERSION",
      "outputs": [
        {
          "internalType": "string",
          "name": "",
          "type": "string"
        }
      ],
      "stateMutability": "view",
      "type": "function"
    },
    {
      "inputs": [
        {
          "components": [
            {
              "internalType": "bytes32",
              "name": "id",
              "type": "bytes32"
            },
            {
              "internalType": "address",
              "name": "offeror",
              "type": "address"
            },
            {
              "internalType": "uint256",
              "name": "offerPriceRevealed",
              "type": "uint256"
            },
            {
              "internalType": "uint256",
              "name": "amount",
              "type": "uint256"
            },
            {
              "internalType": "address",
              "name": "purchaseToken",
              "type": "address"
            }
          ],
          "internalType": "struct TermAuctionRevealedOffer",
          "name": "offer",
          "type": "tuple"
        },
        {
          "internalType": "uint256",
          "name": "nonce",
          "type": "uint256"
        }
      ],
      "name": "addOffer",
      "outputs": [],
      "stateMutability": "nonpayable",
      "type": "function"
    },
    {
      "inputs": [],
      "name": "auctionEndTime",
      "outputs": [
        {
          "internalType": "uint256",
          "name": "",
          "type": "uint256"
        }
      ],
      "stateMutability": "view",
      "type": "function"
    },
    {
      "inputs": [],
      "name": "auctionStartTime",
      "outputs": [
        {
          "internalType": "uint256",
          "name": "",
          "type": "uint256"
        }
      ],
      "stateMutability": "view",
      "type": "function"
    },
    {
      "inputs": [
        {
          "internalType": "contract IERC20",
          "name": "",
          "type": "address"
        }
      ],
      "name": "collateralTokens",
      "outputs": [
        {
          "internalType": "bool",
          "name": "",
          "type": "bool"
        }
      ],
      "stateMutability": "view",
      "type": "function"
    },
    {
      "inputs": [
        {
          "internalType": "bytes32[]",
          "name": "revealedOffers",
          "type": "bytes32[]"
        },
        {
          "internalType": "bytes32[]",
          "name": "unrevealedOffers",
          "type": "bytes32[]"
        }
      ],
      "name": "getAllOffers",
      "outputs": [
        {
          "components": [
            {
              "internalType": "bytes32",
              "name": "id",
              "type": "bytes32"
            },
            {
              "internalType": "address",
              "name": "offeror",
              "type": "address"
            },
            {
              "internalType": "uint256",
              "name": "offerPriceRevealed",
              "type": "uint256"
            },
            {
              "internalType": "uint256",
              "name": "amount",
              "type": "uint256"
            },
            {
              "internalType": "address",
              "name": "purchaseToken",
              "type": "address"
            }
          ],
          "internalType": "struct TermAuctionRevealedOffer[]",
          "name": "",
          "type": "tuple[]"
        },
        {
          "components": [
            {
              "internalType": "bytes32",
              "name": "id",
              "type": "bytes32"
            },
            {
              "internalType": "address",
              "name": "offeror",
              "type": "address"
            },
            {
              "internalType": "bytes32",
              "name": "offerPriceHash",
              "type": "bytes32"
            },
            {
              "internalType": "uint256",
              "name": "offerPriceRevealed",
              "type": "uint256"
            },
            {
              "internalType": "uint256",
              "name": "amount",
              "type": "uint256"
            },
            {
              "internalType": "address",
              "name": "purchaseToken",
              "type": "address"
            },
            {
              "internalType": "bool",
              "name": "isRevealed",
              "type": "bool"
            }
          ],
          "internalType": "struct TermAuctionOffer[]",
          "name": "",
          "type": "tuple[]"
        }
      ],
      "stateMutability": "nonpayable",
      "type": "function"
    },
    {
      "inputs": [],
      "name": "getOfferCount",
      "outputs": [
        {
          "internalType": "uint256",
          "name": "",
          "type": "uint256"
        }
      ],
      "stateMutability": "view",
      "type": "function"
    },
    {
      "inputs": [
        {
          "internalType": "bytes32",
          "name": "role",
          "type": "bytes32"
        }
      ],
      "name": "getRoleAdmin",
      "outputs": [
        {
          "internalType": "bytes32",
          "name": "",
          "type": "bytes32"
        }
      ],
      "stateMutability": "view",
      "type": "function"
    },
    {
      "inputs": [
        {
          "internalType": "bytes32",
          "name": "role",
          "type": "bytes32"
        },
        {
          "internalType": "address",
          "name": "account",
          "type": "address"
        }
      ],
      "name": "grantRole",
      "outputs": [],
      "stateMutability": "nonpayable",
      "type": "function"
    },
    {
      "inputs": [
        {
          "internalType": "bytes32",
          "name": "role",
          "type": "bytes32"
        },
        {
          "internalType": "address",
          "name": "account",
          "type": "address"
        }
      ],
      "name": "hasRole",
      "outputs": [
        {
          "internalType": "bool",
          "name": "",
          "type": "bool"
        }
      ],
      "stateMutability": "view",
      "type": "function"
    },
    {
      "inputs": [
        {
          "internalType": "string",
          "name": "termRepoId_",
          "type": "string"
        },
        {
          "internalType": "string",
          "name": "auctionId_",
          "type": "string"
        },
        {
          "internalType": "uint256",
          "name": "auctionStartTime_",
          "type": "uint256"
        },
        {
          "internalType": "uint256",
          "name": "revealTime_",
          "type": "uint256"
        },
        {
          "internalType": "uint256",
          "name": "auctionEndTime_",
          "type": "uint256"
        },
        {
          "internalType": "uint256",
          "name": "minimumTenderAmount_",
          "type": "uint256"
        },
        {
          "internalType": "contract IERC20",
          "name": "purchaseToken_",
          "type": "address"
        },
        {
          "internalType": "contract IERC20[]",
          "name": "collateralTokens_",
          "type": "address[]"
        },
        {
          "internalType": "address",
          "name": "termInitializer_",
          "type": "address"
        }
      ],
      "name": "initialize",
      "outputs": [],
      "stateMutability": "nonpayable",
      "type": "function"
    },
    {
      "inputs": [
        {
          "components": [
            {
              "internalType": "bytes32",
              "name": "id",
              "type": "bytes32"
            },
            {
              "internalType": "address",
              "name": "offeror",
              "type": "address"
            },
            {
              "internalType": "bytes32",
              "name": "offerPriceHash",
              "type": "bytes32"
            },
            {
              "internalType": "uint256",
              "name": "amount",
              "type": "uint256"
            },
            {
              "internalType": "address",
              "name": "purchaseToken",
              "type": "address"
            }
          ],
          "internalType": "struct TermAuctionOfferSubmission[]",
          "name": "offerSubmissions",
          "type": "tuple[]"
        }
      ],
      "name": "lockOffers",
      "outputs": [
        {
          "internalType": "bytes32[]",
          "name": "",
          "type": "bytes32[]"
        }
      ],
      "stateMutability": "nonpayable",
      "type": "function"
    },
    {
      "inputs": [
        {
          "internalType": "address",
          "name": "offeror",
          "type": "address"
        },
        {
          "components": [
            {
              "internalType": "bytes32",
              "name": "id",
              "type": "bytes32"
            },
            {
              "internalType": "address",
              "name": "offeror",
              "type": "address"
            },
            {
              "internalType": "bytes32",
              "name": "offerPriceHash",
              "type": "bytes32"
            },
            {
              "internalType": "uint256",
              "name": "amount",
              "type": "uint256"
            },
            {
              "internalType": "address",
              "name": "purchaseToken",
              "type": "address"
            }
          ],
          "internalType": "struct TermAuctionOfferSubmission[]",
          "name": "offerSubmissions",
          "type": "tuple[]"
        },
        {
          "internalType": "address",
          "name": "referralAddress",
          "type": "address"
        }
      ],
      "name": "lockOffersWithReferral",
      "outputs": [
        {
          "internalType": "bytes32[]",
          "name": "",
          "type": "bytes32[]"
        }
      ],
      "stateMutability": "nonpayable",
      "type": "function"
    },
    {
      "inputs": [
        {
          "components": [
            {
              "internalType": "bytes32",
              "name": "id",
              "type": "bytes32"
            },
            {
              "internalType": "address",
              "name": "offeror",
              "type": "address"
            },
            {
              "internalType": "bytes32",
              "name": "offerPriceHash",
              "type": "bytes32"
            },
            {
              "internalType": "uint256",
              "name": "amount",
              "type": "uint256"
            },
            {
              "internalType": "address",
              "name": "purchaseToken",
              "type": "address"
            }
          ],
          "internalType": "struct TermAuctionOfferSubmission[]",
          "name": "offerSubmissions",
          "type": "tuple[]"
        },
        {
          "internalType": "address",
          "name": "referralAddress",
          "type": "address"
        }
      ],
      "name": "lockOffersWithReferral",
      "outputs": [
        {
          "internalType": "bytes32[]",
          "name": "",
          "type": "bytes32[]"
        }
      ],
      "stateMutability": "nonpayable",
      "type": "function"
    },
    {
      "inputs": [
        {
          "internalType": "bytes32",
          "name": "id",
          "type": "bytes32"
        }
      ],
      "name": "lockedOffer",
      "outputs": [
        {
          "components": [
            {
              "internalType": "bytes32",
              "name": "id",
              "type": "bytes32"
            },
            {
              "internalType": "address",
              "name": "offeror",
              "type": "address"
            },
            {
              "internalType": "bytes32",
              "name": "offerPriceHash",
              "type": "bytes32"
            },
            {
              "internalType": "uint256",
              "name": "offerPriceRevealed",
              "type": "uint256"
            },
            {
              "internalType": "uint256",
              "name": "amount",
              "type": "uint256"
            },
            {
              "internalType": "address",
              "name": "purchaseToken",
              "type": "address"
            },
            {
              "internalType": "bool",
              "name": "isRevealed",
              "type": "bool"
            }
          ],
          "internalType": "struct TermAuctionOffer",
          "name": "",
          "type": "tuple"
        }
      ],
      "stateMutability": "view",
      "type": "function"
    },
    {
      "inputs": [],
      "name": "lockingPaused",
      "outputs": [
        {
          "internalType": "bool",
          "name": "",
          "type": "bool"
        }
      ],
      "stateMutability": "view",
      "type": "function"
    },
    {
      "inputs": [],
      "name": "minimumTenderAmount",
      "outputs": [
        {
          "internalType": "uint256",
          "name": "",
          "type": "uint256"
        }
      ],
      "stateMutability": "view",
      "type": "function"
    },
    {
      "inputs": [
        {
          "components": [
            {
              "internalType": "bytes32",
              "name": "id",
              "type": "bytes32"
            },
            {
              "internalType": "address",
              "name": "offeror",
              "type": "address"
            },
            {
              "internalType": "uint256",
              "name": "offerPriceRevealed",
              "type": "uint256"
            },
            {
              "internalType": "uint256",
              "name": "amount",
              "type": "uint256"
            },
            {
              "internalType": "address",
              "name": "purchaseToken",
              "type": "address"
            }
          ],
          "internalType": "struct TermAuctionRevealedOffer",
          "name": "revealed",
          "type": "tuple"
        },
        {
          "internalType": "uint256",
          "name": "nonce",
          "type": "uint256"
        }
      ],
      "name": "obfuscateOffer",
      "outputs": [
        {
          "components": [
            {
              "internalType": "bytes32",
              "name": "id",
              "type": "bytes32"
            },
            {
              "internalType": "address",
              "name": "offeror",
              "type": "address"
            },
            {
              "internalType": "bytes32",
              "name": "offerPriceHash",
              "type": "bytes32"
            },
            {
              "internalType": "uint256",
              "name": "offerPriceRevealed",
              "type": "uint256"
            },
            {
              "internalType": "uint256",
              "name": "amount",
              "type": "uint256"
            },
            {
              "internalType": "address",
              "name": "purchaseToken",
              "type": "address"
            },
            {
              "internalType": "bool",
              "name": "isRevealed",
              "type": "bool"
            }
          ],
          "internalType": "struct TermAuctionOffer",
          "name": "hidden",
          "type": "tuple"
        }
      ],
      "stateMutability": "pure",
      "type": "function"
    },
    {
      "inputs": [],
      "name": "offerCount",
      "outputs": [
        {
          "internalType": "uint256",
          "name": "",
          "type": "uint256"
        }
      ],
      "stateMutability": "view",
      "type": "function"
    },
    {
      "inputs": [
        {
          "internalType": "address",
          "name": "termAuction_",
          "type": "address"
        },
        {
          "internalType": "contract ITermEventEmitter",
          "name": "emitter_",
          "type": "address"
        },
        {
          "internalType": "contract ITermRepoServicer",
          "name": "termRepoServicer_",
          "type": "address"
        },
        {
          "internalType": "address",
          "name": "devopsMultisig_",
          "type": "address"
        },
        {
          "internalType": "address",
          "name": "adminWallet_",
          "type": "address"
        },
        {
          "internalType": "address",
          "name": "termDiamond_",
          "type": "address"
        }
      ],
      "name": "pairTermContracts",
      "outputs": [],
      "stateMutability": "nonpayable",
      "type": "function"
    },
    {
      "inputs": [],
      "name": "pauseLocking",
      "outputs": [],
      "stateMutability": "nonpayable",
      "type": "function"
    },
    {
      "inputs": [],
      "name": "pauseUnlocking",
      "outputs": [],
      "stateMutability": "nonpayable",
      "type": "function"
    },
    {
      "inputs": [],
      "name": "proxiableUUID",
      "outputs": [
        {
          "internalType": "bytes32",
          "name": "",
          "type": "bytes32"
        }
      ],
      "stateMutability": "view",
      "type": "function"
    },
    {
      "inputs": [],
      "name": "purchaseToken",
      "outputs": [
        {
          "internalType": "contract IERC20",
          "name": "",
          "type": "address"
        }
      ],
      "stateMutability": "view",
      "type": "function"
    },
    {
      "inputs": [
        {
          "internalType": "bytes32",
          "name": "role",
          "type": "bytes32"
        },
        {
          "internalType": "address",
          "name": "callerConfirmation",
          "type": "address"
        }
      ],
      "name": "renounceRole",
      "outputs": [],
      "stateMutability": "nonpayable",
      "type": "function"
    },
    {
      "inputs": [
        {
          "internalType": "bytes32[]",
          "name": "ids",
          "type": "bytes32[]"
        },
        {
          "internalType": "uint256[]",
          "name": "prices",
          "type": "uint256[]"
        },
        {
          "internalType": "uint256[]",
          "name": "nonces",
          "type": "uint256[]"
        }
      ],
      "name": "revealOffers",
      "outputs": [],
      "stateMutability": "nonpayable",
      "type": "function"
    },
    {
      "inputs": [],
      "name": "revealTime",
      "outputs": [
        {
          "internalType": "uint256",
          "name": "",
          "type": "uint256"
        }
      ],
      "stateMutability": "view",
      "type": "function"
    },
    {
      "inputs": [
        {
          "internalType": "bytes32",
          "name": "role",
          "type": "bytes32"
        },
        {
          "internalType": "address",
          "name": "account",
          "type": "address"
        }
      ],
      "name": "revokeRole",
      "outputs": [],
      "stateMutability": "nonpayable",
      "type": "function"
    },
    {
      "inputs": [
        {
          "internalType": "uint256",
          "name": "auctionEndTime_",
          "type": "uint256"
        }
      ],
      "name": "setEndTime",
      "outputs": [],
      "stateMutability": "nonpayable",
      "type": "function"
    },
    {
      "inputs": [
        {
          "internalType": "uint256",
          "name": "offerCount_",
          "type": "uint256"
        }
      ],
      "name": "setOfferCount",
      "outputs": [],
      "stateMutability": "nonpayable",
      "type": "function"
    },
    {
      "inputs": [
        {
          "internalType": "uint256",
          "name": "revealTime_",
          "type": "uint256"
        }
      ],
      "name": "setRevealTime",
      "outputs": [],
      "stateMutability": "nonpayable",
      "type": "function"
    },
    {
      "inputs": [
        {
          "internalType": "uint256",
          "name": "auctionStartTime_",
          "type": "uint256"
        }
      ],
      "name": "setStartTime",
      "outputs": [],
      "stateMutability": "nonpayable",
      "type": "function"
    },
    {
      "inputs": [
        {
          "internalType": "bytes4",
          "name": "interfaceId",
          "type": "bytes4"
        }
      ],
      "name": "supportsInterface",
      "outputs": [
        {
          "internalType": "bool",
          "name": "",
          "type": "bool"
        }
      ],
      "stateMutability": "view",
      "type": "function"
    },
    {
      "inputs": [],
      "name": "termAuction",
      "outputs": [
        {
          "internalType": "contract ITermAuction",
          "name": "",
          "type": "address"
        }
      ],
      "stateMutability": "view",
      "type": "function"
    },
    {
      "inputs": [],
      "name": "termAuctionId",
      "outputs": [
        {
          "internalType": "bytes32",
          "name": "",
          "type": "bytes32"
        }
      ],
      "stateMutability": "view",
      "type": "function"
    },
    {
      "inputs": [],
      "name": "termRepoId",
      "outputs": [
        {
          "internalType": "bytes32",
          "name": "",
          "type": "bytes32"
        }
      ],
      "stateMutability": "view",
      "type": "function"
    },
    {
      "inputs": [],
      "name": "termRepoServicer",
      "outputs": [
        {
          "internalType": "contract ITermRepoServicer",
          "name": "",
          "type": "address"
        }
      ],
      "stateMutability": "view",
      "type": "function"
    },
    {
      "inputs": [
        {
          "internalType": "bytes32",
          "name": "id",
          "type": "bytes32"
        },
        {
          "internalType": "address",
          "name": "offeror",
          "type": "address"
        },
        {
          "internalType": "uint256",
          "name": "amount",
          "type": "uint256"
        }
      ],
      "name": "unlockOfferPartial",
      "outputs": [],
      "stateMutability": "nonpayable",
      "type": "function"
    },
    {
      "inputs": [
        {
          "internalType": "address",
          "name": "offeror",
          "type": "address"
        },
        {
          "internalType": "bytes32[]",
          "name": "ids",
          "type": "bytes32[]"
        }
      ],
      "name": "unlockOffers",
      "outputs": [],
      "stateMutability": "nonpayable",
      "type": "function"
    },
    {
      "inputs": [
        {
          "internalType": "bytes32[]",
          "name": "ids",
          "type": "bytes32[]"
        }
      ],
      "name": "unlockOffers",
      "outputs": [],
      "stateMutability": "nonpayable",
      "type": "function"
    },
    {
      "inputs": [],
      "name": "unlockingPaused",
      "outputs": [
        {
          "internalType": "bool",
          "name": "",
          "type": "bool"
        }
      ],
      "stateMutability": "view",
      "type": "function"
    },
    {
      "inputs": [],
      "name": "unpauseLocking",
      "outputs": [],
      "stateMutability": "nonpayable",
      "type": "function"
    },
    {
      "inputs": [],
      "name": "unpauseUnlocking",
      "outputs": [],
      "stateMutability": "nonpayable",
      "type": "function"
    },
    {
      "inputs": [
        {
          "internalType": "address",
          "name": "upgradeAddress",
          "type": "address"
        }
      ],
      "name": "upgrade",
      "outputs": [],
      "stateMutability": "nonpayable",
      "type": "function"
    },
    {
      "inputs": [
        {
          "internalType": "address",
          "name": "newImplementation",
          "type": "address"
        },
        {
          "internalType": "bytes",
          "name": "data",
          "type": "bytes"
        }
      ],
      "name": "upgradeToAndCall",
      "outputs": [],
      "stateMutability": "payable",
      "type": "function"
    },
    {
      "inputs": [],
      "name": "version",
      "outputs": [
        {
          "internalType": "string",
          "name": "",
          "type": "string"
        }
      ],
      "stateMutability": "view",
      "type": "function"
    }
  ],
  "bytecode": "0x60a08060405234620000d157306080527ff0c57e16840df040f15088dc2f81fe391c3923bec73e23a9662efc9c229c6a009081549060ff8260401c16620000c257506001600160401b036002600160401b0319828216016200007c575b604051613c929081620000d78239608051818181611f7201526120470152f35b6001600160401b031990911681179091556040519081527fc7f505b2f371ae2175ee4913f4499e1f2633a7b5936321eed1cdaeb6115181d290602090a13880806200005c565b63f92ee8a960e01b8152600490fd5b600080fdfe608080604052600436101561001357600080fd5b600090813560e01c90816301ffc9a714612d96575080630900f01014612d1d5780630c2754ca14612d015780630c57f41414612c2e5780631115c24d14610afc5780631f64270514612bb8578063201a662514612b8f5780632067a73f14612b6657806323ef922814612973578063248a9ca31461293957806325a2471a1461291b57806327df3d3e146128f25780632f2ff15d146128a7578063357a77d21461287e57806336568abe146128365780633e0a322d1461281b5780633e2cf6d6146127f75780633e836b3d146127875780633efbfd8c1461276157806341da5432146126f057806348ce1bbb1461226b5780634b449cba1461224d5780634f1ef28614611fca57806352d1902d14611f5f57806354fd4d5014611f1b5780635ff8d52614611d585780636d73314114611d3a5780637043f0341461195a578063720e52c51461176757806372e3a5b11461172557806375b238fc146116fc5780637d33274f146116d35780637e3f71d5146116ad5780638a5cd91e1461163457806391d14854146115db578063a217fddf146115bf578063a95c4d6214611596578063ab63cf0e14611105578063ad3cb1cc146110c7578063b2a02de814610ffc578063ba829d7114610fde578063c1e2850714610fc3578063c44cee7314610be3578063cc33cb4514610bba578063cc5b6e4a14610b9d578063ccb98ffc14610b82578063cfe9232b14610b59578063cffbc29714610b1a578063d048db3714610afc578063d547741f14610aad578063d77883fb146108f1578063d780e488146108d6578063db875b69146102935763eb54f9ec1461027357600080fd5b346102905780600319360112610290576020600254604051908152f35b80fd5b5034610290576020366003190112610290576004356001600160401b0381116108d257366023820112156108d2578060040135906102d0826130d3565b916102de6040519384612edb565b808352602460a06020850192028301019136831161067c57602401905b8282106108b857505050600354421180156108ad575b61089b5760ff600d5460081c16610889576008546040516325c3ed4760e01b815290602090829060049082906001600160a01b03165afa90811561085157600491602091859161085c575b50604051631b6685b560e21b815292839182906001600160a01b03165afa908115610851578391610822575b50610810576103956134cf565b61039f815161326e565b825b82518110156107ec576103b481846132b0565b5160208101516001600160a01b03163303610768576096600c5410156107da5780518552600b602052604085206004015415908161077a5780518652600b60209081526040872060010154908201516001600160a01b03918216911603610768578051915b60065460808301516001600160a01b0390811691168190036107505750606082015160055481106107385750908691838352600b60205260046040842001549061052360018060a01b036020850151166040850151606086015160018060a01b03608088015116916040519361048e85612e54565b8a855260208086019182526040808701938452606087018c81526080880195865260a0880196875260c088018d81528e8e52600b909352908c209651875591516001870180546001600160a01b039283166001600160a01b0319918216179091559351600288015591516003870155925160048601559251600590940180549490931693169290921781559051151590613365565b610706575b606082015180821015610680575060085460208301516060909301516001600160a01b03918216939091169161055d91613523565b823b15610655576064849283604051958694859363e8caab0960e01b8552336004860152602485015260448401525af1801561065957610668575b50505b8452600b60205283604081208054806105b485876132b0565b526009546001805490840154600285015460048601546005909601546001600160a01b0392831696908316959490939216803b1561066457879560e4948793604051998a9889976303228b3f60e61b89526004890152602488015260448701526064860152608485015260a4840152600060c48401525af1801561065957610641575b50506001016103a1565b61064a90612e2b565b610655578338610637565b8380fd5b6040513d84823e3d90fd5b8780fd5b61067190612e2b565b61067c578438610598565b8480fd5b808211610691575b5050505061059b565b6008546020909301516001600160a01b039384169316916106b29190613523565b823b15610655576106dc928492836040518096819582946318ddb12f60e11b84526004840161313e565b03925af18015610659576106f2575b8080610688565b6106fb90612e2b565b61067c5784386106eb565b909150600c5460018101811161072457600101600c55869190610528565b634e487b7160e01b88526011600452602488fd5b6024906040519063012a8d3160e11b82526004820152fd5b6024906040519063e34b641f60e01b82526004820152fd5b60405163738b91eb60e11b8152600490fd5b805160405160208101918252606033811b604083015230901b6054820152604881526107a581612e8a565b519020808752600b60205260046040882001546107c25791610419565b602490604051906327fce3dd60e11b82526004820152fd5b6040516336ac50e160e21b8152600490fd5b6001600080516020613bbd833981519152556040518061080c8482613006565b0390f35b60405163bbc439e160e01b8152600490fd5b610844915060203d60201161084a575b61083c8183612edb565b810190613230565b38610388565b503d610832565b6040513d85823e3d90fd5b61087c9150823d8411610882575b6108748183612edb565b810190613211565b3861035c565b503d61086a565b60405163059e557960e41b8152600490fd5b60405163f046007760e01b8152600490fd5b506002544210610311565b602060a0916108c736856130ea565b8152019101906102fb565b5080fd5b503461029057602036600319011261029057600435600c5580f35b50346102905760c03660031901126102905761090b612deb565b6001600160a01b03906024358281169190829003610655576044359280841680940361067c57606435938185168503610aa857608435948286168603610aa85760a4358381168103610aa857336000908152600080516020613b1d8339815191526020526040902054600080516020613afd8339815191529060ff1615610a8a5750600d5460ff8116610a785788976109d36109df946109cd8b9960016109d99660ff191617600d5560018060a01b03199981168a600a541617600a556136b1565b50613737565b506137bd565b50613843565b5060095491848184161760095560085416176008551617815490600154600254926003549060055491843b15610a7457869460e493869260405198899788966308866d13891b8852600488015260248701523060448701526064860152608485015268056bc75e2d6310000060a485015260c48401525af1801561065957610a645750f35b610a6d90612e2b565b6102905780f35b8680fd5b604051634ce377bb60e11b8152600490fd5b6044906040519063e2517d3f60e01b82523360048301526024820152fd5b600080fd5b503461029057604036600319011261029057610af8600435610acd612e01565b90808452600080516020613b7d833981519152602052610af3600160408620015461349c565b61393e565b5080f35b50346102905780600319360112610290576020600c54604051908152f35b50346102905760203660031901126102905760209060ff906040906001600160a01b03610b45612deb565b168152600784522054166040519015158152f35b50346102905780600319360112610290576020604051600080516020613bfd8339815191528152f35b50346102905760203660031901126102905760043560045580f35b503461029057806003193601126102905760209054604051908152f35b50346102905780600319360112610290576020604051600080516020613b5d8339815191528152f35b5034610290576040366003190112610290576001600160401b03600435818111610fbf57610c15903690600401612fa6565b9160243590811161065557610c2e903690600401612fa6565b610c366133f4565b808401808511610fa957600c54809103610f915750610c54846130d3565b92610c626040519485612edb565b848452610c6e856130d3565b601f1995908601875b818110610f7a575050610c89836130d3565b95610c976040519788612edb565b838752610ca3846130d3565b01875b818110610f6357508792905082805b838510610e6657505050505084855b828110610db45750505050600c54610da057906040519283926040840160408552815180915260609060206060870193019184905b828210610d4c57505050508381036020850152602080845192838152019301915b818110610d28575050500390f35b91935091602060e082610d3e6001948851612f58565b019401910191849392610d1a565b8351805186526020818101516001600160a01b0390811682890152604080840151908901528284015188850152608092830151169187019190915289985060a0909501949093019260019190910190610cf9565b634e487b7160e01b83526001600452602483fd5b610dbf818486613248565b358752600b6020526040872091600483015415610e435760ff600584015460a01c16610e205790610e1a610e13600193610df886613305565b610e02828c6132b0565b52610e0d818b6132b0565b506133ad565b93546139c1565b01610cc4565b6024610e2d838688613248565b60405163b72a25ad60e01b815290356004820152fd5b6024610e50838688613248565b60405163401c968f60e11b815290356004820152fd5b610e71858585613248565b358a52600b60205260408a2094600486015415610f565760ff600587015460a01c1615610f3d576003860154809211600014610eb9576040516305e5dfdd60e11b8152600490fd5b610f35610f2e8484610f238d9760019798610ed38d613305565b93610edc613382565b508451948a8060a01b0390816020820151169260809260a084840151930151169360405198610f0a8a612e6f565b89526020890152604088015260608701528501526132b0565b52610e0d818d6132b0565b96546139c1565b019390610cb5565b60248654604051906342b00fd560e01b82526004820152fd5b610e506024918686613248565b602090610f6e613159565b82828b01015201610ca6565b602090610f85613382565b82828a01015201610c77565b60249060405190633186b0c560e11b82526004820152fd5b634e487b7160e01b600052601160045260246000fd5b8280fd5b50346102905760203660031901126102905760043560035580f35b50346102905780600319360112610290576020600354604051908152f35b503461029057366003190160c081126108d25760a0136102905761109f61102d60a43561102836612efe565b613191565b6004358352600b60205260c060408420918051835560018301600560018060a01b0394856020850151169260018060a01b03199384825416179055604084015160028201556060840151600382015560808401516004820155019360a083015116908454161783550151151590613365565b600c54600181018091116110b357600c5580f35b634e487b7160e01b82526011600452602482fd5b503461029057806003193601126102905761080c6040516110e781612ea5565b60058152640352e302e360dc1b60208201526040519182918261305d565b5034610290576040366003190112610290576004356001600160401b0381116108d257611136903690600401612fd6565b61113e612e01565b6003544211801561158b575b61089b5760ff600d5460081c16610889576008546040516325c3ed4760e01b815290602090829060049082906001600160a01b03165afa90811561156357600491602091879161156e575b50604051631b6685b560e21b815292839182906001600160a01b03165afa908115611563578591611544575b50610810576111ce6134cf565b336001600160a01b03821614611532576111e78261326e565b92845b838110611211576001600080516020613bbd833981519152556040518061080c8782613006565b611225366112208387866132a0565b6130ea565b60208101516001600160a01b03163303610768576096600c5410156107da5780518752600b60205260408720600401541590816114ea5780518852600b60209081526040892060010154908201516001600160a01b03918216911603610768578051915b60065460808301516001600160a01b0390811691168190036107505750606082015160055481106107385750908891838352600b6020526004604084200154906112fe60018060a01b036020850151166040850151606086015160018060a01b03608088015116916040519361048e85612e54565b6114b8575b606082015180821015611432575060085460208301516060909301516001600160a01b03918216939091169161133891613523565b823b15610655576064849283604051958694859363e8caab0960e01b8552336004860152602485015260448401525af180156106595761141e575b50505b8652600b602052856040812080548061138f858a6132b0565b5260095460018054908401546002850154600486015460059096015490956001600160a01b03918216959282169490911692833b15610664576113ed8b899788946040519a8b998a9889976303228b3f60e61b8952600489016132c4565b03925af1801561065957611406575b50506001016111ea565b61140f90612e2b565b61141a5785386113fc565b8580fd5b61142790612e2b565b610a74578638611373565b808211611443575b50505050611376565b6008546020909301516001600160a01b039384169316916114649190613523565b823b156106555761148e928492836040518096819582946318ddb12f60e11b84526004840161313e565b03925af18015610659576114a4575b808061143a565b6114ad90612e2b565b610a7457863861149d565b909150600c546001810181116114d657600101600c55889190611303565b634e487b7160e01b8a52601160045260248afd5b805160405160208101918252606033811b604083015230901b60548201526048815261151581612e8a565b519020808952600b602052600460408a2001546107c25791611289565b6040516333d8ca2d60e11b8152600490fd5b61155d915060203d60201161084a5761083c8183612edb565b386111c1565b6040513d87823e3d90fd5b6115859150823d8411610882576108748183612edb565b38611195565b50600254421061114a565b50346102905780600319360112610290576006546040516001600160a01b039091168152602090f35b5034610290578060031936011261029057602090604051908152f35b50346102905760403660031901126102905760406115f7612e01565b916004358152600080516020613b7d833981519152602052209060018060a01b0316600052602052602060ff604060002054166040519015158152f35b503461029057806003193601126102905761164d61342c565b600d805461ff001916610100179055600954600154825483926001600160a01b03169190823b156116a8576044849283604051958694859363935dcfc760e01b8552600485015260248401525af1801561065957610a645750f35b505050fd5b5034610290578060031936011261029057602060ff600d5460081c166040519015158152f35b5034610290578060031936011261029057600a546040516001600160a01b039091168152602090f35b50346102905780600319360112610290576020604051600080516020613bdd8339815191528152f35b503461029057602036600319011261029057611758604060e092611747613159565b506004358152600b60205220613305565b6117656040518092612f58565bf35b5034610290576020806003193601126108d2576004356001600160401b038111610fbf57611799903690600401612fa6565b60ff600d9392935460101c16611948576008546040516325c3ed4760e01b81526001600160a01b039184908290600490829086165afa9081156119035782918591889161192b575b50600460405180948193631b6685b560e21b8352165afa90811561190357869161190e575b50610810576118136134cf565b600254421061089b576003544211806118b5575b61089b57845b82811061184a57856001600080516020613bbd8339815191525580f35b611855818487613248565b358652600b8085526004604088200154156118a857611875828588613248565b3587528452816001604088200154163303610768576001906118a23361189c83878a613248565b35613530565b0161182d565b6024610e50838689613248565b5060048382600a541660405192838092638dfea9e760e01b82525afa9081156119035786916118e6575b5015611827565b6118fd9150843d861161084a5761083c8183612edb565b386118df565b6040513d88823e3d90fd5b6119259150843d861161084a5761083c8183612edb565b38611806565b6119429150823d8411610882576108748183612edb565b386117e1565b604051631370a4e760e31b8152600490fd5b503461029057610120366003190112610290576004356001600160401b0381116108d25761198c9036906004016130a6565b906024356001600160401b038111610655576119ac9036906004016130a6565b919060c435906001600160a01b0382168203610aa85760e435936001600160401b038511610a745736602386011215610a74578460040135946119ee866130d3565b956119fc6040519788612edb565b8087526024602088019160051b83010191368311611d3657602401905b828210611d1e57505050610104356001600160a01b0381169003610aa857600080516020613c3d83398151915254936001600160401b0385161580611d10575b6001600160401b0386166001149081611d06575b159081611cfd575b50611ceb576001600160401b03198516600117600080516020613c3d83398151915255604085901c60ff1615611cc2575b611aae6139ea565b611ab66139ea565b611abe6139ea565b611ac66139ea565b6001600080516020613bbd83398151915255611ae461010435613625565b5060643560443511611ca15787959496611b17602060405183819483830196873781018a83820152038084520182612edb565b5190208555611b3f602060405183819483830196873781018883820152038084520182612edb565b51902060015560443560025560643560035560843560045560a435600555600680546001600160a01b0319166001600160a01b03929092169190911790558051611b88816130d3565b90611b966040519283612edb565b808252611ba5601f19916130d3565b01366020830137825b825160ff821690811015611c2f5760ff91906001600160a01b03611bd282876132b0565b5116865260076020526040862080548419166001179055611c076001600160a01b03611bfe83886132b0565b511691856132b0565b52169360ff8514611c1b5793600101611bae565b634e487b7160e01b84526011600452602484fd5b8460ff8782600c558119600d5416600d5560401c1615611c4c5780f35b60ff60401b19600080516020613c3d8339815191525416600080516020613c3d833981519152557fc7f505b2f371ae2175ee4913f4499e1f2633a7b5936321eed1cdaeb6115181d2602060405160018152a180f35b6040516372067af960e11b8152604480356004830152606435602483015290fd5b6001600160481b031985166001600160401b0117600080516020613c3d83398151915255611aa6565b60405163f92ee8a960e01b8152600490fd5b90501538611a75565b303b159150611a6d565b5060ff8560401c1615611a59565b60208091611d2b84612e17565b815201910190611a19565b8980fd5b50346102905780600319360112610290576020600154604051908152f35b5034610290576060366003190112610290576001600160401b03600435818111610fbf57611d8a903690600401612fa6565b9160249060243581811161141a57611da6903690600401612fa6565b91909360449160443590811161066457611dc4903690600401612fa6565b6003949194544210611f0957885b888110611ddd578980f35b611de8818a86613248565b35611df482858b613248565b358b611e0184868b613248565b356040519060209182810191858352604082015260408152611e2281612ec0565b51902084835260026040600b9485855220015403611ef75768056bc75e2d63100000808411611edb5750838e525260408c2060038101829055600501805460ff60a01b1916600160a01b1790556009546001548d939290916001600160a01b0316803b1561067c578492836064928e946040519788968795632f68befb60e11b875260048701528501528d8401525af1801561065957611ec7575b5050600101611dd2565b611ed090612e2b565b611d36578938611ebd565b848a918d60405192632dc71e8d60e01b84526004840152820152fd5b604051630ce8dc1d60e11b8152600490fd5b6040516302a3f58760e51b8152600490fd5b503461029057806003193601126102905761080c604051611f3b81612ea5565b600b81526a19195d995b1bdc1b595b9d60aa1b60208201526040519182918261305d565b50346102905780600319360112610290577f00000000000000000000000000000000000000000000000000000000000000006001600160a01b03163003611fb8576020604051600080516020613b3d8339815191528152f35b60405163703e46dd60e11b8152600490fd5b50604036600319011261029057611fdf612deb565b9060249081356001600160401b0381116108d257366023820112156108d257806004013561200c81613042565b9461201a6040519687612edb565b818652602091828701933687838301011161141a57818692888693018737880101526001600160a01b03957f00000000000000000000000000000000000000000000000000000000000000008716308114908115612231575b50611fb8576120806133bc565b866009541696873b1561141a5785879860448293604051948593849263b3c2d50b60e01b84523060048501528916809d8401525af180156119035790869161221d575b50506040516352d1902d60e01b815283816004818a5afa8691816121ee575b506120ff57604051634c9c8ce360e01b8152600481018890528890fd5b869088600080516020613b3d833981519152918281036121d95750843b156121c3575080546001600160a01b031916821790556040518692917fbc7cd75a20ee27fd9adebab32041f755214dbc6bffa90cc0225b39da2e5c2d3b8480a28151156121a55750610af89482915190845af4903d1561219c573d61218081613042565b9061218e6040519283612edb565b81528581943d92013e613a19565b60609250613a19565b945050505050346121b4575080f35b63b398979f60e01b8152600490fd5b604051634c9c8ce360e01b815260048101849052fd5b60405190632a87526960e21b82526004820152fd5b9091508481813d8311612216575b6122068183612edb565b81010312610a74575190386120e2565b503d6121fc565b61222690612e2b565b61067c5784386120c3565b905087600080516020613b3d8339815191525416141538612073565b50346102905780600319360112610290576020600454604051908152f35b503461029057606036600319011261029057612285612deb565b6024356001600160401b038111610fbf576122a4903690600401612fd6565b90916044356001600160a01b03811690819003610aa857600354421180156126e5575b61089b5760ff600d5460081c16610889576008546040516325c3ed4760e01b815290602090829060049082906001600160a01b03165afa9081156119035760049160209188916126c8575b50604051631b6685b560e21b815292839182906001600160a01b03165afa9081156119035786916126a9575b506108105761234b6134cf565b612353613464565b6001600160a01b038216146115325761236b8261326e565b92845b838110612395576001600080516020613bbd833981519152556040518061080c8782613006565b6123a4366112208387866132a0565b60208101516001600160a01b0390811690851603610768576096600c5410156107da5780518752600b60205260408720600401541590816126585780518852600b60209081526040892060010154908201516001600160a01b03918216911603610768578051915b60065460808301516001600160a01b0390811691168190036107505750606082015160055481106107385750908891838352600b60205260046040842001549061248160018060a01b036020850151166040850151606086015160018060a01b03608088015116916040519361048e85612e54565b61263a575b6060820151808210156125b4575060085460208301516060909301516001600160a01b0391821693909116916124bb91613523565b823b15610655576064849283604051958694859363e8caab0960e01b8552336004860152602485015260448401525af18015610659576125a0575b50505b8652600b6020528560408120805480612512858a6132b0565b526009546001805490840154600285015460048601546005909601546001600160a01b0390811695919481169392169190833b15610664576125738896928793604051998a98899788966303228b3f60e61b885260443595600489016132c4565b03925af180156106595761258c575b505060010161236e565b61259590612e2b565b61141a578538612582565b6125a990612e2b565b610a745786386124f6565b8082116125c5575b505050506124f9565b6008546020909301516001600160a01b039384169316916125e69190613523565b823b1561065557612610928492836040518096819582946318ddb12f60e11b84526004840161313e565b03925af1801561065957612626575b80806125bc565b61262f90612e2b565b610a7457863861261f565b909150600c546001810181116114d657600101600c55889190612486565b80516040516020810191825260018060601b03198760601b1660408201523060601b60548201526048815261268c81612e8a565b519020808952600b602052600460408a2001546107c2579161240c565b6126c2915060203d60201161084a5761083c8183612edb565b3861233e565b6126df9150823d8411610882576108748183612edb565b38612312565b5060025442106122c7565b503461029057806003193601126102905761270961342c565b600d805462ff000019169055600954600154825483926001600160a01b03169190823b156116a8576044849283604051958694859363485c705560e11b8552600485015260248401525af1801561065957610a645750f35b5034610290578060031936011261029057602060ff600d5460101c166040519015158152f35b50346102905780600319360112610290576127a061342c565b600d805461ff0019169055600954600154825483926001600160a01b03169190823b156116a85760448492836040519586948593632f5d386f60e01b8552600485015260248401525af1801561065957610a645750f35b5034610290578060031936011261029057602060405168056bc75e2d631000008152f35b50346102905760203660031901126102905760043560025580f35b503461029057604036600319011261029057612850612e01565b336001600160a01b0382160361286c57610af89060043561393e565b60405163334bd91960e11b8152600490fd5b50346102905780600319360112610290576008546040516001600160a01b039091168152602090f35b503461029057604036600319011261029057610af86004356128c7612e01565b90808452600080516020613b7d8339815191526020526128ed600160408620015461349c565b6138c9565b50346102905780600319360112610290576020604051600080516020613afd8339815191528152f35b50346102905780600319360112610290576020600554604051908152f35b503461029057602036600319011261029057600160406020926004358152600080516020613b7d8339815191528452200154604051908152f35b50346102905760403660031901126102905761298d612deb565b602480356001600160401b038111610655576129ad903690600401612fa6565b926129b6613464565b60ff600d5460101c16611948576008546040516325c3ed4760e01b81526020916001600160a01b03919083908290600490829086165afa908115612b2157829184918a91612b49575b50600460405180948193631b6685b560e21b8352165afa908115612b21578891612b2c575b5061081057612a316134cf565b600254421061089b57600354421180612ad3575b61089b5790938282169190875b878110612a6f57886001600080516020613bbd8339815191525580f35b612a7a818988613248565b358952600b808852600460408b20015415612ac757612a9a828a89613248565b358a52875282600160408b2001541684036107685780612ac18661189c6001948c8b613248565b01612a52565b50610e50908887613248565b5060048282600a541660405192838092638dfea9e760e01b82525afa908115612b21578891612b04575b5015612a45565b612b1b9150833d851161084a5761083c8183612edb565b38612afd565b6040513d8a823e3d90fd5b612b439150833d851161084a5761083c8183612edb565b38612a24565b612b609150823d8411610882576108748183612edb565b386129ff565b50346102905760c03660031901126102905760e0611758612b8636612efe565b60a43590613191565b50346102905780600319360112610290576020604051600080516020613abd8339815191528152f35b5034610290578060031936011261029057612bd161342c565b600d805462ff0000191662010000179055600954600154825483926001600160a01b03169190823b156116a8576044849283604051958694859363703d84ab60e01b8552600485015260248401525af1801561065957610a645750f35b50346102905760603660031901126102905780612c49612e01565b612c516133f4565b6008546001600160a01b0391908216803b156116a8576040516318ddb12f60e11b81529184918391829084908290612c9090604435906004840161313e565b03925af1908115610851578391612cea575b505060095416600154813b15612ce6578291604483926040519485938492635ba1a50760e01b8452600484015260043560248401525af1801561065957610a645750f35b5050fd5b612cf390612e2b565b612cfe578138612ca2565b50fd5b5034610290578060031936011261029057602060405160968152f35b503461029057602036600319011261029057612d37612deb565b612d3f6133bc565b6009546001600160a01b0390811691839190833b15610fbf5760449083604051958694859363b3c2d50b60e01b85523060048601521660248401525af1801561065957612d8a575080f35b612d9390612e2b565b80f35b9050346108d25760203660031901126108d25760043563ffffffff60e01b8116809103610fbf5760209250637965db0b60e01b8114908115612dda575b5015158152f35b6301ffc9a760e01b14905038612dd3565b600435906001600160a01b0382168203610aa857565b602435906001600160a01b0382168203610aa857565b35906001600160a01b0382168203610aa857565b6001600160401b038111612e3e57604052565b634e487b7160e01b600052604160045260246000fd5b60e081019081106001600160401b03821117612e3e57604052565b60a081019081106001600160401b03821117612e3e57604052565b608081019081106001600160401b03821117612e3e57604052565b604081019081106001600160401b03821117612e3e57604052565b606081019081106001600160401b03821117612e3e57604052565b601f909101601f19168101906001600160401b03821190821017612e3e57604052565b60a0906003190112610aa85760405190612f1782612e6f565b60043582526001600160a01b03826024358281168103610aa8576020820152604435604082015260643560608201526084359182168203610aa85760800152565b60c0809180518452602081015160018060a01b03809116602086015260408201516040860152606082015160608601526080820151608086015260a08201511660a085015201511515910152565b9181601f84011215610aa8578235916001600160401b038311610aa8576020808501948460051b010111610aa857565b9181601f84011215610aa8578235916001600160401b038311610aa85760208085019460a08502010111610aa857565b602090602060408183019282815285518094520193019160005b82811061302e575050505090565b835185529381019392810192600101613020565b6001600160401b038111612e3e57601f01601f191660200190565b6020808252825181830181905290939260005b82811061309257505060409293506000838284010152601f8019910116010190565b818101860151848201604001528501613070565b9181601f84011215610aa8578235916001600160401b038311610aa85760208381860195010111610aa857565b6001600160401b038111612e3e5760051b60200190565b91908260a0910312610aa85760405161310281612e6f565b60806131398183958035855261311a60208201612e17565b6020860152604081013560408601526060810135606086015201612e17565b910152565b6001600160a01b039091168152602081019190915260400190565b6040519061316682612e54565b8160c06000918281528260208201528260408201528260608201528260808201528260a08201520152565b9061319a613159565b5081519160018060a01b03806020830151169260408084019182519082519060208201928352838201528281526131d081612ec0565b5190209151926080606086015195015116948151966131ee88612e54565b875260208701528501526060840152608083015260a0820152600060c082015290565b90816020910312610aa857516001600160a01b0381168103610aa85790565b90816020910312610aa857518015158103610aa85790565b91908110156132585760051b0190565b634e487b7160e01b600052603260045260246000fd5b90613278826130d3565b6132856040519182612edb565b8281528092613296601f19916130d3565b0190602036910137565b91908110156132585760a0020190565b80518210156132585760209160051b010190565b90815260208101919091526001600160a01b0391821660408201526060810192909252608082019290925291811660a083015290911660c082015260e00190565b9060405161331281612e54565b60c060ff829480548452600560018060a01b0391826001820154166020870152600281015460408701526003810154606087015260048101546080870152015490811660a085015260a01c161515910152565b805460ff60a01b191691151560a01b60ff60a01b16919091179055565b6040519061338f82612e6f565b60006080838281528260208201528260408201528260608201520152565b6000198114610fa95760010190565b336000908152600080516020613c1d8339815191526020526040902054600080516020613abd8339815191529060ff1615610a8a5750565b336000908152600080516020613a9d8339815191526020526040902054600080516020613bfd8339815191529060ff1615610a8a5750565b336000908152600080516020613add8339815191526020526040902054600080516020613bdd8339815191529060ff1615610a8a5750565b336000908152600080516020613b9d8339815191526020526040902054600080516020613b5d8339815191529060ff1615610a8a5750565b80600052600080516020613b7d83398151915260205260406000203360005260205260ff6040600020541615610a8a5750565b600080516020613bbd83398151915260028154146134ed5760029055565b604051633ee5aeb560e01b8152600490fd5b60056000918281558260018201558260028201558260038201558260048201550155565b91908203918211610fa957565b600091818352600b602052604083209161354e6004840154936134ff565b600c54600019810190811161361157600c556009546001546001600160a01b03929183169190823b15610a74579060448792836040519586948593635ba1a50760e01b8552600485015260248401525af18015611563576135fe575b506008541690813b15610655579183916135db93836040518096819582946318ddb12f60e11b84526004840161313e565b03925af18015610659576135ed575050565b6135f78291612e2b565b6102905750565b61360a90949194612e2b565b92386135aa565b634e487b7160e01b85526011600452602485fd5b6001600160a01b03166000818152600080516020613b1d8339815191526020526040812054909190600080516020613afd83398151915290600080516020613b7d8339815191529060ff166136ab578184526020526040832082845260205260408320600160ff19825416179055600080516020613a7d833981519152339380a4600190565b50505090565b6001600160a01b03166000818152600080516020613a9d8339815191526020526040812054909190600080516020613bfd83398151915290600080516020613b7d8339815191529060ff166136ab578184526020526040832082845260205260408320600160ff19825416179055600080516020613a7d833981519152339380a4600190565b6001600160a01b03166000818152600080516020613c1d8339815191526020526040812054909190600080516020613abd83398151915290600080516020613b7d8339815191529060ff166136ab578184526020526040832082845260205260408320600160ff19825416179055600080516020613a7d833981519152339380a4600190565b6001600160a01b03166000818152600080516020613add8339815191526020526040812054909190600080516020613bdd83398151915290600080516020613b7d8339815191529060ff166136ab578184526020526040832082845260205260408320600160ff19825416179055600080516020613a7d833981519152339380a4600190565b6001600160a01b03166000818152600080516020613b9d8339815191526020526040812054909190600080516020613b5d83398151915290600080516020613b7d8339815191529060ff166136ab578184526020526040832082845260205260408320600160ff19825416179055600080516020613a7d833981519152339380a4600190565b90600091808352600080516020613b7d83398151915280602052604084209260018060a01b03169283855260205260ff604085205416156000146136ab578184526020526040832082845260205260408320600160ff19825416179055600080516020613a7d833981519152339380a4600190565b90600091808352600080516020613b7d83398151915280602052604084209260018060a01b03169283855260205260ff6040852054166000146136ab57818452602052604083208284526020526040832060ff1981541690557ff6391f5c32d9c69d2a47ea670b442974b53935d1edc7fd64eb21e047a839171b339380a4600190565b600052600b6020526139d660406000206134ff565b600c546000198101908111610fa957600c55565b60ff600080516020613c3d8339815191525460401c1615613a0757565b604051631afcd79f60e31b8152600490fd5b90613a405750805115613a2e57805190602001fd5b60405163d6bda27560e01b8152600490fd5b81511580613a73575b613a51575090565b604051639996b31560e01b81526001600160a01b039091166004820152602490fd5b50803b15613a4956fe2f8788117e7eff1d82e926ec794901d17c78024a50270940304540a733656f0db3c9a2228313d87a290b541e6906f28f17cf1bddb0fe5c16a1d3c55a85417e5b793a6c9b7e0a9549c74edc2f9ae0dc50903dfaa9a56fb0116b27a8c71de3e2c6b16e88c42fd4e48df2dd6a2eabd6bc9aec654ec170056b470819f8892cc6431c30d41a597cac127d8249d31298b50e481ee82c3f4a49ff93c76a22735aa9f3ad44fa5399874b75da801cb431822b6afcadb876f84eb39d7f05bf697e94b4484e360894a13ba1a3210667c828492db98dca3e2076cc3735a920a3ca505d382bbcc36a8568220526774f62a808c5b8dd8b7191b32206f87b2bfd1149584358996302dd7bc7dec4dceedda775e58dd541e08a116c6c53815c0bd028192f7b62680071dad3b8d800ed6b81a4c9f84973579b8b42e673b9a0771be09894ef8040dd789b779b17422d0df92223018b32b4d1fa46e071723d6817e2486d003becc55f00a49807205ce4d355092ef5a8a18f56e8913cf4a201fbe287825b095693c21775c1df76f4e50bdb95676f782d4b88b23904c5346d8bc7c986ae26f7e10e6018910cfb002fcf8644f87ebf6cf6e31899c8d8e9f7c329b465b6e36989a958507e8bf0c57e16840df040f15088dc2f81fe391c3923bec73e23a9662efc9c229c6a00a26469706673582212200901c80f8e2f7359c0781b5692c71b9e56464baf75266902d71c3b1716b122e764736f6c63430008160033",
  "linkReferences": {},
  "deployedLinkReferences": {}
}