{
  "_format": "hh-sol-artifact-1",
  "contractName": "TestingTermAuctionOfferLocker",
  "sourceName": "contracts/test/TestingTermAuctionOfferLocker.sol",
  "abi": [
    {
      "inputs": [],
      "name": "AlreadyTermContractPaired",
      "type": "error"
    },
    {
      "inputs": [],
      "name": "AuctionNotClosed",
      "type": "error"
    },
    {
      "inputs": [],
      "name": "AuctionNotOpen",
      "type": "error"
    },
    {
      "inputs": [],
      "name": "AuctionNotRevealing",
      "type": "error"
    },
    {
      "inputs": [
        {
          "internalType": "uint256",
          "name": "reveal",
          "type": "uint256"
        },
        {
          "internalType": "uint256",
          "name": "end",
          "type": "uint256"
        }
      ],
      "name": "AuctionRevealsAfterEnd",
      "type": "error"
    },
    {
      "inputs": [
        {
          "internalType": "uint256",
          "name": "start",
          "type": "uint256"
        },
        {
          "internalType": "uint256",
          "name": "reveal",
          "type": "uint256"
        }
      ],
      "name": "AuctionStartsAfterReveal",
      "type": "error"
    },
    {
      "inputs": [
        {
          "internalType": "address",
          "name": "token",
          "type": "address"
        }
      ],
      "name": "CollateralTokenNotApproved",
      "type": "error"
    },
    {
      "inputs": [
        {
          "internalType": "bytes32",
          "name": "offerId",
          "type": "bytes32"
        }
      ],
      "name": "GeneratingExistingOffer",
      "type": "error"
    },
    {
      "inputs": [],
      "name": "InvalidSelfReferral",
      "type": "error"
    },
    {
      "inputs": [],
      "name": "LockingPaused",
      "type": "error"
    },
    {
      "inputs": [],
      "name": "MaxOfferCountReached",
      "type": "error"
    },
    {
      "inputs": [],
      "name": "NoOfferToUnlock",
      "type": "error"
    },
    {
      "inputs": [
        {
          "internalType": "bytes32",
          "name": "id",
          "type": "bytes32"
        }
      ],
      "name": "NonExistentOffer",
      "type": "error"
    },
    {
      "inputs": [],
      "name": "OfferAlreadyRevealed",
      "type": "error"
    },
    {
      "inputs": [
        {
          "internalType": "uint256",
          "name": "amount",
          "type": "uint256"
        }
      ],
      "name": "OfferAmountTooLow",
      "type": "error"
    },
    {
      "inputs": [
        {
          "internalType": "uint256",
          "name": "offerCount",
          "type": "uint256"
        }
      ],
      "name": "OfferCountIncorrect",
      "type": "error"
    },
    {
      "inputs": [],
      "name": "OfferNotOwned",
      "type": "error"
    },
    {
      "inputs": [
        {
          "internalType": "bytes32",
          "name": "id",
          "type": "bytes32"
        }
      ],
      "name": "OfferNotRevealed",
      "type": "error"
    },
    {
      "inputs": [],
      "name": "OfferPriceModified",
      "type": "error"
    },
    {
      "inputs": [
        {
          "internalType": "bytes32",
          "name": "id",
          "type": "bytes32"
        }
      ],
      "name": "OfferRevealed",
      "type": "error"
    },
    {
      "inputs": [
        {
          "internalType": "address",
          "name": "token",
          "type": "address"
        }
      ],
      "name": "PurchaseTokenNotApproved",
      "type": "error"
    },
    {
      "inputs": [],
      "name": "RevealedOffersNotSorted",
      "type": "error"
    },
    {
      "inputs": [
        {
          "internalType": "bytes32",
          "name": "id",
          "type": "bytes32"
        },
        {
          "internalType": "uint256",
          "name": "maxPrice",
          "type": "uint256"
        }
      ],
      "name": "TenderPriceTooHigh",
      "type": "error"
    },
    {
      "inputs": [],
      "name": "UnlockingPaused",
      "type": "error"
    },
    {
      "anonymous": false,
      "inputs": [
        {
          "indexed": false,
          "internalType": "address",
          "name": "previousAdmin",
          "type": "address"
        },
        {
          "indexed": false,
          "internalType": "address",
          "name": "newAdmin",
          "type": "address"
        }
      ],
      "name": "AdminChanged",
      "type": "event"
    },
    {
      "anonymous": false,
      "inputs": [
        {
          "indexed": true,
          "internalType": "address",
          "name": "beacon",
          "type": "address"
        }
      ],
      "name": "BeaconUpgraded",
      "type": "event"
    },
    {
      "anonymous": false,
      "inputs": [
        {
          "indexed": false,
          "internalType": "uint8",
          "name": "version",
          "type": "uint8"
        }
      ],
      "name": "Initialized",
      "type": "event"
    },
    {
      "anonymous": false,
      "inputs": [
        {
          "indexed": true,
          "internalType": "bytes32",
          "name": "role",
          "type": "bytes32"
        },
        {
          "indexed": true,
          "internalType": "bytes32",
          "name": "previousAdminRole",
          "type": "bytes32"
        },
        {
          "indexed": true,
          "internalType": "bytes32",
          "name": "newAdminRole",
          "type": "bytes32"
        }
      ],
      "name": "RoleAdminChanged",
      "type": "event"
    },
    {
      "anonymous": false,
      "inputs": [
        {
          "indexed": true,
          "internalType": "bytes32",
          "name": "role",
          "type": "bytes32"
        },
        {
          "indexed": true,
          "internalType": "address",
          "name": "account",
          "type": "address"
        },
        {
          "indexed": true,
          "internalType": "address",
          "name": "sender",
          "type": "address"
        }
      ],
      "name": "RoleGranted",
      "type": "event"
    },
    {
      "anonymous": false,
      "inputs": [
        {
          "indexed": true,
          "internalType": "bytes32",
          "name": "role",
          "type": "bytes32"
        },
        {
          "indexed": true,
          "internalType": "address",
          "name": "account",
          "type": "address"
        },
        {
          "indexed": true,
          "internalType": "address",
          "name": "sender",
          "type": "address"
        }
      ],
      "name": "RoleRevoked",
      "type": "event"
    },
    {
      "anonymous": false,
      "inputs": [
        {
          "indexed": true,
          "internalType": "address",
          "name": "implementation",
          "type": "address"
        }
      ],
      "name": "Upgraded",
      "type": "event"
    },
    {
      "inputs": [],
      "name": "ADMIN_ROLE",
      "outputs": [
        {
          "internalType": "bytes32",
          "name": "",
          "type": "bytes32"
        }
      ],
      "stateMutability": "view",
      "type": "function"
    },
    {
      "inputs": [],
      "name": "AUCTIONEER_ROLE",
      "outputs": [
        {
          "internalType": "bytes32",
          "name": "",
          "type": "bytes32"
        }
      ],
      "stateMutability": "view",
      "type": "function"
    },
    {
      "inputs": [],
      "name": "DEFAULT_ADMIN_ROLE",
      "outputs": [
        {
          "internalType": "bytes32",
          "name": "",
          "type": "bytes32"
        }
      ],
      "stateMutability": "view",
      "type": "function"
    },
    {
      "inputs": [],
      "name": "DEVOPS_ROLE",
      "outputs": [
        {
          "internalType": "bytes32",
          "name": "",
          "type": "bytes32"
        }
      ],
      "stateMutability": "view",
      "type": "function"
    },
    {
      "inputs": [],
      "name": "INITIALIZER_ROLE",
      "outputs": [
        {
          "internalType": "bytes32",
          "name": "",
          "type": "bytes32"
        }
      ],
      "stateMutability": "view",
      "type": "function"
    },
    {
      "inputs": [],
      "name": "MAX_OFFER_COUNT",
      "outputs": [
        {
          "internalType": "uint256",
          "name": "",
          "type": "uint256"
        }
      ],
      "stateMutability": "view",
      "type": "function"
    },
    {
      "inputs": [],
      "name": "MAX_OFFER_PRICE",
      "outputs": [
        {
          "internalType": "uint256",
          "name": "",
          "type": "uint256"
        }
      ],
      "stateMutability": "view",
      "type": "function"
    },
    {
      "inputs": [
        {
          "components": [
            {
              "internalType": "bytes32",
              "name": "id",
              "type": "bytes32"
            },
            {
              "internalType": "address",
              "name": "offeror",
              "type": "address"
            },
            {
              "internalType": "uint256",
              "name": "offerPriceRevealed",
              "type": "uint256"
            },
            {
              "internalType": "uint256",
              "name": "amount",
              "type": "uint256"
            },
            {
              "internalType": "address",
              "name": "purchaseToken",
              "type": "address"
            }
          ],
          "internalType": "struct TermAuctionRevealedOffer",
          "name": "offer",
          "type": "tuple"
        },
        {
          "internalType": "uint256",
          "name": "nonce",
          "type": "uint256"
        }
      ],
      "name": "addOffer",
      "outputs": [],
      "stateMutability": "nonpayable",
      "type": "function"
    },
    {
      "inputs": [],
      "name": "auctionEndTime",
      "outputs": [
        {
          "internalType": "uint256",
          "name": "",
          "type": "uint256"
        }
      ],
      "stateMutability": "view",
      "type": "function"
    },
    {
      "inputs": [],
      "name": "auctionStartTime",
      "outputs": [
        {
          "internalType": "uint256",
          "name": "",
          "type": "uint256"
        }
      ],
      "stateMutability": "view",
      "type": "function"
    },
    {
      "inputs": [
        {
          "internalType": "contract IERC20Upgradeable",
          "name": "",
          "type": "address"
        }
      ],
      "name": "collateralTokens",
      "outputs": [
        {
          "internalType": "bool",
          "name": "",
          "type": "bool"
        }
      ],
      "stateMutability": "view",
      "type": "function"
    },
    {
      "inputs": [
        {
          "internalType": "bytes32[]",
          "name": "revealedOffers",
          "type": "bytes32[]"
        },
        {
          "internalType": "bytes32[]",
          "name": "unrevealedOffers",
          "type": "bytes32[]"
        }
      ],
      "name": "getAllOffers",
      "outputs": [
        {
          "components": [
            {
              "internalType": "bytes32",
              "name": "id",
              "type": "bytes32"
            },
            {
              "internalType": "address",
              "name": "offeror",
              "type": "address"
            },
            {
              "internalType": "uint256",
              "name": "offerPriceRevealed",
              "type": "uint256"
            },
            {
              "internalType": "uint256",
              "name": "amount",
              "type": "uint256"
            },
            {
              "internalType": "address",
              "name": "purchaseToken",
              "type": "address"
            }
          ],
          "internalType": "struct TermAuctionRevealedOffer[]",
          "name": "",
          "type": "tuple[]"
        },
        {
          "components": [
            {
              "internalType": "bytes32",
              "name": "id",
              "type": "bytes32"
            },
            {
              "internalType": "address",
              "name": "offeror",
              "type": "address"
            },
            {
              "internalType": "bytes32",
              "name": "offerPriceHash",
              "type": "bytes32"
            },
            {
              "internalType": "uint256",
              "name": "offerPriceRevealed",
              "type": "uint256"
            },
            {
              "internalType": "uint256",
              "name": "amount",
              "type": "uint256"
            },
            {
              "internalType": "address",
              "name": "purchaseToken",
              "type": "address"
            },
            {
              "internalType": "bool",
              "name": "isRevealed",
              "type": "bool"
            }
          ],
          "internalType": "struct TermAuctionOffer[]",
          "name": "",
          "type": "tuple[]"
        }
      ],
      "stateMutability": "nonpayable",
      "type": "function"
    },
    {
      "inputs": [],
      "name": "getOfferCount",
      "outputs": [
        {
          "internalType": "uint256",
          "name": "",
          "type": "uint256"
        }
      ],
      "stateMutability": "view",
      "type": "function"
    },
    {
      "inputs": [
        {
          "internalType": "bytes32",
          "name": "role",
          "type": "bytes32"
        }
      ],
      "name": "getRoleAdmin",
      "outputs": [
        {
          "internalType": "bytes32",
          "name": "",
          "type": "bytes32"
        }
      ],
      "stateMutability": "view",
      "type": "function"
    },
    {
      "inputs": [
        {
          "internalType": "bytes32",
          "name": "role",
          "type": "bytes32"
        },
        {
          "internalType": "address",
          "name": "account",
          "type": "address"
        }
      ],
      "name": "grantRole",
      "outputs": [],
      "stateMutability": "nonpayable",
      "type": "function"
    },
    {
      "inputs": [
        {
          "internalType": "bytes32",
          "name": "role",
          "type": "bytes32"
        },
        {
          "internalType": "address",
          "name": "account",
          "type": "address"
        }
      ],
      "name": "hasRole",
      "outputs": [
        {
          "internalType": "bool",
          "name": "",
          "type": "bool"
        }
      ],
      "stateMutability": "view",
      "type": "function"
    },
    {
      "inputs": [
        {
          "internalType": "string",
          "name": "termRepoId_",
          "type": "string"
        },
        {
          "internalType": "string",
          "name": "auctionId_",
          "type": "string"
        },
        {
          "internalType": "uint256",
          "name": "auctionStartTime_",
          "type": "uint256"
        },
        {
          "internalType": "uint256",
          "name": "revealTime_",
          "type": "uint256"
        },
        {
          "internalType": "uint256",
          "name": "auctionEndTime_",
          "type": "uint256"
        },
        {
          "internalType": "uint256",
          "name": "minimumTenderAmount_",
          "type": "uint256"
        },
        {
          "internalType": "contract IERC20Upgradeable",
          "name": "purchaseToken_",
          "type": "address"
        },
        {
          "internalType": "contract IERC20Upgradeable[]",
          "name": "collateralTokens_",
          "type": "address[]"
        },
        {
          "internalType": "address",
          "name": "termInitializer_",
          "type": "address"
        }
      ],
      "name": "initialize",
      "outputs": [],
      "stateMutability": "nonpayable",
      "type": "function"
    },
    {
      "inputs": [
        {
          "components": [
            {
              "internalType": "bytes32",
              "name": "id",
              "type": "bytes32"
            },
            {
              "internalType": "address",
              "name": "offeror",
              "type": "address"
            },
            {
              "internalType": "bytes32",
              "name": "offerPriceHash",
              "type": "bytes32"
            },
            {
              "internalType": "uint256",
              "name": "amount",
              "type": "uint256"
            },
            {
              "internalType": "address",
              "name": "purchaseToken",
              "type": "address"
            }
          ],
          "internalType": "struct TermAuctionOfferSubmission[]",
          "name": "offerSubmissions",
          "type": "tuple[]"
        }
      ],
      "name": "lockOffers",
      "outputs": [
        {
          "internalType": "bytes32[]",
          "name": "",
          "type": "bytes32[]"
        }
      ],
      "stateMutability": "nonpayable",
      "type": "function"
    },
    {
      "inputs": [
        {
          "components": [
            {
              "internalType": "bytes32",
              "name": "id",
              "type": "bytes32"
            },
            {
              "internalType": "address",
              "name": "offeror",
              "type": "address"
            },
            {
              "internalType": "bytes32",
              "name": "offerPriceHash",
              "type": "bytes32"
            },
            {
              "internalType": "uint256",
              "name": "amount",
              "type": "uint256"
            },
            {
              "internalType": "address",
              "name": "purchaseToken",
              "type": "address"
            }
          ],
          "internalType": "struct TermAuctionOfferSubmission[]",
          "name": "offerSubmissions",
          "type": "tuple[]"
        },
        {
          "internalType": "address",
          "name": "referralAddress",
          "type": "address"
        }
      ],
      "name": "lockOffersWithReferral",
      "outputs": [
        {
          "internalType": "bytes32[]",
          "name": "",
          "type": "bytes32[]"
        }
      ],
      "stateMutability": "nonpayable",
      "type": "function"
    },
    {
      "inputs": [
        {
          "internalType": "bytes32",
          "name": "id",
          "type": "bytes32"
        }
      ],
      "name": "lockedOffer",
      "outputs": [
        {
          "components": [
            {
              "internalType": "bytes32",
              "name": "id",
              "type": "bytes32"
            },
            {
              "internalType": "address",
              "name": "offeror",
              "type": "address"
            },
            {
              "internalType": "bytes32",
              "name": "offerPriceHash",
              "type": "bytes32"
            },
            {
              "internalType": "uint256",
              "name": "offerPriceRevealed",
              "type": "uint256"
            },
            {
              "internalType": "uint256",
              "name": "amount",
              "type": "uint256"
            },
            {
              "internalType": "address",
              "name": "purchaseToken",
              "type": "address"
            },
            {
              "internalType": "bool",
              "name": "isRevealed",
              "type": "bool"
            }
          ],
          "internalType": "struct TermAuctionOffer",
          "name": "",
          "type": "tuple"
        }
      ],
      "stateMutability": "view",
      "type": "function"
    },
    {
      "inputs": [],
      "name": "lockingPaused",
      "outputs": [
        {
          "internalType": "bool",
          "name": "",
          "type": "bool"
        }
      ],
      "stateMutability": "view",
      "type": "function"
    },
    {
      "inputs": [],
      "name": "minimumTenderAmount",
      "outputs": [
        {
          "internalType": "uint256",
          "name": "",
          "type": "uint256"
        }
      ],
      "stateMutability": "view",
      "type": "function"
    },
    {
      "inputs": [
        {
          "components": [
            {
              "internalType": "bytes32",
              "name": "id",
              "type": "bytes32"
            },
            {
              "internalType": "address",
              "name": "offeror",
              "type": "address"
            },
            {
              "internalType": "uint256",
              "name": "offerPriceRevealed",
              "type": "uint256"
            },
            {
              "internalType": "uint256",
              "name": "amount",
              "type": "uint256"
            },
            {
              "internalType": "address",
              "name": "purchaseToken",
              "type": "address"
            }
          ],
          "internalType": "struct TermAuctionRevealedOffer",
          "name": "revealed",
          "type": "tuple"
        },
        {
          "internalType": "uint256",
          "name": "nonce",
          "type": "uint256"
        }
      ],
      "name": "obfuscateOffer",
      "outputs": [
        {
          "components": [
            {
              "internalType": "bytes32",
              "name": "id",
              "type": "bytes32"
            },
            {
              "internalType": "address",
              "name": "offeror",
              "type": "address"
            },
            {
              "internalType": "bytes32",
              "name": "offerPriceHash",
              "type": "bytes32"
            },
            {
              "internalType": "uint256",
              "name": "offerPriceRevealed",
              "type": "uint256"
            },
            {
              "internalType": "uint256",
              "name": "amount",
              "type": "uint256"
            },
            {
              "internalType": "address",
              "name": "purchaseToken",
              "type": "address"
            },
            {
              "internalType": "bool",
              "name": "isRevealed",
              "type": "bool"
            }
          ],
          "internalType": "struct TermAuctionOffer",
          "name": "hidden",
          "type": "tuple"
        }
      ],
      "stateMutability": "pure",
      "type": "function"
    },
    {
      "inputs": [],
      "name": "offerCount",
      "outputs": [
        {
          "internalType": "uint256",
          "name": "",
          "type": "uint256"
        }
      ],
      "stateMutability": "view",
      "type": "function"
    },
    {
      "inputs": [
        {
          "internalType": "address",
          "name": "termAuction_",
          "type": "address"
        },
        {
          "internalType": "contract ITermEventEmitter",
          "name": "emitter_",
          "type": "address"
        },
        {
          "internalType": "contract ITermRepoServicer",
          "name": "termRepoServicer_",
          "type": "address"
        },
        {
          "internalType": "address",
          "name": "devopsMultisig_",
          "type": "address"
        },
        {
          "internalType": "address",
          "name": "adminWallet_",
          "type": "address"
        }
      ],
      "name": "pairTermContracts",
      "outputs": [],
      "stateMutability": "nonpayable",
      "type": "function"
    },
    {
      "inputs": [],
      "name": "pauseLocking",
      "outputs": [],
      "stateMutability": "nonpayable",
      "type": "function"
    },
    {
      "inputs": [],
      "name": "pauseUnlocking",
      "outputs": [],
      "stateMutability": "nonpayable",
      "type": "function"
    },
    {
      "inputs": [],
      "name": "proxiableUUID",
      "outputs": [
        {
          "internalType": "bytes32",
          "name": "",
          "type": "bytes32"
        }
      ],
      "stateMutability": "view",
      "type": "function"
    },
    {
      "inputs": [],
      "name": "purchaseToken",
      "outputs": [
        {
          "internalType": "contract IERC20Upgradeable",
          "name": "",
          "type": "address"
        }
      ],
      "stateMutability": "view",
      "type": "function"
    },
    {
      "inputs": [
        {
          "internalType": "bytes32",
          "name": "role",
          "type": "bytes32"
        },
        {
          "internalType": "address",
          "name": "account",
          "type": "address"
        }
      ],
      "name": "renounceRole",
      "outputs": [],
      "stateMutability": "nonpayable",
      "type": "function"
    },
    {
      "inputs": [
        {
          "internalType": "bytes32[]",
          "name": "ids",
          "type": "bytes32[]"
        },
        {
          "internalType": "uint256[]",
          "name": "prices",
          "type": "uint256[]"
        },
        {
          "internalType": "uint256[]",
          "name": "nonces",
          "type": "uint256[]"
        }
      ],
      "name": "revealOffers",
      "outputs": [],
      "stateMutability": "nonpayable",
      "type": "function"
    },
    {
      "inputs": [],
      "name": "revealTime",
      "outputs": [
        {
          "internalType": "uint256",
          "name": "",
          "type": "uint256"
        }
      ],
      "stateMutability": "view",
      "type": "function"
    },
    {
      "inputs": [
        {
          "internalType": "bytes32",
          "name": "role",
          "type": "bytes32"
        },
        {
          "internalType": "address",
          "name": "account",
          "type": "address"
        }
      ],
      "name": "revokeRole",
      "outputs": [],
      "stateMutability": "nonpayable",
      "type": "function"
    },
    {
      "inputs": [
        {
          "internalType": "uint256",
          "name": "auctionEndTime_",
          "type": "uint256"
        }
      ],
      "name": "setEndTime",
      "outputs": [],
      "stateMutability": "nonpayable",
      "type": "function"
    },
    {
      "inputs": [
        {
          "internalType": "uint256",
          "name": "offerCount_",
          "type": "uint256"
        }
      ],
      "name": "setOfferCount",
      "outputs": [],
      "stateMutability": "nonpayable",
      "type": "function"
    },
    {
      "inputs": [
        {
          "internalType": "uint256",
          "name": "revealTime_",
          "type": "uint256"
        }
      ],
      "name": "setRevealTime",
      "outputs": [],
      "stateMutability": "nonpayable",
      "type": "function"
    },
    {
      "inputs": [
        {
          "internalType": "uint256",
          "name": "auctionStartTime_",
          "type": "uint256"
        }
      ],
      "name": "setStartTime",
      "outputs": [],
      "stateMutability": "nonpayable",
      "type": "function"
    },
    {
      "inputs": [
        {
          "internalType": "bytes4",
          "name": "interfaceId",
          "type": "bytes4"
        }
      ],
      "name": "supportsInterface",
      "outputs": [
        {
          "internalType": "bool",
          "name": "",
          "type": "bool"
        }
      ],
      "stateMutability": "view",
      "type": "function"
    },
    {
      "inputs": [],
      "name": "termAuctionId",
      "outputs": [
        {
          "internalType": "bytes32",
          "name": "",
          "type": "bytes32"
        }
      ],
      "stateMutability": "view",
      "type": "function"
    },
    {
      "inputs": [],
      "name": "termRepoId",
      "outputs": [
        {
          "internalType": "bytes32",
          "name": "",
          "type": "bytes32"
        }
      ],
      "stateMutability": "view",
      "type": "function"
    },
    {
      "inputs": [],
      "name": "termRepoServicer",
      "outputs": [
        {
          "internalType": "contract ITermRepoServicer",
          "name": "",
          "type": "address"
        }
      ],
      "stateMutability": "view",
      "type": "function"
    },
    {
      "inputs": [
        {
          "internalType": "bytes32",
          "name": "id",
          "type": "bytes32"
        },
        {
          "internalType": "address",
          "name": "offeror",
          "type": "address"
        },
        {
          "internalType": "uint256",
          "name": "amount",
          "type": "uint256"
        }
      ],
      "name": "unlockOfferPartial",
      "outputs": [],
      "stateMutability": "nonpayable",
      "type": "function"
    },
    {
      "inputs": [
        {
          "internalType": "bytes32[]",
          "name": "ids",
          "type": "bytes32[]"
        }
      ],
      "name": "unlockOffers",
      "outputs": [],
      "stateMutability": "nonpayable",
      "type": "function"
    },
    {
      "inputs": [],
      "name": "unlockingPaused",
      "outputs": [
        {
          "internalType": "bool",
          "name": "",
          "type": "bool"
        }
      ],
      "stateMutability": "view",
      "type": "function"
    },
    {
      "inputs": [],
      "name": "unpauseLocking",
      "outputs": [],
      "stateMutability": "nonpayable",
      "type": "function"
    },
    {
      "inputs": [],
      "name": "unpauseUnlocking",
      "outputs": [],
      "stateMutability": "nonpayable",
      "type": "function"
    },
    {
      "inputs": [
        {
          "internalType": "address",
          "name": "upgradeAddress",
          "type": "address"
        }
      ],
      "name": "upgrade",
      "outputs": [],
      "stateMutability": "nonpayable",
      "type": "function"
    },
    {
      "inputs": [
        {
          "internalType": "address",
          "name": "newImplementation",
          "type": "address"
        }
      ],
      "name": "upgradeTo",
      "outputs": [],
      "stateMutability": "nonpayable",
      "type": "function"
    },
    {
      "inputs": [
        {
          "internalType": "address",
          "name": "newImplementation",
          "type": "address"
        },
        {
          "internalType": "bytes",
          "name": "data",
          "type": "bytes"
        }
      ],
      "name": "upgradeToAndCall",
      "outputs": [],
      "stateMutability": "payable",
      "type": "function"
    },
    {
      "inputs": [],
      "name": "version",
      "outputs": [
        {
          "internalType": "string",
          "name": "",
          "type": "string"
        }
      ],
      "stateMutability": "view",
      "type": "function"
    }
  ],
  "bytecode": "0x60a0604052306080523480156200001557600080fd5b506200002062000026565b620000e7565b600054610100900460ff1615620000935760405162461bcd60e51b815260206004820152602760248201527f496e697469616c697a61626c653a20636f6e747261637420697320696e697469604482015266616c697a696e6760c81b606482015260840160405180910390fd5b60005460ff90811614620000e5576000805460ff191660ff9081179091556040519081527f7f26b83ff96e1f2b6a682f133852f6798a09c465da95921460cefb38474024989060200160405180910390a15b565b608051613cb76200011f60003960008181610bcc01528181610c0c01528181610d5a01528181610d9a0152610e120152613cb76000f3fe6080604052600436106102695760003560e01c80636d73314111610145578063b2a02de8116100bc578063b2a02de81461070d578063ba829d711461072d578063c1e2850714610744578063c44cee7314610765578063cc5b6e4a14610793578063ccb98ffc146107aa578063cfe9232b146107cb578063cffbc297146107ed578063d048db371461081e578063d547741f14610834578063d780e48814610854578063db875b6914610875578063eb54f9ec1461089557600080fd5b80636d7331411461059c5780637043f034146105b3578063720e52c5146105d357806372e3a5b1146105f357806375b238fc146106135780637910b464146106355780637e3f71d5146106555780638a5cd91e1461067557806391d148541461068a578063a217fddf146106aa578063a95c4d62146106bf578063ab63cf0e146106e057600080fd5b8063357a77d2116101e4578063357a77d21461040c57806336568abe1461043a5780633659cfe61461045a5780633e0a322d1461047a5780633e2cf6d61461049b5780633e836b3d146104b85780633efbfd8c146104cd57806341da5432146104ee5780634b449cba146105035780634f1ef2861461051a57806352d1902d1461052d57806354fd4d50146105425780635ff8d5261461057c57600080fd5b806301ffc9a71461026e5780630900f010146102a35780630c2754ca146102c55780630c57f414146102e85780631115c24d146103085780631f6427051461031f578063201a6625146103345780632067a73f14610356578063248a9ca31461038357806325a2471a146103b357806327df3d3e146103ca5780632f2ff15d146103ec575b600080fd5b34801561027a57600080fd5b5061028e610289366004612f5a565b6108ac565b60405190151581526020015b60405180910390f35b3480156102af57600080fd5b506102c36102be366004612fa4565b6108e3565b005b3480156102d157600080fd5b506102da609681565b60405190815260200161029a565b3480156102f457600080fd5b506102c3610303366004612fc1565b6108ef565b34801561031457600080fd5b506102da6101395481565b34801561032b57600080fd5b506102c36109e2565b34801561034057600080fd5b506102da600080516020613bbb83398151915281565b34801561036257600080fd5b506103766103713660046130c1565b610a83565b60405161029a9190613140565b34801561038f57600080fd5b506102da61039e36600461314e565b600090815260c9602052604090206001015490565b3480156103bf57600080fd5b506102da6101325481565b3480156103d657600080fd5b506102da600080516020613bdb83398151915281565b3480156103f857600080fd5b506102c3610407366004613167565b610b15565b34801561041857600080fd5b506101355461042d906001600160a01b031681565b60405161029a9190613197565b34801561044657600080fd5b506102c3610455366004613167565b610b3f565b34801561046657600080fd5b506102c3610475366004612fa4565b610bc2565b34801561048657600080fd5b506102c361049536600461314e565b61012f55565b3480156104a757600080fd5b506102da68056bc75e2d6310000081565b3480156104c457600080fd5b506102c3610c87565b3480156104d957600080fd5b5061013a5461028e9062010000900460ff1681565b3480156104fa57600080fd5b506102c3610ceb565b34801561050f57600080fd5b506102da6101315481565b6102c36105283660046131ab565b610d50565b34801561053957600080fd5b506102da610e05565b34801561054e57600080fd5b50604080518082018252600b81526a19195d995b1bdc1b595b9d60aa1b6020820152905161029a9190613276565b34801561058857600080fd5b506102c36105973660046132f4565b610eb3565b3480156105a857600080fd5b506102da61012e5481565b3480156105bf57600080fd5b506102c36105ce366004613465565b610f4e565b3480156105df57600080fd5b506102c36105ee366004613542565b611271565b3480156105ff57600080fd5b5061037661060e36600461314e565b61147d565b34801561061f57600080fd5b506102da600080516020613c4283398151915281565b34801561064157600080fd5b506102c3610650366004613583565b6114fc565b34801561066157600080fd5b5061013a5461028e90610100900460ff1681565b34801561068157600080fd5b506102c3611678565b34801561069657600080fd5b5061028e6106a5366004613167565b6116e2565b3480156106b657600080fd5b506102da600081565b3480156106cb57600080fd5b506101335461042d906001600160a01b031681565b3480156106ec57600080fd5b506107006106fb3660046135f4565b61170d565b60405161029a9190613679565b34801561071957600080fd5b506102c36107283660046136bd565b6118f4565b34801561073957600080fd5b506102da6101305481565b34801561075057600080fd5b506102c361075f36600461314e565b61013055565b34801561077157600080fd5b506107856107803660046136ee565b6119b6565b60405161029a92919061379e565b34801561079f57600080fd5b506102da61012d5481565b3480156107b657600080fd5b506102c36107c536600461314e565b61013155565b3480156107d757600080fd5b506102da600080516020613c6283398151915281565b3480156107f957600080fd5b5061028e610808366004612fa4565b6101346020526000908152604090205460ff1681565b34801561082a57600080fd5b50610139546102da565b34801561084057600080fd5b506102c361084f366004613167565b611d90565b34801561086057600080fd5b506102c361086f36600461314e565b61013955565b34801561088157600080fd5b5061070061089036600461382a565b611db5565b3480156108a157600080fd5b506102da61012f5481565b60006001600160e01b03198216637965db0b60e01b14806108dd57506301ffc9a760e01b6001600160e01b03198316145b92915050565b6108ec81611f66565b50565b600080516020613c6283398151915261090781611fe8565b610135546040516318ddb12f60e11b81526001600160a01b03909116906331bb625e9061093a90869086906004016138c3565b600060405180830381600087803b15801561095457600080fd5b505af1158015610968573d6000803e3d6000fd5b50506101365461012e54604051635ba1a50760e01b81526001600160a01b039092169350635ba1a50792506109aa918890600401918252602082015260400190565b600060405180830381600087803b1580156109c457600080fd5b505af11580156109d8573d6000803e3d6000fd5b5050505050505050565b600080516020613c428339815191526109fa81611fe8565b61013a805462ff00001916620100001790556101365461012e5461012d5460405163703d84ab60e01b81526001600160a01b039093169263703d84ab92610a4e929091600401918252602082015260400190565b600060405180830381600087803b158015610a6857600080fd5b505af1158015610a7c573d6000803e3d6000fd5b5050505050565b610a8b612ef0565b6040805160e081018252845181526020808601516001600160a01b031681830152858301518351918201528083018590529091820190606001604051602081830303815290604052805190602001208152602001846040015181526020018460600151815260200184608001516001600160a01b0316815260200160001515815250905092915050565b600082815260c96020526040902060010154610b3081611fe8565b610b3a8383611ff2565b505050565b6001600160a01b0381163314610bb45760405162461bcd60e51b815260206004820152602f60248201527f416363657373436f6e74726f6c3a2063616e206f6e6c792072656e6f756e636560448201526e103937b632b9903337b91039b2b63360891b60648201526084015b60405180910390fd5b610bbe8282612078565b5050565b6001600160a01b037f0000000000000000000000000000000000000000000000000000000000000000163003610c0a5760405162461bcd60e51b8152600401610bab906138dc565b7f00000000000000000000000000000000000000000000000000000000000000006001600160a01b0316610c3c6120df565b6001600160a01b031614610c625760405162461bcd60e51b8152600401610bab90613928565b610c6b81611f66565b604080516000808252602082019092526108ec918391906120fb565b600080516020613c42833981519152610c9f81611fe8565b61013a805461ff00191690556101365461012e5461012d54604051632f5d386f60e01b8152600481019290925260248201526001600160a01b0390911690632f5d386f90604401610a4e565b600080516020613c42833981519152610d0381611fe8565b61013a805462ff0000191690556101365461012e5461012d5460405163485c705560e11b8152600481019290925260248201526001600160a01b03909116906390b8e0aa90604401610a4e565b6001600160a01b037f0000000000000000000000000000000000000000000000000000000000000000163003610d985760405162461bcd60e51b8152600401610bab906138dc565b7f00000000000000000000000000000000000000000000000000000000000000006001600160a01b0316610dca6120df565b6001600160a01b031614610df05760405162461bcd60e51b8152600401610bab90613928565b610df982611f66565b610bbe828260016120fb565b6000306001600160a01b037f00000000000000000000000000000000000000000000000000000000000000001614610ea05760405162461bcd60e51b815260206004820152603860248201527f555550535570677261646561626c653a206d757374206e6f742062652063616c6044820152771b1959081d1a1c9bdd59da0819195b1959d85d1958d85b1b60421b6064820152608401610bab565b50600080516020613bfb83398151915290565b61013054421015610ed7576040516302a3f58760e51b815260040160405180910390fd5b60005b85811015610f4557610f35878783818110610ef757610ef7613974565b90506020020135868684818110610f1057610f10613974565b90506020020135858585818110610f2957610f29613974565b90506020020135612266565b610f3e816139a0565b9050610eda565b50505050505050565b600054610100900460ff1615808015610f6e5750600054600160ff909116105b80610f8f5750610f7d30612396565b158015610f8f575060005460ff166001145b610ff25760405162461bcd60e51b815260206004820152602e60248201527f496e697469616c697a61626c653a20636f6e747261637420697320616c72656160448201526d191e481a5b9a5d1a585b1a5e995960921b6064820152608401610bab565b6000805460ff191660011790558015611015576000805461ff0019166101001790555b61101d6123a5565b6110256123a5565b61102d6123ce565b611045600080516020613bdb83398151915283611ff2565b86881115611070576040516372067af960e11b81526004810189905260248101889052604401610bab565b8b8b6040516020016110839291906139b9565b60408051601f1981840301815290829052805160209182012061012d556110ae918c918c91016139b9565b60408051808303601f19018152919052805160209091012061012e5561012f88905561013087905561013186905561013285905561013380546001600160a01b0319166001600160a01b03861617905582516000906001600160401b0381111561111a5761111a612ff9565b604051908082528060200260200182016040528015611143578160200160208202803683370190505b50905060005b84518160ff16101561120a5760016101346000878460ff168151811061117157611171613974565b60200260200101516001600160a01b03166001600160a01b0316815260200190815260200160002060006101000a81548160ff021916908315150217905550848160ff16815181106111c5576111c5613974565b6020026020010151828260ff16815181106111e2576111e2613974565b6001600160a01b0390921660209283029190910190910152611203816139c9565b9050611149565b505060006101395561013a805460ff191690558015611263576000805461ff0019169055604051600181527f7f26b83ff96e1f2b6a682f133852f6798a09c465da95921460cefb38474024989060200160405180910390a15b505050505050505050505050565b61013a5462010000900460ff161561129c57604051631370a4e760e31b815260040160405180910390fd5b6112a46123fd565b61012f544210156112c85760405163f046007760e01b815260040160405180910390fd5b610130544211801561134f575061013760009054906101000a90046001600160a01b03166001600160a01b0316638dfea9e76040518163ffffffff1660e01b8152600401602060405180830381865afa158015611329573d6000803e3d6000fd5b505050506040513d601f19601f8201168201806040525081019061134d91906139e8565b155b1561136d5760405163f046007760e01b815260040160405180910390fd5b60005b8181101561147257610138600084848481811061138f5761138f613974565b905060200201358152602001908152602001600020600401546000036113e4578282828181106113c1576113c1613974565b9050602002013560405163401c968f60e11b8152600401610bab91815260200190565b61013860008484848181106113fb576113fb613974565b60209081029290920135835250810191909152604001600020600101546001600160a01b031633146114405760405163738b91eb60e11b815260040160405180910390fd5b61146283838381811061145557611455613974565b9050602002013533612456565b61146b816139a0565b9050611370565b50610bbe600160fb55565b611485612ef0565b5060009081526101386020908152604091829020825160e0810184528154815260018201546001600160a01b039081169382019390935260028201549381019390935260038101546060840152600481015460808401526005015490811660a0830152600160a01b900460ff16151560c082015290565b600080516020613bdb83398151915261151481611fe8565b61013a5460ff161561153957604051634ce377bb60e11b815260040160405180910390fd5b61013a805460ff1916600117905561013780546001600160a01b0388166001600160a01b031990911617905561157d600080516020613c628339815191528761256c565b611595600080516020613bbb83398151915284611ff2565b6115ad600080516020613c4283398151915283611ff2565b61013680546001600160a01b038781166001600160a01b0319928316811790935561013580549188169190921617905561012d5461012e5461012f5461013054610132546040516308866d1360e41b8152600481019590955260248501939093523060448501526064840191909152608483015268056bc75e2d6310000060a483015260c4820152638866d1309060e401600060405180830381600087803b15801561165857600080fd5b505af115801561166c573d6000803e3d6000fd5b50505050505050505050565b600080516020613c4283398151915261169081611fe8565b61013a805461ff0019166101001790556101365461012e5461012d5460405163935dcfc760e01b81526001600160a01b039093169263935dcfc792610a4e929091600401918252602082015260400190565b600091825260c9602090815260408084206001600160a01b0393909316845291905290205460ff1690565b606061013054421180611722575061012f5442105b156117405760405163f046007760e01b815260040160405180910390fd5b61013a54610100900460ff161561176a5760405163059e557960e41b815260040160405180910390fd5b6117726123fd565b6001600160a01b038216330361179b576040516333d8ca2d60e11b815260040160405180910390fd5b6000836001600160401b038111156117b5576117b5612ff9565b6040519080825280602002602001820160405280156117de578160200160208202803683370190505b50905060005b848110156118e057600061181f87878481811061180357611803613974565b905060a002018036038101906118199190613a0a565b33612576565b9050806000015483838151811061183857611838613974565b60209081029190910101526101365461012e5482546001840154600285015460048087015460058801546040516303228b3f60e61b81526001600160a01b039889169863c8a2cfc09861189c989097909690821695909493909116918f9101613a26565b600060405180830381600087803b1580156118b657600080fd5b505af11580156118ca573d6000803e3d6000fd5b5050505050806118d9906139a0565b90506117e4565b5090506118ed600160fb55565b9392505050565b61190c61190636849003840184613a0a565b82610a83565b82356000908152610138602090815260408083208451815591840151600180840180546001600160a01b039384166001600160a01b0319909116179055918501516002840155606085015160038401556080850151600484015560a08501516005909301805460c0909601511515600160a01b026001600160a81b0319909616939091169290921793909317905561013980549091906119ad908490613a61565b90915550505050565b606080600080516020613c628339815191526119d181611fe8565b610139546119df8588613a61565b14611a045761013954604051633186b0c560e11b8152600401610bab91815260200190565b6000866001600160401b03811115611a1e57611a1e612ff9565b604051908082528060200260200182016040528015611a5757816020015b611a44612f2c565b815260200190600190039081611a3c5790505b5090506000856001600160401b03811115611a7457611a74612ff9565b604051908082528060200260200182016040528015611aad57816020015b611a9a612ef0565b815260200190600190039081611a925790505b50905060008060005b8a811015611c1d57600061013860008e8e85818110611ad757611ad7613974565b90506020020135815260200190815260200160002090508060040154600003611b0c578c8c838181106113c1576113c1613974565b6005810154600160a01b900460ff16611b3e5780546040516342b00fd560e01b81526004810191909152602401610bab565b8060030154831115611b63576040516305e5dfdd60e11b815260040160405180910390fd5b60038101546040805160e0810182528354815260018401546001600160a01b0390811660208301526002850154928201929092526060810183905260048401546080820152600584015491821660a0820152600160a01b90910460ff16151560c0820152909350611bd49084612934565b868581518110611be657611be6613974565b60200260200101819052508380611bfc906139a0565b945050611c0c816000015461298d565b50611c16816139a0565b9050611ab6565b506000805b89811015611d6c57600061013860008d8d85818110611c4357611c43613974565b90506020020135815260200190815260200160002090508060040154600003611c78578b8b838181106113c1576113c1613974565b6005810154600160a01b900460ff1615611cc1578b8b83818110611c9e57611c9e613974565b9050602002013560405163b72a25ad60e01b8152600401610bab91815260200190565b6040805160e0810182528254815260018301546001600160a01b0390811660208301526002840154928201929092526003830154606082015260048301546080820152600583015491821660a0820152600160a01b90910460ff16151560c08201528651879085908110611d3757611d37613974565b602002602001018190525082611d4c906139a0565b9250611d5b816000015461298d565b50611d65816139a0565b9050611c22565b506101395415611d7e57611d7e613a74565b50929a91995090975050505050505050565b600082815260c96020526040902060010154611dab81611fe8565b610b3a8383612078565b606061013054421180611dca575061012f5442105b15611de85760405163f046007760e01b815260040160405180910390fd5b61013a54610100900460ff1615611e125760405163059e557960e41b815260040160405180910390fd5b611e1a6123fd565b600082516001600160401b03811115611e3557611e35612ff9565b604051908082528060200260200182016040528015611e5e578160200160208202803683370190505b50905060005b8351811015611f54576000611e92858381518110611e8457611e84613974565b602002602001015133612576565b90508060000154838381518110611eab57611eab613974565b60209081029190910101526101365461012e5482546001840154600285015460048087015460058801546040516303228b3f60e61b81526001600160a01b039889169863c8a2cfc098611f109890979096908216959094939091169160009101613a26565b600060405180830381600087803b158015611f2a57600080fd5b505af1158015611f3e573d6000803e3d6000fd5b505050505080611f4d906139a0565b9050611e64565b509050611f61600160fb55565b919050565b600080516020613bbb833981519152611f7e81611fe8565b6101365460405163b3c2d50b60e01b81523060048201526001600160a01b0384811660248301529091169063b3c2d50b90604401600060405180830381600087803b158015611fcc57600080fd5b505af1158015611fe0573d6000803e3d6000fd5b505050505050565b6108ec81336129f6565b611ffc82826116e2565b610bbe57600082815260c9602090815260408083206001600160a01b03851684529091529020805460ff191660011790556120343390565b6001600160a01b0316816001600160a01b0316837f2f8788117e7eff1d82e926ec794901d17c78024a50270940304540a733656f0d60405160405180910390a45050565b61208282826116e2565b15610bbe57600082815260c9602090815260408083206001600160a01b0385168085529252808320805460ff1916905551339285917ff6391f5c32d9c69d2a47ea670b442974b53935d1edc7fd64eb21e047a839171b9190a45050565b600080516020613bfb833981519152546001600160a01b031690565b7f4910fdfa16fed3260ed0e7147f7cc6da11a60208b5b9406d12a635614ffd91435460ff161561212e57610b3a83612a4f565b826001600160a01b03166352d1902d6040518163ffffffff1660e01b8152600401602060405180830381865afa925050508015612188575060408051601f3d908101601f1916820190925261218591810190613a8a565b60015b6121eb5760405162461bcd60e51b815260206004820152602e60248201527f45524331393637557067726164653a206e657720696d706c656d656e7461746960448201526d6f6e206973206e6f74205555505360901b6064820152608401610bab565b600080516020613bfb833981519152811461225a5760405162461bcd60e51b815260206004820152602960248201527f45524331393637557067726164653a20756e737570706f727465642070726f786044820152681a58589b195555525160ba1b6064820152608401610bab565b50610b3a838383612ae9565b6000838152610138602090815260409182902060020154825191820185905291810183905260600160405160208183030381529060405280519060200120146122c257604051630ce8dc1d60e11b815260040160405180910390fd5b68056bc75e2d631000008211156122fe57604051632dc71e8d60e01b81526004810184905268056bc75e2d631000006024820152604401610bab565b600083815261013860205260409081902060038101849055600501805460ff60a01b1916600160a01b1790556101365461012e549151632f68befb60e11b8152600481019290925260248201859052604482018490526001600160a01b031690635ed17df6906064015b600060405180830381600087803b15801561238257600080fd5b505af1158015610f45573d6000803e3d6000fd5b6001600160a01b03163b151590565b600054610100900460ff166123cc5760405162461bcd60e51b8152600401610bab90613aa3565b565b600054610100900460ff166123f55760405162461bcd60e51b8152600401610bab90613aa3565b6123cc612b14565b600260fb540361244f5760405162461bcd60e51b815260206004820152601f60248201527f5265656e7472616e637947756172643a207265656e7472616e742063616c6c006044820152606401610bab565b600260fb55565b600082815261013860205260408120600481018054838355600180840180546001600160a01b0319169055600284018590556003840185905591849055600590920180546001600160a81b03191690556101398054929391929091906124bd908490613aee565b90915550506101365461012e54604051635ba1a50760e01b81526001600160a01b0390921691635ba1a50791612500918790600401918252602082015260400190565b600060405180830381600087803b15801561251a57600080fd5b505af115801561252e573d6000803e3d6000fd5b5050610135546040516318ddb12f60e11b81526001600160a01b0390911692506331bb625e915061236890859085906004016138c3565b600160fb55565b610bbe8282611ff2565b6000826020015182816001600160a01b0316816001600160a01b0316146125b05760405163738b91eb60e11b815260040160405180910390fd5b609661013954106125d4576040516336ac50e160e21b815260040160405180910390fd5b845160009081526101386020526040812060040154158015919061264157602080880151885160009081526101389092526040909120600101546001600160a01b039081169116146126395760405163738b91eb60e11b815260040160405180910390fd5b508551612650565b865161264d9087612b3b565b90505b6080870151610133546001600160a01b0390811691161461268a57866080015160405163e34b641f60e01b8152600401610bab9190613197565b61013254876060015110156126ba57866060015160405163012a8d3160e11b8152600401610bab91815260200190565b600061013860008381526020019081526020016000206004015490506040518060e0016040528083815260200189602001516001600160a01b0316815260200189604001518152602001600081526020018960600151815260200189608001516001600160a01b031681526020016000151581525061013860008481526020019081526020016000206000820151816000015560208201518160010160006101000a8154816001600160a01b0302191690836001600160a01b0316021790555060408201518160020155606082015181600301556080820151816004015560a08201518160050160006101000a8154816001600160a01b0302191690836001600160a01b0316021790555060c08201518160050160146101000a81548160ff0219169083151502179055509050508261280757600161013960008282546128019190613a61565b90915550505b87606001518110156128935761013554602089015160608a01516001600160a01b03909216916308772759919061283f908590613aee565b6040518363ffffffff1660e01b815260040161285c9291906138c3565b600060405180830381600087803b15801561287657600080fd5b505af115801561288a573d6000803e3d6000fd5b5050505061291a565b876060015181111561291a5761013554602089015160608a01516001600160a01b03909216916331bb625e91906128ca9085613aee565b6040518363ffffffff1660e01b81526004016128e79291906138c3565b600060405180830381600087803b15801561290157600080fd5b505af1158015612915573d6000803e3d6000fd5b505050505b506000908152610138602052604090209695505050505050565b61293c612f2c565b6040518060a001604052808460000151815260200184602001516001600160a01b03168152602001838152602001846080015181526020018460a001516001600160a01b0316815250905092915050565b600081815261013860205260408120818155600180820180546001600160a01b0319169055600282018390556003820183905560048201839055600590910180546001600160a81b03191690556101398054919290916129ee908490613aee565b909155505050565b612a0082826116e2565b610bbe57612a0d81612bc2565b612a18836020612bd4565b604051602001612a29929190613b01565b60408051601f198184030181529082905262461bcd60e51b8252610bab91600401613276565b612a5881612396565b612aba5760405162461bcd60e51b815260206004820152602d60248201527f455243313936373a206e657720696d706c656d656e746174696f6e206973206e60448201526c1bdd08184818dbdb9d1c9858dd609a1b6064820152608401610bab565b600080516020613bfb83398151915280546001600160a01b0319166001600160a01b0392909216919091179055565b612af283612d6f565b600082511180612aff5750805b15610b3a57612b0e8383612daf565b50505050565b600054610100900460ff166125655760405162461bcd60e51b8152600401610bab90613aa3565b600080838330604051602001612b7593929190928352606091821b6001600160601b03199081166020850152911b16603482015260480190565b60408051601f1981840301815291815281516020928301206000818152610138909352912060040154909150156118ed576040516327fce3dd60e11b815260048101829052602401610bab565b60606108dd6001600160a01b03831660145b60606000612be3836002613b70565b612bee906002613a61565b6001600160401b03811115612c0557612c05612ff9565b6040519080825280601f01601f191660200182016040528015612c2f576020820181803683370190505b509050600360fc1b81600081518110612c4a57612c4a613974565b60200101906001600160f81b031916908160001a905350600f60fb1b81600181518110612c7957612c79613974565b60200101906001600160f81b031916908160001a9053506000612c9d846002613b70565b612ca8906001613a61565b90505b6001811115612d20576f181899199a1a9b1b9c1cb0b131b232b360811b85600f1660108110612cdc57612cdc613974565b1a60f81b828281518110612cf257612cf2613974565b60200101906001600160f81b031916908160001a90535060049490941c93612d1981613b87565b9050612cab565b5083156118ed5760405162461bcd60e51b815260206004820181905260248201527f537472696e67733a20686578206c656e67746820696e73756666696369656e746044820152606401610bab565b612d7881612a4f565b6040516001600160a01b038216907fbc7cd75a20ee27fd9adebab32041f755214dbc6bffa90cc0225b39da2e5c2d3b90600090a250565b60606118ed8383604051806060016040528060278152602001613c1b602791396060600080856001600160a01b031685604051612dec9190613b9e565b600060405180830381855af49150503d8060008114612e27576040519150601f19603f3d011682016040523d82523d6000602084013e612e2c565b606091505b5091509150612e3d86838387612e47565b9695505050505050565b60608315612eb4578251600003612ead57612e6185612396565b612ead5760405162461bcd60e51b815260206004820152601d60248201527f416464726573733a2063616c6c20746f206e6f6e2d636f6e74726163740000006044820152606401610bab565b5081612ebe565b612ebe8383612ec6565b949350505050565b815115612ed65781518083602001fd5b8060405162461bcd60e51b8152600401610bab9190613276565b6040805160e081018252600080825260208201819052918101829052606081018290526080810182905260a0810182905260c081019190915290565b6040805160a08101825260008082526020820181905291810182905260608101829052608081019190915290565b600060208284031215612f6c57600080fd5b81356001600160e01b0319811681146118ed57600080fd5b6001600160a01b03811681146108ec57600080fd5b8035611f6181612f84565b600060208284031215612fb657600080fd5b81356118ed81612f84565b600080600060608486031215612fd657600080fd5b833592506020840135612fe881612f84565b929592945050506040919091013590565b634e487b7160e01b600052604160045260246000fd5b604051601f8201601f191681016001600160401b038111828210171561303757613037612ff9565b604052919050565b600060a0828403121561305157600080fd5b60405160a081018181106001600160401b038211171561307357613073612ff9565b60405282358152905080602083013561308b81612f84565b80602083015250604083013560408201526060830135606082015260808301356130b481612f84565b6080919091015292915050565b60008060c083850312156130d457600080fd5b6130de848461303f565b9460a0939093013593505050565b80518252602081015160018060a01b0380821660208501526040830151604085015260608301516060850152608083015160808501528060a08401511660a0850152505060c0810151151560c08301525050565b60e081016108dd82846130ec565b60006020828403121561316057600080fd5b5035919050565b6000806040838503121561317a57600080fd5b82359150602083013561318c81612f84565b809150509250929050565b6001600160a01b0391909116815260200190565b600080604083850312156131be57600080fd5b82356131c981612f84565b91506020838101356001600160401b03808211156131e657600080fd5b818601915086601f8301126131fa57600080fd5b81358181111561320c5761320c612ff9565b61321e601f8201601f1916850161300f565b9150808252878482850101111561323457600080fd5b80848401858401376000848284010152508093505050509250929050565b60005b8381101561326d578181015183820152602001613255565b50506000910152565b6020815260008251806020840152613295816040850160208701613252565b601f01601f19169190910160400192915050565b60008083601f8401126132bb57600080fd5b5081356001600160401b038111156132d257600080fd5b6020830191508360208260051b85010111156132ed57600080fd5b9250929050565b6000806000806000806060878903121561330d57600080fd5b86356001600160401b038082111561332457600080fd5b6133308a838b016132a9565b9098509650602089013591508082111561334957600080fd5b6133558a838b016132a9565b9096509450604089013591508082111561336e57600080fd5b5061337b89828a016132a9565b979a9699509497509295939492505050565b60008083601f84011261339f57600080fd5b5081356001600160401b038111156133b657600080fd5b6020830191508360208285010111156132ed57600080fd5b60006001600160401b038211156133e7576133e7612ff9565b5060051b60200190565b600082601f83011261340257600080fd5b81356020613417613412836133ce565b61300f565b82815260059290921b8401810191818101908684111561343657600080fd5b8286015b8481101561345a57803561344d81612f84565b835291830191830161343a565b509695505050505050565b60008060008060008060008060008060006101208c8e03121561348757600080fd5b6001600160401b03808d35111561349d57600080fd5b6134aa8e8e358f0161338d565b909c509a5060208d01358110156134c057600080fd5b6134d08e60208f01358f0161338d565b909a50985060408d0135975060608d0135965060808d0135955060a08d013594506134fd60c08e01612f99565b93508060e08e0135111561351057600080fd5b506135218d60e08e01358e016133f1565b91506135306101008d01612f99565b90509295989b509295989b9093969950565b6000806020838503121561355557600080fd5b82356001600160401b0381111561356b57600080fd5b613577858286016132a9565b90969095509350505050565b600080600080600060a0868803121561359b57600080fd5b85356135a681612f84565b945060208601356135b681612f84565b935060408601356135c681612f84565b925060608601356135d681612f84565b915060808601356135e681612f84565b809150509295509295909350565b60008060006040848603121561360957600080fd5b83356001600160401b038082111561362057600080fd5b818601915086601f83011261363457600080fd5b81358181111561364357600080fd5b87602060a08302850101111561365857600080fd5b6020928301955093505084013561366e81612f84565b809150509250925092565b6020808252825182820181905260009190848201906040850190845b818110156136b157835183529284019291840191600101613695565b50909695505050505050565b60008082840360c08112156136d157600080fd5b60a08112156136df57600080fd5b50919360a08501359350915050565b6000806000806040858703121561370457600080fd5b84356001600160401b038082111561371b57600080fd5b613727888389016132a9565b9096509450602087013591508082111561374057600080fd5b5061374d878288016132a9565b95989497509550505050565b600081518084526020808501945080840160005b83811015613793576137808783516130ec565b60e096909601959082019060010161376d565b509495945050505050565b6040808252835182820181905260009190606090818501906020808901865b8381101561380b57815180518652838101516001600160a01b039081168588015288820151898801528782015188880152608091820151169086015260a090940193908201906001016137bd565b5050868303908701525061381f8187613759565b979650505050505050565b6000602080838503121561383d57600080fd5b82356001600160401b0381111561385357600080fd5b8301601f8101851361386457600080fd5b8035613872613412826133ce565b81815260a0918202830184019184820191908884111561389157600080fd5b938501935b838510156138b7576138a8898661303f565b83529384019391850191613896565b50979650505050505050565b6001600160a01b03929092168252602082015260400190565b6020808252602c908201527f46756e6374696f6e206d7573742062652063616c6c6564207468726f7567682060408201526b19195b1959d85d1958d85b1b60a21b606082015260800190565b6020808252602c908201527f46756e6374696f6e206d7573742062652063616c6c6564207468726f7567682060408201526b6163746976652070726f787960a01b606082015260800190565b634e487b7160e01b600052603260045260246000fd5b634e487b7160e01b600052601160045260246000fd5b6000600182016139b2576139b261398a565b5060010190565b8183823760009101908152919050565b600060ff821660ff81036139df576139df61398a565b60010192915050565b6000602082840312156139fa57600080fd5b815180151581146118ed57600080fd5b600060a08284031215613a1c57600080fd5b6118ed838361303f565b96875260208701959095526001600160a01b03938416604087015260608601929092526080850152811660a08401521660c082015260e00190565b808201808211156108dd576108dd61398a565b634e487b7160e01b600052600160045260246000fd5b600060208284031215613a9c57600080fd5b5051919050565b6020808252602b908201527f496e697469616c697a61626c653a20636f6e7472616374206973206e6f74206960408201526a6e697469616c697a696e6760a81b606082015260800190565b818103818111156108dd576108dd61398a565b76020b1b1b2b9b9a1b7b73a3937b61d1030b1b1b7bab73a1604d1b815260008351613b33816017850160208801613252565b7001034b99036b4b9b9b4b733903937b6329607d1b6017918401918201528351613b64816028840160208801613252565b01602801949350505050565b80820281158282048414176108dd576108dd61398a565b600081613b9657613b9661398a565b506000190190565b60008251613bb0818460208701613252565b919091019291505056fe793a6c9b7e0a9549c74edc2f9ae0dc50903dfaa9a56fb0116b27a8c71de3e2c630d41a597cac127d8249d31298b50e481ee82c3f4a49ff93c76a22735aa9f3ad360894a13ba1a3210667c828492db98dca3e2076cc3735a920a3ca505d382bbc416464726573733a206c6f772d6c6576656c2064656c65676174652063616c6c206661696c6564a49807205ce4d355092ef5a8a18f56e8913cf4a201fbe287825b095693c21775c1df76f4e50bdb95676f782d4b88b23904c5346d8bc7c986ae26f7e10e601891a2646970667358221220ba533d12c0e9f70b3a1951924f55679a57c1916c6819890fbbf5dfdcad68889664736f6c63430008120033",
  "linkReferences": {},
  "deployedLinkReferences": {}
}