{
  "_format": "hh-sol-artifact-1",
  "contractName": "TestingTermAuctionOfferLocker",
  "sourceName": "contracts/test/TestingTermAuctionOfferLocker.sol",
  "abi": [
    {
      "inputs": [],
      "name": "AlreadyTermContractPaired",
      "type": "error"
    },
    {
      "inputs": [],
      "name": "AuctionNotClosed",
      "type": "error"
    },
    {
      "inputs": [],
      "name": "AuctionNotOpen",
      "type": "error"
    },
    {
      "inputs": [],
      "name": "AuctionNotRevealing",
      "type": "error"
    },
    {
      "inputs": [
        {
          "internalType": "uint256",
          "name": "reveal",
          "type": "uint256"
        },
        {
          "internalType": "uint256",
          "name": "end",
          "type": "uint256"
        }
      ],
      "name": "AuctionRevealsAfterEnd",
      "type": "error"
    },
    {
      "inputs": [
        {
          "internalType": "uint256",
          "name": "start",
          "type": "uint256"
        },
        {
          "internalType": "uint256",
          "name": "reveal",
          "type": "uint256"
        }
      ],
      "name": "AuctionStartsAfterReveal",
      "type": "error"
    },
    {
      "inputs": [
        {
          "internalType": "address",
          "name": "token",
          "type": "address"
        }
      ],
      "name": "CollateralTokenNotApproved",
      "type": "error"
    },
    {
      "inputs": [
        {
          "internalType": "bytes32",
          "name": "offerId",
          "type": "bytes32"
        }
      ],
      "name": "GeneratingExistingOffer",
      "type": "error"
    },
    {
      "inputs": [],
      "name": "InvalidSelfReferral",
      "type": "error"
    },
    {
      "inputs": [],
      "name": "LockingPaused",
      "type": "error"
    },
    {
      "inputs": [],
      "name": "MaxOfferCountReached",
      "type": "error"
    },
    {
      "inputs": [],
      "name": "NoOfferToUnlock",
      "type": "error"
    },
    {
      "inputs": [
        {
          "internalType": "bytes32",
          "name": "id",
          "type": "bytes32"
        }
      ],
      "name": "NonExistentOffer",
      "type": "error"
    },
    {
      "inputs": [],
      "name": "OfferAlreadyRevealed",
      "type": "error"
    },
    {
      "inputs": [
        {
          "internalType": "uint256",
          "name": "amount",
          "type": "uint256"
        }
      ],
      "name": "OfferAmountTooLow",
      "type": "error"
    },
    {
      "inputs": [
        {
          "internalType": "uint256",
          "name": "offerCount",
          "type": "uint256"
        }
      ],
      "name": "OfferCountIncorrect",
      "type": "error"
    },
    {
      "inputs": [],
      "name": "OfferNotOwned",
      "type": "error"
    },
    {
      "inputs": [
        {
          "internalType": "bytes32",
          "name": "id",
          "type": "bytes32"
        }
      ],
      "name": "OfferNotRevealed",
      "type": "error"
    },
    {
      "inputs": [],
      "name": "OfferPriceModified",
      "type": "error"
    },
    {
      "inputs": [
        {
          "internalType": "bytes32",
          "name": "id",
          "type": "bytes32"
        }
      ],
      "name": "OfferRevealed",
      "type": "error"
    },
    {
      "inputs": [
        {
          "internalType": "address",
          "name": "token",
          "type": "address"
        }
      ],
      "name": "PurchaseTokenNotApproved",
      "type": "error"
    },
    {
      "inputs": [],
      "name": "RevealedOffersNotSorted",
      "type": "error"
    },
    {
      "inputs": [
        {
          "internalType": "bytes32",
          "name": "id",
          "type": "bytes32"
        },
        {
          "internalType": "uint256",
          "name": "maxPrice",
          "type": "uint256"
        }
      ],
      "name": "TenderPriceTooHigh",
      "type": "error"
    },
    {
      "inputs": [],
      "name": "UnlockingPaused",
      "type": "error"
    },
    {
      "anonymous": false,
      "inputs": [
        {
          "indexed": false,
          "internalType": "address",
          "name": "previousAdmin",
          "type": "address"
        },
        {
          "indexed": false,
          "internalType": "address",
          "name": "newAdmin",
          "type": "address"
        }
      ],
      "name": "AdminChanged",
      "type": "event"
    },
    {
      "anonymous": false,
      "inputs": [
        {
          "indexed": true,
          "internalType": "address",
          "name": "beacon",
          "type": "address"
        }
      ],
      "name": "BeaconUpgraded",
      "type": "event"
    },
    {
      "anonymous": false,
      "inputs": [
        {
          "indexed": false,
          "internalType": "uint8",
          "name": "version",
          "type": "uint8"
        }
      ],
      "name": "Initialized",
      "type": "event"
    },
    {
      "anonymous": false,
      "inputs": [
        {
          "indexed": true,
          "internalType": "bytes32",
          "name": "role",
          "type": "bytes32"
        },
        {
          "indexed": true,
          "internalType": "bytes32",
          "name": "previousAdminRole",
          "type": "bytes32"
        },
        {
          "indexed": true,
          "internalType": "bytes32",
          "name": "newAdminRole",
          "type": "bytes32"
        }
      ],
      "name": "RoleAdminChanged",
      "type": "event"
    },
    {
      "anonymous": false,
      "inputs": [
        {
          "indexed": true,
          "internalType": "bytes32",
          "name": "role",
          "type": "bytes32"
        },
        {
          "indexed": true,
          "internalType": "address",
          "name": "account",
          "type": "address"
        },
        {
          "indexed": true,
          "internalType": "address",
          "name": "sender",
          "type": "address"
        }
      ],
      "name": "RoleGranted",
      "type": "event"
    },
    {
      "anonymous": false,
      "inputs": [
        {
          "indexed": true,
          "internalType": "bytes32",
          "name": "role",
          "type": "bytes32"
        },
        {
          "indexed": true,
          "internalType": "address",
          "name": "account",
          "type": "address"
        },
        {
          "indexed": true,
          "internalType": "address",
          "name": "sender",
          "type": "address"
        }
      ],
      "name": "RoleRevoked",
      "type": "event"
    },
    {
      "anonymous": false,
      "inputs": [
        {
          "indexed": true,
          "internalType": "address",
          "name": "implementation",
          "type": "address"
        }
      ],
      "name": "Upgraded",
      "type": "event"
    },
    {
      "inputs": [],
      "name": "AUCTIONEER_ROLE",
      "outputs": [
        {
          "internalType": "bytes32",
          "name": "",
          "type": "bytes32"
        }
      ],
      "stateMutability": "view",
      "type": "function"
    },
    {
      "inputs": [],
      "name": "DEFAULT_ADMIN_ROLE",
      "outputs": [
        {
          "internalType": "bytes32",
          "name": "",
          "type": "bytes32"
        }
      ],
      "stateMutability": "view",
      "type": "function"
    },
    {
      "inputs": [],
      "name": "DEVOPS_ROLE",
      "outputs": [
        {
          "internalType": "bytes32",
          "name": "",
          "type": "bytes32"
        }
      ],
      "stateMutability": "view",
      "type": "function"
    },
    {
      "inputs": [],
      "name": "INITIALIZER_ROLE",
      "outputs": [
        {
          "internalType": "bytes32",
          "name": "",
          "type": "bytes32"
        }
      ],
      "stateMutability": "view",
      "type": "function"
    },
    {
      "inputs": [],
      "name": "MAX_OFFER_COUNT",
      "outputs": [
        {
          "internalType": "uint256",
          "name": "",
          "type": "uint256"
        }
      ],
      "stateMutability": "view",
      "type": "function"
    },
    {
      "inputs": [],
      "name": "MAX_OFFER_PRICE",
      "outputs": [
        {
          "internalType": "uint256",
          "name": "",
          "type": "uint256"
        }
      ],
      "stateMutability": "view",
      "type": "function"
    },
    {
      "inputs": [
        {
          "components": [
            {
              "internalType": "bytes32",
              "name": "id",
              "type": "bytes32"
            },
            {
              "internalType": "address",
              "name": "offeror",
              "type": "address"
            },
            {
              "internalType": "uint256",
              "name": "offerPriceRevealed",
              "type": "uint256"
            },
            {
              "internalType": "uint256",
              "name": "amount",
              "type": "uint256"
            },
            {
              "internalType": "address",
              "name": "purchaseToken",
              "type": "address"
            }
          ],
          "internalType": "struct TermAuctionRevealedOffer",
          "name": "offer",
          "type": "tuple"
        },
        {
          "internalType": "uint256",
          "name": "nonce",
          "type": "uint256"
        }
      ],
      "name": "addOffer",
      "outputs": [],
      "stateMutability": "nonpayable",
      "type": "function"
    },
    {
      "inputs": [],
      "name": "auctionEndTime",
      "outputs": [
        {
          "internalType": "uint256",
          "name": "",
          "type": "uint256"
        }
      ],
      "stateMutability": "view",
      "type": "function"
    },
    {
      "inputs": [],
      "name": "auctionStartTime",
      "outputs": [
        {
          "internalType": "uint256",
          "name": "",
          "type": "uint256"
        }
      ],
      "stateMutability": "view",
      "type": "function"
    },
    {
      "inputs": [
        {
          "internalType": "contract IERC20Upgradeable",
          "name": "",
          "type": "address"
        }
      ],
      "name": "collateralTokens",
      "outputs": [
        {
          "internalType": "bool",
          "name": "",
          "type": "bool"
        }
      ],
      "stateMutability": "view",
      "type": "function"
    },
    {
      "inputs": [
        {
          "internalType": "bytes32[]",
          "name": "revealedOffers",
          "type": "bytes32[]"
        },
        {
          "internalType": "bytes32[]",
          "name": "unrevealedOffers",
          "type": "bytes32[]"
        }
      ],
      "name": "getAllOffers",
      "outputs": [
        {
          "components": [
            {
              "internalType": "bytes32",
              "name": "id",
              "type": "bytes32"
            },
            {
              "internalType": "address",
              "name": "offeror",
              "type": "address"
            },
            {
              "internalType": "uint256",
              "name": "offerPriceRevealed",
              "type": "uint256"
            },
            {
              "internalType": "uint256",
              "name": "amount",
              "type": "uint256"
            },
            {
              "internalType": "address",
              "name": "purchaseToken",
              "type": "address"
            }
          ],
          "internalType": "struct TermAuctionRevealedOffer[]",
          "name": "",
          "type": "tuple[]"
        },
        {
          "components": [
            {
              "internalType": "bytes32",
              "name": "id",
              "type": "bytes32"
            },
            {
              "internalType": "address",
              "name": "offeror",
              "type": "address"
            },
            {
              "internalType": "bytes32",
              "name": "offerPriceHash",
              "type": "bytes32"
            },
            {
              "internalType": "uint256",
              "name": "offerPriceRevealed",
              "type": "uint256"
            },
            {
              "internalType": "uint256",
              "name": "amount",
              "type": "uint256"
            },
            {
              "internalType": "address",
              "name": "purchaseToken",
              "type": "address"
            },
            {
              "internalType": "bool",
              "name": "isRevealed",
              "type": "bool"
            }
          ],
          "internalType": "struct TermAuctionOffer[]",
          "name": "",
          "type": "tuple[]"
        }
      ],
      "stateMutability": "nonpayable",
      "type": "function"
    },
    {
      "inputs": [],
      "name": "getOfferCount",
      "outputs": [
        {
          "internalType": "uint256",
          "name": "",
          "type": "uint256"
        }
      ],
      "stateMutability": "view",
      "type": "function"
    },
    {
      "inputs": [
        {
          "internalType": "bytes32",
          "name": "role",
          "type": "bytes32"
        }
      ],
      "name": "getRoleAdmin",
      "outputs": [
        {
          "internalType": "bytes32",
          "name": "",
          "type": "bytes32"
        }
      ],
      "stateMutability": "view",
      "type": "function"
    },
    {
      "inputs": [
        {
          "internalType": "bytes32",
          "name": "role",
          "type": "bytes32"
        },
        {
          "internalType": "address",
          "name": "account",
          "type": "address"
        }
      ],
      "name": "grantRole",
      "outputs": [],
      "stateMutability": "nonpayable",
      "type": "function"
    },
    {
      "inputs": [
        {
          "internalType": "bytes32",
          "name": "role",
          "type": "bytes32"
        },
        {
          "internalType": "address",
          "name": "account",
          "type": "address"
        }
      ],
      "name": "hasRole",
      "outputs": [
        {
          "internalType": "bool",
          "name": "",
          "type": "bool"
        }
      ],
      "stateMutability": "view",
      "type": "function"
    },
    {
      "inputs": [
        {
          "internalType": "string",
          "name": "termRepoId_",
          "type": "string"
        },
        {
          "internalType": "string",
          "name": "auctionId_",
          "type": "string"
        },
        {
          "internalType": "uint256",
          "name": "auctionStartTime_",
          "type": "uint256"
        },
        {
          "internalType": "uint256",
          "name": "revealTime_",
          "type": "uint256"
        },
        {
          "internalType": "uint256",
          "name": "auctionEndTime_",
          "type": "uint256"
        },
        {
          "internalType": "uint256",
          "name": "minimumTenderAmount_",
          "type": "uint256"
        },
        {
          "internalType": "contract IERC20Upgradeable",
          "name": "purchaseToken_",
          "type": "address"
        },
        {
          "internalType": "contract IERC20Upgradeable[]",
          "name": "collateralTokens_",
          "type": "address[]"
        },
        {
          "internalType": "address",
          "name": "termInitializer_",
          "type": "address"
        }
      ],
      "name": "initialize",
      "outputs": [],
      "stateMutability": "nonpayable",
      "type": "function"
    },
    {
      "inputs": [
        {
          "components": [
            {
              "internalType": "bytes32",
              "name": "id",
              "type": "bytes32"
            },
            {
              "internalType": "address",
              "name": "offeror",
              "type": "address"
            },
            {
              "internalType": "bytes32",
              "name": "offerPriceHash",
              "type": "bytes32"
            },
            {
              "internalType": "uint256",
              "name": "amount",
              "type": "uint256"
            },
            {
              "internalType": "address",
              "name": "purchaseToken",
              "type": "address"
            }
          ],
          "internalType": "struct TermAuctionOfferSubmission[]",
          "name": "offerSubmissions",
          "type": "tuple[]"
        }
      ],
      "name": "lockOffers",
      "outputs": [
        {
          "internalType": "bytes32[]",
          "name": "",
          "type": "bytes32[]"
        }
      ],
      "stateMutability": "nonpayable",
      "type": "function"
    },
    {
      "inputs": [
        {
          "components": [
            {
              "internalType": "bytes32",
              "name": "id",
              "type": "bytes32"
            },
            {
              "internalType": "address",
              "name": "offeror",
              "type": "address"
            },
            {
              "internalType": "bytes32",
              "name": "offerPriceHash",
              "type": "bytes32"
            },
            {
              "internalType": "uint256",
              "name": "amount",
              "type": "uint256"
            },
            {
              "internalType": "address",
              "name": "purchaseToken",
              "type": "address"
            }
          ],
          "internalType": "struct TermAuctionOfferSubmission[]",
          "name": "offerSubmissions",
          "type": "tuple[]"
        },
        {
          "internalType": "address",
          "name": "referralAddress",
          "type": "address"
        }
      ],
      "name": "lockOffersWithReferral",
      "outputs": [
        {
          "internalType": "bytes32[]",
          "name": "",
          "type": "bytes32[]"
        }
      ],
      "stateMutability": "nonpayable",
      "type": "function"
    },
    {
      "inputs": [
        {
          "internalType": "bytes32",
          "name": "id",
          "type": "bytes32"
        }
      ],
      "name": "lockedOffer",
      "outputs": [
        {
          "components": [
            {
              "internalType": "bytes32",
              "name": "id",
              "type": "bytes32"
            },
            {
              "internalType": "address",
              "name": "offeror",
              "type": "address"
            },
            {
              "internalType": "bytes32",
              "name": "offerPriceHash",
              "type": "bytes32"
            },
            {
              "internalType": "uint256",
              "name": "offerPriceRevealed",
              "type": "uint256"
            },
            {
              "internalType": "uint256",
              "name": "amount",
              "type": "uint256"
            },
            {
              "internalType": "address",
              "name": "purchaseToken",
              "type": "address"
            },
            {
              "internalType": "bool",
              "name": "isRevealed",
              "type": "bool"
            }
          ],
          "internalType": "struct TermAuctionOffer",
          "name": "",
          "type": "tuple"
        }
      ],
      "stateMutability": "view",
      "type": "function"
    },
    {
      "inputs": [],
      "name": "lockingPaused",
      "outputs": [
        {
          "internalType": "bool",
          "name": "",
          "type": "bool"
        }
      ],
      "stateMutability": "view",
      "type": "function"
    },
    {
      "inputs": [],
      "name": "minimumTenderAmount",
      "outputs": [
        {
          "internalType": "uint256",
          "name": "",
          "type": "uint256"
        }
      ],
      "stateMutability": "view",
      "type": "function"
    },
    {
      "inputs": [
        {
          "components": [
            {
              "internalType": "bytes32",
              "name": "id",
              "type": "bytes32"
            },
            {
              "internalType": "address",
              "name": "offeror",
              "type": "address"
            },
            {
              "internalType": "uint256",
              "name": "offerPriceRevealed",
              "type": "uint256"
            },
            {
              "internalType": "uint256",
              "name": "amount",
              "type": "uint256"
            },
            {
              "internalType": "address",
              "name": "purchaseToken",
              "type": "address"
            }
          ],
          "internalType": "struct TermAuctionRevealedOffer",
          "name": "revealed",
          "type": "tuple"
        },
        {
          "internalType": "uint256",
          "name": "nonce",
          "type": "uint256"
        }
      ],
      "name": "obfuscateOffer",
      "outputs": [
        {
          "components": [
            {
              "internalType": "bytes32",
              "name": "id",
              "type": "bytes32"
            },
            {
              "internalType": "address",
              "name": "offeror",
              "type": "address"
            },
            {
              "internalType": "bytes32",
              "name": "offerPriceHash",
              "type": "bytes32"
            },
            {
              "internalType": "uint256",
              "name": "offerPriceRevealed",
              "type": "uint256"
            },
            {
              "internalType": "uint256",
              "name": "amount",
              "type": "uint256"
            },
            {
              "internalType": "address",
              "name": "purchaseToken",
              "type": "address"
            },
            {
              "internalType": "bool",
              "name": "isRevealed",
              "type": "bool"
            }
          ],
          "internalType": "struct TermAuctionOffer",
          "name": "hidden",
          "type": "tuple"
        }
      ],
      "stateMutability": "pure",
      "type": "function"
    },
    {
      "inputs": [],
      "name": "offerCount",
      "outputs": [
        {
          "internalType": "uint256",
          "name": "",
          "type": "uint256"
        }
      ],
      "stateMutability": "view",
      "type": "function"
    },
    {
      "inputs": [
        {
          "internalType": "address",
          "name": "termAuction_",
          "type": "address"
        },
        {
          "internalType": "contract ITermEventEmitter",
          "name": "emitter_",
          "type": "address"
        },
        {
          "internalType": "contract ITermRepoServicer",
          "name": "termRepoServicer_",
          "type": "address"
        },
        {
          "internalType": "address",
          "name": "devopsMultisig_",
          "type": "address"
        }
      ],
      "name": "pairTermContracts",
      "outputs": [],
      "stateMutability": "nonpayable",
      "type": "function"
    },
    {
      "inputs": [],
      "name": "pauseLocking",
      "outputs": [],
      "stateMutability": "nonpayable",
      "type": "function"
    },
    {
      "inputs": [],
      "name": "pauseUnlocking",
      "outputs": [],
      "stateMutability": "nonpayable",
      "type": "function"
    },
    {
      "inputs": [],
      "name": "proxiableUUID",
      "outputs": [
        {
          "internalType": "bytes32",
          "name": "",
          "type": "bytes32"
        }
      ],
      "stateMutability": "view",
      "type": "function"
    },
    {
      "inputs": [],
      "name": "purchaseToken",
      "outputs": [
        {
          "internalType": "contract IERC20Upgradeable",
          "name": "",
          "type": "address"
        }
      ],
      "stateMutability": "view",
      "type": "function"
    },
    {
      "inputs": [
        {
          "internalType": "bytes32",
          "name": "role",
          "type": "bytes32"
        },
        {
          "internalType": "address",
          "name": "account",
          "type": "address"
        }
      ],
      "name": "renounceRole",
      "outputs": [],
      "stateMutability": "nonpayable",
      "type": "function"
    },
    {
      "inputs": [
        {
          "internalType": "bytes32[]",
          "name": "ids",
          "type": "bytes32[]"
        },
        {
          "internalType": "uint256[]",
          "name": "prices",
          "type": "uint256[]"
        },
        {
          "internalType": "uint256[]",
          "name": "nonces",
          "type": "uint256[]"
        }
      ],
      "name": "revealOffers",
      "outputs": [],
      "stateMutability": "nonpayable",
      "type": "function"
    },
    {
      "inputs": [],
      "name": "revealTime",
      "outputs": [
        {
          "internalType": "uint256",
          "name": "",
          "type": "uint256"
        }
      ],
      "stateMutability": "view",
      "type": "function"
    },
    {
      "inputs": [
        {
          "internalType": "bytes32",
          "name": "role",
          "type": "bytes32"
        },
        {
          "internalType": "address",
          "name": "account",
          "type": "address"
        }
      ],
      "name": "revokeRole",
      "outputs": [],
      "stateMutability": "nonpayable",
      "type": "function"
    },
    {
      "inputs": [
        {
          "internalType": "uint256",
          "name": "auctionEndTime_",
          "type": "uint256"
        }
      ],
      "name": "setEndTime",
      "outputs": [],
      "stateMutability": "nonpayable",
      "type": "function"
    },
    {
      "inputs": [
        {
          "internalType": "uint256",
          "name": "offerCount_",
          "type": "uint256"
        }
      ],
      "name": "setOfferCount",
      "outputs": [],
      "stateMutability": "nonpayable",
      "type": "function"
    },
    {
      "inputs": [
        {
          "internalType": "uint256",
          "name": "revealTime_",
          "type": "uint256"
        }
      ],
      "name": "setRevealTime",
      "outputs": [],
      "stateMutability": "nonpayable",
      "type": "function"
    },
    {
      "inputs": [
        {
          "internalType": "uint256",
          "name": "auctionStartTime_",
          "type": "uint256"
        }
      ],
      "name": "setStartTime",
      "outputs": [],
      "stateMutability": "nonpayable",
      "type": "function"
    },
    {
      "inputs": [
        {
          "internalType": "bytes4",
          "name": "interfaceId",
          "type": "bytes4"
        }
      ],
      "name": "supportsInterface",
      "outputs": [
        {
          "internalType": "bool",
          "name": "",
          "type": "bool"
        }
      ],
      "stateMutability": "view",
      "type": "function"
    },
    {
      "inputs": [],
      "name": "termAuctionId",
      "outputs": [
        {
          "internalType": "bytes32",
          "name": "",
          "type": "bytes32"
        }
      ],
      "stateMutability": "view",
      "type": "function"
    },
    {
      "inputs": [],
      "name": "termRepoId",
      "outputs": [
        {
          "internalType": "bytes32",
          "name": "",
          "type": "bytes32"
        }
      ],
      "stateMutability": "view",
      "type": "function"
    },
    {
      "inputs": [],
      "name": "termRepoServicer",
      "outputs": [
        {
          "internalType": "contract ITermRepoServicer",
          "name": "",
          "type": "address"
        }
      ],
      "stateMutability": "view",
      "type": "function"
    },
    {
      "inputs": [
        {
          "internalType": "bytes32",
          "name": "id",
          "type": "bytes32"
        },
        {
          "internalType": "address",
          "name": "offeror",
          "type": "address"
        },
        {
          "internalType": "uint256",
          "name": "amount",
          "type": "uint256"
        }
      ],
      "name": "unlockOfferPartial",
      "outputs": [],
      "stateMutability": "nonpayable",
      "type": "function"
    },
    {
      "inputs": [
        {
          "internalType": "bytes32[]",
          "name": "ids",
          "type": "bytes32[]"
        }
      ],
      "name": "unlockOffers",
      "outputs": [],
      "stateMutability": "nonpayable",
      "type": "function"
    },
    {
      "inputs": [],
      "name": "unlockingPaused",
      "outputs": [
        {
          "internalType": "bool",
          "name": "",
          "type": "bool"
        }
      ],
      "stateMutability": "view",
      "type": "function"
    },
    {
      "inputs": [],
      "name": "unpauseLocking",
      "outputs": [],
      "stateMutability": "nonpayable",
      "type": "function"
    },
    {
      "inputs": [],
      "name": "unpauseUnlocking",
      "outputs": [],
      "stateMutability": "nonpayable",
      "type": "function"
    },
    {
      "inputs": [
        {
          "internalType": "address",
          "name": "upgradeAddress",
          "type": "address"
        }
      ],
      "name": "upgrade",
      "outputs": [],
      "stateMutability": "nonpayable",
      "type": "function"
    },
    {
      "inputs": [
        {
          "internalType": "address",
          "name": "newImplementation",
          "type": "address"
        }
      ],
      "name": "upgradeTo",
      "outputs": [],
      "stateMutability": "nonpayable",
      "type": "function"
    },
    {
      "inputs": [
        {
          "internalType": "address",
          "name": "newImplementation",
          "type": "address"
        },
        {
          "internalType": "bytes",
          "name": "data",
          "type": "bytes"
        }
      ],
      "name": "upgradeToAndCall",
      "outputs": [],
      "stateMutability": "payable",
      "type": "function"
    },
    {
      "inputs": [],
      "name": "version",
      "outputs": [
        {
          "internalType": "string",
          "name": "",
          "type": "string"
        }
      ],
      "stateMutability": "view",
      "type": "function"
    }
  ],
  "bytecode": "0x60a0604052306080523480156200001557600080fd5b506200002062000026565b620000e7565b600054610100900460ff1615620000935760405162461bcd60e51b815260206004820152602760248201527f496e697469616c697a61626c653a20636f6e747261637420697320696e697469604482015266616c697a696e6760c81b606482015260840160405180910390fd5b60005460ff90811614620000e5576000805460ff191660ff9081179091556040519081527f7f26b83ff96e1f2b6a682f133852f6798a09c465da95921460cefb38474024989060200160405180910390a15b565b608051613c3c6200011f60003960008181610b9f01528181610bdf01528181610d2d01528181610d6d0152610de50152613c3c6000f3fe60806040526004361061025e5760003560e01c80635ff8d52611610145578063b2a02de8116100bc578063b2a02de8146106e0578063ba829d7114610700578063c1e2850714610717578063c44cee7314610738578063cc5b6e4a14610766578063ccb98ffc1461077d578063cfe9232b1461079e578063cffbc297146107c0578063d048db37146107f1578063d547741f14610807578063d780e48814610827578063db875b6914610848578063eb54f9ec1461086857600080fd5b80635ff8d526146105715780636d733141146105915780637043f034146105a8578063720e52c5146105c857806372e3a5b1146105e85780637e3f71d5146106085780638a5cd91e1461062857806391d148541461063d578063a217fddf1461065d578063a8f421c214610672578063a95c4d6214610692578063ab63cf0e146106b357600080fd5b8063357a77d2116101d9578063357a77d21461040157806336568abe1461042f5780633659cfe61461044f5780633e0a322d1461046f5780633e2cf6d6146104905780633e836b3d146104ad5780633efbfd8c146104c257806341da5432146104e35780634b449cba146104f85780634f1ef2861461050f57806352d1902d1461052257806354fd4d501461053757600080fd5b806301ffc9a7146102635780630900f010146102985780630c2754ca146102ba5780630c57f414146102dd5780631115c24d146102fd5780631f64270514610314578063201a6625146103295780632067a73f1461034b578063248a9ca31461037857806325a2471a146103a857806327df3d3e146103bf5780632f2ff15d146103e1575b600080fd5b34801561026f57600080fd5b5061028361027e366004612f14565b61087f565b60405190151581526020015b60405180910390f35b3480156102a457600080fd5b506102b86102b3366004612f5e565b6108b6565b005b3480156102c657600080fd5b506102cf609681565b60405190815260200161028f565b3480156102e957600080fd5b506102b86102f8366004612f7b565b6108c2565b34801561030957600080fd5b506102cf6101395481565b34801561032057600080fd5b506102b86109b5565b34801561033557600080fd5b506102cf600080516020613b6083398151915281565b34801561035757600080fd5b5061036b61036636600461307b565b610a56565b60405161028f91906130fa565b34801561038457600080fd5b506102cf610393366004613108565b600090815260c9602052604090206001015490565b3480156103b457600080fd5b506102cf6101325481565b3480156103cb57600080fd5b506102cf600080516020613b8083398151915281565b3480156103ed57600080fd5b506102b86103fc366004613121565b610ae8565b34801561040d57600080fd5b5061013554610422906001600160a01b031681565b60405161028f9190613151565b34801561043b57600080fd5b506102b861044a366004613121565b610b12565b34801561045b57600080fd5b506102b861046a366004612f5e565b610b95565b34801561047b57600080fd5b506102b861048a366004613108565b61012f55565b34801561049c57600080fd5b506102cf68056bc75e2d6310000081565b3480156104b957600080fd5b506102b8610c5a565b3480156104ce57600080fd5b5061013a546102839062010000900460ff1681565b3480156104ef57600080fd5b506102b8610cbe565b34801561050457600080fd5b506102cf6101315481565b6102b861051d366004613165565b610d23565b34801561052e57600080fd5b506102cf610dd8565b34801561054357600080fd5b50604080518082018252600b81526a19195d995b1bdc1b595b9d60aa1b6020820152905161028f9190613230565b34801561057d57600080fd5b506102b861058c3660046132ae565b610e86565b34801561059d57600080fd5b506102cf61012e5481565b3480156105b457600080fd5b506102b86105c336600461341f565b610f21565b3480156105d457600080fd5b506102b86105e33660046134fc565b611244565b3480156105f457600080fd5b5061036b610603366004613108565b611450565b34801561061457600080fd5b5061013a5461028390610100900460ff1681565b34801561063457600080fd5b506102b86114cf565b34801561064957600080fd5b50610283610658366004613121565b611539565b34801561066957600080fd5b506102cf600081565b34801561067e57600080fd5b506102b861068d36600461353d565b611564565b34801561069e57600080fd5b5061013354610422906001600160a01b031681565b3480156106bf57600080fd5b506106d36106ce366004613599565b6116c7565b60405161028f919061361e565b3480156106ec57600080fd5b506102b86106fb366004613662565b6118ae565b34801561070c57600080fd5b506102cf6101305481565b34801561072357600080fd5b506102b8610732366004613108565b61013055565b34801561074457600080fd5b50610758610753366004613693565b611970565b60405161028f929190613743565b34801561077257600080fd5b506102cf61012d5481565b34801561078957600080fd5b506102b8610798366004613108565b61013155565b3480156107aa57600080fd5b506102cf600080516020613be783398151915281565b3480156107cc57600080fd5b506102836107db366004612f5e565b6101346020526000908152604090205460ff1681565b3480156107fd57600080fd5b50610139546102cf565b34801561081357600080fd5b506102b8610822366004613121565b611d4a565b34801561083357600080fd5b506102b8610842366004613108565b61013955565b34801561085457600080fd5b506106d36108633660046137cf565b611d6f565b34801561087457600080fd5b506102cf61012f5481565b60006001600160e01b03198216637965db0b60e01b14806108b057506301ffc9a760e01b6001600160e01b03198316145b92915050565b6108bf81611f20565b50565b600080516020613be78339815191526108da81611fa2565b610135546040516318ddb12f60e11b81526001600160a01b03909116906331bb625e9061090d9086908690600401613868565b600060405180830381600087803b15801561092757600080fd5b505af115801561093b573d6000803e3d6000fd5b50506101365461012e54604051635ba1a50760e01b81526001600160a01b039092169350635ba1a507925061097d918890600401918252602082015260400190565b600060405180830381600087803b15801561099757600080fd5b505af11580156109ab573d6000803e3d6000fd5b5050505050505050565b600080516020613b608339815191526109cd81611fa2565b61013a805462ff00001916620100001790556101365461012e5461012d5460405163703d84ab60e01b81526001600160a01b039093169263703d84ab92610a21929091600401918252602082015260400190565b600060405180830381600087803b158015610a3b57600080fd5b505af1158015610a4f573d6000803e3d6000fd5b5050505050565b610a5e612eaa565b6040805160e081018252845181526020808601516001600160a01b031681830152858301518351918201528083018590529091820190606001604051602081830303815290604052805190602001208152602001846040015181526020018460600151815260200184608001516001600160a01b0316815260200160001515815250905092915050565b600082815260c96020526040902060010154610b0381611fa2565b610b0d8383611fac565b505050565b6001600160a01b0381163314610b875760405162461bcd60e51b815260206004820152602f60248201527f416363657373436f6e74726f6c3a2063616e206f6e6c792072656e6f756e636560448201526e103937b632b9903337b91039b2b63360891b60648201526084015b60405180910390fd5b610b918282612032565b5050565b6001600160a01b037f0000000000000000000000000000000000000000000000000000000000000000163003610bdd5760405162461bcd60e51b8152600401610b7e90613881565b7f00000000000000000000000000000000000000000000000000000000000000006001600160a01b0316610c0f612099565b6001600160a01b031614610c355760405162461bcd60e51b8152600401610b7e906138cd565b610c3e81611f20565b604080516000808252602082019092526108bf918391906120b5565b600080516020613b60833981519152610c7281611fa2565b61013a805461ff00191690556101365461012e5461012d54604051632f5d386f60e01b8152600481019290925260248201526001600160a01b0390911690632f5d386f90604401610a21565b600080516020613b60833981519152610cd681611fa2565b61013a805462ff0000191690556101365461012e5461012d5460405163485c705560e11b8152600481019290925260248201526001600160a01b03909116906390b8e0aa90604401610a21565b6001600160a01b037f0000000000000000000000000000000000000000000000000000000000000000163003610d6b5760405162461bcd60e51b8152600401610b7e90613881565b7f00000000000000000000000000000000000000000000000000000000000000006001600160a01b0316610d9d612099565b6001600160a01b031614610dc35760405162461bcd60e51b8152600401610b7e906138cd565b610dcc82611f20565b610b91828260016120b5565b6000306001600160a01b037f00000000000000000000000000000000000000000000000000000000000000001614610e735760405162461bcd60e51b815260206004820152603860248201527f555550535570677261646561626c653a206d757374206e6f742062652063616c6044820152771b1959081d1a1c9bdd59da0819195b1959d85d1958d85b1b60421b6064820152608401610b7e565b50600080516020613ba083398151915290565b61013054421015610eaa576040516302a3f58760e51b815260040160405180910390fd5b60005b85811015610f1857610f08878783818110610eca57610eca613919565b90506020020135868684818110610ee357610ee3613919565b90506020020135858585818110610efc57610efc613919565b90506020020135612220565b610f1181613945565b9050610ead565b50505050505050565b600054610100900460ff1615808015610f415750600054600160ff909116105b80610f625750610f5030612350565b158015610f62575060005460ff166001145b610fc55760405162461bcd60e51b815260206004820152602e60248201527f496e697469616c697a61626c653a20636f6e747261637420697320616c72656160448201526d191e481a5b9a5d1a585b1a5e995960921b6064820152608401610b7e565b6000805460ff191660011790558015610fe8576000805461ff0019166101001790555b610ff061235f565b610ff861235f565b611000612388565b611018600080516020613b8083398151915283611fac565b86881115611043576040516372067af960e11b81526004810189905260248101889052604401610b7e565b8b8b60405160200161105692919061395e565b60408051601f1981840301815290829052805160209182012061012d55611081918c918c910161395e565b60408051808303601f19018152919052805160209091012061012e5561012f88905561013087905561013186905561013285905561013380546001600160a01b0319166001600160a01b03861617905582516000906001600160401b038111156110ed576110ed612fb3565b604051908082528060200260200182016040528015611116578160200160208202803683370190505b50905060005b84518160ff1610156111dd5760016101346000878460ff168151811061114457611144613919565b60200260200101516001600160a01b03166001600160a01b0316815260200190815260200160002060006101000a81548160ff021916908315150217905550848160ff168151811061119857611198613919565b6020026020010151828260ff16815181106111b5576111b5613919565b6001600160a01b03909216602092830291909101909101526111d68161396e565b905061111c565b505060006101395561013a805460ff191690558015611236576000805461ff0019169055604051600181527f7f26b83ff96e1f2b6a682f133852f6798a09c465da95921460cefb38474024989060200160405180910390a15b505050505050505050505050565b61013a5462010000900460ff161561126f57604051631370a4e760e31b815260040160405180910390fd5b6112776123b7565b61012f5442101561129b5760405163f046007760e01b815260040160405180910390fd5b6101305442118015611322575061013760009054906101000a90046001600160a01b03166001600160a01b0316638dfea9e76040518163ffffffff1660e01b8152600401602060405180830381865afa1580156112fc573d6000803e3d6000fd5b505050506040513d601f19601f82011682018060405250810190611320919061398d565b155b156113405760405163f046007760e01b815260040160405180910390fd5b60005b8181101561144557610138600084848481811061136257611362613919565b905060200201358152602001908152602001600020600401546000036113b75782828281811061139457611394613919565b9050602002013560405163401c968f60e11b8152600401610b7e91815260200190565b61013860008484848181106113ce576113ce613919565b60209081029290920135835250810191909152604001600020600101546001600160a01b031633146114135760405163738b91eb60e11b815260040160405180910390fd5b61143583838381811061142857611428613919565b9050602002013533612410565b61143e81613945565b9050611343565b50610b91600160fb55565b611458612eaa565b5060009081526101386020908152604091829020825160e0810184528154815260018201546001600160a01b039081169382019390935260028201549381019390935260038101546060840152600481015460808401526005015490811660a0830152600160a01b900460ff16151560c082015290565b600080516020613b608339815191526114e781611fa2565b61013a805461ff0019166101001790556101365461012e5461012d5460405163935dcfc760e01b81526001600160a01b039093169263935dcfc792610a21929091600401918252602082015260400190565b600091825260c9602090815260408084206001600160a01b0393909316845291905290205460ff1690565b600080516020613b8083398151915261157c81611fa2565b61013a5460ff16156115a157604051634ce377bb60e11b815260040160405180910390fd5b61013a805460ff1916600117905561013780546001600160a01b0387166001600160a01b03199091161790556115e5600080516020613be783398151915286612526565b6115fd600080516020613b6083398151915283611fac565b61013680546001600160a01b038681166001600160a01b0319928316811790935561013580549187169190921617905561012d5461012e5461012f5461013054610132546040516308866d1360e41b8152600481019590955260248501939093523060448501526064840191909152608483015268056bc75e2d6310000060a483015260c4820152638866d1309060e401600060405180830381600087803b1580156116a857600080fd5b505af11580156116bc573d6000803e3d6000fd5b505050505050505050565b6060610130544211806116dc575061012f5442105b156116fa5760405163f046007760e01b815260040160405180910390fd5b61013a54610100900460ff16156117245760405163059e557960e41b815260040160405180910390fd5b61172c6123b7565b6001600160a01b0382163303611755576040516333d8ca2d60e11b815260040160405180910390fd5b6000836001600160401b0381111561176f5761176f612fb3565b604051908082528060200260200182016040528015611798578160200160208202803683370190505b50905060005b8481101561189a5760006117d98787848181106117bd576117bd613919565b905060a002018036038101906117d391906139af565b33612530565b905080600001548383815181106117f2576117f2613919565b60209081029190910101526101365461012e5482546001840154600285015460048087015460058801546040516303228b3f60e61b81526001600160a01b039889169863c8a2cfc098611856989097909690821695909493909116918f91016139cb565b600060405180830381600087803b15801561187057600080fd5b505af1158015611884573d6000803e3d6000fd5b50505050508061189390613945565b905061179e565b5090506118a7600160fb55565b9392505050565b6118c66118c0368490038401846139af565b82610a56565b82356000908152610138602090815260408083208451815591840151600180840180546001600160a01b039384166001600160a01b0319909116179055918501516002840155606085015160038401556080850151600484015560a08501516005909301805460c0909601511515600160a01b026001600160a81b031990961693909116929092179390931790556101398054909190611967908490613a06565b90915550505050565b606080600080516020613be783398151915261198b81611fa2565b610139546119998588613a06565b146119be5761013954604051633186b0c560e11b8152600401610b7e91815260200190565b6000866001600160401b038111156119d8576119d8612fb3565b604051908082528060200260200182016040528015611a1157816020015b6119fe612ee6565b8152602001906001900390816119f65790505b5090506000856001600160401b03811115611a2e57611a2e612fb3565b604051908082528060200260200182016040528015611a6757816020015b611a54612eaa565b815260200190600190039081611a4c5790505b50905060008060005b8a811015611bd757600061013860008e8e85818110611a9157611a91613919565b90506020020135815260200190815260200160002090508060040154600003611ac6578c8c8381811061139457611394613919565b6005810154600160a01b900460ff16611af85780546040516342b00fd560e01b81526004810191909152602401610b7e565b8060030154831115611b1d576040516305e5dfdd60e11b815260040160405180910390fd5b60038101546040805160e0810182528354815260018401546001600160a01b0390811660208301526002850154928201929092526060810183905260048401546080820152600584015491821660a0820152600160a01b90910460ff16151560c0820152909350611b8e90846128ee565b868581518110611ba057611ba0613919565b60200260200101819052508380611bb690613945565b945050611bc68160000154612947565b50611bd081613945565b9050611a70565b506000805b89811015611d2657600061013860008d8d85818110611bfd57611bfd613919565b90506020020135815260200190815260200160002090508060040154600003611c32578b8b8381811061139457611394613919565b6005810154600160a01b900460ff1615611c7b578b8b83818110611c5857611c58613919565b9050602002013560405163b72a25ad60e01b8152600401610b7e91815260200190565b6040805160e0810182528254815260018301546001600160a01b0390811660208301526002840154928201929092526003830154606082015260048301546080820152600583015491821660a0820152600160a01b90910460ff16151560c08201528651879085908110611cf157611cf1613919565b602002602001018190525082611d0690613945565b9250611d158160000154612947565b50611d1f81613945565b9050611bdc565b506101395415611d3857611d38613a19565b50929a91995090975050505050505050565b600082815260c96020526040902060010154611d6581611fa2565b610b0d8383612032565b606061013054421180611d84575061012f5442105b15611da25760405163f046007760e01b815260040160405180910390fd5b61013a54610100900460ff1615611dcc5760405163059e557960e41b815260040160405180910390fd5b611dd46123b7565b600082516001600160401b03811115611def57611def612fb3565b604051908082528060200260200182016040528015611e18578160200160208202803683370190505b50905060005b8351811015611f0e576000611e4c858381518110611e3e57611e3e613919565b602002602001015133612530565b90508060000154838381518110611e6557611e65613919565b60209081029190910101526101365461012e5482546001840154600285015460048087015460058801546040516303228b3f60e61b81526001600160a01b039889169863c8a2cfc098611eca98909790969082169590949390911691600091016139cb565b600060405180830381600087803b158015611ee457600080fd5b505af1158015611ef8573d6000803e3d6000fd5b505050505080611f0790613945565b9050611e1e565b509050611f1b600160fb55565b919050565b600080516020613b60833981519152611f3881611fa2565b6101365460405163b3c2d50b60e01b81523060048201526001600160a01b0384811660248301529091169063b3c2d50b90604401600060405180830381600087803b158015611f8657600080fd5b505af1158015611f9a573d6000803e3d6000fd5b505050505050565b6108bf81336129b0565b611fb68282611539565b610b9157600082815260c9602090815260408083206001600160a01b03851684529091529020805460ff19166001179055611fee3390565b6001600160a01b0316816001600160a01b0316837f2f8788117e7eff1d82e926ec794901d17c78024a50270940304540a733656f0d60405160405180910390a45050565b61203c8282611539565b15610b9157600082815260c9602090815260408083206001600160a01b0385168085529252808320805460ff1916905551339285917ff6391f5c32d9c69d2a47ea670b442974b53935d1edc7fd64eb21e047a839171b9190a45050565b600080516020613ba0833981519152546001600160a01b031690565b7f4910fdfa16fed3260ed0e7147f7cc6da11a60208b5b9406d12a635614ffd91435460ff16156120e857610b0d83612a09565b826001600160a01b03166352d1902d6040518163ffffffff1660e01b8152600401602060405180830381865afa925050508015612142575060408051601f3d908101601f1916820190925261213f91810190613a2f565b60015b6121a55760405162461bcd60e51b815260206004820152602e60248201527f45524331393637557067726164653a206e657720696d706c656d656e7461746960448201526d6f6e206973206e6f74205555505360901b6064820152608401610b7e565b600080516020613ba083398151915281146122145760405162461bcd60e51b815260206004820152602960248201527f45524331393637557067726164653a20756e737570706f727465642070726f786044820152681a58589b195555525160ba1b6064820152608401610b7e565b50610b0d838383612aa3565b60008381526101386020908152604091829020600201548251918201859052918101839052606001604051602081830303815290604052805190602001201461227c57604051630ce8dc1d60e11b815260040160405180910390fd5b68056bc75e2d631000008211156122b857604051632dc71e8d60e01b81526004810184905268056bc75e2d631000006024820152604401610b7e565b600083815261013860205260409081902060038101849055600501805460ff60a01b1916600160a01b1790556101365461012e549151632f68befb60e11b8152600481019290925260248201859052604482018490526001600160a01b031690635ed17df6906064015b600060405180830381600087803b15801561233c57600080fd5b505af1158015610f18573d6000803e3d6000fd5b6001600160a01b03163b151590565b600054610100900460ff166123865760405162461bcd60e51b8152600401610b7e90613a48565b565b600054610100900460ff166123af5760405162461bcd60e51b8152600401610b7e90613a48565b612386612ace565b600260fb54036124095760405162461bcd60e51b815260206004820152601f60248201527f5265656e7472616e637947756172643a207265656e7472616e742063616c6c006044820152606401610b7e565b600260fb55565b600082815261013860205260408120600481018054838355600180840180546001600160a01b0319169055600284018590556003840185905591849055600590920180546001600160a81b0319169055610139805492939192909190612477908490613a93565b90915550506101365461012e54604051635ba1a50760e01b81526001600160a01b0390921691635ba1a507916124ba918790600401918252602082015260400190565b600060405180830381600087803b1580156124d457600080fd5b505af11580156124e8573d6000803e3d6000fd5b5050610135546040516318ddb12f60e11b81526001600160a01b0390911692506331bb625e91506123229085908590600401613868565b600160fb55565b610b918282611fac565b6000826020015182816001600160a01b0316816001600160a01b03161461256a5760405163738b91eb60e11b815260040160405180910390fd5b6096610139541061258e576040516336ac50e160e21b815260040160405180910390fd5b84516000908152610138602052604081206004015415801591906125fb57602080880151885160009081526101389092526040909120600101546001600160a01b039081169116146125f35760405163738b91eb60e11b815260040160405180910390fd5b50855161260a565b86516126079087612af5565b90505b6080870151610133546001600160a01b0390811691161461264457866080015160405163e34b641f60e01b8152600401610b7e9190613151565b610132548760600151101561267457866060015160405163012a8d3160e11b8152600401610b7e91815260200190565b600061013860008381526020019081526020016000206004015490506040518060e0016040528083815260200189602001516001600160a01b0316815260200189604001518152602001600081526020018960600151815260200189608001516001600160a01b031681526020016000151581525061013860008481526020019081526020016000206000820151816000015560208201518160010160006101000a8154816001600160a01b0302191690836001600160a01b0316021790555060408201518160020155606082015181600301556080820151816004015560a08201518160050160006101000a8154816001600160a01b0302191690836001600160a01b0316021790555060c08201518160050160146101000a81548160ff021916908315150217905550905050826127c157600161013960008282546127bb9190613a06565b90915550505b876060015181101561284d5761013554602089015160608a01516001600160a01b0390921691630877275991906127f9908590613a93565b6040518363ffffffff1660e01b8152600401612816929190613868565b600060405180830381600087803b15801561283057600080fd5b505af1158015612844573d6000803e3d6000fd5b505050506128d4565b87606001518111156128d45761013554602089015160608a01516001600160a01b03909216916331bb625e91906128849085613a93565b6040518363ffffffff1660e01b81526004016128a1929190613868565b600060405180830381600087803b1580156128bb57600080fd5b505af11580156128cf573d6000803e3d6000fd5b505050505b506000908152610138602052604090209695505050505050565b6128f6612ee6565b6040518060a001604052808460000151815260200184602001516001600160a01b03168152602001838152602001846080015181526020018460a001516001600160a01b0316815250905092915050565b600081815261013860205260408120818155600180820180546001600160a01b0319169055600282018390556003820183905560048201839055600590910180546001600160a81b03191690556101398054919290916129a8908490613a93565b909155505050565b6129ba8282611539565b610b91576129c781612b7c565b6129d2836020612b8e565b6040516020016129e3929190613aa6565b60408051601f198184030181529082905262461bcd60e51b8252610b7e91600401613230565b612a1281612350565b612a745760405162461bcd60e51b815260206004820152602d60248201527f455243313936373a206e657720696d706c656d656e746174696f6e206973206e60448201526c1bdd08184818dbdb9d1c9858dd609a1b6064820152608401610b7e565b600080516020613ba083398151915280546001600160a01b0319166001600160a01b0392909216919091179055565b612aac83612d29565b600082511180612ab95750805b15610b0d57612ac88383612d69565b50505050565b600054610100900460ff1661251f5760405162461bcd60e51b8152600401610b7e90613a48565b600080838330604051602001612b2f93929190928352606091821b6001600160601b03199081166020850152911b16603482015260480190565b60408051601f1981840301815291815281516020928301206000818152610138909352912060040154909150156118a7576040516327fce3dd60e11b815260048101829052602401610b7e565b60606108b06001600160a01b03831660145b60606000612b9d836002613b15565b612ba8906002613a06565b6001600160401b03811115612bbf57612bbf612fb3565b6040519080825280601f01601f191660200182016040528015612be9576020820181803683370190505b509050600360fc1b81600081518110612c0457612c04613919565b60200101906001600160f81b031916908160001a905350600f60fb1b81600181518110612c3357612c33613919565b60200101906001600160f81b031916908160001a9053506000612c57846002613b15565b612c62906001613a06565b90505b6001811115612cda576f181899199a1a9b1b9c1cb0b131b232b360811b85600f1660108110612c9657612c96613919565b1a60f81b828281518110612cac57612cac613919565b60200101906001600160f81b031916908160001a90535060049490941c93612cd381613b2c565b9050612c65565b5083156118a75760405162461bcd60e51b815260206004820181905260248201527f537472696e67733a20686578206c656e67746820696e73756666696369656e746044820152606401610b7e565b612d3281612a09565b6040516001600160a01b038216907fbc7cd75a20ee27fd9adebab32041f755214dbc6bffa90cc0225b39da2e5c2d3b90600090a250565b60606118a78383604051806060016040528060278152602001613bc0602791396060600080856001600160a01b031685604051612da69190613b43565b600060405180830381855af49150503d8060008114612de1576040519150601f19603f3d011682016040523d82523d6000602084013e612de6565b606091505b5091509150612df786838387612e01565b9695505050505050565b60608315612e6e578251600003612e6757612e1b85612350565b612e675760405162461bcd60e51b815260206004820152601d60248201527f416464726573733a2063616c6c20746f206e6f6e2d636f6e74726163740000006044820152606401610b7e565b5081612e78565b612e788383612e80565b949350505050565b815115612e905781518083602001fd5b8060405162461bcd60e51b8152600401610b7e9190613230565b6040805160e081018252600080825260208201819052918101829052606081018290526080810182905260a0810182905260c081019190915290565b6040805160a08101825260008082526020820181905291810182905260608101829052608081019190915290565b600060208284031215612f2657600080fd5b81356001600160e01b0319811681146118a757600080fd5b6001600160a01b03811681146108bf57600080fd5b8035611f1b81612f3e565b600060208284031215612f7057600080fd5b81356118a781612f3e565b600080600060608486031215612f9057600080fd5b833592506020840135612fa281612f3e565b929592945050506040919091013590565b634e487b7160e01b600052604160045260246000fd5b604051601f8201601f191681016001600160401b0381118282101715612ff157612ff1612fb3565b604052919050565b600060a0828403121561300b57600080fd5b60405160a081018181106001600160401b038211171561302d5761302d612fb3565b60405282358152905080602083013561304581612f3e565b806020830152506040830135604082015260608301356060820152608083013561306e81612f3e565b6080919091015292915050565b60008060c0838503121561308e57600080fd5b6130988484612ff9565b9460a0939093013593505050565b80518252602081015160018060a01b0380821660208501526040830151604085015260608301516060850152608083015160808501528060a08401511660a0850152505060c0810151151560c08301525050565b60e081016108b082846130a6565b60006020828403121561311a57600080fd5b5035919050565b6000806040838503121561313457600080fd5b82359150602083013561314681612f3e565b809150509250929050565b6001600160a01b0391909116815260200190565b6000806040838503121561317857600080fd5b823561318381612f3e565b91506020838101356001600160401b03808211156131a057600080fd5b818601915086601f8301126131b457600080fd5b8135818111156131c6576131c6612fb3565b6131d8601f8201601f19168501612fc9565b915080825287848285010111156131ee57600080fd5b80848401858401376000848284010152508093505050509250929050565b60005b8381101561322757818101518382015260200161320f565b50506000910152565b602081526000825180602084015261324f81604085016020870161320c565b601f01601f19169190910160400192915050565b60008083601f84011261327557600080fd5b5081356001600160401b0381111561328c57600080fd5b6020830191508360208260051b85010111156132a757600080fd5b9250929050565b600080600080600080606087890312156132c757600080fd5b86356001600160401b03808211156132de57600080fd5b6132ea8a838b01613263565b9098509650602089013591508082111561330357600080fd5b61330f8a838b01613263565b9096509450604089013591508082111561332857600080fd5b5061333589828a01613263565b979a9699509497509295939492505050565b60008083601f84011261335957600080fd5b5081356001600160401b0381111561337057600080fd5b6020830191508360208285010111156132a757600080fd5b60006001600160401b038211156133a1576133a1612fb3565b5060051b60200190565b600082601f8301126133bc57600080fd5b813560206133d16133cc83613388565b612fc9565b82815260059290921b840181019181810190868411156133f057600080fd5b8286015b8481101561341457803561340781612f3e565b83529183019183016133f4565b509695505050505050565b60008060008060008060008060008060006101208c8e03121561344157600080fd5b6001600160401b03808d35111561345757600080fd5b6134648e8e358f01613347565b909c509a5060208d013581101561347a57600080fd5b61348a8e60208f01358f01613347565b909a50985060408d0135975060608d0135965060808d0135955060a08d013594506134b760c08e01612f53565b93508060e08e013511156134ca57600080fd5b506134db8d60e08e01358e016133ab565b91506134ea6101008d01612f53565b90509295989b509295989b9093969950565b6000806020838503121561350f57600080fd5b82356001600160401b0381111561352557600080fd5b61353185828601613263565b90969095509350505050565b6000806000806080858703121561355357600080fd5b843561355e81612f3e565b9350602085013561356e81612f3e565b9250604085013561357e81612f3e565b9150606085013561358e81612f3e565b939692955090935050565b6000806000604084860312156135ae57600080fd5b83356001600160401b03808211156135c557600080fd5b818601915086601f8301126135d957600080fd5b8135818111156135e857600080fd5b87602060a0830285010111156135fd57600080fd5b6020928301955093505084013561361381612f3e565b809150509250925092565b6020808252825182820181905260009190848201906040850190845b818110156136565783518352928401929184019160010161363a565b50909695505050505050565b60008082840360c081121561367657600080fd5b60a081121561368457600080fd5b50919360a08501359350915050565b600080600080604085870312156136a957600080fd5b84356001600160401b03808211156136c057600080fd5b6136cc88838901613263565b909650945060208701359150808211156136e557600080fd5b506136f287828801613263565b95989497509550505050565b600081518084526020808501945080840160005b83811015613738576137258783516130a6565b60e0969096019590820190600101613712565b509495945050505050565b6040808252835182820181905260009190606090818501906020808901865b838110156137b057815180518652838101516001600160a01b039081168588015288820151898801528782015188880152608091820151169086015260a09094019390820190600101613762565b505086830390870152506137c481876136fe565b979650505050505050565b600060208083850312156137e257600080fd5b82356001600160401b038111156137f857600080fd5b8301601f8101851361380957600080fd5b80356138176133cc82613388565b81815260a0918202830184019184820191908884111561383657600080fd5b938501935b8385101561385c5761384d8986612ff9565b8352938401939185019161383b565b50979650505050505050565b6001600160a01b03929092168252602082015260400190565b6020808252602c908201527f46756e6374696f6e206d7573742062652063616c6c6564207468726f7567682060408201526b19195b1959d85d1958d85b1b60a21b606082015260800190565b6020808252602c908201527f46756e6374696f6e206d7573742062652063616c6c6564207468726f7567682060408201526b6163746976652070726f787960a01b606082015260800190565b634e487b7160e01b600052603260045260246000fd5b634e487b7160e01b600052601160045260246000fd5b6000600182016139575761395761392f565b5060010190565b8183823760009101908152919050565b600060ff821660ff81036139845761398461392f565b60010192915050565b60006020828403121561399f57600080fd5b815180151581146118a757600080fd5b600060a082840312156139c157600080fd5b6118a78383612ff9565b96875260208701959095526001600160a01b03938416604087015260608601929092526080850152811660a08401521660c082015260e00190565b808201808211156108b0576108b061392f565b634e487b7160e01b600052600160045260246000fd5b600060208284031215613a4157600080fd5b5051919050565b6020808252602b908201527f496e697469616c697a61626c653a20636f6e7472616374206973206e6f74206960408201526a6e697469616c697a696e6760a81b606082015260800190565b818103818111156108b0576108b061392f565b76020b1b1b2b9b9a1b7b73a3937b61d1030b1b1b7bab73a1604d1b815260008351613ad881601785016020880161320c565b7001034b99036b4b9b9b4b733903937b6329607d1b6017918401918201528351613b0981602884016020880161320c565b01602801949350505050565b80820281158282048414176108b0576108b061392f565b600081613b3b57613b3b61392f565b506000190190565b60008251613b5581846020870161320c565b919091019291505056fe793a6c9b7e0a9549c74edc2f9ae0dc50903dfaa9a56fb0116b27a8c71de3e2c630d41a597cac127d8249d31298b50e481ee82c3f4a49ff93c76a22735aa9f3ad360894a13ba1a3210667c828492db98dca3e2076cc3735a920a3ca505d382bbc416464726573733a206c6f772d6c6576656c2064656c65676174652063616c6c206661696c6564c1df76f4e50bdb95676f782d4b88b23904c5346d8bc7c986ae26f7e10e601891a264697066735822122051c92042f3b73b741d3275bdce767431194c13dbef98cecf63e972bcb8a934d164736f6c63430008120033",
  "linkReferences": {},
  "deployedLinkReferences": {}
}