{
  "_format": "hh-sol-artifact-1",
  "contractName": "MulticallFacet",
  "sourceName": "contracts/facets/MulticallFacet.sol",
  "abi": [
    {
      "inputs": [],
      "name": "EmptyCallsArray",
      "type": "error"
    },
    {
      "inputs": [
        {
          "internalType": "address",
          "name": "facet",
          "type": "address"
        }
      ],
      "name": "FacetNotEnabled",
      "type": "error"
    },
    {
      "inputs": [
        {
          "internalType": "bytes4",
          "name": "selector",
          "type": "bytes4"
        }
      ],
      "name": "InvalidFunctionSelector",
      "type": "error"
    },
    {
      "inputs": [],
      "name": "ReentrancyGuardReentrantCall",
      "type": "error"
    },
    {
      "inputs": [
        {
          "internalType": "uint256",
          "name": "index",
          "type": "uint256"
        },
        {
          "internalType": "string",
          "name": "reason",
          "type": "string"
        }
      ],
      "name": "SubcallFailed",
      "type": "error"
    },
    {
      "anonymous": false,
      "inputs": [
        {
          "indexed": false,
          "internalType": "uint256",
          "name": "callCount",
          "type": "uint256"
        },
        {
          "indexed": false,
          "internalType": "bool[]",
          "name": "successes",
          "type": "bool[]"
        }
      ],
      "name": "MulticallExecuted",
      "type": "event"
    },
    {
      "anonymous": false,
      "inputs": [
        {
          "indexed": false,
          "internalType": "uint256",
          "name": "failedAtIndex",
          "type": "uint256"
        },
        {
          "indexed": false,
          "internalType": "string",
          "name": "reason",
          "type": "string"
        }
      ],
      "name": "MulticallFailed",
      "type": "event"
    },
    {
      "inputs": [
        {
          "internalType": "bytes",
          "name": "data",
          "type": "bytes"
        }
      ],
      "name": "decodeErrorString",
      "outputs": [
        {
          "internalType": "string",
          "name": "",
          "type": "string"
        }
      ],
      "stateMutability": "pure",
      "type": "function"
    },
    {
      "inputs": [
        {
          "internalType": "bytes[]",
          "name": "calls",
          "type": "bytes[]"
        }
      ],
      "name": "multicall",
      "outputs": [
        {
          "internalType": "bytes[]",
          "name": "results",
          "type": "bytes[]"
        }
      ],
      "stateMutability": "nonpayable",
      "type": "function"
    },
    {
      "inputs": [
        {
          "internalType": "uint256",
          "name": "_i",
          "type": "uint256"
        }
      ],
      "name": "uint2strTestHelper",
      "outputs": [
        {
          "internalType": "string",
          "name": "",
          "type": "string"
        }
      ],
      "stateMutability": "pure",
      "type": "function"
    }
  ],
  "bytecode": "0x6080806040523461001657610a8e908161001c8239f35b600080fdfe6080604052600436101561001257600080fd5b60003560e01c806368b9535e146107c65780638c991e77146106e25763ac9650d81461003d57600080fd5b346104fe5760203660031901126104fe576004356001600160401b0381116104fe57366023820112156104fe576001600160401b036004820135116104fe57366024826004013560051b830101116104fe576002600080516020610a1983398151915254146106d0576002600080516020610a1983398151915255600080516020610a3983398151915254600881901c6001600160a01b031661068d57610100600160a81b0319163360081b610100600160a81b031617600080516020610a398339815191525560048101351561067b5761011b8160040135610895565b906101296040519283610841565b600481013580835261013a90610895565b601f1990810160005b81811061066a5750506101598260040135610895565b906101676040519283610841565b600483013580835261017890610895565b0136602083013760005b8260040135811061029a575060405191604083019060040135835260406020840152815180915260206060840192019060005b81811061028257857ffa8d1bee18931432fe65dc78d39d84b11bb4b2a81b8570b9e610423d9be457d686860387a1610100600160a81b0319600080516020610a398339815191525416600080516020610a3983398151915255600180600080516020610a198339815191525560405190602082016020835283518091526040830190602060408260051b8601019501916000905b8282106102565785870386f35b909192936020806102728399603f198a8203018652885161081c565b9896019493919091019101610249565b825115158452602093840193909201916001016101b5565b90926102ae828460040135602486016108ac565b60048195929510610651576004116104fe576040516366ffd66360e11b815284356001600160e01b031916600482015293602085602481305afa9485156105e657600095610615575b506001600160a01b038516156105f257506040516314bbdacb60e21b815293600085600481305afa9485156105e657600095610532575b5060009460005b8151811015610525576001600160a01b03838116906103548385610903565b51161461036357600101610335565b50509093506001949291945b156105035750610387818460040135602486016108ac565b6004116104fe57356001600160e01b03191660009081527fc8fcad8db84d3cc18b4c41d551ea0ee66dd599cde068d998e57d5e09332c131d60205260409020546001600160a01b031680156104a957600080916103ec848760040135602489016108ac565b90816040519283928337810184815203915af43d156104a1573d906104108261087a565b9161041e6040519384610841565b82523d6000602084013e5b6104338385610903565b9015908115905261045e579060019161044c8287610903565b526104578186610903565b5001610182565b805190811561046c57602001fd5b60405162461bcd60e51b815260206004820152600d60248201526c18d85b1b081c995d995c9d1959609a1b6044820152606490fd5b606090610429565b60405162461bcd60e51b815260206004820152602760248201527f4d756c746963616c6c46616365743a2046756e6374696f6e20646f6573206e6f6044820152661d08195e1a5cdd60ca1b6064820152608490fd5b600080fd5b6040516320b7d8fb60e21b81526001600160a01b039091166004820152602490fd5b505090939492919461036f565b9094503d806000833e6105458183610841565b60208282810103126104fe5781516001600160401b0381116104fe57818301601f8285010112156104fe57808301519161057e83610895565b9361058c6040519586610841565b8385526020850191810160208560051b8584010101116104fe57602083820101925b60208560051b828401010184106105cb575050505050933861032e565b60208080946105d987610a04565b81520194019392506105ae565b6040513d6000823e3d90fd5b6040516310cb7cf160e21b815290356001600160e01b0319166004820152602490fd5b9094506020813d602011610649575b8161063160209383610841565b810103126104fe5761064290610a04565b93386102f7565b3d9150610624565b6040516310cb7cf160e21b815260006004820152602490fd5b806060602080938801015201610143565b60405163b3fcc8d360e01b8152600490fd5b60405162461bcd60e51b815260206004820152601b60248201527a135d5b1d1a58d85b1b08185b1c9958591e481a5b9a5d1a585d1959602a1b6044820152606490fd5b604051633ee5aeb560e01b8152600490fd5b346104fe576020806003193601126104fe57600435906001600160401b038083116104fe57366023840112156104fe5782600401356107208161087a565b9061072e6040519283610841565b8082528382019436602483830101116104fe57816000926024879301883783010152805181019383828187019603126104fe57519182116104fe570182603f820112156104fe57818101516107828161087a565b936107906040519586610841565b818552604082840101116104fe576107ae91604084860191016107f9565b6107c260405192828493845283019061081c565b0390f35b346104fe5760203660031901126104fe576107c26107e5600435610917565b60405191829160208352602083019061081c565b60005b83811061080c5750506000910152565b81810151838201526020016107fc565b90602091610835815180928185528580860191016107f9565b601f01601f1916010190565b601f909101601f19168101906001600160401b0382119082101761086457604052565b634e487b7160e01b600052604160045260246000fd5b6001600160401b03811161086457601f01601f191660200190565b6001600160401b0381116108645760051b60200190565b91908110156108ed5760051b81013590601e19813603018212156104fe5701803591906001600160401b0383116104fe5760200182360381136104fe579190565b634e487b7160e01b600052603260045260246000fd5b80518210156108ed5760209160051b010190565b80156109d657600081805b6109be57506109308161087a565b9061093e6040519283610841565b808252601f1961094d8261087a565b01366020840137915b829080156109b757600a9160309483830686018096116109a15780156109a157600019019484518610156108ed5760f81b6001600160f81b03191660001a908401601f015304610956565b634e487b7160e01b600052601160045260246000fd5b5050905090565b9060001981146109a1576001600a9101910480610922565b50604080519081016001600160401b038111828210176108645760405260018152600360fc1b602082015290565b51906001600160a01b03821682036104fe5756feebab8642b97696cc6ba8127d718ac1e84fab5919f478a311bf2bd7981646aaea2a2e13707d6b40952f0aec05e2811137753b06b56d55208636050ec9ee68dd78a264697066735822122074b47c103e034b3b3b915fec027abd2876584fce962c4c577ae57a1bba64f44b64736f6c63430008160033",
  "linkReferences": {},
  "deployedLinkReferences": {}
}