{
  "_format": "hh-sol-artifact-1",
  "contractName": "TermInitializer",
  "sourceName": "contracts/TermInitializer.sol",
  "abi": [
    {
      "inputs": [
        {
          "internalType": "address",
          "name": "initializerApprovalRole_",
          "type": "address"
        },
        {
          "internalType": "address",
          "name": "devopsWallet_",
          "type": "address"
        }
      ],
      "stateMutability": "nonpayable",
      "type": "constructor"
    },
    {
      "inputs": [],
      "name": "AccessControlBadConfirmation",
      "type": "error"
    },
    {
      "inputs": [
        {
          "internalType": "address",
          "name": "account",
          "type": "address"
        },
        {
          "internalType": "bytes32",
          "name": "neededRole",
          "type": "bytes32"
        }
      ],
      "name": "AccessControlUnauthorizedAccount",
      "type": "error"
    },
    {
      "inputs": [],
      "name": "DeployingPaused",
      "type": "error"
    },
    {
      "inputs": [],
      "name": "InvalidInitialization",
      "type": "error"
    },
    {
      "inputs": [],
      "name": "NotInitializing",
      "type": "error"
    },
    {
      "anonymous": false,
      "inputs": [
        {
          "indexed": false,
          "internalType": "uint64",
          "name": "version",
          "type": "uint64"
        }
      ],
      "name": "Initialized",
      "type": "event"
    },
    {
      "anonymous": false,
      "inputs": [
        {
          "indexed": true,
          "internalType": "bytes32",
          "name": "role",
          "type": "bytes32"
        },
        {
          "indexed": true,
          "internalType": "bytes32",
          "name": "previousAdminRole",
          "type": "bytes32"
        },
        {
          "indexed": true,
          "internalType": "bytes32",
          "name": "newAdminRole",
          "type": "bytes32"
        }
      ],
      "name": "RoleAdminChanged",
      "type": "event"
    },
    {
      "anonymous": false,
      "inputs": [
        {
          "indexed": true,
          "internalType": "bytes32",
          "name": "role",
          "type": "bytes32"
        },
        {
          "indexed": true,
          "internalType": "address",
          "name": "account",
          "type": "address"
        },
        {
          "indexed": true,
          "internalType": "address",
          "name": "sender",
          "type": "address"
        }
      ],
      "name": "RoleGranted",
      "type": "event"
    },
    {
      "anonymous": false,
      "inputs": [
        {
          "indexed": true,
          "internalType": "bytes32",
          "name": "role",
          "type": "bytes32"
        },
        {
          "indexed": true,
          "internalType": "address",
          "name": "account",
          "type": "address"
        },
        {
          "indexed": true,
          "internalType": "address",
          "name": "sender",
          "type": "address"
        }
      ],
      "name": "RoleRevoked",
      "type": "event"
    },
    {
      "inputs": [],
      "name": "DEFAULT_ADMIN_ROLE",
      "outputs": [
        {
          "internalType": "bytes32",
          "name": "",
          "type": "bytes32"
        }
      ],
      "stateMutability": "view",
      "type": "function"
    },
    {
      "inputs": [],
      "name": "DEPLOYER_ROLE",
      "outputs": [
        {
          "internalType": "bytes32",
          "name": "",
          "type": "bytes32"
        }
      ],
      "stateMutability": "view",
      "type": "function"
    },
    {
      "inputs": [],
      "name": "DEVOPS_ROLE",
      "outputs": [
        {
          "internalType": "bytes32",
          "name": "",
          "type": "bytes32"
        }
      ],
      "stateMutability": "view",
      "type": "function"
    },
    {
      "inputs": [],
      "name": "INITIALIZER_APPROVAL_ROLE",
      "outputs": [
        {
          "internalType": "bytes32",
          "name": "",
          "type": "bytes32"
        }
      ],
      "stateMutability": "view",
      "type": "function"
    },
    {
      "inputs": [
        {
          "internalType": "bytes32",
          "name": "role",
          "type": "bytes32"
        }
      ],
      "name": "getRoleAdmin",
      "outputs": [
        {
          "internalType": "bytes32",
          "name": "",
          "type": "bytes32"
        }
      ],
      "stateMutability": "view",
      "type": "function"
    },
    {
      "inputs": [
        {
          "internalType": "bytes32",
          "name": "role",
          "type": "bytes32"
        },
        {
          "internalType": "address",
          "name": "account",
          "type": "address"
        }
      ],
      "name": "grantRole",
      "outputs": [],
      "stateMutability": "nonpayable",
      "type": "function"
    },
    {
      "inputs": [
        {
          "internalType": "bytes32",
          "name": "role",
          "type": "bytes32"
        },
        {
          "internalType": "address",
          "name": "account",
          "type": "address"
        }
      ],
      "name": "hasRole",
      "outputs": [
        {
          "internalType": "bool",
          "name": "",
          "type": "bool"
        }
      ],
      "stateMutability": "view",
      "type": "function"
    },
    {
      "inputs": [
        {
          "internalType": "contract ITermController",
          "name": "controller_",
          "type": "address"
        },
        {
          "internalType": "contract ITermEventEmitter",
          "name": "emitter_",
          "type": "address"
        },
        {
          "internalType": "contract TermPriceConsumerV3",
          "name": "priceOracle_",
          "type": "address"
        },
        {
          "internalType": "address",
          "name": "termDiamond_",
          "type": "address"
        }
      ],
      "name": "pairTermContracts",
      "outputs": [],
      "stateMutability": "nonpayable",
      "type": "function"
    },
    {
      "inputs": [],
      "name": "pauseDeploying",
      "outputs": [],
      "stateMutability": "nonpayable",
      "type": "function"
    },
    {
      "inputs": [
        {
          "internalType": "bytes32",
          "name": "role",
          "type": "bytes32"
        },
        {
          "internalType": "address",
          "name": "callerConfirmation",
          "type": "address"
        }
      ],
      "name": "renounceRole",
      "outputs": [],
      "stateMutability": "nonpayable",
      "type": "function"
    },
    {
      "inputs": [
        {
          "internalType": "bytes32",
          "name": "role",
          "type": "bytes32"
        },
        {
          "internalType": "address",
          "name": "account",
          "type": "address"
        }
      ],
      "name": "revokeRole",
      "outputs": [],
      "stateMutability": "nonpayable",
      "type": "function"
    },
    {
      "inputs": [
        {
          "internalType": "contract TermRepoServicer",
          "name": "termRepoServicer",
          "type": "address"
        },
        {
          "internalType": "contract TermRepoCollateralManager",
          "name": "termRepoCollateralManager",
          "type": "address"
        },
        {
          "internalType": "contract TermAuctionOfferLocker",
          "name": "termAuctionOfferLocker",
          "type": "address"
        },
        {
          "internalType": "contract TermAuctionBidLocker",
          "name": "termAuctionBidLocker",
          "type": "address"
        },
        {
          "internalType": "contract TermAuction",
          "name": "auction",
          "type": "address"
        },
        {
          "internalType": "address",
          "name": "devOpsMultiSig",
          "type": "address"
        },
        {
          "internalType": "address",
          "name": "adminWallet",
          "type": "address"
        },
        {
          "internalType": "address",
          "name": "deployerWallet",
          "type": "address"
        },
        {
          "internalType": "string",
          "name": "auctionVersion",
          "type": "string"
        }
      ],
      "name": "setupAuction",
      "outputs": [],
      "stateMutability": "nonpayable",
      "type": "function"
    },
    {
      "inputs": [
        {
          "components": [
            {
              "internalType": "contract TermRepoLocker",
              "name": "termRepoLocker",
              "type": "address"
            },
            {
              "internalType": "contract TermRepoServicer",
              "name": "termRepoServicer",
              "type": "address"
            },
            {
              "internalType": "contract TermRepoCollateralManager",
              "name": "termRepoCollateralManager",
              "type": "address"
            },
            {
              "internalType": "contract TermRepoRolloverManager",
              "name": "rolloverManager",
              "type": "address"
            },
            {
              "internalType": "contract TermRepoToken",
              "name": "termRepoToken",
              "type": "address"
            },
            {
              "internalType": "contract TermAuctionOfferLocker",
              "name": "termAuctionOfferLocker",
              "type": "address"
            },
            {
              "internalType": "contract TermAuctionBidLocker",
              "name": "termAuctionBidLocker",
              "type": "address"
            },
            {
              "internalType": "contract TermAuction",
              "name": "auction",
              "type": "address"
            }
          ],
          "internalType": "struct TermContractGroup",
          "name": "termContractGroup",
          "type": "tuple"
        },
        {
          "internalType": "address",
          "name": "devOpsMultiSig",
          "type": "address"
        },
        {
          "internalType": "address",
          "name": "adminWallet",
          "type": "address"
        },
        {
          "internalType": "address",
          "name": "deployerWallet",
          "type": "address"
        },
        {
          "internalType": "string",
          "name": "termVersion",
          "type": "string"
        },
        {
          "internalType": "string",
          "name": "auctionVersion",
          "type": "string"
        }
      ],
      "name": "setupTerm",
      "outputs": [],
      "stateMutability": "nonpayable",
      "type": "function"
    },
    {
      "inputs": [
        {
          "internalType": "bytes4",
          "name": "interfaceId",
          "type": "bytes4"
        }
      ],
      "name": "supportsInterface",
      "outputs": [
        {
          "internalType": "bool",
          "name": "",
          "type": "bool"
        }
      ],
      "stateMutability": "view",
      "type": "function"
    },
    {
      "inputs": [],
      "name": "unpauseDeploying",
      "outputs": [],
      "stateMutability": "nonpayable",
      "type": "function"
    },
    {
      "inputs": [],
      "name": "version",
      "outputs": [
        {
          "internalType": "string",
          "name": "",
          "type": "string"
        }
      ],
      "stateMutability": "view",
      "type": "function"
    }
  ],
  "bytecode": "0x6080346200009a57601f62002c1738819003918201601f19168301916001600160401b038311848410176200009f5780849260409485528339810103126200009a5780620000696200006360206200005b6200007095620000b5565b9301620000b5565b620000ca565b506200017d565b506200007c336200022a565b506003805460ff60a01b191690556040516128ff9081620002d88239f35b600080fd5b634e487b7160e01b600052604160045260246000fd5b51906001600160a01b03821682036200009a57565b6001600160a01b031660008181527f0cfb002fcf8644f87ebf6cf6e31899c8d8e9f7c329b465b6e36989a958507e8b60205260408120549091907f793a6c9b7e0a9549c74edc2f9ae0dc50903dfaa9a56fb0116b27a8c71de3e2c69060008051602062002bf78339815191529060ff1662000177578184526020526040832082845260205260408320600160ff1982541617905560008051602062002bd7833981519152339380a4600190565b50505090565b6001600160a01b031660008181527f3ee31319d8dfab82f90bfc6f5dbbdc79e8c2155a40649617efa43c538fcedb7960205260408120549091907f6ed99f2da23f40576cbf78aa7c8ca667edae2da83ffc25cda14b3818f7b0d0849060008051602062002bf78339815191529060ff1662000177578184526020526040832082845260205260408320600160ff1982541617905560008051602062002bd7833981519152339380a4600190565b6001600160a01b031660008181527f8f7e9a8734279607aeaac474f24949ddc99eae25c0da72edcf5ad21022be2c9e60205260408120549091907ffc425f2263d0df187444b70e47283d622c70181c5baebb1306a01edba1ce184c9060008051602062002bf78339815191529060ff1662000177578184526020526040832082845260205260408320600160ff1982541617905560008051602062002bd7833981519152339380a460019056fe608080604052600436101561001357600080fd5b600090813560e01c90816301ffc9a7146120c957508063070700db14610e2d578063201a662514610e04578063248a9ca314610dca5780632f2ff15d14610d7f57806336568abe14610d3757806354fd4d5014610cbf57806391d1485414610c66578063a217fddf14610c4a578063a8f421c214610b67578063ad1083f514610b3e578063c7176de1146101a3578063d547741f14610154578063e7bd30be1461012b578063ecd00261146101025763f734b135146100d157600080fd5b346100ff57806003193601126100ff576100e96126bc565b6003805460ff60a01b1916600160a01b17905580f35b80fd5b50346100ff57806003193601126100ff57602060405160008051602061286a8339815191528152f35b50346100ff57806003193601126100ff576101446126bc565b6003805460ff60a01b1916905580f35b50346100ff5760403660031901126100ff5761019f60043561017461211e565b908084526000805160206128aa83398151915260205261019a6001604086200154612706565b6127c6565b5080f35b50346100ff576101203660031901126100ff576004356001600160a01b03811690036100ff576024356001600160a01b03811690036100ff576044356001600160a01b0381168103610b3a576064356001600160a01b0381168103610b3657608435906001600160a01b0382168203610b325760a4356001600160a01b03811690036109f55760c4356001600160a01b03811690036109f55760e435926001600160a01b03841684036109f5576001600160401b0361010435116109115736602361010435011215610911576001600160401b0360046101043501351161091157366024610104356004013561010435010111610911576102a2612672565b60ff60035460a01c16610b205784936102c56001600160a01b038216151561221b565b845460405163e7e4b8db60e01b81526001600160a01b036004803582169083015290911690602081602481855afa8015610a025761030a918891610b01575b50612294565b60405163e7e4b8db60e01b8152602480356001600160a01b03166004830152602090829081855afa8015610a0257610349918891610ae2575b506122e5565b60405163e7e4b8db60e01b81526001600160a01b0385166004820152602081602481855afa8015610a0257610385918891610ac3575b50612379565b60405163e7e4b8db60e01b81526001600160a01b0384166004820152602081602481855afa8015610a02576103c1918891610aa4575b506123cb565b60405163e7e4b8db60e01b81526001600160a01b0386166004820152602081602481855afa8015610a02576103fd918891610a85575b5061241d565b6104116001600160a01b0385161515612457565b6104256001600160a01b03841615156124ad565b6104396001600160a01b0386161515612505565b604051636d73314160e01b81526020816004816001600160a01b0389165afa908115610a02578791610a50575b5060405190633eda967160e11b82526004820152602081602481855afa8015610a025761049b918891610a21575b5015612548565b803b1561095c57604051630b3a041d60e21b81526001600160a01b03861660048201529086908290602490829084905af1908115610915578691610a0d575b50508454604051636d73314160e01b81526001600160a01b03918216916020908290600490829089165afa908115610a025787916109c8575b50813b1561094457869160248392604051948593849263708af68560e11b845260048401525af19081156109155786916109b4575b50506001546001600160a01b0316803b1561095c57604051631dc80e7160e31b81526001600160a01b03851660048201529086908290602490829084905af19081156109155786916109a0575b50506001546002546003546001600160a01b039081169281169181169086163b1561099c5787916105f360405194859384936387bee01760e01b855260c435918c60a43592602435916004359060018060a01b031660048a016125be565b0381836001600160a01b0389165af1908115610915578691610988575b50506001546001600160a01b0316803b1561095c57604051631dc80e7160e31b81526001600160a01b03841660048201529086908290602490829084905af1908115610915578691610974575b50506001546003546001600160a01b039081169181169084163b156109445760405163d77883fb60e01b8152918791839182916106b5919060c4359060a435906004803591906001600160a01b038f16908801612609565b0381836001600160a01b0388165af1908115610915578691610960575b50506001546001600160a01b0316803b1561095c57604051631dc80e7160e31b81526001600160a01b03861660048201529086908290602490829084905af1908115610915578691610948575b505060015485546001600160a01b0391821692919081169086163b1561094457604051630190a99160e51b81526004808201949094526024808201929092526001600160a01b038435811660448301528681166064830152858116608483015260a4803582169083015260c480358216908301529290921660e4830152610120610104808401919091523592830135610124830181905291928792849261014492018284013760046101043501358281018201849052601f01601f191682018290030181836001600160a01b0389165af1908115610939578591610920575b50506040519161080d83612147565b6001600160a01b03848116845281811660208501528281166040850152602435163b156109115760405185818061085263202a804560e11b9788835260048301612643565b0381836024356001600160a01b03165af19081156109155786916108fd575b50506040519361088085612147565b6001600160a01b03908116855290811660208501529081166040840152600435163b156108f9576108c09183916040519384928392835260048301612643565b0381836004356001600160a01b03165af180156108ee576108de5750f35b6108e790612134565b6100ff5780f35b6040513d84823e3d90fd5b5050fd5b61090690612134565b610911578438610871565b8480fd5b6040513d88823e3d90fd5b61092990612134565b6109345783386107fe565b505050fd5b6040513d87823e3d90fd5b8680fd5b61095190612134565b61091157843861071f565b8580fd5b61096990612134565b6109115784386106d2565b61097d90612134565b61091157843861065d565b61099190612134565b610911578438610610565b8780fd5b6109a990612134565b610911578438610595565b6109bd90612134565b610911578438610548565b9650506020863d6020116109fa575b816109e460209383612162565b810103126109f55786955138610513565b600080fd5b3d91506109d7565b6040513d89823e3d90fd5b610a1690612134565b6109115784386104da565b610a43915060203d602011610a49575b610a3b8183612162565b81019061227c565b38610494565b503d610a31565b9650506020863d602011610a7d575b81610a6c60209383612162565b810103126109f55786955138610466565b3d9150610a5f565b610a9e915060203d602011610a4957610a3b8183612162565b386103f7565b610abd915060203d602011610a4957610a3b8183612162565b386103bb565b610adc915060203d602011610a4957610a3b8183612162565b3861037f565b610afb915060203d602011610a4957610a3b8183612162565b38610343565b610b1a915060203d602011610a4957610a3b8183612162565b38610304565b604051633b335e4560e11b8152600490fd5b8380fd5b8280fd5b5080fd5b50346100ff57806003193601126100ff57602060405160008051602061288a8339815191528152f35b50346100ff5760803660031901126100ff576001600160a01b0360043581811690819003610b3657602435828116809103610b325760443590838216809203610911576064359384168094036109f5573360009081527f8f7e9a8734279607aeaac474f24949ddc99eae25c0da72edcf5ad21022be2c9e602052604090205460008051602061286a8339815191529060ff1615610c2c575060018060a01b03199283865416178555826001541617600155816002541617600255600354161760035580f35b6044906040519063e2517d3f60e01b82523360048301526024820152fd5b50346100ff57806003193601126100ff57602090604051908152f35b50346100ff5760403660031901126100ff576040610c8261211e565b9160043581526000805160206128aa833981519152602052209060018060a01b0316600052602052602060ff604060002054166040519015158152f35b50346100ff57806003193601126100ff5760408051908101906001600160401b03821181831017610d2157610d1d91604052600b81526a19195d995b1bdc1b595b9d60aa1b60208201526040519182916020835260208301906121db565b0390f35b634e487b7160e01b600052604160045260246000fd5b50346100ff5760403660031901126100ff57610d5161211e565b336001600160a01b03821603610d6d5761019f906004356127c6565b60405163334bd91960e11b8152600490fd5b50346100ff5760403660031901126100ff5761019f600435610d9f61211e565b908084526000805160206128aa833981519152602052610dc56001604086200154612706565b612739565b50346100ff5760203660031901126100ff576001604060209260043581526000805160206128aa8339815191528452200154604051908152f35b50346100ff57806003193601126100ff57602060405160008051602061284a8339815191528152f35b50346100ff5736600319016101a08112610b3a57610100136100ff57610104356001600160a01b03811690036100ff57610124356001600160a01b03811690036100ff57610144356001600160a01b0381168103610b3a576001600160401b0361016435818111610b3257610ea6903690600401612185565b9061018435908111610b3257610ec0903690600401612185565b91610ec9612672565b60ff60035460a01c16610b2057610eea6001600160a01b038216151561221b565b83546001600160a01b039081169390610f01612266565b60405163e7e4b8db60e01b815291166004820152602081602481885afa801561091557610f34918791610b015750612294565b6001600160a01b03610f446122cf565b60405163e7e4b8db60e01b815291166004820152602081602481885afa801561091557610f77918791610ae257506122e5565b6001600160a01b03610f87612321565b60405163e7e4b8db60e01b815291166004820152602081602481885afa9081156109155786916120aa575b5015612076576001600160a01b03610fc8612337565b60405163e7e4b8db60e01b815291166004820152602081602481885afa908115610915578691612057575b5015612023576001600160a01b0361100961234d565b60405163e7e4b8db60e01b815291166004820152602081602481885afa908115610915578691612004575b5015611fd0576001600160a01b0361104a612363565b60405163e7e4b8db60e01b815291166004820152602081602481885afa80156109155761107d918791610ac35750612379565b6001600160a01b0361108d6123b5565b60405163e7e4b8db60e01b815291166004820152602081602481885afa8015610915576110c0918791610aa457506123cb565b6001600160a01b036110d0612407565b60405163e7e4b8db60e01b815291166004820152602081602481885afa801561091557611103918791610a85575061241d565b6001600160a01b03611113612266565b1615611f93576001600160a01b036111296122cf565b1615611f4e576001600160a01b0361113f612321565b1615611f13576001600160a01b03611155612337565b1615611ed5576001600160a01b0361116b61234d565b1615611e915761118c6001600160a01b03611184612363565b161515612457565b6111a76001600160a01b0361119f6123b5565b1615156124ad565b6111c26001600160a01b036111ba612407565b161515612505565b600460206001600160a01b036111d6612266565b166040519283809263662db72560e11b82525afa908115610915578691611e5f575b5060405190632fa27d5960e11b82526004820152602081602481885afa908115610915578691611e40575b50611e07578493600460206001600160a01b0361123e612363565b1660405192838092636d73314160e01b82525afa8015610915578690611dd4575b60209150602460405180948193633eda967160e11b835260048301525afa801561093957611294918691610a21575015612548565b6001546001600160a01b03908116906112ab612321565b1690803b1561095c57602486926040519889938492631dc80e7160e31b845260048401525af18015611c5757611dc0575b835493945084936001600160a01b03908116906112f7612407565b16813b1561095c578591602483926040519485938492630b3a041d60e21b845260048401525af1908115610939578591611dac575b505083546001600160a01b039081169060049060209061134a612266565b166040519283809263662db72560e11b82525afa908115610915578691611d77575b50813b1561095c57859160248392604051948593849263214f795960e21b845260048401525af1908115610939578591611d63575b505083546001600160a01b03908116906004906020906113bf612363565b1660405192838092636d73314160e01b82525afa908115610915578691611d2e575b50813b1561095c57859160248392604051948593849263708af68560e11b845260048401525af1908115610939578591611d1a575b506001600160a01b039050611429612321565b166001600160a01b0361143a6122cf565b16906001600160a01b0361144c612266565b6001546001600160a01b031692911690803b1561099c576114919388809460405196879586948593631e442d1960e21b8552610124359261010435926004870161258b565b03925af1908115610939578591611d06575b50506001546001600160a01b03908116906114bc612337565b16813b1561095c578591602483926040519485938492631dc80e7160e31b845260048401525af1908115610939578591611cf2575b506001600160a01b039050611504612337565b166001600160a01b03611515612266565b6001549116906001600160a01b0316823b156109445760405163547a10e160e11b8152600481019290925260248201526001600160a01b036101043581166044830152610124351660648201529085908290608490829084905af1908115610939578591611cde575b50506001546001600160a01b0390811690611597612363565b16813b1561095c578591602483926040519485938492631dc80e7160e31b845260048401525af1908115610939578591611cca575b506001600160a01b0390506115df612363565b166001600160a01b036115f0612407565b16906115fa612266565b9060018060a01b03600154169061160f6122cf565b6002546003546001600160a01b0391821694911690833b15611c3f5761165a8b96928793604051998a98899788966387bee01760e01b88526101243594610104359460048a016125be565b03925af1908115610939578591611cb6575b50506001546001600160a01b03908116906116856123b5565b16813b1561095c578591602483926040519485938492631dc80e7160e31b845260048401525af1908115610939578591611ca2575b506001600160a01b0390506116cd6123b5565b166001600160a01b036116de612407565b600154911691906001600160a01b03166116f6612266565b6003546001600160a01b031693909290813b15611c9e5788809461173a6040519788968795869463d77883fb60e01b86526101243592610104359260048801612609565b03925af1908115610939578591611c8a575b50506001546001600160a01b0390811690611765612407565b16813b1561095c578591602483926040519485938492631dc80e7160e31b845260048401525af1908115610939578591611c76575b506001600160a01b0390506117ad612407565b60015486546001600160a01b0391821693911691166117ca612266565b916117d3612363565b946117dc6123b5565b94833b15611c1357604051630190a99160e51b8152600481019190915260248101929092526001600160a01b039384166044830152948316606482015292821660848401526101048035831660a48501526101248035841660c486015292861660e485015261012090840152919286928492909183918591839161186391908301906121db565b03925af1908115611c57578491611c62575b50506001546001600160a01b039081169061188e612266565b16813b15610911578491602483926040519485938492631dc80e7160e31b845260048401525af1908115611c57578491611c43575b506001600160a01b0390506118d6612266565b16916001600160a01b036118e8612321565b16926001600160a01b036118fa6122cf565b166001600160a01b0361190b612337565b6003546001600160a01b03908116979190921694916119286123b5565b166001600160a01b03611939612407565b16926001600160a01b0361194b61234d565b1697863b15611c3f578a9889956119c6946040519c8d9b8c9a8b9963733815a760e11b8b5260048b015260248a015260448901526064880152608487015260a486015260c485015260018060a01b03610104351660e485015260018060a01b03166101048401526101406101248401526101448301906121db565b03925af180156108ee57611c2b575b506001546001600160a01b03908116906119ed6122cf565b16813b156108f9578291602483926040519485938492631dc80e7160e31b845260048401525af180156108ee57611c17575b506001600160a01b03611a306122cf565b166001600160a01b03611a41612321565b16906001600160a01b03611a53612266565b166001600160a01b03611a64612363565b16926001600160a01b03611a76612407565b86546002546001600160a01b0390811696918116949390921691611a9861234d565b6003546001600160a01b03169116823b15611c135789976101449689956040519b8c9a8b9963929d5ba560e01b8b5260048b015260248a015260448901526064880152608487015260a486015260c485015260e484015260018060a01b03610104351661010484015260018060a01b0361012435166101248401525af180156108ee57611bff575b506001546001600160a01b0390811690611b3861234d565b16813b156108f9578291602483926040519485938492631dc80e7160e31b845260048401525af180156108ee57611beb575b506001600160a01b03611b7b61234d565b166001600160a01b03611b8c612266565b169060018060a01b036003541660018060a01b036001541691803b1561091157611bda9385809460405196879586948593631e442d1960e21b8552610124359261010435926004870161258b565b03925af180156108ee576108de5750f35b611bf490612134565b6100ff578038611b6a565b611c0890612134565b6100ff578038611b20565b8980fd5b611c2090612134565b6100ff578038611a1f565b611c3490612134565b6100ff5780386119d5565b8a80fd5b611c4c90612134565b6108f95782386118c3565b6040513d86823e3d90fd5b611c6b90612134565b6108f9578238611875565b611c7f90612134565b61093457833861179a565b611c9390612134565b61093457833861174c565b8880fd5b611cab90612134565b6109345783386116ba565b611cbf90612134565b61093457833861166c565b611cd390612134565b6109345783386115cc565b611ce790612134565b61093457833861157e565b611cfb90612134565b6109345783386114f1565b611d0f90612134565b6109345783386114a3565b611d2390612134565b610934578338611416565b9550506020853d602011611d5b575b81611d4a60209383612162565b810103126109f557859451386113e1565b3d9150611d3d565b611d6c90612134565b6109345783386113a1565b9550506020853d602011611da4575b81611d9360209383612162565b810103126109f5578594513861136c565b3d9150611d86565b611db590612134565b61093457833861132c565b929093611dcc90612134565b9183906112dc565b506020813d602011611dff575b81611dee60209383612162565b8101031261095c576020905161125f565b3d9150611de1565b60405162461bcd60e51b8152602060048201526011602482015270111d5c1b1a58d85d194814995c1bc81251607a1b6044820152606490fd5b611e59915060203d602011610a4957610a3b8183612162565b38611223565b90506020813d602011611e89575b81611e7a60209383612162565b8101031261095c5751386111f8565b3d9150611e6d565b60405162461bcd60e51b815260206004820152601c60248201527b2d32b9379020b2323932b9b9902937b63637bb32b926b0b730b3b2b960211b6044820152606490fd5b60405162461bcd60e51b81526020600482015260166024820152752d32b9379020b2323932b9b9902932b837aa37b5b2b760511b6044820152606490fd5b60405162461bcd60e51b81526020600482015260136024820152722d32b9379020b2323932b9b9902637b1b5b2b960691b6044820152606490fd5b60405162461bcd60e51b815260206004820152601f60248201527f5a65726f204164647265737320436f6c6c61746572616c204d616e61676572006044820152606490fd5b60405162461bcd60e51b81526020600482015260156024820152742d32b9379020b2323932b9b99029b2b93b34b1b2b960591b6044820152606490fd5b60405162461bcd60e51b815260206004820152600c60248201526b4e6f6e2d5465726d2054524d60a01b6044820152606490fd5b61201d915060203d602011610a4957610a3b8183612162565b38611034565b60405162461bcd60e51b815260206004820152600c60248201526b139bdb8b55195c9b4815149560a21b6044820152606490fd5b612070915060203d602011610a4957610a3b8183612162565b38610ff3565b60405162461bcd60e51b815260206004820152600c60248201526b139bdb8b55195c9b4815149360a21b6044820152606490fd5b6120c3915060203d602011610a4957610a3b8183612162565b38610fb2565b905034610b3a576020366003190112610b3a5760043563ffffffff60e01b8116809103610b365760209250637965db0b60e01b811490811561210d575b5015158152f35b6301ffc9a760e01b14905038612106565b602435906001600160a01b03821682036109f557565b6001600160401b038111610d2157604052565b606081019081106001600160401b03821117610d2157604052565b601f909101601f19168101906001600160401b03821190821017610d2157604052565b81601f820112156109f5578035906001600160401b038211610d2157604051926121b9601f8401601f191660200185612162565b828452602083830101116109f557816000926020809301838601378301015290565b919082519283825260005b848110612207575050826000602080949584010152601f8019910116010190565b6020818301810151848301820152016121e6565b1561222257565b60405162461bcd60e51b815260206004820152601c60248201527b16995c9bc81859191c995cdcc819195c1b1bde595c881dd85b1b195d60221b6044820152606490fd5b6024356001600160a01b03811681036109f55790565b908160209103126109f5575180151581036109f55790565b1561229b57565b60405162461bcd60e51b815260206004820152600c60248201526b4e6f6e2d5465726d2054525360a01b6044820152606490fd5b6044356001600160a01b03811681036109f55790565b156122ec57565b60405162461bcd60e51b815260206004820152600d60248201526c4e6f6e2d5465726d205452434d60981b6044820152606490fd5b6004356001600160a01b03811681036109f55790565b6084356001600160a01b03811681036109f55790565b6064356001600160a01b03811681036109f55790565b60c4356001600160a01b03811681036109f55790565b1561238057565b60405162461bcd60e51b815260206004820152600d60248201526c139bdb8b55195c9b4815105093609a1b6044820152606490fd5b60a4356001600160a01b03811681036109f55790565b156123d257565b60405162461bcd60e51b815260206004820152600d60248201526c139bdb8b55195c9b48151053d3609a1b6044820152606490fd5b60e4356001600160a01b03811681036109f55790565b1561242457565b60405162461bcd60e51b815260206004820152600b60248201526a4e6f6e2d5465726d20544160a81b6044820152606490fd5b1561245e57565b60405162461bcd60e51b815260206004820152602160248201527f5a65726f2041646472657373207465726d41756374696f6e4269644c6f636b656044820152603960f91b6064820152608490fd5b156124b457565b60405162461bcd60e51b815260206004820152602360248201527f5a65726f2041646472657373207465726d41756374696f6e4f666665724c6f6360448201526235b2b960e91b6064820152608490fd5b1561250c57565b60405162461bcd60e51b81526020600482015260146024820152732d32b9379020b2323932b9b99030bab1ba34b7b760611b6044820152606490fd5b1561254f57565b60405162461bcd60e51b8152602060048201526014602482015273111d5c1b1a58d85d1948105d58dd1a5bdb88125160621b6044820152606490fd5b6001600160a01b039182168152918116602083015291821660408201529181166060830152909116608082015260a00190565b6001600160a01b039182168152918116602083015291821660408201529181166060830152918216608082015291811660a083015291821660c0820152911660e08201526101000190565b6001600160a01b0391821681529181166020830152918216604082015291811660608301529182166080820152911660a082015260c00190565b81516001600160a01b039081168252602080840151821690830152604092830151169181019190915260600190565b3360009081527f3ee31319d8dfab82f90bfc6f5dbbdc79e8c2155a40649617efa43c538fcedb79602052604090205460008051602061288a8339815191529060ff1615610c2c5750565b3360009081527f0cfb002fcf8644f87ebf6cf6e31899c8d8e9f7c329b465b6e36989a958507e8b602052604090205460008051602061284a8339815191529060ff1615610c2c5750565b806000526000805160206128aa83398151915260205260406000203360005260205260ff6040600020541615610c2c5750565b906000918083526000805160206128aa83398151915280602052604084209260018060a01b03169283855260205260ff604085205416156000146127c0578184526020526040832082845260205260408320600160ff198254161790557f2f8788117e7eff1d82e926ec794901d17c78024a50270940304540a733656f0d339380a4600190565b50505090565b906000918083526000805160206128aa83398151915280602052604084209260018060a01b03169283855260205260ff6040852054166000146127c057818452602052604083208284526020526040832060ff1981541690557ff6391f5c32d9c69d2a47ea670b442974b53935d1edc7fd64eb21e047a839171b339380a460019056fe793a6c9b7e0a9549c74edc2f9ae0dc50903dfaa9a56fb0116b27a8c71de3e2c6fc425f2263d0df187444b70e47283d622c70181c5baebb1306a01edba1ce184c6ed99f2da23f40576cbf78aa7c8ca667edae2da83ffc25cda14b3818f7b0d08402dd7bc7dec4dceedda775e58dd541e08a116c6c53815c0bd028192f7b626800a2646970667358221220da9cf1a5e570a58818190ca55e658e3af2f0e1e350bad1219d361d33a86ada0464736f6c634300081600332f8788117e7eff1d82e926ec794901d17c78024a50270940304540a733656f0d02dd7bc7dec4dceedda775e58dd541e08a116c6c53815c0bd028192f7b626800",
  "linkReferences": {},
  "deployedLinkReferences": {}
}