{
  "_format": "hh-sol-artifact-1",
  "contractName": "TermInitializer",
  "sourceName": "contracts/TermInitializer.sol",
  "abi": [
    {
      "inputs": [
        {
          "internalType": "address",
          "name": "initializerApprovalRole_",
          "type": "address"
        },
        {
          "internalType": "address",
          "name": "devopsWallet_",
          "type": "address"
        }
      ],
      "stateMutability": "nonpayable",
      "type": "constructor"
    },
    {
      "inputs": [],
      "name": "DeployingPaused",
      "type": "error"
    },
    {
      "anonymous": false,
      "inputs": [
        {
          "indexed": false,
          "internalType": "uint8",
          "name": "version",
          "type": "uint8"
        }
      ],
      "name": "Initialized",
      "type": "event"
    },
    {
      "anonymous": false,
      "inputs": [
        {
          "indexed": true,
          "internalType": "bytes32",
          "name": "role",
          "type": "bytes32"
        },
        {
          "indexed": true,
          "internalType": "bytes32",
          "name": "previousAdminRole",
          "type": "bytes32"
        },
        {
          "indexed": true,
          "internalType": "bytes32",
          "name": "newAdminRole",
          "type": "bytes32"
        }
      ],
      "name": "RoleAdminChanged",
      "type": "event"
    },
    {
      "anonymous": false,
      "inputs": [
        {
          "indexed": true,
          "internalType": "bytes32",
          "name": "role",
          "type": "bytes32"
        },
        {
          "indexed": true,
          "internalType": "address",
          "name": "account",
          "type": "address"
        },
        {
          "indexed": true,
          "internalType": "address",
          "name": "sender",
          "type": "address"
        }
      ],
      "name": "RoleGranted",
      "type": "event"
    },
    {
      "anonymous": false,
      "inputs": [
        {
          "indexed": true,
          "internalType": "bytes32",
          "name": "role",
          "type": "bytes32"
        },
        {
          "indexed": true,
          "internalType": "address",
          "name": "account",
          "type": "address"
        },
        {
          "indexed": true,
          "internalType": "address",
          "name": "sender",
          "type": "address"
        }
      ],
      "name": "RoleRevoked",
      "type": "event"
    },
    {
      "inputs": [],
      "name": "DEFAULT_ADMIN_ROLE",
      "outputs": [
        {
          "internalType": "bytes32",
          "name": "",
          "type": "bytes32"
        }
      ],
      "stateMutability": "view",
      "type": "function"
    },
    {
      "inputs": [],
      "name": "DEPLOYER_ROLE",
      "outputs": [
        {
          "internalType": "bytes32",
          "name": "",
          "type": "bytes32"
        }
      ],
      "stateMutability": "view",
      "type": "function"
    },
    {
      "inputs": [],
      "name": "DEVOPS_ROLE",
      "outputs": [
        {
          "internalType": "bytes32",
          "name": "",
          "type": "bytes32"
        }
      ],
      "stateMutability": "view",
      "type": "function"
    },
    {
      "inputs": [],
      "name": "INITIALIZER_APPROVAL_ROLE",
      "outputs": [
        {
          "internalType": "bytes32",
          "name": "",
          "type": "bytes32"
        }
      ],
      "stateMutability": "view",
      "type": "function"
    },
    {
      "inputs": [
        {
          "internalType": "bytes32",
          "name": "role",
          "type": "bytes32"
        }
      ],
      "name": "getRoleAdmin",
      "outputs": [
        {
          "internalType": "bytes32",
          "name": "",
          "type": "bytes32"
        }
      ],
      "stateMutability": "view",
      "type": "function"
    },
    {
      "inputs": [
        {
          "internalType": "bytes32",
          "name": "role",
          "type": "bytes32"
        },
        {
          "internalType": "address",
          "name": "account",
          "type": "address"
        }
      ],
      "name": "grantRole",
      "outputs": [],
      "stateMutability": "nonpayable",
      "type": "function"
    },
    {
      "inputs": [
        {
          "internalType": "bytes32",
          "name": "role",
          "type": "bytes32"
        },
        {
          "internalType": "address",
          "name": "account",
          "type": "address"
        }
      ],
      "name": "hasRole",
      "outputs": [
        {
          "internalType": "bool",
          "name": "",
          "type": "bool"
        }
      ],
      "stateMutability": "view",
      "type": "function"
    },
    {
      "inputs": [
        {
          "internalType": "contract ITermController",
          "name": "controller_",
          "type": "address"
        },
        {
          "internalType": "contract ITermEventEmitter",
          "name": "emitter_",
          "type": "address"
        },
        {
          "internalType": "contract TermPriceConsumerV3",
          "name": "priceOracle_",
          "type": "address"
        }
      ],
      "name": "pairTermContracts",
      "outputs": [],
      "stateMutability": "nonpayable",
      "type": "function"
    },
    {
      "inputs": [],
      "name": "pauseDeploying",
      "outputs": [],
      "stateMutability": "nonpayable",
      "type": "function"
    },
    {
      "inputs": [
        {
          "internalType": "bytes32",
          "name": "role",
          "type": "bytes32"
        },
        {
          "internalType": "address",
          "name": "account",
          "type": "address"
        }
      ],
      "name": "renounceRole",
      "outputs": [],
      "stateMutability": "nonpayable",
      "type": "function"
    },
    {
      "inputs": [
        {
          "internalType": "bytes32",
          "name": "role",
          "type": "bytes32"
        },
        {
          "internalType": "address",
          "name": "account",
          "type": "address"
        }
      ],
      "name": "revokeRole",
      "outputs": [],
      "stateMutability": "nonpayable",
      "type": "function"
    },
    {
      "inputs": [
        {
          "internalType": "contract TermRepoServicer",
          "name": "termRepoServicer",
          "type": "address"
        },
        {
          "internalType": "contract TermRepoCollateralManager",
          "name": "termRepoCollateralManager",
          "type": "address"
        },
        {
          "internalType": "contract TermAuctionOfferLocker",
          "name": "termAuctionOfferLocker",
          "type": "address"
        },
        {
          "internalType": "contract TermAuctionBidLocker",
          "name": "termAuctionBidLocker",
          "type": "address"
        },
        {
          "internalType": "contract TermAuction",
          "name": "auction",
          "type": "address"
        },
        {
          "internalType": "address",
          "name": "devOpsMultiSig",
          "type": "address"
        },
        {
          "internalType": "address",
          "name": "adminWallet",
          "type": "address"
        },
        {
          "internalType": "string",
          "name": "auctionVersion",
          "type": "string"
        }
      ],
      "name": "setupAuction",
      "outputs": [],
      "stateMutability": "nonpayable",
      "type": "function"
    },
    {
      "inputs": [
        {
          "components": [
            {
              "internalType": "contract TermRepoLocker",
              "name": "termRepoLocker",
              "type": "address"
            },
            {
              "internalType": "contract TermRepoServicer",
              "name": "termRepoServicer",
              "type": "address"
            },
            {
              "internalType": "contract TermRepoCollateralManager",
              "name": "termRepoCollateralManager",
              "type": "address"
            },
            {
              "internalType": "contract TermRepoRolloverManager",
              "name": "rolloverManager",
              "type": "address"
            },
            {
              "internalType": "contract TermRepoToken",
              "name": "termRepoToken",
              "type": "address"
            },
            {
              "internalType": "contract TermAuctionOfferLocker",
              "name": "termAuctionOfferLocker",
              "type": "address"
            },
            {
              "internalType": "contract TermAuctionBidLocker",
              "name": "termAuctionBidLocker",
              "type": "address"
            },
            {
              "internalType": "contract TermAuction",
              "name": "auction",
              "type": "address"
            }
          ],
          "internalType": "struct TermContractGroup",
          "name": "termContractGroup",
          "type": "tuple"
        },
        {
          "internalType": "address",
          "name": "devOpsMultiSig",
          "type": "address"
        },
        {
          "internalType": "address",
          "name": "adminWallet",
          "type": "address"
        },
        {
          "internalType": "string",
          "name": "termVersion",
          "type": "string"
        },
        {
          "internalType": "string",
          "name": "auctionVersion",
          "type": "string"
        }
      ],
      "name": "setupTerm",
      "outputs": [],
      "stateMutability": "nonpayable",
      "type": "function"
    },
    {
      "inputs": [
        {
          "internalType": "bytes4",
          "name": "interfaceId",
          "type": "bytes4"
        }
      ],
      "name": "supportsInterface",
      "outputs": [
        {
          "internalType": "bool",
          "name": "",
          "type": "bool"
        }
      ],
      "stateMutability": "view",
      "type": "function"
    },
    {
      "inputs": [],
      "name": "unpauseDeploying",
      "outputs": [],
      "stateMutability": "nonpayable",
      "type": "function"
    },
    {
      "inputs": [],
      "name": "version",
      "outputs": [
        {
          "internalType": "string",
          "name": "",
          "type": "string"
        }
      ],
      "stateMutability": "view",
      "type": "function"
    }
  ],
  "bytecode": "0x60806040523480156200001157600080fd5b506040516200267e3803806200267e83398101604081905262000034916200018f565b620000607f793a6c9b7e0a9549c74edc2f9ae0dc50903dfaa9a56fb0116b27a8c71de3e2c682620000cd565b6200008c7f6ed99f2da23f40576cbf78aa7c8ca667edae2da83ffc25cda14b3818f7b0d08483620000cd565b620000b87ffc425f2263d0df187444b70e47283d622c70181c5baebb1306a01edba1ce184c33620000cd565b50506099805460ff60a01b19169055620001c7565b60008281526065602090815260408083206001600160a01b038516845290915290205460ff166200016e5760008281526065602090815260408083206001600160a01b03851684529091529020805460ff191660011790556200012d3390565b6001600160a01b0316816001600160a01b0316837f2f8788117e7eff1d82e926ec794901d17c78024a50270940304540a733656f0d60405160405180910390a45b5050565b80516001600160a01b03811681146200018a57600080fd5b919050565b60008060408385031215620001a357600080fd5b620001ae8362000172565b9150620001be6020840162000172565b90509250929050565b6124a780620001d76000396000f3fe608060405234801561001057600080fd5b50600436106100e05760003560e01c806391d148541161008757806391d14854146101ce578063a217fddf146101e1578063acdaa72b146101e9578063ad1083f5146101fc578063d547741f14610211578063e7bd30be14610224578063ecd002611461022c578063f734b1351461025357600080fd5b806301ffc9a7146100e5578063159cce5f1461010d578063201a662514610122578063248a9ca3146101455780632f2ff15d1461016857806336568abe1461017b57806354fd4d501461018e57806374d425f7146101bb575b600080fd5b6100f86100f3366004611ccc565b61025b565b60405190151581526020015b60405180910390f35b61012061011b366004611d0b565b610292565b005b61013760008051602061243283398151915281565b604051908152602001610104565b610137610153366004611d56565b60009081526065602052604090206001015490565b610120610176366004611d6f565b6102fc565b610120610189366004611d6f565b610326565b604080518082018252600b81526a19195d995b1bdc1b595b9d60aa1b602082015290516101049190611def565b6101206101c9366004611ea4565b6103a9565b6100f86101dc366004611d6f565b611286565b610137600081565b6101206101f7366004611f4a565b6112b1565b61013760008051602061245283398151915281565b61012061021f366004611d6f565b61194a565b61012061196f565b6101377ffc425f2263d0df187444b70e47283d622c70181c5baebb1306a01edba1ce184c81565b610120611997565b60006001600160e01b03198216637965db0b60e01b148061028c57506301ffc9a760e01b6001600160e01b03198316145b92915050565b7ffc425f2263d0df187444b70e47283d622c70181c5baebb1306a01edba1ce184c6102bc816119c5565b50609780546001600160a01b039485166001600160a01b031991821617909155609880549385169382169390931790925560998054919093169116179055565b600082815260656020526040902060010154610317816119c5565b61032183836119d2565b505050565b6001600160a01b038116331461039b5760405162461bcd60e51b815260206004820152602f60248201527f416363657373436f6e74726f6c3a2063616e206f6e6c792072656e6f756e636560448201526e103937b632b9903337b91039b2b63360891b60648201526084015b60405180910390fd5b6103a58282611a58565b5050565b6000805160206124528339815191526103c1816119c5565b609954600160a01b900460ff16156103ec57604051633b335e4560e11b815260040160405180910390fd5b6097546001600160a01b031663e7e4b8db61040d6040890160208a0161203e565b6040518263ffffffff1660e01b8152600401610429919061205b565b602060405180830381865afa158015610446573d6000803e3d6000fd5b505050506040513d601f19601f8201168201806040525081019061046a919061206f565b6104865760405162461bcd60e51b815260040161039290612091565b6097546001600160a01b031663e7e4b8db6104a76060890160408a0161203e565b6040518263ffffffff1660e01b81526004016104c3919061205b565b602060405180830381865afa1580156104e0573d6000803e3d6000fd5b505050506040513d601f19601f82011682018060405250810190610504919061206f565b6105205760405162461bcd60e51b8152600401610392906120b7565b6097546001600160a01b031663e7e4b8db61053e602089018961203e565b6040518263ffffffff1660e01b815260040161055a919061205b565b602060405180830381865afa158015610577573d6000803e3d6000fd5b505050506040513d601f19601f8201168201806040525081019061059b919061206f565b6105d65760405162461bcd60e51b815260206004820152600c60248201526b139bdb8b55195c9b4815149360a21b6044820152606401610392565b6097546001600160a01b031663e7e4b8db6105f760a0890160808a0161203e565b6040518263ffffffff1660e01b8152600401610613919061205b565b602060405180830381865afa158015610630573d6000803e3d6000fd5b505050506040513d601f19601f82011682018060405250810190610654919061206f565b61068f5760405162461bcd60e51b815260206004820152600c60248201526b139bdb8b55195c9b4815149560a21b6044820152606401610392565b6097546001600160a01b031663e7e4b8db6106b06080890160608a0161203e565b6040518263ffffffff1660e01b81526004016106cc919061205b565b602060405180830381865afa1580156106e9573d6000803e3d6000fd5b505050506040513d601f19601f8201168201806040525081019061070d919061206f565b6107485760405162461bcd60e51b815260206004820152600c60248201526b4e6f6e2d5465726d2054524d60a01b6044820152606401610392565b6097546001600160a01b031663e7e4b8db61076960e0890160c08a0161203e565b6040518263ffffffff1660e01b8152600401610785919061205b565b602060405180830381865afa1580156107a2573d6000803e3d6000fd5b505050506040513d601f19601f820116820180604052508101906107c6919061206f565b6107e25760405162461bcd60e51b8152600401610392906120de565b6097546001600160a01b031663e7e4b8db61080360c0890160a08a0161203e565b6040518263ffffffff1660e01b815260040161081f919061205b565b602060405180830381865afa15801561083c573d6000803e3d6000fd5b505050506040513d601f19601f82011682018060405250810190610860919061206f565b61087c5760405162461bcd60e51b815260040161039290612105565b6097546001600160a01b031663e7e4b8db61089e610100890160e08a0161203e565b6040518263ffffffff1660e01b81526004016108ba919061205b565b602060405180830381865afa1580156108d7573d6000803e3d6000fd5b505050506040513d601f19601f820116820180604052508101906108fb919061206f565b6109175760405162461bcd60e51b81526004016103929061212c565b6098546001600160a01b031663ee407388610935602089018961203e565b6040518263ffffffff1660e01b8152600401610951919061205b565b600060405180830381600087803b15801561096b57600080fd5b505af115801561097f573d6000803e3d6000fd5b5061099192505050602087018761203e565b6001600160a01b0316637910b4646109af6060890160408a0161203e565b6109bf60408a0160208b0161203e565b6098546040516001600160e01b031960e086901b1681526109f29392916001600160a01b0316908b908b90600401612151565b600060405180830381600087803b158015610a0c57600080fd5b505af1158015610a20573d6000803e3d6000fd5b50506098546001600160a01b0316915063ee4073889050610a4760a0890160808a0161203e565b6040518263ffffffff1660e01b8152600401610a63919061205b565b600060405180830381600087803b158015610a7d57600080fd5b505af1158015610a91573d6000803e3d6000fd5b50610aa69250505060a087016080880161203e565b6001600160a01b031663a8f421c2610ac46040890160208a0161203e565b6098546040516001600160e01b031960e085901b168152610af692916001600160a01b0316908a908a90600401612183565b600060405180830381600087803b158015610b1057600080fd5b505af1158015610b24573d6000803e3d6000fd5b50506098546001600160a01b0316915063ee4073889050610b4b60e0890160c08a0161203e565b6040518263ffffffff1660e01b8152600401610b67919061205b565b600060405180830381600087803b158015610b8157600080fd5b505af1158015610b95573d6000803e3d6000fd5b50610baa9250505060e0870160c0880161203e565b6001600160a01b031663cdae1ee0610bc9610100890160e08a0161203e565b610bd960408a0160208b0161203e565b6098546001600160a01b0316610bf560608c0160408d0161203e565b6099546040516001600160e01b031960e088901b168152610c2a95949392916001600160a01b0316908d908d906004016121ae565b600060405180830381600087803b158015610c4457600080fd5b505af1158015610c58573d6000803e3d6000fd5b50506098546001600160a01b0316915063ee4073889050610c7f60c0890160a08a0161203e565b6040518263ffffffff1660e01b8152600401610c9b919061205b565b600060405180830381600087803b158015610cb557600080fd5b505af1158015610cc9573d6000803e3d6000fd5b50610cde9250505060c0870160a0880161203e565b6001600160a01b0316637910b464610cfd610100890160e08a0161203e565b6098546001600160a01b0316610d1960408b0160208c0161203e565b89896040518663ffffffff1660e01b8152600401610d3b959493929190612151565b600060405180830381600087803b158015610d5557600080fd5b505af1158015610d69573d6000803e3d6000fd5b50506098546001600160a01b0316915063ee4073889050610d91610100890160e08a0161203e565b6040518263ffffffff1660e01b8152600401610dad919061205b565b600060405180830381600087803b158015610dc757600080fd5b505af1158015610ddb573d6000803e3d6000fd5b50610df192505050610100870160e0880161203e565b6098546001600160a01b039182169163b29489769116610e1760408a0160208b0161203e565b610e2760e08b0160c08c0161203e565b610e3760c08c0160a08d0161203e565b8a8a896040518863ffffffff1660e01b8152600401610e5c97969594939291906121ef565b600060405180830381600087803b158015610e7657600080fd5b505af1158015610e8a573d6000803e3d6000fd5b50506098546001600160a01b0316915063ee4073889050610eb16040890160208a0161203e565b6040518263ffffffff1660e01b8152600401610ecd919061205b565b600060405180830381600087803b158015610ee757600080fd5b505af1158015610efb573d6000803e3d6000fd5b50610f1092505050604087016020880161203e565b6001600160a01b03166332153220610f2b602089018961203e565b610f3b60608a0160408b0161203e565b610f4b60a08b0160808c0161203e565b610f5b60c08c0160a08d0161203e565b610f6c6101008d0160e08e0161203e565b610f7c60808e0160608f0161203e565b8c8c8c6040518a63ffffffff1660e01b8152600401610fa399989796959493929190612248565b600060405180830381600087803b158015610fbd57600080fd5b505af1158015610fd1573d6000803e3d6000fd5b50506098546001600160a01b0316915063ee4073889050610ff86060890160408a0161203e565b6040518263ffffffff1660e01b8152600401611014919061205b565b600060405180830381600087803b15801561102e57600080fd5b505af1158015611042573d6000803e3d6000fd5b5061105792505050606087016040880161203e565b6001600160a01b03166316febdd3611072602089018961203e565b61108260408a0160208b0161203e565b61109260e08b0160c08c0161203e565b6110a36101008c0160e08d0161203e565b609760009054906101000a90046001600160a01b0316609960009054906101000a90046001600160a01b03168d60600160208101906110e2919061203e565b6040516001600160e01b031960e08a901b1681526001600160a01b03978816600482015295871660248701529386166044860152918516606485015284166084840152831660a4830152821660c482015281891660e482015290871661010482015261012401600060405180830381600087803b15801561116257600080fd5b505af1158015611176573d6000803e3d6000fd5b50506098546001600160a01b0316915063ee407388905061119d6080890160608a0161203e565b6040518263ffffffff1660e01b81526004016111b9919061205b565b600060405180830381600087803b1580156111d357600080fd5b505af11580156111e7573d6000803e3d6000fd5b506111fc92505050608087016060880161203e565b6001600160a01b031663a8f421c261121a6040890160208a0161203e565b6098546040516001600160e01b031960e085901b16815261124c92916001600160a01b0316908a908a90600401612183565b600060405180830381600087803b15801561126657600080fd5b505af115801561127a573d6000803e3d6000fd5b50505050505050505050565b60009182526065602090815260408084206001600160a01b0393909316845291905290205460ff1690565b6000805160206124528339815191526112c9816119c5565b609954600160a01b900460ff16156112f457604051633b335e4560e11b815260040160405180910390fd5b60975460405163e7e4b8db60e01b81526001600160a01b039091169063e7e4b8db90611324908d9060040161205b565b602060405180830381865afa158015611341573d6000803e3d6000fd5b505050506040513d601f19601f82011682018060405250810190611365919061206f565b6113815760405162461bcd60e51b815260040161039290612091565b60975460405163e7e4b8db60e01b81526001600160a01b039091169063e7e4b8db906113b1908c9060040161205b565b602060405180830381865afa1580156113ce573d6000803e3d6000fd5b505050506040513d601f19601f820116820180604052508101906113f2919061206f565b61140e5760405162461bcd60e51b8152600401610392906120b7565b60975460405163e7e4b8db60e01b81526001600160a01b039091169063e7e4b8db9061143e908a9060040161205b565b602060405180830381865afa15801561145b573d6000803e3d6000fd5b505050506040513d601f19601f8201168201806040525081019061147f919061206f565b61149b5760405162461bcd60e51b8152600401610392906120de565b60975460405163e7e4b8db60e01b81526001600160a01b039091169063e7e4b8db906114cb908b9060040161205b565b602060405180830381865afa1580156114e8573d6000803e3d6000fd5b505050506040513d601f19601f8201168201806040525081019061150c919061206f565b6115285760405162461bcd60e51b815260040161039290612105565b60975460405163e7e4b8db60e01b81526001600160a01b039091169063e7e4b8db9061155890899060040161205b565b602060405180830381865afa158015611575573d6000803e3d6000fd5b505050506040513d601f19601f82011682018060405250810190611599919061206f565b6115b55760405162461bcd60e51b81526004016103929061212c565b609854604051631dc80e7160e31b81526001600160a01b039091169063ee407388906115e5908a9060040161205b565b600060405180830381600087803b1580156115ff57600080fd5b505af1158015611613573d6000803e3d6000fd5b50505050866001600160a01b031663cdae1ee0878c609860009054906101000a90046001600160a01b03168d609960009054906101000a90046001600160a01b03168b8b6040518863ffffffff1660e01b815260040161167997969594939291906121ae565b600060405180830381600087803b15801561169357600080fd5b505af11580156116a7573d6000803e3d6000fd5b5050609854604051631dc80e7160e31b81526001600160a01b03909116925063ee40738891506116db908b9060040161205b565b600060405180830381600087803b1580156116f557600080fd5b505af1158015611709573d6000803e3d6000fd5b5050609854604051631e442d1960e21b81526001600160a01b03808d169450637910b4649350611746928b929116908f908b908b90600401612151565b600060405180830381600087803b15801561176057600080fd5b505af1158015611774573d6000803e3d6000fd5b5050609854604051631dc80e7160e31b81526001600160a01b03909116925063ee40738891506117a890899060040161205b565b600060405180830381600087803b1580156117c257600080fd5b505af11580156117d6573d6000803e3d6000fd5b505060985460405163594a44bb60e11b81526001600160a01b03808b16945063b294897693506118189216908e908c908e908c908c908c908c906004016122b6565b600060405180830381600087803b15801561183257600080fd5b505af1158015611846573d6000803e3d6000fd5b5050604080516060810182526001600160a01b038a811682528b811660208301528c811682840152915163202a804560e11b8152918d169350634055008a925061189291600401612326565b600060405180830381600087803b1580156118ac57600080fd5b505af11580156118c0573d6000803e3d6000fd5b5050604080516060810182526001600160a01b038a811682528b811660208301528c811682840152915163202a804560e11b8152918e169350634055008a925061190c91600401612326565b600060405180830381600087803b15801561192657600080fd5b505af115801561193a573d6000803e3d6000fd5b5050505050505050505050505050565b600082815260656020526040902060010154611965816119c5565b6103218383611a58565b600080516020612432833981519152611987816119c5565b506099805460ff60a01b19169055565b6000805160206124328339815191526119af816119c5565b506099805460ff60a01b1916600160a01b179055565b6119cf8133611abf565b50565b6119dc8282611286565b6103a55760008281526065602090815260408083206001600160a01b03851684529091529020805460ff19166001179055611a143390565b6001600160a01b0316816001600160a01b0316837f2f8788117e7eff1d82e926ec794901d17c78024a50270940304540a733656f0d60405160405180910390a45050565b611a628282611286565b156103a55760008281526065602090815260408083206001600160a01b0385168085529252808320805460ff1916905551339285917ff6391f5c32d9c69d2a47ea670b442974b53935d1edc7fd64eb21e047a839171b9190a45050565b611ac98282611286565b6103a557611ad681611b18565b611ae1836020611b2a565b604051602001611af2929190612355565b60408051601f198184030181529082905262461bcd60e51b825261039291600401611def565b606061028c6001600160a01b03831660145b60606000611b398360026123da565b611b449060026123f1565b6001600160401b03811115611b5b57611b5b611e02565b6040519080825280601f01601f191660200182016040528015611b85576020820181803683370190505b509050600360fc1b81600081518110611ba057611ba0612404565b60200101906001600160f81b031916908160001a905350600f60fb1b81600181518110611bcf57611bcf612404565b60200101906001600160f81b031916908160001a9053506000611bf38460026123da565b611bfe9060016123f1565b90505b6001811115611c76576f181899199a1a9b1b9c1cb0b131b232b360811b85600f1660108110611c3257611c32612404565b1a60f81b828281518110611c4857611c48612404565b60200101906001600160f81b031916908160001a90535060049490941c93611c6f8161241a565b9050611c01565b508315611cc55760405162461bcd60e51b815260206004820181905260248201527f537472696e67733a20686578206c656e67746820696e73756666696369656e746044820152606401610392565b9392505050565b600060208284031215611cde57600080fd5b81356001600160e01b031981168114611cc557600080fd5b6001600160a01b03811681146119cf57600080fd5b600080600060608486031215611d2057600080fd5b8335611d2b81611cf6565b92506020840135611d3b81611cf6565b91506040840135611d4b81611cf6565b809150509250925092565b600060208284031215611d6857600080fd5b5035919050565b60008060408385031215611d8257600080fd5b823591506020830135611d9481611cf6565b809150509250929050565b60005b83811015611dba578181015183820152602001611da2565b50506000910152565b60008151808452611ddb816020860160208601611d9f565b601f01601f19169290920160200192915050565b602081526000611cc56020830184611dc3565b634e487b7160e01b600052604160045260246000fd5b600082601f830112611e2957600080fd5b81356001600160401b0380821115611e4357611e43611e02565b604051601f8301601f19908116603f01168101908282118183101715611e6b57611e6b611e02565b81604052838152866020858801011115611e8457600080fd5b836020870160208301376000602085830101528094505050505092915050565b6000806000806000858703610180811215611ebe57600080fd5b61010080821215611ece57600080fd5b8796508601359050611edf81611cf6565b9350610120860135611ef081611cf6565b92506101408601356001600160401b0380821115611f0d57600080fd5b611f1989838a01611e18565b9350610160880135915080821115611f3057600080fd5b50611f3d88828901611e18565b9150509295509295909350565b60008060008060008060008060006101008a8c031215611f6957600080fd5b8935611f7481611cf6565b985060208a0135611f8481611cf6565b975060408a0135611f9481611cf6565b965060608a0135611fa481611cf6565b955060808a0135611fb481611cf6565b945060a08a0135611fc481611cf6565b935060c08a0135611fd481611cf6565b925060e08a01356001600160401b0380821115611ff057600080fd5b818c0191508c601f83011261200457600080fd5b81358181111561201357600080fd5b8d602082850101111561202557600080fd5b6020830194508093505050509295985092959850929598565b60006020828403121561205057600080fd5b8135611cc581611cf6565b6001600160a01b0391909116815260200190565b60006020828403121561208157600080fd5b81518015158114611cc557600080fd5b6020808252600c908201526b4e6f6e2d5465726d2054525360a01b604082015260600190565b6020808252600d908201526c4e6f6e2d5465726d205452434d60981b604082015260600190565b6020808252600d908201526c139bdb8b55195c9b4815105093609a1b604082015260600190565b6020808252600d908201526c139bdb8b55195c9b48151053d3609a1b604082015260600190565b6020808252600b908201526a4e6f6e2d5465726d20544160a81b604082015260600190565b6001600160a01b0395861681529385166020850152918416604084015283166060830152909116608082015260a00190565b6001600160a01b03948516815292841660208401529083166040830152909116606082015260800190565b6001600160a01b03978816815295871660208701529386166040860152918516606085015284166080840152831660a083015290911660c082015260e00190565b6001600160a01b0388811682528781166020830152868116604083015285811660608301528481166080830152831660a082015260e060c0820181905260009061223b90830184611dc3565b9998505050505050505050565b6001600160a01b038a81168252898116602083015288811660408301528781166060830152868116608083015285811660a083015284811660c0830152831660e082015261012061010082018190526000906122a683820185611dc3565b9c9b505050505050505050505050565b6001600160a01b0389811682528881166020830152878116604083015286811660608301528581166080830152841660a082015260e060c08201819052810182905260006101008385828501376000838501820152601f909301601f191690910190910198975050505050505050565b81516001600160a01b039081168252602080840151821690830152604092830151169181019190915260600190565b76020b1b1b2b9b9a1b7b73a3937b61d1030b1b1b7bab73a1604d1b815260008351612387816017850160208801611d9f565b7001034b99036b4b9b9b4b733903937b6329607d1b60179184019182015283516123b8816028840160208801611d9f565b01602801949350505050565b634e487b7160e01b600052601160045260246000fd5b808202811582820484141761028c5761028c6123c4565b8082018082111561028c5761028c6123c4565b634e487b7160e01b600052603260045260246000fd5b600081612429576124296123c4565b50600019019056fe793a6c9b7e0a9549c74edc2f9ae0dc50903dfaa9a56fb0116b27a8c71de3e2c66ed99f2da23f40576cbf78aa7c8ca667edae2da83ffc25cda14b3818f7b0d084a2646970667358221220863a09f1b7c9373c3ca684175d9bd0b9973ccc26b94d426c1cfcd40f2cdde49964736f6c63430008120033",
  "linkReferences": {},
  "deployedLinkReferences": {}
}