{
  "_format": "hh-sol-artifact-1",
  "contractName": "TestPriceFeed",
  "sourceName": "contracts/test/TestPriceFeed.sol",
  "abi": [
    {
      "inputs": [
        {
          "internalType": "uint8",
          "name": "decimals_",
          "type": "uint8"
        },
        {
          "internalType": "string",
          "name": "description_",
          "type": "string"
        },
        {
          "internalType": "uint256",
          "name": "version_",
          "type": "uint256"
        },
        {
          "internalType": "uint80",
          "name": "roundId_",
          "type": "uint80"
        },
        {
          "internalType": "int256",
          "name": "answer_",
          "type": "int256"
        },
        {
          "internalType": "uint256",
          "name": "startedAt_",
          "type": "uint256"
        },
        {
          "internalType": "uint256",
          "name": "updatedAt_",
          "type": "uint256"
        },
        {
          "internalType": "uint80",
          "name": "answeredInRound_",
          "type": "uint80"
        }
      ],
      "stateMutability": "nonpayable",
      "type": "constructor"
    },
    {
      "inputs": [],
      "name": "decimals",
      "outputs": [
        {
          "internalType": "uint8",
          "name": "",
          "type": "uint8"
        }
      ],
      "stateMutability": "view",
      "type": "function"
    },
    {
      "inputs": [],
      "name": "description",
      "outputs": [
        {
          "internalType": "string",
          "name": "",
          "type": "string"
        }
      ],
      "stateMutability": "view",
      "type": "function"
    },
    {
      "inputs": [
        {
          "internalType": "uint80",
          "name": "",
          "type": "uint80"
        }
      ],
      "name": "getRoundData",
      "outputs": [
        {
          "internalType": "uint80",
          "name": "roundId",
          "type": "uint80"
        },
        {
          "internalType": "int256",
          "name": "answer",
          "type": "int256"
        },
        {
          "internalType": "uint256",
          "name": "startedAt",
          "type": "uint256"
        },
        {
          "internalType": "uint256",
          "name": "updatedAt",
          "type": "uint256"
        },
        {
          "internalType": "uint80",
          "name": "answeredInRound",
          "type": "uint80"
        }
      ],
      "stateMutability": "view",
      "type": "function"
    },
    {
      "inputs": [],
      "name": "latestRoundData",
      "outputs": [
        {
          "internalType": "uint80",
          "name": "roundId",
          "type": "uint80"
        },
        {
          "internalType": "int256",
          "name": "answer",
          "type": "int256"
        },
        {
          "internalType": "uint256",
          "name": "startedAt",
          "type": "uint256"
        },
        {
          "internalType": "uint256",
          "name": "updatedAt",
          "type": "uint256"
        },
        {
          "internalType": "uint80",
          "name": "answeredInRound",
          "type": "uint80"
        }
      ],
      "stateMutability": "view",
      "type": "function"
    },
    {
      "inputs": [
        {
          "internalType": "int256",
          "name": "answer_",
          "type": "int256"
        }
      ],
      "name": "setAnswer",
      "outputs": [],
      "stateMutability": "nonpayable",
      "type": "function"
    },
    {
      "inputs": [],
      "name": "setAnswerToZero",
      "outputs": [],
      "stateMutability": "nonpayable",
      "type": "function"
    },
    {
      "inputs": [
        {
          "internalType": "uint256",
          "name": "startedAt_",
          "type": "uint256"
        }
      ],
      "name": "setStartedAt",
      "outputs": [],
      "stateMutability": "nonpayable",
      "type": "function"
    },
    {
      "inputs": [
        {
          "internalType": "uint256",
          "name": "updatedAt_",
          "type": "uint256"
        }
      ],
      "name": "setUpdatedAt",
      "outputs": [],
      "stateMutability": "nonpayable",
      "type": "function"
    },
    {
      "inputs": [],
      "name": "version",
      "outputs": [
        {
          "internalType": "uint256",
          "name": "",
          "type": "uint256"
        }
      ],
      "stateMutability": "view",
      "type": "function"
    }
  ],
  "bytecode": "0x608060405234610284576106128038038061001981610289565b9283398101906101008183031261028457805160ff8116809103610284576020828101516001600160401b03949193919085811161028457820194601f9482868801121561028457865182811161025a57601f199761007d8289018a168401610289565b9482865283838301011161028457829060005b838110610270575050600091850101526040840151916100b2606086016102ae565b9760808601519760a0870151956100d060e060c08a015199016102ae565b9860ff196000541617600055805193841161025a576001948554938685811c95168015610250575b8286101461023a5784848796116101e3575b5081938511600114610180575050600092610175575b5050600019600383901b1c191690821b1790555b60025560018060501b03938460018060501b031996168660035416176003556004556005556006551690600754161760075560405161034f90816102c38239f35b015190503880610120565b869593929193168560005283600020936000905b8282106101ca57505084116101b1575b505050811b019055610134565b015160001960f88460031b161c191690553880806101a4565b8484015186558897909501949384019390810190610194565b90919293945086600052826000208580880160051c820192858910610231575b9188978a9297969594930160051c01915b82811061022257505061010a565b60008155889750899101610214565b92508192610203565b634e487b7160e01b600052602260045260246000fd5b94607f16946100f8565b634e487b7160e01b600052604160045260246000fd5b818101830151878201840152849201610090565b600080fd5b6040519190601f01601f191682016001600160401b0381118382101761025a57604052565b51906001600160501b03821682036102845756fe608060408181526004918236101561001657600080fd5b60008093813560e01c9283631ecc7d88146102db578363313ce567146102be5750826354fd4d501461029f5782637284e4161461015f57826399213cd8146101475782639a6fc8f514610114578263dab03458146100fc578263fa282870146100e357505063feaf968c1461008a57600080fd5b346100df57816003193601126100df576100db906100a66102f4565b94516001600160501b0394851681526020810193909352604083019190915260608201529116608082015290819060a0820190565b0390f35b5080fd5b8190346100f957816003193601126100f9575580f35b50fd5b346100df5760203660031901126100df573560055580f35b83903461014357602036600319011261014357356001600160501b038116036100df576100db906100a66102f4565b8280fd5b346100df5760203660031901126100df578035905580f35b8334610143578260031936011261014357805183600194600154908160011c60018316978815610295575b6020938483108a1461028257848798999a8489529182600014610266575050600114610230575b5050601f801995869203011683019583871060018060401b0388111761021d575085929391838652818452845191828186015281955b8387106102055750508394508582601f949501015201168101030190f35b868101820151898801890152958101958895506101e7565b634e487b7160e01b835260419052602482fd5b600185528385208593505b828410610250575050508301810187806101b1565b805488850186015287965092840192810161023b565b925093505060ff191682860152151560051b84010187806101b1565b634e487b7160e01b865260228952602486fd5b90607f169061018a565b5082346100df57816003193601126100df576020906002549051908152f35b9050346100df57816003193601126100df5760ff60209254168152f35b50346100df5760203660031901126100df573560065580f35b6003546004546005546006546007546001600160501b0394851695939492939192169056fea26469706673582212204d2f452082649bc5d218e3dd13a9acf689098a5251656e808acaa6b96b794ec464736f6c63430008160033",
  "linkReferences": {},
  "deployedLinkReferences": {}
}