{
  "_format": "hh-sol-artifact-1",
  "contractName": "TestPriceFeed",
  "sourceName": "contracts/test/TestPriceFeed.sol",
  "abi": [
    {
      "inputs": [
        {
          "internalType": "uint8",
          "name": "decimals_",
          "type": "uint8"
        },
        {
          "internalType": "string",
          "name": "description_",
          "type": "string"
        },
        {
          "internalType": "uint256",
          "name": "version_",
          "type": "uint256"
        },
        {
          "internalType": "uint80",
          "name": "roundId_",
          "type": "uint80"
        },
        {
          "internalType": "int256",
          "name": "answer_",
          "type": "int256"
        },
        {
          "internalType": "uint256",
          "name": "startedAt_",
          "type": "uint256"
        },
        {
          "internalType": "uint256",
          "name": "updatedAt_",
          "type": "uint256"
        },
        {
          "internalType": "uint80",
          "name": "answeredInRound_",
          "type": "uint80"
        }
      ],
      "stateMutability": "nonpayable",
      "type": "constructor"
    },
    {
      "inputs": [],
      "name": "decimals",
      "outputs": [
        {
          "internalType": "uint8",
          "name": "",
          "type": "uint8"
        }
      ],
      "stateMutability": "view",
      "type": "function"
    },
    {
      "inputs": [],
      "name": "description",
      "outputs": [
        {
          "internalType": "string",
          "name": "",
          "type": "string"
        }
      ],
      "stateMutability": "view",
      "type": "function"
    },
    {
      "inputs": [
        {
          "internalType": "uint80",
          "name": "",
          "type": "uint80"
        }
      ],
      "name": "getRoundData",
      "outputs": [
        {
          "internalType": "uint80",
          "name": "roundId",
          "type": "uint80"
        },
        {
          "internalType": "int256",
          "name": "answer",
          "type": "int256"
        },
        {
          "internalType": "uint256",
          "name": "startedAt",
          "type": "uint256"
        },
        {
          "internalType": "uint256",
          "name": "updatedAt",
          "type": "uint256"
        },
        {
          "internalType": "uint80",
          "name": "answeredInRound",
          "type": "uint80"
        }
      ],
      "stateMutability": "view",
      "type": "function"
    },
    {
      "inputs": [],
      "name": "latestRoundData",
      "outputs": [
        {
          "internalType": "uint80",
          "name": "roundId",
          "type": "uint80"
        },
        {
          "internalType": "int256",
          "name": "answer",
          "type": "int256"
        },
        {
          "internalType": "uint256",
          "name": "startedAt",
          "type": "uint256"
        },
        {
          "internalType": "uint256",
          "name": "updatedAt",
          "type": "uint256"
        },
        {
          "internalType": "uint80",
          "name": "answeredInRound",
          "type": "uint80"
        }
      ],
      "stateMutability": "view",
      "type": "function"
    },
    {
      "inputs": [
        {
          "internalType": "int256",
          "name": "answer_",
          "type": "int256"
        }
      ],
      "name": "setAnswer",
      "outputs": [],
      "stateMutability": "nonpayable",
      "type": "function"
    },
    {
      "inputs": [],
      "name": "setAnswerToZero",
      "outputs": [],
      "stateMutability": "nonpayable",
      "type": "function"
    },
    {
      "inputs": [
        {
          "internalType": "uint256",
          "name": "startedAt_",
          "type": "uint256"
        }
      ],
      "name": "setStartedAt",
      "outputs": [],
      "stateMutability": "nonpayable",
      "type": "function"
    },
    {
      "inputs": [],
      "name": "version",
      "outputs": [
        {
          "internalType": "uint256",
          "name": "",
          "type": "uint256"
        }
      ],
      "stateMutability": "view",
      "type": "function"
    }
  ],
  "bytecode": "0x608060405234801561001057600080fd5b5060405161065838038061065883398101604081905261002f916100c6565b6000805460ff191660ff8a16179055600161004a888261027a565b50600295909555600380546001600160501b039586166001600160501b03199182161790915560049390935560059190915560065560078054929093169116179055506103399050565b634e487b7160e01b600052604160045260246000fd5b80516001600160501b03811681146100c157600080fd5b919050565b600080600080600080600080610100898b0312156100e357600080fd5b885160ff811681146100f457600080fd5b60208a810151919950906001600160401b038082111561011357600080fd5b818c0191508c601f83011261012757600080fd5b81518181111561013957610139610094565b604051601f8201601f19908116603f0116810190838211818310171561016157610161610094565b816040528281528f8684870101111561017957600080fd5b600093505b8284101561019b578484018601518185018701529285019261017e565b6000868483010152809c50505050505050604089015195506101bf60608a016100aa565b94506080890151935060a0890151925060c089015191506101e260e08a016100aa565b90509295985092959890939650565b600181811c9082168061020557607f821691505b60208210810361022557634e487b7160e01b600052602260045260246000fd5b50919050565b601f82111561027557600081815260208120601f850160051c810160208610156102525750805b601f850160051c820191505b818110156102715782815560010161025e565b5050505b505050565b81516001600160401b0381111561029357610293610094565b6102a7816102a184546101f1565b8461022b565b602080601f8311600181146102dc57600084156102c45750858301515b600019600386901b1c1916600185901b178555610271565b600085815260208120601f198616915b8281101561030b578886015182559484019460019091019084016102ec565b50858210156103295787850151600019600388901b60f8161c191681555b5050505050600190811b01905550565b610310806103486000396000f3fe608060405234801561001057600080fd5b50600436106100785760003560e01c8063313ce5671461007d57806354fd4d50146100975780637284e416146100a857806399213cd8146100bd5780639a6fc8f5146100d2578063dab0345814610139578063fa2828701461014c578063feaf968c14610156575b600080fd5b60005460405160ff90911681526020015b60405180910390f35b60025460405190815260200161008e565b6100b0610177565b60405161008e9190610209565b6100d06100cb366004610257565b600455565b005b6101056100e0366004610270565b6003546004546005546006546007546001600160501b03948516941691939590929450565b604080516001600160501b03968716815260208101959095528401929092526060830152909116608082015260a00161008e565b6100d0610147366004610257565b600555565b6100d06000600455565b6003546004546005546006546007546001600160501b039485169416610105565b606060018054610186906102a0565b80601f01602080910402602001604051908101604052809291908181526020018280546101b2906102a0565b80156101ff5780601f106101d4576101008083540402835291602001916101ff565b820191906000526020600020905b8154815290600101906020018083116101e257829003601f168201915b5050505050905090565b600060208083528351808285015260005b818110156102365785810183015185820160400152820161021a565b506000604082860101526040601f19601f8301168501019250505092915050565b60006020828403121561026957600080fd5b5035919050565b60006020828403121561028257600080fd5b81356001600160501b038116811461029957600080fd5b9392505050565b600181811c908216806102b457607f821691505b6020821081036102d457634e487b7160e01b600052602260045260246000fd5b5091905056fea264697066735822122077e3dd366e5afc4ef84884197e3b5cd005ca79c032d5f6bc0542a2e637c197e164736f6c63430008120033",
  "linkReferences": {},
  "deployedLinkReferences": {}
}