{
  "_format": "hh-sol-artifact-1",
  "contractName": "TermPriceConsumerV3",
  "sourceName": "contracts/TermPriceConsumerV3.sol",
  "abi": [
    {
      "inputs": [],
      "stateMutability": "nonpayable",
      "type": "constructor"
    },
    {
      "inputs": [],
      "name": "GracePeriodNotOver",
      "type": "error"
    },
    {
      "inputs": [],
      "name": "InvalidPrice",
      "type": "error"
    },
    {
      "inputs": [
        {
          "internalType": "address",
          "name": "tokenAddress",
          "type": "address"
        }
      ],
      "name": "NoPriceFeed",
      "type": "error"
    },
    {
      "inputs": [],
      "name": "PricesStale",
      "type": "error"
    },
    {
      "inputs": [],
      "name": "SequencerDownError",
      "type": "error"
    },
    {
      "inputs": [],
      "name": "ZeroPrice",
      "type": "error"
    },
    {
      "anonymous": false,
      "inputs": [
        {
          "indexed": false,
          "internalType": "address",
          "name": "previousAdmin",
          "type": "address"
        },
        {
          "indexed": false,
          "internalType": "address",
          "name": "newAdmin",
          "type": "address"
        }
      ],
      "name": "AdminChanged",
      "type": "event"
    },
    {
      "anonymous": false,
      "inputs": [
        {
          "indexed": true,
          "internalType": "address",
          "name": "beacon",
          "type": "address"
        }
      ],
      "name": "BeaconUpgraded",
      "type": "event"
    },
    {
      "anonymous": false,
      "inputs": [
        {
          "indexed": false,
          "internalType": "uint8",
          "name": "version",
          "type": "uint8"
        }
      ],
      "name": "Initialized",
      "type": "event"
    },
    {
      "anonymous": false,
      "inputs": [
        {
          "indexed": true,
          "internalType": "bytes32",
          "name": "role",
          "type": "bytes32"
        },
        {
          "indexed": true,
          "internalType": "bytes32",
          "name": "previousAdminRole",
          "type": "bytes32"
        },
        {
          "indexed": true,
          "internalType": "bytes32",
          "name": "newAdminRole",
          "type": "bytes32"
        }
      ],
      "name": "RoleAdminChanged",
      "type": "event"
    },
    {
      "anonymous": false,
      "inputs": [
        {
          "indexed": true,
          "internalType": "bytes32",
          "name": "role",
          "type": "bytes32"
        },
        {
          "indexed": true,
          "internalType": "address",
          "name": "account",
          "type": "address"
        },
        {
          "indexed": true,
          "internalType": "address",
          "name": "sender",
          "type": "address"
        }
      ],
      "name": "RoleGranted",
      "type": "event"
    },
    {
      "anonymous": false,
      "inputs": [
        {
          "indexed": true,
          "internalType": "bytes32",
          "name": "role",
          "type": "bytes32"
        },
        {
          "indexed": true,
          "internalType": "address",
          "name": "account",
          "type": "address"
        },
        {
          "indexed": true,
          "internalType": "address",
          "name": "sender",
          "type": "address"
        }
      ],
      "name": "RoleRevoked",
      "type": "event"
    },
    {
      "anonymous": false,
      "inputs": [
        {
          "indexed": false,
          "internalType": "address",
          "name": "token",
          "type": "address"
        },
        {
          "indexed": false,
          "internalType": "address",
          "name": "tokenPriceAggregator",
          "type": "address"
        }
      ],
      "name": "SubscribeFallbackPriceFeed",
      "type": "event"
    },
    {
      "anonymous": false,
      "inputs": [
        {
          "indexed": false,
          "internalType": "address",
          "name": "token",
          "type": "address"
        },
        {
          "indexed": false,
          "internalType": "address",
          "name": "tokenPriceAggregator",
          "type": "address"
        }
      ],
      "name": "SubscribePriceFeed",
      "type": "event"
    },
    {
      "anonymous": false,
      "inputs": [
        {
          "indexed": false,
          "internalType": "address",
          "name": "token",
          "type": "address"
        }
      ],
      "name": "UnsubscribeFallbackPriceFeed",
      "type": "event"
    },
    {
      "anonymous": false,
      "inputs": [
        {
          "indexed": false,
          "internalType": "address",
          "name": "token",
          "type": "address"
        }
      ],
      "name": "UnsubscribePriceFeed",
      "type": "event"
    },
    {
      "anonymous": false,
      "inputs": [
        {
          "indexed": true,
          "internalType": "address",
          "name": "implementation",
          "type": "address"
        }
      ],
      "name": "Upgraded",
      "type": "event"
    },
    {
      "inputs": [],
      "name": "DEFAULT_ADMIN_ROLE",
      "outputs": [
        {
          "internalType": "bytes32",
          "name": "",
          "type": "bytes32"
        }
      ],
      "stateMutability": "view",
      "type": "function"
    },
    {
      "inputs": [],
      "name": "DEVOPS_ROLE",
      "outputs": [
        {
          "internalType": "bytes32",
          "name": "",
          "type": "bytes32"
        }
      ],
      "stateMutability": "view",
      "type": "function"
    },
    {
      "inputs": [
        {
          "internalType": "address",
          "name": "token",
          "type": "address"
        },
        {
          "internalType": "address",
          "name": "tokenPriceAggregator",
          "type": "address"
        },
        {
          "internalType": "uint256",
          "name": "refreshRateThreshold",
          "type": "uint256"
        }
      ],
      "name": "addNewTokenFallbackPriceFeed",
      "outputs": [],
      "stateMutability": "nonpayable",
      "type": "function"
    },
    {
      "inputs": [
        {
          "internalType": "address",
          "name": "token",
          "type": "address"
        },
        {
          "internalType": "address",
          "name": "tokenPriceAggregator",
          "type": "address"
        },
        {
          "internalType": "uint256",
          "name": "refreshRateThreshold",
          "type": "uint256"
        }
      ],
      "name": "addNewTokenPriceFeed",
      "outputs": [],
      "stateMutability": "nonpayable",
      "type": "function"
    },
    {
      "inputs": [
        {
          "internalType": "address",
          "name": "token",
          "type": "address"
        },
        {
          "internalType": "address",
          "name": "tokenPriceAggregator",
          "type": "address"
        },
        {
          "internalType": "uint256",
          "name": "tokenPriceAggregatorRefreshRateThreshold",
          "type": "uint256"
        },
        {
          "internalType": "address",
          "name": "fallbackPriceAggregator",
          "type": "address"
        },
        {
          "internalType": "uint256",
          "name": "fallbackPriceAggregatorRefreshRateThreshold",
          "type": "uint256"
        }
      ],
      "name": "addNewTokenPriceFeedAndFallbackPriceFeed",
      "outputs": [],
      "stateMutability": "nonpayable",
      "type": "function"
    },
    {
      "inputs": [
        {
          "internalType": "bytes32",
          "name": "role",
          "type": "bytes32"
        }
      ],
      "name": "getRoleAdmin",
      "outputs": [
        {
          "internalType": "bytes32",
          "name": "",
          "type": "bytes32"
        }
      ],
      "stateMutability": "view",
      "type": "function"
    },
    {
      "inputs": [
        {
          "internalType": "bytes32",
          "name": "role",
          "type": "bytes32"
        },
        {
          "internalType": "address",
          "name": "account",
          "type": "address"
        }
      ],
      "name": "grantRole",
      "outputs": [],
      "stateMutability": "nonpayable",
      "type": "function"
    },
    {
      "inputs": [
        {
          "internalType": "bytes32",
          "name": "role",
          "type": "bytes32"
        },
        {
          "internalType": "address",
          "name": "account",
          "type": "address"
        }
      ],
      "name": "hasRole",
      "outputs": [
        {
          "internalType": "bool",
          "name": "",
          "type": "bool"
        }
      ],
      "stateMutability": "view",
      "type": "function"
    },
    {
      "inputs": [
        {
          "internalType": "address",
          "name": "devopsWallet_",
          "type": "address"
        }
      ],
      "name": "initialize",
      "outputs": [],
      "stateMutability": "nonpayable",
      "type": "function"
    },
    {
      "inputs": [],
      "name": "proxiableUUID",
      "outputs": [
        {
          "internalType": "bytes32",
          "name": "",
          "type": "bytes32"
        }
      ],
      "stateMutability": "view",
      "type": "function"
    },
    {
      "inputs": [
        {
          "internalType": "address",
          "name": "token",
          "type": "address"
        }
      ],
      "name": "removeFallbackTokenPriceFeed",
      "outputs": [],
      "stateMutability": "nonpayable",
      "type": "function"
    },
    {
      "inputs": [
        {
          "internalType": "address",
          "name": "token",
          "type": "address"
        }
      ],
      "name": "removeTokenPriceFeed",
      "outputs": [],
      "stateMutability": "nonpayable",
      "type": "function"
    },
    {
      "inputs": [
        {
          "internalType": "bytes32",
          "name": "role",
          "type": "bytes32"
        },
        {
          "internalType": "address",
          "name": "account",
          "type": "address"
        }
      ],
      "name": "renounceRole",
      "outputs": [],
      "stateMutability": "nonpayable",
      "type": "function"
    },
    {
      "inputs": [
        {
          "internalType": "bytes32",
          "name": "role",
          "type": "bytes32"
        },
        {
          "internalType": "address",
          "name": "account",
          "type": "address"
        }
      ],
      "name": "revokeRole",
      "outputs": [],
      "stateMutability": "nonpayable",
      "type": "function"
    },
    {
      "inputs": [
        {
          "internalType": "bytes4",
          "name": "interfaceId",
          "type": "bytes4"
        }
      ],
      "name": "supportsInterface",
      "outputs": [
        {
          "internalType": "bool",
          "name": "",
          "type": "bool"
        }
      ],
      "stateMutability": "view",
      "type": "function"
    },
    {
      "inputs": [
        {
          "internalType": "address",
          "name": "newImplementation",
          "type": "address"
        }
      ],
      "name": "upgradeTo",
      "outputs": [],
      "stateMutability": "nonpayable",
      "type": "function"
    },
    {
      "inputs": [
        {
          "internalType": "address",
          "name": "newImplementation",
          "type": "address"
        },
        {
          "internalType": "bytes",
          "name": "data",
          "type": "bytes"
        }
      ],
      "name": "upgradeToAndCall",
      "outputs": [],
      "stateMutability": "payable",
      "type": "function"
    },
    {
      "inputs": [
        {
          "internalType": "address",
          "name": "token",
          "type": "address"
        },
        {
          "internalType": "uint256",
          "name": "amount",
          "type": "uint256"
        }
      ],
      "name": "usdValueOfTokens",
      "outputs": [
        {
          "components": [
            {
              "internalType": "uint256",
              "name": "mantissa",
              "type": "uint256"
            }
          ],
          "internalType": "struct ExponentialNoError.Exp",
          "name": "",
          "type": "tuple"
        }
      ],
      "stateMutability": "view",
      "type": "function"
    },
    {
      "inputs": [],
      "name": "version",
      "outputs": [
        {
          "internalType": "string",
          "name": "",
          "type": "string"
        }
      ],
      "stateMutability": "view",
      "type": "function"
    }
  ],
  "bytecode": "0x60a06040523060805234801561001457600080fd5b5061001d610022565b6100e1565b600054610100900460ff161561008e5760405162461bcd60e51b815260206004820152602760248201527f496e697469616c697a61626c653a20636f6e747261637420697320696e697469604482015266616c697a696e6760c81b606482015260840160405180910390fd5b60005460ff908116146100df576000805460ff191660ff9081179091556040519081527f7f26b83ff96e1f2b6a682f133852f6798a09c465da95921460cefb38474024989060200160405180910390a15b565b608051612010610118600039600081816105d401528181610614015281816106d201528181610712015261078a01526120106000f3fe6080604052600436106100f45760003560e01c806352d1902d1161009057806352d1902d1461025257806354fd4d501461026757806391d14854146102a1578063929ac838146102c1578063a217fddf146102e1578063aa7a2cdc146102f6578063c4d66de814610316578063ce2ff6aa14610336578063d547741f14610356578063ea6466fa1461037657600080fd5b806301ffc9a7146100f95780630f4f276c1461012e578063201a66251461015d578063248a9ca31461018d5780632f2ff15d146101bd57806336568abe146101df5780633659cfe6146101ff57806338ff63bb1461021f5780634f1ef2861461023f575b600080fd5b34801561010557600080fd5b50610119610114366004611957565b610396565b60405190151581526020015b60405180910390f35b34801561013a57600080fd5b5061014e61014936600461199d565b6103cd565b60405190518152602001610125565b34801561016957600080fd5b5061017f600080516020611f7483398151915281565b604051908152602001610125565b34801561019957600080fd5b5061017f6101a83660046119c7565b600090815260c9602052604090206001015490565b3480156101c957600080fd5b506101dd6101d83660046119e0565b610522565b005b3480156101eb57600080fd5b506101dd6101fa3660046119e0565b61054c565b34801561020b57600080fd5b506101dd61021a366004611a0c565b6105ca565b34801561022b57600080fd5b506101dd61023a366004611a27565b610692565b6101dd61024d366004611a92565b6106c8565b34801561025e57600080fd5b5061017f61077d565b34801561027357600080fd5b50604080518082018252600b81526a19195d995b1bdc1b595b9d60aa1b602082015290516101259190611b78565b3480156102ad57600080fd5b506101196102bc3660046119e0565b61082b565b3480156102cd57600080fd5b506101dd6102dc366004611bab565b610856565b3480156102ed57600080fd5b5061017f600081565b34801561030257600080fd5b506101dd610311366004611bab565b61087f565b34801561032257600080fd5b506101dd610331366004611a0c565b6108a2565b34801561034257600080fd5b506101dd610351366004611a0c565b6109db565b34801561036257600080fd5b506101dd6103713660046119e0565b610a4f565b34801561038257600080fd5b506101dd610391366004611a0c565b610a74565b60006001600160e01b03198216637965db0b60e01b14806103c757506301ffc9a760e01b6001600160e01b03198316145b92915050565b6040805160208101909152600081526001600160a01b03838116600090815260fb60205260409020541661041f5782604051632a4f499d60e21b81526004016104169190611be7565b60405180910390fd5b60008061042b85610ae8565b8092508193505050600082905060008690506000816001600160a01b031663313ce5676040518163ffffffff1660e01b8152600401602060405180830381865afa15801561047d573d6000803e3d6000fd5b505050506040513d601f19601f820116820180604052508101906104a19190611bfb565b9050610516604051806020016040528083600a6104be9190611d18565b6104d0670de0b6b3a76400008c611d27565b6104da9190611d3e565b90526040805160208101909152806104f388600a611d18565b610505670de0b6b3a764000089611d27565b61050f9190611d3e565b9052610ea5565b98975050505050505050565b600082815260c9602052604090206001015461053d81610eed565b6105478383610ef7565b505050565b6001600160a01b03811633146105bc5760405162461bcd60e51b815260206004820152602f60248201527f416363657373436f6e74726f6c3a2063616e206f6e6c792072656e6f756e636560448201526e103937b632b9903337b91039b2b63360891b6064820152608401610416565b6105c68282610f7d565b5050565b6001600160a01b037f00000000000000000000000000000000000000000000000000000000000000001630036106125760405162461bcd60e51b815260040161041690611d60565b7f00000000000000000000000000000000000000000000000000000000000000006001600160a01b0316610644610fe4565b6001600160a01b03161461066a5760405162461bcd60e51b815260040161041690611dac565b61067381611000565b6040805160008082526020820190925261068f91839190611018565b50565b600080516020611f748339815191526106aa81610eed565b6106b5868686611183565b6106c086848461130a565b505050505050565b6001600160a01b037f00000000000000000000000000000000000000000000000000000000000000001630036107105760405162461bcd60e51b815260040161041690611d60565b7f00000000000000000000000000000000000000000000000000000000000000006001600160a01b0316610742610fe4565b6001600160a01b0316146107685760405162461bcd60e51b815260040161041690611dac565b61077182611000565b6105c682826001611018565b6000306001600160a01b037f000000000000000000000000000000000000000000000000000000000000000016146108185760405162461bcd60e51b815260206004820152603860248201527f555550535570677261646561626c653a206d757374206e6f742062652063616c6044820152771b1959081d1a1c9bdd59da0819195b1959d85d1958d85b1b60421b6064820152608401610416565b50600080516020611f9483398151915290565b600091825260c9602090815260408084206001600160a01b0393909316845291905290205460ff1690565b600080516020611f7483398151915261086e81610eed565b610879848484611183565b50505050565b600080516020611f7483398151915261089781610eed565b61087984848461130a565b600054610100900460ff16158080156108c25750600054600160ff909116105b806108e357506108d130611481565b1580156108e3575060005460ff166001145b6109465760405162461bcd60e51b815260206004820152602e60248201527f496e697469616c697a61626c653a20636f6e747261637420697320616c72656160448201526d191e481a5b9a5d1a585b1a5e995960921b6064820152608401610416565b6000805460ff191660011790558015610969576000805461ff0019166101001790555b610971611490565b610979611490565b610991600080516020611f7483398151915283610ef7565b80156105c6576000805461ff0019169055604051600181527f7f26b83ff96e1f2b6a682f133852f6798a09c465da95921460cefb3847402498906020015b60405180910390a15050565b600080516020611f748339815191526109f381610eed565b6001600160a01b038216600090815260fb602052604080822080546001600160a01b031916815560010191909155517ffbc2f2231449137043afaa28222f673d780c0e7449d25d2c98ea791db929204c906109cf908490611be7565b600082815260c96020526040902060010154610a6a81610eed565b6105478383610f7d565b600080516020611f74833981519152610a8c81610eed565b6001600160a01b038216600090815260fc602052604080822080546001600160a01b031916815560010191909155517f1093a5da06a58f0fb15c9391f2457f36d022ac2f482a803bde212626f6744002906109cf908490611be7565b6001600160a01b03808216600090815260fb6020526040808220548151633fabe5a360e21b8152915192938493849384939092169163feaf968c9160048083019260a09291908290030181865afa158015610b47573d6000803e3d6000fd5b505050506040513d601f19601f82011682018060405250810190610b6b9190611e12565b506001600160a01b03808a16600090815260fc6020526040902054939650909450919091169150819050610cad5760008313610bb95760405162bfc92160e01b815260040160405180910390fd5b6001600160a01b038616600090815260fb60205260409020600101541580610c0557506001600160a01b038616600090815260fb6020526040902060010154610c028342611e62565b11155b15610c94576001600160a01b03808716600090815260fb602090815260409182902054825163313ce56760e01b815292518794919091169263313ce5679260048083019391928290030181865afa158015610c64573d6000803e3d6000fd5b505050506040513d601f19601f82011682018060405250810190610c889190611bfb565b94509450505050915091565b604051633ef9f21b60e01b815260040160405180910390fd5b6001600160a01b03811615610e9d57600083138015610cf057506001600160a01b038616600090815260fb6020526040902060010154610ced8342611e62565b11155b15610d4f576001600160a01b03808716600090815260fb602090815260409182902054825163313ce56760e01b815292518794919091169263313ce5679260048083019391928290030181865afa158015610c64573d6000803e3d6000fd5b600080826001600160a01b031663feaf968c6040518163ffffffff1660e01b815260040160a060405180830381865afa158015610d90573d6000803e3d6000fd5b505050506040513d601f19601f82011682018060405250810190610db49190611e12565b5093505092505060008213610ddb5760405162bfc92160e01b815260040160405180910390fd5b6001600160a01b038816600090815260fc60205260409020600101541580610e2757506001600160a01b038816600090815260fc6020526040902060010154610e248242611e62565b11155b15610c945781836001600160a01b031663313ce5676040518163ffffffff1660e01b8152600401602060405180830381865afa158015610e6b573d6000803e3d6000fd5b505050506040513d601f19601f82011682018060405250810190610e8f9190611bfb565b965096505050505050915091565b505050915091565b6040805160208101909152600081526040518060200160405280670de0b6b3a7640000610eda866000015186600001516114fd565b610ee49190611d3e565b90529392505050565b61068f8133611510565b610f01828261082b565b6105c657600082815260c9602090815260408083206001600160a01b03851684529091529020805460ff19166001179055610f393390565b6001600160a01b0316816001600160a01b0316837f2f8788117e7eff1d82e926ec794901d17c78024a50270940304540a733656f0d60405160405180910390a45050565b610f87828261082b565b156105c657600082815260c9602090815260408083206001600160a01b0385168085529252808320805460ff1916905551339285917ff6391f5c32d9c69d2a47ea670b442974b53935d1edc7fd64eb21e047a839171b9190a45050565b600080516020611f94833981519152546001600160a01b031690565b600080516020611f748339815191526105c681610eed565b7f4910fdfa16fed3260ed0e7147f7cc6da11a60208b5b9406d12a635614ffd91435460ff161561104b5761054783611569565b826001600160a01b03166352d1902d6040518163ffffffff1660e01b8152600401602060405180830381865afa9250505080156110a5575060408051601f3d908101601f191682019092526110a291810190611e75565b60015b6111085760405162461bcd60e51b815260206004820152602e60248201527f45524331393637557067726164653a206e657720696d706c656d656e7461746960448201526d6f6e206973206e6f74205555505360901b6064820152608401610416565b600080516020611f9483398151915281146111775760405162461bcd60e51b815260206004820152602960248201527f45524331393637557067726164653a20756e737570706f727465642070726f786044820152681a58589b195555525160ba1b6064820152608401610416565b50610547838383611603565b6001600160a01b0382166111eb5760405162461bcd60e51b815260206004820152602960248201527f5072696d61727920507269636520666565642063616e6e6f74206265207a65726044820152686f206164647265737360b81b6064820152608401610416565b6000829050600080826001600160a01b031663feaf968c6040518163ffffffff1660e01b815260040160a060405180830381865afa158015611231573d6000803e3d6000fd5b505050506040513d601f19601f820116820180604052508101906112559190611e12565b509350509250506000821361127c5760405162bfc92160e01b815260040160405180910390fd5b6040805180820182526001600160a01b03878116825260208083018881528a8316600090815260fb90925290849020835181546001600160a01b03191693169290921782555160019091015590517f950d6b0fc92ec932fc49a6ea1af2dded2fac58d5464090ceece194b1f1e624f3906112f99089908990611e8e565b60405180910390a150505050505050565b6001600160a01b0382166113735760405162461bcd60e51b815260206004820152602a60248201527f46616c6c6261636b20507269636520666565642063616e6e6f74206265207a65604482015269726f206164647265737360b01b6064820152608401610416565b6000829050600080826001600160a01b031663feaf968c6040518163ffffffff1660e01b815260040160a060405180830381865afa1580156113b9573d6000803e3d6000fd5b505050506040513d601f19601f820116820180604052508101906113dd9190611e12565b50935050925050600082136114045760405162bfc92160e01b815260040160405180910390fd5b6040805180820182526001600160a01b03878116825260208083018881528a8316600090815260fc90925290849020835181546001600160a01b03191693169290921782555160019091015590517f88f32712a5f54716ba83ac5415ed99ffccbcf735a00db9ff1607cc259f8bca08906112f99089908990611e8e565b6001600160a01b03163b151590565b600054610100900460ff166114fb5760405162461bcd60e51b815260206004820152602b60248201527f496e697469616c697a61626c653a20636f6e7472616374206973206e6f74206960448201526a6e697469616c697a696e6760a81b6064820152608401610416565b565b60006115098284611d27565b9392505050565b61151a828261082b565b6105c65761152781611628565b61153283602061163a565b604051602001611543929190611ea8565b60408051601f198184030181529082905262461bcd60e51b825261041691600401611b78565b61157281611481565b6115d45760405162461bcd60e51b815260206004820152602d60248201527f455243313936373a206e657720696d706c656d656e746174696f6e206973206e60448201526c1bdd08184818dbdb9d1c9858dd609a1b6064820152608401610416565b600080516020611f9483398151915280546001600160a01b0319166001600160a01b0392909216919091179055565b61160c836117d6565b6000825111806116195750805b15610547576108798383611816565b60606103c76001600160a01b03831660145b60606000611649836002611d27565b611654906002611f17565b67ffffffffffffffff81111561166c5761166c611a7c565b6040519080825280601f01601f191660200182016040528015611696576020820181803683370190505b509050600360fc1b816000815181106116b1576116b1611f2a565b60200101906001600160f81b031916908160001a905350600f60fb1b816001815181106116e0576116e0611f2a565b60200101906001600160f81b031916908160001a9053506000611704846002611d27565b61170f906001611f17565b90505b6001811115611787576f181899199a1a9b1b9c1cb0b131b232b360811b85600f166010811061174357611743611f2a565b1a60f81b82828151811061175957611759611f2a565b60200101906001600160f81b031916908160001a90535060049490941c9361178081611f40565b9050611712565b5083156115095760405162461bcd60e51b815260206004820181905260248201527f537472696e67733a20686578206c656e67746820696e73756666696369656e746044820152606401610416565b6117df81611569565b6040516001600160a01b038216907fbc7cd75a20ee27fd9adebab32041f755214dbc6bffa90cc0225b39da2e5c2d3b90600090a250565b60606115098383604051806060016040528060278152602001611fb4602791396060600080856001600160a01b0316856040516118539190611f57565b600060405180830381855af49150503d806000811461188e576040519150601f19603f3d011682016040523d82523d6000602084013e611893565b606091505b50915091506118a4868383876118ae565b9695505050505050565b6060831561191b578251600003611914576118c885611481565b6119145760405162461bcd60e51b815260206004820152601d60248201527f416464726573733a2063616c6c20746f206e6f6e2d636f6e74726163740000006044820152606401610416565b5081611925565b611925838361192d565b949350505050565b81511561193d5781518083602001fd5b8060405162461bcd60e51b81526004016104169190611b78565b60006020828403121561196957600080fd5b81356001600160e01b03198116811461150957600080fd5b80356001600160a01b038116811461199857600080fd5b919050565b600080604083850312156119b057600080fd5b6119b983611981565b946020939093013593505050565b6000602082840312156119d957600080fd5b5035919050565b600080604083850312156119f357600080fd5b82359150611a0360208401611981565b90509250929050565b600060208284031215611a1e57600080fd5b61150982611981565b600080600080600060a08688031215611a3f57600080fd5b611a4886611981565b9450611a5660208701611981565b935060408601359250611a6b60608701611981565b949793965091946080013592915050565b634e487b7160e01b600052604160045260246000fd5b60008060408385031215611aa557600080fd5b611aae83611981565b9150602083013567ffffffffffffffff80821115611acb57600080fd5b818501915085601f830112611adf57600080fd5b813581811115611af157611af1611a7c565b604051601f8201601f19908116603f01168101908382118183101715611b1957611b19611a7c565b81604052828152886020848701011115611b3257600080fd5b8260208601602083013760006020848301015280955050505050509250929050565b60005b83811015611b6f578181015183820152602001611b57565b50506000910152565b6020815260008251806020840152611b97816040850160208701611b54565b601f01601f19169190910160400192915050565b600080600060608486031215611bc057600080fd5b611bc984611981565b9250611bd760208501611981565b9150604084013590509250925092565b6001600160a01b0391909116815260200190565b600060208284031215611c0d57600080fd5b815160ff8116811461150957600080fd5b634e487b7160e01b600052601160045260246000fd5b600181815b80851115611c6f578160001904821115611c5557611c55611c1e565b80851615611c6257918102915b93841c9390800290611c39565b509250929050565b600082611c86575060016103c7565b81611c93575060006103c7565b8160018114611ca95760028114611cb357611ccf565b60019150506103c7565b60ff841115611cc457611cc4611c1e565b50506001821b6103c7565b5060208310610133831016604e8410600b8410161715611cf2575081810a6103c7565b611cfc8383611c34565b8060001904821115611d1057611d10611c1e565b029392505050565b600061150960ff841683611c77565b80820281158282048414176103c7576103c7611c1e565b600082611d5b57634e487b7160e01b600052601260045260246000fd5b500490565b6020808252602c908201527f46756e6374696f6e206d7573742062652063616c6c6564207468726f7567682060408201526b19195b1959d85d1958d85b1b60a21b606082015260800190565b6020808252602c908201527f46756e6374696f6e206d7573742062652063616c6c6564207468726f7567682060408201526b6163746976652070726f787960a01b606082015260800190565b805169ffffffffffffffffffff8116811461199857600080fd5b600080600080600060a08688031215611e2a57600080fd5b611e3386611df8565b9450602086015193506040860151925060608601519150611e5660808701611df8565b90509295509295909350565b818103818111156103c7576103c7611c1e565b600060208284031215611e8757600080fd5b5051919050565b6001600160a01b0392831681529116602082015260400190565b76020b1b1b2b9b9a1b7b73a3937b61d1030b1b1b7bab73a1604d1b815260008351611eda816017850160208801611b54565b7001034b99036b4b9b9b4b733903937b6329607d1b6017918401918201528351611f0b816028840160208801611b54565b01602801949350505050565b808201808211156103c7576103c7611c1e565b634e487b7160e01b600052603260045260246000fd5b600081611f4f57611f4f611c1e565b506000190190565b60008251611f69818460208701611b54565b919091019291505056fe793a6c9b7e0a9549c74edc2f9ae0dc50903dfaa9a56fb0116b27a8c71de3e2c6360894a13ba1a3210667c828492db98dca3e2076cc3735a920a3ca505d382bbc416464726573733a206c6f772d6c6576656c2064656c65676174652063616c6c206661696c6564a2646970667358221220563f1854971f1c5e9ab9d34f7c59bd726f739b462536093d253fe40333a18ff964736f6c63430008120033",
  "linkReferences": {},
  "deployedLinkReferences": {}
}