{
  "_format": "hh-sol-artifact-1",
  "contractName": "TermPriceConsumerV3",
  "sourceName": "contracts/TermPriceConsumerV3.sol",
  "abi": [
    {
      "inputs": [],
      "stateMutability": "nonpayable",
      "type": "constructor"
    },
    {
      "inputs": [
        {
          "internalType": "address",
          "name": "tokenAddress",
          "type": "address"
        }
      ],
      "name": "NoPriceFeed",
      "type": "error"
    },
    {
      "anonymous": false,
      "inputs": [
        {
          "indexed": false,
          "internalType": "address",
          "name": "previousAdmin",
          "type": "address"
        },
        {
          "indexed": false,
          "internalType": "address",
          "name": "newAdmin",
          "type": "address"
        }
      ],
      "name": "AdminChanged",
      "type": "event"
    },
    {
      "anonymous": false,
      "inputs": [
        {
          "indexed": true,
          "internalType": "address",
          "name": "beacon",
          "type": "address"
        }
      ],
      "name": "BeaconUpgraded",
      "type": "event"
    },
    {
      "anonymous": false,
      "inputs": [
        {
          "indexed": false,
          "internalType": "uint8",
          "name": "version",
          "type": "uint8"
        }
      ],
      "name": "Initialized",
      "type": "event"
    },
    {
      "anonymous": false,
      "inputs": [
        {
          "indexed": true,
          "internalType": "bytes32",
          "name": "role",
          "type": "bytes32"
        },
        {
          "indexed": true,
          "internalType": "bytes32",
          "name": "previousAdminRole",
          "type": "bytes32"
        },
        {
          "indexed": true,
          "internalType": "bytes32",
          "name": "newAdminRole",
          "type": "bytes32"
        }
      ],
      "name": "RoleAdminChanged",
      "type": "event"
    },
    {
      "anonymous": false,
      "inputs": [
        {
          "indexed": true,
          "internalType": "bytes32",
          "name": "role",
          "type": "bytes32"
        },
        {
          "indexed": true,
          "internalType": "address",
          "name": "account",
          "type": "address"
        },
        {
          "indexed": true,
          "internalType": "address",
          "name": "sender",
          "type": "address"
        }
      ],
      "name": "RoleGranted",
      "type": "event"
    },
    {
      "anonymous": false,
      "inputs": [
        {
          "indexed": true,
          "internalType": "bytes32",
          "name": "role",
          "type": "bytes32"
        },
        {
          "indexed": true,
          "internalType": "address",
          "name": "account",
          "type": "address"
        },
        {
          "indexed": true,
          "internalType": "address",
          "name": "sender",
          "type": "address"
        }
      ],
      "name": "RoleRevoked",
      "type": "event"
    },
    {
      "anonymous": false,
      "inputs": [
        {
          "indexed": false,
          "internalType": "address",
          "name": "token",
          "type": "address"
        },
        {
          "indexed": false,
          "internalType": "address",
          "name": "tokenPriceAggregator",
          "type": "address"
        }
      ],
      "name": "SubscribePriceFeed",
      "type": "event"
    },
    {
      "anonymous": false,
      "inputs": [
        {
          "indexed": false,
          "internalType": "address",
          "name": "token",
          "type": "address"
        }
      ],
      "name": "UnsubscribePriceFeed",
      "type": "event"
    },
    {
      "anonymous": false,
      "inputs": [
        {
          "indexed": true,
          "internalType": "address",
          "name": "implementation",
          "type": "address"
        }
      ],
      "name": "Upgraded",
      "type": "event"
    },
    {
      "inputs": [],
      "name": "DEFAULT_ADMIN_ROLE",
      "outputs": [
        {
          "internalType": "bytes32",
          "name": "",
          "type": "bytes32"
        }
      ],
      "stateMutability": "view",
      "type": "function"
    },
    {
      "inputs": [],
      "name": "DEVOPS_ROLE",
      "outputs": [
        {
          "internalType": "bytes32",
          "name": "",
          "type": "bytes32"
        }
      ],
      "stateMutability": "view",
      "type": "function"
    },
    {
      "inputs": [],
      "name": "EVERGREEN_MANAGEMENT_ROLE",
      "outputs": [
        {
          "internalType": "bytes32",
          "name": "",
          "type": "bytes32"
        }
      ],
      "stateMutability": "view",
      "type": "function"
    },
    {
      "inputs": [
        {
          "internalType": "address",
          "name": "token",
          "type": "address"
        },
        {
          "internalType": "address",
          "name": "tokenPriceAggregator",
          "type": "address"
        }
      ],
      "name": "addNewTokenPriceFeed",
      "outputs": [],
      "stateMutability": "nonpayable",
      "type": "function"
    },
    {
      "inputs": [
        {
          "internalType": "bytes32",
          "name": "role",
          "type": "bytes32"
        }
      ],
      "name": "getRoleAdmin",
      "outputs": [
        {
          "internalType": "bytes32",
          "name": "",
          "type": "bytes32"
        }
      ],
      "stateMutability": "view",
      "type": "function"
    },
    {
      "inputs": [
        {
          "internalType": "bytes32",
          "name": "role",
          "type": "bytes32"
        },
        {
          "internalType": "address",
          "name": "account",
          "type": "address"
        }
      ],
      "name": "grantRole",
      "outputs": [],
      "stateMutability": "nonpayable",
      "type": "function"
    },
    {
      "inputs": [
        {
          "internalType": "bytes32",
          "name": "role",
          "type": "bytes32"
        },
        {
          "internalType": "address",
          "name": "account",
          "type": "address"
        }
      ],
      "name": "hasRole",
      "outputs": [
        {
          "internalType": "bool",
          "name": "",
          "type": "bool"
        }
      ],
      "stateMutability": "view",
      "type": "function"
    },
    {
      "inputs": [
        {
          "internalType": "address",
          "name": "devopsWallet_",
          "type": "address"
        },
        {
          "internalType": "address",
          "name": "evergreenManagementWallet_",
          "type": "address"
        }
      ],
      "name": "initialize",
      "outputs": [],
      "stateMutability": "nonpayable",
      "type": "function"
    },
    {
      "inputs": [],
      "name": "proxiableUUID",
      "outputs": [
        {
          "internalType": "bytes32",
          "name": "",
          "type": "bytes32"
        }
      ],
      "stateMutability": "view",
      "type": "function"
    },
    {
      "inputs": [
        {
          "internalType": "address",
          "name": "token",
          "type": "address"
        }
      ],
      "name": "removeTokenPriceFeed",
      "outputs": [],
      "stateMutability": "nonpayable",
      "type": "function"
    },
    {
      "inputs": [
        {
          "internalType": "bytes32",
          "name": "role",
          "type": "bytes32"
        },
        {
          "internalType": "address",
          "name": "account",
          "type": "address"
        }
      ],
      "name": "renounceRole",
      "outputs": [],
      "stateMutability": "nonpayable",
      "type": "function"
    },
    {
      "inputs": [
        {
          "internalType": "bytes32",
          "name": "role",
          "type": "bytes32"
        },
        {
          "internalType": "address",
          "name": "account",
          "type": "address"
        }
      ],
      "name": "revokeRole",
      "outputs": [],
      "stateMutability": "nonpayable",
      "type": "function"
    },
    {
      "inputs": [
        {
          "internalType": "bytes4",
          "name": "interfaceId",
          "type": "bytes4"
        }
      ],
      "name": "supportsInterface",
      "outputs": [
        {
          "internalType": "bool",
          "name": "",
          "type": "bool"
        }
      ],
      "stateMutability": "view",
      "type": "function"
    },
    {
      "inputs": [
        {
          "internalType": "address",
          "name": "newImplementation",
          "type": "address"
        }
      ],
      "name": "upgradeTo",
      "outputs": [],
      "stateMutability": "nonpayable",
      "type": "function"
    },
    {
      "inputs": [
        {
          "internalType": "address",
          "name": "newImplementation",
          "type": "address"
        },
        {
          "internalType": "bytes",
          "name": "data",
          "type": "bytes"
        }
      ],
      "name": "upgradeToAndCall",
      "outputs": [],
      "stateMutability": "payable",
      "type": "function"
    },
    {
      "inputs": [
        {
          "internalType": "address",
          "name": "token",
          "type": "address"
        },
        {
          "internalType": "uint256",
          "name": "amount",
          "type": "uint256"
        }
      ],
      "name": "usdValueOfTokens",
      "outputs": [
        {
          "components": [
            {
              "internalType": "uint256",
              "name": "mantissa",
              "type": "uint256"
            }
          ],
          "internalType": "struct ExponentialNoError.Exp",
          "name": "",
          "type": "tuple"
        }
      ],
      "stateMutability": "view",
      "type": "function"
    },
    {
      "inputs": [],
      "name": "version",
      "outputs": [
        {
          "internalType": "string",
          "name": "",
          "type": "string"
        }
      ],
      "stateMutability": "view",
      "type": "function"
    }
  ],
  "bytecode": "0x60a06040523060805234801561001457600080fd5b5061001d610022565b6100e1565b600054610100900460ff161561008e5760405162461bcd60e51b815260206004820152602760248201527f496e697469616c697a61626c653a20636f6e747261637420697320696e697469604482015266616c697a696e6760c81b606482015260840160405180910390fd5b60005460ff908116146100df576000805460ff191660ff9081179091556040519081527f7f26b83ff96e1f2b6a682f133852f6798a09c465da95921460cefb38474024989060200160405180910390a15b565b60805161194161011860003960008181610592015281816105d20152818161083a0152818161087a01526108f201526119416000f3fe6080604052600436106100de5760003560e01c8063485cc95511610085578063485cc9551461023d5780634d8d59991461025d5780634f1ef2861461027d57806352d1902d1461029057806354fd4d50146102a557806391d14854146102df578063a217fddf146102ff578063ce2ff6aa14610314578063d547741f1461033457600080fd5b806301ffc9a7146100e35780630f4f276c14610118578063201a662514610147578063248a9ca3146101775780632f2ff15d146101a757806335185731146101c957806336568abe146101fd5780633659cfe61461021d575b600080fd5b3480156100ef57600080fd5b506101036100fe36600461131c565b610354565b60405190151581526020015b60405180910390f35b34801561012457600080fd5b50610138610133366004611362565b61038b565b6040519051815260200161010f565b34801561015357600080fd5b506101696000805160206118a583398151915281565b60405190815260200161010f565b34801561018357600080fd5b5061016961019236600461138c565b600090815260c9602052604090206001015490565b3480156101b357600080fd5b506101c76101c23660046113a5565b6104e0565b005b3480156101d557600080fd5b506101697f0bb5a33d705086fce426ce4e2dd59328fcdddf3164b908c4c00fd1a185a702de81565b34801561020957600080fd5b506101c76102183660046113a5565b61050a565b34801561022957600080fd5b506101c76102383660046113d1565b610588565b34801561024957600080fd5b506101c76102583660046113ec565b610650565b34801561026957600080fd5b506101c76102783660046113ec565b6107b4565b6101c761028b36600461142c565b610830565b34801561029c57600080fd5b506101696108e5565b3480156102b157600080fd5b50604080518082018252600b81526a19195d995b1bdc1b595b9d60aa1b6020820152905161010f9190611512565b3480156102eb57600080fd5b506101036102fa3660046113a5565b610993565b34801561030b57600080fd5b50610169600081565b34801561032057600080fd5b506101c761032f3660046113d1565b6109be565b34801561034057600080fd5b506101c761034f3660046113a5565b610a38565b60006001600160e01b03198216637965db0b60e01b148061038557506301ffc9a760e01b6001600160e01b03198316145b92915050565b6040805160208101909152600081526001600160a01b03838116600090815260fb6020526040902054166103dd5782604051632a4f499d60e21b81526004016103d49190611545565b60405180910390fd5b60006103e884610a5d565b905060006103f585610ae7565b905060008590506000816001600160a01b031663313ce5676040518163ffffffff1660e01b8152600401602060405180830381865afa15801561043c573d6000803e3d6000fd5b505050506040513d601f19601f820116820180604052508101906104609190611559565b90506104d5604051806020016040528083600a61047d9190611676565b61048f670de0b6b3a76400008b611685565b610499919061169c565b90526040805160208101909152806104b287600a611676565b6104c4670de0b6b3a76400008a611685565b6104ce919061169c565b9052610b62565b979650505050505050565b600082815260c960205260409020600101546104fb81610baa565b6105058383610bb4565b505050565b6001600160a01b038116331461057a5760405162461bcd60e51b815260206004820152602f60248201527f416363657373436f6e74726f6c3a2063616e206f6e6c792072656e6f756e636560448201526e103937b632b9903337b91039b2b63360891b60648201526084016103d4565b6105848282610c3a565b5050565b6001600160a01b037f00000000000000000000000000000000000000000000000000000000000000001630036105d05760405162461bcd60e51b81526004016103d4906116be565b7f00000000000000000000000000000000000000000000000000000000000000006001600160a01b0316610602610ca1565b6001600160a01b0316146106285760405162461bcd60e51b81526004016103d49061170a565b61063181610cbd565b6040805160008082526020820190925261064d91839190610cd5565b50565b600054610100900460ff16158080156106705750600054600160ff909116105b80610691575061067f30610e40565b158015610691575060005460ff166001145b6106f45760405162461bcd60e51b815260206004820152602e60248201527f496e697469616c697a61626c653a20636f6e747261637420697320616c72656160448201526d191e481a5b9a5d1a585b1a5e995960921b60648201526084016103d4565b6000805460ff191660011790558015610717576000805461ff0019166101001790555b61071f610e4f565b610727610e4f565b61073f6000805160206118a583398151915284610bb4565b6107697f0bb5a33d705086fce426ce4e2dd59328fcdddf3164b908c4c00fd1a185a702de83610bb4565b8015610505576000805461ff0019169055604051600181527f7f26b83ff96e1f2b6a682f133852f6798a09c465da95921460cefb3847402498906020015b60405180910390a1505050565b6000805160206118a58339815191526107cc81610baa565b6001600160a01b03838116600081815260fb602090815260409182902080546001600160a01b031916948716948517905581519283528201929092527f950d6b0fc92ec932fc49a6ea1af2dded2fac58d5464090ceece194b1f1e624f391016107a7565b6001600160a01b037f00000000000000000000000000000000000000000000000000000000000000001630036108785760405162461bcd60e51b81526004016103d4906116be565b7f00000000000000000000000000000000000000000000000000000000000000006001600160a01b03166108aa610ca1565b6001600160a01b0316146108d05760405162461bcd60e51b81526004016103d49061170a565b6108d982610cbd565b61058482826001610cd5565b6000306001600160a01b037f000000000000000000000000000000000000000000000000000000000000000016146109805760405162461bcd60e51b815260206004820152603860248201527f555550535570677261646561626c653a206d757374206e6f742062652063616c6044820152771b1959081d1a1c9bdd59da0819195b1959d85d1958d85b1b60421b60648201526084016103d4565b506000805160206118c583398151915290565b600091825260c9602090815260408084206001600160a01b0393909316845291905290205460ff1690565b6000805160206118a58339815191526109d681610baa565b6001600160a01b038216600090815260fb60205260409081902080546001600160a01b0319169055517ffbc2f2231449137043afaa28222f673d780c0e7449d25d2c98ea791db929204c90610a2c908490611545565b60405180910390a15050565b600082815260c96020526040902060010154610a5381610baa565b6105058383610c3a565b6001600160a01b03808216600090815260fb6020526040808220548151633fabe5a360e21b815291519293849391169163feaf968c9160048083019260a09291908290030181865afa158015610ab7573d6000803e3d6000fd5b505050506040513d601f19601f82011682018060405250810190610adb9190611770565b50919695505050505050565b6001600160a01b03808216600090815260fb6020908152604080832054815163313ce56760e01b815291519394169263313ce567926004808401939192918290030181865afa158015610b3e573d6000803e3d6000fd5b505050506040513d601f19601f820116820180604052508101906103859190611559565b6040805160208101909152600081526040518060200160405280670de0b6b3a7640000610b9786600001518660000151610ebc565b610ba1919061169c565b90529392505050565b61064d8133610ecf565b610bbe8282610993565b61058457600082815260c9602090815260408083206001600160a01b03851684529091529020805460ff19166001179055610bf63390565b6001600160a01b0316816001600160a01b0316837f2f8788117e7eff1d82e926ec794901d17c78024a50270940304540a733656f0d60405160405180910390a45050565b610c448282610993565b1561058457600082815260c9602090815260408083206001600160a01b0385168085529252808320805460ff1916905551339285917ff6391f5c32d9c69d2a47ea670b442974b53935d1edc7fd64eb21e047a839171b9190a45050565b6000805160206118c5833981519152546001600160a01b031690565b6000805160206118a583398151915261058481610baa565b7f4910fdfa16fed3260ed0e7147f7cc6da11a60208b5b9406d12a635614ffd91435460ff1615610d085761050583610f28565b826001600160a01b03166352d1902d6040518163ffffffff1660e01b8152600401602060405180830381865afa925050508015610d62575060408051601f3d908101601f19168201909252610d5f918101906117c0565b60015b610dc55760405162461bcd60e51b815260206004820152602e60248201527f45524331393637557067726164653a206e657720696d706c656d656e7461746960448201526d6f6e206973206e6f74205555505360901b60648201526084016103d4565b6000805160206118c58339815191528114610e345760405162461bcd60e51b815260206004820152602960248201527f45524331393637557067726164653a20756e737570706f727465642070726f786044820152681a58589b195555525160ba1b60648201526084016103d4565b50610505838383610fc2565b6001600160a01b03163b151590565b600054610100900460ff16610eba5760405162461bcd60e51b815260206004820152602b60248201527f496e697469616c697a61626c653a20636f6e7472616374206973206e6f74206960448201526a6e697469616c697a696e6760a81b60648201526084016103d4565b565b6000610ec88284611685565b9392505050565b610ed98282610993565b61058457610ee681610fed565b610ef1836020610fff565b604051602001610f029291906117d9565b60408051601f198184030181529082905262461bcd60e51b82526103d491600401611512565b610f3181610e40565b610f935760405162461bcd60e51b815260206004820152602d60248201527f455243313936373a206e657720696d706c656d656e746174696f6e206973206e60448201526c1bdd08184818dbdb9d1c9858dd609a1b60648201526084016103d4565b6000805160206118c583398151915280546001600160a01b0319166001600160a01b0392909216919091179055565b610fcb8361119b565b600082511180610fd85750805b1561050557610fe783836111db565b50505050565b60606103856001600160a01b03831660145b6060600061100e836002611685565b611019906002611848565b67ffffffffffffffff81111561103157611031611416565b6040519080825280601f01601f19166020018201604052801561105b576020820181803683370190505b509050600360fc1b816000815181106110765761107661185b565b60200101906001600160f81b031916908160001a905350600f60fb1b816001815181106110a5576110a561185b565b60200101906001600160f81b031916908160001a90535060006110c9846002611685565b6110d4906001611848565b90505b600181111561114c576f181899199a1a9b1b9c1cb0b131b232b360811b85600f16601081106111085761110861185b565b1a60f81b82828151811061111e5761111e61185b565b60200101906001600160f81b031916908160001a90535060049490941c9361114581611871565b90506110d7565b508315610ec85760405162461bcd60e51b815260206004820181905260248201527f537472696e67733a20686578206c656e67746820696e73756666696369656e7460448201526064016103d4565b6111a481610f28565b6040516001600160a01b038216907fbc7cd75a20ee27fd9adebab32041f755214dbc6bffa90cc0225b39da2e5c2d3b90600090a250565b6060610ec883836040518060600160405280602781526020016118e5602791396060600080856001600160a01b0316856040516112189190611888565b600060405180830381855af49150503d8060008114611253576040519150601f19603f3d011682016040523d82523d6000602084013e611258565b606091505b509150915061126986838387611273565b9695505050505050565b606083156112e05782516000036112d95761128d85610e40565b6112d95760405162461bcd60e51b815260206004820152601d60248201527f416464726573733a2063616c6c20746f206e6f6e2d636f6e747261637400000060448201526064016103d4565b50816112ea565b6112ea83836112f2565b949350505050565b8151156113025781518083602001fd5b8060405162461bcd60e51b81526004016103d49190611512565b60006020828403121561132e57600080fd5b81356001600160e01b031981168114610ec857600080fd5b80356001600160a01b038116811461135d57600080fd5b919050565b6000806040838503121561137557600080fd5b61137e83611346565b946020939093013593505050565b60006020828403121561139e57600080fd5b5035919050565b600080604083850312156113b857600080fd5b823591506113c860208401611346565b90509250929050565b6000602082840312156113e357600080fd5b610ec882611346565b600080604083850312156113ff57600080fd5b61140883611346565b91506113c860208401611346565b634e487b7160e01b600052604160045260246000fd5b6000806040838503121561143f57600080fd5b61144883611346565b9150602083013567ffffffffffffffff8082111561146557600080fd5b818501915085601f83011261147957600080fd5b81358181111561148b5761148b611416565b604051601f8201601f19908116603f011681019083821181831017156114b3576114b3611416565b816040528281528860208487010111156114cc57600080fd5b8260208601602083013760006020848301015280955050505050509250929050565b60005b838110156115095781810151838201526020016114f1565b50506000910152565b60208152600082518060208401526115318160408501602087016114ee565b601f01601f19169190910160400192915050565b6001600160a01b0391909116815260200190565b60006020828403121561156b57600080fd5b815160ff81168114610ec857600080fd5b634e487b7160e01b600052601160045260246000fd5b600181815b808511156115cd5781600019048211156115b3576115b361157c565b808516156115c057918102915b93841c9390800290611597565b509250929050565b6000826115e457506001610385565b816115f157506000610385565b816001811461160757600281146116115761162d565b6001915050610385565b60ff8411156116225761162261157c565b50506001821b610385565b5060208310610133831016604e8410600b8410161715611650575081810a610385565b61165a8383611592565b806000190482111561166e5761166e61157c565b029392505050565b6000610ec860ff8416836115d5565b80820281158282048414176103855761038561157c565b6000826116b957634e487b7160e01b600052601260045260246000fd5b500490565b6020808252602c908201527f46756e6374696f6e206d7573742062652063616c6c6564207468726f7567682060408201526b19195b1959d85d1958d85b1b60a21b606082015260800190565b6020808252602c908201527f46756e6374696f6e206d7573742062652063616c6c6564207468726f7567682060408201526b6163746976652070726f787960a01b606082015260800190565b805169ffffffffffffffffffff8116811461135d57600080fd5b600080600080600060a0868803121561178857600080fd5b61179186611756565b94506020860151935060408601519250606086015191506117b460808701611756565b90509295509295909350565b6000602082840312156117d257600080fd5b5051919050565b76020b1b1b2b9b9a1b7b73a3937b61d1030b1b1b7bab73a1604d1b81526000835161180b8160178501602088016114ee565b7001034b99036b4b9b9b4b733903937b6329607d1b601791840191820152835161183c8160288401602088016114ee565b01602801949350505050565b808201808211156103855761038561157c565b634e487b7160e01b600052603260045260246000fd5b6000816118805761188061157c565b506000190190565b6000825161189a8184602087016114ee565b919091019291505056fe793a6c9b7e0a9549c74edc2f9ae0dc50903dfaa9a56fb0116b27a8c71de3e2c6360894a13ba1a3210667c828492db98dca3e2076cc3735a920a3ca505d382bbc416464726573733a206c6f772d6c6576656c2064656c65676174652063616c6c206661696c6564a2646970667358221220c03919c0e68c3e3836d0c890278ad7df586869d75f629d0f5358cfcbf1a5d7c364736f6c63430008120033",
  "linkReferences": {},
  "deployedLinkReferences": {}
}