{
  "_format": "hh-sol-artifact-1",
  "contractName": "TermPriceConsumerV3",
  "sourceName": "contracts/TermPriceConsumerV3.sol",
  "abi": [
    {
      "inputs": [],
      "stateMutability": "nonpayable",
      "type": "constructor"
    },
    {
      "inputs": [
        {
          "internalType": "address",
          "name": "tokenAddress",
          "type": "address"
        }
      ],
      "name": "NoPriceFeed",
      "type": "error"
    },
    {
      "anonymous": false,
      "inputs": [
        {
          "indexed": false,
          "internalType": "address",
          "name": "previousAdmin",
          "type": "address"
        },
        {
          "indexed": false,
          "internalType": "address",
          "name": "newAdmin",
          "type": "address"
        }
      ],
      "name": "AdminChanged",
      "type": "event"
    },
    {
      "anonymous": false,
      "inputs": [
        {
          "indexed": true,
          "internalType": "address",
          "name": "beacon",
          "type": "address"
        }
      ],
      "name": "BeaconUpgraded",
      "type": "event"
    },
    {
      "anonymous": false,
      "inputs": [
        {
          "indexed": false,
          "internalType": "uint8",
          "name": "version",
          "type": "uint8"
        }
      ],
      "name": "Initialized",
      "type": "event"
    },
    {
      "anonymous": false,
      "inputs": [
        {
          "indexed": true,
          "internalType": "bytes32",
          "name": "role",
          "type": "bytes32"
        },
        {
          "indexed": true,
          "internalType": "bytes32",
          "name": "previousAdminRole",
          "type": "bytes32"
        },
        {
          "indexed": true,
          "internalType": "bytes32",
          "name": "newAdminRole",
          "type": "bytes32"
        }
      ],
      "name": "RoleAdminChanged",
      "type": "event"
    },
    {
      "anonymous": false,
      "inputs": [
        {
          "indexed": true,
          "internalType": "bytes32",
          "name": "role",
          "type": "bytes32"
        },
        {
          "indexed": true,
          "internalType": "address",
          "name": "account",
          "type": "address"
        },
        {
          "indexed": true,
          "internalType": "address",
          "name": "sender",
          "type": "address"
        }
      ],
      "name": "RoleGranted",
      "type": "event"
    },
    {
      "anonymous": false,
      "inputs": [
        {
          "indexed": true,
          "internalType": "bytes32",
          "name": "role",
          "type": "bytes32"
        },
        {
          "indexed": true,
          "internalType": "address",
          "name": "account",
          "type": "address"
        },
        {
          "indexed": true,
          "internalType": "address",
          "name": "sender",
          "type": "address"
        }
      ],
      "name": "RoleRevoked",
      "type": "event"
    },
    {
      "anonymous": false,
      "inputs": [
        {
          "indexed": false,
          "internalType": "address",
          "name": "token",
          "type": "address"
        },
        {
          "indexed": false,
          "internalType": "address",
          "name": "tokenPriceAggregator",
          "type": "address"
        }
      ],
      "name": "SubscribePriceFeed",
      "type": "event"
    },
    {
      "anonymous": false,
      "inputs": [
        {
          "indexed": false,
          "internalType": "address",
          "name": "token",
          "type": "address"
        }
      ],
      "name": "UnsubscribePriceFeed",
      "type": "event"
    },
    {
      "anonymous": false,
      "inputs": [
        {
          "indexed": true,
          "internalType": "address",
          "name": "implementation",
          "type": "address"
        }
      ],
      "name": "Upgraded",
      "type": "event"
    },
    {
      "inputs": [],
      "name": "DEFAULT_ADMIN_ROLE",
      "outputs": [
        {
          "internalType": "bytes32",
          "name": "",
          "type": "bytes32"
        }
      ],
      "stateMutability": "view",
      "type": "function"
    },
    {
      "inputs": [],
      "name": "DEVOPS_ROLE",
      "outputs": [
        {
          "internalType": "bytes32",
          "name": "",
          "type": "bytes32"
        }
      ],
      "stateMutability": "view",
      "type": "function"
    },
    {
      "inputs": [
        {
          "internalType": "address",
          "name": "token",
          "type": "address"
        },
        {
          "internalType": "address",
          "name": "tokenPriceAggregator",
          "type": "address"
        }
      ],
      "name": "addNewTokenPriceFeed",
      "outputs": [],
      "stateMutability": "nonpayable",
      "type": "function"
    },
    {
      "inputs": [
        {
          "internalType": "bytes32",
          "name": "role",
          "type": "bytes32"
        }
      ],
      "name": "getRoleAdmin",
      "outputs": [
        {
          "internalType": "bytes32",
          "name": "",
          "type": "bytes32"
        }
      ],
      "stateMutability": "view",
      "type": "function"
    },
    {
      "inputs": [
        {
          "internalType": "bytes32",
          "name": "role",
          "type": "bytes32"
        },
        {
          "internalType": "address",
          "name": "account",
          "type": "address"
        }
      ],
      "name": "grantRole",
      "outputs": [],
      "stateMutability": "nonpayable",
      "type": "function"
    },
    {
      "inputs": [
        {
          "internalType": "bytes32",
          "name": "role",
          "type": "bytes32"
        },
        {
          "internalType": "address",
          "name": "account",
          "type": "address"
        }
      ],
      "name": "hasRole",
      "outputs": [
        {
          "internalType": "bool",
          "name": "",
          "type": "bool"
        }
      ],
      "stateMutability": "view",
      "type": "function"
    },
    {
      "inputs": [
        {
          "internalType": "address",
          "name": "devopsWallet_",
          "type": "address"
        }
      ],
      "name": "initialize",
      "outputs": [],
      "stateMutability": "nonpayable",
      "type": "function"
    },
    {
      "inputs": [],
      "name": "proxiableUUID",
      "outputs": [
        {
          "internalType": "bytes32",
          "name": "",
          "type": "bytes32"
        }
      ],
      "stateMutability": "view",
      "type": "function"
    },
    {
      "inputs": [
        {
          "internalType": "address",
          "name": "token",
          "type": "address"
        }
      ],
      "name": "removeTokenPriceFeed",
      "outputs": [],
      "stateMutability": "nonpayable",
      "type": "function"
    },
    {
      "inputs": [
        {
          "internalType": "bytes32",
          "name": "role",
          "type": "bytes32"
        },
        {
          "internalType": "address",
          "name": "account",
          "type": "address"
        }
      ],
      "name": "renounceRole",
      "outputs": [],
      "stateMutability": "nonpayable",
      "type": "function"
    },
    {
      "inputs": [
        {
          "internalType": "bytes32",
          "name": "role",
          "type": "bytes32"
        },
        {
          "internalType": "address",
          "name": "account",
          "type": "address"
        }
      ],
      "name": "revokeRole",
      "outputs": [],
      "stateMutability": "nonpayable",
      "type": "function"
    },
    {
      "inputs": [
        {
          "internalType": "bytes4",
          "name": "interfaceId",
          "type": "bytes4"
        }
      ],
      "name": "supportsInterface",
      "outputs": [
        {
          "internalType": "bool",
          "name": "",
          "type": "bool"
        }
      ],
      "stateMutability": "view",
      "type": "function"
    },
    {
      "inputs": [
        {
          "internalType": "address",
          "name": "newImplementation",
          "type": "address"
        }
      ],
      "name": "upgradeTo",
      "outputs": [],
      "stateMutability": "nonpayable",
      "type": "function"
    },
    {
      "inputs": [
        {
          "internalType": "address",
          "name": "newImplementation",
          "type": "address"
        },
        {
          "internalType": "bytes",
          "name": "data",
          "type": "bytes"
        }
      ],
      "name": "upgradeToAndCall",
      "outputs": [],
      "stateMutability": "payable",
      "type": "function"
    },
    {
      "inputs": [
        {
          "internalType": "address",
          "name": "token",
          "type": "address"
        },
        {
          "internalType": "uint256",
          "name": "amount",
          "type": "uint256"
        }
      ],
      "name": "usdValueOfTokens",
      "outputs": [
        {
          "components": [
            {
              "internalType": "uint256",
              "name": "mantissa",
              "type": "uint256"
            }
          ],
          "internalType": "struct ExponentialNoError.Exp",
          "name": "",
          "type": "tuple"
        }
      ],
      "stateMutability": "view",
      "type": "function"
    },
    {
      "inputs": [],
      "name": "version",
      "outputs": [
        {
          "internalType": "string",
          "name": "",
          "type": "string"
        }
      ],
      "stateMutability": "view",
      "type": "function"
    }
  ],
  "bytecode": "0x60a06040523060805234801561001457600080fd5b5061001d610022565b6100e1565b600054610100900460ff161561008e5760405162461bcd60e51b815260206004820152602760248201527f496e697469616c697a61626c653a20636f6e747261637420697320696e697469604482015266616c697a696e6760c81b606482015260840160405180910390fd5b60005460ff908116146100df576000805460ff191660ff9081179091556040519081527f7f26b83ff96e1f2b6a682f133852f6798a09c465da95921460cefb38474024989060200160405180910390a15b565b6080516118d361011860003960008181610553015281816105930152818161069f015281816106df015261075701526118d36000f3fe6080604052600436106100d35760003560e01c80634f1ef2861161007a5780634f1ef2861461021e57806352d1902d1461023157806354fd4d501461024657806391d1485414610280578063a217fddf146102a0578063c4d66de8146102b5578063ce2ff6aa146102d5578063d547741f146102f557600080fd5b806301ffc9a7146100d85780630f4f276c1461010d578063201a66251461013c578063248a9ca31461016c5780632f2ff15d1461019c57806336568abe146101be5780633659cfe6146101de5780634d8d5999146101fe575b600080fd5b3480156100e457600080fd5b506100f86100f33660046112ae565b610315565b60405190151581526020015b60405180910390f35b34801561011957600080fd5b5061012d6101283660046112f4565b61034c565b60405190518152602001610104565b34801561014857600080fd5b5061015e60008051602061183783398151915281565b604051908152602001610104565b34801561017857600080fd5b5061015e61018736600461131e565b600090815260c9602052604090206001015490565b3480156101a857600080fd5b506101bc6101b7366004611337565b6104a1565b005b3480156101ca57600080fd5b506101bc6101d9366004611337565b6104cb565b3480156101ea57600080fd5b506101bc6101f9366004611363565b610549565b34801561020a57600080fd5b506101bc61021936600461137e565b610611565b6101bc61022c3660046113be565b610695565b34801561023d57600080fd5b5061015e61074a565b34801561025257600080fd5b50604080518082018252600b81526a19195d995b1bdc1b595b9d60aa1b6020820152905161010491906114a4565b34801561028c57600080fd5b506100f861029b366004611337565b6107f8565b3480156102ac57600080fd5b5061015e600081565b3480156102c157600080fd5b506101bc6102d0366004611363565b610823565b3480156102e157600080fd5b506101bc6102f0366004611363565b61095c565b34801561030157600080fd5b506101bc610310366004611337565b6109ca565b60006001600160e01b03198216637965db0b60e01b148061034657506301ffc9a760e01b6001600160e01b03198316145b92915050565b6040805160208101909152600081526001600160a01b03838116600090815260fb60205260409020541661039e5782604051632a4f499d60e21b815260040161039591906114d7565b60405180910390fd5b60006103a9846109ef565b905060006103b685610a79565b905060008590506000816001600160a01b031663313ce5676040518163ffffffff1660e01b8152600401602060405180830381865afa1580156103fd573d6000803e3d6000fd5b505050506040513d601f19601f8201168201806040525081019061042191906114eb565b9050610496604051806020016040528083600a61043e9190611608565b610450670de0b6b3a76400008b611617565b61045a919061162e565b905260408051602081019091528061047387600a611608565b610485670de0b6b3a76400008a611617565b61048f919061162e565b9052610af4565b979650505050505050565b600082815260c960205260409020600101546104bc81610b3c565b6104c68383610b46565b505050565b6001600160a01b038116331461053b5760405162461bcd60e51b815260206004820152602f60248201527f416363657373436f6e74726f6c3a2063616e206f6e6c792072656e6f756e636560448201526e103937b632b9903337b91039b2b63360891b6064820152608401610395565b6105458282610bcc565b5050565b6001600160a01b037f00000000000000000000000000000000000000000000000000000000000000001630036105915760405162461bcd60e51b815260040161039590611650565b7f00000000000000000000000000000000000000000000000000000000000000006001600160a01b03166105c3610c33565b6001600160a01b0316146105e95760405162461bcd60e51b81526004016103959061169c565b6105f281610c4f565b6040805160008082526020820190925261060e91839190610c67565b50565b60008051602061183783398151915261062981610b3c565b6001600160a01b03838116600081815260fb602090815260409182902080546001600160a01b031916948716948517905581519283528201929092527f950d6b0fc92ec932fc49a6ea1af2dded2fac58d5464090ceece194b1f1e624f3910160405180910390a1505050565b6001600160a01b037f00000000000000000000000000000000000000000000000000000000000000001630036106dd5760405162461bcd60e51b815260040161039590611650565b7f00000000000000000000000000000000000000000000000000000000000000006001600160a01b031661070f610c33565b6001600160a01b0316146107355760405162461bcd60e51b81526004016103959061169c565b61073e82610c4f565b61054582826001610c67565b6000306001600160a01b037f000000000000000000000000000000000000000000000000000000000000000016146107e55760405162461bcd60e51b815260206004820152603860248201527f555550535570677261646561626c653a206d757374206e6f742062652063616c6044820152771b1959081d1a1c9bdd59da0819195b1959d85d1958d85b1b60421b6064820152608401610395565b5060008051602061185783398151915290565b600091825260c9602090815260408084206001600160a01b0393909316845291905290205460ff1690565b600054610100900460ff16158080156108435750600054600160ff909116105b80610864575061085230610dd2565b158015610864575060005460ff166001145b6108c75760405162461bcd60e51b815260206004820152602e60248201527f496e697469616c697a61626c653a20636f6e747261637420697320616c72656160448201526d191e481a5b9a5d1a585b1a5e995960921b6064820152608401610395565b6000805460ff1916600117905580156108ea576000805461ff0019166101001790555b6108f2610de1565b6108fa610de1565b61091260008051602061183783398151915283610b46565b8015610545576000805461ff0019169055604051600181527f7f26b83ff96e1f2b6a682f133852f6798a09c465da95921460cefb3847402498906020015b60405180910390a15050565b60008051602061183783398151915261097481610b3c565b6001600160a01b038216600090815260fb60205260409081902080546001600160a01b0319169055517ffbc2f2231449137043afaa28222f673d780c0e7449d25d2c98ea791db929204c906109509084906114d7565b600082815260c960205260409020600101546109e581610b3c565b6104c68383610bcc565b6001600160a01b03808216600090815260fb6020526040808220548151633fabe5a360e21b815291519293849391169163feaf968c9160048083019260a09291908290030181865afa158015610a49573d6000803e3d6000fd5b505050506040513d601f19601f82011682018060405250810190610a6d9190611702565b50919695505050505050565b6001600160a01b03808216600090815260fb6020908152604080832054815163313ce56760e01b815291519394169263313ce567926004808401939192918290030181865afa158015610ad0573d6000803e3d6000fd5b505050506040513d601f19601f8201168201806040525081019061034691906114eb565b6040805160208101909152600081526040518060200160405280670de0b6b3a7640000610b2986600001518660000151610e4e565b610b33919061162e565b90529392505050565b61060e8133610e61565b610b5082826107f8565b61054557600082815260c9602090815260408083206001600160a01b03851684529091529020805460ff19166001179055610b883390565b6001600160a01b0316816001600160a01b0316837f2f8788117e7eff1d82e926ec794901d17c78024a50270940304540a733656f0d60405160405180910390a45050565b610bd682826107f8565b1561054557600082815260c9602090815260408083206001600160a01b0385168085529252808320805460ff1916905551339285917ff6391f5c32d9c69d2a47ea670b442974b53935d1edc7fd64eb21e047a839171b9190a45050565b600080516020611857833981519152546001600160a01b031690565b60008051602061183783398151915261054581610b3c565b7f4910fdfa16fed3260ed0e7147f7cc6da11a60208b5b9406d12a635614ffd91435460ff1615610c9a576104c683610eba565b826001600160a01b03166352d1902d6040518163ffffffff1660e01b8152600401602060405180830381865afa925050508015610cf4575060408051601f3d908101601f19168201909252610cf191810190611752565b60015b610d575760405162461bcd60e51b815260206004820152602e60248201527f45524331393637557067726164653a206e657720696d706c656d656e7461746960448201526d6f6e206973206e6f74205555505360901b6064820152608401610395565b6000805160206118578339815191528114610dc65760405162461bcd60e51b815260206004820152602960248201527f45524331393637557067726164653a20756e737570706f727465642070726f786044820152681a58589b195555525160ba1b6064820152608401610395565b506104c6838383610f54565b6001600160a01b03163b151590565b600054610100900460ff16610e4c5760405162461bcd60e51b815260206004820152602b60248201527f496e697469616c697a61626c653a20636f6e7472616374206973206e6f74206960448201526a6e697469616c697a696e6760a81b6064820152608401610395565b565b6000610e5a8284611617565b9392505050565b610e6b82826107f8565b61054557610e7881610f7f565b610e83836020610f91565b604051602001610e9492919061176b565b60408051601f198184030181529082905262461bcd60e51b8252610395916004016114a4565b610ec381610dd2565b610f255760405162461bcd60e51b815260206004820152602d60248201527f455243313936373a206e657720696d706c656d656e746174696f6e206973206e60448201526c1bdd08184818dbdb9d1c9858dd609a1b6064820152608401610395565b60008051602061185783398151915280546001600160a01b0319166001600160a01b0392909216919091179055565b610f5d8361112d565b600082511180610f6a5750805b156104c657610f79838361116d565b50505050565b60606103466001600160a01b03831660145b60606000610fa0836002611617565b610fab9060026117da565b67ffffffffffffffff811115610fc357610fc36113a8565b6040519080825280601f01601f191660200182016040528015610fed576020820181803683370190505b509050600360fc1b81600081518110611008576110086117ed565b60200101906001600160f81b031916908160001a905350600f60fb1b81600181518110611037576110376117ed565b60200101906001600160f81b031916908160001a905350600061105b846002611617565b6110669060016117da565b90505b60018111156110de576f181899199a1a9b1b9c1cb0b131b232b360811b85600f166010811061109a5761109a6117ed565b1a60f81b8282815181106110b0576110b06117ed565b60200101906001600160f81b031916908160001a90535060049490941c936110d781611803565b9050611069565b508315610e5a5760405162461bcd60e51b815260206004820181905260248201527f537472696e67733a20686578206c656e67746820696e73756666696369656e746044820152606401610395565b61113681610eba565b6040516001600160a01b038216907fbc7cd75a20ee27fd9adebab32041f755214dbc6bffa90cc0225b39da2e5c2d3b90600090a250565b6060610e5a8383604051806060016040528060278152602001611877602791396060600080856001600160a01b0316856040516111aa919061181a565b600060405180830381855af49150503d80600081146111e5576040519150601f19603f3d011682016040523d82523d6000602084013e6111ea565b606091505b50915091506111fb86838387611205565b9695505050505050565b6060831561127257825160000361126b5761121f85610dd2565b61126b5760405162461bcd60e51b815260206004820152601d60248201527f416464726573733a2063616c6c20746f206e6f6e2d636f6e74726163740000006044820152606401610395565b508161127c565b61127c8383611284565b949350505050565b8151156112945781518083602001fd5b8060405162461bcd60e51b815260040161039591906114a4565b6000602082840312156112c057600080fd5b81356001600160e01b031981168114610e5a57600080fd5b80356001600160a01b03811681146112ef57600080fd5b919050565b6000806040838503121561130757600080fd5b611310836112d8565b946020939093013593505050565b60006020828403121561133057600080fd5b5035919050565b6000806040838503121561134a57600080fd5b8235915061135a602084016112d8565b90509250929050565b60006020828403121561137557600080fd5b610e5a826112d8565b6000806040838503121561139157600080fd5b61139a836112d8565b915061135a602084016112d8565b634e487b7160e01b600052604160045260246000fd5b600080604083850312156113d157600080fd5b6113da836112d8565b9150602083013567ffffffffffffffff808211156113f757600080fd5b818501915085601f83011261140b57600080fd5b81358181111561141d5761141d6113a8565b604051601f8201601f19908116603f01168101908382118183101715611445576114456113a8565b8160405282815288602084870101111561145e57600080fd5b8260208601602083013760006020848301015280955050505050509250929050565b60005b8381101561149b578181015183820152602001611483565b50506000910152565b60208152600082518060208401526114c3816040850160208701611480565b601f01601f19169190910160400192915050565b6001600160a01b0391909116815260200190565b6000602082840312156114fd57600080fd5b815160ff81168114610e5a57600080fd5b634e487b7160e01b600052601160045260246000fd5b600181815b8085111561155f5781600019048211156115455761154561150e565b8085161561155257918102915b93841c9390800290611529565b509250929050565b60008261157657506001610346565b8161158357506000610346565b816001811461159957600281146115a3576115bf565b6001915050610346565b60ff8411156115b4576115b461150e565b50506001821b610346565b5060208310610133831016604e8410600b84101617156115e2575081810a610346565b6115ec8383611524565b80600019048211156116005761160061150e565b029392505050565b6000610e5a60ff841683611567565b80820281158282048414176103465761034661150e565b60008261164b57634e487b7160e01b600052601260045260246000fd5b500490565b6020808252602c908201527f46756e6374696f6e206d7573742062652063616c6c6564207468726f7567682060408201526b19195b1959d85d1958d85b1b60a21b606082015260800190565b6020808252602c908201527f46756e6374696f6e206d7573742062652063616c6c6564207468726f7567682060408201526b6163746976652070726f787960a01b606082015260800190565b805169ffffffffffffffffffff811681146112ef57600080fd5b600080600080600060a0868803121561171a57600080fd5b611723866116e8565b9450602086015193506040860151925060608601519150611746608087016116e8565b90509295509295909350565b60006020828403121561176457600080fd5b5051919050565b76020b1b1b2b9b9a1b7b73a3937b61d1030b1b1b7bab73a1604d1b81526000835161179d816017850160208801611480565b7001034b99036b4b9b9b4b733903937b6329607d1b60179184019182015283516117ce816028840160208801611480565b01602801949350505050565b808201808211156103465761034661150e565b634e487b7160e01b600052603260045260246000fd5b6000816118125761181261150e565b506000190190565b6000825161182c818460208701611480565b919091019291505056fe793a6c9b7e0a9549c74edc2f9ae0dc50903dfaa9a56fb0116b27a8c71de3e2c6360894a13ba1a3210667c828492db98dca3e2076cc3735a920a3ca505d382bbc416464726573733a206c6f772d6c6576656c2064656c65676174652063616c6c206661696c6564a2646970667358221220512a53affbf7e923fbc45af30cbba44d575c27b0b786a3d8826b2940076acaa764736f6c63430008120033",
  "linkReferences": {},
  "deployedLinkReferences": {}
}