{
  "_format": "hh-sol-artifact-1",
  "contractName": "TermPriceConsumerV3",
  "sourceName": "contracts/TermPriceConsumerV3.sol",
  "abi": [
    {
      "inputs": [],
      "stateMutability": "nonpayable",
      "type": "constructor"
    },
    {
      "inputs": [
        {
          "internalType": "address",
          "name": "tokenAddress",
          "type": "address"
        }
      ],
      "name": "NoPriceFeed",
      "type": "error"
    },
    {
      "anonymous": false,
      "inputs": [
        {
          "indexed": false,
          "internalType": "address",
          "name": "previousAdmin",
          "type": "address"
        },
        {
          "indexed": false,
          "internalType": "address",
          "name": "newAdmin",
          "type": "address"
        }
      ],
      "name": "AdminChanged",
      "type": "event"
    },
    {
      "anonymous": false,
      "inputs": [
        {
          "indexed": true,
          "internalType": "address",
          "name": "beacon",
          "type": "address"
        }
      ],
      "name": "BeaconUpgraded",
      "type": "event"
    },
    {
      "anonymous": false,
      "inputs": [
        {
          "indexed": false,
          "internalType": "uint8",
          "name": "version",
          "type": "uint8"
        }
      ],
      "name": "Initialized",
      "type": "event"
    },
    {
      "anonymous": false,
      "inputs": [
        {
          "indexed": true,
          "internalType": "bytes32",
          "name": "role",
          "type": "bytes32"
        },
        {
          "indexed": true,
          "internalType": "bytes32",
          "name": "previousAdminRole",
          "type": "bytes32"
        },
        {
          "indexed": true,
          "internalType": "bytes32",
          "name": "newAdminRole",
          "type": "bytes32"
        }
      ],
      "name": "RoleAdminChanged",
      "type": "event"
    },
    {
      "anonymous": false,
      "inputs": [
        {
          "indexed": true,
          "internalType": "bytes32",
          "name": "role",
          "type": "bytes32"
        },
        {
          "indexed": true,
          "internalType": "address",
          "name": "account",
          "type": "address"
        },
        {
          "indexed": true,
          "internalType": "address",
          "name": "sender",
          "type": "address"
        }
      ],
      "name": "RoleGranted",
      "type": "event"
    },
    {
      "anonymous": false,
      "inputs": [
        {
          "indexed": true,
          "internalType": "bytes32",
          "name": "role",
          "type": "bytes32"
        },
        {
          "indexed": true,
          "internalType": "address",
          "name": "account",
          "type": "address"
        },
        {
          "indexed": true,
          "internalType": "address",
          "name": "sender",
          "type": "address"
        }
      ],
      "name": "RoleRevoked",
      "type": "event"
    },
    {
      "anonymous": false,
      "inputs": [
        {
          "indexed": false,
          "internalType": "address",
          "name": "token",
          "type": "address"
        },
        {
          "indexed": false,
          "internalType": "address",
          "name": "tokenPriceAggregator",
          "type": "address"
        }
      ],
      "name": "SubscribePriceFeed",
      "type": "event"
    },
    {
      "anonymous": false,
      "inputs": [
        {
          "indexed": false,
          "internalType": "address",
          "name": "token",
          "type": "address"
        }
      ],
      "name": "UnsubscribePriceFeed",
      "type": "event"
    },
    {
      "anonymous": false,
      "inputs": [
        {
          "indexed": true,
          "internalType": "address",
          "name": "implementation",
          "type": "address"
        }
      ],
      "name": "Upgraded",
      "type": "event"
    },
    {
      "inputs": [],
      "name": "DEFAULT_ADMIN_ROLE",
      "outputs": [
        {
          "internalType": "bytes32",
          "name": "",
          "type": "bytes32"
        }
      ],
      "stateMutability": "view",
      "type": "function"
    },
    {
      "inputs": [],
      "name": "DEVOPS_ROLE",
      "outputs": [
        {
          "internalType": "bytes32",
          "name": "",
          "type": "bytes32"
        }
      ],
      "stateMutability": "view",
      "type": "function"
    },
    {
      "inputs": [],
      "name": "EVERGREEN_MANAGEMENT_ROLE",
      "outputs": [
        {
          "internalType": "bytes32",
          "name": "",
          "type": "bytes32"
        }
      ],
      "stateMutability": "view",
      "type": "function"
    },
    {
      "inputs": [
        {
          "internalType": "address",
          "name": "token",
          "type": "address"
        },
        {
          "internalType": "address",
          "name": "tokenPriceAggregator",
          "type": "address"
        }
      ],
      "name": "addNewTokenPriceFeed",
      "outputs": [],
      "stateMutability": "nonpayable",
      "type": "function"
    },
    {
      "inputs": [
        {
          "internalType": "bytes32",
          "name": "role",
          "type": "bytes32"
        }
      ],
      "name": "getRoleAdmin",
      "outputs": [
        {
          "internalType": "bytes32",
          "name": "",
          "type": "bytes32"
        }
      ],
      "stateMutability": "view",
      "type": "function"
    },
    {
      "inputs": [
        {
          "internalType": "bytes32",
          "name": "role",
          "type": "bytes32"
        },
        {
          "internalType": "address",
          "name": "account",
          "type": "address"
        }
      ],
      "name": "grantRole",
      "outputs": [],
      "stateMutability": "nonpayable",
      "type": "function"
    },
    {
      "inputs": [
        {
          "internalType": "bytes32",
          "name": "role",
          "type": "bytes32"
        },
        {
          "internalType": "address",
          "name": "account",
          "type": "address"
        }
      ],
      "name": "hasRole",
      "outputs": [
        {
          "internalType": "bool",
          "name": "",
          "type": "bool"
        }
      ],
      "stateMutability": "view",
      "type": "function"
    },
    {
      "inputs": [
        {
          "internalType": "address",
          "name": "devopsWallet_",
          "type": "address"
        },
        {
          "internalType": "address",
          "name": "evergreenManagementWallet_",
          "type": "address"
        }
      ],
      "name": "initialize",
      "outputs": [],
      "stateMutability": "nonpayable",
      "type": "function"
    },
    {
      "inputs": [],
      "name": "proxiableUUID",
      "outputs": [
        {
          "internalType": "bytes32",
          "name": "",
          "type": "bytes32"
        }
      ],
      "stateMutability": "view",
      "type": "function"
    },
    {
      "inputs": [
        {
          "internalType": "address",
          "name": "token",
          "type": "address"
        }
      ],
      "name": "removeTokenPriceFeed",
      "outputs": [],
      "stateMutability": "nonpayable",
      "type": "function"
    },
    {
      "inputs": [
        {
          "internalType": "bytes32",
          "name": "role",
          "type": "bytes32"
        },
        {
          "internalType": "address",
          "name": "account",
          "type": "address"
        }
      ],
      "name": "renounceRole",
      "outputs": [],
      "stateMutability": "nonpayable",
      "type": "function"
    },
    {
      "inputs": [
        {
          "internalType": "bytes32",
          "name": "role",
          "type": "bytes32"
        },
        {
          "internalType": "address",
          "name": "account",
          "type": "address"
        }
      ],
      "name": "revokeRole",
      "outputs": [],
      "stateMutability": "nonpayable",
      "type": "function"
    },
    {
      "inputs": [
        {
          "internalType": "bytes4",
          "name": "interfaceId",
          "type": "bytes4"
        }
      ],
      "name": "supportsInterface",
      "outputs": [
        {
          "internalType": "bool",
          "name": "",
          "type": "bool"
        }
      ],
      "stateMutability": "view",
      "type": "function"
    },
    {
      "inputs": [
        {
          "internalType": "address",
          "name": "newImplementation",
          "type": "address"
        }
      ],
      "name": "upgradeTo",
      "outputs": [],
      "stateMutability": "nonpayable",
      "type": "function"
    },
    {
      "inputs": [
        {
          "internalType": "address",
          "name": "newImplementation",
          "type": "address"
        },
        {
          "internalType": "bytes",
          "name": "data",
          "type": "bytes"
        }
      ],
      "name": "upgradeToAndCall",
      "outputs": [],
      "stateMutability": "payable",
      "type": "function"
    },
    {
      "inputs": [
        {
          "internalType": "address",
          "name": "token",
          "type": "address"
        },
        {
          "internalType": "uint256",
          "name": "amount",
          "type": "uint256"
        }
      ],
      "name": "usdValueOfTokens",
      "outputs": [
        {
          "components": [
            {
              "internalType": "uint256",
              "name": "mantissa",
              "type": "uint256"
            }
          ],
          "internalType": "struct ExponentialNoError.Exp",
          "name": "",
          "type": "tuple"
        }
      ],
      "stateMutability": "view",
      "type": "function"
    },
    {
      "inputs": [],
      "name": "version",
      "outputs": [
        {
          "internalType": "string",
          "name": "",
          "type": "string"
        }
      ],
      "stateMutability": "view",
      "type": "function"
    }
  ],
  "bytecode": "0x60a06040523060805234801561001457600080fd5b5061001d610022565b6100e1565b600054610100900460ff161561008e5760405162461bcd60e51b815260206004820152602760248201527f496e697469616c697a61626c653a20636f6e747261637420697320696e697469604482015266616c697a696e6760c81b606482015260840160405180910390fd5b60005460ff908116146100df576000805460ff191660ff9081179091556040519081527f7f26b83ff96e1f2b6a682f133852f6798a09c465da95921460cefb38474024989060200160405180910390a15b565b60805161193d61011860003960008181610580015281816105c0015281816108160152818161085601526108ce015261193d6000f3fe6080604052600436106100de5760003560e01c8063485cc95511610085578063485cc9551461022b5780634d8d59991461024b5780634f1ef2861461026b57806352d1902d1461027e57806354fd4d501461029357806391d14854146102cd578063a217fddf146102ed578063ce2ff6aa14610302578063d547741f1461032257600080fd5b806301ffc9a7146100e35780630f4f276c14610118578063201a662514610147578063248a9ca3146101775780632f2ff15d146101a757806335185731146101c957806336568abe146101eb5780633659cfe61461020b575b600080fd5b3480156100ef57600080fd5b506101036100fe3660046112f8565b610342565b60405190151581526020015b60405180910390f35b34801561012457600080fd5b5061013861013336600461133e565b610379565b6040519051815260200161010f565b34801561015357600080fd5b5061016960008051602061188183398151915281565b60405190815260200161010f565b34801561018357600080fd5b50610169610192366004611368565b600090815260c9602052604090206001015490565b3480156101b357600080fd5b506101c76101c2366004611381565b6104ce565b005b3480156101d557600080fd5b506101696000805160206118c183398151915281565b3480156101f757600080fd5b506101c7610206366004611381565b6104f8565b34801561021757600080fd5b506101c76102263660046113ad565b610576565b34801561023757600080fd5b506101c76102463660046113c8565b61063e565b34801561025757600080fd5b506101c76102663660046113c8565b610790565b6101c7610279366004611408565b61080c565b34801561028a57600080fd5b506101696108c1565b34801561029f57600080fd5b50604080518082018252600b81526a19195d995b1bdc1b595b9d60aa1b6020820152905161010f91906114ee565b3480156102d957600080fd5b506101036102e8366004611381565b61096f565b3480156102f957600080fd5b50610169600081565b34801561030e57600080fd5b506101c761031d3660046113ad565b61099a565b34801561032e57600080fd5b506101c761033d366004611381565b610a14565b60006001600160e01b03198216637965db0b60e01b148061037357506301ffc9a760e01b6001600160e01b03198316145b92915050565b6040805160208101909152600081526001600160a01b03838116600090815260fb6020526040902054166103cb5782604051632a4f499d60e21b81526004016103c29190611521565b60405180910390fd5b60006103d684610a39565b905060006103e385610ac3565b905060008590506000816001600160a01b031663313ce5676040518163ffffffff1660e01b8152600401602060405180830381865afa15801561042a573d6000803e3d6000fd5b505050506040513d601f19601f8201168201806040525081019061044e9190611535565b90506104c3604051806020016040528083600a61046b9190611652565b61047d670de0b6b3a76400008b611661565b6104879190611678565b90526040805160208101909152806104a087600a611652565b6104b2670de0b6b3a76400008a611661565b6104bc9190611678565b9052610b3e565b979650505050505050565b600082815260c960205260409020600101546104e981610b86565b6104f38383610b90565b505050565b6001600160a01b03811633146105685760405162461bcd60e51b815260206004820152602f60248201527f416363657373436f6e74726f6c3a2063616e206f6e6c792072656e6f756e636560448201526e103937b632b9903337b91039b2b63360891b60648201526084016103c2565b6105728282610c16565b5050565b6001600160a01b037f00000000000000000000000000000000000000000000000000000000000000001630036105be5760405162461bcd60e51b81526004016103c29061169a565b7f00000000000000000000000000000000000000000000000000000000000000006001600160a01b03166105f0610c7d565b6001600160a01b0316146106165760405162461bcd60e51b81526004016103c2906116e6565b61061f81610c99565b6040805160008082526020820190925261063b91839190610cb1565b50565b600054610100900460ff161580801561065e5750600054600160ff909116105b8061067f575061066d30610e1c565b15801561067f575060005460ff166001145b6106e25760405162461bcd60e51b815260206004820152602e60248201527f496e697469616c697a61626c653a20636f6e747261637420697320616c72656160448201526d191e481a5b9a5d1a585b1a5e995960921b60648201526084016103c2565b6000805460ff191660011790558015610705576000805461ff0019166101001790555b61070d610e2b565b610715610e2b565b61072d60008051602061188183398151915284610b90565b6107456000805160206118c183398151915283610b90565b80156104f3576000805461ff0019169055604051600181527f7f26b83ff96e1f2b6a682f133852f6798a09c465da95921460cefb3847402498906020015b60405180910390a1505050565b6000805160206118c18339815191526107a881610b86565b6001600160a01b03838116600081815260fb602090815260409182902080546001600160a01b031916948716948517905581519283528201929092527f950d6b0fc92ec932fc49a6ea1af2dded2fac58d5464090ceece194b1f1e624f39101610783565b6001600160a01b037f00000000000000000000000000000000000000000000000000000000000000001630036108545760405162461bcd60e51b81526004016103c29061169a565b7f00000000000000000000000000000000000000000000000000000000000000006001600160a01b0316610886610c7d565b6001600160a01b0316146108ac5760405162461bcd60e51b81526004016103c2906116e6565b6108b582610c99565b61057282826001610cb1565b6000306001600160a01b037f0000000000000000000000000000000000000000000000000000000000000000161461095c5760405162461bcd60e51b815260206004820152603860248201527f555550535570677261646561626c653a206d757374206e6f742062652063616c6044820152771b1959081d1a1c9bdd59da0819195b1959d85d1958d85b1b60421b60648201526084016103c2565b506000805160206118a183398151915290565b600091825260c9602090815260408084206001600160a01b0393909316845291905290205460ff1690565b6000805160206118c18339815191526109b281610b86565b6001600160a01b038216600090815260fb60205260409081902080546001600160a01b0319169055517ffbc2f2231449137043afaa28222f673d780c0e7449d25d2c98ea791db929204c90610a08908490611521565b60405180910390a15050565b600082815260c96020526040902060010154610a2f81610b86565b6104f38383610c16565b6001600160a01b03808216600090815260fb6020526040808220548151633fabe5a360e21b815291519293849391169163feaf968c9160048083019260a09291908290030181865afa158015610a93573d6000803e3d6000fd5b505050506040513d601f19601f82011682018060405250810190610ab7919061174c565b50919695505050505050565b6001600160a01b03808216600090815260fb6020908152604080832054815163313ce56760e01b815291519394169263313ce567926004808401939192918290030181865afa158015610b1a573d6000803e3d6000fd5b505050506040513d601f19601f820116820180604052508101906103739190611535565b6040805160208101909152600081526040518060200160405280670de0b6b3a7640000610b7386600001518660000151610e98565b610b7d9190611678565b90529392505050565b61063b8133610eab565b610b9a828261096f565b61057257600082815260c9602090815260408083206001600160a01b03851684529091529020805460ff19166001179055610bd23390565b6001600160a01b0316816001600160a01b0316837f2f8788117e7eff1d82e926ec794901d17c78024a50270940304540a733656f0d60405160405180910390a45050565b610c20828261096f565b1561057257600082815260c9602090815260408083206001600160a01b0385168085529252808320805460ff1916905551339285917ff6391f5c32d9c69d2a47ea670b442974b53935d1edc7fd64eb21e047a839171b9190a45050565b6000805160206118a1833981519152546001600160a01b031690565b60008051602061188183398151915261057281610b86565b7f4910fdfa16fed3260ed0e7147f7cc6da11a60208b5b9406d12a635614ffd91435460ff1615610ce4576104f383610f04565b826001600160a01b03166352d1902d6040518163ffffffff1660e01b8152600401602060405180830381865afa925050508015610d3e575060408051601f3d908101601f19168201909252610d3b9181019061179c565b60015b610da15760405162461bcd60e51b815260206004820152602e60248201527f45524331393637557067726164653a206e657720696d706c656d656e7461746960448201526d6f6e206973206e6f74205555505360901b60648201526084016103c2565b6000805160206118a18339815191528114610e105760405162461bcd60e51b815260206004820152602960248201527f45524331393637557067726164653a20756e737570706f727465642070726f786044820152681a58589b195555525160ba1b60648201526084016103c2565b506104f3838383610f9e565b6001600160a01b03163b151590565b600054610100900460ff16610e965760405162461bcd60e51b815260206004820152602b60248201527f496e697469616c697a61626c653a20636f6e7472616374206973206e6f74206960448201526a6e697469616c697a696e6760a81b60648201526084016103c2565b565b6000610ea48284611661565b9392505050565b610eb5828261096f565b61057257610ec281610fc9565b610ecd836020610fdb565b604051602001610ede9291906117b5565b60408051601f198184030181529082905262461bcd60e51b82526103c2916004016114ee565b610f0d81610e1c565b610f6f5760405162461bcd60e51b815260206004820152602d60248201527f455243313936373a206e657720696d706c656d656e746174696f6e206973206e60448201526c1bdd08184818dbdb9d1c9858dd609a1b60648201526084016103c2565b6000805160206118a183398151915280546001600160a01b0319166001600160a01b0392909216919091179055565b610fa783611177565b600082511180610fb45750805b156104f357610fc383836111b7565b50505050565b60606103736001600160a01b03831660145b60606000610fea836002611661565b610ff5906002611824565b67ffffffffffffffff81111561100d5761100d6113f2565b6040519080825280601f01601f191660200182016040528015611037576020820181803683370190505b509050600360fc1b8160008151811061105257611052611837565b60200101906001600160f81b031916908160001a905350600f60fb1b8160018151811061108157611081611837565b60200101906001600160f81b031916908160001a90535060006110a5846002611661565b6110b0906001611824565b90505b6001811115611128576f181899199a1a9b1b9c1cb0b131b232b360811b85600f16601081106110e4576110e4611837565b1a60f81b8282815181106110fa576110fa611837565b60200101906001600160f81b031916908160001a90535060049490941c936111218161184d565b90506110b3565b508315610ea45760405162461bcd60e51b815260206004820181905260248201527f537472696e67733a20686578206c656e67746820696e73756666696369656e7460448201526064016103c2565b61118081610f04565b6040516001600160a01b038216907fbc7cd75a20ee27fd9adebab32041f755214dbc6bffa90cc0225b39da2e5c2d3b90600090a250565b6060610ea483836040518060600160405280602781526020016118e1602791396060600080856001600160a01b0316856040516111f49190611864565b600060405180830381855af49150503d806000811461122f576040519150601f19603f3d011682016040523d82523d6000602084013e611234565b606091505b50915091506112458683838761124f565b9695505050505050565b606083156112bc5782516000036112b55761126985610e1c565b6112b55760405162461bcd60e51b815260206004820152601d60248201527f416464726573733a2063616c6c20746f206e6f6e2d636f6e747261637400000060448201526064016103c2565b50816112c6565b6112c683836112ce565b949350505050565b8151156112de5781518083602001fd5b8060405162461bcd60e51b81526004016103c291906114ee565b60006020828403121561130a57600080fd5b81356001600160e01b031981168114610ea457600080fd5b80356001600160a01b038116811461133957600080fd5b919050565b6000806040838503121561135157600080fd5b61135a83611322565b946020939093013593505050565b60006020828403121561137a57600080fd5b5035919050565b6000806040838503121561139457600080fd5b823591506113a460208401611322565b90509250929050565b6000602082840312156113bf57600080fd5b610ea482611322565b600080604083850312156113db57600080fd5b6113e483611322565b91506113a460208401611322565b634e487b7160e01b600052604160045260246000fd5b6000806040838503121561141b57600080fd5b61142483611322565b9150602083013567ffffffffffffffff8082111561144157600080fd5b818501915085601f83011261145557600080fd5b813581811115611467576114676113f2565b604051601f8201601f19908116603f0116810190838211818310171561148f5761148f6113f2565b816040528281528860208487010111156114a857600080fd5b8260208601602083013760006020848301015280955050505050509250929050565b60005b838110156114e55781810151838201526020016114cd565b50506000910152565b602081526000825180602084015261150d8160408501602087016114ca565b601f01601f19169190910160400192915050565b6001600160a01b0391909116815260200190565b60006020828403121561154757600080fd5b815160ff81168114610ea457600080fd5b634e487b7160e01b600052601160045260246000fd5b600181815b808511156115a957816000190482111561158f5761158f611558565b8085161561159c57918102915b93841c9390800290611573565b509250929050565b6000826115c057506001610373565b816115cd57506000610373565b81600181146115e357600281146115ed57611609565b6001915050610373565b60ff8411156115fe576115fe611558565b50506001821b610373565b5060208310610133831016604e8410600b841016171561162c575081810a610373565b611636838361156e565b806000190482111561164a5761164a611558565b029392505050565b6000610ea460ff8416836115b1565b808202811582820484141761037357610373611558565b60008261169557634e487b7160e01b600052601260045260246000fd5b500490565b6020808252602c908201527f46756e6374696f6e206d7573742062652063616c6c6564207468726f7567682060408201526b19195b1959d85d1958d85b1b60a21b606082015260800190565b6020808252602c908201527f46756e6374696f6e206d7573742062652063616c6c6564207468726f7567682060408201526b6163746976652070726f787960a01b606082015260800190565b805169ffffffffffffffffffff8116811461133957600080fd5b600080600080600060a0868803121561176457600080fd5b61176d86611732565b945060208601519350604086015192506060860151915061179060808701611732565b90509295509295909350565b6000602082840312156117ae57600080fd5b5051919050565b76020b1b1b2b9b9a1b7b73a3937b61d1030b1b1b7bab73a1604d1b8152600083516117e78160178501602088016114ca565b7001034b99036b4b9b9b4b733903937b6329607d1b60179184019182015283516118188160288401602088016114ca565b01602801949350505050565b8082018082111561037357610373611558565b634e487b7160e01b600052603260045260246000fd5b60008161185c5761185c611558565b506000190190565b600082516118768184602087016114ca565b919091019291505056fe793a6c9b7e0a9549c74edc2f9ae0dc50903dfaa9a56fb0116b27a8c71de3e2c6360894a13ba1a3210667c828492db98dca3e2076cc3735a920a3ca505d382bbc0bb5a33d705086fce426ce4e2dd59328fcdddf3164b908c4c00fd1a185a702de416464726573733a206c6f772d6c6576656c2064656c65676174652063616c6c206661696c6564a2646970667358221220a1902043aaef52e04cea234d7c6774a6d6e0ac71fe9e5cc5504e46b3c1255f5864736f6c63430008120033",
  "linkReferences": {},
  "deployedLinkReferences": {}
}