{
  "_format": "hh-sol-artifact-1",
  "contractName": "TermPriceConsumerV3",
  "sourceName": "contracts/TermPriceConsumerV3.sol",
  "abi": [
    {
      "inputs": [],
      "stateMutability": "nonpayable",
      "type": "constructor"
    },
    {
      "inputs": [],
      "name": "AccessControlBadConfirmation",
      "type": "error"
    },
    {
      "inputs": [
        {
          "internalType": "address",
          "name": "account",
          "type": "address"
        },
        {
          "internalType": "bytes32",
          "name": "neededRole",
          "type": "bytes32"
        }
      ],
      "name": "AccessControlUnauthorizedAccount",
      "type": "error"
    },
    {
      "inputs": [
        {
          "internalType": "address",
          "name": "target",
          "type": "address"
        }
      ],
      "name": "AddressEmptyCode",
      "type": "error"
    },
    {
      "inputs": [
        {
          "internalType": "address",
          "name": "implementation",
          "type": "address"
        }
      ],
      "name": "ERC1967InvalidImplementation",
      "type": "error"
    },
    {
      "inputs": [],
      "name": "ERC1967NonPayable",
      "type": "error"
    },
    {
      "inputs": [],
      "name": "FailedCall",
      "type": "error"
    },
    {
      "inputs": [],
      "name": "GracePeriodNotOver",
      "type": "error"
    },
    {
      "inputs": [],
      "name": "InvalidInitialization",
      "type": "error"
    },
    {
      "inputs": [],
      "name": "InvalidPrice",
      "type": "error"
    },
    {
      "inputs": [],
      "name": "InvalidUpdateTimestamp",
      "type": "error"
    },
    {
      "inputs": [
        {
          "internalType": "address",
          "name": "tokenAddress",
          "type": "address"
        }
      ],
      "name": "NoPriceFeed",
      "type": "error"
    },
    {
      "inputs": [],
      "name": "NotInitializing",
      "type": "error"
    },
    {
      "inputs": [],
      "name": "PricesStale",
      "type": "error"
    },
    {
      "inputs": [],
      "name": "SequencerDownError",
      "type": "error"
    },
    {
      "inputs": [],
      "name": "UUPSUnauthorizedCallContext",
      "type": "error"
    },
    {
      "inputs": [
        {
          "internalType": "bytes32",
          "name": "slot",
          "type": "bytes32"
        }
      ],
      "name": "UUPSUnsupportedProxiableUUID",
      "type": "error"
    },
    {
      "inputs": [],
      "name": "ZeroPrice",
      "type": "error"
    },
    {
      "anonymous": false,
      "inputs": [
        {
          "indexed": false,
          "internalType": "uint64",
          "name": "version",
          "type": "uint64"
        }
      ],
      "name": "Initialized",
      "type": "event"
    },
    {
      "anonymous": false,
      "inputs": [
        {
          "indexed": true,
          "internalType": "bytes32",
          "name": "role",
          "type": "bytes32"
        },
        {
          "indexed": true,
          "internalType": "bytes32",
          "name": "previousAdminRole",
          "type": "bytes32"
        },
        {
          "indexed": true,
          "internalType": "bytes32",
          "name": "newAdminRole",
          "type": "bytes32"
        }
      ],
      "name": "RoleAdminChanged",
      "type": "event"
    },
    {
      "anonymous": false,
      "inputs": [
        {
          "indexed": true,
          "internalType": "bytes32",
          "name": "role",
          "type": "bytes32"
        },
        {
          "indexed": true,
          "internalType": "address",
          "name": "account",
          "type": "address"
        },
        {
          "indexed": true,
          "internalType": "address",
          "name": "sender",
          "type": "address"
        }
      ],
      "name": "RoleGranted",
      "type": "event"
    },
    {
      "anonymous": false,
      "inputs": [
        {
          "indexed": true,
          "internalType": "bytes32",
          "name": "role",
          "type": "bytes32"
        },
        {
          "indexed": true,
          "internalType": "address",
          "name": "account",
          "type": "address"
        },
        {
          "indexed": true,
          "internalType": "address",
          "name": "sender",
          "type": "address"
        }
      ],
      "name": "RoleRevoked",
      "type": "event"
    },
    {
      "anonymous": false,
      "inputs": [
        {
          "indexed": false,
          "internalType": "address",
          "name": "token",
          "type": "address"
        },
        {
          "indexed": false,
          "internalType": "address",
          "name": "tokenPriceAggregator",
          "type": "address"
        }
      ],
      "name": "SubscribeFallbackPriceFeed",
      "type": "event"
    },
    {
      "anonymous": false,
      "inputs": [
        {
          "indexed": false,
          "internalType": "address",
          "name": "token",
          "type": "address"
        },
        {
          "indexed": false,
          "internalType": "address",
          "name": "tokenPriceAggregator",
          "type": "address"
        }
      ],
      "name": "SubscribePriceFeed",
      "type": "event"
    },
    {
      "anonymous": false,
      "inputs": [
        {
          "indexed": false,
          "internalType": "address",
          "name": "token",
          "type": "address"
        }
      ],
      "name": "UnsubscribeFallbackPriceFeed",
      "type": "event"
    },
    {
      "anonymous": false,
      "inputs": [
        {
          "indexed": false,
          "internalType": "address",
          "name": "token",
          "type": "address"
        }
      ],
      "name": "UnsubscribePriceFeed",
      "type": "event"
    },
    {
      "anonymous": false,
      "inputs": [
        {
          "indexed": true,
          "internalType": "address",
          "name": "implementation",
          "type": "address"
        }
      ],
      "name": "Upgraded",
      "type": "event"
    },
    {
      "inputs": [],
      "name": "DEFAULT_ADMIN_ROLE",
      "outputs": [
        {
          "internalType": "bytes32",
          "name": "",
          "type": "bytes32"
        }
      ],
      "stateMutability": "view",
      "type": "function"
    },
    {
      "inputs": [],
      "name": "DEFAULT_MAX_DATA_TIMESTAMP_AHEAD_SECONDS",
      "outputs": [
        {
          "internalType": "uint256",
          "name": "",
          "type": "uint256"
        }
      ],
      "stateMutability": "view",
      "type": "function"
    },
    {
      "inputs": [],
      "name": "DEVOPS_ROLE",
      "outputs": [
        {
          "internalType": "bytes32",
          "name": "",
          "type": "bytes32"
        }
      ],
      "stateMutability": "view",
      "type": "function"
    },
    {
      "inputs": [],
      "name": "UPGRADE_INTERFACE_VERSION",
      "outputs": [
        {
          "internalType": "string",
          "name": "",
          "type": "string"
        }
      ],
      "stateMutability": "view",
      "type": "function"
    },
    {
      "inputs": [
        {
          "internalType": "address",
          "name": "token",
          "type": "address"
        },
        {
          "internalType": "address",
          "name": "tokenPriceAggregator",
          "type": "address"
        },
        {
          "internalType": "uint256",
          "name": "refreshRateThreshold",
          "type": "uint256"
        }
      ],
      "name": "addNewTokenFallbackPriceFeed",
      "outputs": [],
      "stateMutability": "nonpayable",
      "type": "function"
    },
    {
      "inputs": [
        {
          "internalType": "address",
          "name": "token",
          "type": "address"
        },
        {
          "internalType": "address",
          "name": "tokenPriceAggregator",
          "type": "address"
        },
        {
          "internalType": "uint256",
          "name": "refreshRateThreshold",
          "type": "uint256"
        }
      ],
      "name": "addNewTokenPriceFeed",
      "outputs": [],
      "stateMutability": "nonpayable",
      "type": "function"
    },
    {
      "inputs": [
        {
          "internalType": "address",
          "name": "token",
          "type": "address"
        },
        {
          "internalType": "address",
          "name": "tokenPriceAggregator",
          "type": "address"
        },
        {
          "internalType": "uint256",
          "name": "tokenPriceAggregatorRefreshRateThreshold",
          "type": "uint256"
        },
        {
          "internalType": "address",
          "name": "fallbackPriceAggregator",
          "type": "address"
        },
        {
          "internalType": "uint256",
          "name": "fallbackPriceAggregatorRefreshRateThreshold",
          "type": "uint256"
        }
      ],
      "name": "addNewTokenPriceFeedAndFallbackPriceFeed",
      "outputs": [],
      "stateMutability": "nonpayable",
      "type": "function"
    },
    {
      "inputs": [
        {
          "internalType": "address",
          "name": "token",
          "type": "address"
        }
      ],
      "name": "getFallbackPriceFeedConfig",
      "outputs": [
        {
          "internalType": "address",
          "name": "fallbackPriceFeed",
          "type": "address"
        },
        {
          "internalType": "uint256",
          "name": "refreshRateThreshold",
          "type": "uint256"
        }
      ],
      "stateMutability": "view",
      "type": "function"
    },
    {
      "inputs": [
        {
          "internalType": "address",
          "name": "token",
          "type": "address"
        }
      ],
      "name": "getPriceFeedConfig",
      "outputs": [
        {
          "internalType": "address",
          "name": "priceFeed",
          "type": "address"
        },
        {
          "internalType": "uint256",
          "name": "refreshRateThreshold",
          "type": "uint256"
        }
      ],
      "stateMutability": "view",
      "type": "function"
    },
    {
      "inputs": [
        {
          "internalType": "bytes32",
          "name": "role",
          "type": "bytes32"
        }
      ],
      "name": "getRoleAdmin",
      "outputs": [
        {
          "internalType": "bytes32",
          "name": "",
          "type": "bytes32"
        }
      ],
      "stateMutability": "view",
      "type": "function"
    },
    {
      "inputs": [
        {
          "internalType": "bytes32",
          "name": "role",
          "type": "bytes32"
        },
        {
          "internalType": "address",
          "name": "account",
          "type": "address"
        }
      ],
      "name": "grantRole",
      "outputs": [],
      "stateMutability": "nonpayable",
      "type": "function"
    },
    {
      "inputs": [
        {
          "internalType": "bytes32",
          "name": "role",
          "type": "bytes32"
        },
        {
          "internalType": "address",
          "name": "account",
          "type": "address"
        }
      ],
      "name": "hasRole",
      "outputs": [
        {
          "internalType": "bool",
          "name": "",
          "type": "bool"
        }
      ],
      "stateMutability": "view",
      "type": "function"
    },
    {
      "inputs": [
        {
          "internalType": "address",
          "name": "devopsWallet_",
          "type": "address"
        }
      ],
      "name": "initialize",
      "outputs": [],
      "stateMutability": "nonpayable",
      "type": "function"
    },
    {
      "inputs": [],
      "name": "proxiableUUID",
      "outputs": [
        {
          "internalType": "bytes32",
          "name": "",
          "type": "bytes32"
        }
      ],
      "stateMutability": "view",
      "type": "function"
    },
    {
      "inputs": [
        {
          "internalType": "address",
          "name": "token",
          "type": "address"
        }
      ],
      "name": "removeFallbackTokenPriceFeed",
      "outputs": [],
      "stateMutability": "nonpayable",
      "type": "function"
    },
    {
      "inputs": [
        {
          "internalType": "address",
          "name": "token",
          "type": "address"
        }
      ],
      "name": "removeTokenPriceFeed",
      "outputs": [],
      "stateMutability": "nonpayable",
      "type": "function"
    },
    {
      "inputs": [
        {
          "internalType": "bytes32",
          "name": "role",
          "type": "bytes32"
        },
        {
          "internalType": "address",
          "name": "callerConfirmation",
          "type": "address"
        }
      ],
      "name": "renounceRole",
      "outputs": [],
      "stateMutability": "nonpayable",
      "type": "function"
    },
    {
      "inputs": [
        {
          "internalType": "bytes32",
          "name": "role",
          "type": "bytes32"
        },
        {
          "internalType": "address",
          "name": "account",
          "type": "address"
        }
      ],
      "name": "revokeRole",
      "outputs": [],
      "stateMutability": "nonpayable",
      "type": "function"
    },
    {
      "inputs": [
        {
          "internalType": "bytes4",
          "name": "interfaceId",
          "type": "bytes4"
        }
      ],
      "name": "supportsInterface",
      "outputs": [
        {
          "internalType": "bool",
          "name": "",
          "type": "bool"
        }
      ],
      "stateMutability": "view",
      "type": "function"
    },
    {
      "inputs": [
        {
          "internalType": "address",
          "name": "newImplementation",
          "type": "address"
        },
        {
          "internalType": "bytes",
          "name": "data",
          "type": "bytes"
        }
      ],
      "name": "upgradeToAndCall",
      "outputs": [],
      "stateMutability": "payable",
      "type": "function"
    },
    {
      "inputs": [
        {
          "internalType": "address",
          "name": "token",
          "type": "address"
        },
        {
          "internalType": "uint256",
          "name": "amount",
          "type": "uint256"
        }
      ],
      "name": "usdValueOfTokens",
      "outputs": [
        {
          "components": [
            {
              "internalType": "uint256",
              "name": "mantissa",
              "type": "uint256"
            }
          ],
          "internalType": "struct ExponentialNoError.Exp",
          "name": "",
          "type": "tuple"
        }
      ],
      "stateMutability": "view",
      "type": "function"
    },
    {
      "inputs": [],
      "name": "version",
      "outputs": [
        {
          "internalType": "string",
          "name": "",
          "type": "string"
        }
      ],
      "stateMutability": "view",
      "type": "function"
    }
  ],
  "bytecode": "0x60a080604052346100cc57306080527ff0c57e16840df040f15088dc2f81fe391c3923bec73e23a9662efc9c229c6a009081549060ff8260401c166100bd57506001600160401b036002600160401b031982821601610078575b60405161170190816100d2823960805181818161057c015261064b0152f35b6001600160401b031990911681179091556040519081527fc7f505b2f371ae2175ee4913f4499e1f2633a7b5936321eed1cdaeb6115181d290602090a1388080610059565b63f92ee8a960e01b8152600490fd5b600080fdfe608060408181526004918236101561001657600080fd5b600092833560e01c91826301ffc9a714610aec575081630f4f276c1461093f578163201a662514610916578163248a9ca3146108de5781632f2ff15d146108b457816336568abe1461086e57816338ff63bb146108125781634f1ef286146105ce57816352d1902d1461056757816354fd4d501461052457816391d14854146104d0578163929ac838146104b05781639a2a7b1b1461046b578163a217fddf14610450578163aa7a2cdc1461042a578163ad3cb1cc146103ed578163c4d66de8146102d0578163ce2ff6aa14610265578163d547741f1461021457508063ea6466fa146101aa578063f34dcc9f1461018f5763fcf4a90a1461011757600080fd5b3461018b57602036600319011261018b576020916001600160a01b039161018791819084610143610b3f565b1681528086522092600182519161015983610ba1565b855416948583520154948591015251928392836001600160a01b039091168152602081019190915260400190565b0390f35b5080fd5b503461018b578160031936011261018b5760209051603c8152f35b503461018b57602036600319011261018b5760207f1093a5da06a58f0fb15c9391f2457f36d022ac2f482a803bde212626f6744002916101e8610b3f565b6101f06110dc565b6001600160a01b03168085526001808452828620868155018590559051908152a180f35b9190503461026157806003193601126102615761025d91356102586001610239610b5a565b9383875260008051602061166c83398151915260205286200154611132565b611266565b5080f35b8280fd5b50503461018b57602036600319011261018b5760207ffbc2f2231449137043afaa28222f673d780c0e7449d25d2c98ea791db929204c916102a4610b3f565b6102ac6110dc565b6001600160a01b03168085528483528185208581556001018590559051908152a180f35b905034610261576020366003190112610261576102eb610b3f565b6000805160206116ac8339815191528054909281851c60ff16159291906001600160401b038216801590816103e5575b60011490816103db575b1590816103d2575b506103c457506001600160401b0319811660011784556103649190836103a9575b50610357611579565b61035f611579565b611165565b5061036d578280f35b805460ff60401b1916905551600181527fc7f505b2f371ae2175ee4913f4499e1f2633a7b5936321eed1cdaeb6115181d290602090a138808280f35b6001600160481b0319166001600160401b011784553861034e565b855163f92ee8a960e01b8152fd5b9050153861032d565b303b159150610325565b85915061031b565b50503461018b578160031936011261018b5780516101879161040e82610ba1565b60058252640352e302e360dc1b60208301525191829182610bfa565b833461044d5761044a61043c36610c43565b916104456110dc565b61144e565b80f35b80fd5b50503461018b578160031936011261018b5751908152602090f35b50503461018b57602036600319011261018b576020916001600160a01b039161018791819084610499610b3f565b168152600186522092600182519161015983610ba1565b833461044d5761044a6104c236610c43565b916104cb6110dc565b611303565b9050346102615781600319360112610261578160209360ff926104f1610b5a565b9035825260008051602061166c83398151915286528282206001600160a01b039091168252855220549151911615158152f35b50503461018b578160031936011261018b5780516101879161054582610ba1565b600b82526a19195d995b1bdc1b595b9d60aa1b60208301525191829182610bfa565b82843461044d578060031936011261044d57507f00000000000000000000000000000000000000000000000000000000000000006001600160a01b031630036105c1576020905160008051602061164c8339815191528152f35b5163703e46dd60e11b8152fd5b91809150600319360112610261576105e4610b3f565b60249390919084356001600160401b03811161018b573660238201121561018b578085013561061281610bdf565b9461061f85519687610bbc565b81865260209182870193368a838301011161080e578186928b8693018737880101526001600160a01b037f000000000000000000000000000000000000000000000000000000000000000081163081149081156107f2575b506107e2576106846110dc565b81169585516352d1902d60e01b815283818a818b5afa8691816107af575b506106be575050505050505191634c9c8ce360e01b8352820152fd5b9088888894938c60008051602061164c8339815191529182810361079a5750853b15610786575080546001600160a01b031916821790558451889392917fbc7cd75a20ee27fd9adebab32041f755214dbc6bffa90cc0225b39da2e5c2d3b8580a282511561076857505061025d9582915190845af4913d1561075e573d61075061074782610bdf565b92519283610bbc565b81528581943d92013e6115a8565b50606092506115a8565b95509550505050503461077a57505080f35b63b398979f60e01b8152fd5b8651634c9c8ce360e01b8152808501849052fd5b8751632a87526960e21b815280860191909152fd5b9091508481813d83116107db575b6107c78183610bbc565b810103126107d7575190386106a2565b8680fd5b503d6107bd565b855163703e46dd60e11b81528890fd5b90508160008051602061164c8339815191525416141538610677565b8580fd5b833461044d5760a036600319011261044d5761082c610b3f565b610834610b5a565b906064356001600160a01b038116810361086a5761086161044a936108576110dc565b6044359084611303565b6084359161144e565b8380fd5b83833461018b578060031936011261018b57610888610b5a565b90336001600160a01b038316036108a5575061025d919235611266565b5163334bd91960e11b81528390fd5b9190503461026157806003193601126102615761025d91356108d96001610239610b5a565b6111f1565b905034610261576020366003190112610261578160209360019235815260008051602061166c83398151915285522001549051908152f35b50503461018b578160031936011261018b576020905160008051602061162c8339815191528152f35b82843461044d578160031936011261044d57610959610b3f565b60243582845161096881610b70565b526001600160a01b038281168085526020859052858520549093911615610ad55791859391610998602094610d2e565b94909287519687809263313ce56760e01b82525afa948515610acb578395610a9a575b50670de0b6b3a76400009485820291808304871490151715610a8757906109e46109ea92610c91565b90610cb8565b928551936109f785610b70565b845284820291808304861490151715610a7457906109e4610a1792610c91565b91845192610a2484610b70565b8352818551610a3281610b70565b5251915191828102928184041490151715610a615750602093500490818151610a5a81610b70565b5251908152f35b634e487b7160e01b815260118552602490fd5b634e487b7160e01b835260118752602483fd5b634e487b7160e01b845260118852602484fd5b610abd91955060203d602011610ac4575b610ab58183610bbc565b810190610c78565b93876109bb565b503d610aab565b86513d85823e3d90fd5b8451632a4f499d60e21b8152808701849052602490fd5b849134610261576020366003190112610261573563ffffffff60e01b81168091036102615760209250637965db0b60e01b8114908115610b2e575b5015158152f35b6301ffc9a760e01b14905083610b27565b600435906001600160a01b0382168203610b5557565b600080fd5b602435906001600160a01b0382168203610b5557565b602081019081106001600160401b03821117610b8b57604052565b634e487b7160e01b600052604160045260246000fd5b604081019081106001600160401b03821117610b8b57604052565b601f909101601f19168101906001600160401b03821190821017610b8b57604052565b6001600160401b038111610b8b57601f01601f191660200190565b6020808252825181830181905290939260005b828110610c2f57505060409293506000838284010152601f8019910116010190565b818101860151848201604001528501610c0d565b6060906003190112610b55576001600160a01b03906004358281168103610b5557916024359081168103610b55579060443590565b90816020910312610b55575160ff81168103610b555790565b60ff16604d8111610ca257600a0a90565b634e487b7160e01b600052601160045260246000fd5b8115610cc2570490565b634e487b7160e01b600052601260045260246000fd5b51906001600160501b0382168203610b5557565b908160a0910312610b5557610d0081610cd8565b91602082015191604081015191610d1e608060608401519301610cd8565b90565b91908203918211610ca257565b6000916000918260018060a01b0380921680825260208281526040928484822054169484519586948592633fabe5a360e21b9283855260a097889160049b8c915afa9384156110d257859086956110ad575b50828652600191828852808a8820541695861580610fcd5715610dab57505050505050505050505050565b9187999b9e50809496989a9d509690929496139081610fa3575b81610f71575b50610f37575050885192835286838b81875afa928315610f2d5785978694610ef3575b5050848713610e0657885162bfc92160e01b81528a90fd5b603c4201804211610ee057831115610e285788516364e76ef160e11b81528a90fd5b81859a9798999a52808652808a8620015415928315610ed6575b8315610eb4575b505050600014610ea457829087519485809263313ce56760e01b82525afa958615610e9a575094610e7b575b50509190565b610e92929450803d10610ac457610ab58183610bbc565b913880610e75565b51903d90823e3d90fd5b8651633ef9f21b60e01b81528490fd5b610ec19192935042610d21565b91845280855288842001541015388080610e49565b4281119350610e42565b634e487b7160e01b865260118b52602486fd5b610f189398508091929450903d10610f26575b610f108183610bbc565b810190610cec565b509792505095913880610dee565b503d610f06565b89513d87823e3d90fd5b93509798999650508492508352828252878320541687519485809263313ce56760e01b82525afa958615610e9a575094610e7b5750509190565b42811191508115610f84575b5038610dcb565b610f8f915042610d21565b848852878952838c89200154101538610f7d565b9050603c4201804211610fb95781111590610dc5565b50634e487b7160e01b885260118d52602488fd5b50955096989b50989b50915092809550871315600014610ff657885162bfc92160e01b81528a90fd5b603c4201804211610ee0578211156110185788516364e76ef160e11b81528a90fd5b82859a9798999a52848652808a86200154159182156110a3575b8215611082575b50501561107257825281835286822054875163313ce56760e01b815294849286928391165afa958615610e9a575094610e7b5750509190565b8751633ef9f21b60e01b81528590fd5b61108e91925042610d21565b90828552848652898520015410153880611039565b4281119250611032565b90506110c7919450873d8911610f2657610f108183610bbc565b509592505038610d80565b88513d87823e3d90fd5b33600090815260008051602061168c833981519152602052604090205460008051602061162c8339815191529060ff16156111145750565b6044906040519063e2517d3f60e01b82523360048301526024820152fd5b8060005260008051602061166c83398151915260205260406000203360005260205260ff60406000205416156111145750565b6001600160a01b0316600081815260008051602061168c833981519152602052604081205490919060008051602061162c8339815191529060008051602061166c8339815191529060ff166111eb578184526020526040832082845260205260408320600160ff1982541617905560008051602061160c833981519152339380a4600190565b50505090565b9060009180835260008051602061166c83398151915280602052604084209260018060a01b03169283855260205260ff604085205416156000146111eb578184526020526040832082845260205260408320600160ff1982541617905560008051602061160c833981519152339380a4600190565b9060009180835260008051602061166c83398151915280602052604084209260018060a01b03169283855260205260ff6040852054166000146111eb57818452602052604083208284526020526040832060ff1981541690557ff6391f5c32d9c69d2a47ea670b442974b53935d1edc7fd64eb21e047a839171b339380a4600190565b6001600160a01b0391821681529116602082015260400190565b6001600160a01b0393928285169081156113f7576040958651633fabe5a360e21b815260a081600481875afa80156113ec5760009182916113c8575b5013156113b85791600187926113b3947f950d6b0fc92ec932fc49a6ea1af2dded2fac58d5464090ceece194b1f1e624f39899519361137d85610ba1565b845260208401918252808716600052600060205284600020935116828060a01b03198454161783555191015551928392836112e9565b0390a1565b865162bfc92160e01b8152600490fd5b6113e1915060a03d60a011610f2657610f108183610bbc565b50505090503861133f565b88513d6000823e3d90fd5b60405162461bcd60e51b815260206004820152602960248201527f5072696d61727920507269636520666565642063616e6e6f74206265207a65726044820152686f206164647265737360b81b6064820152608490fd5b6001600160a01b039392828516908115611521576040958651633fabe5a360e21b815260a081600481875afa80156113ec5760009182916114fd575b5013156113b85791600187926113b3947f88f32712a5f54716ba83ac5415ed99ffccbcf735a00db9ff1607cc259f8bca08989951936114c885610ba1565b8452602084019182528087166000528260205284600020935116828060a01b03198454161783555191015551928392836112e9565b611516915060a03d60a011610f2657610f108183610bbc565b50505090503861148a565b60405162461bcd60e51b815260206004820152602a60248201527f46616c6c6261636b20507269636520666565642063616e6e6f74206265207a65604482015269726f206164647265737360b01b6064820152608490fd5b60ff6000805160206116ac8339815191525460401c161561159657565b604051631afcd79f60e31b8152600490fd5b906115cf57508051156115bd57805190602001fd5b60405163d6bda27560e01b8152600490fd5b81511580611602575b6115e0575090565b604051639996b31560e01b81526001600160a01b039091166004820152602490fd5b50803b156115d856fe2f8788117e7eff1d82e926ec794901d17c78024a50270940304540a733656f0d793a6c9b7e0a9549c74edc2f9ae0dc50903dfaa9a56fb0116b27a8c71de3e2c6360894a13ba1a3210667c828492db98dca3e2076cc3735a920a3ca505d382bbc02dd7bc7dec4dceedda775e58dd541e08a116c6c53815c0bd028192f7b6268000cfb002fcf8644f87ebf6cf6e31899c8d8e9f7c329b465b6e36989a958507e8bf0c57e16840df040f15088dc2f81fe391c3923bec73e23a9662efc9c229c6a00a2646970667358221220461ce477c56aa98e5f2712a3e1a842fda8dec2be8438f5aca2dab33f8df09d5164736f6c63430008160033",
  "linkReferences": {},
  "deployedLinkReferences": {}
}