{
  "_format": "hh-sol-artifact-1",
  "contractName": "TestTermPriceConsumerV3WithSequencer",
  "sourceName": "contracts/test/TestTermPriceConsumerV3WithSequencer.sol",
  "abi": [
    {
      "inputs": [],
      "name": "AccessControlBadConfirmation",
      "type": "error"
    },
    {
      "inputs": [
        {
          "internalType": "address",
          "name": "account",
          "type": "address"
        },
        {
          "internalType": "bytes32",
          "name": "neededRole",
          "type": "bytes32"
        }
      ],
      "name": "AccessControlUnauthorizedAccount",
      "type": "error"
    },
    {
      "inputs": [
        {
          "internalType": "address",
          "name": "target",
          "type": "address"
        }
      ],
      "name": "AddressEmptyCode",
      "type": "error"
    },
    {
      "inputs": [
        {
          "internalType": "address",
          "name": "implementation",
          "type": "address"
        }
      ],
      "name": "ERC1967InvalidImplementation",
      "type": "error"
    },
    {
      "inputs": [],
      "name": "ERC1967NonPayable",
      "type": "error"
    },
    {
      "inputs": [],
      "name": "FailedCall",
      "type": "error"
    },
    {
      "inputs": [],
      "name": "GracePeriodNotOver",
      "type": "error"
    },
    {
      "inputs": [],
      "name": "InvalidInitialization",
      "type": "error"
    },
    {
      "inputs": [],
      "name": "InvalidPrice",
      "type": "error"
    },
    {
      "inputs": [],
      "name": "InvalidUpdateTimestamp",
      "type": "error"
    },
    {
      "inputs": [
        {
          "internalType": "address",
          "name": "tokenAddress",
          "type": "address"
        }
      ],
      "name": "NoPriceFeed",
      "type": "error"
    },
    {
      "inputs": [],
      "name": "NotInitializing",
      "type": "error"
    },
    {
      "inputs": [],
      "name": "PricesStale",
      "type": "error"
    },
    {
      "inputs": [],
      "name": "SequencerDownError",
      "type": "error"
    },
    {
      "inputs": [],
      "name": "UUPSUnauthorizedCallContext",
      "type": "error"
    },
    {
      "inputs": [
        {
          "internalType": "bytes32",
          "name": "slot",
          "type": "bytes32"
        }
      ],
      "name": "UUPSUnsupportedProxiableUUID",
      "type": "error"
    },
    {
      "inputs": [],
      "name": "ZeroPrice",
      "type": "error"
    },
    {
      "anonymous": false,
      "inputs": [
        {
          "indexed": false,
          "internalType": "uint64",
          "name": "version",
          "type": "uint64"
        }
      ],
      "name": "Initialized",
      "type": "event"
    },
    {
      "anonymous": false,
      "inputs": [
        {
          "indexed": true,
          "internalType": "bytes32",
          "name": "role",
          "type": "bytes32"
        },
        {
          "indexed": true,
          "internalType": "bytes32",
          "name": "previousAdminRole",
          "type": "bytes32"
        },
        {
          "indexed": true,
          "internalType": "bytes32",
          "name": "newAdminRole",
          "type": "bytes32"
        }
      ],
      "name": "RoleAdminChanged",
      "type": "event"
    },
    {
      "anonymous": false,
      "inputs": [
        {
          "indexed": true,
          "internalType": "bytes32",
          "name": "role",
          "type": "bytes32"
        },
        {
          "indexed": true,
          "internalType": "address",
          "name": "account",
          "type": "address"
        },
        {
          "indexed": true,
          "internalType": "address",
          "name": "sender",
          "type": "address"
        }
      ],
      "name": "RoleGranted",
      "type": "event"
    },
    {
      "anonymous": false,
      "inputs": [
        {
          "indexed": true,
          "internalType": "bytes32",
          "name": "role",
          "type": "bytes32"
        },
        {
          "indexed": true,
          "internalType": "address",
          "name": "account",
          "type": "address"
        },
        {
          "indexed": true,
          "internalType": "address",
          "name": "sender",
          "type": "address"
        }
      ],
      "name": "RoleRevoked",
      "type": "event"
    },
    {
      "anonymous": false,
      "inputs": [
        {
          "indexed": false,
          "internalType": "address",
          "name": "token",
          "type": "address"
        },
        {
          "indexed": false,
          "internalType": "address",
          "name": "tokenPriceAggregator",
          "type": "address"
        }
      ],
      "name": "SubscribeFallbackPriceFeed",
      "type": "event"
    },
    {
      "anonymous": false,
      "inputs": [
        {
          "indexed": false,
          "internalType": "address",
          "name": "token",
          "type": "address"
        },
        {
          "indexed": false,
          "internalType": "address",
          "name": "tokenPriceAggregator",
          "type": "address"
        }
      ],
      "name": "SubscribePriceFeed",
      "type": "event"
    },
    {
      "anonymous": false,
      "inputs": [
        {
          "indexed": false,
          "internalType": "address",
          "name": "token",
          "type": "address"
        }
      ],
      "name": "UnsubscribeFallbackPriceFeed",
      "type": "event"
    },
    {
      "anonymous": false,
      "inputs": [
        {
          "indexed": false,
          "internalType": "address",
          "name": "token",
          "type": "address"
        }
      ],
      "name": "UnsubscribePriceFeed",
      "type": "event"
    },
    {
      "anonymous": false,
      "inputs": [
        {
          "indexed": true,
          "internalType": "address",
          "name": "implementation",
          "type": "address"
        }
      ],
      "name": "Upgraded",
      "type": "event"
    },
    {
      "inputs": [],
      "name": "DEFAULT_ADMIN_ROLE",
      "outputs": [
        {
          "internalType": "bytes32",
          "name": "",
          "type": "bytes32"
        }
      ],
      "stateMutability": "view",
      "type": "function"
    },
    {
      "inputs": [],
      "name": "DEVOPS_ROLE",
      "outputs": [
        {
          "internalType": "bytes32",
          "name": "",
          "type": "bytes32"
        }
      ],
      "stateMutability": "view",
      "type": "function"
    },
    {
      "inputs": [],
      "name": "UPGRADE_INTERFACE_VERSION",
      "outputs": [
        {
          "internalType": "string",
          "name": "",
          "type": "string"
        }
      ],
      "stateMutability": "view",
      "type": "function"
    },
    {
      "inputs": [
        {
          "internalType": "address",
          "name": "token",
          "type": "address"
        },
        {
          "internalType": "address",
          "name": "tokenPriceAggregator",
          "type": "address"
        },
        {
          "internalType": "uint256",
          "name": "refreshRateThreshold",
          "type": "uint256"
        }
      ],
      "name": "addNewTokenFallbackPriceFeed",
      "outputs": [],
      "stateMutability": "nonpayable",
      "type": "function"
    },
    {
      "inputs": [
        {
          "internalType": "address",
          "name": "token",
          "type": "address"
        },
        {
          "internalType": "address",
          "name": "tokenPriceAggregator",
          "type": "address"
        },
        {
          "internalType": "uint256",
          "name": "refreshRateThreshold",
          "type": "uint256"
        }
      ],
      "name": "addNewTokenPriceFeed",
      "outputs": [],
      "stateMutability": "nonpayable",
      "type": "function"
    },
    {
      "inputs": [
        {
          "internalType": "address",
          "name": "token",
          "type": "address"
        },
        {
          "internalType": "address",
          "name": "tokenPriceAggregator",
          "type": "address"
        },
        {
          "internalType": "uint256",
          "name": "tokenPriceAggregatorRefreshRateThreshold",
          "type": "uint256"
        },
        {
          "internalType": "address",
          "name": "fallbackPriceAggregator",
          "type": "address"
        },
        {
          "internalType": "uint256",
          "name": "fallbackPriceAggregatorRefreshRateThreshold",
          "type": "uint256"
        }
      ],
      "name": "addNewTokenPriceFeedAndFallbackPriceFeed",
      "outputs": [],
      "stateMutability": "nonpayable",
      "type": "function"
    },
    {
      "inputs": [
        {
          "internalType": "bytes32",
          "name": "role",
          "type": "bytes32"
        }
      ],
      "name": "getRoleAdmin",
      "outputs": [
        {
          "internalType": "bytes32",
          "name": "",
          "type": "bytes32"
        }
      ],
      "stateMutability": "view",
      "type": "function"
    },
    {
      "inputs": [
        {
          "internalType": "bytes32",
          "name": "role",
          "type": "bytes32"
        },
        {
          "internalType": "address",
          "name": "account",
          "type": "address"
        }
      ],
      "name": "grantRole",
      "outputs": [],
      "stateMutability": "nonpayable",
      "type": "function"
    },
    {
      "inputs": [
        {
          "internalType": "bytes32",
          "name": "role",
          "type": "bytes32"
        },
        {
          "internalType": "address",
          "name": "account",
          "type": "address"
        }
      ],
      "name": "hasRole",
      "outputs": [
        {
          "internalType": "bool",
          "name": "",
          "type": "bool"
        }
      ],
      "stateMutability": "view",
      "type": "function"
    },
    {
      "inputs": [
        {
          "internalType": "address",
          "name": "devopsWallet_",
          "type": "address"
        },
        {
          "internalType": "address",
          "name": "sequencerUptimeFeed_",
          "type": "address"
        }
      ],
      "name": "initialize",
      "outputs": [],
      "stateMutability": "nonpayable",
      "type": "function"
    },
    {
      "inputs": [],
      "name": "proxiableUUID",
      "outputs": [
        {
          "internalType": "bytes32",
          "name": "",
          "type": "bytes32"
        }
      ],
      "stateMutability": "view",
      "type": "function"
    },
    {
      "inputs": [
        {
          "internalType": "address",
          "name": "token",
          "type": "address"
        }
      ],
      "name": "removeFallbackTokenPriceFeed",
      "outputs": [],
      "stateMutability": "nonpayable",
      "type": "function"
    },
    {
      "inputs": [
        {
          "internalType": "address",
          "name": "token",
          "type": "address"
        }
      ],
      "name": "removeTokenPriceFeed",
      "outputs": [],
      "stateMutability": "nonpayable",
      "type": "function"
    },
    {
      "inputs": [
        {
          "internalType": "bytes32",
          "name": "role",
          "type": "bytes32"
        },
        {
          "internalType": "address",
          "name": "callerConfirmation",
          "type": "address"
        }
      ],
      "name": "renounceRole",
      "outputs": [],
      "stateMutability": "nonpayable",
      "type": "function"
    },
    {
      "inputs": [
        {
          "internalType": "bytes32",
          "name": "role",
          "type": "bytes32"
        },
        {
          "internalType": "address",
          "name": "account",
          "type": "address"
        }
      ],
      "name": "revokeRole",
      "outputs": [],
      "stateMutability": "nonpayable",
      "type": "function"
    },
    {
      "inputs": [
        {
          "internalType": "bytes4",
          "name": "interfaceId",
          "type": "bytes4"
        }
      ],
      "name": "supportsInterface",
      "outputs": [
        {
          "internalType": "bool",
          "name": "",
          "type": "bool"
        }
      ],
      "stateMutability": "view",
      "type": "function"
    },
    {
      "inputs": [
        {
          "internalType": "address",
          "name": "upgradeAddress",
          "type": "address"
        }
      ],
      "name": "upgrade",
      "outputs": [],
      "stateMutability": "view",
      "type": "function"
    },
    {
      "inputs": [
        {
          "internalType": "address",
          "name": "newImplementation",
          "type": "address"
        },
        {
          "internalType": "bytes",
          "name": "data",
          "type": "bytes"
        }
      ],
      "name": "upgradeToAndCall",
      "outputs": [],
      "stateMutability": "payable",
      "type": "function"
    },
    {
      "inputs": [
        {
          "internalType": "address",
          "name": "token",
          "type": "address"
        },
        {
          "internalType": "uint256",
          "name": "amount",
          "type": "uint256"
        }
      ],
      "name": "usdValueOfTokens",
      "outputs": [
        {
          "components": [
            {
              "internalType": "uint256",
              "name": "mantissa",
              "type": "uint256"
            }
          ],
          "internalType": "struct ExponentialNoError.Exp",
          "name": "",
          "type": "tuple"
        }
      ],
      "stateMutability": "view",
      "type": "function"
    },
    {
      "inputs": [],
      "name": "version",
      "outputs": [
        {
          "internalType": "string",
          "name": "",
          "type": "string"
        }
      ],
      "stateMutability": "view",
      "type": "function"
    }
  ],
  "bytecode": "0x60a080604052346100cc57306080527ff0c57e16840df040f15088dc2f81fe391c3923bec73e23a9662efc9c229c6a009081549060ff8260401c166100bd57506001600160401b036002600160401b031982821601610078575b60405161163c90816100d2823960805181818161037801526104470152f35b6001600160401b031990911681179091556040519081527fc7f505b2f371ae2175ee4913f4499e1f2633a7b5936321eed1cdaeb6115181d290602090a1388080610059565b63f92ee8a960e01b8152600490fd5b600080fdfe608060408181526004918236101561001657600080fd5b600092833560e01c91826301ffc9a714610af6575081630900f01014610ad35781630f4f276c1461087e578163201a662514610855578163248a9ca31461081d5781632f2ff15d146107f357816336568abe146107ad57816338ff63bb14610751578163485cc9551461060e5781634f1ef286146103ca57816352d1902d1461036357816354fd4d501461032057816391d14854146102cc578163929ac838146102ac578163a217fddf14610291578163aa7a2cdc1461026b578163ad3cb1cc1461022a578163ce2ff6aa146101bf578163d547741f1461016e575063ea6466fa1461010157600080fd5b3461016a57602036600319011261016a5760207f1093a5da06a58f0fb15c9391f2457f36d022ac2f482a803bde212626f67440029161013e610b49565b610146611017565b6001600160a01b03168085526001808452828620868155018590559051908152a180f35b5080fd5b919050346101bb57806003193601126101bb576101b791356101b26001610193610b64565b938387526000805160206115a78339815191526020528620015461106d565b6111a1565b5080f35b8280fd5b50503461016a57602036600319011261016a5760207ffbc2f2231449137043afaa28222f673d780c0e7449d25d2c98ea791db929204c916101fe610b49565b610206611017565b6001600160a01b03168085528483528185208581556001018590559051908152a180f35b50503461016a578160031936011261016a5780516102679161024b82610bab565b60058252640352e302e360dc1b60208301525191829182610c04565b0390f35b833461028e5761028b61027d36610c4d565b91610286611017565b611389565b80f35b80fd5b50503461016a578160031936011261016a5751908152602090f35b833461028e5761028b6102be36610c4d565b916102c7611017565b61123e565b9050346101bb57816003193601126101bb578160209360ff926102ed610b64565b903582526000805160206115a783398151915286528282206001600160a01b039091168252855220549151911615158152f35b50503461016a578160031936011261016a5780516102679161034182610bab565b600b82526a19195d995b1bdc1b595b9d60aa1b60208301525191829182610c04565b82843461028e578060031936011261028e57507f00000000000000000000000000000000000000000000000000000000000000006001600160a01b031630036103bd57602090516000805160206115878339815191528152f35b5163703e46dd60e11b8152fd5b918091506003193601126101bb576103e0610b49565b60249390919084356001600160401b03811161016a573660238201121561016a578085013561040e81610be9565b9461041b85519687610bc6565b81865260209182870193368a838301011161060a578186928b8693018737880101526001600160a01b037f000000000000000000000000000000000000000000000000000000000000000081163081149081156105ee575b506105de57610480611017565b81169585516352d1902d60e01b815283818a818b5afa8691816105ab575b506104ba575050505050505191634c9c8ce360e01b8352820152fd5b9088888894938c600080516020611587833981519152918281036105965750853b15610582575080546001600160a01b031916821790558451889392917fbc7cd75a20ee27fd9adebab32041f755214dbc6bffa90cc0225b39da2e5c2d3b8580a28251156105645750506101b79582915190845af4913d1561055a573d61054c61054382610be9565b92519283610bc6565b81528581943d92013e6114e3565b50606092506114e3565b95509550505050503461057657505080f35b63b398979f60e01b8152fd5b8651634c9c8ce360e01b8152808501849052fd5b8751632a87526960e21b815280860191909152fd5b9091508481813d83116105d7575b6105c38183610bc6565b810103126105d35751903861049e565b8680fd5b503d6105b9565b855163703e46dd60e11b81528890fd5b9050816000805160206115878339815191525416141538610473565b8580fd5b9050346101bb57816003193601126101bb57610628610b49565b90610631610b64565b916000805160206115e783398151915292835460ff81871c16159360018060401b03821680159081610749575b600114908161073f575b159081610736575b5061072857506001600160401b0319811660011785556106c89291908461070d575b5061069b6114b4565b6106a36114b4565b600280546001600160a01b0319166001600160a01b03929092169190911790556110a0565b506106d1578280f35b805460ff60401b1916905551600181527fc7f505b2f371ae2175ee4913f4499e1f2633a7b5936321eed1cdaeb6115181d290602090a138808280f35b6001600160481b0319166001600160401b0117855538610692565b865163f92ee8a960e01b8152fd5b90501538610670565b303b159150610668565b86915061065e565b833461028e5760a036600319011261028e5761076b610b49565b610773610b64565b906064356001600160a01b03811681036107a9576107a061028b93610796611017565b604435908461123e565b60843591611389565b8380fd5b83833461016a578060031936011261016a576107c7610b64565b90336001600160a01b038316036107e457506101b79192356111a1565b5163334bd91960e11b81528390fd5b919050346101bb57806003193601126101bb576101b791356108186001610193610b64565b61112c565b9050346101bb5760203660031901126101bb57816020936001923581526000805160206115a783398151915285522001549051908152f35b50503461016a578160031936011261016a57602090516000805160206115678339815191528152f35b82843461028e578160031936011261028e57610898610b49565b6024358284516108a781610b7a565b526002548451633fabe5a360e21b81526001600160a01b03939160a09082908990829088165afa908115610ac95785908692610a91575b50600114610a81576108f3610e109142610ccb565b1115610a71578281169283855284602052858520541615610a5a579185939161091d602094610d38565b94909287519687809263313ce56760e01b82525afa948515610a50578395610a1f575b50670de0b6b3a76400009485820291808304871490151715610a0c579061096961096f92610d07565b90610d18565b9285519361097c85610b7a565b8452848202918083048614901517156109f9579061096961099c92610d07565b918451926109a984610b7a565b83528185516109b781610b7a565b52519151918281029281840414901517156109e657506020935004908181516109df81610b7a565b5251908152f35b634e487b7160e01b815260118552602490fd5b634e487b7160e01b835260118752602483fd5b634e487b7160e01b845260118852602484fd5b610a4291955060203d602011610a49575b610a3a8183610bc6565b810190610cee565b9387610940565b503d610a30565b86513d85823e3d90fd5b8451632a4f499d60e21b8152808701849052602490fd5b845163d15f73b560e01b81528690fd5b855163d3a3d5d360e01b81528790fd5b60019250610ab7915060a03d60a011610ac2575b610aaf8183610bc6565b810190610c96565b5050929150906108de565b503d610aa5565b86513d87823e3d90fd5b833461028e57602036600319011261028e57610aed610b49565b5061028b611017565b8491346101bb5760203660031901126101bb573563ffffffff60e01b81168091036101bb5760209250637965db0b60e01b8114908115610b38575b5015158152f35b6301ffc9a760e01b14905083610b31565b600435906001600160a01b0382168203610b5f57565b600080fd5b602435906001600160a01b0382168203610b5f57565b602081019081106001600160401b03821117610b9557604052565b634e487b7160e01b600052604160045260246000fd5b604081019081106001600160401b03821117610b9557604052565b601f909101601f19168101906001600160401b03821190821017610b9557604052565b6001600160401b038111610b9557601f01601f191660200190565b6020808252825181830181905290939260005b828110610c3957505060409293506000838284010152601f8019910116010190565b818101860151848201604001528501610c17565b6060906003190112610b5f576001600160a01b03906004358281168103610b5f57916024359081168103610b5f579060443590565b51906001600160501b0382168203610b5f57565b908160a0910312610b5f57610caa81610c82565b91602082015191604081015191610cc8608060608401519301610c82565b90565b91908203918211610cd857565b634e487b7160e01b600052601160045260246000fd5b90816020910312610b5f575160ff81168103610b5f5790565b60ff16604d8111610cd857600a0a90565b8115610d22570490565b634e487b7160e01b600052601260045260246000fd5b6000916000918260018060a01b0380921680825260208281526040928484822054169484519586948592633fabe5a360e21b9283855260a097889160049b8c915afa93841561100d5785908695610fe8575b50828652600191828852808a8820541695861580610f3e5715610db557505050505050505050505050565b9187999b9e50809496989a9d509690929496139081610f1f575b50610ee5575050885192835286838b81875afa928315610edb5785978694610eb1575b5050848713610e0a57885162bfc92160e01b81528a90fd5b81859a9798999a52808652808a8620015415928315610e8f575b505050600014610e7f57829087519485809263313ce56760e01b82525afa958615610e75575094610e56575b50509190565b610e6d929450803d10610a4957610a3a8183610bc6565b913880610e50565b51903d90823e3d90fd5b8651633ef9f21b60e01b81528490fd5b610e9c9192935042610ccb565b91845280855288842001541015388080610e24565b610ecd9398508091929450903d10610ac257610aaf8183610bc6565b509792505095913880610df2565b89513d87823e3d90fd5b93509798999650508492508352828252878320541687519485809263313ce56760e01b82525afa958615610e75575094610e565750509190565b610f2a915042610ccb565b848852878952838c89200154101538610dcf565b50955096989b50989b50915092809550871315600014610f6757885162bfc92160e01b81528a90fd5b84869a9798999a52808a8620015415918215610fc7575b505015610fb757825281835286822054875163313ce56760e01b815294849286928391165afa958615610e75575094610e565750509190565b8751633ef9f21b60e01b81528590fd5b610fd391925042610ccb565b90828552848652898520015410153880610f7e565b9050611002919450873d8911610ac257610aaf8183610bc6565b509592505038610d8a565b88513d87823e3d90fd5b3360009081526000805160206115c783398151915260205260409020546000805160206115678339815191529060ff161561104f5750565b6044906040519063e2517d3f60e01b82523360048301526024820152fd5b806000526000805160206115a783398151915260205260406000203360005260205260ff604060002054161561104f5750565b6001600160a01b031660008181526000805160206115c78339815191526020526040812054909190600080516020611567833981519152906000805160206115a78339815191529060ff16611126578184526020526040832082845260205260408320600160ff19825416179055600080516020611547833981519152339380a4600190565b50505090565b906000918083526000805160206115a783398151915280602052604084209260018060a01b03169283855260205260ff60408520541615600014611126578184526020526040832082845260205260408320600160ff19825416179055600080516020611547833981519152339380a4600190565b906000918083526000805160206115a783398151915280602052604084209260018060a01b03169283855260205260ff60408520541660001461112657818452602052604083208284526020526040832060ff1981541690557ff6391f5c32d9c69d2a47ea670b442974b53935d1edc7fd64eb21e047a839171b339380a4600190565b6001600160a01b0391821681529116602082015260400190565b6001600160a01b039392828516908115611332576040958651633fabe5a360e21b815260a081600481875afa8015611327576000918291611303575b5013156112f35791600187926112ee947f950d6b0fc92ec932fc49a6ea1af2dded2fac58d5464090ceece194b1f1e624f3989951936112b885610bab565b845260208401918252808716600052600060205284600020935116828060a01b0319845416178355519101555192839283611224565b0390a1565b865162bfc92160e01b8152600490fd5b61131c915060a03d60a011610ac257610aaf8183610bc6565b50505090503861127a565b88513d6000823e3d90fd5b60405162461bcd60e51b815260206004820152602960248201527f5072696d61727920507269636520666565642063616e6e6f74206265207a65726044820152686f206164647265737360b81b6064820152608490fd5b6001600160a01b03939282851690811561145c576040958651633fabe5a360e21b815260a081600481875afa8015611327576000918291611438575b5013156112f35791600187926112ee947f88f32712a5f54716ba83ac5415ed99ffccbcf735a00db9ff1607cc259f8bca089899519361140385610bab565b8452602084019182528087166000528260205284600020935116828060a01b0319845416178355519101555192839283611224565b611451915060a03d60a011610ac257610aaf8183610bc6565b5050509050386113c5565b60405162461bcd60e51b815260206004820152602a60248201527f46616c6c6261636b20507269636520666565642063616e6e6f74206265207a65604482015269726f206164647265737360b01b6064820152608490fd5b60ff6000805160206115e78339815191525460401c16156114d157565b604051631afcd79f60e31b8152600490fd5b9061150a57508051156114f857805190602001fd5b60405163d6bda27560e01b8152600490fd5b8151158061153d575b61151b575090565b604051639996b31560e01b81526001600160a01b039091166004820152602490fd5b50803b1561151356fe2f8788117e7eff1d82e926ec794901d17c78024a50270940304540a733656f0d793a6c9b7e0a9549c74edc2f9ae0dc50903dfaa9a56fb0116b27a8c71de3e2c6360894a13ba1a3210667c828492db98dca3e2076cc3735a920a3ca505d382bbc02dd7bc7dec4dceedda775e58dd541e08a116c6c53815c0bd028192f7b6268000cfb002fcf8644f87ebf6cf6e31899c8d8e9f7c329b465b6e36989a958507e8bf0c57e16840df040f15088dc2f81fe391c3923bec73e23a9662efc9c229c6a00a2646970667358221220fa14acc90aa6ef2581ae87039f4e8b07323edd02b755052118d30b2189c7113864736f6c63430008160033",
  "linkReferences": {},
  "deployedLinkReferences": {}
}