{
  "_format": "hh-sol-artifact-1",
  "contractName": "TestTermPriceConsumerV3WithSequencer",
  "sourceName": "contracts/test/TestTermPriceConsumerV3WithSequencer.sol",
  "abi": [
    {
      "inputs": [],
      "name": "GracePeriodNotOver",
      "type": "error"
    },
    {
      "inputs": [],
      "name": "InvalidPrice",
      "type": "error"
    },
    {
      "inputs": [
        {
          "internalType": "address",
          "name": "tokenAddress",
          "type": "address"
        }
      ],
      "name": "NoPriceFeed",
      "type": "error"
    },
    {
      "inputs": [],
      "name": "PricesStale",
      "type": "error"
    },
    {
      "inputs": [],
      "name": "SequencerDownError",
      "type": "error"
    },
    {
      "inputs": [],
      "name": "ZeroPrice",
      "type": "error"
    },
    {
      "anonymous": false,
      "inputs": [
        {
          "indexed": false,
          "internalType": "address",
          "name": "previousAdmin",
          "type": "address"
        },
        {
          "indexed": false,
          "internalType": "address",
          "name": "newAdmin",
          "type": "address"
        }
      ],
      "name": "AdminChanged",
      "type": "event"
    },
    {
      "anonymous": false,
      "inputs": [
        {
          "indexed": true,
          "internalType": "address",
          "name": "beacon",
          "type": "address"
        }
      ],
      "name": "BeaconUpgraded",
      "type": "event"
    },
    {
      "anonymous": false,
      "inputs": [
        {
          "indexed": false,
          "internalType": "uint8",
          "name": "version",
          "type": "uint8"
        }
      ],
      "name": "Initialized",
      "type": "event"
    },
    {
      "anonymous": false,
      "inputs": [
        {
          "indexed": true,
          "internalType": "bytes32",
          "name": "role",
          "type": "bytes32"
        },
        {
          "indexed": true,
          "internalType": "bytes32",
          "name": "previousAdminRole",
          "type": "bytes32"
        },
        {
          "indexed": true,
          "internalType": "bytes32",
          "name": "newAdminRole",
          "type": "bytes32"
        }
      ],
      "name": "RoleAdminChanged",
      "type": "event"
    },
    {
      "anonymous": false,
      "inputs": [
        {
          "indexed": true,
          "internalType": "bytes32",
          "name": "role",
          "type": "bytes32"
        },
        {
          "indexed": true,
          "internalType": "address",
          "name": "account",
          "type": "address"
        },
        {
          "indexed": true,
          "internalType": "address",
          "name": "sender",
          "type": "address"
        }
      ],
      "name": "RoleGranted",
      "type": "event"
    },
    {
      "anonymous": false,
      "inputs": [
        {
          "indexed": true,
          "internalType": "bytes32",
          "name": "role",
          "type": "bytes32"
        },
        {
          "indexed": true,
          "internalType": "address",
          "name": "account",
          "type": "address"
        },
        {
          "indexed": true,
          "internalType": "address",
          "name": "sender",
          "type": "address"
        }
      ],
      "name": "RoleRevoked",
      "type": "event"
    },
    {
      "anonymous": false,
      "inputs": [
        {
          "indexed": false,
          "internalType": "address",
          "name": "token",
          "type": "address"
        },
        {
          "indexed": false,
          "internalType": "address",
          "name": "tokenPriceAggregator",
          "type": "address"
        }
      ],
      "name": "SubscribeFallbackPriceFeed",
      "type": "event"
    },
    {
      "anonymous": false,
      "inputs": [
        {
          "indexed": false,
          "internalType": "address",
          "name": "token",
          "type": "address"
        },
        {
          "indexed": false,
          "internalType": "address",
          "name": "tokenPriceAggregator",
          "type": "address"
        }
      ],
      "name": "SubscribePriceFeed",
      "type": "event"
    },
    {
      "anonymous": false,
      "inputs": [
        {
          "indexed": false,
          "internalType": "address",
          "name": "token",
          "type": "address"
        }
      ],
      "name": "UnsubscribeFallbackPriceFeed",
      "type": "event"
    },
    {
      "anonymous": false,
      "inputs": [
        {
          "indexed": false,
          "internalType": "address",
          "name": "token",
          "type": "address"
        }
      ],
      "name": "UnsubscribePriceFeed",
      "type": "event"
    },
    {
      "anonymous": false,
      "inputs": [
        {
          "indexed": true,
          "internalType": "address",
          "name": "implementation",
          "type": "address"
        }
      ],
      "name": "Upgraded",
      "type": "event"
    },
    {
      "inputs": [],
      "name": "DEFAULT_ADMIN_ROLE",
      "outputs": [
        {
          "internalType": "bytes32",
          "name": "",
          "type": "bytes32"
        }
      ],
      "stateMutability": "view",
      "type": "function"
    },
    {
      "inputs": [],
      "name": "DEVOPS_ROLE",
      "outputs": [
        {
          "internalType": "bytes32",
          "name": "",
          "type": "bytes32"
        }
      ],
      "stateMutability": "view",
      "type": "function"
    },
    {
      "inputs": [
        {
          "internalType": "address",
          "name": "token",
          "type": "address"
        },
        {
          "internalType": "address",
          "name": "tokenPriceAggregator",
          "type": "address"
        },
        {
          "internalType": "uint256",
          "name": "refreshRateThreshold",
          "type": "uint256"
        }
      ],
      "name": "addNewTokenFallbackPriceFeed",
      "outputs": [],
      "stateMutability": "nonpayable",
      "type": "function"
    },
    {
      "inputs": [
        {
          "internalType": "address",
          "name": "token",
          "type": "address"
        },
        {
          "internalType": "address",
          "name": "tokenPriceAggregator",
          "type": "address"
        },
        {
          "internalType": "uint256",
          "name": "refreshRateThreshold",
          "type": "uint256"
        }
      ],
      "name": "addNewTokenPriceFeed",
      "outputs": [],
      "stateMutability": "nonpayable",
      "type": "function"
    },
    {
      "inputs": [
        {
          "internalType": "address",
          "name": "token",
          "type": "address"
        },
        {
          "internalType": "address",
          "name": "tokenPriceAggregator",
          "type": "address"
        },
        {
          "internalType": "uint256",
          "name": "tokenPriceAggregatorRefreshRateThreshold",
          "type": "uint256"
        },
        {
          "internalType": "address",
          "name": "fallbackPriceAggregator",
          "type": "address"
        },
        {
          "internalType": "uint256",
          "name": "fallbackPriceAggregatorRefreshRateThreshold",
          "type": "uint256"
        }
      ],
      "name": "addNewTokenPriceFeedAndFallbackPriceFeed",
      "outputs": [],
      "stateMutability": "nonpayable",
      "type": "function"
    },
    {
      "inputs": [
        {
          "internalType": "bytes32",
          "name": "role",
          "type": "bytes32"
        }
      ],
      "name": "getRoleAdmin",
      "outputs": [
        {
          "internalType": "bytes32",
          "name": "",
          "type": "bytes32"
        }
      ],
      "stateMutability": "view",
      "type": "function"
    },
    {
      "inputs": [
        {
          "internalType": "bytes32",
          "name": "role",
          "type": "bytes32"
        },
        {
          "internalType": "address",
          "name": "account",
          "type": "address"
        }
      ],
      "name": "grantRole",
      "outputs": [],
      "stateMutability": "nonpayable",
      "type": "function"
    },
    {
      "inputs": [
        {
          "internalType": "bytes32",
          "name": "role",
          "type": "bytes32"
        },
        {
          "internalType": "address",
          "name": "account",
          "type": "address"
        }
      ],
      "name": "hasRole",
      "outputs": [
        {
          "internalType": "bool",
          "name": "",
          "type": "bool"
        }
      ],
      "stateMutability": "view",
      "type": "function"
    },
    {
      "inputs": [
        {
          "internalType": "address",
          "name": "devopsWallet_",
          "type": "address"
        },
        {
          "internalType": "address",
          "name": "sequencerUptimeFeed_",
          "type": "address"
        }
      ],
      "name": "initialize",
      "outputs": [],
      "stateMutability": "nonpayable",
      "type": "function"
    },
    {
      "inputs": [],
      "name": "proxiableUUID",
      "outputs": [
        {
          "internalType": "bytes32",
          "name": "",
          "type": "bytes32"
        }
      ],
      "stateMutability": "view",
      "type": "function"
    },
    {
      "inputs": [
        {
          "internalType": "address",
          "name": "token",
          "type": "address"
        }
      ],
      "name": "removeFallbackTokenPriceFeed",
      "outputs": [],
      "stateMutability": "nonpayable",
      "type": "function"
    },
    {
      "inputs": [
        {
          "internalType": "address",
          "name": "token",
          "type": "address"
        }
      ],
      "name": "removeTokenPriceFeed",
      "outputs": [],
      "stateMutability": "nonpayable",
      "type": "function"
    },
    {
      "inputs": [
        {
          "internalType": "bytes32",
          "name": "role",
          "type": "bytes32"
        },
        {
          "internalType": "address",
          "name": "account",
          "type": "address"
        }
      ],
      "name": "renounceRole",
      "outputs": [],
      "stateMutability": "nonpayable",
      "type": "function"
    },
    {
      "inputs": [
        {
          "internalType": "bytes32",
          "name": "role",
          "type": "bytes32"
        },
        {
          "internalType": "address",
          "name": "account",
          "type": "address"
        }
      ],
      "name": "revokeRole",
      "outputs": [],
      "stateMutability": "nonpayable",
      "type": "function"
    },
    {
      "inputs": [
        {
          "internalType": "bytes4",
          "name": "interfaceId",
          "type": "bytes4"
        }
      ],
      "name": "supportsInterface",
      "outputs": [
        {
          "internalType": "bool",
          "name": "",
          "type": "bool"
        }
      ],
      "stateMutability": "view",
      "type": "function"
    },
    {
      "inputs": [
        {
          "internalType": "address",
          "name": "upgradeAddress",
          "type": "address"
        }
      ],
      "name": "upgrade",
      "outputs": [],
      "stateMutability": "view",
      "type": "function"
    },
    {
      "inputs": [
        {
          "internalType": "address",
          "name": "newImplementation",
          "type": "address"
        }
      ],
      "name": "upgradeTo",
      "outputs": [],
      "stateMutability": "nonpayable",
      "type": "function"
    },
    {
      "inputs": [
        {
          "internalType": "address",
          "name": "newImplementation",
          "type": "address"
        },
        {
          "internalType": "bytes",
          "name": "data",
          "type": "bytes"
        }
      ],
      "name": "upgradeToAndCall",
      "outputs": [],
      "stateMutability": "payable",
      "type": "function"
    },
    {
      "inputs": [
        {
          "internalType": "address",
          "name": "token",
          "type": "address"
        },
        {
          "internalType": "uint256",
          "name": "amount",
          "type": "uint256"
        }
      ],
      "name": "usdValueOfTokens",
      "outputs": [
        {
          "components": [
            {
              "internalType": "uint256",
              "name": "mantissa",
              "type": "uint256"
            }
          ],
          "internalType": "struct ExponentialNoError.Exp",
          "name": "",
          "type": "tuple"
        }
      ],
      "stateMutability": "view",
      "type": "function"
    },
    {
      "inputs": [],
      "name": "version",
      "outputs": [
        {
          "internalType": "string",
          "name": "",
          "type": "string"
        }
      ],
      "stateMutability": "view",
      "type": "function"
    }
  ],
  "bytecode": "0x60a06040523060805234801561001457600080fd5b5061001d610022565b6100e1565b600054610100900460ff161561008e5760405162461bcd60e51b815260206004820152602760248201527f496e697469616c697a61626c653a20636f6e747261637420697320696e697469604482015266616c697a696e6760c81b606482015260840160405180910390fd5b60005460ff908116146100df576000805460ff191660ff9081179091556040519081527f7f26b83ff96e1f2b6a682f133852f6798a09c465da95921460cefb38474024989060200160405180910390a15b565b60805161216a62000119600039600081816106e0015281816107200152818161092f0152818161096f01526109e7015261216a6000f3fe6080604052600436106100ff5760003560e01c80634f1ef286116100905780634f1ef2861461028a57806352d1902d1461029d57806354fd4d50146102b257806391d14854146102ec578063929ac8381461030c578063a217fddf1461032c578063aa7a2cdc14610341578063ce2ff6aa14610361578063d547741f14610381578063ea6466fa146103a157600080fd5b806301ffc9a7146101045780630900f010146101395780630f4f276c1461015b578063201a66251461018a578063248a9ca3146101ba5780632f2ff15d146101ea57806336568abe1461020a5780633659cfe61461022a57806338ff63bb1461024a578063485cc9551461026a575b600080fd5b34801561011057600080fd5b5061012461011f366004611a87565b6103c1565b60405190151581526020015b60405180910390f35b34801561014557600080fd5b50610159610154366004611acd565b6103f8565b005b34801561016757600080fd5b5061017b610176366004611ae8565b610404565b60405190518152602001610130565b34801561019657600080fd5b506101ac6000805160206120ce83398151915281565b604051908152602001610130565b3480156101c657600080fd5b506101ac6101d5366004611b12565b600090815260c9602052604090206001015490565b3480156101f657600080fd5b50610159610205366004611b2b565b61062e565b34801561021657600080fd5b50610159610225366004611b2b565b610658565b34801561023657600080fd5b50610159610245366004611acd565b6106d6565b34801561025657600080fd5b50610159610265366004611b57565b61079b565b34801561027657600080fd5b50610159610285366004611bac565b6107d1565b610159610298366004611bec565b610925565b3480156102a957600080fd5b506101ac6109da565b3480156102be57600080fd5b50604080518082018252600b81526a19195d995b1bdc1b595b9d60aa1b602082015290516101309190611cd2565b3480156102f857600080fd5b50610124610307366004611b2b565b610a88565b34801561031857600080fd5b50610159610327366004611d05565b610ab3565b34801561033857600080fd5b506101ac600081565b34801561034d57600080fd5b5061015961035c366004611d05565b610adc565b34801561036d57600080fd5b5061015961037c366004611acd565b610aff565b34801561038d57600080fd5b5061015961039c366004611b2b565b610b7f565b3480156103ad57600080fd5b506101596103bc366004611acd565b610ba4565b60006001600160e01b03198216637965db0b60e01b14806103f257506301ffc9a760e01b6001600160e01b03198316145b92915050565b61040181610c18565b50565b60408051602081019091526000815260008060fd60009054906101000a90046001600160a01b03166001600160a01b031663feaf968c6040518163ffffffff1660e01b815260040160a060405180830381865afa158015610469573d6000803e3d6000fd5b505050506040513d601f19601f8201168201806040525081019061048d9190611d5b565b50509250925050816001036104b55760405163d3a3d5d360e01b815260040160405180910390fd5b60006104c18242611dc1565b9050610e1081116104e55760405163d15f73b560e01b815260040160405180910390fd5b6001600160a01b03868116600090815260fb6020526040902054166105285785604051632a4f499d60e21b815260040161051f9190611dd4565b60405180910390fd5b60008061053488610c30565b8092508193505050600082905060008990506000816001600160a01b031663313ce5676040518163ffffffff1660e01b8152600401602060405180830381865afa158015610586573d6000803e3d6000fd5b505050506040513d601f19601f820116820180604052508101906105aa9190611de8565b905061061f604051806020016040528083600a6105c79190611eef565b6105d9670de0b6b3a76400008f611efe565b6105e39190611f15565b90526040805160208101909152806105fc88600a611eef565b61060e670de0b6b3a764000089611efe565b6106189190611f15565b9052610fed565b9b9a5050505050505050505050565b600082815260c9602052604090206001015461064981611035565b610653838361103f565b505050565b6001600160a01b03811633146106c85760405162461bcd60e51b815260206004820152602f60248201527f416363657373436f6e74726f6c3a2063616e206f6e6c792072656e6f756e636560448201526e103937b632b9903337b91039b2b63360891b606482015260840161051f565b6106d282826110c5565b5050565b6001600160a01b037f000000000000000000000000000000000000000000000000000000000000000016300361071e5760405162461bcd60e51b815260040161051f90611f37565b7f00000000000000000000000000000000000000000000000000000000000000006001600160a01b031661075061112c565b6001600160a01b0316146107765760405162461bcd60e51b815260040161051f90611f83565b61077f81610c18565b6040805160008082526020820190925261040191839190611148565b6000805160206120ce8339815191526107b381611035565b6107be8686866112b3565b6107c986848461143a565b505050505050565b600054610100900460ff16158080156107f15750600054600160ff909116105b806108125750610800306115b1565b158015610812575060005460ff166001145b6108755760405162461bcd60e51b815260206004820152602e60248201527f496e697469616c697a61626c653a20636f6e747261637420697320616c72656160448201526d191e481a5b9a5d1a585b1a5e995960921b606482015260840161051f565b6000805460ff191660011790558015610898576000805461ff0019166101001790555b6108a06115c0565b6108a86115c0565b60fd80546001600160a01b0319166001600160a01b0384161790556108db6000805160206120ce8339815191528461103f565b8015610653576000805461ff0019169055604051600181527f7f26b83ff96e1f2b6a682f133852f6798a09c465da95921460cefb38474024989060200160405180910390a1505050565b6001600160a01b037f000000000000000000000000000000000000000000000000000000000000000016300361096d5760405162461bcd60e51b815260040161051f90611f37565b7f00000000000000000000000000000000000000000000000000000000000000006001600160a01b031661099f61112c565b6001600160a01b0316146109c55760405162461bcd60e51b815260040161051f90611f83565b6109ce82610c18565b6106d282826001611148565b6000306001600160a01b037f00000000000000000000000000000000000000000000000000000000000000001614610a755760405162461bcd60e51b815260206004820152603860248201527f555550535570677261646561626c653a206d757374206e6f742062652063616c6044820152771b1959081d1a1c9bdd59da0819195b1959d85d1958d85b1b60421b606482015260840161051f565b506000805160206120ee83398151915290565b600091825260c9602090815260408084206001600160a01b0393909316845291905290205460ff1690565b6000805160206120ce833981519152610acb81611035565b610ad68484846112b3565b50505050565b6000805160206120ce833981519152610af481611035565b610ad684848461143a565b6000805160206120ce833981519152610b1781611035565b6001600160a01b038216600090815260fb602052604080822080546001600160a01b031916815560010191909155517ffbc2f2231449137043afaa28222f673d780c0e7449d25d2c98ea791db929204c90610b73908490611dd4565b60405180910390a15050565b600082815260c96020526040902060010154610b9a81611035565b61065383836110c5565b6000805160206120ce833981519152610bbc81611035565b6001600160a01b038216600090815260fc602052604080822080546001600160a01b031916815560010191909155517f1093a5da06a58f0fb15c9391f2457f36d022ac2f482a803bde212626f674400290610b73908490611dd4565b6000805160206120ce8339815191526106d281611035565b6001600160a01b03808216600090815260fb6020526040808220548151633fabe5a360e21b8152915192938493849384939092169163feaf968c9160048083019260a09291908290030181865afa158015610c8f573d6000803e3d6000fd5b505050506040513d601f19601f82011682018060405250810190610cb39190611d5b565b506001600160a01b03808a16600090815260fc6020526040902054939650909450919091169150819050610df55760008313610d015760405162bfc92160e01b815260040160405180910390fd5b6001600160a01b038616600090815260fb60205260409020600101541580610d4d57506001600160a01b038616600090815260fb6020526040902060010154610d4a8342611dc1565b11155b15610ddc576001600160a01b03808716600090815260fb602090815260409182902054825163313ce56760e01b815292518794919091169263313ce5679260048083019391928290030181865afa158015610dac573d6000803e3d6000fd5b505050506040513d601f19601f82011682018060405250810190610dd09190611de8565b94509450505050915091565b604051633ef9f21b60e01b815260040160405180910390fd5b6001600160a01b03811615610fe557600083138015610e3857506001600160a01b038616600090815260fb6020526040902060010154610e358342611dc1565b11155b15610e97576001600160a01b03808716600090815260fb602090815260409182902054825163313ce56760e01b815292518794919091169263313ce5679260048083019391928290030181865afa158015610dac573d6000803e3d6000fd5b600080826001600160a01b031663feaf968c6040518163ffffffff1660e01b815260040160a060405180830381865afa158015610ed8573d6000803e3d6000fd5b505050506040513d601f19601f82011682018060405250810190610efc9190611d5b565b5093505092505060008213610f235760405162bfc92160e01b815260040160405180910390fd5b6001600160a01b038816600090815260fc60205260409020600101541580610f6f57506001600160a01b038816600090815260fc6020526040902060010154610f6c8242611dc1565b11155b15610ddc5781836001600160a01b031663313ce5676040518163ffffffff1660e01b8152600401602060405180830381865afa158015610fb3573d6000803e3d6000fd5b505050506040513d601f19601f82011682018060405250810190610fd79190611de8565b965096505050505050915091565b505050915091565b6040805160208101909152600081526040518060200160405280670de0b6b3a76400006110228660000151866000015161162d565b61102c9190611f15565b90529392505050565b6104018133611640565b6110498282610a88565b6106d257600082815260c9602090815260408083206001600160a01b03851684529091529020805460ff191660011790556110813390565b6001600160a01b0316816001600160a01b0316837f2f8788117e7eff1d82e926ec794901d17c78024a50270940304540a733656f0d60405160405180910390a45050565b6110cf8282610a88565b156106d257600082815260c9602090815260408083206001600160a01b0385168085529252808320805460ff1916905551339285917ff6391f5c32d9c69d2a47ea670b442974b53935d1edc7fd64eb21e047a839171b9190a45050565b6000805160206120ee833981519152546001600160a01b031690565b7f4910fdfa16fed3260ed0e7147f7cc6da11a60208b5b9406d12a635614ffd91435460ff161561117b5761065383611699565b826001600160a01b03166352d1902d6040518163ffffffff1660e01b8152600401602060405180830381865afa9250505080156111d5575060408051601f3d908101601f191682019092526111d291810190611fcf565b60015b6112385760405162461bcd60e51b815260206004820152602e60248201527f45524331393637557067726164653a206e657720696d706c656d656e7461746960448201526d6f6e206973206e6f74205555505360901b606482015260840161051f565b6000805160206120ee83398151915281146112a75760405162461bcd60e51b815260206004820152602960248201527f45524331393637557067726164653a20756e737570706f727465642070726f786044820152681a58589b195555525160ba1b606482015260840161051f565b50610653838383611733565b6001600160a01b03821661131b5760405162461bcd60e51b815260206004820152602960248201527f5072696d61727920507269636520666565642063616e6e6f74206265207a65726044820152686f206164647265737360b81b606482015260840161051f565b6000829050600080826001600160a01b031663feaf968c6040518163ffffffff1660e01b815260040160a060405180830381865afa158015611361573d6000803e3d6000fd5b505050506040513d601f19601f820116820180604052508101906113859190611d5b565b50935050925050600082136113ac5760405162bfc92160e01b815260040160405180910390fd5b6040805180820182526001600160a01b03878116825260208083018881528a8316600090815260fb90925290849020835181546001600160a01b03191693169290921782555160019091015590517f950d6b0fc92ec932fc49a6ea1af2dded2fac58d5464090ceece194b1f1e624f3906114299089908990611fe8565b60405180910390a150505050505050565b6001600160a01b0382166114a35760405162461bcd60e51b815260206004820152602a60248201527f46616c6c6261636b20507269636520666565642063616e6e6f74206265207a65604482015269726f206164647265737360b01b606482015260840161051f565b6000829050600080826001600160a01b031663feaf968c6040518163ffffffff1660e01b815260040160a060405180830381865afa1580156114e9573d6000803e3d6000fd5b505050506040513d601f19601f8201168201806040525081019061150d9190611d5b565b50935050925050600082136115345760405162bfc92160e01b815260040160405180910390fd5b6040805180820182526001600160a01b03878116825260208083018881528a8316600090815260fc90925290849020835181546001600160a01b03191693169290921782555160019091015590517f88f32712a5f54716ba83ac5415ed99ffccbcf735a00db9ff1607cc259f8bca08906114299089908990611fe8565b6001600160a01b03163b151590565b600054610100900460ff1661162b5760405162461bcd60e51b815260206004820152602b60248201527f496e697469616c697a61626c653a20636f6e7472616374206973206e6f74206960448201526a6e697469616c697a696e6760a81b606482015260840161051f565b565b60006116398284611efe565b9392505050565b61164a8282610a88565b6106d25761165781611758565b61166283602061176a565b604051602001611673929190612002565b60408051601f198184030181529082905262461bcd60e51b825261051f91600401611cd2565b6116a2816115b1565b6117045760405162461bcd60e51b815260206004820152602d60248201527f455243313936373a206e657720696d706c656d656e746174696f6e206973206e60448201526c1bdd08184818dbdb9d1c9858dd609a1b606482015260840161051f565b6000805160206120ee83398151915280546001600160a01b0319166001600160a01b0392909216919091179055565b61173c83611906565b6000825111806117495750805b1561065357610ad68383611946565b60606103f26001600160a01b03831660145b60606000611779836002611efe565b611784906002612071565b67ffffffffffffffff81111561179c5761179c611bd6565b6040519080825280601f01601f1916602001820160405280156117c6576020820181803683370190505b509050600360fc1b816000815181106117e1576117e1612084565b60200101906001600160f81b031916908160001a905350600f60fb1b8160018151811061181057611810612084565b60200101906001600160f81b031916908160001a9053506000611834846002611efe565b61183f906001612071565b90505b60018111156118b7576f181899199a1a9b1b9c1cb0b131b232b360811b85600f166010811061187357611873612084565b1a60f81b82828151811061188957611889612084565b60200101906001600160f81b031916908160001a90535060049490941c936118b08161209a565b9050611842565b5083156116395760405162461bcd60e51b815260206004820181905260248201527f537472696e67733a20686578206c656e67746820696e73756666696369656e74604482015260640161051f565b61190f81611699565b6040516001600160a01b038216907fbc7cd75a20ee27fd9adebab32041f755214dbc6bffa90cc0225b39da2e5c2d3b90600090a250565b6060611639838360405180606001604052806027815260200161210e602791396060600080856001600160a01b03168560405161198391906120b1565b600060405180830381855af49150503d80600081146119be576040519150601f19603f3d011682016040523d82523d6000602084013e6119c3565b606091505b50915091506119d4868383876119de565b9695505050505050565b60608315611a4b578251600003611a44576119f8856115b1565b611a445760405162461bcd60e51b815260206004820152601d60248201527f416464726573733a2063616c6c20746f206e6f6e2d636f6e7472616374000000604482015260640161051f565b5081611a55565b611a558383611a5d565b949350505050565b815115611a6d5781518083602001fd5b8060405162461bcd60e51b815260040161051f9190611cd2565b600060208284031215611a9957600080fd5b81356001600160e01b03198116811461163957600080fd5b80356001600160a01b0381168114611ac857600080fd5b919050565b600060208284031215611adf57600080fd5b61163982611ab1565b60008060408385031215611afb57600080fd5b611b0483611ab1565b946020939093013593505050565b600060208284031215611b2457600080fd5b5035919050565b60008060408385031215611b3e57600080fd5b82359150611b4e60208401611ab1565b90509250929050565b600080600080600060a08688031215611b6f57600080fd5b611b7886611ab1565b9450611b8660208701611ab1565b935060408601359250611b9b60608701611ab1565b949793965091946080013592915050565b60008060408385031215611bbf57600080fd5b611bc883611ab1565b9150611b4e60208401611ab1565b634e487b7160e01b600052604160045260246000fd5b60008060408385031215611bff57600080fd5b611c0883611ab1565b9150602083013567ffffffffffffffff80821115611c2557600080fd5b818501915085601f830112611c3957600080fd5b813581811115611c4b57611c4b611bd6565b604051601f8201601f19908116603f01168101908382118183101715611c7357611c73611bd6565b81604052828152886020848701011115611c8c57600080fd5b8260208601602083013760006020848301015280955050505050509250929050565b60005b83811015611cc9578181015183820152602001611cb1565b50506000910152565b6020815260008251806020840152611cf1816040850160208701611cae565b601f01601f19169190910160400192915050565b600080600060608486031215611d1a57600080fd5b611d2384611ab1565b9250611d3160208501611ab1565b9150604084013590509250925092565b805169ffffffffffffffffffff81168114611ac857600080fd5b600080600080600060a08688031215611d7357600080fd5b611d7c86611d41565b9450602086015193506040860151925060608601519150611d9f60808701611d41565b90509295509295909350565b634e487b7160e01b600052601160045260246000fd5b818103818111156103f2576103f2611dab565b6001600160a01b0391909116815260200190565b600060208284031215611dfa57600080fd5b815160ff8116811461163957600080fd5b600181815b80851115611e46578160001904821115611e2c57611e2c611dab565b80851615611e3957918102915b93841c9390800290611e10565b509250929050565b600082611e5d575060016103f2565b81611e6a575060006103f2565b8160018114611e805760028114611e8a57611ea6565b60019150506103f2565b60ff841115611e9b57611e9b611dab565b50506001821b6103f2565b5060208310610133831016604e8410600b8410161715611ec9575081810a6103f2565b611ed38383611e0b565b8060001904821115611ee757611ee7611dab565b029392505050565b600061163960ff841683611e4e565b80820281158282048414176103f2576103f2611dab565b600082611f3257634e487b7160e01b600052601260045260246000fd5b500490565b6020808252602c908201527f46756e6374696f6e206d7573742062652063616c6c6564207468726f7567682060408201526b19195b1959d85d1958d85b1b60a21b606082015260800190565b6020808252602c908201527f46756e6374696f6e206d7573742062652063616c6c6564207468726f7567682060408201526b6163746976652070726f787960a01b606082015260800190565b600060208284031215611fe157600080fd5b5051919050565b6001600160a01b0392831681529116602082015260400190565b76020b1b1b2b9b9a1b7b73a3937b61d1030b1b1b7bab73a1604d1b815260008351612034816017850160208801611cae565b7001034b99036b4b9b9b4b733903937b6329607d1b6017918401918201528351612065816028840160208801611cae565b01602801949350505050565b808201808211156103f2576103f2611dab565b634e487b7160e01b600052603260045260246000fd5b6000816120a9576120a9611dab565b506000190190565b600082516120c3818460208701611cae565b919091019291505056fe793a6c9b7e0a9549c74edc2f9ae0dc50903dfaa9a56fb0116b27a8c71de3e2c6360894a13ba1a3210667c828492db98dca3e2076cc3735a920a3ca505d382bbc416464726573733a206c6f772d6c6576656c2064656c65676174652063616c6c206661696c6564a26469706673582212208ded6230ef98a6583b1f3b6387323321edae7d56990df9e7d63bff364df4653d64736f6c63430008120033",
  "linkReferences": {},
  "deployedLinkReferences": {}
}