{
  "_format": "hh-sol-artifact-1",
  "contractName": "TestMockStrategy",
  "sourceName": "contracts/test/TestMockStrategy.sol",
  "abi": [
    {
      "inputs": [
        {
          "internalType": "address",
          "name": "_asset",
          "type": "address"
        },
        {
          "internalType": "address",
          "name": "_controller",
          "type": "address"
        }
      ],
      "stateMutability": "nonpayable",
      "type": "constructor"
    },
    {
      "inputs": [],
      "name": "asset",
      "outputs": [
        {
          "internalType": "address",
          "name": "",
          "type": "address"
        }
      ],
      "stateMutability": "view",
      "type": "function"
    },
    {
      "inputs": [],
      "name": "controller",
      "outputs": [
        {
          "internalType": "address",
          "name": "",
          "type": "address"
        }
      ],
      "stateMutability": "view",
      "type": "function"
    },
    {
      "inputs": [],
      "name": "exchangeRate",
      "outputs": [
        {
          "internalType": "uint256",
          "name": "",
          "type": "uint256"
        }
      ],
      "stateMutability": "view",
      "type": "function"
    },
    {
      "inputs": [
        {
          "internalType": "address",
          "name": "repoToken",
          "type": "address"
        },
        {
          "internalType": "uint256",
          "name": "amount",
          "type": "uint256"
        }
      ],
      "name": "sellRepoToken",
      "outputs": [],
      "stateMutability": "nonpayable",
      "type": "function"
    },
    {
      "inputs": [
        {
          "internalType": "uint256",
          "name": "_rate",
          "type": "uint256"
        }
      ],
      "name": "setExchangeRate",
      "outputs": [],
      "stateMutability": "nonpayable",
      "type": "function"
    },
    {
      "inputs": [],
      "name": "strategyState",
      "outputs": [
        {
          "components": [
            {
              "internalType": "address",
              "name": "assetVault",
              "type": "address"
            },
            {
              "internalType": "address",
              "name": "eventEmitter",
              "type": "address"
            },
            {
              "internalType": "address",
              "name": "governorAddress",
              "type": "address"
            },
            {
              "internalType": "address",
              "name": "prevTermController",
              "type": "address"
            },
            {
              "internalType": "address",
              "name": "currTermController",
              "type": "address"
            },
            {
              "internalType": "address",
              "name": "discountRateAdapter",
              "type": "address"
            },
            {
              "internalType": "uint256",
              "name": "timeToMaturityThreshold",
              "type": "uint256"
            },
            {
              "internalType": "uint256",
              "name": "requiredReserveRatio",
              "type": "uint256"
            },
            {
              "internalType": "uint256",
              "name": "discountRateMarkup",
              "type": "uint256"
            },
            {
              "internalType": "uint256",
              "name": "repoTokenConcentrationLimit",
              "type": "uint256"
            }
          ],
          "internalType": "struct TestMockStrategy.StrategyState",
          "name": "",
          "type": "tuple"
        }
      ],
      "stateMutability": "view",
      "type": "function"
    }
  ],
  "bytecode": "0x60803461009257601f6104ab38819003918201601f19168301916001600160401b0383118484101761009757808492604094855283398101031261009257610052602061004b836100ad565b92016100ad565b605f600255600080546001600160a01b039384166001600160a01b031991821617909155600180549290931691161790556040516103e990816100c28239f35b600080fd5b634e487b7160e01b600052604160045260246000fd5b51906001600160a01b03821682036100925756fe60808060405260048036101561001457600080fd5b60003560e01c9182625446f2146102335750816311b4e253146100ee57816338d52e0f146100c55781633ba0b9a9146100a7578163db068e0e14610090575063f77c47911461006257600080fd5b3461008b57600036600319011261008b576001546040516001600160a01b039091168152602090f35b600080fd5b3461008b57602036600319011261008b5735600255005b3461008b57600036600319011261008b576020600254604051908152f35b3461008b57600036600319011261008b576000546040516001600160a01b039091168152602090f35b3461008b57600036600319011261008b57600061012060405161011081610346565b8281528260208201528260408201528260608201528260808201528260a08201528260c08201528260e082015282610100820152015261014060018060a01b03600154166040519061016182610346565b600082526000602083015260006040830152600060608301526080820152600060a0820152600060c0820152600060e082015260006101008201526000610120820152610120604051916000835260018060a01b03602082015116602084015260018060a01b03604082015116604084015260018060a01b03606082015116606084015260018060a01b03608082015116608084015260018060a01b0360a08201511660a084015260c081015160c084015260e081015160e08401526101008101516101008401520151610120820152f35b903461008b57604036600319011261008b5780356001600160a01b03818116929183900361008b57600093602435936323b872dd60e01b825233848301523060248301528460448301528160648160209889945af1801561030857610329575b50600254928381029381850414901517156103145791604484926000606495815416604051968795869463a9059cbb60e01b865233908601520460248401525af18015610308576102e057005b816102ff92903d10610301575b6102f78183610378565b81019061039b565b005b503d6102ed565b6040513d6000823e3d90fd5b601182634e487b7160e01b6000525260246000fd5b61033f90853d8711610301576102f78183610378565b5084610293565b61014081019081106001600160401b0382111761036257604052565b634e487b7160e01b600052604160045260246000fd5b601f909101601f19168101906001600160401b0382119082101761036257604052565b9081602091031261008b5751801515810361008b579056fea26469706673582212208fde2f9dee368746a50ea23d4ea91a9ae1985568683b13ffdf21bed7a7ca6a7364736f6c63430008160033",
  "linkReferences": {},
  "deployedLinkReferences": {}
}