{
  "_format": "hh-sol-artifact-1",
  "contractName": "TermAaveInterfaceFacet",
  "sourceName": "contracts/facets/external/TermAaveInterfaceFacet.sol",
  "abi": [
    {
      "inputs": [],
      "stateMutability": "nonpayable",
      "type": "constructor"
    },
    {
      "inputs": [
        {
          "internalType": "address",
          "name": "target",
          "type": "address"
        }
      ],
      "name": "AddressEmptyCode",
      "type": "error"
    },
    {
      "inputs": [],
      "name": "Expired",
      "type": "error"
    },
    {
      "inputs": [],
      "name": "FailedCall",
      "type": "error"
    },
    {
      "inputs": [],
      "name": "InputOutputTokenCollision",
      "type": "error"
    },
    {
      "inputs": [],
      "name": "InsufficientCreditDelegationAllowance",
      "type": "error"
    },
    {
      "inputs": [],
      "name": "InvalidATokenAddress",
      "type": "error"
    },
    {
      "inputs": [],
      "name": "InvalidAavePoolAddress",
      "type": "error"
    },
    {
      "inputs": [],
      "name": "InvalidAmount",
      "type": "error"
    },
    {
      "inputs": [],
      "name": "InvalidAssetAddress",
      "type": "error"
    },
    {
      "inputs": [],
      "name": "InvalidDelegatorAddress",
      "type": "error"
    },
    {
      "inputs": [],
      "name": "InvalidRateMode",
      "type": "error"
    },
    {
      "inputs": [],
      "name": "InvalidUserAddress",
      "type": "error"
    },
    {
      "inputs": [],
      "name": "InvalidVariableDebtTokenAddress",
      "type": "error"
    },
    {
      "inputs": [],
      "name": "ReentrancyGuardReentrantCall",
      "type": "error"
    },
    {
      "inputs": [],
      "name": "RepaidAssetsMismatch",
      "type": "error"
    },
    {
      "inputs": [
        {
          "internalType": "uint8",
          "name": "bits",
          "type": "uint8"
        },
        {
          "internalType": "uint256",
          "name": "value",
          "type": "uint256"
        }
      ],
      "name": "SafeCastOverflowedUintDowncast",
      "type": "error"
    },
    {
      "inputs": [
        {
          "internalType": "address",
          "name": "token",
          "type": "address"
        }
      ],
      "name": "SafeERC20FailedOperation",
      "type": "error"
    },
    {
      "inputs": [],
      "name": "SupplyAmountMismatch",
      "type": "error"
    },
    {
      "inputs": [],
      "name": "SupplyAssetMismatch",
      "type": "error"
    },
    {
      "inputs": [],
      "name": "UnsupportedHookSelector",
      "type": "error"
    },
    {
      "inputs": [],
      "name": "UnsupportedSelector",
      "type": "error"
    },
    {
      "inputs": [],
      "name": "WithdrawalAmountMismatch",
      "type": "error"
    },
    {
      "inputs": [
        {
          "internalType": "address",
          "name": "aavePool",
          "type": "address"
        },
        {
          "internalType": "address",
          "name": "asset",
          "type": "address"
        },
        {
          "internalType": "uint256",
          "name": "amount",
          "type": "uint256"
        },
        {
          "internalType": "uint256",
          "name": "deadline",
          "type": "uint256"
        },
        {
          "internalType": "uint8",
          "name": "v",
          "type": "uint8"
        },
        {
          "internalType": "bytes32",
          "name": "r",
          "type": "bytes32"
        },
        {
          "internalType": "bytes32",
          "name": "s",
          "type": "bytes32"
        }
      ],
      "name": "aaveApproveDelegationWithSig",
      "outputs": [],
      "stateMutability": "nonpayable",
      "type": "function"
    },
    {
      "inputs": [
        {
          "internalType": "address",
          "name": "aavePool",
          "type": "address"
        },
        {
          "internalType": "address",
          "name": "asset",
          "type": "address"
        },
        {
          "internalType": "uint256",
          "name": "amount",
          "type": "uint256"
        }
      ],
      "name": "aaveBorrow",
      "outputs": [],
      "stateMutability": "nonpayable",
      "type": "function"
    },
    {
      "inputs": [
        {
          "internalType": "address",
          "name": "aavePool",
          "type": "address"
        },
        {
          "internalType": "address",
          "name": "asset",
          "type": "address"
        },
        {
          "internalType": "uint256",
          "name": "amount",
          "type": "uint256"
        },
        {
          "internalType": "address",
          "name": "onBehalfOf",
          "type": "address"
        },
        {
          "internalType": "bool",
          "name": "payoutToUser",
          "type": "bool"
        }
      ],
      "name": "aaveBorrow",
      "outputs": [],
      "stateMutability": "nonpayable",
      "type": "function"
    },
    {
      "inputs": [
        {
          "components": [
            {
              "internalType": "address",
              "name": "user",
              "type": "address"
            },
            {
              "internalType": "address",
              "name": "inputToken",
              "type": "address"
            },
            {
              "internalType": "uint256",
              "name": "maxInputAmount",
              "type": "uint256"
            },
            {
              "internalType": "address",
              "name": "outputToken",
              "type": "address"
            },
            {
              "internalType": "uint256",
              "name": "minOutputAmount",
              "type": "uint256"
            },
            {
              "internalType": "address",
              "name": "targetAddress",
              "type": "address"
            },
            {
              "internalType": "bytes",
              "name": "additionalCalldata",
              "type": "bytes"
            }
          ],
          "internalType": "struct ActionHookInput",
          "name": "input",
          "type": "tuple"
        }
      ],
      "name": "aaveRefinanceInHook",
      "outputs": [],
      "stateMutability": "nonpayable",
      "type": "function"
    },
    {
      "inputs": [
        {
          "components": [
            {
              "internalType": "address",
              "name": "user",
              "type": "address"
            },
            {
              "internalType": "address",
              "name": "inputToken",
              "type": "address"
            },
            {
              "internalType": "uint256",
              "name": "maxInputAmount",
              "type": "uint256"
            },
            {
              "internalType": "address",
              "name": "outputToken",
              "type": "address"
            },
            {
              "internalType": "uint256",
              "name": "minOutputAmount",
              "type": "uint256"
            },
            {
              "internalType": "address",
              "name": "targetAddress",
              "type": "address"
            },
            {
              "internalType": "bytes",
              "name": "additionalCalldata",
              "type": "bytes"
            }
          ],
          "internalType": "struct ActionHookInput",
          "name": "input",
          "type": "tuple"
        }
      ],
      "name": "aaveRefinanceOutHook",
      "outputs": [],
      "stateMutability": "nonpayable",
      "type": "function"
    },
    {
      "inputs": [
        {
          "internalType": "address",
          "name": "aavePool",
          "type": "address"
        },
        {
          "internalType": "address",
          "name": "asset",
          "type": "address"
        },
        {
          "internalType": "uint256",
          "name": "amount",
          "type": "uint256"
        },
        {
          "internalType": "address",
          "name": "onBehalfOf",
          "type": "address"
        },
        {
          "internalType": "bool",
          "name": "usePermit2",
          "type": "bool"
        }
      ],
      "name": "aaveRepay",
      "outputs": [],
      "stateMutability": "nonpayable",
      "type": "function"
    },
    {
      "inputs": [
        {
          "internalType": "address",
          "name": "aavePool",
          "type": "address"
        },
        {
          "internalType": "address",
          "name": "asset",
          "type": "address"
        },
        {
          "internalType": "uint256",
          "name": "amount",
          "type": "uint256"
        },
        {
          "internalType": "bool",
          "name": "usePermit2",
          "type": "bool"
        }
      ],
      "name": "aaveRepay",
      "outputs": [],
      "stateMutability": "nonpayable",
      "type": "function"
    },
    {
      "inputs": [
        {
          "internalType": "address",
          "name": "aavePool",
          "type": "address"
        },
        {
          "internalType": "address",
          "name": "asset",
          "type": "address"
        },
        {
          "internalType": "uint256",
          "name": "amount",
          "type": "uint256"
        },
        {
          "internalType": "address",
          "name": "onBehalfOf",
          "type": "address"
        },
        {
          "internalType": "bool",
          "name": "usePermit2",
          "type": "bool"
        }
      ],
      "name": "aaveSupply",
      "outputs": [],
      "stateMutability": "nonpayable",
      "type": "function"
    },
    {
      "inputs": [
        {
          "internalType": "address",
          "name": "aavePool",
          "type": "address"
        },
        {
          "internalType": "address",
          "name": "asset",
          "type": "address"
        },
        {
          "internalType": "uint256",
          "name": "amount",
          "type": "uint256"
        },
        {
          "internalType": "bool",
          "name": "usePermit2",
          "type": "bool"
        }
      ],
      "name": "aaveSupply",
      "outputs": [],
      "stateMutability": "nonpayable",
      "type": "function"
    },
    {
      "inputs": [
        {
          "internalType": "address",
          "name": "aavePool",
          "type": "address"
        },
        {
          "internalType": "address",
          "name": "asset",
          "type": "address"
        },
        {
          "internalType": "uint256",
          "name": "amount",
          "type": "uint256"
        }
      ],
      "name": "aaveWithdrawOnBehalfOf",
      "outputs": [],
      "stateMutability": "nonpayable",
      "type": "function"
    },
    {
      "inputs": [
        {
          "internalType": "address",
          "name": "aavePool",
          "type": "address"
        },
        {
          "internalType": "address",
          "name": "asset",
          "type": "address"
        },
        {
          "internalType": "uint256",
          "name": "amount",
          "type": "uint256"
        },
        {
          "internalType": "address",
          "name": "user",
          "type": "address"
        },
        {
          "internalType": "bool",
          "name": "payoutToUser",
          "type": "bool"
        }
      ],
      "name": "aaveWithdrawOnBehalfOf",
      "outputs": [],
      "stateMutability": "nonpayable",
      "type": "function"
    },
    {
      "inputs": [
        {
          "internalType": "address",
          "name": "aavePool",
          "type": "address"
        },
        {
          "internalType": "address",
          "name": "asset",
          "type": "address"
        },
        {
          "internalType": "address",
          "name": "user",
          "type": "address"
        }
      ],
      "name": "availableBorrow",
      "outputs": [
        {
          "internalType": "uint256",
          "name": "availableAmount",
          "type": "uint256"
        }
      ],
      "stateMutability": "view",
      "type": "function"
    },
    {
      "inputs": [
        {
          "internalType": "address",
          "name": "aavePool",
          "type": "address"
        },
        {
          "internalType": "address",
          "name": "asset",
          "type": "address"
        },
        {
          "internalType": "address",
          "name": "user",
          "type": "address"
        }
      ],
      "name": "availableFunds",
      "outputs": [
        {
          "internalType": "uint256",
          "name": "",
          "type": "uint256"
        }
      ],
      "stateMutability": "view",
      "type": "function"
    },
    {
      "inputs": [
        {
          "internalType": "address",
          "name": "user",
          "type": "address"
        },
        {
          "internalType": "address",
          "name": "inputToken",
          "type": "address"
        },
        {
          "internalType": "uint256",
          "name": "maxInputAmount",
          "type": "uint256"
        },
        {
          "internalType": "address",
          "name": "outputToken",
          "type": "address"
        },
        {
          "internalType": "uint256",
          "name": "minOutputAmount",
          "type": "uint256"
        },
        {
          "internalType": "bytes4",
          "name": "selector",
          "type": "bytes4"
        },
        {
          "internalType": "address",
          "name": "targetAddress",
          "type": "address"
        },
        {
          "internalType": "bytes",
          "name": "additionalCalldata",
          "type": "bytes"
        }
      ],
      "name": "generateActionCalldata",
      "outputs": [
        {
          "components": [
            {
              "internalType": "address",
              "name": "expectedInputToken",
              "type": "address"
            },
            {
              "internalType": "uint256",
              "name": "expectedInputAmount",
              "type": "uint256"
            },
            {
              "internalType": "address",
              "name": "expectedOutputToken",
              "type": "address"
            },
            {
              "internalType": "uint256",
              "name": "expectedOutputAmount",
              "type": "uint256"
            },
            {
              "internalType": "bool",
              "name": "isDeterministic",
              "type": "bool"
            }
          ],
          "internalType": "struct PreviewAction",
          "name": "",
          "type": "tuple"
        },
        {
          "internalType": "bytes",
          "name": "",
          "type": "bytes"
        }
      ],
      "stateMutability": "view",
      "type": "function"
    },
    {
      "inputs": [
        {
          "internalType": "bytes4",
          "name": "selector",
          "type": "bytes4"
        },
        {
          "internalType": "address",
          "name": "aavePool",
          "type": "address"
        },
        {
          "internalType": "address",
          "name": "asset",
          "type": "address"
        },
        {
          "internalType": "address",
          "name": "user",
          "type": "address"
        },
        {
          "internalType": "uint256",
          "name": "amount",
          "type": "uint256"
        },
        {
          "internalType": "bool",
          "name": "payoutUser",
          "type": "bool"
        },
        {
          "internalType": "bytes",
          "name": "data",
          "type": "bytes"
        }
      ],
      "name": "generateCalldata",
      "outputs": [
        {
          "internalType": "bytes",
          "name": "",
          "type": "bytes"
        }
      ],
      "stateMutability": "view",
      "type": "function"
    },
    {
      "inputs": [
        {
          "components": [
            {
              "internalType": "address",
              "name": "user",
              "type": "address"
            },
            {
              "internalType": "address",
              "name": "inputToken",
              "type": "address"
            },
            {
              "internalType": "uint256",
              "name": "maxInputAmount",
              "type": "uint256"
            },
            {
              "internalType": "address",
              "name": "outputToken",
              "type": "address"
            },
            {
              "internalType": "uint256",
              "name": "minOutputAmount",
              "type": "uint256"
            },
            {
              "internalType": "address",
              "name": "targetAddress",
              "type": "address"
            },
            {
              "internalType": "bytes",
              "name": "additionalCalldata",
              "type": "bytes"
            }
          ],
          "internalType": "struct ActionHookInput",
          "name": "actionHookInput",
          "type": "tuple"
        }
      ],
      "name": "previewAaveRefinanceIn",
      "outputs": [
        {
          "components": [
            {
              "internalType": "address",
              "name": "expectedInputToken",
              "type": "address"
            },
            {
              "internalType": "uint256",
              "name": "expectedInputAmount",
              "type": "uint256"
            },
            {
              "internalType": "address",
              "name": "expectedOutputToken",
              "type": "address"
            },
            {
              "internalType": "uint256",
              "name": "expectedOutputAmount",
              "type": "uint256"
            },
            {
              "internalType": "bool",
              "name": "isDeterministic",
              "type": "bool"
            }
          ],
          "internalType": "struct PreviewAction",
          "name": "",
          "type": "tuple"
        }
      ],
      "stateMutability": "view",
      "type": "function"
    },
    {
      "inputs": [
        {
          "components": [
            {
              "internalType": "address",
              "name": "user",
              "type": "address"
            },
            {
              "internalType": "address",
              "name": "inputToken",
              "type": "address"
            },
            {
              "internalType": "uint256",
              "name": "maxInputAmount",
              "type": "uint256"
            },
            {
              "internalType": "address",
              "name": "outputToken",
              "type": "address"
            },
            {
              "internalType": "uint256",
              "name": "minOutputAmount",
              "type": "uint256"
            },
            {
              "internalType": "address",
              "name": "targetAddress",
              "type": "address"
            },
            {
              "internalType": "bytes",
              "name": "additionalCalldata",
              "type": "bytes"
            }
          ],
          "internalType": "struct ActionHookInput",
          "name": "actionHookInput",
          "type": "tuple"
        }
      ],
      "name": "previewAaveRefinanceOut",
      "outputs": [
        {
          "components": [
            {
              "internalType": "address",
              "name": "expectedInputToken",
              "type": "address"
            },
            {
              "internalType": "uint256",
              "name": "expectedInputAmount",
              "type": "uint256"
            },
            {
              "internalType": "address",
              "name": "expectedOutputToken",
              "type": "address"
            },
            {
              "internalType": "uint256",
              "name": "expectedOutputAmount",
              "type": "uint256"
            },
            {
              "internalType": "bool",
              "name": "isDeterministic",
              "type": "bool"
            }
          ],
          "internalType": "struct PreviewAction",
          "name": "",
          "type": "tuple"
        }
      ],
      "stateMutability": "view",
      "type": "function"
    },
    {
      "inputs": [
        {
          "internalType": "bytes4",
          "name": "",
          "type": "bytes4"
        }
      ],
      "name": "previewMapping",
      "outputs": [
        {
          "internalType": "bytes4",
          "name": "",
          "type": "bytes4"
        }
      ],
      "stateMutability": "view",
      "type": "function"
    }
  ],
  "bytecode": "0x6080806040523461009157600160008181556020919091527f2c8d3027efd210626d8b5d9e8591c6682c2f52faf04b6cf0372410e8c9ca73e2805463ffffffff1990811663876f38ff17909155639e3e57dd60e01b9091527fc9f0e1658b692392098422b6e337ab59810f1cabee0c081fce45a5b9f18d4e248054909116635799e79d179055613c6690816100978239f35b600080fdfe60406080815260048036101561001457600080fd5b60009160e08335811c90816345189bda146128fa57816351c7cfbf146126a35781635799e79d1461242457816363dec09b14612429578163876f38ff14612424578163876f7c5c1461234a578163876f90c2146122ac5781639e3e57dd14611e595781639ef72eff14611be3578163c22b8bf0146117c5578163c3246edc14611785578163c8aba68014611545578163cc5e8d8d14611284578163cedf952c14610de0578163cf56840f14610c51578163db1fb2d814610792578163f63227ef146102b9575063fa26d93e146100e957600080fd5b346102b5576100f73661303b565b600080516020613bd183398151915254929593949193928790815b8160ff821610610208575b5050156101fa576001600160a01b0386169081156101eb578793929190156101cf575061014984613345565b6e22d473030f116ddee9f6b43ac78ba392833b156101cb57610188938592838a93865197889586948593631b63c28b60e11b8552309033908601613130565b03925af19081156101c257506101aa575b50506101a7925b3392613378565b80f35b6101b390612f4c565b6101be578338610199565b8380fd5b513d84823e3d90fd5b8480fd5b6101a79693506101e69250849150309033906132fc565b6101a0565b505051630ccd248560e21b8152fd5b505163576b540960e01b8152fd5b610211816130a4565b9054865163e81cf11760e01b81526001600160a01b038b81168a830152602093919284928492602492849260031b1c165afa9182156102ab578c92610271575b5050610265576102609061307d565b610112565b5050506001388061011d565b90809250813d83116102a4575b6102888183612ffd565b810103126102a057610299906130e1565b3880610251565b8a80fd5b503d61027e565b87513d8e823e3d90fd5b8280fd5b919050346101be576102ca36612ddc565b6102d381613185565b9060018060a01b03610305600080516020613c118339815191529382855416838115159283610786575b5050506130ee565b61030d613611565b60a0820161031a81613185565b600080516020613bd18339815191525489918416825b8260ff8216106106e2575b505050156106d25761034c90613185565b918461035a60608301613185565b9683608084013598610388602095610373878201613185565b61037c82613185565b9b8c920135908a613634565b169889156106c45788156106b6578488169384156106a75785600097169284516335ea6a7560e01b81528c848201526101e0908181602481895afa92831561069c5791899391859360009361053c575b50505061014001518651631af5db4960e21b81528581018990523060248201529283916044918391165afa91821561053157908b9291600092610500575b5050106104f257813b156104ed5760a48a91600080948651978895869463a415bcad60e01b86528501528d60248501526002604485015282606485015260848401525af19081156104e357506104cf575b5080600080516020613bb183398151915254161592836104c3575b5050816104b8575b81156104b0575b5061049f575b836001815580f35b6104a89261391a565b388080610497565b905038610491565b33301415915061048a565b54161591503880610482565b6104da919250612f4c565b60009038610467565b513d6000823e3d90fd5b600080fd5b8251630360130760e41b8152fd5b8193508092503d831161052a575b6105188183612ffd565b810103126104ed578990513880610416565b503d61050e565b85513d6000823e3d90fd5b918095508194503d8611610695575b6105558183612ffd565b810103938412610691578488519461056c86612fab565b1261069157875161057c81612fc7565b83518152845261058d858401613b7c565b8585015261059c888401613b7c565b888501526105ac60608401613b7c565b60608501526105bd60808401613b7c565b60808501526105ce60a08401613b7c565b60a085015260c083015164ffffffffff811681036102b55760c0850152808301519161ffff8316830361068e57508385938b936101409360449701526101006106188183016132bc565b9083015261012061062a8183016132bc565b908301528261063a8183016132bc565b9083015261016061064c8183016132bc565b9083015261018061065e818301613b7c565b908301526101a0610670818301613b7c565b908301526106826101c0809201613b7c565b908201529193386103d8565b80fd5b5080fd5b503d61054b565b87513d6000823e3d90fd5b508251630702b3d960e41b8152fd5b825163162908e360e11b8152fd5b8251630ccd248560e21b8152fd5b845163576b540960e01b81528790fd5b8b8b6106ed836130a4565b905490858d519363e81cf11760e01b8552840152826024818c602095869560031b1c165afa92831561077b5792610741575b50506107335761072e9061307d565b610330565b50505050600138808061033b565b90809250813d8311610774575b6107588183612ffd565b8101031261077057610769906130e1565b388061071f565b8c80fd5b503d61074e565b8c51903d90823e3d90fd5b161490503883816102fd565b84939150346101be576107a436612d8d565b9396919590946001600160a01b0394938587169392903385148015610c0d575b8015610bd4575b6107d4906130ee565b8a8a8c8d8a600080516020613bd183398151915254935b8460ff851610610b2a575b505050505015610b1b578616988915610b0c578815610afd5784156106a75783516335ea6a7560e01b81528281018b9052908716926101e0918281602481885afa918215610af25790899291600092610998575b505061014001518551631af5db4960e21b8152848101889052306024820152925060209183916044918391165afa90811561098d57908991600091610958575b50106104f257813b156104ed5760a48991600080948651978895869463a415bcad60e01b86528501528c60248501526002604485015282606485015260848401525af19081156104e35750610949575b5081600080516020613bb1833981519152541615918261092f575b5081610924575b811561091c575b5061090c578380f35b6109159261391a565b8180808380f35b905085610903565b3330141591506108fc565b600080516020613c118339815191525416159150866108f5565b61095290612f4c565b866108da565b9150506020813d602011610985575b8161097460209383612ffd565b810103126104ed578890518c61088a565b3d9150610967565b84513d6000823e3d90fd5b90809350843d8611610aeb575b6109af8183612ffd565b8101039384126106915760208751946109c786612fab565b126106915786516109d781612fc7565b8351815284526109e960208401613b7c565b60208501526109f9878401613b7c565b87850152610a0960608401613b7c565b6060850152610a1a60808401613b7c565b6080850152610a2b60a08401613b7c565b60a085015260c083015164ffffffffff811681036102b55760c0850152808301519161ffff8316830361068e5750836020938b93610140936044970152610100610a768183016132bc565b90830152610120610a888183016132bc565b9083015282610a988183016132bc565b90830152610160610aaa8183016132bc565b90830152610180610abc818301613b7c565b908301526101a0610ace818301613b7c565b90830152610ae06101c0809201613b7c565b90820152919261084a565b503d6109a5565b86513d6000823e3d90fd5b50825163162908e360e11b8152fd5b508251630ccd248560e21b8152fd5b50825163576b540960e01b8152fd5b602482610b36866130a4565b929054938d51958693849263e81cf11760e01b8452168d830152602095869560031b1c165afa928315610bc95792610b8f575b5050610b8057610b789061307d565b8d8a8e6107eb565b50505060018c808d8a8e6107f6565b90809250813d8311610bc2575b610ba68183612ffd565b81010312610bbe57610bb7906130e1565b8f80610b69565b8e80fd5b503d610b9c565b8a51903d90823e3d90fd5b5086600080516020613bf18339815191525416858115159182610c03575b505080156107cb57503330146107cb565b149050858d610bf2565b5030331480610c37575b80156107c457508487600080516020613b918339815191525416146107c4565b5086600080516020613b9183398151915254161515610c17565b5050346102b557610c613661303b565b600080516020613bd183398151915254929593949193928790815b8160ff821610610d41575b5050156101fa576001600160a01b0386169081156101eb57879392919015610d255750610cb384613345565b6e22d473030f116ddee9f6b43ac78ba392833b156101cb57610cf2938592838a93865197889586948593631b63c28b60e11b8552309033908601613130565b03925af19081156101c25750610d11575b50506101a7925b3392613634565b610d1a90612f4c565b6101be578338610d03565b6101a7969350610d3c9250849150309033906132fc565b610d0a565b610d4a816130a4565b9054865163e81cf11760e01b81526001600160a01b038b81168a830152602093919284928492602492849260031b1c165afa9182156102ab578c92610daa575b5050610d9e57610d999061307d565b610c7c565b50505060013880610c87565b90809250813d8311610dd9575b610dc18183612ffd565b810103126102a057610dd2906130e1565b3880610d8a565b503d610db7565b5050346102b557610df036612d8d565b9295919490936001600160a01b03939290918486163381148015611240575b8015611207575b610e1f906130ee565b898a600080516020613bd183398151915254905b8160ff821610611160575b5050156101fa578589169889156101eb5788156111515781156111425790610e67879286613487565b5090300361112f575b16928151906370a0823160e01b808352308584015260209182846024818a5afa908115610531576000916110ff575b60249450838d875196878092878252308c8301525afa948515610af2578a8d99989796959493928f926000976110c5575b508860008794936064938b519e8f968795631a4ca37b60e21b87528601526024850152306044850152165af197881561053157600098611096575b50845191808352308784015283836024818b5afa928315610af2578e918591600095611064575b5060248851809481938252308c8301525afa938415610af257908d93929160009561102d575b505090610f64916132ef565b960361101e578991610f75916132ef565b0361101157505084868310610ff6575b50505081600080516020613bb18339815191525416159182610fdc575b5081610fd1575b8115610fc9575b50610fb9578380f35b610fc29261391a565b3880808380f35b905038610fb0565b333014159150610fa9565b600080516020613c11833981519152541615915038610fa2565b61100361100993886132ef565b9161391a565b388084610f85565b516390ad522f60e01b8152fd5b5050516390ad522f60e01b8152fd5b80929550819394503d831161105d575b6110478183612ffd565b810103126104ed5751918b9190610f6438610f58565b503d61103d565b9250935081813d831161108f575b61107c8183612ffd565b810103126104ed57838e91519338610f32565b503d611072565b9097508281813d83116110be575b6110ae8183612ffd565b810103126104ed57519638610f0b565b503d6110a4565b9a50955050508288813d83116110f8575b6110e08183612ffd565b810103126104ed5796518b9790938d908b9088610ed0565b503d6110d6565b90508284813d8311611128575b6111168183612ffd565b810103126104ed576024935190610e9f565b503d61110c565b61113d89308a8585166132fc565b610e70565b505051630702b3d960e41b8152fd5b50505163162908e360e11b8152fd5b8c8661116b836130a4565b9054908c60248c828c51968794859363e81cf11760e01b85521690830152602095869560031b1c165afa9283156111fc57926111c2575b50506111b6576111b19061307d565b610e33565b50505060013880610e3e565b90809250813d83116111f5575b6111d98183612ffd565b810103126111f1576111ea906130e1565b38806111a2565b8d80fd5b503d6111cf565b8851903d90823e3d90fd5b5085600080516020613bf18339815191525416818115159182611236575b50508015610e165750333014610e16565b1490508138611225565b503033148061126a575b8015610e0f57508086600080516020613b91833981519152541614610e0f565b5085600080516020613b918339815191525416151561124a565b5050823461068e57606036600319011261068e576112a0612d00565b906112a9612d16565b906112b2612d2c565b8451630150a5d760e21b81526020966001600160a01b03958616949092909188818581895afa90811561150e57879392918a918791611518575b50858a5180968193631f94a27560e31b8352165afa92831561150e5790879186946114ce575b508851632fe4a15f60e21b81529116848201529460c090869060249082905afa9485156114c457889187918697611487575b506024908951988993849263b3596f0760e01b845216958688840152165afa94851561144c579087918496611456575b50865163313ce56760e01b815291908290849082905afa90811561144c578391611415575b50841590816114095760ff16604d81116113f657600a0a938481029481860414901517156113e3576113d057505004905b51908152f35b634e487b7160e01b825260129052602490fd5b634e487b7160e01b835260118252602483fd5b634e487b7160e01b845260118352602484fd5b505050915050906113ca565b90508681813d8311611445575b61142c8183612ffd565b810103126102b5575160ff811681036102b55787611399565b503d611422565b86513d85823e3d90fd5b8281939297503d8311611480575b61146e8183612ffd565b810103126104ed575193869082611374565b503d611464565b925095505060c0813d60c0116114bc575b816114a560c09383612ffd565b810103126101be57856024888a9301519690611344565b3d9150611498565b87513d86823e3d90fd5b8a809295508193503d8311611507575b6114e88183612ffd565b810103126101cb578660246114fe60c0936132bc565b94919250611312565b503d6114de565b88513d87823e3d90fd5b6115389150823d841161153e575b6115308183612ffd565b8101906132d0565b8b6112ec565b503d611526565b5050346102b55761155536612d8d565b9395909491939091906001600160a01b038087163381148015611741575b80156116ff575b61158491506130ee565b8889600080516020613bd183398151915254905b8160ff82161061165f575b5050156116505784169081156101eb5788939291901561163557506115c785613345565b916e22d473030f116ddee9f6b43ac78ba392833b156101cb5785938592838a611605875198899687958694631b63c28b60e11b865230918601613130565b03925af19081156101c25750611621575b50506101a793613634565b61162a90612f4c565b6101cb578438611616565b6101a797935061164b92508591508630916132fc565b613634565b50505163576b540960e01b8152fd5b8b8b61166a836130a4565b905490878a519363e81cf11760e01b8552168b840152826024818a602095869560031b1c165afa9283156116f457926116be575b50506116b2576116ad9061307d565b611598565b505050600138806115a3565b90809250813d83116116ed575b6116d58183612ffd565b81010312610770576116e6906130e1565b388061169e565b503d6116cb565b8951903d90823e3d90fd5b5081600080516020613bf18339815191525416908115159182611737575b50508061172e575b6115849061157a565b50333014611725565b149050388061171d565b503033148061176b575b801561157357508082600080516020613b91833981519152541614611573565b5081600080516020613b918339815191525416151561174b565b828591346102b55760203660031901126102b5576020926001600160e01b031991908390836117b2612ef5565b168152600186522054901b915191168152f35b91929050346101be576117d736612d58565b93919490928687600080516020613bd183398151915254905b8160ff821610611b44575b505015611b36576001600160a01b03938416958615611b27578515611b18573315611b095782516335ea6a7560e01b8152828101889052908516936101e0918281602481895afa91821561053157908792916000926119af575b505061014001518451631af5db4960e21b81523385820152306024820152925060209183916044918391165afa9081156119a45790869160009161196f575b501061196157823b156104ed578560a4600092838551968794859363a415bcad60e01b8552840152896024840152600260448401528160648401523360848401525af19081156104e35750611952575b5080600080516020613bb18339815191525416159081611938575b508061192e575b8015611926575b611915578280f35b61192091339061391a565b38808280f35b50600161190d565b5030331415611906565b9050600080516020613c11833981519152541615386118ff565b61195b90612f4c565b386118e4565b9051630360130760e41b8152fd5b9150506020813d60201161199c575b8161198b60209383612ffd565b810103126104ed5785905138611894565b3d915061197e565b83513d6000823e3d90fd5b90809350843d8611611b02575b6119c68183612ffd565b8101039384126106915760208651946119de86612fab565b126106915785516119ee81612fc7565b835181528452611a0060208401613b7c565b6020850152611a10868401613b7c565b86850152611a2060608401613b7c565b6060850152611a3160808401613b7c565b6080850152611a4260a08401613b7c565b60a085015260c083015164ffffffffff811681036102b55760c0850152808301519161ffff8316830361068e5750836020938993610140936044970152610100611a8d8183016132bc565b90830152610120611a9f8183016132bc565b9083015282611aaf8183016132bc565b90830152610160611ac18183016132bc565b90830152610180611ad3818301613b7c565b908301526101a0611ae5818301613b7c565b90830152611af76101c0809201613b7c565b908201529192611855565b503d6119bc565b509051630702b3d960e41b8152fd5b50905163162908e360e11b8152fd5b509051630ccd248560e21b8152fd5b905163576b540960e01b8152fd5b611b4d816130a4565b9054865163e81cf11760e01b81526001600160a01b038c811688830152602093919284928492602492849260031b1c165afa9182156102ab578c92611bad575b5050611ba157611b9c9061307d565b6117f0565b505050600138806117fb565b90809250813d8311611bdc575b611bc48183612ffd565b810103126102a057611bd5906130e1565b3880611b8d565b503d611bba565b92919050346101be576101003660031901126101be57611c01612d00565b92611c0a612d16565b611c12612d42565b6001600160e01b03199660a435968888169291908389036104ed576001600160a01b039760c4358981169491908590036104ed5760e435976001600160401b0389116101cb573660238a0112156101cb578882013596611c7188613020565b97611c7e8c51998a612ffd565b80895260209a3660248383010111611e555781889260248e9301838d01378a010152611ca861315a565b5085526001895289852054901b9b8c1615611e47575082899a9b611d61938b8394818d9e611d1b9e5194611cdb86612f75565b169b8c8552168c8401528d6044359084015216606082015260843560808201528660a08201528760c08201528b519a8b918b830193845260248301613259565b0399611d2f601f199b8c8101835282612ffd565b5190305afa3d15611e3f573d90611d4582613020565b91611d528b519384612ffd565b82523d848984013e5b30613b19565b9060a08280518101031261068e5750611e2093611e2a999693889693611e1493611e3b9a519b611d908d612f90565b898d82611d9e8a86016132bc565b8083528386015192838c820152611db7606088016132bc565b80958201526080611dd460a0828a0151998a6060860152016130e1565b9101528d5198611de38a612f75565b895216898801528b870152166060850152608084015260a083015260c0820152855196879384015260248301613259565b03908101845283612ffd565b5193848094612e0d565b60c060a084015260c0830190612f0c565b0390f35b606090611d5b565b8851631416e68f60e01b8152fd5b8780fd5b505090346102b557611e6a36612ddc565b91611e7483613185565b60018060a01b03611ea4600080516020613c118339815191529282845416838115159283610786575050506130ee565b611eac613611565b60a08501611eb981613185565b600080516020613bd18339815191525488918416825b8260ff821610612209575b505050156121f957611eeb90613185565b9360209084611efb838901613185565b96611f27611f0b60608b01613185565b99608081013599611f1b82613185565b998a9201359084613378565b8489169889156101eb578815611151578588169081156121e95790611f4d879284613487565b509030036121d6575b16938251916370a0823160e01b90818452308685015282846024818a5afa908115610531576000916121a6575b60249450838d875196878092878252308c8301525afa948515610af257898d99989796959493928f9260009761216c575b508860008794936064938b519e8f968795631a4ca37b60e21b87528601526024850152306044850152165af19788156105315760009861213d575b50845191808352308784015283836024818b5afa928315610af2578e91859160009561210b575b5060248851809481938252308c8301525afa938415610af257908d9392916000956120d4575b505090612048916132ef565b960361101e578991612059916132ef565b03611011575050848683106120bf575b50505080600080516020613bb183398151915254161591826120b3575b5050806120a9575b80156120a1575b61049f57836001815580f35b506000612095565b503033141561208e565b54161590503880612086565b6110036120cc93886132ef565b388084612069565b80929550819394503d8311612104575b6120ee8183612ffd565b810103126104ed5751918b91906120483861203c565b503d6120e4565b9250935081813d8311612136575b6121238183612ffd565b810103126104ed57838e91519338612016565b503d612119565b9097508281813d8311612165575b6121558183612ffd565b810103126104ed57519638611fef565b503d61214b565b9a50955050508288813d831161219f575b6121878183612ffd565b810103126104ed5796518b9790938d908a9088611fb4565b503d61217d565b90508284813d83116121cf575b6121bd8183612ffd565b810103126104ed576024935190611f83565b503d6121b3565b6121e48a308b8585166132fc565b611f56565b50505051630702b3d960e41b8152fd5b5050505163576b540960e01b8152fd5b612212816130a4565b90549089519063e81cf11760e01b8252848c830152816024818b602096879560031b1c165afa9182156122a2578d92612268575b505061225a576122559061307d565b611ecf565b505050506001388080611eda565b90809250813d831161229b575b61227f8183612ffd565b8101031261229757612290906130e1565b3880612246565b8b80fd5b503d612275565b8a513d8f823e3d90fd5b849150346106915736600319011261068e576122c6612ef5565b906122cf612d16565b6122d7612d2c565b906122e0612d42565b9260a4359687151588036104ed5760c435906001600160401b03908183116101be57366023840112156101be578201359081116102b5573691016024011161068e5750916123379391611e3b9693608435936131cb565b9051918291602083526020830190612f0c565b8385843461069157606036600319011261069157612366612d00565b61236e612d16565b612376612d2c565b6001600160a01b0392909190808416156106d257838216156124145791836123a360249360209695613487565b50865198899586946370a0823160e01b86521690840152165afa91821561240957916123d4575b6020925051908152f35b90506020823d602011612401575b816123ef60209383612ffd565b810103126104ed5760209151906123ca565b3d91506123e2565b9051903d90823e3d90fd5b8451630ccd248560e21b81528790fd5b612e46565b84929150346102b55736600319011261069157612444612d00565b9061244d612d16565b9360443592606435916084359060ff808316809303611e5557600080516020613bd1833981519152546001600160a01b0391899186841690835b8184821610612600575b50505050156125f157807f2a2e13707d6b40952f0aec05e2811137753b06b56d55208636050ec9ee68dd785460081c169384156125be5784330361258c574286111561257c57818a161561256c57871561255c5788996124f091613487565b90501693843b15611e5557879460e49386928851998a97889663016a5aab60e31b885287015230602487015260448601526064850152608484015260a43560a484015260c43560c48401525af19081156101c2575061254c5750f35b61255590612f4c565b61068e5780f35b865163162908e360e11b81528390fd5b8651630ccd248560e21b81528390fd5b8651630407b05b60e31b81528390fd5b865162461bcd60e51b8152602081850152600c60248201526b1d5b985d5d1a1bdc9a5e995960a21b6044820152606490fd5b865162461bcd60e51b8152602081850152600d60248201526c1d5b9a5b9a5d1a585b1a5e9959609a1b6044820152606490fd5b50845163576b540960e01b8152fd5b612609816130a4565b9054908c519063e81cf11760e01b8252858a830152816024818b602096879560031b1c165afa918215612697578f92612661575b50506126515761264c9061307d565b612487565b505050505060018a808080612491565b90809250813d8311612690575b6126788183612ffd565b810103126111f157612689906130e1565b8f8061263d565b503d61266e565b8f8e51903d90823e3d90fd5b82858534610691576126b436612d8d565b9396909491939091906001600160a01b0380871633811480156128b6575b8015612874575b6126e391506130ee565b8788600080516020613bd183398151915254905b8160ff8216106127d4575b5050156127c45784169081156127b45715612799575061272184613345565b906e22d473030f116ddee9f6b43ac78ba390813b15611e55579187918493838961276189985198899687958694631b63c28b60e11b865230918601613130565b03925af1908115612790575061277d575b506101a79394613378565b9361278a6101a795612f4c565b93612772565b513d87823e3d90fd5b6101a7969792506127af915084908630916132fc565b613378565b8351630ccd248560e21b81528390fd5b835163576b540960e01b81528390fd5b8b6127de826130a4565b91905491868a519263e81cf11760e01b845216898301528160248189602096879560031b1c165afa91821561286a578d92612834575b5050612828576128239061307d565b6126f7565b50505060018a80612702565b90809250813d8311612863575b61284b8183612ffd565b810103126122975761285c906130e1565b8d80612814565b503d612841565b89513d8f823e3d90fd5b5081600080516020613bf183398151915254169081151591826128ac575b5050806128a3575b6126e3906126d9565b5033301461289a565b1490508a80612892565b50303314806128e0575b80156126d257508082600080516020613b918339815191525416146126d2565b5081600080516020613b91833981519152541615156128c0565b505090346102b55761290b36612d58565b919390928586600080516020613bd183398151915254905b8160ff821610612c53575b505015611b36576001600160a01b03848116949092908515612c45578415612c37573315612c29576129609087613487565b509183303314159384612c16575b16918051896370a0823160e01b8083523085840152602080846024818a5afa908115612c0c578391612bdc575b85518381523088820152945080856024818f5afa948515612b99579b8a819e8d9e879e9c9d9e98612ba3575b509083929189519c8d93631a4ca37b60e21b85528c85015260248401523060448401521681875a92606493f1988915612b99578499612b6a575b50855192808452308885015281846024818c5afa938415612b6057908e92918695612b2c575b50819060248951809581938252308d8301525afa948515612b2157908d9493929195612aea575b505090612a5a916132ef565b960361101e578891612a6b916132ef565b03611011575050848210612ace575b505081600080516020613bb18339815191525416159182612ab4575b5081612aac575b50801561192657611915578280f35b905038612a9d565b600080516020613c11833981519152541615915038612a96565b612adb612ae392866132ef565b90339061391a565b3880612a7a565b80929550819394503d8311612b1a575b612b048183612ffd565b810103126107705751918a9190612a5a38612a4e565b503d612afa565b8751903d90823e3d90fd5b82809296508194503d8311612b59575b612b468183612ffd565b810103126101cb57808e92519490612a27565b503d612b3c565b87513d87823e3d90fd5b9080995081813d8311612b92575b612b828183612ffd565b810103126101be57519738612a01565b503d612b78565b86513d86823e3d90fd5b9b50965050508089813d8311612bd5575b612bbe8183612ffd565b810103126101be57808d8c8e9b51979091926129c7565b503d612bb4565b80915084813d8311612c05575b612bf38183612ffd565b810103126102b557602493519061299b565b503d612be9565b85513d85823e3d90fd5b612c248730338585166132fc565b61296e565b5051630702b3d960e41b8152fd5b505163162908e360e11b8152fd5b5051630ccd248560e21b8152fd5b612c5c816130a4565b9054865163e81cf11760e01b81526001600160a01b038b811688830152602093919284928492602492849260031b1c165afa918215612cf6578b92612cbc575b5050612cb057612cab9061307d565b612923565b5050506001388061292e565b90809250813d8311612cef575b612cd38183612ffd565b81010312612ceb57612ce4906130e1565b3880612c9c565b8980fd5b503d612cc9565b87513d8d823e3d90fd5b600435906001600160a01b03821682036104ed57565b602435906001600160a01b03821682036104ed57565b604435906001600160a01b03821682036104ed57565b606435906001600160a01b03821682036104ed57565b60609060031901126104ed576001600160a01b039060043582811681036104ed579160243590811681036104ed579060443590565b60a09060031901126104ed576001600160a01b039060043582811681036104ed579160243581811681036104ed57916044359160643590811681036104ed579060843580151581036104ed5790565b600319906020818301126104ed57600435916001600160401b0383116104ed578260e0920301126104ed5760040190565b6080809160018060a01b038082511685526020820151602086015260408201511660408501526060810151606085015201511515910152565b346104ed57612e5436612ddc565b612e5c61315a565b506020810190612e6b82613185565b6001600160a01b0392606083019290918480612e8686613185565b16911614612ee35760a093612ea5612e9f608094613185565b94613185565b8160405195612eb387612f90565b168552604083013560208601521660408401520135606082015260016080820152612ee16040518092612e0d565bf35b604051635542f09960e01b8152600490fd5b600435906001600160e01b0319821682036104ed57565b919082519283825260005b848110612f38575050826000602080949584010152601f8019910116010190565b602081830181015184830182015201612f17565b6001600160401b038111612f5f57604052565b634e487b7160e01b600052604160045260246000fd5b60e081019081106001600160401b03821117612f5f57604052565b60a081019081106001600160401b03821117612f5f57604052565b6101e081019081106001600160401b03821117612f5f57604052565b602081019081106001600160401b03821117612f5f57604052565b608081019081106001600160401b03821117612f5f57604052565b601f909101601f19168101906001600160401b03821190821017612f5f57604052565b6001600160401b038111612f5f57601f01601f191660200190565b60809060031901126104ed576001600160a01b039060043582811681036104ed579160243590811681036104ed57906044359060643580151581036104ed5790565b60ff1660ff811461308e5760010190565b634e487b7160e01b600052601160045260246000fd5b600080516020613bd183398151915280548210156130cb5760005260206000200190600090565b634e487b7160e01b600052603260045260246000fd5b519081151582036104ed57565b156130f557565b60405162461bcd60e51b81526020600482015260136024820152722ab730baba3437b934bd32b21031b0b63632b960691b6044820152606490fd5b6001600160a01b039182168152918116602083015291821660408201529116606082015260800190565b6040519061316782612f90565b60006080838281528260208201528260408201528260608201520152565b356001600160a01b03811681036104ed5790565b6001600160a01b0391821681529181166020830152604082019290925291166060820152901515608082015260a00190565b9094909290916001600160e01b031984166333b7e54b60e21b810361321a575090613217946132099392604051978896602088015260248701613199565b03601f198101835282612ffd565b90565b90929190631b63f65b60e31b03613247576132179461320993604051978896602088015260248701613199565b604051631e8b844160e01b8152600490fd5b61010060c0613217936020845260018060a01b0380825116602086015280602083015116604086015260408201516060860152806060830151166080860152608082015160a086015260a0820151168285015201519160e0808201520190612f0c565b51906001600160a01b03821682036104ed57565b908160209103126104ed57516001600160a01b03811681036104ed5790565b9190820391821161308e57565b6040516323b872dd60e01b60208201526001600160a01b0392831660248201529290911660448301526064808301939093529181526133439161333e82612f90565b61394f565b565b6001600160a01b0390818111613359571690565b604490604051906306dfcc6560e41b825260a060048301526024820152fd5b91926001600160a01b039182169290831561347557841561346357821680156134515760009260846020926133ae888689613a64565b604051958693849263573ade8160e01b84528960048501528a602485015260026044850152606484015286165af19182156134455760009261340f575b506133f691926139ab565b036133fd57565b604051634d988ac160e01b8152600490fd5b91506020823d60201161343d575b8161342a60209383612ffd565b810103126104ed576133f69151916133eb565b3d915061341d565b6040513d6000823e3d90fd5b604051630702b3d960e41b8152600490fd5b60405163162908e360e11b8152600490fd5b604051630ccd248560e21b8152600490fd5b60408051630150a5d760e21b8152602094936001600160a01b039390919086908290600490829088165afa9081156119a45784929187916000916135f4575b50600485518097819363e860accb60e01b8352165afa9384156119a4576000946135b6575b5081602460609282865197889485936334924edb60e21b8552166004840152165afa9485156135ab576000938496613555575b5050808316156135445784161561353457509190565b5163227b6aa960e01b8152600490fd5b815163028c06e760e61b8152600490fd5b919550926060823d6060116135a3575b8161357260609383612ffd565b8101031261068e5750818161359461358c61359b946132bc565b9582016132bc565b50016132bc565b93388061351e565b3d9150613565565b82513d6000823e3d90fd5b9093508581813d83116135ed575b6135ce8183612ffd565b810103126104ed578160246135e46060936132bc565b959250506134eb565b503d6135c4565b61360b9150823d841161153e576115308183612ffd565b386134c6565b600260005414613622576002600055565b604051633ee5aeb560e01b8152600490fd5b6001600160a01b0380831694600094939290861561347557841561346357821692831561345157613671839161366b87858b613a64565b83613487565b5016946040958651906370a0823160e01b98898352600499878b85015260209760249689868981885afa9586156138f55787966138c2575b508b51838152308e820152988a8a8a81885afa998a1561388957889a613893575b508116803b15611e555787858f8f908f8d95859160849451978896879563617ba03760e01b87528601528401528860448401528160648401525af1801561388957908b939291613874575b5061372090856139ab565b878d8d5196879384928784528301525afa92831561386a578689928d928896613835575b508c519485938492835230908301525afa96871561382b5784976137f7575b50509061376f916132ef565b600181018082116137e55786119283156137bb575b5050506137ab5790613795916132ef565b0361379e575050565b516365dc80b760e01b8152fd5b505050516361b7a36960e11b8152fd5b60018701935090918387116137d557505011388080613784565b634e487b7160e01b815260118952fd5b5050634e487b7160e01b815260118752fd5b908093929750813d8311613824575b6138108183612ffd565b810103126104ed5790519461376f38613763565b503d613806565b89513d86823e3d90fd5b93925094505081813d8311613863575b61384f8183612ffd565b810103126104ed578a868992519438613744565b503d613845565b8a513d87823e3d90fd5b976138826137209299612f4c565b9790613715565b8d513d8a823e3d90fd5b9099508a81813d83116138bb575b6138ab8183612ffd565b81010312611e55575198386136ca565b503d6138a1565b9095508981813d83116138ee575b6138da8183612ffd565b810103126138ea575194386136a9565b8680fd5b503d6138d0565b8c513d89823e3d90fd5b6001600160a01b039091168152602081019190915260400190565b61333e613343939261394160405194859263a9059cbb60e01b6020850152602484016138ff565b03601f198101845283612ffd565b906000602091828151910182855af115613445576000513d6139a257506001600160a01b0381163b155b6139805750565b604051635274afe760e01b81526001600160a01b039091166004820152602490fd5b60011415613979565b60405190602082019263095ea7b360e01b80855260018060a01b0380921691826024860152602060008097816044890152604488526139e988612fe2565b87519082885af1903d87519083613a43575b50505015613a0b575b5050505050565b613a399461333e926040519260208401526024830152604482015260448152613a3381612fe2565b8261394f565b3880808080613a04565b91925090613a5a575083163b15155b3880806139fb565b6001915014613a52565b6040519160206000818501613a9a86613a8c63095ea7b360e01b998a855287602484016138ff565b03601f198101885287612ffd565b85519082865af16000513d82613af4575b505015613ab9575b50505050565b613aeb9361333e9160405191602083015260018060a01b031660248201526000604482015260448152613a3381612fe2565b38808080613ab3565b909150613b1157506001600160a01b0382163b15155b3880613aab565b600114613b0a565b90613b405750805115613b2e57805190602001fd5b60405163d6bda27560e01b8152600490fd5b81511580613b73575b613b51575090565b604051639996b31560e01b81526001600160a01b039091166004820152602490fd5b50803b15613b49565b51906001600160801b03821682036104ed5756fe2a2e13707d6b40952f0aec05e2811137753b06b56d55208636050ec9ee68dd7b2a2e13707d6b40952f0aec05e2811137753b06b56d55208636050ec9ee68dd7a2a2e13707d6b40952f0aec05e2811137753b06b56d55208636050ec9ee68dd7e2a2e13707d6b40952f0aec05e2811137753b06b56d55208636050ec9ee68dd79c9e4fb8bffaf71b56abf2a5032f2ea641e97267f8c0d9bcf66c86998c650d62aa26469706673582212209290a7a760936a3b9e8db6c8c033a1e194c9d4226735b932a877f343ef5ade3f64736f6c63430008160033",
  "linkReferences": {},
  "deployedLinkReferences": {}
}