{
  "_format": "hh-sol-artifact-1",
  "contractName": "TestMockStrategyFull",
  "sourceName": "contracts/test/TestMockStrategyFull.sol",
  "abi": [
    {
      "inputs": [
        {
          "internalType": "address",
          "name": "_asset",
          "type": "address"
        },
        {
          "internalType": "address",
          "name": "_controller",
          "type": "address"
        },
        {
          "internalType": "address",
          "name": "_discountRateAdapter",
          "type": "address"
        }
      ],
      "stateMutability": "nonpayable",
      "type": "constructor"
    },
    {
      "inputs": [],
      "name": "asset",
      "outputs": [
        {
          "internalType": "address",
          "name": "",
          "type": "address"
        }
      ],
      "stateMutability": "view",
      "type": "function"
    },
    {
      "inputs": [],
      "name": "controller",
      "outputs": [
        {
          "internalType": "address",
          "name": "",
          "type": "address"
        }
      ],
      "stateMutability": "view",
      "type": "function"
    },
    {
      "inputs": [],
      "name": "discountRateAdapter",
      "outputs": [
        {
          "internalType": "address",
          "name": "",
          "type": "address"
        }
      ],
      "stateMutability": "view",
      "type": "function"
    },
    {
      "inputs": [],
      "name": "discountRateMarkup",
      "outputs": [
        {
          "internalType": "uint256",
          "name": "",
          "type": "uint256"
        }
      ],
      "stateMutability": "view",
      "type": "function"
    },
    {
      "inputs": [],
      "name": "exchangeRate",
      "outputs": [
        {
          "internalType": "uint256",
          "name": "",
          "type": "uint256"
        }
      ],
      "stateMutability": "view",
      "type": "function"
    },
    {
      "inputs": [],
      "name": "partialConsume",
      "outputs": [
        {
          "internalType": "bool",
          "name": "",
          "type": "bool"
        }
      ],
      "stateMutability": "view",
      "type": "function"
    },
    {
      "inputs": [
        {
          "internalType": "address",
          "name": "repoToken",
          "type": "address"
        },
        {
          "internalType": "uint256",
          "name": "amount",
          "type": "uint256"
        }
      ],
      "name": "sellRepoToken",
      "outputs": [],
      "stateMutability": "nonpayable",
      "type": "function"
    },
    {
      "inputs": [
        {
          "internalType": "uint256",
          "name": "markup",
          "type": "uint256"
        }
      ],
      "name": "setDiscountRateMarkup",
      "outputs": [],
      "stateMutability": "nonpayable",
      "type": "function"
    },
    {
      "inputs": [
        {
          "internalType": "uint256",
          "name": "rate",
          "type": "uint256"
        }
      ],
      "name": "setExchangeRate",
      "outputs": [],
      "stateMutability": "nonpayable",
      "type": "function"
    },
    {
      "inputs": [
        {
          "internalType": "bool",
          "name": "_partial",
          "type": "bool"
        }
      ],
      "name": "setPartialConsume",
      "outputs": [],
      "stateMutability": "nonpayable",
      "type": "function"
    },
    {
      "inputs": [],
      "name": "strategyState",
      "outputs": [
        {
          "components": [
            {
              "internalType": "address",
              "name": "assetVault",
              "type": "address"
            },
            {
              "internalType": "address",
              "name": "eventEmitter",
              "type": "address"
            },
            {
              "internalType": "address",
              "name": "governorAddress",
              "type": "address"
            },
            {
              "internalType": "address",
              "name": "prevTermController",
              "type": "address"
            },
            {
              "internalType": "address",
              "name": "currTermController",
              "type": "address"
            },
            {
              "internalType": "address",
              "name": "discountRateAdapter",
              "type": "address"
            },
            {
              "internalType": "uint256",
              "name": "timeToMaturityThreshold",
              "type": "uint256"
            },
            {
              "internalType": "uint256",
              "name": "requiredReserveRatio",
              "type": "uint256"
            },
            {
              "internalType": "uint256",
              "name": "discountRateMarkup",
              "type": "uint256"
            },
            {
              "internalType": "uint256",
              "name": "repoTokenConcentrationLimit",
              "type": "uint256"
            }
          ],
          "internalType": "struct TestMockStrategyFull.StrategyState",
          "name": "",
          "type": "tuple"
        }
      ],
      "stateMutability": "view",
      "type": "function"
    }
  ],
  "bytecode": "0x6080346100ac57601f6105fd38819003918201601f19168301916001600160401b038311848410176100b1578084926060946040528339810103126100ac57610047816100c7565b906100606040610059602084016100c7565b92016100c7565b670de0b6b3a764000060055560018060a01b0380928160018060a01b03199516856000541617600055168360015416176001551690600254161760025560405161052190816100dc8239f35b600080fd5b634e487b7160e01b600052604160045260246000fd5b51906001600160a01b03821682036100ac5756fe60808060405260048036101561001457600080fd5b60003560e01c9182625446f2146103235750816311b4e253146101d357816338d52e0f146101aa5781633ba0b9a91461018c578163478cb7831461016e578163add5ba4b14610157578163b7faa61114610135578163bb347b171461010c578163db068e0e146100f5578163e44149dc146100c7575063f77c47911461009957600080fd5b346100c25760003660031901126100c2576001546040516001600160a01b039091168152602090f35b600080fd5b346100c25760203660031901126100c25780358015158091036100c25760ff80198354169116179055600080f35b346100c25760203660031901126100c25735600555005b346100c25760003660031901126100c2576002546040516001600160a01b039091168152602090f35b346100c25760003660031901126100c25760ff60209154166040519015158152f35b346100c25760203660031901126100c25735600355005b346100c25760003660031901126100c2576020600354604051908152f35b346100c25760003660031901126100c2576020600554604051908152f35b346100c25760003660031901126100c2576000546040516001600160a01b039091168152602090f35b346100c25760003660031901126100c25760006101206040516101f58161047e565b8281528260208201528260408201528260608201528260808201528260a08201528260c08201528260e082015282610100820152015261014060018060a01b036001541660018060a01b036002541660035490604051926102558461047e565b60008452600060208501526000604085015260006060850152608084015260a0830152600060c0830152600060e08301526101008201526000610120820152610120604051916000835260018060a01b03602082015116602084015260018060a01b03604082015116604084015260018060a01b03606082015116606084015260018060a01b03608082015116608084015260018060a01b0360a08201511660a084015260c081015160c084015260e081015160e08401526101008101516101008401520151610120820152f35b90346100c25760403660031901126100c2576001600160a01b03813581811693908490036100c25760243560ff8454166000146104785760011c935b84159182159182610422575b505060055490811515908161041a575b5061038257005b808502948504141715610405579160446020926000670de0b6b3a764000095815416604051968795869463a9059cbb60e01b865233908601520460248401525af180156103f9576103cf57005b6103f09060203d6020116103f2575b6103e881836104b0565b8101906104d3565b005b503d6103de565b6040513d6000823e3d90fd5b601182634e487b7160e01b6000525260246000fd5b90508661037b565b8160648160006020946323b872dd60e01b8352338b8401523060248401528b60448401525af180156103f957610459575b8061036b565b6104719060203d6020116103f2576103e881836104b0565b5085610453565b9361035f565b61014081019081106001600160401b0382111761049a57604052565b634e487b7160e01b600052604160045260246000fd5b601f909101601f19168101906001600160401b0382119082101761049a57604052565b908160209103126100c2575180151581036100c2579056fea26469706673582212202492584c5edf72f04d79a001ba543d64d2cf49402dc3d600dbcccc4d943fccf764736f6c63430008160033",
  "linkReferences": {},
  "deployedLinkReferences": {}
}