{
  "_format": "hh-sol-artifact-1",
  "contractName": "TestTermMorphoInterfaceFacetHelper",
  "sourceName": "contracts/test/TestTermMorphoInterfaceFacetHelper.sol",
  "abi": [
    {
      "inputs": [
        {
          "internalType": "address",
          "name": "morphoPool_",
          "type": "address"
        }
      ],
      "stateMutability": "nonpayable",
      "type": "constructor"
    },
    {
      "inputs": [
        {
          "internalType": "address",
          "name": "target",
          "type": "address"
        }
      ],
      "name": "AddressEmptyCode",
      "type": "error"
    },
    {
      "inputs": [],
      "name": "BorrowedAssetsMismatch",
      "type": "error"
    },
    {
      "inputs": [],
      "name": "Expired",
      "type": "error"
    },
    {
      "inputs": [],
      "name": "FailedCall",
      "type": "error"
    },
    {
      "inputs": [],
      "name": "IncorrectTargetAsset",
      "type": "error"
    },
    {
      "inputs": [],
      "name": "InputOutputTokenCollision",
      "type": "error"
    },
    {
      "inputs": [],
      "name": "InvalidAmount",
      "type": "error"
    },
    {
      "inputs": [],
      "name": "InvalidAssetAddress",
      "type": "error"
    },
    {
      "inputs": [],
      "name": "InvalidCollateralAsset",
      "type": "error"
    },
    {
      "inputs": [],
      "name": "InvalidLoanToken",
      "type": "error"
    },
    {
      "inputs": [],
      "name": "InvalidMarketId",
      "type": "error"
    },
    {
      "inputs": [],
      "name": "InvalidMorphoPoolAddress",
      "type": "error"
    },
    {
      "inputs": [],
      "name": "InvalidUserAddress",
      "type": "error"
    },
    {
      "inputs": [],
      "name": "ReentrancyGuardReentrantCall",
      "type": "error"
    },
    {
      "inputs": [],
      "name": "RepaidAssetsMismatch",
      "type": "error"
    },
    {
      "inputs": [
        {
          "internalType": "uint8",
          "name": "bits",
          "type": "uint8"
        },
        {
          "internalType": "uint256",
          "name": "value",
          "type": "uint256"
        }
      ],
      "name": "SafeCastOverflowedUintDowncast",
      "type": "error"
    },
    {
      "inputs": [
        {
          "internalType": "address",
          "name": "token",
          "type": "address"
        }
      ],
      "name": "SafeERC20FailedOperation",
      "type": "error"
    },
    {
      "inputs": [],
      "name": "SelfSupplyNotAllowed",
      "type": "error"
    },
    {
      "inputs": [],
      "name": "SupplyAmountMismatch",
      "type": "error"
    },
    {
      "inputs": [],
      "name": "UnsupportedHookSelector",
      "type": "error"
    },
    {
      "inputs": [],
      "name": "UnsupportedSelector",
      "type": "error"
    },
    {
      "anonymous": false,
      "inputs": [
        {
          "indexed": false,
          "internalType": "address",
          "name": "taker",
          "type": "address"
        },
        {
          "indexed": false,
          "internalType": "uint256",
          "name": "fillAmount",
          "type": "uint256"
        }
      ],
      "name": "SettleLimitBorrowCalled",
      "type": "event"
    },
    {
      "anonymous": false,
      "inputs": [
        {
          "indexed": false,
          "internalType": "address",
          "name": "taker",
          "type": "address"
        },
        {
          "indexed": false,
          "internalType": "uint256",
          "name": "fillAmount",
          "type": "uint256"
        }
      ],
      "name": "SettleLimitLendCalled",
      "type": "event"
    },
    {
      "anonymous": false,
      "inputs": [
        {
          "indexed": false,
          "internalType": "address",
          "name": "taker",
          "type": "address"
        },
        {
          "indexed": false,
          "internalType": "uint256",
          "name": "fillAmount",
          "type": "uint256"
        }
      ],
      "name": "SwapRepoTokenCalled",
      "type": "event"
    },
    {
      "inputs": [
        {
          "internalType": "address",
          "name": "controller",
          "type": "address"
        }
      ],
      "name": "addApprovedTermController",
      "outputs": [],
      "stateMutability": "nonpayable",
      "type": "function"
    },
    {
      "inputs": [
        {
          "internalType": "address",
          "name": "morphoPool",
          "type": "address"
        },
        {
          "internalType": "address",
          "name": "user",
          "type": "address"
        },
        {
          "internalType": "bytes32",
          "name": "marketId",
          "type": "bytes32"
        }
      ],
      "name": "availableBorrow",
      "outputs": [
        {
          "internalType": "uint256",
          "name": "",
          "type": "uint256"
        }
      ],
      "stateMutability": "view",
      "type": "function"
    },
    {
      "inputs": [
        {
          "internalType": "address",
          "name": "morphoPool",
          "type": "address"
        },
        {
          "internalType": "address",
          "name": "user",
          "type": "address"
        },
        {
          "internalType": "bytes32",
          "name": "marketId",
          "type": "bytes32"
        }
      ],
      "name": "availableFunds",
      "outputs": [
        {
          "internalType": "uint256",
          "name": "",
          "type": "uint256"
        }
      ],
      "stateMutability": "view",
      "type": "function"
    },
    {
      "inputs": [],
      "name": "clearActiveFlashLoanBorrower",
      "outputs": [],
      "stateMutability": "nonpayable",
      "type": "function"
    },
    {
      "inputs": [],
      "name": "clearActiveSettlementMaker",
      "outputs": [],
      "stateMutability": "nonpayable",
      "type": "function"
    },
    {
      "inputs": [],
      "name": "clearAtomicTxInitiator",
      "outputs": [],
      "stateMutability": "nonpayable",
      "type": "function"
    },
    {
      "inputs": [],
      "name": "clearMulticallInitiator",
      "outputs": [],
      "stateMutability": "nonpayable",
      "type": "function"
    },
    {
      "inputs": [
        {
          "internalType": "address",
          "name": "morphoPool",
          "type": "address"
        },
        {
          "internalType": "address",
          "name": "user",
          "type": "address"
        },
        {
          "internalType": "bytes32",
          "name": "marketId",
          "type": "bytes32"
        }
      ],
      "name": "currentBorrow",
      "outputs": [
        {
          "internalType": "uint256",
          "name": "",
          "type": "uint256"
        }
      ],
      "stateMutability": "view",
      "type": "function"
    },
    {
      "inputs": [
        {
          "internalType": "address",
          "name": "user",
          "type": "address"
        },
        {
          "internalType": "address",
          "name": "inputToken",
          "type": "address"
        },
        {
          "internalType": "uint256",
          "name": "maxInputAmount",
          "type": "uint256"
        },
        {
          "internalType": "address",
          "name": "outputToken",
          "type": "address"
        },
        {
          "internalType": "uint256",
          "name": "minOutputAmount",
          "type": "uint256"
        },
        {
          "internalType": "bytes4",
          "name": "selector",
          "type": "bytes4"
        },
        {
          "internalType": "address",
          "name": "targetAddress",
          "type": "address"
        },
        {
          "internalType": "bytes",
          "name": "additionalCalldata",
          "type": "bytes"
        }
      ],
      "name": "generateActionCalldata",
      "outputs": [
        {
          "components": [
            {
              "internalType": "address",
              "name": "expectedInputToken",
              "type": "address"
            },
            {
              "internalType": "uint256",
              "name": "expectedInputAmount",
              "type": "uint256"
            },
            {
              "internalType": "address",
              "name": "expectedOutputToken",
              "type": "address"
            },
            {
              "internalType": "uint256",
              "name": "expectedOutputAmount",
              "type": "uint256"
            },
            {
              "internalType": "bool",
              "name": "isDeterministic",
              "type": "bool"
            }
          ],
          "internalType": "struct PreviewAction",
          "name": "",
          "type": "tuple"
        },
        {
          "internalType": "bytes",
          "name": "",
          "type": "bytes"
        }
      ],
      "stateMutability": "view",
      "type": "function"
    },
    {
      "inputs": [
        {
          "internalType": "bytes4",
          "name": "selector",
          "type": "bytes4"
        },
        {
          "internalType": "address",
          "name": "morphoPool",
          "type": "address"
        },
        {
          "internalType": "address",
          "name": "asset",
          "type": "address"
        },
        {
          "internalType": "address",
          "name": "user",
          "type": "address"
        },
        {
          "internalType": "uint256",
          "name": "amount",
          "type": "uint256"
        },
        {
          "internalType": "bool",
          "name": "payoutUser",
          "type": "bool"
        },
        {
          "internalType": "bytes",
          "name": "data",
          "type": "bytes"
        }
      ],
      "name": "generateCalldata",
      "outputs": [
        {
          "internalType": "bytes",
          "name": "",
          "type": "bytes"
        }
      ],
      "stateMutability": "view",
      "type": "function"
    },
    {
      "inputs": [
        {
          "internalType": "address",
          "name": "token",
          "type": "address"
        }
      ],
      "name": "getAssetBalance",
      "outputs": [
        {
          "internalType": "uint256",
          "name": "",
          "type": "uint256"
        }
      ],
      "stateMutability": "view",
      "type": "function"
    },
    {
      "inputs": [
        {
          "internalType": "address",
          "name": "morphoPool",
          "type": "address"
        },
        {
          "components": [
            {
              "internalType": "address",
              "name": "loanToken",
              "type": "address"
            },
            {
              "internalType": "address",
              "name": "collateralToken",
              "type": "address"
            },
            {
              "internalType": "address",
              "name": "oracle",
              "type": "address"
            },
            {
              "internalType": "address",
              "name": "irm",
              "type": "address"
            },
            {
              "internalType": "uint256",
              "name": "lltv",
              "type": "uint256"
            }
          ],
          "internalType": "struct MarketParams",
          "name": "marketParams",
          "type": "tuple"
        },
        {
          "internalType": "uint256",
          "name": "assets",
          "type": "uint256"
        }
      ],
      "name": "morphoBorrow",
      "outputs": [],
      "stateMutability": "nonpayable",
      "type": "function"
    },
    {
      "inputs": [
        {
          "internalType": "address",
          "name": "morphoPool",
          "type": "address"
        },
        {
          "components": [
            {
              "internalType": "address",
              "name": "loanToken",
              "type": "address"
            },
            {
              "internalType": "address",
              "name": "collateralToken",
              "type": "address"
            },
            {
              "internalType": "address",
              "name": "oracle",
              "type": "address"
            },
            {
              "internalType": "address",
              "name": "irm",
              "type": "address"
            },
            {
              "internalType": "uint256",
              "name": "lltv",
              "type": "uint256"
            }
          ],
          "internalType": "struct MarketParams",
          "name": "marketParams",
          "type": "tuple"
        },
        {
          "internalType": "uint256",
          "name": "assets",
          "type": "uint256"
        },
        {
          "internalType": "address",
          "name": "user",
          "type": "address"
        },
        {
          "internalType": "bool",
          "name": "payoutUser",
          "type": "bool"
        }
      ],
      "name": "morphoBorrow",
      "outputs": [],
      "stateMutability": "nonpayable",
      "type": "function"
    },
    {
      "inputs": [
        {
          "components": [
            {
              "internalType": "address",
              "name": "user",
              "type": "address"
            },
            {
              "internalType": "address",
              "name": "inputToken",
              "type": "address"
            },
            {
              "internalType": "uint256",
              "name": "maxInputAmount",
              "type": "uint256"
            },
            {
              "internalType": "address",
              "name": "outputToken",
              "type": "address"
            },
            {
              "internalType": "uint256",
              "name": "minOutputAmount",
              "type": "uint256"
            },
            {
              "internalType": "address",
              "name": "targetAddress",
              "type": "address"
            },
            {
              "internalType": "bytes",
              "name": "additionalCalldata",
              "type": "bytes"
            }
          ],
          "internalType": "struct ActionHookInput",
          "name": "input",
          "type": "tuple"
        }
      ],
      "name": "morphoRefinanceInHook",
      "outputs": [],
      "stateMutability": "nonpayable",
      "type": "function"
    },
    {
      "inputs": [
        {
          "components": [
            {
              "internalType": "address",
              "name": "user",
              "type": "address"
            },
            {
              "internalType": "address",
              "name": "inputToken",
              "type": "address"
            },
            {
              "internalType": "uint256",
              "name": "maxInputAmount",
              "type": "uint256"
            },
            {
              "internalType": "address",
              "name": "outputToken",
              "type": "address"
            },
            {
              "internalType": "uint256",
              "name": "minOutputAmount",
              "type": "uint256"
            },
            {
              "internalType": "address",
              "name": "targetAddress",
              "type": "address"
            },
            {
              "internalType": "bytes",
              "name": "additionalCalldata",
              "type": "bytes"
            }
          ],
          "internalType": "struct ActionHookInput",
          "name": "input",
          "type": "tuple"
        }
      ],
      "name": "morphoRefinanceOutHook",
      "outputs": [],
      "stateMutability": "nonpayable",
      "type": "function"
    },
    {
      "inputs": [
        {
          "internalType": "address",
          "name": "morphoPool",
          "type": "address"
        },
        {
          "components": [
            {
              "internalType": "address",
              "name": "loanToken",
              "type": "address"
            },
            {
              "internalType": "address",
              "name": "collateralToken",
              "type": "address"
            },
            {
              "internalType": "address",
              "name": "oracle",
              "type": "address"
            },
            {
              "internalType": "address",
              "name": "irm",
              "type": "address"
            },
            {
              "internalType": "uint256",
              "name": "lltv",
              "type": "uint256"
            }
          ],
          "internalType": "struct MarketParams",
          "name": "marketParams",
          "type": "tuple"
        },
        {
          "internalType": "uint256",
          "name": "assets",
          "type": "uint256"
        },
        {
          "internalType": "address",
          "name": "user",
          "type": "address"
        },
        {
          "internalType": "bool",
          "name": "usePermit2",
          "type": "bool"
        }
      ],
      "name": "morphoRepay",
      "outputs": [],
      "stateMutability": "nonpayable",
      "type": "function"
    },
    {
      "inputs": [
        {
          "internalType": "address",
          "name": "morphoPool",
          "type": "address"
        },
        {
          "components": [
            {
              "internalType": "address",
              "name": "loanToken",
              "type": "address"
            },
            {
              "internalType": "address",
              "name": "collateralToken",
              "type": "address"
            },
            {
              "internalType": "address",
              "name": "oracle",
              "type": "address"
            },
            {
              "internalType": "address",
              "name": "irm",
              "type": "address"
            },
            {
              "internalType": "uint256",
              "name": "lltv",
              "type": "uint256"
            }
          ],
          "internalType": "struct MarketParams",
          "name": "marketParams",
          "type": "tuple"
        },
        {
          "internalType": "uint256",
          "name": "assets",
          "type": "uint256"
        },
        {
          "internalType": "bool",
          "name": "usePermit2",
          "type": "bool"
        }
      ],
      "name": "morphoRepay",
      "outputs": [],
      "stateMutability": "nonpayable",
      "type": "function"
    },
    {
      "inputs": [
        {
          "internalType": "address",
          "name": "morphoPool",
          "type": "address"
        },
        {
          "components": [
            {
              "internalType": "address",
              "name": "authorizer",
              "type": "address"
            },
            {
              "internalType": "address",
              "name": "authorized",
              "type": "address"
            },
            {
              "internalType": "bool",
              "name": "isAuthorized",
              "type": "bool"
            },
            {
              "internalType": "uint256",
              "name": "nonce",
              "type": "uint256"
            },
            {
              "internalType": "uint256",
              "name": "deadline",
              "type": "uint256"
            }
          ],
          "internalType": "struct Authorization",
          "name": "authorization",
          "type": "tuple"
        },
        {
          "components": [
            {
              "internalType": "uint8",
              "name": "v",
              "type": "uint8"
            },
            {
              "internalType": "bytes32",
              "name": "r",
              "type": "bytes32"
            },
            {
              "internalType": "bytes32",
              "name": "s",
              "type": "bytes32"
            }
          ],
          "internalType": "struct Signature",
          "name": "signature",
          "type": "tuple"
        },
        {
          "internalType": "bool",
          "name": "skipRevert",
          "type": "bool"
        }
      ],
      "name": "morphoSetAuthorizationWithSig",
      "outputs": [],
      "stateMutability": "nonpayable",
      "type": "function"
    },
    {
      "inputs": [
        {
          "internalType": "address",
          "name": "morphoPool",
          "type": "address"
        },
        {
          "components": [
            {
              "internalType": "address",
              "name": "loanToken",
              "type": "address"
            },
            {
              "internalType": "address",
              "name": "collateralToken",
              "type": "address"
            },
            {
              "internalType": "address",
              "name": "oracle",
              "type": "address"
            },
            {
              "internalType": "address",
              "name": "irm",
              "type": "address"
            },
            {
              "internalType": "uint256",
              "name": "lltv",
              "type": "uint256"
            }
          ],
          "internalType": "struct MarketParams",
          "name": "marketParams",
          "type": "tuple"
        },
        {
          "internalType": "uint256",
          "name": "assets",
          "type": "uint256"
        },
        {
          "internalType": "address",
          "name": "user",
          "type": "address"
        },
        {
          "internalType": "bool",
          "name": "usePermit2",
          "type": "bool"
        }
      ],
      "name": "morphoSupply",
      "outputs": [],
      "stateMutability": "nonpayable",
      "type": "function"
    },
    {
      "inputs": [
        {
          "internalType": "address",
          "name": "morphoPool",
          "type": "address"
        },
        {
          "components": [
            {
              "internalType": "address",
              "name": "loanToken",
              "type": "address"
            },
            {
              "internalType": "address",
              "name": "collateralToken",
              "type": "address"
            },
            {
              "internalType": "address",
              "name": "oracle",
              "type": "address"
            },
            {
              "internalType": "address",
              "name": "irm",
              "type": "address"
            },
            {
              "internalType": "uint256",
              "name": "lltv",
              "type": "uint256"
            }
          ],
          "internalType": "struct MarketParams",
          "name": "marketParams",
          "type": "tuple"
        },
        {
          "internalType": "uint256",
          "name": "assets",
          "type": "uint256"
        },
        {
          "internalType": "bool",
          "name": "usePermit2",
          "type": "bool"
        }
      ],
      "name": "morphoSupply",
      "outputs": [],
      "stateMutability": "nonpayable",
      "type": "function"
    },
    {
      "inputs": [
        {
          "internalType": "address",
          "name": "morphoPool",
          "type": "address"
        },
        {
          "components": [
            {
              "internalType": "address",
              "name": "loanToken",
              "type": "address"
            },
            {
              "internalType": "address",
              "name": "collateralToken",
              "type": "address"
            },
            {
              "internalType": "address",
              "name": "oracle",
              "type": "address"
            },
            {
              "internalType": "address",
              "name": "irm",
              "type": "address"
            },
            {
              "internalType": "uint256",
              "name": "lltv",
              "type": "uint256"
            }
          ],
          "internalType": "struct MarketParams",
          "name": "marketParams",
          "type": "tuple"
        },
        {
          "internalType": "uint256",
          "name": "assets",
          "type": "uint256"
        },
        {
          "internalType": "address",
          "name": "user",
          "type": "address"
        },
        {
          "internalType": "bool",
          "name": "usePermit2",
          "type": "bool"
        }
      ],
      "name": "morphoSupplyCollateral",
      "outputs": [],
      "stateMutability": "nonpayable",
      "type": "function"
    },
    {
      "inputs": [
        {
          "internalType": "address",
          "name": "morphoPool",
          "type": "address"
        },
        {
          "components": [
            {
              "internalType": "address",
              "name": "loanToken",
              "type": "address"
            },
            {
              "internalType": "address",
              "name": "collateralToken",
              "type": "address"
            },
            {
              "internalType": "address",
              "name": "oracle",
              "type": "address"
            },
            {
              "internalType": "address",
              "name": "irm",
              "type": "address"
            },
            {
              "internalType": "uint256",
              "name": "lltv",
              "type": "uint256"
            }
          ],
          "internalType": "struct MarketParams",
          "name": "marketParams",
          "type": "tuple"
        },
        {
          "internalType": "uint256",
          "name": "assets",
          "type": "uint256"
        },
        {
          "internalType": "bool",
          "name": "usePermit2",
          "type": "bool"
        }
      ],
      "name": "morphoSupplyCollateral",
      "outputs": [],
      "stateMutability": "nonpayable",
      "type": "function"
    },
    {
      "inputs": [
        {
          "internalType": "address",
          "name": "morphoPool",
          "type": "address"
        },
        {
          "components": [
            {
              "internalType": "address",
              "name": "loanToken",
              "type": "address"
            },
            {
              "internalType": "address",
              "name": "collateralToken",
              "type": "address"
            },
            {
              "internalType": "address",
              "name": "oracle",
              "type": "address"
            },
            {
              "internalType": "address",
              "name": "irm",
              "type": "address"
            },
            {
              "internalType": "uint256",
              "name": "lltv",
              "type": "uint256"
            }
          ],
          "internalType": "struct MarketParams",
          "name": "marketParams",
          "type": "tuple"
        },
        {
          "internalType": "uint256",
          "name": "assets",
          "type": "uint256"
        }
      ],
      "name": "morphoWithdrawCollateral",
      "outputs": [],
      "stateMutability": "nonpayable",
      "type": "function"
    },
    {
      "inputs": [
        {
          "internalType": "address",
          "name": "morphoPool",
          "type": "address"
        },
        {
          "components": [
            {
              "internalType": "address",
              "name": "loanToken",
              "type": "address"
            },
            {
              "internalType": "address",
              "name": "collateralToken",
              "type": "address"
            },
            {
              "internalType": "address",
              "name": "oracle",
              "type": "address"
            },
            {
              "internalType": "address",
              "name": "irm",
              "type": "address"
            },
            {
              "internalType": "uint256",
              "name": "lltv",
              "type": "uint256"
            }
          ],
          "internalType": "struct MarketParams",
          "name": "marketParams",
          "type": "tuple"
        },
        {
          "internalType": "uint256",
          "name": "assets",
          "type": "uint256"
        },
        {
          "internalType": "address",
          "name": "user",
          "type": "address"
        },
        {
          "internalType": "bool",
          "name": "payoutUser",
          "type": "bool"
        }
      ],
      "name": "morphoWithdrawCollateral",
      "outputs": [],
      "stateMutability": "nonpayable",
      "type": "function"
    },
    {
      "inputs": [
        {
          "internalType": "bytes4",
          "name": "",
          "type": "bytes4"
        }
      ],
      "name": "previewMapping",
      "outputs": [
        {
          "internalType": "bytes4",
          "name": "",
          "type": "bytes4"
        }
      ],
      "stateMutability": "view",
      "type": "function"
    },
    {
      "inputs": [
        {
          "components": [
            {
              "internalType": "address",
              "name": "user",
              "type": "address"
            },
            {
              "internalType": "address",
              "name": "inputToken",
              "type": "address"
            },
            {
              "internalType": "uint256",
              "name": "maxInputAmount",
              "type": "uint256"
            },
            {
              "internalType": "address",
              "name": "outputToken",
              "type": "address"
            },
            {
              "internalType": "uint256",
              "name": "minOutputAmount",
              "type": "uint256"
            },
            {
              "internalType": "address",
              "name": "targetAddress",
              "type": "address"
            },
            {
              "internalType": "bytes",
              "name": "additionalCalldata",
              "type": "bytes"
            }
          ],
          "internalType": "struct ActionHookInput",
          "name": "actionHookInput",
          "type": "tuple"
        }
      ],
      "name": "previewMorphoRefinanceIn",
      "outputs": [
        {
          "components": [
            {
              "internalType": "address",
              "name": "expectedInputToken",
              "type": "address"
            },
            {
              "internalType": "uint256",
              "name": "expectedInputAmount",
              "type": "uint256"
            },
            {
              "internalType": "address",
              "name": "expectedOutputToken",
              "type": "address"
            },
            {
              "internalType": "uint256",
              "name": "expectedOutputAmount",
              "type": "uint256"
            },
            {
              "internalType": "bool",
              "name": "isDeterministic",
              "type": "bool"
            }
          ],
          "internalType": "struct PreviewAction",
          "name": "",
          "type": "tuple"
        }
      ],
      "stateMutability": "view",
      "type": "function"
    },
    {
      "inputs": [
        {
          "components": [
            {
              "internalType": "address",
              "name": "user",
              "type": "address"
            },
            {
              "internalType": "address",
              "name": "inputToken",
              "type": "address"
            },
            {
              "internalType": "uint256",
              "name": "maxInputAmount",
              "type": "uint256"
            },
            {
              "internalType": "address",
              "name": "outputToken",
              "type": "address"
            },
            {
              "internalType": "uint256",
              "name": "minOutputAmount",
              "type": "uint256"
            },
            {
              "internalType": "address",
              "name": "targetAddress",
              "type": "address"
            },
            {
              "internalType": "bytes",
              "name": "additionalCalldata",
              "type": "bytes"
            }
          ],
          "internalType": "struct ActionHookInput",
          "name": "actionHookInput",
          "type": "tuple"
        }
      ],
      "name": "previewMorphoRefinanceOut",
      "outputs": [
        {
          "components": [
            {
              "internalType": "address",
              "name": "expectedInputToken",
              "type": "address"
            },
            {
              "internalType": "uint256",
              "name": "expectedInputAmount",
              "type": "uint256"
            },
            {
              "internalType": "address",
              "name": "expectedOutputToken",
              "type": "address"
            },
            {
              "internalType": "uint256",
              "name": "expectedOutputAmount",
              "type": "uint256"
            },
            {
              "internalType": "bool",
              "name": "isDeterministic",
              "type": "bool"
            }
          ],
          "internalType": "struct PreviewAction",
          "name": "",
          "type": "tuple"
        }
      ],
      "stateMutability": "view",
      "type": "function"
    },
    {
      "inputs": [
        {
          "internalType": "address",
          "name": "pool",
          "type": "address"
        },
        {
          "components": [
            {
              "internalType": "address",
              "name": "loanToken",
              "type": "address"
            },
            {
              "internalType": "address",
              "name": "collateralToken",
              "type": "address"
            },
            {
              "internalType": "address",
              "name": "oracle",
              "type": "address"
            },
            {
              "internalType": "address",
              "name": "irm",
              "type": "address"
            },
            {
              "internalType": "uint256",
              "name": "lltv",
              "type": "uint256"
            }
          ],
          "internalType": "struct MarketParams",
          "name": "mp",
          "type": "tuple"
        },
        {
          "internalType": "uint256",
          "name": "assets",
          "type": "uint256"
        },
        {
          "internalType": "address",
          "name": "user",
          "type": "address"
        },
        {
          "internalType": "bool",
          "name": "payoutUser",
          "type": "bool"
        }
      ],
      "name": "selfCallBorrow",
      "outputs": [],
      "stateMutability": "nonpayable",
      "type": "function"
    },
    {
      "inputs": [
        {
          "internalType": "address",
          "name": "pool",
          "type": "address"
        },
        {
          "components": [
            {
              "internalType": "address",
              "name": "loanToken",
              "type": "address"
            },
            {
              "internalType": "address",
              "name": "collateralToken",
              "type": "address"
            },
            {
              "internalType": "address",
              "name": "oracle",
              "type": "address"
            },
            {
              "internalType": "address",
              "name": "irm",
              "type": "address"
            },
            {
              "internalType": "uint256",
              "name": "lltv",
              "type": "uint256"
            }
          ],
          "internalType": "struct MarketParams",
          "name": "mp",
          "type": "tuple"
        },
        {
          "internalType": "uint256",
          "name": "assets",
          "type": "uint256"
        },
        {
          "internalType": "address",
          "name": "user",
          "type": "address"
        },
        {
          "internalType": "bool",
          "name": "usePermit2",
          "type": "bool"
        }
      ],
      "name": "selfCallRepay",
      "outputs": [],
      "stateMutability": "nonpayable",
      "type": "function"
    },
    {
      "inputs": [
        {
          "internalType": "address",
          "name": "pool",
          "type": "address"
        },
        {
          "components": [
            {
              "internalType": "address",
              "name": "loanToken",
              "type": "address"
            },
            {
              "internalType": "address",
              "name": "collateralToken",
              "type": "address"
            },
            {
              "internalType": "address",
              "name": "oracle",
              "type": "address"
            },
            {
              "internalType": "address",
              "name": "irm",
              "type": "address"
            },
            {
              "internalType": "uint256",
              "name": "lltv",
              "type": "uint256"
            }
          ],
          "internalType": "struct MarketParams",
          "name": "mp",
          "type": "tuple"
        },
        {
          "internalType": "uint256",
          "name": "assets",
          "type": "uint256"
        },
        {
          "internalType": "address",
          "name": "user",
          "type": "address"
        },
        {
          "internalType": "bool",
          "name": "usePermit2",
          "type": "bool"
        }
      ],
      "name": "selfCallSupply",
      "outputs": [],
      "stateMutability": "nonpayable",
      "type": "function"
    },
    {
      "inputs": [
        {
          "internalType": "address",
          "name": "pool",
          "type": "address"
        },
        {
          "components": [
            {
              "internalType": "address",
              "name": "loanToken",
              "type": "address"
            },
            {
              "internalType": "address",
              "name": "collateralToken",
              "type": "address"
            },
            {
              "internalType": "address",
              "name": "oracle",
              "type": "address"
            },
            {
              "internalType": "address",
              "name": "irm",
              "type": "address"
            },
            {
              "internalType": "uint256",
              "name": "lltv",
              "type": "uint256"
            }
          ],
          "internalType": "struct MarketParams",
          "name": "mp",
          "type": "tuple"
        },
        {
          "internalType": "uint256",
          "name": "assets",
          "type": "uint256"
        },
        {
          "internalType": "address",
          "name": "user",
          "type": "address"
        },
        {
          "internalType": "bool",
          "name": "usePermit2",
          "type": "bool"
        }
      ],
      "name": "selfCallSupplyCollateral",
      "outputs": [],
      "stateMutability": "nonpayable",
      "type": "function"
    },
    {
      "inputs": [
        {
          "internalType": "address",
          "name": "pool",
          "type": "address"
        },
        {
          "components": [
            {
              "internalType": "address",
              "name": "loanToken",
              "type": "address"
            },
            {
              "internalType": "address",
              "name": "collateralToken",
              "type": "address"
            },
            {
              "internalType": "address",
              "name": "oracle",
              "type": "address"
            },
            {
              "internalType": "address",
              "name": "irm",
              "type": "address"
            },
            {
              "internalType": "uint256",
              "name": "lltv",
              "type": "uint256"
            }
          ],
          "internalType": "struct MarketParams",
          "name": "mp",
          "type": "tuple"
        },
        {
          "internalType": "uint256",
          "name": "assets",
          "type": "uint256"
        },
        {
          "internalType": "address",
          "name": "user",
          "type": "address"
        },
        {
          "internalType": "bool",
          "name": "payoutUser",
          "type": "bool"
        }
      ],
      "name": "selfCallWithdrawCollateral",
      "outputs": [],
      "stateMutability": "nonpayable",
      "type": "function"
    },
    {
      "inputs": [
        {
          "internalType": "address",
          "name": "borrower",
          "type": "address"
        }
      ],
      "name": "setActiveFlashLoanBorrower",
      "outputs": [],
      "stateMutability": "nonpayable",
      "type": "function"
    },
    {
      "inputs": [
        {
          "internalType": "address",
          "name": "maker",
          "type": "address"
        }
      ],
      "name": "setActiveSettlementMaker",
      "outputs": [],
      "stateMutability": "nonpayable",
      "type": "function"
    },
    {
      "inputs": [
        {
          "internalType": "address",
          "name": "initiator_",
          "type": "address"
        }
      ],
      "name": "setAtomicTxInitiator",
      "outputs": [],
      "stateMutability": "nonpayable",
      "type": "function"
    },
    {
      "inputs": [
        {
          "internalType": "address",
          "name": "initiator_",
          "type": "address"
        }
      ],
      "name": "setMulticallInitiator",
      "outputs": [],
      "stateMutability": "nonpayable",
      "type": "function"
    },
    {
      "inputs": [
        {
          "components": [
            {
              "internalType": "address",
              "name": "repoServicer",
              "type": "address"
            },
            {
              "internalType": "uint256",
              "name": "purchaseTokenAmount",
              "type": "uint256"
            },
            {
              "internalType": "uint256[]",
              "name": "collateralAmounts",
              "type": "uint256[]"
            },
            {
              "internalType": "uint256",
              "name": "offerRate",
              "type": "uint256"
            },
            {
              "internalType": "address",
              "name": "maker",
              "type": "address"
            },
            {
              "internalType": "address",
              "name": "taker",
              "type": "address"
            },
            {
              "internalType": "uint256",
              "name": "borrowFee",
              "type": "uint256"
            },
            {
              "internalType": "address",
              "name": "feeRecipient",
              "type": "address"
            },
            {
              "internalType": "uint256",
              "name": "expiry",
              "type": "uint256"
            },
            {
              "internalType": "uint256",
              "name": "salt",
              "type": "uint256"
            },
            {
              "components": [
                {
                  "internalType": "bytes4",
                  "name": "method",
                  "type": "bytes4"
                },
                {
                  "internalType": "address",
                  "name": "target",
                  "type": "address"
                },
                {
                  "internalType": "bytes",
                  "name": "additionalCalldata",
                  "type": "bytes"
                }
              ],
              "internalType": "struct ITermIntent.RetrieveFundsStruct[]",
              "name": "retrieveFundsList",
              "type": "tuple[]"
            }
          ],
          "internalType": "struct ITermIntent.LimitBorrowOrder",
          "name": "",
          "type": "tuple"
        },
        {
          "internalType": "address",
          "name": "taker",
          "type": "address"
        },
        {
          "internalType": "uint256",
          "name": "fillAmount",
          "type": "uint256"
        },
        {
          "components": [
            {
              "internalType": "enum ITermIntent.SignatureType",
              "name": "sigType",
              "type": "uint8"
            },
            {
              "internalType": "bytes",
              "name": "sigData",
              "type": "bytes"
            }
          ],
          "internalType": "struct ITermIntent.Signature",
          "name": "",
          "type": "tuple"
        }
      ],
      "name": "settleLimitBorrow",
      "outputs": [],
      "stateMutability": "nonpayable",
      "type": "function"
    },
    {
      "inputs": [
        {
          "components": [
            {
              "internalType": "address",
              "name": "repoServicer",
              "type": "address"
            },
            {
              "internalType": "uint256",
              "name": "purchaseTokenAmount",
              "type": "uint256"
            },
            {
              "internalType": "uint256",
              "name": "offerRate",
              "type": "uint256"
            },
            {
              "internalType": "address",
              "name": "maker",
              "type": "address"
            },
            {
              "internalType": "address",
              "name": "taker",
              "type": "address"
            },
            {
              "internalType": "uint256",
              "name": "borrowFee",
              "type": "uint256"
            },
            {
              "internalType": "address",
              "name": "feeRecipient",
              "type": "address"
            },
            {
              "internalType": "uint256",
              "name": "expiry",
              "type": "uint256"
            },
            {
              "internalType": "uint256",
              "name": "salt",
              "type": "uint256"
            },
            {
              "components": [
                {
                  "internalType": "bytes4",
                  "name": "method",
                  "type": "bytes4"
                },
                {
                  "internalType": "address",
                  "name": "target",
                  "type": "address"
                },
                {
                  "internalType": "bytes",
                  "name": "additionalCalldata",
                  "type": "bytes"
                }
              ],
              "internalType": "struct ITermIntent.RetrieveFundsStruct",
              "name": "retrieveFunds",
              "type": "tuple"
            }
          ],
          "internalType": "struct ITermIntent.LimitLendOrder",
          "name": "",
          "type": "tuple"
        },
        {
          "internalType": "address",
          "name": "taker",
          "type": "address"
        },
        {
          "internalType": "uint256",
          "name": "fillAmount",
          "type": "uint256"
        },
        {
          "internalType": "uint256[]",
          "name": "",
          "type": "uint256[]"
        },
        {
          "components": [
            {
              "internalType": "enum ITermIntent.SignatureType",
              "name": "sigType",
              "type": "uint8"
            },
            {
              "internalType": "bytes",
              "name": "sigData",
              "type": "bytes"
            }
          ],
          "internalType": "struct ITermIntent.Signature",
          "name": "",
          "type": "tuple"
        }
      ],
      "name": "settleLimitLend",
      "outputs": [],
      "stateMutability": "nonpayable",
      "type": "function"
    },
    {
      "inputs": [
        {
          "components": [
            {
              "internalType": "address",
              "name": "repoToken",
              "type": "address"
            },
            {
              "internalType": "bool",
              "name": "makerAssetIsPurchaseToken",
              "type": "bool"
            },
            {
              "internalType": "uint256",
              "name": "purchaseTokenAmount",
              "type": "uint256"
            },
            {
              "internalType": "uint256",
              "name": "discountRate",
              "type": "uint256"
            },
            {
              "internalType": "address",
              "name": "maker",
              "type": "address"
            },
            {
              "internalType": "address",
              "name": "taker",
              "type": "address"
            },
            {
              "internalType": "uint256",
              "name": "makerFee",
              "type": "uint256"
            },
            {
              "internalType": "uint256",
              "name": "takerFee",
              "type": "uint256"
            },
            {
              "internalType": "address",
              "name": "feeRecipient",
              "type": "address"
            },
            {
              "internalType": "uint256",
              "name": "expiry",
              "type": "uint256"
            },
            {
              "internalType": "uint256",
              "name": "salt",
              "type": "uint256"
            },
            {
              "components": [
                {
                  "internalType": "bytes4",
                  "name": "method",
                  "type": "bytes4"
                },
                {
                  "internalType": "address",
                  "name": "target",
                  "type": "address"
                },
                {
                  "internalType": "bytes",
                  "name": "additionalCalldata",
                  "type": "bytes"
                }
              ],
              "internalType": "struct ITermIntent.RetrieveFundsStruct",
              "name": "retrieveFunds",
              "type": "tuple"
            }
          ],
          "internalType": "struct ITermIntent.RepoTokenSwapOrder",
          "name": "",
          "type": "tuple"
        },
        {
          "internalType": "address",
          "name": "taker",
          "type": "address"
        },
        {
          "internalType": "uint256",
          "name": "fillAmount",
          "type": "uint256"
        },
        {
          "components": [
            {
              "internalType": "enum ITermIntent.SignatureType",
              "name": "sigType",
              "type": "uint8"
            },
            {
              "internalType": "bytes",
              "name": "sigData",
              "type": "bytes"
            }
          ],
          "internalType": "struct ITermIntent.Signature",
          "name": "",
          "type": "tuple"
        }
      ],
      "name": "swapRepoToken",
      "outputs": [],
      "stateMutability": "nonpayable",
      "type": "function"
    },
    {
      "inputs": [
        {
          "internalType": "address",
          "name": "pool",
          "type": "address"
        },
        {
          "components": [
            {
              "internalType": "address",
              "name": "loanToken",
              "type": "address"
            },
            {
              "internalType": "address",
              "name": "collateralToken",
              "type": "address"
            },
            {
              "internalType": "address",
              "name": "oracle",
              "type": "address"
            },
            {
              "internalType": "address",
              "name": "irm",
              "type": "address"
            },
            {
              "internalType": "uint256",
              "name": "lltv",
              "type": "uint256"
            }
          ],
          "internalType": "struct MarketParams",
          "name": "mp",
          "type": "tuple"
        },
        {
          "internalType": "uint256",
          "name": "assets",
          "type": "uint256"
        },
        {
          "internalType": "address",
          "name": "user",
          "type": "address"
        },
        {
          "internalType": "bool",
          "name": "payout",
          "type": "bool"
        }
      ],
      "name": "testBorrowInternal",
      "outputs": [],
      "stateMutability": "nonpayable",
      "type": "function"
    },
    {
      "inputs": [
        {
          "internalType": "address",
          "name": "pool",
          "type": "address"
        },
        {
          "components": [
            {
              "internalType": "address",
              "name": "loanToken",
              "type": "address"
            },
            {
              "internalType": "address",
              "name": "collateralToken",
              "type": "address"
            },
            {
              "internalType": "address",
              "name": "oracle",
              "type": "address"
            },
            {
              "internalType": "address",
              "name": "irm",
              "type": "address"
            },
            {
              "internalType": "uint256",
              "name": "lltv",
              "type": "uint256"
            }
          ],
          "internalType": "struct MarketParams",
          "name": "mp",
          "type": "tuple"
        },
        {
          "internalType": "uint256",
          "name": "assets",
          "type": "uint256"
        },
        {
          "internalType": "address",
          "name": "user",
          "type": "address"
        }
      ],
      "name": "testRepayInternal",
      "outputs": [],
      "stateMutability": "nonpayable",
      "type": "function"
    },
    {
      "inputs": [
        {
          "internalType": "address",
          "name": "pool",
          "type": "address"
        },
        {
          "components": [
            {
              "internalType": "address",
              "name": "loanToken",
              "type": "address"
            },
            {
              "internalType": "address",
              "name": "collateralToken",
              "type": "address"
            },
            {
              "internalType": "address",
              "name": "oracle",
              "type": "address"
            },
            {
              "internalType": "address",
              "name": "irm",
              "type": "address"
            },
            {
              "internalType": "uint256",
              "name": "lltv",
              "type": "uint256"
            }
          ],
          "internalType": "struct MarketParams",
          "name": "mp",
          "type": "tuple"
        },
        {
          "internalType": "uint256",
          "name": "assets",
          "type": "uint256"
        },
        {
          "internalType": "address",
          "name": "user",
          "type": "address"
        },
        {
          "internalType": "bool",
          "name": "permit2",
          "type": "bool"
        }
      ],
      "name": "testSupplyCollateralInternal",
      "outputs": [],
      "stateMutability": "nonpayable",
      "type": "function"
    },
    {
      "inputs": [
        {
          "internalType": "address",
          "name": "pool",
          "type": "address"
        },
        {
          "components": [
            {
              "internalType": "address",
              "name": "loanToken",
              "type": "address"
            },
            {
              "internalType": "address",
              "name": "collateralToken",
              "type": "address"
            },
            {
              "internalType": "address",
              "name": "oracle",
              "type": "address"
            },
            {
              "internalType": "address",
              "name": "irm",
              "type": "address"
            },
            {
              "internalType": "uint256",
              "name": "lltv",
              "type": "uint256"
            }
          ],
          "internalType": "struct MarketParams",
          "name": "mp",
          "type": "tuple"
        },
        {
          "internalType": "uint256",
          "name": "assets",
          "type": "uint256"
        },
        {
          "internalType": "address",
          "name": "user",
          "type": "address"
        },
        {
          "internalType": "bool",
          "name": "permit2",
          "type": "bool"
        }
      ],
      "name": "testSupplyInternal",
      "outputs": [],
      "stateMutability": "nonpayable",
      "type": "function"
    },
    {
      "inputs": [
        {
          "internalType": "address",
          "name": "pool",
          "type": "address"
        },
        {
          "components": [
            {
              "internalType": "address",
              "name": "loanToken",
              "type": "address"
            },
            {
              "internalType": "address",
              "name": "collateralToken",
              "type": "address"
            },
            {
              "internalType": "address",
              "name": "oracle",
              "type": "address"
            },
            {
              "internalType": "address",
              "name": "irm",
              "type": "address"
            },
            {
              "internalType": "uint256",
              "name": "lltv",
              "type": "uint256"
            }
          ],
          "internalType": "struct MarketParams",
          "name": "mp",
          "type": "tuple"
        },
        {
          "internalType": "uint256",
          "name": "assets",
          "type": "uint256"
        },
        {
          "internalType": "address",
          "name": "user",
          "type": "address"
        },
        {
          "internalType": "bool",
          "name": "payout",
          "type": "bool"
        }
      ],
      "name": "testWithdrawCollateralInternal",
      "outputs": [],
      "stateMutability": "nonpayable",
      "type": "function"
    }
  ],
  "bytecode": "0x60a0346200016957601f62004b9438819003918201601f19168301916001600160401b038311848410176200016e578084926020946040528339810103126200016957516001600160a01b0381168082036200016957600160005515620001575760805260016020527ff7cd878c4379dd4d3a181ac182f31430a6fc79a95342a31629836b7c7a76de17805463ffffffff199081166353a08e0117909155632a6b5ca560e21b6000527ec420daa81949613c0ff383829552cf17d6d715f21743d66a4932f0a8bba6e68054909116637a5f106d179055604051614a0f90816200018582396080518181816103440152818161059d015281816108b001528181610b25015281816110a401528181611117015281816112f30152818161138d01528181611501015281816116f4015281816118020152818161195001528181611b15015281816122f20152818161249b01526126420152f35b60405163190d7e9360e21b8152600490fd5b600080fd5b634e487b7160e01b600052604160045260246000fdfe6040608081526004908136101561001557600080fd5b60009160e08335811c90816306f7664d1461291057816313b4d61f146128f5578163147e18a514612852578163167840d5146125e25781631720e5f914612462578163182919ab146122af57816319d394f3146120f157816329fe7b3b146120d6578482632cf646461461202957508163351ef6ba1461200d57816336f0104614611ed55781633f2b2aa914611e915781634d70441a14611c815781635373433f14611bf157816353a08e0114611ae15781635e80b74114611ac65781635eca74291461190b57848263619a9d4f146118c7575081636836c7d4146117c057816369bd2803146116b2578163737743f8146114ca5781637a498e1d146114985781637a5f106d14611358578163876f90c214611270578482638fa8581d1461122c5750816390e66271146110f55781639368adeb1461108457848263947ec09814610ff85750816394ca48fe14610fd65781639e3623f014610fa55781639ef72eff14610d80578163a9ad729414610ac8578163b9fe8d4014610a97578163c3246edc14610a57578163cde1a4d2146109af578163cf25d0391461086d578163dda5e05b1461070257508063e0b406c1146106e0578063e6cd8a121461069a578063eb58755f14610669578063ebeab5e21461055c578063edaf47e914610535578063f84247aa146102d15763f90d67591461021057600080fd5b8291346102cd5761022036612e3d565b61022e829594979392613090565b610237856130be565b303b156102c957879461025c9287519889968796631a0db1f560e21b885287016130ec565b038183305af19081156102c057506102a9575b5060008051602061495a83398151915280546001600160a01b031990811690915560008051602061499a8339815191528054909116905580f35b6102b2906129cb565b6102bd57803861026f565b80fd5b513d84823e3d90fd5b8780fd5b5050fd5b503461048f5761014036600319011261048f576102ec61295f565b9060a03660231901126105315760603660c31901126105315761012435918215928315036104935760008051602061497a833981519152546001600160a01b03919060081c821680156104fe5733036104cc578116817f00000000000000000000000000000000000000000000000000000000000000001681036104bc5780156104bc5760243582811680910361049357156104ac5760a435904282111561049c57803b15610498578551638069218f60e01b815292806103ab612975565b16858501526103b861298b565b1660248401526064359182151580930361049357879260448501526084356064850152608484015260c43560ff811680910361048f578291849160a483015260e43560c4830152818361010492833560e48401525af19182610477575b50506104715761042361379f565b9161042e5750505080f35b815192831561043e575050602001fd5b906020606492519162461bcd60e51b8352820152600d60248201526c18d85b1b081c995d995c9d1959609a1b6044820152fd5b50505080f35b610480906129cb565b61048b578438610415565b8480fd5b8280fd5b600080fd5b8680fd5b8551630407b05b60e31b81528490fd5b8451630702b3d960e41b81528390fd5b845163190d7e9360e21b81528390fd5b845162461bcd60e51b8152602081850152600c60248201526b1d5b985d5d1a1bdc9a5e995960a21b6044820152606490fd5b855162461bcd60e51b8152602081860152600d60248201526c1d5b9a5b9a5d1a585b1a5e9959609a1b6044820152606490fd5b8380fd5b5050346105585760209061055161054b36612c2e565b91613498565b9051908152f35b5080fd5b509190346105585761056d36612b88565b949093919291906001600160a01b038086163381148015610625575b80156105e3575b61059a9150612fd7565b807f000000000000000000000000000000000000000000000000000000000000000016908316036105d457506105d19596506140d3565b80f35b5163190d7e9360e21b81528790fd5b508160008051602061499a833981519152541690811515918261061b575b505080610612575b61059a90610590565b50333014610609565b1490503880610601565b503033148061064f575b80156105895750808260008051602061493a833981519152541614610589565b508160008051602061493a8339815191525416151561062f565b83346102bd57806003193601126102bd576000805160206149ba83398151915280546001600160a01b031916905580f35b83346102bd576101003660031901126102bd576106b561295f565b6106be36612ab9565b9060e435906001600160a01b0382168203610493576105d19260c43591614577565b83346102bd5760203660031901126102bd576105d16106fd61295f565b613090565b929050346105315760031960803682011261048b576001600160401b03938335908582116104985761018080938336030112610498578351928301838110878211176108585784526107558286016129b7565b83526024820135801515810361049357602084015260448201358484015260648201356060840152610789608483016129b7565b608084015261079a60a483016129b7565b60a084015260c482013560c084015260e4820135908301526107bf61010482016129b7565b6101008301526101248101356101208301526101448101356101408301526101648101358581116104985761016091856107fc9236920101612d84565b910152610807612975565b9060643593841161048b57610843610852937fb9802f761262c639de778cc189664aa21f9f9e6bc3d6844354b4fb92661e310895369101612dea565b50519182916044359083613075565b0390a180f35b604186634e487b7160e01b6000525260246000fd5b5050903461048f5761010036600319011261048f5761088a61295f565b9061089436612ab9565b9260c4359160e435918215158303610493576001600160a01b037f00000000000000000000000000000000000000000000000000000000000000008116868216036109a057602087019381855116156109905788949392919015610971576108fb86614280565b9351166e22d473030f116ddee9f6b43ac78ba3803b1561096d5761093a94868094865197889586948593631b63c28b60e11b855230903390860161304b565b03925af19081156102c05750610959575b50506105d1925b3392613ea6565b610962906129cb565b61053157833861094b565b8580fd5b90506105d196935084915061098b92511630903390614239565b610952565b835163a9213b9b60e01b81528390fd5b50905163190d7e9360e21b8152fd5b848334610558576020366003190112610558576109ca61295f565b7f2a2e13707d6b40952f0aec05e2811137753b06b56d55208636050ec9ee68dd7e80549192600160401b831015610a445760018301808355831015610a3157508352602083200180546001600160a01b0319166001600160a01b0390921691909117905580f35b634e487b7160e01b855260329052602484fd5b634e487b7160e01b855260419052602484fd5b9150503461048f57602036600319011261048f576020926001600160e01b03199190839083610a84612d0b565b168152600186522054901b915191168152f35b84346102bd57806003193601126102bd5760008051602061495a83398151915280546001600160a01b031916905580f35b5050903461048f57610ad936612c63565b610ae281612fc3565b9060018060a01b03610b146000805160206149ba8339815191529382855416838115159283610d74575b505050612fd7565b60a08201610b2181612fc3565b82807f000000000000000000000000000000000000000000000000000000000000000016911603610d645790610b626020949392610b5d613e83565b612fc3565b92610b6e858401612fc3565b50610b7b60608401612fc3565b50608083013591610b8b84612fc3565b94610b9960c0860186613019565b9080989181010312610493578751632c3c915760e01b81529635898801528082169460a088602481895afa978815610d5a579089918c99610d1f575b5091888892610be694013591614577565b8215610d0f578060208701511615610cff5780851615610cef578060008051602061495a83398151915254161591821592610ce2575b50508015610cd9575b15610c8757813b156104935760008094610c54875198899687958694638720316d60e01b8652309386016137cf565b03925af1908115610c7d5750610c6e575b505b6001815580f35b610c77906129cb565b38610c65565b513d6000823e3d90fd5b919492813b156104935760008094610cb3888851998a9788968795638720316d60e01b875286016137cf565b03925af1908115610c7d5750610cca575b50610c67565b610cd3906129cb565b38610cc4565b50303314610c25565b5416151590503880610c1c565b8651630702b3d960e41b81528890fd5b8651630ccd248560e21b81528890fd5b865163162908e360e11b81528890fd5b8892995090610d49610be6949260a03d60a011610d53575b610d418183612a96565b810190612f61565b9992509092610bd5565b503d610d37565b89513d8d823e3d90fd5b845163190d7e9360e21b81528690fd5b16149050388381610b0c565b90508383346105585761010036600319011261055857610d9e61295f565b92610da7612975565b610daf6129a1565b6001600160e01b03199660a43596888816929190838903610493576001600160a01b0360c435818116949193908590036104935760e4356001600160401b038111610fa157610e019036908301612d3d565b95610e0a61327a565b508a5260209760018952898b2054901b9b8c1615610f9357509780809a9b610ea893858b9c8180610e809e5194610e4086612a0f565b169b8c8552168c8401528d6044359084015216606082015260843560808201528660a08201528760c08201528b519a8b918b830193845260248301613435565b0399610e94601f199b8c8101835282612a96565b5190305afa610ea161379f565b903061486b565b9760a0898051810103126102bd57908760609281519a8b91610ec9836129f4565b60a0610ed68b8401612f4d565b928385528581015194858d820152610eef898301612f4d565b80978201526080820151988991015201519081151582036102bd575093610f7e9d9a9793610f8f9c9a9793828f94610f749c986080610f689b9701528d5198610f378a612a0f565b895216898801528b870152166060850152608084015260a083015260c0820152855196879384015260248301613435565b03908101845283612a96565b5193848094612e90565b60c060a084015260c0830190612ec9565b0390f35b8851631416e68f60e01b8152fd5b8a80fd5b84346102bd57806003193601126102bd5760008051602061499a83398151915280546001600160a01b031916905580f35b84346102bd5760203660031901126102bd576105d1610ff361295f565b6130be565b808486346102cd5761100936612e3d565b611017829594979392613090565b303b156102c957879461103c92875198899687966369bd280360e01b885287016130ec565b038183305af19081156102c05750611070575b5060008051602061499a83398151915280546001600160a01b031916905580f35b611079906129cb565b6102bd57808261104f565b828585346105585761109536612f09565b93919290916001600160a01b037f00000000000000000000000000000000000000000000000000000000000000008116908316036110e657506105d19495506110e033933690612b26565b906142f1565b5163190d7e9360e21b81528690fd5b5050903461048f5761110636612f09565b9294919390926001600160a01b03907f000000000000000000000000000000000000000000000000000000000000000082168288160361121d578161114a87612fc3565b161561120e578793929190156111e8575061116484614280565b9161116e86612fc3565b6e22d473030f116ddee9f6b43ac78ba3803b1561096d576111aa94868094865197889586948593631b63c28b60e11b855230903390860161304b565b03925af19081156102c057506111d4575b50506105d1925b6111ce33933690612b26565b90614577565b6111dd906129cb565b6105315783386111bb565b6105d196935061120992508491506111ff86612fc3565b1630903390614239565b6111c2565b50505163fcf3a30b60e01b8152fd5b50505163190d7e9360e21b8152fd5b808486346102cd5761123d36612e3d565b61124b829594979392613090565b303b156102c957879461103c928751988996879663182919ab60e01b885287016130ec565b9050346105315736600319011261048f57611289612d0b565b90611292612975565b9161129b61298b565b6112a36129a1565b9060a435938415158503610493576001600160401b039760c43591908983116102bd57366023840112156102bd5782820135998a116102bd573660248b850101116102bd57506001600160a01b037f000000000000000000000000000000000000000000000000000000000000000081169088160361134a5750916113379593916024610f8f99969401946084359361331a565b9051918291602083526020830190612ec9565b875163190d7e9360e21b8152fd5b505091346102bd5761136936612c63565b9061137261327a565b5060a082019061138182612fc3565b6001600160a01b0392907f0000000000000000000000000000000000000000000000000000000000000000841690841603610d64576020906113c660c0860186613019565b908093918101031261049357836113de60a092612fc3565b8751632c3c915760e01b815293358985015283916024918391165afa91821561148d579161146e575b508181511694602082019583875116146114605760a08661145e876080888880895116955116835195611439876129f4565b8652838201356020870152838601520135606084015260016080840152518092612e90565bf35b8451635542f09960e01b8152fd5b611487915060a03d60a011610d5357610d418183612a96565b38611407565b8551903d90823e3d90fd5b84346102bd57806003193601126102bd5760008051602061497a8339815191528054610100600160a81b031916905580f35b84939150346105315736600319011261048f576114e561295f565b6114ee36612ab9565b60c435916001600160a01b0390811691907f000000000000000000000000000000000000000000000000000000000000000081168303610d645783156116a2578082511615611692573315611682579084916000908060008051602061495a83398151915254161590811591611667575b50801561165e575b156115f757506000926115939183519485809481936350d8cd4b60e01b83528b8a33923392860161409a565b03925af19081156115ec576000916115be575b505b036115b1578280f35b51630c40785760e21b8152fd5b6115de9150833d85116115e5575b6115d68183612a96565b810190614084565b50856115a6565b503d6115cc565b83513d6000823e3d90fd5b9261161e9083928594519485809481936350d8cd4b60e01b83528c8b33923392860161409a565b03925af19182156116535791611635575b506115a8565b61164c9150833d85116115e5576115d68183612a96565b508561162f565b8451903d90823e3d90fd5b50303314611567565b90506000805160206149ba833981519152541615158961155f565b8451630702b3d960e41b81528690fd5b8451630ccd248560e21b81528690fd5b845163162908e360e11b81528690fd5b83858434610558576116c336612e3d565b92969294909391926001600160a01b03808616338114801561177c575b801561173a575b6116f19150612fd7565b807f0000000000000000000000000000000000000000000000000000000000000000169084160361172d5750506110e06105d195963690612b26565b5163190d7e9360e21b8152fd5b508160008051602061499a8339815191525416908115159182611772575b505080611769575b6116f1906116e7565b50333014611760565b1490508a80611758565b50303314806117a6575b80156116e05750808260008051602061493a8339815191525416146116e0565b508160008051602061493a83398151915254161515611786565b83858434610558576117d136612e3d565b92969294909391926001600160a01b038086163381148015611883575b8015611841575b6117ff9150612fd7565b807f0000000000000000000000000000000000000000000000000000000000000000169084160361172d57505061183b6105d195963690612b26565b90613800565b508160008051602061499a8339815191525416908115159182611879575b505080611870575b6117ff906117f5565b50333014611867565b1490508a8061185f565b50303314806118ad575b80156117ee5750808260008051602061493a8339815191525416146117ee565b508160008051602061493a8339815191525416151561188d565b808486346102cd576118d836612e3d565b6118e6829594979392613090565b303b156102c957879461103c9287519889968796635eca742960e01b885287016130ec565b5050903461048f5761191c36612e3d565b929590949193929091906001600160a01b03908187163381148015611a82575b8015611a40575b61194d9150612fd7565b817f0000000000000000000000000000000000000000000000000000000000000000168286160361121d578161198289612fc3565b161561120e57889392919015611a17575061199c85614280565b916119a688612fc3565b926e22d473030f116ddee9f6b43ac78ba3803b1561096d578592838a6119e1875198899687958694631b63c28b60e11b86523091860161304b565b03925af19081156102c05750611a03575b50506111ce6105d1945b3690612b26565b611a0c906129cb565b61048b5784386119f2565b6111ce9350879250611a3b91508590611a326105d199612fc3565b16873091614239565b6119fc565b508260008051602061499a8339815191525416908115159182611a78575b505080611a6f575b61194d90611943565b50333014611a66565b1490503880611a5e565b5030331480611aac575b801561193c5750808360008051602061493a83398151915254161461193c565b508260008051602061493a83398151915254161515611a8c565b84346102bd576105d1611ad836612b88565b939290926140d3565b50503461048f57611af136612c63565b90611afa61327a565b5060a0820190611b0982612fc3565b6001600160a01b0392907f0000000000000000000000000000000000000000000000000000000000000000841690841603611be257602090611b4e60c0860186613019565b90809391810103126104935783611b6660a092612fc3565b8751632c3c915760e01b815293358585015283916024918391165afa95861561148d5795611bc1575b508185511690602086019183835116146114605760a08661145e876080888880895116955116835195611439876129f4565b611bdb91955060a03d60a011610d5357610d418183612a96565b9338611b8f565b50835163190d7e9360e21b8152fd5b82858534610558576020928360031936011261048f57836001600160a01b03611c1861295f565b169160248451809481936370a0823160e01b835230908301525afa928315611c765792611c47575b5051908152f35b9091508281813d8311611c6f575b611c5f8183612a96565b8101031261049357519083611c40565b503d611c55565b8251903d90823e3d90fd5b505091346102bd57611c9236612c2e565b6001600160a01b039592861691908215611e815786821615611e71578015611e62578551632c3c915760e01b81528481018290529660a088602481875afa978815611e32578698611e3c575b5060208591888a01611cf482825116151561316a565b511688519687809263501ad8ff60e11b82525afa948515611e32578695611dfe575b508291606091611d278715156131af565b611d42895194859384936349e2903160e11b8552840161323e565b0381865afa908115611df457670de0b6b3a764000093611d9a611d84611da4958b60209c966080968c91611dc5575b508c01516000196001881b01169461392f565b966a0c097ce7bc90715b34b9f160241b92614537565b0491015190614537565b0481811115611dbd576105519250613257565b51908152f35b505090611db7565b611de7915060603d606011611ded575b611ddf8183612a96565b8101906131ff565b38611d71565b503d611dd5565b86513d87823e3d90fd5b9094506020813d602011611e2a575b81611e1a60209383612a96565b8101031261049357519382611d16565b3d9150611e0d565b87513d88823e3d90fd5b85919850611e5a60209160a03d60a011610d5357610d418183612a96565b989150611cde565b855162320bd360e51b81528490fd5b8551630702b3d960e41b81528490fd5b855163190d7e9360e21b81528490fd5b84346102bd5760203660031901126102bd576001600160a01b03611eb361295f565b166000805160206149ba8339815191529060018060a01b031982541617905580f35b929050346105315760031960a03682011261048b576001600160401b0393833590858211610498576101408093833603011261049857835192830183811087821117610858578452611f288286016129b7565b835260248201356020840152604482013584840152611f49606483016129b7565b6060840152611f5a608483016129b7565b608084015260a482013560a0840152611f7560c483016129b7565b60c084015260e482013590830152610104810135610100830152610124810135858111610498576101209185611fae9236920101612d84565b910152611fb9612975565b9060643584811161096d57611fd19036908501612cab565b5060843593841161048b57610843610852937f012637bb4782a2d1887f362b849b4fc712e085f2df9972a1f8279ee83bc3ccd395369101612dea565b84346102bd576105d161201f36612b88565b5092919091613ea6565b808486346102cd5761203a36612e3d565b612048829594979392613090565b612051856130be565b303b156102c957879461207692875198899687966375f55af160e11b885287016130ec565b038183305af19081156102c057506120c2575060008051602061495a83398151915280546001600160a01b031990811690915560008051602061499a8339815191528054909116905580f35b6120cb906129cb565b6102bd57808261026f565b84346102bd576105d16120e836612b88565b939290926142f1565b929050346105315760031960803682011261048b576001600160401b0393833591908583116104985761016080928436030112610498578351918201828110878211176108585784526121458386016129b7565b82526024926020916024820135602085015260448201358881116122ab5761217290883691850101612cab565b868501526064820135606085015261218c608483016129b7565b608085015261219d60a483016129b7565b60a085015260c482013560c08501526121b860e483016129b7565b90840152610104810135610100840152610124810135610120840152610144810135908782116122a7570192366023850112156102c957858401356121fc81612c94565b9461220987519687612a96565b8186526024602087019260051b82010192368411610fa15760248201925b84841061227d575050505050506101400152612241612975565b9060643593841161048b57610843610852937f7aabec7ffdfa0d4dc5788d44c93645332126de2873491efb459c313515cf477695369101612dea565b83358b81116122a35786916122988392853691880101612d84565b815201930192612227565b8c80fd5b8880fd5b8980fd5b82858534610558576122c036612b88565b9396909491939091906001600160a01b03808716338114801561241e575b80156123dc575b6122ef9150612fd7565b807f000000000000000000000000000000000000000000000000000000000000000016818a160361121d57602085019181835116156123cc57156123af5761233686614280565b915116926e22d473030f116ddee9f6b43ac78ba390813b156122a757908892918389612377875198899687958694631b63c28b60e11b86523091860161304b565b03925af19081156123a65750612393575b506105d19394613ea6565b936123a06105d1956129cb565b93612388565b513d87823e3d90fd5b6105d1979893506123c7925085915116863091614239565b613ea6565b5050505163a9213b9b60e01b8152fd5b508160008051602061499a8339815191525416908115159182612414575b50508061240b575b6122ef906122e5565b50333014612402565b1490508a806123fa565b5030331480612448575b80156122de5750808260008051602061493a8339815191525416146122de565b508160008051602061493a83398151915254161515612428565b84939150346105315736600319011261048f5761247d61295f565b60a03660231901126105315760c435926001600160a01b03918216907f0000000000000000000000000000000000000000000000000000000000000000831682036125d4576124cb36612ab9565b9285156125c55780602085015116156125b65733156125a75790818794939260008051602061495a8339815191525416159081159161258c575b508015612583575b1561255957813b15610531578361253c96865197889586948593638720316d60e01b85523392339286016137cf565b03925af19081156102c05750612550575080f35b6105d1906129cb565b813b15610531578361253c96865197889586948593638720316d60e01b85523392339286016137cf565b5030331461250d565b90506000805160206149ba8339815191525416151588612505565b508351630702b3d960e41b8152fd5b508351630ccd248560e21b8152fd5b50835163162908e360e11b8152fd5b835163190d7e9360e21b8152fd5b5050903461048f576125f336612c63565b6125fc81612fc3565b6000805160206149ba83398151915280546001600160a01b039391926126319185168015159186908361284657505050612fd7565b60a0810161263e81612fc3565b84807f000000000000000000000000000000000000000000000000000000000000000016911603610d6457612677602091610b5d613e83565b9261268460608401612fc3565b50608083013594612696838501612fc3565b506126a084612fc3565b946126ae60c0860186613019565b90809591810103126122ab578751632c3c915760e01b81529335898501528082169460a085602481895afa948515610d5a578792918a918d9761281d575b506126fd9392918791013591613ea6565b8515610d0f578083511615610cff5780851615610cef578888959388959388938060008051602061495a83398151915254161591821592612810575b50508015612807575b156127af576127668651978896879586946350d8cd4b60e01b86523093860161409a565b03925af19081156127a5578591612787575b505b036115b157826001815580f35b61279e9150833d85116115e5576115d68183612a96565b5038612778565b83513d87823e3d90fd5b85516350d8cd4b60e01b8152968795869485936127d19383929190860161409a565b03925af19081156127a55785916127e9575b5061277a565b6128009150833d85116115e5576115d68183612a96565b50386127e3565b50303314612742565b5416151590503880612739565b6126fd949392975061283d9060a03d60a011610d5357610d418183612a96565b969192936126ec565b16149050388581610b0c565b50503461048f5761286236612c2e565b9092916001600160a01b0390811691908215611e81578416156104ac5780156128e6578451632c3c915760e01b81529283015260a082602481845afa9182156128dc5790610551939291602096926128bb575b5061392f565b6128d591925060a03d60a011610d5357610d418183612a96565b90386128b5565b84513d87823e3d90fd5b845162320bd360e51b81528390fd5b84346102bd576105d161290736612b88565b93929092613800565b84346102bd5760203660031901126102bd5761292a61295f565b60008051602061497a8339815191528054610100600160a81b03191660089290921b610100600160a81b031691909117905580f35b600435906001600160a01b038216820361049357565b602435906001600160a01b038216820361049357565b604435906001600160a01b038216820361049357565b606435906001600160a01b038216820361049357565b35906001600160a01b038216820361049357565b6001600160401b0381116129de57604052565b634e487b7160e01b600052604160045260246000fd5b60a081019081106001600160401b038211176129de57604052565b60e081019081106001600160401b038211176129de57604052565b606081019081106001600160401b038211176129de57604052565b604081019081106001600160401b038211176129de57604052565b602081019081106001600160401b038211176129de57604052565b608081019081106001600160401b038211176129de57604052565b601f909101601f19168101906001600160401b038211908210176129de57604052565b60a09060231901126104935760405190612ad2826129f4565b816001600160a01b036024358181168103610493578252604435818116810361049357602083015260643581811681036104935760408301526084359081168103610493576060820152608060a435910152565b91908260a091031261049357604051612b3e816129f4565b6080808294612b4c816129b7565b8452612b5a602082016129b7565b6020850152612b6b604082016129b7565b6040850152612b7c606082016129b7565b60608501520135910152565b90610120600319830112610493576001600160a01b0360043581811681036104935760a09093602319011261049357604051612bc3816129f4565b602435828116810361049357815260443582811681036104935760208201526064358281168103610493576040820152608435828116810361049357606082015260a43560808201529160c4359160e435908116810361049357906101043580151581036104935790565b6060906003190112610493576001600160a01b0390600435828116810361049357916024359081168103610493579060443590565b6003199060208183011261049357600435916001600160401b038311610493578260e0920301126104935760040190565b6001600160401b0381116129de5760051b60200190565b9080601f83011215610493576020908235612cc581612c94565b93612cd36040519586612a96565b81855260208086019260051b82010192831161049357602001905b828210612cfc575050505090565b81358152908301908301612cee565b600435906001600160e01b03198216820361049357565b6001600160401b0381116129de57601f01601f191660200190565b81601f8201121561049357803590612d5482612d22565b92612d626040519485612a96565b8284526020838301011161049357816000926020809301838601378301015290565b91906060838203126104935760405190612d9d82612a2a565b8193803563ffffffff60e01b81168103610493578352612dbf602082016129b7565b60208401526040810135916001600160401b03831161049357604092612de59201612d3d565b910152565b9190916040818403126104935760408051916001600160401b03918301828111848210176129de57604052829481356002811015610493578452602082013592831161049357602092612de59201612d3d565b90610120600319830112610493576001600160a01b0360043581811681036104935760a0909360231901126104935760249160c4359160e435908116810361049357906101043580151581036104935790565b6080809160018060a01b038082511685526020820151602086015260408201511660408501526060810151606085015201511515910152565b919082519283825260005b848110612ef5575050826000602080949584010152601f8019910116010190565b602081830181015184830182015201612ed4565b90610100600319830112610493576004356001600160a01b03811681036104935760a0909260231901126104935760249060c4359060e43580151581036104935790565b51906001600160a01b038216820361049357565b908160a091031261049357608060405191612f7b836129f4565b612f8481612f4d565b8352612f9260208201612f4d565b6020840152612fa360408201612f4d565b6040840152612fb460608201612f4d565b60608401520151608082015290565b356001600160a01b03811681036104935790565b15612fde57565b60405162461bcd60e51b81526020600482015260136024820152722ab730baba3437b934bd32b21031b0b63632b960691b6044820152606490fd5b903590601e198136030182121561049357018035906001600160401b0382116104935760200191813603831361049357565b6001600160a01b039182168152918116602083015291821660408201529116606082015260800190565b6001600160a01b039091168152602081019190915260400190565b60008051602061499a83398151915280546001600160a01b0319166001600160a01b03909216919091179055565b60008051602061495a83398151915280546001600160a01b0319166001600160a01b03909216919091179055565b936101009396959296608061012087019860018060a01b03809516885284613113826129b7565b16602089015284613126602083016129b7565b16604089015284613139604083016129b7565b1660608901528461314c606083016129b7565b1682890152013560a087015260c08601521660e08401521515910152565b1561317157565b60405162461bcd60e51b8152602060048201526016602482015275496e76616c6964206f7261636c65206164647265737360501b6044820152606490fd5b156131b657565b60405162461bcd60e51b815260206004820152600d60248201526c496e76616c696420707269636560981b6044820152606490fd5b51906001600160801b038216820361049357565b9081606091031261049357613236604080519261321b84612a2a565b8051845261322b602082016131eb565b6020850152016131eb565b604082015290565b9081526001600160a01b03909116602082015260400190565b9190820391821161326457565b634e487b7160e01b600052601160045260246000fd5b60405190613287826129f4565b60006080838281528260208201528260408201528260608201520152565b6080809160018060a01b0380825116855280602083015116602086015280604083015116604086015260608201511660608501520151910152565b93610100939695929661330861012087019860018060a01b03809516885260208801906132a5565b60c08601521660e08401521515910152565b9591909682602091959495810103126104935760408051632c3c915760e01b815292356004840152906001600160a01b0360a0846024818c85165afa9384156115ec57600094613414575b506001600160e01b03198816631a0db1f560e21b81036133cd5750806020850151169116036133bd57916133ac93916133ba969593519788966020880152602487016132e0565b03601f198101835282612a96565b90565b5163065a1c4760e31b8152600490fd5b6375f55af160e11b0361340357808451169116036133bd57916133ac93916133ba969593519788966020880152602487016132e0565b8251631e8b844160e01b8152600490fd5b61342e91945060a03d60a011610d5357610d418183612a96565b9238613365565b61010060c06133ba936020845260018060a01b0380825116602086015280602083015116604086015260408201516060860152806060830151166080860152608082015160a086015260a0820151168285015201519160e0808201520190612ec9565b90916001600160a01b0391821691821561378d578084161561377b57811561376a576040928351926349e2903160e11b958685526060926004958481806134e286888c840161323e565b0381855afa90811561375f57908891600091613742575b50015187519889526001600160801b039081169885818061351d87898d840161323e565b0381865afa95861561373757600096613718575b5050602080950151161561370e57865192632c3c915760e01b84528684015260a083602481845afa9283156137035791849187936000956136dc575b5090846135799261392f565b9487840161358b82825116151561316a565b511687519283809263501ad8ff60e11b82525afa9081156136d15760009161369c575b50806080670de0b6b3a7640000936135ca6135d29415156131af565b015190614537565b049384156136605750506a0c097ce7bc90715b34b9f160241b818102918015908304909114171561364b57600019830191838311613636575061361e92916136199161456a565b61454a565b8082111561362f576133ba91613257565b5050600090565b601190634e487b7160e01b6000525260246000fd5b601182634e487b7160e01b6000525260246000fd5b5162461bcd60e51b81529283015250601860248201527750726963652a4c545620726f756e647320746f207a65726f60401b6044820152606490fd5b90508281813d83116136ca575b6136b38183612a96565b810103126104935751670de0b6b3a76400006135ae565b503d6136a9565b86513d6000823e3d90fd5b613579929195506136fb9060a03d60a011610d5357610d418183612a96565b94909161356d565b87513d6000823e3d90fd5b5050505050505090565b61372f929650803d10611ded57611ddf8183612a96565b933880613531565b89513d6000823e3d90fd5b6137599150863d8811611ded57611ddf8183612a96565b386134f9565b88513d6000823e3d90fd5b60405162320bd360e51b8152600490fd5b604051630702b3d960e41b8152600490fd5b60405163190d7e9360e21b8152600490fd5b3d156137ca573d906137b082612d22565b916137be6040519384612a96565b82523d6000602084013e565b606090565b9290949360e0926137e5856101008101986132a5565b60a08501526001600160a01b0391821660c085015216910152565b9390929193841561391d5760208401516001600160a01b03919082161561390b578184161561377b578160008051602061495a8339815191525416158015906138f1575b80156138e8575b156138b4571690156138ad5781935b813b15610493576000809461388560405197889687958694638720316d60e01b8652600486016137cf565b03925af180156138a1576138965750565b61389f906129cb565b565b6040513d6000823e3d90fd5b309361385a565b92949392169050803b156104935760009283859361388560405197889687958694638720316d60e01b8652600486016137cf565b5030331461384b565b50816000805160206149ba83398151915254161515613844565b604051630ccd248560e21b8152600490fd5b60405163162908e360e11b8152600490fd5b9160a0822092604080519460209586810191825260028382015282815261395581612a2a565b51902081516001600160a01b039485168782019081528184019290925282815261397e81612a2a565b51902092600194600185018095116132645782519593829061399f88612a45565b6001885288880196893689376139b489614665565b521694835190637784c68560e01b825281600498602497888301918c8c8501525180925260448301939160005b8d828210613e6d575050505050806000920381895afa908115613dd057600091613ddb575b506001600160801b03939291908490613a1e90614665565b51169760c060a08320878651809a8193632e3071cd60e11b83528d8301525afa968715613dd057600097613d09575b5091869185936080840192613a658685511642613257565b9081151580613cfb575b80613cec575b613b07575b505050505091606092015116930151169160018101809111613af357620f4240830194858411613adf57620f423f91613ab291614537565b920192848411613acc5750506133ba92916136199161456a565b601190634e487b7160e01b600052526000fd5b82601186634e487b7160e01b600052526000fd5b50634e487b7160e01b600090815260118452fd5b9091929394955060608401511692613b2e875191638c00bf6b60e01b83528c8301906132a5565b8786511660a482015282816101648160a0848b019a8d8c511660c48401528d8d82019b818d511660e486015281606084015116610104860152511661012484015201978c8951166101448301525afa928315613703579088969594939291600093613cb4575b5050918591613bf8613bae869585613bed98511693614537565b91613bf2671bc16d674ec80000613bc58580614537565b0493670de0b6b3a764000098856729a2241af62c0000613be6848d99614537565b049261456a565b61456a565b90614537565b049282613c10613c07866148ce565b82845116614688565b16905281613c29613c20856148ce565b828d5116614688565b168a5251169081613c3d575b808994613a7a565b613c4992939450614537565b04613c578185885116613257565b908483511690620f42408201809211613ca05760018301809311613ca057613c94613c07613c8f606097956136198a98968996614537565b6148ce565b16905291388080613c35565b8660118a634e487b7160e01b600052526000fd5b8092959497508193503d8311613ce5575b613ccf8183612a96565b8101031261049357518694919280613bf8613b94565b503d613cc5565b50806060850151161515613a75565b508688870151161515613a6f565b60c09791939297813d60c011613dc8575b81613d2760c09383612a96565b810103126105585784519160c08301906001600160401b03821184831017613db6575060a08795949392613da8928852613d60816131eb565b8452613d6d8682016131eb565b86850152613d7c8882016131eb565b88850152613d8c606082016131eb565b6060850152613d9d608082016131eb565b6080850152016131eb565b60a082015296919092613a4d565b634e487b7160e01b815260418b528890fd5b3d9150613d1a565b84513d6000823e3d90fd5b3d8083833e613dea8183612a96565b810190898183031261048f578051906001600160401b038211610531570181601f8201121561048f57805190613e1f82612c94565b93613e2c88519586612a96565b8285528b8086019360051b8301019384116102bd57508a809101915b838310613e5d5750613a1e9250613a06915050565b82518152918101918b9101613e48565b84518752958601958795509093019282016139e1565b600260005414613e94576002600055565b604051633ee5aeb560e01b8152600490fd5b6001600160a01b038082169594919390926000871561378d57821561391d5760209182810194868651161561390b5786169230841461407257613eed85898989511661475a565b868651169360409a8b519383856024816370a0823160e01b9a8b82523060048301525afa948515614068578695614039575b508c51613f2b81612a60565b868152823b156104985791613f5f878f93613f7c82968d96519889978896879563238d657960e01b875260048701906132a5565b60a485015260c484015261010060e4840152610104830190612ec9565b03925af1801561402f5761401c575b5080878751169460248c518097819382523060048301525afa9283156140115792613fdf575b50613fbc9250613257565b03613fce5761389f93945051166146a1565b84516361b7a36960e11b8152600490fd5b90915082813d831161400a575b613ff68183612a96565b8101031261049357613fbc91519038613fb1565b503d613fec565b8a51903d90823e3d90fd5b614028909391936129cb565b9138613f8b565b8b513d86823e3d90fd5b9094508381813d8311614061575b6140518183612a96565b8101031261096d57519338613f1f565b503d614047565b8d513d88823e3d90fd5b60405163abb37b8f60e01b8152600490fd5b9190826040910312610493576020825192015190565b92909493610100926140b1856101208101986132a5565b60a0850152600060c08501526001600160a01b0391821660e085015216910152565b90929193841561391d5783516001600160a01b039081161561390b578084161561377b57859160008260008051602061495a83398151915254161580159061421f575b8015614216575b156141a95750604094939291600091156141a25784965b6141538751988997889687946350d8cd4b60e01b86526004860161409a565b0393165af19081156138a157600091614182575b505b0361417057565b604051630c40785760e21b8152600490fd5b61419b915060403d6040116115e5576115d68183612a96565b5038614167565b3096614134565b859391506040949281976141d28751988997889687946350d8cd4b60e01b86526004860161409a565b0393165af191821561420a57916141ea575b50614169565b614203915060403d6040116115e5576115d68183612a96565b50386141e4565b604051903d90823e3d90fd5b5030331461411d565b50826000805160206149ba83398151915254161515614116565b6040516323b872dd60e01b60208201526001600160a01b03928316602482015292909116604483015260648083019390935291815261389f9161427b826129f4565b61480f565b6001600160a01b0390818111614294571690565b604490604051906306dfcc6560e41b825260a060048301526024820152fd5b9091926133ba94936142c883610120956132a5565b60a0830152600060c08301526001600160a01b031660e082015261010081018290520190612ec9565b9093929192600094841561391d5780516001600160a01b03929083161561390b57308386161461407257156145235761432985614280565b82825116906e22d473030f116ddee9f6b43ac78ba390813b156122a75791889161436d9383604051809681958294631b63c28b60e11b84528d30906004860161304b565b03925af1801561451857614505575b505b61438c85848484511661475a565b81815116604096875191826370a0823160e01b9182825230600483015281602460209384935afa9384156144cc5783946144d6575b50898051986143cf8a612a60565b848a52815163a99aad8960e01b8152998a9182916143f2918e8b600486016142b3565b0381868a8c165af19788156144cc5783986144ac575b5080868651169260248c518095819382523060048301525afa92831561401157908993929192614479575b505061443f9192613257565b0361446857516144509291166146a1565b036144585750565b516361b7a36960e11b8152600490fd5b85516361b7a36960e11b8152600490fd5b8193508092503d83116144a5575b6144918183612a96565b810103126104935751869061443f38614433565b503d614487565b6144c49198508a3d8c116115e5576115d68183612a96565b509638614408565b8a513d85823e3d90fd5b9080945081813d83116144fe575b6144ee8183612a96565b81010312610493575192386143c1565b503d6144e4565b614511909691966129cb565b943861437c565b6040513d89823e3d90fd5b61453285308685855116614239565b61437e565b8181029291811591840414171561326457565b8115614554570490565b634e487b7160e01b600052601260045260246000fd5b9190820180921161326457565b821561391d5781516001600160a01b03949085161561390b578481161561377b57816145aa856145db948887511661475a565b6040958680516145b981612a60565b600094858252825196879283926320b76e8160e01b84528b8b600486016142b3565b0381868587165af193841561465b578394614637575b506145ff92939451166146a1565b600182018092116146235750106146135750565b51634d988ac160e01b8152600490fd5b634e487b7160e01b81526011600452602490fd5b6145ff93945061465390883d8a116115e5576115d68183612a96565b5093926145f1565b87513d85823e3d90fd5b8051156146725760200190565b634e487b7160e01b600052603260045260246000fd5b6001600160801b03918216908216019190821161326457565b60405190602082019263095ea7b360e01b80855260018060a01b0380921691826024860152602060008097816044890152604488526146df88612a7b565b87519082885af1903d87519083614739575b50505015614701575b5050505050565b61472f9461427b92604051926020840152602483015260448201526044815261472981612a7b565b8261480f565b38808080806146fa565b91925090614750575083163b15155b3880806146f1565b6001915014614748565b60405191602060008185016147908661478263095ea7b360e01b998a85528760248401613075565b03601f198101885287612a96565b85519082865af16000513d826147ea575b5050156147af575b50505050565b6147e19361427b9160405191602083015260018060a01b03166024820152600060448201526044815261472981612a7b565b388080806147a9565b90915061480757506001600160a01b0382163b15155b38806147a1565b600114614800565b906000602091828151910182855af1156138a1576000513d61486257506001600160a01b0381163b155b6148405750565b604051635274afe760e01b81526001600160a01b039091166004820152602490fd5b60011415614839565b90614892575080511561488057805190602001fd5b60405163d6bda27560e01b8152600490fd5b815115806148c5575b6148a3575090565b604051639996b31560e01b81526001600160a01b039091166004820152602490fd5b50803b1561489b565b6040516001600160801b0391906148e481612a45565b60148152731b585e081d5a5b9d0c4c8e08195e18d95959195960621b602082015282821161491157501690565b60405162461bcd60e51b815260206004820152908190614935906024830190612ec9565b0390fdfe2a2e13707d6b40952f0aec05e2811137753b06b56d55208636050ec9ee68dd7b2a2e13707d6b40952f0aec05e2811137753b06b56d55208636050ec9ee68dd7a2a2e13707d6b40952f0aec05e2811137753b06b56d55208636050ec9ee68dd782a2e13707d6b40952f0aec05e2811137753b06b56d55208636050ec9ee68dd79c9e4fb8bffaf71b56abf2a5032f2ea641e97267f8c0d9bcf66c86998c650d62aa26469706673582212204430e21ade97b118caab214cd2bce4813e3df55521a83a4f0ff5d9de60071e1064736f6c63430008160033",
  "linkReferences": {},
  "deployedLinkReferences": {}
}