{
  "_format": "hh-sol-artifact-1",
  "contractName": "TermDiamondFactory",
  "sourceName": "contracts/factory/TermDiamondFactory.sol",
  "abi": [
    {
      "inputs": [
        {
          "internalType": "address",
          "name": "adminWallet_",
          "type": "address"
        },
        {
          "internalType": "address",
          "name": "devopsWallet_",
          "type": "address"
        }
      ],
      "stateMutability": "nonpayable",
      "type": "constructor"
    },
    {
      "inputs": [
        {
          "internalType": "address",
          "name": "owner",
          "type": "address"
        }
      ],
      "name": "OwnableInvalidOwner",
      "type": "error"
    },
    {
      "inputs": [
        {
          "internalType": "address",
          "name": "account",
          "type": "address"
        }
      ],
      "name": "OwnableUnauthorizedAccount",
      "type": "error"
    },
    {
      "anonymous": false,
      "inputs": [
        {
          "indexed": false,
          "internalType": "address",
          "name": "diamond",
          "type": "address"
        },
        {
          "indexed": false,
          "internalType": "address",
          "name": "diamondCutFacet",
          "type": "address"
        }
      ],
      "name": "DiamondDeployed",
      "type": "event"
    },
    {
      "anonymous": false,
      "inputs": [
        {
          "indexed": true,
          "internalType": "address",
          "name": "previousOwner",
          "type": "address"
        },
        {
          "indexed": true,
          "internalType": "address",
          "name": "newOwner",
          "type": "address"
        }
      ],
      "name": "OwnershipTransferred",
      "type": "event"
    },
    {
      "inputs": [],
      "name": "adminWallet",
      "outputs": [
        {
          "internalType": "address",
          "name": "",
          "type": "address"
        }
      ],
      "stateMutability": "view",
      "type": "function"
    },
    {
      "inputs": [],
      "name": "deployDiamond",
      "outputs": [
        {
          "internalType": "address",
          "name": "diamond",
          "type": "address"
        },
        {
          "internalType": "address",
          "name": "diamondCutFacet",
          "type": "address"
        }
      ],
      "stateMutability": "nonpayable",
      "type": "function"
    },
    {
      "inputs": [],
      "name": "devopsWallet",
      "outputs": [
        {
          "internalType": "address",
          "name": "",
          "type": "address"
        }
      ],
      "stateMutability": "view",
      "type": "function"
    },
    {
      "inputs": [],
      "name": "owner",
      "outputs": [
        {
          "internalType": "address",
          "name": "",
          "type": "address"
        }
      ],
      "stateMutability": "view",
      "type": "function"
    },
    {
      "inputs": [],
      "name": "renounceOwnership",
      "outputs": [],
      "stateMutability": "nonpayable",
      "type": "function"
    },
    {
      "inputs": [
        {
          "internalType": "address",
          "name": "newOwner",
          "type": "address"
        }
      ],
      "name": "transferOwnership",
      "outputs": [],
      "stateMutability": "nonpayable",
      "type": "function"
    }
  ],
  "bytecode": "0x60c0346100ec57601f6130dc38819003918201601f19168301916001600160401b038311848410176100f15780849260409485528339810103126100ec57610052602061004b83610107565b9201610107565b33156100d35760008054336001600160a01b0319821681178355604051949290916001600160a01b0316907f8be0079c531659141344cd1fd0a4f28419497f9722a3daafe3b4186f6b6457e09080a360805260a052612fc0908161011c82396080518181816101bc0152610314015260a05181818161019701526102cf0152f35b604051631e4fbdf760e01b815260006004820152602490fd5b600080fd5b634e487b7160e01b600052604160045260246000fd5b51906001600160a01b03821682036100ec5756fe6080604081815260043610156200001557600080fd5b600091823560e01c90816336b19cd714620002fe575080633ce61f0a14620002b9578063715018a614620002695780638492fc3a14620001185780638da5cb5b14620000ef5763f2fde38b146200006b57600080fd5b34620000eb576020366003190112620000eb576001600160a01b036004358181169290839003620000e757620000a06200035d565b8215620000d0575082546001600160a01b03198116831784551660008051602062002f6b8339815191528380a380f35b51631e4fbdf760e01b815260048101849052602490fd5b8380fd5b5080fd5b5034620000eb5781600319360112620000eb57905490516001600160a01b039091168152602090f35b5034620000eb5781600319360112620000eb57620001356200035d565b80516001600160401b0392906118f680820190858211838310176200024a57908291620016758339039082f09081156200025e5782516001600160a01b03928316946112ea808301918211838310176200024a5760609183916200038b8339857f0000000000000000000000000000000000000000000000000000000000000000168152857f0000000000000000000000000000000000000000000000000000000000000000166020820152878782015203019082f09081156200023f5750906200023b9116917f2a761d19ff771f7f8bfb7d8d0b0fc38ef99d694f7496e7764a4ed06ecb19c9c08151806200022d87878362000343565b0390a1519283928362000343565b0390f35b8351903d90823e3d90fd5b634e487b7160e01b84526041600452602484fd5b8251903d90823e3d90fd5b8234620002b65780600319360112620002b657620002866200035d565b80546001600160a01b03198116825581906001600160a01b031660008051602062002f6b8339815191528280a380f35b80fd5b5034620000eb5781600319360112620000eb57517f00000000000000000000000000000000000000000000000000000000000000006001600160a01b03168152602090f35b839034620000eb5781600319360112620000eb577f00000000000000000000000000000000000000000000000000000000000000006001600160a01b03168152602090f35b6001600160a01b0391821681529116602082015260400190565b6000546001600160a01b031633036200037257565b60405163118cdaa760e01b8152336004820152602490fdfe60808060405234620007ff57606081620012ea80380380916200002382856200083c565b833981010312620007ff57620000398162000860565b6200005560406200004d6020850162000860565b930162000860565b60408051939192919084016001600160401b03811185821017620007e9576040526001845260005b60208110620007ba5750604051620000958162000820565b6003815260603660208301376307e4c70760e21b620000b48262000875565b52805160011015620007a457637c31b45760e11b6040820152805160021015620007a45763bf72e0a560e01b60608201526040519294939290620000f88262000804565b6001600160a01b03841682526000602083015260408201526200011b8462000875565b52620001278362000875565b5060405163ce5cf8e560e01b60208201526001600160a01b03948516602482015293166044808501919091528352620001608362000820565b6000915b8051831015620006735760206200017c848362000883565b51015160038110156200065d5780620002f857506001600160a01b03620001a4848362000883565b515116916040620001b6858462000883565b51015191620001c883511515620008da565b620001d58415156200093b565b6001600160601b03620001e8856200099d565b5416918215620002e7575b6000925b8451841015620002d1576001600160e01b031962000216858762000883565b51166000818152600080516020620012aa83398151915260205260409020546001600160a01b031662000266578162000257886001946200025d9462000fa6565b620009c5565b930192620001f7565b60405162461bcd60e51b815260206004820152603560248201527f4c69624469616d6f6e644375743a2043616e2774206164642066756e6374696f60448201527f6e207468617420616c72656164792065786973747300000000000000000000006064820152608490fd5b50949150949250600191505b0191909262000164565b620002f28562000eec565b620001f3565b9193909160018103620004ea57506001600160a01b036200031a848462000883565b5151169360406200032c858562000883565b510151926200033e84511515620008da565b6200034b8615156200093b565b6001600160601b036200035e876200099d565b5416918215620004d9575b6000925b8551841015620004c8576001600160e01b03196200038c858862000883565b511660005b8581106200045c57506000818152600080516020620012aa83398151915260205260409020546001600160a01b031691898314620003f157620002578a8284620003e2620003e89660019862000b82565b62000fa6565b9301926200036d565b60405162461bcd60e51b815260206004820152603860248201527f4c69624469616d6f6e644375743a2043616e2774207265706c6163652066756e60448201527f6374696f6e20776974682073616d652066756e6374696f6e00000000000000006064820152608490fd5b816001600160e01b031962000472838b62000883565b511614620004835760010162000391565b60405162461bcd60e51b815260206004820152601b60248201527f4475706c69636174652066756e6374696f6e2073656c6563746f7200000000006044820152606490fd5b5094915094506001919250620002dd565b620004e48762000eec565b62000369565b9093919060020362000608576001600160a01b036200050a848362000883565b5151169160406200051c858462000883565b510151926200052e84511515620008da565b6200059d5760005b83518110156200058f57600190620005886001600160e01b03196200055c838862000883565b511680600052600080516020620012aa833981519152602052838060a01b036040600020541662000b82565b0162000536565b5092600191949250620002dd565b60405162461bcd60e51b815260206004820152603660248201527f4c69624469616d6f6e644375743a2052656d6f7665206661636574206164647260448201527f657373206d7573742062652061646472657373283029000000000000000000006064820152608490fd5b60405162461bcd60e51b815260206004820152602760248201527f4c69624469616d6f6e644375743a20496e636f727265637420466163657443756044820152663a20b1ba34b7b760c91b6064820152608490fd5b634e487b7160e01b600052602160045260246000fd5b8382604051606081016060825284518091526080820190602060808260051b8501019601916000905b82821062000709576001600160a01b03861660208601528488036040860152620006f987877f8faa70878671ccd212d20771b795c50af8fd3ff6cf27f4bde57e5d4de0aeb6738880620006f08e8662000898565b0390a1620009f4565b60405161020e90816200107c8239f35b848803607f19018152835180516001600160a01b0316895260208101519498939492939192606083019160038210156200065d57604060809160209384870152015193606060408201528451809452019201906000905b80821062000780575050506020806001929901920192019092916200069c565b82516001600160e01b03191684526020938401939092019160019091019062000760565b634e487b7160e01b600052603260045260246000fd5b602090604051620007cb8162000804565b6000815260008382015260606040820152828288010152016200007d565b634e487b7160e01b600052604160045260246000fd5b600080fd5b606081019081106001600160401b03821117620007e957604052565b608081019081106001600160401b03821117620007e957604052565b601f909101601f19168101906001600160401b03821190821017620007e957604052565b51906001600160a01b0382168203620007ff57565b805115620007a45760200190565b8051821015620007a45760209160051b010190565b919082519283825260005b848110620008c5575050826000602080949584010152601f8019910116010190565b602081830181015184830182015201620008a3565b15620008e257565b60405162461bcd60e51b815260206004820152602b60248201527f4c69624469616d6f6e644375743a204e6f2073656c6563746f727320696e206660448201526a1858d95d081d1bc818dd5d60aa1b6064820152608490fd5b156200094357565b60405162461bcd60e51b815260206004820152602c60248201527f4c69624469616d6f6e644375743a204164642066616365742063616e2774206260448201526b65206164647265737328302960a01b6064820152608490fd5b6001600160a01b031660009081526000805160206200128a8339815191526020526040902090565b6001600160601b03908116908114620009de5760010190565b634e487b7160e01b600052601160045260246000fd5b906001600160a01b038216801562000b0d5762000a5a60405162000a188162000804565b602881527f4c69624469616d6f6e644375743a205f696e6974206164647265737320686173602082015267206e6f20636f646560c01b6040820152846200104b565b600080809484519060208601905af43d1562000b03573d6001600160401b03811162000aef576040519062000a9a601f8201601f1916602001836200083c565b8152809460203d92013e5b1562000ab057505050565b82511562000ac057825160208401fd5b62000aeb60405192839263192105d760e01b8452600484015260406024840152604483019062000898565b0390fd5b634e487b7160e01b85526041600452602485fd5b6060935062000aa5565b505050565b9190918054831015620007a457600052601c60206000208360031c019260021b1690565b80546001600160a01b031660a09290921b6001600160a01b031916919091179055565b600080516020620012ca8339815191528054821015620007a45760005260206000200190600090565b6001600160a01b0390811691821562000e815730831462000e255763ffffffff60e01b80911692600093808552600080516020620012aa833981519152916020948386526040938488205460a01c908389526000805160206200128a83398151915294858952868a2054926000199889850194851162000e11579088918b8d898b8980870362000d9c575b50509052505050868a5250868a208054801562000d885789019062000c33828262000b12565b63ffffffff82549160031b1b19169055558952875287858120551562000c5d575b50505050505050565b600080516020620012ca83398151915280549580870196871162000d7457838952848852600196836001888c2001549180830362000d1e575b5050508154801562000d0a57019162000caf8362000b59565b909182549160031b1b1916905555855283528320918254908484558162000ce5575b505050600101553880808080808062000c54565b6007908486528520910160031c8101905b8181101562000cd157848155820162000cf6565b634e487b7160e01b8a52603160045260248afd5b62000d299062000b59565b90549060031b1c1662000d5f8162000d418462000b59565b90919060018060a01b038084549260031b9316831b921b1916179055565b8a528589526001878b20015538838162000c96565b634e487b7160e01b89526011600452602489fd5b634e487b7160e01b8c52603160045260248cfd5b62000e03978462000dd79362000dc08a948762000df49952828a5284842062000b12565b90549060031b1c60e01b9788968352522062000b12565b90919063ffffffff83549160031b9260e01c831b921b1916179055565b168c52838b52888c2062000b36565b8638808b8d898b8962000c0d565b634e487b7160e01b8c52601160045260248cfd5b60405162461bcd60e51b815260206004820152602e60248201527f4c69624469616d6f6e644375743a2043616e27742072656d6f766520696d6d7560448201526d3a30b1363290333ab731ba34b7b760911b6064820152608490fd5b60405162461bcd60e51b815260206004820152603760248201527f4c69624469616d6f6e644375743a2043616e27742072656d6f76652066756e6360448201527f74696f6e207468617420646f65736e27742065786973740000000000000000006064820152608490fd5b62000f3c60405162000efe8162000804565b602481527f4c69624469616d6f6e644375743a204e657720666163657420686173206e6f20602082015263636f646560e01b6040820152826200104b565b600080516020620012ca83398151915280546001600160a01b03831660009081526000805160206200128a83398151915260205260409020600101819055919068010000000000000000831015620007e9578262000d4191600162000fa49501905562000b59565b565b929163ffffffff60e01b84169160009183835262000fdc600080516020620012aa83398151915292836020526040852062000b36565b6001600160a01b03168083526000805160206200128a833981519152602052604083208054919491906801000000000000000082101562000aef579662000dd78260409798996001620010329501815562000b12565b82526020522080546001600160a01b0319169091179055565b3b15620010555750565b60405162461bcd60e51b81526020600482015290819062000aeb9060248301906200089856fe608060405236156100e9577fc8fcad8db84d3cc18b4c41d551ea0ee66dd599cde068d998e57d5e09332c131c5460081c60ff16806100c7575b6100b757600080356001600160e01b03191681527fc8fcad8db84d3cc18b4c41d551ea0ee66dd599cde068d998e57d5e09332c131d602052604081208190819061008990546001600160a01b031690565b61009d6001600160a01b03821615156100eb565b368280378136915af43d82803e156100b3573d90f35b3d90fd5b62a4a11760e11b60805260046080fd5b506100e46100e06000356001600160e01b031916610136565b1590565b610038565b005b156100f257565b606460405162461bcd60e51b815260206004820152602060248201527f4469616d6f6e643a2046756e6374696f6e20646f6573206e6f742065786973746044820152fd5b63ffffffff60e01b1663bf72e0a560e01b8114908115610154575090565b637a0ed62760e01b8114915081156101c7575b81156101b6575b81156101a5575b8115610194575b8115610186575090565b6301ffc9a760e01b14905090565b6309e340fb60e31b8114915061017c565b6366ffd66360e11b81149150610175565b6314bbdacb60e21b8114915061016e565b6356fe50af60e11b8114915061016756fea264697066735822122076e93ea4aa6da2580518047820a849205d56bf124dfaaeb9c09470f7dac84c1e64736f6c63430008160033c8fcad8db84d3cc18b4c41d551ea0ee66dd599cde068d998e57d5e09332c131ec8fcad8db84d3cc18b4c41d551ea0ee66dd599cde068d998e57d5e09332c131dc8fcad8db84d3cc18b4c41d551ea0ee66dd599cde068d998e57d5e09332c131f60c0806040523461003057336080524360a0526118c0908161003682396080518161019f015260a051816101c70152f35b600080fdfe608080604052600436101561001357600080fd5b60003560e01c90816301ffc9a714610ccf575080631f931c1c14610459578063248a9ca31461042a5780632f2ff15d146103eb57806336568abe146103a457806391d1485414610357578063a217fddf1461033b578063bf72e0a5146102c5578063ce5cf8e514610157578063d547741f146101165763f86368ae1461009857600080fd5b34610111576000366003190112610111576100b1610dd5565b60008051602061178b833981519152805460ff8160081c166100ff5761ff0019166101001790557fa5ac8e54f300e0376195c708dd5de738bfb0a6830143ecfafb4df0c31559634a600080a1005b604051631785c68160e01b8152600490fd5b600080fd5b3461011157604036600319011261011157610155600435610135610d22565b90806000526000602052610150600160406000200154610e0d565b610ff7565b005b34610111576040366003190112610111576001600160a01b03600435818116810361011157610184610d22565b60008051602061178b8339815191529260ff8454166102b3577f00000000000000000000000000000000000000000000000000000000000000001633036102a1577f0000000000000000000000000000000000000000000000000000000000000000430361028f576101f86101fe92610e9d565b50610f19565b507fc8fcad8db84d3cc18b4c41d551ea0ee66dd599cde068d998e57d5e09332c13206020527f7757ce35b7abd87e041f9a1508b2ae221c8918df934c2bffe0a3a226a172d4458054600160ff1991821681179092556301ffc9a760e01b6000527f78b60a45df6624531fde9ed68ff79114648d330b2ef9b1fd9e257bafca2c3f4f8054821683179055825416179055005b6040516371e7a23f60e11b8152600490fd5b604051631d8c257960e01b8152600490fd5b604051631a948aeb60e21b8152600490fd5b34610111576000366003190112610111576102de610dd5565b60008051602061178b833981519152805460ff8160081c16156103295761ff00191690557f883f138903c53760bece0b5d139a7d12b663799207e373c3e145a6d7b2cad04a600080a1005b604051636cd6020160e01b8152600490fd5b3461011157600036600319011261011157602060405160008152f35b3461011157604036600319011261011157610370610d22565b600435600052600060205260406000209060018060a01b0316600052602052602060ff604060002054166040519015158152f35b34610111576040366003190112610111576103bd610d22565b336001600160a01b038216036103d95761015590600435610ff7565b60405163334bd91960e11b8152600490fd5b346101115760403660031901126101115761015560043561040a610d22565b90806000526000602052610425600160406000200154610e0d565b610f90565b346101115760203660031901126101115760043560005260006020526020600160406000200154604051908152f35b34610111576060366003190112610111576001600160401b036004351161011157366023600435011215610111576004803501356001600160401b038111610111573660248260051b600435010111610111576104b4610d22565b6001600160401b036044351161011157366023604435011215610111576001600160401b0360046044350135116101115736602460443560040135604435010111610111573360009081526000805160206117eb83398151915260205260409020546000805160206117cb8339815191529060ff1615610cb1575061054061053b83610d7c565b610d57565b602081848152018093602460043501915b60248260051b60043501018310610b605750505061057761053b60443560040135610d93565b60443560048101358083529060240160208301376000602060443560040135830101526000925b8251841015610a4a5760206105b38585610e33565b5101516003811015610a34578061070957506001600160a01b0394856105d98686610e33565b5151169360406105e98783610e33565b510151926105f98451151561106c565b6106048615156110cc565b6001600160601b0361061587610dae565b54169283156106fb575b6000935b85518510156106e4576001600160e01b031961063f8688610e33565b51168060005260008051602061182b8339815191526020528a6040600020541661068157816106748a60019461067994611691565b61112d565b940193610623565b60405162461bcd60e51b815260206004820152603560248201527f4c69624469616d6f6e644375743a2043616e2774206164642066756e6374696f6044820152746e207468617420616c72656164792065786973747360581b6064820152608490fd5b5095509591509550600191505b019293919361059e565b610704876115ea565b61061f565b92949092600181036108d457506001600160a01b036107288587610e33565b5151169460406107388683610e33565b510151936107488551151561106c565b6107538715156110cc565b6001600160601b0361076488610dae565b54169283156108c6575b6000935b86518510156108b6576001600160e01b031961078e8689610e33565b511660005b8681106108505750600081815260008051602061182b83398151915260205260409020546001600160a01b0316918a83146107ea576106748b82846107dd6107e2966001986112a8565b611691565b940193610772565b60405162461bcd60e51b815260206004820152603860248201527f4c69624469616d6f6e644375743a2043616e2774207265706c6163652066756e60448201527731ba34b7b7103bb4ba341039b0b6b290333ab731ba34b7b760411b6064820152608490fd5b816001600160e01b0319610864838c610e33565b51161461087357600101610793565b60405162461bcd60e51b815260206004820152601b60248201527a223ab83634b1b0ba3290333ab731ba34b7b71039b2b632b1ba37b960291b6044820152606490fd5b50945094909550600191506106f1565b6108cf886115ea565b61076e565b9194909290916002036109df576001600160a01b036108f38584610e33565b5151169260406109038685610e33565b510151936109138551151561106c565b61097b5760005b845181101561096c576001906109666001600160e01b031961093c8389610e33565b51168060005260008051602061182b833981519152602052838060a01b03604060002054166112a8565b0161091a565b509250926001909491946106f1565b60405162461bcd60e51b815260206004820152603660248201527f4c69624469616d6f6e644375743a2052656d6f76652066616365742061646472604482015275657373206d757374206265206164647265737328302960501b6064820152608490fd5b60405162461bcd60e51b815260206004820152602760248201527f4c69624469616d6f6e644375743a20496e636f727265637420466163657443756044820152663a20b1ba34b7b760c91b6064820152608490fd5b634e487b7160e01b600052602160045260246000fd5b84926040519060608201906060835251809152608082019060808160051b84010195916000905b828210610ac9576001600160a01b0386166020860152848803604086015261015587877f8faa70878671ccd212d20771b795c50af8fd3ff6cf27f4bde57e5d4de0aeb6738880610ac18e86610e5d565b0390a161115b565b848803607f19018152835180516001600160a01b0316895260208101519498939492939192906003821015610a345760409160208401520151906060604082015260206080835192836060820152019201906000905b808210610b3d57505050602080600192990192019201909291610a71565b82516001600160e01b031916845260209384019390920191600190910190610b1f565b9294926001600160401b0383351161011157606060043584350136036023190112610111576040516001600160401b036060820190811190821117610c9b5760608101604052600435843501602401356001600160a01b0381168103610111578152604484356004350101356003811015610111576020820152600435843501606401356001600160401b0381116101115736604382873560043501010112156101115760248186356004350101013590610c1d61053b83610d7c565b91602083828152013660448360051b858b356004350101010111610111576044838935600435010101905b60448360051b858b35600435010101018210610c7857505050506040820152815292949260209283019201610551565b81356001600160e01b031981169003610111578135815260209182019101610c48565b634e487b7160e01b600052604160045260246000fd5b6044906040519063e2517d3f60e01b82523360048301526024820152fd5b34610111576020366003190112610111576004359063ffffffff60e01b821680920361011157602091637965db0b60e01b8114908115610d11575b5015158152f35b6301ffc9a760e01b14905083610d0a565b602435906001600160a01b038216820361011157565b60405190606082016001600160401b03811183821017610c9b57604052565b6040519190601f01601f191682016001600160401b03811183821017610c9b57604052565b6001600160401b038111610c9b5760051b60200190565b6001600160401b038111610c9b57601f01601f191660200190565b6001600160a01b0316600090815260008051602061180b8339815191526020526040902090565b3360009081526000805160206117ab833981519152602052604090205460008051602061184b8339815191529060ff1615610cb15750565b80600052600060205260406000203360005260205260ff6040600020541615610cb15750565b8051821015610e475760209160051b010190565b634e487b7160e01b600052603260045260246000fd5b919082519283825260005b848110610e89575050826000602080949584010152601f8019910116010190565b602081830181015184830182015201610e68565b6001600160a01b031660008181526000805160206117eb83398151915260205260408120549091906000805160206117cb8339815191529060ff16610f1457808352826020526040832082845260205260408320600160ff1982541617905560008051602061176b833981519152339380a4600190565b505090565b6001600160a01b031660008181526000805160206117ab833981519152602052604081205490919060008051602061184b8339815191529060ff16610f1457808352826020526040832082845260205260408320600160ff1982541617905560008051602061176b833981519152339380a4600190565b9060009180835282602052604083209160018060a01b03169182845260205260ff60408420541615600014610f1457808352826020526040832082845260205260408320600160ff1982541617905560008051602061176b833981519152339380a4600190565b9060009180835282602052604083209160018060a01b03169182845260205260ff604084205416600014610f145780835282602052604083208284526020526040832060ff1981541690557ff6391f5c32d9c69d2a47ea670b442974b53935d1edc7fd64eb21e047a839171b339380a4600190565b1561107357565b60405162461bcd60e51b815260206004820152602b60248201527f4c69624469616d6f6e644375743a204e6f2073656c6563746f727320696e206660448201526a1858d95d081d1bc818dd5d60aa1b6064820152608490fd5b156110d357565b60405162461bcd60e51b815260206004820152602c60248201527f4c69624469616d6f6e644375743a204164642066616365742063616e2774206260448201526b65206164647265737328302960a01b6064820152608490fd5b6001600160601b039081169081146111455760010190565b634e487b7160e01b600052601160045260246000fd5b6001600160a01b0381169190821561123657600080916111bd61117c610d38565b602881527f4c69624469616d6f6e644375743a205f696e6974206164647265737320686173602082015267206e6f20636f646560c01b60408201528261173d565b83519060208501905af4913d1561122e573d926111dc61053b85610d93565b9384523d6000602086013e5b156111f257505050565b82511561120157825160208401fd5b61122a60405192839263192105d760e01b84526004840152604060248401526044830190610e5d565b0390fd5b6060926111e8565b505050565b9190918054831015610e4757600052601c60206000208360031c019260021b1690565b80546001600160a01b031660a09290921b6001600160a01b031916919091179055565b60008051602061186b8339815191528054821015610e475760005260206000200190600090565b6001600160a01b03908116918215611585573083146115295763ffffffff60e01b8091169260009380855260008051602061182b833981519152916020948386526040938488205460a01c9083895260008051602061180b83398151915294858952868a20549260001998898501948511611515579088918b8d898b898087036114a8575b50509052505050868a5250868a208054801561149457890190611350828261123b565b63ffffffff82549160031b1b191690555589528752878581205515611379575b50505050505050565b60008051602061186b83398151915280549580870196871161148057838952848852600196836001888c20015491808303611430575b5050508154801561141c5701916113c583611281565b909182549160031b1b191690555585528352832091825490848455816113f9575b5050506001015538808080808080611370565b6007908486528520910160031c8101905b818110156113e657848155820161140a565b634e487b7160e01b8a52603160045260248afd5b61143990611281565b90549060031b1c1661146c8161144e84611281565b90919060018060a01b038084549260031b9316831b921b1916179055565b8a528589526001878b2001553883816113af565b634e487b7160e01b89526011600452602489fd5b634e487b7160e01b8c52603160045260248cfd5b61150897846114dd936114c78a94876114fa9952828a5284842061123b565b90549060031b1c60e01b9788968352522061123b565b90919063ffffffff83549160031b9260e01c831b921b1916179055565b168c52838b52888c2061125e565b8638808b8d898b8961132d565b634e487b7160e01b8c52601160045260248cfd5b60405162461bcd60e51b815260206004820152602e60248201527f4c69624469616d6f6e644375743a2043616e27742072656d6f766520696d6d7560448201526d3a30b1363290333ab731ba34b7b760911b6064820152608490fd5b60405162461bcd60e51b815260206004820152603760248201527f4c69624469616d6f6e644375743a2043616e27742072656d6f76652066756e636044820152761d1a5bdb881d1a185d08191bd95cdb89dd08195e1a5cdd604a1b6064820152608490fd5b6116326115f5610d38565b602481527f4c69624469616d6f6e644375743a204e657720666163657420686173206e6f20602082015263636f646560e01b60408201528261173d565b60008051602061186b83398151915280546001600160a01b038316600090815260008051602061180b833981519152602052604090206001018190559190600160401b831015610c9b578261144e91600161168f95019055611281565b565b929163ffffffff60e01b8416916000918383526116c460008051602061182b83398151915292836020526040852061125e565b6001600160a01b031680835260008051602061180b83398151915260205260408320805491949190600160401b82101561172957966114dd82604097989960016117109501815561123b565b82526020522080546001600160a01b0319169091179055565b634e487b7160e01b85526041600452602485fd5b3b156117465750565b60405162461bcd60e51b81526020600482015290819061122a906024830190610e5d56fe2f8788117e7eff1d82e926ec794901d17c78024a50270940304540a733656f0dc8fcad8db84d3cc18b4c41d551ea0ee66dd599cde068d998e57d5e09332c131c7d7ffb7a348e1c6a02869081a26547b49160dd3df72d1d75a570eb9b698292ec793a6c9b7e0a9549c74edc2f9ae0dc50903dfaa9a56fb0116b27a8c71de3e2c6c4fa85ddc8456762f8b72103c3e0ab9fc9da9d046b037e6a078b6d2d90f12978c8fcad8db84d3cc18b4c41d551ea0ee66dd599cde068d998e57d5e09332c131ec8fcad8db84d3cc18b4c41d551ea0ee66dd599cde068d998e57d5e09332c131da49807205ce4d355092ef5a8a18f56e8913cf4a201fbe287825b095693c21775c8fcad8db84d3cc18b4c41d551ea0ee66dd599cde068d998e57d5e09332c131fa26469706673582212207f761cd3398e49541e56ae697820a3e45b8c0f616d2bd0a2fdf81715fe70524864736f6c634300081600338be0079c531659141344cd1fd0a4f28419497f9722a3daafe3b4186f6b6457e0a26469706673582212206f4fcaf0f94bda2804e47859b6e900cb12f67233409b242f60a7d7b8bb2f2f0064736f6c63430008160033",
  "linkReferences": {},
  "deployedLinkReferences": {}
}