{
  "_format": "hh-sol-artifact-1",
  "contractName": "TestMockAavePool",
  "sourceName": "contracts/test/TestMockAavePool.sol",
  "abi": [
    {
      "inputs": [],
      "name": "ADDRESSES_PROVIDER",
      "outputs": [
        {
          "internalType": "address",
          "name": "",
          "type": "address"
        }
      ],
      "stateMutability": "view",
      "type": "function"
    },
    {
      "inputs": [
        {
          "internalType": "address",
          "name": "",
          "type": "address"
        }
      ],
      "name": "aTokens",
      "outputs": [
        {
          "internalType": "address",
          "name": "",
          "type": "address"
        }
      ],
      "stateMutability": "view",
      "type": "function"
    },
    {
      "inputs": [],
      "name": "addressesProvider",
      "outputs": [
        {
          "internalType": "address",
          "name": "",
          "type": "address"
        }
      ],
      "stateMutability": "view",
      "type": "function"
    },
    {
      "inputs": [],
      "name": "availableBorrowsBase",
      "outputs": [
        {
          "internalType": "uint256",
          "name": "",
          "type": "uint256"
        }
      ],
      "stateMutability": "view",
      "type": "function"
    },
    {
      "inputs": [
        {
          "internalType": "address",
          "name": "asset",
          "type": "address"
        },
        {
          "internalType": "uint256",
          "name": "amount",
          "type": "uint256"
        },
        {
          "internalType": "uint256",
          "name": "",
          "type": "uint256"
        },
        {
          "internalType": "uint16",
          "name": "",
          "type": "uint16"
        },
        {
          "internalType": "address",
          "name": "",
          "type": "address"
        }
      ],
      "name": "borrow",
      "outputs": [],
      "stateMutability": "nonpayable",
      "type": "function"
    },
    {
      "inputs": [],
      "name": "borrowSendAmount",
      "outputs": [
        {
          "internalType": "uint256",
          "name": "",
          "type": "uint256"
        }
      ],
      "stateMutability": "view",
      "type": "function"
    },
    {
      "inputs": [
        {
          "internalType": "address",
          "name": "asset",
          "type": "address"
        }
      ],
      "name": "getReserveData",
      "outputs": [
        {
          "components": [
            {
              "components": [
                {
                  "internalType": "uint256",
                  "name": "data",
                  "type": "uint256"
                }
              ],
              "internalType": "struct DataTypes.ReserveConfigurationMap",
              "name": "configuration",
              "type": "tuple"
            },
            {
              "internalType": "uint128",
              "name": "liquidityIndex",
              "type": "uint128"
            },
            {
              "internalType": "uint128",
              "name": "currentLiquidityRate",
              "type": "uint128"
            },
            {
              "internalType": "uint128",
              "name": "variableBorrowIndex",
              "type": "uint128"
            },
            {
              "internalType": "uint128",
              "name": "currentVariableBorrowRate",
              "type": "uint128"
            },
            {
              "internalType": "uint128",
              "name": "currentStableBorrowRate",
              "type": "uint128"
            },
            {
              "internalType": "uint40",
              "name": "lastUpdateTimestamp",
              "type": "uint40"
            },
            {
              "internalType": "uint16",
              "name": "id",
              "type": "uint16"
            },
            {
              "internalType": "address",
              "name": "aTokenAddress",
              "type": "address"
            },
            {
              "internalType": "address",
              "name": "stableDebtTokenAddress",
              "type": "address"
            },
            {
              "internalType": "address",
              "name": "variableDebtTokenAddress",
              "type": "address"
            },
            {
              "internalType": "address",
              "name": "interestRateStrategyAddress",
              "type": "address"
            },
            {
              "internalType": "uint128",
              "name": "accruedToTreasury",
              "type": "uint128"
            },
            {
              "internalType": "uint128",
              "name": "unbacked",
              "type": "uint128"
            },
            {
              "internalType": "uint128",
              "name": "isolationModeTotalDebt",
              "type": "uint128"
            }
          ],
          "internalType": "struct DataTypes.ReserveData",
          "name": "data",
          "type": "tuple"
        }
      ],
      "stateMutability": "view",
      "type": "function"
    },
    {
      "inputs": [
        {
          "internalType": "address",
          "name": "",
          "type": "address"
        }
      ],
      "name": "getUserAccountData",
      "outputs": [
        {
          "internalType": "uint256",
          "name": "totalCollateralBase",
          "type": "uint256"
        },
        {
          "internalType": "uint256",
          "name": "totalDebtBase",
          "type": "uint256"
        },
        {
          "internalType": "uint256",
          "name": "avlBorrowsBase",
          "type": "uint256"
        },
        {
          "internalType": "uint256",
          "name": "currentLiquidationThreshold",
          "type": "uint256"
        },
        {
          "internalType": "uint256",
          "name": "ltv",
          "type": "uint256"
        },
        {
          "internalType": "uint256",
          "name": "healthFactor",
          "type": "uint256"
        }
      ],
      "stateMutability": "view",
      "type": "function"
    },
    {
      "inputs": [],
      "name": "overrideBorrowSend",
      "outputs": [
        {
          "internalType": "bool",
          "name": "",
          "type": "bool"
        }
      ],
      "stateMutability": "view",
      "type": "function"
    },
    {
      "inputs": [],
      "name": "overrideRepayReturn",
      "outputs": [
        {
          "internalType": "bool",
          "name": "",
          "type": "bool"
        }
      ],
      "stateMutability": "view",
      "type": "function"
    },
    {
      "inputs": [],
      "name": "overrideSupplyMint",
      "outputs": [
        {
          "internalType": "bool",
          "name": "",
          "type": "bool"
        }
      ],
      "stateMutability": "view",
      "type": "function"
    },
    {
      "inputs": [],
      "name": "overrideSupplyPull",
      "outputs": [
        {
          "internalType": "bool",
          "name": "",
          "type": "bool"
        }
      ],
      "stateMutability": "view",
      "type": "function"
    },
    {
      "inputs": [],
      "name": "overrideWithdrawBurn",
      "outputs": [
        {
          "internalType": "bool",
          "name": "",
          "type": "bool"
        }
      ],
      "stateMutability": "view",
      "type": "function"
    },
    {
      "inputs": [],
      "name": "overrideWithdrawReturn",
      "outputs": [
        {
          "internalType": "bool",
          "name": "",
          "type": "bool"
        }
      ],
      "stateMutability": "view",
      "type": "function"
    },
    {
      "inputs": [],
      "name": "overrideWithdrawSend",
      "outputs": [
        {
          "internalType": "bool",
          "name": "",
          "type": "bool"
        }
      ],
      "stateMutability": "view",
      "type": "function"
    },
    {
      "inputs": [
        {
          "internalType": "address",
          "name": "asset",
          "type": "address"
        },
        {
          "internalType": "uint256",
          "name": "amount",
          "type": "uint256"
        },
        {
          "internalType": "uint256",
          "name": "",
          "type": "uint256"
        },
        {
          "internalType": "address",
          "name": "",
          "type": "address"
        }
      ],
      "name": "repay",
      "outputs": [
        {
          "internalType": "uint256",
          "name": "",
          "type": "uint256"
        }
      ],
      "stateMutability": "nonpayable",
      "type": "function"
    },
    {
      "inputs": [],
      "name": "repayReturnOverrideAmount",
      "outputs": [
        {
          "internalType": "uint256",
          "name": "",
          "type": "uint256"
        }
      ],
      "stateMutability": "view",
      "type": "function"
    },
    {
      "inputs": [],
      "name": "resetBorrowSendAmount",
      "outputs": [],
      "stateMutability": "nonpayable",
      "type": "function"
    },
    {
      "inputs": [],
      "name": "resetRepayReturnAmount",
      "outputs": [],
      "stateMutability": "nonpayable",
      "type": "function"
    },
    {
      "inputs": [],
      "name": "resetSupplyMintAmount",
      "outputs": [],
      "stateMutability": "nonpayable",
      "type": "function"
    },
    {
      "inputs": [],
      "name": "resetSupplyPullAmount",
      "outputs": [],
      "stateMutability": "nonpayable",
      "type": "function"
    },
    {
      "inputs": [],
      "name": "resetWithdrawBurnAmount",
      "outputs": [],
      "stateMutability": "nonpayable",
      "type": "function"
    },
    {
      "inputs": [],
      "name": "resetWithdrawReturnAmount",
      "outputs": [],
      "stateMutability": "nonpayable",
      "type": "function"
    },
    {
      "inputs": [],
      "name": "resetWithdrawSendAmount",
      "outputs": [],
      "stateMutability": "nonpayable",
      "type": "function"
    },
    {
      "inputs": [
        {
          "internalType": "address",
          "name": "provider",
          "type": "address"
        }
      ],
      "name": "setAddressesProvider",
      "outputs": [],
      "stateMutability": "nonpayable",
      "type": "function"
    },
    {
      "inputs": [
        {
          "internalType": "uint256",
          "name": "amount",
          "type": "uint256"
        }
      ],
      "name": "setAvailableBorrowsBase",
      "outputs": [],
      "stateMutability": "nonpayable",
      "type": "function"
    },
    {
      "inputs": [
        {
          "internalType": "uint256",
          "name": "amount",
          "type": "uint256"
        }
      ],
      "name": "setBorrowSendAmount",
      "outputs": [],
      "stateMutability": "nonpayable",
      "type": "function"
    },
    {
      "inputs": [
        {
          "internalType": "uint256",
          "name": "amount",
          "type": "uint256"
        }
      ],
      "name": "setRepayReturnAmount",
      "outputs": [],
      "stateMutability": "nonpayable",
      "type": "function"
    },
    {
      "inputs": [
        {
          "internalType": "address",
          "name": "asset",
          "type": "address"
        },
        {
          "internalType": "address",
          "name": "aToken",
          "type": "address"
        },
        {
          "internalType": "address",
          "name": "stableDebt",
          "type": "address"
        },
        {
          "internalType": "address",
          "name": "varDebt",
          "type": "address"
        }
      ],
      "name": "setReserveTokens",
      "outputs": [],
      "stateMutability": "nonpayable",
      "type": "function"
    },
    {
      "inputs": [
        {
          "internalType": "uint256",
          "name": "amount",
          "type": "uint256"
        }
      ],
      "name": "setSupplyMintAmount",
      "outputs": [],
      "stateMutability": "nonpayable",
      "type": "function"
    },
    {
      "inputs": [
        {
          "internalType": "uint256",
          "name": "amount",
          "type": "uint256"
        }
      ],
      "name": "setSupplyPullAmount",
      "outputs": [],
      "stateMutability": "nonpayable",
      "type": "function"
    },
    {
      "inputs": [
        {
          "internalType": "uint256",
          "name": "amount",
          "type": "uint256"
        }
      ],
      "name": "setWithdrawBurnAmount",
      "outputs": [],
      "stateMutability": "nonpayable",
      "type": "function"
    },
    {
      "inputs": [
        {
          "internalType": "uint256",
          "name": "amount",
          "type": "uint256"
        }
      ],
      "name": "setWithdrawReturnAmount",
      "outputs": [],
      "stateMutability": "nonpayable",
      "type": "function"
    },
    {
      "inputs": [
        {
          "internalType": "uint256",
          "name": "amount",
          "type": "uint256"
        }
      ],
      "name": "setWithdrawSendAmount",
      "outputs": [],
      "stateMutability": "nonpayable",
      "type": "function"
    },
    {
      "inputs": [
        {
          "internalType": "address",
          "name": "",
          "type": "address"
        }
      ],
      "name": "stableDebtTokens",
      "outputs": [
        {
          "internalType": "address",
          "name": "",
          "type": "address"
        }
      ],
      "stateMutability": "view",
      "type": "function"
    },
    {
      "inputs": [
        {
          "internalType": "address",
          "name": "asset",
          "type": "address"
        },
        {
          "internalType": "uint256",
          "name": "amount",
          "type": "uint256"
        },
        {
          "internalType": "address",
          "name": "onBehalfOf",
          "type": "address"
        },
        {
          "internalType": "uint16",
          "name": "",
          "type": "uint16"
        }
      ],
      "name": "supply",
      "outputs": [],
      "stateMutability": "nonpayable",
      "type": "function"
    },
    {
      "inputs": [],
      "name": "supplyMintAmount",
      "outputs": [
        {
          "internalType": "uint256",
          "name": "",
          "type": "uint256"
        }
      ],
      "stateMutability": "view",
      "type": "function"
    },
    {
      "inputs": [],
      "name": "supplyPullAmount",
      "outputs": [
        {
          "internalType": "uint256",
          "name": "",
          "type": "uint256"
        }
      ],
      "stateMutability": "view",
      "type": "function"
    },
    {
      "inputs": [
        {
          "internalType": "address",
          "name": "",
          "type": "address"
        }
      ],
      "name": "variableDebtTokens",
      "outputs": [
        {
          "internalType": "address",
          "name": "",
          "type": "address"
        }
      ],
      "stateMutability": "view",
      "type": "function"
    },
    {
      "inputs": [
        {
          "internalType": "address",
          "name": "asset",
          "type": "address"
        },
        {
          "internalType": "uint256",
          "name": "amount",
          "type": "uint256"
        },
        {
          "internalType": "address",
          "name": "to",
          "type": "address"
        }
      ],
      "name": "withdraw",
      "outputs": [
        {
          "internalType": "uint256",
          "name": "",
          "type": "uint256"
        }
      ],
      "stateMutability": "nonpayable",
      "type": "function"
    },
    {
      "inputs": [],
      "name": "withdrawBurnAmount",
      "outputs": [
        {
          "internalType": "uint256",
          "name": "",
          "type": "uint256"
        }
      ],
      "stateMutability": "view",
      "type": "function"
    },
    {
      "inputs": [],
      "name": "withdrawReturnAmount",
      "outputs": [
        {
          "internalType": "uint256",
          "name": "",
          "type": "uint256"
        }
      ],
      "stateMutability": "view",
      "type": "function"
    },
    {
      "inputs": [],
      "name": "withdrawSendAmount",
      "outputs": [
        {
          "internalType": "uint256",
          "name": "",
          "type": "uint256"
        }
      ],
      "stateMutability": "view",
      "type": "function"
    }
  ],
  "bytecode": "0x6080806040523461001657610f54908161001c8239f35b600080fdfe60808060405260048036101561001457600080fd5b600091823560e01c9081630542975c14610e065750806309641f1514610de35780631891c45314610dc6578063247a503b14610da857806326d3ede914610d825780632d2e140714610d5c57806335ea6a7514610b2f5780633a88d57314610b165780633cdea61914610af85780633e108ad914610abc5780634678be9914610a995780634eeb880914610a5d5780634f45dd3814610a37578063573ade81146109965780635b2f6bc6146109785780635ec5e3d31461095a578063617ba0371461081f5780636722997a146107e957806369328dec1461067d5780636df9a3351461065a5780637427d7ac1461063c5780637520c18f1461061e57806384d692d1146105fb5780638bbb4c47146105dd57806391276be8146105bf57806395cebc29146105995780639b9eee091461057b578063a1a04fcf14610555578063a415bcad14610480578063a492b3b914610462578063a4f7bcec14610444578063b442212d146103b9578063bc21fd791461039b578063beccfcab14610378578063bf92857c14610332578063c523e2c414610314578063c72c4d10146102ed578063e20fc59f146102ca578063e29eaeb3146102a7578063e8efc92214610289578063eebde0a114610263578063f1c72f37146102245763f958ebc5146101fb57600080fd5b3461022057602036600319011261022057600160ff1960075416176007553560085580f35b5080fd5b8234610260576020366003190112610260576020906001600160a01b03906040908261024e610e2a565b16815260028452205416604051908152f35b80fd5b503461022057602036600319011261022057600160ff19600b541617600b5535600c5580f35b82346102605780600319360112610260576020601054604051908152f35b8234610260578060031936011261026057602060ff600954166040519015158152f35b8234610260578060031936011261026057602060ff600b54166040519015158152f35b8234610260578060031936011261026057546040516001600160a01b039091168152602090f35b823461026057806003193601126102605760ff19600b5416600b5580f35b5034610220576020366003190112610220579060c091610350610e2a565b50549060405191818352816020840152604083015280606083015280608083015260a0820152f35b8234610260578060031936011261026057602060ff600d54166040519015158152f35b823461026057806003193601126102605760ff196009541660095580f35b8234610260576080366003190112610260576103d3610e2a565b6024356001600160a01b038181169182900361043f576103f1610e56565b816103fa610e40565b9416855260016020526040852060018060a01b031993848254161790556003602052816040862091168382541617905560026020526040842092169082541617905580f35b600080fd5b82346102605780600319360112610260576020600e54604051908152f35b823461026057806003193601126102605760ff196007541660075580f35b50346102205760a03660031901126102205761049a610e2a565b906104a3610e6c565b506001600160a01b03906084358281160361043f57839260ff6011541660001461054c57601254915b826104d5578480f35b60405163a9059cbb60e01b8152946020948694859384916104f99133908401610f03565b0393165af1801561054157610512575b80808084938480f35b6105339060203d60201161053a575b61052b8183610ea6565b810190610ec9565b5038610509565b503d610521565b6040513d84823e3d90fd5b602435916104cc565b503461022057602036600319011261022057600160ff1960055416176005553560065580f35b82346102605780600319360112610260576020600854604051908152f35b503461022057602036600319011261022057600160ff19600954161760095535600a5580f35b82346102605780600319360112610260576020600c54604051908152f35b823461026057806003193601126102605760ff19600f5416600f5580f35b8234610260578060031936011261026057602060ff600f54166040519015158152f35b82346102605780600319360112610260576020600654604051908152f35b82346102605780600319360112610260576020601254604051908152f35b8234610260578060031936011261026057602060ff601154166040519015158152f35b503461022057606036600319011261022057610697610e2a565b91602435916106a4610e56565b600b5460ff16156107e357600c545b8061076a575b5082939460ff600d541660001461076357600e54915b82610700575b505050505060ff6009541690506000146106f857506020600a545b604051908152f35b6020906106f0565b610722946020946040519687958694859363a9059cbb60e01b85528401610f03565b03926001600160a01b03165af1801561054157610744575b80808084936106d5565b61075c9060203d60201161053a5761052b8183610ea6565b503861073a565b85916106cf565b6001600160a01b038681168552600160205260408520541690813b156107df576107ad85928392604051948580948193632770a7eb60e21b8352338b8401610f03565b03925af180156107d457156106b9576107c68491610e7d565b6107d057386106b9565b8280fd5b6040513d86823e3d90fd5b8480fd5b836106b3565b8234610260576020366003190112610260576001600160a01b0361080b610e2a565b1660018060a01b0319600054161760005580f35b5034610220576080366003190112610220578161083a610e2a565b602435610845610e56565b9061084e610e6c565b5060075460ff1615610954576008545b806108ef575b5060055460ff16156108e95750600654915b8261087f578380f35b6001600160a01b039081168452600160205260408420541690813b156108e557836108bf95604051968795869485936340c10f1960e01b85528401610f03565b03925af18015610541576108d6575b818180808380f35b6108df90610e7d565b386108ce565b8380fd5b91610876565b602061091091604051809381926323b872dd60e01b835230338c8501610ee1565b0381886001600160a01b0389165af180156109495715610864576109429060203d60201161053a5761052b8183610ea6565b5038610864565b6040513d87823e3d90fd5b8061085e565b823461026057806003193601126102605760ff196005541660055580f35b82346102605780600319360112610260576020600a54604051908152f35b509034610260576080366003190112610260576109e560206109b6610e2a565b936024359485916109c5610e40565b50856040518096819582946323b872dd60e01b8452309033908501610ee1565b03926001600160a01b03165af1801561054157610a18575b5050600f5460ff16156106f857506020601054604051908152f35b610a309060203d60201161053a5761052b8183610ea6565b50386109fd565b503461022057602036600319011261022057600160ff19600f541617600f553560105580f35b8234610260576020366003190112610260576020906001600160a01b039060409082610a87610e2a565b16815260038452205416604051908152f35b8234610260578060031936011261026057602060ff600554166040519015158152f35b8234610260576020366003190112610260576020906001600160a01b039060409082610ae6610e2a565b16815260018452205416604051908152f35b823461026057806003193601126102605760ff19600d5416600d5580f35b5034610220576020366003190112610220578035905580f35b50903461026057602036600319011261026057610b4a610e2a565b6040516101e09390929190848401906001600160401b039081831186841017610d4957610200860191821183831017610d49575060405282815283528160208401528160408401528160608401528160808401528160a08401528160c08401528160e08401528161010084015281610120840152816101408401528161016084015281610180840152816101a0840152816101c084015260018060a01b0316808252600360205260018060a01b03604083205416610120840152808252600260205260018060a01b0360408320541661014084015281526001602052604060018060a01b0391205416610100820152604051908051518252602081015160018060801b0316602083015260018060801b03604082015116604083015260018060801b03606082015116606083015260018060801b03608082015116608083015260018060801b0360a08201511660a083015264ffffffffff60c08201511660c083015261ffff60e08201511660e083015260018060a01b036101008201511661010083015260018060a01b036101208201511661012083015260018060a01b036101408201511661014083015260018060a01b036101608201511661016083015260018060801b036101808201511661018083015260018060801b036101a0820151166101a08301526101c060018060801b03910151166101c0820152f35b634e487b7160e01b855260419052602484fd5b503461022057602036600319011261022057600160ff1960115416176011553560125580f35b503461022057602036600319011261022057600160ff19600d541617600d5535600e5580f35b823461026057806003193601126102605760ff196011541660115580f35b503461022057816003193601126102205760209054604051908152f35b8234610260578060031936011261026057602060ff600754166040519015158152f35b83903461022057816003193601126102205790546001600160a01b03168152602090f35b600435906001600160a01b038216820361043f57565b606435906001600160a01b038216820361043f57565b604435906001600160a01b038216820361043f57565b6064359061ffff8216820361043f57565b6001600160401b038111610e9057604052565b634e487b7160e01b600052604160045260246000fd5b601f909101601f19168101906001600160401b03821190821017610e9057604052565b9081602091031261043f5751801515810361043f5790565b6001600160a01b03918216815291166020820152604081019190915260600190565b6001600160a01b03909116815260208101919091526040019056fea2646970667358221220748b24b98fb547339cc645a9c6b34da37b6660d90dab9bb512fbbf7ca5d720cc64736f6c63430008160033",
  "linkReferences": {},
  "deployedLinkReferences": {}
}