{
  "_format": "hh-sol-artifact-1",
  "contractName": "TestTermFlashLoanCentralReceiverFacetHelper",
  "sourceName": "contracts/test/TestTermFlashLoanCentralReceiverFacetHelper.sol",
  "abi": [
    {
      "inputs": [
        {
          "internalType": "address",
          "name": "flashLoanAggregator_",
          "type": "address"
        }
      ],
      "stateMutability": "nonpayable",
      "type": "constructor"
    },
    {
      "inputs": [
        {
          "internalType": "address",
          "name": "target",
          "type": "address"
        }
      ],
      "name": "AddressEmptyCode",
      "type": "error"
    },
    {
      "inputs": [],
      "name": "ArrayLengthMismatch",
      "type": "error"
    },
    {
      "inputs": [],
      "name": "CallbackFacetSelectorMismatch",
      "type": "error"
    },
    {
      "inputs": [],
      "name": "CalldataTooLarge",
      "type": "error"
    },
    {
      "inputs": [],
      "name": "ExcessivePremium",
      "type": "error"
    },
    {
      "inputs": [],
      "name": "FailedCall",
      "type": "error"
    },
    {
      "inputs": [],
      "name": "FlashloanAlreadyActive",
      "type": "error"
    },
    {
      "inputs": [],
      "name": "FlashloanNotActive",
      "type": "error"
    },
    {
      "inputs": [],
      "name": "InvalidAssetAddress",
      "type": "error"
    },
    {
      "inputs": [],
      "name": "InvalidCaller",
      "type": "error"
    },
    {
      "inputs": [],
      "name": "InvalidInitiator",
      "type": "error"
    },
    {
      "inputs": [],
      "name": "SelectorNotFound",
      "type": "error"
    },
    {
      "inputs": [],
      "name": "ZeroAmount",
      "type": "error"
    },
    {
      "inputs": [],
      "name": "MAX_OPERATION_DATA",
      "outputs": [
        {
          "internalType": "uint256",
          "name": "",
          "type": "uint256"
        }
      ],
      "stateMutability": "view",
      "type": "function"
    },
    {
      "inputs": [],
      "name": "MAX_PREMIUM_PERCENTAGE",
      "outputs": [
        {
          "internalType": "uint256",
          "name": "",
          "type": "uint256"
        }
      ],
      "stateMutability": "view",
      "type": "function"
    },
    {
      "inputs": [
        {
          "internalType": "address[]",
          "name": "assets",
          "type": "address[]"
        },
        {
          "internalType": "uint256[]",
          "name": "amounts",
          "type": "uint256[]"
        },
        {
          "internalType": "uint256[]",
          "name": "premiums",
          "type": "uint256[]"
        },
        {
          "internalType": "address",
          "name": "initiator",
          "type": "address"
        },
        {
          "internalType": "bytes",
          "name": "data",
          "type": "bytes"
        }
      ],
      "name": "executeOperation",
      "outputs": [
        {
          "internalType": "bool",
          "name": "success",
          "type": "bool"
        }
      ],
      "stateMutability": "nonpayable",
      "type": "function"
    },
    {
      "inputs": [
        {
          "internalType": "bytes4",
          "name": "selector",
          "type": "bytes4"
        }
      ],
      "name": "facetAddress",
      "outputs": [
        {
          "internalType": "address",
          "name": "",
          "type": "address"
        }
      ],
      "stateMutability": "view",
      "type": "function"
    },
    {
      "inputs": [],
      "name": "getMockCallbackSelector",
      "outputs": [
        {
          "internalType": "bytes4",
          "name": "",
          "type": "bytes4"
        }
      ],
      "stateMutability": "pure",
      "type": "function"
    },
    {
      "inputs": [
        {
          "internalType": "address[]",
          "name": "",
          "type": "address[]"
        },
        {
          "internalType": "uint256[]",
          "name": "",
          "type": "uint256[]"
        },
        {
          "internalType": "uint256[]",
          "name": "",
          "type": "uint256[]"
        },
        {
          "internalType": "address",
          "name": "",
          "type": "address"
        },
        {
          "internalType": "bytes",
          "name": "",
          "type": "bytes"
        }
      ],
      "name": "mockCallback",
      "outputs": [],
      "stateMutability": "nonpayable",
      "type": "function"
    },
    {
      "inputs": [],
      "name": "mockCallbackCalled",
      "outputs": [
        {
          "internalType": "bool",
          "name": "",
          "type": "bool"
        }
      ],
      "stateMutability": "view",
      "type": "function"
    },
    {
      "inputs": [
        {
          "internalType": "bytes4",
          "name": "selector",
          "type": "bytes4"
        },
        {
          "internalType": "address",
          "name": "facet",
          "type": "address"
        }
      ],
      "name": "setFacetAddress",
      "outputs": [],
      "stateMutability": "nonpayable",
      "type": "function"
    }
  ],
  "bytecode": "0x60a03461006a57601f61091838819003918201601f19168301916001600160401b0383118484101761006f5780849260209460405283398101031261006a57516001600160a01b038116810361006a5760805260405161089290816100868239608051816101020152f35b600080fd5b634e487b7160e01b600052604160045260246000fdfe608080604052600436101561001357600080fd5b60003560e01c9081635c887fd614610647575080635d6dcaf71461062a5780635eff17351461060d5780636c7427ed146105b35780637c89faa114610595578063920f5c84146100e2578063cdffacc61461009f5763d766531f1461007757600080fd5b3461009a57600036600319011261009a57604051637c89faa160e01b8152602090f35b600080fd5b3461009a57602036600319011261009a576001600160e01b03196100c1610667565b166000526000602052602060018060a01b0360406000205416604051908152f35b3461009a576100f0366106c2565b9260018060a09a9998969394979a1b037f000000000000000000000000000000000000000000000000000000000000000016330361058357306001600160a01b0387160361057157888714801590610567575b6105555760005b878110610497575061800084116104855782848101036060811261009a5760401361009a5760408051989089016001600160401b0381118a82101761046f576040526101958461067e565b895260208401356001600160e01b03198116900361009a57602084810135908a015260408401356001600160401b03811161009a57858501601f82870101121561009a576101e5818601356107ba565b906101f36040519283610797565b858101803580845288880191016020011161009a576000916020918781018035908401848401378701350101526020898101516040516366ffd66360e11b81526001600160e01b0319909116600482015299908a602481305afa998a156104635760009a61041f575b506001600160a01b038a16801561040d5781516001600160a01b0316036103fc57602063ffffffff60e09c9a9897969594939c1b910151169960405198878a9860c08a0160a060208c01525260e08901929060005b8181106103c657505050936102f5601f9487946102e561032c9c999560209c9b9989199a8d60408d828603019101526107d5565b91888b84030160608c01526107d5565b6001600160a01b039096166080880152868603850160a0880152818652878601376000868286010152011601038084520182610797565b604051906020820193845280519060005b8281106103b05761039c8560008089886103696024828b81018683820152036004810184520182610797565b5190845af43d156103a8573d9161037f836107ba565b9261038d6040519485610797565b83523d6000602085013e6107f9565b50602060405160018152f35b6060916107f9565b806020809284010151602482870101520161033d565b91949596979899509192602080600192838060a01b036103e58961067e565b1681520195019101918b99989796959493926102b1565b60405162dd849b60e61b8152600490fd5b60405163d5cf065560e01b8152600490fd5b9099506020813d60201161045b575b8161043b60209383610797565b8101031261009a57516001600160a01b038116810361009a57988b61025c565b3d915061042e565b6040513d6000823e3d90fd5b634e487b7160e01b600052604160045260246000fd5b604051639e077ae560e01b8152600490fd5b6104a281898b610771565b356001600160a01b0381169081900361009a5715610543576104c5818b88610771565b3515610531576104d6818385610771565b356104e2828c89610771565b356103e89081810291818304149015171561051b576127109004106105095760010161014a565b60405163219fb16b60e11b8152600490fd5b634e487b7160e01b600052601160045260246000fd5b604051631f2a200560e01b8152600490fd5b604051630ccd248560e21b8152600490fd5b60405163512509d360e11b8152600490fd5b5080891415610143565b6040516317fb43e560e31b8152600490fd5b6040516348f5c3ed60e01b8152600490fd5b3461009a576105a3366106c2565b50506001805460ff191681179055005b3461009a57604036600319011261009a576105cc610667565b6024356001600160a01b038116919082900361009a576001600160e01b031916600090815260208190526040902080546001600160a01b0319169091179055005b3461009a57600036600319011261009a5760206040516103e88152f35b3461009a57600036600319011261009a5760206040516180008152f35b3461009a57600036600319011261009a5760209060ff6001541615158152f35b600435906001600160e01b03198216820361009a57565b35906001600160a01b038216820361009a57565b9181601f8401121561009a578235916001600160401b03831161009a576020808501948460051b01011161009a57565b9060a060031983011261009a576001600160401b039060043582811161009a57836106ef91600401610692565b9390939260243581811161009a578261070a91600401610692565b9390939260443583811161009a578161072591600401610692565b909390926064356001600160a01b038116810361009a57926084359083821161009a578060238301121561009a57816004013593841161009a576024848301011161009a576024019190565b91908110156107815760051b0190565b634e487b7160e01b600052603260045260246000fd5b601f909101601f19168101906001600160401b0382119082101761046f57604052565b6001600160401b03811161046f57601f01601f191660200190565b81835290916001600160fb1b03831161009a5760209260051b809284830137010190565b90610820575080511561080e57805190602001fd5b60405163d6bda27560e01b8152600490fd5b81511580610853575b610831575090565b604051639996b31560e01b81526001600160a01b039091166004820152602490fd5b50803b1561082956fea26469706673582212208279f056f0e4d5df08f5a8c9c13930ca1d85f6c97978c9b6b20e4028096f6c7c64736f6c63430008160033",
  "linkReferences": {},
  "deployedLinkReferences": {}
}