{
  "_format": "hh-sol-artifact-1",
  "contractName": "TestTermEventEmitter",
  "sourceName": "contracts/test/TestTermEventEmitter.sol",
  "abi": [
    {
      "inputs": [],
      "name": "AccessControlBadConfirmation",
      "type": "error"
    },
    {
      "inputs": [
        {
          "internalType": "address",
          "name": "account",
          "type": "address"
        },
        {
          "internalType": "bytes32",
          "name": "neededRole",
          "type": "bytes32"
        }
      ],
      "name": "AccessControlUnauthorizedAccount",
      "type": "error"
    },
    {
      "inputs": [
        {
          "internalType": "address",
          "name": "target",
          "type": "address"
        }
      ],
      "name": "AddressEmptyCode",
      "type": "error"
    },
    {
      "inputs": [
        {
          "internalType": "address",
          "name": "implementation",
          "type": "address"
        }
      ],
      "name": "ERC1967InvalidImplementation",
      "type": "error"
    },
    {
      "inputs": [],
      "name": "ERC1967NonPayable",
      "type": "error"
    },
    {
      "inputs": [],
      "name": "FailedCall",
      "type": "error"
    },
    {
      "inputs": [],
      "name": "InvalidInitialization",
      "type": "error"
    },
    {
      "inputs": [],
      "name": "NotInitializing",
      "type": "error"
    },
    {
      "inputs": [],
      "name": "UUPSUnauthorizedCallContext",
      "type": "error"
    },
    {
      "inputs": [
        {
          "internalType": "bytes32",
          "name": "slot",
          "type": "bytes32"
        }
      ],
      "name": "UUPSUnsupportedProxiableUUID",
      "type": "error"
    },
    {
      "anonymous": false,
      "inputs": [
        {
          "indexed": false,
          "internalType": "bytes32",
          "name": "termAuctionId",
          "type": "bytes32"
        },
        {
          "indexed": false,
          "internalType": "bool",
          "name": "nonViableAuction",
          "type": "bool"
        },
        {
          "indexed": false,
          "internalType": "bool",
          "name": "auctionCancelledforWithdrawal",
          "type": "bool"
        }
      ],
      "name": "AuctionCancelled",
      "type": "event"
    },
    {
      "anonymous": false,
      "inputs": [
        {
          "indexed": false,
          "internalType": "bytes32",
          "name": "termAuctionId",
          "type": "bytes32"
        },
        {
          "indexed": false,
          "internalType": "uint256",
          "name": "timestamp",
          "type": "uint256"
        },
        {
          "indexed": false,
          "internalType": "uint256",
          "name": "block",
          "type": "uint256"
        },
        {
          "indexed": false,
          "internalType": "uint256",
          "name": "totalAssignedBids",
          "type": "uint256"
        },
        {
          "indexed": false,
          "internalType": "uint256",
          "name": "totalAssignedOffers",
          "type": "uint256"
        },
        {
          "indexed": false,
          "internalType": "uint256",
          "name": "clearingPrice",
          "type": "uint256"
        }
      ],
      "name": "AuctionCompleted",
      "type": "event"
    },
    {
      "anonymous": false,
      "inputs": [
        {
          "indexed": false,
          "internalType": "bytes32",
          "name": "termAuctionId",
          "type": "bytes32"
        },
        {
          "indexed": false,
          "internalType": "bytes32",
          "name": "id",
          "type": "bytes32"
        },
        {
          "indexed": false,
          "internalType": "uint256",
          "name": "amount",
          "type": "uint256"
        }
      ],
      "name": "BidAssigned",
      "type": "event"
    },
    {
      "anonymous": false,
      "inputs": [
        {
          "indexed": false,
          "internalType": "bytes32",
          "name": "termRepoId",
          "type": "bytes32"
        },
        {
          "indexed": false,
          "internalType": "address",
          "name": "bidder",
          "type": "address"
        },
        {
          "indexed": false,
          "internalType": "uint256",
          "name": "purchasePrice",
          "type": "uint256"
        },
        {
          "indexed": false,
          "internalType": "uint256",
          "name": "repurchasePrice",
          "type": "uint256"
        },
        {
          "indexed": false,
          "internalType": "uint256",
          "name": "servicingFees",
          "type": "uint256"
        }
      ],
      "name": "BidFulfilled",
      "type": "event"
    },
    {
      "anonymous": false,
      "inputs": [
        {
          "indexed": false,
          "internalType": "bytes32",
          "name": "termAuctionId",
          "type": "bytes32"
        },
        {
          "indexed": false,
          "internalType": "bytes32",
          "name": "id",
          "type": "bytes32"
        }
      ],
      "name": "BidInShortfall",
      "type": "event"
    },
    {
      "anonymous": false,
      "inputs": [
        {
          "indexed": false,
          "internalType": "bytes32",
          "name": "termAuctionId",
          "type": "bytes32"
        },
        {
          "indexed": false,
          "internalType": "bytes32",
          "name": "id",
          "type": "bytes32"
        },
        {
          "indexed": false,
          "internalType": "address",
          "name": "bidder",
          "type": "address"
        },
        {
          "indexed": false,
          "internalType": "bytes32",
          "name": "bidPrice",
          "type": "bytes32"
        },
        {
          "indexed": false,
          "internalType": "uint256",
          "name": "amount",
          "type": "uint256"
        },
        {
          "indexed": false,
          "internalType": "address",
          "name": "token",
          "type": "address"
        },
        {
          "indexed": false,
          "internalType": "address[]",
          "name": "collateralTokens",
          "type": "address[]"
        },
        {
          "indexed": false,
          "internalType": "uint256[]",
          "name": "collateralAmounts",
          "type": "uint256[]"
        },
        {
          "indexed": false,
          "internalType": "bool",
          "name": "isRollover",
          "type": "bool"
        },
        {
          "indexed": false,
          "internalType": "address",
          "name": "rolloverPairOffTermRepoServicer",
          "type": "address"
        },
        {
          "indexed": false,
          "internalType": "address",
          "name": "referralAddress",
          "type": "address"
        }
      ],
      "name": "BidLocked",
      "type": "event"
    },
    {
      "anonymous": false,
      "inputs": [
        {
          "indexed": false,
          "internalType": "bytes32",
          "name": "termAuctionId",
          "type": "bytes32"
        },
        {
          "indexed": false,
          "internalType": "bytes32",
          "name": "termRepoId",
          "type": "bytes32"
        }
      ],
      "name": "BidLockingPaused",
      "type": "event"
    },
    {
      "anonymous": false,
      "inputs": [
        {
          "indexed": false,
          "internalType": "bytes32",
          "name": "termAuctionId",
          "type": "bytes32"
        },
        {
          "indexed": false,
          "internalType": "bytes32",
          "name": "termRepoId",
          "type": "bytes32"
        }
      ],
      "name": "BidLockingUnpaused",
      "type": "event"
    },
    {
      "anonymous": false,
      "inputs": [
        {
          "indexed": false,
          "internalType": "bytes32",
          "name": "termAuctionId",
          "type": "bytes32"
        },
        {
          "indexed": false,
          "internalType": "bytes32",
          "name": "id",
          "type": "bytes32"
        },
        {
          "indexed": false,
          "internalType": "uint256",
          "name": "bidPrice",
          "type": "uint256"
        }
      ],
      "name": "BidRevealed",
      "type": "event"
    },
    {
      "anonymous": false,
      "inputs": [
        {
          "indexed": false,
          "internalType": "bytes32",
          "name": "termAuctionId",
          "type": "bytes32"
        },
        {
          "indexed": false,
          "internalType": "bytes32",
          "name": "id",
          "type": "bytes32"
        }
      ],
      "name": "BidUnlocked",
      "type": "event"
    },
    {
      "anonymous": false,
      "inputs": [
        {
          "indexed": false,
          "internalType": "bytes32",
          "name": "termAuctionId",
          "type": "bytes32"
        },
        {
          "indexed": false,
          "internalType": "bytes32",
          "name": "termRepoId",
          "type": "bytes32"
        }
      ],
      "name": "BidUnlockingPaused",
      "type": "event"
    },
    {
      "anonymous": false,
      "inputs": [
        {
          "indexed": false,
          "internalType": "bytes32",
          "name": "termAuctionId",
          "type": "bytes32"
        },
        {
          "indexed": false,
          "internalType": "bytes32",
          "name": "termRepoId",
          "type": "bytes32"
        }
      ],
      "name": "BidUnlockingUnpaused",
      "type": "event"
    },
    {
      "anonymous": false,
      "inputs": [
        {
          "indexed": false,
          "internalType": "bytes32",
          "name": "termRepoId",
          "type": "bytes32"
        },
        {
          "indexed": false,
          "internalType": "address",
          "name": "borrower",
          "type": "address"
        },
        {
          "indexed": false,
          "internalType": "uint256",
          "name": "amountToClose",
          "type": "uint256"
        }
      ],
      "name": "BurnCollapseExposure",
      "type": "event"
    },
    {
      "anonymous": false,
      "inputs": [
        {
          "indexed": false,
          "internalType": "bytes32",
          "name": "termRepoId",
          "type": "bytes32"
        },
        {
          "indexed": false,
          "internalType": "address",
          "name": "borrower",
          "type": "address"
        },
        {
          "indexed": false,
          "internalType": "address",
          "name": "collateralToken",
          "type": "address"
        },
        {
          "indexed": false,
          "internalType": "uint256",
          "name": "amount",
          "type": "uint256"
        }
      ],
      "name": "CollateralLocked",
      "type": "event"
    },
    {
      "anonymous": false,
      "inputs": [
        {
          "indexed": false,
          "internalType": "bytes32",
          "name": "termRepoId",
          "type": "bytes32"
        },
        {
          "indexed": false,
          "internalType": "address",
          "name": "borrower",
          "type": "address"
        },
        {
          "indexed": false,
          "internalType": "address",
          "name": "collateralToken",
          "type": "address"
        },
        {
          "indexed": false,
          "internalType": "uint256",
          "name": "amount",
          "type": "uint256"
        }
      ],
      "name": "CollateralUnlocked",
      "type": "event"
    },
    {
      "anonymous": false,
      "inputs": [
        {
          "indexed": false,
          "internalType": "bytes32",
          "name": "termAuctionId",
          "type": "bytes32"
        },
        {
          "indexed": false,
          "internalType": "bytes32",
          "name": "termRepoId",
          "type": "bytes32"
        }
      ],
      "name": "CompleteAuctionPaused",
      "type": "event"
    },
    {
      "anonymous": false,
      "inputs": [
        {
          "indexed": false,
          "internalType": "bytes32",
          "name": "termAuctionId",
          "type": "bytes32"
        },
        {
          "indexed": false,
          "internalType": "bytes32",
          "name": "termRepoId",
          "type": "bytes32"
        }
      ],
      "name": "CompleteAuctionUnpaused",
      "type": "event"
    },
    {
      "anonymous": false,
      "inputs": [
        {
          "indexed": false,
          "internalType": "bytes32",
          "name": "termAuctionId",
          "type": "bytes32"
        }
      ],
      "name": "DelistTermAuction",
      "type": "event"
    },
    {
      "anonymous": false,
      "inputs": [
        {
          "indexed": false,
          "internalType": "bytes32",
          "name": "termRepoId",
          "type": "bytes32"
        }
      ],
      "name": "DelistTermRepo",
      "type": "event"
    },
    {
      "anonymous": false,
      "inputs": [
        {
          "indexed": false,
          "internalType": "bytes32",
          "name": "termRepoId",
          "type": "bytes32"
        },
        {
          "indexed": false,
          "internalType": "address",
          "name": "borrower",
          "type": "address"
        },
        {
          "indexed": false,
          "internalType": "uint256",
          "name": "amountRolled",
          "type": "uint256"
        }
      ],
      "name": "ExposureClosedOnRolloverExisting",
      "type": "event"
    },
    {
      "anonymous": false,
      "inputs": [
        {
          "indexed": false,
          "internalType": "bytes32",
          "name": "termRepoId",
          "type": "bytes32"
        },
        {
          "indexed": false,
          "internalType": "address",
          "name": "borrower",
          "type": "address"
        },
        {
          "indexed": false,
          "internalType": "uint256",
          "name": "purchasePrice",
          "type": "uint256"
        },
        {
          "indexed": false,
          "internalType": "uint256",
          "name": "repurchasePrice",
          "type": "uint256"
        },
        {
          "indexed": false,
          "internalType": "uint256",
          "name": "servicingFees",
          "type": "uint256"
        }
      ],
      "name": "ExposureOpenedOnRolloverNew",
      "type": "event"
    },
    {
      "anonymous": false,
      "inputs": [
        {
          "indexed": false,
          "internalType": "uint64",
          "name": "version",
          "type": "uint64"
        }
      ],
      "name": "Initialized",
      "type": "event"
    },
    {
      "anonymous": false,
      "inputs": [
        {
          "indexed": false,
          "internalType": "bytes32",
          "name": "orderHash",
          "type": "bytes32"
        }
      ],
      "name": "IntentCancelled",
      "type": "event"
    },
    {
      "anonymous": false,
      "inputs": [
        {
          "indexed": false,
          "internalType": "bytes32",
          "name": "orderHash",
          "type": "bytes32"
        },
        {
          "indexed": false,
          "internalType": "bytes32",
          "name": "termRepoId",
          "type": "bytes32"
        },
        {
          "indexed": false,
          "internalType": "address",
          "name": "purchaseToken",
          "type": "address"
        },
        {
          "indexed": false,
          "internalType": "address",
          "name": "maker",
          "type": "address"
        },
        {
          "indexed": false,
          "internalType": "address",
          "name": "taker",
          "type": "address"
        },
        {
          "indexed": false,
          "internalType": "address",
          "name": "makerToken",
          "type": "address"
        },
        {
          "indexed": false,
          "internalType": "address",
          "name": "takerToken",
          "type": "address"
        },
        {
          "indexed": false,
          "internalType": "uint256",
          "name": "offerRate",
          "type": "uint256"
        },
        {
          "indexed": false,
          "internalType": "uint256",
          "name": "makerTokenAmountFilled",
          "type": "uint256"
        },
        {
          "indexed": false,
          "internalType": "uint256",
          "name": "takerTokenAmountFilled",
          "type": "uint256"
        },
        {
          "indexed": false,
          "internalType": "uint256",
          "name": "proratedBorrowFee",
          "type": "uint256"
        },
        {
          "indexed": false,
          "internalType": "address",
          "name": "feeRecipient",
          "type": "address"
        },
        {
          "indexed": false,
          "internalType": "uint256",
          "name": "originalOrderAmount",
          "type": "uint256"
        },
        {
          "indexed": false,
          "internalType": "uint256",
          "name": "expiry",
          "type": "uint256"
        },
        {
          "indexed": false,
          "internalType": "uint256",
          "name": "salt",
          "type": "uint256"
        }
      ],
      "name": "IntentFilled",
      "type": "event"
    },
    {
      "anonymous": false,
      "inputs": [
        {
          "indexed": false,
          "internalType": "address",
          "name": "maker",
          "type": "address"
        },
        {
          "indexed": false,
          "internalType": "address",
          "name": "makerToken",
          "type": "address"
        },
        {
          "indexed": false,
          "internalType": "address",
          "name": "takerToken",
          "type": "address"
        },
        {
          "indexed": false,
          "internalType": "uint256",
          "name": "minSaltValue",
          "type": "uint256"
        }
      ],
      "name": "LimitOrderTokenPairMinSalt",
      "type": "event"
    },
    {
      "anonymous": false,
      "inputs": [
        {
          "indexed": false,
          "internalType": "bytes32",
          "name": "termRepoId",
          "type": "bytes32"
        },
        {
          "indexed": false,
          "internalType": "address",
          "name": "borrower",
          "type": "address"
        },
        {
          "indexed": false,
          "internalType": "address",
          "name": "liquidator",
          "type": "address"
        },
        {
          "indexed": false,
          "internalType": "uint256",
          "name": "closureAmount",
          "type": "uint256"
        },
        {
          "indexed": false,
          "internalType": "address",
          "name": "collateralToken",
          "type": "address"
        },
        {
          "indexed": false,
          "internalType": "uint256",
          "name": "amountLiquidated",
          "type": "uint256"
        },
        {
          "indexed": false,
          "internalType": "uint256",
          "name": "protocolSeizureAmount",
          "type": "uint256"
        },
        {
          "indexed": false,
          "internalType": "bool",
          "name": "defaultLiquidation",
          "type": "bool"
        }
      ],
      "name": "Liquidation",
      "type": "event"
    },
    {
      "anonymous": false,
      "inputs": [
        {
          "indexed": false,
          "internalType": "bytes32",
          "name": "termRepoId",
          "type": "bytes32"
        }
      ],
      "name": "LiquidationsPaused",
      "type": "event"
    },
    {
      "anonymous": false,
      "inputs": [
        {
          "indexed": false,
          "internalType": "bytes32",
          "name": "termRepoId",
          "type": "bytes32"
        }
      ],
      "name": "LiquidationsUnpaused",
      "type": "event"
    },
    {
      "anonymous": false,
      "inputs": [
        {
          "indexed": false,
          "internalType": "bytes32",
          "name": "termRepoId",
          "type": "bytes32"
        },
        {
          "indexed": false,
          "internalType": "address",
          "name": "authedUser",
          "type": "address"
        }
      ],
      "name": "MintExposureAccessGranted",
      "type": "event"
    },
    {
      "anonymous": false,
      "inputs": [
        {
          "indexed": false,
          "internalType": "bytes32",
          "name": "termAuctionId",
          "type": "bytes32"
        },
        {
          "indexed": false,
          "internalType": "bytes32",
          "name": "id",
          "type": "bytes32"
        },
        {
          "indexed": false,
          "internalType": "uint256",
          "name": "amount",
          "type": "uint256"
        }
      ],
      "name": "OfferAssigned",
      "type": "event"
    },
    {
      "anonymous": false,
      "inputs": [
        {
          "indexed": false,
          "internalType": "bytes32",
          "name": "offerId",
          "type": "bytes32"
        },
        {
          "indexed": false,
          "internalType": "address",
          "name": "offeror",
          "type": "address"
        },
        {
          "indexed": false,
          "internalType": "uint256",
          "name": "purchasePrice",
          "type": "uint256"
        },
        {
          "indexed": false,
          "internalType": "uint256",
          "name": "repurchasePrice",
          "type": "uint256"
        },
        {
          "indexed": false,
          "internalType": "uint256",
          "name": "repoTokensMinted",
          "type": "uint256"
        }
      ],
      "name": "OfferFulfilled",
      "type": "event"
    },
    {
      "anonymous": false,
      "inputs": [
        {
          "indexed": false,
          "internalType": "bytes32",
          "name": "termAuctionId",
          "type": "bytes32"
        },
        {
          "indexed": false,
          "internalType": "bytes32",
          "name": "id",
          "type": "bytes32"
        },
        {
          "indexed": false,
          "internalType": "address",
          "name": "offeror",
          "type": "address"
        },
        {
          "indexed": false,
          "internalType": "bytes32",
          "name": "offerPrice",
          "type": "bytes32"
        },
        {
          "indexed": false,
          "internalType": "uint256",
          "name": "amount",
          "type": "uint256"
        },
        {
          "indexed": false,
          "internalType": "address",
          "name": "token",
          "type": "address"
        },
        {
          "indexed": false,
          "internalType": "address",
          "name": "referralAddress",
          "type": "address"
        }
      ],
      "name": "OfferLocked",
      "type": "event"
    },
    {
      "anonymous": false,
      "inputs": [
        {
          "indexed": false,
          "internalType": "bytes32",
          "name": "termRepoId",
          "type": "bytes32"
        },
        {
          "indexed": false,
          "internalType": "address",
          "name": "offeror",
          "type": "address"
        },
        {
          "indexed": false,
          "internalType": "uint256",
          "name": "amount",
          "type": "uint256"
        }
      ],
      "name": "OfferLockedByServicer",
      "type": "event"
    },
    {
      "anonymous": false,
      "inputs": [
        {
          "indexed": false,
          "internalType": "bytes32",
          "name": "termAuctionId",
          "type": "bytes32"
        },
        {
          "indexed": false,
          "internalType": "bytes32",
          "name": "termRepoId",
          "type": "bytes32"
        }
      ],
      "name": "OfferLockingPaused",
      "type": "event"
    },
    {
      "anonymous": false,
      "inputs": [
        {
          "indexed": false,
          "internalType": "bytes32",
          "name": "termAuctionId",
          "type": "bytes32"
        },
        {
          "indexed": false,
          "internalType": "bytes32",
          "name": "termRepoId",
          "type": "bytes32"
        }
      ],
      "name": "OfferLockingUnpaused",
      "type": "event"
    },
    {
      "anonymous": false,
      "inputs": [
        {
          "indexed": false,
          "internalType": "bytes32",
          "name": "termAuctionId",
          "type": "bytes32"
        },
        {
          "indexed": false,
          "internalType": "bytes32",
          "name": "id",
          "type": "bytes32"
        },
        {
          "indexed": false,
          "internalType": "uint256",
          "name": "offerPrice",
          "type": "uint256"
        }
      ],
      "name": "OfferRevealed",
      "type": "event"
    },
    {
      "anonymous": false,
      "inputs": [
        {
          "indexed": false,
          "internalType": "bytes32",
          "name": "termAuctionId",
          "type": "bytes32"
        },
        {
          "indexed": false,
          "internalType": "bytes32",
          "name": "id",
          "type": "bytes32"
        }
      ],
      "name": "OfferUnlocked",
      "type": "event"
    },
    {
      "anonymous": false,
      "inputs": [
        {
          "indexed": false,
          "internalType": "bytes32",
          "name": "termRepoId",
          "type": "bytes32"
        },
        {
          "indexed": false,
          "internalType": "address",
          "name": "offeror",
          "type": "address"
        },
        {
          "indexed": false,
          "internalType": "uint256",
          "name": "amount",
          "type": "uint256"
        }
      ],
      "name": "OfferUnlockedByServicer",
      "type": "event"
    },
    {
      "anonymous": false,
      "inputs": [
        {
          "indexed": false,
          "internalType": "bytes32",
          "name": "termAuctionId",
          "type": "bytes32"
        },
        {
          "indexed": false,
          "internalType": "bytes32",
          "name": "termRepoId",
          "type": "bytes32"
        }
      ],
      "name": "OfferUnlockingPaused",
      "type": "event"
    },
    {
      "anonymous": false,
      "inputs": [
        {
          "indexed": false,
          "internalType": "bytes32",
          "name": "termAuctionId",
          "type": "bytes32"
        },
        {
          "indexed": false,
          "internalType": "bytes32",
          "name": "termRepoId",
          "type": "bytes32"
        }
      ],
      "name": "OfferUnlockingUnpaused",
      "type": "event"
    },
    {
      "anonymous": false,
      "inputs": [
        {
          "indexed": false,
          "internalType": "bytes32",
          "name": "termRepoId",
          "type": "bytes32"
        },
        {
          "indexed": false,
          "internalType": "address",
          "name": "termRepoCollateralManager",
          "type": "address"
        },
        {
          "indexed": false,
          "internalType": "address",
          "name": "termAuctionBidLocker",
          "type": "address"
        }
      ],
      "name": "PairReopeningBidLocker",
      "type": "event"
    },
    {
      "anonymous": false,
      "inputs": [
        {
          "indexed": false,
          "internalType": "bytes32",
          "name": "termRepoId",
          "type": "bytes32"
        },
        {
          "indexed": false,
          "internalType": "address",
          "name": "termRepoServicer",
          "type": "address"
        },
        {
          "indexed": false,
          "internalType": "address",
          "name": "termAuctionOfferLocker",
          "type": "address"
        },
        {
          "indexed": false,
          "internalType": "address",
          "name": "termAuction",
          "type": "address"
        }
      ],
      "name": "ReopeningOfferLockerPaired",
      "type": "event"
    },
    {
      "anonymous": false,
      "inputs": [
        {
          "indexed": false,
          "internalType": "bytes32",
          "name": "orderHash",
          "type": "bytes32"
        },
        {
          "components": [
            {
              "internalType": "address",
              "name": "repoToken",
              "type": "address"
            },
            {
              "internalType": "address",
              "name": "purchaseToken",
              "type": "address"
            },
            {
              "internalType": "address",
              "name": "maker",
              "type": "address"
            },
            {
              "internalType": "address",
              "name": "taker",
              "type": "address"
            },
            {
              "internalType": "address",
              "name": "makerToken",
              "type": "address"
            },
            {
              "internalType": "address",
              "name": "takerToken",
              "type": "address"
            },
            {
              "internalType": "uint256",
              "name": "discountRate",
              "type": "uint256"
            },
            {
              "internalType": "uint256",
              "name": "makerTokenAmountFilled",
              "type": "uint256"
            },
            {
              "internalType": "uint256",
              "name": "takerTokenAmountFilled",
              "type": "uint256"
            },
            {
              "internalType": "uint256",
              "name": "makerFee",
              "type": "uint256"
            },
            {
              "internalType": "uint256",
              "name": "takerFee",
              "type": "uint256"
            },
            {
              "internalType": "address",
              "name": "feeRecipient",
              "type": "address"
            },
            {
              "internalType": "uint256",
              "name": "originalOrderAmount",
              "type": "uint256"
            },
            {
              "internalType": "uint256",
              "name": "expiry",
              "type": "uint256"
            },
            {
              "internalType": "uint256",
              "name": "salt",
              "type": "uint256"
            }
          ],
          "indexed": false,
          "internalType": "struct ITermIntentEvents.RepoTokenSwapData",
          "name": "swapData",
          "type": "tuple"
        }
      ],
      "name": "RepoTokenSwapFilled",
      "type": "event"
    },
    {
      "anonymous": false,
      "inputs": [
        {
          "indexed": false,
          "internalType": "bytes32",
          "name": "termRepoId",
          "type": "bytes32"
        },
        {
          "indexed": false,
          "internalType": "address",
          "name": "borrower",
          "type": "address"
        },
        {
          "indexed": false,
          "internalType": "uint256",
          "name": "repurchaseAmount",
          "type": "uint256"
        }
      ],
      "name": "RepurchasePaymentSubmitted",
      "type": "event"
    },
    {
      "anonymous": false,
      "inputs": [
        {
          "indexed": true,
          "internalType": "bytes32",
          "name": "role",
          "type": "bytes32"
        },
        {
          "indexed": true,
          "internalType": "bytes32",
          "name": "previousAdminRole",
          "type": "bytes32"
        },
        {
          "indexed": true,
          "internalType": "bytes32",
          "name": "newAdminRole",
          "type": "bytes32"
        }
      ],
      "name": "RoleAdminChanged",
      "type": "event"
    },
    {
      "anonymous": false,
      "inputs": [
        {
          "indexed": true,
          "internalType": "bytes32",
          "name": "role",
          "type": "bytes32"
        },
        {
          "indexed": true,
          "internalType": "address",
          "name": "account",
          "type": "address"
        },
        {
          "indexed": true,
          "internalType": "address",
          "name": "sender",
          "type": "address"
        }
      ],
      "name": "RoleGranted",
      "type": "event"
    },
    {
      "anonymous": false,
      "inputs": [
        {
          "indexed": true,
          "internalType": "bytes32",
          "name": "role",
          "type": "bytes32"
        },
        {
          "indexed": true,
          "internalType": "address",
          "name": "account",
          "type": "address"
        },
        {
          "indexed": true,
          "internalType": "address",
          "name": "sender",
          "type": "address"
        }
      ],
      "name": "RoleRevoked",
      "type": "event"
    },
    {
      "anonymous": false,
      "inputs": [
        {
          "indexed": false,
          "internalType": "bytes32",
          "name": "termRepoId",
          "type": "bytes32"
        },
        {
          "indexed": false,
          "internalType": "address",
          "name": "borrower",
          "type": "address"
        }
      ],
      "name": "RolloverCancellation",
      "type": "event"
    },
    {
      "anonymous": false,
      "inputs": [
        {
          "indexed": false,
          "internalType": "bytes32",
          "name": "termRepoId",
          "type": "bytes32"
        },
        {
          "indexed": false,
          "internalType": "bytes32",
          "name": "rolloverTermRepoId",
          "type": "bytes32"
        },
        {
          "indexed": false,
          "internalType": "address",
          "name": "borrower",
          "type": "address"
        },
        {
          "indexed": false,
          "internalType": "address",
          "name": "rolloverAuction",
          "type": "address"
        },
        {
          "indexed": false,
          "internalType": "uint256",
          "name": "rolloverAmount",
          "type": "uint256"
        },
        {
          "indexed": false,
          "internalType": "bytes32",
          "name": "hashedBidPrice",
          "type": "bytes32"
        }
      ],
      "name": "RolloverElection",
      "type": "event"
    },
    {
      "anonymous": false,
      "inputs": [
        {
          "indexed": false,
          "internalType": "bytes32",
          "name": "termRepoId",
          "type": "bytes32"
        },
        {
          "indexed": false,
          "internalType": "address",
          "name": "borrower",
          "type": "address"
        }
      ],
      "name": "RolloverProcessed",
      "type": "event"
    },
    {
      "anonymous": false,
      "inputs": [
        {
          "indexed": false,
          "internalType": "bytes32",
          "name": "termRepoId",
          "type": "bytes32"
        },
        {
          "indexed": false,
          "internalType": "bytes32",
          "name": "rolloverTermAuctionId",
          "type": "bytes32"
        }
      ],
      "name": "RolloverTermApprovalRevoked",
      "type": "event"
    },
    {
      "anonymous": false,
      "inputs": [
        {
          "indexed": false,
          "internalType": "bytes32",
          "name": "termRepoId",
          "type": "bytes32"
        },
        {
          "indexed": false,
          "internalType": "bytes32",
          "name": "rolloverTermAuctionId",
          "type": "bytes32"
        }
      ],
      "name": "RolloverTermApproved",
      "type": "event"
    },
    {
      "anonymous": false,
      "inputs": [
        {
          "indexed": false,
          "internalType": "address",
          "name": "maker",
          "type": "address"
        },
        {
          "indexed": false,
          "internalType": "address",
          "name": "makerToken",
          "type": "address"
        },
        {
          "indexed": false,
          "internalType": "address",
          "name": "takerToken",
          "type": "address"
        },
        {
          "indexed": false,
          "internalType": "uint256",
          "name": "minSaltValue",
          "type": "uint256"
        }
      ],
      "name": "SwapOrderTokenPairMinSalt",
      "type": "event"
    },
    {
      "anonymous": false,
      "inputs": [
        {
          "indexed": false,
          "internalType": "bytes32",
          "name": "termRepoId",
          "type": "bytes32"
        },
        {
          "indexed": false,
          "internalType": "bytes32",
          "name": "termAuctionId",
          "type": "bytes32"
        },
        {
          "indexed": false,
          "internalType": "address",
          "name": "termAuctionBidLocker",
          "type": "address"
        },
        {
          "indexed": false,
          "internalType": "uint256",
          "name": "auctionStartTime",
          "type": "uint256"
        },
        {
          "indexed": false,
          "internalType": "uint256",
          "name": "revealTime",
          "type": "uint256"
        },
        {
          "indexed": false,
          "internalType": "uint256",
          "name": "maxBidPrice",
          "type": "uint256"
        },
        {
          "indexed": false,
          "internalType": "uint256",
          "name": "minimumTenderAmount",
          "type": "uint256"
        },
        {
          "indexed": false,
          "internalType": "uint256",
          "name": "dayCountFractionMantissa",
          "type": "uint256"
        }
      ],
      "name": "TermAuctionBidLockerInitialized",
      "type": "event"
    },
    {
      "anonymous": false,
      "inputs": [
        {
          "indexed": false,
          "internalType": "bytes32",
          "name": "termRepoId",
          "type": "bytes32"
        },
        {
          "indexed": false,
          "internalType": "bytes32",
          "name": "termAuctionId",
          "type": "bytes32"
        },
        {
          "indexed": false,
          "internalType": "address",
          "name": "termAuction",
          "type": "address"
        },
        {
          "indexed": false,
          "internalType": "uint256",
          "name": "auctionEndTime",
          "type": "uint256"
        },
        {
          "indexed": false,
          "internalType": "address",
          "name": "deployerWallet",
          "type": "address"
        },
        {
          "indexed": false,
          "internalType": "string",
          "name": "version",
          "type": "string"
        }
      ],
      "name": "TermAuctionInitialized",
      "type": "event"
    },
    {
      "anonymous": false,
      "inputs": [
        {
          "indexed": false,
          "internalType": "bytes32",
          "name": "termRepoId",
          "type": "bytes32"
        },
        {
          "indexed": false,
          "internalType": "bytes32",
          "name": "termAuctionId",
          "type": "bytes32"
        },
        {
          "indexed": false,
          "internalType": "address",
          "name": "termAuctionOfferLocker",
          "type": "address"
        },
        {
          "indexed": false,
          "internalType": "uint256",
          "name": "auctionStartTime",
          "type": "uint256"
        },
        {
          "indexed": false,
          "internalType": "uint256",
          "name": "revealTime",
          "type": "uint256"
        },
        {
          "indexed": false,
          "internalType": "uint256",
          "name": "maxOfferPrice",
          "type": "uint256"
        },
        {
          "indexed": false,
          "internalType": "uint256",
          "name": "minimumTenderAmount",
          "type": "uint256"
        }
      ],
      "name": "TermAuctionOfferLockerInitialized",
      "type": "event"
    },
    {
      "anonymous": false,
      "inputs": [
        {
          "indexed": false,
          "internalType": "address",
          "name": "proxy",
          "type": "address"
        },
        {
          "indexed": false,
          "internalType": "address",
          "name": "implementation",
          "type": "address"
        }
      ],
      "name": "TermContractUpgraded",
      "type": "event"
    },
    {
      "anonymous": false,
      "inputs": [
        {
          "indexed": false,
          "internalType": "bytes32",
          "name": "termRepoId",
          "type": "bytes32"
        },
        {
          "indexed": false,
          "internalType": "address",
          "name": "termRepoCollateralManager",
          "type": "address"
        },
        {
          "indexed": false,
          "internalType": "address[]",
          "name": "collateralTokens",
          "type": "address[]"
        },
        {
          "indexed": false,
          "internalType": "uint256[]",
          "name": "initialCollateralRatios",
          "type": "uint256[]"
        },
        {
          "indexed": false,
          "internalType": "uint256[]",
          "name": "maintenanceCollateralRatios",
          "type": "uint256[]"
        },
        {
          "indexed": false,
          "internalType": "uint256[]",
          "name": "liquidatedDamagesSchedule",
          "type": "uint256[]"
        }
      ],
      "name": "TermRepoCollateralManagerInitialized",
      "type": "event"
    },
    {
      "anonymous": false,
      "inputs": [
        {
          "indexed": false,
          "internalType": "bytes32",
          "name": "termRepoId",
          "type": "bytes32"
        },
        {
          "indexed": false,
          "internalType": "address",
          "name": "termRepoLocker",
          "type": "address"
        }
      ],
      "name": "TermRepoLockerInitialized",
      "type": "event"
    },
    {
      "anonymous": false,
      "inputs": [
        {
          "indexed": false,
          "internalType": "bytes32",
          "name": "termRepoId",
          "type": "bytes32"
        }
      ],
      "name": "TermRepoLockerTransfersPaused",
      "type": "event"
    },
    {
      "anonymous": false,
      "inputs": [
        {
          "indexed": false,
          "internalType": "bytes32",
          "name": "termRepoId",
          "type": "bytes32"
        }
      ],
      "name": "TermRepoLockerTransfersUnpaused",
      "type": "event"
    },
    {
      "anonymous": false,
      "inputs": [
        {
          "indexed": false,
          "internalType": "bytes32",
          "name": "termRepoId",
          "type": "bytes32"
        },
        {
          "indexed": false,
          "internalType": "address",
          "name": "rolloverManager",
          "type": "address"
        }
      ],
      "name": "TermRepoRolloverManagerInitialized",
      "type": "event"
    },
    {
      "anonymous": false,
      "inputs": [
        {
          "indexed": false,
          "internalType": "bytes32",
          "name": "termRepoId",
          "type": "bytes32"
        },
        {
          "indexed": false,
          "internalType": "address",
          "name": "termRepoServicer",
          "type": "address"
        },
        {
          "indexed": false,
          "internalType": "address",
          "name": "purchaseToken",
          "type": "address"
        },
        {
          "indexed": false,
          "internalType": "uint256",
          "name": "maturityTimestamp",
          "type": "uint256"
        },
        {
          "indexed": false,
          "internalType": "uint256",
          "name": "endOfRepurchaseWindow",
          "type": "uint256"
        },
        {
          "indexed": false,
          "internalType": "uint256",
          "name": "redemptionTimestamp",
          "type": "uint256"
        },
        {
          "indexed": false,
          "internalType": "uint256",
          "name": "servicingFee",
          "type": "uint256"
        },
        {
          "indexed": false,
          "internalType": "address",
          "name": "deployerWallet",
          "type": "address"
        },
        {
          "indexed": false,
          "internalType": "string",
          "name": "version",
          "type": "string"
        }
      ],
      "name": "TermRepoServicerInitialized",
      "type": "event"
    },
    {
      "anonymous": false,
      "inputs": [
        {
          "indexed": false,
          "internalType": "bytes32",
          "name": "termRepoId",
          "type": "bytes32"
        }
      ],
      "name": "TermRepoTokenBurningPaused",
      "type": "event"
    },
    {
      "anonymous": false,
      "inputs": [
        {
          "indexed": false,
          "internalType": "bytes32",
          "name": "termRepoId",
          "type": "bytes32"
        }
      ],
      "name": "TermRepoTokenBurningUnpaused",
      "type": "event"
    },
    {
      "anonymous": false,
      "inputs": [
        {
          "indexed": false,
          "internalType": "bytes32",
          "name": "termRepoId",
          "type": "bytes32"
        },
        {
          "indexed": false,
          "internalType": "address",
          "name": "termRepoToken",
          "type": "address"
        },
        {
          "indexed": false,
          "internalType": "uint256",
          "name": "redemptionRatio",
          "type": "uint256"
        }
      ],
      "name": "TermRepoTokenInitialized",
      "type": "event"
    },
    {
      "anonymous": false,
      "inputs": [
        {
          "indexed": false,
          "internalType": "bytes32",
          "name": "termRepoId",
          "type": "bytes32"
        },
        {
          "indexed": false,
          "internalType": "address",
          "name": "minter",
          "type": "address"
        },
        {
          "indexed": false,
          "internalType": "uint256",
          "name": "netTokensReceived",
          "type": "uint256"
        },
        {
          "indexed": false,
          "internalType": "uint256",
          "name": "servicingFeeTokens",
          "type": "uint256"
        },
        {
          "indexed": false,
          "internalType": "uint256",
          "name": "repurchasePrice",
          "type": "uint256"
        }
      ],
      "name": "TermRepoTokenMint",
      "type": "event"
    },
    {
      "anonymous": false,
      "inputs": [
        {
          "indexed": false,
          "internalType": "bytes32",
          "name": "termRepoId",
          "type": "bytes32"
        }
      ],
      "name": "TermRepoTokenMintingPaused",
      "type": "event"
    },
    {
      "anonymous": false,
      "inputs": [
        {
          "indexed": false,
          "internalType": "bytes32",
          "name": "termRepoId",
          "type": "bytes32"
        }
      ],
      "name": "TermRepoTokenMintingUnpaused",
      "type": "event"
    },
    {
      "anonymous": false,
      "inputs": [
        {
          "indexed": false,
          "internalType": "bytes32",
          "name": "termRepoId",
          "type": "bytes32"
        },
        {
          "indexed": false,
          "internalType": "address",
          "name": "redeemer",
          "type": "address"
        },
        {
          "indexed": false,
          "internalType": "uint256",
          "name": "redemptionAmount",
          "type": "uint256"
        },
        {
          "indexed": false,
          "internalType": "uint256",
          "name": "redemptionHaircut",
          "type": "uint256"
        }
      ],
      "name": "TermRepoTokensRedeemed",
      "type": "event"
    },
    {
      "anonymous": false,
      "inputs": [
        {
          "indexed": true,
          "internalType": "address",
          "name": "implementation",
          "type": "address"
        }
      ],
      "name": "Upgraded",
      "type": "event"
    },
    {
      "inputs": [],
      "name": "ADMIN_ROLE",
      "outputs": [
        {
          "internalType": "bytes32",
          "name": "",
          "type": "bytes32"
        }
      ],
      "stateMutability": "view",
      "type": "function"
    },
    {
      "inputs": [],
      "name": "DEFAULT_ADMIN_ROLE",
      "outputs": [
        {
          "internalType": "bytes32",
          "name": "",
          "type": "bytes32"
        }
      ],
      "stateMutability": "view",
      "type": "function"
    },
    {
      "inputs": [],
      "name": "DEVOPS_ROLE",
      "outputs": [
        {
          "internalType": "bytes32",
          "name": "",
          "type": "bytes32"
        }
      ],
      "stateMutability": "view",
      "type": "function"
    },
    {
      "inputs": [],
      "name": "INITIALIZER_ROLE",
      "outputs": [
        {
          "internalType": "bytes32",
          "name": "",
          "type": "bytes32"
        }
      ],
      "stateMutability": "view",
      "type": "function"
    },
    {
      "inputs": [],
      "name": "TERM_CONTRACT",
      "outputs": [
        {
          "internalType": "bytes32",
          "name": "",
          "type": "bytes32"
        }
      ],
      "stateMutability": "view",
      "type": "function"
    },
    {
      "inputs": [],
      "name": "TERM_DELISTER",
      "outputs": [
        {
          "internalType": "bytes32",
          "name": "",
          "type": "bytes32"
        }
      ],
      "stateMutability": "view",
      "type": "function"
    },
    {
      "inputs": [],
      "name": "UPGRADE_INTERFACE_VERSION",
      "outputs": [
        {
          "internalType": "string",
          "name": "",
          "type": "string"
        }
      ],
      "stateMutability": "view",
      "type": "function"
    },
    {
      "inputs": [
        {
          "internalType": "bytes32",
          "name": "termAuctionId",
          "type": "bytes32"
        },
        {
          "internalType": "bool",
          "name": "nonViableAuction",
          "type": "bool"
        },
        {
          "internalType": "bool",
          "name": "auctionCancelledforWithdrawal",
          "type": "bool"
        }
      ],
      "name": "emitAuctionCancelled",
      "outputs": [],
      "stateMutability": "nonpayable",
      "type": "function"
    },
    {
      "inputs": [
        {
          "internalType": "bytes32",
          "name": "termAuctionId",
          "type": "bytes32"
        },
        {
          "internalType": "uint256",
          "name": "timestamp",
          "type": "uint256"
        },
        {
          "internalType": "uint256",
          "name": "blockNumber",
          "type": "uint256"
        },
        {
          "internalType": "uint256",
          "name": "totalAssignedBids",
          "type": "uint256"
        },
        {
          "internalType": "uint256",
          "name": "totalAssignedOffers",
          "type": "uint256"
        },
        {
          "internalType": "uint256",
          "name": "clearingPrice",
          "type": "uint256"
        }
      ],
      "name": "emitAuctionCompleted",
      "outputs": [],
      "stateMutability": "nonpayable",
      "type": "function"
    },
    {
      "inputs": [
        {
          "internalType": "bytes32",
          "name": "termAuctionId",
          "type": "bytes32"
        },
        {
          "internalType": "bytes32",
          "name": "id",
          "type": "bytes32"
        },
        {
          "internalType": "uint256",
          "name": "amount",
          "type": "uint256"
        }
      ],
      "name": "emitBidAssigned",
      "outputs": [],
      "stateMutability": "nonpayable",
      "type": "function"
    },
    {
      "inputs": [
        {
          "internalType": "bytes32",
          "name": "termRepoId",
          "type": "bytes32"
        },
        {
          "internalType": "address",
          "name": "bidder",
          "type": "address"
        },
        {
          "internalType": "uint256",
          "name": "purchasePrice",
          "type": "uint256"
        },
        {
          "internalType": "uint256",
          "name": "repurchasePrice",
          "type": "uint256"
        },
        {
          "internalType": "uint256",
          "name": "servicingFees",
          "type": "uint256"
        }
      ],
      "name": "emitBidFulfilled",
      "outputs": [],
      "stateMutability": "nonpayable",
      "type": "function"
    },
    {
      "inputs": [
        {
          "internalType": "bytes32",
          "name": "termAuctionId",
          "type": "bytes32"
        },
        {
          "internalType": "bytes32",
          "name": "id",
          "type": "bytes32"
        }
      ],
      "name": "emitBidInShortfall",
      "outputs": [],
      "stateMutability": "nonpayable",
      "type": "function"
    },
    {
      "inputs": [
        {
          "internalType": "bytes32",
          "name": "termAuctionId",
          "type": "bytes32"
        },
        {
          "components": [
            {
              "internalType": "bytes32",
              "name": "id",
              "type": "bytes32"
            },
            {
              "internalType": "address",
              "name": "bidder",
              "type": "address"
            },
            {
              "internalType": "bytes32",
              "name": "bidPriceHash",
              "type": "bytes32"
            },
            {
              "internalType": "uint256",
              "name": "bidPriceRevealed",
              "type": "uint256"
            },
            {
              "internalType": "uint256",
              "name": "amount",
              "type": "uint256"
            },
            {
              "internalType": "uint256[]",
              "name": "collateralAmounts",
              "type": "uint256[]"
            },
            {
              "internalType": "address",
              "name": "purchaseToken",
              "type": "address"
            },
            {
              "internalType": "address[]",
              "name": "collateralTokens",
              "type": "address[]"
            },
            {
              "internalType": "bool",
              "name": "isRollover",
              "type": "bool"
            },
            {
              "internalType": "address",
              "name": "rolloverPairOffTermRepoServicer",
              "type": "address"
            },
            {
              "internalType": "bool",
              "name": "isRevealed",
              "type": "bool"
            }
          ],
          "internalType": "struct TermAuctionBid",
          "name": "bid",
          "type": "tuple"
        },
        {
          "internalType": "address",
          "name": "referralAddress",
          "type": "address"
        }
      ],
      "name": "emitBidLocked",
      "outputs": [],
      "stateMutability": "nonpayable",
      "type": "function"
    },
    {
      "inputs": [
        {
          "internalType": "bytes32",
          "name": "termAuctionId",
          "type": "bytes32"
        },
        {
          "internalType": "bytes32",
          "name": "termRepoId",
          "type": "bytes32"
        }
      ],
      "name": "emitBidLockingPaused",
      "outputs": [],
      "stateMutability": "nonpayable",
      "type": "function"
    },
    {
      "inputs": [
        {
          "internalType": "bytes32",
          "name": "termAuctionId",
          "type": "bytes32"
        },
        {
          "internalType": "bytes32",
          "name": "termRepoId",
          "type": "bytes32"
        }
      ],
      "name": "emitBidLockingUnpaused",
      "outputs": [],
      "stateMutability": "nonpayable",
      "type": "function"
    },
    {
      "inputs": [
        {
          "internalType": "bytes32",
          "name": "termAuctionId",
          "type": "bytes32"
        },
        {
          "internalType": "bytes32",
          "name": "id",
          "type": "bytes32"
        },
        {
          "internalType": "uint256",
          "name": "bidPrice",
          "type": "uint256"
        }
      ],
      "name": "emitBidRevealed",
      "outputs": [],
      "stateMutability": "nonpayable",
      "type": "function"
    },
    {
      "inputs": [
        {
          "internalType": "bytes32",
          "name": "termAuctionId",
          "type": "bytes32"
        },
        {
          "internalType": "bytes32",
          "name": "id",
          "type": "bytes32"
        }
      ],
      "name": "emitBidUnlocked",
      "outputs": [],
      "stateMutability": "nonpayable",
      "type": "function"
    },
    {
      "inputs": [
        {
          "internalType": "bytes32",
          "name": "termAuctionId",
          "type": "bytes32"
        },
        {
          "internalType": "bytes32",
          "name": "termRepoId",
          "type": "bytes32"
        }
      ],
      "name": "emitBidUnlockingPaused",
      "outputs": [],
      "stateMutability": "nonpayable",
      "type": "function"
    },
    {
      "inputs": [
        {
          "internalType": "bytes32",
          "name": "termAuctionId",
          "type": "bytes32"
        },
        {
          "internalType": "bytes32",
          "name": "termRepoId",
          "type": "bytes32"
        }
      ],
      "name": "emitBidUnlockingUnpaused",
      "outputs": [],
      "stateMutability": "nonpayable",
      "type": "function"
    },
    {
      "inputs": [
        {
          "internalType": "bytes32",
          "name": "termRepoId",
          "type": "bytes32"
        },
        {
          "internalType": "address",
          "name": "borrower",
          "type": "address"
        },
        {
          "internalType": "uint256",
          "name": "closeAmount",
          "type": "uint256"
        }
      ],
      "name": "emitBurnCollapseExposure",
      "outputs": [],
      "stateMutability": "nonpayable",
      "type": "function"
    },
    {
      "inputs": [
        {
          "internalType": "bytes32",
          "name": "termRepoId",
          "type": "bytes32"
        },
        {
          "internalType": "address",
          "name": "borrower",
          "type": "address"
        },
        {
          "internalType": "address",
          "name": "collateralToken",
          "type": "address"
        },
        {
          "internalType": "uint256",
          "name": "amount",
          "type": "uint256"
        }
      ],
      "name": "emitCollateralLocked",
      "outputs": [],
      "stateMutability": "nonpayable",
      "type": "function"
    },
    {
      "inputs": [
        {
          "internalType": "bytes32",
          "name": "termRepoId",
          "type": "bytes32"
        },
        {
          "internalType": "address",
          "name": "borrower",
          "type": "address"
        },
        {
          "internalType": "address",
          "name": "collateralToken",
          "type": "address"
        },
        {
          "internalType": "uint256",
          "name": "amount",
          "type": "uint256"
        }
      ],
      "name": "emitCollateralUnlocked",
      "outputs": [],
      "stateMutability": "nonpayable",
      "type": "function"
    },
    {
      "inputs": [
        {
          "internalType": "bytes32",
          "name": "termAuctionId",
          "type": "bytes32"
        },
        {
          "internalType": "bytes32",
          "name": "termRepoId",
          "type": "bytes32"
        }
      ],
      "name": "emitCompleteAuctionPaused",
      "outputs": [],
      "stateMutability": "nonpayable",
      "type": "function"
    },
    {
      "inputs": [
        {
          "internalType": "bytes32",
          "name": "termAuctionId",
          "type": "bytes32"
        },
        {
          "internalType": "bytes32",
          "name": "termRepoId",
          "type": "bytes32"
        }
      ],
      "name": "emitCompleteAuctionUnpaused",
      "outputs": [],
      "stateMutability": "nonpayable",
      "type": "function"
    },
    {
      "inputs": [
        {
          "internalType": "bytes32",
          "name": "termAuctionId",
          "type": "bytes32"
        }
      ],
      "name": "emitDelistTermAuction",
      "outputs": [],
      "stateMutability": "nonpayable",
      "type": "function"
    },
    {
      "inputs": [
        {
          "internalType": "bytes32",
          "name": "termRepoId",
          "type": "bytes32"
        }
      ],
      "name": "emitDelistTermRepo",
      "outputs": [],
      "stateMutability": "nonpayable",
      "type": "function"
    },
    {
      "inputs": [
        {
          "internalType": "bytes32",
          "name": "termRepoId",
          "type": "bytes32"
        },
        {
          "internalType": "address",
          "name": "borrower",
          "type": "address"
        },
        {
          "internalType": "uint256",
          "name": "amountRolled",
          "type": "uint256"
        }
      ],
      "name": "emitExposureClosedOnRolloverExisting",
      "outputs": [],
      "stateMutability": "nonpayable",
      "type": "function"
    },
    {
      "inputs": [
        {
          "internalType": "bytes32",
          "name": "termRepoId",
          "type": "bytes32"
        },
        {
          "internalType": "address",
          "name": "borrower",
          "type": "address"
        },
        {
          "internalType": "uint256",
          "name": "purchasePrice",
          "type": "uint256"
        },
        {
          "internalType": "uint256",
          "name": "repurchasePrice",
          "type": "uint256"
        },
        {
          "internalType": "uint256",
          "name": "servicingFees",
          "type": "uint256"
        }
      ],
      "name": "emitExposureOpenedOnRolloverNew",
      "outputs": [],
      "stateMutability": "nonpayable",
      "type": "function"
    },
    {
      "inputs": [
        {
          "internalType": "bytes32",
          "name": "orderHash",
          "type": "bytes32"
        }
      ],
      "name": "emitIntentCancelled",
      "outputs": [],
      "stateMutability": "nonpayable",
      "type": "function"
    },
    {
      "inputs": [
        {
          "internalType": "bytes32",
          "name": "orderHash",
          "type": "bytes32"
        },
        {
          "internalType": "bytes32",
          "name": "termRepoId",
          "type": "bytes32"
        },
        {
          "internalType": "address",
          "name": "purchaseToken",
          "type": "address"
        },
        {
          "internalType": "address",
          "name": "maker",
          "type": "address"
        },
        {
          "internalType": "address",
          "name": "taker",
          "type": "address"
        },
        {
          "internalType": "address",
          "name": "makerToken",
          "type": "address"
        },
        {
          "internalType": "address",
          "name": "takerToken",
          "type": "address"
        },
        {
          "internalType": "uint256",
          "name": "offerRate",
          "type": "uint256"
        },
        {
          "internalType": "uint256",
          "name": "makerTokenAmountFilled",
          "type": "uint256"
        },
        {
          "internalType": "uint256",
          "name": "takerTokenAmountFilled",
          "type": "uint256"
        },
        {
          "internalType": "uint256",
          "name": "proratedBorrowFee",
          "type": "uint256"
        },
        {
          "internalType": "address",
          "name": "feeRecipient",
          "type": "address"
        },
        {
          "internalType": "uint256",
          "name": "originalOrderAmount",
          "type": "uint256"
        },
        {
          "internalType": "uint256",
          "name": "expiry",
          "type": "uint256"
        },
        {
          "internalType": "uint256",
          "name": "salt",
          "type": "uint256"
        }
      ],
      "name": "emitIntentFilled",
      "outputs": [],
      "stateMutability": "nonpayable",
      "type": "function"
    },
    {
      "inputs": [
        {
          "internalType": "address",
          "name": "maker",
          "type": "address"
        },
        {
          "internalType": "address",
          "name": "makerToken",
          "type": "address"
        },
        {
          "internalType": "address",
          "name": "takerToken",
          "type": "address"
        },
        {
          "internalType": "uint256",
          "name": "minSaltValue",
          "type": "uint256"
        }
      ],
      "name": "emitLimitOrderTokenPairMinSaltValue",
      "outputs": [],
      "stateMutability": "nonpayable",
      "type": "function"
    },
    {
      "inputs": [
        {
          "internalType": "bytes32",
          "name": "termRepoId",
          "type": "bytes32"
        },
        {
          "internalType": "address",
          "name": "borrower",
          "type": "address"
        },
        {
          "internalType": "address",
          "name": "liquidator",
          "type": "address"
        },
        {
          "internalType": "uint256",
          "name": "closureAmount",
          "type": "uint256"
        },
        {
          "internalType": "address",
          "name": "collateralToken",
          "type": "address"
        },
        {
          "internalType": "uint256",
          "name": "amountLiquidated",
          "type": "uint256"
        },
        {
          "internalType": "uint256",
          "name": "protocolSeizureAmount",
          "type": "uint256"
        },
        {
          "internalType": "bool",
          "name": "defaultLiquidation",
          "type": "bool"
        }
      ],
      "name": "emitLiquidation",
      "outputs": [],
      "stateMutability": "nonpayable",
      "type": "function"
    },
    {
      "inputs": [
        {
          "internalType": "bytes32",
          "name": "termRepoId",
          "type": "bytes32"
        }
      ],
      "name": "emitLiquidationPaused",
      "outputs": [],
      "stateMutability": "nonpayable",
      "type": "function"
    },
    {
      "inputs": [
        {
          "internalType": "bytes32",
          "name": "termRepoId",
          "type": "bytes32"
        }
      ],
      "name": "emitLiquidationUnpaused",
      "outputs": [],
      "stateMutability": "nonpayable",
      "type": "function"
    },
    {
      "inputs": [
        {
          "internalType": "bytes32",
          "name": "termRepoId",
          "type": "bytes32"
        },
        {
          "internalType": "address",
          "name": "minter",
          "type": "address"
        },
        {
          "internalType": "uint256",
          "name": "netTokensReceived",
          "type": "uint256"
        },
        {
          "internalType": "uint256",
          "name": "servicingFeeTokens",
          "type": "uint256"
        },
        {
          "internalType": "uint256",
          "name": "repurchasePrice",
          "type": "uint256"
        }
      ],
      "name": "emitMintExposure",
      "outputs": [],
      "stateMutability": "nonpayable",
      "type": "function"
    },
    {
      "inputs": [
        {
          "internalType": "bytes32",
          "name": "termRepoId",
          "type": "bytes32"
        },
        {
          "internalType": "address",
          "name": "authedUser",
          "type": "address"
        }
      ],
      "name": "emitMintExposureAccessGranted",
      "outputs": [],
      "stateMutability": "nonpayable",
      "type": "function"
    },
    {
      "inputs": [
        {
          "internalType": "bytes32",
          "name": "termAuctionId",
          "type": "bytes32"
        },
        {
          "internalType": "bytes32",
          "name": "id",
          "type": "bytes32"
        },
        {
          "internalType": "uint256",
          "name": "amount",
          "type": "uint256"
        }
      ],
      "name": "emitOfferAssigned",
      "outputs": [],
      "stateMutability": "nonpayable",
      "type": "function"
    },
    {
      "inputs": [
        {
          "internalType": "bytes32",
          "name": "offerId",
          "type": "bytes32"
        },
        {
          "internalType": "address",
          "name": "offeror",
          "type": "address"
        },
        {
          "internalType": "uint256",
          "name": "purchasePrice",
          "type": "uint256"
        },
        {
          "internalType": "uint256",
          "name": "repurchasePrice",
          "type": "uint256"
        },
        {
          "internalType": "uint256",
          "name": "repoTokensMinted",
          "type": "uint256"
        }
      ],
      "name": "emitOfferFulfilled",
      "outputs": [],
      "stateMutability": "nonpayable",
      "type": "function"
    },
    {
      "inputs": [
        {
          "internalType": "bytes32",
          "name": "termAuctionId",
          "type": "bytes32"
        },
        {
          "internalType": "bytes32",
          "name": "id",
          "type": "bytes32"
        },
        {
          "internalType": "address",
          "name": "offeror",
          "type": "address"
        },
        {
          "internalType": "bytes32",
          "name": "offerPrice",
          "type": "bytes32"
        },
        {
          "internalType": "uint256",
          "name": "amount",
          "type": "uint256"
        },
        {
          "internalType": "address",
          "name": "purchaseToken",
          "type": "address"
        },
        {
          "internalType": "address",
          "name": "referralAddress",
          "type": "address"
        }
      ],
      "name": "emitOfferLocked",
      "outputs": [],
      "stateMutability": "nonpayable",
      "type": "function"
    },
    {
      "inputs": [
        {
          "internalType": "bytes32",
          "name": "termRepoId",
          "type": "bytes32"
        },
        {
          "internalType": "address",
          "name": "offeror",
          "type": "address"
        },
        {
          "internalType": "uint256",
          "name": "amount",
          "type": "uint256"
        }
      ],
      "name": "emitOfferLockedByServicer",
      "outputs": [],
      "stateMutability": "nonpayable",
      "type": "function"
    },
    {
      "inputs": [
        {
          "internalType": "bytes32",
          "name": "termAuctionId",
          "type": "bytes32"
        },
        {
          "internalType": "bytes32",
          "name": "termRepoId",
          "type": "bytes32"
        }
      ],
      "name": "emitOfferLockingPaused",
      "outputs": [],
      "stateMutability": "nonpayable",
      "type": "function"
    },
    {
      "inputs": [
        {
          "internalType": "bytes32",
          "name": "termAuctionId",
          "type": "bytes32"
        },
        {
          "internalType": "bytes32",
          "name": "termRepoId",
          "type": "bytes32"
        }
      ],
      "name": "emitOfferLockingUnpaused",
      "outputs": [],
      "stateMutability": "nonpayable",
      "type": "function"
    },
    {
      "inputs": [
        {
          "internalType": "bytes32",
          "name": "termAuctionId",
          "type": "bytes32"
        },
        {
          "internalType": "bytes32",
          "name": "id",
          "type": "bytes32"
        },
        {
          "internalType": "uint256",
          "name": "offerPrice",
          "type": "uint256"
        }
      ],
      "name": "emitOfferRevealed",
      "outputs": [],
      "stateMutability": "nonpayable",
      "type": "function"
    },
    {
      "inputs": [
        {
          "internalType": "bytes32",
          "name": "termAuctionId",
          "type": "bytes32"
        },
        {
          "internalType": "bytes32",
          "name": "id",
          "type": "bytes32"
        }
      ],
      "name": "emitOfferUnlocked",
      "outputs": [],
      "stateMutability": "nonpayable",
      "type": "function"
    },
    {
      "inputs": [
        {
          "internalType": "bytes32",
          "name": "termRepoId",
          "type": "bytes32"
        },
        {
          "internalType": "address",
          "name": "offeror",
          "type": "address"
        },
        {
          "internalType": "uint256",
          "name": "amount",
          "type": "uint256"
        }
      ],
      "name": "emitOfferUnlockedByServicer",
      "outputs": [],
      "stateMutability": "nonpayable",
      "type": "function"
    },
    {
      "inputs": [
        {
          "internalType": "bytes32",
          "name": "termAuctionId",
          "type": "bytes32"
        },
        {
          "internalType": "bytes32",
          "name": "termRepoId",
          "type": "bytes32"
        }
      ],
      "name": "emitOfferUnlockingPaused",
      "outputs": [],
      "stateMutability": "nonpayable",
      "type": "function"
    },
    {
      "inputs": [
        {
          "internalType": "bytes32",
          "name": "termAuctionId",
          "type": "bytes32"
        },
        {
          "internalType": "bytes32",
          "name": "termRepoId",
          "type": "bytes32"
        }
      ],
      "name": "emitOfferUnlockingUnpaused",
      "outputs": [],
      "stateMutability": "nonpayable",
      "type": "function"
    },
    {
      "inputs": [
        {
          "internalType": "bytes32",
          "name": "termRepoId",
          "type": "bytes32"
        },
        {
          "internalType": "address",
          "name": "termRepoCollateralManager",
          "type": "address"
        },
        {
          "internalType": "address",
          "name": "termAuctionBidLocker",
          "type": "address"
        }
      ],
      "name": "emitPairReopeningBidLocker",
      "outputs": [],
      "stateMutability": "nonpayable",
      "type": "function"
    },
    {
      "inputs": [
        {
          "internalType": "bytes32",
          "name": "termRepoId",
          "type": "bytes32"
        },
        {
          "internalType": "address",
          "name": "termRepoServicer",
          "type": "address"
        },
        {
          "internalType": "address",
          "name": "termAuctionOfferLocker",
          "type": "address"
        },
        {
          "internalType": "address",
          "name": "termAuction",
          "type": "address"
        }
      ],
      "name": "emitReopeningOfferLockerPaired",
      "outputs": [],
      "stateMutability": "nonpayable",
      "type": "function"
    },
    {
      "inputs": [
        {
          "internalType": "bytes32",
          "name": "orderHash",
          "type": "bytes32"
        },
        {
          "components": [
            {
              "internalType": "address",
              "name": "repoToken",
              "type": "address"
            },
            {
              "internalType": "address",
              "name": "purchaseToken",
              "type": "address"
            },
            {
              "internalType": "address",
              "name": "maker",
              "type": "address"
            },
            {
              "internalType": "address",
              "name": "taker",
              "type": "address"
            },
            {
              "internalType": "address",
              "name": "makerToken",
              "type": "address"
            },
            {
              "internalType": "address",
              "name": "takerToken",
              "type": "address"
            },
            {
              "internalType": "uint256",
              "name": "discountRate",
              "type": "uint256"
            },
            {
              "internalType": "uint256",
              "name": "makerTokenAmountFilled",
              "type": "uint256"
            },
            {
              "internalType": "uint256",
              "name": "takerTokenAmountFilled",
              "type": "uint256"
            },
            {
              "internalType": "uint256",
              "name": "makerFee",
              "type": "uint256"
            },
            {
              "internalType": "uint256",
              "name": "takerFee",
              "type": "uint256"
            },
            {
              "internalType": "address",
              "name": "feeRecipient",
              "type": "address"
            },
            {
              "internalType": "uint256",
              "name": "originalOrderAmount",
              "type": "uint256"
            },
            {
              "internalType": "uint256",
              "name": "expiry",
              "type": "uint256"
            },
            {
              "internalType": "uint256",
              "name": "salt",
              "type": "uint256"
            }
          ],
          "internalType": "struct ITermIntentEvents.RepoTokenSwapData",
          "name": "swapData",
          "type": "tuple"
        }
      ],
      "name": "emitRepoTokenSwapFilled",
      "outputs": [],
      "stateMutability": "nonpayable",
      "type": "function"
    },
    {
      "inputs": [
        {
          "internalType": "bytes32",
          "name": "termRepoId",
          "type": "bytes32"
        },
        {
          "internalType": "address",
          "name": "borrower",
          "type": "address"
        },
        {
          "internalType": "uint256",
          "name": "amount",
          "type": "uint256"
        }
      ],
      "name": "emitRepurchasePaymentSubmitted",
      "outputs": [],
      "stateMutability": "nonpayable",
      "type": "function"
    },
    {
      "inputs": [
        {
          "internalType": "bytes32",
          "name": "termRepoId",
          "type": "bytes32"
        },
        {
          "internalType": "address",
          "name": "borrower",
          "type": "address"
        }
      ],
      "name": "emitRolloverCancellation",
      "outputs": [],
      "stateMutability": "nonpayable",
      "type": "function"
    },
    {
      "inputs": [
        {
          "internalType": "bytes32",
          "name": "termRepoId",
          "type": "bytes32"
        },
        {
          "internalType": "bytes32",
          "name": "rolloverTermRepoId",
          "type": "bytes32"
        },
        {
          "internalType": "address",
          "name": "borrower",
          "type": "address"
        },
        {
          "internalType": "address",
          "name": "rolloverAuction",
          "type": "address"
        },
        {
          "internalType": "uint256",
          "name": "rolloverAmount",
          "type": "uint256"
        },
        {
          "internalType": "bytes32",
          "name": "hashedBidPrice",
          "type": "bytes32"
        }
      ],
      "name": "emitRolloverElection",
      "outputs": [],
      "stateMutability": "nonpayable",
      "type": "function"
    },
    {
      "inputs": [
        {
          "internalType": "bytes32",
          "name": "termRepoId",
          "type": "bytes32"
        },
        {
          "internalType": "address",
          "name": "borrower",
          "type": "address"
        }
      ],
      "name": "emitRolloverProcessed",
      "outputs": [],
      "stateMutability": "nonpayable",
      "type": "function"
    },
    {
      "inputs": [
        {
          "internalType": "bytes32",
          "name": "termRepoId",
          "type": "bytes32"
        },
        {
          "internalType": "bytes32",
          "name": "rolloverTermAuctionId",
          "type": "bytes32"
        }
      ],
      "name": "emitRolloverTermApprovalRevoked",
      "outputs": [],
      "stateMutability": "nonpayable",
      "type": "function"
    },
    {
      "inputs": [
        {
          "internalType": "bytes32",
          "name": "termRepoId",
          "type": "bytes32"
        },
        {
          "internalType": "bytes32",
          "name": "rolloverTermAuctionId",
          "type": "bytes32"
        }
      ],
      "name": "emitRolloverTermApproved",
      "outputs": [],
      "stateMutability": "nonpayable",
      "type": "function"
    },
    {
      "inputs": [
        {
          "internalType": "address",
          "name": "maker",
          "type": "address"
        },
        {
          "internalType": "address",
          "name": "makerToken",
          "type": "address"
        },
        {
          "internalType": "address",
          "name": "takerToken",
          "type": "address"
        },
        {
          "internalType": "uint256",
          "name": "minSaltValue",
          "type": "uint256"
        }
      ],
      "name": "emitSwapOrderTokenPairMinSaltValue",
      "outputs": [],
      "stateMutability": "nonpayable",
      "type": "function"
    },
    {
      "inputs": [
        {
          "internalType": "bytes32",
          "name": "termRepoId",
          "type": "bytes32"
        },
        {
          "internalType": "bytes32",
          "name": "termAuctionId",
          "type": "bytes32"
        },
        {
          "internalType": "address",
          "name": "termAuctionBidLocker",
          "type": "address"
        },
        {
          "internalType": "uint256",
          "name": "auctionStartTime",
          "type": "uint256"
        },
        {
          "internalType": "uint256",
          "name": "revealTime",
          "type": "uint256"
        },
        {
          "internalType": "uint256",
          "name": "maxBidPrice",
          "type": "uint256"
        },
        {
          "internalType": "uint256",
          "name": "minimumTenderAmount",
          "type": "uint256"
        },
        {
          "internalType": "uint256",
          "name": "dayCountFractionMantissa",
          "type": "uint256"
        }
      ],
      "name": "emitTermAuctionBidLockerInitialized",
      "outputs": [],
      "stateMutability": "nonpayable",
      "type": "function"
    },
    {
      "inputs": [
        {
          "internalType": "bytes32",
          "name": "termRepoId",
          "type": "bytes32"
        },
        {
          "internalType": "bytes32",
          "name": "termAuctionId",
          "type": "bytes32"
        },
        {
          "internalType": "address",
          "name": "termAuction",
          "type": "address"
        },
        {
          "internalType": "uint256",
          "name": "auctionEndTime",
          "type": "uint256"
        },
        {
          "internalType": "address",
          "name": "deployerWallet",
          "type": "address"
        },
        {
          "internalType": "string",
          "name": "version",
          "type": "string"
        }
      ],
      "name": "emitTermAuctionInitialized",
      "outputs": [],
      "stateMutability": "nonpayable",
      "type": "function"
    },
    {
      "inputs": [
        {
          "internalType": "bytes32",
          "name": "termRepoId",
          "type": "bytes32"
        },
        {
          "internalType": "bytes32",
          "name": "termAuctionId",
          "type": "bytes32"
        },
        {
          "internalType": "address",
          "name": "termAuctionOfferLocker",
          "type": "address"
        },
        {
          "internalType": "uint256",
          "name": "auctionStartTime",
          "type": "uint256"
        },
        {
          "internalType": "uint256",
          "name": "revealTime",
          "type": "uint256"
        },
        {
          "internalType": "uint256",
          "name": "maxOfferPrice",
          "type": "uint256"
        },
        {
          "internalType": "uint256",
          "name": "minimumTenderAmount",
          "type": "uint256"
        }
      ],
      "name": "emitTermAuctionOfferLockerInitialized",
      "outputs": [],
      "stateMutability": "nonpayable",
      "type": "function"
    },
    {
      "inputs": [
        {
          "internalType": "address",
          "name": "proxy",
          "type": "address"
        },
        {
          "internalType": "address",
          "name": "implementation",
          "type": "address"
        }
      ],
      "name": "emitTermContractUpgraded",
      "outputs": [],
      "stateMutability": "nonpayable",
      "type": "function"
    },
    {
      "inputs": [
        {
          "internalType": "bytes32",
          "name": "termRepoId",
          "type": "bytes32"
        },
        {
          "internalType": "address",
          "name": "termRepoCollateralManager",
          "type": "address"
        },
        {
          "internalType": "address[]",
          "name": "collateralTokens",
          "type": "address[]"
        },
        {
          "internalType": "uint256[]",
          "name": "initialCollateralRatios",
          "type": "uint256[]"
        },
        {
          "internalType": "uint256[]",
          "name": "maintenanceCollateralRatios",
          "type": "uint256[]"
        },
        {
          "internalType": "uint256[]",
          "name": "liquidatedDamagesSchedule",
          "type": "uint256[]"
        }
      ],
      "name": "emitTermRepoCollateralManagerInitialized",
      "outputs": [],
      "stateMutability": "nonpayable",
      "type": "function"
    },
    {
      "inputs": [
        {
          "internalType": "bytes32",
          "name": "termRepoId",
          "type": "bytes32"
        },
        {
          "internalType": "address",
          "name": "termRepoLocker",
          "type": "address"
        }
      ],
      "name": "emitTermRepoLockerInitialized",
      "outputs": [],
      "stateMutability": "nonpayable",
      "type": "function"
    },
    {
      "inputs": [
        {
          "internalType": "bytes32",
          "name": "termRepoId",
          "type": "bytes32"
        }
      ],
      "name": "emitTermRepoLockerTransfersPaused",
      "outputs": [],
      "stateMutability": "nonpayable",
      "type": "function"
    },
    {
      "inputs": [
        {
          "internalType": "bytes32",
          "name": "termRepoId",
          "type": "bytes32"
        }
      ],
      "name": "emitTermRepoLockerTransfersUnpaused",
      "outputs": [],
      "stateMutability": "nonpayable",
      "type": "function"
    },
    {
      "inputs": [
        {
          "internalType": "bytes32",
          "name": "termRepoId",
          "type": "bytes32"
        },
        {
          "internalType": "address",
          "name": "rolloverManager",
          "type": "address"
        }
      ],
      "name": "emitTermRepoRolloverManagerInitialized",
      "outputs": [],
      "stateMutability": "nonpayable",
      "type": "function"
    },
    {
      "inputs": [
        {
          "internalType": "bytes32",
          "name": "termRepoId",
          "type": "bytes32"
        },
        {
          "internalType": "address",
          "name": "termRepoServicer",
          "type": "address"
        },
        {
          "internalType": "address",
          "name": "purchaseToken",
          "type": "address"
        },
        {
          "internalType": "uint256",
          "name": "maturityTimestamp",
          "type": "uint256"
        },
        {
          "internalType": "uint256",
          "name": "endOfRepurchaseWindow",
          "type": "uint256"
        },
        {
          "internalType": "uint256",
          "name": "redemptionTimestamp",
          "type": "uint256"
        },
        {
          "internalType": "uint256",
          "name": "servicingFee",
          "type": "uint256"
        },
        {
          "internalType": "address",
          "name": "deployerWallet",
          "type": "address"
        },
        {
          "internalType": "string",
          "name": "version",
          "type": "string"
        }
      ],
      "name": "emitTermRepoServicerInitialized",
      "outputs": [],
      "stateMutability": "nonpayable",
      "type": "function"
    },
    {
      "inputs": [
        {
          "internalType": "bytes32",
          "name": "termRepoId",
          "type": "bytes32"
        }
      ],
      "name": "emitTermRepoTokenBurningPaused",
      "outputs": [],
      "stateMutability": "nonpayable",
      "type": "function"
    },
    {
      "inputs": [
        {
          "internalType": "bytes32",
          "name": "termRepoId",
          "type": "bytes32"
        }
      ],
      "name": "emitTermRepoTokenBurningUnpaused",
      "outputs": [],
      "stateMutability": "nonpayable",
      "type": "function"
    },
    {
      "inputs": [
        {
          "internalType": "bytes32",
          "name": "termRepoId",
          "type": "bytes32"
        },
        {
          "internalType": "address",
          "name": "termRepoToken",
          "type": "address"
        },
        {
          "internalType": "uint256",
          "name": "redemptionRatio",
          "type": "uint256"
        }
      ],
      "name": "emitTermRepoTokenInitialized",
      "outputs": [],
      "stateMutability": "nonpayable",
      "type": "function"
    },
    {
      "inputs": [
        {
          "internalType": "bytes32",
          "name": "termRepoId",
          "type": "bytes32"
        }
      ],
      "name": "emitTermRepoTokenMintingPaused",
      "outputs": [],
      "stateMutability": "nonpayable",
      "type": "function"
    },
    {
      "inputs": [
        {
          "internalType": "bytes32",
          "name": "termRepoId",
          "type": "bytes32"
        }
      ],
      "name": "emitTermRepoTokenMintingUnpaused",
      "outputs": [],
      "stateMutability": "nonpayable",
      "type": "function"
    },
    {
      "inputs": [
        {
          "internalType": "bytes32",
          "name": "termRepoId",
          "type": "bytes32"
        },
        {
          "internalType": "address",
          "name": "redeemer",
          "type": "address"
        },
        {
          "internalType": "uint256",
          "name": "redemptionAmount",
          "type": "uint256"
        },
        {
          "internalType": "uint256",
          "name": "redemptionHaircut",
          "type": "uint256"
        }
      ],
      "name": "emitTermRepoTokensRedeemed",
      "outputs": [],
      "stateMutability": "nonpayable",
      "type": "function"
    },
    {
      "inputs": [
        {
          "internalType": "bytes32",
          "name": "role",
          "type": "bytes32"
        }
      ],
      "name": "getRoleAdmin",
      "outputs": [
        {
          "internalType": "bytes32",
          "name": "",
          "type": "bytes32"
        }
      ],
      "stateMutability": "view",
      "type": "function"
    },
    {
      "inputs": [
        {
          "internalType": "bytes32",
          "name": "role",
          "type": "bytes32"
        },
        {
          "internalType": "address",
          "name": "account",
          "type": "address"
        }
      ],
      "name": "grantRole",
      "outputs": [],
      "stateMutability": "nonpayable",
      "type": "function"
    },
    {
      "inputs": [
        {
          "internalType": "bytes32",
          "name": "role",
          "type": "bytes32"
        },
        {
          "internalType": "address",
          "name": "account",
          "type": "address"
        }
      ],
      "name": "hasRole",
      "outputs": [
        {
          "internalType": "bool",
          "name": "",
          "type": "bool"
        }
      ],
      "stateMutability": "view",
      "type": "function"
    },
    {
      "inputs": [
        {
          "internalType": "address",
          "name": "devopsWallet_",
          "type": "address"
        },
        {
          "internalType": "address",
          "name": "termDelister_",
          "type": "address"
        },
        {
          "internalType": "address",
          "name": "termInitializer_",
          "type": "address"
        },
        {
          "internalType": "address",
          "name": "adminWallet_",
          "type": "address"
        },
        {
          "internalType": "address",
          "name": "termDiamond_",
          "type": "address"
        }
      ],
      "name": "initialize",
      "outputs": [],
      "stateMutability": "nonpayable",
      "type": "function"
    },
    {
      "inputs": [
        {
          "internalType": "address",
          "name": "termContract",
          "type": "address"
        }
      ],
      "name": "pairTermContract",
      "outputs": [],
      "stateMutability": "nonpayable",
      "type": "function"
    },
    {
      "inputs": [
        {
          "internalType": "address",
          "name": "termFactory",
          "type": "address"
        }
      ],
      "name": "pairTermFactory",
      "outputs": [],
      "stateMutability": "nonpayable",
      "type": "function"
    },
    {
      "inputs": [],
      "name": "proxiableUUID",
      "outputs": [
        {
          "internalType": "bytes32",
          "name": "",
          "type": "bytes32"
        }
      ],
      "stateMutability": "view",
      "type": "function"
    },
    {
      "inputs": [
        {
          "internalType": "bytes32",
          "name": "role",
          "type": "bytes32"
        },
        {
          "internalType": "address",
          "name": "callerConfirmation",
          "type": "address"
        }
      ],
      "name": "renounceRole",
      "outputs": [],
      "stateMutability": "nonpayable",
      "type": "function"
    },
    {
      "inputs": [
        {
          "internalType": "bytes32",
          "name": "role",
          "type": "bytes32"
        },
        {
          "internalType": "address",
          "name": "account",
          "type": "address"
        }
      ],
      "name": "revokeRole",
      "outputs": [],
      "stateMutability": "nonpayable",
      "type": "function"
    },
    {
      "inputs": [
        {
          "internalType": "bytes4",
          "name": "interfaceId",
          "type": "bytes4"
        }
      ],
      "name": "supportsInterface",
      "outputs": [
        {
          "internalType": "bool",
          "name": "",
          "type": "bool"
        }
      ],
      "stateMutability": "view",
      "type": "function"
    },
    {
      "inputs": [
        {
          "internalType": "address",
          "name": "upgradeAddress",
          "type": "address"
        }
      ],
      "name": "upgrade",
      "outputs": [],
      "stateMutability": "view",
      "type": "function"
    },
    {
      "inputs": [
        {
          "internalType": "address",
          "name": "newImplementation",
          "type": "address"
        },
        {
          "internalType": "bytes",
          "name": "data",
          "type": "bytes"
        }
      ],
      "name": "upgradeToAndCall",
      "outputs": [],
      "stateMutability": "payable",
      "type": "function"
    },
    {
      "inputs": [],
      "name": "version",
      "outputs": [
        {
          "internalType": "string",
          "name": "",
          "type": "string"
        }
      ],
      "stateMutability": "view",
      "type": "function"
    }
  ],
  "bytecode": "0x60a080604052346100cd57306080527ff0c57e16840df040f15088dc2f81fe391c3923bec73e23a9662efc9c229c6a009081549060ff8260401c166100be57506001600160401b036002600160401b031982821601610079575b604051612e719081620000d382396080518181816116d801526117aa0152f35b6001600160401b031990911681179091556040519081527fc7f505b2f371ae2175ee4913f4499e1f2633a7b5936321eed1cdaeb6115181d290602090a1388080610059565b63f92ee8a960e01b8152600490fd5b600080fdfe6040608081526004908136101561001557600080fd5b60009160e0908335821c9182630190d5cf146123a957826301ffc9a71461235257826303655a0c1461231f57826303e852b1146122e957826307fec0e3146122b65782630900f010146122905782630954cf031461224f5782630a1d99121461210b5782631459457a14611fa1578263156d919814611ecc578263158b36f614611e96578263201a662514611e6c578263248a9ca314611e3357826327df3d3e14611e0957826329681c0a14611dd3578263299cf96214611d515782632b6cea3114611cc35782632ba20e1614611c8d5782632e7895fb14611c1c5782632f2ff15d14611bf25782632f5d386f14611bbf57826336568abe14611b78578263380d921914611b42578263381b414c14611b015782633a094f3614611ac05782633b8d409b14611a8a5782633f2194cf14611a4a5782634203247e14611a14578263481a750a146119d35782634960a11c146119a05782634b7025f71461196d5782634f1ef2861461172d57826352d1902d146116c257826354fd4d501461167e5782635ba1a5071461164b5782635bbfdfa01461160a5782635bcf235d146115d75782635be4918a146115a15782635ed17df61461156b5782635fdd1487146115385782636c13656914611432578263703d84ab146113ff57826375b238fc146113d557826380c48d131461139457826381100ddc146113615782638435ab741461132e5782638866d130146112ab578263895752dd1461126a57826390b8e0aa1461123757826391d14854146111e2578263935dcfc7146111af5782639c871b311461116f5782639cc487d7146110c15782639d207b1c1461108b578263a098baba1461101d578263a217fddf14611001578263a34bfcd114610fce578263a6cd751c14610ea9578263ad3cb1cc14610e67578263b0b50c2314610ddd578263b29aaf7514610d9c578263b3c2d50b14610d34578263b423ac9d14610ceb578263b90368d614610c3a578263ba0cf0ab14610bdd578263bb452ef814610bb3578263bba53d0514610b7d578263bc16629214610b3c578263c6a0df7b14610afb578263c8a2cfc014610a63578263c8df617914610a19578263cd7b1e8c146109e3578263d3a931601461097b578263d4f417a21461090b578263d547741f146108c2578263e69a5f4714610882578263ee40738814610821578263ee9e68bb146107b2578263ef12167014610740578263efe41d8e1461061a57508163efe6b381146105f1578163f34b603714610571578163f3782f2114610501578163f6b650b1146104c1578163f89c081e14610455575063ff8b11c9146103d857600080fd5b346104515761044b7f21d26d59bcce3d9a4ab2914b73dbef7755fbff3d793d77ed1e7fba2e86bccbbe9161040b36612505565b9295939461041a929192612770565b51958695869192608093969594919660a0840197845260018060a01b03166020840152604083015260608201520152565b0390a180f35b5080fd5b919050346104bd57806003193601126104bd577f6ec6fb7b867fd9cb9916625cfeb8e66768a8b50a824d3b601a0ddfc04836abb29161044b610495612410565b9261049e612770565b5192839235839081526001600160a01b03909116602082015260400190565b8280fd5b919050346104bd57806003193601126104bd577f451f6adec965618047f05ef3b89e7abd6475813f5639d1688a4c495c495ed9ad9161044b610495612410565b919050346104bd5760603660031901126104bd577fdecc7e057c5d85fc83c3b999807c8fa056685e1735fc067b08fa8c0919b1920f91606091610542612410565b61054a6123fa565b610552612770565b8251933584526001600160a01b0391821660208501521690820152a180f35b9050346104bd5760203660031901126104bd5761058c6123df565b91600080516020612dbc83398151915290818552600080516020612d9c83398151915260205280852033865260205260ff8186205416156105d557846105d1856128f5565b5080f35b60449350519163e2517d3f60e01b835233908301526024820152fd5b50503461045157816003193601126104515760209051600080516020612d7c8339815191528152f35b91503461073c576102009182600319360112610734576101e0908160231936011261073857610647612770565b8451923583526001600160a01b03948561065f612410565b1660208501528561066e6123fa565b16908401528461067c612426565b1660608401528461068b61243c565b1660808401528461069a612452565b1660a0840152846106a9612468565b1660c084015260e435908301526101043561010083015261012435610120830152610144356101408301526101643561016083015261018435938416809403610734577f378b658e41acf7dd1988be87ac8e81bc180400057008685d6b99b7282a6ad70e936101808301526101a4356101a08301526101c4356101c08301526101e43590820152a180f35b8480fd5b8580fd5b8380fd5b848285346104bd5760c03660031901126104bd577ff8c0469ff6dafa46c8af119c7b4c548eee7e79d8227654225619faf3b27aedac9160c091610781612770565b8051913582526024356020830152604435908201526064356060820152608435608082015260a43560a0820152a180f35b505050346104515761044b7f9da0324d151318fcc6c77acdcf1d7c2eb0940d0d9396aa9b8e39659bbeb6a9e3916107e836612578565b919492936107f4612770565b51948594859081526001600160a01b03918216602082015291166040820152606081019190915260800190565b509050346104bd5760203660031901126104bd5761083d6123df565b91600080516020612d3c83398151915290818552600080516020612d9c83398151915260205280852033865260205260ff8186205416156105d557846105d185612aab565b848285346104bd57806003193601126104bd577f24c79e47c308328c2edbd271bc595b5b6701b07c9c379de2bfb37e6fcd38ec4f9161044b610495612410565b848285346104bd57806003193601126104bd576105d1913561090660016108e7612410565b93838752600080516020612d9c83398151915260205286200154612836565b612ba6565b848285346104bd5760803660031901126104bd577f252cbbf61f2b29d1bc56ced4c99f9bcf90d810413b98accdfad72919f29352959160809161094c612410565b610954612770565b8151923583526001600160a01b03166020830152604435908201526064356060820152a180f35b505050346104515761044b7f1bd5a752d6a363fa20d52aede3a7129e4420130ef48e76649b7273eb395c8d29916109b13661247e565b909391926109bd612770565b51938493849081526001600160a01b039091166020820152604081019190915260600190565b505050346104515761044b7f5ce65f15ed0be04bce1b60eb829732ce05c7ea17b518aab91557947a785305739161040b36612505565b848285346104bd5760203660031901126104bd577f88013a9d1ee74e877ed421a1ed46fca7675405cac3f7fccb5f7ef46d584ca98191602091610a5a612770565b5190358152a180f35b91503461073c578160031936011261073c577f7ee1b10d692c6b73b6e299d557c9cb99871deec54d5a70280dfcde7bfd32ee3392610a9f6123fa565b610aa7612452565b90610ab0612468565b91610ab9612770565b83519435855260243560208601526001600160a01b03918216938501939093526064356060850152608435608085015291821660a08401521660c0820152a180f35b848285346104bd5760203660031901126104bd577fc08eb64db16a39d2848960af04e3f16fb404d9d436a9f0e9d7d0d4854715c9dc91602091610a5a612770565b848285346104bd5760203660031901126104bd577f1fe837719388bf91face89c0a8097c85fa082c7dc7fd763dd8cb6b574d2250d291602091610a5a6127fe565b505050346104515761044b7f6ef7767f01e84b1180248c767524f6dfcc371911fa17fe326fc7f1f45adf91d7916109b13661247e565b5050503461045157816003193601126104515760209051600080516020612cfc8339815191528152f35b505050346104515761044b7f80e5486d5e04b2703fbae1576de3bd1c3a8f77e6a53d7704be8d2210a6a4e81991610c13366124be565b90939192610c1f612770565b51938493846040919493926060820195825260208201520152565b848285346104bd5760c03660031901126104bd57610c566123fa565b91610c5f61243c565b60a435906001600160401b038211610738577f4153e9e25f590c258dfc66cf5f9996c58ce5eb3b4b8915847be2a74bef38cc7f94610ca361044b93369086016124d8565b919092610cae612770565b8651968796358752602435602088015260018060a01b0380931690870152606435606087015216608085015260c060a085015260c084019161274f565b50505034610451577f58617285cbcb0f5960c448dee13f229bf44cadba510e9349eadf49e78c18c39c90610d1e366124a8565b610d26612770565b82519182526020820152a180f35b505050346104515780600319360112610451577f334dca0f6cb5389b53efbc3f727055ae657a90e47cc8a46d3ecf089f89f9ebc990610d716123df565b610d79612410565b90610d82612770565b82516001600160a01b03918216815291166020820152a180f35b848285346104bd5760203660031901126104bd577f8a6af0ae5a1f9334c9c6123d9a37c773bdd95e2ab697e72683ea7ef479b21a1a91602091610a5a612770565b848285346104bd5760c03660031901126104bd577f78a6e161147110b6357c57aea6938b64a6a1dcd83962b23d9d4d9190770a05009160c091610e1e6123fa565b90610e27612426565b90610e30612770565b80519335845260243560208501526001600160a01b0392831690840152166060820152608435608082015260a43560a0820152a180f35b505050346104515781600319360112610451578051610ea591610e89826125b1565b60058252640352e302e360dc1b60208301525191829182612620565b0390f35b509050346104bd5760c03660031901126104bd57610ec5612410565b916001600160401b0360443581811161073857610ee59036908501612669565b9190606435828111610fca57610efe9036908701612669565b608435848111610fc657610f159036908901612669565b93909460a435908111610fc257610f2f9036908a01612669565b969097610f3a612770565b80519a8b9a358b52600160a01b600190031660208b0152890160c0905260c0890190610f65926126e2565b908782036060890152610f779261272b565b908582036080870152610f899261272b565b9083820360a0850152610f9b9261272b565b037ffb09eb2d7a3a6d2704aa859f50b573cfcb6363d9cc9791d20b0d22c8d52008ba91a180f35b8a80fd5b8980fd5b8780fd5b50505034610451577fd111098c0fa8745cbcae57a08c03062a31f81591ed19f70aed2e701938a331a990610d1e366124a8565b5050503461045157816003193601126104515751908152602090f35b509050346104bd5760603660031901126104bd576024359081151580920361073c57604435801515809103610734577f54ff901f77ead22848ed8d5dae609e337cb267a5b774d34a3f7daf180596745093606093611079612770565b8151933584526020840152820152a180f35b505050346104515761044b7fcfd5fa13e90365bcc17eb90ef47600b4a6ed04057d87c034599a321fc5f0b1e2916109b13661247e565b9291503461073c576101009182600319360112610734576110e0612410565b936110e96123fa565b6110f161243c565b60e4359384151580950361116b577f530fe3fc76341ab8477a985534c803f688f0590f9c91115a2fea617bd40aa0c397611129612770565b8151963587526001600160a01b03908116602088015292831690860152606435606086015216608084015260a43560a084015260c43560c0840152820152a180f35b8880fd5b848285346104bd57806003193601126104bd577fe177334a742058973ac6246b6b9e750df4aa9b547f0a2f447a0ececbf056daed9161044b610495612410565b50505034610451577faec44ae25a1c32d3f76be6d66556a2635bd60bd7aea309a9b13b4d61be2212c490610d1e366124a8565b509050346104bd57816003193601126104bd578160209360ff92611204612410565b90358252600080516020612d9c83398151915286528282206001600160a01b039091168252855220549151911615158152f35b50505034610451577f72537d0556d5c431a7afa30288434308cbe9d709fdef10fb9712c48687f3d17190610d1e366124a8565b848285346104bd5760203660031901126104bd577f5eb87a0197fe36cc187c06ce9cf9cebe521d3a9da4915b8bfae50a6cd37c2e8091602091610a5a6127fe565b91503461073c578160031936011261073c577f7af3beb7a58ba96a83c822c247144dfdddca4af697243bbc2f9245d733eb82cb926112e76123fa565b6112ef612770565b81519235835260243560208401526001600160a01b0316908201526064356060820152608435608082015260a43560a082015260c43560c0820152a180f35b50505034610451577ff5c431abbfeb6cd8af5d67ad8864ba52b285633aaebfb34cd7422c528a83c7ae90610d1e366124a8565b50505034610451577f1d904d6f9ecc7452486ebb6d1f63189675e54680bba46562d0da74b43f8df25590610d1e366124a8565b848285346104bd5760203660031901126104bd577f218ce7e5b70471b08b6d774245b7a4a9c288c83ff6ab02c8509342f7dc06176991602091610a5a612770565b5050503461045157816003193601126104515760209051600080516020612dbc8339815191528152f35b50505034610451577fe2bc8291b28ccad777530d8ac7440bc8f29735ce807af17b821da0b94f26711a90610d1e366124a8565b9291503461073c576101e09182600319360112610734576114516123fa565b9361145a612426565b61146261243c565b9061146b612452565b90611474612468565b91610164359560018060a01b0394858816809803611534578580948193827f05730d196c6710dd9b8bf649fc2a188ab3ee183a4ff432d7ee7a3879180671f19e6114bc612770565b82519d358e5260243560208f015216908c01521660608a01521660808801521660a08601521660c084015260e43590830152610104356101008301526101243561012083015261014435610140830152610160820152610184356101808201526101a4356101a08201526101c4356101c0820152a180f35b8b80fd5b50505034610451577f715523b92a5abc36945ae38ab2cca4d265a7ce1aa7c9a0fd9747f42bdf255ace90610d1e366124a8565b505050346104515761044b7fb3ebd87d3fef97d92fc82e0b1996ba45402216ffa8ea85137ec66a4609c4b26391610c13366124be565b505050346104515761044b7fbe428a2d4f6cb996fe8767325ef30410284d3a3a09a000865e83e4eece645dd3916109b13661247e565b50505034610451577fa53133b07bde3a47cff8a1004bc1acc5b3884f6a1e45c4ccdeb8b92a854184ce90610d1e366124a8565b848285346104bd5760203660031901126104bd577fb749ced905d6fe87d115e2c48c3efbcb13d77fc3654441d4a81de4f8ceee275b91602091610a5a612770565b50505034610451577f573a70eeec6e07fd422e155c2b92f7012a06ee46176b108c31c6826b44d571cd90610d1e366124a8565b505050346104515781600319360112610451578051610ea5916116a0826125b1565b600b82526a19195d995b1bdc1b595b9d60aa1b60208301525191829182612620565b5082843461172a578060031936011261172a57507f00000000000000000000000000000000000000000000000000000000000000006001600160a01b0316300361171d5760209051600080516020612d5c8339815191528152f35b5163703e46dd60e11b8152fd5b80fd5b848285806003193601126104bd576117436123df565b60249390919084356001600160401b0381116104515736602382011215610451578085013561177181612605565b9461177e855196876125e2565b81865260209182870193368a8383010111610738578186928b8693018737880101526001600160a01b037f00000000000000000000000000000000000000000000000000000000000000008116308114908115611951575b50611941576117e36127c6565b81169585516352d1902d60e01b815283818a818b5afa86918161190e575b5061181d575050505050505191634c9c8ce360e01b8352820152fd5b9088888894938c600080516020612d5c833981519152918281036118f95750853b156118e5575080546001600160a01b031916821790558451889392917fbc7cd75a20ee27fd9adebab32041f755214dbc6bffa90cc0225b39da2e5c2d3b8580a28251156118c75750506105d19582915190845af4913d156118bd573d6118af6118a682612605565b925192836125e2565b81528581943d92013e612c58565b5060609250612c58565b9550955050505050346118d957505080f35b63b398979f60e01b8152fd5b8651634c9c8ce360e01b8152808501849052fd5b8751632a87526960e21b815280860191909152fd5b9091508481813d831161193a575b61192681836125e2565b810103126119365751908b611801565b8680fd5b503d61191c565b855163703e46dd60e11b81528890fd5b905081600080516020612d5c833981519152541614158a6117d6565b50505034610451577f79e34f33671ed8d059f04598f89966a956fdc152fc587848dc23e16787cfb6c590610d1e366124a8565b50505034610451577fd7fecb56a08ad38ae5050da0d957b9fad736a03eb2fc16f605f832eaed23bc3590610d1e366124a8565b848285346104bd5760203660031901126104bd577f5b5fca86b3aee96d14a273715d01b8759e3bc66349f5162e8c8b290a1c9e560691602091610a5a612770565b505050346104515761044b7f669ba1268a0b43cb1577502790d554a58aea74a069eb86abc2d7a2ea5a0253019161040b36612505565b848285346104bd57806003193601126104bd577f9133b24d5dd7d39c3dbf216edd3325fdad90de393009cb40695019a1169867b29161044b610495612410565b505050346104515761044b7f15197825651b2af3101ed0faa9b517b01be26768ea57de5d2a33178674353b33916107e836612578565b848285346104bd5760203660031901126104bd577f4fa944cad6a7c488a0451c093ab988043012d5d8f1a7319652b5e726a946682e91602091610a5a612770565b848285346104bd5760203660031901126104bd577f923868d7d67f7de679976c289ba367c773803b9d055907f61804f053c316b54e91602091610a5a612770565b505050346104515761044b7fdbb9c48771d5b1b07fe22034bfce432480b5498d451749ec45c7bff00b912a90916109b13661247e565b50838334610451578060031936011261045157611b93612410565b90336001600160a01b03831603611bb057506105d1919235612ba6565b5163334bd91960e11b81528390fd5b50505034610451577f38162ca5c14060f2fd4515bbfa2bc37f177e9bf99f3f27e01300242defb85e1990610d1e366124a8565b848285346104bd57806003193601126104bd576105d19135611c1760016108e7612410565b612b31565b505050346104515761044b7f99dfb0b033c2cf229265af7ddc4c29738df2206a3fd200c6890057ecc07f8f5591611c5236612537565b91949293611c5e612770565b516001600160a01b03948516815294841660208601529092166040840152606083019190915281906080820190565b505050346104515761044b7f21cb9269778ea9b9ccd375a1cdcd3e7c3ade6cbffb4747e282098145a030812f91610c13366124be565b91503461073c576101009182600319360112610734577f8ddb74faeea51390b27e370bb28d4bebe2f4cda8c2f37a9845c7075a6f0d069d93611d036123fa565b611d0b612770565b81519335845260243560208501526001600160a01b0316908301526064356060830152608435608083015260a43560a083015260c43560c083015260e43590820152a180f35b848285346104bd5760803660031901126104bd577ff0b4613c883862708448c163df972e9b692d08d3601fc3f3c560cbbdbf8909cd91608091611d92612410565b611d9a6123fa565b91611da3612426565b91611dac612770565b8151943585526001600160a01b03908116602086015292831690840152166060820152a180f35b505050346104515761044b7f495ce0883e917b224c89400c895e2feb8ecb9f1bebb0b60c2c22539b3a9ee26591611c5236612537565b5050503461045157816003193601126104515760209051600080516020612d3c8339815191528152f35b509050346104bd5760203660031901126104bd5781602093600192358152600080516020612d9c83398151915285522001549051908152f35b5050503461045157816003193601126104515760209051600080516020612cdc8339815191528152f35b505050346104515761044b7ffb2632db0db153ba9642ae80923335783475d580e6b190459c74d027a67c26839161040b36612505565b91503461073c57610120918260031936011261073457611eea612410565b92611ef36123fa565b906001600160a01b039060e4358281169081900361116b5761010435946001600160401b038611610fc6577f94a5353838653deeb5669dd9459eadcac781c1298522a8812c8f0a01210a444498611f5061044b9736908a016124d8565b959096611f5b612770565b8183519b8c9b358c521660208b015216908801526064356060880152608435608088015260a43560a088015260c43560c08801528601528061010086015284019161274f565b509050346104bd5760a03660031901126104bd57611fbd6123df565b90611fc6612410565b611fce6123fa565b90611fd7612426565b90611fe061243c565b92600080516020612dfc83398151915295865460ff818a1c16159660018060401b03821680159081612103575b60011490816120f9575b1590816120f0575b506120e257506001600160401b031981166001178855612082959461207c9490936120769391926120709261206a918b6120c7575b5061205d612c29565b612065612c29565b612869565b506128f5565b5061298d565b50612a13565b50612aab565b5061208b578280f35b805460ff60401b1916905551600181527fc7f505b2f371ae2175ee4913f4499e1f2633a7b5936321eed1cdaeb6115181d290602090a138808280f35b6001600160481b0319166001600160401b01178c5538612054565b895163f92ee8a960e01b8152fd5b9050153861201f565b303b159150612017565b89915061200d565b909291503461073c576003199060603683011261073457602435906001600160401b0382116107385781850193610160809484360301126119365761214e6123fa565b91612157612770565b61216360248501612699565b9461217060c48601612699565b9161217e60e48701896126ad565b9061218c60a489018b6126ad565b9290946101048a01359a8b1515809c0361224b576121ad6101248c01612699565b9789519e8f9e8f913582523590602001528d600160a01b600190039c8d9b8c80951690830152604481013560608301526084013590608001521660a08d01528060c08d01528b01906121fe926126e2565b91898303908a015261220f9261272b565b946101008701521661012085015216610140830152037f883435c56acd8a7f195790129e33085f436925ef33028c425097430c41c9a76391a180f35b8e80fd5b848285346104bd5760203660031901126104bd577f42bdbb8a5a892e5e9ce48f4e8d72e84ac4e66d9d9c398a2b42b441eeba8f6c5391602091610a5a612770565b843461172a57602036600319011261172a576122aa6123df565b506122b36127c6565b80f35b50505034610451577fb9380957f9b8c08e51071c89308a6037c2c026d44d132fd21ffc6d33ccf937ad90610d1e366124a8565b505050346104515761044b7f550c99f14e2d6b02b095f180d3d23f4c2af030ba6ba708ca4f0902e774a11ce691610c13366124be565b50505034610451577f4cb372669f2973ed367a6eabc152fa74bb70238701ea34d2b4aeda8e3069f5bf90610d1e366124a8565b509050346104bd5760203660031901126104bd57359063ffffffff60e01b82168092036104bd5760209250637965db0b60e01b8214918215612398575b50519015158152f35b6301ffc9a760e01b1491503861238f565b505050346104515761044b7f18356b4e84c1a7757d8a4d3eb4b02291287fc5dea2643c2dbd10a83b6640138d916109b13661247e565b600435906001600160a01b03821682036123f557565b600080fd5b604435906001600160a01b03821682036123f557565b602435906001600160a01b03821682036123f557565b606435906001600160a01b03821682036123f557565b608435906001600160a01b03821682036123f557565b60a435906001600160a01b03821682036123f557565b60c435906001600160a01b03821682036123f557565b60609060031901126123f557600435906024356001600160a01b03811681036123f5579060443590565b60409060031901126123f5576004359060243590565b60609060031901126123f557600435906024359060443590565b9181601f840112156123f5578235916001600160401b0383116123f557602083818601950101116123f557565b60a09060031901126123f557600435906024356001600160a01b03811681036123f55790604435906064359060843590565b60809060031901126123f5576001600160a01b0360043581811681036123f5579160243582811681036123f5579160443590811681036123f5579060643590565b60809060031901126123f557600435906001600160a01b039060243582811681036123f5579160443590811681036123f5579060643590565b604081019081106001600160401b038211176125cc57604052565b634e487b7160e01b600052604160045260246000fd5b601f909101601f19168101906001600160401b038211908210176125cc57604052565b6001600160401b0381116125cc57601f01601f191660200190565b6020808252825181830181905290939260005b82811061265557505060409293506000838284010152601f8019910116010190565b818101860151848201604001528501612633565b9181601f840112156123f5578235916001600160401b0383116123f5576020808501948460051b0101116123f557565b356001600160a01b03811681036123f55790565b903590601e19813603018212156123f557018035906001600160401b0382116123f557602001918160051b360383136123f557565b9190808252602080920192916000805b83821061270157505050505090565b9091929394853560018060a01b0381168091036104bd5781528301948301939291600101906126f2565b81835290916001600160fb1b0383116123f55760209260051b809284830137010190565b908060209392818452848401376000828201840152601f01601f1916010190565b336000908152600080516020612e1c8339815191526020526040902054600080516020612d7c8339815191529060ff16156127a85750565b6044906040519063e2517d3f60e01b82523360048301526024820152fd5b336000908152600080516020612ddc8339815191526020526040902054600080516020612cdc8339815191529060ff16156127a85750565b336000908152600080516020612d1c8339815191526020526040902054600080516020612cfc8339815191529060ff16156127a85750565b80600052600080516020612d9c83398151915260205260406000203360005260205260ff60406000205416156127a85750565b6001600160a01b03166000818152600080516020612ddc8339815191526020526040812054909190600080516020612cdc83398151915290600080516020612d9c8339815191529060ff166128ef578184526020526040832082845260205260408320600160ff19825416179055600080516020612cbc833981519152339380a4600190565b50505090565b6001600160a01b031660008181527f44fa5399874b75da801cb431822b6afcadb876f84eb39d7f05bf697e94b4484e6020526040812054909190600080516020612d3c83398151915290600080516020612d9c8339815191529060ff166128ef578184526020526040832082845260205260408320600160ff19825416179055600080516020612cbc833981519152339380a4600190565b6001600160a01b03166000818152600080516020612d1c8339815191526020526040812054909190600080516020612cfc83398151915290600080516020612d9c8339815191529060ff166128ef578184526020526040832082845260205260408320600160ff19825416179055600080516020612cbc833981519152339380a4600190565b6001600160a01b031660008181527fb16e88c42fd4e48df2dd6a2eabd6bc9aec654ec170056b470819f8892cc6431c6020526040812054909190600080516020612dbc83398151915290600080516020612d9c8339815191529060ff166128ef578184526020526040832082845260205260408320600160ff19825416179055600080516020612cbc833981519152339380a4600190565b6001600160a01b03166000818152600080516020612e1c8339815191526020526040812054909190600080516020612d7c83398151915290600080516020612d9c8339815191529060ff166128ef578184526020526040832082845260205260408320600160ff19825416179055600080516020612cbc833981519152339380a4600190565b90600091808352600080516020612d9c83398151915280602052604084209260018060a01b03169283855260205260ff604085205416156000146128ef578184526020526040832082845260205260408320600160ff19825416179055600080516020612cbc833981519152339380a4600190565b90600091808352600080516020612d9c83398151915280602052604084209260018060a01b03169283855260205260ff6040852054166000146128ef57818452602052604083208284526020526040832060ff1981541690557ff6391f5c32d9c69d2a47ea670b442974b53935d1edc7fd64eb21e047a839171b339380a4600190565b60ff600080516020612dfc8339815191525460401c1615612c4657565b604051631afcd79f60e31b8152600490fd5b90612c7f5750805115612c6d57805190602001fd5b60405163d6bda27560e01b8152600490fd5b81511580612cb2575b612c90575090565b604051639996b31560e01b81526001600160a01b039091166004820152602490fd5b50803b15612c8856fe2f8788117e7eff1d82e926ec794901d17c78024a50270940304540a733656f0d793a6c9b7e0a9549c74edc2f9ae0dc50903dfaa9a56fb0116b27a8c71de3e2c6992b7de0144989096133dd485c7c23b149cc4ea0152d8a6481d467e12f7fc71f0cf72709f02e20175ff6632e5025823b4d1d88e5b61f6d31d82d827e4f1aa27d30d41a597cac127d8249d31298b50e481ee82c3f4a49ff93c76a22735aa9f3ad360894a13ba1a3210667c828492db98dca3e2076cc3735a920a3ca505d382bbcd826f92d418c5d20475612da193d2053b8323c543561622a20bce855d857e32102dd7bc7dec4dceedda775e58dd541e08a116c6c53815c0bd028192f7b626800a49807205ce4d355092ef5a8a18f56e8913cf4a201fbe287825b095693c217750cfb002fcf8644f87ebf6cf6e31899c8d8e9f7c329b465b6e36989a958507e8bf0c57e16840df040f15088dc2f81fe391c3923bec73e23a9662efc9c229c6a0018ab5dfb58dc24d67b567317a86536fb6ebc33614b42245714026297f9c01243a2646970667358221220064d73ebf645ebe05ba37fc110c57a5baf1a6eb7281153f02536d6496ed7e1b264736f6c63430008160033",
  "linkReferences": {},
  "deployedLinkReferences": {}
}