{
  "_format": "hh-sol-artifact-1",
  "contractName": "TermRepoLocker",
  "sourceName": "contracts/TermRepoLocker.sol",
  "abi": [
    {
      "inputs": [],
      "stateMutability": "nonpayable",
      "type": "constructor"
    },
    {
      "inputs": [],
      "name": "AlreadyTermContractPaired",
      "type": "error"
    },
    {
      "inputs": [],
      "name": "ERC20TransferFailed",
      "type": "error"
    },
    {
      "inputs": [],
      "name": "TermRepoLockerTransfersPaused",
      "type": "error"
    },
    {
      "anonymous": false,
      "inputs": [
        {
          "indexed": false,
          "internalType": "address",
          "name": "previousAdmin",
          "type": "address"
        },
        {
          "indexed": false,
          "internalType": "address",
          "name": "newAdmin",
          "type": "address"
        }
      ],
      "name": "AdminChanged",
      "type": "event"
    },
    {
      "anonymous": false,
      "inputs": [
        {
          "indexed": true,
          "internalType": "address",
          "name": "beacon",
          "type": "address"
        }
      ],
      "name": "BeaconUpgraded",
      "type": "event"
    },
    {
      "anonymous": false,
      "inputs": [
        {
          "indexed": false,
          "internalType": "uint8",
          "name": "version",
          "type": "uint8"
        }
      ],
      "name": "Initialized",
      "type": "event"
    },
    {
      "anonymous": false,
      "inputs": [
        {
          "indexed": true,
          "internalType": "bytes32",
          "name": "role",
          "type": "bytes32"
        },
        {
          "indexed": true,
          "internalType": "bytes32",
          "name": "previousAdminRole",
          "type": "bytes32"
        },
        {
          "indexed": true,
          "internalType": "bytes32",
          "name": "newAdminRole",
          "type": "bytes32"
        }
      ],
      "name": "RoleAdminChanged",
      "type": "event"
    },
    {
      "anonymous": false,
      "inputs": [
        {
          "indexed": true,
          "internalType": "bytes32",
          "name": "role",
          "type": "bytes32"
        },
        {
          "indexed": true,
          "internalType": "address",
          "name": "account",
          "type": "address"
        },
        {
          "indexed": true,
          "internalType": "address",
          "name": "sender",
          "type": "address"
        }
      ],
      "name": "RoleGranted",
      "type": "event"
    },
    {
      "anonymous": false,
      "inputs": [
        {
          "indexed": true,
          "internalType": "bytes32",
          "name": "role",
          "type": "bytes32"
        },
        {
          "indexed": true,
          "internalType": "address",
          "name": "account",
          "type": "address"
        },
        {
          "indexed": true,
          "internalType": "address",
          "name": "sender",
          "type": "address"
        }
      ],
      "name": "RoleRevoked",
      "type": "event"
    },
    {
      "anonymous": false,
      "inputs": [
        {
          "indexed": true,
          "internalType": "address",
          "name": "implementation",
          "type": "address"
        }
      ],
      "name": "Upgraded",
      "type": "event"
    },
    {
      "inputs": [],
      "name": "ADMIN_ROLE",
      "outputs": [
        {
          "internalType": "bytes32",
          "name": "",
          "type": "bytes32"
        }
      ],
      "stateMutability": "view",
      "type": "function"
    },
    {
      "inputs": [],
      "name": "DEFAULT_ADMIN_ROLE",
      "outputs": [
        {
          "internalType": "bytes32",
          "name": "",
          "type": "bytes32"
        }
      ],
      "stateMutability": "view",
      "type": "function"
    },
    {
      "inputs": [],
      "name": "DEVOPS_ROLE",
      "outputs": [
        {
          "internalType": "bytes32",
          "name": "",
          "type": "bytes32"
        }
      ],
      "stateMutability": "view",
      "type": "function"
    },
    {
      "inputs": [],
      "name": "INITIALIZER_ROLE",
      "outputs": [
        {
          "internalType": "bytes32",
          "name": "",
          "type": "bytes32"
        }
      ],
      "stateMutability": "view",
      "type": "function"
    },
    {
      "inputs": [],
      "name": "SERVICER_ROLE",
      "outputs": [
        {
          "internalType": "bytes32",
          "name": "",
          "type": "bytes32"
        }
      ],
      "stateMutability": "view",
      "type": "function"
    },
    {
      "inputs": [
        {
          "internalType": "bytes32",
          "name": "role",
          "type": "bytes32"
        }
      ],
      "name": "getRoleAdmin",
      "outputs": [
        {
          "internalType": "bytes32",
          "name": "",
          "type": "bytes32"
        }
      ],
      "stateMutability": "view",
      "type": "function"
    },
    {
      "inputs": [
        {
          "internalType": "bytes32",
          "name": "role",
          "type": "bytes32"
        },
        {
          "internalType": "address",
          "name": "account",
          "type": "address"
        }
      ],
      "name": "grantRole",
      "outputs": [],
      "stateMutability": "nonpayable",
      "type": "function"
    },
    {
      "inputs": [
        {
          "internalType": "bytes32",
          "name": "role",
          "type": "bytes32"
        },
        {
          "internalType": "address",
          "name": "account",
          "type": "address"
        }
      ],
      "name": "hasRole",
      "outputs": [
        {
          "internalType": "bool",
          "name": "",
          "type": "bool"
        }
      ],
      "stateMutability": "view",
      "type": "function"
    },
    {
      "inputs": [
        {
          "internalType": "string",
          "name": "termRepoId_",
          "type": "string"
        },
        {
          "internalType": "address",
          "name": "termInitializer_",
          "type": "address"
        }
      ],
      "name": "initialize",
      "outputs": [],
      "stateMutability": "nonpayable",
      "type": "function"
    },
    {
      "inputs": [
        {
          "internalType": "address",
          "name": "termRepoCollateralManager_",
          "type": "address"
        },
        {
          "internalType": "address",
          "name": "termRepoServicer_",
          "type": "address"
        },
        {
          "internalType": "contract ITermEventEmitter",
          "name": "emitter_",
          "type": "address"
        },
        {
          "internalType": "address",
          "name": "devopsMultisig_",
          "type": "address"
        },
        {
          "internalType": "address",
          "name": "adminWallet_",
          "type": "address"
        }
      ],
      "name": "pairTermContracts",
      "outputs": [],
      "stateMutability": "nonpayable",
      "type": "function"
    },
    {
      "inputs": [],
      "name": "pauseTransfers",
      "outputs": [],
      "stateMutability": "nonpayable",
      "type": "function"
    },
    {
      "inputs": [],
      "name": "proxiableUUID",
      "outputs": [
        {
          "internalType": "bytes32",
          "name": "",
          "type": "bytes32"
        }
      ],
      "stateMutability": "view",
      "type": "function"
    },
    {
      "inputs": [
        {
          "internalType": "bytes32",
          "name": "role",
          "type": "bytes32"
        },
        {
          "internalType": "address",
          "name": "account",
          "type": "address"
        }
      ],
      "name": "renounceRole",
      "outputs": [],
      "stateMutability": "nonpayable",
      "type": "function"
    },
    {
      "inputs": [
        {
          "internalType": "bytes32",
          "name": "role",
          "type": "bytes32"
        },
        {
          "internalType": "address",
          "name": "account",
          "type": "address"
        }
      ],
      "name": "revokeRole",
      "outputs": [],
      "stateMutability": "nonpayable",
      "type": "function"
    },
    {
      "inputs": [
        {
          "internalType": "bytes4",
          "name": "interfaceId",
          "type": "bytes4"
        }
      ],
      "name": "supportsInterface",
      "outputs": [
        {
          "internalType": "bool",
          "name": "",
          "type": "bool"
        }
      ],
      "stateMutability": "view",
      "type": "function"
    },
    {
      "inputs": [],
      "name": "termRepoId",
      "outputs": [
        {
          "internalType": "bytes32",
          "name": "",
          "type": "bytes32"
        }
      ],
      "stateMutability": "view",
      "type": "function"
    },
    {
      "inputs": [
        {
          "internalType": "address",
          "name": "originWallet",
          "type": "address"
        },
        {
          "internalType": "address",
          "name": "token",
          "type": "address"
        },
        {
          "internalType": "uint256",
          "name": "amount",
          "type": "uint256"
        }
      ],
      "name": "transferTokenFromWallet",
      "outputs": [],
      "stateMutability": "nonpayable",
      "type": "function"
    },
    {
      "inputs": [
        {
          "internalType": "address",
          "name": "destinationWallet",
          "type": "address"
        },
        {
          "internalType": "address",
          "name": "token",
          "type": "address"
        },
        {
          "internalType": "uint256",
          "name": "amount",
          "type": "uint256"
        }
      ],
      "name": "transferTokenToWallet",
      "outputs": [],
      "stateMutability": "nonpayable",
      "type": "function"
    },
    {
      "inputs": [],
      "name": "transfersPaused",
      "outputs": [
        {
          "internalType": "bool",
          "name": "",
          "type": "bool"
        }
      ],
      "stateMutability": "view",
      "type": "function"
    },
    {
      "inputs": [],
      "name": "unpauseTransfers",
      "outputs": [],
      "stateMutability": "nonpayable",
      "type": "function"
    },
    {
      "inputs": [
        {
          "internalType": "address",
          "name": "newImplementation",
          "type": "address"
        }
      ],
      "name": "upgradeTo",
      "outputs": [],
      "stateMutability": "nonpayable",
      "type": "function"
    },
    {
      "inputs": [
        {
          "internalType": "address",
          "name": "newImplementation",
          "type": "address"
        },
        {
          "internalType": "bytes",
          "name": "data",
          "type": "bytes"
        }
      ],
      "name": "upgradeToAndCall",
      "outputs": [],
      "stateMutability": "payable",
      "type": "function"
    },
    {
      "inputs": [],
      "name": "version",
      "outputs": [
        {
          "internalType": "string",
          "name": "",
          "type": "string"
        }
      ],
      "stateMutability": "view",
      "type": "function"
    }
  ],
  "bytecode": "0x60a06040523060805234801561001457600080fd5b5061001d610022565b6100e1565b600054610100900460ff161561008e5760405162461bcd60e51b815260206004820152602760248201527f496e697469616c697a61626c653a20636f6e747261637420697320696e697469604482015266616c697a696e6760c81b606482015260840160405180910390fd5b60005460ff908116146100df576000805460ff191660ff9081179091556040519081527f7f26b83ff96e1f2b6a682f133852f6798a09c465da95921460cefb38474024989060200160405180910390a15b565b608051611bbe610118600039600081816105ab015281816105eb015281816106fd0152818161073d01526107b50152611bbe6000f3fe6080604052600436106101205760003560e01c806347af9957116100a657806347af9957146102ba5780634f1ef286146102cf57806352d1902d146102e257806354fd4d50146102f757806375b238fc146103315780637910b464146103535780637ab4339d146103735780638936a91f1461039357806391d14854146103a8578063a217fddf146103c8578063cc5b6e4a146103dd578063d547741f146103f357600080fd5b806301ffc9a71461012557806309a016081461015a578063127ca9441461018a578063201a6625146101ac578063213919f2146101ce578063248a9ca3146101ee57806327df3d3e1461021e5780632f2ff15d1461024057806336568abe146102605780633659cfe6146102805780634563f30a146102a0575b600080fd5b34801561013157600080fd5b506101456101403660046115db565b610413565b60405190151581526020015b60405180910390f35b34801561016657600080fd5b5061017c600080516020611ac283398151915281565b604051908152602001610151565b34801561019657600080fd5b506101aa6101a536600461161a565b61044a565b005b3480156101b857600080fd5b5061017c600080516020611ae283398151915281565b3480156101da57600080fd5b506101aa6101e936600461161a565b6104a3565b3480156101fa57600080fd5b5061017c61020936600461165b565b600090815260c9602052604090206001015490565b34801561022a57600080fd5b5061017c600080516020611b0283398151915281565b34801561024c57600080fd5b506101aa61025b366004611674565b6104f4565b34801561026c57600080fd5b506101aa61027b366004611674565b61051e565b34801561028c57600080fd5b506101aa61029b3660046116a4565b6105a1565b3480156102ac57600080fd5b5060fc546101459060ff1681565b3480156102c657600080fd5b506101aa610669565b6101aa6102dd3660046116d7565b6106f3565b3480156102ee57600080fd5b5061017c6107a8565b34801561030357600080fd5b50604080518082018252600b81526a19195d995b1bdc1b595b9d60aa1b6020820152905161015191906117bf565b34801561033d57600080fd5b5061017c600080516020611b6983398151915281565b34801561035f57600080fd5b506101aa61036e3660046117f2565b610856565b34801561037f57600080fd5b506101aa61038e366004611863565b610993565b34801561039f57600080fd5b506101aa610b06565b3480156103b457600080fd5b506101456103c3366004611674565b610b61565b3480156103d457600080fd5b5061017c600081565b3480156103e957600080fd5b5061017c60fb5481565b3480156103ff57600080fd5b506101aa61040e366004611674565b610b8c565b60006001600160e01b03198216637965db0b60e01b148061044457506301ffc9a760e01b6001600160e01b03198316145b92915050565b60fc5460ff161561046e5760405163b16749ef60e01b815260040160405180910390fd5b600080516020611ac283398151915261048681610bb1565b8261049c6001600160a01b038216863086610bbb565b5050505050565b60fc5460ff16156104c75760405163b16749ef60e01b815260040160405180910390fd5b600080516020611ac28339815191526104df81610bb1565b8261049c6001600160a01b0382168685610c26565b600082815260c9602052604090206001015461050f81610bb1565b6105198383610c56565b505050565b6001600160a01b03811633146105935760405162461bcd60e51b815260206004820152602f60248201527f416363657373436f6e74726f6c3a2063616e206f6e6c792072656e6f756e636560448201526e103937b632b9903337b91039b2b63360891b60648201526084015b60405180910390fd5b61059d8282610cdc565b5050565b6001600160a01b037f00000000000000000000000000000000000000000000000000000000000000001630036105e95760405162461bcd60e51b815260040161058a906118e6565b7f00000000000000000000000000000000000000000000000000000000000000006001600160a01b031661061b610d43565b6001600160a01b0316146106415760405162461bcd60e51b815260040161058a90611932565b61064a81610d5f565b6040805160008082526020820190925261066691839190610de7565b50565b600080516020611b6983398151915261068181610bb1565b60fc8054600160ff19909116179081905560fb546040516380c48d1360e01b81526004810191909152620100009091046001600160a01b0316906380c48d13906024015b600060405180830381600087803b1580156106df57600080fd5b505af115801561049c573d6000803e3d6000fd5b6001600160a01b037f000000000000000000000000000000000000000000000000000000000000000016300361073b5760405162461bcd60e51b815260040161058a906118e6565b7f00000000000000000000000000000000000000000000000000000000000000006001600160a01b031661076d610d43565b6001600160a01b0316146107935760405162461bcd60e51b815260040161058a90611932565b61079c82610d5f565b61059d82826001610de7565b6000306001600160a01b037f000000000000000000000000000000000000000000000000000000000000000016146108435760405162461bcd60e51b815260206004820152603860248201527f555550535570677261646561626c653a206d757374206e6f742062652063616c6044820152771b1959081d1a1c9bdd59da0819195b1959d85d1958d85b1b60421b606482015260840161058a565b50600080516020611b2283398151915290565b600080516020611b0283398151915261086e81610bb1565b60fc54610100900460ff161561089757604051634ce377bb60e11b815260040160405180910390fd5b60fc80546001600160a01b0386166201000002610100600160b01b0319909116176101001790556108d6600080516020611ac283398151915287610c56565b6108ee600080516020611ac283398151915286610c56565b610906600080516020611ae283398151915284610c56565b61091e600080516020611b6983398151915283610c56565b60fc5460fb54604051639c871b3160e01b81526004810191909152306024820152620100009091046001600160a01b031690639c871b3190604401600060405180830381600087803b15801561097357600080fd5b505af1158015610987573d6000803e3d6000fd5b50505050505050505050565b600054610100900460ff16158080156109b35750600054600160ff909116105b806109d457506109c230610f52565b1580156109d4575060005460ff166001145b610a375760405162461bcd60e51b815260206004820152602e60248201527f496e697469616c697a61626c653a20636f6e747261637420697320616c72656160448201526d191e481a5b9a5d1a585b1a5e995960921b606482015260840161058a565b6000805460ff191660011790558015610a5a576000805461ff0019166101001790555b610a62610f61565b610a6a610f61565b8383604051602001610a7d92919061197e565b60408051601f19818403018152919052805160209091012060fb5560fc805460ff19169055610aba600080516020611b0283398151915283610c56565b8015610b00576000805461ff0019169055604051600181527f7f26b83ff96e1f2b6a682f133852f6798a09c465da95921460cefb38474024989060200160405180910390a15b50505050565b600080516020611b69833981519152610b1e81610bb1565b60fc805460ff19169081905560fb5460405163240d3a8560e11b81526004810191909152620100009091046001600160a01b03169063481a750a906024016106c5565b600091825260c9602090815260408084206001600160a01b0393909316845291905290205460ff1690565b600082815260c96020526040902060010154610ba781610bb1565b6105198383610cdc565b6106668133610fce565b6040516001600160a01b0380851660248301528316604482015260648101829052610b009085906323b872dd60e01b906084015b60408051601f198184030181529190526020810180516001600160e01b03166001600160e01b031990931692909217909152611027565b6040516001600160a01b03831660248201526044810182905261051990849063a9059cbb60e01b90606401610bef565b610c608282610b61565b61059d57600082815260c9602090815260408083206001600160a01b03851684529091529020805460ff19166001179055610c983390565b6001600160a01b0316816001600160a01b0316837f2f8788117e7eff1d82e926ec794901d17c78024a50270940304540a733656f0d60405160405180910390a45050565b610ce68282610b61565b1561059d57600082815260c9602090815260408083206001600160a01b0385168085529252808320805460ff1916905551339285917ff6391f5c32d9c69d2a47ea670b442974b53935d1edc7fd64eb21e047a839171b9190a45050565b600080516020611b22833981519152546001600160a01b031690565b600080516020611ae2833981519152610d7781610bb1565b60fc5460405163b3c2d50b60e01b81523060048201526001600160a01b038481166024830152620100009092049091169063b3c2d50b90604401600060405180830381600087803b158015610dcb57600080fd5b505af1158015610ddf573d6000803e3d6000fd5b505050505050565b7f4910fdfa16fed3260ed0e7147f7cc6da11a60208b5b9406d12a635614ffd91435460ff1615610e1a57610519836110fc565b826001600160a01b03166352d1902d6040518163ffffffff1660e01b8152600401602060405180830381865afa925050508015610e74575060408051601f3d908101601f19168201909252610e719181019061198e565b60015b610ed75760405162461bcd60e51b815260206004820152602e60248201527f45524331393637557067726164653a206e657720696d706c656d656e7461746960448201526d6f6e206973206e6f74205555505360901b606482015260840161058a565b600080516020611b228339815191528114610f465760405162461bcd60e51b815260206004820152602960248201527f45524331393637557067726164653a20756e737570706f727465642070726f786044820152681a58589b195555525160ba1b606482015260840161058a565b50610519838383611196565b6001600160a01b03163b151590565b600054610100900460ff16610fcc5760405162461bcd60e51b815260206004820152602b60248201527f496e697469616c697a61626c653a20636f6e7472616374206973206e6f74206960448201526a6e697469616c697a696e6760a81b606482015260840161058a565b565b610fd88282610b61565b61059d57610fe5816111bb565b610ff08360206111cd565b6040516020016110019291906119a7565b60408051601f198184030181529082905262461bcd60e51b825261058a916004016117bf565b600061107c826040518060400160405280602081526020017f5361666545524332303a206c6f772d6c6576656c2063616c6c206661696c6564815250856001600160a01b03166113709092919063ffffffff16565b905080516000148061109d57508080602001905181019061109d9190611a16565b6105195760405162461bcd60e51b815260206004820152602a60248201527f5361666545524332303a204552433230206f7065726174696f6e20646964206e6044820152691bdd081cdd58d8d9595960b21b606482015260840161058a565b61110581610f52565b6111675760405162461bcd60e51b815260206004820152602d60248201527f455243313936373a206e657720696d706c656d656e746174696f6e206973206e60448201526c1bdd08184818dbdb9d1c9858dd609a1b606482015260840161058a565b600080516020611b2283398151915280546001600160a01b0319166001600160a01b0392909216919091179055565b61119f83611387565b6000825111806111ac5750805b1561051957610b0083836113c7565b60606104446001600160a01b03831660145b606060006111dc836002611a4e565b6111e7906002611a65565b67ffffffffffffffff8111156111ff576111ff6116c1565b6040519080825280601f01601f191660200182016040528015611229576020820181803683370190505b509050600360fc1b8160008151811061124457611244611a78565b60200101906001600160f81b031916908160001a905350600f60fb1b8160018151811061127357611273611a78565b60200101906001600160f81b031916908160001a9053506000611297846002611a4e565b6112a2906001611a65565b90505b600181111561131a576f181899199a1a9b1b9c1cb0b131b232b360811b85600f16601081106112d6576112d6611a78565b1a60f81b8282815181106112ec576112ec611a78565b60200101906001600160f81b031916908160001a90535060049490941c9361131381611a8e565b90506112a5565b5083156113695760405162461bcd60e51b815260206004820181905260248201527f537472696e67733a20686578206c656e67746820696e73756666696369656e74604482015260640161058a565b9392505050565b606061137f84846000856113ec565b949350505050565b611390816110fc565b6040516001600160a01b038216907fbc7cd75a20ee27fd9adebab32041f755214dbc6bffa90cc0225b39da2e5c2d3b90600090a250565b60606113698383604051806060016040528060278152602001611b42602791396114c7565b60608247101561144d5760405162461bcd60e51b815260206004820152602660248201527f416464726573733a20696e73756666696369656e742062616c616e636520666f6044820152651c8818d85b1b60d21b606482015260840161058a565b600080866001600160a01b031685876040516114699190611aa5565b60006040518083038185875af1925050503d80600081146114a6576040519150601f19603f3d011682016040523d82523d6000602084013e6114ab565b606091505b50915091506114bc8783838761153f565b979650505050505050565b6060600080856001600160a01b0316856040516114e49190611aa5565b600060405180830381855af49150503d806000811461151f576040519150601f19603f3d011682016040523d82523d6000602084013e611524565b606091505b50915091506115358683838761153f565b9695505050505050565b606083156115ac5782516000036115a55761155985610f52565b6115a55760405162461bcd60e51b815260206004820152601d60248201527f416464726573733a2063616c6c20746f206e6f6e2d636f6e7472616374000000604482015260640161058a565b508161137f565b61137f83838151156115c15781518083602001fd5b8060405162461bcd60e51b815260040161058a91906117bf565b6000602082840312156115ed57600080fd5b81356001600160e01b03198116811461136957600080fd5b6001600160a01b038116811461066657600080fd5b60008060006060848603121561162f57600080fd5b833561163a81611605565b9250602084013561164a81611605565b929592945050506040919091013590565b60006020828403121561166d57600080fd5b5035919050565b6000806040838503121561168757600080fd5b82359150602083013561169981611605565b809150509250929050565b6000602082840312156116b657600080fd5b813561136981611605565b634e487b7160e01b600052604160045260246000fd5b600080604083850312156116ea57600080fd5b82356116f581611605565b9150602083013567ffffffffffffffff8082111561171257600080fd5b818501915085601f83011261172657600080fd5b813581811115611738576117386116c1565b604051601f8201601f19908116603f01168101908382118183101715611760576117606116c1565b8160405282815288602084870101111561177957600080fd5b8260208601602083013760006020848301015280955050505050509250929050565b60005b838110156117b657818101518382015260200161179e565b50506000910152565b60208152600082518060208401526117de81604085016020870161179b565b601f01601f19169190910160400192915050565b600080600080600060a0868803121561180a57600080fd5b853561181581611605565b9450602086013561182581611605565b9350604086013561183581611605565b9250606086013561184581611605565b9150608086013561185581611605565b809150509295509295909350565b60008060006040848603121561187857600080fd5b833567ffffffffffffffff8082111561189057600080fd5b818601915086601f8301126118a457600080fd5b8135818111156118b357600080fd5b8760208285010111156118c557600080fd5b602092830195509350508401356118db81611605565b809150509250925092565b6020808252602c908201527f46756e6374696f6e206d7573742062652063616c6c6564207468726f7567682060408201526b19195b1959d85d1958d85b1b60a21b606082015260800190565b6020808252602c908201527f46756e6374696f6e206d7573742062652063616c6c6564207468726f7567682060408201526b6163746976652070726f787960a01b606082015260800190565b8183823760009101908152919050565b6000602082840312156119a057600080fd5b5051919050565b76020b1b1b2b9b9a1b7b73a3937b61d1030b1b1b7bab73a1604d1b8152600083516119d981601785016020880161179b565b7001034b99036b4b9b9b4b733903937b6329607d1b6017918401918201528351611a0a81602884016020880161179b565b01602801949350505050565b600060208284031215611a2857600080fd5b8151801515811461136957600080fd5b634e487b7160e01b600052601160045260246000fd5b808202811582820484141761044457610444611a38565b8082018082111561044457610444611a38565b634e487b7160e01b600052603260045260246000fd5b600081611a9d57611a9d611a38565b506000190190565b60008251611ab781846020870161179b565b919091019291505056fe250b76734a070a69c7b3930477dd35007ad9c9d0952e97903fdafb2db6980537793a6c9b7e0a9549c74edc2f9ae0dc50903dfaa9a56fb0116b27a8c71de3e2c630d41a597cac127d8249d31298b50e481ee82c3f4a49ff93c76a22735aa9f3ad360894a13ba1a3210667c828492db98dca3e2076cc3735a920a3ca505d382bbc416464726573733a206c6f772d6c6576656c2064656c65676174652063616c6c206661696c6564a49807205ce4d355092ef5a8a18f56e8913cf4a201fbe287825b095693c21775a2646970667358221220d459dde2dc0636acafa675fe1a038a106c6e3f7fee4942c194a5495961695a0064736f6c63430008120033",
  "linkReferences": {},
  "deployedLinkReferences": {}
}