{
  "_format": "hh-sol-artifact-1",
  "contractName": "TermRepoLocker",
  "sourceName": "contracts/TermRepoLocker.sol",
  "abi": [
    {
      "inputs": [],
      "stateMutability": "nonpayable",
      "type": "constructor"
    },
    {
      "inputs": [],
      "name": "ERC20TransferFailed",
      "type": "error"
    },
    {
      "inputs": [],
      "name": "TermRepoLockerTransfersPaused",
      "type": "error"
    },
    {
      "anonymous": false,
      "inputs": [
        {
          "indexed": false,
          "internalType": "address",
          "name": "previousAdmin",
          "type": "address"
        },
        {
          "indexed": false,
          "internalType": "address",
          "name": "newAdmin",
          "type": "address"
        }
      ],
      "name": "AdminChanged",
      "type": "event"
    },
    {
      "anonymous": false,
      "inputs": [
        {
          "indexed": true,
          "internalType": "address",
          "name": "beacon",
          "type": "address"
        }
      ],
      "name": "BeaconUpgraded",
      "type": "event"
    },
    {
      "anonymous": false,
      "inputs": [
        {
          "indexed": false,
          "internalType": "uint8",
          "name": "version",
          "type": "uint8"
        }
      ],
      "name": "Initialized",
      "type": "event"
    },
    {
      "anonymous": false,
      "inputs": [
        {
          "indexed": true,
          "internalType": "bytes32",
          "name": "role",
          "type": "bytes32"
        },
        {
          "indexed": true,
          "internalType": "bytes32",
          "name": "previousAdminRole",
          "type": "bytes32"
        },
        {
          "indexed": true,
          "internalType": "bytes32",
          "name": "newAdminRole",
          "type": "bytes32"
        }
      ],
      "name": "RoleAdminChanged",
      "type": "event"
    },
    {
      "anonymous": false,
      "inputs": [
        {
          "indexed": true,
          "internalType": "bytes32",
          "name": "role",
          "type": "bytes32"
        },
        {
          "indexed": true,
          "internalType": "address",
          "name": "account",
          "type": "address"
        },
        {
          "indexed": true,
          "internalType": "address",
          "name": "sender",
          "type": "address"
        }
      ],
      "name": "RoleGranted",
      "type": "event"
    },
    {
      "anonymous": false,
      "inputs": [
        {
          "indexed": true,
          "internalType": "bytes32",
          "name": "role",
          "type": "bytes32"
        },
        {
          "indexed": true,
          "internalType": "address",
          "name": "account",
          "type": "address"
        },
        {
          "indexed": true,
          "internalType": "address",
          "name": "sender",
          "type": "address"
        }
      ],
      "name": "RoleRevoked",
      "type": "event"
    },
    {
      "anonymous": false,
      "inputs": [
        {
          "indexed": true,
          "internalType": "address",
          "name": "implementation",
          "type": "address"
        }
      ],
      "name": "Upgraded",
      "type": "event"
    },
    {
      "inputs": [],
      "name": "DEFAULT_ADMIN_ROLE",
      "outputs": [
        {
          "internalType": "bytes32",
          "name": "",
          "type": "bytes32"
        }
      ],
      "stateMutability": "view",
      "type": "function"
    },
    {
      "inputs": [],
      "name": "DEVOPS_ROLE",
      "outputs": [
        {
          "internalType": "bytes32",
          "name": "",
          "type": "bytes32"
        }
      ],
      "stateMutability": "view",
      "type": "function"
    },
    {
      "inputs": [],
      "name": "INITIALIZER_ROLE",
      "outputs": [
        {
          "internalType": "bytes32",
          "name": "",
          "type": "bytes32"
        }
      ],
      "stateMutability": "view",
      "type": "function"
    },
    {
      "inputs": [],
      "name": "SERVICER_ROLE",
      "outputs": [
        {
          "internalType": "bytes32",
          "name": "",
          "type": "bytes32"
        }
      ],
      "stateMutability": "view",
      "type": "function"
    },
    {
      "inputs": [
        {
          "internalType": "bytes32",
          "name": "role",
          "type": "bytes32"
        }
      ],
      "name": "getRoleAdmin",
      "outputs": [
        {
          "internalType": "bytes32",
          "name": "",
          "type": "bytes32"
        }
      ],
      "stateMutability": "view",
      "type": "function"
    },
    {
      "inputs": [
        {
          "internalType": "bytes32",
          "name": "role",
          "type": "bytes32"
        },
        {
          "internalType": "address",
          "name": "account",
          "type": "address"
        }
      ],
      "name": "grantRole",
      "outputs": [],
      "stateMutability": "nonpayable",
      "type": "function"
    },
    {
      "inputs": [
        {
          "internalType": "bytes32",
          "name": "role",
          "type": "bytes32"
        },
        {
          "internalType": "address",
          "name": "account",
          "type": "address"
        }
      ],
      "name": "hasRole",
      "outputs": [
        {
          "internalType": "bool",
          "name": "",
          "type": "bool"
        }
      ],
      "stateMutability": "view",
      "type": "function"
    },
    {
      "inputs": [
        {
          "internalType": "string",
          "name": "termRepoId_",
          "type": "string"
        },
        {
          "internalType": "address",
          "name": "termInitializer_",
          "type": "address"
        }
      ],
      "name": "initialize",
      "outputs": [],
      "stateMutability": "nonpayable",
      "type": "function"
    },
    {
      "inputs": [
        {
          "internalType": "address",
          "name": "termRepoCollateralManager_",
          "type": "address"
        },
        {
          "internalType": "address",
          "name": "termRepoServicer_",
          "type": "address"
        },
        {
          "internalType": "contract ITermEventEmitter",
          "name": "emitter_",
          "type": "address"
        },
        {
          "internalType": "address",
          "name": "devopsMultisig_",
          "type": "address"
        }
      ],
      "name": "pairTermContracts",
      "outputs": [],
      "stateMutability": "nonpayable",
      "type": "function"
    },
    {
      "inputs": [],
      "name": "pauseTransfers",
      "outputs": [],
      "stateMutability": "nonpayable",
      "type": "function"
    },
    {
      "inputs": [],
      "name": "proxiableUUID",
      "outputs": [
        {
          "internalType": "bytes32",
          "name": "",
          "type": "bytes32"
        }
      ],
      "stateMutability": "view",
      "type": "function"
    },
    {
      "inputs": [
        {
          "internalType": "bytes32",
          "name": "role",
          "type": "bytes32"
        },
        {
          "internalType": "address",
          "name": "account",
          "type": "address"
        }
      ],
      "name": "renounceRole",
      "outputs": [],
      "stateMutability": "nonpayable",
      "type": "function"
    },
    {
      "inputs": [
        {
          "internalType": "bytes32",
          "name": "role",
          "type": "bytes32"
        },
        {
          "internalType": "address",
          "name": "account",
          "type": "address"
        }
      ],
      "name": "revokeRole",
      "outputs": [],
      "stateMutability": "nonpayable",
      "type": "function"
    },
    {
      "inputs": [
        {
          "internalType": "bytes4",
          "name": "interfaceId",
          "type": "bytes4"
        }
      ],
      "name": "supportsInterface",
      "outputs": [
        {
          "internalType": "bool",
          "name": "",
          "type": "bool"
        }
      ],
      "stateMutability": "view",
      "type": "function"
    },
    {
      "inputs": [],
      "name": "termRepoId",
      "outputs": [
        {
          "internalType": "bytes32",
          "name": "",
          "type": "bytes32"
        }
      ],
      "stateMutability": "view",
      "type": "function"
    },
    {
      "inputs": [
        {
          "internalType": "address",
          "name": "originWallet",
          "type": "address"
        },
        {
          "internalType": "address",
          "name": "token",
          "type": "address"
        },
        {
          "internalType": "uint256",
          "name": "amount",
          "type": "uint256"
        }
      ],
      "name": "transferTokenFromWallet",
      "outputs": [],
      "stateMutability": "nonpayable",
      "type": "function"
    },
    {
      "inputs": [
        {
          "internalType": "address",
          "name": "destinationWallet",
          "type": "address"
        },
        {
          "internalType": "address",
          "name": "token",
          "type": "address"
        },
        {
          "internalType": "uint256",
          "name": "amount",
          "type": "uint256"
        }
      ],
      "name": "transferTokenToWallet",
      "outputs": [],
      "stateMutability": "nonpayable",
      "type": "function"
    },
    {
      "inputs": [],
      "name": "transfersPaused",
      "outputs": [
        {
          "internalType": "bool",
          "name": "",
          "type": "bool"
        }
      ],
      "stateMutability": "view",
      "type": "function"
    },
    {
      "inputs": [],
      "name": "unpauseTransfers",
      "outputs": [],
      "stateMutability": "nonpayable",
      "type": "function"
    },
    {
      "inputs": [
        {
          "internalType": "address",
          "name": "newImplementation",
          "type": "address"
        }
      ],
      "name": "upgradeTo",
      "outputs": [],
      "stateMutability": "nonpayable",
      "type": "function"
    },
    {
      "inputs": [
        {
          "internalType": "address",
          "name": "newImplementation",
          "type": "address"
        },
        {
          "internalType": "bytes",
          "name": "data",
          "type": "bytes"
        }
      ],
      "name": "upgradeToAndCall",
      "outputs": [],
      "stateMutability": "payable",
      "type": "function"
    },
    {
      "inputs": [],
      "name": "version",
      "outputs": [
        {
          "internalType": "string",
          "name": "",
          "type": "string"
        }
      ],
      "stateMutability": "view",
      "type": "function"
    }
  ],
  "bytecode": "0x60a06040523060805234801561001457600080fd5b5061001d610022565b6100e1565b600054610100900460ff161561008e5760405162461bcd60e51b815260206004820152602760248201527f496e697469616c697a61626c653a20636f6e747261637420697320696e697469604482015266616c697a696e6760c81b606482015260840160405180910390fd5b60005460ff908116146100df576000805460ff191660ff9081179091556040519081527f7f26b83ff96e1f2b6a682f133852f6798a09c465da95921460cefb38474024989060200160405180910390a15b565b608051611b0f6101186000396000818161057e015281816105be015281816106cf0152818161070f01526107870152611b0f6000f3fe6080604052600436106101155760003560e01c806347af99571161009b57806347af9957146102af5780634f1ef286146102c457806352d1902d146102d757806354fd4d50146102ec5780637ab4339d146103265780638936a91f1461034657806391d148541461035b578063a217fddf1461037b578063a8f421c214610390578063cc5b6e4a146103b0578063d547741f146103c657600080fd5b806301ffc9a71461011a57806309a016081461014f578063127ca9441461017f578063201a6625146101a1578063213919f2146101c3578063248a9ca3146101e357806327df3d3e146102135780632f2ff15d1461023557806336568abe146102555780633659cfe6146102755780634563f30a14610295575b600080fd5b34801561012657600080fd5b5061013a610135366004611561565b6103e6565b60405190151581526020015b60405180910390f35b34801561015b57600080fd5b50610171600080516020611a3383398151915281565b604051908152602001610146565b34801561018b57600080fd5b5061019f61019a3660046115a0565b61041d565b005b3480156101ad57600080fd5b50610171600080516020611a5383398151915281565b3480156101cf57600080fd5b5061019f6101de3660046115a0565b610476565b3480156101ef57600080fd5b506101716101fe3660046115e1565b600090815260c9602052604090206001015490565b34801561021f57600080fd5b50610171600080516020611a7383398151915281565b34801561024157600080fd5b5061019f6102503660046115fa565b6104c7565b34801561026157600080fd5b5061019f6102703660046115fa565b6104f1565b34801561028157600080fd5b5061019f61029036600461162a565b610574565b3480156102a157600080fd5b5060fc5461013a9060ff1681565b3480156102bb57600080fd5b5061019f61063c565b61019f6102d236600461165d565b6106c5565b3480156102e357600080fd5b5061017161077a565b3480156102f857600080fd5b50604080518082018252600b81526a19195d995b1bdc1b595b9d60aa1b602082015290516101469190611745565b34801561033257600080fd5b5061019f610341366004611778565b610828565b34801561035257600080fd5b5061019f61099b565b34801561036757600080fd5b5061013a6103763660046115fa565b6109f5565b34801561038757600080fd5b50610171600081565b34801561039c57600080fd5b5061019f6103ab3660046117fb565b610a20565b3480156103bc57600080fd5b5061017160fb5481565b3480156103d257600080fd5b5061019f6103e13660046115fa565b610b13565b60006001600160e01b03198216637965db0b60e01b148061041757506301ffc9a760e01b6001600160e01b03198316145b92915050565b60fc5460ff16156104415760405163b16749ef60e01b815260040160405180910390fd5b600080516020611a3383398151915261045981610b38565b8261046f6001600160a01b038216863086610b42565b5050505050565b60fc5460ff161561049a5760405163b16749ef60e01b815260040160405180910390fd5b600080516020611a338339815191526104b281610b38565b8261046f6001600160a01b0382168685610bad565b600082815260c960205260409020600101546104e281610b38565b6104ec8383610bdd565b505050565b6001600160a01b03811633146105665760405162461bcd60e51b815260206004820152602f60248201527f416363657373436f6e74726f6c3a2063616e206f6e6c792072656e6f756e636560448201526e103937b632b9903337b91039b2b63360891b60648201526084015b60405180910390fd5b6105708282610c63565b5050565b6001600160a01b037f00000000000000000000000000000000000000000000000000000000000000001630036105bc5760405162461bcd60e51b815260040161055d90611857565b7f00000000000000000000000000000000000000000000000000000000000000006001600160a01b03166105ee610cca565b6001600160a01b0316146106145760405162461bcd60e51b815260040161055d906118a3565b61061d81610ce6565b6040805160008082526020820190925261063991839190610d6d565b50565b600080516020611a5383398151915261065481610b38565b60fc8054600160ff19909116179081905560fb546040516380c48d1360e01b815260048101919091526101009091046001600160a01b0316906380c48d13906024015b600060405180830381600087803b1580156106b157600080fd5b505af115801561046f573d6000803e3d6000fd5b6001600160a01b037f000000000000000000000000000000000000000000000000000000000000000016300361070d5760405162461bcd60e51b815260040161055d90611857565b7f00000000000000000000000000000000000000000000000000000000000000006001600160a01b031661073f610cca565b6001600160a01b0316146107655760405162461bcd60e51b815260040161055d906118a3565b61076e82610ce6565b61057082826001610d6d565b6000306001600160a01b037f000000000000000000000000000000000000000000000000000000000000000016146108155760405162461bcd60e51b815260206004820152603860248201527f555550535570677261646561626c653a206d757374206e6f742062652063616c6044820152771b1959081d1a1c9bdd59da0819195b1959d85d1958d85b1b60421b606482015260840161055d565b50600080516020611a9383398151915290565b600054610100900460ff16158080156108485750600054600160ff909116105b80610869575061085730610ed8565b158015610869575060005460ff166001145b6108cc5760405162461bcd60e51b815260206004820152602e60248201527f496e697469616c697a61626c653a20636f6e747261637420697320616c72656160448201526d191e481a5b9a5d1a585b1a5e995960921b606482015260840161055d565b6000805460ff1916600117905580156108ef576000805461ff0019166101001790555b6108f7610ee7565b6108ff610ee7565b83836040516020016109129291906118ef565b60408051601f19818403018152919052805160209091012060fb5560fc805460ff1916905561094f600080516020611a7383398151915283610bdd565b8015610995576000805461ff0019169055604051600181527f7f26b83ff96e1f2b6a682f133852f6798a09c465da95921460cefb38474024989060200160405180910390a15b50505050565b600080516020611a538339815191526109b381610b38565b60fc805460ff19169081905560fb5460405163240d3a8560e11b815260048101919091526101009091046001600160a01b03169063481a750a90602401610697565b600091825260c9602090815260408084206001600160a01b0393909316845291905290205460ff1690565b600080516020611a73833981519152610a3881610b38565b60fc8054610100600160a81b0319166101006001600160a01b03861602179055610a70600080516020611a3383398151915286610bdd565b610a88600080516020611a3383398151915285610bdd565b610aa0600080516020611a5383398151915283610bdd565b60fc5460fb54604051639c871b3160e01b815260048101919091523060248201526101009091046001600160a01b031690639c871b3190604401600060405180830381600087803b158015610af457600080fd5b505af1158015610b08573d6000803e3d6000fd5b505050505050505050565b600082815260c96020526040902060010154610b2e81610b38565b6104ec8383610c63565b6106398133610f54565b6040516001600160a01b03808516602483015283166044820152606481018290526109959085906323b872dd60e01b906084015b60408051601f198184030181529190526020810180516001600160e01b03166001600160e01b031990931692909217909152610fad565b6040516001600160a01b0383166024820152604481018290526104ec90849063a9059cbb60e01b90606401610b76565b610be782826109f5565b61057057600082815260c9602090815260408083206001600160a01b03851684529091529020805460ff19166001179055610c1f3390565b6001600160a01b0316816001600160a01b0316837f2f8788117e7eff1d82e926ec794901d17c78024a50270940304540a733656f0d60405160405180910390a45050565b610c6d82826109f5565b1561057057600082815260c9602090815260408083206001600160a01b0385168085529252808320805460ff1916905551339285917ff6391f5c32d9c69d2a47ea670b442974b53935d1edc7fd64eb21e047a839171b9190a45050565b600080516020611a93833981519152546001600160a01b031690565b600080516020611a53833981519152610cfe81610b38565b60fc5460405163b3c2d50b60e01b81523060048201526001600160a01b0384811660248301526101009092049091169063b3c2d50b90604401600060405180830381600087803b158015610d5157600080fd5b505af1158015610d65573d6000803e3d6000fd5b505050505050565b7f4910fdfa16fed3260ed0e7147f7cc6da11a60208b5b9406d12a635614ffd91435460ff1615610da0576104ec83611082565b826001600160a01b03166352d1902d6040518163ffffffff1660e01b8152600401602060405180830381865afa925050508015610dfa575060408051601f3d908101601f19168201909252610df7918101906118ff565b60015b610e5d5760405162461bcd60e51b815260206004820152602e60248201527f45524331393637557067726164653a206e657720696d706c656d656e7461746960448201526d6f6e206973206e6f74205555505360901b606482015260840161055d565b600080516020611a938339815191528114610ecc5760405162461bcd60e51b815260206004820152602960248201527f45524331393637557067726164653a20756e737570706f727465642070726f786044820152681a58589b195555525160ba1b606482015260840161055d565b506104ec83838361111c565b6001600160a01b03163b151590565b600054610100900460ff16610f525760405162461bcd60e51b815260206004820152602b60248201527f496e697469616c697a61626c653a20636f6e7472616374206973206e6f74206960448201526a6e697469616c697a696e6760a81b606482015260840161055d565b565b610f5e82826109f5565b61057057610f6b81611141565b610f76836020611153565b604051602001610f87929190611918565b60408051601f198184030181529082905262461bcd60e51b825261055d91600401611745565b6000611002826040518060400160405280602081526020017f5361666545524332303a206c6f772d6c6576656c2063616c6c206661696c6564815250856001600160a01b03166112f69092919063ffffffff16565b90508051600014806110235750808060200190518101906110239190611987565b6104ec5760405162461bcd60e51b815260206004820152602a60248201527f5361666545524332303a204552433230206f7065726174696f6e20646964206e6044820152691bdd081cdd58d8d9595960b21b606482015260840161055d565b61108b81610ed8565b6110ed5760405162461bcd60e51b815260206004820152602d60248201527f455243313936373a206e657720696d706c656d656e746174696f6e206973206e60448201526c1bdd08184818dbdb9d1c9858dd609a1b606482015260840161055d565b600080516020611a9383398151915280546001600160a01b0319166001600160a01b0392909216919091179055565b6111258361130d565b6000825111806111325750805b156104ec57610995838361134d565b60606104176001600160a01b03831660145b606060006111628360026119bf565b61116d9060026119d6565b67ffffffffffffffff81111561118557611185611647565b6040519080825280601f01601f1916602001820160405280156111af576020820181803683370190505b509050600360fc1b816000815181106111ca576111ca6119e9565b60200101906001600160f81b031916908160001a905350600f60fb1b816001815181106111f9576111f96119e9565b60200101906001600160f81b031916908160001a905350600061121d8460026119bf565b6112289060016119d6565b90505b60018111156112a0576f181899199a1a9b1b9c1cb0b131b232b360811b85600f166010811061125c5761125c6119e9565b1a60f81b828281518110611272576112726119e9565b60200101906001600160f81b031916908160001a90535060049490941c93611299816119ff565b905061122b565b5083156112ef5760405162461bcd60e51b815260206004820181905260248201527f537472696e67733a20686578206c656e67746820696e73756666696369656e74604482015260640161055d565b9392505050565b60606113058484600085611372565b949350505050565b61131681611082565b6040516001600160a01b038216907fbc7cd75a20ee27fd9adebab32041f755214dbc6bffa90cc0225b39da2e5c2d3b90600090a250565b60606112ef8383604051806060016040528060278152602001611ab36027913961144d565b6060824710156113d35760405162461bcd60e51b815260206004820152602660248201527f416464726573733a20696e73756666696369656e742062616c616e636520666f6044820152651c8818d85b1b60d21b606482015260840161055d565b600080866001600160a01b031685876040516113ef9190611a16565b60006040518083038185875af1925050503d806000811461142c576040519150601f19603f3d011682016040523d82523d6000602084013e611431565b606091505b5091509150611442878383876114c5565b979650505050505050565b6060600080856001600160a01b03168560405161146a9190611a16565b600060405180830381855af49150503d80600081146114a5576040519150601f19603f3d011682016040523d82523d6000602084013e6114aa565b606091505b50915091506114bb868383876114c5565b9695505050505050565b6060831561153257825160000361152b576114df85610ed8565b61152b5760405162461bcd60e51b815260206004820152601d60248201527f416464726573733a2063616c6c20746f206e6f6e2d636f6e7472616374000000604482015260640161055d565b5081611305565b61130583838151156115475781518083602001fd5b8060405162461bcd60e51b815260040161055d9190611745565b60006020828403121561157357600080fd5b81356001600160e01b0319811681146112ef57600080fd5b6001600160a01b038116811461063957600080fd5b6000806000606084860312156115b557600080fd5b83356115c08161158b565b925060208401356115d08161158b565b929592945050506040919091013590565b6000602082840312156115f357600080fd5b5035919050565b6000806040838503121561160d57600080fd5b82359150602083013561161f8161158b565b809150509250929050565b60006020828403121561163c57600080fd5b81356112ef8161158b565b634e487b7160e01b600052604160045260246000fd5b6000806040838503121561167057600080fd5b823561167b8161158b565b9150602083013567ffffffffffffffff8082111561169857600080fd5b818501915085601f8301126116ac57600080fd5b8135818111156116be576116be611647565b604051601f8201601f19908116603f011681019083821181831017156116e6576116e6611647565b816040528281528860208487010111156116ff57600080fd5b8260208601602083013760006020848301015280955050505050509250929050565b60005b8381101561173c578181015183820152602001611724565b50506000910152565b6020815260008251806020840152611764816040850160208701611721565b601f01601f19169190910160400192915050565b60008060006040848603121561178d57600080fd5b833567ffffffffffffffff808211156117a557600080fd5b818601915086601f8301126117b957600080fd5b8135818111156117c857600080fd5b8760208285010111156117da57600080fd5b602092830195509350508401356117f08161158b565b809150509250925092565b6000806000806080858703121561181157600080fd5b843561181c8161158b565b9350602085013561182c8161158b565b9250604085013561183c8161158b565b9150606085013561184c8161158b565b939692955090935050565b6020808252602c908201527f46756e6374696f6e206d7573742062652063616c6c6564207468726f7567682060408201526b19195b1959d85d1958d85b1b60a21b606082015260800190565b6020808252602c908201527f46756e6374696f6e206d7573742062652063616c6c6564207468726f7567682060408201526b6163746976652070726f787960a01b606082015260800190565b8183823760009101908152919050565b60006020828403121561191157600080fd5b5051919050565b76020b1b1b2b9b9a1b7b73a3937b61d1030b1b1b7bab73a1604d1b81526000835161194a816017850160208801611721565b7001034b99036b4b9b9b4b733903937b6329607d1b601791840191820152835161197b816028840160208801611721565b01602801949350505050565b60006020828403121561199957600080fd5b815180151581146112ef57600080fd5b634e487b7160e01b600052601160045260246000fd5b8082028115828204841417610417576104176119a9565b80820180821115610417576104176119a9565b634e487b7160e01b600052603260045260246000fd5b600081611a0e57611a0e6119a9565b506000190190565b60008251611a28818460208701611721565b919091019291505056fe250b76734a070a69c7b3930477dd35007ad9c9d0952e97903fdafb2db6980537793a6c9b7e0a9549c74edc2f9ae0dc50903dfaa9a56fb0116b27a8c71de3e2c630d41a597cac127d8249d31298b50e481ee82c3f4a49ff93c76a22735aa9f3ad360894a13ba1a3210667c828492db98dca3e2076cc3735a920a3ca505d382bbc416464726573733a206c6f772d6c6576656c2064656c65676174652063616c6c206661696c6564a264697066735822122041b805d95088ed3e1e259e21e0193f1b53f2770a17e41d4fdca9a9ab854e595e64736f6c63430008120033",
  "linkReferences": {},
  "deployedLinkReferences": {}
}