{
  "_format": "hh-sol-artifact-1",
  "contractName": "TermRepoLocker",
  "sourceName": "contracts/TermRepoLocker.sol",
  "abi": [
    {
      "inputs": [],
      "stateMutability": "nonpayable",
      "type": "constructor"
    },
    {
      "inputs": [],
      "name": "AccessControlBadConfirmation",
      "type": "error"
    },
    {
      "inputs": [
        {
          "internalType": "address",
          "name": "account",
          "type": "address"
        },
        {
          "internalType": "bytes32",
          "name": "neededRole",
          "type": "bytes32"
        }
      ],
      "name": "AccessControlUnauthorizedAccount",
      "type": "error"
    },
    {
      "inputs": [
        {
          "internalType": "address",
          "name": "target",
          "type": "address"
        }
      ],
      "name": "AddressEmptyCode",
      "type": "error"
    },
    {
      "inputs": [],
      "name": "AlreadyTermContractPaired",
      "type": "error"
    },
    {
      "inputs": [
        {
          "internalType": "address",
          "name": "implementation",
          "type": "address"
        }
      ],
      "name": "ERC1967InvalidImplementation",
      "type": "error"
    },
    {
      "inputs": [],
      "name": "ERC1967NonPayable",
      "type": "error"
    },
    {
      "inputs": [],
      "name": "ERC20TransferFailed",
      "type": "error"
    },
    {
      "inputs": [],
      "name": "FailedCall",
      "type": "error"
    },
    {
      "inputs": [],
      "name": "InvalidInitialization",
      "type": "error"
    },
    {
      "inputs": [],
      "name": "NotInitializing",
      "type": "error"
    },
    {
      "inputs": [
        {
          "internalType": "address",
          "name": "token",
          "type": "address"
        }
      ],
      "name": "SafeERC20FailedOperation",
      "type": "error"
    },
    {
      "inputs": [],
      "name": "TermContractsPaused",
      "type": "error"
    },
    {
      "inputs": [],
      "name": "TermRepoLockerTransfersPaused",
      "type": "error"
    },
    {
      "inputs": [],
      "name": "UUPSUnauthorizedCallContext",
      "type": "error"
    },
    {
      "inputs": [
        {
          "internalType": "bytes32",
          "name": "slot",
          "type": "bytes32"
        }
      ],
      "name": "UUPSUnsupportedProxiableUUID",
      "type": "error"
    },
    {
      "anonymous": false,
      "inputs": [
        {
          "indexed": false,
          "internalType": "uint64",
          "name": "version",
          "type": "uint64"
        }
      ],
      "name": "Initialized",
      "type": "event"
    },
    {
      "anonymous": false,
      "inputs": [
        {
          "indexed": true,
          "internalType": "bytes32",
          "name": "role",
          "type": "bytes32"
        },
        {
          "indexed": true,
          "internalType": "bytes32",
          "name": "previousAdminRole",
          "type": "bytes32"
        },
        {
          "indexed": true,
          "internalType": "bytes32",
          "name": "newAdminRole",
          "type": "bytes32"
        }
      ],
      "name": "RoleAdminChanged",
      "type": "event"
    },
    {
      "anonymous": false,
      "inputs": [
        {
          "indexed": true,
          "internalType": "bytes32",
          "name": "role",
          "type": "bytes32"
        },
        {
          "indexed": true,
          "internalType": "address",
          "name": "account",
          "type": "address"
        },
        {
          "indexed": true,
          "internalType": "address",
          "name": "sender",
          "type": "address"
        }
      ],
      "name": "RoleGranted",
      "type": "event"
    },
    {
      "anonymous": false,
      "inputs": [
        {
          "indexed": true,
          "internalType": "bytes32",
          "name": "role",
          "type": "bytes32"
        },
        {
          "indexed": true,
          "internalType": "address",
          "name": "account",
          "type": "address"
        },
        {
          "indexed": true,
          "internalType": "address",
          "name": "sender",
          "type": "address"
        }
      ],
      "name": "RoleRevoked",
      "type": "event"
    },
    {
      "anonymous": false,
      "inputs": [
        {
          "indexed": true,
          "internalType": "address",
          "name": "implementation",
          "type": "address"
        }
      ],
      "name": "Upgraded",
      "type": "event"
    },
    {
      "inputs": [],
      "name": "ADMIN_ROLE",
      "outputs": [
        {
          "internalType": "bytes32",
          "name": "",
          "type": "bytes32"
        }
      ],
      "stateMutability": "view",
      "type": "function"
    },
    {
      "inputs": [],
      "name": "DEFAULT_ADMIN_ROLE",
      "outputs": [
        {
          "internalType": "bytes32",
          "name": "",
          "type": "bytes32"
        }
      ],
      "stateMutability": "view",
      "type": "function"
    },
    {
      "inputs": [],
      "name": "DEVOPS_ROLE",
      "outputs": [
        {
          "internalType": "bytes32",
          "name": "",
          "type": "bytes32"
        }
      ],
      "stateMutability": "view",
      "type": "function"
    },
    {
      "inputs": [],
      "name": "INITIALIZER_ROLE",
      "outputs": [
        {
          "internalType": "bytes32",
          "name": "",
          "type": "bytes32"
        }
      ],
      "stateMutability": "view",
      "type": "function"
    },
    {
      "inputs": [],
      "name": "SERVICER_ROLE",
      "outputs": [
        {
          "internalType": "bytes32",
          "name": "",
          "type": "bytes32"
        }
      ],
      "stateMutability": "view",
      "type": "function"
    },
    {
      "inputs": [],
      "name": "UPGRADE_INTERFACE_VERSION",
      "outputs": [
        {
          "internalType": "string",
          "name": "",
          "type": "string"
        }
      ],
      "stateMutability": "view",
      "type": "function"
    },
    {
      "inputs": [
        {
          "internalType": "bytes32",
          "name": "role",
          "type": "bytes32"
        }
      ],
      "name": "getRoleAdmin",
      "outputs": [
        {
          "internalType": "bytes32",
          "name": "",
          "type": "bytes32"
        }
      ],
      "stateMutability": "view",
      "type": "function"
    },
    {
      "inputs": [
        {
          "internalType": "bytes32",
          "name": "role",
          "type": "bytes32"
        },
        {
          "internalType": "address",
          "name": "account",
          "type": "address"
        }
      ],
      "name": "grantRole",
      "outputs": [],
      "stateMutability": "nonpayable",
      "type": "function"
    },
    {
      "inputs": [
        {
          "internalType": "bytes32",
          "name": "role",
          "type": "bytes32"
        },
        {
          "internalType": "address",
          "name": "account",
          "type": "address"
        }
      ],
      "name": "hasRole",
      "outputs": [
        {
          "internalType": "bool",
          "name": "",
          "type": "bool"
        }
      ],
      "stateMutability": "view",
      "type": "function"
    },
    {
      "inputs": [
        {
          "internalType": "string",
          "name": "termRepoId_",
          "type": "string"
        },
        {
          "internalType": "address",
          "name": "termInitializer_",
          "type": "address"
        }
      ],
      "name": "initialize",
      "outputs": [],
      "stateMutability": "nonpayable",
      "type": "function"
    },
    {
      "inputs": [
        {
          "internalType": "address",
          "name": "termRepoCollateralManager_",
          "type": "address"
        },
        {
          "internalType": "address",
          "name": "termRepoServicer_",
          "type": "address"
        },
        {
          "internalType": "contract ITermEventEmitter",
          "name": "emitter_",
          "type": "address"
        },
        {
          "internalType": "address",
          "name": "devopsMultisig_",
          "type": "address"
        },
        {
          "internalType": "address",
          "name": "adminWallet_",
          "type": "address"
        }
      ],
      "name": "pairTermContracts",
      "outputs": [],
      "stateMutability": "nonpayable",
      "type": "function"
    },
    {
      "inputs": [],
      "name": "pauseTransfers",
      "outputs": [],
      "stateMutability": "nonpayable",
      "type": "function"
    },
    {
      "inputs": [],
      "name": "proxiableUUID",
      "outputs": [
        {
          "internalType": "bytes32",
          "name": "",
          "type": "bytes32"
        }
      ],
      "stateMutability": "view",
      "type": "function"
    },
    {
      "inputs": [
        {
          "internalType": "bytes32",
          "name": "role",
          "type": "bytes32"
        },
        {
          "internalType": "address",
          "name": "callerConfirmation",
          "type": "address"
        }
      ],
      "name": "renounceRole",
      "outputs": [],
      "stateMutability": "nonpayable",
      "type": "function"
    },
    {
      "inputs": [
        {
          "internalType": "bytes32",
          "name": "role",
          "type": "bytes32"
        },
        {
          "internalType": "address",
          "name": "account",
          "type": "address"
        }
      ],
      "name": "revokeRole",
      "outputs": [],
      "stateMutability": "nonpayable",
      "type": "function"
    },
    {
      "inputs": [
        {
          "internalType": "bytes4",
          "name": "interfaceId",
          "type": "bytes4"
        }
      ],
      "name": "supportsInterface",
      "outputs": [
        {
          "internalType": "bool",
          "name": "",
          "type": "bool"
        }
      ],
      "stateMutability": "view",
      "type": "function"
    },
    {
      "inputs": [],
      "name": "termRepoId",
      "outputs": [
        {
          "internalType": "bytes32",
          "name": "",
          "type": "bytes32"
        }
      ],
      "stateMutability": "view",
      "type": "function"
    },
    {
      "inputs": [
        {
          "internalType": "address",
          "name": "originWallet",
          "type": "address"
        },
        {
          "internalType": "address",
          "name": "token",
          "type": "address"
        },
        {
          "internalType": "uint256",
          "name": "amount",
          "type": "uint256"
        }
      ],
      "name": "transferTokenFromWallet",
      "outputs": [],
      "stateMutability": "nonpayable",
      "type": "function"
    },
    {
      "inputs": [
        {
          "internalType": "address",
          "name": "destinationWallet",
          "type": "address"
        },
        {
          "internalType": "address",
          "name": "token",
          "type": "address"
        },
        {
          "internalType": "uint256",
          "name": "amount",
          "type": "uint256"
        }
      ],
      "name": "transferTokenToWallet",
      "outputs": [],
      "stateMutability": "nonpayable",
      "type": "function"
    },
    {
      "inputs": [],
      "name": "transfersPaused",
      "outputs": [
        {
          "internalType": "bool",
          "name": "",
          "type": "bool"
        }
      ],
      "stateMutability": "view",
      "type": "function"
    },
    {
      "inputs": [],
      "name": "unpauseTransfers",
      "outputs": [],
      "stateMutability": "nonpayable",
      "type": "function"
    },
    {
      "inputs": [
        {
          "internalType": "address",
          "name": "newImplementation",
          "type": "address"
        },
        {
          "internalType": "bytes",
          "name": "data",
          "type": "bytes"
        }
      ],
      "name": "upgradeToAndCall",
      "outputs": [],
      "stateMutability": "payable",
      "type": "function"
    },
    {
      "inputs": [],
      "name": "version",
      "outputs": [
        {
          "internalType": "string",
          "name": "",
          "type": "string"
        }
      ],
      "stateMutability": "view",
      "type": "function"
    }
  ],
  "bytecode": "0x60a080604052346100cc57306080527ff0c57e16840df040f15088dc2f81fe391c3923bec73e23a9662efc9c229c6a009081549060ff8260401c166100bd57506001600160401b036002600160401b031982821601610078575b6040516115e890816100d2823960805181818161064d015261071b0152f35b6001600160401b031990911681179091556040519081527fc7f505b2f371ae2175ee4913f4499e1f2633a7b5936321eed1cdaeb6115181d290602090a1388080610059565b63f92ee8a960e01b8152600490fd5b600080fdfe608060408181526004908136101561001657600080fd5b600092833560e01c90816301ffc9a714610dc65750806309a0160814610d9d578063127ca94414610c8b578063201a662514610c62578063213919f214610afa578063248a9ca314610ac257806327df3d3e14610a995780632f2ff15d14610a7157806336568abe14610a2a5780634563f30a14610a0657806347af9957146109925780634f1ef2861461069f57806352d1902d1461063857806354fd4d50146105f557806375b238fc146105cc5780637910b4641461044c5780637ab4339d146102cb578381638936a91f146102415750806391d14854146101ee578063a217fddf146101d3578063ad3cb1cc14610192578063cc5b6e4a146101715763d547741f1461012357600080fd5b3461016d578060031936011261016d5761016991356101646001610145610e1a565b938387526000805160206115538339815191526020528620015461100b565b6112f5565b5080f35b8280fd5b83823461018e578160031936011261018e57602091549051908152f35b5080fd5b83823461018e578160031936011261018e5780516101cf916101b382610ea4565b60058252640352e302e360dc1b60208301525191829182610efd565b0390f35b83823461018e578160031936011261018e5751908152602090f35b50903461016d578160031936011261016d578160209361020c610e1a565b923581526000805160206115538339815191528552209060018060a01b0316600052825260ff81600020541690519015158152f35b808484346102c757826003193601126102c75761025c610fd3565b60015460ff19811660015560018060a01b039060101c16918354833b156102c35760248592838551968794859363240d3a8560e11b85528401525af19081156102ba57506102a75750f35b6102b090610e7b565b6102b75780f35b80fd5b513d84823e3d90fd5b8480fd5b5050fd5b50903461016d578160031936011261016d576001600160401b0381358181116102c357366023820112156102c357808301359082821161044857366024838301011161044857610319610e1a565b916000805160206115938339815191529485549060ff82891c161595821680159081610440575b6001149081610436575b15908161042d575b5061041f57506001600160401b0319811660011786556103bf9392919085610404575b5061037e6113e0565b6103866113e0565b6103ab6020885183819460248484019701873781018b83820152038084520182610ebf565b519020865560ff19600154166001556111e8565b506103c8578280f35b805460ff60401b1916905551600181527fc7f505b2f371ae2175ee4913f4499e1f2633a7b5936321eed1cdaeb6115181d290602090a138808280f35b6001600160481b0319166001600160401b0117865538610375565b875163f92ee8a960e01b8152fd5b90501538610352565b303b15915061034a565b879150610340565b8580fd5b5091903461018e5760a036600319011261018e57610468610e30565b92610471610e1a565b604435946001600160a01b03918287168703610448576064359183831683036105c7576084359784891689036105c75760008051602061151383398151915280600052600080516020611553833981519152602052866000203360005260205260ff876000205416156105a957506001549060ff8260081c1661059957610100600160b01b031990911660109190911b62010000600160b01b03161761010017600155600280546001600160a01b03191685841617905595968796610557939192610551929161054b91906105459061103e565b5061103e565b506110ca565b50611162565b5060015460101c16918354833b156102c357604485928385519687948593639c871b3160e01b85528401523060248401525af19081156102ba57506102a75750f35b8651634ce377bb60e11b81528890fd5b865163e2517d3f60e01b815233818a01526024810191909152604490fd5b600080fd5b83823461018e578160031936011261018e57602090516000805160206115738339815191528152f35b83823461018e578160031936011261018e5780516101cf9161061682610ea4565b600b82526a19195d995b1bdc1b595b9d60aa1b60208301525191829182610efd565b5082346102b757806003193601126102b757507f00000000000000000000000000000000000000000000000000000000000000006001600160a01b0316300361069257602090516000805160206115338339815191528152f35b5163703e46dd60e11b8152fd5b5091908260031936011261018e576106b5610e30565b9260249283356001600160401b03811161018e573660238201121561018e57808401356106e181610ee2565b966106ee85519889610ebf565b8188526020918289019336898383010111610448578186928a86930187378a0101526001600160a01b03977f00000000000000000000000000000000000000000000000000000000000000008916308114908115610976575b50610966576000805160206114d38339815191528060005260008051602061155383398151915284528660002033600052845260ff8760002054161561094957508860015460101c16803b156104485785899a60448a838b9d9c9d51958694859363b3c2d50b60e01b855230908501528916809e8401525af1801561093f5790869161092b575b505085516352d1902d60e01b815283818a818b5afa8691816108f8575b50610807575050505050505191634c9c8ce360e01b8352820152fd5b9088888894938c600080516020611533833981519152918281036108e35750853b156108cf575080546001600160a01b031916821790558451889392917fbc7cd75a20ee27fd9adebab32041f755214dbc6bffa90cc0225b39da2e5c2d3b8580a28251156108b15750506101699582915190845af4913d156108a7573d61089961089082610ee2565b92519283610ebf565b81528581943d92013e61140f565b506060925061140f565b9550955050505050346108c357505080f35b63b398979f60e01b8152fd5b8651634c9c8ce360e01b8152808501849052fd5b8751632a87526960e21b815280860191909152fd5b9091508481813d8311610924575b6109108183610ebf565b81010312610920575190386107eb565b8680fd5b503d610906565b61093490610e7b565b6102c35784386107ce565b87513d88823e3d90fd5b865163e2517d3f60e01b815233818a0152808a0191909152604490fd5b855163703e46dd60e11b81528790fd5b9050896000805160206115338339815191525416141538610747565b503461016d578260031936011261016d576109ab610fd3565b82600160ff19815416178060015560018060a01b039060101c1692815490843b1561016d5760249083855196879485936380c48d1360e01b85528401525af19081156102ba57506109fa575080f35b610a0390610e7b565b80f35b83823461018e578160031936011261018e5760209060ff6001541690519015158152f35b5082903461018e578060031936011261018e57610a45610e1a565b90336001600160a01b03831603610a6257506101699192356112f5565b5163334bd91960e11b81528390fd5b503461016d578060031936011261016d576101699135610a946001610145610e1a565b611280565b83823461018e578160031936011261018e57602090516000805160206115138339815191528152f35b50903461016d57602036600319011261016d578160209360019235815260008051602061155383398151915285522001549051908152f35b5082903461018e57610b0b36610e46565b919260ff60015416610c535760025481516325c3ed4760e01b81526020956001600160a01b039592909190879082908b9082908a165afa908115610c1c57869188918a91610c26575b508a865180948193631b6685b560e21b8352165afa908115610c1c578891610bef575b50610bdf578490610b86610f7d565b835163a9059cbb60e01b97810197909752166024860152604480860191909152845260808401906001600160401b03821185831017610bcc57610a039596505216611378565b634e487b7160e01b865260418752602486fd5b825163bbc439e160e01b81528890fd5b610c0f9150873d8911610c15575b610c078183610ebf565b810190610f65565b89610b77565b503d610bfd565b84513d8a823e3d90fd5b610c469150823d8411610c4c575b610c3e8183610ebf565b810190610f46565b8b610b54565b503d610c34565b5163b16749ef60e01b81528590fd5b83823461018e578160031936011261018e57602090516000805160206114d38339815191528152f35b5082903461018e57610c9c36610e46565b919260ff60015416610c535760025481516325c3ed4760e01b81526020956001600160a01b039592909190879082908b9082908a165afa908115610c1c57869188918a91610d80575b508a865180948193631b6685b560e21b8352165afa908115610c1c578891610d63575b50610bdf578490610d17610f7d565b83516323b872dd60e01b97810197909752166024860152306044860152606480860191909152845260a08401906001600160401b03821185831017610bcc57610a039596505216611378565b610d7a9150873d8911610c1557610c078183610ebf565b89610d08565b610d979150823d8411610c4c57610c3e8183610ebf565b8b610ce5565b83823461018e578160031936011261018e57602090516000805160206114b38339815191528152f35b8490843461016d57602036600319011261016d573563ffffffff60e01b811680910361016d5760209250637965db0b60e01b8114908115610e09575b5015158152f35b6301ffc9a760e01b14905083610e02565b602435906001600160a01b03821682036105c757565b600435906001600160a01b03821682036105c757565b60609060031901126105c7576001600160a01b039060043582811681036105c7579160243590811681036105c7579060443590565b6001600160401b038111610e8e57604052565b634e487b7160e01b600052604160045260246000fd5b604081019081106001600160401b03821117610e8e57604052565b601f909101601f19168101906001600160401b03821190821017610e8e57604052565b6001600160401b038111610e8e57601f01601f191660200190565b6020808252825181830181905290939260005b828110610f3257505060409293506000838284010152601f8019910116010190565b818101860151848201604001528501610f10565b908160209103126105c757516001600160a01b03811681036105c75790565b908160209103126105c7575180151581036105c75790565b33600090815260008051602061149383398151915260205260409020546000805160206114b38339815191529060ff1615610fb55750565b6044906040519063e2517d3f60e01b82523360048301526024820152fd5b3360009081526000805160206114f383398151915260205260409020546000805160206115738339815191529060ff1615610fb55750565b8060005260008051602061155383398151915260205260406000203360005260205260ff6040600020541615610fb55750565b6001600160a01b0316600081815260008051602061149383398151915260205260408120549091906000805160206114b3833981519152906000805160206115538339815191529060ff166110c4578184526020526040832082845260205260408320600160ff19825416179055600080516020611473833981519152339380a4600190565b50505090565b6001600160a01b031660008181527f0cfb002fcf8644f87ebf6cf6e31899c8d8e9f7c329b465b6e36989a958507e8b60205260408120549091906000805160206114d3833981519152906000805160206115538339815191529060ff166110c4578184526020526040832082845260205260408320600160ff19825416179055600080516020611473833981519152339380a4600190565b6001600160a01b031660008181526000805160206114f38339815191526020526040812054909190600080516020611573833981519152906000805160206115538339815191529060ff166110c4578184526020526040832082845260205260408320600160ff19825416179055600080516020611473833981519152339380a4600190565b6001600160a01b031660008181527f44fa5399874b75da801cb431822b6afcadb876f84eb39d7f05bf697e94b4484e6020526040812054909190600080516020611513833981519152906000805160206115538339815191529060ff166110c4578184526020526040832082845260205260408320600160ff19825416179055600080516020611473833981519152339380a4600190565b9060009180835260008051602061155383398151915280602052604084209260018060a01b03169283855260205260ff604085205416156000146110c4578184526020526040832082845260205260408320600160ff19825416179055600080516020611473833981519152339380a4600190565b9060009180835260008051602061155383398151915280602052604084209260018060a01b03169283855260205260ff6040852054166000146110c457818452602052604083208284526020526040832060ff1981541690557ff6391f5c32d9c69d2a47ea670b442974b53935d1edc7fd64eb21e047a839171b339380a4600190565b906000602091828151910182855af1156113d4576000513d6113cb57506001600160a01b0381163b155b6113a95750565b604051635274afe760e01b81526001600160a01b039091166004820152602490fd5b600114156113a2565b6040513d6000823e3d90fd5b60ff6000805160206115938339815191525460401c16156113fd57565b604051631afcd79f60e31b8152600490fd5b90611436575080511561142457805190602001fd5b60405163d6bda27560e01b8152600490fd5b81511580611469575b611447575090565b604051639996b31560e01b81526001600160a01b039091166004820152602490fd5b50803b1561143f56fe2f8788117e7eff1d82e926ec794901d17c78024a50270940304540a733656f0d265ec2c7f23b289e86ed2d877ad4b447b70ac08332783d1ba335eb6541af8c3c250b76734a070a69c7b3930477dd35007ad9c9d0952e97903fdafb2db6980537793a6c9b7e0a9549c74edc2f9ae0dc50903dfaa9a56fb0116b27a8c71de3e2c6b16e88c42fd4e48df2dd6a2eabd6bc9aec654ec170056b470819f8892cc6431c30d41a597cac127d8249d31298b50e481ee82c3f4a49ff93c76a22735aa9f3ad360894a13ba1a3210667c828492db98dca3e2076cc3735a920a3ca505d382bbc02dd7bc7dec4dceedda775e58dd541e08a116c6c53815c0bd028192f7b626800a49807205ce4d355092ef5a8a18f56e8913cf4a201fbe287825b095693c21775f0c57e16840df040f15088dc2f81fe391c3923bec73e23a9662efc9c229c6a00a2646970667358221220290f9c4d059bef55127f0346b92681b7d52b00d9f2d899fc397ecd0f484e5aeb64736f6c63430008160033",
  "linkReferences": {},
  "deployedLinkReferences": {}
}