{
  "_format": "hh-sol-artifact-1",
  "contractName": "TermController",
  "sourceName": "contracts/TermController.sol",
  "abi": [
    {
      "inputs": [],
      "stateMutability": "nonpayable",
      "type": "constructor"
    },
    {
      "anonymous": false,
      "inputs": [
        {
          "indexed": false,
          "internalType": "address",
          "name": "previousAdmin",
          "type": "address"
        },
        {
          "indexed": false,
          "internalType": "address",
          "name": "newAdmin",
          "type": "address"
        }
      ],
      "name": "AdminChanged",
      "type": "event"
    },
    {
      "anonymous": false,
      "inputs": [
        {
          "indexed": true,
          "internalType": "address",
          "name": "beacon",
          "type": "address"
        }
      ],
      "name": "BeaconUpgraded",
      "type": "event"
    },
    {
      "anonymous": false,
      "inputs": [
        {
          "indexed": false,
          "internalType": "uint8",
          "name": "version",
          "type": "uint8"
        }
      ],
      "name": "Initialized",
      "type": "event"
    },
    {
      "anonymous": false,
      "inputs": [
        {
          "indexed": false,
          "internalType": "address",
          "name": "oldProtocolReserveAddress",
          "type": "address"
        },
        {
          "indexed": false,
          "internalType": "address",
          "name": "newProtocolReserveAddress",
          "type": "address"
        }
      ],
      "name": "ProtocolReserveAddressUpdated",
      "type": "event"
    },
    {
      "anonymous": false,
      "inputs": [
        {
          "indexed": true,
          "internalType": "bytes32",
          "name": "role",
          "type": "bytes32"
        },
        {
          "indexed": true,
          "internalType": "bytes32",
          "name": "previousAdminRole",
          "type": "bytes32"
        },
        {
          "indexed": true,
          "internalType": "bytes32",
          "name": "newAdminRole",
          "type": "bytes32"
        }
      ],
      "name": "RoleAdminChanged",
      "type": "event"
    },
    {
      "anonymous": false,
      "inputs": [
        {
          "indexed": true,
          "internalType": "bytes32",
          "name": "role",
          "type": "bytes32"
        },
        {
          "indexed": true,
          "internalType": "address",
          "name": "account",
          "type": "address"
        },
        {
          "indexed": true,
          "internalType": "address",
          "name": "sender",
          "type": "address"
        }
      ],
      "name": "RoleGranted",
      "type": "event"
    },
    {
      "anonymous": false,
      "inputs": [
        {
          "indexed": true,
          "internalType": "bytes32",
          "name": "role",
          "type": "bytes32"
        },
        {
          "indexed": true,
          "internalType": "address",
          "name": "account",
          "type": "address"
        },
        {
          "indexed": true,
          "internalType": "address",
          "name": "sender",
          "type": "address"
        }
      ],
      "name": "RoleRevoked",
      "type": "event"
    },
    {
      "anonymous": false,
      "inputs": [
        {
          "indexed": false,
          "internalType": "address",
          "name": "oldTreasuryAddress",
          "type": "address"
        },
        {
          "indexed": false,
          "internalType": "address",
          "name": "newTreasuryAddress",
          "type": "address"
        }
      ],
      "name": "TreasuryAddressUpdated",
      "type": "event"
    },
    {
      "anonymous": false,
      "inputs": [
        {
          "indexed": true,
          "internalType": "address",
          "name": "implementation",
          "type": "address"
        }
      ],
      "name": "Upgraded",
      "type": "event"
    },
    {
      "inputs": [],
      "name": "ADMIN_ROLE",
      "outputs": [
        {
          "internalType": "bytes32",
          "name": "",
          "type": "bytes32"
        }
      ],
      "stateMutability": "view",
      "type": "function"
    },
    {
      "inputs": [],
      "name": "AUCTION_ROLE",
      "outputs": [
        {
          "internalType": "bytes32",
          "name": "",
          "type": "bytes32"
        }
      ],
      "stateMutability": "view",
      "type": "function"
    },
    {
      "inputs": [],
      "name": "CONTROLLER_ADMIN_ROLE",
      "outputs": [
        {
          "internalType": "bytes32",
          "name": "",
          "type": "bytes32"
        }
      ],
      "stateMutability": "view",
      "type": "function"
    },
    {
      "inputs": [],
      "name": "DEFAULT_ADMIN_ROLE",
      "outputs": [
        {
          "internalType": "bytes32",
          "name": "",
          "type": "bytes32"
        }
      ],
      "stateMutability": "view",
      "type": "function"
    },
    {
      "inputs": [],
      "name": "DEVOPS_ROLE",
      "outputs": [
        {
          "internalType": "bytes32",
          "name": "",
          "type": "bytes32"
        }
      ],
      "stateMutability": "view",
      "type": "function"
    },
    {
      "inputs": [],
      "name": "INITIALIZER_ROLE",
      "outputs": [
        {
          "internalType": "bytes32",
          "name": "",
          "type": "bytes32"
        }
      ],
      "stateMutability": "view",
      "type": "function"
    },
    {
      "inputs": [],
      "name": "SPECIALIST_ROLE",
      "outputs": [
        {
          "internalType": "bytes32",
          "name": "",
          "type": "bytes32"
        }
      ],
      "stateMutability": "view",
      "type": "function"
    },
    {
      "inputs": [],
      "name": "getProtocolReserveAddress",
      "outputs": [
        {
          "internalType": "address",
          "name": "",
          "type": "address"
        }
      ],
      "stateMutability": "view",
      "type": "function"
    },
    {
      "inputs": [
        {
          "internalType": "bytes32",
          "name": "role",
          "type": "bytes32"
        }
      ],
      "name": "getRoleAdmin",
      "outputs": [
        {
          "internalType": "bytes32",
          "name": "",
          "type": "bytes32"
        }
      ],
      "stateMutability": "view",
      "type": "function"
    },
    {
      "inputs": [
        {
          "internalType": "bytes32",
          "name": "termRepoId",
          "type": "bytes32"
        }
      ],
      "name": "getTermAuctionResults",
      "outputs": [
        {
          "components": [
            {
              "internalType": "bytes32",
              "name": "termAuctionId",
              "type": "bytes32"
            },
            {
              "internalType": "uint256",
              "name": "auctionClearingRate",
              "type": "uint256"
            },
            {
              "internalType": "uint256",
              "name": "auctionClearingBlockTimestamp",
              "type": "uint256"
            }
          ],
          "internalType": "struct AuctionMetadata[]",
          "name": "auctionMetadata",
          "type": "tuple[]"
        },
        {
          "internalType": "uint8",
          "name": "numOfAuctions",
          "type": "uint8"
        }
      ],
      "stateMutability": "view",
      "type": "function"
    },
    {
      "inputs": [],
      "name": "getTreasuryAddress",
      "outputs": [
        {
          "internalType": "address",
          "name": "",
          "type": "address"
        }
      ],
      "stateMutability": "view",
      "type": "function"
    },
    {
      "inputs": [
        {
          "internalType": "address",
          "name": "authedUser",
          "type": "address"
        }
      ],
      "name": "grantMintExposureAccess",
      "outputs": [],
      "stateMutability": "nonpayable",
      "type": "function"
    },
    {
      "inputs": [
        {
          "internalType": "bytes32",
          "name": "role",
          "type": "bytes32"
        },
        {
          "internalType": "address",
          "name": "account",
          "type": "address"
        }
      ],
      "name": "grantRole",
      "outputs": [],
      "stateMutability": "nonpayable",
      "type": "function"
    },
    {
      "inputs": [
        {
          "internalType": "bytes32",
          "name": "role",
          "type": "bytes32"
        },
        {
          "internalType": "address",
          "name": "account",
          "type": "address"
        }
      ],
      "name": "hasRole",
      "outputs": [
        {
          "internalType": "bool",
          "name": "",
          "type": "bool"
        }
      ],
      "stateMutability": "view",
      "type": "function"
    },
    {
      "inputs": [
        {
          "internalType": "address",
          "name": "treasuryWallet_",
          "type": "address"
        },
        {
          "internalType": "address",
          "name": "protocolReserveWallet_",
          "type": "address"
        },
        {
          "internalType": "address",
          "name": "controllerAdminWallet_",
          "type": "address"
        },
        {
          "internalType": "address",
          "name": "devopsWallet_",
          "type": "address"
        },
        {
          "internalType": "address",
          "name": "adminWallet_",
          "type": "address"
        }
      ],
      "name": "initialize",
      "outputs": [],
      "stateMutability": "nonpayable",
      "type": "function"
    },
    {
      "inputs": [
        {
          "internalType": "address",
          "name": "contractAddress",
          "type": "address"
        }
      ],
      "name": "isTermDeployed",
      "outputs": [
        {
          "internalType": "bool",
          "name": "",
          "type": "bool"
        }
      ],
      "stateMutability": "view",
      "type": "function"
    },
    {
      "inputs": [
        {
          "internalType": "address",
          "name": "termContract",
          "type": "address"
        }
      ],
      "name": "markTermDeployed",
      "outputs": [],
      "stateMutability": "nonpayable",
      "type": "function"
    },
    {
      "inputs": [
        {
          "internalType": "address",
          "name": "auction",
          "type": "address"
        }
      ],
      "name": "pairAuction",
      "outputs": [],
      "stateMutability": "nonpayable",
      "type": "function"
    },
    {
      "inputs": [
        {
          "internalType": "address",
          "name": "initializer",
          "type": "address"
        }
      ],
      "name": "pairInitializer",
      "outputs": [],
      "stateMutability": "nonpayable",
      "type": "function"
    },
    {
      "inputs": [],
      "name": "proxiableUUID",
      "outputs": [
        {
          "internalType": "bytes32",
          "name": "",
          "type": "bytes32"
        }
      ],
      "stateMutability": "view",
      "type": "function"
    },
    {
      "inputs": [
        {
          "internalType": "bytes32",
          "name": "termRepoId",
          "type": "bytes32"
        },
        {
          "internalType": "bytes32",
          "name": "termAuctionId",
          "type": "bytes32"
        },
        {
          "internalType": "uint256",
          "name": "auctionClearingRate",
          "type": "uint256"
        }
      ],
      "name": "recordAuctionResult",
      "outputs": [],
      "stateMutability": "nonpayable",
      "type": "function"
    },
    {
      "inputs": [
        {
          "internalType": "bytes32",
          "name": "role",
          "type": "bytes32"
        },
        {
          "internalType": "address",
          "name": "account",
          "type": "address"
        }
      ],
      "name": "renounceRole",
      "outputs": [],
      "stateMutability": "nonpayable",
      "type": "function"
    },
    {
      "inputs": [
        {
          "internalType": "address",
          "name": "revokedUser",
          "type": "address"
        }
      ],
      "name": "revokeMintExposureAccess",
      "outputs": [],
      "stateMutability": "nonpayable",
      "type": "function"
    },
    {
      "inputs": [
        {
          "internalType": "bytes32",
          "name": "role",
          "type": "bytes32"
        },
        {
          "internalType": "address",
          "name": "account",
          "type": "address"
        }
      ],
      "name": "revokeRole",
      "outputs": [],
      "stateMutability": "nonpayable",
      "type": "function"
    },
    {
      "inputs": [
        {
          "internalType": "bytes4",
          "name": "interfaceId",
          "type": "bytes4"
        }
      ],
      "name": "supportsInterface",
      "outputs": [
        {
          "internalType": "bool",
          "name": "",
          "type": "bool"
        }
      ],
      "stateMutability": "view",
      "type": "function"
    },
    {
      "inputs": [
        {
          "internalType": "address",
          "name": "termContract",
          "type": "address"
        }
      ],
      "name": "unmarkTermDeployed",
      "outputs": [],
      "stateMutability": "nonpayable",
      "type": "function"
    },
    {
      "inputs": [
        {
          "internalType": "address",
          "name": "oldControllerAdminWallet",
          "type": "address"
        },
        {
          "internalType": "address",
          "name": "newControllerAdminWallet",
          "type": "address"
        }
      ],
      "name": "updateControllerAdminWallet",
      "outputs": [],
      "stateMutability": "nonpayable",
      "type": "function"
    },
    {
      "inputs": [
        {
          "internalType": "address",
          "name": "newProtocolReserveWallet",
          "type": "address"
        }
      ],
      "name": "updateProtocolReserveAddress",
      "outputs": [],
      "stateMutability": "nonpayable",
      "type": "function"
    },
    {
      "inputs": [
        {
          "internalType": "address",
          "name": "newTreasuryWallet",
          "type": "address"
        }
      ],
      "name": "updateTreasuryAddress",
      "outputs": [],
      "stateMutability": "nonpayable",
      "type": "function"
    },
    {
      "inputs": [
        {
          "internalType": "address",
          "name": "newImplementation",
          "type": "address"
        }
      ],
      "name": "upgradeTo",
      "outputs": [],
      "stateMutability": "nonpayable",
      "type": "function"
    },
    {
      "inputs": [
        {
          "internalType": "address",
          "name": "newImplementation",
          "type": "address"
        },
        {
          "internalType": "bytes",
          "name": "data",
          "type": "bytes"
        }
      ],
      "name": "upgradeToAndCall",
      "outputs": [],
      "stateMutability": "payable",
      "type": "function"
    },
    {
      "inputs": [
        {
          "internalType": "address",
          "name": "authedUser",
          "type": "address"
        }
      ],
      "name": "verifyMintExposureAccess",
      "outputs": [
        {
          "internalType": "bool",
          "name": "",
          "type": "bool"
        }
      ],
      "stateMutability": "view",
      "type": "function"
    },
    {
      "inputs": [],
      "name": "version",
      "outputs": [
        {
          "internalType": "string",
          "name": "",
          "type": "string"
        }
      ],
      "stateMutability": "view",
      "type": "function"
    }
  ],
  "bytecode": "0x60a06040523060805234801561001457600080fd5b5061001d610022565b6100e1565b600054610100900460ff161561008e5760405162461bcd60e51b815260206004820152602760248201527f496e697469616c697a61626c653a20636f6e747261637420697320696e697469604482015266616c697a696e6760c81b606482015260840160405180910390fd5b60005460ff908116146100df576000805460ff191660ff9081179091556040519081527f7f26b83ff96e1f2b6a682f133852f6798a09c465da95921460cefb38474024989060200160405180910390a15b565b6080516120f361011860003960008181610bb701528181610bf701528181610caf01528181610cef0152610d6701526120f36000f3fe6080604052600436106101ae5760003560e01c80634f1ef286116100ed5780639e2a2046116100905780639e2a204614610514578063a217fddf14610534578063a2a61aed14610549578063a4018f1314610569578063d547741f1461058b578063e0024604146105ab578063e1b961f4146105c9578063e7e4b8db146105e9578063f87fd33a1461060957600080fd5b80634f1ef2861461040257806352d1902d1461041557806354fd4d501461042a5780636ca5d56d1461046457806375b238fc146104845780637f2fdf48146104a6578063841e4561146104d457806391d14854146104f457600080fd5b806329392ac71161015557806329392ac7146102fe5780632ce810741461031e5780632f2ff15d1461033e57806336568abe1461035e5780633659cfe61461037e5780633f67c5611461039e578063430730a3146103be5780634bb4193c146103e057600080fd5b806301ffc9a7146101b3578063025f1a5e146101e8578063044857071461021a5780631459457a1461023c57806315aa2d741461025c578063201a66251461027c578063248a9ca3146102ac57806327df3d3e146102dc575b600080fd5b3480156101bf57600080fd5b506101d36101ce366004611adf565b610629565b60405190151581526020015b60405180910390f35b3480156101f457600080fd5b5060fc546001600160a01b03165b6040516001600160a01b0390911681526020016101df565b34801561022657600080fd5b5061023a610235366004611b25565b610660565b005b34801561024857600080fd5b5061023a610257366004611b40565b610694565b34801561026857600080fd5b506101d3610277366004611b25565b6109dc565b34801561028857600080fd5b5061029e600080516020611ff783398151915281565b6040519081526020016101df565b3480156102b857600080fd5b5061029e6102c7366004611ba5565b60009081526065602052604090206001015490565b3480156102e857600080fd5b5061029e60008051602061201783398151915281565b34801561030a57600080fd5b5061023a610319366004611b25565b6109f6565b34801561032a57600080fd5b5061023a610339366004611b25565b610ad9565b34801561034a57600080fd5b5061023a610359366004611bbe565b610b09565b34801561036a57600080fd5b5061023a610379366004611bbe565b610b33565b34801561038a57600080fd5b5061023a610399366004611b25565b610bad565b3480156103aa57600080fd5b5061023a6103b9366004611b25565b610c75565b3480156103ca57600080fd5b5061029e600080516020611fb783398151915281565b3480156103ec57600080fd5b5061029e60008051602061207e83398151915281565b61023a610410366004611c00565b610ca5565b34801561042157600080fd5b5061029e610d5a565b34801561043657600080fd5b50604080518082018252600b81526a19195d995b1bdc1b595b9d60aa1b602082015290516101df9190611ce6565b34801561047057600080fd5b5061023a61047f366004611d19565b610e08565b34801561049057600080fd5b5061029e60008051602061209e83398151915281565b3480156104b257600080fd5b506104c66104c1366004611ba5565b610fac565b6040516101df929190611d43565b3480156104e057600080fd5b5061023a6104ef366004611b25565b61104b565b34801561050057600080fd5b506101d361050f366004611bbe565b611113565b34801561052057600080fd5b5061023a61052f366004611b25565b61113e565b34801561054057600080fd5b5061029e600081565b34801561055557600080fd5b5061023a610564366004611da8565b6111cf565b34801561057557600080fd5b5061029e600080516020611fd783398151915281565b34801561059757600080fd5b5061023a6105a6366004611bbe565b611272565b3480156105b757600080fd5b5060fb546001600160a01b0316610202565b3480156105d557600080fd5b5061023a6105e4366004611b25565b611297565b3480156105f557600080fd5b506101d3610604366004611b25565b611320565b34801561061557600080fd5b5061023a610624366004611b25565b61132b565b60006001600160e01b03198216637965db0b60e01b148061065a57506301ffc9a760e01b6001600160e01b03198316145b92915050565b60008051602061209e8339815191526106788161135b565b61069060008051602061201783398151915283611365565b5050565b600054610100900460ff16158080156106b45750600054600160ff909116105b806106d557506106c3306113eb565b1580156106d5575060005460ff166001145b61073d5760405162461bcd60e51b815260206004820152602e60248201527f496e697469616c697a61626c653a20636f6e747261637420697320616c72656160448201526d191e481a5b9a5d1a585b1a5e995960921b60648201526084015b60405180910390fd5b6000805460ff191660011790558015610760576000805461ff0019166101001790555b6107686113fa565b6107706113fa565b6001600160a01b0384166107c65760405162461bcd60e51b815260206004820181905260248201527f636f6e74726f6c6c65722061646d696e206973207a65726f20616464726573736044820152606401610734565b6001600160a01b03831661081c5760405162461bcd60e51b815260206004820152601d60248201527f6465766f70732077616c6c6574206973207a65726f20616464726573730000006044820152606401610734565b6001600160a01b0382166108725760405162461bcd60e51b815260206004820152601c60248201527f61646d696e2077616c6c6574206973207a65726f2061646472657373000000006044820152606401610734565b61088a60008051602061207e83398151915285611365565b6108a2600080516020611ff783398151915284611365565b6108ba60008051602061209e83398151915283611365565b6001600160a01b03861661090b5760405162461bcd60e51b81526020600482015260186024820152777472656173757279206973207a65726f206164647265737360401b6044820152606401610734565b60fb80546001600160a01b0319166001600160a01b038881169190911790915585166109735760405162461bcd60e51b815260206004820152601760248201527672657365727665206973207a65726f206164647265737360481b6044820152606401610734565b60fc80546001600160a01b0319166001600160a01b03871617905580156109d4576000805461ff0019169055604051600181527f7f26b83ff96e1f2b6a682f133852f6798a09c465da95921460cefb38474024989060200160405180910390a15b505050505050565b600061065a600080516020611fd783398151915283611113565b600080516020611ff7833981519152610a0e8161135b565b60fc546001600160a01b0390811690831603610a7a5760405162461bcd60e51b815260206004820152602560248201527f4e6f206368616e676520696e2070726f746f636f6c2072657365727665206164604482015264647265737360d81b6064820152608401610734565b60fc80546001600160a01b038481166001600160a01b0319831681179093556040519116917f2d7faa6887bec3599aecfe7648b4488b13aed14af1639d48ff942da0c10c552d91610acc918491611dd4565b60405180910390a1505050565b600080516020612017833981519152610af18161135b565b610690600080516020611fb783398151915283611365565b600082815260656020526040902060010154610b248161135b565b610b2e8383611365565b505050565b6001600160a01b0381163314610ba35760405162461bcd60e51b815260206004820152602f60248201527f416363657373436f6e74726f6c3a2063616e206f6e6c792072656e6f756e636560448201526e103937b632b9903337b91039b2b63360891b6064820152608401610734565b6106908282611467565b6001600160a01b037f0000000000000000000000000000000000000000000000000000000000000000163003610bf55760405162461bcd60e51b815260040161073490611dee565b7f00000000000000000000000000000000000000000000000000000000000000006001600160a01b0316610c276114ce565b6001600160a01b031614610c4d5760405162461bcd60e51b815260040161073490611e3a565b610c56816114ea565b60408051600080825260208201909252610c7291839190611502565b50565b60008051602061209e833981519152610c8d8161135b565b610690600080516020611fd783398151915283611467565b6001600160a01b037f0000000000000000000000000000000000000000000000000000000000000000163003610ced5760405162461bcd60e51b815260040161073490611dee565b7f00000000000000000000000000000000000000000000000000000000000000006001600160a01b0316610d1f6114ce565b6001600160a01b031614610d455760405162461bcd60e51b815260040161073490611e3a565b610d4e826114ea565b61069082826001611502565b6000306001600160a01b037f00000000000000000000000000000000000000000000000000000000000000001614610df55760405162461bcd60e51b815260206004820152603860248201527f555550535570677261646561626c653a206d757374206e6f742062652063616c6044820152771b1959081d1a1c9bdd59da0819195b1959d85d1958d85b1b60421b6064820152608401610734565b5060008051602061203783398151915290565b600080516020611ff7833981519152610e208161135b565b6001600160a01b038316610e915760405162461bcd60e51b815260206004820152603260248201527f4f6c6420436f6e74726f6c6c65722041646d696e2057616c6c65742063616e6e6044820152716f74206265207a65726f206164647265737360701b6064820152608401610734565b6001600160a01b038216610f025760405162461bcd60e51b815260206004820152603260248201527f4e657720436f6e74726f6c6c65722041646d696e2057616c6c65742063616e6e6044820152716f74206265207a65726f206164647265737360701b6064820152608401610734565b610f1a60008051602061207e83398151915284611113565b610f7c5760405162461bcd60e51b815260206004820152602d60248201527f696e636f7272656374206f6c6420636f6e74726f6c6c65722061646d696e207760448201526c616c6c6574206164647265737360981b6064820152608401610734565b610f9460008051602061207e83398151915284611467565b610b2e60008051602061207e83398151915283611365565b600081815260fe60209081526040808320805482518185028101850190935280835260609493849084015b828210156110275783829060005260206000209060030201604051806060016040529081600082015481526020016001820154815260200160028201548152505081526020019060010190610fd7565b50505060009485525060fe602052604090932060010154929360ff90931692915050565b600080516020611ff78339815191526110638161135b565b60fb546001600160a01b03908116908316036110c15760405162461bcd60e51b815260206004820152601d60248201527f4e6f206368616e676520696e20747265617375727920616464726573730000006044820152606401610734565b60fb80546001600160a01b038481166001600160a01b0319831681179093556040519116917f430359a6d97ced2b6f93c77a91e7ce9dfd43252eb91e916adba170485cd8a6a491610acc918491611dd4565b60009182526065602090815260408084206001600160a01b0393909316845291905290205460ff1690565b60008051602061207e8339815191526111568161135b565b61115f8261166d565b156111aa5760405162461bcd60e51b815260206004820152601b60248201527a436f6e747261637420697320616c726561647920696e205465726d60281b6044820152606401610734565b506001600160a01b0316600090815260fd60205260409020805460ff19166001179055565b600080516020611fb78339815191526111e78161135b565b600084815260fe602090815260408083208151606081018352878152808401878152429382019384528254600181810185558488529587208351600390920201908155905181860155925160029093019290925591820180549293919260ff169161125183611e9c565b91906101000a81548160ff021916908360ff16021790555050505050505050565b60008281526065602052604090206001015461128d8161135b565b610b2e8383611467565b60008051602061207e8339815191526112af8161135b565b6112b88261166d565b6112fe5760405162461bcd60e51b8152602060048201526017602482015276436f6e7472616374206973206e6f7420696e205465726d60481b6044820152606401610734565b506001600160a01b0316600090815260fd60205260409020805460ff19169055565b600061065a8261166d565b60008051602061209e8339815191526113438161135b565b610690600080516020611fd783398151915283611365565b610c72813361168b565b61136f8282611113565b6106905760008281526065602090815260408083206001600160a01b03851684529091529020805460ff191660011790556113a73390565b6001600160a01b0316816001600160a01b0316837f2f8788117e7eff1d82e926ec794901d17c78024a50270940304540a733656f0d60405160405180910390a45050565b6001600160a01b03163b151590565b600054610100900460ff166114655760405162461bcd60e51b815260206004820152602b60248201527f496e697469616c697a61626c653a20636f6e7472616374206973206e6f74206960448201526a6e697469616c697a696e6760a81b6064820152608401610734565b565b6114718282611113565b156106905760008281526065602090815260408083206001600160a01b0385168085529252808320805460ff1916905551339285917ff6391f5c32d9c69d2a47ea670b442974b53935d1edc7fd64eb21e047a839171b9190a45050565b600080516020612037833981519152546001600160a01b031690565b600080516020611ff78339815191526106908161135b565b7f4910fdfa16fed3260ed0e7147f7cc6da11a60208b5b9406d12a635614ffd91435460ff161561153557610b2e836116e4565b826001600160a01b03166352d1902d6040518163ffffffff1660e01b8152600401602060405180830381865afa92505050801561158f575060408051601f3d908101601f1916820190925261158c91810190611ebb565b60015b6115f25760405162461bcd60e51b815260206004820152602e60248201527f45524331393637557067726164653a206e657720696d706c656d656e7461746960448201526d6f6e206973206e6f74205555505360901b6064820152608401610734565b60008051602061203783398151915281146116615760405162461bcd60e51b815260206004820152602960248201527f45524331393637557067726164653a20756e737570706f727465642070726f786044820152681a58589b195555525160ba1b6064820152608401610734565b50610b2e83838361177e565b6001600160a01b0316600090815260fd602052604090205460ff1690565b6116958282611113565b610690576116a2816117a9565b6116ad8360206117bb565b6040516020016116be929190611ed4565b60408051601f198184030181529082905262461bcd60e51b825261073491600401611ce6565b6116ed816113eb565b61174f5760405162461bcd60e51b815260206004820152602d60248201527f455243313936373a206e657720696d706c656d656e746174696f6e206973206e60448201526c1bdd08184818dbdb9d1c9858dd609a1b6064820152608401610734565b60008051602061203783398151915280546001600160a01b0319166001600160a01b0392909216919091179055565b6117878361195e565b6000825111806117945750805b15610b2e576117a3838361199e565b50505050565b606061065a6001600160a01b03831660145b606060006117ca836002611f43565b6117d5906002611f5a565b67ffffffffffffffff8111156117ed576117ed611bea565b6040519080825280601f01601f191660200182016040528015611817576020820181803683370190505b509050600360fc1b8160008151811061183257611832611f6d565b60200101906001600160f81b031916908160001a905350600f60fb1b8160018151811061186157611861611f6d565b60200101906001600160f81b031916908160001a9053506000611885846002611f43565b611890906001611f5a565b90505b6001811115611908576f181899199a1a9b1b9c1cb0b131b232b360811b85600f16601081106118c4576118c4611f6d565b1a60f81b8282815181106118da576118da611f6d565b60200101906001600160f81b031916908160001a90535060049490941c9361190181611f83565b9050611893565b5083156119575760405162461bcd60e51b815260206004820181905260248201527f537472696e67733a20686578206c656e67746820696e73756666696369656e746044820152606401610734565b9392505050565b611967816116e4565b6040516001600160a01b038216907fbc7cd75a20ee27fd9adebab32041f755214dbc6bffa90cc0225b39da2e5c2d3b90600090a250565b60606119578383604051806060016040528060278152602001612057602791396060600080856001600160a01b0316856040516119db9190611f9a565b600060405180830381855af49150503d8060008114611a16576040519150601f19603f3d011682016040523d82523d6000602084013e611a1b565b606091505b5091509150611a2c86838387611a36565b9695505050505050565b60608315611aa3578251600003611a9c57611a50856113eb565b611a9c5760405162461bcd60e51b815260206004820152601d60248201527f416464726573733a2063616c6c20746f206e6f6e2d636f6e74726163740000006044820152606401610734565b5081611aad565b611aad8383611ab5565b949350505050565b815115611ac55781518083602001fd5b8060405162461bcd60e51b81526004016107349190611ce6565b600060208284031215611af157600080fd5b81356001600160e01b03198116811461195757600080fd5b80356001600160a01b0381168114611b2057600080fd5b919050565b600060208284031215611b3757600080fd5b61195782611b09565b600080600080600060a08688031215611b5857600080fd5b611b6186611b09565b9450611b6f60208701611b09565b9350611b7d60408701611b09565b9250611b8b60608701611b09565b9150611b9960808701611b09565b90509295509295909350565b600060208284031215611bb757600080fd5b5035919050565b60008060408385031215611bd157600080fd5b82359150611be160208401611b09565b90509250929050565b634e487b7160e01b600052604160045260246000fd5b60008060408385031215611c1357600080fd5b611c1c83611b09565b9150602083013567ffffffffffffffff80821115611c3957600080fd5b818501915085601f830112611c4d57600080fd5b813581811115611c5f57611c5f611bea565b604051601f8201601f19908116603f01168101908382118183101715611c8757611c87611bea565b81604052828152886020848701011115611ca057600080fd5b8260208601602083013760006020848301015280955050505050509250929050565b60005b83811015611cdd578181015183820152602001611cc5565b50506000910152565b6020815260008251806020840152611d05816040850160208701611cc2565b601f01601f19169190910160400192915050565b60008060408385031215611d2c57600080fd5b611d3583611b09565b9150611be160208401611b09565b6040808252835182820181905260009190606090818501906020808901865b83811015611d8f578151805186528381015184870152870151878601529385019390820190600101611d62565b505082955060ff88168188015250505050509392505050565b600080600060608486031215611dbd57600080fd5b505081359360208301359350604090920135919050565b6001600160a01b0392831681529116602082015260400190565b6020808252602c908201527f46756e6374696f6e206d7573742062652063616c6c6564207468726f7567682060408201526b19195b1959d85d1958d85b1b60a21b606082015260800190565b6020808252602c908201527f46756e6374696f6e206d7573742062652063616c6c6564207468726f7567682060408201526b6163746976652070726f787960a01b606082015260800190565b634e487b7160e01b600052601160045260246000fd5b600060ff821660ff8103611eb257611eb2611e86565b60010192915050565b600060208284031215611ecd57600080fd5b5051919050565b76020b1b1b2b9b9a1b7b73a3937b61d1030b1b1b7bab73a1604d1b815260008351611f06816017850160208801611cc2565b7001034b99036b4b9b9b4b733903937b6329607d1b6017918401918201528351611f37816028840160208801611cc2565b01602801949350505050565b808202811582820484141761065a5761065a611e86565b8082018082111561065a5761065a611e86565b634e487b7160e01b600052603260045260246000fd5b600081611f9257611f92611e86565b506000190190565b60008251611fac818460208701611cc2565b919091019291505056fec5e2d1653feba496cf5ce3a744b90ea18acf0df3d036aba9b2f85992a1467906cee578699694e0144c2aba4ed7fb4e9131a3e2dbd751e7f11a646cc6a39d67bd793a6c9b7e0a9549c74edc2f9ae0dc50903dfaa9a56fb0116b27a8c71de3e2c630d41a597cac127d8249d31298b50e481ee82c3f4a49ff93c76a22735aa9f3ad360894a13ba1a3210667c828492db98dca3e2076cc3735a920a3ca505d382bbc416464726573733a206c6f772d6c6576656c2064656c65676174652063616c6c206661696c65649027349758afcb3649adbc1f090fcd4eb9187cfbbd22483c7d103367d7b50173a49807205ce4d355092ef5a8a18f56e8913cf4a201fbe287825b095693c21775a2646970667358221220f5f99f333f77d9767dc1a4a6437f2db0112f8ac58c5b228e14971cd6fe0a869964736f6c63430008120033",
  "linkReferences": {},
  "deployedLinkReferences": {}
}