{
  "_format": "hh-sol-artifact-1",
  "contractName": "TermController",
  "sourceName": "contracts/TermController.sol",
  "abi": [
    {
      "inputs": [],
      "stateMutability": "nonpayable",
      "type": "constructor"
    },
    {
      "anonymous": false,
      "inputs": [
        {
          "indexed": false,
          "internalType": "address",
          "name": "previousAdmin",
          "type": "address"
        },
        {
          "indexed": false,
          "internalType": "address",
          "name": "newAdmin",
          "type": "address"
        }
      ],
      "name": "AdminChanged",
      "type": "event"
    },
    {
      "anonymous": false,
      "inputs": [
        {
          "indexed": true,
          "internalType": "address",
          "name": "beacon",
          "type": "address"
        }
      ],
      "name": "BeaconUpgraded",
      "type": "event"
    },
    {
      "anonymous": false,
      "inputs": [
        {
          "indexed": false,
          "internalType": "uint8",
          "name": "version",
          "type": "uint8"
        }
      ],
      "name": "Initialized",
      "type": "event"
    },
    {
      "anonymous": false,
      "inputs": [
        {
          "indexed": false,
          "internalType": "address",
          "name": "oldProtocolReserveAddress",
          "type": "address"
        },
        {
          "indexed": false,
          "internalType": "address",
          "name": "newProtocolReserveAddress",
          "type": "address"
        }
      ],
      "name": "ProtocolReserveAddressUpdated",
      "type": "event"
    },
    {
      "anonymous": false,
      "inputs": [
        {
          "indexed": true,
          "internalType": "bytes32",
          "name": "role",
          "type": "bytes32"
        },
        {
          "indexed": true,
          "internalType": "bytes32",
          "name": "previousAdminRole",
          "type": "bytes32"
        },
        {
          "indexed": true,
          "internalType": "bytes32",
          "name": "newAdminRole",
          "type": "bytes32"
        }
      ],
      "name": "RoleAdminChanged",
      "type": "event"
    },
    {
      "anonymous": false,
      "inputs": [
        {
          "indexed": true,
          "internalType": "bytes32",
          "name": "role",
          "type": "bytes32"
        },
        {
          "indexed": true,
          "internalType": "address",
          "name": "account",
          "type": "address"
        },
        {
          "indexed": true,
          "internalType": "address",
          "name": "sender",
          "type": "address"
        }
      ],
      "name": "RoleGranted",
      "type": "event"
    },
    {
      "anonymous": false,
      "inputs": [
        {
          "indexed": true,
          "internalType": "bytes32",
          "name": "role",
          "type": "bytes32"
        },
        {
          "indexed": true,
          "internalType": "address",
          "name": "account",
          "type": "address"
        },
        {
          "indexed": true,
          "internalType": "address",
          "name": "sender",
          "type": "address"
        }
      ],
      "name": "RoleRevoked",
      "type": "event"
    },
    {
      "anonymous": false,
      "inputs": [
        {
          "indexed": false,
          "internalType": "address",
          "name": "oldTreasuryAddress",
          "type": "address"
        },
        {
          "indexed": false,
          "internalType": "address",
          "name": "newTreasuryAddress",
          "type": "address"
        }
      ],
      "name": "TreasuryAddressUpdated",
      "type": "event"
    },
    {
      "anonymous": false,
      "inputs": [
        {
          "indexed": true,
          "internalType": "address",
          "name": "implementation",
          "type": "address"
        }
      ],
      "name": "Upgraded",
      "type": "event"
    },
    {
      "inputs": [],
      "name": "CONTROLLER_ADMIN_ROLE",
      "outputs": [
        {
          "internalType": "bytes32",
          "name": "",
          "type": "bytes32"
        }
      ],
      "stateMutability": "view",
      "type": "function"
    },
    {
      "inputs": [],
      "name": "DEFAULT_ADMIN_ROLE",
      "outputs": [
        {
          "internalType": "bytes32",
          "name": "",
          "type": "bytes32"
        }
      ],
      "stateMutability": "view",
      "type": "function"
    },
    {
      "inputs": [],
      "name": "DEVOPS_ROLE",
      "outputs": [
        {
          "internalType": "bytes32",
          "name": "",
          "type": "bytes32"
        }
      ],
      "stateMutability": "view",
      "type": "function"
    },
    {
      "inputs": [],
      "name": "EVERGREEN_MANAGEMENT_ROLE",
      "outputs": [
        {
          "internalType": "bytes32",
          "name": "",
          "type": "bytes32"
        }
      ],
      "stateMutability": "view",
      "type": "function"
    },
    {
      "inputs": [],
      "name": "getProtocolReserveAddress",
      "outputs": [
        {
          "internalType": "address",
          "name": "",
          "type": "address"
        }
      ],
      "stateMutability": "view",
      "type": "function"
    },
    {
      "inputs": [
        {
          "internalType": "bytes32",
          "name": "role",
          "type": "bytes32"
        }
      ],
      "name": "getRoleAdmin",
      "outputs": [
        {
          "internalType": "bytes32",
          "name": "",
          "type": "bytes32"
        }
      ],
      "stateMutability": "view",
      "type": "function"
    },
    {
      "inputs": [],
      "name": "getTreasuryAddress",
      "outputs": [
        {
          "internalType": "address",
          "name": "",
          "type": "address"
        }
      ],
      "stateMutability": "view",
      "type": "function"
    },
    {
      "inputs": [
        {
          "internalType": "bytes32",
          "name": "role",
          "type": "bytes32"
        },
        {
          "internalType": "address",
          "name": "account",
          "type": "address"
        }
      ],
      "name": "grantRole",
      "outputs": [],
      "stateMutability": "nonpayable",
      "type": "function"
    },
    {
      "inputs": [
        {
          "internalType": "bytes32",
          "name": "role",
          "type": "bytes32"
        },
        {
          "internalType": "address",
          "name": "account",
          "type": "address"
        }
      ],
      "name": "hasRole",
      "outputs": [
        {
          "internalType": "bool",
          "name": "",
          "type": "bool"
        }
      ],
      "stateMutability": "view",
      "type": "function"
    },
    {
      "inputs": [
        {
          "internalType": "address",
          "name": "treasuryWallet_",
          "type": "address"
        },
        {
          "internalType": "address",
          "name": "protocolReserveWallet_",
          "type": "address"
        },
        {
          "internalType": "address",
          "name": "controllerAdminWallet_",
          "type": "address"
        },
        {
          "internalType": "address",
          "name": "devopsWallet_",
          "type": "address"
        },
        {
          "internalType": "address",
          "name": "evergreenManagementWallet_",
          "type": "address"
        }
      ],
      "name": "initialize",
      "outputs": [],
      "stateMutability": "nonpayable",
      "type": "function"
    },
    {
      "inputs": [
        {
          "internalType": "address",
          "name": "contractAddress",
          "type": "address"
        }
      ],
      "name": "isTermDeployed",
      "outputs": [
        {
          "internalType": "bool",
          "name": "",
          "type": "bool"
        }
      ],
      "stateMutability": "view",
      "type": "function"
    },
    {
      "inputs": [
        {
          "internalType": "address",
          "name": "termContract",
          "type": "address"
        }
      ],
      "name": "markTermDeployed",
      "outputs": [],
      "stateMutability": "nonpayable",
      "type": "function"
    },
    {
      "inputs": [],
      "name": "proxiableUUID",
      "outputs": [
        {
          "internalType": "bytes32",
          "name": "",
          "type": "bytes32"
        }
      ],
      "stateMutability": "view",
      "type": "function"
    },
    {
      "inputs": [
        {
          "internalType": "bytes32",
          "name": "role",
          "type": "bytes32"
        },
        {
          "internalType": "address",
          "name": "account",
          "type": "address"
        }
      ],
      "name": "renounceRole",
      "outputs": [],
      "stateMutability": "nonpayable",
      "type": "function"
    },
    {
      "inputs": [
        {
          "internalType": "bytes32",
          "name": "role",
          "type": "bytes32"
        },
        {
          "internalType": "address",
          "name": "account",
          "type": "address"
        }
      ],
      "name": "revokeRole",
      "outputs": [],
      "stateMutability": "nonpayable",
      "type": "function"
    },
    {
      "inputs": [
        {
          "internalType": "bytes4",
          "name": "interfaceId",
          "type": "bytes4"
        }
      ],
      "name": "supportsInterface",
      "outputs": [
        {
          "internalType": "bool",
          "name": "",
          "type": "bool"
        }
      ],
      "stateMutability": "view",
      "type": "function"
    },
    {
      "inputs": [
        {
          "internalType": "address",
          "name": "termContract",
          "type": "address"
        }
      ],
      "name": "unmarkTermDeployed",
      "outputs": [],
      "stateMutability": "nonpayable",
      "type": "function"
    },
    {
      "inputs": [
        {
          "internalType": "address",
          "name": "oldControllerAdminWallet",
          "type": "address"
        },
        {
          "internalType": "address",
          "name": "newControllerAdminWallet",
          "type": "address"
        }
      ],
      "name": "updateControllerAdminWallet",
      "outputs": [],
      "stateMutability": "nonpayable",
      "type": "function"
    },
    {
      "inputs": [
        {
          "internalType": "address",
          "name": "newProtocolReserveWallet",
          "type": "address"
        }
      ],
      "name": "updateProtocolReserveAddress",
      "outputs": [],
      "stateMutability": "nonpayable",
      "type": "function"
    },
    {
      "inputs": [
        {
          "internalType": "address",
          "name": "newTreasuryWallet",
          "type": "address"
        }
      ],
      "name": "updateTreasuryAddress",
      "outputs": [],
      "stateMutability": "nonpayable",
      "type": "function"
    },
    {
      "inputs": [
        {
          "internalType": "address",
          "name": "newImplementation",
          "type": "address"
        }
      ],
      "name": "upgradeTo",
      "outputs": [],
      "stateMutability": "nonpayable",
      "type": "function"
    },
    {
      "inputs": [
        {
          "internalType": "address",
          "name": "newImplementation",
          "type": "address"
        },
        {
          "internalType": "bytes",
          "name": "data",
          "type": "bytes"
        }
      ],
      "name": "upgradeToAndCall",
      "outputs": [],
      "stateMutability": "payable",
      "type": "function"
    },
    {
      "inputs": [],
      "name": "version",
      "outputs": [
        {
          "internalType": "string",
          "name": "",
          "type": "string"
        }
      ],
      "stateMutability": "view",
      "type": "function"
    }
  ],
  "bytecode": "0x60a06040523060805234801561001457600080fd5b5061001d610022565b6100e1565b600054610100900460ff161561008e5760405162461bcd60e51b815260206004820152602760248201527f496e697469616c697a61626c653a20636f6e747261637420697320696e697469604482015266616c697a696e6760c81b606482015260840160405180910390fd5b60005460ff908116146100df576000805460ff191660ff9081179091556040519081527f7f26b83ff96e1f2b6a682f133852f6798a09c465da95921460cefb38474024989060200160405180910390a15b565b608051611ae36101186000396000818161085901528181610899015281816109210152818161096101526109d90152611ae36000f3fe6080604052600436106101205760003560e01c80634f1ef286116100a65780634f1ef286146102d257806352d1902d146102e557806354fd4d50146102fa5780636ca5d56d14610334578063841e45611461035457806391d14854146103745780639e2a204614610394578063a217fddf146103b4578063d547741f146103c9578063e0024604146103e9578063e1b961f414610407578063e7e4b8db1461042757600080fd5b806301ffc9a714610125578063025f1a5e1461015a5780631459457a1461018c578063201a6625146101ae578063248a9ca3146101de57806329392ac71461020e5780632f2ff15d1461022e578063351857311461024e57806336568abe146102705780633659cfe6146102905780634bb4193c146102b0575b600080fd5b34801561013157600080fd5b506101456101403660046115df565b610447565b60405190151581526020015b60405180910390f35b34801561016657600080fd5b5060fc546001600160a01b03165b6040516001600160a01b039091168152602001610151565b34801561019857600080fd5b506101ac6101a7366004611625565b61047e565b005b3480156101ba57600080fd5b506101d0600080516020611a0783398151915281565b604051908152602001610151565b3480156101ea57600080fd5b506101d06101f936600461168a565b60009081526065602052604090206001015490565b34801561021a57600080fd5b506101ac6102293660046116a3565b6106c4565b34801561023a57600080fd5b506101ac6102493660046116be565b6107a7565b34801561025a57600080fd5b506101d0600080516020611a4783398151915281565b34801561027c57600080fd5b506101ac61028b3660046116be565b6107d1565b34801561029c57600080fd5b506101ac6102ab3660046116a3565b61084f565b3480156102bc57600080fd5b506101d0600080516020611a8e83398151915281565b6101ac6102e0366004611700565b610917565b3480156102f157600080fd5b506101d06109cc565b34801561030657600080fd5b50604080518082018252600b81526a19195d995b1bdc1b595b9d60aa1b6020820152905161015191906117e6565b34801561034057600080fd5b506101ac61034f366004611819565b610a7a565b34801561036057600080fd5b506101ac61036f3660046116a3565b610c1e565b34801561038057600080fd5b5061014561038f3660046116be565b610ce6565b3480156103a057600080fd5b506101ac6103af3660046116a3565b610d11565b3480156103c057600080fd5b506101d0600081565b3480156103d557600080fd5b506101ac6103e43660046116be565b610da2565b3480156103f557600080fd5b5060fb546001600160a01b0316610174565b34801561041357600080fd5b506101ac6104223660046116a3565b610dc7565b34801561043357600080fd5b506101456104423660046116a3565b610e50565b60006001600160e01b03198216637965db0b60e01b148061047857506301ffc9a760e01b6001600160e01b03198316145b92915050565b600054610100900460ff161580801561049e5750600054600160ff909116105b806104bf57506104ad30610e5b565b1580156104bf575060005460ff166001145b6105275760405162461bcd60e51b815260206004820152602e60248201527f496e697469616c697a61626c653a20636f6e747261637420697320616c72656160448201526d191e481a5b9a5d1a585b1a5e995960921b60648201526084015b60405180910390fd5b6000805460ff19166001179055801561054a576000805461ff0019166101001790555b610552610e6a565b61055a610e6a565b610572600080516020611a8e83398151915285610ed7565b61058a600080516020611a0783398151915284610ed7565b6105a2600080516020611a4783398151915283610ed7565b6001600160a01b0386166105f35760405162461bcd60e51b81526020600482015260186024820152777472656173757279206973207a65726f206164647265737360401b604482015260640161051e565b60fb80546001600160a01b0319166001600160a01b0388811691909117909155851661065b5760405162461bcd60e51b815260206004820152601760248201527672657365727665206973207a65726f206164647265737360481b604482015260640161051e565b60fc80546001600160a01b0319166001600160a01b03871617905580156106bc576000805461ff0019169055604051600181527f7f26b83ff96e1f2b6a682f133852f6798a09c465da95921460cefb38474024989060200160405180910390a15b505050505050565b600080516020611a078339815191526106dc81610f5d565b60fc546001600160a01b03908116908316036107485760405162461bcd60e51b815260206004820152602560248201527f4e6f206368616e676520696e2070726f746f636f6c2072657365727665206164604482015264647265737360d81b606482015260840161051e565b60fc80546001600160a01b038481166001600160a01b0319831681179093556040519116917f2d7faa6887bec3599aecfe7648b4488b13aed14af1639d48ff942da0c10c552d9161079a918491611843565b60405180910390a1505050565b6000828152606560205260409020600101546107c281610f5d565b6107cc8383610ed7565b505050565b6001600160a01b03811633146108415760405162461bcd60e51b815260206004820152602f60248201527f416363657373436f6e74726f6c3a2063616e206f6e6c792072656e6f756e636560448201526e103937b632b9903337b91039b2b63360891b606482015260840161051e565b61084b8282610f67565b5050565b6001600160a01b037f00000000000000000000000000000000000000000000000000000000000000001630036108975760405162461bcd60e51b815260040161051e9061185d565b7f00000000000000000000000000000000000000000000000000000000000000006001600160a01b03166108c9610fce565b6001600160a01b0316146108ef5760405162461bcd60e51b815260040161051e906118a9565b6108f881610fea565b6040805160008082526020820190925261091491839190611002565b50565b6001600160a01b037f000000000000000000000000000000000000000000000000000000000000000016300361095f5760405162461bcd60e51b815260040161051e9061185d565b7f00000000000000000000000000000000000000000000000000000000000000006001600160a01b0316610991610fce565b6001600160a01b0316146109b75760405162461bcd60e51b815260040161051e906118a9565b6109c082610fea565b61084b82826001611002565b6000306001600160a01b037f00000000000000000000000000000000000000000000000000000000000000001614610a675760405162461bcd60e51b815260206004820152603860248201527f555550535570677261646561626c653a206d757374206e6f742062652063616c6044820152771b1959081d1a1c9bdd59da0819195b1959d85d1958d85b1b60421b606482015260840161051e565b50600080516020611a2783398151915290565b600080516020611a47833981519152610a9281610f5d565b6001600160a01b038316610b035760405162461bcd60e51b815260206004820152603260248201527f4f6c6420436f6e74726f6c6c65722041646d696e2057616c6c65742063616e6e6044820152716f74206265207a65726f206164647265737360701b606482015260840161051e565b6001600160a01b038216610b745760405162461bcd60e51b815260206004820152603260248201527f4e657720436f6e74726f6c6c65722041646d696e2057616c6c65742063616e6e6044820152716f74206265207a65726f206164647265737360701b606482015260840161051e565b610b8c600080516020611a8e83398151915284610ce6565b610bee5760405162461bcd60e51b815260206004820152602d60248201527f696e636f7272656374206f6c6420636f6e74726f6c6c65722061646d696e207760448201526c616c6c6574206164647265737360981b606482015260840161051e565b610c06600080516020611a8e83398151915284610f67565b6107cc600080516020611a8e83398151915283610ed7565b600080516020611a07833981519152610c3681610f5d565b60fb546001600160a01b0390811690831603610c945760405162461bcd60e51b815260206004820152601d60248201527f4e6f206368616e676520696e2074726561737572792061646472657373000000604482015260640161051e565b60fb80546001600160a01b038481166001600160a01b0319831681179093556040519116917f430359a6d97ced2b6f93c77a91e7ce9dfd43252eb91e916adba170485cd8a6a49161079a918491611843565b60009182526065602090815260408084206001600160a01b0393909316845291905290205460ff1690565b600080516020611a8e833981519152610d2981610f5d565b610d328261116d565b15610d7d5760405162461bcd60e51b815260206004820152601b60248201527a436f6e747261637420697320616c726561647920696e205465726d60281b604482015260640161051e565b506001600160a01b0316600090815260fd60205260409020805460ff19166001179055565b600082815260656020526040902060010154610dbd81610f5d565b6107cc8383610f67565b600080516020611a8e833981519152610ddf81610f5d565b610de88261116d565b610e2e5760405162461bcd60e51b8152602060048201526017602482015276436f6e7472616374206973206e6f7420696e205465726d60481b604482015260640161051e565b506001600160a01b0316600090815260fd60205260409020805460ff19169055565b60006104788261116d565b6001600160a01b03163b151590565b600054610100900460ff16610ed55760405162461bcd60e51b815260206004820152602b60248201527f496e697469616c697a61626c653a20636f6e7472616374206973206e6f74206960448201526a6e697469616c697a696e6760a81b606482015260840161051e565b565b610ee18282610ce6565b61084b5760008281526065602090815260408083206001600160a01b03851684529091529020805460ff19166001179055610f193390565b6001600160a01b0316816001600160a01b0316837f2f8788117e7eff1d82e926ec794901d17c78024a50270940304540a733656f0d60405160405180910390a45050565b610914813361118b565b610f718282610ce6565b1561084b5760008281526065602090815260408083206001600160a01b0385168085529252808320805460ff1916905551339285917ff6391f5c32d9c69d2a47ea670b442974b53935d1edc7fd64eb21e047a839171b9190a45050565b600080516020611a27833981519152546001600160a01b031690565b600080516020611a0783398151915261084b81610f5d565b7f4910fdfa16fed3260ed0e7147f7cc6da11a60208b5b9406d12a635614ffd91435460ff1615611035576107cc836111e4565b826001600160a01b03166352d1902d6040518163ffffffff1660e01b8152600401602060405180830381865afa92505050801561108f575060408051601f3d908101601f1916820190925261108c918101906118f5565b60015b6110f25760405162461bcd60e51b815260206004820152602e60248201527f45524331393637557067726164653a206e657720696d706c656d656e7461746960448201526d6f6e206973206e6f74205555505360901b606482015260840161051e565b600080516020611a2783398151915281146111615760405162461bcd60e51b815260206004820152602960248201527f45524331393637557067726164653a20756e737570706f727465642070726f786044820152681a58589b195555525160ba1b606482015260840161051e565b506107cc83838361127e565b6001600160a01b0316600090815260fd602052604090205460ff1690565b6111958282610ce6565b61084b576111a2816112a9565b6111ad8360206112bb565b6040516020016111be92919061190e565b60408051601f198184030181529082905262461bcd60e51b825261051e916004016117e6565b6111ed81610e5b565b61124f5760405162461bcd60e51b815260206004820152602d60248201527f455243313936373a206e657720696d706c656d656e746174696f6e206973206e60448201526c1bdd08184818dbdb9d1c9858dd609a1b606482015260840161051e565b600080516020611a2783398151915280546001600160a01b0319166001600160a01b0392909216919091179055565b6112878361145e565b6000825111806112945750805b156107cc576112a3838361149e565b50505050565b60606104786001600160a01b03831660145b606060006112ca836002611993565b6112d59060026119aa565b67ffffffffffffffff8111156112ed576112ed6116ea565b6040519080825280601f01601f191660200182016040528015611317576020820181803683370190505b509050600360fc1b81600081518110611332576113326119bd565b60200101906001600160f81b031916908160001a905350600f60fb1b81600181518110611361576113616119bd565b60200101906001600160f81b031916908160001a9053506000611385846002611993565b6113909060016119aa565b90505b6001811115611408576f181899199a1a9b1b9c1cb0b131b232b360811b85600f16601081106113c4576113c46119bd565b1a60f81b8282815181106113da576113da6119bd565b60200101906001600160f81b031916908160001a90535060049490941c93611401816119d3565b9050611393565b5083156114575760405162461bcd60e51b815260206004820181905260248201527f537472696e67733a20686578206c656e67746820696e73756666696369656e74604482015260640161051e565b9392505050565b611467816111e4565b6040516001600160a01b038216907fbc7cd75a20ee27fd9adebab32041f755214dbc6bffa90cc0225b39da2e5c2d3b90600090a250565b60606114578383604051806060016040528060278152602001611a67602791396060600080856001600160a01b0316856040516114db91906119ea565b600060405180830381855af49150503d8060008114611516576040519150601f19603f3d011682016040523d82523d6000602084013e61151b565b606091505b509150915061152c86838387611536565b9695505050505050565b606083156115a357825160000361159c5761155085610e5b565b61159c5760405162461bcd60e51b815260206004820152601d60248201527f416464726573733a2063616c6c20746f206e6f6e2d636f6e7472616374000000604482015260640161051e565b50816115ad565b6115ad83836115b5565b949350505050565b8151156115c55781518083602001fd5b8060405162461bcd60e51b815260040161051e91906117e6565b6000602082840312156115f157600080fd5b81356001600160e01b03198116811461145757600080fd5b80356001600160a01b038116811461162057600080fd5b919050565b600080600080600060a0868803121561163d57600080fd5b61164686611609565b945061165460208701611609565b935061166260408701611609565b925061167060608701611609565b915061167e60808701611609565b90509295509295909350565b60006020828403121561169c57600080fd5b5035919050565b6000602082840312156116b557600080fd5b61145782611609565b600080604083850312156116d157600080fd5b823591506116e160208401611609565b90509250929050565b634e487b7160e01b600052604160045260246000fd5b6000806040838503121561171357600080fd5b61171c83611609565b9150602083013567ffffffffffffffff8082111561173957600080fd5b818501915085601f83011261174d57600080fd5b81358181111561175f5761175f6116ea565b604051601f8201601f19908116603f01168101908382118183101715611787576117876116ea565b816040528281528860208487010111156117a057600080fd5b8260208601602083013760006020848301015280955050505050509250929050565b60005b838110156117dd5781810151838201526020016117c5565b50506000910152565b60208152600082518060208401526118058160408501602087016117c2565b601f01601f19169190910160400192915050565b6000806040838503121561182c57600080fd5b61183583611609565b91506116e160208401611609565b6001600160a01b0392831681529116602082015260400190565b6020808252602c908201527f46756e6374696f6e206d7573742062652063616c6c6564207468726f7567682060408201526b19195b1959d85d1958d85b1b60a21b606082015260800190565b6020808252602c908201527f46756e6374696f6e206d7573742062652063616c6c6564207468726f7567682060408201526b6163746976652070726f787960a01b606082015260800190565b60006020828403121561190757600080fd5b5051919050565b76020b1b1b2b9b9a1b7b73a3937b61d1030b1b1b7bab73a1604d1b8152600083516119408160178501602088016117c2565b7001034b99036b4b9b9b4b733903937b6329607d1b60179184019182015283516119718160288401602088016117c2565b01602801949350505050565b634e487b7160e01b600052601160045260246000fd5b80820281158282048414176104785761047861197d565b808201808211156104785761047861197d565b634e487b7160e01b600052603260045260246000fd5b6000816119e2576119e261197d565b506000190190565b600082516119fc8184602087016117c2565b919091019291505056fe793a6c9b7e0a9549c74edc2f9ae0dc50903dfaa9a56fb0116b27a8c71de3e2c6360894a13ba1a3210667c828492db98dca3e2076cc3735a920a3ca505d382bbc0bb5a33d705086fce426ce4e2dd59328fcdddf3164b908c4c00fd1a185a702de416464726573733a206c6f772d6c6576656c2064656c65676174652063616c6c206661696c65649027349758afcb3649adbc1f090fcd4eb9187cfbbd22483c7d103367d7b50173a264697066735822122005fcc49465571840c1627c868dda7490b381a2430c0f32da347b5741b8b7281364736f6c63430008120033",
  "linkReferences": {},
  "deployedLinkReferences": {}
}