{
  "_format": "hh-sol-artifact-1",
  "contractName": "TermController",
  "sourceName": "contracts/TermController.sol",
  "abi": [
    {
      "inputs": [],
      "stateMutability": "nonpayable",
      "type": "constructor"
    },
    {
      "anonymous": false,
      "inputs": [
        {
          "indexed": false,
          "internalType": "address",
          "name": "previousAdmin",
          "type": "address"
        },
        {
          "indexed": false,
          "internalType": "address",
          "name": "newAdmin",
          "type": "address"
        }
      ],
      "name": "AdminChanged",
      "type": "event"
    },
    {
      "anonymous": false,
      "inputs": [
        {
          "indexed": true,
          "internalType": "address",
          "name": "beacon",
          "type": "address"
        }
      ],
      "name": "BeaconUpgraded",
      "type": "event"
    },
    {
      "anonymous": false,
      "inputs": [
        {
          "indexed": false,
          "internalType": "uint8",
          "name": "version",
          "type": "uint8"
        }
      ],
      "name": "Initialized",
      "type": "event"
    },
    {
      "anonymous": false,
      "inputs": [
        {
          "indexed": false,
          "internalType": "address",
          "name": "oldProtocolReserveAddress",
          "type": "address"
        },
        {
          "indexed": false,
          "internalType": "address",
          "name": "newProtocolReserveAddress",
          "type": "address"
        }
      ],
      "name": "ProtocolReserveAddressUpdated",
      "type": "event"
    },
    {
      "anonymous": false,
      "inputs": [
        {
          "indexed": true,
          "internalType": "bytes32",
          "name": "role",
          "type": "bytes32"
        },
        {
          "indexed": true,
          "internalType": "bytes32",
          "name": "previousAdminRole",
          "type": "bytes32"
        },
        {
          "indexed": true,
          "internalType": "bytes32",
          "name": "newAdminRole",
          "type": "bytes32"
        }
      ],
      "name": "RoleAdminChanged",
      "type": "event"
    },
    {
      "anonymous": false,
      "inputs": [
        {
          "indexed": true,
          "internalType": "bytes32",
          "name": "role",
          "type": "bytes32"
        },
        {
          "indexed": true,
          "internalType": "address",
          "name": "account",
          "type": "address"
        },
        {
          "indexed": true,
          "internalType": "address",
          "name": "sender",
          "type": "address"
        }
      ],
      "name": "RoleGranted",
      "type": "event"
    },
    {
      "anonymous": false,
      "inputs": [
        {
          "indexed": true,
          "internalType": "bytes32",
          "name": "role",
          "type": "bytes32"
        },
        {
          "indexed": true,
          "internalType": "address",
          "name": "account",
          "type": "address"
        },
        {
          "indexed": true,
          "internalType": "address",
          "name": "sender",
          "type": "address"
        }
      ],
      "name": "RoleRevoked",
      "type": "event"
    },
    {
      "anonymous": false,
      "inputs": [
        {
          "indexed": false,
          "internalType": "address",
          "name": "oldTreasuryAddress",
          "type": "address"
        },
        {
          "indexed": false,
          "internalType": "address",
          "name": "newTreasuryAddress",
          "type": "address"
        }
      ],
      "name": "TreasuryAddressUpdated",
      "type": "event"
    },
    {
      "anonymous": false,
      "inputs": [
        {
          "indexed": true,
          "internalType": "address",
          "name": "implementation",
          "type": "address"
        }
      ],
      "name": "Upgraded",
      "type": "event"
    },
    {
      "inputs": [],
      "name": "CONTROLLER_ADMIN_ROLE",
      "outputs": [
        {
          "internalType": "bytes32",
          "name": "",
          "type": "bytes32"
        }
      ],
      "stateMutability": "view",
      "type": "function"
    },
    {
      "inputs": [],
      "name": "DEFAULT_ADMIN_ROLE",
      "outputs": [
        {
          "internalType": "bytes32",
          "name": "",
          "type": "bytes32"
        }
      ],
      "stateMutability": "view",
      "type": "function"
    },
    {
      "inputs": [],
      "name": "DEVOPS_ROLE",
      "outputs": [
        {
          "internalType": "bytes32",
          "name": "",
          "type": "bytes32"
        }
      ],
      "stateMutability": "view",
      "type": "function"
    },
    {
      "inputs": [],
      "name": "getProtocolReserveAddress",
      "outputs": [
        {
          "internalType": "address",
          "name": "",
          "type": "address"
        }
      ],
      "stateMutability": "view",
      "type": "function"
    },
    {
      "inputs": [
        {
          "internalType": "bytes32",
          "name": "role",
          "type": "bytes32"
        }
      ],
      "name": "getRoleAdmin",
      "outputs": [
        {
          "internalType": "bytes32",
          "name": "",
          "type": "bytes32"
        }
      ],
      "stateMutability": "view",
      "type": "function"
    },
    {
      "inputs": [],
      "name": "getTreasuryAddress",
      "outputs": [
        {
          "internalType": "address",
          "name": "",
          "type": "address"
        }
      ],
      "stateMutability": "view",
      "type": "function"
    },
    {
      "inputs": [
        {
          "internalType": "bytes32",
          "name": "role",
          "type": "bytes32"
        },
        {
          "internalType": "address",
          "name": "account",
          "type": "address"
        }
      ],
      "name": "grantRole",
      "outputs": [],
      "stateMutability": "nonpayable",
      "type": "function"
    },
    {
      "inputs": [
        {
          "internalType": "bytes32",
          "name": "role",
          "type": "bytes32"
        },
        {
          "internalType": "address",
          "name": "account",
          "type": "address"
        }
      ],
      "name": "hasRole",
      "outputs": [
        {
          "internalType": "bool",
          "name": "",
          "type": "bool"
        }
      ],
      "stateMutability": "view",
      "type": "function"
    },
    {
      "inputs": [
        {
          "internalType": "address",
          "name": "treasuryWallet_",
          "type": "address"
        },
        {
          "internalType": "address",
          "name": "protocolReserveWallet_",
          "type": "address"
        },
        {
          "internalType": "address",
          "name": "controllerAdminWallet_",
          "type": "address"
        },
        {
          "internalType": "address",
          "name": "devopsWallet_",
          "type": "address"
        }
      ],
      "name": "initialize",
      "outputs": [],
      "stateMutability": "nonpayable",
      "type": "function"
    },
    {
      "inputs": [
        {
          "internalType": "address",
          "name": "contractAddress",
          "type": "address"
        }
      ],
      "name": "isTermDeployed",
      "outputs": [
        {
          "internalType": "bool",
          "name": "",
          "type": "bool"
        }
      ],
      "stateMutability": "view",
      "type": "function"
    },
    {
      "inputs": [
        {
          "internalType": "address",
          "name": "termContract",
          "type": "address"
        }
      ],
      "name": "markTermDeployed",
      "outputs": [],
      "stateMutability": "nonpayable",
      "type": "function"
    },
    {
      "inputs": [],
      "name": "proxiableUUID",
      "outputs": [
        {
          "internalType": "bytes32",
          "name": "",
          "type": "bytes32"
        }
      ],
      "stateMutability": "view",
      "type": "function"
    },
    {
      "inputs": [
        {
          "internalType": "bytes32",
          "name": "role",
          "type": "bytes32"
        },
        {
          "internalType": "address",
          "name": "account",
          "type": "address"
        }
      ],
      "name": "renounceRole",
      "outputs": [],
      "stateMutability": "nonpayable",
      "type": "function"
    },
    {
      "inputs": [
        {
          "internalType": "bytes32",
          "name": "role",
          "type": "bytes32"
        },
        {
          "internalType": "address",
          "name": "account",
          "type": "address"
        }
      ],
      "name": "revokeRole",
      "outputs": [],
      "stateMutability": "nonpayable",
      "type": "function"
    },
    {
      "inputs": [
        {
          "internalType": "bytes4",
          "name": "interfaceId",
          "type": "bytes4"
        }
      ],
      "name": "supportsInterface",
      "outputs": [
        {
          "internalType": "bool",
          "name": "",
          "type": "bool"
        }
      ],
      "stateMutability": "view",
      "type": "function"
    },
    {
      "inputs": [
        {
          "internalType": "address",
          "name": "termContract",
          "type": "address"
        }
      ],
      "name": "unmarkTermDeployed",
      "outputs": [],
      "stateMutability": "nonpayable",
      "type": "function"
    },
    {
      "inputs": [
        {
          "internalType": "address",
          "name": "oldControllerAdminWallet",
          "type": "address"
        },
        {
          "internalType": "address",
          "name": "newControllerAdminWallet",
          "type": "address"
        }
      ],
      "name": "updateControllerAdminWallet",
      "outputs": [],
      "stateMutability": "nonpayable",
      "type": "function"
    },
    {
      "inputs": [
        {
          "internalType": "address",
          "name": "newProtocolReserveWallet",
          "type": "address"
        }
      ],
      "name": "updateProtocolReserveAddress",
      "outputs": [],
      "stateMutability": "nonpayable",
      "type": "function"
    },
    {
      "inputs": [
        {
          "internalType": "address",
          "name": "newTreasuryWallet",
          "type": "address"
        }
      ],
      "name": "updateTreasuryAddress",
      "outputs": [],
      "stateMutability": "nonpayable",
      "type": "function"
    },
    {
      "inputs": [
        {
          "internalType": "address",
          "name": "newImplementation",
          "type": "address"
        }
      ],
      "name": "upgradeTo",
      "outputs": [],
      "stateMutability": "nonpayable",
      "type": "function"
    },
    {
      "inputs": [
        {
          "internalType": "address",
          "name": "newImplementation",
          "type": "address"
        },
        {
          "internalType": "bytes",
          "name": "data",
          "type": "bytes"
        }
      ],
      "name": "upgradeToAndCall",
      "outputs": [],
      "stateMutability": "payable",
      "type": "function"
    },
    {
      "inputs": [],
      "name": "version",
      "outputs": [
        {
          "internalType": "string",
          "name": "",
          "type": "string"
        }
      ],
      "stateMutability": "view",
      "type": "function"
    }
  ],
  "bytecode": "0x60a06040523060805234801561001457600080fd5b5061001d610022565b6100e1565b600054610100900460ff161561008e5760405162461bcd60e51b815260206004820152602760248201527f496e697469616c697a61626c653a20636f6e747261637420697320696e697469604482015266616c697a696e6760c81b606482015260840160405180910390fd5b60005460ff908116146100df576000805460ff191660ff9081179091556040519081527f7f26b83ff96e1f2b6a682f133852f6798a09c465da95921460cefb38474024989060200160405180910390a15b565b608051611a6c610118600039600081816105eb0152818161062b015281816106b3015281816106f3015261076b0152611a6c6000f3fe6080604052600436106101155760003560e01c806354fd4d501161009b57806354fd4d50146102ad5780636ca5d56d146102e7578063841e45611461030757806391d14854146103275780639e2a204614610347578063a217fddf14610367578063d547741f1461037c578063e00246041461039c578063e1b961f4146103ba578063e7e4b8db146103da578063f8c8765e146103fa57600080fd5b806301ffc9a71461011a578063025f1a5e1461014f578063201a662514610181578063248a9ca3146101b157806329392ac7146101e15780632f2ff15d1461020357806336568abe146102235780633659cfe6146102435780634bb4193c146102635780634f1ef2861461028557806352d1902d14610298575b600080fd5b34801561012657600080fd5b5061013a610135366004611599565b61041a565b60405190151581526020015b60405180910390f35b34801561015b57600080fd5b5060fc546001600160a01b03165b6040516001600160a01b039091168152602001610146565b34801561018d57600080fd5b506101a36000805160206119b083398151915281565b604051908152602001610146565b3480156101bd57600080fd5b506101a36101cc3660046115c3565b60009081526065602052604090206001015490565b3480156101ed57600080fd5b506102016101fc3660046115f8565b610451565b005b34801561020f57600080fd5b5061020161021e366004611613565b610539565b34801561022f57600080fd5b5061020161023e366004611613565b610563565b34801561024f57600080fd5b5061020161025e3660046115f8565b6105e1565b34801561026f57600080fd5b506101a3600080516020611a1783398151915281565b610201610293366004611655565b6106a9565b3480156102a457600080fd5b506101a361075e565b3480156102b957600080fd5b50604080518082018252600b81526a19195d995b1bdc1b595b9d60aa1b60208201529051610146919061173b565b3480156102f357600080fd5b5061020161030236600461176e565b61080c565b34801561031357600080fd5b506102016103223660046115f8565b6109b0565b34801561033357600080fd5b5061013a610342366004611613565b610a78565b34801561035357600080fd5b506102016103623660046115f8565b610aa3565b34801561037357600080fd5b506101a3600081565b34801561038857600080fd5b50610201610397366004611613565b610b34565b3480156103a857600080fd5b5060fb546001600160a01b0316610169565b3480156103c657600080fd5b506102016103d53660046115f8565b610b59565b3480156103e657600080fd5b5061013a6103f53660046115f8565b610be2565b34801561040657600080fd5b50610201610415366004611798565b610bed565b60006001600160e01b03198216637965db0b60e01b148061044b57506301ffc9a760e01b6001600160e01b03198316145b92915050565b6000805160206119b083398151915261046981610e15565b60fc546001600160a01b03908116908316036104da5760405162461bcd60e51b815260206004820152602560248201527f4e6f206368616e676520696e2070726f746f636f6c2072657365727665206164604482015264647265737360d81b60648201526084015b60405180910390fd5b60fc80546001600160a01b038481166001600160a01b0319831681179093556040519116917f2d7faa6887bec3599aecfe7648b4488b13aed14af1639d48ff942da0c10c552d9161052c9184916117ec565b60405180910390a1505050565b60008281526065602052604090206001015461055481610e15565b61055e8383610e1f565b505050565b6001600160a01b03811633146105d35760405162461bcd60e51b815260206004820152602f60248201527f416363657373436f6e74726f6c3a2063616e206f6e6c792072656e6f756e636560448201526e103937b632b9903337b91039b2b63360891b60648201526084016104d1565b6105dd8282610ea5565b5050565b6001600160a01b037f00000000000000000000000000000000000000000000000000000000000000001630036106295760405162461bcd60e51b81526004016104d190611806565b7f00000000000000000000000000000000000000000000000000000000000000006001600160a01b031661065b610f0c565b6001600160a01b0316146106815760405162461bcd60e51b81526004016104d190611852565b61068a81610f28565b604080516000808252602082019092526106a691839190610f40565b50565b6001600160a01b037f00000000000000000000000000000000000000000000000000000000000000001630036106f15760405162461bcd60e51b81526004016104d190611806565b7f00000000000000000000000000000000000000000000000000000000000000006001600160a01b0316610723610f0c565b6001600160a01b0316146107495760405162461bcd60e51b81526004016104d190611852565b61075282610f28565b6105dd82826001610f40565b6000306001600160a01b037f000000000000000000000000000000000000000000000000000000000000000016146107f95760405162461bcd60e51b815260206004820152603860248201527f555550535570677261646561626c653a206d757374206e6f742062652063616c6044820152771b1959081d1a1c9bdd59da0819195b1959d85d1958d85b1b60421b60648201526084016104d1565b506000805160206119d083398151915290565b6000805160206119b083398151915261082481610e15565b6001600160a01b0383166108955760405162461bcd60e51b815260206004820152603260248201527f4f6c6420436f6e74726f6c6c65722041646d696e2057616c6c65742063616e6e6044820152716f74206265207a65726f206164647265737360701b60648201526084016104d1565b6001600160a01b0382166109065760405162461bcd60e51b815260206004820152603260248201527f4e657720436f6e74726f6c6c65722041646d696e2057616c6c65742063616e6e6044820152716f74206265207a65726f206164647265737360701b60648201526084016104d1565b61091e600080516020611a1783398151915284610a78565b6109805760405162461bcd60e51b815260206004820152602d60248201527f696e636f7272656374206f6c6420636f6e74726f6c6c65722061646d696e207760448201526c616c6c6574206164647265737360981b60648201526084016104d1565b610998600080516020611a1783398151915284610ea5565b61055e600080516020611a1783398151915283610e1f565b6000805160206119b08339815191526109c881610e15565b60fb546001600160a01b0390811690831603610a265760405162461bcd60e51b815260206004820152601d60248201527f4e6f206368616e676520696e207472656173757279206164647265737300000060448201526064016104d1565b60fb80546001600160a01b038481166001600160a01b0319831681179093556040519116917f430359a6d97ced2b6f93c77a91e7ce9dfd43252eb91e916adba170485cd8a6a49161052c9184916117ec565b60009182526065602090815260408084206001600160a01b0393909316845291905290205460ff1690565b600080516020611a17833981519152610abb81610e15565b610ac4826110ab565b15610b0f5760405162461bcd60e51b815260206004820152601b60248201527a436f6e747261637420697320616c726561647920696e205465726d60281b60448201526064016104d1565b506001600160a01b0316600090815260fd60205260409020805460ff19166001179055565b600082815260656020526040902060010154610b4f81610e15565b61055e8383610ea5565b600080516020611a17833981519152610b7181610e15565b610b7a826110ab565b610bc05760405162461bcd60e51b8152602060048201526017602482015276436f6e7472616374206973206e6f7420696e205465726d60481b60448201526064016104d1565b506001600160a01b0316600090815260fd60205260409020805460ff19169055565b600061044b826110ab565b600054610100900460ff1615808015610c0d5750600054600160ff909116105b80610c2e5750610c1c306110c9565b158015610c2e575060005460ff166001145b610c915760405162461bcd60e51b815260206004820152602e60248201527f496e697469616c697a61626c653a20636f6e747261637420697320616c72656160448201526d191e481a5b9a5d1a585b1a5e995960921b60648201526084016104d1565b6000805460ff191660011790558015610cb4576000805461ff0019166101001790555b610cbc6110d8565b610cc46110d8565b610cdc600080516020611a1783398151915284610e1f565b610cf46000805160206119b083398151915283610e1f565b6001600160a01b038516610d455760405162461bcd60e51b81526020600482015260186024820152777472656173757279206973207a65726f206164647265737360401b60448201526064016104d1565b60fb80546001600160a01b0319166001600160a01b03878116919091179091558416610dad5760405162461bcd60e51b815260206004820152601760248201527672657365727665206973207a65726f206164647265737360481b60448201526064016104d1565b60fc80546001600160a01b0319166001600160a01b0386161790558015610e0e576000805461ff0019169055604051600181527f7f26b83ff96e1f2b6a682f133852f6798a09c465da95921460cefb38474024989060200160405180910390a15b5050505050565b6106a68133611145565b610e298282610a78565b6105dd5760008281526065602090815260408083206001600160a01b03851684529091529020805460ff19166001179055610e613390565b6001600160a01b0316816001600160a01b0316837f2f8788117e7eff1d82e926ec794901d17c78024a50270940304540a733656f0d60405160405180910390a45050565b610eaf8282610a78565b156105dd5760008281526065602090815260408083206001600160a01b0385168085529252808320805460ff1916905551339285917ff6391f5c32d9c69d2a47ea670b442974b53935d1edc7fd64eb21e047a839171b9190a45050565b6000805160206119d0833981519152546001600160a01b031690565b6000805160206119b08339815191526105dd81610e15565b7f4910fdfa16fed3260ed0e7147f7cc6da11a60208b5b9406d12a635614ffd91435460ff1615610f735761055e8361119e565b826001600160a01b03166352d1902d6040518163ffffffff1660e01b8152600401602060405180830381865afa925050508015610fcd575060408051601f3d908101601f19168201909252610fca9181019061189e565b60015b6110305760405162461bcd60e51b815260206004820152602e60248201527f45524331393637557067726164653a206e657720696d706c656d656e7461746960448201526d6f6e206973206e6f74205555505360901b60648201526084016104d1565b6000805160206119d0833981519152811461109f5760405162461bcd60e51b815260206004820152602960248201527f45524331393637557067726164653a20756e737570706f727465642070726f786044820152681a58589b195555525160ba1b60648201526084016104d1565b5061055e838383611238565b6001600160a01b0316600090815260fd602052604090205460ff1690565b6001600160a01b03163b151590565b600054610100900460ff166111435760405162461bcd60e51b815260206004820152602b60248201527f496e697469616c697a61626c653a20636f6e7472616374206973206e6f74206960448201526a6e697469616c697a696e6760a81b60648201526084016104d1565b565b61114f8282610a78565b6105dd5761115c81611263565b611167836020611275565b6040516020016111789291906118b7565b60408051601f198184030181529082905262461bcd60e51b82526104d19160040161173b565b6111a7816110c9565b6112095760405162461bcd60e51b815260206004820152602d60248201527f455243313936373a206e657720696d706c656d656e746174696f6e206973206e60448201526c1bdd08184818dbdb9d1c9858dd609a1b60648201526084016104d1565b6000805160206119d083398151915280546001600160a01b0319166001600160a01b0392909216919091179055565b61124183611418565b60008251118061124e5750805b1561055e5761125d8383611458565b50505050565b606061044b6001600160a01b03831660145b6060600061128483600261193c565b61128f906002611953565b67ffffffffffffffff8111156112a7576112a761163f565b6040519080825280601f01601f1916602001820160405280156112d1576020820181803683370190505b509050600360fc1b816000815181106112ec576112ec611966565b60200101906001600160f81b031916908160001a905350600f60fb1b8160018151811061131b5761131b611966565b60200101906001600160f81b031916908160001a905350600061133f84600261193c565b61134a906001611953565b90505b60018111156113c2576f181899199a1a9b1b9c1cb0b131b232b360811b85600f166010811061137e5761137e611966565b1a60f81b82828151811061139457611394611966565b60200101906001600160f81b031916908160001a90535060049490941c936113bb8161197c565b905061134d565b5083156114115760405162461bcd60e51b815260206004820181905260248201527f537472696e67733a20686578206c656e67746820696e73756666696369656e7460448201526064016104d1565b9392505050565b6114218161119e565b6040516001600160a01b038216907fbc7cd75a20ee27fd9adebab32041f755214dbc6bffa90cc0225b39da2e5c2d3b90600090a250565b606061141183836040518060600160405280602781526020016119f0602791396060600080856001600160a01b0316856040516114959190611993565b600060405180830381855af49150503d80600081146114d0576040519150601f19603f3d011682016040523d82523d6000602084013e6114d5565b606091505b50915091506114e6868383876114f0565b9695505050505050565b6060831561155d5782516000036115565761150a856110c9565b6115565760405162461bcd60e51b815260206004820152601d60248201527f416464726573733a2063616c6c20746f206e6f6e2d636f6e747261637400000060448201526064016104d1565b5081611567565b611567838361156f565b949350505050565b81511561157f5781518083602001fd5b8060405162461bcd60e51b81526004016104d1919061173b565b6000602082840312156115ab57600080fd5b81356001600160e01b03198116811461141157600080fd5b6000602082840312156115d557600080fd5b5035919050565b80356001600160a01b03811681146115f357600080fd5b919050565b60006020828403121561160a57600080fd5b611411826115dc565b6000806040838503121561162657600080fd5b82359150611636602084016115dc565b90509250929050565b634e487b7160e01b600052604160045260246000fd5b6000806040838503121561166857600080fd5b611671836115dc565b9150602083013567ffffffffffffffff8082111561168e57600080fd5b818501915085601f8301126116a257600080fd5b8135818111156116b4576116b461163f565b604051601f8201601f19908116603f011681019083821181831017156116dc576116dc61163f565b816040528281528860208487010111156116f557600080fd5b8260208601602083013760006020848301015280955050505050509250929050565b60005b8381101561173257818101518382015260200161171a565b50506000910152565b602081526000825180602084015261175a816040850160208701611717565b601f01601f19169190910160400192915050565b6000806040838503121561178157600080fd5b61178a836115dc565b9150611636602084016115dc565b600080600080608085870312156117ae57600080fd5b6117b7856115dc565b93506117c5602086016115dc565b92506117d3604086016115dc565b91506117e1606086016115dc565b905092959194509250565b6001600160a01b0392831681529116602082015260400190565b6020808252602c908201527f46756e6374696f6e206d7573742062652063616c6c6564207468726f7567682060408201526b19195b1959d85d1958d85b1b60a21b606082015260800190565b6020808252602c908201527f46756e6374696f6e206d7573742062652063616c6c6564207468726f7567682060408201526b6163746976652070726f787960a01b606082015260800190565b6000602082840312156118b057600080fd5b5051919050565b76020b1b1b2b9b9a1b7b73a3937b61d1030b1b1b7bab73a1604d1b8152600083516118e9816017850160208801611717565b7001034b99036b4b9b9b4b733903937b6329607d1b601791840191820152835161191a816028840160208801611717565b01602801949350505050565b634e487b7160e01b600052601160045260246000fd5b808202811582820484141761044b5761044b611926565b8082018082111561044b5761044b611926565b634e487b7160e01b600052603260045260246000fd5b60008161198b5761198b611926565b506000190190565b600082516119a5818460208701611717565b919091019291505056fe793a6c9b7e0a9549c74edc2f9ae0dc50903dfaa9a56fb0116b27a8c71de3e2c6360894a13ba1a3210667c828492db98dca3e2076cc3735a920a3ca505d382bbc416464726573733a206c6f772d6c6576656c2064656c65676174652063616c6c206661696c65649027349758afcb3649adbc1f090fcd4eb9187cfbbd22483c7d103367d7b50173a26469706673582212207009a10fb340a1e9c01108547c0c5a23f436983fe0b7a58ce4239befb6a1bc1c64736f6c63430008120033",
  "linkReferences": {},
  "deployedLinkReferences": {}
}