{
  "_format": "hh-sol-artifact-1",
  "contractName": "TermController",
  "sourceName": "contracts/TermController.sol",
  "abi": [
    {
      "inputs": [],
      "stateMutability": "nonpayable",
      "type": "constructor"
    },
    {
      "inputs": [],
      "name": "AccessControlBadConfirmation",
      "type": "error"
    },
    {
      "inputs": [
        {
          "internalType": "address",
          "name": "account",
          "type": "address"
        },
        {
          "internalType": "bytes32",
          "name": "neededRole",
          "type": "bytes32"
        }
      ],
      "name": "AccessControlUnauthorizedAccount",
      "type": "error"
    },
    {
      "inputs": [
        {
          "internalType": "address",
          "name": "target",
          "type": "address"
        }
      ],
      "name": "AddressEmptyCode",
      "type": "error"
    },
    {
      "inputs": [
        {
          "internalType": "address",
          "name": "implementation",
          "type": "address"
        }
      ],
      "name": "ERC1967InvalidImplementation",
      "type": "error"
    },
    {
      "inputs": [],
      "name": "ERC1967NonPayable",
      "type": "error"
    },
    {
      "inputs": [],
      "name": "FailedCall",
      "type": "error"
    },
    {
      "inputs": [],
      "name": "InvalidInitialization",
      "type": "error"
    },
    {
      "inputs": [],
      "name": "NotInitializing",
      "type": "error"
    },
    {
      "inputs": [],
      "name": "UUPSUnauthorizedCallContext",
      "type": "error"
    },
    {
      "inputs": [
        {
          "internalType": "bytes32",
          "name": "slot",
          "type": "bytes32"
        }
      ],
      "name": "UUPSUnsupportedProxiableUUID",
      "type": "error"
    },
    {
      "anonymous": false,
      "inputs": [
        {
          "indexed": false,
          "internalType": "uint64",
          "name": "version",
          "type": "uint64"
        }
      ],
      "name": "Initialized",
      "type": "event"
    },
    {
      "anonymous": false,
      "inputs": [
        {
          "indexed": false,
          "internalType": "address",
          "name": "oldProtocolReserveAddress",
          "type": "address"
        },
        {
          "indexed": false,
          "internalType": "address",
          "name": "newProtocolReserveAddress",
          "type": "address"
        }
      ],
      "name": "ProtocolReserveAddressUpdated",
      "type": "event"
    },
    {
      "anonymous": false,
      "inputs": [
        {
          "indexed": true,
          "internalType": "bytes32",
          "name": "role",
          "type": "bytes32"
        },
        {
          "indexed": true,
          "internalType": "bytes32",
          "name": "previousAdminRole",
          "type": "bytes32"
        },
        {
          "indexed": true,
          "internalType": "bytes32",
          "name": "newAdminRole",
          "type": "bytes32"
        }
      ],
      "name": "RoleAdminChanged",
      "type": "event"
    },
    {
      "anonymous": false,
      "inputs": [
        {
          "indexed": true,
          "internalType": "bytes32",
          "name": "role",
          "type": "bytes32"
        },
        {
          "indexed": true,
          "internalType": "address",
          "name": "account",
          "type": "address"
        },
        {
          "indexed": true,
          "internalType": "address",
          "name": "sender",
          "type": "address"
        }
      ],
      "name": "RoleGranted",
      "type": "event"
    },
    {
      "anonymous": false,
      "inputs": [
        {
          "indexed": true,
          "internalType": "bytes32",
          "name": "role",
          "type": "bytes32"
        },
        {
          "indexed": true,
          "internalType": "address",
          "name": "account",
          "type": "address"
        },
        {
          "indexed": true,
          "internalType": "address",
          "name": "sender",
          "type": "address"
        }
      ],
      "name": "RoleRevoked",
      "type": "event"
    },
    {
      "anonymous": false,
      "inputs": [
        {
          "indexed": false,
          "internalType": "address",
          "name": "oldTreasuryAddress",
          "type": "address"
        },
        {
          "indexed": false,
          "internalType": "address",
          "name": "newTreasuryAddress",
          "type": "address"
        }
      ],
      "name": "TreasuryAddressUpdated",
      "type": "event"
    },
    {
      "anonymous": false,
      "inputs": [
        {
          "indexed": true,
          "internalType": "address",
          "name": "implementation",
          "type": "address"
        }
      ],
      "name": "Upgraded",
      "type": "event"
    },
    {
      "inputs": [],
      "name": "ADMIN_ROLE",
      "outputs": [
        {
          "internalType": "bytes32",
          "name": "",
          "type": "bytes32"
        }
      ],
      "stateMutability": "view",
      "type": "function"
    },
    {
      "inputs": [],
      "name": "AUCTION_ROLE",
      "outputs": [
        {
          "internalType": "bytes32",
          "name": "",
          "type": "bytes32"
        }
      ],
      "stateMutability": "view",
      "type": "function"
    },
    {
      "inputs": [],
      "name": "CONTROLLER_ADMIN_ROLE",
      "outputs": [
        {
          "internalType": "bytes32",
          "name": "",
          "type": "bytes32"
        }
      ],
      "stateMutability": "view",
      "type": "function"
    },
    {
      "inputs": [],
      "name": "DEFAULT_ADMIN_ROLE",
      "outputs": [
        {
          "internalType": "bytes32",
          "name": "",
          "type": "bytes32"
        }
      ],
      "stateMutability": "view",
      "type": "function"
    },
    {
      "inputs": [],
      "name": "DEVOPS_ROLE",
      "outputs": [
        {
          "internalType": "bytes32",
          "name": "",
          "type": "bytes32"
        }
      ],
      "stateMutability": "view",
      "type": "function"
    },
    {
      "inputs": [],
      "name": "FACTORY_DEPLOYER_ROLE",
      "outputs": [
        {
          "internalType": "bytes32",
          "name": "",
          "type": "bytes32"
        }
      ],
      "stateMutability": "view",
      "type": "function"
    },
    {
      "inputs": [],
      "name": "INITIALIZER_ROLE",
      "outputs": [
        {
          "internalType": "bytes32",
          "name": "",
          "type": "bytes32"
        }
      ],
      "stateMutability": "view",
      "type": "function"
    },
    {
      "inputs": [],
      "name": "SPECIALIST_ROLE",
      "outputs": [
        {
          "internalType": "bytes32",
          "name": "",
          "type": "bytes32"
        }
      ],
      "stateMutability": "view",
      "type": "function"
    },
    {
      "inputs": [],
      "name": "UPGRADE_INTERFACE_VERSION",
      "outputs": [
        {
          "internalType": "string",
          "name": "",
          "type": "string"
        }
      ],
      "stateMutability": "view",
      "type": "function"
    },
    {
      "inputs": [],
      "name": "getProtocolReserveAddress",
      "outputs": [
        {
          "internalType": "address",
          "name": "",
          "type": "address"
        }
      ],
      "stateMutability": "view",
      "type": "function"
    },
    {
      "inputs": [
        {
          "internalType": "bytes32",
          "name": "role",
          "type": "bytes32"
        }
      ],
      "name": "getRoleAdmin",
      "outputs": [
        {
          "internalType": "bytes32",
          "name": "",
          "type": "bytes32"
        }
      ],
      "stateMutability": "view",
      "type": "function"
    },
    {
      "inputs": [
        {
          "internalType": "bytes32",
          "name": "termRepoId",
          "type": "bytes32"
        }
      ],
      "name": "getTermAuctionResults",
      "outputs": [
        {
          "components": [
            {
              "internalType": "bytes32",
              "name": "termAuctionId",
              "type": "bytes32"
            },
            {
              "internalType": "uint256",
              "name": "auctionClearingRate",
              "type": "uint256"
            },
            {
              "internalType": "uint256",
              "name": "auctionClearingBlockTimestamp",
              "type": "uint256"
            }
          ],
          "internalType": "struct AuctionMetadata[]",
          "name": "auctionMetadata",
          "type": "tuple[]"
        },
        {
          "internalType": "uint8",
          "name": "numOfAuctions",
          "type": "uint8"
        }
      ],
      "stateMutability": "view",
      "type": "function"
    },
    {
      "inputs": [],
      "name": "getTreasuryAddress",
      "outputs": [
        {
          "internalType": "address",
          "name": "",
          "type": "address"
        }
      ],
      "stateMutability": "view",
      "type": "function"
    },
    {
      "inputs": [
        {
          "internalType": "address",
          "name": "authedUser",
          "type": "address"
        }
      ],
      "name": "grantMintExposureAccess",
      "outputs": [],
      "stateMutability": "nonpayable",
      "type": "function"
    },
    {
      "inputs": [
        {
          "internalType": "bytes32",
          "name": "role",
          "type": "bytes32"
        },
        {
          "internalType": "address",
          "name": "account",
          "type": "address"
        }
      ],
      "name": "grantRole",
      "outputs": [],
      "stateMutability": "nonpayable",
      "type": "function"
    },
    {
      "inputs": [
        {
          "internalType": "bytes32",
          "name": "role",
          "type": "bytes32"
        },
        {
          "internalType": "address",
          "name": "account",
          "type": "address"
        }
      ],
      "name": "hasRole",
      "outputs": [
        {
          "internalType": "bool",
          "name": "",
          "type": "bool"
        }
      ],
      "stateMutability": "view",
      "type": "function"
    },
    {
      "inputs": [
        {
          "internalType": "address",
          "name": "treasuryWallet_",
          "type": "address"
        },
        {
          "internalType": "address",
          "name": "protocolReserveWallet_",
          "type": "address"
        },
        {
          "internalType": "address",
          "name": "controllerAdminWallet_",
          "type": "address"
        },
        {
          "internalType": "address",
          "name": "devopsWallet_",
          "type": "address"
        },
        {
          "internalType": "address",
          "name": "adminWallet_",
          "type": "address"
        }
      ],
      "name": "initialize",
      "outputs": [],
      "stateMutability": "nonpayable",
      "type": "function"
    },
    {
      "inputs": [
        {
          "internalType": "address",
          "name": "contractAddress",
          "type": "address"
        }
      ],
      "name": "isFactoryDeployed",
      "outputs": [
        {
          "internalType": "bool",
          "name": "",
          "type": "bool"
        }
      ],
      "stateMutability": "view",
      "type": "function"
    },
    {
      "inputs": [
        {
          "internalType": "address",
          "name": "contractAddress",
          "type": "address"
        }
      ],
      "name": "isTermApproved",
      "outputs": [
        {
          "internalType": "bool",
          "name": "",
          "type": "bool"
        }
      ],
      "stateMutability": "view",
      "type": "function"
    },
    {
      "inputs": [
        {
          "internalType": "address",
          "name": "contractAddress",
          "type": "address"
        }
      ],
      "name": "isTermDeployed",
      "outputs": [
        {
          "internalType": "bool",
          "name": "",
          "type": "bool"
        }
      ],
      "stateMutability": "view",
      "type": "function"
    },
    {
      "inputs": [
        {
          "internalType": "address",
          "name": "externalContract",
          "type": "address"
        }
      ],
      "name": "markTermApproved",
      "outputs": [],
      "stateMutability": "nonpayable",
      "type": "function"
    },
    {
      "inputs": [
        {
          "internalType": "address",
          "name": "termContract",
          "type": "address"
        }
      ],
      "name": "markTermDeployed",
      "outputs": [],
      "stateMutability": "nonpayable",
      "type": "function"
    },
    {
      "inputs": [
        {
          "internalType": "address",
          "name": "factoryDeployedContract",
          "type": "address"
        }
      ],
      "name": "markTermFactoryDeployed",
      "outputs": [],
      "stateMutability": "nonpayable",
      "type": "function"
    },
    {
      "inputs": [
        {
          "internalType": "address",
          "name": "auction",
          "type": "address"
        }
      ],
      "name": "pairAuction",
      "outputs": [],
      "stateMutability": "nonpayable",
      "type": "function"
    },
    {
      "inputs": [
        {
          "internalType": "address",
          "name": "factoryDeployer",
          "type": "address"
        }
      ],
      "name": "pairFactoryDeployer",
      "outputs": [],
      "stateMutability": "nonpayable",
      "type": "function"
    },
    {
      "inputs": [
        {
          "internalType": "address",
          "name": "initializer",
          "type": "address"
        }
      ],
      "name": "pairInitializer",
      "outputs": [],
      "stateMutability": "nonpayable",
      "type": "function"
    },
    {
      "inputs": [],
      "name": "pauseTermContracts",
      "outputs": [],
      "stateMutability": "nonpayable",
      "type": "function"
    },
    {
      "inputs": [],
      "name": "proxiableUUID",
      "outputs": [
        {
          "internalType": "bytes32",
          "name": "",
          "type": "bytes32"
        }
      ],
      "stateMutability": "view",
      "type": "function"
    },
    {
      "inputs": [
        {
          "internalType": "bytes32",
          "name": "termRepoId",
          "type": "bytes32"
        },
        {
          "internalType": "bytes32",
          "name": "termAuctionId",
          "type": "bytes32"
        },
        {
          "internalType": "uint256",
          "name": "auctionClearingRate",
          "type": "uint256"
        }
      ],
      "name": "recordAuctionResult",
      "outputs": [],
      "stateMutability": "nonpayable",
      "type": "function"
    },
    {
      "inputs": [
        {
          "internalType": "bytes32",
          "name": "auctionId",
          "type": "bytes32"
        }
      ],
      "name": "registerAuctionId",
      "outputs": [],
      "stateMutability": "nonpayable",
      "type": "function"
    },
    {
      "inputs": [
        {
          "internalType": "bytes32",
          "name": "repoId",
          "type": "bytes32"
        }
      ],
      "name": "registerRepoId",
      "outputs": [],
      "stateMutability": "nonpayable",
      "type": "function"
    },
    {
      "inputs": [
        {
          "internalType": "bytes32",
          "name": "",
          "type": "bytes32"
        }
      ],
      "name": "registeredAuctionIds",
      "outputs": [
        {
          "internalType": "bool",
          "name": "",
          "type": "bool"
        }
      ],
      "stateMutability": "view",
      "type": "function"
    },
    {
      "inputs": [
        {
          "internalType": "bytes32",
          "name": "",
          "type": "bytes32"
        }
      ],
      "name": "registeredRepoIds",
      "outputs": [
        {
          "internalType": "bool",
          "name": "",
          "type": "bool"
        }
      ],
      "stateMutability": "view",
      "type": "function"
    },
    {
      "inputs": [
        {
          "internalType": "bytes32",
          "name": "role",
          "type": "bytes32"
        },
        {
          "internalType": "address",
          "name": "callerConfirmation",
          "type": "address"
        }
      ],
      "name": "renounceRole",
      "outputs": [],
      "stateMutability": "nonpayable",
      "type": "function"
    },
    {
      "inputs": [
        {
          "internalType": "address",
          "name": "revokedUser",
          "type": "address"
        }
      ],
      "name": "revokeMintExposureAccess",
      "outputs": [],
      "stateMutability": "nonpayable",
      "type": "function"
    },
    {
      "inputs": [
        {
          "internalType": "bytes32",
          "name": "role",
          "type": "bytes32"
        },
        {
          "internalType": "address",
          "name": "account",
          "type": "address"
        }
      ],
      "name": "revokeRole",
      "outputs": [],
      "stateMutability": "nonpayable",
      "type": "function"
    },
    {
      "inputs": [
        {
          "internalType": "bytes4",
          "name": "interfaceId",
          "type": "bytes4"
        }
      ],
      "name": "supportsInterface",
      "outputs": [
        {
          "internalType": "bool",
          "name": "",
          "type": "bool"
        }
      ],
      "stateMutability": "view",
      "type": "function"
    },
    {
      "inputs": [],
      "name": "termContractsPaused",
      "outputs": [
        {
          "internalType": "bool",
          "name": "",
          "type": "bool"
        }
      ],
      "stateMutability": "view",
      "type": "function"
    },
    {
      "inputs": [
        {
          "internalType": "address",
          "name": "externalContract",
          "type": "address"
        }
      ],
      "name": "unmarkTermApproved",
      "outputs": [],
      "stateMutability": "nonpayable",
      "type": "function"
    },
    {
      "inputs": [
        {
          "internalType": "address",
          "name": "termContract",
          "type": "address"
        }
      ],
      "name": "unmarkTermDeployed",
      "outputs": [],
      "stateMutability": "nonpayable",
      "type": "function"
    },
    {
      "inputs": [
        {
          "internalType": "address",
          "name": "factoryDeployedContract",
          "type": "address"
        }
      ],
      "name": "unmarkTermFactoryDeployed",
      "outputs": [],
      "stateMutability": "nonpayable",
      "type": "function"
    },
    {
      "inputs": [],
      "name": "unpauseTermContracts",
      "outputs": [],
      "stateMutability": "nonpayable",
      "type": "function"
    },
    {
      "inputs": [
        {
          "internalType": "address",
          "name": "oldControllerAdminWallet",
          "type": "address"
        },
        {
          "internalType": "address",
          "name": "newControllerAdminWallet",
          "type": "address"
        }
      ],
      "name": "updateControllerAdminWallet",
      "outputs": [],
      "stateMutability": "nonpayable",
      "type": "function"
    },
    {
      "inputs": [
        {
          "internalType": "address",
          "name": "newProtocolReserveWallet",
          "type": "address"
        }
      ],
      "name": "updateProtocolReserveAddress",
      "outputs": [],
      "stateMutability": "nonpayable",
      "type": "function"
    },
    {
      "inputs": [
        {
          "internalType": "address",
          "name": "newTreasuryWallet",
          "type": "address"
        }
      ],
      "name": "updateTreasuryAddress",
      "outputs": [],
      "stateMutability": "nonpayable",
      "type": "function"
    },
    {
      "inputs": [
        {
          "internalType": "address",
          "name": "newImplementation",
          "type": "address"
        },
        {
          "internalType": "bytes",
          "name": "data",
          "type": "bytes"
        }
      ],
      "name": "upgradeToAndCall",
      "outputs": [],
      "stateMutability": "payable",
      "type": "function"
    },
    {
      "inputs": [
        {
          "internalType": "address",
          "name": "authedUser",
          "type": "address"
        }
      ],
      "name": "verifyMintExposureAccess",
      "outputs": [
        {
          "internalType": "bool",
          "name": "",
          "type": "bool"
        }
      ],
      "stateMutability": "view",
      "type": "function"
    },
    {
      "inputs": [],
      "name": "version",
      "outputs": [
        {
          "internalType": "string",
          "name": "",
          "type": "string"
        }
      ],
      "stateMutability": "view",
      "type": "function"
    }
  ],
  "bytecode": "0x60a080604052346100cc57306080527ff0c57e16840df040f15088dc2f81fe391c3923bec73e23a9662efc9c229c6a009081549060ff8260401c166100bd57506001600160401b036002600160401b031982821601610078575b60405161246690816100d28239608051818181610dd60152610f350152f35b6001600160401b031990911681179091556040519081527fc7f505b2f371ae2175ee4913f4499e1f2633a7b5936321eed1cdaeb6115181d290602090a1388080610059565b63f92ee8a960e01b8152600490fd5b600080fdfe60806040908082526004918236101561001757600080fd5b600092833560e01c92836301ffc9a71461192557508263025f1a5e146118fc57826304485707146118d25782631459457a146115c157826315aa2d741461156057826315aba255146114b1578263201a662514611488578263248a9ca31461144f57826327df3d3e1461142657826329392ac714611354578263297c71b0146112bd5782632ce81074146112255782632f2ff15d146111fc578263335f4c76146111be57826336568abe146111785782633f67c5611461114e578263430730a3146111255782634bb4193c146110fc5782634f1ef28614610eb9578263506328de14610e2857826352d1902d14610dc157826354fd4d5014610d7e5782635a37901f14610d545782635f44fab214610d265782636ca5d56d14610b815782636d9a16d414610b5f57826375b238fc14610b365782637db52ce214610b085782637f2fdf48146109f1578263841e45611461090e578263853de564146108b457826391d148541461085f5782639e2a2046146107c35782639f2a48de146106c0578263a217fddf146106a5578263a2a61aed14610571578263a4018f1314610548578263ad3cb1cc14610507578263c4665e80146104e0578263d48a3d49146104bc578263d547741f14610474578263db9bd42c1461044b578263e00246041461041f578263e115ed0a14610381578263e1b961f4146102eb578263e7e4b8db146102a9578263e81cf1171461026757505063f87fd33a1461023757600080fd5b3461026457602036600319011261026457610260610253611978565b61025b611ad1565b611f2a565b5080f35b80fd5b909150346102a55760203660031901126102a55760209260ff918391906001600160a01b03610294611978565b168252855220541690519015158152f35b8280fd5b8382346102e75760203660031901126102e75760209160ff9082906001600160a01b036102d4611978565b1681526002855220541690519015158152f35b5080fd5b909150346102a55760203660031901126102a557610307611978565b61030f611b27565b6001600160a01b031680845260026020528284205490919060ff16156103445750825260026020528120805460ff1916905580f35b606490602084519162461bcd60e51b83528201526017602482015276436f6e7472616374206973206e6f7420696e205465726d60481b6044820152fd5b909150346102a55760208060031936011261041b576006916000805160206122f18339815191528552600080516020612371833981519152808352848620338752835260ff858720541680156103f0575b6103dc9150611a96565b358452528120805460ff1916600117905580f35b506000805160206123118339815191528652825283852033865282526103dc60ff85872054166103d2565b8380fd5b8382346102e757816003193601126102e7579054905160089190911c6001600160a01b03168152602090f35b8382346102e757816003193601126102e757602090516000805160206123118339815191528152f35b9150346102a557806003193601126102a55761026091356104b76001610498611993565b9383875260008051602061237183398151915260205286200154611b97565b61212d565b83346102645780600319360112610264576104d5611ad1565b805460ff1916815580f35b83346102645780600319360112610264576104f9611ad1565b805460ff1916600117815580f35b8382346102e757816003193601126102e757805161054491610528826119da565b60058252640352e302e360dc1b60208301525191829182611a33565b0390f35b8382346102e757816003193601126102e757602090516000805160206122718339815191528152f35b9150346102a55760603660031901126102a55760008051602061225183398151915280845260008051602061237183398151915260205281842033855260205260ff8285205416156106895750813583526007602052808320908051906105d7826119a9565b602435825260443560208301908152429183019182528354600160401b811015610676576001810180865581101561066357916002918594936001968952600360208a2091020193518455518584015551910155019081549060ff82169060ff82146106505750600160ff9101169060ff191617905580f35b634e487b7160e01b855260119052602484fd5b634e487b7160e01b875260328652602487fd5b634e487b7160e01b875260418652602487fd5b60449291519163e2517d3f60e01b835233908301526024820152fd5b8382346102e757816003193601126102e75751908152602090f35b909150346102a5576020908160031936011261041b576106de611978565b6000805160206123118339815191528086526000805160206123718339815191528452848620338752845260ff8587205416156107a557506001600160a01b0316808552600383528385205490919060ff1661074b57508352600390528120805460ff1916600117905580f35b835162461bcd60e51b8152908101839052602e60248201527f436f6e747261637420697320616c7265616479206d61726b6564206465706c6f60448201526d79656420627920666163746f727960901b6064820152608490fd5b845163e2517d3f60e01b815233818501526024810191909152604490fd5b909150346102a55760203660031901126102a5576107df611978565b6107e7611b27565b6001600160a01b031680845260026020528284205490919060ff1661081e5750825260026020528120805460ff1916600117905580f35b606490602084519162461bcd60e51b8352820152601b60248201527a436f6e747261637420697320616c726561647920696e205465726d60281b6044820152fd5b909150346102a557816003193601126102a5578160209360ff92610881611993565b9035825260008051602061237183398151915286528282206001600160a01b039091168252855220549151911615158152f35b909150346102a55760208060031936011261041b576005916000805160206122f18339815191528552600080516020612371833981519152808352848620338752835260ff858720541680156103f0576103dc9150611a96565b8390346102e75760203660031901126102e757610929611978565b90610932611b5f565b82546001600160a01b0392600882901c84169281851684146109ae5750610100600160a81b0319909116600891821b610100600160a81b031617808555945193947f430359a6d97ced2b6f93c77a91e7ce9dfd43252eb91e916adba170485cd8a6a4949384936109a8939290921c169083611a7c565b0390a180f35b606490602088519162461bcd60e51b8352820152601d60248201527f4e6f206368616e676520696e20747265617375727920616464726573730000006044820152fd5b908334610264576020908160031936011261026457833580825260078352838220805495909391906001600160401b038711610af5575084519295610a3c600582901b8401856119f5565b8084528284018095885283882088915b838310610abb575050505085526007815260019460ff600186832001541692855195808701918188525180925260608088019693915b838310610a955788808989898301520390f35b84518051895280870151878a015281015188820152968101969385019391890191610a82565b6003866001928b9c999c51610acf816119a9565b85548152848601548382015260028601548d820152815201920192019190989598610a4c565b634e487b7160e01b845260419052602483fd5b909150346102a55760203660031901126102a5578160209360ff923581526006855220541690519015158152f35b8382346102e757816003193601126102e757602090516000805160206123b18339815191528152f35b8382346102e757816003193601126102e75760ff602092541690519015158152f35b8390346102e757826003193601126102e757610b9b611978565b610ba3611993565b91610bac611b5f565b6001600160a01b03828116908115610cc857841615610c6a57600080516020612351833981519152855260008051602061237183398151915260205285852090855260205260ff858520541615610c11575090610c0b610260926120a9565b50611c68565b608490602086519162461bcd60e51b8352820152602d60248201527f696e636f7272656374206f6c6420636f6e74726f6c6c65722061646d696e207760448201526c616c6c6574206164647265737360981b6064820152fd5b855162461bcd60e51b8152602081840152603260248201527f4e657720436f6e74726f6c6c65722041646d696e2057616c6c65742063616e6e6044820152716f74206265207a65726f206164647265737360701b6064820152608490fd5b865162461bcd60e51b8152602081850152603260248201527f4f6c6420436f6e74726f6c6c65722041646d696e2057616c6c65742063616e6e6044820152716f74206265207a65726f206164647265737360701b6064820152608490fd5b909150346102a55760203660031901126102a5578160209360ff923581526005855220541690519015158152f35b833461026457602036600319011261026457610260610d71611978565b610d79611ad1565b611e92565b8382346102e757816003193601126102e757805161054491610d9f826119da565b600b82526a19195d995b1bdc1b595b9d60aa1b60208301525191829182611a33565b908334610264578060031936011261026457507f00000000000000000000000000000000000000000000000000000000000000006001600160a01b03163003610e1b57602090516000805160206123318339815191528152f35b5163703e46dd60e11b8152fd5b909150346102a55760203660031901126102a557610e44611978565b610e4c611ad1565b6001600160a01b031680845260208290528284205460ff1615610e7b5783526020528120805460ff1916905580f35b506020606492519162461bcd60e51b8352820152601860248201527710dbdb9d1c9858dd081a5cc81b9bdd08185c1c1c9bdd995960421b6044820152fd5b9150806003193601126102a557610ece611978565b60249390919084356001600160401b0381116102e757366023820112156102e75780850135610efc81611a18565b94610f09855196876119f5565b81865260209182870193368a83830101116110f8578186928b8693018737880101526001600160a01b037f000000000000000000000000000000000000000000000000000000000000000081163081149081156110dc575b506110cc57610f6e611b5f565b81169585516352d1902d60e01b815283818a818b5afa869181611099575b50610fa8575050505050505191634c9c8ce360e01b8352820152fd5b9088888894938c600080516020612331833981519152918281036110845750853b15611070575080546001600160a01b031916821790558451889392917fbc7cd75a20ee27fd9adebab32041f755214dbc6bffa90cc0225b39da2e5c2d3b8580a28251156110525750506102609582915190845af4913d15611048573d61103a61103182611a18565b925192836119f5565b81528581943d92013e6121cd565b50606092506121cd565b95509550505050503461106457505080f35b63b398979f60e01b8152fd5b8651634c9c8ce360e01b8152808501849052fd5b8751632a87526960e21b815280860191909152fd5b9091508481813d83116110c5575b6110b181836119f5565b810103126110c157519038610f8c565b8680fd5b503d6110a7565b855163703e46dd60e11b81528890fd5b9050816000805160206123318339815191525416141538610f61565b8580fd5b8382346102e757816003193601126102e757602090516000805160206123518339815191528152f35b8382346102e757816003193601126102e757602090516000805160206122518339815191528152f35b83346102645760203660031901126102645761026061116b611978565b611173611ad1565b612025565b8382346102e757806003193601126102e757611192611993565b90336001600160a01b038316036111af575061026091923561212d565b5163334bd91960e11b81528390fd5b8382346102e75760203660031901126102e75760209160ff9082906001600160a01b036111e9611978565b1681526003855220541690519015158152f35b9150346102a557806003193601126102a55761026091356112206001610498611993565b611fb0565b8382346102e75760203660031901126102e7576102609061128c611247611978565b916000805160206122f18339815191528552600080516020612371833981519152908160205280862033875260205260ff8187205416918215611291575b5050611a96565b611dfa565b60ff92506000805160206123118339815191528752602052808620338752602052852054168580611285565b909150346102a55760203660031901126102a5576112d9611978565b6112e1611ad1565b6001600160a01b031680845260208290528284205460ff166113125783526020528120805460ff1916600117905580f35b506020606492519162461bcd60e51b8352820152601c60248201527b10dbdb9d1c9858dd081a5cc8185b1c9958591e48185c1c1c9bdd995960221b6044820152fd5b8390346102e75760203660031901126102e75761136f611978565b611377611b5f565b6001546001600160a01b0391821692918116918383146113d557506001600160a01b0319168217600155925191927f2d7faa6887bec3599aecfe7648b4488b13aed14af1639d48ff942da0c10c552d929182916109a8919083611a7c565b608490602087519162461bcd60e51b8352820152602560248201527f4e6f206368616e676520696e2070726f746f636f6c2072657365727665206164604482015264647265737360d81b6064820152fd5b8382346102e757816003193601126102e757602090516000805160206122f18339815191528152f35b909150346102a55760203660031901126102a5578160209360019235815260008051602061237183398151915285522001549051908152f35b8382346102e757816003193601126102e757602090516000805160206122918339815191528152f35b909150346102a55760203660031901126102a5576114cd611978565b6114d5611b27565b6001600160a01b031680845260036020528284205490919060ff161561150a5750825260036020528120805460ff1916905580f35b608490602084519162461bcd60e51b8352820152602a60248201527f436f6e7472616374206973206e6f74206d61726b6564206465706c6f79656420604482015269627920666163746f727960b01b6064820152fd5b8382346102e75760203660031901126102e75760ff81602093611581611978565b600080516020612271833981519152825260008051602061237183398151915286528282206001600160a01b039091168252855220549151911615158152f35b909150346102a55760a03660031901126102a5576115dd611978565b6115e5611993565b60448035936001600160a01b038086169492938587036118ce57606493843597838916988981036118ca57608435918583168084036118c6576000805160206123f18339815191528054909c818f1c60ff16159c90916001600160401b0381168015908f826118be575b5060011490816118b4575b1590816118ab575b5061189a576001600160401b031981166001178f558e908e61187e575b505061168961219e565b61169161219e565b1561183d57156117fc57156117bb576116bd92916116b16116b792611c68565b50611cee565b50611d74565b508281161561177e578954610100600160a81b03191660089190911b610100600160a81b0316178955169283156117455750505060018060a01b03196001541617600155611709578280f35b805460ff60401b1916905551600181527fc7f505b2f371ae2175ee4913f4499e1f2633a7b5936321eed1cdaeb6115181d290602090a138808280f35b7672657365727665206973207a65726f206164647265737360481b90602088519362461bcd60e51b855284015260176024840152820152fd5b505050777472656173757279206973207a65726f206164647265737360401b83602088519362461bcd60e51b855284015260186024840152820152fd5b508a5162461bcd60e51b8152602081880152601c60248201527b61646d696e2077616c6c6574206973207a65726f206164647265737360201b818a01528790fd5b8c5162461bcd60e51b81526020818a0152601d60248201527f6465766f70732077616c6c6574206973207a65726f2061646472657373000000818c01528990fd5b8d5162461bcd60e51b81526020818b0181905260248201527f636f6e74726f6c6c65722061646d696e206973207a65726f2061646472657373818d01528a90fd5b6001600160481b0319166001600160401b011790558d3861167f565b508e5163f92ee8a960e01b81528a90fd5b90501538611662565b303b15915061165a565b91508f61164f565b8d80fd5b8b80fd5b8880fd5b8334610264576020366003190112610264576102606118ef611978565b6118f7611ad1565b611bca565b8382346102e757816003193601126102e75760015490516001600160a01b039091168152602090f35b8491346102a55760203660031901126102a5573563ffffffff60e01b81168091036102a55760209250637965db0b60e01b8114908115611967575b5015158152f35b6301ffc9a760e01b14905083611960565b600435906001600160a01b038216820361198e57565b600080fd5b602435906001600160a01b038216820361198e57565b606081019081106001600160401b038211176119c457604052565b634e487b7160e01b600052604160045260246000fd5b604081019081106001600160401b038211176119c457604052565b601f909101601f19168101906001600160401b038211908210176119c457604052565b6001600160401b0381116119c457601f01601f191660200190565b6020808252825181830181905290939260005b828110611a6857505060409293506000838284010152601f8019910116010190565b818101860151848201604001528501611a46565b6001600160a01b0391821681529116602082015260400190565b15611a9d57565b60405162461bcd60e51b815260206004820152600c60248201526b155b985d5d1a1bdc9a5e995960a21b6044820152606490fd5b3360009081526000805160206122d183398151915260205260409020546000805160206123b18339815191529060ff1615611b095750565b6044906040519063e2517d3f60e01b82523360048301526024820152fd5b33600090815260008051602061241183398151915260205260409020546000805160206123518339815191529060ff1615611b095750565b3360009081526000805160206123d183398151915260205260409020546000805160206122918339815191529060ff1615611b095750565b8060005260008051602061237183398151915260205260406000203360005260205260ff6040600020541615611b095750565b6001600160a01b031660008181527f44fa5399874b75da801cb431822b6afcadb876f84eb39d7f05bf697e94b4484e60205260408120549091906000805160206122f1833981519152906000805160206123718339815191529060ff16611c62578184526020526040832082845260205260408320600160ff19825416179055600080516020612231833981519152339380a4600190565b50505090565b6001600160a01b031660008181526000805160206124118339815191526020526040812054909190600080516020612351833981519152906000805160206123718339815191529060ff16611c62578184526020526040832082845260205260408320600160ff19825416179055600080516020612231833981519152339380a4600190565b6001600160a01b031660008181526000805160206123d18339815191526020526040812054909190600080516020612291833981519152906000805160206123718339815191529060ff16611c62578184526020526040832082845260205260408320600160ff19825416179055600080516020612231833981519152339380a4600190565b6001600160a01b031660008181526000805160206122d183398151915260205260408120549091906000805160206123b1833981519152906000805160206123718339815191529060ff16611c62578184526020526040832082845260205260408320600160ff19825416179055600080516020612231833981519152339380a4600190565b6001600160a01b031660008181527f902f286eb5a203d91a54df2a384c4e549fedd8c7edd06cf9d2c638ae3ff8e6476020526040812054909190600080516020612251833981519152906000805160206123718339815191529060ff16611c62578184526020526040832082845260205260408320600160ff19825416179055600080516020612231833981519152339380a4600190565b6001600160a01b031660008181527f30eb51a536424ca5e748bbe2a03c4a2bf25c26db60283f8e67c8d1223de7ac556020526040812054909190600080516020612311833981519152906000805160206123718339815191529060ff16611c62578184526020526040832082845260205260408320600160ff19825416179055600080516020612231833981519152339380a4600190565b6001600160a01b031660008181526000805160206122b18339815191526020526040812054909190600080516020612271833981519152906000805160206123718339815191529060ff16611c62578184526020526040832082845260205260408320600160ff19825416179055600080516020612231833981519152339380a4600190565b9060009180835260008051602061237183398151915280602052604084209260018060a01b03169283855260205260ff60408520541615600014611c62578184526020526040832082845260205260408320600160ff19825416179055600080516020612231833981519152339380a4600190565b6001600160a01b031660008181526000805160206122b18339815191526020526040812054909190600080516020612271833981519152906000805160206123718339815191529060ff1615611c6257818452602052604083208284526020526040832060ff198154169055600080516020612391833981519152339380a4600190565b6001600160a01b031660008181526000805160206124118339815191526020526040812054909190600080516020612351833981519152906000805160206123718339815191529060ff1615611c6257818452602052604083208284526020526040832060ff198154169055600080516020612391833981519152339380a4600190565b9060009180835260008051602061237183398151915280602052604084209260018060a01b03169283855260205260ff604085205416600014611c6257818452602052604083208284526020526040832060ff198154169055600080516020612391833981519152339380a4600190565b60ff6000805160206123f18339815191525460401c16156121bb57565b604051631afcd79f60e31b8152600490fd5b906121f457508051156121e257805190602001fd5b60405163d6bda27560e01b8152600490fd5b81511580612227575b612205575090565b604051639996b31560e01b81526001600160a01b039091166004820152602490fd5b50803b156121fd56fe2f8788117e7eff1d82e926ec794901d17c78024a50270940304540a733656f0dc5e2d1653feba496cf5ce3a744b90ea18acf0df3d036aba9b2f85992a1467906cee578699694e0144c2aba4ed7fb4e9131a3e2dbd751e7f11a646cc6a39d67bd793a6c9b7e0a9549c74edc2f9ae0dc50903dfaa9a56fb0116b27a8c71de3e2c6868522670d589d22700e0fd6a68677def66d00d118329570a4ee214482e89a95b16e88c42fd4e48df2dd6a2eabd6bc9aec654ec170056b470819f8892cc6431c30d41a597cac127d8249d31298b50e481ee82c3f4a49ff93c76a22735aa9f3ad04c9af967d21e6282dc31b054f3b8130ec8bf568c07df77a8a68591ccb1b1c30360894a13ba1a3210667c828492db98dca3e2076cc3735a920a3ca505d382bbc9027349758afcb3649adbc1f090fcd4eb9187cfbbd22483c7d103367d7b5017302dd7bc7dec4dceedda775e58dd541e08a116c6c53815c0bd028192f7b626800f6391f5c32d9c69d2a47ea670b442974b53935d1edc7fd64eb21e047a839171ba49807205ce4d355092ef5a8a18f56e8913cf4a201fbe287825b095693c217750cfb002fcf8644f87ebf6cf6e31899c8d8e9f7c329b465b6e36989a958507e8bf0c57e16840df040f15088dc2f81fe391c3923bec73e23a9662efc9c229c6a00617055eab3c2deca137542394cd2a9323004430c6c4280074ddde325664e4aafa26469706673582212208ac39d3bb8b4eefb0020d82aa5b849fe6b79e728a24d6e2436546a845c88f23a64736f6c63430008160033",
  "linkReferences": {},
  "deployedLinkReferences": {}
}