{
  "_format": "hh-sol-artifact-1",
  "contractName": "TermLoanIntentHookFacet",
  "sourceName": "contracts/facets/TermLoanIntentHookFacet.sol",
  "abi": [
    {
      "inputs": [],
      "stateMutability": "nonpayable",
      "type": "constructor"
    },
    {
      "inputs": [
        {
          "internalType": "address",
          "name": "target",
          "type": "address"
        }
      ],
      "name": "AddressEmptyCode",
      "type": "error"
    },
    {
      "inputs": [],
      "name": "AfterMaturity",
      "type": "error"
    },
    {
      "inputs": [],
      "name": "AlreadyInitialized",
      "type": "error"
    },
    {
      "inputs": [
        {
          "internalType": "address",
          "name": "signer",
          "type": "address"
        }
      ],
      "name": "AlreadyPreSigned",
      "type": "error"
    },
    {
      "inputs": [
        {
          "internalType": "uint256",
          "name": "orderIndex",
          "type": "uint256"
        },
        {
          "internalType": "uint256",
          "name": "maxFill",
          "type": "uint256"
        }
      ],
      "name": "BatchOrderInsufficientRemainingCapacity",
      "type": "error"
    },
    {
      "inputs": [],
      "name": "BorrowFeeTooHigh",
      "type": "error"
    },
    {
      "inputs": [],
      "name": "EmptyOrderBatch",
      "type": "error"
    },
    {
      "inputs": [],
      "name": "FailedCall",
      "type": "error"
    },
    {
      "inputs": [],
      "name": "FeeRecipientAlreadyApproved",
      "type": "error"
    },
    {
      "inputs": [],
      "name": "InconsistentRepoServicer",
      "type": "error"
    },
    {
      "inputs": [],
      "name": "InputOutputTokenCollision",
      "type": "error"
    },
    {
      "inputs": [],
      "name": "InsufficientFundsRetrieved",
      "type": "error"
    },
    {
      "inputs": [
        {
          "internalType": "uint256",
          "name": "capacityRemaining",
          "type": "uint256"
        }
      ],
      "name": "InsufficientRemainingCapacity",
      "type": "error"
    },
    {
      "inputs": [],
      "name": "InvalidCollateralAmountsInput",
      "type": "error"
    },
    {
      "inputs": [],
      "name": "InvalidCollateralToken",
      "type": "error"
    },
    {
      "inputs": [],
      "name": "InvalidDiscountRate",
      "type": "error"
    },
    {
      "inputs": [],
      "name": "InvalidFee",
      "type": "error"
    },
    {
      "inputs": [],
      "name": "InvalidFeeRecipient",
      "type": "error"
    },
    {
      "inputs": [],
      "name": "InvalidFillAmount",
      "type": "error"
    },
    {
      "inputs": [],
      "name": "InvalidMinSalt",
      "type": "error"
    },
    {
      "inputs": [],
      "name": "InvalidOfferRate",
      "type": "error"
    },
    {
      "inputs": [],
      "name": "InvalidOrderStatus",
      "type": "error"
    },
    {
      "inputs": [
        {
          "internalType": "string",
          "name": "message",
          "type": "string"
        }
      ],
      "name": "InvalidParameters",
      "type": "error"
    },
    {
      "inputs": [],
      "name": "InvalidPurchaseTokenAmount",
      "type": "error"
    },
    {
      "inputs": [],
      "name": "InvalidRepoId",
      "type": "error"
    },
    {
      "inputs": [],
      "name": "InvalidRetrieveFundsFunction",
      "type": "error"
    },
    {
      "inputs": [],
      "name": "InvalidRetrieveFundsListLength",
      "type": "error"
    },
    {
      "inputs": [
        {
          "internalType": "address",
          "name": "expected",
          "type": "address"
        },
        {
          "internalType": "address",
          "name": "actual",
          "type": "address"
        }
      ],
      "name": "InvalidSender",
      "type": "error"
    },
    {
      "inputs": [],
      "name": "InvalidSignature",
      "type": "error"
    },
    {
      "inputs": [
        {
          "internalType": "address",
          "name": "expected",
          "type": "address"
        },
        {
          "internalType": "address",
          "name": "actual",
          "type": "address"
        }
      ],
      "name": "InvalidTaker",
      "type": "error"
    },
    {
      "inputs": [],
      "name": "InvalidTermController",
      "type": "error"
    },
    {
      "inputs": [],
      "name": "MakerCannotBeTaker",
      "type": "error"
    },
    {
      "inputs": [],
      "name": "OrderBatchLengthMismatch",
      "type": "error"
    },
    {
      "inputs": [],
      "name": "OrderCancelled",
      "type": "error"
    },
    {
      "inputs": [],
      "name": "OrderExpired",
      "type": "error"
    },
    {
      "inputs": [],
      "name": "ReentrancyGuardReentrantCall",
      "type": "error"
    },
    {
      "inputs": [],
      "name": "RetrieveFundsNotSpecified",
      "type": "error"
    },
    {
      "inputs": [
        {
          "internalType": "uint8",
          "name": "bits",
          "type": "uint8"
        },
        {
          "internalType": "uint256",
          "name": "value",
          "type": "uint256"
        }
      ],
      "name": "SafeCastOverflowedUintDowncast",
      "type": "error"
    },
    {
      "inputs": [
        {
          "internalType": "address",
          "name": "token",
          "type": "address"
        }
      ],
      "name": "SafeERC20FailedOperation",
      "type": "error"
    },
    {
      "inputs": [],
      "name": "TermControllerAlreadyApproved",
      "type": "error"
    },
    {
      "inputs": [],
      "name": "UnsupportedHookSelector",
      "type": "error"
    },
    {
      "inputs": [],
      "name": "UnsupportedSelector",
      "type": "error"
    },
    {
      "inputs": [
        {
          "internalType": "address",
          "name": "user",
          "type": "address"
        },
        {
          "internalType": "address",
          "name": "inputToken",
          "type": "address"
        },
        {
          "internalType": "uint256",
          "name": "maxInputAmount",
          "type": "uint256"
        },
        {
          "internalType": "address",
          "name": "outputToken",
          "type": "address"
        },
        {
          "internalType": "uint256",
          "name": "minOutputAmount",
          "type": "uint256"
        },
        {
          "internalType": "bytes4",
          "name": "selector",
          "type": "bytes4"
        },
        {
          "internalType": "address",
          "name": "targetAddress",
          "type": "address"
        },
        {
          "internalType": "bytes",
          "name": "additionalCalldata",
          "type": "bytes"
        }
      ],
      "name": "generateActionCalldata",
      "outputs": [
        {
          "components": [
            {
              "internalType": "address",
              "name": "expectedInputToken",
              "type": "address"
            },
            {
              "internalType": "uint256",
              "name": "expectedInputAmount",
              "type": "uint256"
            },
            {
              "internalType": "address",
              "name": "expectedOutputToken",
              "type": "address"
            },
            {
              "internalType": "uint256",
              "name": "expectedOutputAmount",
              "type": "uint256"
            },
            {
              "internalType": "bool",
              "name": "isDeterministic",
              "type": "bool"
            }
          ],
          "internalType": "struct PreviewAction",
          "name": "",
          "type": "tuple"
        },
        {
          "internalType": "bytes",
          "name": "",
          "type": "bytes"
        }
      ],
      "stateMutability": "view",
      "type": "function"
    },
    {
      "inputs": [
        {
          "internalType": "bytes4",
          "name": "",
          "type": "bytes4"
        }
      ],
      "name": "previewMapping",
      "outputs": [
        {
          "internalType": "bytes4",
          "name": "",
          "type": "bytes4"
        }
      ],
      "stateMutability": "view",
      "type": "function"
    },
    {
      "inputs": [
        {
          "components": [
            {
              "internalType": "address",
              "name": "user",
              "type": "address"
            },
            {
              "internalType": "address",
              "name": "inputToken",
              "type": "address"
            },
            {
              "internalType": "uint256",
              "name": "maxInputAmount",
              "type": "uint256"
            },
            {
              "internalType": "address",
              "name": "outputToken",
              "type": "address"
            },
            {
              "internalType": "uint256",
              "name": "minOutputAmount",
              "type": "uint256"
            },
            {
              "internalType": "address",
              "name": "targetAddress",
              "type": "address"
            },
            {
              "internalType": "bytes",
              "name": "additionalCalldata",
              "type": "bytes"
            }
          ],
          "internalType": "struct ActionHookInput",
          "name": "actionHookInput",
          "type": "tuple"
        }
      ],
      "name": "previewSettleLimitLend",
      "outputs": [
        {
          "components": [
            {
              "internalType": "address",
              "name": "expectedInputToken",
              "type": "address"
            },
            {
              "internalType": "uint256",
              "name": "expectedInputAmount",
              "type": "uint256"
            },
            {
              "internalType": "address",
              "name": "expectedOutputToken",
              "type": "address"
            },
            {
              "internalType": "uint256",
              "name": "expectedOutputAmount",
              "type": "uint256"
            },
            {
              "internalType": "bool",
              "name": "isDeterministic",
              "type": "bool"
            }
          ],
          "internalType": "struct PreviewAction",
          "name": "",
          "type": "tuple"
        }
      ],
      "stateMutability": "view",
      "type": "function"
    },
    {
      "inputs": [
        {
          "components": [
            {
              "internalType": "address",
              "name": "user",
              "type": "address"
            },
            {
              "internalType": "address",
              "name": "inputToken",
              "type": "address"
            },
            {
              "internalType": "uint256",
              "name": "maxInputAmount",
              "type": "uint256"
            },
            {
              "internalType": "address",
              "name": "outputToken",
              "type": "address"
            },
            {
              "internalType": "uint256",
              "name": "minOutputAmount",
              "type": "uint256"
            },
            {
              "internalType": "address",
              "name": "targetAddress",
              "type": "address"
            },
            {
              "internalType": "bytes",
              "name": "additionalCalldata",
              "type": "bytes"
            }
          ],
          "internalType": "struct ActionHookInput",
          "name": "input",
          "type": "tuple"
        }
      ],
      "name": "settleLimitLendHook",
      "outputs": [],
      "stateMutability": "nonpayable",
      "type": "function"
    }
  ],
  "bytecode": "0x6080806040523461005c576001600081815563545a81d760e11b90526020527f6c07f78a2946596823370ca7bd3834d7d8d9c8aeebf3af6b15e1a0d383c47827805463ffffffff19166353ad362217905561189a90816100628239f35b600080fdfe60c0604052600436101561001257600080fd5b60003560e01c806353ad362214610df05780639ef72eff14610baa578063a8b503ae146100905763c3246edc1461004857600080fd5b3461008b57602036600319011261008b5760043563ffffffff60e01b80821680920361008b576020916000526001825260406000205460e01b9060405191168152f35b600080fd5b3461008b5761009e36610fbc565b6100a781611541565b7fc9e4fb8bffaf71b56abf2a5032f2ea641e97267f8c0d9bcf66c86998c650d62a546001600160a01b03168015159182610b97575b505015610b5c576100ec81611541565b6080526100fb60208201611541565b9061011461010c60c08301836111bf565b810190611208565b9193908451958615610b4a5781518714801590610b3f575b610b2d576001600160a01b03610141876114f6565b515116956040516325c3ed4760e01b81526020816004818b5afa90811561031657600091610aeb575b506001600160a01b03811660009081527f2a2e13707d6b40952f0aec05e2811137753b06b56d55208636050ec9ee68dd7d602052604090205460ff1615610ad95760405163e7e4b8db60e01b8152600481018990526020816024816001600160a01b0386165afa90811561031657600091610a9f575b50159081610a23575b50610a1157604051633d0f31f760e01b81526020816004818b5afa908115610316576000916109df575b5042116109cd576040516354ae26b160e11b8152976020896004818b5afa98891561031657600099610991575b50604051633d0f31f760e01b815297602089600481845afa9889156103165760009961095d575b5060009998979699956000986000905b84821061079057505060009060005b8481106103c9578b8b8b15610341576001600160a01b038111610322576e22d473030f116ddee9f6b43ac78ba391823b1561008b57604051631b63c28b60e11b81526080516001600160a01b039081166004830152306024830152928316604482015291166064820152906000908290608490829084905af180156103165761030b57005b610314906110a1565b005b6040513d6000823e3d90fd5b604490604051906306dfcc6560e41b825260a060048301526024820152fd5b6040516323b872dd60e01b60208281019182526080516001600160a01b039081166024850152306044850152606480850195909552938352929093169260009161038a8161103a565b519082855af115610316576000513d6103c05750803b155b6103a857005b60249060405190635274afe760e01b82526004820152fd5b600114156103a2565b8460001981011161077a57888d600019870183036107465750506103f18360408401356115d5565b905b604051630f7a077160e21b8152602081600481895afa90811561031657600091610717575b50604051630c87400960e11b81526020816004816001600160a01b0386165afa908115610316576000916106db575b5061045460ff82166111f1565b9361046260405195866110cf565b60ff8216808652610472906111f1565b601f190136602087013760009260005b60ff8416811061062c575b505050509d9a9b9c9d1561061a5760805160008051602061184583398151915280546001600160a01b0319166001600160a01b03929092169190911790556104d58188611519565b51916104e1828d611519565b51906104ed838c611519565b5191303b1561008b57604051631b78082360e11b815260a06004820152946105199060a4870190611615565b6080516001600160a01b0316602487015260448601919091528481036003190160648601528151808252602091820192909101906000905b8082106106025750505083810360031901608485015281519160028310156105ec5761059482604060208895946000978796520151918160208201520190611154565b038183305af1918215610316576001926105dd575b50818060a01b0319600080516020611845833981519152541660008051602061184583398151915255019b9a99989b610286565b6105e6906110a1565b8e6105a9565b634e487b7160e01b600052602160045260246000fd5b90919260208060019286518152019401920190610551565b604051633a001e0560e11b8152600490fd5b60405163172c48c760e01b8152600481018290526020816024816001600160a01b0387165afa908115610316576000916106a1575b506001600160a01b038e811691161461067c57600101610482565b919350509e9f9c9d9e610690915084611519565b5260018f9b9e9d9c9b80808061048d565b90506020813d6020116106d3575b816106bc602093836110cf565b8101031261008b576106cd9061152d565b38610661565b3d91506106af565b90506020813d60201161070f575b816106f6602093836110cf565b8101031261008b575160ff8116810361008b5738610447565b3d91506106e9565b610739915060203d60201161073f575b61073181836110cf565b8101906116be565b8f610418565b503d610727565b6107749161076861075d8561076d94989698611519565b5160408701356115e2565b6115f5565b80926115c8565b926103f3565b634e487b7160e01b600052601160045260246000fd5b9a9b909a989990989097836001600160a01b036107ad8e89611519565b5151160361094b576107bf8c8b611519565b5115610939576107cf8c87611519565b51604051632bba116f60e21b815260206004820181905281806107f56024820186611615565b0381305afa90811561031657600091610907575b506000527f2a2e13707d6b40952f0aec05e2811137753b06b56d55208636050ec9ee68dd8160205260406000206040519061084382611086565b546001600160801b03811682526004608082901c60ff1610156105ec576108849260ff60209260801c168284015201519060018060801b03905116906115d5565b61088e8d8c611519565b5181106108e957506108a08c8b611519565b516108aa916115c8565b978b826108b7828d611519565b51916108c39089611519565b5160a001516108d1926116dd565b6108da916115c8565b9a600101909b9a99989b610277565b8c60449160405191632609d21160e21b835260048301526024820152fd5b90506020813d602011610931575b81610922602093836110cf565b8101031261008b57518f610809565b3d9150610915565b60405163251a5d1160e21b8152600490fd5b604051630295ea8f60e21b8152600490fd5b9098506020813d602011610989575b81610979602093836110cf565b8101031261008b5751978a610267565b3d915061096c565b9098506020813d6020116109c5575b816109ad602093836110cf565b8101031261008b576109be9061152d565b9789610240565b3d91506109a0565b6040516304ff30ef60e21b8152600490fd5b90506020813d602011610a09575b816109fa602093836110cf565b8101031261008b575189610213565b3d91506109ed565b604051633e69d7d560e21b8152600490fd5b6040516319afa63b60e11b8152600481018a90529150602090829060249082906001600160a01b03165afa90811561031657600091610a65575b5015896101e9565b90506020813d602011610a97575b81610a80602093836110cf565b8101031261008b57610a91906115bb565b89610a5d565b3d9150610a73565b90506020813d602011610ad1575b81610aba602093836110cf565b8101031261008b57610acb906115bb565b8a6101e0565b3d9150610aad565b604051638ebd687760e01b8152600490fd5b90506020813d602011610b25575b81610b06602093836110cf565b8101031261008b57516001600160a01b038116810361008b578961016a565b3d9150610af9565b604051636923d4d160e11b8152600490fd5b50835187141561012c565b60405163212ed53760e01b8152600490fd5b60405162461bcd60e51b81526020600482015260136024820152722ab730baba3437b934bd32b21031b0b63632b960691b6044820152606490fd5b6001600160a01b031614905082806100dc565b3461008b5761010036600319011261008b576004356001600160a01b038181169182900361008b5760243581811680910361008b5760643582811680910361008b576001600160e01b031960a4358181169390929084840361008b5760c4359286841680940361008b5760e4356001600160401b03811161008b57610c3390369060040161110d565b95610c3c611194565b506000526020916001835260406000205460e01b91821615610dde576000610cf6928192610cae9660405191610c718361106b565b8d8352878301526044356040830152606082015260843560808201528760a08201528960c082015260405196879187830193845260248301611555565b0395610cc2601f19978881018352826110cf565b5190305afa3d15610dd6573d90610cd8826110f2565b91610ce660405193846110cf565b82523d60008584013e5b306117e1565b60a08180518101031261008b57610dc197610dd296610db595610da9936040519a610d208c61103a565b8b610d2c88840161152d565b80825282604085015191828b850152610d476060870161152d565b938460408201526080610d6660a0828a0151998a6060860152016115bb565b91015260405198610d768a61106b565b895216898801526040870152166060850152608084015260a083015260c082015260405195869384015260248301611555565b039081018352826110cf565b60405193848094610fed565b60c060a084015260c0830190611154565b0390f35b606090610cf0565b604051631416e68f60e01b8152600490fd5b3461008b57610dfe36610fbc565b610e06611194565b50610e1761010c60c08301836111bf565b50508091505115610b4a576001600160a01b03908190610e36906114f6565b515116604051916354ae26b160e11b83526020918284600481845afa93841561031657600094610f85575b5060048386019184610e7284611541565b9160405193848092630f7a077160e21b82525afa9182156103165785918591600094610f63575b506040516320db25d560e01b815290821660048201529283916024918391165afa90811561031657600091610f36575b501561061a57610ed98291611541565b16921692828414610f245760a09360809260405194610ef78661103a565b855260408301359085015260408401520135606082015260016080820152610f226040518092610fed565bf35b604051635542f09960e01b8152600490fd5b90508381813d8311610f5c575b610f4d81836110cf565b8101031261008b575186610ec9565b503d610f43565b6024919450610f7e90843d861161073f5761073181836110cf565b9390610e99565b9093508281813d8311610fb5575b610f9d81836110cf565b8101031261008b57610fae9061152d565b9285610e61565b503d610f93565b6003199060208183011261008b57600435916001600160401b03831161008b578260e09203011261008b5760040190565b6080809160018060a01b038082511685526020820151602086015260408201511660408501526060810151606085015201511515910152565b35906001600160a01b038216820361008b57565b60a081019081106001600160401b0382111761105557604052565b634e487b7160e01b600052604160045260246000fd5b60e081019081106001600160401b0382111761105557604052565b604081019081106001600160401b0382111761105557604052565b6001600160401b03811161105557604052565b602081019081106001600160401b0382111761105557604052565b601f909101601f19168101906001600160401b0382119082101761105557604052565b6001600160401b03811161105557601f01601f191660200190565b81601f8201121561008b57803590611124826110f2565b9261113260405194856110cf565b8284526020838301011161008b57816000926020809301838601378301015290565b919082519283825260005b848110611180575050826000602080949584010152601f8019910116010190565b60208183018101518483018201520161115f565b604051906111a18261103a565b60006080838281528260208201528260408201528260608201520152565b903590601e198136030182121561008b57018035906001600160401b03821161008b5760200191813603831361008b57565b6001600160401b0381116110555760051b60200190565b60808183031261008b578035801515810361008b579260208083013560018060401b0360a05260a051811161008b5783019084601f8301121561008b57813591611251836111f1565b90604093611261855193846110cf565b808352838084019160051b8301019188831161008b57848101915b8383106113af5750505050948285013560a051811161008b57850181601f8201121561008b578035906112ae826111f1565b916112bb865193846110cf565b808352848084019160051b8301019184831161008b57858101915b83831061134b57505050509460608101359060a051821161008b570181601f8201121561008b5780359061131561130c836111f1565b955195866110cf565b818552838086019260051b82010192831161008b578301905b82821061133c575050505090565b8135815290830190830161132e565b823560a051811161008b5782019088601f19838903011261008b5788519061137282611086565b88830135600281101561008b578252898301359160a051831161008b576113a0898b8096958196010161110d565b838201528152019201916112d6565b823560a051811161008b5761014091601f19918401808d038301841361008b5789519084820182811060a0518211176114e1578b526113ef8a8201611026565b82528a8101358a830152606090818101358c84015261141060808201611026565b8284015260a095611422878301611026565b608085015260c096878301359085015260e096611440888401611026565b908501526101009687830135908501526101209687830135908501528101359460a051861161008b578f95839201809603011261008b578a519080820182811060a0518211176114e1578c52848b01356001600160e01b03198116810361008b5782526114ae8c8601611026565b8b8301528401359460a051861161008b576114cf8f8c80988198010161110d565b8c83015282015281520192019161127c565b60246000634e487b7160e01b81526041600452fd5b8051156115035760200190565b634e487b7160e01b600052603260045260246000fd5b80518210156115035760209160051b010190565b51906001600160a01b038216820361008b57565b356001600160a01b038116810361008b5790565b61010060c06115b8936020845260018060a01b0380825116602086015280602083015116604086015260408201516060860152806060830151166080860152608082015160a086015260a0820151168285015201519160e0808201520190611154565b90565b5190811515820361008b57565b9190820180921161077a57565b9190820391821161077a57565b8181029291811591840414171561077a57565b81156115ff570490565b634e487b7160e01b600052601260045260246000fd5b906101a060406115b89361014060018060a01b039081835116865260208301516020870152838301518487015281606084015116606087015281608084015116608087015260a083015160a08701528160c08401511660c087015260e083015160e0870152610100808401519087015280610120809401519387015263ffffffff60e01b8351169086015260208201511661016085015201519160606101808201520190611154565b9081602091031261008b57516001600160a01b038116810361008b5790565b91929190806116eb57509150565b6117066040948551926116fd846110b4565b835242906115d5565b845190611712826110b4565b8152845190611720826110b4565b6301da9c00825260008651611734816110b4565b5251670de0b6b3a7640000928382029180830485149015171561077a5761176161178792859451906115f5565b9087519161176e836110b4565b82526000885161177d816110b4565b52519051906115e2565b0481855191611795836110b4565b80835210156117d057936117bc836115b89596600084516117b5816110b4565b52516115e2565b8091516117c8816110b4565b5204906115d5565b84516375e788df60e11b8152600490fd5b9061180857508051156117f657805190602001fd5b60405163d6bda27560e01b8152600490fd5b8151158061183b575b611819575090565b604051639996b31560e01b81526001600160a01b039091166004820152602490fd5b50803b1561181156fe2a2e13707d6b40952f0aec05e2811137753b06b56d55208636050ec9ee68dd7ba264697066735822122082a34f685cdce9f036c8c7f2eccc057170df9b10ef027b34746640d7205985eb64736f6c63430008160033",
  "linkReferences": {},
  "deployedLinkReferences": {}
}