{
  "_format": "hh-sol-artifact-1",
  "contractName": "TermRepoDeployerFactory",
  "sourceName": "contracts/factory/TermRepoDeployerFactory.sol",
  "abi": [
    {
      "inputs": [
        {
          "internalType": "address",
          "name": "admin_",
          "type": "address"
        },
        {
          "internalType": "address",
          "name": "devops_",
          "type": "address"
        },
        {
          "internalType": "contract ITermController",
          "name": "controller_",
          "type": "address"
        },
        {
          "internalType": "contract ITermEventEmitter",
          "name": "emitter_",
          "type": "address"
        },
        {
          "internalType": "contract TermPriceConsumerV3",
          "name": "priceOracle_",
          "type": "address"
        },
        {
          "internalType": "address",
          "name": "termDiamond_",
          "type": "address"
        }
      ],
      "stateMutability": "nonpayable",
      "type": "constructor"
    },
    {
      "inputs": [],
      "name": "AccessControlBadConfirmation",
      "type": "error"
    },
    {
      "inputs": [
        {
          "internalType": "address",
          "name": "account",
          "type": "address"
        },
        {
          "internalType": "bytes32",
          "name": "neededRole",
          "type": "bytes32"
        }
      ],
      "name": "AccessControlUnauthorizedAccount",
      "type": "error"
    },
    {
      "inputs": [],
      "name": "DeployingAuctionsPaused",
      "type": "error"
    },
    {
      "inputs": [],
      "name": "DeployingPaused",
      "type": "error"
    },
    {
      "inputs": [],
      "name": "DeployingTermReposPaused",
      "type": "error"
    },
    {
      "inputs": [
        {
          "internalType": "bytes32",
          "name": "auctionId",
          "type": "bytes32"
        }
      ],
      "name": "DuplicateAuctionId",
      "type": "error"
    },
    {
      "inputs": [],
      "name": "DuplicateCollateralToken",
      "type": "error"
    },
    {
      "inputs": [
        {
          "internalType": "bytes32",
          "name": "repoId",
          "type": "bytes32"
        }
      ],
      "name": "DuplicateRepoId",
      "type": "error"
    },
    {
      "inputs": [],
      "name": "EmptyTermAuctionId",
      "type": "error"
    },
    {
      "inputs": [],
      "name": "EmptyTermRepoId",
      "type": "error"
    },
    {
      "inputs": [],
      "name": "InitialRatioBelowMaintenance",
      "type": "error"
    },
    {
      "inputs": [],
      "name": "InvalidAuctionEndTime",
      "type": "error"
    },
    {
      "inputs": [],
      "name": "InvalidAuctionStartTime",
      "type": "error"
    },
    {
      "inputs": [],
      "name": "InvalidClearingPricePostProcessingOffset",
      "type": "error"
    },
    {
      "inputs": [],
      "name": "InvalidInitialCollateralRatio",
      "type": "error"
    },
    {
      "inputs": [],
      "name": "InvalidLiquidatedDamage",
      "type": "error"
    },
    {
      "inputs": [],
      "name": "InvalidLiquidatedDamageDueToProtocol",
      "type": "error"
    },
    {
      "inputs": [],
      "name": "InvalidMaintenanceRatio",
      "type": "error"
    },
    {
      "inputs": [],
      "name": "InvalidNetExposureCapOnLiquidation",
      "type": "error"
    },
    {
      "inputs": [],
      "name": "InvalidRevealTime",
      "type": "error"
    },
    {
      "inputs": [],
      "name": "InvalidTermStartTime",
      "type": "error"
    },
    {
      "inputs": [],
      "name": "InvalidTokenDecimals",
      "type": "error"
    },
    {
      "inputs": [],
      "name": "MaturityTimestampInPast",
      "type": "error"
    },
    {
      "inputs": [],
      "name": "NoAuctionVersion",
      "type": "error"
    },
    {
      "inputs": [],
      "name": "NoCollateralTokens",
      "type": "error"
    },
    {
      "inputs": [],
      "name": "NoTermVersion",
      "type": "error"
    },
    {
      "inputs": [],
      "name": "NotFactoryDeployed",
      "type": "error"
    },
    {
      "inputs": [],
      "name": "NotTermRepoCollateral",
      "type": "error"
    },
    {
      "inputs": [],
      "name": "RepoIdMismatch",
      "type": "error"
    },
    {
      "inputs": [],
      "name": "TermPastMaturity",
      "type": "error"
    },
    {
      "inputs": [],
      "name": "TokenNotSupportedByOracle",
      "type": "error"
    },
    {
      "inputs": [],
      "name": "TokenZeroAddress",
      "type": "error"
    },
    {
      "inputs": [],
      "name": "ZeroAddress",
      "type": "error"
    },
    {
      "inputs": [],
      "name": "ZeroMinimumTenderAmount",
      "type": "error"
    },
    {
      "inputs": [],
      "name": "ZeroMintExposureCap",
      "type": "error"
    },
    {
      "inputs": [],
      "name": "ZeroRepurchaseWindow",
      "type": "error"
    },
    {
      "anonymous": false,
      "inputs": [
        {
          "indexed": false,
          "internalType": "address",
          "name": "termAuctionImpl",
          "type": "address"
        },
        {
          "indexed": false,
          "internalType": "address",
          "name": "termAuctionBidLockerImpl",
          "type": "address"
        },
        {
          "indexed": false,
          "internalType": "address",
          "name": "termAuctionOfferLockerImpl",
          "type": "address"
        }
      ],
      "name": "AuctionImplementationsUpdated",
      "type": "event"
    },
    {
      "anonymous": false,
      "inputs": [
        {
          "indexed": false,
          "internalType": "address",
          "name": "termRepoServicerImpl",
          "type": "address"
        },
        {
          "indexed": false,
          "internalType": "address",
          "name": "termRepoCollateralManagerImpl",
          "type": "address"
        },
        {
          "indexed": false,
          "internalType": "address",
          "name": "termRepoLockerImpl",
          "type": "address"
        },
        {
          "indexed": false,
          "internalType": "address",
          "name": "termRepoTokenImpl",
          "type": "address"
        },
        {
          "indexed": false,
          "internalType": "address",
          "name": "termRepoRolloverManagerImpl",
          "type": "address"
        }
      ],
      "name": "RepoImplementationsUpdated",
      "type": "event"
    },
    {
      "anonymous": false,
      "inputs": [
        {
          "indexed": true,
          "internalType": "bytes32",
          "name": "role",
          "type": "bytes32"
        },
        {
          "indexed": true,
          "internalType": "bytes32",
          "name": "previousAdminRole",
          "type": "bytes32"
        },
        {
          "indexed": true,
          "internalType": "bytes32",
          "name": "newAdminRole",
          "type": "bytes32"
        }
      ],
      "name": "RoleAdminChanged",
      "type": "event"
    },
    {
      "anonymous": false,
      "inputs": [
        {
          "indexed": true,
          "internalType": "bytes32",
          "name": "role",
          "type": "bytes32"
        },
        {
          "indexed": true,
          "internalType": "address",
          "name": "account",
          "type": "address"
        },
        {
          "indexed": true,
          "internalType": "address",
          "name": "sender",
          "type": "address"
        }
      ],
      "name": "RoleGranted",
      "type": "event"
    },
    {
      "anonymous": false,
      "inputs": [
        {
          "indexed": true,
          "internalType": "bytes32",
          "name": "role",
          "type": "bytes32"
        },
        {
          "indexed": true,
          "internalType": "address",
          "name": "account",
          "type": "address"
        },
        {
          "indexed": true,
          "internalType": "address",
          "name": "sender",
          "type": "address"
        }
      ],
      "name": "RoleRevoked",
      "type": "event"
    },
    {
      "anonymous": false,
      "inputs": [
        {
          "indexed": false,
          "internalType": "bytes32",
          "name": "termRepoId",
          "type": "bytes32"
        },
        {
          "indexed": false,
          "internalType": "bytes32",
          "name": "termAuctionId",
          "type": "bytes32"
        },
        {
          "indexed": false,
          "internalType": "address",
          "name": "termAuction",
          "type": "address"
        },
        {
          "indexed": false,
          "internalType": "address",
          "name": "termAuctionBidLocker",
          "type": "address"
        },
        {
          "indexed": false,
          "internalType": "address",
          "name": "termAuctionOfferLocker",
          "type": "address"
        },
        {
          "indexed": false,
          "internalType": "address",
          "name": "deployCaller",
          "type": "address"
        },
        {
          "indexed": false,
          "internalType": "bool",
          "name": "isPermissionlessDeployment",
          "type": "bool"
        }
      ],
      "name": "TermAuctionDeployed",
      "type": "event"
    },
    {
      "anonymous": false,
      "inputs": [
        {
          "indexed": false,
          "internalType": "bytes32",
          "name": "termRepoId",
          "type": "bytes32"
        },
        {
          "indexed": false,
          "internalType": "address",
          "name": "termRepoServicer",
          "type": "address"
        },
        {
          "indexed": false,
          "internalType": "address",
          "name": "termRepoCollateralManager",
          "type": "address"
        },
        {
          "indexed": false,
          "internalType": "address",
          "name": "termRepoLocker",
          "type": "address"
        },
        {
          "indexed": false,
          "internalType": "address",
          "name": "termRepoToken",
          "type": "address"
        },
        {
          "indexed": false,
          "internalType": "address",
          "name": "rolloverManager",
          "type": "address"
        },
        {
          "indexed": false,
          "internalType": "address",
          "name": "deployCaller",
          "type": "address"
        },
        {
          "indexed": false,
          "internalType": "bool",
          "name": "isPermissionlessDeployment",
          "type": "bool"
        },
        {
          "indexed": false,
          "internalType": "string",
          "name": "termRepoIdInputString",
          "type": "string"
        }
      ],
      "name": "TermRepoDeployed",
      "type": "event"
    },
    {
      "inputs": [],
      "name": "ADMIN_ROLE",
      "outputs": [
        {
          "internalType": "bytes32",
          "name": "",
          "type": "bytes32"
        }
      ],
      "stateMutability": "view",
      "type": "function"
    },
    {
      "inputs": [],
      "name": "DEFAULT_ADMIN_ROLE",
      "outputs": [
        {
          "internalType": "bytes32",
          "name": "",
          "type": "bytes32"
        }
      ],
      "stateMutability": "view",
      "type": "function"
    },
    {
      "inputs": [],
      "name": "DEMINIMIS_MARGIN_THRESHOLD",
      "outputs": [
        {
          "internalType": "uint256",
          "name": "",
          "type": "uint256"
        }
      ],
      "stateMutability": "view",
      "type": "function"
    },
    {
      "inputs": [],
      "name": "DEVOPS_ROLE",
      "outputs": [
        {
          "internalType": "bytes32",
          "name": "",
          "type": "bytes32"
        }
      ],
      "stateMutability": "view",
      "type": "function"
    },
    {
      "inputs": [],
      "name": "REPO_TOKEN_REDEMPTION_VALUE",
      "outputs": [
        {
          "internalType": "uint256",
          "name": "",
          "type": "uint256"
        }
      ],
      "stateMutability": "view",
      "type": "function"
    },
    {
      "inputs": [],
      "name": "admin",
      "outputs": [
        {
          "internalType": "address",
          "name": "",
          "type": "address"
        }
      ],
      "stateMutability": "view",
      "type": "function"
    },
    {
      "inputs": [],
      "name": "auctionVersion",
      "outputs": [
        {
          "internalType": "string",
          "name": "",
          "type": "string"
        }
      ],
      "stateMutability": "view",
      "type": "function"
    },
    {
      "inputs": [],
      "name": "controller",
      "outputs": [
        {
          "internalType": "contract ITermController",
          "name": "",
          "type": "address"
        }
      ],
      "stateMutability": "view",
      "type": "function"
    },
    {
      "inputs": [
        {
          "components": [
            {
              "internalType": "string",
              "name": "termRepoId",
              "type": "string"
            },
            {
              "internalType": "string",
              "name": "termAuctionId",
              "type": "string"
            },
            {
              "internalType": "uint256",
              "name": "auctionStartTime",
              "type": "uint256"
            },
            {
              "internalType": "uint256",
              "name": "revealTime",
              "type": "uint256"
            },
            {
              "internalType": "uint256",
              "name": "auctionEndTime",
              "type": "uint256"
            },
            {
              "internalType": "uint256",
              "name": "termStart",
              "type": "uint256"
            },
            {
              "internalType": "uint256",
              "name": "minimumTenderAmount",
              "type": "uint256"
            },
            {
              "internalType": "uint256",
              "name": "clearingPricePostProcessingOffset",
              "type": "uint256"
            }
          ],
          "internalType": "struct TermRepoDeployerFactory.TermAuctionDeployParams",
          "name": "auctionDeployParams",
          "type": "tuple"
        },
        {
          "internalType": "address",
          "name": "termRepoServicer",
          "type": "address"
        }
      ],
      "name": "deployAuctionAndReopenTerm",
      "outputs": [
        {
          "components": [
            {
              "internalType": "address",
              "name": "termAuction",
              "type": "address"
            },
            {
              "internalType": "address",
              "name": "termAuctionBidLocker",
              "type": "address"
            },
            {
              "internalType": "address",
              "name": "termAuctionOfferLocker",
              "type": "address"
            }
          ],
          "internalType": "struct TermRepoDeployerFactory.DeployedTermAuction",
          "name": "deployed",
          "type": "tuple"
        }
      ],
      "stateMutability": "nonpayable",
      "type": "function"
    },
    {
      "inputs": [
        {
          "components": [
            {
              "internalType": "string",
              "name": "termRepoId",
              "type": "string"
            },
            {
              "internalType": "uint256",
              "name": "maturityTimestamp",
              "type": "uint256"
            },
            {
              "internalType": "uint256",
              "name": "repurchaseWindow",
              "type": "uint256"
            },
            {
              "internalType": "uint256",
              "name": "redemptionBuffer",
              "type": "uint256"
            },
            {
              "internalType": "address",
              "name": "purchaseToken",
              "type": "address"
            },
            {
              "internalType": "uint256",
              "name": "servicingFee",
              "type": "uint256"
            },
            {
              "internalType": "uint256",
              "name": "netExposureCapOnLiquidation",
              "type": "uint256"
            },
            {
              "internalType": "uint256",
              "name": "liquidatedDamagesDueToProtocol",
              "type": "uint256"
            },
            {
              "components": [
                {
                  "internalType": "address",
                  "name": "tokenAddress",
                  "type": "address"
                },
                {
                  "internalType": "uint256",
                  "name": "initialCollateralRatio",
                  "type": "uint256"
                },
                {
                  "internalType": "uint256",
                  "name": "maintenanceRatio",
                  "type": "uint256"
                },
                {
                  "internalType": "uint256",
                  "name": "liquidatedDamage",
                  "type": "uint256"
                }
              ],
              "internalType": "struct Collateral[]",
              "name": "collateralTokens",
              "type": "tuple[]"
            },
            {
              "internalType": "string",
              "name": "tokenName",
              "type": "string"
            },
            {
              "internalType": "string",
              "name": "tokenSymbol",
              "type": "string"
            },
            {
              "internalType": "uint256",
              "name": "mintExposureCap",
              "type": "uint256"
            }
          ],
          "internalType": "struct TermRepoDeployerFactory.TermRepoDeployParams",
          "name": "deployParams",
          "type": "tuple"
        }
      ],
      "name": "deployTermRepo",
      "outputs": [
        {
          "components": [
            {
              "internalType": "address",
              "name": "termRepoServicer",
              "type": "address"
            },
            {
              "internalType": "address",
              "name": "termRepoCollateralManager",
              "type": "address"
            },
            {
              "internalType": "address",
              "name": "termRepoLocker",
              "type": "address"
            },
            {
              "internalType": "address",
              "name": "termRepoToken",
              "type": "address"
            },
            {
              "internalType": "address",
              "name": "rolloverManager",
              "type": "address"
            }
          ],
          "internalType": "struct TermRepoDeployerFactory.DeployedTermRepo",
          "name": "deployed",
          "type": "tuple"
        }
      ],
      "stateMutability": "nonpayable",
      "type": "function"
    },
    {
      "inputs": [],
      "name": "deployingAuctionsPaused",
      "outputs": [
        {
          "internalType": "bool",
          "name": "",
          "type": "bool"
        }
      ],
      "stateMutability": "view",
      "type": "function"
    },
    {
      "inputs": [],
      "name": "deployingPaused",
      "outputs": [
        {
          "internalType": "bool",
          "name": "",
          "type": "bool"
        }
      ],
      "stateMutability": "view",
      "type": "function"
    },
    {
      "inputs": [],
      "name": "deployingTermReposPaused",
      "outputs": [
        {
          "internalType": "bool",
          "name": "",
          "type": "bool"
        }
      ],
      "stateMutability": "view",
      "type": "function"
    },
    {
      "inputs": [],
      "name": "devops",
      "outputs": [
        {
          "internalType": "address",
          "name": "",
          "type": "address"
        }
      ],
      "stateMutability": "view",
      "type": "function"
    },
    {
      "inputs": [],
      "name": "emitter",
      "outputs": [
        {
          "internalType": "contract ITermEventEmitter",
          "name": "",
          "type": "address"
        }
      ],
      "stateMutability": "view",
      "type": "function"
    },
    {
      "inputs": [
        {
          "internalType": "bytes32",
          "name": "role",
          "type": "bytes32"
        }
      ],
      "name": "getRoleAdmin",
      "outputs": [
        {
          "internalType": "bytes32",
          "name": "",
          "type": "bytes32"
        }
      ],
      "stateMutability": "view",
      "type": "function"
    },
    {
      "inputs": [
        {
          "internalType": "bytes32",
          "name": "role",
          "type": "bytes32"
        },
        {
          "internalType": "address",
          "name": "account",
          "type": "address"
        }
      ],
      "name": "grantRole",
      "outputs": [],
      "stateMutability": "nonpayable",
      "type": "function"
    },
    {
      "inputs": [
        {
          "internalType": "bytes32",
          "name": "role",
          "type": "bytes32"
        },
        {
          "internalType": "address",
          "name": "account",
          "type": "address"
        }
      ],
      "name": "hasRole",
      "outputs": [
        {
          "internalType": "bool",
          "name": "",
          "type": "bool"
        }
      ],
      "stateMutability": "view",
      "type": "function"
    },
    {
      "inputs": [],
      "name": "pauseAuctionDeploys",
      "outputs": [],
      "stateMutability": "nonpayable",
      "type": "function"
    },
    {
      "inputs": [],
      "name": "pauseDeploying",
      "outputs": [],
      "stateMutability": "nonpayable",
      "type": "function"
    },
    {
      "inputs": [],
      "name": "pauseTermRepoDeploys",
      "outputs": [],
      "stateMutability": "nonpayable",
      "type": "function"
    },
    {
      "inputs": [],
      "name": "priceOracle",
      "outputs": [
        {
          "internalType": "contract TermPriceConsumerV3",
          "name": "",
          "type": "address"
        }
      ],
      "stateMutability": "view",
      "type": "function"
    },
    {
      "inputs": [
        {
          "internalType": "bytes32",
          "name": "role",
          "type": "bytes32"
        },
        {
          "internalType": "address",
          "name": "callerConfirmation",
          "type": "address"
        }
      ],
      "name": "renounceRole",
      "outputs": [],
      "stateMutability": "nonpayable",
      "type": "function"
    },
    {
      "inputs": [
        {
          "internalType": "bytes32",
          "name": "role",
          "type": "bytes32"
        },
        {
          "internalType": "address",
          "name": "account",
          "type": "address"
        }
      ],
      "name": "revokeRole",
      "outputs": [],
      "stateMutability": "nonpayable",
      "type": "function"
    },
    {
      "inputs": [
        {
          "internalType": "contract ITermController",
          "name": "controller_",
          "type": "address"
        },
        {
          "internalType": "contract ITermEventEmitter",
          "name": "emitter_",
          "type": "address"
        },
        {
          "internalType": "contract TermPriceConsumerV3",
          "name": "priceOracle_",
          "type": "address"
        }
      ],
      "name": "setProtocolContracts",
      "outputs": [],
      "stateMutability": "nonpayable",
      "type": "function"
    },
    {
      "inputs": [
        {
          "internalType": "address",
          "name": "termAuctionImpl_",
          "type": "address"
        },
        {
          "internalType": "address",
          "name": "termAuctionBidLockerImpl_",
          "type": "address"
        },
        {
          "internalType": "address",
          "name": "termAuctionOfferLockerImpl_",
          "type": "address"
        },
        {
          "internalType": "string",
          "name": "auctionVersion_",
          "type": "string"
        }
      ],
      "name": "setTermAuctionImplementations",
      "outputs": [],
      "stateMutability": "nonpayable",
      "type": "function"
    },
    {
      "inputs": [
        {
          "internalType": "address",
          "name": "termRepoServicerImpl_",
          "type": "address"
        },
        {
          "internalType": "address",
          "name": "termRepoCollateralManagerImpl_",
          "type": "address"
        },
        {
          "internalType": "address",
          "name": "termRepoLockerImpl_",
          "type": "address"
        },
        {
          "internalType": "address",
          "name": "termRepoTokenImpl_",
          "type": "address"
        },
        {
          "internalType": "address",
          "name": "termRepoRolloverManagerImpl_",
          "type": "address"
        },
        {
          "internalType": "string",
          "name": "termVersion_",
          "type": "string"
        }
      ],
      "name": "setTermRepoImplementations",
      "outputs": [],
      "stateMutability": "nonpayable",
      "type": "function"
    },
    {
      "inputs": [
        {
          "internalType": "bytes4",
          "name": "interfaceId",
          "type": "bytes4"
        }
      ],
      "name": "supportsInterface",
      "outputs": [
        {
          "internalType": "bool",
          "name": "",
          "type": "bool"
        }
      ],
      "stateMutability": "view",
      "type": "function"
    },
    {
      "inputs": [],
      "name": "termAuctionBidLockerImpl",
      "outputs": [
        {
          "internalType": "address",
          "name": "",
          "type": "address"
        }
      ],
      "stateMutability": "view",
      "type": "function"
    },
    {
      "inputs": [],
      "name": "termAuctionImpl",
      "outputs": [
        {
          "internalType": "address",
          "name": "",
          "type": "address"
        }
      ],
      "stateMutability": "view",
      "type": "function"
    },
    {
      "inputs": [],
      "name": "termAuctionOfferLockerImpl",
      "outputs": [
        {
          "internalType": "address",
          "name": "",
          "type": "address"
        }
      ],
      "stateMutability": "view",
      "type": "function"
    },
    {
      "inputs": [],
      "name": "termDiamond",
      "outputs": [
        {
          "internalType": "address",
          "name": "",
          "type": "address"
        }
      ],
      "stateMutability": "view",
      "type": "function"
    },
    {
      "inputs": [],
      "name": "termRepoCollateralManagerImpl",
      "outputs": [
        {
          "internalType": "address",
          "name": "",
          "type": "address"
        }
      ],
      "stateMutability": "view",
      "type": "function"
    },
    {
      "inputs": [],
      "name": "termRepoLockerImpl",
      "outputs": [
        {
          "internalType": "address",
          "name": "",
          "type": "address"
        }
      ],
      "stateMutability": "view",
      "type": "function"
    },
    {
      "inputs": [],
      "name": "termRepoRolloverManagerImpl",
      "outputs": [
        {
          "internalType": "address",
          "name": "",
          "type": "address"
        }
      ],
      "stateMutability": "view",
      "type": "function"
    },
    {
      "inputs": [],
      "name": "termRepoServicerImpl",
      "outputs": [
        {
          "internalType": "address",
          "name": "",
          "type": "address"
        }
      ],
      "stateMutability": "view",
      "type": "function"
    },
    {
      "inputs": [],
      "name": "termRepoTokenImpl",
      "outputs": [
        {
          "internalType": "address",
          "name": "",
          "type": "address"
        }
      ],
      "stateMutability": "view",
      "type": "function"
    },
    {
      "inputs": [],
      "name": "termVersion",
      "outputs": [
        {
          "internalType": "string",
          "name": "",
          "type": "string"
        }
      ],
      "stateMutability": "view",
      "type": "function"
    },
    {
      "inputs": [],
      "name": "unpauseAuctionDeploys",
      "outputs": [],
      "stateMutability": "nonpayable",
      "type": "function"
    },
    {
      "inputs": [],
      "name": "unpauseDeploying",
      "outputs": [],
      "stateMutability": "nonpayable",
      "type": "function"
    },
    {
      "inputs": [],
      "name": "unpauseTermRepoDeploys",
      "outputs": [],
      "stateMutability": "nonpayable",
      "type": "function"
    }
  ],
  "bytecode": "0x60e034620001f657601f620048db38819003918201601f191683019291906001600160401b03841183851017620001fb578160c09284926040968752833981010312620001f657620000518162000211565b90620000606020820162000211565b818401516001600160a01b0393848216929091839003620001f657606084015191858316809303620001f657608085015194868616809603620001f65760a0620000ab910162000211565b9580821615620001e55780831615620001e557861615620001d4578315620001d4578215620001d4578415620001d457620000e68162000226565b50620000f282620002c8565b5060805260a05260018060a01b031991826001541617600155816002541617600255600354161760035560c052516145559081620003668239608051818181610225015281816110640152818161118e015281816112d401528181612ad901528181612bf001528181612ec30152612f83015260a0518181816104a30152818161103c01528181611166015281816112ac01528181612afb01528181612bc801528181612d1501528181612e940152612fa5015260c05181818161108c015281816111b601528181611b3401528181612cd701528181612e660152612fc70152f35b865163d92e233d60e01b8152600490fd5b875163d92e233d60e01b8152600490fd5b600080fd5b634e487b7160e01b600052604160045260246000fd5b51906001600160a01b0382168203620001f657565b6001600160a01b031660008181527f7d7ffb7a348e1c6a02869081a26547b49160dd3df72d1d75a570eb9b698292ec60205260408120549091907fa49807205ce4d355092ef5a8a18f56e8913cf4a201fbe287825b095693c217759060ff16620002c357808352826020526040832082845260205260408320600160ff19825416179055600080516020620048bb833981519152339380a4600190565b505090565b6001600160a01b031660008181527fc4fa85ddc8456762f8b72103c3e0ab9fc9da9d046b037e6a078b6d2d90f1297860205260408120549091907f793a6c9b7e0a9549c74edc2f9ae0dc50903dfaa9a56fb0116b27a8c71de3e2c69060ff16620002c357808352826020526040832082845260205260408320600160ff19825416179055600080516020620048bb833981519152339380a460019056fe60808060405260043610156200001457600080fd5b600090813560e01c90816301ffc9a714620039935750806318d4c36814620039605780631a724a1b1462003933578063201a66251462003907578063248a9ca314620038d95780632630c12f14620038ae578063294d2ad914620038835780632d15718a14620035c05780632f2ff15d146200357b57806336568abe146200352c5780633ed80a6814620034f95780636accb7b014620034d15780636c2afedd1462001f9c57806375b238fc1462001f705780638dda37eb1462001d1557806391d148541462001cc657806396bcadce1462001c9b5780639a7621bc1462001c735780639cad15081462001c4b578063a217fddf1462001c2d578063b49966ef1462001b90578063b6351dfc1462001b63578063b9ab2e5a1462001b1c578063be068595146200067e578063c2b804511462000653578063c3c521ac1462000628578063c48429e21462000602578063c4b1002a14620005d7578063c89868e814620005ac578063ce76180b14620004d2578063d30badc1146200048b578063d547741f1462000442578063d904c31c146200041d578063dce1137514620003f2578063dd9b977814620003c7578063e73f4529146200030d578063e7bd30be14620002e0578063f6d47f2f14620002b5578063f734b1351462000282578063f77c479114620002575763f851a440146200020e57600080fd5b3462000254578060031936011262000254576040517f00000000000000000000000000000000000000000000000000000000000000006001600160a01b03168152602090f35b80fd5b503462000254578060031936011262000254576001546040516001600160a01b039091168152602090f35b503462000254578060031936011262000254576200029f62003c18565b6003805460ff60a01b1916600160a01b17905580f35b503462000254578060031936011262000254576006546040516001600160a01b039091168152602090f35b50346200025457806003193601126200025457620002fd62003c18565b6003805460ff60a01b1916905580f35b50346200025457606036600319011262000254576001600160a01b0360043581811690819003620003c357602435828116809103620003bf57604435928316809303620003bf576200035e62003c82565b81158015620003b6575b8015620003ad575b6200039b5760018060a01b031991826001541617600155816002541617600255600354161760035580f35b60405163d92e233d60e01b8152600490fd5b50821562000370565b50801562000368565b8380fd5b8280fd5b503462000254578060031936011262000254576007546040516001600160a01b039091168152602090f35b503462000254578060031936011262000254576002546040516001600160a01b039091168152602090f35b503462000254578060031936011262000254576020604051670de0b6b3a76400008152f35b5034620002545760403660031901126200025457620004876004356200046762003a04565b908084528360205262000481600160408620015462003cce565b62003d74565b5080f35b503462000254578060031936011262000254576040517f00000000000000000000000000000000000000000000000000000000000000006001600160a01b03168152602090f35b50346200025457806003193601126200025457604051600954600082620004f98362003a62565b91828252602093600190856001821691826000146200058a57505060011462000546575b506200052c9250038362003ae5565b6200054260405192828493845283019062003b09565b0390f35b849150600960005281600020906000915b858310620005715750506200052c9350820101856200051d565b8054838901850152879450869390920191810162000557565b60ff1916858201526200052c95151560051b85010192508791506200051d9050565b50346200025457806003193601126200025457600b546040516001600160a01b039091168152602090f35b503462000254578060031936011262000254576004546040516001600160a01b039091168152602090f35b503462000254578060031936011262000254576020604051681b1ae4d6e2ef5000008152f35b503462000254578060031936011262000254576005546040516001600160a01b039091168152602090f35b503462000254578060031936011262000254576008546040516001600160a01b039091168152602090f35b5034620002545760031960403682011262001758576001600160401b0360043511620017585761010090600435360301126200025457620006be62003a04565b90620006c962003bdd565b5060035460ff8160a01c1662001b0a5760a81c60ff1662001af8576001546040516319afa63b60e11b81526001600160a01b03848116600483015290911690602081602481855afa908115620015e057839162001ad4575b501562001ac357604051633d0f31f760e01b81526020816004816001600160a01b0388165afa908115620015e057839162001a8b575b5042101562001a79576200077060048035018062003b87565b90501562001a675760405163662db72560e11b81526020816004816001600160a01b0388165afa908115620015e057839162001a2f575b50620007b860048035018062003b87565b620007dd60206040518381948383019687378101888382015203808452018262003ae5565b5190200362001a1d57620007fc60246004350160043560040162003b87565b90501562001a0b57602460206200081d826004350160043560040162003b87565b62000841836040518381948383019687378101898382015203808452018262003ae5565b5190209260405192838092633eda967160e11b82528660048301525afa908115620015e0578391620019d5575b50620019bd5750426044600435013510620019ab5760446004350135606460043501351115620019995760646004350135608460043501351062001987576084600435013560a46004350135106200193d57604051633d0f31f760e01b81526020816004816001600160a01b0387165afa908115620016035782916200194f575b5060a4600435013510156200193d5760c46004350135156200192b5760e4600435013515158062001919575b62001907576200092a62003bdd565b604051631b23543760e01b815290926020826004816001600160a01b0385165afa918215620015e0578392620018cd575b506040516354ae26b160e11b8152936020856004816001600160a01b0386165afa94851562001626578495620018a7575b50604051630f7a077160e21b8152916020836004816001600160a01b0385165afa9283156200189c57859362001876575b50604051630c87400960e11b8152936020856004816001600160a01b0388165afa9485156200186b57869562001833575b5062000a1c60ff62000a0281881662003e37565b9662000a12604051988962003ae5565b1680875262003e37565b601f1901366020870137855b855160ff8216101562000af35760405163172c48c760e01b815260ff821660048201526020816024816001600160a01b038a165afa90811562000ae857889162000ab2575b506001600160a01b031662000a8660ff83168862003e76565b5260ff8082161462000a9e5760ff1660010162000a28565b634e487b7160e01b87526011600452602487fd5b62000ad9915060203d60201162000ae0575b62000ad0818362003ae5565b81019062003efd565b3862000a6d565b503d62000ac4565b6040513d8a823e3d90fd5b868484828562000dbb8d62000ced8d62000bfe62000bf860018060a01b03600b541662000b2b60043560040160043560040162003b87565b62000be262000b8a62000b4c60246004979597350160043560040162003b87565b62000b7760405198899663323c618360e01b6020890152610140602489015261016488019162003bbc565b8581036023190160448701529162003bbc565b600435604481013560648581019190915281013560848086019190915281013560a485015260c48085018e9052013560e48401526001600160a01b038a16610104840152828103602319016101248401528762003f1e565b3061014483015203601f19810184528362003ae5565b620040fd565b6001600160a01b0390811660208a0152600c541662000bf862000cd762000c2a60048035018062003b87565b91909462000c8562000c4760246004350160043560040162003b87565b62000c72604051998a97631c10fc0d60e21b60208a015261012060248a015261014489019162003bbc565b8681036023190160448801529162003bbc565b906044600435013560648501526064600435013560848501526084600435013560a485015260c4600435013560c485015260018060a01b03891660e48501526023198483030161010485015262003f1e565b3061012483015203601f19810184528362003ae5565b6001600160a01b039081166040880152600a54169262000dac9062000d1760048035018062003b87565b91909362000d5f62000d3460246004350160043560040162003b87565b62000c72604051988997636125be5560e01b60208a015261010060248a015261012489019162003bbc565b9160846004350135606485015260a46004350135608485015260a484015260018060a01b031660c48301523060e483015260e4600435013561010483015203601f19810183528262003ae5565b6001600160a01b0392620040fd565b168084526001546001600160a01b031690813b15620003c3578291602483926040519485938492634f95246f60e11b845260048401525af1801562001603576200181b575b5060015460208401516001600160a01b039182169116813b15620003c3578291602483926040519485938492634f95246f60e11b845260048401525af18015620016035762001803575b5060015460408401516001600160a01b039182169116813b15620003c3578291602483926040519485938492634f95246f60e11b845260048401525af180156200160357620017eb575b50600154602084810151604051636d73314160e01b81526001600160a01b039384169390929183916004918391165afa908115620015e0578391620017b0575b50813b15620003c357829160248392604051948593849263708af68560e11b845260048401525af18015620016035762001798575b50604051630f7a077160e21b81526020816004816001600160a01b0387165afa9081156200160357829162001774575b5060015484516001600160a01b039182169116813b15620003bf578391602483926040519485938492630b3a041d60e21b845260048401525af1908115620015e05783916200175c575b505060025460208501516001600160a01b039182169116813b15620003bf578391602483926040519485938492631dc80e7160e31b845260048401525af1908115620015e057839162001740575b5050602084015184516002546003546001600160a01b0390811693918116929181169116813b15620016dc576040516387bee01760e01b815260048101919091526001600160a01b0387811660248301526044820193909352938216606485015260848401929092527f0000000000000000000000000000000000000000000000000000000000000000811660a48401527f0000000000000000000000000000000000000000000000000000000000000000811660c48401527f00000000000000000000000000000000000000000000000000000000000000001660e48301528290829061010490829084905af18015620016035762001728575b5060025460408401516001600160a01b039182169116813b15620003c3578291602483926040519485938492631dc80e7160e31b845260048401525af18015620016035762001710575b50604083015183516002546001600160a01b03928316929182169116823b15620003bf5760405163d77883fb60e01b8152600481019290925260248201526001600160a01b0384811660448301527f0000000000000000000000000000000000000000000000000000000000000000811660648301527f0000000000000000000000000000000000000000000000000000000000000000811660848301527f00000000000000000000000000000000000000000000000000000000000000001660a4820152908290829060c490829084905af180156200160357620016f8575b5060025483516001600160a01b039182169116813b15620003c3578291602483926040519485938492631dc80e7160e31b845260048401525af180156200160357620016e0575b508251600254600154602086015160408701516001600160a01b0393841694841693908116929181169116833b15620016dc57604051630190a99160e51b8152600481019590955260248501526001600160a01b038681166044860152606485019190915260848401919091527f0000000000000000000000000000000000000000000000000000000000000000811660a48401527f00000000000000000000000000000000000000000000000000000000000000001660c48301523060e4830152610120610104830152600d54600090620013198162003a62565b90816101248601528585600183169283600014620016ba575050506001146200166d575b508391838381809403925af18015620016035762001655575b50825160208401516040808601519051926001600160a01b039182169282169116620013828462003ac9565b835260208301526040820152604051630f7a077160e21b815260208160048160018060a01b0388165afa908115620015e057839162001631575b506001600160a01b0316803b15620003c357604051838163202a804560e11b93848252818381620013f1896004830162003f5d565b03925af1908115620016265784916200160e575b50506001600160a01b0384163b15620003c35762001433918391604051938492839283526004830162003f5d565b0381836001600160a01b0388165af180156200160357620015eb575b505060405163662db72560e11b815290602090829060049082906001600160a01b03165afa908115620015e0578391620015a8575b50602082810151604051636d73314160e01b81529190829060049082906001600160a01b03165afa9384156200159c57936200155c575b5060e07fde9d772155735a21ad77e70083576d2e7ae20369388794e1d8829be0abfeefe89160609460018060a01b0385511660018060a01b036020870151169060018060a01b0360408801511692604051948552602085015260408401528683015260808201523360a0820152600160c0820152a16040805182516001600160a01b0390811682526020808501518216908301529282015190921690820152f35b92506020833d60201162001593575b816200157a6020938362003ae5565b810103126200158e5791519160e0620014bb565b600080fd5b3d91506200156b565b604051903d90823e3d90fd5b90506020813d602011620015d7575b81620015c66020938362003ae5565b810103126200158e57518362001484565b3d9150620015b7565b6040513d85823e3d90fd5b620015f69062003a9f565b620003c35782846200144f565b6040513d84823e3d90fd5b620016199062003a9f565b620003c357828762001405565b6040513d86823e3d90fd5b6200164e915060203d60201162000ae05762000ad0818362003ae5565b86620013bc565b620016609062003a9f565b620003c357828462001356565b600d60009081529150600080516020620044608339815191525b8183106200169e575050820161014401836200133d565b8054610144868501015288955060209092019160010162001687565b60ff19166101448083019190915293151560051b0190920192506200133d9050565b8580fd5b620016eb9062003a9f565b620003c35782846200123d565b620017039062003a9f565b620003c3578284620011f6565b6200171b9062003a9f565b620003c357828462001116565b620017339062003a9f565b620003c3578284620010cc565b6200174b9062003a9f565b6200175857818662000fd1565b5080fd5b620017679062003a9f565b6200175857818662000f83565b62001791915060203d60201162000ae05762000ad0818362003ae5565b8562000f39565b620017a39062003a9f565b620003c357828462000f09565b9250506020823d602011620017e2575b81620017cf6020938362003ae5565b810103126200158e578491518662000ed4565b3d9150620017c0565b620017f69062003a9f565b620003c357828462000e94565b6200180e9062003a9f565b620003c357828462000e4a565b620018269062003a9f565b620003c357828462000e00565b6200185b91955060203d60201162001863575b62001852818362003ae5565b81019062003e8b565b9338620009ee565b503d62001846565b6040513d88823e3d90fd5b6200189491935060203d60201162000ae05762000ad0818362003ae5565b9138620009bd565b6040513d87823e3d90fd5b620018c591955060203d60201162000ae05762000ad0818362003ae5565b93386200098c565b9091506020813d602011620018fe575b81620018ec6020938362003ae5565b810103126200158e575190386200095b565b3d9150620018dd565b60405163193f245360e21b8152600490fd5b50600160e4600435013514156200091b565b604051632957953960e01b8152600490fd5b6040516312c20ee760e31b8152600490fd5b90506020813d6020116200197e575b816200196d6020938362003ae5565b810103126200158e575138620008ef565b3d91506200195e565b604051636adc526d60e11b8152600490fd5b60405163cc447d1560e01b8152600490fd5b604051638aacd64960e01b8152600490fd5b60249060405190635c6c429960e01b82526004820152fd5b620019fc915060203d60201162001a03575b620019f3818362003ae5565b81019062003bfe565b386200086e565b503d620019e7565b604051639a8f598760e01b8152600490fd5b60405163883b9bb360e01b8152600490fd5b90506020813d60201162001a5e575b8162001a4d6020938362003ae5565b810103126200158e575138620007a7565b3d915062001a3e565b604051631680e67360e11b8152600490fd5b6040516313f28c3760e31b8152600490fd5b90506020813d60201162001aba575b8162001aa96020938362003ae5565b810103126200158e57513862000757565b3d915062001a9a565b60405162958b1960e41b8152600490fd5b62001af1915060203d60201162001a0357620019f3818362003ae5565b3862000721565b6040516371a3814f60e11b8152600490fd5b604051633b335e4560e11b8152600490fd5b503462000254578060031936011262000254576040517f00000000000000000000000000000000000000000000000000000000000000006001600160a01b03168152602090f35b5034620002545780600319360112620002545762001b8062003c18565b6003805460ff60a81b1916905580f35b50346200025457806003193601126200025457604051600d5460008262001bb78362003a62565b91828252602093600190856001821691826000146200058a57505060011462001be957506200052c9250038362003ae5565b849150600d60005281600020906000915b85831062001c145750506200052c9350820101856200051d565b8054838901850152879450869390920191810162001bfa565b50346200025457806003193601126200025457602090604051908152f35b50346200025457806003193601126200025457602060ff60035460a81c166040519015158152f35b50346200025457806003193601126200025457602060ff60035460a01c166040519015158152f35b50346200025457806003193601126200025457600a546040516001600160a01b039091168152602090f35b5034620002545760403660031901126200025457604062001ce662003a04565b91600435815280602052209060018060a01b0316600052602052602060ff604060002054166040519015158152f35b503462000254576080366003190112620002545762001d33620039ed565b62001d3d62003a04565b62001d4762003a1b565b6001600160401b03606435818111620016dc5762001d6a90369060040162003a32565b9162001d7562003c82565b6001600160a01b03958616958615801562001f65575b801562001f5a575b6200039b57831562001f48578060018060a01b0319968888600a541617600a5516948587600b541617600b55168095600c541617600c55821162001f345762001dde600d5462003a62565b601f811162001edd575b508590601f831160011462001e4e579180600080516020620044c083398151915296949260609694899262001e42575b50508160011b916000199060031b1c191617600d555b60405192835260208301526040820152a180f35b01359050388062001e18565b600d87526000805160206200446083398151915291601f1984168860205b82821062001ec457505092600192859260609896600080516020620044c08339815191529a98961062001ea9575b505050811b01600d5562001e2e565b0135600019600384901b60f8161c1916905538808062001e9a565b8060018597829496880135815501960193019062001e6c565b600d875260008051602062004460833981519152601f840160051c8101916020851062001f29575b601f0160051c01905b81811062001f1d575062001de8565b87815560010162001f0e565b909150819062001f05565b634e487b7160e01b86526041600452602486fd5b604051634afd34cf60e01b8152600490fd5b508085161562001d93565b508086161562001d8b565b503462000254578060031936011262000254576020604051600080516020620044e08339815191528152f35b5034620002545760031960203682011262001758576001600160401b036004351162001758576101809060043536030112620002545762001fdc62003b4b565b5060035460ff8160a01c1662001b0a5760b01c60ff16620034bf576200200760048035018062003b87565b90501562001a67576200201f60048035018062003b87565b6200204460206040518381948383019687378101868382015203808452018262003ae5565b519020600154604051632fa27d5960e11b8152600481018390526001600160a01b039091169190602081602481865afa908115620016265784916200349b575b5062003483575042602460043501351115620034715760446004350135156200345f576101646004350135156200344d57662386f26fc1000060c4600435013511156200343b57620020e5620020df60846004350162003dea565b62003f8c565b620020fc6101046004350160043560040162003dff565b90501562003429576200211b6101046004350160043560040162003dff565b929050620021466200212d8462003e37565b936200213d604051958662003ae5565b80855262003e37565b601f1901366020850137805b620021696101046004350160043560040162003dff565b90508110156200235957620021a06200219a82620021936101046004350160043560040162003dff565b9062003e4f565b62003dea565b825b8281106200231e5750620021cd906001600160a01b038116620021c6848862003e76565b5262003f8c565b6040620021eb82620021936101046004350160043560040162003dff565b0135156200230c5760206200221182620021936101046004350160043560040162003dff565b013515620022fa5760206200223782620021936101046004350160043560040162003dff565b013560406200225783620021936101046004350160043560040162003dff565b013511620022e85760606200227d82620021936101046004350160043560040162003dff565b013515620022d657806060620022b2620022a36101046004350160043560040162003dff565b60043560e40135949162003e4f565b01351115620022c45760010162002152565b60405163e38cf1eb60e01b8152600490fd5b604051630b4c547960e11b8152600490fd5b604051632b7c36ad60e21b8152600490fd5b60405163712def8f60e11b8152600490fd5b604051637d7502c360e11b8152600490fd5b6001600160a01b038281169062002336838962003e76565b5116146200234757600101620021a2565b604051633b4bf6bd60e21b8152600490fd5b506200236462003b4b565b916200243860018060a01b03600454169162000dac6200238f60043560040160043560040162003b87565b9092620023a160846004350162003dea565b9060018060a01b036002541690620023d9604051968795630d4912c160e41b6020880152610120602488015261014487019162003bbc565b9260246004350135604486015260446004350135606486015260646004350135608486015260a4600435013560a486015260018060a01b031660c485015260e48401526101048301523061012483015203601f19810183528262003ae5565b1682526005546001600160a01b03166200245760048035018062003b87565b91906200246960846004350162003dea565b906020620024836101046004350160043560040162003dff565b919093620024ba60018060a01b036002541694604051986338188f8560e21b858b015261010060248b01526101248a019162003bbc565b9060e46004350135604489015260c460043501356064890152681b1ae4d6e2ef500000608489015260018060a01b031660a48801526023198782030160c4880152828152019290865b818110620033d2575050508380939262000bf89260e4620025369701523061010483015203601f19810184528362003ae5565b6001600160a01b039081166020840152600654620025a59162000bf891166200256460048035018062003b87565b62002590604094929451948592637ab4339d60e01b602085015260406024850152606484019162003bbc565b30604483015203601f19810184528362003ae5565b6001600160a01b039081166040840152600490602090620025ca833560840162003dea565b166040519283809263313ce56760e01b82525afa90811562001603578291620033ae575b50620026186064600435013562002612604460043501356024600435013562003ea6565b62003ea6565b6007546001600160a01b0316916200263560048035018062003b87565b9190926200264f6101246004350160043560040162003b87565b90620026676101446004350160043560040162003b87565b9190926200267a60846004350162003dea565b8b5160208d0151604051976001600160a01b0391821693919092169160808901808a116001600160401b03909111176200339a57608089016040528852600160a01b6001900316602088015260408701526060860152604051978897636d5ba70560e01b60208a0152602489016101609052610184890190620026fd9262003bbc565b90602319888303016044890152620027159262003bbc565b906023198683030160648701526200272d9262003bbc565b60ff9092166084840152670de0b6b3a764000060a484015261016460043581013560c48501523060e4850152815161010485015260208201516001600160a01b03908116610124860152604083015181166101448601526060909201519091169083015203601f1981018252620027a5908262003ae5565b620027b091620040fd565b6001600160a01b03908116606084015260085416620027d460048035018062003b87565b8451602080870151600154604051630b885ac360e01b9381019390935260a06024840152919485946001600160a01b03948516949384169390921691620028219160c48701919062003bbc565b926044850152606484015260848301523060a483015203601f19810182526200284b908262003ae5565b6200285691620040fd565b6001600160a01b03908116608084015260015483519082169116813b15620003c3578291602483926040519485938492634f95246f60e11b845260048401525af18015620016035762003388575b50600154602083015191929183916001600160a01b039081169116813b15620003c3578291602483926040519485938492634f95246f60e11b845260048401525af18015620016035762003370575b5060015460408301516001600160a01b039182169116813b15620003c3578291602483926040519485938492634f95246f60e11b845260048401525af18015620016035762003358575b5060015460608301516001600160a01b039182169116813b15620003c3578291602483926040519485938492634f95246f60e11b845260048401525af18015620016035762003340575b5060015460808301516001600160a01b039182169116813b15620003c3578291602483926040519485938492634f95246f60e11b845260048401525af18015620016035762003328575b50600154825160405163662db72560e11b81526001600160a01b0392831692909160209183916004918391165afa908115620015e0578391620032ed575b50813b15620003c357829160248392604051948593849263214f795960e21b845260048401525af180156200160357620032d5575b5060025460408301516001600160a01b039182169116813b15620003c3578291602483926040519485938492631dc80e7160e31b845260048401525af180156200160357620032bd575b506040820151602083015183516002546001600160a01b0392831693908316929182169116803b15620032b95762002b259385809460405196879586948593631e442d1960e21b85527f0000000000000000000000000000000000000000000000000000000000000000927f0000000000000000000000000000000000000000000000000000000000000000926004870162003eca565b03925af180156200160357620032a1575b5060025460608301516001600160a01b039182169116813b15620003c3578291602483926040519485938492631dc80e7160e31b845260048401525af18015620016035762003289575b50606082015182516002546001600160a01b03928316929182169116823b15620003bf5760405163547a10e160e11b8152600481019290925260248201526001600160a01b037f0000000000000000000000000000000000000000000000000000000000000000811660448301527f00000000000000000000000000000000000000000000000000000000000000001660648201529082908290608490829084905af18015620016035762003271575b5060025482516001600160a01b039182169116813b15620003c3578291602483926040519485938492631dc80e7160e31b845260048401525af18015620016035762003259575b50815160408301516020840151606085015160808601516001600160a01b0393841694841693908116929181169116833b15620016dc5760405163733815a760e11b81526004810195909552602485015260448401526001600160a01b037f0000000000000000000000000000000000000000000000000000000000000000811660648501526084840185905260a4840185905260c48401919091527f00000000000000000000000000000000000000000000000000000000000000001660e48301523061010483015261014061012483015260095460009062002d5b8162003a62565b908161014486015285856001831692836000146200323757505050600114620031ea575b508391838381809403925af180156200160357620031d2575b5060025460208301516001600160a01b039182169116813b15620003c3578291602483926040519485938492631dc80e7160e31b845260048401525af180156200160357620031ba575b5060208201516040830151835160015460035460808701516001600160a01b039283169583169493831693908316929081169116843b15620031b6578694610144938692604051988997889663929d5ba560e01b885260048801526024870152846044870152846064870152608486015260a485015260c484015260018060a01b037f00000000000000000000000000000000000000000000000000000000000000001660e484015260018060a01b037f00000000000000000000000000000000000000000000000000000000000000001661010484015260018060a01b037f0000000000000000000000000000000000000000000000000000000000000000166101248401525af1801562001603576200319e575b5060025460808301516001600160a01b039182169116813b15620003c3578291602483926040519485938492631dc80e7160e31b845260048401525af18015620016035762003186575b50608082015182516002546001600160a01b03928316929182169116823b15620003bf5762002ff192849283604051809681958294631e442d1960e21b84527f0000000000000000000000000000000000000000000000000000000000000000917f0000000000000000000000000000000000000000000000000000000000000000917f0000000000000000000000000000000000000000000000000000000000000000906004870162003eca565b03925af1801562001603576200316e575b5050805160405163662db72560e11b815290602090829060049082906001600160a01b03165afa9283156200159c579262003125575b508051602082015160408301516060840151608085015160a09660008051602062004480833981519152956001600160a01b03908116959194620030d894928216939082169290821691166200309360048035018062003b87565b93909460405198899889526020890152604088015260608701526080860152888501523360c0850152600160e085015261012061010085015261012084019162003bbc565b0390a16040805182516000196001861b0190811682526020808501518216908301528383015181169282019290925260608084015183169082015260809283015190911691810191909152f35b91506020823d60201162003165575b81620031436020938362003ae5565b810103126200158e579051906000805160206200448083398151915262003038565b3d915062003134565b620031799062003a9f565b6200175857818362003002565b620031919062003a9f565b6200175857818362002f42565b620031a99062003a9f565b6200175857818362002ef8565b8680fd5b620031c59062003a9f565b6200175857818362002de2565b620031dd9062003a9f565b6200175857818362002d98565b600960009081529150600080516020620044a08339815191525b8183106200321b5750508201610164018362002d7f565b8054610164868501015287955060209092019160010162003204565b60ff19166101648083019190915293151560051b01909201925062002d7f9050565b620032649062003a9f565b6200175857818362002c77565b6200327c9062003a9f565b6200175857818362002c30565b620032949062003a9f565b6200175857818362002b80565b620032ac9062003a9f565b6200175857818362002b36565b8480fd5b620032c89062003a9f565b6200175857818362002a8e565b620032e09062003a9f565b6200175857818362002a44565b9250506020823d6020116200331f575b816200330c6020938362003ae5565b810103126200158e578391518562002a0f565b3d9150620032fd565b620033339062003a9f565b62001758578183620029d1565b6200334b9062003a9f565b6200175857818362002987565b620033639062003a9f565b620017585781836200293d565b6200337b9062003a9f565b62001758578183620028f3565b620033939062003a9f565b82620028a4565b634e487b7160e01b8e52604160045260248efd5b620033cb915060203d602011620018635762001852818362003ae5565b83620025ee565b919390919084356001600160a01b038116810362003425576001600160a01b0316815260208581013590820152604080860135908201526060808601359082015260809081019401919060010162002503565b8880fd5b604051635be2a74d60e11b8152600490fd5b604051632f2c45f960e21b8152600490fd5b604051631e6a663960e21b8152600490fd5b60405163166bf59160e11b8152600490fd5b60405163077a899d60e11b8152600490fd5b60249060405190632f9afbdd60e01b82526004820152fd5b620034b8915060203d60201162001a0357620019f3818362003ae5565b3862002084565b604051631ffc867d60e01b8152600490fd5b50346200025457806003193601126200025457602060ff60035460b01c166040519015158152f35b503462000254578060031936011262000254576200351662003c18565b6003805460ff60a81b1916600160a81b17905580f35b50346200025457604036600319011262000254576200354a62003a04565b336001600160a01b038216036200356957620004879060043562003d74565b60405163334bd91960e11b8152600490fd5b503462000254576040366003190112620002545762000487600435620035a062003a04565b9080845283602052620035ba600160408620015462003cce565b62003cf5565b5034620002545760c03660031901126200025457620035de620039ed565b620035e862003a04565b90620035f362003a1b565b6001600160a01b03926064358481169290839003620016dc5760843593858516809503620031b65760a435906001600160401b038083116200342557620036408893369060040162003a32565b9390926200364d62003c82565b16978815801562003878575b80156200386d575b801562003864575b80156200385b575b6200039b578315620038495780889160018060a01b0319978b89600454161760045516958688600554161760055516958681600654161760065587816007541617600755600854161760085582116200383557620036d160095462003a62565b601f8111620037de575b508790601f83116001146200374d579180600080516020620045008339815191529896949260a09896948b9262003741575b50508160011b916000199060031b1c1916176009555b6040519485526020850152604084015260608301526080820152a180f35b0135905038806200370d565b60098952600080516020620044a083398151915291601f1984168a60205b828210620037c557505092600192859260a09a9896600080516020620045008339815191529c9a989610620037aa575b505050811b0160095562003723565b0135600019600384901b60f8161c191690553880806200379b565b806001859782949688013581550196019301906200376b565b60098952600080516020620044a0833981519152601f840160051c810191602085106200382a575b601f0160051c01905b8181106200381e5750620036db565b8981556001016200380f565b909150819062003806565b634e487b7160e01b88526041600452602488fd5b60405163901f2e7760e01b8152600490fd5b50871562003671565b50861562003669565b508085161562003661565b508086161562003659565b50346200025457806003193601126200025457600c546040516001600160a01b039091168152602090f35b503462000254578060031936011262000254576003546040516001600160a01b039091168152602090f35b5034620002545760203660031901126200025457600160406020926004358152808452200154604051908152f35b503462000254578060031936011262000254576020604051600080516020620044408339815191528152f35b503462000254578060031936011262000254576200395062003c18565b6003805460ff60b01b1916905580f35b503462000254578060031936011262000254576200397d62003c18565b6003805460ff60b01b1916600160b01b17905580f35b90503462001758576020366003190112620017585760043563ffffffff60e01b8116809103620003c35760209250637965db0b60e01b8114908115620039db575b5015158152f35b6301ffc9a760e01b14905038620039d4565b600435906001600160a01b03821682036200158e57565b602435906001600160a01b03821682036200158e57565b604435906001600160a01b03821682036200158e57565b9181601f840112156200158e578235916001600160401b0383116200158e57602083818601950101116200158e57565b90600182811c9216801562003a94575b602083101462003a7e57565b634e487b7160e01b600052602260045260246000fd5b91607f169162003a72565b6001600160401b03811162003ab357604052565b634e487b7160e01b600052604160045260246000fd5b606081019081106001600160401b0382111762003ab357604052565b601f909101601f19168101906001600160401b0382119082101762003ab357604052565b919082519283825260005b84811062003b36575050826000602080949584010152601f8019910116010190565b60208183018101518483018201520162003b14565b6040519060a082016001600160401b0381118382101762003ab35760405260006080838281528260208201528260408201528260608201520152565b903590601e19813603018212156200158e57018035906001600160401b0382116200158e576020019181360383136200158e57565b908060209392818452848401376000828201840152601f01601f1916010190565b6040519062003bec8262003ac9565b60006040838281528260208201520152565b908160209103126200158e575180151581036200158e5790565b3360009081527f7d7ffb7a348e1c6a02869081a26547b49160dd3df72d1d75a570eb9b698292ec6020526040902054600080516020620044e08339815191529060ff161562003c645750565b6044906040519063e2517d3f60e01b82523360048301526024820152fd5b3360009081527fc4fa85ddc8456762f8b72103c3e0ab9fc9da9d046b037e6a078b6d2d90f129786020526040902054600080516020620044408339815191529060ff161562003c645750565b80600052600060205260406000203360005260205260ff604060002054161562003c645750565b9060009180835282602052604083209160018060a01b03169182845260205260ff6040842054161560001462003d6f57808352826020526040832082845260205260408320600160ff198254161790557f2f8788117e7eff1d82e926ec794901d17c78024a50270940304540a733656f0d339380a4600190565b505090565b9060009180835282602052604083209160018060a01b03169182845260205260ff60408420541660001462003d6f5780835282602052604083208284526020526040832060ff1981541690557ff6391f5c32d9c69d2a47ea670b442974b53935d1edc7fd64eb21e047a839171b339380a4600190565b356001600160a01b03811681036200158e5790565b903590601e19813603018212156200158e57018035906001600160401b0382116200158e57602001918160071b360383136200158e57565b6001600160401b03811162003ab35760051b60200190565b919081101562003e605760071b0190565b634e487b7160e01b600052603260045260246000fd5b805182101562003e605760209160051b010190565b908160209103126200158e575160ff811681036200158e5790565b9190820180921162003eb457565b634e487b7160e01b600052601160045260246000fd5b6001600160a01b039182168152918116602083015291821660408201529181166060830152909116608082015260a00190565b908160209103126200158e57516001600160a01b03811681036200158e5790565b90815180825260208080930193019160005b82811062003f3f575050505090565b83516001600160a01b03168552938101939281019260010162003f30565b81516001600160a01b039081168252602080840151821690830152604092830151169181019190915260600190565b6001600160a01b0391908216908115620040eb576040805163313ce56760e01b815260049491939160209182818881875afa60009181620040c7575b5062003fde57855163686d360760e01b81528790fd5b60ff169060128211620040b7576003541692604d8211620040a2579060448392875195869384926303d3c9db60e21b84528b840152600a0a60248301525afa91826200403f575b50506200403a5750516303ed9b0760e31b8152fd5b915050565b8181813d83116200409a575b62004057818362003ae5565b810103126200158e5784519182016001600160401b0381118382101762004085578552519052388062004025565b604187634e487b7160e01b6000525260246000fd5b503d6200404b565b601187634e487b7160e01b6000525260246000fd5b855163686d360760e01b81528790fd5b620040e3919250843d8611620018635762001852818362003ae5565b903862003fc8565b604051635d1a467d60e11b8152600490fd5b6001600160a01b03919082169081156200039b57604051916102d380840192906001600160401b0384118585101762003ab357849362004150936040926200416d87398152816020820152019062003b09565b03906000f0801562004160571690565b6040513d6000823e3d90fdfe60806040526102d38038038061001481610194565b92833981019060408183031261018f5780516001600160a01b03811680820361018f5760208381015190936001600160401b03821161018f570184601f8201121561018f5780519061006d610068836101cf565b610194565b9582875285838301011161018f57849060005b83811061017b57505060009186010152813b15610163577f360894a13ba1a3210667c828492db98dca3e2076cc3735a920a3ca505d382bbc80546001600160a01b03191682179055604051907fbc7cd75a20ee27fd9adebab32041f755214dbc6bffa90cc0225b39da2e5c2d3b600080a28351156101455750600080848461012c96519101845af4903d1561013c573d61011c610068826101cf565b908152600081943d92013e6101ea565b505b6040516085908161024e8239f35b606092506101ea565b9250505034610154575061012e565b63b398979f60e01b8152600490fd5b60249060405190634c9c8ce360e01b82526004820152fd5b818101830151888201840152869201610080565b600080fd5b6040519190601f01601f191682016001600160401b038111838210176101b957604052565b634e487b7160e01b600052604160045260246000fd5b6001600160401b0381116101b957601f01601f191660200190565b9061021157508051156101ff57805190602001fd5b60405163d6bda27560e01b8152600490fd5b81511580610244575b610222575090565b604051639996b31560e01b81526001600160a01b039091166004820152602490fd5b50803b1561021a56fe60806040527f360894a13ba1a3210667c828492db98dca3e2076cc3735a920a3ca505d382bbc54600090819081906001600160a01b0316368280378136915af43d82803e15604b573d90f35b3d90fdfea2646970667358221220f991ed74f304b9c17dd923ab00865abe454cbe0ec85e46e1a34398424cf29dc164736f6c63430008160033793a6c9b7e0a9549c74edc2f9ae0dc50903dfaa9a56fb0116b27a8c71de3e2c6d7b6990105719101dabeb77144f2a3385c8033acd3af97e9423a695e81ad1eb57728f5201778bc73607468dcfa4807cd8ab99a0b9abb609f2b77c5fd783114a56e1540171b6c0c960b71a7020d9f60077f6af931a8bbf590da0223dacf75c7aff463037a5c6a59ab75ec358bf8b48dcaba3e68483cd31162c4f29e80bc0fcb71a49807205ce4d355092ef5a8a18f56e8913cf4a201fbe287825b095693c217756600134ebf7fdde126f2bfbb26d2b504ffc5edc8fe975d569f718df975f590dfa26469706673582212209d933a26fad15f42c78b99e6010ebc35fb08c46e5cbcf152d9798eda8426801a64736f6c634300081600332f8788117e7eff1d82e926ec794901d17c78024a50270940304540a733656f0d",
  "linkReferences": {},
  "deployedLinkReferences": {}
}