{
  "_format": "hh-sol-artifact-1",
  "contractName": "TestMockWETH",
  "sourceName": "contracts/test/TestMockWETH.sol",
  "abi": [
    {
      "anonymous": false,
      "inputs": [
        {
          "indexed": true,
          "internalType": "address",
          "name": "owner",
          "type": "address"
        },
        {
          "indexed": true,
          "internalType": "address",
          "name": "spender",
          "type": "address"
        },
        {
          "indexed": false,
          "internalType": "uint256",
          "name": "value",
          "type": "uint256"
        }
      ],
      "name": "Approval",
      "type": "event"
    },
    {
      "anonymous": false,
      "inputs": [
        {
          "indexed": true,
          "internalType": "address",
          "name": "dst",
          "type": "address"
        },
        {
          "indexed": false,
          "internalType": "uint256",
          "name": "wad",
          "type": "uint256"
        }
      ],
      "name": "Deposit",
      "type": "event"
    },
    {
      "anonymous": false,
      "inputs": [
        {
          "indexed": true,
          "internalType": "address",
          "name": "from",
          "type": "address"
        },
        {
          "indexed": true,
          "internalType": "address",
          "name": "to",
          "type": "address"
        },
        {
          "indexed": false,
          "internalType": "uint256",
          "name": "value",
          "type": "uint256"
        }
      ],
      "name": "Transfer",
      "type": "event"
    },
    {
      "anonymous": false,
      "inputs": [
        {
          "indexed": true,
          "internalType": "address",
          "name": "src",
          "type": "address"
        },
        {
          "indexed": false,
          "internalType": "uint256",
          "name": "wad",
          "type": "uint256"
        }
      ],
      "name": "Withdrawal",
      "type": "event"
    },
    {
      "inputs": [
        {
          "internalType": "address",
          "name": "",
          "type": "address"
        },
        {
          "internalType": "address",
          "name": "",
          "type": "address"
        }
      ],
      "name": "allowance",
      "outputs": [
        {
          "internalType": "uint256",
          "name": "",
          "type": "uint256"
        }
      ],
      "stateMutability": "view",
      "type": "function"
    },
    {
      "inputs": [
        {
          "internalType": "address",
          "name": "spender",
          "type": "address"
        },
        {
          "internalType": "uint256",
          "name": "amount",
          "type": "uint256"
        }
      ],
      "name": "approve",
      "outputs": [
        {
          "internalType": "bool",
          "name": "",
          "type": "bool"
        }
      ],
      "stateMutability": "nonpayable",
      "type": "function"
    },
    {
      "inputs": [
        {
          "internalType": "address",
          "name": "",
          "type": "address"
        }
      ],
      "name": "balanceOf",
      "outputs": [
        {
          "internalType": "uint256",
          "name": "",
          "type": "uint256"
        }
      ],
      "stateMutability": "view",
      "type": "function"
    },
    {
      "inputs": [],
      "name": "decimals",
      "outputs": [
        {
          "internalType": "uint8",
          "name": "",
          "type": "uint8"
        }
      ],
      "stateMutability": "view",
      "type": "function"
    },
    {
      "inputs": [],
      "name": "deposit",
      "outputs": [],
      "stateMutability": "payable",
      "type": "function"
    },
    {
      "inputs": [],
      "name": "name",
      "outputs": [
        {
          "internalType": "string",
          "name": "",
          "type": "string"
        }
      ],
      "stateMutability": "view",
      "type": "function"
    },
    {
      "inputs": [
        {
          "internalType": "bool",
          "name": "_shouldRevert",
          "type": "bool"
        }
      ],
      "name": "setShouldRevertOnWithdraw",
      "outputs": [],
      "stateMutability": "nonpayable",
      "type": "function"
    },
    {
      "inputs": [],
      "name": "shouldRevertOnWithdraw",
      "outputs": [
        {
          "internalType": "bool",
          "name": "",
          "type": "bool"
        }
      ],
      "stateMutability": "view",
      "type": "function"
    },
    {
      "inputs": [],
      "name": "symbol",
      "outputs": [
        {
          "internalType": "string",
          "name": "",
          "type": "string"
        }
      ],
      "stateMutability": "view",
      "type": "function"
    },
    {
      "inputs": [],
      "name": "totalSupply",
      "outputs": [
        {
          "internalType": "uint256",
          "name": "",
          "type": "uint256"
        }
      ],
      "stateMutability": "view",
      "type": "function"
    },
    {
      "inputs": [
        {
          "internalType": "address",
          "name": "to",
          "type": "address"
        },
        {
          "internalType": "uint256",
          "name": "amount",
          "type": "uint256"
        }
      ],
      "name": "transfer",
      "outputs": [
        {
          "internalType": "bool",
          "name": "",
          "type": "bool"
        }
      ],
      "stateMutability": "nonpayable",
      "type": "function"
    },
    {
      "inputs": [
        {
          "internalType": "address",
          "name": "from",
          "type": "address"
        },
        {
          "internalType": "address",
          "name": "to",
          "type": "address"
        },
        {
          "internalType": "uint256",
          "name": "amount",
          "type": "uint256"
        }
      ],
      "name": "transferFrom",
      "outputs": [
        {
          "internalType": "bool",
          "name": "",
          "type": "bool"
        }
      ],
      "stateMutability": "nonpayable",
      "type": "function"
    },
    {
      "inputs": [
        {
          "internalType": "uint256",
          "name": "wad",
          "type": "uint256"
        }
      ],
      "name": "withdraw",
      "outputs": [],
      "stateMutability": "nonpayable",
      "type": "function"
    },
    {
      "stateMutability": "payable",
      "type": "receive"
    }
  ],
  "bytecode": "0x6080604052346100cb57600061001581546100d0565b601f81116100a1575b50601a6c2bb930b83832b21022ba3432b960991b0181556001906100436001546100d0565b90601f8211610077575b6008630ae8aa8960e31b016001556002805460ff19166012179055604051610905908161010b8239f35b60018152601f60208220920160051c8201915b828110610097575061004d565b818155830161008a565b818052601f60208320910160051c8101905b8181106100c0575061001e565b8281556001016100b3565b600080fd5b90600182811c92168015610100575b60208310146100ea57565b634e487b7160e01b600052602260045260246000fd5b91607f16916100df56fe60806040818152600480361015610029575b505050361561001f57600080fd5b610027610857565b005b600092833560e01c90816306fdde031461068c57508063095ea7b31461061e57806318160ddd146105ff57806323b872dd146104b35780632e1a7d4d1461034a578063313ce5671461032857806346750b681461030457806370a08231146102cc57806395d89b41146101e8578063a9059cbb14610159578063b6b4626f14610126578063d0e30db01461010c5763dd62ed3e03610011573461010857816003193601126101085760209282916100de6107aa565b6100e66107c5565b6001600160a01b03918216845291865283832091168252845220549051908152f35b8280fd5b838060031936011261012357610120610857565b80f35b80fd5b83823461015557602036600319011261015557358015158091036101555760ff80196006541691161760065580f35b5080fd5b5050346101555780600319360112610155576020916101766107aa565b826024359133845260038652610191838386205410156107db565b338452600386528184206101a6848254610827565b90556001600160a01b031680845260038652922080546101c790839061084a565b905582519081526000805160206108b0833981519152843392a35160018152f35b5090346101085782600319360112610108578051918360018054918260011c926001811680156102c2575b60209586861082146102af575084885290811561028d5750600114610252575b61024e8686610244828b0383610728565b5191829182610761565b0390f35b929550600183528583205b82841061027a575050508261024e94610244928201019438610233565b805486850188015292860192810161025d565b60ff191687860152505050151560051b83010192506102448261024e38610233565b634e487b7160e01b845260229052602483fd5b93607f1693610213565b5050346101555760203660031901126101555760209181906001600160a01b036102f46107aa565b1681526003845220549051908152f35b50503461015557816003193601126101555760209060ff6006541690519015158152f35b50503461015557816003193601126101555760209060ff600254169051908152f35b50903461010857602090816003193601126104af5782359260ff600654166104705733855260038352610382848387205410156107db565b33855260038352818520610397858254610827565b90556103a584600554610827565b6005558480808087335af13d1561046b573d6001600160401b038111610458578351906103db601f8201601f1916870183610728565b815286853d92013e5b156104175750907f7fcf532c15f0a6db0bd6d0e038bea71d30d808c7d98cb3bf7268a95bf5081b6591519283523392a280f35b82606492519162461bcd60e51b8352820152601d60248201527f4d6f636b574554483a20455448207472616e73666572206661696c65640000006044820152fd5b634e487b7160e01b875260418352602487fd5b6103e4565b82606492519162461bcd60e51b8352820152601b60248201527a135bd8dad5d155120e881dda5d1a191c985dc81c995d995c9d1959602a1b6044820152fd5b8380fd5b509134610123576060366003190112610123576104ce6107aa565b926104d76107c5565b906044359160018060a01b03809616928385528560209788936003855261050384848a205410156107db565b868852858552828820338952855282882054600101610569575b6000805160206108b0833981519152955086885260038552828820610543858254610827565b90551695868152600384522061055a82825461084a565b90558551908152a35160018152f35b92949150925084865280885286862033875288528387872054106105be5787926000805160206108b083398151915294928892878952855282882033895285528288206105b7858254610827565b905561051d565b606490888089519262461bcd60e51b845283015260248201527f4d6f636b574554483a20696e73756666696369656e7420616c6c6f77616e63656044820152fd5b5050346101555781600319360112610155576020906005549051908152f35b503461010857816003193601126101085760209261063a6107aa565b918360243592839233825287528181209460018060a01b0316948582528752205582519081527f8c5be1e5ebec7d5bd14f71427d1e84f3dd0314c0f7b2291e5b200ac8c7c3b925843392a35160018152f35b92919050346104af57836003193601126104af578354600181811c918690828116801561071e575b60209586861082146102af575084885290811561028d57506001146106e45761024e8686610244828b0383610728565b8080949750528583205b82841061070b575050508261024e94610244928201019438610233565b80548685018801529286019281016106ee565b93607f16936106b4565b601f909101601f19168101906001600160401b0382119082101761074b57604052565b634e487b7160e01b600052604160045260246000fd5b6020808252825181830181905290939260005b82811061079657505060409293506000838284010152601f8019910116010190565b818101860151848201604001528501610774565b600435906001600160a01b03821682036107c057565b600080fd5b602435906001600160a01b03821682036107c057565b156107e257565b60405162461bcd60e51b815260206004820152601e60248201527f4d6f636b574554483a20696e73756666696369656e742062616c616e636500006044820152606490fd5b9190820391821161083457565b634e487b7160e01b600052601160045260246000fd5b9190820180921161083457565b336000526003602052604060002061087034825461084a565b905561087e3460055461084a565b6005556040513481527fe1fffcc4923d04b559f4d29a8bfc6cda04eb5b0d3c460751c2402c5c5cc9109c60203392a256feddf252ad1be2c89b69c2b068fc378daa952ba7f163c4a11628f55a4df523b3efa2646970667358221220e71746aa099be0da3523c8bfbf0efb3291655f250bef45d6b10d001e40113c9464736f6c63430008160033",
  "linkReferences": {},
  "deployedLinkReferences": {}
}