{
  "_format": "hh-sol-artifact-1",
  "contractName": "DiamondCutFacet",
  "sourceName": "contracts/facets/DiamondCutFacet.sol",
  "abi": [
    {
      "inputs": [],
      "stateMutability": "nonpayable",
      "type": "constructor"
    },
    {
      "inputs": [],
      "name": "AccessControlBadConfirmation",
      "type": "error"
    },
    {
      "inputs": [
        {
          "internalType": "address",
          "name": "account",
          "type": "address"
        },
        {
          "internalType": "bytes32",
          "name": "neededRole",
          "type": "bytes32"
        }
      ],
      "name": "AccessControlUnauthorizedAccount",
      "type": "error"
    },
    {
      "inputs": [],
      "name": "AlreadyPaused",
      "type": "error"
    },
    {
      "inputs": [],
      "name": "DiamondRolesAlreadyInitialized",
      "type": "error"
    },
    {
      "inputs": [
        {
          "internalType": "address",
          "name": "_initializationContractAddress",
          "type": "address"
        },
        {
          "internalType": "bytes",
          "name": "_calldata",
          "type": "bytes"
        }
      ],
      "name": "InitializationFunctionReverted",
      "type": "error"
    },
    {
      "inputs": [],
      "name": "NotPaused",
      "type": "error"
    },
    {
      "inputs": [],
      "name": "OnlyCallableInDeployBlock",
      "type": "error"
    },
    {
      "inputs": [],
      "name": "OnlyDeployerCanCall",
      "type": "error"
    },
    {
      "anonymous": false,
      "inputs": [
        {
          "components": [
            {
              "internalType": "address",
              "name": "facetAddress",
              "type": "address"
            },
            {
              "internalType": "enum IDiamondCut.FacetCutAction",
              "name": "action",
              "type": "uint8"
            },
            {
              "internalType": "bytes4[]",
              "name": "functionSelectors",
              "type": "bytes4[]"
            }
          ],
          "indexed": false,
          "internalType": "struct IDiamondCut.FacetCut[]",
          "name": "_diamondCut",
          "type": "tuple[]"
        },
        {
          "indexed": false,
          "internalType": "address",
          "name": "_init",
          "type": "address"
        },
        {
          "indexed": false,
          "internalType": "bytes",
          "name": "_calldata",
          "type": "bytes"
        }
      ],
      "name": "DiamondCut",
      "type": "event"
    },
    {
      "anonymous": false,
      "inputs": [
        {
          "components": [
            {
              "internalType": "address",
              "name": "facetAddress",
              "type": "address"
            },
            {
              "internalType": "enum IDiamondCut.FacetCutAction",
              "name": "action",
              "type": "uint8"
            },
            {
              "internalType": "bytes4[]",
              "name": "functionSelectors",
              "type": "bytes4[]"
            }
          ],
          "indexed": false,
          "internalType": "struct IDiamondCut.FacetCut[]",
          "name": "_diamondCut",
          "type": "tuple[]"
        },
        {
          "indexed": false,
          "internalType": "address",
          "name": "_init",
          "type": "address"
        },
        {
          "indexed": false,
          "internalType": "bytes",
          "name": "_calldata",
          "type": "bytes"
        }
      ],
      "name": "DiamondCut",
      "type": "event"
    },
    {
      "anonymous": false,
      "inputs": [],
      "name": "DiamondPaused",
      "type": "event"
    },
    {
      "anonymous": false,
      "inputs": [],
      "name": "DiamondUnpaused",
      "type": "event"
    },
    {
      "anonymous": false,
      "inputs": [
        {
          "indexed": true,
          "internalType": "bytes32",
          "name": "role",
          "type": "bytes32"
        },
        {
          "indexed": true,
          "internalType": "bytes32",
          "name": "previousAdminRole",
          "type": "bytes32"
        },
        {
          "indexed": true,
          "internalType": "bytes32",
          "name": "newAdminRole",
          "type": "bytes32"
        }
      ],
      "name": "RoleAdminChanged",
      "type": "event"
    },
    {
      "anonymous": false,
      "inputs": [
        {
          "indexed": true,
          "internalType": "bytes32",
          "name": "role",
          "type": "bytes32"
        },
        {
          "indexed": true,
          "internalType": "address",
          "name": "account",
          "type": "address"
        },
        {
          "indexed": true,
          "internalType": "address",
          "name": "sender",
          "type": "address"
        }
      ],
      "name": "RoleGranted",
      "type": "event"
    },
    {
      "anonymous": false,
      "inputs": [
        {
          "indexed": true,
          "internalType": "bytes32",
          "name": "role",
          "type": "bytes32"
        },
        {
          "indexed": true,
          "internalType": "address",
          "name": "account",
          "type": "address"
        },
        {
          "indexed": true,
          "internalType": "address",
          "name": "sender",
          "type": "address"
        }
      ],
      "name": "RoleRevoked",
      "type": "event"
    },
    {
      "inputs": [],
      "name": "DEFAULT_ADMIN_ROLE",
      "outputs": [
        {
          "internalType": "bytes32",
          "name": "",
          "type": "bytes32"
        }
      ],
      "stateMutability": "view",
      "type": "function"
    },
    {
      "inputs": [
        {
          "components": [
            {
              "internalType": "address",
              "name": "facetAddress",
              "type": "address"
            },
            {
              "internalType": "enum IDiamondCut.FacetCutAction",
              "name": "action",
              "type": "uint8"
            },
            {
              "internalType": "bytes4[]",
              "name": "functionSelectors",
              "type": "bytes4[]"
            }
          ],
          "internalType": "struct IDiamondCut.FacetCut[]",
          "name": "_diamondCut",
          "type": "tuple[]"
        },
        {
          "internalType": "address",
          "name": "_init",
          "type": "address"
        },
        {
          "internalType": "bytes",
          "name": "_calldata",
          "type": "bytes"
        }
      ],
      "name": "diamondCut",
      "outputs": [],
      "stateMutability": "nonpayable",
      "type": "function"
    },
    {
      "inputs": [
        {
          "internalType": "bytes32",
          "name": "role",
          "type": "bytes32"
        }
      ],
      "name": "getRoleAdmin",
      "outputs": [
        {
          "internalType": "bytes32",
          "name": "",
          "type": "bytes32"
        }
      ],
      "stateMutability": "view",
      "type": "function"
    },
    {
      "inputs": [
        {
          "internalType": "bytes32",
          "name": "role",
          "type": "bytes32"
        },
        {
          "internalType": "address",
          "name": "account",
          "type": "address"
        }
      ],
      "name": "grantRole",
      "outputs": [],
      "stateMutability": "nonpayable",
      "type": "function"
    },
    {
      "inputs": [
        {
          "internalType": "bytes32",
          "name": "role",
          "type": "bytes32"
        },
        {
          "internalType": "address",
          "name": "account",
          "type": "address"
        }
      ],
      "name": "hasRole",
      "outputs": [
        {
          "internalType": "bool",
          "name": "",
          "type": "bool"
        }
      ],
      "stateMutability": "view",
      "type": "function"
    },
    {
      "inputs": [
        {
          "internalType": "address",
          "name": "devopsWallet_",
          "type": "address"
        },
        {
          "internalType": "address",
          "name": "adminWallet_",
          "type": "address"
        }
      ],
      "name": "initDiamond",
      "outputs": [],
      "stateMutability": "nonpayable",
      "type": "function"
    },
    {
      "inputs": [],
      "name": "pauseDiamond",
      "outputs": [],
      "stateMutability": "nonpayable",
      "type": "function"
    },
    {
      "inputs": [
        {
          "internalType": "bytes32",
          "name": "role",
          "type": "bytes32"
        },
        {
          "internalType": "address",
          "name": "callerConfirmation",
          "type": "address"
        }
      ],
      "name": "renounceRole",
      "outputs": [],
      "stateMutability": "nonpayable",
      "type": "function"
    },
    {
      "inputs": [
        {
          "internalType": "bytes32",
          "name": "role",
          "type": "bytes32"
        },
        {
          "internalType": "address",
          "name": "account",
          "type": "address"
        }
      ],
      "name": "revokeRole",
      "outputs": [],
      "stateMutability": "nonpayable",
      "type": "function"
    },
    {
      "inputs": [
        {
          "internalType": "bytes4",
          "name": "interfaceId",
          "type": "bytes4"
        }
      ],
      "name": "supportsInterface",
      "outputs": [
        {
          "internalType": "bool",
          "name": "",
          "type": "bool"
        }
      ],
      "stateMutability": "view",
      "type": "function"
    },
    {
      "inputs": [],
      "name": "unpauseDiamond",
      "outputs": [],
      "stateMutability": "nonpayable",
      "type": "function"
    }
  ],
  "bytecode": "0x60c0806040523461003057336080524360a0526118c0908161003682396080518161019f015260a051816101c70152f35b600080fdfe608080604052600436101561001357600080fd5b60003560e01c90816301ffc9a714610ccf575080631f931c1c14610459578063248a9ca31461042a5780632f2ff15d146103eb57806336568abe146103a457806391d1485414610357578063a217fddf1461033b578063bf72e0a5146102c5578063ce5cf8e514610157578063d547741f146101165763f86368ae1461009857600080fd5b34610111576000366003190112610111576100b1610dd5565b60008051602061178b833981519152805460ff8160081c166100ff5761ff0019166101001790557fa5ac8e54f300e0376195c708dd5de738bfb0a6830143ecfafb4df0c31559634a600080a1005b604051631785c68160e01b8152600490fd5b600080fd5b3461011157604036600319011261011157610155600435610135610d22565b90806000526000602052610150600160406000200154610e0d565b610ff7565b005b34610111576040366003190112610111576001600160a01b03600435818116810361011157610184610d22565b60008051602061178b8339815191529260ff8454166102b3577f00000000000000000000000000000000000000000000000000000000000000001633036102a1577f0000000000000000000000000000000000000000000000000000000000000000430361028f576101f86101fe92610e9d565b50610f19565b507fc8fcad8db84d3cc18b4c41d551ea0ee66dd599cde068d998e57d5e09332c13206020527f7757ce35b7abd87e041f9a1508b2ae221c8918df934c2bffe0a3a226a172d4458054600160ff1991821681179092556301ffc9a760e01b6000527f78b60a45df6624531fde9ed68ff79114648d330b2ef9b1fd9e257bafca2c3f4f8054821683179055825416179055005b6040516371e7a23f60e11b8152600490fd5b604051631d8c257960e01b8152600490fd5b604051631a948aeb60e21b8152600490fd5b34610111576000366003190112610111576102de610dd5565b60008051602061178b833981519152805460ff8160081c16156103295761ff00191690557f883f138903c53760bece0b5d139a7d12b663799207e373c3e145a6d7b2cad04a600080a1005b604051636cd6020160e01b8152600490fd5b3461011157600036600319011261011157602060405160008152f35b3461011157604036600319011261011157610370610d22565b600435600052600060205260406000209060018060a01b0316600052602052602060ff604060002054166040519015158152f35b34610111576040366003190112610111576103bd610d22565b336001600160a01b038216036103d95761015590600435610ff7565b60405163334bd91960e11b8152600490fd5b346101115760403660031901126101115761015560043561040a610d22565b90806000526000602052610425600160406000200154610e0d565b610f90565b346101115760203660031901126101115760043560005260006020526020600160406000200154604051908152f35b34610111576060366003190112610111576001600160401b036004351161011157366023600435011215610111576004803501356001600160401b038111610111573660248260051b600435010111610111576104b4610d22565b6001600160401b036044351161011157366023604435011215610111576001600160401b0360046044350135116101115736602460443560040135604435010111610111573360009081526000805160206117eb83398151915260205260409020546000805160206117cb8339815191529060ff1615610cb1575061054061053b83610d7c565b610d57565b602081848152018093602460043501915b60248260051b60043501018310610b605750505061057761053b60443560040135610d93565b60443560048101358083529060240160208301376000602060443560040135830101526000925b8251841015610a4a5760206105b38585610e33565b5101516003811015610a34578061070957506001600160a01b0394856105d98686610e33565b5151169360406105e98783610e33565b510151926105f98451151561106c565b6106048615156110cc565b6001600160601b0361061587610dae565b54169283156106fb575b6000935b85518510156106e4576001600160e01b031961063f8688610e33565b51168060005260008051602061182b8339815191526020528a6040600020541661068157816106748a60019461067994611691565b61112d565b940193610623565b60405162461bcd60e51b815260206004820152603560248201527f4c69624469616d6f6e644375743a2043616e2774206164642066756e6374696f6044820152746e207468617420616c72656164792065786973747360581b6064820152608490fd5b5095509591509550600191505b019293919361059e565b610704876115ea565b61061f565b92949092600181036108d457506001600160a01b036107288587610e33565b5151169460406107388683610e33565b510151936107488551151561106c565b6107538715156110cc565b6001600160601b0361076488610dae565b54169283156108c6575b6000935b86518510156108b6576001600160e01b031961078e8689610e33565b511660005b8681106108505750600081815260008051602061182b83398151915260205260409020546001600160a01b0316918a83146107ea576106748b82846107dd6107e2966001986112a8565b611691565b940193610772565b60405162461bcd60e51b815260206004820152603860248201527f4c69624469616d6f6e644375743a2043616e2774207265706c6163652066756e60448201527731ba34b7b7103bb4ba341039b0b6b290333ab731ba34b7b760411b6064820152608490fd5b816001600160e01b0319610864838c610e33565b51161461087357600101610793565b60405162461bcd60e51b815260206004820152601b60248201527a223ab83634b1b0ba3290333ab731ba34b7b71039b2b632b1ba37b960291b6044820152606490fd5b50945094909550600191506106f1565b6108cf886115ea565b61076e565b9194909290916002036109df576001600160a01b036108f38584610e33565b5151169260406109038685610e33565b510151936109138551151561106c565b61097b5760005b845181101561096c576001906109666001600160e01b031961093c8389610e33565b51168060005260008051602061182b833981519152602052838060a01b03604060002054166112a8565b0161091a565b509250926001909491946106f1565b60405162461bcd60e51b815260206004820152603660248201527f4c69624469616d6f6e644375743a2052656d6f76652066616365742061646472604482015275657373206d757374206265206164647265737328302960501b6064820152608490fd5b60405162461bcd60e51b815260206004820152602760248201527f4c69624469616d6f6e644375743a20496e636f727265637420466163657443756044820152663a20b1ba34b7b760c91b6064820152608490fd5b634e487b7160e01b600052602160045260246000fd5b84926040519060608201906060835251809152608082019060808160051b84010195916000905b828210610ac9576001600160a01b0386166020860152848803604086015261015587877f8faa70878671ccd212d20771b795c50af8fd3ff6cf27f4bde57e5d4de0aeb6738880610ac18e86610e5d565b0390a161115b565b848803607f19018152835180516001600160a01b0316895260208101519498939492939192906003821015610a345760409160208401520151906060604082015260206080835192836060820152019201906000905b808210610b3d57505050602080600192990192019201909291610a71565b82516001600160e01b031916845260209384019390920191600190910190610b1f565b9294926001600160401b0383351161011157606060043584350136036023190112610111576040516001600160401b036060820190811190821117610c9b5760608101604052600435843501602401356001600160a01b0381168103610111578152604484356004350101356003811015610111576020820152600435843501606401356001600160401b0381116101115736604382873560043501010112156101115760248186356004350101013590610c1d61053b83610d7c565b91602083828152013660448360051b858b356004350101010111610111576044838935600435010101905b60448360051b858b35600435010101018210610c7857505050506040820152815292949260209283019201610551565b81356001600160e01b031981169003610111578135815260209182019101610c48565b634e487b7160e01b600052604160045260246000fd5b6044906040519063e2517d3f60e01b82523360048301526024820152fd5b34610111576020366003190112610111576004359063ffffffff60e01b821680920361011157602091637965db0b60e01b8114908115610d11575b5015158152f35b6301ffc9a760e01b14905083610d0a565b602435906001600160a01b038216820361011157565b60405190606082016001600160401b03811183821017610c9b57604052565b6040519190601f01601f191682016001600160401b03811183821017610c9b57604052565b6001600160401b038111610c9b5760051b60200190565b6001600160401b038111610c9b57601f01601f191660200190565b6001600160a01b0316600090815260008051602061180b8339815191526020526040902090565b3360009081526000805160206117ab833981519152602052604090205460008051602061184b8339815191529060ff1615610cb15750565b80600052600060205260406000203360005260205260ff6040600020541615610cb15750565b8051821015610e475760209160051b010190565b634e487b7160e01b600052603260045260246000fd5b919082519283825260005b848110610e89575050826000602080949584010152601f8019910116010190565b602081830181015184830182015201610e68565b6001600160a01b031660008181526000805160206117eb83398151915260205260408120549091906000805160206117cb8339815191529060ff16610f1457808352826020526040832082845260205260408320600160ff1982541617905560008051602061176b833981519152339380a4600190565b505090565b6001600160a01b031660008181526000805160206117ab833981519152602052604081205490919060008051602061184b8339815191529060ff16610f1457808352826020526040832082845260205260408320600160ff1982541617905560008051602061176b833981519152339380a4600190565b9060009180835282602052604083209160018060a01b03169182845260205260ff60408420541615600014610f1457808352826020526040832082845260205260408320600160ff1982541617905560008051602061176b833981519152339380a4600190565b9060009180835282602052604083209160018060a01b03169182845260205260ff604084205416600014610f145780835282602052604083208284526020526040832060ff1981541690557ff6391f5c32d9c69d2a47ea670b442974b53935d1edc7fd64eb21e047a839171b339380a4600190565b1561107357565b60405162461bcd60e51b815260206004820152602b60248201527f4c69624469616d6f6e644375743a204e6f2073656c6563746f727320696e206660448201526a1858d95d081d1bc818dd5d60aa1b6064820152608490fd5b156110d357565b60405162461bcd60e51b815260206004820152602c60248201527f4c69624469616d6f6e644375743a204164642066616365742063616e2774206260448201526b65206164647265737328302960a01b6064820152608490fd5b6001600160601b039081169081146111455760010190565b634e487b7160e01b600052601160045260246000fd5b6001600160a01b0381169190821561123657600080916111bd61117c610d38565b602881527f4c69624469616d6f6e644375743a205f696e6974206164647265737320686173602082015267206e6f20636f646560c01b60408201528261173d565b83519060208501905af4913d1561122e573d926111dc61053b85610d93565b9384523d6000602086013e5b156111f257505050565b82511561120157825160208401fd5b61122a60405192839263192105d760e01b84526004840152604060248401526044830190610e5d565b0390fd5b6060926111e8565b505050565b9190918054831015610e4757600052601c60206000208360031c019260021b1690565b80546001600160a01b031660a09290921b6001600160a01b031916919091179055565b60008051602061186b8339815191528054821015610e475760005260206000200190600090565b6001600160a01b03908116918215611585573083146115295763ffffffff60e01b8091169260009380855260008051602061182b833981519152916020948386526040938488205460a01c9083895260008051602061180b83398151915294858952868a20549260001998898501948511611515579088918b8d898b898087036114a8575b50509052505050868a5250868a208054801561149457890190611350828261123b565b63ffffffff82549160031b1b191690555589528752878581205515611379575b50505050505050565b60008051602061186b83398151915280549580870196871161148057838952848852600196836001888c20015491808303611430575b5050508154801561141c5701916113c583611281565b909182549160031b1b191690555585528352832091825490848455816113f9575b5050506001015538808080808080611370565b6007908486528520910160031c8101905b818110156113e657848155820161140a565b634e487b7160e01b8a52603160045260248afd5b61143990611281565b90549060031b1c1661146c8161144e84611281565b90919060018060a01b038084549260031b9316831b921b1916179055565b8a528589526001878b2001553883816113af565b634e487b7160e01b89526011600452602489fd5b634e487b7160e01b8c52603160045260248cfd5b61150897846114dd936114c78a94876114fa9952828a5284842061123b565b90549060031b1c60e01b9788968352522061123b565b90919063ffffffff83549160031b9260e01c831b921b1916179055565b168c52838b52888c2061125e565b8638808b8d898b8961132d565b634e487b7160e01b8c52601160045260248cfd5b60405162461bcd60e51b815260206004820152602e60248201527f4c69624469616d6f6e644375743a2043616e27742072656d6f766520696d6d7560448201526d3a30b1363290333ab731ba34b7b760911b6064820152608490fd5b60405162461bcd60e51b815260206004820152603760248201527f4c69624469616d6f6e644375743a2043616e27742072656d6f76652066756e636044820152761d1a5bdb881d1a185d08191bd95cdb89dd08195e1a5cdd604a1b6064820152608490fd5b6116326115f5610d38565b602481527f4c69624469616d6f6e644375743a204e657720666163657420686173206e6f20602082015263636f646560e01b60408201528261173d565b60008051602061186b83398151915280546001600160a01b038316600090815260008051602061180b833981519152602052604090206001018190559190600160401b831015610c9b578261144e91600161168f95019055611281565b565b929163ffffffff60e01b8416916000918383526116c460008051602061182b83398151915292836020526040852061125e565b6001600160a01b031680835260008051602061180b83398151915260205260408320805491949190600160401b82101561172957966114dd82604097989960016117109501815561123b565b82526020522080546001600160a01b0319169091179055565b634e487b7160e01b85526041600452602485fd5b3b156117465750565b60405162461bcd60e51b81526020600482015290819061122a906024830190610e5d56fe2f8788117e7eff1d82e926ec794901d17c78024a50270940304540a733656f0dc8fcad8db84d3cc18b4c41d551ea0ee66dd599cde068d998e57d5e09332c131c7d7ffb7a348e1c6a02869081a26547b49160dd3df72d1d75a570eb9b698292ec793a6c9b7e0a9549c74edc2f9ae0dc50903dfaa9a56fb0116b27a8c71de3e2c6c4fa85ddc8456762f8b72103c3e0ab9fc9da9d046b037e6a078b6d2d90f12978c8fcad8db84d3cc18b4c41d551ea0ee66dd599cde068d998e57d5e09332c131ec8fcad8db84d3cc18b4c41d551ea0ee66dd599cde068d998e57d5e09332c131da49807205ce4d355092ef5a8a18f56e8913cf4a201fbe287825b095693c21775c8fcad8db84d3cc18b4c41d551ea0ee66dd599cde068d998e57d5e09332c131fa26469706673582212207f761cd3398e49541e56ae697820a3e45b8c0f616d2bd0a2fdf81715fe70524864736f6c63430008160033",
  "linkReferences": {},
  "deployedLinkReferences": {}
}