{
  "_format": "hh-sol-artifact-1",
  "contractName": "TestMockPermit2",
  "sourceName": "contracts/test/TestMockPermit2.sol",
  "abi": [
    {
      "inputs": [],
      "name": "DOMAIN_SEPARATOR",
      "outputs": [
        {
          "internalType": "bytes32",
          "name": "",
          "type": "bytes32"
        }
      ],
      "stateMutability": "pure",
      "type": "function"
    },
    {
      "inputs": [],
      "name": "lastPermitAmount",
      "outputs": [
        {
          "internalType": "uint160",
          "name": "",
          "type": "uint160"
        }
      ],
      "stateMutability": "view",
      "type": "function"
    },
    {
      "inputs": [],
      "name": "lastPermitOwner",
      "outputs": [
        {
          "internalType": "address",
          "name": "",
          "type": "address"
        }
      ],
      "stateMutability": "view",
      "type": "function"
    },
    {
      "inputs": [],
      "name": "lastPermitSpender",
      "outputs": [
        {
          "internalType": "address",
          "name": "",
          "type": "address"
        }
      ],
      "stateMutability": "view",
      "type": "function"
    },
    {
      "inputs": [],
      "name": "lastPermitToken",
      "outputs": [
        {
          "internalType": "address",
          "name": "",
          "type": "address"
        }
      ],
      "stateMutability": "view",
      "type": "function"
    },
    {
      "inputs": [],
      "name": "lastTransferAmount",
      "outputs": [
        {
          "internalType": "uint160",
          "name": "",
          "type": "uint160"
        }
      ],
      "stateMutability": "view",
      "type": "function"
    },
    {
      "inputs": [],
      "name": "lastTransferFrom",
      "outputs": [
        {
          "internalType": "address",
          "name": "",
          "type": "address"
        }
      ],
      "stateMutability": "view",
      "type": "function"
    },
    {
      "inputs": [],
      "name": "lastTransferTo",
      "outputs": [
        {
          "internalType": "address",
          "name": "",
          "type": "address"
        }
      ],
      "stateMutability": "view",
      "type": "function"
    },
    {
      "inputs": [],
      "name": "lastTransferToken",
      "outputs": [
        {
          "internalType": "address",
          "name": "",
          "type": "address"
        }
      ],
      "stateMutability": "view",
      "type": "function"
    },
    {
      "inputs": [
        {
          "internalType": "address",
          "name": "owner",
          "type": "address"
        },
        {
          "components": [
            {
              "components": [
                {
                  "internalType": "address",
                  "name": "token",
                  "type": "address"
                },
                {
                  "internalType": "uint160",
                  "name": "amount",
                  "type": "uint160"
                },
                {
                  "internalType": "uint48",
                  "name": "expiration",
                  "type": "uint48"
                },
                {
                  "internalType": "uint48",
                  "name": "nonce",
                  "type": "uint48"
                }
              ],
              "internalType": "struct IAllowanceTransfer.PermitDetails",
              "name": "details",
              "type": "tuple"
            },
            {
              "internalType": "address",
              "name": "spender",
              "type": "address"
            },
            {
              "internalType": "uint256",
              "name": "sigDeadline",
              "type": "uint256"
            }
          ],
          "internalType": "struct IAllowanceTransfer.PermitSingle",
          "name": "permitSingle",
          "type": "tuple"
        },
        {
          "internalType": "bytes",
          "name": "",
          "type": "bytes"
        }
      ],
      "name": "permit",
      "outputs": [],
      "stateMutability": "nonpayable",
      "type": "function"
    },
    {
      "inputs": [
        {
          "internalType": "bool",
          "name": "_shouldRevert",
          "type": "bool"
        }
      ],
      "name": "setShouldRevertOnPermit",
      "outputs": [],
      "stateMutability": "nonpayable",
      "type": "function"
    },
    {
      "inputs": [
        {
          "internalType": "bool",
          "name": "_shouldRevert",
          "type": "bool"
        }
      ],
      "name": "setShouldRevertOnTransferFrom",
      "outputs": [],
      "stateMutability": "nonpayable",
      "type": "function"
    },
    {
      "inputs": [],
      "name": "shouldRevertOnPermit",
      "outputs": [
        {
          "internalType": "bool",
          "name": "",
          "type": "bool"
        }
      ],
      "stateMutability": "view",
      "type": "function"
    },
    {
      "inputs": [],
      "name": "shouldRevertOnTransferFrom",
      "outputs": [
        {
          "internalType": "bool",
          "name": "",
          "type": "bool"
        }
      ],
      "stateMutability": "view",
      "type": "function"
    },
    {
      "inputs": [
        {
          "internalType": "address",
          "name": "from",
          "type": "address"
        },
        {
          "internalType": "address",
          "name": "to",
          "type": "address"
        },
        {
          "internalType": "uint160",
          "name": "amount",
          "type": "uint160"
        },
        {
          "internalType": "address",
          "name": "token",
          "type": "address"
        }
      ],
      "name": "transferFrom",
      "outputs": [],
      "stateMutability": "nonpayable",
      "type": "function"
    }
  ],
  "bytecode": "0x60808060405234610016576105e8908161001c8239f35b600080fdfe608060408181526004918236101561001657600080fd5b600092833560e01c9182630c07980414610575575081630c69f93a146105485781631397d4f31461051f5781631d61aa20146104f65781632b67b570146103d55781633644e5151461039a57816336c785161461021c5781634355cf9f146101f3578163555890b4146101bf5781637684fece14610196578163831db1411461016d578163832055a4146101415750806384c09a3c146101195780639816b363146100f85763ebf7d49e146100ca57600080fd5b346100f457816003193601126100f4579054905160109190911c6001600160a01b03168152602090f35b5080fd5b50346100f457816003193601126100f45760ff602092541690519015158152f35b50346100f457816003193601126100f45760055490516001600160a01b039091168152602090f35b9050346101695782600319360112610169575490516001600160a01b03909116815260209150f35b8280fd5b5050346100f457816003193601126100f45760015490516001600160a01b039091168152602090f35b5050346100f457816003193601126100f45760065490516001600160a01b039091168152602090f35b8390346100f45760203660031901126100f457358015158091036100f45761ff0082549160081b169061ff00191617815580f35b5050346100f457816003193601126100f45760035490516001600160a01b039091168152602090f35b9190503461016957608036600319011261016957610238610597565b6001600160a01b03929060243584811691908290036103965760443594808616809603610392576064359181831680930361038e5760ff885460081c166103505791876064926020959416918060018060a01b031984818a5416178955868160055416176005558a8160065416176006556007541617600755875198899586946323b872dd60e01b865289860152602485015260448401525af18015610346576102e0578380f35b6020913d60201161033e575b601f8301601f19168401916001600160401b0383118584101761032b5750526020908201829003126100f4575180151503610328573880808380f35b80fd5b634e487b7160e01b865260419052602485fd5b3d92506102ec565b82513d86823e3d90fd5b855162461bcd60e51b81526020818701526018602482015277135bd8dac81d1c985b9cd9995c919c9bdb4819985a5b195960421b6044820152606490fd5b8780fd5b8680fd5b8580fd5b5050346100f457816003193601126100f457602090517fa3aa3caa8068acb8c05e6498205aadd19bdf71953ae5029b0263f1fe75a2821e8152f35b90503461016957610100366003190112610169576103f1610597565b9060c03660231901126104ba5760e4356001600160401b038082116103965736602383011215610396578183013590811161039657369101602401116104ba5783549260ff84166104be57505062010000600160b01b031990911660109190911b62010000600160b01b03161781556001600160a01b0360a4358181169081900361016957600180546001600160a01b03199081169092179055602435828116908190036104ba5781600254161760025560443591821680920361016957600354161760035580f35b8380fd5b906020606492519162461bcd60e51b83528201526012602482015271135bd8dac81c195c9b5a5d0819985a5b195960721b6044820152fd5b5050346100f457816003193601126100f45760025490516001600160a01b039091168152602090f35b5050346100f457816003193601126100f45760075490516001600160a01b039091168152602090f35b8390346100f45760203660031901126100f457358015158091036100f45760ff8019835416911617815580f35b8490346100f457816003193601126100f45760ff6020925460081c1615158152f35b600435906001600160a01b03821682036105ad57565b600080fdfea26469706673582212205d370334b0d8a9d95b67fdbb6c0c65b6ce05d26ea28e1804e8010fed7c8fe55e64736f6c63430008160033",
  "linkReferences": {},
  "deployedLinkReferences": {}
}