{
  "_format": "hh-sol-artifact-1",
  "contractName": "TestTermPriceConsumerV3",
  "sourceName": "contracts/test/TestTermPriceConsumerV3.sol",
  "abi": [
    {
      "inputs": [
        {
          "internalType": "address",
          "name": "tokenAddress",
          "type": "address"
        }
      ],
      "name": "NoPriceFeed",
      "type": "error"
    },
    {
      "anonymous": false,
      "inputs": [
        {
          "indexed": false,
          "internalType": "address",
          "name": "previousAdmin",
          "type": "address"
        },
        {
          "indexed": false,
          "internalType": "address",
          "name": "newAdmin",
          "type": "address"
        }
      ],
      "name": "AdminChanged",
      "type": "event"
    },
    {
      "anonymous": false,
      "inputs": [
        {
          "indexed": true,
          "internalType": "address",
          "name": "beacon",
          "type": "address"
        }
      ],
      "name": "BeaconUpgraded",
      "type": "event"
    },
    {
      "anonymous": false,
      "inputs": [
        {
          "indexed": false,
          "internalType": "uint8",
          "name": "version",
          "type": "uint8"
        }
      ],
      "name": "Initialized",
      "type": "event"
    },
    {
      "anonymous": false,
      "inputs": [
        {
          "indexed": true,
          "internalType": "bytes32",
          "name": "role",
          "type": "bytes32"
        },
        {
          "indexed": true,
          "internalType": "bytes32",
          "name": "previousAdminRole",
          "type": "bytes32"
        },
        {
          "indexed": true,
          "internalType": "bytes32",
          "name": "newAdminRole",
          "type": "bytes32"
        }
      ],
      "name": "RoleAdminChanged",
      "type": "event"
    },
    {
      "anonymous": false,
      "inputs": [
        {
          "indexed": true,
          "internalType": "bytes32",
          "name": "role",
          "type": "bytes32"
        },
        {
          "indexed": true,
          "internalType": "address",
          "name": "account",
          "type": "address"
        },
        {
          "indexed": true,
          "internalType": "address",
          "name": "sender",
          "type": "address"
        }
      ],
      "name": "RoleGranted",
      "type": "event"
    },
    {
      "anonymous": false,
      "inputs": [
        {
          "indexed": true,
          "internalType": "bytes32",
          "name": "role",
          "type": "bytes32"
        },
        {
          "indexed": true,
          "internalType": "address",
          "name": "account",
          "type": "address"
        },
        {
          "indexed": true,
          "internalType": "address",
          "name": "sender",
          "type": "address"
        }
      ],
      "name": "RoleRevoked",
      "type": "event"
    },
    {
      "anonymous": false,
      "inputs": [
        {
          "indexed": false,
          "internalType": "address",
          "name": "token",
          "type": "address"
        },
        {
          "indexed": false,
          "internalType": "address",
          "name": "tokenPriceAggregator",
          "type": "address"
        }
      ],
      "name": "SubscribePriceFeed",
      "type": "event"
    },
    {
      "anonymous": false,
      "inputs": [
        {
          "indexed": false,
          "internalType": "address",
          "name": "token",
          "type": "address"
        }
      ],
      "name": "UnsubscribePriceFeed",
      "type": "event"
    },
    {
      "anonymous": false,
      "inputs": [
        {
          "indexed": true,
          "internalType": "address",
          "name": "implementation",
          "type": "address"
        }
      ],
      "name": "Upgraded",
      "type": "event"
    },
    {
      "inputs": [],
      "name": "DEFAULT_ADMIN_ROLE",
      "outputs": [
        {
          "internalType": "bytes32",
          "name": "",
          "type": "bytes32"
        }
      ],
      "stateMutability": "view",
      "type": "function"
    },
    {
      "inputs": [],
      "name": "DEVOPS_ROLE",
      "outputs": [
        {
          "internalType": "bytes32",
          "name": "",
          "type": "bytes32"
        }
      ],
      "stateMutability": "view",
      "type": "function"
    },
    {
      "inputs": [],
      "name": "EVERGREEN_MANAGEMENT_ROLE",
      "outputs": [
        {
          "internalType": "bytes32",
          "name": "",
          "type": "bytes32"
        }
      ],
      "stateMutability": "view",
      "type": "function"
    },
    {
      "inputs": [
        {
          "internalType": "address",
          "name": "token",
          "type": "address"
        },
        {
          "internalType": "address",
          "name": "tokenPriceAggregator",
          "type": "address"
        }
      ],
      "name": "addNewTokenPriceFeed",
      "outputs": [],
      "stateMutability": "nonpayable",
      "type": "function"
    },
    {
      "inputs": [
        {
          "internalType": "bytes32",
          "name": "role",
          "type": "bytes32"
        }
      ],
      "name": "getRoleAdmin",
      "outputs": [
        {
          "internalType": "bytes32",
          "name": "",
          "type": "bytes32"
        }
      ],
      "stateMutability": "view",
      "type": "function"
    },
    {
      "inputs": [
        {
          "internalType": "bytes32",
          "name": "role",
          "type": "bytes32"
        },
        {
          "internalType": "address",
          "name": "account",
          "type": "address"
        }
      ],
      "name": "grantRole",
      "outputs": [],
      "stateMutability": "nonpayable",
      "type": "function"
    },
    {
      "inputs": [
        {
          "internalType": "bytes32",
          "name": "role",
          "type": "bytes32"
        },
        {
          "internalType": "address",
          "name": "account",
          "type": "address"
        }
      ],
      "name": "hasRole",
      "outputs": [
        {
          "internalType": "bool",
          "name": "",
          "type": "bool"
        }
      ],
      "stateMutability": "view",
      "type": "function"
    },
    {
      "inputs": [
        {
          "internalType": "address",
          "name": "devopsWallet_",
          "type": "address"
        },
        {
          "internalType": "address",
          "name": "evergreenManagementWallet_",
          "type": "address"
        }
      ],
      "name": "initialize",
      "outputs": [],
      "stateMutability": "nonpayable",
      "type": "function"
    },
    {
      "inputs": [],
      "name": "proxiableUUID",
      "outputs": [
        {
          "internalType": "bytes32",
          "name": "",
          "type": "bytes32"
        }
      ],
      "stateMutability": "view",
      "type": "function"
    },
    {
      "inputs": [
        {
          "internalType": "address",
          "name": "token",
          "type": "address"
        }
      ],
      "name": "removeTokenPriceFeed",
      "outputs": [],
      "stateMutability": "nonpayable",
      "type": "function"
    },
    {
      "inputs": [
        {
          "internalType": "bytes32",
          "name": "role",
          "type": "bytes32"
        },
        {
          "internalType": "address",
          "name": "account",
          "type": "address"
        }
      ],
      "name": "renounceRole",
      "outputs": [],
      "stateMutability": "nonpayable",
      "type": "function"
    },
    {
      "inputs": [
        {
          "internalType": "bytes32",
          "name": "role",
          "type": "bytes32"
        },
        {
          "internalType": "address",
          "name": "account",
          "type": "address"
        }
      ],
      "name": "revokeRole",
      "outputs": [],
      "stateMutability": "nonpayable",
      "type": "function"
    },
    {
      "inputs": [
        {
          "internalType": "bytes4",
          "name": "interfaceId",
          "type": "bytes4"
        }
      ],
      "name": "supportsInterface",
      "outputs": [
        {
          "internalType": "bool",
          "name": "",
          "type": "bool"
        }
      ],
      "stateMutability": "view",
      "type": "function"
    },
    {
      "inputs": [
        {
          "internalType": "address",
          "name": "upgradeAddress",
          "type": "address"
        }
      ],
      "name": "upgrade",
      "outputs": [],
      "stateMutability": "view",
      "type": "function"
    },
    {
      "inputs": [
        {
          "internalType": "address",
          "name": "newImplementation",
          "type": "address"
        }
      ],
      "name": "upgradeTo",
      "outputs": [],
      "stateMutability": "nonpayable",
      "type": "function"
    },
    {
      "inputs": [
        {
          "internalType": "address",
          "name": "newImplementation",
          "type": "address"
        },
        {
          "internalType": "bytes",
          "name": "data",
          "type": "bytes"
        }
      ],
      "name": "upgradeToAndCall",
      "outputs": [],
      "stateMutability": "payable",
      "type": "function"
    },
    {
      "inputs": [
        {
          "internalType": "address",
          "name": "token",
          "type": "address"
        },
        {
          "internalType": "uint256",
          "name": "amount",
          "type": "uint256"
        }
      ],
      "name": "usdValueOfTokens",
      "outputs": [
        {
          "components": [
            {
              "internalType": "uint256",
              "name": "mantissa",
              "type": "uint256"
            }
          ],
          "internalType": "struct ExponentialNoError.Exp",
          "name": "",
          "type": "tuple"
        }
      ],
      "stateMutability": "view",
      "type": "function"
    },
    {
      "inputs": [],
      "name": "version",
      "outputs": [
        {
          "internalType": "string",
          "name": "",
          "type": "string"
        }
      ],
      "stateMutability": "view",
      "type": "function"
    }
  ],
  "bytecode": "0x60a06040523060805234801561001457600080fd5b5061001d610022565b6100e1565b600054610100900460ff161561008e5760405162461bcd60e51b815260206004820152602760248201527f496e697469616c697a61626c653a20636f6e747261637420697320696e697469604482015266616c697a696e6760c81b606482015260840160405180910390fd5b60005460ff908116146100df576000805460ff191660ff9081179091556040519081527f7f26b83ff96e1f2b6a682f133852f6798a09c465da95921460cefb38474024989060200160405180910390a15b565b608051611975610118600039600081816105c9015281816106090152818161086e015281816108ae015261092601526119756000f3fe6080604052600436106100e95760003560e01c8063485cc95511610085578063485cc955146102685780634d8d5999146102885780634f1ef286146102a857806352d1902d146102bb57806354fd4d50146102d057806391d148541461030a578063a217fddf1461032a578063ce2ff6aa1461033f578063d547741f1461035f57600080fd5b806301ffc9a7146100ee5780630900f010146101235780630f4f276c14610145578063201a662514610174578063248a9ca3146101a45780632f2ff15d146101d457806335185731146101f457806336568abe146102285780633659cfe614610248575b600080fd5b3480156100fa57600080fd5b5061010e610109366004611350565b61037f565b60405190151581526020015b60405180910390f35b34801561012f57600080fd5b5061014361013e366004611396565b6103b6565b005b34801561015157600080fd5b506101656101603660046113b1565b6103c2565b6040519051815260200161011a565b34801561018057600080fd5b506101966000805160206118d983398151915281565b60405190815260200161011a565b3480156101b057600080fd5b506101966101bf3660046113db565b600090815260c9602052604090206001015490565b3480156101e057600080fd5b506101436101ef3660046113f4565b610517565b34801561020057600080fd5b506101967f0bb5a33d705086fce426ce4e2dd59328fcdddf3164b908c4c00fd1a185a702de81565b34801561023457600080fd5b506101436102433660046113f4565b610541565b34801561025457600080fd5b50610143610263366004611396565b6105bf565b34801561027457600080fd5b50610143610283366004611420565b610684565b34801561029457600080fd5b506101436102a3366004611420565b6107e8565b6101436102b6366004611460565b610864565b3480156102c757600080fd5b50610196610919565b3480156102dc57600080fd5b50604080518082018252600b81526a19195d995b1bdc1b595b9d60aa1b6020820152905161011a9190611546565b34801561031657600080fd5b5061010e6103253660046113f4565b6109c7565b34801561033657600080fd5b50610196600081565b34801561034b57600080fd5b5061014361035a366004611396565b6109f2565b34801561036b57600080fd5b5061014361037a3660046113f4565b610a6c565b60006001600160e01b03198216637965db0b60e01b14806103b057506301ffc9a760e01b6001600160e01b03198316145b92915050565b6103bf81610a91565b50565b6040805160208101909152600081526001600160a01b03838116600090815260fb6020526040902054166104145782604051632a4f499d60e21b815260040161040b9190611579565b60405180910390fd5b600061041f84610aa9565b9050600061042c85610b33565b905060008590506000816001600160a01b031663313ce5676040518163ffffffff1660e01b8152600401602060405180830381865afa158015610473573d6000803e3d6000fd5b505050506040513d601f19601f82011682018060405250810190610497919061158d565b905061050c604051806020016040528083600a6104b491906116aa565b6104c6670de0b6b3a76400008b6116b9565b6104d091906116d0565b90526040805160208101909152806104e987600a6116aa565b6104fb670de0b6b3a76400008a6116b9565b61050591906116d0565b9052610bae565b979650505050505050565b600082815260c9602052604090206001015461053281610bf6565b61053c8383610c00565b505050565b6001600160a01b03811633146105b15760405162461bcd60e51b815260206004820152602f60248201527f416363657373436f6e74726f6c3a2063616e206f6e6c792072656e6f756e636560448201526e103937b632b9903337b91039b2b63360891b606482015260840161040b565b6105bb8282610c86565b5050565b6001600160a01b037f00000000000000000000000000000000000000000000000000000000000000001630036106075760405162461bcd60e51b815260040161040b906116f2565b7f00000000000000000000000000000000000000000000000000000000000000006001600160a01b0316610639610ced565b6001600160a01b03161461065f5760405162461bcd60e51b815260040161040b9061173e565b61066881610a91565b604080516000808252602082019092526103bf91839190610d09565b600054610100900460ff16158080156106a45750600054600160ff909116105b806106c557506106b330610e74565b1580156106c5575060005460ff166001145b6107285760405162461bcd60e51b815260206004820152602e60248201527f496e697469616c697a61626c653a20636f6e747261637420697320616c72656160448201526d191e481a5b9a5d1a585b1a5e995960921b606482015260840161040b565b6000805460ff19166001179055801561074b576000805461ff0019166101001790555b610753610e83565b61075b610e83565b6107736000805160206118d983398151915284610c00565b61079d7f0bb5a33d705086fce426ce4e2dd59328fcdddf3164b908c4c00fd1a185a702de83610c00565b801561053c576000805461ff0019169055604051600181527f7f26b83ff96e1f2b6a682f133852f6798a09c465da95921460cefb3847402498906020015b60405180910390a1505050565b6000805160206118d983398151915261080081610bf6565b6001600160a01b03838116600081815260fb602090815260409182902080546001600160a01b031916948716948517905581519283528201929092527f950d6b0fc92ec932fc49a6ea1af2dded2fac58d5464090ceece194b1f1e624f391016107db565b6001600160a01b037f00000000000000000000000000000000000000000000000000000000000000001630036108ac5760405162461bcd60e51b815260040161040b906116f2565b7f00000000000000000000000000000000000000000000000000000000000000006001600160a01b03166108de610ced565b6001600160a01b0316146109045760405162461bcd60e51b815260040161040b9061173e565b61090d82610a91565b6105bb82826001610d09565b6000306001600160a01b037f000000000000000000000000000000000000000000000000000000000000000016146109b45760405162461bcd60e51b815260206004820152603860248201527f555550535570677261646561626c653a206d757374206e6f742062652063616c6044820152771b1959081d1a1c9bdd59da0819195b1959d85d1958d85b1b60421b606482015260840161040b565b506000805160206118f983398151915290565b600091825260c9602090815260408084206001600160a01b0393909316845291905290205460ff1690565b6000805160206118d9833981519152610a0a81610bf6565b6001600160a01b038216600090815260fb60205260409081902080546001600160a01b0319169055517ffbc2f2231449137043afaa28222f673d780c0e7449d25d2c98ea791db929204c90610a60908490611579565b60405180910390a15050565b600082815260c96020526040902060010154610a8781610bf6565b61053c8383610c86565b6000805160206118d98339815191526105bb81610bf6565b6001600160a01b03808216600090815260fb6020526040808220548151633fabe5a360e21b815291519293849391169163feaf968c9160048083019260a09291908290030181865afa158015610b03573d6000803e3d6000fd5b505050506040513d601f19601f82011682018060405250810190610b2791906117a4565b50919695505050505050565b6001600160a01b03808216600090815260fb6020908152604080832054815163313ce56760e01b815291519394169263313ce567926004808401939192918290030181865afa158015610b8a573d6000803e3d6000fd5b505050506040513d601f19601f820116820180604052508101906103b0919061158d565b6040805160208101909152600081526040518060200160405280670de0b6b3a7640000610be386600001518660000151610ef0565b610bed91906116d0565b90529392505050565b6103bf8133610f03565b610c0a82826109c7565b6105bb57600082815260c9602090815260408083206001600160a01b03851684529091529020805460ff19166001179055610c423390565b6001600160a01b0316816001600160a01b0316837f2f8788117e7eff1d82e926ec794901d17c78024a50270940304540a733656f0d60405160405180910390a45050565b610c9082826109c7565b156105bb57600082815260c9602090815260408083206001600160a01b0385168085529252808320805460ff1916905551339285917ff6391f5c32d9c69d2a47ea670b442974b53935d1edc7fd64eb21e047a839171b9190a45050565b6000805160206118f9833981519152546001600160a01b031690565b7f4910fdfa16fed3260ed0e7147f7cc6da11a60208b5b9406d12a635614ffd91435460ff1615610d3c5761053c83610f5c565b826001600160a01b03166352d1902d6040518163ffffffff1660e01b8152600401602060405180830381865afa925050508015610d96575060408051601f3d908101601f19168201909252610d93918101906117f4565b60015b610df95760405162461bcd60e51b815260206004820152602e60248201527f45524331393637557067726164653a206e657720696d706c656d656e7461746960448201526d6f6e206973206e6f74205555505360901b606482015260840161040b565b6000805160206118f98339815191528114610e685760405162461bcd60e51b815260206004820152602960248201527f45524331393637557067726164653a20756e737570706f727465642070726f786044820152681a58589b195555525160ba1b606482015260840161040b565b5061053c838383610ff6565b6001600160a01b03163b151590565b600054610100900460ff16610eee5760405162461bcd60e51b815260206004820152602b60248201527f496e697469616c697a61626c653a20636f6e7472616374206973206e6f74206960448201526a6e697469616c697a696e6760a81b606482015260840161040b565b565b6000610efc82846116b9565b9392505050565b610f0d82826109c7565b6105bb57610f1a81611021565b610f25836020611033565b604051602001610f3692919061180d565b60408051601f198184030181529082905262461bcd60e51b825261040b91600401611546565b610f6581610e74565b610fc75760405162461bcd60e51b815260206004820152602d60248201527f455243313936373a206e657720696d706c656d656e746174696f6e206973206e60448201526c1bdd08184818dbdb9d1c9858dd609a1b606482015260840161040b565b6000805160206118f983398151915280546001600160a01b0319166001600160a01b0392909216919091179055565b610fff836111cf565b60008251118061100c5750805b1561053c5761101b838361120f565b50505050565b60606103b06001600160a01b03831660145b606060006110428360026116b9565b61104d90600261187c565b67ffffffffffffffff8111156110655761106561144a565b6040519080825280601f01601f19166020018201604052801561108f576020820181803683370190505b509050600360fc1b816000815181106110aa576110aa61188f565b60200101906001600160f81b031916908160001a905350600f60fb1b816001815181106110d9576110d961188f565b60200101906001600160f81b031916908160001a90535060006110fd8460026116b9565b61110890600161187c565b90505b6001811115611180576f181899199a1a9b1b9c1cb0b131b232b360811b85600f166010811061113c5761113c61188f565b1a60f81b8282815181106111525761115261188f565b60200101906001600160f81b031916908160001a90535060049490941c93611179816118a5565b905061110b565b508315610efc5760405162461bcd60e51b815260206004820181905260248201527f537472696e67733a20686578206c656e67746820696e73756666696369656e74604482015260640161040b565b6111d881610f5c565b6040516001600160a01b038216907fbc7cd75a20ee27fd9adebab32041f755214dbc6bffa90cc0225b39da2e5c2d3b90600090a250565b6060610efc8383604051806060016040528060278152602001611919602791396060600080856001600160a01b03168560405161124c91906118bc565b600060405180830381855af49150503d8060008114611287576040519150601f19603f3d011682016040523d82523d6000602084013e61128c565b606091505b509150915061129d868383876112a7565b9695505050505050565b6060831561131457825160000361130d576112c185610e74565b61130d5760405162461bcd60e51b815260206004820152601d60248201527f416464726573733a2063616c6c20746f206e6f6e2d636f6e7472616374000000604482015260640161040b565b508161131e565b61131e8383611326565b949350505050565b8151156113365781518083602001fd5b8060405162461bcd60e51b815260040161040b9190611546565b60006020828403121561136257600080fd5b81356001600160e01b031981168114610efc57600080fd5b80356001600160a01b038116811461139157600080fd5b919050565b6000602082840312156113a857600080fd5b610efc8261137a565b600080604083850312156113c457600080fd5b6113cd8361137a565b946020939093013593505050565b6000602082840312156113ed57600080fd5b5035919050565b6000806040838503121561140757600080fd5b823591506114176020840161137a565b90509250929050565b6000806040838503121561143357600080fd5b61143c8361137a565b91506114176020840161137a565b634e487b7160e01b600052604160045260246000fd5b6000806040838503121561147357600080fd5b61147c8361137a565b9150602083013567ffffffffffffffff8082111561149957600080fd5b818501915085601f8301126114ad57600080fd5b8135818111156114bf576114bf61144a565b604051601f8201601f19908116603f011681019083821181831017156114e7576114e761144a565b8160405282815288602084870101111561150057600080fd5b8260208601602083013760006020848301015280955050505050509250929050565b60005b8381101561153d578181015183820152602001611525565b50506000910152565b6020815260008251806020840152611565816040850160208701611522565b601f01601f19169190910160400192915050565b6001600160a01b0391909116815260200190565b60006020828403121561159f57600080fd5b815160ff81168114610efc57600080fd5b634e487b7160e01b600052601160045260246000fd5b600181815b808511156116015781600019048211156115e7576115e76115b0565b808516156115f457918102915b93841c93908002906115cb565b509250929050565b600082611618575060016103b0565b81611625575060006103b0565b816001811461163b576002811461164557611661565b60019150506103b0565b60ff841115611656576116566115b0565b50506001821b6103b0565b5060208310610133831016604e8410600b8410161715611684575081810a6103b0565b61168e83836115c6565b80600019048211156116a2576116a26115b0565b029392505050565b6000610efc60ff841683611609565b80820281158282048414176103b0576103b06115b0565b6000826116ed57634e487b7160e01b600052601260045260246000fd5b500490565b6020808252602c908201527f46756e6374696f6e206d7573742062652063616c6c6564207468726f7567682060408201526b19195b1959d85d1958d85b1b60a21b606082015260800190565b6020808252602c908201527f46756e6374696f6e206d7573742062652063616c6c6564207468726f7567682060408201526b6163746976652070726f787960a01b606082015260800190565b805169ffffffffffffffffffff8116811461139157600080fd5b600080600080600060a086880312156117bc57600080fd5b6117c58661178a565b94506020860151935060408601519250606086015191506117e86080870161178a565b90509295509295909350565b60006020828403121561180657600080fd5b5051919050565b76020b1b1b2b9b9a1b7b73a3937b61d1030b1b1b7bab73a1604d1b81526000835161183f816017850160208801611522565b7001034b99036b4b9b9b4b733903937b6329607d1b6017918401918201528351611870816028840160208801611522565b01602801949350505050565b808201808211156103b0576103b06115b0565b634e487b7160e01b600052603260045260246000fd5b6000816118b4576118b46115b0565b506000190190565b600082516118ce818460208701611522565b919091019291505056fe793a6c9b7e0a9549c74edc2f9ae0dc50903dfaa9a56fb0116b27a8c71de3e2c6360894a13ba1a3210667c828492db98dca3e2076cc3735a920a3ca505d382bbc416464726573733a206c6f772d6c6576656c2064656c65676174652063616c6c206661696c6564a264697066735822122040f42a9f1cd5c7c4054a63fa56bcb0331884ec5acfa1434fad2f244e50b3ad1f64736f6c63430008120033",
  "linkReferences": {},
  "deployedLinkReferences": {}
}