{
  "_format": "hh-sol-artifact-1",
  "contractName": "TestTermPriceConsumerV3",
  "sourceName": "contracts/test/TestTermPriceConsumerV3.sol",
  "abi": [
    {
      "inputs": [],
      "name": "AccessControlBadConfirmation",
      "type": "error"
    },
    {
      "inputs": [
        {
          "internalType": "address",
          "name": "account",
          "type": "address"
        },
        {
          "internalType": "bytes32",
          "name": "neededRole",
          "type": "bytes32"
        }
      ],
      "name": "AccessControlUnauthorizedAccount",
      "type": "error"
    },
    {
      "inputs": [
        {
          "internalType": "address",
          "name": "target",
          "type": "address"
        }
      ],
      "name": "AddressEmptyCode",
      "type": "error"
    },
    {
      "inputs": [
        {
          "internalType": "address",
          "name": "implementation",
          "type": "address"
        }
      ],
      "name": "ERC1967InvalidImplementation",
      "type": "error"
    },
    {
      "inputs": [],
      "name": "ERC1967NonPayable",
      "type": "error"
    },
    {
      "inputs": [],
      "name": "FailedCall",
      "type": "error"
    },
    {
      "inputs": [],
      "name": "GracePeriodNotOver",
      "type": "error"
    },
    {
      "inputs": [],
      "name": "InvalidInitialization",
      "type": "error"
    },
    {
      "inputs": [],
      "name": "InvalidPrice",
      "type": "error"
    },
    {
      "inputs": [],
      "name": "InvalidUpdateTimestamp",
      "type": "error"
    },
    {
      "inputs": [
        {
          "internalType": "address",
          "name": "tokenAddress",
          "type": "address"
        }
      ],
      "name": "NoPriceFeed",
      "type": "error"
    },
    {
      "inputs": [],
      "name": "NotInitializing",
      "type": "error"
    },
    {
      "inputs": [],
      "name": "PricesStale",
      "type": "error"
    },
    {
      "inputs": [],
      "name": "SequencerDownError",
      "type": "error"
    },
    {
      "inputs": [],
      "name": "UUPSUnauthorizedCallContext",
      "type": "error"
    },
    {
      "inputs": [
        {
          "internalType": "bytes32",
          "name": "slot",
          "type": "bytes32"
        }
      ],
      "name": "UUPSUnsupportedProxiableUUID",
      "type": "error"
    },
    {
      "inputs": [],
      "name": "ZeroPrice",
      "type": "error"
    },
    {
      "anonymous": false,
      "inputs": [
        {
          "indexed": false,
          "internalType": "uint64",
          "name": "version",
          "type": "uint64"
        }
      ],
      "name": "Initialized",
      "type": "event"
    },
    {
      "anonymous": false,
      "inputs": [
        {
          "indexed": true,
          "internalType": "bytes32",
          "name": "role",
          "type": "bytes32"
        },
        {
          "indexed": true,
          "internalType": "bytes32",
          "name": "previousAdminRole",
          "type": "bytes32"
        },
        {
          "indexed": true,
          "internalType": "bytes32",
          "name": "newAdminRole",
          "type": "bytes32"
        }
      ],
      "name": "RoleAdminChanged",
      "type": "event"
    },
    {
      "anonymous": false,
      "inputs": [
        {
          "indexed": true,
          "internalType": "bytes32",
          "name": "role",
          "type": "bytes32"
        },
        {
          "indexed": true,
          "internalType": "address",
          "name": "account",
          "type": "address"
        },
        {
          "indexed": true,
          "internalType": "address",
          "name": "sender",
          "type": "address"
        }
      ],
      "name": "RoleGranted",
      "type": "event"
    },
    {
      "anonymous": false,
      "inputs": [
        {
          "indexed": true,
          "internalType": "bytes32",
          "name": "role",
          "type": "bytes32"
        },
        {
          "indexed": true,
          "internalType": "address",
          "name": "account",
          "type": "address"
        },
        {
          "indexed": true,
          "internalType": "address",
          "name": "sender",
          "type": "address"
        }
      ],
      "name": "RoleRevoked",
      "type": "event"
    },
    {
      "anonymous": false,
      "inputs": [
        {
          "indexed": false,
          "internalType": "address",
          "name": "token",
          "type": "address"
        },
        {
          "indexed": false,
          "internalType": "address",
          "name": "tokenPriceAggregator",
          "type": "address"
        }
      ],
      "name": "SubscribeFallbackPriceFeed",
      "type": "event"
    },
    {
      "anonymous": false,
      "inputs": [
        {
          "indexed": false,
          "internalType": "address",
          "name": "token",
          "type": "address"
        },
        {
          "indexed": false,
          "internalType": "address",
          "name": "tokenPriceAggregator",
          "type": "address"
        }
      ],
      "name": "SubscribePriceFeed",
      "type": "event"
    },
    {
      "anonymous": false,
      "inputs": [
        {
          "indexed": false,
          "internalType": "address",
          "name": "token",
          "type": "address"
        }
      ],
      "name": "UnsubscribeFallbackPriceFeed",
      "type": "event"
    },
    {
      "anonymous": false,
      "inputs": [
        {
          "indexed": false,
          "internalType": "address",
          "name": "token",
          "type": "address"
        }
      ],
      "name": "UnsubscribePriceFeed",
      "type": "event"
    },
    {
      "anonymous": false,
      "inputs": [
        {
          "indexed": true,
          "internalType": "address",
          "name": "implementation",
          "type": "address"
        }
      ],
      "name": "Upgraded",
      "type": "event"
    },
    {
      "inputs": [],
      "name": "DEFAULT_ADMIN_ROLE",
      "outputs": [
        {
          "internalType": "bytes32",
          "name": "",
          "type": "bytes32"
        }
      ],
      "stateMutability": "view",
      "type": "function"
    },
    {
      "inputs": [],
      "name": "DEFAULT_MAX_DATA_TIMESTAMP_AHEAD_SECONDS",
      "outputs": [
        {
          "internalType": "uint256",
          "name": "",
          "type": "uint256"
        }
      ],
      "stateMutability": "view",
      "type": "function"
    },
    {
      "inputs": [],
      "name": "DEVOPS_ROLE",
      "outputs": [
        {
          "internalType": "bytes32",
          "name": "",
          "type": "bytes32"
        }
      ],
      "stateMutability": "view",
      "type": "function"
    },
    {
      "inputs": [],
      "name": "UPGRADE_INTERFACE_VERSION",
      "outputs": [
        {
          "internalType": "string",
          "name": "",
          "type": "string"
        }
      ],
      "stateMutability": "view",
      "type": "function"
    },
    {
      "inputs": [
        {
          "internalType": "address",
          "name": "token",
          "type": "address"
        },
        {
          "internalType": "address",
          "name": "tokenPriceAggregator",
          "type": "address"
        },
        {
          "internalType": "uint256",
          "name": "refreshRateThreshold",
          "type": "uint256"
        }
      ],
      "name": "addNewTokenFallbackPriceFeed",
      "outputs": [],
      "stateMutability": "nonpayable",
      "type": "function"
    },
    {
      "inputs": [
        {
          "internalType": "address",
          "name": "token",
          "type": "address"
        },
        {
          "internalType": "address",
          "name": "tokenPriceAggregator",
          "type": "address"
        },
        {
          "internalType": "uint256",
          "name": "refreshRateThreshold",
          "type": "uint256"
        }
      ],
      "name": "addNewTokenPriceFeed",
      "outputs": [],
      "stateMutability": "nonpayable",
      "type": "function"
    },
    {
      "inputs": [
        {
          "internalType": "address",
          "name": "token",
          "type": "address"
        },
        {
          "internalType": "address",
          "name": "tokenPriceAggregator",
          "type": "address"
        },
        {
          "internalType": "uint256",
          "name": "tokenPriceAggregatorRefreshRateThreshold",
          "type": "uint256"
        },
        {
          "internalType": "address",
          "name": "fallbackPriceAggregator",
          "type": "address"
        },
        {
          "internalType": "uint256",
          "name": "fallbackPriceAggregatorRefreshRateThreshold",
          "type": "uint256"
        }
      ],
      "name": "addNewTokenPriceFeedAndFallbackPriceFeed",
      "outputs": [],
      "stateMutability": "nonpayable",
      "type": "function"
    },
    {
      "inputs": [
        {
          "internalType": "address",
          "name": "token",
          "type": "address"
        }
      ],
      "name": "getFallbackPriceFeedConfig",
      "outputs": [
        {
          "internalType": "address",
          "name": "fallbackPriceFeed",
          "type": "address"
        },
        {
          "internalType": "uint256",
          "name": "refreshRateThreshold",
          "type": "uint256"
        }
      ],
      "stateMutability": "view",
      "type": "function"
    },
    {
      "inputs": [
        {
          "internalType": "address",
          "name": "token",
          "type": "address"
        }
      ],
      "name": "getPriceFeedConfig",
      "outputs": [
        {
          "internalType": "address",
          "name": "priceFeed",
          "type": "address"
        },
        {
          "internalType": "uint256",
          "name": "refreshRateThreshold",
          "type": "uint256"
        }
      ],
      "stateMutability": "view",
      "type": "function"
    },
    {
      "inputs": [
        {
          "internalType": "bytes32",
          "name": "role",
          "type": "bytes32"
        }
      ],
      "name": "getRoleAdmin",
      "outputs": [
        {
          "internalType": "bytes32",
          "name": "",
          "type": "bytes32"
        }
      ],
      "stateMutability": "view",
      "type": "function"
    },
    {
      "inputs": [
        {
          "internalType": "bytes32",
          "name": "role",
          "type": "bytes32"
        },
        {
          "internalType": "address",
          "name": "account",
          "type": "address"
        }
      ],
      "name": "grantRole",
      "outputs": [],
      "stateMutability": "nonpayable",
      "type": "function"
    },
    {
      "inputs": [
        {
          "internalType": "bytes32",
          "name": "role",
          "type": "bytes32"
        },
        {
          "internalType": "address",
          "name": "account",
          "type": "address"
        }
      ],
      "name": "hasRole",
      "outputs": [
        {
          "internalType": "bool",
          "name": "",
          "type": "bool"
        }
      ],
      "stateMutability": "view",
      "type": "function"
    },
    {
      "inputs": [
        {
          "internalType": "address",
          "name": "devopsWallet_",
          "type": "address"
        }
      ],
      "name": "initialize",
      "outputs": [],
      "stateMutability": "nonpayable",
      "type": "function"
    },
    {
      "inputs": [],
      "name": "proxiableUUID",
      "outputs": [
        {
          "internalType": "bytes32",
          "name": "",
          "type": "bytes32"
        }
      ],
      "stateMutability": "view",
      "type": "function"
    },
    {
      "inputs": [
        {
          "internalType": "address",
          "name": "token",
          "type": "address"
        }
      ],
      "name": "removeFallbackTokenPriceFeed",
      "outputs": [],
      "stateMutability": "nonpayable",
      "type": "function"
    },
    {
      "inputs": [
        {
          "internalType": "address",
          "name": "token",
          "type": "address"
        }
      ],
      "name": "removeTokenPriceFeed",
      "outputs": [],
      "stateMutability": "nonpayable",
      "type": "function"
    },
    {
      "inputs": [
        {
          "internalType": "bytes32",
          "name": "role",
          "type": "bytes32"
        },
        {
          "internalType": "address",
          "name": "callerConfirmation",
          "type": "address"
        }
      ],
      "name": "renounceRole",
      "outputs": [],
      "stateMutability": "nonpayable",
      "type": "function"
    },
    {
      "inputs": [
        {
          "internalType": "bytes32",
          "name": "role",
          "type": "bytes32"
        },
        {
          "internalType": "address",
          "name": "account",
          "type": "address"
        }
      ],
      "name": "revokeRole",
      "outputs": [],
      "stateMutability": "nonpayable",
      "type": "function"
    },
    {
      "inputs": [
        {
          "internalType": "bytes4",
          "name": "interfaceId",
          "type": "bytes4"
        }
      ],
      "name": "supportsInterface",
      "outputs": [
        {
          "internalType": "bool",
          "name": "",
          "type": "bool"
        }
      ],
      "stateMutability": "view",
      "type": "function"
    },
    {
      "inputs": [
        {
          "internalType": "address",
          "name": "upgradeAddress",
          "type": "address"
        }
      ],
      "name": "upgrade",
      "outputs": [],
      "stateMutability": "view",
      "type": "function"
    },
    {
      "inputs": [
        {
          "internalType": "address",
          "name": "newImplementation",
          "type": "address"
        },
        {
          "internalType": "bytes",
          "name": "data",
          "type": "bytes"
        }
      ],
      "name": "upgradeToAndCall",
      "outputs": [],
      "stateMutability": "payable",
      "type": "function"
    },
    {
      "inputs": [
        {
          "internalType": "address",
          "name": "token",
          "type": "address"
        },
        {
          "internalType": "uint256",
          "name": "amount",
          "type": "uint256"
        }
      ],
      "name": "usdValueOfTokens",
      "outputs": [
        {
          "components": [
            {
              "internalType": "uint256",
              "name": "mantissa",
              "type": "uint256"
            }
          ],
          "internalType": "struct ExponentialNoError.Exp",
          "name": "",
          "type": "tuple"
        }
      ],
      "stateMutability": "view",
      "type": "function"
    },
    {
      "inputs": [],
      "name": "version",
      "outputs": [
        {
          "internalType": "string",
          "name": "",
          "type": "string"
        }
      ],
      "stateMutability": "view",
      "type": "function"
    }
  ],
  "bytecode": "0x60a080604052346100cc57306080527ff0c57e16840df040f15088dc2f81fe391c3923bec73e23a9662efc9c229c6a009081549060ff8260401c166100bd57506001600160401b036002600160401b031982821601610078575b60405161172f90816100d2823960805181818161058701526106560152f35b6001600160401b031990911681179091556040519081527fc7f505b2f371ae2175ee4913f4499e1f2633a7b5936321eed1cdaeb6115181d290602090a1388080610059565b63f92ee8a960e01b8152600490fd5b600080fdfe608060408181526004918236101561001657600080fd5b600092833560e01c91826301ffc9a714610b1a575081630900f01014610af75781630f4f276c1461094a578163201a662514610921578163248a9ca3146108e95781632f2ff15d146108bf57816336568abe1461087957816338ff63bb1461081d5781634f1ef286146105d957816352d1902d1461057257816354fd4d501461052f57816391d14854146104db578163929ac838146104bb5781639a2a7b1b14610476578163a217fddf1461045b578163aa7a2cdc14610435578163ad3cb1cc146103f8578163c4d66de8146102db578163ce2ff6aa14610270578163d547741f1461021f57508063ea6466fa146101b5578063f34dcc9f1461019a5763fcf4a90a1461012257600080fd5b34610196576020366003190112610196576020916001600160a01b03916101929181908461014e610b6d565b1681528086522092600182519161016483610bcf565b855416948583520154948591015251928392836001600160a01b039091168152602081019190915260400190565b0390f35b5080fd5b503461019657816003193601126101965760209051603c8152f35b50346101965760203660031901126101965760207f1093a5da06a58f0fb15c9391f2457f36d022ac2f482a803bde212626f6744002916101f3610b6d565b6101fb61110a565b6001600160a01b03168085526001808452828620868155018590559051908152a180f35b9190503461026c578060031936011261026c5761026891356102636001610244610b88565b9383875260008051602061169a83398151915260205286200154611160565b611294565b5080f35b8280fd5b5050346101965760203660031901126101965760207ffbc2f2231449137043afaa28222f673d780c0e7449d25d2c98ea791db929204c916102af610b6d565b6102b761110a565b6001600160a01b03168085528483528185208581556001018590559051908152a180f35b90503461026c57602036600319011261026c576102f6610b6d565b6000805160206116da8339815191528054909281851c60ff16159291906001600160401b038216801590816103f0575b60011490816103e6575b1590816103dd575b506103cf57506001600160401b03198116600117845561036f9190836103b4575b506103626115a7565b61036a6115a7565b611193565b50610378578280f35b805460ff60401b1916905551600181527fc7f505b2f371ae2175ee4913f4499e1f2633a7b5936321eed1cdaeb6115181d290602090a138808280f35b6001600160481b0319166001600160401b0117845538610359565b855163f92ee8a960e01b8152fd5b90501538610338565b303b159150610330565b859150610326565b50503461019657816003193601126101965780516101929161041982610bcf565b60058252640352e302e360dc1b60208301525191829182610c28565b83346104585761045561044736610c71565b9161045061110a565b61147c565b80f35b80fd5b50503461019657816003193601126101965751908152602090f35b505034610196576020366003190112610196576020916001600160a01b0391610192918190846104a4610b6d565b168152600186522092600182519161016483610bcf565b8334610458576104556104cd36610c71565b916104d661110a565b611331565b90503461026c578160031936011261026c578160209360ff926104fc610b88565b9035825260008051602061169a83398151915286528282206001600160a01b039091168252855220549151911615158152f35b50503461019657816003193601126101965780516101929161055082610bcf565b600b82526a19195d995b1bdc1b595b9d60aa1b60208301525191829182610c28565b828434610458578060031936011261045857507f00000000000000000000000000000000000000000000000000000000000000006001600160a01b031630036105cc576020905160008051602061167a8339815191528152f35b5163703e46dd60e11b8152fd5b9180915060031936011261026c576105ef610b6d565b60249390919084356001600160401b0381116101965736602382011215610196578085013561061d81610c0d565b9461062a85519687610bea565b81865260209182870193368a8383010111610819578186928b8693018737880101526001600160a01b037f000000000000000000000000000000000000000000000000000000000000000081163081149081156107fd575b506107ed5761068f61110a565b81169585516352d1902d60e01b815283818a818b5afa8691816107ba575b506106c9575050505050505191634c9c8ce360e01b8352820152fd5b9088888894938c60008051602061167a833981519152918281036107a55750853b15610791575080546001600160a01b031916821790558451889392917fbc7cd75a20ee27fd9adebab32041f755214dbc6bffa90cc0225b39da2e5c2d3b8580a28251156107735750506102689582915190845af4913d15610769573d61075b61075282610c0d565b92519283610bea565b81528581943d92013e6115d6565b50606092506115d6565b95509550505050503461078557505080f35b63b398979f60e01b8152fd5b8651634c9c8ce360e01b8152808501849052fd5b8751632a87526960e21b815280860191909152fd5b9091508481813d83116107e6575b6107d28183610bea565b810103126107e2575190386106ad565b8680fd5b503d6107c8565b855163703e46dd60e11b81528890fd5b90508160008051602061167a8339815191525416141538610682565b8580fd5b83346104585760a036600319011261045857610837610b6d565b61083f610b88565b906064356001600160a01b03811681036108755761086c6104559361086261110a565b6044359084611331565b6084359161147c565b8380fd5b838334610196578060031936011261019657610893610b88565b90336001600160a01b038316036108b05750610268919235611294565b5163334bd91960e11b81528390fd5b9190503461026c578060031936011261026c5761026891356108e46001610244610b88565b61121f565b90503461026c57602036600319011261026c578160209360019235815260008051602061169a83398151915285522001549051908152f35b5050346101965781600319360112610196576020905160008051602061165a8339815191528152f35b828434610458578160031936011261045857610964610b6d565b60243582845161097381610b9e565b526001600160a01b038281168085526020859052858520549093911615610ae057918593916109a3602094610d5c565b94909287519687809263313ce56760e01b82525afa948515610ad6578395610aa5575b50670de0b6b3a76400009485820291808304871490151715610a9257906109ef6109f592610cbf565b90610ce6565b92855193610a0285610b9e565b845284820291808304861490151715610a7f57906109ef610a2292610cbf565b91845192610a2f84610b9e565b8352818551610a3d81610b9e565b5251915191828102928184041490151715610a6c5750602093500490818151610a6581610b9e565b5251908152f35b634e487b7160e01b815260118552602490fd5b634e487b7160e01b835260118752602483fd5b634e487b7160e01b845260118852602484fd5b610ac891955060203d602011610acf575b610ac08183610bea565b810190610ca6565b93876109c6565b503d610ab6565b86513d85823e3d90fd5b8451632a4f499d60e21b8152808701849052602490fd5b833461045857602036600319011261045857610b11610b6d565b5061045561110a565b84913461026c57602036600319011261026c573563ffffffff60e01b811680910361026c5760209250637965db0b60e01b8114908115610b5c575b5015158152f35b6301ffc9a760e01b14905083610b55565b600435906001600160a01b0382168203610b8357565b600080fd5b602435906001600160a01b0382168203610b8357565b602081019081106001600160401b03821117610bb957604052565b634e487b7160e01b600052604160045260246000fd5b604081019081106001600160401b03821117610bb957604052565b601f909101601f19168101906001600160401b03821190821017610bb957604052565b6001600160401b038111610bb957601f01601f191660200190565b6020808252825181830181905290939260005b828110610c5d57505060409293506000838284010152601f8019910116010190565b818101860151848201604001528501610c3b565b6060906003190112610b83576001600160a01b03906004358281168103610b8357916024359081168103610b83579060443590565b90816020910312610b83575160ff81168103610b835790565b60ff16604d8111610cd057600a0a90565b634e487b7160e01b600052601160045260246000fd5b8115610cf0570490565b634e487b7160e01b600052601260045260246000fd5b51906001600160501b0382168203610b8357565b908160a0910312610b8357610d2e81610d06565b91602082015191604081015191610d4c608060608401519301610d06565b90565b91908203918211610cd057565b6000916000918260018060a01b0380921680825260208281526040928484822054169484519586948592633fabe5a360e21b9283855260a097889160049b8c915afa93841561110057859086956110db575b50828652600191828852808a8820541695861580610ffb5715610dd957505050505050505050505050565b9187999b9e50809496989a9d509690929496139081610fd1575b81610f9f575b50610f65575050885192835286838b81875afa928315610f5b5785978694610f21575b5050848713610e3457885162bfc92160e01b81528a90fd5b603c4201804211610f0e57831115610e565788516364e76ef160e11b81528a90fd5b81859a9798999a52808652808a8620015415928315610f04575b8315610ee2575b505050600014610ed257829087519485809263313ce56760e01b82525afa958615610ec8575094610ea9575b50509190565b610ec0929450803d10610acf57610ac08183610bea565b913880610ea3565b51903d90823e3d90fd5b8651633ef9f21b60e01b81528490fd5b610eef9192935042610d4f565b91845280855288842001541015388080610e77565b4281119350610e70565b634e487b7160e01b865260118b52602486fd5b610f469398508091929450903d10610f54575b610f3e8183610bea565b810190610d1a565b509792505095913880610e1c565b503d610f34565b89513d87823e3d90fd5b93509798999650508492508352828252878320541687519485809263313ce56760e01b82525afa958615610ec8575094610ea95750509190565b42811191508115610fb2575b5038610df9565b610fbd915042610d4f565b848852878952838c89200154101538610fab565b9050603c4201804211610fe75781111590610df3565b50634e487b7160e01b885260118d52602488fd5b50955096989b50989b5091509280955087131560001461102457885162bfc92160e01b81528a90fd5b603c4201804211610f0e578211156110465788516364e76ef160e11b81528a90fd5b82859a9798999a52848652808a86200154159182156110d1575b82156110b0575b5050156110a057825281835286822054875163313ce56760e01b815294849286928391165afa958615610ec8575094610ea95750509190565b8751633ef9f21b60e01b81528590fd5b6110bc91925042610d4f565b90828552848652898520015410153880611067565b4281119250611060565b90506110f5919450873d8911610f5457610f3e8183610bea565b509592505038610dae565b88513d87823e3d90fd5b3360009081526000805160206116ba833981519152602052604090205460008051602061165a8339815191529060ff16156111425750565b6044906040519063e2517d3f60e01b82523360048301526024820152fd5b8060005260008051602061169a83398151915260205260406000203360005260205260ff60406000205416156111425750565b6001600160a01b031660008181526000805160206116ba833981519152602052604081205490919060008051602061165a8339815191529060008051602061169a8339815191529060ff16611219578184526020526040832082845260205260408320600160ff1982541617905560008051602061163a833981519152339380a4600190565b50505090565b9060009180835260008051602061169a83398151915280602052604084209260018060a01b03169283855260205260ff60408520541615600014611219578184526020526040832082845260205260408320600160ff1982541617905560008051602061163a833981519152339380a4600190565b9060009180835260008051602061169a83398151915280602052604084209260018060a01b03169283855260205260ff60408520541660001461121957818452602052604083208284526020526040832060ff1981541690557ff6391f5c32d9c69d2a47ea670b442974b53935d1edc7fd64eb21e047a839171b339380a4600190565b6001600160a01b0391821681529116602082015260400190565b6001600160a01b039392828516908115611425576040958651633fabe5a360e21b815260a081600481875afa801561141a5760009182916113f6575b5013156113e65791600187926113e1947f950d6b0fc92ec932fc49a6ea1af2dded2fac58d5464090ceece194b1f1e624f3989951936113ab85610bcf565b845260208401918252808716600052600060205284600020935116828060a01b0319845416178355519101555192839283611317565b0390a1565b865162bfc92160e01b8152600490fd5b61140f915060a03d60a011610f5457610f3e8183610bea565b50505090503861136d565b88513d6000823e3d90fd5b60405162461bcd60e51b815260206004820152602960248201527f5072696d61727920507269636520666565642063616e6e6f74206265207a65726044820152686f206164647265737360b81b6064820152608490fd5b6001600160a01b03939282851690811561154f576040958651633fabe5a360e21b815260a081600481875afa801561141a57600091829161152b575b5013156113e65791600187926113e1947f88f32712a5f54716ba83ac5415ed99ffccbcf735a00db9ff1607cc259f8bca08989951936114f685610bcf565b8452602084019182528087166000528260205284600020935116828060a01b0319845416178355519101555192839283611317565b611544915060a03d60a011610f5457610f3e8183610bea565b5050509050386114b8565b60405162461bcd60e51b815260206004820152602a60248201527f46616c6c6261636b20507269636520666565642063616e6e6f74206265207a65604482015269726f206164647265737360b01b6064820152608490fd5b60ff6000805160206116da8339815191525460401c16156115c457565b604051631afcd79f60e31b8152600490fd5b906115fd57508051156115eb57805190602001fd5b60405163d6bda27560e01b8152600490fd5b81511580611630575b61160e575090565b604051639996b31560e01b81526001600160a01b039091166004820152602490fd5b50803b1561160656fe2f8788117e7eff1d82e926ec794901d17c78024a50270940304540a733656f0d793a6c9b7e0a9549c74edc2f9ae0dc50903dfaa9a56fb0116b27a8c71de3e2c6360894a13ba1a3210667c828492db98dca3e2076cc3735a920a3ca505d382bbc02dd7bc7dec4dceedda775e58dd541e08a116c6c53815c0bd028192f7b6268000cfb002fcf8644f87ebf6cf6e31899c8d8e9f7c329b465b6e36989a958507e8bf0c57e16840df040f15088dc2f81fe391c3923bec73e23a9662efc9c229c6a00a26469706673582212204d3f1ebf894973148f123762f9bc868fda11d9e33ab640fb886d843624a1c44a64736f6c63430008160033",
  "linkReferences": {},
  "deployedLinkReferences": {}
}