{
  "_format": "hh-sol-artifact-1",
  "contractName": "TestTermPriceConsumerV3",
  "sourceName": "contracts/test/TestTermPriceConsumerV3.sol",
  "abi": [
    {
      "inputs": [
        {
          "internalType": "address",
          "name": "tokenAddress",
          "type": "address"
        }
      ],
      "name": "NoPriceFeed",
      "type": "error"
    },
    {
      "anonymous": false,
      "inputs": [
        {
          "indexed": false,
          "internalType": "address",
          "name": "previousAdmin",
          "type": "address"
        },
        {
          "indexed": false,
          "internalType": "address",
          "name": "newAdmin",
          "type": "address"
        }
      ],
      "name": "AdminChanged",
      "type": "event"
    },
    {
      "anonymous": false,
      "inputs": [
        {
          "indexed": true,
          "internalType": "address",
          "name": "beacon",
          "type": "address"
        }
      ],
      "name": "BeaconUpgraded",
      "type": "event"
    },
    {
      "anonymous": false,
      "inputs": [
        {
          "indexed": false,
          "internalType": "uint8",
          "name": "version",
          "type": "uint8"
        }
      ],
      "name": "Initialized",
      "type": "event"
    },
    {
      "anonymous": false,
      "inputs": [
        {
          "indexed": true,
          "internalType": "bytes32",
          "name": "role",
          "type": "bytes32"
        },
        {
          "indexed": true,
          "internalType": "bytes32",
          "name": "previousAdminRole",
          "type": "bytes32"
        },
        {
          "indexed": true,
          "internalType": "bytes32",
          "name": "newAdminRole",
          "type": "bytes32"
        }
      ],
      "name": "RoleAdminChanged",
      "type": "event"
    },
    {
      "anonymous": false,
      "inputs": [
        {
          "indexed": true,
          "internalType": "bytes32",
          "name": "role",
          "type": "bytes32"
        },
        {
          "indexed": true,
          "internalType": "address",
          "name": "account",
          "type": "address"
        },
        {
          "indexed": true,
          "internalType": "address",
          "name": "sender",
          "type": "address"
        }
      ],
      "name": "RoleGranted",
      "type": "event"
    },
    {
      "anonymous": false,
      "inputs": [
        {
          "indexed": true,
          "internalType": "bytes32",
          "name": "role",
          "type": "bytes32"
        },
        {
          "indexed": true,
          "internalType": "address",
          "name": "account",
          "type": "address"
        },
        {
          "indexed": true,
          "internalType": "address",
          "name": "sender",
          "type": "address"
        }
      ],
      "name": "RoleRevoked",
      "type": "event"
    },
    {
      "anonymous": false,
      "inputs": [
        {
          "indexed": false,
          "internalType": "address",
          "name": "token",
          "type": "address"
        },
        {
          "indexed": false,
          "internalType": "address",
          "name": "tokenPriceAggregator",
          "type": "address"
        }
      ],
      "name": "SubscribePriceFeed",
      "type": "event"
    },
    {
      "anonymous": false,
      "inputs": [
        {
          "indexed": false,
          "internalType": "address",
          "name": "token",
          "type": "address"
        }
      ],
      "name": "UnsubscribePriceFeed",
      "type": "event"
    },
    {
      "anonymous": false,
      "inputs": [
        {
          "indexed": true,
          "internalType": "address",
          "name": "implementation",
          "type": "address"
        }
      ],
      "name": "Upgraded",
      "type": "event"
    },
    {
      "inputs": [],
      "name": "DEFAULT_ADMIN_ROLE",
      "outputs": [
        {
          "internalType": "bytes32",
          "name": "",
          "type": "bytes32"
        }
      ],
      "stateMutability": "view",
      "type": "function"
    },
    {
      "inputs": [],
      "name": "DEVOPS_ROLE",
      "outputs": [
        {
          "internalType": "bytes32",
          "name": "",
          "type": "bytes32"
        }
      ],
      "stateMutability": "view",
      "type": "function"
    },
    {
      "inputs": [
        {
          "internalType": "address",
          "name": "token",
          "type": "address"
        },
        {
          "internalType": "address",
          "name": "tokenPriceAggregator",
          "type": "address"
        }
      ],
      "name": "addNewTokenPriceFeed",
      "outputs": [],
      "stateMutability": "nonpayable",
      "type": "function"
    },
    {
      "inputs": [
        {
          "internalType": "bytes32",
          "name": "role",
          "type": "bytes32"
        }
      ],
      "name": "getRoleAdmin",
      "outputs": [
        {
          "internalType": "bytes32",
          "name": "",
          "type": "bytes32"
        }
      ],
      "stateMutability": "view",
      "type": "function"
    },
    {
      "inputs": [
        {
          "internalType": "bytes32",
          "name": "role",
          "type": "bytes32"
        },
        {
          "internalType": "address",
          "name": "account",
          "type": "address"
        }
      ],
      "name": "grantRole",
      "outputs": [],
      "stateMutability": "nonpayable",
      "type": "function"
    },
    {
      "inputs": [
        {
          "internalType": "bytes32",
          "name": "role",
          "type": "bytes32"
        },
        {
          "internalType": "address",
          "name": "account",
          "type": "address"
        }
      ],
      "name": "hasRole",
      "outputs": [
        {
          "internalType": "bool",
          "name": "",
          "type": "bool"
        }
      ],
      "stateMutability": "view",
      "type": "function"
    },
    {
      "inputs": [
        {
          "internalType": "address",
          "name": "devopsWallet_",
          "type": "address"
        }
      ],
      "name": "initialize",
      "outputs": [],
      "stateMutability": "nonpayable",
      "type": "function"
    },
    {
      "inputs": [],
      "name": "proxiableUUID",
      "outputs": [
        {
          "internalType": "bytes32",
          "name": "",
          "type": "bytes32"
        }
      ],
      "stateMutability": "view",
      "type": "function"
    },
    {
      "inputs": [
        {
          "internalType": "address",
          "name": "token",
          "type": "address"
        }
      ],
      "name": "removeTokenPriceFeed",
      "outputs": [],
      "stateMutability": "nonpayable",
      "type": "function"
    },
    {
      "inputs": [
        {
          "internalType": "bytes32",
          "name": "role",
          "type": "bytes32"
        },
        {
          "internalType": "address",
          "name": "account",
          "type": "address"
        }
      ],
      "name": "renounceRole",
      "outputs": [],
      "stateMutability": "nonpayable",
      "type": "function"
    },
    {
      "inputs": [
        {
          "internalType": "bytes32",
          "name": "role",
          "type": "bytes32"
        },
        {
          "internalType": "address",
          "name": "account",
          "type": "address"
        }
      ],
      "name": "revokeRole",
      "outputs": [],
      "stateMutability": "nonpayable",
      "type": "function"
    },
    {
      "inputs": [
        {
          "internalType": "bytes4",
          "name": "interfaceId",
          "type": "bytes4"
        }
      ],
      "name": "supportsInterface",
      "outputs": [
        {
          "internalType": "bool",
          "name": "",
          "type": "bool"
        }
      ],
      "stateMutability": "view",
      "type": "function"
    },
    {
      "inputs": [
        {
          "internalType": "address",
          "name": "upgradeAddress",
          "type": "address"
        }
      ],
      "name": "upgrade",
      "outputs": [],
      "stateMutability": "view",
      "type": "function"
    },
    {
      "inputs": [
        {
          "internalType": "address",
          "name": "newImplementation",
          "type": "address"
        }
      ],
      "name": "upgradeTo",
      "outputs": [],
      "stateMutability": "nonpayable",
      "type": "function"
    },
    {
      "inputs": [
        {
          "internalType": "address",
          "name": "newImplementation",
          "type": "address"
        },
        {
          "internalType": "bytes",
          "name": "data",
          "type": "bytes"
        }
      ],
      "name": "upgradeToAndCall",
      "outputs": [],
      "stateMutability": "payable",
      "type": "function"
    },
    {
      "inputs": [
        {
          "internalType": "address",
          "name": "token",
          "type": "address"
        },
        {
          "internalType": "uint256",
          "name": "amount",
          "type": "uint256"
        }
      ],
      "name": "usdValueOfTokens",
      "outputs": [
        {
          "components": [
            {
              "internalType": "uint256",
              "name": "mantissa",
              "type": "uint256"
            }
          ],
          "internalType": "struct ExponentialNoError.Exp",
          "name": "",
          "type": "tuple"
        }
      ],
      "stateMutability": "view",
      "type": "function"
    },
    {
      "inputs": [],
      "name": "version",
      "outputs": [
        {
          "internalType": "string",
          "name": "",
          "type": "string"
        }
      ],
      "stateMutability": "view",
      "type": "function"
    }
  ],
  "bytecode": "0x60a06040523060805234801561001457600080fd5b5061001d610022565b6100e1565b600054610100900460ff161561008e5760405162461bcd60e51b815260206004820152602760248201527f496e697469616c697a61626c653a20636f6e747261637420697320696e697469604482015266616c697a696e6760c81b606482015260840160405180910390fd5b60005460ff908116146100df576000805460ff191660ff9081179091556040519081527f7f26b83ff96e1f2b6a682f133852f6798a09c465da95921460cefb38474024989060200160405180910390a15b565b6080516119076101186000396000818161058a015281816105ca015281816106d301528181610713015261078b01526119076000f3fe6080604052600436106100de5760003560e01c80634d8d5999116100855780634d8d5999146102295780634f1ef2861461024957806352d1902d1461025c57806354fd4d501461027157806391d14854146102ab578063a217fddf146102cb578063c4d66de8146102e0578063ce2ff6aa14610300578063d547741f1461032057600080fd5b806301ffc9a7146100e35780630900f010146101185780630f4f276c1461013a578063201a662514610169578063248a9ca3146101995780632f2ff15d146101c957806336568abe146101e95780633659cfe614610209575b600080fd5b3480156100ef57600080fd5b506101036100fe3660046112e2565b610340565b60405190151581526020015b60405180910390f35b34801561012457600080fd5b50610138610133366004611328565b610377565b005b34801561014657600080fd5b5061015a610155366004611343565b610383565b6040519051815260200161010f565b34801561017557600080fd5b5061018b60008051602061186b83398151915281565b60405190815260200161010f565b3480156101a557600080fd5b5061018b6101b436600461136d565b600090815260c9602052604090206001015490565b3480156101d557600080fd5b506101386101e4366004611386565b6104d8565b3480156101f557600080fd5b50610138610204366004611386565b610502565b34801561021557600080fd5b50610138610224366004611328565b610580565b34801561023557600080fd5b506101386102443660046113b2565b610645565b6101386102573660046113f2565b6106c9565b34801561026857600080fd5b5061018b61077e565b34801561027d57600080fd5b50604080518082018252600b81526a19195d995b1bdc1b595b9d60aa1b6020820152905161010f91906114d8565b3480156102b757600080fd5b506101036102c6366004611386565b61082c565b3480156102d757600080fd5b5061018b600081565b3480156102ec57600080fd5b506101386102fb366004611328565b610857565b34801561030c57600080fd5b5061013861031b366004611328565b610990565b34801561032c57600080fd5b5061013861033b366004611386565b6109fe565b60006001600160e01b03198216637965db0b60e01b148061037157506301ffc9a760e01b6001600160e01b03198316145b92915050565b61038081610a23565b50565b6040805160208101909152600081526001600160a01b03838116600090815260fb6020526040902054166103d55782604051632a4f499d60e21b81526004016103cc919061150b565b60405180910390fd5b60006103e084610a3b565b905060006103ed85610ac5565b905060008590506000816001600160a01b031663313ce5676040518163ffffffff1660e01b8152600401602060405180830381865afa158015610434573d6000803e3d6000fd5b505050506040513d601f19601f82011682018060405250810190610458919061151f565b90506104cd604051806020016040528083600a610475919061163c565b610487670de0b6b3a76400008b61164b565b6104919190611662565b90526040805160208101909152806104aa87600a61163c565b6104bc670de0b6b3a76400008a61164b565b6104c69190611662565b9052610b40565b979650505050505050565b600082815260c960205260409020600101546104f381610b88565b6104fd8383610b92565b505050565b6001600160a01b03811633146105725760405162461bcd60e51b815260206004820152602f60248201527f416363657373436f6e74726f6c3a2063616e206f6e6c792072656e6f756e636560448201526e103937b632b9903337b91039b2b63360891b60648201526084016103cc565b61057c8282610c18565b5050565b6001600160a01b037f00000000000000000000000000000000000000000000000000000000000000001630036105c85760405162461bcd60e51b81526004016103cc90611684565b7f00000000000000000000000000000000000000000000000000000000000000006001600160a01b03166105fa610c7f565b6001600160a01b0316146106205760405162461bcd60e51b81526004016103cc906116d0565b61062981610a23565b6040805160008082526020820190925261038091839190610c9b565b60008051602061186b83398151915261065d81610b88565b6001600160a01b03838116600081815260fb602090815260409182902080546001600160a01b031916948716948517905581519283528201929092527f950d6b0fc92ec932fc49a6ea1af2dded2fac58d5464090ceece194b1f1e624f3910160405180910390a1505050565b6001600160a01b037f00000000000000000000000000000000000000000000000000000000000000001630036107115760405162461bcd60e51b81526004016103cc90611684565b7f00000000000000000000000000000000000000000000000000000000000000006001600160a01b0316610743610c7f565b6001600160a01b0316146107695760405162461bcd60e51b81526004016103cc906116d0565b61077282610a23565b61057c82826001610c9b565b6000306001600160a01b037f000000000000000000000000000000000000000000000000000000000000000016146108195760405162461bcd60e51b815260206004820152603860248201527f555550535570677261646561626c653a206d757374206e6f742062652063616c6044820152771b1959081d1a1c9bdd59da0819195b1959d85d1958d85b1b60421b60648201526084016103cc565b5060008051602061188b83398151915290565b600091825260c9602090815260408084206001600160a01b0393909316845291905290205460ff1690565b600054610100900460ff16158080156108775750600054600160ff909116105b80610898575061088630610e06565b158015610898575060005460ff166001145b6108fb5760405162461bcd60e51b815260206004820152602e60248201527f496e697469616c697a61626c653a20636f6e747261637420697320616c72656160448201526d191e481a5b9a5d1a585b1a5e995960921b60648201526084016103cc565b6000805460ff19166001179055801561091e576000805461ff0019166101001790555b610926610e15565b61092e610e15565b61094660008051602061186b83398151915283610b92565b801561057c576000805461ff0019169055604051600181527f7f26b83ff96e1f2b6a682f133852f6798a09c465da95921460cefb3847402498906020015b60405180910390a15050565b60008051602061186b8339815191526109a881610b88565b6001600160a01b038216600090815260fb60205260409081902080546001600160a01b0319169055517ffbc2f2231449137043afaa28222f673d780c0e7449d25d2c98ea791db929204c9061098490849061150b565b600082815260c96020526040902060010154610a1981610b88565b6104fd8383610c18565b60008051602061186b83398151915261057c81610b88565b6001600160a01b03808216600090815260fb6020526040808220548151633fabe5a360e21b815291519293849391169163feaf968c9160048083019260a09291908290030181865afa158015610a95573d6000803e3d6000fd5b505050506040513d601f19601f82011682018060405250810190610ab99190611736565b50919695505050505050565b6001600160a01b03808216600090815260fb6020908152604080832054815163313ce56760e01b815291519394169263313ce567926004808401939192918290030181865afa158015610b1c573d6000803e3d6000fd5b505050506040513d601f19601f82011682018060405250810190610371919061151f565b6040805160208101909152600081526040518060200160405280670de0b6b3a7640000610b7586600001518660000151610e82565b610b7f9190611662565b90529392505050565b6103808133610e95565b610b9c828261082c565b61057c57600082815260c9602090815260408083206001600160a01b03851684529091529020805460ff19166001179055610bd43390565b6001600160a01b0316816001600160a01b0316837f2f8788117e7eff1d82e926ec794901d17c78024a50270940304540a733656f0d60405160405180910390a45050565b610c22828261082c565b1561057c57600082815260c9602090815260408083206001600160a01b0385168085529252808320805460ff1916905551339285917ff6391f5c32d9c69d2a47ea670b442974b53935d1edc7fd64eb21e047a839171b9190a45050565b60008051602061188b833981519152546001600160a01b031690565b7f4910fdfa16fed3260ed0e7147f7cc6da11a60208b5b9406d12a635614ffd91435460ff1615610cce576104fd83610eee565b826001600160a01b03166352d1902d6040518163ffffffff1660e01b8152600401602060405180830381865afa925050508015610d28575060408051601f3d908101601f19168201909252610d2591810190611786565b60015b610d8b5760405162461bcd60e51b815260206004820152602e60248201527f45524331393637557067726164653a206e657720696d706c656d656e7461746960448201526d6f6e206973206e6f74205555505360901b60648201526084016103cc565b60008051602061188b8339815191528114610dfa5760405162461bcd60e51b815260206004820152602960248201527f45524331393637557067726164653a20756e737570706f727465642070726f786044820152681a58589b195555525160ba1b60648201526084016103cc565b506104fd838383610f88565b6001600160a01b03163b151590565b600054610100900460ff16610e805760405162461bcd60e51b815260206004820152602b60248201527f496e697469616c697a61626c653a20636f6e7472616374206973206e6f74206960448201526a6e697469616c697a696e6760a81b60648201526084016103cc565b565b6000610e8e828461164b565b9392505050565b610e9f828261082c565b61057c57610eac81610fb3565b610eb7836020610fc5565b604051602001610ec892919061179f565b60408051601f198184030181529082905262461bcd60e51b82526103cc916004016114d8565b610ef781610e06565b610f595760405162461bcd60e51b815260206004820152602d60248201527f455243313936373a206e657720696d706c656d656e746174696f6e206973206e60448201526c1bdd08184818dbdb9d1c9858dd609a1b60648201526084016103cc565b60008051602061188b83398151915280546001600160a01b0319166001600160a01b0392909216919091179055565b610f9183611161565b600082511180610f9e5750805b156104fd57610fad83836111a1565b50505050565b60606103716001600160a01b03831660145b60606000610fd483600261164b565b610fdf90600261180e565b67ffffffffffffffff811115610ff757610ff76113dc565b6040519080825280601f01601f191660200182016040528015611021576020820181803683370190505b509050600360fc1b8160008151811061103c5761103c611821565b60200101906001600160f81b031916908160001a905350600f60fb1b8160018151811061106b5761106b611821565b60200101906001600160f81b031916908160001a905350600061108f84600261164b565b61109a90600161180e565b90505b6001811115611112576f181899199a1a9b1b9c1cb0b131b232b360811b85600f16601081106110ce576110ce611821565b1a60f81b8282815181106110e4576110e4611821565b60200101906001600160f81b031916908160001a90535060049490941c9361110b81611837565b905061109d565b508315610e8e5760405162461bcd60e51b815260206004820181905260248201527f537472696e67733a20686578206c656e67746820696e73756666696369656e7460448201526064016103cc565b61116a81610eee565b6040516001600160a01b038216907fbc7cd75a20ee27fd9adebab32041f755214dbc6bffa90cc0225b39da2e5c2d3b90600090a250565b6060610e8e83836040518060600160405280602781526020016118ab602791396060600080856001600160a01b0316856040516111de919061184e565b600060405180830381855af49150503d8060008114611219576040519150601f19603f3d011682016040523d82523d6000602084013e61121e565b606091505b509150915061122f86838387611239565b9695505050505050565b606083156112a657825160000361129f5761125385610e06565b61129f5760405162461bcd60e51b815260206004820152601d60248201527f416464726573733a2063616c6c20746f206e6f6e2d636f6e747261637400000060448201526064016103cc565b50816112b0565b6112b083836112b8565b949350505050565b8151156112c85781518083602001fd5b8060405162461bcd60e51b81526004016103cc91906114d8565b6000602082840312156112f457600080fd5b81356001600160e01b031981168114610e8e57600080fd5b80356001600160a01b038116811461132357600080fd5b919050565b60006020828403121561133a57600080fd5b610e8e8261130c565b6000806040838503121561135657600080fd5b61135f8361130c565b946020939093013593505050565b60006020828403121561137f57600080fd5b5035919050565b6000806040838503121561139957600080fd5b823591506113a96020840161130c565b90509250929050565b600080604083850312156113c557600080fd5b6113ce8361130c565b91506113a96020840161130c565b634e487b7160e01b600052604160045260246000fd5b6000806040838503121561140557600080fd5b61140e8361130c565b9150602083013567ffffffffffffffff8082111561142b57600080fd5b818501915085601f83011261143f57600080fd5b813581811115611451576114516113dc565b604051601f8201601f19908116603f01168101908382118183101715611479576114796113dc565b8160405282815288602084870101111561149257600080fd5b8260208601602083013760006020848301015280955050505050509250929050565b60005b838110156114cf5781810151838201526020016114b7565b50506000910152565b60208152600082518060208401526114f78160408501602087016114b4565b601f01601f19169190910160400192915050565b6001600160a01b0391909116815260200190565b60006020828403121561153157600080fd5b815160ff81168114610e8e57600080fd5b634e487b7160e01b600052601160045260246000fd5b600181815b8085111561159357816000190482111561157957611579611542565b8085161561158657918102915b93841c939080029061155d565b509250929050565b6000826115aa57506001610371565b816115b757506000610371565b81600181146115cd57600281146115d7576115f3565b6001915050610371565b60ff8411156115e8576115e8611542565b50506001821b610371565b5060208310610133831016604e8410600b8410161715611616575081810a610371565b6116208383611558565b806000190482111561163457611634611542565b029392505050565b6000610e8e60ff84168361159b565b808202811582820484141761037157610371611542565b60008261167f57634e487b7160e01b600052601260045260246000fd5b500490565b6020808252602c908201527f46756e6374696f6e206d7573742062652063616c6c6564207468726f7567682060408201526b19195b1959d85d1958d85b1b60a21b606082015260800190565b6020808252602c908201527f46756e6374696f6e206d7573742062652063616c6c6564207468726f7567682060408201526b6163746976652070726f787960a01b606082015260800190565b805169ffffffffffffffffffff8116811461132357600080fd5b600080600080600060a0868803121561174e57600080fd5b6117578661171c565b945060208601519350604086015192506060860151915061177a6080870161171c565b90509295509295909350565b60006020828403121561179857600080fd5b5051919050565b76020b1b1b2b9b9a1b7b73a3937b61d1030b1b1b7bab73a1604d1b8152600083516117d18160178501602088016114b4565b7001034b99036b4b9b9b4b733903937b6329607d1b60179184019182015283516118028160288401602088016114b4565b01602801949350505050565b8082018082111561037157610371611542565b634e487b7160e01b600052603260045260246000fd5b60008161184657611846611542565b506000190190565b600082516118608184602087016114b4565b919091019291505056fe793a6c9b7e0a9549c74edc2f9ae0dc50903dfaa9a56fb0116b27a8c71de3e2c6360894a13ba1a3210667c828492db98dca3e2076cc3735a920a3ca505d382bbc416464726573733a206c6f772d6c6576656c2064656c65676174652063616c6c206661696c6564a2646970667358221220ea033c0b9ae7ad94c4d9e38fd0e91d122d1ad33ae003d98fd15a699dc0872e3564736f6c63430008120033",
  "linkReferences": {},
  "deployedLinkReferences": {}
}