{
  "_format": "hh-sol-artifact-1",
  "contractName": "TestTermPriceConsumerV3",
  "sourceName": "contracts/test/TestTermPriceConsumerV3.sol",
  "abi": [
    {
      "inputs": [],
      "name": "GracePeriodNotOver",
      "type": "error"
    },
    {
      "inputs": [],
      "name": "InvalidPrice",
      "type": "error"
    },
    {
      "inputs": [
        {
          "internalType": "address",
          "name": "tokenAddress",
          "type": "address"
        }
      ],
      "name": "NoPriceFeed",
      "type": "error"
    },
    {
      "inputs": [],
      "name": "PricesStale",
      "type": "error"
    },
    {
      "inputs": [],
      "name": "SequencerDownError",
      "type": "error"
    },
    {
      "inputs": [],
      "name": "ZeroPrice",
      "type": "error"
    },
    {
      "anonymous": false,
      "inputs": [
        {
          "indexed": false,
          "internalType": "address",
          "name": "previousAdmin",
          "type": "address"
        },
        {
          "indexed": false,
          "internalType": "address",
          "name": "newAdmin",
          "type": "address"
        }
      ],
      "name": "AdminChanged",
      "type": "event"
    },
    {
      "anonymous": false,
      "inputs": [
        {
          "indexed": true,
          "internalType": "address",
          "name": "beacon",
          "type": "address"
        }
      ],
      "name": "BeaconUpgraded",
      "type": "event"
    },
    {
      "anonymous": false,
      "inputs": [
        {
          "indexed": false,
          "internalType": "uint8",
          "name": "version",
          "type": "uint8"
        }
      ],
      "name": "Initialized",
      "type": "event"
    },
    {
      "anonymous": false,
      "inputs": [
        {
          "indexed": true,
          "internalType": "bytes32",
          "name": "role",
          "type": "bytes32"
        },
        {
          "indexed": true,
          "internalType": "bytes32",
          "name": "previousAdminRole",
          "type": "bytes32"
        },
        {
          "indexed": true,
          "internalType": "bytes32",
          "name": "newAdminRole",
          "type": "bytes32"
        }
      ],
      "name": "RoleAdminChanged",
      "type": "event"
    },
    {
      "anonymous": false,
      "inputs": [
        {
          "indexed": true,
          "internalType": "bytes32",
          "name": "role",
          "type": "bytes32"
        },
        {
          "indexed": true,
          "internalType": "address",
          "name": "account",
          "type": "address"
        },
        {
          "indexed": true,
          "internalType": "address",
          "name": "sender",
          "type": "address"
        }
      ],
      "name": "RoleGranted",
      "type": "event"
    },
    {
      "anonymous": false,
      "inputs": [
        {
          "indexed": true,
          "internalType": "bytes32",
          "name": "role",
          "type": "bytes32"
        },
        {
          "indexed": true,
          "internalType": "address",
          "name": "account",
          "type": "address"
        },
        {
          "indexed": true,
          "internalType": "address",
          "name": "sender",
          "type": "address"
        }
      ],
      "name": "RoleRevoked",
      "type": "event"
    },
    {
      "anonymous": false,
      "inputs": [
        {
          "indexed": false,
          "internalType": "address",
          "name": "token",
          "type": "address"
        },
        {
          "indexed": false,
          "internalType": "address",
          "name": "tokenPriceAggregator",
          "type": "address"
        }
      ],
      "name": "SubscribeFallbackPriceFeed",
      "type": "event"
    },
    {
      "anonymous": false,
      "inputs": [
        {
          "indexed": false,
          "internalType": "address",
          "name": "token",
          "type": "address"
        },
        {
          "indexed": false,
          "internalType": "address",
          "name": "tokenPriceAggregator",
          "type": "address"
        }
      ],
      "name": "SubscribePriceFeed",
      "type": "event"
    },
    {
      "anonymous": false,
      "inputs": [
        {
          "indexed": false,
          "internalType": "address",
          "name": "token",
          "type": "address"
        }
      ],
      "name": "UnsubscribeFallbackPriceFeed",
      "type": "event"
    },
    {
      "anonymous": false,
      "inputs": [
        {
          "indexed": false,
          "internalType": "address",
          "name": "token",
          "type": "address"
        }
      ],
      "name": "UnsubscribePriceFeed",
      "type": "event"
    },
    {
      "anonymous": false,
      "inputs": [
        {
          "indexed": true,
          "internalType": "address",
          "name": "implementation",
          "type": "address"
        }
      ],
      "name": "Upgraded",
      "type": "event"
    },
    {
      "inputs": [],
      "name": "DEFAULT_ADMIN_ROLE",
      "outputs": [
        {
          "internalType": "bytes32",
          "name": "",
          "type": "bytes32"
        }
      ],
      "stateMutability": "view",
      "type": "function"
    },
    {
      "inputs": [],
      "name": "DEVOPS_ROLE",
      "outputs": [
        {
          "internalType": "bytes32",
          "name": "",
          "type": "bytes32"
        }
      ],
      "stateMutability": "view",
      "type": "function"
    },
    {
      "inputs": [
        {
          "internalType": "address",
          "name": "token",
          "type": "address"
        },
        {
          "internalType": "address",
          "name": "tokenPriceAggregator",
          "type": "address"
        },
        {
          "internalType": "uint256",
          "name": "refreshRateThreshold",
          "type": "uint256"
        }
      ],
      "name": "addNewTokenFallbackPriceFeed",
      "outputs": [],
      "stateMutability": "nonpayable",
      "type": "function"
    },
    {
      "inputs": [
        {
          "internalType": "address",
          "name": "token",
          "type": "address"
        },
        {
          "internalType": "address",
          "name": "tokenPriceAggregator",
          "type": "address"
        },
        {
          "internalType": "uint256",
          "name": "refreshRateThreshold",
          "type": "uint256"
        }
      ],
      "name": "addNewTokenPriceFeed",
      "outputs": [],
      "stateMutability": "nonpayable",
      "type": "function"
    },
    {
      "inputs": [
        {
          "internalType": "address",
          "name": "token",
          "type": "address"
        },
        {
          "internalType": "address",
          "name": "tokenPriceAggregator",
          "type": "address"
        },
        {
          "internalType": "uint256",
          "name": "tokenPriceAggregatorRefreshRateThreshold",
          "type": "uint256"
        },
        {
          "internalType": "address",
          "name": "fallbackPriceAggregator",
          "type": "address"
        },
        {
          "internalType": "uint256",
          "name": "fallbackPriceAggregatorRefreshRateThreshold",
          "type": "uint256"
        }
      ],
      "name": "addNewTokenPriceFeedAndFallbackPriceFeed",
      "outputs": [],
      "stateMutability": "nonpayable",
      "type": "function"
    },
    {
      "inputs": [
        {
          "internalType": "bytes32",
          "name": "role",
          "type": "bytes32"
        }
      ],
      "name": "getRoleAdmin",
      "outputs": [
        {
          "internalType": "bytes32",
          "name": "",
          "type": "bytes32"
        }
      ],
      "stateMutability": "view",
      "type": "function"
    },
    {
      "inputs": [
        {
          "internalType": "bytes32",
          "name": "role",
          "type": "bytes32"
        },
        {
          "internalType": "address",
          "name": "account",
          "type": "address"
        }
      ],
      "name": "grantRole",
      "outputs": [],
      "stateMutability": "nonpayable",
      "type": "function"
    },
    {
      "inputs": [
        {
          "internalType": "bytes32",
          "name": "role",
          "type": "bytes32"
        },
        {
          "internalType": "address",
          "name": "account",
          "type": "address"
        }
      ],
      "name": "hasRole",
      "outputs": [
        {
          "internalType": "bool",
          "name": "",
          "type": "bool"
        }
      ],
      "stateMutability": "view",
      "type": "function"
    },
    {
      "inputs": [
        {
          "internalType": "address",
          "name": "devopsWallet_",
          "type": "address"
        }
      ],
      "name": "initialize",
      "outputs": [],
      "stateMutability": "nonpayable",
      "type": "function"
    },
    {
      "inputs": [],
      "name": "proxiableUUID",
      "outputs": [
        {
          "internalType": "bytes32",
          "name": "",
          "type": "bytes32"
        }
      ],
      "stateMutability": "view",
      "type": "function"
    },
    {
      "inputs": [
        {
          "internalType": "address",
          "name": "token",
          "type": "address"
        }
      ],
      "name": "removeFallbackTokenPriceFeed",
      "outputs": [],
      "stateMutability": "nonpayable",
      "type": "function"
    },
    {
      "inputs": [
        {
          "internalType": "address",
          "name": "token",
          "type": "address"
        }
      ],
      "name": "removeTokenPriceFeed",
      "outputs": [],
      "stateMutability": "nonpayable",
      "type": "function"
    },
    {
      "inputs": [
        {
          "internalType": "bytes32",
          "name": "role",
          "type": "bytes32"
        },
        {
          "internalType": "address",
          "name": "account",
          "type": "address"
        }
      ],
      "name": "renounceRole",
      "outputs": [],
      "stateMutability": "nonpayable",
      "type": "function"
    },
    {
      "inputs": [
        {
          "internalType": "bytes32",
          "name": "role",
          "type": "bytes32"
        },
        {
          "internalType": "address",
          "name": "account",
          "type": "address"
        }
      ],
      "name": "revokeRole",
      "outputs": [],
      "stateMutability": "nonpayable",
      "type": "function"
    },
    {
      "inputs": [
        {
          "internalType": "bytes4",
          "name": "interfaceId",
          "type": "bytes4"
        }
      ],
      "name": "supportsInterface",
      "outputs": [
        {
          "internalType": "bool",
          "name": "",
          "type": "bool"
        }
      ],
      "stateMutability": "view",
      "type": "function"
    },
    {
      "inputs": [
        {
          "internalType": "address",
          "name": "upgradeAddress",
          "type": "address"
        }
      ],
      "name": "upgrade",
      "outputs": [],
      "stateMutability": "view",
      "type": "function"
    },
    {
      "inputs": [
        {
          "internalType": "address",
          "name": "newImplementation",
          "type": "address"
        }
      ],
      "name": "upgradeTo",
      "outputs": [],
      "stateMutability": "nonpayable",
      "type": "function"
    },
    {
      "inputs": [
        {
          "internalType": "address",
          "name": "newImplementation",
          "type": "address"
        },
        {
          "internalType": "bytes",
          "name": "data",
          "type": "bytes"
        }
      ],
      "name": "upgradeToAndCall",
      "outputs": [],
      "stateMutability": "payable",
      "type": "function"
    },
    {
      "inputs": [
        {
          "internalType": "address",
          "name": "token",
          "type": "address"
        },
        {
          "internalType": "uint256",
          "name": "amount",
          "type": "uint256"
        }
      ],
      "name": "usdValueOfTokens",
      "outputs": [
        {
          "components": [
            {
              "internalType": "uint256",
              "name": "mantissa",
              "type": "uint256"
            }
          ],
          "internalType": "struct ExponentialNoError.Exp",
          "name": "",
          "type": "tuple"
        }
      ],
      "stateMutability": "view",
      "type": "function"
    },
    {
      "inputs": [],
      "name": "version",
      "outputs": [
        {
          "internalType": "string",
          "name": "",
          "type": "string"
        }
      ],
      "stateMutability": "view",
      "type": "function"
    }
  ],
  "bytecode": "0x60a06040523060805234801561001457600080fd5b5061001d610022565b6100e1565b600054610100900460ff161561008e5760405162461bcd60e51b815260206004820152602760248201527f496e697469616c697a61626c653a20636f6e747261637420697320696e697469604482015266616c697a696e6760c81b606482015260840160405180910390fd5b60005460ff908116146100df576000805460ff191660ff9081179091556040519081527f7f26b83ff96e1f2b6a682f133852f6798a09c465da95921460cefb38474024989060200160405180910390a15b565b6080516120446101186000396000818161060b0152818161064b015281816107060152818161074601526107be01526120446000f3fe6080604052600436106100ff5760003560e01c806352d1902d1161009057806352d1902d1461027d57806354fd4d501461029257806391d14854146102cc578063929ac838146102ec578063a217fddf1461030c578063aa7a2cdc14610321578063c4d66de814610341578063ce2ff6aa14610361578063d547741f14610381578063ea6466fa146103a157600080fd5b806301ffc9a7146101045780630900f010146101395780630f4f276c1461015b578063201a66251461018a578063248a9ca3146101ba5780632f2ff15d146101ea57806336568abe1461020a5780633659cfe61461022a57806338ff63bb1461024a5780634f1ef2861461026a575b600080fd5b34801561011057600080fd5b5061012461011f36600461198b565b6103c1565b60405190151581526020015b60405180910390f35b34801561014557600080fd5b506101596101543660046119d1565b6103f8565b005b34801561016757600080fd5b5061017b6101763660046119ec565b610404565b60405190518152602001610130565b34801561019657600080fd5b506101ac600080516020611fa883398151915281565b604051908152602001610130565b3480156101c657600080fd5b506101ac6101d5366004611a16565b600090815260c9602052604090206001015490565b3480156101f657600080fd5b50610159610205366004611a2f565b610559565b34801561021657600080fd5b50610159610225366004611a2f565b610583565b34801561023657600080fd5b506101596102453660046119d1565b610601565b34801561025657600080fd5b50610159610265366004611a5b565b6106c6565b610159610278366004611ac6565b6106fc565b34801561028957600080fd5b506101ac6107b1565b34801561029e57600080fd5b50604080518082018252600b81526a19195d995b1bdc1b595b9d60aa1b602082015290516101309190611bac565b3480156102d857600080fd5b506101246102e7366004611a2f565b61085f565b3480156102f857600080fd5b50610159610307366004611bdf565b61088a565b34801561031857600080fd5b506101ac600081565b34801561032d57600080fd5b5061015961033c366004611bdf565b6108b3565b34801561034d57600080fd5b5061015961035c3660046119d1565b6108d6565b34801561036d57600080fd5b5061015961037c3660046119d1565b610a0f565b34801561038d57600080fd5b5061015961039c366004611a2f565b610a83565b3480156103ad57600080fd5b506101596103bc3660046119d1565b610aa8565b60006001600160e01b03198216637965db0b60e01b14806103f257506301ffc9a760e01b6001600160e01b03198316145b92915050565b61040181610b1c565b50565b6040805160208101909152600081526001600160a01b03838116600090815260fb6020526040902054166104565782604051632a4f499d60e21b815260040161044d9190611c1b565b60405180910390fd5b60008061046285610b34565b8092508193505050600082905060008690506000816001600160a01b031663313ce5676040518163ffffffff1660e01b8152600401602060405180830381865afa1580156104b4573d6000803e3d6000fd5b505050506040513d601f19601f820116820180604052508101906104d89190611c2f565b905061054d604051806020016040528083600a6104f59190611d4c565b610507670de0b6b3a76400008c611d5b565b6105119190611d72565b905260408051602081019091528061052a88600a611d4c565b61053c670de0b6b3a764000089611d5b565b6105469190611d72565b9052610ef1565b98975050505050505050565b600082815260c9602052604090206001015461057481610f39565b61057e8383610f43565b505050565b6001600160a01b03811633146105f35760405162461bcd60e51b815260206004820152602f60248201527f416363657373436f6e74726f6c3a2063616e206f6e6c792072656e6f756e636560448201526e103937b632b9903337b91039b2b63360891b606482015260840161044d565b6105fd8282610fc9565b5050565b6001600160a01b037f00000000000000000000000000000000000000000000000000000000000000001630036106495760405162461bcd60e51b815260040161044d90611d94565b7f00000000000000000000000000000000000000000000000000000000000000006001600160a01b031661067b611030565b6001600160a01b0316146106a15760405162461bcd60e51b815260040161044d90611de0565b6106aa81610b1c565b604080516000808252602082019092526104019183919061104c565b600080516020611fa88339815191526106de81610f39565b6106e98686866111b7565b6106f486848461133e565b505050505050565b6001600160a01b037f00000000000000000000000000000000000000000000000000000000000000001630036107445760405162461bcd60e51b815260040161044d90611d94565b7f00000000000000000000000000000000000000000000000000000000000000006001600160a01b0316610776611030565b6001600160a01b03161461079c5760405162461bcd60e51b815260040161044d90611de0565b6107a582610b1c565b6105fd8282600161104c565b6000306001600160a01b037f0000000000000000000000000000000000000000000000000000000000000000161461084c5760405162461bcd60e51b815260206004820152603860248201527f555550535570677261646561626c653a206d757374206e6f742062652063616c6044820152771b1959081d1a1c9bdd59da0819195b1959d85d1958d85b1b60421b606482015260840161044d565b50600080516020611fc883398151915290565b600091825260c9602090815260408084206001600160a01b0393909316845291905290205460ff1690565b600080516020611fa88339815191526108a281610f39565b6108ad8484846111b7565b50505050565b600080516020611fa88339815191526108cb81610f39565b6108ad84848461133e565b600054610100900460ff16158080156108f65750600054600160ff909116105b806109175750610905306114b5565b158015610917575060005460ff166001145b61097a5760405162461bcd60e51b815260206004820152602e60248201527f496e697469616c697a61626c653a20636f6e747261637420697320616c72656160448201526d191e481a5b9a5d1a585b1a5e995960921b606482015260840161044d565b6000805460ff19166001179055801561099d576000805461ff0019166101001790555b6109a56114c4565b6109ad6114c4565b6109c5600080516020611fa883398151915283610f43565b80156105fd576000805461ff0019169055604051600181527f7f26b83ff96e1f2b6a682f133852f6798a09c465da95921460cefb3847402498906020015b60405180910390a15050565b600080516020611fa8833981519152610a2781610f39565b6001600160a01b038216600090815260fb602052604080822080546001600160a01b031916815560010191909155517ffbc2f2231449137043afaa28222f673d780c0e7449d25d2c98ea791db929204c90610a03908490611c1b565b600082815260c96020526040902060010154610a9e81610f39565b61057e8383610fc9565b600080516020611fa8833981519152610ac081610f39565b6001600160a01b038216600090815260fc602052604080822080546001600160a01b031916815560010191909155517f1093a5da06a58f0fb15c9391f2457f36d022ac2f482a803bde212626f674400290610a03908490611c1b565b600080516020611fa88339815191526105fd81610f39565b6001600160a01b03808216600090815260fb6020526040808220548151633fabe5a360e21b8152915192938493849384939092169163feaf968c9160048083019260a09291908290030181865afa158015610b93573d6000803e3d6000fd5b505050506040513d601f19601f82011682018060405250810190610bb79190611e46565b506001600160a01b03808a16600090815260fc6020526040902054939650909450919091169150819050610cf95760008313610c055760405162bfc92160e01b815260040160405180910390fd5b6001600160a01b038616600090815260fb60205260409020600101541580610c5157506001600160a01b038616600090815260fb6020526040902060010154610c4e8342611e96565b11155b15610ce0576001600160a01b03808716600090815260fb602090815260409182902054825163313ce56760e01b815292518794919091169263313ce5679260048083019391928290030181865afa158015610cb0573d6000803e3d6000fd5b505050506040513d601f19601f82011682018060405250810190610cd49190611c2f565b94509450505050915091565b604051633ef9f21b60e01b815260040160405180910390fd5b6001600160a01b03811615610ee957600083138015610d3c57506001600160a01b038616600090815260fb6020526040902060010154610d398342611e96565b11155b15610d9b576001600160a01b03808716600090815260fb602090815260409182902054825163313ce56760e01b815292518794919091169263313ce5679260048083019391928290030181865afa158015610cb0573d6000803e3d6000fd5b600080826001600160a01b031663feaf968c6040518163ffffffff1660e01b815260040160a060405180830381865afa158015610ddc573d6000803e3d6000fd5b505050506040513d601f19601f82011682018060405250810190610e009190611e46565b5093505092505060008213610e275760405162bfc92160e01b815260040160405180910390fd5b6001600160a01b038816600090815260fc60205260409020600101541580610e7357506001600160a01b038816600090815260fc6020526040902060010154610e708242611e96565b11155b15610ce05781836001600160a01b031663313ce5676040518163ffffffff1660e01b8152600401602060405180830381865afa158015610eb7573d6000803e3d6000fd5b505050506040513d601f19601f82011682018060405250810190610edb9190611c2f565b965096505050505050915091565b505050915091565b6040805160208101909152600081526040518060200160405280670de0b6b3a7640000610f2686600001518660000151611531565b610f309190611d72565b90529392505050565b6104018133611544565b610f4d828261085f565b6105fd57600082815260c9602090815260408083206001600160a01b03851684529091529020805460ff19166001179055610f853390565b6001600160a01b0316816001600160a01b0316837f2f8788117e7eff1d82e926ec794901d17c78024a50270940304540a733656f0d60405160405180910390a45050565b610fd3828261085f565b156105fd57600082815260c9602090815260408083206001600160a01b0385168085529252808320805460ff1916905551339285917ff6391f5c32d9c69d2a47ea670b442974b53935d1edc7fd64eb21e047a839171b9190a45050565b600080516020611fc8833981519152546001600160a01b031690565b7f4910fdfa16fed3260ed0e7147f7cc6da11a60208b5b9406d12a635614ffd91435460ff161561107f5761057e8361159d565b826001600160a01b03166352d1902d6040518163ffffffff1660e01b8152600401602060405180830381865afa9250505080156110d9575060408051601f3d908101601f191682019092526110d691810190611ea9565b60015b61113c5760405162461bcd60e51b815260206004820152602e60248201527f45524331393637557067726164653a206e657720696d706c656d656e7461746960448201526d6f6e206973206e6f74205555505360901b606482015260840161044d565b600080516020611fc883398151915281146111ab5760405162461bcd60e51b815260206004820152602960248201527f45524331393637557067726164653a20756e737570706f727465642070726f786044820152681a58589b195555525160ba1b606482015260840161044d565b5061057e838383611637565b6001600160a01b03821661121f5760405162461bcd60e51b815260206004820152602960248201527f5072696d61727920507269636520666565642063616e6e6f74206265207a65726044820152686f206164647265737360b81b606482015260840161044d565b6000829050600080826001600160a01b031663feaf968c6040518163ffffffff1660e01b815260040160a060405180830381865afa158015611265573d6000803e3d6000fd5b505050506040513d601f19601f820116820180604052508101906112899190611e46565b50935050925050600082136112b05760405162bfc92160e01b815260040160405180910390fd5b6040805180820182526001600160a01b03878116825260208083018881528a8316600090815260fb90925290849020835181546001600160a01b03191693169290921782555160019091015590517f950d6b0fc92ec932fc49a6ea1af2dded2fac58d5464090ceece194b1f1e624f39061132d9089908990611ec2565b60405180910390a150505050505050565b6001600160a01b0382166113a75760405162461bcd60e51b815260206004820152602a60248201527f46616c6c6261636b20507269636520666565642063616e6e6f74206265207a65604482015269726f206164647265737360b01b606482015260840161044d565b6000829050600080826001600160a01b031663feaf968c6040518163ffffffff1660e01b815260040160a060405180830381865afa1580156113ed573d6000803e3d6000fd5b505050506040513d601f19601f820116820180604052508101906114119190611e46565b50935050925050600082136114385760405162bfc92160e01b815260040160405180910390fd5b6040805180820182526001600160a01b03878116825260208083018881528a8316600090815260fc90925290849020835181546001600160a01b03191693169290921782555160019091015590517f88f32712a5f54716ba83ac5415ed99ffccbcf735a00db9ff1607cc259f8bca089061132d9089908990611ec2565b6001600160a01b03163b151590565b600054610100900460ff1661152f5760405162461bcd60e51b815260206004820152602b60248201527f496e697469616c697a61626c653a20636f6e7472616374206973206e6f74206960448201526a6e697469616c697a696e6760a81b606482015260840161044d565b565b600061153d8284611d5b565b9392505050565b61154e828261085f565b6105fd5761155b8161165c565b61156683602061166e565b604051602001611577929190611edc565b60408051601f198184030181529082905262461bcd60e51b825261044d91600401611bac565b6115a6816114b5565b6116085760405162461bcd60e51b815260206004820152602d60248201527f455243313936373a206e657720696d706c656d656e746174696f6e206973206e60448201526c1bdd08184818dbdb9d1c9858dd609a1b606482015260840161044d565b600080516020611fc883398151915280546001600160a01b0319166001600160a01b0392909216919091179055565b6116408361180a565b60008251118061164d5750805b1561057e576108ad838361184a565b60606103f26001600160a01b03831660145b6060600061167d836002611d5b565b611688906002611f4b565b67ffffffffffffffff8111156116a0576116a0611ab0565b6040519080825280601f01601f1916602001820160405280156116ca576020820181803683370190505b509050600360fc1b816000815181106116e5576116e5611f5e565b60200101906001600160f81b031916908160001a905350600f60fb1b8160018151811061171457611714611f5e565b60200101906001600160f81b031916908160001a9053506000611738846002611d5b565b611743906001611f4b565b90505b60018111156117bb576f181899199a1a9b1b9c1cb0b131b232b360811b85600f166010811061177757611777611f5e565b1a60f81b82828151811061178d5761178d611f5e565b60200101906001600160f81b031916908160001a90535060049490941c936117b481611f74565b9050611746565b50831561153d5760405162461bcd60e51b815260206004820181905260248201527f537472696e67733a20686578206c656e67746820696e73756666696369656e74604482015260640161044d565b6118138161159d565b6040516001600160a01b038216907fbc7cd75a20ee27fd9adebab32041f755214dbc6bffa90cc0225b39da2e5c2d3b90600090a250565b606061153d8383604051806060016040528060278152602001611fe8602791396060600080856001600160a01b0316856040516118879190611f8b565b600060405180830381855af49150503d80600081146118c2576040519150601f19603f3d011682016040523d82523d6000602084013e6118c7565b606091505b50915091506118d8868383876118e2565b9695505050505050565b6060831561194f578251600003611948576118fc856114b5565b6119485760405162461bcd60e51b815260206004820152601d60248201527f416464726573733a2063616c6c20746f206e6f6e2d636f6e7472616374000000604482015260640161044d565b5081611959565b6119598383611961565b949350505050565b8151156119715781518083602001fd5b8060405162461bcd60e51b815260040161044d9190611bac565b60006020828403121561199d57600080fd5b81356001600160e01b03198116811461153d57600080fd5b80356001600160a01b03811681146119cc57600080fd5b919050565b6000602082840312156119e357600080fd5b61153d826119b5565b600080604083850312156119ff57600080fd5b611a08836119b5565b946020939093013593505050565b600060208284031215611a2857600080fd5b5035919050565b60008060408385031215611a4257600080fd5b82359150611a52602084016119b5565b90509250929050565b600080600080600060a08688031215611a7357600080fd5b611a7c866119b5565b9450611a8a602087016119b5565b935060408601359250611a9f606087016119b5565b949793965091946080013592915050565b634e487b7160e01b600052604160045260246000fd5b60008060408385031215611ad957600080fd5b611ae2836119b5565b9150602083013567ffffffffffffffff80821115611aff57600080fd5b818501915085601f830112611b1357600080fd5b813581811115611b2557611b25611ab0565b604051601f8201601f19908116603f01168101908382118183101715611b4d57611b4d611ab0565b81604052828152886020848701011115611b6657600080fd5b8260208601602083013760006020848301015280955050505050509250929050565b60005b83811015611ba3578181015183820152602001611b8b565b50506000910152565b6020815260008251806020840152611bcb816040850160208701611b88565b601f01601f19169190910160400192915050565b600080600060608486031215611bf457600080fd5b611bfd846119b5565b9250611c0b602085016119b5565b9150604084013590509250925092565b6001600160a01b0391909116815260200190565b600060208284031215611c4157600080fd5b815160ff8116811461153d57600080fd5b634e487b7160e01b600052601160045260246000fd5b600181815b80851115611ca3578160001904821115611c8957611c89611c52565b80851615611c9657918102915b93841c9390800290611c6d565b509250929050565b600082611cba575060016103f2565b81611cc7575060006103f2565b8160018114611cdd5760028114611ce757611d03565b60019150506103f2565b60ff841115611cf857611cf8611c52565b50506001821b6103f2565b5060208310610133831016604e8410600b8410161715611d26575081810a6103f2565b611d308383611c68565b8060001904821115611d4457611d44611c52565b029392505050565b600061153d60ff841683611cab565b80820281158282048414176103f2576103f2611c52565b600082611d8f57634e487b7160e01b600052601260045260246000fd5b500490565b6020808252602c908201527f46756e6374696f6e206d7573742062652063616c6c6564207468726f7567682060408201526b19195b1959d85d1958d85b1b60a21b606082015260800190565b6020808252602c908201527f46756e6374696f6e206d7573742062652063616c6c6564207468726f7567682060408201526b6163746976652070726f787960a01b606082015260800190565b805169ffffffffffffffffffff811681146119cc57600080fd5b600080600080600060a08688031215611e5e57600080fd5b611e6786611e2c565b9450602086015193506040860151925060608601519150611e8a60808701611e2c565b90509295509295909350565b818103818111156103f2576103f2611c52565b600060208284031215611ebb57600080fd5b5051919050565b6001600160a01b0392831681529116602082015260400190565b76020b1b1b2b9b9a1b7b73a3937b61d1030b1b1b7bab73a1604d1b815260008351611f0e816017850160208801611b88565b7001034b99036b4b9b9b4b733903937b6329607d1b6017918401918201528351611f3f816028840160208801611b88565b01602801949350505050565b808201808211156103f2576103f2611c52565b634e487b7160e01b600052603260045260246000fd5b600081611f8357611f83611c52565b506000190190565b60008251611f9d818460208701611b88565b919091019291505056fe793a6c9b7e0a9549c74edc2f9ae0dc50903dfaa9a56fb0116b27a8c71de3e2c6360894a13ba1a3210667c828492db98dca3e2076cc3735a920a3ca505d382bbc416464726573733a206c6f772d6c6576656c2064656c65676174652063616c6c206661696c6564a264697066735822122065d9a5fba03a66e96fd66cff31c86c53d5c86006533c7bd9503a1fef841ac8ed64736f6c63430008120033",
  "linkReferences": {},
  "deployedLinkReferences": {}
}