{
  "_format": "hh-sol-artifact-1",
  "contractName": "TestTermPriceConsumerV3",
  "sourceName": "contracts/test/TestTermPriceConsumerV3.sol",
  "abi": [
    {
      "inputs": [
        {
          "internalType": "address",
          "name": "tokenAddress",
          "type": "address"
        }
      ],
      "name": "NoPriceFeed",
      "type": "error"
    },
    {
      "anonymous": false,
      "inputs": [
        {
          "indexed": false,
          "internalType": "address",
          "name": "previousAdmin",
          "type": "address"
        },
        {
          "indexed": false,
          "internalType": "address",
          "name": "newAdmin",
          "type": "address"
        }
      ],
      "name": "AdminChanged",
      "type": "event"
    },
    {
      "anonymous": false,
      "inputs": [
        {
          "indexed": true,
          "internalType": "address",
          "name": "beacon",
          "type": "address"
        }
      ],
      "name": "BeaconUpgraded",
      "type": "event"
    },
    {
      "anonymous": false,
      "inputs": [
        {
          "indexed": false,
          "internalType": "uint8",
          "name": "version",
          "type": "uint8"
        }
      ],
      "name": "Initialized",
      "type": "event"
    },
    {
      "anonymous": false,
      "inputs": [
        {
          "indexed": true,
          "internalType": "bytes32",
          "name": "role",
          "type": "bytes32"
        },
        {
          "indexed": true,
          "internalType": "bytes32",
          "name": "previousAdminRole",
          "type": "bytes32"
        },
        {
          "indexed": true,
          "internalType": "bytes32",
          "name": "newAdminRole",
          "type": "bytes32"
        }
      ],
      "name": "RoleAdminChanged",
      "type": "event"
    },
    {
      "anonymous": false,
      "inputs": [
        {
          "indexed": true,
          "internalType": "bytes32",
          "name": "role",
          "type": "bytes32"
        },
        {
          "indexed": true,
          "internalType": "address",
          "name": "account",
          "type": "address"
        },
        {
          "indexed": true,
          "internalType": "address",
          "name": "sender",
          "type": "address"
        }
      ],
      "name": "RoleGranted",
      "type": "event"
    },
    {
      "anonymous": false,
      "inputs": [
        {
          "indexed": true,
          "internalType": "bytes32",
          "name": "role",
          "type": "bytes32"
        },
        {
          "indexed": true,
          "internalType": "address",
          "name": "account",
          "type": "address"
        },
        {
          "indexed": true,
          "internalType": "address",
          "name": "sender",
          "type": "address"
        }
      ],
      "name": "RoleRevoked",
      "type": "event"
    },
    {
      "anonymous": false,
      "inputs": [
        {
          "indexed": false,
          "internalType": "address",
          "name": "token",
          "type": "address"
        },
        {
          "indexed": false,
          "internalType": "address",
          "name": "tokenPriceAggregator",
          "type": "address"
        }
      ],
      "name": "SubscribePriceFeed",
      "type": "event"
    },
    {
      "anonymous": false,
      "inputs": [
        {
          "indexed": false,
          "internalType": "address",
          "name": "token",
          "type": "address"
        }
      ],
      "name": "UnsubscribePriceFeed",
      "type": "event"
    },
    {
      "anonymous": false,
      "inputs": [
        {
          "indexed": true,
          "internalType": "address",
          "name": "implementation",
          "type": "address"
        }
      ],
      "name": "Upgraded",
      "type": "event"
    },
    {
      "inputs": [],
      "name": "DEFAULT_ADMIN_ROLE",
      "outputs": [
        {
          "internalType": "bytes32",
          "name": "",
          "type": "bytes32"
        }
      ],
      "stateMutability": "view",
      "type": "function"
    },
    {
      "inputs": [],
      "name": "DEVOPS_ROLE",
      "outputs": [
        {
          "internalType": "bytes32",
          "name": "",
          "type": "bytes32"
        }
      ],
      "stateMutability": "view",
      "type": "function"
    },
    {
      "inputs": [],
      "name": "EVERGREEN_MANAGEMENT_ROLE",
      "outputs": [
        {
          "internalType": "bytes32",
          "name": "",
          "type": "bytes32"
        }
      ],
      "stateMutability": "view",
      "type": "function"
    },
    {
      "inputs": [
        {
          "internalType": "address",
          "name": "token",
          "type": "address"
        },
        {
          "internalType": "address",
          "name": "tokenPriceAggregator",
          "type": "address"
        }
      ],
      "name": "addNewTokenPriceFeed",
      "outputs": [],
      "stateMutability": "nonpayable",
      "type": "function"
    },
    {
      "inputs": [
        {
          "internalType": "bytes32",
          "name": "role",
          "type": "bytes32"
        }
      ],
      "name": "getRoleAdmin",
      "outputs": [
        {
          "internalType": "bytes32",
          "name": "",
          "type": "bytes32"
        }
      ],
      "stateMutability": "view",
      "type": "function"
    },
    {
      "inputs": [
        {
          "internalType": "bytes32",
          "name": "role",
          "type": "bytes32"
        },
        {
          "internalType": "address",
          "name": "account",
          "type": "address"
        }
      ],
      "name": "grantRole",
      "outputs": [],
      "stateMutability": "nonpayable",
      "type": "function"
    },
    {
      "inputs": [
        {
          "internalType": "bytes32",
          "name": "role",
          "type": "bytes32"
        },
        {
          "internalType": "address",
          "name": "account",
          "type": "address"
        }
      ],
      "name": "hasRole",
      "outputs": [
        {
          "internalType": "bool",
          "name": "",
          "type": "bool"
        }
      ],
      "stateMutability": "view",
      "type": "function"
    },
    {
      "inputs": [
        {
          "internalType": "address",
          "name": "devopsWallet_",
          "type": "address"
        },
        {
          "internalType": "address",
          "name": "evergreenManagementWallet_",
          "type": "address"
        }
      ],
      "name": "initialize",
      "outputs": [],
      "stateMutability": "nonpayable",
      "type": "function"
    },
    {
      "inputs": [],
      "name": "proxiableUUID",
      "outputs": [
        {
          "internalType": "bytes32",
          "name": "",
          "type": "bytes32"
        }
      ],
      "stateMutability": "view",
      "type": "function"
    },
    {
      "inputs": [
        {
          "internalType": "address",
          "name": "token",
          "type": "address"
        }
      ],
      "name": "removeTokenPriceFeed",
      "outputs": [],
      "stateMutability": "nonpayable",
      "type": "function"
    },
    {
      "inputs": [
        {
          "internalType": "bytes32",
          "name": "role",
          "type": "bytes32"
        },
        {
          "internalType": "address",
          "name": "account",
          "type": "address"
        }
      ],
      "name": "renounceRole",
      "outputs": [],
      "stateMutability": "nonpayable",
      "type": "function"
    },
    {
      "inputs": [
        {
          "internalType": "bytes32",
          "name": "role",
          "type": "bytes32"
        },
        {
          "internalType": "address",
          "name": "account",
          "type": "address"
        }
      ],
      "name": "revokeRole",
      "outputs": [],
      "stateMutability": "nonpayable",
      "type": "function"
    },
    {
      "inputs": [
        {
          "internalType": "bytes4",
          "name": "interfaceId",
          "type": "bytes4"
        }
      ],
      "name": "supportsInterface",
      "outputs": [
        {
          "internalType": "bool",
          "name": "",
          "type": "bool"
        }
      ],
      "stateMutability": "view",
      "type": "function"
    },
    {
      "inputs": [
        {
          "internalType": "address",
          "name": "upgradeAddress",
          "type": "address"
        }
      ],
      "name": "upgrade",
      "outputs": [],
      "stateMutability": "view",
      "type": "function"
    },
    {
      "inputs": [
        {
          "internalType": "address",
          "name": "newImplementation",
          "type": "address"
        }
      ],
      "name": "upgradeTo",
      "outputs": [],
      "stateMutability": "nonpayable",
      "type": "function"
    },
    {
      "inputs": [
        {
          "internalType": "address",
          "name": "newImplementation",
          "type": "address"
        },
        {
          "internalType": "bytes",
          "name": "data",
          "type": "bytes"
        }
      ],
      "name": "upgradeToAndCall",
      "outputs": [],
      "stateMutability": "payable",
      "type": "function"
    },
    {
      "inputs": [
        {
          "internalType": "address",
          "name": "token",
          "type": "address"
        },
        {
          "internalType": "uint256",
          "name": "amount",
          "type": "uint256"
        }
      ],
      "name": "usdValueOfTokens",
      "outputs": [
        {
          "components": [
            {
              "internalType": "uint256",
              "name": "mantissa",
              "type": "uint256"
            }
          ],
          "internalType": "struct ExponentialNoError.Exp",
          "name": "",
          "type": "tuple"
        }
      ],
      "stateMutability": "view",
      "type": "function"
    },
    {
      "inputs": [],
      "name": "version",
      "outputs": [
        {
          "internalType": "string",
          "name": "",
          "type": "string"
        }
      ],
      "stateMutability": "view",
      "type": "function"
    }
  ],
  "bytecode": "0x60a06040523060805234801561001457600080fd5b5061001d610022565b6100e1565b600054610100900460ff161561008e5760405162461bcd60e51b815260206004820152602760248201527f496e697469616c697a61626c653a20636f6e747261637420697320696e697469604482015266616c697a696e6760c81b606482015260840160405180910390fd5b60005460ff908116146100df576000805460ff191660ff9081179091556040519081527f7f26b83ff96e1f2b6a682f133852f6798a09c465da95921460cefb38474024989060200160405180910390a15b565b608051611971610118600039600081816105b7015281816105f70152818161084a0152818161088a015261090201526119716000f3fe6080604052600436106100e95760003560e01c8063485cc95511610085578063485cc955146102565780634d8d5999146102765780634f1ef2861461029657806352d1902d146102a957806354fd4d50146102be57806391d14854146102f8578063a217fddf14610318578063ce2ff6aa1461032d578063d547741f1461034d57600080fd5b806301ffc9a7146100ee5780630900f010146101235780630f4f276c14610145578063201a662514610174578063248a9ca3146101a45780632f2ff15d146101d457806335185731146101f457806336568abe146102165780633659cfe614610236575b600080fd5b3480156100fa57600080fd5b5061010e61010936600461132c565b61036d565b60405190151581526020015b60405180910390f35b34801561012f57600080fd5b5061014361013e366004611372565b6103a4565b005b34801561015157600080fd5b5061016561016036600461138d565b6103b0565b6040519051815260200161011a565b34801561018057600080fd5b506101966000805160206118b583398151915281565b60405190815260200161011a565b3480156101b057600080fd5b506101966101bf3660046113b7565b600090815260c9602052604090206001015490565b3480156101e057600080fd5b506101436101ef3660046113d0565b610505565b34801561020057600080fd5b506101966000805160206118f583398151915281565b34801561022257600080fd5b506101436102313660046113d0565b61052f565b34801561024257600080fd5b50610143610251366004611372565b6105ad565b34801561026257600080fd5b506101436102713660046113fc565b610672565b34801561028257600080fd5b506101436102913660046113fc565b6107c4565b6101436102a436600461143c565b610840565b3480156102b557600080fd5b506101966108f5565b3480156102ca57600080fd5b50604080518082018252600b81526a19195d995b1bdc1b595b9d60aa1b6020820152905161011a9190611522565b34801561030457600080fd5b5061010e6103133660046113d0565b6109a3565b34801561032457600080fd5b50610196600081565b34801561033957600080fd5b50610143610348366004611372565b6109ce565b34801561035957600080fd5b506101436103683660046113d0565b610a48565b60006001600160e01b03198216637965db0b60e01b148061039e57506301ffc9a760e01b6001600160e01b03198316145b92915050565b6103ad81610a6d565b50565b6040805160208101909152600081526001600160a01b03838116600090815260fb6020526040902054166104025782604051632a4f499d60e21b81526004016103f99190611555565b60405180910390fd5b600061040d84610a85565b9050600061041a85610b0f565b905060008590506000816001600160a01b031663313ce5676040518163ffffffff1660e01b8152600401602060405180830381865afa158015610461573d6000803e3d6000fd5b505050506040513d601f19601f820116820180604052508101906104859190611569565b90506104fa604051806020016040528083600a6104a29190611686565b6104b4670de0b6b3a76400008b611695565b6104be91906116ac565b90526040805160208101909152806104d787600a611686565b6104e9670de0b6b3a76400008a611695565b6104f391906116ac565b9052610b8a565b979650505050505050565b600082815260c9602052604090206001015461052081610bd2565b61052a8383610bdc565b505050565b6001600160a01b038116331461059f5760405162461bcd60e51b815260206004820152602f60248201527f416363657373436f6e74726f6c3a2063616e206f6e6c792072656e6f756e636560448201526e103937b632b9903337b91039b2b63360891b60648201526084016103f9565b6105a98282610c62565b5050565b6001600160a01b037f00000000000000000000000000000000000000000000000000000000000000001630036105f55760405162461bcd60e51b81526004016103f9906116ce565b7f00000000000000000000000000000000000000000000000000000000000000006001600160a01b0316610627610cc9565b6001600160a01b03161461064d5760405162461bcd60e51b81526004016103f99061171a565b61065681610a6d565b604080516000808252602082019092526103ad91839190610ce5565b600054610100900460ff16158080156106925750600054600160ff909116105b806106b357506106a130610e50565b1580156106b3575060005460ff166001145b6107165760405162461bcd60e51b815260206004820152602e60248201527f496e697469616c697a61626c653a20636f6e747261637420697320616c72656160448201526d191e481a5b9a5d1a585b1a5e995960921b60648201526084016103f9565b6000805460ff191660011790558015610739576000805461ff0019166101001790555b610741610e5f565b610749610e5f565b6107616000805160206118b583398151915284610bdc565b6107796000805160206118f583398151915283610bdc565b801561052a576000805461ff0019169055604051600181527f7f26b83ff96e1f2b6a682f133852f6798a09c465da95921460cefb3847402498906020015b60405180910390a1505050565b6000805160206118f58339815191526107dc81610bd2565b6001600160a01b03838116600081815260fb602090815260409182902080546001600160a01b031916948716948517905581519283528201929092527f950d6b0fc92ec932fc49a6ea1af2dded2fac58d5464090ceece194b1f1e624f391016107b7565b6001600160a01b037f00000000000000000000000000000000000000000000000000000000000000001630036108885760405162461bcd60e51b81526004016103f9906116ce565b7f00000000000000000000000000000000000000000000000000000000000000006001600160a01b03166108ba610cc9565b6001600160a01b0316146108e05760405162461bcd60e51b81526004016103f99061171a565b6108e982610a6d565b6105a982826001610ce5565b6000306001600160a01b037f000000000000000000000000000000000000000000000000000000000000000016146109905760405162461bcd60e51b815260206004820152603860248201527f555550535570677261646561626c653a206d757374206e6f742062652063616c6044820152771b1959081d1a1c9bdd59da0819195b1959d85d1958d85b1b60421b60648201526084016103f9565b506000805160206118d583398151915290565b600091825260c9602090815260408084206001600160a01b0393909316845291905290205460ff1690565b6000805160206118f58339815191526109e681610bd2565b6001600160a01b038216600090815260fb60205260409081902080546001600160a01b0319169055517ffbc2f2231449137043afaa28222f673d780c0e7449d25d2c98ea791db929204c90610a3c908490611555565b60405180910390a15050565b600082815260c96020526040902060010154610a6381610bd2565b61052a8383610c62565b6000805160206118b58339815191526105a981610bd2565b6001600160a01b03808216600090815260fb6020526040808220548151633fabe5a360e21b815291519293849391169163feaf968c9160048083019260a09291908290030181865afa158015610adf573d6000803e3d6000fd5b505050506040513d601f19601f82011682018060405250810190610b039190611780565b50919695505050505050565b6001600160a01b03808216600090815260fb6020908152604080832054815163313ce56760e01b815291519394169263313ce567926004808401939192918290030181865afa158015610b66573d6000803e3d6000fd5b505050506040513d601f19601f8201168201806040525081019061039e9190611569565b6040805160208101909152600081526040518060200160405280670de0b6b3a7640000610bbf86600001518660000151610ecc565b610bc991906116ac565b90529392505050565b6103ad8133610edf565b610be682826109a3565b6105a957600082815260c9602090815260408083206001600160a01b03851684529091529020805460ff19166001179055610c1e3390565b6001600160a01b0316816001600160a01b0316837f2f8788117e7eff1d82e926ec794901d17c78024a50270940304540a733656f0d60405160405180910390a45050565b610c6c82826109a3565b156105a957600082815260c9602090815260408083206001600160a01b0385168085529252808320805460ff1916905551339285917ff6391f5c32d9c69d2a47ea670b442974b53935d1edc7fd64eb21e047a839171b9190a45050565b6000805160206118d5833981519152546001600160a01b031690565b7f4910fdfa16fed3260ed0e7147f7cc6da11a60208b5b9406d12a635614ffd91435460ff1615610d185761052a83610f38565b826001600160a01b03166352d1902d6040518163ffffffff1660e01b8152600401602060405180830381865afa925050508015610d72575060408051601f3d908101601f19168201909252610d6f918101906117d0565b60015b610dd55760405162461bcd60e51b815260206004820152602e60248201527f45524331393637557067726164653a206e657720696d706c656d656e7461746960448201526d6f6e206973206e6f74205555505360901b60648201526084016103f9565b6000805160206118d58339815191528114610e445760405162461bcd60e51b815260206004820152602960248201527f45524331393637557067726164653a20756e737570706f727465642070726f786044820152681a58589b195555525160ba1b60648201526084016103f9565b5061052a838383610fd2565b6001600160a01b03163b151590565b600054610100900460ff16610eca5760405162461bcd60e51b815260206004820152602b60248201527f496e697469616c697a61626c653a20636f6e7472616374206973206e6f74206960448201526a6e697469616c697a696e6760a81b60648201526084016103f9565b565b6000610ed88284611695565b9392505050565b610ee982826109a3565b6105a957610ef681610ffd565b610f0183602061100f565b604051602001610f129291906117e9565b60408051601f198184030181529082905262461bcd60e51b82526103f991600401611522565b610f4181610e50565b610fa35760405162461bcd60e51b815260206004820152602d60248201527f455243313936373a206e657720696d706c656d656e746174696f6e206973206e60448201526c1bdd08184818dbdb9d1c9858dd609a1b60648201526084016103f9565b6000805160206118d583398151915280546001600160a01b0319166001600160a01b0392909216919091179055565b610fdb836111ab565b600082511180610fe85750805b1561052a57610ff783836111eb565b50505050565b606061039e6001600160a01b03831660145b6060600061101e836002611695565b611029906002611858565b67ffffffffffffffff81111561104157611041611426565b6040519080825280601f01601f19166020018201604052801561106b576020820181803683370190505b509050600360fc1b816000815181106110865761108661186b565b60200101906001600160f81b031916908160001a905350600f60fb1b816001815181106110b5576110b561186b565b60200101906001600160f81b031916908160001a90535060006110d9846002611695565b6110e4906001611858565b90505b600181111561115c576f181899199a1a9b1b9c1cb0b131b232b360811b85600f16601081106111185761111861186b565b1a60f81b82828151811061112e5761112e61186b565b60200101906001600160f81b031916908160001a90535060049490941c9361115581611881565b90506110e7565b508315610ed85760405162461bcd60e51b815260206004820181905260248201527f537472696e67733a20686578206c656e67746820696e73756666696369656e7460448201526064016103f9565b6111b481610f38565b6040516001600160a01b038216907fbc7cd75a20ee27fd9adebab32041f755214dbc6bffa90cc0225b39da2e5c2d3b90600090a250565b6060610ed88383604051806060016040528060278152602001611915602791396060600080856001600160a01b0316856040516112289190611898565b600060405180830381855af49150503d8060008114611263576040519150601f19603f3d011682016040523d82523d6000602084013e611268565b606091505b509150915061127986838387611283565b9695505050505050565b606083156112f05782516000036112e95761129d85610e50565b6112e95760405162461bcd60e51b815260206004820152601d60248201527f416464726573733a2063616c6c20746f206e6f6e2d636f6e747261637400000060448201526064016103f9565b50816112fa565b6112fa8383611302565b949350505050565b8151156113125781518083602001fd5b8060405162461bcd60e51b81526004016103f99190611522565b60006020828403121561133e57600080fd5b81356001600160e01b031981168114610ed857600080fd5b80356001600160a01b038116811461136d57600080fd5b919050565b60006020828403121561138457600080fd5b610ed882611356565b600080604083850312156113a057600080fd5b6113a983611356565b946020939093013593505050565b6000602082840312156113c957600080fd5b5035919050565b600080604083850312156113e357600080fd5b823591506113f360208401611356565b90509250929050565b6000806040838503121561140f57600080fd5b61141883611356565b91506113f360208401611356565b634e487b7160e01b600052604160045260246000fd5b6000806040838503121561144f57600080fd5b61145883611356565b9150602083013567ffffffffffffffff8082111561147557600080fd5b818501915085601f83011261148957600080fd5b81358181111561149b5761149b611426565b604051601f8201601f19908116603f011681019083821181831017156114c3576114c3611426565b816040528281528860208487010111156114dc57600080fd5b8260208601602083013760006020848301015280955050505050509250929050565b60005b83811015611519578181015183820152602001611501565b50506000910152565b60208152600082518060208401526115418160408501602087016114fe565b601f01601f19169190910160400192915050565b6001600160a01b0391909116815260200190565b60006020828403121561157b57600080fd5b815160ff81168114610ed857600080fd5b634e487b7160e01b600052601160045260246000fd5b600181815b808511156115dd5781600019048211156115c3576115c361158c565b808516156115d057918102915b93841c93908002906115a7565b509250929050565b6000826115f45750600161039e565b816116015750600061039e565b816001811461161757600281146116215761163d565b600191505061039e565b60ff8411156116325761163261158c565b50506001821b61039e565b5060208310610133831016604e8410600b8410161715611660575081810a61039e565b61166a83836115a2565b806000190482111561167e5761167e61158c565b029392505050565b6000610ed860ff8416836115e5565b808202811582820484141761039e5761039e61158c565b6000826116c957634e487b7160e01b600052601260045260246000fd5b500490565b6020808252602c908201527f46756e6374696f6e206d7573742062652063616c6c6564207468726f7567682060408201526b19195b1959d85d1958d85b1b60a21b606082015260800190565b6020808252602c908201527f46756e6374696f6e206d7573742062652063616c6c6564207468726f7567682060408201526b6163746976652070726f787960a01b606082015260800190565b805169ffffffffffffffffffff8116811461136d57600080fd5b600080600080600060a0868803121561179857600080fd5b6117a186611766565b94506020860151935060408601519250606086015191506117c460808701611766565b90509295509295909350565b6000602082840312156117e257600080fd5b5051919050565b76020b1b1b2b9b9a1b7b73a3937b61d1030b1b1b7bab73a1604d1b81526000835161181b8160178501602088016114fe565b7001034b99036b4b9b9b4b733903937b6329607d1b601791840191820152835161184c8160288401602088016114fe565b01602801949350505050565b8082018082111561039e5761039e61158c565b634e487b7160e01b600052603260045260246000fd5b6000816118905761189061158c565b506000190190565b600082516118aa8184602087016114fe565b919091019291505056fe793a6c9b7e0a9549c74edc2f9ae0dc50903dfaa9a56fb0116b27a8c71de3e2c6360894a13ba1a3210667c828492db98dca3e2076cc3735a920a3ca505d382bbc0bb5a33d705086fce426ce4e2dd59328fcdddf3164b908c4c00fd1a185a702de416464726573733a206c6f772d6c6576656c2064656c65676174652063616c6c206661696c6564a264697066735822122064683faf92bb04c1377e19176c06ec611cebd3f7cf6480aea1eaa99a2226ce1e64736f6c63430008120033",
  "linkReferences": {},
  "deployedLinkReferences": {}
}