{
  "_format": "hh-sol-artifact-1",
  "contractName": "WETHWrappingFacet",
  "sourceName": "contracts/facets/WETHWrappingFacet.sol",
  "abi": [
    {
      "inputs": [
        {
          "internalType": "uint8",
          "name": "bits",
          "type": "uint8"
        },
        {
          "internalType": "uint256",
          "name": "value",
          "type": "uint256"
        }
      ],
      "name": "SafeCastOverflowedUintDowncast",
      "type": "error"
    },
    {
      "inputs": [
        {
          "internalType": "address",
          "name": "token",
          "type": "address"
        }
      ],
      "name": "SafeERC20FailedOperation",
      "type": "error"
    },
    {
      "inputs": [
        {
          "internalType": "uint256",
          "name": "amount",
          "type": "uint256"
        },
        {
          "internalType": "address",
          "name": "wrappedTokenAddr",
          "type": "address"
        },
        {
          "internalType": "bool",
          "name": "usePermit2",
          "type": "bool"
        }
      ],
      "name": "unwrapETH",
      "outputs": [],
      "stateMutability": "nonpayable",
      "type": "function"
    },
    {
      "inputs": [
        {
          "internalType": "address",
          "name": "wrappedTokenAddr",
          "type": "address"
        }
      ],
      "name": "wrapETH",
      "outputs": [],
      "stateMutability": "payable",
      "type": "function"
    }
  ],
  "bytecode": "0x608080604052346100165761040e908161001c8239f35b600080fdfe608060408181526004908136101561001657600080fd5b600092833560e01c908163406ee8631461027c5750639996a8481461003a57600080fd5b346101e05760603660031901126101e057602490823582356001600160a01b038181169182900361027757604435801515810361027357156102235780831161020657908692916e22d473030f116ddee9f6b43ac78ba390813b156102025784916084839288519485938492631b63c28b60e11b84528d3390850152308d850152891660448401528760648401525af180156101f8579084916101e4575b50505b803b156101e05782809186865180948193632e1a7d4d60e01b8352878c8401525af180156101d6579083916101be575b50808092335af13d156101b9576001600160401b033d8181116101a757835191601f8201601f19908116603f011683019081118382101761019357845281528560203d92013e5b1561015b578380f35b606492916020601392519362461bcd60e51b855284015282015272115512081d1c985b9cd9995c8819985a5b1959606a1b6044820152fd5b85604188634e487b7160e01b600052526000fd5b634e487b7160e01b8752604186528487fd5b610152565b6101c790610347565b6101d257813861010b565b5080fd5b84513d85823e3d90fd5b8280fd5b6101ed90610347565b6101e05782386100d8565b85513d86823e3d90fd5b8480fd5b83516306dfcc6560e41b815260a081880152808601849052604490fd5b5082516323b872dd60e01b602082015233858201523060448201526064808201849052815260a081016001600160401b03811182821017610193578793929161026e91865282610370565b6100db565b8780fd5b600080fd5b8492915060203660031901126101e05783356001600160a01b038116919082900361034357813b1561034357630d0e30db60e41b81528381868134865af1801561033657610323575b50815163a9059cbb60e01b60208201523360248201523460448083019190915281529160808301906001600160401b0382118483101761030e5761030b94955052610370565b80f35b604186634e487b7160e01b6000525260246000fd5b61032f90939193610347565b91846102c5565b50505051903d90823e3d90fd5b8380fd5b6001600160401b03811161035a57604052565b634e487b7160e01b600052604160045260246000fd5b906000602091828151910182855af1156103cc576000513d6103c357506001600160a01b0381163b155b6103a15750565b604051635274afe760e01b81526001600160a01b039091166004820152602490fd5b6001141561039a565b6040513d6000823e3d90fdfea2646970667358221220bb442b005c0d3196ca5a8f74b818a8ada7b93d8cc8fe0f59cf25938efe77ca4464736f6c63430008160033",
  "linkReferences": {},
  "deployedLinkReferences": {}
}