{
  "_format": "hh-sol-artifact-1",
  "contractName": "TestInconsistentVault",
  "sourceName": "contracts/test/TestInconsistentVault.sol",
  "abi": [
    {
      "inputs": [
        {
          "internalType": "address",
          "name": "spender",
          "type": "address"
        },
        {
          "internalType": "uint256",
          "name": "allowance",
          "type": "uint256"
        },
        {
          "internalType": "uint256",
          "name": "needed",
          "type": "uint256"
        }
      ],
      "name": "ERC20InsufficientAllowance",
      "type": "error"
    },
    {
      "inputs": [
        {
          "internalType": "address",
          "name": "sender",
          "type": "address"
        },
        {
          "internalType": "uint256",
          "name": "balance",
          "type": "uint256"
        },
        {
          "internalType": "uint256",
          "name": "needed",
          "type": "uint256"
        }
      ],
      "name": "ERC20InsufficientBalance",
      "type": "error"
    },
    {
      "inputs": [
        {
          "internalType": "address",
          "name": "approver",
          "type": "address"
        }
      ],
      "name": "ERC20InvalidApprover",
      "type": "error"
    },
    {
      "inputs": [
        {
          "internalType": "address",
          "name": "receiver",
          "type": "address"
        }
      ],
      "name": "ERC20InvalidReceiver",
      "type": "error"
    },
    {
      "inputs": [
        {
          "internalType": "address",
          "name": "sender",
          "type": "address"
        }
      ],
      "name": "ERC20InvalidSender",
      "type": "error"
    },
    {
      "inputs": [
        {
          "internalType": "address",
          "name": "spender",
          "type": "address"
        }
      ],
      "name": "ERC20InvalidSpender",
      "type": "error"
    },
    {
      "inputs": [],
      "name": "InvalidInitialization",
      "type": "error"
    },
    {
      "inputs": [],
      "name": "NotInitializing",
      "type": "error"
    },
    {
      "anonymous": false,
      "inputs": [
        {
          "indexed": true,
          "internalType": "address",
          "name": "owner",
          "type": "address"
        },
        {
          "indexed": true,
          "internalType": "address",
          "name": "spender",
          "type": "address"
        },
        {
          "indexed": false,
          "internalType": "uint256",
          "name": "value",
          "type": "uint256"
        }
      ],
      "name": "Approval",
      "type": "event"
    },
    {
      "anonymous": false,
      "inputs": [
        {
          "indexed": true,
          "internalType": "address",
          "name": "sender",
          "type": "address"
        },
        {
          "indexed": true,
          "internalType": "address",
          "name": "owner",
          "type": "address"
        },
        {
          "indexed": false,
          "internalType": "uint256",
          "name": "assets",
          "type": "uint256"
        },
        {
          "indexed": false,
          "internalType": "uint256",
          "name": "shares",
          "type": "uint256"
        }
      ],
      "name": "Deposit",
      "type": "event"
    },
    {
      "anonymous": false,
      "inputs": [
        {
          "indexed": false,
          "internalType": "uint64",
          "name": "version",
          "type": "uint64"
        }
      ],
      "name": "Initialized",
      "type": "event"
    },
    {
      "anonymous": false,
      "inputs": [
        {
          "indexed": true,
          "internalType": "address",
          "name": "from",
          "type": "address"
        },
        {
          "indexed": true,
          "internalType": "address",
          "name": "to",
          "type": "address"
        },
        {
          "indexed": false,
          "internalType": "uint256",
          "name": "value",
          "type": "uint256"
        }
      ],
      "name": "Transfer",
      "type": "event"
    },
    {
      "anonymous": false,
      "inputs": [
        {
          "indexed": true,
          "internalType": "address",
          "name": "sender",
          "type": "address"
        },
        {
          "indexed": true,
          "internalType": "address",
          "name": "receiver",
          "type": "address"
        },
        {
          "indexed": true,
          "internalType": "address",
          "name": "owner",
          "type": "address"
        },
        {
          "indexed": false,
          "internalType": "uint256",
          "name": "assets",
          "type": "uint256"
        },
        {
          "indexed": false,
          "internalType": "uint256",
          "name": "shares",
          "type": "uint256"
        }
      ],
      "name": "Withdraw",
      "type": "event"
    },
    {
      "inputs": [
        {
          "internalType": "address",
          "name": "owner",
          "type": "address"
        },
        {
          "internalType": "address",
          "name": "spender",
          "type": "address"
        }
      ],
      "name": "allowance",
      "outputs": [
        {
          "internalType": "uint256",
          "name": "",
          "type": "uint256"
        }
      ],
      "stateMutability": "view",
      "type": "function"
    },
    {
      "inputs": [
        {
          "internalType": "address",
          "name": "spender",
          "type": "address"
        },
        {
          "internalType": "uint256",
          "name": "value",
          "type": "uint256"
        }
      ],
      "name": "approve",
      "outputs": [
        {
          "internalType": "bool",
          "name": "",
          "type": "bool"
        }
      ],
      "stateMutability": "nonpayable",
      "type": "function"
    },
    {
      "inputs": [],
      "name": "asset",
      "outputs": [
        {
          "internalType": "address",
          "name": "",
          "type": "address"
        }
      ],
      "stateMutability": "view",
      "type": "function"
    },
    {
      "inputs": [
        {
          "internalType": "address",
          "name": "account",
          "type": "address"
        }
      ],
      "name": "balanceOf",
      "outputs": [
        {
          "internalType": "uint256",
          "name": "",
          "type": "uint256"
        }
      ],
      "stateMutability": "view",
      "type": "function"
    },
    {
      "inputs": [
        {
          "internalType": "uint256",
          "name": "shares",
          "type": "uint256"
        }
      ],
      "name": "convertToAssets",
      "outputs": [
        {
          "internalType": "uint256",
          "name": "",
          "type": "uint256"
        }
      ],
      "stateMutability": "pure",
      "type": "function"
    },
    {
      "inputs": [
        {
          "internalType": "uint256",
          "name": "assets",
          "type": "uint256"
        }
      ],
      "name": "convertToShares",
      "outputs": [
        {
          "internalType": "uint256",
          "name": "",
          "type": "uint256"
        }
      ],
      "stateMutability": "pure",
      "type": "function"
    },
    {
      "inputs": [],
      "name": "decimals",
      "outputs": [
        {
          "internalType": "uint8",
          "name": "",
          "type": "uint8"
        }
      ],
      "stateMutability": "view",
      "type": "function"
    },
    {
      "inputs": [
        {
          "internalType": "uint256",
          "name": "assets",
          "type": "uint256"
        },
        {
          "internalType": "address",
          "name": "receiver",
          "type": "address"
        }
      ],
      "name": "deposit",
      "outputs": [
        {
          "internalType": "uint256",
          "name": "shares",
          "type": "uint256"
        }
      ],
      "stateMutability": "nonpayable",
      "type": "function"
    },
    {
      "inputs": [
        {
          "internalType": "address",
          "name": "asset_",
          "type": "address"
        },
        {
          "internalType": "string",
          "name": "name_",
          "type": "string"
        },
        {
          "internalType": "string",
          "name": "symbol_",
          "type": "string"
        }
      ],
      "name": "initialize",
      "outputs": [],
      "stateMutability": "nonpayable",
      "type": "function"
    },
    {
      "inputs": [
        {
          "internalType": "address",
          "name": "",
          "type": "address"
        }
      ],
      "name": "maxDeposit",
      "outputs": [
        {
          "internalType": "uint256",
          "name": "",
          "type": "uint256"
        }
      ],
      "stateMutability": "pure",
      "type": "function"
    },
    {
      "inputs": [
        {
          "internalType": "address",
          "name": "",
          "type": "address"
        }
      ],
      "name": "maxMint",
      "outputs": [
        {
          "internalType": "uint256",
          "name": "",
          "type": "uint256"
        }
      ],
      "stateMutability": "pure",
      "type": "function"
    },
    {
      "inputs": [
        {
          "internalType": "address",
          "name": "owner",
          "type": "address"
        }
      ],
      "name": "maxRedeem",
      "outputs": [
        {
          "internalType": "uint256",
          "name": "",
          "type": "uint256"
        }
      ],
      "stateMutability": "view",
      "type": "function"
    },
    {
      "inputs": [
        {
          "internalType": "address",
          "name": "owner",
          "type": "address"
        }
      ],
      "name": "maxWithdraw",
      "outputs": [
        {
          "internalType": "uint256",
          "name": "",
          "type": "uint256"
        }
      ],
      "stateMutability": "view",
      "type": "function"
    },
    {
      "inputs": [
        {
          "internalType": "uint256",
          "name": "shares",
          "type": "uint256"
        },
        {
          "internalType": "address",
          "name": "receiver",
          "type": "address"
        }
      ],
      "name": "mint",
      "outputs": [
        {
          "internalType": "uint256",
          "name": "assets",
          "type": "uint256"
        }
      ],
      "stateMutability": "nonpayable",
      "type": "function"
    },
    {
      "inputs": [],
      "name": "name",
      "outputs": [
        {
          "internalType": "string",
          "name": "",
          "type": "string"
        }
      ],
      "stateMutability": "view",
      "type": "function"
    },
    {
      "inputs": [
        {
          "internalType": "uint256",
          "name": "assets",
          "type": "uint256"
        }
      ],
      "name": "previewDeposit",
      "outputs": [
        {
          "internalType": "uint256",
          "name": "",
          "type": "uint256"
        }
      ],
      "stateMutability": "pure",
      "type": "function"
    },
    {
      "inputs": [
        {
          "internalType": "uint256",
          "name": "shares",
          "type": "uint256"
        }
      ],
      "name": "previewMint",
      "outputs": [
        {
          "internalType": "uint256",
          "name": "",
          "type": "uint256"
        }
      ],
      "stateMutability": "pure",
      "type": "function"
    },
    {
      "inputs": [
        {
          "internalType": "uint256",
          "name": "shares",
          "type": "uint256"
        }
      ],
      "name": "previewRedeem",
      "outputs": [
        {
          "internalType": "uint256",
          "name": "",
          "type": "uint256"
        }
      ],
      "stateMutability": "pure",
      "type": "function"
    },
    {
      "inputs": [
        {
          "internalType": "uint256",
          "name": "assets",
          "type": "uint256"
        }
      ],
      "name": "previewWithdraw",
      "outputs": [
        {
          "internalType": "uint256",
          "name": "",
          "type": "uint256"
        }
      ],
      "stateMutability": "pure",
      "type": "function"
    },
    {
      "inputs": [
        {
          "internalType": "uint256",
          "name": "shares",
          "type": "uint256"
        },
        {
          "internalType": "address",
          "name": "receiver",
          "type": "address"
        },
        {
          "internalType": "address",
          "name": "owner",
          "type": "address"
        }
      ],
      "name": "redeem",
      "outputs": [
        {
          "internalType": "uint256",
          "name": "assets",
          "type": "uint256"
        }
      ],
      "stateMutability": "nonpayable",
      "type": "function"
    },
    {
      "inputs": [],
      "name": "symbol",
      "outputs": [
        {
          "internalType": "string",
          "name": "",
          "type": "string"
        }
      ],
      "stateMutability": "view",
      "type": "function"
    },
    {
      "inputs": [],
      "name": "totalAssets",
      "outputs": [
        {
          "internalType": "uint256",
          "name": "",
          "type": "uint256"
        }
      ],
      "stateMutability": "view",
      "type": "function"
    },
    {
      "inputs": [],
      "name": "totalSupply",
      "outputs": [
        {
          "internalType": "uint256",
          "name": "",
          "type": "uint256"
        }
      ],
      "stateMutability": "view",
      "type": "function"
    },
    {
      "inputs": [
        {
          "internalType": "address",
          "name": "to",
          "type": "address"
        },
        {
          "internalType": "uint256",
          "name": "value",
          "type": "uint256"
        }
      ],
      "name": "transfer",
      "outputs": [
        {
          "internalType": "bool",
          "name": "",
          "type": "bool"
        }
      ],
      "stateMutability": "nonpayable",
      "type": "function"
    },
    {
      "inputs": [
        {
          "internalType": "address",
          "name": "from",
          "type": "address"
        },
        {
          "internalType": "address",
          "name": "to",
          "type": "address"
        },
        {
          "internalType": "uint256",
          "name": "value",
          "type": "uint256"
        }
      ],
      "name": "transferFrom",
      "outputs": [
        {
          "internalType": "bool",
          "name": "",
          "type": "bool"
        }
      ],
      "stateMutability": "nonpayable",
      "type": "function"
    },
    {
      "inputs": [
        {
          "internalType": "uint256",
          "name": "assets",
          "type": "uint256"
        },
        {
          "internalType": "address",
          "name": "receiver",
          "type": "address"
        },
        {
          "internalType": "address",
          "name": "owner",
          "type": "address"
        }
      ],
      "name": "withdraw",
      "outputs": [
        {
          "internalType": "uint256",
          "name": "shares",
          "type": "uint256"
        }
      ],
      "stateMutability": "nonpayable",
      "type": "function"
    }
  ],
  "bytecode": "0x6080806040523461001657611253908161001c8239f35b600080fdfe608060408181526004908136101561001657600080fd5b600091823560e01c93846301e1d11414610ab25750836306fdde0314610a1757836307a2d13a14610145578363095ea7b3146109705783630a28a4771461014557836318160ddd1461094557836323b872dd14610909578363313ce567146108ee57836338d52e0f146108c7578363402d267d146101985783634cdad506146101455783636e553f651461049857836370a082311461087f57836390657147146104c957836394bf804d1461049857836395d89b41146103ca578363a9059cbb1461039a578363b3d7f6b914610145578363b460af94146102a5578363ba0876521461019d57508263c63d75b614610198578263c6e6f59214610145578263ce96cb7714610193578263d905777e14610193578263dd62ed3e1461014a57505063ef8b30f71461014557600080fd5b610b94565b3461018f578060031936011261018f5780602092610166610bb6565b610177610171610bcc565b91610e73565b6001600160a01b039091168252845220549051908152f35b5080fd5b610ccc565b610be2565b90346102a1576101ac36610c97565b91936001600160a01b038084169392909133859003610291575b605a8702878104605a148815171561027e578761020e926101ed6064602094048098611075565b848b87815416928b519687958694859363a9059cbb60e01b85528401610eac565b03925af180156102745760209850610247575b508451928684528784015216906000805160206111be833981519152843392a451908152f35b61026690883d8a1161026d575b61025e8183610c08565b810190610d2c565b5087610221565b503d610254565b86513d8a823e3d90fd5b634e487b7160e01b895260118252602489fd5b61029c873386610ee5565b6101c6565b8280fd5b346102a1576102b336610c97565b9290606e830295838704606e14841517156103875761030c9060208560018060a01b03956102eb82888b169a8b330361037757611075565b858488815416928c519788958694859363a9059cbb60e01b85528401610eac565b03925af190811561036c5760208960648a8a8a8a8a8a8a61034f575b508451928084528884015216906000805160206111be833981519152843392a45191048152f35b61036590893d8b1161026d5761025e8183610c08565b5088610328565b8751903d90823e3d90fd5b610382823383610ee5565b611075565b634e487b7160e01b815260118352602490fd5b503461018f578060031936011261018f576020906103c36103b9610bb6565b6024359033610fad565b5160018152f35b503461018f578160031936011261018f578051908260008051602061117e8339815191529081546103fa81610cf2565b918286526020936001926001811690816000146104745750600114610439575b610435878761042b828c0383610c08565b5191829182610b4b565b0390f35b9080949750528583205b82841061046157505050826104359461042b9282010194868061041a565b8054868501880152928601928101610443565b60ff19168887015250505050151560051b830101925061042b82610435868061041a565b91346104c657816003193601126104c657506104bf6020926104b8610bcc565b9035610d44565b9051908152f35b80fd5b346102a15760603660031901126102a1576104e2610bb6565b6001600160401b03919060243583811161087b576105039036908401610c41565b906044358481116108775761051b9036908501610c41565b6000805160206111fe8339815191529485549460ff86891c16159482871696871580610870575b60018099149081610866575b15908161085d575b5061084d576001600160401b031981168817895586610832575b5061057961110e565b61058161110e565b805183811161081f578060008051602061113e833981519152926105a58454610cf2565b601f81116107ca575b506020908d601f841160011461076b5792610760575b5050600019600383901b1c191690881b1790555b825191821161074d57508060008051602061117e833981519152926105fd8454610cf2565b601f81116106fb575b50602090601f831160011461069c578a92610691575b5050600019600383901b1c191690851b1790555b85546001600160a01b0319166001600160a01b0391909116178555610653578380f35b815460ff60401b191690915590519081527fc7f505b2f371ae2175ee4913f4499e1f2633a7b5936321eed1cdaeb6115181d290602090a18180808380f35b01519050898061061c565b848b52818b208894509190601f1984168c5b8181106106e3575084116106ca575b505050811b019055610630565b015160001960f88460031b161c191690558980806106bd565b8284015185558a9690940193602093840193016106ae565b909150838a5260208a20601f840160051c81019160208510610743575b84939291601f8a920160051c01915b828110610735575050610606565b8c8155859450899101610727565b9091508190610718565b634e487b7160e01b895260419052602488fd5b015190508c806105c4565b91908b9450601f198416868452828420935b8181106107b257508411610799575b505050811b0190556105d8565b015160001960f88460031b161c191690558c808061078c565b8284015185558d96909401936020938401930161077d565b909150838d5260208d20601f840160051c81019160208510610815575b8e85949392601f8e930160051c0192905b838210610807575050506105ae565b81558594508c91018f6107f8565b90915081906107e7565b634e487b7160e01b8b526041835260248bfd5b6001600160481b0319166001600160401b011788558a610570565b895163f92ee8a960e01b81528390fd5b9050158c610556565b303b15915061054e565b5086610542565b8680fd5b8580fd5b503461018f57602036600319011261018f576020906104bf61089f610bb6565b6001600160a01b0316600090815260008051602061115e833981519152602052604090205490565b503461018f578160031936011261018f57905490516001600160a01b039091168152602090f35b503461018f578160031936011261018f576020905160128152f35b503461018f57606036600319011261018f576020906103c3610929610bb6565b610931610bcc565b60443591610940833383610ee5565b610fad565b503461018f578160031936011261018f5760209060008051602061119e833981519152549051908152f35b346102a157816003193601126102a157610988610bb6565b602435903315610a00576001600160a01b03169182156109e9575080836020956109b133610e73565b8582528752205582519081527f8c5be1e5ebec7d5bd14f71427d1e84f3dd0314c0f7b2291e5b200ac8c7c3b925843392a35160018152f35b8351634a1406b160e11b8152908101859052602490fd5b835163e602df0560e01b8152808401869052602490fd5b503461018f578160031936011261018f578051908260008051602061113e833981519152908154610a4781610cf2565b918286526020936001926001811690816000146104745750600114610a7757610435878761042b828c0383610c08565b9080949750528583205b828410610a9f57505050826104359461042b9282010194868061041a565b8054868501880152928601928101610a81565b919034610b475783600319360112610b475783546370a0823160e01b84523091840191909152602090839060249082906001600160a01b03165afa918215610b3d578392610b05575b6020838351908152f35b9091506020813d602011610b35575b81610b2160209383610c08565b810103126102a15760209250519083610afb565b3d9150610b14565b81513d85823e3d90fd5b8380fd5b6020808252825181830181905290939260005b828110610b8057505060409293506000838284010152601f8019910116010190565b818101860151848201604001528501610b5e565b34610bb1576020366003190112610bb15760206040516004358152f35b600080fd5b600435906001600160a01b0382168203610bb157565b602435906001600160a01b0382168203610bb157565b34610bb1576020366003190112610bb157610bfb610bb6565b5060206040516000198152f35b601f909101601f19168101906001600160401b03821190821017610c2b57604052565b634e487b7160e01b600052604160045260246000fd5b81601f82011215610bb1578035906001600160401b038211610c2b5760405192610c75601f8401601f191660200185610c08565b82845260208383010111610bb157816000926020809301838601378301015290565b6060906003190112610bb157600435906001600160a01b03906024358281168103610bb157916044359081168103610bb15790565b34610bb1576020366003190112610bb1576020610cea61089f610bb6565b604051908152f35b90600182811c92168015610d22575b6020831014610d0c57565b634e487b7160e01b600052602260045260246000fd5b91607f1691610d01565b90816020910312610bb157518015158103610bb15790565b919091809260018060a01b0390600092828493845416926040938451906323b872dd60e01b8252336004830152306024830152846044830152816064816020998a945af18015610e6957610e4c575b5016938415610e355760008051602061119e833981519152805490838201809211610e21579186917fdcbc1c05240f31ff3ad067ef1ee35ce4997762752e3a095284754544f4c709d79594935581815260008051602061115e83398151915286528381208381540190556000805160206111de833981519152868551858152a38151938185528401523392a3565b634e487b7160e01b83526011600452602483fd5b60249083519063ec442f0560e01b82526004820152fd5b610e6290863d881161026d5761025e8183610c08565b5038610d93565b85513d89823e3d90fd5b6001600160a01b031660009081527f52c63247e1f47db19d5ce0460030c497f067ca4cebf71ba98eeadabe20bace016020526040902090565b6001600160a01b039091168152602081019190915260400190565b604091949392606082019560018060a01b0316825260208201520152565b9190610ef083610e73565b9260018060a01b0390818316916000958387526020526040862054936000198510610f1f575b50505050505050565b858510610f8a5750811615610f71578115610f585790610f426040949392610e73565b9085526020520391205538808080808080610f16565b604051634a1406b160e11b815260048101869052602490fd5b60405163e602df0560e01b815260048101869052602490fd5b8490610fa987604051938493637dc7a0d960e11b855260048501610ec7565b0390fd5b916001600160a01b0380841692831561105c57169283156110435760009083825260008051602061115e83398151915280602052604083205491848310611024575082846000805160206111de833981519152959360409388602097528652038282205586815220818154019055604051908152a3565b9050610fa98460405193849363391434e360e21b855260048501610ec7565b60405163ec442f0560e01b815260006004820152602490fd5b604051634b637e8f60e11b815260006004820152602490fd5b91906001600160a01b03831690811561105c578160005260008051602061115e83398151915280602052604060002054948286106110ef5750816000805160206111de8339815191529260009596602093868852845203604086205560008051602061119e833981519152818154039055604051908152a3565b8590610fa98460405193849363391434e360e21b855260048501610ec7565b60ff6000805160206111fe8339815191525460401c161561112b57565b604051631afcd79f60e31b8152600490fdfe52c63247e1f47db19d5ce0460030c497f067ca4cebf71ba98eeadabe20bace0352c63247e1f47db19d5ce0460030c497f067ca4cebf71ba98eeadabe20bace0052c63247e1f47db19d5ce0460030c497f067ca4cebf71ba98eeadabe20bace0452c63247e1f47db19d5ce0460030c497f067ca4cebf71ba98eeadabe20bace02fbde797d201c681b91056529119e0b02407c7bb96a4a2c75c01fc9667232c8dbddf252ad1be2c89b69c2b068fc378daa952ba7f163c4a11628f55a4df523b3eff0c57e16840df040f15088dc2f81fe391c3923bec73e23a9662efc9c229c6a00a26469706673582212206f2175bfdd4568d44e6790c010a8501b2d8b55f962aceb27f6f178d473eb088a64736f6c63430008160033",
  "linkReferences": {},
  "deployedLinkReferences": {}
}