{
  "_format": "hh-sol-artifact-1",
  "contractName": "TestRetrieveFundsFacet",
  "sourceName": "contracts/test/TestRetrieveFundsFacet.sol",
  "abi": [
    {
      "inputs": [
        {
          "internalType": "bytes4",
          "name": "method",
          "type": "bytes4"
        },
        {
          "internalType": "address",
          "name": "",
          "type": "address"
        },
        {
          "internalType": "address",
          "name": "token",
          "type": "address"
        },
        {
          "internalType": "address",
          "name": "",
          "type": "address"
        },
        {
          "internalType": "uint256",
          "name": "amount",
          "type": "uint256"
        },
        {
          "internalType": "bool",
          "name": "",
          "type": "bool"
        },
        {
          "internalType": "bytes",
          "name": "",
          "type": "bytes"
        }
      ],
      "name": "generateCalldata",
      "outputs": [
        {
          "internalType": "bytes",
          "name": "",
          "type": "bytes"
        }
      ],
      "stateMutability": "view",
      "type": "function"
    },
    {
      "inputs": [
        {
          "internalType": "address",
          "name": "token",
          "type": "address"
        },
        {
          "internalType": "uint256",
          "name": "amount",
          "type": "uint256"
        }
      ],
      "name": "mockRetrieveFunds",
      "outputs": [],
      "stateMutability": "nonpayable",
      "type": "function"
    },
    {
      "inputs": [],
      "name": "noopForRetrieveFunds",
      "outputs": [],
      "stateMutability": "pure",
      "type": "function"
    }
  ],
  "bytecode": "0x60808060405234610016576105da908161001c8239f35b600080fdfe6080604081815260048036101561001557600080fd5b600092833560e01c9081634dadb94b1461012557508063821a3075146101115763876f90c21461004457600080fd5b346101005760e0366003190112610100578035926001600160e01b0319841684036100fd576001600160a01b03916024358381160361010c5760443592808416840361010c576064359081160361010c5760a435801515036101085760c435906001600160401b039081831161010457366023840112156101045782013590811161010057369101602401116100fd57506100f9926100e6916084359161037d565b90519182916020835260208301906102b3565b0390f35b80fd5b8280fd5b8380fd5b5080fd5b600080fd5b83346100fd57806003193601126100fd5780f35b849291503461010057836003193601126101005781356001600160a01b03811691908290036101045783806024359261015d816102f3565b602081527f6d6f636b526574726965766546756e64732063616c6c65642c20746f6b656e3a60208201526101ec6102008951610198816102f3565b600781526630b6b7bab73a1d60c91b60208201528a519283916101d460208401966348e8889760e11b88526080602486015260a48501906102b3565b908a60448501526023198483030160648501526102b3565b87608483015203601f19810183528261033f565b51906a636f6e736f6c652e6c6f675afa50813b156101045761023b849392849287519586809481936340c10f1960e01b835230898401610362565b03925af180156102a95761027c575b826102798551610259816102f3565b600e81526d1b5a5b9d081cdd58d8d95959195960921b6020820152610563565b80f35b6001600160401b038211610296575082526102798361024a565b634e487b7160e01b835260419052602482fd5b84513d85823e3d90fd5b919082519283825260005b8481106102df575050826000602080949584010152601f8019910116010190565b6020818301810151848301820152016102be565b604081019081106001600160401b0382111761030e57604052565b634e487b7160e01b600052604160045260246000fd5b606081019081106001600160401b0382111761030e57604052565b601f909101601f19168101906001600160401b0382119082101761030e57604052565b6001600160a01b039091168152602081019190915260400190565b919060409081519261038e846102f3565b601784526103bc6020947619d95b995c985d1950d85b1b19185d184818d85b1b1959604a1b86820152610563565b6103eb83516103ca816102f3565b601081526f36b2ba3437b21039b2b632b1ba37b91d60811b86820152610563565b82519184830163e05f48d160e01b9384825260008060249963ffffffff60e01b1692838b8201528a815261041e81610324565b516a636f6e736f6c652e6c6f6794855afa5061046a865161043e816102f3565b601b81527a36b7b1b5a932ba3934b2bb32a33ab732399039b2b632b1ba37b91d60291b89820152610563565b600080875193898501978852634dadb94b60e01b9785898d819801528c815261049281610324565b51915afa50146104f6575050509091506104d881516104b0816102f3565b601781527672657475726e696e67206e6f6f702063616c6c6461746160481b84820152610563565b519063821a307560e01b90820152600481526104f3816102f3565b90565b6105559295846105476104f397965161050e81610324565b8381527f72657475726e696e67206d6f636b526574726965766546756e64732063616c6c88820152636461746160e01b83820152610563565b519687958601528401610362565b03601f19810183528261033f565b6000809160405161059181610555602082019463104c13eb60e21b86526020602484015260448301906102b3565b51906a636f6e736f6c652e6c6f675afa5056fea264697066735822122018d8b7b9a77e7d44a75a5088e6443336276d87da8a2e4d2520a318975f46c6a064736f6c63430008160033",
  "linkReferences": {},
  "deployedLinkReferences": {}
}