{
  "_format": "hh-sol-artifact-1",
  "contractName": "Versionable",
  "sourceName": "contracts/lib/Versionable.sol",
  "abi": [
    {
      "inputs": [],
      "name": "version",
      "outputs": [
        {
          "internalType": "string",
          "name": "",
          "type": "string"
        }
      ],
      "stateMutability": "view",
      "type": "function"
    }
  ],
  "bytecode": "0x608060405234801561001057600080fd5b5060e38061001f6000396000f3fe6080604052348015600f57600080fd5b506004361060285760003560e01c806354fd4d5014602d575b600080fd5b604080518082018252600b81526a19195d995b1bdc1b595b9d60aa1b60208201529051605891906061565b60405180910390f35b600060208083528351808285015260005b81811015608c578581018301518582016040015282016072565b506000604082860101526040601f19601f830116850101925050509291505056fea264697066735822122062d80bccd06fbf4340f22377aec487dcdee9ec489cbf8ac509e87127142b834964736f6c63430008120033",
  "linkReferences": {},
  "deployedLinkReferences": {}
}