{
  "_format": "hh-sol-artifact-1",
  "contractName": "Permit2Facet",
  "sourceName": "contracts/facets/Permit2Facet.sol",
  "abi": [
    {
      "inputs": [],
      "name": "Expired",
      "type": "error"
    },
    {
      "inputs": [],
      "name": "InvalidOwner",
      "type": "error"
    },
    {
      "inputs": [],
      "name": "InvalidSpender",
      "type": "error"
    },
    {
      "inputs": [
        {
          "internalType": "uint8",
          "name": "bits",
          "type": "uint8"
        },
        {
          "internalType": "uint256",
          "name": "value",
          "type": "uint256"
        }
      ],
      "name": "SafeCastOverflowedUintDowncast",
      "type": "error"
    },
    {
      "inputs": [],
      "name": "ZeroAmount",
      "type": "error"
    },
    {
      "inputs": [
        {
          "components": [
            {
              "components": [
                {
                  "internalType": "address",
                  "name": "token",
                  "type": "address"
                },
                {
                  "internalType": "uint160",
                  "name": "amount",
                  "type": "uint160"
                },
                {
                  "internalType": "uint48",
                  "name": "expiration",
                  "type": "uint48"
                },
                {
                  "internalType": "uint48",
                  "name": "nonce",
                  "type": "uint48"
                }
              ],
              "internalType": "struct IAllowanceTransfer.PermitDetails",
              "name": "details",
              "type": "tuple"
            },
            {
              "internalType": "address",
              "name": "spender",
              "type": "address"
            },
            {
              "internalType": "uint256",
              "name": "sigDeadline",
              "type": "uint256"
            }
          ],
          "internalType": "struct IAllowanceTransfer.PermitSingle",
          "name": "permitSingle",
          "type": "tuple"
        },
        {
          "internalType": "bytes",
          "name": "signature",
          "type": "bytes"
        },
        {
          "internalType": "bool",
          "name": "skipRevert",
          "type": "bool"
        }
      ],
      "name": "approve2",
      "outputs": [],
      "stateMutability": "nonpayable",
      "type": "function"
    },
    {
      "inputs": [
        {
          "components": [
            {
              "components": [
                {
                  "internalType": "address",
                  "name": "token",
                  "type": "address"
                },
                {
                  "internalType": "uint160",
                  "name": "amount",
                  "type": "uint160"
                },
                {
                  "internalType": "uint48",
                  "name": "expiration",
                  "type": "uint48"
                },
                {
                  "internalType": "uint48",
                  "name": "nonce",
                  "type": "uint48"
                }
              ],
              "internalType": "struct IAllowanceTransfer.PermitDetails",
              "name": "details",
              "type": "tuple"
            },
            {
              "internalType": "address",
              "name": "spender",
              "type": "address"
            },
            {
              "internalType": "uint256",
              "name": "sigDeadline",
              "type": "uint256"
            }
          ],
          "internalType": "struct IAllowanceTransfer.PermitSingle",
          "name": "permitSingle",
          "type": "tuple"
        },
        {
          "internalType": "address",
          "name": "owner",
          "type": "address"
        },
        {
          "internalType": "bytes",
          "name": "signature",
          "type": "bytes"
        },
        {
          "internalType": "bool",
          "name": "skipRevert",
          "type": "bool"
        }
      ],
      "name": "approve2Diamond",
      "outputs": [],
      "stateMutability": "nonpayable",
      "type": "function"
    },
    {
      "inputs": [
        {
          "components": [
            {
              "components": [
                {
                  "internalType": "address",
                  "name": "token",
                  "type": "address"
                },
                {
                  "internalType": "uint160",
                  "name": "amount",
                  "type": "uint160"
                },
                {
                  "internalType": "uint48",
                  "name": "expiration",
                  "type": "uint48"
                },
                {
                  "internalType": "uint48",
                  "name": "nonce",
                  "type": "uint48"
                }
              ],
              "internalType": "struct IAllowanceTransfer.PermitDetails",
              "name": "details",
              "type": "tuple"
            },
            {
              "internalType": "address",
              "name": "spender",
              "type": "address"
            },
            {
              "internalType": "uint256",
              "name": "sigDeadline",
              "type": "uint256"
            }
          ],
          "internalType": "struct IAllowanceTransfer.PermitSingle",
          "name": "permitSingle",
          "type": "tuple"
        },
        {
          "internalType": "address",
          "name": "owner",
          "type": "address"
        },
        {
          "internalType": "bytes",
          "name": "signature",
          "type": "bytes"
        },
        {
          "internalType": "bool",
          "name": "skipRevert",
          "type": "bool"
        }
      ],
      "name": "approve2TermContract",
      "outputs": [],
      "stateMutability": "nonpayable",
      "type": "function"
    },
    {
      "inputs": [
        {
          "internalType": "address",
          "name": "asset",
          "type": "address"
        },
        {
          "internalType": "uint256",
          "name": "amount",
          "type": "uint256"
        }
      ],
      "name": "transferFrom2",
      "outputs": [],
      "stateMutability": "nonpayable",
      "type": "function"
    }
  ],
  "bytecode": "0x6080806040523461001657610913908161001c8239f35b600080fdfe6040608081526004908136101561001557600080fd5b600091823560e01c806354c53ef0146104ca57806368972f3414610435578063af504202146102a55763c3e5b6d31461004d57600080fd5b3461014e5761005b36610605565b9593929061006a9592956107e7565b6100758585016106ad565b65ffffffffffff4291161115610295576001600160a01b038281161561028557889089907f2a2e13707d6b40952f0aec05e2811137753b06b56d55208636050ec9ee68dd7e8054925b838110610166575b5050505015610156579087949392916e22d473030f116ddee9f6b43ac78ba392833b156101525761010e879692879351998a97889687956302b67b5760e41b875286016106e7565b03925af1918261013a575b505061013657610127610790565b9015610131575080f35b61087a565b5080f35b61014390610661565b61014e578238610119565b8280fd5b8680fd5b8451635461585f60e01b81528390fd5b818d52898d6020858482842001541660808d0187610183826106c0565b955163e7e4b8db60e01b815295168d8601528285602481855afa94851561027a578f909289928f9594879861025b575b5087156101de575b505050505050506101ce576001016100be565b50505050506001388080806100c6565b8495969750906101f0602493926106c0565b915196879485936319afa63b60e11b855216908301525afa9283156102505792610223575b50508d8938868e82806101bb565b6102429250803d10610249575b61023a818361068a565b8101906107cf565b3880610215565b503d610230565b8d51903d90823e3d90fd5b610273919850853d87116102495761023a818361068a565b96386101b3565b508e513d85823e3d90fd5b85516349e27cff60e01b81528490fd5b8451630407b05b60e31b81528390fd5b503461014e57610100366003190181811261042d5760c0136104315760c4356001600160401b03811161042d576102df90369084016105d8565b60e43594851595861503610414576102f56107e7565b6044359165ffffffffffff808416809403610414574284111561041d5760018060a01b0393846000805160206108be8339815191525460081c16976e22d473030f116ddee9f6b43ac78ba394853b156104195751986302b67b5760e41b8a52818a01523585811680910361041457602489015260243585811680910361041457604489015260648801526064359081168091036104145760848701526084359283168093036104145787809594878095938397829560a484015260a43560c484015260e4830152806101048301528061012493848401376000828201840152601f01601f191681010301925af19182610400575b5050610136576103f7610790565b90610131575080f35b61040990610661565b61014e5782386103e9565b600080fd5b8b80fd5b8251630407b05b60e31b81528790fd5b8480fd5b8380fd5b503461014e5761044436610605565b959392906104539592956107e7565b61045e8585016106ad565b65ffffffffffff42911611156102955761047a608085016106c0565b306001600160a01b0390911603610156579087949392916e22d473030f116ddee9f6b43ac78ba392833b156101525761010e879692879351998a97889687956302b67b5760e41b875286016106e7565b509190346105c057806003193601126105c0576001600160a01b0392803584811692919083900361043157602435926105016107e7565b856000805160206108be8339815191525460081c169184156105b2578685116105955790859291876e22d473030f116ddee9f6b43ac78ba3803b156105915760849386928851998a978896631b63c28b60e11b885287015230602487015216604485015260648401525af1908115610588575061057c575080f35b61058590610661565b80f35b513d84823e3d90fd5b8580fd5b6044908560a08651926306dfcc6560e41b84528301526024820152fd5b8351631f2a200560e01b8152fd5b5080fd5b35906001600160a01b038216820361041457565b9181601f84011215610414578235916001600160401b038311610414576020838186019501011161041457565b600319810161012081126104145760c0136104145760049160c4356001600160a01b0381168103610414579160e435906001600160401b0382116104145761064f916004016105d8565b90916101043580151581036104145790565b6001600160401b03811161067457604052565b634e487b7160e01b600052604160045260246000fd5b601f909101601f19168101906001600160401b0382119082101761067457604052565b3565ffffffffffff811681036104145790565b356001600160a01b03811681036104145790565b359065ffffffffffff8216820361041457565b6001600160a01b0391821681529293916101009082610705826105c4565b16602086015260208101359083821680920361041457849360a0926040880152610731604083016106d4565b65ffffffffffff809116606089015261074c606084016106d4565b16608088015261075e608083016105c4565b1682870152013560c08501528060e08501528301528061012093848401376000828201840152601f01601f1916010190565b3d156107ca573d906001600160401b03821161067457604051916107be601f8201601f19166020018461068a565b82523d6000602084013e565b606090565b90816020910312610414575180151581036104145790565b6000805160206108be8339815191525460081c6001600160a01b0316801561084557330361081157565b60405162461bcd60e51b815260206004820152600c60248201526b1d5b985d5d1a1bdc9a5e995960a21b6044820152606490fd5b60405162461bcd60e51b815260206004820152600d60248201526c1d5b9a5b9a5d1a585b1a5e9959609a1b6044820152606490fd5b805190811561088857602001fd5b60405162461bcd60e51b815260206004820152600d60248201526c18d85b1b081c995d995c9d1959609a1b6044820152606490fdfe2a2e13707d6b40952f0aec05e2811137753b06b56d55208636050ec9ee68dd78a264697066735822122087b4351dd6672778ef5e6b551082770bfcadeaadcf8a75ed71e7215ee22bd3e364736f6c63430008160033",
  "linkReferences": {},
  "deployedLinkReferences": {}
}