{
  "_format": "hh-sol-artifact-1",
  "contractName": "TermFlashLoanExecutorFacet",
  "sourceName": "contracts/facets/flashloan/TermFlashLoanExecutorFacet.sol",
  "abi": [
    {
      "inputs": [
        {
          "internalType": "address",
          "name": "flashLoanAggregator_",
          "type": "address"
        }
      ],
      "stateMutability": "nonpayable",
      "type": "constructor"
    },
    {
      "inputs": [
        {
          "internalType": "address",
          "name": "target",
          "type": "address"
        }
      ],
      "name": "AddressEmptyCode",
      "type": "error"
    },
    {
      "inputs": [],
      "name": "EmptyActions",
      "type": "error"
    },
    {
      "inputs": [
        {
          "internalType": "uint256",
          "name": "actionIndex",
          "type": "uint256"
        }
      ],
      "name": "ExpectedInputExceedsMax",
      "type": "error"
    },
    {
      "inputs": [
        {
          "internalType": "uint256",
          "name": "actionIndex",
          "type": "uint256"
        }
      ],
      "name": "ExpectedOutputBelowMin",
      "type": "error"
    },
    {
      "inputs": [],
      "name": "FailedCall",
      "type": "error"
    },
    {
      "inputs": [],
      "name": "FinalOutputTokenMismatch",
      "type": "error"
    },
    {
      "inputs": [],
      "name": "FlashloanAlreadyActive",
      "type": "error"
    },
    {
      "inputs": [],
      "name": "FlashloanNotActive",
      "type": "error"
    },
    {
      "inputs": [],
      "name": "FlashloanRepayIncompatible",
      "type": "error"
    },
    {
      "inputs": [],
      "name": "IncorrectFlashLoanAmount",
      "type": "error"
    },
    {
      "inputs": [
        {
          "internalType": "uint256",
          "name": "actionIndex",
          "type": "uint256"
        }
      ],
      "name": "InputAmountExceeded",
      "type": "error"
    },
    {
      "inputs": [
        {
          "internalType": "uint256",
          "name": "actionIndex",
          "type": "uint256"
        }
      ],
      "name": "InputTokenMatchesOutputToken",
      "type": "error"
    },
    {
      "inputs": [
        {
          "internalType": "uint256",
          "name": "actionIndex",
          "type": "uint256"
        }
      ],
      "name": "InputTokenMismatch",
      "type": "error"
    },
    {
      "inputs": [
        {
          "internalType": "uint256",
          "name": "balance",
          "type": "uint256"
        },
        {
          "internalType": "uint256",
          "name": "needed",
          "type": "uint256"
        }
      ],
      "name": "InsufficientBalance",
      "type": "error"
    },
    {
      "inputs": [],
      "name": "InvalidCaller",
      "type": "error"
    },
    {
      "inputs": [],
      "name": "InvalidFlashLoanReceived",
      "type": "error"
    },
    {
      "inputs": [],
      "name": "InvalidFlashloanAsset",
      "type": "error"
    },
    {
      "inputs": [],
      "name": "InvalidInitiator",
      "type": "error"
    },
    {
      "inputs": [
        {
          "internalType": "uint256",
          "name": "actionIndex",
          "type": "uint256"
        }
      ],
      "name": "InvalidInputToken",
      "type": "error"
    },
    {
      "inputs": [],
      "name": "NoTokensReceived",
      "type": "error"
    },
    {
      "inputs": [
        {
          "internalType": "uint256",
          "name": "actionIndex",
          "type": "uint256"
        }
      ],
      "name": "OutputAmountInsufficient",
      "type": "error"
    },
    {
      "inputs": [
        {
          "internalType": "uint256",
          "name": "actionIndex",
          "type": "uint256"
        }
      ],
      "name": "OutputTokenMismatch",
      "type": "error"
    },
    {
      "inputs": [
        {
          "internalType": "uint8",
          "name": "bits",
          "type": "uint8"
        },
        {
          "internalType": "uint256",
          "name": "value",
          "type": "uint256"
        }
      ],
      "name": "SafeCastOverflowedUintDowncast",
      "type": "error"
    },
    {
      "inputs": [
        {
          "internalType": "address",
          "name": "token",
          "type": "address"
        }
      ],
      "name": "SafeERC20FailedOperation",
      "type": "error"
    },
    {
      "inputs": [],
      "name": "SelectorNotFound",
      "type": "error"
    },
    {
      "inputs": [],
      "name": "UserNotFlashLoanInitiator",
      "type": "error"
    },
    {
      "inputs": [
        {
          "internalType": "uint256",
          "name": "actionIndex",
          "type": "uint256"
        }
      ],
      "name": "ZeroInputToken",
      "type": "error"
    },
    {
      "inputs": [
        {
          "internalType": "uint256",
          "name": "actionIndex",
          "type": "uint256"
        }
      ],
      "name": "ZeroOutputToken",
      "type": "error"
    },
    {
      "inputs": [
        {
          "components": [
            {
              "internalType": "uint256",
              "name": "flashLoanRoute",
              "type": "uint256"
            },
            {
              "internalType": "bytes",
              "name": "flashLoanInstaData",
              "type": "bytes"
            },
            {
              "internalType": "address",
              "name": "flashLoanToken",
              "type": "address"
            },
            {
              "components": [
                {
                  "internalType": "address",
                  "name": "inputToken",
                  "type": "address"
                },
                {
                  "internalType": "uint256",
                  "name": "maxInputAmount",
                  "type": "uint256"
                },
                {
                  "internalType": "address",
                  "name": "outputToken",
                  "type": "address"
                },
                {
                  "internalType": "uint256",
                  "name": "minOutputAmount",
                  "type": "uint256"
                },
                {
                  "internalType": "uint256",
                  "name": "outputTokenAmountIn",
                  "type": "uint256"
                },
                {
                  "internalType": "bool",
                  "name": "usePermit2ForOutputTokenIn",
                  "type": "bool"
                },
                {
                  "internalType": "bytes4",
                  "name": "method",
                  "type": "bytes4"
                },
                {
                  "internalType": "address",
                  "name": "targetAddress",
                  "type": "address"
                },
                {
                  "internalType": "bytes",
                  "name": "additionalCalldata",
                  "type": "bytes"
                }
              ],
              "internalType": "struct TermFlashLoanExecutorFacet.Action[]",
              "name": "actions",
              "type": "tuple[]"
            },
            {
              "internalType": "bool",
              "name": "backPropagate",
              "type": "bool"
            }
          ],
          "internalType": "struct TermFlashLoanExecutorFacet.FlashExecuteRequest",
          "name": "flashExecuteRequest",
          "type": "tuple"
        }
      ],
      "name": "flashExecute",
      "outputs": [],
      "stateMutability": "nonpayable",
      "type": "function"
    },
    {
      "inputs": [
        {
          "internalType": "address[]",
          "name": "assets",
          "type": "address[]"
        },
        {
          "internalType": "uint256[]",
          "name": "amounts",
          "type": "uint256[]"
        },
        {
          "internalType": "uint256[]",
          "name": "premiums",
          "type": "uint256[]"
        },
        {
          "internalType": "address",
          "name": "initiator",
          "type": "address"
        },
        {
          "internalType": "bytes",
          "name": "data",
          "type": "bytes"
        }
      ],
      "name": "flashExecuteCallback",
      "outputs": [
        {
          "internalType": "bool",
          "name": "success",
          "type": "bool"
        }
      ],
      "stateMutability": "nonpayable",
      "type": "function"
    },
    {
      "inputs": [
        {
          "components": [
            {
              "internalType": "address",
              "name": "user",
              "type": "address"
            },
            {
              "internalType": "address",
              "name": "flashLoanToken",
              "type": "address"
            },
            {
              "internalType": "uint256",
              "name": "flashLoanAmount",
              "type": "uint256"
            },
            {
              "components": [
                {
                  "internalType": "address",
                  "name": "inputToken",
                  "type": "address"
                },
                {
                  "internalType": "uint256",
                  "name": "maxInputAmount",
                  "type": "uint256"
                },
                {
                  "internalType": "address",
                  "name": "outputToken",
                  "type": "address"
                },
                {
                  "internalType": "uint256",
                  "name": "minOutputAmount",
                  "type": "uint256"
                },
                {
                  "internalType": "uint256",
                  "name": "outputTokenAmountIn",
                  "type": "uint256"
                },
                {
                  "internalType": "bool",
                  "name": "usePermit2ForOutputTokenIn",
                  "type": "bool"
                },
                {
                  "internalType": "bytes4",
                  "name": "method",
                  "type": "bytes4"
                },
                {
                  "internalType": "address",
                  "name": "targetAddress",
                  "type": "address"
                },
                {
                  "internalType": "bytes",
                  "name": "additionalCalldata",
                  "type": "bytes"
                }
              ],
              "internalType": "struct TermFlashLoanExecutorFacet.Action[]",
              "name": "actions",
              "type": "tuple[]"
            },
            {
              "internalType": "bool",
              "name": "backPropagate",
              "type": "bool"
            }
          ],
          "internalType": "struct TermFlashLoanExecutorFacet.ExecutionPlan",
          "name": "executionPlan",
          "type": "tuple"
        },
        {
          "internalType": "uint256",
          "name": "amountOwing",
          "type": "uint256"
        }
      ],
      "name": "quoteExecutionPlan",
      "outputs": [
        {
          "components": [
            {
              "internalType": "address",
              "name": "user",
              "type": "address"
            },
            {
              "internalType": "address",
              "name": "flashLoanToken",
              "type": "address"
            },
            {
              "internalType": "uint256",
              "name": "flashLoanAmount",
              "type": "uint256"
            },
            {
              "components": [
                {
                  "internalType": "address",
                  "name": "inputToken",
                  "type": "address"
                },
                {
                  "internalType": "uint256",
                  "name": "maxInputAmount",
                  "type": "uint256"
                },
                {
                  "internalType": "address",
                  "name": "outputToken",
                  "type": "address"
                },
                {
                  "internalType": "uint256",
                  "name": "minOutputAmount",
                  "type": "uint256"
                },
                {
                  "internalType": "uint256",
                  "name": "outputTokenAmountIn",
                  "type": "uint256"
                },
                {
                  "internalType": "bool",
                  "name": "usePermit2ForOutputTokenIn",
                  "type": "bool"
                },
                {
                  "internalType": "bytes4",
                  "name": "method",
                  "type": "bytes4"
                },
                {
                  "internalType": "address",
                  "name": "targetAddress",
                  "type": "address"
                },
                {
                  "internalType": "bytes",
                  "name": "additionalCalldata",
                  "type": "bytes"
                }
              ],
              "internalType": "struct TermFlashLoanExecutorFacet.Action[]",
              "name": "actions",
              "type": "tuple[]"
            },
            {
              "internalType": "bool",
              "name": "backPropagate",
              "type": "bool"
            }
          ],
          "internalType": "struct TermFlashLoanExecutorFacet.ExecutionPlan",
          "name": "",
          "type": "tuple"
        }
      ],
      "stateMutability": "view",
      "type": "function"
    }
  ],
  "bytecode": "0x60a03461007857601f611d1c38819003918201601f19168301916001600160401b0383118484101761007d5780849260209460405283398101031261007857516001600160a01b038116810361007857608052604051611c88908161009482396080518181816102e7015281816103af01526105a90152f35b600080fd5b634e487b7160e01b600052604160045260246000fdfe608080604052600436101561001357600080fd5b60003560e01c90816378db42921461119a575080638f236bff146104db5763fbe2da691461004057600080fd5b34610437576020366003190112610437576001600160401b036004358181116104375760a060031982360301126104375760405161007d81611258565b816004013581526024820135838111610437576100a0906004369185010161135e565b91602082019283526100b4604482016112f6565b93604083019485526064820135908111610437576100d890600436918401016113a5565b936100ec6084606085019387855201611321565b946080840195865251156104c957600080516020611c3383398151915280546001600160a01b0381166104b7576001600160a01b031916331790556040516366ffd66360e11b8152638f236bff60e01b600482018190529290602081602481305afa9081156103f05760009161047d575b506040519061016b82611289565b6001600160a01b031681526020810193845281516101939061018c90611727565b513361195f565b50805184519192916001600160a01b039182169116036104645782518051600019810190811161044e576001600160a01b03916040916101d291611734565b5101511660018060a01b038551160361043c5761028461023b9261029094602060018060a01b0388511692019a8b51915190511515916040519361021585611258565b338552602085015260408401526060830152608082015260405193849160208301611512565b039261024f601f19948581018352826112d3565b60405196879360018060a01b03905116602085015263ffffffff60e01b905116604084015260608084015260808301906114ed565b039081018452836112d3565b5160405194906001600160a01b03166102a886611289565b60018652602036818801376102bc86611727565b525191604051926102cc84611289565b60018452602036818601376102e084611727565b52519251927f00000000000000000000000000000000000000000000000000000000000000006001600160a01b03163b156104375760405163095627e960e01b815260a06004820152855160a482018190529095869493929160c48601916020019060005b818110610415575050506003198582030160248601526020808551928381520194019060005b8181106103fc575050509361039884936103aa9360009760448701526003198683030160648701526114ed565b838103600319016084850152906114ed565b0381837f00000000000000000000000000000000000000000000000000000000000000006001600160a01b03165af180156103f0576103e557005b6103ee906112c0565b005b6040513d6000823e3d90fd5b825186528896506020958601959092019160010161036b565b82516001600160a01b0316845289975060209384019390920191600101610345565b600080fd5b6040516338a3b47560e01b8152600490fd5b634e487b7160e01b600052601160045260246000fd5b6040516377ef28b560e01b815260006004820152602490fd5b90506020813d6020116104af575b81610498602093836112d3565b81010312610437576104a990611693565b3861015d565b3d915061048b565b60405163055de1b160e21b8152600490fd5b60405163133b03a960e31b8152600490fd5b346104375760a0366003190112610437576004356001600160401b0381116104375761050b903690600401611638565b906024356001600160401b0381116104375761052b903690600401611638565b90929091906044356001600160401b0381116104375761054f903690600401611638565b6064356001600160a01b0381168103610437576001600160401b036084351161043757366023608435011215610437576001600160401b0360046084350135116104375736602460843560040135608435010111610437577f00000000000000000000000000000000000000000000000000000000000000006001600160a01b0316330361118857306001600160a01b03909116036111765760606084356004810135810103126104375760406084356004810135810103126104375760405161061881611289565b6106266024608435016112f6565b8152602061063860446084350161132e565b9101526001600160401b036084356064013511610437576106736024608435600401356084350101602460646084350135608435010161135e565b948551860195602081880312610437576020810151906001600160401b0382116104375760a082820189031261043757604051976106b089611258565b6106be602084840101611693565b89526106ce604084840101611693565b60208a0152818301606081015160408b0152608001516001600160401b0381116104375760208201603f828686010101121561043757602081858501010151906107178261130a565b9261072560405194856112d3565b82845260208401906020810160408560051b858a8a0101010111610437576040838888010101915b60408560051b858a8a0101010183106110595750505050506060890152610777910160a0016116a7565b6080870152600080516020611c33833981519152548694906001600160a01b03168015610efd5787516001600160a01b031603611047576001811480159061103c575b8015611031575b61101f5715610fe5576107d3856116f9565b60208701516001600160a01b0390811691160361100d5715610fe5576040850151863503610ffb5715610fe55761080c9035853561170d565b92839160808201511515600014610f5457506108319161082b91611773565b916116f9565b92356000905b60608301518051831015610e7a576001600160a01b0390610859908490611734565b51511615610e615760018060a01b036040610878846060870151611734565b5101511615610e485760608301516001600160a01b039061089a908490611734565b51511660018060a01b0360406108b4856060880151611734565b5101511614610e2f5760608301516001600160a01b03906108d6908490611734565b5151166001600160a01b03861603610e165760206108f8836060860151611734565b5101518110610dfd575b60018060a01b0383511661092561091d846060870151611734565b51809261195f565b82518251919892916001600160a01b03918216911603610de4576020830151602082015111610dcb57604083810151908201516001600160a01b03918216911603610db257608081015115159081610da0575b50610d8757815160408084015190516370a0823160e01b81523060048201526001600160a01b039283169990929091166020836024818d5afa9283156103f057600093610d53575b506040516370a0823160e01b815230600482015291602083602481855afa9283156103f057600093610d1e575b5060249a610a12600080846020809651910182305af1610a0b611b9f565b9030611bcf565b506040516370a0823160e01b81523060048201529b8c9182905afa998a156103f05760009a610ce7575b50906020602492604051938480926370a0823160e01b82523060048301525afa9182156103f057600092610cb3575b5080821115610ca157610a7d9161171a565b9781811015610c9757610a8f9161171a565b915b604060018060a01b039101511692876020610ab08760608a0151611734565b5101518411610c7e576060610ac887828a0151611734565b5101518110610c65576080610ae18760608a0151611734565b5101519081610b32575b5050908183600195949311610b07575b50505094910190610837565b610b1d610b2a93868060a01b038951169261171a565b91858060a01b031661190e565b868080610afb565b9094939291985060a0610b498760608a0151611734565b51015115610c185786516001600160a01b0390811695908111610bf9576e22d473030f116ddee9f6b43ac78ba33b1561043757604051631b63c28b60e11b815260048101969096523060248701526001600160a01b038116604487015260648601859052600086608481836e22d473030f116ddee9f6b43ac78ba35af19182156103f057600196610bdf93610bea575b5061170d565b979091929389610aeb565b610bf3906112c0565b8b610bd9565b604490604051906306dfcc6560e41b825260a060048301526024820152fd5b600194610bdf91610c60878060a01b038a5116604051906323b872dd60e01b6020830152602482015230604482015283606482015260648152610c5a81611258565b87611b43565b61170d565b60405163017f0aad60e71b815260048101879052602490fd5b604051636fde21c560e11b815260048101879052602490fd5b5050600091610a91565b604051639671a89f60e01b8152600490fd5b9091506020813d602011610cdf575b81610ccf602093836112d3565b810103126104375751908a610a6b565b3d9150610cc2565b919099506020823d602011610d16575b81610d04602093836112d3565b81010312610437579051986020610a3c565b3d9150610cf7565b9092506020813d602011610d4b575b81610d3a602093836112d3565b8101031261043757519160246109ed565b3d9150610d2d565b9092506020813d602011610d7f575b81610d6f602093836112d3565b810103126104375751918a6109c0565b3d9150610d62565b604051632ad66f9b60e11b815260048101859052602490fd5b90506060808401519101511088610978565b604051634613205160e01b815260048101869052602490fd5b604051631948244360e21b815260048101869052602490fd5b604051630a0452ab60e21b815260048101869052602490fd5b806020610e0e846060870151611734565b510152610902565b6040516377ef28b560e01b815260048101839052602490fd5b6040516384fef31960e01b815260048101839052602490fd5b60405163684e1a7560e11b815260048101839052602490fd5b60405163120db90960e01b815260048101839052602490fd5b602084015185906001600160a01b038089169185918891168314801590610f4b575b610f3957610eab84338561190e565b838211610f0f575b5050600080516020611c33833981519152549150506001600160a01b03811615610efd576001600160a01b031916600080516020611c338339815191525560405160018152602090f35b604051635dbc17c960e01b8152600490fd5b51610f30936001600160a01b0390911691610f2a919061171a565b9161190e565b80808080610eb3565b604051632062961f60e01b8152600490fd5b50838210610e9c565b929091506060820151518060001981011161044e57610831926080610f8160001984016060840151611734565b51015180871115610fdc57610f96908761171a565b915b6060610fab600019830182850151611734565b5101518311610fbd575b5050506116f9565b606091820151610fd1916000190190611734565b510152858080610fb5565b50600091610f98565b634e487b7160e01b600052603260045260246000fd5b6040516305cd7d5760e41b8152600490fd5b604051634d948efd60e01b8152600490fd5b604051630d9b01fd60e41b8152600490fd5b5060018314156107c1565b5060018214156107ba565b6040516337659eb960e11b8152600490fd5b82516001600160401b03811161043757610120888a01860182018403601f1901126104375760405191886110eb60e084898e611094896112a4565b6110a660408484848a01010101611693565b895285810182018301606081015160208b01526110c590608001611693565b60408a015260a09501010192830151606087015260c080840151608088015292016116a7565b60a0850152898b01870183016101000151906001600160e01b0319821682036104375784015261112461012083888d8d01010101611693565b60e0840152888a01860182016101400151906001600160401b038211610437576040936111638b86602096958f968c8998898d019501010101016116b4565b610100820152815201930192905061074d565b6040516317fb43e560e31b8152600490fd5b6040516348f5c3ed60e01b8152600490fd5b346104375760031960403682011261043757600435916001600160401b03918284116104375760a0908436030112610437576111d581611258565b6111e1836004016112f6565b81526111ef602484016112f6565b60208201526044830135604082015260648301359182116104375761123160846112549461122661124895600436918401016113a5565b606085015201611321565b608082015261123e611668565b5060243590611773565b60405191829182611512565b0390f35b60a081019081106001600160401b0382111761127357604052565b634e487b7160e01b600052604160045260246000fd5b604081019081106001600160401b0382111761127357604052565b61012081019081106001600160401b0382111761127357604052565b6001600160401b03811161127357604052565b601f909101601f19168101906001600160401b0382119082101761127357604052565b35906001600160a01b038216820361043757565b6001600160401b0381116112735760051b60200190565b3590811515820361043757565b35906001600160e01b03198216820361043757565b6001600160401b03811161127357601f01601f191660200190565b81601f820112156104375780359061137582611343565b9261138360405194856112d3565b8284526020838301011161043757816000926020809301838601378301015290565b81601f82011215610437578035916020916113bf8461130a565b936040926113d060405196876112d3565b818652848087019260051b8401019381851161043757858401925b8584106113fc575050505050505090565b6001600160401b0384358181116104375786019161012080601f1985880301126104375784519061142c826112a4565b6114378b86016112f6565b8252858501358b83015260609061144f8287016112f6565b87840152608091828701359084015260a091828701359084015260c091611477838801611321565b9084015260e09161148983880161132e565b908401526101009161149c8388016112f6565b90840152850135938411610437576114bb878c8097968197010161135e565b908201528152019301926113eb565b60005b8381106114dd5750506000910152565b81810151838201526020016114cd565b90602091611506815180928185528580860191016114ca565b601f01601f1916010190565b60209182825260c09260c0830160018060a01b03918284511681860152808401519280604094166040870152604085015196606097606088015260608601519760a09560809360a060808b01528a5180975260e09060e08b01948760e08d8b60051b01019d01996000975b8a891061159f57505050505050505050505050608060a0910151151591015290565b909192939495969798808c9f8f9d829d9e60df19908303018c525190610120908883511681528383015184820152888b840151168b8201528b8301518c82015285830151868201528683015115158782015263ffffffff60e01b888401511688820152888a840151168a82015281610100809401519382015201611622916114ed565b9f019b9a9960010198019695949392919061157d565b9181601f84011215610437578235916001600160401b038311610437576020808501948460051b01011161043757565b6040519061167582611258565b60006080838281528260208201528260408201526060808201520152565b51906001600160a01b038216820361043757565b5190811515820361043757565b81601f820112156104375780516116ca81611343565b926116d860405194856112d3565b81845260208284010111610437576116f691602080850191016114ca565b90565b356001600160a01b03811681036104375790565b9190820180921161044e57565b9190820391821161044e57565b805115610fe55760200190565b8051821015610fe55760209160051b010190565b6040519061175582611258565b60006080838281528260208201528260408201528260608201520152565b9061177c611668565b50611785611748565b506040908151611794816112a4565b6000808252602091816020820152818582015260609282606083015260606101006080938560808201528560a08201528560c08201528560e082015201526060870192835151805b6117eb57505050505050505090565b600019016117fa818651611734565b5196868801805191868a0151808211600014611906576118199161171a565b81528a516001600160a01b0390611833908b90831661195f565b509287840192835115806118fc575b6118f4575b5050808a511681845116036118dc57808b8b015116908b84015116036118c457848901908582519301928351116118ac57839261189c928492516118a2575b5051998851906118968383611734565b52611734565b506117dc565b8151905238611886565b8a51631948244360e21b815260048101859052602490fd5b8951634613205160e01b815260048101849052602490fd5b8a51630a0452ab60e21b815260048101859052602490fd5b523880611847565b5080518211611842565b505083611819565b60405163a9059cbb60e01b60208201526001600160a01b03909216602483015260448083019390935291815260808101916001600160401b038311828410176112735761195d92604052611b43565b565b91909161196a611748565b5060c083018051604080516366ffd66360e11b81526001600160e01b03199283166004820152909560209491939192918585602481305afa948515611b3857600095611afe575b506001600160a01b039285841615611aed5792611a5687611a488b86611a699a9996600099878b9a5116918684015191898686015116906060860151925116928a60e087015116946101008097015197519b8c9a8b019d8e639ef72eff60e01b90521660248b015260448a01526064890152608488015260a487015260c486015260e48501526101048401526101248301906114ed565b03601f1981018352826112d3565b5190845afa611a63611b9f565b91611bcf565b805181019181830360c081126104375760a01361043757845194611a8c86611258565b611a97828401611693565b86528083015182870152611aad60608401611693565b9086015260808201516060860152611ac760a083016116a7565b608086015260c08201516001600160401b03811161043757816116f694019201016116b4565b885163d5cf065560e01b8152600490fd5b90948682813d8311611b31575b611b1581836112d3565b81010312611b2e5750611b2790611693565b93386119b1565b80fd5b503d611b0b565b88513d6000823e3d90fd5b906000602091828151910182855af1156103f0576000513d611b9657506001600160a01b0381163b155b611b745750565b604051635274afe760e01b81526001600160a01b039091166004820152602490fd5b60011415611b6d565b3d15611bca573d90611bb082611343565b91611bbe60405193846112d3565b82523d6000602084013e565b606090565b90611bf65750805115611be457805190602001fd5b60405163d6bda27560e01b8152600490fd5b81511580611c29575b611c07575090565b604051639996b31560e01b81526001600160a01b039091166004820152602490fd5b50803b15611bff56fec9e4fb8bffaf71b56abf2a5032f2ea641e97267f8c0d9bcf66c86998c650d62aa2646970667358221220940817944c3b184c89fc6ebbaffcd95d52dbb32ab42e9185318af8fe330a0ebe64736f6c63430008160033",
  "linkReferences": {},
  "deployedLinkReferences": {}
}