{
  "_format": "hh-sol-artifact-1",
  "contractName": "TermRepoServicer",
  "sourceName": "contracts/TermRepoServicer.sol",
  "abi": [
    {
      "inputs": [],
      "stateMutability": "nonpayable",
      "type": "constructor"
    },
    {
      "inputs": [],
      "name": "AfterMaturity",
      "type": "error"
    },
    {
      "inputs": [],
      "name": "AfterRepurchaseWindow",
      "type": "error"
    },
    {
      "inputs": [],
      "name": "AlreadyTermContractPaired",
      "type": "error"
    },
    {
      "inputs": [],
      "name": "CallerNotBorrower",
      "type": "error"
    },
    {
      "inputs": [],
      "name": "EncumberedCollateralRemaining",
      "type": "error"
    },
    {
      "inputs": [],
      "name": "InsufficientCollateral",
      "type": "error"
    },
    {
      "inputs": [],
      "name": "InsufficientTermRepoTokenBalance",
      "type": "error"
    },
    {
      "inputs": [],
      "name": "InsufficientgetBorrowerRepurchaseObligation",
      "type": "error"
    },
    {
      "inputs": [
        {
          "internalType": "string",
          "name": "message",
          "type": "string"
        }
      ],
      "name": "InvalidParameters",
      "type": "error"
    },
    {
      "inputs": [],
      "name": "LockedBalanceInsufficient",
      "type": "error"
    },
    {
      "inputs": [],
      "name": "NoMintOpenExposureAccess",
      "type": "error"
    },
    {
      "inputs": [],
      "name": "NotMaturedYet",
      "type": "error"
    },
    {
      "inputs": [],
      "name": "RedemptionPeriodNotOpen",
      "type": "error"
    },
    {
      "inputs": [],
      "name": "RepurchaseAmountTooHigh",
      "type": "error"
    },
    {
      "inputs": [],
      "name": "ZeroBorrowerRepurchaseObligation",
      "type": "error"
    },
    {
      "inputs": [],
      "name": "ZeroMaxRepurchase",
      "type": "error"
    },
    {
      "inputs": [],
      "name": "ZeroTermRepoTokenBalance",
      "type": "error"
    },
    {
      "anonymous": false,
      "inputs": [
        {
          "indexed": false,
          "internalType": "address",
          "name": "previousAdmin",
          "type": "address"
        },
        {
          "indexed": false,
          "internalType": "address",
          "name": "newAdmin",
          "type": "address"
        }
      ],
      "name": "AdminChanged",
      "type": "event"
    },
    {
      "anonymous": false,
      "inputs": [
        {
          "indexed": true,
          "internalType": "address",
          "name": "beacon",
          "type": "address"
        }
      ],
      "name": "BeaconUpgraded",
      "type": "event"
    },
    {
      "anonymous": false,
      "inputs": [
        {
          "indexed": false,
          "internalType": "uint8",
          "name": "version",
          "type": "uint8"
        }
      ],
      "name": "Initialized",
      "type": "event"
    },
    {
      "anonymous": false,
      "inputs": [
        {
          "indexed": true,
          "internalType": "bytes32",
          "name": "role",
          "type": "bytes32"
        },
        {
          "indexed": true,
          "internalType": "bytes32",
          "name": "previousAdminRole",
          "type": "bytes32"
        },
        {
          "indexed": true,
          "internalType": "bytes32",
          "name": "newAdminRole",
          "type": "bytes32"
        }
      ],
      "name": "RoleAdminChanged",
      "type": "event"
    },
    {
      "anonymous": false,
      "inputs": [
        {
          "indexed": true,
          "internalType": "bytes32",
          "name": "role",
          "type": "bytes32"
        },
        {
          "indexed": true,
          "internalType": "address",
          "name": "account",
          "type": "address"
        },
        {
          "indexed": true,
          "internalType": "address",
          "name": "sender",
          "type": "address"
        }
      ],
      "name": "RoleGranted",
      "type": "event"
    },
    {
      "anonymous": false,
      "inputs": [
        {
          "indexed": true,
          "internalType": "bytes32",
          "name": "role",
          "type": "bytes32"
        },
        {
          "indexed": true,
          "internalType": "address",
          "name": "account",
          "type": "address"
        },
        {
          "indexed": true,
          "internalType": "address",
          "name": "sender",
          "type": "address"
        }
      ],
      "name": "RoleRevoked",
      "type": "event"
    },
    {
      "anonymous": false,
      "inputs": [
        {
          "indexed": true,
          "internalType": "address",
          "name": "implementation",
          "type": "address"
        }
      ],
      "name": "Upgraded",
      "type": "event"
    },
    {
      "inputs": [],
      "name": "ADMIN_ROLE",
      "outputs": [
        {
          "internalType": "bytes32",
          "name": "",
          "type": "bytes32"
        }
      ],
      "stateMutability": "view",
      "type": "function"
    },
    {
      "inputs": [],
      "name": "AUCTIONEER",
      "outputs": [
        {
          "internalType": "bytes32",
          "name": "",
          "type": "bytes32"
        }
      ],
      "stateMutability": "view",
      "type": "function"
    },
    {
      "inputs": [],
      "name": "AUCTION_LOCKER",
      "outputs": [
        {
          "internalType": "bytes32",
          "name": "",
          "type": "bytes32"
        }
      ],
      "stateMutability": "view",
      "type": "function"
    },
    {
      "inputs": [],
      "name": "COLLATERAL_MANAGER",
      "outputs": [
        {
          "internalType": "bytes32",
          "name": "",
          "type": "bytes32"
        }
      ],
      "stateMutability": "view",
      "type": "function"
    },
    {
      "inputs": [],
      "name": "DEFAULT_ADMIN_ROLE",
      "outputs": [
        {
          "internalType": "bytes32",
          "name": "",
          "type": "bytes32"
        }
      ],
      "stateMutability": "view",
      "type": "function"
    },
    {
      "inputs": [],
      "name": "DEVOPS_ROLE",
      "outputs": [
        {
          "internalType": "bytes32",
          "name": "",
          "type": "bytes32"
        }
      ],
      "stateMutability": "view",
      "type": "function"
    },
    {
      "inputs": [],
      "name": "INITIALIZER_ROLE",
      "outputs": [
        {
          "internalType": "bytes32",
          "name": "",
          "type": "bytes32"
        }
      ],
      "stateMutability": "view",
      "type": "function"
    },
    {
      "inputs": [],
      "name": "ROLLOVER_MANAGER",
      "outputs": [
        {
          "internalType": "bytes32",
          "name": "",
          "type": "bytes32"
        }
      ],
      "stateMutability": "view",
      "type": "function"
    },
    {
      "inputs": [],
      "name": "ROLLOVER_TARGET_AUCTIONEER_ROLE",
      "outputs": [
        {
          "internalType": "bytes32",
          "name": "",
          "type": "bytes32"
        }
      ],
      "stateMutability": "view",
      "type": "function"
    },
    {
      "inputs": [],
      "name": "SPECIALIST_ROLE",
      "outputs": [
        {
          "internalType": "bytes32",
          "name": "",
          "type": "bytes32"
        }
      ],
      "stateMutability": "view",
      "type": "function"
    },
    {
      "inputs": [],
      "name": "YEAR_SECONDS",
      "outputs": [
        {
          "internalType": "uint256",
          "name": "",
          "type": "uint256"
        }
      ],
      "stateMutability": "view",
      "type": "function"
    },
    {
      "inputs": [
        {
          "internalType": "address",
          "name": "termAuction",
          "type": "address"
        }
      ],
      "name": "approveRolloverAuction",
      "outputs": [],
      "stateMutability": "nonpayable",
      "type": "function"
    },
    {
      "inputs": [
        {
          "internalType": "uint256",
          "name": "amountToBurn",
          "type": "uint256"
        }
      ],
      "name": "burnCollapseExposure",
      "outputs": [],
      "stateMutability": "nonpayable",
      "type": "function"
    },
    {
      "inputs": [
        {
          "internalType": "address",
          "name": "borrower",
          "type": "address"
        },
        {
          "internalType": "uint256",
          "name": "rolloverSettlementAmount",
          "type": "uint256"
        }
      ],
      "name": "closeExposureOnRolloverExisting",
      "outputs": [
        {
          "internalType": "uint256",
          "name": "",
          "type": "uint256"
        }
      ],
      "stateMutability": "nonpayable",
      "type": "function"
    },
    {
      "inputs": [],
      "name": "endOfRepurchaseWindow",
      "outputs": [
        {
          "internalType": "uint256",
          "name": "",
          "type": "uint256"
        }
      ],
      "stateMutability": "view",
      "type": "function"
    },
    {
      "inputs": [
        {
          "internalType": "address",
          "name": "bidder",
          "type": "address"
        },
        {
          "internalType": "uint256",
          "name": "purchasePrice",
          "type": "uint256"
        },
        {
          "internalType": "uint256",
          "name": "repurchasePrice",
          "type": "uint256"
        },
        {
          "internalType": "address[]",
          "name": "collateralTokens",
          "type": "address[]"
        },
        {
          "internalType": "uint256[]",
          "name": "collateralAmounts",
          "type": "uint256[]"
        },
        {
          "internalType": "uint256",
          "name": "dayCountFractionMantissa",
          "type": "uint256"
        }
      ],
      "name": "fulfillBid",
      "outputs": [],
      "stateMutability": "nonpayable",
      "type": "function"
    },
    {
      "inputs": [
        {
          "internalType": "address",
          "name": "offeror",
          "type": "address"
        },
        {
          "internalType": "uint256",
          "name": "purchasePrice",
          "type": "uint256"
        },
        {
          "internalType": "uint256",
          "name": "repurchasePrice",
          "type": "uint256"
        },
        {
          "internalType": "bytes32",
          "name": "offerId",
          "type": "bytes32"
        }
      ],
      "name": "fulfillOffer",
      "outputs": [],
      "stateMutability": "nonpayable",
      "type": "function"
    },
    {
      "inputs": [
        {
          "internalType": "address",
          "name": "borrower",
          "type": "address"
        }
      ],
      "name": "getBorrowerRepurchaseObligation",
      "outputs": [
        {
          "internalType": "uint256",
          "name": "",
          "type": "uint256"
        }
      ],
      "stateMutability": "view",
      "type": "function"
    },
    {
      "inputs": [
        {
          "internalType": "bytes32",
          "name": "role",
          "type": "bytes32"
        }
      ],
      "name": "getRoleAdmin",
      "outputs": [
        {
          "internalType": "bytes32",
          "name": "",
          "type": "bytes32"
        }
      ],
      "stateMutability": "view",
      "type": "function"
    },
    {
      "inputs": [
        {
          "internalType": "bytes32",
          "name": "role",
          "type": "bytes32"
        },
        {
          "internalType": "address",
          "name": "account",
          "type": "address"
        }
      ],
      "name": "grantRole",
      "outputs": [],
      "stateMutability": "nonpayable",
      "type": "function"
    },
    {
      "inputs": [
        {
          "internalType": "bytes32",
          "name": "role",
          "type": "bytes32"
        },
        {
          "internalType": "address",
          "name": "account",
          "type": "address"
        }
      ],
      "name": "hasRole",
      "outputs": [
        {
          "internalType": "bool",
          "name": "",
          "type": "bool"
        }
      ],
      "stateMutability": "view",
      "type": "function"
    },
    {
      "inputs": [
        {
          "internalType": "string",
          "name": "termRepoId_",
          "type": "string"
        },
        {
          "internalType": "uint256",
          "name": "maturityTimestamp_",
          "type": "uint256"
        },
        {
          "internalType": "uint256",
          "name": "repurchaseWindow_",
          "type": "uint256"
        },
        {
          "internalType": "uint256",
          "name": "redemptionBuffer_",
          "type": "uint256"
        },
        {
          "internalType": "uint256",
          "name": "servicingFee_",
          "type": "uint256"
        },
        {
          "internalType": "address",
          "name": "purchaseToken_",
          "type": "address"
        },
        {
          "internalType": "contract ITermController",
          "name": "termController_",
          "type": "address"
        },
        {
          "internalType": "contract ITermEventEmitter",
          "name": "emitter_",
          "type": "address"
        },
        {
          "internalType": "address",
          "name": "termInitializer_",
          "type": "address"
        }
      ],
      "name": "initialize",
      "outputs": [],
      "stateMutability": "nonpayable",
      "type": "function"
    },
    {
      "inputs": [],
      "name": "isTermRepoBalanced",
      "outputs": [
        {
          "internalType": "bool",
          "name": "",
          "type": "bool"
        }
      ],
      "stateMutability": "view",
      "type": "function"
    },
    {
      "inputs": [
        {
          "internalType": "address",
          "name": "borrower",
          "type": "address"
        },
        {
          "internalType": "address",
          "name": "liquidator",
          "type": "address"
        },
        {
          "internalType": "uint256",
          "name": "amountToCover",
          "type": "uint256"
        }
      ],
      "name": "liquidatorCoverExposure",
      "outputs": [],
      "stateMutability": "nonpayable",
      "type": "function"
    },
    {
      "inputs": [
        {
          "internalType": "address",
          "name": "borrower",
          "type": "address"
        },
        {
          "internalType": "address",
          "name": "liquidator",
          "type": "address"
        },
        {
          "internalType": "uint256",
          "name": "amountOfRepoToken",
          "type": "uint256"
        }
      ],
      "name": "liquidatorCoverExposureWithRepoToken",
      "outputs": [
        {
          "internalType": "uint256",
          "name": "",
          "type": "uint256"
        }
      ],
      "stateMutability": "nonpayable",
      "type": "function"
    },
    {
      "inputs": [
        {
          "internalType": "address",
          "name": "offeror",
          "type": "address"
        },
        {
          "internalType": "uint256",
          "name": "amount",
          "type": "uint256"
        }
      ],
      "name": "lockOfferAmount",
      "outputs": [],
      "stateMutability": "nonpayable",
      "type": "function"
    },
    {
      "inputs": [],
      "name": "maturityTimestamp",
      "outputs": [
        {
          "internalType": "uint256",
          "name": "",
          "type": "uint256"
        }
      ],
      "stateMutability": "view",
      "type": "function"
    },
    {
      "inputs": [
        {
          "internalType": "uint256",
          "name": "amount",
          "type": "uint256"
        },
        {
          "internalType": "uint256[]",
          "name": "collateralAmounts",
          "type": "uint256[]"
        }
      ],
      "name": "mintOpenExposure",
      "outputs": [],
      "stateMutability": "nonpayable",
      "type": "function"
    },
    {
      "inputs": [
        {
          "internalType": "address",
          "name": "borrower",
          "type": "address"
        },
        {
          "internalType": "uint256",
          "name": "purchasePrice",
          "type": "uint256"
        },
        {
          "internalType": "uint256",
          "name": "repurchasePrice",
          "type": "uint256"
        },
        {
          "internalType": "address",
          "name": "previousTermRepoLocker",
          "type": "address"
        },
        {
          "internalType": "uint256",
          "name": "dayCountFractionMantissa",
          "type": "uint256"
        }
      ],
      "name": "openExposureOnRolloverNew",
      "outputs": [
        {
          "internalType": "uint256",
          "name": "",
          "type": "uint256"
        }
      ],
      "stateMutability": "nonpayable",
      "type": "function"
    },
    {
      "inputs": [
        {
          "internalType": "address",
          "name": "termRepoLocker_",
          "type": "address"
        },
        {
          "internalType": "address",
          "name": "termRepoCollateralManager_",
          "type": "address"
        },
        {
          "internalType": "address",
          "name": "termRepoToken_",
          "type": "address"
        },
        {
          "internalType": "address",
          "name": "termAuctionOfferLocker_",
          "type": "address"
        },
        {
          "internalType": "address",
          "name": "termAuction_",
          "type": "address"
        },
        {
          "internalType": "address",
          "name": "rolloverManager_",
          "type": "address"
        },
        {
          "internalType": "address",
          "name": "devopsMultisig_",
          "type": "address"
        },
        {
          "internalType": "address",
          "name": "adminWallet_",
          "type": "address"
        },
        {
          "internalType": "string",
          "name": "version_",
          "type": "string"
        }
      ],
      "name": "pairTermContracts",
      "outputs": [],
      "stateMutability": "nonpayable",
      "type": "function"
    },
    {
      "inputs": [],
      "name": "proxiableUUID",
      "outputs": [
        {
          "internalType": "bytes32",
          "name": "",
          "type": "bytes32"
        }
      ],
      "stateMutability": "view",
      "type": "function"
    },
    {
      "inputs": [],
      "name": "purchaseToken",
      "outputs": [
        {
          "internalType": "address",
          "name": "",
          "type": "address"
        }
      ],
      "stateMutability": "view",
      "type": "function"
    },
    {
      "inputs": [
        {
          "internalType": "address",
          "name": "redeemer",
          "type": "address"
        },
        {
          "internalType": "uint256",
          "name": "amountToRedeem",
          "type": "uint256"
        }
      ],
      "name": "redeemTermRepoTokens",
      "outputs": [],
      "stateMutability": "nonpayable",
      "type": "function"
    },
    {
      "inputs": [],
      "name": "redemptionTimestamp",
      "outputs": [
        {
          "internalType": "uint256",
          "name": "",
          "type": "uint256"
        }
      ],
      "stateMutability": "view",
      "type": "function"
    },
    {
      "inputs": [
        {
          "internalType": "bytes32",
          "name": "role",
          "type": "bytes32"
        },
        {
          "internalType": "address",
          "name": "account",
          "type": "address"
        }
      ],
      "name": "renounceRole",
      "outputs": [],
      "stateMutability": "nonpayable",
      "type": "function"
    },
    {
      "inputs": [
        {
          "components": [
            {
              "internalType": "contract TermAuction",
              "name": "auction",
              "type": "address"
            },
            {
              "internalType": "contract ITermAuctionBidLocker",
              "name": "termAuctionBidLocker",
              "type": "address"
            },
            {
              "internalType": "contract ITermAuctionOfferLocker",
              "name": "termAuctionOfferLocker",
              "type": "address"
            }
          ],
          "internalType": "struct TermAuctionGroup",
          "name": "termAuctionGroup",
          "type": "tuple"
        }
      ],
      "name": "reopenToNewAuction",
      "outputs": [],
      "stateMutability": "nonpayable",
      "type": "function"
    },
    {
      "inputs": [
        {
          "internalType": "bytes32",
          "name": "role",
          "type": "bytes32"
        },
        {
          "internalType": "address",
          "name": "account",
          "type": "address"
        }
      ],
      "name": "revokeRole",
      "outputs": [],
      "stateMutability": "nonpayable",
      "type": "function"
    },
    {
      "inputs": [],
      "name": "servicingFee",
      "outputs": [
        {
          "internalType": "uint256",
          "name": "",
          "type": "uint256"
        }
      ],
      "stateMutability": "view",
      "type": "function"
    },
    {
      "inputs": [],
      "name": "shortfallHaircutMantissa",
      "outputs": [
        {
          "internalType": "uint256",
          "name": "",
          "type": "uint256"
        }
      ],
      "stateMutability": "view",
      "type": "function"
    },
    {
      "inputs": [
        {
          "internalType": "uint256",
          "name": "amount",
          "type": "uint256"
        }
      ],
      "name": "submitRepurchasePayment",
      "outputs": [],
      "stateMutability": "nonpayable",
      "type": "function"
    },
    {
      "inputs": [
        {
          "internalType": "bytes4",
          "name": "interfaceId",
          "type": "bytes4"
        }
      ],
      "name": "supportsInterface",
      "outputs": [
        {
          "internalType": "bool",
          "name": "",
          "type": "bool"
        }
      ],
      "stateMutability": "view",
      "type": "function"
    },
    {
      "inputs": [],
      "name": "termRepoCollateralManager",
      "outputs": [
        {
          "internalType": "contract ITermRepoCollateralManager",
          "name": "",
          "type": "address"
        }
      ],
      "stateMutability": "view",
      "type": "function"
    },
    {
      "inputs": [],
      "name": "termRepoId",
      "outputs": [
        {
          "internalType": "bytes32",
          "name": "",
          "type": "bytes32"
        }
      ],
      "stateMutability": "view",
      "type": "function"
    },
    {
      "inputs": [],
      "name": "termRepoLocker",
      "outputs": [
        {
          "internalType": "contract ITermRepoLocker",
          "name": "",
          "type": "address"
        }
      ],
      "stateMutability": "view",
      "type": "function"
    },
    {
      "inputs": [],
      "name": "termRepoRolloverManager",
      "outputs": [
        {
          "internalType": "contract ITermRepoRolloverManager",
          "name": "",
          "type": "address"
        }
      ],
      "stateMutability": "view",
      "type": "function"
    },
    {
      "inputs": [],
      "name": "termRepoToken",
      "outputs": [
        {
          "internalType": "contract ITermRepoToken",
          "name": "",
          "type": "address"
        }
      ],
      "stateMutability": "view",
      "type": "function"
    },
    {
      "inputs": [],
      "name": "totalOutstandingRepurchaseExposure",
      "outputs": [
        {
          "internalType": "uint256",
          "name": "",
          "type": "uint256"
        }
      ],
      "stateMutability": "view",
      "type": "function"
    },
    {
      "inputs": [],
      "name": "totalRepurchaseCollected",
      "outputs": [
        {
          "internalType": "uint256",
          "name": "",
          "type": "uint256"
        }
      ],
      "stateMutability": "view",
      "type": "function"
    },
    {
      "inputs": [
        {
          "internalType": "address",
          "name": "offeror",
          "type": "address"
        },
        {
          "internalType": "uint256",
          "name": "amount",
          "type": "uint256"
        }
      ],
      "name": "unlockOfferAmount",
      "outputs": [],
      "stateMutability": "nonpayable",
      "type": "function"
    },
    {
      "inputs": [
        {
          "internalType": "address",
          "name": "newImplementation",
          "type": "address"
        }
      ],
      "name": "upgradeTo",
      "outputs": [],
      "stateMutability": "nonpayable",
      "type": "function"
    },
    {
      "inputs": [
        {
          "internalType": "address",
          "name": "newImplementation",
          "type": "address"
        },
        {
          "internalType": "bytes",
          "name": "data",
          "type": "bytes"
        }
      ],
      "name": "upgradeToAndCall",
      "outputs": [],
      "stateMutability": "payable",
      "type": "function"
    },
    {
      "inputs": [],
      "name": "version",
      "outputs": [
        {
          "internalType": "string",
          "name": "",
          "type": "string"
        }
      ],
      "stateMutability": "view",
      "type": "function"
    }
  ],
  "bytecode": "0x60a0604052306080523480156200001557600080fd5b506200002062000026565b620000e7565b600054610100900460ff1615620000935760405162461bcd60e51b815260206004820152602760248201527f496e697469616c697a61626c653a20636f6e747261637420697320696e697469604482015266616c697a696e6760c81b606482015260840160405180910390fd5b60005460ff90811614620000e5576000805460ff191660ff9081179091556040519081527f7f26b83ff96e1f2b6a682f133852f6798a09c465da95921460cefb38474024989060200160405180910390a15b565b608051614d4e6200011f600039600081816119e501528181611a250152818161211d0152818161215d01526121d50152614d4e6000f3fe60806040526004361061027f5760003560e01c80634dabab1011610150578063a22be9ca116100bc578063a22be9ca1461079d578063a4018f13146107bd578063a95c4d62146107f1578063b330db2814610812578063c02389261461082a578063c99aa67814610840578063cc5b6e4a14610860578063d4912c1014610876578063d547741f14610896578063ec9477e1146108b6578063fa19d0ed146108d6578063fd5d357a146108ed578063fe05281a1461090d57600080fd5b80634dabab10146106035780634f1ef2861461061857806352d1902d1461062b57806354fd4d50146106405780635879fae91461067a5780635c4b440e1461069a5780635ca84e6e146106bb57806375b238fc146106dc578063796a4455146107105780637e237e891461073257806391d14854146107525780639d5d210814610772578063a217fddf1461078857600080fd5b80632f2ff15d116101ef5780632f2ff15d1461047357806331bb625e1461049357806332153220146104b357806333d6723e146104d357806336568abe146104f35780633659cfe6146105135780633718373f146105335780633d0f31f7146105555780633dcaa6c61461056b5780633de81dc4146105825780634055008a146105a357806340d3da8b146105c357806347c91898146105e357600080fd5b806301ffc9a71461028457806302b65fb0146102b957806308772759146102e957806309aa80fc1461030b5780631320834f1461032b5780631b235437146103415780631b433b1114610358578063201a662514610378578063228d5cc61461039a57806323e507f7146103c8578063248a9ca3146103ea5780632762697d1461041a57806327df3d3e14610451575b600080fd5b34801561029057600080fd5b506102a461029f366004614000565b61092f565b60405190151581526020015b60405180910390f35b3480156102c557600080fd5b506102db600080516020614cf983398151915281565b6040519081526020016102b0565b3480156102f557600080fd5b5061030961030436600461403f565b610966565b005b34801561031757600080fd5b506102db61032636600461406b565b610a58565b34801561033757600080fd5b506102db60ff5481565b34801561034d57600080fd5b506102db6101005481565b34801561036457600080fd5b506102db61037336600461403f565b610b8b565b34801561038457600080fd5b506102db600080516020614bf283398151915281565b3480156103a657600080fd5b50610105546103bb906001600160a01b031681565b6040516102b091906140ac565b3480156103d457600080fd5b506102db600080516020614c9283398151915281565b3480156103f657600080fd5b506102db6104053660046140c0565b600090815260c9602052604090206001015490565b34801561042657600080fd5b506102db6104353660046140d9565b6001600160a01b0316600090815261010a602052604090205490565b34801561045d57600080fd5b506102db600080516020614c3283398151915281565b34801561047f57600080fd5b5061030961048e3660046140f6565b610ebc565b34801561049f57600080fd5b506103096104ae36600461403f565b610ee6565b3480156104bf57600080fd5b506103096104ce36600461416e565b610fa1565b3480156104df57600080fd5b506103096104ee36600461428e565b611170565b3480156104ff57600080fd5b5061030961050e3660046140f6565b61195d565b34801561051f57600080fd5b5061030961052e3660046140d9565b6119db565b34801561053f57600080fd5b506102db600080516020614cd983398151915281565b34801561056157600080fd5b506102db60fe5481565b34801561057757600080fd5b506102db6101025481565b34801561058e57600080fd5b50610104546103bb906001600160a01b031681565b3480156105af57600080fd5b506103096105be3660046142d9565b611aa3565b3480156105cf57600080fd5b506103096105de3660046140c0565b611bac565b3480156105ef57600080fd5b506103096105fe3660046142f1565b61203b565b34801561060f57600080fd5b506102a4612104565b610309610626366004614372565b612113565b34801561063757600080fd5b506102db6121c8565b34801561064c57600080fd5b50604080518082018252600b81526a19195d995b1bdc1b595b9d60aa1b602082015290516102b0919061443d565b34801561068657600080fd5b506103096106953660046140c0565b612276565b3480156106a657600080fd5b50610106546103bb906001600160a01b031681565b3480156106c757600080fd5b50610107546103bb906001600160a01b031681565b3480156106e857600080fd5b506102db7fa49807205ce4d355092ef5a8a18f56e8913cf4a201fbe287825b095693c2177581565b34801561071c57600080fd5b506102db600080516020614c1283398151915281565b34801561073e57600080fd5b5061030961074d36600461403f565b612463565b34801561075e57600080fd5b506102a461076d3660046140f6565b61264d565b34801561077e57600080fd5b506102db60fc5481565b34801561079457600080fd5b506102db600081565b3480156107a957600080fd5b506103096107b8366004614470565b612678565b3480156107c957600080fd5b506102db7fcee578699694e0144c2aba4ed7fb4e9131a3e2dbd751e7f11a646cc6a39d67bd81565b3480156107fd57600080fd5b50610103546103bb906001600160a01b031681565b34801561081e57600080fd5b506102db6301da9c0081565b34801561083657600080fd5b506102db60fd5481565b34801561084c57600080fd5b506102db61085b36600461450c565b61296d565b34801561086c57600080fd5b506102db60fb5481565b34801561088257600080fd5b5061030961089136600461455e565b612bff565b3480156108a257600080fd5b506103096108b13660046140f6565b612e49565b3480156108c257600080fd5b506103096108d136600461406b565b612e6e565b3480156108e257600080fd5b506102db6101015481565b3480156108f957600080fd5b506103096109083660046140d9565b612e97565b34801561091957600080fd5b506102db600080516020614c7283398151915281565b60006001600160e01b03198216637965db0b60e01b148061096057506301ffc9a760e01b6001600160e01b03198316145b92915050565b600080516020614cd983398151915261097e81612ec7565b610106546101035460405163049f2a5160e21b81526001600160a01b039283169263127ca944926109b9928892909116908790600401614614565b600060405180830381600087803b1580156109d357600080fd5b505af11580156109e7573d6000803e3d6000fd5b50506101095460fb5460405163bba53d0560e01b81526001600160a01b03909216935063bba53d059250610a219187908790600401614638565b600060405180830381600087803b158015610a3b57600080fd5b505af1158015610a4f573d6000803e3d6000fd5b50505050505050565b6000600080516020614c12833981519152610a7281612ec7565b61010754604051637acdda2360e11b81526000916001600160a01b03169063f59bb44690610aa69088908890600401614657565b6020604051808303816000875af1158015610ac5573d6000803e3d6000fd5b505050506040513d601f19601f82011682018060405250810190610ae99190614670565b6001600160a01b038716600090815261010a6020526040902054909150811115610b26576040516305e5c1fd60e51b815260040160405180910390fd5b6001600160a01b038616600090815261010a602052604081208054839290610b4f90849061469f565b925050819055508060fc6000828254610b68919061469f565b90915550610b769050612ed1565b610b8257610b826146b2565b95945050505050565b6000600080516020614c72833981519152610ba581612ec7565b60fe54421015610bc85760405163794150ab60e11b815260040160405180910390fd5b60ff544210610bea576040516366694fe960e11b815260040160405180910390fd5b6001600160a01b038416600090815261010a60205260408120548410610c195750670de0b6b3a7640000610c52565b6001600160a01b038516600090815261010a6020526040902054610c45670de0b6b3a7640000866146c8565b610c4f91906146df565b90505b6001600160a01b038516600090815261010a6020526040902054841115610d73576001600160a01b038516600090815261010a602052604081205460fc805491929091610ca090849061469f565b90915550506001600160a01b038516600090815261010a602052604081205460fd805491929091610cd2908490614701565b90915550506101095460fb546001600160a01b03878116600090815261010a60205260409081902054905163380d921960e01b8152919093169263380d921992610d229290918a91600401614638565b600060405180830381600087803b158015610d3c57600080fd5b505af1158015610d50573d6000803e3d6000fd5b5050506001600160a01b038616600090815261010a602052604081205550610e3c565b6001600160a01b038516600090815261010a602052604081208054869290610d9c90849061469f565b925050819055508360fc6000828254610db5919061469f565b925050819055508360fd6000828254610dce9190614701565b90915550506101095460fb5460405163380d921960e01b81526001600160a01b039092169163380d921991610e099189908990600401614638565b600060405180830381600087803b158015610e2357600080fd5b505af1158015610e37573d6000803e3d6000fd5b505050505b610e44612ed1565b610e5057610e506146b2565b610105546040516364deb92b60e11b81526001600160a01b039091169063c9bd725690610e819088906004016140ac565b600060405180830381600087803b158015610e9b57600080fd5b505af1158015610eaf573d6000803e3d6000fd5b5092979650505050505050565b600082815260c96020526040902060010154610ed781612ec7565b610ee1838361301b565b505050565b600080516020614cd9833981519152610efe81612ec7565b610106546101035460405163109c8cf960e11b81526001600160a01b039283169263213919f292610f39928892909116908790600401614614565b600060405180830381600087803b158015610f5357600080fd5b505af1158015610f67573d6000803e3d6000fd5b50506101095460fb5460405163069d498b60e51b81526001600160a01b03909216935063d3a931609250610a219187908790600401614638565b600080516020614c32833981519152610fb981612ec7565b61010b5460ff1615610fde57604051634ce377bb60e11b815260040160405180910390fd5b61010b805460ff1916600117905561010680546001600160a01b03808e166001600160a01b03199283161790925561010480548d841690831617905561010580548984169083161790556101078054928c1692909116919091179055611052600080516020614cd98339815191528961301b565b61106a600080516020614c928339815191528861301b565b6110947fa49807205ce4d355092ef5a8a18f56e8913cf4a201fbe287825b095693c217758561301b565b6110ac600080516020614bf28339815191528661301b565b6110c4600080516020614c128339815191528b61301b565b6110dc600080516020614cf98339815191528761301b565b6101095460fb546101035460fe5460ff54610100546101015460405163046b6ef360e01b81526001600160a01b039788169763046b6ef39761113197909630969190921694919390928d908d90600401614714565b600060405180830381600087803b15801561114b57600080fd5b505af115801561115f573d6000803e3d6000fd5b505050505050505050505050505050565b6101085460405163056a8b5d60e21b815233916001600160a01b0316906315aa2d74906111a19084906004016140ac565b602060405180830381865afa1580156111be573d6000803e3d6000fd5b505050506040513d601f19601f820116820180604052508101906111e2919061479d565b6111ff57604051631cbdffd960e11b815260040160405180910390fd5b60fe54421115611222576040516304ff30ef60e21b815260040160405180910390fd5b61010460009054906101000a90046001600160a01b03166001600160a01b031663190e80126040518163ffffffff1660e01b8152600401602060405180830381865afa158015611276573d6000803e3d6000fd5b505050506040513d601f19601f8201168201806040525081019061129a91906147b8565b60ff1682146113225760405163dd23c3ad60e01b815260206004820152604260248201527f436f6c6c61746572616c20416d6f756e7473206172726179206e6f742073616d60448201527f65206c656e67746820617320636f6c6c61746572616c20746f6b656e73206c696064820152611cdd60f21b608482015260a4015b60405180910390fd5b6000805b838110156115b4576101045460405163172c48c760e01b8152600481018390526001600160a01b0390911690639210632f908590839063172c48c790602401602060405180830381865afa158015611382573d6000803e3d6000fd5b505050506040513d601f19601f820116820180604052508101906113a691906147db565b8888868181106113b8576113b86147f8565b905060200201356040518463ffffffff1660e01b81526004016113dd93929190614614565b600060405180830381600087803b1580156113f757600080fd5b505af115801561140b573d6000803e3d6000fd5b50506101045460405163172c48c760e01b81526004810185905260009350611594925061158f916001600160a01b0316906367af01d090829063172c48c790602401602060405180830381865afa15801561146a573d6000803e3d6000fd5b505050506040513d601f19601f8201168201806040525081019061148e91906147db565b8a8a888181106114a0576114a06147f8565b905060200201356040518363ffffffff1660e01b81526004016114c4929190614657565b602060405180830381865afa1580156114e1573d6000803e3d6000fd5b505050506040513d601f19601f82011682018060405250810190611505919061480e565b604051806020016040528061010760009054906101000a90046001600160a01b03166001600160a01b031663ef4474cd6040518163ffffffff1660e01b8152600401602060405180830381865afa158015611564573d6000803e3d6000fd5b505050506040513d601f19601f820116820180604052508101906115889190614670565b90526130a1565b6130e4565b90506115a08184614701565b925050806115ad9061484f565b9050611326565b50808511156115d657604051633a23d82560e01b815260040160405180910390fd5b600061160d60405180602001604052804260fe546115f4919061469f565b905260408051602081019091526301da9c0081526130a1565b9050600061162c604051806020016040528061010154815250836130fc565b9050600061163a828961313b565b90506000611648828a61469f565b610107546101085460408051633800918160e21b815290519394506000936001600160a01b039384169363f0dda65c93169163e00246049160048083019260209291908290030181865afa1580156116a4573d6000803e3d6000fd5b505050506040513d601f19601f820116820180604052508101906116c891906147db565b856040518363ffffffff1660e01b81526004016116e6929190614657565b6020604051808303816000875af1158015611705573d6000803e3d6000fd5b505050506040513d601f19601f820116820180604052508101906117299190614670565b61010754604051633c37699760e21b81529192506000916001600160a01b039091169063f0dda65c90611762908b908790600401614657565b6020604051808303816000875af1158015611781573d6000803e3d6000fd5b505050506040513d601f19601f820116820180604052508101906117a59190614670565b6101075460405163b979dee360e01b8152600481018e90529192506001600160a01b03169063b979dee390602401600060405180830381600087803b1580156117ed57600080fd5b505af1158015611801573d6000803e3d6000fd5b50505050600081836118139190614701565b6001600160a01b038a16600090815261010a6020526040812080549293508392909190611841908490614701565b925050819055508060fc600082825461185a9190614701565b909155506118689050612ed1565b611874576118746146b2565b6101095460fb5460405160016274ee3760e01b031981526001600160a01b039092169163ff8b11c9916118b1918d90879087908a90600401614868565b600060405180830381600087803b1580156118cb57600080fd5b505af11580156118df573d6000803e3d6000fd5b50506101095460fb54604051632101923f60e11b81526001600160a01b039092169350634203247e925061191d918d9089908b908890600401614868565b600060405180830381600087803b15801561193757600080fd5b505af115801561194b573d6000803e3d6000fd5b50505050505050505050505050505050565b6001600160a01b03811633146119cd5760405162461bcd60e51b815260206004820152602f60248201527f416363657373436f6e74726f6c3a2063616e206f6e6c792072656e6f756e636560448201526e103937b632b9903337b91039b2b63360891b6064820152608401611319565b6119d7828261315b565b5050565b6001600160a01b037f0000000000000000000000000000000000000000000000000000000000000000163003611a235760405162461bcd60e51b815260040161131990614894565b7f00000000000000000000000000000000000000000000000000000000000000006001600160a01b0316611a556131c2565b6001600160a01b031614611a7b5760405162461bcd60e51b8152600401611319906148e0565b611a84816131de565b60408051600080825260208201909252611aa09183919061322f565b50565b600080516020614c32833981519152611abb81612ec7565b611ae2600080516020614cd9833981519152611add60608501604086016140d9565b61301b565b611b01600080516020614c92833981519152611add60208501856140d9565b6101095460fb546001600160a01b039091169063299cf9629030611b2b60608701604088016140d9565b611b3860208801886140d9565b6040516001600160e01b031960e087901b16815260048101949094526001600160a01b03928316602485015290821660448401521660648201526084015b600060405180830381600087803b158015611b9057600080fd5b505af1158015611ba4573d6000803e3d6000fd5b505050505050565b60ff544210611bce576040516366694fe960e11b815260040160405180910390fd5b33600081815261010a60205260408120549003611bfe5760405163baca79c960e01b815260040160405180910390fd5b610103546040805163313ce56760e01b815290516001600160a01b0390921691600091839163313ce567916004808201926020929091908290030181865afa158015611c4e573d6000803e3d6000fd5b505050506040513d601f19601f82011682018060405250810190611c7291906147b8565b60ff1690506000611c828461339a565b905080600003611ca5576040516346696d1960e11b815260040160405180910390fd5b6000611cb283601261469f565b611cbd90600a614a10565b611d4f6040518060200160405280866012611cd8919061469f565b611ce390600a614a10565b611ced90876146c8565b815250604051806020016040528061010760009054906101000a90046001600160a01b03166001600160a01b031663ef4474cd6040518163ffffffff1660e01b8152600401602060405180830381865afa158015611564573d6000803e3d6000fd5b51611d5a91906146df565b905080861015611eaa5761010754604051637acdda2360e11b81526000916001600160a01b03169063f59bb44690611d989089908b90600401614657565b6020604051808303816000875af1158015611db7573d6000803e3d6000fd5b505050506040513d601f19601f82011682018060405250810190611ddb9190614670565b6001600160a01b038716600090815261010a6020526040812080549293508392909190611e0990849061469f565b925050819055508060fc6000828254611e22919061469f565b90915550611e309050612ed1565b611e3c57611e3c6146b2565b6101095460fb54604051630190d5cf60e01b81526001600160a01b0390921691630190d5cf91611e72918a908690600401614638565b600060405180830381600087803b158015611e8c57600080fd5b505af1158015611ea0573d6000803e3d6000fd5b5050505050611ba4565b8160fc6000828254611ebc919061469f565b90915550506001600160a01b038516600090815261010a602052604081208054849290611eea90849061469f565b909155505061010754604051632770a7eb60e21b81526001600160a01b0390911690639dc29fac90611f229088908590600401614657565b600060405180830381600087803b158015611f3c57600080fd5b505af1158015611f50573d6000803e3d6000fd5b50505050611f5c612ed1565b611f6857611f686146b2565b6101095460fb54604051630190d5cf60e01b81526001600160a01b0390921691630190d5cf91611f9e9189908790600401614638565b600060405180830381600087803b158015611fb857600080fd5b505af1158015611fcc573d6000803e3d6000fd5b5050610104546040516312a9006960e01b81526001600160a01b0390911692506312a9006991506120019088906004016140ac565b600060405180830381600087803b15801561201b57600080fd5b505af115801561202f573d6000803e3d6000fd5b50505050505050505050565b600080516020614c9283398151915261205381612ec7565b61010754604051638bef7f5b60e01b81526000916001600160a01b031690638bef7f5b906120879089908890600401614657565b6020604051808303816000875af11580156120a6573d6000803e3d6000fd5b505050506040513d601f19601f820116820180604052508101906120ca9190614670565b61010954604051630ac59b7b60e11b81529192506001600160a01b03169063158b36f6906120019086908a908a908a908890600401614868565b600061210e612ed1565b905090565b6001600160a01b037f000000000000000000000000000000000000000000000000000000000000000016300361215b5760405162461bcd60e51b815260040161131990614894565b7f00000000000000000000000000000000000000000000000000000000000000006001600160a01b031661218d6131c2565b6001600160a01b0316146121b35760405162461bcd60e51b8152600401611319906148e0565b6121bc826131de565b6119d78282600161322f565b6000306001600160a01b037f000000000000000000000000000000000000000000000000000000000000000016146122635760405162461bcd60e51b815260206004820152603860248201527f555550535570677261646561626c653a206d757374206e6f742062652063616c6044820152771b1959081d1a1c9bdd59da0819195b1959d85d1958d85b1b60421b6064820152608401611319565b50600080516020614c5283398151915290565b3360008290036122b75760405163dd23c3ad60e01b815260206004820152600b60248201526a1e995c9bc8185b5bdd5b9d60aa1b6044820152606401611319565b60ff5442106122d9576040516366694fe960e11b815260040160405180910390fd5b6001600160a01b038116600090815261010a602052604081205490036123125760405163baca79c960e01b815260040160405180910390fd5b60001982036123705760405163dd23c3ad60e01b8152602060048201526024808201527f7265707572636861736520616d6f756e742063616e6e6f742062652075696e74604482015263040dac2f60e31b6064820152608401611319565b600061237b8261339a565b90508083111561239e576040516305e5c1fd60e51b815260040160405180910390fd5b6123a9828385613462565b6001600160a01b038216600090815261010a6020526040812054900361242d57610104546040516312a9006960e01b81526001600160a01b03909116906312a90069906123fa9085906004016140ac565b600060405180830381600087803b15801561241457600080fd5b505af1158015612428573d6000803e3d6000fd5b505050505b6101095460fb54604051632df248c560e11b81526001600160a01b0390921691635be4918a91610a219186908890600401614638565b61010054421161248657604051634724bbc760e11b815260040160405180910390fd5b610107546040516370a0823160e01b81526001600160a01b03909116906370a08231906124b79085906004016140ac565b602060405180830381865afa1580156124d4573d6000803e3d6000fd5b505050506040513d601f19601f820116820180604052508101906124f89190614670565b6000036125185760405163644d752960e01b815260040160405180910390fd5b60fd5461252790612710614701565b61010760009054906101000a90046001600160a01b03166001600160a01b031663723f4e2a6040518163ffffffff1660e01b8152600401602060405180830381865afa15801561257b573d6000803e3d6000fd5b505050506040513d601f19601f8201168201806040525081019061259f9190614670565b116125ae576119d7828261357d565b61010460009054906101000a90046001600160a01b03166001600160a01b031663a11d52f56040518163ffffffff1660e01b8152600401602060405180830381865afa158015612602573d6000803e3d6000fd5b505050506040513d601f19601f82011682018060405250810190612626919061479d565b612634576119d782826137de565b604051633eaef6d560e21b815260040160405180910390fd5b600091825260c9602090815260408084206001600160a01b0393909316845291905290205460ff1690565b600080516020614c9283398151915261269081612ec7565b60fe5442106126b2576040516304ff30ef60e21b815260040160405180910390fd5b6001600160a01b038916600090815261010a6020526040812080548992906126db908490614701565b925050819055508660fc60008282546126f49190614701565b90915550506101045460405163578db95760e01b81526001600160a01b039091169063578db95790612732908c908a908a908a908a90600401614a1c565b600060405180830381600087803b15801561274c57600080fd5b505af1158015612760573d6000803e3d6000fd5b5050505060006127986127926040518060200160405280868152506040518060200160405280610101548152506130fc565b8a61313b565b610106546101085460408051633800918160e21b815290519394506001600160a01b039283169363213919f2939092169163e0024604916004808201926020929091908290030181865afa1580156127f4573d6000803e3d6000fd5b505050506040513d601f19601f8201168201806040525081019061281891906147db565b610103546040516001600160e01b031960e085901b16815261284992916001600160a01b0316908690600401614614565b600060405180830381600087803b15801561286357600080fd5b505af1158015612877573d6000803e3d6000fd5b505061010654610103546001600160a01b03918216935063213919f292508d91166128a2858e61469f565b6040518463ffffffff1660e01b81526004016128c093929190614614565b600060405180830381600087803b1580156128da57600080fd5b505af11580156128ee573d6000803e3d6000fd5b50506101095460fb5460405160016274ee3760e01b031981526001600160a01b03909216935063ff8b11c9925061292f918e908e908e908890600401614868565b600060405180830381600087803b15801561294957600080fd5b505af115801561295d573d6000803e3d6000fd5b5050505050505050505050505050565b6000600080516020614c9283398151915261298781612ec7565b60fe5442106129a9576040516304ff30ef60e21b815260040160405180910390fd5b6001600160a01b038716600090815261010a6020526040812080548792906129d2908490614701565b925050819055508460fc60008282546129eb9190614701565b925050819055506000612a26612a206040518060200160405280878152506040518060200160405280610101548152506130fc565b8861313b565b610106546101085460408051633800918160e21b815290519394506001600160a01b039283169363213919f2939092169163e0024604916004808201926020929091908290030181865afa158015612a82573d6000803e3d6000fd5b505050506040513d601f19601f82011682018060405250810190612aa691906147db565b610103546040516001600160e01b031960e085901b168152612ad792916001600160a01b0316908690600401614614565b600060405180830381600087803b158015612af157600080fd5b505af1158015612b05573d6000803e3d6000fd5b5050505060008188612b17919061469f565b610106546101035460405163109c8cf960e11b81529293506001600160a01b039182169263213919f292612b54928b929116908690600401614614565b600060405180830381600087803b158015612b6e57600080fd5b505af1158015612b82573d6000803e3d6000fd5b50506101095460fb5460405163335ec7a360e21b81526001600160a01b03909216935063cd7b1e8c9250612bc0918d9086908d908990600401614868565b600060405180830381600087803b158015612bda57600080fd5b505af1158015612bee573d6000803e3d6000fd5b50929b9a5050505050505050505050565b600054610100900460ff1615808015612c1f5750600054600160ff909116105b80612c405750612c2e30613b04565b158015612c40575060005460ff166001145b612ca35760405162461bcd60e51b815260206004820152602e60248201527f496e697469616c697a61626c653a20636f6e747261637420697320616c72656160448201526d191e481a5b9a5d1a585b1a5e995960921b6064820152608401611319565b6000805460ff191660011790558015612cc6576000805461ff0019166101001790555b612cce613b13565b612cd6613b13565b8a8a604051602001612ce9929190614aa9565b60408051601f19818403018152919052805160209091012060fb55600060fc81905560fd5560fe899055612d1d888a614701565b60ff5586612d2b898b614701565b612d359190614701565b610100556101018690556001600160a01b038516612d935760405162461bcd60e51b815260206004820152601b60248201527a2d32b9379030b2323932b9b990383ab931b430b9b2903a37b5b2b760291b6044820152606401611319565b61010380546001600160a01b038088166001600160a01b031992831617909255610108805487841690831617905561010980549286169290911691909117905561010b805460ff19169055612df6600080516020614c328339815191528361301b565b8015612e3c576000805461ff0019169055604051600181527f7f26b83ff96e1f2b6a682f133852f6798a09c465da95921460cefb38474024989060200160405180910390a15b5050505050505050505050565b600082815260c96020526040902060010154612e6481612ec7565b610ee1838361315b565b600080516020614c12833981519152612e8681612ec7565b612e91848484613462565b50505050565b600080516020614cf9833981519152612eaf81612ec7565b6119d7600080516020614c728339815191528361301b565b611aa08133613b80565b600061010254600003612f7b57610107546040805163391fa71560e11b81529051612710926001600160a01b03169163723f4e2a9160048083019260209291908290030181865afa158015612f2a573d6000803e3d6000fd5b505050506040513d601f19601f82011682018060405250810190612f4e9190614670565b612f5891906146df565b61271060fd5460fc54612f6b9190614701565b612f7591906146df565b14905090565b604080516020808201835261010254825261010754835163391fa71560e11b815293516127109461300194936001600160a01b039093169263723f4e2a926004808401938290030181865afa158015612fd8573d6000803e3d6000fd5b505050506040513d601f19601f82011682018060405250810190612ffc9190614670565b61313b565b61300b91906146df565b61271060fd54612f7591906146df565b613025828261264d565b6119d757600082815260c9602090815260408083206001600160a01b03851684529091529020805460ff1916600117905561305d3390565b6001600160a01b0316816001600160a01b0316837f2f8788117e7eff1d82e926ec794901d17c78024a50270940304540a733656f0d60405160405180910390a45050565b60408051602081019091526000815260405180602001604052806130db6130d48660000151670de0b6b3a7640000613bd9565b8551613bec565b90529392505050565b805160009061096090670de0b6b3a7640000906146df565b6040805160208101909152600081526040518060200160405280670de0b6b3a764000061313186600001518660000151613bd9565b6130db91906146df565b6000806131488484613bf8565b9050613153816130e4565b949350505050565b613165828261264d565b156119d757600082815260c9602090815260408083206001600160a01b0385168085529252808320805460ff1916905551339285917ff6391f5c32d9c69d2a47ea670b442974b53935d1edc7fd64eb21e047a839171b9190a45050565b600080516020614c52833981519152546001600160a01b031690565b600080516020614bf28339815191526131f681612ec7565b6101095460405163b3c2d50b60e01b81523060048201526001600160a01b0384811660248301529091169063b3c2d50b90604401611b76565b7f4910fdfa16fed3260ed0e7147f7cc6da11a60208b5b9406d12a635614ffd91435460ff161561326257610ee183613c20565b826001600160a01b03166352d1902d6040518163ffffffff1660e01b8152600401602060405180830381865afa9250505080156132bc575060408051601f3d908101601f191682019092526132b991810190614670565b60015b61331f5760405162461bcd60e51b815260206004820152602e60248201527f45524331393637557067726164653a206e657720696d706c656d656e7461746960448201526d6f6e206973206e6f74205555505360901b6064820152608401611319565b600080516020614c52833981519152811461338e5760405162461bcd60e51b815260206004820152602960248201527f45524331393637557067726164653a20756e737570706f727465642070726f786044820152681a58589b195555525160ba1b6064820152608401611319565b50610ee1838383613cba565b610105546040516334e6c77160e01b8152600091829182916001600160a01b0316906334e6c771906133d09087906004016140ac565b608060405180830381865afa1580156133ed573d6000803e3d6000fd5b505050506040513d601f19601f820116820180604052508101906134119190614ab9565b9050806020015160001480613427575080606001515b15613435576000915061343d565b806020015191505b6001600160a01b038416600090815261010a602052604090205461315390839061469f565b6001600160a01b038316600090815261010a602052604090205481111561349c576040516305e5c1fd60e51b815260040160405180910390fd5b6001600160a01b038316600090815261010a6020526040812080548392906134c590849061469f565b925050819055508060fc60008282546134de919061469f565b925050819055508060fd60008282546134f79190614701565b9091555050610106546101035460405163049f2a5160e21b81526001600160a01b039283169263127ca94492613537928792909116908690600401614614565b600060405180830381600087803b15801561355157600080fd5b505af1158015613565573d6000803e3d6000fd5b50505050613571612ed1565b610ee157610ee16146b2565b61010754604051637acdda2360e11b81526000916001600160a01b03169063f59bb446906135b19086908690600401614657565b6020604051808303816000875af11580156135d0573d6000803e3d6000fd5b505050506040513d601f19601f820116820180604052508101906135f49190614670565b905060fd5481116136f3578060fd6000828254613611919061469f565b9091555050610106546101035460405163109c8cf960e11b81526001600160a01b039283169263213919f292613651928892909116908690600401614614565b600060405180830381600087803b15801561366b57600080fd5b505af115801561367f573d6000803e3d6000fd5b50506101095460fb54604051636a7a0bd160e11b81526001600160a01b03909216935063d4f417a292506136bc9187908690600090600401614b2b565b600060405180830381600087803b1580156136d657600080fd5b505af11580156136ea573d6000803e3d6000fd5b505050506137d6565b60fd80546000909155610106546101035460405163109c8cf960e11b81526001600160a01b039283169263213919f292613737928992909116908690600401614614565b600060405180830381600087803b15801561375157600080fd5b505af1158015613765573d6000803e3d6000fd5b50506101095460fb54604051636a7a0bd160e11b81526001600160a01b03909216935063d4f417a292506137a29188908690600090600401614b2b565b600060405180830381600087803b1580156137bc57600080fd5b505af11580156137d0573d6000803e3d6000fd5b50505050505b613571612ed1565b610102546000036138445761383e6040518060200160405280670de0b6b3a764000060fd5461380d91906146c8565b8152506040518060200160405280670de0b6b3a764000060fc5460fd546138349190614701565b61158891906146c8565b51610102555b61010754604051637acdda2360e11b81526000916001600160a01b03169063f59bb446906138789086908690600401614657565b6020604051808303816000875af1158015613897573d6000803e3d6000fd5b505050506040513d601f19601f820116820180604052508101906138bb9190614670565b905060006138da6040518060200160405280610102548152508361313b565b905060fd5481116139f3578060fd60008282546138f7919061469f565b9091555050610106546101035460405163109c8cf960e11b81526001600160a01b039283169263213919f292613937928992909116908690600401614614565b600060405180830381600087803b15801561395157600080fd5b505af1158015613965573d6000803e3d6000fd5b50506101095460fb54610102546001600160a01b03909216935063d4f417a29250908790859061399d90670de0b6b3a764000061469f565b6040518563ffffffff1660e01b81526004016139bc9493929190614b2b565b600060405180830381600087803b1580156139d657600080fd5b505af11580156139ea573d6000803e3d6000fd5b50505050613af0565b60fd80546000909155610106546101035460405163109c8cf960e11b81526001600160a01b039283169263213919f292613a37928a92909116908690600401614614565b600060405180830381600087803b158015613a5157600080fd5b505af1158015613a65573d6000803e3d6000fd5b50506101095460fb54610102546001600160a01b03909216935063d4f417a292509088908590613a9d90670de0b6b3a764000061469f565b6040518563ffffffff1660e01b8152600401613abc9493929190614b2b565b600060405180830381600087803b158015613ad657600080fd5b505af1158015613aea573d6000803e3d6000fd5b50505050505b613af8612ed1565b612e9157612e916146b2565b6001600160a01b03163b151590565b600054610100900460ff16613b7e5760405162461bcd60e51b815260206004820152602b60248201527f496e697469616c697a61626c653a20636f6e7472616374206973206e6f74206960448201526a6e697469616c697a696e6760a81b6064820152608401611319565b565b613b8a828261264d565b6119d757613b9781613cdf565b613ba2836020613cf1565b604051602001613bb3929190614b4f565b60408051601f198184030181529082905262461bcd60e51b82526113199160040161443d565b6000613be582846146c8565b9392505050565b6000613be582846146df565b60408051602081019091526000815260405180602001604052806130db856000015185613bd9565b613c2981613b04565b613c8b5760405162461bcd60e51b815260206004820152602d60248201527f455243313936373a206e657720696d706c656d656e746174696f6e206973206e60448201526c1bdd08184818dbdb9d1c9858dd609a1b6064820152608401611319565b600080516020614c5283398151915280546001600160a01b0319166001600160a01b0392909216919091179055565b613cc383613e8c565b600082511180613cd05750805b15610ee157612e918383613ecc565b60606109606001600160a01b03831660145b60606000613d008360026146c8565b613d0b906002614701565b6001600160401b03811115613d2257613d2261432c565b6040519080825280601f01601f191660200182016040528015613d4c576020820181803683370190505b509050600360fc1b81600081518110613d6757613d676147f8565b60200101906001600160f81b031916908160001a905350600f60fb1b81600181518110613d9657613d966147f8565b60200101906001600160f81b031916908160001a9053506000613dba8460026146c8565b613dc5906001614701565b90505b6001811115613e3d576f181899199a1a9b1b9c1cb0b131b232b360811b85600f1660108110613df957613df96147f8565b1a60f81b828281518110613e0f57613e0f6147f8565b60200101906001600160f81b031916908160001a90535060049490941c93613e3681614bbe565b9050613dc8565b508315613be55760405162461bcd60e51b815260206004820181905260248201527f537472696e67733a20686578206c656e67746820696e73756666696369656e746044820152606401611319565b613e9581613c20565b6040516001600160a01b038216907fbc7cd75a20ee27fd9adebab32041f755214dbc6bffa90cc0225b39da2e5c2d3b90600090a250565b6060613be58383604051806060016040528060278152602001614cb2602791396060600080856001600160a01b031685604051613f099190614bd5565b600060405180830381855af49150503d8060008114613f44576040519150601f19603f3d011682016040523d82523d6000602084013e613f49565b606091505b5091509150613f5a86838387613f64565b9695505050505050565b60608315613fd1578251600003613fca57613f7e85613b04565b613fca5760405162461bcd60e51b815260206004820152601d60248201527f416464726573733a2063616c6c20746f206e6f6e2d636f6e74726163740000006044820152606401611319565b5081613153565b6131538383815115613fe65781518083602001fd5b8060405162461bcd60e51b8152600401611319919061443d565b60006020828403121561401257600080fd5b81356001600160e01b031981168114613be557600080fd5b6001600160a01b0381168114611aa057600080fd5b6000806040838503121561405257600080fd5b823561405d8161402a565b946020939093013593505050565b60008060006060848603121561408057600080fd5b833561408b8161402a565b9250602084013561409b8161402a565b929592945050506040919091013590565b6001600160a01b0391909116815260200190565b6000602082840312156140d257600080fd5b5035919050565b6000602082840312156140eb57600080fd5b8135613be58161402a565b6000806040838503121561410957600080fd5b82359150602083013561411b8161402a565b809150509250929050565b60008083601f84011261413857600080fd5b5081356001600160401b0381111561414f57600080fd5b60208301915083602082850101111561416757600080fd5b9250929050565b6000806000806000806000806000806101208b8d03121561418e57600080fd5b8a356141998161402a565b995060208b01356141a98161402a565b985060408b01356141b98161402a565b975060608b01356141c98161402a565b965060808b01356141d98161402a565b955060a08b01356141e98161402a565b945060c08b01356141f98161402a565b935060e08b01356142098161402a565b92506101008b01356001600160401b0381111561422557600080fd5b6142318d828e01614126565b915080935050809150509295989b9194979a5092959850565b60008083601f84011261425c57600080fd5b5081356001600160401b0381111561427357600080fd5b6020830191508360208260051b850101111561416757600080fd5b6000806000604084860312156142a357600080fd5b8335925060208401356001600160401b038111156142c057600080fd5b6142cc8682870161424a565b9497909650939450505050565b6000606082840312156142eb57600080fd5b50919050565b6000806000806080858703121561430757600080fd5b84356143128161402a565b966020860135965060408601359560600135945092505050565b634e487b7160e01b600052604160045260246000fd5b604051601f8201601f191681016001600160401b038111828210171561436a5761436a61432c565b604052919050565b6000806040838503121561438557600080fd5b82356143908161402a565b91506020838101356001600160401b03808211156143ad57600080fd5b818601915086601f8301126143c157600080fd5b8135818111156143d3576143d361432c565b6143e5601f8201601f19168501614342565b915080825287848285010111156143fb57600080fd5b80848401858401376000848284010152508093505050509250929050565b60005b8381101561443457818101518382015260200161441c565b50506000910152565b602081526000825180602084015261445c816040850160208701614419565b601f01601f19169190910160400192915050565b60008060008060008060008060c0898b03121561448c57600080fd5b88356144978161402a565b9750602089013596506040890135955060608901356001600160401b03808211156144c157600080fd5b6144cd8c838d0161424a565b909750955060808b01359150808211156144e657600080fd5b506144f38b828c0161424a565b999c989b50969995989497949560a00135949350505050565b600080600080600060a0868803121561452457600080fd5b853561452f8161402a565b94506020860135935060408601359250606086013561454d8161402a565b949793965091946080013592915050565b6000806000806000806000806000806101208b8d03121561457e57600080fd5b8a356001600160401b0381111561459457600080fd5b6145a08d828e01614126565b909b5099505060208b0135975060408b0135965060608b0135955060808b0135945060a08b01356145d08161402a565b935060c08b01356145e08161402a565b925060e08b01356145f08161402a565b91506101008b01356146018161402a565b809150509295989b9194979a5092959850565b6001600160a01b039384168152919092166020820152604081019190915260600190565b9283526001600160a01b03919091166020830152604082015260600190565b6001600160a01b03929092168252602082015260400190565b60006020828403121561468257600080fd5b5051919050565b634e487b7160e01b600052601160045260246000fd5b8181038181111561096057610960614689565b634e487b7160e01b600052600160045260246000fd5b808202811582820484141761096057610960614689565b6000826146fc57634e487b7160e01b600052601260045260246000fd5b500490565b8082018082111561096057610960614689565b8981526001600160a01b03898116602083015288166040820152606081018790526080810186905260a0810185905260c0810184905261010060e08201819052810182905260006101208385828501376000838501820152601f909301601f19169091019091019998505050505050505050565b8051801515811461479857600080fd5b919050565b6000602082840312156147af57600080fd5b613be582614788565b6000602082840312156147ca57600080fd5b815160ff81168114613be557600080fd5b6000602082840312156147ed57600080fd5b8151613be58161402a565b634e487b7160e01b600052603260045260246000fd5b60006020828403121561482057600080fd5b604051602081018181106001600160401b03821117156148425761484261432c565b6040529151825250919050565b60006001820161486157614861614689565b5060010190565b9485526001600160a01b0393909316602085015260408401919091526060830152608082015260a00190565b6020808252602c908201527f46756e6374696f6e206d7573742062652063616c6c6564207468726f7567682060408201526b19195b1959d85d1958d85b1b60a21b606082015260800190565b6020808252602c908201527f46756e6374696f6e206d7573742062652063616c6c6564207468726f7567682060408201526b6163746976652070726f787960a01b606082015260800190565b600181815b8085111561496757816000190482111561494d5761494d614689565b8085161561495a57918102915b93841c9390800290614931565b509250929050565b60008261497e57506001610960565b8161498b57506000610960565b81600181146149a157600281146149ab576149c7565b6001915050610960565b60ff8411156149bc576149bc614689565b50506001821b610960565b5060208310610133831016604e8410600b84101617156149ea575081810a610960565b6149f4838361492c565b8060001904821115614a0857614a08614689565b029392505050565b6000613be5838361496f565b6001600160a01b03868116825260606020808401829052908301869052600091879160808501845b89811015614a6b578435614a578161402a565b841682529382019390820190600101614a44565b5085810360408701528681526001600160fb1b03871115614a8b57600080fd5b8660051b935083888383013790920190910198975050505050505050565b8183823760009101908152919050565b600060808284031215614acb57600080fd5b604051608081018181106001600160401b0382111715614aed57614aed61432c565b6040528251614afb8161402a565b808252506020830151602082015260408301516040820152614b1f60608401614788565b60608201529392505050565b9384526001600160a01b039290921660208401526040830152606082015260800190565b76020b1b1b2b9b9a1b7b73a3937b61d1030b1b1b7bab73a1604d1b815260008351614b81816017850160208801614419565b7001034b99036b4b9b9b4b733903937b6329607d1b6017918401918201528351614bb2816028840160208801614419565b01602801949350505050565b600081614bcd57614bcd614689565b506000190190565b60008251614be7818460208701614419565b919091019291505056fe793a6c9b7e0a9549c74edc2f9ae0dc50903dfaa9a56fb0116b27a8c71de3e2c6413cc8bb35fe129dacd3dfaae80d6d4c5d313f64cee9dd6712e7ca52e38573a930d41a597cac127d8249d31298b50e481ee82c3f4a49ff93c76a22735aa9f3ad360894a13ba1a3210667c828492db98dca3e2076cc3735a920a3ca505d382bbcf4b6b486426e3c004413defb7013cd482f29189a98e074f1c202b2ac26536bb21d693f62a755e2b3c6494da41af454605b9006057cb3c79b6adda1378f2a50a7416464726573733a206c6f772d6c6576656c2064656c65676174652063616c6c206661696c65646e14a979b95b01beecd617807f3738f4e067938da99755b16afdcf7148d313b76e3cc031d23d7153f72e87cbfd113a0351c60d8ce52b8a31c944d543a384b7c9a2646970667358221220fdb64599521349f118670896996f76deb0664a3e90687bea06364de74f41101764736f6c63430008120033",
  "linkReferences": {},
  "deployedLinkReferences": {}
}