{
  "_format": "hh-sol-artifact-1",
  "contractName": "TermRepoServicer",
  "sourceName": "contracts/TermRepoServicer.sol",
  "abi": [
    {
      "inputs": [],
      "stateMutability": "nonpayable",
      "type": "constructor"
    },
    {
      "inputs": [],
      "name": "AfterMaturity",
      "type": "error"
    },
    {
      "inputs": [],
      "name": "AfterRepurchaseWindow",
      "type": "error"
    },
    {
      "inputs": [],
      "name": "AlreadyTermContractPaired",
      "type": "error"
    },
    {
      "inputs": [],
      "name": "CallerNotBorrower",
      "type": "error"
    },
    {
      "inputs": [],
      "name": "EncumberedCollateralRemaining",
      "type": "error"
    },
    {
      "inputs": [],
      "name": "InsufficientCollateral",
      "type": "error"
    },
    {
      "inputs": [],
      "name": "InsufficientTermRepoTokenBalance",
      "type": "error"
    },
    {
      "inputs": [],
      "name": "InsufficientgetBorrowerRepurchaseObligation",
      "type": "error"
    },
    {
      "inputs": [
        {
          "internalType": "string",
          "name": "message",
          "type": "string"
        }
      ],
      "name": "InvalidParameters",
      "type": "error"
    },
    {
      "inputs": [],
      "name": "LockedBalanceInsufficient",
      "type": "error"
    },
    {
      "inputs": [],
      "name": "NoMintOpenExposureAccess",
      "type": "error"
    },
    {
      "inputs": [],
      "name": "NotMaturedYet",
      "type": "error"
    },
    {
      "inputs": [],
      "name": "RedemptionPeriodNotOpen",
      "type": "error"
    },
    {
      "inputs": [],
      "name": "RepurchaseAmountTooHigh",
      "type": "error"
    },
    {
      "inputs": [],
      "name": "ZeroBorrowerRepurchaseObligation",
      "type": "error"
    },
    {
      "inputs": [],
      "name": "ZeroTermRepoTokenBalance",
      "type": "error"
    },
    {
      "anonymous": false,
      "inputs": [
        {
          "indexed": false,
          "internalType": "address",
          "name": "previousAdmin",
          "type": "address"
        },
        {
          "indexed": false,
          "internalType": "address",
          "name": "newAdmin",
          "type": "address"
        }
      ],
      "name": "AdminChanged",
      "type": "event"
    },
    {
      "anonymous": false,
      "inputs": [
        {
          "indexed": true,
          "internalType": "address",
          "name": "beacon",
          "type": "address"
        }
      ],
      "name": "BeaconUpgraded",
      "type": "event"
    },
    {
      "anonymous": false,
      "inputs": [
        {
          "indexed": false,
          "internalType": "uint8",
          "name": "version",
          "type": "uint8"
        }
      ],
      "name": "Initialized",
      "type": "event"
    },
    {
      "anonymous": false,
      "inputs": [
        {
          "indexed": true,
          "internalType": "bytes32",
          "name": "role",
          "type": "bytes32"
        },
        {
          "indexed": true,
          "internalType": "bytes32",
          "name": "previousAdminRole",
          "type": "bytes32"
        },
        {
          "indexed": true,
          "internalType": "bytes32",
          "name": "newAdminRole",
          "type": "bytes32"
        }
      ],
      "name": "RoleAdminChanged",
      "type": "event"
    },
    {
      "anonymous": false,
      "inputs": [
        {
          "indexed": true,
          "internalType": "bytes32",
          "name": "role",
          "type": "bytes32"
        },
        {
          "indexed": true,
          "internalType": "address",
          "name": "account",
          "type": "address"
        },
        {
          "indexed": true,
          "internalType": "address",
          "name": "sender",
          "type": "address"
        }
      ],
      "name": "RoleGranted",
      "type": "event"
    },
    {
      "anonymous": false,
      "inputs": [
        {
          "indexed": true,
          "internalType": "bytes32",
          "name": "role",
          "type": "bytes32"
        },
        {
          "indexed": true,
          "internalType": "address",
          "name": "account",
          "type": "address"
        },
        {
          "indexed": true,
          "internalType": "address",
          "name": "sender",
          "type": "address"
        }
      ],
      "name": "RoleRevoked",
      "type": "event"
    },
    {
      "anonymous": false,
      "inputs": [
        {
          "indexed": true,
          "internalType": "address",
          "name": "implementation",
          "type": "address"
        }
      ],
      "name": "Upgraded",
      "type": "event"
    },
    {
      "inputs": [],
      "name": "ADMIN_ROLE",
      "outputs": [
        {
          "internalType": "bytes32",
          "name": "",
          "type": "bytes32"
        }
      ],
      "stateMutability": "view",
      "type": "function"
    },
    {
      "inputs": [],
      "name": "AUCTIONEER",
      "outputs": [
        {
          "internalType": "bytes32",
          "name": "",
          "type": "bytes32"
        }
      ],
      "stateMutability": "view",
      "type": "function"
    },
    {
      "inputs": [],
      "name": "AUCTION_LOCKER",
      "outputs": [
        {
          "internalType": "bytes32",
          "name": "",
          "type": "bytes32"
        }
      ],
      "stateMutability": "view",
      "type": "function"
    },
    {
      "inputs": [],
      "name": "COLLATERAL_MANAGER",
      "outputs": [
        {
          "internalType": "bytes32",
          "name": "",
          "type": "bytes32"
        }
      ],
      "stateMutability": "view",
      "type": "function"
    },
    {
      "inputs": [],
      "name": "DEFAULT_ADMIN_ROLE",
      "outputs": [
        {
          "internalType": "bytes32",
          "name": "",
          "type": "bytes32"
        }
      ],
      "stateMutability": "view",
      "type": "function"
    },
    {
      "inputs": [],
      "name": "DEVOPS_ROLE",
      "outputs": [
        {
          "internalType": "bytes32",
          "name": "",
          "type": "bytes32"
        }
      ],
      "stateMutability": "view",
      "type": "function"
    },
    {
      "inputs": [],
      "name": "INITIALIZER_ROLE",
      "outputs": [
        {
          "internalType": "bytes32",
          "name": "",
          "type": "bytes32"
        }
      ],
      "stateMutability": "view",
      "type": "function"
    },
    {
      "inputs": [],
      "name": "ROLLOVER_MANAGER",
      "outputs": [
        {
          "internalType": "bytes32",
          "name": "",
          "type": "bytes32"
        }
      ],
      "stateMutability": "view",
      "type": "function"
    },
    {
      "inputs": [],
      "name": "ROLLOVER_TARGET_AUCTIONEER_ROLE",
      "outputs": [
        {
          "internalType": "bytes32",
          "name": "",
          "type": "bytes32"
        }
      ],
      "stateMutability": "view",
      "type": "function"
    },
    {
      "inputs": [],
      "name": "SPECIALIST_ROLE",
      "outputs": [
        {
          "internalType": "bytes32",
          "name": "",
          "type": "bytes32"
        }
      ],
      "stateMutability": "view",
      "type": "function"
    },
    {
      "inputs": [],
      "name": "YEAR_SECONDS",
      "outputs": [
        {
          "internalType": "uint256",
          "name": "",
          "type": "uint256"
        }
      ],
      "stateMutability": "view",
      "type": "function"
    },
    {
      "inputs": [
        {
          "internalType": "address",
          "name": "termAuction",
          "type": "address"
        }
      ],
      "name": "approveRolloverAuction",
      "outputs": [],
      "stateMutability": "nonpayable",
      "type": "function"
    },
    {
      "inputs": [
        {
          "internalType": "uint256",
          "name": "amountToBurn",
          "type": "uint256"
        }
      ],
      "name": "burnCollapseExposure",
      "outputs": [],
      "stateMutability": "nonpayable",
      "type": "function"
    },
    {
      "inputs": [
        {
          "internalType": "address",
          "name": "borrower",
          "type": "address"
        },
        {
          "internalType": "uint256",
          "name": "rolloverSettlementAmount",
          "type": "uint256"
        }
      ],
      "name": "closeExposureOnRolloverExisting",
      "outputs": [
        {
          "internalType": "uint256",
          "name": "",
          "type": "uint256"
        }
      ],
      "stateMutability": "nonpayable",
      "type": "function"
    },
    {
      "inputs": [],
      "name": "endOfRepurchaseWindow",
      "outputs": [
        {
          "internalType": "uint256",
          "name": "",
          "type": "uint256"
        }
      ],
      "stateMutability": "view",
      "type": "function"
    },
    {
      "inputs": [
        {
          "internalType": "address",
          "name": "bidder",
          "type": "address"
        },
        {
          "internalType": "uint256",
          "name": "purchasePrice",
          "type": "uint256"
        },
        {
          "internalType": "uint256",
          "name": "repurchasePrice",
          "type": "uint256"
        },
        {
          "internalType": "address[]",
          "name": "collateralTokens",
          "type": "address[]"
        },
        {
          "internalType": "uint256[]",
          "name": "collateralAmounts",
          "type": "uint256[]"
        },
        {
          "internalType": "uint256",
          "name": "dayCountFractionMantissa",
          "type": "uint256"
        }
      ],
      "name": "fulfillBid",
      "outputs": [],
      "stateMutability": "nonpayable",
      "type": "function"
    },
    {
      "inputs": [
        {
          "internalType": "address",
          "name": "offeror",
          "type": "address"
        },
        {
          "internalType": "uint256",
          "name": "purchasePrice",
          "type": "uint256"
        },
        {
          "internalType": "uint256",
          "name": "repurchasePrice",
          "type": "uint256"
        },
        {
          "internalType": "bytes32",
          "name": "offerId",
          "type": "bytes32"
        }
      ],
      "name": "fulfillOffer",
      "outputs": [],
      "stateMutability": "nonpayable",
      "type": "function"
    },
    {
      "inputs": [
        {
          "internalType": "address",
          "name": "borrower",
          "type": "address"
        }
      ],
      "name": "getBorrowerRepurchaseObligation",
      "outputs": [
        {
          "internalType": "uint256",
          "name": "",
          "type": "uint256"
        }
      ],
      "stateMutability": "view",
      "type": "function"
    },
    {
      "inputs": [
        {
          "internalType": "bytes32",
          "name": "role",
          "type": "bytes32"
        }
      ],
      "name": "getRoleAdmin",
      "outputs": [
        {
          "internalType": "bytes32",
          "name": "",
          "type": "bytes32"
        }
      ],
      "stateMutability": "view",
      "type": "function"
    },
    {
      "inputs": [
        {
          "internalType": "address",
          "name": "authedUser",
          "type": "address"
        }
      ],
      "name": "grantMintExposureAccess",
      "outputs": [],
      "stateMutability": "nonpayable",
      "type": "function"
    },
    {
      "inputs": [
        {
          "internalType": "bytes32",
          "name": "role",
          "type": "bytes32"
        },
        {
          "internalType": "address",
          "name": "account",
          "type": "address"
        }
      ],
      "name": "grantRole",
      "outputs": [],
      "stateMutability": "nonpayable",
      "type": "function"
    },
    {
      "inputs": [
        {
          "internalType": "bytes32",
          "name": "role",
          "type": "bytes32"
        },
        {
          "internalType": "address",
          "name": "account",
          "type": "address"
        }
      ],
      "name": "hasRole",
      "outputs": [
        {
          "internalType": "bool",
          "name": "",
          "type": "bool"
        }
      ],
      "stateMutability": "view",
      "type": "function"
    },
    {
      "inputs": [
        {
          "internalType": "string",
          "name": "termRepoId_",
          "type": "string"
        },
        {
          "internalType": "uint256",
          "name": "maturityTimestamp_",
          "type": "uint256"
        },
        {
          "internalType": "uint256",
          "name": "repurchaseWindow_",
          "type": "uint256"
        },
        {
          "internalType": "uint256",
          "name": "redemptionBuffer_",
          "type": "uint256"
        },
        {
          "internalType": "uint256",
          "name": "servicingFee_",
          "type": "uint256"
        },
        {
          "internalType": "address",
          "name": "purchaseToken_",
          "type": "address"
        },
        {
          "internalType": "contract ITermController",
          "name": "termController_",
          "type": "address"
        },
        {
          "internalType": "contract ITermEventEmitter",
          "name": "emitter_",
          "type": "address"
        },
        {
          "internalType": "address",
          "name": "termInitializer_",
          "type": "address"
        }
      ],
      "name": "initialize",
      "outputs": [],
      "stateMutability": "nonpayable",
      "type": "function"
    },
    {
      "inputs": [],
      "name": "isTermRepoBalanced",
      "outputs": [
        {
          "internalType": "bool",
          "name": "",
          "type": "bool"
        }
      ],
      "stateMutability": "view",
      "type": "function"
    },
    {
      "inputs": [
        {
          "internalType": "address",
          "name": "borrower",
          "type": "address"
        },
        {
          "internalType": "address",
          "name": "liquidator",
          "type": "address"
        },
        {
          "internalType": "uint256",
          "name": "amountToCover",
          "type": "uint256"
        }
      ],
      "name": "liquidatorCoverExposure",
      "outputs": [],
      "stateMutability": "nonpayable",
      "type": "function"
    },
    {
      "inputs": [
        {
          "internalType": "address",
          "name": "borrower",
          "type": "address"
        },
        {
          "internalType": "address",
          "name": "liquidator",
          "type": "address"
        },
        {
          "internalType": "uint256",
          "name": "amountOfRepoToken",
          "type": "uint256"
        }
      ],
      "name": "liquidatorCoverExposureWithRepoToken",
      "outputs": [
        {
          "internalType": "uint256",
          "name": "",
          "type": "uint256"
        }
      ],
      "stateMutability": "nonpayable",
      "type": "function"
    },
    {
      "inputs": [
        {
          "internalType": "address",
          "name": "offeror",
          "type": "address"
        },
        {
          "internalType": "uint256",
          "name": "amount",
          "type": "uint256"
        }
      ],
      "name": "lockOfferAmount",
      "outputs": [],
      "stateMutability": "nonpayable",
      "type": "function"
    },
    {
      "inputs": [],
      "name": "maturityTimestamp",
      "outputs": [
        {
          "internalType": "uint256",
          "name": "",
          "type": "uint256"
        }
      ],
      "stateMutability": "view",
      "type": "function"
    },
    {
      "inputs": [
        {
          "internalType": "uint256",
          "name": "amount",
          "type": "uint256"
        },
        {
          "internalType": "uint256[]",
          "name": "collateralAmounts",
          "type": "uint256[]"
        }
      ],
      "name": "mintOpenExposure",
      "outputs": [],
      "stateMutability": "nonpayable",
      "type": "function"
    },
    {
      "inputs": [
        {
          "internalType": "address",
          "name": "borrower",
          "type": "address"
        },
        {
          "internalType": "uint256",
          "name": "purchasePrice",
          "type": "uint256"
        },
        {
          "internalType": "uint256",
          "name": "repurchasePrice",
          "type": "uint256"
        },
        {
          "internalType": "address",
          "name": "previousTermRepoLocker",
          "type": "address"
        },
        {
          "internalType": "uint256",
          "name": "dayCountFractionMantissa",
          "type": "uint256"
        }
      ],
      "name": "openExposureOnRolloverNew",
      "outputs": [
        {
          "internalType": "uint256",
          "name": "",
          "type": "uint256"
        }
      ],
      "stateMutability": "nonpayable",
      "type": "function"
    },
    {
      "inputs": [
        {
          "internalType": "address",
          "name": "termRepoLocker_",
          "type": "address"
        },
        {
          "internalType": "address",
          "name": "termRepoCollateralManager_",
          "type": "address"
        },
        {
          "internalType": "address",
          "name": "termRepoToken_",
          "type": "address"
        },
        {
          "internalType": "address",
          "name": "termAuctionOfferLocker_",
          "type": "address"
        },
        {
          "internalType": "address",
          "name": "termAuction_",
          "type": "address"
        },
        {
          "internalType": "address",
          "name": "rolloverManager_",
          "type": "address"
        },
        {
          "internalType": "address",
          "name": "devopsMultisig_",
          "type": "address"
        },
        {
          "internalType": "address",
          "name": "adminWallet_",
          "type": "address"
        },
        {
          "internalType": "string",
          "name": "version_",
          "type": "string"
        }
      ],
      "name": "pairTermContracts",
      "outputs": [],
      "stateMutability": "nonpayable",
      "type": "function"
    },
    {
      "inputs": [],
      "name": "proxiableUUID",
      "outputs": [
        {
          "internalType": "bytes32",
          "name": "",
          "type": "bytes32"
        }
      ],
      "stateMutability": "view",
      "type": "function"
    },
    {
      "inputs": [],
      "name": "purchaseToken",
      "outputs": [
        {
          "internalType": "address",
          "name": "",
          "type": "address"
        }
      ],
      "stateMutability": "view",
      "type": "function"
    },
    {
      "inputs": [
        {
          "internalType": "address",
          "name": "redeemer",
          "type": "address"
        },
        {
          "internalType": "uint256",
          "name": "amountToRedeem",
          "type": "uint256"
        }
      ],
      "name": "redeemTermRepoTokens",
      "outputs": [],
      "stateMutability": "nonpayable",
      "type": "function"
    },
    {
      "inputs": [],
      "name": "redemptionTimestamp",
      "outputs": [
        {
          "internalType": "uint256",
          "name": "",
          "type": "uint256"
        }
      ],
      "stateMutability": "view",
      "type": "function"
    },
    {
      "inputs": [
        {
          "internalType": "bytes32",
          "name": "role",
          "type": "bytes32"
        },
        {
          "internalType": "address",
          "name": "account",
          "type": "address"
        }
      ],
      "name": "renounceRole",
      "outputs": [],
      "stateMutability": "nonpayable",
      "type": "function"
    },
    {
      "inputs": [
        {
          "components": [
            {
              "internalType": "contract TermAuction",
              "name": "auction",
              "type": "address"
            },
            {
              "internalType": "contract ITermAuctionBidLocker",
              "name": "termAuctionBidLocker",
              "type": "address"
            },
            {
              "internalType": "contract ITermAuctionOfferLocker",
              "name": "termAuctionOfferLocker",
              "type": "address"
            }
          ],
          "internalType": "struct TermAuctionGroup",
          "name": "termAuctionGroup",
          "type": "tuple"
        }
      ],
      "name": "reopenToNewAuction",
      "outputs": [],
      "stateMutability": "nonpayable",
      "type": "function"
    },
    {
      "inputs": [
        {
          "internalType": "bytes32",
          "name": "role",
          "type": "bytes32"
        },
        {
          "internalType": "address",
          "name": "account",
          "type": "address"
        }
      ],
      "name": "revokeRole",
      "outputs": [],
      "stateMutability": "nonpayable",
      "type": "function"
    },
    {
      "inputs": [],
      "name": "servicingFee",
      "outputs": [
        {
          "internalType": "uint256",
          "name": "",
          "type": "uint256"
        }
      ],
      "stateMutability": "view",
      "type": "function"
    },
    {
      "inputs": [],
      "name": "shortfallHaircutMantissa",
      "outputs": [
        {
          "internalType": "uint256",
          "name": "",
          "type": "uint256"
        }
      ],
      "stateMutability": "view",
      "type": "function"
    },
    {
      "inputs": [
        {
          "internalType": "uint256",
          "name": "amount",
          "type": "uint256"
        }
      ],
      "name": "submitRepurchasePayment",
      "outputs": [],
      "stateMutability": "nonpayable",
      "type": "function"
    },
    {
      "inputs": [
        {
          "internalType": "bytes4",
          "name": "interfaceId",
          "type": "bytes4"
        }
      ],
      "name": "supportsInterface",
      "outputs": [
        {
          "internalType": "bool",
          "name": "",
          "type": "bool"
        }
      ],
      "stateMutability": "view",
      "type": "function"
    },
    {
      "inputs": [],
      "name": "termRepoCollateralManager",
      "outputs": [
        {
          "internalType": "contract ITermRepoCollateralManager",
          "name": "",
          "type": "address"
        }
      ],
      "stateMutability": "view",
      "type": "function"
    },
    {
      "inputs": [],
      "name": "termRepoId",
      "outputs": [
        {
          "internalType": "bytes32",
          "name": "",
          "type": "bytes32"
        }
      ],
      "stateMutability": "view",
      "type": "function"
    },
    {
      "inputs": [],
      "name": "termRepoLocker",
      "outputs": [
        {
          "internalType": "contract ITermRepoLocker",
          "name": "",
          "type": "address"
        }
      ],
      "stateMutability": "view",
      "type": "function"
    },
    {
      "inputs": [],
      "name": "termRepoRolloverManager",
      "outputs": [
        {
          "internalType": "contract ITermRepoRolloverManager",
          "name": "",
          "type": "address"
        }
      ],
      "stateMutability": "view",
      "type": "function"
    },
    {
      "inputs": [],
      "name": "termRepoToken",
      "outputs": [
        {
          "internalType": "contract ITermRepoToken",
          "name": "",
          "type": "address"
        }
      ],
      "stateMutability": "view",
      "type": "function"
    },
    {
      "inputs": [],
      "name": "totalOutstandingRepurchaseExposure",
      "outputs": [
        {
          "internalType": "uint256",
          "name": "",
          "type": "uint256"
        }
      ],
      "stateMutability": "view",
      "type": "function"
    },
    {
      "inputs": [],
      "name": "totalRepurchaseCollected",
      "outputs": [
        {
          "internalType": "uint256",
          "name": "",
          "type": "uint256"
        }
      ],
      "stateMutability": "view",
      "type": "function"
    },
    {
      "inputs": [
        {
          "internalType": "address",
          "name": "offeror",
          "type": "address"
        },
        {
          "internalType": "uint256",
          "name": "amount",
          "type": "uint256"
        }
      ],
      "name": "unlockOfferAmount",
      "outputs": [],
      "stateMutability": "nonpayable",
      "type": "function"
    },
    {
      "inputs": [
        {
          "internalType": "address",
          "name": "newImplementation",
          "type": "address"
        }
      ],
      "name": "upgradeTo",
      "outputs": [],
      "stateMutability": "nonpayable",
      "type": "function"
    },
    {
      "inputs": [
        {
          "internalType": "address",
          "name": "newImplementation",
          "type": "address"
        },
        {
          "internalType": "bytes",
          "name": "data",
          "type": "bytes"
        }
      ],
      "name": "upgradeToAndCall",
      "outputs": [],
      "stateMutability": "payable",
      "type": "function"
    },
    {
      "inputs": [],
      "name": "version",
      "outputs": [
        {
          "internalType": "string",
          "name": "",
          "type": "string"
        }
      ],
      "stateMutability": "view",
      "type": "function"
    }
  ],
  "bytecode": "0x60a0604052306080523480156200001557600080fd5b506200002062000026565b620000e7565b600054610100900460ff1615620000935760405162461bcd60e51b815260206004820152602760248201527f496e697469616c697a61626c653a20636f6e747261637420697320696e697469604482015266616c697a696e6760c81b606482015260840160405180910390fd5b60005460ff90811614620000e5576000805460ff191660ff9081179091556040519081527f7f26b83ff96e1f2b6a682f133852f6798a09c465da95921460cefb38474024989060200160405180910390a15b565b608051614d386200011f60003960008181611981015281816119c101528181612098015281816120d801526121500152614d386000f3fe60806040526004361061028a5760003560e01c80634dabab101161015b578063a22be9ca116100c7578063a22be9ca14610796578063a4018f13146107b6578063a95c4d62146107d8578063b330db28146107f9578063c023892614610811578063c99aa67814610827578063cc5b6e4a14610847578063d4912c101461085d578063d547741f1461087d578063ec9477e11461089d578063f87fd33a146108bd578063fa19d0ed146108dd578063fd5d357a146108f4578063fe05281a1461091457600080fd5b80634dabab101461060e5780634f1ef2861461062357806352d1902d1461063657806354fd4d501461064b5780635879fae9146106855780635c4b440e146106a55780635ca84e6e146106c657806375b238fc146106e7578063796a4455146107095780637e237e891461072b57806391d148541461074b5780639d5d21081461076b578063a217fddf1461078157600080fd5b80632f2ff15d116101fa5780632f2ff15d1461047e57806331bb625e1461049e57806332153220146104be57806333d6723e146104de57806336568abe146104fe5780633659cfe61461051e5780633718373f1461053e5780633d0f31f7146105605780633dcaa6c6146105765780633de81dc41461058d5780634055008a146105ae57806340d3da8b146105ce57806347c91898146105ee57600080fd5b806301ffc9a71461028f57806302b65fb0146102c457806308772759146102f457806309aa80fc146103165780631320834f146103365780631b2354371461034c5780631b433b1114610363578063201a662514610383578063228d5cc6146103a557806323e507f7146103d3578063248a9ca3146103f55780632762697d1461042557806327df3d3e1461045c575b600080fd5b34801561029b57600080fd5b506102af6102aa366004613faa565b610936565b60405190151581526020015b60405180910390f35b3480156102d057600080fd5b506102e6600080516020614cc383398151915281565b6040519081526020016102bb565b34801561030057600080fd5b5061031461030f366004613fe9565b61096d565b005b34801561032257600080fd5b506102e6610331366004614015565b610a5f565b34801561034257600080fd5b506102e660ff5481565b34801561035857600080fd5b506102e66101005481565b34801561036f57600080fd5b506102e661037e366004613fe9565b610b92565b34801561038f57600080fd5b506102e6600080516020614bbc83398151915281565b3480156103b157600080fd5b50610105546103c6906001600160a01b031681565b6040516102bb9190614056565b3480156103df57600080fd5b506102e6600080516020614c5c83398151915281565b34801561040157600080fd5b506102e661041036600461406a565b600090815260c9602052604090206001015490565b34801561043157600080fd5b506102e6610440366004614083565b6001600160a01b0316600090815261010a602052604090205490565b34801561046857600080fd5b506102e6600080516020614bfc83398151915281565b34801561048a57600080fd5b506103146104993660046140a0565b610ec3565b3480156104aa57600080fd5b506103146104b9366004613fe9565b610eed565b3480156104ca57600080fd5b506103146104d9366004614118565b610fa8565b3480156104ea57600080fd5b506103146104f9366004614238565b611165565b34801561050a57600080fd5b506103146105193660046140a0565b6118f9565b34801561052a57600080fd5b50610314610539366004614083565b611977565b34801561054a57600080fd5b506102e6600080516020614ca383398151915281565b34801561056c57600080fd5b506102e660fe5481565b34801561058257600080fd5b506102e66101025481565b34801561059957600080fd5b50610104546103c6906001600160a01b031681565b3480156105ba57600080fd5b506103146105c9366004614283565b611a3f565b3480156105da57600080fd5b506103146105e936600461406a565b611b48565b3480156105fa57600080fd5b5061031461060936600461429b565b611fb6565b34801561061a57600080fd5b506102af61207f565b61031461063136600461431c565b61208e565b34801561064257600080fd5b506102e6612143565b34801561065757600080fd5b50604080518082018252600b81526a19195d995b1bdc1b595b9d60aa1b602082015290516102bb91906143e7565b34801561069157600080fd5b506103146106a036600461406a565b6121f1565b3480156106b157600080fd5b50610106546103c6906001600160a01b031681565b3480156106d257600080fd5b50610107546103c6906001600160a01b031681565b3480156106f357600080fd5b506102e6600080516020614ce383398151915281565b34801561071557600080fd5b506102e6600080516020614bdc83398151915281565b34801561073757600080fd5b50610314610746366004613fe9565b61239f565b34801561075757600080fd5b506102af6107663660046140a0565b612589565b34801561077757600080fd5b506102e660fc5481565b34801561078d57600080fd5b506102e6600081565b3480156107a257600080fd5b506103146107b136600461441a565b6125b4565b3480156107c257600080fd5b506102e6600080516020614b9c83398151915281565b3480156107e457600080fd5b50610103546103c6906001600160a01b031681565b34801561080557600080fd5b506102e66301da9c0081565b34801561081d57600080fd5b506102e660fd5481565b34801561083357600080fd5b506102e66108423660046144b6565b6128a9565b34801561085357600080fd5b506102e660fb5481565b34801561086957600080fd5b50610314610878366004614508565b612b3b565b34801561088957600080fd5b506103146108983660046140a0565b612d85565b3480156108a957600080fd5b506103146108b8366004614015565b612daa565b3480156108c957600080fd5b506103146108d8366004614083565b612dd3565b3480156108e957600080fd5b506102e66101015481565b34801561090057600080fd5b5061031461090f366004614083565b612e41565b34801561092057600080fd5b506102e6600080516020614c3c83398151915281565b60006001600160e01b03198216637965db0b60e01b148061096757506301ffc9a760e01b6001600160e01b03198316145b92915050565b600080516020614ca383398151915261098581612e71565b610106546101035460405163049f2a5160e21b81526001600160a01b039283169263127ca944926109c09288929091169087906004016145be565b600060405180830381600087803b1580156109da57600080fd5b505af11580156109ee573d6000803e3d6000fd5b50506101095460fb5460405163bba53d0560e01b81526001600160a01b03909216935063bba53d059250610a2891879087906004016145e2565b600060405180830381600087803b158015610a4257600080fd5b505af1158015610a56573d6000803e3d6000fd5b50505050505050565b6000600080516020614bdc833981519152610a7981612e71565b61010754604051637acdda2360e11b81526000916001600160a01b03169063f59bb44690610aad9088908890600401614601565b6020604051808303816000875af1158015610acc573d6000803e3d6000fd5b505050506040513d601f19601f82011682018060405250810190610af0919061461a565b6001600160a01b038716600090815261010a6020526040902054909150811115610b2d576040516305e5c1fd60e51b815260040160405180910390fd5b6001600160a01b038616600090815261010a602052604081208054839290610b56908490614649565b925050819055508060fc6000828254610b6f9190614649565b90915550610b7d9050612e7b565b610b8957610b8961465c565b95945050505050565b6000600080516020614c3c833981519152610bac81612e71565b60fe54421015610bcf5760405163794150ab60e11b815260040160405180910390fd5b60ff544210610bf1576040516366694fe960e11b815260040160405180910390fd5b6001600160a01b038416600090815261010a60205260408120548410610c205750670de0b6b3a7640000610c59565b6001600160a01b038516600090815261010a6020526040902054610c4c670de0b6b3a764000086614672565b610c569190614689565b90505b6001600160a01b038516600090815261010a6020526040902054841115610d7a576001600160a01b038516600090815261010a602052604081205460fc805491929091610ca7908490614649565b90915550506001600160a01b038516600090815261010a602052604081205460fd805491929091610cd99084906146ab565b90915550506101095460fb546001600160a01b03878116600090815261010a60205260409081902054905163380d921960e01b8152919093169263380d921992610d299290918a916004016145e2565b600060405180830381600087803b158015610d4357600080fd5b505af1158015610d57573d6000803e3d6000fd5b5050506001600160a01b038616600090815261010a602052604081205550610e43565b6001600160a01b038516600090815261010a602052604081208054869290610da3908490614649565b925050819055508360fc6000828254610dbc9190614649565b925050819055508360fd6000828254610dd591906146ab565b90915550506101095460fb5460405163380d921960e01b81526001600160a01b039092169163380d921991610e1091899089906004016145e2565b600060405180830381600087803b158015610e2a57600080fd5b505af1158015610e3e573d6000803e3d6000fd5b505050505b610e4b612e7b565b610e5757610e5761465c565b610105546040516364deb92b60e11b81526001600160a01b039091169063c9bd725690610e88908890600401614056565b600060405180830381600087803b158015610ea257600080fd5b505af1158015610eb6573d6000803e3d6000fd5b5092979650505050505050565b600082815260c96020526040902060010154610ede81612e71565b610ee88383612fc5565b505050565b600080516020614ca3833981519152610f0581612e71565b610106546101035460405163109c8cf960e11b81526001600160a01b039283169263213919f292610f409288929091169087906004016145be565b600060405180830381600087803b158015610f5a57600080fd5b505af1158015610f6e573d6000803e3d6000fd5b50506101095460fb5460405163069d498b60e51b81526001600160a01b03909216935063d3a931609250610a2891879087906004016145e2565b600080516020614bfc833981519152610fc081612e71565b61010b5460ff1615610fe557604051634ce377bb60e11b815260040160405180910390fd5b61010b805460ff1916600117905561010680546001600160a01b03808e166001600160a01b03199283161790925561010480548d841690831617905561010580548984169083161790556101078054928c1692909116919091179055611059600080516020614ca383398151915289612fc5565b611071600080516020614c5c83398151915288612fc5565b611089600080516020614ce383398151915285612fc5565b6110a1600080516020614bbc83398151915286612fc5565b6110b9600080516020614bdc8339815191528b612fc5565b6110d1600080516020614cc383398151915287612fc5565b6101095460fb546101035460fe5460ff54610100546101015460405163046b6ef360e01b81526001600160a01b039788169763046b6ef39761112697909630969190921694919390928d908d906004016146be565b600060405180830381600087803b15801561114057600080fd5b505af1158015611154573d6000803e3d6000fd5b505050505050505050505050505050565b3361117e600080516020614b9c83398151915282612589565b61119b57604051631cbdffd960e11b815260040160405180910390fd5b60fe544211156111be576040516304ff30ef60e21b815260040160405180910390fd5b61010460009054906101000a90046001600160a01b03166001600160a01b031663190e80126040518163ffffffff1660e01b8152600401602060405180830381865afa158015611212573d6000803e3d6000fd5b505050506040513d601f19601f820116820180604052508101906112369190614732565b60ff1682146112be5760405163dd23c3ad60e01b815260206004820152604260248201527f436f6c6c61746572616c20416d6f756e7473206172726179206e6f742073616d60448201527f65206c656e67746820617320636f6c6c61746572616c20746f6b656e73206c696064820152611cdd60f21b608482015260a4015b60405180910390fd5b6000805b83811015611550576101045460405163172c48c760e01b8152600481018390526001600160a01b0390911690639210632f908590839063172c48c790602401602060405180830381865afa15801561131e573d6000803e3d6000fd5b505050506040513d601f19601f820116820180604052508101906113429190614755565b88888681811061135457611354614772565b905060200201356040518463ffffffff1660e01b8152600401611379939291906145be565b600060405180830381600087803b15801561139357600080fd5b505af11580156113a7573d6000803e3d6000fd5b50506101045460405163172c48c760e01b81526004810185905260009350611530925061152b916001600160a01b0316906367af01d090829063172c48c790602401602060405180830381865afa158015611406573d6000803e3d6000fd5b505050506040513d601f19601f8201168201806040525081019061142a9190614755565b8a8a8881811061143c5761143c614772565b905060200201356040518363ffffffff1660e01b8152600401611460929190614601565b602060405180830381865afa15801561147d573d6000803e3d6000fd5b505050506040513d601f19601f820116820180604052508101906114a19190614788565b604051806020016040528061010760009054906101000a90046001600160a01b03166001600160a01b031663ef4474cd6040518163ffffffff1660e01b8152600401602060405180830381865afa158015611500573d6000803e3d6000fd5b505050506040513d601f19601f82011682018060405250810190611524919061461a565b905261304b565b61308e565b905061153c81846146ab565b92505080611549906147c9565b90506112c2565b508085111561157257604051633a23d82560e01b815260040160405180910390fd5b60006115a960405180602001604052804260fe546115909190614649565b905260408051602081019091526301da9c00815261304b565b905060006115c8604051806020016040528061010154815250836130a6565b905060006115d682896130e5565b905060006115e4828a614649565b610107546101085460408051633800918160e21b815290519394506000936001600160a01b039384169363f0dda65c93169163e00246049160048083019260209291908290030181865afa158015611640573d6000803e3d6000fd5b505050506040513d601f19601f820116820180604052508101906116649190614755565b856040518363ffffffff1660e01b8152600401611682929190614601565b6020604051808303816000875af11580156116a1573d6000803e3d6000fd5b505050506040513d601f19601f820116820180604052508101906116c5919061461a565b61010754604051633c37699760e21b81529192506000916001600160a01b039091169063f0dda65c906116fe908b908790600401614601565b6020604051808303816000875af115801561171d573d6000803e3d6000fd5b505050506040513d601f19601f82011682018060405250810190611741919061461a565b6101075460405163b979dee360e01b8152600481018e90529192506001600160a01b03169063b979dee390602401600060405180830381600087803b15801561178957600080fd5b505af115801561179d573d6000803e3d6000fd5b50505050600081836117af91906146ab565b6001600160a01b038a16600090815261010a60205260408120805492935083929091906117dd9084906146ab565b925050819055508060fc60008282546117f691906146ab565b909155506118049050612e7b565b6118105761181061465c565b6101095460fb5460405160016274ee3760e01b031981526001600160a01b039092169163ff8b11c99161184d918d90879087908a906004016147e2565b600060405180830381600087803b15801561186757600080fd5b505af115801561187b573d6000803e3d6000fd5b50506101095460fb54604051632101923f60e11b81526001600160a01b039092169350634203247e92506118b9918d9089908b9088906004016147e2565b600060405180830381600087803b1580156118d357600080fd5b505af11580156118e7573d6000803e3d6000fd5b50505050505050505050505050505050565b6001600160a01b03811633146119695760405162461bcd60e51b815260206004820152602f60248201527f416363657373436f6e74726f6c3a2063616e206f6e6c792072656e6f756e636560448201526e103937b632b9903337b91039b2b63360891b60648201526084016112b5565b6119738282613105565b5050565b6001600160a01b037f00000000000000000000000000000000000000000000000000000000000000001630036119bf5760405162461bcd60e51b81526004016112b59061480e565b7f00000000000000000000000000000000000000000000000000000000000000006001600160a01b03166119f161316c565b6001600160a01b031614611a175760405162461bcd60e51b81526004016112b59061485a565b611a2081613188565b60408051600080825260208201909252611a3c918391906131d9565b50565b600080516020614bfc833981519152611a5781612e71565b611a7e600080516020614ca3833981519152611a796060850160408601614083565b612fc5565b611a9d600080516020614c5c833981519152611a796020850185614083565b6101095460fb546001600160a01b039091169063299cf9629030611ac76060870160408801614083565b611ad46020880188614083565b6040516001600160e01b031960e087901b16815260048101949094526001600160a01b03928316602485015290821660448401521660648201526084015b600060405180830381600087803b158015611b2c57600080fd5b505af1158015611b40573d6000803e3d6000fd5b505050505050565b60ff544210611b6a576040516366694fe960e11b815260040160405180910390fd5b33600081815261010a60205260408120549003611b9a5760405163baca79c960e01b815260040160405180910390fd5b610103546040805163313ce56760e01b815290516001600160a01b0390921691600091839163313ce567916004808201926020929091908290030181865afa158015611bea573d6000803e3d6000fd5b505050506040513d601f19601f82011682018060405250810190611c0e9190614732565b60ff1690506000611c1e84613344565b90506000611c2d836012614649565b611c3890600a61498a565b611cca6040518060200160405280866012611c539190614649565b611c5e90600a61498a565b611c689087614672565b815250604051806020016040528061010760009054906101000a90046001600160a01b03166001600160a01b031663ef4474cd6040518163ffffffff1660e01b8152600401602060405180830381865afa158015611500573d6000803e3d6000fd5b51611cd59190614689565b905080861015611e255761010754604051637acdda2360e11b81526000916001600160a01b03169063f59bb44690611d139089908b90600401614601565b6020604051808303816000875af1158015611d32573d6000803e3d6000fd5b505050506040513d601f19601f82011682018060405250810190611d56919061461a565b6001600160a01b038716600090815261010a6020526040812080549293508392909190611d84908490614649565b925050819055508060fc6000828254611d9d9190614649565b90915550611dab9050612e7b565b611db757611db761465c565b6101095460fb54604051630190d5cf60e01b81526001600160a01b0390921691630190d5cf91611ded918a9086906004016145e2565b600060405180830381600087803b158015611e0757600080fd5b505af1158015611e1b573d6000803e3d6000fd5b5050505050611b40565b8160fc6000828254611e379190614649565b90915550506001600160a01b038516600090815261010a602052604081208054849290611e65908490614649565b909155505061010754604051632770a7eb60e21b81526001600160a01b0390911690639dc29fac90611e9d9088908590600401614601565b600060405180830381600087803b158015611eb757600080fd5b505af1158015611ecb573d6000803e3d6000fd5b50505050611ed7612e7b565b611ee357611ee361465c565b6101095460fb54604051630190d5cf60e01b81526001600160a01b0390921691630190d5cf91611f1991899087906004016145e2565b600060405180830381600087803b158015611f3357600080fd5b505af1158015611f47573d6000803e3d6000fd5b5050610104546040516312a9006960e01b81526001600160a01b0390911692506312a900699150611f7c908890600401614056565b600060405180830381600087803b158015611f9657600080fd5b505af1158015611faa573d6000803e3d6000fd5b50505050505050505050565b600080516020614c5c833981519152611fce81612e71565b61010754604051638bef7f5b60e01b81526000916001600160a01b031690638bef7f5b906120029089908890600401614601565b6020604051808303816000875af1158015612021573d6000803e3d6000fd5b505050506040513d601f19601f82011682018060405250810190612045919061461a565b61010954604051630ac59b7b60e11b81529192506001600160a01b03169063158b36f690611f7c9086908a908a908a9088906004016147e2565b6000612089612e7b565b905090565b6001600160a01b037f00000000000000000000000000000000000000000000000000000000000000001630036120d65760405162461bcd60e51b81526004016112b59061480e565b7f00000000000000000000000000000000000000000000000000000000000000006001600160a01b031661210861316c565b6001600160a01b03161461212e5760405162461bcd60e51b81526004016112b59061485a565b61213782613188565b611973828260016131d9565b6000306001600160a01b037f000000000000000000000000000000000000000000000000000000000000000016146121de5760405162461bcd60e51b815260206004820152603860248201527f555550535570677261646561626c653a206d757374206e6f742062652063616c6044820152771b1959081d1a1c9bdd59da0819195b1959d85d1958d85b1b60421b60648201526084016112b5565b50600080516020614c1c83398151915290565b60ff5433904210612215576040516366694fe960e11b815260040160405180910390fd5b6001600160a01b038116600090815261010a6020526040812054900361224e5760405163baca79c960e01b815260040160405180910390fd5b60001982036122ac5760405163dd23c3ad60e01b8152602060048201526024808201527f7265707572636861736520616d6f756e742063616e6e6f742062652075696e74604482015263040dac2f60e31b60648201526084016112b5565b60006122b782613344565b9050808311156122da576040516305e5c1fd60e51b815260040160405180910390fd5b6122e582838561340c565b6001600160a01b038216600090815261010a6020526040812054900361236957610104546040516312a9006960e01b81526001600160a01b03909116906312a9006990612336908590600401614056565b600060405180830381600087803b15801561235057600080fd5b505af1158015612364573d6000803e3d6000fd5b505050505b6101095460fb54604051632df248c560e11b81526001600160a01b0390921691635be4918a91610a2891869088906004016145e2565b6101005442116123c257604051634724bbc760e11b815260040160405180910390fd5b610107546040516370a0823160e01b81526001600160a01b03909116906370a08231906123f3908590600401614056565b602060405180830381865afa158015612410573d6000803e3d6000fd5b505050506040513d601f19601f82011682018060405250810190612434919061461a565b6000036124545760405163644d752960e01b815260040160405180910390fd5b60fd54612463906127106146ab565b61010760009054906101000a90046001600160a01b03166001600160a01b031663723f4e2a6040518163ffffffff1660e01b8152600401602060405180830381865afa1580156124b7573d6000803e3d6000fd5b505050506040513d601f19601f820116820180604052508101906124db919061461a565b116124ea576119738282613527565b61010460009054906101000a90046001600160a01b03166001600160a01b031663a11d52f56040518163ffffffff1660e01b8152600401602060405180830381865afa15801561253e573d6000803e3d6000fd5b505050506040513d601f19601f8201168201806040525081019061256291906149ab565b612570576119738282613788565b604051633eaef6d560e21b815260040160405180910390fd5b600091825260c9602090815260408084206001600160a01b0393909316845291905290205460ff1690565b600080516020614c5c8339815191526125cc81612e71565b60fe5442106125ee576040516304ff30ef60e21b815260040160405180910390fd5b6001600160a01b038916600090815261010a6020526040812080548992906126179084906146ab565b925050819055508660fc600082825461263091906146ab565b90915550506101045460405163578db95760e01b81526001600160a01b039091169063578db9579061266e908c908a908a908a908a906004016149c6565b600060405180830381600087803b15801561268857600080fd5b505af115801561269c573d6000803e3d6000fd5b5050505060006126d46126ce6040518060200160405280868152506040518060200160405280610101548152506130a6565b8a6130e5565b610106546101085460408051633800918160e21b815290519394506001600160a01b039283169363213919f2939092169163e0024604916004808201926020929091908290030181865afa158015612730573d6000803e3d6000fd5b505050506040513d601f19601f820116820180604052508101906127549190614755565b610103546040516001600160e01b031960e085901b16815261278592916001600160a01b03169086906004016145be565b600060405180830381600087803b15801561279f57600080fd5b505af11580156127b3573d6000803e3d6000fd5b505061010654610103546001600160a01b03918216935063213919f292508d91166127de858e614649565b6040518463ffffffff1660e01b81526004016127fc939291906145be565b600060405180830381600087803b15801561281657600080fd5b505af115801561282a573d6000803e3d6000fd5b50506101095460fb5460405160016274ee3760e01b031981526001600160a01b03909216935063ff8b11c9925061286b918e908e908e9088906004016147e2565b600060405180830381600087803b15801561288557600080fd5b505af1158015612899573d6000803e3d6000fd5b5050505050505050505050505050565b6000600080516020614c5c8339815191526128c381612e71565b60fe5442106128e5576040516304ff30ef60e21b815260040160405180910390fd5b6001600160a01b038716600090815261010a60205260408120805487929061290e9084906146ab565b925050819055508460fc600082825461292791906146ab565b92505081905550600061296261295c6040518060200160405280878152506040518060200160405280610101548152506130a6565b886130e5565b610106546101085460408051633800918160e21b815290519394506001600160a01b039283169363213919f2939092169163e0024604916004808201926020929091908290030181865afa1580156129be573d6000803e3d6000fd5b505050506040513d601f19601f820116820180604052508101906129e29190614755565b610103546040516001600160e01b031960e085901b168152612a1392916001600160a01b03169086906004016145be565b600060405180830381600087803b158015612a2d57600080fd5b505af1158015612a41573d6000803e3d6000fd5b5050505060008188612a539190614649565b610106546101035460405163109c8cf960e11b81529293506001600160a01b039182169263213919f292612a90928b9291169086906004016145be565b600060405180830381600087803b158015612aaa57600080fd5b505af1158015612abe573d6000803e3d6000fd5b50506101095460fb5460405163335ec7a360e21b81526001600160a01b03909216935063cd7b1e8c9250612afc918d9086908d9089906004016147e2565b600060405180830381600087803b158015612b1657600080fd5b505af1158015612b2a573d6000803e3d6000fd5b50929b9a5050505050505050505050565b600054610100900460ff1615808015612b5b5750600054600160ff909116105b80612b7c5750612b6a30613aae565b158015612b7c575060005460ff166001145b612bdf5760405162461bcd60e51b815260206004820152602e60248201527f496e697469616c697a61626c653a20636f6e747261637420697320616c72656160448201526d191e481a5b9a5d1a585b1a5e995960921b60648201526084016112b5565b6000805460ff191660011790558015612c02576000805461ff0019166101001790555b612c0a613abd565b612c12613abd565b8a8a604051602001612c25929190614a53565b60408051601f19818403018152919052805160209091012060fb55600060fc81905560fd5560fe899055612c59888a6146ab565b60ff5586612c67898b6146ab565b612c7191906146ab565b610100556101018690556001600160a01b038516612ccf5760405162461bcd60e51b815260206004820152601b60248201527a2d32b9379030b2323932b9b990383ab931b430b9b2903a37b5b2b760291b60448201526064016112b5565b61010380546001600160a01b038088166001600160a01b031992831617909255610108805487841690831617905561010980549286169290911691909117905561010b805460ff19169055612d32600080516020614bfc83398151915283612fc5565b8015612d78576000805461ff0019169055604051600181527f7f26b83ff96e1f2b6a682f133852f6798a09c465da95921460cefb38474024989060200160405180910390a15b5050505050505050505050565b600082815260c96020526040902060010154612da081612e71565b610ee88383613105565b600080516020614bdc833981519152612dc281612e71565b612dcd84848461340c565b50505050565b600080516020614ce3833981519152612deb81612e71565b612e03600080516020614b9c83398151915283612fc5565b6101095460fb54604051637c4e040f60e11b815260048101919091526001600160a01b0384811660248301529091169063f89c081e90604401611b12565b600080516020614cc3833981519152612e5981612e71565b611973600080516020614c3c83398151915283612fc5565b611a3c8133613b2a565b600061010254600003612f2557610107546040805163391fa71560e11b81529051612710926001600160a01b03169163723f4e2a9160048083019260209291908290030181865afa158015612ed4573d6000803e3d6000fd5b505050506040513d601f19601f82011682018060405250810190612ef8919061461a565b612f029190614689565b61271060fd5460fc54612f1591906146ab565b612f1f9190614689565b14905090565b604080516020808201835261010254825261010754835163391fa71560e11b8152935161271094612fab94936001600160a01b039093169263723f4e2a926004808401938290030181865afa158015612f82573d6000803e3d6000fd5b505050506040513d601f19601f82011682018060405250810190612fa6919061461a565b6130e5565b612fb59190614689565b61271060fd54612f1f9190614689565b612fcf8282612589565b61197357600082815260c9602090815260408083206001600160a01b03851684529091529020805460ff191660011790556130073390565b6001600160a01b0316816001600160a01b0316837f2f8788117e7eff1d82e926ec794901d17c78024a50270940304540a733656f0d60405160405180910390a45050565b604080516020810190915260008152604051806020016040528061308561307e8660000151670de0b6b3a7640000613b83565b8551613b96565b90529392505050565b805160009061096790670de0b6b3a764000090614689565b6040805160208101909152600081526040518060200160405280670de0b6b3a76400006130db86600001518660000151613b83565b6130859190614689565b6000806130f28484613ba2565b90506130fd8161308e565b949350505050565b61310f8282612589565b1561197357600082815260c9602090815260408083206001600160a01b0385168085529252808320805460ff1916905551339285917ff6391f5c32d9c69d2a47ea670b442974b53935d1edc7fd64eb21e047a839171b9190a45050565b600080516020614c1c833981519152546001600160a01b031690565b600080516020614bbc8339815191526131a081612e71565b6101095460405163b3c2d50b60e01b81523060048201526001600160a01b0384811660248301529091169063b3c2d50b90604401611b12565b7f4910fdfa16fed3260ed0e7147f7cc6da11a60208b5b9406d12a635614ffd91435460ff161561320c57610ee883613bca565b826001600160a01b03166352d1902d6040518163ffffffff1660e01b8152600401602060405180830381865afa925050508015613266575060408051601f3d908101601f191682019092526132639181019061461a565b60015b6132c95760405162461bcd60e51b815260206004820152602e60248201527f45524331393637557067726164653a206e657720696d706c656d656e7461746960448201526d6f6e206973206e6f74205555505360901b60648201526084016112b5565b600080516020614c1c83398151915281146133385760405162461bcd60e51b815260206004820152602960248201527f45524331393637557067726164653a20756e737570706f727465642070726f786044820152681a58589b195555525160ba1b60648201526084016112b5565b50610ee8838383613c64565b610105546040516334e6c77160e01b8152600091829182916001600160a01b0316906334e6c7719061337a908790600401614056565b608060405180830381865afa158015613397573d6000803e3d6000fd5b505050506040513d601f19601f820116820180604052508101906133bb9190614a63565b90508060200151600014806133d1575080606001515b156133df57600091506133e7565b806020015191505b6001600160a01b038416600090815261010a60205260409020546130fd908390614649565b6001600160a01b038316600090815261010a6020526040902054811115613446576040516305e5c1fd60e51b815260040160405180910390fd5b6001600160a01b038316600090815261010a60205260408120805483929061346f908490614649565b925050819055508060fc60008282546134889190614649565b925050819055508060fd60008282546134a191906146ab565b9091555050610106546101035460405163049f2a5160e21b81526001600160a01b039283169263127ca944926134e19287929091169086906004016145be565b600060405180830381600087803b1580156134fb57600080fd5b505af115801561350f573d6000803e3d6000fd5b5050505061351b612e7b565b610ee857610ee861465c565b61010754604051637acdda2360e11b81526000916001600160a01b03169063f59bb4469061355b9086908690600401614601565b6020604051808303816000875af115801561357a573d6000803e3d6000fd5b505050506040513d601f19601f8201168201806040525081019061359e919061461a565b905060fd54811161369d578060fd60008282546135bb9190614649565b9091555050610106546101035460405163109c8cf960e11b81526001600160a01b039283169263213919f2926135fb9288929091169086906004016145be565b600060405180830381600087803b15801561361557600080fd5b505af1158015613629573d6000803e3d6000fd5b50506101095460fb54604051636a7a0bd160e11b81526001600160a01b03909216935063d4f417a292506136669187908690600090600401614ad5565b600060405180830381600087803b15801561368057600080fd5b505af1158015613694573d6000803e3d6000fd5b50505050613780565b60fd80546000909155610106546101035460405163109c8cf960e11b81526001600160a01b039283169263213919f2926136e19289929091169086906004016145be565b600060405180830381600087803b1580156136fb57600080fd5b505af115801561370f573d6000803e3d6000fd5b50506101095460fb54604051636a7a0bd160e11b81526001600160a01b03909216935063d4f417a2925061374c9188908690600090600401614ad5565b600060405180830381600087803b15801561376657600080fd5b505af115801561377a573d6000803e3d6000fd5b50505050505b61351b612e7b565b610102546000036137ee576137e86040518060200160405280670de0b6b3a764000060fd546137b79190614672565b8152506040518060200160405280670de0b6b3a764000060fc5460fd546137de91906146ab565b6115249190614672565b51610102555b61010754604051637acdda2360e11b81526000916001600160a01b03169063f59bb446906138229086908690600401614601565b6020604051808303816000875af1158015613841573d6000803e3d6000fd5b505050506040513d601f19601f82011682018060405250810190613865919061461a565b90506000613884604051806020016040528061010254815250836130e5565b905060fd54811161399d578060fd60008282546138a19190614649565b9091555050610106546101035460405163109c8cf960e11b81526001600160a01b039283169263213919f2926138e19289929091169086906004016145be565b600060405180830381600087803b1580156138fb57600080fd5b505af115801561390f573d6000803e3d6000fd5b50506101095460fb54610102546001600160a01b03909216935063d4f417a29250908790859061394790670de0b6b3a7640000614649565b6040518563ffffffff1660e01b81526004016139669493929190614ad5565b600060405180830381600087803b15801561398057600080fd5b505af1158015613994573d6000803e3d6000fd5b50505050613a9a565b60fd80546000909155610106546101035460405163109c8cf960e11b81526001600160a01b039283169263213919f2926139e1928a929091169086906004016145be565b600060405180830381600087803b1580156139fb57600080fd5b505af1158015613a0f573d6000803e3d6000fd5b50506101095460fb54610102546001600160a01b03909216935063d4f417a292509088908590613a4790670de0b6b3a7640000614649565b6040518563ffffffff1660e01b8152600401613a669493929190614ad5565b600060405180830381600087803b158015613a8057600080fd5b505af1158015613a94573d6000803e3d6000fd5b50505050505b613aa2612e7b565b612dcd57612dcd61465c565b6001600160a01b03163b151590565b600054610100900460ff16613b285760405162461bcd60e51b815260206004820152602b60248201527f496e697469616c697a61626c653a20636f6e7472616374206973206e6f74206960448201526a6e697469616c697a696e6760a81b60648201526084016112b5565b565b613b348282612589565b61197357613b4181613c89565b613b4c836020613c9b565b604051602001613b5d929190614af9565b60408051601f198184030181529082905262461bcd60e51b82526112b5916004016143e7565b6000613b8f8284614672565b9392505050565b6000613b8f8284614689565b6040805160208101909152600081526040518060200160405280613085856000015185613b83565b613bd381613aae565b613c355760405162461bcd60e51b815260206004820152602d60248201527f455243313936373a206e657720696d706c656d656e746174696f6e206973206e60448201526c1bdd08184818dbdb9d1c9858dd609a1b60648201526084016112b5565b600080516020614c1c83398151915280546001600160a01b0319166001600160a01b0392909216919091179055565b613c6d83613e36565b600082511180613c7a5750805b15610ee857612dcd8383613e76565b60606109676001600160a01b03831660145b60606000613caa836002614672565b613cb59060026146ab565b6001600160401b03811115613ccc57613ccc6142d6565b6040519080825280601f01601f191660200182016040528015613cf6576020820181803683370190505b509050600360fc1b81600081518110613d1157613d11614772565b60200101906001600160f81b031916908160001a905350600f60fb1b81600181518110613d4057613d40614772565b60200101906001600160f81b031916908160001a9053506000613d64846002614672565b613d6f9060016146ab565b90505b6001811115613de7576f181899199a1a9b1b9c1cb0b131b232b360811b85600f1660108110613da357613da3614772565b1a60f81b828281518110613db957613db9614772565b60200101906001600160f81b031916908160001a90535060049490941c93613de081614b68565b9050613d72565b508315613b8f5760405162461bcd60e51b815260206004820181905260248201527f537472696e67733a20686578206c656e67746820696e73756666696369656e7460448201526064016112b5565b613e3f81613bca565b6040516001600160a01b038216907fbc7cd75a20ee27fd9adebab32041f755214dbc6bffa90cc0225b39da2e5c2d3b90600090a250565b6060613b8f8383604051806060016040528060278152602001614c7c602791396060600080856001600160a01b031685604051613eb39190614b7f565b600060405180830381855af49150503d8060008114613eee576040519150601f19603f3d011682016040523d82523d6000602084013e613ef3565b606091505b5091509150613f0486838387613f0e565b9695505050505050565b60608315613f7b578251600003613f7457613f2885613aae565b613f745760405162461bcd60e51b815260206004820152601d60248201527f416464726573733a2063616c6c20746f206e6f6e2d636f6e747261637400000060448201526064016112b5565b50816130fd565b6130fd8383815115613f905781518083602001fd5b8060405162461bcd60e51b81526004016112b591906143e7565b600060208284031215613fbc57600080fd5b81356001600160e01b031981168114613b8f57600080fd5b6001600160a01b0381168114611a3c57600080fd5b60008060408385031215613ffc57600080fd5b823561400781613fd4565b946020939093013593505050565b60008060006060848603121561402a57600080fd5b833561403581613fd4565b9250602084013561404581613fd4565b929592945050506040919091013590565b6001600160a01b0391909116815260200190565b60006020828403121561407c57600080fd5b5035919050565b60006020828403121561409557600080fd5b8135613b8f81613fd4565b600080604083850312156140b357600080fd5b8235915060208301356140c581613fd4565b809150509250929050565b60008083601f8401126140e257600080fd5b5081356001600160401b038111156140f957600080fd5b60208301915083602082850101111561411157600080fd5b9250929050565b6000806000806000806000806000806101208b8d03121561413857600080fd5b8a3561414381613fd4565b995060208b013561415381613fd4565b985060408b013561416381613fd4565b975060608b013561417381613fd4565b965060808b013561418381613fd4565b955060a08b013561419381613fd4565b945060c08b01356141a381613fd4565b935060e08b01356141b381613fd4565b92506101008b01356001600160401b038111156141cf57600080fd5b6141db8d828e016140d0565b915080935050809150509295989b9194979a5092959850565b60008083601f84011261420657600080fd5b5081356001600160401b0381111561421d57600080fd5b6020830191508360208260051b850101111561411157600080fd5b60008060006040848603121561424d57600080fd5b8335925060208401356001600160401b0381111561426a57600080fd5b614276868287016141f4565b9497909650939450505050565b60006060828403121561429557600080fd5b50919050565b600080600080608085870312156142b157600080fd5b84356142bc81613fd4565b966020860135965060408601359560600135945092505050565b634e487b7160e01b600052604160045260246000fd5b604051601f8201601f191681016001600160401b0381118282101715614314576143146142d6565b604052919050565b6000806040838503121561432f57600080fd5b823561433a81613fd4565b91506020838101356001600160401b038082111561435757600080fd5b818601915086601f83011261436b57600080fd5b81358181111561437d5761437d6142d6565b61438f601f8201601f191685016142ec565b915080825287848285010111156143a557600080fd5b80848401858401376000848284010152508093505050509250929050565b60005b838110156143de5781810151838201526020016143c6565b50506000910152565b60208152600082518060208401526144068160408501602087016143c3565b601f01601f19169190910160400192915050565b60008060008060008060008060c0898b03121561443657600080fd5b883561444181613fd4565b9750602089013596506040890135955060608901356001600160401b038082111561446b57600080fd5b6144778c838d016141f4565b909750955060808b013591508082111561449057600080fd5b5061449d8b828c016141f4565b999c989b50969995989497949560a00135949350505050565b600080600080600060a086880312156144ce57600080fd5b85356144d981613fd4565b9450602086013593506040860135925060608601356144f781613fd4565b949793965091946080013592915050565b6000806000806000806000806000806101208b8d03121561452857600080fd5b8a356001600160401b0381111561453e57600080fd5b61454a8d828e016140d0565b909b5099505060208b0135975060408b0135965060608b0135955060808b0135945060a08b013561457a81613fd4565b935060c08b013561458a81613fd4565b925060e08b013561459a81613fd4565b91506101008b01356145ab81613fd4565b809150509295989b9194979a5092959850565b6001600160a01b039384168152919092166020820152604081019190915260600190565b9283526001600160a01b03919091166020830152604082015260600190565b6001600160a01b03929092168252602082015260400190565b60006020828403121561462c57600080fd5b5051919050565b634e487b7160e01b600052601160045260246000fd5b8181038181111561096757610967614633565b634e487b7160e01b600052600160045260246000fd5b808202811582820484141761096757610967614633565b6000826146a657634e487b7160e01b600052601260045260246000fd5b500490565b8082018082111561096757610967614633565b8981526001600160a01b03898116602083015288166040820152606081018790526080810186905260a0810185905260c0810184905261010060e08201819052810182905260006101208385828501376000838501820152601f909301601f19169091019091019998505050505050505050565b60006020828403121561474457600080fd5b815160ff81168114613b8f57600080fd5b60006020828403121561476757600080fd5b8151613b8f81613fd4565b634e487b7160e01b600052603260045260246000fd5b60006020828403121561479a57600080fd5b604051602081018181106001600160401b03821117156147bc576147bc6142d6565b6040529151825250919050565b6000600182016147db576147db614633565b5060010190565b9485526001600160a01b0393909316602085015260408401919091526060830152608082015260a00190565b6020808252602c908201527f46756e6374696f6e206d7573742062652063616c6c6564207468726f7567682060408201526b19195b1959d85d1958d85b1b60a21b606082015260800190565b6020808252602c908201527f46756e6374696f6e206d7573742062652063616c6c6564207468726f7567682060408201526b6163746976652070726f787960a01b606082015260800190565b600181815b808511156148e15781600019048211156148c7576148c7614633565b808516156148d457918102915b93841c93908002906148ab565b509250929050565b6000826148f857506001610967565b8161490557506000610967565b816001811461491b576002811461492557614941565b6001915050610967565b60ff84111561493657614936614633565b50506001821b610967565b5060208310610133831016604e8410600b8410161715614964575081810a610967565b61496e83836148a6565b806000190482111561498257614982614633565b029392505050565b6000613b8f83836148e9565b805180151581146149a657600080fd5b919050565b6000602082840312156149bd57600080fd5b613b8f82614996565b6001600160a01b03868116825260606020808401829052908301869052600091879160808501845b89811015614a15578435614a0181613fd4565b8416825293820193908201906001016149ee565b5085810360408701528681526001600160fb1b03871115614a3557600080fd5b8660051b935083888383013790920190910198975050505050505050565b8183823760009101908152919050565b600060808284031215614a7557600080fd5b604051608081018181106001600160401b0382111715614a9757614a976142d6565b6040528251614aa581613fd4565b808252506020830151602082015260408301516040820152614ac960608401614996565b60608201529392505050565b9384526001600160a01b039290921660208401526040830152606082015260800190565b76020b1b1b2b9b9a1b7b73a3937b61d1030b1b1b7bab73a1604d1b815260008351614b2b8160178501602088016143c3565b7001034b99036b4b9b9b4b733903937b6329607d1b6017918401918201528351614b5c8160288401602088016143c3565b01602801949350505050565b600081614b7757614b77614633565b506000190190565b60008251614b918184602087016143c3565b919091019291505056fecee578699694e0144c2aba4ed7fb4e9131a3e2dbd751e7f11a646cc6a39d67bd793a6c9b7e0a9549c74edc2f9ae0dc50903dfaa9a56fb0116b27a8c71de3e2c6413cc8bb35fe129dacd3dfaae80d6d4c5d313f64cee9dd6712e7ca52e38573a930d41a597cac127d8249d31298b50e481ee82c3f4a49ff93c76a22735aa9f3ad360894a13ba1a3210667c828492db98dca3e2076cc3735a920a3ca505d382bbcf4b6b486426e3c004413defb7013cd482f29189a98e074f1c202b2ac26536bb21d693f62a755e2b3c6494da41af454605b9006057cb3c79b6adda1378f2a50a7416464726573733a206c6f772d6c6576656c2064656c65676174652063616c6c206661696c65646e14a979b95b01beecd617807f3738f4e067938da99755b16afdcf7148d313b76e3cc031d23d7153f72e87cbfd113a0351c60d8ce52b8a31c944d543a384b7c9a49807205ce4d355092ef5a8a18f56e8913cf4a201fbe287825b095693c21775a2646970667358221220bb1092217d4df72d0917938ef825605fc7e2e2e0259546f653a83ae8a51c6bcb64736f6c63430008120033",
  "linkReferences": {},
  "deployedLinkReferences": {}
}