{
  "_format": "hh-sol-artifact-1",
  "contractName": "TermRepoServicer",
  "sourceName": "contracts/TermRepoServicer.sol",
  "abi": [
    {
      "inputs": [],
      "stateMutability": "nonpayable",
      "type": "constructor"
    },
    {
      "inputs": [],
      "name": "AccessControlBadConfirmation",
      "type": "error"
    },
    {
      "inputs": [
        {
          "internalType": "address",
          "name": "account",
          "type": "address"
        },
        {
          "internalType": "bytes32",
          "name": "neededRole",
          "type": "bytes32"
        }
      ],
      "name": "AccessControlUnauthorizedAccount",
      "type": "error"
    },
    {
      "inputs": [
        {
          "internalType": "address",
          "name": "target",
          "type": "address"
        }
      ],
      "name": "AddressEmptyCode",
      "type": "error"
    },
    {
      "inputs": [],
      "name": "AfterMaturity",
      "type": "error"
    },
    {
      "inputs": [],
      "name": "AfterRepurchaseWindow",
      "type": "error"
    },
    {
      "inputs": [],
      "name": "AlreadyTermContractPaired",
      "type": "error"
    },
    {
      "inputs": [],
      "name": "CallerNotBorrower",
      "type": "error"
    },
    {
      "inputs": [
        {
          "internalType": "address",
          "name": "implementation",
          "type": "address"
        }
      ],
      "name": "ERC1967InvalidImplementation",
      "type": "error"
    },
    {
      "inputs": [],
      "name": "ERC1967NonPayable",
      "type": "error"
    },
    {
      "inputs": [],
      "name": "EncumberedCollateralRemaining",
      "type": "error"
    },
    {
      "inputs": [],
      "name": "FailedCall",
      "type": "error"
    },
    {
      "inputs": [],
      "name": "InsufficientCollateral",
      "type": "error"
    },
    {
      "inputs": [],
      "name": "InsufficientTermRepoTokenBalance",
      "type": "error"
    },
    {
      "inputs": [],
      "name": "InsufficientgetBorrowerRepurchaseObligation",
      "type": "error"
    },
    {
      "inputs": [],
      "name": "InvalidInitialization",
      "type": "error"
    },
    {
      "inputs": [
        {
          "internalType": "string",
          "name": "message",
          "type": "string"
        }
      ],
      "name": "InvalidParameters",
      "type": "error"
    },
    {
      "inputs": [],
      "name": "LockedBalanceInsufficient",
      "type": "error"
    },
    {
      "inputs": [],
      "name": "NoMintOpenExposureAccess",
      "type": "error"
    },
    {
      "inputs": [],
      "name": "NotInitializing",
      "type": "error"
    },
    {
      "inputs": [],
      "name": "NotMaturedYet",
      "type": "error"
    },
    {
      "inputs": [],
      "name": "RedemptionPeriodNotOpen",
      "type": "error"
    },
    {
      "inputs": [],
      "name": "RepurchaseAmountTooHigh",
      "type": "error"
    },
    {
      "inputs": [],
      "name": "UUPSUnauthorizedCallContext",
      "type": "error"
    },
    {
      "inputs": [
        {
          "internalType": "bytes32",
          "name": "slot",
          "type": "bytes32"
        }
      ],
      "name": "UUPSUnsupportedProxiableUUID",
      "type": "error"
    },
    {
      "inputs": [],
      "name": "ZeroBorrowerRepurchaseObligation",
      "type": "error"
    },
    {
      "inputs": [],
      "name": "ZeroMaxRepurchase",
      "type": "error"
    },
    {
      "inputs": [],
      "name": "ZeroTermRepoTokenBalance",
      "type": "error"
    },
    {
      "anonymous": false,
      "inputs": [
        {
          "indexed": false,
          "internalType": "uint64",
          "name": "version",
          "type": "uint64"
        }
      ],
      "name": "Initialized",
      "type": "event"
    },
    {
      "anonymous": false,
      "inputs": [
        {
          "indexed": true,
          "internalType": "bytes32",
          "name": "role",
          "type": "bytes32"
        },
        {
          "indexed": true,
          "internalType": "bytes32",
          "name": "previousAdminRole",
          "type": "bytes32"
        },
        {
          "indexed": true,
          "internalType": "bytes32",
          "name": "newAdminRole",
          "type": "bytes32"
        }
      ],
      "name": "RoleAdminChanged",
      "type": "event"
    },
    {
      "anonymous": false,
      "inputs": [
        {
          "indexed": true,
          "internalType": "bytes32",
          "name": "role",
          "type": "bytes32"
        },
        {
          "indexed": true,
          "internalType": "address",
          "name": "account",
          "type": "address"
        },
        {
          "indexed": true,
          "internalType": "address",
          "name": "sender",
          "type": "address"
        }
      ],
      "name": "RoleGranted",
      "type": "event"
    },
    {
      "anonymous": false,
      "inputs": [
        {
          "indexed": true,
          "internalType": "bytes32",
          "name": "role",
          "type": "bytes32"
        },
        {
          "indexed": true,
          "internalType": "address",
          "name": "account",
          "type": "address"
        },
        {
          "indexed": true,
          "internalType": "address",
          "name": "sender",
          "type": "address"
        }
      ],
      "name": "RoleRevoked",
      "type": "event"
    },
    {
      "anonymous": false,
      "inputs": [
        {
          "indexed": true,
          "internalType": "address",
          "name": "implementation",
          "type": "address"
        }
      ],
      "name": "Upgraded",
      "type": "event"
    },
    {
      "inputs": [],
      "name": "AUCTIONEER",
      "outputs": [
        {
          "internalType": "bytes32",
          "name": "",
          "type": "bytes32"
        }
      ],
      "stateMutability": "view",
      "type": "function"
    },
    {
      "inputs": [],
      "name": "AUCTION_LOCKER",
      "outputs": [
        {
          "internalType": "bytes32",
          "name": "",
          "type": "bytes32"
        }
      ],
      "stateMutability": "view",
      "type": "function"
    },
    {
      "inputs": [],
      "name": "COLLATERAL_MANAGER",
      "outputs": [
        {
          "internalType": "bytes32",
          "name": "",
          "type": "bytes32"
        }
      ],
      "stateMutability": "view",
      "type": "function"
    },
    {
      "inputs": [],
      "name": "DEFAULT_ADMIN_ROLE",
      "outputs": [
        {
          "internalType": "bytes32",
          "name": "",
          "type": "bytes32"
        }
      ],
      "stateMutability": "view",
      "type": "function"
    },
    {
      "inputs": [],
      "name": "DEVOPS_ROLE",
      "outputs": [
        {
          "internalType": "bytes32",
          "name": "",
          "type": "bytes32"
        }
      ],
      "stateMutability": "view",
      "type": "function"
    },
    {
      "inputs": [],
      "name": "DIAMOND_ROLE",
      "outputs": [
        {
          "internalType": "bytes32",
          "name": "",
          "type": "bytes32"
        }
      ],
      "stateMutability": "view",
      "type": "function"
    },
    {
      "inputs": [],
      "name": "INITIALIZER_ROLE",
      "outputs": [
        {
          "internalType": "bytes32",
          "name": "",
          "type": "bytes32"
        }
      ],
      "stateMutability": "view",
      "type": "function"
    },
    {
      "inputs": [],
      "name": "ROLLOVER_MANAGER",
      "outputs": [
        {
          "internalType": "bytes32",
          "name": "",
          "type": "bytes32"
        }
      ],
      "stateMutability": "view",
      "type": "function"
    },
    {
      "inputs": [],
      "name": "ROLLOVER_TARGET_AUCTIONEER_ROLE",
      "outputs": [
        {
          "internalType": "bytes32",
          "name": "",
          "type": "bytes32"
        }
      ],
      "stateMutability": "view",
      "type": "function"
    },
    {
      "inputs": [],
      "name": "UPGRADE_INTERFACE_VERSION",
      "outputs": [
        {
          "internalType": "string",
          "name": "",
          "type": "string"
        }
      ],
      "stateMutability": "view",
      "type": "function"
    },
    {
      "inputs": [],
      "name": "YEAR_SECONDS",
      "outputs": [
        {
          "internalType": "uint256",
          "name": "",
          "type": "uint256"
        }
      ],
      "stateMutability": "view",
      "type": "function"
    },
    {
      "inputs": [
        {
          "internalType": "address",
          "name": "termAuction",
          "type": "address"
        }
      ],
      "name": "approveRolloverAuction",
      "outputs": [],
      "stateMutability": "nonpayable",
      "type": "function"
    },
    {
      "inputs": [
        {
          "internalType": "address",
          "name": "borrower",
          "type": "address"
        },
        {
          "internalType": "uint256",
          "name": "amountToBurn",
          "type": "uint256"
        }
      ],
      "name": "burnCollapseExposure",
      "outputs": [],
      "stateMutability": "nonpayable",
      "type": "function"
    },
    {
      "inputs": [
        {
          "internalType": "uint256",
          "name": "amountToBurn",
          "type": "uint256"
        }
      ],
      "name": "burnCollapseExposure",
      "outputs": [],
      "stateMutability": "nonpayable",
      "type": "function"
    },
    {
      "inputs": [
        {
          "internalType": "address",
          "name": "borrower",
          "type": "address"
        },
        {
          "internalType": "uint256",
          "name": "rolloverSettlementAmount",
          "type": "uint256"
        }
      ],
      "name": "closeExposureOnRolloverExisting",
      "outputs": [
        {
          "internalType": "uint256",
          "name": "",
          "type": "uint256"
        }
      ],
      "stateMutability": "nonpayable",
      "type": "function"
    },
    {
      "inputs": [],
      "name": "endOfRepurchaseWindow",
      "outputs": [
        {
          "internalType": "uint256",
          "name": "",
          "type": "uint256"
        }
      ],
      "stateMutability": "view",
      "type": "function"
    },
    {
      "inputs": [
        {
          "internalType": "address",
          "name": "bidder",
          "type": "address"
        },
        {
          "internalType": "uint256",
          "name": "purchasePrice",
          "type": "uint256"
        },
        {
          "internalType": "uint256",
          "name": "repurchasePrice",
          "type": "uint256"
        },
        {
          "internalType": "address[]",
          "name": "collateralTokens",
          "type": "address[]"
        },
        {
          "internalType": "uint256[]",
          "name": "collateralAmounts",
          "type": "uint256[]"
        },
        {
          "internalType": "uint256",
          "name": "dayCountFractionMantissa",
          "type": "uint256"
        }
      ],
      "name": "fulfillBid",
      "outputs": [],
      "stateMutability": "nonpayable",
      "type": "function"
    },
    {
      "inputs": [
        {
          "internalType": "address",
          "name": "offeror",
          "type": "address"
        },
        {
          "internalType": "uint256",
          "name": "purchasePrice",
          "type": "uint256"
        },
        {
          "internalType": "uint256",
          "name": "repurchasePrice",
          "type": "uint256"
        },
        {
          "internalType": "bytes32",
          "name": "offerId",
          "type": "bytes32"
        }
      ],
      "name": "fulfillOffer",
      "outputs": [],
      "stateMutability": "nonpayable",
      "type": "function"
    },
    {
      "inputs": [
        {
          "internalType": "address",
          "name": "borrower",
          "type": "address"
        }
      ],
      "name": "getBorrowerRepurchaseObligation",
      "outputs": [
        {
          "internalType": "uint256",
          "name": "",
          "type": "uint256"
        }
      ],
      "stateMutability": "view",
      "type": "function"
    },
    {
      "inputs": [
        {
          "internalType": "bytes32",
          "name": "role",
          "type": "bytes32"
        }
      ],
      "name": "getRoleAdmin",
      "outputs": [
        {
          "internalType": "bytes32",
          "name": "",
          "type": "bytes32"
        }
      ],
      "stateMutability": "view",
      "type": "function"
    },
    {
      "inputs": [
        {
          "internalType": "bytes32",
          "name": "role",
          "type": "bytes32"
        },
        {
          "internalType": "address",
          "name": "account",
          "type": "address"
        }
      ],
      "name": "grantRole",
      "outputs": [],
      "stateMutability": "nonpayable",
      "type": "function"
    },
    {
      "inputs": [
        {
          "internalType": "bytes32",
          "name": "role",
          "type": "bytes32"
        },
        {
          "internalType": "address",
          "name": "account",
          "type": "address"
        }
      ],
      "name": "hasRole",
      "outputs": [
        {
          "internalType": "bool",
          "name": "",
          "type": "bool"
        }
      ],
      "stateMutability": "view",
      "type": "function"
    },
    {
      "inputs": [
        {
          "internalType": "string",
          "name": "termRepoId_",
          "type": "string"
        },
        {
          "internalType": "uint256",
          "name": "maturityTimestamp_",
          "type": "uint256"
        },
        {
          "internalType": "uint256",
          "name": "repurchaseWindow_",
          "type": "uint256"
        },
        {
          "internalType": "uint256",
          "name": "redemptionBuffer_",
          "type": "uint256"
        },
        {
          "internalType": "uint256",
          "name": "servicingFee_",
          "type": "uint256"
        },
        {
          "internalType": "address",
          "name": "purchaseToken_",
          "type": "address"
        },
        {
          "internalType": "contract ITermController",
          "name": "termController_",
          "type": "address"
        },
        {
          "internalType": "contract ITermEventEmitter",
          "name": "emitter_",
          "type": "address"
        },
        {
          "internalType": "address",
          "name": "termInitializer_",
          "type": "address"
        }
      ],
      "name": "initialize",
      "outputs": [],
      "stateMutability": "nonpayable",
      "type": "function"
    },
    {
      "inputs": [],
      "name": "isTermRepoBalanced",
      "outputs": [
        {
          "internalType": "bool",
          "name": "",
          "type": "bool"
        }
      ],
      "stateMutability": "view",
      "type": "function"
    },
    {
      "inputs": [
        {
          "internalType": "address",
          "name": "borrower",
          "type": "address"
        },
        {
          "internalType": "address",
          "name": "liquidator",
          "type": "address"
        },
        {
          "internalType": "uint256",
          "name": "amountToCover",
          "type": "uint256"
        }
      ],
      "name": "liquidatorCoverExposure",
      "outputs": [],
      "stateMutability": "nonpayable",
      "type": "function"
    },
    {
      "inputs": [
        {
          "internalType": "address",
          "name": "borrower",
          "type": "address"
        },
        {
          "internalType": "address",
          "name": "liquidator",
          "type": "address"
        },
        {
          "internalType": "uint256",
          "name": "amountOfRepoToken",
          "type": "uint256"
        }
      ],
      "name": "liquidatorCoverExposureWithRepoToken",
      "outputs": [
        {
          "internalType": "uint256",
          "name": "",
          "type": "uint256"
        }
      ],
      "stateMutability": "nonpayable",
      "type": "function"
    },
    {
      "inputs": [
        {
          "internalType": "address",
          "name": "sender",
          "type": "address"
        },
        {
          "internalType": "address",
          "name": "offeror",
          "type": "address"
        },
        {
          "internalType": "uint256",
          "name": "amount",
          "type": "uint256"
        }
      ],
      "name": "lockOfferAmount",
      "outputs": [],
      "stateMutability": "nonpayable",
      "type": "function"
    },
    {
      "inputs": [],
      "name": "maturityTimestamp",
      "outputs": [
        {
          "internalType": "uint256",
          "name": "",
          "type": "uint256"
        }
      ],
      "stateMutability": "view",
      "type": "function"
    },
    {
      "inputs": [
        {
          "internalType": "uint256",
          "name": "amount",
          "type": "uint256"
        },
        {
          "internalType": "uint256[]",
          "name": "collateralAmounts",
          "type": "uint256[]"
        }
      ],
      "name": "mintOpenExposure",
      "outputs": [],
      "stateMutability": "nonpayable",
      "type": "function"
    },
    {
      "inputs": [
        {
          "internalType": "address",
          "name": "borrower",
          "type": "address"
        },
        {
          "internalType": "uint256",
          "name": "amount",
          "type": "uint256"
        },
        {
          "internalType": "uint256[]",
          "name": "collateralAmounts",
          "type": "uint256[]"
        }
      ],
      "name": "mintOpenExposure",
      "outputs": [],
      "stateMutability": "nonpayable",
      "type": "function"
    },
    {
      "inputs": [
        {
          "internalType": "address",
          "name": "borrower",
          "type": "address"
        },
        {
          "internalType": "address",
          "name": "lender",
          "type": "address"
        },
        {
          "internalType": "uint256",
          "name": "purchaseTokenAmount",
          "type": "uint256"
        },
        {
          "internalType": "uint256[]",
          "name": "collateralAmounts",
          "type": "uint256[]"
        },
        {
          "internalType": "uint256",
          "name": "offerRate",
          "type": "uint256"
        },
        {
          "internalType": "bool",
          "name": "isRoutedCollateral",
          "type": "bool"
        }
      ],
      "name": "mintOpenExposureFromIntent",
      "outputs": [
        {
          "internalType": "uint256",
          "name": "",
          "type": "uint256"
        }
      ],
      "stateMutability": "nonpayable",
      "type": "function"
    },
    {
      "inputs": [
        {
          "internalType": "address",
          "name": "borrower",
          "type": "address"
        },
        {
          "internalType": "uint256",
          "name": "purchasePrice",
          "type": "uint256"
        },
        {
          "internalType": "uint256",
          "name": "repurchasePrice",
          "type": "uint256"
        },
        {
          "internalType": "address",
          "name": "previousTermRepoLocker",
          "type": "address"
        },
        {
          "internalType": "uint256",
          "name": "dayCountFractionMantissa",
          "type": "uint256"
        }
      ],
      "name": "openExposureOnRolloverNew",
      "outputs": [
        {
          "internalType": "uint256",
          "name": "",
          "type": "uint256"
        }
      ],
      "stateMutability": "nonpayable",
      "type": "function"
    },
    {
      "inputs": [
        {
          "internalType": "address",
          "name": "termRepoLocker_",
          "type": "address"
        },
        {
          "internalType": "address",
          "name": "termRepoCollateralManager_",
          "type": "address"
        },
        {
          "internalType": "address",
          "name": "termRepoToken_",
          "type": "address"
        },
        {
          "internalType": "address",
          "name": "termDiamond_",
          "type": "address"
        },
        {
          "internalType": "address",
          "name": "termAuctionOfferLocker_",
          "type": "address"
        },
        {
          "internalType": "address",
          "name": "termAuction_",
          "type": "address"
        },
        {
          "internalType": "address",
          "name": "rolloverManager_",
          "type": "address"
        },
        {
          "internalType": "address",
          "name": "devopsMultisig_",
          "type": "address"
        },
        {
          "internalType": "address",
          "name": "deployerWallet_",
          "type": "address"
        },
        {
          "internalType": "string",
          "name": "version_",
          "type": "string"
        }
      ],
      "name": "pairTermContracts",
      "outputs": [],
      "stateMutability": "nonpayable",
      "type": "function"
    },
    {
      "inputs": [],
      "name": "proxiableUUID",
      "outputs": [
        {
          "internalType": "bytes32",
          "name": "",
          "type": "bytes32"
        }
      ],
      "stateMutability": "view",
      "type": "function"
    },
    {
      "inputs": [],
      "name": "purchaseToken",
      "outputs": [
        {
          "internalType": "address",
          "name": "",
          "type": "address"
        }
      ],
      "stateMutability": "view",
      "type": "function"
    },
    {
      "inputs": [
        {
          "internalType": "address",
          "name": "redeemer",
          "type": "address"
        },
        {
          "internalType": "uint256",
          "name": "amountToRedeem",
          "type": "uint256"
        }
      ],
      "name": "redeemTermRepoTokens",
      "outputs": [],
      "stateMutability": "nonpayable",
      "type": "function"
    },
    {
      "inputs": [],
      "name": "redemptionTimestamp",
      "outputs": [
        {
          "internalType": "uint256",
          "name": "",
          "type": "uint256"
        }
      ],
      "stateMutability": "view",
      "type": "function"
    },
    {
      "inputs": [
        {
          "internalType": "bytes32",
          "name": "role",
          "type": "bytes32"
        },
        {
          "internalType": "address",
          "name": "callerConfirmation",
          "type": "address"
        }
      ],
      "name": "renounceRole",
      "outputs": [],
      "stateMutability": "nonpayable",
      "type": "function"
    },
    {
      "inputs": [
        {
          "components": [
            {
              "internalType": "contract TermAuction",
              "name": "auction",
              "type": "address"
            },
            {
              "internalType": "contract ITermAuctionBidLocker",
              "name": "termAuctionBidLocker",
              "type": "address"
            },
            {
              "internalType": "contract ITermAuctionOfferLocker",
              "name": "termAuctionOfferLocker",
              "type": "address"
            }
          ],
          "internalType": "struct TermAuctionGroup",
          "name": "termAuctionGroup",
          "type": "tuple"
        }
      ],
      "name": "reopenToNewAuction",
      "outputs": [],
      "stateMutability": "nonpayable",
      "type": "function"
    },
    {
      "inputs": [
        {
          "internalType": "bytes32",
          "name": "role",
          "type": "bytes32"
        },
        {
          "internalType": "address",
          "name": "account",
          "type": "address"
        }
      ],
      "name": "revokeRole",
      "outputs": [],
      "stateMutability": "nonpayable",
      "type": "function"
    },
    {
      "inputs": [],
      "name": "servicingFee",
      "outputs": [
        {
          "internalType": "uint256",
          "name": "",
          "type": "uint256"
        }
      ],
      "stateMutability": "view",
      "type": "function"
    },
    {
      "inputs": [],
      "name": "shortfallHaircutMantissa",
      "outputs": [
        {
          "internalType": "uint256",
          "name": "",
          "type": "uint256"
        }
      ],
      "stateMutability": "view",
      "type": "function"
    },
    {
      "inputs": [
        {
          "internalType": "uint256",
          "name": "amount",
          "type": "uint256"
        }
      ],
      "name": "submitRepurchasePayment",
      "outputs": [],
      "stateMutability": "nonpayable",
      "type": "function"
    },
    {
      "inputs": [
        {
          "internalType": "address",
          "name": "borrower",
          "type": "address"
        },
        {
          "internalType": "uint256",
          "name": "amount",
          "type": "uint256"
        }
      ],
      "name": "submitRepurchasePayment",
      "outputs": [],
      "stateMutability": "nonpayable",
      "type": "function"
    },
    {
      "inputs": [
        {
          "internalType": "bytes4",
          "name": "interfaceId",
          "type": "bytes4"
        }
      ],
      "name": "supportsInterface",
      "outputs": [
        {
          "internalType": "bool",
          "name": "",
          "type": "bool"
        }
      ],
      "stateMutability": "view",
      "type": "function"
    },
    {
      "inputs": [],
      "name": "termController",
      "outputs": [
        {
          "internalType": "contract ITermController",
          "name": "",
          "type": "address"
        }
      ],
      "stateMutability": "view",
      "type": "function"
    },
    {
      "inputs": [],
      "name": "termRepoBalancedThreshold",
      "outputs": [
        {
          "internalType": "uint256",
          "name": "",
          "type": "uint256"
        }
      ],
      "stateMutability": "view",
      "type": "function"
    },
    {
      "inputs": [],
      "name": "termRepoCollateralManager",
      "outputs": [
        {
          "internalType": "contract ITermRepoCollateralManager",
          "name": "",
          "type": "address"
        }
      ],
      "stateMutability": "view",
      "type": "function"
    },
    {
      "inputs": [],
      "name": "termRepoId",
      "outputs": [
        {
          "internalType": "bytes32",
          "name": "",
          "type": "bytes32"
        }
      ],
      "stateMutability": "view",
      "type": "function"
    },
    {
      "inputs": [],
      "name": "termRepoLocker",
      "outputs": [
        {
          "internalType": "contract ITermRepoLocker",
          "name": "",
          "type": "address"
        }
      ],
      "stateMutability": "view",
      "type": "function"
    },
    {
      "inputs": [],
      "name": "termRepoRolloverManager",
      "outputs": [
        {
          "internalType": "contract ITermRepoRolloverManager",
          "name": "",
          "type": "address"
        }
      ],
      "stateMutability": "view",
      "type": "function"
    },
    {
      "inputs": [],
      "name": "termRepoToken",
      "outputs": [
        {
          "internalType": "contract ITermRepoToken",
          "name": "",
          "type": "address"
        }
      ],
      "stateMutability": "view",
      "type": "function"
    },
    {
      "inputs": [],
      "name": "totalOutstandingRepurchaseExposure",
      "outputs": [
        {
          "internalType": "uint256",
          "name": "",
          "type": "uint256"
        }
      ],
      "stateMutability": "view",
      "type": "function"
    },
    {
      "inputs": [],
      "name": "totalRepurchaseCollected",
      "outputs": [
        {
          "internalType": "uint256",
          "name": "",
          "type": "uint256"
        }
      ],
      "stateMutability": "view",
      "type": "function"
    },
    {
      "inputs": [
        {
          "internalType": "address",
          "name": "offeror",
          "type": "address"
        },
        {
          "internalType": "uint256",
          "name": "amount",
          "type": "uint256"
        }
      ],
      "name": "unlockOfferAmount",
      "outputs": [],
      "stateMutability": "nonpayable",
      "type": "function"
    },
    {
      "inputs": [
        {
          "internalType": "address",
          "name": "newImplementation",
          "type": "address"
        },
        {
          "internalType": "bytes",
          "name": "data",
          "type": "bytes"
        }
      ],
      "name": "upgradeToAndCall",
      "outputs": [],
      "stateMutability": "payable",
      "type": "function"
    },
    {
      "inputs": [],
      "name": "version",
      "outputs": [
        {
          "internalType": "string",
          "name": "",
          "type": "string"
        }
      ],
      "stateMutability": "view",
      "type": "function"
    }
  ],
  "bytecode": "0x60a08060405234620000d157306080527ff0c57e16840df040f15088dc2f81fe391c3923bec73e23a9662efc9c229c6a009081549060ff8260401c16620000c257506001600160401b036002600160401b0319828216016200007c575b6040516147d09081620000d782396080518181816119580152611a2d0152f35b6001600160401b031990911681179091556040519081527fc7f505b2f371ae2175ee4913f4499e1f2633a7b5936321eed1cdaeb6115181d290602090a13880806200005c565b63f92ee8a960e01b8152600490fd5b600080fdfe608080604052600436101561001357600080fd5b600090813560e01c90816301ffc9a714612a7d5750806302b65fb014612a5457806309aa80fc146129685780631320834f1461294a5780631b2354371461292c5780631b433b1114612692578063201a662514612669578063228d5cc61461264057806323e507f714612617578063248a9ca3146125dd57806325c3ed47146125b45780632762697d1461257b57806327df3d3e146125525780632f2ff15d1461250757806331bb625e1461244557806333d6723e1461236f5780633606358d14611f7257806336568abe14611f2a5780633718373f14611f0157806338771c3e14611ed35780633d0f31f714611eb55780633dcaa6c614611e975780633de81dc414611e6e5780634055008a14611dc457806340d3da8b14611da65780634576fdf114611d8857806347c9189814611caf5780634dabab1014611c8a5780634f1ef286146119b057806352d1902d1461194557806354fd4d50146119015780635879fae9146118e35780635c4b440e146118ba5780635ca84e6e14611891578063796a4455146118685780637e237e89146111b2578063811078001461118457806391d148541461112b5780639d5d21081461110d578063a217fddf146110f1578063a22be9ca14610df0578063a95c4d6214610dc7578063ad3cb1cc14610d85578063b330db2814610d66578063c002bbdd14610d15578063c023892614610cf7578063c99aa67814610a8e578063cc33cb4514610a65578063cc5b6e4a14610a48578063d4912c1014610746578063d547741f146106fb578063e6702b4e14610478578063e8caab091461037b578063ec9477e114610358578063fa19d0ed1461033a578063fd5d357a146102bf5763fe05281a1461029457600080fd5b346102bc57806003193601126102bc57602060405160008051602061467b8339815191528152f35b80fd5b50346102bc5760203660031901126102bc576102d9612ad2565b3360009081526000805160206145fb833981519152602052604090205460008051602061475b8339815191529060ff161561031c5750610318906134fb565b5080f35b6044906040519063e2517d3f60e01b82523360048301526024820152fd5b50346102bc57806003193601126102bc576020600654604051908152f35b50346102bc5761037861036a36612b41565b91610373612e92565b6142aa565b80f35b50346102bc578061038b36612b41565b9091610395612eca565b600c546009546001600160a01b03929183169190831690823b15610474576103d99287928387936040519687958694859363049f2a5160e21b855260048501612d75565b03925af1908115610469578591610450575b5050600f541690835491803b1561044c57610420938580946040519687958694859363bba53d0560e01b855260048501612d54565b03925af18015610441576104315750f35b61043a90612ba6565b6102bc5780f35b6040513d84823e3d90fd5b8480fd5b61045990612ba6565b6104645783386103eb565b505050fd5b6040513d87823e3d90fd5b8680fd5b50346102bc576101403660031901126102bc57610493612ad2565b61049b612ae8565b60443591906001600160a01b03831683036106f6576104b8612afe565b906084356001600160a01b03811690036106f6576104d4612b14565b60c4356001600160a01b03811690036106f65760e4356001600160a01b03811690036106f657610502612b2a565b92610124356001600160401b0381116106f257610523903690600401612c8c565b95909361052e612f3a565b60115460ff81166106e05760ff19166001176011556001600160a01b0386161561069c57600c80546001600160a01b03199081166001600160a01b0394851617909155600a80548216838516179055600b8054821660c4358516179055600d8054909116929098169190911790965586956105e1926105cf91906105bd906105b7608435613139565b506131c5565b506105c960e4356132d1565b50613369565b506105db60c4356133ef565b50613475565b5060018060a01b03600f541684549360018060a01b03600954169060035493600454966005549260065497863b15610698578a9889956040519b8c9a8b998a976302adb23360e31b8952600489015230602489015260448801526064870152608486015260a485015260c484015260018060a01b031660e4830152610120610104830152806101248301528061014493848401378181018301849052601f01601f191681010301925af18015610441576104315750f35b8a80fd5b60405162461bcd60e51b815260206004820152601c60248201527b16995c9bc81859191c995cdcc819195c1b1bde595c881dd85b1b195d60221b6044820152606490fd5b604051634ce377bb60e11b8152600490fd5b8780fd5b600080fd5b50346102bc5760403660031901126102bc5761031860043561071b612ae8565b9080845260008051602061471b8339815191526020526107416001604086200154612faa565b613c83565b50346102bc576101203660031901126102bc576001600160401b03600435818111610a4457610779903690600401612c8c565b9091602435604435610789612b14565b6001600160a01b0360c4358181169290839003610a405760e43593828516809503610a3c576107b6612b2a565b9560008051602061477b833981519152998a549960ff8b60401c1615998b1680159081610a34575b6001149081610a2a575b159081610a21575b50610a0f576001600160401b03198b166001178c558c9a8a6109f4575b506108166144c8565b61081e6144c8565b604051908160209c828e938484019687378201908382015203808352016108459082612c05565b5190208b558a6001558a600255806003556108608282612d47565b6004556064359161087091612d47565b9061087a91612d47565b600555608435600655169081156109b157600980546001600160a01b0319908116841790915560405163313ce56760e01b815290928790829060049082905afa80156109a657603f918a91610979575b5060021c1660028110600014610971575060ff60025b16604d811161095d579061091794939291600a0a60085581600e541617600e55600f541617600f5560ff196011541660115561324b565b50610920578280f35b815460ff60401b1916909155604051600181527fc7f505b2f371ae2175ee4913f4499e1f2633a7b5936321eed1cdaeb6115181d29190a138808280f35b634e487b7160e01b89526011600452602489fd5b60ff906108e0565b6109999150883d8a1161099f575b6109918183612c05565b810190612da4565b386108ca565b503d610987565b6040513d8b823e3d90fd5b60405162461bcd60e51b815260048101879052601b60248201527a2d32b9379030b2323932b9b990383ab931b430b9b2903a37b5b2b760291b6044820152606490fd5b6001600160481b0319166001600160401b01178c553861080d565b60405163f92ee8a960e01b8152600490fd5b905015386107f0565b303b1591506107e8565b8b91506107de565b8980fd5b8880fd5b8280fd5b50346102bc57806003193601126102bc5760209054604051908152f35b50346102bc57806003193601126102bc5760206040516000805160206146bb8339815191528152f35b50346102bc5760a03660031901126102bc57610aa8612ad2565b9060243590604435610ab8612afe565b92610ac1612f72565b600354421015610ce55760018060a01b039485811684526020956010875260408520610aee858254612d47565b9055610afc84600154612d47565b6001556004670de0b6b3a7640000610b3f85610b3a604051610b1d81612bcf565b60843581526006549060405191610b3383612bcf565b8252613981565b6144ae565b51049382600c54168984600e541660405194858092633800918160e21b82525afa928315610ca3578893610cae575b508360095416813b15610a405786610ba1928a928360405180968195829463109c8cf960e11b9b8c855260048501612d75565b03925af18015610ca35786918991610c8c575b5050610bbf91612cd4565b9682600c541690836009541692823b15610a405791899391898094610bf260405197889687958694855260048501612d75565b03925af18015610c8157908691610c6d575b5050600f541691845490833b15610c69579185809492610c3c89956040519889978896879563335ec7a360e21b875260048701612e52565b03925af1801561044157610c55575b5050604051908152f35b610c5f8291612ba6565b6102bc5780610c4b565b8580fd5b610c7690612ba6565b61044c578438610c04565b6040513d88823e3d90fd5b610c97919250612ba6565b61047457848738610bb4565b6040513d8a823e3d90fd5b9092508981813d8311610cde575b610cc68183612c05565b810103126106f257610cd790612e7e565b9138610b6e565b503d610cbc565b6040516304ff30ef60e21b8152600490fd5b50346102bc57806003193601126102bc576020600254604051908152f35b50346102bc5760603660031901126102bc57610d2f612ad2565b604435906001600160401b038211610a4457610d52610378923690600401612b76565b91610d5b612f02565b602435903390613608565b50346102bc57806003193601126102bc5760206040516301da9c008152f35b50346102bc57806003193601126102bc57610dc3604051610da581612bea565b60058152640352e302e360dc1b602082015260405191829182612c43565b0390f35b50346102bc57806003193601126102bc576009546040516001600160a01b039091168152602090f35b50346102bc576003199060c0368301126102bc57610e0c612ad2565b604435906001600160401b039060243590606435838111610c6957610e35903690600401612b76565b9360843590811161047457610e4e903690600401612b76565b949091610e59612f72565b600354421015610ce557600a546001600160a01b039390841691823b15610a3c576040519263578db95760e01b84526064840194808789169687600488015260606024880152526084850192908c5b8181106110cd575050508a9b84830301604485015288825260209860018060fb1b0381116110c9578b8a8682968196829560051b809285830137010301925af1908115610ca35788916110b5575b50526010845260408620610f0b868254612d47565b9055610f1985600154612d47565b600155670de0b6b3a7640000610f4e84610b3a604051610f3881612bcf565b60a43581526006549060405191610b3383612bcf565b51049381600c541660048284600e541660405192838092633800918160e21b82525afa9283156109a657899361107d575b5050826009541690803b15610a4057868991610fb4938360405180968195829463109c8cf960e11b9a8b855260048501612d75565b03925af1908115610ca3578891611069575b505081600c541690826009541691610fde8787612cd4565b90803b15610a3c57611003938a80946040519687958694859384528b60048501612d75565b03925af190811561105e57879161104a575b5050600f541690855493823b1561047457869461042086926040519889978896879563ff8b11c960e01b875260048701612e52565b61105390612ba6565b610c69578538611015565b6040513d89823e3d90fd5b61107290612ba6565b610474578638610fc6565b9080929350813d83116110ae575b6110958183612c05565b810103126106f2576110a690612e7e565b903880610f7f565b503d61108b565b6110be90612ba6565b610474578638610ef6565b8b80fd5b9091938435908982168092036106f657908152602090810194019190600101610ea8565b50346102bc57806003193601126102bc57602090604051908152f35b50346102bc57806003193601126102bc576020600154604051908152f35b50346102bc5760403660031901126102bc576040611147612ae8565b91600435815260008051602061471b833981519152602052209060018060a01b0316600052602052602060ff604060002054166040519015158152f35b50346102bc5760403660031901126102bc576103786111a1612ad2565b6111a9612f02565b602435906140e9565b50346102bc5760403660031901126102bc576111cc612ad2565b90602480359260055442111561185657600d546040516370a0823160e01b81526001600160a01b03838116600483018190529460209490939192909183169085818681855afa908115610ca3578891611829575b50156118175760405163391fa71560e11b8152908582600481845afa918215610ca35788926117e8575b506002918254906127108201908183116117d55711611482575050868561128f829a86600d541690604051948580948193637acdda2360e11b83528a60048401612cb9565b03925af1958615610ca357889661144f575b50508054878187116113895750506112ba858254612cd4565b905581600c541690826009541690823b156106f2576112f59288928388936040519687958694859363109c8cf960e11b855260048501612d75565b03925af1908115610c81578691611375575b5050600f54168454813b15610c69578560849281956040519788968795636a7a0bd160e11b8752600487015285015260448401528160648401525af1801561044157611361575b50505b61037861135c612fdd565b612cf7565b61136a90612ba6565b6102bc57803861134e565b61137e90612ba6565b61044c578438611307565b919095505581600c541690826009541690823b156106f2576113c79288928388936040519687958694859363109c8cf960e11b855260048501612d75565b03925af1908115610c8157869161143b575b5050600f54168454813b15610c69578560849281956040519788968795636a7a0bd160e11b8752600487015285015260448401528160648401525af1801561044157611427575b5050611351565b61143090612ba6565b6102bc578038611420565b61144490612ba6565b61044c5784386113d9565b819850809296503d831161147b575b6114688183612c05565b810103126106f6578695519338806112a1565b503d61145e565b919498909295965060048785600a54166040519283809263a11d52f560e01b82525afa9081156109a65789916117a0575b5061178e5787928791600754156116f6575b6114e8929350604051948580948193637acdda2360e11b83528b60048401612cb9565b03925af1948515610c815786956116c6575b50506007546040519061150c82612bcf565b8152611522670de0b6b3a76400009586926144ae565b5104918054868185111560001461160e575050611540838254612cd4565b905580600c54168160095416813b1561047457836115789288928360405180968195829463109c8cf960e11b84528c60048501612d75565b03925af18015610c81579086916115fa575b5050600f541684549260075485039485116115e757859650813b15610c69578580946115cc60405197889687958694636a7a0bd160e11b865260048601614286565b03925af180156104415761136157505061037861135c612fdd565b634e487b7160e01b865260116004528686fd5b61160390612ba6565b61044c57843861158a565b919093505580600c54168160095416813b1561047457836116499288928360405180968195829463109c8cf960e11b84528c60048501612d75565b03925af18015610c81579086916116b2575b5050600f541684549260075485039485116115e757859650813b15610c695785809461169d60405197889687958694636a7a0bd160e11b865260048601614286565b03925af1801561044157611427575050611351565b6116bb90612ba6565b61044c57843861165b565b9080929550813d83116116ef575b6116de8183612c05565b810103126106f657519238806114fa565b503d6116d4565b9150670de0b6b3a7640000918284029380850484148115171561177b5761172f906040519561172487612bcf565b865260015490612d47565b8381029381850414901517156117685761175c6114e8938a956040519161175583612bcf565b825261393a565b516007558392506114c5565b634e487b7160e01b855260116004528a85fd5b634e487b7160e01b865260116004528b86fd5b604051633eaef6d560e21b8152600490fd5b90508781813d83116117ce575b6117b78183612c05565b81010312610a40576117c890612d97565b386114b3565b503d6117ad565b634e487b7160e01b8b526011600452878bfd5b9091508581813d8311611810575b6118008183612c05565b810103126106f65751903861124a565b503d6117f6565b60405163644d752960e01b8152600490fd5b90508581813d831161184f575b6118408183612c05565b810103126106f6575138611220565b503d611836565b604051634724bbc760e11b8152600490fd5b50346102bc57806003193601126102bc5760206040516000805160206145db8339815191528152f35b50346102bc57806003193601126102bc57600d546040516001600160a01b039091168152602090f35b50346102bc57806003193601126102bc57600c546040516001600160a01b039091168152602090f35b50346102bc5760203660031901126102bc57610378600435336140e9565b50346102bc57806003193601126102bc57610dc360405161192181612bea565b600b81526a19195d995b1bdc1b595b9d60aa1b602082015260405191829182612c43565b50346102bc57806003193601126102bc577f00000000000000000000000000000000000000000000000000000000000000006001600160a01b0316300361199e57602060405160008051602061465b8339815191528152f35b60405163703e46dd60e11b8152600490fd5b5060403660031901126102bc576119c5612ad2565b9060249081356001600160401b038111611c865736602382011215611c865780600401356119f281612c28565b94611a006040519687612c05565b8186526020918287019336878383010111610c6957818692888693018737880101526001600160a01b03957f00000000000000000000000000000000000000000000000000000000000000008716308114908115611c6a575b5061199e576000805160206145bb8339815191528060005260008051602061471b8339815191528452604060002033600052845260ff6040600020541615611c4d575086600f541696873b15610c695785879860448293604051948593849263b3c2d50b60e01b84523060048501528916809d8401525af18015610c8157908691611c39575b50506040516352d1902d60e01b815283816004818a5afa869181611c0a575b50611b1b57604051634c9c8ce360e01b8152600481018890528890fd5b86908860008051602061465b83398151915291828103611bf55750843b15611bdf575080546001600160a01b031916821790556040518692917fbc7cd75a20ee27fd9adebab32041f755214dbc6bffa90cc0225b39da2e5c2d3b8480a2815115611bc157506103189482915190845af4903d15611bb8573d611b9c81612c28565b90611baa6040519283612c05565b81528581943d92013e6144f7565b606092506144f7565b94505050505034611bd0575080f35b63b398979f60e01b8152600490fd5b604051634c9c8ce360e01b815260048101849052fd5b60405190632a87526960e21b82526004820152fd5b9091508481813d8311611c32575b611c228183612c05565b8101031261047457519038611afe565b503d611c18565b611c4290612ba6565b61044c578438611adf565b866044916040519163e2517d3f60e01b8352336004840152820152fd5b90508760008051602061465b8339815191525416141538611a59565b5080fd5b50346102bc57806003193601126102bc576020611ca5612fdd565b6040519015158152f35b50346102bc5760803660031901126102bc5780611cca612ad2565b60443590611cd6612f72565b600d54604051638bef7f5b60e01b8152906001600160a01b039060209083908316818881611d088a8a60048401612cb9565b03925af1918215610469578592611d51575b50600f5416803b1561044c576104209385809460405196879586948593630ac59b7b60e11b85526024359060643560048701612e52565b945090506020843d602011611d80575b81611d6e60209383612c05565b810103126106f6578493519038611d1a565b3d9150611d61565b50346102bc57806003193601126102bc576020600854604051908152f35b50346102bc5760203660031901126102bc5761037860043533613d14565b50346102bc5760603660031901126102bc57611dde612f3a565b806001600160a01b03611df981611df3612e26565b16613139565b50611e0c81611e06612e3c565b166131c5565b5080600f54169082549080611e1f612e26565b1690611e29612e3c565b1692803b1561044c5784928360849260405196879586946314ce7cb160e11b86526004860152306024860152604485015260648401525af18015610441576104315750f35b50346102bc57806003193601126102bc57600a546040516001600160a01b039091168152602090f35b50346102bc57806003193601126102bc576020600754604051908152f35b50346102bc57806003193601126102bc576020600354604051908152f35b50346102bc5760403660031901126102bc57610378611ef0612ad2565b611ef8612f02565b60243590613d14565b50346102bc57806003193601126102bc5760206040516000805160206146fb8339815191528152f35b50346102bc5760403660031901126102bc57611f44612ae8565b336001600160a01b03821603611f605761031890600435613c83565b60405163334bd91960e11b8152600490fd5b50346102bc5760c03660031901126102bc57611f8c612ad2565b611f94612ae8565b60443591906064356001600160401b03811161044c57611fb8903690600401612b76565b9360a435151560a43503610c6957611fce612f02565b600354804211610ce557600a54604051630c87400960e11b815290602090829060049082906001600160a01b03165afa8015610ca35760ff918991612350575b501686036123325761202461204c914290612cd4565b6040519061203182612bcf565b81526040519061204082612bcf565b6301da9c00825261393a565b9061209b60405161205c81612bcf565b612083670de0b6b3a7640000948583526040519061207982612bcf565b6084358252613981565b908960405161209181612bcf565b5251905190612d47565b90604051916120a983612bcf565b82528281029080820484149015171561231e576004916120d791604051906120d082612bcf565b8152613981565b600d5460405163ef4474cd60e01b81529260209184919082906001600160a01b03165afa908115610ca35788916122e8575b61211b92506040519161175583612bcf565b51049360a435156122d8576121319133856139db565b83116122c65761216991602084869360018060a01b03600d54169085604051809881958294633c37699760e21b845260048401612cb9565b03925af192831561044157829361228f575b50600d546001600160a01b0316803b15610a445782809160246040518094819363b979dee360e01b83528a60048401525af190811561226c57839161227b575b50506001600160a01b031680825260106020526040822080546121df908590612d47565b90556121ed83600154612d47565b6001556121fb61135c612fdd565b60018060a01b03600f54168254813b15612277578360a4926040519687958694632101923f60e11b86526004860152602485015288604485015282606485015260848401525af1801561226c57612258575b602082604051908152f35b6122628391612ba6565b611c86578161224d565b6040513d85823e3d90fd5b8380fd5b61228490612ba6565b611c865781386121bb565b915091506020813d6020116122be575b816122ac60209383612c05565b810103126106f657839051913861217b565b3d915061229f565b604051633a23d82560e01b8152600490fd5b6122e39184806139db565b612131565b90506020823d602011612316575b8161230360209383612c05565b810103126106f65761211b915190612109565b3d91506122f6565b634e487b7160e01b88526011600452602488fd5b60405163dd23c3ad60e01b81528061234c60048201612dbd565b0390fd5b612369915060203d60201161099f576109918183612c05565b3861200e565b50346102bc5760403660031901126102bc576024356001600160401b038111611c86576123a0903690600401612b76565b600e5460405163056a8b5d60e21b815233600482015290602090829060249082906001600160a01b03165afa90811561243a578491612400575b50156123ee57610378916004353333613608565b604051631cbdffd960e11b8152600490fd5b90506020813d602011612432575b8161241b60209383612c05565b810103126122775761242c90612d97565b386123da565b3d915061240e565b6040513d86823e3d90fd5b50346102bc5760403660031901126102bc5780612460612ad2565b60243561246b612eca565b600c546009546001600160a01b0391908216908216803b15610c69578386916124ac938360405180968195829463109c8cf960e11b84528c60048501612d75565b03925af19081156104695785916124f3575b5050600f541690835491803b1561044c57610420938580946040519687958694859363069d498b60e51b855260048501612d54565b6124fc90612ba6565b6104645783386124be565b50346102bc5760403660031901126102bc57610318600435612527612ae8565b9080845260008051602061471b83398151915260205261254d6001604086200154612faa565b613593565b50346102bc57806003193601126102bc57602060405160008051602061461b8339815191528152f35b50346102bc5760203660031901126102bc576020906040906001600160a01b036125a3612ad2565b168152601083522054604051908152f35b50346102bc57806003193601126102bc57600e546040516001600160a01b039091168152602090f35b50346102bc5760203660031901126102bc5760016040602092600435815260008051602061471b8339815191528452200154604051908152f35b50346102bc57806003193601126102bc5760206040516000805160206146db8339815191528152f35b50346102bc57806003193601126102bc57600b546040516001600160a01b039091168152602090f35b50346102bc57806003193601126102bc5760206040516000805160206145bb8339815191528152f35b50346102bc5760403660031901126102bc576126ac612ad2565b906024359060008051602061467b8339815191529283825260209360008051602061471b833981519152855260408320338452855260ff6040842054161561031c5750600354421061291a57600454421015612908576001600160a01b03818116808452601080875260408520549193909186106128c157670de0b6b3a7640000955b848652828852604086208054808311156128365750505083855281875261275c6040862054600154612cd4565b6001558385528187526127756040862054600254612d47565b60025582600f5416855491858752838952604087205492823b156106f257916127b993918880946040519687958694859363380d921960e01b855260048501612d54565b03925af1801561046957908591612822575b5083905285528260408120555b6127e361135c612fdd565b600b541690813b15610a445782916024839260405194859384926364deb92b60e11b845260048401525af1801561044157610c55575050604051908152f35b61282b90612ba6565b6122775783386127cb565b829450916128449192612cd4565b905561285282600154612cd4565b60015561286182600254612d47565b60025582600f5416908554823b15610474579161289993918780946040519687958694859363380d921960e01b855260048501612d54565b03925af1801561243a576128ae575b506127d8565b6128ba90939193612ba6565b91386128a8565b670de0b6b3a76400008087029087820414871517156128f45784865282885260408620546128ee91612d27565b9561272f565b634e487b7160e01b86526011600452602486fd5b6040516366694fe960e11b8152600490fd5b60405163794150ab60e11b8152600490fd5b50346102bc57806003193601126102bc576020600554604051908152f35b50346102bc57806003193601126102bc576020600454604051908152f35b50346102bc5761297736612b41565b929091612982612e92565b60018060a01b039081600d5416936040518095637acdda2360e11b82528186816129b360209b8c9760048401612cb9565b03925af193841561226c578394612a25575b5016908181526010845260408120548311612a1357604091815260108452206129ef828254612cd4565b90556129fd81600154612cd4565b600155612a0b61135c612fdd565b604051908152f35b6040516305e5c1fd60e51b8152600490fd5b9093508481813d8311612a4d575b612a3d8183612c05565b81010312610a44575192386129c5565b503d612a33565b50346102bc57806003193601126102bc57602060405160008051602061475b8339815191528152f35b905034611c86576020366003190112611c865760043563ffffffff60e01b8116809103610a445760209250637965db0b60e01b8114908115612ac1575b5015158152f35b6301ffc9a760e01b14905038612aba565b600435906001600160a01b03821682036106f657565b602435906001600160a01b03821682036106f657565b606435906001600160a01b03821682036106f657565b60a435906001600160a01b03821682036106f657565b61010435906001600160a01b03821682036106f657565b60609060031901126106f6576001600160a01b039060043582811681036106f6579160243590811681036106f6579060443590565b9181601f840112156106f6578235916001600160401b0383116106f6576020808501948460051b0101116106f657565b6001600160401b038111612bb957604052565b634e487b7160e01b600052604160045260246000fd5b602081019081106001600160401b03821117612bb957604052565b604081019081106001600160401b03821117612bb957604052565b601f909101601f19168101906001600160401b03821190821017612bb957604052565b6001600160401b038111612bb957601f01601f191660200190565b6020808252825181830181905290939260005b828110612c7857505060409293506000838284010152601f8019910116010190565b818101860151848201604001528501612c56565b9181601f840112156106f6578235916001600160401b0383116106f657602083818601950101116106f657565b6001600160a01b039091168152602081019190915260400190565b91908203918211612ce157565b634e487b7160e01b600052601160045260246000fd5b15612cfe57565b634e487b7160e01b600052600160045260246000fd5b81810292918115918404141715612ce157565b8115612d31570490565b634e487b7160e01b600052601260045260246000fd5b91908201809211612ce157565b9081526001600160a01b039091166020820152604081019190915260600190565b6001600160a01b03918216815291166020820152604081019190915260600190565b519081151582036106f657565b908160209103126106f6575160ff811681036106f65790565b60a09060208152604260208201527f436f6c6c61746572616c20416d6f756e7473206172726179206e6f742073616d60408201527f65206c656e67746820617320636f6c6c61746572616c20746f6b656e73206c696060820152611cdd60f21b60808201520190565b6044356001600160a01b03811681036106f65790565b6004356001600160a01b03811681036106f65790565b9192608093969594919660a0840197845260018060a01b03166020840152604083015260608201520152565b51906001600160a01b03821682036106f657565b33600090815260008051602061457b83398151915260205260409020546000805160206145db8339815191529060ff161561031c5750565b33600090815260008051602061469b83398151915260205260409020546000805160206146fb8339815191529060ff161561031c5750565b33600090815260008051602061473b83398151915260205260409020546000805160206146bb8339815191529060ff161561031c5750565b33600090815260008051602061463b833981519152602052604090205460008051602061461b8339815191529060ff161561031c5750565b33600090815260008051602061459b83398151915260205260409020546000805160206146db8339815191529060ff161561031c5750565b8060005260008051602061471b83398151915260205260406000203360005260205260ff604060002054161561031c5750565b6007548061308d57506004612ff760015460025490612d47565b600d5460405163391fa71560e11b81529260209184919082906001600160a01b03165afa9182156130815760009261304d575b50818110613044579061303c91612cd4565b600854101590565b61303c91612cd4565b90916020823d602011613079575b8161306860209383612c05565b810103126102bc575051903861302a565b3d915061305b565b6040513d6000823e3d90fd5b6040519061309a82612bcf565b8152600d5460405163391fa71560e11b815290602090829060049082906001600160a01b03165afa908115613081576000916130ff575b506130e590670de0b6b3a7640000926144ae565b510460025481811015600014613044579061303c91612cd4565b90506020813d602011613131575b8161311a60209383612c05565b810103126106f65751670de0b6b3a76400006130d1565b3d915061310d565b6001600160a01b0316600081815260008051602061469b83398151915260205260408120549091906000805160206146fb8339815191529060008051602061471b8339815191529060ff166131bf578184526020526040832082845260205260408320600160ff1982541617905560008051602061455b833981519152339380a4600190565b50505090565b6001600160a01b0316600081815260008051602061459b83398151915260205260408120549091906000805160206146db8339815191529060008051602061471b8339815191529060ff166131bf578184526020526040832082845260205260408320600160ff1982541617905560008051602061455b833981519152339380a4600190565b6001600160a01b0316600081815260008051602061463b833981519152602052604081205490919060008051602061461b8339815191529060008051602061471b8339815191529060ff166131bf578184526020526040832082845260205260408320600160ff1982541617905560008051602061455b833981519152339380a4600190565b6001600160a01b031660008181527f0cfb002fcf8644f87ebf6cf6e31899c8d8e9f7c329b465b6e36989a958507e8b60205260408120549091906000805160206145bb8339815191529060008051602061471b8339815191529060ff166131bf578184526020526040832082845260205260408320600160ff1982541617905560008051602061455b833981519152339380a4600190565b6001600160a01b0316600081815260008051602061457b83398151915260205260408120549091906000805160206145db8339815191529060008051602061471b8339815191529060ff166131bf578184526020526040832082845260205260408320600160ff1982541617905560008051602061455b833981519152339380a4600190565b6001600160a01b031660008181526000805160206145fb833981519152602052604081205490919060008051602061475b8339815191529060008051602061471b8339815191529060ff166131bf578184526020526040832082845260205260408320600160ff1982541617905560008051602061455b833981519152339380a4600190565b6001600160a01b0316600081815260008051602061473b83398151915260205260408120549091906000805160206146bb8339815191529060008051602061471b8339815191529060ff166131bf578184526020526040832082845260205260408320600160ff1982541617905560008051602061455b833981519152339380a4600190565b6001600160a01b031660008181527fe0fa667d5da66691d383b7f9adac3d76155de839dedfa082769d2d0b3e806212602052604081205490919060008051602061467b8339815191529060008051602061471b8339815191529060ff166131bf578184526020526040832082845260205260408320600160ff1982541617905560008051602061455b833981519152339380a4600190565b9060009180835260008051602061471b83398151915280602052604084209260018060a01b03169283855260205260ff604085205416156000146131bf578184526020526040832082845260205260408320600160ff1982541617905560008051602061455b833981519152339380a4600190565b90929192600354946000954211610ce557600a5460408051630c87400960e11b815290956020946001600160a01b039460049490939087908290879082908a165afa908115613852579060ff918c9161391d575b5016830361390557906136709291876139db565b86116138f757670de0b6b3a76400006136be87610b3a6136af61369542600554612cd4565b8a51906136a182612bcf565b81528a519061204082612bcf565b6006548a51906120d082612bcf565b510491816136cc8489612cd4565b9782600d5416908684600e54168a5194858092633800918160e21b82525afa928315613852578b936138c0575b50868b8a51938480928161371b8c633c37699760e21b9a8b84528d8401612cb9565b03925af1918215613852578a8c8992819561388b575b5061374f9587600d5416918d518098819582948352338d8401612cb9565b03925af1928315613852578b9361385c575b5083600d541690813b156110c9578b91602483928c51948593849263b979dee360e01b84528b8401525af1801561385257613838575b506010916137a491612d47565b948287168a52528588206137b9858254612d47565b90556137c784600154612d47565b6001556137d561135c612fdd565b600f541692875492843b15610a40579161380a899695949392879389519a8b9889978896632101923f60e11b88528701612e52565b03925af190811561382f575061381e575050565b6138288291612ba6565b6102bc5750565b513d84823e3d90fd5b916137a4919a613849601094612ba6565b9a915091613797565b89513d8d823e3d90fd5b9092508681813d8311613884575b6138748183612c05565b8101031261069857519138613761565b503d61386a565b939450505081813d83116138b9575b6138a48183612c05565b81010312610698575190868a8c61374f613731565b503d61389a565b9092508681813d83116138f0575b6138d88183612c05565b81010312610698576138e990612e7e565b91386136f9565b503d6138ce565b8451633a23d82560e01b8152fd5b875163dd23c3ad60e01b81528061234c818701612dbd565b6139349150883d8a1161099f576109918183612c05565b3861365c565b600060405161394881612bcf565b5251670de0b6b3a764000090818102918183041490151715612ce15761396f915190612d27565b6040519061397c82612bcf565b815290565b670de0b6b3a7640000916139a791600060405161399d81612bcf565b5251905190612d14565b046040519061397c82612bcf565b91908110156139c55760051b0190565b634e487b7160e01b600052603260045260246000fd5b909193926000946000935b8285106139f4575050505050565b909192939560018060a01b03600a541660405163172c48c760e01b8152886004820152602081602481855afa90811561308157600091613c49575b50613a3b8987876139b5565b35823b156106f657604051637e79f4f160e01b81526001600160a01b03808a166004830152868116602483015290921660448301526064820152906000908290608490829084905af1801561308157613c3a575b50600a5460405163172c48c760e01b8152600481018990526001600160a01b0390911690602081602481855afa90811561308157600091613bf8575b50602090613afc92613ade8b89896139b5565b359160405180958194829363067af01d60e41b845260048401612cb9565b03915afa801561308157600090613bb7575b600d5460405163ef4474cd60e01b81529250602090839060049082906001600160a01b03165afa91821561308157600092613b79575b5091670de0b6b3a7640000613b66613b6e936001956040519161175583612bcf565b510490612d47565b9601939291906139e6565b9150916020823d602011613baf575b81613b9560209383612c05565b810103126106f65790519091670de0b6b3a7640000613b44565b3d9150613b88565b506020813d602011613bf0575b81613bd160209383612c05565b810103126106f657604051600491613be882612bcf565b518152613b0e565b3d9150613bc4565b90506020813d602011613c32575b81613c1360209383612c05565b810103126106f657613afc91613c2a602092612e7e565b915091613acb565b3d9150613c06565b613c4390612ba6565b38613a8f565b90506020813d602011613c7b575b81613c6460209383612c05565b810103126106f657613c7590612e7e565b38613a2f565b3d9150613c57565b9060009180835260008051602061471b83398151915280602052604084209260018060a01b03169283855260205260ff6040852054166000146131bf57818452602052604083208284526020526040832060ff1981541690557ff6391f5c32d9c69d2a47ea670b442974b53935d1edc7fd64eb21e047a839171b339380a4600190565b604d8111612ce157600a0a90565b9190916004928354916000924210156140d8578460018060a01b038083168086526020906010825260409586882054156140c85782846009541688519b8c809263313ce56760e01b82525afa998a156140be57889a61409f575b50613d7886614378565b998a1561408f5760ff166012039960128b1161407c5785613da1613d9b8d613d06565b83612d14565b895190613dad82612bcf565b81528587600d54168b519384809263ef4474cd60e01b82525afa918215614072578b92614041575b509b613df7613df0613dfd938d9e9f8d519161175583612bcf565b5191613d06565b90612d27565b80831015613edf575050613e2d839185600d54169089519a8b80948193637acdda2360e11b83528c8c8401612cb9565b03925af1968715613ed5578897613ea3575b5090601091885252838620613e55868254612cd4565b9055613e6385600154612cd4565b600155613e7161135c612fdd565b600f541690855490823b156104745790868094939261380a875198899687958694630190d5cf60e01b86528501612d54565b918091975082813d8311613ece575b613ebc8183612c05565b810103126106f6579051956010613e3f565b503d613eb2565b86513d8a823e3d90fd5b91509293949750613ef583600197939754612cd4565b60015585895260108452868920613f0d848254612cd4565b905584600d5416803b15610a3c57613f3e918a9184838c8c5196879586948593632770a7eb60e21b85528401612cb9565b03925af1801561403757614024575b50613f5961135c612fdd565b83600f54168854813b15610a3c5790899291838a613f8a8b5197889687958694630190d5cf60e01b86528501612d54565b03925af1801561401a57908791614006575b50908360109252528285205415613fb5575b5050505050565b600a541692833b1561044c57906024859283855196879485936312a9006960e01b85528401525af190811561382f5750613ff2575b808080613fae565b613ffc8291612ba6565b6102bc5780613fea565b61400f90612ba6565b610c69578538613f9c565b85513d89823e3d90fd5b61403090989198612ba6565b9638613f4d565b87513d8b823e3d90fd5b9091508581813d831161406b575b6140598183612c05565b81010312610698575190613df7613dd5565b503d61404f565b8a513d8d823e3d90fd5b634e487b7160e01b895260118652602489fd5b87516346696d1960e11b81528690fd5b6140b7919a50833d851161099f576109918183612c05565b9838613d6e565b87513d8a823e3d90fd5b865163baca79c960e01b81528590fd5b6040516366694fe960e11b81528590fd5b906000918115614252576004908154421015614242576001600160a01b0381811680865260106020526040808720549094929190156142325760001986146141e25761413484614378565b86116141d2576141458633866142aa565b8087526010602052848720541561418a575b50600f541690855490823b156104745790868094939261380a875198899687958694632df248c560e11b86528501612d54565b81600a541690813b156106f257879160248392885194859384926312a9006960e01b8452898401525af1801561401a5715614157576141cb90969196612ba6565b9438614157565b84516305e5c1fd60e51b81528390fd5b845163dd23c3ad60e01b81526020818501526024808201527f7265707572636861736520616d6f756e742063616e6e6f742062652075696e74604482015263040dac2f60e31b6064820152608490fd5b845163baca79c960e01b81528390fd5b506040516366694fe960e11b8152fd5b60405163dd23c3ad60e01b815260206004820152600b60248201526a1e995c9bc8185b5bdd5b9d60aa1b6044820152606490fd5b909493926060926080830196835260018060a01b0316602083015260408201520152565b6001600160a01b0390811660008181526010602052604081205490949391908411612a135784526010602052604084206142e5848254612cd4565b90556142f383600154612cd4565b60015561430283600254612d47565b60025581600c5416916009541690823b1561044c57918493918461433e96946040519788958694859363049f2a5160e21b855260048501612d75565b03925af190811561436c575061435d575b5061435b61135c612fdd565b565b61436690612ba6565b3861434f565b604051903d90823e3d90fd5b60009060018060a01b0380600b541692608060409360248551809581936334e6c77160e01b835216978860048301525afa9182156144a257819261440f575b50506020810151908115908115614401575b50156143fb57506000915b600052601060205260002054908082106143f4576143f191612cd4565b90565b5050600090565b916143d4565b6060915001511515386143c9565b9091506080813d60801161449a575b8161442b60809383612c05565b81010312611c865782519160808301906001600160401b03821184831017614486575061447a91606091855261446081612e7e565b845260208101516020850152848101518585015201612d97565b606082015238806143b7565b634e487b7160e01b81526041600452602490fd5b3d915061441e565b508251903d90823e3d90fd5b9061396f9160006040516144c181612bcf565b5251612d14565b60ff60008051602061477b8339815191525460401c16156144e557565b604051631afcd79f60e31b8152600490fd5b9061451e575080511561450c57805190602001fd5b60405163d6bda27560e01b8152600490fd5b81511580614551575b61452f575090565b604051639996b31560e01b81526001600160a01b039091166004820152602490fd5b50803b1561452756fe2f8788117e7eff1d82e926ec794901d17c78024a50270940304540a733656f0d5916e83be0b08eb94c22fafcbdcc8b65853bb5980337f0cb6b02ef0337d79d0b1ee4daa69416528fc5e0ebd2dd59c552d64fe042e5e30bdb403814fc39cf744e793a6c9b7e0a9549c74edc2f9ae0dc50903dfaa9a56fb0116b27a8c71de3e2c6413cc8bb35fe129dacd3dfaae80d6d4c5d313f64cee9dd6712e7ca52e38573a9d7a4b94e3999c665472d525c803b137e79362305144db4ed5b3b50836858e97a30d41a597cac127d8249d31298b50e481ee82c3f4a49ff93c76a22735aa9f3ad44fa5399874b75da801cb431822b6afcadb876f84eb39d7f05bf697e94b4484e360894a13ba1a3210667c828492db98dca3e2076cc3735a920a3ca505d382bbcf4b6b486426e3c004413defb7013cd482f29189a98e074f1c202b2ac26536bb28ba309f7c97dad724319b8727ac7a1b9dff7d9f9f8b4ce23cf917c51e66066cbc36a8568220526774f62a808c5b8dd8b7191b32206f87b2bfd114958435899631d693f62a755e2b3c6494da41af454605b9006057cb3c79b6adda1378f2a50a76e14a979b95b01beecd617807f3738f4e067938da99755b16afdcf7148d313b702dd7bc7dec4dceedda775e58dd541e08a116c6c53815c0bd028192f7b62680071dad3b8d800ed6b81a4c9f84973579b8b42e673b9a0771be09894ef8040dd786e3cc031d23d7153f72e87cbfd113a0351c60d8ce52b8a31c944d543a384b7c9f0c57e16840df040f15088dc2f81fe391c3923bec73e23a9662efc9c229c6a00a264697066735822122096a7bc1f3f83ffa8030d77bf0ed663c71528b4f6b359f1a4eca83dc9411691dd64736f6c63430008160033",
  "linkReferences": {},
  "deployedLinkReferences": {}
}