{
  "_format": "hh-sol-artifact-1",
  "contractName": "TermAuctionBidLocker",
  "sourceName": "contracts/TermAuctionBidLocker.sol",
  "abi": [
    {
      "inputs": [],
      "stateMutability": "nonpayable",
      "type": "constructor"
    },
    {
      "inputs": [],
      "name": "AlreadyTermContractPaired",
      "type": "error"
    },
    {
      "inputs": [],
      "name": "AuctionNotClosed",
      "type": "error"
    },
    {
      "inputs": [],
      "name": "AuctionNotOpen",
      "type": "error"
    },
    {
      "inputs": [],
      "name": "AuctionNotRevealing",
      "type": "error"
    },
    {
      "inputs": [
        {
          "internalType": "uint256",
          "name": "reveal",
          "type": "uint256"
        },
        {
          "internalType": "uint256",
          "name": "end",
          "type": "uint256"
        }
      ],
      "name": "AuctionRevealsAfterEnd",
      "type": "error"
    },
    {
      "inputs": [
        {
          "internalType": "uint256",
          "name": "start",
          "type": "uint256"
        },
        {
          "internalType": "uint256",
          "name": "reveal",
          "type": "uint256"
        }
      ],
      "name": "AuctionStartsAfterReveal",
      "type": "error"
    },
    {
      "inputs": [],
      "name": "BidAlreadyRevealed",
      "type": "error"
    },
    {
      "inputs": [
        {
          "internalType": "uint256",
          "name": "amount",
          "type": "uint256"
        }
      ],
      "name": "BidAmountTooLow",
      "type": "error"
    },
    {
      "inputs": [
        {
          "internalType": "uint256",
          "name": "bidCount",
          "type": "uint256"
        }
      ],
      "name": "BidCountIncorrect",
      "type": "error"
    },
    {
      "inputs": [],
      "name": "BidNotOwned",
      "type": "error"
    },
    {
      "inputs": [
        {
          "internalType": "bytes32",
          "name": "bidId",
          "type": "bytes32"
        }
      ],
      "name": "BidNotRevealed",
      "type": "error"
    },
    {
      "inputs": [
        {
          "internalType": "bytes32",
          "name": "id",
          "type": "bytes32"
        }
      ],
      "name": "BidPriceModified",
      "type": "error"
    },
    {
      "inputs": [
        {
          "internalType": "bytes32",
          "name": "bidId",
          "type": "bytes32"
        }
      ],
      "name": "BidRevealed",
      "type": "error"
    },
    {
      "inputs": [],
      "name": "CollateralAmountTooLow",
      "type": "error"
    },
    {
      "inputs": [
        {
          "internalType": "address",
          "name": "token",
          "type": "address"
        }
      ],
      "name": "CollateralTokenNotApproved",
      "type": "error"
    },
    {
      "inputs": [
        {
          "internalType": "bytes32",
          "name": "bidId",
          "type": "bytes32"
        }
      ],
      "name": "GeneratingExistingBid",
      "type": "error"
    },
    {
      "inputs": [],
      "name": "InvalidPurchaseToken",
      "type": "error"
    },
    {
      "inputs": [],
      "name": "InvalidSelfReferral",
      "type": "error"
    },
    {
      "inputs": [],
      "name": "InvalidTermRepoServicer",
      "type": "error"
    },
    {
      "inputs": [],
      "name": "LockingPaused",
      "type": "error"
    },
    {
      "inputs": [],
      "name": "MaxBidCountReached",
      "type": "error"
    },
    {
      "inputs": [],
      "name": "NoCollateralToUnlock",
      "type": "error"
    },
    {
      "inputs": [
        {
          "internalType": "bytes32",
          "name": "bidId",
          "type": "bytes32"
        }
      ],
      "name": "NonExistentBid",
      "type": "error"
    },
    {
      "inputs": [
        {
          "internalType": "bytes32",
          "name": "bidId",
          "type": "bytes32"
        }
      ],
      "name": "NonExpiredRolloverBid",
      "type": "error"
    },
    {
      "inputs": [
        {
          "internalType": "bytes32",
          "name": "id",
          "type": "bytes32"
        }
      ],
      "name": "NonRolloverBid",
      "type": "error"
    },
    {
      "inputs": [
        {
          "internalType": "address",
          "name": "token",
          "type": "address"
        }
      ],
      "name": "PurchaseTokenNotApproved",
      "type": "error"
    },
    {
      "inputs": [],
      "name": "RevealedBidsNotSorted",
      "type": "error"
    },
    {
      "inputs": [],
      "name": "RolloverBid",
      "type": "error"
    },
    {
      "inputs": [
        {
          "internalType": "bytes32",
          "name": "bidId",
          "type": "bytes32"
        }
      ],
      "name": "RolloverBidExpired",
      "type": "error"
    },
    {
      "inputs": [],
      "name": "RolloverBidInShortfall",
      "type": "error"
    },
    {
      "inputs": [
        {
          "internalType": "bytes32",
          "name": "id",
          "type": "bytes32"
        },
        {
          "internalType": "uint256",
          "name": "maxPrice",
          "type": "uint256"
        }
      ],
      "name": "TenderPriceTooHigh",
      "type": "error"
    },
    {
      "inputs": [],
      "name": "UnlockingPaused",
      "type": "error"
    },
    {
      "anonymous": false,
      "inputs": [
        {
          "indexed": false,
          "internalType": "address",
          "name": "previousAdmin",
          "type": "address"
        },
        {
          "indexed": false,
          "internalType": "address",
          "name": "newAdmin",
          "type": "address"
        }
      ],
      "name": "AdminChanged",
      "type": "event"
    },
    {
      "anonymous": false,
      "inputs": [
        {
          "indexed": true,
          "internalType": "address",
          "name": "beacon",
          "type": "address"
        }
      ],
      "name": "BeaconUpgraded",
      "type": "event"
    },
    {
      "anonymous": false,
      "inputs": [
        {
          "indexed": false,
          "internalType": "uint8",
          "name": "version",
          "type": "uint8"
        }
      ],
      "name": "Initialized",
      "type": "event"
    },
    {
      "anonymous": false,
      "inputs": [
        {
          "indexed": true,
          "internalType": "bytes32",
          "name": "role",
          "type": "bytes32"
        },
        {
          "indexed": true,
          "internalType": "bytes32",
          "name": "previousAdminRole",
          "type": "bytes32"
        },
        {
          "indexed": true,
          "internalType": "bytes32",
          "name": "newAdminRole",
          "type": "bytes32"
        }
      ],
      "name": "RoleAdminChanged",
      "type": "event"
    },
    {
      "anonymous": false,
      "inputs": [
        {
          "indexed": true,
          "internalType": "bytes32",
          "name": "role",
          "type": "bytes32"
        },
        {
          "indexed": true,
          "internalType": "address",
          "name": "account",
          "type": "address"
        },
        {
          "indexed": true,
          "internalType": "address",
          "name": "sender",
          "type": "address"
        }
      ],
      "name": "RoleGranted",
      "type": "event"
    },
    {
      "anonymous": false,
      "inputs": [
        {
          "indexed": true,
          "internalType": "bytes32",
          "name": "role",
          "type": "bytes32"
        },
        {
          "indexed": true,
          "internalType": "address",
          "name": "account",
          "type": "address"
        },
        {
          "indexed": true,
          "internalType": "address",
          "name": "sender",
          "type": "address"
        }
      ],
      "name": "RoleRevoked",
      "type": "event"
    },
    {
      "anonymous": false,
      "inputs": [
        {
          "indexed": true,
          "internalType": "address",
          "name": "implementation",
          "type": "address"
        }
      ],
      "name": "Upgraded",
      "type": "event"
    },
    {
      "inputs": [],
      "name": "ADMIN_ROLE",
      "outputs": [
        {
          "internalType": "bytes32",
          "name": "",
          "type": "bytes32"
        }
      ],
      "stateMutability": "view",
      "type": "function"
    },
    {
      "inputs": [],
      "name": "AUCTIONEER_ROLE",
      "outputs": [
        {
          "internalType": "bytes32",
          "name": "",
          "type": "bytes32"
        }
      ],
      "stateMutability": "view",
      "type": "function"
    },
    {
      "inputs": [],
      "name": "DEFAULT_ADMIN_ROLE",
      "outputs": [
        {
          "internalType": "bytes32",
          "name": "",
          "type": "bytes32"
        }
      ],
      "stateMutability": "view",
      "type": "function"
    },
    {
      "inputs": [],
      "name": "DEVOPS_ROLE",
      "outputs": [
        {
          "internalType": "bytes32",
          "name": "",
          "type": "bytes32"
        }
      ],
      "stateMutability": "view",
      "type": "function"
    },
    {
      "inputs": [],
      "name": "INITIALIZER_ROLE",
      "outputs": [
        {
          "internalType": "bytes32",
          "name": "",
          "type": "bytes32"
        }
      ],
      "stateMutability": "view",
      "type": "function"
    },
    {
      "inputs": [],
      "name": "MAX_BID_COUNT",
      "outputs": [
        {
          "internalType": "uint256",
          "name": "",
          "type": "uint256"
        }
      ],
      "stateMutability": "view",
      "type": "function"
    },
    {
      "inputs": [],
      "name": "MAX_BID_PRICE",
      "outputs": [
        {
          "internalType": "uint256",
          "name": "",
          "type": "uint256"
        }
      ],
      "stateMutability": "view",
      "type": "function"
    },
    {
      "inputs": [],
      "name": "ROLLOVER_MANAGER",
      "outputs": [
        {
          "internalType": "bytes32",
          "name": "",
          "type": "bytes32"
        }
      ],
      "stateMutability": "view",
      "type": "function"
    },
    {
      "inputs": [],
      "name": "THREESIXTY_DAYCOUNT_SECONDS",
      "outputs": [
        {
          "internalType": "uint256",
          "name": "",
          "type": "uint256"
        }
      ],
      "stateMutability": "view",
      "type": "function"
    },
    {
      "inputs": [],
      "name": "auctionEndTime",
      "outputs": [
        {
          "internalType": "uint256",
          "name": "",
          "type": "uint256"
        }
      ],
      "stateMutability": "view",
      "type": "function"
    },
    {
      "inputs": [],
      "name": "auctionStartTime",
      "outputs": [
        {
          "internalType": "uint256",
          "name": "",
          "type": "uint256"
        }
      ],
      "stateMutability": "view",
      "type": "function"
    },
    {
      "inputs": [
        {
          "internalType": "bytes32",
          "name": "id",
          "type": "bytes32"
        },
        {
          "internalType": "address",
          "name": "bidder",
          "type": "address"
        },
        {
          "internalType": "address[]",
          "name": "bidCollateralTokens",
          "type": "address[]"
        },
        {
          "internalType": "uint256[]",
          "name": "amounts",
          "type": "uint256[]"
        }
      ],
      "name": "auctionUnlockBid",
      "outputs": [],
      "stateMutability": "nonpayable",
      "type": "function"
    },
    {
      "inputs": [],
      "name": "bidCount",
      "outputs": [
        {
          "internalType": "uint256",
          "name": "",
          "type": "uint256"
        }
      ],
      "stateMutability": "view",
      "type": "function"
    },
    {
      "inputs": [
        {
          "internalType": "contract IERC20Upgradeable",
          "name": "",
          "type": "address"
        }
      ],
      "name": "collateralTokens",
      "outputs": [
        {
          "internalType": "bool",
          "name": "",
          "type": "bool"
        }
      ],
      "stateMutability": "view",
      "type": "function"
    },
    {
      "inputs": [],
      "name": "dayCountFractionMantissa",
      "outputs": [
        {
          "internalType": "uint256",
          "name": "",
          "type": "uint256"
        }
      ],
      "stateMutability": "view",
      "type": "function"
    },
    {
      "inputs": [
        {
          "internalType": "bytes32[]",
          "name": "revealedBids",
          "type": "bytes32[]"
        },
        {
          "internalType": "bytes32[]",
          "name": "expiredRolloverBids",
          "type": "bytes32[]"
        },
        {
          "internalType": "bytes32[]",
          "name": "unrevealedBids",
          "type": "bytes32[]"
        }
      ],
      "name": "getAllBids",
      "outputs": [
        {
          "components": [
            {
              "internalType": "bytes32",
              "name": "id",
              "type": "bytes32"
            },
            {
              "internalType": "address",
              "name": "bidder",
              "type": "address"
            },
            {
              "internalType": "uint256",
              "name": "bidPriceRevealed",
              "type": "uint256"
            },
            {
              "internalType": "uint256",
              "name": "amount",
              "type": "uint256"
            },
            {
              "internalType": "uint256[]",
              "name": "collateralAmounts",
              "type": "uint256[]"
            },
            {
              "internalType": "address",
              "name": "purchaseToken",
              "type": "address"
            },
            {
              "internalType": "address[]",
              "name": "collateralTokens",
              "type": "address[]"
            },
            {
              "internalType": "bool",
              "name": "isRollover",
              "type": "bool"
            },
            {
              "internalType": "address",
              "name": "rolloverPairOffTermRepoServicer",
              "type": "address"
            }
          ],
          "internalType": "struct TermAuctionRevealedBid[]",
          "name": "",
          "type": "tuple[]"
        },
        {
          "components": [
            {
              "internalType": "bytes32",
              "name": "id",
              "type": "bytes32"
            },
            {
              "internalType": "address",
              "name": "bidder",
              "type": "address"
            },
            {
              "internalType": "bytes32",
              "name": "bidPriceHash",
              "type": "bytes32"
            },
            {
              "internalType": "uint256",
              "name": "bidPriceRevealed",
              "type": "uint256"
            },
            {
              "internalType": "uint256",
              "name": "amount",
              "type": "uint256"
            },
            {
              "internalType": "uint256[]",
              "name": "collateralAmounts",
              "type": "uint256[]"
            },
            {
              "internalType": "address",
              "name": "purchaseToken",
              "type": "address"
            },
            {
              "internalType": "address[]",
              "name": "collateralTokens",
              "type": "address[]"
            },
            {
              "internalType": "bool",
              "name": "isRollover",
              "type": "bool"
            },
            {
              "internalType": "address",
              "name": "rolloverPairOffTermRepoServicer",
              "type": "address"
            },
            {
              "internalType": "bool",
              "name": "isRevealed",
              "type": "bool"
            }
          ],
          "internalType": "struct TermAuctionBid[]",
          "name": "",
          "type": "tuple[]"
        }
      ],
      "stateMutability": "nonpayable",
      "type": "function"
    },
    {
      "inputs": [
        {
          "internalType": "bytes32",
          "name": "role",
          "type": "bytes32"
        }
      ],
      "name": "getRoleAdmin",
      "outputs": [
        {
          "internalType": "bytes32",
          "name": "",
          "type": "bytes32"
        }
      ],
      "stateMutability": "view",
      "type": "function"
    },
    {
      "inputs": [
        {
          "internalType": "bytes32",
          "name": "role",
          "type": "bytes32"
        },
        {
          "internalType": "address",
          "name": "account",
          "type": "address"
        }
      ],
      "name": "grantRole",
      "outputs": [],
      "stateMutability": "nonpayable",
      "type": "function"
    },
    {
      "inputs": [
        {
          "internalType": "bytes32",
          "name": "role",
          "type": "bytes32"
        },
        {
          "internalType": "address",
          "name": "account",
          "type": "address"
        }
      ],
      "name": "hasRole",
      "outputs": [
        {
          "internalType": "bool",
          "name": "",
          "type": "bool"
        }
      ],
      "stateMutability": "view",
      "type": "function"
    },
    {
      "inputs": [
        {
          "internalType": "string",
          "name": "termRepoId_",
          "type": "string"
        },
        {
          "internalType": "string",
          "name": "auctionId_",
          "type": "string"
        },
        {
          "internalType": "uint256",
          "name": "auctionStartTime_",
          "type": "uint256"
        },
        {
          "internalType": "uint256",
          "name": "revealTime_",
          "type": "uint256"
        },
        {
          "internalType": "uint256",
          "name": "auctionEndTime_",
          "type": "uint256"
        },
        {
          "internalType": "uint256",
          "name": "redemptionTimestamp_",
          "type": "uint256"
        },
        {
          "internalType": "uint256",
          "name": "minimumTenderAmount_",
          "type": "uint256"
        },
        {
          "internalType": "address",
          "name": "purchaseToken_",
          "type": "address"
        },
        {
          "internalType": "contract IERC20Upgradeable[]",
          "name": "collateralTokens_",
          "type": "address[]"
        },
        {
          "internalType": "address",
          "name": "termInitializer_",
          "type": "address"
        }
      ],
      "name": "initialize",
      "outputs": [],
      "stateMutability": "nonpayable",
      "type": "function"
    },
    {
      "inputs": [
        {
          "components": [
            {
              "internalType": "bytes32",
              "name": "id",
              "type": "bytes32"
            },
            {
              "internalType": "address",
              "name": "bidder",
              "type": "address"
            },
            {
              "internalType": "bytes32",
              "name": "bidPriceHash",
              "type": "bytes32"
            },
            {
              "internalType": "uint256",
              "name": "amount",
              "type": "uint256"
            },
            {
              "internalType": "uint256[]",
              "name": "collateralAmounts",
              "type": "uint256[]"
            },
            {
              "internalType": "address",
              "name": "purchaseToken",
              "type": "address"
            },
            {
              "internalType": "address[]",
              "name": "collateralTokens",
              "type": "address[]"
            }
          ],
          "internalType": "struct TermAuctionBidSubmission[]",
          "name": "bidSubmissions",
          "type": "tuple[]"
        }
      ],
      "name": "lockBids",
      "outputs": [
        {
          "internalType": "bytes32[]",
          "name": "",
          "type": "bytes32[]"
        }
      ],
      "stateMutability": "nonpayable",
      "type": "function"
    },
    {
      "inputs": [
        {
          "components": [
            {
              "internalType": "bytes32",
              "name": "id",
              "type": "bytes32"
            },
            {
              "internalType": "address",
              "name": "bidder",
              "type": "address"
            },
            {
              "internalType": "bytes32",
              "name": "bidPriceHash",
              "type": "bytes32"
            },
            {
              "internalType": "uint256",
              "name": "amount",
              "type": "uint256"
            },
            {
              "internalType": "uint256[]",
              "name": "collateralAmounts",
              "type": "uint256[]"
            },
            {
              "internalType": "address",
              "name": "purchaseToken",
              "type": "address"
            },
            {
              "internalType": "address[]",
              "name": "collateralTokens",
              "type": "address[]"
            }
          ],
          "internalType": "struct TermAuctionBidSubmission[]",
          "name": "bidSubmissions",
          "type": "tuple[]"
        },
        {
          "internalType": "address",
          "name": "referralAddress",
          "type": "address"
        }
      ],
      "name": "lockBidsWithReferral",
      "outputs": [
        {
          "internalType": "bytes32[]",
          "name": "",
          "type": "bytes32[]"
        }
      ],
      "stateMutability": "nonpayable",
      "type": "function"
    },
    {
      "inputs": [
        {
          "components": [
            {
              "internalType": "bytes32",
              "name": "id",
              "type": "bytes32"
            },
            {
              "internalType": "address",
              "name": "bidder",
              "type": "address"
            },
            {
              "internalType": "bytes32",
              "name": "bidPriceHash",
              "type": "bytes32"
            },
            {
              "internalType": "uint256",
              "name": "bidPriceRevealed",
              "type": "uint256"
            },
            {
              "internalType": "uint256",
              "name": "amount",
              "type": "uint256"
            },
            {
              "internalType": "uint256[]",
              "name": "collateralAmounts",
              "type": "uint256[]"
            },
            {
              "internalType": "address",
              "name": "purchaseToken",
              "type": "address"
            },
            {
              "internalType": "address[]",
              "name": "collateralTokens",
              "type": "address[]"
            },
            {
              "internalType": "bool",
              "name": "isRollover",
              "type": "bool"
            },
            {
              "internalType": "address",
              "name": "rolloverPairOffTermRepoServicer",
              "type": "address"
            },
            {
              "internalType": "bool",
              "name": "isRevealed",
              "type": "bool"
            }
          ],
          "internalType": "struct TermAuctionBid",
          "name": "bid",
          "type": "tuple"
        }
      ],
      "name": "lockRolloverBid",
      "outputs": [],
      "stateMutability": "nonpayable",
      "type": "function"
    },
    {
      "inputs": [
        {
          "internalType": "bytes32",
          "name": "id",
          "type": "bytes32"
        }
      ],
      "name": "lockedBid",
      "outputs": [
        {
          "components": [
            {
              "internalType": "bytes32",
              "name": "id",
              "type": "bytes32"
            },
            {
              "internalType": "address",
              "name": "bidder",
              "type": "address"
            },
            {
              "internalType": "bytes32",
              "name": "bidPriceHash",
              "type": "bytes32"
            },
            {
              "internalType": "uint256",
              "name": "bidPriceRevealed",
              "type": "uint256"
            },
            {
              "internalType": "uint256",
              "name": "amount",
              "type": "uint256"
            },
            {
              "internalType": "uint256[]",
              "name": "collateralAmounts",
              "type": "uint256[]"
            },
            {
              "internalType": "address",
              "name": "purchaseToken",
              "type": "address"
            },
            {
              "internalType": "address[]",
              "name": "collateralTokens",
              "type": "address[]"
            },
            {
              "internalType": "bool",
              "name": "isRollover",
              "type": "bool"
            },
            {
              "internalType": "address",
              "name": "rolloverPairOffTermRepoServicer",
              "type": "address"
            },
            {
              "internalType": "bool",
              "name": "isRevealed",
              "type": "bool"
            }
          ],
          "internalType": "struct TermAuctionBid",
          "name": "",
          "type": "tuple"
        }
      ],
      "stateMutability": "view",
      "type": "function"
    },
    {
      "inputs": [],
      "name": "lockingPaused",
      "outputs": [
        {
          "internalType": "bool",
          "name": "",
          "type": "bool"
        }
      ],
      "stateMutability": "view",
      "type": "function"
    },
    {
      "inputs": [],
      "name": "minimumTenderAmount",
      "outputs": [
        {
          "internalType": "uint256",
          "name": "",
          "type": "uint256"
        }
      ],
      "stateMutability": "view",
      "type": "function"
    },
    {
      "inputs": [
        {
          "internalType": "address",
          "name": "rolloverManager",
          "type": "address"
        }
      ],
      "name": "pairRolloverManager",
      "outputs": [],
      "stateMutability": "nonpayable",
      "type": "function"
    },
    {
      "inputs": [
        {
          "internalType": "address",
          "name": "termAuction_",
          "type": "address"
        },
        {
          "internalType": "contract ITermRepoServicer",
          "name": "termRepoServicer_",
          "type": "address"
        },
        {
          "internalType": "contract ITermEventEmitter",
          "name": "emitter_",
          "type": "address"
        },
        {
          "internalType": "contract ITermRepoCollateralManager",
          "name": "termRepoCollateralManager_",
          "type": "address"
        },
        {
          "internalType": "contract ITermPriceOracle",
          "name": "termPriceOracle_",
          "type": "address"
        },
        {
          "internalType": "address",
          "name": "devopsMultisig_",
          "type": "address"
        },
        {
          "internalType": "address",
          "name": "adminWallet_",
          "type": "address"
        }
      ],
      "name": "pairTermContracts",
      "outputs": [],
      "stateMutability": "nonpayable",
      "type": "function"
    },
    {
      "inputs": [],
      "name": "pauseLocking",
      "outputs": [],
      "stateMutability": "nonpayable",
      "type": "function"
    },
    {
      "inputs": [],
      "name": "pauseUnlocking",
      "outputs": [],
      "stateMutability": "nonpayable",
      "type": "function"
    },
    {
      "inputs": [],
      "name": "proxiableUUID",
      "outputs": [
        {
          "internalType": "bytes32",
          "name": "",
          "type": "bytes32"
        }
      ],
      "stateMutability": "view",
      "type": "function"
    },
    {
      "inputs": [],
      "name": "purchaseToken",
      "outputs": [
        {
          "internalType": "address",
          "name": "",
          "type": "address"
        }
      ],
      "stateMutability": "view",
      "type": "function"
    },
    {
      "inputs": [
        {
          "internalType": "bytes32",
          "name": "role",
          "type": "bytes32"
        },
        {
          "internalType": "address",
          "name": "account",
          "type": "address"
        }
      ],
      "name": "renounceRole",
      "outputs": [],
      "stateMutability": "nonpayable",
      "type": "function"
    },
    {
      "inputs": [
        {
          "internalType": "bytes32[]",
          "name": "ids",
          "type": "bytes32[]"
        },
        {
          "internalType": "uint256[]",
          "name": "prices",
          "type": "uint256[]"
        },
        {
          "internalType": "uint256[]",
          "name": "nonces",
          "type": "uint256[]"
        }
      ],
      "name": "revealBids",
      "outputs": [],
      "stateMutability": "nonpayable",
      "type": "function"
    },
    {
      "inputs": [],
      "name": "revealTime",
      "outputs": [
        {
          "internalType": "uint256",
          "name": "",
          "type": "uint256"
        }
      ],
      "stateMutability": "view",
      "type": "function"
    },
    {
      "inputs": [
        {
          "internalType": "bytes32",
          "name": "role",
          "type": "bytes32"
        },
        {
          "internalType": "address",
          "name": "account",
          "type": "address"
        }
      ],
      "name": "revokeRole",
      "outputs": [],
      "stateMutability": "nonpayable",
      "type": "function"
    },
    {
      "inputs": [
        {
          "internalType": "bytes4",
          "name": "interfaceId",
          "type": "bytes4"
        }
      ],
      "name": "supportsInterface",
      "outputs": [
        {
          "internalType": "bool",
          "name": "",
          "type": "bool"
        }
      ],
      "stateMutability": "view",
      "type": "function"
    },
    {
      "inputs": [],
      "name": "termAuctionId",
      "outputs": [
        {
          "internalType": "bytes32",
          "name": "",
          "type": "bytes32"
        }
      ],
      "stateMutability": "view",
      "type": "function"
    },
    {
      "inputs": [],
      "name": "termRepoCollateralManager",
      "outputs": [
        {
          "internalType": "contract ITermRepoCollateralManager",
          "name": "",
          "type": "address"
        }
      ],
      "stateMutability": "view",
      "type": "function"
    },
    {
      "inputs": [],
      "name": "termRepoId",
      "outputs": [
        {
          "internalType": "bytes32",
          "name": "",
          "type": "bytes32"
        }
      ],
      "stateMutability": "view",
      "type": "function"
    },
    {
      "inputs": [],
      "name": "termRepoServicer",
      "outputs": [
        {
          "internalType": "contract ITermRepoServicer",
          "name": "",
          "type": "address"
        }
      ],
      "stateMutability": "view",
      "type": "function"
    },
    {
      "inputs": [
        {
          "internalType": "bytes32[]",
          "name": "ids",
          "type": "bytes32[]"
        }
      ],
      "name": "unlockBids",
      "outputs": [],
      "stateMutability": "nonpayable",
      "type": "function"
    },
    {
      "inputs": [],
      "name": "unlockingPaused",
      "outputs": [
        {
          "internalType": "bool",
          "name": "",
          "type": "bool"
        }
      ],
      "stateMutability": "view",
      "type": "function"
    },
    {
      "inputs": [],
      "name": "unpauseLocking",
      "outputs": [],
      "stateMutability": "nonpayable",
      "type": "function"
    },
    {
      "inputs": [],
      "name": "unpauseUnlocking",
      "outputs": [],
      "stateMutability": "nonpayable",
      "type": "function"
    },
    {
      "inputs": [
        {
          "internalType": "address",
          "name": "newImplementation",
          "type": "address"
        }
      ],
      "name": "upgradeTo",
      "outputs": [],
      "stateMutability": "nonpayable",
      "type": "function"
    },
    {
      "inputs": [
        {
          "internalType": "address",
          "name": "newImplementation",
          "type": "address"
        },
        {
          "internalType": "bytes",
          "name": "data",
          "type": "bytes"
        }
      ],
      "name": "upgradeToAndCall",
      "outputs": [],
      "stateMutability": "payable",
      "type": "function"
    },
    {
      "inputs": [],
      "name": "version",
      "outputs": [
        {
          "internalType": "string",
          "name": "",
          "type": "string"
        }
      ],
      "stateMutability": "view",
      "type": "function"
    }
  ],
  "bytecode": "0x60a0604052306080523480156200001557600080fd5b506200002062000026565b620000e7565b600054610100900460ff1615620000935760405162461bcd60e51b815260206004820152602760248201527f496e697469616c697a61626c653a20636f6e747261637420697320696e697469604482015266616c697a696e6760c81b606482015260840160405180910390fd5b60005460ff90811614620000e5576000805460ff191660ff9081179091556040519081527f7f26b83ff96e1f2b6a682f133852f6798a09c465da95921460cefb38474024989060200160405180910390a15b565b608051615f2f6200011f60003960008181610e1601528181610e56015281816112eb0152818161132b01526113a30152615f2f6000f3fe6080604052600436106102535760003560e01c80635c1645671161013a578063b40a5627116100b1578063b40a5627146106cc578063ba829d71146106e3578063ba98b5ef146106fa578063cc5b6e4a14610727578063cdae1ee01461073e578063cfe9232b1461075e578063cffbc29714610780578063d547741f146107b1578063d6725d0c146107d1578063e61f00e6146107e9578063eb54f9ec14610809578063f9202d631461082057600080fd5b80635c164567146105745780636d7331411461059457806375b238fc146105ab5780637a6944c5146105cd5780637dae3fb7146105e45780637e3f71d514610604578063811b86cd146106245780638a5cd91e1461064457806391d1485414610659578063a217fddf14610679578063a95c4d621461068e578063ae91fa33146106af57600080fd5b80633659cfe6116101ce5780633659cfe61461040d57806338665e9f1461042d5780633de81dc41461045a5780633e836b3d1461047b5780633efbfd8c14610490578063408f2e10146104b157806341da5432146104c6578063475d266a146104db5780634b449cba146104fb5780634f1ef2861461051257806352d1902d1461052557806354fd4d501461053a57600080fd5b806301ffc9a7146102585780630283ce5b1461028d57806302b65fb0146102af5780631f642705146102df578063201a6625146102f4578063248a9ca31461031657806325a2471a1461034657806327df3d3e1461035d5780632f2ff15d1461037f578063323c61831461039f578063357a77d2146103bf57806336568abe146103ed575b600080fd5b34801561026457600080fd5b50610278610273366004614bb6565b61084e565b60405190151581526020015b60405180910390f35b34801561029957600080fd5b506102ad6102a8366004614c50565b610885565b005b3480156102bb57600080fd5b506102d1600080516020615e9a83398151915281565b604051908152602001610284565b3480156102eb57600080fd5b506102ad610a0a565b34801561030057600080fd5b506102d1600080516020615e1383398151915281565b34801561032257600080fd5b506102d1610331366004614cdb565b600090815260c9602052604090206001015490565b34801561035257600080fd5b506102d16101325481565b34801561036957600080fd5b506102d1600080516020615e3383398151915281565b34801561038b57600080fd5b506102ad61039a366004614cf4565b610aab565b3480156103ab57600080fd5b506102ad6103ba366004614e8d565b610ad5565b3480156103cb57600080fd5b50610137546103e0906001600160a01b031681565b6040516102849190614f80565b3480156103f957600080fd5b506102ad610408366004614cf4565b610d8e565b34801561041957600080fd5b506102ad610428366004614f94565b610e0c565b34801561043957600080fd5b5061044d610448366004614fb1565b610ed4565b6040516102849190615007565b34801561046657600080fd5b50610136546103e0906001600160a01b031681565b34801561048757600080fd5b506102ad61109e565b34801561049c57600080fd5b5061013d546102789062010000900460ff1681565b3480156104bd57600080fd5b506102d1609681565b3480156104d257600080fd5b506102ad611102565b3480156104e757600080fd5b5061044d6104f636600461504b565b611167565b34801561050757600080fd5b506102d16101315481565b6102ad61052036600461508c565b6112e1565b34801561053157600080fd5b506102d1611396565b34801561054657600080fd5b50604080518082018252600b81526a19195d995b1bdc1b595b9d60aa1b602082015290516102849190615157565b34801561058057600080fd5b506102ad61058f36600461518a565b611444565b3480156105a057600080fd5b506102d161012e5481565b3480156105b757600080fd5b506102d1600080516020615eba83398151915281565b3480156105d957600080fd5b506102d16101335481565b3480156105f057600080fd5b506102ad6105ff36600461504b565b6114df565b34801561061057600080fd5b5061013d5461027890610100900460ff1681565b34801561063057600080fd5b506102ad61063f366004614f94565b611681565b34801561065057600080fd5b506102ad6116b1565b34801561066557600080fd5b50610278610674366004614cf4565b61171b565b34801561068557600080fd5b506102d1600081565b34801561069a57600080fd5b50610134546103e0906001600160a01b031681565b3480156106bb57600080fd5b506102d168056bc75e2d6310000081565b3480156106d857600080fd5b506102d161013c5481565b3480156106ef57600080fd5b506102d16101305481565b34801561070657600080fd5b5061071a610715366004614cdb565b611746565b6040516102849190615347565b34801561073357600080fd5b506102d161012d5481565b34801561074a57600080fd5b506102ad61075936600461535a565b6118a3565b34801561076a57600080fd5b506102d1600080516020615eda83398151915281565b34801561078c57600080fd5b5061027861079b366004614f94565b6101356020526000908152604090205460ff1681565b3480156107bd57600080fd5b506102ad6107cc366004614cf4565b611a74565b3480156107dd57600080fd5b506102d16301da9c0081565b3480156107f557600080fd5b506102ad6108043660046153f0565b611a99565b34801561081557600080fd5b506102d161012f5481565b34801561082c57600080fd5b5061084061083b36600461518a565b611c6c565b604051610284929190615480565b60006001600160e01b03198216637965db0b60e01b148061087f57506301ffc9a760e01b6001600160e01b03198316145b92915050565b600080516020615eda83398151915261089d81611ca5565b600087815261013b602052604090206008015460ff16156108d15760405163041753a560e31b815260040160405180910390fd5b6101395461012e546040516307fec0e360e01b81526001600160a01b03909216916307fec0e39161090f918b90600401918252602082015260400190565b600060405180830381600087803b15801561092957600080fd5b505af115801561093d573d6000803e3d6000fd5b5050505060005b84811015610a0057610136546001600160a01b03166348717eb7888888858181106109715761097161558b565b90506020020160208101906109869190614f94565b8787868181106109985761099861558b565b905060200201356040518463ffffffff1660e01b81526004016109bd939291906155a1565b600060405180830381600087803b1580156109d757600080fd5b505af11580156109eb573d6000803e3d6000fd5b50505050806109f9906155db565b9050610944565b5050505050505050565b600080516020615e13833981519152610a2281611ca5565b61013d805462ff00001916620100001790556101395461012e5461012d54604051631258284760e21b81526001600160a01b0390931692634960a11c92610a76929091600401918252602082015260400190565b600060405180830381600087803b158015610a9057600080fd5b505af1158015610aa4573d6000803e3d6000fd5b5050505050565b600082815260c96020526040902060010154610ac681611ca5565b610ad08383611caf565b505050565b600054610100900460ff1615808015610af55750600054600160ff909116105b80610b165750610b0430611d35565b158015610b16575060005460ff166001145b610b7e5760405162461bcd60e51b815260206004820152602e60248201527f496e697469616c697a61626c653a20636f6e747261637420697320616c72656160448201526d191e481a5b9a5d1a585b1a5e995960921b60648201526084015b60405180910390fd5b6000805460ff191660011790558015610ba1576000805461ff0019166101001790555b610ba9611d44565b610bb1611d44565b610bb9611d6d565b610bd1600080516020615e3383398151915283611caf565b8c8c604051602001610be49291906155f4565b60408051601f1981840301815290829052805160209182012061012d55610c0f918d918d91016155f4565b60408051601f19818403018152919052805160209091012061012e5587891115610c56576040516372067af960e11b8152600481018a905260248101899052604401610b75565b61012f8990556101308890556101318790556101328590556301da9c00670de0b6b3a7640000610c868989615604565b610c909190615617565b610c9a919061562e565b6101335561013480546001600160a01b0319166001600160a01b03861617905560005b83518160ff161015610d275760016101356000868460ff1681518110610ce557610ce561558b565b6020908102919091018101516001600160a01b03168252810191909152604001600020805460ff1916911515919091179055610d2081615650565b9050610cbd565b50600061013c5561013d805460ff191690558015610d7f576000805461ff0019169055604051600181527f7f26b83ff96e1f2b6a682f133852f6798a09c465da95921460cefb38474024989060200160405180910390a15b50505050505050505050505050565b6001600160a01b0381163314610dfe5760405162461bcd60e51b815260206004820152602f60248201527f416363657373436f6e74726f6c3a2063616e206f6e6c792072656e6f756e636560448201526e103937b632b9903337b91039b2b63360891b6064820152608401610b75565b610e088282611d9c565b5050565b6001600160a01b037f0000000000000000000000000000000000000000000000000000000000000000163003610e545760405162461bcd60e51b8152600401610b759061566f565b7f00000000000000000000000000000000000000000000000000000000000000006001600160a01b0316610e86611e03565b6001600160a01b031614610eac5760405162461bcd60e51b8152600401610b75906156bb565b610eb581611e1f565b60408051600080825260208201909252610ed191839190611ea2565b50565b606061013054421180610ee9575061012f5442105b15610f075760405163f046007760e01b815260040160405180910390fd5b61013d54610100900460ff1615610f315760405163059e557960e41b815260040160405180910390fd5b610f3961200d565b6001600160a01b0382163303610f62576040516333d8ca2d60e11b815260040160405180910390fd5b6000836001600160401b03811115610f7c57610f7c614d65565b604051908082528060200260200182016040528015610fa5578160200160208202803683370190505b50905060005b8481101561108a576000610feb878784818110610fca57610fca61558b565b9050602002810190610fdc9190615707565b610fe5906157e6565b33612066565b905080600001548383815181106110045761100461558b565b60209081029190910101526101395461012e5460405163050ecc8960e11b81526001600160a01b0390921691630a1d9912916110469185908a90600401615905565b600060405180830381600087803b15801561106057600080fd5b505af1158015611074573d6000803e3d6000fd5b505050505080611083906155db565b9050610fab565b509050611097600160fb55565b9392505050565b600080516020615e138339815191526110b681611ca5565b61013d805461ff00191690556101395461012e5461012d5460405163b423ac9d60e01b8152600481019290925260248201526001600160a01b039091169063b423ac9d90604401610a76565b600080516020615e1383398151915261111a81611ca5565b61013d805462ff0000191690556101395461012e5461012d54604051632044037760e21b8152600481019290925260248201526001600160a01b03909116906381100ddc90604401610a76565b60606101305442118061117c575061012f5442105b1561119a5760405163f046007760e01b815260040160405180910390fd5b61013d54610100900460ff16156111c45760405163059e557960e41b815260040160405180910390fd5b6111cc61200d565b6000826001600160401b038111156111e6576111e6614d65565b60405190808252806020026020018201604052801561120f578160200160208202803683370190505b50905060005b838110156112d4576000611234868684818110610fca57610fca61558b565b9050806000015483838151811061124d5761124d61558b565b60209081029190910101526101395461012e5460405163050ecc8960e11b81526001600160a01b0390921691630a1d991291611290918590600090600401615905565b600060405180830381600087803b1580156112aa57600080fd5b505af11580156112be573d6000803e3d6000fd5b5050505050806112cd906155db565b9050611215565b50905061087f600160fb55565b6001600160a01b037f00000000000000000000000000000000000000000000000000000000000000001630036113295760405162461bcd60e51b8152600401610b759061566f565b7f00000000000000000000000000000000000000000000000000000000000000006001600160a01b031661135b611e03565b6001600160a01b0316146113815760405162461bcd60e51b8152600401610b75906156bb565b61138a82611e1f565b610e0882826001611ea2565b6000306001600160a01b037f000000000000000000000000000000000000000000000000000000000000000016146114315760405162461bcd60e51b815260206004820152603860248201527f555550535570677261646561626c653a206d757374206e6f742062652063616c6044820152771b1959081d1a1c9bdd59da0819195b1959d85d1958d85b1b60421b6064820152608401610b75565b50600080516020615e5383398151915290565b61013054421015611468576040516302a3f58760e51b815260040160405180910390fd5b60005b858110156114d6576114c68787838181106114885761148861558b565b905060200201358686848181106114a1576114a161558b565b905060200201358585858181106114ba576114ba61558b565b905060200201356126e1565b6114cf816155db565b905061146b565b50505050505050565b61013d5462010000900460ff161561150a57604051631370a4e760e31b815260040160405180910390fd5b61151261200d565b61012f544210156115365760405163f046007760e01b815260040160405180910390fd5b61013054421180156115bd575061013a60009054906101000a90046001600160a01b03166001600160a01b0316638dfea9e76040518163ffffffff1660e01b8152600401602060405180830381865afa158015611597573d6000803e3d6000fd5b505050506040513d601f19601f820116820180604052508101906115bb9190615a11565b155b156115db5760405163f046007760e01b815260040160405180910390fd5b60005b81811015611676576116668383838181106115fb576115fb61558b565b905060200201353361013b600087878781811061161a5761161a61558b565b90506020020135815260200190815260200160002060070161013b60008888888181106116495761164961558b565b905060200201358152602001908152602001600020600501612813565b61166f816155db565b90506115de565b50610e08600160fb55565b600080516020615eba83398151915261169981611ca5565b610e08600080516020615e9a83398151915283611caf565b600080516020615e138339815191526116c981611ca5565b61013d805461ff0019166101001790556101395461012e5461012d5460405163210d6add60e21b81526001600160a01b0390931692638435ab7492610a76929091600401918252602082015260400190565b600091825260c9602090815260408084206001600160a01b0393909316845291905290205460ff1690565b61174e614a3d565b600082815261013b60209081526040918290208251610160810184528154815260018201546001600160a01b03168184015260028201548185015260038201546060820152600482015460808201526005820180548551818602810186019096528086529194929360a086019392908301828280156117ec57602002820191906000526020600020905b8154815260200190600101908083116117d8575b505050918352505060068201546001600160a01b0316602080830191909152600783018054604080518285028101850182528281529401939283018282801561185e57602002820191906000526020600020905b81546001600160a01b03168152600190910190602001808311611840575b50505091835250506008919091015460ff808216151560208401526001600160a01b036101008304166040840152600160a81b90910416151560609091015292915050565b600080516020615e338339815191526118bb81611ca5565b61013d5460ff16156118e057604051634ce377bb60e11b815260040160405180910390fd5b61013d805460ff191660011790556001600160a01b0387166119155760405163a258508760e01b815260040160405180910390fd5b61013780546001600160a01b03808a166001600160a01b03199283161790925561013a8054928b169290911691909117905561195f600080516020615eda83398151915289611caf565b611977600080516020615e1383398151915284611caf565b61198f600080516020615eba83398151915283611caf565b61013980546001600160a01b038881166001600160a01b03199283168117909355610136805489831690841617905561013880549188169190921617905561012d5461012e5461012f54610130546101325461013354604051632b6cea3160e01b8152600481019690965260248601949094523060448601526064850192909252608484015268056bc75e2d6310000060a484015260c483015260e4820152632b6cea319061010401600060405180830381600087803b158015611a5257600080fd5b505af1158015611a66573d6000803e3d6000fd5b505050505050505050505050565b600082815260c96020526040902060010154611a8f81611ca5565b610ad08383611d9c565b61013d54610100900460ff1615611ac35760405163059e557960e41b815260040160405180910390fd5b600080516020615e9a833981519152611adb81611ca5565b611ae361200d565b61013054421115611b075760405163f046007760e01b815260040160405180910390fd5b8160800135600003611c51578135600090815261013b60205260408120600401549003611b4a576040516311ebb27f60e11b815282356004820152602401610b75565b8135600090815261013b602052604081208181556001810180546001600160a01b031916905560028101829055600381018290556004810182905590611b936005830182614a98565b6006820180546001600160a01b0319169055611bb3600783016000614a98565b5060080180546001600160b01b031916905561013c805460019190600090611bdc908490615604565b90915550506101395461012e546040516307fec0e360e01b81526004810191909152833560248201526001600160a01b03909116906307fec0e390604401600060405180830381600087803b158015611c3457600080fd5b505af1158015611c48573d6000803e3d6000fd5b50505050611c62565b611c62611c5d83615a39565b612a90565b610e08600160fb55565b606080600080516020615eda833981519152611c8781611ca5565b611c95898989898989612ccc565b9250925050965096945050505050565b610ed181336131cb565b611cb9828261171b565b610e0857600082815260c9602090815260408083206001600160a01b03851684529091529020805460ff19166001179055611cf13390565b6001600160a01b0316816001600160a01b0316837f2f8788117e7eff1d82e926ec794901d17c78024a50270940304540a733656f0d60405160405180910390a45050565b6001600160a01b03163b151590565b600054610100900460ff16611d6b5760405162461bcd60e51b8152600401610b7590615b26565b565b600054610100900460ff16611d945760405162461bcd60e51b8152600401610b7590615b26565b611d6b613224565b611da6828261171b565b15610e0857600082815260c9602090815260408083206001600160a01b0385168085529252808320805460ff1916905551339285917ff6391f5c32d9c69d2a47ea670b442974b53935d1edc7fd64eb21e047a839171b9190a45050565b600080516020615e53833981519152546001600160a01b031690565b600080516020615e13833981519152611e3781611ca5565b6101395460405163b3c2d50b60e01b81523060048201526001600160a01b0384811660248301529091169063b3c2d50b906044015b600060405180830381600087803b158015611e8657600080fd5b505af1158015611e9a573d6000803e3d6000fd5b505050505050565b7f4910fdfa16fed3260ed0e7147f7cc6da11a60208b5b9406d12a635614ffd91435460ff1615611ed557610ad08361324b565b826001600160a01b03166352d1902d6040518163ffffffff1660e01b8152600401602060405180830381865afa925050508015611f2f575060408051601f3d908101601f19168201909252611f2c91810190615b71565b60015b611f925760405162461bcd60e51b815260206004820152602e60248201527f45524331393637557067726164653a206e657720696d706c656d656e7461746960448201526d6f6e206973206e6f74205555505360901b6064820152608401610b75565b600080516020615e5383398151915281146120015760405162461bcd60e51b815260206004820152602960248201527f45524331393637557067726164653a20756e737570706f727465642070726f786044820152681a58589b195555525160ba1b6064820152608401610b75565b50610ad08383836132e5565b600260fb540361205f5760405162461bcd60e51b815260206004820152601f60248201527f5265656e7472616e637947756172643a207265656e7472616e742063616c6c006044820152606401610b75565b600260fb55565b6000826020015182816001600160a01b0316816001600160a01b0316146120a0576040516305732abb60e51b815260040160405180910390fd5b609661013c54106120c4576040516346f317d760e01b815260040160405180910390fd5b8451600090815261013b60205260408120600401541580159190612131576020808801518851600090815261013b9092526040909120600101546001600160a01b03908116911614612129576040516305732abb60e51b815260040160405180910390fd5b508551612140565b865161213d9087613310565b90505b60a0870151610134546001600160a01b0390811691161461217a578660a0015160405163e34b641f60e01b8152600401610b759190614f80565b60005b8760c00151518110156122185761013560008960c0015183815181106121a5576121a561558b565b6020908102919091018101516001600160a01b031682528101919091526040016000205460ff16612208578760c0015181815181106121e6576121e661558b565b602002602001015160405163052baa4960e31b8152600401610b759190614f80565b612211816155db565b905061217d565b50610132548760600151101561224957866060015160405163235c188560e01b8152600401610b7591815260200190565b61226087606001518860c001518960800151613397565b1561227e576040516354f8f85560e11b815260040160405180910390fd5b6000805b8860c00151518110156124ef57831561243457600083815261013b602052604090206005018054829081106122b9576122b961558b565b90600052602060002001549150886080015181815181106122dc576122dc61558b565b60200260200101518210156123a5576101365460208a015160c08b015180516001600160a01b0390931692632391281c9291908590811061231f5761231f61558b565b6020026020010151858d60800151868151811061233e5761233e61558b565b60200260200101516123509190615604565b6040518463ffffffff1660e01b815260040161236e939291906155a1565b600060405180830381600087803b15801561238857600080fd5b505af115801561239c573d6000803e3d6000fd5b505050506124df565b886080015181815181106123bb576123bb61558b565b602002602001015182111561242f576101365460208a015160c08b015180516001600160a01b03909316926348717eb7929190859081106123fe576123fe61558b565b60200260200101518c60800151858151811061241c5761241c61558b565b6020026020010151866123509190615604565b6124df565b6101365460208a015160c08b015180516001600160a01b0390931692632391281c929190859081106124685761246861558b565b60200260200101518c6080015185815181106124865761248661558b565b60200260200101516040518463ffffffff1660e01b81526004016124ac939291906155a1565b600060405180830381600087803b1580156124c657600080fd5b505af11580156124da573d6000803e3d6000fd5b505050505b6124e8816155db565b9050612282565b5060405180610160016040528083815260200189602001516001600160a01b03168152602001896040015181526020016000815260200189606001518152602001896080015181526020018960a001516001600160a01b031681526020018960c00151815260200160001515815260200160006001600160a01b031681526020016000151581525061013b60008481526020019081526020016000206000820151816000015560208201518160010160006101000a8154816001600160a01b0302191690836001600160a01b0316021790555060408201518160020155606082015181600301556080820151816004015560a08201518160050190805190602001906125fc929190614ab6565b5060c08201516006820180546001600160a01b0319166001600160a01b0390921691909117905560e0820151805161263e916007840191602090910190614b01565b50610100828101516008929092018054610120850151610140909501516001600160a81b0319909116931515610100600160a81b031916939093176001600160a01b039094169091029290921760ff60a81b1916600160a81b91151591909102179055826126c057600161013c60008282546126ba9190615b8a565b90915550505b50600090815261013b602052604090209695505050505050565b600160fb55565b600083815261013b6020908152604091829020600201548251918201859052918101839052606001604051602081830303815290604052805190602001201461274057604051637afe112160e11b815260048101849052602401610b75565b68056bc75e2d6310000082111561277c57604051632dc71e8d60e01b81526004810184905268056bc75e2d631000006024820152604401610b75565b600083815261013b60205260409081902060038101849055600801805460ff60a81b1916600160a81b1790556101395461012e5491516315d1070b60e11b8152600481019290925260248201859052604482018490526001600160a01b031690632ba20e1690606401600060405180830381600087803b1580156127ff57600080fd5b505af11580156114d6573d6000803e3d6000fd5b600084815261013b60205260408120600401549003612848576040516311ebb27f60e11b815260048101859052602401610b75565b600084815261013b60205260409020600101546001600160a01b03848116911614612886576040516305732abb60e51b815260040160405180910390fd5b600084815261013b602052604090206008015460ff16156128ba5760405163041753a560e31b815260040160405180910390fd5b60005b825481101561298e576101365483546001600160a01b03909116906348717eb79086908690859081106128f2576128f261558b565b9060005260206000200160009054906101000a90046001600160a01b03168585815481106129225761292261558b565b90600052602060002001546040518463ffffffff1660e01b815260040161294b939291906155a1565b600060405180830381600087803b15801561296557600080fd5b505af1158015612979573d6000803e3d6000fd5b5050505080612987906155db565b90506128bd565b50600084815261013b602052604081208181556001810180546001600160a01b0319169055600281018290556003810182905560048101829055906129d66005830182614a98565b6006820180546001600160a01b03191690556129f6600783016000614a98565b5060080180546001600160b01b031916905561013c805460019190600090612a1f908490615604565b90915550506101395461012e546040516307fec0e360e01b81526001600160a01b03909216916307fec0e391612a62918890600401918252602082015260400190565b600060405180830381600087803b158015612a7c57600080fd5b505af1158015610a00573d6000803e3d6000fd5b609661013c5410612ab4576040516346f317d760e01b815260040160405180910390fd5b806101000151612add57805160405163103dad4560e11b81526004810191909152602401610b75565b6101325481608001511015612b0d57806080015160405163235c188560e01b8152600401610b7591815260200190565b8051600090815261013b602052604090206004015460c082015161013454911515916001600160a01b03908116911614612b5a5760405163ed82d81b60e01b815260040160405180910390fd5b8151600090815261013b602090815260409182902084518155818501516001820180546001600160a01b0319166001600160a01b03909216919091179055918401516002830155606084015160038301556080840151600483015560a08401518051859392612bd0926005850192910190614ab6565b5060c08201516006820180546001600160a01b0319166001600160a01b0390921691909117905560e08201518051612c12916007840191602090910190614b01565b50610100828101516008929092018054610120850151610140909501516001600160a81b0319909116931515610100600160a81b031916939093176001600160a01b039094169091029290921760ff60a81b1916600160a81b9115159190910217905580612c9457600161013c6000828254612c8e9190615b8a565b90915550505b6101395461012e5460405163050ecc8960e11b81526001600160a01b0390921691630a1d991291611e6c918690600090600401615b9d565b61013c54606090819083612ce0878a615b8a565b612cea9190615b8a565b14612d0f5761013c54604051633c123a1960e01b8152600401610b7591815260200190565b60005b85811015612e9357600061013b6000898985818110612d3357612d3361558b565b90506020020135815260200190815260200160002090508060040154600003612d8b57878783818110612d6857612d6861558b565b905060200201356040516311ebb27f60e11b8152600401610b7591815260200190565b600881015460ff16612dcc57878783818110612da957612da961558b565b9050602002013560405163103dad4560e11b8152600401610b7591815260200190565b60008160080160019054906101000a90046001600160a01b03169050806001600160a01b0316631320834f6040518163ffffffff1660e01b8152600401602060405180830381865afa158015612e26573d6000803e3d6000fd5b505050506040513d601f19601f82011682018060405250810190612e4a9190615b71565b421115612e61578154612e5c906135ee565b612e80565b8154604051631a034f1360e11b81526004810191909152602401610b75565b505080612e8c906155db565b9050612d12565b606060008080612ea48d8d8a613686565b929650909450925090506000612ebb8e8e86613ced565b90506000836001600160401b03811115612ed757612ed7614d65565b604051908082528060200260200182016040528015612f1057816020015b612efd614a3d565b815260200190600190039081612ef55790505b50905060008097505b8a88101561314557600061013b60008e8e8c818110612f3a57612f3a61558b565b90506020020135815260200190815260200160002090508060040154600003612f6f578c8c8a818110612d6857612d6861558b565b6008810154600160a81b900460ff1615612fb8578c8c8a818110612f9557612f9561558b565b9050602002013560405163b53dcb6360e01b8152600401610b7591815260200190565b60408051610160810182528254815260018301546001600160a01b031660208083019190915260028401548284015260038401546060830152600484015460808301526005840180548451818402810184019095528085529293859360a086019391929183018282801561304b57602002820191906000526020600020905b815481526020019060010190808311613037575b505050918352505060068201546001600160a01b031660208083019190915260078301805460408051828502810185018252828152940193928301828280156130bd57602002820191906000526020600020905b81546001600160a01b0316815260019091019060200180831161309f575b50505091835250506008919091015460ff808216151560208401526001600160a01b036101008304166040840152600160a81b90910416151560609091015283518490849081106131105761311061558b565b602002602001018190525081613125906155db565b915061313481600001546135ee565b5061313e886155db565b9750612f19565b600097505b838810156131a5578688815181106131645761316461558b565b602002602001015182828151811061317e5761317e61558b565b602002602001018190525080613193906155db565b905061319e886155db565b975061314a565b61013c54156131b6576131b6615bce565b50909e909d509b505050505050505050505050565b6131d5828261171b565b610e08576131e281613f33565b6131ed836020613f45565b6040516020016131fe929190615be4565b60408051601f198184030181529082905262461bcd60e51b8252610b7591600401615157565b600054610100900460ff166126da5760405162461bcd60e51b8152600401610b7590615b26565b61325481611d35565b6132b65760405162461bcd60e51b815260206004820152602d60248201527f455243313936373a206e657720696d706c656d656e746174696f6e206973206e60448201526c1bdd08184818dbdb9d1c9858dd609a1b6064820152608401610b75565b600080516020615e5383398151915280546001600160a01b0319166001600160a01b0392909216919091179055565b6132ee836140e0565b6000825111806132fb5750805b15610ad05761330a8383614120565b50505050565b60008083833060405160200161334a93929190928352606091821b6001600160601b03199081166020850152911b16603482015260480190565b60408051601f198184030181529181528151602092830120600081815261013b90935291206004015490915015611097576040516310f5216760e21b815260048101829052602401610b75565b61013854610134546040516303d3c9db60e21b815260009283926001600160a01b0391821692630f4f276c926133d39216908990600401615c53565b602060405180830381865afa1580156133f0573d6000803e3d6000fd5b505050506040513d601f19601f820116820180604052508101906134149190615c6c565b60408051602081019091526000808252919250905b85518110156135cc5760008682815181106134465761344661558b565b602090810291909101015161013654604051632a1e8cdb60e01b81529192506000916001600160a01b0390911690632a1e8cdb90613488908590600401614f80565b602060405180830381865afa1580156134a5573d6000803e3d6000fd5b505050506040513d601f19601f820116820180604052508101906134c99190615b71565b90508683815181106134dd576134dd61558b565b60200260200101516000036134f35750506135bc565b60006135aa61013860009054906101000a90046001600160a01b03166001600160a01b0316630f4f276c858b88815181106135305761353061558b565b60200260200101516040518363ffffffff1660e01b8152600401613555929190615c53565b602060405180830381865afa158015613572573d6000803e3d6000fd5b505050506040513d601f19601f820116820180604052508101906135969190615c6c565b604051806020016040528085815250614145565b90506135b68186614188565b94505050505b6135c5816155db565b9050613429565b508151815110156135e257600192505050611097565b50600095945050505050565b600081815261013b602052604081208181556001810180546001600160a01b0319169055600281018290556003810182905560048101829055906136356005830182614a98565b6006820180546001600160a01b0319169055613655600783016000614a98565b5060080180546001600160b01b031916905561013c80546001919060009061367e908490615604565b909155505050565b606060008080858582826001600160401b038111156136a7576136a7614d65565b6040519080825280602002602001820160405280156136e057816020015b6136cd614a3d565b8152602001906001900390816136c55790505b50905060008060005b8b811015613cd857600061013b60008f8f8581811061370a5761370a61558b565b9050602002013581526020019081526020016000209050806004015460000361373f578d8d83818110612d6857612d6861558b565b8060030154831115613764576040516370dcb33760e11b815260040160405180910390fd5b80600301549250600881015460ff16156139cc5760008160080160019054906101000a90046001600160a01b03169050806001600160a01b0316631320834f6040518163ffffffff1660e01b8152600401602060405180830381865afa1580156137d2573d6000803e3d6000fd5b505050506040513d601f19601f820116820180604052508101906137f69190615b71565b42111561381c57815460405163bcbe400960e01b81526004810191909152602401610b75565b61382682826141b4565b6139c657613833876155db565b60408051610160810182528454815260018501546001600160a01b03166020808301919091526002860154828401526003860154606083015260048601546080830152600586018054845181840281018401909552808552949b509193869360a086019390929091908301828280156138cb57602002820191906000526020600020905b8154815260200190600101908083116138b7575b505050918352505060068201546001600160a01b0316602080830191909152600783018054604080518285028101850182528281529401939283018282801561393d57602002820191906000526020600020905b81546001600160a01b0316815260019091019060200180831161391f575b50505091835250506008919091015460ff808216151560208401526001600160a01b036101008304166040840152600160a81b90910416151560609091015286518790879081106139905761399061558b565b6020026020010181905250846139a5906155db565b94506139b088615cad565b97506139bf82600001546135ee565b5050613cc8565b506139fe565b6008810154600160a81b900460ff166139fe5780546040516362d45c6f60e11b81526004810191909152602401610b75565b613ac08160040154826003015483600701805480602002602001604051908101604052809291908181526020018280548015613a6357602002820191906000526020600020905b81546001600160a01b03168152600190910190602001808311613a45575b505050505084600501805480602002602001604051908101604052809291908181526020018280548015613ab657602002820191906000526020600020905b815481526020019060010190808311613aa2575b5050505050614566565b15613cc6576101395461012e548254604051635bcf235d60e01b8152600481019290925260248201526001600160a01b0390911690635bcf235d90604401600060405180830381600087803b158015613b1857600080fd5b505af1158015613b2c573d6000803e3d6000fd5b5050505085613b3a906155db565b60408051610160810182528354815260018401546001600160a01b03166020808301919091526002850154828401526003850154606083015260048501546080830152600585018054845181840281018401909552808552949a509193859360a08601939092909190830182828015613bd257602002820191906000526020600020905b815481526020019060010190808311613bbe575b505050918352505060068201546001600160a01b03166020808301919091526007830180546040805182850281018501825282815294019392830182828015613c4457602002820191906000526020600020905b81546001600160a01b03168152600190910190602001808311613c26575b50505091835250506008919091015460ff808216151560208401526001600160a01b036101008304166040840152600160a81b9091041615156060909101528551869086908110613c9757613c9761558b565b602002602001018190525083613cac906155db565b9350613cb787615cad565b9650613cc681600001546135ee565b505b613cd1816155db565b90506136e9565b50919b939a5091985090965090945050505050565b60606000826001600160401b03811115613d0957613d09614d65565b604051908082528060200260200182016040528015613d4257816020015b613d2f614b56565b815260200190600190039081613d275790505b5090506000805b85811015613f2857600061013b6000898985818110613d6a57613d6a61558b565b90506020020135815260200190815260200160002090508060040154600003613d935750613f18565b60408051610160810182528254815260018301546001600160a01b03166020808301919091526002840154828401526003840154606083015260048401546080830152600584018054845181840281018401909552808552613ede94869360a0860193919290830182828015613e2857602002820191906000526020600020905b815481526020019060010190808311613e14575b505050918352505060068201546001600160a01b03166020808301919091526007830180546040805182850281018501825282815294019392830182828015613e9a57602002820191906000526020600020905b81546001600160a01b03168152600190910190602001808311613e7c575b50505091835250506008919091015460ff808216151560208401526001600160a01b036101008304166040840152600160a81b9091041615156060909101526147d7565b848481518110613ef057613ef061558b565b60200260200101819052508280613f06906155db565b935050613f1681600001546135ee565b505b613f21816155db565b9050613d49565b509095945050505050565b606061087f6001600160a01b03831660145b60606000613f54836002615617565b613f5f906002615b8a565b6001600160401b03811115613f7657613f76614d65565b6040519080825280601f01601f191660200182016040528015613fa0576020820181803683370190505b509050600360fc1b81600081518110613fbb57613fbb61558b565b60200101906001600160f81b031916908160001a905350600f60fb1b81600181518110613fea57613fea61558b565b60200101906001600160f81b031916908160001a905350600061400e846002615617565b614019906001615b8a565b90505b6001811115614091576f181899199a1a9b1b9c1cb0b131b232b360811b85600f166010811061404d5761404d61558b565b1a60f81b8282815181106140635761406361558b565b60200101906001600160f81b031916908160001a90535060049490941c9361408a81615cad565b905061401c565b5083156110975760405162461bcd60e51b815260206004820181905260248201527f537472696e67733a20686578206c656e67746820696e73756666696369656e746044820152606401610b75565b6140e98161324b565b6040516001600160a01b038216907fbc7cd75a20ee27fd9adebab32041f755214dbc6bffa90cc0225b39da2e5c2d3b90600090a250565b60606110978383604051806060016040528060278152602001615e7360279139614869565b604080516020810190915260008152604051806020016040528061417f6141788660000151670de0b6b3a76400006148e1565b85516148ed565b90529392505050565b604080516020810190915260008152604051806020016040528061417f856000015185600001516148f9565b6001820154604051632762697d60e01b815260009182916001600160a01b0385811692632762697d926141ed9290911690600401614f80565b602060405180830381865afa15801561420a573d6000803e3d6000fd5b505050506040513d601f19601f8201168201806040525081019061422e9190615b71565b90508060000361424257600091505061087f565b604080516020808201835261013354825282518082018085526101375463fa19d0ed60e01b90915293516000946142d3949383926001600160a01b039092169163fa19d0ed91602480860192908187030181865afa1580156142a8573d6000803e3d6000fd5b505050506040513d601f19601f820116820180604052508101906142cc9190615b71565b9052614905565b600001519050600061432c6143276040518060200160405280670de0b6b3a7640000876143009190615617565b905260408051602081019091528061432087670de0b6b3a7640000615604565b9052614145565b614944565b9050856004015481101561434257600486018190555b600081670de0b6b3a7640000886004015461435d9190615617565b614367919061562e565b90506000866001600160a01b0316633de81dc46040518163ffffffff1660e01b8152600401602060405180830381865afa1580156143a9573d6000803e3d6000fd5b505050506040513d601f19601f820116820180604052508101906143cd9190615cc4565b6001890154604051636f3fc39760e11b815291925060009182916001600160a01b038086169263de7f872e92614407921690600401614f80565b600060405180830381865afa158015614424573d6000803e3d6000fd5b505050506040513d6000823e601f3d908101601f1916820160405261444c9190810190615d3c565b90925090506000805b83518110156144ea5761448f6040518060200160405280888152508483815181106144825761448261558b565b602002602001015161495c565b91508b60050181815481106144a6576144a661558b565b906000526020600020015482146144da57818c60050182815481106144cd576144cd61558b565b6000918252602090912001555b6144e3816155db565b9050614455565b506101395461012e5460405163050ecc8960e11b81526001600160a01b0390921691630a1d991291614523918f90600090600401615905565b600060405180830381600087803b15801561453d57600080fd5b505af1158015614551573d6000803e3d6000fd5b5060019e9d5050505050505050505050505050565b600080846000036145785750846145f5565b60006145c26040518060200160405280670de0b6b3a76400008152506145bd60405180602001604052806101335481525060405180602001604052808b815250614905565b614188565b90506145f16143276040518060200160405280670de0b6b3a76400008b6145e99190615617565b905283614905565b9150505b61013854610134546040516303d3c9db60e21b81526000926001600160a01b0390811692630f4f276c9261463192909116908690600401615c53565b602060405180830381865afa15801561464e573d6000803e3d6000fd5b505050506040513d601f19601f820116820180604052508101906146729190615c6c565b60408051602081019091526000808252919250905b86518110156147b05760008782815181106146a4576146a461558b565b6020908102919091010151610136546040516320db25d560e01b81529192506000916001600160a01b03909116906320db25d5906146e6908590600401614f80565b602060405180830381865afa158015614703573d6000803e3d6000fd5b505050506040513d601f19601f820116820180604052508101906147279190615b71565b905087838151811061473b5761473b61558b565b60200260200101516000036147515750506147a0565b600061478e61013860009054906101000a90046001600160a01b03166001600160a01b0316630f4f276c858c88815181106135305761353061558b565b905061479a8186614188565b94505050505b6147a9816155db565b9050614687565b508151815110156147c757600193505050506147cf565b600093505050505b949350505050565b6147df614b56565b6040518061012001604052808360000151815260200183602001516001600160a01b0316815260200183606001518152602001836080015181526020018360a0015181526020018360c001516001600160a01b031681526020018360e001518152602001836101000151151581526020018361012001516001600160a01b03168152509050919050565b6060600080856001600160a01b0316856040516148869190615e00565b600060405180830381855af49150503d80600081146148c1576040519150601f19603f3d011682016040523d82523d6000602084013e6148c6565b606091505b50915091506148d786838387614974565b9695505050505050565b60006110978284615617565b6000611097828461562e565b60006110978284615b8a565b6040805160208101909152600081526040518060200160405280670de0b6b3a764000061493a866000015186600001516148e1565b61417f919061562e565b805160009061087f90670de0b6b3a76400009061562e565b60008061496984846149eb565b90506147cf81614944565b606083156149e15782516000036149da5761498e85611d35565b6149da5760405162461bcd60e51b815260206004820152601d60248201527f416464726573733a2063616c6c20746f206e6f6e2d636f6e74726163740000006044820152606401610b75565b50816147cf565b6147cf8383614a13565b604080516020810190915260008152604051806020016040528061417f8560000151856148e1565b815115614a235781518083602001fd5b8060405162461bcd60e51b8152600401610b759190615157565b604080516101608101825260008082526020820181905291810182905260608082018390526080820183905260a0820181905260c0820183905260e08201526101008101829052610120810182905261014081019190915290565b5080546000825590600052602060002090810190610ed19190614ba1565b828054828255906000526020600020908101928215614af1579160200282015b82811115614af1578251825591602001919060010190614ad6565b50614afd929150614ba1565b5090565b828054828255906000526020600020908101928215614af1579160200282015b82811115614af157825182546001600160a01b0319166001600160a01b03909116178255602090920191600190910190614b21565b604080516101208101825260008082526020820181905291810182905260608082018390526080820181905260a0820183905260c082015260e0810182905261010081019190915290565b5b80821115614afd5760008155600101614ba2565b600060208284031215614bc857600080fd5b81356001600160e01b03198116811461109757600080fd5b6001600160a01b0381168114610ed157600080fd5b8035614c0081614be0565b919050565b60008083601f840112614c1757600080fd5b5081356001600160401b03811115614c2e57600080fd5b6020830191508360208260051b8501011115614c4957600080fd5b9250929050565b60008060008060008060808789031215614c6957600080fd5b863595506020870135614c7b81614be0565b945060408701356001600160401b0380821115614c9757600080fd5b614ca38a838b01614c05565b90965094506060890135915080821115614cbc57600080fd5b50614cc989828a01614c05565b979a9699509497509295939492505050565b600060208284031215614ced57600080fd5b5035919050565b60008060408385031215614d0757600080fd5b823591506020830135614d1981614be0565b809150509250929050565b60008083601f840112614d3657600080fd5b5081356001600160401b03811115614d4d57600080fd5b602083019150836020828501011115614c4957600080fd5b634e487b7160e01b600052604160045260246000fd5b60405160e081016001600160401b0381118282101715614d9d57614d9d614d65565b60405290565b60405161016081016001600160401b0381118282101715614d9d57614d9d614d65565b604051601f8201601f191681016001600160401b0381118282101715614dee57614dee614d65565b604052919050565b60006001600160401b03821115614e0f57614e0f614d65565b5060051b60200190565b600082601f830112614e2a57600080fd5b81356020614e3f614e3a83614df6565b614dc6565b82815260059290921b84018101918181019086841115614e5e57600080fd5b8286015b84811015614e82578035614e7581614be0565b8352918301918301614e62565b509695505050505050565b6000806000806000806000806000806000806101408d8f031215614eb057600080fd5b6001600160401b038d351115614ec557600080fd5b614ed28e8e358f01614d24565b909c509a506001600160401b0360208e01351115614eef57600080fd5b614eff8e60208f01358f01614d24565b909a50985060408d0135975060608d0135965060808d0135955060a08d0135945060c08d01359350614f3360e08e01614bf5565b92506001600160401b036101008e01351115614f4e57600080fd5b614f5f8e6101008f01358f01614e19565b9150614f6e6101208e01614bf5565b90509295989b509295989b509295989b565b6001600160a01b0391909116815260200190565b600060208284031215614fa657600080fd5b813561109781614be0565b600080600060408486031215614fc657600080fd5b83356001600160401b03811115614fdc57600080fd5b614fe886828701614c05565b9094509250506020840135614ffc81614be0565b809150509250925092565b6020808252825182820181905260009190848201906040850190845b8181101561503f57835183529284019291840191600101615023565b50909695505050505050565b6000806020838503121561505e57600080fd5b82356001600160401b0381111561507457600080fd5b61508085828601614c05565b90969095509350505050565b6000806040838503121561509f57600080fd5b82356150aa81614be0565b91506020838101356001600160401b03808211156150c757600080fd5b818601915086601f8301126150db57600080fd5b8135818111156150ed576150ed614d65565b6150ff601f8201601f19168501614dc6565b9150808252878482850101111561511557600080fd5b80848401858401376000848284010152508093505050509250929050565b60005b8381101561514e578181015183820152602001615136565b50506000910152565b6020815260008251806020840152615176816040850160208701615133565b601f01601f19169190910160400192915050565b600080600080600080606087890312156151a357600080fd5b86356001600160401b03808211156151ba57600080fd5b6151c68a838b01614c05565b909850965060208901359150808211156151df57600080fd5b6151eb8a838b01614c05565b90965094506040890135915080821115614cbc57600080fd5b6001600160a01b03169052565b600081518084526020808501945080840160005b8381101561524157815187529582019590820190600101615225565b509495945050505050565b600081518084526020808501945080840160005b838110156152415781516001600160a01b031687529582019590820190600101615260565b60006101608251845260208301516152a06020860182615204565b5060408301516040850152606083015160608501526080830151608085015260a08301518160a08601526152d682860182615211565b91505060c08301516152eb60c0860182615204565b5060e083015184820360e0860152615303828261524c565b9150506101008084015161531a8287018215159052565b50506101208084015161532f82870182615204565b50506101409283015115159390920192909252919050565b6020815260006110976020830184615285565b600080600080600080600060e0888a03121561537557600080fd5b873561538081614be0565b9650602088013561539081614be0565b955060408801356153a081614be0565b945060608801356153b081614be0565b935060808801356153c081614be0565b925060a08801356153d081614be0565b915060c08801356153e081614be0565b8091505092959891949750929550565b60006020828403121561540257600080fd5b81356001600160401b0381111561541857600080fd5b8201610160818503121561109757600080fd5b600081518084526020808501808196508360051b8101915082860160005b85811015615473578284038952615461848351615285565b98850198935090840190600101615449565b5091979650505050505050565b60006040808301818452808651808352606092508286019150828160051b8701016020808a0160005b8481101561556b57605f198a8503018652815161012081518652848201516154d386880182615204565b50898201518a870152888201518987015260808083015182828901526154fb83890182615211565b9250505060a08083015161551182890182615204565b505060c0808301518783038289015261552a838261524c565b9250505060e0808301516155418289018215159052565b5050610100918201519161555787820184615204565b5096840196945050908201906001016154a9565b50508782039088015261557e818961542b565b9998505050505050505050565b634e487b7160e01b600052603260045260246000fd5b6001600160a01b039384168152919092166020820152604081019190915260600190565b634e487b7160e01b600052601160045260246000fd5b6000600182016155ed576155ed6155c5565b5060010190565b8183823760009101908152919050565b8181038181111561087f5761087f6155c5565b808202811582820484141761087f5761087f6155c5565b60008261564b57634e487b7160e01b600052601260045260246000fd5b500490565b600060ff821660ff8103615666576156666155c5565b60010192915050565b6020808252602c908201527f46756e6374696f6e206d7573742062652063616c6c6564207468726f7567682060408201526b19195b1959d85d1958d85b1b60a21b606082015260800190565b6020808252602c908201527f46756e6374696f6e206d7573742062652063616c6c6564207468726f7567682060408201526b6163746976652070726f787960a01b606082015260800190565b6000823560de1983360301811261571d57600080fd5b9190910192915050565b600082601f83011261573857600080fd5b81356020615748614e3a83614df6565b82815260059290921b8401810191818101908684111561576757600080fd5b8286015b84811015614e82578035835291830191830161576b565b600082601f83011261579357600080fd5b813560206157a3614e3a83614df6565b82815260059290921b840181019181810190868411156157c257600080fd5b8286015b84811015614e825780356157d981614be0565b83529183019183016157c6565b600060e082360312156157f857600080fd5b615800614d7b565b8235815261581060208401614bf5565b6020820152604083013560408201526060830135606082015260808301356001600160401b038082111561584357600080fd5b61584f36838701615727565b608084015261586060a08601614bf5565b60a084015260c085013591508082111561587957600080fd5b5061588636828601615782565b60c08301525092915050565b6000815480845260208085019450836000528060002060005b83811015615241578154875295820195600191820191016158ab565b6000815480845260208085019450836000528060002060005b838110156152415781546001600160a01b0316875295820195600191820191016158e0565b8381526060602082015282546060820152600061592c60018501546001600160a01b031690565b6159396080840182615204565b50600284015460a0830152600384015460c0830152600484015460e0830152610160806101008401526159736101c0840160058701615892565b60068601546001600160a01b031661598f610120860182615204565b50838103605f19016101408501526159aa81600788016158c7565b905060088601546159c183860160ff831615159052565b6159dc6101808601600883901c6001600160a01b0316615204565b6159f16101a0860160ff8360a81c1615159052565b5091506147cf90506040830184615204565b8015158114610ed157600080fd5b600060208284031215615a2357600080fd5b815161109781615a03565b8035614c0081615a03565b60006101608236031215615a4c57600080fd5b615a54614da3565b82358152615a6460208401614bf5565b602082015260408301356040820152606083013560608201526080830135608082015260a08301356001600160401b0380821115615aa157600080fd5b615aad36838701615727565b60a0840152615abe60c08601614bf5565b60c084015260e0850135915080821115615ad757600080fd5b50615ae436828601615782565b60e083015250610100615af8818501615a2e565b90820152610120615b0a848201614bf5565b90820152610140615b1c848201615a2e565b9082015292915050565b6020808252602b908201527f496e697469616c697a61626c653a20636f6e7472616374206973206e6f74206960408201526a6e697469616c697a696e6760a81b606082015260800190565b600060208284031215615b8357600080fd5b5051919050565b8082018082111561087f5761087f6155c5565b838152606060208201526000615bb66060830185615285565b905060018060a01b0383166040830152949350505050565b634e487b7160e01b600052600160045260246000fd5b76020b1b1b2b9b9a1b7b73a3937b61d1030b1b1b7bab73a1604d1b815260008351615c16816017850160208801615133565b7001034b99036b4b9b9b4b733903937b6329607d1b6017918401918201528351615c47816028840160208801615133565b01602801949350505050565b6001600160a01b03929092168252602082015260400190565b600060208284031215615c7e57600080fd5b604051602081018181106001600160401b0382111715615ca057615ca0614d65565b6040529151825250919050565b600081615cbc57615cbc6155c5565b506000190190565b600060208284031215615cd657600080fd5b815161109781614be0565b600082601f830112615cf257600080fd5b81516020615d02614e3a83614df6565b82815260059290921b84018101918181019086841115615d2157600080fd5b8286015b84811015614e825780518352918301918301615d25565b60008060408385031215615d4f57600080fd5b82516001600160401b0380821115615d6657600080fd5b818501915085601f830112615d7a57600080fd5b81516020615d8a614e3a83614df6565b82815260059290921b84018101918181019089841115615da957600080fd5b948201945b83861015615dd0578551615dc181614be0565b82529482019490820190615dae565b91880151919650909350505080821115615de957600080fd5b50615df685828601615ce1565b9150509250929050565b6000825161571d81846020870161513356fe793a6c9b7e0a9549c74edc2f9ae0dc50903dfaa9a56fb0116b27a8c71de3e2c630d41a597cac127d8249d31298b50e481ee82c3f4a49ff93c76a22735aa9f3ad360894a13ba1a3210667c828492db98dca3e2076cc3735a920a3ca505d382bbc416464726573733a206c6f772d6c6576656c2064656c65676174652063616c6c206661696c65646e3cc031d23d7153f72e87cbfd113a0351c60d8ce52b8a31c944d543a384b7c9a49807205ce4d355092ef5a8a18f56e8913cf4a201fbe287825b095693c21775c1df76f4e50bdb95676f782d4b88b23904c5346d8bc7c986ae26f7e10e601891a2646970667358221220d54c013365b0c205f438df5023702ae816f33ec8a1e58917e113330f3051f54564736f6c63430008120033",
  "linkReferences": {},
  "deployedLinkReferences": {}
}