{
  "_format": "hh-sol-artifact-1",
  "contractName": "TermAuctionBidLocker",
  "sourceName": "contracts/TermAuctionBidLocker.sol",
  "abi": [
    {
      "inputs": [],
      "stateMutability": "nonpayable",
      "type": "constructor"
    },
    {
      "inputs": [],
      "name": "AlreadyTermContractPaired",
      "type": "error"
    },
    {
      "inputs": [],
      "name": "AuctionNotClosed",
      "type": "error"
    },
    {
      "inputs": [],
      "name": "AuctionNotOpen",
      "type": "error"
    },
    {
      "inputs": [],
      "name": "AuctionNotRevealing",
      "type": "error"
    },
    {
      "inputs": [
        {
          "internalType": "uint256",
          "name": "reveal",
          "type": "uint256"
        },
        {
          "internalType": "uint256",
          "name": "end",
          "type": "uint256"
        }
      ],
      "name": "AuctionRevealsAfterEnd",
      "type": "error"
    },
    {
      "inputs": [
        {
          "internalType": "uint256",
          "name": "start",
          "type": "uint256"
        },
        {
          "internalType": "uint256",
          "name": "reveal",
          "type": "uint256"
        }
      ],
      "name": "AuctionStartsAfterReveal",
      "type": "error"
    },
    {
      "inputs": [],
      "name": "BidAlreadyRevealed",
      "type": "error"
    },
    {
      "inputs": [
        {
          "internalType": "uint256",
          "name": "amount",
          "type": "uint256"
        }
      ],
      "name": "BidAmountTooLow",
      "type": "error"
    },
    {
      "inputs": [
        {
          "internalType": "uint256",
          "name": "bidCount",
          "type": "uint256"
        }
      ],
      "name": "BidCountIncorrect",
      "type": "error"
    },
    {
      "inputs": [],
      "name": "BidNotOwned",
      "type": "error"
    },
    {
      "inputs": [
        {
          "internalType": "bytes32",
          "name": "bidId",
          "type": "bytes32"
        }
      ],
      "name": "BidNotRevealed",
      "type": "error"
    },
    {
      "inputs": [
        {
          "internalType": "bytes32",
          "name": "id",
          "type": "bytes32"
        }
      ],
      "name": "BidPriceModified",
      "type": "error"
    },
    {
      "inputs": [
        {
          "internalType": "bytes32",
          "name": "bidId",
          "type": "bytes32"
        }
      ],
      "name": "BidRevealed",
      "type": "error"
    },
    {
      "inputs": [],
      "name": "CollateralAmountTooLow",
      "type": "error"
    },
    {
      "inputs": [
        {
          "internalType": "address",
          "name": "token",
          "type": "address"
        }
      ],
      "name": "CollateralTokenNotApproved",
      "type": "error"
    },
    {
      "inputs": [
        {
          "internalType": "bytes32",
          "name": "bidId",
          "type": "bytes32"
        }
      ],
      "name": "GeneratingExistingBid",
      "type": "error"
    },
    {
      "inputs": [],
      "name": "InvalidPurchaseToken",
      "type": "error"
    },
    {
      "inputs": [],
      "name": "InvalidSelfReferral",
      "type": "error"
    },
    {
      "inputs": [],
      "name": "InvalidTermRepoServicer",
      "type": "error"
    },
    {
      "inputs": [],
      "name": "LockingPaused",
      "type": "error"
    },
    {
      "inputs": [],
      "name": "MaxBidCountReached",
      "type": "error"
    },
    {
      "inputs": [],
      "name": "NoCollateralToUnlock",
      "type": "error"
    },
    {
      "inputs": [
        {
          "internalType": "bytes32",
          "name": "bidId",
          "type": "bytes32"
        }
      ],
      "name": "NonExistentBid",
      "type": "error"
    },
    {
      "inputs": [
        {
          "internalType": "bytes32",
          "name": "bidId",
          "type": "bytes32"
        }
      ],
      "name": "NonExpiredRolloverBid",
      "type": "error"
    },
    {
      "inputs": [
        {
          "internalType": "bytes32",
          "name": "id",
          "type": "bytes32"
        }
      ],
      "name": "NonRolloverBid",
      "type": "error"
    },
    {
      "inputs": [
        {
          "internalType": "address",
          "name": "token",
          "type": "address"
        }
      ],
      "name": "PurchaseTokenNotApproved",
      "type": "error"
    },
    {
      "inputs": [],
      "name": "RevealedBidsNotSorted",
      "type": "error"
    },
    {
      "inputs": [],
      "name": "RolloverBid",
      "type": "error"
    },
    {
      "inputs": [
        {
          "internalType": "bytes32",
          "name": "bidId",
          "type": "bytes32"
        }
      ],
      "name": "RolloverBidExpired",
      "type": "error"
    },
    {
      "inputs": [],
      "name": "RolloverBidInShortfall",
      "type": "error"
    },
    {
      "inputs": [
        {
          "internalType": "bytes32",
          "name": "id",
          "type": "bytes32"
        },
        {
          "internalType": "uint256",
          "name": "maxPrice",
          "type": "uint256"
        }
      ],
      "name": "TenderPriceTooHigh",
      "type": "error"
    },
    {
      "inputs": [],
      "name": "UnlockingPaused",
      "type": "error"
    },
    {
      "anonymous": false,
      "inputs": [
        {
          "indexed": false,
          "internalType": "address",
          "name": "previousAdmin",
          "type": "address"
        },
        {
          "indexed": false,
          "internalType": "address",
          "name": "newAdmin",
          "type": "address"
        }
      ],
      "name": "AdminChanged",
      "type": "event"
    },
    {
      "anonymous": false,
      "inputs": [
        {
          "indexed": true,
          "internalType": "address",
          "name": "beacon",
          "type": "address"
        }
      ],
      "name": "BeaconUpgraded",
      "type": "event"
    },
    {
      "anonymous": false,
      "inputs": [
        {
          "indexed": false,
          "internalType": "uint8",
          "name": "version",
          "type": "uint8"
        }
      ],
      "name": "Initialized",
      "type": "event"
    },
    {
      "anonymous": false,
      "inputs": [
        {
          "indexed": true,
          "internalType": "bytes32",
          "name": "role",
          "type": "bytes32"
        },
        {
          "indexed": true,
          "internalType": "bytes32",
          "name": "previousAdminRole",
          "type": "bytes32"
        },
        {
          "indexed": true,
          "internalType": "bytes32",
          "name": "newAdminRole",
          "type": "bytes32"
        }
      ],
      "name": "RoleAdminChanged",
      "type": "event"
    },
    {
      "anonymous": false,
      "inputs": [
        {
          "indexed": true,
          "internalType": "bytes32",
          "name": "role",
          "type": "bytes32"
        },
        {
          "indexed": true,
          "internalType": "address",
          "name": "account",
          "type": "address"
        },
        {
          "indexed": true,
          "internalType": "address",
          "name": "sender",
          "type": "address"
        }
      ],
      "name": "RoleGranted",
      "type": "event"
    },
    {
      "anonymous": false,
      "inputs": [
        {
          "indexed": true,
          "internalType": "bytes32",
          "name": "role",
          "type": "bytes32"
        },
        {
          "indexed": true,
          "internalType": "address",
          "name": "account",
          "type": "address"
        },
        {
          "indexed": true,
          "internalType": "address",
          "name": "sender",
          "type": "address"
        }
      ],
      "name": "RoleRevoked",
      "type": "event"
    },
    {
      "anonymous": false,
      "inputs": [
        {
          "indexed": true,
          "internalType": "address",
          "name": "implementation",
          "type": "address"
        }
      ],
      "name": "Upgraded",
      "type": "event"
    },
    {
      "inputs": [],
      "name": "ADMIN_ROLE",
      "outputs": [
        {
          "internalType": "bytes32",
          "name": "",
          "type": "bytes32"
        }
      ],
      "stateMutability": "view",
      "type": "function"
    },
    {
      "inputs": [],
      "name": "AUCTIONEER_ROLE",
      "outputs": [
        {
          "internalType": "bytes32",
          "name": "",
          "type": "bytes32"
        }
      ],
      "stateMutability": "view",
      "type": "function"
    },
    {
      "inputs": [],
      "name": "DEFAULT_ADMIN_ROLE",
      "outputs": [
        {
          "internalType": "bytes32",
          "name": "",
          "type": "bytes32"
        }
      ],
      "stateMutability": "view",
      "type": "function"
    },
    {
      "inputs": [],
      "name": "DEVOPS_ROLE",
      "outputs": [
        {
          "internalType": "bytes32",
          "name": "",
          "type": "bytes32"
        }
      ],
      "stateMutability": "view",
      "type": "function"
    },
    {
      "inputs": [],
      "name": "INITIALIZER_ROLE",
      "outputs": [
        {
          "internalType": "bytes32",
          "name": "",
          "type": "bytes32"
        }
      ],
      "stateMutability": "view",
      "type": "function"
    },
    {
      "inputs": [],
      "name": "MAX_BID_COUNT",
      "outputs": [
        {
          "internalType": "uint256",
          "name": "",
          "type": "uint256"
        }
      ],
      "stateMutability": "view",
      "type": "function"
    },
    {
      "inputs": [],
      "name": "MAX_BID_PRICE",
      "outputs": [
        {
          "internalType": "uint256",
          "name": "",
          "type": "uint256"
        }
      ],
      "stateMutability": "view",
      "type": "function"
    },
    {
      "inputs": [],
      "name": "ROLLOVER_MANAGER",
      "outputs": [
        {
          "internalType": "bytes32",
          "name": "",
          "type": "bytes32"
        }
      ],
      "stateMutability": "view",
      "type": "function"
    },
    {
      "inputs": [],
      "name": "THREESIXTY_DAYCOUNT_SECONDS",
      "outputs": [
        {
          "internalType": "uint256",
          "name": "",
          "type": "uint256"
        }
      ],
      "stateMutability": "view",
      "type": "function"
    },
    {
      "inputs": [],
      "name": "auctionEndTime",
      "outputs": [
        {
          "internalType": "uint256",
          "name": "",
          "type": "uint256"
        }
      ],
      "stateMutability": "view",
      "type": "function"
    },
    {
      "inputs": [],
      "name": "auctionStartTime",
      "outputs": [
        {
          "internalType": "uint256",
          "name": "",
          "type": "uint256"
        }
      ],
      "stateMutability": "view",
      "type": "function"
    },
    {
      "inputs": [
        {
          "internalType": "bytes32",
          "name": "id",
          "type": "bytes32"
        },
        {
          "internalType": "address",
          "name": "bidder",
          "type": "address"
        },
        {
          "internalType": "address[]",
          "name": "bidCollateralTokens",
          "type": "address[]"
        },
        {
          "internalType": "uint256[]",
          "name": "amounts",
          "type": "uint256[]"
        }
      ],
      "name": "auctionUnlockBid",
      "outputs": [],
      "stateMutability": "nonpayable",
      "type": "function"
    },
    {
      "inputs": [],
      "name": "bidCount",
      "outputs": [
        {
          "internalType": "uint256",
          "name": "",
          "type": "uint256"
        }
      ],
      "stateMutability": "view",
      "type": "function"
    },
    {
      "inputs": [
        {
          "internalType": "contract IERC20Upgradeable",
          "name": "",
          "type": "address"
        }
      ],
      "name": "collateralTokens",
      "outputs": [
        {
          "internalType": "bool",
          "name": "",
          "type": "bool"
        }
      ],
      "stateMutability": "view",
      "type": "function"
    },
    {
      "inputs": [],
      "name": "dayCountFractionMantissa",
      "outputs": [
        {
          "internalType": "uint256",
          "name": "",
          "type": "uint256"
        }
      ],
      "stateMutability": "view",
      "type": "function"
    },
    {
      "inputs": [
        {
          "internalType": "bytes32[]",
          "name": "revealedBids",
          "type": "bytes32[]"
        },
        {
          "internalType": "bytes32[]",
          "name": "expiredRolloverBids",
          "type": "bytes32[]"
        },
        {
          "internalType": "bytes32[]",
          "name": "unrevealedBids",
          "type": "bytes32[]"
        }
      ],
      "name": "getAllBids",
      "outputs": [
        {
          "components": [
            {
              "internalType": "bytes32",
              "name": "id",
              "type": "bytes32"
            },
            {
              "internalType": "address",
              "name": "bidder",
              "type": "address"
            },
            {
              "internalType": "uint256",
              "name": "bidPriceRevealed",
              "type": "uint256"
            },
            {
              "internalType": "uint256",
              "name": "amount",
              "type": "uint256"
            },
            {
              "internalType": "uint256[]",
              "name": "collateralAmounts",
              "type": "uint256[]"
            },
            {
              "internalType": "address",
              "name": "purchaseToken",
              "type": "address"
            },
            {
              "internalType": "address[]",
              "name": "collateralTokens",
              "type": "address[]"
            },
            {
              "internalType": "bool",
              "name": "isRollover",
              "type": "bool"
            },
            {
              "internalType": "address",
              "name": "rolloverPairOffTermRepoServicer",
              "type": "address"
            }
          ],
          "internalType": "struct TermAuctionRevealedBid[]",
          "name": "",
          "type": "tuple[]"
        },
        {
          "components": [
            {
              "internalType": "bytes32",
              "name": "id",
              "type": "bytes32"
            },
            {
              "internalType": "address",
              "name": "bidder",
              "type": "address"
            },
            {
              "internalType": "bytes32",
              "name": "bidPriceHash",
              "type": "bytes32"
            },
            {
              "internalType": "uint256",
              "name": "bidPriceRevealed",
              "type": "uint256"
            },
            {
              "internalType": "uint256",
              "name": "amount",
              "type": "uint256"
            },
            {
              "internalType": "uint256[]",
              "name": "collateralAmounts",
              "type": "uint256[]"
            },
            {
              "internalType": "address",
              "name": "purchaseToken",
              "type": "address"
            },
            {
              "internalType": "address[]",
              "name": "collateralTokens",
              "type": "address[]"
            },
            {
              "internalType": "bool",
              "name": "isRollover",
              "type": "bool"
            },
            {
              "internalType": "address",
              "name": "rolloverPairOffTermRepoServicer",
              "type": "address"
            },
            {
              "internalType": "bool",
              "name": "isRevealed",
              "type": "bool"
            }
          ],
          "internalType": "struct TermAuctionBid[]",
          "name": "",
          "type": "tuple[]"
        }
      ],
      "stateMutability": "nonpayable",
      "type": "function"
    },
    {
      "inputs": [
        {
          "internalType": "bytes32",
          "name": "role",
          "type": "bytes32"
        }
      ],
      "name": "getRoleAdmin",
      "outputs": [
        {
          "internalType": "bytes32",
          "name": "",
          "type": "bytes32"
        }
      ],
      "stateMutability": "view",
      "type": "function"
    },
    {
      "inputs": [
        {
          "internalType": "bytes32",
          "name": "role",
          "type": "bytes32"
        },
        {
          "internalType": "address",
          "name": "account",
          "type": "address"
        }
      ],
      "name": "grantRole",
      "outputs": [],
      "stateMutability": "nonpayable",
      "type": "function"
    },
    {
      "inputs": [
        {
          "internalType": "bytes32",
          "name": "role",
          "type": "bytes32"
        },
        {
          "internalType": "address",
          "name": "account",
          "type": "address"
        }
      ],
      "name": "hasRole",
      "outputs": [
        {
          "internalType": "bool",
          "name": "",
          "type": "bool"
        }
      ],
      "stateMutability": "view",
      "type": "function"
    },
    {
      "inputs": [
        {
          "internalType": "string",
          "name": "termRepoId_",
          "type": "string"
        },
        {
          "internalType": "string",
          "name": "auctionId_",
          "type": "string"
        },
        {
          "internalType": "uint256",
          "name": "auctionStartTime_",
          "type": "uint256"
        },
        {
          "internalType": "uint256",
          "name": "revealTime_",
          "type": "uint256"
        },
        {
          "internalType": "uint256",
          "name": "auctionEndTime_",
          "type": "uint256"
        },
        {
          "internalType": "uint256",
          "name": "redemptionTimestamp_",
          "type": "uint256"
        },
        {
          "internalType": "uint256",
          "name": "minimumTenderAmount_",
          "type": "uint256"
        },
        {
          "internalType": "address",
          "name": "purchaseToken_",
          "type": "address"
        },
        {
          "internalType": "contract IERC20Upgradeable[]",
          "name": "collateralTokens_",
          "type": "address[]"
        },
        {
          "internalType": "address",
          "name": "termInitializer_",
          "type": "address"
        }
      ],
      "name": "initialize",
      "outputs": [],
      "stateMutability": "nonpayable",
      "type": "function"
    },
    {
      "inputs": [
        {
          "components": [
            {
              "internalType": "bytes32",
              "name": "id",
              "type": "bytes32"
            },
            {
              "internalType": "address",
              "name": "bidder",
              "type": "address"
            },
            {
              "internalType": "bytes32",
              "name": "bidPriceHash",
              "type": "bytes32"
            },
            {
              "internalType": "uint256",
              "name": "amount",
              "type": "uint256"
            },
            {
              "internalType": "uint256[]",
              "name": "collateralAmounts",
              "type": "uint256[]"
            },
            {
              "internalType": "address",
              "name": "purchaseToken",
              "type": "address"
            },
            {
              "internalType": "address[]",
              "name": "collateralTokens",
              "type": "address[]"
            }
          ],
          "internalType": "struct TermAuctionBidSubmission[]",
          "name": "bidSubmissions",
          "type": "tuple[]"
        }
      ],
      "name": "lockBids",
      "outputs": [
        {
          "internalType": "bytes32[]",
          "name": "",
          "type": "bytes32[]"
        }
      ],
      "stateMutability": "nonpayable",
      "type": "function"
    },
    {
      "inputs": [
        {
          "components": [
            {
              "internalType": "bytes32",
              "name": "id",
              "type": "bytes32"
            },
            {
              "internalType": "address",
              "name": "bidder",
              "type": "address"
            },
            {
              "internalType": "bytes32",
              "name": "bidPriceHash",
              "type": "bytes32"
            },
            {
              "internalType": "uint256",
              "name": "amount",
              "type": "uint256"
            },
            {
              "internalType": "uint256[]",
              "name": "collateralAmounts",
              "type": "uint256[]"
            },
            {
              "internalType": "address",
              "name": "purchaseToken",
              "type": "address"
            },
            {
              "internalType": "address[]",
              "name": "collateralTokens",
              "type": "address[]"
            }
          ],
          "internalType": "struct TermAuctionBidSubmission[]",
          "name": "bidSubmissions",
          "type": "tuple[]"
        },
        {
          "internalType": "address",
          "name": "referralAddress",
          "type": "address"
        }
      ],
      "name": "lockBidsWithReferral",
      "outputs": [
        {
          "internalType": "bytes32[]",
          "name": "",
          "type": "bytes32[]"
        }
      ],
      "stateMutability": "nonpayable",
      "type": "function"
    },
    {
      "inputs": [
        {
          "components": [
            {
              "internalType": "bytes32",
              "name": "id",
              "type": "bytes32"
            },
            {
              "internalType": "address",
              "name": "bidder",
              "type": "address"
            },
            {
              "internalType": "bytes32",
              "name": "bidPriceHash",
              "type": "bytes32"
            },
            {
              "internalType": "uint256",
              "name": "bidPriceRevealed",
              "type": "uint256"
            },
            {
              "internalType": "uint256",
              "name": "amount",
              "type": "uint256"
            },
            {
              "internalType": "uint256[]",
              "name": "collateralAmounts",
              "type": "uint256[]"
            },
            {
              "internalType": "address",
              "name": "purchaseToken",
              "type": "address"
            },
            {
              "internalType": "address[]",
              "name": "collateralTokens",
              "type": "address[]"
            },
            {
              "internalType": "bool",
              "name": "isRollover",
              "type": "bool"
            },
            {
              "internalType": "address",
              "name": "rolloverPairOffTermRepoServicer",
              "type": "address"
            },
            {
              "internalType": "bool",
              "name": "isRevealed",
              "type": "bool"
            }
          ],
          "internalType": "struct TermAuctionBid",
          "name": "bid",
          "type": "tuple"
        }
      ],
      "name": "lockRolloverBid",
      "outputs": [],
      "stateMutability": "nonpayable",
      "type": "function"
    },
    {
      "inputs": [
        {
          "internalType": "bytes32",
          "name": "id",
          "type": "bytes32"
        }
      ],
      "name": "lockedBid",
      "outputs": [
        {
          "components": [
            {
              "internalType": "bytes32",
              "name": "id",
              "type": "bytes32"
            },
            {
              "internalType": "address",
              "name": "bidder",
              "type": "address"
            },
            {
              "internalType": "bytes32",
              "name": "bidPriceHash",
              "type": "bytes32"
            },
            {
              "internalType": "uint256",
              "name": "bidPriceRevealed",
              "type": "uint256"
            },
            {
              "internalType": "uint256",
              "name": "amount",
              "type": "uint256"
            },
            {
              "internalType": "uint256[]",
              "name": "collateralAmounts",
              "type": "uint256[]"
            },
            {
              "internalType": "address",
              "name": "purchaseToken",
              "type": "address"
            },
            {
              "internalType": "address[]",
              "name": "collateralTokens",
              "type": "address[]"
            },
            {
              "internalType": "bool",
              "name": "isRollover",
              "type": "bool"
            },
            {
              "internalType": "address",
              "name": "rolloverPairOffTermRepoServicer",
              "type": "address"
            },
            {
              "internalType": "bool",
              "name": "isRevealed",
              "type": "bool"
            }
          ],
          "internalType": "struct TermAuctionBid",
          "name": "",
          "type": "tuple"
        }
      ],
      "stateMutability": "view",
      "type": "function"
    },
    {
      "inputs": [],
      "name": "lockingPaused",
      "outputs": [
        {
          "internalType": "bool",
          "name": "",
          "type": "bool"
        }
      ],
      "stateMutability": "view",
      "type": "function"
    },
    {
      "inputs": [],
      "name": "minimumTenderAmount",
      "outputs": [
        {
          "internalType": "uint256",
          "name": "",
          "type": "uint256"
        }
      ],
      "stateMutability": "view",
      "type": "function"
    },
    {
      "inputs": [
        {
          "internalType": "address",
          "name": "rolloverManager",
          "type": "address"
        }
      ],
      "name": "pairRolloverManager",
      "outputs": [],
      "stateMutability": "nonpayable",
      "type": "function"
    },
    {
      "inputs": [
        {
          "internalType": "address",
          "name": "termAuction_",
          "type": "address"
        },
        {
          "internalType": "contract ITermRepoServicer",
          "name": "termRepoServicer_",
          "type": "address"
        },
        {
          "internalType": "contract ITermEventEmitter",
          "name": "emitter_",
          "type": "address"
        },
        {
          "internalType": "contract ITermRepoCollateralManager",
          "name": "termRepoCollateralManager_",
          "type": "address"
        },
        {
          "internalType": "contract ITermPriceOracle",
          "name": "termPriceOracle_",
          "type": "address"
        },
        {
          "internalType": "address",
          "name": "devopsMultisig_",
          "type": "address"
        },
        {
          "internalType": "address",
          "name": "adminWallet_",
          "type": "address"
        }
      ],
      "name": "pairTermContracts",
      "outputs": [],
      "stateMutability": "nonpayable",
      "type": "function"
    },
    {
      "inputs": [],
      "name": "pauseLocking",
      "outputs": [],
      "stateMutability": "nonpayable",
      "type": "function"
    },
    {
      "inputs": [],
      "name": "pauseUnlocking",
      "outputs": [],
      "stateMutability": "nonpayable",
      "type": "function"
    },
    {
      "inputs": [],
      "name": "proxiableUUID",
      "outputs": [
        {
          "internalType": "bytes32",
          "name": "",
          "type": "bytes32"
        }
      ],
      "stateMutability": "view",
      "type": "function"
    },
    {
      "inputs": [],
      "name": "purchaseToken",
      "outputs": [
        {
          "internalType": "address",
          "name": "",
          "type": "address"
        }
      ],
      "stateMutability": "view",
      "type": "function"
    },
    {
      "inputs": [
        {
          "internalType": "bytes32",
          "name": "role",
          "type": "bytes32"
        },
        {
          "internalType": "address",
          "name": "account",
          "type": "address"
        }
      ],
      "name": "renounceRole",
      "outputs": [],
      "stateMutability": "nonpayable",
      "type": "function"
    },
    {
      "inputs": [
        {
          "internalType": "bytes32[]",
          "name": "ids",
          "type": "bytes32[]"
        },
        {
          "internalType": "uint256[]",
          "name": "prices",
          "type": "uint256[]"
        },
        {
          "internalType": "uint256[]",
          "name": "nonces",
          "type": "uint256[]"
        }
      ],
      "name": "revealBids",
      "outputs": [],
      "stateMutability": "nonpayable",
      "type": "function"
    },
    {
      "inputs": [],
      "name": "revealTime",
      "outputs": [
        {
          "internalType": "uint256",
          "name": "",
          "type": "uint256"
        }
      ],
      "stateMutability": "view",
      "type": "function"
    },
    {
      "inputs": [
        {
          "internalType": "bytes32",
          "name": "role",
          "type": "bytes32"
        },
        {
          "internalType": "address",
          "name": "account",
          "type": "address"
        }
      ],
      "name": "revokeRole",
      "outputs": [],
      "stateMutability": "nonpayable",
      "type": "function"
    },
    {
      "inputs": [
        {
          "internalType": "bytes4",
          "name": "interfaceId",
          "type": "bytes4"
        }
      ],
      "name": "supportsInterface",
      "outputs": [
        {
          "internalType": "bool",
          "name": "",
          "type": "bool"
        }
      ],
      "stateMutability": "view",
      "type": "function"
    },
    {
      "inputs": [],
      "name": "termAuction",
      "outputs": [
        {
          "internalType": "contract ITermAuction",
          "name": "",
          "type": "address"
        }
      ],
      "stateMutability": "view",
      "type": "function"
    },
    {
      "inputs": [],
      "name": "termAuctionId",
      "outputs": [
        {
          "internalType": "bytes32",
          "name": "",
          "type": "bytes32"
        }
      ],
      "stateMutability": "view",
      "type": "function"
    },
    {
      "inputs": [],
      "name": "termRepoCollateralManager",
      "outputs": [
        {
          "internalType": "contract ITermRepoCollateralManager",
          "name": "",
          "type": "address"
        }
      ],
      "stateMutability": "view",
      "type": "function"
    },
    {
      "inputs": [],
      "name": "termRepoId",
      "outputs": [
        {
          "internalType": "bytes32",
          "name": "",
          "type": "bytes32"
        }
      ],
      "stateMutability": "view",
      "type": "function"
    },
    {
      "inputs": [],
      "name": "termRepoServicer",
      "outputs": [
        {
          "internalType": "contract ITermRepoServicer",
          "name": "",
          "type": "address"
        }
      ],
      "stateMutability": "view",
      "type": "function"
    },
    {
      "inputs": [
        {
          "internalType": "bytes32[]",
          "name": "ids",
          "type": "bytes32[]"
        }
      ],
      "name": "unlockBids",
      "outputs": [],
      "stateMutability": "nonpayable",
      "type": "function"
    },
    {
      "inputs": [],
      "name": "unlockingPaused",
      "outputs": [
        {
          "internalType": "bool",
          "name": "",
          "type": "bool"
        }
      ],
      "stateMutability": "view",
      "type": "function"
    },
    {
      "inputs": [],
      "name": "unpauseLocking",
      "outputs": [],
      "stateMutability": "nonpayable",
      "type": "function"
    },
    {
      "inputs": [],
      "name": "unpauseUnlocking",
      "outputs": [],
      "stateMutability": "nonpayable",
      "type": "function"
    },
    {
      "inputs": [
        {
          "internalType": "address",
          "name": "newImplementation",
          "type": "address"
        }
      ],
      "name": "upgradeTo",
      "outputs": [],
      "stateMutability": "nonpayable",
      "type": "function"
    },
    {
      "inputs": [
        {
          "internalType": "address",
          "name": "newImplementation",
          "type": "address"
        },
        {
          "internalType": "bytes",
          "name": "data",
          "type": "bytes"
        }
      ],
      "name": "upgradeToAndCall",
      "outputs": [],
      "stateMutability": "payable",
      "type": "function"
    },
    {
      "inputs": [],
      "name": "version",
      "outputs": [
        {
          "internalType": "string",
          "name": "",
          "type": "string"
        }
      ],
      "stateMutability": "view",
      "type": "function"
    }
  ],
  "bytecode": "0x60a0604052306080523480156200001557600080fd5b506200002062000026565b620000e7565b600054610100900460ff1615620000935760405162461bcd60e51b815260206004820152602760248201527f496e697469616c697a61626c653a20636f6e747261637420697320696e697469604482015266616c697a696e6760c81b606482015260840160405180910390fd5b60005460ff90811614620000e5576000805460ff191660ff9081179091556040519081527f7f26b83ff96e1f2b6a682f133852f6798a09c465da95921460cefb38474024989060200160405180910390a15b565b608051615f586200011f60003960008181610e4201528181610e82015281816113170152818161135701526113cf0152615f586000f3fe60806040526004361061025e5760003560e01c80635c16456711610145578063ae91fa33116100bc578063ae91fa33146106db578063b40a5627146106f8578063ba829d711461070f578063ba98b5ef14610726578063cc5b6e4a14610753578063cdae1ee01461076a578063cfe9232b1461078a578063cffbc297146107ac578063d547741f146107dd578063d6725d0c146107fd578063e61f00e614610815578063eb54f9ec14610835578063f9202d631461084c57600080fd5b80635c1645671461057f5780636d7331411461059f57806375b238fc146105b65780637a6944c5146105d85780637d33274f146105ef5780637dae3fb7146106105780637e3f71d514610630578063811b86cd146106505780638a5cd91e1461067057806391d1485414610685578063a217fddf146106a5578063a95c4d62146106ba57600080fd5b80633659cfe6116101d95780633659cfe61461041857806338665e9f146104385780633de81dc4146104655780633e836b3d146104865780633efbfd8c1461049b578063408f2e10146104bc57806341da5432146104d1578063475d266a146104e65780634b449cba146105065780634f1ef2861461051d57806352d1902d1461053057806354fd4d501461054557600080fd5b806301ffc9a7146102635780630283ce5b1461029857806302b65fb0146102ba5780631f642705146102ea578063201a6625146102ff578063248a9ca31461032157806325a2471a1461035157806327df3d3e146103685780632f2ff15d1461038a578063323c6183146103aa578063357a77d2146103ca57806336568abe146103f8575b600080fd5b34801561026f57600080fd5b5061028361027e366004614be2565b61087a565b60405190151581526020015b60405180910390f35b3480156102a457600080fd5b506102b86102b3366004614c7c565b6108b1565b005b3480156102c657600080fd5b506102dc600080516020615ec383398151915281565b60405190815260200161028f565b3480156102f657600080fd5b506102b8610a36565b34801561030b57600080fd5b506102dc600080516020615e3c83398151915281565b34801561032d57600080fd5b506102dc61033c366004614d07565b600090815260c9602052604090206001015490565b34801561035d57600080fd5b506102dc6101325481565b34801561037457600080fd5b506102dc600080516020615e5c83398151915281565b34801561039657600080fd5b506102b86103a5366004614d20565b610ad7565b3480156103b657600080fd5b506102b86103c5366004614eb9565b610b01565b3480156103d657600080fd5b50610137546103eb906001600160a01b031681565b60405161028f9190614fac565b34801561040457600080fd5b506102b8610413366004614d20565b610dba565b34801561042457600080fd5b506102b8610433366004614fc0565b610e38565b34801561044457600080fd5b50610458610453366004614fdd565b610f00565b60405161028f9190615033565b34801561047157600080fd5b50610136546103eb906001600160a01b031681565b34801561049257600080fd5b506102b86110ca565b3480156104a757600080fd5b5061013d546102839062010000900460ff1681565b3480156104c857600080fd5b506102dc609681565b3480156104dd57600080fd5b506102b861112e565b3480156104f257600080fd5b50610458610501366004615077565b611193565b34801561051257600080fd5b506102dc6101315481565b6102b861052b3660046150b8565b61130d565b34801561053c57600080fd5b506102dc6113c2565b34801561055157600080fd5b50604080518082018252600b81526a19195d995b1bdc1b595b9d60aa1b6020820152905161028f9190615183565b34801561058b57600080fd5b506102b861059a3660046151b6565b611470565b3480156105ab57600080fd5b506102dc61012e5481565b3480156105c257600080fd5b506102dc600080516020615ee383398151915281565b3480156105e457600080fd5b506102dc6101335481565b3480156105fb57600080fd5b5061013a546103eb906001600160a01b031681565b34801561061c57600080fd5b506102b861062b366004615077565b61150b565b34801561063c57600080fd5b5061013d5461028390610100900460ff1681565b34801561065c57600080fd5b506102b861066b366004614fc0565b6116ad565b34801561067c57600080fd5b506102b86116dd565b34801561069157600080fd5b506102836106a0366004614d20565b611747565b3480156106b157600080fd5b506102dc600081565b3480156106c657600080fd5b50610134546103eb906001600160a01b031681565b3480156106e757600080fd5b506102dc68056bc75e2d6310000081565b34801561070457600080fd5b506102dc61013c5481565b34801561071b57600080fd5b506102dc6101305481565b34801561073257600080fd5b50610746610741366004614d07565b611772565b60405161028f9190615373565b34801561075f57600080fd5b506102dc61012d5481565b34801561077657600080fd5b506102b8610785366004615386565b6118cf565b34801561079657600080fd5b506102dc600080516020615f0383398151915281565b3480156107b857600080fd5b506102836107c7366004614fc0565b6101356020526000908152604090205460ff1681565b3480156107e957600080fd5b506102b86107f8366004614d20565b611aa0565b34801561080957600080fd5b506102dc6301da9c0081565b34801561082157600080fd5b506102b861083036600461541c565b611ac5565b34801561084157600080fd5b506102dc61012f5481565b34801561085857600080fd5b5061086c6108673660046151b6565b611c98565b60405161028f9291906154a9565b60006001600160e01b03198216637965db0b60e01b14806108ab57506301ffc9a760e01b6001600160e01b03198316145b92915050565b600080516020615f038339815191526108c981611cd1565b600087815261013b602052604090206008015460ff16156108fd5760405163041753a560e31b815260040160405180910390fd5b6101395461012e546040516307fec0e360e01b81526001600160a01b03909216916307fec0e39161093b918b90600401918252602082015260400190565b600060405180830381600087803b15801561095557600080fd5b505af1158015610969573d6000803e3d6000fd5b5050505060005b84811015610a2c57610136546001600160a01b03166348717eb78888888581811061099d5761099d6155b4565b90506020020160208101906109b29190614fc0565b8787868181106109c4576109c46155b4565b905060200201356040518463ffffffff1660e01b81526004016109e9939291906155ca565b600060405180830381600087803b158015610a0357600080fd5b505af1158015610a17573d6000803e3d6000fd5b5050505080610a2590615604565b9050610970565b5050505050505050565b600080516020615ee3833981519152610a4e81611cd1565b61013d805462ff00001916620100001790556101395461012e5461012d54604051631258284760e21b81526001600160a01b0390931692634960a11c92610aa2929091600401918252602082015260400190565b600060405180830381600087803b158015610abc57600080fd5b505af1158015610ad0573d6000803e3d6000fd5b5050505050565b600082815260c96020526040902060010154610af281611cd1565b610afc8383611cdb565b505050565b600054610100900460ff1615808015610b215750600054600160ff909116105b80610b425750610b3030611d61565b158015610b42575060005460ff166001145b610baa5760405162461bcd60e51b815260206004820152602e60248201527f496e697469616c697a61626c653a20636f6e747261637420697320616c72656160448201526d191e481a5b9a5d1a585b1a5e995960921b60648201526084015b60405180910390fd5b6000805460ff191660011790558015610bcd576000805461ff0019166101001790555b610bd5611d70565b610bdd611d70565b610be5611d99565b610bfd600080516020615e5c83398151915283611cdb565b8c8c604051602001610c1092919061561d565b60408051601f1981840301815290829052805160209182012061012d55610c3b918d918d910161561d565b60408051601f19818403018152919052805160209091012061012e5587891115610c82576040516372067af960e11b8152600481018a905260248101899052604401610ba1565b61012f8990556101308890556101318790556101328590556301da9c00670de0b6b3a7640000610cb2898961562d565b610cbc9190615640565b610cc69190615657565b6101335561013480546001600160a01b0319166001600160a01b03861617905560005b83518160ff161015610d535760016101356000868460ff1681518110610d1157610d116155b4565b6020908102919091018101516001600160a01b03168252810191909152604001600020805460ff1916911515919091179055610d4c81615679565b9050610ce9565b50600061013c5561013d805460ff191690558015610dab576000805461ff0019169055604051600181527f7f26b83ff96e1f2b6a682f133852f6798a09c465da95921460cefb38474024989060200160405180910390a15b50505050505050505050505050565b6001600160a01b0381163314610e2a5760405162461bcd60e51b815260206004820152602f60248201527f416363657373436f6e74726f6c3a2063616e206f6e6c792072656e6f756e636560448201526e103937b632b9903337b91039b2b63360891b6064820152608401610ba1565b610e348282611dc8565b5050565b6001600160a01b037f0000000000000000000000000000000000000000000000000000000000000000163003610e805760405162461bcd60e51b8152600401610ba190615698565b7f00000000000000000000000000000000000000000000000000000000000000006001600160a01b0316610eb2611e2f565b6001600160a01b031614610ed85760405162461bcd60e51b8152600401610ba1906156e4565b610ee181611e4b565b60408051600080825260208201909252610efd91839190611ece565b50565b606061013054421180610f15575061012f5442105b15610f335760405163f046007760e01b815260040160405180910390fd5b61013d54610100900460ff1615610f5d5760405163059e557960e41b815260040160405180910390fd5b610f65612039565b6001600160a01b0382163303610f8e576040516333d8ca2d60e11b815260040160405180910390fd5b6000836001600160401b03811115610fa857610fa8614d91565b604051908082528060200260200182016040528015610fd1578160200160208202803683370190505b50905060005b848110156110b6576000611017878784818110610ff657610ff66155b4565b90506020028101906110089190615730565b6110119061580f565b33612092565b90508060000154838381518110611030576110306155b4565b60209081029190910101526101395461012e5460405163050ecc8960e11b81526001600160a01b0390921691630a1d9912916110729185908a9060040161592e565b600060405180830381600087803b15801561108c57600080fd5b505af11580156110a0573d6000803e3d6000fd5b5050505050806110af90615604565b9050610fd7565b5090506110c3600160fb55565b9392505050565b600080516020615ee38339815191526110e281611cd1565b61013d805461ff00191690556101395461012e5461012d5460405163b423ac9d60e01b8152600481019290925260248201526001600160a01b039091169063b423ac9d90604401610aa2565b600080516020615ee383398151915261114681611cd1565b61013d805462ff0000191690556101395461012e5461012d54604051632044037760e21b8152600481019290925260248201526001600160a01b03909116906381100ddc90604401610aa2565b6060610130544211806111a8575061012f5442105b156111c65760405163f046007760e01b815260040160405180910390fd5b61013d54610100900460ff16156111f05760405163059e557960e41b815260040160405180910390fd5b6111f8612039565b6000826001600160401b0381111561121257611212614d91565b60405190808252806020026020018201604052801561123b578160200160208202803683370190505b50905060005b83811015611300576000611260868684818110610ff657610ff66155b4565b90508060000154838381518110611279576112796155b4565b60209081029190910101526101395461012e5460405163050ecc8960e11b81526001600160a01b0390921691630a1d9912916112bc91859060009060040161592e565b600060405180830381600087803b1580156112d657600080fd5b505af11580156112ea573d6000803e3d6000fd5b5050505050806112f990615604565b9050611241565b5090506108ab600160fb55565b6001600160a01b037f00000000000000000000000000000000000000000000000000000000000000001630036113555760405162461bcd60e51b8152600401610ba190615698565b7f00000000000000000000000000000000000000000000000000000000000000006001600160a01b0316611387611e2f565b6001600160a01b0316146113ad5760405162461bcd60e51b8152600401610ba1906156e4565b6113b682611e4b565b610e3482826001611ece565b6000306001600160a01b037f0000000000000000000000000000000000000000000000000000000000000000161461145d5760405162461bcd60e51b815260206004820152603860248201527f555550535570677261646561626c653a206d757374206e6f742062652063616c6044820152771b1959081d1a1c9bdd59da0819195b1959d85d1958d85b1b60421b6064820152608401610ba1565b50600080516020615e7c83398151915290565b61013054421015611494576040516302a3f58760e51b815260040160405180910390fd5b60005b85811015611502576114f28787838181106114b4576114b46155b4565b905060200201358686848181106114cd576114cd6155b4565b905060200201358585858181106114e6576114e66155b4565b9050602002013561270d565b6114fb81615604565b9050611497565b50505050505050565b61013d5462010000900460ff161561153657604051631370a4e760e31b815260040160405180910390fd5b61153e612039565b61012f544210156115625760405163f046007760e01b815260040160405180910390fd5b61013054421180156115e9575061013a60009054906101000a90046001600160a01b03166001600160a01b0316638dfea9e76040518163ffffffff1660e01b8152600401602060405180830381865afa1580156115c3573d6000803e3d6000fd5b505050506040513d601f19601f820116820180604052508101906115e79190615a3a565b155b156116075760405163f046007760e01b815260040160405180910390fd5b60005b818110156116a257611692838383818110611627576116276155b4565b905060200201353361013b6000878787818110611646576116466155b4565b90506020020135815260200190815260200160002060070161013b6000888888818110611675576116756155b4565b90506020020135815260200190815260200160002060050161283f565b61169b81615604565b905061160a565b50610e34600160fb55565b600080516020615ee38339815191526116c581611cd1565b610e34600080516020615ec383398151915283611cdb565b600080516020615ee38339815191526116f581611cd1565b61013d805461ff0019166101001790556101395461012e5461012d5460405163210d6add60e21b81526001600160a01b0390931692638435ab7492610aa2929091600401918252602082015260400190565b600091825260c9602090815260408084206001600160a01b0393909316845291905290205460ff1690565b61177a614a69565b600082815261013b60209081526040918290208251610160810184528154815260018201546001600160a01b03168184015260028201548185015260038201546060820152600482015460808201526005820180548551818602810186019096528086529194929360a0860193929083018282801561181857602002820191906000526020600020905b815481526020019060010190808311611804575b505050918352505060068201546001600160a01b0316602080830191909152600783018054604080518285028101850182528281529401939283018282801561188a57602002820191906000526020600020905b81546001600160a01b0316815260019091019060200180831161186c575b50505091835250506008919091015460ff808216151560208401526001600160a01b036101008304166040840152600160a81b90910416151560609091015292915050565b600080516020615e5c8339815191526118e781611cd1565b61013d5460ff161561190c57604051634ce377bb60e11b815260040160405180910390fd5b61013d805460ff191660011790556001600160a01b0387166119415760405163a258508760e01b815260040160405180910390fd5b61013780546001600160a01b03808a166001600160a01b03199283161790925561013a8054928b169290911691909117905561198b600080516020615f0383398151915289611cdb565b6119a3600080516020615e3c83398151915284611cdb565b6119bb600080516020615ee383398151915283611cdb565b61013980546001600160a01b038881166001600160a01b03199283168117909355610136805489831690841617905561013880549188169190921617905561012d5461012e5461012f54610130546101325461013354604051632b6cea3160e01b8152600481019690965260248601949094523060448601526064850192909252608484015268056bc75e2d6310000060a484015260c483015260e4820152632b6cea319061010401600060405180830381600087803b158015611a7e57600080fd5b505af1158015611a92573d6000803e3d6000fd5b505050505050505050505050565b600082815260c96020526040902060010154611abb81611cd1565b610afc8383611dc8565b61013d54610100900460ff1615611aef5760405163059e557960e41b815260040160405180910390fd5b600080516020615ec3833981519152611b0781611cd1565b611b0f612039565b61013054421115611b335760405163f046007760e01b815260040160405180910390fd5b8160800135600003611c7d578135600090815261013b60205260408120600401549003611b76576040516311ebb27f60e11b815282356004820152602401610ba1565b8135600090815261013b602052604081208181556001810180546001600160a01b031916905560028101829055600381018290556004810182905590611bbf6005830182614ac4565b6006820180546001600160a01b0319169055611bdf600783016000614ac4565b5060080180546001600160b01b031916905561013c805460019190600090611c0890849061562d565b90915550506101395461012e546040516307fec0e360e01b81526004810191909152833560248201526001600160a01b03909116906307fec0e390604401600060405180830381600087803b158015611c6057600080fd5b505af1158015611c74573d6000803e3d6000fd5b50505050611c8e565b611c8e611c8983615a62565b612abc565b610e34600160fb55565b606080600080516020615f03833981519152611cb381611cd1565b611cc1898989898989612cf8565b9250925050965096945050505050565b610efd81336131f7565b611ce58282611747565b610e3457600082815260c9602090815260408083206001600160a01b03851684529091529020805460ff19166001179055611d1d3390565b6001600160a01b0316816001600160a01b0316837f2f8788117e7eff1d82e926ec794901d17c78024a50270940304540a733656f0d60405160405180910390a45050565b6001600160a01b03163b151590565b600054610100900460ff16611d975760405162461bcd60e51b8152600401610ba190615b4f565b565b600054610100900460ff16611dc05760405162461bcd60e51b8152600401610ba190615b4f565b611d97613250565b611dd28282611747565b15610e3457600082815260c9602090815260408083206001600160a01b0385168085529252808320805460ff1916905551339285917ff6391f5c32d9c69d2a47ea670b442974b53935d1edc7fd64eb21e047a839171b9190a45050565b600080516020615e7c833981519152546001600160a01b031690565b600080516020615e3c833981519152611e6381611cd1565b6101395460405163b3c2d50b60e01b81523060048201526001600160a01b0384811660248301529091169063b3c2d50b906044015b600060405180830381600087803b158015611eb257600080fd5b505af1158015611ec6573d6000803e3d6000fd5b505050505050565b7f4910fdfa16fed3260ed0e7147f7cc6da11a60208b5b9406d12a635614ffd91435460ff1615611f0157610afc83613277565b826001600160a01b03166352d1902d6040518163ffffffff1660e01b8152600401602060405180830381865afa925050508015611f5b575060408051601f3d908101601f19168201909252611f5891810190615b9a565b60015b611fbe5760405162461bcd60e51b815260206004820152602e60248201527f45524331393637557067726164653a206e657720696d706c656d656e7461746960448201526d6f6e206973206e6f74205555505360901b6064820152608401610ba1565b600080516020615e7c833981519152811461202d5760405162461bcd60e51b815260206004820152602960248201527f45524331393637557067726164653a20756e737570706f727465642070726f786044820152681a58589b195555525160ba1b6064820152608401610ba1565b50610afc838383613311565b600260fb540361208b5760405162461bcd60e51b815260206004820152601f60248201527f5265656e7472616e637947756172643a207265656e7472616e742063616c6c006044820152606401610ba1565b600260fb55565b6000826020015182816001600160a01b0316816001600160a01b0316146120cc576040516305732abb60e51b815260040160405180910390fd5b609661013c54106120f0576040516346f317d760e01b815260040160405180910390fd5b8451600090815261013b6020526040812060040154158015919061215d576020808801518851600090815261013b9092526040909120600101546001600160a01b03908116911614612155576040516305732abb60e51b815260040160405180910390fd5b50855161216c565b8651612169908761333c565b90505b60a0870151610134546001600160a01b039081169116146121a6578660a0015160405163e34b641f60e01b8152600401610ba19190614fac565b60005b8760c00151518110156122445761013560008960c0015183815181106121d1576121d16155b4565b6020908102919091018101516001600160a01b031682528101919091526040016000205460ff16612234578760c001518181518110612212576122126155b4565b602002602001015160405163052baa4960e31b8152600401610ba19190614fac565b61223d81615604565b90506121a9565b50610132548760600151101561227557866060015160405163235c188560e01b8152600401610ba191815260200190565b61228c87606001518860c0015189608001516133c3565b156122aa576040516354f8f85560e11b815260040160405180910390fd5b6000805b8860c001515181101561251b57831561246057600083815261013b602052604090206005018054829081106122e5576122e56155b4565b9060005260206000200154915088608001518181518110612308576123086155b4565b60200260200101518210156123d1576101365460208a015160c08b015180516001600160a01b0390931692632391281c9291908590811061234b5761234b6155b4565b6020026020010151858d60800151868151811061236a5761236a6155b4565b602002602001015161237c919061562d565b6040518463ffffffff1660e01b815260040161239a939291906155ca565b600060405180830381600087803b1580156123b457600080fd5b505af11580156123c8573d6000803e3d6000fd5b5050505061250b565b886080015181815181106123e7576123e76155b4565b602002602001015182111561245b576101365460208a015160c08b015180516001600160a01b03909316926348717eb79291908590811061242a5761242a6155b4565b60200260200101518c608001518581518110612448576124486155b4565b60200260200101518661237c919061562d565b61250b565b6101365460208a015160c08b015180516001600160a01b0390931692632391281c92919085908110612494576124946155b4565b60200260200101518c6080015185815181106124b2576124b26155b4565b60200260200101516040518463ffffffff1660e01b81526004016124d8939291906155ca565b600060405180830381600087803b1580156124f257600080fd5b505af1158015612506573d6000803e3d6000fd5b505050505b61251481615604565b90506122ae565b5060405180610160016040528083815260200189602001516001600160a01b03168152602001896040015181526020016000815260200189606001518152602001896080015181526020018960a001516001600160a01b031681526020018960c00151815260200160001515815260200160006001600160a01b031681526020016000151581525061013b60008481526020019081526020016000206000820151816000015560208201518160010160006101000a8154816001600160a01b0302191690836001600160a01b0316021790555060408201518160020155606082015181600301556080820151816004015560a0820151816005019080519060200190612628929190614ae2565b5060c08201516006820180546001600160a01b0319166001600160a01b0390921691909117905560e0820151805161266a916007840191602090910190614b2d565b50610100828101516008929092018054610120850151610140909501516001600160a81b0319909116931515610100600160a81b031916939093176001600160a01b039094169091029290921760ff60a81b1916600160a81b91151591909102179055826126ec57600161013c60008282546126e69190615bb3565b90915550505b50600090815261013b602052604090209695505050505050565b600160fb55565b600083815261013b6020908152604091829020600201548251918201859052918101839052606001604051602081830303815290604052805190602001201461276c57604051637afe112160e11b815260048101849052602401610ba1565b68056bc75e2d631000008211156127a857604051632dc71e8d60e01b81526004810184905268056bc75e2d631000006024820152604401610ba1565b600083815261013b60205260409081902060038101849055600801805460ff60a81b1916600160a81b1790556101395461012e5491516315d1070b60e11b8152600481019290925260248201859052604482018490526001600160a01b031690632ba20e1690606401600060405180830381600087803b15801561282b57600080fd5b505af1158015611502573d6000803e3d6000fd5b600084815261013b60205260408120600401549003612874576040516311ebb27f60e11b815260048101859052602401610ba1565b600084815261013b60205260409020600101546001600160a01b038481169116146128b2576040516305732abb60e51b815260040160405180910390fd5b600084815261013b602052604090206008015460ff16156128e65760405163041753a560e31b815260040160405180910390fd5b60005b82548110156129ba576101365483546001600160a01b03909116906348717eb790869086908590811061291e5761291e6155b4565b9060005260206000200160009054906101000a90046001600160a01b031685858154811061294e5761294e6155b4565b90600052602060002001546040518463ffffffff1660e01b8152600401612977939291906155ca565b600060405180830381600087803b15801561299157600080fd5b505af11580156129a5573d6000803e3d6000fd5b50505050806129b390615604565b90506128e9565b50600084815261013b602052604081208181556001810180546001600160a01b031916905560028101829055600381018290556004810182905590612a026005830182614ac4565b6006820180546001600160a01b0319169055612a22600783016000614ac4565b5060080180546001600160b01b031916905561013c805460019190600090612a4b90849061562d565b90915550506101395461012e546040516307fec0e360e01b81526001600160a01b03909216916307fec0e391612a8e918890600401918252602082015260400190565b600060405180830381600087803b158015612aa857600080fd5b505af1158015610a2c573d6000803e3d6000fd5b609661013c5410612ae0576040516346f317d760e01b815260040160405180910390fd5b806101000151612b0957805160405163103dad4560e11b81526004810191909152602401610ba1565b6101325481608001511015612b3957806080015160405163235c188560e01b8152600401610ba191815260200190565b8051600090815261013b602052604090206004015460c082015161013454911515916001600160a01b03908116911614612b865760405163ed82d81b60e01b815260040160405180910390fd5b8151600090815261013b602090815260409182902084518155818501516001820180546001600160a01b0319166001600160a01b03909216919091179055918401516002830155606084015160038301556080840151600483015560a08401518051859392612bfc926005850192910190614ae2565b5060c08201516006820180546001600160a01b0319166001600160a01b0390921691909117905560e08201518051612c3e916007840191602090910190614b2d565b50610100828101516008929092018054610120850151610140909501516001600160a81b0319909116931515610100600160a81b031916939093176001600160a01b039094169091029290921760ff60a81b1916600160a81b9115159190910217905580612cc057600161013c6000828254612cba9190615bb3565b90915550505b6101395461012e5460405163050ecc8960e11b81526001600160a01b0390921691630a1d991291611e98918690600090600401615bc6565b61013c54606090819083612d0c878a615bb3565b612d169190615bb3565b14612d3b5761013c54604051633c123a1960e01b8152600401610ba191815260200190565b60005b85811015612ebf57600061013b6000898985818110612d5f57612d5f6155b4565b90506020020135815260200190815260200160002090508060040154600003612db757878783818110612d9457612d946155b4565b905060200201356040516311ebb27f60e11b8152600401610ba191815260200190565b600881015460ff16612df857878783818110612dd557612dd56155b4565b9050602002013560405163103dad4560e11b8152600401610ba191815260200190565b60008160080160019054906101000a90046001600160a01b03169050806001600160a01b0316631320834f6040518163ffffffff1660e01b8152600401602060405180830381865afa158015612e52573d6000803e3d6000fd5b505050506040513d601f19601f82011682018060405250810190612e769190615b9a565b421115612e8d578154612e889061361a565b612eac565b8154604051631a034f1360e11b81526004810191909152602401610ba1565b505080612eb890615604565b9050612d3e565b606060008080612ed08d8d8a6136b2565b929650909450925090506000612ee78e8e86613d19565b90506000836001600160401b03811115612f0357612f03614d91565b604051908082528060200260200182016040528015612f3c57816020015b612f29614a69565b815260200190600190039081612f215790505b50905060008097505b8a88101561317157600061013b60008e8e8c818110612f6657612f666155b4565b90506020020135815260200190815260200160002090508060040154600003612f9b578c8c8a818110612d9457612d946155b4565b6008810154600160a81b900460ff1615612fe4578c8c8a818110612fc157612fc16155b4565b9050602002013560405163b53dcb6360e01b8152600401610ba191815260200190565b60408051610160810182528254815260018301546001600160a01b031660208083019190915260028401548284015260038401546060830152600484015460808301526005840180548451818402810184019095528085529293859360a086019391929183018282801561307757602002820191906000526020600020905b815481526020019060010190808311613063575b505050918352505060068201546001600160a01b031660208083019190915260078301805460408051828502810185018252828152940193928301828280156130e957602002820191906000526020600020905b81546001600160a01b031681526001909101906020018083116130cb575b50505091835250506008919091015460ff808216151560208401526001600160a01b036101008304166040840152600160a81b909104161515606090910152835184908490811061313c5761313c6155b4565b60200260200101819052508161315190615604565b9150613160816000015461361a565b5061316a88615604565b9750612f45565b600097505b838810156131d157868881518110613190576131906155b4565b60200260200101518282815181106131aa576131aa6155b4565b6020026020010181905250806131bf90615604565b90506131ca88615604565b9750613176565b61013c54156131e2576131e2615bf7565b50909e909d509b505050505050505050505050565b6132018282611747565b610e345761320e81613f5f565b613219836020613f71565b60405160200161322a929190615c0d565b60408051601f198184030181529082905262461bcd60e51b8252610ba191600401615183565b600054610100900460ff166127065760405162461bcd60e51b8152600401610ba190615b4f565b61328081611d61565b6132e25760405162461bcd60e51b815260206004820152602d60248201527f455243313936373a206e657720696d706c656d656e746174696f6e206973206e60448201526c1bdd08184818dbdb9d1c9858dd609a1b6064820152608401610ba1565b600080516020615e7c83398151915280546001600160a01b0319166001600160a01b0392909216919091179055565b61331a8361410c565b6000825111806133275750805b15610afc57613336838361414c565b50505050565b60008083833060405160200161337693929190928352606091821b6001600160601b03199081166020850152911b16603482015260480190565b60408051601f198184030181529181528151602092830120600081815261013b909352912060040154909150156110c3576040516310f5216760e21b815260048101829052602401610ba1565b61013854610134546040516303d3c9db60e21b815260009283926001600160a01b0391821692630f4f276c926133ff9216908990600401615c7c565b602060405180830381865afa15801561341c573d6000803e3d6000fd5b505050506040513d601f19601f820116820180604052508101906134409190615c95565b60408051602081019091526000808252919250905b85518110156135f8576000868281518110613472576134726155b4565b602090810291909101015161013654604051632a1e8cdb60e01b81529192506000916001600160a01b0390911690632a1e8cdb906134b4908590600401614fac565b602060405180830381865afa1580156134d1573d6000803e3d6000fd5b505050506040513d601f19601f820116820180604052508101906134f59190615b9a565b9050868381518110613509576135096155b4565b602002602001015160000361351f5750506135e8565b60006135d661013860009054906101000a90046001600160a01b03166001600160a01b0316630f4f276c858b888151811061355c5761355c6155b4565b60200260200101516040518363ffffffff1660e01b8152600401613581929190615c7c565b602060405180830381865afa15801561359e573d6000803e3d6000fd5b505050506040513d601f19601f820116820180604052508101906135c29190615c95565b604051806020016040528085815250614171565b90506135e281866141b4565b94505050505b6135f181615604565b9050613455565b5081518151101561360e576001925050506110c3565b50600095945050505050565b600081815261013b602052604081208181556001810180546001600160a01b0319169055600281018290556003810182905560048101829055906136616005830182614ac4565b6006820180546001600160a01b0319169055613681600783016000614ac4565b5060080180546001600160b01b031916905561013c8054600191906000906136aa90849061562d565b909155505050565b606060008080858582826001600160401b038111156136d3576136d3614d91565b60405190808252806020026020018201604052801561370c57816020015b6136f9614a69565b8152602001906001900390816136f15790505b50905060008060005b8b811015613d0457600061013b60008f8f85818110613736576137366155b4565b9050602002013581526020019081526020016000209050806004015460000361376b578d8d83818110612d9457612d946155b4565b8060030154831115613790576040516370dcb33760e11b815260040160405180910390fd5b80600301549250600881015460ff16156139f85760008160080160019054906101000a90046001600160a01b03169050806001600160a01b0316631320834f6040518163ffffffff1660e01b8152600401602060405180830381865afa1580156137fe573d6000803e3d6000fd5b505050506040513d601f19601f820116820180604052508101906138229190615b9a565b42111561384857815460405163bcbe400960e01b81526004810191909152602401610ba1565b61385282826141e0565b6139f25761385f87615604565b60408051610160810182528454815260018501546001600160a01b03166020808301919091526002860154828401526003860154606083015260048601546080830152600586018054845181840281018401909552808552949b509193869360a086019390929091908301828280156138f757602002820191906000526020600020905b8154815260200190600101908083116138e3575b505050918352505060068201546001600160a01b0316602080830191909152600783018054604080518285028101850182528281529401939283018282801561396957602002820191906000526020600020905b81546001600160a01b0316815260019091019060200180831161394b575b50505091835250506008919091015460ff808216151560208401526001600160a01b036101008304166040840152600160a81b90910416151560609091015286518790879081106139bc576139bc6155b4565b6020026020010181905250846139d190615604565b94506139dc88615cd6565b97506139eb826000015461361a565b5050613cf4565b50613a2a565b6008810154600160a81b900460ff16613a2a5780546040516362d45c6f60e11b81526004810191909152602401610ba1565b613aec8160040154826003015483600701805480602002602001604051908101604052809291908181526020018280548015613a8f57602002820191906000526020600020905b81546001600160a01b03168152600190910190602001808311613a71575b505050505084600501805480602002602001604051908101604052809291908181526020018280548015613ae257602002820191906000526020600020905b815481526020019060010190808311613ace575b5050505050614592565b15613cf2576101395461012e548254604051635bcf235d60e01b8152600481019290925260248201526001600160a01b0390911690635bcf235d90604401600060405180830381600087803b158015613b4457600080fd5b505af1158015613b58573d6000803e3d6000fd5b5050505085613b6690615604565b60408051610160810182528354815260018401546001600160a01b03166020808301919091526002850154828401526003850154606083015260048501546080830152600585018054845181840281018401909552808552949a509193859360a08601939092909190830182828015613bfe57602002820191906000526020600020905b815481526020019060010190808311613bea575b505050918352505060068201546001600160a01b03166020808301919091526007830180546040805182850281018501825282815294019392830182828015613c7057602002820191906000526020600020905b81546001600160a01b03168152600190910190602001808311613c52575b50505091835250506008919091015460ff808216151560208401526001600160a01b036101008304166040840152600160a81b9091041615156060909101528551869086908110613cc357613cc36155b4565b602002602001018190525083613cd890615604565b9350613ce387615cd6565b9650613cf2816000015461361a565b505b613cfd81615604565b9050613715565b50919b939a5091985090965090945050505050565b60606000826001600160401b03811115613d3557613d35614d91565b604051908082528060200260200182016040528015613d6e57816020015b613d5b614b82565b815260200190600190039081613d535790505b5090506000805b85811015613f5457600061013b6000898985818110613d9657613d966155b4565b90506020020135815260200190815260200160002090508060040154600003613dbf5750613f44565b60408051610160810182528254815260018301546001600160a01b03166020808301919091526002840154828401526003840154606083015260048401546080830152600584018054845181840281018401909552808552613f0a94869360a0860193919290830182828015613e5457602002820191906000526020600020905b815481526020019060010190808311613e40575b505050918352505060068201546001600160a01b03166020808301919091526007830180546040805182850281018501825282815294019392830182828015613ec657602002820191906000526020600020905b81546001600160a01b03168152600190910190602001808311613ea8575b50505091835250506008919091015460ff808216151560208401526001600160a01b036101008304166040840152600160a81b909104161515606090910152614803565b848481518110613f1c57613f1c6155b4565b60200260200101819052508280613f3290615604565b935050613f42816000015461361a565b505b613f4d81615604565b9050613d75565b509095945050505050565b60606108ab6001600160a01b03831660145b60606000613f80836002615640565b613f8b906002615bb3565b6001600160401b03811115613fa257613fa2614d91565b6040519080825280601f01601f191660200182016040528015613fcc576020820181803683370190505b509050600360fc1b81600081518110613fe757613fe76155b4565b60200101906001600160f81b031916908160001a905350600f60fb1b81600181518110614016576140166155b4565b60200101906001600160f81b031916908160001a905350600061403a846002615640565b614045906001615bb3565b90505b60018111156140bd576f181899199a1a9b1b9c1cb0b131b232b360811b85600f1660108110614079576140796155b4565b1a60f81b82828151811061408f5761408f6155b4565b60200101906001600160f81b031916908160001a90535060049490941c936140b681615cd6565b9050614048565b5083156110c35760405162461bcd60e51b815260206004820181905260248201527f537472696e67733a20686578206c656e67746820696e73756666696369656e746044820152606401610ba1565b61411581613277565b6040516001600160a01b038216907fbc7cd75a20ee27fd9adebab32041f755214dbc6bffa90cc0225b39da2e5c2d3b90600090a250565b60606110c38383604051806060016040528060278152602001615e9c60279139614895565b60408051602081019091526000815260405180602001604052806141ab6141a48660000151670de0b6b3a764000061490d565b8551614919565b90529392505050565b60408051602081019091526000815260405180602001604052806141ab85600001518560000151614925565b6001820154604051632762697d60e01b815260009182916001600160a01b0385811692632762697d926142199290911690600401614fac565b602060405180830381865afa158015614236573d6000803e3d6000fd5b505050506040513d601f19601f8201168201806040525081019061425a9190615b9a565b90508060000361426e5760009150506108ab565b604080516020808201835261013354825282518082018085526101375463fa19d0ed60e01b90915293516000946142ff949383926001600160a01b039092169163fa19d0ed91602480860192908187030181865afa1580156142d4573d6000803e3d6000fd5b505050506040513d601f19601f820116820180604052508101906142f89190615b9a565b9052614931565b60000151905060006143586143536040518060200160405280670de0b6b3a76400008761432c9190615640565b905260408051602081019091528061434c87670de0b6b3a764000061562d565b9052614171565b614970565b9050856004015481101561436e57600486018190555b600081670de0b6b3a764000088600401546143899190615640565b6143939190615657565b90506000866001600160a01b0316633de81dc46040518163ffffffff1660e01b8152600401602060405180830381865afa1580156143d5573d6000803e3d6000fd5b505050506040513d601f19601f820116820180604052508101906143f99190615ced565b6001890154604051636f3fc39760e11b815291925060009182916001600160a01b038086169263de7f872e92614433921690600401614fac565b600060405180830381865afa158015614450573d6000803e3d6000fd5b505050506040513d6000823e601f3d908101601f191682016040526144789190810190615d65565b90925090506000805b8351811015614516576144bb6040518060200160405280888152508483815181106144ae576144ae6155b4565b6020026020010151614988565b91508b60050181815481106144d2576144d26155b4565b9060005260206000200154821461450657818c60050182815481106144f9576144f96155b4565b6000918252602090912001555b61450f81615604565b9050614481565b506101395461012e5460405163050ecc8960e11b81526001600160a01b0390921691630a1d99129161454f918f9060009060040161592e565b600060405180830381600087803b15801561456957600080fd5b505af115801561457d573d6000803e3d6000fd5b5060019e9d5050505050505050505050505050565b600080846000036145a4575084614621565b60006145ee6040518060200160405280670de0b6b3a76400008152506145e960405180602001604052806101335481525060405180602001604052808b815250614931565b6141b4565b905061461d6143536040518060200160405280670de0b6b3a76400008b6146159190615640565b905283614931565b9150505b61013854610134546040516303d3c9db60e21b81526000926001600160a01b0390811692630f4f276c9261465d92909116908690600401615c7c565b602060405180830381865afa15801561467a573d6000803e3d6000fd5b505050506040513d601f19601f8201168201806040525081019061469e9190615c95565b60408051602081019091526000808252919250905b86518110156147dc5760008782815181106146d0576146d06155b4565b6020908102919091010151610136546040516320db25d560e01b81529192506000916001600160a01b03909116906320db25d590614712908590600401614fac565b602060405180830381865afa15801561472f573d6000803e3d6000fd5b505050506040513d601f19601f820116820180604052508101906147539190615b9a565b9050878381518110614767576147676155b4565b602002602001015160000361477d5750506147cc565b60006147ba61013860009054906101000a90046001600160a01b03166001600160a01b0316630f4f276c858c888151811061355c5761355c6155b4565b90506147c681866141b4565b94505050505b6147d581615604565b90506146b3565b508151815110156147f357600193505050506147fb565b600093505050505b949350505050565b61480b614b82565b6040518061012001604052808360000151815260200183602001516001600160a01b0316815260200183606001518152602001836080015181526020018360a0015181526020018360c001516001600160a01b031681526020018360e001518152602001836101000151151581526020018361012001516001600160a01b03168152509050919050565b6060600080856001600160a01b0316856040516148b29190615e29565b600060405180830381855af49150503d80600081146148ed576040519150601f19603f3d011682016040523d82523d6000602084013e6148f2565b606091505b5091509150614903868383876149a0565b9695505050505050565b60006110c38284615640565b60006110c38284615657565b60006110c38284615bb3565b6040805160208101909152600081526040518060200160405280670de0b6b3a76400006149668660000151866000015161490d565b6141ab9190615657565b80516000906108ab90670de0b6b3a764000090615657565b6000806149958484614a17565b90506147fb81614970565b60608315614a0d578251600003614a06576149ba85611d61565b614a065760405162461bcd60e51b815260206004820152601d60248201527f416464726573733a2063616c6c20746f206e6f6e2d636f6e74726163740000006044820152606401610ba1565b50816147fb565b6147fb8383614a3f565b60408051602081019091526000815260405180602001604052806141ab85600001518561490d565b815115614a4f5781518083602001fd5b8060405162461bcd60e51b8152600401610ba19190615183565b604080516101608101825260008082526020820181905291810182905260608082018390526080820183905260a0820181905260c0820183905260e08201526101008101829052610120810182905261014081019190915290565b5080546000825590600052602060002090810190610efd9190614bcd565b828054828255906000526020600020908101928215614b1d579160200282015b82811115614b1d578251825591602001919060010190614b02565b50614b29929150614bcd565b5090565b828054828255906000526020600020908101928215614b1d579160200282015b82811115614b1d57825182546001600160a01b0319166001600160a01b03909116178255602090920191600190910190614b4d565b604080516101208101825260008082526020820181905291810182905260608082018390526080820181905260a0820183905260c082015260e0810182905261010081019190915290565b5b80821115614b295760008155600101614bce565b600060208284031215614bf457600080fd5b81356001600160e01b0319811681146110c357600080fd5b6001600160a01b0381168114610efd57600080fd5b8035614c2c81614c0c565b919050565b60008083601f840112614c4357600080fd5b5081356001600160401b03811115614c5a57600080fd5b6020830191508360208260051b8501011115614c7557600080fd5b9250929050565b60008060008060008060808789031215614c9557600080fd5b863595506020870135614ca781614c0c565b945060408701356001600160401b0380821115614cc357600080fd5b614ccf8a838b01614c31565b90965094506060890135915080821115614ce857600080fd5b50614cf589828a01614c31565b979a9699509497509295939492505050565b600060208284031215614d1957600080fd5b5035919050565b60008060408385031215614d3357600080fd5b823591506020830135614d4581614c0c565b809150509250929050565b60008083601f840112614d6257600080fd5b5081356001600160401b03811115614d7957600080fd5b602083019150836020828501011115614c7557600080fd5b634e487b7160e01b600052604160045260246000fd5b60405160e081016001600160401b0381118282101715614dc957614dc9614d91565b60405290565b60405161016081016001600160401b0381118282101715614dc957614dc9614d91565b604051601f8201601f191681016001600160401b0381118282101715614e1a57614e1a614d91565b604052919050565b60006001600160401b03821115614e3b57614e3b614d91565b5060051b60200190565b600082601f830112614e5657600080fd5b81356020614e6b614e6683614e22565b614df2565b82815260059290921b84018101918181019086841115614e8a57600080fd5b8286015b84811015614eae578035614ea181614c0c565b8352918301918301614e8e565b509695505050505050565b6000806000806000806000806000806000806101408d8f031215614edc57600080fd5b6001600160401b038d351115614ef157600080fd5b614efe8e8e358f01614d50565b909c509a506001600160401b0360208e01351115614f1b57600080fd5b614f2b8e60208f01358f01614d50565b909a50985060408d0135975060608d0135965060808d0135955060a08d0135945060c08d01359350614f5f60e08e01614c21565b92506001600160401b036101008e01351115614f7a57600080fd5b614f8b8e6101008f01358f01614e45565b9150614f9a6101208e01614c21565b90509295989b509295989b509295989b565b6001600160a01b0391909116815260200190565b600060208284031215614fd257600080fd5b81356110c381614c0c565b600080600060408486031215614ff257600080fd5b83356001600160401b0381111561500857600080fd5b61501486828701614c31565b909450925050602084013561502881614c0c565b809150509250925092565b6020808252825182820181905260009190848201906040850190845b8181101561506b5783518352928401929184019160010161504f565b50909695505050505050565b6000806020838503121561508a57600080fd5b82356001600160401b038111156150a057600080fd5b6150ac85828601614c31565b90969095509350505050565b600080604083850312156150cb57600080fd5b82356150d681614c0c565b91506020838101356001600160401b03808211156150f357600080fd5b818601915086601f83011261510757600080fd5b81358181111561511957615119614d91565b61512b601f8201601f19168501614df2565b9150808252878482850101111561514157600080fd5b80848401858401376000848284010152508093505050509250929050565b60005b8381101561517a578181015183820152602001615162565b50506000910152565b60208152600082518060208401526151a281604085016020870161515f565b601f01601f19169190910160400192915050565b600080600080600080606087890312156151cf57600080fd5b86356001600160401b03808211156151e657600080fd5b6151f28a838b01614c31565b9098509650602089013591508082111561520b57600080fd5b6152178a838b01614c31565b90965094506040890135915080821115614ce857600080fd5b6001600160a01b03169052565b600081518084526020808501945080840160005b8381101561526d57815187529582019590820190600101615251565b509495945050505050565b600081518084526020808501945080840160005b8381101561526d5781516001600160a01b03168752958201959082019060010161528c565b60006101608251845260208301516152cc6020860182615230565b5060408301516040850152606083015160608501526080830151608085015260a08301518160a08601526153028286018261523d565b91505060c083015161531760c0860182615230565b5060e083015184820360e086015261532f8282615278565b915050610100808401516153468287018215159052565b50506101208084015161535b82870182615230565b50506101409283015115159390920192909252919050565b6020815260006110c360208301846152b1565b600080600080600080600060e0888a0312156153a157600080fd5b87356153ac81614c0c565b965060208801356153bc81614c0c565b955060408801356153cc81614c0c565b945060608801356153dc81614c0c565b935060808801356153ec81614c0c565b925060a08801356153fc81614c0c565b915060c088013561540c81614c0c565b8091505092959891949750929550565b60006020828403121561542e57600080fd5b81356001600160401b0381111561544457600080fd5b820161016081850312156110c357600080fd5b6000815180845260208085019450848260051b860182860160005b8581101561549c57838303895261548a8383516152b1565b98850198925090840190600101615472565b5090979650505050505050565b60006040808301818452808651808352606092508286019150828160051b8701016020808a0160005b8481101561559457605f198a8503018652815161012081518652848201516154fc86880182615230565b50898201518a870152888201518987015260808083015182828901526155248389018261523d565b9250505060a08083015161553a82890182615230565b505060c080830151878303828901526155538382615278565b9250505060e08083015161556a8289018215159052565b5050610100918201519161558087820184615230565b5096840196945050908201906001016154d2565b5050878203908801526155a78189615457565b9998505050505050505050565b634e487b7160e01b600052603260045260246000fd5b6001600160a01b039384168152919092166020820152604081019190915260600190565b634e487b7160e01b600052601160045260246000fd5b600060018201615616576156166155ee565b5060010190565b8183823760009101908152919050565b818103818111156108ab576108ab6155ee565b80820281158282048414176108ab576108ab6155ee565b60008261567457634e487b7160e01b600052601260045260246000fd5b500490565b600060ff821660ff810361568f5761568f6155ee565b60010192915050565b6020808252602c908201527f46756e6374696f6e206d7573742062652063616c6c6564207468726f7567682060408201526b19195b1959d85d1958d85b1b60a21b606082015260800190565b6020808252602c908201527f46756e6374696f6e206d7573742062652063616c6c6564207468726f7567682060408201526b6163746976652070726f787960a01b606082015260800190565b6000823560de1983360301811261574657600080fd5b9190910192915050565b600082601f83011261576157600080fd5b81356020615771614e6683614e22565b82815260059290921b8401810191818101908684111561579057600080fd5b8286015b84811015614eae5780358352918301918301615794565b600082601f8301126157bc57600080fd5b813560206157cc614e6683614e22565b82815260059290921b840181019181810190868411156157eb57600080fd5b8286015b84811015614eae57803561580281614c0c565b83529183019183016157ef565b600060e0823603121561582157600080fd5b615829614da7565b8235815261583960208401614c21565b6020820152604083013560408201526060830135606082015260808301356001600160401b038082111561586c57600080fd5b61587836838701615750565b608084015261588960a08601614c21565b60a084015260c08501359150808211156158a257600080fd5b506158af368286016157ab565b60c08301525092915050565b6000815480845260208085019450836000528060002060005b8381101561526d578154875295820195600191820191016158d4565b6000815480845260208085019450836000528060002060005b8381101561526d5781546001600160a01b031687529582019560019182019101615909565b8381526060602082015282546060820152600061595560018501546001600160a01b031690565b6159626080840182615230565b50600284015460a0830152600384015460c0830152600484015460e08301526101608061010084015261599c6101c08401600587016158bb565b60068601546001600160a01b03166159b8610120860182615230565b50838103605f19016101408501526159d381600788016158f0565b905060088601546159ea83860160ff831615159052565b615a056101808601600883901c6001600160a01b0316615230565b615a1a6101a0860160ff8360a81c1615159052565b5091506147fb90506040830184615230565b8015158114610efd57600080fd5b600060208284031215615a4c57600080fd5b81516110c381615a2c565b8035614c2c81615a2c565b60006101608236031215615a7557600080fd5b615a7d614dcf565b82358152615a8d60208401614c21565b602082015260408301356040820152606083013560608201526080830135608082015260a08301356001600160401b0380821115615aca57600080fd5b615ad636838701615750565b60a0840152615ae760c08601614c21565b60c084015260e0850135915080821115615b0057600080fd5b50615b0d368286016157ab565b60e083015250610100615b21818501615a57565b90820152610120615b33848201614c21565b90820152610140615b45848201615a57565b9082015292915050565b6020808252602b908201527f496e697469616c697a61626c653a20636f6e7472616374206973206e6f74206960408201526a6e697469616c697a696e6760a81b606082015260800190565b600060208284031215615bac57600080fd5b5051919050565b808201808211156108ab576108ab6155ee565b838152606060208201526000615bdf60608301856152b1565b905060018060a01b0383166040830152949350505050565b634e487b7160e01b600052600160045260246000fd5b76020b1b1b2b9b9a1b7b73a3937b61d1030b1b1b7bab73a1604d1b815260008351615c3f81601785016020880161515f565b7001034b99036b4b9b9b4b733903937b6329607d1b6017918401918201528351615c7081602884016020880161515f565b01602801949350505050565b6001600160a01b03929092168252602082015260400190565b600060208284031215615ca757600080fd5b604051602081018181106001600160401b0382111715615cc957615cc9614d91565b6040529151825250919050565b600081615ce557615ce56155ee565b506000190190565b600060208284031215615cff57600080fd5b81516110c381614c0c565b600082601f830112615d1b57600080fd5b81516020615d2b614e6683614e22565b82815260059290921b84018101918181019086841115615d4a57600080fd5b8286015b84811015614eae5780518352918301918301615d4e565b60008060408385031215615d7857600080fd5b82516001600160401b0380821115615d8f57600080fd5b818501915085601f830112615da357600080fd5b81516020615db3614e6683614e22565b82815260059290921b84018101918181019089841115615dd257600080fd5b948201945b83861015615df9578551615dea81614c0c565b82529482019490820190615dd7565b91880151919650909350505080821115615e1257600080fd5b50615e1f85828601615d0a565b9150509250929050565b6000825161574681846020870161515f56fe793a6c9b7e0a9549c74edc2f9ae0dc50903dfaa9a56fb0116b27a8c71de3e2c630d41a597cac127d8249d31298b50e481ee82c3f4a49ff93c76a22735aa9f3ad360894a13ba1a3210667c828492db98dca3e2076cc3735a920a3ca505d382bbc416464726573733a206c6f772d6c6576656c2064656c65676174652063616c6c206661696c65646e3cc031d23d7153f72e87cbfd113a0351c60d8ce52b8a31c944d543a384b7c9a49807205ce4d355092ef5a8a18f56e8913cf4a201fbe287825b095693c21775c1df76f4e50bdb95676f782d4b88b23904c5346d8bc7c986ae26f7e10e601891a2646970667358221220859f87b032a07b3ebc08aa5a433e37607eb60023947dc7af70a212a6693df37e64736f6c63430008120033",
  "linkReferences": {},
  "deployedLinkReferences": {}
}