{
  "_format": "hh-sol-artifact-1",
  "contractName": "TermAuctionBidLocker",
  "sourceName": "contracts/TermAuctionBidLocker.sol",
  "abi": [
    {
      "inputs": [],
      "stateMutability": "nonpayable",
      "type": "constructor"
    },
    {
      "inputs": [],
      "name": "AccessControlBadConfirmation",
      "type": "error"
    },
    {
      "inputs": [
        {
          "internalType": "address",
          "name": "account",
          "type": "address"
        },
        {
          "internalType": "bytes32",
          "name": "neededRole",
          "type": "bytes32"
        }
      ],
      "name": "AccessControlUnauthorizedAccount",
      "type": "error"
    },
    {
      "inputs": [
        {
          "internalType": "address",
          "name": "target",
          "type": "address"
        }
      ],
      "name": "AddressEmptyCode",
      "type": "error"
    },
    {
      "inputs": [],
      "name": "AlreadyTermContractPaired",
      "type": "error"
    },
    {
      "inputs": [],
      "name": "AuctionNotClosed",
      "type": "error"
    },
    {
      "inputs": [],
      "name": "AuctionNotOpen",
      "type": "error"
    },
    {
      "inputs": [],
      "name": "AuctionNotRevealing",
      "type": "error"
    },
    {
      "inputs": [
        {
          "internalType": "uint256",
          "name": "reveal",
          "type": "uint256"
        },
        {
          "internalType": "uint256",
          "name": "end",
          "type": "uint256"
        }
      ],
      "name": "AuctionRevealsAfterEnd",
      "type": "error"
    },
    {
      "inputs": [
        {
          "internalType": "uint256",
          "name": "start",
          "type": "uint256"
        },
        {
          "internalType": "uint256",
          "name": "reveal",
          "type": "uint256"
        }
      ],
      "name": "AuctionStartsAfterReveal",
      "type": "error"
    },
    {
      "inputs": [],
      "name": "BidAlreadyRevealed",
      "type": "error"
    },
    {
      "inputs": [
        {
          "internalType": "uint256",
          "name": "amount",
          "type": "uint256"
        }
      ],
      "name": "BidAmountTooLow",
      "type": "error"
    },
    {
      "inputs": [
        {
          "internalType": "uint256",
          "name": "bidCount",
          "type": "uint256"
        }
      ],
      "name": "BidCountIncorrect",
      "type": "error"
    },
    {
      "inputs": [],
      "name": "BidNotOwned",
      "type": "error"
    },
    {
      "inputs": [
        {
          "internalType": "bytes32",
          "name": "bidId",
          "type": "bytes32"
        }
      ],
      "name": "BidNotRevealed",
      "type": "error"
    },
    {
      "inputs": [
        {
          "internalType": "bytes32",
          "name": "id",
          "type": "bytes32"
        }
      ],
      "name": "BidPriceModified",
      "type": "error"
    },
    {
      "inputs": [
        {
          "internalType": "bytes32",
          "name": "bidId",
          "type": "bytes32"
        }
      ],
      "name": "BidRevealed",
      "type": "error"
    },
    {
      "inputs": [],
      "name": "CollateralAmountTooLow",
      "type": "error"
    },
    {
      "inputs": [
        {
          "internalType": "address",
          "name": "expected",
          "type": "address"
        },
        {
          "internalType": "address",
          "name": "actual",
          "type": "address"
        }
      ],
      "name": "CollateralTokenMismatch",
      "type": "error"
    },
    {
      "inputs": [
        {
          "internalType": "address",
          "name": "token",
          "type": "address"
        }
      ],
      "name": "CollateralTokenNotApproved",
      "type": "error"
    },
    {
      "inputs": [
        {
          "internalType": "address",
          "name": "implementation",
          "type": "address"
        }
      ],
      "name": "ERC1967InvalidImplementation",
      "type": "error"
    },
    {
      "inputs": [],
      "name": "ERC1967NonPayable",
      "type": "error"
    },
    {
      "inputs": [],
      "name": "FailedCall",
      "type": "error"
    },
    {
      "inputs": [
        {
          "internalType": "bytes32",
          "name": "bidId",
          "type": "bytes32"
        }
      ],
      "name": "GeneratingExistingBid",
      "type": "error"
    },
    {
      "inputs": [],
      "name": "InvalidInitialization",
      "type": "error"
    },
    {
      "inputs": [],
      "name": "InvalidPurchaseToken",
      "type": "error"
    },
    {
      "inputs": [],
      "name": "InvalidSelfReferral",
      "type": "error"
    },
    {
      "inputs": [],
      "name": "InvalidTermRepoServicer",
      "type": "error"
    },
    {
      "inputs": [],
      "name": "LockingPaused",
      "type": "error"
    },
    {
      "inputs": [],
      "name": "MaxBidCountReached",
      "type": "error"
    },
    {
      "inputs": [],
      "name": "NoCollateralToUnlock",
      "type": "error"
    },
    {
      "inputs": [
        {
          "internalType": "bytes32",
          "name": "bidId",
          "type": "bytes32"
        }
      ],
      "name": "NonExistentBid",
      "type": "error"
    },
    {
      "inputs": [
        {
          "internalType": "bytes32",
          "name": "bidId",
          "type": "bytes32"
        }
      ],
      "name": "NonExpiredRolloverBid",
      "type": "error"
    },
    {
      "inputs": [
        {
          "internalType": "bytes32",
          "name": "id",
          "type": "bytes32"
        }
      ],
      "name": "NonRolloverBid",
      "type": "error"
    },
    {
      "inputs": [],
      "name": "NotInitializing",
      "type": "error"
    },
    {
      "inputs": [
        {
          "internalType": "address",
          "name": "token",
          "type": "address"
        }
      ],
      "name": "PurchaseTokenNotApproved",
      "type": "error"
    },
    {
      "inputs": [],
      "name": "ReentrancyGuardReentrantCall",
      "type": "error"
    },
    {
      "inputs": [],
      "name": "RevealedBidsNotSorted",
      "type": "error"
    },
    {
      "inputs": [],
      "name": "RolloverBid",
      "type": "error"
    },
    {
      "inputs": [
        {
          "internalType": "bytes32",
          "name": "bidId",
          "type": "bytes32"
        }
      ],
      "name": "RolloverBidExpired",
      "type": "error"
    },
    {
      "inputs": [],
      "name": "RolloverBidInShortfall",
      "type": "error"
    },
    {
      "inputs": [
        {
          "internalType": "bytes32",
          "name": "id",
          "type": "bytes32"
        },
        {
          "internalType": "uint256",
          "name": "maxPrice",
          "type": "uint256"
        }
      ],
      "name": "TenderPriceTooHigh",
      "type": "error"
    },
    {
      "inputs": [],
      "name": "TermContractsPaused",
      "type": "error"
    },
    {
      "inputs": [],
      "name": "UUPSUnauthorizedCallContext",
      "type": "error"
    },
    {
      "inputs": [
        {
          "internalType": "bytes32",
          "name": "slot",
          "type": "bytes32"
        }
      ],
      "name": "UUPSUnsupportedProxiableUUID",
      "type": "error"
    },
    {
      "inputs": [],
      "name": "UnlockingPaused",
      "type": "error"
    },
    {
      "anonymous": false,
      "inputs": [
        {
          "indexed": false,
          "internalType": "uint64",
          "name": "version",
          "type": "uint64"
        }
      ],
      "name": "Initialized",
      "type": "event"
    },
    {
      "anonymous": false,
      "inputs": [
        {
          "indexed": true,
          "internalType": "bytes32",
          "name": "role",
          "type": "bytes32"
        },
        {
          "indexed": true,
          "internalType": "bytes32",
          "name": "previousAdminRole",
          "type": "bytes32"
        },
        {
          "indexed": true,
          "internalType": "bytes32",
          "name": "newAdminRole",
          "type": "bytes32"
        }
      ],
      "name": "RoleAdminChanged",
      "type": "event"
    },
    {
      "anonymous": false,
      "inputs": [
        {
          "indexed": true,
          "internalType": "bytes32",
          "name": "role",
          "type": "bytes32"
        },
        {
          "indexed": true,
          "internalType": "address",
          "name": "account",
          "type": "address"
        },
        {
          "indexed": true,
          "internalType": "address",
          "name": "sender",
          "type": "address"
        }
      ],
      "name": "RoleGranted",
      "type": "event"
    },
    {
      "anonymous": false,
      "inputs": [
        {
          "indexed": true,
          "internalType": "bytes32",
          "name": "role",
          "type": "bytes32"
        },
        {
          "indexed": true,
          "internalType": "address",
          "name": "account",
          "type": "address"
        },
        {
          "indexed": true,
          "internalType": "address",
          "name": "sender",
          "type": "address"
        }
      ],
      "name": "RoleRevoked",
      "type": "event"
    },
    {
      "anonymous": false,
      "inputs": [
        {
          "indexed": true,
          "internalType": "address",
          "name": "implementation",
          "type": "address"
        }
      ],
      "name": "Upgraded",
      "type": "event"
    },
    {
      "inputs": [],
      "name": "ADMIN_ROLE",
      "outputs": [
        {
          "internalType": "bytes32",
          "name": "",
          "type": "bytes32"
        }
      ],
      "stateMutability": "view",
      "type": "function"
    },
    {
      "inputs": [],
      "name": "AUCTIONEER_ROLE",
      "outputs": [
        {
          "internalType": "bytes32",
          "name": "",
          "type": "bytes32"
        }
      ],
      "stateMutability": "view",
      "type": "function"
    },
    {
      "inputs": [],
      "name": "DEFAULT_ADMIN_ROLE",
      "outputs": [
        {
          "internalType": "bytes32",
          "name": "",
          "type": "bytes32"
        }
      ],
      "stateMutability": "view",
      "type": "function"
    },
    {
      "inputs": [],
      "name": "DEVOPS_ROLE",
      "outputs": [
        {
          "internalType": "bytes32",
          "name": "",
          "type": "bytes32"
        }
      ],
      "stateMutability": "view",
      "type": "function"
    },
    {
      "inputs": [],
      "name": "DIAMOND_ROLE",
      "outputs": [
        {
          "internalType": "bytes32",
          "name": "",
          "type": "bytes32"
        }
      ],
      "stateMutability": "view",
      "type": "function"
    },
    {
      "inputs": [],
      "name": "INITIALIZER_ROLE",
      "outputs": [
        {
          "internalType": "bytes32",
          "name": "",
          "type": "bytes32"
        }
      ],
      "stateMutability": "view",
      "type": "function"
    },
    {
      "inputs": [],
      "name": "MAX_BID_COUNT",
      "outputs": [
        {
          "internalType": "uint256",
          "name": "",
          "type": "uint256"
        }
      ],
      "stateMutability": "view",
      "type": "function"
    },
    {
      "inputs": [],
      "name": "MAX_BID_PRICE",
      "outputs": [
        {
          "internalType": "uint256",
          "name": "",
          "type": "uint256"
        }
      ],
      "stateMutability": "view",
      "type": "function"
    },
    {
      "inputs": [],
      "name": "MINIMUM_ROLLOVER_TENDER_DIVISOR",
      "outputs": [
        {
          "internalType": "uint256",
          "name": "",
          "type": "uint256"
        }
      ],
      "stateMutability": "view",
      "type": "function"
    },
    {
      "inputs": [],
      "name": "ROLLOVER_MANAGER",
      "outputs": [
        {
          "internalType": "bytes32",
          "name": "",
          "type": "bytes32"
        }
      ],
      "stateMutability": "view",
      "type": "function"
    },
    {
      "inputs": [],
      "name": "THREESIXTY_DAYCOUNT_SECONDS",
      "outputs": [
        {
          "internalType": "uint256",
          "name": "",
          "type": "uint256"
        }
      ],
      "stateMutability": "view",
      "type": "function"
    },
    {
      "inputs": [],
      "name": "UPGRADE_INTERFACE_VERSION",
      "outputs": [
        {
          "internalType": "string",
          "name": "",
          "type": "string"
        }
      ],
      "stateMutability": "view",
      "type": "function"
    },
    {
      "inputs": [],
      "name": "auctionEndTime",
      "outputs": [
        {
          "internalType": "uint256",
          "name": "",
          "type": "uint256"
        }
      ],
      "stateMutability": "view",
      "type": "function"
    },
    {
      "inputs": [],
      "name": "auctionStartTime",
      "outputs": [
        {
          "internalType": "uint256",
          "name": "",
          "type": "uint256"
        }
      ],
      "stateMutability": "view",
      "type": "function"
    },
    {
      "inputs": [
        {
          "internalType": "bytes32",
          "name": "id",
          "type": "bytes32"
        },
        {
          "internalType": "address",
          "name": "bidder",
          "type": "address"
        },
        {
          "internalType": "address[]",
          "name": "bidCollateralTokens",
          "type": "address[]"
        },
        {
          "internalType": "uint256[]",
          "name": "amounts",
          "type": "uint256[]"
        }
      ],
      "name": "auctionUnlockBid",
      "outputs": [],
      "stateMutability": "nonpayable",
      "type": "function"
    },
    {
      "inputs": [],
      "name": "bidCount",
      "outputs": [
        {
          "internalType": "uint256",
          "name": "",
          "type": "uint256"
        }
      ],
      "stateMutability": "view",
      "type": "function"
    },
    {
      "inputs": [
        {
          "internalType": "contract IERC20",
          "name": "",
          "type": "address"
        }
      ],
      "name": "collateralTokens",
      "outputs": [
        {
          "internalType": "bool",
          "name": "",
          "type": "bool"
        }
      ],
      "stateMutability": "view",
      "type": "function"
    },
    {
      "inputs": [],
      "name": "dayCountFractionMantissa",
      "outputs": [
        {
          "internalType": "uint256",
          "name": "",
          "type": "uint256"
        }
      ],
      "stateMutability": "view",
      "type": "function"
    },
    {
      "inputs": [
        {
          "internalType": "bytes32[]",
          "name": "revealedBids",
          "type": "bytes32[]"
        },
        {
          "internalType": "bytes32[]",
          "name": "expiredRolloverBids",
          "type": "bytes32[]"
        },
        {
          "internalType": "bytes32[]",
          "name": "unrevealedBids",
          "type": "bytes32[]"
        }
      ],
      "name": "getAllBids",
      "outputs": [
        {
          "components": [
            {
              "internalType": "bytes32",
              "name": "id",
              "type": "bytes32"
            },
            {
              "internalType": "address",
              "name": "bidder",
              "type": "address"
            },
            {
              "internalType": "uint256",
              "name": "bidPriceRevealed",
              "type": "uint256"
            },
            {
              "internalType": "uint256",
              "name": "amount",
              "type": "uint256"
            },
            {
              "internalType": "uint256[]",
              "name": "collateralAmounts",
              "type": "uint256[]"
            },
            {
              "internalType": "address",
              "name": "purchaseToken",
              "type": "address"
            },
            {
              "internalType": "address[]",
              "name": "collateralTokens",
              "type": "address[]"
            },
            {
              "internalType": "bool",
              "name": "isRollover",
              "type": "bool"
            },
            {
              "internalType": "address",
              "name": "rolloverPairOffTermRepoServicer",
              "type": "address"
            }
          ],
          "internalType": "struct TermAuctionRevealedBid[]",
          "name": "",
          "type": "tuple[]"
        },
        {
          "components": [
            {
              "internalType": "bytes32",
              "name": "id",
              "type": "bytes32"
            },
            {
              "internalType": "address",
              "name": "bidder",
              "type": "address"
            },
            {
              "internalType": "bytes32",
              "name": "bidPriceHash",
              "type": "bytes32"
            },
            {
              "internalType": "uint256",
              "name": "bidPriceRevealed",
              "type": "uint256"
            },
            {
              "internalType": "uint256",
              "name": "amount",
              "type": "uint256"
            },
            {
              "internalType": "uint256[]",
              "name": "collateralAmounts",
              "type": "uint256[]"
            },
            {
              "internalType": "address",
              "name": "purchaseToken",
              "type": "address"
            },
            {
              "internalType": "address[]",
              "name": "collateralTokens",
              "type": "address[]"
            },
            {
              "internalType": "bool",
              "name": "isRollover",
              "type": "bool"
            },
            {
              "internalType": "address",
              "name": "rolloverPairOffTermRepoServicer",
              "type": "address"
            },
            {
              "internalType": "bool",
              "name": "isRevealed",
              "type": "bool"
            }
          ],
          "internalType": "struct TermAuctionBid[]",
          "name": "",
          "type": "tuple[]"
        }
      ],
      "stateMutability": "nonpayable",
      "type": "function"
    },
    {
      "inputs": [
        {
          "internalType": "bytes32",
          "name": "role",
          "type": "bytes32"
        }
      ],
      "name": "getRoleAdmin",
      "outputs": [
        {
          "internalType": "bytes32",
          "name": "",
          "type": "bytes32"
        }
      ],
      "stateMutability": "view",
      "type": "function"
    },
    {
      "inputs": [
        {
          "internalType": "bytes32",
          "name": "role",
          "type": "bytes32"
        },
        {
          "internalType": "address",
          "name": "account",
          "type": "address"
        }
      ],
      "name": "grantRole",
      "outputs": [],
      "stateMutability": "nonpayable",
      "type": "function"
    },
    {
      "inputs": [
        {
          "internalType": "bytes32",
          "name": "role",
          "type": "bytes32"
        },
        {
          "internalType": "address",
          "name": "account",
          "type": "address"
        }
      ],
      "name": "hasRole",
      "outputs": [
        {
          "internalType": "bool",
          "name": "",
          "type": "bool"
        }
      ],
      "stateMutability": "view",
      "type": "function"
    },
    {
      "inputs": [
        {
          "internalType": "string",
          "name": "termRepoId_",
          "type": "string"
        },
        {
          "internalType": "string",
          "name": "auctionId_",
          "type": "string"
        },
        {
          "internalType": "uint256",
          "name": "auctionStartTime_",
          "type": "uint256"
        },
        {
          "internalType": "uint256",
          "name": "revealTime_",
          "type": "uint256"
        },
        {
          "internalType": "uint256",
          "name": "auctionEndTime_",
          "type": "uint256"
        },
        {
          "internalType": "uint256",
          "name": "redemptionTimestamp_",
          "type": "uint256"
        },
        {
          "internalType": "uint256",
          "name": "minimumTenderAmount_",
          "type": "uint256"
        },
        {
          "internalType": "address",
          "name": "purchaseToken_",
          "type": "address"
        },
        {
          "internalType": "contract IERC20[]",
          "name": "collateralTokens_",
          "type": "address[]"
        },
        {
          "internalType": "address",
          "name": "termInitializer_",
          "type": "address"
        }
      ],
      "name": "initialize",
      "outputs": [],
      "stateMutability": "nonpayable",
      "type": "function"
    },
    {
      "inputs": [
        {
          "components": [
            {
              "internalType": "bytes32",
              "name": "id",
              "type": "bytes32"
            },
            {
              "internalType": "address",
              "name": "bidder",
              "type": "address"
            },
            {
              "internalType": "bytes32",
              "name": "bidPriceHash",
              "type": "bytes32"
            },
            {
              "internalType": "uint256",
              "name": "amount",
              "type": "uint256"
            },
            {
              "internalType": "uint256[]",
              "name": "collateralAmounts",
              "type": "uint256[]"
            },
            {
              "internalType": "address",
              "name": "purchaseToken",
              "type": "address"
            },
            {
              "internalType": "address[]",
              "name": "collateralTokens",
              "type": "address[]"
            }
          ],
          "internalType": "struct TermAuctionBidSubmission[]",
          "name": "bidSubmissions",
          "type": "tuple[]"
        }
      ],
      "name": "lockBids",
      "outputs": [
        {
          "internalType": "bytes32[]",
          "name": "",
          "type": "bytes32[]"
        }
      ],
      "stateMutability": "nonpayable",
      "type": "function"
    },
    {
      "inputs": [
        {
          "components": [
            {
              "internalType": "bytes32",
              "name": "id",
              "type": "bytes32"
            },
            {
              "internalType": "address",
              "name": "bidder",
              "type": "address"
            },
            {
              "internalType": "bytes32",
              "name": "bidPriceHash",
              "type": "bytes32"
            },
            {
              "internalType": "uint256",
              "name": "amount",
              "type": "uint256"
            },
            {
              "internalType": "uint256[]",
              "name": "collateralAmounts",
              "type": "uint256[]"
            },
            {
              "internalType": "address",
              "name": "purchaseToken",
              "type": "address"
            },
            {
              "internalType": "address[]",
              "name": "collateralTokens",
              "type": "address[]"
            }
          ],
          "internalType": "struct TermAuctionBidSubmission[]",
          "name": "bidSubmissions",
          "type": "tuple[]"
        },
        {
          "internalType": "address",
          "name": "referralAddress",
          "type": "address"
        }
      ],
      "name": "lockBidsWithReferral",
      "outputs": [
        {
          "internalType": "bytes32[]",
          "name": "",
          "type": "bytes32[]"
        }
      ],
      "stateMutability": "nonpayable",
      "type": "function"
    },
    {
      "inputs": [
        {
          "internalType": "address",
          "name": "bidder",
          "type": "address"
        },
        {
          "components": [
            {
              "internalType": "bytes32",
              "name": "id",
              "type": "bytes32"
            },
            {
              "internalType": "address",
              "name": "bidder",
              "type": "address"
            },
            {
              "internalType": "bytes32",
              "name": "bidPriceHash",
              "type": "bytes32"
            },
            {
              "internalType": "uint256",
              "name": "amount",
              "type": "uint256"
            },
            {
              "internalType": "uint256[]",
              "name": "collateralAmounts",
              "type": "uint256[]"
            },
            {
              "internalType": "address",
              "name": "purchaseToken",
              "type": "address"
            },
            {
              "internalType": "address[]",
              "name": "collateralTokens",
              "type": "address[]"
            }
          ],
          "internalType": "struct TermAuctionBidSubmission[]",
          "name": "bidSubmissions",
          "type": "tuple[]"
        },
        {
          "internalType": "address",
          "name": "referralAddress",
          "type": "address"
        }
      ],
      "name": "lockBidsWithReferral",
      "outputs": [
        {
          "internalType": "bytes32[]",
          "name": "",
          "type": "bytes32[]"
        }
      ],
      "stateMutability": "nonpayable",
      "type": "function"
    },
    {
      "inputs": [
        {
          "components": [
            {
              "internalType": "bytes32",
              "name": "id",
              "type": "bytes32"
            },
            {
              "internalType": "address",
              "name": "bidder",
              "type": "address"
            },
            {
              "internalType": "bytes32",
              "name": "bidPriceHash",
              "type": "bytes32"
            },
            {
              "internalType": "uint256",
              "name": "bidPriceRevealed",
              "type": "uint256"
            },
            {
              "internalType": "uint256",
              "name": "amount",
              "type": "uint256"
            },
            {
              "internalType": "uint256[]",
              "name": "collateralAmounts",
              "type": "uint256[]"
            },
            {
              "internalType": "address",
              "name": "purchaseToken",
              "type": "address"
            },
            {
              "internalType": "address[]",
              "name": "collateralTokens",
              "type": "address[]"
            },
            {
              "internalType": "bool",
              "name": "isRollover",
              "type": "bool"
            },
            {
              "internalType": "address",
              "name": "rolloverPairOffTermRepoServicer",
              "type": "address"
            },
            {
              "internalType": "bool",
              "name": "isRevealed",
              "type": "bool"
            }
          ],
          "internalType": "struct TermAuctionBid",
          "name": "bid",
          "type": "tuple"
        }
      ],
      "name": "lockRolloverBid",
      "outputs": [],
      "stateMutability": "nonpayable",
      "type": "function"
    },
    {
      "inputs": [
        {
          "internalType": "bytes32",
          "name": "id",
          "type": "bytes32"
        }
      ],
      "name": "lockedBid",
      "outputs": [
        {
          "components": [
            {
              "internalType": "bytes32",
              "name": "id",
              "type": "bytes32"
            },
            {
              "internalType": "address",
              "name": "bidder",
              "type": "address"
            },
            {
              "internalType": "bytes32",
              "name": "bidPriceHash",
              "type": "bytes32"
            },
            {
              "internalType": "uint256",
              "name": "bidPriceRevealed",
              "type": "uint256"
            },
            {
              "internalType": "uint256",
              "name": "amount",
              "type": "uint256"
            },
            {
              "internalType": "uint256[]",
              "name": "collateralAmounts",
              "type": "uint256[]"
            },
            {
              "internalType": "address",
              "name": "purchaseToken",
              "type": "address"
            },
            {
              "internalType": "address[]",
              "name": "collateralTokens",
              "type": "address[]"
            },
            {
              "internalType": "bool",
              "name": "isRollover",
              "type": "bool"
            },
            {
              "internalType": "address",
              "name": "rolloverPairOffTermRepoServicer",
              "type": "address"
            },
            {
              "internalType": "bool",
              "name": "isRevealed",
              "type": "bool"
            }
          ],
          "internalType": "struct TermAuctionBid",
          "name": "",
          "type": "tuple"
        }
      ],
      "stateMutability": "view",
      "type": "function"
    },
    {
      "inputs": [],
      "name": "lockingPaused",
      "outputs": [
        {
          "internalType": "bool",
          "name": "",
          "type": "bool"
        }
      ],
      "stateMutability": "view",
      "type": "function"
    },
    {
      "inputs": [],
      "name": "minimumTenderAmount",
      "outputs": [
        {
          "internalType": "uint256",
          "name": "",
          "type": "uint256"
        }
      ],
      "stateMutability": "view",
      "type": "function"
    },
    {
      "inputs": [
        {
          "internalType": "address",
          "name": "rolloverManager",
          "type": "address"
        }
      ],
      "name": "pairRolloverManager",
      "outputs": [],
      "stateMutability": "nonpayable",
      "type": "function"
    },
    {
      "inputs": [
        {
          "internalType": "address",
          "name": "termAuction_",
          "type": "address"
        },
        {
          "internalType": "contract ITermRepoServicer",
          "name": "termRepoServicer_",
          "type": "address"
        },
        {
          "internalType": "contract ITermEventEmitter",
          "name": "emitter_",
          "type": "address"
        },
        {
          "internalType": "contract ITermRepoCollateralManager",
          "name": "termRepoCollateralManager_",
          "type": "address"
        },
        {
          "internalType": "contract ITermPriceOracle",
          "name": "termPriceOracle_",
          "type": "address"
        },
        {
          "internalType": "address",
          "name": "devopsMultisig_",
          "type": "address"
        },
        {
          "internalType": "address",
          "name": "adminWallet_",
          "type": "address"
        },
        {
          "internalType": "address",
          "name": "termDiamond_",
          "type": "address"
        }
      ],
      "name": "pairTermContracts",
      "outputs": [],
      "stateMutability": "nonpayable",
      "type": "function"
    },
    {
      "inputs": [],
      "name": "pauseLocking",
      "outputs": [],
      "stateMutability": "nonpayable",
      "type": "function"
    },
    {
      "inputs": [],
      "name": "pauseUnlocking",
      "outputs": [],
      "stateMutability": "nonpayable",
      "type": "function"
    },
    {
      "inputs": [],
      "name": "proxiableUUID",
      "outputs": [
        {
          "internalType": "bytes32",
          "name": "",
          "type": "bytes32"
        }
      ],
      "stateMutability": "view",
      "type": "function"
    },
    {
      "inputs": [],
      "name": "purchaseToken",
      "outputs": [
        {
          "internalType": "address",
          "name": "",
          "type": "address"
        }
      ],
      "stateMutability": "view",
      "type": "function"
    },
    {
      "inputs": [
        {
          "internalType": "bytes32",
          "name": "role",
          "type": "bytes32"
        },
        {
          "internalType": "address",
          "name": "callerConfirmation",
          "type": "address"
        }
      ],
      "name": "renounceRole",
      "outputs": [],
      "stateMutability": "nonpayable",
      "type": "function"
    },
    {
      "inputs": [
        {
          "internalType": "bytes32[]",
          "name": "ids",
          "type": "bytes32[]"
        },
        {
          "internalType": "uint256[]",
          "name": "prices",
          "type": "uint256[]"
        },
        {
          "internalType": "uint256[]",
          "name": "nonces",
          "type": "uint256[]"
        }
      ],
      "name": "revealBids",
      "outputs": [],
      "stateMutability": "nonpayable",
      "type": "function"
    },
    {
      "inputs": [],
      "name": "revealTime",
      "outputs": [
        {
          "internalType": "uint256",
          "name": "",
          "type": "uint256"
        }
      ],
      "stateMutability": "view",
      "type": "function"
    },
    {
      "inputs": [
        {
          "internalType": "bytes32",
          "name": "role",
          "type": "bytes32"
        },
        {
          "internalType": "address",
          "name": "account",
          "type": "address"
        }
      ],
      "name": "revokeRole",
      "outputs": [],
      "stateMutability": "nonpayable",
      "type": "function"
    },
    {
      "inputs": [
        {
          "internalType": "bytes4",
          "name": "interfaceId",
          "type": "bytes4"
        }
      ],
      "name": "supportsInterface",
      "outputs": [
        {
          "internalType": "bool",
          "name": "",
          "type": "bool"
        }
      ],
      "stateMutability": "view",
      "type": "function"
    },
    {
      "inputs": [],
      "name": "termAuction",
      "outputs": [
        {
          "internalType": "contract ITermAuction",
          "name": "",
          "type": "address"
        }
      ],
      "stateMutability": "view",
      "type": "function"
    },
    {
      "inputs": [],
      "name": "termAuctionId",
      "outputs": [
        {
          "internalType": "bytes32",
          "name": "",
          "type": "bytes32"
        }
      ],
      "stateMutability": "view",
      "type": "function"
    },
    {
      "inputs": [],
      "name": "termRepoCollateralManager",
      "outputs": [
        {
          "internalType": "contract ITermRepoCollateralManager",
          "name": "",
          "type": "address"
        }
      ],
      "stateMutability": "view",
      "type": "function"
    },
    {
      "inputs": [],
      "name": "termRepoId",
      "outputs": [
        {
          "internalType": "bytes32",
          "name": "",
          "type": "bytes32"
        }
      ],
      "stateMutability": "view",
      "type": "function"
    },
    {
      "inputs": [],
      "name": "termRepoServicer",
      "outputs": [
        {
          "internalType": "contract ITermRepoServicer",
          "name": "",
          "type": "address"
        }
      ],
      "stateMutability": "view",
      "type": "function"
    },
    {
      "inputs": [
        {
          "internalType": "address",
          "name": "bidder",
          "type": "address"
        },
        {
          "internalType": "bytes32[]",
          "name": "ids",
          "type": "bytes32[]"
        }
      ],
      "name": "unlockBids",
      "outputs": [],
      "stateMutability": "nonpayable",
      "type": "function"
    },
    {
      "inputs": [
        {
          "internalType": "bytes32[]",
          "name": "ids",
          "type": "bytes32[]"
        }
      ],
      "name": "unlockBids",
      "outputs": [],
      "stateMutability": "nonpayable",
      "type": "function"
    },
    {
      "inputs": [],
      "name": "unlockingPaused",
      "outputs": [
        {
          "internalType": "bool",
          "name": "",
          "type": "bool"
        }
      ],
      "stateMutability": "view",
      "type": "function"
    },
    {
      "inputs": [],
      "name": "unpauseLocking",
      "outputs": [],
      "stateMutability": "nonpayable",
      "type": "function"
    },
    {
      "inputs": [],
      "name": "unpauseUnlocking",
      "outputs": [],
      "stateMutability": "nonpayable",
      "type": "function"
    },
    {
      "inputs": [
        {
          "internalType": "address",
          "name": "newImplementation",
          "type": "address"
        },
        {
          "internalType": "bytes",
          "name": "data",
          "type": "bytes"
        }
      ],
      "name": "upgradeToAndCall",
      "outputs": [],
      "stateMutability": "payable",
      "type": "function"
    },
    {
      "inputs": [],
      "name": "version",
      "outputs": [
        {
          "internalType": "string",
          "name": "",
          "type": "string"
        }
      ],
      "stateMutability": "view",
      "type": "function"
    }
  ],
  "bytecode": "0x60a08060405234620000d157306080527ff0c57e16840df040f15088dc2f81fe391c3923bec73e23a9662efc9c229c6a009081549060ff8260401c16620000c257506001600160401b036002600160401b0319828216016200007c575b604051615ff79081620000d782396080518181816123b6015261248c0152f35b6001600160401b031990911681179091556040519081527fc7f505b2f371ae2175ee4913f4499e1f2633a7b5936321eed1cdaeb6115181d290602090a13880806200005c565b63f92ee8a960e01b8152600490fd5b600080fdfe60c080604052600436101561001357600080fd5b600060a05260a0513560e01c90816301ffc9a714614130575080630283ce5b14613fa957806302b65fb014613f7f57806311a15de114613f625780631f64270514613ee4578063201a662514613eba578063248a9ca314613e7c57806325a2471a14613e5d57806327df3d3e14613e335780632f2ff15d14613de557806331788a4114613c02578063323c618314613881578063357a77d21461385757806336568abe1461381057806338665e9f146130445780633de81dc41461301a5780633e836b3d14612fa25780633efbfd8c14612f7b578063408f2e1014612f5e57806341da543214612ee5578063475d266a146127135780634b449cba146126f45780634f1ef2861461240e57806352d1902d146123a257806354fd4d501461235d5780635c164567146121b45780636d7331411461219557806375b238fc1461216b5780637a6944c51461214c5780637d33274f146121225780637dae3fb714611f3c5780637e3f71d514611f15578063811b86cd14611eec57806387bee01714611d155780638a5cd91e14611c8257806391d1485414611c26578063a217fddf14611c08578063a95c4d6214611bde578063ad3cb1cc14611b9f578063ae91fa3314611b7a578063b40a562714611b5b578063ba829d7114611b3c578063ba98b5ef14611af1578063cb63a045146111bb578063cc33cb4514611191578063cc5b6e4a14611171578063cfe9232b14611147578063cffbc29714611106578063d547741f146110b1578063d6725d0c14611091578063e61f00e614610a44578063eb54f9ec14610a255763f9202d631461026c57600080fd5b346108115761027a366143ac565b6080919091529293919061028c614ba8565b61029f8461029a838861530d565b61530d565b600f54809103610a0d575060a0515b818110610911575050508290826102c48561531a565b9360a0519260a05160a0515b8881106106985750506102fb6102e5866142f5565b956102f360405197886142d2565b8087526142f5565b96601f1980980160a0515b81811061068157505060a05190815b81811061059a57505050506103299061531a565b9360a0519160a0515b8181106104e457505060a051915b8383106104b05750505050600f546104985790604051928392604084016040855281518091526060906060860191602060608360051b89010194019260a051915b8383106103ef5750505050508381036020850152825190818152602081016020808460051b84010195019360a051925b8484106103be5787870388f35b919395819395975060206103dd82600194868495030188528a51614482565b980194019401918796959394916103b1565b91939697509193602080600192605f198c8203018652895190610120918051825261046d61044e8583015194888060a01b038096168786015260408401516040860152898401518a860152608090808286015192870152850190614411565b60a08581850151169085015260c0808401519085830390860152614445565b9260e0820151151560e084015261010080920151169101529801930193019092889796949293610381565b634e487b7160e01b60a051526001600452602460a051fd5b6104dc6001916104c085856145f5565b516104cb828a6145f5565b526104d681896145f5565b5061536a565b920191610340565b6104f18183608051614520565b3560a05152600e602052604060a05120936004850154156105755760ff600886015460a81c16610550579061054a61054360019361052e88614a23565b610538828d6145f5565b526104d6818c6145f5565b95546155d2565b01610332565b602461055f8385608051614520565b60405163b53dcb6360e01b815290356004820152fd5b60246105848385608051614520565b6040516311ebb27f60e11b815290356004820152fd5b6105a5818386614520565b3560a05152600e602052604060a0512092600484015415610677579061067161066a838b61065f6001966105d88a614a23565b926105e1615608565b50835193898060a01b039081602082015116916060820151608083015160a0840151908360c0860151169260e086015194610120610100880151151597015116966040519b61062f8d614265565b8c5260208c015260408b015260608a0152608089015260a088015260c087015260e08601526101008501526145f5565b526104d6818d6145f5565b94546155d2565b01610315565b9250600190610671565b60209061068c615608565b82828b01015201610306565b6106a3818a85614520565b3560a05152602091600e8352604060a05120906004820180541561090457600383019182548091116000146106e4576040516370dcb33760e11b8152600490fd5b9460088085015460ff808260a81c16156108eb578116610824575b5050509061074791549054604051906107268261071f8160078901614815565b03836142d2565b604051926107428461073b8160058a016147d7565b03856142d2565b615b40565b610757575b506001905b016102d0565b969560018060a01b03600c541694600154958954813b156108115760405197635bcf235d60e01b8952600489015260248801528660448160a0519360a051905af19081156108175789968b926107f0575b506107dd836104d6600196956107ea956107cd6107c76107e39761536a565b9c614a23565b6107d783836145f5565b526145f5565b986155fb565b98546155d2565b9061074c565b9096506108009150929192614236565b60a0516108115790888895386107a8565b60a05180fd5b6040513d60a051823e3d90fd5b604051631320834f60e01b8152911c6001600160a01b031691908181600481865afa9182156108175760a051926108b8575b5050421161089f576108698c91856156b3565b156108755738806106ff565b61089a92506107e39150896104d6859c9b6107dd936107cd6107c760019a999d61536a565b610751565b602484546040519063bcbe400960e01b82526004820152fd5b90809250813d83116108e4575b6108cf81836142d2565b810103126108df57513880610856565b600080fd5b503d6108c5565b60248754604051906362d45c6f60e11b82526004820152fd5b6024610584858e89614520565b61091c818385614520565b3560a051526020600e8152604060a0512090600482015415610a005760088083015460ff8116156109dd57604051631320834f60e01b8152918391839160049183911c6001600160a01b03165afa9182156108175760a051926109af575b50504211156109965790610990600192546155d2565b016102ae565b6024905460405190631a034f1360e11b82526004820152fd5b90809250813d83116109d6575b6109c681836142d2565b810103126108df5751388061097a565b503d6109bc565b60246109ea86888a614520565b60405163103dad4560e11b815290356004820152fd5b6024610584848688614520565b60249060405190633c123a1960e01b82526004820152fd5b346108115760a051366003190112610811576020600254604051908152f35b3461081157600319602036820112610811576004356001600160401b03811161081157610160816004019282360301126108115760ff60105460081c1661107f57600a546040516325c3ed4760e01b815290602090829060049082906001600160a01b03165afa9081156108175760049160209160a05191611052575b50604051631b6685b560e21b815292839182906001600160a01b03165afa9081156108175760a05191611023575b5061101157336000908152600080516020615e428339815191526020526040902054600080516020615f228339815191529060ff1615610ff35750610b32615034565b6003544211610fe157608481013580610c32575050358060a05152600e6020526004604060a05120015415610c1a578060a05152600e602052610b79604060a05120614b5a565b600f546000198101908111610c0257600f5560018060a01b03600c541660015491813b1561081157604051926307fec0e360e01b8452600484015260248301528160448160a0519360a051905af1801561081757610bec575b505b6001600080516020615f428339815191525560a05180f35b610bf590614236565b60a0516108115780610bd2565b634e487b7160e01b60a051526011600452602460a051fd5b602490604051906311ebb27f60e11b82526004820152fd5b60405192610c3f84614249565b358352610c4e602483016141c5565b60208401526044820135604084015260648201356060840152608083015260a48101356001600160401b03811161081157610c8f906004369184010161466e565b60a0830152610ca060c482016141c5565b60c083015260e48101356001600160401b03811161081157610d0091610ccf61014492600436918401016146ce565b60e0850152610ce16101048201614ad8565b610100850152610cf461012482016141c5565b61012085015201614ad8565b6101408201526096600f541015610fcf5761010081015115610fb6576080810151600a600554048110610f9e5750805160a05152600e6020526004604060a0512001541560018060a01b036007541660018060a01b0360c08401511603610f8c57815160a05152600e602052604060a05120825181556001810160018060a01b0360208501511660018060a01b031982541617905560408301516002820155606083015160038201556080830151600482015560a083015180519060018060401b038211610f6057602090610dd88360058601614b15565b016005830160a05152602060a0512060a0515b838110610f78575050505060c08301516006820180546001600160a01b0319166001600160a01b039290921691909117905560e083015180519060078301906001600160401b038311610f6057602090610e458484614b15565b019060a05152602060a0512060a0515b838110610f4357505050506008610eac9101610e78610100850151151582614609565b6101208401518154610100600160a81b03191660089190911b610100600160a81b03161781556101408401511515906152f0565b610f2d575b60018060a01b03600c5416600154813b1561081157610eef60405193849263050ecc8960e11b84526004840152606060248401526064830190614482565b9160a0516044830152818060a05194039160a051905af1801561081757610f17575b50610bd4565b610f2090614236565b60a0516108115780610f11565b600f5460018101809111610c0257600f55610eb1565b82516001600160a01b031681830155602090920191600101610e55565b634e487b7160e01b60a051526041600452602460a051fd5b600190602084519401938184015501610deb565b60405163ed82d81b60e01b8152600490fd5b6024906040519063235c188560e01b82526004820152fd5b602490516040519063103dad4560e11b82526004820152fd5b6040516346f317d760e01b8152600490fd5b60405163f046007760e01b8152600490fd5b6044906040519063e2517d3f60e01b82523360048301526024820152fd5b60405163bbc439e160e01b8152600490fd5b611045915060203d60201161104b575b61103d81836142d2565b810190614587565b83610aef565b503d611033565b6110729150823d8411611078575b61106a81836142d2565b810190614568565b85610ac1565b503d611060565b60405163059e557960e41b8152600490fd5b346108115760a0513660031901126108115760206040516301da9c008152f35b34610811576040366003190112610811576110ff6004356110d0614183565b908060a05152600080516020615ee28339815191526020526110fa6001604060a051200154614c50565b615253565b5060a05180f35b34610811576020366003190112610811576001600160a01b03611127614199565b1660a051526008602052602060ff604060a0512054166040519015158152f35b346108115760a051366003190112610811576020604051600080516020615f828339815191528152f35b346108115760a05136600319011261081157602060a05154604051908152f35b346108115760a051366003190112610811576020604051600080516020615ec28339815191528152f35b34610811576060366003190112610811576111d4614199565b6024356001600160401b038111610811576111f39036906004016141d9565b90916044356001600160a01b03811690036108df5760035442118015611ae6575b610fe15760ff60105460081c1661107f57600a546040516325c3ed4760e01b815290602090829060049082906001600160a01b03165afa9081156108175760049160209160a05191611ac9575b50604051631b6685b560e21b815292839182906001600160a01b03165afa9081156108175760a05191611aaa575b506110115761129c615034565b6112a4614c18565b6001600160a01b0381811660443590911614611a9857906112c48161461a565b9160a051935b8285106112f5576001600080516020615f4283398151915255604051806112f1868261430c565b0390f35b90919261130b61130686868561464c565b614736565b60208101519094906001600160a01b0390811690851603611a19576096600f541015610fcf57845160a0805191909152600e602052516040902060040154159283611a2b57855160a05152600e60205260018060a01b036001604060a0512001541660018060a01b0360208801511603611a19578551945b60075460a08801516001600160a01b039081169116819003611a01575060a0515b60c088015180518210156114ce576001600160a01b03906113c69083906145f5565b511660a05152600860205260ff604060a0512054161561149c5785156113ef575b6001016113a4565b8660a05152600e60205261140b816007604060a0512001615064565b905460c08a015160039290921b1c6001600160a01b03908116916114309084906145f5565b5116146113e757878760a05152600e602052611478611457836007604060a0512001615064565b60018060a01b0391549060031b1c169260c060018060a01b039301516145f5565b51604051630b0a693160e31b8152928392611498921690600484016152d6565b0390fd5b60c08801516024916001600160a01b03916114b791906145f5565b5160405163052baa4960e31b815291166004820152fd5b5050919093929360608701516005548110610f9e57506114fc606088015160c089015160808a0151916153e1565b6119ef5760a0515b60c0880151805182101561173857856116b057508660a05152600e602052611534816005604060a0512001615064565b90549060031b1c8861154a8360808301516145f5565b518210156115eb5761158c60018060a01b03600954169261158685608060018060a01b0361157c8360c08901516145f5565b51169501516145f5565b5161459f565b823b15610811576115b79260405180809581946308e44a0760e21b835260a051963360048501614546565b039160a051905af18015610817576115d5575b506001905b01611504565b6115de90614236565b60a05161081157896115ca565b906115fa8360808401516145f5565b51811161160c575b50506001906115cf565b60018060a01b036009541661165460018060a01b036020850151169261164d86608060018060a01b036116438360c08b01516145f5565b51169701516145f5565b519061459f565b90803b1561081157611680936040518095819482936348717eb760e01b845260a0519760048501614546565b039160a051905af180156108175761169a575b8890611602565b6116a390614236565b60a0516108115789611693565b6009546001600160a01b03908116916116ca9084906145f5565b51166116da8360808c01516145f5565b51823b15610811576117069260405180809581946308e44a0760e21b835260a051963360048501614546565b039160a051905af1801561081757611722575b506001906115cf565b61172b90614236565b60a0516108115789611719565b5050602087015160408089015160608a015160808b015160a08c015160c0909c01519351959c999b979a969998969793946001600160a01b03948516949193911661178287614249565b8887526020870152604086015260a0516060860152608085015260a084015260c083015260e082015260a05161010082015260a05161012082015260a0516101408201528260a05152600e602052604060a05120815181556001810160018060a01b0360208401511660018060a01b031982541617905560408201516002820155606082015160038201556080820151600482015560a082015180519060018060401b038211610f605760209061183c8360058601614b15565b016005830160a05152602060a0512060a0515b8381106119db575050505060c08201516006820180546001600160a01b0319166001600160a01b039290921691909117905560e08201518051906001600160401b038211610f60576020906118a78360078601614b15565b016007830160a05152602060a0512060a0515b8381106119be57505050509061014060086119129301916118e2610100820151151584614609565b6101208101518354610100600160a81b03191660089190911b610100600160a81b031617835501511515906152f0565b6119a6575b60a05152600e602052604060a05120805461193283876145f5565b5260018060a01b03600c541690600154823b156108115761197092604051808095819463050ecc8960e11b835260a051966044359160048501614914565b039160a051905af1801561081757611990575b50600101939190916112ca565b61199990614236565b60a0516108115785611983565b600f54600181018111610c0257600101600f55611917565b82516001600160a01b0316818301556020909201916001016118ba565b60019060208451940193818401550161184f565b6040516354f8f85560e11b8152600490fd5b6024906040519063e34b641f60e01b82526004820152fd5b6040516305732abb60e51b8152600490fd5b85516040516020810191825260018060601b03198760601b1660408201523060601b605482015260488152611a5f8161429c565b5190208060a05152600e6020526004604060a051200154611a805794611383565b602490604051906310f5216760e21b82526004820152fd5b6040516333d8ca2d60e11b8152600490fd5b611ac3915060203d60201161104b5761103d81836142d2565b8461128f565b611ae09150823d84116110785761106a81836142d2565b86611261565b506002544210611214565b3461081157602036600319011261081157611b0a6149ce565b5060043560a05152600e6020526112f1611b28604060a05120614a23565b604051918291602083526020830190614482565b346108115760a051366003190112610811576020600354604051908152f35b346108115760a051366003190112610811576020600f54604051908152f35b346108115760a05136600319011261081157602060405168056bc75e2d631000008152f35b346108115760a051366003190112610811576112f1604051611bc0816142b7565b60058152640352e302e360dc1b602082015260405191829182614363565b346108115760a051366003190112610811576007546040516001600160a01b039091168152602090f35b346108115760a05136600319011261081157602060405160a0518152f35b3461081157604036600319011261081157611c3f614183565b60043560a05152600080516020615ee2833981519152602052604060a051209060018060a01b0316600052602052602060ff604060002054166040519015158152f35b346108115760a05136600319011261081157611c9c614be0565b6010805461ff001916610100179055600c5460015460a0515490916001600160a01b031690813b15610811576040519263210d6add60e21b8452600484015260248301528160448160a0519360a051905af1801561081757611cff575b60a05180f35b611d0890614236565b60a0516108115780611cf9565b346108115761010036600319011261081157611d2f614199565b6001600160a01b0360243581811692908390036108115760443592828416809403610811576064359280841680940361081157608435928184168094036108115760a4359180831683036108df5760c43581811681036108df57611d916141af565b336000908152600080516020615e828339815191526020526040902054909390600080516020615e628339815191529060ff1615610ff3575060105460ff8116611eda5760ff19166001176010558515611ec857611e2894611e16611e1c92611e229560018060a01b0319998a600a541617600a55811689600d541617600d55614d95565b50614e1b565b50614eb3565b50614f39565b50600c54928482851617600c55816009541617600955600b541617600b5560a051161760a05154906001546002546003546005549160065493853b156108115760405196632b6cea3160e01b8852600488015260248701523060448701526064860152608485015268056bc75e2d6310000060a485015260c484015260e4830152816101048160a0519360a051905af1801561081757611cff5760a05180f35b60405163a258508760e01b8152600490fd5b604051634ce377bb60e11b8152600490fd5b34610811576020366003190112610811576110ff611f08614199565b611f10614be0565b614d0f565b346108115760a05136600319011261081157602060ff60105460081c166040519015158152f35b3461081157602080600319360112610811576004356001600160401b03811161081157611f6d9036906004016141d9565b60ff60109392935460101c1661211057600a546040516325c3ed4760e01b81526001600160a01b039184908290600490829086165afa908115610817578291859160a051916120f3575b50600460405180948193631b6685b560e21b8352165afa9081156108175760a051916120d6575b5061101157611feb615034565b6002544210610fe1578260035442119182612084575b5050610fe15760a0515b81811061202a576001600080516020615f428339815191525560a05180f35b8061207e61203b6001938588614520565b35612047838689614520565b3560a05152600e8087526007604060a05120019061206685888b614520565b3560a0515287526005604060a051200191339061507c565b0161200b565b600d54604051638dfea9e760e01b8152935083916004918391165afa9081156108175760a051916120b9575b50158285612001565b6120d09150833d851161104b5761103d81836142d2565b846120b0565b6120ed9150843d861161104b5761103d81836142d2565b85611fde565b61210a9150823d84116110785761106a81836142d2565b87611fb7565b604051631370a4e760e31b8152600490fd5b346108115760a05136600319011261081157600d546040516001600160a01b039091168152602090f35b346108115760a051366003190112610811576020600654604051908152f35b346108115760a051366003190112610811576020604051600080516020615f628339815191528152f35b346108115760a051366003190112610811576020600154604051908152f35b34610811576121c2366143ac565b600395929193949554421061234b5760a0515b8681106121e25760a05180f35b6121ed818886614520565b356121f9828589614520565b35612205838589614520565b604080516020810184905291358282015281526001600160401b0360608201908111908211176123355760608101604052602081519101208260a05152600e90816020526002604060a0512001540361231c5768056bc75e2d631000008083116122fe57508260a051526020526008604060a0512082600382015501600160a81b60ff60a81b1982541617905560018060a01b03600c54169060015492823b1561081157604051936315d1070b60e11b85526004850152602484015260448301528160648160a0519360a051905af18015610817576122e8575b506001016121d5565b6122f190614236565b60a05161081157876122df565b8360449160405191632dc71e8d60e01b835260048301526024820152fd5b604051637afe112160e11b815260048101849052602490fd5b634e487b7160e01b600052604160045260246000fd5b6040516302a3f58760e51b8152600490fd5b346108115760a051366003190112610811576112f160405161237e816142b7565b600b81526a19195d995b1bdc1b595b9d60aa1b602082015260405191829182614363565b346108115760a051366003190112610811577f00000000000000000000000000000000000000000000000000000000000000006001600160a01b031630036123fc576020604051600080516020615ea28339815191528152f35b60405163703e46dd60e11b8152600490fd5b604036600319011261081157612422614199565b6024908135906001600160401b03821161081157366023830112156108115781600401359061245082614348565b9261245e60405194856142d2565b82845260209283850191368783830101116108115786829101833760a0519085018401526001600160a01b037f000000000000000000000000000000000000000000000000000000000000000081163081149081156126d8575b506123fc57600080516020615e0283398151915280600052600080516020615ee28339815191528552604060002033600052855260ff60406000205416156126bb575080600c5416803b156108115760405163b3c2d50b60e01b815260a05190918290818061252b8930600484016152d6565b039160a051905af18015610817576126a5575b508216936040516352d1902d60e01b81528481600481895afa60a0519181612676575b5061257e57604051634c9c8ce360e01b8152600481018790528790fd5b86600080516020615ea2833981519152918281036126615750843b1561264b575080546001600160a01b0319168617905560405160a0519095907fbc7cd75a20ee27fd9adebab32041f755214dbc6bffa90cc0225b39da2e5c2d3b9080a280511561262d576110ff945060a0519160a051915190845af4903d15612624573d9261260784614348565b9361261560405195866142d2565b845260a0513d9185013e615d2a565b60609250615d2a565b505050503461263c5750611cf9565b63b398979f60e01b8152600490fd5b604051634c9c8ce360e01b815260048101889052fd5b60405190632a87526960e21b82526004820152fd5b9091508581813d831161269e575b61268e81836142d2565b8101031261081157519088612561565b503d612684565b6126ae90614236565b60a051610811578661253e565b866044916040519163e2517d3f60e01b8352336004840152820152fd5b905081600080516020615ea283398151915254161415876124b8565b346108115760a051366003190112610811576020600454604051908152f35b34610811576020366003190112610811576004356001600160401b038111610811576127439036906004016141d9565b60035442118015612eda575b610fe15760ff60105460081c1661107f57600a546040516325c3ed4760e01b815290602090829060049082906001600160a01b03165afa9081156108175760049160209160a05191612ebd575b50604051631b6685b560e21b815292839182906001600160a01b03165afa9081156108175760a05191612e9e575b50611011576127d7615034565b6127e08161461a565b9060a051925b81841061280d576001600080516020615f4283398151915255604051806112f1858261430c565b61281b61130685848461464c565b60208101519093906001600160a01b03163303611a19576096600f541015610fcf57835160a0805191909152600e602052516040902060040154159182612e5257845160a05152600e60205260018060a01b036001604060a0512001541660018060a01b0360208701511603611a19578451935b60075460a08701516001600160a01b039081169116819003611a01575060a0515b60c0870151805182101561297e576001600160a01b03906128d29083906145f5565b511660a05152600860205260ff604060a051205416156129635784156128fb575b6001016128b0565b8560a05152600e602052612917816007604060a0512001615064565b905460c089015160039290921b1c6001600160a01b039081169161293c9084906145f5565b5116146128f357868660a05152600e602052611478611457836007604060a0512001615064565b60c08701516024916001600160a01b03916114b791906145f5565b505092919260608601516005548110610f9e57506129aa606087015160c08801516080890151916153e1565b6119ef5760a0515b60c08701518051821015612bd15784612b4957508560a05152600e6020526129e2816005604060a0512001615064565b90549060031b1c876129f88360808301516145f5565b51821015612a95575060095460c08901516001600160a01b039182169291612a3691612a259086906145f5565b5116916115868560808d01516145f5565b823b1561081157612a619260405180809581946308e44a0760e21b835260a051963360048501614546565b039160a051905af1801561081757612a7f575b506001905b016129b2565b612a8890614236565b60a0516108115788612a74565b90612aa48360808401516145f5565b518111612ab6575b5050600190612a79565b60018060a01b0360095416612aed60018060a01b036020850151169261164d86608060018060a01b036116438360c08b01516145f5565b90803b1561081157612b19936040518095819482936348717eb760e01b845260a0519760048501614546565b039160a051905af1801561081757612b33575b8790612aac565b612b3c90614236565b60a0516108115788612b2c565b6009546001600160a01b0390811691612b639084906145f5565b5116612b738360808b01516145f5565b51823b1561081157612b9f9260405180809581946308e44a0760e21b835260a051963360048501614546565b039160a051905af1801561081757612bbb575b50600190612a79565b612bc490614236565b60a0516108115788612bb2565b50506020860151604080880151606089015160808a015160a08b015160c0909b01519351969b989a959997969593946001600160a01b039485169491939116612c1987614249565b8887526020870152604086015260a0516060860152608085015260a084015260c083015260e082015260a05161010082015260a05161012082015260a0516101408201528260a05152600e602052604060a05120815181556001810160018060a01b0360208401511660018060a01b031982541617905560408201516002820155606082015160038201556080820151600482015560a082015180519060018060401b038211610f6057602090612cd38360058601614b15565b016005830160a05152602060a0512060a0515b838110612e3e575050505060c08201516006820180546001600160a01b0319166001600160a01b039290921691909117905560e08201518051906001600160401b038211610f6057602090612d3e8360078601614b15565b016007830160a05152602060a0512060a0515b838110612e215750505050906101406008612d799301916118e2610100820151151584614609565b612e09575b60a05152600e602052604060a051208054612d9983866145f5565b52600c546001546001600160a01b0390911691823b1561081157612dd692604051808095819463050ecc8960e11b835260a051966004840161485c565b039160a051905af1801561081757612df3575b50600101926127e6565b612dfc90614236565b60a0516108115784612de9565b600f54600181018111610c0257600101600f55612d7e565b82516001600160a01b031681830155602090920191600101612d51565b600190602084519401938184015501612ce6565b845160405160208101918252606033811b604083015230901b605482015260488152612e7d8161429c565b5190208060a05152600e6020526004604060a051200154611a80579361288f565b612eb7915060203d60201161104b5761103d81836142d2565b836127ca565b612ed49150823d84116110785761106a81836142d2565b8561279c565b50600254421061274f565b346108115760a05136600319011261081157612eff614be0565b6010805462ff000019169055600c5460015460a0515490916001600160a01b031690813b156108115760405192632044037760e21b8452600484015260248301528160448160a0519360a051905af1801561081757611cff5760a05180f35b346108115760a05136600319011261081157602060405160968152f35b346108115760a05136600319011261081157602060ff60105460101c166040519015158152f35b346108115760a05136600319011261081157612fbc614be0565b6010805461ff0019169055600c5460015460a0515490916001600160a01b031690813b15610811576040519263b423ac9d60e01b8452600484015260248301528160448160a0519360a051905af1801561081757611cff5760a05180f35b346108115760a051366003190112610811576009546040516001600160a01b039091168152602090f35b34610811576040366003190112610811576004356001600160401b038111610811576130749036906004016141d9565b61307c614183565b9160035442118015613805575b610fe15760ff60105460081c1661107f57600a546040516325c3ed4760e01b815290602090829060049082906001600160a01b03165afa9081156108175760049160209160a051916137e8575b50604051631b6685b560e21b815292839182906001600160a01b03165afa9081156108175760a051916137c9575b5061101157613111615034565b336001600160a01b03841614611a98579061312b8161461a565b9160a0515b828110613157576001600080516020615f4283398151915255604051806112f1868261430c565b61316561130682858561464c565b60208101519094906001600160a01b03163303611a19576096600f541015610fcf57845160a0805191909152600e60205251604090206004015415928361377d57855160a05152600e60205260018060a01b036001604060a0512001541660018060a01b0360208801511603611a19578551945b60075460a08801516001600160a01b039081169116819003611a01575060a0515b60c088015180518210156132ad576001600160a01b039061321c9083906145f5565b511660a05152600860205260ff604060a0512054161561149c578515613245575b6001016131fa565b8660a05152600e602052613261816007604060a0512001615064565b905460c08a015160039290921b1c6001600160a01b03908116916132869084906145f5565b51161461323d57878760a05152600e602052611478611457836007604060a0512001615064565b5050969392919660608701516005548110610f9e57506132db606088015160c089015160808a0151916153e1565b6119ef5760a0515b60c088015180518210156134f6578561346e57508660a05152600e602052613313816005604060a0512001615064565b90549060031b1c886133298360808301516145f5565b518210156133ba5761335b60018060a01b03600954169261158685608060018060a01b0361157c8360c08901516145f5565b823b15610811576133869260405180809581946308e44a0760e21b835260a051963360048501614546565b039160a051905af18015610817576133a4575b506001905b016132e3565b6133ad90614236565b60a0516108115789613399565b906133c98360808401516145f5565b5181116133db575b505060019061339e565b60018060a01b036009541661341260018060a01b036020850151169261164d86608060018060a01b036116438360c08b01516145f5565b90803b156108115761343e936040518095819482936348717eb760e01b845260a0519760048501614546565b039160a051905af1801561081757613458575b88906133d1565b61346190614236565b60a0516108115789613451565b6009546001600160a01b03908116916134889084906145f5565b51166134988360808c01516145f5565b51823b15610811576134c49260405180809581946308e44a0760e21b835260a051963360048501614546565b039160a051905af18015610817576134e0575b5060019061339e565b6134e990614236565b60a05161081157896134d7565b5050939695949192909460018060a01b0360208201511690604081015190606081015160808201519060c060018060a01b0360a085015116930151936040519561353f87614249565b8887526020870152604086015260a0516060860152608085015260a084015260c083015260e082015260a05161010082015260a05161012082015260a0516101408201528260a05152600e602052604060a05120815181556001810160018060a01b0360208401511660018060a01b031982541617905560408201516002820155606082015160038201556080820151600482015560a082015180519060018060401b038211610f60576020906135f98360058601614b15565b016005830160a05152602060a0512060a0515b838110613769575050505060c08201516006820180546001600160a01b0319166001600160a01b039290921691909117905560e08201518051906001600160401b038211610f60576020906136648360078601614b15565b016007830160a05152602060a0512060a0515b83811061374c575050505090610140600861369f9301916118e2610100820151151584614609565b613734575b60a05152600e602052604060a0512080546136bf83876145f5565b52600c546001546001600160a01b0390911691823b15610811576136ff92889160405180958194829363050ecc8960e11b845260a0519760048501614914565b039160a051905af180156108175761371e575b50600101919091613130565b61372790614236565b60a0516108115785613712565b600f54600181018111610c0257600101600f556136a4565b82516001600160a01b031681830155602090920191600101613677565b60019060208451940193818401550161360c565b855160405160208101918252606033811b604083015230901b6054820152604881526137a88161429c565b5190208060a05152600e6020526004604060a051200154611a8057946131d9565b6137e2915060203d60201161104b5761103d81836142d2565b84613104565b6137ff9150823d84116110785761106a81836142d2565b866130d6565b506002544210613089565b3461081157604036600319011261081157613829614183565b336001600160a01b03821603613845576110ff90600435615253565b60405163334bd91960e11b8152600490fd5b346108115760a05136600319011261081157600a546040516001600160a01b039091168152602090f35b3461081157610140366003190112610811576001600160401b03600435818111610811576138b3903690600401614209565b90602435838111610811576138cc903690600401614209565b6138d46141af565b9261010435948686116108115736602387011215610811578560040135956138fb876142f5565b9661390960405198896142d2565b8088526024602089019160051b8301019136831161081157602401905b828210613bea57505050610124356001600160a01b03811690036108df57600080516020615fa28339815191525496808816159081613bda575b88166001149081613bd0575b159081613bc7575b50613bb5576001600160401b03198716600117600080516020615fa283398151915255604087901c60ff1615613b8c575b6139ad615379565b6139b5615379565b6139bd615379565b6139c5615379565b6001600080516020615f42833981519152556139e361012435614c83565b50613a096020604051838194838301968737810160a051838201520380845201826142d2565b51902060a05155613a356020604051838194838301968737810160a051838201520380845201826142d2565b51902060015560643560443511613b6b5760443560025560643560035560843560045560c435600555613a6c60843560a43561459f565b670de0b6b3a764000090818102918183041490151715610c02576301da9c009004600655600780546001600160a01b0319166001600160a01b039290921691909117905560a0515b8151811015613af3576001906001600160a01b03613ad282856145f5565b511660a051526008602052604060a051208260ff1982541617905501613ab4565b60ff8360a051600f5581196010541660105560401c1615613b145760a05180f35b60ff60401b19600080516020615fa28339815191525416600080516020615fa2833981519152557fc7f505b2f371ae2175ee4913f4499e1f2633a7b5936321eed1cdaeb6115181d2602060405160018152a1611cf9565b6040516372067af960e11b8152604480356004830152606435602483015290fd5b6001600160481b031987166001600160401b0117600080516020615fa2833981519152556139a5565b60405163f92ee8a960e01b8152600490fd5b90501588613974565b303b15915061396c565b604089901c60ff16159150613960565b60208091613bf7846141c5565b815201910190613926565b3461081157604036600319011261081157613c1b614199565b6024356001600160401b03811161081157613c3a9036906004016141d9565b613c42614c18565b60ff60105460101c1661211057600a546040516325c3ed4760e01b81526020916001600160a01b03919083908290600490829086165afa908115610817578291849160a05191613dc8575b50600460405180948193631b6685b560e21b8352165afa9081156108175760a05191613dab575b5061101157613cc1615034565b6002544210610fe1578160035442119182613d59575b5050610fe15760a0515b828110613d00576001600080516020615f428339815191525560a05180f35b80613d53613d116001938688614520565b35613d1d838789614520565b3560a05152600e8086526007604060a051200190613d3c85898b614520565b3560a051528652886005604060a05120019261507c565b01613ce1565b600d54604051638dfea9e760e01b8152935083916004918391165afa9081156108175760a05191613d8e575b50158186613cd7565b613da59150823d841161104b5761103d81836142d2565b85613d85565b613dc29150833d851161104b5761103d81836142d2565b86613cb4565b613ddf9150823d84116110785761106a81836142d2565b88613c8d565b34610811576040366003190112610811576110ff600435613e04614183565b908060a05152600080516020615ee2833981519152602052613e2e6001604060a051200154614c50565b614fbf565b346108115760a051366003190112610811576020604051600080516020615e628339815191528152f35b346108115760a051366003190112610811576020600554604051908152f35b346108115760203660031901126108115760043560a05152600080516020615ee283398151915260205260206001604060a051200154604051908152f35b346108115760a051366003190112610811576020604051600080516020615e028339815191528152f35b346108115760a05136600319011261081157613efe614be0565b6010805462ff0000191662010000179055600c5460015460a0515490916001600160a01b031690813b156108115760405192631258284760e21b8452600484015260248301528160448160a0519360a051905af1801561081757611cff5760a05180f35b346108115760a051366003190112610811576020604051600a8152f35b346108115760a051366003190112610811576020604051600080516020615f228339815191528152f35b3461081157608036600319011261081157600435613fc5614183565b6001600160401b0360443581811161081157613fe59036906004016141d9565b929091606435908111610811576140009036906004016141d9565b61400b939193614ba8565b8560a05152600e60205260ff6008604060a0512001541661411e57600c546001805490976001600160a01b039692871690813b1561081157604051926307fec0e360e01b8452600484015260248301528160448160a0519360a051905af180156108175761410f575b5060a0515b8681106140865760a05180f35b856009541690614097818987614520565b358781168103610811576140ac828686614520565b35833b15610811576140d89360405180809681946348717eb760e01b835260a051968d60048501614546565b039160a051905af19182156108175789926140f5575b5001614079565b614100919250614236565b60a051610811578790896140ee565b61411890614236565b87614074565b60405163041753a560e31b8152600490fd5b34610811576020366003190112610811576004359063ffffffff60e01b821680920361081157602091637965db0b60e01b8114908115614172575b5015158152f35b6301ffc9a760e01b1490508361416b565b602435906001600160a01b03821682036108df57565b600435906001600160a01b03821682036108df57565b60e435906001600160a01b03821682036108df57565b35906001600160a01b03821682036108df57565b9181601f840112156108df578235916001600160401b0383116108df576020808501948460051b0101116108df57565b9181601f840112156108df578235916001600160401b0383116108df57602083818601950101116108df57565b6001600160401b03811161233557604052565b61016081019081106001600160401b0382111761233557604052565b61012081019081106001600160401b0382111761233557604052565b602081019081106001600160401b0382111761233557604052565b608081019081106001600160401b0382111761233557604052565b604081019081106001600160401b0382111761233557604052565b601f909101601f19168101906001600160401b0382119082101761233557604052565b6001600160401b0381116123355760051b60200190565b602090602060408183019282815285518094520193019160005b828110614334575050505090565b835185529381019392810192600101614326565b6001600160401b03811161233557601f01601f191660200190565b6020808252825181830181905290939260005b82811061439857505060409293506000838284010152601f8019910116010190565b818101860151848201604001528501614376565b9060606003198301126108df576001600160401b036004358181116108df57836143d8916004016141d9565b939093926024358381116108df57826143f3916004016141d9565b939093926044359182116108df5761440d916004016141d9565b9091565b90815180825260208080930193019160005b828110614431575050505090565b835185529381019392810192600101614423565b90815180825260208080930193019160005b828110614465575050505090565b83516001600160a01b031685529381019392810192600101614457565b9061016091805182526144f66144d860208301519460018060a01b03809616602086015260408401516040860152606084015160608601526080840151608086015260a0840151908060a0870152850190614411565b8460c08401511660c085015260e083015184820360e0860152614445565b92610100808301511515908401526101209081830151169083015261014080910151151591015290565b91908110156145305760051b0190565b634e487b7160e01b600052603260045260246000fd5b6001600160a01b03918216815291166020820152604081019190915260600190565b908160209103126108df57516001600160a01b03811681036108df5790565b908160209103126108df575180151581036108df5790565b919082039182116145ac57565b634e487b7160e01b600052601160045260246000fd5b818102929181159184041417156145ac57565b81156145df570490565b634e487b7160e01b600052601260045260246000fd5b80518210156145305760209160051b010190565b9060ff801983541691151516179055565b90614624826142f5565b61463160405191826142d2565b8281528092614642601f19916142f5565b0190602036910137565b91908110156145305760051b8101359060de19813603018212156108df570190565b9080601f830112156108df576020908235614688816142f5565b9361469660405195866142d2565b81855260208086019260051b8201019283116108df57602001905b8282106146bf575050505090565b813581529083019083016146b1565b9080601f830112156108df5760209082356146e8816142f5565b936146f660405195866142d2565b81855260208086019260051b8201019283116108df57602001905b82821061471f575050505090565b83809161472b846141c5565b815201910190614711565b60e0813603126108df57604051906001600160401b039060e0830182811184821017612335576040528035835261476f602082016141c5565b6020840152604081013560408401526060810135606084015260808101358281116108df576147a1903690830161466e565b60808401526147b260a082016141c5565b60a084015260c08101359182116108df576147cf913691016146ce565b60c082015290565b9081548082526020809201926000526020600020916000905b8282106147fe575050505090565b8354855293840193600193840193909101906147f0565b9081548082526020809201926000526020600020916000905b82821061483c575050505090565b83546001600160a01b03168552938401936001938401939091019061482e565b92916040906000928552606060208601528054606086015260ff60018060a01b03806001840154166080880152600283015460a0880152600383015460c0880152600483015460e0880152610160908161010089015260086148eb6148c86101c08b01600588016147d7565b600687015484166101208c01528a8103605f19016101408c015260078701614815565b940154918383161515908901528160081c1661018088015260a81c1615156101a0860152930152565b916040919493948352606060208401528054606084015260018060a01b0390816001820154166080850152600281015460a0850152600381015460c0850152600481015460e085015260ff6101608061010087015260086149a261497f6101c08901600587016147d7565b600686015487166101208a0152888103605f19016101408a015260078601614815565b93015490828216151590870152838160081c1661018087015260a81c1615156101a08501529416910152565b604051906149db82614249565b81610140600091828152826020820152826040820152826060820152826080820152606060a08201528260c0820152606060e082015282610100820152826101208201520152565b90604051614a3081614249565b61014060ff829480548452600860018060a01b0391826001820154166020870152600281015460408701526003810154606087015260048101546080870152604051614a8a81614a8381600586016147d7565b03826142d2565b60a08701528260068201541660c0870152604051614aaf81614a838160078601614815565b60e087015201549082821615156101008601528160081c1661012085015260a81c161515910152565b359081151582036108df57565b81614aee575050565b6000906000526020600020918201915b828110614b0a57505050565b818155600101614afe565b600160401b821161233557805491808255828110614b3257505050565b600091600052602060002092830192015b828110614b4f57505050565b818155600101614b43565b6008600091828155826001820155826002820155826003820155826004820155614b8c60058201805490858155614ae5565b826006820155614ba460078201805490858155614ae5565b0155565b336000908152600080516020615de28339815191526020526040902054600080516020615f828339815191529060ff1615610ff35750565b336000908152600080516020615e228339815191526020526040902054600080516020615f628339815191529060ff1615610ff35750565b336000908152600080516020615f028339815191526020526040902054600080516020615ec28339815191529060ff1615610ff35750565b80600052600080516020615ee283398151915260205260406000203360005260205260ff6040600020541615610ff35750565b6001600160a01b03166000818152600080516020615e828339815191526020526040812054909190600080516020615e6283398151915290600080516020615ee28339815191529060ff16614d09578184526020526040832082845260205260408320600160ff19825416179055600080516020615dc2833981519152339380a4600190565b50505090565b6001600160a01b03166000818152600080516020615e428339815191526020526040812054909190600080516020615f2283398151915290600080516020615ee28339815191529060ff16614d09578184526020526040832082845260205260408320600160ff19825416179055600080516020615dc2833981519152339380a4600190565b6001600160a01b03166000818152600080516020615de28339815191526020526040812054909190600080516020615f8283398151915290600080516020615ee28339815191529060ff16614d09578184526020526040832082845260205260408320600160ff19825416179055600080516020615dc2833981519152339380a4600190565b6001600160a01b031660008181527f0cfb002fcf8644f87ebf6cf6e31899c8d8e9f7c329b465b6e36989a958507e8b6020526040812054909190600080516020615e0283398151915290600080516020615ee28339815191529060ff16614d09578184526020526040832082845260205260408320600160ff19825416179055600080516020615dc2833981519152339380a4600190565b6001600160a01b03166000818152600080516020615e228339815191526020526040812054909190600080516020615f6283398151915290600080516020615ee28339815191529060ff16614d09578184526020526040832082845260205260408320600160ff19825416179055600080516020615dc2833981519152339380a4600190565b6001600160a01b03166000818152600080516020615f028339815191526020526040812054909190600080516020615ec283398151915290600080516020615ee28339815191529060ff16614d09578184526020526040832082845260205260408320600160ff19825416179055600080516020615dc2833981519152339380a4600190565b90600091808352600080516020615ee283398151915280602052604084209260018060a01b03169283855260205260ff60408520541615600014614d09578184526020526040832082845260205260408320600160ff19825416179055600080516020615dc2833981519152339380a4600190565b600080516020615f4283398151915260028154146150525760029055565b604051633ee5aeb560e01b8152600490fd5b80548210156145305760005260206000200190600090565b92600091848352600e6020526004916040948386862001541561523c57868552600e6020528585206001908101546001600160a01b039491939085168286160361522c57888752600e60205260ff600889892001541661521c5786845b615176575b5050505050848352600e6020526150f6848420614b5a565b600f54600019810190811161516357600f55600c54169060015491803b1561515f5783929183604492875198899586946307fec0e360e01b865285015260248401525af191821561515557505061514a5750565b61515390614236565b565b51903d90823e3d90fd5b8380fd5b634e487b7160e01b845260118352602484fd5b835481101561521757856009541661518e8286615064565b91905491600361519e8587615064565b905490821b1c833b1561521357918c8094928f8d97958f8c6151d793519a8b998a9889976348717eb760e01b89521b1c16918501614546565b03925af18015615209579186959493929186926151fa575b5001909192936150d9565b61520390614236565b386151ef565b8a513d8b823e3d90fd5b8c80fd5b6150de565b875163041753a560e31b81528690fd5b87516305732abb60e51b81528690fd5b85516311ebb27f60e11b8152808501889052602490fd5b90600091808352600080516020615ee283398151915280602052604084209260018060a01b03169283855260205260ff604085205416600014614d0957818452602052604083208284526020526040832060ff1981541690557ff6391f5c32d9c69d2a47ea670b442974b53935d1edc7fd64eb21e047a839171b339380a4600190565b6001600160a01b0391821681529116602082015260400190565b805460ff60a81b191691151560a81b60ff60a81b16919091179055565b919082018092116145ac57565b90615324826142f5565b61533160405191826142d2565b8281528092615342601f19916142f5565b019060005b82811061535357505050565b60209061535e6149ce565b82828501015201615347565b60001981146145ac5760010190565b60ff600080516020615fa28339815191525460401c161561539657565b604051631afcd79f60e31b8152600490fd5b908160209103126108df57604051906153c082614281565b51815290565b6001600160a01b039091168152602081019190915260400190565b929061541f60018060a01b039485600b5416948660075416956040968751926303d3c9db60e21b9485855284806020988993600496600484016153c6565b0381865afa9384156155c7576000946155a8575b5088979693975161544381614281565b60008152936000978b60095416955b82518a1015615589578c6154668b856145f5565b518d51632a1e8cdb60e01b815291168682018190528a826024818c5afa91821561553d57908e91600093615554575b506154a08d886145f5565b5115615548578b908b6154c98f6154b7908b6145f5565b519451948593849384528c84016153c6565b03818b5afa90811561553d57615505928f9260019593615500938f60009361550e575b505051916154f983614281565b825261564f565b615696565b995b0198615452565b61552e929350803d10615536575b61552681836142d2565b8101906153a8565b90388f6154ec565b503d61551c565b8e513d6000823e3d90fd5b50505098600190615507565b9150918b82813d8311615582575b61556c81836142d2565b8101031261557f57508d90519138615495565b80fd5b503d615562565b999a509a505050505050505050519051116155a357600090565b600190565b6155c0919450863d88116155365761552681836142d2565b9238615433565b89513d6000823e3d90fd5b600052600e6020526155e76040600020614b5a565b600f5460001981019081116145ac57600f55565b80156145ac576000190190565b6040519061561582614265565b81610100600091828152826020820152826040820152826060820152606060808201528260a0820152606060c08201528260e08201520152565b600060405161565d81614281565b5251670de0b6b3a7640000908181029181830414901517156145ac576156849151906145d5565b6040519061569182614281565b815290565b906156849160006040516156a981614281565b525190519061530d565b60018082015460408051632762697d60e01b81526001600160a01b0392831660048083018290529596929594928416906020908184602481865afa938415615a5f57600094615b11575b508315615b03578660065489519061571482614281565b81528388600a54168b519384809263fa19d0ed60e01b82525afa908115615af857600091615ac7575b61575592508a519161574e83614281565b8252615d8d565b5193670de0b6b3a7640000948582029182048603615aaa5789519161577983614281565b8252850390858211615aaa578591615797918b51916154f983614281565b5104878a0180548210615abf575b5485810290808204871490151715615aaa576157c489939285926145d5565b948a5193848092630f7a077160e21b82525afa9182156155c75790879291600092615a6a575b509060246000928b519485938492636f3fc39760e11b84528d840152165afa918215615a5f578594939260009283929161593d575b50508989956000905b615897575b5050505050505050600c54169260015493803b156108df57615867946000809486519788958694859363050ecc8960e11b8552840161485c565b03925af190811561588d575061587e575b50600190565b61588790614236565b38615878565b513d6000823e3d90fd5b82518110156159385780889792600588856158da8c97516158b781614281565b8b81526158c4878c6145f5565b5190600084516158d381614281565b52516145c2565b8091516158e681614281565b520491016158f48382615064565b939054600394851b1c8303615912575b50505050018a908a96615828565b61591b91615064565b81939154911b91821b91600019901b191617905538808083615904565b61582d565b919394955091503d8084833e61595381836142d2565b810190898183031261515f5780516001600160401b039190828111615a3b57810183601f82011215615a3b5790818c959493925161599c615993826142f5565b975197886142d2565b808752858088019160051b83010191858311615a5b578601905b828210615a3f5750505083810151918211615a3b570181601f82011215615a37578051906159e3826142f5565b956159f08d5197886142d2565b828752848088019360051b83010193841161557f57509083899897969594939201905b828210615a255750505050388061581f565b81518152899850908301908301615a13565b8480fd5b8580fd5b81518d81168103615a575781529086019086016159b6565b8980fd5b8880fd5b88513d6000823e3d90fd5b9092508381813d8311615aa3575b615a8281836142d2565b81010312615a9f575190878216820361557f5750869160246157ea565b5080fd5b503d615a78565b601189634e487b7160e01b6000525260246000fd5b8181556157a5565b90508382813d8311615af1575b615ade81836142d2565b810103126108df5761575591519061573d565b503d615ad4565b8a513d6000823e3d90fd5b505050505050505050600090565b90938282813d8311615b39575b615b2881836142d2565b8101031261557f57505192386156fd565b503d615b1e565b9193919080615cb55750925b615b8860018060a01b039485600b5416948660075416956040968751926303d3c9db60e21b9485855284806020988993600496600484016153c6565b0381865afa9384156155c757600094615c96575b50889796939751615bac81614281565b60008152936000978b60095416955b82518a1015615589578c615bcf8b856145f5565b518d516320db25d560e01b815291168682018190528a826024818c5afa91821561553d57908e91600093615c64575b50615c098d886145f5565b5115615c58578b908b615c208f6154b7908b6145f5565b03818b5afa90811561553d57615c4f928f9260019593615500938f60009361550e57505051916154f983614281565b995b0198615bbb565b50505098600190615c51565b9150918b82813d8311615c8f575b615c7c81836142d2565b8101031261557f57508d90519138615bfe565b503d615c72565b615cae919450863d88116155365761552681836142d2565b9238615b9c565b90615cfa604051615cc581614281565b615cf4670de0b6b3a76400009485835260065460405190615ce582614281565b81526040519161574e83614281565b90615696565b828202918083048414901517156145ac57604051615d2292615d1b82614281565b8152615d8d565b510492615b4c565b90615d515750805115615d3f57805190602001fd5b60405163d6bda27560e01b8152600490fd5b81511580615d84575b615d62575090565b604051639996b31560e01b81526001600160a01b039091166004820152602490fd5b50803b15615d5a565b670de0b6b3a764000091615db3916000604051615da981614281565b52519051906145c2565b04604051906156918261428156fe2f8788117e7eff1d82e926ec794901d17c78024a50270940304540a733656f0db3c9a2228313d87a290b541e6906f28f17cf1bddb0fe5c16a1d3c55a85417e5b793a6c9b7e0a9549c74edc2f9ae0dc50903dfaa9a56fb0116b27a8c71de3e2c6b16e88c42fd4e48df2dd6a2eabd6bc9aec654ec170056b470819f8892cc6431cd7a4b94e3999c665472d525c803b137e79362305144db4ed5b3b50836858e97a30d41a597cac127d8249d31298b50e481ee82c3f4a49ff93c76a22735aa9f3ad44fa5399874b75da801cb431822b6afcadb876f84eb39d7f05bf697e94b4484e360894a13ba1a3210667c828492db98dca3e2076cc3735a920a3ca505d382bbcc36a8568220526774f62a808c5b8dd8b7191b32206f87b2bfd1149584358996302dd7bc7dec4dceedda775e58dd541e08a116c6c53815c0bd028192f7b62680071dad3b8d800ed6b81a4c9f84973579b8b42e673b9a0771be09894ef8040dd786e3cc031d23d7153f72e87cbfd113a0351c60d8ce52b8a31c944d543a384b7c99b779b17422d0df92223018b32b4d1fa46e071723d6817e2486d003becc55f00a49807205ce4d355092ef5a8a18f56e8913cf4a201fbe287825b095693c21775c1df76f4e50bdb95676f782d4b88b23904c5346d8bc7c986ae26f7e10e601891f0c57e16840df040f15088dc2f81fe391c3923bec73e23a9662efc9c229c6a00a26469706673582212202debaf7a6eea3c8d23fe7c28658def16c0d5988bba19302d44be207ccf64766564736f6c63430008160033",
  "linkReferences": {},
  "deployedLinkReferences": {}
}